1                        J E S 2  J O B  L O G  --  S Y S T E M  S Y S B  --  N O D E  R L G
0
 09.39.03 JOB05932 ---- MONDAY,    22 MAR 2004 ----
 09.39.03 JOB05932  ICH70001I GG$PJG   LAST ACCESS AT 09:38:53 ON MONDAY, MARCH 22, 2004
 09.39.03 JOB05932  $HASP373 PJG#FCAT STARTED - INIT 3    - CLASS E - SYS SYSB
 09.39.03 JOB05932  ***  HCMD      STEP $$QUIET
 09.39.03 JOB05932  PURGE * Q=OUTPUT MULTIPLE
 09.39.03 JOB05932  JOB PJG#FCAT NOT IN OUTPUT QUEUE
 09.39.04 JOB05932  PJG#FCAT.$$QUIET .         RC=0008 TapeIO=0000 DiskIO=0000 CPU=  .01s Elapsed=43.06s
 09.39.04 JOB05932  PJG#FCAT.$CND    .         RC=Zero TapeIO=0000 DiskIO=0003 CPU=  .01s Elapsed=44.11s
 09.39.04 JOB05932  PJG#FCAT.$UNP    .         RC=Zero TapeIO=0000 DiskIO=0029 CPU=  .05s Elapsed=44.31s
 09.39.14 JOB05932  PJG#FCAT.ASM     .         RC=Zero TapeIO=0000 DiskIO=0539 CPU= 4.25s Elapsed=44.62s
 09.39.17 JOB05932  PJG#FCAT.$EDIT   .         RC=Zero TapeIO=0000 DiskIO=0257 CPU=  .97s Elapsed=55.02s
 09.39.17 JOB05932  PJG#FCAT Ended.  Name=Module: FILECAT                Total CPU= 5.29s Elapsed=43.06s
 09.39.17 JOB05932
 09.39.17 JOB05932  Execution charges   Priority=Standard   Block=Day
 09.39.17 JOB05932
 09.39.17 JOB05932  CPU Usage          97.87          $60.67   Standard Processing Unit Equivalent
 09.39.17 JOB05932                                   =======
 09.39.17 JOB05932                                    $60.67   Total Job execution charge
 09.39.17 JOB05932
 09.39.17 JOB05932  See back separator page for print charges
 09.39.17 JOB05932
 09.39.17 JOB05932  $HASP395 PJG#FCAT ENDED  ASM=0
1        1 //PJG#FCAT JOB PJG$GG,'Module: FILECAT',TIME=1,MSGCLASS=C               JOB05932
           /*JOBPARM HOLD=OUTPUT,LINES=50,CHARS=TN15,NOTIFY=YES
         2 //       EXEC PURGEOLD
         3 XXPURGEOLD PROC
           XX*
           XX* This proc is maintained by Jim Stosick
           XX*
         4 XX$$QUIET  EXEC PGM=HCMDX,PARM='PURGE * Q=OUTPUT MULTIPLE',
           XX         ACCT=(PURGEOLD,SYS3)
         5 //$CND   EXEC PGM=BILBO,REGION=512K,PARM='RECS=100'
         6 //STEPLIB  DD DSN=WYL.GG.ORV.LINKLIB,DISP=SHR
         7 //SYSPRINT DD SYSOUT=$
         8 //SYSUT1   DD DSN=WYL.GG.PJG.OBJ,DISP=OLD
         9 //SYSUT2   DD DSN=WYL.GG.PJG.OBJ,DISP=OLD
        10 //SYSIN    DD DUMMY
        11 //$UNP   EXEC PGM=WUNPRESS,PARM='NUM'
        12 //SYSPRINT DD SYSOUT=$
        13 //SYSUT1   DD DSN=WYL.GG.ORV.SOURCE(FILECAT),DISP=SHR
        14 //SYSUT2   DD DSN=&&INPUT,DISP=(,PASS),UNIT=SYSDA,
           //            SPACE=(TRK,(25,25),RLSE),DCB=CARD
        15 //ASM    EXEC PGM=ASMA90,REGION=8M,COND=(0,NE,$UNP),
           //            PARM=('SYSPARM(FILECAT),TERM,LANG(EN),OBJ',
           //          'LC(32500),XREF(SHORT),NODECK,NORLD,NODX,NOUS')
           //*STEPLIB  DD DSN=SYS1.SASMMOD1,DISP=SHR
        16 //SYSLIB   DD DSN=SYS3.DUMMYMAC,DISP=SHR,DCB=BLKSIZE=27920
        17 //         DD DSN=WYL.GG.ORV.MACLIB,DISP=SHR
        18 //         DD DSN=WYL.GG.SYS.MACLIB,DISP=SHR
        19 //SYSUT1   DD DSN=&&SYSUT1,UNIT=VIO,DISP=(,DELETE),
           //            SPACE=(4088,(500,250),,CONTIG,ROUND)
        20 //SYSTERM  DD SYSOUT=$
        21 //SYSPRINT DD DSN=&&PRINT,UNIT=SYSDA,DISP=(,PASS),
           //            SPACE=(6650,(250,250),RLSE),
           //            DCB=(BLKSIZE=6650,LRECL=133,RECFM=FB)
        22 //SYSLIN   DD DSN=WYL.GG.PJG.OBJ(FILECAT),DISP=OLD
        23 //SYSUDUMP DD SYSOUT=A
        24 //SYSIN    DD DSN=&&INPUT,DISP=(OLD,DELETE)
        25 //$EDIT  EXEC PGM=ASMEDIT,REGION=1M,
           //            COND=EVEN,PARM='STMT,DATA'
        26 //STEPLIB  DD DSN=WYL.GG.SYS.LINKLIB,DISP=SHR
        27 //ASMOUT   DD DSN=&&PRINT,DISP=(OLD,DELETE)
        28 //SYSPRINT DD SYSOUT=A
        29 //SYSUDUMP DD SYSOUT=A
1 STMT NO. MESSAGE
         2 IEFC001I PROCEDURE PURGEOLD WAS EXPANDED USING SYSTEM LIBRARY SYS3.BETAPROC
        14 IGD01010I STORCLAS= TEMP STORGROUP =
        14 IGD01010I STORGRP=VIO ASSIGNED.
        19 IGD01010I STORCLAS= TEMP STORGROUP =
        19 IGD01010I STORGRP=VIO ASSIGNED.
        21 IGD01010I STORCLAS= TEMP STORGROUP =
        21 IGD01010I STORGRP=VIO ASSIGNED.
 ICH70001I GG$PJG   LAST ACCESS AT 09:38:53 ON MONDAY, MARCH 22, 2004
 IEF142I PJG#FCAT $$QUIET - STEP WAS EXECUTED - COND CODE 0008
 *********************************************************************************
 *   PJG#FCAT/$$QUIET /                    Return Code      0008                 *
 *   Region used      260K (16K user + 244K system)                              *
 *   Extended region  9352K (4K user + 9348K system)                             *
 *                                                                               *
 *   Paging              In      Out                                             *
 *   Private <-> Aux      0        0       CPU time (TCB)   00:00:00.01          *
 *   Private <-> Exp      0        0       CPU time (SRB)   00:00:00.00          *
 *   VIO                  0        0       Elapsed time    920:48:49.90          *
 *   Common               0      ---                                             *
 *                                                                               *
 *                                                                               *
 *   CPU Usage          0.18         $0.11  Standard Processing Unit Equivalent  *
 *                                   $0.11  Total Step execution charge          *
 *                                                                               *
 *    I/O count  DDname   Type Addr           I/O count  DDname   Type Addr      *
 *                         *** No I/O for this step ***                          *
 *********************************************************************************
 IEF373I STEP/$$QUIET /START 2004082.0939
 IEF374I STEP/$$QUIET /STOP  2004082.0939 CPU    0MIN 00.01SEC SRB    0MIN 00.00SEC VIRT    16K SYS   244K EXT       4K SYS    9348K
 IEF236I ALLOC. FOR PJG#FCAT $CND
 IEF237I 0401 ALLOCATED TO STEPLIB
 IEF237I JES2 ALLOCATED TO SYSPRINT
 IEF237I 04DC ALLOCATED TO SYSUT1
 IEF237I 04DC ALLOCATED TO SYSUT2
 IEF237I DMY  ALLOCATED TO SYSIN
 IEF142I PJG#FCAT $CND - STEP WAS EXECUTED - COND CODE 0000
 IEF285I   WYL.GG.ORV.LINKLIB                           KEPT
 IEF285I   VOL SER NOS= SYSB01.
 IEF285I   GG$PJG.PJG#FCAT.JOB05932.D0000101.?          SYSOUT
 IEF285I   WYL.GG.PJG.OBJ                               KEPT
 IEF285I   VOL SER NOS= SYSB05.
 IEF285I   WYL.GG.PJG.OBJ                               KEPT
 IEF285I   VOL SER NOS= SYSB05.
 *********************************************************************************
 *   PJG#FCAT/$CND    /                    Return Code      Zero                 *
 *   Region used      280K (16K user + 264K system)                              *
 *   Extended region  9392K (4K user + 9388K system)                             *
 *                                                                               *
 *   Paging              In      Out                                             *
 *   Private <-> Aux      0        0       CPU time (TCB)   00:00:00.01          *
 *   Private <-> Exp      0        0       CPU time (SRB)   00:00:00.00          *
 *   VIO                  0        0       Elapsed time    920:48:48.85          *
 *   Common               0      ---                                             *
 *                                                                               *
 *                                                                               *
 *   CPU Usage          0.18         $0.11  Standard Processing Unit Equivalent  *
 *                                   $0.11  Total Step execution charge          *
 *                                                                               *
 *    I/O count  DDname   Type Addr           I/O count  DDname   Type Addr      *
 *            3  STEPLIB  Disk 0401                   0  SYSPRINT      ----      *
 *            0  SYSUT1   Disk 04DC                   0  SYSUT2   Disk 04DC      *
 *            0  SYSIN         ----                                              *
 *********************************************************************************
 IEF373I STEP/$CND    /START 2004082.0939
 IEF374I STEP/$CND    /STOP  2004082.0939 CPU    0MIN 00.01SEC SRB    0MIN 00.00SEC VIRT    16K SYS   264K EXT       4K SYS    9388K
 IEF236I ALLOC. FOR PJG#FCAT $UNP
 IEF237I JES2 ALLOCATED TO SYSPRINT
 IEF237I 0402 ALLOCATED TO SYSUT1
 IGD101I SMS ALLOCATED TO DDNAME (SYSUT2  )
         DSN (SYS04082.T093903.RA000.PJG#FCAT.INPUT.H01   )
         STORCLAS (TEMP) MGMTCLAS (        ) DATACLAS (        )
         VOL SER NOS= SCR101
 IEF142I PJG#FCAT $UNP - STEP WAS EXECUTED - COND CODE 0000
 IEF285I   GG$PJG.PJG#FCAT.JOB05932.D0000102.?          SYSOUT
 IEF285I   WYL.GG.ORV.SOURCE                            KEPT
 IEF285I   VOL SER NOS= SYSB02.
 IGD106I SYS04082.T093903.RA000.PJG#FCAT.INPUT.H01    PASSED,    DDNAME=SYSUT2
 *********************************************************************************
 *   PJG#FCAT/$UNP    /                    Return Code      Zero                 *
 *   Region used      380K (108K user + 272K system)                             *
 *   Extended region  9468K (4K user + 9464K system)                             *
 *                                                                               *
 *   Paging              In      Out                                             *
 *   Private <-> Aux      0        0       CPU time (TCB)   00:00:00.05          *
 *   Private <-> Exp      0        0       CPU time (SRB)   00:00:00.00          *
 *   VIO                  0        0       Elapsed time    920:48:48.65          *
 *   Common               0      ---                                             *
 *                                                                               *
 *                                                                               *
 *   CPU Usage          0.93         $0.57  Standard Processing Unit Equivalent  *
 *                                   $0.57  Total Step execution charge          *
 *                                                                               *
 *    I/O count  DDname   Type Addr           I/O count  DDname   Type Addr      *
 *            0  SYSPRINT      ----                   4  SYSUT1   Disk 0402      *
 *           25  SYSUT2   Disk 04E3                                              *
 *********************************************************************************
 IEF373I STEP/$UNP    /START 2004082.0939
 IEF374I STEP/$UNP    /STOP  2004082.0939 CPU    0MIN 00.05SEC SRB    0MIN 00.00SEC VIRT   108K SYS   272K EXT       4K SYS    9464K
 IEF236I ALLOC. FOR PJG#FCAT ASM
 IEF237I 0402 ALLOCATED TO SYSLIB
 IEF237I 0402 ALLOCATED TO
 IEF237I 04DC ALLOCATED TO
 IGD101I SMS ALLOCATED TO DDNAME (SYSUT1  )
         DSN (SYS04082.T093903.RA000.PJG#FCAT.SYSUT1.H01  )
         STORCLAS (TEMP) MGMTCLAS (        ) DATACLAS (        )
         VOL SER NOS= VIO
 IEF237I JES2 ALLOCATED TO SYSTERM
 IGD101I SMS ALLOCATED TO DDNAME (SYSPRINT)
         DSN (SYS04082.T093903.RA000.PJG#FCAT.PRINT.H01   )
         STORCLAS (TEMP) MGMTCLAS (        ) DATACLAS (        )
         VOL SER NOS= SCR100
 IEF237I 04DC ALLOCATED TO SYSLIN
 IEF237I JES2 ALLOCATED TO SYSUDUMP
 IGD103I SMS ALLOCATED TO DDNAME SYSIN
 IEF142I PJG#FCAT ASM - STEP WAS EXECUTED - COND CODE 0000
 IEF285I   SYS3.DUMMYMAC                                KEPT
 IEF285I   VOL SER NOS= SYSB02.
 IEF285I   WYL.GG.ORV.MACLIB                            KEPT
 IEF285I   VOL SER NOS= SYSB02.
 IEF285I   WYL.GG.SYS.MACLIB                            KEPT
 IEF285I   VOL SER NOS= SYSB05.
 IGD105I SYS04082.T093903.RA000.PJG#FCAT.SYSUT1.H01   DELETED,   DDNAME=SYSUT1
 IEF285I   GG$PJG.PJG#FCAT.JOB05932.D0000103.?          SYSOUT
 IGD106I SYS04082.T093903.RA000.PJG#FCAT.PRINT.H01    PASSED,    DDNAME=SYSPRINT
 IEF285I   WYL.GG.PJG.OBJ                               KEPT
 IEF285I   VOL SER NOS= SYSB05.
 IEF285I   GG$PJG.PJG#FCAT.JOB05932.D0000104.?          SYSOUT
 IGD105I SYS04082.T093903.RA000.PJG#FCAT.INPUT.H01    DELETED,   DDNAME=SYSIN
 *********************************************************************************
 *   PJG#FCAT/ASM     /                    Return Code      Zero                 *
 *   Region used      8476K (8192K user + 284K system)                           *
 *   Extended region  9952K (412K user + 9540K system)                           *
 *                                                                               *
 *   Paging              In      Out                                             *
 *   Private <-> Aux      0        0       CPU time (TCB)   00:00:04.20          *
 *   Private <-> Exp      0        0       CPU time (SRB)   00:00:00.05          *
 *   VIO                  0        0       Elapsed time    920:48:48.34          *
 *   Common               0      ---                                             *
 *                                                                               *
 *                                                                               *
 *   CPU Usage         78.75        $48.82  Standard Processing Unit Equivalent  *
 *                                  $48.82  Total Step execution charge          *
 *                                                                               *
 *    I/O count  DDname   Type Addr           I/O count  DDname   Type Addr      *
 *           98  SYSLIB   Disk 0402                   0  SYSLIB   Disk 0402      *
 *          150  SYSLIB   Disk 04DC                   0  SYSUT1   VIO  ----      *
 *            0  SYSTERM       ----                 254  SYSPRINT Disk 038B      *
 *           11  SYSLIN   Disk 04DC                   0  SYSUDUMP      ----      *
 *           26  SYSIN    Disk 04E3                                              *
 *********************************************************************************
 IEF373I STEP/ASM     /START 2004082.0939
 IEF374I STEP/ASM     /STOP  2004082.0939 CPU    0MIN 04.20SEC SRB    0MIN 00.05SEC VIRT  8192K SYS   284K EXT     412K SYS    9540K
 IEF236I ALLOC. FOR PJG#FCAT $EDIT
 IEF237I 0402 ALLOCATED TO STEPLIB
 IGD103I SMS ALLOCATED TO DDNAME ASMOUT
 IEF237I JES2 ALLOCATED TO SYSPRINT
 IEF237I JES2 ALLOCATED TO SYSUDUMP
 IEF142I PJG#FCAT $EDIT - STEP WAS EXECUTED - COND CODE 0000
 IEF285I   WYL.GG.SYS.LINKLIB                           KEPT
 IEF285I   VOL SER NOS= SYSB02.
 IGD105I SYS04082.T093903.RA000.PJG#FCAT.PRINT.H01    DELETED,   DDNAME=ASMOUT
 IEF285I   GG$PJG.PJG#FCAT.JOB05932.D0000105.?          SYSOUT
 IEF285I   GG$PJG.PJG#FCAT.JOB05932.D0000106.?          SYSOUT
 *********************************************************************************
 *   PJG#FCAT/$EDIT   /                    Return Code      Zero                 *
 *   Region used      388K (116K user + 272K system)                             *
 *   Extended region  9468K (4K user + 9464K system)                             *
 *                                                                               *
 *   Paging              In      Out                                             *
 *   Private <-> Aux      0        0       CPU time (TCB)   00:00:00.95          *
 *   Private <-> Exp      0        0       CPU time (SRB)   00:00:00.02          *
 *   VIO                  0        0       Elapsed time    920:48:37.94          *
 *   Common               0      ---                                             *
 *                                                                               *
 *                                                                               *
 *   CPU Usage         17.81        $11.04  Standard Processing Unit Equivalent  *
 *                                  $11.04  Total Step execution charge          *
 *                                                                               *
 *    I/O count  DDname   Type Addr           I/O count  DDname   Type Addr      *
 *            2  STEPLIB  Disk 0402                 255  ASMOUT   Disk 038B      *
 *            0  SYSPRINT      ----                   0  SYSUDUMP      ----      *
 *********************************************************************************
 IEF373I STEP/$EDIT   /START 2004082.0939
 IEF374I STEP/$EDIT   /STOP  2004082.0939 CPU    0MIN 00.95SEC SRB    0MIN 00.02SEC VIRT   116K SYS   272K EXT       4K SYS    9464K
 *********************************************************************************
 *                                                                               *
 *                      S t a n f o r d   U n i v e r s i t y                    *
 *                                                                               *
 *                              *** Job Summary ***                              *
 *                                                                               *
 *   System Id      SYSB                   Input time     09:38:17  Mar 22, 2004 *
 *                                                                               *
 *   System Release SP6.1.0                Start time     09:39:03  Mar 22, 2004 *
 *                                                                               *
 *   Job name       PJG#FCAT               Stop  time     00:00:00  Mar 22, 2004 *
 *                                                                               *
 *   Account        PJG$GG                 Elapsed time  920:48:49.90            *
 *                                                                               *
 *   User Name      Module: FILECAT        CPU time       00:00:05.22            *
 *                                                                               *
 *   Job class      E                      SRB Time       00:00:00.07            *
 *                                                                               *
 *********************************************************************************
 IEF375I  JOB/PJG#FCAT/START 2004082.0939
 IEF376I  JOB/PJG#FCAT/STOP  2004082.0939 CPU    0MIN 05.22SEC SRB    0MIN 00.07SEC
1Data set successfully converted from EDIT to FB format
1Assembler Done FILECAT No Statements Flagged
1         High Level Assembler Option Summary                   (PTF UQ57391)                                               Page    1
-                                                                                            HLASM R4.0  2004/03/22 09.39
0  No Overriding ASMAOPT Parameters
   Overriding Parameters-  SYSPARM(FILECAT),TERM,LANG(EN),OBJ,LC(32500),XREF(SHORT),NODECK,NORLD,NODX,NOUS
   No Process Statements


   Options for this Assembly
0  NOADATA
     ALIGN
   NOASA
     BATCH
     CODEPAGE(047C)
   NOCOMPAT
   NODBCS
 3 NODECK
 3 NODXREF
     ESD
   NOEXIT
     FLAG(0,ALIGN,CONT,NOIMPLEN,NOPAGE0,PUSH,RECORD,NOSUBSTR,USING0)
   NOFOLD
   NOGOFF
   NOINFO
 3   LANGUAGE(EN)
   NOLIBMAC
 3   LINECOUNT(32500)
     LIST(121)
     MXREF(SOURCE)
 3   OBJECT
     OPTABLE(UNI,NOLIST)
   NOPCONTROL
   NOPESTOP
   NOPROFILE
   NORA2
   NORENT
 3 NORLD
     RXREF
     SIZE(MAX)
 3   SYSPARM(FILECAT)
 3   TERM(WIDE)
   NOTEST
     THREAD
   NOTRANSLATE
 3 NOUSING
 3   XREF(SHORT)

   No Overriding DD Names

1FILECAT  External Symbol Dictionary                                                                                        Page    2
-Symbol   Type   Id     Address  Length     LD ID  Flags Alias-of                            HLASM R4.0  2004/03/22 09.39
0FILECAT   SD 00000001 00000000 00003048             06
 FILECA    LD          00000000           00000001
 FCATNPRM  LD          00000022           00000001
 FCATOPRM  LD          0000042A           00000001
 GRGET     ER 00000002
 VCATENT   ER 00000003
 GRREL     ER 00000004
 FMIXRADD  ER 00000005
 FCATNIXR  LD          00000650           00000001
 FCATNIXE  LD          00000AE0           00000001
 FBITGCON  ER 00000006
 FMHYINIT  ER 00000007
 FBITEXTN  ER 00000008
 FCATGSPA  LD          00000F98           00000001
 FCATPSPA  LD          000010EE           00000001
 FCATUSPA  LD          00001224           00000001
 FCATMSPA  LD          00001324           00000001
 FCATFLIS  LD          00001424           00000001
 FCATALIS  LD          000015F2           00000001
 FCATS111  LD          00001754           00000001
 FCATAADD  LD          00001888           00000001
 FCATADEL  LD          000019AA           00000001
 FCATRNAM  LD          00001A8E           00000001
 FCATDLET  LD          00001BA6           00000001
 FCATUINF  LD          00001CA2           00000001
 FCATFINF  LD          00001F14           00000001
 FCATAINF  LD          00002042           00000001
 FCATGPRM  LD          0000213E           00000001
 FCATEPUB  LD          00002342           00000001
 FCATXTND  LD          00002448           00000001
 FCATASAC  LD          000026C6           00000001
 LOCMEME9  LD          000029B8           00000001
 LOCPERM9  LD          00002A3A           00000001
 FCATINIT  LD          00002AE4           00000001
 SETREAD1  LD          00002EFC           00000001
 SETWRIT1  LD          00002F54           00000001
 VMGET     ER 00000009
 GRCRE     ER 0000000A
 FDOIODO   ER 0000000B

1FILECAT  ORVYL'S File Catalog Manager                                                                                      Page    3
0Loc    Object Code    Addr1 Addr2  Stmt Lv Lineno    Source Statement                    (Asmedit 3.3)  HLASM R4.0  2004/03/22 09.39
+___    ______ ____    _____ _____  ____ __ ______    ______ _________
0                                      2       2.              COPY  HEADER
                                       3             =*********************************************************************
                                       4             =*                                                                   *
                                       5             =*                                                                   *
                                       6             =*                          M P - O R V Y L                          *
                                       7             =*                                                                   *
                                       8             =*       ORVYL - Release 5.0 - Class I - Stanford Proprietary        *
                                       9             =*                                                                   *
                                      10             =*                                                                   *
                                      11             =*********************************************************************
-
-                                     13             =         SPLEVEL SET=2
                                      16             =         HIBAL ASSOC=YES
-
                                     998             =*
                                     999             =* REGISTER CONVENTIONS (USE ONLY THE SYMBOLS)
                                    1000             =*
                                    1001             =*                     CLASS  USAGE
                                    1002             =*                     -----  -----------------------------
                                    1003             =RVR      REG   0        1    RETURN VALUE REGISTER
                                    1015             =RS       REG   1        *    SCRATCH
                                    1027             =RA       REG   2        *    SCRATCH
                                    1039             =RB       REG   3        *    SCRATCH
                                    1051             =RJ       REG   4        *    SCRATCH
                                    1063             =RK       REG   5        *    SCRATCH
                                    1075             =RX       REG   6        *    SCRATCH
                                    1087             =RY       REG   7        *    SCRATCH
                                    1099             =RM       REG   8        *    SCRATCH
                                    1111             =RN       REG   9        *    SCRATCH (In Guest)
                                    1123             =RTCBR    REG   9        -    POINTER TO THE RTCB (In Host)
                                    1135             =BR       REG   10       -    FIRST BASE REGISTER
                                    1147             =BRR      REG   11       -    SECOND BASE REGISTER
                                    1159             =WAR      REG   12       -    WORK AREA POINTER
                                    1171             =SPR      REG   13       -    STACK TOP POINTER
                                    1183             =RAR      REG   14       1    RETURN ADDRESS REGISTER
                                    1195             =EPAR     REG   15       1    ENTRY POINT ADDRESS
                                    1207             =*
                                    1208             =*      CLASS   MEANING
                                    1209             =*      -----   --------------------------------------------------
                                    1210             =*        *     Register may be freely used for scratch
                                    1211             =*        -     Register may not be used
                                    1212             =*        1     Available but may change on subroutine calls
                                    1213             =*
1FILECAT  ORVYL'S File Catalog Manager                                                                                      Page    4
0D-Loc  Object Code    Addr1 Addr2  Stmt Lv Lineno    Source Statement           (Hibal 5, Asmedit 3.3)  HLASM R4.0  2004/03/22 09.39
+_____  ______ ____    _____ _____  ____ __ ______    ______ _________
0000000                00000 03048  1215       3.     FILECAT  MODULE TRCNUM=9,ID=CA
                                    1225             +*
                                    1226    02-IDENT +         ENTRY FILECA
                                    1227             +
 000000 14C6C9D3C5C3C16B            1228    02-IDENT +FILECA   DC    AL1(20),C'FILECA,22MAR04,09:39'
                                    1229             +*
1FILECAT  (FILECA) (09:39) (22MAR04) ORVYL'S File Catalog Manager                                                           Page    5
0Loc    Object Code    Addr1 Addr2  Stmt Lv Lineno    Source Statement           (Hibal 5, Asmedit 3.3)  HLASM R4.0  2004/03/22 09.39
+___    ______ ____    _____ _____  ____ __ ______    ______ _________
0                                   1232       5.              COPY  PZERO
 000000                00000 00280  1233             =PZERO    RECORD BEGIN
                                    1241  1          =*
                                    1242  1          =* Real Page 0.  Each CPU has its own copy of this area.
                                    1243  1          =*
-                                   1245  1          =****************************************************************
                                    1246  1          =*               Fields Fixed by the Architecture               *
                                    1247  1          =*               ********************************               *
                                    1248  1          =*                                                              *
 000000                             1249  1          =PZRSNPSW   DS    D             Restart new PSW                 *
 000008                             1250  1          =PZRSOPSW   DS    D             Restart old PSW                 *
 000010                             1251  1          =           DS    D                                             *
 000018                             1252  1          =PZEXOPSW   DS    D             External old PSW                *
 000020                             1253  1          =PZSVOPSW   DS    D             Supervisor old PSW              *
 000028                             1254  1          =PZPIOPSW   DS    D             Program old PSW                 *
 000030                             1255  1          =PZMCOPSW   DS    D             Machine check old PSW           *
 000038                             1256  1          =PZIOOPSW   DS    D             I/O old PSW                     *
 000040                             1257  1          =           DS    3D                                            *
 000058                             1258  1          =PZEXNPSW   DS    D             External new PSW                *
 000060                             1259  1          =PZSVNPSW   DS    D             Supervisor new PSW              *
 000068                             1260  1          =PZPINPSW   DS    D             Program new PSW                 *
 000070                             1261  1          =PZMCNPSW   DS    D             Machine check new PSW           *
 000078                             1262  1          =PZIONPSW   DS    D             I/O new PSW                     *
 000080                             1263  1          =           DS    F                                             *
 000084                             1264  1          =PZEXCPU    DS    H             CPU address for EXT int         *
 000086                             1265  1          =PZEXIC     DS    H             External interrupt code         *
 000088                             1266  1          =PZSVILC    DS    H             Supervisor call ILC             *
 00008A                             1267  1          =PZSVIC     DS    H             Supervisor interrupt code       *
 00008C                             1268  1          =PZPIILC    DS    H             Program ILC                     *
 00008E                             1269  1          =PZPIIC     DS    H             Program interrupt code          *
 000090                             1270  1          =PZTREXA    DS    A             Translation exception address   *
 000094                             1271  1          =PZMONCL    DS    H             Monitor Class number            *
 000096                             1272  1          =PZPERCD    DS    H             PER code                        *
 000098                             1273  1          =PZPERA     DS    A             PER Address                     *
 00009C                             1274  1          =PZMONCD    DS    A             Monitor Code                    *
 0000A0                             1275  1          =           DS    3D                                            *
 0000B8                             1276  1          =PZIOSID    DS    A             I/O subsystem ID word           *
 0000BC                             1277  1          =PZIOPRM    DS    A             I/O Parameter                   *
 0000C0                             1278  1          =PZIOSCS    DS    A             I/O subchannel ending status    *
 0000C4                             1279  1          =           DS    A                                             *
 0000C8                             1280  1          =           DS    39D                                           *
                                    1281  1          =*                                                              *
                                    1282  1          =*            ***************************************           *
                                    1283  1          =*            End of Fields fixed by the architecture           *
                                    1284  1          =****************************************************************
1FILECAT  (FILECA) (09:39) (22MAR04) ORVYL'S File Catalog Manager                                                           Page    6
0D-Loc  Object Code    Addr1 Addr2  Stmt Lv Lineno    Source Statement           (Hibal 5, Asmedit 3.3)  HLASM R4.0  2004/03/22 09.39
+_____  ______ ____    _____ _____  ____ __ ______    ______ _________
0                                   1286  1          =*
                                    1287  1          =* Fields of general interest
                                    1288  1          =*
 000200                             1289  1          =PZMATP     DS    A             Address of the MAT
 000204                             1290  1          =           DS    A             ** Reserved **
 000208                             1291  1          =PZCURPID   DS    0D            Unique ID of the current process
 000208                             1292  1          =PZCURASB   DS    A             Addr of ASB for current Address space
 00020C                             1293  1          =PZCURTSK   DS    A             ID of current task in the Address space
 000210                             1294  1          =PZLCPUA    DS    A             Logical CPU address
 000214                             1295  1          =PZCPUMSK   DS    A             CPU address mask bit
 000218                             1296  1          =PZPSWM     DS    X             PSW mask for disabling
 000219                             1297  1          =           DS    X             ** Reserved **
                                    1298  1          =*
                                    1299  1          =* Termination/Trace information
                                    1300  1          =*
 00021A 00                          1301  1          =PZTERMFL   FLAG  ,             Termination flags
 PZTERMFL.PZABORT  80 ONES          1305  1          =           FLAG  PZABORT         ABORT macro issued
 PZTERMFL.PZATERM  40 ONES          1310  1          =           FLAG  PZATERM         Start termination processing
 00021B                             1315  1          =PZABSM     DS    X             Save area for system mask in ABORT
 00021C                             1316  1          =PZABR15    DS    A             Save area for R15 in an ABORT
 000220                             1317  1          =PZTZOFF    DS    D             Time zone offset
 000228                             1318  1          =           DS    22A           ** Reserved **
                                    1319  1          =*         DS    24A           ** Reserved **
 000280                00280 00280  1320             =         END   ,
1FILECAT  (FILECA) (09:39) (22MAR04) ORVYL'S File Catalog Manager                                                           Page    7
0Loc    Object Code    Addr1 Addr2  Stmt Lv Lineno    Source Statement           (Hibal 5, Asmedit 3.3)  HLASM R4.0  2004/03/22 09.39
+___    ______ ____    _____ _____  ____ __ ______    ______ _________
0                                   1330       7.              COPY  MAT
                                    1331             =*****************************************************************
                                    1332             =*                                                               *
                                    1333             =*        *** M A S T E R   A D D R E S S   T A B L E ***        *
                                    1334             =*                                                               *
                                    1335             =*****************************************************************
-000000                00000 00100  1337             =MAT      RECORD BEGIN
                                    1345  1          =MATPTR     EQU   X'200',4,C'A' Address of the MAT in PZERO
 000000 D4C1E340                    1346  1          =           DC    CL4'MAT'      Control block ID
                                    1347  1          =*
                                    1348  1          =* Addresses of global control blocks
                                    1349  1          =*
 000004                             1350  1          =MATVMCB    DS    A             Virtual memory control block
 000008                             1351  1          =MATDCT     DS    A             Dispatcher control table
 00000C                             1352  1          =MATPAGCB   DS    A             Real memory control block
 000010                             1353  1          =MATM1CT    DS    A             CT for Mode 1 users
 000014                             1354  1          =MATLCT     DS    A             Lock manager control table
 000018                             1355  1          =MATQCT     DS    A             Queue manager control table
 00001C                             1356  1          =MATIOCB    DS    A             I/O Manager control block
 000020                             1357  1          =MATSBWB    DS    A             System buffer wait blocks
 000024                             1358  1          =MATGTCT    DS    A             Terminal global control table
 000028                             1359  1          =MATFILCB   DS    A             File master control table
 00002C                             1360  1          =MATJESCB   DS    A             JES master control table
 000030                             1361  1          =MATSYSCB   DS    A             System task control table
 000034                             1362  1          =MATACCT    DS    A             Accounting control table
 000038                             1363  1          =MATGRCT    DS    A             General Resource control table
 00003C                             1364  1          =MATGNCT    DS    A             Global Network Control table
 000040                             1365  1          =MATTECB    DS    D             Termination wait ECB
 000048                             1366  1          =           DS    25A           Reserved
                                    1367  1          =*
                                    1368  1          =* Control Block Chains
                                    1369  1          =*
 0000AC                             1370  1          =MATASBS    DS    A             Pointer to chain of ASBs
 0000B0                             1371  1          =MATASBL    DS    A             Id of suspend lock for ASB chain
 0000B4                             1372  1          =           DS    8A            **  RESERVED
                                    1373  1          =*
                                    1374  1          =* Control information
                                    1375  1          =*
 0000D4                             1376  1          =MATSNAME   DS    CL8           System Name
 0000DC                             1377  1          =MATPAGFN   DS    A             Current value of the Paging function
 0000E0                             1378  1          =MATSKEY    DS    X             SYSTEM storage key (in high 4 bits)
 0000E1                             1379  1          =MATUKEY    DS    X             USER storage key
                                    1380= 1          =           ¿þþþþþþþþþþþþþþþþþþþþþþþþþþþþþþþþÜ
                                    1381= 1          =           Ÿ  Information about the Kernel  Ÿ
                                    1382= 1          =           ¾þþþþþþþþþþþþþþþþþþþþþþþþþþþþþþþþ»
 0000E4                             1383  1          =MATKSTRT   DS    A             Starting address of the Kernel
 0000E8                             1384  1          =MATKMAP    DS    A             Address of the Kernel map
 0000EC                             1385  1          =MATKMAPL   DS    A             Length of the Kernel map
                                    1386= 1          =           ¿þþþþþþþþþþþþþþþþþþþþþþþþþÜ
                                    1387= 1          =           Ÿ  Failsoft information.  Ÿ
                                    1388= 1          =           ¾þþþþþþþþþþþþþþþþþþþþþþþþþ»
 0000F0                             1389  1          =MATNCLPE   DS    F             Number of CLP errors
 0000F4                             1390  1          =MATNFAIL   DS    F             Number of failsofts
 0000F8                             1391  1          =           DS    2A            Reserved
1FILECAT  (FILECA) (09:39) (22MAR04) ORVYL'S File Catalog Manager                                                           Page    8
0Loc    Object Code    Addr1 Addr2  Stmt Lv Lineno    Source Statement           (Hibal 5, Asmedit 3.3)  HLASM R4.0  2004/03/22 09.39
+___    ______ ____    _____ _____  ____ __ ______    ______ _________
0000100                00100 00100  1392             =         END
1FILECAT  (FILECA) (09:39) (22MAR04) ORVYL'S File Catalog Manager                                                           Page    9
0Loc    Object Code    Addr1 Addr2  Stmt Lv Lineno    Source Statement           (Hibal 5, Asmedit 3.3)  HLASM R4.0  2004/03/22 09.39
+___    ______ ____    _____ _____  ____ __ ______    ______ _________
0                                   1402       9.              COPY  FILEPARM
                                    1403             =*****************************************************************
                                    1404             =*                                                               *
                                    1405             =*  FILEPARM -- Parameters dealing with FILE SVC I/O.            *
                                    1406             =*                                                               *
                                    1407             =*****************************************************************
-                                   1409             =*
                                    1410             =*  M1FILE  --  Mode 1 file operation
                                    1411             =*
                                    1412             =*  RVR =  0 all ok
                                    1413             =*           wait user flags indicate which wait regs to set if any
                                    1414             =*  RVR <> 0 if   panic word <> 0, panic user
                                    1415             =*           else return registers
                                    1416             =*
0000000                00000 00029  1418             =@M1FILE  RECORD BEGIN
 000000                             1426  1          =@M1FR14    DS    A             Contents of R14 at SVC time
 000004                             1427  1          =@M1FR15    DS    A             Contents of R15 at SVC time
 000008                             1428  1          =@M1FR00    DS    A             Contents of R0  at SVC time
 00000C                             1429  1          =@M1FR01    DS    A             Contents of R1  at SVC time
                                    1430  1          =@M1FREG    EQU   @M1FR14,*-@M1FR14
0000010                             1432  1          =@M1FWR14   DS    A             Wait return registers
 000014                             1433  1          =@M1FWR15   DS    A             These are set at SVC time when
 000018                             1434  1          =@M1FWR01   DS    A             be used to set the return registers
000001C                             1436  1          =@M1FRQID   DS    A             Request ID (IDT)
 000020                             1437  1          =@M1FDVID   DS    A             Request block id (RQFB)
                                    1438  1          =
 000024                             1439  1          =@M1FILID   DS    X             File ID (IDT index)
                                    1440  1          =
 000025 00                          1441  1          =@M1FLAG    FLAG  ,
 @M1FLAG.@M1FCLP   80 ONES          1445  1          =           FLAG  @M1FCLP       CLP attach
 @M1FLAG.@M1FSPI   40 ONES          1450  1          =           FLAG  @M1FSPI       Spires attached
 @M1FLAG.@M1FM31   20 ONES          1455  1          =           FLAG  @M1FM31       User in 31 bit mode
0000026                             1461  1          =@M1FPKEY   DS    X             PSW key of requestor
0000027                             1463  1          =@M1FPRIV   DS    X             Signed on privileges
0000028 00                          1465  1          =@M1FTYPE   FLAG  ,             I/O type
 @M1FTYPE.@M1FATCH 04 EQ            1469  1          =           FLAG  (@M1FATCH,4,EQ)   Attach
 @M1FTYPE.@M1FREAD 08 EQ            1479  1          =           FLAG  (@M1FREAD,8,EQ)   Read
 @M1FTYPE.@M1FWRIT 0C EQ            1489  1          =           FLAG  (@M1FWRIT,12,EQ)  Write
 @M1FTYPE.@M1FCONT 10 EQ            1499  1          =           FLAG  (@M1FCONT,16,EQ)  Control
 @M1FTYPE.@M1FSTAT 14 EQ            1509  1          =           FLAG  (@M1FSTAT,20,EQ)  Status
 @M1FTYPE.@M1FDTCH 18 EQ            1519  1          =           FLAG  (@M1FDTCH,24,EQ)  Detach
 @M1FTYPE.@M1FRSRV 1C EQ            1529  1          =           FLAG  (@M1FRSRV,28,EQ)  Reserve
 @M1FTYPE.@M1FRLSE 20 EQ            1539  1          =           FLAG  (@M1FRLSE,32,EQ)  Release
 000029                00029 00029  1549             =         END   ,
-                                   1559             =*
                                    1560             =*   M1FPOST -- This area maps the parm area of the FILE
1FILECAT  (FILECA) (09:39) (22MAR04) ORVYL'S File Catalog Manager                                                           Page   10
0Loc    Object Code    Addr1 Addr2  Stmt Lv Lineno    Source Statement           (Hibal 5, Asmedit 3.3)  HLASM R4.0  2004/03/22 09.39
+___    ______ ____    _____ _____  ____ __ ______    ______ _________
0                                   1561             =*              I/O complete exit.
                                    1562             =*
-000000                00000 00010  1564             =@M1FPOST RECORD BEGIN
 000000                             1572  1          =@M1FPRQI   DS    A             Request id (IDT)
                                    1573  1          =@M1FREDV   EQU   X'80'         Free the device please
 000004                             1574  1          =@M1FPR14   DS    A             Value of R14 to be returned to user
 000008                             1575  1          =@M1FPR15   DS    A             Value of R15 to be returned to user
 00000C                             1576  1          =@M1FPR01   DS    A             Value of R1 to be returned to user
 000010                00010 00010  1577             =         END   ,
-                                   1587             =*
                                    1588             =*  @FILEBLKI -- This area maps the parm area of the FILE
                                    1589             =*               system info area
                                    1590             =*
-000000                00000 00025  1592             =@FILEBLKI RECORD BEGIN                 File system block information
 000000                             1600  1          =@FILFSID   DS    A                       File system ID
                                    1601  1          =* -- Return Parameters --
 000004                             1602  1          =@FILTBLK   DS    A                       Total blocks in file system
 000008                             1603  1          =@FILABLK   DS    A                       Available blocks in file sys
 00000C                             1604  1          =@FILUMAX   DS    A                       Maximum user block allocation
 000010                             1605  1          =@FILNAME   DS    CL8                     File system name
 000018                             1606  1          =@FILCACT   DS    D                   Number of cache reads
 000020                             1607  1          =@FILIOCT   DS    F                   Number of I/O's
 000024 00                          1608  1          =@FILFLAG   FLAG  ,
 @FILFLAG.@FILFNA  80 ONES          1612  1          =           FLAG  @FILFNA                 Not available
 @FILFLAG.@FILFRO  40 ONES          1617  1          =           FLAG  @FILFRO                 Read only
 @FILFLAG.@FILFCAC 20 ONES          1622  1          =           FLAG  @FILFCACHE              File caching is enabled
 @FILFLAG.@FILF4K  10 ONES          1627  1          =           FLAG  @FILF4K                 4K file system
 000025                00025 00025  1632             =         END   ,
-                                   1642             =*
                                    1643             =*  @FILINFO -- This area maps the parm area of the individual
                                    1644             =*              file information area.
                                    1645             =*
-000000                00000 00036  1647             =@FMFINFO RECORD BEGIN
 000000                             1655  1          =@FMFIDID   DS    A                       Address of this file's ID
                                    1656  1          =*  Returned parameters
 000004                             1657  1          =@FMFIBLK   DS    A                       Number of blocks in file
 000008                             1658  1          =@FMFIPRI   DS    X                       File privileges
 000009 00                          1659  1          =@FMFIFLG   FLAG  ,
 @FMFIFLG.@FMFISHR 80 ONES          1663  1          =           FLAG  @FMFISHR                Shared file
 @FMFIFLG.@FMFIRSV 40 ONES          1668  1          =           FLAG  @FMFIRSV                Reserved
 @FMFIFLG.@FMFITMP 20 ONES          1673  1          =           FLAG  @FMFITMP                Temporary
 @FMFIFLG.@FMFINIX 10 ONES          1678  1          =           FLAG  @FMFINIX                Non-IXRed
 @FMFIFLG.@FMFIATT 08 ONES          1683  1          =           FLAG  @FMFIATT                File being attached
 @FMFIFLG.@FMFIHYB 04 ONES          1688  1          =           FLAG  @FMFIHYB                Hybrid file
 00000A                             1693  1          =@FMFINAM   DS    CL44                    File name
 000036                00036 00036  1694             =         END   ,
1FILECAT  (FILECA) (09:39) (22MAR04) ORVYL'S File Catalog Manager                                                           Page   11
0Loc    Object Code    Addr1 Addr2  Stmt Lv Lineno    Source Statement           (Hibal 5, Asmedit 3.3)  HLASM R4.0  2004/03/22 09.39
+___    ______ ____    _____ _____  ____ __ ______    ______ _________
0                                   1704             =*
                                    1705             =*  @FILEHALT -- This maps the parm area of the file HALT service
                                    1706             =*
-000000                00000 00004  1708             =@FILEHALT RECORD BEGIN
 000000                             1716  1          =@FHRQID    DS    A                       Request ID to be halted (RQB)
 000004                00004 00004  1717             =         END   ,
0000000                00000 00004  1727             =@FMRQFB  RECORD BEGIN
 000000                             1735  1          =@FMRQFBP   DS    A
 000004                00004 00004  1736             =         END   ,
-000000                00000 00005  1747             =@FMFSB  RECORD BEGIN
 000000                             1755  1          =@FMFSBP    DS    A
 000004 00                          1756  1          =@FMFSBF    FLAG  ,
 @FMFSBF.@FMFSBO   80 ONES          1760  1          =           FLAG  @FMFSBO             Flag is on
 000005                00005 00005  1765             =         END   ,
0000000                00000 00010  1775             =@FDOIODO RECORD BEGIN              IO read/write routine
 000000                             1783  1          =@FDOFSB    DS    A                   FSB address
 000004                             1784  1          =@FDOBLK    DS    A                   Block number
 000008                             1785  1          =@FDODATA   DS    A                   Data address
 00000C                             1786  1          =@FDODATL   DS    H                   Data length
 00000E                             1787  1          =@FDOTYPE   DS    X                   Block type
 00000F 00                          1788  1          =@FDOFLAG   FLAG  ,
 @FDOFLAG.@FDOFR   80 ONES          1792  1          =           FLAG  @FDOFR              Read
 @FDOFLAG.@FDOFW   40 ONES          1797  1          =           FLAG  @FDOFW              Write
 @FDOFLAG.@FDOFUSE 20 ONES          1802  1          =           FLAG  @FDOFUSE            User record IO
 @FDOFLAG.@FDOS106 10 ONES          1807  1          =           FLAG  @FDOS106            Status 106, read real block
 @FDOFLAG.@FDOS115 08 ONES          1812  1          =           FLAG  @FDOS115            Status 115, read block header
 @FDOFLAG.@FDODISK 04 ONES          1817  1          =           FLAG  @FDODISK            Read from disk, not cache
 000010                00010 00010  1822             =         END   ,
0000000                00000 00008  1832             =@FSADDV RECORD BEGIN
 000000                             1840  1          =@FSADDVF   DS    A                   File system name pointer
 000004                             1841  1          =@FSADDVD   DS    A                   DSN name pointer
 000008                00008 00008  1842             =         END   ,
1FILECAT  (FILECA) (09:39) (22MAR04) ORVYL'S File Catalog Manager                                                           Page   12
0Loc    Object Code    Addr1 Addr2  Stmt Lv Lineno    Source Statement           (Hibal 5, Asmedit 3.3)  HLASM R4.0  2004/03/22 09.39
+___    ______ ____    _____ _____  ____ __ ______    ______ _________
0                                   1852      11.              COPY  FILCONST
                                    1853             =         PRINT OFF                     ERRCODE MACRO
0000016                             1870             =DIRCONST BEGIN ,                       VARIOUS AND SUNDRY CONSTANTS
                                    1875  1          =PGESZ      EQU   4096                    ORVYL PAGE SIZE
                                    1876  1          =M1AMSK     EQU   X'00FFFFFF'             Mode 1 address mask
                                    1877  1          =PGEMSK     EQU   M1AMSK-PGESZ+1          PAGE ALIGN MASK
0                                   1879  1          =GRSZ       EQU   6                       ACCOUNT LENGTH
                                    1880  1          =DIRNFER    ERRCODE FIRST=YES             CONDITION: LEAF NOT FOUND
                                    1883  1          =DIRDUPER   ERRCODE ,                     ERROR: CAN'T INS DUPLICATE LEAF
                                    1886  1          =DIRDELAC   ERRCODE ,                     ERROR: CAN'T DEL ACC W/ FILES
                                    1889  1          =DIRNTSZ    ERRCODE ,                     ERROR: INVALID ENTRY SIZE
                                    1892  1          =DIRMODLN   ERRCODE ,                     ERROR: CAN'T CH LEN W/OUT FLAG
                                    1895  1          =DIRRENAC   ERRCODE ,                     ERROR: CAN'T RENAME ACCOUNTS
                                    1898  1          =DIRNMR     ERRCODE ,                     ERROR: NO MORE ROOM IN DIR
                                    1901  1          =DIRSTOV    ERRCODE ,                     ERROR: LIST_STACK OVERFLOW
                                    1904  1          =DIRSTUF    ERRCODE ,                     ERROR: LIST_STACK UNDERFLOW
                                    1907  1          =DIRTAGER   ERRCODE ,                     ERROR: BLOCK TAG MISMATCH
                                    1910  1          =DIRBLKER   ERRCODE ,                     ERROR: BLOCK NUMBER MISMATCH
                                    1913  1          =DIRIOS     ERRCODE ,                     ERROR: NO MORE I/O SPACE
                                    1916  1          =DIRIONF    ERRCODE ,                     ERROR: I/O BUFFER NOT FOUND
                                    1919  1          =DIRNIMP    ERRCODE ,                     CONDITION: NOT IMPLEMENTED
                                    1922  1          =ACCMODE    EQU   0                       INDICATE ACCOUNT MODE
                                    1923  1          =FILEMODE   EQU   4                       INDICATE FILE MODE
                                    1924  1          =CSEQNONT   EQU   16                      SEQ ACC: NO ENTRYS IN THIS TREE
                                    1925  1          =CSEQEND    EQU   8                       SEQ ACC: NO MORE ENTRYS IN TREE
                                    1926  1          =FALLBT     EQU   X'FF'                   A BYTE OF ONES
                                    1927  1          =NIL        EQU   X'FF'                   END OF LIST INDICATOR
                                    1928  1          =CDIRIOM    EQU   X'0100'                 I/O ROUTINES ARE MODULE #1
                                    1929  1          =CDIRDGM    EQU   X'0200'                 DSKGET ROUTINE IS MODULE #2
                                    1930  1          =CDIRDFM    EQU   X'0300'                 DSKFREE ROUTINE IS MODULE #3
                                    1931  1          =CDIRBUG    EQU   X'0400'                 DIRBUG ROUTINES ARE MODULE #4
                                    1932  1          =VIOFREE    EQU   X'7FFFFF00'             CONSTANT TO FREE A BUFFER (AND)
                                    1933  1          =VIOLOCK    EQU   X'000000FF'             CONSTANT TO LOCK A BUFFER (OR)
                                    1934  1          =BITAVAIL   EQU   X'7FFFFF00'             CONSTANT TO FREE A BUFFER (AND)
                                    1935  1          =BITMOD     EQU   X'000000FF'             CONSTANT TO SET BUFFER MOD (OR)
 000016                             1936             =         END   ,                       OF VARIOUS AND SUNDRY CONSTANTS
1FILECAT  (FILECA) (09:39) (22MAR04) ORVYL'S File Catalog Manager                                                           Page   13
0Loc    Object Code    Addr1 Addr2  Stmt Lv Lineno    Source Statement           (Hibal 5, Asmedit 3.3)  HLASM R4.0  2004/03/22 09.39
+___    ______ ____    _____ _____  ____ __ ______    ______ _________
0                                   1941      13.              COPY  SLISTMAC
                                    1942             =*******************************************************************
                                    1943             =*                                                                 *
                                    1944             =* Macros for the serialized manipulation of single linked lists   *
                                    1945             =* in memory.  These lists are of the PUSH/POP (LIFO) variety.     *
                                    1946             =* Serialization is achieved using the CDS and CS instructions.    *
                                    1947             =*                                                                 *
                                    1948             =*******************************************************************
0                                   1950             =*******************************************************************
                                    1951             =*                                                                 *
                                    1952             =* Single linked list head fields                                  *
                                    1953             =*                                                                 *
                                    1954             =*******************************************************************
                                    1955             =         MACRO
                                    1956             =&LAB     SHEAD
                                    1957             =         AIF   ('&LAB' EQ '').ERR
                                    1958             =&LAB     DS   0D                   Single linked CDS list
                                    1959             =&LAB.FP  DS    A                   Forward pointer
                                    1960             =&LAB.SEQ DS    A                   CDS sequence number
                                    1961             =         MEXIT
                                    1962             =.ERR     MNOTE 8,'Label (list name) required'
                                    1963             =         MEND
0                                   1965             =*******************************************************************
                                    1966             =*                                                                 *
                                    1967             =* Push an item onto a single linked list                          *
                                    1968             =*                                                                 *
                                    1969             =*******************************************************************
                                    1970             =         MACRO
                                    1971             =&LABEL   SPUSH &HEAD=,&ITEM=
                                    1972             =         LCLC  &X
                                    1973             =         AIF   ('&LABEL' EQ '').NOLAB
                                    1974             =&LABEL   LABEL ,
                                    1975             =.NOLAB   ANOP  ,
                                    1976             =         AIF   ('&HEAD' EQ '').ERR1
                                    1977             =         AIF   ('&ITEM' EQ '').ERR2
                                    1979             =         LM    R14,R15,&HEAD       Get fwd ptr and sequence number
                                    1980             =         LA    RVR,&ITEM           Point to new item
                                    1981             =         LOOP  BEGIN
                                    1982             =         LA    RS,1(R15)           Increment sequence
                                    1983             =         MVC   &ITEM.(L'&HEAD.FP),&HEAD.FP Set item fwd ptr
                                    1984             =         CDS   R14,RVR,&HEAD       Add item to list
                                    1985             =         UNTIL (Z),END
                                    1987             =         AGO   .EXIT
                                    1988             =.ERR1    MNOTE 8,'Head is a required parameter'
                                    1989             =         AGO   .EXIT
                                    1990             =.ERR2    MNOTE 8,'Item is a required parameter'
                                    1991             =.EXIT    ANOP  ,
                                    1992             =         MEND  ,
0                                   1994             =*******************************************************************
                                    1995             =*                                                                 *
                                    1996             =* Pop an item from a single linked list. Addr returned in RVR     *
                                    1997             =* (zero if the list was empty).                                   *
                                    1998             =*                                                                 *
1FILECAT  (FILECA) (09:39) (22MAR04) ORVYL'S File Catalog Manager                                                           Page   14
0Loc    Object Code    Addr1 Addr2  Stmt Lv Lineno    Source Statement           (Hibal 5, Asmedit 3.3)  HLASM R4.0  2004/03/22 09.39
+___    ______ ____    _____ _____  ____ __ ______    ______ _________
0                                   1999             =*******************************************************************
                                    2000             =         MACRO
                                    2001             =&LABEL   SPOP  &HEAD=
                                    2002             =         AIF   ('&LABEL' EQ '').NOLAB
                                    2003             =&LABEL   LABEL ,
                                    2004             =.NOLAB   ANOP  ,
                                    2005             =         AIF   ('&HEAD' EQ '').ERR1
                                    2007             =         LM    RVR,RS,&HEAD        Get fwd and sequence number
                                    2008             =         LOOP  BEGIN
                                    2009             =         IF    (RVR,Z),EXIT        None to get
                                    2010             =         LR    R14,RVR             Point to first item
                                    2011             =         L     R14,0(R14)          Get fwd pointer
                                    2012             =         LA    R15,1(RS)           Increment sequence
                                    2013             =         CDS   RVR,R14,&HEAD       Remove item from list
                                    2014             =         UNTIL (Z),END
                                    2016             =         AGO   .EXIT
                                    2017             =.ERR1    MNOTE 8,'Head is a required parameter'
                                    2018             =.EXIT    ANOP  ,
                                    2019             =         MEND  ,
0                                   2021             =*******************************************************************
                                    2022             =*                                                                 *
                                    2023             =* Get an available item from list (ptr returned in RVR). Memory   *
                                    2024             =* will be obtained if the list is empty.                          *
                                    2025             =*                                                                 *
                                    2026             =*******************************************************************
                                    2027             =         MACRO
                                    2028             =&LABEL   SAVAIL &HEAD=,&LEN=,&LOC=GLOBHI,&FIX=,&PAGE=
                                    2029             =         AIF   ('&LABEL' EQ '').NOLAB
                                    2030             =&LABEL   LABEL ,
                                    2031             =.NOLAB   ANOP  ,
                                    2032             =         AIF   ('&HEAD' EQ '').ERR1
                                    2033             =         AIF   ('&LEN' EQ '').ERR2
                                    2034             =         SPOP  HEAD=&HEAD          pop a free item
                                    2035             =         IF    (RVR,Z),BEGIN       empty list
                                    2036             =         VMGET &LEN,LOC=&LOC,FIX=&FIX,PAGE=&PAGE
                                    2037             =         IF    ('LTR RVR,RVR',ZERO),'ABORT NO_MEM_&HEAD'
                                    2038             =         END   ,
                                    2039             =         AGO   .EXIT
                                    2040             =.ERR1    MNOTE 8,'Head is a required parameter'
                                    2041             =         AGO   .EXIT
                                    2042             =.ERR2    MNOTE 8,'Len is a required parameter'
                                    2043             =.EXIT    ANOP  ,
                                    2044             =         MEND  ,
0000000                00000 00008  2046             =SLDUMMY  RECORD BEGIN
                                    2054  1          =SLDUM      SHEAD ,
 000000                             2055  1 01-01958 +SLDUM      DS   0D                   Single linked CDS list
 000000                             2056  1 01-01959 +SLDUMFP    DS    A                   Forward pointer
 000004                             2057  1 01-01960 +SLDUMSEQ   DS    A                   CDS sequence number
 000008                00008 00008  2058             =         END
1FILECAT  (FILECA) (09:39) (22MAR04) ORVYL'S File Catalog Manager                                                           Page   15
0Loc    Object Code    Addr1 Addr2  Stmt Lv Lineno    Source Statement           (Hibal 5, Asmedit 3.3)  HLASM R4.0  2004/03/22 09.39
+___    ______ ____    _____ _____  ____ __ ______    ______ _________
0                                   2068      15.              COPY  VMPARM
                                    2069             =*******************************************************************
                                    2070             =*                                                                 *
                                    2071             =*    Memory parms for inside the virtual machine.                 *
                                    2072             =*                                                                 *
                                    2073             =*******************************************************************
-000000                00000 0000B  2075             =@VMGET   RECORD BEGIN        Parm area for getting virtual memory
 000000                             2083  1          =@VMGLEN    DS    A             Amount of memory needed
 000004                             2084  1          =@VMGDAT    DS    A             More data. Address or maxlen.
 000008                             2085  1          =@VMGPOOL   DS    H             Pool/Subpool to get the memory from
 00000A 00                          2086  1          =@VMGFLG    FLAG  ,
 @VMGFLG.@VMGPAGE  80 ONES          2090  1          =           FLAG  @VMGPAGE      Page Aligned
 @VMGFLG.@VMGONEP  40 ONES          2095  1          =           FLAG  @VMGONEP      Don't cross page boundary
 00000B                0000B 0000B  2100             =         END   ,
-000000                00000 0000A  2110             =@VMFREE  RECORD BEGIN        Used for VMFREE and VMCHECK
 000000                             2118  1          =@VMFLOC    DS    A             Location of the storage to free
 000004                             2119  1          =@VMFLEN    DS    A             Amount to free
 000008                             2120  1          =@VMFPOOL   DS    H             Pool/Subpool where the storage lives
 00000A                0000A 0000A  2121             =         END   ,
-000000                00000 00009  2131             =@VMINFO  RECORD BEGIN        Returns User address limits/hash val
 000000                             2139  1          =@VMIUST    DS    A             Start of the user address space
 000004                             2140  1          =@VMIULEN   DS    A             Length of the user address space
 000008                             2141  1          =@VMITRSH   DS    X             Trash value
 000009                00009 00009  2142             =         END   ,
1FILECAT  (FILECA) (09:39) (22MAR04) ORVYL'S File Catalog Manager                                                           Page   16
0Loc    Object Code    Addr1 Addr2  Stmt Lv Lineno    Source Statement           (Hibal 5, Asmedit 3.3)  HLASM R4.0  2004/03/22 09.39
+___    ______ ____    _____ _____  ____ __ ______    ______ _________
0                                   2152      17.              COPY  FBHDR
 000000                00000 00014  2153             =FBHDR    RECORD BEGIN
                                    2161  1          =*
                                    2162  1          =*  ORVYL File Block Header Field
                                    2163  1          =*
 000000                             2164  1          =FBHBLOCK   DS    AL3                     Block number in file system
 000003                             2165  1          =FBHTYPE    DS    AL1                     Block type
                                    2166  1          =
                                    2167  1          =FBHTFSMB   EQU   X'FF'                   File System Master Block
                                    2168  1          =FBHTCAT    EQU   X'80'                   Catalog
                                    2169  1          =FBHTBIT    EQU   X'40'                   Bit Map
                                    2170  1          =FBHTZIXR   EQU   X'10'                   ZIXR
                                    2171  1          =FBHTIXR    EQU   X'08'                   IXR
                                    2172  1          =FBHTSIXR   EQU   X'04'                   SIXR
                                    2173  1          =FBHTMIXR   EQU   X'02'                   MIXR
                                    2174  1          =FBHTUSER   EQU   X'01'                   User data block
                                    2175  1          =FBHTIXRT   EQU   FBHTIXR+FBHTSIXR+FBHTMIXR+FBHTZIXR
                                    2176  1          =FBHTBICA   EQU   FBHTCAT+FBHTBIT
                                    2177  1          =FBHTSYSR   EQU   FBHTIXRT+FBHTBICA
                                    2178  1          =
 000004                             2179  1          =           DS    AL2                     Reserved
 000006                             2180  1          =FBHLEN     DS    AL2                     User data length in block
 000008                             2181  1          =FBHTIME    DS    AL4                     Time (STCK) block written
                                    2182  1          =
                                    2183  1          =FBHDTLEN   EQU   *-FBHDR                 Saved header length (VDMP)
 00000C                             2184  1          =FBHAVAIL   DS    2AL4                    Available
 000014                00014 00014  2185             =         END   ,
1FILECAT  (FILECA) (09:39) (22MAR04) ORVYL'S File Catalog Manager                                                           Page   17
0Loc    Object Code    Addr1 Addr2  Stmt Lv Lineno    Source Statement           (Hibal 5, Asmedit 3.3)  HLASM R4.0  2004/03/22 09.39
+___    ______ ____    _____ _____  ____ __ ______    ______ _________
0                                   2195      19.              COPY  FSMB
 000000                00000 00800  2196             =FSMB     RECORD BEGIN
                                    2204  1          =*
                                    2205  1          =*  FILE SYSTEM MASTER BLOCK  (DISK RESIDENT)
                                    2206  1          =*
 000000                             2207  1          =FSMSTART   DC    0D'0'                   FILE SYSTEM BLOCK START
 000000 C7C74BE4E4E4                2208  1          =FSMOWNER   DC    CL6'GG.UUU' NOT USED ** FILE-SYSTEM MASTER ACCOUNT
0000006 00                          2210  1          =FSMOFLGS   FLAG  ,                       FILE-SYSTEM OPTIONS
 FSMOFLGS.FSMOSE   80 ONES          2214  1          =           FLAG  FSMOSE   ** NOT USED **      SECURITY ERASE
0                                   2220  1          =*
                                    2221  1          =*  FILE-SYSTEM BLOCK LIMITS
                                    2222  1          =*                AND AVAILABLE BLOCKS
                                    2223  1          =*
 000008                             2224  1          =FSMMBLK    DS    A        ** NOT USED ** MAXIMUM BLOCK ALLOCATION
 00000C                             2225  1          =FSMTBLK    DS    A        ** NOT USED ** TOTAL NUMBER OF BLOCKS
 000010                             2226  1          =FSMDBLK    DS    A        ** NOT USED ** DEFAULT BLOCK ALLOCATION
 000014                             2227  1          =FSMNAME    DS    CL8      ** NOT USED ** FILE-SYSTEM NAME
 00001C                             2228  1          =FSMSYMB    DS    CL8      ** NOT USED ** FILE-SYSTEM DATA SET NAME
 000024                             2229  1          =FSMCATSB   DS    A                       CATALOGUE STARTING BLOCK
 000028                             2230  1          =FSMCATBC   DS    A                       CATALOGUE BLOCK COUNT
 00002C                             2231  1          =FSMBITSB   DS    A                       BIT-MAP STARTING BLOCK
 000030                             2232  1          =FSMBITBC   DS    A                       BIT-MAP BLOCK COUNT
                                    2233  1          =FSML1      EQU   FSMMBLK,*-FSMMBLK,C'X'
 000034                             2234  1          =FSMDSCNT   DS    H        ** NOT USED ** DATA SETS COMPRISING SYSTEM
                                    2235  1          =*
                                    2236  1          =*
 000036                             2237  1          =FSMAUCNT   DS    X        ** NOT USED ** ALLOWED-USER ACTIVE COUNT
 000037 00                                1
 000038                             2238  1          =           CNOP   0,4
 000038                             2239  1          =FSMBALST   DS     0X
 000038                             2240  1          =FSMDSZ     DS     Y                 Size of disk block
 00003A                             2241  1          =FSMDAVA    DS     Y                 Available space per block
 00003C                             2242  1          =FSMDTAGX   DS     Y                 Offset of end tag in block
 00003E                             2243  1          =FSMNALEN   DS     Y                 Account: Length of node
 000040                             2244  1          =FSMNASPA   DS     Y                 Î Free space in node
 000042                             2245  1          =FSMTAXLN   DS     Y                 Î Maximum length of entry
 000044                             2246  1          =FSMNAMXL   DS     Y                 Î Max len of entry in node
 000046                             2247  1          =FSMNAXSP   DS     Y                 Î Max free space per node
 000048                             2248  1          =FSMNANSP   DS     Y                 Î Min free space per node
 00004A                             2249  1          =FSMNFLEN   DS     Y                 File: Length of node
 00004C                             2250  1          =FSMNFSPA   DS     Y                 Î Free space in node
 00004E                             2251  1          =FSMTFXLN   DS     Y                 Î Maximum length of entry
 000050                             2252  1          =FSMNFMXL   DS     Y                 Î Max len of entry in node
 000052                             2253  1          =FSMNFXSP   DS     Y                 Î Max free space per node
 000054                             2254  1          =FSMNFNSP   DS     Y                 Î Min free space per node
 000056                             2255  1          =FSMTXXLN   DS     Y                 Max len of extended data entry
 000058                             2256  1          =FSMLOGFR   DS     Y                 Minimum logical block count
 00005A                             2257  1          =FSMMNFRE   DS     Y                 Minimum number of free blks in Cat
                                    2258  1          =FSMBALLN   EQU    *-FSMBALST
                                    2259  1          =FSMBALX    EQU    *                 End of balance parms
 00005C 07000700                    2260  1          =           CNOP   0,8                    FORCE ALIGNMENT
0                                   2262  1          =*
                                    2263  1          =*  FILE-SYSTEM VOLUME TABLE, MAXIMUM OF 128 VOLUMES
1FILECAT  (FILECA) (09:39) (22MAR04) ORVYL'S File Catalog Manager                                                           Page   18
0Loc    Object Code    Addr1 Addr2  Stmt Lv Lineno    Source Statement           (Hibal 5, Asmedit 3.3)  HLASM R4.0  2004/03/22 09.39
+___    ______ ____    _____ _____  ____ __ ______    ______ _________
0                                   2264  1          =*  IN FILE-SYSTEM
                                    2265  1          =*
 000060                00060 00500  2266  1          =           ORG   FSMSTART+1280           ORIGIN OUT
 000500                             2267  1          =FSMVOLS    DS    128CL6   ** NOT USED ** ROOM FOR 128 VOLUME SERIALS
 000800                00800 00800  2268             =         END   ,
1FILECAT  (FILECA) (09:39) (22MAR04) ORVYL'S File Catalog Manager                                                           Page   19
0Loc    Object Code    Addr1 Addr2  Stmt Lv Lineno    Source Statement           (Hibal 5, Asmedit 3.3)  HLASM R4.0  2004/03/22 09.39
+___    ______ ____    _____ _____  ____ __ ______    ______ _________
0                                   2278      21.              COPY  GRPARM
                                    2279             =*****************************************************************
                                    2280             =*
                                    2281             =* General Resource API
                                    2282             =*
                                    2283             =*****************************************************************
 000000                00000 00009  2284             =@GRES   RECORD BEGIN               General Resource Routine api
0000000                             2293  1          =@GRCID     DS    A                   Caller id
 000004                             2294  1          =@GRID      DS    A                   Resource id
0000008 00                          2296  1          =@GRFLAG    FLAG  ,
 @GRFLAG.@GRWAIT   80 ONES          2300  1          =           FLAG  @GRWAIT             Wait for resource to come free
 @GRFLAG.@GREXCL   40 ONES          2305  1          =           FLAG  @GREXCL             Get hold exclusively
 @GRFLAG.@GRCANAS  20 ONES          2310  1          =           FLAG  @GRCANAS            Cancel only this address space
0000009                00009 00009  2316             =         END   ,
0                                   2326             =*****************************************************************
                                    2327             =*
                                    2328             =* Create a general resource item
                                    2329             =*
                                    2330             =*   CALLID is a four byte caller identifier
                                    2331             =*
                                    2332             =*   The resource id is returned in RVR
                                    2333             =*
                                    2334             =*****************************************************************
                                    2335             =         MACRO ,
                                    2336             =&LABEL   GRCRE &CID=
                                    2337             =         AIF   ('&LABEL' EQ '').NOLAB
                                    2338             =&LABEL   LABEL ,
                                    2339             =.NOLAB   ANOP  ,
                                    2340             =         AIF   ('&CID' EQ '').ERR
                                    2341             =         PSET  @GRES
                                    2342             =         PMOV  @GRCID,&CID         Set caller id
                                    2343             =         VCALL GRCRE               Create a general resource item
                                    2344             =         AGO   .EXIT
                                    2345             =.ERR     MNOTE 8,'CID is a required parameter'
                                    2346             =.EXIT    ANOP  ,
                                    2347             =         MEND  ,
0                                   2349             =*****************************************************************
                                    2350             =*
                                    2351             =* Delete a general resource item
                                    2352             =*
                                    2353             =*   RID is a four byte resource id returned from GRCRE
                                    2354             =*
                                    2355             =*****************************************************************
                                    2356             =         MACRO ,
                                    2357             =&LABEL   GRDEL &RID=
                                    2358             =         AIF   ('&LABEL' EQ '').NOLAB
                                    2359             =&LABEL   LABEL ,
                                    2360             =.NOLAB   ANOP  ,
                                    2361             =         AIF   ('&RID' EQ '').ERR
                                    2362             =         PSET  @GRES
                                    2363             =         PMOV  @GRID,&RID          Set resource id
1FILECAT  (FILECA) (09:39) (22MAR04) ORVYL'S File Catalog Manager                                                           Page   20
0Loc    Object Code    Addr1 Addr2  Stmt Lv Lineno    Source Statement           (Hibal 5, Asmedit 3.3)  HLASM R4.0  2004/03/22 09.39
+___    ______ ____    _____ _____  ____ __ ______    ______ _________
0                                   2364             =         VCALL GRDEL               Delete a general resource item
                                    2365             =         AGO   .EXIT
                                    2366             =.ERR     MNOTE 8,'Resource ID is a requried parameter'
                                    2367             =.EXIT    ANOP  ,
                                    2368             =         MEND  ,
0                                   2370             =*****************************************************************
                                    2371             =*
                                    2372             =* Get a general resource item hold
                                    2373             =*
                                    2374             =*   RID is a four byte resource id returned from GRCRE
                                    2375             =*
                                    2376             =*   The resource hold id is returned in RVR
                                    2377             =*
                                    2378             =*****************************************************************
                                    2379             =         MACRO ,
                                    2380             =&LABEL   GRGET &RID=,&WAIT=YES,&EXCL=NO
                                    2381             =         AIF   ('&LABEL' EQ '').NOLAB
                                    2382             =&LABEL   LABEL ,
                                    2383             =.NOLAB   ANOP  ,
                                    2384             =         AIF   ('&RID' EQ '').ERR1
                                    2385             =         PSET  @GRES
                                    2386             =         PMOV  @GRID,&RID
                                    2387             =         AIF   ('&WAIT' EQ 'NO').EXCL
                                    2388             =         AIF   ('&WAIT' NE 'YES').ERR2
                                    2389             =         SET   @GRWAIT
                                    2390             =.EXCL    AIF   ('&EXCL' EQ 'NO').VCALL
                                    2391             =         AIF   ('&EXCL' NE 'YES').ERR3
                                    2392             =         SET   @GREXCL
                                    2393             =.VCALL   VCALL GRGET               Get general resource item
                                    2394             =         AGO   .EXIT
                                    2395             =.ERR1    MNOTE 8,'Resource ID is a requried parameter'
                                    2396             =         AGO   .EXIT
                                    2397             =.ERR2    MNOTE 8,'Valid values for WAIT= are YES or NO'
                                    2398             =         AGO   .EXIT
                                    2399             =.ERR3    MNOTE 8,'Valid values for EXCL= are YES or NO'
                                    2400             =.EXIT    ANOP  ,
                                    2401             =         MEND  ,
0                                   2403             =*****************************************************************
                                    2404             =*
                                    2405             =* Release a general resource item hold
                                    2406             =*
                                    2407             =*   RID is a four byte resource hold id returned from GRGET
                                    2408             =*     Note: The RID can be the resource id or hold id if the
                                    2409             =*           get was exclusive. See GRREL in RESMAN.
                                    2410             =*
                                    2411             =*****************************************************************
                                    2412             =         MACRO ,
                                    2413             =&LABEL   GRREL &RID=
                                    2414             =         AIF   ('&LABEL' EQ '').NOLAB
                                    2415             =&LABEL   LABEL ,
                                    2416             =.NOLAB   ANOP  ,
                                    2417             =         AIF   ('&RID' EQ '').ERR
                                    2418             =         PSET  @GRES
                                    2419             =         PMOV  @GRID,&RID
1FILECAT  (FILECA) (09:39) (22MAR04) ORVYL'S File Catalog Manager                                                           Page   21
0Loc    Object Code    Addr1 Addr2  Stmt Lv Lineno    Source Statement           (Hibal 5, Asmedit 3.3)  HLASM R4.0  2004/03/22 09.39
+___    ______ ____    _____ _____  ____ __ ______    ______ _________
0                                   2420             =         VCALL GRREL               Release a general resource item
                                    2421             =         AGO   .EXIT
                                    2422             =.ERR     MNOTE 8,'Resource ID is a requried parameter'
                                    2423             =         AGO   .EXIT
                                    2424             =.EXIT    ANOP  ,
                                    2425             =         MEND  ,
0                                   2427             =*****************************************************************
                                    2428             =*
                                    2429             =* Change an exclusive hold to a share hold
                                    2430             =*
                                    2431             =*   RID is a four byte resource id returned from GRGET
                                    2432             =*
                                    2433             =*****************************************************************
                                    2434             =         MACRO ,
                                    2435             =&LABEL   GRX2S &RID=
                                    2436             =         AIF   ('&LABEL' EQ '').NOLAB
                                    2437             =&LABEL   LABEL ,
                                    2438             =.NOLAB   ANOP  ,
                                    2439             =         AIF   ('&RID' EQ '').ERR
                                    2440             =         PSET  @GRES
                                    2441             =         PMOV  @GRID,&RID
                                    2442             =         VCALL GRX2S     Change an exclusive hold to a share hold
                                    2443             =         AGO   .EXIT
                                    2444             =.ERR     MNOTE 8,'Resource ID is a requried parameter'
                                    2445             =         AGO   .EXIT
                                    2446             =.EXIT    ANOP  ,
                                    2447             =         MEND  ,
0                                   2449             =*****************************************************************
                                    2450             =*
                                    2451             =* Cancel a general resource item waiting for hold
                                    2452             =*
                                    2453             =*   RID is a four byte resource id returned from GRGET
                                    2454             =*   TYPE is either ALL for cancel all waiters or AS for all
                                    2455             =*        waiters in this address space only
                                    2456             =*
                                    2457             =*****************************************************************
                                    2458             =         MACRO ,
                                    2459             =&LABEL   GRCAN &RID=,&TYPE=AS
                                    2460             =         AIF   ('&LABEL' EQ '').NOLAB
                                    2461             =&LABEL   LABEL ,
                                    2462             =.NOLAB   ANOP  ,
                                    2463             =         AIF   ('&RID' EQ '').ERR
                                    2464             =         PSET  @GRES
                                    2465             =         AIF   ('&TYPE' EQ 'ALL').CANALL
                                    2466             =         AIF   ('&TYPE' NE 'AS').ERR2
                                    2467             =         SET   @GRCANAS            Cancel only waiters of this AS
                                    2468             =.CANALL  ANOP  ,
                                    2469             =         PMOV  @GRID,&RID
                                    2470             =         VCALL GRCAN               Cancel a general resource item
                                    2471             =         AGO   .EXIT
                                    2472             =.ERR2    MNOTE 8,'Type must be ALL or AS'
                                    2473             =         AGO   .EXIT
                                    2474             =.ERR     MNOTE 8,'Resource ID is a requried parameter'
                                    2475             =.EXIT    ANOP  ,
1FILECAT  (FILECA) (09:39) (22MAR04) ORVYL'S File Catalog Manager                                                           Page   22
0Loc    Object Code    Addr1 Addr2  Stmt Lv Lineno    Source Statement           (Hibal 5, Asmedit 3.3)  HLASM R4.0  2004/03/22 09.39
+___    ______ ____    _____ _____  ____ __ ______    ______ _________
0                                   2476             =         MEND  ,
1FILECAT  (FILECA) (09:39) (22MAR04) ORVYL'S File Catalog Manager                                                           Page   23
0Loc    Object Code    Addr1 Addr2  Stmt Lv Lineno    Source Statement           (Hibal 5, Asmedit 3.3)  HLASM R4.0  2004/03/22 09.39
+___    ______ ____    _____ _____  ____ __ ______    ______ _________
0                                   2480      23.              COPY  FSB
 000000                00000 001E0  2481             =FSB      RECORD BEGIN
                                    2489  1          =CCAT0PCT   EQU   10                      % OF FREE BLOCKS FOR WARNING
                                    2490  1          =CCAT0MIN   EQU   60                      MIN FREE BEFORE WARNING
                                    2491  1          =CCAT1PCT   EQU   5                       % OF MIN LOGICAL FREE BLOCKS
                                    2492  1          =CCAT1MIN   EQU   60                      MIN FREE LOGICAL BLOCK NUM
                                    2493  1          =CCAT2PCT   EQU   1                       % OF MIN FREE BLOCKS
                                    2494  1          =CCAT2MIN   EQU   10                      MIN FREE BLOCK NUM
                                    2495  1          =
                                    2496  1          =CNODA99    EQU   72,72,C'N'              99th percentile
                                    2497  1          =CNODF99    EQU   65,65,C'N'              Non permit len, no per, max name
                                    2498  1          =
                                    2499  1          =CFSBFLSZ   EQU   40                      MAX FIL NAME LEN(DOTS, ~"ORV.")
                                    2500  1          =CFSBNDOT   EQU   38                      MAX FIL NAME LEN(~DOTS, ~"ORV.")
                                    2501  1          =CFSBNMSZ   EQU   33                      MAX NAME LEN TO SEARCH
                                    2502  1          =CFSBDBLK   EQU   3                       3 DOUBLE WRITE BLOCKS
                                    2503  1          =CFSBSTK    EQU   7                       STACK DEPTH OF 7
                                    2504  1          =CFSBMXNT   EQU   256+41                  MAX ENTRY LENGTH
                                    2505  1          =OBLKPL     EQU   3,3,C'N'                ORVYL FILE BLOCK POINTER LEN
                                    2506  1          =BL         EQU   2,2,C'N'                BLOCK POINTER LEN
                                    2507  1          =OL         EQU   2,2,C'N'                OFFSET POINTER LEN
                                    2508  1          =PL         EQU   BL+OL,BL+OL,C'N'        TOTAL POINTER LEN
                                    2509  1          =           GBLA  &BL,&L
                                    2510  1          =&BL        SETA  L'BL
                                    2511  1          =&L         SETA  L'PL                    TOTAL POINTER LENGTH
                                    2512  1          =*
                                    2513  1          =*  FILE SYSTEM BLOCK
                                    2514  1          =*
 000000 C6E2C240                    2515  1          =FSBBID     DC    CL4'FSB'                BLOCK ID
                                    2516  1          =
 000004                             2517  1          =FSBCHAIN   DS    A                       NEXT FSB ON CHAIN
                                    2518  1          =
 000008                             2519  1          =FSBID      DS    X                       FILE-SYSTEM ID NUMBER
                                    2520  1          =
 000009 00                          2521  1          =FSBAFLGS   FLAG  ,                       FILE-SYSTEM AVAILABILITY
 FSBAFLGS.FSBANAVL 80 ONES          2525  1          =           FLAG  FSBANAVL                NOT AVAILABLE
 FSBAFLGS.FSBARO   40 ONES          2530  1          =           FLAG  FSBARO                  READ-ONLY STATUS
 FSBAFLGS.FSBINIT  20 ONES          2535  1          =           FLAG  FSBINIT                 INITIALIZATION PROCESS
 FSBAFLGS.FSBCLOSE 10 ONES          2540  1          =           FLAG  FSBCLOSE                SHUTDOWN PROCESS
 FSBAFLGS.FSBCATNI 08 ONES          2545  1          =           FLAG  FSBCATNIN               CATALOG IN NoInsert MODE
 FSBAFLGS.FSBCATNL 04 ONES          2550  1          =           FLAG  FSBCATNLM               CATALOG IN NoLenMod MODE
                                    2555  1          =
 00000A 00                          2556  1          =FSBSFLGS   FLAG  ,                       FILE-SYSTEM STATUS
 FSBSFLGS.FSBSPROD 80 ONES          2560  1          =           FLAG  FSBSPROD                PRODUCTION FILE SYSTEM
 FSBSFLGS.FSBSABRO 40 ONES          2565  1          =           FLAG  FSBSABRO                ALLOW BATCH THOUGH R/O
 FSBSFLGS.FSBSTEMP 20 ONES          2570  1          =           FLAG  FSBSTEMP                DEDICATED TO TEMP FILES
                                    2575  1          =
 00000B 00                          2576  1          =FSBOFLGS   FLAG  ,                       FILE-SYSTEM OPTIONS
 FSBOFLGS.FSBONIXR 80 ONES          2580  1          =           FLAG  FSBONIXR                NON-IXR FILES ALLOWED
 FSBOFLGS.FSBFCACH 40 ONES          2585  1          =           FLAG  FSBFCACHE               Use file block caching
 FSBOFLGS.FSBHCACH 20 ONES          2590  1          =           FLAG  FSBHCACHE               Use hiperspace caching
                                    2595  1          =
 00000C                             2596  1          =FSBFRDB    DS    A                       FIRST RDB FOR FILE-SYSTEM
 000010                             2597  1          =FSBLRDB    DS    A                       LAST RDB FOR FILE-SYSTEM
 000014                             2598  1          =FSBDDN     DS    CL4                     DDNAME
 000018                             2599  1          =FSBNAME    DS    CL8                     FILE-SYSTEM NAME
1FILECAT  (FILECA) (09:39) (22MAR04) ORVYL'S File Catalog Manager                                                           Page   24
0Loc    Object Code    Addr1 Addr2  Stmt Lv Lineno    Source Statement           (Hibal 5, Asmedit 3.3)  HLASM R4.0  2004/03/22 09.39
+___    ______ ____    _____ _____  ____ __ ______    ______ _________
0000020 C7C74BE4E4E4                2600  1          =FSBOWNER   DC    CL6'GG.UUU'             FILE-SYSTEM MASTER ACCOUNT
                                    2601  1          =
 000026                             2602  1          =           DS    XL2                     Spare
                                    2603  1          =
 000028                             2604  1          =FSBCGRI    DS    A                       Catalog general resource id
 00002C                             2605  1          =FSBRBT     DS    A                       Read Buffer Table Pointer
 000030                             2606  1          =FSBCACHE   DS    A                       Cache table pointer
 000034                             2607  1          =FSBCACHS   DS    A                       System cache table pointer
 000038                             2608  1          =           DS    A                       Spare
 00003C                             2609  1          =FSBAHFB    DS    A                       File attached hash table
 000040                             2610  1          =FSBIOP     DS    A                       File IO parm buffers
                                    2611  1          =*
                                    2612  1          =*  CATALOG MANAGEMENT AREA
                                    2613  1          =*
 000044                             2614  1          =FSBCATSB   DS    A                       CATALOGUE START BLOCK
 000048                             2615  1          =FSBCATBC   DS    A                       CATALOGUE BLOCK COUNT
                                    2616  1          =*SBBMALO DS    A   ** MOVE TO STATS ** ALLOCATION REQUESTS
                                    2617  1          =*SBBMALS DS    A   ** MOVE TO STATS ** ALLOCATION NOT CACHED
                                    2618  1          =*SBBMFRE DS    A   ** MOVE TO STATS ** BITMAP RELEASES
                                    2619  1          =*SBBMFRS DS    A   ** MOVE TO STATS ** BITMAP RELEASES - TO SYS
 00004C                             2620  1          =           DS    4A                      Available
                                    2621  1          =CFSBBL     EQU   4                       FSB BLOCK PTR LEN
                                    2622  1          =CFSBPL     EQU   8,8,C'N'                FSB POINTER LEN (BLOCK + ADDR)
                                    2623  1          =CFSBBUF    EQU   8,8,C'N'                8 CAT BLOCK BUFFERS ALLOWED
 00005C                             2624  1          =FSBBLKTOP   DS   A                       POINTS TO LAST BUFFER SLOT
 000060                             2625  1          =FSBCHKA    DS    A                       CHECK POINT BUFFER ADDRESS
 000064                             2626  1          =FSBROOTB   DS    A                       BLOCK NUMBER IN ROOT BUFFER
 000068                             2627  1          =FSBROOTA   DS    A                       | ADDRESS OF ROOT BUFFER
 00006C                             2628  1          =FSBBLK1    DS    A                       BLOCK NUMBER IN 1ST BUFFER
 000070                             2629  1          =FSBBUF1    DS    A                       | ADDRESS OF 1ST BUFFER
                                    2630  1          =&BUFLEN    SETA  (L'CFSBBUF-1)*L'CFSBPL
                                    2631  1          =           DS    &BUFLEN.X               | LEN OF REMAINING BUF SLOTS
 000074                                   1          +           DS    56X                     | LEN OF REMAINING BUF SLOTS
                                    2632  1          =*
                                    2633  1          =*  Catalog Balancing Parameters
                                    2634  1          =*
 0000AC                             2635  1          =FSBBALST   DS    0X
 0000AC                             2636  1          =FSBDSZ     DS    Y                       Size of disk block
 0000AE                             2637  1          =FSBDAVA    DS    Y                       Available space per block
 0000B0                             2638  1          =FSBDTAGX   DS    Y                       Offset of end tag in block
 0000B2                             2639  1          =FSBNALEN   DS    Y                       Account: Length of node
 0000B4                             2640  1          =FSBNASPA   DS    Y                       | Free space in node
 0000B6                             2641  1          =FSBTAXLN   DS    Y                       | Maximum length of entry
 0000B8                             2642  1          =FSBNAMXL   DS    Y                       | Max len of entry in node
 0000BA                             2643  1          =FSBNAXSP   DS    Y                       | Max free space per node
 0000BC                             2644  1          =FSBNANSP   DS    Y                       | Min free space per node
 0000BE                             2645  1          =FSBNFLEN   DS    Y                       File: Length of node
 0000C0                             2646  1          =FSBNFSPA   DS    Y                       | Free space in node
 0000C2                             2647  1          =FSBTFXLN   DS    Y                       | Maximum length of entry
 0000C4                             2648  1          =FSBNFMXL   DS    Y                       | Max len of entry in node
 0000C6                             2649  1          =FSBNFXSP   DS    Y                       | Max free space per node
 0000C8                             2650  1          =FSBNFNSP   DS    Y                       | Min free space per node
 0000CA                             2651  1          =FSBTXXLN   DS    Y                       Max len of extended data entry
 0000CC                             2652  1          =FSBLOGFR   DS    Y                       Minimum logical block count
 0000CE                             2653  1          =FSBMNFRE   DS    Y                       Min num of free blks in Cat
                                    2654  1          =FSBBALLN   EQU   *-FSBBALST
1FILECAT  (FILECA) (09:39) (22MAR04) ORVYL'S File Catalog Manager                                                           Page   25
0Loc    Object Code    Addr1 Addr2  Stmt Lv Lineno    Source Statement           (Hibal 5, Asmedit 3.3)  HLASM R4.0  2004/03/22 09.39
+___    ______ ____    _____ _____  ____ __ ______    ______ _________
0                                   2655  1          =*
                                    2656  1          =*  BITMAP MANAGEMENT AREA
                                    2657  1          =*
 0000D0                             2658  1          =FSBBMCNO   DS    Y                       SPECIFIED CNT BLK# IN AVAIL LIST
 0000D4                             2659  1          =FSBBITSB   DS    A                       BIT MAP FIRST BLOCK
 0000D8                             2660  1          =FSBBITBC   DS    A                       BIT MAP BLOCK COUNT
 0000DC                             2661  1          =FSBABLK    DS    A                       NUMBER OF AVAILABLE BLOCKS
 0000E0                             2662  1          =FSBTBLK    DS    A                       TOTAL NUMBER OF BLOCKS
 0000E4                             2663  1          =FSBDBLK    DS    A                       DEFAULT BLOCK ALLOCATION
 0000E8                             2664  1          =FSBABNL    DS    A                       AVAILABLE BLOCK NUMBER LIST
                                    2665  1          =
 0000EC                             2666  1          =FSBSMF     DS    2A                      SMF STATISTICS WORK AREA
 0000F4                             2667  1          =FSBSTATS   DS    0X
 0000F4                             2668  1          =FSBCTRD    DS    F                       CATALOG READ COUNTER
 0000F8                             2669  1          =FSBCTRRD   DS    F                       CATALOG ROOT "READ" COUNTER
 0000FC                             2670  1          =FSBCTCRD   DS    F                       CATALOG CASHED READ COUNTER
 000100                             2671  1          =FSBCTBRD   DS    F                       CATALOG BALANCE READ COUNTER
 000104                             2672  1          =FSBCTWR    DS    F                       CATALOG WRITE COUNTER
 000108                             2673  1          =FSBCTIWR   DS    F                       CATALOG INTENTIONS WRITE CNT
 00010C                             2674  1          =FSBCTBWR   DS    F                       CATALOG BALANCE WRITE COUNTER
 000110                             2675  1          =FSBCTDWR   DS    F                       CATALOG DOUBLE WRITE COUNTER
                                    2676  1          =*
                                    2677  1          =*  Total IO's and IO time
                                    2678  1          =*
 000114                             2679  1          =FSBIOCT    DS    F                   Total I/O count
 000118                             2680  1          =FSBIOTIM   DS    D                   Total I/O time
                                    2681  1          =
 000120                             2682  1          =FSBCAT4K   DS    F                   Cat io 4K buffer (2K file sys only)
                                    2683  1          =
 000124                             2684  1          =CTFILATT   DS    F                   Number of files attached
 000128                             2685  1          =CTFILATM   DS    F                   | max number attached
 00012C                             2686  1          =CTFILAUS   DS    F                   Number of user attaches
 000130                             2687  1          =CTFILAUM   DS    F                   | max number of user attaches
 000134                             2688  1          =CTFILATP   DS    F                   Number of temp files attached
 000138                             2689  1          =CTFILAPM   DS    F                   | max number of temp files attached
000013C                             2691  1          =           DS    F                   Spare
                                    2692  1          =*
                                    2693  1          =* Note: don't modify the following counters in any way unless
                                    2694  1          =*       FILECB and the routine FDOIODO are also modified.
                                    2695  1          =*
                                    2696  1          =*  File read counts from disk
                                    2697  1          =*
 000140                             2698  1          =FSBFIOCT   DS    0D                  First IO count
 000140                             2699  1          =CTREADCT   DS    0D
 000140                             2700  1          =CTMASRCT   DS    D                   Master - read counts
 000148                             2701  1          =CTCATRCT   DS    D                   Catalog - read counts
 000150                             2702  1          =CTBITRCT   DS    D                   Bitmap - read counts
 000158                             2703  1          =CTIXRRCT   DS    D                   IXR - read counts
 000160                             2704  1          =CTUSERCT   DS    D                   User  - read counts
 000168                             2705  1          =CTOTHRCT   DS    D                   Other?? - read counts
                                    2706  1          =*
                                    2707  1          =* Counter indexes - All counters are referenced with the
                                    2708  1          =* generic label and using one of the following indexes.
                                    2709  1          =*
                                    2710  1          =CTMASD     EQU   CTMASRCT-CTREADCT
1FILECAT  (FILECA) (09:39) (22MAR04) ORVYL'S File Catalog Manager                                                           Page   26
0Loc    Object Code    Addr1 Addr2  Stmt Lv Lineno    Source Statement           (Hibal 5, Asmedit 3.3)  HLASM R4.0  2004/03/22 09.39
+___    ______ ____    _____ _____  ____ __ ______    ______ _________
0                                   2711  1          =CTCATD     EQU   CTCATRCT-CTREADCT
                                    2712  1          =CTBITD     EQU   CTBITRCT-CTREADCT
                                    2713  1          =CTIXRD     EQU   CTIXRRCT-CTREADCT
                                    2714  1          =CTUSED     EQU   CTUSERCT-CTREADCT
                                    2715  1          =CTOTHD     EQU   CTOTHRCT-CTREADCT
                                    2716  1          =*
                                    2717  1          =*  File write counts
                                    2718  1          =*
 000170                             2719  1          =CTWRITCT   DS    0D
 000170                             2720  1          =CTMASWCT   DS    D                   Master - writes
 000178                             2721  1          =CTCATWCT   DS    D                   Catalog - writes
 000180                             2722  1          =CTBITWCT   DS    D                   Bitmap -  writes
 000188                             2723  1          =CTIXRWCT   DS    D                   IXR - writes
 000190                             2724  1          =CTUSEWCT   DS    D                   User -  writes
 000198                             2725  1          =CTOTHWCT   DS    D                   Other?? - writes
                                    2726  1          =FSBFIOCN   EQU   (*-FSBFIOCT)/L'FSBFIOCT
                                    2727  1          =*
                                    2728  1          =*  File read counts from cache
                                    2729  1          =*
 0001A0                             2730  1          =FSBFCACT   DS    0D                  First cache count
 0001A0                             2731  1          =CTCACHCT   DS    0D
 0001A0                             2732  1          =CTMASCCT   DS    D                   Master - read counts
 0001A8                             2733  1          =CTCATCCT   DS    D                   Catalog - read counts
 0001B0                             2734  1          =CTBITCCT   DS    D                   Bitmap - read counts
 0001B8                             2735  1          =CTIXRCCT   DS    D                   IXR - read counts
 0001C0                             2736  1          =CTUSECCT   DS    D                   User  - read counts
 0001C8                             2737  1          =CTOTHCCT   DS    D                   Other?? - read counts
                                    2738  1          =
                                    2739  1          =CTREADD    EQU   CTREADCT-FSBFIOCT
                                    2740  1          =CTWRITD    EQU   CTWRITCT-FSBFIOCT
                                    2741  1          =CTCACHD    EQU   CTCACHCT-FSBFIOCT
                                    2742  1          =
                                    2743  1          =FSBFCACN   EQU   (*-FSBFCACT)/L'FSBFCACT
                                    2744  1          =CTFILECT   EQU   CTREADCT,*-CTREADCT
                                    2745  1          =CTFILECC   EQU   (*-CTREADCT)/L'CTREADCT
00001D0                             2747  1          =           DS    4A                  Spare
00001E0                001E0 001E0  2749             =         END   ,
1FILECAT  (FILECA) (09:39) (22MAR04) ORVYL'S File Catalog Manager                                                           Page   27
0Loc    Object Code    Addr1 Addr2  Stmt Lv Lineno    Source Statement           (Hibal 5, Asmedit 3.3)  HLASM R4.0  2004/03/22 09.39
+___    ______ ____    _____ _____  ____ __ ______    ______ _________
0                                   2759      25.              COPY  FPC
                                    2760             =*
                                    2761             =*  FILE SYSTEM PRIVILEGE FLAG CODES
                                    2762             =*
                                    2763             =FPMIXR   EQU   X'80',,C'N'             **RESERVE** IXR MASTER IXR
                                    2764             =FPSIXR   EQU   X'40',,C'N'             **RESERVE** IXR SUPER IXR
                                    2765             =FPZIXR   EQU   X'20',,C'N'             **RESERVE** IXR HYBRID IXR
                                    2766             =FPFIXR   EQU   X'10',,C'N'             **RESERVE** IXR FIRST HYBRID
                                    2767             =FPN      EQU   X'00',,C'N'             PRIMITIVE NO-ACCESS
                                    2768             =FPR      EQU   X'01',,C'N'             PRIMITIVE READ
                                    2769             =FPA      EQU   X'02',,C'N'             PRIMITIVE APPEND
                                    2770             =FPW      EQU   X'04',,C'N'             PRIMITIVE WRITE
                                    2771             =FPE      EQU   X'08',,C'N'             PRIMITIVE EXTEND
                                    2772             =FPS      EQU   X'10',,C'N'             PRIMITIVE SHARE
                                    2773             =
                                    2774             =FRO      EQU   FPR                     READ ONLY
                                    2775             =FRW      EQU   FPR+FPA+FPW             READ & WRITE
                                    2776             =FRP      EQU   FPR+FPA                 READ & APPEND
                                    2777             =FAO      EQU   FPA                     APPEND ONLY
                                    2778             =FSHR     EQU   FPS                     SHARE ONLY
                                    2779             =FAC      EQU   FPE                     EXTEND ONLY
                                    2780             =FPALL    EQU   FRW+FPE                 ALL PRIVILEGES
                                    2781             =FPNONE   EQU   FPN                     NO-ACCESS
                                    2782             =
                                    2783             =FPREAD   EQU   FPR                     READ ONLY
                                    2784             =FPAPPEND EQU   FPA                     APPEND ONLY
                                    2785             =FPWRITE  EQU   FPW                     WRITE ONLY
                                    2786             =FPEXTEND EQU   FPE                     EXTEND
                                    2787             =FPFWRITE EQU   FPR+FPA+FPW             FULL WRITE
1FILECAT  (FILECA) (09:39) (22MAR04) ORVYL'S File Catalog Manager                                                           Page   28
0Loc    Object Code    Addr1 Addr2  Stmt Lv Lineno    Source Statement           (Hibal 5, Asmedit 3.3)  HLASM R4.0  2004/03/22 09.39
+___    ______ ____    _____ _____  ____ __ ______    ______ _________
0                                   2789      27.              COPY  CATRQBL             VCAT api
                                    2790             =*
                                    2791             =* Portions of an obsolete work area being retained
                                    2792             =* as an interface area for the module FILEVCAT. Used
                                    2793             =* in both online orvyl and offline file utilities.
                                    2794             =*
 000000                00000 000D4  2795             =RQBL     RECORD BEGIN
 000000                             2803  1          =RQB        DS    0F
                                    2804  1          =
 000000 D9D8C2D3                    2805  1          =RQBLRQBL   DC    CL4'RQBL'
 000004                             2806  1          =RQBRPB     DS    A                       RPB POINTER
 000008                             2807  1          =RQBRTN2    DS    A                       INTERNAL DDR RETURN POINT
 00000C                             2808  1          =RQBLR14    DS    A                       REG 14 (CORE)
 000010                             2809  1          =RQBLR1     DS    A                       REG 1 (UTILITY CELL)
0000014                             2811  1          =RQBFBR2    DS    A                       INTERNAL FBR SAVE
 000018                             2812  1          =RQBLBR2    DS    A                       INTERNAL BR SAVE (VCAT)
 00001C                             2813  1          =RQBLWAR    DS    A                       WORK AREA REGISTER
 000020                             2814  1          =RQBLWR2    DS    A                       WR = STACK REGISTER
 000024                             2815  1          =RQBLWR3    DS    A                       SAVE STACK POINTER (IO ROUTINE)
 000028                             2816  1          =RQBLSPTR   DS    A                       SAVE STACK POINTER
                                    2817  1          =
 00002C 00                          2818  1          =RQBLFLG1   FLAG  ,                       1ST FILE FLAG BYTE
 RQBLFLG1.RQFIOER  80 ONES          2822  1          =           FLAG  RQFIOER                 HAVE I/O ERROR
 RQBLFLG1.RQFCLP   40 ONES          2827  1          =           FLAG  RQFCLP                  CLP OPERATION (ATTACH)
 RQBLFLG1.RQFNNOD  20 ONES          2832  1          =           FLAG  RQFNNOD                 NEW NODE IN SEQUENTIAL ACCESS
                                    2837  1          =
 000030                             2838  1          =           DS    0A                      Allign
 000030                             2839  1          =RQBLRNAM   DS    CL(CFSBFLSZ+4)          RENAME NAME (ROOM FOR "ORV.")
 00005C                             2840  1          =RQBLNAME   DS    CL(CFSBFLSZ+4)        * NAME BEING SEARCHED
 000088                00088 00062  2841  1          =           ORG   RQBLNAME+6            * STATUS 103 WORK AREA
 000062                             2842  1          =RQBLMXSP   DS    XL4                     MAX USER SPACE
 000066                             2843  1          =RQBLUSSP   DS    XL4                     USED SPACE
 00006A                0006A 00088  2844  1          =           ORG   ,
0000088                             2846  1          =RQBLWORK   DS    CL16                  * STATUS 2 WORK AREA
 000098                00098 00088  2847  1          =           ORG   RQBLWORK
 000088                             2848  1          =RQBLCRDT   DS    A                       CREATION DATE (SENSE2/CLP)
 00008C                             2849  1          =RQBLLSDT   DS    A                       LAST ACCESS DATE (SENSE2/CLP)
 000090                             2850  1          =RQBLUINF   DS    A                       USER INFO (SENSE2/CLP)
 000094                00094 00088  2851  1          =           ORG   RQBLWORK
 000088                             2852  1          =RQBLCCRD   DS    CL6                     CREATE DATE "YYMMDD" (SENSE2)
 00008E                             2853  1          =RQBLCLSD   DS    CL6                     LAST ACCESS "YYMMDD" (SENSE2)
 000094                00094 00098  2854  1          =           ORG   ,
 000098                             2855  1          =RQBLSAV    DS    (15)A                   Room for reg saves
00000D4                000D4 000D4  2857             =         END   ,
1FILECAT  (FILECA) (09:39) (22MAR04) ORVYL'S File Catalog Manager                                                           Page   29
0Loc    Object Code    Addr1 Addr2  Stmt Lv Lineno    Source Statement           (Hibal 5, Asmedit 3.3)  HLASM R4.0  2004/03/22 09.39
+___    ______ ____    _____ _____  ____ __ ______    ______ _________
0                                   2867      29.              COPY  NTRY
 000000                00000 00020  2868             =NTRY     RECORD BEGIN
                                    2876  1          =CNTAMXL    EQU    264                MAx len of account entry
                                    2877  1          =CNTFMXL    EQU    297                Max len of account entry
 000000                             2878  1          =           DS     0S(CFSBMXNT-CNTAMXL),0S(CFSBMXNT-CNTFMXL)
                                    2879  1          =CNTAMXSZ   EQU    5                  Maximum length of account name
                                    2880  1          =CNTFMXSZ   EQU    CFSBNMSZ           Maximum length of file name
                                    2881  1          =**
 000000                             2882  1          =NTRYSTRT   DS     0X
 000000                             2883  1          =NTRYLEN    DS     AL(OL)             Total length of entry
 000002                             2884  1          =NTRYOFFB   DS     AL(BL)             Offspring pointer (block)
 000004                             2885  1          =NTRYOFFN   DS     AL(OL)             = (offset)
 000006                             2886  1          =NTRYDATB   DS     AL(BL)             Data pointer (block)
 000008                             2887  1          =NTRYDATN   DS     AL(OL)             = (offset)
 00000A                             2888  1          =NTRYVAR    DS     0X
                                    2889  1          =*
                                    2890  1          =* FILE CATALOG ACCOUNT ENTRY
                                    2891  1          =*
 00000A                             2892  1          =NTGNAME    DS    XL(CNTAMXSZ)        Account
 00000F                             2893  1          =NTGMXSP    DS    XL3                 Max space allowed for account
 000012                             2894  1          =NTGUSSP    DS    XL3                 Space already used by account
 000015                             2895  1          =NTGFLRB    DS     AL(BL)             File root pointer (block)
 000017                             2896  1          =NTGFLRN    DS     AL(OL)             = (offset)
 000019 00                          2897  1          =NTGFLG     FLAG  ,                   Permits for public
 NTGFLG.NTGFRO     01 ONES          2901  1          =           FLAG  (NTGFRO,FRO)  (PUBLIC)        READ ONLY
 NTGFLG.NTGFRW     07 ONES          2910  1          =           FLAG  (NTGFRW,FRW)  (PUBLIC)        READ & WRITE
 NTGFLG.NTGFRP     03 ONES          2919  1          =           FLAG  (NTGFRP,FRP)  (PUBLIC)        READ & APPEND
 NTGFLG.NTGFAO     02 ONES          2928  1          =           FLAG  (NTGFAO,FAO)  (PUBLIC)        APPEND ONLY
 00001A                             2937  1          =NTGMEMBR   DS    0X                  Members start here
                                    2938  1          =NTRYGR     EQU    NTRYSTRT,*-NTRYSTRT,C'R'
                                    2939  1          =
 00001A                0001A 0000A  2940  1          =           ORG    NTRYVAR
                                    2941  1          =*
                                    2942  1          =* FILE CATALOG FILE ENTRY
                                    2943  1          =*
 00000A                             2944  1          =NTFLOC     DS    XL3                 Location of file index
 00000D                             2945  1          =NTFCNT     DS    XL3                 Number of blocks (non-ixr)
 000010 00                          2946  1          =NTFCODE    FLAG  ,                   File flags
 NTFCODE.NTFCLP    80 ONES          2950  1          =           FLAG  NTFCLP              Only clp can attach this file
 NTFCODE.NTFSFORM  40 ONES          2955  1          =           FLAG  NTFSFORM            User info is format data
 NTFCODE.NTFNOCLP  20 ONES          2960  1          =           FLAG  NTFNOCLP            Clp can't change this file
 NTFCODE.NTFNIXR   10 ONES          2965  1          =           FLAG  NTFNIXR             Non-ixr file
 NTFCODE.NTFSPI    08 ONES          2970  1          =           FLAG  NTFSPI              Only spires can attach file
 NTFCODE.NTFHYBR   04 ONES          2975  1          =           FLAG  NTFHYBR             IXR/Non-IXR hybrid file type
 000011 00                          2980  1          =NTFFLGP    FLAG  ,                   Permits for public
 NTFFLGP.NTFPFRO   01 ONES          2984  1          =           FLAG  (NTFPFRO,FRO)  (PUBLIC)       READ ONLY
 NTFFLGP.NTFPFRW   07 ONES          2993  1          =           FLAG  (NTFPFRW,FRW)  (PUBLIC)       READ & WRITE
 NTFFLGP.NTFPFRP   03 ONES          3002  1          =           FLAG  (NTFPFRP,FRP)  (PUBLIC)       READ & APPEND
 NTFFLGP.NTFPFAO   02 ONES          3011  1          =           FLAG  (NTFPFAO,FAO)  (PUBLIC)       APPEND ONLY
 NTFFLGP.NTFPSHR   10 ONES          3020  1          =           FLAG  (NTFPSHR,FSHR) (PUBLIC)       SHARE ONLY
 000012 00                          3029  1          =NTFFLGO    FLAG  ,                   Permits for owner
 NTFFLGO.NTFOFRO   01 ONES          3033  1          =           FLAG  (NTFOFRO,FRO)  (OWNER)        READ ONLY
 NTFFLGO.NTFOFRW   07 ONES          3042  1          =           FLAG  (NTFOFRW,FRW)  (OWNER)        READ & WRITE
 NTFFLGO.NTFOFAO   02 ONES          3051  1          =           FLAG  (NTFOFAO,FAO)  (OWNER)        APPEND ONLY
 NTFFLGO.NTFOFRP   03 ONES          3060  1          =           FLAG  (NTFOFRP,FRP)  (OWNER)        READ & APPEND
 000013                             3069  1          =NTFCRDT    DS    XL4                 Creation date & time
1FILECAT  (FILECA) (09:39) (22MAR04) ORVYL'S File Catalog Manager                                                           Page   30
0Loc    Object Code    Addr1 Addr2  Stmt Lv Lineno    Source Statement           (Hibal 5, Asmedit 3.3)  HLASM R4.0  2004/03/22 09.39
+___    ______ ____    _____ _____  ____ __ ______    ______ _________
0000017                             3070  1          =NTFLSDT    DS    XL4                 Last reference date & time
 00001B                             3071  1          =NTFUINFO   DS    XL4                 User info - set by control 14
 00001F                             3072  1          =NTFLNMSZ   DS    X                   Length of file name
 000020                             3073  1          =NTFLNAME   DS    0X                  File name here
                                    3074  1          =NTRYFL     EQU    NTRYSTRT,*-NTRYSTRT,C'R'
                                    3075  1          =*        MEMBERS START HERE AFTER FILE NAME
 000020                00020 00020  3076             =         END   ,
-000000                00000 00002  3086             =NTRYXTND RECORD BEGIN
 000000                             3094  1          =NTRYXST    DS     0X                 Start of extended_data
 000000                             3095  1          =NTRYXLEN   DS     AL(OL)             Len of extended_data entry
                                    3096  1          =CNTXFXLN   EQU    *-NTRYXST          Fixed overhead length
 000002                             3097  1          =NTRYXPER   DS     0X                 Permits start here
 000002                00002 00002  3098             =         END    ,
0000000                00000 00007  3108             =NTRYPR   RECORD BEGIN
                                    3116  1          =*
                                    3117  1          =* FILE CATALOG PERMIT ENTRY
                                    3118  1          =*      APPENDED TO ACCOUNT AND FILE ENTRYS
                                    3119  1          =*
 000000                             3120  1          =NTPNAME    DS    XL6                     PERMIT MEMBER ACCOUNT
 000006 00                          3121  1          =NTPFLG     FLAG  ,                       PERMIT FLAGS
 NTPFLG.NTPFRO     01 ONES          3125  1          =           FLAG  (NTPFRO,FRO)                  READ ONLY
 NTPFLG.NTPFRW     07 ONES          3134  1          =           FLAG  (NTPFRW,FRW)                  READ & WRITE
 NTPFLG.NTPFRP     03 ONES          3143  1          =           FLAG  (NTPFRP,FRP)                  READ & APPEND
 NTPFLG.NTPFAO     02 ONES          3152  1          =           FLAG  (NTPFAO,FAO)                  APPEND ONLY
 NTPFLG.NTPFAC     08 ONES          3161  1          =           FLAG  (NTPFAC,FAC)                  PERMIT ACCESS
 000007                00007 00007  3170             =         END   ,
1FILECAT  (FILECA) (09:39) (22MAR04) ORVYL'S File Catalog Manager                                                           Page   31
0Loc    Object Code    Addr1 Addr2  Stmt Lv Lineno    Source Statement           (Hibal 5, Asmedit 3.3)  HLASM R4.0  2004/03/22 09.39
+___    ______ ____    _____ _____  ____ __ ______    ______ _________
0                                   3180      31.              COPY  FCATPARM
 000000                00000 00038  3181             =@FMIXRAD RECORD BEGIN
 000000                             3189  1          =@FMIXFSB   DS    A                   FSB address
 000004                             3190  1          =@FMIXNAM   DS    CL(CFSBFLSZ)        File
 00002C                             3191  1          =@FMIXBLK   DS    F                   First block number
 000030                             3192  1          =@FMIXCNT   DS    F                   Count of blocks
 000034                             3193  1          =@FMIXEXT   DS    F                   Extend starting here
 000038                00038 00038  3194             =         END   ,
0000000                00000 0003E  3204             =@FCPERM  RECORD BEGIN              Permits for attach
 000000                             3212  1          =@FCPFSB    DS    A                   FSB address
 000004                             3213  1          =@FCPBLK    DS    A                   Return first block
 000008                             3214  1          =@FCPBLKC   DS    A                   Number of blocks (non-IXRd)
 00000C 00                          3215  1          =@FCPFLAG   FLAG  ,
 @FCPFLAG.@FCPFMAG 80 ONES          3219  1          =           FLAG  @FCPFMAG            Magic account
 @FCPFLAG.@FCPFNAX 40 ONES          3224  1          =           FLAG  @FCPFNAX            Don't update access date
 00000D                             3229  1          =@FCPACC    DS    CL(GRSZ)            Account
 000013                             3230  1          =@FCPNAME   DS    CL(CFSBFLSZ)        File name
 00003B                             3231  1          =@FCPFLGO   DS    XL1                 File mask
 00003C                             3232  1          =@FCPPERM   DS    XL1                 Return permits
 00003D                             3233  1          =@FCPCODE   DS    XL1                 Return flags
 00003E                0003E 0003E  3234             =         END   ,
0000000                00000 0003B  3244             =@FCNIXR  RECORD BEGIN              Add a non-IXR file
 000000                             3252  1          =@FCNFSB    DS    A                   FSB address
 000004                             3253  1          =@FCNBLKC   DS    A                   Number of blocks
 000008                             3254  1          =@FCNFBLK   DS    A                   First block of range (returned)
 00000C 00                          3255  1          =@FCNFLAG   FLAG  ,
 @FCNFLAG.@FCNFMAG 80 ONES          3259  1          =           FLAG  @FCNFMAG            Magic account
 @FCNFLAG.@FCNFHYB 40 ONES          3264  1          =           FLAG  @FCNFHYB            Hybrid file
 00000D                             3269  1          =@FCNACC    DS    CL(GRSZ)            Account
 000013                             3270  1          =@FCNNAME   DS    CL(CFSBFLSZ)        File name
 00003B                0003B 0003B  3271             =         END   ,
0000000                00000 00041  3281             =@FCFINFO RECORD BEGIN              File information
 000000                             3289  1          =@FCFFSB    DS    A                   FSB address
 000004                             3290  1          =@FCFNAM    DS    CL(CFSBFLSZ)        File name
 00002C                             3291  1          =@FCFINF    DS    CL(NTFLNMSZ-NTFLOC) Select file info from catalog
 000041                00041 00041  3292             =         END   ,
0000000                00000 0000A  3302             =@FCAVALI RECORD BEGIN              Account validate
 000000                             3310  1          =@FCAVFSB   DS    A                   FSB address
 000004                             3311  1          =@FCAVNAM   DS    CL(GRSZ)            Account name
 00000A                0000A 0000A  3312             =         END   ,
0000000                00000 0003A  3322             =@FCASACC RECORD BEGIN              Assign Account level file privileges
 000000                             3330  1          =@FCASFSB   DS    A                   FSB address
 000004                             3331  1          =@FCASUSR   DS    CL(GRSZ)            User receiving privileges
 00000A                             3332  1          =@FCASUSE   DS    CL(GRSZ)            User extending privileges
 000010                             3333  1          =@FCASUSO   DS   0CL(GRSZ)            File owner
                                    3334  1          =*                                  Note: USC and USB may be the same
 000010                             3335  1          =@FCASNAM   DS    CL(CFSBFLSZ)        File name
 000038                             3336  1          =@FCASPRI   DS    X                   Privileges to be extended
 000039 00                          3337  1          =@FCASFLG   FLAG  ,
 @FCASFLG.@FCASFM  80 ONES          3341  1          =           FLAG  @FCASFM             Magic user
 00003A                0003A 0003A  3346             =         END   ,
1FILECAT  (FILECA) (09:39) (22MAR04) ORVYL'S File Catalog Manager                                                           Page   32
0Loc    Object Code    Addr1 Addr2  Stmt Lv Lineno    Source Statement           (Hibal 5, Asmedit 3.3)  HLASM R4.0  2004/03/22 09.39
+___    ______ ____    _____ _____  ____ __ ______    ______ _________
0000000                00000 00018  3356             =@FCXTND  RECORD BEGIN              Extend global file privileges
 000000                             3364  1          =@FCXFSB    DS    A                   FSB address
 000004                             3365  1          =@FCXUSR    DS    CL(GRSZ)            User receiving privileges
 00000A                             3366  1          =@FCXUSO    DS    CL(GRSZ)            File owner
 000010                             3367  1          =@FCXUSE    DS    CL(GRSZ)            User extending privileges
                                    3368  1          =*                                  Note: USC and USB may be the same
 000016                             3369  1          =@FCXPRI    DS    X                   Privileges to be extended
 000017 00                          3370  1          =@FCXFLG    FLAG  ,
 @FCXFLG.@FCXFM    80 ONES          3374  1          =           FLAG  @FCXFM              Magic user
 000018                00018 00018  3379             =         END   ,
0000000                00000 00047  3389             =@FCGPERM RECORD BEGIN              Get Access privileges
 000000                             3397  1          =@FCGPFSB   DS    A                   FSB address
 000004                             3398  1          =@FCGPLOC   DS    A                   Entry buffer
 000008                             3399  1          =@FCGPLEN   DS    A                   Length of entry buffer
 00000C                             3400  1          =@FCGPCNT   DS    A                   Count of entries (returned)
 000010 00                          3401  1          =@FCGPFLG   FLAG  ,
 @FCGPFLG.@FCGPFF  80 ONES          3405  1          =           FLAG  @FCGPFF             File privileges
 @FCGPFLG.@FCGPFA  40 ONES          3410  1          =           FLAG  @FCGPFA             Account privileges
 @FCGPFLG.@FCGPFM  20 ONES          3415  1          =           FLAG  @FCGPFM             Magic user
 000011                             3420  1          =@FCGPPP    DS    XL1                 Public privileges
 000012                             3421  1          =@FCGPMS    DS    XL1                 File mask (File only)
0000013                             3423  1          =@FCGPUSE   DS    CL(GRSZ)            Signed on user (Acc only)
 000019                             3424  1          =@FCGPACC   DS    CL(GRSZ)            Account (Acc only)
 00001F                             3425  1          =@FCGPNAM   DS    CL(CFSBFLSZ)        File name (File only)
 000047                00047 00047  3426             =         END   ,
0000000                00000 0000B  3436             =@FCEPUB  RECORD BEGIN              Extend public permits
 000000                             3444  1          =@FCEPFSB   DS    A
 000004                             3445  1          =@FCEPACC   DS    CL(GRSZ)            Account extending permits
 00000A                             3446  1          =@FCEPPUB   DS    X                   Public permits to extend
 00000B                0000B 0000B  3447             =         END   ,
0000000                00000 00018  3457             =@FCAINFO RECORD BEGIN              Get Account Info
 000000                             3465  1          =@FCAIFSB   DS    A                   FSB address
 000004                             3466  1          =@FCAIACC   DS    CL(GRSZ)            Account
 00000A                             3467  1          =@FCAIUSE   DS    CL(GRSZ)            Signed on user (if different)
 000010                             3468  1          =@FCAIABK   DS    A                   Allocated blocks
 000014                             3469  1          =@FCAIUBK   DS    A                   Used blocks
 000018                00018 00018  3470             =         END   ,
0000000                00000 0003F  3480             =@FCFLIS  RECORD BEGIN              List file names
 000000                             3488  1          =@FCFLFSB   DS    A
 000004                             3489  1          =@FCFLLOC   DS    A                   Output location
 000008                             3490  1          =@FCFLLEN   DS    A                   Output location length
 00000C                             3491  1          =@FCFLCNT   DS    A                   Count of files listed
 000010 00                          3492  1          =@FCFLFLG   FLAG  ,
 @FCFLFLG.@FCFLCLP 80 ONES          3496  1          =           FLAG  @FCFLCLP            CLP request
 000011                             3501  1          =@FCFLUSE   DS    CL(GRSZ)            Account other than owner
 000017                             3502  1          =@FCFLNAM   DS    CL(CFSBFLSZ)        Start file name
 00003F                0003F 0003F  3503             =         END   ,
0000000                00000 00016  3513             =@FCALIS  RECORD BEGIN              List account names
 000000                             3521  1          =@FCALFSB   DS    A
 000004                             3522  1          =@FCALLOC   DS    A                   Output location
1FILECAT  (FILECA) (09:39) (22MAR04) ORVYL'S File Catalog Manager                                                           Page   33
0Loc    Object Code    Addr1 Addr2  Stmt Lv Lineno    Source Statement           (Hibal 5, Asmedit 3.3)  HLASM R4.0  2004/03/22 09.39
+___    ______ ____    _____ _____  ____ __ ______    ______ _________
0000008                             3523  1          =@FCALLEN   DS    A                   Output location length
 00000C                             3524  1          =@FCALCNT   DS    A                   Count of files listed
 000010                             3525  1          =@FCALNAM   DS    CL(GRSZ)            Start account name
 000016                00016 00016  3526             =         END   ,
0000000                00000 0000E  3536             =@FCACMOD RECORD BEGIN              Account modifications
 000000                             3544  1          =@FCACFSB   DS    A
 000004                             3545  1          =@FCACSPA   DS    F                   Space
 000008                             3546  1          =@FCACCNT   DS    CL(GRSZ)            Account
 00000E                0000E 0000E  3547             =         END   ,
0000000                00000 00034  3557             =@FCS111  RECORD BEGIN              Status 111, get acc or fil entry
 000000                             3565  1          =@FCS1FSB   DS    A
 000004                             3566  1          =@FCS1LOC   DS    A                   Output location
 000008                             3567  1          =@FCS1LEN   DS    A                   Output location length
 00000C                             3568  1          =@FCS1NAM   DS    CL(CFSBFLSZ)        Account or file name
 000034                00034 00034  3569             =         END   ,
0000000                00000 0004D  3579             =@FCRNAME RECORD BEGIN              Rename files
 000000                             3587  1          =@FCRNFSB   DS    A
 000004                             3588  1          =@FCRNAM1   DS    CL(CFSBFLSZ)        File name
 00002C                             3589  1          =@FCRNAM2   DS    CL(CFSBNMSZ)        New file name
 00004D                0004D 0004D  3590             =         END   ,
0000000                00000 0002C  3600             =@FCDLETE RECORD BEGIN              Rename files
 000000                             3608  1          =@FCDLFSB   DS    A
 000004                             3609  1          =@FCDLNAM   DS    CL(CFSBFLSZ)        File name
 00002C                0002C 0002C  3610             =         END   ,
0000000                00000 0003A  3620             =@FCUINFO RECORD BEGIN              Update File Info
 000000                             3628  1          =@FCUIFSB   DS    A
 000004                             3629  1          =@FCUINAM   DS    CL(CFSBFLSZ)        File name
 00002C                             3630  1          =@FCUINF    DS    CL(L'NTFUINFO)      User info
 000030                             3631  1          =@FCUIBLK   DS    F                   First block
 000034                             3632  1          =@FCUICNT   DS    F                   Block count
 000038 00                          3633  1          =@FCUIFLG   FLAG  ,
 @FCUIFLG.@FCUIUIN 80 ONES          3637  1          =           FLAG  @FCUIUIN            Update user info
 @FCUIFLG.@FCUIFRM 40 ONES          3642  1          =           FLAG  @FCUIFRM            Set format on
 @FCUIFLG.@FCUIOWN 20 ONES          3647  1          =           FLAG  @FCUIOWN            Update owner privileges
 @FCUIFLG.@FCUIPUB 10 ONES          3652  1          =           FLAG  @FCUIPUB            Update public privileges
 @FCUIFLG.@FCUISHR 08 ONES          3657  1          =           FLAG  @FCUISHR            Set share info
 @FCUIFLG.@FCUISHO 04 ONES          3662  1          =           FLAG  @FCUISHO            Set share on
 000039 00                          3667  1          =@FCUIFL2   FLAG  ,
 @FCUIFL2.@FCUINCL 80 ONES          3671  1          =           FLAG  @FCUINCL            Set NOCLP info
 @FCUIFL2.@FCUINCO 40 ONES          3676  1          =           FLAG  @FCUINCO            Set NOCLP on
 @FCUIFL2.@FCUICLP 20 ONES          3681  1          =           FLAG  @FCUICLP            Set CLP info
 @FCUIFL2.@FCUICLO 10 ONES          3686  1          =           FLAG  @FCUICLO            Set CLP on
 @FCUIFL2.@FCUISPI 08 ONES          3691  1          =           FLAG  @FCUISPI            Set Spires info
 @FCUIFL2.@FCUISPO 04 ONES          3696  1          =           FLAG  @FCUISPO            Set Spires on
 @FCUIFL2.@FCUIHYB 02 ONES          3701  1          =           FLAG  @FCUIHYB            Convert to hybrid
 @FCUIFL2.@FCUINEW 01 ONES          3706  1          =           FLAG  @FCUINEW            Set new first block
 00003A                0003A 0003A  3711             =         END   ,
1FILECAT  (FILECA) (09:39) (22MAR04) ORVYL'S File Catalog Manager                                                           Page   34
0Loc    Object Code    Addr1 Addr2  Stmt Lv Lineno    Source Statement           (Hibal 5, Asmedit 3.3)  HLASM R4.0  2004/03/22 09.39
+___    ______ ____    _____ _____  ____ __ ______    ______ _________
0                                   3722      33.              COPY  CHKPNT
                                    3723             =         PRINT OFF                     CHKPREC MACRO
0000000                00000 00008  3748             =CHKDSTK  RECORD BEGIN                  STACK ENTRY DEFINITIONS
 000000                             3756  1          =CHKSTBK    DS    AL(BL)                  BLOCK
 000002                             3757  1          =CHKSTNO    DS    AL(OL)                  NODE OFFSET
 000004                             3758  1          =CHKSTEO    DS    AL(OL)                  ENTRY OFFSET
 000006 00                          3759  1          =CHKSTFLG   FLAG  ,                       STACK FLAGS
 CHKSTFLG.CHKSTFOL 80 ONES          3763  1          =           FLAG  CHKSTFOLD               TRUE = This node is old
 000007                             3768  1          =           DS    X                       ** AVAILABLE **
 000008                00008 00008  3769             =         END   ,                       OF STACK ENTRY DEFINITIONS
-000000                00000 00640  3779             =CHKPNT   RECORD BEGIN                  CHECKPOINT CONTROL BLOCK
                                    3787  1          =CCHKSTK    EQU   7                       STACK DEPTH OF 7
                                    3788  1          =**
 000000                             3789  1          =CHKSTART   DS    0X                      START OF CHECKPOINT BLOCK
 000000                             3790  1          =CHKTIME    DS    D                       TIME OF WRITE ("STCK")
 000008                             3791  1          =CHKDWRT    DS    AL(BL)                  1ST DOUBLE WRITE BLOCK
 00000A                             3792  1          =CHKROOTB   DS    AL(BL)                  ROOT LOCATION (BLOCK)
 00000C                             3793  1          =CHKROOTN   DS    AL(OL)                  | (OFFSET)
 00000E                             3794  1          =CHKFBNO    DS    AL(BL)                  NUMBER OF FREE BLOCKS
 000010                             3795  1          =CHKFREB    DS    AL(BL)                  FIRST FREE BLOCK ADDRESS
 000012                             3796  1          =CHKNXDB    DS    AL(BL)                  NEXT AVAILABLE DATA BLOCK
                                    3797  1          =CHKANCH    EQU   CHKFREB,*-CHKFREB,C'R'  CHAIN ANCHORS
                                    3798  1          =CHKCHAIN   EQU   CHKFBNO,*-CHKFBNO,C'R'  CHAIN DATA
 000014                             3799  1          =           DS    2A
                                    3800  1          =*
                                    3801  1          =* CHECKPOINT SEARCH BLOCK
                                    3802  1          =*
 00001C                             3803  1          =CHKSFLG    DS    0X                      START OF FLAGS
 00001C 00                          3804  1          =CHKFLG     FLAG  ,                       REENTRANT FLAGS. 1/ATOMIC ACTION
 CHKFLG.CHKFACC    80 ONES          3808  1          =           FLAG  CHKFACC                 TRUE = Acc search; FALSE = File
 CHKFLG.CHKFMOD    40 ONES          3813  1          =           FLAG  CHKFMOD                 TRUE = Intent to modify entry
 CHKFLG.CHKFPER    20 ONES          3818  1          =           FLAG  CHKFPER                 Search for permits
 CHKFLG.CHKFINS    10 ONES          3823  1          =           FLAG  CHKFINS                 Insert in progress
 CHKFLG.CHKFDEL    08 ONES          3828  1          =           FLAG  CHKFDEL                 Delete in progress
 CHKFLG.CHKFLEAF   04 ONES          3833  1          =           FLAG  CHKFLEAF                Leaf is being operated on
 CHKFLG.CHKFLFTU   02 ONES          3838  1          =           FLAG  CHKFLFTU                Left sibling needs updating
 CHKFLG.CHKFRHTU   01 ONES          3843  1          =           FLAG  CHKFRHTU                Right sibling needs updating
 00001D 00                          3848  1          =CHKFLG2    FLAG  ,
 CHKFLG2.CHKFBAL   80 ONES          3852  1          =           FLAG  CHKFBAL                 Need to balance (NODBAL)
 CHKFLG2.CHKF3BAL  40 ONES          3857  1          =           FLAG  CHKF3BAL                Min 3 nodes in balance (NODBAL)
 CHKFLG2.CHKFDSRC  20 ONES          3862  1          =           FLAG  CHKFDSRC                Delete source of move (NODBAL)
 CHKFLG2.CHKFDLXT  10 ONES          3867  1          =           FLAG  CHKFDLXT                Del extended data area (NTRYCHG)
 CHKFLG2.CHKFINXT  08 ONES          3872  1          =           FLAG  CHKFINXT                Ins extended data area (NTRYCHG)
 CHKFLG2.CHKFXTAV  04 ONES          3877  1          =           FLAG  CHKFXTAV                Ext data block avail (NTRYCHG)
 CHKFLG2.CHKFNBLK  02 ONES          3882  1          =           FLAG  CHKFNBLK                New block on traverse
                                    3887  1          =CHKFLGS    EQU   CHKSFLG,*-CHKSFLG,C'R'
 00001E                             3888  1          =           DS    AL2                     ** AVAILABLE **
 000020                             3889  1          =CHKPT      DS    0X                      SEARCH POINTERS
 000020                             3890  1          =           CHKPREC PTRS=PAR              Parent pointers
 000020                             3894  1 01-03735 +CHKPARA    DS    A                       | Buffer address
 000024                             3895  1 01-03736 +CHKPARB    DS    AL(BL)                  | Block number
 000026                             3896  1 01-03737 +CHKPARN    DS    AL(OL)                  | Offset
 000028                             3900  1          =           CHKPREC PTRS=LFT              Left sibling pointers
1FILECAT  (FILECA) (09:39) (22MAR04) ORVYL'S File Catalog Manager                                                           Page   35
0Loc    Object Code    Addr1 Addr2  Stmt Lv Lineno    Source Statement           (Hibal 5, Asmedit 3.3)  HLASM R4.0  2004/03/22 09.39
+___    ______ ____    _____ _____  ____ __ ______    ______ _________
0000028                             3904  1 01-03735 +CHKLFTA    DS    A                       | Buffer address
 00002C                             3905  1 01-03736 +CHKLFTB    DS    AL(BL)                  | Block number
 00002E                             3906  1 01-03737 +CHKLFTN    DS    AL(OL)                  | Offset
 000030                             3910  1          =           CHKPREC PTRS=CUR              Current sibling pointers
 000030                             3914  1 01-03735 +CHKCURA    DS    A                       | Buffer address
 000034                             3915  1 01-03736 +CHKCURB    DS    AL(BL)                  | Block number
 000036                             3916  1 01-03737 +CHKCURN    DS    AL(OL)                  | Offset
 000038                             3920  1          =           CHKPREC PTRS=RHT              Right sibling pointers
 000038                             3924  1 01-03735 +CHKRHTA    DS    A                       | Buffer address
 00003C                             3925  1 01-03736 +CHKRHTB    DS    AL(BL)                  | Block number
 00003E                             3926  1 01-03737 +CHKRHTN    DS    AL(OL)                  | Offset
                                    3930  1          =CHKSPNT    EQU   CHKPT,*-CHKPT,C'R'      LEN OF SEARCH POINTERS
 000040                             3931  1          =           CHKPREC PTRS=NT               Entry pointers
 000040                             3935  1 01-03735 +CHKNTA     DS    A                       | Buffer address
 000044                             3936  1 01-03736 +CHKNTB     DS    AL(BL)                  | Block number
 000046                             3937  1 01-03737 +CHKNTN     DS    AL(OL)                  | Offset
 000048                             3941  1          =           CHKPREC PTRS=WRK              Work pointers
 000048                             3945  1 01-03735 +CHKWRKA    DS    A                       | Buffer address
 00004C                             3946  1 01-03736 +CHKWRKB    DS    AL(BL)                  | Block number
 00004E                             3947  1 01-03737 +CHKWRKN    DS    AL(OL)                  | Offset
 000050                             3951  1          =           CHKPREC PTRS=2WR              2nd work pointers
 000050                             3955  1 01-03735 +CHK2WRA    DS    A                       | Buffer address
 000054                             3956  1 01-03736 +CHK2WRB    DS    AL(BL)                  | Block number
 000056                             3957  1 01-03737 +CHK2WRN    DS    AL(OL)                  | Offset
 000058                             3961  1          =           CHKPREC PTRS=ACC              Account entry pointers
 000058                             3965  1 01-03735 +CHKACCA    DS    A                       | Buffer address
 00005C                             3966  1 01-03736 +CHKACCB    DS    AL(BL)                  | Block number
 00005E                             3967  1 01-03737 +CHKACCN    DS    AL(OL)                  | Offset
 000060                             3971  1          =           CHKPREC PTRS=BAL              Balance-Causing pointers
 000060                             3975  1 01-03735 +CHKBALA    DS    A                       | Buffer address
 000064                             3976  1 01-03736 +CHKBALB    DS    AL(BL)                  | Block number
 000066                             3977  1 01-03737 +CHKBALN    DS    AL(OL)                  | Offset
 000068                             3981  1          =           CHKPREC PTRS=SEQ              Sequential Access pointers
 000068                             3985  1 01-03735 +CHKSEQA    DS    A                       | Buffer address
 00006C                             3986  1 01-03736 +CHKSEQB    DS    AL(BL)                  | Block number
 00006E                             3987  1 01-03737 +CHKSEQN    DS    AL(OL)                  | Offset
 000070                             3991  1          =           CHKPREC PTRS=SEQE             Sequential Access Extended ptrs
 000070                             3995  1 01-03735 +CHKSEQEA   DS    A                       | Buffer address
 000074                             3996  1 01-03736 +CHKSEQEB   DS    AL(BL)                  | Block number
 000076                             3997  1 01-03737 +CHKSEQEN   DS    AL(OL)                  | Offset
                                    4001  1          =CHKAPNT    EQU   CHKPT,*-CHKPT,C'R'      LENGTH OF POINTERS
 000078                             4002  1          =CHKCHKA    DS    A                       POINTER TO RECOVERY CHECKPOINT
 00007C                             4003  1          =CHKBSAD    DS    A                       BALANCE WORK AREA - SOURCE ADDR
 000080                             4004  1          =CHKBDAD    DS    A                       | DESTINATION ADDR
 000084                             4005  1          =CHKBLAD    DS    A                       | LEFT ADDR
 000088                             4006  1          =CHKBCAD    DS    A                       | CURRENT ADDR
 00008C                             4007  1          =CHKBRAD    DS    A                       | RIGHT ADDR
 000090                             4008  1          =CHKBLPA    DS    A                       | LEFT PARENT ADDR
 000094                             4009  1          =CHKBRPA    DS    A                       | RIGHT PARENT ADDR
 000098                             4010  1          =CHKBNPA    DS    A                       | NEW PARENT ADDR
 00009C                             4011  1          =CHKBSLN    DS    Y                       | SOURCE LEN
 00009E                             4012  1          =CHKBSN     DS    Y                       | SOURCE NUMBER OF ENTRYS
 0000A0                             4013  1          =CHKBDLN    DS    Y                       | DESTINATION LEFT LEN
 0000A2                             4014  1          =CHKBLLN    DS    Y                       | LEFT LEN
 0000A4                             4015  1          =CHKBCLN    DS    Y                       | CURRENT LEN
 0000A6                             4016  1          =CHKBRLN    DS    Y                       | RIGHT LEN
1FILECAT  (FILECA) (09:39) (22MAR04) ORVYL'S File Catalog Manager                                                           Page   36
0Loc    Object Code    Addr1 Addr2  Stmt Lv Lineno    Source Statement           (Hibal 5, Asmedit 3.3)  HLASM R4.0  2004/03/22 09.39
+___    ______ ____    _____ _____  ____ __ ______    ______ _________
00000A8                             4017  1          =CHKBLPL    DS    Y                       | LEFT PARENT LEN
 0000AA                             4018  1          =CHKBRPL    DS    Y                       | RIGHT PARENT LEN
 0000AC                             4019  1          =CHKBNPL    DS    Y                       | NEW PARENT LEN
 0000AE                             4020  1          =CHKSPAC    DS    Y                       | SPACE IN BALANCE
 0000B0                             4021  1          =CHKNODN    DS    Y                       | NUM OF NODES IN BALANCE
 0000B4                             4022  1          =           DS    4A
 0000C4                             4023  1          =CHKFNMSZ   DS    X                       NAME LEN
 0000C5                             4024  1          =CHKFNAME   DS    CL(CFSBNDOT)            ACTUAL NAME (NO DOTS)
 0000EB                             4025  1          =           DS    0SL2(CHKFNAME-CHKFNMSZ-1,CHKFNMSZ-(CHKFNAME-1))
 0000EB                             4026  1          =CHKFRNMS   DS    X                       RENAME LEN
 0000EC                             4027  1          =CHKFRNAM   DS    CL(CFSBNDOT)            ACTUAL RENAME (NO DOTS)
 000112                             4028  1          =           DS    0SL2(CHKFRNAM-CHKFRNMS-1,CHKFRNMS-(CHKFRNAM-1))
 000112                             4029  1          =CHKFIX     DS    0X
                                    4030  1          =*
                                    4031  1          =* VARIABLE INTENTIONS INDICATORS
                                    4032  1          =*
 000112                             4033  1          =CHKISTRT   DS    0H                      START OF INTENTIONS BLOCK
 000112                             4034  1          =CHKITYPE   DS    X                       Type of transaction taking place
 000113                             4035  1          =CHKIFLG    DS    X                       FLAG
 000114                             4036  1          =CHKIFBNO   DS    AL(BL)                  Old_Free_Block_Num
 000116                             4037  1          =CHKIFREB   DS    AL(BL)                  Old_Free_Block
 000118                             4038  1          =CHKINXDB   DS    AL(BL)                  Old_Next_Leaf_Block
                                    4039  1          =CHKICHAN   EQU   CHKIFBNO,*-CHKIFBNO,C'R'         Old_Chain_Data
 00011A                             4040  1          =CHKIVAR    DS    0X                      START OF VAR INTENTIONS FIELD
                                    4041  1          =*
                                    4042  1          =* Insert Tree Root
 00011A                0011A 0011A  4043  1          =           ORG   CHKIVAR
                                    4044  1          =CCHKRTIN   EQU   4                       TRANSACTION TYPE (Insert root)
                                    4045  1          =* Entrys are the same as Entry Insert
                                    4046  1          =*
                                    4047  1          =* Delete Tree Root
 00011A                0011A 0011A  4048  1          =           ORG   CHKIVAR
                                    4049  1          =CCHKRTDL   EQU   8                       TRANSACTION TYPE (Delete root)
                                    4050  1          =* Entrys are the same as Entry Delete
                                    4051  1          =*
                                    4052  1          =* Split Root Node
 00011A                0011A 0011A  4053  1          =           ORG   CHKIVAR
                                    4054  1          =CCHKRTSP   EQU   12                      TRANSACTION TYPE (Split root)
 00011A                             4055  1          =CHKIRSPB   DS    AL(BL)                  Root_Split-Parent_Block
 00011C                             4056  1          =CHKIRSPN   DS    AL(OL)                  Root_Split-Parent_Node_Offset
 00011E                             4057  1          =CHKIRSLB   DS    AL(BL)                  Root_Split-Left_Block
 000120                             4058  1          =CHKIRSLN   DS    AL(OL)                  Root_Split-Left_Node_Offset
 000122                             4059  1          =CHKIRSCB   DS    AL(BL)                  Root_Split-Cur_Block
 000124                             4060  1          =CHKIRSCN   DS    AL(OL)                  Root_Split-Cur_Node_Offset
                                    4061  1          =*
                                    4062  1          =* Collapse Root Node
 000126                00126 0011A  4063  1          =           ORG   CHKIVAR
                                    4064  1          =CCHKRTCL   EQU   16                      TRANSACTION TYPE (Collapse root)
 00011A                             4065  1          =CHKIRCPB   DS    AL(BL)                  Root_Collapse-Parent_Block
 00011C                             4066  1          =CHKIRCPN   DS    AL(OL)                  Root_Collapse-Parent_Node_Offset
 00011E                             4067  1          =CHKIRCLB   DS    AL(BL)                  Root_Collapse-Left_Block
 000120                             4068  1          =CHKIRCLN   DS    AL(OL)                  Root_Collapse-Left_Node_Offset
 000122                             4069  1          =CHKIRCCB   DS    AL(BL)                  Root_Collapse-Cur_Block
 000124                             4070  1          =CHKIRCCN   DS    AL(OL)                  Root_Collapse-Cur_Node_Offset
                                    4071  1          =*
                                    4072  1          =* Balance nodes (No Insert or Delete)
1FILECAT  (FILECA) (09:39) (22MAR04) ORVYL'S File Catalog Manager                                                           Page   37
0Loc    Object Code    Addr1 Addr2  Stmt Lv Lineno    Source Statement           (Hibal 5, Asmedit 3.3)  HLASM R4.0  2004/03/22 09.39
+___    ______ ____    _____ _____  ____ __ ______    ______ _________
0000126                00126 0011A  4073  1          =           ORG   CHKIVAR
                                    4074  1          =CCHKNBAL   EQU   20                      TRANSACTION TYPE (Balance nodes)
 00011A                             4075  1          =CHKINBPB   DS    AL(BL)                  Node_Balance-Parent_Block
 00011C                             4076  1          =CHKINBPN   DS    AL(OL)                  Node_Balance-Parent_Node_Offset
 00011E                             4077  1          =CHKINBPC   DS    XL(4-BL)                Node_Balance-Parent_Clock_Tag
 000120                             4078  1          =CHKINBLB   DS    AL(BL)                  Node_Balance-Left_Block
 000122                             4079  1          =CHKINBLN   DS    AL(OL)                  Node_Balance-Left_Node_Offset
 000124                             4080  1          =CHKINBCB   DS    AL(BL)                  Node_Balance-Current_Block
 000126                             4081  1          =CHKINBCN   DS    AL(OL)                  Node_Balance-Current_Node_Offset
 000128                             4082  1          =CHKINBRB   DS    AL(BL)                  Node_Balance-Right_Block
 00012A                             4083  1          =CHKINBRN   DS    AL(OL)                  Node_Balance-Right_Node_Offset
                                    4084  1          =*
                                    4085  1          =* Balance nodes (With Insert)
 00012C                0012C 0011A  4086  1          =           ORG   CHKIVAR
                                    4087  1          =CCHKBINS   EQU   24                      TRANSACTION TYPE (Balance - ins)
 00011A                             4088  1          =CHKIBIPB   DS    AL(BL)                  Balance_Insert-Parent_Block
 00011C                             4089  1          =CHKIBIPN   DS    AL(OL)                  Balance_Ins-Parent_Node_Offset
 00011E                             4090  1          =CHKIBIPC   DS    XL(4-BL)                Balance_Insert-Parent_Clock_Tag
 000120                             4091  1          =CHKIBILB   DS    AL(BL)                  Balance_Insert-Left_Block
 000122                             4092  1          =CHKIBILN   DS    AL(OL)                  Balance_Insert-Left_Node_Offset
 000124                             4093  1          =CHKIBICB   DS    AL(BL)                  Balance_Insert-Current_Block
 000126                             4094  1          =CHKIBICN   DS    AL(OL)                  Balance_Ins-Current_Node_Offset
 000128                             4095  1          =CHKIBIRB   DS    AL(BL)                  Balance_Insert-Right_Block
 00012A                             4096  1          =CHKIBIRN   DS    AL(OL)                  Balance_Insert-Right_Node_Offset
 00012C                             4097  1          =CHKIBIRC   DS    XL(4-BL)                Balance_Ins-Right_Clock_Tag
                                    4098  1          =*
                                    4099  1          =* Balance nodes (With Delete)
 00012E                0012E 0011A  4100  1          =           ORG   CHKIVAR
                                    4101  1          =CCHKBDEL   EQU   28                      TRANSACTION TYPE (Balance - del)
 00011A                             4102  1          =CHKIBDPB   DS    AL(BL)                  Balance_Delete-Parent_Block
 00011C                             4103  1          =CHKIBDPN   DS    AL(OL)                  Balance_Del-Parent_Node_Offset
 00011E                             4104  1          =CHKIBDPC   DS    XL(4-BL)                Balance_Delete-Parent_Clock_Tag
 000120                             4105  1          =CHKIBDLB   DS    AL(BL)                  Balance_Delete-Left_Block
 000122                             4106  1          =CHKIBDLN   DS    AL(OL)                  Balance_Delete-Left_Node_Offset
 000124                             4107  1          =CHKIBDCB   DS    AL(BL)                  Balance_Delete-Current_Block
 000126                             4108  1          =CHKIBDCN   DS    AL(OL)                  Balance_Del-Current_Node_Offset
 000128                             4109  1          =CHKIBDOB   DS    AL(BL)                  Balance_Delete-Old(Del)_Block
 00012A                             4110  1          =CHKIBDON   DS    AL(OL)                  Balance_Del-Old(Del)_Node_Offset
 00012C                             4111  1          =CHKIBDOC   DS    XL(4-BL)                Balance_Delete-Old_Clock_Tag
                                    4112  1          =*
                                    4113  1          =* Modify Entry
                                    4114  1          =*   Current, Old, and New fields should be the same for Mod, Ins, and
                                    4115  1          =* Del entry
 00012E                0012E 0011A  4116  1          =           ORG   CHKIVAR
                                    4117  1          =CCHKNTRY   EQU   32                      TRANSACTION TYPE (Entry Mods)
 00011A                             4118  1          =CHKINTCB   DS    AL(BL)                  Entry-Current_Block
 00011C                             4119  1          =CHKINTCN   DS    AL(OL)                  Entry-Current_Node_Offset
 00011E                             4120  1          =CHKINTCT   DS    AL(OL)                  Entry-Current_enTry_Offset
 000120                             4121  1          =CHKINTCL   DS    AL(BL)                  Entry-Current_Link
 000122                             4122  1          =CHKINTCC   DS    XL(4-BL)                Entry-Current_Clock_Tag
 000124                             4123  1          =CHKINTOB   DS    AL(BL)                  Entry-Old_Data_Block
 000126                             4124  1          =CHKINTON   DS    AL(OL)                  Entry-Old_Data_Offset
 000128                             4125  1          =CHKINTOL   DS    AL(BL)                  Entry-Old_Data_Block_Link
 00012A                             4126  1          =CHKINTOC   DS    XL(4-BL)                Entry-Old_Data_Clock_Tag
 00012C                             4127  1          =CHKINTOF   DS    X                       Entry-Old_Data_Block_Flags
 00012D                             4128  1          =           DS    X
1FILECAT  (FILECA) (09:39) (22MAR04) ORVYL'S File Catalog Manager                                                           Page   38
0Loc    Object Code    Addr1 Addr2  Stmt Lv Lineno    Source Statement           (Hibal 5, Asmedit 3.3)  HLASM R4.0  2004/03/22 09.39
+___    ______ ____    _____ _____  ____ __ ______    ______ _________
000012E                             4129  1          =CHKINTNB   DS    AL(BL)                  Entry-New_Data_Block
 000130                             4130  1          =CHKINTNN   DS    AL(OL)                  Entry-New_Data_Offset
 000132                             4131  1          =CHKINTNL   DS    AL(BL)                  Entry-New_Data_Block_Link
 000134                             4132  1          =CHKINTNC   DS    XL(4-BL)                Entry-New_Data_Clock_Tag
 000136                             4133  1          =CHKINTNF   DS    X                       Entry-New_Data_Block_Flags
                                    4134  1          =*
                                    4135  1          =* Insert Entry
                                    4136  1          =*   Current, Old, and New fields should be the same for Mod, Ins, and
                                    4137  1          =* Del entry
 000137                00137 0011A  4138  1          =           ORG   CHKIVAR
                                    4139  1          =CCHKNTIN   EQU   36                      TRANSACTION TYPE (Insert Entry)
 00011A                             4140  1          =CHKINICB   DS    AL(BL)                  Entry_Insert-Current_Block
 00011C                             4141  1          =CHKINICN   DS    AL(OL)                  Entry_Ins-Current_Node_Offset
 00011E                             4142  1          =CHKINICT   DS    AL(OL)                  Entry_Ins-Current_enTry_Offset
 000120                             4143  1          =CHKINICL   DS    AL(BL)                  Entry_Insert-Current_Link
 000122                             4144  1          =CHKINICC   DS    XL(4-BL)                Entry_Insert-Cur_Clock_Tag
 000124                             4145  1          =CHKINIOB   DS    AL(BL)                  Entry_Insert-Old_Data_Block
 000126                             4146  1          =CHKINION   DS    AL(OL)                  Entry_Insert-Old_Data_Offset
 000128                             4147  1          =CHKINIOL   DS    AL(BL)                  Entry_Insert-Old_Data_Block_Link
 00012A                             4148  1          =CHKINIOC   DS    XL(4-BL)                Entry_Insert-Old_Data_Clock_Tag
 00012C                             4149  1          =CHKINIOF   DS    X                       Entry_Ins-Old_Data_Block_Flags
 00012D                             4150  1          =           DS    X
 00012E                             4151  1          =CHKININB   DS    AL(BL)                  Entry_Insert-New_Data_Block
 000130                             4152  1          =CHKININN   DS    AL(OL)                  Entry_Insert-New_Data_Offset
 000132                             4153  1          =CHKININL   DS    AL(BL)                  Entry_Insert-New_Data_Block_Link
 000134                             4154  1          =CHKININC   DS    XL(4-BL)                Entry_Insert-New_Data_Clock_Tag
 000136                             4155  1          =CHKININF   DS    X                       Entry_Ins-New_Data_Block_Flags
 000137                             4156  1          =           DS    X
 000138                             4157  1          =CHKINIAB   DS    AL(BL)                  Entry_Ins-Acc_Entry_Blk (Files)
 00013A                             4158  1          =CHKINIAN   DS    AL(OL)                  Entry_Ins-Acc_Entry_Node_Offset|
 00013C                             4159  1          =CHKINIAC   DS    XL(4-BL)                Entry_Ins-Acc_Entry_Clock_Tag
                                    4160  1          =*
                                    4161  1          =* Delete Entry
                                    4162  1          =*   Current, Old, and New fields should be the same for Mod, Ins, and
                                    4163  1          =* Del entry
 00013E                0013E 0011A  4164  1          =           ORG   CHKIVAR
                                    4165  1          =CCHKNTDL   EQU   40                      TRANSACTION TYPE (Delete Entry)
 00011A                             4166  1          =CHKINDCB   DS    AL(BL)                  Entry_Delete-Current_Block
 00011C                             4167  1          =CHKINDCN   DS    AL(OL)                  Entry_Delete-Current_Node_Offset
 00011E                             4168  1          =CHKINDCT   DS    AL(OL)                  Entry_Del-Current_enTry_Offset
 000120                             4169  1          =CHKINDCL   DS    AL(BL)                  Entry_Delete-Current_Link
 000122                             4170  1          =CHKINDCC   DS    XL(4-BL)                Entry_Delete-Current_Clock_Tag
 000124                             4171  1          =CHKINDOB   DS    AL(BL)                  Entry_Delete-Old_Data_Block
 000126                             4172  1          =CHKINDON   DS    AL(OL)                  Entry_Delete-Old_Data_Offset
 000128                             4173  1          =CHKINDOL   DS    AL(BL)                  Entry_Del-Old_Data_Block_Link
 00012A                             4174  1          =CHKINDOC   DS    XL(4-BL)                Entry_Delete-Old_Data_Clock_Tag
 00012C                             4175  1          =CHKINDOF   DS    X                       Entry_Del-Old_Data_Block_Flags
 00012D                             4176  1          =           DS    X
 00012E                             4177  1          =CHKINDNB   DS    AL(BL)                  Entry_Delete-New_Data_Block
 000130                             4178  1          =CHKINDNN   DS    AL(OL)                  Entry_Delete-New_Data_Offset
 000132                             4179  1          =CHKINDNL   DS    AL(BL)                  Entry_Del-New_Data_Block_Link
 000134                             4180  1          =CHKINDNC   DS    XL(4-BL)                Entry_Delete-New_Data_Clock_Tag
 000136                             4181  1          =CHKINDNF   DS    X                       Entry_Del-New_Data_Block_Flags
 000137                             4182  1          =           DS    X
 000138                             4183  1          =CHKINDAB   DS    AL(BL)                  Entry_Del-Account_Entry_Block
 00013A                             4184  1          =CHKINDAN   DS    AL(OL)                  Entry_Del-Account_Entry__Offset
1FILECAT  (FILECA) (09:39) (22MAR04) ORVYL'S File Catalog Manager                                                           Page   39
0Loc    Object Code    Addr1 Addr2  Stmt Lv Lineno    Source Statement           (Hibal 5, Asmedit 3.3)  HLASM R4.0  2004/03/22 09.39
+___    ______ ____    _____ _____  ____ __ ______    ______ _________
000013C                             4185  1          =CHKINDAC   DS    XL(4-BL)                Entry_Delete-Account_Clock_Tag
 00013E                             4186  1          =CHKIND2B   DS    AL(BL)                  Entry_Del-2nd_Entry_Block (Leaf)
 000140                             4187  1          =CHKIND2N   DS    AL(OL)                  Entry_Del-2nd_Entry_Node_Offset
 000142                             4188  1          =CHKIND2C   DS    XL(4-BL)                Entry_Del-2nd_Entry_Clock_Tag
                                    4189  1          =**
 000144                00144 00144  4190  1          =           ORG   ,
 000144                             4191  1          =           DS    4A
                                    4192  1          =CHKIV1LN   EQU   CHKIVAR,*-CHKIVAR,C'N'
                                    4193  1          =CHKIVLV1   EQU   CHKISTRT,*-CHKISTRT,C'R'         1ST VAR INTENTIONS BLK
-000154                             4195  1          =CHKI2ST    DS    0X                      START OF 2ND LEVEL OF INTENTIONS
 000154                             4196  1          =CHKI2TYP   DS    X                       Type of transaction taking place
 000155                             4197  1          =CHKI2FLG   DS    X                       FLAG
 000156                             4198  1          =CHKI2VAR   DS    0X
                                    4199  1          =*
                                    4200  1          =* Balance leaves after non-leaf delete
                                    4201  1          =CCHKDBAL   EQU   4                       TRANSACTION TYPE (Bal after del)
 000156                             4202  1          =CHKIDBAB   DS    AL(BL)                  Delete_Balance-Account_Block
 000158                             4203  1          =CHKIDBAN   DS    AL(OL)                  Delete_Balance-Account_Offset
 00015A                             4204  1          =CHKIDBAS   DS    H                       Del_Balance-Acc_Stack_Pointer
 00015C                             4205  1          =CHKIDBSZ   DS    X                       Delete_Balance-Entry_Name_Size
 00015D                             4206  1          =CHKIDBNM   DS    CL(CFSBNDOT)            Delete_Balance-Entry_Name
 000184                             4207  1          =           DS    4A
                                    4208  1          =CHKIV2LN   EQU   CHKI2VAR,*-CHKI2VAR,C'N'
                                    4209  1          =CHKIVLV2   EQU   CHKISTRT,*-CHKISTRT,C'R'         2ND VAR INTENTIONS BLK
-000194                             4211  1          =CHKI3ST    DS    0X                      START OF 3rd LEVEL OF INTENTIONS
 000194                             4212  1          =CHKI3TYP   DS    X                       Type of transaction taking place
 000195                             4213  1          =CHKI3FLG   DS    X                       FLAG
 000196                             4214  1          =CHKI3VAR   DS    0X
                                    4215  1          =*
                                    4216  1          =* Rename entry
                                    4217  1          =CCHKREN    EQU   4                       TRANSACTION TYPE (Rename entry)
                                    4218  1          =CCHKBREN   EQU   8                       | (Backup Rename - NMR)
 000196                             4219  1          =CHKIERAB   DS    AL(BL)                  Entry_Rename-Account_Block
 000198                             4220  1          =CHKIERAN   DS    AL(OL)                  Entry_Rename-Account_Offset
 00019A                             4221  1          =CHKIERAS   DS    H                       Entry_Rename-Acc_Stack_Pointer
 00019C                             4222  1          =CHKIERCB   DS    AL(BL)                  Entry_Rename-Cur_Block
 00019E                             4223  1          =CHKIERCN   DS    AL(OL)                  Entry_Rename-Cur_Node_Offset
 0001A0                             4224  1          =CHKIERCT   DS    AL(OL)                  Entry_Rename-Cur_enTry_Offset
 0001A2 00                          4225  1          =CHKIERFL   FLAG  ,                       Entry_Rename-Flag
 CHKIERFL.RENLEAF  80 ONES          4229  1          =           FLAG  RENLEAF                 Entry_Rename-Flag-Leaf_Rename
 CHKIERFL.RENRTDL  40 ONES          4234  1          =           FLAG  RENRTDL                 Entry_Rename-Flag-Root_Delete
 0001A3                             4239  1          =CHKIEROS   DS    X                       Entry_Rename-Old_entry_Name_Size
 0001A4                             4240  1          =CHKIERON   DS    CL(CFSBNDOT)            Entry_Rename-Old_entry_Name
 0001CA                             4241  1          =           DS    0SL2(CHKIERON-CHKIEROS-1,CHKIEROS-(CHKIERON-1))
 0001CA                             4242  1          =CHKIERNS   DS    X                       Entry_Rename-New_entry_Name_Size
 0001CB                             4243  1          =CHKIERNN   DS    CL(CFSBNDOT)            Entry_Rename-New_entry_Name
 0001F1                             4244  1          =           DS    0SL2(CHKIERNN-CHKIERNS-1,CHKIERNS-(CHKIERNN-1))
 0001F4                             4245  1          =           DS    4A
                                    4246  1          =CHKIV3LN   EQU   CHKI3VAR,*-CHKI3VAR,C'N'
                                    4247  1          =CHKIVLV3   EQU   CHKISTRT,*-CHKISTRT,C'R'         3rd VAR INTENTIONS BLK
 000204                             4248  1          =           DS    0F
 000204                             4249  1          =CHKINTRY   DS    512X                    Space for largest ntry (fil/acc)
1FILECAT  (FILECA) (09:39) (22MAR04) ORVYL'S File Catalog Manager                                                           Page   40
0Loc    Object Code    Addr1 Addr2  Stmt Lv Lineno    Source Statement           (Hibal 5, Asmedit 3.3)  HLASM R4.0  2004/03/22 09.39
+___    ______ ____    _____ _____  ____ __ ______    ______ _________
0000404                             4250  1          =           DS                            0F
 000404                             4251  1          =CHKIRNT    DS    512X                    |
 000604                             4252  1          =           DS    0SL2(512-CFSBMXNT)
                                    4253  1          =*
                                    4254  1          =*        Tree traversal stack
                                    4255  1          =*
 000604                             4256  1          =CHKACSP    DS    H                       CUR ACCOUNT STACK POINTER
 000606                             4257  1          =CHKSTKP    DS    H                       STACK POINTER
                                    4258  1          =&CHKDST    SETA  L'CHKDSTK               | ROOM FOR 'CCHKSTK' ENTRYS
                                    4259  1          =CHKSTAK    DS    (CCHKSTK)XL(&CHKDST)    |
 000608                                   1          +CHKSTAK    DS    (CCHKSTK)XL(8)          |
 000640                00640 00640  4260             =         END   ,                       OF CHECKPOINT RECORD
1FILECAT  (FILECA) (09:39) (22MAR04) ORVYL'S File Catalog Manager                                                           Page   41
0Loc    Object Code    Addr1 Addr2  Stmt Lv Lineno    Source Statement           (Hibal 5, Asmedit 3.3)  HLASM R4.0  2004/03/22 09.39
+___    ______ ____    _____ _____  ____ __ ______    ______ _________
0000000                00000 0000F  4270      35.     @LOCMEME RECORD BEGIN              Locate member entry
 000000                             4278  1   36.     @LOCMEMN   DS    A
 000004                             4279  1   37.     @LOCMEMP   DS    A                   Return permits pointer
 000008                             4280  1   38.     @LOCMEMA   DS    CL6
 00000E 00                          4281  1   39.     @LOCMEMF   FLAG  ,
 @LOCMEMF.@LOCMFF  80 ONES          4285  1   40.                FLAG  @LOCMFF             File entry
 @LOCMEMF.@LOCMFA  40 ONES          4290  1   41.                FLAG  @LOCMFA             Account entry
 00000F                0000F 0000F  4295      42.              END   ,
0000000                00000 0000B  4305      44.     @LOCPERM RECORD BEGIN              Locate permits
 000000                             4313  1   45.     @LOCNTRY   DS    A
 000004                             4314  1   46.     @LOCACC    DS    CL6
 00000A 00                          4315  1   47.     @LOCFLG    FLAG  ,
 @LOCFLG.@LOCFF    80 ONES          4319  1   48.                FLAG  @LOCFF              File entry
 @LOCFLG.@LOCFA    40 ONES          4324  1   49.                FLAG  @LOCFA              Account entry
 00000B                0000B 0000B  4329      50.              END   ,
0                                   4339      52.              MACRO ,
                                    4340      53.     &L       LOCAP &NAME
                                    4341      54.     &L       PSET  @LOCPERM
                                    4342      55.              PMOV  @LOCNTRY,LA:NTRY
                                    4343      56.              PMOV  @LOCACC,&NAME
                                    4344      57.              SET   @LOCFA              Account entry
                                    4345      58.              ACALL LOCPERM             Get permits
                                    4346      59.              MEND  ,
0                                   4348      61.              MACRO ,
                                    4349      62.     &L       LOCFP &NAME
                                    4350      63.     &L       PSET  @LOCPERM
                                    4351      64.              PMOV  @LOCNTRY,LA:NTRY
                                    4352      65.              PMOV  @LOCACC,&NAME
                                    4353      66.              SET   @LOCFF              File entry
                                    4354      67.              ACALL LOCPERM             Get permits
                                    4355      68.              MEND  ,
0                                   4357      70.              MACRO ,
                                    4358      71.     &L       CATCALL &TYPE             Interface to VCAT
                                    4359      72.     &L       ST    SPR,RQBLWR2         Save our stack pointer
                                    4360      73.              IF    (RQBLWR3,Z),'LA SPR,RQBLSAV' Point to VCAT stack
                                    4361      74.              ELSE  'L SPR,RQBLWR3'     Reset VCAT stack pointer
                                    4362      75.              LA    RA,KAT&TYPE         Set function code
                                    4363      76.              LA    RK,RQBL             Set VCAT RQBL pointer
                                    4364      77.              L     RN,=V(VCATENT)      VCAT entry point
                                    4365      78.              LR    BRR,BR              Save our base reg
                                    4366      79.              LR    BR,RB               Set VCAT FSB pointer
                                    4367      80.              BASR  RN,RN               Go to VCAT
                                    4368      81.              LR    RB,BR               Reset FSB pointer
                                    4369      82.              LR    BR,BRR              restore base
                                    4370      83.              ST    SPR,RQBLWR3         Save VCAT stack pointer
                                    4371      84.              L     SPR,RQBLWR2         Reset our stack pointer
                                    4372      85.              LTR   RVR,R15
                                    4373      86.              MEND  ,
                                    4374      87.              GENCAT CONST
                                    4385    01-GENCA +KATLOOK  EQU    0,0,C'N'
                                    4386    01-GENCA +*,          Inspect/Change Entry
                                    4387    01-GENCA +KATINS   EQU    2,2,C'N'
1FILECAT  (FILECA) (09:39) (22MAR04) ORVYL'S File Catalog Manager                                                           Page   42
0Loc    Object Code    Addr1 Addr2  Stmt Lv Lineno    Source Statement           (Hibal 5, Asmedit 3.3)  HLASM R4.0  2004/03/22 09.39
+___    ______ ____    _____ _____  ____ __ ______    ______ _________
0                                   4388    01-GENCA +*,          Insert Entry
                                    4389    01-GENCA +KATDEL   EQU    4,4,C'N'
                                    4390    01-GENCA +*,          Delete Entry
                                    4391    01-GENCA +KATLIS   EQU    6,6,C'N'
                                    4392    01-GENCA +*,          List Entrys
                                    4393    01-GENCA +KATRENAM EQU    8,8,C'N'
                                    4394    01-GENCA +*,          Rename
                                    4395    01-GENCA +KATSEQ   EQU    10,10,C'N'
                                    4396    01-GENCA +*,          Sequential Access
                                    4397    01-GENCA +KATCONT  EQU    12,12,C'N'
                                    4398    01-GENCA +*,          Continue operation
                                    4399    01-GENCA +KATREC   EQU    14,14,C'N'
                                    4400    01-GENCA +*,          Checkpoint Recovery
 000016                00000 03048  4403      88.     FILECAT  CSECT ,
                                    4405      89.     *---------------------------------------------------------------------*
                                    4406      90.     *  FILECAT - File system catalog manager
                                    4407      91.     *
                                    4408      92.     *   This module handles all catalog processing requests. It is part
                                    4409      93.     *   of the file system rewrite. The actual catalog access is still
                                    4410      94.     *   done in VCAT which is a module from the old file system. VCAT is
                                    4411      95.     *   not being rewritten at this time. The interface to VCAT is done
                                    4412      96.     *   with many registers and a dummy RQBL which is the file request
                                    4413      97.     *   block from the old file system. VCAT is also used in the offline
                                    4414      98.     *   catalog rebuild process. It is not being rewritten because of the
                                    4415      99.     *   size of the task, especially verifying it still works the same both
                                    4416     100.     *   online and offline.
                                    4417     101.     *
                                    4418     102.     *---------------------------------------------------------------------*
1FILECAT  (FILECA) (09:39) (22MAR04) ORVYL'S File Catalog Manager                                                           Page   43
0Loc    Object Code    Addr1 Addr2  Stmt Lv Lineno    Source Statement           (Hibal 5, Asmedit 3.3)  HLASM R4.0  2004/03/22 09.39
+___    ______ ____    _____ _____  ____ __ ______    ______ _________
0                                   4420     104.     *---------------------------------------------------------------------*
                                    4421     105.     *  FCATNPRM - Attach processing for a new file
                                    4422     106.     *
                                    4423     107.     *   Inputs - @FCPERM
                                    4424     108.     *
                                    4425     109.     *   Output - RVR eq 0, @ACCPERM set to the permits for user
                                    4426     110.     *            Otherwise RVR contains the user return code
                                    4427     111.     *---------------------------------------------------------------------*
 000000                00000 000E0  4428     112.     #FCPERM  RECORD BEGIN
 000000                             4436  1  113.     #FCPRQBL   DS    CL(L'RQBL)
 0000D8                             4437  1  114.     #FCPTOD    DS    D
 0000E0                000E0 000E0  4438     115.              END   ,
0000016                             4448     117.     FCATNPRM PROC  @FCPERM,#FCPERM,SCOPE=GLOBAL
 000016 C6C3C1E3D5D7D9D4            4454             +
 00001E 0040/00E0                   4455             +
 000022 900F D004/18AF       00004  4457             +
 USING  FCATNPRM,R10
 000028 50D0 C000/18CD       00000  4472             +
 00002E 9680 C000      00000        4474             +
 USING  @FCPERM-72,R12
 AUSING (#FCPERM,@FCPERM+64)
 000032 41D0 C168            00168  4493             +
0000036 5830 C048            00000  4495     119.              L     RB,@FCPFSB          Address FSB
 USING  FSB,R3                      4496     120.              WITH  (FSB,RB)
 USING  NTRYGR,R4                   4509     121.              WITH  (NTRYGR,RJ)         Entry pointer returned by VCAT
 AUSING (RQBL,#FCPRQBL)             4522     122.              WITH  (RQBL,#FCPRQBL)
 USING  @GRES-72,R13                4529     123.              GRGET RID=FSBCGRI,EXCL=YES Get catalog hold
 00003A D708 D048 D048 00000 00000  4547             +
 000040 D203 D04C 3028 00004 00028  4552             +
 000046 9680 D050      00008        4558             +
 00004A 9640 D050      00008        4564             +
 00004E 58F0 A606/0DEF       00628  4567             +
 000054                             4569     124.              CLEAR RQBL                Set up old block for VCAT
 000054 D7D3 C088 C088 00000 00000  4575             +
 00005A D203 C088 A60A 00000 0062C  4576     125.              MVC   RQBLRQBL,=CL4'RQBL'
0000060 D203 C10C A60E 00084 00630  4578     127.              MVC   RQBLNAME+L'RQBLNAME-4(4),=CL4' '
 000066 D227 C0E4 C05B 0005C 00013  4579     128.              MVC   RQBLNAME(L'RQBLNAME-4),@FCPNAME
 00006C 1BFF                        4580     129.              CLEAR R15                 No length modify
 00006E 1BEE                        4584     130.              CLEAR R14                 No permits
 000070 9180 C054      0000C        4588     131.              IF    ~@FCPFMAG,'LA R14,1' Permits
 000074 4710 A05A            0007C  4598             +
 000078 41E0 0001            00001  4604             +
 00007C 4100 0000            00000  4609     132.              LA    R0,ACCMODE          Indicate account locate
 000080 50D0 C0A8            00020  4610     133.              CATCALL LOOK              Locate account
 000084 D603 C0AC C0AC 00024 00024  4622             +
 00008A 4770 A070            00092  4623             +
 00008E 41D0 C120            00098  4629             +
 00008C A074           0008E 00092  4637             +
 000092 47F0 A078            0009A  4639             +
 000096 58D0 C0AC            00024  4646             +
 00009A 4120 0000            00000  4651             +
 00009E 4150 C088            00000  4652             +
 0000A2 5890 A612/18BA       00634  4653             +
1FILECAT  (FILECA) (09:39) (22MAR04) ORVYL'S File Catalog Manager                                                           Page   44
0Current Usings:  (FSB,R3) (NTRYGR,R4) (FCATNPRM,R10) (@FCPERM-72,R12) (@GRES-72,R13)
0Loc    Object Code    Addr1 Addr2  Stmt Lv Lineno    Source Statement           (Hibal 5, Asmedit 3.3)  HLASM R4.0  2004/03/22 09.39
+___    ______ ____    _____ _____  ____ __ ______    ______ _________
00000A8 18A3/0D99/183A              4655             +
 0000AE 18AB/50D0 C0AC       00024  4658             +
 0000B4 58D0 C0A8/120F       00020  4660             +
00000BA 4780 A144            00166  4663     135.              IF    NZ,BEGIN            Account not there
 0000BE 4100 0004            00004  4674  1  136.                LA    RVR,4               Set access not permitted
 0000C2 9180 C054      0000C        4675  1  137.                IF    ~@FCPFMAG,FCATNPRX  Not owner or magic account
 0000C6 47E0 A3DC            003FE  4687  1          +
 0000CA 4100 0000            00000  4693  1  138.                LA    R0,ACCMODE          Indicate account insert
 0000CE 50D0 C0A8            00020  4694  1  139.                CATCALL INS               Insert
 0000D2 D603 C0AC C0AC 00024 00024  4706  1          +
 0000D8 4770 A0BE            000E0  4707  1          +
 0000DC 41D0 C120            00098  4713  1          +
 0000DA A0C2           000DC 000E0  4721  1          +
 0000E0 47F0 A0C6            000E8  4723  1          +
 0000E4 58D0 C0AC            00024  4730  1          +
 0000E8 4120 0002            00002  4735  1          +
 0000EC 4150 C088            00000  4736  1          +
 0000F0 5890 A612/18BA       00634  4737  1          +
 0000F6 18A3/0D99/183A              4739  1          +
 0000FC 18AB/50D0 C0AC       00024  4742  1          +
 000102 58D0 C0A8/120F       00020  4744  1          +
 000108 4780 A0F2            00114  4746  1  140.                IF    NZ,BEGIN
 00010C 4100 0008            00008  4757  2  141.                  LA    RVR,8               No more space
 000110 47F0 A3DC            003FE  4758  2  142.                  B     FCATNPRX
 000114                             4759  1  143.                END   ,
 000114 D202 400F 30E5 0000F 000E5  4763  1  144.                MVC   NTGMXSP(3),FSBDBLK+1 Set max space
 00011A                             4764  1  145.                CLEAR NTGUSSP             Set space used
 00011A D702 4012 4012 00012 00012  4770  1          +
 000120 9200 4019      00019        4771  1  146.                MVI   NTGFLG,0            Set no public privs
 000124 4100 001A            0001A  4772  1  147.                LA    R0,L'NTRYGR         Len of insert
 000128 50D0 C0A8            00020  4773  1  148.                CATCALL CONT              Continue insert
 00012C D603 C0AC C0AC 00024 00024  4785  1          +
 000132 4770 A118            0013A  4786  1          +
 000136 41D0 C120            00098  4792  1          +
 000134 A11C           00136 0013A  4800  1          +
 00013A 47F0 A120            00142  4802  1          +
 00013E 58D0 C0AC            00024  4809  1          +
 000142 4120 000C            0000C  4814  1          +
 000146 4150 C088            00000  4815  1          +
 00014A 5890 A612/18BA       00634  4816  1          +
 000150 18A3/0D99/183A              4818  1          +
 000156 18AB/50D0 C0AC       00024  4821  1          +
 00015C 58D0 C0A8/120F       00020  4823  1          +
 000162 920F C084      0003C        4825  1  149.                MVI   @FCPPERM,FPALL      Set to all permits
 000166                             4826     150.              END   ,                   Account not there
 000166 A148           00166 000BC  4830     151.              ELSEIF (@FCPFMAG),'MVI @FCPPERM,FPALL'
 000166 47F0 A154            00176  4836             +
 00016A 9180 C054      0000C        4848             +
 00016E 47E0 A154            00176  4849             +
 000172 920F C084      0003C        4855             +
 000176 A158           00176 00170  4860     152.              ELSE  BEGIN
 000176 47F0 A186            001A8  4865             +
 DROP   @GRES-72,R13                4871  1  153.                LOCAP @FCPACC             Find permits for account
1FILECAT  (FILECA) (09:39) (22MAR04) ORVYL'S File Catalog Manager                                                           Page   45
0Current Usings:  (FSB,R3) (NTRYGR,R4) (FCATNPRM,R10) (@FCPERM-72,R12) (@LOCPERM-72,R13)
0Loc    Object Code    Addr1 Addr2  Stmt Lv Lineno    Source Statement           (Hibal 5, Asmedit 3.3)  HLASM R4.0  2004/03/22 09.39
+___    ______ ____    _____ _____  ____ __ ______    ______ _________
0USING  @LOCPERM-72,R13
 00017A D70A D048 D048 00000 00000  4892  1          +
 000180 4100 4000            00000  4904  1          +
 000184 5000 D048            00000  4909  1          +
 000188 D205 D04C C055 00004 0000D  4914  1          +
 00018E 9640 D052      0000A        4920  1          +
 000192 58F0 A616/0DEF       00638  4926  1          +
 000198 4200 C084            0003C  4928  1  154.                STC   RVR,@FCPPERM        Set permits
 00019C 4100 0004            00004  4929  1  155.                LA    RVR,4               No access
 0001A0 9104 C084      0003C        4930  1  156.                IF    (@FCPPERM.FPW,Z),FCATNPRX Can't create a file
 0001A4 4780 A3DC            003FE  4945  1          +
 0001A8                             4951     157.              END   ,
00001A8 1BFF                        4956     159.              CLEAR R15                 No length modify
 0001AA 1BEE                        4960     160.              CLEAR R14                 No permits
 0001AC 4100 0004            00004  4964     161.              LA    R0,FILEMODE         Indicate file locate
 0001B0 50D0 C0A8            00020  4965     162.              CATCALL LOOK              Locate the file
 0001B4 D603 C0AC C0AC 00024 00024  4977             +
 0001BA 4770 A1A0            001C2  4978             +
 0001BE 41D0 C120            00098  4984             +
 0001BC A1A4           001BE 001C2  4992             +
 0001C2 47F0 A1A8            001CA  4994             +
 0001C6 58D0 C0AC            00024  5001             +
 0001CA 4120 0000            00000  5006             +
 0001CE 4150 C088            00000  5007             +
 0001D2 5890 A612/18BA       00634  5008             +
 0001D8 18A3/0D99/183A              5010             +
 0001DE 18AB/50D0 C0AC       00024  5013             +
 0001E4 58D0 C0A8/120F       00020  5015             +
 0001EA 4770 A1D4            001F6  5017     163.              IF    Z,BEGIN             File located
 0001EE 4100 0014            00014  5028  1  164.                LA    RVR,20              Set to already exists
 0001F2 47F0 A3DC            003FE  5029  1  165.                B     FCATNPRX            If new then not old (or vice versa)
 0001F6                             5030     166.              END   ,
 0001F6 4100 000C            0000C  5034     167.              LA    RVR,12              Set no catalog room
 0001FA 910C 3009      00009        5035     168.              IF    FSBCATNIN+FSBCATNLM,FCATNPRX
 0001FE 4770 A3DC            003FE  5050             +
 000202 1BEE                        5056     169.              CLEAR R14                 No permits
 000204 4100 0000            00000  5060     170.              LA    R0,ACCMODE          Indicate account locate
 000208 50D0 C0A8            00020  5061     171.              CATCALL LOOK              Locate account
 00020C D603 C0AC C0AC 00024 00024  5073             +
 000212 4770 A1F8            0021A  5074             +
 000216 41D0 C120            00098  5080             +
 000214 A1FC           00216 0021A  5088             +
 00021A 47F0 A200            00222  5090             +
 00021E 58D0 C0AC            00024  5097             +
 000222 4120 0000            00000  5102             +
 000226 4150 C088            00000  5103             +
 00022A 5890 A612/18BA       00634  5104             +
 000230 18A3/0D99/183A              5106             +
 000236 18AB/50D0 C0AC       00024  5109             +
 00023C 58D0 C0A8/120F       00020  5111             +
 000242 4100 0008            00008  5113     172.              LA    RVR,8               Set max space already used
 000246                             5114     173.              IF    (NTGUSSP,GT,NTGMXSP),FCATNPRX
 000246 D502 4012 400F 00012 0000F  5126             +
1FILECAT  (FILECA) (09:39) (22MAR04) ORVYL'S File Catalog Manager                                                           Page   46
0Current Usings:  (FSB,R3) (NTRYGR,R4) (FCATNPRM,R10) (@FCPERM-72,R12) (@LOCPERM-72,R13)
0Loc    Object Code    Addr1 Addr2  Stmt Lv Lineno    Source Statement           (Hibal 5, Asmedit 3.3)  HLASM R4.0  2004/03/22 09.39
+___    ______ ____    _____ _____  ____ __ ______    ______ _________
000024C 4720 A3DC            003FE  5129             +
 000250 BF17 4012            00012  5135     174.              INCR  RS,NTGUSSP          Increment blocks used
 000254 4110 1001            00001  5139             +
 000258 BE17 4012            00012  5140             +
 00025C 41F0 0004            00004  5141     175.              LA    R15,4               Entry changed but no length change
 000260 50D0 C0A8            00020  5142     176.              CATCALL CONT              Continue update of account entry
 000264 D603 C0AC C0AC 00024 00024  5154             +
 00026A 4770 A250            00272  5155             +
 00026E 41D0 C120            00098  5161             +
 00026C A254           0026E 00272  5169             +
 000272 47F0 A258            0027A  5171             +
 000276 58D0 C0AC            00024  5178             +
 00027A 4120 000C            0000C  5183             +
 00027E 4150 C088            00000  5184             +
 000282 5890 A612/18BA       00634  5185             +
 000288 18A3/0D99/183A              5187             +
 00028E 18AB/50D0 C0AC       00024  5190             +
 000294 58D0 C0A8/120F       00020  5192             +
000029A 920F C083      0003B        5195     178.              MVI   @FCPFLGO,FPALL      Set file mask
0DROP   @LOCPERM-72,R13             5197     180.              GRREL RID=FSBCGRI         Release catalog hold
 USING  @GRES-72,R13
 00029E D708 D048 D048 00000 00000  5218             +
 0002A4 D203 D04C 3028 00004 00028  5223             +
 0002AA 58F0 A61A/0DEF       0063C  5226             +
 DROP   @GRES-72,R13                5228     181.              PSET  @FMIXRAD
 USING  @FMIXRAD-72,R13
 0002B0 D737 D048 D048 00000 00000  5248             +
 0002B6 5030 D048            00000  5249     182.              PMOV  @FMIXFSB,LA:FSB
 0002BA D227 D04C C0E4 00004 0005C  5260     183.              MVC   @FMIXNAM,RQBLNAME
 0002C0 58F0 A61E/0DEF       00640  5261     184.              VCALL FMIXRADD            Build an IXR for the new file
 0002C6 1200/4780 A2AE       002D0  5265     185.              IF    (RVR,NZ),'EXIT FCATNPRM' Error adding IXR block
 0002CC 47F0 A3F2            00414  5282             +
 0002D0 D203 C04C D074 00004 0002C  5287     186.              MVC   @FCPBLK,@FMIXBLK    Set first block number
0DROP   @FMIXRAD-72,R13             5289     188.              GRGET RID=FSBCGRI,EXCL=YES Get catalog hold
 USING  @GRES-72,R13
 0002D6 D708 D048 D048 00000 00000  5310             +
 0002DC D203 D04C 3028 00004 00028  5315             +
 0002E2 9680 D050      00008        5321             +
 0002E6 9640 D050      00008        5327             +
 0002EA 58F0 A606/0DEF       00628  5330             +
00002F0 1BEE                        5333     190.              CLEAR R14                 No permits
 0002F2 4100 0000            00000  5337     191.              LA    R0,ACCMODE          Indicate account locate
 0002F6 50D0 C0A8            00020  5338     192.              CATCALL LOOK              Locate account again
 0002FA D603 C0AC C0AC 00024 00024  5350             +
 000300 4770 A2E6            00308  5351             +
 000304 41D0 C120            00098  5357             +
 000302 A2EA           00304 00308  5365             +
 000308 47F0 A2EE            00310  5367             +
 00030C 58D0 C0AC            00024  5374             +
 000310 4120 0000            00000  5379             +
1FILECAT  (FILECA) (09:39) (22MAR04) ORVYL'S File Catalog Manager                                                           Page   47
0Current Usings:  (FSB,R3) (NTRYGR,R4) (FCATNPRM,R10) (@FCPERM-72,R12) (@GRES-72,R13)
0Loc    Object Code    Addr1 Addr2  Stmt Lv Lineno    Source Statement           (Hibal 5, Asmedit 3.3)  HLASM R4.0  2004/03/22 09.39
+___    ______ ____    _____ _____  ____ __ ______    ______ _________
0000314 4150 C088            00000  5380             +
 000318 5890 A612/18BA       00634  5381             +
 00031E 18A3/0D99/183A              5383             +
 000324 18AB/50D0 C0AC       00024  5386             +
 00032A 58D0 C0A8/120F       00020  5388             +
0000330 4100 0004            00004  5391     194.              LA    R0,FILEMODE         Indicate file insert
 000334 50D0 C0A8            00020  5392     195.              CATCALL INS               Insert
 000338 D603 C0AC C0AC 00024 00024  5404             +
 00033E 4770 A324            00346  5405             +
 000342 41D0 C120            00098  5411             +
 000340 A328           00342 00346  5419             +
 000346 47F0 A32C            0034E  5421             +
 00034A 58D0 C0AC            00024  5428             +
 00034E 4120 0002            00002  5433             +
 000352 4150 C088            00000  5434             +
 000356 5890 A612/18BA       00634  5435             +
 00035C 18A3/0D99/183A              5437             +
 000362 18AB/50D0 C0AC       00024  5440             +
 000368 58D0 C0A8/120F       00020  5442             +
 00036E 4770 A3DC            003FE  5444     196.              IF    NZ,FCATNPRX         Error
0DROP   NTRYGR,R4                   5459     198.              WITH  (NTRYFL,RJ)
 USING  NTRYFL,R4
 000372                             5475     199.              CLEAR NTFCNT              No records yet
 000372 D702 400D 400D 0000D 0000D  5481             +
 000378 9200 4010      00010        5482     200.              CLEAR NTFCODE             No flags yet
 00037C                             5489     201.              CLEAR NTFUINFO            No user info yet
 00037C D703 401B 401B 0001B 0001B  5495             +
 000382 B205 C160      000D8        5496     202.              STCK  #FCPTOD             Got time for this?
 000386 D203 4013 C160 00013 000D8  5497     203.              MVC   NTFCRDT,#FCPTOD     Set creation date
 00038C D203 4017 C160 00017 000D8  5498     204.              MVC   NTFLSDT,#FCPTOD     Set last reference date
 000392 D202 400A C04D 0000A 00005  5499     205.              MVC   NTFLOC,@FCPBLK+1    Set IXR block number
 000398 9200 4011      00011        5500     206.              CLEAR NTFFLGP             No public priv
 00039C 920F 4012      00012        5507     207.              MVI   NTFFLGO,FPALL       All owner priv
 0003A0 41E0 C0EC            00064  5508     208.              LA    R14,RQBLNAME+8      Point past GG.UUU.x
 0003A4 41F0 0001            00001  5509     209.              LA    R15,1               At least one (x in above)
 0003A8 4100 0024            00024  5510     210.              LA    R0,L'RQBLNAME-8     Len to search
 0003AC                             5511     211.              LOOP  BEGIN
 0003AC 9540 E000      00000        5517  1  212.                IF    ('CLI @R14,C" "',EQ),EXIT That's the end
 0003B0 4780 A39E            003C0  5527  1          +
 0003B4 41E0 E001            00001  5533  1  213.                LA    R14,@R14+1          Increment name pointer
 0003B8 41F0 F001            00001  5534  1  214.                LA    R15,@R15+1          Increment search length
 0003BC 4600 A38A            003AC  5535     215.              UNTIL (BCT,R0),END
 0003C0 4100 F020            00020  5545     216.              LA    R0,@R15+L'NTRYFL    Set entry length
 0003C4 50D0 C0A8            00020  5546     217.              CATCALL CONT              Continue insert
 0003C8 D603 C0AC C0AC 00024 00024  5558             +
 0003CE 4770 A3B4            003D6  5559             +
 0003D2 41D0 C120            00098  5565             +
 0003D0 A3B8           003D2 003D6  5573             +
 0003D6 47F0 A3BC            003DE  5575             +
 0003DA 58D0 C0AC            00024  5582             +
 0003DE 4120 000C            0000C  5587             +
 0003E2 4150 C088            00000  5588             +
1FILECAT  (FILECA) (09:39) (22MAR04) ORVYL'S File Catalog Manager                                                           Page   48
0Current Usings:  (FSB,R3) (NTRYFL,R4) (FCATNPRM,R10) (@FCPERM-72,R12) (@GRES-72,R13)
0Loc    Object Code    Addr1 Addr2  Stmt Lv Lineno    Source Statement           (Hibal 5, Asmedit 3.3)  HLASM R4.0  2004/03/22 09.39
+___    ______ ____    _____ _____  ____ __ ______    ______ _________
00003E6 5890 A612/18BA       00634  5589             +
 0003EC 18A3/0D99/183A              5591             +
 0003F2 18AB/50D0 C0AC       00024  5594             +
 0003F8 58D0 C0A8/120F       00020  5596             +
 0003FE                             5598     218.     FCATNPRX LABEL ,
 0003FE 1810                        5600     219.              LR    RS,RVR
 000400                             5601     220.              GRREL RID=FSBCGRI         Release catalog hold
 000400 D708 D048 D048 00000 00000  5612             +
 000406 D203 D04C 3028 00004 00028  5617             +
 00040C 58F0 A61A/0DEF       0063C  5620             +
 000412 1801                        5622     221.              LR    RVR,RS
 000414 981F C008            00008  5623     222.              PEND  ,
 DROP   NTRYFL,R4
 USING  NTRYGR,R4
 DROP   NTRYGR,R4
 DROP   FSB,R3
 DROP   @FCPERM-72,R12
 DROP   FCATNPRM,R10
 000418 9680 C000/0B0E 00000        5660             +
 DROP   @GRES-72,R13
1FILECAT  (FILECA) (09:39) (22MAR04) ORVYL'S File Catalog Manager                                                           Page   49
0Loc    Object Code    Addr1 Addr2  Stmt Lv Lineno    Source Statement           (Hibal 5, Asmedit 3.3)  HLASM R4.0  2004/03/22 09.39
+___    ______ ____    _____ _____  ____ __ ______    ______ _________
0                                   5670     224.     *---------------------------------------------------------------------*
                                    5671     225.     *  FCATOPRM - Attach processing for an existing file
                                    5672     226.     *
                                    5673     227.     *   Inputs - @FCPERM
                                    5674     228.     *
                                    5675     229.     *   Output - RVR eq 0, @ACCPERM set to the permits for user
                                    5676     230.     *            Otherwise RVR contains the user return code
                                    5677     231.     *---------------------------------------------------------------------*
 00041E                             5678     232.     FCATOPRM PROC  @FCPERM,#FCPERM,SCOPE=GLOBAL
 00041E C6C3C1E3D6D7D9D4            5684             +
 000426 0040/00E0                   5685             +
 00042A 900F D004/18AF       00004  5687             +
 USING  FCATOPRM,R10
 000430 50D0 C000/18CD       00000  5702             +
 000436 9680 C000      00000        5704             +
 USING  @FCPERM-72,R12
 AUSING (#FCPERM,@FCPERM+64)
 00043A 41D0 C168            00168  5723             +
000043E 5830 C048            00000  5725     234.              L     RB,@FCPFSB          Address FSB
 USING  FSB,R3                      5726     235.              WITH  (FSB,RB)
 USING  NTRYGR,R4                   5739     236.              WITH  (NTRYGR,RJ)         Entry pointer returned by VCAT
 AUSING (RQBL,#FCPRQBL)             5752     237.              WITH  (RQBL,#FCPRQBL)
 USING  @GRES-72,R13                5759     238.              GRGET RID=FSBCGRI,EXCL=YES Get catalog hold
 000442 D708 D048 D048 00000 00000  5777             +
 000448 D203 D04C 3028 00004 00028  5782             +
 00044E 9680 D050      00008        5788             +
 000452 9640 D050      00008        5794             +
 000456 58F0 A1FE/0DEF       00628  5797             +
 00045C                             5799     239.              CLEAR RQBL                Set up old block for VCAT
 00045C D7D3 C088 C088 00000 00000  5805             +
 000462 D203 C088 A202 00000 0062C  5806     240.              MVC   RQBLRQBL,=CL4'RQBL'
0000468 D203 C10C A206 00084 00630  5808     242.              MVC   RQBLNAME+L'RQBLNAME-4(4),=CL4' '
 00046E D227 C0E4 C05B 0005C 00013  5809     243.              MVC   RQBLNAME(L'RQBLNAME-4),@FCPNAME
 000474 1BFF                        5810     244.              CLEAR R15                 No length modify
 000476 1BEE                        5814     245.              CLEAR R14                 No permits
 000478 9180 C054      0000C        5818     246.              IF    ~@FCPFMAG,'LA R14,1' Permits
 00047C 4710 A05A            00484  5828             +
 000480 41E0 0001            00001  5834             +
 000484 4100 0000            00000  5839     247.              LA    R0,ACCMODE          Indicate account locate
 000488 50D0 C0A8            00020  5840     248.              CATCALL LOOK              Locate account
 00048C D603 C0AC C0AC 00024 00024  5852             +
 000492 4770 A070            0049A  5853             +
 000496 41D0 C120            00098  5859             +
 000494 A074           00496 0049A  5867             +
 00049A 47F0 A078            004A2  5869             +
 00049E 58D0 C0AC            00024  5876             +
 0004A2 4120 0000            00000  5881             +
 0004A6 4150 C088            00000  5882             +
 0004AA 5890 A20A/18BA       00634  5883             +
 0004B0 18A3/0D99/183A              5885             +
 0004B6 18AB/50D0 C0AC       00024  5888             +
 0004BC 58D0 C0A8/120F       00020  5890             +
 0004C2 4100 0010            00010  5892     249.              LA    RVR,16              Set to not there
 0004C6 4770 A1DC            00606  5893     250.              IF    NZ,FCATOPRX         Account not found
1FILECAT  (FILECA) (09:39) (22MAR04) ORVYL'S File Catalog Manager                                                           Page   50
0Current Usings:  (FSB,R3) (NTRYGR,R4) (FCATOPRM,R10) (@FCPERM-72,R12) (@GRES-72,R13)
0Loc    Object Code    Addr1 Addr2  Stmt Lv Lineno    Source Statement           (Hibal 5, Asmedit 3.3)  HLASM R4.0  2004/03/22 09.39
+___    ______ ____    _____ _____  ____ __ ______    ______ _________
00004CA 9180 C054      0000C        5908     252.              IF    ~@FCPFMAG,BEGIN
 0004CE 4710 A0CA            004F4  5918             +
 DROP   @GRES-72,R13                5923  1  253.                LOCAP @FCPACC             Find permits for account
 USING  @LOCPERM-72,R13
 0004D2 D70A D048 D048 00000 00000  5944  1          +
 0004D8 4100 4000            00000  5956  1          +
 0004DC 5000 D048            00000  5961  1          +
 0004E0 D205 D04C C055 00004 0000D  5966  1          +
 0004E6 9640 D052      0000A        5972  1          +
 0004EA 58F0 A20E/0DEF       00638  5978  1          +
 0004F0 4200 C084            0003C  5980  1  254.                STC   RVR,@FCPPERM        Set permits
 0004F4                             5981     255.              END   ,
00004F4 1BFF                        5986     257.              CLEAR R15                 No length modify
 0004F6 1BEE                        5990     258.              CLEAR R14                 No permits
 0004F8 9180 C054      0000C        5994     259.              IF    ~@FCPFMAG,'LA R14,1' Permits
 0004FC 4710 A0DA            00504  6004             +
 000500 41E0 0001            00001  6010             +
 000504 4100 0004            00004  6015     260.              LA    R0,FILEMODE         Indicate file locate
 000508 50D0 C0A8            00020  6016     261.              CATCALL LOOK              Locate the file
 00050C D603 C0AC C0AC 00024 00024  6028             +
 000512 4770 A0F0            0051A  6029             +
 000516 41D0 C120            00098  6035             +
 000514 A0F4           00516 0051A  6043             +
 00051A 47F0 A0F8            00522  6045             +
 00051E 58D0 C0AC            00024  6052             +
 000522 4120 0000            00000  6057             +
 000526 4150 C088            00000  6058             +
 00052A 5890 A20A/18BA       00634  6059             +
 000530 18A3/0D99/183A              6061             +
 000536 18AB/50D0 C0AC       00024  6064             +
 00053C 58D0 C0A8/120F       00020  6066             +
 000542 4100 0010            00010  6068     262.              LA    RVR,16              Set to not there
 000546 4770 A1DC            00606  6069     263.              IF    NZ,FCATOPRX         File not found
000054A D200 C085 4010 0003D 00010  6084     265.              MVC   @FCPCODE,NTFCODE    Set return flags
 000550 D202 C04D 400A 00005 0000A  6085     266.              MVC   @FCPBLK+1(3),NTFLOC Set first block number
 000556 D200 C083 4012 0003B 00012  6086     267.              MVC   @FCPFLGO,NTFFLGO    Set file mask
 00055C 9110 4010      00010        6087     268.              IF    NTFNIXR,BEGIN
 000560 47E0 A140            0056A  6097             +
 000564 D202 C051 400D 00009 0000D  6102  1  269.                MVC   @FCPBLKC+1(L'NTFCNT),NTFCNT non-IXR blk count
 00056A                             6103     270.              END   ,
000056A 9180 C054      0000C        6108     272.              IF    @FCPFMAG,'MVI @FCPPERM,FPALL'
 00056E 47E0 A14C            00576  6118             +
 000572 920F C084      0003C        6124             +
 000576 A150           00576 00570  6129     273.              ELSE  BEGIN               Not very magic account
 000576 47F0 A178            005A2  6134             +
 00057A                             6140  1  274.                LOCFP @FCPACC             Get file permits
 00057A D70A D048 D048 00000 00000  6151  1          +
 000580 4100 4000            00000  6163  1          +
 000584 5000 D048            00000  6168  1          +
 000588 D205 D04C C055 00004 0000D  6173  1          +
 00058E 9680 D052      0000A        6179  1          +
1FILECAT  (FILECA) (09:39) (22MAR04) ORVYL'S File Catalog Manager                                                           Page   51
0Current Usings:  (FSB,R3) (NTRYGR,R4) (FCATOPRM,R10) (@FCPERM-72,R12) (@LOCPERM-72,R13)
0Loc    Object Code    Addr1 Addr2  Stmt Lv Lineno    Source Statement           (Hibal 5, Asmedit 3.3)  HLASM R4.0  2004/03/22 09.39
+___    ______ ____    _____ _____  ____ __ ______    ______ _________
0000592 58F0 A20E/0DEF       00638  6185  1          +
 000598 43E0 C084            0003C  6187  1  275.                IC    R14,@FCPPERM
 00059C 16E0                        6188  1  276.                OR    R14,RVR             Add to permits
 00059E 42E0 C084            0003C  6189  1  277.                STC   R14,@FCPPERM        Set permits
 0005A2                             6190     278.              END   ,
00005A2 9140 3009      00009        6195     280.              IF    (~FSBARO,AND,~@FCPFNAX),BEGIN Update last access date?
 0005A6 4710 A1DA            00604  6207             +
 0005AA 9140 C054      0000C        6218             +
 0005AE 4710 A1DA            00604  6219             +
 0005B2 B205 C160      000D8        6224  1  281.                STCK  #FCPTOD             Got time for this?
 0005B6                             6225  1  282.                IF    (NTFLSDT,NE,#FCPTOD),BEGIN Many attaches per second?
 0005B6 D503 4017 C160 00017 000D8  6237  1          +
 0005BC 4780 A1DA            00604  6238  1          +
 0005C0 D203 4017 C160 00017 000D8  6243  2  283.                  MVC   NTFLSDT,#FCPTOD     Set last reference date
 0005C6 41F0 0004            00004  6244  2  284.                  LA    R15,4               Set to update, no length change
 0005CA 50D0 C0A8            00020  6245  2  285.                  CATCALL CONT              File the entry
 0005CE D603 C0AC C0AC 00024 00024  6257  2          +
 0005D4 4770 A1B2            005DC  6258  2          +
 0005D8 41D0 C120            00098  6264  2          +
 0005D6 A1B6           005D8 005DC  6272  2          +
 0005DC 47F0 A1BA            005E4  6274  2          +
 0005E0 58D0 C0AC            00024  6281  2          +
 0005E4 4120 000C            0000C  6286  2          +
 0005E8 4150 C088            00000  6287  2          +
 0005EC 5890 A20A/18BA       00634  6288  2          +
 0005F2 18A3/0D99/183A              6290  2          +
 0005F8 18AB/50D0 C0AC       00024  6293  2          +
 0005FE 58D0 C0A8/120F       00020  6295  2          +
 000604                             6297  1  286.                END   ,
 000604                             6301     287.              END   ,
0000604 1B00                        6306     289.              CLEAR RVR
0000606                             6311     291.     FCATOPRX LABEL ,
 000606 1810                        6313     292.              LR    RS,RVR
 DROP   @LOCPERM-72,R13             6314     293.              GRREL RID=FSBCGRI         Release catalog hold
 USING  @GRES-72,R13
 000608 D708 D048 D048 00000 00000  6335             +
 00060E D203 D04C 3028 00004 00028  6340             +
 000614 58F0 A212/0DEF       0063C  6343             +
 00061A 1801                        6345     294.              LR    RVR,RS
 00061C 981F C008            00008  6346     295.              PEND  ,
 DROP   NTRYGR,R4
 DROP   FSB,R3
 DROP   @FCPERM-72,R12
 DROP   FCATOPRM,R10
 000620 9680 C000/0B0E 00000        6371             +
 DROP   @GRES-72,R13
 000628                             6380     296.              LTORG ,
 000628 00000000                    6382                             =V(GRGET)
 00062C D9D8C2D3                    6383                             =CL4'RQBL'
 000630 40404040                    6384                             =CL4' '
 000634 00000000                    6385                             =V(VCATENT)
1FILECAT  (FILECA) (09:39) (22MAR04) ORVYL'S File Catalog Manager                                                           Page   52
0Loc    Object Code    Addr1 Addr2  Stmt Lv Lineno    Source Statement           (Hibal 5, Asmedit 3.3)  HLASM R4.0  2004/03/22 09.39
+___    ______ ____    _____ _____  ____ __ ______    ______ _________
0000638 00002A46                    6386                             =A(LOCPERM)
 00063C 00000000                    6387                             =V(GRREL)
 000640 00000000       00644 03048  6388                             =V(FMIXRADD)
1FILECAT  (FILECA) (09:39) (22MAR04) ORVYL'S File Catalog Manager                                                           Page   53
0Loc    Object Code    Addr1 Addr2  Stmt Lv Lineno    Source Statement           (Hibal 5, Asmedit 3.3)  HLASM R4.0  2004/03/22 09.39
+___    ______ ____    _____ _____  ____ __ ______    ______ _________
0                                   6393     298.     *---------------------------------------------------------------------*
                                    6394     299.     *  FCATNIXR - Define a non-IXR file to the system
                                    6395     300.     *
                                    6396     301.     *   Inputs - @FCNIXR
                                    6397     302.     *
                                    6398     303.     *   Output - RVR eq 0, @ACCPERM set to the permits for user
                                    6399     304.     *            Otherwise RVR contains the user return code
                                    6400     305.     *---------------------------------------------------------------------*
 000000                00000 000EA  6401     306.     #FCNIXR  RECORD BEGIN
 000000                             6409  1  307.     #FCNRQBL   DS    CL(L'RQBL)
 0000D8                             6410  1  308.     #FCNTOD    DS    D
 0000E0                             6411  1  309.     #FCNFBLK   DS    F
 0000E4                             6412  1  310.     #FCNFEXT   DS    F
 0000E8 00                          6413  1  311.     #FCNPERM   FLAG  ,
 0000E9 00                          6417  1  312.     #FCNFLAG   FLAG  ,
 #FCNFLAG.#FCNFHYB 80 ONES          6421  1  313.                FLAG  #FCNFHYB            Hybrid file
 0000EA                000EA 000EA  6426     314.              END   ,
0000644                             6436     316.     FCATNIXR PROC  @FCNIXR,#FCNIXR,SCOPE=GLOBAL
 000644 C6C3C1E3D5C9E7D9            6442             +
 00064C 0040/00F0                   6443             +
 000650 900F D004/18AF       00004  6445             +
 USING  FCATNIXR,R10
 000656 50D0 C000/18CD       00000  6460             +
 00065C 9680 C000      00000        6462             +
 USING  @FCNIXR-72,R12
 AUSING (#FCNIXR,@FCNIXR+64)
 000660 41D0 C178            00178  6481             +
 000664 5830 C048            00000  6482     317.              L     RB,@FCNFSB          Address FSB
 USING  FSB,R3                      6483     318.              WITH  (FSB,RB)
 USING  NTRYGR,R4                   6496     319.              WITH  (NTRYGR,RJ)         Entry pointer returned by VCAT
 AUSING (RQBL,#FCNRQBL)             6509     320.              WITH  (RQBL,#FCNRQBL)
 USING  @GRES-72,R13                6516     321.              GRGET RID=FSBCGRI,EXCL=YES Get catalog hold
 000668 D708 D048 D048 00000 00000  6534             +
 00066E D203 D04C 3028 00004 00028  6539             +
 000674 9680 D050      00008        6545             +
 000678 9640 D050      00008        6551             +
 00067C 58F0 A918/0DEF       00F68  6554             +
 000682                             6556     322.              CLEAR RQBL                Set up old block for VCAT
 000682 D7D3 C088 C088 00000 00000  6562             +
 000688 D203 C088 A91C 00000 00F6C  6563     323.              MVC   RQBLRQBL,=CL4'RQBL'
000068E D203 C10C A920 00084 00F70  6565     325.              MVC   RQBLNAME+L'RQBLNAME-4(4),=CL4' '
 000694 D227 C0E4 C05B 0005C 00013  6566     326.              MVC   RQBLNAME(L'RQBLNAME-4),@FCNNAME
 00069A 1BFF                        6567     327.              CLEAR R15                 No length modify
 00069C 1BEE                        6571     328.              CLEAR R14                 No permits
 00069E 9180 C054      0000C        6575     329.              IF    ~@FCNFMAG,'LA R14,1' Permits
 0006A2 4710 A05A            006AA  6585             +
 0006A6 41E0 0001            00001  6591             +
 0006AA 4100 0000            00000  6596     330.              LA    R0,ACCMODE          Indicate account locate
 0006AE 50D0 C0A8            00020  6597     331.              CATCALL LOOK              Locate account
 0006B2 D603 C0AC C0AC 00024 00024  6609             +
 0006B8 4770 A070            006C0  6610             +
 0006BC 41D0 C120            00098  6616             +
 0006BA A074           006BC 006C0  6624             +
 0006C0 47F0 A078            006C8  6626             +
1FILECAT  (FILECA) (09:39) (22MAR04) ORVYL'S File Catalog Manager                                                           Page   54
0Current Usings:  (FSB,R3) (NTRYGR,R4) (FCATNIXR,R10) (@FCNIXR-72,R12) (@GRES-72,R13)
0Loc    Object Code    Addr1 Addr2  Stmt Lv Lineno    Source Statement           (Hibal 5, Asmedit 3.3)  HLASM R4.0  2004/03/22 09.39
+___    ______ ____    _____ _____  ____ __ ______    ______ _________
00006C4 58D0 C0AC            00024  6633             +
 0006C8 4120 0000            00000  6638             +
 0006CC 4150 C088            00000  6639             +
 0006D0 5890 A924/18BA       00F74  6640             +
 0006D6 18A3/0D99/183A              6642             +
 0006DC 18AB/50D0 C0AC       00024  6645             +
 0006E2 58D0 C0A8/120F       00020  6647             +
00006E8 4780 A140            00790  6650     333.              IF    NZ,BEGIN            Account not there
 0006EC 4100 0010            00010  6661  1  334.                LA    RVR,16              Set access not permitted
 0006F0 9180 C054      0000C        6662  1  335.                IF    ~@FCNFMAG,FCATNIXX
 0006F4 47E0 A464            00AB4  6674  1          +
 0006F8 4100 0000            00000  6680  1  336.                LA    R0,ACCMODE          Indicate account insert
 0006FC 50D0 C0A8            00020  6681  1  337.                CATCALL INS               Insert
 000700 D603 C0AC C0AC 00024 00024  6693  1          +
 000706 4770 A0BE            0070E  6694  1          +
 00070A 41D0 C120            00098  6700  1          +
 000708 A0C2           0070A 0070E  6708  1          +
 00070E 47F0 A0C6            00716  6710  1          +
 000712 58D0 C0AC            00024  6717  1          +
 000716 4120 0002            00002  6722  1          +
 00071A 4150 C088            00000  6723  1          +
 00071E 5890 A924/18BA       00F74  6724  1          +
 000724 18A3/0D99/183A              6726  1          +
 00072A 18AB/50D0 C0AC       00024  6729  1          +
 000730 58D0 C0A8/120F       00020  6731  1          +
 000736 4780 A0F2            00742  6733  1  338.                IF    NZ,BEGIN
 00073A 4100 0008            00008  6744  2  339.                  LA    RVR,8               No more space
 00073E 47F0 A464            00AB4  6745  2  340.                  B     FCATNIXX
 000742                             6746  1  341.                END   ,
 000742 D202 400F 30E5 0000F 000E5  6750  1  342.                MVC   NTGMXSP(3),FSBDBLK+1 Set max space
 000748                             6751  1  343.                CLEAR NTGUSSP             Set space used
 000748 D702 4012 4012 00012 00012  6757  1          +
 00074E 9200 4019      00019        6758  1  344.                MVI   NTGFLG,0            Set no public privs
 000752 4100 001A            0001A  6759  1  345.                LA    R0,L'NTRYGR         Len of insert
 000756 50D0 C0A8            00020  6760  1  346.                CATCALL CONT              Continue insert
 00075A D603 C0AC C0AC 00024 00024  6772  1          +
 000760 4770 A118            00768  6773  1          +
 000764 41D0 C120            00098  6779  1          +
 000762 A11C           00764 00768  6787  1          +
 000768 47F0 A120            00770  6789  1          +
 00076C 58D0 C0AC            00024  6796  1          +
 000770 4120 000C            0000C  6801  1          +
 000774 4150 C088            00000  6802  1          +
 000778 5890 A924/18BA       00F74  6803  1          +
 00077E 18A3/0D99/183A              6805  1          +
 000784 18AB/50D0 C0AC       00024  6808  1          +
 00078A 58D0 C0A8/120F       00020  6810  1          +
 000790                             6812     347.              END   ,                   Account not there
 000790 A144           00790 006EA  6816     348.              ELSEIF (~@FCNFMAG),BEGIN
 000790 47F0 A17A            007CA  6822             +
 000794 9180 C054      0000C        6834             +
 000798 4710 A17A            007CA  6835             +
 DROP   @GRES-72,R13                6840  1  349.                LOCAP @FCNACC             Find permits for account
1FILECAT  (FILECA) (09:39) (22MAR04) ORVYL'S File Catalog Manager                                                           Page   55
0Current Usings:  (FSB,R3) (NTRYGR,R4) (FCATNIXR,R10) (@FCNIXR-72,R12) (@LOCPERM-72,R13)
0Loc    Object Code    Addr1 Addr2  Stmt Lv Lineno    Source Statement           (Hibal 5, Asmedit 3.3)  HLASM R4.0  2004/03/22 09.39
+___    ______ ____    _____ _____  ____ __ ______    ______ _________
0USING  @LOCPERM-72,R13
 00079C D70A D048 D048 00000 00000  6861  1          +
 0007A2 4100 4000            00000  6873  1          +
 0007A6 5000 D048            00000  6878  1          +
 0007AA D205 D04C C055 00004 0000D  6883  1          +
 0007B0 9640 D052      0000A        6889  1          +
 0007B4 58F0 A928/0DEF       00F78  6895  1          +
 0007BA 4200 C170            000E8  6897  1  350.                STC   RVR,#FCNPERM        Set permits
 0007BE 4100 0010            00010  6898  1  351.                LA    RVR,16              No access
 0007C2 9104 C170      000E8        6899  1  352.                IF    (#FCNPERM.FPW,Z),FCATNIXX Can't create a file
 0007C6 4780 A464            00AB4  6914  1          +
 0007CA                             6920     353.              END   ,
0                                   6925     355.     * Check if file already exists
 0007CA 1BFF                        6926     356.              CLEAR R15                 No length modify
 0007CC 1BEE                        6930     357.              CLEAR R14                 No permits
 0007CE 4100 0004            00004  6934     358.              LA    R0,FILEMODE         Indicate file locate
 0007D2 50D0 C0A8            00020  6935     359.              CATCALL LOOK              Locate the file
 0007D6 D603 C0AC C0AC 00024 00024  6947             +
 0007DC 4770 A194            007E4  6948             +
 0007E0 41D0 C120            00098  6954             +
 0007DE A198           007E0 007E4  6962             +
 0007E4 47F0 A19C            007EC  6964             +
 0007E8 58D0 C0AC            00024  6971             +
 0007EC 4120 0000            00000  6976             +
 0007F0 4150 C088            00000  6977             +
 0007F4 5890 A924/18BA       00F74  6978             +
 0007FA 18A3/0D99/183A              6980             +
 000800 18AB/50D0 C0AC       00024  6983             +
 000806 58D0 C0A8/120F       00020  6985             +
 00080C 4770 A1C8            00818  6987     360.              IF    Z,BEGIN             File located
 000810 4100 0014            00014  6998  1  361.                LA    RVR,20              Set to already exists
 000814 47F0 A464            00AB4  6999  1  362.                B     FCATNIXX            If new then not old (or vice versa)
 000818                             7000     363.              END   ,
 000818 4100 000C            0000C  7004     364.              LA    RVR,12              Set no catalog room
 00081C 910C 3009      00009        7005     365.              IF    FSBCATNIN+FSBCATNLM,FCATNIXX
 000820 4770 A464            00AB4  7020             +
 000824 1BEE                        7026     366.              CLEAR R14                 No permits
 000826 4100 0000            00000  7030     367.              LA    R0,ACCMODE          Indicate account locate
 00082A 50D0 C0A8            00020  7031     368.              CATCALL LOOK              Locate account
 00082E D603 C0AC C0AC 00024 00024  7043             +
 000834 4770 A1EC            0083C  7044             +
 000838 41D0 C120            00098  7050             +
 000836 A1F0           00838 0083C  7058             +
 00083C 47F0 A1F4            00844  7060             +
 000840 58D0 C0AC            00024  7067             +
 000844 4120 0000            00000  7072             +
 000848 4150 C088            00000  7073             +
 00084C 5890 A924/18BA       00F74  7074             +
 000852 18A3/0D99/183A              7076             +
 000858 18AB/50D0 C0AC       00024  7079             +
 00085E 58D0 C0A8/120F       00020  7081             +
 000864 1FEE/BFE7 4012       00012  7083     369.              L3    R14,NTGUSSP         Get space used
 00086A 1FFF/BFF7 400F       0000F  7089     370.              L3    R15,NTGMXSP         Get space allowed
1FILECAT  (FILECA) (09:39) (22MAR04) ORVYL'S File Catalog Manager                                                           Page   56
0Current Usings:  (FSB,R3) (NTRYGR,R4) (FCATNIXR,R10) (@FCNIXR-72,R12) (@LOCPERM-72,R13)
0Loc    Object Code    Addr1 Addr2  Stmt Lv Lineno    Source Statement           (Hibal 5, Asmedit 3.3)  HLASM R4.0  2004/03/22 09.39
+___    ______ ____    _____ _____  ____ __ ______    ______ _________
0000870 5AE0 C04C            00004  7095     371.              A     R14,@FCNBLKC        Add count of blocks requested
 000874 4100 0008            00008  7096     372.              LA    RVR,8
 000878 19EF/4720 A464       00AB4  7097     373.              IF    (R14,GT,R15),FCATNIXX Not enough file space
 00087E BEE7 4012            00012  7115     374.              ST3   R14,NTGUSSP         Increment blocks used
 000882 41F0 0004            00004  7117     375.              LA    R15,4               Entry changed but no length change
 000886 50D0 C0A8            00020  7118     376.              CATCALL CONT              Continue update of account entry
 00088A D603 C0AC C0AC 00024 00024  7130             +
 000890 4770 A248            00898  7131             +
 000894 41D0 C120            00098  7137             +
 000892 A24C           00894 00898  7145             +
 000898 47F0 A250            008A0  7147             +
 00089C 58D0 C0AC            00024  7154             +
 0008A0 4120 000C            0000C  7159             +
 0008A4 4150 C088            00000  7160             +
 0008A8 5890 A924/18BA       00F74  7161             +
 0008AE 18A3/0D99/183A              7163             +
 0008B4 18AB/50D0 C0AC       00024  7166             +
 0008BA 58D0 C0A8/120F       00020  7168             +
0DROP   @LOCPERM-72,R13             7171     378.              GRREL RID=FSBCGRI         Release catalog hold
 USING  @GRES-72,R13
 0008C0 D708 D048 D048 00000 00000  7192             +
 0008C6 D203 D04C 3028 00004 00028  7197             +
 0008CC 58F0 A92C/0DEF       00F7C  7200             +
 0008D2 5800 C04C            00004  7202     379.              L     RVR,@FCNBLKC        Get block count
 DROP   @GRES-72,R13                7203     380.              PSET  @FMFSB
 USING  @FMFSB-72,R13
 0008D6 D704 D048 D048 00000 00000  7223             +
 0008DC 5030 D048            00000  7224     381.              PMOV  @FMFSBP,LA:FSB
 0008E0 58F0 A930/0DEF       00F80  7235     382.              VCALL FBITGCON            Get this many contiguous
 0008E6 5000 C168            000E0  7239     383.              ST    RVR,#FCNFBLK
 0008EA 9140 C054      0000C        7240     384.              IF    (@FCNFHYB,AND,(RVR,NZ)),BEGIN Initialize hybrid file?
 0008EE 47E0 A2C8/1200       00918  7252             +
 0008F4 4780 A2C8            00918  7263             +
 DROP   @FMFSB-72,R13               7268  1  385.                PSET  @FMIXRAD
 USING  @FMIXRAD-72,R13
 0008F8 D737 D048 D048 00000 00000  7288  1          +
 0008FE 5030 D048            00000  7289  1  386.                PMOV  @FMIXFSB,LA:FSB
 000902 D227 D04C C0E4 00004 0005C  7300  1  387.                MVC   @FMIXNAM,RQBLNAME
 000908 5000 D074            0002C  7301  1  388.                ST    RVR,@FMIXBLK        Set first block number
 00090C D203 D078 C04C 00030 00004  7302  1  389.                MVC   @FMIXCNT,@FCNBLKC   Set count of blocks to init
 000912 58F0 A934/0DEF       00F84  7303  1  390.                VCALL FMHYINIT            Initialize
 000918                             7307     391.              END   ,                   Initialize hybrid file?
 DROP   @FMIXRAD-72,R13             7311     392.              GRGET RID=FSBCGRI,EXCL=YES Get catalog hold
 USING  @GRES-72,R13
 000918 D708 D048 D048 00000 00000  7332             +
 00091E D203 D04C 3028 00004 00028  7337             +
 000924 9680 D050      00008        7343             +
 000928 9640 D050      00008        7349             +
 00092C 58F0 A918/0DEF       00F68  7352             +
0000932 1BEE                        7355     394.              CLEAR R14                 No permits
 000934 4100 0000            00000  7359     395.              LA    R0,ACCMODE          Indicate account locate
 000938 50D0 C0A8            00020  7360     396.              CATCALL LOOK              Locate account
1FILECAT  (FILECA) (09:39) (22MAR04) ORVYL'S File Catalog Manager                                                           Page   57
0Current Usings:  (FSB,R3) (NTRYGR,R4) (FCATNIXR,R10) (@FCNIXR-72,R12) (@GRES-72,R13)
0Loc    Object Code    Addr1 Addr2  Stmt Lv Lineno    Source Statement           (Hibal 5, Asmedit 3.3)  HLASM R4.0  2004/03/22 09.39
+___    ______ ____    _____ _____  ____ __ ______    ______ _________
000093C D603 C0AC C0AC 00024 00024  7372             +
 000942 4770 A2FA            0094A  7373             +
 000946 41D0 C120            00098  7379             +
 000944 A2FE           00946 0094A  7387             +
 00094A 47F0 A302            00952  7389             +
 00094E 58D0 C0AC            00024  7396             +
 000952 4120 0000            00000  7401             +
 000956 4150 C088            00000  7402             +
 00095A 5890 A924/18BA       00F74  7403             +
 000960 18A3/0D99/183A              7405             +
 000966 18AB/50D0 C0AC       00024  7408             +
 00096C 58D0 C0A8/120F       00020  7410             +
0000972                             7413     398.              IF    (#FCNFBLK,Z),BEGIN  Contiguous blocks not available
 000972 D603 C168 C168 000E0 000E0  7423             +
 000978 4770 A386            009D6  7424             +
 00097C 1FEE/BFE7 4012       00012  7429  1  399.                L3    R14,NTGUSSP         Get space used
 000982 5BE0 C04C            00004  7435  1  400.                S     R14,@FCNBLKC        Subtract count of blocks requested
 000986 47B0 A33C/1BEE       0098C  7436  1  401.                IF    NEG,'CLEAR R14'
 00098C BEE7 4012            00012  7456  1  402.                ST3   R14,NTGUSSP         Increment blocks used
 000990 41F0 0004            00004  7458  1  403.                LA    R15,4               Entry changed but no length change
 000994 50D0 C0A8            00020  7459  1  404.                CATCALL CONT              Continue update of account entry
 000998 D603 C0AC C0AC 00024 00024  7471  1          +
 00099E 4770 A356            009A6  7472  1          +
 0009A2 41D0 C120            00098  7478  1          +
 0009A0 A35A           009A2 009A6  7486  1          +
 0009A6 47F0 A35E            009AE  7488  1          +
 0009AA 58D0 C0AC            00024  7495  1          +
 0009AE 4120 000C            0000C  7500  1          +
 0009B2 4150 C088            00000  7501  1          +
 0009B6 5890 A924/18BA       00F74  7502  1          +
 0009BC 18A3/0D99/183A              7504  1          +
 0009C2 18AB/50D0 C0AC       00024  7507  1          +
 0009C8 58D0 C0A8/120F       00020  7509  1          +
 0009CE 4100 0018            00018  7511  1  405.                LA    RVR,24              No more file space
 0009D2 47F0 A464            00AB4  7512  1  406.                B     FCATNIXX            Exit
 0009D6                             7513     407.              END   ,                   Contiguous blocks not available
00009D6 4100 0004            00004  7518     409.              LA    R0,FILEMODE         Indicate file insert
 0009DA 50D0 C0A8            00020  7519     410.              CATCALL INS               Insert
 0009DE D603 C0AC C0AC 00024 00024  7531             +
 0009E4 4770 A39C            009EC  7532             +
 0009E8 41D0 C120            00098  7538             +
 0009E6 A3A0           009E8 009EC  7546             +
 0009EC 47F0 A3A4            009F4  7548             +
 0009F0 58D0 C0AC            00024  7555             +
 0009F4 4120 0002            00002  7560             +
 0009F8 4150 C088            00000  7561             +
 0009FC 5890 A924/18BA       00F74  7562             +
 000A02 18A3/0D99/183A              7564             +
 000A08 18AB/50D0 C0AC       00024  7567             +
 000A0E 58D0 C0A8/120F       00020  7569             +
 000A14 4770 A464            00AB4  7571     411.              IF    NZ,FCATNIXX         Error
1FILECAT  (FILECA) (09:39) (22MAR04) ORVYL'S File Catalog Manager                                                           Page   58
0Current Usings:  (FSB,R3) (NTRYFL,R4) (FCATNIXR,R10) (@FCNIXR-72,R12) (@GRES-72,R13)
0Loc    Object Code    Addr1 Addr2  Stmt Lv Lineno    Source Statement           (Hibal 5, Asmedit 3.3)  HLASM R4.0  2004/03/22 09.39
+___    ______ ____    _____ _____  ____ __ ______    ______ _________
0DROP   NTRYGR,R4                   7586     413.              WITH  (NTRYFL,RJ)
 USING  NTRYFL,R4
 000A18 D202 400A C169 0000A 000E1  7602     414.              MVC   NTFLOC,#FCNFBLK+1   Set first block number
 000A1E D202 400D C04D 0000D 00005  7603     415.              MVC   NTFCNT,@FCNBLKC+1   Set count of records
 000A24 9200 4010      00010        7604     416.              CLEAR NTFCODE             No flags yet
 000A28                             7611     417.              CLEAR NTFUINFO            No user info yet
 000A28 D703 401B 401B 0001B 0001B  7617             +
 000A2E B205 C160      000D8        7618     418.              STCK  #FCNTOD             Got time for this?
 000A32 D203 4013 C160 00013 000D8  7619     419.              MVC   NTFCRDT,#FCNTOD     Set creation date
 000A38 D203 4017 C160 00017 000D8  7620     420.              MVC   NTFLSDT,#FCNTOD     Set last reference date
 000A3E 9200 4011      00011        7621     421.              CLEAR NTFFLGP             No public priv
 000A42 920F 4012      00012        7628     422.              MVI   NTFFLGO,FPALL       All owner priv
 000A46 9610 4010      00010        7629     423.              SET   NTFNIXR             Non-IXR file
 000A4A 9140 C054      0000C        7635     424.              IF    @FCNFHYB,'SET NTFHYBR' Hybrid file type
 000A4E 47E0 A406            00A56  7645             +
 000A52 9604 4010      00010        7656             +
 000A56 41E0 C0EC            00064  7661     425.              LA    R14,RQBLNAME+8      Point past GG.UUU.x
 000A5A 41F0 0001            00001  7662     426.              LA    R15,1               At least one (x in above)
 000A5E 4100 0024            00024  7663     427.              LA    R0,L'RQBLNAME-8     Len to search
 000A62                             7664     428.              LOOP  BEGIN
 000A62 9540 E000      00000        7670  1  429.                IF    ('CLI @R14,C" "',EQ),EXIT That's the end
 000A66 4780 A426            00A76  7680  1          +
 000A6A 41E0 E001            00001  7686  1  430.                LA    R14,@R14+1          Increment name pointer
 000A6E 41F0 F001            00001  7687  1  431.                LA    R15,@R15+1          Increment search length
 000A72 4600 A412            00A62  7688     432.              UNTIL (BCT,R0),END
 000A76 4100 F020            00020  7698     433.              LA    R0,@R15+L'NTRYFL    Set entry length
 000A7A 50D0 C0A8            00020  7699     434.              CATCALL CONT              Continue insert
 000A7E D603 C0AC C0AC 00024 00024  7711             +
 000A84 4770 A43C            00A8C  7712             +
 000A88 41D0 C120            00098  7718             +
 000A86 A440           00A88 00A8C  7726             +
 000A8C 47F0 A444            00A94  7728             +
 000A90 58D0 C0AC            00024  7735             +
 000A94 4120 000C            0000C  7740             +
 000A98 4150 C088            00000  7741             +
 000A9C 5890 A924/18BA       00F74  7742             +
 000AA2 18A3/0D99/183A              7744             +
 000AA8 18AB/50D0 C0AC       00024  7747             +
 000AAE 58D0 C0A8/120F       00020  7749             +
0000AB4                             7752     436.     FCATNIXX LABEL ,
 000AB4 1810                        7754     437.              LR    RS,RVR
 000AB6                             7755     438.              GRREL RID=FSBCGRI         Release catalog hold
 000AB6 D708 D048 D048 00000 00000  7766             +
 000ABC D203 D04C 3028 00004 00028  7771             +
 000AC2 58F0 A92C/0DEF       00F7C  7774             +
 000AC8 1801                        7776     439.              LR    RVR,RS
 000ACA 981F C008            00008  7777     440.              PEND  ,
 DROP   NTRYFL,R4
 USING  NTRYGR,R4
 DROP   NTRYGR,R4
 DROP   FSB,R3
 DROP   @FCNIXR-72,R12
 DROP   FCATNIXR,R10
1FILECAT  (FILECA) (09:39) (22MAR04) ORVYL'S File Catalog Manager                                                           Page   59
0Loc    Object Code    Addr1 Addr2  Stmt Lv Lineno    Source Statement           (Hibal 5, Asmedit 3.3)  HLASM R4.0  2004/03/22 09.39
+___    ______ ____    _____ _____  ____ __ ______    ______ _________
0000ACE 9680 C000/0B0E 00000        7814             +
 DROP   @GRES-72,R13
1FILECAT  (FILECA) (09:39) (22MAR04) ORVYL'S File Catalog Manager                                                           Page   60
0Loc    Object Code    Addr1 Addr2  Stmt Lv Lineno    Source Statement           (Hibal 5, Asmedit 3.3)  HLASM R4.0  2004/03/22 09.39
+___    ______ ____    _____ _____  ____ __ ______    ______ _________
0                                   7824     442.     *---------------------------------------------------------------------*
                                    7825     443.     *  FCATNIXE - Extend a non-IXR file on the end if possible
                                    7826     444.     *
                                    7827     445.     *   Inputs - @FCNIXR
                                    7828     446.     *            Note: if the number of blocks to extend is zero, return
                                    7829     447.     *            the maximum count that would be possible. These blocks
                                    7830     448.     *            are not reserved and can be gone by the time the extend
                                    7831     449.     *            is attempted. Usually this is being done when there are
                                    7832     450.     *            no users on Orvyl and it is not a problem.
                                    7833     451.     *
                                    7834     452.     *   Output - RVR eq 0, was possible and was done
                                    7835     453.     *            Otherwise RVR contains the user return code
                                    7836     454.     *---------------------------------------------------------------------*
 000AD4                             7837     455.     FCATNIXE PROC  @FCNIXR,#FCNIXR,SCOPE=GLOBAL
 000AD4 C6C3C1E3D5C9E7C5            7843             +
 000ADC 0040/00F0                   7844             +
 000AE0 900F D004/18AF       00004  7846             +
 USING  FCATNIXE,R10
 000AE6 50D0 C000/18CD       00000  7861             +
 000AEC 9680 C000      00000        7863             +
 USING  @FCNIXR-72,R12
 AUSING (#FCNIXR,@FCNIXR+64)
 000AF0 41D0 C178            00178  7882             +
 000AF4 5830 C048            00000  7883     456.              L     RB,@FCNFSB          Address FSB
 USING  FSB,R3                      7884     457.              WITH  (FSB,RB)
 USING  NTRYGR,R4                   7897     458.              WITH  (NTRYGR,RJ)         Entry pointer returned by VCAT
 AUSING (RQBL,#FCNRQBL)             7910     459.              WITH  (RQBL,#FCNRQBL)
 USING  @GRES-72,R13                7917     460.              GRGET RID=FSBCGRI,EXCL=YES Get catalog hold
 000AF8 D708 D048 D048 00000 00000  7935             +
 000AFE D203 D04C 3028 00004 00028  7940             +
 000B04 9680 D050      00008        7946             +
 000B08 9640 D050      00008        7952             +
 000B0C 58F0 A488/0DEF       00F68  7955             +
 000B12                             7957     461.              CLEAR RQBL                Set up old block for VCAT
 000B12 D7D3 C088 C088 00000 00000  7963             +
 000B18 D203 C088 A48C 00000 00F6C  7964     462.              MVC   RQBLRQBL,=CL4'RQBL'
0000B1E D203 C10C A490 00084 00F70  7966     464.              MVC   RQBLNAME+L'RQBLNAME-4(4),=CL4' '
 000B24 D227 C0E4 C05B 0005C 00013  7967     465.              MVC   RQBLNAME(L'RQBLNAME-4),@FCNNAME
 000B2A 1BFF                        7968     466.              CLEAR R15                 No length modify
 000B2C 1BEE                        7972     467.              CLEAR R14                 No permits
 000B2E 9180 C054      0000C        7976     468.              IF    ~@FCNFMAG,'LA R14,1' Permits
 000B32 4710 A05A            00B3A  7986             +
 000B36 41E0 0001            00001  7992             +
 000B3A 4100 0000            00000  7997     469.              LA    R0,ACCMODE          Indicate account locate
 000B3E 50D0 C0A8            00020  7998     470.              CATCALL LOOK              Locate account
 000B42 D603 C0AC C0AC 00024 00024  8010             +
 000B48 4770 A070            00B50  8011             +
 000B4C 41D0 C120            00098  8017             +
 000B4A A074           00B4C 00B50  8025             +
 000B50 47F0 A078            00B58  8027             +
 000B54 58D0 C0AC            00024  8034             +
 000B58 4120 0000            00000  8039             +
 000B5C 4150 C088            00000  8040             +
 000B60 5890 A494/18BA       00F74  8041             +
 000B66 18A3/0D99/183A              8043             +
1FILECAT  (FILECA) (09:39) (22MAR04) ORVYL'S File Catalog Manager                                                           Page   61
0Current Usings:  (FSB,R3) (NTRYGR,R4) (FCATNIXE,R10) (@FCNIXR-72,R12) (@GRES-72,R13)
0Loc    Object Code    Addr1 Addr2  Stmt Lv Lineno    Source Statement           (Hibal 5, Asmedit 3.3)  HLASM R4.0  2004/03/22 09.39
+___    ______ ____    _____ _____  ____ __ ______    ______ _________
0000B6C 18AB/50D0 C0AC       00024  8046             +
 000B72 58D0 C0A8/120F       00020  8048             +
0000B78 4780 A0A4            00B84  8051     472.              IF    NZ,BEGIN            Account not there
 000B7C 4100 0014            00014  8062  1  473.                LA    RVR,20
 000B80 47F0 A464            00F44  8063  1  474.                B     FCATNIEX
 000B84                             8064     475.              END   ,                   Account not there
0000B84 9180 C054      0000C        8069     477.              IF    (~@FCNFMAG),BEGIN   Not magic account
 000B88 4710 A0CE            00BAE  8079             +
 DROP   @GRES-72,R13                8084  1  478.                LOCAP @FCNACC             Find permits for account
 USING  @LOCPERM-72,R13
 000B8C D70A D048 D048 00000 00000  8105  1          +
 000B92 4100 4000            00000  8117  1          +
 000B96 5000 D048            00000  8122  1          +
 000B9A D205 D04C C055 00004 0000D  8127  1          +
 000BA0 9640 D052      0000A        8133  1          +
 000BA4 58F0 A498/0DEF       00F78  8139  1          +
 000BAA 4200 C170            000E8  8141  1  479.                STC   RVR,#FCNPERM        Set permits
 000BAE                             8142     480.              END   ,
0                                   8147     482.     * Check if file already exists
 000BAE 1BFF                        8148     483.              CLEAR R15                 No length modify
 000BB0 1BEE                        8152     484.              CLEAR R14                 No permits
 000BB2 9180 C054      0000C        8156     485.              IF    ~@FCNFMAG,'LA R14,1' Permits
 000BB6 4710 A0DE            00BBE  8166             +
 000BBA 41E0 0001            00001  8172             +
 000BBE 4100 0004            00004  8177     486.              LA    R0,FILEMODE         Indicate file locate
 000BC2 50D0 C0A8            00020  8178     487.              CATCALL LOOK              Locate the file
 000BC6 D603 C0AC C0AC 00024 00024  8190             +
 000BCC 4770 A0F4            00BD4  8191             +
 000BD0 41D0 C120            00098  8197             +
 000BCE A0F8           00BD0 00BD4  8205             +
 000BD4 47F0 A0FC            00BDC  8207             +
 000BD8 58D0 C0AC            00024  8214             +
 000BDC 4120 0000            00000  8219             +
 000BE0 4150 C088            00000  8220             +
 000BE4 5890 A494/18BA       00F74  8221             +
 000BEA 18A3/0D99/183A              8223             +
 000BF0 18AB/50D0 C0AC       00024  8226             +
 000BF6 58D0 C0A8/120F       00020  8228             +
 000BFC 4780 A128            00C08  8230     488.              IF    NZ,BEGIN            File not found
 000C00 4100 0014            00014  8241  1  489.                LA    RVR,20
 000C04 47F0 A464            00F44  8242  1  490.                B     FCATNIEX
 000C08                             8243     491.              END   ,
0000C08 9180 C054      0000C        8248     493.              IF    (~@FCNFMAG),BEGIN   Not magic account
 000C0C 4710 A164            00C44  8258             +
 000C10                             8263  1  494.                LOCFP @FCNACC             Find permits for account
 000C10 D70A D048 D048 00000 00000  8274  1          +
 000C16 4100 4000            00000  8286  1          +
 000C1A 5000 D048            00000  8291  1          +
 000C1E D205 D04C C055 00004 0000D  8296  1          +
 000C24 9680 D052      0000A        8302  1          +
1FILECAT  (FILECA) (09:39) (22MAR04) ORVYL'S File Catalog Manager                                                           Page   62
0Current Usings:  (FSB,R3) (NTRYGR,R4) (FCATNIXE,R10) (@FCNIXR-72,R12) (@LOCPERM-72,R13)
0Loc    Object Code    Addr1 Addr2  Stmt Lv Lineno    Source Statement           (Hibal 5, Asmedit 3.3)  HLASM R4.0  2004/03/22 09.39
+___    ______ ____    _____ _____  ____ __ ______    ______ _________
0000C28 58F0 A498/0DEF       00F78  8308  1          +
 000C2E 43E0 C170            000E8  8310  1  495.                IC    R14,#FCNPERM        Get global permits
 000C32 16E0                        8311  1  496.                OR    R14,RVR             Add file permits
 000C34 42E0 C170            000E8  8312  1  497.                STC   R14,#FCNPERM        Set permits
 000C38 4100 0010            00010  8313  1  498.                LA    RVR,16              No access
 000C3C 9104 C170      000E8        8314  1  499.                IF    (#FCNPERM.FPW,Z),FCATNIEX Can't extend a file
 000C40 4780 A464            00F44  8329  1          +
 000C44                             8335     500.              END   ,
0000C44 4100 0018            00018  8340     502.              LA    RVR,24
 000C48 9110 4010      00010        8341     503.              IF    ~NTFNIXR,FCATNIEX   Must be non-IXR
 000C4C 47E0 A464            00F44  8353             +
 000C50 947F C171      000E9        8359     504.              CLEAR #FCNFHYB
 000C54 9104 4010      00010        8366     505.              IF    NTFHYBR,'SET #FCNFHYB' Indicate hybrid file
 000C58 47E0 A180            00C60  8376             +
 000C5C 9680 C171      000E9        8387             +
0000C60 1F99/BF97 400A       0000A  8393     507.              L3    RN,NTFLOC           Get first block
 000C66 5090 C168            000E0  8399     508.              ST    RN,#FCNFBLK         Save
 000C6A 1FFF/BFF7 400D       0000D  8400     509.              L3    R15,NTFCNT          Count of blocks
 000C70 1A9F                        8406     510.              AR    RN,R15              Calc first block of extention
 000C72 5090 C16C            000E4  8407     511.              ST    RN,#FCNFEXT         Save first block of extention
0000C76 4100 000C            0000C  8409     513.              LA    RVR,12              Set no catalog room
 000C7A 910C 3009      00009        8410     514.              IF    FSBCATNIN+FSBCATNLM,FCATNIEX
 000C7E 4770 A464            00F44  8425             +
 000C82                             8431     515.              IF    (@FCNBLKC,NZ),BEGIN If not a determine max possible
 000C82 D603 C04C C04C 00004 00004  8441             +
 000C88 4780 A248            00D28  8442             +
 000C8C 1BEE                        8447  1  516.                CLEAR R14                 No permits
 000C8E 4100 0000            00000  8451  1  517.                LA    R0,ACCMODE          Indicate account locate
 000C92 50D0 C0A8            00020  8452  1  518.                CATCALL LOOK              Locate account
 000C96 D603 C0AC C0AC 00024 00024  8464  1          +
 000C9C 4770 A1C4            00CA4  8465  1          +
 000CA0 41D0 C120            00098  8471  1          +
 000C9E A1C8           00CA0 00CA4  8479  1          +
 000CA4 47F0 A1CC            00CAC  8481  1          +
 000CA8 58D0 C0AC            00024  8488  1          +
 000CAC 4120 0000            00000  8493  1          +
 000CB0 4150 C088            00000  8494  1          +
 000CB4 5890 A494/18BA       00F74  8495  1          +
 000CBA 18A3/0D99/183A              8497  1          +
 000CC0 18AB/50D0 C0AC       00024  8500  1          +
 000CC6 58D0 C0A8/120F       00020  8502  1          +
 000CCC 1FEE/BFE7 4012       00012  8504  1  519.                L3    R14,NTGUSSP         Get space used
 000CD2 1FFF/BFF7 400F       0000F  8510  1  520.                L3    R15,NTGMXSP         Get space allowed
 000CD8 5AE0 C04C            00004  8516  1  521.                A     R14,@FCNBLKC        Add count of blocks requested
 000CDC 4100 0008            00008  8517  1  522.                LA    RVR,8
 000CE0 19EF/4720 A464       00F44  8518  1  523.                IF    (R14,GT,R15),FCATNIEX Not enough file space
 000CE6 BEE7 4012            00012  8536  1  524.                ST3   R14,NTGUSSP         Increment blocks used
 000CEA 41F0 0004            00004  8538  1  525.                LA    R15,4               Entry changed but no length change
 000CEE 50D0 C0A8            00020  8539  1  526.                CATCALL CONT              Continue update of account entry
 000CF2 D603 C0AC C0AC 00024 00024  8551  1          +
 000CF8 4770 A220            00D00  8552  1          +
1FILECAT  (FILECA) (09:39) (22MAR04) ORVYL'S File Catalog Manager                                                           Page   63
0Current Usings:  (FSB,R3) (NTRYGR,R4) (FCATNIXE,R10) (@FCNIXR-72,R12) (@LOCPERM-72,R13)
0Loc    Object Code    Addr1 Addr2  Stmt Lv Lineno    Source Statement           (Hibal 5, Asmedit 3.3)  HLASM R4.0  2004/03/22 09.39
+___    ______ ____    _____ _____  ____ __ ______    ______ _________
0000CFC 41D0 C120            00098  8558  1          +
 000CFA A224           00CFC 00D00  8566  1          +
 000D00 47F0 A228            00D08  8568  1          +
 000D04 58D0 C0AC            00024  8575  1          +
 000D08 4120 000C            0000C  8580  1          +
 000D0C 4150 C088            00000  8581  1          +
 000D10 5890 A494/18BA       00F74  8582  1          +
 000D16 18A3/0D99/183A              8584  1          +
 000D1C 18AB/50D0 C0AC       00024  8587  1          +
 000D22 58D0 C0A8/120F       00020  8589  1          +
 000D28                             8591     527.              END   ,                   If not a determine max possible
0DROP   @LOCPERM-72,R13             8596     529.              GRREL RID=FSBCGRI         Release catalog hold
 USING  @GRES-72,R13
 000D28 D708 D048 D048 00000 00000  8617             +
 000D2E D203 D04C 3028 00004 00028  8622             +
 000D34 58F0 A49C/0DEF       00F7C  8625             +
 000D3A 5800 C04C            00004  8627     530.              L     RVR,@FCNBLKC        Get block count
 000D3E 5810 C16C            000E4  8628     531.              L     RS,#FCNFEXT         Get first block of extention
 DROP   @GRES-72,R13                8629     532.              PSET  @FMFSB
 USING  @FMFSB-72,R13
 000D42 D704 D048 D048 00000 00000  8649             +
 000D48 5030 D048            00000  8650     533.              PMOV  @FMFSBP,LA:FSB
 000D4C 58F0 A4A8/0DEF       00F88  8661     534.              VCALL FBITEXTN            Get this many contiguous
0000D52                             8666     536.              IF    (@FCNBLKC,Z),BEGIN  If determine max possible
 000D52 D603 C04C C04C 00004 00004  8676             +
 000D58 4770 A288            00D68  8677             +
 000D5C 5000 C04C            00004  8682  1  537.                ST    RVR,@FCNBLKC        Save count possible
 000D60 4100 0004            00004  8683  1  538.                LA    RVR,4               Not able to do it
 000D64 47F0 A47A            00F5A  8684  1  539.                EXIT  FCATNIXE            Done
 000D68                             8687     540.              END   ,                   If determine max possible
0000D68 1890                        8692     542.              LR    RN,RVR              Save return code
 000D6A 9180 C171      000E9        8693     543.              IF    (#FCNFHYB,AND,(RN,Z)),BEGIN Initialize new recs
 000D6E 47E0 A2C4/1299       00DA4  8705             +
 000D74 4770 A2C4            00DA4  8716             +
 DROP   @FMFSB-72,R13               8721  1  544.                PSET  @FMIXRAD
 USING  @FMIXRAD-72,R13
 000D78 D737 D048 D048 00000 00000  8741  1          +
 000D7E 5030 D048            00000  8742  1  545.                PMOV  @FMIXFSB,LA:FSB
 000D82 D227 D04C C0E4 00004 0005C  8753  1  546.                MVC   @FMIXNAM,RQBLNAME
 000D88 5000 D074            0002C  8754  1  547.                ST    RVR,@FMIXBLK        Set first block number
 000D8C D203 D078 C04C 00030 00004  8755  1  548.                MVC   @FMIXCNT,@FCNBLKC   Set count of blocks to init
 000D92 D203 D074 C168 0002C 000E0  8756  1  549.                MVC   @FMIXBLK,#FCNFBLK
 000D98 D203 D07C C16C 00034 000E4  8757  1  550.                MVC   @FMIXEXT,#FCNFEXT   First block of extention
 000D9E 58F0 A4A4/0DEF       00F84  8758  1  551.                VCALL FMHYINIT            Initialize
 000DA4                             8762     552.              END   ,                   Initialize new recs
0DROP   @FMIXRAD-72,R13             8767     554.              GRGET RID=FSBCGRI,EXCL=YES Get catalog hold
 USING  @GRES-72,R13
 000DA4 D708 D048 D048 00000 00000  8788             +
 000DAA D203 D04C 3028 00004 00028  8793             +
 000DB0 9680 D050      00008        8799             +
1FILECAT  (FILECA) (09:39) (22MAR04) ORVYL'S File Catalog Manager                                                           Page   64
0Current Usings:  (FSB,R3) (NTRYGR,R4) (FCATNIXE,R10) (@FCNIXR-72,R12) (@GRES-72,R13)
0Loc    Object Code    Addr1 Addr2  Stmt Lv Lineno    Source Statement           (Hibal 5, Asmedit 3.3)  HLASM R4.0  2004/03/22 09.39
+___    ______ ____    _____ _____  ____ __ ______    ______ _________
0000DB4 9640 D050      00008        8805             +
 000DB8 58F0 A488/0DEF       00F68  8808             +
 000DBE 1299/4780 A382       00E62  8810     555.              IF    (RN,NZ),BEGIN       Requested blocks not available
 000DC4 5090 C04C            00004  8824  1  556.                ST    RN,@FCNBLKC         Save count possible
 000DC8 1BEE                        8825  1  557.                CLEAR R14                 No permits
 000DCA 4100 0000            00000  8829  1  558.                LA    R0,ACCMODE          Indicate account locate
 000DCE 50D0 C0A8            00020  8830  1  559.                CATCALL LOOK              Locate account
 000DD2 D603 C0AC C0AC 00024 00024  8842  1          +
 000DD8 4770 A300            00DE0  8843  1          +
 000DDC 41D0 C120            00098  8849  1          +
 000DDA A304           00DDC 00DE0  8857  1          +
 000DE0 47F0 A308            00DE8  8859  1          +
 000DE4 58D0 C0AC            00024  8866  1          +
 000DE8 4120 0000            00000  8871  1          +
 000DEC 4150 C088            00000  8872  1          +
 000DF0 5890 A494/18BA       00F74  8873  1          +
 000DF6 18A3/0D99/183A              8875  1          +
 000DFC 18AB/50D0 C0AC       00024  8878  1          +
 000E02 58D0 C0A8/120F       00020  8880  1          +
 000E08 1FEE/BFE7 4012       00012  8882  1  560.                L3    R14,NTGUSSP         Get space used
 000E0E 5BE0 C04C            00004  8888  1  561.                S     R14,@FCNBLKC        Subtract count of blocks requested
 000E12 47B0 A338/1BEE       00E18  8889  1  562.                IF    NEG,'CLEAR R14'
 000E18 BEE7 4012            00012  8909  1  563.                ST3   R14,NTGUSSP         Increment blocks used
 000E1C 41F0 0004            00004  8911  1  564.                LA    R15,4               Entry changed but no length change
 000E20 50D0 C0A8            00020  8912  1  565.                CATCALL CONT              Continue update of account entry
 000E24 D603 C0AC C0AC 00024 00024  8924  1          +
 000E2A 4770 A352            00E32  8925  1          +
 000E2E 41D0 C120            00098  8931  1          +
 000E2C A356           00E2E 00E32  8939  1          +
 000E32 47F0 A35A            00E3A  8941  1          +
 000E36 58D0 C0AC            00024  8948  1          +
 000E3A 4120 000C            0000C  8953  1          +
 000E3E 4150 C088            00000  8954  1          +
 000E42 5890 A494/18BA       00F74  8955  1          +
 000E48 18A3/0D99/183A              8957  1          +
 000E4E 18AB/50D0 C0AC       00024  8960  1          +
 000E54 58D0 C0A8/120F       00020  8962  1          +
 000E5A 4100 0004            00004  8964  1  566.                LA    RVR,4               Not able to do it
 000E5E 47F0 A464            00F44  8965  1  567.                B     FCATNIEX            Exit
 000E62                             8966     568.              END   ,                   Contiguous blocks not available
0000E62 1BEE                        8971     570.              CLEAR R14                 No permits
 000E64 4100 0000            00000  8975     571.              LA    R0,ACCMODE          Indicate account locate
 000E68 50D0 C0A8            00020  8976     572.              CATCALL LOOK              Locate account again
 000E6C D603 C0AC C0AC 00024 00024  8988             +
 000E72 4770 A39A            00E7A  8989             +
 000E76 41D0 C120            00098  8995             +
 000E74 A39E           00E76 00E7A  9003             +
 000E7A 47F0 A3A2            00E82  9005             +
 000E7E 58D0 C0AC            00024  9012             +
 000E82 4120 0000            00000  9017             +
 000E86 4150 C088            00000  9018             +
 000E8A 5890 A494/18BA       00F74  9019             +
 000E90 18A3/0D99/183A              9021             +
1FILECAT  (FILECA) (09:39) (22MAR04) ORVYL'S File Catalog Manager                                                           Page   65
0Current Usings:  (FSB,R3) (NTRYGR,R4) (FCATNIXE,R10) (@FCNIXR-72,R12) (@GRES-72,R13)
0Loc    Object Code    Addr1 Addr2  Stmt Lv Lineno    Source Statement           (Hibal 5, Asmedit 3.3)  HLASM R4.0  2004/03/22 09.39
+___    ______ ____    _____ _____  ____ __ ______    ______ _________
0000E96 18AB/50D0 C0AC       00024  9024             +
 000E9C 58D0 C0A8/120F       00020  9026             +
0000EA2 1BEE                        9029     574.              CLEAR R14                 No permits
 000EA4 4100 0004            00004  9033     575.              LA    R0,FILEMODE         Indicate file locate
 000EA8 50D0 C0A8            00020  9034     576.              CATCALL LOOK              Locate file
 000EAC D603 C0AC C0AC 00024 00024  9046             +
 000EB2 4770 A3DA            00EBA  9047             +
 000EB6 41D0 C120            00098  9053             +
 000EB4 A3DE           00EB6 00EBA  9061             +
 000EBA 47F0 A3E2            00EC2  9063             +
 000EBE 58D0 C0AC            00024  9070             +
 000EC2 4120 0000            00000  9075             +
 000EC6 4150 C088            00000  9076             +
 000ECA 5890 A494/18BA       00F74  9077             +
 000ED0 18A3/0D99/183A              9079             +
 000ED6 18AB/50D0 C0AC       00024  9082             +
 000EDC 58D0 C0A8/120F       00020  9084             +
0000EE2 4780 A40E            00EEE  9087     578.              IF    NZ,BEGIN
 000EE6 4100 0014            00014  9098  1  579.                LA    RVR,20              Deleted that fast?
 000EEA 47F0 A464            00F44  9099  1  580.                B     FCATNIEX
 000EEE                             9100     581.              END   ,
0000EEE 1FFF/BFF7 400D       0000D  9105     583.              L3    R15,NTFCNT          Count of blocks
 000EF4 5AF0 C04C            00004  9111     584.              A     R15,@FCNBLKC        Add count of blocks requested
 000EF8 BEF7 400D            0000D  9112     585.              ST3   R15,NTFCNT          Count of blocks
 000EFC B205 C160      000D8        9114     586.              STCK  #FCNTOD             Got time for this?
 000F00 D203 4017 C160 00017 000D8  9115     587.              MVC   NTFLSDT,#FCNTOD     Set last reference date
0000F06 41F0 0004            00004  9117     589.              LA    R15,4               Entry changed but no length change
 000F0A 50D0 C0A8            00020  9118     590.              CATCALL CONT              Continue update of file entry
 000F0E D603 C0AC C0AC 00024 00024  9130             +
 000F14 4770 A43C            00F1C  9131             +
 000F18 41D0 C120            00098  9137             +
 000F16 A440           00F18 00F1C  9145             +
 000F1C 47F0 A444            00F24  9147             +
 000F20 58D0 C0AC            00024  9154             +
 000F24 4120 000C            0000C  9159             +
 000F28 4150 C088            00000  9160             +
 000F2C 5890 A494/18BA       00F74  9161             +
 000F32 18A3/0D99/183A              9163             +
 000F38 18AB/50D0 C0AC       00024  9166             +
 000F3E 58D0 C0A8/120F       00020  9168             +
0000F44                             9171     592.     FCATNIEX LABEL ,
 000F44 1810                        9173     593.              LR    RS,RVR
 000F46                             9174     594.              GRREL RID=FSBCGRI         Release catalog hold
 000F46 D708 D048 D048 00000 00000  9185             +
 000F4C D203 D04C 3028 00004 00028  9190             +
 000F52 58F0 A49C/0DEF       00F7C  9193             +
 000F58 1801                        9195     595.              LR    RVR,RS
 000F5A 981F C008            00008  9196     596.              PEND  ,
 DROP   NTRYGR,R4
1FILECAT  (FILECA) (09:39) (22MAR04) ORVYL'S File Catalog Manager                                                           Page   66
0Current Usings:  (@GRES-72,R13)
0Loc    Object Code    Addr1 Addr2  Stmt Lv Lineno    Source Statement           (Hibal 5, Asmedit 3.3)  HLASM R4.0  2004/03/22 09.39
+___    ______ ____    _____ _____  ____ __ ______    ______ _________
0DROP   FSB,R3
 DROP   @FCNIXR-72,R12
 DROP   FCATNIXE,R10
 000F5E 9680 C000/0B0E 00000        9221             +
 DROP   @GRES-72,R13
 000F68                             9230     597.              LTORG ,
 000F68 00000000                    9232                             =V(GRGET)
 000F6C D9D8C2D3                    9233                             =CL4'RQBL'
 000F70 40404040                    9234                             =CL4' '
 000F74 00000000                    9235                             =V(VCATENT)
 000F78 00002A46                    9236                             =A(LOCPERM)
 000F7C 00000000                    9237                             =V(GRREL)
 000F80 00000000                    9238                             =V(FBITGCON)
 000F84 00000000                    9239                             =V(FMHYINIT)
 000F88 00000000       00F8C 03048  9240                             =V(FBITEXTN)
1FILECAT  (FILECA) (09:39) (22MAR04) ORVYL'S File Catalog Manager                                                           Page   67
0Loc    Object Code    Addr1 Addr2  Stmt Lv Lineno    Source Statement           (Hibal 5, Asmedit 3.3)  HLASM R4.0  2004/03/22 09.39
+___    ______ ____    _____ _____  ____ __ ______    ______ _________
0                                   9245     599.     *---------------------------------------------------------------------*
                                    9246     600.     *  FCATGSPA - Get account file space (increment blocks used)
                                    9247     601.     *
                                    9248     602.     *   Inputs - @FCACMOD
                                    9249     603.     *
                                    9250     604.     *   Output -
                                    9251     605.     *
                                    9252     606.     *---------------------------------------------------------------------*
 000F8C                             9253     607.     FCATGSPA PROC  @FCACMOD,RQBL,SCOPE=GLOBAL
 000F8C C6C3C1E3C7E2D7C1            9259             +
 000F94 0010/00D8                   9260             +
 000F98 900F D004/18AF       00004  9262             +
 USING  FCATGSPA,R10
 000F9E 50D0 C000/18CD       00000  9277             +
 000FA4 9680 C000      00000        9279             +
 USING  @FCACMOD-72,R12
 AUSING (RQBL,@FCACMOD+16)
 000FA8 41D0 C130            00130  9298             +
 USING  FSB,R3                      9299     608.              WITH  (FSB,RB)
 USING  NTRYGR,R4                   9312     609.              WITH  (NTRYGR,RJ)         Entry pointer returned by VCAT
 000FAC 5830 C048            00000  9325     610.              L     RB,@FCACFSB         Get FSB pointer
 USING  @GRES-72,R13                9326     611.              GRGET RID=FSBCGRI,EXCL=YES Get catalog hold
 000FB0 D708 D048 D048 00000 00000  9344             +
 000FB6 D203 D04C 3028 00004 00028  9349             +
 000FBC 9680 D050      00008        9355             +
 000FC0 9640 D050      00008        9361             +
 000FC4 58F0 A790/0DEF       01728  9364             +
0000FCA                             9367     613.              CLEAR RQBL                Set up old block for VCAT
 000FCA D7D3 C058 C058 00000 00000  9373             +
 000FD0 D203 C058 A794 00000 0172C  9374     614.              MVC   RQBLRQBL,=CL4'RQBL'
 000FD6 D205 C0B4 C050 0005C 00008  9375     615.              MVC   RQBLNAME(L'@FCACCNT),@FCACCNT Set account
 000FDC 1BEE                        9376     616.              CLEAR R14                 No permits
 000FDE 4100 0000            00000  9380     617.              LA    R0,ACCMODE          Indicate account locate
 000FE2 50D0 C078            00020  9381     618.              CATCALL LOOK              Locate account
 000FE6 D603 C07C C07C 00024 00024  9393             +
 000FEC 4770 A05C            00FF4  9394             +
 000FF0 41D0 C0F0            00098  9400             +
 000FEE A060           00FF0 00FF4  9408             +
 000FF4 47F0 A064            00FFC  9410             +
 000FF8 58D0 C07C            00024  9417             +
 000FFC 4120 0000            00000  9422             +
 001000 4150 C058            00000  9423             +
 001004 5890 A798/18BA       01730  9424             +
 00100A 18A3/0D99/183A              9426             +
 001010 18AB/50D0 C07C       00024  9429             +
 001016 58D0 C078/120F       00020  9431             +
 00101C 4780 A0B8            01050  9433     619.              IF    NZ,'ABORT FCATGSPA_NOTFND'
 USING  PZERO,R0
 001020 AC04 021B      0021B        9457  1          +
 001024 9680 021A      0021A        9463  1          +
 001028 50F0 021C            0021C  9464  1          +
 00102C 58F0 0210            00210  9465  1          +
 001030 89F0 0010            00010  9466  1          +
 001034 88F0 0010            00010  9467  1          +
 001038 41F0 F000            00000  9468  1          +
1FILECAT  (FILECA) (09:39) (22MAR04) ORVYL'S File Catalog Manager                                                           Page   68
0Current Usings:  (PZERO,R0) (FSB,R3) (NTRYGR,R4) (FCATGSPA,R10) (@FCACMOD-72,R12) (@GRES-72,R13)
0Loc    Object Code    Addr1 Addr2  Stmt Lv Lineno    Source Statement           (Hibal 5, Asmedit 3.3)  HLASM R4.0  2004/03/22 09.39
+___    ______ ____    _____ _____  ____ __ ______    ______ _________
000103C AEFF 0006            00006  9469  1          +
 001040 C6C3C1E3C7E2D7C1            9470             +
 DROP   PZERO,R0
 001050 1FEE/BFE7 4012       00012  9483     620.              L3    R14,NTGUSSP         Get blocks already used
 001056 1FFF/BFF7 400F       0000F  9489     621.              L3    R15,NTGMXSP         Get max allowed
 00105C 1BFE                        9495     622.              SR    R15,R14             Calc number left
 00105E 4720 A0CE            01066  9496     623.              IF    NP,'LA RS,16'       Can't have any!
 001062 4110 0010            00010  9508             +
 001066 A0D2           01066 01060  9513     624.              ELSE  BEGIN               Some left
 001066 47F0 A12C            010C4  9518             +
 00106A 59F0 C04C            00004  9524  1  625.                IF    (R15,GT,@FCACSPA),'L R15,@FCACSPA' Get desired amount
 00106E 47D0 A0DE            01076  9536  1          +
 001072 58F0 C04C            00004  9542  1          +
 001076 A0E2           01076 01070  9547  1  626.                ELSE  'ST R15,@FCACSPA'   Can only have this much
 001076 47F0 A0E6            0107E  9552  1          +
 00107A 50F0 C04C            00004  9559  1          +
 00107E 1AFE                        9564  1  627.                AR    R15,R14             Calc new total
 001080 BEF7 4012            00012  9565  1  628.                ST3   R15,NTGUSSP         Set new amount used
 001084 41F0 0004            00004  9567  1  629.                LA    R15,4               Entry changed but no length change
 001088 50D0 C078            00020  9568  1  630.                CATCALL CONT              Continue update of account entry
 00108C D603 C07C C07C 00024 00024  9580  1          +
 001092 4770 A102            0109A  9581  1          +
 001096 41D0 C0F0            00098  9587  1          +
 001094 A106           01096 0109A  9595  1          +
 00109A 47F0 A10A            010A2  9597  1          +
 00109E 58D0 C07C            00024  9604  1          +
 0010A2 4120 000C            0000C  9609  1          +
 0010A6 4150 C058            00000  9610  1          +
 0010AA 5890 A798/18BA       01730  9611  1          +
 0010B0 18A3/0D99/183A              9613  1          +
 0010B6 18AB/50D0 C07C       00024  9616  1          +
 0010BC 58D0 C078/120F       00020  9618  1          +
 0010C2 1B11                        9620  1  631.                CLEAR RS                  Good return
 0010C4                             9624     632.              END   ,
00010C4                             9629     634.              GRREL RID=FSBCGRI         Release catalog hold
 0010C4 D708 D048 D048 00000 00000  9640             +
 0010CA D203 D04C 3028 00004 00028  9645             +
 0010D0 58F0 A79C/0DEF       01734  9648             +
 0010D6 1801                        9650     635.              LR    RVR,RS
 0010D8 981F C008            00008  9651     636.              PEND  ,
 DROP   NTRYGR,R4
 DROP   FSB,R3
 DROP   @FCACMOD-72,R12
 DROP   FCATGSPA,R10
 0010DC 9680 C000/0B0E 00000        9676             +
 DROP   @GRES-72,R13
1FILECAT  (FILECA) (09:39) (22MAR04) ORVYL'S File Catalog Manager                                                           Page   69
0Loc    Object Code    Addr1 Addr2  Stmt Lv Lineno    Source Statement           (Hibal 5, Asmedit 3.3)  HLASM R4.0  2004/03/22 09.39
+___    ______ ____    _____ _____  ____ __ ______    ______ _________
0                                   9686     638.     *---------------------------------------------------------------------*
                                    9687     639.     *  FCATPSPA -  Put account file space (decrement blocks used)
                                    9688     640.     *
                                    9689     641.     *   Inputs - @FCACMOD
                                    9690     642.     *
                                    9691     643.     *   Output -
                                    9692     644.     *
                                    9693     645.     *---------------------------------------------------------------------*
 0010E2                             9694     646.     FCATPSPA PROC  @FCACMOD,RQBL,SCOPE=GLOBAL
 0010E2 C6C3C1E3D7E2D7C1            9700             +
 0010EA 0010/00D8                   9701             +
 0010EE 900F D004/18AF       00004  9703             +
 USING  FCATPSPA,R10
 0010F4 50D0 C000/18CD       00000  9718             +
 0010FA 9680 C000      00000        9720             +
 USING  @FCACMOD-72,R12
 AUSING (RQBL,@FCACMOD+16)
 0010FE 41D0 C130            00130  9739             +
 USING  FSB,R3                      9740     647.              WITH  (FSB,RB)
 USING  NTRYGR,R4                   9753     648.              WITH  (NTRYGR,RJ)         Entry pointer returned by VCAT
 001102 5830 C048            00000  9766     649.              L     RB,@FCACFSB         Get FSB pointer
 USING  @GRES-72,R13                9767     650.              GRGET RID=FSBCGRI,EXCL=YES Get catalog hold
 001106 D708 D048 D048 00000 00000  9785             +
 00110C D203 D04C 3028 00004 00028  9790             +
 001112 9680 D050      00008        9796             +
 001116 9640 D050      00008        9802             +
 00111A 58F0 A63A/0DEF       01728  9805             +
0001120                             9808     652.              CLEAR RQBL                Set up old block for VCAT
 001120 D7D3 C058 C058 00000 00000  9814             +
 001126 D203 C058 A63E 00000 0172C  9815     653.              MVC   RQBLRQBL,=CL4'RQBL'
 00112C D205 C0B4 C050 0005C 00008  9816     654.              MVC   RQBLNAME(L'@FCACCNT),@FCACCNT Set account
 001132 1BEE                        9817     655.              CLEAR R14                 No permits
 001134 4100 0000            00000  9821     656.              LA    R0,ACCMODE          Indicate account locate
 001138 50D0 C078            00020  9822     657.              CATCALL LOOK              Locate account
 00113C D603 C07C C07C 00024 00024  9834             +
 001142 4770 A05C            0114A  9835             +
 001146 41D0 C0F0            00098  9841             +
 001144 A060           01146 0114A  9849             +
 00114A 47F0 A064            01152  9851             +
 00114E 58D0 C07C            00024  9858             +
 001152 4120 0000            00000  9863             +
 001156 4150 C058            00000  9864             +
 00115A 5890 A642/18BA       01730  9865             +
 001160 18A3/0D99/183A              9867             +
 001166 18AB/50D0 C07C       00024  9870             +
 00116C 58D0 C078/120F       00020  9872             +
 001172 4780 A0B8            011A6  9874     658.              IF    NZ,'ABORT FCATPSPA_NOTFND'
 USING  PZERO,R0
 001176 AC04 021B      0021B        9898  1          +
 00117A 9680 021A      0021A        9904  1          +
 00117E 50F0 021C            0021C  9905  1          +
 001182 58F0 0210            00210  9906  1          +
 001186 89F0 0010            00010  9907  1          +
 00118A 88F0 0010            00010  9908  1          +
 00118E 41F0 F000            00000  9909  1          +
1FILECAT  (FILECA) (09:39) (22MAR04) ORVYL'S File Catalog Manager                                                           Page   70
0Current Usings:  (PZERO,R0) (FSB,R3) (NTRYGR,R4) (FCATPSPA,R10) (@FCACMOD-72,R12) (@GRES-72,R13)
0Loc    Object Code    Addr1 Addr2  Stmt Lv Lineno    Source Statement           (Hibal 5, Asmedit 3.3)  HLASM R4.0  2004/03/22 09.39
+___    ______ ____    _____ _____  ____ __ ______    ______ _________
0001192 AEFF 0006            00006  9910  1          +
 001196 C6C3C1E3D7E2D7C1            9911             +
 DROP   PZERO,R0
 0011A6 1FEE/BFE7 4012       00012  9924     659.              L3    R14,NTGUSSP         Get blocks already used
 0011AC 5BE0 C04C            00004  9930     660.              S     R14,@FCACSPA        Subtract those given back
 0011B0 47B0 A0C8/1BEE       011B6  9931     661.              IF    NEG,'CLEAR R14'     Can't be too little
 0011B6 BEE7 4012            00012  9951     662.              ST3   R14,NTGUSSP         Set new amount used
 0011BA 41F0 0004            00004  9953     663.              LA    R15,4               Entry changed but no length change
 0011BE 50D0 C078            00020  9954     664.              CATCALL CONT              Continue update of account entry
 0011C2 D603 C07C C07C 00024 00024  9966             +
 0011C8 4770 A0E2            011D0  9967             +
 0011CC 41D0 C0F0            00098  9973             +
 0011CA A0E6           011CC 011D0  9981             +
 0011D0 47F0 A0EA            011D8  9983             +
 0011D4 58D0 C07C            00024  9990             +
 0011D8 4120 000C            0000C  9995             +
 0011DC 4150 C058            00000  9996             +
 0011E0 5890 A642/18BA       01730  9997             +
 0011E6 18A3/0D99/183A              9999             +
 0011EC 18AB/50D0 C07C       00024 10002             +
 0011F2 58D0 C078/120F       00020 10004             +
 0011F8 1B11                       10006     665.              CLEAR RS
00011FA                            10011     667.              GRREL RID=FSBCGRI         Release catalog hold
 0011FA D708 D048 D048 00000 00000 10022             +
 001200 D203 D04C 3028 00004 00028 10027             +
 001206 58F0 A646/0DEF       01734 10030             +
 00120C 1801                       10032     668.              LR    RVR,RS
 00120E 981F C008            00008 10033     669.              PEND  ,
 DROP   NTRYGR,R4
 DROP   FSB,R3
 DROP   @FCACMOD-72,R12
 DROP   FCATPSPA,R10
 001212 9680 C000/0B0E 00000       10058             +
 DROP   @GRES-72,R13
1FILECAT  (FILECA) (09:39) (22MAR04) ORVYL'S File Catalog Manager                                                           Page   71
0Loc    Object Code    Addr1 Addr2  Stmt Lv Lineno    Source Statement           (Hibal 5, Asmedit 3.3)  HLASM R4.0  2004/03/22 09.39
+___    ______ ____    _____ _____  ____ __ ______    ______ _________
0                                  10068     671.     *---------------------------------------------------------------------*
                                   10069     672.     *  FCATUSPA -  Set used account space
                                   10070     673.     *
                                   10071     674.     *   Inputs - @FCACMOD
                                   10072     675.     *
                                   10073     676.     *   Output -
                                   10074     677.     *
                                   10075     678.     *---------------------------------------------------------------------*
 001218                            10076     679.     FCATUSPA PROC  @FCACMOD,RQBL,SCOPE=GLOBAL
 001218 C6C3C1E3E4E2D7C1           10082             +
 001220 0010/00D8                  10083             +
 001224 900F D004/18AF       00004 10085             +
 USING  FCATUSPA,R10
 00122A 50D0 C000/18CD       00000 10100             +
 001230 9680 C000      00000       10102             +
 USING  @FCACMOD-72,R12
 AUSING (RQBL,@FCACMOD+16)
 001234 41D0 C130            00130 10121             +
 USING  FSB,R3                     10122     680.              WITH  (FSB,RB)
 USING  NTRYGR,R4                  10135     681.              WITH  (NTRYGR,RJ)         Entry pointer returned by VCAT
 001238 5830 C048            00000 10148     682.              L     RB,@FCACFSB         Get FSB pointer
 USING  @GRES-72,R13               10149     683.              GRGET RID=FSBCGRI,EXCL=YES Get catalog hold
 00123C D708 D048 D048 00000 00000 10167             +
 001242 D203 D04C 3028 00004 00028 10172             +
 001248 9680 D050      00008       10178             +
 00124C 9640 D050      00008       10184             +
 001250 58F0 A504/0DEF       01728 10187             +
0001256                            10190     685.              CLEAR RQBL                Set up old block for VCAT
 001256 D7D3 C058 C058 00000 00000 10196             +
 00125C D203 C058 A508 00000 0172C 10197     686.              MVC   RQBLRQBL,=CL4'RQBL'
 001262 D205 C0B4 C050 0005C 00008 10198     687.              MVC   RQBLNAME(L'@FCACCNT),@FCACCNT Set account
 001268 1BEE                       10199     688.              CLEAR R14                 No permits
 00126A 4100 0000            00000 10203     689.              LA    R0,ACCMODE          Indicate account locate
 00126E 50D0 C078            00020 10204     690.              CATCALL LOOK              Locate account
 001272 D603 C07C C07C 00024 00024 10216             +
 001278 4770 A05C            01280 10217             +
 00127C 41D0 C0F0            00098 10223             +
 00127A A060           0127C 01280 10231             +
 001280 47F0 A064            01288 10233             +
 001284 58D0 C07C            00024 10240             +
 001288 4120 0000            00000 10245             +
 00128C 4150 C058            00000 10246             +
 001290 5890 A50C/18BA       01730 10247             +
 001296 18A3/0D99/183A             10249             +
 00129C 18AB/50D0 C07C       00024 10252             +
 0012A2 58D0 C078/120F       00020 10254             +
 0012A8 4780 A08C            012B0 10256     691.              IF    NZ,'LA RS,4'        Account does not exist
 0012AC 4110 0004            00004 10268             +
 0012B0 A090           012B0 012AA 10273     692.              ELSE  BEGIN
 0012B0 47F0 A0D6            012FA 10278             +
 0012B4 D202 4012 C04D 00012 00005 10284  1  693.                MVC   NTGUSSP,@FCACSPA+1  Set new used space
 0012BA 41F0 0004            00004 10285  1  694.                LA    R15,4               Entry changed but no length change
 0012BE 50D0 C078            00020 10286  1  695.                CATCALL CONT              Continue update of account entry
 0012C2 D603 C07C C07C 00024 00024 10298  1          +
 0012C8 4770 A0AC            012D0 10299  1          +
1FILECAT  (FILECA) (09:39) (22MAR04) ORVYL'S File Catalog Manager                                                           Page   72
0Current Usings:  (FSB,R3) (NTRYGR,R4) (FCATUSPA,R10) (@FCACMOD-72,R12) (@GRES-72,R13)
0Loc    Object Code    Addr1 Addr2  Stmt Lv Lineno    Source Statement           (Hibal 5, Asmedit 3.3)  HLASM R4.0  2004/03/22 09.39
+___    ______ ____    _____ _____  ____ __ ______    ______ _________
00012CC 41D0 C0F0            00098 10305  1          +
 0012CA A0B0           012CC 012D0 10313  1          +
 0012D0 47F0 A0B4            012D8 10315  1          +
 0012D4 58D0 C07C            00024 10322  1          +
 0012D8 4120 000C            0000C 10327  1          +
 0012DC 4150 C058            00000 10328  1          +
 0012E0 5890 A50C/18BA       01730 10329  1          +
 0012E6 18A3/0D99/183A             10331  1          +
 0012EC 18AB/50D0 C07C       00024 10334  1          +
 0012F2 58D0 C078/120F       00020 10336  1          +
 0012F8 1B11                       10338  1  696.                CLEAR RS
 0012FA                            10342     697.              END   ,
00012FA                            10347     699.              GRREL RID=FSBCGRI         Release catalog hold
 0012FA D708 D048 D048 00000 00000 10358             +
 001300 D203 D04C 3028 00004 00028 10363             +
 001306 58F0 A510/0DEF       01734 10366             +
 00130C 1801                       10368     700.              LR    RVR,RS
 00130E 981F C008            00008 10369     701.              PEND  ,
 DROP   NTRYGR,R4
 DROP   FSB,R3
 DROP   @FCACMOD-72,R12
 DROP   FCATUSPA,R10
 001312 9680 C000/0B0E 00000       10394             +
 DROP   @GRES-72,R13
1FILECAT  (FILECA) (09:39) (22MAR04) ORVYL'S File Catalog Manager                                                           Page   73
0Loc    Object Code    Addr1 Addr2  Stmt Lv Lineno    Source Statement           (Hibal 5, Asmedit 3.3)  HLASM R4.0  2004/03/22 09.39
+___    ______ ____    _____ _____  ____ __ ______    ______ _________
0                                  10404     703.     *---------------------------------------------------------------------*
                                   10405     704.     *  FCATMSPA -  Set maximum account space
                                   10406     705.     *
                                   10407     706.     *   Inputs - @FCACMOD
                                   10408     707.     *
                                   10409     708.     *   Output -
                                   10410     709.     *
                                   10411     710.     *---------------------------------------------------------------------*
 001318                            10412     711.     FCATMSPA PROC  @FCACMOD,RQBL,SCOPE=GLOBAL
 001318 C6C3C1E3D4E2D7C1           10418             +
 001320 0010/00D8                  10419             +
 001324 900F D004/18AF       00004 10421             +
 USING  FCATMSPA,R10
 00132A 50D0 C000/18CD       00000 10436             +
 001330 9680 C000      00000       10438             +
 USING  @FCACMOD-72,R12
 AUSING (RQBL,@FCACMOD+16)
 001334 41D0 C130            00130 10457             +
 USING  FSB,R3                     10458     712.              WITH  (FSB,RB)
 USING  NTRYGR,R4                  10471     713.              WITH  (NTRYGR,RJ)         Entry pointer returned by VCAT
 001338 5830 C048            00000 10484     714.              L     RB,@FCACFSB         Get FSB pointer
 USING  @GRES-72,R13               10485     715.              GRGET RID=FSBCGRI,EXCL=YES Get catalog hold
 00133C D708 D048 D048 00000 00000 10503             +
 001342 D203 D04C 3028 00004 00028 10508             +
 001348 9680 D050      00008       10514             +
 00134C 9640 D050      00008       10520             +
 001350 58F0 A404/0DEF       01728 10523             +
0001356                            10526     717.              CLEAR RQBL                Set up old block for VCAT
 001356 D7D3 C058 C058 00000 00000 10532             +
 00135C D203 C058 A408 00000 0172C 10533     718.              MVC   RQBLRQBL,=CL4'RQBL'
 001362 D205 C0B4 C050 0005C 00008 10534     719.              MVC   RQBLNAME(L'@FCACCNT),@FCACCNT Set account
 001368 1BEE                       10535     720.              CLEAR R14                 No permits
 00136A 4100 0000            00000 10539     721.              LA    R0,ACCMODE          Indicate account locate
 00136E 50D0 C078            00020 10540     722.              CATCALL LOOK              Locate account
 001372 D603 C07C C07C 00024 00024 10552             +
 001378 4770 A05C            01380 10553             +
 00137C 41D0 C0F0            00098 10559             +
 00137A A060           0137C 01380 10567             +
 001380 47F0 A064            01388 10569             +
 001384 58D0 C07C            00024 10576             +
 001388 4120 0000            00000 10581             +
 00138C 4150 C058            00000 10582             +
 001390 5890 A40C/18BA       01730 10583             +
 001396 18A3/0D99/183A             10585             +
 00139C 18AB/50D0 C07C       00024 10588             +
 0013A2 58D0 C078/120F       00020 10590             +
 0013A8 4780 A08C            013B0 10592     723.              IF    NZ,'LA RS,4'        Account does not exist
 0013AC 4110 0004            00004 10604             +
 0013B0 A090           013B0 013AA 10609     724.              ELSE  BEGIN
 0013B0 47F0 A0D6            013FA 10614             +
 0013B4 D202 400F C04D 0000F 00005 10620  1  725.                MVC   NTGMXSP,@FCACSPA+1   Set new max space
 0013BA 41F0 0004            00004 10621  1  726.                LA    R15,4               Entry changed but no length change
 0013BE 50D0 C078            00020 10622  1  727.                CATCALL CONT              Continue update of account entry
 0013C2 D603 C07C C07C 00024 00024 10634  1          +
 0013C8 4770 A0AC            013D0 10635  1          +
1FILECAT  (FILECA) (09:39) (22MAR04) ORVYL'S File Catalog Manager                                                           Page   74
0Current Usings:  (FSB,R3) (NTRYGR,R4) (FCATMSPA,R10) (@FCACMOD-72,R12) (@GRES-72,R13)
0Loc    Object Code    Addr1 Addr2  Stmt Lv Lineno    Source Statement           (Hibal 5, Asmedit 3.3)  HLASM R4.0  2004/03/22 09.39
+___    ______ ____    _____ _____  ____ __ ______    ______ _________
00013CC 41D0 C0F0            00098 10641  1          +
 0013CA A0B0           013CC 013D0 10649  1          +
 0013D0 47F0 A0B4            013D8 10651  1          +
 0013D4 58D0 C07C            00024 10658  1          +
 0013D8 4120 000C            0000C 10663  1          +
 0013DC 4150 C058            00000 10664  1          +
 0013E0 5890 A40C/18BA       01730 10665  1          +
 0013E6 18A3/0D99/183A             10667  1          +
 0013EC 18AB/50D0 C07C       00024 10670  1          +
 0013F2 58D0 C078/120F       00020 10672  1          +
 0013F8 1B11                       10674  1  728.                CLEAR RS
 0013FA                            10678     729.              END   ,
00013FA                            10683     731.              GRREL RID=FSBCGRI         Release catalog hold
 0013FA D708 D048 D048 00000 00000 10694             +
 001400 D203 D04C 3028 00004 00028 10699             +
 001406 58F0 A410/0DEF       01734 10702             +
 00140C 1801                       10704     732.              LR    RVR,RS
 00140E 981F C008            00008 10705     733.              PEND  ,
 DROP   NTRYGR,R4
 DROP   FSB,R3
 DROP   @FCACMOD-72,R12
 DROP   FCATMSPA,R10
 001412 9680 C000/0B0E 00000       10730             +
 DROP   @GRES-72,R13
1FILECAT  (FILECA) (09:39) (22MAR04) ORVYL'S File Catalog Manager                                                           Page   75
0Loc    Object Code    Addr1 Addr2  Stmt Lv Lineno    Source Statement           (Hibal 5, Asmedit 3.3)  HLASM R4.0  2004/03/22 09.39
+___    ______ ____    _____ _____  ____ __ ______    ______ _________
0                                  10740     735.     *---------------------------------------------------------------------*
                                   10741     736.     *  FCATFLIS -  List file names
                                   10742     737.     *
                                   10743     738.     *   Inputs - @FCFLIS
                                   10744     739.     *
                                   10745     740.     *   Output -
                                   10746     741.     *
                                   10747     742.     *---------------------------------------------------------------------*
 000000                00000 000E0 10748     743.     #FCFLIS  RECORD BEGIN
 000000                            10756  1  744.     #FCFLRQB   DS    CL(L'RQBL)
 0000D4                            10757  1  745.     #FCFLLOC   DS    A                   Location
 0000D8                            10758  1  746.     #FCFLMAX   DS    F                   Max possible
 0000DC                            10759  1  747.     #FCFLCNT   DS    F                   Count left
 0000E0                000E0 000E0 10760     748.              END   ,
 001418                            10769     749.     FCATFLIS PROC  @FCFLIS,#FCFLIS,SCOPE=GLOBAL
 001418 C6C3C1E3C6D3C9E2           10775             +
 001420 0040/00E0                  10776             +
 001424 900F D004/18AF       00004 10778             +
 USING  FCATFLIS,R10
 00142A 50D0 C000/18CD       00000 10793             +
 001430 9680 C000      00000       10795             +
 USING  @FCFLIS-72,R12
 AUSING (#FCFLIS,@FCFLIS+64)
 001434 41D0 C168            00168 10814             +
 001438 5830 C048            00000 10815     750.              L     RB,@FCFLFSB
 USING  FSB,R3                     10816     751.              WITH  (FSB,RB)
 USING  NTRYGR,R4                  10829     752.              WITH  (NTRYGR,RJ)         Entry pointer returned by VCAT
 AUSING (RQBL,#FCFLRQB)            10842     753.              WITH  (RQBL,#FCFLRQB)
0USING  @GRES-72,R13               10850     755.              GRGET RID=FSBCGRI,EXCL=YES Get catalog hold
 00143C D708 D048 D048 00000 00000 10868             +
 001442 D203 D04C 3028 00004 00028 10873             +
 001448 9680 D050      00008       10879             +
 00144C 9640 D050      00008       10885             +
 001450 58F0 A304/0DEF       01728 10888             +
 001456                            10890     756.              CLEAR RQBL                Set up old block for VCAT
 001456 D7D3 C088 C088 00000 00000 10896             +
 00145C D203 C088 A308 00000 0172C 10897     757.              MVC   RQBLRQBL,=CL4'RQBL'
 001462 9180 C058      00010       10898     758.              IF    @FCFLCLP,'SET RQFCLP' Indicate CLP
 001466 47E0 A04A            0146E 10908             +
 00146A 9640 C0B4      0002C       10919             +
 00146E D203 C10C A314 00084 01738 10924     759.              MVC   RQBLNAME+L'RQBLNAME-4(4),=CL4' ' Set file name
 001474 D227 C0E4 C05F 0005C 00017 10925     760.              MVC   RQBLNAME(L'RQBLNAME-4),@FCFLNAM
000147A 1BFF                       10927     762.              CLEAR R15                 No length modify
 00147C 41E0 0001            00001 10931     763.              LA    R14,1               Permits
 001480 4100 0000            00000 10932     764.              LA    R0,ACCMODE          Indicate account locate
 001484 50D0 C0A8            00020 10933     765.              CATCALL LOOK              Locate account
 001488 D603 C0AC C0AC 00024 00024 10945             +
 00148E 4770 A072            01496 10946             +
 001492 41D0 C120            00098 10952             +
 001490 A076           01492 01496 10960             +
 001496 47F0 A07A            0149E 10962             +
 00149A 58D0 C0AC            00024 10969             +
 00149E 4120 0000            00000 10974             +
 0014A2 4150 C088            00000 10975             +
1FILECAT  (FILECA) (09:39) (22MAR04) ORVYL'S File Catalog Manager                                                           Page   76
0Current Usings:  (FSB,R3) (NTRYGR,R4) (FCATFLIS,R10) (@FCFLIS-72,R12) (@GRES-72,R13)
0Loc    Object Code    Addr1 Addr2  Stmt Lv Lineno    Source Statement           (Hibal 5, Asmedit 3.3)  HLASM R4.0  2004/03/22 09.39
+___    ______ ____    _____ _____  ____ __ ______    ______ _________
00014A6 5890 A30C/18BA       01730 10976             +
 0014AC 18A3/0D99/183A             10978             +
 0014B2 18AB/50D0 C0AC       00024 10981             +
 0014B8 58D0 C0A8/120F       00020 10983             +
 0014BE 4110 0004            00004 10985     766.              LA    RS,4                Set not there
 0014C2 1200/4770 A1A4       015C8 10986     767.              IF    (RVR,NZ),FCATFLIX   Account not found
 0014C8                            11003     768.              IF    (@FCFLUSE,NZ),BEGIN Non-owner, check'm out
 0014C8 D605 C059 C059 00011 00011 11013             +
 0014CE 4780 A0D6            014FA 11014             +
 DROP   @GRES-72,R13               11019  1  769.                LOCAP @FCFLUSE            Get user permits
 USING  @LOCPERM-72,R13
 0014D2 D70A D048 D048 00000 00000 11040  1          +
 0014D8 4100 4000            00000 11052  1          +
 0014DC 5000 D048            00000 11057  1          +
 0014E0 D205 D04C C059 00004 00011 11062  1          +
 0014E6 9640 D052      0000A       11068  1          +
 0014EA 58F0 A318/0DEF       0173C 11074  1          +
 0014F0 4110 000C            0000C 11076  1  770.                LA    RS,12               Init to not allowed
 0014F4 1200/4780 A1A4       015C8 11077  1  771.                IF    (RVR,Z),FCATFLIX    Not allowed
 0014FA                            11094     772.              END   ,                   Non-owner, check'm out
00014FA D203 C15C C04C 000D4 00004 11099     774.              MVC   #FCFLLOC,@FCFLLOC   Get output address
 001500 1BEE                       11100     775.              CLEAR R14
 001502 58F0 C050            00008 11104     776.              L     R15,@FCFLLEN        Get length of output area
 001506 5DE0 A31C            01740 11105     777.              D     R14,=F'56'          Calc max number
 00150A 50F0 C164            000DC 11106     778.              ST    R15,#FCFLCNT        Set count
 00150E 50F0 C160            000D8 11107     779.              ST    R15,#FCFLMAX        Set max
0001512 4100 0004            00004 11109     781.              LA    R0,FILEMODE         Indicate file mode
 001516 50D0 C0A8            00020 11110     782.              CATCALL LIS
 00151A D603 C0AC C0AC 00024 00024 11122             +
 001520 4770 A104            01528 11123             +
 001524 41D0 C120            00098 11129             +
 001522 A108           01524 01528 11137             +
 001528 47F0 A10C            01530 11139             +
 00152C 58D0 C0AC            00024 11146             +
 001530 4120 0006            00006 11151             +
 001534 4150 C088            00000 11152             +
 001538 5890 A30C/18BA       01730 11153             +
 00153E 18A3/0D99/183A             11155             +
 001544 18AB/50D0 C0AC       00024 11158             +
 00154A 58D0 C0A8/120F       00020 11160             +
 001550 1810                       11162     783.              LR    RS,RVR
 001552 4770 A1A4            015C8 11163     784.              IF    NZ,FCATFLIX         Error return
0001556                            11178     786.              LOOP  BEGIN
 001556 58E0 C15C            000D4 11184  1  787.                L     R14,#FCFLLOC        Point to output area
 00155A D237 E000 C0E4 00000 0005C 11185  1  788.                MVC   @R14(56),RQBLNAME   Get data
 001560 41E0 E038            00038 11186  1  789.                LA    R14,@R14+56         Point to next area
 001564 50E0 C15C            000D4 11187  1  790.                ST    R14,#FCFLLOC        Save
 001568 58E0 C164/06E0       000DC 11188  1  791.                DECR  R14,#FCFLCNT        Decrement count
 00156E 50E0 C164            000DC 11192  1          +
 001572                            11193  1  792.                IF    (#FCFLCNT,Z),EXIT   No more room
 001572 D603 C164 C164 000DC 000DC 11203  1          +
1FILECAT  (FILECA) (09:39) (22MAR04) ORVYL'S File Catalog Manager                                                           Page   77
0Current Usings:  (FSB,R3) (NTRYGR,R4) (FCATFLIS,R10) (@FCFLIS-72,R12) (@LOCPERM-72,R13)
0Loc    Object Code    Addr1 Addr2  Stmt Lv Lineno    Source Statement           (Hibal 5, Asmedit 3.3)  HLASM R4.0  2004/03/22 09.39
+___    ______ ____    _____ _____  ____ __ ______    ______ _________
0001578 4780 A196            015BA 11206  1          +
 00157C 50D0 C0A8            00020 11212  1  793.                CATCALL CONT              Get another one
 001580 D603 C0AC C0AC 00024 00024 11224  1          +
 001586 4770 A16A            0158E 11225  1          +
 00158A 41D0 C120            00098 11231  1          +
 001588 A16E           0158A 0158E 11239  1          +
 00158E 47F0 A172            01596 11241  1          +
 001592 58D0 C0AC            00024 11248  1          +
 001596 4120 000C            0000C 11253  1          +
 00159A 4150 C088            00000 11254  1          +
 00159E 5890 A30C/18BA       01730 11255  1          +
 0015A4 18A3/0D99/183A             11257  1          +
 0015AA 18AB/50D0 C0AC       00024 11260  1          +
 0015B0 58D0 C0A8/120F       00020 11262  1          +
 0015B6 4780 A132            01556 11264     794.              UNTIL NZ,END
00015BA 58E0 C160            000D8 11284     796.              L     R14,#FCFLMAX        Get max
 0015BE 5BE0 C164            000DC 11285     797.              S     R14,#FCFLCNT        Count left
 0015C2 50E0 C054            0000C 11286     798.              ST    R14,@FCFLCNT        Set return count of items
-0015C6 1B11                       11289     801.              CLEAR RS                  Set return code
00015C8                            11294     803.     FCATFLIX LABEL ,
 DROP   @LOCPERM-72,R13            11296     804.              GRREL RID=FSBCGRI         Release catalog hold
 USING  @GRES-72,R13
 0015C8 D708 D048 D048 00000 00000 11317             +
 0015CE D203 D04C 3028 00004 00028 11322             +
 0015D4 58F0 A310/0DEF       01734 11325             +
 0015DA 1801                       11327     805.              LR    RVR,RS
 0015DC 981F C008            00008 11328     806.              PEND  ,
 DROP   NTRYGR,R4
 DROP   FSB,R3
 DROP   @FCFLIS-72,R12
 DROP   FCATFLIS,R10
 0015E0 9680 C000/0B0E 00000       11353             +
 DROP   @GRES-72,R13
1FILECAT  (FILECA) (09:39) (22MAR04) ORVYL'S File Catalog Manager                                                           Page   78
0Loc    Object Code    Addr1 Addr2  Stmt Lv Lineno    Source Statement           (Hibal 5, Asmedit 3.3)  HLASM R4.0  2004/03/22 09.39
+___    ______ ____    _____ _____  ____ __ ______    ______ _________
0                                  11363     808.     *---------------------------------------------------------------------*
                                   11364     809.     *  FCATALIS -  List account names
                                   11365     810.     *
                                   11366     811.     *   Inputs - @FCALIS
                                   11367     812.     *
                                   11368     813.     *   Output -
                                   11369     814.     *
                                   11370     815.     *---------------------------------------------------------------------*
 000000                00000 000E0 11371     816.     #FCALIS  RECORD BEGIN
 000000                            11379  1  817.     #FCALRQB   DS    CL(L'RQBL)
 0000D4                            11380  1  818.     #FCALLOC   DS    A                   Location
 0000D8                            11381  1  819.     #FCALMAX   DS    F                   Max possible
 0000DC                            11382  1  820.     #FCALCNT   DS    F                   Count left
 0000E0                000E0 000E0 11383     821.              END   ,
 0015E6                            11392     822.     FCATALIS PROC  @FCALIS,#FCALIS,SCOPE=GLOBAL
 0015E6 C6C3C1E3C1D3C9E2           11398             +
 0015EE 0018/00E0                  11399             +
 0015F2 900F D004/18AF       00004 11401             +
 USING  FCATALIS,R10
 0015F8 50D0 C000/18CD       00000 11416             +
 0015FE 9680 C000      00000       11418             +
 USING  @FCALIS-72,R12
 AUSING (#FCALIS,@FCALIS+24)
 001602 41D0 C140            00140 11437             +
 001606 5830 C048            00000 11438     823.              L     RB,@FCALFSB
 USING  FSB,R3                     11439     824.              WITH  (FSB,RB)
 USING  NTRYGR,R4                  11452     825.              WITH  (NTRYGR,RJ)         Entry pointer returned by VCAT
 AUSING (RQBL,#FCALRQB)            11465     826.              WITH  (RQBL,#FCALRQB)
0USING  @GRES-72,R13               11473     828.              GRGET RID=FSBCGRI,EXCL=YES Get catalog hold
 00160A D708 D048 D048 00000 00000 11491             +
 001610 D203 D04C 3028 00004 00028 11496             +
 001616 9680 D050      00008       11502             +
 00161A 9640 D050      00008       11508             +
 00161E 58F0 A136/0DEF       01728 11511             +
 001624                            11513     829.              CLEAR RQBL                Set up old block for VCAT
 001624 D7D3 C060 C060 00000 00000 11519             +
 00162A D203 C060 A13A 00000 0172C 11520     830.              MVC   RQBLRQBL,=CL4'RQBL'
 001630 D205 C0BC C058 0005C 00010 11521     831.              MVC   RQBLNAME(L'@FCALNAM),@FCALNAM Set account
0001636 D203 C134 C04C 000D4 00004 11523     833.              MVC   #FCALLOC,@FCALLOC   Get output address
 00163C 1BEE                       11524     834.              CLEAR R14
 00163E 58F0 C050            00008 11528     835.              L     R15,@FCALLEN        Get length of output area
 001642 5DE0 A152            01744 11529     836.              D     R14,=F'14'          Calc max number
 001646 50F0 C13C            000DC 11530     837.              ST    R15,#FCALCNT        Set count
 00164A 50F0 C138            000D8 11531     838.              ST    R15,#FCALMAX        Set max
000164E 4100 0000            00000 11533     840.              LA    R0,ACCMODE          Indicate account mode
 001652 50D0 C080            00020 11534     841.              CATCALL LIS
 001656 D603 C084 C084 00024 00024 11546             +
 00165C 4770 A072            01664 11547             +
 001660 41D0 C0F8            00098 11553             +
 00165E A076           01660 01664 11561             +
 001664 47F0 A07A            0166C 11563             +
 001668 58D0 C084            00024 11570             +
 00166C 4120 0006            00006 11575             +
1FILECAT  (FILECA) (09:39) (22MAR04) ORVYL'S File Catalog Manager                                                           Page   79
0Current Usings:  (FSB,R3) (NTRYGR,R4) (FCATALIS,R10) (@FCALIS-72,R12) (@GRES-72,R13)
0Loc    Object Code    Addr1 Addr2  Stmt Lv Lineno    Source Statement           (Hibal 5, Asmedit 3.3)  HLASM R4.0  2004/03/22 09.39
+___    ______ ____    _____ _____  ____ __ ______    ______ _________
0001670 4150 C060            00000 11576             +
 001674 5890 A13E/18BA       01730 11577             +
 00167A 18A3/0D99/183A             11579             +
 001680 18AB/50D0 C084       00024 11582             +
 001686 58D0 C080/120F       00020 11584             +
 00168C 1810                       11586     842.              LR    RS,RVR
 00168E 4770 A112            01704 11587     843.              IF    NZ,FCATALIX         Error return
0001692                            11602     845.              LOOP  BEGIN
 001692 58E0 C134            000D4 11608  1  846.                L     R14,#FCALLOC        Point to output area
 001696 D20D E000 C0BC 00000 0005C 11609  1  847.                MVC   @R14(14),RQBLNAME   Get data
 00169C 41E0 E00E            0000E 11610  1  848.                LA    R14,@R14+14         Point to next area
 0016A0 50E0 C134            000D4 11611  1  849.                ST    R14,#FCALLOC        Save
 0016A4 58E0 C13C/06E0       000DC 11612  1  850.                DECR  R14,#FCALCNT        Decrement count
 0016AA 50E0 C13C            000DC 11616  1          +
 0016AE                            11617  1  851.                IF    (#FCALCNT,Z),EXIT   No more room
 0016AE D603 C13C C13C 000DC 000DC 11627  1          +
 0016B4 4780 A104            016F6 11630  1          +
 0016B8 50D0 C080            00020 11636  1  852.                CATCALL CONT              Get another one
 0016BC D603 C084 C084 00024 00024 11648  1          +
 0016C2 4770 A0D8            016CA 11649  1          +
 0016C6 41D0 C0F8            00098 11655  1          +
 0016C4 A0DC           016C6 016CA 11663  1          +
 0016CA 47F0 A0E0            016D2 11665  1          +
 0016CE 58D0 C084            00024 11672  1          +
 0016D2 4120 000C            0000C 11677  1          +
 0016D6 4150 C060            00000 11678  1          +
 0016DA 5890 A13E/18BA       01730 11679  1          +
 0016E0 18A3/0D99/183A             11681  1          +
 0016E6 18AB/50D0 C084       00024 11684  1          +
 0016EC 58D0 C080/120F       00020 11686  1          +
 0016F2 4780 A0A0            01692 11688     853.              UNTIL NZ,END
00016F6 58E0 C138            000D8 11708     855.              L     R14,#FCALMAX        Get max
 0016FA 5BE0 C13C            000DC 11709     856.              S     R14,#FCALCNT        Count left
 0016FE 50E0 C054            0000C 11710     857.              ST    R14,@FCALCNT        Set return count of items
0001702 1B11                       11712     859.              CLEAR RS                  Set return code
0001704                            11717     861.     FCATALIX LABEL ,
 001704                            11719     862.              GRREL RID=FSBCGRI         Release catalog hold
 001704 D708 D048 D048 00000 00000 11730             +
 00170A D203 D04C 3028 00004 00028 11735             +
 001710 58F0 A142/0DEF       01734 11738             +
 001716 1801                       11740     863.              LR    RVR,RS
 001718 981F C008            00008 11741     864.              PEND  ,
 DROP   NTRYGR,R4
 DROP   FSB,R3
 DROP   @FCALIS-72,R12
 DROP   FCATALIS,R10
 00171C 9680 C000/0B0E 00000       11766             +
 DROP   @GRES-72,R13
 001728                            11775     865.              LTORG ,
 001728 00000000                   11777                             =V(GRGET)
1FILECAT  (FILECA) (09:39) (22MAR04) ORVYL'S File Catalog Manager                                                           Page   80
0Loc    Object Code    Addr1 Addr2  Stmt Lv Lineno    Source Statement           (Hibal 5, Asmedit 3.3)  HLASM R4.0  2004/03/22 09.39
+___    ______ ____    _____ _____  ____ __ ______    ______ _________
000172C D9D8C2D3                   11778                             =CL4'RQBL'
 001730 00000000                   11779                             =V(VCATENT)
 001734 00000000                   11780                             =V(GRREL)
 001738 40404040                   11781                             =CL4' '
 00173C 00002A46                   11782                             =A(LOCPERM)
 001740 00000038                   11783                             =F'56'
 001744 0000000E       01748 03048 11784                             =F'14'
1FILECAT  (FILECA) (09:39) (22MAR04) ORVYL'S File Catalog Manager                                                           Page   81
0Loc    Object Code    Addr1 Addr2  Stmt Lv Lineno    Source Statement           (Hibal 5, Asmedit 3.3)  HLASM R4.0  2004/03/22 09.39
+___    ______ ____    _____ _____  ____ __ ______    ______ _________
0                                  11789     867.     *---------------------------------------------------------------------*
                                   11790     868.     *  FCATS111 -  Get account or file entry (STATUS 111)
                                   11791     869.     *
                                   11792     870.     *   Inputs - @FCS111
                                   11793     871.     *
                                   11794     872.     *   Output -
                                   11795     873.     *
                                   11796     874.     *---------------------------------------------------------------------*
 001748                            11797     875.     FCATS111 PROC  @FCS111,RQBL,SCOPE=GLOBAL
 001748 C6C3C1E3E2F1F1F1           11803             +
 001750 0038/00D8                  11804             +
 001754 900F D004/18AF       00004 11806             +
 USING  FCATS111,R10
 00175A 50D0 C000/18CD       00000 11821             +
 001760 9680 C000      00000       11823             +
 USING  @FCS111-72,R12
 AUSING (RQBL,@FCS111+56)
 001764 41D0 C158            00158 11842             +
 001768 5830 C048            00000 11843     876.              L     RB,@FCS1FSB
 USING  FSB,R3                     11844     877.              WITH  (FSB,RB)
 USING  NTRYGR,R4                  11857     878.              WITH  (NTRYGR,RJ)         Entry pointer returned by VCAT
0USING  @GRES-72,R13               11871     880.              GRGET RID=FSBCGRI,EXCL=YES Get catalog hold
 00176C D708 D048 D048 00000 00000 11889             +
 001772 D203 D04C 3028 00004 00028 11894             +
 001778 9680 D050      00008       11900             +
 00177C 9640 D050      00008       11906             +
 001780 58F0 ABB4/0DEF       02308 11909             +
 001786                            11911     881.              CLEAR RQBL                Set up old block for VCAT
 001786 D7D3 C080 C080 00000 00000 11917             +
 00178C D203 C080 ABB8 00000 0230C 11918     882.              MVC   RQBLRQBL,=CL4'RQBL'
 001792 D203 C104 ABBC 00084 02310 11919     883.              MVC   RQBLNAME+L'RQBLNAME-4(4),=CL4' ' Set file name
 001798 D227 C0DC C054 0005C 0000C 11920     884.              MVC   RQBLNAME(L'RQBLNAME-4),@FCS1NAM
000179E 1BFF                       11922     886.              CLEAR R15                 No length modify
 0017A0 41E0 0001            00001 11926     887.              LA    R14,1               Permits
 0017A4 4100 0000            00000 11927     888.              LA    R0,ACCMODE          Indicate account locate
 0017A8 50D0 C0A0            00020 11928     889.              CATCALL LOOK              Locate account
 0017AC D603 C0A4 C0A4 00024 00024 11940             +
 0017B2 4770 A066            017BA 11941             +
 0017B6 41D0 C118            00098 11947             +
 0017B4 A06A           017B6 017BA 11955             +
 0017BA 47F0 A06E            017C2 11957             +
 0017BE 58D0 C0A4            00024 11964             +
 0017C2 4120 0000            00000 11969             +
 0017C6 4150 C080            00000 11970             +
 0017CA 5890 ABC0/18BA       02314 11971             +
 0017D0 18A3/0D99/183A             11973             +
 0017D6 18AB/50D0 C0A4       00024 11976             +
 0017DC 58D0 C0A0/120F       00020 11978             +
 0017E2 4110 0004            00004 11980     890.              LA    RS,4                Set not there
 0017E6 1200/4770 A10A       0185E 11981     891.              IF    (RVR,NZ),FCATS11X   Account not found
00017EC 9540 C0E2      00062       11999     893.              IF    ('CLI RQBLNAME+6,C" "',NE),BEGIN File request
 0017F0 4780 A0EE            01842 12007             +
 0017F4 1BFF                       12012  1  894.                CLEAR R15                 No length modify
1FILECAT  (FILECA) (09:39) (22MAR04) ORVYL'S File Catalog Manager                                                           Page   82
0Current Usings:  (FSB,R3) (NTRYGR,R4) (FCATS111,R10) (@FCS111-72,R12) (@GRES-72,R13)
0Loc    Object Code    Addr1 Addr2  Stmt Lv Lineno    Source Statement           (Hibal 5, Asmedit 3.3)  HLASM R4.0  2004/03/22 09.39
+___    ______ ____    _____ _____  ____ __ ______    ______ _________
00017F6 41E0 0001            00001 12016  1  895.                LA    R14,1               Permits
 0017FA 4100 0004            00004 12017  1  896.                LA    R0,FILEMODE         Indicate file locate
 0017FE 50D0 C0A0            00020 12018  1  897.                CATCALL LOOK              Locate file
 001802 D603 C0A4 C0A4 00024 00024 12030  1          +
 001808 4770 A0BC            01810 12031  1          +
 00180C 41D0 C118            00098 12037  1          +
 00180A A0C0           0180C 01810 12045  1          +
 001810 47F0 A0C4            01818 12047  1          +
 001814 58D0 C0A4            00024 12054  1          +
 001818 4120 0000            00000 12059  1          +
 00181C 4150 C080            00000 12060  1          +
 001820 5890 ABC0/18BA       02314 12061  1          +
 001826 18A3/0D99/183A             12063  1          +
 00182C 18AB/50D0 C0A4       00024 12066  1          +
 001832 58D0 C0A0/120F       00020 12068  1          +
 001838 4110 0004            00004 12070  1  898.                LA    RS,4                Set not there
 00183C 1200/4770 A10A       0185E 12071  1  899.                IF    (RVR,NZ),FCATS11X   File not found
 001842                            12088     900.              END   ,                   File request
 001842 1FFF/BFF3 4000       00000 12092     901.              L2    R15,NTRYLEN         Get entry length
 001848 59F0 C050            00008 12098     902.              IF    (R15,GT,@FCS1LEN),'L R15,@FCS1LEN'
 00184C 47D0 A100            01854 12110             +
 001850 58F0 C050            00008 12116             +
 001854 58E0 C04C            00004 12121     903.              L     R14,@FCS1LOC        Get output location
 001858 185F                       12122     904.              LR    RK,R15              Get length
 00185A 0EE4                       12123     905.              MVCL  R14,RJ              Move the entry to the output area
000185C 1B11                       12125     907.              CLEAR RS                  Set return code
000185E                            12130     909.     FCATS11X LABEL ,
 00185E                            12132     910.              GRREL RID=FSBCGRI         Release catalog hold
 00185E D708 D048 D048 00000 00000 12143             +
 001864 D203 D04C 3028 00004 00028 12148             +
 00186A 58F0 ABC4/0DEF       02318 12151             +
 001870 1801                       12153     911.              LR    RVR,RS
 001872 981F C008            00008 12154     912.              PEND  ,
 DROP   NTRYGR,R4
 DROP   FSB,R3
 DROP   @FCS111-72,R12
 DROP   FCATS111,R10
 001876 9680 C000/0B0E 00000       12179             +
 DROP   @GRES-72,R13
1FILECAT  (FILECA) (09:39) (22MAR04) ORVYL'S File Catalog Manager                                                           Page   83
0Loc    Object Code    Addr1 Addr2  Stmt Lv Lineno    Source Statement           (Hibal 5, Asmedit 3.3)  HLASM R4.0  2004/03/22 09.39
+___    ______ ____    _____ _____  ____ __ ______    ______ _________
0                                  12189     914.     *---------------------------------------------------------------------*
                                   12190     915.     *  FCATAADD - Add a new account
                                   12191     916.     *
                                   12192     917.     *   Inputs - @FCACMOD
                                   12193     918.     *
                                   12194     919.     *   Output -
                                   12195     920.     *
                                   12196     921.     *---------------------------------------------------------------------*
 00187C                            12197     922.     FCATAADD PROC  @FCACMOD,RQBL,SCOPE=GLOBAL
 00187C C6C3C1E3C1C1C4C4           12203             +
 001884 0010/00D8                  12204             +
 001888 900F D004/18AF       00004 12206             +
 USING  FCATAADD,R10
 00188E 50D0 C000/18CD       00000 12221             +
 001894 9680 C000      00000       12223             +
 USING  @FCACMOD-72,R12
 AUSING (RQBL,@FCACMOD+16)
 001898 41D0 C130            00130 12242             +
 00189C 5830 C048            00000 12243     923.              L     RB,@FCACFSB
 USING  FSB,R3                     12244     924.              WITH  (FSB,RB)
 USING  NTRYGR,R4                  12257     925.              WITH  (NTRYGR,RJ)         Entry pointer returned by VCAT
0USING  @GRES-72,R13               12271     927.              GRGET RID=FSBCGRI,EXCL=YES Get catalog hold
 0018A0 D708 D048 D048 00000 00000 12289             +
 0018A6 D203 D04C 3028 00004 00028 12294             +
 0018AC 9680 D050      00008       12300             +
 0018B0 9640 D050      00008       12306             +
 0018B4 58F0 AA80/0DEF       02308 12309             +
 0018BA                            12311     928.              CLEAR RQBL                Set up old block for VCAT
 0018BA D7D3 C058 C058 00000 00000 12317             +
 0018C0 D203 C058 AA84 00000 0230C 12318     929.              MVC   RQBLRQBL,=CL4'RQBL'
 0018C6 9240 C0B4      0005C       12319     930.              MVI   RQBLNAME,C' '
 0018CA D22A C0B5 C0B4 0005D 0005C 12320     931.              MVC   RQBLNAME+1(L'RQBLNAME-1),RQBLNAME
 0018D0 D205 C0B4 C050 0005C 00008 12321     932.              MVC   RQBLNAME(L'@FCACCNT),@FCACCNT
 0018D6 4100 0000            00000 12322     933.              LA    R0,ACCMODE
 0018DA 50D0 C078            00020 12323     934.              CATCALL INS               Add the new account
 0018DE D603 C07C C07C 00024 00024 12335             +
 0018E4 4770 A064            018EC 12336             +
 0018E8 41D0 C0F0            00098 12342             +
 0018E6 A068           018E8 018EC 12350             +
 0018EC 47F0 A06C            018F4 12352             +
 0018F0 58D0 C07C            00024 12359             +
 0018F4 4120 0002            00002 12364             +
 0018F8 4150 C058            00000 12365             +
 0018FC 5890 AA8C/18BA       02314 12366             +
 001902 18A3/0D99/183A             12368             +
 001908 18AB/50D0 C07C       00024 12371             +
 00190E 58D0 C078/120F       00020 12373             +
 001914 4780 A0A4            0192C 12375     935.              IF    NZ,BEGIN
 001918 5900 AA94            0231C 12386  1  936.                IF    (RVR,EQ,DIRDUPER),'LA RS,4' Already exists
 00191C 4770 A09C            01924 12398  1          +
 001920 4110 0004            00004 12404  1          +
 001924 A0A0           01924 0191E 12409  1  937.                ELSE  'LA RS,8'           No more room
 001924 47F0 A0A4            0192C 12414  1          +
 001928 4110 0008            00008 12421  1          +
 00192C                            12426     938.              END   ,
1FILECAT  (FILECA) (09:39) (22MAR04) ORVYL'S File Catalog Manager                                                           Page   84
0Current Usings:  (FSB,R3) (NTRYGR,R4) (FCATAADD,R10) (@FCACMOD-72,R12) (@GRES-72,R13)
0Loc    Object Code    Addr1 Addr2  Stmt Lv Lineno    Source Statement           (Hibal 5, Asmedit 3.3)  HLASM R4.0  2004/03/22 09.39
+___    ______ ____    _____ _____  ____ __ ______    ______ _________
000192C A0A8           0192C 01916 12430     939.              ELSE  BEGIN
 00192C 47F0 A0F8            01980 12435             +
 001930 D202 400F C04D 0000F 00005 12441  1  940.                MVC   NTGMXSP,@FCACSPA+1  Max space
 001936                            12442  1  941.                CLEAR NTGUSSP             Clear space used
 001936 D702 4012 4012 00012 00012 12448  1          +
 00193C 9200 4019      00019       12449  1  942.                MVI   NTGFLG,0            No public privileges
 001940 4100 001A            0001A 12450  1  943.                LA    R0,L'NTRYGR         Insert length
 001944 50D0 C078            00020 12451  1  944.                CATCALL CONT              Continue update
 001948 D603 C07C C07C 00024 00024 12463  1          +
 00194E 4770 A0CE            01956 12464  1          +
 001952 41D0 C0F0            00098 12470  1          +
 001950 A0D2           01952 01956 12478  1          +
 001956 47F0 A0D6            0195E 12480  1          +
 00195A 58D0 C07C            00024 12487  1          +
 00195E 4120 000C            0000C 12492  1          +
 001962 4150 C058            00000 12493  1          +
 001966 5890 AA8C/18BA       02314 12494  1          +
 00196C 18A3/0D99/183A             12496  1          +
 001972 18AB/50D0 C07C       00024 12499  1          +
 001978 58D0 C078/120F       00020 12501  1          +
 00197E 1B11                       12503  1  945.                CLEAR RS
 001980                            12507     946.              END   ,
0001980                            12512     948.              GRREL RID=FSBCGRI         Release catalog hold
 001980 D708 D048 D048 00000 00000 12523             +
 001986 D203 D04C 3028 00004 00028 12528             +
 00198C 58F0 AA90/0DEF       02318 12531             +
 001992 1801                       12533     949.              LR    RVR,RS
 001994 981F C008            00008 12534     950.              PEND  ,
 DROP   NTRYGR,R4
 DROP   FSB,R3
 DROP   @FCACMOD-72,R12
 DROP   FCATAADD,R10
 001998 9680 C000/0B0E 00000       12559             +
 DROP   @GRES-72,R13
1FILECAT  (FILECA) (09:39) (22MAR04) ORVYL'S File Catalog Manager                                                           Page   85
0Loc    Object Code    Addr1 Addr2  Stmt Lv Lineno    Source Statement           (Hibal 5, Asmedit 3.3)  HLASM R4.0  2004/03/22 09.39
+___    ______ ____    _____ _____  ____ __ ______    ______ _________
0                                  12569     952.     *---------------------------------------------------------------------*
                                   12570     953.     *  FCATADEL - Delete an account
                                   12571     954.     *
                                   12572     955.     *   Inputs - @FCACMOD
                                   12573     956.     *
                                   12574     957.     *   Output -
                                   12575     958.     *
                                   12576     959.     *---------------------------------------------------------------------*
 00199E                            12577     960.     FCATADEL PROC  @FCACMOD,RQBL,SCOPE=GLOBAL
 00199E C6C3C1E3C1C4C5D3           12583             +
 0019A6 0010/00D8                  12584             +
 0019AA 900F D004/18AF       00004 12586             +
 USING  FCATADEL,R10
 0019B0 50D0 C000/18CD       00000 12601             +
 0019B6 9680 C000      00000       12603             +
 USING  @FCACMOD-72,R12
 AUSING (RQBL,@FCACMOD+16)
 0019BA 41D0 C130            00130 12622             +
 0019BE 5830 C048            00000 12623     961.              L     RB,@FCACFSB
 USING  FSB,R3                     12624     962.              WITH  (FSB,RB)
 USING  NTRYGR,R4                  12637     963.              WITH  (NTRYGR,RJ)         Entry pointer returned by VCAT
0USING  @GRES-72,R13               12651     965.              GRGET RID=FSBCGRI,EXCL=YES Get catalog hold
 0019C2 D708 D048 D048 00000 00000 12669             +
 0019C8 D203 D04C 3028 00004 00028 12674             +
 0019CE 9680 D050      00008       12680             +
 0019D2 9640 D050      00008       12686             +
 0019D6 58F0 A95E/0DEF       02308 12689             +
 0019DC                            12691     966.              CLEAR RQBL                Set up old block for VCAT
 0019DC D7D3 C058 C058 00000 00000 12697             +
 0019E2 D203 C058 A962 00000 0230C 12698     967.              MVC   RQBLRQBL,=CL4'RQBL'
 0019E8 9240 C0B4      0005C       12699     968.              MVI   RQBLNAME,C' '
 0019EC D22A C0B5 C0B4 0005D 0005C 12700     969.              MVC   RQBLNAME+1(L'RQBLNAME-1),RQBLNAME
 0019F2 D205 C0B4 C050 0005C 00008 12701     970.              MVC   RQBLNAME(L'@FCACCNT),@FCACCNT
 0019F8 4100 0000            00000 12702     971.              LA    R0,ACCMODE
 0019FC 50D0 C078            00020 12703     972.              CATCALL DEL               Add the new account
 001A00 D603 C07C C07C 00024 00024 12715             +
 001A06 4770 A064            01A0E 12716             +
 001A0A 41D0 C0F0            00098 12722             +
 001A08 A068           01A0A 01A0E 12730             +
 001A0E 47F0 A06C            01A16 12732             +
 001A12 58D0 C07C            00024 12739             +
 001A16 4120 0004            00004 12744             +
 001A1A 4150 C058            00000 12745             +
 001A1E 5890 A96A/18BA       02314 12746             +
 001A24 18A3/0D99/183A             12748             +
 001A2A 18AB/50D0 C07C       00024 12751             +
 001A30 58D0 C078/120F       00020 12753             +
 001A36 4780 A0B4            01A5E 12755     973.              IF    NZ,BEGIN
 001A3A 5900 A976            02320 12766  1  974.                IF    (RVR,EQ,DIRNFER),'LA RS,4' Not found
 001A3E 4770 A09C            01A46 12778  1          +
 001A42 4110 0004            00004 12784  1          +
 001A46 A0A0           01A46 01A40 12789  1  975.                ELSEIF (RVR,EQ,DIRDELAC),'LA RS,8' Can't del acc with files
 001A46 47F0 A0AC            01A56 12795  1          +
 001A4A 5900 A97A            02324 12809  1          +
 001A4E 4770 A0AC            01A56 12810  1          +
1FILECAT  (FILECA) (09:39) (22MAR04) ORVYL'S File Catalog Manager                                                           Page   86
0Current Usings:  (FSB,R3) (NTRYGR,R4) (FCATADEL,R10) (@FCACMOD-72,R12) (@GRES-72,R13)
0Loc    Object Code    Addr1 Addr2  Stmt Lv Lineno    Source Statement           (Hibal 5, Asmedit 3.3)  HLASM R4.0  2004/03/22 09.39
+___    ______ ____    _____ _____  ____ __ ______    ______ _________
0001A52 4110 0008            00008 12816  1          +
 001A56 A0B0           01A56 01A50 12821  1  976.                ELSE  'LA RS,16'          No more room
 001A56 47F0 A0B4            01A5E 12826  1          +
 001A5A 4110 0010            00010 12833  1          +
 001A5E                            12838     977.              END   ,
 001A5E A0B8           01A5E 01A38 12842     978.              ELSE  'CLEAR RS'
 001A5E 47F0 A0BA/1B11       01A64 12847             +
0001A64                            12863     980.              GRREL RID=FSBCGRI         Release catalog hold
 001A64 D708 D048 D048 00000 00000 12874             +
 001A6A D203 D04C 3028 00004 00028 12879             +
 001A70 58F0 A96E/0DEF       02318 12882             +
 001A76 1801                       12884     981.              LR    RVR,RS
 001A78 981F C008            00008 12885     982.              PEND  ,
 DROP   NTRYGR,R4
 DROP   FSB,R3
 DROP   @FCACMOD-72,R12
 DROP   FCATADEL,R10
 001A7C 9680 C000/0B0E 00000       12910             +
 DROP   @GRES-72,R13
1FILECAT  (FILECA) (09:39) (22MAR04) ORVYL'S File Catalog Manager                                                           Page   87
0Loc    Object Code    Addr1 Addr2  Stmt Lv Lineno    Source Statement           (Hibal 5, Asmedit 3.3)  HLASM R4.0  2004/03/22 09.39
+___    ______ ____    _____ _____  ____ __ ______    ______ _________
0                                  12920     984.     *---------------------------------------------------------------------*
                                   12921     985.     *  FCATRNAM -  Rename file
                                   12922     986.     *
                                   12923     987.     *   Inputs - @FCRNAME
                                   12924     988.     *
                                   12925     989.     *   Output -
                                   12926     990.     *
                                   12927     991.     *---------------------------------------------------------------------*
 001A82                            12928     992.     FCATRNAM PROC  @FCRNAME,RQBL,SCOPE=GLOBAL
 001A82 C6C3C1E3D9D5C1D4           12934             +
 001A8A 0050/00D8                  12935             +
 001A8E 900F D004/18AF       00004 12937             +
 USING  FCATRNAM,R10
 001A94 50D0 C000/18CD       00000 12952             +
 001A9A 9680 C000      00000       12954             +
 USING  @FCRNAME-72,R12
 AUSING (RQBL,@FCRNAME+80)
 001A9E 41D0 C170            00170 12973             +
 001AA2 5830 C048            00000 12974     993.              L     RB,@FCRNFSB
 USING  FSB,R3                     12975     994.              WITH  (FSB,RB)
0USING  @GRES-72,R13               12989     996.              GRGET RID=FSBCGRI,EXCL=YES Get catalog hold
 001AA6 D708 D048 D048 00000 00000 13007             +
 001AAC D203 D04C 3028 00004 00028 13012             +
 001AB2 9680 D050      00008       13018             +
 001AB6 9640 D050      00008       13024             +
 001ABA 58F0 A87A/0DEF       02308 13027             +
 001AC0                            13029     997.              CLEAR RQBL                Set up old block for VCAT
 001AC0 D7D3 C098 C098 00000 00000 13035             +
 001AC6 D203 C098 A87E 00000 0230C 13036     998.              MVC   RQBLRQBL,=CL4'RQBL'
 001ACC D203 C11C A882 00084 02310 13037     999.              MVC   RQBLNAME+L'RQBLNAME-4(4),=CL4' '
 001AD2 D227 C0F4 C04C 0005C 00004 13038    1000.              MVC   RQBLNAME(L'RQBLNAME-4),@FCRNAM1 File name
 001AD8 D22B C0C8 C0F4 00030 0005C 13039    1001.              MVC   RQBLRNAM,RQBLNAME   First part the same
 001ADE D220 C0CF C074 00037 0002C 13040    1002.              MVC   RQBLRNAM+7(L'@FCRNAM2),@FCRNAM2 New file name
0001AE4 1BEE                       13042    1004.              CLEAR R14                 No permits
 001AE6 4100 0000            00000 13046    1005.              LA    R0,ACCMODE          Indicate account locate
 001AEA 50D0 C0B8            00020 13047    1006.              CATCALL LOOK              Locate account
 001AEE D603 C0BC C0BC 00024 00024 13059             +
 001AF4 4770 A06E            01AFC 13060             +
 001AF8 41D0 C130            00098 13066             +
 001AF6 A072           01AF8 01AFC 13074             +
 001AFC 47F0 A076            01B04 13076             +
 001B00 58D0 C0BC            00024 13083             +
 001B04 4120 0000            00000 13088             +
 001B08 4150 C098            00000 13089             +
 001B0C 5890 A886/18BA       02314 13090             +
 001B12 18A3/0D99/183A             13092             +
 001B18 18AB/50D0 C0BC       00024 13095             +
 001B1E 58D0 C0B8/120F       00020 13097             +
 001B24 4100 0004            00004 13099    1007.              LA    R0,FILEMODE         Indicate file locate
 001B28 50D0 C0B8            00020 13100    1008.              CATCALL RENAM
 001B2C D603 C0BC C0BC 00024 00024 13112             +
 001B32 4770 A0AC            01B3A 13113             +
 001B36 41D0 C130            00098 13119             +
 001B34 A0B0           01B36 01B3A 13127             +
1FILECAT  (FILECA) (09:39) (22MAR04) ORVYL'S File Catalog Manager                                                           Page   88
0Current Usings:  (FSB,R3) (FCATRNAM,R10) (@FCRNAME-72,R12) (@GRES-72,R13)
0Loc    Object Code    Addr1 Addr2  Stmt Lv Lineno    Source Statement           (Hibal 5, Asmedit 3.3)  HLASM R4.0  2004/03/22 09.39
+___    ______ ____    _____ _____  ____ __ ______    ______ _________
0001B3A 47F0 A0B4            01B42 13129             +
 001B3E 58D0 C0BC            00024 13136             +
 001B42 4120 0008            00008 13141             +
 001B46 4150 C098            00000 13142             +
 001B4A 5890 A886/18BA       02314 13143             +
 001B50 18A3/0D99/183A             13145             +
 001B56 18AB/50D0 C0BC       00024 13148             +
 001B5C 58D0 C0B8/120F       00020 13150             +
 001B62 1210/4780 A0EE       01B7C 13152    1009.              IF    ('LTR RS,RVR',NZ),BEGIN Error return
 001B68 5900 A89A            02328 13165  1 1010.                IF    (RVR,EQ,DIRNMR),'LA RS,16' No space left in catalog
 001B6C 4770 A0E6            01B74 13177  1          +
 001B70 4110 0010            00010 13183  1          +
 001B74 A0EA           01B74 01B6E 13188  1 1011.                ELSE  'LA RS,12'          Can't rename to existing file name
 001B74 47F0 A0EE            01B7C 13193  1          +
 001B78 4110 000C            0000C 13200  1          +
 001B7C                            13205    1012.              END   ,
0001B7C                            13210    1014.              GRREL RID=FSBCGRI         Release catalog hold
 001B7C D708 D048 D048 00000 00000 13221             +
 001B82 D203 D04C 3028 00004 00028 13226             +
 001B88 58F0 A88A/0DEF       02318 13229             +
 001B8E 1801                       13231    1015.              LR    RVR,RS
 001B90 981F C008            00008 13232    1016.              PEND  ,
 DROP   FSB,R3
 DROP   @FCRNAME-72,R12
 DROP   FCATRNAM,R10
 001B94 9680 C000/0B0E 00000       13252             +
 DROP   @GRES-72,R13
1FILECAT  (FILECA) (09:39) (22MAR04) ORVYL'S File Catalog Manager                                                           Page   89
0Loc    Object Code    Addr1 Addr2  Stmt Lv Lineno    Source Statement           (Hibal 5, Asmedit 3.3)  HLASM R4.0  2004/03/22 09.39
+___    ______ ____    _____ _____  ____ __ ______    ______ _________
0                                  13262    1018.     *---------------------------------------------------------------------*
                                   13263    1019.     *  FCATDLET -  Delete file from catalog
                                   13264    1020.     *
                                   13265    1021.     *   Inputs - @FCDLETE
                                   13266    1022.     *
                                   13267    1023.     *   Output -
                                   13268    1024.     *
                                   13269    1025.     *---------------------------------------------------------------------*
 001B9A                            13270    1026.     FCATDLET PROC  @FCDLETE,RQBL,SCOPE=GLOBAL
 001B9A C6C3C1E3C4D3C5E3           13276             +
 001BA2 0030/00D8                  13277             +
 001BA6 900F D004/18AF       00004 13279             +
 USING  FCATDLET,R10
 001BAC 50D0 C000/18CD       00000 13294             +
 001BB2 9680 C000      00000       13296             +
 USING  @FCDLETE-72,R12
 AUSING (RQBL,@FCDLETE+48)
 001BB6 41D0 C150            00150 13315             +
 001BBA 5830 C048            00000 13316    1027.              L     RB,@FCDLFSB
 USING  FSB,R3                     13317    1028.              WITH  (FSB,RB)
0USING  @GRES-72,R13               13331    1030.              GRGET RID=FSBCGRI,EXCL=YES Get catalog hold
 001BBE D708 D048 D048 00000 00000 13349             +
 001BC4 D203 D04C 3028 00004 00028 13354             +
 001BCA 9680 D050      00008       13360             +
 001BCE 9640 D050      00008       13366             +
 001BD2 58F0 A762/0DEF       02308 13369             +
 001BD8                            13371    1031.              CLEAR RQBL                Set up old block for VCAT
 001BD8 D7D3 C078 C078 00000 00000 13377             +
 001BDE D203 C078 A766 00000 0230C 13378    1032.              MVC   RQBLRQBL,=CL4'RQBL'
 001BE4 D203 C0FC A76A 00084 02310 13379    1033.              MVC   RQBLNAME+L'RQBLNAME-4(4),=CL4' '
 001BEA D227 C0D4 C04C 0005C 00004 13380    1034.              MVC   RQBLNAME(L'RQBLNAME-4),@FCDLNAM File name
0001BF0 1BEE                       13382    1036.              CLEAR R14                 No permits
 001BF2 4100 0000            00000 13386    1037.              LA    R0,ACCMODE          Indicate account locate
 001BF6 50D0 C098            00020 13387    1038.              CATCALL LOOK              Locate account
 001BFA D603 C09C C09C 00024 00024 13399             +
 001C00 4770 A062            01C08 13400             +
 001C04 41D0 C110            00098 13406             +
 001C02 A066           01C04 01C08 13414             +
 001C08 47F0 A06A            01C10 13416             +
 001C0C 58D0 C09C            00024 13423             +
 001C10 4120 0000            00000 13428             +
 001C14 4150 C078            00000 13429             +
 001C18 5890 A76E/18BA       02314 13430             +
 001C1E 18A3/0D99/183A             13432             +
 001C24 18AB/50D0 C09C       00024 13435             +
 001C2A 58D0 C098/120F       00020 13437             +
 001C30 4100 0004            00004 13439    1039.              LA    R0,FILEMODE         Indicate file locate
 001C34 50D0 C098            00020 13440    1040.              CATCALL DEL
 001C38 D603 C09C C09C 00024 00024 13452             +
 001C3E 4770 A0A0            01C46 13453             +
 001C42 41D0 C110            00098 13459             +
 001C40 A0A4           01C42 01C46 13467             +
 001C46 47F0 A0A8            01C4E 13469             +
 001C4A 58D0 C09C            00024 13476             +
1FILECAT  (FILECA) (09:39) (22MAR04) ORVYL'S File Catalog Manager                                                           Page   90
0Current Usings:  (FSB,R3) (FCATDLET,R10) (@FCDLETE-72,R12) (@GRES-72,R13)
0Loc    Object Code    Addr1 Addr2  Stmt Lv Lineno    Source Statement           (Hibal 5, Asmedit 3.3)  HLASM R4.0  2004/03/22 09.39
+___    ______ ____    _____ _____  ____ __ ______    ______ _________
0001C4E 4120 0004            00004 13481             +
 001C52 4150 C078            00000 13482             +
 001C56 5890 A76E/18BA       02314 13483             +
 001C5C 18A3/0D99/183A             13485             +
 001C62 18AB/50D0 C09C       00024 13488             +
 001C68 58D0 C098/120F       00020 13490             +
 001C6E 1210/4780 A0D2       01C78 13492    1041.              IF    ('LTR RS,RVR',NZ),'LA RS,16' No space left in catalog
 001C74 4110 0010            00010 13506             +
0001C78                            13512    1043.              GRREL RID=FSBCGRI         Release catalog hold
 001C78 D708 D048 D048 00000 00000 13523             +
 001C7E D203 D04C 3028 00004 00028 13528             +
 001C84 58F0 A772/0DEF       02318 13531             +
 001C8A 1801                       13533    1044.              LR    RVR,RS
 001C8C 981F C008            00008 13534    1045.              PEND  ,
 DROP   FSB,R3
 DROP   @FCDLETE-72,R12
 DROP   FCATDLET,R10
 001C90 9680 C000/0B0E 00000       13554             +
 DROP   @GRES-72,R13
1FILECAT  (FILECA) (09:39) (22MAR04) ORVYL'S File Catalog Manager                                                           Page   91
0Loc    Object Code    Addr1 Addr2  Stmt Lv Lineno    Source Statement           (Hibal 5, Asmedit 3.3)  HLASM R4.0  2004/03/22 09.39
+___    ______ ____    _____ _____  ____ __ ______    ______ _________
0                                  13564    1047.     *---------------------------------------------------------------------*
                                   13565    1048.     *  FCATUINF -  Update file info
                                   13566    1049.     *
                                   13567    1050.     *   Inputs - @FCUINFO
                                   13568    1051.     *
                                   13569    1052.     *   Output -
                                   13570    1053.     *
                                   13571    1054.     *---------------------------------------------------------------------*
 001C96                            13572    1055.     FCATUINF PROC  @FCUINFO,RQBL,SCOPE=GLOBAL
 001C96 C6C3C1E3E4C9D5C6           13578             +
 001C9E 0040/00D8                  13579             +
 001CA2 900F D004/18AF       00004 13581             +
 USING  FCATUINF,R10
 001CA8 50D0 C000/18CD       00000 13596             +
 001CAE 9680 C000      00000       13598             +
 USING  @FCUINFO-72,R12
 AUSING (RQBL,@FCUINFO+64)
 001CB2 41D0 C160            00160 13617             +
 001CB6 5830 C048            00000 13618    1056.              L     RB,@FCUIFSB
 USING  FSB,R3                     13619    1057.              WITH  (FSB,RB)
 USING  NTRYGR,R4                  13632    1058.              WITH  (NTRYGR,RJ)         Entry pointer returned by VCAT
0USING  @GRES-72,R13               13646    1060.              GRGET RID=FSBCGRI,EXCL=YES Get catalog hold
 001CBA D708 D048 D048 00000 00000 13664             +
 001CC0 D203 D04C 3028 00004 00028 13669             +
 001CC6 9680 D050      00008       13675             +
 001CCA 9640 D050      00008       13681             +
 001CCE 58F0 A666/0DEF       02308 13684             +
 001CD4                            13686    1061.              CLEAR RQBL                Set up old block for VCAT
 001CD4 D7D3 C088 C088 00000 00000 13692             +
 001CDA D203 C088 A66A 00000 0230C 13693    1062.              MVC   RQBLRQBL,=CL4'RQBL'
 001CE0 D203 C10C A66E 00084 02310 13694    1063.              MVC   RQBLNAME+L'RQBLNAME-4(4),=CL4' '
 001CE6 D227 C0E4 C04C 0005C 00004 13695    1064.              MVC   RQBLNAME(L'RQBLNAME-4),@FCUINAM
0001CEC 1BEE                       13697    1066.              CLEAR R14                 No permits
 001CEE 4100 0000            00000 13701    1067.              LA    R0,ACCMODE          Indicate account locate
 001CF2 50D0 C0A8            00020 13702    1068.              CATCALL LOOK              Locate account
 001CF6 D603 C0AC C0AC 00024 00024 13714             +
 001CFC 4770 A062            01D04 13715             +
 001D00 41D0 C120            00098 13721             +
 001CFE A066           01D00 01D04 13729             +
 001D04 47F0 A06A            01D0C 13731             +
 001D08 58D0 C0AC            00024 13738             +
 001D0C 4120 0000            00000 13743             +
 001D10 4150 C088            00000 13744             +
 001D14 5890 A672/18BA       02314 13745             +
 001D1A 18A3/0D99/183A             13747             +
 001D20 18AB/50D0 C0AC       00024 13750             +
 001D26 58D0 C0A8/120F       00020 13752             +
 001D2C 4770 A0CE            01D70 13754    1069.              IF    Z,BEGIN             Account found
 001D30 1BEE                       13765  1 1070.                CLEAR R14                 No permits
 001D32 4100 0004            00004 13769  1 1071.                LA    R0,FILEMODE         Indicate file locate
 001D36 50D0 C0A8            00020 13770  1 1072.                CATCALL LOOK              Locate file
 001D3A D603 C0AC C0AC 00024 00024 13782  1          +
 001D40 4770 A0A6            01D48 13783  1          +
 001D44 41D0 C120            00098 13789  1          +
1FILECAT  (FILECA) (09:39) (22MAR04) ORVYL'S File Catalog Manager                                                           Page   92
0Current Usings:  (FSB,R3) (NTRYGR,R4) (FCATUINF,R10) (@FCUINFO-72,R12) (@GRES-72,R13)
0Loc    Object Code    Addr1 Addr2  Stmt Lv Lineno    Source Statement           (Hibal 5, Asmedit 3.3)  HLASM R4.0  2004/03/22 09.39
+___    ______ ____    _____ _____  ____ __ ______    ______ _________
0001D42 A0AA           01D44 01D48 13797  1          +
 001D48 47F0 A0AE            01D50 13799  1          +
 001D4C 58D0 C0AC            00024 13806  1          +
 001D50 4120 0000            00000 13811  1          +
 001D54 4150 C088            00000 13812  1          +
 001D58 5890 A672/18BA       02314 13813  1          +
 001D5E 18A3/0D99/183A             13815  1          +
 001D64 18AB/50D0 C0AC       00024 13818  1          +
 001D6A 58D0 C0A8/120F       00020 13820  1          +
 001D70                            13822    1073.              END   ,                   Account found
0001D70 4770 A246            01EE8 13827    1075.              IF    Z,BEGIN
 001D74 9180 C080      00038       13838  1 1076.                IF    @FCUIUIN,BEGIN      Set user info
 001D78 47E0 A0F4            01D96 13848  1          +
 001D7C D203 401B C074 0001B 0002C 13853  2 1077.                  MVC   NTFUINFO,@FCUINF
 001D82 9140 C080      00038       13854  2 1078.                  IF    @FCUIFRM,'SET NTFSFORM'
 001D86 47E0 A0EC            01D8E 13864  2          +
 001D8A 9640 4010      00010       13875  2          +
 001D8E A0F0           01D8E 01D88 13880  2 1079.                  ELSE  'CLEAR NTFSFORM'
 001D8E 47F0 A0F4            01D96 13885  2          +
 001D92 94BF 4010      00010       13898  2          +
 001D96                            13903  1 1080.                END   ,
 001D96 A0F8           01D96 01D7A 13907  1 1081.                ELSEIF @FCUIOWN,BEGIN     Update owner privileges
 001D96 47F0 A10A            01DAC 13913  1          +
 001D9A 9120 C080      00038       13925  1          +
 001D9E 47E0 A10A            01DAC 13926  1          +
 001DA2 940F C074      0002C       13931  2 1082.                  NI    @FCUINF,FPALL
 001DA6 D200 4012 C074 00012 0002C 13932  2 1083.                  MVC   NTFFLGO,@FCUINF
 001DAC                            13933  1 1084.                END   ,
 001DAC A10E           01DAC 01DA0 13937  1 1085.                ELSEIF @FCUIPUB,BEGIN     Update public privileges
 001DAC 47F0 A120            01DC2 13943  1          +
 001DB0 9110 C080      00038       13955  1          +
 001DB4 47E0 A120            01DC2 13956  1          +
 001DB8 940F C074      0002C       13961  2 1086.                  NI    @FCUINF,FPALL
 001DBC D200 4011 C074 00011 0002C 13962  2 1087.                  MVC   NTFFLGP,@FCUINF
 001DC2                            13963  1 1088.                END   ,
 001DC2 A124           01DC2 01DB6 13967  1 1089.                ELSEIF @FCUISHR,BEGIN     Update share mode
 001DC2 47F0 A140            01DE2 13973  1          +
 001DC6 9108 C080      00038       13985  1          +
 001DCA 47E0 A140            01DE2 13986  1          +
 001DCE 9104 C080      00038       13991  2 1090.                  IF    @FCUISHO,'SET NTFPSHR' Set to share only
 001DD2 47E0 A138            01DDA 14001  2          +
 001DD6 9610 4011      00011       14012  2          +
 001DDA A13C           01DDA 01DD4 14017  2 1091.                  ELSE  'CLEAR NTFPSHR'     Set to not share only
 001DDA 47F0 A140            01DE2 14022  2          +
 001DDE 94EF 4011      00011       14035  2          +
 001DE2                            14040  1 1092.                END   ,
 001DE2 A144           01DE2 01DCC 14044  1 1093.                ELSEIF @FCUINCL,BEGIN     Update NOCLP mode
 001DE2 47F0 A160            01E02 14050  1          +
 001DE6 9180 C081      00039       14062  1          +
 001DEA 47E0 A160            01E02 14063  1          +
 001DEE 9140 C081      00039       14068  2 1094.                  IF    @FCUINCO,'SET NTFNOCLP' Set to NOCLP
 001DF2 47E0 A158            01DFA 14078  2          +
 001DF6 9620 4010      00010       14089  2          +
1FILECAT  (FILECA) (09:39) (22MAR04) ORVYL'S File Catalog Manager                                                           Page   93
0Current Usings:  (FSB,R3) (NTRYGR,R4) (FCATUINF,R10) (@FCUINFO-72,R12) (@GRES-72,R13)
0Loc    Object Code    Addr1 Addr2  Stmt Lv Lineno    Source Statement           (Hibal 5, Asmedit 3.3)  HLASM R4.0  2004/03/22 09.39
+___    ______ ____    _____ _____  ____ __ ______    ______ _________
0001DFA A15C           01DFA 01DF4 14094  2 1095.                  ELSE  'CLEAR NTFNOCLP'     Set to not NOCLP
 001DFA 47F0 A160            01E02 14099  2          +
 001DFE 94DF 4010      00010       14112  2          +
 001E02                            14117  1 1096.                END   ,
 001E02 A164           01E02 01DEC 14121  1 1097.                ELSEIF @FCUICLP,BEGIN     Update CLP mode
 001E02 47F0 A180            01E22 14127  1          +
 001E06 9120 C081      00039       14139  1          +
 001E0A 47E0 A180            01E22 14140  1          +
 001E0E 9110 C081      00039       14145  2 1098.                  IF    @FCUICLO,'SET NTFCLP' Set to CLP only
 001E12 47E0 A178            01E1A 14155  2          +
 001E16 9680 4010      00010       14166  2          +
 001E1A A17C           01E1A 01E14 14171  2 1099.                  ELSE  'CLEAR NTFCLP'     Set to not CLP only
 001E1A 47F0 A180            01E22 14176  2          +
 001E1E 947F 4010      00010       14189  2          +
 001E22                            14194  1 1100.                END   ,
 001E22 A184           01E22 01E0C 14198  1 1101.                ELSEIF @FCUISPI,BEGIN     Update spires mode
 001E22 47F0 A1A0            01E42 14204  1          +
 001E26 9108 C081      00039       14216  1          +
 001E2A 47E0 A1A0            01E42 14217  1          +
 001E2E 9104 C081      00039       14222  2 1102.                  IF    @FCUISPO,'SET NTFSPI' Set to spires only
 001E32 47E0 A198            01E3A 14232  2          +
 001E36 9608 4010      00010       14243  2          +
 001E3A A19C           01E3A 01E34 14248  2 1103.                  ELSE  'CLEAR NTFSPI'      Set to not spires only
 001E3A 47F0 A1A0            01E42 14253  2          +
 001E3E 94F7 4010      00010       14266  2          +
 001E42                            14271  1 1104.                END   ,
 001E42 A1A4           01E42 01E2C 14275  1 1105.                ELSEIF @FCUIHYB,BEGIN     Convert to hybrid
 001E42 47F0 A1C0            01E62 14281  1          +
 001E46 9102 C081      00039       14293  1          +
 001E4A 47E0 A1C0            01E62 14294  1          +
 001E4E 9610 4010      00010       14299  2 1106.                  SET   NTFNIXR             Non-IXR
 001E52 9604 4010      00010       14305  2 1107.                  SET   NTFHYBR             Hybrid
 001E56 D202 400A C079 0000A 00031 14311  2 1108.                  MVC   NTFLOC,@FCUIBLK+1   Set first block
 001E5C D202 400D C07D 0000D 00035 14312  2 1109.                  MVC   NTFCNT,@FCUICNT+1   Set block count
 001E62                            14313  1 1110.                END   ,
 001E62 A1C4           01E62 01E4C 14317  1 1111.                ELSEIF @FCUINEW,BEGIN     New first block
 001E62 47F0 A1D2            01E74 14323  1          +
 001E66 9101 C081      00039       14335  1          +
 001E6A 47E0 A1D2            01E74 14336  1          +
 001E6E D202 400A C079 0000A 00031 14341  2 1112.                  MVC   NTFLOC,@FCUIBLK+1   Set first block
 001E74                            14342  1 1113.                END   ,
 001E74 A1D6           01E74 01E6C 14346  1 1114.                ELSE  'ABORT DOUG_BUG'
 001E74 47F0 A206            01EA8 14351  1          +
 USING  PZERO,R0
 001E78 AC04 021B      0021B       14370  2          +
 001E7C 9680 021A      0021A       14376  2          +
 001E80 50F0 021C            0021C 14377  2          +
 001E84 58F0 0210            00210 14378  2          +
 001E88 89F0 0010            00010 14379  2          +
 001E8C 88F0 0010            00010 14380  2          +
 001E90 41F0 F000            00000 14381  2          +
 001E94 AEFF 0006            00006 14382  2          +
 001E98 C4D6E4C76DC2E4C7           14383  1          +
 DROP   PZERO,R0
1FILECAT  (FILECA) (09:39) (22MAR04) ORVYL'S File Catalog Manager                                                           Page   94
0Current Usings:  (FSB,R3) (NTRYGR,R4) (FCATUINF,R10) (@FCUINFO-72,R12) (@GRES-72,R13)
0Loc    Object Code    Addr1 Addr2  Stmt Lv Lineno    Source Statement           (Hibal 5, Asmedit 3.3)  HLASM R4.0  2004/03/22 09.39
+___    ______ ____    _____ _____  ____ __ ______    ______ _________
0001EA8 41F0 0004            00004 14397  1 1116.                LA    R15,4               Entry changed but no length change
 001EAC 50D0 C0A8            00020 14398  1 1117.                CATCALL CONT              Continue update of account entry
 001EB0 D603 C0AC C0AC 00024 00024 14410  1          +
 001EB6 4770 A21C            01EBE 14411  1          +
 001EBA 41D0 C120            00098 14417  1          +
 001EB8 A220           01EBA 01EBE 14425  1          +
 001EBE 47F0 A224            01EC6 14427  1          +
 001EC2 58D0 C0AC            00024 14434  1          +
 001EC6 4120 000C            0000C 14439  1          +
 001ECA 4150 C088            00000 14440  1          +
 001ECE 5890 A672/18BA       02314 14441  1          +
 001ED4 18A3/0D99/183A             14443  1          +
 001EDA 18AB/50D0 C0AC       00024 14446  1          +
 001EE0 58D0 C0A8/120F       00020 14448  1          +
 001EE6 1B00                       14450  1 1118.                CLEAR RVR
 001EE8                            14454    1119.              END   ,
0001EE8 1890                       14459    1121.              LR    RN,RVR
 001EEA                            14460    1122.              GRREL RID=FSBCGRI         Release catalog hold
 001EEA D708 D048 D048 00000 00000 14471             +
 001EF0 D203 D04C 3028 00004 00028 14476             +
 001EF6 58F0 A676/0DEF       02318 14479             +
 001EFC 1809                       14481    1123.              LR    RVR,RN
0001EFE 981F C008            00008 14483    1125.              PEND  ,
 DROP   NTRYGR,R4
 DROP   FSB,R3
 DROP   @FCUINFO-72,R12
 DROP   FCATUINF,R10
 001F02 9680 C000/0B0E 00000       14508             +
 DROP   @GRES-72,R13
1FILECAT  (FILECA) (09:39) (22MAR04) ORVYL'S File Catalog Manager                                                           Page   95
0Loc    Object Code    Addr1 Addr2  Stmt Lv Lineno    Source Statement           (Hibal 5, Asmedit 3.3)  HLASM R4.0  2004/03/22 09.39
+___    ______ ____    _____ _____  ____ __ ______    ______ _________
0                                  14518    1127.     *---------------------------------------------------------------------*
                                   14519    1128.     *  FCATFINF -  Get file information
                                   14520    1129.     *
                                   14521    1130.     *   Inputs - @FCFINFO
                                   14522    1131.     *
                                   14523    1132.     *   Output -
                                   14524    1133.     *
                                   14525    1134.     *---------------------------------------------------------------------*
 001F08                            14526    1135.     FCATFINF PROC  @FCFINFO,RQBL,SCOPE=GLOBAL
 001F08 C6C3C1E3C6C9D5C6           14532             +
 001F10 0048/00D8                  14533             +
 001F14 900F D004/18AF       00004 14535             +
 USING  FCATFINF,R10
 001F1A 50D0 C000/18CD       00000 14550             +
 001F20 9680 C000      00000       14552             +
 USING  @FCFINFO-72,R12
 AUSING (RQBL,@FCFINFO+72)
 001F24 41D0 C168            00168 14571             +
 001F28 5830 C048            00000 14572    1136.              L     RB,@FCFFSB
 USING  FSB,R3                     14573    1137.              WITH  (FSB,RB)
 USING  NTRYGR,R4                  14586    1138.              WITH  (NTRYGR,RJ)         Entry pointer returned by VCAT
0USING  @GRES-72,R13               14600    1140.              GRGET RID=FSBCGRI,EXCL=YES Get catalog hold
 001F2C D708 D048 D048 00000 00000 14618             +
 001F32 D203 D04C 3028 00004 00028 14623             +
 001F38 9680 D050      00008       14629             +
 001F3C 9640 D050      00008       14635             +
 001F40 58F0 A3F4/0DEF       02308 14638             +
 001F46                            14640    1141.              CLEAR RQBL                Set up old block for VCAT
 001F46 D7D3 C090 C090 00000 00000 14646             +
 001F4C D203 C090 A3F8 00000 0230C 14647    1142.              MVC   RQBLRQBL,=CL4'RQBL'
 001F52 D203 C114 A3FC 00084 02310 14648    1143.              MVC   RQBLNAME+L'RQBLNAME-4(4),=CL4' '
 001F58 D227 C0EC C04C 0005C 00004 14649    1144.              MVC   RQBLNAME(L'RQBLNAME-4),@FCFNAM
0001F5E 1BEE                       14651    1146.              CLEAR R14                 No permits
 001F60 4100 0000            00000 14655    1147.              LA    R0,ACCMODE          Indicate account locate
 001F64 50D0 C0B0            00020 14656    1148.              CATCALL LOOK              Locate account
 001F68 D603 C0B4 C0B4 00024 00024 14668             +
 001F6E 4770 A062            01F76 14669             +
 001F72 41D0 C128            00098 14675             +
 001F70 A066           01F72 01F76 14683             +
 001F76 47F0 A06A            01F7E 14685             +
 001F7A 58D0 C0B4            00024 14692             +
 001F7E 4120 0000            00000 14697             +
 001F82 4150 C090            00000 14698             +
 001F86 5890 A400/18BA       02314 14699             +
 001F8C 18A3/0D99/183A             14701             +
 001F92 18AB/50D0 C0B4       00024 14704             +
 001F98 58D0 C0B0/120F       00020 14706             +
 001F9E 1BEE                       14708    1149.              CLEAR R14                 No permits
 001FA0 4100 0004            00004 14712    1150.              LA    R0,FILEMODE         Indicate file locate
 001FA4 50D0 C0B0            00020 14713    1151.              CATCALL LOOK              Locate file
 001FA8 D603 C0B4 C0B4 00024 00024 14725             +
 001FAE 4770 A0A2            01FB6 14726             +
 001FB2 41D0 C128            00098 14732             +
 001FB0 A0A6           01FB2 01FB6 14740             +
1FILECAT  (FILECA) (09:39) (22MAR04) ORVYL'S File Catalog Manager                                                           Page   96
0Current Usings:  (FSB,R3) (NTRYGR,R4) (FCATFINF,R10) (@FCFINFO-72,R12) (@GRES-72,R13)
0Loc    Object Code    Addr1 Addr2  Stmt Lv Lineno    Source Statement           (Hibal 5, Asmedit 3.3)  HLASM R4.0  2004/03/22 09.39
+___    ______ ____    _____ _____  ____ __ ______    ______ _________
0001FB6 47F0 A0AA            01FBE 14742             +
 001FBA 58D0 C0B4            00024 14749             +
 001FBE 4120 0000            00000 14754             +
 001FC2 4150 C090            00000 14755             +
 001FC6 5890 A400/18BA       02314 14756             +
 001FCC 18A3/0D99/183A             14758             +
 001FD2 18AB/50D0 C0B4       00024 14761             +
 001FD8 58D0 C0B0/120F       00020 14763             +
 001FDE 4780 A0FE            02012 14765    1152.              IF    NZ,'ABORT FCATFINF_NO_FILE'
 USING  PZERO,R0
 001FE2 AC04 021B      0021B       14789  1          +
 001FE6 9680 021A      0021A       14795  1          +
 001FEA 50F0 021C            0021C 14796  1          +
 001FEE 58F0 0210            00210 14797  1          +
 001FF2 89F0 0010            00010 14798  1          +
 001FF6 88F0 0010            00010 14799  1          +
 001FFA 41F0 F000            00000 14800  1          +
 001FFE AEFF 0006            00006 14801  1          +
 002002 C6C3C1E3C6C9D5C6           14802             +
 DROP   PZERO,R0
0002012 D214 C074 400A 0002C 0000A 14816    1154.              MVC   @FCFINF,NTFLOC      Return file information
 002018                            14817    1155.              GRREL RID=FSBCGRI         Release catalog hold
 002018 D708 D048 D048 00000 00000 14828             +
 00201E D203 D04C 3028 00004 00028 14833             +
 002024 58F0 A404/0DEF       02318 14836             +
 00202A 1B00                       14838    1156.              CLEAR RVR
000202C 981F C008            00008 14843    1158.              PEND  ,
 DROP   NTRYGR,R4
 DROP   FSB,R3
 DROP   @FCFINFO-72,R12
 DROP   FCATFINF,R10
 002030 9680 C000/0B0E 00000       14868             +
 DROP   @GRES-72,R13
1FILECAT  (FILECA) (09:39) (22MAR04) ORVYL'S File Catalog Manager                                                           Page   97
0Loc    Object Code    Addr1 Addr2  Stmt Lv Lineno    Source Statement           (Hibal 5, Asmedit 3.3)  HLASM R4.0  2004/03/22 09.39
+___    ______ ____    _____ _____  ____ __ ______    ______ _________
0                                  14878    1160.     *---------------------------------------------------------------------*
                                   14879    1161.     *  FCATAINF -  Get account information
                                   14880    1162.     *
                                   14881    1163.     *   Inputs - @FCAINFO
                                   14882    1164.     *
                                   14883    1165.     *   Output -
                                   14884    1166.     *
                                   14885    1167.     *---------------------------------------------------------------------*
 002036                            14886    1168.     FCATAINF PROC  @FCAINFO,RQBL,SCOPE=GLOBAL
 002036 C6C3C1E3C1C9D5C6           14892             +
 00203E 0018/00D8                  14893             +
 002042 900F D004/18AF       00004 14895             +
 USING  FCATAINF,R10
 002048 50D0 C000/18CD       00000 14910             +
 00204E 9680 C000      00000       14912             +
 USING  @FCAINFO-72,R12
 AUSING (RQBL,@FCAINFO+24)
 002052 41D0 C138            00138 14931             +
 002056 5830 C048            00000 14932    1169.              L     RB,@FCAIFSB
 USING  FSB,R3                     14933    1170.              WITH  (FSB,RB)
 USING  NTRYGR,R4                  14946    1171.              WITH  (NTRYGR,RJ)         Entry pointer returned by VCAT
 USING  @GRES-72,R13               14959    1172.              GRGET RID=FSBCGRI,EXCL=YES Get catalog hold
 00205A D708 D048 D048 00000 00000 14977             +
 002060 D203 D04C 3028 00004 00028 14982             +
 002066 9680 D050      00008       14988             +
 00206A 9640 D050      00008       14994             +
 00206E 58F0 A2C6/0DEF       02308 14997             +
0002074                            15000    1174.              CLEAR RQBL                Set up old block for VCAT
 002074 D7D3 C060 C060 00000 00000 15006             +
 00207A D203 C060 A2CA 00000 0230C 15007    1175.              MVC   RQBLRQBL,=CL4'RQBL'
 002080 D205 C0BC C04C 0005C 00004 15008    1176.              MVC   RQBLNAME(L'@FCAIACC),@FCAIACC
 002086 4100 0000            00000 15009    1177.              LA    R0,ACCMODE
 00208A 41E0 0001            00001 15010    1178.              LA    R14,1               Permits
 00208E 1BFF                       15011    1179.              CLEAR R15                 No length modify
 002090 50D0 C080            00020 15015    1180.              CATCALL LOOK              Locate the entry
 002094 D603 C084 C084 00024 00024 15027             +
 00209A 4770 A060            020A2 15028             +
 00209E 41D0 C0F8            00098 15034             +
 00209C A064           0209E 020A2 15042             +
 0020A2 47F0 A068            020AA 15044             +
 0020A6 58D0 C084            00024 15051             +
 0020AA 4120 0000            00000 15056             +
 0020AE 4150 C060            00000 15057             +
 0020B2 5890 A2D2/18BA       02314 15058             +
 0020B8 18A3/0D99/183A             15060             +
 0020BE 18AB/50D0 C084       00024 15063             +
 0020C4 58D0 C080/120F       00020 15065             +
 0020CA 4110 0004            00004 15067    1181.              LA    RS,4                Set not there
 0020CE 1200/4770 A0D2       02114 15068    1182.              IF    (RVR,NZ),FCATAINX   Account not found
 0020D4                            15085    1183.              IF    (@FCAIUSE,NZ),BEGIN
 0020D4 D605 C052 C052 0000A 0000A 15095             +
 0020DA 4780 A0C4            02106 15096             +
 DROP   @GRES-72,R13               15101  1 1184.                LOCAP @FCAIUSE            Get user permits
 USING  @LOCPERM-72,R13
 0020DE D70A D048 D048 00000 00000 15122  1          +
1FILECAT  (FILECA) (09:39) (22MAR04) ORVYL'S File Catalog Manager                                                           Page   98
0Current Usings:  (FSB,R3) (NTRYGR,R4) (FCATAINF,R10) (@FCAINFO-72,R12) (@LOCPERM-72,R13)
0Loc    Object Code    Addr1 Addr2  Stmt Lv Lineno    Source Statement           (Hibal 5, Asmedit 3.3)  HLASM R4.0  2004/03/22 09.39
+___    ______ ____    _____ _____  ____ __ ______    ______ _________
00020E4 4100 4000            00000 15134  1          +
 0020E8 5000 D048            00000 15139  1          +
 0020EC D205 D04C C052 00004 0000A 15144  1          +
 0020F2 9640 D052      0000A       15150  1          +
 0020F6 58F0 A2EA/0DEF       0232C 15156  1          +
 0020FC 4110 0008            00008 15158  1 1185.                LA    RS,8                Init to not allowed
 002100 1200/4780 A0D2       02114 15159  1 1186.                IF    (RVR,Z),FCATAINX    Not allowed
 002106                            15176    1187.              END   ,
0002106 D202 C059 400F 00011 0000F 15181    1189.              MVC   @FCAIABK+1(3),NTGMXSP Set max space
 00210C D202 C05D 4012 00015 00012 15182    1190.              MVC   @FCAIUBK+1(3),NTGUSSP Set used space
0002112 1B11                       15184    1192.              CLEAR RS
-002114                            15190    1195.     FCATAINX LABEL ,
 DROP   @LOCPERM-72,R13            15192    1196.              GRREL RID=FSBCGRI         Release catalog hold
 USING  @GRES-72,R13
 002114 D708 D048 D048 00000 00000 15213             +
 00211A D203 D04C 3028 00004 00028 15218             +
 002120 58F0 A2D6/0DEF       02318 15221             +
 002126 1801                       15223    1197.              LR    RVR,RS              Set return code
0002128 981F C008            00008 15225    1199.              PEND  ,
 DROP   NTRYGR,R4
 DROP   FSB,R3
 DROP   @FCAINFO-72,R12
 DROP   FCATAINF,R10
 00212C 9680 C000/0B0E 00000       15250             +
 DROP   @GRES-72,R13
1FILECAT  (FILECA) (09:39) (22MAR04) ORVYL'S File Catalog Manager                                                           Page   99
0Loc    Object Code    Addr1 Addr2  Stmt Lv Lineno    Source Statement           (Hibal 5, Asmedit 3.3)  HLASM R4.0  2004/03/22 09.39
+___    ______ ____    _____ _____  ____ __ ______    ______ _________
0                                  15260    1201.     *---------------------------------------------------------------------*
                                   15261    1202.     *  FCATGPRM -  Get permit entries
                                   15262    1203.     *
                                   15263    1204.     *   Inputs - @FCGPERM
                                   15264    1205.     *
                                   15265    1206.     *   Output -
                                   15266    1207.     *
                                   15267    1208.     *---------------------------------------------------------------------*
 002132                            15268    1209.     FCATGPRM PROC  @FCGPERM,RQBL,SCOPE=GLOBAL
 002132 C6C3C1E3C7D7D9D4           15274             +
 00213A 0048/00D8                  15275             +
 00213E 900F D004/18AF       00004 15277             +
 USING  FCATGPRM,R10
 002144 50D0 C000/18CD       00000 15292             +
 00214A 9680 C000      00000       15294             +
 USING  @FCGPERM-72,R12
 AUSING (RQBL,@FCGPERM+72)
 00214E 41D0 C168            00168 15313             +
 002152 5830 C048            00000 15314    1210.              L     RB,@FCGPFSB
 USING  FSB,R3                     15315    1211.              WITH  (FSB,RB)
 USING  NTRYGR,R4                  15328    1212.              WITH  (NTRYGR,RJ)         Entry pointer returned by VCAT
 USING  @GRES-72,R13               15341    1213.              GRGET RID=FSBCGRI,EXCL=YES Get catalog hold
 002156 D708 D048 D048 00000 00000 15359             +
 00215C D203 D04C 3028 00004 00028 15364             +
 002162 9680 D050      00008       15370             +
 002166 9640 D050      00008       15376             +
 00216A 58F0 A1CA/0DEF       02308 15379             +
0002170                            15382    1215.              CLEAR RQBL                Set up old block for VCAT
 002170 D7D3 C090 C090 00000 00000 15388             +
 002176 D203 C090 A1CE 00000 0230C 15389    1216.              MVC   RQBLRQBL,=CL4'RQBL'
 00217C 9180 C058      00010       15390    1217.              IF    @FCGPFF,BEGIN       File permits
 002180 47E0 A096            021D4 15400             +
 002184 D203 C114 A1D2 00084 02310 15405  1 1218.                MVC   RQBLNAME+L'RQBLNAME-4(4),=CL4' '
 00218A D227 C0EC C067 0005C 0001F 15406  1 1219.                MVC   RQBLNAME(L'RQBLNAME-4),@FCGPNAM
 002190 1BEE                       15407  1 1220.                CLEAR R14                 No permits
 002192 4100 0000            00000 15411  1 1221.                LA    R0,ACCMODE          Indicate account locate
 002196 50D0 C0B0            00020 15412  1 1222.                CATCALL LOOK              Locate account
 00219A D603 C0B4 C0B4 00024 00024 15424  1          +
 0021A0 4770 A06A            021A8 15425  1          +
 0021A4 41D0 C128            00098 15431  1          +
 0021A2 A06E           021A4 021A8 15439  1          +
 0021A8 47F0 A072            021B0 15441  1          +
 0021AC 58D0 C0B4            00024 15448  1          +
 0021B0 4120 0000            00000 15453  1          +
 0021B4 4150 C090            00000 15454  1          +
 0021B8 5890 A1D6/18BA       02314 15455  1          +
 0021BE 18A3/0D99/183A             15457  1          +
 0021C4 18AB/50D0 C0B4       00024 15460  1          +
 0021CA 58D0 C0B0/120F       00020 15462  1          +
 0021D0 4100 0004            00004 15464  1 1223.                LA    R0,FILEMODE
 0021D4                            15465    1224.              END   ,
 0021D4 A09A           021D4 02182 15469    1225.              ELSE  BEGIN
 0021D4 47F0 A0A4            021E2 15474             +
 0021D8 D205 C0EC C061 0005C 00019 15480  1 1226.                MVC   RQBLNAME(L'@FCGPACC),@FCGPACC
 0021DE 4100 0000            00000 15481  1 1227.                LA    R0,ACCMODE
1FILECAT  (FILECA) (09:39) (22MAR04) ORVYL'S File Catalog Manager                                                           Page  100
0Current Usings:  (FSB,R3) (NTRYGR,R4) (FCATGPRM,R10) (@FCGPERM-72,R12) (@GRES-72,R13)
0Loc    Object Code    Addr1 Addr2  Stmt Lv Lineno    Source Statement           (Hibal 5, Asmedit 3.3)  HLASM R4.0  2004/03/22 09.39
+___    ______ ____    _____ _____  ____ __ ______    ______ _________
00021E2                            15482    1228.              END   ,
 0021E2 41E0 0001            00001 15486    1229.              LA    R14,1               Permits
 0021E6 1BFF                       15487    1230.              CLEAR R15                 No length modify
 0021E8 50D0 C0B0            00020 15491    1231.              CATCALL LOOK              Locate the entry
 0021EC D603 C0B4 C0B4 00024 00024 15503             +
 0021F2 4770 A0BC            021FA 15504             +
 0021F6 41D0 C128            00098 15510             +
 0021F4 A0C0           021F6 021FA 15518             +
 0021FA 47F0 A0C4            02202 15520             +
 0021FE 58D0 C0B4            00024 15527             +
 002202 4120 0000            00000 15532             +
 002206 4150 C090            00000 15533             +
 00220A 5890 A1D6/18BA       02314 15534             +
 002210 18A3/0D99/183A             15536             +
 002216 18AB/50D0 C0B4       00024 15539             +
 00221C 58D0 C0B0/120F       00020 15541             +
 002222 9140 C058      00010       15543    1232.              IF    @FCGPFA,BEGIN
 002226 47E0 A130            0226E 15553             +
 00222A 4110 0004            00004 15558  1 1233.                LA    RS,4                Set not there
 00222E 1200/4770 A1AA       022E8 15559  1 1234.                IF    (RVR,NZ),FCATGPRX   Account not found
 002234 9120 C058      00010       15576  1 1235.                IF    ~@FCGPFM,BEGIN
 002238 4710 A126            02264 15586  1          +
 DROP   @GRES-72,R13               15591  2 1236.                  LOCAP @FCGPUSE            Get user permits
 USING  @LOCPERM-72,R13
 00223C D70A D048 D048 00000 00000 15612  2          +
 002242 4100 4000            00000 15624  2          +
 002246 5000 D048            00000 15629  2          +
 00224A D205 D04C C05B 00004 00013 15634  2          +
 002250 9640 D052      0000A       15640  2          +
 002254 58F0 A1EE/0DEF       0232C 15646  2          +
 00225A 4110 0008            00008 15648  2 1237.                  LA    RS,8                Init to not allowed
 00225E 1200/4780 A1AA       022E8 15649  2 1238.                  IF    (RVR,Z),FCATGPRX    Not allowed
 002264                            15666  1 1239.                END   ,
 002264 D200 C059 4019 00011 00019 15670  1 1240.                MVC   @FCGPPP,NTGFLG      Get public permits
 00226A 4180 401A            0001A 15671  1 1241.                LA    RM,NTGMEMBR         Point to member permits
 00226E                            15672    1242.              END   ,
 00226E A134           0226E 02228 15676    1243.              ELSE  BEGIN
 00226E 47F0 A156            02294 15681             +
                                   15687  1 1244.     * Note: Files are already attached so they must exist and the
                                   15688  1 1245.     *       user must be authorized.
 002272 D200 C059 4011 00011 00011 15689  1 1246.                MVC   @FCGPPP,NTFFLGP     Get public permits
 002278 D200 C05A 4012 00012 00012 15690  1 1247.                MVC   @FCGPMS,NTFFLGO     Get file mask
 00227E 1B11                       15691  1 1248.                CLEAR RS                  Set to OK
 002280                            15695  1 1249.                IF    (@FCGPLEN,Z),FCATGPRX
 002280 D603 C050 C050 00008 00008 15705  1          +
 002286 4780 A1AA            022E8 15708  1          +
 00228A 1FEE/43E0 401F       0001F 15714  1 1250.                LC    R14,NTFLNMSZ        Get filename size
 002290 418E 4020            00020 15721  1 1251.                LA    RM,NTFLNAME(R14)    Point to member permits
 002294                            15722    1252.              END   ,
 002294 1FFF/BFF3 4000       00000 15726    1253.              L2    R15,NTRYLEN         Get length of entry
 00229A 41FF 4000            00000 15732    1254.              LA    R15,NTRY(R15)       Point to end of entry
 00229E 1BF8                       15733    1255.              SR    R15,RM              Calc member permits length
 0022A0 1B11                       15734    1256.              CLEAR RS                  Set to OK
 0022A2 12FF/4780 A1AA       022E8 15738    1257.              IF    (R15,Z),FCATGPRX    If none, done
1FILECAT  (FILECA) (09:39) (22MAR04) ORVYL'S File Catalog Manager                                                           Page  101
0Current Usings:  (FSB,R3) (NTRYGR,R4) (FCATGPRM,R10) (@FCGPERM-72,R12) (@LOCPERM-72,R13)
0Loc    Object Code    Addr1 Addr2  Stmt Lv Lineno    Source Statement           (Hibal 5, Asmedit 3.3)  HLASM R4.0  2004/03/22 09.39
+___    ______ ____    _____ _____  ____ __ ______    ______ _________
00022A8 59F0 C050            00008 15755    1258.              IF    (R15,GT,@FCGPLEN),'L R15,@FCGPLEN' Only this much
 0022AC 47D0 A176            022B4 15767             +
 0022B0 58F0 C050            00008 15773             +
 0022B4 1BEE                       15778    1259.              CLEAR R14
 0022B6 5DE0 A1F2            02330 15782    1260.              D     R14,=A(L'NTRYPR)    Calc number of entries
 0022BA 50F0 C054            0000C 15783    1261.              ST    R15,@FCGPCNT        Set entry count
 0022BE 4CF0 A1F6            02334 15784    1262.              MH    R15,=Y(L'NTRYPR)    Calc length to move
 0022C2 58E0 C04C            00004 15785    1263.              L     R14,@FCGPLOC        Point to buffer
 0022C6 189F                       15786    1264.              LR    RN,R15              Get length to move
 0022C8 0EE8                       15787    1265.              MVCL  R14,RM              Move the entries
00022CA 5880 C04C            00004 15789    1267.              L     RM,@FCGPLOC         Point to buffer
 0022CE 5890 C054            0000C 15790    1268.              L     RN,@FCGPCNT         Get count of entries
 USING  NTRYPR,R8                  15791    1269.              WITH  (NTRYPR,RM)
 0022D2                            15804    1270.              LOOP  BEGIN
 0022D2 9597 8003      00003       15810  1 1271.                CLI   NTPNAME+3,C'p'
 0022D6 4770 A1A0            022DE 15811  1 1272.                IF    EQ,'MVI NTPNAME+3,C"P"' Get those little p's
 0022DA 92D7 8003      00003       15823  1          +
 0022DE 4180 8007            00007 15828  1 1273.                LA    RM,NTRYPR+L'NTRYPR  Next
 0022E2 4690 A194            022D2 15829    1274.              UNTIL (BCT,RN),END
00022E6 1B11                       15840    1276.              CLEAR RS                  Set return code
00022E8                            15845    1278.     FCATGPRX LABEL ,
 DROP   @LOCPERM-72,R13            15847    1279.              GRREL RID=FSBCGRI         Release catalog hold
 USING  @GRES-72,R13
 0022E8 D708 D048 D048 00000 00000 15868             +
 0022EE D203 D04C 3028 00004 00028 15873             +
 0022F4 58F0 A1DA/0DEF       02318 15876             +
 0022FA 1801                       15878    1280.              LR    RVR,RS              Set return code
00022FC 981F C008            00008 15880    1282.              PEND  ,
 DROP   NTRYPR,R8
 DROP   NTRYGR,R4
 DROP   FSB,R3
 DROP   @FCGPERM-72,R12
 DROP   FCATGPRM,R10
 002300 9680 C000/0B0E 00000       15910             +
 DROP   @GRES-72,R13
 002308                            15919    1283.              LTORG ,
 002308 00000000                   15921                             =V(GRGET)
 00230C D9D8C2D3                   15922                             =CL4'RQBL'
 002310 40404040                   15923                             =CL4' '
 002314 00000000                   15924                             =V(VCATENT)
 002318 00000000                   15925                             =V(GRREL)
 00231C 00000008                   15926                             =A(DIRDUPER)
 002320 00000004                   15927                             =A(DIRNFER)
 002324 0000000C                   15928                             =A(DIRDELAC)
 002328 0000001C                   15929                             =A(DIRNMR)
 00232C 00002A46                   15930                             =A(LOCPERM)
 002330 00000007                   15931                             =A(L'NTRYPR)
 002334 0007           02336 03048 15932                             =Y(L'NTRYPR)
1FILECAT  (FILECA) (09:39) (22MAR04) ORVYL'S File Catalog Manager                                                           Page  102
0Loc    Object Code    Addr1 Addr2  Stmt Lv Lineno    Source Statement           (Hibal 5, Asmedit 3.3)  HLASM R4.0  2004/03/22 09.39
+___    ______ ____    _____ _____  ____ __ ______    ______ _________
0                                  15937    1285.     *---------------------------------------------------------------------*
                                   15938    1286.     *  FCATEPUB -  Extend public global file access privileges
                                   15939    1287.     *
                                   15940    1288.     *   Inputs - @FCEPUB
                                   15941    1289.     *
                                   15942    1290.     *   Output -
                                   15943    1291.     *
                                   15944    1292.     *---------------------------------------------------------------------*
 002336                            15945    1293.     FCATEPUB PROC  @FCEPUB,RQBL,SCOPE=GLOBAL
 002336 C6C3C1E3C5D7E4C2           15951             +
 00233E 0010/00D8                  15952             +
 002342 900F D004/18AF       00004 15954             +
 USING  FCATEPUB,R10
 002348 50D0 C000/18CD       00000 15969             +
 00234E 9680 C000      00000       15971             +
 USING  @FCEPUB-72,R12
 AUSING (RQBL,@FCEPUB+16)
 002352 41D0 C130            00130 15990             +
 002356 5830 C048            00000 15991    1294.              L     RB,@FCEPFSB
 USING  FSB,R3                     15992    1295.              WITH  (FSB,RB)
 USING  NTRYGR,R4                  16005    1296.              WITH  (NTRYGR,RJ)         Entry pointer returned by VCAT
 USING  @GRES-72,R13               16018    1297.              GRGET RID=FSBCGRI,EXCL=YES Get catalog hold
 00235A D708 D048 D048 00000 00000 16036             +
 002360 D203 D04C 3028 00004 00028 16041             +
 002366 9680 D050      00008       16047             +
 00236A 9640 D050      00008       16053             +
 00236E 58F0 AC6E/0DEF       02FB0 16056             +
0002374                            16059    1299.              CLEAR RQBL                Set up old block for VCAT
 002374 D7D3 C058 C058 00000 00000 16065             +
 00237A D203 C058 AC72 00000 02FB4 16066    1300.              MVC   RQBLRQBL,=CL4'RQBL'
 002380 D205 C0B4 C04C 0005C 00004 16067    1301.              MVC   RQBLNAME(L'@FCEPACC),@FCEPACC
 002386 1BEE                       16068    1302.              CLEAR R14                 No permits
 002388 1BFF                       16072    1303.              CLEAR R15                 No length modify
 00238A 4100 0000            00000 16076    1304.              LA    R0,ACCMODE          Account record
 00238E 50D0 C078            00020 16077    1305.              CATCALL LOOK              Get the record
 002392 D603 C07C C07C 00024 00024 16089             +
 002398 4770 A05E            023A0 16090             +
 00239C 41D0 C0F0            00098 16096             +
 00239A A062           0239C 023A0 16104             +
 0023A0 47F0 A066            023A8 16106             +
 0023A4 58D0 C07C            00024 16113             +
 0023A8 4120 0000            00000 16118             +
 0023AC 4150 C058            00000 16119             +
 0023B0 5890 AC76/18BA       02FB8 16120             +
 0023B6 18A3/0D99/183A             16122             +
 0023BC 18AB/50D0 C07C       00024 16125             +
 0023C2 58D0 C078/120F       00020 16127             +
 0023C8 4780 A08E            023D0 16129    1306.              IF    NZ,'LA RS,4'        Set to not found
 0023CC 4110 0004            00004 16141             +
 0023D0 A092           023D0 023CA 16146    1307.              ELSE  BEGIN
 0023D0 47F0 A0DC            0241E 16151             +
 0023D4 D200 4019 C052 00019 0000A 16157  1 1308.                MVC   NTGFLG,@FCEPPUB     Set permits
 0023DA 9407 4019      00019       16158  1 1309.                NI    NTGFLG,FPFWRITE     Clear extraneous
 0023DE 41F0 0004            00004 16159  1 1310.                LA    R15,4               Set to update, no length change
 0023E2 50D0 C078            00020 16160  1 1311.                CATCALL CONT              Continue update of account entry
1FILECAT  (FILECA) (09:39) (22MAR04) ORVYL'S File Catalog Manager                                                           Page  103
0Current Usings:  (FSB,R3) (NTRYGR,R4) (FCATEPUB,R10) (@FCEPUB-72,R12) (@GRES-72,R13)
0Loc    Object Code    Addr1 Addr2  Stmt Lv Lineno    Source Statement           (Hibal 5, Asmedit 3.3)  HLASM R4.0  2004/03/22 09.39
+___    ______ ____    _____ _____  ____ __ ______    ______ _________
00023E6 D603 C07C C07C 00024 00024 16172  1          +
 0023EC 4770 A0B2            023F4 16173  1          +
 0023F0 41D0 C0F0            00098 16179  1          +
 0023EE A0B6           023F0 023F4 16187  1          +
 0023F4 47F0 A0BA            023FC 16189  1          +
 0023F8 58D0 C07C            00024 16196  1          +
 0023FC 4120 000C            0000C 16201  1          +
 002400 4150 C058            00000 16202  1          +
 002404 5890 AC76/18BA       02FB8 16203  1          +
 00240A 18A3/0D99/183A             16205  1          +
 002410 18AB/50D0 C07C       00024 16208  1          +
 002416 58D0 C078/120F       00020 16210  1          +
 00241C 1B11                       16212  1 1312.                CLEAR RS                  Set return code
 00241E                            16216    1313.              END   ,
000241E                            16221    1315.              GRREL RID=FSBCGRI         Release catalog hold
 00241E D708 D048 D048 00000 00000 16232             +
 002424 D203 D04C 3028 00004 00028 16237             +
 00242A 58F0 AC7A/0DEF       02FBC 16240             +
 002430 1801                       16242    1316.              LR    RVR,RS              Set return code
0002432 981F C008            00008 16244    1318.              PEND  ,
 DROP   NTRYGR,R4
 DROP   FSB,R3
 DROP   @FCEPUB-72,R12
 DROP   FCATEPUB,R10
 002436 9680 C000/0B0E 00000       16269             +
 DROP   @GRES-72,R13
1FILECAT  (FILECA) (09:39) (22MAR04) ORVYL'S File Catalog Manager                                                           Page  104
0Loc    Object Code    Addr1 Addr2  Stmt Lv Lineno    Source Statement           (Hibal 5, Asmedit 3.3)  HLASM R4.0  2004/03/22 09.39
+___    ______ ____    _____ _____  ____ __ ______    ______ _________
0                                  16279    1320.     *---------------------------------------------------------------------*
                                   16280    1321.     *  FCATXTND -  Extend global file access privileges
                                   16281    1322.     *
                                   16282    1323.     *   Inputs - @FCXTND
                                   16283    1324.     *
                                   16284    1325.     *   Output -
                                   16285    1326.     *
                                   16286    1327.     *---------------------------------------------------------------------*
 000000                00000 000D5 16287    1328.     #FCXTND  RECORD BEGIN
 000000                            16295  1 1329.     #FCXRQBL   DS    CL(L'RQBL)
 0000D4 00                         16296  1 1330.     #FCXFLG    FLAG  ,                   Work flag
 0000D5                000D5 000D5 16300    1331.              END   ,
000243C                            16310    1333.     FCATXTND PROC  @FCXTND,#FCXTND,SCOPE=GLOBAL
 00243C C6C3C1E3E7E3D5C4           16316             +
 002444 0018/00D8                  16317             +
 002448 900F D004/18AF       00004 16319             +
 USING  FCATXTND,R10
 00244E 50D0 C000/18CD       00000 16334             +
 002454 9680 C000      00000       16336             +
 USING  @FCXTND-72,R12
 AUSING (#FCXTND,@FCXTND+24)
 002458 41D0 C138            00138 16355             +
 AUSING (RQBL,#FCXRQBL)            16356    1334.              WITH  (RQBL,#FCXRQBL)
 00245C 5830 C048            00000 16363    1335.              L     RB,@FCXFSB
 USING  FSB,R3                     16364    1336.              WITH  (FSB,RB)
 USING  NTRYGR,R4                  16377    1337.              WITH  (NTRYGR,RJ)         Entry pointer returned by VCAT
 002460 940F C05E      00016       16390    1338.              NI    @FCXPRI,X'0F'       Clear high order nibble in case
0USING  @GRES-72,R13               16392    1340.              GRGET RID=FSBCGRI,EXCL=YES Get catalog hold
 002464 D708 D048 D048 00000 00000 16410             +
 00246A D203 D04C 3028 00004 00028 16415             +
 002470 9680 D050      00008       16421             +
 002474 9640 D050      00008       16427             +
 002478 58F0 AB68/0DEF       02FB0 16430             +
000247E                            16433    1342.              CLEAR RQBL                Set up old block for VCAT
 00247E D7D3 C060 C060 00000 00000 16439             +
 002484 D203 C060 AB6C 00000 02FB4 16440    1343.              MVC   RQBLRQBL,=CL4'RQBL'
 00248A D205 C0BC C052 0005C 0000A 16441    1344.              MVC   RQBLNAME(L'@FCXUSO),@FCXUSO Set file owner
 002490 41E0 0001            00001 16442    1345.              LA    R14,1               Permits
 002494 41F0 0001            00001 16443    1346.              LA    R15,1               Modify length
 002498 4100 0000            00000 16444    1347.              LA    R0,ACCMODE          Account record
 00249C 50D0 C080            00020 16445    1348.              CATCALL LOOK              Get the record
 0024A0 D603 C084 C084 00024 00024 16457             +
 0024A6 4770 A066            024AE 16458             +
 0024AA 41D0 C0F8            00098 16464             +
 0024A8 A06A           024AA 024AE 16472             +
 0024AE 47F0 A06E            024B6 16474             +
 0024B2 58D0 C084            00024 16481             +
 0024B6 4120 0000            00000 16486             +
 0024BA 4150 C060            00000 16487             +
 0024BE 5890 AB70/18BA       02FB8 16488             +
 0024C4 18A3/0D99/183A             16490             +
 0024CA 18AB/50D0 C084       00024 16493             +
 0024D0 58D0 C080/120F       00020 16495             +
1FILECAT  (FILECA) (09:39) (22MAR04) ORVYL'S File Catalog Manager                                                           Page  105
0Current Usings:  (FSB,R3) (NTRYGR,R4) (FCATXTND,R10) (@FCXTND-72,R12) (@GRES-72,R13)
0Loc    Object Code    Addr1 Addr2  Stmt Lv Lineno    Source Statement           (Hibal 5, Asmedit 3.3)  HLASM R4.0  2004/03/22 09.39
+___    ______ ____    _____ _____  ____ __ ______    ______ _________
00024D6 4780 A0AA            024F2 16497    1349.              IF    NZ,BEGIN
 0024DA 5900 AB78            02FC0 16508  1 1350.                IF    (RVR,EQ,DIRNFER),'LA RS,12' Entry not found
 0024DE 4770 A09E            024E6 16520  1          +
 0024E2 4110 000C            0000C 16526  1          +
 0024E6 A0A2           024E6 024E0 16531  1 1351.                ELSE  'LA RS,16'                  Not enough room
 0024E6 47F0 A0A6            024EE 16536  1          +
 0024EA 4110 0010            00010 16543  1          +
 0024EE 47F0 A254            0269C 16548  1 1352.                B     FCATXTNX
 0024F2                            16549    1353.              END   ,
00024F2 9180 C05F      00017       16554    1355.              IF    (~@FCXFM,AND,(@FCXUSE,NE,@FCXUSO)),BEGIN
 0024F6 4710 A0F8            02540 16566             +
 0024FA D505 C058 C052 00010 0000A 16579             +
 002500 4780 A0F8            02540 16580             +
 DROP   @GRES-72,R13               16585  1 1356.                LOCAP @FCXUSE             Find permits for account
 USING  @LOCPERM-72,R13
 002504 D70A D048 D048 00000 00000 16606  1          +
 00250A 4100 4000            00000 16618  1          +
 00250E 5000 D048            00000 16623  1          +
 002512 D205 D04C C058 00004 00010 16628  1          +
 002518 9640 D052      0000A       16634  1          +
 00251C 58F0 AB7C/0DEF       02FC4 16640  1          +
 002522 4200 C134            000D4 16642  1 1357.                STC   RVR,#FCXFLG         Set work flag
 002526 4110 0004            00004 16643  1 1358.                LA    RS,4                Init can't extend priv
 00252A 9108 C134      000D4       16644  1 1359.                IF    ~#FCXFLG.NTPFAC,FCATXTNX
 00252E 47E0 A254            0269C 16656  1          +
 002532 1FEE/43E0 C05E       00016 16662  1 1360.                LC    R14,@FCXPRI         Get privileges to extend
 002538 44E0 ABF6            0303E 16669  1 1361.                EX    R14,'TM #FCXFLG,0'  Does extender have them to extend?
 00303E 9100 C134      000D4       16677  1          +
 00253C 47E0 A254            0269C 16685  1 1362.                IF    NO,FCATXTNX         No
 002540                            16699    1363.              END   ,                   Extender not the owner
0DROP   @LOCPERM-72,R13            16704    1365.              PSET  @LOCMEME
 USING  @LOCMEME-72,R13
 002540 D70E D048 D048 00000 00000 16724             +
 002546 4100 4000            00000 16725    1366.              PMOV  @LOCMEMN,LA:NTRY
 00254A 5000 D048            00000 16741             +
 00254E                            16742    1367.              PMOV  @LOCMEMA,@FCXUSR
 00254E D205 D050 C04C 00008 00004 16746             +
 002554                            16747    1368.              IF    (@FCXUSR+3,EQ,=C'PUB'),'MVI @LOCMEMA+3,C"p"' Little p
 002554 D502 ABB6 C04F 02FFE 00007 16757             +
 00255A 4770 A11A            02562 16758             +
 00255E 9297 D053      0000B       16764             +
 002562 9640 D056      0000E       16769    1369.              SET   @LOCMFA             Account entry
 002566 58F0 AB80/0DEF       02FC8 16775    1370.              ACALL LOCMEME             Locate member entry
 USING  NTRYPR,R8                  16782    1371.              WITH  (NTRYPR,RM)
 USING  N.NTRYPR,R9                16795    1372.              WITH  (NTRYPR,RN),LABEL=N Next member entry
 00256C 5880 D04C            00004 16803    1373.              L     RM,@LOCMEMP         Get permits pointer
 002570 1200/4780 A1A2       025EA 16804    1374.              IF    (RVR,NZ),BEGIN      Member entry does not exist
 002576 1B11                       16818  1 1375.                CLEAR RS                  Init to done
 002578 9107 C05E      00016       16822  1 1376.                IF    (@FCXPRI.FRW,Z),FCATXTNX No privileges to nobody
 00257C 4780 A254            0269C 16837  1          +
 002580 1FFF/BFF3 4000       00000 16843  1 1377.                L2    R15,NTRYLEN         Get length of entry
 002586 419F 4000            00000 16849  1 1378.                LA    RN,NTRY(R15)        Point to end
1FILECAT  (FILECA) (09:39) (22MAR04) ORVYL'S File Catalog Manager                                                           Page  106
0Current Usings:  (FSB,R3) (NTRYGR,R4) (NTRYPR,R8) (N.NTRYPR,R9) (FCATXTND,R10) (@FCXTND-72,R12) (@LOCMEME-72,R13)
0Loc    Object Code    Addr1 Addr2  Stmt Lv Lineno    Source Statement           (Hibal 5, Asmedit 3.3)  HLASM R4.0  2004/03/22 09.39
+___    ______ ____    _____ _____  ____ __ ______    ______ _________
000258A 4100 F007            00007 16850  1 1379.                LA    RVR,@R15+L'NTRYPR   Calc new length
 00258E 4110 0010            00010 16851  1 1380.                LA    RS,16               Init to no more room
 002592 5900 AB84            02FCC 16852  1 1381.                IF    (RVR,GT,CFSBMXNT),FCATXTNX
 002596 4720 A254            0269C 16866  1          +
 00259A 18F8                       16872  1 1382.                LR    R15,RM              Save insert point
 00259C 1889                       16873  1 1383.                LR    RM,RN               Point to new entry
 00259E                            16874  1 1384.                CLEAR NTRYPR              Clear new entry
 00259E D706 8000 8000 00000 00000 16880  1          +
 0025A4 4B90 ABA8            02FF0 16881  1 1385.                SH    RN,=Y(L'NTRYPR)     Point back one slot
 0025A8 198F/47D0 A184       025CC 16882  1 1386.                WHILE (RM,GT,R15),BEGIN   Shuffle new one into place
 0025AE D706 8000 9000 00000 00000 16899  2 1387.                  XC    NTRYPR,N.NTRYPR     Swap
 0025B4 D706 9000 8000 00000 00000 16900  2 1388.                  XC    N.NTRYPR,NTRYPR     Swap
 0025BA D706 8000 9000 00000 00000 16901  2 1389.                  XC    NTRYPR,N.NTRYPR     Swap
 0025C0 4B80 ABA8            02FF0 16902  2 1390.                  SH    RM,=Y(L'NTRYPR)     Point back one slot
 0025C4 4B90 ABA8            02FF0 16903  2 1391.                  SH    RN,=Y(L'NTRYPR)     Point back one slot
 0025C8 47F0 A160            025A8 16904  1 1392.                END   ,                   Shuffle new one into place
 0025CC D205 8000 C04C 00000 00004 16909  1 1393.                MVC   NTPNAME,@FCXUSR     Set member name
 0025D2                            16910  1 1394.                IF    (@FCXUSR+3,EQ,=C'PUB'),'MVI NTPNAME+3,C"p"' Little p
 0025D2 D502 ABB6 C04F 02FFE 00007 16920  1          +
 0025D8 4770 A198            025E0 16921  1          +
 0025DC 9297 8003      00003       16927  1          +
 0025E0 D200 8006 C05E 00006 00016 16932  1 1395.                MVC   NTPFLG,@FCXPRI      Set new privileges
 0025E6 48F0 ABAA            02FF2 16933  1 1396.                LH    R15,=H'-4'          Set length change
 0025EA                            16934    1397.              END   ,                   Member entry does not exist
 0025EA A1A6           025EA 02574 16938    1398.              ELSE  BEGIN               Member entry does exist
 0025EA 47F0 A20A            02652 16943             +
 0025EE 1B11                       16949  1 1399.                CLEAR RS                  Init to done
 0025F0                            16953  1 1400.                IF    (NTPFLG,EQ,@FCXPRI),FCATXTNX Already the same
 0025F0 D500 8006 C05E 00006 00016 16964  1          +
 0025F6 4780 A254            0269C 16967  1          +
 0025FA 9107 C05E      00016       16973  1 1401.                IF    (@FCXPRI.FRW,Z),BEGIN Removing all privileges
 0025FE 4770 A1FC            02644 16986  1          +
 002602 1FFF/BFF3 4000       00000 16991  2 1402.                  L2    R15,NTRYLEN         Get total length
 002608 41EF 4000            00000 16997  2 1403.                  LA    R14,NTRY(R15)       Point to the end
 00260C 4BF0 ABA8            02FF0 16998  2 1404.                  SH    R15,=Y(L'NTRYPR)    Calc new length
 002610 180F                       16999  2 1405.                  LR    RVR,R15             Set for catalog call
 002612 4190 8007            00007 17000  2 1406.                  LA    RN,NTRYPR+L'NTRYPR  Point to next member entry
 002616                            17001  2 1407.                  CLEAR NTRYPR              Clear the deleted member entry
 002616 D706 8000 8000 00000 00000 17007  2          +
 00261C 199E/47B0 A1F8       02640 17008  2 1408.                  WHILE (RN,LT,R14),BEGIN   Shuffle the following up a bit
 002622 D706 8000 9000 00000 00000 17025  3 1409.                    XC    NTRYPR,N.NTRYPR     Swap
 002628 D706 9000 8000 00000 00000 17026  3 1410.                    XC    N.NTRYPR,NTRYPR     Swap
 00262E D706 8000 9000 00000 00000 17027  3 1411.                    XC    NTRYPR,N.NTRYPR     Swap
 002634 4180 8007            00007 17028  3 1412.                    LA    RM,NTRYPR+L'NTRYPR
 002638 4190 9007            00007 17029  3 1413.                    LA    RN,N.NTRYPR+L'NTRYPR
 00263C 47F0 A1D4            0261C 17030  2 1414.                  END   ,                   Shuffle the following up a bit
 002640 48F0 ABAA            02FF2 17035  2 1415.                  LH    R15,=H'-4'          Set length change
 002644                            17036  1 1416.                END   ,                   Removing all privileges
 002644 A200           02644 02600 17040  1 1417.                ELSE  BEGIN               Set new privileges
 002644 47F0 A20A            02652 17045  1          +
 002648 D200 8006 C05E 00006 00016 17051  2 1418.                  MVC   NTPFLG,@FCXPRI      Set new privileges
 00264E 41F0 0004            00004 17052  2 1419.                  LA    R15,4               Entry changed but no length change
 002652                            17053  1 1420.                END   ,                   Set new privileges
 002652                            17057    1421.              END   ,                   Member entry does exist
1FILECAT  (FILECA) (09:39) (22MAR04) ORVYL'S File Catalog Manager                                                           Page  107
0Current Usings:  (FSB,R3) (NTRYGR,R4) (NTRYPR,R8) (N.NTRYPR,R9) (FCATXTND,R10) (@FCXTND-72,R12) (@LOCMEME-72,R13)
0Loc    Object Code    Addr1 Addr2  Stmt Lv Lineno    Source Statement           (Hibal 5, Asmedit 3.3)  HLASM R4.0  2004/03/22 09.39
+___    ______ ____    _____ _____  ____ __ ______    ______ _________
0002652 50D0 C080            00020 17062    1423.              CATCALL CONT              Continue update of account entry
 002656 D603 C084 C084 00024 00024 17074             +
 00265C 4770 A21C            02664 17075             +
 002660 41D0 C0F8            00098 17081             +
 00265E A220           02660 02664 17089             +
 002664 47F0 A224            0266C 17091             +
 002668 58D0 C084            00024 17098             +
 00266C 4120 000C            0000C 17103             +
 002670 4150 C060            00000 17104             +
 002674 5890 AB70/18BA       02FB8 17105             +
 00267A 18A3/0D99/183A             17107             +
 002680 18AB/50D0 C084       00024 17110             +
 002686 58D0 C080/120F       00020 17112             +
 00268C 1200/4780 A24E       02696 17114    1424.              IF    (RVR,NZ),'LA RS,16' No more room
 002692 4110 0010            00010 17129             +
 002696 A252           02696 02690 17134    1425.              ELSE  'CLEAR RS'          Done
 002696 47F0 A254/1B11       0269C 17139             +
000269C                            17155    1427.     FCATXTNX LABEL ,
 DROP   @LOCMEME-72,R13            17157    1428.              GRREL RID=FSBCGRI         Release catalog hold
 USING  @GRES-72,R13
 00269C D708 D048 D048 00000 00000 17178             +
 0026A2 D203 D04C 3028 00004 00028 17183             +
 0026A8 58F0 AB74/0DEF       02FBC 17186             +
 0026AE 1801                       17188    1429.              LR    RVR,RS              Set return code
00026B0 981F C008            00008 17190    1431.              PEND  ,
 DROP   N.NTRYPR,R9
 DROP   NTRYPR,R8
 DROP   NTRYGR,R4
 DROP   FSB,R3
 DROP   @FCXTND-72,R12
 DROP   FCATXTND,R10
 0026B4 9680 C000/0B0E 00000       17228             +
 DROP   @GRES-72,R13
1FILECAT  (FILECA) (09:39) (22MAR04) ORVYL'S File Catalog Manager                                                           Page  108
0Loc    Object Code    Addr1 Addr2  Stmt Lv Lineno    Source Statement           (Hibal 5, Asmedit 3.3)  HLASM R4.0  2004/03/22 09.39
+___    ______ ____    _____ _____  ____ __ ______    ______ _________
0                                  17238    1433.     *---------------------------------------------------------------------*
                                   17239    1434.     *  FCATASAC -  Assign account level file access privileges
                                   17240    1435.     *
                                   17241    1436.     *   Inputs - @FCASACC
                                   17242    1437.     *
                                   17243    1438.     *   Output -
                                   17244    1439.     *
                                   17245    1440.     *---------------------------------------------------------------------*
 000000                00000 000D5 17246    1441.     #FCASACC RECORD BEGIN
 000000                            17254  1 1442.     #FCASRQB   DS    CL(L'RQBL)
 0000D4 00                         17255  1 1443.     #FCASFLG   FLAG  ,                   Work flag
 0000D5                000D5 000D5 17259    1444.              END   ,
00026BA                            17269    1446.     FCATASAC PROC  @FCASACC,#FCASACC,SCOPE=GLOBAL
 0026BA C6C3C1E3C1E2C1C3           17275             +
 0026C2 0040/00D8                  17276             +
 0026C6 900F D004/18AF       00004 17278             +
 USING  FCATASAC,R10
 0026CC 50D0 C000/18CD       00000 17293             +
 0026D2 9680 C000      00000       17295             +
 USING  @FCASACC-72,R12
 AUSING (#FCASACC,@FCASACC+64)
 0026D6 41D0 C160            00160 17314             +
 AUSING (RQBL,#FCASRQB)            17315    1447.              WITH  (RQBL,#FCASRQB)
 0026DA 5830 C048            00000 17322    1448.              L     RB,@FCASFSB
 USING  FSB,R3                     17323    1449.              WITH  (FSB,RB)
 USING  NTRYGR,R4                  17336    1450.              WITH  (NTRYGR,RJ)         Entry pointer returned by VCAT
 0026DE 940F C080      00038       17349    1451.              NI    @FCASPRI,FPALL      Clear unnecessary
0USING  @GRES-72,R13               17351    1453.              GRGET RID=FSBCGRI,EXCL=YES Get catalog hold
 0026E2 D708 D048 D048 00000 00000 17369             +
 0026E8 D203 D04C 3028 00004 00028 17374             +
 0026EE 9680 D050      00008       17380             +
 0026F2 9640 D050      00008       17386             +
 0026F6 58F0 A8EA/0DEF       02FB0 17389             +
00026FC                            17392    1455.              CLEAR RQBL                Set up old block for VCAT
 0026FC D7D3 C088 C088 00000 00000 17398             +
 002702 D203 C088 A8EE 00000 02FB4 17399    1456.              MVC   RQBLRQBL,=CL4'RQBL'
 002708 D203 C10C A90A 00084 02FD0 17400    1457.              MVC   RQBLNAME+L'RQBLNAME-4(4),=CL4' '
 00270E D227 C0E4 C058 0005C 00010 17401    1458.              MVC   RQBLNAME(L'RQBLNAME-4),@FCASNAM
0002714 41E0 0001            00001 17403    1460.              LA    R14,1               Permits
 002718 1BFF                       17404    1461.              CLEAR R15                 No length modify
 00271A 4100 0000            00000 17408    1462.              LA    R0,ACCMODE          Account record
 00271E 50D0 C0A8            00020 17409    1463.              CATCALL LOOK              Get the record
 002722 D603 C0AC C0AC 00024 00024 17421             +
 002728 4770 A06A            02730 17422             +
 00272C 41D0 C120            00098 17428             +
 00272A A06E           0272C 02730 17436             +
 002730 47F0 A072            02738 17438             +
 002734 58D0 C0AC            00024 17445             +
 002738 4120 0000            00000 17450             +
 00273C 4150 C088            00000 17451             +
 002740 5890 A8F2/18BA       02FB8 17452             +
 002746 18A3/0D99/183A             17454             +
1FILECAT  (FILECA) (09:39) (22MAR04) ORVYL'S File Catalog Manager                                                           Page  109
0Current Usings:  (FSB,R3) (NTRYGR,R4) (FCATASAC,R10) (@FCASACC-72,R12) (@GRES-72,R13)
0Loc    Object Code    Addr1 Addr2  Stmt Lv Lineno    Source Statement           (Hibal 5, Asmedit 3.3)  HLASM R4.0  2004/03/22 09.39
+___    ______ ____    _____ _____  ____ __ ______    ______ _________
000274C 18AB/50D0 C0AC       00024 17457             +
 002752 58D0 C0A8/120F       00020 17459             +
 002758 4780 A09E            02764 17461    1464.              IF    NZ,BEGIN
 00275C 4110 0010            00010 17472  1 1465.                LA    RS,16               Not enough room
 002760 47F0 A2D4            0299A 17473  1 1466.                B     FCATASAX
 002764                            17474    1467.              END   ,
0002764 9180 C081      00039       17479    1469.              IF    (~@FCASFM,AND,(@FCASUSO,NE,@FCASUSE)),BEGIN
 002768 4710 A0D2            02798 17491             +
 00276C D505 C058 C052 00010 0000A 17504             +
 002772 4780 A0D2            02798 17505             +
 DROP   @GRES-72,R13               17510  1 1470.                LOCAP @FCASUSE            Find permits for account
 USING  @LOCPERM-72,R13
 002776 D70A D048 D048 00000 00000 17531  1          +
 00277C 4100 4000            00000 17543  1          +
 002780 5000 D048            00000 17548  1          +
 002784 D205 D04C C052 00004 0000A 17553  1          +
 00278A 9640 D052      0000A       17559  1          +
 00278E 58F0 A8FE/0DEF       02FC4 17565  1          +
 002794 4200 C15C            000D4 17567  1 1471.                STC   RVR,#FCASFLG        Set work flag
 002798                            17568    1472.              END   ,                   Extender not the owner
0002798 41E0 0001            00001 17573    1474.              LA    R14,1               Permits
 00279C 41F0 0001            00001 17574    1475.              LA    R15,1               Modify length
 0027A0 4100 0004            00004 17575    1476.              LA    R0,FILEMODE         File record
 0027A4 50D0 C0A8            00020 17576    1477.              CATCALL LOOK              Get the record
 0027A8 D603 C0AC C0AC 00024 00024 17588             +
 0027AE 4770 A0F0            027B6 17589             +
 0027B2 41D0 C120            00098 17595             +
 0027B0 A0F4           027B2 027B6 17603             +
 0027B6 47F0 A0F8            027BE 17605             +
 0027BA 58D0 C0AC            00024 17612             +
 0027BE 4120 0000            00000 17617             +
 0027C2 4150 C088            00000 17618             +
 0027C6 5890 A8F2/18BA       02FB8 17619             +
 0027CC 18A3/0D99/183A             17621             +
 0027D2 18AB/50D0 C0AC       00024 17624             +
 0027D8 58D0 C0A8/120F       00020 17626             +
 0027DE 4780 A124            027EA 17628    1478.              IF    NZ,BEGIN
 0027E2 4110 0010            00010 17639  1 1479.                LA    RS,16               Not enough room
 0027E6 47F0 A2D4            0299A 17640  1 1480.                B     FCATASAX
 0027EA                            17641    1481.              END   ,
00027EA 9180 C081      00039       17646    1483.              IF    (~@FCASFM,AND,(@FCASUSO,NE,@FCASUSE)),BEGIN
 0027EE 4710 A178            0283E 17658             +
 0027F2 D505 C058 C052 00010 0000A 17671             +
 0027F8 4780 A178            0283E 17672             +
 0027FC                            17677  1 1484.                LOCFP @FCASUSE            Find permits for account
 0027FC D70A D048 D048 00000 00000 17688  1          +
 002802 4100 4000            00000 17700  1          +
 002806 5000 D048            00000 17705  1          +
 00280A D205 D04C C052 00004 0000A 17710  1          +
 002810 9680 D052      0000A       17716  1          +
 002814 58F0 A8FE/0DEF       02FC4 17722  1          +
1FILECAT  (FILECA) (09:39) (22MAR04) ORVYL'S File Catalog Manager                                                           Page  110
0Current Usings:  (FSB,R3) (NTRYGR,R4) (FCATASAC,R10) (@FCASACC-72,R12) (@LOCPERM-72,R13)
0Loc    Object Code    Addr1 Addr2  Stmt Lv Lineno    Source Statement           (Hibal 5, Asmedit 3.3)  HLASM R4.0  2004/03/22 09.39
+___    ______ ____    _____ _____  ____ __ ______    ______ _________
000281A 43E0 C15C            000D4 17724  1 1485.                IC    R14,#FCASFLG        Get global permits
 00281E 160E                       17725  1 1486.                OR    RVR,R14             Add to file permits
 002820 4200 C15C            000D4 17726  1 1487.                STC   RVR,#FCASFLG        Set work flag
 002824 4110 0008            00008 17727  1 1488.                LA    RS,8                Init can't extend priv
 002828 9108 C15C      000D4       17728  1 1489.                IF    ~#FCASFLG.NTPFAC,FCATASAX
 00282C 47E0 A2D4            0299A 17740  1          +
 002830 1FEE/43E0 C080       00038 17746  1 1490.                LC    R14,@FCASPRI        Get privileges to extend
 002836 44E0 A97C            03042 17753  1 1491.                EX    R14,'TM #FCASFLG,0' Does extender have them to extend?
 003042 9100 C15C      000D4       17761  1          +
 00283A 47E0 A2D4            0299A 17769  1 1492.                IF    NO,FCATASAX         No
 00283E                            17783    1493.              END   ,                   Extender not the owner
0DROP   @LOCPERM-72,R13            17788    1495.              PSET  @LOCMEME
 USING  @LOCMEME-72,R13
 00283E D70E D048 D048 00000 00000 17808             +
 002844 4100 4000            00000 17809    1496.              PMOV  @LOCMEMN,LA:NTRY
 002848 5000 D048            00000 17825             +
 00284C                            17826    1497.              PMOV  @LOCMEMA,@FCASUSR
 00284C D205 D050 C04C 00008 00004 17830             +
 002852                            17831    1498.              IF    (@FCASUSR+3,EQ,=C'PUB'),'MVI @LOCMEMA+3,C"p"' Little p
 002852 D502 A938 C04F 02FFE 00007 17841             +
 002858 4770 A19A            02860 17842             +
 00285C 9297 D053      0000B       17848             +
 002860 9680 D056      0000E       17853    1499.              SET   @LOCMFF             File entry
 002864 58F0 A902/0DEF       02FC8 17859    1500.              ACALL LOCMEME             Locate member entry
 USING  NTRYPR,R8                  17866    1501.              WITH  (NTRYPR,RM)
 USING  N.NTRYPR,R9                17879    1502.              WITH  (NTRYPR,RN),LABEL=N Next member entry
 00286A 5880 D04C            00004 17887    1503.              L     RM,@LOCMEMP         Get permits pointer
 00286E 1200/4780 A222       028E8 17888    1504.              IF    (RVR,NZ),BEGIN      Member entry does not exist
 002874 1B11                       17902  1 1505.                CLEAR RS                  Init to done
 002876 9107 C080      00038       17906  1 1506.                IF    (@FCASPRI.FRW,Z),FCATASAX No privileges to nobody
 00287A 4780 A2D4            0299A 17921  1          +
 00287E 1FFF/BFF3 4000       00000 17927  1 1507.                L2    R15,NTRYLEN         Get length of entry
 002884 419F 4000            00000 17933  1 1508.                LA    RN,NTRY(R15)        Point to end
 002888 4100 F007            00007 17934  1 1509.                LA    RVR,@R15+L'NTRYPR   Calc new length
 00288C 4110 0010            00010 17935  1 1510.                LA    RS,16               Init to no more room
 002890 5900 A906            02FCC 17936  1 1511.                IF    (RVR,GT,CFSBMXNT),FCATASAX
 002894 4720 A2D4            0299A 17950  1          +
 002898 18F8                       17956  1 1512.                LR    R15,RM              Save insert point
 00289A 1889                       17957  1 1513.                LR    RM,RN               Point to new entry
 00289C                            17958  1 1514.                CLEAR NTRYPR              Clear new entry
 00289C D706 8000 8000 00000 00000 17964  1          +
 0028A2 4B90 A92A            02FF0 17965  1 1515.                SH    RN,=Y(L'NTRYPR)     Point back one slot
 0028A6 198F/47D0 A204       028CA 17966  1 1516.                WHILE (RM,GT,R15),BEGIN   Shuffle new one into place
 0028AC D706 8000 9000 00000 00000 17983  2 1517.                  XC    NTRYPR,N.NTRYPR     Swap
 0028B2 D706 9000 8000 00000 00000 17984  2 1518.                  XC    N.NTRYPR,NTRYPR     Swap
 0028B8 D706 8000 9000 00000 00000 17985  2 1519.                  XC    NTRYPR,N.NTRYPR     Swap
 0028BE 4B80 A92A            02FF0 17986  2 1520.                  SH    RM,=Y(L'NTRYPR)     Point back one slot
 0028C2 4B90 A92A            02FF0 17987  2 1521.                  SH    RN,=Y(L'NTRYPR)     Point back one slot
 0028C6 47F0 A1E0            028A6 17988  1 1522.                END   ,                   Shuffle new one into place
 0028CA D205 8000 C04C 00000 00004 17993  1 1523.                MVC   NTPNAME,@FCASUSR     Set member name
 0028D0                            17994  1 1524.                IF    (@FCASUSR+3,EQ,=C'PUB'),'MVI NTPNAME+3,C"p"' Little p
 0028D0 D502 A938 C04F 02FFE 00007 18004  1          +
 0028D6 4770 A218            028DE 18005  1          +
1FILECAT  (FILECA) (09:39) (22MAR04) ORVYL'S File Catalog Manager                                                           Page  111
0Current Usings:  (FSB,R3) (NTRYGR,R4) (NTRYPR,R8) (N.NTRYPR,R9) (FCATASAC,R10) (@FCASACC-72,R12) (@LOCMEME-72,R13)
0Loc    Object Code    Addr1 Addr2  Stmt Lv Lineno    Source Statement           (Hibal 5, Asmedit 3.3)  HLASM R4.0  2004/03/22 09.39
+___    ______ ____    _____ _____  ____ __ ______    ______ _________
00028DA 9297 8003      00003       18011  1          +
 0028DE D200 8006 C080 00006 00038 18016  1 1525.                MVC   NTPFLG,@FCASPRI      Set new privileges
 0028E4 48F0 A92C            02FF2 18017  1 1526.                LH    R15,=H'-4'          Set length change
 0028E8                            18018    1527.              END   ,                   Member entry does not exist
 0028E8 A226           028E8 02872 18022    1528.              ELSE  BEGIN               Member entry does exist
 0028E8 47F0 A28A            02950 18027             +
 0028EC 1B11                       18033  1 1529.                CLEAR RS                  Init to done
 0028EE                            18037  1 1530.                IF    (NTPFLG,EQ,@FCASPRI),FCATASAX Already the same
 0028EE D500 8006 C080 00006 00038 18048  1          +
 0028F4 4780 A2D4            0299A 18051  1          +
 0028F8 9107 C080      00038       18057  1 1531.                IF    (@FCASPRI.FRW,Z),BEGIN Removing all privileges
 0028FC 4770 A27C            02942 18070  1          +
 002900 1FFF/BFF3 4000       00000 18075  2 1532.                  L2    R15,NTRYLEN         Get total length
 002906 41EF 4000            00000 18081  2 1533.                  LA    R14,NTRY(R15)       Point to the end
 00290A 4BF0 A92A            02FF0 18082  2 1534.                  SH    R15,=Y(L'NTRYPR)    Calc new length
 00290E 180F                       18083  2 1535.                  LR    RVR,R15             Set for catalog call
 002910 4190 8007            00007 18084  2 1536.                  LA    RN,NTRYPR+L'NTRYPR  Point to next member entry
 002914                            18085  2 1537.                  CLEAR NTRYPR              Clear the deleted member entry
 002914 D706 8000 8000 00000 00000 18091  2          +
 00291A 199E/47B0 A278       0293E 18092  2 1538.                  WHILE (RN,LT,R14),BEGIN   Shuffle the following up a bit
 002920 D706 8000 9000 00000 00000 18109  3 1539.                    XC    NTRYPR,N.NTRYPR     Swap
 002926 D706 9000 8000 00000 00000 18110  3 1540.                    XC    N.NTRYPR,NTRYPR     Swap
 00292C D706 8000 9000 00000 00000 18111  3 1541.                    XC    NTRYPR,N.NTRYPR     Swap
 002932 4180 8007            00007 18112  3 1542.                    LA    RM,NTRYPR+L'NTRYPR
 002936 4190 9007            00007 18113  3 1543.                    LA    RN,N.NTRYPR+L'NTRYPR
 00293A 47F0 A254            0291A 18114  2 1544.                  END   ,                   Shuffle the following up a bit
 00293E 48F0 A92C            02FF2 18119  2 1545.                  LH    R15,=H'-4'          Set length change
 002942                            18120  1 1546.                END   ,                   Removing all privileges
 002942 A280           02942 028FE 18124  1 1547.                ELSE  BEGIN               Set new privileges
 002942 47F0 A28A            02950 18129  1          +
 002946 D200 8006 C080 00006 00038 18135  2 1548.                  MVC   NTPFLG,@FCASPRI     Set new privileges
 00294C 41F0 0004            00004 18136  2 1549.                  LA    R15,4               Entry changed but no length change
 002950                            18137  1 1550.                END   ,                   Set new privileges
 002950                            18141    1551.              END   ,                   Member entry does exist
0002950 50D0 C0A8            00020 18146    1553.              CATCALL CONT              Continue update of account entry
 002954 D603 C0AC C0AC 00024 00024 18158             +
 00295A 4770 A29C            02962 18159             +
 00295E 41D0 C120            00098 18165             +
 00295C A2A0           0295E 02962 18173             +
 002962 47F0 A2A4            0296A 18175             +
 002966 58D0 C0AC            00024 18182             +
 00296A 4120 000C            0000C 18187             +
 00296E 4150 C088            00000 18188             +
 002972 5890 A8F2/18BA       02FB8 18189             +
 002978 18A3/0D99/183A             18191             +
 00297E 18AB/50D0 C0AC       00024 18194             +
 002984 58D0 C0A8/120F       00020 18196             +
 00298A 1200/4780 A2CE       02994 18198    1554.              IF    (RVR,NZ),'LA RS,16' No more room
 002990 4110 0010            00010 18213             +
 002994 A2D2           02994 0298E 18218    1555.              ELSE  'CLEAR RS'          Done
 002994 47F0 A2D4/1B11       0299A 18223             +
000299A                            18239    1557.     FCATASAX LABEL ,
1FILECAT  (FILECA) (09:39) (22MAR04) ORVYL'S File Catalog Manager                                                           Page  112
0Current Usings:  (FSB,R3) (NTRYGR,R4) (NTRYPR,R8) (N.NTRYPR,R9) (FCATASAC,R10) (@FCASACC-72,R12) (@GRES-72,R13)
0Loc    Object Code    Addr1 Addr2  Stmt Lv Lineno    Source Statement           (Hibal 5, Asmedit 3.3)  HLASM R4.0  2004/03/22 09.39
+___    ______ ____    _____ _____  ____ __ ______    ______ _________
0DROP   @LOCMEME-72,R13            18241    1558.              GRREL RID=FSBCGRI         Release catalog hold
 USING  @GRES-72,R13
 00299A D708 D048 D048 00000 00000 18262             +
 0029A0 D203 D04C 3028 00004 00028 18267             +
 0029A6 58F0 A8F6/0DEF       02FBC 18270             +
 0029AC 1801                       18272    1559.              LR    RVR,RS              Set return code
00029AE 981F C008            00008 18274    1561.              PEND  ,
 DROP   N.NTRYPR,R9
 DROP   NTRYPR,R8
 DROP   NTRYGR,R4
 DROP   FSB,R3
 DROP   @FCASACC-72,R12
 DROP   FCATASAC,R10
 0029B2 9680 C000/0B0E 00000       18312             +
 DROP   @GRES-72,R13
1FILECAT  (FILECA) (09:39) (22MAR04) ORVYL'S File Catalog Manager                                                           Page  113
0Loc    Object Code    Addr1 Addr2  Stmt Lv Lineno    Source Statement           (Hibal 5, Asmedit 3.3)  HLASM R4.0  2004/03/22 09.39
+___    ______ ____    _____ _____  ____ __ ______    ______ _________
0                                  18322    1563.     *---------------------------------------------------------------------*
                                   18323    1564.     *  LOCMEME - Locate account permits for entry
                                   18324    1565.     *
                                   18325    1566.     *   Inputs - @LOCMEME
                                   18326    1567.     *
                                   18327    1568.     *   Output - If RVR = 0, @LOCMEMP points to member entry
                                   18328    1569.     *            If RVR = 1, @LOCMEMP points to insert point
                                   18329    1570.     *---------------------------------------------------------------------*
 0029B8                            18330    1571.     LOCMEME  PROC  @LOCMEME
 0029B8 D3D6C3D4C5D4C540           18337             +
 0029C0 0010/0000                  18338             +
 0029C4 900F D004/18AF       00004 18340             +
 USING  LOCMEME,R10
 0029CA 50D0 C000/18CD       00000 18355             +
 0029D0 9680 C000      00000       18357             +
 USING  @LOCMEME-72,R12
 0029D4 41D0 C058            00058 18371             +
 0029D8 5890 C048            00000 18372    1572.              L     RN,@LOCMEMN
 USING  NTRY,R9                    18373    1573.              WITH  (NTRY,RN)
 0029DC 9180 C056      0000E       18386    1574.              IF    @LOCMFF,BEGIN       File entry
 0029E0 47E0 A02A            029EE 18396             +
 0029E4 1FEE/43E0 901F       0001F 18401  1 1575.                LC    R14,NTFLNMSZ
 0029EA 41EE 9020            00020 18408  1 1576.                LA    R14,NTFLNAME(R14)   Point to member area
 0029EE                            18409    1577.              END   ,                   File entry
 0029EE A02E           029EE 029E2 18413    1578.              ELSE  'LA R14,NTGMEMBR'   Point to member area
 0029EE 47F0 A032            029F6 18418             +
 0029F2 41E0 901A            0001A 18425             +
 0029F6 1FFF/BFF3 9000       00000 18430    1579.              L2    R15,NTRYLEN
 0029FC 41FF 9000            00000 18436    1580.              LA    R15,NTRYSTRT(R15)   Point to end of entry
 USING  NTRYPR,R14                 18437    1581.              WITH  (NTRYPR,R14)
 002A00 4100 0001            00001 18450    1582.              LA    RVR,1               Init to not found
 002A04 19EF/47B0 A068       02A2C 18451    1583.     LOCMEMEL WHILE (R14,LT,R15),BEGIN  While more members
 002A0A                            18469  1 1584.                IF    (@LOCMEMA,LE,NTPNAME),BEGIN
 002A0A D505 E000 C050 00000 00008 18480  1          +
 002A10 4750 A060            02A24 18481  1          +
 002A14                            18486  2 1585.                  IF    (@LOCMEMA,EQ,NTPNAME),'CLEAR RVR' Found
 002A14 D505 E000 C050 00000 00008 18497  2          +
 002A1A 4770 A05C/1B00       02A20 18498  2          +
 002A20 47F0 A068            02A2C 18512  2 1586.                  EXIT  LOCMEMEL            Exit loop
 002A24                            18515  1 1587.                END   ,
 002A24 41EE 0007            00007 18519  1 1588.                LA    R14,L'NTRYPR(R14)
 002A28 47F0 A040            02A04 18520    1589.              END   ,                   While more members
 002A2C 50E0 C04C            00004 18525    1590.              ST    R14,@LOCMEMP        Set return pointer
 002A30 981F C008            00008 18526    1591.              PEND  ,
 DROP   NTRYPR,R14
 DROP   NTRY,R9
 DROP   @LOCMEME-72,R12
 DROP   LOCMEME,R10
 002A34 9680 C000/0B0E 00000       18551             +
1FILECAT  (FILECA) (09:39) (22MAR04) ORVYL'S File Catalog Manager                                                           Page  114
0Loc    Object Code    Addr1 Addr2  Stmt Lv Lineno    Source Statement           (Hibal 5, Asmedit 3.3)  HLASM R4.0  2004/03/22 09.39
+___    ______ ____    _____ _____  ____ __ ______    ______ _________
0                                  18558    1593.     *---------------------------------------------------------------------*
                                   18559    1594.     *  LOCPERM - Locate account permits for entry
                                   18560    1595.     *
                                   18561    1596.     *   Inputs - @LOCPERM
                                   18562    1597.     *
                                   18563    1598.     *   Output - Permits in RVR (low order byte)
                                   18564    1599.     *---------------------------------------------------------------------*
 000000                00000 00007 18565    1600.     #LOCPERM RECORD BEGIN
 000000                            18573  1 1601.     #LOCPPRM   DS    X
 000001                            18574  1 1602.     #LOCGMEM   DS    CL6
 000007                00007 00007 18575    1603.              END   ,
0002A3A                            18585    1605.     LOCPERM  PROC  @LOCPERM,#LOCPERM
 002A3A D3D6C3D7C5D9D440           18592             +
 002A42 0010/0008                  18593             +
 002A46 900F D004/18AF       00004 18595             +
 USING  LOCPERM,R10
 002A4C 50D0 C000/18CD       00000 18610             +
 002A52 9680 C000      00000       18612             +
 USING  @LOCPERM-72,R12
 AUSING (#LOCPERM,@LOCPERM+16)
 002A56 41D0 C060            00060 18631             +
 002A5A 5890 C048            00000 18632    1606.              L     RN,@LOCNTRY
 USING  NTRY,R9                    18633    1607.              WITH  (NTRY,RN)
 002A5E 9180 C052      0000A       18646    1608.              IF    @LOCFF,BEGIN        File entry
 002A62 47E0 A030            02A76 18656             +
 002A66 D200 C058 9011 00000 00011 18661  1 1609.                MVC   #LOCPPRM,NTFFLGP    Get public permits
 002A6C 1FEE/43E0 901F       0001F 18662  1 1610.                LC    R14,NTFLNMSZ
 002A72 41EE 9020            00020 18669  1 1611.                LA    R14,NTFLNAME(R14)   Point to member area
 002A76                            18670    1612.              END   ,                   File entry
 002A76 A034           02A76 02A64 18674    1613.              ELSE  BEGIN               Account entry
 002A76 47F0 A03E            02A84 18679             +
 002A7A D200 C058 9019 00000 00019 18685  1 1614.                MVC   #LOCPPRM,NTGFLG     Public permits
 002A80 41E0 901A            0001A 18686  1 1615.                LA    R14,NTGMEMBR        Point to member area
 002A84                            18687    1616.              END   ,                   Account entry
 002A84 1FFF/BFF3 9000       00000 18691    1617.              L2    R15,NTRYLEN
 002A8A 41FF 9000            00000 18697    1618.              LA    R15,NTRYSTRT(R15)   Point to end of entry
 002A8E D202 C059 C04C 00001 00004 18698    1619.              MVC   #LOCGMEM(3),@LOCACC Build group level member
 002A94 D202 C05C A5BB 00004 03001 18699    1620.              MVC   #LOCGMEM+3(3),=C'pUB'
 USING  NTRYPR,R14                 18700    1621.              WITH  (NTRYPR,R14)
 002A9A 19EF/47B0 A082       02AC8 18713    1622.              WHILE (R14,LT,R15),BEGIN  While more members
 002AA0                            18730  1 1623.                IF    (@LOCACC,EQ,NTPNAME),'OC #LOCPPRM,NTPFLG'
 002AA0 D505 E000 C04C 00000 00004 18741  1          +
 002AA6 4770 A06A            02AB0 18742  1          +
 002AAA D600 C058 E006 00000 00006 18748  1          +
 002AB0                            18753  1 1624.                IF    (#LOCGMEM,EQ,NTPNAME),'OC #LOCPPRM,NTPFLG'
 002AB0 D505 C059 E000 00001 00000 18765  1          +
 002AB6 4770 A07A            02AC0 18766  1          +
 002ABA D600 C058 E006 00000 00006 18772  1          +
 002AC0 41EE 0007            00007 18777  1 1625.                LA    R14,L'NTRYPR(R14)
 002AC4 47F0 A054            02A9A 18778    1626.              END   ,                   While more members
 002AC8 1F00/4300 C058       00000 18783    1627.              LC    RVR,#LOCPPRM
 002ACE 981F C008            00008 18788    1628.              PEND  ,
 DROP   NTRYPR,R14
 DROP   NTRY,R9
 DROP   @LOCPERM-72,R12
1FILECAT  (FILECA) (09:39) (22MAR04) ORVYL'S File Catalog Manager                                                           Page  115
0Loc    Object Code    Addr1 Addr2  Stmt Lv Lineno    Source Statement           (Hibal 5, Asmedit 3.3)  HLASM R4.0  2004/03/22 09.39
+___    ______ ____    _____ _____  ____ __ ______    ______ _________
0DROP   LOCPERM,R10
 002AD2 9680 C000/0B0E 00000       18813             +
1FILECAT  (FILECA) (09:39) (22MAR04) ORVYL'S File Catalog Manager                                                           Page  116
0Loc    Object Code    Addr1 Addr2  Stmt Lv Lineno    Source Statement           (Hibal 5, Asmedit 3.3)  HLASM R4.0  2004/03/22 09.39
+___    ______ ____    _____ _____  ____ __ ______    ______ _________
0                                  18820    1630.     *---------------------------------------------------------------------*
                                   18821    1631.     *  FCATINIT - Catalog initialization
                                   18822    1632.     *
                                   18823    1633.     *   Inputs - RVR set to FSB address
                                   18824    1634.     *
                                   18825    1635.     *   Output -
                                   18826    1636.     *---------------------------------------------------------------------*
                                   18827    1637.     &MSG1    SETC  ' Catalog needs rebuilding.   '
                                   18828    1638.     &MSG2    SETC  ' File System Updates Frozen!!'
0000000                00000 00104 18830    1640.     #FCATINI RECORD BEGIN
 000000                            18838  1 1641.     ORVNAME    DS    CL8                     Orvyl name
 000008                            18839  1 1642.     SPACE      DS    CL1
 000009                            18840  1 1643.     FSNAME     DS    CL8                     File System name
                                   18841  1 1644.     MSG        DS    C'&MSG1'
 000011                                   1 1644.    +MSG        DS    C' Catalog needs rebuilding.   '
                                   18842  1 1645.     MSGLEN     EQU   *-ORVNAME
0000030                            18844  1 1647.                DS    0D
 000030                            18845  1 1648.     #FCIRQBL   DS    CL(L'RQBL)
 000104                00104 00104 18846    1649.              END   ,
0002AD8                            18856    1651.     FCATINIT PROC  @FMFSB,#FCATINI,SCOPE=GLOBAL
 002AD8 C6C3C1E3C9D5C9E3           18862             +
 002AE0 0008/0108                  18863             +
 002AE4 900F D004/18AF       00004 18865             +
 USING  FCATINIT,R10
 002AEA 50D0 C000/18CD       00000 18880             +
 002AF0 9680 C000      00000       18882             +
 USING  @FMFSB-72,R12
 AUSING (#FCATINI,@FMFSB+8)
 002AF4 41D0 C158            00158 18901             +
 002AF8 5830 C048            00000 18902    1652.              L     RB,@FMFSBP
 USING  FSB,R3                     18903    1653.              WITH  (FSB,RB)
 AUSING (RQBL,#FCIRQBL)            18916    1654.              WITH  (RQBL,#FCIRQBL)
 002AFC                            18923    1655.              CLEAR RQBL
 002AFC D7D3 C080 C080 00000 00000 18929             +
0                                  18931    1657.     *  Get core for catalog buffers
0002B02 5850 305C            0005C 18933    1659.              L     RK,FSBBLKTOP            Get core for Catalog buffers
 002B06 4150 5002            00002 18934    1660.              LA    RK,@RK+2                | + checkpoint + root
 002B0A 4C50 30AC            000AC 18935    1661.              MH    RK,FSBDSZ               |
 USING  @VMGET-72,R13              18936    1662.              VMGET (RK),LOC=GLOBHI,FIX=YES,PAGE=YES
 002B0E D70A D048 D048 00000 00000 18960             +
 002B14 5050 D048            00000 18970             +
 002B18 D201 D050 A510 00008 02FF4 18971             +
 002B1E 9680 D052      0000A       18977             +
 002B22 58F0 A4F0/0DEF       02FD4 18980             +
 002B28 1200/4770 A07A       02B5E 18982    1663.              IF    (RVR,ZERO),'ABORT NOCATBUFFS'
 002B2E AC04 021B      0021B       19009  1          +
 USING  PZERO,R0
 002B32 9680 021A      0021A       19015  1          +
 002B36 50F0 021C            0021C 19016  1          +
 002B3A 58F0 0210            00210 19017  1          +
 002B3E 89F0 0010            00010 19018  1          +
1FILECAT  (FILECA) (09:39) (22MAR04) ORVYL'S File Catalog Manager                                                           Page  117
0Current Usings:  (PZERO,R0) (FSB,R3) (FCATINIT,R10) (@FMFSB-72,R12) (@VMGET-72,R13)
0Loc    Object Code    Addr1 Addr2  Stmt Lv Lineno    Source Statement           (Hibal 5, Asmedit 3.3)  HLASM R4.0  2004/03/22 09.39
+___    ______ ____    _____ _____  ____ __ ______    ______ _________
0002B42 88F0 0010            00010 19019  1          +
 002B46 41F0 F000            00000 19020  1          +
 002B4A AEFF 0006            00006 19021  1          +
 002B4E D5D6C3C1E3C2E4C6           19022             +
 DROP   PZERO,R0
 002B5E 5000 3060            00060 19035    1664.              ST    RVR,FSBCHKA             | save start in Checkpnt ptr
 002B62 1840                       19036    1665.              LR    RJ,RVR                  | clear buffers
 002B64 1B99                       19037    1666.              CLEAR RN                      |
 002B66 0E48                       19041    1667.              MVCL  RJ,RM                   |
0                                  19043    1669.     * If hyperspace cache is being used, a 4K page is needed for IO.
0002B68 9120 300B      0000B       19045    1671.              IF    (FSBHCACHE,AND,(FSBDSZ,EQ,2048)),BEGIN
 002B6C 47E0 A0F4            02BD8 19057             +
 002B70 D501 A512 30AC 02FF6 000AC 19071             +
 002B76 4770 A0F4            02BD8 19072             +
 002B7A 5850 A4F4            02FD8 19077  1 1672.                L     RK,=A(4096)
 002B7E                            19078  1 1673.                VMGET (RK),LOC=GLOBHI,FIX=YES,PAGE=YES
 002B7E D70A D048 D048 00000 00000 19095  1          +
 002B84 5050 D048            00000 19105  1          +
 002B88 D201 D050 A510 00008 02FF4 19106  1          +
 002B8E 9680 D052      0000A       19112  1          +
 002B92 58F0 A4F0/0DEF       02FD4 19115  1          +
 002B98 1200/4770 A0EA       02BCE 19117  1 1674.                IF    (RVR,ZERO),'ABORT NOCAT4KBUFFS'
 002B9E AC04 021B      0021B       19144  2          +
 USING  PZERO,R0
 002BA2 9680 021A      0021A       19150  2          +
 002BA6 50F0 021C            0021C 19151  2          +
 002BAA 58F0 0210            00210 19152  2          +
 002BAE 89F0 0010            00010 19153  2          +
 002BB2 88F0 0010            00010 19154  2          +
 002BB6 41F0 F000            00000 19155  2          +
 002BBA AEFF 0006            00006 19156  2          +
 002BBE D5D6C3C1E3F4D2C2           19157  1          +
 DROP   PZERO,R0
 002BCE 5000 3120            00120 19170  1 1675.                ST    RVR,FSBCAT4K        Save buffer address
 002BD2 1840                       19171  1 1676.                LR    RJ,RVR                  | clear buffer
 002BD4 1B99                       19172  1 1677.                CLEAR RN                      |
 002BD6 0E48                       19176  1 1678.                MVCL  RJ,RM                   |
 002BD8                            19177    1679.              END   ,
0                                  19182    1681.     * Get resource id
0DROP   @VMGET-72,R13              19184    1683.              GRCRE CID=(RB)            Create a general resource
 USING  @GRES-72,R13
 002BD8 D708 D048 D048 00000 00000 19205             +
 002BDE 5030 D048            00000 19215             +
 002BE2 58F0 A4F8/0DEF       02FDC 19218             +
 002BE8 5000 3028            00028 19220    1684.              ST    RVR,FSBCGRI         Set id for catalog
0                                  19222    1686.     * Read FSMB (using CHECKPOINT block's buffer)
0002BEC 5800 3120/1200       00120 19224    1688.              IF    ('LT RVR,FSBCAT4K',Z),BEGIN No IO buffer
 002BF2 4770 A116            02BFA 19235             +
1FILECAT  (FILECA) (09:39) (22MAR04) ORVYL'S File Catalog Manager                                                           Page  118
0Current Usings:  (FSB,R3) (FCATINIT,R10) (@FMFSB-72,R12) (@GRES-72,R13)
0Loc    Object Code    Addr1 Addr2  Stmt Lv Lineno    Source Statement           (Hibal 5, Asmedit 3.3)  HLASM R4.0  2004/03/22 09.39
+___    ______ ____    _____ _____  ____ __ ______    ______ _________
0002BF6 5800 3060            00060 19240  1 1689.                L     RVR,FSBCHKA         Use this one
 002BFA                            19241    1690.              END   ,
0DROP   @GRES-72,R13               19246    1692.              PSET  @FDOIODO
 USING  @FDOIODO-72,R13
 002BFA D70F D048 D048 00000 00000 19266             +
 002C00 5030 D048            00000 19267    1693.              PMOV  @FDOFSB,LA:FSB      FSB ptr
 002C04                            19278    1694.              CLEAR @FDOBLK             Block number zero
 002C04 D703 D04C D04C 00004 00004 19284             +
 002C0A 5000 D050            00008 19285    1695.              PMOV  @FDODATA,(RVR)      Use our buffer
 002C0E                            19295    1696.              PMOV  @FDODATL,FSBDSZ
 002C0E D201 D054 30AC 0000C 000AC 19299             +
 002C14 9680 D057      0000F       19300    1697.              SET   @FDOFR              Indicate read
 002C18 58F0 A4FC/0DEF       02FE0 19306    1698.              VCALL FDOIODO             Read file system master block
 002C1E 95FF D056      0000E       19310    1699.              IF    ('CLI @FDOTYPE,FBHTFSMB',NE),'ABORT BADMASTERSON'
 002C22 4780 A172            02C56 19318             +
 USING  PZERO,R0
 002C26 AC04 021B      0021B       19336  1          +
 002C2A 9680 021A      0021A       19342  1          +
 002C2E 50F0 021C            0021C 19343  1          +
 002C32 58F0 0210            00210 19344  1          +
 002C36 89F0 0010            00010 19345  1          +
 002C3A 88F0 0010            00010 19346  1          +
 002C3E 41F0 F000            00000 19347  1          +
 002C42 AEFF 0006            00006 19348  1          +
 002C46 C2C1C4D4C1E2E3C5           19349             +
 DROP   PZERO,R0
0002C56 5800 3120/1200       00120 19363    1701.              IF    ('LT RVR,FSBCAT4K',NZ),BEGIN IO buffer
 002C5C 4780 A188            02C6C 19374             +
 002C60 4810 30AC            000AC 19379  1 1702.                LH    RS,FSBDSZ
 002C64 58E0 3060            00060 19380  1 1703.                L     R14,FSBCHKA
 002C68 18F1                       19381  1 1704.                LR    R15,RS
 002C6A 0EE0                       19382  1 1705.                MVCL  R14,RVR             Move to cat buffer
 002C6C                            19383    1706.              END   ,
0002C6C 58E0 3060            00060 19388    1708.              L     R14,FSBCHKA
 USING  FSMB,R14                   19389    1709.              WITH  (FSMB,R14),BEGIN
 002C70                            19403  1 1710.                IF    (FSBDSZ,NE,FSMDSZ),'ABORT BADMASTERLEN'
 002C70 D501 30AC E038 000AC 00038 19415  1          +
 002C76 4780 A1C6            02CAA 19416  1          +
 USING  PZERO,R0
 002C7A AC04 021B      0021B       19434  2          +
 002C7E 9680 021A      0021A       19440  2          +
 002C82 50F0 021C            0021C 19441  2          +
 002C86 58F0 0210            00210 19442  2          +
 002C8A 89F0 0010            00010 19443  2          +
 002C8E 88F0 0010            00010 19444  2          +
 002C92 41F0 F000            00000 19445  2          +
 002C96 AEFF 0006            00006 19446  2          +
 002C9A C2C1C4D4C1E2E3C5           19447  1          +
 DROP   PZERO,R0
 002CAA D203 3044 E024 00044 00024 19460  1 1711.                MVC   FSBCATSB,FSMCATSB   Set first block of the catalog
 002CB0 D203 3048 E028 00048 00028 19461  1 1712.                MVC   FSBCATBC,FSMCATBC   Set catalog block count
1FILECAT  (FILECA) (09:39) (22MAR04) ORVYL'S File Catalog Manager                                                           Page  119
0Current Usings:  (FSB,R3) (FCATINIT,R10) (@FMFSB-72,R12) (@FDOIODO-72,R13) (FSMB,R14)
0Loc    Object Code    Addr1 Addr2  Stmt Lv Lineno    Source Statement           (Hibal 5, Asmedit 3.3)  HLASM R4.0  2004/03/22 09.39
+___    ______ ____    _____ _____  ____ __ ______    ______ _________
0002CB6 D203 30D4 E02C 000D4 0002C 19462  1 1713.                MVC   FSBBITSB,FSMBITSB   Set first block of bit map
 002CBC D203 30D8 E030 000D8 00030 19463  1 1714.                MVC   FSBBITBC,FSMBITBC   Set bitmap block count
 002CC2 D223 30AC E038 000AC 00038 19464  1 1715.                MVC   FSBBALST(FSBBALLN),FSMBALST Catalog balancing parms
 DROP   FSMB,R14                   19465    1716.              END   ,
0                                  19474    1718.     * Initialize buffer pointers
0002CC8 5810 3060            00060 19476    1720.              L     RS,FSBCHKA              CHECK POINT BUFFER
 002CCC 4160 0008            00008 19477    1721.              LA    RX,CFSBPL               FILL BUFFER SLOTS (INCR)
 002CD0 5870 305C            0005C 19478    1722.              L     RY,FSBBLKTOP            | UPPER LIMIT
 002CD4 0670                       19479    1723.              DECR  RY                      |
 002CD6 4C70 A514            02FF8 19481    1724.              MH    RY,=Y(CFSBPL)           |
 002CDA 4177 306C            0006C 19482    1725.              LA    RY,FSBBLK1(RY)          |
 002CDE 5070 305C            0005C 19483    1726.              ST    RY,FSBBLKTOP            |
 002CE2 4190 3064            00064 19484    1727.              LA    RN,FSBROOTB             | STARTING ADDR
 002CE6 4A10 30AC            000AC 19485    1728.     INILOOP  AH    RS,FSBDSZ               | BUFFER LEN
 002CEA                            19486    1729.              MVC   @RN(CFSBBL),=&L.AL1(NIL)         | EMPTY
 002CEA D203 9000 A500 00000 02FE4                   +
 002CF0 5010 9004            00004 19487    1730.              ST    RS,@RN+CFSBBL           | BUFFER ADDR
 002CF4 D403 9004 A504 00004 02FE8 19488    1731.              NC    @RN+CFSBBL(4),=A(BITAVAIL)       | BUFFER N AVAILABLE
 002CFA 8796 A202            02CE6 19489    1732.              BXLE  RN,RX,INILOOP           DO ALL SLOTS
0                                  19491    1734.     *  EXAMINE CHECKPOINT BLOCK
0002CFE 5800 3120/1200       00120 19493    1736.              IF    ('LT RVR,FSBCAT4K',Z),BEGIN No IO buffer
 002D04 4770 A228            02D0C 19504             +
 002D08 5800 3060            00060 19509  1 1737.                L     RVR,FSBCHKA         Use this one
 002D0C                            19510    1738.              END   ,
0002D0C                            19515    1740.              PSET  @FDOIODO
 002D0C D70F D048 D048 00000 00000 19525             +
 002D12 5030 D048            00000 19526    1741.              PMOV  @FDOFSB,LA:FSB      FSB ptr
 002D16                            19537    1742.              PMOV  @FDOBLK,FSBCATSB    First catalog block
 002D16 D203 D04C 3044 00004 00044 19541             +
 002D1C 5000 D050            00008 19542    1743.              PMOV  @FDODATA,(RVR)      Use our buffer
 002D20                            19552    1744.              PMOV  @FDODATL,FSBDSZ
 002D20 D201 D054 30AC 0000C 000AC 19556             +
 002D26 9680 D057      0000F       19557    1745.              SET   @FDOFR              Indicate read
 002D2A 58F0 A4FC/0DEF       02FE0 19563    1746.              VCALL FDOIODO             Read checkpoint block
0002D30 5800 3120/1200       00120 19568    1748.              IF    ('LT RVR,FSBCAT4K',NZ),BEGIN IO buffer
 002D36 4780 A262            02D46 19579             +
 002D3A 4810 30AC            000AC 19584  1 1749.                LH    RS,FSBDSZ
 002D3E 58E0 3060            00060 19585  1 1750.                L     R14,FSBCHKA
 002D42 18F1                       19586  1 1751.                LR    R15,RS
 002D44 0EE0                       19587  1 1752.                MVCL  R14,RVR             Move to cat buffer
 002D46                            19588    1753.              END   ,
0002D46 58E0 3060            00060 19593    1755.              L     R14,FSBCHKA
 USING  CHKPNT,R14                 19594    1756.              WITH  (CHKPNT,R14),BEGIN      ## CHKPNT ADDR
 002D4A 48F0 30B0            000B0 19608  1 1757.                LH    R15,FSBDTAGX            CHECK FIRST/LAST BYTES
 002D4E 41FF E000            00000 19609  1 1758.                LA    R15,CHKPNT(R15)
 002D52                            19610  1 1759.                IF    ('CLC CHKTIME,@R15',NE),'ABORT CHKPNTINCOMPLETE'
 002D52 D507 E000 F000 00000 00000 19617  1          +
1FILECAT  (FILECA) (09:39) (22MAR04) ORVYL'S File Catalog Manager                                                           Page  120
0Current Usings:  (PZERO,R0) (FSB,R3) (FCATINIT,R10) (@FMFSB-72,R12) (@FDOIODO-72,R13) (CHKPNT,R14)
0Loc    Object Code    Addr1 Addr2  Stmt Lv Lineno    Source Statement           (Hibal 5, Asmedit 3.3)  HLASM R4.0  2004/03/22 09.39
+___    ______ ____    _____ _____  ____ __ ______    ______ _________
0002D58 4780 A2A8            02D8C 19618  1          +
 USING  PZERO,R0
 002D5C AC04 021B      0021B       19636  2          +
 002D60 9680 021A      0021A       19642  2          +
 002D64 50F0 021C            0021C 19643  2          +
 002D68 58F0 0210            00210 19644  2          +
 002D6C 89F0 0010            00010 19645  2          +
 002D70 88F0 0010            00010 19646  2          +
 002D74 41F0 F000            00000 19647  2          +
 002D78 AEFF 0006            00006 19648  2          +
 002D7C C3C8D2D7D5E3C9D5           19649  1          +
 DROP   PZERO,R0
 002D8C 4810 E00A            0000A 19662  1 1760.                LH    RS,CHKROOTB             ROOT BLOCK NUMBER
 DROP   CHKPNT,R14                 19663    1761.              END   ,                       ## OF CHKPNT ADDR
0002D90 5010 3064            00064 19672    1763.              ST    RS,FSBROOTB             RELATIVE BLOCK NUMBER
 002D94 5E10 3044            00044 19673    1764.              AL    RS,FSBCATSB             ABSOLUTE ORVYL BLOCK NUMBER
0002D98 5800 3120/1200       00120 19675    1766.              IF    ('LT RVR,FSBCAT4K',Z),BEGIN No IO buffer
 002D9E 4770 A2C2            02DA6 19686             +
 002DA2 5800 3068            00068 19691  1 1767.                L     RVR,FSBROOTA        Use this one
 002DA6                            19692    1768.              END   ,
0002DA6                            19697    1770.              PSET  @FDOIODO
 002DA6 D70F D048 D048 00000 00000 19707             +
 002DAC 5030 D048            00000 19708    1771.              PMOV  @FDOFSB,LA:FSB      FSB ptr
 002DB0 5010 D04C            00004 19719    1772.              PMOV  @FDOBLK,(RS)        Root block number
 002DB4 5000 D050            00008 19729    1773.              PMOV  @FDODATA,(RVR)      Use our buffer
 002DB8                            19739    1774.              PMOV  @FDODATL,FSBDSZ
 002DB8 D201 D054 30AC 0000C 000AC 19743             +
 002DBE 9680 D057      0000F       19744    1775.              SET   @FDOFR              Indicate read catalog
 002DC2 58F0 A4FC/0DEF       02FE0 19750    1776.              VCALL FDOIODO             Read file system master block
0002DC8 5800 3120/1200       00120 19755    1778.              IF    ('LT RVR,FSBCAT4K',NZ),BEGIN IO buffer
 002DCE 4780 A2FA            02DDE 19766             +
 002DD2 4810 30AC            000AC 19771  1 1779.                LH    RS,FSBDSZ
 002DD6 58E0 3068            00068 19772  1 1780.                L     R14,FSBROOTA
 002DDA 18F1                       19773  1 1781.                LR    R15,RS
 002DDC 0EE0                       19774  1 1782.                MVCL  R14,RVR             Move to cat buffer
 002DDE                            19775    1783.              END   ,
0002DDE 58E0 3060            00060 19780    1785.              L     R14,FSBCHKA             CHKPNT ADDR
 USING  CHKPNT,R14                 19781    1786.              WITH  (CHKPNT,R14),BEGIN      |
 002DE2 9500 E112      00112       19795  1 1787.                IF ((CHKITYPE,NZ),OR,(CHKI2TYP,NZ),OR,(CHKI3TYP,NZ)),BEGIN
 002DE6 4770 A316            02DFA 19810  1          +
 002DEA 9500 E154      00154       19820  1          +
 002DEE 4770 A316            02DFA 19823  1          +
 002DF2 9500 E194      00194       19833  1          +
 002DF6 4780 A350            02E34 19834  1          +
 002DFA 50D0 C0A0            00020 19839  2 1788.                  CATCALL REC                   Recover Routines
 002DFE D603 C0A4 C0A4 00024 00024 19851  2          +
 002E04 4770 A328            02E0C 19852  2          +
 002E08 41D0 C118            00098 19858  2          +
 002E06 A32C           02E08 02E0C 19866  2          +
1FILECAT  (FILECA) (09:39) (22MAR04) ORVYL'S File Catalog Manager                                                           Page  121
0Current Usings:  (FSB,R3) (FCATINIT,R10) (@FMFSB-72,R12) (@FDOIODO-72,R13) (CHKPNT,R14)
0Loc    Object Code    Addr1 Addr2  Stmt Lv Lineno    Source Statement           (Hibal 5, Asmedit 3.3)  HLASM R4.0  2004/03/22 09.39
+___    ______ ____    _____ _____  ____ __ ______    ______ _________
0002E0C 47F0 A330            02E14 19868  2          +
 002E10 58D0 C0A4            00024 19875  2          +
 002E14 4120 000E            0000E 19880  2          +
 002E18 4150 C080            00000 19881  2          +
 002E1C 5890 A4D4/18BA       02FB8 19882  2          +
 002E22 18A3/0D99/183A             19884  2          +
 002E28 18AB/50D0 C0A4       00024 19887  2          +
 002E2E 58D0 C0A0/120F       00020 19889  2          +
 002E34                            19891  1 1789.                END   ,
0002E34 9120 300A      0000A       19896  1 1791.                IF    ~FSBSTEMP,BEGIN         Don't need space for temp
 002E38 4710 A3A8            02E8C 19906  1          +
 002E3C 5810 3048            00048 19911  2 1792.                  L     R1,FSBCATBC             MIN WARNING BLOCK COUNT
 002E40 4C10 A516            02FFA 19912  2 1793.                  MH    R1,=Y(CCAT0PCT)         |
 002E44 1B00                       19913  2 1794.                  CLEAR R0                      |
 002E46 5D00 A508            02FEC 19917  2 1795.                  D     R0,=A(100)              | PERCENTAGE
 002E4A 4910 A518            02FFC 19918  2 1796.                  FLOOR R1,=Y(CCAT1MIN)         | ABSOLUTE MINIMUM
 002E4E 47B0 A372            02E56 19921  2          +
 002E52 4810 A518            02FFC 19922  2          +
 002E56 58E0 3060            00060 19923  2 1797.                  L     R14,FSBCHKA             CHECKPOINT ADDRESS
 002E5A 4910 E00E            0000E 19924  2 1798.                  IF    (CHKFBNO,LE,R1),BEGIN   WARN ON LOW BLOCK COUNT
 002E5E 4750 A3A8            02E8C 19936  2          +
 002E62 D207 C059 3018 00009 00018 19941  3 1799.                    MVC   FSNAME,FSBNAME      Set file name
 002E68 9240 C058      00008       19942  3 1800.                    MVI   SPACE,C' '
 002E6C 58F0 0200            00200 19943  3 1801.                    L     R15,MATPTR
 USING  MAT,R15                    19944  3 1802.                    WITH  (MAT,R15),'MVC ORVNAME,MATSNAME' Set system name
 002E70 D207 C050 F0D4 00000 000D4 19959  3          +
 DROP   MAT,R15
 002E76                            19968  3 1803.                    MVC   MSG,=C'&MSG1'       Set message
 002E76 D21C C061 A520 00011 03004        3          +
 002E7C 41E0 C050            00000 19969  3 1804.                    ORVWTO ORVNAME,MSGLEN,DELETE=NO
 002E80 41F0 002E            0002E 19982  3          +
 002E84 4100 0006            00006 19983  3          +
 002E88 83E00013                   19986  3          +
 002E8C                            19987  2 1805.                  END   ,                       OF WARN ON LOW BLOCK COUNT
 002E8C                            19991  1 1806.                END   ,                       Don't need space for temp
0002E8C 58E0 3060            00060 19996  1 1808.                L     R14,FSBCHKA             CHECKPOINT ADDR
 002E90                            19997  1 1809.                IF    (CHKFBNO,LE,FSBLOGFR),BEGIN      UNDER LOGICAL LIMIT
 002E90 D501 E00E 30CC 0000E 000CC 20009  1          +
 002E96 4730 A406            02EEA 20010  1          +
 002E9A 9608 3009      00009       20015  2 1810.                  SET   FSBCATNIN               NO INSERTS
 002E9E 58E0 3060            00060 20021  2 1811.                  L     R14,FSBCHKA             CHECKPOINT ADDR
 002EA2                            20022  2 1812.                  IF    (CHKFBNO,LE,FSBMNFRE),BEGIN      UNDER MINIMUM
 002EA2 D501 E00E 30CE 0000E 000CE 20034  2          +
 002EA8 4730 A3FE            02EE2 20035  2          +
 002EAC 9604 3009      00009       20040  3 1813.                    SET   FSBCATNLM               NoLengthModify MODE
 002EB0 9120 300A      0000A       20046  3 1814.                    IF    ~FSBSTEMP,BEGIN         Don't need space for temp
 002EB4 4710 A3FE            02EE2 20056  3          +
 002EB8 D207 C059 3018 00009 00018 20061  4 1815.                      MVC   FSNAME,FSBNAME      Set file name
 002EBE                            20062  4 1816.                      MVC   MSG,=C'&MSG2'       Set message
 002EBE D21C C061 A53D 00011 03021        4          +
 002EC4 9240 C058      00008       20063  4 1817.                      MVI   SPACE,C' '
 002EC8 58F0 0200            00200 20064  4 1818.                      L     R15,MATPTR
1FILECAT  (FILECA) (09:39) (22MAR04) ORVYL'S File Catalog Manager                                                           Page  122
0Current Usings:  (FSB,R3) (FCATINIT,R10) (@FMFSB-72,R12) (@FDOIODO-72,R13) (CHKPNT,R14) (MAT,R15)
0Loc    Object Code    Addr1 Addr2  Stmt Lv Lineno    Source Statement           (Hibal 5, Asmedit 3.3)  HLASM R4.0  2004/03/22 09.39
+___    ______ ____    _____ _____  ____ __ ______    ______ _________
0USING  MAT,R15                    20065  4 1819.                      WITH  (MAT,R15),'MVC ORVNAME,MATSNAME' Set system name
 002ECC D207 C050 F0D4 00000 000D4 20080  4          +
 DROP   MAT,R15
 002ED2 41E0 C050            00000 20089  4 1820.                      ORVWTO ORVNAME,MSGLEN,DELETE=NO
 002ED6 41F0 002E            0002E 20102  4          +
 002EDA 4100 0006            00006 20103  4          +
 002EDE 83E00013                   20106  4          +
 002EE2                            20107  3 1821.                    END   ,                       Don't need space for temp
 002EE2                            20111  2 1822.                  END   ,                       OF UNDER MINIMUM
 002EE2 A402           02EE2 02EAA 20115  2 1823.                  ELSE  'CLEAR FSBCATNLM'       CLEAR NoLenMod
 002EE2 47F0 A406            02EEA 20120  2          +
 002EE6 94FB 3009      00009       20133  2          +
 002EEA                            20138  1 1824.                END   ,                       OF UNDER LOGICAL LIMIT
 002EEA A40A           02EEA 02E98 20142  1 1825.                ELSE  'CLEAR FSBCATNLM*FSBCATNIN'
 002EEA 47F0 A40E            02EF2 20147  1          +
 002EEE 94F3 3009      00009       20163  1          +
 DROP   CHKPNT,R14                 20168    1826.              END   ,                       OF CHKPNT ADDR
 002EF2 981F C008            00008 20176    1827.              PEND  ,
 DROP   FSB,R3
 DROP   @FMFSB-72,R12
 DROP   FCATINIT,R10
 002EF6 9680 C000/0B0E 00000       20196             +
 DROP   @FDOIODO-72,R13
1FILECAT  (FILECA) (09:39) (22MAR04) ORVYL'S File Catalog Manager                                                           Page  123
0Loc    Object Code    Addr1 Addr2  Stmt Lv Lineno    Source Statement           (Hibal 5, Asmedit 3.3)  HLASM R4.0  2004/03/22 09.39
+___    ______ ____    _____ _____  ____ __ ______    ______ _________
0                                  20206    1829.     *---------------------------------------------------------------------*
                                   20207    1830.     *
                                   20208    1831.     *  VCAT I/O Routines - simulate the old stuff with the new stuff
                                   20209    1832.     *
                                   20210    1833.     *---------------------------------------------------------------------*
                                   20211    1834.              ENTRY SETREAD1            VCAT entry point
 002EFC                            20212    1835.     SETREAD1 LABEL ,
 002EFC 0D70                       20214    1836.              BASE  R7
 USING  *,R7
 USING  RQB,R5                     20228    1837.              USING RQB,R5
 USING  FSB,R10                    20237    1838.              USING FSB,R10
0002EFE 50D0 5024            00024 20247    1840.              ST    SPR,RQBLWR3         Save VCAT stack pointer
 002F02 58D0 5020            00020 20248    1841.              L     SPR,RQBLWR2         Get ours back
0002F06 5800 A120/1200       00120 20250    1843.              IF    ('LT RVR,FSBCAT4K',Z),BEGIN No IO buffer
 002F0C 4770 7016            02F14 20261             +
 002F10 5800 500C            0000C 20266  1 1844.                L     RVR,RQBLR14         Use this one
 002F14                            20267    1845.              END   ,
0USING  @FDOIODO-72,R13            20272    1847.              PSET  @FDOIODO
 002F14 D70F D048 D048 00000 00000 20289             +
 002F1A 50A0 D048            00000 20290    1848.              PMOV  @FDOFSB,LA:FSB      FSB ptr
 002F1E                            20301    1849.              PMOV  @FDOBLK,RQBLR1      Block number
 002F1E D203 D04C 5010 00004 00010 20305             +
 002F24 5000 D050            00008 20306    1850.              PMOV  @FDODATA,(RVR)      Use our buffer
 002F28                            20316    1851.              PMOV  @FDODATL,FSBDSZ
 002F28 D201 D054 A0AC 0000C 000AC 20320             +
 002F2E 9680 D057      0000F       20321    1852.              SET   @FDOFR              Indicate read catalog
 002F32 58F0 70E2/0DEF       02FE0 20327    1853.              VCALL FDOIODO             Read catalog record
0002F38 5800 A120/1200       00120 20332    1855.              IF    ('LT RVR,FSBCAT4K',NZ),BEGIN IO buffer
 002F3E 4780 7050            02F4E 20343             +
 002F42 4810 A0AC            000AC 20348  1 1856.                LH    RS,FSBDSZ
 002F46 58E0 500C            0000C 20349  1 1857.                L     R14,RQBLR14
 002F4A 18F1                       20350  1 1858.                LR    R15,RS
 002F4C 0EE0                       20351  1 1859.                MVCL  R14,RVR             Move to cat buffer
 002F4E                            20352    1860.              END   ,
0002F4E 58D0 5024            00024 20357    1862.              L     SPR,RQBLWR3         Get VCAT stack pointer back
0002F52 07F9                       20359    1864.              BR    R9
 DROP   RQB,R5                     20360    1865.              DROP  R5,R7,R10
 DROP   *,R7
 DROP   FSB,R10
0                                  20380    1867.              ENTRY SETWRIT1            VCAT entry point
 002F54                            20381    1868.     SETWRIT1 LABEL ,
 002F54 0D70                       20383    1869.              BASE  R7
 USING  *,R7
 USING  RQB,R5                     20397    1870.              USING RQB,R5
 USING  FSB,R10                    20406    1871.              USING FSB,R10
0002F56 50D0 5024            00024 20416    1873.              ST    SPR,RQBLWR3         Save VCAT stack pointer
 002F5A 58D0 5020            00020 20417    1874.              L     SPR,RQBLWR2         Get ours back
1FILECAT  (FILECA) (09:39) (22MAR04) ORVYL'S File Catalog Manager                                                           Page  124
0Current Usings:  (RQB,R5) (*,R7) (FSB,R10) (@FDOIODO-72,R13)
0Loc    Object Code    Addr1 Addr2  Stmt Lv Lineno    Source Statement           (Hibal 5, Asmedit 3.3)  HLASM R4.0  2004/03/22 09.39
+___    ______ ____    _____ _____  ____ __ ______    ______ _________
0002F5E 5800 A120/1200       00120 20419    1876.              IF    ('LT RVR,FSBCAT4K',NZ),BEGIN IO buffer
 002F64 4780 7022            02F78 20430             +
 002F68 4810 A0AC            000AC 20435  1 1877.                LH    RS,FSBDSZ
 002F6C 58E0 500C            0000C 20436  1 1878.                L     R14,RQBLR14
 002F70 18F1                       20437  1 1879.                LR    R15,RS
 002F72 0E0E                       20438  1 1880.                MVCL  RVR,R14             Move to cat 4K IO buffer
 002F74 5800 A120            00120 20439  1 1881.                L     RVR,FSBCAT4K
 002F78                            20440    1882.              END   ,
 002F78 7026           02F78 02F66 20444    1883.              ELSE  'L RVR,RQBLR14'
 002F78 47F0 702A            02F80 20449             +
 002F7C 5800 500C            0000C 20456             +
0002F80                            20462    1885.              PSET  @FDOIODO
 002F80 D70F D048 D048 00000 00000 20472             +
 002F86 50A0 D048            00000 20473    1886.              PMOV  @FDOFSB,LA:FSB      FSB ptr
 002F8A                            20484    1887.              PMOV  @FDOBLK,RQBLR1      Block number
 002F8A D203 D04C 5010 00004 00010 20488             +
 002F90 5000 D050            00008 20489    1888.              PMOV  @FDODATA,(RVR)      Use our buffer
 002F94                            20499    1889.              PMOV  @FDODATL,FSBDSZ
 002F94 D201 D054 A0AC 0000C 000AC 20503             +
 002F9A 9640 D057      0000F       20504    1890.              SET   @FDOFW              Indicate write catalog
 002F9E 9280 D056      0000E       20510    1891.              MVI   @FDOTYPE,FBHTCAT
 002FA2 58F0 708A/0DEF       02FE0 20511    1892.              VCALL FDOIODO             Write catalog record
0002FA8 58D0 5024            00024 20516    1894.              L     SPR,RQBLWR3         Get VCAT stack pointer back
0002FAC 07F9                       20518    1896.              BR    R9
 DROP   RQB,R5                     20519    1897.              DROP  R5,R7,R10
 DROP   *,R7
 DROP   FSB,R10
1FILECAT  (FILECA) (09:39) (22MAR04) ORVYL'S File Catalog Manager                                                           Page  125
0Current Usings:  (@FDOIODO-72,R13)
0Loc    Object Code    Addr1 Addr2  Stmt Lv Lineno    Source Statement           (Hibal 5, Asmedit 3.3)  HLASM R4.0  2004/03/22 09.39
+___    ______ ____    _____ _____  ____ __ ______    ______ _________
0002FB0                            20539    1899.              LTORG ,
 002FB0 00000000                   20541                             =V(GRGET)
 002FB4 D9D8C2D3                   20542                             =CL4'RQBL'
 002FB8 00000000                   20543                             =V(VCATENT)
 002FBC 00000000                   20544                             =V(GRREL)
 002FC0 00000004                   20545                             =A(DIRNFER)
 002FC4 00002A46                   20546                             =A(LOCPERM)
 002FC8 000029C4                   20547                             =A(LOCMEME)
 002FCC 00000129                   20548                             =A(CFSBMXNT)
 002FD0 40404040                   20549                             =CL4' '
 002FD4 00000000                   20550                             =V(VMGET)
 002FD8 00001000                   20551                             =A(4096)
 002FDC 00000000                   20552                             =V(GRCRE)
 002FE0 00000000                   20553                             =V(FDOIODO)
 002FE4 FFFFFFFF                   20554                             =4AL1(NIL)
 002FE8 7FFFFF00                   20555                             =A(BITAVAIL)
 002FEC 00000064                   20556                             =A(100)
 002FF0 0007                       20557                             =Y(L'NTRYPR)
 002FF2 FFFC                       20558                             =H'-4'
 002FF4 3F00                       20559                             =Y(63*256+0)
 002FF6 0800                       20560                             =AL2(2048)
 002FF8 0008                       20561                             =Y(CFSBPL)
 002FFA 000A                       20562                             =Y(CCAT0PCT)
 002FFC 003C                       20563                             =Y(CCAT1MIN)
 002FFE D7E4C2                     20564                             =C'PUB'
 003001 97E4C2                     20565                             =C'pUB'
 003004 40C381A381939687           20566                             =C' Catalog needs rebuilding.   '
 003021 40C689938540E2A8           20567                             =C' File System Updates Frozen!!'
 003048                03048 03048 20571    1900.              END   .

1FILECAT  (FILECA) (09:39) (22MAR04) Ordinary Symbol and Literal Cross Reference                                            Page  126
-Symbol   Length   Value     Id    R Type   Defn References                                  HLASM R4.0  2004/03/22 09.39
0$$$@R0        1 00000000 FFFFFFFE     J     714  1010
 $$$@R1        1 00000000 FFFFFFFD     J     727  1022
 $$$@R10       1 00000000 FFFFFFF4     J     844  1142
 $$$@R11       1 00000000 FFFFFFF3     J     857  1154
 $$$@R12       1 00000000 FFFFFFF2     J     870  1166
 $$$@R13       1 00000000 FFFFFFF1     J     883  1178
 $$$@R14       1 00000000 FFFFFFF0     J     896  1190
 $$$@R15       1 00000000 FFFFFFEF     J     909  1202
 $$$@R2        1 00000000 FFFFFFFC     J     740  1034
 $$$@R3        1 00000000 FFFFFFFB     J     753  1046
 $$$@R4        1 00000000 FFFFFFFA     J     766  1058
 $$$@R5        1 00000000 FFFFFFF9     J     779  1070
 $$$@R6        1 00000000 FFFFFFF8     J     792  1082
 $$$@R7        1 00000000 FFFFFFF7     J     805  1094
 $$$@R8        1 00000000 FFFFFFF6     J     818  1106
 $$$@R9        1 00000000 FFFFFFF5     J     831  1118   1130
 $$$C1FILECAT
               1 00000644 00000001     J    6389  6391   6433
 $$$C2FILECAT
               1 00000F8C 00000001     J    9241  9243  10767  11390
 $$$C3FILECAT
               1 00001748 00000001     J   11785 11787
 $$$C4FILECAT
               1 00002336 00000001     J   15933 15935  16307  16683  17266  17767  18582  18853
 $$$C5FILECAT
               1 00003046 00000001     J   20568 20570
 $$$C6FILECAT
               1 00003048 00000001     J   20574 20576
 $$$D4FILECAT
               1 0000303E 00000001     J   15934 16672  17756
 $$$R#FCALIS
               1 00000000 FFFFFFBF     J   11373 11389  11389
 $$$R#FCASACC
               1 00000000 FFFFFFBD     J   17248 17265  17265
 $$$R#FCATINI
               1 00000000 FFFFFFBB     J   18832 18852  18852
 $$$R#FCFLIS
               1 00000000 FFFFFFC0     J   10750 10766  10766
 $$$R#FCNIXR
               1 00000000 FFFFFFC1     J    6403  6432   6432
 $$$R#FCPERM
               1 00000000 FFFFFFC2     J    4430  4444   4444
 $$$R#FCXTND
               1 00000000 FFFFFFBE     J   16289 16306  16306
 $$$R#LOCPERM
               1 00000000 FFFFFFBC     J   18567 18581  18581
 $$$R@FCACMOD
               1 00000000 FFFFFFCB     J    3538  3553   3553
 $$$R@FCAINFO
               1 00000000 FFFFFFCE     J    3459  3476   3476
 $$$R@FCALIS
               1 00000000 FFFFFFCC     J    3515  3532   3532
 $$$R@FCASACC
               1 00000000 FFFFFFD2     J    3324  3352   3352
 $$$R@FCAVALI
1FILECAT  (FILECA) (09:39) (22MAR04) Ordinary Symbol and Literal Cross Reference                                            Page  127
               1 00000000 FFFFFFD3     J    3304  3318   3318
 $$$R@FCDLETE
               1 00000000 FFFFFFC8     J    3602  3616   3616
 $$$R@FCEPUB
               1 00000000 FFFFFFCF     J    3438  3453   3453
 $$$R@FCFINFO
               1 00000000 FFFFFFD4     J    3283  3298   3298
 $$$R@FCFLIS
               1 00000000 FFFFFFCD     J    3482  3509   3509
 $$$R@FCGPERM
               1 00000000 FFFFFFD0     J    3391  3432   3432
 $$$R@FCNIXR
               1 00000000 FFFFFFD5     J    3246  3277   3277
 $$$R@FCPERM
               1 00000000 FFFFFFD6     J    3206  3240   3240
 $$$R@FCRNAME
               1 00000000 FFFFFFC9     J    3581  3596   3596
 $$$R@FCS111
               1 00000000 FFFFFFCA     J    3559  3575   3575
 $$$R@FCUINFO
               1 00000000 FFFFFFC7     J    3622  3717   3717
 $$$R@FCXTND
               1 00000000 FFFFFFD1     J    3358  3385   3385
 $$$R@FDOIODO
               1 00000000 FFFFFFE5     J    1777  1828   1828
 $$$R@FILEBLKI
               1 00000000 FFFFFFEA     J    1594  1638   1638
 $$$R@FILEHALT
               1 00000000 FFFFFFE8     J    1710  1723   1723
 $$$R@FMFINFO
               1 00000000 FFFFFFE9     J    1649  1700   1700
 $$$R@FMFSB
               1 00000000 FFFFFFE6     J    1749  1771   1771
 $$$R@FMIXRAD
               1 00000000 FFFFFFD7     J    3183  3200   3200
 $$$R@FMRQFB
               1 00000000 FFFFFFE7     J    1729  1742   1742
 $$$R@FSADDV
               1 00000000 FFFFFFE4     J    1834  1848   1848
 $$$R@GRES
               1 00000000 FFFFFFDD     J    2286  2322   2322
 $$$R@LOCMEME
               1 00000000 FFFFFFC4     J    4272  4301   4301
 $$$R@LOCPERM
               1 00000000 FFFFFFC3     J    4307  4335   4335
 $$$R@M1FILE
               1 00000000 FFFFFFEC     J    1420  1555   1555
 $$$R@M1FPOST
               1 00000000 FFFFFFEB     J    1566  1583   1583
 $$$R@VMFREE
               1 00000000 FFFFFFE1     J    2112  2127   2127
 $$$R@VMGET
               1 00000000 FFFFFFE2     J    2077  2106   2106
 $$$R@VMINFO
               1 00000000 FFFFFFE0     J    2133  2148   2148
 $$$RCHKDSTK
               1 00000000 FFFFFFC6     J    3750  3775   3775
 $$$RCHKPNT
               1 00000000 FFFFFFC5     J    3781  4266   4266
1FILECAT  (FILECA) (09:39) (22MAR04) Ordinary Symbol and Literal Cross Reference                                            Page  128
 $$$RFBHDR
               1 00000000 FFFFFFDF     J    2155  2191   2191
 $$$RFSB       1 00000000 FFFFFFDC     J    2483  2755   2755
 $$$RFSMB      1 00000000 FFFFFFDE     J    2198  2274   2274
 $$$RMAT       1 00000000 FFFFFFED     J    1339  1398   1398
 $$$RNTRY      1 00000000 FFFFFFDA     J    2870  3082   3082
 $$$RNTRYPR
               1 00000000 FFFFFFD8     J    3110  3176   3176
 $$$RNTRYXTND
               1 00000000 FFFFFFD9     J    3088  3104   3104
 $$$RPZERO
               1 00000000 FFFFFFEE     J    1235  1326   1326
 $$$RRQBL      1 00000000 FFFFFFDB     J    2797  2863   2863
 $$$RSLDUMMY
               1 00000000 FFFFFFE3     J    2048  2064   2064
 $$$100B       4 00000834 00000001     I    7044  7057
 $$$100F       2 0000083C 00000001     H    7054  7044B  7056
 $$$101E       2 00000840 00000001     H    7064  7058
 $$$101F       2 00000844 00000001     H    7071  7060B
 $$$103B       4 00000890 00000001     I    7131  7144
 $$$103F       2 00000898 00000001     H    7141  7131B  7143
 $$$104E       2 0000089C 00000001     H    7151  7145
 $$$104F       2 000008A0 00000001     H    7158  7147B
 $$$105F       2 00000918 00000001     H    7310  7252B  7263B
 $$$107B       4 00000942 00000001     I    7373  7386
 $$$107F       2 0000094A 00000001     H    7383  7373B  7385
 $$$108E       2 0000094E 00000001     H    7393  7387
 $$$108F       2 00000952 00000001     H    7400  7389B
 $$$109F       2 000009D6 00000001     H    7516  7424B
 $$$110F       2 0000098C 00000001     H    7455  7442B
 $$$111B       4 0000099E 00000001     I    7472  7485
 $$$111F       2 000009A6 00000001     H    7482  7472B  7484
 $$$112E       2 000009AA 00000001     H    7492  7486
 $$$112F       2 000009AE 00000001     H    7499  7488B
 $$$113B       4 000009E4 00000001     I    7532  7545
 $$$113F       2 000009EC 00000001     H    7542  7532B  7544
 $$$114E       2 000009F0 00000001     H    7552  7546
 $$$114F       2 000009F4 00000001     H    7559  7548B
 $$$116F       2 00000A56 00000001     H    7660  7645B
 $$$117F       2 00000A76 00000001     H    7697  7680B
 $$$117S       2 00000A62 00000001     H    7668  7693B
 $$$120B       4 00000A84 00000001     I    7712  7725
 $$$120F       2 00000A8C 00000001     H    7722  7712B  7724
 $$$121E       2 00000A90 00000001     H    7732  7726
 $$$121F       2 00000A94 00000001     H    7739  7728B
 $$$122F       2 00000F5A 00000001     H    9219  8686B
 $$$123F       2 00000B3A 00000001     H    7996  7986B
 $$$124B       4 00000B48 00000001     I    8011  8024
 $$$124F       2 00000B50 00000001     H    8021  8011B  8023
 $$$125E       2 00000B54 00000001     H    8031  8025
 $$$125F       2 00000B58 00000001     H    8038  8027B
 $$$126F       2 00000B84 00000001     H    8067  8057B
 $$$127F       2 00000BAE 00000001     H    8145  8079B
 $$$128F       2 00000BBE 00000001     H    8176  8166B
 $$$129B       4 00000BCC 00000001     I    8191  8204
 $$$129F       2 00000BD4 00000001     H    8201  8191B  8203
 $$$130E       2 00000BD8 00000001     H    8211  8205
 $$$130F       2 00000BDC 00000001     H    8218  8207B
 $$$131F       2 00000C08 00000001     H    8246  8236B
1FILECAT  (FILECA) (09:39) (22MAR04) Ordinary Symbol and Literal Cross Reference                                            Page  129
 $$$132F       2 00000C44 00000001     H    8338  8258B
 $$$136F       2 00000C60 00000001     H    8391  8376B
 $$$138F       2 00000D28 00000001     H    8594  8442B
 $$$139B       4 00000C9C 00000001     I    8465  8478
 $$$139F       2 00000CA4 00000001     H    8475  8465B  8477
 $$$140E       2 00000CA8 00000001     H    8485  8479
 $$$140F       2 00000CAC 00000001     H    8492  8481B
 $$$142B       4 00000CF8 00000001     I    8552  8565
 $$$142F       2 00000D00 00000001     H    8562  8552B  8564
 $$$143E       2 00000D04 00000001     H    8572  8566
 $$$143F       2 00000D08 00000001     H    8579  8568B
 $$$144F       2 00000D68 00000001     H    8690  8677B
 $$$145F       2 00000DA4 00000001     H    8765  8705B  8716B
 $$$147F       2 00000E62 00000001     H    8969  8819B
 $$$148B       4 00000DD8 00000001     I    8843  8856
 $$$148F       2 00000DE0 00000001     H    8853  8843B  8855
 $$$149E       2 00000DE4 00000001     H    8863  8857
 $$$149F       2 00000DE8 00000001     H    8870  8859B
 $$$150F       2 00000E18 00000001     H    8908  8895B
 $$$151B       4 00000E2A 00000001     I    8925  8938
 $$$151F       2 00000E32 00000001     H    8935  8925B  8937
 $$$152E       2 00000E36 00000001     H    8945  8939
 $$$152F       2 00000E3A 00000001     H    8952  8941B
 $$$153B       4 00000E72 00000001     I    8989  9002
 $$$153F       2 00000E7A 00000001     H    8999  8989B  9001
 $$$154E       2 00000E7E 00000001     H    9009  9003
 $$$154F       2 00000E82 00000001     H    9016  9005B
 $$$155B       4 00000EB2 00000001     I    9047  9060
 $$$155F       2 00000EBA 00000001     H    9057  9047B  9059
 $$$156E       2 00000EBE 00000001     H    9067  9061
 $$$156F       2 00000EC2 00000001     H    9074  9063B
 $$$157F       2 00000EEE 00000001     H    9103  9093B
 $$$158B       4 00000F14 00000001     I    9131  9144
 $$$158F       2 00000F1C 00000001     H    9141  9131B  9143
 $$$159E       2 00000F20 00000001     H    9151  9145
 $$$159F       2 00000F24 00000001     H    9158  9147B
 $$$161B       4 00000FEC 00000001     I    9394  9407
 $$$161F       2 00000FF4 00000001     H    9404  9394B  9406
 $$$162E       2 00000FF8 00000001     H    9414  9408
 $$$162F       2 00000FFC 00000001     H    9421  9410B
 $$$163F       2 00001050 00000001     H    9482  9439B
 $$$164B       4 0000105E 00000001     I    9502  9515
 $$$164F       2 00001066 00000001     H    9512  9502B  9514
 $$$165E       2 0000106A 00000001     H    9522  9516
 $$$165F       2 000010C4 00000001     H    9627  9518B
 $$$166B       4 0000106E 00000001     I    9536  9549
 $$$166F       2 00001076 00000001     H    9546  9536B  9548
 $$$167E       2 0000107A 00000001     H    9556  9550
 $$$167F       2 0000107E 00000001     H    9563  9552B
 $$$168B       4 00001092 00000001     I    9581  9594
 $$$168F       2 0000109A 00000001     H    9591  9581B  9593
 $$$169E       2 0000109E 00000001     H    9601  9595
 $$$169F       2 000010A2 00000001     H    9608  9597B
 $$$171B       4 00001142 00000001     I    9835  9848
 $$$171F       2 0000114A 00000001     H    9845  9835B  9847
 $$$172E       2 0000114E 00000001     H    9855  9849
 $$$172F       2 00001152 00000001     H    9862  9851B
 $$$173F       2 000011A6 00000001     H    9923  9880B
 $$$174F       2 000011B6 00000001     H    9950  9937B
1FILECAT  (FILECA) (09:39) (22MAR04) Ordinary Symbol and Literal Cross Reference                                            Page  130
 $$$175B       4 000011C8 00000001     I    9967  9980
 $$$175F       2 000011D0 00000001     H    9977  9967B  9979
 $$$176E       2 000011D4 00000001     H    9987  9981
 $$$176F       2 000011D8 00000001     H    9994  9983B
 $$$178B       4 00001278 00000001     I   10217 10230
 $$$178F       2 00001280 00000001     H   10227 10217B 10229
 $$$179E       2 00001284 00000001     H   10237 10231
 $$$179F       2 00001288 00000001     H   10244 10233B
 $$$180B       4 000012A8 00000001     I   10262 10275
 $$$180F       2 000012B0 00000001     H   10272 10262B 10274
 $$$181E       2 000012B4 00000001     H   10282 10276
 $$$181F       2 000012FA 00000001     H   10345 10278B
 $$$182B       4 000012C8 00000001     I   10299 10312
 $$$182F       2 000012D0 00000001     H   10309 10299B 10311
 $$$183E       2 000012D4 00000001     H   10319 10313
 $$$183F       2 000012D8 00000001     H   10326 10315B
 $$$185B       4 00001378 00000001     I   10553 10566
 $$$185F       2 00001380 00000001     H   10563 10553B 10565
 $$$186E       2 00001384 00000001     H   10573 10567
 $$$186F       2 00001388 00000001     H   10580 10569B
 $$$187B       4 000013A8 00000001     I   10598 10611
 $$$187F       2 000013B0 00000001     H   10608 10598B 10610
 $$$188E       2 000013B4 00000001     H   10618 10612
 $$$188F       2 000013FA 00000001     H   10681 10614B
 $$$189B       4 000013C8 00000001     I   10635 10648
 $$$189F       2 000013D0 00000001     H   10645 10635B 10647
 $$$190E       2 000013D4 00000001     H   10655 10649
 $$$190F       2 000013D8 00000001     H   10662 10651B
 $$$192F       2 0000146E 00000001     H   10923 10908B
 $$$193B       4 0000148E 00000001     I   10946 10959
 $$$193F       2 00001496 00000001     H   10956 10946B 10958
 $$$194E       2 0000149A 00000001     H   10966 10960
 $$$194F       2 0000149E 00000001     H   10973 10962B
 $$$196F       2 000014FA 00000001     H   11097 11014B
 $$$198B       4 00001520 00000001     I   11123 11136
 $$$198F       2 00001528 00000001     H   11133 11123B 11135
 $$$199E       2 0000152C 00000001     H   11143 11137
 $$$199F       2 00001530 00000001     H   11150 11139B
 $$$201F       2 000015BA 00000001     H   11280 11206B
 $$$201S       2 00001556 00000001     H   11182 11277B
 $$$203B       4 00001586 00000001     I   11225 11238
 $$$203F       2 0000158E 00000001     H   11235 11225B 11237
 $$$204E       2 00001592 00000001     H   11245 11239
 $$$204F       2 00001596 00000001     H   11252 11241B
 $$$208B       4 0000165C 00000001     I   11547 11560
 $$$208F       2 00001664 00000001     H   11557 11547B 11559
 $$$209E       2 00001668 00000001     H   11567 11561
 $$$209F       2 0000166C 00000001     H   11574 11563B
 $$$211F       2 000016F6 00000001     H   11704 11630B
 $$$211S       2 00001692 00000001     H   11606 11701B
 $$$213B       4 000016C2 00000001     I   11649 11662
 $$$213F       2 000016CA 00000001     H   11659 11649B 11661
 $$$214E       2 000016CE 00000001     H   11669 11663
 $$$214F       2 000016D2 00000001     H   11676 11665B
 $$$218B       4 000017B2 00000001     I   11941 11954
 $$$218F       2 000017BA 00000001     H   11951 11941B 11953
 $$$219E       2 000017BE 00000001     H   11961 11955
 $$$219F       2 000017C2 00000001     H   11968 11957B
 $$$221F       2 00001842 00000001     H   12091 12007B
1FILECAT  (FILECA) (09:39) (22MAR04) Ordinary Symbol and Literal Cross Reference                                            Page  131
 $$$222B       4 00001808 00000001     I   12031 12044
 $$$222F       2 00001810 00000001     H   12041 12031B 12043
 $$$223E       2 00001814 00000001     H   12051 12045
 $$$223F       2 00001818 00000001     H   12058 12047B
 $$$225F       2 00001854 00000001     H   12120 12110B
 $$$227B       4 000018E4 00000001     I   12336 12349
 $$$227F       2 000018EC 00000001     H   12346 12336B 12348
 $$$228E       2 000018F0 00000001     H   12356 12350
 $$$228F       2 000018F4 00000001     H   12363 12352B
 $$$229B       4 00001914 00000001     I   12381 12432
 $$$229F       2 0000192C 00000001     H   12429 12381B 12431
 $$$230B       4 0000191C 00000001     I   12398 12411
 $$$230F       2 00001924 00000001     H   12408 12398B 12410
 $$$231E       2 00001928 00000001     H   12418 12412
 $$$231F       2 0000192C 00000001     H   12425 12414B
 $$$232E       2 00001930 00000001     H   12439 12433
 $$$232F       2 00001980 00000001     H   12510 12435B
 $$$233B       4 0000194E 00000001     I   12464 12477
 $$$233F       2 00001956 00000001     H   12474 12464B 12476
 $$$234E       2 0000195A 00000001     H   12484 12478
 $$$234F       2 0000195E 00000001     H   12491 12480B
 $$$236B       4 00001A06 00000001     I   12716 12729
 $$$236F       2 00001A0E 00000001     H   12726 12716B 12728
 $$$237E       2 00001A12 00000001     H   12736 12730
 $$$237F       2 00001A16 00000001     H   12743 12732B
 $$$238B       4 00001A36 00000001     I   12761 12844
 $$$238F       2 00001A5E 00000001     H   12841 12761B 12843
 $$$239B       4 00001A3E 00000001     I   12778 12792
 $$$239F       2 00001A46 00000001     H   12788 12778B 12791
 $$$240B       4 00001A4E 00000001     I   12810 12823
 $$$240E       2 00001A4A 00000001     H   12799 12793
 $$$240F       2 00001A56 00000001     H   12820 12795B 12810B 12822
 $$$242E       2 00001A5A 00000001     H   12830 12824
 $$$242F       2 00001A5E 00000001     H   12837 12826B
 $$$243E       2 00001A62 00000001     H   12851 12845
 $$$243F       2 00001A64 00000001     H   12861 12847B
 $$$245B       4 00001AF4 00000001     I   13060 13073
 $$$245F       2 00001AFC 00000001     H   13070 13060B 13072
 $$$246E       2 00001B00 00000001     H   13080 13074
 $$$246F       2 00001B04 00000001     H   13087 13076B
 $$$247B       4 00001B32 00000001     I   13113 13126
 $$$247F       2 00001B3A 00000001     H   13123 13113B 13125
 $$$248E       2 00001B3E 00000001     H   13133 13127
 $$$248F       2 00001B42 00000001     H   13140 13129B
 $$$249F       2 00001B7C 00000001     H   13208 13160B
 $$$250B       4 00001B6C 00000001     I   13177 13190
 $$$250F       2 00001B74 00000001     H   13187 13177B 13189
 $$$251E       2 00001B78 00000001     H   13197 13191
 $$$251F       2 00001B7C 00000001     H   13204 13193B
 $$$253B       4 00001C00 00000001     I   13400 13413
 $$$253F       2 00001C08 00000001     H   13410 13400B 13412
 $$$254E       2 00001C0C 00000001     H   13420 13414
 $$$254F       2 00001C10 00000001     H   13427 13416B
 $$$255B       4 00001C3E 00000001     I   13453 13466
 $$$255F       2 00001C46 00000001     H   13463 13453B 13465
 $$$256E       2 00001C4A 00000001     H   13473 13467
 $$$256F       2 00001C4E 00000001     H   13480 13469B
 $$$257F       2 00001C78 00000001     H   13510 13500B
 $$$259B       4 00001CFC 00000001     I   13715 13728
1FILECAT  (FILECA) (09:39) (22MAR04) Ordinary Symbol and Literal Cross Reference                                            Page  132
 $$$259F       2 00001D04 00000001     H   13725 13715B 13727
 $$$260E       2 00001D08 00000001     H   13735 13729
 $$$260F       2 00001D0C 00000001     H   13742 13731B
 $$$261F       2 00001D70 00000001     H   13825 13760B
 $$$262B       4 00001D40 00000001     I   13783 13796
 $$$262F       2 00001D48 00000001     H   13793 13783B 13795
 $$$263E       2 00001D4C 00000001     H   13803 13797
 $$$263F       2 00001D50 00000001     H   13810 13799B
 $$$264F       2 00001EE8 00000001     H   14457 13833B
 $$$265B       4 00001D78 00000001     I   13848 13910
 $$$265F       2 00001D96 00000001     H   13906 13848B 13909
 $$$266B       4 00001D86 00000001     I   13864 13882
 $$$266F       2 00001D8E 00000001     H   13879 13864B 13881
 $$$267E       2 00001D92 00000001     H   13889 13883
 $$$267F       2 00001D96 00000001     H   13902 13885B
 $$$268B       4 00001D9E 00000001     I   13926 13940
 $$$268E       2 00001D9A 00000001     H   13917 13911
 $$$268F       2 00001DAC 00000001     H   13936 13913B 13926B 13939
 $$$27F        2 00000414 00000001     H    5658  5282B
 $$$270B       4 00001DB4 00000001     I   13956 13970
 $$$270E       2 00001DB0 00000001     H   13947 13941
 $$$270F       2 00001DC2 00000001     H   13966 13943B 13956B 13969
 $$$272B       4 00001DCA 00000001     I   13986 14047
 $$$272E       2 00001DC6 00000001     H   13977 13971
 $$$272F       2 00001DE2 00000001     H   14043 13973B 13986B 14046
 $$$274B       4 00001DD2 00000001     I   14001 14019
 $$$274F       2 00001DDA 00000001     H   14016 14001B 14018
 $$$275E       2 00001DDE 00000001     H   14026 14020
 $$$275F       2 00001DE2 00000001     H   14039 14022B
 $$$276B       4 00001DEA 00000001     I   14063 14124
 $$$276E       2 00001DE6 00000001     H   14054 14048
 $$$276F       2 00001E02 00000001     H   14120 14050B 14063B 14123
 $$$278B       4 00001DF2 00000001     I   14078 14096
 $$$278F       2 00001DFA 00000001     H   14093 14078B 14095
 $$$279E       2 00001DFE 00000001     H   14103 14097
 $$$279F       2 00001E02 00000001     H   14116 14099B
 $$$28F        2 0000007C 00000001     H    4608  4598B
 $$$280B       4 00001E0A 00000001     I   14140 14201
 $$$280E       2 00001E06 00000001     H   14131 14125
 $$$280F       2 00001E22 00000001     H   14197 14127B 14140B 14200
 $$$282B       4 00001E12 00000001     I   14155 14173
 $$$282F       2 00001E1A 00000001     H   14170 14155B 14172
 $$$283E       2 00001E1E 00000001     H   14180 14174
 $$$283F       2 00001E22 00000001     H   14193 14176B
 $$$284B       4 00001E2A 00000001     I   14217 14278
 $$$284E       2 00001E26 00000001     H   14208 14202
 $$$284F       2 00001E42 00000001     H   14274 14204B 14217B 14277
 $$$286B       4 00001E32 00000001     I   14232 14250
 $$$286F       2 00001E3A 00000001     H   14247 14232B 14249
 $$$287E       2 00001E3E 00000001     H   14257 14251
 $$$287F       2 00001E42 00000001     H   14270 14253B
 $$$288B       4 00001E4A 00000001     I   14294 14320
 $$$288E       2 00001E46 00000001     H   14285 14279
 $$$288F       2 00001E62 00000001     H   14316 14281B 14294B 14319
 $$$29B        4 0000008A 00000001     I    4623  4636
 $$$29F        2 00000092 00000001     H    4633  4623B  4635
 $$$290B       4 00001E6A 00000001     I   14336 14348
 $$$290E       2 00001E66 00000001     H   14327 14321
 $$$290F       2 00001E74 00000001     H   14345 14323B 14336B 14347
1FILECAT  (FILECA) (09:39) (22MAR04) Ordinary Symbol and Literal Cross Reference                                            Page  133
 $$$292E       2 00001E78 00000001     H   14355 14349
 $$$292F       2 00001EA8 00000001     H   14395 14351B
 $$$293B       4 00001EB6 00000001     I   14411 14424
 $$$293F       2 00001EBE 00000001     H   14421 14411B 14423
 $$$294E       2 00001EC2 00000001     H   14431 14425
 $$$294F       2 00001EC6 00000001     H   14438 14427B
 $$$296B       4 00001F6E 00000001     I   14669 14682
 $$$296F       2 00001F76 00000001     H   14679 14669B 14681
 $$$297E       2 00001F7A 00000001     H   14689 14683
 $$$297F       2 00001F7E 00000001     H   14696 14685B
 $$$298B       4 00001FAE 00000001     I   14726 14739
 $$$298F       2 00001FB6 00000001     H   14736 14726B 14738
 $$$299E       2 00001FBA 00000001     H   14746 14740
 $$$299F       2 00001FBE 00000001     H   14753 14742B
 $$$30E        2 00000096 00000001     H    4643  4637
 $$$30F        2 0000009A 00000001     H    4650  4639B
 $$$300F       2 00002012 00000001     H   14814 14771B
 $$$302B       4 0000209A 00000001     I   15028 15041
 $$$302F       2 000020A2 00000001     H   15038 15028B 15040
 $$$303E       2 000020A6 00000001     H   15048 15042
 $$$303F       2 000020AA 00000001     H   15055 15044B
 $$$305F       2 00002106 00000001     H   15179 15096B
 $$$308B       4 00002180 00000001     I   15400 15471
 $$$308F       2 000021D4 00000001     H   15468 15400B 15470
 $$$309B       4 000021A0 00000001     I   15425 15438
 $$$309F       2 000021A8 00000001     H   15435 15425B 15437
 $$$31B        4 000000BA 00000001     I    4669  4833
 $$$31F        2 00000166 00000001     H    4829  4669B  4832
 $$$310E       2 000021AC 00000001     H   15445 15439
 $$$310F       2 000021B0 00000001     H   15452 15441B
 $$$311E       2 000021D8 00000001     H   15478 15472
 $$$311F       2 000021E2 00000001     H   15485 15474B
 $$$312B       4 000021F2 00000001     I   15504 15517
 $$$312F       2 000021FA 00000001     H   15514 15504B 15516
 $$$313E       2 000021FE 00000001     H   15524 15518
 $$$313F       2 00002202 00000001     H   15531 15520B
 $$$314B       4 00002226 00000001     I   15553 15678
 $$$314F       2 0000226E 00000001     H   15675 15553B 15677
 $$$316F       2 00002264 00000001     H   15669 15586B
 $$$318E       2 00002272 00000001     H   15685 15679
 $$$318F       2 00002294 00000001     H   15725 15681B
 $$$321F       2 000022B4 00000001     H   15777 15767B
 $$$322S       2 000022D2 00000001     H   15808 15834B
 $$$323F       2 000022DE 00000001     H   15827 15817B
 $$$326B       4 00002398 00000001     I   16090 16103
 $$$326F       2 000023A0 00000001     H   16100 16090B 16102
 $$$327E       2 000023A4 00000001     H   16110 16104
 $$$327F       2 000023A8 00000001     H   16117 16106B
 $$$328B       4 000023C8 00000001     I   16135 16148
 $$$328F       2 000023D0 00000001     H   16145 16135B 16147
 $$$329E       2 000023D4 00000001     H   16155 16149
 $$$329F       2 0000241E 00000001     H   16219 16151B
 $$$33B        4 000000D8 00000001     I    4707  4720
 $$$33F        2 000000E0 00000001     H    4717  4707B  4719
 $$$330B       4 000023EC 00000001     I   16173 16186
 $$$330F       2 000023F4 00000001     H   16183 16173B 16185
 $$$331E       2 000023F8 00000001     H   16193 16187
 $$$331F       2 000023FC 00000001     H   16200 16189B
 $$$333B       4 000024A6 00000001     I   16458 16471
1FILECAT  (FILECA) (09:39) (22MAR04) Ordinary Symbol and Literal Cross Reference                                            Page  134
 $$$333F       2 000024AE 00000001     H   16468 16458B 16470
 $$$334E       2 000024B2 00000001     H   16478 16472
 $$$334F       2 000024B6 00000001     H   16485 16474B
 $$$335F       2 000024F2 00000001     H   16552 16503B
 $$$336B       4 000024DE 00000001     I   16520 16533
 $$$336F       2 000024E6 00000001     H   16530 16520B 16532
 $$$337E       2 000024EA 00000001     H   16540 16534
 $$$337F       2 000024EE 00000001     H   16547 16536B
 $$$338F       2 00002540 00000001     H   16702 16566B 16580B
 $$$34E        2 000000E4 00000001     H    4727  4721
 $$$34F        2 000000E8 00000001     H    4734  4723B
 $$$341        4 0000303E 00000001     I   16678 16670X
 $$$342        4 0000303E 00000001     I   16677 16678  16678
 $$$344F       2 00002562 00000001     H   16768 16758B
 $$$345B       4 00002572 00000001     I   16813 16940
 $$$345F       2 000025EA 00000001     H   16937 16813B 16939
 $$$349F       2 000025CC 00000001     H   16908 16894B
 $$$349S       2 000025A8 00000001     H   16887 16907B
 $$$35F        2 00000114 00000001     H    4762  4752B
 $$$351F       2 000025E0 00000001     H   16931 16921B
 $$$352E       2 000025EE 00000001     H   16947 16941
 $$$352F       2 00002652 00000001     H   17060 16943B
 $$$354B       4 000025FE 00000001     I   16986 17042
 $$$354F       2 00002644 00000001     H   17039 16986B 17041
 $$$356F       2 00002640 00000001     H   17034 17020B
 $$$356S       2 0000261C 00000001     H   17013 17033B
 $$$358E       2 00002648 00000001     H   17049 17043
 $$$358F       2 00002652 00000001     H   17056 17045B
 $$$359B       4 0000265C 00000001     I   17075 17088
 $$$359F       2 00002664 00000001     H   17085 17075B 17087
 $$$36B        4 00000132 00000001     I    4786  4799
 $$$36F        2 0000013A 00000001     H    4796  4786B  4798
 $$$360E       2 00002668 00000001     H   17095 17089
 $$$360F       2 0000266C 00000001     H   17102 17091B
 $$$361B       4 0000268E 00000001     I   17123 17136
 $$$361F       2 00002696 00000001     H   17133 17123B 17135
 $$$362E       2 0000269A 00000001     H   17143 17137
 $$$362F       2 0000269C 00000001     H   17153 17139B
 $$$364B       4 00002728 00000001     I   17422 17435
 $$$364F       2 00002730 00000001     H   17432 17422B 17434
 $$$365E       2 00002734 00000001     H   17442 17436
 $$$365F       2 00002738 00000001     H   17449 17438B
 $$$366F       2 00002764 00000001     H   17477 17467B
 $$$367F       2 00002798 00000001     H   17571 17491B 17505B
 $$$369B       4 000027AE 00000001     I   17589 17602
 $$$369F       2 000027B6 00000001     H   17599 17589B 17601
 $$$37E        2 0000013E 00000001     H    4806  4800
 $$$37F        2 00000142 00000001     H    4813  4802B
 $$$370E       2 000027BA 00000001     H   17609 17603
 $$$370F       2 000027BE 00000001     H   17616 17605B
 $$$371F       2 000027EA 00000001     H   17644 17634B
 $$$372F       2 0000283E 00000001     H   17786 17658B 17672B
 $$$375        4 00003042 00000001     I   17762 17754X
 $$$376        4 00003042 00000001     I   17761 17762  17762
 $$$378F       2 00002860 00000001     H   17852 17842B
 $$$379B       4 00002870 00000001     I   17897 18024
 $$$379F       2 000028E8 00000001     H   18021 17897B 18023
 $$$38B        4 0000016E 00000001     I    4849  4862
 $$$38E        2 0000016A 00000001     H    4840  4834
1FILECAT  (FILECA) (09:39) (22MAR04) Ordinary Symbol and Literal Cross Reference                                            Page  135
 $$$38F        2 00000176 00000001     H    4859  4836B  4849B  4861
 $$$383F       2 000028CA 00000001     H   17992 17978B
 $$$383S       2 000028A6 00000001     H   17971 17991B
 $$$385F       2 000028DE 00000001     H   18015 18005B
 $$$386E       2 000028EC 00000001     H   18031 18025
 $$$386F       2 00002950 00000001     H   18144 18027B
 $$$388B       4 000028FC 00000001     I   18070 18126
 $$$388F       2 00002942 00000001     H   18123 18070B 18125
 $$$390F       2 0000293E 00000001     H   18118 18104B
 $$$390S       2 0000291A 00000001     H   18097 18117B
 $$$392E       2 00002946 00000001     H   18133 18127
 $$$392F       2 00002950 00000001     H   18140 18129B
 $$$393B       4 0000295A 00000001     I   18159 18172
 $$$393F       2 00002962 00000001     H   18169 18159B 18171
 $$$394E       2 00002966 00000001     H   18179 18173
 $$$394F       2 0000296A 00000001     H   18186 18175B
 $$$395B       4 0000298C 00000001     I   18207 18220
 $$$395F       2 00002994 00000001     H   18217 18207B 18219
 $$$396E       2 00002998 00000001     H   18227 18221
 $$$396F       2 0000299A 00000001     H   18237 18223B
 $$$398B       4 000029E0 00000001     I   18396 18415
 $$$398F       2 000029EE 00000001     H   18412 18396B 18414
 $$$399E       2 000029F2 00000001     H   18422 18416
 $$$399F       2 000029F6 00000001     H   18429 18418B
 $$$40E        2 0000017A 00000001     H    4869  4863
 $$$40F        2 000001A8 00000001     H    4954  4865B
 $$$400F       2 00002A2C 00000001     H   18524 18464B 18514B
 $$$400S       2 00002A04 00000001     H   18457 18523B
 $$$402F       2 00002A24 00000001     H   18518 18481B
 $$$403F       2 00002A20 00000001     H   18511 18498B
 $$$405B       4 00002A62 00000001     I   18656 18676
 $$$405F       2 00002A76 00000001     H   18673 18656B 18675
 $$$406E       2 00002A7A 00000001     H   18683 18677
 $$$406F       2 00002A84 00000001     H   18690 18679B
 $$$407F       2 00002AC8 00000001     H   18782 18725B
 $$$407S       2 00002A9A 00000001     H   18718 18781B
 $$$409F       2 00002AB0 00000001     H   18752 18742B
 $$$410F       2 00002AC0 00000001     H   18776 18766B
 $$$412F       2 00002B5E 00000001     H   19034 18991B
 $$$413F       2 00002BD8 00000001     H   19180 19057B 19072B
 $$$415F       2 00002BCE 00000001     H   19169 19126B
 $$$416F       2 00002BFA 00000001     H   19244 19235B
 $$$417F       2 00002C56 00000001     H   19361 19318B
 $$$418F       2 00002C6C 00000001     H   19386 19374B
 $$$419F       2 00002CAA 00000001     H   19459 19416B
 $$$420F       2 00002D0C 00000001     H   19513 19504B
 $$$421F       2 00002D46 00000001     H   19591 19579B
 $$$422F       2 00002D8C 00000001     H   19661 19618B
 $$$423F       2 00002DA6 00000001     H   19695 19686B
 $$$424F       2 00002DDE 00000001     H   19778 19766B
 $$$425F       2 00002E34 00000001     H   19894 19834B
 $$$425T       2 00002DFA 00000001     H   19837 19810B 19823B
 $$$428B       4 00002E04 00000001     I   19852 19865
 $$$428F       2 00002E0C 00000001     H   19862 19852B 19864
 $$$429E       2 00002E10 00000001     H   19872 19866
 $$$429F       2 00002E14 00000001     H   19879 19868B
 $$$43B        4 000001BA 00000001     I    4978  4991
 $$$43F        2 000001C2 00000001     H    4988  4978B  4990
 $$$430F       2 00002E8C 00000001     H   19994 19906B
1FILECAT  (FILECA) (09:39) (22MAR04) Ordinary Symbol and Literal Cross Reference                                            Page  136
 $$$431F       2 00002E8C 00000001     H   19990 19936B
 $$$432B       4 00002E96 00000001     I   20010 20144
 $$$432F       2 00002EEA 00000001     H   20141 20010B 20143
 $$$433B       4 00002EA8 00000001     I   20035 20117
 $$$433F       2 00002EE2 00000001     H   20114 20035B 20116
 $$$434F       2 00002EE2 00000001     H   20110 20056B
 $$$435E       2 00002EE6 00000001     H   20124 20118
 $$$435F       2 00002EEA 00000001     H   20137 20120B
 $$$436E       2 00002EEE 00000001     H   20151 20145
 $$$436F       2 00002EF2 00000001     H   20167 20147B
 $$$437B       1 00002EFE 00000001     X   20219 20226U
 $$$438F       2 00002F14 00000001     H   20270 20261B
 $$$439F       2 00002F4E 00000001     H   20355 20343B
 $$$44E        2 000001C6 00000001     H    4998  4992
 $$$44F        2 000001CA 00000001     H    5005  4994B
 $$$440B       1 00002F56 00000001     X   20388 20395U
 $$$441B       4 00002F64 00000001     I   20430 20446
 $$$441F       2 00002F78 00000001     H   20443 20430B 20445
 $$$442E       2 00002F7C 00000001     H   20453 20447
 $$$442F       2 00002F80 00000001     H   20460 20449B
 $$$45F        2 000001F6 00000001     H    5033  5023B
 $$$47B        4 00000212 00000001     I    5074  5087
 $$$47F        2 0000021A 00000001     H    5084  5074B  5086
 $$$48E        2 0000021E 00000001     H    5094  5088
 $$$48F        2 00000222 00000001     H    5101  5090B
 $$$50B        4 0000026A 00000001     I    5155  5168
 $$$50F        2 00000272 00000001     H    5165  5155B  5167
 $$$51E        2 00000276 00000001     H    5175  5169
 $$$51F        2 0000027A 00000001     H    5182  5171B
 $$$52F        2 000002D0 00000001     H    5286  5274B
 $$$53B        4 00000300 00000001     I    5351  5364
 $$$53F        2 00000308 00000001     H    5361  5351B  5363
 $$$54E        2 0000030C 00000001     H    5371  5365
 $$$54F        2 00000310 00000001     H    5378  5367B
 $$$55B        4 0000033E 00000001     I    5405  5418
 $$$55F        2 00000346 00000001     H    5415  5405B  5417
 $$$56E        2 0000034A 00000001     H    5425  5419
 $$$56F        2 0000034E 00000001     H    5432  5421B
 $$$58F        2 000003C0 00000001     H    5544  5527B
 $$$58S        2 000003AC 00000001     H    5515  5540B
 $$$61B        4 000003CE 00000001     I    5559  5572
 $$$61F        2 000003D6 00000001     H    5569  5559B  5571
 $$$62E        2 000003DA 00000001     H    5579  5573
 $$$62F        2 000003DE 00000001     H    5586  5575B
 $$$64F        2 00000484 00000001     H    5838  5828B
 $$$65B        4 00000492 00000001     I    5853  5866
 $$$65F        2 0000049A 00000001     H    5863  5853B  5865
 $$$66E        2 0000049E 00000001     H    5873  5867
 $$$66F        2 000004A2 00000001     H    5880  5869B
 $$$68F        2 000004F4 00000001     H    5984  5918B
 $$$69F        2 00000504 00000001     H    6014  6004B
 $$$70B        4 00000512 00000001     I    6029  6042
 $$$70F        2 0000051A 00000001     H    6039  6029B  6041
 $$$71E        2 0000051E 00000001     H    6049  6043
 $$$71F        2 00000522 00000001     H    6056  6045B
 $$$73F        2 0000056A 00000001     H    6106  6097B
 $$$74B        4 0000056E 00000001     I    6118  6131
 $$$74F        2 00000576 00000001     H    6128  6118B  6130
 $$$75E        2 0000057A 00000001     H    6138  6132
1FILECAT  (FILECA) (09:39) (22MAR04) Ordinary Symbol and Literal Cross Reference                                            Page  137
 $$$75F        2 000005A2 00000001     H    6193  6134B
 $$$76F        2 00000604 00000001     H    6304  6207B  6219B
 $$$78F        2 00000604 00000001     H    6300  6238B
 $$$79B        4 000005D4 00000001     I    6258  6271
 $$$79F        2 000005DC 00000001     H    6268  6258B  6270
 $$$80E        2 000005E0 00000001     H    6278  6272
 $$$80F        2 000005E4 00000001     H    6285  6274B
 $$$82F        2 000006AA 00000001     H    6595  6585B
 $$$83B        4 000006B8 00000001     I    6610  6623
 $$$83F        2 000006C0 00000001     H    6620  6610B  6622
 $$$84E        2 000006C4 00000001     H    6630  6624
 $$$84F        2 000006C8 00000001     H    6637  6626B
 $$$85B        4 000006E8 00000001     I    6656  6819
 $$$85F        2 00000790 00000001     H    6815  6656B  6818
 $$$87B        4 00000706 00000001     I    6694  6707
 $$$87F        2 0000070E 00000001     H    6704  6694B  6706
 $$$88E        2 00000712 00000001     H    6714  6708
 $$$88F        2 00000716 00000001     H    6721  6710B
 $$$89F        2 00000742 00000001     H    6749  6739B
 $$$90B        4 00000760 00000001     I    6773  6786
 $$$90F        2 00000768 00000001     H    6783  6773B  6785
 $$$91E        2 0000076C 00000001     H    6793  6787
 $$$91F        2 00000770 00000001     H    6800  6789B
 $$$92E        2 00000794 00000001     H    6826  6820
 $$$92F        2 000007CA 00000001     H    6923  6822B  6835B
 $$$96B        4 000007DC 00000001     I    6948  6961
 $$$96F        2 000007E4 00000001     H    6958  6948B  6960
 $$$97E        2 000007E8 00000001     H    6968  6962
 $$$97F        2 000007EC 00000001     H    6975  6964B
 $$$98F        2 00000818 00000001     H    7003  6993B
 #FCALCNT      4 000000DC FFFFFFBF     F   11382 11530M 11614  11616M 11627M 11627  11709
 #FCALIS     224 00000000 FFFFFFBF     J   11389 11435U
 #FCALLOC      4 000000D4 FFFFFFBF     A   11380 11523M 11608  11611M
 #FCALMAX      4 000000D8 FFFFFFBF     F   11381 11531M 11708
 #FCALRQB    212 00000000 FFFFFFBF     C   11379 11470U
 #FCASACC    213 00000000 FFFFFFBD     J   17265 17312U
 #FCASFLG      1 000000D4 FFFFFFBD     R   17257 17567M 17724  17726M 17737  17761
 #FCASRQB    212 00000000 FFFFFFBD     C   17254 17320U
 #FCATINI    260 00000000 FFFFFFBB     J   18852 18899U
 #FCFLCNT      4 000000DC FFFFFFC0     F   10759 11106M 11190  11192M 11203M 11203  11285
 #FCFLIS     224 00000000 FFFFFFC0     J   10766 10812U
 #FCFLLOC      4 000000D4 FFFFFFC0     A   10757 11099M 11184  11187M
 #FCFLMAX      4 000000D8 FFFFFFC0     F   10758 11107M 11284
 #FCFLRQB    212 00000000 FFFFFFC0     C   10756 10847U
 #FCIRQBL    212 00000030 FFFFFFBB     C   18845 18921U
 #FCNFBLK      4 000000E0 FFFFFFC1     F    6411  7239M  7423M  7423   7602   8399M  8756
 #FCNFEXT      4 000000E4 FFFFFFC1     F    6412  8407M  8628   8757
 #FCNFHYB    128 000000E9 FFFFFFC1         6423  8365M  8387M  8704
 #FCNFLAG      1 000000E9 FFFFFFC1     R    6419  6423
 #FCNIXR     234 00000000 FFFFFFC1     J    6432  6479U  7880U
 #FCNPERM      1 000000E8 FFFFFFC1     R    6415  6897M  6911   8141M  8310   8312M  8326
 #FCNRQBL    212 00000000 FFFFFFC1     C    6409  6514U  7915U
 #FCNTOD       8 000000D8 FFFFFFC1     D    6410  7618M  7619   7620   9114M  9115
 #FCPERM     224 00000000 FFFFFFC2     J    4444  4491U  5721U
 #FCPRQBL    212 00000000 FFFFFFC2     C    4436  4527U  5757U
 #FCPTOD       8 000000D8 FFFFFFC2     D    4437  5496M  5497   5498   6224M  6237   6243
 #FCXFLG       1 000000D4 FFFFFFBE     R   16298 16642M 16653  16677
 #FCXRQBL    212 00000000 FFFFFFBE     C   16295 16361U
 #FCXTND     213 00000000 FFFFFFBE     J   16306 16353U
1FILECAT  (FILECA) (09:39) (22MAR04) Ordinary Symbol and Literal Cross Reference                                            Page  138
 #LOCGMEM      6 00000001 FFFFFFBC     C   18574 18698M 18699M 18765
 #LOCPERM      7 00000000 FFFFFFBC     J   18581 18629U
 #LOCPPRM      1 00000000 FFFFFFBC     X   18573 18661M 18685M 18748M 18772M 18787
 @FCACCNT      6 00000008 FFFFFFCB     C    3546  9375   9375   9816   9816  10198  10198  10534  10534  12321  12321
                                                 12701  12701
 @FCACFSB      4 00000000 FFFFFFCB     A    3544  9325   9766  10148  10484  12243  12623
 @FCACMOD     14 00000000 FFFFFFCB     J    3553  9289U  9296U  9730U  9737U 10112U 10119U 10448U 10455U 12233U 12240U
                                                 12613U 12620U
 @FCACSPA      4 00000004 FFFFFFCB     F    3545  9535   9542   9559M  9930  10284  10620  12441
 @FCAIABK      4 00000010 FFFFFFCE     A    3468 15181M
 @FCAIACC      6 00000004 FFFFFFCE     C    3466 15008  15008
 @FCAIFSB      4 00000000 FFFFFFCE     A    3465 14932
 @FCAINFO     24 00000000 FFFFFFCE     J    3476 14922U 14929U
 @FCAIUBK      4 00000014 FFFFFFCE     A    3469 15182M
 @FCAIUSE      6 0000000A FFFFFFCE     C    3467 15095M 15095  15144
 @FCALCNT      4 0000000C FFFFFFCC     A    3524 11710M
 @FCALFSB      4 00000000 FFFFFFCC     A    3521 11438
 @FCALIS      22 00000000 FFFFFFCC     J    3532 11428U 11435U
 @FCALLEN      4 00000008 FFFFFFCC     A    3523 11528
 @FCALLOC      4 00000004 FFFFFFCC     A    3522 11523
 @FCALNAM      6 00000010 FFFFFFCC     C    3525 11521  11521
 @FCASACC     58 00000000 FFFFFFD2     J    3352 17305U 17312U
 @FCASFLG      1 00000039 FFFFFFD2     R    3339  3343
 @FCASFM     128 00000039 FFFFFFD2         3343 17490  17657
 @FCASFSB      4 00000000 FFFFFFD2     A    3330 17322
 @FCASNAM     40 00000010 FFFFFFD2     C    3335 17401
 @FCASPRI      1 00000038 FFFFFFD2     X    3336 17349M 17751  17918  18016  18048  18069  18135
 @FCASUSE      6 0000000A FFFFFFD2     C    3332 17504  17553  17671  17710
 @FCASUSO      6 00000010 FFFFFFD2     C    3333 17504  17671
 @FCASUSR      6 00000004 FFFFFFD2     C    3331 17830  17841  17993  18004
 @FCDLETE     44 00000000 FFFFFFC8     J    3616 13306U 13313U
 @FCDLFSB      4 00000000 FFFFFFC8     A    3608 13316
 @FCDLNAM     40 00000004 FFFFFFC8     C    3609 13380
 @FCEPACC      6 00000004 FFFFFFCF     C    3445 16067  16067
 @FCEPFSB      4 00000000 FFFFFFCF     A    3444 15991
 @FCEPPUB      1 0000000A FFFFFFCF     X    3446 16157
 @FCEPUB      11 00000000 FFFFFFCF     J    3453 15981U 15988U
 @FCFFSB       4 00000000 FFFFFFD4     A    3289 14572
 @FCFINF      21 0000002C FFFFFFD4     C    3291 14816M
 @FCFINFO     65 00000000 FFFFFFD4     J    3298 14562U 14569U
 @FCFLCLP    128 00000010 FFFFFFCD         3498 10907
 @FCFLCNT      4 0000000C FFFFFFCD     A    3491 11286M
 @FCFLFLG      1 00000010 FFFFFFCD     R    3494  3498
 @FCFLFSB      4 00000000 FFFFFFCD     A    3488 10815
 @FCFLIS      63 00000000 FFFFFFCD     J    3509 10805U 10812U
 @FCFLLEN      4 00000008 FFFFFFCD     A    3490 11104
 @FCFLLOC      4 00000004 FFFFFFCD     A    3489 11099
 @FCFLNAM     40 00000017 FFFFFFCD     C    3502 10925
 @FCFLUSE      6 00000011 FFFFFFCD     C    3501 11013M 11013  11062
 @FCFNAM      40 00000004 FFFFFFD4     C    3290 14649
 @FCGPACC      6 00000019 FFFFFFD0     C    3424 15480  15480
 @FCGPCNT      4 0000000C FFFFFFD0     A    3400 15783M 15790
 @FCGPERM     71 00000000 FFFFFFD0     J    3432 15304U 15311U
 @FCGPFA      64 00000010 FFFFFFD0         3412 15552
 @FCGPFF     128 00000010 FFFFFFD0         3407 15399
 @FCGPFLG      1 00000010 FFFFFFD0     R    3403  3407   3412   3417
 @FCGPFM      32 00000010 FFFFFFD0         3417 15585
 @FCGPFSB      4 00000000 FFFFFFD0     A    3397 15314
 @FCGPLEN      4 00000008 FFFFFFD0     A    3399 15705M 15705  15766  15773
1FILECAT  (FILECA) (09:39) (22MAR04) Ordinary Symbol and Literal Cross Reference                                            Page  139
 @FCGPLOC      4 00000004 FFFFFFD0     A    3398 15785  15789
 @FCGPMS       1 00000012 FFFFFFD0     X    3421 15690M
 @FCGPNAM     40 0000001F FFFFFFD0     C    3425 15406
 @FCGPPP       1 00000011 FFFFFFD0     X    3420 15670M 15689M
 @FCGPUSE      6 00000013 FFFFFFD0     C    3423 15634
 @FCNACC       6 0000000D FFFFFFD5     C    3269  6883   8127   8296
 @FCNBLKC      4 00000004 FFFFFFD5     A    3253  7095   7202   7302   7435   7603   8441M  8441   8516   8627   8676M
                                                  8676   8682M  8755   8824M  8888   9111
 @FCNFHYB     64 0000000C FFFFFFD5         3266  7251   7644
 @FCNFLAG      1 0000000C FFFFFFD5     R    3257  3261   3266
 @FCNFMAG    128 0000000C FFFFFFD5         3261  6584   6671   6834   7985   8078   8165   8257
 @FCNFSB       4 00000000 FFFFFFD5     A    3252  6482   7883
 @FCNIXR      59 00000000 FFFFFFD5     J    3277  6472U  6479U  7873U  7880U
 @FCNNAME     40 00000013 FFFFFFD5     C    3270  6566   7967
 @FCPACC       6 0000000D FFFFFFD6     C    3229  4914   5966   6173
 @FCPBLK       4 00000004 FFFFFFD6     A    3213  5287M  5499   6085M
 @FCPBLKC      4 00000008 FFFFFFD6     A    3214  6102M
 @FCPCODE      1 0000003D FFFFFFD6     X    3233  6084M
 @FCPERM      62 00000000 FFFFFFD6     J    3240  4484U  4491U  5714U  5721U
 @FCPFLAG      1 0000000C FFFFFFD6     R    3217  3221   3226
 @FCPFLGO      1 0000003B FFFFFFD6     X    3231  5195M  6086M
 @FCPFMAG    128 0000000C FFFFFFD6         3221  4597   4684   4848   5827   5917   6003   6117
 @FCPFNAX     64 0000000C FFFFFFD6         3226  6218
 @FCPFSB       4 00000000 FFFFFFD6     A    3212  4495   5725
 @FCPNAME     40 00000013 FFFFFFD6     C    3230  4579   5809
 @FCPPERM      1 0000003C FFFFFFD6     X    3232  4825M  4855M  4928M  4942   5980M  6124M  6187   6189M
 @FCRNAME     77 00000000 FFFFFFC9     J    3596 12964U 12971U
 @FCRNAM1     40 00000004 FFFFFFC9     C    3588 13038
 @FCRNAM2     33 0000002C FFFFFFC9     C    3589 13040  13040
 @FCRNFSB      4 00000000 FFFFFFC9     A    3587 12974
 @FCS1FSB      4 00000000 FFFFFFCA     A    3565 11843
 @FCS1LEN      4 00000008 FFFFFFCA     A    3567 12109  12116
 @FCS1LOC      4 00000004 FFFFFFCA     A    3566 12121
 @FCS1NAM     40 0000000C FFFFFFCA     C    3568 11920
 @FCS111      52 00000000 FFFFFFCA     J    3575 11833U 11840U
 @FCUIBLK      4 00000030 FFFFFFC7     F    3631 14311  14341
 @FCUICLO     16 00000039 FFFFFFC7         3688 14154
 @FCUICLP     32 00000039 FFFFFFC7         3683 14139
 @FCUICNT      4 00000034 FFFFFFC7     F    3632 14312
 @FCUIFLG      1 00000038 FFFFFFC7     R    3635  3639   3644   3649   3654   3659   3664
 @FCUIFL2      1 00000039 FFFFFFC7     R    3669  3673   3678   3683   3688   3693   3698   3703   3708
 @FCUIFRM     64 00000038 FFFFFFC7         3644 13863
 @FCUIFSB      4 00000000 FFFFFFC7     A    3628 13618
 @FCUIHYB      2 00000039 FFFFFFC7         3703 14293
 @FCUINAM     40 00000004 FFFFFFC7     C    3629 13695
 @FCUINCL    128 00000039 FFFFFFC7         3673 14062
 @FCUINCO     64 00000039 FFFFFFC7         3678 14077
 @FCUINEW      1 00000039 FFFFFFC7         3708 14335
 @FCUINF       4 0000002C FFFFFFC7     C    3630 13853  13931M 13932  13961M 13962
 @FCUINFO     58 00000000 FFFFFFC7     J    3717 13608U 13615U
 @FCUIOWN     32 00000038 FFFFFFC7         3649 13925
 @FCUIPUB     16 00000038 FFFFFFC7         3654 13955
 @FCUISHO      4 00000038 FFFFFFC7         3664 14000
 @FCUISHR      8 00000038 FFFFFFC7         3659 13985
 @FCUISPI      8 00000039 FFFFFFC7         3693 14216
 @FCUISPO      4 00000039 FFFFFFC7         3698 14231
 @FCUIUIN    128 00000038 FFFFFFC7         3639 13847
 @FCXFLG       1 00000017 FFFFFFD1     R    3372  3376
 @FCXFM      128 00000017 FFFFFFD1         3376 16565
1FILECAT  (FILECA) (09:39) (22MAR04) Ordinary Symbol and Literal Cross Reference                                            Page  140
 @FCXFSB       4 00000000 FFFFFFD1     A    3364 16363
 @FCXPRI       1 00000016 FFFFFFD1     X    3369 16390M 16667  16834  16932  16964  16985  17051
 @FCXTND      24 00000000 FFFFFFD1     J    3385 16346U 16353U
 @FCXUSE       6 00000010 FFFFFFD1     C    3367 16579  16628
 @FCXUSO       6 0000000A FFFFFFD1     C    3366 16441  16441  16579
 @FCXUSR       6 00000004 FFFFFFD1     C    3365 16746  16757  16909  16920
 @FDOBLK       4 00000004 FFFFFFE5     A    1784 19284M 19284  19541M 19728M 20305M 20488M
 @FDODATA      4 00000008 FFFFFFE5     A    1785 19294M 19551M 19738M 20315M 20498M
 @FDODATL      2 0000000C FFFFFFE5     H    1786 19299M 19556M 19743M 20320M 20503M
 @FDOFLAG      1 0000000F FFFFFFE5     R    1790  1794   1799   1804   1809   1814   1819
 @FDOFR      128 0000000F FFFFFFE5         1794 19305M 19562M 19749M 20326M
 @FDOFSB       4 00000000 FFFFFFE5     A    1783 19277M 19536M 19718M 20300M 20483M
 @FDOFW       64 0000000F FFFFFFE5         1799 20509M
 @FDOIODO     16 00000000 FFFFFFE5     J    1828 19258U 19266M 19266  19525M 19525  19707M 19707  20281U 20289M 20289
                                                 20472M 20472
 @FDOTYPE      1 0000000E FFFFFFE5     X    1787 19317  20510M
 @FILFLAG      1 00000024 FFFFFFEA     R    1610  1614   1619   1624   1629
 @FMFIFLG      1 00000009 FFFFFFE9     R    1661  1665   1670   1675   1680   1685   1690
 @FMFSB        5 00000000 FFFFFFE6     J    1771  7215U  7223M  7223   8641U  8649M  8649  18892U 18899U
 @FMFSBF       1 00000004 FFFFFFE6     R    1758  1762
 @FMFSBP       4 00000000 FFFFFFE6     A    1755  7234M  8660M 18902
 @FMIXBLK      4 0000002C FFFFFFD7     F    3191  5287   7301M  8754M  8756M
 @FMIXCNT      4 00000030 FFFFFFD7     F    3192  7302M  8755M
 @FMIXEXT      4 00000034 FFFFFFD7     F    3193  8757M
 @FMIXFSB      4 00000000 FFFFFFD7     A    3189  5259M  7299M  8752M
 @FMIXNAM     40 00000004 FFFFFFD7     C    3190  5260M  7300M  8753M
 @FMIXRAD     56 00000000 FFFFFFD7     J    3200  5240U  5248M  5248   7280U  7288M  7288   8733U  8741M  8741
 @GRCID        4 00000000 FFFFFFDD     A    2293 19215M
 @GRES         9 00000000 FFFFFFDD     J    2322  4539U  4547M  4547   5210U  5218M  5218   5302U  5310M  5310   5612M
                                                  5612   5769U  5777M  5777   6327U  6335M  6335   6526U  6534M  6534
                                                  7184U  7192M  7192   7324U  7332M  7332   7766M  7766   7927U  7935M
                                                  7935   8609U  8617M  8617   8780U  8788M  8788   9185M  9185   9336U
                                                  9344M  9344   9640M  9640   9777U  9785M  9785  10022M 10022  10159U
                                                 10167M 10167  10358M 10358  10495U 10503M 10503  10694M 10694  10860U
                                                 10868M 10868  11309U 11317M 11317  11483U 11491M 11491  11730M 11730
                                                 11881U 11889M 11889  12143M 12143  12281U 12289M 12289  12523M 12523
                                                 12661U 12669M 12669  12874M 12874  12999U 13007M 13007  13221M 13221
                                                 13341U 13349M 13349  13523M 13523  13656U 13664M 13664  14471M 14471
                                                 14610U 14618M 14618  14828M 14828  14969U 14977M 14977  15205U 15213M
                                                 15213  15351U 15359M 15359  15860U 15868M 15868  16028U 16036M 16036
                                                 16232M 16232  16402U 16410M 16410  17170U 17178M 17178  17361U 17369M
                                                 17369  18254U 18262M 18262  19197U 19205M 19205
 @GREXCL      64 00000008 FFFFFFDD         2307  4564M  5327M  5794M  6551M  7349M  7952M  8805M  9361M  9802M 10184M
                                                 10520M 10885M 11508M 11906M 12306M 12686M 13024M 13366M 13681M 14635M
                                                 14994M 15376M 16053M 16427M 17386M
 @GRFLAG       1 00000008 FFFFFFDD     R    2298  2302   2307   2312
 @GRID         4 00000004 FFFFFFDD     A    2294  4552M  5223M  5315M  5617M  5782M  6340M  6539M  7197M  7337M  7771M
                                                  7940M  8622M  8793M  9190M  9349M  9645M  9790M 10027M 10172M 10363M
                                                 10508M 10699M 10873M 11322M 11496M 11735M 11894M 12148M 12294M 12528M
                                                 12674M 12879M 13012M 13226M 13354M 13528M 13669M 14476M 14623M 14833M
                                                 14982M 15218M 15364M 15873M 16041M 16237M 16415M 17183M 17374M 18267M
 @GRWAIT     128 00000008 FFFFFFDD         2302  4558M  5321M  5788M  6545M  7343M  7946M  8799M  9355M  9796M 10178M
                                                 10514M 10879M 11502M 11900M 12300M 12680M 13018M 13360M 13675M 14629M
                                                 14988M 15370M 16047M 16421M 17380M
 @LOCACC       6 00000004 FFFFFFC3     C    4314  4914M  5966M  6173M  6883M  8127M  8296M 11062M 15144M 15634M 16628M
                                                 17553M 17710M 18698  18741
 @LOCFA       64 0000000A FFFFFFC3         4326  4920M  5972M  6889M  8133M 11068M 15150M 15640M 16634M 17559M
 @LOCFF      128 0000000A FFFFFFC3         4321  6179M  8302M 17716M 18655
 @LOCFLG       1 0000000A FFFFFFC3     R    4317  4321   4326
1FILECAT  (FILECA) (09:39) (22MAR04) Ordinary Symbol and Literal Cross Reference                                            Page  141
 @LOCMEMA      6 00000008 FFFFFFC4     C    4280 16746M 16764M 17830M 17848M 18480  18497
 @LOCMEME     15 00000000 FFFFFFC4     J    4301 16716U 16724M 16724  17800U 17808M 17808  18367U
 @LOCMEMF      1 0000000E FFFFFFC4     R    4283  4287   4292
 @LOCMEMN      4 00000000 FFFFFFC4     A    4278 16741M 17825M 18372
 @LOCMEMP      4 00000004 FFFFFFC4     A    4279 16803  17887  18525M
 @LOCMFA      64 0000000E FFFFFFC4         4292 16774M
 @LOCMFF     128 0000000E FFFFFFC4         4287 17858M 18395
 @LOCNTRY      4 00000000 FFFFFFC3     A    4313  4909M  5961M  6168M  6878M  8122M  8291M 11057M 15139M 15629M 16623M
                                                 17548M 17705M 18632
 @LOCPERM     11 00000000 FFFFFFC3     J    4335  4884U  4892M  4892   5936U  5944M  5944   6151M  6151   6853U  6861M
                                                  6861   8097U  8105M  8105   8274M  8274  11032U 11040M 11040  15114U
                                                 15122M 15122  15604U 15612M 15612  16598U 16606M 16606  17523U 17531M
                                                 17531  17688M 17688  18622U 18629U
 @M1FLAG       1 00000025 FFFFFFEC     R    1443  1447   1452   1457
 @M1FR14       4 00000000 FFFFFFEC     A    1426  1430   1430
 @M1FTYPE      1 00000028 FFFFFFEC     R    1467  1476   1486   1496   1506   1516   1526   1536   1546
 @RK           0 00000000 FFFFFFF9     @    1071 18934
 @RN           0 00000000 FFFFFFF5     @    1119 19486M 19487M 19488M
 @RS           0 00000000 FFFFFFFD     @    1023  5139
 @R0           0 00000000 FFFFFFFE     @     715   991U  9476U  9917U 14389U 14808U 19028U 19163U 19355U 19453U 19655U
 @R1           0 00000000 FFFFFFFD     @     728   987U
 @R10          0 00000000 FFFFFFF4     @     845   951U  5656U  6367U  7810U  9217U  9672U 10054U 10390U 10726U 11349U
                                                 11762U 12175U 12555U 12906U 13248U 13550U 14504U 14864U 15246U 15906U
                                                 16265U 17224U 18308U 18547U 18809U 20192U 20377U 20536U
 @R11          0 00000000 FFFFFFF3     @     858   947U
 @R12          0 00000000 FFFFFFF2     @     871   943U  5651U  6362U  7805U  9212U  9667U 10049U 10385U 10721U 11344U
                                                 11757U 12170U 12550U 12901U 13243U 13545U 14499U 14859U 15241U 15901U
                                                 16260U 17219U 18303U 18542U 18804U 20187U
 @R13          0 00000000 FFFFFFF1     @     884   939U  4881U  5207U  5237U  5299U  5667U  5933U  6324U  6378U  6850U
                                                  7181U  7212U  7277U  7321U  7821U  8094U  8606U  8638U  8730U  8777U
                                                  9228U  9683U 10065U 10401U 10737U 11029U 11306U 11360U 11773U 12186U
                                                 12566U 12917U 13259U 13561U 14515U 14875U 15111U 15202U 15257U 15601U
                                                 15857U 15917U 16276U 16595U 16713U 17167U 17235U 17520U 17797U 18251U
                                                 18319U 19194U 19255U 20203U
 @R14          0 00000000 FFFFFFF0     @     897   935U  5524   5533   7677   7686  11185M 11186  11609M 11610  15720U
                                                 16668U 17752U 18407U 18532U 18668U 18794U 19471U 19669U 20174U
 @R15          0 00000000 FFFFFFEF     @     910   931U  5534   5545   7687   7698  16850  17934  19617  19966U 20087U
 @R2           0 00000000 FFFFFFFC     @     741   983U
 @R3           0 00000000 FFFFFFFB     @     754   979U  5646U  6357U  7800U  9207U  9662U 10044U 10380U 10716U 11339U
                                                 11752U 12165U 12545U 12896U 13238U 13540U 14494U 14854U 15236U 15896U
                                                 16255U 17214U 18298U 20182U
 @R4           0 00000000 FFFFFFFA     @     767   975U  5468U  5633U  5641U  6352U  7595U  7787U  7795U  9202U  9657U
                                                 10039U 10375U 10711U 11334U 11747U 12160U 12540U 12891U 14489U 14849U
                                                 15231U 15891U 16250U 17209U 18293U
 @R5           0 00000000 FFFFFFF9     @     780   971U 20365U 20524U
 @R6           0 00000000 FFFFFFF8     @     793   967U
 @R7           0 00000000 FFFFFFF7     @     806   963U 20371U 20530U
 @R8           0 00000000 FFFFFFF6     @     819   959U 15886U 17204U 18288U
 @R9           0 00000000 FFFFFFF5     @     832   955U 18537U 18799U
 @VMGET       11 00000000 FFFFFFE2     J    2106 18952U 18960M 18960  19095M 19095
 @VMGFLG       1 0000000A FFFFFFE2     R    2088  2092   2097
 @VMGLEN       4 00000000 FFFFFFE2     A    2083 18970M 19105M
 @VMGPAGE    128 0000000A FFFFFFE2         2092 18977M 19112M
 @VMGPOOL      2 00000008 FFFFFFE2     H    2085 18971M 19106M
 ACCMODE       1 00000000 00000001 A   U    1922  4609   4693   5060   5337   5839   6596   6680   7030   7359   7997
                                                  8451   8829   8975   9380   9821  10203  10539  10932  11533  11927
                                                 12322  12702  13046  13386  13701  14655  15009  15411  15481  16076
                                                 16444  17408
 BITAVAIL      1 7FFFFF00 00000001 A   U    1934 20555
1FILECAT  (FILECA) (09:39) (22MAR04) Ordinary Symbol and Literal Cross Reference                                            Page  142
 BL            2 00000002 FFFFFFDC A   N    2506  2508   2508   2884   2886   2895   3756   3791   3792   3794   3795
                                                  3796   3895   3905   3915   3925   3936   3946   3956   3966   3976
                                                  3986   3996   4036   4037   4038   4055   4057   4059   4065   4067
                                                  4069   4075   4077   4078   4080   4082   4088   4090   4091   4093
                                                  4095   4097   4102   4104   4105   4107   4109   4111   4118   4121
                                                  4122   4123   4125   4126   4129   4131   4132   4140   4143   4144
                                                  4145   4147   4148   4151   4153   4154   4157   4159   4166   4169
                                                  4170   4171   4173   4174   4177   4179   4180   4183   4185   4186
                                                  4188   4202   4219   4222
 BR           10 0000000A FFFFFFFF A   #    1136  4458M  4468U  4654   4655M  4657   4658M  4738   4739M  4741   4742M
                                                  4817   4818M  4820   4821M  5009   5010M  5012   5013M  5105   5106M
                                                  5108   5109M  5186   5187M  5189   5190M  5382   5383M  5385   5386M
                                                  5436   5437M  5439   5440M  5590   5591M  5593   5594M  5688M  5698U
                                                  5884   5885M  5887   5888M  6060   6061M  6063   6064M  6289   6290M
                                                  6292   6293M  6446M  6456U  6641   6642M  6644   6645M  6725   6726M
                                                  6728   6729M  6804   6805M  6807   6808M  6979   6980M  6982   6983M
                                                  7075   7076M  7078   7079M  7162   7163M  7165   7166M  7404   7405M
                                                  7407   7408M  7503   7504M  7506   7507M  7563   7564M  7566   7567M
                                                  7743   7744M  7746   7747M  7847M  7857U  8042   8043M  8045   8046M
                                                  8222   8223M  8225   8226M  8496   8497M  8499   8500M  8583   8584M
                                                  8586   8587M  8874   8875M  8877   8878M  8956   8957M  8959   8960M
                                                  9020   9021M  9023   9024M  9078   9079M  9081   9082M  9162   9163M
                                                  9165   9166M  9263M  9273U  9425   9426M  9428   9429M  9612   9613M
                                                  9615   9616M  9704M  9714U  9866   9867M  9869   9870M  9998   9999M
                                                 10001  10002M 10086M 10096U 10248  10249M 10251  10252M 10330  10331M
                                                 10333  10334M 10422M 10432U 10584  10585M 10587  10588M 10666  10667M
                                                 10669  10670M 10779M 10789U 10977  10978M 10980  10981M 11154  11155M
                                                 11157  11158M 11256  11257M 11259  11260M 11402M 11412U 11578  11579M
                                                 11581  11582M 11680  11681M 11683  11684M 11807M 11817U 11972  11973M
                                                 11975  11976M 12062  12063M 12065  12066M 12207M 12217U 12367  12368M
                                                 12370  12371M 12495  12496M 12498  12499M 12587M 12597U 12747  12748M
                                                 12750  12751M 12938M 12948U 13091  13092M 13094  13095M 13144  13145M
                                                 13147  13148M 13280M 13290U 13431  13432M 13434  13435M 13484  13485M
                                                 13487  13488M 13582M 13592U 13746  13747M 13749  13750M 13814  13815M
                                                 13817  13818M 14442  14443M 14445  14446M 14536M 14546U 14700  14701M
                                                 14703  14704M 14757  14758M 14760  14761M 14896M 14906U 15059  15060M
                                                 15062  15063M 15278M 15288U 15456  15457M 15459  15460M 15535  15536M
                                                 15538  15539M 15955M 15965U 16121  16122M 16124  16125M 16204  16205M
                                                 16207  16208M 16320M 16330U 16489  16490M 16492  16493M 17106  17107M
                                                 17109  17110M 17279M 17289U 17453  17454M 17456  17457M 17620  17621M
                                                 17623  17624M 18190  18191M 18193  18194M 18341M 18351U 18596M 18606U
                                                 18866M 18876U 19883  19884M 19886  19887M
 BRR          11 0000000B FFFFFFFF A   #    1148  4654M  4658   4738M  4742   4817M  4821   5009M  5013   5105M  5109
                                                  5186M  5190   5382M  5386   5436M  5440   5590M  5594   5884M  5888
                                                  6060M  6064   6289M  6293   6641M  6645   6725M  6729   6804M  6808
                                                  6979M  6983   7075M  7079   7162M  7166   7404M  7408   7503M  7507
                                                  7563M  7567   7743M  7747   8042M  8046   8222M  8226   8496M  8500
                                                  8583M  8587   8874M  8878   8956M  8960   9020M  9024   9078M  9082
                                                  9162M  9166   9425M  9429   9612M  9616   9866M  9870   9998M 10002
                                                 10248M 10252  10330M 10334  10584M 10588  10666M 10670  10977M 10981
                                                 11154M 11158  11256M 11260  11578M 11582  11680M 11684  11972M 11976
                                                 12062M 12066  12367M 12371  12495M 12499  12747M 12751  13091M 13095
                                                 13144M 13148  13431M 13435  13484M 13488  13746M 13750  13814M 13818
                                                 14442M 14446  14700M 14704  14757M 14761  15059M 15063  15456M 15460
                                                 15535M 15539  16121M 16125  16204M 16208  16489M 16493  17106M 17110
                                                 17453M 17457  17620M 17624  18190M 18194  19883M 19887
 CCAT0PCT      1 0000000A FFFFFFDC A   U    2489 20562
 CCAT1MIN      1 0000003C FFFFFFDC A   U    2492 20563
 CCHKSTK       1 00000007 FFFFFFC5 A   U    3787  4259
1FILECAT  (FILECA) (09:39) (22MAR04) Ordinary Symbol and Literal Cross Reference                                            Page  143
 CFSBBL        1 00000004 FFFFFFDC A   U    2621 19486  19487M 19488M
 CFSBFLSZ      1 00000028 FFFFFFDC A   U    2499  2839   2840   3190   3230   3270   3290   3335   3425   3502   3568
                                                  3588   3609   3629
 CFSBMXNT      1 00000129 FFFFFFDC A   U    2504  2878   2878   4252  20548
 CFSBNDOT      1 00000026 FFFFFFDC A   U    2500  4024   4027   4206   4240   4243
 CFSBNMSZ      1 00000021 FFFFFFDC A   U    2501  2880   3589
 CFSBPL        8 00000008 FFFFFFDC A   N    2622 19477  20561
 CHKFBNO       2 0000000E FFFFFFC5     R    3794  3798   3798  19935  20009  20034
 CHKFLG        1 0000001C FFFFFFC5     R    3806  3810   3815   3820   3825   3830   3835   3840   3845
 CHKFLG2       1 0000001D FFFFFFC5     R    3850  3854   3859   3864   3869   3874   3879   3884
 CHKFNAME     38 000000C5 FFFFFFC5     C    4024  4025   4025
 CHKFNMSZ      1 000000C4 FFFFFFC5     X    4023  4025   4025
 CHKFREB       2 00000010 FFFFFFC5     R    3795  3797   3797
 CHKFRNAM     38 000000EC FFFFFFC5     C    4027  4028   4028
 CHKFRNMS      1 000000EB FFFFFFC5     X    4026  4028   4028
 CHKIERFL      1 000001A2 FFFFFFC5     R    4227  4231   4236
 CHKIERNN     38 000001CB FFFFFFC5     C    4243  4244   4244
 CHKIERNS      1 000001CA FFFFFFC5     X    4242  4244   4244
 CHKIERON     38 000001A4 FFFFFFC5     C    4240  4241   4241
 CHKIEROS      1 000001A3 FFFFFFC5     X    4239  4241   4241
 CHKIFBNO      2 00000114 FFFFFFC5     R    4036  4039   4039
 CHKISTRT      2 00000112 FFFFFFC5     H    4033  4193   4193   4209   4209   4247   4247
 CHKITYPE      1 00000112 FFFFFFC5     X    4034 19807
 CHKIVAR       1 0000011A FFFFFFC5     X    4040  4043   4048   4053   4063   4073   4086   4100   4116   4138   4164
                                                  4192   4192
 CHKI2TYP      1 00000154 FFFFFFC5     X    4196 19820
 CHKI2VAR      1 00000156 FFFFFFC5     X    4198  4208   4208
 CHKI3TYP      1 00000194 FFFFFFC5     X    4212 19833
 CHKI3VAR      1 00000196 FFFFFFC5     X    4214  4246   4246
 CHKPNT     1600 00000000 FFFFFFC5     J    4266 19603U 19609  19790U
 CHKPT         1 00000020 FFFFFFC5     X    3889  3930   3930   4001   4001
 CHKROOTB      2 0000000A FFFFFFC5     R    3792 19662
 CHKSFLG       1 0000001C FFFFFFC5     X    3803  3887   3887
 CHKSTFLG      1 00000006 FFFFFFC6     R    3761  3765
 CHKTIME       8 00000000 FFFFFFC5     D    3790 19617
 CHK0723       1 00000020 FFFFFFC5     X    3892  3898   3898
 CHK0724       1 00000028 FFFFFFC5     X    3902  3908   3908
 CHK0725       1 00000030 FFFFFFC5     X    3912  3918   3918
 CHK0726       1 00000038 FFFFFFC5     X    3922  3928   3928
 CHK0727       1 00000040 FFFFFFC5     X    3933  3939   3939
 CHK0728       1 00000048 FFFFFFC5     X    3943  3949   3949
 CHK0729       1 00000050 FFFFFFC5     X    3953  3959   3959
 CHK0730       1 00000058 FFFFFFC5     X    3963  3969   3969
 CHK0731       1 00000060 FFFFFFC5     X    3973  3979   3979
 CHK0732       1 00000068 FFFFFFC5     X    3983  3989   3989
 CHK0733       1 00000070 FFFFFFC5     X    3993  3999   3999
 CNTAMXL       1 00000108 FFFFFFDA A   U    2876  2878
 CNTAMXSZ      1 00000005 FFFFFFDA A   U    2879  2892
 CNTFMXL       1 00000129 FFFFFFDA A   U    2877  2878
 CTBITRCT      8 00000150 FFFFFFDC     D    2702  2712
 CTCACHCT      8 000001A0 FFFFFFDC     D    2731  2741
 CTCATRCT      8 00000148 FFFFFFDC     D    2701  2711
 CTIXRRCT      8 00000158 FFFFFFDC     D    2703  2713
 CTMASRCT      8 00000140 FFFFFFDC     D    2700  2710
 CTOTHRCT      8 00000168 FFFFFFDC     D    2705  2715
 CTREADCT      8 00000140 FFFFFFDC     D    2699  2710   2711   2712   2713   2714   2715   2739   2744   2744   2745
                                                  2745
 CTUSERCT      8 00000160 FFFFFFDC     D    2704  2714
 CTWRITCT      8 00000170 FFFFFFDC     D    2719  2740
1FILECAT  (FILECA) (09:39) (22MAR04) Ordinary Symbol and Literal Cross Reference                                            Page  144
 DIRDELAC      1 0000000C 00000001 A   U    1887 15928
 DIRDUPER      1 00000008 00000001 A   U    1884 15926
 DIRNFER       1 00000004 00000001 A   U    1881 15927  20545
 DIRNMR        1 0000001C 00000001 A   U    1899 15929
 EPAR         15 0000000F FFFFFFFF A   #    1196  4458   4567M  4568B  4926M  4927B  5226M  5227B  5263M  5264B  5330M
                                                  5331B  5620M  5621B  5688   5797M  5798B  5978M  5979B  6185M  6186B
                                                  6343M  6344B  6446   6554M  6555B  6895M  6896B  7200M  7201B  7237M
                                                  7238B  7305M  7306B  7352M  7353B  7774M  7775B  7847   7955M  7956B
                                                  8139M  8140B  8308M  8309B  8625M  8626B  8663M  8664B  8760M  8761B
                                                  8808M  8809B  9193M  9194B  9263   9364M  9365B  9648M  9649B  9704
                                                  9805M  9806B 10030M 10031B 10086  10187M 10188B 10366M 10367B 10422
                                                 10523M 10524B 10702M 10703B 10779  10888M 10889B 11074M 11075B 11325M
                                                 11326B 11402  11511M 11512B 11738M 11739B 11807  11909M 11910B 12151M
                                                 12152B 12207  12309M 12310B 12531M 12532B 12587  12689M 12690B 12882M
                                                 12883B 12938  13027M 13028B 13229M 13230B 13280  13369M 13370B 13531M
                                                 13532B 13582  13684M 13685B 14479M 14480B 14536  14638M 14639B 14836M
                                                 14837B 14896  14997M 14998B 15156M 15157B 15221M 15222B 15278  15379M
                                                 15380B 15646M 15647B 15876M 15877B 15955  16056M 16057B 16240M 16241B
                                                 16320  16430M 16431B 16640M 16641B 16780M 16781B 17186M 17187B 17279
                                                 17389M 17390B 17565M 17566B 17722M 17723B 17864M 17865B 18270M 18271B
                                                 18341  18596  18866  18980M 18981B 19115M 19116B 19218M 19219B 19308M
                                                 19309B 19565M 19566B 19752M 19753B 20329M 20330B 20513M 20514B
 FAC           1 00000008 00000001 A   U    2779  3165
 FAO           1 00000002 00000001 A   U    2777  2932   3015   3055   3156
 FBHDR        20 00000000 FFFFFFDF     J    2191  2183
 FBHTBICA      1 000000C0 FFFFFFDF A   U    2176  2177
 FBHTBIT       1 00000040 FFFFFFDF A   U    2169  2176
 FBHTCAT       1 00000080 FFFFFFDF A   U    2168  2176  20510
 FBHTFSMB      1 000000FF FFFFFFDF A   U    2167 19317
 FBHTIXR       1 00000008 FFFFFFDF A   U    2171  2175
 FBHTIXRT      1 0000001E FFFFFFDF A   U    2175  2177
 FBHTMIXR      1 00000002 FFFFFFDF A   U    2173  2175
 FBHTSIXR      1 00000004 FFFFFFDF A   U    2172  2175
 FBHTZIXR      1 00000010 FFFFFFDF A   U    2170  2175
 FBITEXTN      1 00000000 00000008     T    9240  9240
 FBITGCON      1 00000000 00000006     T    9238  9238
 FCATAADD      4 00001888 00000001     I   12206 12201  12217U
 FCATADEL      4 000019AA 00000001     I   12586 12581  12597U
 FCATAINF      4 00002042 00000001     I   14895 14890  14906U
 FCATAINX      2 00002114 00000001     H   15191 15079B 15170B
 FCATALIS      4 000015F2 00000001     I   11401 11396  11412U
 FCATALIX      2 00001704 00000001     H   11718 11595B
 FCATASAC      4 000026C6 00000001     I   17278 17273  17289U
 FCATASAX      2 0000299A 00000001     H   18240 17473B 17640B 17740B 17777B 17921B 17950B 18051B
 FCATDLET      4 00001BA6 00000001     I   13279 13274  13290U
 FCATEPUB      4 00002342 00000001     I   15954 15949  15965U
 FCATFINF      4 00001F14 00000001     I   14535 14530  14546U
 FCATFLIS      4 00001424 00000001     I   10778 10773  10789U
 FCATFLIX      2 000015C8 00000001     H   11295 10997B 11088B 11171B
 FCATGPRM      4 0000213E 00000001     I   15277 15272  15288U
 FCATGPRX      2 000022E8 00000001     H   15846 15570B 15660B 15708B 15749B
 FCATGSPA      4 00000F98 00000001     I    9262  9257   9273U
 FCATINIT      4 00002AE4 00000001     I   18865 18860  18876U
 FCATMSPA      4 00001324 00000001     I   10421 10416  10432U
 FCATNIEX      2 00000F44 00000001     H    9172  8063B  8242B  8329B  8353B  8425B  8530B  8965B  9099B
 FCATNIXE      4 00000AE0 00000001     I    7846  7841   7857U
 FCATNIXR      4 00000650 00000001     I    6445  6440   6456U
 FCATNIXX      2 00000AB4 00000001     H    7753  6674B  6745B  6914B  6999B  7020B  7109B  7512B  7579B
 FCATNPRM      4 00000022 00000001     I    4457  4452   4468U
1FILECAT  (FILECA) (09:39) (22MAR04) Ordinary Symbol and Literal Cross Reference                                            Page  145
 FCATNPRX      2 000003FE 00000001     H    5599  4687B  4758B  4945B  5029B  5050B  5129B  5452B
 FCATOPRM      4 0000042A 00000001     I    5687  5682   5698U
 FCATOPRX      2 00000606 00000001     H    6312  5901B  6077B
 FCATPSPA      4 000010EE 00000001     I    9703  9698   9714U
 FCATRNAM      4 00001A8E 00000001     I   12937 12932  12948U
 FCATS11X      2 0000185E 00000001     H   12131 11992B 12082B
 FCATS111      4 00001754 00000001     I   11806 11801  11817U
 FCATUINF      4 00001CA2 00000001     I   13581 13576  13592U
 FCATUSPA      4 00001224 00000001     I   10085 10080  10096U
 FCATXTND      4 00002448 00000001     I   16319 16314  16330U
 FCATXTNX      2 0000269C 00000001     H   17156 16548B 16656B 16693B 16837B 16866B 16967B
 FDOIODO       1 00000000 0000000B     T   20553 20553
 FILECA        1 00000000 00000001     R    1228  1226
 FILECAT       1 00000000 00000001     J    1219  1216   1217   1221   1327   1399   1556   1584   1639   1701   1724
                                                  1743   1772   1829   1849   2065   2107   2128   2149   2192   2275
                                                  2323   2756   2864   3083   3105   3177   3201   3241   3278   3299
                                                  3319   3353   3386   3433   3454   3477   3510   3533   3554   3576
                                                  3597   3617   3718   3776   4267   4302   4336   4404   4445
 FILEMODE      1 00000004 00000001 A   U    1923  4964   5391   6015   6934   7518   8177   9033  11109  12017  13099
                                                 13439  13769  14712  15464  17575
 FMHYINIT      1 00000000 00000007     T    9239  9239
 FMIXRADD      1 00000000 00000005     T    6388  6388
 FPA           1 00000002 00000001 A   N    2769  2775   2776   2777   2784   2787
 FPALL         1 0000000F 00000001 A   U    2780  4825   4855   5195   5507   6124   7628  13931  13961  17349
 FPE           1 00000008 00000001 A   N    2771  2779   2780   2786
 FPFWRITE      1 00000007 00000001 A   U    2787 16158
 FPN           1 00000000 00000001 A   N    2767  2781
 FPR           1 00000001 00000001 A   N    2768  2774   2775   2776   2783   2787
 FPS           1 00000010 00000001 A   N    2772  2778
 FPW           1 00000004 00000001 A   N    2770  2775   2785   2787   4940   6909   8324
 FRO           1 00000001 00000001 A   U    2774  2905   2988   3037   3129
 FRP           1 00000003 00000001 A   U    2776  2923   3006   3064   3147
 FRW           1 00000007 00000001 A   U    2775  2780   2914   2997   3046   3138  16832  16983  17916  18067
 FSB         480 00000000 FFFFFFDC     J    2755  4505U  5735U  6492U  7893U  9308U  9749U 10131U 10467U 10825U 11448U
                                                 11853U 12253U 12633U 12984U 13326U 13628U 14582U 14942U 15324U 16001U
                                                 16373U 17332U 18912U 20244U 20413U
 FSBAFLGS      1 00000009 FFFFFFDC     R    2523  2527   2532   2537   2542   2547   2552
 FSBARO       64 00000009 FFFFFFDC         2532  6206
 FSBBALLN      1 00000024 FFFFFFDC A   U    2654 19464
 FSBBALST      1 000000AC FFFFFFDC     X    2635  2654  19464M
 FSBBITBC      4 000000D8 FFFFFFDC     A    2660 19463M
 FSBBITSB      4 000000D4 FFFFFFDC     A    2659 19462M
 FSBBLKTOP
               4 0000005C FFFFFFDC     A    2624 18933  19478  19483M
 FSBBLK1       4 0000006C FFFFFFDC     A    2628 19482
 FSBCATBC      4 00000048 FFFFFFDC     A    2615 19461M 19911
 FSBCATNIN
               8 00000009 FFFFFFDC         2547  5046   5046   5047   7016   7016   7017   8421   8421   8422  20020M
                                                 20162  20162
 FSBCATNLM
               4 00000009 FFFFFFDC         2552  5046   5046   7016   7016   8421   8421  20045M 20133M 20162  20162
                                                 20163M
 FSBCATSB      4 00000044 FFFFFFDC     A    2614 19460M 19541  19673
 FSBCAT4K      4 00000120 FFFFFFDC     F    2682 19170M 19233  19372  19502  19577  19684  19764  20259  20341  20428
                                                 20439
 FSBCGRI       4 00000028 FFFFFFDC     A    2604  4552   5223   5315   5617   5782   6340   6539   7197   7337   7771
                                                  7940   8622   8793   9190   9349   9645   9790  10027  10172  10363
                                                 10508  10699  10873  11322  11496  11735  11894  12148  12294  12528
                                                 12674  12879  13012  13226  13354  13528  13669  14476  14623  14833
1FILECAT  (FILECA) (09:39) (22MAR04) Ordinary Symbol and Literal Cross Reference                                            Page  146
                                                 14982  15218  15364  15873  16041  16237  16415  17183  17374  18267
                                                 19220M
 FSBCHKA       4 00000060 FFFFFFDC     A    2625 19035M 19240  19380  19388  19476  19509  19585  19593  19780  19923
                                                 19996  20021
 FSBDBLK       4 000000E4 FFFFFFDC     A    2663  4763   6750
 FSBDSZ        2 000000AC FFFFFFDC     Y    2636 18935  19071  19299  19379  19415  19485  19556  19584  19743  19771
                                                 20320  20348  20435  20503
 FSBDTAGX      2 000000B0 FFFFFFDC     Y    2638 19608
 FSBFCACT      8 000001A0 FFFFFFDC     D    2730  2743   2743
 FSBFIOCT      8 00000140 FFFFFFDC     D    2698  2726   2726   2739   2740   2741
 FSBHCACHE
              32 0000000B FFFFFFDC         2592 19056
 FSBLOGFR      2 000000CC FFFFFFDC     Y    2652 20009
 FSBMNFRE      2 000000CE FFFFFFDC     Y    2653 20034
 FSBNAME       8 00000018 FFFFFFDC     C    2599 19941  20061
 FSBOFLGS      1 0000000B FFFFFFDC     R    2578  2582   2587   2592
 FSBROOTA      4 00000068 FFFFFFDC     A    2627 19691  19772
 FSBROOTB      4 00000064 FFFFFFDC     A    2626 19484  19672M
 FSBSFLGS      1 0000000A FFFFFFDC     R    2558  2562   2567   2572
 FSBSTEMP     32 0000000A FFFFFFDC         2572 19905  20055
 FSHR          1 00000010 00000001 A   U    2778  3024
 FSMB       2048 00000000 FFFFFFDE     J    2274 19398U
 FSMBALST      1 00000038 FFFFFFDE     X    2239  2258  19464
 FSMBITBC      4 00000030 FFFFFFDE     A    2232 19463
 FSMBITSB      4 0000002C FFFFFFDE     A    2231 19462
 FSMCATBC      4 00000028 FFFFFFDE     A    2230 19461
 FSMCATSB      4 00000024 FFFFFFDE     A    2229 19460
 FSMDSZ        2 00000038 FFFFFFDE     Y    2240 19415
 FSMMBLK       4 00000008 FFFFFFDE     A    2224  2233   2233
 FSMOFLGS      1 00000006 FFFFFFDE     R    2212  2216
 FSMSTART      8 00000000 FFFFFFDE     D    2207  2266
 FSNAME        8 00000009 FFFFFFBB     C   18840 19941M 20061M
 GRCRE         1 00000000 0000000A     T   20552 20552
 GRGET         1 00000000 00000002     T    6382  6382   9232  11777  15921  20541
 GRREL         1 00000000 00000004     T    6387  6387   9237  11780  15925  20544
 GRSZ          1 00000006 00000001 A   U    1879  3229   3269   3311   3331   3332   3333   3365   3366   3367   3423
                                                  3424   3445   3466   3467   3501   3525   3546
 HIBAL         1 00000000 FFFFFFFF     J     700   716    729    742    755    768    781    794    807    820    833
                                                   846    859    872    885    898    911   1012   1024   1036   1048
                                                  1060   1072   1084   1096   1108   1120   1132   1144   1156   1168
                                                  1180   1192   1204
 INILOOP       4 00002CE6 00000001     I   19485 19489B
 KATCONT      12 0000000C 00000001 A   N    4397  4814   5183   5587   6286   6801   7159   7500   7740   8580   8953
                                                  9159   9609   9995  10327  10663  11253  11677  12492  14439  16201
                                                 17103  18187
 KATDEL        4 00000004 00000001 A   N    4389 12744  13481
 KATINS        2 00000002 00000001 A   N    4387  4735   5433   6722   7560  12364
 KATLIS        6 00000006 00000001 A   N    4391 11151  11575
 KATLOOK       0 00000000 00000001 A   N    4385  4651   5006   5102   5379   5881   6057   6638   6976   7072   7401
                                                  8039   8219   8493   8871   9017   9075   9422   9863  10245  10581
                                                 10974  11969  12059  13088  13428  13743  13811  14697  14754  15056
                                                 15453  15532  16118  16486  17450  17617
 KATREC       14 0000000E 00000001 A   N    4399 19880
 KATRENAM      8 00000008 00000001 A   N    4393 13141
 LOCMEME       4 000029C4 00000001     I   18340 18351U 20547
 LOCMEME9      2 000029B8 00000001     H   18335 18334
 LOCPERM       4 00002A46 00000001     I   18595  6386   9236  11782  15930  18606U 20546
 LOCPERM9      2 00002A3A 00000001     H   18590 18589
 MAT         256 00000000 FFFFFFED     J    1398 19953U 20074U
1FILECAT  (FILECA) (09:39) (22MAR04) Ordinary Symbol and Literal Cross Reference                                            Page  147
 MATPTR        4 00000200 FFFFFFED A   A    1345 19943  20064
 MATSNAME      8 000000D4 FFFFFFED     C    1376 19959  20080
 MSG          29 00000011 FFFFFFBB     C   18841 19968M 20062M
 MSGLEN        1 0000002E FFFFFFBB A   U   18842 19982  20102
 M1AMSK        1 00FFFFFF 00000001 A   U    1876  1877
 N                        00000001 A   U   16799 16899  16900  16901  17025  17026  17027  17029
 N                        00000001 A   U   17883 17983  17984  17985  18109  18110  18111  18113
 NIL           1 000000FF 00000001 A   U    1927 20554
 NTFCLP      128 00000010 FFFFFFDA         2952 14166M 14189M
 NTFCNT        3 0000000D FFFFFFDA     X    2945  5481M  5481   6102   6102   7603M  8405   9110   9113M 14312M
 NTFCODE       1 00000010 FFFFFFDA     R    2948  2952   2957   2962   2967   2972   2977   5488M  6084   7610M
 NTFCRDT       4 00000013 FFFFFFDA     X    3069  5497M  7619M
 NTFFLGO       1 00000012 FFFFFFDA     R    3031  3039   3048   3057   3066   5507M  6086   7628M 13932M 15690
 NTFFLGP       1 00000011 FFFFFFDA     R    2982  2990   2999   3008   3017   3026   5506M  7627M 13962M 15689  18661
 NTFHYBR       4 00000010 FFFFFFDA         2977  7656M  8375  14310M
 NTFLNAME      1 00000020 FFFFFFDA     X    3073 15721  18408  18669
 NTFLNMSZ      1 0000001F FFFFFFDA     X    3072  3291  15719  18406  18667
 NTFLOC        3 0000000A FFFFFFDA     X    2944  3291   5499M  6085   7602M  8398  14311M 14341M 14816
 NTFLSDT       4 00000017 FFFFFFDA     X    3070  5498M  6237   6243M  7620M  9115M
 NTFNIXR      16 00000010 FFFFFFDA         2967  6096   7634M  8350  14304M
 NTFNOCLP     32 00000010 FFFFFFDA         2962 14089M 14112M
 NTFPSHR      16 00000011 FFFFFFDA         3026 14012M 14035M
 NTFSFORM     64 00000010 FFFFFFDA         2957 13875M 13898M
 NTFSPI        8 00000010 FFFFFFDA         2972 14243M 14266M
 NTFUINFO      4 0000001B FFFFFFDA     X    3071  3630   5495M  5495   7617M  7617  13853M
 NTGFLG        1 00000019 FFFFFFDA     R    2899  2907   2916   2925   2934   4771M  6758M 12449M 15670  16157M 16158M
                                                 18685
 NTGMEMBR      1 0000001A FFFFFFDA     X    2937 15671  18425  18686
 NTGMXSP       3 0000000F FFFFFFDA     X    2893  4763M  5126   6750M  7094   8515   9494  10620M 12441M 15181
 NTGUSSP       3 00000012 FFFFFFDA     X    2894  4770M  4770   5126   5138   5140M  6757M  6757   7088   7116M  7434
                                                  7457M  8509   8537M  8887   8910M  9488   9566M  9929   9952M 10284M
                                                 12448M 12448  15182
 NTPFLG        1 00000006 FFFFFFD8     R    3123  3131   3140   3149   3158   3167  16932M 16964  17051M 18016M 18048
                                                 18135M 18748  18772
 NTPNAME       6 00000000 FFFFFFD8     X    3120 15810  15823M 16909M 16927M 17993M 18011M 18480  18497  18741  18765
 NTRY         32 00000000 FFFFFFDA     J    3082  4904   5956   6163   6873   8117   8286  11052  15134  15624  15732
                                                 16618  16736  16849  16997  17543  17700  17820  17933  18081  18382U
                                                 18642U
 NTRYFL       32 00000000 FFFFFFDA     R    3074  5471U  5545   7598U  7698
 NTRYGR       26 00000000 FFFFFFDA     R    2938  4518U  4772   5636U  5748U  6505U  6759   7790U  7906U  9321U  9762U
                                                 10144U 10480U 10838U 11461U 11866U 12266U 12450  12646U 13641U 14595U
                                                 14955U 15337U 16014U 16386U 17345U
 NTRYLEN       2 00000000 FFFFFFDA     R    2883 12097  15731  16848  16996  17932  18080  18435  18696
 NTRYPR        7 00000000 FFFFFFD8     J    3176 15800U 15828  15828  15931  15932  16791U 16799U 16850  16880M 16880
                                                 16899M 16899  16900M 16900  16901M 16901  17000  17000  17007M 17007
                                                 17025M 17025  17026M 17026  17027M 17027  17028  17028  17029  17029
                                                 17875U 17883U 17934  17964M 17964  17983M 17983  17984M 17984  17985M
                                                 17985  18084  18084  18091M 18091  18109M 18109  18110M 18110  18111M
                                                 18111  18112  18112  18113  18113  18446U 18519  18709U 18777  20557
 NTRYSTRT      1 00000000 FFFFFFDA     X    2882  2938   2938   3074   3074  18436  18697
 NTRYVAR       1 0000000A FFFFFFDA     X    2888  2940
 NTRYXST       1 00000000 FFFFFFD9     X    3094  3096
 OL            2 00000002 FFFFFFDC A   N    2507  2508   2508   2883   2885   2887   2896   3095   3757   3758   3793
                                                  3896   3906   3916   3926   3937   3947   3957   3967   3977   3987
                                                  3997   4056   4058   4060   4066   4068   4070   4076   4079   4081
                                                  4083   4089   4092   4094   4096   4103   4106   4108   4110   4119
                                                  4120   4124   4130   4141   4142   4146   4152   4158   4167   4168
                                                  4172   4178   4184   4187   4203   4220   4223   4224
 ORVNAME       8 00000000 FFFFFFBB     C   18838 18842  19959M 19976  20080M 20096
1FILECAT  (FILECA) (09:39) (22MAR04) Ordinary Symbol and Literal Cross Reference                                            Page  148
 PGESZ         1 00001000 00000001 A   U    1875  1877
 PZABORT     128 0000021A FFFFFFEE         1307  9463M  9904M 14376M 14795M 19015M 19150M 19342M 19440M 19642M
 PZABR15       4 0000021C FFFFFFEE     A    1316  9464M  9905M 14377M 14796M 19016M 19151M 19343M 19441M 19643M
 PZABSM        1 0000021B FFFFFFEE     X    1315  9457M  9898M 14370M 14789M 19009M 19144M 19336M 19434M 19636M
 PZERO       640 00000000 FFFFFFEE     J    1326  9455U  9896U 14368U 14787U 19007U 19142U 19334U 19432U 19634U
 PZLCPUA       4 00000210 FFFFFFEE     A    1294  9465   9906  14378  14797  19017  19152  19344  19442  19644
 PZTERMFL      1 0000021A FFFFFFEE     R    1303  1307   1312
 RA            2 00000002 FFFFFFFF A   #    1028  4651M  4735M  4814M  5006M  5102M  5183M  5379M  5433M  5587M  5881M
                                                  6057M  6286M  6638M  6722M  6801M  6976M  7072M  7159M  7401M  7500M
                                                  7560M  7740M  8039M  8219M  8493M  8580M  8871M  8953M  9017M  9075M
                                                  9159M  9422M  9609M  9863M  9995M 10245M 10327M 10581M 10663M 10974M
                                                 11151M 11253M 11575M 11677M 11969M 12059M 12364M 12492M 12744M 13088M
                                                 13141M 13428M 13481M 13743M 13811M 14439M 14697M 14754M 15056M 15453M
                                                 15532M 16118M 16201M 16486M 17103M 17450M 17617M 18187M 19880M
 RAR          14 0000000E FFFFFFFF A   #    1184  4568M  4927M  5227M  5264M  5331M  5621M  5661B  5798M  5979M  6186M
                                                  6344M  6372B  6555M  6896M  7201M  7238M  7306M  7353M  7775M  7815B
                                                  7956M  8140M  8309M  8626M  8664M  8761M  8809M  9194M  9222B  9365M
                                                  9649M  9677B  9806M 10031M 10059B 10188M 10367M 10395B 10524M 10703M
                                                 10731B 10889M 11075M 11326M 11354B 11512M 11739M 11767B 11910M 12152M
                                                 12180B 12310M 12532M 12560B 12690M 12883M 12911B 13028M 13230M 13253B
                                                 13370M 13532M 13555B 13685M 14480M 14509B 14639M 14837M 14869B 14998M
                                                 15157M 15222M 15251B 15380M 15647M 15877M 15911B 16057M 16241M 16270B
                                                 16431M 16641M 16781M 17187M 17229B 17390M 17566M 17723M 17865M 18271M
                                                 18313B 18552B 18814B 18981M 19116M 19219M 19309M 19566M 19753M 20197B
                                                 20330M 20514M
 RB            3 00000003 FFFFFFFF A   #    1040  4495M  4505U  4655   4657M  4739   4741M  4818   4820M  5010   5012M
                                                  5106   5108M  5187   5189M  5383   5385M  5437   5439M  5591   5593M
                                                  5725M  5735U  5885   5887M  6061   6063M  6290   6292M  6482M  6492U
                                                  6642   6644M  6726   6728M  6805   6807M  6980   6982M  7076   7078M
                                                  7163   7165M  7405   7407M  7504   7506M  7564   7566M  7744   7746M
                                                  7883M  7893U  8043   8045M  8223   8225M  8497   8499M  8584   8586M
                                                  8875   8877M  8957   8959M  9021   9023M  9079   9081M  9163   9165M
                                                  9308U  9325M  9426   9428M  9613   9615M  9749U  9766M  9867   9869M
                                                  9999  10001M 10131U 10148M 10249  10251M 10331  10333M 10467U 10484M
                                                 10585  10587M 10667  10669M 10815M 10825U 10978  10980M 11155  11157M
                                                 11257  11259M 11438M 11448U 11579  11581M 11681  11683M 11843M 11853U
                                                 11973  11975M 12063  12065M 12243M 12253U 12368  12370M 12496  12498M
                                                 12623M 12633U 12748  12750M 12974M 12984U 13092  13094M 13145  13147M
                                                 13316M 13326U 13432  13434M 13485  13487M 13618M 13628U 13747  13749M
                                                 13815  13817M 14443  14445M 14572M 14582U 14701  14703M 14758  14760M
                                                 14932M 14942U 15060  15062M 15314M 15324U 15457  15459M 15536  15538M
                                                 15991M 16001U 16122  16124M 16205  16207M 16363M 16373U 16490  16492M
                                                 17107  17109M 17322M 17332U 17454  17456M 17621  17623M 18191  18193M
                                                 18902M 18912U 19884  19886M
 RJ            4 00000004 FFFFFFFF A   #    1052  4518U  5471U  5748U  6505U  7598U  7906U  9321U  9762U 10144U 10480U
                                                 10838U 11461U 11866U 12123M 12266U 12646U 13641U 14595U 14955U 15337U
                                                 16014U 16386U 17345U 19036M 19041M 19171M 19176M
 RK            5 00000005 FFFFFFFF A   #    1064  4652M  4736M  4815M  5007M  5103M  5184M  5380M  5434M  5588M  5882M
                                                  6058M  6287M  6639M  6723M  6802M  6977M  7073M  7160M  7402M  7501M
                                                  7561M  7741M  8040M  8220M  8494M  8581M  8872M  8954M  9018M  9076M
                                                  9160M  9423M  9610M  9864M  9996M 10246M 10328M 10582M 10664M 10975M
                                                 11152M 11254M 11576M 11678M 11970M 12060M 12122M 12365M 12493M 12745M
                                                 13089M 13142M 13429M 13482M 13744M 13812M 14440M 14698M 14755M 15057M
                                                 15454M 15533M 16119M 16202M 16487M 17104M 17451M 17618M 18188M 18933M
                                                 18934M 18935M 19077M 19881M
 RM            8 00000008 FFFFFFFF A   #    1100 15671M 15721M 15733  15787M 15789M 15800U 15828M 16791U 16803M 16872
                                                 16873M 16893  16902M 17028M 17875U 17887M 17956  17957M 17977  17986M
                                                 18112M 19041M 19176M
 RN            9 00000009 FFFFFFFF A   #    1112  4653M  4656M  4656B  4737M  4740M  4740B  4816M  4819M  4819B  5008M
1FILECAT  (FILECA) (09:39) (22MAR04) Ordinary Symbol and Literal Cross Reference                                            Page  149
                                                  5011M  5011B  5104M  5107M  5107B  5185M  5188M  5188B  5381M  5384M
                                                  5384B  5435M  5438M  5438B  5589M  5592M  5592B  5883M  5886M  5886B
                                                  6059M  6062M  6062B  6288M  6291M  6291B  6640M  6643M  6643B  6724M
                                                  6727M  6727B  6803M  6806M  6806B  6978M  6981M  6981B  7074M  7077M
                                                  7077B  7161M  7164M  7164B  7403M  7406M  7406B  7502M  7505M  7505B
                                                  7562M  7565M  7565B  7742M  7745M  7745B  8041M  8044M  8044B  8221M
                                                  8224M  8224B  8398M  8399   8406M  8407   8495M  8498M  8498B  8582M
                                                  8585M  8585B  8692M  8715M  8715   8818M  8818   8824   8873M  8876M
                                                  8876B  8955M  8958M  8958B  9019M  9022M  9022B  9077M  9080M  9080B
                                                  9161M  9164M  9164B  9424M  9427M  9427B  9611M  9614M  9614B  9865M
                                                  9868M  9868B  9997M 10000M 10000B 10247M 10250M 10250B 10329M 10332M
                                                 10332B 10583M 10586M 10586B 10665M 10668M 10668B 10976M 10979M 10979B
                                                 11153M 11156M 11156B 11255M 11258M 11258B 11577M 11580M 11580B 11679M
                                                 11682M 11682B 11971M 11974M 11974B 12061M 12064M 12064B 12366M 12369M
                                                 12369B 12494M 12497M 12497B 12746M 12749M 12749B 13090M 13093M 13093B
                                                 13143M 13146M 13146B 13430M 13433M 13433B 13483M 13486M 13486B 13745M
                                                 13748M 13748B 13813M 13816M 13816B 14441M 14444M 14444B 14459M 14481
                                                 14699M 14702M 14702B 14756M 14759M 14759B 15058M 15061M 15061B 15455M
                                                 15458M 15458B 15534M 15537M 15537B 15786M 15790M 16120M 16123M 16123B
                                                 16203M 16206M 16206B 16488M 16491M 16491B 16849M 16873  16881M 16903M
                                                 17000M 17019  17029M 17105M 17108M 17108B 17452M 17455M 17455B 17619M
                                                 17622M 17622B 17933M 17957  17965M 17987M 18084M 18103  18113M 18189M
                                                 18192M 18192B 18372M 18382U 18632M 18642U 19040M 19040  19175M 19175
                                                 19484M 19489M 19882M 19885M 19885B
 RQB           4 00000000 FFFFFFDB     F    2803 20235U 20404U
 RQBL        212 00000000 FFFFFFDB     J    2863  4436   4527U  4575M  4575   4652   4736   4815   5007   5103   5184
                                                  5380   5434   5588   5757U  5805M  5805   5882   6058   6287   6409
                                                  6514U  6562M  6562   6639   6723   6802   6977   7073   7160   7402
                                                  7501   7561   7741   7915U  7963M  7963   8040   8220   8494   8581
                                                  8872   8954   9018   9076   9160   9296U  9373M  9373   9423   9610
                                                  9737U  9814M  9814   9864   9996  10119U 10196M 10196  10246  10328
                                                 10455U 10532M 10532  10582  10664  10756  10847U 10896M 10896  10975
                                                 11152  11254  11379  11470U 11519M 11519  11576  11678  11840U 11917M
                                                 11917  11970  12060  12240U 12317M 12317  12365  12493  12620U 12697M
                                                 12697  12745  12971U 13035M 13035  13089  13142  13313U 13377M 13377
                                                 13429  13482  13615U 13692M 13692  13744  13812  14440  14569U 14646M
                                                 14646  14698  14755  14929U 15006M 15006  15057  15311U 15388M 15388
                                                 15454  15533  15988U 16065M 16065  16119  16202  16295  16361U 16439M
                                                 16439  16487  17104  17254  17320U 17398M 17398  17451  17618  18188
                                                 18845  18921U 18929M 18929  19881
 RQBLFLG1      1 0000002C FFFFFFDB     R    2820  2824   2829   2834
 RQBLNAME     44 0000005C FFFFFFDB     C    2840  2841   4578M  4578M  4579   4579M  5260   5508   5510   5808M  5808M
                                                  5809   5809M  6565M  6565M  6566   6566M  7300   7661   7663   7966M
                                                  7966M  7967   7967M  8753   9375M  9816M 10198M 10534M 10924M 10924M
                                                 10925  10925M 11185  11521M 11609  11919M 11919M 11920  11920M 12006
                                                 12319M 12320  12320M 12320  12321M 12699M 12700  12700M 12700  12701M
                                                 13037M 13037M 13038  13038M 13039  13379M 13379M 13380  13380M 13694M
                                                 13694M 13695  13695M 14648M 14648M 14649  14649M 15008M 15405M 15405M
                                                 15406  15406M 15480M 16067M 16441M 17400M 17400M 17401  17401M
 RQBLRNAM     44 00000030 FFFFFFDB     C    2839 13039M 13040M
 RQBLRQBL      4 00000000 FFFFFFDB     C    2805  4576M  5806M  6563M  7964M  9374M  9815M 10197M 10533M 10897M 11520M
                                                 11918M 12318M 12698M 13036M 13378M 13693M 14647M 15007M 15389M 16066M
                                                 16440M 17399M
 RQBLR1        4 00000010 FFFFFFDB     A    2809 20305  20488
 RQBLR14       4 0000000C FFFFFFDB     A    2808 20266  20349  20436  20456
 RQBLSAV       4 00000098 FFFFFFDB     A    2855  4629   4713   4792   4984   5080   5161   5357   5411   5565   5859
                                                  6035   6264   6616   6700   6779   6954   7050   7137   7379   7478
                                                  7538   7718   8017   8197   8471   8558   8849   8931   8995   9053
                                                  9137   9400   9587   9841   9973  10223  10305  10559  10641  10952
1FILECAT  (FILECA) (09:39) (22MAR04) Ordinary Symbol and Literal Cross Reference                                            Page  150
                                                 11129  11231  11553  11655  11947  12037  12342  12470  12722  13066
                                                 13119  13406  13459  13721  13789  14417  14675  14732  15034  15431
                                                 15510  16096  16179  16464  17081  17428  17595  18165  19858
 RQBLWORK     16 00000088 FFFFFFDB     C    2846  2847   2851
 RQBLWR2       4 00000020 FFFFFFDB     A    2814  4611M  4660   4695M  4744   4774M  4823   4966M  5015   5062M  5111
                                                  5143M  5192   5339M  5388   5393M  5442   5547M  5596   5841M  5890
                                                  6017M  6066   6246M  6295   6598M  6647   6682M  6731   6761M  6810
                                                  6936M  6985   7032M  7081   7119M  7168   7361M  7410   7460M  7509
                                                  7520M  7569   7700M  7749   7999M  8048   8179M  8228   8453M  8502
                                                  8540M  8589   8831M  8880   8913M  8962   8977M  9026   9035M  9084
                                                  9119M  9168   9382M  9431   9569M  9618   9823M  9872   9955M 10004
                                                 10205M 10254  10287M 10336  10541M 10590  10623M 10672  10934M 10983
                                                 11111M 11160  11213M 11262  11535M 11584  11637M 11686  11929M 11978
                                                 12019M 12068  12324M 12373  12452M 12501  12704M 12753  13048M 13097
                                                 13101M 13150  13388M 13437  13441M 13490  13703M 13752  13771M 13820
                                                 14399M 14448  14657M 14706  14714M 14763  15016M 15065  15413M 15462
                                                 15492M 15541  16078M 16127  16161M 16210  16446M 16495  17063M 17112
                                                 17410M 17459  17577M 17626  18147M 18196  19840M 19889  20248  20417
 RQBLWR3       4 00000024 FFFFFFDB     A    2815  4622M  4622   4646   4659M  4706M  4706   4730   4743M  4785M  4785
                                                  4809   4822M  4977M  4977   5001   5014M  5073M  5073   5097   5110M
                                                  5154M  5154   5178   5191M  5350M  5350   5374   5387M  5404M  5404
                                                  5428   5441M  5558M  5558   5582   5595M  5852M  5852   5876   5889M
                                                  6028M  6028   6052   6065M  6257M  6257   6281   6294M  6609M  6609
                                                  6633   6646M  6693M  6693   6717   6730M  6772M  6772   6796   6809M
                                                  6947M  6947   6971   6984M  7043M  7043   7067   7080M  7130M  7130
                                                  7154   7167M  7372M  7372   7396   7409M  7471M  7471   7495   7508M
                                                  7531M  7531   7555   7568M  7711M  7711   7735   7748M  8010M  8010
                                                  8034   8047M  8190M  8190   8214   8227M  8464M  8464   8488   8501M
                                                  8551M  8551   8575   8588M  8842M  8842   8866   8879M  8924M  8924
                                                  8948   8961M  8988M  8988   9012   9025M  9046M  9046   9070   9083M
                                                  9130M  9130   9154   9167M  9393M  9393   9417   9430M  9580M  9580
                                                  9604   9617M  9834M  9834   9858   9871M  9966M  9966   9990  10003M
                                                 10216M 10216  10240  10253M 10298M 10298  10322  10335M 10552M 10552
                                                 10576  10589M 10634M 10634  10658  10671M 10945M 10945  10969  10982M
                                                 11122M 11122  11146  11159M 11224M 11224  11248  11261M 11546M 11546
                                                 11570  11583M 11648M 11648  11672  11685M 11940M 11940  11964  11977M
                                                 12030M 12030  12054  12067M 12335M 12335  12359  12372M 12463M 12463
                                                 12487  12500M 12715M 12715  12739  12752M 13059M 13059  13083  13096M
                                                 13112M 13112  13136  13149M 13399M 13399  13423  13436M 13452M 13452
                                                 13476  13489M 13714M 13714  13738  13751M 13782M 13782  13806  13819M
                                                 14410M 14410  14434  14447M 14668M 14668  14692  14705M 14725M 14725
                                                 14749  14762M 15027M 15027  15051  15064M 15424M 15424  15448  15461M
                                                 15503M 15503  15527  15540M 16089M 16089  16113  16126M 16172M 16172
                                                 16196  16209M 16457M 16457  16481  16494M 17074M 17074  17098  17111M
                                                 17421M 17421  17445  17458M 17588M 17588  17612  17625M 18158M 18158
                                                 18182  18195M 19851M 19851  19875  19888M 20247M 20357  20416M 20516
 RQFCLP       64 0000002C FFFFFFDB         2829 10919M
 RS            1 00000001 FFFFFFFF A   #    1016  5138M  5139M  5140   5600M  5622   6313M  6345   7754M  7776   8628M
                                                  9173M  9195   9508M  9623M  9623   9650  10009M 10009  10032  10268M
                                                 10341M 10341  10368  10604M 10677M 10677  10704  10985M 11076M 11162M
                                                 11292M 11292  11327  11586M 11715M 11715  11740  11980M 12070M 12128M
                                                 12128  12153  12404M 12421M 12506M 12506  12533  12784M 12816M 12833M
                                                 12857M 12857  12884  13159M 13183M 13200M 13231  13499M 13506M 13533
                                                 15067M 15158M 15187M 15187  15223  15558M 15648M 15694M 15694  15737M
                                                 15737  15843M 15843  15878  16141M 16215M 16215  16242  16526M 16543M
                                                 16643M 16821M 16821  16851M 16952M 16952  17129M 17149M 17149  17188
                                                 17472M 17639M 17727M 17905M 17905  17935M 18036M 18036  18213M 18233M
                                                 18233  18272  19379M 19381  19476M 19485M 19487  19584M 19586  19662M
                                                 19672  19673M 19771M 19773  20348M 20350  20435M 20437
1FILECAT  (FILECA) (09:39) (22MAR04) Ordinary Symbol and Literal Cross Reference                                            Page  151
 RVR           0 00000000 FFFFFFFF A   #    1004  4661M  4674M  4745M  4757M  4824M  4904M  4928   4929M  5016M  5028M
                                                  5034M  5112M  5113M  5193M  5273M  5273   5389M  5443M  5597M  5600
                                                  5622M  5891M  5892M  5956M  5980   6067M  6068M  6163M  6188   6296M
                                                  6309M  6309   6313   6345M  6648M  6661M  6732M  6744M  6811M  6873M
                                                  6897   6898M  6986M  6998M  7004M  7082M  7096M  7169M  7202M  7239
                                                  7262M  7262   7301   7411M  7510M  7511M  7570M  7750M  7754   7776M
                                                  8049M  8062M  8117M  8141   8229M  8241M  8286M  8311   8313M  8340M
                                                  8409M  8503M  8517M  8590M  8627M  8682   8683M  8692   8754   8881M
                                                  8963M  8964M  9027M  9085M  9098M  9169M  9173   9195M  9432M  9619M
                                                  9650M  9873M 10005M 10032M 10255M 10337M 10368M 10591M 10673M 10704M
                                                 10984M 10994M 10994  11052M 11085M 11085  11161M 11162  11263M 11327M
                                                 11585M 11586  11687M 11740M 11979M 11989M 11989  12069M 12079M 12079
                                                 12153M 12374M 12397  12502M 12533M 12754M 12777  12809  12884M 13098M
                                                 13151M 13159  13176  13231M 13438M 13491M 13499  13533M 13753M 13821M
                                                 14449M 14453M 14453  14459  14481M 14707M 14764M 14841M 14841  15066M
                                                 15076M 15076  15134M 15167M 15167  15223M 15463M 15542M 15567M 15567
                                                 15624M 15657M 15657  15878M 16128M 16211M 16242M 16496M 16519  16618M
                                                 16642  16736M 16812M 16812  16850M 16863  16999M 17113M 17122M 17122
                                                 17188M 17460M 17543M 17567  17627M 17700M 17725M 17726  17820M 17896M
                                                 17896  17934M 17947  18083M 18197M 18206M 18206  18272M 18450M 18507M
                                                 18507  18787M 18990M 18990  19035  19036  19125M 19125  19170  19171
                                                 19220  19233M 19234M 19234  19240M 19372M 19373M 19373  19382M 19502M
                                                 19503M 19503  19509M 19577M 19578M 19578  19587M 19684M 19685M 19685
                                                 19691M 19764M 19765M 19765  19774M 19890M 20259M 20260M 20260  20266M
                                                 20341M 20342M 20342  20351M 20428M 20429M 20429  20438M 20439M 20456M
 RX            6 00000006 FFFFFFFF A   #    1076 19477M 19489
 RY            7 00000007 FFFFFFFF A   #    1088 19478M 19480M 19481M 19482M 19482  19483
 R0            0 00000000 FFFFFFFF A   #     708  4457   4609M  4693M  4772M  4964M  5060M  5337M  5391M  5510M  5545M
                                                  5687   5839M  6015M  6445   6596M  6680M  6759M  6934M  7030M  7359M
                                                  7518M  7663M  7698M  7846   7997M  8177M  8451M  8829M  8975M  9033M
                                                  9262   9380M  9455U  9703   9821M  9896U 10085  10203M 10421  10539M
                                                 10778  10932M 11109M 11401  11533M 11806  11927M 12017M 12206  12322M
                                                 12450M 12586  12702M 12937  13046M 13099M 13279  13386M 13439M 13581
                                                 13701M 13769M 14368U 14535  14655M 14712M 14787U 14895  15009M 15277
                                                 15411M 15464M 15481M 15954  16076M 16319  16444M 17278  17408M 17575M
                                                 18340  18595  18865  19007U 19142U 19334U 19432U 19634U 19916M 19916
                                                 19917M 19983M 19986  20103M 20106
 R1            1 00000001 FFFFFFFF A   #     721  5659M  6370M  7813M  9220M  9675M 10057M 10393M 10729M 11352M 11765M
                                                 12178M 12558M 12909M 13251M 13553M 14507M 14867M 15249M 15909M 16268M
                                                 17227M 18311M 18550M 18812M 19911M 19912M 19920  19922M 19935  20195M
 R10          10 0000000A FFFFFFFF A   #     838 20244U 20413U
 R14          14 0000000E FFFFFFFF A   #     890  4587M  4587   4604M  4963M  4963   5059M  5059   5336M  5336   5508M
                                                  5533M  5817M  5817   5834M  5993M  5993   6010M  6187M  6188M  6189
                                                  6574M  6574   6591M  6933M  6933   7029M  7029   7088M  7095M  7106
                                                  7116   7358M  7358   7434M  7435M  7451M  7451   7457   7661M  7686M
                                                  7975M  7975   7992M  8155M  8155   8172M  8310M  8311M  8312   8450M
                                                  8450   8509M  8516M  8527   8537   8828M  8828   8887M  8888M  8904M
                                                  8904   8910   8974M  8974   9032M  9032   9379M  9379   9488M  9495
                                                  9564   9820M  9820   9929M  9930M  9946M  9946   9952  10202M 10202
                                                 10538M 10538  10931M 11103M 11103  11105M 11184M 11186M 11187  11190M
                                                 11191M 11192  11284M 11285M 11286  11527M 11527  11529M 11608M 11610M
                                                 11611  11614M 11615M 11616  11708M 11709M 11710  11926M 12016M 12121M
                                                 12123M 13045M 13045  13385M 13385  13700M 13700  13768M 13768  14654M
                                                 14654  14711M 14711  15010M 15410M 15410  15486M 15719M 15721  15781M
                                                 15781  15782M 15785M 15787M 16071M 16071  16442M 16667M 16670  16997M
                                                 17019  17403M 17573M 17724M 17725  17751M 17754  18081M 18103  18406M
                                                 18408M 18408  18425M 18446U 18463  18519M 18519  18525  18667M 18669M
                                                 18669  18686M 18709U 18724  18777M 18777  19380M 19382M 19388M 19398U
                                                 19585M 19587M 19593M 19603U 19772M 19774M 19780M 19790U 19923M 19986
1FILECAT  (FILECA) (09:39) (22MAR04) Ordinary Symbol and Literal Cross Reference                                            Page  152
                                                 19996M 20021M 20106  20349M 20351M 20436M 20438M
 R15          15 0000000F FFFFFFFF A   #     903  4457   4583M  4583   4661   4745   4824   4959M  4959   5016   5112
                                                  5141M  5193   5389   5443   5509M  5534M  5597   5659M  5687   5813M
                                                  5813   5891   5989M  5989   6067   6244M  6296   6370M  6445   6570M
                                                  6570   6648   6732   6811   6929M  6929   6986   7082   7094M  7106
                                                  7117M  7169   7411   7458M  7510   7570   7662M  7687M  7750   7813M
                                                  7846   7971M  7971   8049   8151M  8151   8229   8405M  8406   8503
                                                  8515M  8527   8538M  8590   8881   8911M  8963   9027   9085   9110M
                                                  9111M  9113   9117M  9169   9220M  9262   9432   9464   9465M  9466M
                                                  9467M  9468M  9469M  9469   9494M  9495M  9535   9542M  9559   9564M
                                                  9566   9567M  9619   9675M  9703   9873   9905   9906M  9907M  9908M
                                                  9909M  9910M  9910   9953M 10005  10057M 10085  10255  10285M 10337
                                                 10393M 10421  10591  10621M 10673  10729M 10778  10930M 10930  10984
                                                 11104M 11106  11107  11161  11263  11352M 11401  11528M 11530  11531
                                                 11585  11687  11765M 11806  11925M 11925  11979  12015M 12015  12069
                                                 12097M 12109  12116M 12122  12178M 12206  12374  12502  12558M 12586
                                                 12754  12909M 12937  13098  13151  13251M 13279  13438  13491  13553M
                                                 13581  13753  13821  14377  14378M 14379M 14380M 14381M 14382M 14382
                                                 14397M 14449  14507M 14535  14707  14764  14796  14797M 14798M 14799M
                                                 14800M 14801M 14801  14867M 14895  15014M 15014  15066  15249M 15277
                                                 15463  15490M 15490  15542  15731M 15732M 15732  15733M 15746M 15746
                                                 15766  15773M 15783  15784M 15786  15909M 15954  16075M 16075  16128
                                                 16159M 16211  16268M 16319  16443M 16496  16848M 16849  16872M 16893
                                                 16933M 16996M 16997  16998M 16999  17035M 17052M 17113  17227M 17278
                                                 17407M 17407  17460  17574M 17627  17932M 17933  17956M 17977  18017M
                                                 18080M 18081  18082M 18083  18119M 18136M 18197  18311M 18340  18435M
                                                 18436M 18436  18463  18550M 18595  18696M 18697M 18697  18724  18812M
                                                 18865  19016  19017M 19018M 19019M 19020M 19021M 19021  19151  19152M
                                                 19153M 19154M 19155M 19156M 19156  19343  19344M 19345M 19346M 19347M
                                                 19348M 19348  19381M 19441  19442M 19443M 19444M 19445M 19446M 19446
                                                 19586M 19608M 19609M 19609  19643  19644M 19645M 19646M 19647M 19648M
                                                 19648  19773M 19890  19943M 19953U 20064M 20074U 20195M 20350M 20437M
 R5            5 00000005 FFFFFFFF A   #     773 20235U 20404U
 R9            9 00000009 FFFFFFFF A   #     825 20359B 20518B
 SETREAD1      2 00002EFC 00000001     H   20213 20211
 SETWRIT1      2 00002F54 00000001     H   20382 20380
 SPACE         1 00000008 FFFFFFBB     C   18839 19942M 20063M
 SPR          13 0000000D FFFFFFFF A   #    1172  4457   4472   4473   4493M  4539U  4611   4629M  4646M  4659   4660M
                                                  4695   4713M  4730M  4743   4744M  4774   4792M  4809M  4822   4823M
                                                  4884U  4966   4984M  5001M  5014   5015M  5062   5080M  5097M  5110
                                                  5111M  5143   5161M  5178M  5191   5192M  5210U  5240U  5302U  5339
                                                  5357M  5374M  5387   5388M  5393   5411M  5428M  5441   5442M  5547
                                                  5565M  5582M  5595   5596M  5687   5702   5703   5723M  5769U  5841
                                                  5859M  5876M  5889   5890M  5936U  6017   6035M  6052M  6065   6066M
                                                  6246   6264M  6281M  6294   6295M  6327U  6445   6460   6461   6481M
                                                  6526U  6598   6616M  6633M  6646   6647M  6682   6700M  6717M  6730
                                                  6731M  6761   6779M  6796M  6809   6810M  6853U  6936   6954M  6971M
                                                  6984   6985M  7032   7050M  7067M  7080   7081M  7119   7137M  7154M
                                                  7167   7168M  7184U  7215U  7280U  7324U  7361   7379M  7396M  7409
                                                  7410M  7460   7478M  7495M  7508   7509M  7520   7538M  7555M  7568
                                                  7569M  7700   7718M  7735M  7748   7749M  7846   7861   7862   7882M
                                                  7927U  7999   8017M  8034M  8047   8048M  8097U  8179   8197M  8214M
                                                  8227   8228M  8453   8471M  8488M  8501   8502M  8540   8558M  8575M
                                                  8588   8589M  8609U  8641U  8733U  8780U  8831   8849M  8866M  8879
                                                  8880M  8913   8931M  8948M  8961   8962M  8977   8995M  9012M  9025
                                                  9026M  9035   9053M  9070M  9083   9084M  9119   9137M  9154M  9167
                                                  9168M  9262   9277   9278   9298M  9336U  9382   9400M  9417M  9430
                                                  9431M  9569   9587M  9604M  9617   9618M  9703   9718   9719   9739M
                                                  9777U  9823   9841M  9858M  9871   9872M  9955   9973M  9990M 10003
1FILECAT  (FILECA) (09:39) (22MAR04) Ordinary Symbol and Literal Cross Reference                                            Page  153
                                                 10004M 10085  10100  10101  10121M 10159U 10205  10223M 10240M 10253
                                                 10254M 10287  10305M 10322M 10335  10336M 10421  10436  10437  10457M
                                                 10495U 10541  10559M 10576M 10589  10590M 10623  10641M 10658M 10671
                                                 10672M 10778  10793  10794  10814M 10860U 10934  10952M 10969M 10982
                                                 10983M 11032U 11111  11129M 11146M 11159  11160M 11213  11231M 11248M
                                                 11261  11262M 11309U 11401  11416  11417  11437M 11483U 11535  11553M
                                                 11570M 11583  11584M 11637  11655M 11672M 11685  11686M 11806  11821
                                                 11822  11842M 11881U 11929  11947M 11964M 11977  11978M 12019  12037M
                                                 12054M 12067  12068M 12206  12221  12222  12242M 12281U 12324  12342M
                                                 12359M 12372  12373M 12452  12470M 12487M 12500  12501M 12586  12601
                                                 12602  12622M 12661U 12704  12722M 12739M 12752  12753M 12937  12952
                                                 12953  12973M 12999U 13048  13066M 13083M 13096  13097M 13101  13119M
                                                 13136M 13149  13150M 13279  13294  13295  13315M 13341U 13388  13406M
                                                 13423M 13436  13437M 13441  13459M 13476M 13489  13490M 13581  13596
                                                 13597  13617M 13656U 13703  13721M 13738M 13751  13752M 13771  13789M
                                                 13806M 13819  13820M 14399  14417M 14434M 14447  14448M 14535  14550
                                                 14551  14571M 14610U 14657  14675M 14692M 14705  14706M 14714  14732M
                                                 14749M 14762  14763M 14895  14910  14911  14931M 14969U 15016  15034M
                                                 15051M 15064  15065M 15114U 15205U 15277  15292  15293  15313M 15351U
                                                 15413  15431M 15448M 15461  15462M 15492  15510M 15527M 15540  15541M
                                                 15604U 15860U 15954  15969  15970  15990M 16028U 16078  16096M 16113M
                                                 16126  16127M 16161  16179M 16196M 16209  16210M 16319  16334  16335
                                                 16355M 16402U 16446  16464M 16481M 16494  16495M 16598U 16716U 17063
                                                 17081M 17098M 17111  17112M 17170U 17278  17293  17294  17314M 17361U
                                                 17410  17428M 17445M 17458  17459M 17523U 17577  17595M 17612M 17625
                                                 17626M 17800U 18147  18165M 18182M 18195  18196M 18254U 18340  18355
                                                 18356  18371M 18595  18610  18611  18631M 18865  18880  18881  18901M
                                                 18952U 19197U 19258U 19840  19858M 19875M 19888  19889M 20247  20248M
                                                 20281U 20357M 20416  20417M 20516M
 VCATENT       1 00000000 00000003     T    6385  6385   9235  11779  15924  20543
 VMGET         1 00000000 00000009     T   20550 20550
 WAR          12 0000000C FFFFFFFF A   #    1160  4472   4473M  4474   4484U  4493   5659   5660   5702   5703M  5704
                                                  5714U  5723   6370   6371   6460   6461M  6462   6472U  6481   7813
                                                  7814   7861   7862M  7863   7873U  7882   9220   9221   9277   9278M
                                                  9279   9289U  9298   9675   9676   9718   9719M  9720   9730U  9739
                                                 10057  10058  10100  10101M 10102  10112U 10121  10393  10394  10436
                                                 10437M 10438  10448U 10457  10729  10730  10793  10794M 10795  10805U
                                                 10814  11352  11353  11416  11417M 11418  11428U 11437  11765  11766
                                                 11821  11822M 11823  11833U 11842  12178  12179  12221  12222M 12223
                                                 12233U 12242  12558  12559  12601  12602M 12603  12613U 12622  12909
                                                 12910  12952  12953M 12954  12964U 12973  13251  13252  13294  13295M
                                                 13296  13306U 13315  13553  13554  13596  13597M 13598  13608U 13617
                                                 14507  14508  14550  14551M 14552  14562U 14571  14867  14868  14910
                                                 14911M 14912  14922U 14931  15249  15250  15292  15293M 15294  15304U
                                                 15313  15909  15910  15969  15970M 15971  15981U 15990  16268  16269
                                                 16334  16335M 16336  16346U 16355  17227  17228  17293  17294M 17295
                                                 17305U 17314  18311  18312  18355  18356M 18357  18367U 18371  18550
                                                 18551  18610  18611M 18612  18622U 18631  18812  18813  18880  18881M
                                                 18882  18892U 18901  20195  20196
 =A(BITAVAIL)
               4 00002FE8 00000001     A   20555 19488
 =A(CFSBMXNT)
               4 00002FCC 00000001     A   20548 16863  17947
 =A(DIRDELAC)
               4 00002324 00000001     A   15928 12809
 =A(DIRDUPER)
               4 0000231C 00000001     A   15926 12397
 =A(DIRNFER)
               4 00002320 00000001     A   15927 12777
1FILECAT  (FILECA) (09:39) (22MAR04) Ordinary Symbol and Literal Cross Reference                                            Page  154
 =A(DIRNFER)
               4 00002FC0 00000001     A   20545 16519
 =A(DIRNMR)
               4 00002328 00000001     A   15929 13176
 =A(L'NTRYPR)
               4 00002330 00000001     A   15931 15782
 =A(LOCMEME)
               4 00002FC8 00000001     A   20547 16780  17864
 =A(LOCPERM)
               4 00000638 00000001     A    6386  4926   5978   6185
 =A(LOCPERM)
               4 00000F78 00000001     A    9236  6895   8139   8308
 =A(LOCPERM)
               4 0000173C 00000001     A   11782 11074
 =A(LOCPERM)
               4 0000232C 00000001     A   15930 15156  15646
 =A(LOCPERM)
               4 00002FC4 00000001     A   20546 16640  17565  17722
 =A(100)       4 00002FEC 00000001     A   20556 19917
 =A(4096)      4 00002FD8 00000001     A   20551 19077
 =AL2(2048)
               2 00002FF6 00000001     R   20560 19071
 =C' Catalog needs rebuilding.   '
              29 00003004 00000001     C   20566 19968
 =C' File System Updates Frozen!!'
              29 00003021 00000001     C   20567 20062
 =C'pUB'       3 00003001 00000001     C   20565 18699
 =C'PUB'       3 00002FFE 00000001     C   20564 16757  16920  17841  18004
 =CL4' '       4 00000630 00000001     C    6384  4578   5808
 =CL4' '       4 00000F70 00000001     C    9234  6565   7966
 =CL4' '       4 00001738 00000001     C   11781 10924
 =CL4' '       4 00002310 00000001     C   15923 11919  13037  13379  13694  14648  15405
 =CL4' '       4 00002FD0 00000001     C   20549 17400
 =CL4'RQBL'
               4 0000062C 00000001     C    6383  4576   5806
 =CL4'RQBL'
               4 00000F6C 00000001     C    9233  6563   7964
 =CL4'RQBL'
               4 0000172C 00000001     C   11778  9374   9815  10197  10533  10897  11520
 =CL4'RQBL'
               4 0000230C 00000001     C   15922 11918  12318  12698  13036  13378  13693  14647  15007  15389
 =CL4'RQBL'
               4 00002FB4 00000001     C   20542 16066  16440  17399
 =F'14'        4 00001744 00000001     F   11784 11529
 =F'56'        4 00001740 00000001     F   11783 11105
 =H'-4'        2 00002FF2 00000001     H   20558 16933  17035  18017  18119
 =V(FBITEXTN)
               4 00000F88 00000001     V    9240  8663
 =V(FBITGCON)
               4 00000F80 00000001     V    9238  7237
 =V(FDOIODO)
               4 00002FE0 00000001     V   20553 19308  19565  19752  20329  20513
 =V(FMHYINIT)
               4 00000F84 00000001     V    9239  7305   8760
 =V(FMIXRADD)
               4 00000640 00000001     V    6388  5263
 =V(GRCRE)
               4 00002FDC 00000001     V   20552 19218
 =V(GRGET)
1FILECAT  (FILECA) (09:39) (22MAR04) Ordinary Symbol and Literal Cross Reference                                            Page  155
               4 00000628 00000001     V    6382  4567   5330   5797
 =V(GRGET)
               4 00000F68 00000001     V    9232  6554   7352   7955   8808
 =V(GRGET)
               4 00001728 00000001     V   11777  9364   9805  10187  10523  10888  11511
 =V(GRGET)
               4 00002308 00000001     V   15921 11909  12309  12689  13027  13369  13684  14638  14997  15379
 =V(GRGET)
               4 00002FB0 00000001     V   20541 16056  16430  17389
 =V(GRREL)
               4 0000063C 00000001     V    6387  5226   5620   6343
 =V(GRREL)
               4 00000F7C 00000001     V    9237  7200   7774   8625   9193
 =V(GRREL)
               4 00001734 00000001     V   11780  9648  10030  10366  10702  11325  11738
 =V(GRREL)
               4 00002318 00000001     V   15925 12151  12531  12882  13229  13531  14479  14836  15221  15876
 =V(GRREL)
               4 00002FBC 00000001     V   20544 16240  17186  18270
 =V(VCATENT)
               4 00000634 00000001     V    6385  4653   4737   4816   5008   5104   5185   5381   5435   5589   5883
                                                  6059   6288
 =V(VCATENT)
               4 00000F74 00000001     V    9235  6640   6724   6803   6978   7074   7161   7403   7502   7562   7742
                                                  8041   8221   8495   8582   8873   8955   9019   9077   9161
 =V(VCATENT)
               4 00001730 00000001     V   11779  9424   9611   9865   9997  10247  10329  10583  10665  10976  11153
                                                 11255  11577  11679
 =V(VCATENT)
               4 00002314 00000001     V   15924 11971  12061  12366  12494  12746  13090  13143  13430  13483  13745
                                                 13813  14441  14699  14756  15058  15455  15534
 =V(VCATENT)
               4 00002FB8 00000001     V   20543 16120  16203  16488  17105  17452  17619  18189  19882
 =V(VMGET)
               4 00002FD4 00000001     V   20550 18980  19115
 =Y(CCAT0PCT)
               2 00002FFA 00000001     Y   20562 19912
 =Y(CCAT1MIN)
               2 00002FFC 00000001     Y   20563 19920  19922
 =Y(CFSBPL)
               2 00002FF8 00000001     Y   20561 19481
 =Y(L'NTRYPR)
               2 00002334 00000001     Y   15932 15784
 =Y(L'NTRYPR)
               2 00002FF0 00000001     Y   20557 16881  16902  16903  16998  17965  17986  17987  18082
 =Y(63*256+0)
               2 00002FF4 00000001     Y   20559 18971  19106
 =4AL1(NIL)
               1 00002FE4 00000001     R   20554 19486

1FILECAT  (FILECA) (09:39) (22MAR04) Macro and Copy Code Source Summary                                                     Page  156
- Con Source                                        Volume    Members                        HLASM R4.0  2004/03/22 09.39
0     PRIMARY INPUT                                           CATCALL  CHKPREC  CSECT    DROP     END      ERRCODE  EX
                                                              GRCAN    GRCRE    GRDEL    GRGET    GRREL    GRX2S
                                                              LOCAP    LOCFP    LTORG    POP      PRINT    PUSH
                                                              SAVAIL   SHEAD    SPOP     SPUSH    START    USING
   L2 WYL.GG.ORV.MACLIB                             SYSB02    $LKPARM  ABORT    ACALL    CATCODE  CATRQBL  CHKPNT
                                                              FBHDR    FCATPARM FILCONST FILEPARM FPC      FSB      FSMB
                                                              GENCAT   GRPARM   HEADER   MAT      MODULE   NTRY
                                                              ORVWTO   PEND     PMOV     PROC     PSET     PZERO    REG
                                                              SLISTMAC SPLEVEL  SYSCTL   VCALL    VMGET    VMPARM
   L3 WYL.GG.SYS.MACLIB                             SYSB05    $BC      $BFLKUP  $BV      $CCLKUP  $CRS     $CSS     $L
                                                              $LA      $LBLAD   $LEXP    $LOR     $REL     $RGLKUP
                                                              $USLKUP  AUSING   BASE     BEGIN    CLEAR    CSECT    DATA
                                                              DECR     DEFCC    DIAG     DROP     ELSE     ELSEIF   END
                                                              EX       EXIT     FLAG     FLOOR    GEN      HIBAL
                                                              IDENT    IF       INCR     LABEL    LC       LCM      LOOP
                                                              LT       LTORG    L2       L3       POP      PRINT    PUSH
                                                              RECORD   REGS     SET      START    STF      ST3
                                                              UNTIL    USING    WHILE    WITH

1         (FILECA) (09:39) (22MAR04) General Purpose Register Cross Reference                                               Page  157
- Register  References (M=modified, B=branch, U=USING, D=DROP, N=index)                      HLASM R4.0  2004/03/22 09.39
0    0(0)      991U   992D  4457   4609M  4661M  4674M  4693M  4745M  4757M  4772M  4824M  4904M  4909   4928   4929M
              4964M  5016M  5028M  5034M  5060M  5112M  5113M  5193M  5273M  5273   5337M  5389M  5391M  5443M  5510M
              5540M  5545M  5597M  5600   5622M  5687   5839M  5891M  5892M  5956M  5961   5980   6015M  6067M  6068M
              6163M  6168   6188   6296M  6309M  6309   6313   6345M  6445   6596M  6648M  6661M  6680M  6732M  6744M
              6759M  6811M  6873M  6878   6897   6898M  6934M  6986M  6998M  7004M  7030M  7082M  7096M  7169M  7202M
              7239   7262M  7262   7301   7359M  7411M  7510M  7511M  7518M  7570M  7663M  7693M  7698M  7750M  7754
              7776M  7846   7997M  8049M  8062M  8117M  8122   8141   8177M  8229M  8241M  8286M  8291   8311   8313M
              8340M  8409M  8451M  8503M  8517M  8590M  8627M  8682   8683M  8692   8754   8829M  8881M  8963M  8964M
              8975M  9027M  9033M  9085M  9098M  9169M  9173   9195M  9262   9380M  9432M  9477D  9619M  9650M  9703
              9821M  9873M  9918D 10005M 10032M 10085  10203M 10255M 10337M 10368M 10421  10539M 10591M 10673M 10704M
             10778  10932M 10984M 10994M 10994  11052M 11057  11085M 11085  11109M 11161M 11162  11263M 11327M 11401
             11533M 11585M 11586  11687M 11740M 11806  11927M 11979M 11989M 11989  12017M 12069M 12079M 12079  12153M
             12206  12322M 12374M 12397  12450M 12502M 12533M 12586  12702M 12754M 12777  12809  12884M 12937  13046M
             13098M 13099M 13151M 13159  13176  13231M 13279  13386M 13438M 13439M 13491M 13499  13533M 13581  13701M
             13753M 13769M 13821M 14368U 14390D 14449M 14453M 14453  14459  14481M 14535  14655M 14707M 14712M 14764M
             14809D 14841M 14841  14895  15009M 15066M 15076M 15076  15134M 15139  15167M 15167  15223M 15277  15411M
             15463M 15464M 15481M 15542M 15567M 15567  15624M 15629  15657M 15657  15878M 15954  16076M 16128M 16211M
             16242M 16319  16444M 16496M 16519  16618M 16623  16642  16736M 16741  16812M 16812  16850M 16863  16999M
             17113M 17122M 17122  17188M 17278  17408M 17460M 17543M 17548  17567  17575M 17627M 17700M 17705  17725M
             17726  17820M 17825  17896M 17896  17934M 17947  18083M 18197M 18206M 18206  18272M 18340  18450M 18507M
             18507  18595  18786M 18786  18787M 18865  18990M 18990  19029D 19035  19036  19125M 19125  19164D 19170
             19171  19220  19233M 19234M 19234  19240M 19294  19356D 19372M 19373M 19373  19382M 19454D 19502M 19503M
             19503  19509M 19551  19577M 19578M 19578  19587M 19656D 19684M 19685M 19685  19691M 19738  19764M 19765M
             19765  19774M 19890M 19916M 19916  19917M 19983M 20103M 20259M 20260M 20260  20266M 20315  20341M 20342M
             20342  20351M 20428M 20429M 20429  20438M 20439M 20456M 20498
     1(1)      987U  4457   5138M  5139M  5140   5600M  5622   5659M  5687   6313M  6345   6370M  6445   7754M  7776
              7813M  7846   8628M  9173M  9195   9220M  9262   9508M  9623M  9623   9650   9675M  9703  10009M 10009
             10032  10057M 10085  10268M 10341M 10341  10368  10393M 10421  10604M 10677M 10677  10704  10729M 10778
             10985M 11076M 11162M 11292M 11292  11327  11352M 11401  11586M 11715M 11715  11740  11765M 11806  11980M
             12070M 12128M 12128  12153  12178M 12206  12404M 12421M 12506M 12506  12533  12558M 12586  12784M 12816M
             12833M 12857M 12857  12884  12909M 12937  13159M 13183M 13200M 13231  13251M 13279  13499M 13506M 13533
             13553M 13581  14507M 14535  14867M 14895  15067M 15158M 15187M 15187  15223  15249M 15277  15558M 15648M
             15694M 15694  15737M 15737  15843M 15843  15878  15909M 15954  16141M 16215M 16215  16242  16268M 16319
             16526M 16543M 16643M 16821M 16821  16851M 16952M 16952  17129M 17149M 17149  17188  17227M 17278  17472M
             17639M 17727M 17905M 17905  17935M 18036M 18036  18213M 18233M 18233  18272  18311M 18340  18550M 18595
             18812M 18865  19379M 19381  19382M 19476M 19485M 19487  19584M 19586  19587M 19662M 19672  19673M 19728
             19771M 19773  19774M 19911M 19912M 19917M 19920  19922M 19935  20195M 20348M 20350  20351M 20435M 20437
             20438M
     2(2)      983U  4457   4651M  4735M  4814M  5006M  5102M  5183M  5379M  5433M  5587M  5659M  5687   5881M  6057M
              6286M  6370M  6445   6638M  6722M  6801M  6976M  7072M  7159M  7401M  7500M  7560M  7740M  7813M  7846
              8039M  8219M  8493M  8580M  8871M  8953M  9017M  9075M  9159M  9220M  9262   9422M  9609M  9675M  9703
              9863M  9995M 10057M 10085  10245M 10327M 10393M 10421  10581M 10663M 10729M 10778  10974M 11151M 11253M
             11352M 11401  11575M 11677M 11765M 11806  11969M 12059M 12178M 12206  12364M 12492M 12558M 12586  12744M
             12909M 12937  13088M 13141M 13251M 13279  13428M 13481M 13553M 13581  13743M 13811M 14439M 14507M 14535
             14697M 14754M 14867M 14895  15056M 15249M 15277  15453M 15532M 15909M 15954  16118M 16201M 16268M 16319
             16486M 17103M 17227M 17278  17450M 17617M 18187M 18311M 18340  18550M 18595  18812M 18865  19880M 20195M
     3(3)      979U  4457   4495M  4505U  4655   4657M  4739   4741M  4818   4820M  5010   5012M  5106   5108M  5187
              5189M  5259   5383   5385M  5437   5439M  5591   5593M  5646U  5659M  5687   5725M  5735U  5885   5887M
              6061   6063M  6290   6292M  6357U  6370M  6445   6482M  6492U  6642   6644M  6726   6728M  6805   6807M
              6980   6982M  7076   7078M  7163   7165M  7234   7299   7405   7407M  7504   7506M  7564   7566M  7744
              7746M  7800U  7813M  7846   7883M  7893U  8043   8045M  8223   8225M  8497   8499M  8584   8586M  8660
              8752   8875   8877M  8957   8959M  9021   9023M  9079   9081M  9163   9165M  9207U  9220M  9262   9308U
              9325M  9426   9428M  9613   9615M  9662U  9675M  9703   9749U  9766M  9867   9869M  9999  10001M 10044U
             10057M 10085  10131U 10148M 10249  10251M 10331  10333M 10380U 10393M 10421  10467U 10484M 10585  10587M
             10667  10669M 10716U 10729M 10778  10815M 10825U 10978  10980M 11155  11157M 11257  11259M 11339U 11352M
1         (FILECA) (09:39) (22MAR04) General Purpose Register Cross Reference                                               Page  158
             11401  11438M 11448U 11579  11581M 11681  11683M 11752U 11765M 11806  11843M 11853U 11973  11975M 12063
             12065M 12165U 12178M 12206  12243M 12253U 12368  12370M 12496  12498M 12545U 12558M 12586  12623M 12633U
             12748  12750M 12896U 12909M 12937  12974M 12984U 13092  13094M 13145  13147M 13238U 13251M 13279  13316M
             13326U 13432  13434M 13485  13487M 13540U 13553M 13581  13618M 13628U 13747  13749M 13815  13817M 14443
             14445M 14494U 14507M 14535  14572M 14582U 14701  14703M 14758  14760M 14854U 14867M 14895  14932M 14942U
             15060  15062M 15236U 15249M 15277  15314M 15324U 15457  15459M 15536  15538M 15896U 15909M 15954  15991M
             16001U 16122  16124M 16205  16207M 16255U 16268M 16319  16363M 16373U 16490  16492M 17107  17109M 17214U
             17227M 17278  17322M 17332U 17454  17456M 17621  17623M 18191  18193M 18298U 18311M 18340  18550M 18595
             18812M 18865  18902M 18912U 19215  19277  19536  19718  19884  19886M 20182U 20195M
     4(4)      975U  4457   4518U  5468U  5471U  5633U  5636U  5641U  5659M  5687   5748U  6352U  6370M  6445   6505U
              7595U  7598U  7787U  7790U  7795U  7813M  7846   7906U  9202U  9220M  9262   9321U  9657U  9675M  9703
              9762U 10039U 10057M 10085  10144U 10375U 10393M 10421  10480U 10711U 10729M 10778  10838U 11334U 11352M
             11401  11461U 11747U 11765M 11806  11866U 12123M 12160U 12178M 12206  12266U 12540U 12558M 12586  12646U
             12891U 12909M 12937  13251M 13279  13553M 13581  13641U 14489U 14507M 14535  14595U 14849U 14867M 14895
             14955U 15231U 15249M 15277  15337U 15891U 15909M 15954  16014U 16250U 16268M 16319  16386U 17209U 17227M
             17278  17345U 18293U 18311M 18340  18550M 18595  18812M 18865  19036M 19041M 19171M 19176M 20195M
     5(5)      971U  4457   4652M  4736M  4815M  5007M  5103M  5184M  5380M  5434M  5588M  5659M  5687   5882M  6058M
              6287M  6370M  6445   6639M  6723M  6802M  6977M  7073M  7160M  7402M  7501M  7561M  7741M  7813M  7846
              8040M  8220M  8494M  8581M  8872M  8954M  9018M  9076M  9160M  9220M  9262   9423M  9610M  9675M  9703
              9864M  9996M 10057M 10085  10246M 10328M 10393M 10421  10582M 10664M 10729M 10778  10975M 11152M 11254M
             11352M 11401  11576M 11678M 11765M 11806  11970M 12060M 12122M 12123M 12178M 12206  12365M 12493M 12558M
             12586  12745M 12909M 12937  13089M 13142M 13251M 13279  13429M 13482M 13553M 13581  13744M 13812M 14440M
             14507M 14535  14698M 14755M 14867M 14895  15057M 15249M 15277  15454M 15533M 15909M 15954  16119M 16202M
             16268M 16319  16487M 17104M 17227M 17278  17451M 17618M 18188M 18311M 18340  18550M 18595  18812M 18865
             18933M 18934M 18935M 18970  19041M 19077M 19105  19176M 19881M 20195M 20235U 20365U 20404U 20524U
     6(6)      967U  4457   5659M  5687   6370M  6445   7813M  7846   9220M  9262   9675M  9703  10057M 10085  10393M
             10421  10729M 10778  11352M 11401  11765M 11806  12178M 12206  12558M 12586  12909M 12937  13251M 13279
             13553M 13581  14507M 14535  14867M 14895  15249M 15277  15909M 15954  16268M 16319  17227M 17278  18311M
             18340  18550M 18595  18812M 18865  19477M 19489  20195M
     7(7)      963U  4457   5659M  5687   6370M  6445   7813M  7846   9220M  9262   9675M  9703  10057M 10085  10393M
             10421  10729M 10778  11352M 11401  11765M 11806  12178M 12206  12558M 12586  12909M 12937  13251M 13279
             13553M 13581  14507M 14535  14867M 14895  15249M 15277  15909M 15954  16268M 16319  17227M 17278  18311M
             18340  18550M 18595  18812M 18865  19478M 19480M 19481M 19482M 19482N 19483  19489  20195M 20216M 20226U
             20371U 20385M 20395U 20530U
     8(8)      959U  4457   5659M  5687   6370M  6445   7813M  7846   9220M  9262   9675M  9703  10057M 10085  10393M
             10421  10729M 10778  11352M 11401  11765M 11806  12178M 12206  12558M 12586  12909M 12937  13251M 13279
             13553M 13581  14507M 14535  14867M 14895  15249M 15277  15671M 15721M 15733  15787M 15789M 15800U 15828M
             15886U 15909M 15954  16268M 16319  16791U 16803M 16872  16873M 16893  16902M 17028M 17204U 17227M 17278
             17875U 17887M 17956  17957M 17977  17986M 18112M 18288U 18311M 18340  18550M 18595  18812M 18865  19041M
             19176M 20195M
     9(9)      955U  4457   4653M  4656M  4656B  4737M  4740M  4740B  4816M  4819M  4819B  5008M  5011M  5011B  5104M
              5107M  5107B  5185M  5188M  5188B  5381M  5384M  5384B  5435M  5438M  5438B  5589M  5592M  5592B  5659M
              5687   5883M  5886M  5886B  6059M  6062M  6062B  6288M  6291M  6291B  6370M  6445   6640M  6643M  6643B
              6724M  6727M  6727B  6803M  6806M  6806B  6978M  6981M  6981B  7074M  7077M  7077B  7161M  7164M  7164B
              7403M  7406M  7406B  7502M  7505M  7505B  7562M  7565M  7565B  7742M  7745M  7745B  7813M  7846   8041M
              8044M  8044B  8221M  8224M  8224B  8397M  8397   8398M  8399   8406M  8407   8495M  8498M  8498B  8582M
              8585M  8585B  8692M  8715M  8715   8818M  8818   8824   8873M  8876M  8876B  8955M  8958M  8958B  9019M
              9022M  9022B  9077M  9080M  9080B  9161M  9164M  9164B  9220M  9262   9424M  9427M  9427B  9611M  9614M
              9614B  9675M  9703   9865M  9868M  9868B  9997M 10000M 10000B 10057M 10085  10247M 10250M 10250B 10329M
             10332M 10332B 10393M 10421  10583M 10586M 10586B 10665M 10668M 10668B 10729M 10778  10976M 10979M 10979B
             11153M 11156M 11156B 11255M 11258M 11258B 11352M 11401  11577M 11580M 11580B 11679M 11682M 11682B 11765M
             11806  11971M 11974M 11974B 12061M 12064M 12064B 12178M 12206  12366M 12369M 12369B 12494M 12497M 12497B
             12558M 12586  12746M 12749M 12749B 12909M 12937  13090M 13093M 13093B 13143M 13146M 13146B 13251M 13279
             13430M 13433M 13433B 13483M 13486M 13486B 13553M 13581  13745M 13748M 13748B 13813M 13816M 13816B 14441M
             14444M 14444B 14459M 14481  14507M 14535  14699M 14702M 14702B 14756M 14759M 14759B 14867M 14895  15058M
             15061M 15061B 15249M 15277  15455M 15458M 15458B 15534M 15537M 15537B 15786M 15787M 15790M 15834M 15909M
             15954  16120M 16123M 16123B 16203M 16206M 16206B 16268M 16319  16488M 16491M 16491B 16799U 16849M 16873
             16881M 16903M 17000M 17019  17029M 17105M 17108M 17108B 17227M 17278  17452M 17455M 17455B 17619M 17622M
             17622B 17883U 17933M 17957  17965M 17987M 18084M 18103  18113M 18189M 18192M 18192B 18311M 18340  18372M
1         (FILECA) (09:39) (22MAR04) General Purpose Register Cross Reference                                               Page  159
             18382U 18537U 18550M 18595  18632M 18642U 18799U 18812M 18865  19040M 19040  19041M 19175M 19175  19176M
             19484M 19489M 19882M 19885M 19885B 20195M 20359B 20518B
    10(A)      951U  4457   4458M  4468U  4654   4655M  4657   4658M  4738   4739M  4741   4742M  4817   4818M  4820
              4821M  5009   5010M  5012   5013M  5105   5106M  5108   5109M  5186   5187M  5189   5190M  5382   5383M
              5385   5386M  5436   5437M  5439   5440M  5590   5591M  5593   5594M  5656U  5659M  5687   5688M  5698U
              5884   5885M  5887   5888M  6060   6061M  6063   6064M  6289   6290M  6292   6293M  6367U  6370M  6445
              6446M  6456U  6641   6642M  6644   6645M  6725   6726M  6728   6729M  6804   6805M  6807   6808M  6979
              6980M  6982   6983M  7075   7076M  7078   7079M  7162   7163M  7165   7166M  7404   7405M  7407   7408M
              7503   7504M  7506   7507M  7563   7564M  7566   7567M  7743   7744M  7746   7747M  7810U  7813M  7846
              7847M  7857U  8042   8043M  8045   8046M  8222   8223M  8225   8226M  8496   8497M  8499   8500M  8583
              8584M  8586   8587M  8874   8875M  8877   8878M  8956   8957M  8959   8960M  9020   9021M  9023   9024M
              9078   9079M  9081   9082M  9162   9163M  9165   9166M  9217U  9220M  9262   9263M  9273U  9425   9426M
              9428   9429M  9612   9613M  9615   9616M  9672U  9675M  9703   9704M  9714U  9866   9867M  9869   9870M
              9998   9999M 10001  10002M 10054U 10057M 10085  10086M 10096U 10248  10249M 10251  10252M 10330  10331M
             10333  10334M 10390U 10393M 10421  10422M 10432U 10584  10585M 10587  10588M 10666  10667M 10669  10670M
             10726U 10729M 10778  10779M 10789U 10977  10978M 10980  10981M 11154  11155M 11157  11158M 11256  11257M
             11259  11260M 11349U 11352M 11401  11402M 11412U 11578  11579M 11581  11582M 11680  11681M 11683  11684M
             11762U 11765M 11806  11807M 11817U 11972  11973M 11975  11976M 12062  12063M 12065  12066M 12175U 12178M
             12206  12207M 12217U 12367  12368M 12370  12371M 12495  12496M 12498  12499M 12555U 12558M 12586  12587M
             12597U 12747  12748M 12750  12751M 12906U 12909M 12937  12938M 12948U 13091  13092M 13094  13095M 13144
             13145M 13147  13148M 13248U 13251M 13279  13280M 13290U 13431  13432M 13434  13435M 13484  13485M 13487
             13488M 13550U 13553M 13581  13582M 13592U 13746  13747M 13749  13750M 13814  13815M 13817  13818M 14442
             14443M 14445  14446M 14504U 14507M 14535  14536M 14546U 14700  14701M 14703  14704M 14757  14758M 14760
             14761M 14864U 14867M 14895  14896M 14906U 15059  15060M 15062  15063M 15246U 15249M 15277  15278M 15288U
             15456  15457M 15459  15460M 15535  15536M 15538  15539M 15906U 15909M 15954  15955M 15965U 16121  16122M
             16124  16125M 16204  16205M 16207  16208M 16265U 16268M 16319  16320M 16330U 16489  16490M 16492  16493M
             17106  17107M 17109  17110M 17224U 17227M 17278  17279M 17289U 17453  17454M 17456  17457M 17620  17621M
             17623  17624M 18190  18191M 18193  18194M 18308U 18311M 18340  18341M 18351U 18547U 18550M 18595  18596M
             18606U 18809U 18812M 18865  18866M 18876U 19883  19884M 19886  19887M 20192U 20195M 20244U 20300  20377U
             20413U 20483  20536U
    11(B)      947U  4457   4654M  4658   4738M  4742   4817M  4821   5009M  5013   5105M  5109   5186M  5190   5382M
              5386   5436M  5440   5590M  5594   5659M  5687   5884M  5888   6060M  6064   6289M  6293   6370M  6445
              6641M  6645   6725M  6729   6804M  6808   6979M  6983   7075M  7079   7162M  7166   7404M  7408   7503M
              7507   7563M  7567   7743M  7747   7813M  7846   8042M  8046   8222M  8226   8496M  8500   8583M  8587
              8874M  8878   8956M  8960   9020M  9024   9078M  9082   9162M  9166   9220M  9262   9425M  9429   9612M
              9616   9675M  9703   9866M  9870   9998M 10002  10057M 10085  10248M 10252  10330M 10334  10393M 10421
             10584M 10588  10666M 10670  10729M 10778  10977M 10981  11154M 11158  11256M 11260  11352M 11401  11578M
             11582  11680M 11684  11765M 11806  11972M 11976  12062M 12066  12178M 12206  12367M 12371  12495M 12499
             12558M 12586  12747M 12751  12909M 12937  13091M 13095  13144M 13148  13251M 13279  13431M 13435  13484M
             13488  13553M 13581  13746M 13750  13814M 13818  14442M 14446  14507M 14535  14700M 14704  14757M 14761
             14867M 14895  15059M 15063  15249M 15277  15456M 15460  15535M 15539  15909M 15954  16121M 16125  16204M
             16208  16268M 16319  16489M 16493  17106M 17110  17227M 17278  17453M 17457  17620M 17624  18190M 18194
             18311M 18340  18550M 18595  18812M 18865  19883M 19887  20195M
    12(C)      943U  4457   4472   4473M  4474   4484U  4493   5651U  5659M  5659   5660   5687   5702   5703M  5704
              5714U  5723   6362U  6370M  6370   6371   6445   6460   6461M  6462   6472U  6481   7805U  7813M  7813
              7814   7846   7861   7862M  7863   7873U  7882   9212U  9220M  9220   9221   9262   9277   9278M  9279
              9289U  9298   9667U  9675M  9675   9676   9703   9718   9719M  9720   9730U  9739  10049U 10057M 10057
             10058  10085  10100  10101M 10102  10112U 10121  10385U 10393M 10393  10394  10421  10436  10437M 10438
             10448U 10457  10721U 10729M 10729  10730  10778  10793  10794M 10795  10805U 10814  11344U 11352M 11352
             11353  11401  11416  11417M 11418  11428U 11437  11757U 11765M 11765  11766  11806  11821  11822M 11823
             11833U 11842  12170U 12178M 12178  12179  12206  12221  12222M 12223  12233U 12242  12550U 12558M 12558
             12559  12586  12601  12602M 12603  12613U 12622  12901U 12909M 12909  12910  12937  12952  12953M 12954
             12964U 12973  13243U 13251M 13251  13252  13279  13294  13295M 13296  13306U 13315  13545U 13553M 13553
             13554  13581  13596  13597M 13598  13608U 13617  14499U 14507M 14507  14508  14535  14550  14551M 14552
             14562U 14571  14859U 14867M 14867  14868  14895  14910  14911M 14912  14922U 14931  15241U 15249M 15249
             15250  15277  15292  15293M 15294  15304U 15313  15901U 15909M 15909  15910  15954  15969  15970M 15971
             15981U 15990  16260U 16268M 16268  16269  16319  16334  16335M 16336  16346U 16355  17219U 17227M 17227
             17228  17278  17293  17294M 17295  17305U 17314  18303U 18311M 18311  18312  18340  18355  18356M 18357
             18367U 18371  18542U 18550M 18550  18551  18595  18610  18611M 18612  18622U 18631  18804U 18812M 18812
1         (FILECA) (09:39) (22MAR04) General Purpose Register Cross Reference                                               Page  160
             18813  18865  18880  18881M 18882  18892U 18901  20187U 20195M 20195  20196
    13(D)      939U  4457   4457   4472   4473   4493M  4539U  4611   4629M  4646M  4659   4660M  4695   4713M  4730M
              4743   4744M  4774   4792M  4809M  4822   4823M  4881U  4884U  4966   4984M  5001M  5014   5015M  5062
              5080M  5097M  5110   5111M  5143   5161M  5178M  5191   5192M  5207U  5210U  5237U  5240U  5299U  5302U
              5339   5357M  5374M  5387   5388M  5393   5411M  5428M  5441   5442M  5547   5565M  5582M  5595   5596M
              5659M  5667U  5687   5687   5702   5703   5723M  5769U  5841   5859M  5876M  5889   5890M  5933U  5936U
              6017   6035M  6052M  6065   6066M  6246   6264M  6281M  6294   6295M  6324U  6327U  6370M  6378U  6445
              6445   6460   6461   6481M  6526U  6598   6616M  6633M  6646   6647M  6682   6700M  6717M  6730   6731M
              6761   6779M  6796M  6809   6810M  6850U  6853U  6936   6954M  6971M  6984   6985M  7032   7050M  7067M
              7080   7081M  7119   7137M  7154M  7167   7168M  7181U  7184U  7212U  7215U  7277U  7280U  7321U  7324U
              7361   7379M  7396M  7409   7410M  7460   7478M  7495M  7508   7509M  7520   7538M  7555M  7568   7569M
              7700   7718M  7735M  7748   7749M  7813M  7821U  7846   7846   7861   7862   7882M  7927U  7999   8017M
              8034M  8047   8048M  8094U  8097U  8179   8197M  8214M  8227   8228M  8453   8471M  8488M  8501   8502M
              8540   8558M  8575M  8588   8589M  8606U  8609U  8638U  8641U  8730U  8733U  8777U  8780U  8831   8849M
              8866M  8879   8880M  8913   8931M  8948M  8961   8962M  8977   8995M  9012M  9025   9026M  9035   9053M
              9070M  9083   9084M  9119   9137M  9154M  9167   9168M  9220M  9228U  9262   9262   9277   9278   9298M
              9336U  9382   9400M  9417M  9430   9431M  9569   9587M  9604M  9617   9618M  9675M  9683U  9703   9703
              9718   9719   9739M  9777U  9823   9841M  9858M  9871   9872M  9955   9973M  9990M 10003  10004M 10057M
             10065U 10085  10085  10100  10101  10121M 10159U 10205  10223M 10240M 10253  10254M 10287  10305M 10322M
             10335  10336M 10393M 10401U 10421  10421  10436  10437  10457M 10495U 10541  10559M 10576M 10589  10590M
             10623  10641M 10658M 10671  10672M 10729M 10737U 10778  10778  10793  10794  10814M 10860U 10934  10952M
             10969M 10982  10983M 11029U 11032U 11111  11129M 11146M 11159  11160M 11213  11231M 11248M 11261  11262M
             11306U 11309U 11352M 11360U 11401  11401  11416  11417  11437M 11483U 11535  11553M 11570M 11583  11584M
             11637  11655M 11672M 11685  11686M 11765M 11773U 11806  11806  11821  11822  11842M 11881U 11929  11947M
             11964M 11977  11978M 12019  12037M 12054M 12067  12068M 12178M 12186U 12206  12206  12221  12222  12242M
             12281U 12324  12342M 12359M 12372  12373M 12452  12470M 12487M 12500  12501M 12558M 12566U 12586  12586
             12601  12602  12622M 12661U 12704  12722M 12739M 12752  12753M 12909M 12917U 12937  12937  12952  12953
             12973M 12999U 13048  13066M 13083M 13096  13097M 13101  13119M 13136M 13149  13150M 13251M 13259U 13279
             13279  13294  13295  13315M 13341U 13388  13406M 13423M 13436  13437M 13441  13459M 13476M 13489  13490M
             13553M 13561U 13581  13581  13596  13597  13617M 13656U 13703  13721M 13738M 13751  13752M 13771  13789M
             13806M 13819  13820M 14399  14417M 14434M 14447  14448M 14507M 14515U 14535  14535  14550  14551  14571M
             14610U 14657  14675M 14692M 14705  14706M 14714  14732M 14749M 14762  14763M 14867M 14875U 14895  14895
             14910  14911  14931M 14969U 15016  15034M 15051M 15064  15065M 15111U 15114U 15202U 15205U 15249M 15257U
             15277  15277  15292  15293  15313M 15351U 15413  15431M 15448M 15461  15462M 15492  15510M 15527M 15540
             15541M 15601U 15604U 15857U 15860U 15909M 15917U 15954  15954  15969  15970  15990M 16028U 16078  16096M
             16113M 16126  16127M 16161  16179M 16196M 16209  16210M 16268M 16276U 16319  16319  16334  16335  16355M
             16402U 16446  16464M 16481M 16494  16495M 16595U 16598U 16713U 16716U 17063  17081M 17098M 17111  17112M
             17167U 17170U 17227M 17235U 17278  17278  17293  17294  17314M 17361U 17410  17428M 17445M 17458  17459M
             17520U 17523U 17577  17595M 17612M 17625  17626M 17797U 17800U 18147  18165M 18182M 18195  18196M 18251U
             18254U 18311M 18319U 18340  18340  18355  18356  18371M 18550M 18595  18595  18610  18611  18631M 18812M
             18865  18865  18880  18881  18901M 18952U 19194U 19197U 19255U 19258U 19840  19858M 19875M 19888  19889M
             20195M 20203U 20247  20248M 20281U 20357M 20416  20417M 20516M
    14(E)      935U  4457   4568M  4587M  4587   4604M  4927M  4963M  4963   5059M  5059   5227M  5264M  5331M  5336M
              5336   5508M  5533M  5621M  5659M  5661B  5687   5798M  5817M  5817   5834M  5979M  5993M  5993   6010M
              6186M  6187M  6188M  6189   6344M  6370M  6372B  6445   6555M  6574M  6574   6591M  6896M  6933M  6933
              7029M  7029   7087M  7087   7088M  7095M  7106   7116   7201M  7238M  7306M  7353M  7358M  7358   7433M
              7433   7434M  7435M  7451M  7451   7457   7661M  7686M  7775M  7813M  7815B  7846   7956M  7975M  7975
              7992M  8140M  8155M  8155   8172M  8309M  8310M  8311M  8312   8450M  8450   8508M  8508   8509M  8516M
              8527   8537   8626M  8664M  8761M  8809M  8828M  8828   8886M  8886   8887M  8888M  8904M  8904   8910
              8974M  8974   9032M  9032   9194M  9220M  9222B  9262   9365M  9379M  9379   9487M  9487   9488M  9495
              9564   9649M  9675M  9677B  9703   9806M  9820M  9820   9928M  9928   9929M  9930M  9946M  9946   9952
             10031M 10057M 10059B 10085  10188M 10202M 10202  10367M 10393M 10395B 10421  10524M 10538M 10538  10703M
             10729M 10731B 10778  10889M 10931M 11075M 11103M 11103  11105M 11184M 11186M 11187  11190M 11191M 11192
             11284M 11285M 11286  11326M 11352M 11354B 11401  11512M 11527M 11527  11529M 11608M 11610M 11611  11614M
             11615M 11616  11708M 11709M 11710  11739M 11765M 11767B 11806  11910M 11926M 12016M 12121M 12123M 12152M
             12178M 12180B 12206  12310M 12532M 12558M 12560B 12586  12690M 12883M 12909M 12911B 12937  13028M 13045M
             13045  13230M 13251M 13253B 13279  13370M 13385M 13385  13532M 13553M 13555B 13581  13685M 13700M 13700
             13768M 13768  14480M 14507M 14509B 14535  14639M 14654M 14654  14711M 14711  14837M 14867M 14869B 14895
             14998M 15010M 15157M 15222M 15249M 15251B 15277  15380M 15410M 15410  15486M 15647M 15716D 15718M 15718
1         (FILECA) (09:39) (22MAR04) General Purpose Register Cross Reference                                               Page  161
             15719M 15720U 15721N 15781M 15781  15782M 15785M 15787M 15877M 15909M 15911B 15954  16057M 16071M 16071
             16241M 16268M 16270B 16319  16431M 16442M 16641M 16664D 16666M 16666  16667M 16668U 16670  16781M 16997M
             17019  17187M 17227M 17229B 17278  17390M 17403M 17566M 17573M 17723M 17724M 17725  17748D 17750M 17750
             17751M 17752U 17754  17865M 18081M 18103  18271M 18311M 18313B 18340  18403D 18405M 18405  18406M 18407U
             18408M 18408N 18425M 18446U 18463  18519M 18519N 18525  18532U 18550M 18552B 18595  18664D 18666M 18666
             18667M 18668U 18669M 18669N 18686M 18709U 18724  18777M 18777N 18794U 18812M 18814B 18865  18981M 19116M
             19219M 19309M 19380M 19382M 19388M 19398U 19471U 19566M 19585M 19587M 19593M 19603U 19669U 19753M 19772M
             19774M 19780M 19790U 19923M 19976M 19996M 20021M 20096M 20174U 20195M 20197B 20330M 20349M 20351M 20436M
             20438M 20514M
    15(F)      931U  4457   4458   4567M  4568B  4583M  4583   4661   4745   4824   4926M  4927B  4959M  4959   5016
              5112   5141M  5193   5226M  5227B  5263M  5264B  5330M  5331B  5389   5443   5509M  5534M  5597   5620M
              5621B  5659M  5687   5688   5797M  5798B  5813M  5813   5891   5978M  5979B  5989M  5989   6067   6185M
              6186B  6244M  6296   6343M  6344B  6370M  6445   6446   6554M  6555B  6570M  6570   6648   6732   6811
              6895M  6896B  6929M  6929   6986   7082   7093M  7093   7094M  7106   7117M  7169   7200M  7201B  7237M
              7238B  7305M  7306B  7352M  7353B  7411   7458M  7510   7570   7662M  7687M  7750   7774M  7775B  7813M
              7846   7847   7955M  7956B  7971M  7971   8049   8139M  8140B  8151M  8151   8229   8308M  8309B  8404M
              8404   8405M  8406   8503   8514M  8514   8515M  8527   8538M  8590   8625M  8626B  8663M  8664B  8760M
              8761B  8808M  8809B  8881   8911M  8963   9027   9085   9109M  9109   9110M  9111M  9113   9117M  9169
              9193M  9194B  9220M  9262   9263   9364M  9365B  9432   9464   9465M  9466M  9467M  9468M  9468   9469M
              9469   9493M  9493   9494M  9495M  9535   9542M  9559   9564M  9566   9567M  9619   9648M  9649B  9675M
              9703   9704   9805M  9806B  9873   9905   9906M  9907M  9908M  9909M  9909   9910M  9910   9953M 10005
             10030M 10031B 10057M 10085  10086  10187M 10188B 10255  10285M 10337  10366M 10367B 10393M 10421  10422
             10523M 10524B 10591  10621M 10673  10702M 10703B 10729M 10778  10779  10888M 10889B 10930M 10930  10984
             11074M 11075B 11104M 11105M 11106  11107  11161  11263  11325M 11326B 11352M 11401  11402  11511M 11512B
             11528M 11529M 11530  11531  11585  11687  11738M 11739B 11765M 11806  11807  11909M 11910B 11925M 11925
             11979  12015M 12015  12069  12096M 12096  12097M 12109  12116M 12122  12123M 12151M 12152B 12178M 12206
             12207  12309M 12310B 12374  12502  12531M 12532B 12558M 12586  12587  12689M 12690B 12754  12882M 12883B
             12909M 12937  12938  13027M 13028B 13098  13151  13229M 13230B 13251M 13279  13280  13369M 13370B 13438
             13491  13531M 13532B 13553M 13581  13582  13684M 13685B 13753  13821  14377  14378M 14379M 14380M 14381M
             14381  14382M 14382  14397M 14449  14479M 14480B 14507M 14535  14536  14638M 14639B 14707  14764  14796
             14797M 14798M 14799M 14800M 14800  14801M 14801  14836M 14837B 14867M 14895  14896  14997M 14998B 15014M
             15014  15066  15156M 15157B 15221M 15222B 15249M 15277  15278  15379M 15380B 15463  15490M 15490  15542
             15646M 15647B 15730M 15730  15731M 15732M 15732N 15733M 15746M 15746  15766  15773M 15782M 15783  15784M
             15786  15787M 15876M 15877B 15909M 15954  15955  16056M 16057B 16075M 16075  16128  16159M 16211  16240M
             16241B 16268M 16319  16320  16430M 16431B 16443M 16496  16640M 16641B 16780M 16781B 16847M 16847  16848M
             16849N 16872M 16893  16933M 16995M 16995  16996M 16997N 16998M 16999  17035M 17052M 17113  17186M 17187B
             17227M 17278  17279  17389M 17390B 17407M 17407  17460  17565M 17566B 17574M 17627  17722M 17723B 17864M
             17865B 17931M 17931  17932M 17933N 17956M 17977  18017M 18079M 18079  18080M 18081N 18082M 18083  18119M
             18136M 18197  18270M 18271B 18311M 18340  18341  18434M 18434  18435M 18436M 18436N 18463  18550M 18595
             18596  18695M 18695  18696M 18697M 18697N 18724  18812M 18865  18866  18980M 18981B 19016  19017M 19018M
             19019M 19020M 19020  19021M 19021  19115M 19116B 19151  19152M 19153M 19154M 19155M 19155  19156M 19156
             19218M 19219B 19308M 19309B 19343  19344M 19345M 19346M 19347M 19347  19348M 19348  19381M 19382M 19441
             19442M 19443M 19444M 19445M 19445  19446M 19446  19565M 19566B 19586M 19587M 19608M 19609M 19609N 19643
             19644M 19645M 19646M 19647M 19647  19648M 19648  19752M 19753B 19773M 19774M 19890  19943M 19953U 19966U
             19982M 20064M 20074U 20087U 20102M 20195M 20329M 20330B 20350M 20351M 20437M 20438M 20513M 20514B

1FILECAT  (FILECA) (09:39) (22MAR04) Diagnostic Cross Reference and Assembler Summary                                       Page  162
-                                                                                            HLASM R4.0  2004/03/22 09.39
0     No Statements Flagged in this Assembly
 HIGH LEVEL ASSEMBLER, 5696-234, RELEASE 4.0, PTF UQ57391
0SYSTEM: OS/390 02.10.00            JOBNAME: PJG#FCAT    STEPNAME: ASM        PROCSTEP: (NOPROC)
0Datasets Allocated for this Assembly
  Con DDname   Dataset Name                                 Volume  Member
   P1 SYSIN    SYS04082.T093903.RA000.PJG#FCAT.INPUT.H01    SCR101
   L1 SYSLIB   SYS3.DUMMYMAC                                SYSB02
   L2          WYL.GG.ORV.MACLIB                            SYSB02
   L3          WYL.GG.SYS.MACLIB                            SYSB05
      SYSLIN   WYL.GG.PJG.OBJ                               SYSB05  FILECAT
      SYSPRINT SYS04082.T093903.RA000.PJG#FCAT.PRINT.H01    SCR100
      SYSTERM  GG$PJG.PJG#FCAT.JOB05932.D0000103.?

    7812K allocated to Buffer Pool,         2633K would be required for this to be an In-Storage Assembly
    1901 Primary Input Records Read         5874 Library Records Read                  0 Work File Reads
       0 ASMAOPT Records Read              12697 Primary Print Records Written         0 Work File Writes
     413 Punch Records Written                 0 ADATA Records Written
0Assembly Start Time: 09.39.04 Stop Time: 09.39.14 Processor Time: 00.00.04.1103
 Return Code 000
