1                        J E S 2  J O B  L O G  --  S Y S T E M  S Y S B  --  N O D E  R L G
0
 09.46.17 JOB05973 ---- MONDAY,    22 MAR 2004 ----
 09.46.17 JOB05973  ICH70001I GG$PJG   LAST ACCESS AT 09:46:10 ON MONDAY, MARCH 22, 2004
 09.46.17 JOB05973  $HASP373 PJG#VCR  STARTED - INIT 2    - CLASS E - SYS SYSB
 09.46.17 JOB05973  ***  HCMD      STEP $$QUIET
 09.46.17 JOB05973  PURGE * Q=OUTPUT MULTIPLE
 09.46.17 JOB05973  JOB PJG#VCR NOT IN OUTPUT QUEUE
 09.46.18 JOB05973  PJG#VCR .$$QUIET .         RC=0008 TapeIO=0000 DiskIO=0000 CPU=  .01s Elapsed=77.72s
 09.46.18 JOB05973  PJG#VCR .$CND    .         RC=Zero TapeIO=0000 DiskIO=0002 CPU=  .01s Elapsed=78.75s
 09.46.19 JOB05973  PJG#VCR .$UNP    .         RC=Zero TapeIO=0000 DiskIO=0014 CPU=  .05s Elapsed=78.86s
 09.46.21 JOB05973  PJG#VCR .ASM     .         RC=Zero TapeIO=0000 DiskIO=0221 CPU=  .95s Elapsed=79.05s
 09.46.21 JOB05973  PJG#VCR .$EDIT   .         RC=Zero TapeIO=0000 DiskIO=0054 CPU=  .21s Elapsed=81.10s
 09.46.21 JOB05973  PJG#VCR  Ended.  Name=Module: VCR                    Total CPU= 1.23s Elapsed=77.72s
 09.46.21 JOB05973
 09.46.21 JOB05973  Execution charges   Priority=Standard   Block=Day
 09.46.21 JOB05973
 09.46.21 JOB05973  CPU Usage          22.31          $13.83   Standard Processing Unit Equivalent
 09.46.21 JOB05973                                   =======
 09.46.21 JOB05973                                    $13.83   Total Job execution charge
 09.46.21 JOB05973
 09.46.21 JOB05973  See back separator page for print charges
 09.46.21 JOB05973
 09.46.21 JOB05973  $HASP395 PJG#VCR  ENDED  ASM=0
1        1 //PJG#VCR  JOB PJG$GG,'Module: VCR',TIME=1,MSGCLASS=C                   JOB05973
           /*JOBPARM HOLD=OUTPUT,LINES=50,CHARS=TN15,NOTIFY=YES
         2 //       EXEC PURGEOLD
         3 XXPURGEOLD PROC
           XX*
           XX* This proc is maintained by Jim Stosick
           XX*
         4 XX$$QUIET  EXEC PGM=HCMDX,PARM='PURGE * Q=OUTPUT MULTIPLE',
           XX         ACCT=(PURGEOLD,SYS3)
         5 //$CND   EXEC PGM=BILBO,REGION=512K,PARM='RECS=100'
         6 //STEPLIB  DD DSN=WYL.GG.ORV.LINKLIB,DISP=SHR
         7 //SYSPRINT DD SYSOUT=$
         8 //SYSUT1   DD DSN=WYL.GG.PJG.OBJ,DISP=OLD
         9 //SYSUT2   DD DSN=WYL.GG.PJG.OBJ,DISP=OLD
        10 //SYSIN    DD DUMMY
        11 //$UNP   EXEC PGM=WUNPRESS,PARM='NUM'
        12 //SYSPRINT DD SYSOUT=$
        13 //SYSUT1   DD DSN=WYL.GG.ORV.SOURCE(VCR),DISP=SHR
        14 //SYSUT2   DD DSN=&&INPUT,DISP=(,PASS),UNIT=SYSDA,
           //            SPACE=(TRK,(25,25),RLSE),DCB=CARD
        15 //ASM    EXEC PGM=ASMA90,REGION=8M,COND=(0,NE,$UNP),
           //            PARM=('SYSPARM(VCR),TERM,LANG(EN),OBJ',
           //          'LC(32500),XREF(SHORT),NODECK,NORLD,NODX,NOUS')
           //*STEPLIB  DD DSN=SYS1.SASMMOD1,DISP=SHR
        16 //SYSLIB   DD DSN=SYS3.DUMMYMAC,DISP=SHR,DCB=BLKSIZE=27920
        17 //         DD DSN=WYL.GG.SYS.MACLIB,DISP=SHR
        18 //         DD DSN=WYL.GG.ORV.BC.MACLIB,DISP=SHR
        19 //         DD DSN=SYS3.IS.MACLIB,DISP=SHR
        20 //SYSUT1   DD DSN=&&SYSUT1,UNIT=VIO,DISP=(,DELETE),
           //            SPACE=(4088,(500,250),,CONTIG,ROUND)
        21 //SYSTERM  DD SYSOUT=$
        22 //SYSPRINT DD DSN=&&PRINT,UNIT=SYSDA,DISP=(,PASS),
           //            SPACE=(6650,(250,250),RLSE),
           //            DCB=(BLKSIZE=6650,LRECL=133,RECFM=FB)
        23 //SYSLIN   DD DSN=WYL.GG.PJG.OBJ(VCR),DISP=OLD
        24 //SYSUDUMP DD SYSOUT=A
        25 //SYSIN    DD DSN=&&INPUT,DISP=(OLD,DELETE)
        26 //$EDIT  EXEC PGM=ASMEDIT,REGION=1M,
           //            COND=EVEN,PARM='STMT,DATA'
        27 //STEPLIB  DD DSN=WYL.GG.SYS.LINKLIB,DISP=SHR
        28 //ASMOUT   DD DSN=&&PRINT,DISP=(OLD,DELETE)
        29 //SYSPRINT DD SYSOUT=A
        30 //SYSUDUMP DD SYSOUT=A
1 STMT NO. MESSAGE
         2 IEFC001I PROCEDURE PURGEOLD WAS EXPANDED USING SYSTEM LIBRARY SYS3.BETAPROC
        14 IGD01010I STORCLAS= TEMP STORGROUP =
        14 IGD01010I STORGRP=VIO ASSIGNED.
        20 IGD01010I STORCLAS= TEMP STORGROUP =
        20 IGD01010I STORGRP=VIO ASSIGNED.
        22 IGD01010I STORCLAS= TEMP STORGROUP =
        22 IGD01010I STORGRP=VIO ASSIGNED.
 ICH70001I GG$PJG   LAST ACCESS AT 09:46:10 ON MONDAY, MARCH 22, 2004
 IEF142I PJG#VCR $$QUIET - STEP WAS EXECUTED - COND CODE 0008
 *********************************************************************************
 *   PJG#VCR /$$QUIET /                    Return Code      0008                 *
 *   Region used      260K (16K user + 244K system)                              *
 *   Extended region  9352K (4K user + 9348K system)                             *
 *                                                                               *
 *   Paging              In      Out                                             *
 *   Private <-> Aux      0        0       CPU time (TCB)   00:00:00.01          *
 *   Private <-> Exp      0        0       CPU time (SRB)   00:00:00.00          *
 *   VIO                  0        0       Elapsed time    920:41:35.24          *
 *   Common               0      ---                                             *
 *                                                                               *
 *                                                                               *
 *   CPU Usage          0.18         $0.11  Standard Processing Unit Equivalent  *
 *                                   $0.11  Total Step execution charge          *
 *                                                                               *
 *    I/O count  DDname   Type Addr           I/O count  DDname   Type Addr      *
 *                         *** No I/O for this step ***                          *
 *********************************************************************************
 IEF373I STEP/$$QUIET /START 2004082.0946
 IEF374I STEP/$$QUIET /STOP  2004082.0946 CPU    0MIN 00.01SEC SRB    0MIN 00.00SEC VIRT    16K SYS   244K EXT       4K SYS    9348K
 IEF236I ALLOC. FOR PJG#VCR $CND
 IEF237I 0401 ALLOCATED TO STEPLIB
 IEF237I JES2 ALLOCATED TO SYSPRINT
 IEF237I 04DC ALLOCATED TO SYSUT1
 IEF237I 04DC ALLOCATED TO SYSUT2
 IEF237I DMY  ALLOCATED TO SYSIN
 IEF142I PJG#VCR $CND - STEP WAS EXECUTED - COND CODE 0000
 IEF285I   WYL.GG.ORV.LINKLIB                           KEPT
 IEF285I   VOL SER NOS= SYSB01.
 IEF285I   GG$PJG.PJG#VCR.JOB05973.D0000101.?           SYSOUT
 IEF285I   WYL.GG.PJG.OBJ                               KEPT
 IEF285I   VOL SER NOS= SYSB05.
 IEF285I   WYL.GG.PJG.OBJ                               KEPT
 IEF285I   VOL SER NOS= SYSB05.
 *********************************************************************************
 *   PJG#VCR /$CND    /                    Return Code      Zero                 *
 *   Region used      280K (16K user + 264K system)                              *
 *   Extended region  9392K (4K user + 9388K system)                             *
 *                                                                               *
 *   Paging              In      Out                                             *
 *   Private <-> Aux      0        0       CPU time (TCB)   00:00:00.01          *
 *   Private <-> Exp      0        0       CPU time (SRB)   00:00:00.00          *
 *   VIO                  0        0       Elapsed time    920:41:34.21          *
 *   Common               0      ---                                             *
 *                                                                               *
 *                                                                               *
 *   CPU Usage          0.18         $0.11  Standard Processing Unit Equivalent  *
 *                                   $0.11  Total Step execution charge          *
 *                                                                               *
 *    I/O count  DDname   Type Addr           I/O count  DDname   Type Addr      *
 *            2  STEPLIB  Disk 0401                   0  SYSPRINT      ----      *
 *            0  SYSUT1   Disk 04DC                   0  SYSUT2   Disk 04DC      *
 *            0  SYSIN         ----                                              *
 *********************************************************************************
 IEF373I STEP/$CND    /START 2004082.0946
 IEF374I STEP/$CND    /STOP  2004082.0946 CPU    0MIN 00.01SEC SRB    0MIN 00.00SEC VIRT    16K SYS   264K EXT       4K SYS    9388K
 IEF236I ALLOC. FOR PJG#VCR $UNP
 IEF237I JES2 ALLOCATED TO SYSPRINT
 IEF237I 0402 ALLOCATED TO SYSUT1
 IGD101I SMS ALLOCATED TO DDNAME (SYSUT2  )
         DSN (SYS04082.T094617.RA000.PJG#VCR.INPUT.H01    )
         STORCLAS (TEMP) MGMTCLAS (        ) DATACLAS (        )
         VOL SER NOS= SCR101
 IEF142I PJG#VCR $UNP - STEP WAS EXECUTED - COND CODE 0000
 IEF285I   GG$PJG.PJG#VCR.JOB05973.D0000102.?           SYSOUT
 IEF285I   WYL.GG.ORV.SOURCE                            KEPT
 IEF285I   VOL SER NOS= SYSB02.
 IGD106I SYS04082.T094617.RA000.PJG#VCR.INPUT.H01     PASSED,    DDNAME=SYSUT2
 *********************************************************************************
 *   PJG#VCR /$UNP    /                    Return Code      Zero                 *
 *   Region used      380K (108K user + 272K system)                             *
 *   Extended region  9468K (4K user + 9464K system)                             *
 *                                                                               *
 *   Paging              In      Out                                             *
 *   Private <-> Aux      0        0       CPU time (TCB)   00:00:00.05          *
 *   Private <-> Exp      0        0       CPU time (SRB)   00:00:00.00          *
 *   VIO                  0        0       Elapsed time    920:41:34.10          *
 *   Common               0      ---                                             *
 *                                                                               *
 *                                                                               *
 *   CPU Usage          0.93         $0.57  Standard Processing Unit Equivalent  *
 *                                   $0.57  Total Step execution charge          *
 *                                                                               *
 *    I/O count  DDname   Type Addr           I/O count  DDname   Type Addr      *
 *            0  SYSPRINT      ----                   2  SYSUT1   Disk 0402      *
 *           12  SYSUT2   Disk 04E3                                              *
 *********************************************************************************
 IEF373I STEP/$UNP    /START 2004082.0946
 IEF374I STEP/$UNP    /STOP  2004082.0946 CPU    0MIN 00.05SEC SRB    0MIN 00.00SEC VIRT   108K SYS   272K EXT       4K SYS    9464K
 IEF236I ALLOC. FOR PJG#VCR ASM
 IEF237I 0402 ALLOCATED TO SYSLIB
 IEF237I 04DC ALLOCATED TO
 IEF237I 0402 ALLOCATED TO
 IEF237I 04DC ALLOCATED TO
 IGD101I SMS ALLOCATED TO DDNAME (SYSUT1  )
         DSN (SYS04082.T094617.RA000.PJG#VCR.SYSUT1.H01   )
         STORCLAS (TEMP) MGMTCLAS (        ) DATACLAS (        )
         VOL SER NOS= VIO
 IEF237I JES2 ALLOCATED TO SYSTERM
 IGD101I SMS ALLOCATED TO DDNAME (SYSPRINT)
         DSN (SYS04082.T094617.RA000.PJG#VCR.PRINT.H01    )
         STORCLAS (TEMP) MGMTCLAS (        ) DATACLAS (        )
         VOL SER NOS= SCR100
 IEF237I 04DC ALLOCATED TO SYSLIN
 IEF237I JES2 ALLOCATED TO SYSUDUMP
 IGD103I SMS ALLOCATED TO DDNAME SYSIN
 IEF142I PJG#VCR ASM - STEP WAS EXECUTED - COND CODE 0000
 IEF285I   SYS3.DUMMYMAC                                KEPT
 IEF285I   VOL SER NOS= SYSB02.
 IEF285I   WYL.GG.SYS.MACLIB                            KEPT
 IEF285I   VOL SER NOS= SYSB05.
 IEF285I   WYL.GG.ORV.BC.MACLIB                         KEPT
 IEF285I   VOL SER NOS= SYSB02.
 IEF285I   SYS3.IS.MACLIB                               KEPT
 IEF285I   VOL SER NOS= SYSB05.
 IGD105I SYS04082.T094617.RA000.PJG#VCR.SYSUT1.H01    DELETED,   DDNAME=SYSUT1
 IEF285I   GG$PJG.PJG#VCR.JOB05973.D0000103.?           SYSOUT
 IGD106I SYS04082.T094617.RA000.PJG#VCR.PRINT.H01     PASSED,    DDNAME=SYSPRINT
 IEF285I   WYL.GG.PJG.OBJ                               KEPT
 IEF285I   VOL SER NOS= SYSB05.
 IEF285I   GG$PJG.PJG#VCR.JOB05973.D0000104.?           SYSOUT
 IGD105I SYS04082.T094617.RA000.PJG#VCR.INPUT.H01     DELETED,   DDNAME=SYSIN
 *********************************************************************************
 *   PJG#VCR /ASM     /                    Return Code      Zero                 *
 *   Region used      8484K (8192K user + 292K system)                           *
 *   Extended region  9952K (412K user + 9540K system)                           *
 *                                                                               *
 *   Paging              In      Out                                             *
 *   Private <-> Aux      0        0       CPU time (TCB)   00:00:00.92          *
 *   Private <-> Exp      0        0       CPU time (SRB)   00:00:00.03          *
 *   VIO                  0        0       Elapsed time    920:41:33.91          *
 *   Common               0      ---                                             *
 *                                                                               *
 *                                                                               *
 *   CPU Usage         17.25        $10.69  Standard Processing Unit Equivalent  *
 *                                  $10.69  Total Step execution charge          *
 *                                                                               *
 *    I/O count  DDname   Type Addr           I/O count  DDname   Type Addr      *
 *           20  SYSLIB   Disk 0402                 134  SYSLIB   Disk 04DC      *
 *            0  SYSLIB   Disk 0402                   0  SYSLIB   Disk 04DC      *
 *            0  SYSUT1   VIO  ----                   0  SYSTERM       ----      *
 *           51  SYSPRINT Disk 038B                   3  SYSLIN   Disk 04DC      *
 *            0  SYSUDUMP      ----                  13  SYSIN    Disk 04E3      *
 *********************************************************************************
 IEF373I STEP/ASM     /START 2004082.0946
 IEF374I STEP/ASM     /STOP  2004082.0946 CPU    0MIN 00.92SEC SRB    0MIN 00.03SEC VIRT  8192K SYS   292K EXT     412K SYS    9540K
 IEF236I ALLOC. FOR PJG#VCR $EDIT
 IEF237I 0402 ALLOCATED TO STEPLIB
 IGD103I SMS ALLOCATED TO DDNAME ASMOUT
 IEF237I JES2 ALLOCATED TO SYSPRINT
 IEF237I JES2 ALLOCATED TO SYSUDUMP
 IEF142I PJG#VCR $EDIT - STEP WAS EXECUTED - COND CODE 0000
 IEF285I   WYL.GG.SYS.LINKLIB                           KEPT
 IEF285I   VOL SER NOS= SYSB02.
 IGD105I SYS04082.T094617.RA000.PJG#VCR.PRINT.H01     DELETED,   DDNAME=ASMOUT
 IEF285I   GG$PJG.PJG#VCR.JOB05973.D0000105.?           SYSOUT
 IEF285I   GG$PJG.PJG#VCR.JOB05973.D0000106.?           SYSOUT
 *********************************************************************************
 *   PJG#VCR /$EDIT   /                    Return Code      Zero                 *
 *   Region used      388K (116K user + 272K system)                             *
 *   Extended region  9468K (4K user + 9464K system)                             *
 *                                                                               *
 *   Paging              In      Out                                             *
 *   Private <-> Aux      0        0       CPU time (TCB)   00:00:00.20          *
 *   Private <-> Exp      0        0       CPU time (SRB)   00:00:00.01          *
 *   VIO                  0        0       Elapsed time    920:41:31.86          *
 *   Common               0      ---                                             *
 *                                                                               *
 *                                                                               *
 *   CPU Usage          3.75         $2.32  Standard Processing Unit Equivalent  *
 *                                   $2.32  Total Step execution charge          *
 *                                                                               *
 *    I/O count  DDname   Type Addr           I/O count  DDname   Type Addr      *
 *            2  STEPLIB  Disk 0402                  52  ASMOUT   Disk 038B      *
 *            0  SYSPRINT      ----                   0  SYSUDUMP      ----      *
 *********************************************************************************
 IEF373I STEP/$EDIT   /START 2004082.0946
 IEF374I STEP/$EDIT   /STOP  2004082.0946 CPU    0MIN 00.20SEC SRB    0MIN 00.01SEC VIRT   116K SYS   272K EXT       4K SYS    9464K
 *********************************************************************************
 *                                                                               *
 *                      S t a n f o r d   U n i v e r s i t y                    *
 *                                                                               *
 *                              *** Job Summary ***                              *
 *                                                                               *
 *   System Id      SYSB                   Input time     09:38:32  Mar 22, 2004 *
 *                                                                               *
 *   System Release SP6.1.0                Start time     09:46:17  Mar 22, 2004 *
 *                                                                               *
 *   Job name       PJG#VCR                Stop  time     00:00:00  Mar 22, 2004 *
 *                                                                               *
 *   Account        PJG$GG                 Elapsed time  920:41:35.24            *
 *                                                                               *
 *   User Name      Module: VCR            CPU time       00:00:01.19            *
 *                                                                               *
 *   Job class      E                      SRB Time       00:00:00.04            *
 *                                                                               *
 *********************************************************************************
 IEF375I  JOB/PJG#VCR /START 2004082.0946
 IEF376I  JOB/PJG#VCR /STOP  2004082.0946 CPU    0MIN 01.19SEC SRB    0MIN 00.04SEC
1Data set successfully converted from EDIT to FB format
1Assembler Done VCR No Statements Flagged
1         High Level Assembler Option Summary                   (PTF UQ57391)                                               Page    1
-                                                                                            HLASM R4.0  2004/03/22 09.46
0  No Overriding ASMAOPT Parameters
   Overriding Parameters-  SYSPARM(VCR),TERM,LANG(EN),OBJ,LC(32500),XREF(SHORT),NODECK,NORLD,NODX,NOUS
   No Process Statements


   Options for this Assembly
0  NOADATA
     ALIGN
   NOASA
     BATCH
     CODEPAGE(047C)
   NOCOMPAT
   NODBCS
 3 NODECK
 3 NODXREF
     ESD
   NOEXIT
     FLAG(0,ALIGN,CONT,NOIMPLEN,NOPAGE0,PUSH,RECORD,NOSUBSTR,USING0)
   NOFOLD
   NOGOFF
   NOINFO
 3   LANGUAGE(EN)
   NOLIBMAC
 3   LINECOUNT(32500)
     LIST(121)
     MXREF(SOURCE)
 3   OBJECT
     OPTABLE(UNI,NOLIST)
   NOPCONTROL
   NOPESTOP
   NOPROFILE
   NORA2
   NORENT
 3 NORLD
     RXREF
     SIZE(MAX)
 3   SYSPARM(VCR)
 3   TERM(WIDE)
   NOTEST
     THREAD
   NOTRANSLATE
 3 NOUSING
 3   XREF(SHORT)

   No Overriding DD Names

1VCR      External Symbol Dictionary                                                                                        Page    2
-Symbol   Type   Id     Address  Length     LD ID  Flags Alias-of                            HLASM R4.0  2004/03/22 09.46
0VCR       SD 00000001 00000000 00000C00             00
 VCR03     LD          00000000           00000001
 RTRIM     LD          00000014           00000001
 LRTRIM    LD          00000048           00000001
 DTB       LD          00000094           00000001
 XTB       LD          000000E2           00000001
 BTDU      LD          00000144           00000001
 BTDUC     LD          00000160           00000001
 BTD       LD          0000017C           00000001
 BTDC      LD          00000198           00000001
 BTX       LD          00000220           00000001
 RTB       LD          00000282           00000001
 BTR       LD          0000030A           00000001
 FMTELAPS  LD          0000037A           00000001
 FMTCLCK   LD          00000424           00000001
 FMTRCLCK  LD          0000047A           00000001
 FMTTIME   LD          000004F0           00000001
 FMTDATE   LD          00000560           00000001
 FMTJUL    LD          0000060A           00000001
 ORVTIMDT  LD          00000652           00000001
 TIMEDATE  LD          000006E2           00000001
 DAY       LD          00000754           00000001
 DAYF      LD          0000076C           00000001
 DATEF     LD          00000784           00000001
 DATE      LD          0000079C           00000001
 TIME      LD          0000097C           00000001
 BTD       ER 00000002
 BTR       ER 00000003

1VCR      Orvyl's Conversion Routines                                                                                       Page    3
0Loc    Object Code    Addr1 Addr2  Stmt Lv Lineno    Source Statement                    (Asmedit 3.3)  HLASM R4.0  2004/03/22 09.46
+___    ______ ____    _____ _____  ____ __ ______    ______ _________
0                                      2       2.     ********************************************************************
                                       3       3.     *                                                                  *
                                       4       4.     * Orvyl/370 - Release III - Class I - Stanford Proprietary         *
                                       5       5.     *                                                                  *
                                       6       6.     ********************************************************************
-
                                       9       9.              HIBAL ,                   Define HIBAL macro subsystem
                                     990      10.              REGS  ,,SR,TR,QR,RR,PR,BR,WAR,,,,,,RAR
-000000                00000 00C00  1102      12.     VCR      CSECT ,
                                    1106      13.              IDENT 03                  Year Y2K modifications
                                    1109             +
                                    1110    01-IDENT +         ENTRY VCR03
                                    1111             +
 000000 13E5C3D9F0F36BF2            1112    01-IDENT +VCR03    DC    AL1(19),C'VCR03,22MAR04,09:46'
                                    1113             +*
-                                   1116      15.              COPY  ORVDEFN
                                    1117             =         SYSDEFN  ,
                                    1118             =         GBLB  &PROTECT
                                    1119             =         GBLC  &MODULE
1VCR      (VCR03) (09:46) (22MAR04) Orvyl's Conversion Routines                                                             Page    4
0Loc    Object Code    Addr1 Addr2  Stmt Lv Lineno    Source Statement           (Hibal 5, Asmedit 3.3)  HLASM R4.0  2004/03/22 09.46
+___    ______ ____    _____ _____  ____ __ ______    ______ _________
0                                   1122      18.     ¿þþþþþþþþþþþþþþþþþþþþþþþþþþþþþþþþþþþþþþþþþþþþþþþþþþþþþþþþþþþþþþþþþþþþþÜ
                                    1123      19.     Ÿ                                                                     Ÿ
                                    1124      20.     Ÿ  Constants                                                          Ÿ
                                    1125      21.     Ÿ                                                                     Ÿ
                                                      ¾þþþþþþþþþþþþþþþþþþþþþþþþþþþþþþþþþþþþþþþþþþþþþþþþþþþþþþþþþþþþþþþþþþþþþ»
-000A9D                00A9D 00C00  1127      23.              DATA  BEGIN
 000A9D 00                                1
 000A9E 001F001D001F001E            1132  1   24.     MONTHS     DC    H'31,29,31,30,31,30,31,31,30,31,30,31,999'
 000AB8 0003020500030501            1133  1   25.     DAYFUDGE   DC    FL1'00,03,02,05,00,03,05,01,04,06,02,04'
                                    1134  1   26.
 000AC4                             1135  1   27.     MONTEXT    DS    0H
 000AC4 07D18195A48199A8            1136  1   28.                DC    AL1(7),CL9'January'
 000ACE 08C6858299A48199            1137  1   29.                DC    AL1(8),CL9'February'
 000AD8 05D4819983884040            1138  1   30.                DC    AL1(5),CL9'March'
 000AE2 05C1979989934040            1139  1   31.                DC    AL1(5),CL9'April'
 000AEC 03D481A840404040            1140  1   32.                DC    AL1(3),CL9'May'
 000AF6 04D1A49585404040            1141  1   33.                DC    AL1(4),CL9'June'
 000B00 04D1A493A8404040            1142  1   34.                DC    AL1(4),CL9'July'
 000B0A 06C1A487A4A2A340            1143  1   35.                DC    AL1(6),CL9'August'
 000B14 09E28597A3859482            1144  1   36.                DC    AL1(9),CL9'September'
 000B1E 07D683A396828599            1145  1   37.                DC    AL1(7),CL9'October'
 000B28 08D596A585948285            1146  1   38.                DC    AL1(8),CL9'November'
 000B32 08C4858385948285            1147  1   39.                DC    AL1(8),CL9'December'
                                    1148  1   40.
 000B3C                             1149  1   41.     DAYS       DS    0H
 000B3C 06E2A4958481A840            1150  1   42.                DC    AL1(6),CL9'Sunday'
 000B46 06D496958481A840            1151  1   43.                DC    AL1(6),CL9'Monday'
 000B50 07E3A485A28481A8            1152  1   44.                DC    AL1(7),CL9'Tuesday'
 000B5A 09E685849585A284            1153  1   45.                DC    AL1(9),CL9'Wednesday'
 000B64 08E388A499A28481            1154  1   46.                DC    AL1(8),CL9'Thursday'
 000B6E 06C699898481A840            1155  1   47.                DC    AL1(6),CL9'Friday'
 000B78 08E281A3A4998481            1156  1   48.                DC    AL1(8),CL9'Saturday'
0000B82 4040404040404040            1158  1   50.     BLANKS     DC    CL32' '
0000BA2 F0F1F2F3F4F5F6F7            1160  1   52.     HEXTBL     DC    C'0123456789ABCDEF'
0000BB2 4040404020202020            1162  1   54.     EDMASK     DC    0CL15' ',4C' ',9X'20',X'2120'    STANDARD EDIT MASK
0000BC1                             1164  1   56.     EDMASKC    DC    0CL15' '                EDIT MASK WITH COMMAS
 000BC1 4020206B2020206B            1165  1   57.                DC    X'402020',C',',3X'20',C',',3X'20',C',',X'202120'
0000BD0                             1167  1   59.                DC    0S(L'EDMASK-L'EDMASKC,L'EDMASKC-L'EDMASK)
0000BD0 2020202020202020            1169  1   61.     BTREDMSK   DC    0CL24' ',14X'20',X'2120',C'.',7X'20'
 000014                00000 00C00  1170      62.              END   ,
1VCR      (VCR03) (09:46) (22MAR04) Orvyl's Conversion Routines                                                             Page    5
0Loc    Object Code    Addr1 Addr2  Stmt Lv Lineno    Source Statement           (Hibal 5, Asmedit 3.3)  HLASM R4.0  2004/03/22 09.46
+___    ______ ____    _____ _____  ____ __ ______    ______ _________
0                                   1177      64.     ¿þþþþþþþþþþþþþþþþþþþþþþþþþþþþþþþþþþþþþþþþþþþþþþþþþþþþþþþþþþþþþþþþþþþþþÜ
                                    1178      65.     Ÿ                                                                     Ÿ
                                    1179      66.     Ÿ        Stack dynamic work area                                      Ÿ
                                    1180      67.     Ÿ                                                                     Ÿ
                                                      ¾þþþþþþþþþþþþþþþþþþþþþþþþþþþþþþþþþþþþþþþþþþþþþþþþþþþþþþþþþþþþþþþþþþþþþ»
-000000                00000 00050  1182      69.     WA       RECORD BEGIN
                                    1190  1   70.                XSA   0,8                 Reserve words for register save
 000000 0000000000000000            1191  1 01-XSA   +           DC    (8+2-(0))A(0)
 000028                             1192  1   71.     DEC        DS    D                   Double word work area
 000030                             1193  1   72.     HEXW       DS    F
 000034                             1194  1   73.     HEXS       DS    CL16
                                    1195  1   74.     EDITAREA   EQU   HEXS,L'EDMASK       BTD, BTDC stack work area
 000044 00                          1196  1   75.     FLAGS2     FLAG  ,
 FLAGS2.UNSIGNED   80 ONES          1200  1   76.                FLAG  UNSIGNED
 000045                00045 00030  1205  1   77.                ORG   HEXW
 000030                             1206  1   78.     DAYSAVE    DS    3A
 00003C 00                          1207  1   79.     FLAGS      FLAG  ,
 FLAGS.POINT       80 ONES          1211  1   80.                FLAG  POINT
 FLAGS.TEXTDATE    40 ONES          1216  1   81.                FLAG  TEXTDATE
 FLAGS.FLDAY       20 ONES          1221  1   82.                FLAG  FLDAY
 00003D                             1226  1   83.     REDITWA    DS    CL17
 00004E 0000                              1
 000050                             1227  1   84.                DC    0A(0)               Round out stack space to word bndry
 000050                00050 00050  1228  1   85.                ORG   ,                   Origin out to highest level
 000050                00050 00050  1229      86.              END   ,
 000014                00000 00C00  1238      87.     VCR      CSECT ,                   Resume VCR control section
1VCR      (VCR03) (09:46) (22MAR04) Orvyl's Conversion Routines                                                             Page    6
0Loc    Object Code    Addr1 Addr2  Stmt Lv Lineno    Source Statement           (Hibal 5, Asmedit 3.3)  HLASM R4.0  2004/03/22 09.46
+___    ______ ____    _____ _____  ____ __ ______    ______ _________
0
0                                   1242      90.     ¿þþþþþþþþþþþþþþþþþþþþþþþþþþþþþþþþþþþþþþþþþþþþþþþþþþþþþþþþþþþþþþþþþþþþþÜ
                                    1243      91.     Ÿ                                                                     Ÿ
                                    1244      92.     Ÿ  RTRIM -- Trim right-side (trailing) blanks.                        Ÿ
                                    1245      93.     Ÿ                                                                     Ÿ
                                    1246      94.     Ÿ    On entry:                                                        Ÿ
                                    1247      95.     Ÿ      R1,R0 - string location, length                                Ÿ
                                    1248      96.     Ÿ                                                                     Ÿ
                                    1249      97.     Ÿ    On exit:                                                         Ÿ
                                    1250      98.     Ÿ       CC = 0 - String was all blank                                 Ÿ
                                    1251      99.     Ÿ       CC = P - R0 & R1 updated                                      Ÿ
                                    1252     100.     Ÿ                                                                     Ÿ
                                                      ¾þþþþþþþþþþþþþþþþþþþþþþþþþþþþþþþþþþþþþþþþþþþþþþþþþþþþþþþþþþþþþþþþþþþþþ»
0000014 50E0 D000            00000  1253     101.     RTRIM    XENTER R2,R8              Enter and save calling registers
 000018 9028 D004/188D       00004  1256             +
 00001E 0D70                        1260             +
 USING  *,R7
 000020 1861                        1272     102.              LR    R6,R1               Copy starting address of string
 000022 1A60                        1273     103.              AR    R6,R0               Compute ending address+1
 000024 0660                        1274     104.              DECR  R6                  Point to last character in string
 000026 1200/47D0 701C       0003C  1276     105.              WHILE ((R0,POS),AND,(@R6,EQ,' ')),'DECR R6; DECR R0'
 00002C 9540 6000      00000        1301             +
 000030 4770 701C/0660       0003C  1302             +
 000036 0600/47F0 7006       00026  1311             +
 00003C 18D8/9828 D004       00004  1317     106.              XEXIT R2,R8               Restore registers and return
 000042 58E0 D000/07FE       00000  1320             +
 DROP   *,R7                        1322     107.              DROP  BR                  Release routine addressability
-                                   1330     109.     ¿þþþþþþþþþþþþþþþþþþþþþþþþþþþþþþþþþþþþþþþþþþþþþþþþþþþþþþþþþþþþþþþþþþþþþÜ
                                    1331     110.     Ÿ                                                                     Ÿ
                                    1332     111.     Ÿ  LRTRIM -- Trim left and right-side (leading/trailing) blanks.      Ÿ
                                    1333     112.     Ÿ                                                                     Ÿ
                                    1334     113.     Ÿ    On entry:                                                        Ÿ
                                    1335     114.     Ÿ      R1,R0 - string loc, len                                        Ÿ
                                    1336     115.     Ÿ                                                                     Ÿ
                                    1337     116.     Ÿ    On exit:                                                         Ÿ
                                    1338     117.     Ÿ       CC = 0 - String was all blank                                 Ÿ
                                    1339     118.     Ÿ       CC = P - R0 & R1 updated                                      Ÿ
                                    1340     119.     Ÿ                                                                     Ÿ
                                                      ¾þþþþþþþþþþþþþþþþþþþþþþþþþþþþþþþþþþþþþþþþþþþþþþþþþþþþþþþþþþþþþþþþþþþþþ»
0000048 50E0 D000            00000  1341     120.     LRTRIM   XENTER R2,R8
 00004C 9028 D004/188D       00004  1344             +
 000052 0D70                        1348             +
 USING  *,R7
 000054 1200/47D0 7018       0006C  1360     121.              WHILE ((R0,POS),AND,(@R1,EQ,' ')),'LA R1,@R1+1; DECR R0'
 00005A 9540 1000      00000        1385             +
 00005E 4770 7018            0006C  1386             +
 000062 4110 1001/0600       00001  1392             +
 000068 47F0 7000            00054  1398             +
 00006C 1861                        1400     122.              LR    R6,R1               Update to first non-blank
 00006E 1A60                        1401     123.              AR    R6,R0               Compute ending address+1
 000070 0660                        1402     124.              DECR  R6                  Point to last character in string
1VCR      (VCR03) (09:46) (22MAR04) Orvyl's Conversion Routines                                                             Page    7
0Current Usings:  (*,R7)
0Loc    Object Code    Addr1 Addr2  Stmt Lv Lineno    Source Statement           (Hibal 5, Asmedit 3.3)  HLASM R4.0  2004/03/22 09.46
+___    ______ ____    _____ _____  ____ __ ______    ______ _________
0000072 1200/47D0 7034       00088  1404     125.              WHILE ((R0,POS),AND,(@R6,EQ,' ')),'DECR R6; DECR R0'
 000078 9540 6000      00000        1429             +
 00007C 4770 7034/0660       00088  1430             +
 000082 0600/47F0 701E       00072  1439             +
 000088 18D8/9828 D004       00004  1445     126.              XEXIT R2,R8               Restore registers and return
 00008E 58E0 D000/07FE       00000  1448             +
 DROP   *,R7                        1450     127.              DROP  BR                  Release routine addressability
1VCR      (VCR03) (09:46) (22MAR04) Orvyl's Conversion Routines                                                             Page    8
0Loc    Object Code    Addr1 Addr2  Stmt Lv Lineno    Source Statement           (Hibal 5, Asmedit 3.3)  HLASM R4.0  2004/03/22 09.46
+___    ______ ____    _____ _____  ____ __ ______    ______ _________
0                                   1458     129.     ¿þþþþþþþþþþþþþþþþþþþþþþþþþþþþþþþþþþþþþþþþþþþþþþþþþþþþþþþþþþþþþþþþþþþþþÜ
                                    1459     130.     Ÿ                                                                     Ÿ
                                    1460     131.     Ÿ   DTB -- Routine to convert integer strings.                        Ÿ
                                    1461     132.     Ÿ                                                                     Ÿ
                                    1462     133.     Ÿ     On entry:                                                       Ÿ
                                    1463     134.     Ÿ       R1,R0 - text loc, len                                         Ÿ
                                    1464     135.     Ÿ                                                                     Ÿ
                                    1465     136.     Ÿ     On exit:                                                        Ÿ
                                    1466     137.     Ÿ       CC = 0 - R15 = 32 bit integer value                           Ÿ
                                    1467     138.     Ÿ                                                                     Ÿ
                                    1468     139.     Ÿ       CC =~0 - Invalid decimal string                               Ÿ
                                    1469     140.     Ÿ          = 1 - Invalid decimal digit encountered                    Ÿ
                                    1470     141.     Ÿ          = 2 - Invalid decimal digit encountered                    Ÿ
                                    1471     142.     Ÿ          = 3 - Arithmetic overflow has occurred                     Ÿ
                                    1472     143.     Ÿ                                                                     Ÿ
                                                      ¾þþþþþþþþþþþþþþþþþþþþþþþþþþþþþþþþþþþþþþþþþþþþþþþþþþþþþþþþþþþþþþþþþþþþþ»
-000094 50E0 D000            00000  1474     145.     DTB      XENTER R2,R8
 000098 9028 D004/188D       00004  1477             +
 00009E 0D70                        1481             +
 USING  *,R7
 0000A0 1BFF                        1493     146.              CLEAR R15                 Clear accumulated result
 0000A2 1200/47D0 7036       000D6  1497     147.              WHILE (R0,P),BEGIN        Scan through all digits
 0000A8 95F0 1000      00000        1513  1  148.                IF    (@R1,LT,C'0'),EXIT  Terminate on invalid character
 0000AC 4740 7036            000D6  1526  1          +
 0000B0 95F9 1000      00000        1532  1  149.                IF    (@R1,GT,C'9'),EXIT  Terminate on invalid character
 0000B4 4720 7036            000D6  1545  1          +
 0000B8 1F22/4320 1000       00000  1551  1  150.                LC    SR,@R1              Load next character
 0000BE 5F20 7968            00A08  1558  1  151.                SL    SR,=A(C'0')         Convert from EBCDIC to binary
 0000C2 A7FC 000A            0000A  1559  1  152.                MHI   R15,10              Shift accumulation registers
 0000C6 1AF2                        1560  1  153.                AR    R15,SR              Add in current digit
 0000C8 4710 7036            000D6  1561  1  154.                IF    O,EXIT              Abort on arithmetic overflow
 0000CC 4110 1001            00001  1575  1  155.                LA    R1,@R1+1            Bump to potential next digit
 0000D0 0600                        1576  1  156.                DECR  R0                  Decrement remaining length
 0000D2 47F0 7002            000A2  1578     157.              END   ,                   Return for next digit in string
 0000D6 18D8/9828 D004       00004  1583     158.              XEXIT R2,R8               Condition code has been set
 0000DC 58E0 D000/07FE       00000  1586             +
 DROP   *,R7                        1588     159.              DROP  BR                  Release routine addressability
1VCR      (VCR03) (09:46) (22MAR04) Orvyl's Conversion Routines                                                             Page    9
0Loc    Object Code    Addr1 Addr2  Stmt Lv Lineno    Source Statement           (Hibal 5, Asmedit 3.3)  HLASM R4.0  2004/03/22 09.46
+___    ______ ____    _____ _____  ____ __ ______    ______ _________
0                                   1596     161.     ¿þþþþþþþþþþþþþþþþþþþþþþþþþþþþþþþþþþþþþþþþþþþþþþþþþþþþþþþþþþþþþþþþþþþþþÜ
                                    1597     162.     Ÿ                                                                     Ÿ
                                    1598     163.     Ÿ   XTB -- Routine to convert hexadecimal strings.                    Ÿ
                                    1599     164.     Ÿ                                                                     Ÿ
                                    1600     165.     Ÿ     On entry:                                                       Ÿ
                                    1601     166.     Ÿ       R1,R0 - text loc, len                                         Ÿ
                                    1602     167.     Ÿ               (Digits 0-9 and Uppercase A-F)                        Ÿ
                                    1603     168.     Ÿ                                                                     Ÿ
                                    1604     169.     Ÿ     On exit:                                                        Ÿ
                                    1605     170.     Ÿ       CC = 0 - R15 = 32 bit binary value                            Ÿ
                                    1606     171.     Ÿ                                                                     Ÿ
                                    1607     172.     Ÿ       CC =~0 - Invalid hexadecimal string                           Ÿ
                                    1608     173.     Ÿ                                                                     Ÿ
                                                      ¾þþþþþþþþþþþþþþþþþþþþþþþþþþþþþþþþþþþþþþþþþþþþþþþþþþþþþþþþþþþþþþþþþþþþþ»
-0000E2 50E0 D000            00000  1610     175.     XTB      XENTER R2,R8
 0000E6 9028 D004/188D       00004  1613             +
 0000EC 0D70                        1617             +
 USING  *,R7
 0000EE 1BFF                        1629     176.              CLEAR R15
 0000F0 1200/47D0 704A       00138  1633     177.              WHILE (R0,P),BEGIN        Scan through all hex digits
 0000F6 1F22/4320 1000       00000  1649  1  178.                LC    SR,@R1              Pick up digit
 0000FC 95C1 1000      00000        1656  1  179.                IF    (@R1,LT,C'A'),EXIT  Exit on invalid hex digit
 000100 4740 704A            00138  1669  1          +
 000104 95C6 1000      00000        1675  1  180.                IF    (@R1,LE,C'F'),BEGIN Convert range A-F
 000108 4730 7022            00110  1686  1          +
 00010C 5F20 791E            00A0C  1691  2  181.                  SL    SR,=A(C'A'-10)      Leave value 10 through 15 (Bin)
 000110 7026           00110 0010A  1692  1  182.                END   ELSE,BEGIN
 000110 47F0 703A            00128  1701  1          +
 000114 95F0 1000      00000        1707  2  183.                  IF    (@R1,LT,C'0'),EXIT  Exit on invalid hex digit
 000118 4740 703A            00128  1720  2          +
 00011C 95F9 1000      00000        1726  2  184.                  IF    (@R1,GT,C'9'),EXIT  Exit on invalid hex digit
 000120 4720 703A            00128  1739  2          +
 000124 5F20 791A            00A08  1745  2  185.                  SL    SR,=A(C'0')         Leave vlaue 0 through 9 (Bin)
 000128                             1746  1  186.                END   ,
 000128 89F0 0004            00004  1750  1  187.                SLL   R15,4               Shift over preceeding results
 00012C 16F2                        1751  1  188.                OR    R15,SR              Include current hex digit
 00012E 4110 1001            00001  1752  1  189.                LA    R1,@R1+1            Bump to next potential digit
 000132 0600                        1753  1  190.                DECR  R0                  Decrement remaining length
 000134 47F0 7002            000F0  1755     191.              END   ,                   Loop back for next potential digit
 000138 18D8/9828 D004       00004  1760     192.              XEXIT R2,R8
 00013E 58E0 D000/07FE       00000  1763             +
 DROP   *,R7                        1765     193.              DROP  BR                  Release routine addressability
1VCR      (VCR03) (09:46) (22MAR04) Orvyl's Conversion Routines                                                             Page   10
0Loc    Object Code    Addr1 Addr2  Stmt Lv Lineno    Source Statement           (Hibal 5, Asmedit 3.3)  HLASM R4.0  2004/03/22 09.46
+___    ______ ____    _____ _____  ____ __ ______    ______ _________
0                                   1773     195.     *
                                    1774     196.     **  BTD   -- Routine to format integer strings.
                                    1775     197.     **  BTDC  -- Routine to format integer strings with commas.
                                    1776     198.     **  BTDU  -- Routine to format integer strings (unsigned).
                                    1777     199.     **  BTDUC -- Routine to format integer strings with commas.
                                    1778     200.     **
                                    1779     201.     **    On entry:
                                    1780     202.     **      R15   - 32 bit integer value
                                    1781     203.     **      R1    - return area
                                    1782     204.     **      R0    - Maximum length of result    (Positive)
                                    1783     205.     **            - Number of leading blanks    (Negative)
                                    1784     206.     **            - Return actual string length (Zero)
                                    1785     207.     **
                                    1786     208.     **    On exit:
                                    1787     209.     **      R1,R0 - text loc, len
                                    1788     210.     *
 USING  WA,R8                       1789     211.              USING WA,WAR              Addressability to stack work area
 000144 50E0 D000            00000  1798     212.     BTDU     XENTER SR,WAR,L'WA
 000148 9028 D004/188D       00004  1801             +
 00014E 41D0 D050/0D70       00050  1803             +
 000154 4150 7A5E            00BB2  1818     213.              LA    RR,EDMASK           Convert with standard mask
 USING  *,R7
 000158 9680 8044      00044        1819     214.              SET   UNSIGNED
 00015C 47F0 705C            001B0  1825     215.              B     BTDMERGE
 DROP   *,R7                        1826     216.              DROP  BR                  Release temporary base
0000160 50E0 D000            00000  1834     218.     BTDUC    XENTER SR,WAR,L'WA
 000164 9028 D004/188D       00004  1837             +
 00016A 41D0 D050/0D70       00050  1839             +
 000170 4150 7A51            00BC1  1854     219.              LA    RR,EDMASKC          Convert with comma mask
 USING  *,R7
 000174 9680 8044      00044        1855     220.              SET   UNSIGNED
 000178 47F0 7040            001B0  1861     221.              B     BTDMERGE
 DROP   *,R7                        1862     222.              DROP  BR                  Release temporary base
 00017C 50E0 D000            00000  1869     223.     BTD      XENTER SR,WAR,L'WA
 000180 9028 D004/188D       00004  1872             +
 000186 41D0 D050/0D70       00050  1874             +
 00018C 4150 7A26            00BB2  1889     224.              LA    RR,EDMASK           Convert with standard mask
 USING  *,R7
 000190 947F 8044      00044        1890     225.              CLEAR UNSIGNED
 000194 47F0 7024            001B0  1897     226.              B     BTDMERGE
 DROP   *,R7                        1898     227.              DROP  BR                  Release temporary base
0000198 50E0 D000            00000  1906     229.     BTDC     XENTER SR,WAR,L'WA
 00019C 9028 D004/188D       00004  1909             +
 0001A2 41D0 D050/0D70       00050  1911             +
 0001A8 4150 7A19            00BC1  1926     230.              LA    RR,EDMASKC          Convert with comma mask
 USING  *,R7
 0001AC 947F 8044      00044        1927     231.              CLEAR UNSIGNED
 DROP   *,R7                        1934     232.              DROP  BR                  Release temporary base
00001B0 0D70                        1942     234.     BTDMERGE BASE  ,                   Set common base to BTD,BTDC
 USING  *,R7
 0001B2 9180 8044      00044        1956     235.              IF    (UNSIGNED,AND,(R15,NEG)),BEGIN
 0001B6 47E0 701C/12FF       001CE  1968             +
 0001BC 47B0 701C            001CE  1979             +
1VCR      (VCR03) (09:46) (22MAR04) Orvyl's Conversion Routines                                                             Page   11
0Current Usings:  (*,R7) (WA,R8)
0Loc    Object Code    Addr1 Addr2  Stmt Lv Lineno    Source Statement           (Hibal 5, Asmedit 3.3)  HLASM R4.0  2004/03/22 09.46
+___    ______ ____    _____ _____  ____ __ ______    ______ _________
00001C0 54F0 785E            00A10  1984  1  236.                N     R15,=X'7FFFFFFF'    Remove sign
 0001C4 4EF0 8028            00028  1985  1  237.                CVD   R15,DEC             Convert to packed
 0001C8 FA75 8028 78B6 00028 00A68  1986  1  238.                AP    DEC,=P'2147483648'  Add back unsign
 0001CE                             1987     239.              END   ,
 0001CE 7020           001CE 001B8  1991     240.              ELSE  BEGIN
 0001BE 7020           001C0 001CE  1996             +
 0001CE 47F0 7024            001D6  1998             +
 0001D2 4EF0 8028            00028  2004  1  241.                CVD   R15,DEC             Convert passed value to packed
 0001D6                             2005     242.              END   ,
 0001D6 D20E 8034 5000 00034 00000  2009     243.              MVC   EDITAREA,@RR        Move in requested edit mask
 0001DC 1851                        2010     244.              LR    RR,R1               Save return area location
 0001DE 4110 8042            00042  2011     245.              LA    R1,EDITAREA+L'EDITAREA-1  DEFAULT SIGNIFIGANCE
 0001E2 DF0E 8034 802A 00034 0002A  2012     246.              EDMK  EDITAREA,DEC+2      Can be at most 10 digits
 0001E8 12FF/47B0 7042       001F4  2013     247.              IF     (R15,NEG),BEGIN    Insert minus sign if negative
 0001EE 0610                        2027  1  248.                DECR  R1                      BACK UP ONE
 0001F0 9260 1000      00000        2029  1  249.                MVI   @R1,C'-'                SHOVE IT IN
 0001F4                             2030     250.              END    ,
 0001F4 4130 8043            00043  2034     251.              LA    TR,EDITAREA+L'EDITAREA  CALCULATE LENGTH OF RESULT
 0001F8 1B31                        2035     252.              SR    TR,R1                   IN TR
 0001FA 1815                        2036     253.              LR    R1,RR                   RESTORE RETURN POINTER
 0001FC 1200/4720 7054       00206  2037     254.              IF     (R0,NP),BEGIN          NOT FIXED FIELD, CALCULATE
 000202 1300                        2051  1  255.                LCR   R0,R0                   DESIRED NUMBER OF LEADING
 000204 1A03                        2052  1  256.                AR    R0,TR                   BLANKS
 000206                             2053     257.              END    ,
 000206 4120 8043            00043  2057     258.              LA    SR,EDITAREA+L'EDITAREA  GET FROM ADDRESS
 00020A 1B20                        2058     259.              SR    SR,R0
 00020C 1830                        2059     260.              LR    TR,R0                   MOVE LENGTH FOR EXECUTE
 00020E 0630/4430 7A36       00BE8  2060     261.              DEX   TR,'MVC  @R1(0),@SR'    MOVE RESULT TO USER AREA
 000BE8 D200 1000 2000 00000 00000  2071             +
 000214 18D8/9828 D004       00004  2079     262.              XEXIT SR,WAR
 00021A 58E0 D000/07FE       00000  2082             +
 DROP   *,R7                        2084     263.              DROP  BR                  Release routine addressability
 DROP   WA,R8                       2091     264.              DROP  WAR                 Release stack work area
1VCR      (VCR03) (09:46) (22MAR04) Orvyl's Conversion Routines                                                             Page   12
0Loc    Object Code    Addr1 Addr2  Stmt Lv Lineno    Source Statement           (Hibal 5, Asmedit 3.3)  HLASM R4.0  2004/03/22 09.46
+___    ______ ____    _____ _____  ____ __ ______    ______ _________
0                                   2099     266.     *
                                    2100     267.     **  BTX -- Routine to format hexadecimal strings.
                                    2101     268.     **
                                    2102     269.     **    On entry:
                                    2103     270.     **      R15   - 32 bit integer value
                                    2104     271.     **      R1    - return area
                                    2105     272.     **      R0    - Maximum length of result    (Positive)
                                    2106     273.     **            - Number of leading blanks    (Negative)
                                    2107     274.     **            - Return actual string length (Zero)
                                    2108     275.     **
                                    2109     276.     **    On exit:
                                    2110     277.     **      R1,R0 - text loc, len
                                    2111     278.     *
 000220 50E0 D000            00000  2112     279.     BTX      XENTER R2,R8,L'WA
 000224 9028 D004/188D       00004  2115             +
 00022A 41D0 D050/0D70       00050  2117             +
 USING  *,R7                        2132     280.              USING WA,WAR                  ##
 USING  WA,R8
 000230 50F0 8030            00030  2141     281.              ST    R15,HEXW                WORD TO BE CONVERTED
 000234 F384 8034 8030 00034 00030  2142     282.              UNPK  HEXS(9),HEXW(5)         TO ZONED FORMAT
 00023A DC07 8034 7882 00034 00AB2  2143     283.              TR    HEXS(8),HEXTBL-C'0'     TO HEX FORMAT
 000240 1230                        2144     284.              LTR   TR,R0                   LENGTH
 000242 4770 7036            00266  2145     285.              IF    Z,BEGIN                 NOT GIVEN CALCULATE IT
 000246 4120 8033            00033  2156  1  286.                LA    SR,HEXS-1
 00024A 4130 0007            00007  2157  1  287.                LA    TR,7
 00024E 4120 2001            00001  2158  1  288.     BTXCHK0    LA    SR,@SR+1
 000252 95F0 2000      00000        2159  1  289.                CLI   @SR,C'0'                START OF NON-ZERO STUFF?
 000256 4770 7032            00262  2160  1  290.                BNE   BTXX                    YES, DONE
 00025A 4630 701E            0024E  2161  1  291.                BCT   TR,BTXCHK0              KEEP LOOKING
 00025E 4120 2001            00001  2162  1  292.                LA    SR,@SR+1                POINT TO LAST DIGIT
 000262 4100 3001            00001  2163  1  293.     BTXX       LA    R0,@TR+1                GET REAL LENGTH IN R0
 000266 703A           00266 00244  2164     294.              END   ELSE,BEGIN
 000266 47F0 7042            00272  2173             +
 00026A 4120 803C            0003C  2179  1  295.                LA    SR,HEXS+8               COMPUTE ADDR TO MOVE FROM
 00026E 1B23                        2180  1  296.                SR    SR,TR
 000270 0630                        2181  1  297.                DECR  TR
 000272                             2183     298.              END   ,
 000272 4430 79BE            00BEE  2187     299.              EX    TR,'MVC  @R1(0),@SR'    MOVE TO USERS AREA
 000BEE D200 1000 2000 00000 00000  2195             +
 000276 18D8/9828 D004       00004  2203     300.              XEXIT R2,R8
 00027C 58E0 D000/07FE       00000  2206             +
 DROP   *,R7                        2208     301.              DROP  BR                  Release routine addressability
 DROP   WA,R8                       2215     302.              DROP  WAR                 Release stack work area
1VCR      (VCR03) (09:46) (22MAR04) Orvyl's Conversion Routines                                                             Page   13
0Loc    Object Code    Addr1 Addr2  Stmt Lv Lineno    Source Statement           (Hibal 5, Asmedit 3.3)  HLASM R4.0  2004/03/22 09.46
+___    ______ ____    _____ _____  ____ __ ______    ______ _________
0                                   2223     304.     *
                                    2224     305.     **  RTB -- Routine to convert decimal strings.
                                    2225     306.     **
                                    2226     307.     **    On entry:
                                    2227     308.     **      R1,R0 - text loc, len
                                    2228     309.     **      R15   - Number of decimal places
                                    2229     310.     **
                                    2230     311.     **    On exit:
                                    2231     312.     **      CC = 0 - R15 = 32 bit integer value
                                    2232     313.     **
                                    2233     314.     **      CC =~0 - Invalid decimal string
                                    2234     315.     *
 000282 50E0 D000            00000  2235     316.     RTB      XENTER SR,WAR,L'WA
 000286 9028 D004/188D       00004  2238             +
 00028C 41D0 D050/0D70       00050  2240             +
 USING  *,R7                        2255     317.              USING WA,WAR                  ##
 USING  WA,R8
 000292 947F 803C      0003C        2264     318.              CLEAR POINT                   NO DECIMAL POINT YET
 000296 1B33                        2271     319.              CLEAR TR                      ZERO RESULT REG
                                    2275     320.
 000298 954B 1000      00000        2276     321.     RTBLOOP  IF    ('CLI  @R1,C"."',E),BEGIN   DECIMAL POINT?
 00029C 4770 701A            002AC  2285             +
 0002A0 9180 803C      0003C        2290  1  322.                IF    POINT,INVRVAL           IF ALREADY HAVE ONE, ERROR
 0002A4 4710 7070            00302  2302  1          +
 0002A8 9680 803C      0003C        2308  1  323.                SET   POINT                   GOT ONE NOW
 0002AC 701E           002AC 0029E  2314     324.              END   ELSE,BEGIN
 0002AC 47F0 704A            002DC  2323             +
 0002B0 1F22/4320 1000       00000  2329  1  325.                LC    SR,@R1                  GET CHARACTER
 0002B6 5B20 7776            00A08  2336  1  326.                S     SR,=A(C'0')             GET BINARY VALUE FOR DIGIT
 0002BA 4740 7070            00302  2337  1  327.                BM    INVRVAL                 NOT A DIGIT
 0002BE 4920 77DC            00A6E  2338  1  328.                IF    (SR,GE,=Y(10)),INVRVAL  SEE IF TOO LARGE
 0002C2 47A0 7070            00302  2351  1          +
 0002C6 4C30 77DC            00A6E  2357  1  329.                MH    TR,=Y(10)               SHIFT RESULT BY ONE DIGIT
 0002CA 1A32                        2358  1  330.                AR    TR,SR                   ACCUMULATE RESULT
 0002CC 9180 803C      0003C        2359  1  331.                IF    POINT,BEGIN             CHECK FOR TOO MANY
 0002D0 47E0 704A            002DC  2369  1          +
 0002D4 06F0                        2374  2  332.                  DECR  R15                     DECIMAL PLACES
 0002D6 12FF/4740 7070       00302  2376  2  333.                  IF    (R15,M),INVRVAL         IF SO, BAD VALUE
 0002DC                             2393  1  334.                END   ,
 0002DC                             2397     335.              END   ,
 0002DC 4110 1001            00001  2401     336.              LA    R1,@R1+1                BUMP POINTER
 0002E0 4600 7006            00298  2402     337.              BCT   R0,RTBLOOP              IF MORE, GO TO NEXT
 0002E4 12FF/47D0 7060       002F2  2403     338.              IF    (R15,P),BEGIN           IF NEED TO SHIFT IT MORE,
 0002EA 4C30 77DC            00A6E  2417  1  339.                MH    TR,=Y(10)               SHIFT IT BY A DIGIT
 0002EE 46F0 7058            002EA  2418  1  340.                BCT   R15,*-4                 LOOP UNTIL DONE
 0002F2                             2419     341.              END   ,
 0002F2 18F3                        2423     342.              LR    R15,TR                  RETURN VALUE IN R15
 0002F4 18D8/9828 D004       00004  2424     343.     RTBEXIT  XEXIT SR,WAR,LTR              RETURN TO CALLER
 0002FA 58E0 D000/12FF       00000  2427             +
 000300 07FE                        2429             +
-000302 1BFF                        2431     345.     INVRVAL  CLEAR R15                     INVALID VALUE, RETURN
 000304 06F0                        2436     346.              DECR  R15                     MINUS CONDITION CODE
 000306 47F0 7062            002F4  2438     347.              B     RTBEXIT
                                    2439     348.
1VCR      (VCR03) (09:46) (22MAR04) Orvyl's Conversion Routines                                                             Page   14
0Current Usings:  (WA,R8)
0Loc    Object Code    Addr1 Addr2  Stmt Lv Lineno    Source Statement           (Hibal 5, Asmedit 3.3)  HLASM R4.0  2004/03/22 09.46
+___    ______ ____    _____ _____  ____ __ ______    ______ _________
0DROP   *,R7                        2440     349.              DROP  BR                  Release routine addressability
 DROP   WA,R8                       2447     350.              DROP  WAR                 Release stack work area
1VCR      (VCR03) (09:46) (22MAR04) Orvyl's Conversion Routines                                                             Page   15
0Loc    Object Code    Addr1 Addr2  Stmt Lv Lineno    Source Statement           (Hibal 5, Asmedit 3.3)  HLASM R4.0  2004/03/22 09.46
+___    ______ ____    _____ _____  ____ __ ______    ______ _________
0                                   2455     352.     *
                                    2456     353.     **  BTR -- Routine to format decimal strings.
                                    2457     354.     **
                                    2458     355.     **    On entry:
                                    2459     356.     **      R15   - 32 bit integer value
                                    2460     357.     **      R1    - return area
                                    2461     358.     **      R0    - Bytes 0-2 Length of area
                                    2462     359.     **            - Byte 3    Number of decimal places (0-7)
                                    2463     360.     **
                                    2464     361.     **    On exit:
                                    2465     362.     **      R1,R0 - text loc, len
                                    2466     363.     *
 00030A 50E0 D000            00000  2467     364.     BTR      XENTER SR,WAR,L'WA
 00030E 9028 D004/188D       00004  2470             +
 000314 41D0 D050/0D70       00050  2472             +
 USING  *,R7                        2487     365.              USING WA,WAR                  ##
 USING  WA,R8
 00031A 1851                        2496     366.              LR    RR,R1                   SAVE OUTPUT POINTER
 00031C 4EF0 8028            00028  2497     367.              CVD   R15,DEC
 000320 4120 0007            00007  2498     368.              LA    SR,X'07'                GET NUMBER
 000324 1420                        2499     369.              NR    SR,R0                    OF DIGITS
 000326 4132 78B6            00BD0  2500     370.              LA    TR,BTREDMSK(SR)         GET START OF MASK TO USE
 00032A 4110 804C            0004C  2501     371.              LA    R1,REDITWA+15           DEFAULT STARTING POINT
 00032E 1B12                        2502     372.              SR    R1,SR                   MINUS OFFSET
 000330 D210 803D 3000 0003D 00000  2503     373.              MVC   REDITWA,@TR             GET MASK
 000336 9240 803D      0003D        2504     374.              MVI   REDITWA,C' '            FIRST BYTE IS PAD CHAR
 00033A DF10 803D 8028 0003D 00028  2505     375.              EDMK  REDITWA,DEC             EDIT NUMBER
 000340 12FF/47B0 7032       0034C  2506     376.              IF    (R15,NEG),'DECR R1; MVI @R1,C"-"'
 000346 0610/9260 1000 00000        2522             +
 00034C 8A00 0008            00008  2528     377.              SRA   R0,8                    GET NUMBER OF DIGITS TO PRODUCE
 000350 4770 7040            0035A  2529     378.              IF     Z,BEGIN                IF 0, USE AS MUCH AS NECESSARY
 000354 4100 804E            0004E  2540  1  379.                LA    R0,REDITWA+L'REDITWA    R1 POINTS TO START,
 000358 1B01                        2541  1  380.                SR    R0,R1                   GET LENGTH IN R0
 00035A                             2542     381.              END
 00035A 7044           0035A 00352  2546     382.              ELSE  BEGIN
 00035A 47F0 704A            00364  2551             +
 00035E 4110 804E            0004E  2557  1  383.                LA    R1,REDITWA+L'REDITWA    R0 HAS LENGTH,
 000362 1B10                        2558  1  384.                SR    R1,R0                   GET START IN R1
 000364                             2559     385.              END
 000364 1820                        2563     386.              LR    SR,R0                   LENGTH IN SR FOR EXECUTE
 000366 0620/4420 78DA       00BF4  2564     387.              DEX   SR,'MVC  @RR(0),@R1'    MOVE TO OUTPUT
 000BF4 D200 5000 1000 00000 00000  2575             +
 00036C 1815                        2583     388.              LR    R1,RR                   SET R1 TO POINT TO OUTPUT
 00036E 18D8/9828 D004       00004  2584     389.              XEXIT SR,WAR                  DONE
 000374 58E0 D000/07FE       00000  2587             +
 DROP   *,R7                        2589     390.              DROP  BR                  Release routine addressability
 DROP   WA,R8                       2596     391.              DROP  WAR                 Release stack work area
1VCR      (VCR03) (09:46) (22MAR04) Orvyl's Conversion Routines                                                             Page   16
0Loc    Object Code    Addr1 Addr2  Stmt Lv Lineno    Source Statement           (Hibal 5, Asmedit 3.3)  HLASM R4.0  2004/03/22 09.46
+___    ______ ____    _____ _____  ____ __ ______    ______ _________
0                                   2604     393.     *
                                    2605     394.     **  FMTELAPS -- routine to format elapsed time
                                    2606     395.     **
                                    2607     396.     **    On entry:
                                    2608     397.     **      R0-R1 - 64 bit elapsed time in TOD format
                                    2609     398.     **      R15   - return area (16 bytes)
                                    2610     399.     **
                                    2611     400.     **    On exit:
                                    2612     401.     **      R1,R0 - text loc,len    returns: dddd hh:mm:ss.hh
                                    2613     402.     **                                 where dddd = number of days
                                    2614     403.     **                                   and hh:mm:ss.hh is the
                                    2615     404.     **                                     number of hours etc.
                                    2616     405.     **    Note: Days truncate to 4 digits which gives over 27 years
                                    2617     406.     *
 00037A 50E0 D000            00000  2618     407.     FMTELAPS XENTER SR,WAR,*
 00037E 9028 D004/188D       00004  2621             +
 000384 41D0 D020/0D70       00020  2623             +
 00038A 186F                        2638     408.              LR    R6,R15              get return area pointer
 USING  *,R7
 00038C                             2639     409.              CLEAR (@R6,16)            clear workarea
 00038C D70F 6000 6000 00000 00000  2645             +
 000392 1840                        2646     410.              LR    R4,R0               get input time
 000394 1851                        2647     411.              LR    R5,R1               get input time
                                    2648     412.     * BIT 51 is one milisecond
 000396 8C40 0012            00012  2649     413.              SRDL  R4,12+6             calc no of .000001*64 seconds
 00039A 5D40 768A            00A14  2650     414.              D     R4,=A(1000000/64*60*60*24) calc number of days
 00039E 18F5/4100 0004       00004  2651     415.              BTD   @R6,4,(R5)          convert days
 0003A4 1816/58E0 768E       00A18  2670             +
 0003AA 0DEE                        2674             +
 0003AC 1854                        2675     416.              LR    R5,R4               get .000001*64 secs remainder
 0003AE 1B44                        2676     417.              CLEAR R4
 0003B0 5D40 7692            00A1C  2680     418.              D     R4,=A(1000000/64*60*60) calc number of hours
 0003B4 18F5/4100 0002       00002  2681     419.              BTD   @R6+5,2,(R5)        convert hours
 0003BA 4110 6005            00005  2700             +
 0003BE 58E0 768E/0DEE       00A18  2703             +
 0003C4 1854                        2705     420.              LR    R5,R4               get .000001*64 secs remainder
 0003C6 1B44                        2706     421.              CLEAR R4
 0003C8 5D40 7696            00A20  2710     422.              D     R4,=A(1000000/64*60) calc number of minutes
 0003CC 18F5/4100 0002       00002  2711     423.              BTD   @R6+8,2,(R5)        convert minutes
 0003D2 4110 6008            00008  2730             +
 0003D6 58E0 768E/0DEE       00A18  2733             +
 0003DC 1854                        2735     424.              LR    R5,R4               get .000001*64 secs remainder
 0003DE 1B44                        2736     425.              CLEAR R4
 0003E0 5D40 769A            00A24  2740     426.              D     R4,=A(1000000/64)   calc number of seconds
 0003E4 18F5/4100 0002       00002  2741     427.              BTD   @R6+11,2,(R5)       convert seconds
 0003EA 4110 600B            0000B  2760             +
 0003EE 58E0 768E/0DEE       00A18  2763             +
 0003F4 1854                        2765     428.              LR    R5,R4               get .000001*64 secs remainder
 0003F6 1B44                        2766     429.              CLEAR R4
 0003F8 5D40 769E            00A28  2770     430.              D     R4,=A(10000/64)     calc number of .01 seconds
 0003FC 18F5/4100 0002       00002  2771     431.              BTD   @R6+14,2,(R5)       convert .01 seconds
 000402 4110 600E            0000E  2790             +
 000406 58E0 768E/0DEE       00A18  2793             +
 00040C D60F 6000 765E 00000 009E8  2795     432.              OC    @R6(16),=C'     00:00:00.00' leading zeros
 000412 1816/4100 0010       00010  2796     433.              SETMSG @R6,16              set output pointers
 000418 18D8/9828 D004       00004  2812     434.              XEXIT SR,WAR
1VCR      (VCR03) (09:46) (22MAR04) Orvyl's Conversion Routines                                                             Page   17
0Current Usings:  (*,R7)
0Loc    Object Code    Addr1 Addr2  Stmt Lv Lineno    Source Statement           (Hibal 5, Asmedit 3.3)  HLASM R4.0  2004/03/22 09.46
+___    ______ ____    _____ _____  ____ __ ______    ______ _________
000041E 58E0 D000/07FE       00000  2815             +
 DROP   *,R7                        2817     435.              DROP  BR                  Release routine addressability
1VCR      (VCR03) (09:46) (22MAR04) Orvyl's Conversion Routines                                                             Page   18
0Loc    Object Code    Addr1 Addr2  Stmt Lv Lineno    Source Statement           (Hibal 5, Asmedit 3.3)  HLASM R4.0  2004/03/22 09.46
+___    ______ ____    _____ _____  ____ __ ______    ______ _________
0                                   2825     437.     *
                                    2826     438.     **  FMTCLCK -- Routine to format time/date from TOD clock.
                                    2827     439.     **
                                    2828     440.     **    On entry:
                                    2829     441.     **      R0-R1 - 64 bit clock (zero = current time/date)
                                    2830     442.     **      R15   - return area (26 bytes)
                                    2831     443.     **
                                    2832     444.     **    On exit:
                                    2833     445.     **      R1,R0 - text loc, len    returns: hh:mm:ss mm/dd/yy (yy.ddd)
                                    2834     446.     *
 000424 50E0 D000            00000  2835     447.     FMTCLCK  XENTER SR,WAR,*
 000428 9028 D004/188D       00004  2838             +
 00042E 41D0 D020/0D70       00020  2840             +
 000434 186F                        2855     448.              LR    R6,R15
 USING  *,R7
 000436 D219 6000 774E 00000 00B82  2856     449.              MVC   @R6(26),BLANKS
                                    2857     450.
 00043C 1840                        2858     451.              LR    R4,R0
 00043E 1851                        2859     452.              LR    R5,R1
 000440 4DE0 70BC            004F0  2860     453.              LCALL FMTTIME             HH:MM:SS
 000444 9240 6008      00008        2862     454.              MVI   @R6+8,C' '
                                    2863     455.
 000448 1804                        2864     456.              LR    R0,R4
 00044A 1815                        2865     457.              LR    R1,R5
 00044C 41F0 6009            00009  2866     458.              LA    R15,@R6+9
 000450 4DE0 712C            00560  2867     459.              LCALL FMTDATE             MM/DD/YY
                                    2869     460.
 000454 924D 6012      00012        2870     461.              MVI   @R6+18,C'('
 000458 1804                        2871     462.              LR    R0,R4
 00045A 1815                        2872     463.              LR    R1,R5
 00045C 41F0 6013            00013  2873     464.              LA    R15,@R6+19
 000460 4DE0 71D6            0060A  2874     465.              LCALL FMTJUL              YY.DDD
 000464 925D 6019      00019        2876     466.              MVI   @R6+25,C')'
                                    2877     467.
 000468 1816/4100 001A       0001A  2878     468.              SETMSG @R6,26
 00046E 18D8/9828 D004       00004  2894     469.              XEXIT SR,WAR
 000474 58E0 D000/07FE       00000  2897             +
 DROP   *,R7                        2899     470.              DROP  BR                  Release routine addressability
1VCR      (VCR03) (09:46) (22MAR04) Orvyl's Conversion Routines                                                             Page   19
0Loc    Object Code    Addr1 Addr2  Stmt Lv Lineno    Source Statement           (Hibal 5, Asmedit 3.3)  HLASM R4.0  2004/03/22 09.46
+___    ______ ____    _____ _____  ____ __ ______    ______ _________
0                                   2907     472.     *
                                    2908     473.     **  FMTRCLCK -- Routine to format time/conditional-date from TOD clock.
                                    2909     474.     **
                                    2910     475.     **    On entry:
                                    2911     476.     **      R0-R1 - 64 bit clock
                                    2912     477.     **      R2-R3 - 64 bit comparison clock (zero = current)
                                    2913     478.     **
                                    2914     479.     **    On exit:
                                    2915     480.     **      R1,R0 - text loc,len    returns: hh:mm -or- hh:mm mm/dd
                                    2916     481.     *
 00047A 50E0 D000            00000  2917     482.     FMTRCLCK XENTER SR,WAR,*
 00047E 9028 D004/188D       00004  2920             +
 000484 41D0 D020/0D70       00020  2922             +
 00048A 186F                        2937     483.              LR    R6,R15
 USING  *,R7
 00048C D20A 6000 76F8 00000 00B82  2938     484.              MVC   @R6(11),BLANKS
                                    2939     485.
 000492 1840                        2940     486.              LR    R4,R0
 000494 1851                        2941     487.              LR    R5,R1
 000496 18FD/41D0 D00C       0000C  2942     488.              VPUSH ,,11,PTR=R15
 00049C 4DE0 7066            004F0  2945     489.              LCALL FMTTIME
 0004A0 D204 6000 1000 00000 00000  2947     490.              MVC   @R6(5),@R1          HH:MM
                                    2948     491.
 0004A6 18F1                        2949     492.              LR    R15,R1
 0004A8 1804                        2950     493.              LR    R0,R4
 0004AA 1815                        2951     494.              LR    R1,R5
 0004AC 4DE0 70D6            00560  2952     495.              LCALL FMTDATE
 0004B0 D204 6006 1000 00006 00000  2954     496.              MVC   @R6+6(5),@R1        MM/DD
 0004B6 4BD0 75E6            00A70  2955     497.              VPOP  ,,11
                                    2957     498.
 0004BA 1804                        2958     499.              LR    R0,R4
 0004BC 4110 0005            00005  2959     500.              LA    R1,R5
 0004C0 4DE0 7258            006E2  2960     501.              LCALL TIMEDATE            GET DATE IN R1
 0004C4 1851                        2962     502.              LR    R5,R1
                                    2963     503.
 0004C6 1802                        2964     504.              LR    R0,R2
 0004C8 1813                        2965     505.              LR    R1,R3
 0004CA 4DE0 7258            006E2  2966     506.              LCALL TIMEDATE            GET "COMPARISON" DATE IN R1
                                    2968     507.
 0004CE 1915/4770 7050       004DA  2969     508.              IF    (R1,EQ,R5),'SETMSG @R6,5'  SAME DAY
 0004D4 1816/4100 0005       00005  2993             +
 0004DA 7054           004DA 004D2  3005     509.              ELSE  'SETMSG @R6,11'
 0004DA 47F0 705A/1816       004E4  3010             +
 0004E0 4100 000B            0000B  3032             +
 0004E4 18D8/9828 D004       00004  3037     510.              XEXIT SR,WAR
 0004EA 58E0 D000/07FE       00000  3040             +
 DROP   *,R7                        3042     511.              DROP  BR                  Release routine addressability
1VCR      (VCR03) (09:46) (22MAR04) Orvyl's Conversion Routines                                                             Page   20
0Loc    Object Code    Addr1 Addr2  Stmt Lv Lineno    Source Statement           (Hibal 5, Asmedit 3.3)  HLASM R4.0  2004/03/22 09.46
+___    ______ ____    _____ _____  ____ __ ______    ______ _________
0                                   3050     513.     *
                                    3051     514.     **  FMTTIME -- Routine to format time from TOD clock.
                                    3052     515.     **
                                    3053     516.     **    On entry:
                                    3054     517.     **      R0-R1 - 64 bit clock (zero = current time)
                                    3055     518.     **      R15   - return area (11 bytes)
                                    3056     519.     **
                                    3057     520.     **    On exit:
                                    3058     521.     **      R1,R0 - text loc, len    returns: hh:mm:ss.hh
                                    3059     522.     *
 0004F0 50E0 D000            00000  3060     523.     FMTTIME  XENTER SR,WAR,*
 0004F4 9028 D004/188D       00004  3063             +
 0004FA 41D0 D020/0D70       00020  3065             +
 000500 186F                        3080     524.              LR    R6,R15
 USING  *,R7
 000502 D20A 6000 7586 00000 00A86  3081     525.              MVC   @R6(11),=C'??:??:??.??'
                                    3082     526.
 000508 4DE0 71E2            006E2  3083     527.              LCALL TIMEDATE            GET TIME IN R0
 00050C 1850                        3085     528.              LR    R5,R0
 00050E 1B44                        3086     529.              CLEAR R4
 000510 5D40 752C            00A2C  3090     530.              D     R4,=A(60*100)
 000514 18F4/4100 0502       00502  3091     531.              BTR   @R6+6,(5,2),(R4)    SEC.HSEC
 00051A 4110 6006            00006  3110             +
 00051E 58E0 7530/0DEE       00A30  3113             +
 000524 1B44                        3115     532.              CLEAR R4
 000526 5D40 7534            00A34  3119     533.              D     R4,=A(60)           R4=MIN, R5=HOURS
 00052A 18F4/4100 0002       00002  3120     534.              BTD   @R6+3,2,(R4)        MIN
 000530 4110 6003            00003  3139             +
 000534 58E0 7518/0DEE       00A18  3142             +
 00053A 18F5/4100 0002       00002  3144     535.              BTD   @R6,2,(R5)          HOURS
 000540 1816/58E0 7518       00A18  3163             +
 000546 0DEE                        3167             +
 000548 D60A 6000 7591 00000 00A91  3168     536.              OC    @R6(11),=C'00 00 00 00'  LEADING ZEROS
                                    3169     537.
 00054E 1816/4100 000B       0000B  3170     538.              SETMSG @R6,11
 000554 18D8/9828 D004       00004  3186     539.              XEXIT SR,WAR
 00055A 58E0 D000/07FE       00000  3189             +
 DROP   *,R7                        3191     540.              DROP  BR                  Release routine addressability
1VCR      (VCR03) (09:46) (22MAR04) Orvyl's Conversion Routines                                                             Page   21
0Loc    Object Code    Addr1 Addr2  Stmt Lv Lineno    Source Statement           (Hibal 5, Asmedit 3.3)  HLASM R4.0  2004/03/22 09.46
+___    ______ ____    _____ _____  ____ __ ______    ______ _________
0                                   3199     542.     *
                                    3200     543.     **  FMTDATE -- Routine to format date from TOD clock.
                                    3201     544.     **
                                    3202     545.     **    On entry:
                                    3203     546.     **      R0-R1 - 64 bit clock (zero = current date)
                                    3204     547.     **      R15   - return area (8 bytes)
                                    3205     548.     **
                                    3206     549.     **    On exit:
                                    3207     550.     **      R1,R0 - text loc,len    returns: mm/dd/yy
                                    3208     551.     *
 000560 50E0 D000            00000  3209     552.     FMTDATE  XENTER SR,WAR,*
 000564 9028 D004/188D       00004  3212             +
 00056A 41D0 D020/0D70       00020  3214             +
 000570 186F                        3229     553.              LR    R6,R15
 USING  *,R7
 000572 D207 6000 7488 00000 009F8  3230     554.              MVC   @R6(8),=C'??/??/??'
                                    3231     555.
 000578 4DE0 7172            006E2  3232     556.              LCALL TIMEDATE            GET JULIAN DATE IN R1
 00057C                             3234     557.              CLEAR (@R13,4)
 00057C D703 D000 D000 00000 00000  3240             +
 000582 5010 D004            00004  3241     558.              ST    R1,@R13+4
 000586 4F50 D000            00000  3242     559.              CVB   R5,@R13             GET "YYDDD" IN BINARY
 00058A 1B44                        3243     560.              CLEAR R4
 00058C 5D40 74C8            00A38  3247     561.              D     R4,=A(1000)         R4=DAYS, R5=YEAR
 000590 18F5/4100 0002       00002  3248     562.              BTD   @R6+6,2,(R5)
 000596 4110 6006            00006  3267             +
 00059A 58E0 74A8/0DEE       00A18  3270             +
 0005A0 5450 74CC            00A3C  3272     563.              IF    ('N R5,=F"3"',NZ),BEGIN  NON-LEAP YEAR...
 0005A4 4780 7044            005B4  3280             +
 0005A8 5940 74D0            00A40  3285  1  564.                IF    (R4,GE,31+29),'LA R4,@R4+1'  SKIP FEB29TH
 0005AC 4750 7044            005B4  3297  1          +
 0005B0 4140 4001            00001  3303  1          +
 0005B4                             3308     565.              END
                                    3312     566.
 0005B4 4150 0001            00001  3313     567.              LA    R5,1                MONTH
 0005B8 4130 752E            00A9E  3314     568.              LA    R3,MONTHS
 0005BC 4940 3000            00000  3315     569.              WHILE ('CH R4,@R3',GT),BEGIN  NOT THIS MONTH...
 0005C0 47D0 7064            005D4  3325             +
 0005C4 4150 5001            00001  3330  1  570.                LA    R5,@R5+1
 0005C8 4B40 3000            00000  3331  1  571.                SH    R4,@R3
 0005CC 4130 3002            00002  3332  1  572.                LA    R3,@R3+2
 0005D0 47F0 704C            005BC  3333     573.              END
 0005D4 18F5/4100 0002       00002  3338     574.              BTD   @R6,2,(R5)          MONTH
 0005DA 1816/58E0 74A8       00A18  3357             +
 0005E0 0DEE                        3361             +
 0005E2 18F4/4100 0002       00002  3362     575.              BTD   @R6+3,2,(R4)        DAY
 0005E8 4110 6003            00003  3381             +
 0005EC 58E0 74A8/0DEE       00A18  3384             +
 0005F2 D607 6000 7490 00000 00A00  3386     576.              OC    @R6(8),=C'00 00 00'
                                    3387     577.
 0005F8 1816/4100 0008       00008  3388     578.              SETMSG @R6,8
 0005FE 18D8/9828 D004       00004  3404     579.              XEXIT SR,WAR
 000604 58E0 D000/07FE       00000  3407             +
 DROP   *,R7                        3409     580.              DROP  BR                  Release routine addressability
1VCR      (VCR03) (09:46) (22MAR04) Orvyl's Conversion Routines                                                             Page   22
0Loc    Object Code    Addr1 Addr2  Stmt Lv Lineno    Source Statement           (Hibal 5, Asmedit 3.3)  HLASM R4.0  2004/03/22 09.46
+___    ______ ____    _____ _____  ____ __ ______    ______ _________
0                                   3417     582.     *
                                    3418     583.     **  FMTJUL -- routine to format julian date from TOD clock.
                                    3419     584.     **
                                    3420     585.     **    On entry:
                                    3421     586.     **      R0-R1 - 64 bit clock (zero = current date)
                                    3422     587.     **      R15   - return area (6 bytes)
                                    3423     588.     **
                                    3424     589.     **    On exit:
                                    3425     590.     **      R1,R0 - text loc,len    returns: yy.ddd
                                    3426     591.     *
 00060A 50E0 D000            00000  3427     592.     FMTJUL   XENTER SR,WAR,*
 00060E 9028 D004/188D       00004  3430             +
 000614 41D0 D020/0D70       00020  3432             +
 00061A 186F                        3447     593.              LR    R6,R15
 USING  *,R7
                                    3448     594.
 00061C 4DE0 70C8            006E2  3449     595.              LCALL TIMEDATE            GET JULIAN DATE IN R1
 000620                             3451     596.              CLEAR (@R13,4)
 000620 D703 D000 D000 00000 00000  3457             +
 000626 5010 D004            00004  3458     597.              ST    R1,@R13+4
 00062A 4FF0 D000            00000  3459     598.              CVB   R15,@R13            GET "YYDDD" IN BINARY
 00062E 4100 0603/1816       00603  3460     599.              BTR   @R6,(6,3),(R15)
 000634 58E0 7416/0DEE       00A30  3481             +
 00063A D605 6000 7458 00000 00A72  3483     600.              OC    @R6(6),=C'00 000'
                                    3484     601.
 000640 1816/4100 0006       00006  3485     602.              SETMSG @R6,6
 000646 18D8/9828 D004       00004  3501     603.              XEXIT SR,WAR
 00064C 58E0 D000/07FE       00000  3504             +
 DROP   *,R7                        3506     604.              DROP  BR                  Release routine addressability
1VCR      (VCR03) (09:46) (22MAR04) Orvyl's Conversion Routines                                                             Page   23
0Loc    Object Code    Addr1 Addr2  Stmt Lv Lineno    Source Statement           (Hibal 5, Asmedit 3.3)  HLASM R4.0  2004/03/22 09.46
+___    ______ ____    _____ _____  ____ __ ______    ______ _________
0                                   3514     606.     *
                                    3515     607.     **  ORVTIMDT -- Routine to calculate ORVYL time/date.
                                    3516     608.     **
                                    3517     609.     **    On exit:
                                    3518     610.     **      R1 - time (in 26 usec's past midnight)
                                    3519     611.     **      R15- date (in "yyyymmdd" packed decimal format)
                                    3520     612.     *
 000652 50E0 D000            00000  3521     613.     ORVTIMDT XENTER R2,R8,L'WA
 000656 9028 D004/188D       00004  3524             +
 00065C 41D0 D050/0D70       00050  3526             +
 USING  *,R7                        3541     614.              USING WA,WAR                  ##
 USING  WA,R8
 000662 1B00/1B11                   3550     615.              CLEAR R0,R1
 000666 4DE0 7080            006E2  3556     616.              LCALL TIMEDATE
 00066A                             3558     617.              CLEAR DEC
 00066A D707 8028 8028 00028 00028  3564             +
 000670 5010 802C            0002C  3565     618.              ST    R1,DEC+4
 000674 1810                        3566     619.              LR    R1,R0                   RETURN TU TIME
 000676 4C10 7416            00A78  3567     620.              MH    R1,=Y(384)
 00067A 4F50 8028            00028  3568     621.              CVB   R5,DEC                  GET "YYDDD" IN BINARY
 00067E 1B44                        3569     622.              CLEAR R4
 000680 5D40 73D6            00A38  3573     623.              D     R4,=A(1000)             R4=DAYS, R5=YEAR
 000684 5450 73DA            00A3C  3574     624.              IF    ('N R5,=F"3"',NZ),BEGIN    NON-LEAP YEAR...
 000688 4780 7036            00698  3582             +
 00068C 5940 73DE            00A40  3587  1  625.                IF    (R4,GE,31+29),'LA R4,@R4+1'   SKIP FEB 29TH
 000690 4750 7036            00698  3599  1          +
 000694 4140 4001            00001  3605  1          +
 000698                             3610     626.              END   ,
                                    3614     627.
 000698 4150 0001            00001  3615     628.              LA    R5,1                MONTH
 00069C 4130 743C            00A9E  3616     629.              LA    R3,MONTHS
 0006A0 4940 3000            00000  3617     630.              WHILE ('CH R4,@R3',GT),BEGIN  NOT THIS MONTH...
 0006A4 47D0 7056            006B8  3627             +
 0006A8 4150 5001            00001  3632  1  631.                LA    R5,@R5+1
 0006AC 4B40 3000            00000  3633  1  632.                SH    R4,@R3
 0006B0 4130 3002            00002  3634  1  633.                LA    R3,@R3+2
 0006B4 47F0 703E            006A0  3635     634.              END
 0006B8 1BFF                        3640     635.              CLEAR R15
 0006BA BFF4 802D            0002D  3644     636.              ICM   R15,4,DEC+5             RETRIEVE YEAR
 0006BE BFF8 743A            00A9C  3645     637.              ICM   R15,8,=X'19'            INSERT CENTURY
 0006C2 4C50 7418            00A7A  3646     638.              MH    R5,=Y(100)              MONTH TIMES 100
 0006C6 1A54                        3647     639.              AR    R5,R4                   PLUS DAY
 0006C8 4E50 8028            00028  3648     640.              CVD   R5,DEC                  TO DECIMAL
 0006CC 5850 802C            0002C  3649     641.              L     R5,DEC+4                GET NUMBER
 0006D0 8850 0004            00004  3650     642.              SRL   R5,4                    SHIFT SIGN OUT
 0006D4 16F5                        3651     643.              OR    R15,R5
 0006D6 18D8/9828 D004       00004  3652     644.              XEXIT R2,R8                   RETURN TO CALLER
 0006DC 58E0 D000/07FE       00000  3655             +
 DROP   *,R7                        3657     645.              DROP  BR                  Release routine addressability
 DROP   WA,R8                       3664     646.              DROP  WAR                 Release stack work area
1VCR      (VCR03) (09:46) (22MAR04) Orvyl's Conversion Routines                                                             Page   24
0Loc    Object Code    Addr1 Addr2  Stmt Lv Lineno    Source Statement           (Hibal 5, Asmedit 3.3)  HLASM R4.0  2004/03/22 09.46
+___    ______ ____    _____ _____  ____ __ ______    ______ _________
0                                   3672     648.     *
                                    3673     649.     **  TIMEDATE -- Routine to calculate time/date from TOD clock.
                                    3674     650.     **    (Note the format returned is the same as the "TIME BIN" svc.)
                                    3675     651.     **
                                    3676     652.     **    On entry:
                                    3677     653.     **      R0-R1 - 64 bit clock (zero = current time/date)
                                    3678     654.     **
                                    3679     655.     **    On exit:
                                    3680     656.     **      R0 - time (in .01 sec's past midnight)
                                    3681     657.     **      R1 - date (in "yydddf" packed decimal format)
                                    3682     658.     *
 0006E2 50E0 D000            00000  3683     659.     TIMEDATE XENTER R2,R8,*
 0006E6 9028 D004/188D       00004  3686             +
 0006EC 41D0 D020/0D70       00020  3688             +
 0006F2 1200/4770 7014       00706  3703     660.              IF    ((R0,Z),AND,(R1,Z)),BEGIN
 USING  *,R7
 0006F8 1211/4770 7014       00706  3724             +
 0006FE B205 D000      00000        3730  1  661.                STCK  @R13
 000702 9801 D000            00000  3731  1  662.                LM    R0,R1,@R13
                                    3732  1  663.     *        L     R2,CVTPTR               OS CVT
                                    3733  1  664.     *        WITH  (CVT,R2),'AL  R0,CVTTZ'   GET LOCAL TIME
 000706                             3734     665.              END   ,
                                    3738     666.
 000706 8C00 0012            00012  3739     667.              SRDL  R0,12+6             .000001*64 OF A SEC
 00070A 5D00 7322            00A14  3740     668.              D     R0,=A(1000000/64*60*60*24)  ONE DAY
 00070E 4130 1001            00001  3741     669.              LA    R3,@R1+1            NO. OF DAYS SINCE 1900
 000712 1810                        3742     670.              LR    R1,R0               .000001*64 SEC SINCE MIDNIGHT
 000714 1B00                        3743     671.              CLEAR R0
 000716 8D00 0006            00006  3747     672.              SLDL  R0,6                .000001 SEC SINCE MIDNIGHT
 00071A 5D00 7352            00A44  3748     673.              D     R0,=A(10000)        .01 SEC SINCE MIDNIGHT
 00071E 1801                        3749     674.              LR    R0,R1
                                    3750     675.
 000720 1B22                        3751     676.              CLEAR R2
 000722 5C20 7356            00A48  3755     677.              M     R2,=A(100)
 000726 5D20 735A            00A4C  3756     678.              D     R2,=A(36525)        DAYS/365.25 = YEARS
 00072A 1813                        3757     679.              LR    R1,R3               YEAR
 00072C 4C10 738A            00A7C  3758     680.              MH    R1,=H'1000'         YY*1000
 000730 1832                        3759     681.              LR    R3,R2
 000732 1B22                        3760     682.              CLEAR R2
 000734 5D20 7356            00A48  3764     683.              D     R2,=A(100)          R3 = DAYS IN THIS YEAR (REL ZERO)
 000738 4111 3001            00001  3765     684.              LA    R1,@R3+1(R1)        FORM "YYDDD"
 00073C 4E10 D000            00000  3766     685.              CVD   R1,@R13
 000740 960F D007      00007        3767     686.              OI    @R13+7,X'0F'        MAKE SIGN CORRECT
 000744 5810 D004            00004  3768     687.              L     R1,@R13+4           DATE IN PACKED DECIMAL
 000748 18D8/9828 D004       00004  3769     688.              XEXIT R2,R8
 00074E 58E0 D000/07FE       00000  3772             +
 DROP   *,R7                        3774     689.              DROP  BR                  Release routine addressability
1VCR      (VCR03) (09:46) (22MAR04) Orvyl's Conversion Routines                                                             Page   25
0Loc    Object Code    Addr1 Addr2  Stmt Lv Lineno    Source Statement           (Hibal 5, Asmedit 3.3)  HLASM R4.0  2004/03/22 09.46
+___    ______ ____    _____ _____  ____ __ ______    ______ _________
0                                   3782     691.     *
                                    3783     692.     **  Routines to format day and date:
                                    3784     693.     **
                                    3785     694.     **  DAY   -  Routine to format day of the week.
                                    3786     695.     **           returns: ddddddd  (i.e. Thursday)
                                    3787     696.     **
                                    3788     697.     **  DATE  -  Routine to format date.
                                    3789     698.     **           returns: mm/dd/yy
                                    3790     699.     **
                                    3791     700.     **  DAYF  -  Routine to format day of the week and text form date.
                                    3792     701.     **           returns: dddddddd, mmmmmmmm nn, yyyy
                                    3793     702.     **                    (i.e. Wednesday, September 13, 1981)
                                    3794     703.     **
                                    3795     704.     **  DATEF -- Routine to format text form date.
                                    3796     705.     **           returns: mmmmmmmm nn, yyyy (i.e. March 15, 1981)
                                    3797     706.     **
                                    3798     707.     **    On entry:
                                    3799     708.     **      R0 - (Positive) - date in "yydddf" format (VS TIME BIN)
                                    3800     709.     **           (Negative) - date in "yyyymmdd" format (ORVYL SENSE 3)
                                    3801     710.     **      R1 - return area (8-23 bytes)
                                    3802     711.     **
                                    3803     712.     **    On exit:
                                    3804     713.     **      R1,R0 - text loc, len
                                    3805     714.     *
1VCR      (VCR03) (09:46) (22MAR04) Orvyl's Conversion Routines                                                             Page   26
0Loc    Object Code    Addr1 Addr2  Stmt Lv Lineno    Source Statement           (Hibal 5, Asmedit 3.3)  HLASM R4.0  2004/03/22 09.46
+___    ______ ____    _____ _____  ____ __ ______    ______ _________
0USING  WA,R8                       3807     716.              USING WA,WAR                  ##
                                    3816     717.
 000754 50E0 D000            00000  3817     718.     DAY      XENTER R2,R8,L'WA
 000758 9028 D004/188D       00004  3820             +
 00075E 41D0 D050/0D70       00050  3822             +
 000764 9620 803C      0003C        3837     719.              SET   FLDAY                   INDICATE DAY WANTED
 USING  *,R7
 000768 47F0 704C            007B0  3843     720.              B     DODATE                  JOIN THE COMMON
-
 00076C 50E0 D000            00000  3845     722.     DAYF     XENTER R2,R8,L'WA
 000770 9028 D004/188D       00004  3848             +
 000776 41D0 D050/0D70       00050  3850             +
 00077C 9660 803C      0003C        3868     723.              SET   FLDAY+TEXTDATE          THE WORKS PLEASE
 DROP   *,R7
 USING  *,R7
 000780 47F0 7034            007B0  3877     724.              B     DODATE                  JOIN THE COMMON
-
 000784 50E0 D000            00000  3879     726.     DATEF    XENTER R2,R8,L'WA
 000788 9028 D004/188D       00004  3882             +
 00078E 41D0 D050/0D70       00050  3884             +
 000794 9640 803C      0003C        3902     727.              SET   TEXTDATE                INDICATE TEXT STYLE
 DROP   *,R7
 USING  *,R7
 000798 47F0 701C            007B0  3908     728.              B     DODATE                  JOIN THE COMMON
-
 00079C 50E0 D000            00000  3910     730.     DATE     XENTER R2,R8,L'WA
 0007A0 9028 D004/188D       00004  3913             +
 0007A6 41D0 D050/0D70       00050  3915             +
 0007AC 9200 803C      0003C        3933     731.              CLEAR FLAGS                   CLEAR
 DROP   *,R7
 USING  *,R7
1VCR      (VCR03) (09:46) (22MAR04) Orvyl's Conversion Routines                                                             Page   27
0Current Usings:  (*,R7) (WA,R8)
0Loc    Object Code    Addr1 Addr2  Stmt Lv Lineno    Source Statement           (Hibal 5, Asmedit 3.3)  HLASM R4.0  2004/03/22 09.46
+___    ______ ____    _____ _____  ____ __ ______    ______ _________
00007B0 0D70                        3941     733.     DODATE   BASE  ,
 DROP   *,R7
 USING  *,R7
 0007B2 1200/4720 7042       007F4  3958     734.              IF    (R0,NP),BEGIN           ORVYL FORM
 0007B8 1300                        3972  1  735.                LCR   R0,R0
 0007BA 5000 802C            0002C  3973  1  736.                ST    R0,DEC+4                PLANT DATE
 0007BE F321 8028 802D 00028 0002D  3974  1  737.                UNPK  DEC(3),DEC+5(2)         CONVERT YEAR
 0007C4 D201 1006 8028 00006 00028  3975  1  738.                MVC   @R1+6(2),DEC            PUT INTO AREA
 0007CA F271 8028 1006 00028 00006  3976  1  739.                PACK  DEC(8),@R1+6(2)         REPACK IT
 0007D0 4F40 8028            00028  3977  1  740.                CVB   QR,DEC                  CONVERT YEAR TO BINARY
 0007D4 5000 8028            00028  3978  1  741.                ST    R0,DEC                  STORE ORIG VALUE AGAIN
 0007D8 F170 8028 802B 00028 0002B  3979  1  742.                MVO   DEC(8),DEC+3(1)         MOVE DAY
 0007DE 4F20 8028            00028  3980  1  743.                CVB   SR,DEC                  DAY OF THE MONTH
 0007E2 5000 8028            00028  3981  1  744.                ST    R0,DEC                  AND ONCE MORE
 0007E6 F170 8028 802A 00028 0002A  3982  1  745.                MVO   DEC(8),DEC+2(1)         MOVE MONTH
 0007EC 4F30 8028            00028  3983  1  746.                CVB   TR,DEC                  MONTH
 0007F0 4C30 72CC            00A7E  3984  1  747.                MH    TR,=H'10'
 0007F4 7046           007F4 007B6  3985     748.              END   ELSE,BEGIN              OS STYLE DATE
 0007F4 47F0 70AC            0085E  3994             +
 0007F8 5000 802C            0002C  4000  1  749.                ST    R0,DEC+4                PLANT DATE
 0007FC F321 8028 802D 00028 0002D  4001  1  750.                UNPK  DEC(3),DEC+5(2)         CONVERT YEAR
 000802 D201 1006 8028 00006 00028  4002  1  751.                MVC   @R1+6(2),DEC            PUT INTO AREA
 000808 F271 8028 1006 00028 00006  4003  1  752.                PACK  DEC(8),@R1+6(2)         REPACK IT
 00080E 4F40 8028            00028  4004  1  753.                CVB   QR,DEC                  CONVERT TO BINARY
 000812 5000 802C            0002C  4005  1  754.                ST    R0,DEC+4                STORE ORIG VALUE AGAIN
 000816                             4006  1  755.                CLEAR (DEC,6)                 CLEAR FOR CVB
 000816 D705 8028 8028 00028 00028  4012  1          +
 00081C 94F0 802F      0002F        4013  1  756.                NI    DEC+7,X'F0'             SET SIGN
 000820 960C 802F      0002F        4014  1  757.                OI    DEC+7,X'0C'
 000824 4F20 8028            00028  4015  1  758.                CVB   SR,DEC                  DAY OF YEAR
 000828 5520 729E            00A50  4016  1  759.                CL    SR,=A(31+28)            BEFORE FEB 28?
 00082C 47D0 708C            0083E  4017  1  760.                IF    H,BEGIN                 NO
 000830 4150 0003            00003  4028  2  761.                  LA    RR,3                    MASK FOR LEAP YEARS
 000834 1454                        4029  2  762.                  NR    RR,QR
 000836 4780 708C            0083E  4030  2  763.                  IF    Z,EXIT
 00083A 4120 2001            00001  4044  2  764.                  LA    SR,@SR+1                ALLOW FOR FEB 29
 00083E                             4045  1  765.                END  ,
 00083E 4130 000A            0000A  4049  1  766.                LA    TR,10                   SET MONTH TO JAN
 000842 4150 72EC            00A9E  4050  1  767.                LA    RR,MONTHS
 000846 4920 5000            00000  4051  1  768.                WHILE ('CH  SR,@RR',H),BEGIN
 00084A 47D0 70AC            0085E  4061  1          +
 00084E 4B20 5000            00000  4066  2  769.                  SH    SR,@RR                  TRY NEXT MONTH
 000852 4130 300A            0000A  4067  2  770.                  LA    TR,@TR+10
 000856 4150 5002            00002  4068  2  771.                  LA    RR,@RR+2
 00085A 47F0 7094            00846  4069  1  772.                END   ,
 00085E                             4074     773.              END   ,
1VCR      (VCR03) (09:46) (22MAR04) Orvyl's Conversion Routines                                                             Page   28
0Current Usings:  (*,R7) (WA,R8)
0Loc    Object Code    Addr1 Addr2  Stmt Lv Lineno    Source Statement           (Hibal 5, Asmedit 3.3)  HLASM R4.0  2004/03/22 09.46
+___    ______ ____    _____ _____  ____ __ ______    ______ _________
0                                   4079     775.     *
                                    4080     776.     *      MONTH TIMES 10 IN TR, DAY IN SR AND YEAR IN QR
                                    4081     777.     *
 00085E 9120 803C      0003C        4082     778.              IF    FLDAY,DODAY             WANTS DAY?
 000862 4710 70E8            0089A  4094             +
 000866 9140 803C      0003C        4100     779.              IF    TEXTDATE,DOTEXT         WANTS FANCY FORM?
 00086A 4710 715A            0090C  4112             +
 00086E 4E30 8028            00028  4118     780.              CVD   TR,DEC                  CONVERT MONTH
 000872 F321 1000 802E 00000 0002E  4119     781.              UNPK  @R1(3),DEC+6(2)
 000878 4C20 72CC            00A7E  4120     782.              MH    SR,=H'10'
 00087C 4E20 8028            00028  4121     783.              CVD   SR,DEC                  CONVERT DAY
 000880 F321 1003 802E 00003 0002E  4122     784.              UNPK  @R1+3(3),DEC+6(2)
 000886 9261 1002      00002        4123     785.              MVI   @R1+2,C'/'
 00088A 9261 1005      00005        4124     786.              MVI   @R1+5,C'/'
 00088E 18D8/9828 D004       00004  4125     787.     DATEXIT  XEXIT R2,R8
 000894 58E0 D000/07FE       00000  4128             +
                                    4130     788.
 00089A                             4131     789.     DODAY    DS    0H
 00089A 9024 8030            00030  4132     790.              STM   SR,QR,DAYSAVE           SAVE FOR LATER
 00089E 1B22                        4133     791.              SR    SR,SR                   NEED MONTH AS INTEGER
 0008A0 5D20 72A2            00A54  4134     792.              D     SR,=A(10)
 0008A4 5820 8030            00030  4135     793.              L     SR,DAYSAVE              REFRESH DAY VALUE
 0008A8 4930 72CE            00A80  4136     794.              CH    TR,=H'2'                CHECK FOR M<=2
 0008AC 4720 7100            008B2  4137     795.              BH    *+6                     LEAVE ALONE IF HIGH
 0008B0 0640                        4138     796.              DECR  QR                      ELSE DECREMENT
 0008B2 8E40 0002            00002  4140     797.              SRDA  QR,2                    GET YY DIV 4
 0008B6 8850 001E            0001E  4141     798.              SRL   RR,30                   GET YY MOD 4
                                    4142     799.
 0008BA 1B00                        4143     800.              SR    R0,R0                   CLEAR FOR IC
 0008BC 4303 7305            00AB7  4144     801.              IC    R0,DAYFUDGE-1(TR)       GET FUDGE FACTOR
 0008C0 1A20                        4145     802.              AR    SR,R0                   ADD TO D
 0008C2 4140 4003            00003  4146     803.              LA    QR,@QR+3                GET (X2=3)+X3
 0008C6 4C40 72D0            00A82  4147     804.              MH    QR,=H'5'                MULT BY 5
 0008CA 1A24                        4148     805.              AR    SR,QR                   ADD TO D+G(M)
 0008CC 1A25                        4149     806.              AR    SR,RR                   ADD ON X4
 0008CE 8E20 0020            00020  4150     807.              SRDA  SR,32                   SMEAR FOR DIVIDE
 0008D2 5D20 72A6            00A58  4151     808.              D     SR,=F'7'                GET (THING) MOD 7
 0008D6 4C20 72CC            00A7E  4152     809.              MH    SR,=H'10'               MAKE INTO INDEX
 0008DA 1F00/4302 738A       00B3C  4153     810.              LC    R0,DAYS(SR)             RETURN LEN OF DAY NAME
 0008E0 4122 738B            00B3D  4158     811.              LA    SR,DAYS+1(SR)           GET ADDRESS
 0008E4 D208 1000 2000 00000 00000  4159     812.              MVC   @R1(9),@SR               AND MOVE IN
 0008EA 9140 803C      0003C        4160     813.              IF    ~TEXTDATE,DATEXIT       A BIG FINISH?
 0008EE 47E0 70DC            0088E  4172             +
 0008F2 1851                        4178     814.              LR    RR,R1                   LOCATION
 0008F4 1A50                        4179     815.              AR    RR,R0                   POINT AT END
 0008F6 D201 5000 72AA 00000 00A5C  4180     816.              MVC   @RR(2),=C', 19'         MAKE IT PRETTY
 0008FC 4A00 72D2            00A84  4181     817.              AH    R0,=Y(2)                RESET LENGTH
 000900 4150 5002            00002  4182     818.              LA    RR,@RR+2                 POINTER
 000904 9824 8030            00030  4183     819.              LM    SR,QR,DAYSAVE             AND BINARY DATE
 000908 47F0 715E            00910  4184     820.              B     DOTEXTD                 JUMP IN FEET FIRST
1VCR      (VCR03) (09:46) (22MAR04) Orvyl's Conversion Routines                                                             Page   29
0Current Usings:  (*,R7) (WA,R8)
0Loc    Object Code    Addr1 Addr2  Stmt Lv Lineno    Source Statement           (Hibal 5, Asmedit 3.3)  HLASM R4.0  2004/03/22 09.46
+___    ______ ____    _____ _____  ____ __ ______    ______ _________
000090C                             4186     822.     DOTEXT   DS    0H
 00090C 1B00                        4187     823.              SR    R0,R0                   CUMMULATIVE LENGTH
 00090E 1851                        4188     824.              LR    RR,R1                    AND OUTPUT POINTER
 000910                             4189     825.     DOTEXTD  DS    0H
 000910 4B30 72CC            00A7E  4190     826.              SH    TR,=H'10'               MAKE INTO INDEX
 000914 4133 7312            00AC4  4191     827.              LA    TR,MONTEXT(TR)          POINT AT RIGHT ONE
 000918 D208 5000 3001 00000 00001  4192     828.              MVC   @RR(9),@TR+1            MOVE IN MONTH NAME
 00091E 4E20 8028            00028  4193     829.              CVD   SR,DEC                  CONVERT DAY
 000922 1F22/4320 3000       00000  4194     830.              LC    SR,@TR                  GET PROPER LENGTH
 000928 1A02                        4201     831.              AR    R0,SR                   FOR USER
 00092A 4152 5000            00000  4202     832.              LA    RR,@RR(SR)               AND OUTPUT
 00092E 960F 802F      0002F        4203     833.              OI    DEC+7,X'0F'             SET SIGN
 000932 F321 5000 802E 00000 0002E  4204     834.              UNPK  @RR(3),DEC+6(2)         CONVERT DAY
 000938 9240 5000      00000        4205     835.              MVI   @RR,C' '
 00093C 4120 0003            00003  4206     836.              LA    SR,3                    ASSUMED LENGTH
 000940 95F0 5001      00001        4207     837.              CLI   @RR+1,C'0'              LEADING?
 000944 4770 719E            00950  4208     838.              BNE   DOTOK                   ALL SET IF NOT
 000948 D200 5001 5002 00001 00002  4209     839.              MVC   @RR+1(1),@RR+2          MOVE UP ONE
 00094E 0620                        4210     840.              DECR  SR                       AND DOWN ONE
 000950 4152 5000            00000  4212     841.     DOTOK    LA    RR,@RR(SR)              POINTER
 000954 D203 5000 72AA 00000 00A5C  4213     842.              MVC   @RR(4),=C', 19'         TIDY
 00095A 4150 5004            00004  4214     843.              LA    RR,@RR+4                RESET POINTER
 00095E 4120 2006            00006  4215     844.              LA    SR,@SR+6
 000962 1A02                        4216     845.              AR    R0,SR                   TOTAL COUNT
 000964 4E40 8028            00028  4217     846.              CVD   QR,DEC                  CONVERT YEAR
 000968 960F 802F      0002F        4218     847.              OI    DEC+7,X'0F'             SET SIGN
 00096C F321 8028 802E 00028 0002E  4219     848.              UNPK  DEC(3),DEC+6(2)
 000972 D201 5000 8029 00000 00029  4220     849.              MVC   @RR(2),DEC+1            AND ADD IT IN
 000978 47F0 70DC            0088E  4221     850.              B     DATEXIT
-
0DROP   *,R7                        4223     852.              DROP  BR                  Release routine addressability
 DROP   WA,R8                       4230     853.              DROP  WAR                 Release stack work area
1VCR      (VCR03) (09:46) (22MAR04) Orvyl's Conversion Routines                                                             Page   30
0Loc    Object Code    Addr1 Addr2  Stmt Lv Lineno    Source Statement           (Hibal 5, Asmedit 3.3)  HLASM R4.0  2004/03/22 09.46
+___    ______ ____    _____ _____  ____ __ ______    ______ _________
0                                   4238     855.     *
                                    4239     856.     **  TIME -- Routine to format time
                                    4240     857.     **
                                    4241     858.     **    On entry:
                                    4242     859.     **      R0 - time (in .01 sec's past midnight)
                                    4243     860.     **      R1 - return area (8 bytes)
                                    4244     861.     **
                                    4245     862.     **    On exit:
                                    4246     863.     **      R1,R0 - text loc, len    returns: hh:mm:ss
                                    4247     864.     *
 00097C 50E0 D000            00000  4248     865.     TIME     XENTER R2,R8,L'WA
 000980 9028 D004/188D       00004  4251             +
 000986 41D0 D050/0D70       00050  4253             +
 USING  *,R7                        4268     866.              USING WA,WAR                  ##
 USING  WA,R8
 00098C 1830                        4277     867.              LR    TR,R0
 00098E 1B22                        4278     868.              SR    SR,SR
 000990 5D20 70D4            00A60  4279     869.              D     SR,=F'100'              DISPOSE OF 100THS
 000994 1B22                        4280     870.              SR    SR,SR
 000996 5D20 70D8            00A64  4281     871.              D     SR,=F'60'               GET SECONDS
 00099A 4C20 70F2            00A7E  4282     872.              MH    SR,=H'10'
 00099E 4E20 8028            00028  4283     873.              CVD   SR,DEC
 0009A2 F321 8028 802E 00028 0002E  4284     874.              UNPK  DEC(3),DEC+6(2)
 0009A8 D201 1006 8028 00006 00028  4285     875.              MVC   @R1+6(2),DEC
 0009AE 1B22                        4286     876.              SR    SR,SR
 0009B0 5D20 70D8            00A64  4287     877.              D     SR,=F'60'               GET MINUTES
 0009B4 4C20 70F2            00A7E  4288     878.              MH    SR,=H'10'
 0009B8 4E20 8028            00028  4289     879.              CVD   SR,DEC
 0009BC F321 1003 802E 00003 0002E  4290     880.              UNPK  @R1+3(3),DEC+6(2)
 0009C2 4C30 70F2            00A7E  4291     881.              MH    TR,=H'10'
 0009C6 4E30 8028            00028  4292     882.              CVD   TR,DEC                  HOURS
 0009CA F321 1000 802E 00000 0002E  4293     883.              UNPK  @R1(3),DEC+6(2)
 0009D0 927A 1002      00002        4294     884.              MVI   @R1+2,C':'
 0009D4 927A 1005      00005        4295     885.              MVI   @R1+5,C':'
 0009D8 4100 0008            00008  4296     886.              LA    R0,8                    SET LENGTH
 0009DC 18D8/9828 D004       00004  4297     887.              XEXIT R2,R8
 0009E2 58E0 D000/07FE       00000  4300             +
 DROP   *,R7                        4302     888.              DROP  BR                  Release routine addressability
 DROP   WA,R8                       4309     889.              DROP  WAR                 Release stack work area
1VCR      (VCR03) (09:46) (22MAR04) Orvyl's Conversion Routines                                                             Page   31
0Loc    Object Code    Addr1 Addr2  Stmt Lv Lineno    Source Statement           (Hibal 5, Asmedit 3.3)  HLASM R4.0  2004/03/22 09.46
+___    ______ ____    _____ _____  ____ __ ______    ______ _________
0                                   4317     891.     ¿þþþþþþþþþþþþþþþþþþþþþþþþþþþþþþþþþþþþþþþþþþþþþþþþþþþþþþþþþþþþþþþþþþþþþÜ
                                    4318     892.     Ÿ                                                                     Ÿ
                                    4319     893.     Ÿ  Define final literal pool                                          Ÿ
                                    4320     894.     Ÿ                                                                     Ÿ
                                                      ¾þþþþþþþþþþþþþþþþþþþþþþþþþþþþþþþþþþþþþþþþþþþþþþþþþþþþþþþþþþþþþþþþþþþþþ»
-0009E8                             4322     896.              LTORG ,
 0009E8 4040404040F0F07A            4324                             =C'     00:00:00.00'
 0009F8 6F6F616F6F616F6F            4325                             =C'??/??/??'
 000A00 F0F040F0F040F0F0            4326                             =C'00 00 00'
 000A08 000000F0                    4327                             =A(C'0')
 000A0C 000000B7                    4328                             =A(C'A'-10)
 000A10 7FFFFFFF                    4329                             =X'7FFFFFFF'
 000A14 50775D80                    4330                             =A(1000000/64*60*60*24)
 000A18 00000000                    4331                             =V(BTD)
 000A1C 035A4E90                    4332                             =A(1000000/64*60*60)
 000A20 000E4E1C                    4333                             =A(1000000/64*60)
 000A24 00003D09                    4334                             =A(1000000/64)
 000A28 0000009C                    4335                             =A(10000/64)
 000A2C 00001770                    4336                             =A(60*100)
 000A30 00000000                    4337                             =V(BTR)
 000A34 0000003C                    4338                             =A(60)
 000A38 000003E8                    4339                             =A(1000)
 000A3C 00000003                    4340                             =F'3'
 000A40 0000003C                    4341                             =A(31+29)
 000A44 00002710                    4342                             =A(10000)
 000A48 00000064                    4343                             =A(100)
 000A4C 00008EAD                    4344                             =A(36525)
 000A50 0000003B                    4345                             =A(31+28)
 000A54 0000000A                    4346                             =A(10)
 000A58 00000007                    4347                             =F'7'
 000A5C 6B40F1F9                    4348                             =C', 19'
 000A60 00000064                    4349                             =F'100'
 000A64 0000003C                    4350                             =F'60'
 000A68 02147483648C                4351                             =P'2147483648'
 000A6E 000A                        4352                             =Y(10)
 000A70 000C                        4353                             =Y((11+3)/4*4)
 000A72 F0F040F0F0F0                4354                             =C'00 000'
 000A78 0180                        4355                             =Y(384)
 000A7A 0064                        4356                             =Y(100)
 000A7C 03E8                        4357                             =H'1000'
 000A7E 000A                        4358                             =H'10'
 000A80 0002                        4359                             =H'2'
 000A82 0005                        4360                             =H'5'
 000A84 0002                        4361                             =Y(2)
 000A86 6F6F7A6F6F7A6F6F            4362                             =C'??:??:??.??'
 000A91 F0F040F0F040F0F0            4363                             =C'00 00 00 00'
 000A9C 19             00BFA 00C00  4364                             =X'19'
-000C00                00C00 00C00  4369     898.              END   .

1VCR      (VCR03) (09:46) (22MAR04) Ordinary Symbol and Literal Cross Reference                                             Page   32
-Symbol   Length   Value     Id    R Type   Defn References                                  HLASM R4.0  2004/03/22 09.46
0$$$@R14       1 00000000 FFFFFFF0     J     889 1094
 $$$@R2        1 00000000 FFFFFFFC     J     733 1003
 $$$@R3        1 00000000 FFFFFFFB     J     746 1016
 $$$@R4        1 00000000 FFFFFFFA     J     759 1029
 $$$@R5        1 00000000 FFFFFFF9     J     772 1042
 $$$@R6        1 00000000 FFFFFFF8     J     785 1055
 $$$@R7        1 00000000 FFFFFFF7     J     798 1068
 $$$@R8        1 00000000 FFFFFFF6     J     811 1081
 $$$C1VCR      1 00000BFA 00000001     J    4365 4367
 $$$C2VCR      1 00000C00 00000001     J    4372 4374
 $$$D0VCR      1 00000A9D 00000001     J    1104 1128  2066  2190  2570
 $$$RWA        1 00000000 FFFFFFEE     J    1184 1235  1235
 $$$0B         1 00000020 00000001     X    1263 1270U
 $$$1F         2 0000003C 00000001     H    1316 1289B 1302B
 $$$1S         2 00000026 00000001     H    1281 1315B
 $$$11B        1 000000A0 00000001     X    1484 1491U
 $$$12F        2 000000D6 00000001     H    1582 1508B 1526B 1545B 1569B
 $$$12S        2 000000A2 00000001     H    1502 1581B
 $$$17B        1 000000EE 00000001     X    1620 1627U
 $$$18F        2 00000138 00000001     H    1759 1644B 1669B
 $$$18S        2 000000F0 00000001     H    1638 1758B
 $$$21B        4 00000108 00000001     I    1686 1698
 $$$21F        2 00000110 00000001     H    1695 1686B 1697
 $$$22E        2 00000114 00000001     H    1705 1699
 $$$22F        2 00000128 00000001     H    1749 1701B 1720B 1739B
 $$$25B        1 00000154 00000001     X    1809 1816U
 $$$26B        1 00000170 00000001     X    1845 1852U
 $$$27B        1 0000018C 00000001     X    1880 1887U
 $$$28B        1 000001A8 00000001     X    1917 1924U
 $$$29B        1 000001B2 00000001     X    1947 1954U
 $$$30B        4 000001BC 00000001     I    1979 1995
 $$$30F        2 000001CE 00000001     H    1990 1968B 1979B 1992
 $$$31B        4 000001B6 00000001     I    1968 1993
 $$$32E        2 000001D2 00000001     H    2002 1994  1996
 $$$32F        2 000001D6 00000001     H    2008 1998B
 $$$33F        2 000001F4 00000001     H    2033 2022B
 $$$34F        2 00000206 00000001     H    2056 2046B
 $$$35         6 00000BE8 00000001     I    2072 2064X
 $$$36         6 00000BE8 00000001     I    2071 2072  2072
 $$$37B        1 00000230 00000001     X    2123 2130U
 $$$38B        4 00000242 00000001     I    2151 2170
 $$$38F        2 00000266 00000001     H    2167 2151B 2169
 $$$39E        2 0000026A 00000001     H    2177 2171
 $$$39F        2 00000272 00000001     H    2186 2173B
 $$$4B         1 00000054 00000001     X    1351 1358U
 $$$40         6 00000BEE 00000001     I    2196 2188X
 $$$41         6 00000BEE 00000001     I    2195 2196  2196
 $$$42B        1 00000292 00000001     X    2246 2253U
 $$$43B        4 0000029C 00000001     I    2285 2320
 $$$43F        2 000002AC 00000001     H    2317 2285B 2319
 $$$45E        2 000002B0 00000001     H    2327 2321
 $$$45F        2 000002DC 00000001     H    2400 2323B
 $$$47F        2 000002DC 00000001     H    2396 2369B
 $$$49F        2 000002F2 00000001     H    2422 2412B
 $$$5F         2 0000006C 00000001     H    1399 1373B 1386B
1VCR      (VCR03) (09:46) (22MAR04) Ordinary Symbol and Literal Cross Reference                                             Page   33
 $$$5S         2 00000054 00000001     H    1365 1398B
 $$$50B        1 0000031A 00000001     X    2478 2485U
 $$$51F        2 0000034C 00000001     H    2527 2515B
 $$$52B        4 00000350 00000001     I    2535 2548
 $$$52F        2 0000035A 00000001     H    2545 2535B 2547
 $$$53E        2 0000035E 00000001     H    2555 2549
 $$$53F        2 00000364 00000001     H    2562 2551B
 $$$54         6 00000BF4 00000001     I    2576 2568X
 $$$55         6 00000BF4 00000001     I    2575 2576  2576
 $$$56B        1 0000038A 00000001     X    2629 2636U
 $$$58B        1 00000434 00000001     X    2846 2853U
 $$$59B        1 0000048A 00000001     X    2928 2935U
 $$$60B        4 000004D0 00000001     I    2979 3007
 $$$60F        2 000004DA 00000001     H    3004 2979B 3006
 $$$61E        2 000004DE 00000001     H    3014 3008
 $$$61F        2 000004E4 00000001     H    3036 3010B
 $$$62B        1 00000500 00000001     X    3071 3078U
 $$$63B        1 00000570 00000001     X    3220 3227U
 $$$65F        2 000005B4 00000001     H    3311 3280B
 $$$66F        2 000005B4 00000001     H    3307 3297B
 $$$67F        2 000005D4 00000001     H    3337 3325B
 $$$67S        2 000005BC 00000001     H    3320 3336B
 $$$69B        1 0000061A 00000001     X    3438 3445U
 $$$71B        1 00000662 00000001     X    3532 3539U
 $$$72F        2 00000698 00000001     H    3613 3582B
 $$$73F        2 00000698 00000001     H    3609 3599B
 $$$74F        2 000006B8 00000001     H    3639 3627B
 $$$74S        2 000006A0 00000001     H    3622 3638B
 $$$76B        1 000006F2 00000001     X    3694 3701U
 $$$77F        2 00000706 00000001     H    3737 3714B 3725B
 $$$79B        1 00000764 00000001     X    3828 3835U
 $$$8F         2 00000088 00000001     H    1444 1417B 1430B
 $$$8S         2 00000072 00000001     H    1409 1443B
 $$$80B        1 0000077C 00000001     X    3856 3866U
 $$$81B        1 00000794 00000001     X    3890 3900U
 $$$82B        1 000007AC 00000001     X    3921 3931U
 $$$83B        1 000007B2 00000001     X    3946 3956U
 $$$84B        4 000007B4 00000001     I    3967 3991
 $$$84F        2 000007F4 00000001     H    3988 3967B 3990
 $$$85E        2 000007F8 00000001     H    3998 3992
 $$$85F        2 0000085E 00000001     H    4077 3994B
 $$$87F        2 0000083E 00000001     H    4048 4023B 4038B
 $$$89F        2 0000085E 00000001     H    4073 4061B
 $$$89S        2 00000846 00000001     H    4056 4072B
 $$$94B        1 0000098C 00000001     X    4259 4266U
 @QR           0 00000000 FFFFFFFA     @    1030 4146
 @RR           0 00000000 FFFFFFF9     @    1043 2009  2575M 4060  4066  4068  4180M 4182  4192M 4202  4204M 4205M 4207
                                                 4209M 4209  4212  4213M 4214  4220M
 @R0           0 00000000 FFFFFFFE     @     708  984U
 @R1           0 00000000 FFFFFFFD     @     721  980U 1385  1392  1523  1542  1556  1575  1654  1666  1685  1717  1736
                                                 1752  2029M 2071M 2195M 2284  2334  2401  2523M 2575  2947  2954  3741
                                                 3975M 3976  4002M 4003  4119M 4122M 4123M 4124M 4159M 4285M 4290M 4293M
                                                 4294M 4295M
 @R10          0 00000000 FFFFFFF4     @     838  944U
 @R11          0 00000000 FFFFFFF3     @     851  940U
 @R12          0 00000000 FFFFFFF2     @     864  936U
 @R13          0 00000000 FFFFFFF1     @     877  932U 3240M 3240  3241M 3242  3457M 3457  3458M 3459  3730M 3731  3766M
                                                 3767M 3768
 @R14          0 00000000 FFFFFFF0     @     890  928U
1VCR      (VCR03) (09:46) (22MAR04) Ordinary Symbol and Literal Cross Reference                                             Page   34
 @R15          0 00000000 FFFFFFEF     @     903  924U
 @R2           0 00000000 FFFFFFFC     @     734  976U 1557U 1655U 2335U 4200U
 @R3           0 00000000 FFFFFFFB     @     747  972U 3324  3331  3332  3626  3633  3634  3765
 @R4           0 00000000 FFFFFFFA     @     760  968U 3303  3605
 @R5           0 00000000 FFFFFFF9     @     773  964U 3330  3632
 @R6           0 00000000 FFFFFFF8     @     786  960U 1301  1429  2645M 2645  2700  2730  2760  2790  2795M 2856M 2862M
                                                 2866  2870M 2873  2876M 2938M 2947M 2954M 3081M 3110  3139  3168M 3230M
                                                 3267  3381  3386M 3483M
 @R7           0 00000000 FFFFFFF7     @     799  956U 1327U 1455U 1593U 1770U 1831U 1867U 1903U 1939U 2089U 2213U 2445U
                                                 2594U 2822U 2904U 3047U 3196U 3414U 3511U 3662U 3779U 3863U 3897U 3928U
                                                 3953U 4228U 4307U
 @R8           0 00000000 FFFFFFF6     @     812  952U 2096U 2220U 2452U 2601U 3669U 4235U 4314U
 @R9           0 00000000 FFFFFFF5     @     825  948U
 @SR           0 00000000 FFFFFFFC     @    1004 2071  2158  2159  2162  2195  4044  4159  4215
 @TR           0 00000000 FFFFFFFB     @    1017 2163  2503  4067  4192  4199
 BLANKS       32 00000B82 00000001     C    1158 2856  2938
 BTD           4 0000017C 00000001     I    1871 1870
 BTD           1 00000000 00000002     T    4331 4331
 BTDC          4 00000198 00000001     I    1908 1907
 BTDMERGE      2 000001B0 00000001     I    1944 1825B 1861B 1897B
 BTDU          4 00000144 00000001     I    1800 1799
 BTDUC         4 00000160 00000001     I    1836 1835
 BTR           4 0000030A 00000001     I    2469 2468
 BTR           1 00000000 00000003     T    4337 4337
 BTREDMSK     24 00000BD0 00000001     C    1169 2500
 BTX           4 00000220 00000001     I    2114 2113
 BTXCHK0       4 0000024E 00000001     I    2158 2161B
 BTXX          4 00000262 00000001     I    2163 2160B
 DATE          4 0000079C 00000001     I    3912 3911
 DATEF         4 00000784 00000001     I    3881 3880
 DATEXIT       2 0000088E 00000001     I    4126 4172B 4221B
 DAY           4 00000754 00000001     I    3819 3818
 DAYF          4 0000076C 00000001     I    3847 3846
 DAYFUDGE      1 00000AB8 00000001     G    1133 4144
 DAYS          2 00000B3C 00000001     H    1149 4157  4158
 DAYSAVE       4 00000030 FFFFFFEE     A    1206 4132M 4135  4183
 DEC           8 00000028 FFFFFFEE     D    1192 1985M 1986M 2004M 2012  2497M 2505  3564M 3564  3565M 3568  3644  3648M
                                                 3649  3973M 3974M 3974  3975  3976M 3977  3978M 3979M 3979  3980  3981M
                                                 3982M 3982  3983  4000M 4001M 4001  4002  4003M 4004  4005M 4012M 4012
                                                 4013M 4014M 4015  4118M 4119  4121M 4122  4193M 4203M 4204  4217M 4218M
                                                 4219M 4219  4220  4283M 4284M 4284  4285  4289M 4290  4292M 4293
 DODATE        2 000007B0 00000001     I    3943 3843B 3877B 3908B
 DODAY         2 0000089A 00000001     H    4131 4094B
 DOTEXT        2 0000090C 00000001     H    4186 4112B
 DOTEXTD       2 00000910 00000001     H    4189 4184B
 DOTOK         4 00000950 00000001     I    4212 4208B
 DTB           4 00000094 00000001     I    1476 1475
 EDITAREA     15 00000034 FFFFFFEE     U    1195 2009M 2011  2011  2012M 2034  2034  2057  2057
 EDMASK       15 00000BB2 00000001     C    1162 1167  1167  1195  1818  1889
 EDMASKC      15 00000BC1 00000001     C    1164 1167  1167  1854  1926
 FLAGS         1 0000003C FFFFFFEE     R    1209 1213  1218  1223  3939M
 FLAGS2        1 00000044 FFFFFFEE     R    1198 1202
 FLDAY        32 0000003C FFFFFFEE         1223 3842M 3875  3875  3876M 4091
 FMTCLCK       4 00000424 00000001     I    2837 2836
 FMTDATE       4 00000560 00000001     I    3211 2868B 2953B 3210
 FMTELAPS      4 0000037A 00000001     I    2620 2619
 FMTJUL        4 0000060A 00000001     I    3429 2875B 3428
 FMTRCLCK      4 0000047A 00000001     I    2919 2918
 FMTTIME       4 000004F0 00000001     I    3062 2861B 2946B 3061
1VCR      (VCR03) (09:46) (22MAR04) Ordinary Symbol and Literal Cross Reference                                             Page   35
 HEXS         16 00000034 FFFFFFEE     C    1194 1195  2142M 2143M 2156  2179
 HEXTBL       16 00000BA2 00000001     C    1160 2143
 HEXW          4 00000030 FFFFFFEE     F    1193 1205  2141M 2142
 HIBAL         1 00000000 FFFFFFFF     J     693  709   722   735   748   761   774   787   800   813   826   839   852
                                                  865   878   891   904  1005  1018  1031  1044  1057  1070  1083  1096
 INVRVAL       2 00000302 00000001     H    2433 2302B 2337B 2351B 2387B
 LRTRIM        4 00000048 00000001     I    1343 1342
 MONTEXT       2 00000AC4 00000001     H    1135 4191
 MONTHS        2 00000A9E 00000001     H    1132 3314  3616  4050
 ORVTIMDT      4 00000652 00000001     I    3523 3522
 POINT       128 0000003C FFFFFFEE         1213 2270M 2299  2313M 2368
 QR            4 00000004 FFFFFFFF A   #    1023 3977M 4004M 4029  4132  4139M 4140M 4146M 4147M 4148  4183M 4217
 RAR          14 0000000E FFFFFFFF A   #    1088 2861M 2868M 2875M 2946M 2953M 2961M 2967M 3084M 3233M 3450M 3557M
 REDITWA      17 0000003D FFFFFFEE     C    1226 2501  2503M 2504M 2505M 2540  2540  2557  2557
 RR            5 00000005 FFFFFFFF A   #    1036 1818M 1854M 1889M 1926M 2010M 2036  2496M 2583  4028M 4029M 4050M 4068M
                                                 4141M 4149  4178M 4179M 4182M 4188M 4202M 4212M 4214M
 RTB           4 00000282 00000001     I    2237 2236
 RTBEXIT       2 000002F4 00000001     I    2425 2438B
 RTBLOOP       2 00000298 00000001     H    2278 2402B
 RTRIM         4 00000014 00000001     I    1255 1254
 R0            0 00000000 FFFFFFFF A   #     701 1273  1288M 1288  1311M 1372M 1372  1394M 1401  1416M 1416  1439M 1507M
                                                 1507  1577M 1643M 1643  1754M 2045M 2045  2051M 2051  2052M 2058  2059
                                                 2144  2163M 2402M 2499  2528M 2540M 2541M 2558  2563  2646  2811M 2858
                                                 2864M 2871M 2893M 2940  2950M 2958M 2964M 3000M 3032M 3085  3185M 3403M
                                                 3500M 3553M 3553  3566  3713M 3713  3731M 3739M 3740M 3742  3746M 3746
                                                 3747M 3748M 3749M 3966M 3966  3972M 3972  3973  3978  3981  4000  4005
                                                 4143M 4143  4144M 4145  4157M 4179  4181M 4187M 4187  4201M 4216M 4277
                                                 4296M
 R1            1 00000001 FFFFFFFF A   #     714 1272  1392M 1400  1575M 1752M 2010  2011M 2028M 2035  2036M 2401M 2496
                                                 2501M 2502M 2522M 2541  2557M 2558M 2583M 2647  2804M 2859  2865M 2872M
                                                 2886M 2941  2949  2951M 2959M 2962  2965M 2978  2993M 3025M 3178M 3241
                                                 3396M 3458  3493M 3555M 3555  3565  3566M 3567M 3724M 3724  3731M 3742M
                                                 3749  3757M 3758M 3765M 3765  3766  3768M 4178  4188
 R15          15 0000000F FFFFFFFF A   #     896 1496M 1496  1559M 1560M 1632M 1632  1750M 1751M 1978M 1978  1984M 1985
                                                 2004  2021M 2021  2141  2375M 2384M 2384  2411M 2411  2418M 2423M 2435M
                                                 2435  2437M 2497  2514M 2514  2638  2855  2866M 2873M 2937  2943M 2949M
                                                 3080  3229  3447  3459M 3643M 3643  3644M 3645M 3651M
 R2            2 00000002 FFFFFFFF A   #     727 1256  1319M 1344  1447M 1477  1585M 1613  1762M 2115  2205M 2964  3524
                                                 3654M 3686  3688  3688  3688  3754M 3754  3755M 3756M 3759  3763M 3763
                                                 3764M 3771M 3820  3848  3882  3913  4127M 4251  4299M
 R3            3 00000003 FFFFFFFF A   #     740 2965  3314M 3332M 3616M 3634M 3741M 3757  3759M
 R4            4 00000004 FFFFFFFF A   #     753 2646M 2649M 2650M 2675  2679M 2679  2680M 2705  2709M 2709  2710M 2735
                                                 2739M 2739  2740M 2765  2769M 2769  2770M 2858M 2864  2871  2940M 2950
                                                 2958  3089M 3089  3090M 3096  3118M 3118  3119M 3125  3246M 3246  3247M
                                                 3296  3303M 3324  3331M 3367  3572M 3572  3573M 3598  3605M 3626  3633M
                                                 3647
 R5            5 00000005 FFFFFFFF A   #     766 2647M 2656  2675M 2686  2705M 2716  2735M 2746  2765M 2776  2859M 2865
                                                 2872  2941M 2951  2959  2962M 2978  3085M 3149  3242M 3253  3279M 3313M
                                                 3330M 3343  3568M 3581M 3615M 3632M 3646M 3647M 3648  3649M 3650M 3651
 R6            6 00000006 FFFFFFFF A   #     779 1272M 1273M 1275M 1309M 1400M 1401M 1403M 1437M 2638M 2855M 2937M 3080M
                                                 3229M 3447M
 R8            8 00000008 FFFFFFFF A   #     805 1256  1319M 1344  1447M 1477  1585M 1613  1762M 2115  2205M 3524  3654M
                                                 3686  3688  3688  3688  3771M 3820  3848  3882  3913  4127M 4251  4299M
 SR            2 00000002 FFFFFFFF A   #     997 1556M 1558M 1560  1654M 1691M 1745M 1751  1801  1837  1872  1909  2057M
                                                 2058M 2081M 2156M 2158M 2162M 2179M 2180M 2238  2334M 2336M 2348  2358
                                                 2426M 2470  2498M 2499M 2500  2502  2563M 2566M 2568  2586M 2621  2623
                                                 2623  2623  2814M 2838  2840  2840  2840  2896M 2920  2922  2922  2922
                                                 3039M 3063  3065  3065  3065  3188M 3212  3214  3214  3214  3406M 3430
                                                 3432  3432  3432  3503M 3980M 4015M 4016  4044M 4060  4066M 4120M 4121
1VCR      (VCR03) (09:46) (22MAR04) Ordinary Symbol and Literal Cross Reference                                             Page   36
                                                 4132  4133M 4133  4134M 4135M 4145M 4148M 4149M 4150M 4151M 4152M 4157
                                                 4158M 4158  4183M 4193  4199M 4201  4202  4206M 4211M 4212  4215M 4216
                                                 4278M 4278  4279M 4280M 4280  4281M 4282M 4283  4286M 4286  4287M 4288M
                                                 4289
 TEXTDATE     64 0000003C FFFFFFEE         1218 3875  3875  3907M 4109  4169
 TIME          4 0000097C 00000001     I    4250 4249
 TIMEDATE      4 000006E2 00000001     I    3685 2961B 2967B 3084B 3233B 3450B 3557B 3684
 TR            3 00000003 FFFFFFFF A   #    1010 2034M 2035M 2052  2059M 2062M 2064  2144M 2157M 2161M 2180  2182M 2188
                                                 2274M 2274  2357M 2358M 2417M 2423  2500M 3983M 3984M 4049M 4067M 4118
                                                 4136  4144  4190M 4191M 4191  4277M 4291M 4292
 UNSIGNED    128 00000044 FFFFFFEE         1202 1824M 1860M 1896M 1933M 1967
 VCR           1 00000000 00000001     J    1103 1105  1174  1236  1239  2077  2201  2581
 VCR03         1 00000000 00000001     R    1112 1110
 WA           80 00000000 FFFFFFEE     J    1235 1796U 1803  1839  1874  1911  2117  2139U 2240  2262U 2472  2494U 3526
                                                 3548U 3814U 3822  3850  3884  3915  4253  4275U
 WAR           8 00000008 FFFFFFFF A   #    1075 1796U 1801  1837  1872  1909  2081M 2139U 2238  2262U 2426M 2470  2494U
                                                 2586M 2621  2623  2623  2623  2814M 2838  2840  2840  2840  2896M 2920
                                                 2922  2922  2922  3039M 3063  3065  3065  3065  3188M 3212  3214  3214
                                                 3214  3406M 3430  3432  3432  3432  3503M 3548U 3814U 4275U
 XTB           4 000000E2 00000001     I    1612 1611
 =A(C'A'-10)
               4 00000A0C 00000001     A    4328 1691
 =A(C'0')      4 00000A08 00000001     A    4327 1558  1745  2336
 =A(10)        4 00000A54 00000001     A    4346 4134
 =A(100)       4 00000A48 00000001     A    4343 3755  3764
 =A(1000)      4 00000A38 00000001     A    4339 3247  3573
 =A(10000)
               4 00000A44 00000001     A    4342 3748
 =A(10000/64)
               4 00000A28 00000001     A    4335 2770
 =A(1000000/64*60*60*24)
               4 00000A14 00000001     A    4330 2650  3740
 =A(1000000/64*60*60)
               4 00000A1C 00000001     A    4332 2680
 =A(1000000/64*60)
               4 00000A20 00000001     A    4333 2710
 =A(1000000/64)
               4 00000A24 00000001     A    4334 2740
 =A(31+28)
               4 00000A50 00000001     A    4345 4016
 =A(31+29)
               4 00000A40 00000001     A    4341 3296  3598
 =A(36525)
               4 00000A4C 00000001     A    4344 3756
 =A(60*100)
               4 00000A2C 00000001     A    4336 3090
 =A(60)        4 00000A34 00000001     A    4338 3119
 =C'     00:00:00.00'
              16 000009E8 00000001     C    4324 2795
 =C', 19'      4 00000A5C 00000001     C    4348 4180  4213
 =C'??/??/??'
               8 000009F8 00000001     C    4325 3230
 =C'??:??:??.??'
              11 00000A86 00000001     C    4362 3081
 =C'00 00 00 00'
              11 00000A91 00000001     C    4363 3168
 =C'00 00 00'
               8 00000A00 00000001     C    4326 3386
 =C'00 000'
1VCR      (VCR03) (09:46) (22MAR04) Ordinary Symbol and Literal Cross Reference                                             Page   37
               6 00000A72 00000001     C    4354 3483
 =F'100'       4 00000A60 00000001     F    4349 4279
 =F'3'         4 00000A3C 00000001     F    4340 3279  3581
 =F'60'        4 00000A64 00000001     F    4350 4281  4287
 =F'7'         4 00000A58 00000001     F    4347 4151
 =H'10'        2 00000A7E 00000001     H    4358 3984  4120  4152  4190  4282  4288  4291
 =H'1000'      2 00000A7C 00000001     H    4357 3758
 =H'2'         2 00000A80 00000001     H    4359 4136
 =H'5'         2 00000A82 00000001     H    4360 4147
 =P'2147483648'
               6 00000A68 00000001     P    4351 1986
 =V(BTD)       4 00000A18 00000001     V    4331 2673  2703  2733  2763  2793  3142  3166  3270  3360  3384
 =V(BTR)       4 00000A30 00000001     V    4337 3113  3481
 =X'19'        1 00000A9C 00000001     X    4364 3645
 =X'7FFFFFFF'
               4 00000A10 00000001     X    4329 1984
 =Y((11+3)/4*4)
               2 00000A70 00000001     Y    4353 2956
 =Y(10)        2 00000A6E 00000001     Y    4352 2348  2357  2417
 =Y(100)       2 00000A7A 00000001     Y    4356 3646
 =Y(2)         2 00000A84 00000001     Y    4361 4181
 =Y(384)       2 00000A78 00000001     Y    4355 3567

1VCR      (VCR03) (09:46) (22MAR04) Macro and Copy Code Source Summary                                                      Page   38
- Con Source                                        Volume    Members                        HLASM R4.0  2004/03/22 09.46
0     PRIMARY INPUT                                           CSECT    DROP     END      EX       LTORG    POP
                                                              PRINT    PUSH     START    USING
   L2 WYL.GG.SYS.MACLIB                             SYSB05    $BC      $BFLKUP  $BV      $CCLKUP  $CRS     $CSS     $L
                                                              $LA      $LBLAD   $LEXP    $LOR     $REL     $RGLKUP
                                                              $USLKUP  BASE     BEGIN    CLEAR    CSECT    DATA     DECR
                                                              DEFCC    DEX      DROP     ELSE     END      EX       FLAG
                                                              GEN      HIBAL    IDENT    IF       LABEL    LC
                                                              LCALL    LS       LTORG    POP      PRINT    PUSH
                                                              RECORD   REG      REGS     SET      SETMSG   START
                                                              SYSLR    USING    WHILE
   L3 WYL.GG.ORV.BC.MACLIB                          SYSB02    BTD      BTR      ORVDEFN  VPOP     VPUSH    XCALL
                                                              XENTER   XEXIT    XSA
   L4 SYS3.IS.MACLIB                                SYSB05    SYSDEFN

1         (VCR03) (09:46) (22MAR04) General Purpose Register Cross Reference                                                Page   39
- Register  References (M=modified, B=branch, U=USING, D=DROP, N=index)                      HLASM R4.0  2004/03/22 09.46
0    0(0)     984U  985D 1273  1288M 1288  1311M 1372M 1372  1394M 1401  1416M 1416  1439M 1507M 1507  1577M 1643M 1643
             1754M 2045M 2045  2051M 2051  2052M 2058  2059  2144  2163M 2402M 2499  2528M 2540M 2541M 2558  2563  2646
             2663M 2693M 2723M 2753M 2783M 2811M 2858  2864M 2871M 2893M 2940  2950M 2958M 2964M 3000M 3032M 3085  3103M
             3132M 3156M 3185M 3260M 3350M 3374M 3403M 3471M 3500M 3553M 3553  3566  3713M 3713  3731M 3739M 3740M 3742
             3746M 3746  3747M 3748M 3749M 3966M 3966  3972M 3972  3973  3978  3981  4000  4005  4143M 4143  4144M 4145
             4156M 4156  4157M 4179  4181M 4187M 4187  4201M 4216M 4277  4296M
     1(1)     980U 1272  1392M 1400  1575M 1752M 2010  2011M 2012M 2028M 2035  2036M 2401M 2496  2501M 2502M 2505M 2522M
             2541  2557M 2558M 2583M 2647  2670M 2700M 2730M 2760M 2790M 2804M 2859  2865M 2872M 2886M 2941  2949  2951M
             2959M 2962  2965M 2978  2993M 3025M 3110M 3139M 3163M 3178M 3241  3267M 3357M 3381M 3396M 3458  3478M 3493M
             3555M 3555  3565  3566M 3567M 3724M 3724  3731M 3739M 3740M 3742M 3747M 3748M 3749  3757M 3758M 3765M 3765N
             3766  3768M 4178  4188
     2(2)     976U 1256  1319M 1344  1447M 1477  1553D 1555M 1555  1556M 1558M 1560  1585M 1613  1651D 1653M 1653  1654M
             1691M 1745M 1751  1762M 1801  1837  1872  1909  2057M 2058M 2081M 2115  2156M 2158M 2162M 2179M 2180M 2205M
             2238  2331D 2333M 2333  2334M 2336M 2348  2358  2426M 2470  2498M 2499M 2500N 2502  2563M 2566M 2568  2586M
             2621  2814M 2838  2896M 2920  2964  3039M 3063  3188M 3212  3406M 3430  3503M 3524  3654M 3686  3754M 3754
             3755M 3756M 3759  3763M 3763  3764M 3771M 3820  3848  3882  3913  3980M 4015M 4016  4044M 4060  4066M 4120M
             4121  4127M 4132  4133M 4133  4134M 4135M 4145M 4148M 4149M 4150M 4151M 4152M 4157N 4158M 4158N 4183M 4193
             4196D 4198M 4198  4199M 4201  4202N 4206M 4211M 4212N 4215M 4216  4251  4278M 4278  4279M 4280M 4280  4281M
             4282M 4283  4286M 4286  4287M 4288M 4289  4299M
     3(3)     972U 1256  1319M 1344  1447M 1477  1585M 1613  1762M 1801  1837  1872  1909  2034M 2035M 2052  2059M 2062M
             2064  2081M 2115  2144M 2157M 2161M 2180  2182M 2188  2205M 2238  2274M 2274  2357M 2358M 2417M 2423  2426M
             2470  2500M 2586M 2621  2814M 2838  2896M 2920  2965  3039M 3063  3188M 3212  3314M 3332M 3406M 3430  3503M
             3524  3616M 3634M 3654M 3686  3741M 3755M 3756M 3757  3759M 3764M 3771M 3820  3848  3882  3913  3983M 3984M
             4049M 4067M 4118  4127M 4132  4134M 4136  4144N 4150M 4151M 4183M 4190M 4191M 4191N 4251  4277M 4279M 4281M
             4287M 4291M 4292  4299M
     4(4)     968U 1256  1319M 1344  1447M 1477  1585M 1613  1762M 1801  1837  1872  1909  2081M 2115  2205M 2238  2426M
             2470  2586M 2621  2646M 2649M 2650M 2675  2679M 2679  2680M 2705  2709M 2709  2710M 2735  2739M 2739  2740M
             2765  2769M 2769  2770M 2814M 2838  2858M 2864  2871  2896M 2920  2940M 2950  2958  3039M 3063  3089M 3089
             3090M 3096  3118M 3118  3119M 3125  3188M 3212  3246M 3246  3247M 3296  3303M 3324  3331M 3367  3406M 3430
             3503M 3524  3572M 3572  3573M 3598  3605M 3626  3633M 3647  3654M 3686  3771M 3820  3848  3882  3913  3977M
             4004M 4029  4127M 4132  4139M 4140M 4146M 4147M 4148  4183M 4217  4251  4299M
     5(5)     964U 1256  1319M 1344  1447M 1477  1585M 1613  1762M 1801  1818M 1837  1854M 1872  1889M 1909  1926M 2010M
             2036  2081M 2115  2205M 2238  2426M 2470  2496M 2583  2586M 2621  2647M 2649M 2650M 2656  2675M 2680M 2686
             2705M 2710M 2716  2735M 2740M 2746  2765M 2770M 2776  2814M 2838  2859M 2865  2872  2896M 2920  2941M 2951
             2962M 2978  3039M 3063  3085M 3090M 3119M 3149  3188M 3212  3242M 3247M 3253  3279M 3313M 3330M 3343  3406M
             3430  3503M 3524  3568M 3573M 3581M 3615M 3632M 3646M 3647M 3648  3649M 3650M 3651  3654M 3686  3771M 3820
             3848  3882  3913  4028M 4029M 4050M 4068M 4127M 4140M 4141M 4149  4178M 4179M 4182M 4188M 4202M 4212M 4214M
             4251  4299M
     6(6)     960U 1256  1272M 1273M 1275M 1309M 1319M 1344  1400M 1401M 1403M 1437M 1447M 1477  1585M 1613  1762M 1801
             1837  1872  1909  2081M 2115  2205M 2238  2426M 2470  2586M 2621  2638M 2670  2804  2814M 2838  2855M 2886
             2896M 2920  2937M 2993  3025  3039M 3063  3080M 3163  3178  3188M 3212  3229M 3357  3396  3406M 3430  3447M
             3478  3493  3503M 3524  3654M 3686  3771M 3820  3848  3882  3913  4127M 4251  4299M
     7(7)     956U 1256  1260M 1270U 1319M 1327U 1344  1348M 1358U 1447M 1455U 1477  1481M 1491U 1585M 1593U 1613  1617M
             1627U 1762M 1770U 1801  1806M 1816U 1831U 1837  1842M 1852U 1867U 1872  1877M 1887U 1903U 1909  1914M 1924U
             1939U 1944M 1954U 2081M 2089U 2115  2120M 2130U 2205M 2213U 2238  2243M 2253U 2426M 2445U 2470  2475M 2485U
             2586M 2594U 2621  2626M 2636U 2814M 2822U 2838  2843M 2853U 2896M 2904U 2920  2925M 2935U 3039M 3047U 3063
             3068M 3078U 3188M 3196U 3212  3217M 3227U 3406M 3414U 3430  3435M 3445U 3503M 3511U 3524  3529M 3539U 3654M
             3662U 3686  3691M 3701U 3771M 3779U 3820  3825M 3835U 3848  3853M 3863U 3866U 3882  3887M 3897U 3900U 3913
             3918M 3928U 3931U 3943M 3953U 3956U 4127M 4228U 4251  4256M 4266U 4299M 4307U
     8(8)     952U 1256  1257M 1318  1319M 1344  1345M 1446  1447M 1477  1478M 1584  1585M 1613  1614M 1761  1762M 1796U
             1801  1802M 1837  1838M 1872  1873M 1909  1910M 2080  2081M 2096U 2115  2116M 2139U 2204  2205M 2220U 2238
             2239M 2262U 2425  2426M 2452U 2470  2471M 2494U 2585  2586M 2601U 2621  2622M 2813  2814M 2838  2839M 2895
             2896M 2920  2921M 3038  3039M 3063  3064M 3187  3188M 3212  3213M 3405  3406M 3430  3431M 3502  3503M 3524
             3525M 3548U 3653  3654M 3669U 3686  3687M 3770  3771M 3814U 3820  3821M 3848  3849M 3882  3883M 3913  3914M
             4126  4127M 4235U 4251  4252M 4275U 4298  4299M 4314U
1         (VCR03) (09:46) (22MAR04) General Purpose Register Cross Reference                                                Page   40
     9(9)     948U
    10(A)     944U
    11(B)     940U
    12(C)     936U
    13(D)     932U 1255  1256  1257  1318M 1319  1320  1343  1344  1345  1446M 1447  1448  1476  1477  1478  1584M 1585
             1586  1612  1613  1614  1761M 1762  1763  1800  1801  1802  1803M 1803  1836  1837  1838  1839M 1839  1871
             1872  1873  1874M 1874  1908  1909  1910  1911M 1911  2080M 2081  2082  2114  2115  2116  2117M 2117  2204M
             2205  2206  2237  2238  2239  2240M 2240  2425M 2426  2427  2469  2470  2471  2472M 2472  2585M 2586  2587
             2620  2621  2622  2623M 2623  2813M 2814  2815  2837  2838  2839  2840M 2840  2895M 2896  2897  2919  2920
             2921  2922M 2922  2943  2944M 2944  2956M 3038M 3039  3040  3062  3063  3064  3065M 3065  3187M 3188  3189
             3211  3212  3213  3214M 3214  3405M 3406  3407  3429  3430  3431  3432M 3432  3502M 3503  3504  3523  3524
             3525  3526M 3526  3653M 3654  3655  3685  3686  3687  3688M 3688  3770M 3771  3772  3819  3820  3821  3822M
             3822  3847  3848  3849  3850M 3850  3881  3882  3883  3884M 3884  3912  3913  3914  3915M 3915  4126M 4127
             4128  4250  4251  4252  4253M 4253  4298M 4299  4300
    14(E)     928U 1255  1320M 1321B 1343  1448M 1449B 1476  1586M 1587B 1612  1763M 1764B 1800  1836  1871  1908  2082M
             2083B 2114  2206M 2207B 2237  2427M 2429B 2469  2587M 2588B 2620  2673M 2674M 2674B 2703M 2704M 2704B 2733M
             2734M 2734B 2763M 2764M 2764B 2793M 2794M 2794B 2815M 2816B 2837  2861M 2868M 2875M 2897M 2898B 2919  2946M
             2953M 2961M 2967M 3040M 3041B 3062  3084M 3113M 3114M 3114B 3142M 3143M 3143B 3166M 3167M 3167B 3189M 3190B
             3211  3233M 3270M 3271M 3271B 3360M 3361M 3361B 3384M 3385M 3385B 3407M 3408B 3429  3450M 3481M 3482M 3482B
             3504M 3505B 3523  3557M 3655M 3656B 3685  3772M 3773B 3819  3847  3881  3912  4128M 4129B 4250  4300M 4301B
    15(F)     924U 1496M 1496  1559M 1560M 1632M 1632  1750M 1751M 1978M 1978  1984M 1985  2004  2021M 2021  2141  2375M
             2384M 2384  2411M 2411  2418M 2423M 2428M 2428  2435M 2435  2437M 2497  2514M 2514  2638  2656M 2686M 2716M
             2746M 2776M 2855  2866M 2873M 2937  2943M 2949M 3080  3096M 3125M 3149M 3229  3253M 3343M 3367M 3447  3459M
             3643M 3643  3644M 3645M 3651M

1VCR      (VCR03) (09:46) (22MAR04) Diagnostic Cross Reference and Assembler Summary                                        Page   41
-                                                                                            HLASM R4.0  2004/03/22 09.46
0     No Statements Flagged in this Assembly
 HIGH LEVEL ASSEMBLER, 5696-234, RELEASE 4.0, PTF UQ57391
0SYSTEM: OS/390 02.10.00            JOBNAME: PJG#VCR     STEPNAME: ASM        PROCSTEP: (NOPROC)
0Datasets Allocated for this Assembly
  Con DDname   Dataset Name                                 Volume  Member
   P1 SYSIN    SYS04082.T094617.RA000.PJG#VCR.INPUT.H01     SCR101
   L1 SYSLIB   SYS3.DUMMYMAC                                SYSB02
   L2          WYL.GG.SYS.MACLIB                            SYSB05
   L3          WYL.GG.ORV.BC.MACLIB                         SYSB02
   L4          SYS3.IS.MACLIB                               SYSB05
      SYSLIN   WYL.GG.PJG.OBJ                               SYSB05  VCR
      SYSPRINT SYS04082.T094617.RA000.PJG#VCR.PRINT.H01     SCR100
      SYSTERM  GG$PJG.PJG#VCR.JOB05973.D0000103.?

    7812K allocated to Buffer Pool,          757K would be required for this to be an In-Storage Assembly
     898 Primary Input Records Read         2948 Library Records Read                  0 Work File Reads
       0 ASMAOPT Records Read               2533 Primary Print Records Written         0 Work File Writes
      85 Punch Records Written                 0 ADATA Records Written
0Assembly Start Time: 09.46.19 Stop Time: 09.46.20 Processor Time: 00.00.00.8417
 Return Code 000
