1                        J E S 2  J O B  L O G  --  S Y S T E M  S Y S B  --  N O D E  R L G
0
 09.39.17 JOB05934 ---- MONDAY,    22 MAR 2004 ----
 09.39.17 JOB05934  ICH70001I GG$PJG   LAST ACCESS AT 09:39:03 ON MONDAY, MARCH 22, 2004
 09.39.17 JOB05934  $HASP373 PJG#FMAN STARTED - INIT 2    - CLASS E - SYS SYSB
 09.39.17 JOB05934  ***  HCMD      STEP $$QUIET
 09.39.17 JOB05934  PURGE * Q=OUTPUT MULTIPLE
 09.39.17 JOB05934  JOB PJG#FMAN NOT IN OUTPUT QUEUE
 09.39.18 JOB05934  PJG#FMAN.$$QUIET .         RC=0008 TapeIO=0000 DiskIO=0000 CPU=  .01s Elapsed=57.80s
 09.39.18 JOB05934  PJG#FMAN.$CND    .         RC=Zero TapeIO=0000 DiskIO=0003 CPU=  .01s Elapsed=58.84s
 09.39.19 JOB05934  PJG#FMAN.$UNP    .         RC=Zero TapeIO=0000 DiskIO=0081 CPU=  .07s Elapsed=58.97s
 09.39.33 JOB05934  PJG#FMAN.ASM     .         RC=Zero TapeIO=0000 DiskIO=0900 CPU= 9.27s Elapsed=59.43s
 09.39.37 JOB05934  PJG#FMAN.$EDIT   .         RC=Zero TapeIO=0000 DiskIO=0512 CPU= 1.90s Elapsed=73.70s
 09.39.37 JOB05934  PJG#FMAN Ended.  Name=Module: FILEMAN                Total CPU=11.26s Elapsed=57.80s
 09.39.37 JOB05934
 09.39.37 JOB05934  Execution charges   Priority=Standard   Block=Day
 09.39.37 JOB05934
 09.39.37 JOB05934  CPU Usage         208.87         $129.49   Standard Processing Unit Equivalent
 09.39.37 JOB05934                                   =======
 09.39.37 JOB05934                                   $129.49   Total Job execution charge
 09.39.37 JOB05934
 09.39.37 JOB05934  See back separator page for print charges
 09.39.37 JOB05934
 09.39.37 JOB05934  $HASP395 PJG#FMAN ENDED  ASM=0
1        1 //PJG#FMAN JOB PJG$GG,'Module: FILEMAN',TIME=1,MSGCLASS=C               JOB05934
           /*JOBPARM HOLD=OUTPUT,LINES=50,CHARS=TN15,NOTIFY=YES
         2 //       EXEC PURGEOLD
         3 XXPURGEOLD PROC
           XX*
           XX* This proc is maintained by Jim Stosick
           XX*
         4 XX$$QUIET  EXEC PGM=HCMDX,PARM='PURGE * Q=OUTPUT MULTIPLE',
           XX         ACCT=(PURGEOLD,SYS3)
         5 //$CND   EXEC PGM=BILBO,REGION=512K,PARM='RECS=100'
         6 //STEPLIB  DD DSN=WYL.GG.ORV.LINKLIB,DISP=SHR
         7 //SYSPRINT DD SYSOUT=$
         8 //SYSUT1   DD DSN=WYL.GG.PJG.OBJ,DISP=OLD
         9 //SYSUT2   DD DSN=WYL.GG.PJG.OBJ,DISP=OLD
        10 //SYSIN    DD DUMMY
        11 //$UNP   EXEC PGM=WUNPRESS,PARM='NUM'
        12 //SYSPRINT DD SYSOUT=$
        13 //SYSUT1   DD DSN=WYL.GG.ORV.SOURCE(FILEMAN),DISP=SHR
        14 //SYSUT2   DD DSN=&&INPUT,DISP=(,PASS),UNIT=SYSDA,
           //            SPACE=(TRK,(25,25),RLSE),DCB=CARD
        15 //ASM    EXEC PGM=ASMA90,REGION=8M,COND=(0,NE,$UNP),
           //            PARM=('SYSPARM(FILEMAN),TERM,LANG(EN),OBJ',
           //          'LC(32500),XREF(SHORT),NODECK,NORLD,NODX,NOUS')
           //*STEPLIB  DD DSN=SYS1.SASMMOD1,DISP=SHR
        16 //SYSLIB   DD DSN=SYS3.DUMMYMAC,DISP=SHR,DCB=BLKSIZE=27920
        17 //         DD DSN=WYL.GG.ORV.MACLIB,DISP=SHR
        18 //         DD DSN=WYL.GG.SYS.MACLIB,DISP=SHR
        19 //         DD DSN=WYL.GG.ORV.BC.MACLIB,DISP=SHR
        20 //SYSUT1   DD DSN=&&SYSUT1,UNIT=VIO,DISP=(,DELETE),
           //            SPACE=(4088,(500,250),,CONTIG,ROUND)
        21 //SYSTERM  DD SYSOUT=$
        22 //SYSPRINT DD DSN=&&PRINT,UNIT=SYSDA,DISP=(,PASS),
           //            SPACE=(6650,(250,250),RLSE),
           //            DCB=(BLKSIZE=6650,LRECL=133,RECFM=FB)
        23 //SYSLIN   DD DSN=WYL.GG.PJG.OBJ(FILEMAN),DISP=OLD
        24 //SYSUDUMP DD SYSOUT=A
        25 //SYSIN    DD DSN=&&INPUT,DISP=(OLD,DELETE)
        26 //$EDIT  EXEC PGM=ASMEDIT,REGION=1M,
           //            COND=EVEN,PARM='STMT,DATA'
        27 //STEPLIB  DD DSN=WYL.GG.SYS.LINKLIB,DISP=SHR
        28 //ASMOUT   DD DSN=&&PRINT,DISP=(OLD,DELETE)
        29 //SYSPRINT DD SYSOUT=A
        30 //SYSUDUMP DD SYSOUT=A
1 STMT NO. MESSAGE
         2 IEFC001I PROCEDURE PURGEOLD WAS EXPANDED USING SYSTEM LIBRARY SYS3.BETAPROC
        14 IGD01010I STORCLAS= TEMP STORGROUP =
        14 IGD01010I STORGRP=VIO ASSIGNED.
        20 IGD01010I STORCLAS= TEMP STORGROUP =
        20 IGD01010I STORGRP=VIO ASSIGNED.
        22 IGD01010I STORCLAS= TEMP STORGROUP =
        22 IGD01010I STORGRP=VIO ASSIGNED.
 ICH70001I GG$PJG   LAST ACCESS AT 09:39:03 ON MONDAY, MARCH 22, 2004
 IEF142I PJG#FMAN $$QUIET - STEP WAS EXECUTED - COND CODE 0008
 *********************************************************************************
 *   PJG#FMAN/$$QUIET /                    Return Code      0008                 *
 *   Region used      260K (16K user + 244K system)                              *
 *   Extended region  9352K (4K user + 9348K system)                             *
 *                                                                               *
 *   Paging              In      Out                                             *
 *   Private <-> Aux      0        0       CPU time (TCB)   00:00:00.01          *
 *   Private <-> Exp      0        0       CPU time (SRB)   00:00:00.00          *
 *   VIO                  0        0       Elapsed time    920:48:35.16          *
 *   Common               0      ---                                             *
 *                                                                               *
 *                                                                               *
 *   CPU Usage          0.18         $0.11  Standard Processing Unit Equivalent  *
 *                                   $0.11  Total Step execution charge          *
 *                                                                               *
 *    I/O count  DDname   Type Addr           I/O count  DDname   Type Addr      *
 *                         *** No I/O for this step ***                          *
 *********************************************************************************
 IEF373I STEP/$$QUIET /START 2004082.0939
 IEF374I STEP/$$QUIET /STOP  2004082.0939 CPU    0MIN 00.01SEC SRB    0MIN 00.00SEC VIRT    16K SYS   244K EXT       4K SYS    9348K
 IEF236I ALLOC. FOR PJG#FMAN $CND
 IEF237I 0401 ALLOCATED TO STEPLIB
 IEF237I JES2 ALLOCATED TO SYSPRINT
 IEF237I 04DC ALLOCATED TO SYSUT1
 IEF237I 04DC ALLOCATED TO SYSUT2
 IEF237I DMY  ALLOCATED TO SYSIN
 IEF142I PJG#FMAN $CND - STEP WAS EXECUTED - COND CODE 0000
 IEF285I   WYL.GG.ORV.LINKLIB                           KEPT
 IEF285I   VOL SER NOS= SYSB01.
 IEF285I   GG$PJG.PJG#FMAN.JOB05934.D0000101.?          SYSOUT
 IEF285I   WYL.GG.PJG.OBJ                               KEPT
 IEF285I   VOL SER NOS= SYSB05.
 IEF285I   WYL.GG.PJG.OBJ                               KEPT
 IEF285I   VOL SER NOS= SYSB05.
 *********************************************************************************
 *   PJG#FMAN/$CND    /                    Return Code      Zero                 *
 *   Region used      280K (16K user + 264K system)                              *
 *   Extended region  9392K (4K user + 9388K system)                             *
 *                                                                               *
 *   Paging              In      Out                                             *
 *   Private <-> Aux      0        0       CPU time (TCB)   00:00:00.01          *
 *   Private <-> Exp      0        0       CPU time (SRB)   00:00:00.00          *
 *   VIO                  0        0       Elapsed time    920:48:34.12          *
 *   Common               0      ---                                             *
 *                                                                               *
 *                                                                               *
 *   CPU Usage          0.18         $0.11  Standard Processing Unit Equivalent  *
 *                                   $0.11  Total Step execution charge          *
 *                                                                               *
 *    I/O count  DDname   Type Addr           I/O count  DDname   Type Addr      *
 *            3  STEPLIB  Disk 0401                   0  SYSPRINT      ----      *
 *            0  SYSUT1   Disk 04DC                   0  SYSUT2   Disk 04DC      *
 *            0  SYSIN         ----                                              *
 *********************************************************************************
 IEF373I STEP/$CND    /START 2004082.0939
 IEF374I STEP/$CND    /STOP  2004082.0939 CPU    0MIN 00.01SEC SRB    0MIN 00.00SEC VIRT    16K SYS   264K EXT       4K SYS    9388K
 IEF236I ALLOC. FOR PJG#FMAN $UNP
 IEF237I JES2 ALLOCATED TO SYSPRINT
 IEF237I 0402 ALLOCATED TO SYSUT1
 IGD101I SMS ALLOCATED TO DDNAME (SYSUT2  )
         DSN (SYS04082.T093917.RA000.PJG#FMAN.INPUT.H01   )
         STORCLAS (TEMP) MGMTCLAS (        ) DATACLAS (        )
         VOL SER NOS= SCR100
 IEF142I PJG#FMAN $UNP - STEP WAS EXECUTED - COND CODE 0000
 IEF285I   GG$PJG.PJG#FMAN.JOB05934.D0000102.?          SYSOUT
 IEF285I   WYL.GG.ORV.SOURCE                            KEPT
 IEF285I   VOL SER NOS= SYSB02.
 IGD106I SYS04082.T093917.RA000.PJG#FMAN.INPUT.H01    PASSED,    DDNAME=SYSUT2
 *********************************************************************************
 *   PJG#FMAN/$UNP    /                    Return Code      Zero                 *
 *   Region used      380K (108K user + 272K system)                             *
 *   Extended region  9468K (4K user + 9464K system)                             *
 *                                                                               *
 *   Paging              In      Out                                             *
 *   Private <-> Aux      0        0       CPU time (TCB)   00:00:00.07          *
 *   Private <-> Exp      0        0       CPU time (SRB)   00:00:00.00          *
 *   VIO                  0        0       Elapsed time    920:48:33.99          *
 *   Common               0      ---                                             *
 *                                                                               *
 *                                                                               *
 *   CPU Usage          1.31         $0.81  Standard Processing Unit Equivalent  *
 *                                   $0.81  Total Step execution charge          *
 *                                                                               *
 *    I/O count  DDname   Type Addr           I/O count  DDname   Type Addr      *
 *            0  SYSPRINT      ----                   8  SYSUT1   Disk 0402      *
 *           73  SYSUT2   Disk 038B                                              *
 *********************************************************************************
 IEF373I STEP/$UNP    /START 2004082.0939
 IEF374I STEP/$UNP    /STOP  2004082.0939 CPU    0MIN 00.07SEC SRB    0MIN 00.00SEC VIRT   108K SYS   272K EXT       4K SYS    9464K
 IEF236I ALLOC. FOR PJG#FMAN ASM
 IEF237I 0402 ALLOCATED TO SYSLIB
 IEF237I 0402 ALLOCATED TO
 IEF237I 04DC ALLOCATED TO
 IEF237I 0402 ALLOCATED TO
 IGD101I SMS ALLOCATED TO DDNAME (SYSUT1  )
         DSN (SYS04082.T093917.RA000.PJG#FMAN.SYSUT1.H01  )
         STORCLAS (TEMP) MGMTCLAS (        ) DATACLAS (        )
         VOL SER NOS= VIO
 IEF237I JES2 ALLOCATED TO SYSTERM
 IGD101I SMS ALLOCATED TO DDNAME (SYSPRINT)
         DSN (SYS04082.T093917.RA000.PJG#FMAN.PRINT.H01   )
         STORCLAS (TEMP) MGMTCLAS (        ) DATACLAS (        )
         VOL SER NOS= SCR101
 IEF237I 04DC ALLOCATED TO SYSLIN
 IEF237I JES2 ALLOCATED TO SYSUDUMP
 IGD103I SMS ALLOCATED TO DDNAME SYSIN
 IEF142I PJG#FMAN ASM - STEP WAS EXECUTED - COND CODE 0000
 IEF285I   SYS3.DUMMYMAC                                KEPT
 IEF285I   VOL SER NOS= SYSB02.
 IEF285I   WYL.GG.ORV.MACLIB                            KEPT
 IEF285I   VOL SER NOS= SYSB02.
 IEF285I   WYL.GG.SYS.MACLIB                            KEPT
 IEF285I   VOL SER NOS= SYSB05.
 IEF285I   WYL.GG.ORV.BC.MACLIB                         KEPT
 IEF285I   VOL SER NOS= SYSB02.
 IGD105I SYS04082.T093917.RA000.PJG#FMAN.SYSUT1.H01   DELETED,   DDNAME=SYSUT1
 IEF285I   GG$PJG.PJG#FMAN.JOB05934.D0000103.?          SYSOUT
 IGD106I SYS04082.T093917.RA000.PJG#FMAN.PRINT.H01    PASSED,    DDNAME=SYSPRINT
 IEF285I   WYL.GG.PJG.OBJ                               KEPT
 IEF285I   VOL SER NOS= SYSB05.
 IEF285I   GG$PJG.PJG#FMAN.JOB05934.D0000104.?          SYSOUT
 IGD105I SYS04082.T093917.RA000.PJG#FMAN.INPUT.H01    DELETED,   DDNAME=SYSIN
 *********************************************************************************
 *   PJG#FMAN/ASM     /                    Return Code      Zero                 *
 *   Region used      8484K (8192K user + 292K system)                           *
 *   Extended region  9952K (412K user + 9540K system)                           *
 *                                                                               *
 *   Paging              In      Out                                             *
 *   Private <-> Aux      0        0       CPU time (TCB)   00:00:09.20          *
 *   Private <-> Exp      0        0       CPU time (SRB)   00:00:00.07          *
 *   VIO                  0        0       Elapsed time    920:48:33.53          *
 *   Common               0      ---                                             *
 *                                                                               *
 *                                                                               *
 *   CPU Usage        172.50       $106.95  Standard Processing Unit Equivalent  *
 *                                 $106.95  Total Step execution charge          *
 *                                                                               *
 *    I/O count  DDname   Type Addr           I/O count  DDname   Type Addr      *
 *          150  SYSLIB   Disk 0402                   0  SYSLIB   Disk 0402      *
 *          148  SYSLIB   Disk 04DC                   0  SYSLIB   Disk 0402      *
 *            0  SYSUT1   VIO  ----                   0  SYSTERM       ----      *
 *          509  SYSPRINT Disk 04E3                  19  SYSLIN   Disk 04DC      *
 *            0  SYSUDUMP      ----                  74  SYSIN    Disk 038B      *
 *********************************************************************************
 IEF373I STEP/ASM     /START 2004082.0939
 IEF374I STEP/ASM     /STOP  2004082.0939 CPU    0MIN 09.20SEC SRB    0MIN 00.07SEC VIRT  8192K SYS   292K EXT     412K SYS    9540K
 IEF236I ALLOC. FOR PJG#FMAN $EDIT
 IEF237I 0402 ALLOCATED TO STEPLIB
 IGD103I SMS ALLOCATED TO DDNAME ASMOUT
 IEF237I JES2 ALLOCATED TO SYSPRINT
 IEF237I JES2 ALLOCATED TO SYSUDUMP
 IEF142I PJG#FMAN $EDIT - STEP WAS EXECUTED - COND CODE 0000
 IEF285I   WYL.GG.SYS.LINKLIB                           KEPT
 IEF285I   VOL SER NOS= SYSB02.
 IGD105I SYS04082.T093917.RA000.PJG#FMAN.PRINT.H01    DELETED,   DDNAME=ASMOUT
 IEF285I   GG$PJG.PJG#FMAN.JOB05934.D0000105.?          SYSOUT
 IEF285I   GG$PJG.PJG#FMAN.JOB05934.D0000106.?          SYSOUT
 *********************************************************************************
 *   PJG#FMAN/$EDIT   /                    Return Code      Zero                 *
 *   Region used      388K (116K user + 272K system)                             *
 *   Extended region  9476K (4K user + 9472K system)                             *
 *                                                                               *
 *   Paging              In      Out                                             *
 *   Private <-> Aux      0        0       CPU time (TCB)   00:00:01.85          *
 *   Private <-> Exp      0        0       CPU time (SRB)   00:00:00.05          *
 *   VIO                  0        0       Elapsed time    920:48:19.26          *
 *   Common               0      ---                                             *
 *                                                                               *
 *                                                                               *
 *   CPU Usage         34.68        $21.50  Standard Processing Unit Equivalent  *
 *                                  $21.50  Total Step execution charge          *
 *                                                                               *
 *    I/O count  DDname   Type Addr           I/O count  DDname   Type Addr      *
 *            2  STEPLIB  Disk 0402                 510  ASMOUT   Disk 04E3      *
 *            0  SYSPRINT      ----                   0  SYSUDUMP      ----      *
 *********************************************************************************
 IEF373I STEP/$EDIT   /START 2004082.0939
 IEF374I STEP/$EDIT   /STOP  2004082.0939 CPU    0MIN 01.85SEC SRB    0MIN 00.05SEC VIRT   116K SYS   272K EXT       4K SYS    9472K
 *********************************************************************************
 *                                                                               *
 *                      S t a n f o r d   U n i v e r s i t y                    *
 *                                                                               *
 *                              *** Job Summary ***                              *
 *                                                                               *
 *   System Id      SYSB                   Input time     09:38:18  Mar 22, 2004 *
 *                                                                               *
 *   System Release SP6.1.0                Start time     09:39:17  Mar 22, 2004 *
 *                                                                               *
 *   Job name       PJG#FMAN               Stop  time     00:00:00  Mar 22, 2004 *
 *                                                                               *
 *   Account        PJG$GG                 Elapsed time  920:48:35.16            *
 *                                                                               *
 *   User Name      Module: FILEMAN        CPU time       00:00:11.14            *
 *                                                                               *
 *   Job class      E                      SRB Time       00:00:00.12            *
 *                                                                               *
 *********************************************************************************
 IEF375I  JOB/PJG#FMAN/START 2004082.0939
 IEF376I  JOB/PJG#FMAN/STOP  2004082.0939 CPU    0MIN 11.14SEC SRB    0MIN 00.12SEC
1Data set successfully converted from EDIT to FB format
1Assembler Done FILEMAN No Statements Flagged
1         High Level Assembler Option Summary                   (PTF UQ57391)                                               Page    1
-                                                                                            HLASM R4.0  2004/03/22 09.39
0  No Overriding ASMAOPT Parameters
   Overriding Parameters-  SYSPARM(FILEMAN),TERM,LANG(EN),OBJ,LC(32500),XREF(SHORT),NODECK,NORLD,NODX,NOUS
   No Process Statements


   Options for this Assembly
0  NOADATA
     ALIGN
   NOASA
     BATCH
     CODEPAGE(047C)
   NOCOMPAT
   NODBCS
 3 NODECK
 3 NODXREF
     ESD
   NOEXIT
     FLAG(0,ALIGN,CONT,NOIMPLEN,NOPAGE0,PUSH,RECORD,NOSUBSTR,USING0)
   NOFOLD
   NOGOFF
   NOINFO
 3   LANGUAGE(EN)
   NOLIBMAC
 3   LINECOUNT(32500)
     LIST(121)
     MXREF(SOURCE)
 3   OBJECT
     OPTABLE(UNI,NOLIST)
   NOPCONTROL
   NOPESTOP
   NOPROFILE
   NORA2
   NORENT
 3 NORLD
     RXREF
     SIZE(MAX)
 3   SYSPARM(FILEMAN)
 3   TERM(WIDE)
   NOTEST
     THREAD
   NOTRANSLATE
 3 NOUSING
 3   XREF(SHORT)

   No Overriding DD Names

1FILEMAN  External Symbol Dictionary                                                                                        Page    2
-Symbol   Type   Id     Address  Length     LD ID  Flags Alias-of                            HLASM R4.0  2004/03/22 09.39
0FILEMAN   SD 00000001 00000000 00006510             06
 FILEMA    LD          00000000           00000001
 M1FILE    LD          00000022           00000001
 $FILEIO9  LD          000004C6           00000001
 M1FATCH9  LD          0000064C           00000001
 M1IATCH9  LD          00000AEA           00000001
 M1FDTCH9  LD          00000D6E           00000001
 VMGET     ER 00000002
 TCREATE   ER 00000003
 XITNEW    ER 00000004
 XITDO     ER 00000005
 XITDEL    ER 00000006
 TEXIT     ER 00000007
 HASHIT    ER 00000008
 GRGET     ER 00000009
 GRCRE     ER 0000000A
 GRREL     ER 0000000B
 FCATOPRM  ER 0000000C
 FCATNPRM  ER 0000000D
 M1FREAD9  LD          00000E82           00000001
 M1IREAD9  LD          00000F28           00000001
 FDOIODO   ER 0000000E
 M1FWRIT9  LD          0000143E           00000001
 SBUFREE   ER 0000000F
 M1IWRIT9  LD          00001520           00000001
 SBUFGET   ER 00000010
 FCATGSPA  ER 00000011
 FBITGET   ER 00000012
 M1FCONT9  LD          00001EBE           00000001
 M1ICONT9  LD          0000243E           00000001
 FCATPSPA  ER 00000013
 FCATRNAM  ER 00000014
 FCATDLET  ER 00000015
 SIGNAL    ER 00000016
 FCATUINF  ER 00000017
 FCATASAC  ER 00000018
 FCATGPRM  ER 00000019
 FCATFINF  ER 0000001A
 FBITGCON  ER 0000001B
 FBITRCON  ER 0000001C
 FMHYINIT  ER 0000001D
 FBITREL   ER 0000001E
 M1FSTAT9  LD          000032D4           00000001
 M1ISTAT9  LD          00003D9A           00000001
 FCATXTND  ER 0000001F
 FCATEPUB  ER 00000020
 FCATFLIS  ER 00000021
 FCATAINF  ER 00000022
 FCATNIXE  ER 00000023
 FCATNIXR  ER 00000024
 FCATAADD  ER 00000025
 FCATADEL  ER 00000026
 FCATMSPA  ER 00000027
 FCATALIS  ER 00000028
 FCATUSPA  ER 00000029
1FILEMAN  External Symbol Dictionary                                                                                        Page    3
 FBITACT   ER 0000002A
 M1GOWAIT  ER 0000002B
 FBITDEA   ER 0000002C
 STATFS    ER 0000002D
 M1GOSTAT  ER 0000002E
 FCATS111  ER 0000002F
 M1FRSRV9  LD          00004674           00000001
 M1IRSRV9  LD          000046A6           00000001
 M1FRLSE9  LD          0000474E           00000001
 ETFNAME9  LD          000047B6           00000001
 RELRQFB9  LD          000049C8           00000001
 FMANFDT9  LD          00004D08           00000001
 FMANTDT9  LD          00004E54           00000001
 FMANTDEL  LD          00004F2C           00000001
 FMANTDIN  LD          00005078           00000001
 GRDEL     ER 00000030
 DISPSHLD  ER 00000031
 SYSRNEW   ER 00000032
 AWAIT     ER 00000033
 ACREATE   ER 00000034
 MASFINI9  LD          0000515C           00000001
 FILEHALT  LD          00005208           00000001
 ETTEMPN9  LD          00005322           00000001
 CHKACC9   LD          00005370           00000001
 CHKMEM9   LD          000054C6           00000001
 FMRANGE9  LD          0000556E           00000001
 M1CANWAI  ER 00000035
 GRCAN     ER 00000036
 M1TIME    ER 00000037
 DATE      ER 00000038
 TIME      ER 00000039
 PAGTPROT  ER 0000003A
 MDELBLK9  LD          000056EE           00000001
 MDELIXR9  LD          00005DA0           00000001
 MIXRGET9  LD          00005E98           00000001
 MIXRPUT9  LD          00005F2C           00000001
 FMIXRADD  LD          00005FFE           00000001
 FMHYINIT  LD          000060AA           00000001
 MSETSOU9  LD          0000617C           00000001
 FMCLSUDO  LD          000061E2           00000001
 FMANFINF  LD          00006220           00000001
 FMANINIT  LD          00006326           00000001
 FMANTERM  LD          000063EA           00000001
 ACAINFO   ER 0000003B

1FILEMAN  ORVYL'S File Manager                                                                                              Page    4
0Loc    Object Code    Addr1 Addr2  Stmt Lv Lineno    Source Statement                    (Asmedit 3.3)  HLASM R4.0  2004/03/22 09.39
+___    ______ ____    _____ _____  ____ __ ______    ______ _________
0                                      2       2.              COPY  HEADER
                                       3             =*********************************************************************
                                       4             =*                                                                   *
                                       5             =*                                                                   *
                                       6             =*                          M P - O R V Y L                          *
                                       7             =*                                                                   *
                                       8             =*       ORVYL - Release 5.0 - Class I - Stanford Proprietary        *
                                       9             =*                                                                   *
                                      10             =*                                                                   *
                                      11             =*********************************************************************
-
-                                     13             =         SPLEVEL SET=2
                                      16             =         HIBAL ASSOC=YES
-
                                     998             =*
                                     999             =* REGISTER CONVENTIONS (USE ONLY THE SYMBOLS)
                                    1000             =*
                                    1001             =*                     CLASS  USAGE
                                    1002             =*                     -----  -----------------------------
                                    1003             =RVR      REG   0        1    RETURN VALUE REGISTER
                                    1015             =RS       REG   1        *    SCRATCH
                                    1027             =RA       REG   2        *    SCRATCH
                                    1039             =RB       REG   3        *    SCRATCH
                                    1051             =RJ       REG   4        *    SCRATCH
                                    1063             =RK       REG   5        *    SCRATCH
                                    1075             =RX       REG   6        *    SCRATCH
                                    1087             =RY       REG   7        *    SCRATCH
                                    1099             =RM       REG   8        *    SCRATCH
                                    1111             =RN       REG   9        *    SCRATCH (In Guest)
                                    1123             =RTCBR    REG   9        -    POINTER TO THE RTCB (In Host)
                                    1135             =BR       REG   10       -    FIRST BASE REGISTER
                                    1147             =BRR      REG   11       -    SECOND BASE REGISTER
                                    1159             =WAR      REG   12       -    WORK AREA POINTER
                                    1171             =SPR      REG   13       -    STACK TOP POINTER
                                    1183             =RAR      REG   14       1    RETURN ADDRESS REGISTER
                                    1195             =EPAR     REG   15       1    ENTRY POINT ADDRESS
                                    1207             =*
                                    1208             =*      CLASS   MEANING
                                    1209             =*      -----   --------------------------------------------------
                                    1210             =*        *     Register may be freely used for scratch
                                    1211             =*        -     Register may not be used
                                    1212             =*        1     Available but may change on subroutine calls
                                    1213             =*
1FILEMAN  ORVYL'S File Manager                                                                                              Page    5
0D-Loc  Object Code    Addr1 Addr2  Stmt Lv Lineno    Source Statement           (Hibal 5, Asmedit 3.3)  HLASM R4.0  2004/03/22 09.39
+_____  ______ ____    _____ _____  ____ __ ______    ______ _________
0000000                00000 06510  1215       3.     FILEMAN  MODULE TRCNUM=9,ID=MA
                                    1225             +*
                                    1226    02-IDENT +         ENTRY FILEMA
                                    1227             +
 000000 14C6C9D3C5D4C16B            1228    02-IDENT +FILEMA   DC    AL1(20),C'FILEMA,22MAR04,09:39'
                                    1229             +*
1FILEMAN  (FILEMA) (09:39) (22MAR04) ORVYL'S File Manager                                                                   Page    6
0Loc    Object Code    Addr1 Addr2  Stmt Lv Lineno    Source Statement           (Hibal 5, Asmedit 3.3)  HLASM R4.0  2004/03/22 09.39
+___    ______ ____    _____ _____  ____ __ ______    ______ _________
0                                   1232       5.              COPY  PZERO
 000000                00000 00280  1233             =PZERO    RECORD BEGIN
                                    1241  1          =*
                                    1242  1          =* Real Page 0.  Each CPU has its own copy of this area.
                                    1243  1          =*
-                                   1245  1          =****************************************************************
                                    1246  1          =*               Fields Fixed by the Architecture               *
                                    1247  1          =*               ********************************               *
                                    1248  1          =*                                                              *
 000000                             1249  1          =PZRSNPSW   DS    D             Restart new PSW                 *
 000008                             1250  1          =PZRSOPSW   DS    D             Restart old PSW                 *
 000010                             1251  1          =           DS    D                                             *
 000018                             1252  1          =PZEXOPSW   DS    D             External old PSW                *
 000020                             1253  1          =PZSVOPSW   DS    D             Supervisor old PSW              *
 000028                             1254  1          =PZPIOPSW   DS    D             Program old PSW                 *
 000030                             1255  1          =PZMCOPSW   DS    D             Machine check old PSW           *
 000038                             1256  1          =PZIOOPSW   DS    D             I/O old PSW                     *
 000040                             1257  1          =           DS    3D                                            *
 000058                             1258  1          =PZEXNPSW   DS    D             External new PSW                *
 000060                             1259  1          =PZSVNPSW   DS    D             Supervisor new PSW              *
 000068                             1260  1          =PZPINPSW   DS    D             Program new PSW                 *
 000070                             1261  1          =PZMCNPSW   DS    D             Machine check new PSW           *
 000078                             1262  1          =PZIONPSW   DS    D             I/O new PSW                     *
 000080                             1263  1          =           DS    F                                             *
 000084                             1264  1          =PZEXCPU    DS    H             CPU address for EXT int         *
 000086                             1265  1          =PZEXIC     DS    H             External interrupt code         *
 000088                             1266  1          =PZSVILC    DS    H             Supervisor call ILC             *
 00008A                             1267  1          =PZSVIC     DS    H             Supervisor interrupt code       *
 00008C                             1268  1          =PZPIILC    DS    H             Program ILC                     *
 00008E                             1269  1          =PZPIIC     DS    H             Program interrupt code          *
 000090                             1270  1          =PZTREXA    DS    A             Translation exception address   *
 000094                             1271  1          =PZMONCL    DS    H             Monitor Class number            *
 000096                             1272  1          =PZPERCD    DS    H             PER code                        *
 000098                             1273  1          =PZPERA     DS    A             PER Address                     *
 00009C                             1274  1          =PZMONCD    DS    A             Monitor Code                    *
 0000A0                             1275  1          =           DS    3D                                            *
 0000B8                             1276  1          =PZIOSID    DS    A             I/O subsystem ID word           *
 0000BC                             1277  1          =PZIOPRM    DS    A             I/O Parameter                   *
 0000C0                             1278  1          =PZIOSCS    DS    A             I/O subchannel ending status    *
 0000C4                             1279  1          =           DS    A                                             *
 0000C8                             1280  1          =           DS    39D                                           *
                                    1281  1          =*                                                              *
                                    1282  1          =*            ***************************************           *
                                    1283  1          =*            End of Fields fixed by the architecture           *
                                    1284  1          =****************************************************************
1FILEMAN  (FILEMA) (09:39) (22MAR04) ORVYL'S File Manager                                                                   Page    7
0D-Loc  Object Code    Addr1 Addr2  Stmt Lv Lineno    Source Statement           (Hibal 5, Asmedit 3.3)  HLASM R4.0  2004/03/22 09.39
+_____  ______ ____    _____ _____  ____ __ ______    ______ _________
0                                   1286  1          =*
                                    1287  1          =* Fields of general interest
                                    1288  1          =*
 000200                             1289  1          =PZMATP     DS    A             Address of the MAT
 000204                             1290  1          =           DS    A             ** Reserved **
 000208                             1291  1          =PZCURPID   DS    0D            Unique ID of the current process
 000208                             1292  1          =PZCURASB   DS    A             Addr of ASB for current Address space
 00020C                             1293  1          =PZCURTSK   DS    A             ID of current task in the Address space
 000210                             1294  1          =PZLCPUA    DS    A             Logical CPU address
 000214                             1295  1          =PZCPUMSK   DS    A             CPU address mask bit
 000218                             1296  1          =PZPSWM     DS    X             PSW mask for disabling
 000219                             1297  1          =           DS    X             ** Reserved **
                                    1298  1          =*
                                    1299  1          =* Termination/Trace information
                                    1300  1          =*
 00021A 00                          1301  1          =PZTERMFL   FLAG  ,             Termination flags
 PZTERMFL.PZABORT  80 ONES          1305  1          =           FLAG  PZABORT         ABORT macro issued
 PZTERMFL.PZATERM  40 ONES          1310  1          =           FLAG  PZATERM         Start termination processing
 00021B                             1315  1          =PZABSM     DS    X             Save area for system mask in ABORT
 00021C                             1316  1          =PZABR15    DS    A             Save area for R15 in an ABORT
 000220                             1317  1          =PZTZOFF    DS    D             Time zone offset
 000228                             1318  1          =           DS    22A           ** Reserved **
                                    1319  1          =*         DS    24A           ** Reserved **
 000280                00280 00280  1320             =         END   ,
 USING  PZERO,R0                    1329       6.              USING PZERO,R0
1FILEMAN  (FILEMA) (09:39) (22MAR04) ORVYL'S File Manager                                                                   Page    8
0Current Usings:  (PZERO,R0)
0Loc    Object Code    Addr1 Addr2  Stmt Lv Lineno    Source Statement           (Hibal 5, Asmedit 3.3)  HLASM R4.0  2004/03/22 09.39
+___    ______ ____    _____ _____  ____ __ ______    ______ _________
0                                   1339       8.              COPY  MAT
                                    1340             =*****************************************************************
                                    1341             =*                                                               *
                                    1342             =*        *** M A S T E R   A D D R E S S   T A B L E ***        *
                                    1343             =*                                                               *
                                    1344             =*****************************************************************
-000000                00000 00100  1346             =MAT      RECORD BEGIN
                                    1354  1          =MATPTR     EQU   X'200',4,C'A' Address of the MAT in PZERO
 000000 D4C1E340                    1355  1          =           DC    CL4'MAT'      Control block ID
                                    1356  1          =*
                                    1357  1          =* Addresses of global control blocks
                                    1358  1          =*
 000004                             1359  1          =MATVMCB    DS    A             Virtual memory control block
 000008                             1360  1          =MATDCT     DS    A             Dispatcher control table
 00000C                             1361  1          =MATPAGCB   DS    A             Real memory control block
 000010                             1362  1          =MATM1CT    DS    A             CT for Mode 1 users
 000014                             1363  1          =MATLCT     DS    A             Lock manager control table
 000018                             1364  1          =MATQCT     DS    A             Queue manager control table
 00001C                             1365  1          =MATIOCB    DS    A             I/O Manager control block
 000020                             1366  1          =MATSBWB    DS    A             System buffer wait blocks
 000024                             1367  1          =MATGTCT    DS    A             Terminal global control table
 000028                             1368  1          =MATFILCB   DS    A             File master control table
 00002C                             1369  1          =MATJESCB   DS    A             JES master control table
 000030                             1370  1          =MATSYSCB   DS    A             System task control table
 000034                             1371  1          =MATACCT    DS    A             Accounting control table
 000038                             1372  1          =MATGRCT    DS    A             General Resource control table
 00003C                             1373  1          =MATGNCT    DS    A             Global Network Control table
 000040                             1374  1          =MATTECB    DS    D             Termination wait ECB
 000048                             1375  1          =           DS    25A           Reserved
                                    1376  1          =*
                                    1377  1          =* Control Block Chains
                                    1378  1          =*
 0000AC                             1379  1          =MATASBS    DS    A             Pointer to chain of ASBs
 0000B0                             1380  1          =MATASBL    DS    A             Id of suspend lock for ASB chain
 0000B4                             1381  1          =           DS    8A            **  RESERVED
                                    1382  1          =*
                                    1383  1          =* Control information
                                    1384  1          =*
 0000D4                             1385  1          =MATSNAME   DS    CL8           System Name
 0000DC                             1386  1          =MATPAGFN   DS    A             Current value of the Paging function
 0000E0                             1387  1          =MATSKEY    DS    X             SYSTEM storage key (in high 4 bits)
 0000E1                             1388  1          =MATUKEY    DS    X             USER storage key
                                    1389= 1          =           ¿þþþþþþþþþþþþþþþþþþþþþþþþþþþþþþþþÜ
                                    1390= 1          =           Ÿ  Information about the Kernel  Ÿ
                                    1391= 1          =           ¾þþþþþþþþþþþþþþþþþþþþþþþþþþþþþþþþ»
 0000E4                             1392  1          =MATKSTRT   DS    A             Starting address of the Kernel
 0000E8                             1393  1          =MATKMAP    DS    A             Address of the Kernel map
 0000EC                             1394  1          =MATKMAPL   DS    A             Length of the Kernel map
1FILEMAN  (FILEMA) (09:39) (22MAR04) ORVYL'S File Manager                                                                   Page    9
0Current Usings:  (PZERO,R0)
0Loc    Object Code    Addr1 Addr2  Stmt Lv Lineno    Source Statement           (Hibal 5, Asmedit 3.3)  HLASM R4.0  2004/03/22 09.39
+___    ______ ____    _____ _____  ____ __ ______    ______ _________
0                                   1395= 1          =           ¿þþþþþþþþþþþþþþþþþþþþþþþþþÜ
                                    1396= 1          =           Ÿ  Failsoft information.  Ÿ
                                    1397= 1          =           ¾þþþþþþþþþþþþþþþþþþþþþþþþþ»
 0000F0                             1398  1          =MATNCLPE   DS    F             Number of CLP errors
 0000F4                             1399  1          =MATNFAIL   DS    F             Number of failsofts
 0000F8                             1400  1          =           DS    2A            Reserved
 000100                00100 00100  1401             =         END
1FILEMAN  (FILEMA) (09:39) (22MAR04) ORVYL'S File Manager                                                                   Page   10
0Current Usings:  (PZERO,R0)
0Loc    Object Code    Addr1 Addr2  Stmt Lv Lineno    Source Statement           (Hibal 5, Asmedit 3.3)  HLASM R4.0  2004/03/22 09.39
+___    ______ ____    _____ _____  ____ __ ______    ______ _________
0                                   1411      10.              COPY  FPC
                                    1412             =*
                                    1413             =*  FILE SYSTEM PRIVILEGE FLAG CODES
                                    1414             =*
                                    1415             =FPMIXR   EQU   X'80',,C'N'             **RESERVE** IXR MASTER IXR
                                    1416             =FPSIXR   EQU   X'40',,C'N'             **RESERVE** IXR SUPER IXR
                                    1417             =FPZIXR   EQU   X'20',,C'N'             **RESERVE** IXR HYBRID IXR
                                    1418             =FPFIXR   EQU   X'10',,C'N'             **RESERVE** IXR FIRST HYBRID
                                    1419             =FPN      EQU   X'00',,C'N'             PRIMITIVE NO-ACCESS
                                    1420             =FPR      EQU   X'01',,C'N'             PRIMITIVE READ
                                    1421             =FPA      EQU   X'02',,C'N'             PRIMITIVE APPEND
                                    1422             =FPW      EQU   X'04',,C'N'             PRIMITIVE WRITE
                                    1423             =FPE      EQU   X'08',,C'N'             PRIMITIVE EXTEND
                                    1424             =FPS      EQU   X'10',,C'N'             PRIMITIVE SHARE
                                    1425             =
                                    1426             =FRO      EQU   FPR                     READ ONLY
                                    1427             =FRW      EQU   FPR+FPA+FPW             READ & WRITE
                                    1428             =FRP      EQU   FPR+FPA                 READ & APPEND
                                    1429             =FAO      EQU   FPA                     APPEND ONLY
                                    1430             =FSHR     EQU   FPS                     SHARE ONLY
                                    1431             =FAC      EQU   FPE                     EXTEND ONLY
                                    1432             =FPALL    EQU   FRW+FPE                 ALL PRIVILEGES
                                    1433             =FPNONE   EQU   FPN                     NO-ACCESS
                                    1434             =
                                    1435             =FPREAD   EQU   FPR                     READ ONLY
                                    1436             =FPAPPEND EQU   FPA                     APPEND ONLY
                                    1437             =FPWRITE  EQU   FPW                     WRITE ONLY
                                    1438             =FPEXTEND EQU   FPE                     EXTEND
                                    1439             =FPFWRITE EQU   FPR+FPA+FPW             FULL WRITE
1FILEMAN  (FILEMA) (09:39) (22MAR04) ORVYL'S File Manager                                                                   Page   11
0Current Usings:  (PZERO,R0)
0Loc    Object Code    Addr1 Addr2  Stmt Lv Lineno    Source Statement           (Hibal 5, Asmedit 3.3)  HLASM R4.0  2004/03/22 09.39
+___    ______ ____    _____ _____  ____ __ ______    ______ _________
0                                   1441      12.              COPY  QLISTMAC
                                    1442             =*******************************************************************
                                    1443             =*                                                                 *
                                    1444             =* These macros are used to update double linked memory lists.     *
                                    1445             =* Serialization is achieved using the PLO instruction. If a       *
                                    1446             =* memory block containing the list head needs to be locked anyway *
                                    1447             =* then the macros in LSTMAC would be better than these.           *
                                    1448             =* Conversely any existing use of LSTMAC macros might be           *
                                    1449             =* converted to this mechanism to avoid using locking.             *
                                    1450             =*                                                                 *
                                    1451             =*******************************************************************
0                                   1453             =*******************************************************************
                                    1454             =*                                                                 *
                                    1455             =* Double linked list head fields                                  *
                                    1456             =*                                                                 *
                                    1457             =*******************************************************************
                                    1458             =         MACRO
                                    1459             =&LAB     QHEAD
                                    1460             =         AIF   ('&LAB' EQ '').ERR
                                    1461             =         DS   0D
                                    1462             =&LAB     DS   0XL(16)              Double linked PLO list
                                    1463             =&LAB.FP  DS    A                   Forward pointer
                                    1464             =&LAB.BP  DS    A                   Backward pointer
                                    1465             =&LAB.SEQ DS    A                   CDS sequence number
                                    1466             =&LAB.CNT DS    A                   Count of items
                                    1467             =         MEXIT
                                    1468             =.ERR     MNOTE 8,'Label (list name) required'
                                    1469             =         MEND
0                                   1471             =*******************************************************************
                                    1472             =*                                                                 *
                                    1473             =* Parameters for the double linked list manipulation routines     *
                                    1474             =* in RESMAN                                                       *
                                    1475             =*                                                                 *
                                    1476             =*******************************************************************
 000000                00000 00010  1477             =@QUE    RECORD BEGIN               List Add/Remove
 000000                             1485  1          =@QUESEQ    DS    D                   Doubleword sequence value
 000008                             1486  1          =@QUEITM    DS    A                   Address of item
 00000C                             1487  1          =@QUELHD    DS    A                   Address of list head
 000010                00010 00010  1488             =         END   ,
0                                   1498             =*******************************************************************
                                    1499             =*                                                                 *
                                    1500             =* Add an item to the end of a double linked list                  *
                                    1501             =*                                                                 *
                                    1502             =*******************************************************************
                                    1503             =         MACRO
                                    1504             =&LABEL   Q_QUE &HEAD=,&ITEM=
                                    1505             =         AIF   ('&LABEL' EQ '').NOLAB
                                    1506             =&LABEL   LABEL ,
                                    1507             =.NOLAB   ANOP  ,
                                    1508             =         AIF   ('&HEAD' EQ '').ERR1
                                    1509             =         AIF   ('&ITEM' EQ '').ERR2
1FILEMAN  (FILEMA) (09:39) (22MAR04) ORVYL'S File Manager                                                                   Page   12
0Current Usings:  (PZERO,R0)
0Loc    Object Code    Addr1 Addr2  Stmt Lv Lineno    Source Statement           (Hibal 5, Asmedit 3.3)  HLASM R4.0  2004/03/22 09.39
+___    ______ ____    _____ _____  ____ __ ______    ______ _________
0                                   1511             =         PSET  @QUE,CLEAR=NO
                                    1512             =         LM    R14,R15,&HEAD.SEQ
                                    1513             =         STM   R14,R15,@QUESEQ     Set sequence stuff
                                    1514             =         PMOV  @QUELHD,LA:&HEAD
                                    1515             =         PMOV  @QUEITM,LA:&ITEM
                                    1516             =         LOOP  BEGIN
                                    1517             =         VCALL QUEUE               Add item to end of list
                                    1518             =         UNTIL (RVR,Z),END
                                    1520             =         AGO   .EXIT
                                    1521             =.ERR1    MNOTE 8,'Head is a required parameter'
                                    1522             =         AGO   .EXIT
                                    1523             =.ERR2    MNOTE 8,'Item is a required parameter'
                                    1524             =.EXIT    ANOP  ,
                                    1525             =         MEND  ,
0                                   1527             =*******************************************************************
                                    1528             =*                                                                 *
                                    1529             =* Remove an item from a double linked list                        *
                                    1530             =*                                                                 *
                                    1531             =*******************************************************************
                                    1532             =         MACRO
                                    1533             =&LABEL   Q_REM &HEAD=,&ITEM=
                                    1534             =         AIF   ('&LABEL' EQ '').NOLAB
                                    1535             =&LABEL   LABEL ,
                                    1536             =.NOLAB   ANOP  ,
                                    1537             =         AIF   ('&HEAD' EQ '').ERR1
                                    1538             =         AIF   ('&ITEM' EQ '').ERR2
                                    1540             =         PSET  @QUE,CLEAR=NO
                                    1541             =         LM    R14,R15,&HEAD.SEQ
                                    1542             =         STM   R14,R15,@QUESEQ     Set sequence stuff
                                    1543             =         PMOV  @QUELHD,LA:&HEAD
                                    1544             =         PMOV  @QUEITM,LA:&ITEM
                                    1545             =         LOOP  BEGIN
                                    1546             =         VCALL QUEREM              Add item to nd of list
                                    1547             =         UNTIL (RVR,Z),END
                                    1549             =         AGO   .EXIT
                                    1550             =.ERR1    MNOTE 8,'Head is a required parameter'
                                    1551             =         AGO   .EXIT
                                    1552             =.ERR2    MNOTE 8,'Item is a required parameter'
                                    1553             =.EXIT    ANOP  ,
                                    1554             =         MEND  ,
0                                   1556             =*******************************************************************
                                    1557             =*                                                                 *
                                    1558             =* Add item to beginning of double linked list                     *
                                    1559             =*                                                                 *
                                    1560             =*******************************************************************
                                    1561             =         MACRO
                                    1562             =&LABEL   Q_PSH &HEAD=,&ITEM=
                                    1563             =         AIF   ('&LABEL' EQ '').NOLAB
                                    1564             =&LABEL   LABEL ,
                                    1565             =.NOLAB   ANOP  ,
                                    1566             =         AIF   ('&HEAD' EQ '').ERR1
                                    1567             =         AIF   ('&ITEM' EQ '').ERR2
1FILEMAN  (FILEMA) (09:39) (22MAR04) ORVYL'S File Manager                                                                   Page   13
0Current Usings:  (PZERO,R0)
0Loc    Object Code    Addr1 Addr2  Stmt Lv Lineno    Source Statement           (Hibal 5, Asmedit 3.3)  HLASM R4.0  2004/03/22 09.39
+___    ______ ____    _____ _____  ____ __ ______    ______ _________
0                                   1569             =         PSET  @QUE,CLEAR=NO
                                    1570             =         LM    R14,R15,&HEAD.SEQ
                                    1571             =         STM   R14,R15,@QUESEQ     Set sequence stuff
                                    1572             =         PMOV  @QUELHD,LA:&HEAD
                                    1573             =         PMOV  @QUEITM,LA:&ITEM
                                    1574             =         LOOP  BEGIN
                                    1575             =         VCALL QUEPUSH             Add item to end of list
                                    1576             =         UNTIL (RVR,Z),END
                                    1578             =         AGO   .EXIT
                                    1579             =.ERR1    MNOTE 8,'Head is a required parameter'
                                    1580             =         AGO   .EXIT
                                    1581             =.ERR2    MNOTE 8,'Item is a required parameter'
                                    1582             =.EXIT    ANOP  ,
                                    1583             =         MEND  ,
1FILEMAN  (FILEMA) (09:39) (22MAR04) ORVYL'S File Manager                                                                   Page   14
0Current Usings:  (PZERO,R0)
0Loc    Object Code    Addr1 Addr2  Stmt Lv Lineno    Source Statement           (Hibal 5, Asmedit 3.3)  HLASM R4.0  2004/03/22 09.39
+___    ______ ____    _____ _____  ____ __ ______    ______ _________
0                                   1586      14.              COPY  SLISTMAC
                                    1587             =*******************************************************************
                                    1588             =*                                                                 *
                                    1589             =* Macros for the serialized manipulation of single linked lists   *
                                    1590             =* in memory.  These lists are of the PUSH/POP (LIFO) variety.     *
                                    1591             =* Serialization is achieved using the CDS and CS instructions.    *
                                    1592             =*                                                                 *
                                    1593             =*******************************************************************
0                                   1595             =*******************************************************************
                                    1596             =*                                                                 *
                                    1597             =* Single linked list head fields                                  *
                                    1598             =*                                                                 *
                                    1599             =*******************************************************************
                                    1600             =         MACRO
                                    1601             =&LAB     SHEAD
                                    1602             =         AIF   ('&LAB' EQ '').ERR
                                    1603             =&LAB     DS   0D                   Single linked CDS list
                                    1604             =&LAB.FP  DS    A                   Forward pointer
                                    1605             =&LAB.SEQ DS    A                   CDS sequence number
                                    1606             =         MEXIT
                                    1607             =.ERR     MNOTE 8,'Label (list name) required'
                                    1608             =         MEND
0                                   1610             =*******************************************************************
                                    1611             =*                                                                 *
                                    1612             =* Push an item onto a single linked list                          *
                                    1613             =*                                                                 *
                                    1614             =*******************************************************************
                                    1615             =         MACRO
                                    1616             =&LABEL   SPUSH &HEAD=,&ITEM=
                                    1617             =         LCLC  &X
                                    1618             =         AIF   ('&LABEL' EQ '').NOLAB
                                    1619             =&LABEL   LABEL ,
                                    1620             =.NOLAB   ANOP  ,
                                    1621             =         AIF   ('&HEAD' EQ '').ERR1
                                    1622             =         AIF   ('&ITEM' EQ '').ERR2
                                    1624             =         LM    R14,R15,&HEAD       Get fwd ptr and sequence number
                                    1625             =         LA    RVR,&ITEM           Point to new item
                                    1626             =         LOOP  BEGIN
                                    1627             =         LA    RS,1(R15)           Increment sequence
                                    1628             =         MVC   &ITEM.(L'&HEAD.FP),&HEAD.FP Set item fwd ptr
                                    1629             =         CDS   R14,RVR,&HEAD       Add item to list
                                    1630             =         UNTIL (Z),END
                                    1632             =         AGO   .EXIT
                                    1633             =.ERR1    MNOTE 8,'Head is a required parameter'
                                    1634             =         AGO   .EXIT
                                    1635             =.ERR2    MNOTE 8,'Item is a required parameter'
                                    1636             =.EXIT    ANOP  ,
                                    1637             =         MEND  ,
0                                   1639             =*******************************************************************
                                    1640             =*                                                                 *
                                    1641             =* Pop an item from a single linked list. Addr returned in RVR     *
1FILEMAN  (FILEMA) (09:39) (22MAR04) ORVYL'S File Manager                                                                   Page   15
0Current Usings:  (PZERO,R0)
0Loc    Object Code    Addr1 Addr2  Stmt Lv Lineno    Source Statement           (Hibal 5, Asmedit 3.3)  HLASM R4.0  2004/03/22 09.39
+___    ______ ____    _____ _____  ____ __ ______    ______ _________
0                                   1642             =* (zero if the list was empty).                                   *
                                    1643             =*                                                                 *
                                    1644             =*******************************************************************
                                    1645             =         MACRO
                                    1646             =&LABEL   SPOP  &HEAD=
                                    1647             =         AIF   ('&LABEL' EQ '').NOLAB
                                    1648             =&LABEL   LABEL ,
                                    1649             =.NOLAB   ANOP  ,
                                    1650             =         AIF   ('&HEAD' EQ '').ERR1
                                    1652             =         LM    RVR,RS,&HEAD        Get fwd and sequence number
                                    1653             =         LOOP  BEGIN
                                    1654             =         IF    (RVR,Z),EXIT        None to get
                                    1655             =         LR    R14,RVR             Point to first item
                                    1656             =         L     R14,0(R14)          Get fwd pointer
                                    1657             =         LA    R15,1(RS)           Increment sequence
                                    1658             =         CDS   RVR,R14,&HEAD       Remove item from list
                                    1659             =         UNTIL (Z),END
                                    1661             =         AGO   .EXIT
                                    1662             =.ERR1    MNOTE 8,'Head is a required parameter'
                                    1663             =.EXIT    ANOP  ,
                                    1664             =         MEND  ,
0                                   1666             =*******************************************************************
                                    1667             =*                                                                 *
                                    1668             =* Get an available item from list (ptr returned in RVR). Memory   *
                                    1669             =* will be obtained if the list is empty.                          *
                                    1670             =*                                                                 *
                                    1671             =*******************************************************************
                                    1672             =         MACRO
                                    1673             =&LABEL   SAVAIL &HEAD=,&LEN=,&LOC=GLOBHI,&FIX=,&PAGE=
                                    1674             =         AIF   ('&LABEL' EQ '').NOLAB
                                    1675             =&LABEL   LABEL ,
                                    1676             =.NOLAB   ANOP  ,
                                    1677             =         AIF   ('&HEAD' EQ '').ERR1
                                    1678             =         AIF   ('&LEN' EQ '').ERR2
                                    1679             =         SPOP  HEAD=&HEAD          pop a free item
                                    1680             =         IF    (RVR,Z),BEGIN       empty list
                                    1681             =         VMGET &LEN,LOC=&LOC,FIX=&FIX,PAGE=&PAGE
                                    1682             =         IF    ('LTR RVR,RVR',ZERO),'ABORT NO_MEM_&HEAD'
                                    1683             =         END   ,
                                    1684             =         AGO   .EXIT
                                    1685             =.ERR1    MNOTE 8,'Head is a required parameter'
                                    1686             =         AGO   .EXIT
                                    1687             =.ERR2    MNOTE 8,'Len is a required parameter'
                                    1688             =.EXIT    ANOP  ,
                                    1689             =         MEND  ,
0000000                00000 00008  1691             =SLDUMMY  RECORD BEGIN
                                    1699  1          =SLDUM      SHEAD ,
 000000                             1700  1 01-01603 +SLDUM      DS   0D                   Single linked CDS list
 000000                             1701  1 01-01604 +SLDUMFP    DS    A                   Forward pointer
 000004                             1702  1 01-01605 +SLDUMSEQ   DS    A                   CDS sequence number
 000008                00008 00008  1703             =         END
1FILEMAN  (FILEMA) (09:39) (22MAR04) ORVYL'S File Manager                                                                   Page   16
0Current Usings:  (PZERO,R0)
0Loc    Object Code    Addr1 Addr2  Stmt Lv Lineno    Source Statement           (Hibal 5, Asmedit 3.3)  HLASM R4.0  2004/03/22 09.39
+___    ______ ____    _____ _____  ____ __ ______    ______ _________
0                                   1713      16.              COPY  LISTPARM
                                    1714             =*   A list header block is used to control access to a chain
                                    1715             =* of resources.  All elements which are to be linked together on
                                    1716             =* these doubly linked circular lists must have the elements
                                    1717             =* first word be space for a forward list pointer, and the second
                                    1718             =* word space for a backward list pointer.
 000000                00000 0000C  1719             =LHEAD    RECORD BEGIN                  List descriptor
                                    1727  1          =           LHEAD PFX=LH
 000000                             1728  1 01-LHEAD +LHFP       DS    A                       Forward pointer
 000004                             1729  1 01-LHEAD +LHBP       DS    A                       Backward pointer
 000008                             1730  1 01-LHEAD +LHCNT      DS    A                       Number of elements in list
 00000C                0000C 0000C  1731             =         END   ,
0000000                00000 00008  1741             =LELEM    RECORD BEGIN                  Common start of list items
                                    1749  1          =           LELEM PFX=L
 000000                             1750  1 01-LELEM +LFP        DS    A                       Forward pointer
 000004                             1751  1 01-LELEM +LBP        DS    A                       Backward pointer
 000008                00008 00008  1752             =         END   ,
0000000                00000 00010  1762             =@LADD    RECORD BEGIN                  Add items to a list
 000000                             1770  1          =@LAHEAD    DS    A                       Header block of list
 000004                             1771  1          =@LA1ST     DS    A                       First item being added
 000008                             1772  1          =@LALAST    DS    A                       Last item being added
 00000C                             1773  1          =@LACNT     DS    A                       Number of items being added
 000010                00010 00010  1774             =         END   ,
0000000                00000 00010  1784             =@LREM    RECORD BEGIN                  Remove items from a list
 000000                             1792  1          =@LRHEAD    DS    A                       Header block of list
 000004                             1793  1          =@LR1ST     DS    A                       First item being removed
 000008                             1794  1          =@LRCNT     DS    A                       Number of items being removed
                                    1795  1          =* -- Return Parms --
 00000C                             1796  1          =@LRLAST    DS    A                       Last item removed
 000010                00010 00010  1797             =         END   ,
1FILEMAN  (FILEMA) (09:39) (22MAR04) ORVYL'S File Manager                                                                   Page   17
0Current Usings:  (PZERO,R0)
0Loc    Object Code    Addr1 Addr2  Stmt Lv Lineno    Source Statement           (Hibal 5, Asmedit 3.3)  HLASM R4.0  2004/03/22 09.39
+___    ______ ____    _____ _____  ____ __ ______    ______ _________
0                                   1807      18.              COPY  LSTMAC
                                    1808             =         PRINT OFF
                                    1852             =*********************************************************************
                                    1853             =*   Add elements to a list
                                    1854             =*
                                    1855             =*   Input
                                    1856             =*
                                    1857             =* &L  LADD     &HEAD,&FIRST,&FLAST,&FCOUNT,&WR=,&WR2=RAR,&WR3=EPAR
                                    1858             =*     &HEAD    is a pointer the head of the list (defop = LA)
                                    1859             =*     &FIRST   first element to be added to the list
                                    1860             =*     &FLAST   last element to be added (if not specified, assuming
                                    1861             =*              only one)
                                    1862             =*     &FCOUNT  count of elements being added (shouldn't be specified
                                    1863             =*              for only one add)
                                    1864             =*     &WR
                                    1865             =*     &WR2     Registers for scratch
                                    1866             =*     &WR3
                                    1867             =*
                                    1868             =*   Output
                                    1869             =*
                                    1870             =*     No parameter registers are modified
                                    1871             =*
                                    1872             =*********************************************************************
                                    1873             =         PRINT OFF
-
0                                   1968             =*********************************************************************
                                    1969             =*   Remove elements from a list
                                    1970             =*
                                    1971             =*   Input
                                    1972             =*
                                    1973             =* &L  LREM     &HEAD,&FFIRST,&FCOUNT,&LAST=,&WR=,&WR2=RAR,&WR3=EPAR
                                    1974             =*
                                    1975             =*     &HEAD    is a pointer the head of the list (defop = LA)
                                    1976             =*     &FFIRST  first element to be removed from the list (if not
                                    1977             =*              specified then take the first on the list)
                                    1978             =*     &LAST    last element removed (must be specified for multiple
                                    1979             =*              removes, must not be specified for single remove)
                                    1980             =*     &FCOUNT  count of elements to be removed (shouldn't be
                                    1981             =*              specified for single remove)
                                    1982             =*     &WR
                                    1983             =*     &WR2     Registers for scratch
                                    1984             =*     &WR3
                                    1985             =*
                                    1986             =*   Output
                                    1987             =*
                                    1988             =*     RVR      contains the address of the first element on the list
                                    1989             =*     No parameter registers are modified
                                    1990             =*
                                    1991             =*********************************************************************
                                    1992             =         PRINT OFF
1FILEMAN  (FILEMA) (09:39) (22MAR04) ORVYL'S File Manager                                                                   Page   18
0Current Usings:  (PZERO,R0)
0Loc    Object Code    Addr1 Addr2  Stmt Lv Lineno    Source Statement           (Hibal 5, Asmedit 3.3)  HLASM R4.0  2004/03/22 09.39
+___    ______ ____    _____ _____  ____ __ ______    ______ _________
0
0                                   2134             =*********************************************************************
                                    2135             =*   Remove all elements from a list
                                    2136             =*
                                    2137             =*   Input
                                    2138             =*
                                    2139             =* &L  LREMALL  &HEAD,&COUNT=,&LAST=,&WR=
                                    2140             =*
                                    2141             =*     &HEAD    is a pointer the head of the list (defop = LA)
                                    2142             =*     &LAST    returns last element removed (must be specified)
                                    2143             =*     &COUNT   returns count of elements in list
                                    2144             =*
                                    2145             =*     &WR      Register for scratch
                                    2146             =*
                                    2147             =*   Output
                                    2148             =*
                                    2149             =*     RVR      contains the address of the first element on the list
                                    2150             =*
                                    2151             =*     No parameter registers are modified
                                    2152             =*
                                    2153             =*********************************************************************
                                    2154             =         PRINT OFF
1FILEMAN  (FILEMA) (09:39) (22MAR04) ORVYL'S File Manager                                                                   Page   19
0Current Usings:  (PZERO,R0)
0Loc    Object Code    Addr1 Addr2  Stmt Lv Lineno    Source Statement           (Hibal 5, Asmedit 3.3)  HLASM R4.0  2004/03/22 09.39
+___    ______ ____    _____ _____  ____ __ ______    ______ _________
0                                   2241             =*********************************************************************
                                    2242             =*   Move an element to the end of a list
                                    2243             =*
                                    2244             =*   Input
                                    2245             =*
                                    2246             =* &L  LLRU     &HEAD,&ELEM,&WR=,&WR2=RAR,&WR3=EPAR
                                    2247             =*
                                    2248             =*     &HEAD    is a pointer the head of the list (defop = LA)
                                    2249             =*     &ELEM    element to be put at the end of the list
                                    2250             =*     &WR
                                    2251             =*     &WR2     Registers for scratch
                                    2252             =*     &WR3
                                    2253             =*
                                    2254             =*   Output
                                    2255             =*
                                    2256             =*     No parameter registers are modified
                                    2257             =*
                                    2258             =*********************************************************************
                                    2259             =         PRINT OFF
0                                   2347             =         MACRO
                                    2348             =         LSTCHK &HEAD
                                    2349             =         MEXIT
                                    2350             =         PSET  @LSTCHK,CLEAR=NO
                                    2351             =        $LA    EPAR,&HEAD
                                    2352             =         ST    EPAR,@LCHEAD
                                    2353             =         ACALL LSTCHK
                                    2354             =         MEND
1FILEMAN  (FILEMA) (09:39) (22MAR04) ORVYL'S File Manager                                                                   Page   20
0Current Usings:  (PZERO,R0)
0Loc    Object Code    Addr1 Addr2  Stmt Lv Lineno    Source Statement           (Hibal 5, Asmedit 3.3)  HLASM R4.0  2004/03/22 09.39
+___    ______ ____    _____ _____  ____ __ ______    ______ _________
0                                   2356      20.              COPY  FILCONST
                                    2357             =         PRINT OFF                     ERRCODE MACRO
0000016                             2374             =DIRCONST BEGIN ,                       VARIOUS AND SUNDRY CONSTANTS
                                    2379  1          =PGESZ      EQU   4096                    ORVYL PAGE SIZE
                                    2380  1          =M1AMSK     EQU   X'00FFFFFF'             Mode 1 address mask
                                    2381  1          =PGEMSK     EQU   M1AMSK-PGESZ+1          PAGE ALIGN MASK
0                                   2383  1          =GRSZ       EQU   6                       ACCOUNT LENGTH
                                    2384  1          =DIRNFER    ERRCODE FIRST=YES             CONDITION: LEAF NOT FOUND
                                    2387  1          =DIRDUPER   ERRCODE ,                     ERROR: CAN'T INS DUPLICATE LEAF
                                    2390  1          =DIRDELAC   ERRCODE ,                     ERROR: CAN'T DEL ACC W/ FILES
                                    2393  1          =DIRNTSZ    ERRCODE ,                     ERROR: INVALID ENTRY SIZE
                                    2396  1          =DIRMODLN   ERRCODE ,                     ERROR: CAN'T CH LEN W/OUT FLAG
                                    2399  1          =DIRRENAC   ERRCODE ,                     ERROR: CAN'T RENAME ACCOUNTS
                                    2402  1          =DIRNMR     ERRCODE ,                     ERROR: NO MORE ROOM IN DIR
                                    2405  1          =DIRSTOV    ERRCODE ,                     ERROR: LIST_STACK OVERFLOW
                                    2408  1          =DIRSTUF    ERRCODE ,                     ERROR: LIST_STACK UNDERFLOW
                                    2411  1          =DIRTAGER   ERRCODE ,                     ERROR: BLOCK TAG MISMATCH
                                    2414  1          =DIRBLKER   ERRCODE ,                     ERROR: BLOCK NUMBER MISMATCH
                                    2417  1          =DIRIOS     ERRCODE ,                     ERROR: NO MORE I/O SPACE
                                    2420  1          =DIRIONF    ERRCODE ,                     ERROR: I/O BUFFER NOT FOUND
                                    2423  1          =DIRNIMP    ERRCODE ,                     CONDITION: NOT IMPLEMENTED
                                    2426  1          =ACCMODE    EQU   0                       INDICATE ACCOUNT MODE
                                    2427  1          =FILEMODE   EQU   4                       INDICATE FILE MODE
                                    2428  1          =CSEQNONT   EQU   16                      SEQ ACC: NO ENTRYS IN THIS TREE
                                    2429  1          =CSEQEND    EQU   8                       SEQ ACC: NO MORE ENTRYS IN TREE
                                    2430  1          =FALLBT     EQU   X'FF'                   A BYTE OF ONES
                                    2431  1          =NIL        EQU   X'FF'                   END OF LIST INDICATOR
                                    2432  1          =CDIRIOM    EQU   X'0100'                 I/O ROUTINES ARE MODULE #1
                                    2433  1          =CDIRDGM    EQU   X'0200'                 DSKGET ROUTINE IS MODULE #2
                                    2434  1          =CDIRDFM    EQU   X'0300'                 DSKFREE ROUTINE IS MODULE #3
                                    2435  1          =CDIRBUG    EQU   X'0400'                 DIRBUG ROUTINES ARE MODULE #4
                                    2436  1          =VIOFREE    EQU   X'7FFFFF00'             CONSTANT TO FREE A BUFFER (AND)
                                    2437  1          =VIOLOCK    EQU   X'000000FF'             CONSTANT TO LOCK A BUFFER (OR)
                                    2438  1          =BITAVAIL   EQU   X'7FFFFF00'             CONSTANT TO FREE A BUFFER (AND)
                                    2439  1          =BITMOD     EQU   X'000000FF'             CONSTANT TO SET BUFFER MOD (OR)
 000016                             2440             =         END   ,                       OF VARIOUS AND SUNDRY CONSTANTS
1FILEMAN  (FILEMA) (09:39) (22MAR04) ORVYL'S File Manager                                                                   Page   21
0Current Usings:  (PZERO,R0)
0Loc    Object Code    Addr1 Addr2  Stmt Lv Lineno    Source Statement           (Hibal 5, Asmedit 3.3)  HLASM R4.0  2004/03/22 09.39
+___    ______ ____    _____ _____  ____ __ ______    ______ _________
0                                   2445      22.              COPY  FILECB      File control block (one only)
                                    2446=            =¿þþþþþþþþþþþþþþþþþþþþþþþþþþþþþþþþþþþþþþþþþþþþþþþþþþþþþþþþþþþþþþþþþþþþþÜ
                                    2447=            =Ÿ                                                                     Ÿ
                                    2448=            =Ÿ        Global File System Information                               Ÿ
                                    2449=            =Ÿ                                                                     Ÿ
                                                      ¾þþþþþþþþþþþþþþþþþþþþþþþþþþþþþþþþþþþþþþþþþþþþþþþþþþþþþþþþþþþþþþþþþþþþþ»
0000000                00000 00158  2450             =FILECB   RECORD BEGIN
 000000 C6C9D3C5C3C24040            2458  1          =FILEID     DC    CL8'FILECB'         Self identification
                                    2459  1          =
 000008                             2460  1          =FILEFFSB   DS    A                   First FSB pointer
 00000C                             2461  1          =FILEFSBC   DS    A                   Number of FSBs
 000010                             2462  1          =FILEFSGT   DS    A                   Pointer to file sys group tbl
                                    2463  1          =*
                                    2464  1          =*  Buffer management
                                    2465  1          =*
 000014 00                          2466  1          =FILBFLAG   FLAG  ,                   Buffer flag
 FILBFLAG.FILBFHCA 80 ONES          2470  1          =           FLAG  FILBFHCA            Hiperspace cache
 FILBFLAG.FILBNOTD 40 ONES          2475  1          =           FLAG  FILBNOTD            Don't dump cache blocks
 000015                             2480  1          =           DS    XL3                 Spare
 000018                             2481  1          =FILE2KCH   DS    A                   File cache control block (user)
 00001C                             2482  1          =FILE2KCS   DS    A                   File cache control block (system)
 000020                             2483  1          =FILE4KCH   DS    A                   File cache control block (user)
 000024                             2484  1          =FILE4KCS   DS    A                   File cache control block (system)
                                    2485  1          =
 000028                             2486  1          =FILE2KRB   DS    A                   Read buffer control block
 00002C                             2487  1          =FILE4KRB   DS    A                   Read buffer control block
 000030                             2488  1          =FILEIOP    DS    A                   File IO parm buffers
                                    2489  1          =
 000034                             2490  1          =FILTEMPF   DS    A                   Temp files FSB
                                    2491  1          =
                                    2492  1          =FILEBW     SHEAD ,                   Free wait blocks for buff mngmt
 000038                             2493  1 01-01603 +FILEBW     DS   0D                   Single linked CDS list
 000038                             2494  1 01-01604 +FILEBWFP   DS    A                   Forward pointer
 00003C                             2495  1 01-01605 +FILEBWSEQ   DS   A                   CDS sequence number
                                    2496  1          =FILEATFB   SHEAD ,                   Free file attached blocks
 000040                             2497  1 01-01603 +FILEATFB   DS   0D                   Single linked CDS list
 000040                             2498  1 01-01604 +FILEATFBFP   DS  A                   Forward pointer
 000044                             2499  1 01-01605 +FILEATFBSEQ   DS A                   CDS sequence number
                                    2500  1          =*
                                    2501  1          =*  Statistics
                                    2502  1          =*
 000048                             2503  1          =FILMTIME   DS    D                   Elapsed time for SMF
                                    2504  1          =*
                                    2505  1          =* Note: don't modify the following counters in any way unless
                                    2506  1          =*       FSB and the routine FDOIODO are also modified.
                                    2507  1          =*
                                    2508  1          =*  File read counts from disk
                                    2509  1          =*
 000050                             2510  1          =TTREADCT   DS    0D
 000050                             2511  1          =TTMASRCT   DS    D                   Master - read counts
 000058                             2512  1          =TTCATRCT   DS    D                   Catalog - read counts
 000060                             2513  1          =TTBITRCT   DS    D                   Bitmap - read counts
 000068                             2514  1          =TTIXRRCT   DS    D                   IXR - read counts
1FILEMAN  (FILEMA) (09:39) (22MAR04) ORVYL'S File Manager                                                                   Page   22
0Current Usings:  (PZERO,R0)
0Loc    Object Code    Addr1 Addr2  Stmt Lv Lineno    Source Statement           (Hibal 5, Asmedit 3.3)  HLASM R4.0  2004/03/22 09.39
+___    ______ ____    _____ _____  ____ __ ______    ______ _________
0000070                             2515  1          =TTUSERCT   DS    D                   User  - read counts
 000078                             2516  1          =TTOTHRCT   DS    D                   Other?? - read counts
                                    2517  1          =*
                                    2518  1          =* Counter indexes - All counters are referenced with the
                                    2519  1          =* generic label and using one of the following indexes.
                                    2520  1          =*
                                    2521  1          =TTMASD     EQU   TTMASRCT-TTREADCT
                                    2522  1          =TTCATD     EQU   TTCATRCT-TTREADCT
                                    2523  1          =TTBITD     EQU   TTBITRCT-TTREADCT
                                    2524  1          =TTIXRD     EQU   TTIXRRCT-TTREADCT
                                    2525  1          =TTUSED     EQU   TTUSERCT-TTREADCT
                                    2526  1          =TTOTHD     EQU   TTOTHRCT-TTREADCT
                                    2527  1          =*
                                    2528  1          =*  File write counts
                                    2529  1          =*
 000080                             2530  1          =TTWRITCT   DS    0D
 000080                             2531  1          =TTMASWCT   DS    D                   Master - writes
 000088                             2532  1          =TTCATWCT   DS    D                   Catalog - writes
 000090                             2533  1          =TTBITWCT   DS    D                   Bitmap -  writes
 000098                             2534  1          =TTIXRWCT   DS    D                   IXR - writes
 0000A0                             2535  1          =TTUSEWCT   DS    D                   User -  writes
 0000A8                             2536  1          =TTOTHWCT   DS    D                   Other?? - writes
                                    2537  1          =*
                                    2538  1          =*  File read counts from cache
                                    2539  1          =*
 0000B0                             2540  1          =TTCACHCT   DS    0D
 0000B0                             2541  1          =TTMASCCT   DS    D                   Master - read counts
 0000B8                             2542  1          =TTCATCCT   DS    D                   Catalog - read counts
 0000C0                             2543  1          =TTBITCCT   DS    D                   Bitmap - read counts
 0000C8                             2544  1          =TTIXRCCT   DS    D                   IXR - read counts
 0000D0                             2545  1          =TTUSECCT   DS    D                   User  - read counts
 0000D8                             2546  1          =TTOTHCCT   DS    D                   Other?? - read counts
                                    2547  1          =TTFILECT   EQU   TTREADCT,*-TTREADCT
                                    2548  1          =TTFILECC   EQU   (*-TTREADCT)/L'TTREADCT
                                    2549  1          =
                                    2550  1          =TTFREAD    EQU   TTREADCT-TTFILECT
                                    2551  1          =TTFWRIT    EQU   TTWRITCT-TTFILECT
                                    2552  1          =TTFCACH    EQU   TTCACHCT-TTFILECT
                                    2553  1          =*
                                    2554  1          =*  Attach statistics
                                    2555  1          =*
 0000E0                             2556  1          =TTFILATT   DS    F                   Number of files attached
 0000E4                             2557  1          =TTFILATM   DS    F                   | max number attached
 0000E8                             2558  1          =TTFILAUS   DS    F                   Number of user attaches
 0000EC                             2559  1          =TTFILAUM   DS    F                   | max number of user attaches
 0000F0                             2560  1          =TTFILATP   DS    F                   Number of temp files attached
 0000F4                             2561  1          =TTFILAPM   DS    F                   | max number of temp files attached
 0000F8                             2562  1          =TTFILTBK   DS    F                   Number of temp blocks in use
 0000FC                             2563  1          =TTFILTBM   DS    F                   | max number of temp blocks in use
                                    2564  1          =*
                                    2565  1          =* Delete file processing control area
                                    2566  1          =*
 000100                             2567  1          =FILEDECB   DS    D                   Wait for work ECB
                                    2568  1          =FILEDB     SHEAD ,                   Free file delete blocks
1FILEMAN  (FILEMA) (09:39) (22MAR04) ORVYL'S File Manager                                                                   Page   23
0Current Usings:  (PZERO,R0)
0Loc    Object Code    Addr1 Addr2  Stmt Lv Lineno    Source Statement           (Hibal 5, Asmedit 3.3)  HLASM R4.0  2004/03/22 09.39
+___    ______ ____    _____ _____  ____ __ ______    ______ _________
0000108                             2569  1 01-01603 +FILEDB     DS   0D                   Single linked CDS list
 000108                             2570  1 01-01604 +FILEDBFP   DS    A                   Forward pointer
 00010C                             2571  1 01-01605 +FILEDBSEQ   DS   A                   CDS sequence number
                                    2572  1          =FILEDT     SHEAD ,                   List of temp files to delete
 000110                             2573  1 01-01603 +FILEDT     DS   0D                   Single linked CDS list
 000110                             2574  1 01-01604 +FILEDTFP   DS    A                   Forward pointer
 000114                             2575  1 01-01605 +FILEDTSEQ   DS   A                   CDS sequence number
                                    2576  1          =FILEDF     SHEAD ,                   List of files to delete
 000118                             2577  1 01-01603 +FILEDF     DS   0D                   Single linked CDS list
 000118                             2578  1 01-01604 +FILEDFFP   DS    A                   Forward pointer
 00011C                             2579  1 01-01605 +FILEDFSEQ   DS   A                   CDS sequence number
 000120                             2580  1          =FILEDASB   DS    A                   Delete file processing ASB
 000124                             2581  1          =FILEDSYR   DS    A                   Sys routine id
 000128                             2582  1          =FILEDCNT   DS    A                   Count of active tasks
 00012C                             2583  1          =FILEDCN2   DS    H                   Count of 'throttle' waits
 00012E                             2584  1          =FILEDTS    DS    X                   Test and set lock
 00012F                             2585  1          =           DS    X                   Spare
 000130                             2586  1          =FILECRE    DS    A                   Files created
 000134                             2587  1          =           DS    9A                  Spare
 000158                00158 00158  2588             =         END
1FILEMAN  (FILEMA) (09:39) (22MAR04) ORVYL'S File Manager                                                                   Page   24
0Current Usings:  (PZERO,R0)
0Loc    Object Code    Addr1 Addr2  Stmt Lv Lineno    Source Statement           (Hibal 5, Asmedit 3.3)  HLASM R4.0  2004/03/22 09.39
+___    ______ ____    _____ _____  ____ __ ______    ______ _________
0                                   2598      24.              COPY  FBHDR
 000000                00000 00014  2599             =FBHDR    RECORD BEGIN
                                    2607  1          =*
                                    2608  1          =*  ORVYL File Block Header Field
                                    2609  1          =*
 000000                             2610  1          =FBHBLOCK   DS    AL3                     Block number in file system
 000003                             2611  1          =FBHTYPE    DS    AL1                     Block type
                                    2612  1          =
                                    2613  1          =FBHTFSMB   EQU   X'FF'                   File System Master Block
                                    2614  1          =FBHTCAT    EQU   X'80'                   Catalog
                                    2615  1          =FBHTBIT    EQU   X'40'                   Bit Map
                                    2616  1          =FBHTZIXR   EQU   X'10'                   ZIXR
                                    2617  1          =FBHTIXR    EQU   X'08'                   IXR
                                    2618  1          =FBHTSIXR   EQU   X'04'                   SIXR
                                    2619  1          =FBHTMIXR   EQU   X'02'                   MIXR
                                    2620  1          =FBHTUSER   EQU   X'01'                   User data block
                                    2621  1          =FBHTIXRT   EQU   FBHTIXR+FBHTSIXR+FBHTMIXR+FBHTZIXR
                                    2622  1          =FBHTBICA   EQU   FBHTCAT+FBHTBIT
                                    2623  1          =FBHTSYSR   EQU   FBHTIXRT+FBHTBICA
                                    2624  1          =
 000004                             2625  1          =           DS    AL2                     Reserved
 000006                             2626  1          =FBHLEN     DS    AL2                     User data length in block
 000008                             2627  1          =FBHTIME    DS    AL4                     Time (STCK) block written
                                    2628  1          =
                                    2629  1          =FBHDTLEN   EQU   *-FBHDR                 Saved header length (VDMP)
 00000C                             2630  1          =FBHAVAIL   DS    2AL4                    Available
 000014                00014 00014  2631             =         END   ,
1FILEMAN  (FILEMA) (09:39) (22MAR04) ORVYL'S File Manager                                                                   Page   25
0Current Usings:  (PZERO,R0)
0Loc    Object Code    Addr1 Addr2  Stmt Lv Lineno    Source Statement           (Hibal 5, Asmedit 3.3)  HLASM R4.0  2004/03/22 09.39
+___    ______ ____    _____ _____  ____ __ ______    ______ _________
0                                   2641      26.              COPY  FSB         File system control block (one per file sys)
 000000                00000 001E0  2642             =FSB      RECORD BEGIN
                                    2650  1          =CCAT0PCT   EQU   10                      % OF FREE BLOCKS FOR WARNING
                                    2651  1          =CCAT0MIN   EQU   60                      MIN FREE BEFORE WARNING
                                    2652  1          =CCAT1PCT   EQU   5                       % OF MIN LOGICAL FREE BLOCKS
                                    2653  1          =CCAT1MIN   EQU   60                      MIN FREE LOGICAL BLOCK NUM
                                    2654  1          =CCAT2PCT   EQU   1                       % OF MIN FREE BLOCKS
                                    2655  1          =CCAT2MIN   EQU   10                      MIN FREE BLOCK NUM
                                    2656  1          =
                                    2657  1          =CNODA99    EQU   72,72,C'N'              99th percentile
                                    2658  1          =CNODF99    EQU   65,65,C'N'              Non permit len, no per, max name
                                    2659  1          =
                                    2660  1          =CFSBFLSZ   EQU   40                      MAX FIL NAME LEN(DOTS, ~"ORV.")
                                    2661  1          =CFSBNDOT   EQU   38                      MAX FIL NAME LEN(~DOTS, ~"ORV.")
                                    2662  1          =CFSBNMSZ   EQU   33                      MAX NAME LEN TO SEARCH
                                    2663  1          =CFSBDBLK   EQU   3                       3 DOUBLE WRITE BLOCKS
                                    2664  1          =CFSBSTK    EQU   7                       STACK DEPTH OF 7
                                    2665  1          =CFSBMXNT   EQU   256+41                  MAX ENTRY LENGTH
                                    2666  1          =OBLKPL     EQU   3,3,C'N'                ORVYL FILE BLOCK POINTER LEN
                                    2667  1          =BL         EQU   2,2,C'N'                BLOCK POINTER LEN
                                    2668  1          =OL         EQU   2,2,C'N'                OFFSET POINTER LEN
                                    2669  1          =PL         EQU   BL+OL,BL+OL,C'N'        TOTAL POINTER LEN
                                    2670  1          =           GBLA  &BL,&L
                                    2671  1          =&BL        SETA  L'BL
                                    2672  1          =&L         SETA  L'PL                    TOTAL POINTER LENGTH
                                    2673  1          =*
                                    2674  1          =*  FILE SYSTEM BLOCK
                                    2675  1          =*
 000000 C6E2C240                    2676  1          =FSBBID     DC    CL4'FSB'                BLOCK ID
                                    2677  1          =
 000004                             2678  1          =FSBCHAIN   DS    A                       NEXT FSB ON CHAIN
                                    2679  1          =
 000008                             2680  1          =FSBID      DS    X                       FILE-SYSTEM ID NUMBER
                                    2681  1          =
 000009 00                          2682  1          =FSBAFLGS   FLAG  ,                       FILE-SYSTEM AVAILABILITY
 FSBAFLGS.FSBANAVL 80 ONES          2686  1          =           FLAG  FSBANAVL                NOT AVAILABLE
 FSBAFLGS.FSBARO   40 ONES          2691  1          =           FLAG  FSBARO                  READ-ONLY STATUS
 FSBAFLGS.FSBINIT  20 ONES          2696  1          =           FLAG  FSBINIT                 INITIALIZATION PROCESS
 FSBAFLGS.FSBCLOSE 10 ONES          2701  1          =           FLAG  FSBCLOSE                SHUTDOWN PROCESS
 FSBAFLGS.FSBCATNI 08 ONES          2706  1          =           FLAG  FSBCATNIN               CATALOG IN NoInsert MODE
 FSBAFLGS.FSBCATNL 04 ONES          2711  1          =           FLAG  FSBCATNLM               CATALOG IN NoLenMod MODE
                                    2716  1          =
 00000A 00                          2717  1          =FSBSFLGS   FLAG  ,                       FILE-SYSTEM STATUS
 FSBSFLGS.FSBSPROD 80 ONES          2721  1          =           FLAG  FSBSPROD                PRODUCTION FILE SYSTEM
 FSBSFLGS.FSBSABRO 40 ONES          2726  1          =           FLAG  FSBSABRO                ALLOW BATCH THOUGH R/O
 FSBSFLGS.FSBSTEMP 20 ONES          2731  1          =           FLAG  FSBSTEMP                DEDICATED TO TEMP FILES
                                    2736  1          =
 00000B 00                          2737  1          =FSBOFLGS   FLAG  ,                       FILE-SYSTEM OPTIONS
 FSBOFLGS.FSBONIXR 80 ONES          2741  1          =           FLAG  FSBONIXR                NON-IXR FILES ALLOWED
 FSBOFLGS.FSBFCACH 40 ONES          2746  1          =           FLAG  FSBFCACHE               Use file block caching
 FSBOFLGS.FSBHCACH 20 ONES          2751  1          =           FLAG  FSBHCACHE               Use hiperspace caching
                                    2756  1          =
 00000C                             2757  1          =FSBFRDB    DS    A                       FIRST RDB FOR FILE-SYSTEM
 000010                             2758  1          =FSBLRDB    DS    A                       LAST RDB FOR FILE-SYSTEM
1FILEMAN  (FILEMA) (09:39) (22MAR04) ORVYL'S File Manager                                                                   Page   26
0Current Usings:  (PZERO,R0)
0Loc    Object Code    Addr1 Addr2  Stmt Lv Lineno    Source Statement           (Hibal 5, Asmedit 3.3)  HLASM R4.0  2004/03/22 09.39
+___    ______ ____    _____ _____  ____ __ ______    ______ _________
0000014                             2759  1          =FSBDDN     DS    CL4                     DDNAME
 000018                             2760  1          =FSBNAME    DS    CL8                     FILE-SYSTEM NAME
 000020 C7C74BE4E4E4                2761  1          =FSBOWNER   DC    CL6'GG.UUU'             FILE-SYSTEM MASTER ACCOUNT
                                    2762  1          =
 000026                             2763  1          =           DS    XL2                     Spare
                                    2764  1          =
 000028                             2765  1          =FSBCGRI    DS    A                       Catalog general resource id
 00002C                             2766  1          =FSBRBT     DS    A                       Read Buffer Table Pointer
 000030                             2767  1          =FSBCACHE   DS    A                       Cache table pointer
 000034                             2768  1          =FSBCACHS   DS    A                       System cache table pointer
 000038                             2769  1          =           DS    A                       Spare
 00003C                             2770  1          =FSBAHFB    DS    A                       File attached hash table
 000040                             2771  1          =FSBIOP     DS    A                       File IO parm buffers
                                    2772  1          =*
                                    2773  1          =*  CATALOG MANAGEMENT AREA
                                    2774  1          =*
 000044                             2775  1          =FSBCATSB   DS    A                       CATALOGUE START BLOCK
 000048                             2776  1          =FSBCATBC   DS    A                       CATALOGUE BLOCK COUNT
                                    2777  1          =*SBBMALO DS    A   ** MOVE TO STATS ** ALLOCATION REQUESTS
                                    2778  1          =*SBBMALS DS    A   ** MOVE TO STATS ** ALLOCATION NOT CACHED
                                    2779  1          =*SBBMFRE DS    A   ** MOVE TO STATS ** BITMAP RELEASES
                                    2780  1          =*SBBMFRS DS    A   ** MOVE TO STATS ** BITMAP RELEASES - TO SYS
 00004C                             2781  1          =           DS    4A                      Available
                                    2782  1          =CFSBBL     EQU   4                       FSB BLOCK PTR LEN
                                    2783  1          =CFSBPL     EQU   8,8,C'N'                FSB POINTER LEN (BLOCK + ADDR)
                                    2784  1          =CFSBBUF    EQU   8,8,C'N'                8 CAT BLOCK BUFFERS ALLOWED
 00005C                             2785  1          =FSBBLKTOP   DS   A                       POINTS TO LAST BUFFER SLOT
 000060                             2786  1          =FSBCHKA    DS    A                       CHECK POINT BUFFER ADDRESS
 000064                             2787  1          =FSBROOTB   DS    A                       BLOCK NUMBER IN ROOT BUFFER
 000068                             2788  1          =FSBROOTA   DS    A                       | ADDRESS OF ROOT BUFFER
 00006C                             2789  1          =FSBBLK1    DS    A                       BLOCK NUMBER IN 1ST BUFFER
 000070                             2790  1          =FSBBUF1    DS    A                       | ADDRESS OF 1ST BUFFER
                                    2791  1          =&BUFLEN    SETA  (L'CFSBBUF-1)*L'CFSBPL
                                    2792  1          =           DS    &BUFLEN.X               | LEN OF REMAINING BUF SLOTS
 000074                                   1          +           DS    56X                     | LEN OF REMAINING BUF SLOTS
                                    2793  1          =*
                                    2794  1          =*  Catalog Balancing Parameters
                                    2795  1          =*
 0000AC                             2796  1          =FSBBALST   DS    0X
 0000AC                             2797  1          =FSBDSZ     DS    Y                       Size of disk block
 0000AE                             2798  1          =FSBDAVA    DS    Y                       Available space per block
 0000B0                             2799  1          =FSBDTAGX   DS    Y                       Offset of end tag in block
 0000B2                             2800  1          =FSBNALEN   DS    Y                       Account: Length of node
 0000B4                             2801  1          =FSBNASPA   DS    Y                       | Free space in node
 0000B6                             2802  1          =FSBTAXLN   DS    Y                       | Maximum length of entry
 0000B8                             2803  1          =FSBNAMXL   DS    Y                       | Max len of entry in node
 0000BA                             2804  1          =FSBNAXSP   DS    Y                       | Max free space per node
 0000BC                             2805  1          =FSBNANSP   DS    Y                       | Min free space per node
 0000BE                             2806  1          =FSBNFLEN   DS    Y                       File: Length of node
 0000C0                             2807  1          =FSBNFSPA   DS    Y                       | Free space in node
 0000C2                             2808  1          =FSBTFXLN   DS    Y                       | Maximum length of entry
 0000C4                             2809  1          =FSBNFMXL   DS    Y                       | Max len of entry in node
 0000C6                             2810  1          =FSBNFXSP   DS    Y                       | Max free space per node
 0000C8                             2811  1          =FSBNFNSP   DS    Y                       | Min free space per node
1FILEMAN  (FILEMA) (09:39) (22MAR04) ORVYL'S File Manager                                                                   Page   27
0Current Usings:  (PZERO,R0)
0Loc    Object Code    Addr1 Addr2  Stmt Lv Lineno    Source Statement           (Hibal 5, Asmedit 3.3)  HLASM R4.0  2004/03/22 09.39
+___    ______ ____    _____ _____  ____ __ ______    ______ _________
00000CA                             2812  1          =FSBTXXLN   DS    Y                       Max len of extended data entry
 0000CC                             2813  1          =FSBLOGFR   DS    Y                       Minimum logical block count
 0000CE                             2814  1          =FSBMNFRE   DS    Y                       Min num of free blks in Cat
                                    2815  1          =FSBBALLN   EQU   *-FSBBALST
                                    2816  1          =*
                                    2817  1          =*  BITMAP MANAGEMENT AREA
                                    2818  1          =*
 0000D0                             2819  1          =FSBBMCNO   DS    Y                       SPECIFIED CNT BLK# IN AVAIL LIST
 0000D4                             2820  1          =FSBBITSB   DS    A                       BIT MAP FIRST BLOCK
 0000D8                             2821  1          =FSBBITBC   DS    A                       BIT MAP BLOCK COUNT
 0000DC                             2822  1          =FSBABLK    DS    A                       NUMBER OF AVAILABLE BLOCKS
 0000E0                             2823  1          =FSBTBLK    DS    A                       TOTAL NUMBER OF BLOCKS
 0000E4                             2824  1          =FSBDBLK    DS    A                       DEFAULT BLOCK ALLOCATION
 0000E8                             2825  1          =FSBABNL    DS    A                       AVAILABLE BLOCK NUMBER LIST
                                    2826  1          =
 0000EC                             2827  1          =FSBSMF     DS    2A                      SMF STATISTICS WORK AREA
 0000F4                             2828  1          =FSBSTATS   DS    0X
 0000F4                             2829  1          =FSBCTRD    DS    F                       CATALOG READ COUNTER
 0000F8                             2830  1          =FSBCTRRD   DS    F                       CATALOG ROOT "READ" COUNTER
 0000FC                             2831  1          =FSBCTCRD   DS    F                       CATALOG CASHED READ COUNTER
 000100                             2832  1          =FSBCTBRD   DS    F                       CATALOG BALANCE READ COUNTER
 000104                             2833  1          =FSBCTWR    DS    F                       CATALOG WRITE COUNTER
 000108                             2834  1          =FSBCTIWR   DS    F                       CATALOG INTENTIONS WRITE CNT
 00010C                             2835  1          =FSBCTBWR   DS    F                       CATALOG BALANCE WRITE COUNTER
 000110                             2836  1          =FSBCTDWR   DS    F                       CATALOG DOUBLE WRITE COUNTER
                                    2837  1          =*
                                    2838  1          =*  Total IO's and IO time
                                    2839  1          =*
 000114                             2840  1          =FSBIOCT    DS    F                   Total I/O count
 000118                             2841  1          =FSBIOTIM   DS    D                   Total I/O time
                                    2842  1          =
 000120                             2843  1          =FSBCAT4K   DS    F                   Cat io 4K buffer (2K file sys only)
                                    2844  1          =
 000124                             2845  1          =CTFILATT   DS    F                   Number of files attached
 000128                             2846  1          =CTFILATM   DS    F                   | max number attached
 00012C                             2847  1          =CTFILAUS   DS    F                   Number of user attaches
 000130                             2848  1          =CTFILAUM   DS    F                   | max number of user attaches
 000134                             2849  1          =CTFILATP   DS    F                   Number of temp files attached
 000138                             2850  1          =CTFILAPM   DS    F                   | max number of temp files attached
000013C                             2852  1          =           DS    F                   Spare
                                    2853  1          =*
                                    2854  1          =* Note: don't modify the following counters in any way unless
                                    2855  1          =*       FILECB and the routine FDOIODO are also modified.
                                    2856  1          =*
                                    2857  1          =*  File read counts from disk
                                    2858  1          =*
 000140                             2859  1          =FSBFIOCT   DS    0D                  First IO count
 000140                             2860  1          =CTREADCT   DS    0D
 000140                             2861  1          =CTMASRCT   DS    D                   Master - read counts
 000148                             2862  1          =CTCATRCT   DS    D                   Catalog - read counts
 000150                             2863  1          =CTBITRCT   DS    D                   Bitmap - read counts
 000158                             2864  1          =CTIXRRCT   DS    D                   IXR - read counts
 000160                             2865  1          =CTUSERCT   DS    D                   User  - read counts
1FILEMAN  (FILEMA) (09:39) (22MAR04) ORVYL'S File Manager                                                                   Page   28
0Current Usings:  (PZERO,R0)
0Loc    Object Code    Addr1 Addr2  Stmt Lv Lineno    Source Statement           (Hibal 5, Asmedit 3.3)  HLASM R4.0  2004/03/22 09.39
+___    ______ ____    _____ _____  ____ __ ______    ______ _________
0000168                             2866  1          =CTOTHRCT   DS    D                   Other?? - read counts
                                    2867  1          =*
                                    2868  1          =* Counter indexes - All counters are referenced with the
                                    2869  1          =* generic label and using one of the following indexes.
                                    2870  1          =*
                                    2871  1          =CTMASD     EQU   CTMASRCT-CTREADCT
                                    2872  1          =CTCATD     EQU   CTCATRCT-CTREADCT
                                    2873  1          =CTBITD     EQU   CTBITRCT-CTREADCT
                                    2874  1          =CTIXRD     EQU   CTIXRRCT-CTREADCT
                                    2875  1          =CTUSED     EQU   CTUSERCT-CTREADCT
                                    2876  1          =CTOTHD     EQU   CTOTHRCT-CTREADCT
                                    2877  1          =*
                                    2878  1          =*  File write counts
                                    2879  1          =*
 000170                             2880  1          =CTWRITCT   DS    0D
 000170                             2881  1          =CTMASWCT   DS    D                   Master - writes
 000178                             2882  1          =CTCATWCT   DS    D                   Catalog - writes
 000180                             2883  1          =CTBITWCT   DS    D                   Bitmap -  writes
 000188                             2884  1          =CTIXRWCT   DS    D                   IXR - writes
 000190                             2885  1          =CTUSEWCT   DS    D                   User -  writes
 000198                             2886  1          =CTOTHWCT   DS    D                   Other?? - writes
                                    2887  1          =FSBFIOCN   EQU   (*-FSBFIOCT)/L'FSBFIOCT
                                    2888  1          =*
                                    2889  1          =*  File read counts from cache
                                    2890  1          =*
 0001A0                             2891  1          =FSBFCACT   DS    0D                  First cache count
 0001A0                             2892  1          =CTCACHCT   DS    0D
 0001A0                             2893  1          =CTMASCCT   DS    D                   Master - read counts
 0001A8                             2894  1          =CTCATCCT   DS    D                   Catalog - read counts
 0001B0                             2895  1          =CTBITCCT   DS    D                   Bitmap - read counts
 0001B8                             2896  1          =CTIXRCCT   DS    D                   IXR - read counts
 0001C0                             2897  1          =CTUSECCT   DS    D                   User  - read counts
 0001C8                             2898  1          =CTOTHCCT   DS    D                   Other?? - read counts
                                    2899  1          =
                                    2900  1          =CTREADD    EQU   CTREADCT-FSBFIOCT
                                    2901  1          =CTWRITD    EQU   CTWRITCT-FSBFIOCT
                                    2902  1          =CTCACHD    EQU   CTCACHCT-FSBFIOCT
                                    2903  1          =
                                    2904  1          =FSBFCACN   EQU   (*-FSBFCACT)/L'FSBFCACT
                                    2905  1          =CTFILECT   EQU   CTREADCT,*-CTREADCT
                                    2906  1          =CTFILECC   EQU   (*-CTREADCT)/L'CTREADCT
00001D0                             2908  1          =           DS    4A                  Spare
00001E0                001E0 001E0  2910             =         END   ,
1FILEMAN  (FILEMA) (09:39) (22MAR04) ORVYL'S File Manager                                                                   Page   29
0Current Usings:  (PZERO,R0)
0Loc    Object Code    Addr1 Addr2  Stmt Lv Lineno    Source Statement           (Hibal 5, Asmedit 3.3)  HLASM R4.0  2004/03/22 09.39
+___    ______ ____    _____ _____  ____ __ ______    ______ _________
0                                   2920      28.              COPY  ASB         Address space control block
 000000                00000 00044  2921             =ASB      RECORD BEGIN
 000000 C1E2C240                    2929  1          =ASBID      DC    CL4'ASB'
 000004                             2930  1          =ASBNEXT    DS    A                       Next ASB in system
                                    2931  1          =*
                                    2932  1          =*  Load Address Space Parameters area
                                    2933  1          =*
 000008                             2934  1          =ASBLASP    DS    0D                      Load Addr Space Parms
 000008                             2935  1          =ASBPKM     DS    H                       Program Key Mask
 00000A                             2936  1          =ASBSASN    DS    H                       Secondary ASN
 00000C                             2937  1          =ASBAX      DS    H                       Authorization index
 00000E                             2938  1          =ASBPASN    DS    H                       Primary ASN
                                    2939  1          =ASBLPARM   EQU   3                       LASP parameter
                                    2940  1          =
 000010                             2941  1          =ASBSASB    DS    A                       Address of secondary ASB
 000014 00                          2942  1          =ASBGCFLG   FLAG  ,
 ASBGCFLG.ASBFGBLC 80 ONES          2946  1          =           FLAG  ASBFGBLC                This is ASB for global/common
 000015                             2951  1          =           DS    3X                      - Available -
                                    2952  1          =*
                                    2953  1          =*  Related control blocks
                                    2954  1          =*
 000018                             2955  1          =ASBVSCT    DS    A                       VSCT for the Address space
 00001C                             2956  1          =ASBASDB    DS    A                       AS dispatching block
 000020                             2957  1          =ASBPAGB    DS    A                       AS paging block
 000024                             2958  1          =ASBIOB     DS    A                       AS I/O block
 000028                             2959  1          =ASBENQ     DS    A                       AS Enqueue table
 00002C                             2960  1          =ASBM1SCP   DS    A                       Mode 1 SCP
 000030                             2961  1          =ASBTCCB    DS    A                       Terminal Control block
 000034                             2962  1          =ASBAIB     DS    A                       Accouting information
 000038                             2963  1          =ASBASFB    DS    A                       File services control block
 00003C                             2964  1          =ASBMSTR    DS    A                       AS Master Control block
 000040                             2965  1          =ASBNET     DS    A                       Local Network Control Block
                                    2966  1          =*ASBLW    DS    A     ** Temp RESMAN ** Lock waiting for
                                    2967  1          =*ASBLH    DS    A     ** Temp RESMAN ** Lock held
 000044                00044 00044  2968             =         END   ,
1FILEMAN  (FILEMA) (09:39) (22MAR04) ORVYL'S File Manager                                                                   Page   30
0Current Usings:  (PZERO,R0)
0Loc    Object Code    Addr1 Addr2  Stmt Lv Lineno    Source Statement           (Hibal 5, Asmedit 3.3)  HLASM R4.0  2004/03/22 09.39
+___    ______ ____    _____ _____  ____ __ ______    ______ _________
0                                   2978      30.              COPY  NTRY
 000000                00000 00020  2979             =NTRY     RECORD BEGIN
                                    2987  1          =CNTAMXL    EQU    264                MAx len of account entry
                                    2988  1          =CNTFMXL    EQU    297                Max len of account entry
 000000                             2989  1          =           DS     0S(CFSBMXNT-CNTAMXL),0S(CFSBMXNT-CNTFMXL)
                                    2990  1          =CNTAMXSZ   EQU    5                  Maximum length of account name
                                    2991  1          =CNTFMXSZ   EQU    CFSBNMSZ           Maximum length of file name
                                    2992  1          =**
 000000                             2993  1          =NTRYSTRT   DS     0X
 000000                             2994  1          =NTRYLEN    DS     AL(OL)             Total length of entry
 000002                             2995  1          =NTRYOFFB   DS     AL(BL)             Offspring pointer (block)
 000004                             2996  1          =NTRYOFFN   DS     AL(OL)             = (offset)
 000006                             2997  1          =NTRYDATB   DS     AL(BL)             Data pointer (block)
 000008                             2998  1          =NTRYDATN   DS     AL(OL)             = (offset)
 00000A                             2999  1          =NTRYVAR    DS     0X
                                    3000  1          =*
                                    3001  1          =* FILE CATALOG ACCOUNT ENTRY
                                    3002  1          =*
 00000A                             3003  1          =NTGNAME    DS    XL(CNTAMXSZ)        Account
 00000F                             3004  1          =NTGMXSP    DS    XL3                 Max space allowed for account
 000012                             3005  1          =NTGUSSP    DS    XL3                 Space already used by account
 000015                             3006  1          =NTGFLRB    DS     AL(BL)             File root pointer (block)
 000017                             3007  1          =NTGFLRN    DS     AL(OL)             = (offset)
 000019 00                          3008  1          =NTGFLG     FLAG  ,                   Permits for public
 NTGFLG.NTGFRO     01 ONES          3012  1          =           FLAG  (NTGFRO,FRO)  (PUBLIC)        READ ONLY
 NTGFLG.NTGFRW     07 ONES          3021  1          =           FLAG  (NTGFRW,FRW)  (PUBLIC)        READ & WRITE
 NTGFLG.NTGFRP     03 ONES          3030  1          =           FLAG  (NTGFRP,FRP)  (PUBLIC)        READ & APPEND
 NTGFLG.NTGFAO     02 ONES          3039  1          =           FLAG  (NTGFAO,FAO)  (PUBLIC)        APPEND ONLY
 00001A                             3048  1          =NTGMEMBR   DS    0X                  Members start here
                                    3049  1          =NTRYGR     EQU    NTRYSTRT,*-NTRYSTRT,C'R'
                                    3050  1          =
 00001A                0001A 0000A  3051  1          =           ORG    NTRYVAR
                                    3052  1          =*
                                    3053  1          =* FILE CATALOG FILE ENTRY
                                    3054  1          =*
 00000A                             3055  1          =NTFLOC     DS    XL3                 Location of file index
 00000D                             3056  1          =NTFCNT     DS    XL3                 Number of blocks (non-ixr)
 000010 00                          3057  1          =NTFCODE    FLAG  ,                   File flags
 NTFCODE.NTFCLP    80 ONES          3061  1          =           FLAG  NTFCLP              Only clp can attach this file
 NTFCODE.NTFSFORM  40 ONES          3066  1          =           FLAG  NTFSFORM            User info is format data
 NTFCODE.NTFNOCLP  20 ONES          3071  1          =           FLAG  NTFNOCLP            Clp can't change this file
 NTFCODE.NTFNIXR   10 ONES          3076  1          =           FLAG  NTFNIXR             Non-ixr file
 NTFCODE.NTFSPI    08 ONES          3081  1          =           FLAG  NTFSPI              Only spires can attach file
 NTFCODE.NTFHYBR   04 ONES          3086  1          =           FLAG  NTFHYBR             IXR/Non-IXR hybrid file type
 000011 00                          3091  1          =NTFFLGP    FLAG  ,                   Permits for public
 NTFFLGP.NTFPFRO   01 ONES          3095  1          =           FLAG  (NTFPFRO,FRO)  (PUBLIC)       READ ONLY
 NTFFLGP.NTFPFRW   07 ONES          3104  1          =           FLAG  (NTFPFRW,FRW)  (PUBLIC)       READ & WRITE
 NTFFLGP.NTFPFRP   03 ONES          3113  1          =           FLAG  (NTFPFRP,FRP)  (PUBLIC)       READ & APPEND
 NTFFLGP.NTFPFAO   02 ONES          3122  1          =           FLAG  (NTFPFAO,FAO)  (PUBLIC)       APPEND ONLY
 NTFFLGP.NTFPSHR   10 ONES          3131  1          =           FLAG  (NTFPSHR,FSHR) (PUBLIC)       SHARE ONLY
 000012 00                          3140  1          =NTFFLGO    FLAG  ,                   Permits for owner
 NTFFLGO.NTFOFRO   01 ONES          3144  1          =           FLAG  (NTFOFRO,FRO)  (OWNER)        READ ONLY
 NTFFLGO.NTFOFRW   07 ONES          3153  1          =           FLAG  (NTFOFRW,FRW)  (OWNER)        READ & WRITE
 NTFFLGO.NTFOFAO   02 ONES          3162  1          =           FLAG  (NTFOFAO,FAO)  (OWNER)        APPEND ONLY
1FILEMAN  (FILEMA) (09:39) (22MAR04) ORVYL'S File Manager                                                                   Page   31
0Current Usings:  (PZERO,R0)
0Loc    Object Code    Addr1 Addr2  Stmt Lv Lineno    Source Statement           (Hibal 5, Asmedit 3.3)  HLASM R4.0  2004/03/22 09.39
+___    ______ ____    _____ _____  ____ __ ______    ______ _________
0NTFFLGO.NTFOFRP   03 ONES          3171  1          =           FLAG  (NTFOFRP,FRP)  (OWNER)        READ & APPEND
 000013                             3180  1          =NTFCRDT    DS    XL4                 Creation date & time
 000017                             3181  1          =NTFLSDT    DS    XL4                 Last reference date & time
 00001B                             3182  1          =NTFUINFO   DS    XL4                 User info - set by control 14
 00001F                             3183  1          =NTFLNMSZ   DS    X                   Length of file name
 000020                             3184  1          =NTFLNAME   DS    0X                  File name here
                                    3185  1          =NTRYFL     EQU    NTRYSTRT,*-NTRYSTRT,C'R'
                                    3186  1          =*        MEMBERS START HERE AFTER FILE NAME
 000020                00020 00020  3187             =         END   ,
-000000                00000 00002  3197             =NTRYXTND RECORD BEGIN
 000000                             3205  1          =NTRYXST    DS     0X                 Start of extended_data
 000000                             3206  1          =NTRYXLEN   DS     AL(OL)             Len of extended_data entry
                                    3207  1          =CNTXFXLN   EQU    *-NTRYXST          Fixed overhead length
 000002                             3208  1          =NTRYXPER   DS     0X                 Permits start here
 000002                00002 00002  3209             =         END    ,
0000000                00000 00007  3219             =NTRYPR   RECORD BEGIN
                                    3227  1          =*
                                    3228  1          =* FILE CATALOG PERMIT ENTRY
                                    3229  1          =*      APPENDED TO ACCOUNT AND FILE ENTRYS
                                    3230  1          =*
 000000                             3231  1          =NTPNAME    DS    XL6                     PERMIT MEMBER ACCOUNT
 000006 00                          3232  1          =NTPFLG     FLAG  ,                       PERMIT FLAGS
 NTPFLG.NTPFRO     01 ONES          3236  1          =           FLAG  (NTPFRO,FRO)                  READ ONLY
 NTPFLG.NTPFRW     07 ONES          3245  1          =           FLAG  (NTPFRW,FRW)                  READ & WRITE
 NTPFLG.NTPFRP     03 ONES          3254  1          =           FLAG  (NTPFRP,FRP)                  READ & APPEND
 NTPFLG.NTPFAO     02 ONES          3263  1          =           FLAG  (NTPFAO,FAO)                  APPEND ONLY
 NTPFLG.NTPFAC     08 ONES          3272  1          =           FLAG  (NTPFAC,FAC)                  PERMIT ACCESS
 000007                00007 00007  3281             =         END   ,
1FILEMAN  (FILEMA) (09:39) (22MAR04) ORVYL'S File Manager                                                                   Page   32
0Current Usings:  (PZERO,R0)
0Loc    Object Code    Addr1 Addr2  Stmt Lv Lineno    Source Statement           (Hibal 5, Asmedit 3.3)  HLASM R4.0  2004/03/22 09.39
+___    ______ ____    _____ _____  ____ __ ______    ______ _________
0                                   3291      32.              COPY  FILEPARM
                                    3292             =*****************************************************************
                                    3293             =*                                                               *
                                    3294             =*  FILEPARM -- Parameters dealing with FILE SVC I/O.            *
                                    3295             =*                                                               *
                                    3296             =*****************************************************************
-                                   3298             =*
                                    3299             =*  M1FILE  --  Mode 1 file operation
                                    3300             =*
                                    3301             =*  RVR =  0 all ok
                                    3302             =*           wait user flags indicate which wait regs to set if any
                                    3303             =*  RVR <> 0 if   panic word <> 0, panic user
                                    3304             =*           else return registers
                                    3305             =*
0000000                00000 00029  3307             =@M1FILE  RECORD BEGIN
 000000                             3315  1          =@M1FR14    DS    A             Contents of R14 at SVC time
 000004                             3316  1          =@M1FR15    DS    A             Contents of R15 at SVC time
 000008                             3317  1          =@M1FR00    DS    A             Contents of R0  at SVC time
 00000C                             3318  1          =@M1FR01    DS    A             Contents of R1  at SVC time
                                    3319  1          =@M1FREG    EQU   @M1FR14,*-@M1FR14
0000010                             3321  1          =@M1FWR14   DS    A             Wait return registers
 000014                             3322  1          =@M1FWR15   DS    A             These are set at SVC time when
 000018                             3323  1          =@M1FWR01   DS    A             be used to set the return registers
000001C                             3325  1          =@M1FRQID   DS    A             Request ID (IDT)
 000020                             3326  1          =@M1FDVID   DS    A             Request block id (RQFB)
                                    3327  1          =
 000024                             3328  1          =@M1FILID   DS    X             File ID (IDT index)
                                    3329  1          =
 000025 00                          3330  1          =@M1FLAG    FLAG  ,
 @M1FLAG.@M1FCLP   80 ONES          3334  1          =           FLAG  @M1FCLP       CLP attach
 @M1FLAG.@M1FSPI   40 ONES          3339  1          =           FLAG  @M1FSPI       Spires attached
 @M1FLAG.@M1FM31   20 ONES          3344  1          =           FLAG  @M1FM31       User in 31 bit mode
0000026                             3350  1          =@M1FPKEY   DS    X             PSW key of requestor
0000027                             3352  1          =@M1FPRIV   DS    X             Signed on privileges
0000028 00                          3354  1          =@M1FTYPE   FLAG  ,             I/O type
 @M1FTYPE.@M1FATCH 04 EQ            3358  1          =           FLAG  (@M1FATCH,4,EQ)   Attach
 @M1FTYPE.@M1FREAD 08 EQ            3368  1          =           FLAG  (@M1FREAD,8,EQ)   Read
 @M1FTYPE.@M1FWRIT 0C EQ            3378  1          =           FLAG  (@M1FWRIT,12,EQ)  Write
 @M1FTYPE.@M1FCONT 10 EQ            3388  1          =           FLAG  (@M1FCONT,16,EQ)  Control
 @M1FTYPE.@M1FSTAT 14 EQ            3398  1          =           FLAG  (@M1FSTAT,20,EQ)  Status
 @M1FTYPE.@M1FDTCH 18 EQ            3408  1          =           FLAG  (@M1FDTCH,24,EQ)  Detach
 @M1FTYPE.@M1FRSRV 1C EQ            3418  1          =           FLAG  (@M1FRSRV,28,EQ)  Reserve
 @M1FTYPE.@M1FRLSE 20 EQ            3428  1          =           FLAG  (@M1FRLSE,32,EQ)  Release
 000029                00029 00029  3438             =         END   ,
1FILEMAN  (FILEMA) (09:39) (22MAR04) ORVYL'S File Manager                                                                   Page   33
0Current Usings:  (PZERO,R0)
0Loc    Object Code    Addr1 Addr2  Stmt Lv Lineno    Source Statement           (Hibal 5, Asmedit 3.3)  HLASM R4.0  2004/03/22 09.39
+___    ______ ____    _____ _____  ____ __ ______    ______ _________
0                                   3448             =*
                                    3449             =*   M1FPOST -- This area maps the parm area of the FILE
                                    3450             =*              I/O complete exit.
                                    3451             =*
-000000                00000 00010  3453             =@M1FPOST RECORD BEGIN
 000000                             3461  1          =@M1FPRQI   DS    A             Request id (IDT)
                                    3462  1          =@M1FREDV   EQU   X'80'         Free the device please
 000004                             3463  1          =@M1FPR14   DS    A             Value of R14 to be returned to user
 000008                             3464  1          =@M1FPR15   DS    A             Value of R15 to be returned to user
 00000C                             3465  1          =@M1FPR01   DS    A             Value of R1 to be returned to user
 000010                00010 00010  3466             =         END   ,
-                                   3476             =*
                                    3477             =*  @FILEBLKI -- This area maps the parm area of the FILE
                                    3478             =*               system info area
                                    3479             =*
-000000                00000 00025  3481             =@FILEBLKI RECORD BEGIN                 File system block information
 000000                             3489  1          =@FILFSID   DS    A                       File system ID
                                    3490  1          =* -- Return Parameters --
 000004                             3491  1          =@FILTBLK   DS    A                       Total blocks in file system
 000008                             3492  1          =@FILABLK   DS    A                       Available blocks in file sys
 00000C                             3493  1          =@FILUMAX   DS    A                       Maximum user block allocation
 000010                             3494  1          =@FILNAME   DS    CL8                     File system name
 000018                             3495  1          =@FILCACT   DS    D                   Number of cache reads
 000020                             3496  1          =@FILIOCT   DS    F                   Number of I/O's
 000024 00                          3497  1          =@FILFLAG   FLAG  ,
 @FILFLAG.@FILFNA  80 ONES          3501  1          =           FLAG  @FILFNA                 Not available
 @FILFLAG.@FILFRO  40 ONES          3506  1          =           FLAG  @FILFRO                 Read only
 @FILFLAG.@FILFCAC 20 ONES          3511  1          =           FLAG  @FILFCACHE              File caching is enabled
 @FILFLAG.@FILF4K  10 ONES          3516  1          =           FLAG  @FILF4K                 4K file system
 000025                00025 00025  3521             =         END   ,
-                                   3531             =*
                                    3532             =*  @FILINFO -- This area maps the parm area of the individual
                                    3533             =*              file information area.
                                    3534             =*
-000000                00000 00036  3536             =@FMFINFO RECORD BEGIN
 000000                             3544  1          =@FMFIDID   DS    A                       Address of this file's ID
                                    3545  1          =*  Returned parameters
 000004                             3546  1          =@FMFIBLK   DS    A                       Number of blocks in file
 000008                             3547  1          =@FMFIPRI   DS    X                       File privileges
 000009 00                          3548  1          =@FMFIFLG   FLAG  ,
 @FMFIFLG.@FMFISHR 80 ONES          3552  1          =           FLAG  @FMFISHR                Shared file
 @FMFIFLG.@FMFIRSV 40 ONES          3557  1          =           FLAG  @FMFIRSV                Reserved
 @FMFIFLG.@FMFITMP 20 ONES          3562  1          =           FLAG  @FMFITMP                Temporary
 @FMFIFLG.@FMFINIX 10 ONES          3567  1          =           FLAG  @FMFINIX                Non-IXRed
1FILEMAN  (FILEMA) (09:39) (22MAR04) ORVYL'S File Manager                                                                   Page   34
0Current Usings:  (PZERO,R0)
0Loc    Object Code    Addr1 Addr2  Stmt Lv Lineno    Source Statement           (Hibal 5, Asmedit 3.3)  HLASM R4.0  2004/03/22 09.39
+___    ______ ____    _____ _____  ____ __ ______    ______ _________
0@FMFIFLG.@FMFIATT 08 ONES          3572  1          =           FLAG  @FMFIATT                File being attached
 @FMFIFLG.@FMFIHYB 04 ONES          3577  1          =           FLAG  @FMFIHYB                Hybrid file
 00000A                             3582  1          =@FMFINAM   DS    CL44                    File name
 000036                00036 00036  3583             =         END   ,
-                                   3593             =*
                                    3594             =*  @FILEHALT -- This maps the parm area of the file HALT service
                                    3595             =*
-000000                00000 00004  3597             =@FILEHALT RECORD BEGIN
 000000                             3605  1          =@FHRQID    DS    A                       Request ID to be halted (RQB)
 000004                00004 00004  3606             =         END   ,
0000000                00000 00004  3616             =@FMRQFB  RECORD BEGIN
 000000                             3624  1          =@FMRQFBP   DS    A
 000004                00004 00004  3625             =         END   ,
-000000                00000 00005  3636             =@FMFSB  RECORD BEGIN
 000000                             3644  1          =@FMFSBP    DS    A
 000004 00                          3645  1          =@FMFSBF    FLAG  ,
 @FMFSBF.@FMFSBO   80 ONES          3649  1          =           FLAG  @FMFSBO             Flag is on
 000005                00005 00005  3654             =         END   ,
0000000                00000 00010  3664             =@FDOIODO RECORD BEGIN              IO read/write routine
 000000                             3672  1          =@FDOFSB    DS    A                   FSB address
 000004                             3673  1          =@FDOBLK    DS    A                   Block number
 000008                             3674  1          =@FDODATA   DS    A                   Data address
 00000C                             3675  1          =@FDODATL   DS    H                   Data length
 00000E                             3676  1          =@FDOTYPE   DS    X                   Block type
 00000F 00                          3677  1          =@FDOFLAG   FLAG  ,
 @FDOFLAG.@FDOFR   80 ONES          3681  1          =           FLAG  @FDOFR              Read
 @FDOFLAG.@FDOFW   40 ONES          3686  1          =           FLAG  @FDOFW              Write
 @FDOFLAG.@FDOFUSE 20 ONES          3691  1          =           FLAG  @FDOFUSE            User record IO
 @FDOFLAG.@FDOS106 10 ONES          3696  1          =           FLAG  @FDOS106            Status 106, read real block
 @FDOFLAG.@FDOS115 08 ONES          3701  1          =           FLAG  @FDOS115            Status 115, read block header
 @FDOFLAG.@FDODISK 04 ONES          3706  1          =           FLAG  @FDODISK            Read from disk, not cache
 000010                00010 00010  3711             =         END   ,
0000000                00000 00008  3721             =@FSADDV RECORD BEGIN
 000000                             3729  1          =@FSADDVF   DS    A                   File system name pointer
 000004                             3730  1          =@FSADDVD   DS    A                   DSN name pointer
 000008                00008 00008  3731             =         END   ,
1FILEMAN  (FILEMA) (09:39) (22MAR04) ORVYL'S File Manager                                                                   Page   35
0Current Usings:  (PZERO,R0)
0Loc    Object Code    Addr1 Addr2  Stmt Lv Lineno    Source Statement           (Hibal 5, Asmedit 3.3)  HLASM R4.0  2004/03/22 09.39
+___    ______ ____    _____ _____  ____ __ ______    ______ _________
0                                   3741      34.              COPY  FCATPARM
 000000                00000 00038  3742             =@FMIXRAD RECORD BEGIN
 000000                             3750  1          =@FMIXFSB   DS    A                   FSB address
 000004                             3751  1          =@FMIXNAM   DS    CL(CFSBFLSZ)        File
 00002C                             3752  1          =@FMIXBLK   DS    F                   First block number
 000030                             3753  1          =@FMIXCNT   DS    F                   Count of blocks
 000034                             3754  1          =@FMIXEXT   DS    F                   Extend starting here
 000038                00038 00038  3755             =         END   ,
0000000                00000 0003E  3765             =@FCPERM  RECORD BEGIN              Permits for attach
 000000                             3773  1          =@FCPFSB    DS    A                   FSB address
 000004                             3774  1          =@FCPBLK    DS    A                   Return first block
 000008                             3775  1          =@FCPBLKC   DS    A                   Number of blocks (non-IXRd)
 00000C 00                          3776  1          =@FCPFLAG   FLAG  ,
 @FCPFLAG.@FCPFMAG 80 ONES          3780  1          =           FLAG  @FCPFMAG            Magic account
 @FCPFLAG.@FCPFNAX 40 ONES          3785  1          =           FLAG  @FCPFNAX            Don't update access date
 00000D                             3790  1          =@FCPACC    DS    CL(GRSZ)            Account
 000013                             3791  1          =@FCPNAME   DS    CL(CFSBFLSZ)        File name
 00003B                             3792  1          =@FCPFLGO   DS    XL1                 File mask
 00003C                             3793  1          =@FCPPERM   DS    XL1                 Return permits
 00003D                             3794  1          =@FCPCODE   DS    XL1                 Return flags
 00003E                0003E 0003E  3795             =         END   ,
0000000                00000 0003B  3805             =@FCNIXR  RECORD BEGIN              Add a non-IXR file
 000000                             3813  1          =@FCNFSB    DS    A                   FSB address
 000004                             3814  1          =@FCNBLKC   DS    A                   Number of blocks
 000008                             3815  1          =@FCNFBLK   DS    A                   First block of range (returned)
 00000C 00                          3816  1          =@FCNFLAG   FLAG  ,
 @FCNFLAG.@FCNFMAG 80 ONES          3820  1          =           FLAG  @FCNFMAG            Magic account
 @FCNFLAG.@FCNFHYB 40 ONES          3825  1          =           FLAG  @FCNFHYB            Hybrid file
 00000D                             3830  1          =@FCNACC    DS    CL(GRSZ)            Account
 000013                             3831  1          =@FCNNAME   DS    CL(CFSBFLSZ)        File name
 00003B                0003B 0003B  3832             =         END   ,
0000000                00000 00041  3842             =@FCFINFO RECORD BEGIN              File information
 000000                             3850  1          =@FCFFSB    DS    A                   FSB address
 000004                             3851  1          =@FCFNAM    DS    CL(CFSBFLSZ)        File name
 00002C                             3852  1          =@FCFINF    DS    CL(NTFLNMSZ-NTFLOC) Select file info from catalog
 000041                00041 00041  3853             =         END   ,
0000000                00000 0000A  3863             =@FCAVALI RECORD BEGIN              Account validate
 000000                             3871  1          =@FCAVFSB   DS    A                   FSB address
 000004                             3872  1          =@FCAVNAM   DS    CL(GRSZ)            Account name
 00000A                0000A 0000A  3873             =         END   ,
0000000                00000 0003A  3883             =@FCASACC RECORD BEGIN              Assign Account level file privileges
 000000                             3891  1          =@FCASFSB   DS    A                   FSB address
 000004                             3892  1          =@FCASUSR   DS    CL(GRSZ)            User receiving privileges
 00000A                             3893  1          =@FCASUSE   DS    CL(GRSZ)            User extending privileges
 000010                             3894  1          =@FCASUSO   DS   0CL(GRSZ)            File owner
                                    3895  1          =*                                  Note: USC and USB may be the same
 000010                             3896  1          =@FCASNAM   DS    CL(CFSBFLSZ)        File name
 000038                             3897  1          =@FCASPRI   DS    X                   Privileges to be extended
 000039 00                          3898  1          =@FCASFLG   FLAG  ,
1FILEMAN  (FILEMA) (09:39) (22MAR04) ORVYL'S File Manager                                                                   Page   36
0Current Usings:  (PZERO,R0)
0Loc    Object Code    Addr1 Addr2  Stmt Lv Lineno    Source Statement           (Hibal 5, Asmedit 3.3)  HLASM R4.0  2004/03/22 09.39
+___    ______ ____    _____ _____  ____ __ ______    ______ _________
0@FCASFLG.@FCASFM  80 ONES          3902  1          =           FLAG  @FCASFM             Magic user
 00003A                0003A 0003A  3907             =         END   ,
0000000                00000 00018  3917             =@FCXTND  RECORD BEGIN              Extend global file privileges
 000000                             3925  1          =@FCXFSB    DS    A                   FSB address
 000004                             3926  1          =@FCXUSR    DS    CL(GRSZ)            User receiving privileges
 00000A                             3927  1          =@FCXUSO    DS    CL(GRSZ)            File owner
 000010                             3928  1          =@FCXUSE    DS    CL(GRSZ)            User extending privileges
                                    3929  1          =*                                  Note: USC and USB may be the same
 000016                             3930  1          =@FCXPRI    DS    X                   Privileges to be extended
 000017 00                          3931  1          =@FCXFLG    FLAG  ,
 @FCXFLG.@FCXFM    80 ONES          3935  1          =           FLAG  @FCXFM              Magic user
 000018                00018 00018  3940             =         END   ,
0000000                00000 00047  3950             =@FCGPERM RECORD BEGIN              Get Access privileges
 000000                             3958  1          =@FCGPFSB   DS    A                   FSB address
 000004                             3959  1          =@FCGPLOC   DS    A                   Entry buffer
 000008                             3960  1          =@FCGPLEN   DS    A                   Length of entry buffer
 00000C                             3961  1          =@FCGPCNT   DS    A                   Count of entries (returned)
 000010 00                          3962  1          =@FCGPFLG   FLAG  ,
 @FCGPFLG.@FCGPFF  80 ONES          3966  1          =           FLAG  @FCGPFF             File privileges
 @FCGPFLG.@FCGPFA  40 ONES          3971  1          =           FLAG  @FCGPFA             Account privileges
 @FCGPFLG.@FCGPFM  20 ONES          3976  1          =           FLAG  @FCGPFM             Magic user
 000011                             3981  1          =@FCGPPP    DS    XL1                 Public privileges
 000012                             3982  1          =@FCGPMS    DS    XL1                 File mask (File only)
0000013                             3984  1          =@FCGPUSE   DS    CL(GRSZ)            Signed on user (Acc only)
 000019                             3985  1          =@FCGPACC   DS    CL(GRSZ)            Account (Acc only)
 00001F                             3986  1          =@FCGPNAM   DS    CL(CFSBFLSZ)        File name (File only)
 000047                00047 00047  3987             =         END   ,
0000000                00000 0000B  3997             =@FCEPUB  RECORD BEGIN              Extend public permits
 000000                             4005  1          =@FCEPFSB   DS    A
 000004                             4006  1          =@FCEPACC   DS    CL(GRSZ)            Account extending permits
 00000A                             4007  1          =@FCEPPUB   DS    X                   Public permits to extend
 00000B                0000B 0000B  4008             =         END   ,
0000000                00000 00018  4018             =@FCAINFO RECORD BEGIN              Get Account Info
 000000                             4026  1          =@FCAIFSB   DS    A                   FSB address
 000004                             4027  1          =@FCAIACC   DS    CL(GRSZ)            Account
 00000A                             4028  1          =@FCAIUSE   DS    CL(GRSZ)            Signed on user (if different)
 000010                             4029  1          =@FCAIABK   DS    A                   Allocated blocks
 000014                             4030  1          =@FCAIUBK   DS    A                   Used blocks
 000018                00018 00018  4031             =         END   ,
0000000                00000 0003F  4041             =@FCFLIS  RECORD BEGIN              List file names
 000000                             4049  1          =@FCFLFSB   DS    A
 000004                             4050  1          =@FCFLLOC   DS    A                   Output location
 000008                             4051  1          =@FCFLLEN   DS    A                   Output location length
 00000C                             4052  1          =@FCFLCNT   DS    A                   Count of files listed
 000010 00                          4053  1          =@FCFLFLG   FLAG  ,
 @FCFLFLG.@FCFLCLP 80 ONES          4057  1          =           FLAG  @FCFLCLP            CLP request
 000011                             4062  1          =@FCFLUSE   DS    CL(GRSZ)            Account other than owner
 000017                             4063  1          =@FCFLNAM   DS    CL(CFSBFLSZ)        Start file name
1FILEMAN  (FILEMA) (09:39) (22MAR04) ORVYL'S File Manager                                                                   Page   37
0Current Usings:  (PZERO,R0)
0Loc    Object Code    Addr1 Addr2  Stmt Lv Lineno    Source Statement           (Hibal 5, Asmedit 3.3)  HLASM R4.0  2004/03/22 09.39
+___    ______ ____    _____ _____  ____ __ ______    ______ _________
000003F                0003F 0003F  4064             =         END   ,
0000000                00000 00016  4074             =@FCALIS  RECORD BEGIN              List account names
 000000                             4082  1          =@FCALFSB   DS    A
 000004                             4083  1          =@FCALLOC   DS    A                   Output location
 000008                             4084  1          =@FCALLEN   DS    A                   Output location length
 00000C                             4085  1          =@FCALCNT   DS    A                   Count of files listed
 000010                             4086  1          =@FCALNAM   DS    CL(GRSZ)            Start account name
 000016                00016 00016  4087             =         END   ,
0000000                00000 0000E  4097             =@FCACMOD RECORD BEGIN              Account modifications
 000000                             4105  1          =@FCACFSB   DS    A
 000004                             4106  1          =@FCACSPA   DS    F                   Space
 000008                             4107  1          =@FCACCNT   DS    CL(GRSZ)            Account
 00000E                0000E 0000E  4108             =         END   ,
0000000                00000 00034  4118             =@FCS111  RECORD BEGIN              Status 111, get acc or fil entry
 000000                             4126  1          =@FCS1FSB   DS    A
 000004                             4127  1          =@FCS1LOC   DS    A                   Output location
 000008                             4128  1          =@FCS1LEN   DS    A                   Output location length
 00000C                             4129  1          =@FCS1NAM   DS    CL(CFSBFLSZ)        Account or file name
 000034                00034 00034  4130             =         END   ,
0000000                00000 0004D  4140             =@FCRNAME RECORD BEGIN              Rename files
 000000                             4148  1          =@FCRNFSB   DS    A
 000004                             4149  1          =@FCRNAM1   DS    CL(CFSBFLSZ)        File name
 00002C                             4150  1          =@FCRNAM2   DS    CL(CFSBNMSZ)        New file name
 00004D                0004D 0004D  4151             =         END   ,
0000000                00000 0002C  4161             =@FCDLETE RECORD BEGIN              Rename files
 000000                             4169  1          =@FCDLFSB   DS    A
 000004                             4170  1          =@FCDLNAM   DS    CL(CFSBFLSZ)        File name
 00002C                0002C 0002C  4171             =         END   ,
0000000                00000 0003A  4181             =@FCUINFO RECORD BEGIN              Update File Info
 000000                             4189  1          =@FCUIFSB   DS    A
 000004                             4190  1          =@FCUINAM   DS    CL(CFSBFLSZ)        File name
 00002C                             4191  1          =@FCUINF    DS    CL(L'NTFUINFO)      User info
 000030                             4192  1          =@FCUIBLK   DS    F                   First block
 000034                             4193  1          =@FCUICNT   DS    F                   Block count
 000038 00                          4194  1          =@FCUIFLG   FLAG  ,
 @FCUIFLG.@FCUIUIN 80 ONES          4198  1          =           FLAG  @FCUIUIN            Update user info
 @FCUIFLG.@FCUIFRM 40 ONES          4203  1          =           FLAG  @FCUIFRM            Set format on
 @FCUIFLG.@FCUIOWN 20 ONES          4208  1          =           FLAG  @FCUIOWN            Update owner privileges
 @FCUIFLG.@FCUIPUB 10 ONES          4213  1          =           FLAG  @FCUIPUB            Update public privileges
 @FCUIFLG.@FCUISHR 08 ONES          4218  1          =           FLAG  @FCUISHR            Set share info
 @FCUIFLG.@FCUISHO 04 ONES          4223  1          =           FLAG  @FCUISHO            Set share on
 000039 00                          4228  1          =@FCUIFL2   FLAG  ,
 @FCUIFL2.@FCUINCL 80 ONES          4232  1          =           FLAG  @FCUINCL            Set NOCLP info
 @FCUIFL2.@FCUINCO 40 ONES          4237  1          =           FLAG  @FCUINCO            Set NOCLP on
 @FCUIFL2.@FCUICLP 20 ONES          4242  1          =           FLAG  @FCUICLP            Set CLP info
 @FCUIFL2.@FCUICLO 10 ONES          4247  1          =           FLAG  @FCUICLO            Set CLP on
 @FCUIFL2.@FCUISPI 08 ONES          4252  1          =           FLAG  @FCUISPI            Set Spires info
 @FCUIFL2.@FCUISPO 04 ONES          4257  1          =           FLAG  @FCUISPO            Set Spires on
1FILEMAN  (FILEMA) (09:39) (22MAR04) ORVYL'S File Manager                                                                   Page   38
0Current Usings:  (PZERO,R0)
0Loc    Object Code    Addr1 Addr2  Stmt Lv Lineno    Source Statement           (Hibal 5, Asmedit 3.3)  HLASM R4.0  2004/03/22 09.39
+___    ______ ____    _____ _____  ____ __ ______    ______ _________
0@FCUIFL2.@FCUIHYB 02 ONES          4262  1          =           FLAG  @FCUIHYB            Convert to hybrid
 @FCUIFL2.@FCUINEW 01 ONES          4267  1          =           FLAG  @FCUINEW            Set new first block
 00003A                0003A 0003A  4272             =         END   ,
1FILEMAN  (FILEMA) (09:39) (22MAR04) ORVYL'S File Manager                                                                   Page   39
0Current Usings:  (PZERO,R0)
0Loc    Object Code    Addr1 Addr2  Stmt Lv Lineno    Source Statement           (Hibal 5, Asmedit 3.3)  HLASM R4.0  2004/03/22 09.39
+___    ______ ____    _____ _____  ____ __ ______    ______ _________
0                                   4283      36.              COPY  LOCKPARM
                                    4284             =*******************************************************************
                                    4285             =*                                                                 *
                                    4286             =*    LOCKPARM - Lock routine calling parms                        *
                                    4287             =*                                                                 *
                                    4288             =*******************************************************************
0000000                00000 00011  4290             =@LOCKCRE RECORD BEGIN
 000000                             4298  1          =@LOCKNAM   DS    CL16          Name of the lock
 000010 00                          4299  1          =@LOCKFL    FLAG  ,
 @LOCKFL.@LFSPIN   80 ONES          4303  1          =           FLAG  @LFSPIN       Spin type lock
 000011                00011 00011  4308             =         END   ,
                                    4317             =*
 000000                00000 00004  4318             =@LOCKS   RECORD BEGIN
 000000                             4326  1          =@LOCKID    DS    A             Lock id
 000004                00004 00004  4327             =         END   ,
1FILEMAN  (FILEMA) (09:39) (22MAR04) ORVYL'S File Manager                                                                   Page   40
0Current Usings:  (PZERO,R0)
0Loc    Object Code    Addr1 Addr2  Stmt Lv Lineno    Source Statement           (Hibal 5, Asmedit 3.3)  HLASM R4.0  2004/03/22 09.39
+___    ______ ____    _____ _____  ____ __ ______    ______ _________
0                                   4337      38.              COPY  PAGEPARM
                                    4338             =*
                                    4339             =*  Page fault return codes
                                    4340             =*
                                    4341             =@PFRINP  EQU   0                       Fault in progress
                                    4342             =@PFRADDR EQU   4                       Addressing exception
                                    4343             =@PFROK   EQU   8                       Fault resolved
                                    4344             =@PFRWAIT EQU   12                      Must wait for some resource
0000000                00000 00005  4346             =@PAGSWAP RECORD BEGIN
 000000                             4354  1          =@SWASB     DS    A                       Address of ASB being swapped
                                    4355  1          =* -- Return parameters --
 000004 00                          4356  1          =@SWFLG     FLAG  ,
 @SWFLG.@SWFINP    00 EQ            4360  1          =           FLAG  (@SWFINP,0,EQ)          Swap in progress
 @SWFLG.@SWFOK     04 EQ            4370  1          =           FLAG  (@SWFOK,4,EQ)           Swap done now
 @SWFLG.@SWFWAIT   08 EQ            4380  1          =           FLAG  (@SWFWAIT,8,EQ)         Must wait for some resource
 000005                00005 00005  4390             =         END   ,
0000000                00000 00004  4400             =@PAGSWADV RECORD BEGIN                 Give swap advice
 000000                             4408  1          =@ADVASB    DS    A                       ASB of advice
 000004                00004 00004  4409             =         END   ,
0000000                00000 0000D  4419             =@PAGWSMA RECORD BEGIN                  Working Set management
 000000                             4427  1          =@WSASB     DS    A                       ASB of AS to be managed
 000004                             4428  1          =@WSINT     DS    A                       Number of elapsed intervals
 000008                             4429  1          =@WSLIMIT   DS    A                       Maximum number of frames
 00000C 00                          4430  1          =@WSFLG     FLAG  ,
 @WSFLG.@WSFGLOB   80 ONES          4434  1          =           FLAG  @WSFGLOB                Manage Global AS
 00000D                0000D 0000D  4439             =         END   ,
0000000                00000 0000A  4449             =@PAGDEF  RECORD BEGIN                  Define a page
 000000                             4457  1          =@PDADDR    DS    A                       Page VA
 000004                             4458  1          =@PDLEN     DS    A                       Length of definition (bytes)
 000008                             4459  1          =@PDKEY     DS    X                       Storage key (+ key protect)
                                    4460  1          =* @PDHASH  DS    X                       Hash value for page
 000009 00                          4461  1          =@PDF1      FLAG  @PDFGLOB                In global memory
 @PDF1.@PDFGLOB    80 ONES
 @PDF1.@PDFPROT    40 ONES          4467  1          =           FLAG  @PDFPROT                Page table protection
 00000A                0000A 0000A  4472             =         END   ,
0000000                00000 0000A  4482             =@PAGSEGD RECORD BEGIN                  Define a segment
 000000                             4490  1          =@SDADDR    DS    A                       Segment address
 000004                             4491  1          =@SDLEN     DS    A                       Length of definition (bytes)
 000008                             4492  1          =@SDHASH    DS    X                       Hash value for segment
 000009 00                          4493  1          =@SDF1      FLAG  @SDFGLOB                In global memory
 @SDF1.@SDFGLOB    80 ONES
 00000A                0000A 0000A  4499             =         END   ,
0000000                00000 00008  4509             =@PAGASC1 RECORD BEGIN
 000000                             4517  1          =@ASCASB    DS    A                       ASB for AS being created
 000004                             4518  1          =@ASCWSLM   DS    A                       Maximum size of working set
 000008                00008 00008  4519             =         END   ,
0000000                00000 00005  4529             =@PAGASC2 RECORD BEGIN                  Address space creation
1FILEMAN  (FILEMA) (09:39) (22MAR04) ORVYL'S File Manager                                                                   Page   41
0Current Usings:  (PZERO,R0)
0Loc    Object Code    Addr1 Addr2  Stmt Lv Lineno    Source Statement           (Hibal 5, Asmedit 3.3)  HLASM R4.0  2004/03/22 09.39
+___    ______ ____    _____ _____  ____ __ ______    ______ _________
0000000                             4537  1          =@ASCVA     DS    A                       Virtual address of 1st PT
 000004                             4538  1          =@ASCKEY    DS    X                       Storage key (+ key protect)
 000005                00005 00005  4539             =         END   ,
0000000                00000 00009  4549             =@PAGE    RECORD BEGIN                  General paging routine parms
 000000                             4557  1          =@PAGLOC    DS    A                       Virtual address
 000004                             4558  1          =@PAGLEN    DS    A                       Length (in bytes)
 000008                             4559  1          =@PAGKEY    DS    X                       Key - where required
                                    4560  1          =@PAGHASH   EQU   @PAGKEY                 Hash - where required
 000009                00009 00009  4561             =         END   ,
0000000                00000 00008  4571             =@PAGRV   RECORD BEGIN                  Real to virtual translation
 000000                             4579  1          =@PAGRVAD   DS    A                       Real addr to be translated
                                    4580  1          =* -- Return parms --
 000004                             4581  1          =@PAGRVASB   DS   A                       Address space block
 000008                00008 00008  4582             =         END   ,
0000000                00000 00004  4592             =@PAGINTV RECORD BEGIN                  Paging management interval
 000000                             4600  1          =@PAGINT    DS    A                       Number of intervals in cycle
 000004                00004 00004  4601             =         END   ,
0000000                00000 00008  4611             =@PAGINIT RECORD BEGIN                  Global initialization
 000000                             4619  1          =@PAGIASB   DS    A                       Global ASB address
 000004                             4620  1          =@PAGIMEG   DS    A                       Maximum number of bytes in VA
 000008                00008 00008  4621             =         END   ,
1FILEMAN  (FILEMA) (09:39) (22MAR04) ORVYL'S File Manager                                                                   Page   42
0Current Usings:  (PZERO,R0)
0Loc    Object Code    Addr1 Addr2  Stmt Lv Lineno    Source Statement           (Hibal 5, Asmedit 3.3)  HLASM R4.0  2004/03/22 09.39
+___    ______ ____    _____ _____  ____ __ ______    ______ _________
0                                   4631      40.              COPY  SBPARM
                                    4632             =*******************************************************************
                                    4633             =*                                                                 *
                                    4634             =* Macros for the inialization and manipulation of system buffer   *
                                    4635             =* pools for the orvyl file system.                                *
                                    4636             =*                                                                 *
                                    4637             =*******************************************************************
0                                   4639             =*******************************************************************
                                    4640             =*                                                                 *
                                    4641             =* Buffer pool initialization                                      *
                                    4642             =*                                                                 *
                                    4643             =*******************************************************************
 000000                00000 00009  4644             =@SBINIT RECORD BEGIN
 000000                             4652  1          =@SBILEN   DS    A                   Length of a buffer
 000004                             4653  1          =@SBICNT   DS    A                   Count of buffers in pool
 000008 00                          4654  1          =@SBIFLG   FLAG  ,                   Where to create pool flags
                                    4658  1          =*Not supported yet FLAG  @SBLUSR User memory local to the addr space
 @SBIFLG.@SBLSYS   80 ONES          4659  1          =           FLAG  @SBLSYS            Sys memory local to the addr space
                                    4664  1          =*Not supported yet FLAG  @SBGLLO Global memory below the line
 @SBIFLG.@SBGLHI   40 ONES          4665  1          =           FLAG  @SBGLHI            Global memory above the line
 @SBIFLG.@SBFIX    20 ONES          4670  1          =           FLAG  @SBFIX             Create in fixed memory
 000009                00009 00009  4675             =         END   ,
0                                   4685             =*******************************************************************
                                    4686             =*                                                                 *
                                    4687             =* Buffer pool get                                                 *
                                    4688             =*                                                                 *
                                    4689             =*******************************************************************
 000000                00000 0000C  4690             =@SBGET  RECORD BEGIN
 000000                             4698  1          =@SBGPOO   DS    A                   Buffer pool address
 000004                             4699  1          =@SBGADR   DS    A                   Buffer address
 000008                             4700  1          =@SBGLEN   DS    A                   Buffer length
 00000C                0000C 0000C  4701             =         END   ,
0                                   4711             =*******************************************************************
                                    4712             =*                                                                 *
                                    4713             =* Buffer pool free                                                *
                                    4714             =*                                                                 *
                                    4715             =*******************************************************************
 000000                00000 00008  4716             =@SBFREE RECORD BEGIN
 000000                             4724  1          =@SBFPOO   DS    A                   Buffer pool address
 000004                             4725  1          =@SBFADR   DS    A                   Buffer address
 000008                00008 00008  4726             =         END   ,
0000000                00000 00020  4736             =SBWAIT  RECORD BEGIN               System buffer wait block
 000000                             4744  1          =SBWFP      DS    A
 000004                             4745  1          =SBWBP      DS    A
 000008 E2C2E640                    4746  1          =SBWBID     DC    CL4'SBW'
 00000C                             4747  1          =SBWADR     DS   0A                   Address of buffer now available
 00000C                             4748  1          =SBWASB     DS    A                   Address space
 000010                             4749  1          =SBWECB     DS    D                   Wait ECB
 000018                             4750  1          =SBWORD1    DS    A                   Various
 00001C                             4751  1          =SBWORD2    DS    A                   Various
1FILEMAN  (FILEMA) (09:39) (22MAR04) ORVYL'S File Manager                                                                   Page   43
0Current Usings:  (PZERO,R0)
0Loc    Object Code    Addr1 Addr2  Stmt Lv Lineno    Source Statement           (Hibal 5, Asmedit 3.3)  HLASM R4.0  2004/03/22 09.39
+___    ______ ____    _____ _____  ____ __ ______    ______ _________
0000020                00020 00020  4752             =         END   ,
1FILEMAN  (FILEMA) (09:39) (22MAR04) ORVYL'S File Manager                                                                   Page   44
0Current Usings:  (PZERO,R0)
0Loc    Object Code    Addr1 Addr2  Stmt Lv Lineno    Source Statement           (Hibal 5, Asmedit 3.3)  HLASM R4.0  2004/03/22 09.39
+___    ______ ____    _____ _____  ____ __ ______    ______ _________
0                                   4762      42.              COPY  SIGPARM
                                    4763             =*
                                    4764             =*  AWAIT/AWAITAS parameters
                                    4765             =*    For task based calls, the ECB is a double word.
                                    4766             =*    For address space based calls, the ECB is a word.
                                    4767             =*
 000000                00000 00005  4768             =@AWAIT   RECORD BEGIN
 000000                             4776  1          =@AWTECB    DS    A                       Address of ECB
 000004 00                          4777  1          =@AWTFLG    FLAG  ,
 @AWTFLG.@AWTLONG  80 ONES          4781  1          =           FLAG  @AWTLONG                Long term wait
 000005                00005 00005  4786             =         END   ,
0                                   4796             =*
                                    4797             =*  SIGNAL/SIGNALAS parameters
                                    4798             =*    For task based calls, the ECB and post code is a double word.
                                    4799             =*    For address space based calls, the ECB and post code is a word.
                                    4800             =*
 000000                00000 00014  4801             =@SIGNAL  RECORD BEGIN
 000000                             4809  1          =@SGCODE    DS    D                       Post code
 000008                             4810  1          =@SGECB     DS    A                       Address of ECB
                                    4811  1          =*  -- Parms for task signal --
                                    4812  1          =*    Zero ASB means post in this AS
                                    4813  1          =*    @PSSRID is only used for cross AS posts
 00000C                             4814  1          =@SGASB     DS    A                       ASB to be posted
 000010                             4815  1          =@SGSRID    DS    A                       System routine ID for cross
                                    4816  1          =*                                          AS posting
 000014                00014 00014  4817             =         END   ,
1FILEMAN  (FILEMA) (09:39) (22MAR04) ORVYL'S File Manager                                                                   Page   45
0Current Usings:  (PZERO,R0)
0Loc    Object Code    Addr1 Addr2  Stmt Lv Lineno    Source Statement           (Hibal 5, Asmedit 3.3)  HLASM R4.0  2004/03/22 09.39
+___    ______ ____    _____ _____  ____ __ ______    ______ _________
0                                   4827      44.              COPY  VMPARM
                                    4828             =*******************************************************************
                                    4829             =*                                                                 *
                                    4830             =*    Memory parms for inside the virtual machine.                 *
                                    4831             =*                                                                 *
                                    4832             =*******************************************************************
-000000                00000 0000B  4834             =@VMGET   RECORD BEGIN        Parm area for getting virtual memory
 000000                             4842  1          =@VMGLEN    DS    A             Amount of memory needed
 000004                             4843  1          =@VMGDAT    DS    A             More data. Address or maxlen.
 000008                             4844  1          =@VMGPOOL   DS    H             Pool/Subpool to get the memory from
 00000A 00                          4845  1          =@VMGFLG    FLAG  ,
 @VMGFLG.@VMGPAGE  80 ONES          4849  1          =           FLAG  @VMGPAGE      Page Aligned
 @VMGFLG.@VMGONEP  40 ONES          4854  1          =           FLAG  @VMGONEP      Don't cross page boundary
 00000B                0000B 0000B  4859             =         END   ,
-000000                00000 0000A  4869             =@VMFREE  RECORD BEGIN        Used for VMFREE and VMCHECK
 000000                             4877  1          =@VMFLOC    DS    A             Location of the storage to free
 000004                             4878  1          =@VMFLEN    DS    A             Amount to free
 000008                             4879  1          =@VMFPOOL   DS    H             Pool/Subpool where the storage lives
 00000A                0000A 0000A  4880             =         END   ,
-000000                00000 00009  4890             =@VMINFO  RECORD BEGIN        Returns User address limits/hash val
 000000                             4898  1          =@VMIUST    DS    A             Start of the user address space
 000004                             4899  1          =@VMIULEN   DS    A             Length of the user address space
 000008                             4900  1          =@VMITRSH   DS    X             Trash value
 000009                00009 00009  4901             =         END   ,
1FILEMAN  (FILEMA) (09:39) (22MAR04) ORVYL'S File Manager                                                                   Page   46
0Current Usings:  (PZERO,R0)
0Loc    Object Code    Addr1 Addr2  Stmt Lv Lineno    Source Statement           (Hibal 5, Asmedit 3.3)  HLASM R4.0  2004/03/22 09.39
+___    ______ ____    _____ _____  ____ __ ______    ______ _________
0                                   4911      46.              COPY  ACCTPARM
                                    4912             =*****************************************************************
                                    4913             =*                                                               *
                                    4914             =*  ACCTPARM -- Parameters for the Accounting Routines.          *
                                    4915             =*                                                               *
                                    4916             =*****************************************************************
-                                   4918             =*
                                    4919             =* Start accounting for an address space
                                    4920             =*
0000000                00000 0001C  4922             =@ACLOGON RECORD BEGIN
 000000                             4930  1          =@ACLASB    DS    A             ASB of the Address Space
 000004                             4931  1          =@ACLUID    DS    CL8           User ID
 00000C                             4932  1          =@ACLUPR    DS    A             User Privileges
 000010                             4933  1          =@ACLLOT    DS    D             TOD Clock at Logon
 000018                             4934  1          =@ACLTID    DS    A             Terminal ID
 00001C                0001C 0001C  4935             =         END   ,
-                                   4945             =*
                                    4946             =* Get accounting info for an address space.
                                    4947             =*
0000000                00000 00018  4949             =@ACAINFO RECORD BEGIN
 000000                             4957  1          =@ACAASB    DS    A             ASB of the address space
 000004                             4958  1          =@ACAUID    DS    CL8           User ID
 00000C                             4959  1          =@ACAUPR    DS    A             User Privileges
                                    4960  1          =MILPRIV    EQU   @ACAUPR+3     Milten priv byte *** TEMP ***
 000010                             4961  1          =@ACALOT    DS    D             TOD Clock at Logon
 000018                00018 00018  4962             =         END   ,
-                                   4972             =*
                                    4973             =* Get resource usage info for an address space
                                    4974             =*
0000000                00000 00028  4976             =@ACINFO  RECORD BEGIN
 000000                             4984  1          =@ACIASB    DS    A             ASB of the Address space
 000004                             4985  1          =@ACIIOS    DS    A             Number of I/O's
 000008                             4986  1          =@ACICPU    DS    D             CPU time (TOD)
 000010                             4987  1          =@ACICON    DS    D             Connect time (TOD)
 000018                             4988  1          =@ACIPGNM   DS    CL8           Program name
 000020                             4989  1          =@ACITID    DS    A             Terminal Identifier
 000024                             4990  1          =@ACIORG    DS    A             Shared program address
 000028                00028 00028  4991             =         END   ,
                                    5000             =*
                                    5001             =* Set program information
                                    5002             =*
0000000                00000 0000C  5004             =@ACPINFO RECORD BEGIN
 000000                             5012  1          =@ACPASB    DS    A             ASB of the Address space
 000004                             5013  1          =@ACPPGNM   DS    CL8           Program name
1FILEMAN  (FILEMA) (09:39) (22MAR04) ORVYL'S File Manager                                                                   Page   47
0Current Usings:  (PZERO,R0)
0Loc    Object Code    Addr1 Addr2  Stmt Lv Lineno    Source Statement           (Hibal 5, Asmedit 3.3)  HLASM R4.0  2004/03/22 09.39
+___    ______ ____    _____ _____  ____ __ ______    ______ _________
000000C                0000C 0000C  5014             =         END   ,
                                    5023             =*
                                    5024             =* Set shared program information
                                    5025             =*
0000000                00000 00008  5027             =@ACSPINF RECORD BEGIN
 000000                             5035  1          =@ACSPASB   DS    A             ASB of the Address space
 000004                             5036  1          =@ACSPORG   DS    A             Shared program address
 000008                00008 00008  5037             =         END   ,
1FILEMAN  (FILEMA) (09:39) (22MAR04) ORVYL'S File Manager                                                                   Page   48
0Current Usings:  (PZERO,R0)
0Loc    Object Code    Addr1 Addr2  Stmt Lv Lineno    Source Statement           (Hibal 5, Asmedit 3.3)  HLASM R4.0  2004/03/22 09.39
+___    ______ ____    _____ _____  ____ __ ______    ______ _________
0                                   5047      48.              COPY  DISPPARM
                                    5048             =*****************************************************************
                                    5049             =*                                                               *
                                    5050             =*  DISPPARM -- Parameters for the dispatcher global routines.   *
                                    5051             =*                                                               *
                                    5052             =*****************************************************************
-                                   5054             =*
                                    5055             =* Routines to indicate completion of a page or swap I/O
                                    5056             =*
 000000                00000 00004  5057             =@DISPPIOC RECORD BEGIN                 Page I/O completion parms
 000000                             5065  1          =@DPIOASB   DS    A                       ASB of completing I/O
 000004                00004 00004  5066             =         END   ,
0000000                00000 00004  5076             =@DISPSIOC RECORD BEGIN                 Swap I/O completion parms
 000000                             5084  1          =@DSIOASB   DS    A                       ASB of completing I/O
 000004                00004 00004  5085             =         END   ,
-                                   5095             =*
                                    5096             =* SUSPEND parameters
                                    5097             =*
0000000                00000 00009  5099             =@SUSPEND RECORD BEGIN
 000000                             5107  1          =@SUSPCTL   DS    0D            ID of the Control level suspended
 000000                             5108  1          =@SUSPID    DS    A             ID of the task/address space suspended
 000004                             5109  1          =@SUSPLC    DS    A             For tasks: Level of control suspended
 000008 00                          5110  1          =@SUSPFLG   FLAG  ,
 @SUSPFLG.@SUSPLNG 80 ONES          5114  1          =           FLAG  @SUSPLNG      This will be of long duration
 @SUSPFLG.@SUSPAS  40 ONES          5119  1          =           FLAG  @SUSPAS       Suspend the entire address space
 @SUSPFLG.@SUSPPLC 20 ONES          5124  1          =           FLAG  @SUSPPLC      Suspend previous level of control
 000009                00009 00009  5129             =         END   ,
-                                   5139             =*
                                    5140             =* RESUMAS/RESUMTS parameters
                                    5141             =*
0000000                00000 00008  5143             =@RESUME  RECORD BEGIN
 000000                             5151  1          =@RESCTL    DS    0D            ID of the unit of work to be resumed
 000000                             5152  1          =@RESUNIT   DS    A             Address of the ASB/task Id to resume
 000004                             5153  1          =@RESLC     DS    A             Level of control in a task
 000008                00008 00008  5154             =         END   ,
-                                   5164             =*
                                    5165             =* DISPSHLD/DISPSREL parmameters
                                    5166             =*
0000000                00000 00004  5168             =@DISPSWP RECORD BEGIN
 000000                             5176  1          =@DISPSAS   DS    A             Address of the ASB being manipulated
 000004                00004 00004  5177             =         END   ,
1FILEMAN  (FILEMA) (09:39) (22MAR04) ORVYL'S File Manager                                                                   Page   49
0Current Usings:  (PZERO,R0)
0Loc    Object Code    Addr1 Addr2  Stmt Lv Lineno    Source Statement           (Hibal 5, Asmedit 3.3)  HLASM R4.0  2004/03/22 09.39
+___    ______ ____    _____ _____  ____ __ ______    ______ _________
0                                   5187             =*
                                    5188             =* ACREATE parameters
                                    5189             =*
0000000                00000 00008  5191             =@ACREATE RECORD BEGIN
 000000                             5199  1          =@ACRPSW    DS    D             Instruction address for task
 000008                00008 00008  5200             =         END   ,
-                                   5210             =*
                                    5211             =* TCREATE parameters
                                    5212             =*
0000000                00000 00015  5214             =@TCREATE RECORD BEGIN
 000000                             5222  1          =@TCRPSW    DS    D             Initial PSW for the task
 000008                             5223  1          =@TCRPARM   DS    2A            Parameter for the task
 000010                             5224  1          =@TCRPRIO   DS    A             Adjustment to priority from Current task
 000014 00                          5225  1          =@TCRFLAG   FLAG  ,             Task creation flags
 @TCRFLAG.@TCRFSTK 80 ONES          5229  1          =           FLAG  @TCRFSTK        Task entered with a stack
 @TCRFLAG.@TCRFPAB 40 ONES          5234  1          =           FLAG  @TCRFPABS       Prio is absolute
 000015                00015 00015  5239             =         END   ,
-                                   5249             =*
                                    5250             =* TREMOVE parameters
                                    5251             =*
0000000                00000 00004  5253             =@TREMOVE RECORD BEGIN
 000000                             5261  1          =@TREID     DS    A             ID of the task to be removed
 000004                00004 00004  5262             =         END   ,
-                                   5272             =*
                                    5273             =* TENTRY Parameters  (on entry to a created task)
                                    5274             =*
0000000                00000 00008  5276             =@TENTRY  RECORD BEGIN
 000000                             5284  1          =@TEPARM    DS    2A            Entry parm for the task
 000008                00008 00008  5285             =         END   ,
-                                   5295             =*
                                    5296             =* TEXIT parameters
                                    5297             =*
0000000                00000 00004  5299             =@TEXIT   RECORD BEGIN
 000000                             5307  1          =           DS    A             Not used
 000004                00004 00004  5308             =         END   ,
-                                   5318             =*
                                    5319             =* SYSRNEW -- Get a new SYSR ID
                                    5320             =*
1FILEMAN  (FILEMA) (09:39) (22MAR04) ORVYL'S File Manager                                                                   Page   50
0Current Usings:  (PZERO,R0)
0Loc    Object Code    Addr1 Addr2  Stmt Lv Lineno    Source Statement           (Hibal 5, Asmedit 3.3)  HLASM R4.0  2004/03/22 09.39
+___    ______ ____    _____ _____  ____ __ ______    ______ _________
0000000                00000 00004  5322             =@SYSRNEW RECORD BEGIN
 000000                             5330  1          =           DS    A             Not used
 000004                00004 00004  5331             =         END   ,
-                                   5341             =*
                                    5342             =* SYSRDEL -- Delete a previous SYSR ID
                                    5343             =*
 000000                00000 00004  5344             =@SYSRDEL RECORD BEGIN
 000000                             5352  1          =@SYSRDID   DS    A             Id of the SYSR
 000004                00004 00004  5353             =         END   ,
-                                   5363             =*
                                    5364             =* SYSRDO -- Schedule a system routine to run in another address space
                                    5365             =*
0000000                00000 0001C  5367             =@SYSRDO  RECORD BEGIN
 000000                             5375  1          =@SYSRID    DS    A             Id from SYSRNEW
 000004                             5376  1          =@SYSRASB   DS    A             ASB of the Address space where it goes
 000008                             5377  1          =@SYSRLOC   DS    A             Location of the system routine
 00000C                             5378  1          =@SYSRPRM   DS    4A            Parameters for the routine
 00001C                0001C 0001C  5379             =         END   ,
-                                   5389             =*
                                    5390             =* SYSRTN -- Parameter passed to a system routine
                                    5391             =*
0000000                00000 00010  5393             =@SYSRTN  RECORD BEGIN
 000000                             5401  1          =@SYSPARS   DS    4A            Parameters
 000010                00010 00010  5402             =         END   ,
-                                   5412             =*
                                    5413             =* PERSET -- Set the Per registers
                                    5414             =*
0000000                00000 0000C  5416             =@PERSET  RECORD BEGIN
 000000                             5424  1          =@PERSDAT   DS    3F            3 Registers (corresponds to CRs 9-11)
 00000C                0000C 0000C  5425             =         END   ,
-                                   5435             =*
                                    5436             =* MONSET -- Set the MON masks
                                    5437             =*
0000000                00000 00002  5439             =@MONSET  RECORD BEGIN
 000000                             5447  1          =@MONSDAT   DS    H             Monitor Class Mask
 000002                00002 00002  5448             =         END   ,
-                                   5458             =*
                                    5459             =* DSPSTAT -- Return Dispatcher Statistics
1FILEMAN  (FILEMA) (09:39) (22MAR04) ORVYL'S File Manager                                                                   Page   51
0Current Usings:  (PZERO,R0)
0Loc    Object Code    Addr1 Addr2  Stmt Lv Lineno    Source Statement           (Hibal 5, Asmedit 3.3)  HLASM R4.0  2004/03/22 09.39
+___    ______ ____    _____ _____  ____ __ ______    ______ _________
0                                   5460             =*
0000000                00000 00020  5462             =@DSPSTAT RECORD BEGIN
 000000                             5470  1          =@DSPSST    DS    D             TOD clock when system started
 000008                             5471  1          =@DSPSCHG   DS    D             Total CPU time charged (TOD)
 000010                             5472  1          =@DSPSDSP   DS    D             Dispatch CPU time (TOD)
 000018                             5473  1          =@DSPSIOS   DS    D             I/O Service time (TOD)
 000020                00020 00020  5474             =         END   ,
1FILEMAN  (FILEMA) (09:39) (22MAR04) ORVYL'S File Manager                                                                   Page   52
0Current Usings:  (PZERO,R0)
0Loc    Object Code    Addr1 Addr2  Stmt Lv Lineno    Source Statement           (Hibal 5, Asmedit 3.3)  HLASM R4.0  2004/03/22 09.39
+___    ______ ____    _____ _____  ____ __ ______    ______ _________
0                                   5484      50.              COPY  GRPARM
                                    5485             =*****************************************************************
                                    5486             =*
                                    5487             =* General Resource API
                                    5488             =*
                                    5489             =*****************************************************************
 000000                00000 00009  5490             =@GRES   RECORD BEGIN               General Resource Routine api
0000000                             5499  1          =@GRCID     DS    A                   Caller id
 000004                             5500  1          =@GRID      DS    A                   Resource id
0000008 00                          5502  1          =@GRFLAG    FLAG  ,
 @GRFLAG.@GRWAIT   80 ONES          5506  1          =           FLAG  @GRWAIT             Wait for resource to come free
 @GRFLAG.@GREXCL   40 ONES          5511  1          =           FLAG  @GREXCL             Get hold exclusively
 @GRFLAG.@GRCANAS  20 ONES          5516  1          =           FLAG  @GRCANAS            Cancel only this address space
0000009                00009 00009  5522             =         END   ,
0                                   5532             =*****************************************************************
                                    5533             =*
                                    5534             =* Create a general resource item
                                    5535             =*
                                    5536             =*   CALLID is a four byte caller identifier
                                    5537             =*
                                    5538             =*   The resource id is returned in RVR
                                    5539             =*
                                    5540             =*****************************************************************
                                    5541             =         MACRO ,
                                    5542             =&LABEL   GRCRE &CID=
                                    5543             =         AIF   ('&LABEL' EQ '').NOLAB
                                    5544             =&LABEL   LABEL ,
                                    5545             =.NOLAB   ANOP  ,
                                    5546             =         AIF   ('&CID' EQ '').ERR
                                    5547             =         PSET  @GRES
                                    5548             =         PMOV  @GRCID,&CID         Set caller id
                                    5549             =         VCALL GRCRE               Create a general resource item
                                    5550             =         AGO   .EXIT
                                    5551             =.ERR     MNOTE 8,'CID is a required parameter'
                                    5552             =.EXIT    ANOP  ,
                                    5553             =         MEND  ,
0                                   5555             =*****************************************************************
                                    5556             =*
                                    5557             =* Delete a general resource item
                                    5558             =*
                                    5559             =*   RID is a four byte resource id returned from GRCRE
                                    5560             =*
                                    5561             =*****************************************************************
                                    5562             =         MACRO ,
                                    5563             =&LABEL   GRDEL &RID=
                                    5564             =         AIF   ('&LABEL' EQ '').NOLAB
                                    5565             =&LABEL   LABEL ,
                                    5566             =.NOLAB   ANOP  ,
                                    5567             =         AIF   ('&RID' EQ '').ERR
1FILEMAN  (FILEMA) (09:39) (22MAR04) ORVYL'S File Manager                                                                   Page   53
0Current Usings:  (PZERO,R0)
0Loc    Object Code    Addr1 Addr2  Stmt Lv Lineno    Source Statement           (Hibal 5, Asmedit 3.3)  HLASM R4.0  2004/03/22 09.39
+___    ______ ____    _____ _____  ____ __ ______    ______ _________
0                                   5568             =         PSET  @GRES
                                    5569             =         PMOV  @GRID,&RID          Set resource id
                                    5570             =         VCALL GRDEL               Delete a general resource item
                                    5571             =         AGO   .EXIT
                                    5572             =.ERR     MNOTE 8,'Resource ID is a requried parameter'
                                    5573             =.EXIT    ANOP  ,
                                    5574             =         MEND  ,
0                                   5576             =*****************************************************************
                                    5577             =*
                                    5578             =* Get a general resource item hold
                                    5579             =*
                                    5580             =*   RID is a four byte resource id returned from GRCRE
                                    5581             =*
                                    5582             =*   The resource hold id is returned in RVR
                                    5583             =*
                                    5584             =*****************************************************************
                                    5585             =         MACRO ,
                                    5586             =&LABEL   GRGET &RID=,&WAIT=YES,&EXCL=NO
                                    5587             =         AIF   ('&LABEL' EQ '').NOLAB
                                    5588             =&LABEL   LABEL ,
                                    5589             =.NOLAB   ANOP  ,
                                    5590             =         AIF   ('&RID' EQ '').ERR1
                                    5591             =         PSET  @GRES
                                    5592             =         PMOV  @GRID,&RID
                                    5593             =         AIF   ('&WAIT' EQ 'NO').EXCL
                                    5594             =         AIF   ('&WAIT' NE 'YES').ERR2
                                    5595             =         SET   @GRWAIT
                                    5596             =.EXCL    AIF   ('&EXCL' EQ 'NO').VCALL
                                    5597             =         AIF   ('&EXCL' NE 'YES').ERR3
                                    5598             =         SET   @GREXCL
                                    5599             =.VCALL   VCALL GRGET               Get general resource item
                                    5600             =         AGO   .EXIT
                                    5601             =.ERR1    MNOTE 8,'Resource ID is a requried parameter'
                                    5602             =         AGO   .EXIT
                                    5603             =.ERR2    MNOTE 8,'Valid values for WAIT= are YES or NO'
                                    5604             =         AGO   .EXIT
                                    5605             =.ERR3    MNOTE 8,'Valid values for EXCL= are YES or NO'
                                    5606             =.EXIT    ANOP  ,
                                    5607             =         MEND  ,
0                                   5609             =*****************************************************************
                                    5610             =*
                                    5611             =* Release a general resource item hold
                                    5612             =*
                                    5613             =*   RID is a four byte resource hold id returned from GRGET
                                    5614             =*     Note: The RID can be the resource id or hold id if the
                                    5615             =*           get was exclusive. See GRREL in RESMAN.
                                    5616             =*
                                    5617             =*****************************************************************
                                    5618             =         MACRO ,
                                    5619             =&LABEL   GRREL &RID=
                                    5620             =         AIF   ('&LABEL' EQ '').NOLAB
                                    5621             =&LABEL   LABEL ,
1FILEMAN  (FILEMA) (09:39) (22MAR04) ORVYL'S File Manager                                                                   Page   54
0Current Usings:  (PZERO,R0)
0Loc    Object Code    Addr1 Addr2  Stmt Lv Lineno    Source Statement           (Hibal 5, Asmedit 3.3)  HLASM R4.0  2004/03/22 09.39
+___    ______ ____    _____ _____  ____ __ ______    ______ _________
0                                   5622             =.NOLAB   ANOP  ,
                                    5623             =         AIF   ('&RID' EQ '').ERR
                                    5624             =         PSET  @GRES
                                    5625             =         PMOV  @GRID,&RID
                                    5626             =         VCALL GRREL               Release a general resource item
                                    5627             =         AGO   .EXIT
                                    5628             =.ERR     MNOTE 8,'Resource ID is a requried parameter'
                                    5629             =         AGO   .EXIT
                                    5630             =.EXIT    ANOP  ,
                                    5631             =         MEND  ,
0                                   5633             =*****************************************************************
                                    5634             =*
                                    5635             =* Change an exclusive hold to a share hold
                                    5636             =*
                                    5637             =*   RID is a four byte resource id returned from GRGET
                                    5638             =*
                                    5639             =*****************************************************************
                                    5640             =         MACRO ,
                                    5641             =&LABEL   GRX2S &RID=
                                    5642             =         AIF   ('&LABEL' EQ '').NOLAB
                                    5643             =&LABEL   LABEL ,
                                    5644             =.NOLAB   ANOP  ,
                                    5645             =         AIF   ('&RID' EQ '').ERR
                                    5646             =         PSET  @GRES
                                    5647             =         PMOV  @GRID,&RID
                                    5648             =         VCALL GRX2S     Change an exclusive hold to a share hold
                                    5649             =         AGO   .EXIT
                                    5650             =.ERR     MNOTE 8,'Resource ID is a requried parameter'
                                    5651             =         AGO   .EXIT
                                    5652             =.EXIT    ANOP  ,
                                    5653             =         MEND  ,
0                                   5655             =*****************************************************************
                                    5656             =*
                                    5657             =* Cancel a general resource item waiting for hold
                                    5658             =*
                                    5659             =*   RID is a four byte resource id returned from GRGET
                                    5660             =*   TYPE is either ALL for cancel all waiters or AS for all
                                    5661             =*        waiters in this address space only
                                    5662             =*
                                    5663             =*****************************************************************
                                    5664             =         MACRO ,
                                    5665             =&LABEL   GRCAN &RID=,&TYPE=AS
                                    5666             =         AIF   ('&LABEL' EQ '').NOLAB
                                    5667             =&LABEL   LABEL ,
                                    5668             =.NOLAB   ANOP  ,
                                    5669             =         AIF   ('&RID' EQ '').ERR
                                    5670             =         PSET  @GRES
                                    5671             =         AIF   ('&TYPE' EQ 'ALL').CANALL
                                    5672             =         AIF   ('&TYPE' NE 'AS').ERR2
                                    5673             =         SET   @GRCANAS            Cancel only waiters of this AS
                                    5674             =.CANALL  ANOP  ,
                                    5675             =         PMOV  @GRID,&RID
1FILEMAN  (FILEMA) (09:39) (22MAR04) ORVYL'S File Manager                                                                   Page   55
0Current Usings:  (PZERO,R0)
0Loc    Object Code    Addr1 Addr2  Stmt Lv Lineno    Source Statement           (Hibal 5, Asmedit 3.3)  HLASM R4.0  2004/03/22 09.39
+___    ______ ____    _____ _____  ____ __ ______    ______ _________
0                                   5676             =         VCALL GRCAN               Cancel a general resource item
                                    5677             =         AGO   .EXIT
                                    5678             =.ERR2    MNOTE 8,'Type must be ALL or AS'
                                    5679             =         AGO   .EXIT
                                    5680             =.ERR     MNOTE 8,'Resource ID is a requried parameter'
                                    5681             =.EXIT    ANOP  ,
                                    5682             =         MEND  ,
1FILEMAN  (FILEMA) (09:39) (22MAR04) ORVYL'S File Manager                                                                   Page   56
0Current Usings:  (PZERO,R0)
0Loc    Object Code    Addr1 Addr2  Stmt Lv Lineno    Source Statement           (Hibal 5, Asmedit 3.3)  HLASM R4.0  2004/03/22 09.39
+___    ______ ____    _____ _____  ____ __ ______    ______ _________
0                                   5686      52.              COPY  XITPARM
                                    5687             =*****************************************************************
                                    5688             =*                                                               *
                                    5689             =*  XITPARM --  Parameters for the routines dealing with exit    *
                                    5690             =*              routine definition and execution.                *
                                    5691             =*                                                               *
                                    5692             =*****************************************************************
-                                   5694             =*
                                    5695             =*  @EXRADD -- Define a new exit routine.
                                    5696             =*
0000000                00000 00015  5698             =@EXRADD  RECORD BEGIN
 000000                             5706  1          =@EXRTYPE   DS    A             Exit type bit map
 000004                             5707  1          =@EXRQUAL   DS    A             Exit Qualifier
 000008                             5708  1          =@EXRPSW    DS    D             Exit PSW
 000010                             5709  1          =@EXRPARM   DS    A             Parm for the exit
 000014 00                          5710  1          =@EXRAFLG   FLAG  ,
 @EXRAFLG.@EXRAFQ  80 ONES          5714  1          =           FLAG  @EXRAFQ       Exit should be qualified
 @EXRAFLG.@EXRAFS  40 ONES          5719  1          =           FLAG  @EXRAFS       System exit (entered with a stack)
 000015                00015 00015  5724             =         END   ,
-                                   5734             =*
                                    5735             =*  @EXRDEL -- Remove an exit routine definition.
                                    5736             =*
0000000                00000 00004  5738             =@EXRDEL  RECORD BEGIN
 000000                             5746  1          =@EXRDID    DS    A             Exit routine ID
 000004                00004 00004  5747             =         END   ,
-                                   5757             =*
                                    5758             =*  @EXRDONE -- Complete exit processing.
                                    5759             =*
0000000                00000 00001  5761             =@EXRDONE RECORD BEGIN
 000000 00                          5769  1          =@EXRDCD    FLAG  ,
 @EXRDCD.@EXRDFIN  00 EQ            5773  1          =           FLAG  (@EXRDFIN,0,EQ)         No further processing needed
 @EXRDCD.@EXRDNXT  01 EQ            5783  1          =           FLAG  (@EXRDNXT,1,EQ)         Percolate the exit request
 000001                00001 00001  5793             =         END   ,
-                                   5803             =*
                                    5804             =*  @XITNEW -- Define a new exit request.
                                    5805             =*
0000000                00000 00001  5807             =@XITNEW  RECORD BEGIN
 000000 00                          5815  1          =@XITNFL    FLAG  ,
 @XITNFL.@XITNFG   80 ONES          5819  1          =           FLAG  @XITNFG       Global exit request
 000001                00001 00001  5824             =         END   ,
1FILEMAN  (FILEMA) (09:39) (22MAR04) ORVYL'S File Manager                                                                   Page   57
0Current Usings:  (PZERO,R0)
0Loc    Object Code    Addr1 Addr2  Stmt Lv Lineno    Source Statement           (Hibal 5, Asmedit 3.3)  HLASM R4.0  2004/03/22 09.39
+___    ______ ____    _____ _____  ____ __ ______    ______ _________
0                                   5834             =*
                                    5835             =*  @XITDEL -- Delete an exit request
                                    5836             =*
0000000                00000 00004  5838             =@XITDEL  RECORD BEGIN
 000000                             5846  1          =@XITDID    DS    A             Exit request ID
 000004                00004 00004  5847             =         END   ,
-                                   5857             =*
                                    5858             =*  @XITDO -- Schedule an exit.
                                    5859             =*
 000000                00000 00020  5860             =@XITDO   RECORD BEGIN
 000000                             5868  1          =@XITRQID   DS    A             Request ID (from XITNEW)
 000004                             5869  1          =@XITTSK    DS    A             Task Id where this exit is to run
 000008                             5870  1          =@XITTYPE   DS    X             Exit type (Integer)
 00000C                             5871  1          =@XITQUAL   DS    A             Exit qualifier
 000010                             5872  1          =@XITPARM   DS    XL16          Exit parameter area
 000020                00020 00020  5873             =         END   ,
-                                   5883             =*
                                    5884             =*  @XITGPST -- Info about the status of the previous level of control
                                    5885             =*              used by XITGST and XITPST
                                    5886             =*
0000000                00000 00068  5888             =@XITGPST RECORD BEGIN
 000000                             5896  1          =@XITSPSW   DS    D             PSW
 000008                             5897  1          =@XITSGPR   DS    16F           GPRs
 000048                             5898  1          =@XITSFPR   DS    4D            FPRs
 000068                00068 00068  5899             =         END   ,
-                                   5909             =*
                                    5910             =*  @XITMASK -- Modify the current exit mask
                                    5911             =*
0000000                00000 00005  5913             =@XITMASK RECORD BEGIN
 000000                             5921  1          =@XITMSK    DS    A             Bit mask of the data
 000004 00                          5922  1          =@XITMREQ   FLAG  ,             Request type
 @XITMREQ.@XITMSO  00 EQ            5926  1          =           FLAG  (@XITMSO,0,EQ)  OR this data into the mask
 @XITMREQ.@XITMSN  01 EQ            5936  1          =           FLAG  (@XITMSN,1,EQ)  AND this data into the mask
 @XITMREQ.@XITMSS  02 EQ            5946  1          =           FLAG  (@XITMSS,2,EQ)  Store this data into the mask
 000005                00005 00005  5956             =         END   ,
-                                   5966             =*
                                    5967             =* Definition of the types of exits
                                    5968             =*
0                                   5970             =XITTPI   EQU    0          * Program interrupt
                                    5971             =XITTSVC  EQU    1          * Supervisor Call
                                    5972             =XITTRTC  EQU    2            Real time clock expiration
                                    5973             =XITTCTC  EQU    3            CPU time clock expiration
1FILEMAN  (FILEMA) (09:39) (22MAR04) ORVYL'S File Manager                                                                   Page   58
0Current Usings:  (PZERO,R0)
0Loc    Object Code    Addr1 Addr2  Stmt Lv Lineno    Source Statement           (Hibal 5, Asmedit 3.3)  HLASM R4.0  2004/03/22 09.39
+___    ______ ____    _____ _____  ____ __ ______    ______ _________
0                                   5974             =XITTPER  EQU    4            Program Event
                                    5975             =XITTMON  EQU    5            Monitor Call
                                    5976             =XITTLGO  EQU    6            Logoff
                                    5977             =XITTR07  EQU    7            -- reserved --
                                    5978             =XITTATTN EQU    8            Attention
                                    5979             =XITTIOCN EQU    9            I/O Completed normally
                                    5980             =XITTIOCA EQU   10            I/O Completed abnormally
-                                   5982             =*
                                    5983             =* Definition of the exit mask
                                    5984             =*
0000000                00000 00004  5986             =XITMSKD  RECORD BEGIN
                                    5994  1          =
 000000 00                          5995  1          =MITMK1     FLAG  ,             First byte of the mask
 MITMK1.XITMPI     80 ONES          5999  1          =           FLAG  XITMPI          Program interrupt
 MITMK1.XITMSVC    40 ONES          6004  1          =           FLAG  XITMSVC         Supervisor Call
 MITMK1.XITMRTC    20 ONES          6009  1          =           FLAG  XITMRTC         Real time clock expiration
 MITMK1.XITMCTC    10 ONES          6014  1          =           FLAG  XITMCTC         CPU time clock expiration
 MITMK1.XITMPER    08 ONES          6019  1          =           FLAG  XITMPER         Program Event
 MITMK1.XITMMON    04 ONES          6024  1          =           FLAG  XITMMON         Monitor Call
 MITMK1.XITMLGO    02 ONES          6029  1          =           FLAG  XITMLGO         Logoff
 MITMK1.XITMR07    01 ONES          6034  1          =           FLAG  XITMR07         -- reserved --
                                    6039  1          =
 000001 00                          6040  1          =MITMK2     FLAG  ,             Second byte of the mask
 MITMK2.XITMATTN   80 ONES          6044  1          =           FLAG  XITMATTN        Attention
 MITMK2.XITMIOCN   40 ONES          6049  1          =           FLAG  XITMIOCN        I/O Completed normally
 MITMK2.XITMIOCA   20 ONES          6054  1          =           FLAG  XITMIOCA        I/O Completed abnormally
                                    6059  1          =
 000002 00                          6060  1          =MITMK3     FLAG  ,             Third byte of the mask
                                    6064  1          =
 000003 00                          6065  1          =MITMK4     FLAG  ,             Fourth byte of the mask
 000004                00004 00004  6069             =         END   ,
-                                   6079             =*
                                    6080             =* Definition of Exit routine entry data area
                                    6081             =*
0000000                00000 00004  6083             =@XITDATA RECORD BEGIN
 000000                             6091  1          =@XITDSA    DS    A             Pointer to XITSAREA (exit status area)
 000004                00004 00004  6092             =         END   ,
-                                   6102             =*
                                    6103             =* Definition of the Exit Status area
                                    6104             =*
0000000                00000 0001C  6106             =XITSAREA RECORD BEGIN
 000000                             6114  1          =XITSRPRM   DS    A             Parm value for the Routine
 000004                             6115  1          =XITSTYPE   DS    X             Type of the exit
 000008                             6116  1          =XITSQUAL   DS    A             Exit Qualifier
 00000C                             6117  1          =XITSXPRM   DS    XL16          Exit parameter area
1FILEMAN  (FILEMA) (09:39) (22MAR04) ORVYL'S File Manager                                                                   Page   59
0Current Usings:  (PZERO,R0)
0Loc    Object Code    Addr1 Addr2  Stmt Lv Lineno    Source Statement           (Hibal 5, Asmedit 3.3)  HLASM R4.0  2004/03/22 09.39
+___    ______ ____    _____ _____  ____ __ ______    ______ _________
000001C                0001C 0001C  6118             =         END   ,
1FILEMAN  (FILEMA) (09:39) (22MAR04) ORVYL'S File Manager                                                                   Page   60
0Current Usings:  (PZERO,R0)
0Loc    Object Code    Addr1 Addr2  Stmt Lv Lineno    Source Statement           (Hibal 5, Asmedit 3.3)  HLASM R4.0  2004/03/22 09.39
+___    ______ ____    _____ _____  ____ __ ______    ______ _________
0                                   6128      54.              COPY  IXR
 000000                00000 00800  6129             =IXRDSECT DSECT
                                    6130             =*
                                    6131             =*  INDEX RECORD & SUPER INDEX RECORD
                                    6132             =*
 000000                             6133             =IXRSTART DS    0F
                                    6134             =IXR      EQU   IXRSTART,2048
 000000 00                          6135             =IXRSTATE FLAG  ,                       IXR STATUS
 IXRSTATE.IXRMIXR  80 ONES          6139             =         FLAG  (IXRMIXR,FPMIXR)        MASTER IXR
 IXRSTATE.IXRSIXR  40 ONES          6148             =         FLAG  (IXRSIXR,FPSIXR)        SUPER IXR
 IXRSTATE.IXRZIXR  20 ONES          6157             =         FLAG  (IXRZIXR,FPZIXR)        HYBRID IXR
 IXRSTATE.IXRFIXR  10 ONES          6166             =         FLAG  (IXRFIXR,FPFIXR)        FIRST HYBRID IXR
                                    6175             =
 000001                             6176             =IXRECNO  DS    XL3                     ABSOLUTE ORVYL BLOCK NUMBER
 000004                             6177             =IXRNAME  DS    CL44                    FILE NAME
 000030                             6178             =IXRNRCS  DS    A                       NO. USER RECS IN FILE/IXR
 000034                             6179             =IXRRRCS  DS    A                       NO. REAL RECS IN FILE
 000038                             6180             =IXRLWRC  DS    XL3                     LOWEST REC NO IN IXR
 00003B                             6181             =IXRHIRC  DS    XL3                     HIGHEST REC NO IN IXR
 00003E                             6182             =IXRPAD   DS   0XL6                     SPARE BYTES (NON-HYBRID)
 00003E                             6183             =IXRLWRF  DS    XL3          (HYBRID)   LOWEST REC NO IN FILE
 000041                             6184             =IXRHIRF  DS    XL3          (HYBRID)   HIGHEST REC NO IN FILE
                                    6185             =
                                    6186             =IXRPREF  EQU   IXRSTART,*-IXRSTART     IXR PREFIX
 000044                             6187             =IXRNT    DS    XL3                     FIRST IXR ENTRY
                                    6188             =
                                    6189             =IXRNT#   EQU   (L'IXR-L'IXRPREF)/L'IXRNT        NO. OF ENTRIES
 000047                             6190             =IXRNTNEX DS    (IXRNT#-1)XL(L'IXRNT)   REMAINING ENTRIES
                                    6191             =*
                                    6192             =*  Use last 6 bytes of SIXR for special IXR counts
 000800                00800 007FA  6193             =         ORG   IXR+L'IXR-6
                                    6194             =IXRIXNT# EQU   IXRNT#-(6/L'IXRNT)      NO OF IXR ENTRIES IN SIXR
                                    6195             =IXRMXNT# EQU   IXRNT#*IXRIXNT#         MAX NUMBER OF USER BLOCKS
 0007FA                             6196             =IXRNIXR  DS    H        (SIXR ONLY)    NO. IXRS FOR FILE
 0007FC                             6197             =IXRLWXR  DS    H        (SIXR ONLY)    LOWEST IXR FOR FILE
 0007FE                             6198             =IXRHIXR  DS    H        (SIXR ONLY)    HIGHEST IXR FOR FILE
1FILEMAN  (FILEMA) (09:39) (22MAR04) ORVYL'S File Manager                                                                   Page   61
0Current Usings:  (PZERO,R0)
0D-Loc  Object Code    Addr1 Addr2  Stmt Lv Lineno    Source Statement           (Hibal 5, Asmedit 3.3)  HLASM R4.0  2004/03/22 09.39
+_____  ______ ____    _____ _____  ____ __ ______    ______ _________
0                                   6200      56.              COPY  HASHPARM
                                    6201             =*******************************************************************
                                    6202             =*                                                                 *
                                    6203             =*   HASHPARM - Hash routine parameters                            *
                                    6204             =*                                                                 *
                                    6205             =*******************************************************************
0000000                00000 0000D  6207             =@HASH    RECORD BEGIN
 000000                             6215  1          =@HSHSTR    DS    A                       String pointer
 000004                             6216  1          =@HSHLEN    DS    A                       Length of string
 000008                             6217  1          =@HSHVAL    DS    A                       Hash value (a prime number)
 00000C 00                          6218  1          =@HSHFL     FLAG  ,
 @HSHFL.@HSHBLNK   80 ONES          6222  1          =           FLAG  @HSHBLNK                Ignore trailing blanks
 00000D                0000D 0000D  6227             =         END   ,
1FILEMAN  (FILEMA) (09:39) (22MAR04) ORVYL'S File Manager                                                                   Page   62
0Current Usings:  (PZERO,R0)
0D-Loc  Object Code    Addr1 Addr2  Stmt Lv Lineno    Source Statement           (Hibal 5, Asmedit 3.3)  HLASM R4.0  2004/03/22 09.39
+_____  ______ ____    _____ _____  ____ __ ______    ______ _________
0                                   6237      58.              COPY  ATFB
                                    6238             =*
                                    6239             =* Attached file blocks hash table
                                    6240             =*
 000000                00000 00FDC  6241             =AHFB    RECORD BEGIN
0000000 C1C8C6C2                    6250  1          =AHFBID     DC    CL4'AHFB'
 000004                             6251  1          =AHFBGRID   DS    A                   Resource id
 000008                             6252  1          =AHFBFSB    DS    A                   Point back to FSB
 00000C                             6253  1          =           DS    A                   Spare
0                                   6255  1          =AHFBCNT    EQU   337                 Nice big prime number
                                    6256  1          =AHFBLEN    EQU   4096                They will fit in a page
0                                   6258  1          =* File attached blocks (ATFB) are chained off of one of the following
                                    6259  1          =* queues determined by hashing the file name.
0                                   6261  1          =AHFBL      LHEAD PFX=AHFBL           first list head
                                    6262  1 01-LHEAD +AHFBL      EQU   *,12,C'N'
 000010                             6263  1 01-LHEAD +AHFBLFP    DS    A                       Forward pointer
 000014                             6264  1 01-LHEAD +AHFBLBP    DS    A                       Backward pointer
 000018                             6265  1 01-LHEAD +AHFBLCNT   DS    A                       Number of elements in list
 00001C                             6266  1          =           DS    (AHFBCNT-1)XL(L'AHFBL) All the rest of them
 000FDC                00FDC 00FDC  6267             =         END   ,
                                    6276             =*
                                    6277             =* Attached File Block
                                    6278             =*
 000000                00000 00050  6279             =ATFB    RECORD BEGIN
0000000                             6288  1          =ATFBFP     DS    A                   fwd ptr
 000004                             6289  1          =ATFBBP     DS    A                   bwd ptr
0000008 C1E3C6C2                    6291  1          =ATFBID     DC    CL4'ATFB'
000000C 00                          6293  1          =ATFBMASK   FLAG  ,                   File mask
 00000D 00                          6297  1          =ATFBFLAG   FLAG  ,
 ATFBFLAG.ATFBFRES 80 ONES          6301  1          =           FLAG  ATFBFRES            File is reserved
 ATFBFLAG.ATFBFTIM 40 ONES          6306  1          =           FLAG  ATFBFTIM            Update the file access time
                                    6311  1          =*                                  after last detach
 00000E                             6312  1          =ATFBCNT    DS    H                   Count of users attached
0000010                             6314  1          =ATFBFBLK   DS    A                   First block number
 000014                             6315  1          =ATFBBLKC   DS    A                   Block count (non-IXR'd)
0000018                             6317  1          =ATFBATL    DS    A                   Attached file hash list slot
000001C                             6319  1          =ATFBAGRI   DS    A                   Attach resource ID
 000020                             6320  1          =ATFBRGRI   DS    A                   File reserve resource ID
 000024                             6321  1          =ATFBFSB    DS    A                   FSB pointer
 000028                             6322  1          =ATFBNAME   DS    CL(CFSBFLSZ)        File Name
 000050                00050 00050  6323             =         END   ,
1FILEMAN  (FILEMA) (09:39) (22MAR04) ORVYL'S File Manager                                                                   Page   63
0Current Usings:  (PZERO,R0)
0D-Loc  Object Code    Addr1 Addr2  Stmt Lv Lineno    Source Statement           (Hibal 5, Asmedit 3.3)  HLASM R4.0  2004/03/22 09.39
+_____  ______ ____    _____ _____  ____ __ ______    ______ _________
0                                   6333      60.     *
                                    6334      61.     * User File Block (address space)
                                    6335      62.     *
 000000                00000 00030  6336      63.     ASFB    RECORD BEGIN
 000000 C1E2C6C2                    6344  1   64.     ASFBID     DC    CL4'ASFB'           Block id
 000004                             6345  1   65.                DS    F                   Spare
0                                   6347  1   67.     ASFBFW     SHEAD ,                   Free RQWB chain
 000008                             6348  1 01-01603 +ASFBFW     DS   0D                   Single linked CDS list
 000008                             6349  1 01-01604 +ASFBFWFP   DS    A                   Forward pointer
 00000C                             6350  1 01-01605 +ASFBFWSEQ   DS   A                   CDS sequence number
                                    6351  1   68.     ASFBFQ     SHEAD ,                   Free RQFB chain
 000010                             6352  1 01-01603 +ASFBFQ     DS   0D                   Single linked CDS list
 000010                             6353  1 01-01604 +ASFBFQFP   DS    A                   Forward pointer
 000014                             6354  1 01-01605 +ASFBFQSEQ   DS   A                   CDS sequence number
                                    6355  1   69.     ASFBRQ     LHEAD PFX=ASFBRQ          Inuse RQFB chain
                                    6356  1 01-LHEAD +ASFBRQ     EQU   *,12,C'N'
 000018                             6357  1 01-LHEAD +ASFBRQFP   DS    A                       Forward pointer
 00001C                             6358  1 01-LHEAD +ASFBRQBP   DS    A                       Backward pointer
 000020                             6359  1 01-LHEAD +ASFBRQCNT   DS   A                       Number of elements in list
0000024                             6361  1   71.     ASFBSAGR   DS    CL2                 Group
 000026                             6362  1   72.     ASFBSADO   DS    CL1                 Dot
 000027                             6363  1   73.     ASFBSAUS   DS    CL3                 User
                                    6364  1   74.     ASFBSACC   EQU   ASFBSAGR,*-ASFBSAGR,C'C' Signed on account
000002A                             6366  1   76.     ASFBPAGR   DS    CL2                 Group
 00002C                             6367  1   77.     ASFBPAD1   DS    CL1                 Dot
 00002D                             6368  1   78.     ASFBPAUS   DS    CL3                 User
                                    6369  1   79.     ASFBPACC   EQU   ASFBPAGR,*-ASFBPAGR,C'C' Pseudo account
 000030                00030 00030  6370      80.              END   ,
1FILEMAN  (FILEMA) (09:39) (22MAR04) ORVYL'S File Manager                                                                   Page   64
0Current Usings:  (PZERO,R0)
0D-Loc  Object Code    Addr1 Addr2  Stmt Lv Lineno    Source Statement           (Hibal 5, Asmedit 3.3)  HLASM R4.0  2004/03/22 09.39
+_____  ______ ____    _____ _____  ____ __ ______    ______ _________
0                                   6380      82.              KWREC FLAGS
1FILEMAN  (FILEMA) (09:39) (22MAR04) ORVYL'S File Manager                                                                   Page   65
0Current Usings:  (PZERO,R0)
0D-Loc  Object Code    Addr1 Addr2  Stmt Lv Lineno    Source Statement           (Hibal 5, Asmedit 3.3)  HLASM R4.0  2004/03/22 09.39
+_____  ______ ____    _____ _____  ____ __ ______    ______ _________
0                                   6400      84.     *
                                    6401      85.     * File Request Work Block - this block lasts from SVC through wait
                                    6402      86.     *
 000000                00000 000D0  6403      87.     RQWB    RECORD BEGIN
0000000 D9D8E6C2                    6412  1   89.     RQWBID     DC    CL4'RQWB'           Block id
-                                   6415  1   92.     * Attach area - fields that are maintained from the attach of a file
                                    6416  1   93.     * through the detach of the file.
 000004                             6417  1   94.     RQATT      DS    0A
 000004                             6418  1   95.     RQAPERM    DS    X                   File access permits
0                                   6420  1   97.     * These file flags are from the catalog
 000005 00                          6421  1   98.     RQCODE     FLAG  ,                   File flags
 RQCODE.RQCCLP     80 ONES          6425  1   99.                FLAG  (RQCCLP,NTFCLP)     Only CLP can attach this file
 RQCODE.RQCSFORM   40 ONES          6433  1  100.                FLAG  (RQCSFORM,NTFSFORM) User info is format data
 RQCODE.RQCNOCLP   20 ONES          6441  1  101.                FLAG  (RQCNOCLP,NTFNOCLP) CLP can't change this file
 RQCODE.RQCNIXR    10 ONES          6449  1  102.                FLAG  (RQCNIXR,NTFNIXR)   Non-IXR file
 RQCODE.RQCSPI     08 ONES          6457  1  103.                FLAG  (RQCSPI,NTFSPI)     Only Spires can attach this file
                                    6465  1  104.     * A hybrid file is a non-IXR file where all the records in the array
                                    6466  1  105.     * are IXRs (not user records as in regular non-IXR files). When the
                                    6467  1  106.     * hybrid flag is on, the non-IXR flag is also on.
 RQCODE.RQCHYBR    04 ONES          6468  1  107.                FLAG  (RQCHYBR,NTFHYBR)   Hybrid file
0000006 00                          6477  1  109.     RQAFLG     FLAG  ,                   Attach modes
 RQAFLG.RQADONE    80 ONES          6481  1  110.                FLAG  RQADONE             Attach complete
 RQAFLG.RQATMP     40 ONES          6486  1  111.                FLAG  RQATMP              Temp file
 RQAFLG.RQASHR     20 ONES          6491  1  112.                FLAG  RQASHR              Attached in share mode
 RQAFLG.RQACLP     10 ONES          6496  1  113.                FLAG  RQACLP              CLP attached
 RQAFLG.RQASPI     08 ONES          6501  1  114.                FLAG  RQASPI              Spires attached
 RQAFLG.RQAHALT    04 ONES          6506  1  115.                FLAG  RQAHALT             File halt processing
 RQAFLG.RQADET     02 ONES          6511  1  116.                FLAG  RQADET              File detach processing
0000007 00                          6517  1  118.     RQAFLG2    FLAG  ,                   Attach modes
 RQAFLG2.RQAOWN    80 ONES          6521  1  119.                FLAG  RQAOWN              Attached by file owner
 RQAFLG2.RQAMAG    40 ONES          6526  1  120.                FLAG  RQAMAG              Attached by file sys owner or master
 RQAFLG2.RQARES    20 ONES          6531  1  121.                FLAG  RQARES              File is reserved by this guy
 RQAFLG2.RQASTAT   10 ONES          6536  1  122.                FLAG  RQASTAT             Status SVC
 RQAFLG2.RQAS117   08 ONES          6541  1  123.                FLAG  RQAS117             Status 117 in progress
0                                   6547  1  125.     * Note: the following field may be from the signed-on user or
                                    6548  1  126.     *       the pseudo user set by status 107.
 000008                             6549  1  127.     RQFACC     DS    CL6                 File access account
000000E                             6551  1  129.                DS    XL2                 Spare
0000010                             6553  1  131.     RQAGRH     DS    A                   Attach general resource id
 000014                             6554  1  132.     RQRGRH     DS    A                   Reserve general resrource id
 000018                             6555  1  133.     RQATFB     DS    A                   File attach block
0                                   6557  1  135.     RQATTF     EQU   RQATT,*-RQATT,C'C'
0                                   6559  1  137.     * Request area - fields initialized and used from IO reqest
1FILEMAN  (FILEMA) (09:39) (22MAR04) ORVYL'S File Manager                                                                   Page   66
0Current Usings:  (PZERO,R0)
0D-Loc  Object Code    Addr1 Addr2  Stmt Lv Lineno    Source Statement           (Hibal 5, Asmedit 3.3)  HLASM R4.0  2004/03/22 09.39
+_____  ______ ____    _____ _____  ____ __ ______    ______ _________
0                                   6560  1  138.     * through return from wait.
000001C 00                          6562  1  140.     RQTYPE     FLAG  ,                   Request type
 RQTYPE.RQATCH     04 EQ            6566  1  141.                FLAG  (RQATCH,4,EQ)       Attach
 RQTYPE.RQREAD     08 EQ            6576  1  142.                FLAG  (RQREAD,8,EQ)       Read
 RQTYPE.RQWRIT     0C EQ            6586  1  143.                FLAG  (RQWRIT,12,EQ)      Write
 RQTYPE.RQCONT     10 EQ            6596  1  144.                FLAG  (RQCONT,16,EQ)      Control
 RQTYPE.RQSTAT     14 EQ            6606  1  145.                FLAG  (RQSTAT,20,EQ)      Status
 RQTYPE.RQDTCH     18 EQ            6616  1  146.                FLAG  (RQDTCH,24,EQ)      Detach
 RQTYPE.RQRSRV     1C EQ            6626  1  147.                FLAG  (RQRSRV,28,EQ)      Reserve
 RQTYPE.RQRLSE     20 EQ            6636  1  148.                FLAG  (RQRLSE,32,EQ)      Release
000001D                             6647  1  150.     RQPRIV     DS    X                   User privileges
000001E 00                          6649  1  152.     RQIFLG     FLAG  ,                   Input flags
 RQIFLG.RQIF14     80 ONES          6653  1  153.                FLAG  RQIF14              R14 complimented
 RQIFLG.RQIF15     40 ONES          6658  1  154.                FLAG  RQIF15              R15 complimented
 RQIFLG.RQIF00     20 ONES          6663  1  155.                FLAG  RQIF00              R0 complimented
 RQIFLG.RQIF01     10 ONES          6668  1  156.                FLAG  RQIF01              R1 complimented
0RQIFLG.RQNAX      80 ONES          6674  1  158.                FLAG  (RQNAX,RQIFLG.RQIF14)
 RQIFLG.RQWAIT     20 ONES          6682  1  159.                FLAG  (RQWAIT,RQIFLG.RQIF00)
 RQIFLG.RQSHR      10 ONES          6690  1  160.                FLAG  (RQSHR,RQIFLG.RQIF01)
 RQIFLG.RQOLD      40 ONES          6698  1  161.                FLAG  (RQOLD,RQIFLG.RQIF15)
 RQIFLG.RQSKIP     40 ONES          6706  1  162.                FLAG  (RQSKIP,RQIFLG.RQIF15)
 RQIFLG.RQFORM     10 ONES          6714  1  163.                FLAG  (RQFORM,RQIFLG.RQIF01)
 RQIFLG.RQSDEF     40 ONES          6722  1  164.                FLAG  (RQSDEF,RQIFLG.RQIF15) Use space default
0                                   6731  1  166.     * This field is a combination of the user permits determined
                                    6732  1  167.     * at attach time and the owner permits (file mask) which can
                                    6733  1  168.     * change at any time. This field is redetermined at each SVC.
                                    6734  1  169.     * The filemask can be changed by the file owner at any time
                                    6735  1  170.     * and it takes effect immediately for all users with the file
                                    6736  1  171.     * attached. All SVCs that modify the file check the masked
                                    6737  1  172.     * version of the permits. Those that modify the catalog only
                                    6738  1  173.     * check the unmasked version of the permits.
 00001F 00                          6739  1  174.     RQMPERM    FLAG  ,                   Masked file access permits
0000020 00                          6744  1  176.     RQRFLG     FLAG  ,                   Request flags
 RQRFLG.RQRFRE     80 ONES          6748  1  177.                FLAG  RQRFRE              Done with this RQFB
 RQRFLG.RQRM31     40 ONES          6753  1  178.                FLAG  RQRM31              User in 31 bit addressing mode
 RQRFLG.RQR1ST     20 ONES          6758  1  179.                FLAG  RQR1ST              First to attach
0000021                             6764  1  181.     RQPKEY     DS    X                   User psw key
 000022                             6765  1  182.                DS    XL2                 Spare
0000024                             6767  1  184.     RQFSB      DS    A                   FSB pointer
 000028                             6768  1  185.     RQWBRQFB   DS    A                   Pointer back to RQFB for dump
 00002C                             6769  1  186.                DS    A                   Spare
0                                   6771  1  188.     * Input parameter registers
 000030                             6772  1  189.     RQIR14     DS    A
 000034                             6773  1  190.     RQIR15     DS    A
 000038                             6774  1  191.     RQIR00     DS    A
1FILEMAN  (FILEMA) (09:39) (22MAR04) ORVYL'S File Manager                                                                   Page   67
0Current Usings:  (PZERO,R0)
0D-Loc  Object Code    Addr1 Addr2  Stmt Lv Lineno    Source Statement           (Hibal 5, Asmedit 3.3)  HLASM R4.0  2004/03/22 09.39
+_____  ______ ____    _____ _____  ____ __ ______    ______ _________
000003C                             6775  1  192.     RQIR01     DS    A
                                    6776  1  193.     RQIREG     EQU   RQIR14,*-RQIR14,C'C'
0                                   6778  1  195.     * Status input
                                    6779  1  196.     RQISTAT    EQU   RQIR00,L'RQIR00,C'C' Status type
                                    6780  1  197.     RQISPRM    EQU   RQIR01+3,1,C'C'      Access permits
                                    6781  1  198.     RQISUSA    EQU   RQIR15,L'RQIR15,C'C' User A
                                    6782  1  199.     RQISUSB    EQU   RQIR14,L'RQIR14,C'C' User B
                                    6783  1  200.     RQISLOC    EQU   RQIR01,L'RQIR01,C'C' Data location
                                    6784  1  201.     RQISLEN    EQU   RQIR15,L'RQIR15,C'C' Data length
                                    6785  1  202.     RQISUSE    EQU   RQIR01,L'RQIR01,C'C' User
                                    6786  1  203.     RQISFIL    EQU   RQIR14,L'RQIR14,C'C' File name
                                    6787  1  204.     RQISACC    EQU   RQIR01,L'RQIR01,C'C' Account
                                    6788  1  205.     RQISPAC    EQU   RQIR15,L'RQIR15,C'C' Max space
                                    6789  1  206.     RQISTYP    EQU   RQIR15,L'RQIR15,C'C' Request type
                                    6790  1  207.     RQISBLK    EQU   RQIR14,L'RQIR14,C'C' Count of blocks
                                    6791  1  208.     RQIS116    EQU   RQIR01,L'RQIR01,C'C' File sys and block count
                                    6792  1  209.     RQIS117    EQU   RQIR01,L'RQIR01,C'C' Suspend for this many 0.1 seconds
0                                   6794  1  211.     * Control input
                                    6795  1  212.     RQICON     EQU   RQIR01,L'RQIR01,C'C' Control type
                                    6796  1  213.     RQICLOC    EQU   RQIR15,L'RQIR15,C'C' Buffer location
                                    6797  1  214.     RQICLEN    EQU   RQIR14,L'RQIR14,C'C' Buffer length
                                    6798  1  215.     RQICBLK    EQU   RQIR15,L'RQIR15,C'C' Block number
                                    6799  1  216.     RQICBL2    EQU   RQIR14,L'RQIR14,C'C' Block number
                                    6800  1  217.     RQICINF    EQU   RQIR15,L'RQIR15,C'C' Control info
                                    6801  1  218.     RQICUSA    EQU   RQIR14,L'RQIR14,C'C' User
0                                   6803  1  220.     * Read/Write input
                                    6804  1  221.     RQIBLK     EQU   RQIR14,L'RQIR14,C'C' Block number
                                    6805  1  222.     RQILEN     EQU   RQIR15,L'RQIR15,C'C' Data length
                                    6806  1  223.     RQIDAT     EQU   RQIR01,L'RQIR01,C'C' IO buffer address
0                                   6808  1  225.     * Attach input
                                    6809  1  226.     RQIFILE    EQU   RQIR01,L'RQIR01,C'C' File name pointer
                                    6810  1  227.     RQIFLEN    EQU   RQIR15,L'RQIR15,C'C' File name length
0                                   6812  1  229.     * Return parameter registers
 000040                             6813  1  230.     RQRR14     DS    A
 000044                             6814  1  231.     RQRR15     DS    A
 000048                             6815  1  232.     RQRR00     DS    A
 00004C                             6816  1  233.     RQRR01     DS    A
                                    6817  1  234.     RQRREG     EQU   RQRR14,*-RQRR14,C'C'
0                                   6819  1  236.     RQRTYPE    EQU   RQRR01,L'RQRR01,C'C' Record type and length
                                    6820  1  237.     RQRPRIV    EQU   RQRR01,L'RQRR01,C'C' Public privileges
                                    6821  1  238.     RQRPCNT    EQU   RQRR14,L'RQRR14,C'C' Number of users sensed
                                    6822  1  239.     RQRFCNT    EQU   RQRR01,L'RQRR01,C'C' Count of files
                                    6823  1  240.     RQRBLK     EQU   RQRR14,L'RQRR14,C'C' Block number
                                    6824  1  241.     RQRLEN     EQU   RQRR01,L'RQRR01,C'C' Data length
                                    6825  1  242.     RQRUSB     EQU   RQRR01,L'RQRR01,C'C' User written blocks
                                    6826  1  243.     RQRBIB     EQU   RQRR14,L'RQRR14,C'C' Billable blocks
                                    6827  1  244.     RQRS116    EQU   RQRR01,L'RQRR01,C'C' First block in range
                                    6828  1  245.     RQRCBK     EQU   RQRR01,L'RQRR01,C'C' Block number return
1FILEMAN  (FILEMA) (09:39) (22MAR04) ORVYL'S File Manager                                                                   Page   68
0Current Usings:  (PZERO,R0)
0D-Loc  Object Code    Addr1 Addr2  Stmt Lv Lineno    Source Statement           (Hibal 5, Asmedit 3.3)  HLASM R4.0  2004/03/22 09.39
+_____  ______ ____    _____ _____  ____ __ ______    ______ _________
0                                   6829  1  246.     RQRABK     EQU   RQRR01,L'RQRR01,C'C' Allocated blocks
                                    6830  1  247.     RQRUBK     EQU   RQRR14,L'RQRR14,C'C' Used blocks
                                    6831  1  248.     RQRETC     EQU   RQRR15,L'RQRR15,C'C' Return code
                                    6832  1  249.     RQRFID     EQU   RQRR00,L'RQRR00,C'C' Return file id
                                    6833  1  250.     RQRARO     EQU   RQRR01,L'RQRR01,C'C' ARO secondary return code
                                    6834  1  251.     RQRFORM    EQU   RQRR01,L'RQRR01,C'C' File format field
0                                   6836  1  253.     * Imediate wait return registers, use when no IO necessary
                                    6837  1  254.     * but wait SVC required anyway.
 000050                             6838  1  255.     RQWR14     DS    A
 000054                             6839  1  256.     RQWR15     DS    A
 000058                             6840  1  257.     RQWR01     DS    A
0                                   6842  1  259.     RQWUSB     EQU   RQWR01,L'RQWR01,C'C' User written blocks (wait)
                                    6843  1  260.     RQWBIB     EQU   RQWR14,L'RQWR14,C'C' Billable blocks (wait)
                                    6844  1  261.     RQWCBK     EQU   RQWR01,L'RQWR01,C'C' Block number return (wait)
                                    6845  1  262.     RQWRETC    EQU   RQWR15,L'RQWR15,C'C' Wait return code
                                    6846  1  263.     RQWDSZ     EQU   RQWR01,L'RQWR01,C'C' File system data block size
                                    6847  1  264.     RQWHFSZ    EQU   RQWR01,L'RQWR01,C'C' Max possible user recs
                                    6848  1  265.     RQWHIXR    EQU   RQWR14,L'RQWR14,C'C' Hybrid IXR count
0                                   6850  1  267.     * This is the first block for non-IXR'd or the high level IXR
 00005C                             6851  1  268.     RQFBLK     DS    A                   First block number
 000060                             6852  1  269.     RQBLKC     DS    A                   Count of blocks (non-XIR'd)
 000064                             6853  1  270.     RQFIID     DS    A                   File id (IDT index)
 000068                             6854  1  271.     RQRQID     DS    A                   Request id (IDT pointer)
 00006C                             6855  1  272.     RQASFB     DS    A                   Addr space file control block
 000070                             6856  1  273.     RQLBLK     DS    A                   Last block number (used for write)
 000074                             6857  1  274.     RQTSK      DS    A                   Task id of IO requester
-000078                             6860  1  277.     RQNAME     DS    0CL44               File name
 000078                             6861  1  278.     RQNORV     DS    CL4                 ORV.
 00007C                             6862  1  279.     RQNAMS     DS    0CL40               ORVless file name
 00007C                             6863  1  280.     RQNACC     DS    0CL6                Owner account
 00007C                             6864  1  281.     RQNGRP     DS    CL2                 Group
 00007E                             6865  1  282.     RQND1      DS    C                   Dot
 00007F                             6866  1  283.     RQNUSE     DS    CL3                 User
 000082                             6867  1  284.     RQND2      DS    C                   Dot
                                    6868  1  285.     RQNPFX     EQU   RQNAME,*-RQNAME,C'C' File name prefix
 000083                             6869  1  286.     RQNAM2     DS    CL(L'RQNAME-L'RQNPFX) Rest of the file name
00000A4                             6871  1  288.     RQVARI     DS    0CL44               Variable fields for different SVCs
 0000A4                             6872  1  289.     RQACCNA    DS    CL6                 Status account A
 0000AA                             6873  1  290.     RQACCNB    DS    CL6                 Status account B
 0000B0                000B0 000A4  6874  1  291.                ORG   RQVARI              Rename work area
 0000A4                             6875  1  292.     RQWKNAME   DS    CL44                Rename work name
 0000D0                000D0 000D0  6876  1  293.                ORG   ,
 0000D0                000D0 000D0  6877     294.              END   ,
                                    6886     295.     *
                                    6887     296.     * File Request Block - this block lasts from attach to detach
                                    6888     297.     *
 000000                00000 00028  6889     298.     RQFB    RECORD BEGIN
 000000                             6897  1  299.     RQFBFP     DS    A                   fwd ptr
1FILEMAN  (FILEMA) (09:39) (22MAR04) ORVYL'S File Manager                                                                   Page   69
0Current Usings:  (PZERO,R0)
0D-Loc  Object Code    Addr1 Addr2  Stmt Lv Lineno    Source Statement           (Hibal 5, Asmedit 3.3)  HLASM R4.0  2004/03/22 09.39
+_____  ______ ____    _____ _____  ____ __ ______    ______ _________
0000004                             6898  1  300.     RQFBBP     DS    A                   bwd ptr
 000008 D9D8C6C2                    6899  1  301.     RQFBID     DC    CL4'RQFB'           Block id
 00000C                             6900  1  302.     RQFBRQWB   DS    A                   Pointer to the RQWB
 000010                             6901  1  303.     RQFBASV    DS    CL(L'RQATTF)        Attached file save fields
 000028                00028 00028  6902     304.              END   ,
1FILEMAN  (FILEMA) (09:39) (22MAR04) ORVYL'S File Manager                                                                   Page   70
0Current Usings:  (PZERO,R0)
0D-Loc  Object Code    Addr1 Addr2  Stmt Lv Lineno    Source Statement           (Hibal 5, Asmedit 3.3)  HLASM R4.0  2004/03/22 09.39
+_____  ______ ____    _____ _____  ____ __ ______    ______ _________
0                                   6912     306.     *
                                    6913     307.     *  This record is used to pass information about IXR files to a
                                    6914     308.     *  system task which will delete them. It is used for regular files
                                    6915     309.     *  and temp files. Temp files are all deleted at detach time.
                                    6916     310.     *  The processing is slightly different in the two cases. FDELB
                                    6917     311.     *  is used as a pointer to an IO buffer which contains the high
                                    6918     312.     *  level IXR for regular files. This same field is used for the
                                    6919     313.     *  block number of the high level IXR for temp files. This is
                                    6920     314.     *  because the count of blocks needs to be obtained from the IXR
                                    6921     315.     *  for regular files before it is passed off to be deleted. We are
                                    6922     316.     *  also trying to avoid any file IO for temp files at detach time.
                                    6923     317.     *  There are also some other minor differences in the two processes.
                                    6924     318.     *
 000000                00000 00015  6925     319.     FDEL     RECORD BEGIN              Temp file delete control block
 000000                             6933  1  320.     FDELFP     DS    A                   Forward pointer
 000004                             6934  1  321.     FDELID     DS    C'FILD'             Block id
 000008                             6935  1  322.     FDELF      DS    A                   FSB
 00000C                             6936  1  323.     FDELB      DS    F                   IXR or block no of file to delete
 000010                             6937  1  324.     FDELC      DS    F                   Block count (non-ixr and hybrid)
 000014 00                          6938  1  325.     FDELFLG    FLAG  ,
 FDELFLG.FDELFN    80 ONES          6942  1  326.                FLAG  FDELFN              Non-IXR file
 FDELFLG.FDELFH    40 ONES          6947  1  327.                FLAG  FDELFH              Hybrid file
 000015                00015 00015  6952     328.              END   ,
1FILEMAN  (FILEMA) (09:39) (22MAR04) ORVYL'S File Manager                                                                   Page   71
0Current Usings:  (PZERO,R0)
0D-Loc  Object Code    Addr1 Addr2  Stmt Lv Lineno    Source Statement           (Hibal 5, Asmedit 3.3)  HLASM R4.0  2004/03/22 09.39
+_____  ______ ____    _____ _____  ____ __ ______    ______ _________
0                                   6962     330.              MACRO
                                    6963     331.     &L       ADFCB ,                   Address the FILECB
                                    6964     332.     &L       L     RY,MATPTR
                                    6965     333.              WITH  (MAT,RY),'L RY,MATFILCB'
                                    6966     334.              WITH  (FILECB,RY)
                                    6967     335.              MEND  ,
0000000                00000 0000C  6969     337.     @IXRGEPU RECORD BEGIN              Interface to IXR IO routines
 000000                             6977  1  338.     @IXRGFSB   DS    A                   FSB address
 000004                             6978  1  339.     @IXRGBNO   DS    F                   IXR block number
 000008                             6979  1  340.     @IXRGADR   DS    A                   IXR block address
 00000C                0000C 0000C  6980     341.              END   ,
0000000                00000 00008  6990     343.     @CHKMEM RECORD BEGIN               Check memory protection
 000000                             6998  1  344.     @CMEMLOC   DS    A                   Location of the area
 000004                             6999  1  345.     @CMEMLEN   DS    H                   Length of the area
 000006                             7000  1  346.     @CMEMKEY   DS    X                   Key to use for check
 000007 00                          7001  1  347.     @CMEMFL    FLAG  ,
 @CMEMFL.@CMEMWRT  80 ONES          7005  1  348.                FLAG  @CMEMWRT            Check write access
 000008                00008 00008  7010     349.              END   ,
0                                   7020     351.              MACRO
                                    7021     352.     &L       CHKMEM &LOC,&LEN,&TYPE
                                    7022     353.     &L       PSET  @CHKMEM
                                    7023     354.              PMOV  @CMEMLOC,&LOC
                                    7024     355.              PMOV  @CMEMLEN,&LEN
                                    7025     356.              PMOV  @CMEMKEY,RQPKEY
                                    7026     357.              AIF   ('&TYPE' NE 'W').NOWRT
                                    7027     358.              SET   @CMEMWRT
                                    7028     359.     .NOWRT   ANOP
                                    7029     360.              ACALL CHKMEM
                                    7030     361.              MEND
0000000                00000 0000A  7032     363.     @CHKACC  RECORD BEGIN              Validate account
 000000                             7040  1  364.     @CHKAFSB   DS    A
 000004                             7041  1  365.     @CHKACCN   DS    0CL6
 000004                             7042  1  366.     @CHKACCG   DS    CL2                 Group
 000006                             7043  1  367.     @CHKACCD   DS    CL1                 Dot
 000007                             7044  1  368.     @CHKACCU   DS    CL3                 User
 00000A                0000A 0000A  7045     369.              END   ,
0                                   7055     371.              MACRO
                                    7056     372.     &L       CHKACC &ACC
                                    7057     373.     &L       PSET  @CHKACC
                                    7058     374.              PMOV  @CHKACCN,&ACC
                                    7059     375.              ACALL CHKACC
                                    7060     376.              MVC   &ACC,@CHKACCN
                                    7061     377.              L     RB,@CHKAFSB
                                    7062     378.              LTR   RVR,RVR
                                    7063     379.              MEND  ,
1FILEMAN  (FILEMA) (09:39) (22MAR04) ORVYL'S File Manager                                                                   Page   72
0Current Usings:  (PZERO,R0)
0D-Loc  Object Code    Addr1 Addr2  Stmt Lv Lineno    Source Statement           (Hibal 5, Asmedit 3.3)  HLASM R4.0  2004/03/22 09.39
+_____  ______ ____    _____ _____  ____ __ ______    ______ _________
0000016                00000 06510  7065     381.     FILEMAN  CSECT ,
                                    7067     382.     *---------------------------------------------------------------------*
                                    7068     383.     *  M1FILE - File SVC processing, set up work areas and call appropriate
                                    7069     384.     *           SVC edit routine. Then create a task to do any file IO if
                                    7070     385.     *           necessary.
                                    7071     386.     *
                                    7072     387.     *   Inputs - @M1FILE
                                    7073     388.     *
                                    7074     389.     *   Output -
                                    7075     390.     *---------------------------------------------------------------------*
 000016                             7076     391.     M1FILE   PROC  @M1FILE,SCOPE=GLOBAL
 000016 D4F1C6C9D3C54040            7082             +
 00001E 0030/0000                   7083             +
 000022 900F D004/18AF       00004  7085             +
 USING  M1FILE,R10
 000028 50D0 C000/18CD       00000  7100             +
 00002E 9680 C000      00000        7102             +
 USING  @M1FILE-72,R12
 000032 41D0 C078            00078  7116             +
0USING  RQFB,R5                     7118     393.              WITH  (RQFB,RK)
0                                   7132     395.     * Set up trace table registers
 000036 98E1 C048            00000  7133     396.              LM    R14,R1,@M1FR14      Get SVC input R14 to R1
 00003A BF2F C06D            00025  7134     397.              ICM   R2,B'1111',@M1FLAG  Get flag, user key & priv, SVC type
 00003E 1B33                        7135     398.              CLEAR R3
 000040 5850 C068/1255       00020  7139     399.              IF    ('LT RK,@M1FDVID',NZ),BEGIN
 000046 4780 A02C            0004E  7150             +
 00004A 5830 5024            00018  7155  1  400.                WITH  (RQATTF,RQFBASV),'L R3,RQATFB' Attached file pointer
 AUSING (RQATTF,RQFBASV)
 00004E                             7170     401.              END   ,
 00004E 5840 0208            00208  7174     402.              L     R4,PZCURASB         ASB pointer
 000052 99E4 AE3A            00E5C  7175     403.              XTRC  R14,R4,M1FILE       Save some clues
 000E5C 00000E5C                    7183  1          +
 000E60 00000384/0E04               7184  1          +
 000E66 D4F1C6C9D3C54040            7186             +
0USING  ASFB,R4                     7194     405.              WITH  (ASFB,RJ)
 USING  RQWB,R2                     7207     406.              WITH  (RQWB,RA)
0000056 5810 0208            00208  7221     408.              L     RS,PZCURASB
 USING  ASB,R1                      7222     409.              WITH  (ASB,RS),BEGIN
 00005A                             7236  1  410.                IF    (ASBASFB,Z),'ACALL FMASFINI' Build ASFB
 00005A D603 1038 1038 00038 00038  7246  1          +
 000060 4770 A048            0006A  7247  1          +
 000064 58F0 ADA6/0DEF       00DC8  7258  1          +
 00006A 5840 1038            00038  7264  1  411.                L     RJ,ASBASFB          Get local (AS) file block
 DROP   ASB,R1                      7265     412.              END   ,
0                                   7274     414.              SAVAIL HEAD=ASFBFW,LEN=L'RQWB,LOC=LOCSYS Get an avail RQWB
 00006E 9801 4008            00008  7277    02-01652 +         LM    RVR,RS,ASFBFW       Get fwd and sequence number
 000072                             7282    05-LABEL +$$$51S   DS    0H
 000072 1200                        7292  1 05-$REL  +           LTR   RVR,RVR
 000074 4780 A068            0008A  7295  1 04-$BC   +           BC    8,$$$51F
1FILEMAN  (FILEMA) (09:39) (22MAR04) ORVYL'S File Manager                                                                   Page   73
0Current Usings:  (PZERO,R0) (RQWB,R2) (ASFB,R4) (RQFB,R5) (M1FILE,R10) (@M1FILE-72,R12)
0D-Loc  Object Code    Addr1 Addr2  Stmt Lv Lineno    Source Statement           (Hibal 5, Asmedit 3.3)  HLASM R4.0  2004/03/22 09.39
+_____  ______ ____    _____ _____  ____ __ ______    ______ _________
0000078                             7298  1 05-LABEL +$$$52F     DS    0H
 000078 18E0                        7301  1 02-01655 +           LR    R14,RVR             Point to first item
 00007A 58EE 0000            00000  7302  1 02-01656 +           L     R14,0(R14)          Get fwd pointer
 00007E 41F1 0001            00001  7303  1 02-01657 +           LA    R15,1(RS)           Increment sequence
 000082 BB0E 4008            00008  7304    02-01658 +         CDS   RVR,R14,ASFBFW      Remove item from list
 000086 4770 A050            00072  7318    06-$BC   +         BC    7,$$$51S
 00008A 1200/4770 A0BE       000E0  7321    07-LABEL +$$$51F   DS    0H
 USING  @VMGET-72,R13               7340  1 02-VMGET +*,                                     Storage from pool 27
 000090 D70A D048 D048 00000 00000  7363  1          +
 000096 4100 00D0            000D0  7375  1          +
 00009A 5000 D048            00000  7380  1          +
 00009E D201 D050 AE2A 00008 00E4C  7381  1          +
 0000A4 58F0 ADAA/0DEF       00DCC  7384  1          +
 0000AA 1200/4770 A0BE       000E0  7393  1          +
 0000B0 AC04 021B      0021B        7403  2          +
 0000B4 9680 021A      0021A        7409  2          +
 0000B8 50F0 021C            0021C  7410  2          +
 0000BC 58F0 0210            00210  7411  2          +
 0000C0 89F0 0010            00010  7412  2          +
 0000C4 88F0 0010            00010  7413  2          +
 0000C8 41F0 F000            00000  7414  2          +
 0000CC AEFF 0006            00006  7415  2          +
 0000D0 D5D66DD4C5D46DC1            7416  1          +
0                                   7426     416.     * Note: RA is set here and remains set throughout
 0000E0 1820                        7427     417.              LR    RA,RVR
 0000E2                             7428     418.              CLEAR RQWB
 0000E2 D7CF 2000 2000 00000 00000  7434             +
 0000E8 D203 2000 ADAE 00000 00DD0  7435     419.              MVC   RQWBID,=C'RQWB'
 0000EE 5040 206C            0006C  7436     420.              ST    RJ,RQASFB           Set pointer back
00000F2 5850 C068/1255       00020  7438     422.              IF    ('LT RK,@M1FDVID',Z),BEGIN No file attached
 0000F8 4770 A1C2            001E4  7449             +
 0000FC 9504 C070      00028        7454  1  423.                IF    (~@M1FATCH,AND,~@M1FSTAT),BEGIN
 000100 4780 A0F8            0011A  7466  1          +
 000104 9514 C070      00028        7477  1          +
 000108 4780 A0F8            0011A  7478  1          +
 00010C 4100 0001            00001  7483  2  424.                  LA    RVR,1               No IO
 000110 D203 C04C ADB2 00004 00DD4  7484  2  425.                  MVC   @M1FR15,=F'-12'     Set not available
 000116 47F0 A49A            004BC  7485  2  426.                  EXIT  M1FILE              Return
 00011A                             7488  1  427.                END   ,
                                    7492  1  428.                SAVAIL HEAD=ASFBFQ,LEN=L'RQFB,LOC=LOCSYS Get an avail RQFB
 00011A 9801 4010            00010  7495  1 02-01652 +           LM    RVR,RS,ASFBFQ       Get fwd and sequence number
 00011E                             7500  1 05-LABEL +$$$60S     DS    0H
 00011E 1200                        7510  2 05-$REL  +             LTR   RVR,RVR
 000120 4780 A114            00136  7513  2 04-$BC   +             BC    8,$$$60F
 000124                             7516  2 05-LABEL +$$$61F       DS    0H
 000124 18E0                        7519  2 02-01655 +             LR    R14,RVR             Point to first item
 000126 58EE 0000            00000  7520  2 02-01656 +             L     R14,0(R14)          Get fwd pointer
 00012A 41F1 0001            00001  7521  2 02-01657 +             LA    R15,1(RS)           Increment sequence
 00012E BB0E 4010            00010  7522  1 02-01658 +           CDS   RVR,R14,ASFBFQ      Remove item from list
 000132 4770 A0FC            0011E  7536  1 06-$BC   +           BC    7,$$$60S
 000136 1200/4770 A16A       0018C  7539  1 07-LABEL +$$$60F     DS    0H
 00013C                             7558  2 02-VMGET +*,                                     Storage from pool 27
1FILEMAN  (FILEMA) (09:39) (22MAR04) ORVYL'S File Manager                                                                   Page   74
0Current Usings:  (PZERO,R0) (RQWB,R2) (ASFB,R4) (RQFB,R5) (M1FILE,R10) (@M1FILE-72,R12) (@VMGET-72,R13)
0D-Loc  Object Code    Addr1 Addr2  Stmt Lv Lineno    Source Statement           (Hibal 5, Asmedit 3.3)  HLASM R4.0  2004/03/22 09.39
+_____  ______ ____    _____ _____  ____ __ ______    ______ _________
000013C D70A D048 D048 00000 00000  7574  2          +
 000142 4100 0028            00028  7586  2          +
 000146 5000 D048            00000  7591  2          +
 00014A D201 D050 AE2A 00008 00E4C  7592  2          +
 000150 58F0 ADAA/0DEF       00DCC  7595  2          +
 000156 1200/4770 A16A       0018C  7604  2          +
 00015C AC04 021B      0021B        7614  3          +
 000160 9680 021A      0021A        7620  3          +
 000164 50F0 021C            0021C  7621  3          +
 000168 58F0 0210            00210  7622  3          +
 00016C 89F0 0010            00010  7623  3          +
 000170 88F0 0010            00010  7624  3          +
 000174 41F0 F000            00000  7625  3          +
 000178 AEFF 0006            00006  7626  3          +
 00017C D5D66DD4C5D46DC1            7627  2          +
 00018C 1850                        7636  1  429.                LR    RK,RVR
 00018E                             7637  1  430.                CLEAR RQFB
 00018E D727 5000 5000 00000 00000  7643  1          +
 000194 D203 5008 ADB6 00008 00DD8  7644  1  431.                MVC   RQFBID,=C'RQFB'
 00019A 4110 4018            00018  7645  1  432.                LADD  ASFBRQ,LA:RQFB,WR=RS Add to the list
 00019E 41E0 0001            00001  7676  1          +
 0001A2 5EE0 1008            00008  7677  1          +
 0001A6 50E0 1008            00008  7678  1          +
 0001AA 58E0 1004            00004  7685  1          +
 0001AE 5050 1004            00004  7691  1          +
 0001B2 5010 5000            00000  7692  1          +
 0001B6 50E0 5004            00004  7698  1          +
 0001BA 5050 E000            00000  7699  1          +
 0001BE 9110 2006      00006        7701  1  433.                IF    (~RQACLP,AND,(ASFBPACC,NZ)),BEGIN
 0001C2 4710 A1B8            001DA  7713  1          +
 0001C6 D605 402A 402A 0002A 0002A  7725  1          +
 0001CC 4780 A1B8            001DA  7726  1          +
 0001D0 D205 2008 402A 00008 0002A  7731  2  434.                  MVC   RQFACC,ASFBPACC     Get pseudo account
 0001D6 9200 201D      0001D        7732  2  435.                  CLEAR RQPRIV              Can't inherit privileges
 0001DA                             7739  1  436.                END   ,
 0001DA A1BC           001DA 001C4  7743  1  437.                ELSE  BEGIN
 0001CE A1BC           001D0 001DA  7748  1          +
 0001DA 47F0 A1C2            001E4  7750  1          +
 0001DE D205 2008 4024 00008 00024  7756  2  438.                  MVC   RQFACC,ASFBSACC     Get auth user for file
 0001E4                             7757  1  439.                END   ,
 0001E4                             7761     440.              END   ,                   No file attached
 0001E4 A1C6           001E4 000FA  7765     441.              ELSE  BEGIN               File attached
 0001E4 47F0 A23A            0025C  7770             +
 0001E8 9504 C070      00028        7776  1  442.                IF    (@M1FATCH,OR,@M1FSTAT),'ABORT YESRQFB'
 0001EC 4780 A1D6            001F8  7790  1          +
 0001F0 9514 C070      00028        7799  1          +
 0001F4 4770 A206            00228  7800  1          +
 0001F8 AC04 021B      0021B        7809  2          +
 0001FC 9680 021A      0021A        7815  2          +
 000200 50F0 021C            0021C  7816  2          +
 000204 58F0 0210            00210  7817  2          +
 000208 89F0 0010            00010  7818  2          +
 00020C 88F0 0010            00010  7819  2          +
 000210 41F0 F000            00000  7820  2          +
1FILEMAN  (FILEMA) (09:39) (22MAR04) ORVYL'S File Manager                                                                   Page   75
0Current Usings:  (PZERO,R0) (RQWB,R2) (ASFB,R4) (RQFB,R5) (M1FILE,R10) (@M1FILE-72,R12) (@VMGET-72,R13)
0D-Loc  Object Code    Addr1 Addr2  Stmt Lv Lineno    Source Statement           (Hibal 5, Asmedit 3.3)  HLASM R4.0  2004/03/22 09.39
+_____  ______ ____    _____ _____  ____ __ ______    ______ _________
0000214 AEFF 0006            00006  7821  2          +
 000218 E8C5E2D9D8C6C240            7822  1          +
 000228 D217 2004 5010 00004 00010  7827  1  443.                MVC   RQATTF,RQFBASV      Get saved fields
 00022E D203 2078 ADBA 00078 00DDC  7828  1  444.                MVC   RQNORV,=CL4'ORV.'   Set start of file name
 000234 58E0 2018            00018  7829  1  445.                L     R14,RQATFB
 USING  ATFB,R14                    7830  1  446.                WITH  (ATFB,R14),BEGIN
 000238 D227 207C E028 0007C 00028  7844  2  447.                  MVC   RQNAMS,ATFBNAME     Get file name
 00023E D203 2024 E024 00024 00024  7845  2  448.                  MVC   RQFSB,ATFBFSB       Get FSB pointer
 000244 D203 205C E010 0005C 00010  7846  2  449.                  MVC   RQFBLK,ATFBFBLK     Get first block number
 00024A D203 2060 E014 00060 00014  7847  2  450.                  MVC   RQBLKC,ATFBBLKC     Get block count (non-IXR'd)
 000250 D200 201F 2004 0001F 00004  7848  2  451.                  MVC   RQMPERM,RQAPERM     Get attach permits
 000256 D400 201F E00C 0001F 0000C  7849  2  452.                  NC    RQMPERM,ATFBMASK    Limit with file mask
 DROP   ATFB,R14                    7850  1  453.                END   ,
 00025C                             7858     454.              END   ,                   File attached
000025C                             7863     456.              IF    (RQFACC,EQ,=C'GG.ORV'),'SET RQAMAG' Master account
 00025C D505 AE2C 2008 00E4E 00008  7874             +
 000262 4770 A248            0026A  7875             +
 000266 9640 2007      00007        7886             +
 00026A D203 2068 C064 00068 0001C  7891     457.              MVC   RQRQID,@M1FRQID     Set request id
 000270 1FEE/43E0 C06C       00024  7892     458.              LC    R14,@M1FILID
 000276 50E0 2064            00064  7899     459.              ST    R14,RQFIID          Set file id
 00027A 9180 C06D      00025        7900     460.              IF    @M1FCLP,'SET RQACLP'
 00027E 47E0 A264            00286  7910             +
 000282 9610 2006      00006        7921             +
 000286 9140 C06D      00025        7926     461.              IF    @M1FSPI,'SET RQASPI'
 00028A 47E0 A270            00292  7936             +
 00028E 9608 2006      00006        7947             +
 000292 9120 C06D      00025        7952     462.              IF    @M1FM31,'SET RQRM31'
 000296 47E0 A27C            0029E  7962             +
 00029A 9640 2020      00020        7973             +
000029E D20F 2030 C048 00030 00000  7979     464.              MVC   RQIREG,@M1FREG      Set input registers
 0002A4 58F0 ADBE            00DE0  7980     465.              L     R15,=X'80000000'
 0002A8 50F0 2048            00048  7981     466.              ST    R15,RQRR00          Set ind
 0002AC 50F0 204C            0004C  7982     467.              ST    R15,RQRR01          Set ind
 0002B0 50F0 2044            00044  7983     468.              ST    R15,RQRR15          Set ind
 0002B4 50F0 2040            00040  7984     469.              ST    R15,RQRR14          Set ind
 0002B8 50F0 2058            00058  7985     470.              ST    R15,RQWR01          Set ind
 0002BC 50F0 2054            00054  7986     471.              ST    R15,RQWR15          Set ind
 0002C0 50F0 2050            00050  7987     472.              ST    R15,RQWR14          Set ind
 0002C4 D200 2021 C06E 00021 00026  7988     473.              MVC   RQPKEY,@M1FPKEY     Set psw key
 0002CA D200 201D C06F 0001D 00027  7989     474.              MVC   RQPRIV,@M1FPRIV     Set user privileges
 0002D0 D200 201C C070 0001C 00028  7990     475.              MVC   RQTYPE,@M1FTYPE     Set request type
0                                   7992     477.     * Set input flags from high order bits of input regs
 0002D6 5810 2030/1211       00030  7993     478.              IF    ('LT RS,RQIR14',M),BEGIN
 0002DC 47B0 A2C8            002EA  8004             +
 0002E0 9680 201E      0001E        8009  1  479.                SET   RQIF14              R14 was complimented
 0002E4 1311                        8015  1  480.                LCR   RS,RS
 0002E6 5010 2030            00030  8016  1  481.                ST    RS,RQIR14
 0002EA                             8017     482.              END   ,
00002EA 9510 201C      0001C        8022     484.              IF    ~RQCONT,BEGIN  Control 14 needs this unchanged
1FILEMAN  (FILEMA) (09:39) (22MAR04) ORVYL'S File Manager                                                                   Page   76
0Current Usings:  (PZERO,R0) (RQWB,R2) (ASFB,R4) (RQFB,R5) (M1FILE,R10) (@M1FILE-72,R12) (@VMGET-72,R13)
0D-Loc  Object Code    Addr1 Addr2  Stmt Lv Lineno    Source Statement           (Hibal 5, Asmedit 3.3)  HLASM R4.0  2004/03/22 09.39
+_____  ______ ____    _____ _____  ____ __ ______    ______ _________
00002EE 4780 A2E4            00306  8032             +
 0002F2 5810 2034/1211       00034  8037  1  485.                IF    ('LT RS,RQIR15',M),BEGIN
 0002F8 47B0 A2E4            00306  8048  1          +
 0002FC 9640 201E      0001E        8053  2  486.                  SET   RQIF15              R15 was complimented
 000300 1311                        8059  2  487.                  LCR   RS,RS
 000302 5010 2034            00034  8060  2  488.                  ST    RS,RQIR15
 000306                             8061  1  489.                END   ,
 000306                             8065     490.              END   ,
0000306 5810 2038/1211       00038  8070     492.              IF    ('LT RS,RQIR00',M),BEGIN
 00030C 47B0 A2FC            0031E  8081             +
 000310 9620 201E      0001E        8086  1  493.                SET   RQIF00              R0 was complimented
 000314 1311                        8092  1  494.                LCR   RS,RS
 000316 5010 2038            00038  8093  1  495.                ST    RS,RQIR00
 00031A 5010 2048            00048  8094  1  496.                ST    RS,RQRR00           Always return clear device id
 00031E                             8095     497.              END   ,
000031E 9514 201C      0001C        8100     499.              IF    ~RQSTAT,BEGIN  Status 117 needs this unchanged
 000322 4780 A318            0033A  8110             +
 000326 5810 203C/1211       0003C  8115  1  500.                IF    ('LT RS,RQIR01',M),BEGIN
 00032C 47B0 A318            0033A  8126  1          +
 000330 9610 201E      0001E        8131  2  501.                  SET   RQIF01              R1 was complimented
 000334 1311                        8137  2  502.                  LCR   RS,RS
 000336 5010 203C            0003C  8138  2  503.                  ST    RS,RQIR01
 00033A                             8139  1  504.                END   ,
 00033A                             8143     505.              END   ,
0                                   8148     507.     * This should only happen when CLP is detaching a file during HALT
                                    8149     508.     * processing.
 00033A 5890 500C/1299       0000C  8150     509.              IF    ('LT RN,RQFBRQWB',NZ),BEGIN IO already in progress?
 000340 4780 A368            0038A  8161             +
 000344 9104 2006      00006        8166  1  510.                IF    (~RQAHALT,OR,~RQACLP,OR,~RQDTCH),BEGIN
 000348 47E0 A33A            0035C  8180  1          +
 00034C 9110 2006      00006        8189  1          +
 000350 47E0 A33A            0035C  8192  1          +
 000354 9518 201C      0001C        8201  1          +
 000358 4780 A358            0037A  8202  1          +
 00035C 83000012/8410               8207  2  511.                  ORVSNAP 'NOT_CLP_DET_HALT',MODE=WTL
 000362 4100 AD8E            00DB0  8212  2          +
 000366 83000012                    8213  2  512.                  ORVSNAP RQWB,L'RQWB
 00036A 14D000002000                8217  2          +
 000370 83000012                    8218  2  513.                  WITH  (RQWB,RN),'ORVSNAP RQWB,L"RQWB'
 USING  RQWB,R9
 000374 14D000009000                8237  2          +
 DROP   RQWB,R9
 00037A                             8246  1  514.                END   ,
 USING  RQWB,R9                     8250  1  515.                WITH  (RQWB,RN),BEGIN
 00037A 9604 9006      00006        8264  2  516.                  SET   RQAHALT             Make sure he knows
 00037E                             8270  2  517.                  CLEAR RQWBRQFB            He is an orphan now
 00037E D703 9028 9028 00028 00028  8276  2          +
 000384                             8277  2  518.                  CLEAR RQATFB              We'll detach for him
 000384 D703 9018 9018 00018 00018  8283  2          +
 DROP   RQWB,R9                     8284  1  519.                END   ,
 00038A                             8292     520.              END   ,                   IO already in progress?
1FILEMAN  (FILEMA) (09:39) (22MAR04) ORVYL'S File Manager                                                                   Page   77
0Current Usings:  (PZERO,R0) (RQWB,R2) (ASFB,R4) (RQFB,R5) (M1FILE,R10) (@M1FILE-72,R12) (@VMGET-72,R13)
0D-Loc  Object Code    Addr1 Addr2  Stmt Lv Lineno    Source Statement           (Hibal 5, Asmedit 3.3)  HLASM R4.0  2004/03/22 09.39
+_____  ______ ____    _____ _____  ____ __ ______    ______ _________
000038A 5020 500C            0000C  8297     522.              ST    RA,RQFBRQWB         Set pointer from RQFB to RQWB
 00038E 5050 2028            00028  8298     523.              ST    RK,RQWBRQFB         And vice versa
0000392 9104 2006      00006        8300     525.              IF    (RQAHALT,AND,~RQACLP),BEGIN
 000396 47E0 A38A            003AC  8312             +
 00039A 9110 2006      00006        8323             +
 00039E 4710 A38A            003AC  8324             +
 0003A2 4100 0001            00001  8329  1  526.                LA    RVR,1               No IO
 0003A6 D203 2044 ADB2 00044 00DD4  8330  1  527.                MVC   RQRR15,=F'-12'      Set not available
 0003AC                             8331     528.              END   ,
 0003AC A38E           003AC 00398  8335     529.              ELSE  BEGIN
 0003A0 A38E           003A2 003AC  8340             +
 0003AC 47F0 A39C            003BE  8342             +
 0003B0 1F99/4390 201C       0001C  8348  1  530.                LC    RN,RQTYPE           Set request type
 0003B6 5899 A5E2            00604  8355  1  531.                L     RN,RTNTAB(RN)       Get routine address
 0003BA 18F9/0DEF                   8356  1  532.                ACALL (RN)                Edit SVC parameters
 0003BE                             8363     533.              END   ,
0                                   8368     535.     * Set return registers
 0003BE                             8369     536.              IF    (RQRR14,NE,=X'80000000'),'MVC @M1FR14,RQRR14'
 0003BE D503 ADBE 2040 00DE0 00040  8380             +
 0003C4 4780 A3AC            003CE  8381             +
 0003C8 D203 C048 2040 00000 00040  8387             +
 0003CE                             8392     537.              IF    (RQRR15,NE,=X'80000000'),'MVC @M1FR15,RQRR15'
 0003CE D503 ADBE 2044 00DE0 00044  8403             +
 0003D4 4780 A3BC            003DE  8404             +
 0003D8 D203 C04C 2044 00004 00044  8410             +
 0003DE                             8415     538.              IF    (RQRR00,NE,=X'80000000'),'MVC @M1FR00,RQRR00'
 0003DE D503 ADBE 2048 00DE0 00048  8426             +
 0003E4 4780 A3CC            003EE  8427             +
 0003E8 D203 C050 2048 00008 00048  8433             +
 0003EE                             8438     539.              IF    (RQRR01,NE,=X'80000000'),'MVC @M1FR01,RQRR01'
 0003EE D503 ADBE 204C 00DE0 0004C  8449             +
 0003F4 4780 A3DC            003FE  8450             +
 0003F8 D203 C054 204C 0000C 0004C  8456             +
0                                   8462     541.     * Sometimes all the returns for the wait svc are already known
                                    8463     542.     * and IO or further processing is not necessary
 0003FE D203 C058 2050 00010 00050  8464     543.              MVC   @M1FWR14,RQWR14     Set wait regs in case
 000404 D203 C05C 2054 00014 00054  8465     544.              MVC   @M1FWR15,RQWR15
 00040A D203 C060 2058 00018 00058  8466     545.              MVC   @M1FWR01,RQWR01
0000410 D217 5010 2004 00010 00004  8468     547.              MVC   RQFBASV,RQATTF      Get saved fields
0000416 9180 2020      00020        8470     549.              IF    RQRFRE,BEGIN        All done?
 00041A 47E0 A42C            0044E  8480             +
 00041E 1890                        8485  1  550.                LR    RN,RVR
 DROP   @VMGET-72,R13               8486  1  551.                PSET  @RELRQFB
 USING  @RELRQFB-72,R13
 000420 D703 D048 D048 00000 00000  8506  1          +
 000426 5050 D048            00000  8507  1  552.                PMOV  @RELRQFP,LA:RQFB
 00042A 58F0 ADC2/0DEF       00DE4  8518  1  553.                ACALL RELRQFB             Free RQFB
 000430 1B55                        8525  1  554.                CLEAR RK                  Clear pointer
                                    8529  1  555.                SPUSH HEAD=ASFBFW,ITEM=RQWB Put avail item on free list
1FILEMAN  (FILEMA) (09:39) (22MAR04) ORVYL'S File Manager                                                                   Page   78
0Current Usings:  (PZERO,R0) (RQWB,R2) (ASFB,R4) (RQFB,R5) (M1FILE,R10) (@M1FILE-72,R12) (@RELRQFB-72,R13)
0D-Loc  Object Code    Addr1 Addr2  Stmt Lv Lineno    Source Statement           (Hibal 5, Asmedit 3.3)  HLASM R4.0  2004/03/22 09.39
+_____  ______ ____    _____ _____  ____ __ ______    ______ _________
0000432 98EF 4008            00008  8531  1 01-01624 +           LM    R14,R15,ASFBFW      Get fwd ptr and sequence number
 000436 4100 2000            00000  8532  1 01-01625 +           LA    RVR,RQWB            Point to new item
 00043A                             8537  1 04-LABEL +$$$94S     DS    0H
 00043A 411F 0001            00001  8539  2 01-01627 +             LA    RS,1(R15)           Increment sequence
 00043E D203 2000 4008 00000 00008  8540  2 01-01628 +             MVC   RQWB(L'ASFBFWFP),ASFBFWFP   Set item fwd ptr
 000444 BBE0 4008            00008  8541  1 01-01629 +           CDS   R14,RVR,ASFBFW      Add item to list
 000448 4770 A418            0043A  8555  1 05-$BC   +           BC    7,$$$94S
 00044C                             8558  1 06-LABEL +$$$94F     DS    0H
 00044C 1809                        8562  1  556.                LR    RVR,RN
 00044E                             8563     557.              END   ,
 00044E A430           0044E 0041C  8567     558.              ELSEIF (RVR,Z),BEGIN      Start IO
 00044E 47F0 A46E/1200       00490  8573             +
 000454 4770 A46E            00490  8585             +
 000458 D203 2074 020C 00074 0020C  8590  1  559.                MVC   RQTSK,PZCURTSK      Get requestor task id
 DROP   @RELRQFB-72,R13             8591  1  560.                PSET  @TCREATE
 USING  @TCREATE-72,R13
 00045E D714 D048 D048 00000 00000  8611  1          +
 000464 5050 D050            00008  8612  1  561.                ST    RK,@TCRPARM         RQFB is the parameter
 000468 5020 D054            0000C  8613  1  562.                ST    RA,@TCRPARM+4       RQWB is the parameter
 00046C 4110 0001            00001  8614  1  563.                LA    RS,1
 000470 5010 D058            00010  8615  1  564.                ST    RS,@TCRPRIO         Just above the caller
 000474 D203 D048 ADC6 00000 00DE8  8616  1  565.                MVC   @TCRPSW(4),=X'070C0000' Set PSW
 00047A D203 D04C ADCA 00004 00DEC  8617  1  566.                MVC   @TCRPSW+4(4),=A(M1FILEIO)
 000480 9680 D04C      00004        8618  1  567.                SET   @TCRPSW+4.X'80'     31 bit addressing
 000484 9680 D05C      00014        8625  1  568.                SET   @TCRFSTK            Task needs a stack
 000488 58F0 ADCE/0DEF       00DF0  8631  1  569.                VCALL TCREATE             Just do it!
 00048E 1B00                        8635  1  570.                CLEAR RVR
 000490                             8639     571.              END   ,
 000490 A472           00490 00456  8643     572.              ELSE  BEGIN               No IO, done with RQWB
 000490 47F0 A496            004B8  8648             +
 000494                             8654  1  573.                CLEAR RQFBRQWB
 000494 D703 500C 500C 0000C 0000C  8660  1          +
 00049A 1890                        8661  1  574.                LR    RN,RVR
                                    8662  1  575.                SPUSH HEAD=ASFBFW,ITEM=RQWB Put avail item on free list
 00049C 98EF 4008            00008  8664  1 01-01624 +           LM    R14,R15,ASFBFW      Get fwd ptr and sequence number
 0004A0 4100 2000            00000  8665  1 01-01625 +           LA    RVR,RQWB            Point to new item
 0004A4                             8670  1 04-LABEL +$$$101S    DS    0H
 0004A4 411F 0001            00001  8672  2 01-01627 +             LA    RS,1(R15)           Increment sequence
 0004A8 D203 2000 4008 00000 00008  8673  2 01-01628 +             MVC   RQWB(L'ASFBFWFP),ASFBFWFP   Set item fwd ptr
 0004AE BBE0 4008            00008  8674  1 01-01629 +           CDS   R14,RVR,ASFBFW      Add item to list
 0004B2 4770 A482            004A4  8688  1 05-$BC   +           BC    7,$$$101S
 0004B6                             8691  1 06-LABEL +$$$101F    DS    0H
 0004B6 1809                        8695  1  576.                LR    RVR,RN
 0004B8                             8696     577.              END   ,
00004B8 5050 C068            00020  8701     579.              ST    RK,@M1FDVID         Set this field
00004BC 981F C008            00008  8703     581.              PEND  ,
 DROP   RQWB,R2
 DROP   ASFB,R4
 DROP   RQFB,R5
 DROP   @M1FILE-72,R12
 DROP   M1FILE,R10
 0004C0 9680 C000/0B0E 00000        8733             +
1FILEMAN  (FILEMA) (09:39) (22MAR04) ORVYL'S File Manager                                                                   Page   79
0Current Usings:  (PZERO,R0)
0D-Loc  Object Code    Addr1 Addr2  Stmt Lv Lineno    Source Statement           (Hibal 5, Asmedit 3.3)  HLASM R4.0  2004/03/22 09.39
+_____  ______ ____    _____ _____  ____ __ ______    ______ _________
0DROP   @TCREATE-72,R13
1FILEMAN  (FILEMA) (09:39) (22MAR04) ORVYL'S File Manager                                                                   Page   80
0Current Usings:  (PZERO,R0)
0Loc    Object Code    Addr1 Addr2  Stmt Lv Lineno    Source Statement           (Hibal 5, Asmedit 3.3)  HLASM R4.0  2004/03/22 09.39
+___    ______ ____    _____ _____  ____ __ ______    ______ _________
0                                   8743     583.     *---------------------------------------------------------------------*
                                    8744     584.     *  M1FILEIO - Created task to process file IO requests
                                    8745     585.     *
                                    8746     586.     *   Inputs -  @TEPARM
                                    8747     587.     *
                                    8748     588.     *   Output -
                                    8749     589.     *---------------------------------------------------------------------*
 0004C6                             8750     590.     M1FILEIO PROC  @TENTRY
 0004C6 D4F1C6C9D3C5C9D6            8757             +
 0004CE 0008/0000                   8758             +
 0004D2 900F D004/18AF       00004  8760             +
 USING  M1FILEIO,R10
 0004D8 50D0 C000/18CD       00000  8775             +
 0004DE 9680 C000      00000        8777             +
 USING  @TENTRY-72,R12
 0004E2 41D0 C050            00050  8791             +
0                                   8793     592.     * Set up trace table registers
 0004E6 5850 C048            00000  8794     593.              L     RK,@TEPARM          RQFB addr
 USING  RQFB,R5                     8795     594.              WITH  (RQFB,RK)
 0004EA 5890 C04C            00004  8808     595.              L     RN,@TEPARM+4
 USING  RQWB,R9                     8809     596.              WITH  (RQWB,RN),BEGIN
                                    8823  1  597.     * Note: these registers are not un-complimented
 0004EE 98E1 9030            00030  8824  1  598.                LM    R14,R1,RQIR14       Set SVC input R14 to R1
 0004F2 1F22/4320 901C       0001C  8825  1  599.                LC    R2,RQTYPE           SVC type
 0004F8 5830 9018            00018  8832  1  600.                L     R3,RQATFB           Attached file pointer
 0004FC 5840 0208            00208  8833  1  601.                L     R4,PZCURASB         ASB pointer
 DROP   RQWB,R9                     8834     602.              END   ,
 000500 99E4 A99E            00E70  8842     603.              XTRC  R14,R4,M1FILEIO     Save some clues
 000E6E 0000/00000E70                     1          +
 000E74 00000385/0E04               8851  1          +
 000E7A D4F1C6C9D3C5C9D6            8853             +
0USING  RQWB,R2                     8861     605.              WITH  (RQWB,RA)
 000504 5820 C04C            00004  8874     606.              L     RA,@TEPARM+4
0000508 D203 2040 A90E 00040 00DE0  8876     608.              MVC   RQRR14,=X'80000000' Set ind
 00050E D203 2044 A90E 00044 00DE0  8877     609.              MVC   RQRR15,=X'80000000' Set ind
 000514 D203 2048 A90E 00048 00DE0  8878     610.              MVC   RQRR00,=X'80000000' Set ind
 00051A D203 204C A90E 0004C 00DE0  8879     611.              MVC   RQRR01,=X'80000000' Set ind
0000520 9104 2006      00006        8881     613.              IF    (RQAHALT,AND,~RQACLP),BEGIN
 000524 47E0 A064            00536  8893             +
 000528 9110 2006      00006        8904             +
 00052C 4710 A064            00536  8905             +
 000530 D203 2044 A922 00044 00DF4  8910  1  614.                MVC   RQRR15,=F'-4'       Set error
 000536                             8911     615.              END   ,
 000536 A068           00536 00526  8915     616.              ELSE  BEGIN
 00052E A068           00530 00536  8920             +
 000536 47F0 A076            00548  8922             +
 00053A 1F99/4390 201C       0001C  8928  1  617.                LC    RN,RQTYPE           Get type
 000540 5899 A156            00628  8935  1  618.                L     RN,RTNTABI(RN)      Get routine address
 000544 18F9/0DEF                   8936  1  619.                ACALL (RN)                Do the IO
 000548                             8943     620.              END   ,
1FILEMAN  (FILEMA) (09:39) (22MAR04) ORVYL'S File Manager                                                                   Page   81
0Current Usings:  (PZERO,R0) (RQWB,R2) (RQFB,R5) (M1FILEIO,R10) (@TENTRY-72,R12)
0Loc    Object Code    Addr1 Addr2  Stmt Lv Lineno    Source Statement           (Hibal 5, Asmedit 3.3)  HLASM R4.0  2004/03/22 09.39
+___    ______ ____    _____ _____  ____ __ ______    ______ _________
0                                   8948     622.     * Halt processing started while IO was occuring? (CLP detached the
                                    8949     623.     * file?)
 000548                             8950     624.              IF    (RQWBRQFB,NZ),BEGIN Not superceded by halt processing
 000548 D603 2028 2028 00028 00028  8960             +
 00054E 4780 A0A8            0057A  8961             +
 000552 D217 5010 2004 00010 00004  8966  1  625.                MVC   RQFBASV,RQATTF      Get saved fields
 000558 9180 2020      00020        8967  1  626.                IF    RQRFRE,BEGIN        All done?
 00055C 47E0 A09E            00570  8977  1          +
 USING  @RELRQFB-72,R13             8982  2  627.                  PSET  @RELRQFB
 000560 D703 D048 D048 00000 00000  8999  2          +
 000566 5050 D048            00000  9000  2  628.                  PMOV  @RELRQFP,LA:RQFB
 00056A 58F0 A912/0DEF       00DE4  9011  2  629.                  ACALL RELRQFB
 000570                             9018  1  630.                END   ,
 000570 A0A2           00570 0055E  9022  1  631.                ELSE  'CLEAR RQFBRQWB'
 000570 47F0 A0A8            0057A  9027  1          +
 000574 D703 500C 500C 0000C 0000C  9040  1          +
 00057A                             9045     632.              END   ,                   Not superceded by halt processing
0                                   9050     634.     *  Notify task of completion
 00057A 9200 D048      00000        9051     635.              PSET  @XITNEW             Get exit request ID
 DROP   @RELRQFB-72,R13
 USING  @XITNEW-72,R13
 00057E 58F0 A926/0DEF       00DF8  9072     636.              VCALL XITNEW
 000584 1860                        9076     637.              LR    RX,RVR
0DROP   @XITNEW-72,R13              9078     639.              PSET  @XITDO              Notify task
 USING  @XITDO-72,R13
 000586 D71F D048 D048 00000 00000  9098             +
 00058C 5060 D048            00000  9099     640.              PMOV  @XITRQID,(RX)
 000590                             9109     641.              PMOV  @XITTSK,RQTSK
 000590 D203 D04C 2074 00004 00074  9113             +
 000596 4100 0009            00009  9114     642.              PMOV  @XITTYPE,LA:XITTIOCN
 00059A 4200 D050            00008  9130             +
 AUSING (@M1FPOST,@XITPARM)         9131     643.              WITH  (@M1FPOST,@XITPARM)
 00059E                             9138     644.              PMOV  @M1FPRQI,RQRQID
 00059E D203 D058 2068 00000 00068  9142             +
 0005A4 9180 2020      00020        9143     645.              IF    RQRFRE,'OI @M1FPRQI,@M1FREDV'
 0005A8 47E0 A0DE            005B0  9153             +
 0005AC 9680 D058      00000        9159             +
 0005B0                             9164     646.              PMOV  @M1FPR01,RQRR01
 0005B0 D203 D064 204C 0000C 0004C  9168             +
 0005B6                             9169     647.              PMOV  @M1FPR14,RQRR14
 0005B6 D203 D05C 2040 00004 00040  9173             +
 0005BC                             9174     648.              PMOV  @M1FPR15,RQRR15
 0005BC D203 D060 2044 00008 00044  9178             +
 0005C2 58F0 A92A/0DEF       00DFC  9179     649.              VCALL XITDO
0DROP   @XITDO-72,R13               9184     651.              PSET  @XITDEL             Delete exit request ID
 USING  @XITDEL-72,R13
 0005C8 D703 D048 D048 00000 00000  9204             +
 0005CE 5060 D048            00000  9205     652.              PMOV  @XITDID,(RX)
 0005D2 58F0 A92E/0DEF       00E00  9215     653.              VCALL XITDEL
00005D8 5840 206C            0006C  9220     655.              L     RJ,RQASFB
1FILEMAN  (FILEMA) (09:39) (22MAR04) ORVYL'S File Manager                                                                   Page   82
0Current Usings:  (PZERO,R0) (RQWB,R2) (ASFB,R4) (RQFB,R5) (M1FILEIO,R10) (@TENTRY-72,R12) (@XITDEL-72,R13)
0Loc    Object Code    Addr1 Addr2  Stmt Lv Lineno    Source Statement           (Hibal 5, Asmedit 3.3)  HLASM R4.0  2004/03/22 09.39
+___    ______ ____    _____ _____  ____ __ ______    ______ _________
0USING  ASFB,R4                     9221     656.              WITH  (ASFB,RJ)
                                    9234     657.              SPUSH HEAD=ASFBFW,ITEM=RQWB Put avail item on free list
 0005DC 98EF 4008            00008  9236    01-01624 +         LM    R14,R15,ASFBFW      Get fwd ptr and sequence number
 0005E0 4100 2000            00000  9237    01-01625 +         LA    RVR,RQWB            Point to new item
 0005E4                             9242    04-LABEL +$$$113S  DS    0H
 0005E4 411F 0001            00001  9244  1 01-01627 +           LA    RS,1(R15)           Increment sequence
 0005E8 D203 2000 4008 00000 00008  9245  1 01-01628 +           MVC   RQWB(L'ASFBFWFP),ASFBFWFP   Set item fwd ptr
 0005EE BBE0 4008            00008  9246    01-01629 +         CDS   R14,RVR,ASFBFW      Add item to list
 0005F2 4770 A112            005E4  9260    05-$BC   +         BC    7,$$$113S
 0005F6                             9263    06-LABEL +$$$113F  DS    0H
0DROP   @XITDEL-72,R13              9268     659.              PSET  @TEXIT              Exit this task
 USING  @TEXIT-72,R13
 0005F6 D703 D048 D048 00000 00000  9288             +
 0005FC 58F0 A932/0DEF       00E04  9289     660.              VCALL TEXIT
0DROP   ASFB,R4                     9294     662.              PEND  CODE=NO
 DROP   RQWB,R2
 DROP   RQFB,R5
 DROP   @TENTRY-72,R12
 DROP   M1FILEIO,R10
 DROP   @TEXIT-72,R13
0000602 0000
 000604 00000000                    9331     664.     RTNTAB   DC    A(0)                SVC routines
 000608 00000658                    9332     665.              DC    A(M1FATCH)
 00060C 00000E8E                    9333     666.              DC    A(M1FREAD)
 000610 0000144A                    9334     667.              DC    A(M1FWRIT)
 000614 00001ECA                    9335     668.              DC    A(M1FCONT)
 000618 000032E0                    9336     669.              DC    A(M1FSTAT)
 00061C 00000D7A                    9337     670.              DC    A(M1FDTCH)
 000620 00004680                    9338     671.              DC    A(M1FRSRV)
 000624 0000475A                    9339     672.              DC    A(M1FRLSE)
0000628 00000000                    9341     674.     RTNTABI  DC    A(0)                IO routines
 00062C 00000AF6                    9342     675.              DC    A(M1IATCH)
 000630 00000F34                    9343     676.              DC    A(M1IREAD)
 000634 0000152C                    9344     677.              DC    A(M1IWRIT)
 000638 0000244A                    9345     678.              DC    A(M1ICONT)
 00063C 00003DA6                    9346     679.              DC    A(M1ISTAT)
 000640 00000000                    9347     680.              DC    A(0)                No IO
 000644 000046B2                    9348     681.              DC    A(M1IRSRV)
 000648 00000000                    9349     682.              DC    A(0)                No IO
1FILEMAN  (FILEMA) (09:39) (22MAR04) ORVYL'S File Manager                                                                   Page   83
0Current Usings:  (PZERO,R0)
0Loc    Object Code    Addr1 Addr2  Stmt Lv Lineno    Source Statement           (Hibal 5, Asmedit 3.3)  HLASM R4.0  2004/03/22 09.39
+___    ______ ____    _____ _____  ____ __ ______    ______ _________
0                                   9351     684.     *---------------------------------------------------------------------*
                                    9352     685.     *  M1FATCH - File ATTACH processing, preliminary edits
                                    9353     686.     *
                                    9354     687.     *   Inputs - RA points to RQWB
                                    9355     688.     *
                                    9356     689.     *   Output -
                                    9357     690.     *---------------------------------------------------------------------*
 000000                00000 00001  9358     691.     #FATCH   RECORD BEGIN
 000000 00                          9366  1  692.     #FATCHF    FLAG  ,
 #FATCHF.#FATCHFN  80 ONES          9370  1  693.                FLAG  #FATCHFN            Newly attached
 000001                00001 00001  9375     694.              END   ,
000064C                             9385     696.     M1FATCH  PROC  ,#FATCH
 00064C D4F1C6C1E3C3C840            9392             +
 000654 0000/0008                   9393             +
 000658 900F D004/18AF       00004  9395             +
 USING  M1FATCH,R10
 00065E 50D0 C000/18CD       00000  9410             +
 000664 9680 C000      00000        9412             +
 USING  #FATCH-72,R12
 000668 41D0 C050            00050  9426             +
 USING  RQWB,R2                     9427     697.              WITH  (RQWB,RA)
 USING  FSB,R3                      9440     698.              WITH  (FSB,RB)
000066C 5880 206C            0006C  9454     700.              L     RM,RQASFB           Point to ASFB
 USING  ASFB,R8                     9455     701.              WITH  (ASFB,RM)
 USING  ATFB,R6                     9468     702.              WITH  (ATFB,RX)
 000670 5870 0200            00200  9481     703.              ADFCB ,                   FILECB
 USING  MAT,R7
 000674 5870 7028            00028  9498             +
 DROP   MAT,R7
 USING  FILECB,R7
 000678 9200 C048      00000        9520     704.              CLEAR #FATCH
000067C                             9528     706.              IF    (RQIFILE,Z),BEGIN   Temp file
 00067C D603 203C 203C 0003C 0003C  9538             +
 000682 4770 A16E            007C6  9539             +
 000686 9140 201E      0001E        9544  1  707.                IF    RQOLD,M1FATW16      Can't be an old file
 00068A 4710 A466            00ABE  9556  1          +
 00068E 9640 2006      00006        9562  1  708.                SET   RQATMP
                                    9568  1  709.     *  Create a name for the file
 USING  @SETFNAM-72,R13             9569  1  710.                PSET  @SETFNAM
 000692 D707 D048 D048 00000 00000  9586  1          +
 000698 4100 A7B0            00E08  9587  1  711.                PMOV  @SETFNA,LA:=C'TEMP'
 00069C 5000 D048            00000  9603  1          +
 0006A0 4100 0004            00004  9604  1  712.                PMOV  @SETFNL,LA:4
 0006A4 5000 D04C            00004  9620  1          +
 0006A8 58F0 A7B4/0DEF       00E0C  9621  1  713.                ACALL SETFNAME            Set file name
 0006AE 1200/4770 A440       00A98  9628  1  714.                IF    (RVR,NZ),M1FATRVR   Error return
 0006B4                             9645  1  715.                IF    (FILTEMPF,NZ),'MVC RQFSB,FILTEMPF' Set special file sys
 0006B4 D603 7034 7034 00034 00034  9655  1          +
 0006BA 4780 A06C            006C4  9656  1          +
 0006BE D203 2024 7034 00024 00034  9662  1          +
 0006C4 5830 2024            00024  9667  1  716.                L     RB,RQFSB            Point to FSB
1FILEMAN  (FILEMA) (09:39) (22MAR04) ORVYL'S File Manager                                                                   Page   84
0Current Usings:  (PZERO,R0) (RQWB,R2) (FSB,R3) (ATFB,R6) (FILECB,R7) (ASFB,R8) (M1FATCH,R10) (#FATCH-72,R12) (@SETFNAM-72,R13)
0Loc    Object Code    Addr1 Addr2  Stmt Lv Lineno    Source Statement           (Hibal 5, Asmedit 3.3)  HLASM R4.0  2004/03/22 09.39
+___    ______ ____    _____ _____  ____ __ ______    ______ _________
00006C8 4D10 A412            00A6A  9668  1  717.                BAS   RS,M1FATAV          Check availability
 0006CC 924B 2087      00087        9669  1  718.                MVI   RQNAM2+4,C'.'       Set dot after TEMP
 0006D0 4110 2088            00088  9670  1  719.                LA    RS,RQNAM2+5         Point to end of name
 0006D4 58F0 A7B8/0DEF       00E10  9671  1  720.                ACALL SETTEMPN            Finish with date and time
                                    9678  1  721.                SAVAIL HEAD=FILEATFB,LEN=L'ATFB Get an avail ATFB
 0006DA 9801 7040            00040  9681  1 02-01652 +           LM    RVR,RS,FILEATFB     Get fwd and sequence number
 0006DE                             9686  1 05-LABEL +$$$121S    DS    0H
 0006DE 1200                        9696  2 05-$REL  +             LTR   RVR,RVR
 0006E0 4780 A09E            006F6  9699  2 04-$BC   +             BC    8,$$$121F
 0006E4                             9702  2 05-LABEL +$$$122F      DS    0H
 0006E4 18E0                        9705  2 02-01655 +             LR    R14,RVR             Point to first item
 0006E6 58EE 0000            00000  9706  2 02-01656 +             L     R14,0(R14)          Get fwd pointer
 0006EA 41F1 0001            00001  9707  2 02-01657 +             LA    R15,1(RS)           Increment sequence
 0006EE BB0E 7040            00040  9708  1 02-01658 +           CDS   RVR,R14,FILEATFB    Remove item from list
 0006F2 4770 A086            006DE  9722  1 06-$BC   +           BC    7,$$$121S
 0006F6 1200/4770 A0F4       0074C  9725  1 07-LABEL +$$$121F    DS    0H
 DROP   @SETFNAM-72,R13             9744  2 02-VMGET +*,                                     Storage from pool 59
 USING  @VMGET-72,R13
 0006FC D70A D048 D048 00000 00000  9770  2          +
 000702 4100 0050            00050  9782  2          +
 000706 5000 D048            00000  9787  2          +
 00070A D201 D050 A7FC 00008 00E54  9788  2          +
 000710 58F0 A774/0DEF       00DCC  9791  2          +
 000716 1200/4770 A0F4       0074C  9800  2          +
 00071C AC04 021B      0021B        9810  3          +
 000720 9680 021A      0021A        9816  3          +
 000724 50F0 021C            0021C  9817  3          +
 000728 58F0 0210            00210  9818  3          +
 00072C 89F0 0010            00010  9819  3          +
 000730 88F0 0010            00010  9820  3          +
 000734 41F0 F000            00000  9821  3          +
 000738 AEFF 0006            00006  9822  3          +
 00073C D5D66DD4C5D46DC6            9823  2          +
 00074C 1860                        9832  1  722.                LR    RX,RVR
 00074E 5060 2018            00018  9833  1  723.                ST    RX,RQATFB           Save pointer
                                    9834  1  724.     * Note: this block is not put on the hash table but is
                                    9835  1  725.     *       referenced only by the RQFB.
 000752                             9836  1  726.                CLEAR ATFB
 000752 D74F 6000 6000 00000 00000  9842  1          +
 000758 D207 6000 A768 00000 00DC0  9843  1  727.                MVC   ATFBFP(8),=CL8'TempFile' This block is not on a list
 00075E D203 6008 A7BC 00008 00E14  9844  1  728.                MVC   ATFBID,=CL4'ATFB'   Set block id
 000764 D227 6028 207C 00028 0007C  9845  1  729.                MVC   ATFBNAME,RQNAMS     Set name
 00076A D201 600E A7FE 0000E 00E56  9846  1  730.                MVC   ATFBCNT,=Y(1)       Set to one attached
 000770 D203 6024 2024 00024 00024  9847  1  731.                MVC   ATFBFSB,RQFSB       Set FSB pointer
 000776 58E0 3134/18FE       00134  9848  1  732.                INCRS CTFILATP            Current attached temp files
 00077C 5EF0 A7C0            00E18  9859  2          +
 000780 BAEF 3134            00134  9860  1          +
 000784 4770 A122            0077A  9874  1          +
 000788 58E0 3138            00138  9880  1  733.                L     R14,CTFILAPM
 00078C 58F0 3134            00134  9881  1  734.                L     R15,CTFILATP
 000790                             9882  1  735.                LOOP  BEGIN
 000790 19FE/47C0 A146       0079E  9888  2  736.                  IF    (R15,LE,R14),EXIT   No new high water mark
 000796 BAEF 3138            00138  9906  2  737.                  CS    R14,R15,CTFILAPM    Set new high water mark
 00079A 4770 A138            00790  9907  1  738.                UNTIL Z,END
1FILEMAN  (FILEMA) (09:39) (22MAR04) ORVYL'S File Manager                                                                   Page   85
0Current Usings:  (PZERO,R0) (RQWB,R2) (FSB,R3) (ATFB,R6) (FILECB,R7) (ASFB,R8) (M1FATCH,R10) (#FATCH-72,R12) (@VMGET-72,R13)
0Loc    Object Code    Addr1 Addr2  Stmt Lv Lineno    Source Statement           (Hibal 5, Asmedit 3.3)  HLASM R4.0  2004/03/22 09.39
+___    ______ ____    _____ _____  ____ __ ______    ______ _________
000079E 58E0 70F0/18FE       000F0  9926  1  739.                INCRS TTFILATP            Current attached temp files
 0007A4 5EF0 A7C0            00E18  9937  2          +
 0007A8 BAEF 70F0            000F0  9938  1          +
 0007AC 4770 A14A            007A2  9952  1          +
 0007B0 58E0 70F4            000F4  9958  1  740.                L     R14,TTFILAPM
 0007B4 58F0 70F0            000F0  9959  1  741.                L     R15,TTFILATP
 0007B8                             9960  1  742.                LOOP  BEGIN
 0007B8 19FE/47C0 A16E       007C6  9966  2  743.                  IF    (R15,LE,R14),EXIT   No new high water mark
 0007BE BAEF 70F4            000F4  9984  2  744.                  CS    R14,R15,TTFILAPM    Set new high water mark
 0007C2 4770 A160            007B8  9985  1  745.                UNTIL Z,END
 0007C6                            10004     746.              END   ,                   Temp file
00007C6 A172           007C6 00684 10009     748.              ELSE  BEGIN               Not temp file
 0007C6 47F0 A400            00A58 10014             +
 DROP   @VMGET-72,R13              10020  1  749.                PSET  @SETFNAM
 USING  @SETFNAM-72,R13
 0007CA D707 D048 D048 00000 00000 10040  1          +
 0007D0                            10041  1  750.                PMOV  @SETFNA,RQIFILE
 0007D0 D203 D048 203C 00000 0003C 10045  1          +
 0007D6                            10046  1  751.                PMOV  @SETFNL,RQIFLEN
 0007D6 D203 D04C 2034 00004 00034 10050  1          +
 0007DC 58F0 A7B4/0DEF       00E0C 10051  1  752.                ACALL SETFNAME            Set file name
 0007E2 1200/4770 A440       00A98 10058  1  753.                IF    (RVR,NZ),M1FATRVR   Error return
 0007E8 5830 2024            00024 10075  1  754.                L     RB,RQFSB            Point to FSB
 0007EC 4D10 A412            00A6A 10076  1  755.                BAS   RS,M1FATAV          Check availability
 0007F0 5840 303C            0003C 10077  1  756.                L     RJ,FSBAHFB          Get file attach hash table ptr
 USING  AHFB,R4                    10078  1  757.                WITH  (AHFB,RJ)
0DROP   @SETFNAM-72,R13            10092  1  759.                PSET  @HASH
 USING  @HASH-72,R13
 0007F4 D70C D048 D048 00000 00000 10112  1          +
 0007FA 4100 2078            00078 10113  1  760.                PMOV  @HSHSTR,LA:RQNAME   File name
 0007FE 5000 D048            00000 10129  1          +
 000802 4100 002C            0002C 10130  1  761.                PMOV  @HSHLEN,LA:L'RQNAME Length
 000806 5000 D04C            00004 10146  1          +
 00080A 4100 0151            00151 10147  1  762.                PMOV  @HSHVAL,LA:AHFBCNT  Hash value
 00080E 5000 D050            00008 10163  1          +
 000812 9680 D054      0000C       10164  1  763.                SET   @HSHBLNK            Don't use trailing blanks
 000816 58F0 A7C4/0DEF       00E1C 10170  1  764.                VCALL HASHIT              Calculate hash number
 00081C 1850                       10174  1  765.                LR    RK,RVR              Get hash number
 00081E 4C50 A800            00E58 10175  1  766.                MH    RK,=Y(L'AHFBL)      Calculate index
 000822 4155 4010            00010 10176  1  767.                LA    RK,AHFBL(RK)        Point to queue
 USING  AHFBL,R5                   10177  1  768.                WITH  (AHFBL,RK)
0DROP   @HASH-72,R13               10191  1  770.                GRGET RID=AHFBGRID,EXCL=YES Reserve the table
 USING  @GRES-72,R13
 000826 D708 D048 D048 00000 00000 10212  1          +
 00082C D203 D04C 4004 00004 00004 10217  1          +
 000832 9680 D050      00008       10223  1          +
 000836 9640 D050      00008       10229  1          +
 00083A 58F0 A7C8/0DEF       00E20 10232  1          +
0000840 5860 5000            00010 10235  1  772.                L     RX,AHFBLFP          Point to first on list
 000844 1965/4780 A204       0085C 10236  1  773.                WHILE (RX,NE,RK),BEGIN    While not end of list
1FILEMAN  (FILEMA) (09:39) (22MAR04) ORVYL'S File Manager                                                                   Page   86
0Current Usings:  (PZERO,R0) (RQWB,R2) (FSB,R3) (AHFB,R4) (AHFBL,R5) (ATFB,R6) (FILECB,R7) (ASFB,R8) (M1FATCH,R10) (#FATCH-72,R12) (@GRES-72,R13)
0Loc    Object Code    Addr1 Addr2  Stmt Lv Lineno    Source Statement           (Hibal 5, Asmedit 3.3)  HLASM R4.0  2004/03/22 09.39
+___    ______ ____    _____ _____  ____ __ ______    ______ _________
000084A                            10253  2  774.                  IF    (ATFBNAME,EQ,RQNAMS),EXIT
 00084A D527 6028 207C 00028 0007C 10265  2          +
 000850 4780 A204            0085C 10268  2          +
 000854 5860 6000            00000 10274  2  775.                  L     RX,ATFBFP           Point to next on list
 000858 47F0 A1EC            00844 10275  1  776.                END
000085C 1965/4780 A216       0086E 10281  1  778.                IF    (RX,NE,RK),BEGIN    Already attached by someone
 000862 4110 0001            00001 10296  2  779.                  INCR  RS,ATFBCNT
 000866 4A10 600E            0000E 10300  2          +
 00086A 4010 600E            0000E 10301  2          +
 00086E                            10302  1  780.                END   ,                   Already attached by someone
 00086E A21A           0086E 00860 10306  1  781.                ELSE  BEGIN               First to attach
 00086E 47F0 A300            00958 10311  1          +
 000872 9620 2020      00020       10317  2  782.                  SET   RQR1ST              Indicate such
                                   10323  2  783.                  SAVAIL HEAD=FILEATFB,LEN=L'ATFB Get an avail ATFB
 000876 9801 7040            00040 10326  2 02-01652 +             LM    RVR,RS,FILEATFB     Get fwd and sequence number
 00087A                            10331  2 05-LABEL +$$$148S      DS    0H
 00087A 1200                       10341  3 05-$REL  +               LTR   RVR,RVR
 00087C 4780 A23A            00892 10344  3 04-$BC   +               BC    8,$$$148F
 000880                            10347  3 05-LABEL +$$$149F        DS    0H
 000880 18E0                       10350  3 02-01655 +               LR    R14,RVR             Point to first item
 000882 58EE 0000            00000 10351  3 02-01656 +               L     R14,0(R14)          Get fwd pointer
 000886 41F1 0001            00001 10352  3 02-01657 +               LA    R15,1(RS)           Increment sequence
 00088A BB0E 7040            00040 10353  2 02-01658 +             CDS   RVR,R14,FILEATFB    Remove item from list
 00088E 4770 A222            0087A 10367  2 06-$BC   +             BC    7,$$$148S
 000892 1200/4770 A290       008E8 10370  2 07-LABEL +$$$148F      DS    0H
 DROP   @GRES-72,R13               10389  3 02-VMGET +*,                                     Storage from pool 59
 USING  @VMGET-72,R13
 000898 D70A D048 D048 00000 00000 10415  3          +
 00089E 4100 0050            00050 10427  3          +
 0008A2 5000 D048            00000 10432  3          +
 0008A6 D201 D050 A7FC 00008 00E54 10433  3          +
 0008AC 58F0 A774/0DEF       00DCC 10436  3          +
 0008B2 1200/4770 A290       008E8 10445  3          +
 0008B8 AC04 021B      0021B       10455  4          +
 0008BC 9680 021A      0021A       10461  4          +
 0008C0 50F0 021C            0021C 10462  4          +
 0008C4 58F0 0210            00210 10463  4          +
 0008C8 89F0 0010            00010 10464  4          +
 0008CC 88F0 0010            00010 10465  4          +
 0008D0 41F0 F000            00000 10466  4          +
 0008D4 AEFF 0006            00006 10467  4          +
 0008D8 D5D66DD4C5D46DC6           10468  3          +
 0008E8 1860                       10477  2  784.                  LR    RX,RVR
 0008EA                            10478  2  785.                  CLEAR ATFB
 0008EA D74F 6000 6000 00000 00000 10484  2          +
 0008F0 D203 6008 A7BC 00008 00E14 10485  2  786.                  MVC   ATFBID,=CL4'ATFB'   Set block id
 0008F6 5050 6018            00018 10486  2  787.                  ST    RK,ATFBATL          Set attached list address
 0008FA D227 6028 207C 00028 0007C 10487  2  788.                  MVC   ATFBNAME,RQNAMS     Set name
 000900 D201 600E A7FE 0000E 00E56 10488  2  789.                  MVC   ATFBCNT,=Y(1)       Set to one attached
 000906 D203 6024 2024 00024 00024 10489  2  790.                  MVC   ATFBFSB,RQFSB       Set FSB pointer
 DROP   @VMGET-72,R13              10490  2  791.                  GRCRE CID=(RX)            Create a general resource
 USING  @GRES-72,R13
 00090C D708 D048 D048 00000 00000 10511  2          +
1FILEMAN  (FILEMA) (09:39) (22MAR04) ORVYL'S File Manager                                                                   Page   87
0Current Usings:  (PZERO,R0) (RQWB,R2) (FSB,R3) (AHFB,R4) (AHFBL,R5) (ATFB,R6) (FILECB,R7) (ASFB,R8) (M1FATCH,R10) (#FATCH-72,R12) (@GRES-72,R13)
0Loc    Object Code    Addr1 Addr2  Stmt Lv Lineno    Source Statement           (Hibal 5, Asmedit 3.3)  HLASM R4.0  2004/03/22 09.39
+___    ______ ____    _____ _____  ____ __ ______    ______ _________
0000912 5060 D048            00000 10521  2          +
 000916 58F0 A7CC/0DEF       00E24 10524  2          +
 00091C 5000 601C            0001C 10526  2  792.                  ST    RVR,ATFBAGRI        One for attaching
 000920                            10527  2  793.                  GRCRE CID=(RX)            Create a general resource
 000920 D708 D048 D048 00000 00000 10538  2          +
 000926 5060 D048            00000 10548  2          +
 00092A 58F0 A7CC/0DEF       00E24 10551  2          +
 000930 5000 6020            00020 10553  2  794.                  ST    RVR,ATFBRGRI        One for reserve processing
 000934 41E0 0001            00001 10554  2  795.                  LADD  AHFBL,LA:ATFB,WR=RS Add to the list
 000938 5EE0 5008            00008 10581  2          +
 00093C 50E0 5008            00008 10582  2          +
 000940 58E0 5004            00004 10589  2          +
 000944 5060 5004            00004 10595  2          +
 000948 5050 6000            00000 10596  2          +
 00094C 50E0 6004            00004 10602  2          +
 000950 5060 E000            00000 10603  2          +
 000954 9680 C048      00000       10605  2  796.                  SET   #FATCHFN            Indicate newly attached
 000958                            10611  1  797.                END   ,                   First to attach
 000958 5060 2018            00018 10615  1  798.                ST    RX,RQATFB           Save pointer
 00095C                            10616  1  799.                GRREL RID=AHFBGRID        Release the hash table
 00095C D708 D048 D048 00000 00000 10627  1          +
 000962 D203 D04C 4004 00004 00004 10632  1          +
 000968 58F0 A7D0/0DEF       00E28 10635  1          +
000096E 58E0 312C/18FE       0012C 10638  1  801.                INCRS CTFILAUS            Current user attached files
 000974 5EF0 A7C0            00E18 10649  2          +
 000978 BAEF 312C            0012C 10650  1          +
 00097C 4770 A31A            00972 10664  1          +
 000980 58E0 3130            00130 10670  1  802.                L     R14,CTFILAUM
 000984 58F0 312C            0012C 10671  1  803.                L     R15,CTFILAUS
 000988                            10672  1  804.                LOOP  BEGIN
 000988 19FE/47C0 A33E       00996 10678  2  805.                  IF    (R15,LE,R14),EXIT   No new high water mark
 00098E BAEF 3130            00130 10696  2  806.                  CS    R14,R15,CTFILAUM    Set new high water mark
 000992 4770 A330            00988 10697  1  807.                UNTIL Z,END
 000996 58E0 70E8/18FE       000E8 10716  1  808.                INCRS TTFILAUS            Current user attached files
 00099C 5EF0 A7C0            00E18 10727  2          +
 0009A0 BAEF 70E8            000E8 10728  1          +
 0009A4 4770 A342            0099A 10742  1          +
 0009A8 58E0 70EC            000EC 10748  1  809.                L     R14,TTFILAUM
 0009AC 58F0 70E8            000E8 10749  1  810.                L     R15,TTFILAUS
 0009B0                            10750  1  811.                LOOP  BEGIN
 0009B0 19FE/47C0 A366       009BE 10756  2  812.                  IF    (R15,LE,R14),EXIT   No new high water mark
 0009B6 BAEF 70EC            000EC 10774  2  813.                  CS    R14,R15,TTFILAUM    Set new high water mark
 0009BA 4770 A358            009B0 10775  1  814.                UNTIL Z,END
 0009BE 9180 C048      00000       10794  1  815.                IF    #FATCHFN,BEGIN      Newly attached
 0009C2 47E0 A3BE            00A16 10804  1          +
 0009C6 58E0 3124/18FE       00124 10809  2  816.                  INCRS CTFILATT            Current attached files
 0009CC 5EF0 A7C0            00E18 10820  3          +
 0009D0 BAEF 3124            00124 10821  2          +
 0009D4 4770 A372            009CA 10835  2          +
 0009D8 58E0 3128            00128 10841  2  817.                  L     R14,CTFILATM
 0009DC 58F0 3124            00124 10842  2  818.                  L     R15,CTFILATT
 0009E0                            10843  2  819.                  LOOP  BEGIN
 0009E0 19FE/47C0 A396       009EE 10849  3  820.                    IF    (R15,LE,R14),EXIT   No new high water mark
1FILEMAN  (FILEMA) (09:39) (22MAR04) ORVYL'S File Manager                                                                   Page   88
0Current Usings:  (PZERO,R0) (RQWB,R2) (FSB,R3) (AHFB,R4) (AHFBL,R5) (ATFB,R6) (FILECB,R7) (ASFB,R8) (M1FATCH,R10) (#FATCH-72,R12) (@GRES-72,R13)
0Loc    Object Code    Addr1 Addr2  Stmt Lv Lineno    Source Statement           (Hibal 5, Asmedit 3.3)  HLASM R4.0  2004/03/22 09.39
+___    ______ ____    _____ _____  ____ __ ______    ______ _________
00009E6 BAEF 3128            00128 10867  3  821.                    CS    R14,R15,CTFILATM    Set new high water mark
 0009EA 4770 A388            009E0 10868  2  822.                  UNTIL Z,END
 0009EE 58E0 70E0/18FE       000E0 10887  2  823.                  INCRS TTFILATT            Current attached files
 0009F4 5EF0 A7C0            00E18 10898  3          +
 0009F8 BAEF 70E0            000E0 10899  2          +
 0009FC 4770 A39A            009F2 10913  2          +
 000A00 58E0 70E4            000E4 10919  2  824.                  L     R14,TTFILATM
 000A04 58F0 70E0            000E0 10920  2  825.                  L     R15,TTFILATT
 000A08                            10921  2  826.                  LOOP  BEGIN
 000A08 19FE/47C0 A3BE       00A16 10927  3  827.                    IF    (R15,LE,R14),EXIT   No new high water mark
 000A0E BAEF 70E4            000E4 10945  3  828.                    CS    R14,R15,TTFILATM    Set new high water mark
 000A12 4770 A3B0            00A08 10946  2  829.                  UNTIL Z,END
 000A16                            10965  1  830.                END   ,                   Newly attached
0                                  10970  1  832.     * check for already attached
 000A16 5890 8018            00018 10971  1  833.                L     RN,ASFBRQFP         First RQFB
 USING  RQFB,R9                    10972  1  834.                WITH  (RQFB,RN)
 000A1A 41F0 8018            00018 10985  1  835.                LA    R15,ASFBRQ          Point to list
 000A1E 199F/4780 A400       00A58 10986  1  836.                WHILE (RN,NE,R15),BEGIN   Check all RQFBs
 000A24 5920 900C            0000C 11003  2  837.                  IF    (RA,NE,RQFBRQWB),BEGIN Not this item
 000A28 4780 A3F8            00A50 11015  2          +
 AUSING (L.RQATTF,RQFBASV)         11020  3  838.                    WITH  (RQATTF,RQFBASV),LABEL=L Map RQWB saved fields in RQFB
 000A2C                            11027  3  839.                    IF    (RQATFB,EQ,L.RQATFB),BEGIN Already attached
 000A2C D503 2018 9024 00018 00018 11039  3          +
 000A32 4770 A3F8            00A50 11040  3          +
 000A36 D203 2048 9070 00048 00064 11045  4  840.                      MVC   RQRFID,L.RQFIID     Set file id
 000A3C 9180 9012      00006       11046  4  841.                      IF    ~L:RQADONE,M1FATR04 Attach in progress
 000A40 47E0 A448            00AA0 11058  4          +
 000A44 9120 9012      00006       11064  4  842.                      IF    L:RQASHR,M1FATR12   Already attached, mode=share
 000A48 4710 A45C            00AB4 11076  4          +
 000A4C 47F0 A452            00AAA 11082  4  843.                      B     M1FATR08            Already attached, not mode=share
 000A50                            11083  3  844.                    END   ,                   Already attached
 000A50                            11087  2  845.                  END   ,                   Not this item
 000A50 5890 9000            00000 11091  2  846.                  L     RN,RQFBFP           Point to next RQ
 000A54 47F0 A3C6            00A1E 11092  1  847.                END   ,                   Check all RQFBs
 DROP   RQFB,R9                    11097     848.              END   ,                   Not temp file
 DROP   AHFBL,R5
 DROP   AHFB,R4
0000A58 D203 2048 2064 00048 00064 11117     850.              MVC   RQRFID,RQFIID       Set file id
 000A5E 1B00                       11118     851.              CLEAR RVR
 000A60                            11122     852.              CLEAR RQRETC              Set good return code
 000A60 D703 2044 2044 00044 00044 11128             +
 000A66 47F0 A488            00AE0 11129     853.              EXIT  M1FATCH
0000A6A                            11133     855.     M1FATAV  LABEL ,
                                   11135     856.     * check for file system availability
 000A6A 9180 3009      00009       11136     857.              IF    (FSBANAVL),BEGIN    Not available
 000A6E 47E0 A424            00A7C 11146             +
 000A72                            11151  1  858.                CLEAR RQRARO              Set secondary return
 000A72 D703 204C 204C 0004C 0004C 11157  1          +
 000A78 47F0 A476            00ACE 11158  1  859.                B     M1FAT_12
 000A7C                            11159     860.              END   ,
 000A7C 9140 3009      00009       11163     861.              IF    (FSBARO,AND,~RQOLD),BEGIN Read only
1FILEMAN  (FILEMA) (09:39) (22MAR04) ORVYL'S File Manager                                                                   Page   89
0Current Usings:  (PZERO,R0) (RQWB,R2) (FSB,R3) (ATFB,R6) (FILECB,R7) (ASFB,R8) (M1FATCH,R10) (#FATCH-72,R12) (@GRES-72,R13)
0Loc    Object Code    Addr1 Addr2  Stmt Lv Lineno    Source Statement           (Hibal 5, Asmedit 3.3)  HLASM R4.0  2004/03/22 09.39
+___    ______ ____    _____ _____  ____ __ ______    ______ _________
0000A80 47E0 A43E            00A96 11175             +
 000A84 9140 201E      0001E       11186             +
 000A88 4710 A43E            00A96 11187             +
 000A8C D203 204C A7D4 0004C 00E2C 11192  1  862.                MVC   RQRARO,=F'4'        Set secondary return
 000A92 47F0 A476            00ACE 11193  1  863.                B     M1FAT_12
 000A96                            11194     864.              END   ,
 000A96 07F1                       11198     865.              BR    RS                  Return if good
0000A98                            11200     867.     M1FATRVR LABEL ,
 000A98 5000 2044            00044 11202     868.              ST    RVR,RQRETC          Set error return code
 000A9C 47F0 A480            00AD8 11203     869.              B     M1FATCHE            Exit
0000AA0                            11205     871.     M1FATR04 LABEL ,
 000AA0 D203 2044 A7D4 00044 00E2C 11207     872.              MVC   RQRETC,=F'4'        Attach already begun
 000AA6 47F0 A480            00AD8 11208     873.              B     M1FATCHE            Exit
0000AAA                            11210     875.     M1FATR08 LABEL ,
 000AAA D203 2044 A7D8 00044 00E30 11212     876.              MVC   RQRETC,=F'8'        Already attached, not share mode
 000AB0 47F0 A480            00AD8 11213     877.              B     M1FATCHE            Exit
0000AB4                            11215     879.     M1FATR12 LABEL ,
 000AB4 D203 2044 A7DC 00044 00E34 11217     880.              MVC   RQRETC,=F'12'       Already attached, share mode
 000ABA 47F0 A480            00AD8 11218     881.              B     M1FATCHE            Exit
0000ABE                            11220     883.     M1FATW16 LABEL ,
 000ABE                            11222     884.              CLEAR RQRETC              This error reported on wait svc
 000ABE D703 2044 2044 00044 00044 11228             +
 000AC4 D203 2054 A7E0 00054 00E38 11229     885.              MVC   RQWRETC,=F'16'      File does not exist
 000ACA 47F0 A480            00AD8 11230     886.              B     M1FATCHE            Exit
0000ACE                            11232     888.     M1FAT_12 LABEL ,
 000ACE D203 2044 A77C 00044 00DD4 11234     889.              MVC   RQRETC,=F'-12'      File system not available
 000AD4 47F0 A480            00AD8 11235     890.              B     M1FATCHE            Exit
0000AD8                            11237     892.     M1FATCHE LABEL ,
 000AD8 9680 2020      00020       11239     893.              SET   RQRFRE              Don't need an RQFB
 000ADC 4100 0001            00001 11245     894.              LA    RVR,1               Set error exit, no attach
 000AE0 981F C008            00008 11246     895.              PEND  ,
 DROP   FILECB,R7
 DROP   ATFB,R6
 DROP   ASFB,R8
 DROP   FSB,R3
 DROP   RQWB,R2
 DROP   #FATCH-72,R12
 DROP   M1FATCH,R10
 000AE4 9680 C000/0B0E 00000       11286             +
 DROP   @GRES-72,R13
1FILEMAN  (FILEMA) (09:39) (22MAR04) ORVYL'S File Manager                                                                   Page   90
0Current Usings:  (PZERO,R0)
0Loc    Object Code    Addr1 Addr2  Stmt Lv Lineno    Source Statement           (Hibal 5, Asmedit 3.3)  HLASM R4.0  2004/03/22 09.39
+___    ______ ____    _____ _____  ____ __ ______    ______ _________
0                                  11296     897.     *---------------------------------------------------------------------*
                                   11297     898.     *  M1IATCH - File ATTACH processing, IO part
                                   11298     899.     *
                                   11299     900.     *   Inputs - RA points to RQWB
                                   11300     901.     *
                                   11301     902.     *   Output -
                                   11302     903.     *---------------------------------------------------------------------*
 000AEA                            11303     904.     M1IATCH  PROC  ,
 000AEA D4F1C9C1E3C3C840           11310             +
 000AF2 0000/0000                  11311             +
 000AF6 900F D004/18AF       00004 11313             +
 USING  M1IATCH,R10
 000AFC 50D0 C000/18CD       00000 11328             +
 000B02 9680 C000      00000       11330             +
 000B06 41D0 C048            00048 11331             +
 USING  RQWB,R2                    11332     905.              WITH  (RQWB,RA)
 000B0A 5830 2024            00024 11345     906.              L     RB,RQFSB
 USING  FSB,R3                     11346     907.              WITH  (FSB,RB)
0000B0E 5860 2018            00018 11360     909.              L     RX,RQATFB
 USING  ATFB,R6                    11361     910.              WITH  (ATFB,RX)
0000B12 9140 2006      00006       11375     912.              IF    RQATMP,BEGIN        Temp file
 000B16 47E0 A090            00B86 11385             +
 000B1A 920F 2004      00004       11390  1  913.                MVI   RQAPERM,FPALL       Set permits
 000B1E 920F 201F      0001F       11391  1  914.                MVI   RQMPERM,FPALL       Set masked permits
 000B22 920F 600C      0000C       11392  1  915.                MVI   ATFBMASK,FPALL      Set file mask
 USING  @FMIXRAD-72,R13            11393  1  916.                PSET  @FMIXRAD
 000B26 D737 D048 D048 00000 00000 11410  1          +
 000B2C 5030 D048            00000 11411  1  917.                PMOV  @FMIXFSB,LA:FSB
 000B30 D227 D04C 207C 00004 0007C 11422  1  918.                MVC   @FMIXNAM,RQNAMS
 000B36 58F0 A346/0DEF       00E3C 11423  1  919.                ACALL FMIXRADD            Build an IXR for the temp file
 000B3C 1200/4770 A266       00D5C 11430  1  920.                IF    (RVR,NZ),M1IATRVR   Exit if error
 000B42 9104 2006      00006       11447  1  921.                IF    RQAHALT,M1IAT_04    Halt started during IXR build
 000B46 4710 A23E            00D34 11459  1          +
 000B4A D203 205C D074 0005C 0002C 11465  1  922.                MVC   RQFBLK,@FMIXBLK     Set first block number
 000B50 D203 6010 205C 00010 0005C 11466  1  923.                MVC   ATFBFBLK,RQFBLK     Set in ATFB
 000B56 5870 0200            00200 11467  1  924.                ADFCB ,                   FILECB
 USING  MAT,R7
 000B5A 5870 7028            00028 11484  1          +
 DROP   MAT,R7
 USING  FILECB,R7
 000B5E 58E0 70F8/18FE       000F8 11506  1  925.                INCRS TTFILTBK            Number of blocks in temp files
 000B64 5EF0 A322            00E18 11517  2          +
 000B68 BAEF 70F8            000F8 11518  1          +
 000B6C 4770 A06C            00B62 11532  1          +
 000B70 58E0 70FC            000FC 11538  1  926.                L     R14,TTFILTBM
 000B74 58F0 70F8            000F8 11539  1  927.                L     R15,TTFILTBK
 000B78                            11540  1  928.                LOOP  BEGIN
 000B78 19FE/47C0 A090       00B86 11546  2  929.                  IF    (R15,LE,R14),EXIT   No new high water mark
 000B7E BAEF 70FC            000FC 11564  2  930.                  CS    R14,R15,TTFILTBM    Set new high water mark
 000B82 4770 A082            00B78 11565  1  931.                UNTIL Z,END
 DROP   FILECB,R7                  11584     932.              END   ,                   Temp file
1FILEMAN  (FILEMA) (09:39) (22MAR04) ORVYL'S File Manager                                                                   Page   91
0Current Usings:  (PZERO,R0) (RQWB,R2) (FSB,R3) (ATFB,R6) (M1IATCH,R10) (@FMIXRAD-72,R13)
0Loc    Object Code    Addr1 Addr2  Stmt Lv Lineno    Source Statement           (Hibal 5, Asmedit 3.3)  HLASM R4.0  2004/03/22 09.39
+___    ______ ____    _____ _____  ____ __ ______    ______ _________
0000B86 A094           00B86 00B18 11594     934.              ELSE  BEGIN               Not a temp file
 000B86 47F0 A230            00D26 11599             +
 DROP   @FMIXRAD-72,R13            11605  1  935.                PSET  @FCPERM
 USING  @FCPERM-72,R13
 000B8A D73D D048 D048 00000 00000 11625  1          +
 000B90 5030 D048            00000 11626  1  936.                PMOV  @FCPFSB,LA:FSB
 000B94                            11637  1  937.                PMOV  @FCPNAME,RQNAMS     File name
 000B94 D227 D05B 207C 00013 0007C 11641  1          +
 000B9A                            11642  1  938.                PMOV  @FCPACC,RQFACC
 000B9A D205 D055 2008 0000D 00008 11646  1          +
 000BA0 9140 2007      00007       11647  1  939.                IF    RQAMAG,'SET @FCPFMAG'
 000BA4 47E0 A0B6            00BAC 11657  1          +
 000BA8 9680 D054      0000C       11668  1          +
 000BAC 9180 2007      00007       11673  1  940.                IF    RQAOWN,'SET @FCPFMAG'
 000BB0 47E0 A0C2            00BB8 11683  1          +
 000BB4 9680 D054      0000C       11694  1          +
 000BB8 9110 2006      00006       11699  1  941.                IF    (RQACLP,AND,RQNAX),'SET @FCPFNAX' CLP just looking
 000BBC 47E0 A0D6            00BCC 11711  1          +
 000BC0 9180 201E      0001E       11722  1          +
 000BC4 47E0 A0D6            00BCC 11723  1          +
 000BC8 9640 D054      0000C       11734  1          +
                                   11739  1  942.     * Special kludge
 000BCC                            11740  1  943.                IF    ((RQFACC,EQ,=C'GG.ORV'),AND,RQNAX),'SET @FCPFNAX'
 000BCC D505 A358 2008 00E4E 00008 11753  1          +
 000BD2 4770 A0EC            00BE2 11754  1          +
 000BD6 9180 201E      0001E       11765  1          +
 000BDA 47E0 A0EC            00BE2 11766  1          +
 000BDE 9640 D054      0000C       11777  1          +
                                   11782  1  944.     * End special kludge
 000BE2 9120 2020      00020       11783  1  945.                IF    ~RQR1ST,'SET @FCPFNAX' Don't update time every time
 000BE6 4710 A0F8            00BEE 11793  1          +
 000BEA 9640 D054      0000C       11804  1          +
 000BEE 9140 201E      0001E       11809  1  946.                IF    RQOLD,'VCALL FCATOPRM'
 000BF2 47E0 A106            00BFC 11819  1          +
 000BF6 58F0 A34A/0DEF       00E40 11827  1          +
 000BFC A10A           00BFC 00BF4 11833  1  947.                ELSE  'VCALL FCATNPRM'    Get permits for attach
 000BFC 47F0 A110            00C06 11838  1          +
 000C00 58F0 A34E/0DEF       00E44 11847  1          +
 000C06 1200/4770 A266       00D5C 11853  1  948.                IF    (RVR,NZ),M1IATRVR   Exit if error
 000C0C 9104 2006      00006       11870  1  949.                IF    RQAHALT,M1IAT_04    Not available
 000C10 4710 A23E            00D34 11882  1          +
0000C14 D200 2004 D084 00004 0003C 11889  1  951.                MVC   RQAPERM,@FCPPERM    Permits
 000C1A D200 201F 2004 0001F 00004 11890  1  952.                MVC   RQMPERM,RQAPERM     Determine masked permits
 000C20 D400 201F D083 0001F 0003B 11891  1  953.                NC    RQMPERM,@FCPFLGO    Limit with filemask
 000C26 D200 2005 D085 00005 0003D 11892  1  954.                MVC   RQCODE,@FCPCODE     File code
 000C2C D203 205C D04C 0005C 00004 11893  1  955.                MVC   RQFBLK,@FCPBLK      First block
 000C32 D203 2060 D050 00060 00008 11894  1  956.                MVC   RQBLKC,@FCPBLKC     Block count (non-IXR'd)
 000C38 9110 2004      00004       11895  1  957.                IF    (RQAPERM.FPS,AND,~RQSHR),M1IATR32 Att share only
 000C3C 47E0 A152            00C48 11908  1          +
 000C40 9110 201E      0001E       11919  1          +
 000C44 47E0 A25C            00D52 11922  1          +
 000C48 9180 2007      00007       11928  1  958.                IF    (~RQAOWN,AND,~RQAMAG),BEGIN Not an owner
 000C4C 4710 A1A2            00C98 11940  1          +
1FILEMAN  (FILEMA) (09:39) (22MAR04) ORVYL'S File Manager                                                                   Page   92
0Current Usings:  (PZERO,R0) (RQWB,R2) (FSB,R3) (ATFB,R6) (M1IATCH,R10) (@FCPERM-72,R13)
0Loc    Object Code    Addr1 Addr2  Stmt Lv Lineno    Source Statement           (Hibal 5, Asmedit 3.3)  HLASM R4.0  2004/03/22 09.39
+___    ______ ____    _____ _____  ____ __ ______    ______ _________
0000C50 9140 2007      00007       11951  1          +
 000C54 4710 A1A2            00C98 11952  1          +
 000C58 9180 2005      00005       11957  2  959.                  IF    (RQCCLP,AND,~RQACLP),M1IATR04 Only CLP can attach
 000C5C 47E0 A172            00C68 11969  2          +
 000C60 9110 2006      00006       11980  2          +
 000C64 47E0 A248            00D3E 11983  2          +
 000C68 9108 2005      00005       11989  2  960.                  IF    (RQCSPI,AND,~RQASPI,AND,~RQACLP),M1IATR04 Spires only
 000C6C 47E0 A18A            00C80 12001  2          +
 000C70 9108 2006      00006       12012  2          +
 000C74 4710 A18A            00C80 12013  2          +
 000C78 9110 2006      00006       12024  2          +
 000C7C 47E0 A248            00D3E 12027  2          +
 000C80 9140 201E      0001E       12033  2  961.                  IF    (RQOLD,AND,(RQPRIV.KWRIFAPR,NZ)),EXIT Special priv
 000C84 47E0 A19A            00C90 12045  2          +
 000C88 9140 201D      0001D       12059  2          +
 000C8C 4770 A1A2            00C98 12062  2          +
 000C90 910F 201F      0001F       12068  2  962.                  IF    (RQMPERM.FPALL,Z),M1IATR04 No permits
 000C94 4780 A248            00D3E 12083  2          +
 000C98                            12089  1  963.                END   ,                   Not the owner
                                   12093  1  964.     * Note: no locking necessary with STC
 000C98 43F0 D083            0003B 12094  1  965.                IC    R15,@FCPFLGO        Get file mask
 000C9C 42F0 600C            0000C 12095  1  966.                STC   R15,ATFBMASK        Set file mask
 000CA0 58F0 205C            0005C 12096  1  967.                L     R15,RQFBLK
 000CA4 50F0 6010            00010 12097  1  968.                ST    R15,ATFBFBLK        Set first block
 000CA8 58F0 2060            00060 12098  1  969.                L     R15,RQBLKC
 000CAC 50F0 6014            00014 12099  1  970.                ST    R15,ATFBBLKC        Set block count (non-IXR'd)
0DROP   @FCPERM-72,R13             12101  1  972.                PSET  @GRES
 USING  @GRES-72,R13
 000CB0 D708 D048 D048 00000 00000 12121  1          +
 000CB6                            12122  1  973.                PMOV  @GRID,ATFBAGRI
 000CB6 D203 D04C 601C 00004 0001C 12126  1          +
 000CBC 9120 201E      0001E       12127  1  974.                IF    RQWAIT,'SET @GRWAIT' Wait if not avail
 000CC0 47E0 A1D2            00CC8 12137  1          +
 000CC4 9680 D050      00008       12148  1          +
 000CC8 9110 201E      0001E       12153  1  975.                IF    RQSHR,'SET RQASHR'  Set attached in share mode
 000CCC 47E0 A1DE            00CD4 12163  1          +
 000CD0 9620 2006      00006       12174  1          +
 000CD4 A1E2           00CD4 00CCE 12179  1  976.                ELSE  'SET @GREXCL'       Get exclusive hold
 000CD4 47F0 A1E6            00CDC 12184  1          +
 000CD8 9640 D050      00008       12196  1          +
 000CDC 58F0 A32A/0DEF       00E20 12201  1  977.                VCALL GRGET               Get resource id
 000CE2 1200/4780 A23E       00D34 12205  1  978.                IF    (RVR,Z),M1IAT_04    Not available
 000CE8 5000 2010            00010 12222  1  979.                ST    RVR,RQAGRH          Set resource hold id
 000CEC                            12223  1  980.                IF    (ATFBNAME,NE,RQNAMS),M1IATR16 Deleted or renamed!
 000CEC D527 6028 207C 00028 0007C 12235  1          +
 000CF2 4770 A252            00D48 12238  1          +
                                   12244  1  981.     * The file access time in the catalog is updated when the first
                                   12245  1  982.     * user attaches and when the last user detaches only. All other
                                   12246  1  983.     * attaches or detaches do not update the catalog.
 000CF6                            12247  1  984.                IF    (ATFBCNT,GT,1),'SET ATFBFTIM' Update at last detach
 000CF6 D501 A364 600E 00E5A 0000E 12259  1          +
 000CFC 47B0 A20E            00D04 12260  1          +
 000D00 9640 600D      0000D       12271  1          +
1FILEMAN  (FILEMA) (09:39) (22MAR04) ORVYL'S File Manager                                                                   Page   93
0Current Usings:  (PZERO,R0) (RQWB,R2) (FSB,R3) (ATFB,R6) (M1IATCH,R10) (@GRES-72,R13)
0Loc    Object Code    Addr1 Addr2  Stmt Lv Lineno    Source Statement           (Hibal 5, Asmedit 3.3)  HLASM R4.0  2004/03/22 09.39
+___    ______ ____    _____ _____  ____ __ ______    ______ _________
0000D04 9140 201E      0001E       12276  1  985.                IF    ~RQOLD,BEGIN        New file
 000D08 4710 A230            00D26 12286  1          +
 000D0C 5870 0200            00200 12291  2  986.                  ADFCB ,
 USING  MAT,R7
 000D10 5870 7028            00028 12308  2          +
 DROP   MAT,R7
 USING  FILECB,R7
 000D14 58E0 7130/18FE       00130 12330  2  987.                  INCRS FILECRE             Number of files created
 000D1A 5EF0 A322            00E18 12341  3          +
 000D1E BAEF 7130            00130 12342  2          +
 000D22 4770 A222            00D18 12356  2          +
 DROP   FILECB,R7                  12362  1  988.                END   ,                   New file
 000D26                            12371     989.              END   ,                   Not a temp file
0000D26                            12376     991.              CLEAR RQRETC
 000D26 D703 2044 2044 00044 00044 12382             +
 000D2C 9680 2006      00006       12383     992.              SET   RQADONE             Set to attach done
 000D30 47F0 A26E            00D64 12389     993.              EXIT  M1IATCH
0000D34                            12393     995.     M1IAT_04 LABEL ,
 000D34 D203 2044 A2FE 00044 00DF4 12395     996.              MVC   RQRETC,=F'-4'       Not immediately available
 000D3A 47F0 A26A            00D60 12396     997.              B     M1IATCHE
0000D3E                            12398     999.     M1IATR04 LABEL ,
 000D3E D203 2044 A336 00044 00E2C 12400    1000.              MVC   RQRETC,=F'4'        Access not permitted
 000D44 47F0 A26A            00D60 12401    1001.              B     M1IATCHE
0000D48                            12403    1003.     M1IATR16 LABEL ,
 000D48 D203 2044 A342 00044 00E38 12405    1004.              MVC   RQRETC,=F'16'       File does not exist
 000D4E 47F0 A26A            00D60 12406    1005.              B     M1IATCHE
0000D52                            12408    1007.     M1IATR32 LABEL ,
 000D52 D203 2044 A352 00044 00E48 12410    1008.              MVC   RQRETC,=F'32'       File only attachable share mode
 000D58 47F0 A26A            00D60 12411    1009.              B     M1IATCHE
0000D5C                            12413    1011.     M1IATRVR LABEL ,
 000D5C 5000 2044            00044 12415    1012.              ST    RVR,RQRETC          Set return code from catalog stuff
0000D60                            12417    1014.     M1IATCHE LABEL ,
 000D60 9680 2020      00020       12419    1015.              SET   RQRFRE              Free RQFB
 000D64 981F C008            00008 12425    1016.              PEND  ,
 DROP   ATFB,R6
 DROP   FSB,R3
 DROP   RQWB,R2
 DROP   M1IATCH,R10
 000D68 9680 C000/0B0E 00000       12450             +
 DROP   @GRES-72,R13
1FILEMAN  (FILEMA) (09:39) (22MAR04) ORVYL'S File Manager                                                                   Page   94
0Current Usings:  (PZERO,R0)
0Loc    Object Code    Addr1 Addr2  Stmt Lv Lineno    Source Statement           (Hibal 5, Asmedit 3.3)  HLASM R4.0  2004/03/22 09.39
+___    ______ ____    _____ _____  ____ __ ______    ______ _________
0                                  12460    1018.     *---------------------------------------------------------------------*
                                   12461    1019.     *  M1FDTCH - File DETACH processing
                                   12462    1020.     *
                                   12463    1021.     *   Inputs - RA points to RQWB
                                   12464    1022.     *
                                   12465    1023.     *   Output -
                                   12466    1024.     *---------------------------------------------------------------------*
 000D6E                            12467    1025.     M1FDTCH  PROC
 000D6E D4F1C6C4E3C3C840           12474             +
 000D76 0000/0000                  12475             +
 000D7A 900F D004/18AF       00004 12477             +
 USING  M1FDTCH,R10
 000D80 50D0 C000/18CD       00000 12492             +
 000D86 9680 C000      00000       12494             +
 000D8A 41D0 C048            00048 12495             +
 USING  RQWB,R2                    12496    1026.              WITH  (RQWB,RA)
0000D8E 9110 2007      00007       12510    1028.              IF    ~RQASTAT,'SET RQRFRE' Done with this RQFB
 000D92 4710 A020            00D9A 12520             +
 000D96 9680 2020      00020       12531             +
 000D9A                            12536    1029.              CLEAR RQRETC              Set return
 000D9A D703 2044 2044 00044 00044 12542             +
 000DA0 4100 0001            00001 12543    1030.              LA    RVR,1               No IO necessary
                                   12544    1031.     * Note: no registers changed at wait time
0000DA4 981F C008            00008 12546    1033.              PEND  ,
 DROP   RQWB,R2
 DROP   M1FDTCH,R10
 000DA8 9680 C000/0B0E 00000       12561             +
 000DB0                            12567    1034.              LTORG ,
 000DB0 D5D6E36DC3D3D76D           12569                             =C'NOT_CLP_DET_HALT'
 000DC0 E3859497C6899385           12570                             =CL8'TempFile'
 000DC8 00005168                   12571                             =A(FMASFINI)
 000DCC 00000000                   12572                             =V(VMGET)
 000DD0 D9D8E6C2                   12573                             =C'RQWB'
 000DD4 FFFFFFF4                   12574                             =F'-12'
 000DD8 D9D8C6C2                   12575                             =C'RQFB'
 000DDC D6D9E54B                   12576                             =CL4'ORV.'
 000DE0 80000000                   12577                             =X'80000000'
 000DE4 000049D4                   12578                             =A(RELRQFB)
 000DE8 070C0000                   12579                             =X'070C0000'
 000DEC 000004D2                   12580                             =A(M1FILEIO)
 000DF0 00000000                   12581                             =V(TCREATE)
 000DF4 FFFFFFFC                   12582                             =F'-4'
 000DF8 00000000                   12583                             =V(XITNEW)
 000DFC 00000000                   12584                             =V(XITDO)
 000E00 00000000                   12585                             =V(XITDEL)
 000E04 00000000                   12586                             =V(TEXIT)
 000E08 E3C5D4D7                   12587                             =C'TEMP'
 000E0C 000047C2                   12588                             =A(SETFNAME)
 000E10 0000532E                   12589                             =A(SETTEMPN)
 000E14 C1E3C6C2                   12590                             =CL4'ATFB'
 000E18 00000001                   12591                             =A(1)
 000E1C 00000000                   12592                             =V(HASHIT)
1FILEMAN  (FILEMA) (09:39) (22MAR04) ORVYL'S File Manager                                                                   Page   95
0Current Usings:  (PZERO,R0)
0Loc    Object Code    Addr1 Addr2  Stmt Lv Lineno    Source Statement           (Hibal 5, Asmedit 3.3)  HLASM R4.0  2004/03/22 09.39
+___    ______ ____    _____ _____  ____ __ ______    ______ _________
0000E20 00000000                   12593                             =V(GRGET)
 000E24 00000000                   12594                             =V(GRCRE)
 000E28 00000000                   12595                             =V(GRREL)
 000E2C 00000004                   12596                             =F'4'
 000E30 00000008                   12597                             =F'8'
 000E34 0000000C                   12598                             =F'12'
 000E38 00000010                   12599                             =F'16'
 000E3C 00005FFE                   12600                             =A(FMIXRADD)
 000E40 00000000                   12601                             =V(FCATOPRM)
 000E44 00000000                   12602                             =V(FCATNPRM)
 000E48 00000020                   12603                             =F'32'
 000E4C 1B00                       12604                             =Y(27*256+0)
 000E4E C7C74BD6D9E5               12605                             =C'GG.ORV'
 000E54 3B00                       12606                             =Y(59*256+0)
 000E56 0001                       12607                             =Y(1)
 000E58 000C                       12608                             =Y(L'AHFBL)
 000E5A 0001           00E82 06510 12609                             =AL2(1)
1FILEMAN  (FILEMA) (09:39) (22MAR04) ORVYL'S File Manager                                                                   Page   96
0Current Usings:  (PZERO,R0)
0Loc    Object Code    Addr1 Addr2  Stmt Lv Lineno    Source Statement           (Hibal 5, Asmedit 3.3)  HLASM R4.0  2004/03/22 09.39
+___    ______ ____    _____ _____  ____ __ ______    ______ _________
0                                  12614    1036.     *---------------------------------------------------------------------*
                                   12615    1037.     *  M1FREAD - File READ processing, preliminary edits
                                   12616    1038.     *
                                   12617    1039.     *   Inputs - RA points to RQWB
                                   12618    1040.     *
                                   12619    1041.     *   Output -
                                   12620    1042.     *---------------------------------------------------------------------*
 000E82                            12621    1043.     M1FREAD  PROC
 000E82 D4F1C6D9C5C1C440           12628             +
 000E8A 0000/0000                  12629             +
 000E8E 900F D004/18AF       00004 12631             +
 USING  M1FREAD,R10
 000E94 50D0 C000/18CD       00000 12646             +
 000E9A 9680 C000      00000       12648             +
 000E9E 41D0 C048            00048 12649             +
 USING  RQWB,R2                    12650    1044.              WITH  (RQWB,RA)
 000EA2 5830 2024            00024 12663    1045.              L     RB,RQFSB            FSB addr
 USING  FSB,R3                     12664    1046.              WITH  (FSB,RB)
0000EA6 9101 201F      0001F       12678    1048.              IF    ~RQMPERM.FPR,BEGIN  No read access
 000EAA 4710 A034            00EC2 12689             +
 000EAE D203 2054 A08A 00054 00F18 12694  1 1049.                MVC   RQWRETC,=F'8'       No access
 000EB4                            12695  1 1050.                CLEAR RQRETC              Clear SVC return
 000EB4 D703 2044 2044 00044 00044 12701  1          +
 000EBA 4100 0001            00001 12702  1 1051.                LA    RVR,1               No IO necessary
 000EBE 47F0 A080            00F0E 12703  1 1052.                EXIT  M1FREAD
 000EC2                            12706    1053.              END   ,                   Check input parms
0000EC2 58F0 A08E/0DEF       00F1C 12711    1055.              ACALL FMRANGE             Check input parms
 000EC8 1200/47B0 A044       00ED2 12718    1056.              IF    (RVR,M),BEGIN       Panic
 000ECE 47F0 A080            00F0E 12732  1 1057.                EXIT  M1FREAD
 000ED2                            12735    1058.              END   ,
 000ED2 A048           00ED2 00ECC 12739    1059.              ELSEIF (RVR,NZ),BEGIN
 000ED2 47F0 A05E/1200       00EEC 12745             +
 000ED8 4780 A05E            00EEC 12757             +
 000EDC D203 2054 A092 00054 00F20 12762  1 1060.                MVC   RQWRETC,=F'12'      Block does not exist
 000EE2                            12763  1 1061.                CLEAR RQRETC              Clear SVC return
 000EE2 D703 2044 2044 00044 00044 12769  1          +
 000EE8 4100 0001            00001 12770  1 1062.                LA    RVR,1               No IO necessary
 000EEC                            12771    1063.              END   ,                   Check input parms
 000EEC A062           00EEC 00EDA 12775    1064.              ELSE  BEGIN               Check availability
 000EEC 47F0 A080            00F0E 12780             +
 000EF0 4100 0001            00001 12786  1 1065.                LA    RVR,1               Init to no IO necessary
 000EF4 9180 3009      00009       12787  1 1066.                IF    (FSBANAVL),'MVC RQRETC,=F"-12"' Set to not available
 000EF8 47E0 A074            00F02 12797  1          +
 000EFC D203 2044 A096 00044 00F24 12803  1          +
 000F02 A078           00F02 00EFA 12808  1 1067.                ELSE  'CLEAR RQRETC,RVR'  Operation started
 000F02 47F0 A080            00F0E 12813  1          +
 000F06 D703 2044 2044 00044 00044 12826  2          +
 000F0C 1B00                       12828  1          +
 000F0E                            12833    1068.              END   ,                   Check availability
0000F0E 981F C008            00008 12838    1070.              PEND  ,
 DROP   FSB,R3
1FILEMAN  (FILEMA) (09:39) (22MAR04) ORVYL'S File Manager                                                                   Page   97
0Current Usings:  (PZERO,R0)
0Loc    Object Code    Addr1 Addr2  Stmt Lv Lineno    Source Statement           (Hibal 5, Asmedit 3.3)  HLASM R4.0  2004/03/22 09.39
+___    ______ ____    _____ _____  ____ __ ______    ______ _________
0DROP   RQWB,R2
 DROP   M1FREAD,R10
 000F12 9680 C000/0B0E 00000       12858             +
 000F18                            12864    1071.              LTORG ,
 000F18 00000008                   12866                             =F'8'
 000F1C 0000557A                   12867                             =A(FMRANGE)
 000F20 0000000C                   12868                             =F'12'
 000F24 FFFFFFF4       00F28 06510 12869                             =F'-12'
1FILEMAN  (FILEMA) (09:39) (22MAR04) ORVYL'S File Manager                                                                   Page   98
0Current Usings:  (PZERO,R0)
0Loc    Object Code    Addr1 Addr2  Stmt Lv Lineno    Source Statement           (Hibal 5, Asmedit 3.3)  HLASM R4.0  2004/03/22 09.39
+___    ______ ____    _____ _____  ____ __ ______    ______ _________
0                                  12874    1073.     *---------------------------------------------------------------------*
                                   12875    1074.     *  M1IREAD - File READ processing, IO part
                                   12876    1075.     *
                                   12877    1076.     *   Inputs - RA points to RQWB
                                   12878    1077.     *
                                   12879    1078.     *   Output -
                                   12880    1079.     *---------------------------------------------------------------------*
 000000                00000 00020 12881    1080.     #REAWK   RECORD BEGIN
 000000                            12889  1 1081.     #REASIX    DS    A                   SIXR address
 000004                            12890  1 1082.     #REAIXR    DS    A                   IXR address
 000008                            12891  1 1083.     #REAUSE    DS    A                   User record addr
 00000C                            12892  1 1084.     #REASIXE   DS    A                   End of SIXR address
 000010                            12893  1 1085.     #REAIXE    DS    A                   End of IXR address
 000014                            12894  1 1086.     #REANBLK   DS    A                   Number of next block to process
 000018                            12895  1 1087.     #REABCNT   DS    A                   Count of bytes processed
 00001C                            12896  1 1088.     #REALCNT   DS    A                   Count of bytes left to process
 000020                00020 00020 12897    1089.              END   ,
 000F28                            12906    1090.     M1IREAD  PROC  ,#REAWK
 000F28 D4F1C9D9C5C1C440           12913             +
 000F30 0000/0020                  12914             +
 000F34 900F D004/18AF       00004 12916             +
 USING  M1IREAD,R10
 000F3A 50D0 C000/18CD       00000 12931             +
 000F40 9680 C000      00000       12933             +
 USING  #REAWK-72,R12
 000F44 41D0 C068            00068 12947             +
 USING  RQWB,R2                    12948    1091.              WITH  (RQWB,RA)
 000F48 5830 2024            00024 12961    1092.              L     RB,RQFSB            FSB addr
 USING  FSB,R3                     12962    1093.              WITH  (FSB,RB)
0000F4C                            12976    1095.              CLEAR #REAWK
 000F4C D71F C048 C048 00000 00000 12982             +
0000F52 9120 2006      00006       12984    1097.              IF    (RQASHR,AND,~RQARES),BEGIN Not already reserved
 000F56 47E0 A05E            00F92 12996             +
 000F5A 9120 2007      00007       13007             +
 000F5E 4710 A05E            00F92 13008             +
 000F62 5860 2018            00018 13013  1 1098.                L     RX,RQATFB           Point to attach block
 USING  ATFB,R6                    13014  1 1099.                WITH  (ATFB,RX)
 USING  @GRES-72,R13               13027  1 1100.                PSET  @GRES
 000F66 D708 D048 D048 00000 00000 13044  1          +
 000F6C                            13045  1 1101.                PMOV  @GRID,ATFBRGRI      Point to reserve grid
 000F6C D203 D04C 6020 00004 00020 13049  1          +
 000F72 9120 201E      0001E       13050  1 1102.                IF    RQWAIT,'SET @GRWAIT' Wait if not avail
 000F76 47E0 A04A            00F7E 13060  1          +
 000F7A 9680 D050      00008       13071  1          +
 000F7E 58F0 A12C/0DEF       01060 13076  1 1103.                VCALL GRGET               Get resource id hold (share mode)
 000F84 5000 2014            00014 13080  1 1104.                ST    RVR,RQRGRH          Set reserve id
 000F88                            13081  1 1105.                IF    (RQRGRH,Z),M1IREE04 No reserve, not available
 000F88 D603 2014 2014 00014 00014 13091  1          +
 000F8E 4780 A476            013AA 13094  1          +
 DROP   ATFB,R6                    13100    1106.              END   ,                   Not already reserved
0000F92 9110 2005      00005       13110    1108.              IF    ~RQCNIXR,M1IREADX   IXR file
1FILEMAN  (FILEMA) (09:39) (22MAR04) ORVYL'S File Manager                                                                   Page   99
0Current Usings:  (PZERO,R0) (RQWB,R2) (FSB,R3) (M1IREAD,R10) (#REAWK-72,R12) (@GRES-72,R13)
0Loc    Object Code    Addr1 Addr2  Stmt Lv Lineno    Source Statement           (Hibal 5, Asmedit 3.3)  HLASM R4.0  2004/03/22 09.39
+___    ______ ____    _____ _____  ____ __ ______    ______ _________
0000F96 47E0 A288            011BC 13122             +
 000F9A 9104 2005      00005       13128    1109.              IF    RQCHYBR,M1IREADH    Hybrid file
 000F9E 4710 A13C            01070 13140             +
 000FA2 5880 2034            00034 13146    1110.              L     RM,RQILEN           Init count of bytes to read
 000FA6 1B99                       13147    1111.              CLEAR RN                  Init count of bytes read
0000FA8 5870 2030            00030 13152    1113.              L     RY,RQIBLK           Get the first block number
 000FAC 5A70 205C            0005C 13153    1114.              A     RY,RQFBLK           Calculate real block number
0000FB0                            13155    1116.              LOOP  BEGIN
 DROP   @GRES-72,R13               13161  1 1117.                PSET  @FDOIODO
 USING  @FDOIODO-72,R13
 000FB0 D70F D048 D048 00000 00000 13181  1          +
 000FB6 5030 D048            00000 13182  1 1118.                PMOV  @FDOFSB,LA:FSB      FSB ptr
 000FBA 96A0 D057      0000F       13193  1 1119.                SET   @FDOFR+@FDOFUSE     Indicate read user record
 000FBE                            13202  1 1120.                PMOV  @FDODATA,#REAUSE    Set buffer
 000FBE D203 D050 C050 00008 00008 13206  1          +
 000FC4                            13207  1 1121.                PMOV  @FDODATL,FSBDSZ     Data length
 000FC4 D201 D054 30AC 0000C 000AC 13211  1          +
 000FCA 5070 D04C            00004 13212  1 1122.                PMOV  @FDOBLK,(RY)        Block number
 000FCE 58F0 A130/0DEF       01064 13222  1 1123.                VCALL FDOIODO             Read record
 000FD4 D203 C050 D050 00008 00008 13226  1 1124.                MVC   #REAUSE,@FDODATA    Set buffer
 000FDA 1200/4770 A46C       013A0 13227  1 1125.                IF    (RVR,NZ),M1IREE_4   IO error
0000FE0 4850 D054            0000C 13245  1 1127.                LH    RK,@FDODATL         Get count to move
0DROP   @FDOIODO-72,R13            13247  1 1129.                CHKMEM RQIDAT,RQILEN,W    Make sure memory not released
 USING  @CHKMEM-72,R13
 000FE4 D707 D048 D048 00000 00000 13268  1          +
 000FEA D203 D048 203C 00000 0003C 13273  1          +
 000FF0 D201 D04C 2036 00004 00036 13278  1          +
 000FF6 D200 D04E 2021 00006 00021 13283  1          +
 000FFC 9680 D04F      00007       13289  1          +
 001000 58F0 A134/0DEF       01068 13295  1          +
 001006 1200/4770 A46C       013A0 13297  1 1130.                IF    (RVR,NZ),M1IREE_4   IO error
000100C 5E70 A138            0106C 13315  1 1132.                INCR  RY                  Increment block number
 001010 58E0 C050            00008 13318  1 1133.                L     R14,#REAUSE         Point to data just read
 001014 5840 203C            0003C 13319  1 1134.                L     RJ,RQIDAT           Point to user data area
 001018 1A49                       13320  1 1135.                AR    RJ,RN               Point pass already moved
 00101A 1985/47D0 A0FC       01030 13321  1 1136.                IF    (RM,GT,RK),BEGIN    Need to read more blocks
 001020 4950 30AC            000AC 13336  2 1137.                  IF    (RK,LT,FSBDSZ),'CLEAR RM' Don't read no more
 001024 47B0 A0F6/1B88       0102A 13348  2          +
 00102A A0FA           0102A 01026 13362  2 1138.                  ELSE  'SR RM,RK'          Calc remaining to read
 00102A 47F0 A0FC/1B85       01030 13367  2          +
 001030                            13379  1 1139.                END   ,                   Need to read more blocks
 001030 A100           01030 0101E 13383  1 1140.                ELSE  BEGIN               All data on this block
 001030 47F0 A104            01038 13388  1          +
 001034 1858                       13394  2 1141.                  LR    RK,RM               Get count to move
 001036 1B88                       13395  2 1142.                  CLEAR RM                  Don't read no more
 001038                            13399  1 1143.                END   ,                   All data on this block
 001038 1A95                       13403  1 1144.                AR    RN,RK               Calc count moved thus far
 00103A 18F5                       13404  1 1145.                LR    R15,RK              Source and destination lens same
 00103C 0E4E                       13405  1 1146.                MVCL  RJ,R14              Move the data
1FILEMAN  (FILEMA) (09:39) (22MAR04) ORVYL'S File Manager                                                                   Page  100
0Current Usings:  (PZERO,R0) (RQWB,R2) (FSB,R3) (M1IREAD,R10) (#REAWK-72,R12) (@CHKMEM-72,R13)
0Loc    Object Code    Addr1 Addr2  Stmt Lv Lineno    Source Statement           (Hibal 5, Asmedit 3.3)  HLASM R4.0  2004/03/22 09.39
+___    ______ ____    _____ _____  ____ __ ______    ______ _________
000103E 1288/4770 A07C       00FB0 13407    1148.              UNTIL (RM,Z),END          Until done
 001044 5B70 205C            0005C 13429    1149.              S     RY,RQFBLK           Calc unreal next block
 001048 5070 C05C            00014 13430    1150.              ST    RY,#REANBLK         Set return block value
 00104C 5090 C060            00018 13431    1151.              ST    RN,#REABCNT         Set count of bytes read
 001050                            13432    1152.              CLEAR RQRETC              Set return code
 001050 D703 2044 2044 00044 00044 13438             +
 001056 47F0 A494            013C8 13439    1153.              B     M1IREADE            Exit
 001060                            13440    1154.              LTORG ,
 001060 00000000                   13442                             =V(GRGET)
 001064 00000000                   13443                             =V(FDOIODO)
 001068 000054D2                   13444                             =A(CHKMEM)
 00106C 00000001       01070 06510 13445                             =A(1)
0001070                            13450    1156.     M1IREADH LABEL ,                   Hybrid files
0USING  IXR,R6                     13453    1158.              WITH  (IXR,RX)            IXR record
 USING  S.IXR,R7                   13466    1159.              WITH  (IXR,RY),LABEL=S    Super IXR record
0001070 5890 2030            00030 13475    1161.              L     RN,RQIBLK           Get block no requested
 001074 5090 C05C            00014 13476    1162.              ST    RN,#REANBLK         Init next block to read
 001078 D203 C064 2034 0001C 00034 13477    1163.              MVC   #REALCNT,RQILEN     Get count of bytes to read
000107E 1B88                       13479    1165.              CLEAR RM
 001080 5D80 A43C            01370 13483    1166.              D     RM,=A(IXRNT#)       Calc index and IXR number
 001084 4C80 A44C            01380 13484    1167.              MH    RM,=Y(L'IXRNT)      Calc displacement
 001088 5A90 205C            0005C 13485    1168.              A     RN,RQFBLK           Calc real IXR number
000108C 1BEE                       13487    1170.              CLEAR R14
 00108E 18F9                       13491    1171.              LR    R15,RN              IXR block number
 001090 4D10 A44E            01382 13492    1172.              BAS   RS,M1IREAD6         Get IXR
 001094 186E                       13493    1173.              LR    RX,R14              Point to IXR
 001096 5060 C04C            00004 13494    1174.              ST    RX,#REAIXR          Set IXR pointer
 00109A 4170 6000            00000 13495    1175.              LA    RY,IXR              Get IXR pointer
 00109E 4190 67BC            007BC 13496    1176.              LA    RN,IXR+(L'IXRNT*IXRNT#) Point past the end of IXR
 0010A2 4168 6000            00000 13497    1177.              LA    RX,IXR(RM)          Point to user block number
00010A6                            13499    1179.              LOOP  BEGIN               Read all the data
00010A6                            13506  1 1181.                IF    (IXRNT,Z),BEGIN
 0010A6 D602 6044 6044 00044 00044 13516  1          +
 0010AC 4770 A184            010B8 13517  1          +
 0010B0 9140 201E      0001E       13522  2 1182.                  IF    ~RQSKIP,M1IREE12    No block for this one
 0010B4 47E0 A48A            013BE 13534  2          +
 0010B8                            13540  1 1183.                END   ,
 0010B8 A188           010B8 010AE 13544  1 1184.                ELSE  BEGIN               Read the record
 0010B8 47F0 A232            01166 13549  1          +
 DROP   @CHKMEM-72,R13             13555  2 1185.                  PSET  @FDOIODO
 USING  @FDOIODO-72,R13
 0010BC D70F D048 D048 00000 00000 13575  2          +
 0010C2 5030 D048            00000 13576  2 1186.                  PMOV  @FDOFSB,LA:FSB      FSB ptr
 0010C6                            13587  2 1187.                  PMOV  @FDOBLK,IXRNT       Block number
 0010C6 D202 D04D 6044 00005 00044 13591  2          +
 0010CC                            13592  2 1188.                  PMOV  @FDODATA,#REAUSE    Use this block (if there)
 0010CC D203 D050 C050 00008 00008 13596  2          +
1FILEMAN  (FILEMA) (09:39) (22MAR04) ORVYL'S File Manager                                                                   Page  101
0Current Usings:  (PZERO,R0) (RQWB,R2) (FSB,R3) (IXR,R6) (S.IXR,R7) (M1IREAD,R10) (#REAWK-72,R12) (@FDOIODO-72,R13)
0Loc    Object Code    Addr1 Addr2  Stmt Lv Lineno    Source Statement           (Hibal 5, Asmedit 3.3)  HLASM R4.0  2004/03/22 09.39
+___    ______ ____    _____ _____  ____ __ ______    ______ _________
00010D2                            13597  2 1189.                  PMOV  @FDODATL,FSBDSZ     Data length
 0010D2 D201 D054 30AC 0000C 000AC 13601  2          +
 0010D8 96A0 D057      0000F       13602  2 1190.                  SET   @FDOFR+@FDOFUSE     Indicate read user record
 0010DC 58F0 A440/0DEF       01374 13611  2 1191.                  VCALL FDOIODO             Read user record
 0010E2 5840 D050            00008 13615  2 1192.                  L     RJ,@FDODATA         Get data pointer
 0010E6 5040 C050            00008 13616  2 1193.                  ST    RJ,#REAUSE          Save data pointer
 0010EA 1200/4770 A46C       013A0 13617  2 1194.                  IF    (RVR,NZ),M1IREE_4   IO error
 0010F0 5850 C064            0001C 13634  2 1195.                  L     RK,#REALCNT         Get count left
 0010F4 4950 D054            0000C 13635  2 1196.                  IF    (RK,LE,@FDODATL),'CLEAR #REALCNT' Enough on this block
 0010F8 4730 A1CE            01102 13647  2          +
 0010FC D703 C064 C064 0001C 0001C 13659  2          +
 001102 A1D2           01102 010FA 13664  2 1197.                  ELSE  BEGIN               Get all this block
 001102 47F0 A1F4            01128 13669  2          +
 001106 4850 D054            0000C 13675  3 1198.                    LH    RK,@FDODATL         Set length read
 00110A                            13676  3 1199.                    IF    (@FDODATL,LT,FSBDSZ),'CLEAR #REALCNT' Block not full
 00110A D501 30AC D054 000AC 0000C 13687  3          +
 001110 47D0 A1E6            0111A 13688  3          +
 001114 D703 C064 C064 0001C 0001C 13700  3          +
 00111A A1EA           0111A 01112 13705  3 1200.                    ELSE  BEGIN               Set count left to read
 00111A 47F0 A1F4            01128 13710  3          +
 00111E 58E0 C064            0001C 13716  4 1201.                      L     R14,#REALCNT        Get count left to read
 001122 1BE5                       13717  4 1202.                      SR    R14,RK              Calc count remaining
 001124 50E0 C064            0001C 13718  4 1203.                      ST    R14,#REALCNT        Set
 001128                            13719  3 1204.                    END   ,                   Set count left to read
 001128                            13723  2 1205.                  END   ,                   Get all this block
 DROP   @FDOIODO-72,R13            13727  2 1206.                  CHKMEM RQIDAT,RQILEN,W    Make sure memory not released
 USING  @CHKMEM-72,R13
 001128 D707 D048 D048 00000 00000 13748  2          +
 00112E D203 D048 203C 00000 0003C 13753  2          +
 001134 D201 D04C 2036 00004 00036 13758  2          +
 00113A D200 D04E 2021 00006 00021 13763  2          +
 001140 9680 D04F      00007       13769  2          +
 001144 58F0 A444/0DEF       01378 13775  2          +
 00114A 1200/4770 A46C       013A0 13777  2 1207.                  IF    (RVR,NZ),M1IREE_4   IO error
 001150 18E5                       13794  2 1208.                  LR    R14,RK              Get count read
 001152 1815                       13795  2 1209.                  LR    RS,RK               Get len
 001154 5800 203C            0003C 13796  2 1210.                  L     RVR,RQIDAT          Point to user buffer
 001158 5A00 C060            00018 13797  2 1211.                  A     RVR,#REABCNT        Point past part already read
 00115C 0E04                       13798  2 1212.                  MVCL  RVR,RJ              Move the data read
 00115E 5AE0 C060            00018 13799  2 1213.                  A     R14,#REABCNT        Calc total bytes read
 001162 50E0 C060            00018 13800  2 1214.                  ST    R14,#REABCNT        Set
 001166                            13801  1 1215.                END   ,                   Read the record
0001166 41E0 0001            00001 13806  1 1217.                INCR  R14,#REANBLK        Increment next block to read
 00116A 5EE0 C05C            00014 13810  1          +
 00116E 50E0 C05C            00014 13811  1          +
0001172                            13813  1 1219.                IF    (#REALCNT,Z),EXIT   All done
 001172 D603 C064 C064 0001C 0001C 13823  1          +
 001178 4780 A27E            011B2 13826  1          +
000117C 4160 6003            00003 13833  1 1221.                LA    RX,IXR+L'IXRNT      Point to next user number
 001180 1969/4750 A27A       011AE 13834  1 1222.                IF    (RX,GE,RN),BEGIN    Past the end of this IXR
 001186 41E0 7000            00000 13849  2 1223.                  LA    R14,S.IXR           Get IXR pointer
1FILEMAN  (FILEMA) (09:39) (22MAR04) ORVYL'S File Manager                                                                   Page  102
0Current Usings:  (PZERO,R0) (RQWB,R2) (FSB,R3) (IXR,R6) (S.IXR,R7) (M1IREAD,R10) (#REAWK-72,R12) (@CHKMEM-72,R13)
0Loc    Object Code    Addr1 Addr2  Stmt Lv Lineno    Source Statement           (Hibal 5, Asmedit 3.3)  HLASM R4.0  2004/03/22 09.39
+___    ______ ____    _____ _____  ____ __ ______    ______ _________
000118A 1FFF/BFF7 7001       00001 13850  2 1224.                  L3    R15,S.IXRECNO       Get the number of this IXR
 001190 5EF0 A448            0137C 13856  2 1225.                  INCR  R15                 Calc next IXR number
 001194 58E0 205C            0005C 13859  2 1226.                  L     R14,RQFBLK          Calc last IXR + 1
 001198 5AE0 2060            00060 13860  2 1227.                  A     R14,RQBLKC
 00119C 19FE/47A0 A48A       013BE 13861  2 1228.                  IF    (R15,GE,R14),M1IREE12 Out of range
 0011A2 41E0 7000            00000 13879  2 1229.                  LA    R14,S.IXR           Get IXR pointer
 0011A6 4D10 A44E            01382 13880  2 1230.                  BAS   RS,M1IREAD6         Get the IXR
 0011AA 4160 7000            00000 13881  2 1231.                  LA    RX,S.IXR            Point to the IXR
 0011AE                            13882  1 1232.                END   ,                   Past the end of this IXR
 0011AE 47F0 A172            010A6 13886    1233.              END   ,                   Read all the data
00011B2                            13892    1235.              CLEAR RQRETC              Set return code
 0011B2 D703 2044 2044 00044 00044 13898             +
 0011B8 47F0 A494            013C8 13899    1236.              B     M1IREADE
-0011BC                            13902    1239.     M1IREADX LABEL ,                   IXR files
00011BC 1BEE                       13905    1241.              CLEAR R14
 0011BE 58F0 205C            0005C 13909    1242.              L     R15,RQFBLK          Set first block number
 0011C2 4D10 A44E            01382 13910    1243.              BAS   RS,M1IREAD6         Get IXR
 0011C6 186E                       13911    1244.              LR    RX,R14              Set IXR pointer
00011C8 5890 2030            00030 13913    1246.              L     RN,RQIBLK           Get block no requested
 0011CC 5090 C05C            00014 13914    1247.              ST    RN,#REANBLK         Init next block to read
 0011D0 D203 C064 2034 0001C 00034 13915    1248.              MVC   #REALCNT,RQILEN     Get count of bytes to read
 0011D6 1B77                       13916    1249.              CLEAR RY                  Clear super IXR pointer
00011D8 9140 6000      00000       13921    1251.              IF    IXRSIXR,BEGIN       Super IXR
 0011DC 47E0 A314            01248 13931             +
 0011E0 1876                       13936  1 1252.                LR    RY,RX               Point to super IXR
 0011E2 5070 C048            00000 13937  1 1253.                ST    RY,#REASIX          Save address of SIXR
 0011E6 41E0 77B6            007B6 13938  1 1254.                LA    R14,S.IXR+(L'IXRNT*IXRIXNT#) Point past the end of SIXR
 0011EA 50E0 C054            0000C 13939  1 1255.                ST    R14,#REASIXE        Save address
 0011EE 1B88                       13940  1 1256.                CLEAR RM
 0011F0 5D80 A43C            01370 13944  1 1257.                D     RM,=A(IXRNT#)       Calc IXR index
 0011F4 4C90 A44C            01380 13945  1 1258.                MH    RN,=Y(L'IXRNT)      Calc displacement to block number
 0011F8 4179 7000            00000 13946  1 1259.                LA    RY,S.IXR(RN)        Point to it
 0011FC 1898                       13947  1 1260.                LR    RN,RM               Get remainder from divide
00011FE                            13949  1 1262.     M1IREAD2   BEGIN ,                   Get IXR record number
00011FE 5970 C054            0000C 13955  2 1264.                  IF    (RY,GE,#REASIXE),M1IREE12 Out of range
 001202 47A0 A48A            013BE 13969  2          +
 001206                            13975  2 1265.                  IF    (S.IXRNT,Z),BEGIN   IXR record does not exist
 001206 D602 7044 7044 00044 00044 13985  2          +
 00120C 4770 A2FC            01230 13986  2          +
 001210 9140 201E      0001E       13991  3 1266.                    IF    ~RQSKIP,M1IREE12    No IXR for this one
 001214 47E0 A48A            013BE 14003  3          +
 001218 41E0 0294            00294 14009  3 1267.                    LA    R14,IXRNT#          Get total blocks per IXR
 00121C 1BE9                       14010  3 1268.                    SR    R14,RN              Calc number to end of IXR
 00121E 5AE0 C05C            00014 14011  3 1269.                    A     R14,#REANBLK        Add to next block to read
 001222 50E0 C05C            00014 14012  3 1270.                    ST    R14,#REANBLK        Set next block to read
 001226 1B99                       14013  3 1271.                    CLEAR RN                  Will start from the top on skip
1FILEMAN  (FILEMA) (09:39) (22MAR04) ORVYL'S File Manager                                                                   Page  103
0Current Usings:  (PZERO,R0) (RQWB,R2) (FSB,R3) (IXR,R6) (S.IXR,R7) (M1IREAD,R10) (#REAWK-72,R12) (@CHKMEM-72,R13)
0Loc    Object Code    Addr1 Addr2  Stmt Lv Lineno    Source Statement           (Hibal 5, Asmedit 3.3)  HLASM R4.0  2004/03/22 09.39
+___    ______ ____    _____ _____  ____ __ ______    ______ _________
0001228 4170 7003            00003 14017  3 1272.                    LA    RY,S.IXR+L'IXRNT    Point to next IXR number
 00122C 47F0 A2CA            011FE 14018  3 1273.                    NEXT  M1IREAD2            Continue
 001230                            14021  2 1274.                  END   ,                   IXR record does not exist
 001230                            14025  1 1275.                END   ,                   Get IXR record number
0001230 58E0 C04C            00004 14030  1 1277.                L     R14,#REAIXR         Reuse block if exists
 001234 1FFF/BFF7 7044       00044 14031  1 1278.                L3    R15,S.IXRNT         Set block number
 00123A 4D10 A44E            01382 14037  1 1279.                BAS   RS,M1IREAD6         Get IXR
 00123E 186E                       14038  1 1280.                LR    RX,R14              Set IXR pointer
 001240 5060 C04C            00004 14039  1 1281.                ST    RX,#REAIXR          Set IXR pointer
 001244 4170 7003            00003 14040  1 1282.                LA    RY,S.IXR+L'IXRNT    Point to next IXR number in case
 001248                            14041    1283.              END   ,                   Super IXR record
 001248 A318           01248 011DE 14045    1284.              ELSE  BEGIN               Master IXR record
 001248 47F0 A324            01258 14050             +
 00124C 5060 C04C            00004 14056  1 1285.                ST    RX,#REAIXR          Set IXR pointer
 001250 5990 A43C            01370 14057  1 1286.                IF    (RN,GE,IXRNT#),M1IREE12 Out of range
 001254 47A0 A48A            013BE 14071  1          +
 001258                            14077    1287.              END   ,                   Master IXR record
0001258 41E0 67BC            007BC 14082    1289.              LA    R14,IXR+(L'IXRNT*IXRNT#) Point past the end of IXR
 00125C 50E0 C058            00010 14083    1290.              ST    R14,#REAIXE         Save address
 001260 4C90 A44C            01380 14084    1291.              MH    RN,=Y(L'IXRNT)      Calc displacement to block number
 001264 4169 6000            00000 14085    1292.              LA    RX,IXR(RN)          Point to it
0001268                            14087    1294.     M1IREAD4 BEGIN ,                   Get user record number
0001268 5960 C058            00010 14093  1 1296.                IF    (RX,GE,#REAIXE),BEGIN None on this IXR
 00126C 4750 A348            0127C 14105  1          +
 001270 1277/4780 A48A       013BE 14110  2 1297.                  IF    (RY,Z),M1IREE12     Out of range
 001276 1B99                       14127  2 1298.                  CLEAR RN                  Start from beginning
 001278 47F0 A2CA            011FE 14131  2 1299.                  B     M1IREAD2            Continue
 00127C                            14132  1 1300.                END   ,                   None on this IXR
 00127C                            14136  1 1301.                IF    (IXRNT,Z),BEGIN     User record does not exist
 00127C D602 6044 6044 00044 00044 14146  1          +
 001282 4770 A36E            012A2 14147  1          +
 001286 9140 201E      0001E       14152  2 1302.                  IF    ~RQSKIP,M1IREE12    No user record
 00128A 47E0 A48A            013BE 14164  2          +
 00128E 4160 6003            00003 14170  2 1303.                  LA    RX,IXR+L'IXRNT      Point to next user number
 001292 41E0 0001            00001 14171  2 1304.                  INCR  R14,#REANBLK        Increment last to read
 001296 5EE0 C05C            00014 14175  2          +
 00129A 50E0 C05C            00014 14176  2          +
 00129E 47F0 A334            01268 14177  2 1305.                  NEXT  M1IREAD4            Continue
 0012A2                            14180  1 1306.                END   ,                   User record does not exist
 0012A2                            14184    1307.              END   ,                   Get user record number
0DROP   @CHKMEM-72,R13             14189    1309.              PSET  @FDOIODO
 USING  @FDOIODO-72,R13
 0012A2 D70F D048 D048 00000 00000 14209             +
 0012A8 5030 D048            00000 14210    1310.              PMOV  @FDOFSB,LA:FSB      FSB ptr
 0012AC                            14221    1311.              PMOV  @FDOBLK,IXRNT       Block number
 0012AC D202 D04D 6044 00005 00044 14225             +
 0012B2                            14226    1312.              PMOV  @FDODATA,#REAUSE    Use this block (if there)
 0012B2 D203 D050 C050 00008 00008 14230             +
 0012B8                            14231    1313.              PMOV  @FDODATL,FSBDSZ     Data length
1FILEMAN  (FILEMA) (09:39) (22MAR04) ORVYL'S File Manager                                                                   Page  104
0Current Usings:  (PZERO,R0) (RQWB,R2) (FSB,R3) (IXR,R6) (S.IXR,R7) (M1IREAD,R10) (#REAWK-72,R12) (@FDOIODO-72,R13)
0Loc    Object Code    Addr1 Addr2  Stmt Lv Lineno    Source Statement           (Hibal 5, Asmedit 3.3)  HLASM R4.0  2004/03/22 09.39
+___    ______ ____    _____ _____  ____ __ ______    ______ _________
00012B8 D201 D054 30AC 0000C 000AC 14235             +
 0012BE 96A0 D057      0000F       14236    1314.              SET   @FDOFR+@FDOFUSE     Indicate read user record
 0012C2 58F0 A440/0DEF       01374 14245    1315.              VCALL FDOIODO             Read user record
 0012C8 5840 D050            00008 14249    1316.              L     RJ,@FDODATA         Get data pointer
 0012CC 5040 C050            00008 14250    1317.              ST    RJ,#REAUSE          Save data pointer
 0012D0 1200/4770 A46C       013A0 14251    1318.              IF    (RVR,NZ),M1IREE_4   IO error
 0012D6 4160 6003            00003 14268    1319.              LA    RX,IXR+L'IXRNT      Point to next user number in case
 0012DA 41E0 0001            00001 14269    1320.              INCR  R14,#REANBLK        Increment next block to read
 0012DE 5EE0 C05C            00014 14273             +
 0012E2 50E0 C05C            00014 14274             +
00012E6 5850 C064            0001C 14276    1322.              L     RK,#REALCNT         Get count left
 0012EA 4950 D054            0000C 14277    1323.              IF    (RK,LE,@FDODATL),'CLEAR #REALCNT' Enough on this block
 0012EE 4730 A3C4            012F8 14289             +
 0012F2 D703 C064 C064 0001C 0001C 14301             +
 0012F8 A3C8           012F8 012F0 14306    1324.              ELSE  BEGIN               Get all this block
 0012F8 47F0 A3EA            0131E 14311             +
 0012FC 4850 D054            0000C 14317  1 1325.                LH    RK,@FDODATL         Set length read
 001300                            14318  1 1326.                IF    (@FDODATL,LT,FSBDSZ),'CLEAR #REALCNT' Block not full
 001300 D501 30AC D054 000AC 0000C 14329  1          +
 001306 47D0 A3DC            01310 14330  1          +
 00130A D703 C064 C064 0001C 0001C 14342  1          +
 001310 A3E0           01310 01308 14347  1 1327.                ELSE  BEGIN               Set count left to read
 001310 47F0 A3EA            0131E 14352  1          +
 001314 58E0 C064            0001C 14358  2 1328.                  L     R14,#REALCNT        Get count left to read
 001318 1BE5                       14359  2 1329.                  SR    R14,RK              Calc count remaining
 00131A 50E0 C064            0001C 14360  2 1330.                  ST    R14,#REALCNT        Set
 00131E                            14361  1 1331.                END   ,                   Set count left to read
 00131E                            14365    1332.              END   ,                   Get all this block
0DROP   @FDOIODO-72,R13            14370    1334.              CHKMEM RQIDAT,RQILEN,W    Make sure memory not released
 USING  @CHKMEM-72,R13
 00131E D707 D048 D048 00000 00000 14391             +
 001324 D203 D048 203C 00000 0003C 14396             +
 00132A D201 D04C 2036 00004 00036 14401             +
 001330 D200 D04E 2021 00006 00021 14406             +
 001336 9680 D04F      00007       14412             +
 00133A 58F0 A444/0DEF       01378 14418             +
 001340 1200/4770 A46C       013A0 14420    1335.              IF    (RVR,NZ),M1IREE_4   IO error
0001346 18E5                       14438    1337.              LR    R14,RK              Get count read
 001348 1815                       14439    1338.              LR    RS,RK               Get len
 00134A 5800 203C            0003C 14440    1339.              L     RVR,RQIDAT          Point to user buffer
 00134E 5A00 C060            00018 14441    1340.              A     RVR,#REABCNT        Point past part already read
 001352 0E04                       14442    1341.              MVCL  RVR,RJ              Move the data read
 001354 5AE0 C060            00018 14443    1342.              A     R14,#REABCNT        Calc total bytes read
 001358 50E0 C060            00018 14444    1343.              ST    R14,#REABCNT        Set
 00135C                            14445    1344.              IF    (#REALCNT,NZ),M1IREAD4 Get some more
 00135C D603 C064 C064 0001C 0001C 14455             +
 001362 4770 A334            01268 14458             +
 001366                            14464    1345.              CLEAR RQRETC              Set return code
 001366 D703 2044 2044 00044 00044 14470             +
 00136C 47F0 A494            013C8 14471    1346.              B     M1IREADE
 001370                            14472    1347.              LTORG ,
1FILEMAN  (FILEMA) (09:39) (22MAR04) ORVYL'S File Manager                                                                   Page  105
0Current Usings:  (PZERO,R0) (RQWB,R2) (FSB,R3) (IXR,R6) (S.IXR,R7) (M1IREAD,R10) (#REAWK-72,R12) (@CHKMEM-72,R13)
0Loc    Object Code    Addr1 Addr2  Stmt Lv Lineno    Source Statement           (Hibal 5, Asmedit 3.3)  HLASM R4.0  2004/03/22 09.39
+___    ______ ____    _____ _____  ____ __ ______    ______ _________
0001370 00000294                   14474                             =A(IXRNT#)
 001374 00000000                   14475                             =V(FDOIODO)
 001378 000054D2                   14476                             =A(CHKMEM)
 00137C 00000001                   14477                             =A(1)
 001380 0003           01382 06510 14478                             =Y(L'IXRNT)
0001382                            14483    1349.     M1IREAD6 LABEL ,
 DROP   @CHKMEM-72,R13             14485    1350.              PSET  @IXRGEPU
 USING  @IXRGEPU-72,R13
 001382 D70B D048 D048 00000 00000 14505             +
 001388 5030 D048            00000 14506    1351.              PMOV  @IXRGFSB,LA:FSB
 00138C 50E0 D050            00008 14517    1352.              PMOV  @IXRGADR,(R14)      Set buffer address
 001390 50F0 D04C            00004 14527    1353.              PMOV  @IXRGBNO,(R15)      Set block number
 001394 58F0 A5C4/0DEF       014F8 14537    1354.              ACALL FMIXRGET            Get IXR record
 00139A 58E0 D050            00008 14544    1355.              L     R14,@IXRGADR        Get buffer address
 00139E 07F1                       14545    1356.              BR    RS
00013A0                            14547    1358.     M1IREE_4 LABEL ,
 0013A0 D203 2044 A5C8 00044 014FC 14549    1359.              MVC   RQRETC,=F'-4'
 0013A6 47F0 A494            013C8 14550    1360.              B     M1IREADE
00013AA                            14552    1362.     M1IREE04 LABEL ,
 0013AA D203 2044 A5CC 00044 01500 14554    1363.              MVC   RQRETC,=F'4'
 0013B0 47F0 A494            013C8 14555    1364.              B     M1IREADE
00013B4                            14557    1366.     M1IREE08 LABEL ,
 0013B4 D203 2044 A5D0 00044 01504 14559    1367.              MVC   RQRETC,=F'8'
 0013BA 47F0 A494            013C8 14560    1368.              B     M1IREADE
00013BE                            14562    1370.     M1IREE12 LABEL ,
 0013BE D203 2044 A5D4 00044 01508 14564    1371.              MVC   RQRETC,=F'12'
 0013C4 47F0 A494            013C8 14565    1372.              B     M1IREADE
00013C8                            14567    1374.     M1IREADE LABEL ,
00013C8 D203 204C C060 0004C 00018 14570    1376.              MVC   RQRLEN,#REABCNT     Set count of bytes read
 0013CE D203 2040 C05C 00040 00014 14571    1377.              MVC   RQRBLK,#REANBLK     Set last block read + 1
00013D4 9120 2007      00007       14573    1379.              IF    (~RQARES,AND,(RQRGRH,NZ)),BEGIN
 0013D8 4710 A4CA            013FE 14585             +
 0013DC D603 2014 2014 00014 00014 14597             +
 0013E2 4780 A4CA            013FE 14598             +
 DROP   @IXRGEPU-72,R13            14603  1 1380.                GRREL RID=RQRGRH          Release file reserve
 USING  @GRES-72,R13
 0013E6 D708 D048 D048 00000 00000 14624  1          +
 0013EC D203 D04C 2014 00004 00014 14629  1          +
 0013F2 58F0 A5D8/0DEF       0150C 14632  1          +
 0013F8                            14634  1 1381.                CLEAR RQRGRH              Clear hold id
 0013F8 D703 2014 2014 00014 00014 14640  1          +
 0013FE                            14641    1382.              END   ,
00013FE 4180 C048            00000 14646    1384.              LA    RM,#REASIX          Release IO buffers
 001402 4190 0003            00003 14647    1385.              LA    RN,3
 DROP   @GRES-72,R13               14648    1386.              PSET  @SBFREE
1FILEMAN  (FILEMA) (09:39) (22MAR04) ORVYL'S File Manager                                                                   Page  106
0Current Usings:  (PZERO,R0) (RQWB,R2) (FSB,R3) (IXR,R6) (S.IXR,R7) (M1IREAD,R10) (#REAWK-72,R12) (@SBFREE-72,R13)
0Loc    Object Code    Addr1 Addr2  Stmt Lv Lineno    Source Statement           (Hibal 5, Asmedit 3.3)  HLASM R4.0  2004/03/22 09.39
+___    ______ ____    _____ _____  ____ __ ______    ______ _________
0USING  @SBFREE-72,R13
 001406 D707 D048 D048 00000 00000 14668             +
 00140C                            14669    1387.              PMOV  @SBFPOO,FSBRBT
 00140C D203 D048 302C 00000 0002C 14673             +
 001412                            14674    1388.              LOOP  BEGIN
 001412 D203 D04C 8000 00004 00000 14680  1 1389.                MVC   @SBFADR,@RM
 001418                            14681  1 1390.                IF    (@SBFADR,NZ),'VCALL SBUFREE'
 001418 D603 D04C D04C 00004 00004 14691  1          +
 00141E 4780 A4F4            01428 14692  1          +
 001422 58F0 A5DC/0DEF       01510 14700  1          +
 001428 4180 8004            00004 14706  1 1391.                LA    RM,@RM+4
 00142C 0690                       14707  1 1392.                DECR  RN
 00142E 1299/4770 A4DE       01412 14709    1393.              UNTIL (RN,Z),END
0001434 981F C008            00008 14732    1395.              PEND  ,
 DROP   S.IXR,R7
 DROP   IXR,R6
 DROP   FSB,R3
 DROP   RQWB,R2
 DROP   #REAWK-72,R12
 DROP   M1IREAD,R10
 001438 9680 C000/0B0E 00000       14770             +
 DROP   @SBFREE-72,R13
1FILEMAN  (FILEMA) (09:39) (22MAR04) ORVYL'S File Manager                                                                   Page  107
0Current Usings:  (PZERO,R0)
0Loc    Object Code    Addr1 Addr2  Stmt Lv Lineno    Source Statement           (Hibal 5, Asmedit 3.3)  HLASM R4.0  2004/03/22 09.39
+___    ______ ____    _____ _____  ____ __ ______    ______ _________
0                                  14780    1397.     *---------------------------------------------------------------------*
                                   14781    1398.     *  M1FWRIT - File WRITE processing, preliminary edits
                                   14782    1399.     *
                                   14783    1400.     *   Inputs - RA points to RQWB
                                   14784    1401.     *
                                   14785    1402.     *   Output -
                                   14786    1403.     *---------------------------------------------------------------------*
 00143E                            14787    1404.     M1FWRIT  PROC
 00143E D4F1C6E6D9C9E340           14794             +
 001446 0000/0000                  14795             +
 00144A 900F D004/18AF       00004 14797             +
 USING  M1FWRIT,R10
 001450 50D0 C000/18CD       00000 14812             +
 001456 9680 C000      00000       14814             +
 00145A 41D0 C048            00048 14815             +
 USING  RQWB,R2                    14816    1405.              WITH  (RQWB,RA)
 00145E 5830 2024            00024 14829    1406.              L     RB,RQFSB            FSB addr
 USING  FSB,R3                     14830    1407.              WITH  (FSB,RB)
0001462 9104 201F      0001F       14844    1409.              IF    ~RQMPERM.FPW,BEGIN  No write access
 001466 4710 A04C            01496 14855             +
                                   14860  1 1410.     * Append only OK for IXR or hybrid
 00146A 9102 201F      0001F       14861  1 1411.                IF    (RQMPERM.FPA,AND,(~RQCNIXR,OR,RQCHYBR)),EXIT
 00146E 47E0 A038            01482 14874  1          +
 001472 9110 2005      00005       14887  1          +
 001476 47E0 A04C            01496 14890  1          +
 00147A 9104 2005      00005       14899  1          +
 00147E 4710 A04C            01496 14902  1          +
 001482 D203 2054 A0BA 00054 01504 14908  1 1412.                MVC   RQWRETC,=F'8'       No access
 001488                            14909  1 1413.                CLEAR RQRETC              Clear SVC return
 001488 D703 2044 2044 00044 00044 14915  1          +
 00148E 4100 0001            00001 14916  1 1414.                LA    RVR,1               No IO necessary
 001492 47F0 A0A0            014EA 14917  1 1415.                EXIT  M1FWRIT
 001496                            14920    1416.              END   ,                   No write access
0001496 58F0 A0CA/0DEF       01514 14925    1418.              ACALL FMRANGE             Check input parms
 00149C 1200/47B0 A05C       014A6 14932    1419.              IF    (RVR,M),BEGIN       Panic
 0014A2 47F0 A0A0            014EA 14946  1 1420.                EXIT  M1FWRIT
 0014A6                            14949    1421.              END   ,
 0014A6 A060           014A6 014A0 14953    1422.              ELSEIF (RVR,NZ),BEGIN
 0014A6 47F0 A076/1200       014C0 14959             +
 0014AC 4780 A076            014C0 14971             +
 0014B0 D203 2054 A0CE 00054 01518 14976  1 1423.                MVC   RQWRETC,=F'24'      Set out of range wait return
 0014B6                            14977  1 1424.                CLEAR RQRETC              Clear SVC return
 0014B6 D703 2044 2044 00044 00044 14983  1          +
 0014BC 4100 0001            00001 14984  1 1425.                LA    RVR,1               No IO necessary
 0014C0                            14985    1426.              END   ,                   Check input parms
 0014C0 A07A           014C0 014AE 14989    1427.              ELSE  BEGIN               Check availability
 0014C0 47F0 A0A0            014EA 14994             +
 0014C4 4100 0001            00001 15000  1 1428.                LA    RVR,1
 0014C8 9180 3009      00009       15001  1 1429.                IF    (FSBANAVL,OR,FSBARO),'MVC RQRETC,=F"-12"' Not available
 0014CC 4710 A08E            014D8 15015  1          +
 0014D0 9140 3009      00009       15024  1          +
 0014D4 47E0 A094            014DE 15025  1          +
1FILEMAN  (FILEMA) (09:39) (22MAR04) ORVYL'S File Manager                                                                   Page  108
0Current Usings:  (PZERO,R0) (RQWB,R2) (FSB,R3) (M1FWRIT,R10)
0Loc    Object Code    Addr1 Addr2  Stmt Lv Lineno    Source Statement           (Hibal 5, Asmedit 3.3)  HLASM R4.0  2004/03/22 09.39
+___    ______ ____    _____ _____  ____ __ ______    ______ _________
00014D8 D203 2044 A0D2 00044 0151C 15031  1          +
 0014DE A098           014DE 014D6 15036  1 1430.                ELSE  'CLEAR RQRETC,RVR'  Operation started
 0014DE 47F0 A0A0            014EA 15041  1          +
 0014E2 D703 2044 2044 00044 00044 15054  2          +
 0014E8 1B00                       15056  1          +
 0014EA                            15061    1431.              END   ,                   Check availability
00014EA 981F C008            00008 15066    1433.              PEND  ,
 DROP   FSB,R3
 DROP   RQWB,R2
 DROP   M1FWRIT,R10
 0014EE 9680 C000/0B0E 00000       15086             +
 0014F8                            15092    1434.              LTORG ,
 0014F8 00005EA4                   15094                             =A(FMIXRGET)
 0014FC FFFFFFFC                   15095                             =F'-4'
 001500 00000004                   15096                             =F'4'
 001504 00000008                   15097                             =F'8'
 001508 0000000C                   15098                             =F'12'
 00150C 00000000                   15099                             =V(GRREL)
 001510 00000000                   15100                             =V(SBUFREE)
 001514 0000557A                   15101                             =A(FMRANGE)
 001518 00000018                   15102                             =F'24'
 00151C FFFFFFF4       01520 06510 15103                             =F'-12'
1FILEMAN  (FILEMA) (09:39) (22MAR04) ORVYL'S File Manager                                                                   Page  109
0Current Usings:  (PZERO,R0)
0Loc    Object Code    Addr1 Addr2  Stmt Lv Lineno    Source Statement           (Hibal 5, Asmedit 3.3)  HLASM R4.0  2004/03/22 09.39
+___    ______ ____    _____ _____  ____ __ ______    ______ _________
0000000                00000 00028 15108    1436.     #WRIWK   RECORD BEGIN
 000000                            15116  1 1437.     #WRISIX    DS    A                   SIXR address
 000004                            15117  1 1438.     #WRIIXR    DS    A                   IXR address
 000008                            15118  1 1439.     #WRIUSE    DS    A                   User record addr
 00000C                            15119  1 1440.     #WRIBCNT   DS    A                   Count of bytes processed
 000010                            15120  1 1441.     #WRILCNT   DS    A                   Count of bytes left to process
 000014                            15121  1 1442.     #WRICBLK   DS    A                   Current block number
 000018                            15122  1 1443.     #WRISIXN   DS    H                   Current IXR number in SIXR
 00001A                            15123  1 1444.     #WRIIXRN   DS    CL3                 Current block number in IXR
 00001D 00                         15124  1 1445.     #WRIFLG    FLAG  ,
 #WRIFLG.#WRIFSIX  80 ONES         15128  1 1446.                FLAG  #WRIFSIX            The SIXR needs to be written
 #WRIFLG.#WRIFIXR  40 ONES         15133  1 1447.                FLAG  #WRIFIXR            The IXR needs to be written
 000020                            15138  1 1448.     #WRIBASR   DS    A                   Linkage register save
 000024                            15139  1 1449.     #WRIBAS2   DS    A                   Another one
 000028                00028 00028 15140    1450.              END   ,
                                   15149    1451.     *---------------------------------------------------------------------*
                                   15150    1452.     *  M1IWRIT - File WRITE processing, IO part
                                   15151    1453.     *
                                   15152    1454.     *   Inputs - RA points to RQWB
                                   15153    1455.     *
                                   15154    1456.     *   Output -
                                   15155    1457.     *---------------------------------------------------------------------*
 001520                            15156    1458.     M1IWRIT  PROC  ,#WRIWK
 001520 D4F1C9E6D9C9E340           15163             +
 001528 0000/0028                  15164             +
 00152C 900F D004/18AF       00004 15166             +
 USING  M1IWRIT,R10
 001532 50D0 C000/18CD       00000 15181             +
 001538 9680 C000      00000       15183             +
 USING  #WRIWK-72,R12
 00153C 41D0 C070            00070 15197             +
 USING  RQWB,R2                    15198    1459.              WITH  (RQWB,RA)
 001540 5830 2024            00024 15211    1460.              L     RB,RQFSB            FSB addr
 USING  FSB,R3                     15212    1461.              WITH  (FSB,RB)
0001544                            15226    1463.              CLEAR #WRIWK
 001544 D727 C048 C048 00000 00000 15232             +
000154A 9120 2006      00006       15234    1465.              IF    (RQASHR,AND,~RQARES),BEGIN Not already reserved
 00154E 47E0 A062            0158E 15246             +
 001552 9120 2007      00007       15257             +
 001556 4710 A062            0158E 15258             +
 00155A 5860 2018            00018 15263  1 1466.                L     RX,RQATFB           Point to attach block
 USING  ATFB,R6                    15264  1 1467.                WITH  (ATFB,RX)
 USING  @GRES-72,R13               15277  1 1468.                PSET  @GRES
 00155E D708 D048 D048 00000 00000 15294  1          +
 001564                            15295  1 1469.                PMOV  @GRID,ATFBRGRI      Point to reserve grid
 001564 D203 D04C 6020 00004 00020 15299  1          +
 00156A 9640 D050      00008       15300  1 1470.                SET   @GREXCL             Get exclusive hold
 00156E 9120 201E      0001E       15306  1 1471.                IF    RQWAIT,'SET @GRWAIT' Wait if not avail
 001572 47E0 A04E            0157A 15316  1          +
 001576 9680 D050      00008       15327  1          +
 00157A 58F0 A6EC/0DEF       01C18 15332  1 1472.                VCALL GRGET               Get resource id hold
 001580 5000 2014            00014 15336  1 1473.                ST    RVR,RQRGRH          Set reserve id
1FILEMAN  (FILEMA) (09:39) (22MAR04) ORVYL'S File Manager                                                                   Page  110
0Current Usings:  (PZERO,R0) (RQWB,R2) (FSB,R3) (ATFB,R6) (M1IWRIT,R10) (#WRIWK-72,R12) (@GRES-72,R13)
0Loc    Object Code    Addr1 Addr2  Stmt Lv Lineno    Source Statement           (Hibal 5, Asmedit 3.3)  HLASM R4.0  2004/03/22 09.39
+___    ______ ____    _____ _____  ____ __ ______    ______ _________
0001584                            15337  1 1474.                IF    (RQRGRH,Z),M1IWRE04 No reserve, not available
 001584 D603 2014 2014 00014 00014 15347  1          +
 00158A 4780 A866            01D92 15350  1          +
 DROP   ATFB,R6                    15356    1475.              END   ,                   Not already reserved
0DROP   @GRES-72,R13               15366    1477.              PSET  @SBGET
 USING  @SBGET-72,R13
 00158E D70B D048 D048 00000 00000 15386             +
 001594                            15387    1478.              PMOV  @SBGPOO,FSBRBT      Get an io buffer
 001594 D203 D048 302C 00000 0002C 15391             +
 00159A 58F0 A6F0/0DEF       01C1C 15392    1479.              VCALL SBUFGET
 0015A0 D203 C050 D04C 00008 00004 15396    1480.              MVC   #WRIUSE,@SBGADR     Save user buffer address
00015A6 9110 2005      00005       15398    1482.              IF    ~RQCNIXR,M1IWRITX   IXR file
 0015AA 47E0 A382            018AE 15410             +
 0015AE 9104 2005      00005       15416    1483.              IF    RQCHYBR,M1IWRITH    Hybrid file
 0015B2 4710 A13C            01668 15428             +
00015B6 5880 2034            00034 15435    1485.              L     RM,RQILEN           Init count of bytes to write
 0015BA 1B99                       15436    1486.              CLEAR RN                  Init count of bytes to written
00015BC 5840 C050            00008 15441    1488.              L     RJ,#WRIUSE          Get buffer address
 0015C0 5870 2030            00030 15442    1489.              L     RY,RQIBLK           Get the first block number
 0015C4 5A70 205C            0005C 15443    1490.              A     RY,RQFBLK           Calc real block number
00015C8                            15445    1492.              LOOP  BEGIN
00015C8                            15452  1 1494.                IF    (RQILEN,NZ),BEGIN
 0015C8 D603 2034 2034 00034 00034 15462  1          +
 0015CE 4780 A0CA            015F6 15463  1          +
 DROP   @SBGET-72,R13              15468  2 1495.                  CHKMEM RQIDAT,RQILEN      Make sure memory not released
 USING  @CHKMEM-72,R13
 0015D2 D707 D048 D048 00000 00000 15489  2          +
 0015D8 D203 D048 203C 00000 0003C 15494  2          +
 0015DE D201 D04C 2036 00004 00036 15499  2          +
 0015E4 D200 D04E 2021 00006 00021 15504  2          +
 0015EA 58F0 A6F4/0DEF       01C20 15510  2          +
 0015F0 1200/4770 A85C       01D88 15512  2 1496.                  IF    (RVR,NZ),M1IWRE_4   IO error
 0015F6                            15529  1 1497.                END   ,
0DROP   @CHKMEM-72,R13             15534  1 1499.                PSET  @FDOIODO
 USING  @FDOIODO-72,R13
 0015F6 D70F D048 D048 00000 00000 15554  1          +
 0015FC 5030 D048            00000 15555  1 1500.                PMOV  @FDOFSB,LA:FSB      FSB ptr
 001600 5040 D050            00008 15566  1 1501.                PMOV  @FDODATA,(RJ)       Set data buffer
 001604 4100 0001            00001 15576  1 1502.                PMOV  @FDOTYPE,LA:FBHTUSER Set to user record
 001608 4200 D056            0000E 15592  1          +
 00160C 9660 D057      0000F       15593  1 1503.                SET   @FDOFW+@FDOFUSE     Indicate write user record
0001610 1804                       15603  1 1505.                LR    RVR,RJ              Get IO buffer pointer
 001612 4810 30AC            000AC 15604  1 1506.                LH    RS,FSBDSZ           Len of IO buffer
 001616 58E0 203C            0003C 15605  1 1507.                L     R14,RQIDAT          Point to user data
 00161A 1AE9                       15606  1 1508.                AR    R14,RN              Point past part already written
1FILEMAN  (FILEMA) (09:39) (22MAR04) ORVYL'S File Manager                                                                   Page  111
0Current Usings:  (PZERO,R0) (RQWB,R2) (FSB,R3) (M1IWRIT,R10) (#WRIWK-72,R12) (@FDOIODO-72,R13)
0Loc    Object Code    Addr1 Addr2  Stmt Lv Lineno    Source Statement           (Hibal 5, Asmedit 3.3)  HLASM R4.0  2004/03/22 09.39
+___    ______ ____    _____ _____  ____ __ ______    ______ _________
000161C 1981/47D0 A0FC       01628 15608  1 1510.                IF    (RM,GT,RS),BEGIN
 001622 1B81                       15623  2 1511.                  SR    RM,RS               Subtract from the total to write
 001624 1A91                       15624  2 1512.                  AR    RN,RS               Add to total written
 001626 18F1                       15625  2 1513.                  LR    R15,RS              Get len to move to IO buffer
 001628                            15626  1 1514.                END   ,
 001628 A100           01628 01620 15630  1 1515.                ELSE  BEGIN
 001628 47F0 A106            01632 15635  1          +
 00162C 18F8                       15641  2 1516.                  LR    R15,RM              Get len to move to IO buffer
 00162E 1A98                       15642  2 1517.                  AR    RN,RM               Add to total written
 001630 1B88                       15643  2 1518.                  CLEAR RM                  Clear len left to write
 001632                            15647  1 1519.                END   ,
0001632 40F0 D054            0000C 15652  1 1521.                PMOV  @FDODATL,(R15)      Set data length
 001636 5070 D04C            00004 15662  1 1522.                PMOV  @FDOBLK,(RY)        Set block number
 00163A 0E0E                       15672  1 1523.                MVCL  RVR,R14             Move data to IO buffer
000163C 58F0 A6F8/0DEF       01C24 15674  1 1525.                VCALL FDOIODO             Write record
 001642 1200/4770 A85C       01D88 15678  1 1526.                IF    (RVR,NZ),M1IWRE_4   IO error
 001648 5E70 A6FC            01C28 15695  1 1527.                INCR  RY                  Increment block number
000164C 1288/4770 A09C       015C8 15699    1529.              UNTIL (RM,Z),END
0001652 5B70 205C            0005C 15722    1531.              S     RY,RQFBLK           Calc unreal next block
 001656 5070 2040            00040 15723    1532.              ST    RY,RQRBLK           Set return block value
 00165A 5090 204C            0004C 15724    1533.              ST    RN,RQRLEN           Set count of bytes written
 00165E                            15725    1534.              CLEAR RQRETC              Set good return
 00165E D703 2044 2044 00044 00044 15731             +
 001664 47F0 A8B0            01DDC 15732    1535.              B     M1IWRITE            Done
0001668                            15734    1537.     M1IWRITH LABEL ,                   Hybrid file
0USING  IXR,R6                     15737    1539.              WITH  (IXR,RX)            IXR record
 USING  S.IXR,R7                   15750    1540.              WITH  (IXR,RY),LABEL=S    Super IXR record
 USING  M.IXR,R4                   15758    1541.              WITH  (IXR,RJ),LABEL=M    IXR misc
0001668 1BEE                       15767    1543.              CLEAR R14
 00166A 58F0 205C            0005C 15771    1544.              L     R15,RQFBLK
 00166E 4D10 A728            01C54 15772    1545.              BAS   RS,M1IWRIT6         Get first IXR
0001672 187E                       15774    1547.              LR    RY,R14              Get IXR pointer
 001674 5070 C048            00000 15775    1548.              ST    RY,#WRISIX          Save buffer pointer
0001678 D203 C058 2034 00010 00034 15777    1550.              MVC   #WRILCNT,RQILEN     Get count of bytes to write
 00167E 5890 2030            00030 15778    1551.              L     RN,RQIBLK           Get block no requested
 001682 5090 C05C            00014 15779    1552.              ST    RN,#WRICBLK         Set last block processed
0001686 1B88                       15781    1554.              CLEAR RM
 001688 5D80 A700            01C2C 15785    1555.              D     RM,=A(IXRNT#)       Calc block and index
 00168C BE87 C062            0001A 15786    1556.              ST3   RM,#WRIIXRN         Save user index in IXR
0001690 1299/4770 A16C       01698 15789    1558.              IF    (RN,Z),BEGIN
 001696 1867                       15803  1 1559.                LR    RX,RY               First record
 001698                            15804    1560.              END   ,
 001698 A170           01698 01694 15808    1561.              ELSE  BEGIN               Get IXR
1FILEMAN  (FILEMA) (09:39) (22MAR04) ORVYL'S File Manager                                                                   Page  112
0Current Usings:  (PZERO,R0) (RQWB,R2) (FSB,R3) (M.IXR,R4) (IXR,R6) (S.IXR,R7) (M1IWRIT,R10) (#WRIWK-72,R12) (@FDOIODO-72,R13)
0Loc    Object Code    Addr1 Addr2  Stmt Lv Lineno    Source Statement           (Hibal 5, Asmedit 3.3)  HLASM R4.0  2004/03/22 09.39
+___    ______ ____    _____ _____  ____ __ ______    ______ _________
0001698 47F0 A182            016AE 15813             +
 00169C 1BEE                       15819  1 1562.                CLEAR R14
 00169E 18F9                       15823  1 1563.                LR    R15,RN
 0016A0 5AF0 205C            0005C 15824  1 1564.                A     R15,RQFBLK
 0016A4 4D10 A728            01C54 15825  1 1565.                BAS   RS,M1IWRIT6         Get IXR
 0016A8 186E                       15826  1 1566.                LR    RX,R14              Get IXR pointer
 0016AA 5060 C04C            00004 15827  1 1567.                ST    RX,#WRIIXR          Save buffer pointer
 0016AE                            15828    1568.              END   ,                   Get IXR
00016AE 1846                       15833    1570.              LR    RJ,RX               Get IXR pointer
 0016B0 4150 67BC            007BC 15834    1571.              LA    RK,IXR+(L'IXRNT*IXRNT#) Point past the end of IXR
 0016B4 18E8                       15835    1572.              LR    R14,RM
 0016B6 4CE0 A70C            01C38 15836    1573.              MH    R14,=Y(L'IXRNT)     Calc displacement
 0016BA 416E 6000            00000 15837    1574.              LA    RX,IXR(R14)         Point to user block
0                                  15839    1576.     * Control 0 comes through here also for create a block (must
                                   15840    1577.     * not already exist).
 0016BE 9510 201C      0001C       15841    1578.              IF    (RQCONT,AND,(IXRNT,NZ)),M1IWRE12
 0016C2 4770 A1A4            016D0 15853             +
 0016C6 D602 6044 6044 00044 00044 15865             +
 0016CC 4770 A88A            01DB6 15868             +
00016D0 9104 201F      0001F       15875    1580.              IF    ~RQMPERM.FPW,BEGIN  Append only
 0016D4 4710 A1CE            016FA 15886             +
 0016D8 58F0 2030            00030 15891  1 1581.                L     R15,RQIBLK          Get first block to write
 0016DC                            15892  1 1582.                IF    (IXRNRCS,NZ),BEGIN  File not empty
 0016DC D603 6030 6030 00030 00030 15902  1          +
 0016E2 4780 A1C4            016F0 15903  1          +
 0016E6 06F0                       15908  2 1583.                  DECR  R15                 Set to previous block
 0016E8 BDF7 6041            00041 15910  2 1584.                  IF    (R15,NE,IXRHIRF),M1IWRE08 Must be last in file
 0016EC 4770 A870            01D9C 15924  2          +
 0016F0                            15930  1 1585.                END   ,                   File not empty
 0016F0 A1C8           016F0 016E4 15934  1 1586.                ELSEIF (R15,NZ),M1IWRE08  Must be first block in file
 0016F0 47F0 A1CE/12FF       016FA 15940  1          +
 0016F6 4770 A870            01D9C 15954  1          +
 0016FA                            15960    1587.              END   ,                   Append only
00016FA                            15965    1589.              LOOP  BEGIN               Write all the data
00016FA                            15972  1 1591.                IF    (IXRNT,Z),BEGIN     New user record
 0016FA D602 6044 6044 00044 00044 15982  1          +
 001700 4770 A26E            0179A 15983  1          +
 001704 4D10 A7DE            01D0A 15988  2 1592.                  BAS   RS,M1IWRIT8         Get a new user block number
 001708 BE07 6044            00044 15989  2 1593.                  ST3   RVR,IXRNT           Set new block number
 00170C                            15991  2 1594.                  IF    ((M.IXRNT,Z),AND,(M.IXRLWRC,Z)),BEGIN
 00170C D602 4044 4044 00044 00044 16003  2          +
 001712 4770 A1FA            01726 16004  2          +
 001716 D602 4038 4038 00038 00038 16016  2          +
 00171C 4770 A1FA            01726 16017  2          +
 001720 D202 4038 C062 00038 0001A 16022  3 1595.                    MVC   M.IXRLWRC,#WRIIXRN  Set low record index
 001726                            16023  2 1596.                  END   ,
 001726 A1FE           01726 01714 16027  2 1597.                  ELSEIF (#WRIIXRN,LT,M.IXRLWRC),BEGIN
 00171E A1FE           01720 01726 16033  2          +
 001726 47F0 A20E            0173A 16035  2          +
1FILEMAN  (FILEMA) (09:39) (22MAR04) ORVYL'S File Manager                                                                   Page  113
0Current Usings:  (PZERO,R0) (RQWB,R2) (FSB,R3) (M.IXR,R4) (IXR,R6) (S.IXR,R7) (M1IWRIT,R10) (#WRIWK-72,R12) (@FDOIODO-72,R13)
0Loc    Object Code    Addr1 Addr2  Stmt Lv Lineno    Source Statement           (Hibal 5, Asmedit 3.3)  HLASM R4.0  2004/03/22 09.39
+___    ______ ____    _____ _____  ____ __ ______    ______ _________
000172A D502 C062 4038 0001A 00038 16050  2          +
 001730 47B0 A20E            0173A 16051  2          +
 001734 D202 4038 C062 00038 0001A 16056  3 1598.                    MVC   M.IXRLWRC,#WRIIXRN  Set low record index
 00173A                            16057  2 1599.                  END   ,
 00173A                            16061  2 1600.                  IF    (#WRIIXRN,GT,M.IXRHIRC),'MVC M.IXRHIRC,#WRIIXRN'
 00173A D502 C062 403B 0001A 0003B 16073  2          +
 001740 47D0 A21E            0174A 16074  2          +
 001744 D202 403B C062 0003B 0001A 16080  2          +
 00174A D502 703E C05D 0003E 00015 16085  2 1601.                  CLC   S.IXRLWRF,#WRICBLK+1
 001750 4720 A232            0175E 16086  2 1602.                  IF    (GT,OR,(S.IXRNRCS,Z)),'MVC S.IXRLWRF,#WRICBLK+1'
 001754 D603 7030 7030 00030 00030 16106  2          +
 00175A 4770 A238            01764 16107  2          +
 00175E D202 703E C05D 0003E 00015 16113  2          +
 001764 D502 7041 C05D 00041 00015 16118  2 1603.                  CLC   S.IXRHIRF,#WRICBLK+1
 00176A 47B0 A248            01774 16119  2 1604.                  IF    LT,'MVC S.IXRHIRF,#WRICBLK+1'
 00176E D202 7041 C05D 00041 00015 16131  2          +
 001774 41E0 0001            00001 16136  2 1605.                  INCR  R14,S.IXRNRCS       One more user record
 001778 5EE0 7030            00030 16140  2          +
 00177C 50E0 7030            00030 16141  2          +
 001780 41E0 0001            00001 16142  2 1606.                  INCR  R14,S.IXRRRCS       One more total record
 001784 5EE0 7034            00034 16146  2          +
 001788 50E0 7034            00034 16147  2          +
 00178C 9680 C065      0001D       16148  2 1607.                  SET   #WRIFSIX            First IXR needs writing
 001790 1974/4780 A26E       0179A 16154  2 1608.                  IF    (RY,NE,RJ),'SET #WRIFIXR' Other IXR needs writing
 001796 9640 C065      0001D       16175  2          +
 00179A                            16180  1 1609.                END   ,                   New user record
000179A                            16185  1 1611.                IF    (RQILEN,NZ),BEGIN
 00179A D603 2034 2034 00034 00034 16195  1          +
 0017A0 4780 A29C            017C8 16196  1          +
 DROP   @FDOIODO-72,R13            16201  2 1612.                  CHKMEM RQIDAT,RQILEN      Make sure memory not released
 USING  @CHKMEM-72,R13
 0017A4 D707 D048 D048 00000 00000 16222  2          +
 0017AA D203 D048 203C 00000 0003C 16227  2          +
 0017B0 D201 D04C 2036 00004 00036 16232  2          +
 0017B6 D200 D04E 2021 00006 00021 16237  2          +
 0017BC 58F0 A6F4/0DEF       01C20 16243  2          +
 0017C2 1200/4770 A85C       01D88 16245  2 1613.                  IF    (RVR,NZ),M1IWRE_4   IO error
 0017C8                            16262  1 1614.                END   ,
00017C8 58F0 C058            00010 16267  1 1616.                L     R15,#WRILCNT        Set len
 0017CC 49F0 30AC            000AC 16268  1 1617.                IF    (R15,LE,FSBDSZ),'CLEAR #WRILCNT' Enough room on block
 0017D0 4730 A2AE            017DA 16280  1          +
 0017D4 D703 C058 C058 00010 00010 16292  1          +
 0017DA A2B2           017DA 017D2 16297  1 1618.                ELSE  BEGIN               Get all this block
 0017DA 47F0 A2C0            017EC 16302  1          +
 0017DE 48F0 30AC            000AC 16308  2 1619.                  LH    R15,FSBDSZ          Set length to write
 0017E2 58E0 C058            00010 16309  2 1620.                  L     R14,#WRILCNT        Get count remaining
 0017E6 1BEF                       16310  2 1621.                  SR    R14,R15             Calc new count remaining
 0017E8 50E0 C058            00010 16311  2 1622.                  ST    R14,#WRILCNT        Set
 0017EC                            16312  1 1623.                END   ,                   Set count left to write
0DROP   @CHKMEM-72,R13             16317  1 1625.                PSET  @FDOIODO
 USING  @FDOIODO-72,R13
1FILEMAN  (FILEMA) (09:39) (22MAR04) ORVYL'S File Manager                                                                   Page  114
0Current Usings:  (PZERO,R0) (RQWB,R2) (FSB,R3) (M.IXR,R4) (IXR,R6) (S.IXR,R7) (M1IWRIT,R10) (#WRIWK-72,R12) (@FDOIODO-72,R13)
0Loc    Object Code    Addr1 Addr2  Stmt Lv Lineno    Source Statement           (Hibal 5, Asmedit 3.3)  HLASM R4.0  2004/03/22 09.39
+___    ______ ____    _____ _____  ____ __ ______    ______ _________
00017EC D70F D048 D048 00000 00000 16337  1          +
 0017F2 5030 D048            00000 16338  1 1626.                PMOV  @FDOFSB,LA:FSB      FSB ptr
 0017F6                            16349  1 1627.                PMOV  @FDOBLK,IXRNT       Block number
 0017F6 D202 D04D 6044 00005 00044 16353  1          +
 0017FC                            16354  1 1628.                PMOV  @FDODATA,#WRIUSE    Use this block
 0017FC D203 D050 C050 00008 00008 16358  1          +
 001802 40F0 D054            0000C 16359  1 1629.                PMOV  @FDODATL,(R15)      Data length
 001806 4100 0001            00001 16369  1 1630.                PMOV  @FDOTYPE,LA:FBHTUSER Set to user record
 00180A 4200 D056            0000E 16385  1          +
 00180E 9660 D057      0000F       16386  1 1631.                SET   @FDOFW+@FDOFUSE     Indicate write user record
 001812 4810 30AC            000AC 16395  1 1632.                LH    RS,FSBDSZ           Get len
 001816 5800 C050            00008 16396  1 1633.                L     RVR,#WRIUSE         Point to user IO buffer
 00181A 58E0 203C            0003C 16397  1 1634.                L     R14,RQIDAT          Point to user data
 00181E 5AE0 C054            0000C 16398  1 1635.                A     R14,#WRIBCNT        Point past part already written
 001822 0E0E                       16399  1 1636.                MVCL  RVR,R14             Move the data to write
 001824 48E0 D054            0000C 16400  1 1637.                LH    R14,@FDODATL        Get length written
 001828 5AE0 C054            0000C 16401  1 1638.                A     R14,#WRIBCNT        Calc total bytes written
 00182C 50E0 C054            0000C 16402  1 1639.                ST    R14,#WRIBCNT        Set
0001830 58F0 A6F8/0DEF       01C24 16404  1 1641.                VCALL FDOIODO             Write user record
 001836 1200/4770 A85C       01D88 16408  1 1642.                IF    (RVR,NZ),M1IWRE_4   IO error
000183C                            16426  1 1644.                IF    (#WRILCNT,Z),EXIT   No more data
 00183C D603 C058 C058 00010 00010 16436  1          +
 001842 4780 A378            018A4 16439  1          +
0001846 4160 6003            00003 16446  1 1646.                LA    RX,IXR+L'IXRNT      Point to next user block number
 00184A 41F0 0001            00001 16447  1 1647.                INCR  R15,#WRICBLK        Increment current block number
 00184E 5EF0 C05C            00014 16451  1          +
 001852 50F0 C05C            00014 16452  1          +
 001856 BFF7 C062            0001A 16453  1 1648.                INCR  R15,#WRIIXRN        Increment current block no in IXR
 00185A 41F0 F001            00001 16457  1          +
 00185E BEF7 C062            0001A 16458  1          +
 001862 1965/4750 A374       018A0 16459  1 1649.                IF    (RX,GE,RK),BEGIN    Use next IXR
 001868 9140 C065      0001D       16474  2 1650.                  IF    #WRIFIXR,BEGIN      IXR needs writing
 00186C 47E0 A34E            0187A 16484  2          +
 001870 94BF C065      0001D       16489  3 1651.                    CLEAR #WRIFIXR            Next one might not
 001874 18E4                       16496  3 1652.                    LR    R14,RJ
 001876 4D10 A712            01C3E 16497  3 1653.                    BAS   RS,M1IWRIT5         Write the IXR
 00187A                            16498  2 1654.                  END   ,                   IXR needs writing
 00187A                            16502  2 1655.                  CLEAR #WRIIXRN            Start at block zero
 00187A D702 C062 C062 0001A 0001A 16508  2          +
 001880 5E90 A6FC            01C28 16509  2 1656.                  INCR  RN
 001884 58E0 C04C            00004 16512  2 1657.                  L     R14,#WRIIXR         Get buffer pointer
 001888 18F9                       16513  2 1658.                  LR    R15,RN
 00188A 5AF0 205C            0005C 16514  2 1659.                  A     R15,RQFBLK
 00188E 4D10 A728            01C54 16515  2 1660.                  BAS   RS,M1IWRIT6         Get IXR
 001892 186E                       16516  2 1661.                  LR    RX,R14              Get IXR pointer
 001894 5060 C04C            00004 16517  2 1662.                  ST    RX,#WRIIXR          Save buffer pointer
 001898 4140 6000            00000 16518  2 1663.                  LA    RJ,IXR              Point to the IXR
 00189C 4150 67BC            007BC 16519  2 1664.                  LA    RK,IXR+(L'IXRNT*IXRNT#) Point past the end of IXR
 0018A0                            16520  1 1665.                END   ,                   Use next IXR
 0018A0 47F0 A1CE            016FA 16524    1666.              END   ,                   Write all the data
1FILEMAN  (FILEMA) (09:39) (22MAR04) ORVYL'S File Manager                                                                   Page  115
0Current Usings:  (PZERO,R0) (RQWB,R2) (FSB,R3) (M.IXR,R4) (IXR,R6) (S.IXR,R7) (M1IWRIT,R10) (#WRIWK-72,R12) (@FDOIODO-72,R13)
0Loc    Object Code    Addr1 Addr2  Stmt Lv Lineno    Source Statement           (Hibal 5, Asmedit 3.3)  HLASM R4.0  2004/03/22 09.39
+___    ______ ____    _____ _____  ____ __ ______    ______ _________
00018A4                            16530    1668.              CLEAR RQRETC              Set return code
 0018A4 D703 2044 2044 00044 00044 16536             +
 0018AA 47F0 A8B0            01DDC 16537    1669.              B     M1IWRITE
00018AE                            16539    1671.     M1IWRITX LABEL ,                   IXR file
00018AE 1BEE                       16542    1673.              CLEAR R14
 0018B0 58F0 205C            0005C 16546    1674.              L     R15,RQFBLK
 0018B4 4D10 A728            01C54 16547    1675.              BAS   RS,M1IWRIT6         Get first IXR
 0018B8 186E                       16548    1676.              LR    RX,R14              Get IXR pointer
 0018BA 5060 C04C            00004 16549    1677.              ST    RX,#WRIIXR          Save buffer pointer
                                   16550    1678.     *
                                   16551    1679.     * For append only, the block previous to the first one being written
                                   16552    1680.     * must currently be the last block in the file (or the first one
                                   16553    1681.     * being written must be block zero if there are currently no blocks
                                   16554    1682.     * in the file).
                                   16555    1683.     *
                                   16556    1684.     * MIXR append only edit
 0018BE 9104 201F      0001F       16557    1685.              IF    (~RQMPERM.FPW,AND,~IXRSIXR),BEGIN MIXR case
 0018C2 4710 A3C4            018F0 16570             +
 0018C6 9140 6000      00000       16581             +
 0018CA 4710 A3C4            018F0 16582             +
 0018CE 58F0 2030            00030 16587  1 1686.                L     R15,RQIBLK          Get block number to write
 0018D2                            16588  1 1687.                IF    (IXRNRCS,NZ),BEGIN  File not empty
 0018D2 D603 6030 6030 00030 00030 16598  1          +
 0018D8 4780 A3BA            018E6 16599  1          +
 0018DC 06F0                       16604  2 1688.                  DECR  R15                 Set to previous block
 0018DE BDF7 603B            0003B 16606  2 1689.                  IF    (R15,NE,IXRHIRC),M1IWRE08 Must be last block in MIXR
 0018E2 4770 A870            01D9C 16620  2          +
 0018E6                            16626  1 1690.                END   ,                   File not empty
 0018E6 A3BE           018E6 018DA 16630  1 1691.                ELSEIF (R15,NZ),M1IWRE08  Must be first block in file
 0018E6 47F0 A3C4/12FF       018F0 16636  1          +
 0018EC 4770 A870            01D9C 16650  1          +
 0018F0                            16656    1692.              END   ,                   MIXR case
                                   16660    1693.     * Append only edit to follow for SIXR
00018F0 9140 6000      00000       16662    1695.              IF    (IXRSIXR,OR,(RQLBLK,GE,IXRNT#)),BEGIN Need SIXR buffer
 0018F4 4710 A3D6            01902 16676             +
 0018F8 D503 A704 2070 01C30 00070 16688             +
 0018FE 4730 A3EE            0191A 16689             +
 DROP   @FDOIODO-72,R13            16694  1 1696.                PSET  @SBGET
 USING  @SBGET-72,R13
 001902 D70B D048 D048 00000 00000 16714  1          +
 001908                            16715  1 1697.                PMOV  @SBGPOO,FSBRBT      Get another IO buffer
 001908 D203 D048 302C 00000 0002C 16719  1          +
 00190E 58F0 A6F0/0DEF       01C1C 16720  1 1698.                VCALL SBUFGET
 001914 D203 C048 D04C 00000 00004 16724  1 1699.                MVC   #WRISIX,@SBGADR     Set SIXR buffer address
 00191A                            16725    1700.              END   ,                   File needs SIXR
000191A D203 C058 2034 00010 00034 16730    1702.              MVC   #WRILCNT,RQILEN     Get count of bytes to write
 001920 5890 2030            00030 16731    1703.              L     RN,RQIBLK           Get block no requested
 001924 5090 C05C            00014 16732    1704.              ST    RN,#WRICBLK         Set last block processed
 001928 1B88                       16733    1705.              CLEAR RM
 00192A 5D80 A700            01C2C 16737    1706.              D     RM,=A(IXRNT#)       Calc IXR index
1FILEMAN  (FILEMA) (09:39) (22MAR04) ORVYL'S File Manager                                                                   Page  116
0Current Usings:  (PZERO,R0) (RQWB,R2) (FSB,R3) (M.IXR,R4) (IXR,R6) (S.IXR,R7) (M1IWRIT,R10) (#WRIWK-72,R12) (@SBGET-72,R13)
0Loc    Object Code    Addr1 Addr2  Stmt Lv Lineno    Source Statement           (Hibal 5, Asmedit 3.3)  HLASM R4.0  2004/03/22 09.39
+___    ______ ____    _____ _____  ____ __ ______    ______ _________
000192E 4090 C060            00018 16738    1707.              STH   RN,#WRISIXN         Save IXR index in SIXR
 001932 BE87 C062            0001A 16739    1708.              ST3   RM,#WRIIXRN         Save user index in IXR
 001936 4C90 A70C            01C38 16741    1709.              MH    RN,=Y(L'IXRNT)      Calc displacement into SIXR
000193A 9140 6000      00000       16743    1711.              IF    IXRSIXR,BEGIN       SIXR record
 00193E 47E0 A49C            019C8 16753             +
 001942 D203 C04C C048 00004 00000 16758  1 1712.                MVC   #WRIIXR,#WRISIX     Set IXR buffer address
 001948 5060 C048            00000 16759  1 1713.                ST    RX,#WRISIX          Set SIXR buffer address
 00194C 4179 6000            00000 16760  1 1714.                LA    RY,IXR(RN)          Point to IXR block number in SIXR
0001950 9104 201F      0001F       16762  1 1716.                IF    ~RQMPERM.FPW,BEGIN  Append only edit
 001954 4710 A476            019A2 16773  1          +
                                   16778  2 1717.     * Previous block must be in the last IXR
 001958 58F0 2030            00030 16779  2 1718.                  L     R15,RQIBLK          Get block number to write
 00195C 06F0                       16780  2 1719.                  DECR  R15                 Set to previous block
 00195E 1BEE                       16782  2 1720.                  CLEAR R14
 001960 5DE0 A700            01C2C 16786  2 1721.                  D     R14,=A(IXRNT#)      Calc IXR index
 001964 49F0 67FE            007FE 16787  2 1722.                  IF    (R15,NE,IXRHIXR),M1IWRE08 Must be in last IXR
 001968 4770 A870            01D9C 16801  2          +
                                   16807  2 1723.     * When writting first in new IXR, last in previous IXR must exist
 00196C                            16808  2 1724.                  IF    (S.IXRNT,Z),BEGIN   New IXR needed
 00196C D602 7044 7044 00044 00044 16818  2          +
 001972 4770 A476            019A2 16819  2          +
 001976                            16824  3 1725.                    IF    (#WRIIXRN,NZ),M1IWRE08 Must be first block in new IXR
 001976 D602 C062 C062 0001A 0001A 16834  3          +
 00197C 4770 A870            01D9C 16837  3          +
 001980 4140 7000            00000 16843  3 1726.                    LA    RJ,S.IXR            Point to IXR number
 001984 4B40 A70C            01C38 16844  3 1727.                    SH    RJ,=Y(L'IXRNT)      Point to previous IXR number
 001988 58E0 C04C            00004 16845  3 1728.                    L     R14,#WRIIXR         Point to IXR buffer
 00198C 1FFF/BFF7 4044       00044 16846  3 1729.                    L3    R15,M.IXRNT         Get previous IXR number
 001992 4D10 A728            01C54 16852  3 1730.                    BAS   RS,M1IWRIT6         Get IXR
 001996 186E                       16853  3 1731.                    LR    RX,R14              Get IXR pointer
 001998                            16854  3 1732.                    IF    (IXRHIRC,NE,IXRNT#-1),M1IWRE08 Previous blk must exist
 001998 D502 A70E 603B 01C3A 0003B 16866  3          +
 00199E 4770 A870            01D9C 16869  3          +
 0019A2                            16875  2 1733.                  END   ,                   New IXR needed
 0019A2                            16879  1 1734.                END   ,                   Append only edit
 0019A2 4D10 A746            01C72 16883  1 1735.                BAS   RS,M1IWRIT7         Get the IXR
                                   16884  1 1736.     * Edit for append only when not the first in new IXR
 0019A6 9104 201F      0001F       16885  1 1737.                IF    (~RQMPERM.FPW,AND,(#WRIIXRN,NZ)),BEGIN Check append only
 0019AA 4710 A49C            019C8 16898  1          +
 0019AE D602 C062 C062 0001A 0001A 16910  1          +
 0019B4 4780 A49C            019C8 16911  1          +
 0019B8 1FFF/BFF7 C062       0001A 16916  2 1738.                  L3    R15,#WRIIXRN        Get user record index
 0019BE 06F0                       16922  2 1739.                  DECR  R15                 Calc index for previous block in IXR
 0019C0 BDF7 603B            0003B 16924  2 1740.                  IF    (R15,NE,IXRHIRC),M1IWRE08 Must be last block in IXR
 0019C4 4770 A870            01D9C 16938  2          +
 0019C8                            16944  1 1741.                END   ,                   Check append only
                                   16948  1 1742.     * End of append edits
 0019C8                            16949    1743.              END   ,                   SIXR record
 0019C8 A4A0           019C8 01940 16953    1744.              ELSEIF (RQLBLK,GE,IXRNT#),BEGIN Convert MIXR to SIXR
 0019C8 47F0 A52A            01A56 16959             +
 0019CC D503 A704 2070 01C30 00070 16974             +
 0019D2 4730 A52A            01A56 16975             +
1FILEMAN  (FILEMA) (09:39) (22MAR04) ORVYL'S File Manager                                                                   Page  117
0Current Usings:  (PZERO,R0) (RQWB,R2) (FSB,R3) (M.IXR,R4) (IXR,R6) (S.IXR,R7) (M1IWRIT,R10) (#WRIWK-72,R12) (@SBGET-72,R13)
0Loc    Object Code    Addr1 Addr2  Stmt Lv Lineno    Source Statement           (Hibal 5, Asmedit 3.3)  HLASM R4.0  2004/03/22 09.39
+___    ______ ____    _____ _____  ____ __ ______    ______ _________
0                                  16980  1 1745.     * If not a SIXR and last block number greater than max for MIXR
                                   16981  1 1746.     * then create a SIXR and make the MIXR the first IXR in the SIXR.
 0019D6 5870 C048            00000 16982  1 1747.                L     RY,#WRISIX          Get SIXR buffer address
 0019DA 9680 C065      0001D       16983  1 1748.                SET   #WRIFSIX            SIXR needs saving
 0019DE D243 7000 6000 00000 00000 16989  1 1749.                MVC   S.IXRPREF,IXRPREF   Get header
 0019E4 D202 7001 205D 00001 0005D 16990  1 1750.                MVC   S.IXRECNO,RQFBLK+1  Set SIXR record number
 0019EA                            16991  1 1751.                CLEAR S.IXRNIXR,S.IXRLWXR,S.IXRHIXR Init SIXR special counters
 0019EA D701 77FA 77FA 007FA 007FA 16997  1          +
 0019F0 D701 77FC 77FC 007FC 007FC 17002  1          +
 0019F6 D701 77FE 77FE 007FE 007FE 17007  1          +
 0019FC 96C0 7000      00000       17008  1 1752.                SET   S:IXRSTATE.IXRMIXR+IXRSIXR Set to super IXR
 001A00                            17017  1 1753.                CLEAR S.IXRLWRC,S.IXRHIRC Not used in SIXR
 001A00 D702 7038 7038 00038 00038 17023  1          +
 001A06 D702 703B 703B 0003B 0003B 17028  1          +
                                   17029  1 1754.     * If the orginal MIXR not empty, it is now the first IXR
                                   17030  1 1755.     * so get a new block number, set it up and save it.
 001A0C                            17031  1 1756.                IF    (IXRNRCS,NZ),BEGIN  Original MIXR not empty
 001A0C D603 6030 6030 00030 00030 17041  1          +
 001A12 4780 A522            01A4E 17042  1          +
 001A16 9200 6000      00000       17047  2 1757.                  CLEAR IXRSTATE            Set to lowley IXR
 001A1A                            17054  2 1758.                  CLEAR IXRRRCS             Only used for MIXR/SIXR
 001A1A D703 6034 6034 00034 00034 17060  2          +
 001A20 4D10 A7DE            01D0A 17061  2 1759.                  BAS   RS,M1IWRIT8         Get a new block number
 001A24 BE07 6001            00001 17062  2 1760.                  ST3   RVR,IXRECNO         Set new IXR number
 001A28 D202 7044 6001 00044 00001 17064  2 1761.                  MVC   S.IXRNT,IXRECNO     Set IXR record number
 001A2E 41E0 0001            00001 17065  2 1762.                  INCR  R14,S.IXRNIXR       Increment number of IXRs in file
 001A32 4AE0 77FA            007FA 17069  2          +
 001A36 40E0 77FA            007FA 17070  2          +
 001A3A 41E0 0001            00001 17071  2 1763.                  INCR  R14,S.IXRRRCS       Increment total number of blocks
 001A3E 5EE0 7034            00034 17075  2          +
 001A42 50E0 7034            00034 17076  2          +
 001A46 41E0 6000            00000 17077  2 1764.                  LA    R14,IXR             Set IXR address
 001A4A 4D10 A712            01C3E 17078  2 1765.                  BAS   RS,M1IWRIT5         Write IXR
 001A4E                            17079  1 1766.                END   ,                   Original MIXR not empty
 001A4E 4179 7000            00000 17083  1 1767.                LA    RY,S.IXR(RN)        Point to IXR block number in SIXR
 001A52 4D10 A746            01C72 17084  1 1768.                BAS   RS,M1IWRIT7         Get the IXR
 001A56                            17085    1769.              END   ,                   Convert MIXR to SIXR
 001A56 A52E           01A56 019D4 17089    1770.              ELSE  'CLEAR RY'          Indicate simple MIXR case
 001A56 47F0 A530/1B77       01A5C 17094             +
0001A5C 1FFF/BFF7 C062       0001A 17110    1772.              L3    R15,#WRIIXRN        Get index to user block number
 001A62 4CF0 A70C            01C38 17116    1773.              MH    R15,=Y(L'IXRNT)     Calc displacement to block number
 001A66 416F 6000            00000 17117    1774.              LA    RX,IXR(R15)         Point to it
0                                  17119    1776.     * Control 0 comes through here also for create a block (must
                                   17120    1777.     * not already exist).
 001A6A 9510 201C      0001C       17121    1778.              IF    (RQCONT,AND,(IXRNT,NZ)),M1IWRE12
 001A6E 4770 A550            01A7C 17133             +
 001A72 D602 6044 6044 00044 00044 17145             +
 001A78 4770 A88A            01DB6 17148             +
0001A7C                            17155    1780.              LOOP  BEGIN               Write all the data
0001A7C                            17162  1 1782.                IF    (IXRNT,Z),BEGIN     New user record
1FILEMAN  (FILEMA) (09:39) (22MAR04) ORVYL'S File Manager                                                                   Page  118
0Current Usings:  (PZERO,R0) (RQWB,R2) (FSB,R3) (M.IXR,R4) (IXR,R6) (S.IXR,R7) (M1IWRIT,R10) (#WRIWK-72,R12) (@SBGET-72,R13)
0Loc    Object Code    Addr1 Addr2  Stmt Lv Lineno    Source Statement           (Hibal 5, Asmedit 3.3)  HLASM R4.0  2004/03/22 09.39
+___    ______ ____    _____ _____  ____ __ ______    ______ _________
0001A7C D602 6044 6044 00044 00044 17172  1          +
 001A82 4770 A5D6            01B02 17173  1          +
 001A86 9640 C065      0001D       17178  2 1783.                  SET   #WRIFIXR            IXR needs writing
 001A8A 4D10 A7DE            01D0A 17184  2 1784.                  BAS   RS,M1IWRIT8         Get a new user block number
 001A8E BE07 6044            00044 17185  2 1785.                  ST3   RVR,IXRNT           Set new block number
 001A92 5840 C04C            00004 17187  2 1786.                  L     RJ,#WRIIXR          Get IXR pointer
 001A96 41E0 0001            00001 17188  2 1787.                  INCR  R14,M.IXRNRCS       One more user record
 001A9A 5EE0 4030            00030 17192  2          +
 001A9E 50E0 4030            00030 17193  2          +
 001AA2                            17194  2 1788.                  IF    ((#WRIIXRN,LT,M.IXRLWRC),OR,(M.IXRNRCS,EQ,1)),BEGIN
 001AA2 D502 C062 4038 0001A 00038 17208  2          +
 001AA8 4740 A58A            01AB6 17211  2          +
 001AAC D503 A708 4030 01C34 00030 17223  2          +
 001AB2 4770 A590            01ABC 17224  2          +
 001AB6 D202 4038 C062 00038 0001A 17229  3 1789.                    MVC   M.IXRLWRC,#WRIIXRN  Set low record index
 001ABC                            17230  2 1790.                  END   ,
 001ABC                            17234  2 1791.                  IF    (#WRIIXRN,GT,M.IXRHIRC),'MVC M.IXRHIRC,#WRIIXRN'
 001ABC D502 C062 403B 0001A 0003B 17246  2          +
 001AC2 47D0 A5A0            01ACC 17247  2          +
 001AC6 D202 403B C062 0003B 0001A 17253  2          +
 001ACC 1277/4770 A5B2       01ADE 17258  2 1792.                  IF    (RY,Z),BEGIN        IXR is a MIXR
 001AD2 41E0 0001            00001 17272  3 1793.                    INCR  R14,M.IXRRRCS       One more total record
 001AD6 5EE0 4034            00034 17276  3          +
 001ADA 50E0 4034            00034 17277  3          +
 001ADE                            17278  2 1794.                  END   ,                   IXR is a MIXR
 001ADE A5B6           01ADE 01AD0 17282  2 1795.                  ELSE  BEGIN               Increment in SIXR also
 001ADE 47F0 A5D6            01B02 17287  2          +
 001AE2 9680 C065      0001D       17293  3 1796.                    SET   #WRIFSIX            SIXR needs to be filed also
 001AE6 5840 C048            00000 17299  3 1797.                    L     RJ,#WRISIX
 001AEA 41E0 0001            00001 17300  3 1798.                    INCR  R14,M.IXRNRCS       One more user record
 001AEE 5EE0 4030            00030 17304  3          +
 001AF2 50E0 4030            00030 17305  3          +
 001AF6 41E0 0001            00001 17306  3 1799.                    INCR  R14,M.IXRRRCS       One more total record
 001AFA 5EE0 4034            00034 17310  3          +
 001AFE 50E0 4034            00034 17311  3          +
 001B02                            17312  2 1800.                  END   ,                   Increment in SIXR also
 001B02                            17316  1 1801.                END   ,                   New user record
0001B02 5850 C058            00010 17321  1 1803.                L     RK,#WRILCNT         Set len
 001B06 4950 30AC            000AC 17322  1 1804.                IF    (RK,LE,FSBDSZ),'CLEAR #WRILCNT' Enough room on block
 001B0A 4730 A5E8            01B14 17334  1          +
 001B0E D703 C058 C058 00010 00010 17346  1          +
 001B14 A5EC           01B14 01B0C 17351  1 1805.                ELSE  BEGIN               Get all this block
 001B14 47F0 A5FA            01B26 17356  1          +
 001B18 4850 30AC            000AC 17362  2 1806.                  LH    RK,FSBDSZ           Set length to write
 001B1C 58E0 C058            00010 17363  2 1807.                  L     R14,#WRILCNT        Get count remaining
 001B20 1BE5                       17364  2 1808.                  SR    R14,RK              Calc new count remaining
 001B22 50E0 C058            00010 17365  2 1809.                  ST    R14,#WRILCNT        Set
 001B26                            17366  1 1810.                END   ,                   Set count left to write
0001B26                            17371  1 1812.                IF    (RQILEN,NZ),BEGIN
 001B26 D603 2034 2034 00034 00034 17381  1          +
 001B2C 4780 A628            01B54 17382  1          +
 DROP   @SBGET-72,R13              17387  2 1813.                  CHKMEM RQIDAT,RQILEN      Make sure memory not released
1FILEMAN  (FILEMA) (09:39) (22MAR04) ORVYL'S File Manager                                                                   Page  119
0Current Usings:  (PZERO,R0) (RQWB,R2) (FSB,R3) (M.IXR,R4) (IXR,R6) (S.IXR,R7) (M1IWRIT,R10) (#WRIWK-72,R12) (@CHKMEM-72,R13)
0Loc    Object Code    Addr1 Addr2  Stmt Lv Lineno    Source Statement           (Hibal 5, Asmedit 3.3)  HLASM R4.0  2004/03/22 09.39
+___    ______ ____    _____ _____  ____ __ ______    ______ _________
0USING  @CHKMEM-72,R13
 001B30 D707 D048 D048 00000 00000 17408  2          +
 001B36 D203 D048 203C 00000 0003C 17413  2          +
 001B3C D201 D04C 2036 00004 00036 17418  2          +
 001B42 D200 D04E 2021 00006 00021 17423  2          +
 001B48 58F0 A6F4/0DEF       01C20 17429  2          +
 001B4E 1200/4770 A85C       01D88 17431  2 1814.                  IF    (RVR,NZ),M1IWRE_4   IO error
 001B54                            17448  1 1815.                END   ,
0DROP   @CHKMEM-72,R13             17453  1 1817.                PSET  @FDOIODO
 USING  @FDOIODO-72,R13
 001B54 D70F D048 D048 00000 00000 17473  1          +
 001B5A 5030 D048            00000 17474  1 1818.                PMOV  @FDOFSB,LA:FSB      FSB ptr
 001B5E                            17485  1 1819.                PMOV  @FDOBLK,IXRNT       Block number
 001B5E D202 D04D 6044 00005 00044 17489  1          +
 001B64                            17490  1 1820.                PMOV  @FDODATA,#WRIUSE    Use this block
 001B64 D203 D050 C050 00008 00008 17494  1          +
 001B6A 4050 D054            0000C 17495  1 1821.                PMOV  @FDODATL,(RK)       Data length
 001B6E 4100 0001            00001 17505  1 1822.                PMOV  @FDOTYPE,LA:FBHTUSER Set to user record
 001B72 4200 D056            0000E 17521  1          +
 001B76 9660 D057      0000F       17522  1 1823.                SET   @FDOFW+@FDOFUSE     Indicate write user record
 001B7A 18E5                       17531  1 1824.                LR    R14,RK              Get count to write
 001B7C 4810 30AC            000AC 17532  1 1825.                LH    RS,FSBDSZ           Get len
 001B80 5800 C050            00008 17533  1 1826.                L     RVR,#WRIUSE         Point to user IO buffer
 001B84 5840 203C            0003C 17534  1 1827.                L     RJ,RQIDAT           Point to user data
 001B88 5A40 C054            0000C 17535  1 1828.                A     RJ,#WRIBCNT         Point past part already written
 001B8C 0E04                       17536  1 1829.                MVCL  RVR,RJ              Move the data to write
 001B8E 5AE0 C054            0000C 17537  1 1830.                A     R14,#WRIBCNT        Calc total bytes written
 001B92 50E0 C054            0000C 17538  1 1831.                ST    R14,#WRIBCNT        Set
0001B96 58F0 A6F8/0DEF       01C24 17540  1 1833.                VCALL FDOIODO             Write user record
 001B9C 1200/4770 A85C       01D88 17544  1 1834.                IF    (RVR,NZ),M1IWRE_4   IO error
0001BA2                            17562  1 1836.                IF    (#WRILCNT,Z),EXIT   No more data
 001BA2 D603 C058 C058 00010 00010 17572  1          +
 001BA8 4780 A6DC            01C08 17575  1          +
0001BAC 4160 6003            00003 17582  1 1838.                LA    RX,IXR+L'IXRNT      Point to next user block number
 001BB0 41F0 0001            00001 17583  1 1839.                INCR  R15,#WRICBLK        Increment current block number
 001BB4 5EF0 C05C            00014 17587  1          +
 001BB8 50F0 C05C            00014 17588  1          +
 001BBC BFF7 C062            0001A 17589  1 1840.                INCR  R15,#WRIIXRN        Increment current block no in IXR
 001BC0 41F0 F001            00001 17593  1          +
 001BC4 BEF7 C062            0001A 17594  1          +
 001BC8 5840 C04C            00004 17595  1 1841.                L     RJ,#WRIIXR          Get IXR pointer
 001BCC 41F0 47BC            007BC 17596  1 1842.                LA    R15,M.IXR+(L'IXRNT*IXRNT#) Point past the end of IXR
 001BD0 196F/4750 A6D8       01C04 17597  1 1843.                IF    (RX,GE,R15),BEGIN   Use next IXR
 001BD6 9140 C065      0001D       17612  2 1844.                  IF    #WRIFIXR,BEGIN      IXR needs writing
 001BDA 47E0 A6BE            01BEA 17622  2          +
 001BDE 94BF C065      0001D       17627  3 1845.                    CLEAR #WRIFIXR            Next one might not
 001BE2 58E0 C04C            00004 17634  3 1846.                    L     R14,#WRIIXR         Set IXR address
 001BE6 4D10 A712            01C3E 17635  3 1847.                    BAS   RS,M1IWRIT5         Write IXR
 001BEA                            17636  2 1848.                  END   ,                   IXR needs writing
 001BEA 4170 7003            00003 17640  2 1849.                  LA    RY,S.IXR+L'IXRNT    Point to next IXR number
1FILEMAN  (FILEMA) (09:39) (22MAR04) ORVYL'S File Manager                                                                   Page  120
0Current Usings:  (PZERO,R0) (RQWB,R2) (FSB,R3) (M.IXR,R4) (IXR,R6) (S.IXR,R7) (M1IWRIT,R10) (#WRIWK-72,R12) (@FDOIODO-72,R13)
0Loc    Object Code    Addr1 Addr2  Stmt Lv Lineno    Source Statement           (Hibal 5, Asmedit 3.3)  HLASM R4.0  2004/03/22 09.39
+___    ______ ____    _____ _____  ____ __ ______    ______ _________
0001BEE 41E0 0001            00001 17641  2 1850.                  INCR  R14,#WRISIXN        Increment IXR disp in SIXR
 001BF2 4AE0 C060            00018 17645  2          +
 001BF6 40E0 C060            00018 17646  2          +
 001BFA                            17647  2 1851.                  CLEAR #WRIIXRN            Start at block zero
 001BFA D702 C062 C062 0001A 0001A 17653  2          +
 001C00 4D10 A746            01C72 17654  2 1852.                  BAS   RS,M1IWRIT7         Get the IXR
 001C04                            17655  1 1853.                END   ,                   Use next IXR
 001C04 47F0 A550            01A7C 17659    1854.              END   ,                   Write all the data
0001C08                            17665    1856.              CLEAR RQRETC              Set return code
 001C08 D703 2044 2044 00044 00044 17671             +
 001C0E 47F0 A8B0            01DDC 17672    1857.              B     M1IWRITE
 001C18                            17673    1858.              LTORG ,
 001C18 00000000                   17675                             =V(GRGET)
 001C1C 00000000                   17676                             =V(SBUFGET)
 001C20 000054D2                   17677                             =A(CHKMEM)
 001C24 00000000                   17678                             =V(FDOIODO)
 001C28 00000001                   17679                             =A(1)
 001C2C 00000294                   17680                             =A(IXRNT#)
 001C30 00000294                   17681                             =AL4(IXRNT#)
 001C34 00000001                   17682                             =AL4(1)
 001C38 0003                       17683                             =Y(L'IXRNT)
 001C3A 000293         01C3D 06510 17684                             =AL3(IXRNT#-1)
0001C3E                            17689    1860.     M1IWRIT5 LABEL ,
 DROP   @FDOIODO-72,R13            17691    1861.              PSET  @IXRGEPU
 USING  @IXRGEPU-72,R13
 001C3E D70B D048 D048 00000 00000 17711             +
 001C44 5030 D048            00000 17712    1862.              PMOV  @IXRGFSB,LA:FSB
 001C48 50E0 D050            00008 17723    1863.              PMOV  @IXRGADR,(R14)      Set IXR address
 001C4C 58F0 A95C/0DEF       01E88 17733    1864.              ACALL FMIXRPUT            File the IXR away
 001C52 07F1                       17740    1865.              BR    RS
0001C54                            17742    1867.     M1IWRIT6 LABEL ,
 001C54                            17744    1868.              PSET  @IXRGEPU
 001C54 D70B D048 D048 00000 00000 17754             +
 001C5A 5030 D048            00000 17755    1869.              PMOV  @IXRGFSB,LA:FSB
 001C5E 50E0 D050            00008 17766    1870.              PMOV  @IXRGADR,(R14)      Set buffer address
 001C62 50F0 D04C            00004 17776    1871.              PMOV  @IXRGBNO,(R15)      Set block number
 001C66 58F0 A960/0DEF       01E8C 17786    1872.              ACALL FMIXRGET            Get IXR record
 001C6C 58E0 D050            00008 17793    1873.              L     R14,@IXRGADR        Get buffer address
 001C70 07F1                       17794    1874.              BR    RS
0001C72                            17796    1876.     M1IWRIT7 LABEL ,
 001C72 5010 C068            00020 17798    1877.              ST    RS,#WRIBASR
 001C76 5860 C04C            00004 17799    1878.              L     RX,#WRIIXR          Get IXR IO buffer pointer
 001C7A                            17800    1879.              IF    (S.IXRNT,Z),BEGIN   IXR record does not exist
 001C7A D602 7044 7044 00044 00044 17810             +
 001C80 4770 A7C6            01CF2 17811             +
 001C84 9680 C065      0001D       17816  1 1880.                SET   #WRIFSIX            The SIXR needs filing
 001C88 4D10 A7DE            01D0A 17822  1 1881.                BAS   RS,M1IWRIT8         Get a new block number
 001C8C BE07 7044            00044 17823  1 1882.                ST3   RVR,S.IXRNT         Set new block number
 001C90 1806                       17825  1 1883.                LR    RVR,RX
 001C92 4810 30AC            000AC 17826  1 1884.                LH    RS,FSBDSZ
1FILEMAN  (FILEMA) (09:39) (22MAR04) ORVYL'S File Manager                                                                   Page  121
0Current Usings:  (PZERO,R0) (RQWB,R2) (FSB,R3) (M.IXR,R4) (IXR,R6) (S.IXR,R7) (M1IWRIT,R10) (#WRIWK-72,R12) (@IXRGEPU-72,R13)
0Loc    Object Code    Addr1 Addr2  Stmt Lv Lineno    Source Statement           (Hibal 5, Asmedit 3.3)  HLASM R4.0  2004/03/22 09.39
+___    ______ ____    _____ _____  ____ __ ______    ______ _________
0001C96 1BFF                       17827  1 1885.                CLEAR R15
 001C98 0E0E                       17831  1 1886.                MVCL  RVR,R14             Clear the buffer
 001C9A D202 6001 7044 00001 00044 17832  1 1887.                MVC   IXRECNO,S.IXRNT     Set IXR record number
 001CA0 5840 C048            00000 17833  1 1888.                L     RJ,#WRISIX
 001CA4 D22B 6004 4004 00004 00004 17834  1 1889.                MVC   IXRNAME,M.IXRNAME   Get file name
 001CAA 41E0 0001            00001 17835  1 1890.                INCR  R14,M.IXRRRCS       Increment total number of blocks
 001CAE 5EE0 4034            00034 17839  1          +
 001CB2 50E0 4034            00034 17840  1          +
 001CB6 41E0 0001            00001 17841  1 1891.                INCR  R14,M.IXRNIXR       Increment number of IXRs in file
 001CBA 4AE0 47FA            007FA 17845  1          +
 001CBE 40E0 47FA            007FA 17846  1          +
0001CC2                            17848  1 1893.                IF    (#WRISIXN,LT,M.IXRLWXR),'MVC M.IXRLWXR,#WRISIXN'
 001CC2 D501 C060 47FC 00018 007FC 17860  1          +
 001CC8 47B0 A7A6            01CD2 17861  1          +
 001CCC D201 47FC C060 007FC 00018 17867  1          +
 001CD2                            17872  1 1894.                IF    (M.IXRNIXR,EQ,=H'1'),'MVC M.IXRLWXR,#WRISIXN'
 001CD2 D501 A990 47FA 01EBC 007FA 17883  1          +
 001CD8 4770 A7B6            01CE2 17884  1          +
 001CDC D201 47FC C060 007FC 00018 17890  1          +
 001CE2                            17895  1 1895.                IF    (#WRISIXN,GT,M.IXRHIXR),'MVC M.IXRHIXR,#WRISIXN'
 001CE2 D501 C060 47FE 00018 007FE 17907  1          +
 001CE8 47D0 A7C6            01CF2 17908  1          +
 001CEC D201 47FE C060 007FE 00018 17914  1          +
 001CF2                            17919    1896.              END   ,                   IXR record does not exist
 001CF2 A7CA           01CF2 01C82 17923    1897.              ELSE  BEGIN               IXR record exists
 001CF2 47F0 A7D8            01D04 17928             +
 001CF6 58E0 C04C            00004 17934  1 1898.                L     R14,#WRIIXR         Set buffer address
 001CFA 1FFF/BFF7 7044       00044 17935  1 1899.                L3    R15,S.IXRNT         Set block number
 001D00 4D10 A728            01C54 17941  1 1900.                BAS   RS,M1IWRIT6         Get IXR record
 001D04                            17942    1901.              END   ,                   IXR record exists
 001D04 5810 C068            00020 17946    1902.              L     RS,#WRIBASR
 001D08 07F1                       17947    1903.              BR    RS
0001D0A                            17949    1905.     M1IWRIT8 LABEL ,
 001D0A 9140 2006      00006       17951    1906.              IF    ~RQATMP,BEGIN       Not a temp file
 001D0E 4710 A808            01D34 17961             +
 DROP   @IXRGEPU-72,R13            17966  1 1907.                PSET  @FCACMOD
 USING  @FCACMOD-72,R13
 001D12 D70D D048 D048 00000 00000 17986  1          +
 001D18 5030 D048            00000 17987  1 1908.                PMOV  @FCACFSB,LA:FSB
 001D1C                            17998  1 1909.                PMOV  @FCACCNT,RQNACC
 001D1C D205 D050 207C 00008 0007C 18002  1          +
 001D22                            18003  1 1910.                PMOV  @FCACSPA,=A(1)      Space needed
 001D22 D203 D04C A964 00004 01E90 18007  1          +
 001D28 58F0 A968/0DEF       01E94 18008  1 1911.                VCALL FCATGSPA            Update catalog space
 001D2E 1200/4770 A89C       01DC8 18012  1 1912.                IF    (RVR,NZ),M1IWRE16   Can't do it
 001D34                            18029    1913.              END   ,                   Not a temp file
 001D34 A80C           01D34 01D10 18033    1914.              ELSE  BEGIN               Temp file
 001D34 47F0 A844            01D70 18038             +
 001D38 5010 C06C            00024 18044  1 1915.                ST    RS,#WRIBAS2
 001D3C 5810 0200            00200 18045  1 1916.                L     RS,MATPTR
 001D40 5810 1028            00028 18046  1 1917.                WITH  (MAT,RS),'L RS,MATFILCB'
 USING  MAT,R1
1FILEMAN  (FILEMA) (09:39) (22MAR04) ORVYL'S File Manager                                                                   Page  122
0Current Usings:  (PZERO,R0) (RQWB,R2) (FSB,R3) (M.IXR,R4) (IXR,R6) (S.IXR,R7) (M1IWRIT,R10) (#WRIWK-72,R12) (@FCACMOD-72,R13)
0Loc    Object Code    Addr1 Addr2  Stmt Lv Lineno    Source Statement           (Hibal 5, Asmedit 3.3)  HLASM R4.0  2004/03/22 09.39
+___    ______ ____    _____ _____  ____ __ ______    ______ _________
0DROP   MAT,R1
 USING  FILECB,R1                  18070  1 1918.                WITH  (FILECB,RS),BEGIN
 001D44 58E0 10F8/18FE       000F8 18084  2 1919.                  INCRS TTFILTBK            Current attached temp files
 001D4A 5EF0 A964            01E90 18095  3          +
 001D4E BAEF 10F8            000F8 18096  2          +
 001D52 4770 A81C            01D48 18110  2          +
 001D56 58E0 10FC            000FC 18116  2 1920.                  L     R14,TTFILTBM
 001D5A 58F0 10F8            000F8 18117  2 1921.                  L     R15,TTFILTBK
 001D5E                            18118  2 1922.                  LOOP  BEGIN
 001D5E 19FE/47C0 A840       01D6C 18124  3 1923.                    IF    (R15,LE,R14),EXIT   No new high water mark
 001D64 BAEF 10FC            000FC 18142  3 1924.                    CS    R14,R15,TTFILTBM    Set new high water mark
 001D68 4770 A832            01D5E 18143  2 1925.                  UNTIL Z,END
 DROP   FILECB,R1                  18162  1 1926.                END   ,
 001D6C 5810 C06C            00024 18170  1 1927.                L     RS,#WRIBAS2
 001D70                            18171    1928.              END   ,                   Temp file
 DROP   @FCACMOD-72,R13            18175    1929.              PSET  @FMFSB              Get a block number
 USING  @FMFSB-72,R13
 001D70 D704 D048 D048 00000 00000 18195             +
 001D76 5030 D048            00000 18196    1930.              PMOV  @FMFSBP,LA:FSB
 001D7A 58F0 A96C/0DEF       01E98 18207    1931.              VCALL FBITGET
 001D80 1200/4780 A8A6       01DD2 18211    1932.              IF    (RVR,Z),M1IWRE20    No more blocks
 001D86 07F1                       18228    1933.              BR    RS                  Return to caller
0001D88                            18230    1935.     M1IWRE_4 LABEL ,
 001D88 D203 2044 A970 00044 01E9C 18232    1936.              MVC   RQRETC,=F'-4'
 001D8E 47F0 A8B0            01DDC 18233    1937.              B     M1IWRITE
0001D92                            18235    1939.     M1IWRE04 LABEL ,
 001D92 D203 2044 A974 00044 01EA0 18237    1940.              MVC   RQRETC,=F'4'
 001D98 47F0 A8B0            01DDC 18238    1941.              B     M1IWRITE
0001D9C                            18240    1943.     M1IWRE08 LABEL ,                   Can only append
 001D9C 9510 201C      0001C       18242    1944.              IF    ~RQCONT,M1IWRE12    Old orvyl returned 12 for write
 001DA0 4770 A88A            01DB6 18254             +
 001DA4 947F C065      0001D       18260    1945.              CLEAR #WRIFSIX,#WRIFIXR   Don't write either of these
 001DA8 94BF C065      0001D       18271             +
 001DAC D203 2044 A978 00044 01EA4 18272    1946.              MVC   RQRETC,=F'8'
 001DB2 47F0 A8B0            01DDC 18273    1947.              B     M1IWRITE
0001DB6                            18275    1949.     M1IWRE12 LABEL ,
 001DB6 947F C065      0001D       18277    1950.              CLEAR #WRIFSIX,#WRIFIXR   Don't write either of these
 001DBA 94BF C065      0001D       18288             +
 001DBE D203 2044 A97C 00044 01EA8 18289    1951.              MVC   RQRETC,=F'12'
 001DC4 47F0 A8B0            01DDC 18290    1952.              B     M1IWRITE
0001DC8                            18292    1954.     M1IWRE16 LABEL ,
 001DC8 D203 2044 A980 00044 01EAC 18294    1955.              MVC   RQRETC,=F'16'
 001DCE 47F0 A8B0            01DDC 18295    1956.              B     M1IWRITE
0001DD2                            18297    1958.     M1IWRE20 LABEL ,
 001DD2 D203 2044 A984 00044 01EB0 18299    1959.              MVC   RQRETC,=F'20'
 001DD8 47F0 A8B0            01DDC 18300    1960.              B     M1IWRITE
0001DDC                            18302    1962.     M1IWRITE LABEL ,
1FILEMAN  (FILEMA) (09:39) (22MAR04) ORVYL'S File Manager                                                                   Page  123
0Current Usings:  (PZERO,R0) (RQWB,R2) (FSB,R3) (M.IXR,R4) (IXR,R6) (S.IXR,R7) (M1IWRIT,R10) (#WRIWK-72,R12) (@FMFSB-72,R13)
0Loc    Object Code    Addr1 Addr2  Stmt Lv Lineno    Source Statement           (Hibal 5, Asmedit 3.3)  HLASM R4.0  2004/03/22 09.39
+___    ______ ____    _____ _____  ____ __ ______    ______ _________
0001DDC 9110 2005      00005       18305    1964.              IF    (~RQCNIXR,OR,RQCHYBR),BEGIN Not non-IXR
 001DE0 47E0 A8C0            01DEC 18319             +
 001DE4 9104 2005      00005       18328             +
 001DE8 47E0 A8F2            01E1E 18329             +
 001DEC D203 204C C054 0004C 0000C 18334  1 1965.                MVC   RQRLEN,#WRIBCNT     Set count of bytes written
 001DF2 58F0 C05C            00014 18335  1 1966.                L     R15,#WRICBLK        Get last block written
 001DF6 5EF0 A964            01E90 18336  1 1967.                INCR  R15
 001DFA 50F0 2040            00040 18339  1 1968.                ST    R15,RQRBLK          Set last block written + 1
 001DFE 9140 C065      0001D       18340  1 1969.                IF    #WRIFIXR,BEGIN      IXR needs saving
 001E02 47E0 A8E2            01E0E 18350  1          +
 001E06 58E0 C04C            00004 18355  2 1970.                  L     R14,#WRIIXR
 001E0A 4D10 A712            01C3E 18356  2 1971.                  BAS   RS,M1IWRIT5
 001E0E                            18357  1 1972.                END   ,                   IXR needs saving
 001E0E 9180 C065      0001D       18361  1 1973.                IF    #WRIFSIX,BEGIN      SIXR needs saving
 001E12 47E0 A8F2            01E1E 18371  1          +
 001E16 58E0 C048            00000 18376  2 1974.                  L     R14,#WRISIX
 001E1A 4D10 A712            01C3E 18377  2 1975.                  BAS   RS,M1IWRIT5
 001E1E                            18378  1 1976.                END   ,                   SIXR needs saving
 001E1E                            18382    1977.              END   ,                   Not non-IXR
0001E1E 9120 2007      00007       18387    1979.              IF    (~RQARES,AND,(RQRGRH,NZ)),BEGIN
 001E22 4710 A91C            01E48 18399             +
 001E26 D603 2014 2014 00014 00014 18411             +
 001E2C 4780 A91C            01E48 18412             +
 DROP   @FMFSB-72,R13              18417  1 1980.                GRREL RID=RQRGRH          Release file reserve
 USING  @GRES-72,R13
 001E30 D708 D048 D048 00000 00000 18438  1          +
 001E36 D203 D04C 2014 00004 00014 18443  1          +
 001E3C 58F0 A988/0DEF       01EB4 18446  1          +
 001E42                            18448  1 1981.                CLEAR RQRGRH              Clear hold id
 001E42 D703 2014 2014 00014 00014 18454  1          +
 001E48                            18455    1982.              END   ,
0001E48 4180 C048            00000 18460    1984.              LA    RM,#WRISIX          Release IO buffers
 001E4C 4190 0003            00003 18461    1985.              LA    RN,3
 DROP   @GRES-72,R13               18462    1986.              PSET  @SBFREE
 USING  @SBFREE-72,R13
 001E50 D707 D048 D048 00000 00000 18482             +
 001E56                            18483    1987.              PMOV  @SBFPOO,FSBRBT
 001E56 D203 D048 302C 00000 0002C 18487             +
 001E5C                            18488    1988.              LOOP  BEGIN
 001E5C D203 D04C 8000 00004 00000 18494  1 1989.                MVC   @SBFADR,@RM
 001E62                            18495  1 1990.                IF    (@SBFADR,NZ),'VCALL SBUFREE'
 001E62 D603 D04C D04C 00004 00004 18505  1          +
 001E68 4780 A946            01E72 18506  1          +
 001E6C 58F0 A98C/0DEF       01EB8 18514  1          +
 001E72 4180 8004            00004 18520  1 1991.                LA    RM,@RM+4
 001E76 4690 A930            01E5C 18521    1992.              UNTIL (BCT,RN),END
0001E7A 981F C008            00008 18532    1994.              PEND  ,
 DROP   M.IXR,R4
 DROP   S.IXR,R7
 DROP   IXR,R6
 DROP   FSB,R3
1FILEMAN  (FILEMA) (09:39) (22MAR04) ORVYL'S File Manager                                                                   Page  124
0Current Usings:  (PZERO,R0) (@SBFREE-72,R13)
0Loc    Object Code    Addr1 Addr2  Stmt Lv Lineno    Source Statement           (Hibal 5, Asmedit 3.3)  HLASM R4.0  2004/03/22 09.39
+___    ______ ____    _____ _____  ____ __ ______    ______ _________
0DROP   RQWB,R2
 DROP   #WRIWK-72,R12
 DROP   M1IWRIT,R10
 001E7E 9680 C000/0B0E 00000       18578             +
 DROP   @SBFREE-72,R13
 001E88                            18587    1995.              LTORG ,
 001E88 00005F38                   18589                             =A(FMIXRPUT)
 001E8C 00005EA4                   18590                             =A(FMIXRGET)
 001E90 00000001                   18591                             =A(1)
 001E94 00000000                   18592                             =V(FCATGSPA)
 001E98 00000000                   18593                             =V(FBITGET)
 001E9C FFFFFFFC                   18594                             =F'-4'
 001EA0 00000004                   18595                             =F'4'
 001EA4 00000008                   18596                             =F'8'
 001EA8 0000000C                   18597                             =F'12'
 001EAC 00000010                   18598                             =F'16'
 001EB0 00000014                   18599                             =F'20'
 001EB4 00000000                   18600                             =V(GRREL)
 001EB8 00000000                   18601                             =V(SBUFREE)
 001EBC 0001           01EBE 06510 18602                             =H'1'
1FILEMAN  (FILEMA) (09:39) (22MAR04) ORVYL'S File Manager                                                                   Page  125
0Current Usings:  (PZERO,R0)
0Loc    Object Code    Addr1 Addr2  Stmt Lv Lineno    Source Statement           (Hibal 5, Asmedit 3.3)  HLASM R4.0  2004/03/22 09.39
+___    ______ ____    _____ _____  ____ __ ______    ______ _________
0                                  18607    1997.     *---------------------------------------------------------------------*
                                   18608    1998.     *  M1FCONT - File CONTROL processing, preliminary edits
                                   18609    1999.     *
                                   18610    2000.     *   Inputs - RA points to RQWB
                                   18611    2001.     *
                                   18612    2002.     *   Output -
                                   18613    2003.     *---------------------------------------------------------------------*
 001EBE                            18614    2004.     M1FCONT  PROC
 001EBE D4F1C6C3D6D5E340           18621             +
 001EC6 0000/0000                  18622             +
 001ECA 900F D004/18AF       00004 18624             +
 USING  M1FCONT,R10
 001ED0 50D0 C000/18CD       00000 18639             +
 001ED6 9680 C000      00000       18641             +
 001EDA 41D0 C048            00048 18642             +
 USING  RQWB,R2                    18643    2005.              WITH  (RQWB,RA)
 001EDE 5830 2024            00024 18656    2006.              L     RB,RQFSB
 USING  FSB,R3                     18657    2007.              WITH  (FSB,RB)
0001EE2 58E0 203C            0003C 18671    2009.              L     R14,RQICON          Get control type
 001EE6 1FFF/43FE A506       023D0 18672    2010.              LC    R15,M1FCIOTP(R14)   Get IO type
 001EEC 89E0 0003            00003 18679    2011.              SLL   R14,3               Times eight
 001EF0 5AE0 A526            023F0 18680    2012.              A     R14,=A(RTNTABC)     Point to control routine address
 001EF4 59E0 A526            023F0 18681    2013.              IF    ((R14,LT,=A(RTNTABC)),OR,(R14,GT,=A(RTNTABCM))),M1FCSPEC
 001EF8 4740 A4D6            023A0 18696             +
 001EFC 59E0 A52A            023F4 18706             +
 001F00 4720 A4D6            023A0 18709             +
0001F04 9180 3009      00009       18716    2015.              IF    (FSBANAVL),M1FCEM12 File system unavailable
 001F08 4710 A4BA            02384 18728             +
 001F0C 12FF/4780 A050       01F1A 18734    2016.              IF    (R15,NZ),BEGIN      Write IO type
 001F12 9140 3009      00009       18748  1 2017.                IF    FSBARO,M1FCEM12     File in read only mode
 001F16 4710 A4BA            02384 18760  1          +
 001F1A                            18766    2018.              END   ,
0001F1A 58E0 E000            00000 18771    2020.              L     R14,@R14            Get routine address
 001F1E 07FE                       18772    2021.              BR    R14                 Go to routine
0001F20                            18774    2023.     M1FC02   LABEL ,                   Delete a range of file blocks
0001F20 9104 2005      00005       18777    2025.              IF    RQCHYBR,BEGIN
 001F24 47E0 A06E            01F38 18787             +
 001F28 58E0 2060            00060 18792  1 2026.                L     R14,RQBLKC          Get block count
 001F2C 4CE0 A572            0243C 18793  1 2027.                MH    R14,=Y(IXRNT#)      Each block is an IXR
 001F30 59E0 2030            00030 18794  1 2028.                IF    (R14,LE,RQICBL2),M1FCSPEC Check against block count
 001F34 47C0 A4D6            023A0 18808  1          +
 001F38                            18814    2029.              END   ,
 001F38 A072           01F38 01F26 18818    2030.              ELSEIF (RQICBL2,GE,=A(IXRMXNT#)),M1FCSPEC
 001F38 47F0 A07C            01F46 18824             +
 001F3C D503 A52E 2030 023F8 00030 18838             +
 001F42 47C0 A4D6            023A0 18841             +
 001F46                            18847    2031.              IF    (RQICBLK,GT,RQICBL2),M1FCSPEC
 001F46 D503 2034 2030 00034 00030 18859             +
 001F4C 4720 A4D6            023A0 18862             +
1FILEMAN  (FILEMA) (09:39) (22MAR04) ORVYL'S File Manager                                                                   Page  126
0Current Usings:  (PZERO,R0) (RQWB,R2) (FSB,R3) (M1FCONT,R10)
0Loc    Object Code    Addr1 Addr2  Stmt Lv Lineno    Source Statement           (Hibal 5, Asmedit 3.3)  HLASM R4.0  2004/03/22 09.39
+___    ______ ____    _____ _____  ____ __ ______    ______ _________
0001F50                            18869    2033.     M1FC00   LABEL ,                   Create a file block
0001F50                            18872    2035.     M1FC01   LABEL ,                   Delete a file block
 001F50 9104 2005      00005       18874    2036.              IF    RQCHYBR,BEGIN
 001F54 47E0 A09E            01F68 18884             +
 001F58 58E0 2060            00060 18889  1 2037.                L     R14,RQBLKC          Get block count
 001F5C 4CE0 A572            0243C 18890  1 2038.                MH    R14,=Y(IXRNT#)      Each block is an IXR
 001F60 59E0 2034            00034 18891  1 2039.                IF    (R14,LE,RQICBLK),M1FCSPEC Check against block count
 001F64 47C0 A4D6            023A0 18905  1          +
 001F68                            18911    2040.              END   ,
 001F68 A0A2           01F68 01F56 18915    2041.              ELSEIF (RQICBLK,GE,=A(IXRMXNT#)),M1FCSPEC
 001F68 47F0 A0AC            01F76 18921             +
 001F6C D503 A52E 2034 023F8 00034 18935             +
 001F72 47C0 A4D6            023A0 18938             +
 001F76                            18944    2042.              IF    ((RQICON,NZ),OR,~RQMPERM.FPA),BEGIN Ctl 0 and append ok
 001F76 D603 203C 203C 0003C 0003C 18956             +
 001F7C 4770 A0BE            01F88 18959             +
 001F80 9102 201F      0001F       18969             +
 001F84 4710 A0C6            01F90 18970             +
 001F88 9104 201F      0001F       18975  1 2043.                IF    ~RQMPERM.FPW,M1FCEW08 Need write access
 001F8C 47E0 A474            0233E 18988  1          +
 001F90                            18994    2044.              END   ,
 001F90 9110 2005      00005       18998    2045.              IF    (RQCNIXR,AND,~RQCHYBR),M1FCSPEC
 001F94 47E0 A0D6            01FA0 19010             +
 001F98 9104 2005      00005       19021             +
 001F9C 47E0 A4D6            023A0 19024             +
 001FA0 47F0 A4F4            023BE 19030    2046.              B     M1FCDOIO
0001FA4                            19032    2048.     M1FC03   LABEL ,                   Test for file block existence
 001FA4 9104 2005      00005       19034    2049.              IF    RQCHYBR,BEGIN       Hybrid file
 001FA8 47E0 A0F2            01FBC 19044             +
 001FAC 58E0 2060            00060 19049  1 2050.                L     R14,RQBLKC          Count of IXRs
 001FB0 4CE0 A572            0243C 19050  1 2051.                MH    R14,=Y(IXRNT#)      Max count of user RECs
 001FB4 59E0 2034            00034 19051  1 2052.                IF    (R14,LE,RQICBLK),M1FCSPEC
 001FB8 47C0 A4D6            023A0 19065  1          +
 001FBC                            19071    2053.              END   ,                   Hybrid file
 001FBC A0F6           01FBC 01FAA 19075    2054.              ELSEIF RQCNIXR,BEGIN      Non-IXR files
 001FBC 47F0 A10C            01FD6 19081             +
 001FC0 9110 2005      00005       19093             +
 001FC4 47E0 A10C            01FD6 19094             +
 001FC8                            19099  1 2055.                IF    (RQICBLK,GE,RQBLKC),M1FCEW12 Does not exist
 001FC8 D503 2034 2060 00034 00060 19111  1          +
 001FCE 47A0 A47E            02348 19114  1          +
 001FD2 47F0 A46A            02334 19120  1 2056.                B     M1FCEW00            Done
 001FD6                            19121    2057.              END   ,                   Non-IXR files
 001FD6 A110           01FD6 01FC6 19125    2058.              ELSE  BEGIN               IXR file
 001FD6 47F0 A11A            01FE4 19130             +
 001FDA                            19136  1 2059.                IF    (RQICBLK,GE,=A(IXRMXNT#)),M1FCSPEC
 001FDA D503 A52E 2034 023F8 00034 19147  1          +
 001FE0 47C0 A4D6            023A0 19150  1          +
 001FE4                            19156    2060.              END   ,                   IXR file
 001FE4 47F0 A4F4            023BE 19160    2061.              B     M1FCDOIO            Continue
0001FE8                            19162    2063.     M1FC04   LABEL ,                   Obtain first block number
1FILEMAN  (FILEMA) (09:39) (22MAR04) ORVYL'S File Manager                                                                   Page  127
0Current Usings:  (PZERO,R0) (RQWB,R2) (FSB,R3) (M1FCONT,R10)
0Loc    Object Code    Addr1 Addr2  Stmt Lv Lineno    Source Statement           (Hibal 5, Asmedit 3.3)  HLASM R4.0  2004/03/22 09.39
+___    ______ ____    _____ _____  ____ __ ______    ______ _________
0001FE8 9110 2005      00005       19164    2064.              IF    (RQCNIXR,AND,~RQCHYBR),BEGIN Non-IXR files
 001FEC 47E0 A138            02002 19176             +
 001FF0 9104 2005      00005       19187             +
 001FF4 4710 A138            02002 19188             +
 001FF8                            19193  1 2065.                CLEAR RQWCBK              Zero is first
 001FF8 D703 2058 2058 00058 00058 19199  1          +
 001FFE 47F0 A46A            02334 19200  1 2066.                B     M1FCEW00            Done
 002002                            19201    2067.              END   ,                   Non-IXR files
0002002 47F0 A4F4            023BE 19206    2069.              B     M1FCDOIO            Continue
0002006                            19208    2071.     M1FC05   LABEL ,                   Obtain last block number
 002006 9110 2005      00005       19210    2072.              IF    (RQCNIXR,AND,~RQCHYBR),BEGIN Non-IXR files
 00200A 47E0 A15A            02024 19222             +
 00200E 9104 2005      00005       19233             +
 002012 4710 A15A            02024 19234             +
 002016 58E0 2060            00060 19239  1 2073.                L     R14,RQBLKC          Get count of blocks
 00201A 06E0                       19240  1 2074.                DECR  R14                 Relative to zero for block number
 00201C 50E0 2058            00058 19242  1 2075.                ST    R14,RQWCBK          Set last block number
 002020 47F0 A46A            02334 19243  1 2076.                B     M1FCEW00            Done
 002024                            19244    2077.              END   ,                   Non-IXR files
 002024 47F0 A4F4            023BE 19248    2078.              B     M1FCDOIO            Continue
0002028                            19250    2080.     M1FC06   LABEL ,                   Obtain count of user blocks
 002028 9110 2005      00005       19252    2081.              IF    (RQCNIXR,AND,~RQCHYBR),BEGIN Non-IXR files
 00202C 47E0 A17E            02048 19264             +
 002030 9104 2005      00005       19275             +
 002034 4710 A17E            02048 19276             +
 002038 D203 2058 2060 00058 00060 19281  1 2082.                MVC   RQWUSB,RQBLKC       Get block count
 00203E D203 2050 2060 00050 00060 19282  1 2083.                MVC   RQWBIB,RQBLKC       Billable blocks
 002044 47F0 A46A            02334 19283  1 2084.                B     M1FCEW00            Done
 002048                            19284    2085.              END   ,                   Non-IXR files
 002048 47F0 A4F4            023BE 19288    2086.              B     M1FCDOIO            Continue
000204C                            19290    2088.     M1FC07   LABEL ,                   Update file index
 00204C 47F0 A46A            02334 19292    2089.              B     M1FCEW00            Done
0002050                            19294    2091.     M1FC08   LABEL ,                   Erase or rename a file
 002050 9120 2006      00006       19296    2092.              IF    RQASHR,M1FCEM04     Can't be attached in share mode
 002054 4710 A49E            02368 19308             +
 002058 9140 2006      00006       19314    2093.              IF    RQATMP,M1FCSPEC     Can't be a temp file
 00205C 4710 A4D6            023A0 19326             +
 002060                            19332    2094.              IF    (RQICLOC,NZ),BEGIN  Rename option
 002060 D603 2034 2034 00034 00034 19342             +
 002066 4780 A22C            020F6 19343             +
 00206A 9104 201F      0001F       19348  1 2095.                IF    ~RQMPERM.FPW,M1FCEW08 Need write access
 00206E 47E0 A474            0233E 19361  1          +
 002072                            19367  1 2096.                IF    (RQICLEN,Z),M1FCSPEC Can't rename to nothing
 002072 D603 2030 2030 00030 00030 19377  1          +
 002078 4780 A4D6            023A0 19380  1          +
 00207C                            19386  1 2097.                IF    (RQICLEN,GT,=A(L'RQNAME)),M1FCEM08
 00207C D503 A532 2030 023FC 00030 19397  1          +
 002082 4740 A4AC            02376 19400  1          +
 002086                            19406  1 2098.                IF    (RQICLEN,LE,=A(1)),M1FCEM08
1FILEMAN  (FILEMA) (09:39) (22MAR04) ORVYL'S File Manager                                                                   Page  128
0Current Usings:  (PZERO,R0) (RQWB,R2) (FSB,R3) (M1FCONT,R10)
0Loc    Object Code    Addr1 Addr2  Stmt Lv Lineno    Source Statement           (Hibal 5, Asmedit 3.3)  HLASM R4.0  2004/03/22 09.39
+___    ______ ____    _____ _____  ____ __ ______    ______ _________
0002086 D503 A536 2030 02400 00030 19417  1          +
 00208C 47A0 A4AC            02376 19420  1          +
 USING  @CHKMEM-72,R13             19426  1 2099.                CHKMEM RQICLOC,L:RQICLEN  Check read access
 002090 D707 D048 D048 00000 00000 19444  1          +
 002096 D203 D048 2034 00000 00034 19449  1          +
 00209C D201 D04C 2032 00004 00032 19454  1          +
 0020A2 D200 D04E 2021 00006 00021 19459  1          +
 0020A8 58F0 A53A/0DEF       02404 19465  1          +
 0020AE 1200/4780 A1EE       020B8 19467  1 2100.                IF    (RVR,NZ),'EXIT M1FCONT' Denied
 0020B4 47F0 A4FC            023C6 19484  1          +
 0020B8 D22B 20A4 2078 000A4 00078 19489  1 2101.                MVC   RQWKNAME,RQNAME      Save file name
 0020BE                            19490  1 2102.                CLEAR RQNAME
 0020BE D72B 2078 2078 00078 00078 19496  1          +
 DROP   @CHKMEM-72,R13             19497  1 2103.                PSET  @SETFNAM
 USING  @SETFNAM-72,R13
 0020C4 D707 D048 D048 00000 00000 19517  1          +
 0020CA                            19518  1 2104.                PMOV  @SETFNA,RQICLOC
 0020CA D203 D048 2034 00000 00034 19522  1          +
 0020D0                            19523  1 2105.                PMOV  @SETFNL,RQICLEN
 0020D0 D203 D04C 2030 00004 00030 19527  1          +
 0020D6 58F0 A53E/0DEF       02408 19528  1 2106.                ACALL SETFNAME            Set file name
 0020DC 1200/4770 A492       0235C 19535  1 2107.                IF    (RVR,NZ),M1FCERVR   Invalid name
 0020E2                            19552  1 2108.                IF    (RQNPFX,NE,RQWKNAME),M1FCER04 Can't rename this part
 0020E2 D50A 2078 20A4 00078 000A4 19564  1          +
 0020E8 4770 A4C8            02392 19567  1          +
 0020EC                            19573  1 2109.                IF    (RQNAME,EQ,RQWKNAME),M1FCEM08 That's dumb
 0020EC D52B 2078 20A4 00078 000A4 19585  1          +
 0020F2 4780 A4AC            02376 19588  1          +
 0020F6                            19594    2110.              END   ,                   Rename option
 0020F6 A230           020F6 02068 19598    2111.              ELSE  BEGIN               Erase option
 0020F6 47F0 A254            0211E 19603             +
 0020FA 9140 201D      0001D       19609  1 2112.                IF    (RQPRIV.KWRIFAPR,Z),BEGIN Not special privilege
 0020FE 4770 A240            0210A 19622  1          +
 002102 9104 201F      0001F       19627  2 2113.                  IF    ~RQMPERM.FPW,M1FCEW08 Need write access
 002106 47E0 A474            0233E 19640  2          +
 00210A                            19646  1 2114.                END   ,
 00210A                            19650  1 2115.                IF    (RQFBLK,EQ,FSBCATSB),M1FCEW08 Can't erase catalog
 00210A D503 205C 3044 0005C 00044 19662  1          +
 002110 4780 A474            0233E 19665  1          +
 002114                            19671  1 2116.                IF    (RQFBLK,EQ,FSBBITSB),M1FCEW08 Can't erase bitmap
 002114 D503 205C 30D4 0005C 000D4 19683  1          +
 00211A 4780 A474            0233E 19686  1          +
 00211E                            19692    2117.              END   ,                   Erase option
 00211E 47F0 A4F4            023BE 19696    2118.              B     M1FCDOIO            Done
0002122                            19698    2120.     M1FC09   LABEL ,                   Assigning Account Level File Priv
 002122 9140 2006      00006       19700    2121.              IF    RQATMP,M1FCSPEC     Can't be a temp file
 002126 4710 A4D6            023A0 19712             +
 00212A                            19718    2122.              IF    (RQICUSA,NZ),BEGIN  Account specified
 00212A D603 2030 2030 00030 00030 19728             +
 002130 4780 A2CC            02196 19729             +
 002134 910C 2004      00004       19734  1 2123.                IF    ~RQAPERM.FPW+FPE,M1FCEW08 Need write and extend priv
 002138 47E0 A474            0233E 19750  1          +
 DROP   @SETFNAM-72,R13            19756  1 2124.                CHKMEM RQICUSA,LA:L'RQACCNA Check memory read
1FILEMAN  (FILEMA) (09:39) (22MAR04) ORVYL'S File Manager                                                                   Page  129
0Current Usings:  (PZERO,R0) (RQWB,R2) (FSB,R3) (M1FCONT,R10) (@CHKMEM-72,R13)
0Loc    Object Code    Addr1 Addr2  Stmt Lv Lineno    Source Statement           (Hibal 5, Asmedit 3.3)  HLASM R4.0  2004/03/22 09.39
+___    ______ ____    _____ _____  ____ __ ______    ______ _________
0USING  @CHKMEM-72,R13
 00213C D707 D048 D048 00000 00000 19777  1          +
 002142 D203 D048 2030 00000 00030 19782  1          +
 002148 4100 0006            00006 19794  1          +
 00214C 4000 D04C            00004 19799  1          +
 002150 D200 D04E 2021 00006 00021 19804  1          +
 002156 58F0 A53A/0DEF       02404 19810  1          +
 00215C 1200/4780 A29C       02166 19812  1 2125.                IF    (RVR,NZ),'EXIT M1FCONT' Denied
 002162 47F0 A4FC            023C6 19829  1          +
 002166 58E0 2030            00030 19834  1 2126.                L     R14,RQICUSA
 00216A D205 20A4 E000 000A4 00000 19835  1 2127.                MVC   RQACCNA,@R14        Get account
 DROP   @CHKMEM-72,R13             19836  1 2128.                CHKACC RQACCNA            Edit account
 USING  @CHKACC-72,R13
 002170 D709 D048 D048 00000 00000 19857  1          +
 002176 D205 D04C 20A4 00004 000A4 19862  1          +
 00217C 58F0 A542/0DEF       0240C 19868  1          +
 002182 D205 20A4 D04C 000A4 00004 19870  1          +
 002188 5830 D048/1200       00000 19871  1          +
 00218E 5900 A546            02410 19873  1 2129.                IF    (RVR,EQ,-8),M1FCERVR Exit if error
 002192 4780 A492            0235C 19886  1          +
 002196                            19892    2130.              END   ,                   Account specified
 002196 A2D0           02196 02132 19896    2131.              ELSE  BEGIN               Update owner privileges (file mask)
 002196 47F0 A2E0            021AA 19901             +
 00219A 9180 2007      00007       19907  1 2132.                IF    (~RQAOWN,AND,~RQAMAG),M1FCER04 Can't do it
 00219E 4710 A2E0            021AA 19919  1          +
 0021A2 9140 2007      00007       19930  1          +
 0021A6 47E0 A4C8            02392 19933  1          +
 0021AA                            19939    2133.              END   ,                   Update owner privileges
 0021AA 47F0 A4F4            023BE 19943    2134.              B     M1FCDOIO            Done
00021AE                            19945    2136.     M1FC10   LABEL ,                   Assigning public file privileges
 0021AE 9104 2004      00004       19947    2137.              IF    ~RQAPERM.FPW,M1FCEW08 Need write access
 0021B2 47E0 A474            0233E 19960             +
 0021B6 9180 2007      00007       19966    2138.              IF    (~RQAOWN,AND,~RQAMAG),M1FCER04 Can't do it
 0021BA 4710 A2FC            021C6 19978             +
 0021BE 9140 2007      00007       19989             +
 0021C2 47E0 A4C8            02392 19992             +
 0021C6 47F0 A4EC            023B6 19998    2139.              B     M1FCTEMP            Check temp
00021CA                            20000    2141.     M1FC11   LABEL ,                   Reading File Access Privileges
 0021CA                            20002    2142.              IF    (RQICLEN,NZ),BEGIN  If buffer provided
 0021CA D603 2030 2030 00030 00030 20012             +
 0021D0 4780 A340            0220A 20013             +
 0021D4                            20018  1 2143.                IF    (RQICLEN,LT,=A(L'NTRYPR)),M1FCSPEC One member at least
 0021D4 D503 A54A 2030 02414 00030 20029  1          +
 0021DA 4720 A4D6            023A0 20032  1          +
 DROP   @CHKACC-72,R13             20038  1 2144.                CHKMEM RQICLOC,L:RQICLEN,W Check write access
 USING  @CHKMEM-72,R13
 0021DE D707 D048 D048 00000 00000 20059  1          +
 0021E4 D203 D048 2034 00000 00034 20064  1          +
 0021EA D201 D04C 2032 00004 00032 20069  1          +
 0021F0 D200 D04E 2021 00006 00021 20074  1          +
 0021F6 9680 D04F      00007       20080  1          +
 0021FA 58F0 A53A/0DEF       02404 20086  1          +
1FILEMAN  (FILEMA) (09:39) (22MAR04) ORVYL'S File Manager                                                                   Page  130
0Current Usings:  (PZERO,R0) (RQWB,R2) (FSB,R3) (M1FCONT,R10) (@CHKMEM-72,R13)
0Loc    Object Code    Addr1 Addr2  Stmt Lv Lineno    Source Statement           (Hibal 5, Asmedit 3.3)  HLASM R4.0  2004/03/22 09.39
+___    ______ ____    _____ _____  ____ __ ______    ______ _________
0002200 1200/4780 A340       0220A 20088  1 2145.                IF    (RVR,NZ),'EXIT M1FCONT' Denied
 002206 47F0 A4FC            023C6 20105  1          +
 00220A                            20110    2146.              END   ,
 00220A 47F0 A4EC            023B6 20114    2147.              B     M1FCTEMP            Check temp
000220E                            20116    2149.     M1FC12   LABEL ,                   Set share only mode for attach
 00220E 9140 201D      0001D       20118    2150.              IF    (RQPRIV.KWRIFAPR,Z),BEGIN Not special privilege
 002212 4770 A364            0222E 20131             +
 002216 9104 2004      00004       20136  1 2151.                IF    ~RQAPERM.FPW,M1FCEW08 Need write access
 00221A 47E0 A474            0233E 20149  1          +
 00221E 9180 2007      00007       20155  1 2152.                IF    (~RQAOWN,AND,~RQAMAG),M1FCER04 Can't do it
 002222 4710 A364            0222E 20167  1          +
 002226 9140 2007      00007       20178  1          +
 00222A 47E0 A4C8            02392 20181  1          +
 00222E                            20187    2153.              END   ,
 00222E 47F0 A4EC            023B6 20191    2154.              B     M1FCTEMP            Check temp
0002232                            20193    2156.     M1FC14   LABEL ,                   Set file format field
 002232 9104 201F      0001F       20195    2157.              IF    ~RQMPERM.FPW,M1FCEW08 Need write access
 002236 47E0 A474            0233E 20208             +
 00223A 47F0 A4EC            023B6 20214    2158.              B     M1FCTEMP            Check temp
000223E                            20216    2160.     M1FC16   LABEL ,                   Set file NOCLP condition
 00223E 9140 201D      0001D       20218    2161.              IF    (RQPRIV.KWRIFAPR,Z),BEGIN Not special privilege
 002242 4770 A394            0225E 20231             +
 002246 9104 2004      00004       20236  1 2162.                IF    ~RQAPERM.FPW,M1FCEW08 Need write access
 00224A 47E0 A474            0233E 20249  1          +
 00224E 9180 2007      00007       20255  1 2163.                IF    (~RQAOWN,AND,~RQAMAG),M1FCER04 Can't do it
 002252 4710 A394            0225E 20267  1          +
 002256 9140 2007      00007       20278  1          +
 00225A 47E0 A4C8            02392 20281  1          +
 00225E                            20287    2164.              END   ,
 00225E 47F0 A4EC            023B6 20291    2165.              B     M1FCTEMP            Check temp
0002262                            20293    2167.     M1FC18   LABEL ,                   Set file CLP only condition
 002262 9140 201D      0001D       20295    2168.              IF    (RQPRIV.KWRIFAPR,Z),BEGIN Not special privilege
 002266 4770 A3B8            02282 20308             +
 00226A 9104 2004      00004       20313  1 2169.                IF    ~RQAPERM.FPW,M1FCEW08 Need write access
 00226E 47E0 A474            0233E 20326  1          +
 002272 9180 2007      00007       20332  1 2170.                IF    (~RQAOWN,AND,~RQAMAG),M1FCER04 Can't do it
 002276 4710 A3B8            02282 20344  1          +
 00227A 9140 2007      00007       20355  1          +
 00227E 47E0 A4C8            02392 20358  1          +
 002282                            20364    2171.              END   ,
 002282 47F0 A4EC            023B6 20368    2172.              B     M1FCTEMP            Check temp
0002286                            20370    2174.     M1FC20   LABEL ,                   Sense file type
 002286 9104 2005      00005       20372    2175.              IF    RQCHYBR,M1FCEW28
 00228A 4710 A488            02352 20384             +
 00228E 9110 2005      00005       20390    2176.              IF    RQCNIXR,M1FCEW12
 002292 4710 A47E            02348 20402             +
 002296 47F0 A46A            02334 20408    2177.              B     M1FCEW00            Done
000229A                            20410    2179.     M1FC21   LABEL ,                   Set Spires Only status
1FILEMAN  (FILEMA) (09:39) (22MAR04) ORVYL'S File Manager                                                                   Page  131
0Current Usings:  (PZERO,R0) (RQWB,R2) (FSB,R3) (M1FCONT,R10) (@CHKMEM-72,R13)
0Loc    Object Code    Addr1 Addr2  Stmt Lv Lineno    Source Statement           (Hibal 5, Asmedit 3.3)  HLASM R4.0  2004/03/22 09.39
+___    ______ ____    _____ _____  ____ __ ______    ______ _________
000229A 9140 201D      0001D       20412    2180.              IF    (RQPRIV.KWRIFAPR,Z),BEGIN Not special privilege
 00229E 4770 A3F0            022BA 20425             +
 0022A2 9104 2004      00004       20430  1 2181.                IF    ~RQAPERM.FPW,M1FCEW08 Need write access
 0022A6 47E0 A474            0233E 20443  1          +
 0022AA 9180 2007      00007       20449  1 2182.                IF    (~RQAOWN,AND,~RQAMAG),M1FCER04 Can't do it
 0022AE 4710 A3F0            022BA 20461  1          +
 0022B2 9140 2007      00007       20472  1          +
 0022B6 47E0 A4C8            02392 20475  1          +
 0022BA                            20481    2183.              END   ,
 0022BA 47F0 A4EC            023B6 20485    2184.              B     M1FCTEMP            Check temp
00022BE                            20487    2186.     M1FC23   LABEL ,                   Sense file blocksize
 0022BE 48E0 30AC            000AC 20489    2187.              LH    R14,FSBDSZ
 0022C2 50E0 2058            00058 20490    2188.              ST    R14,RQWDSZ          Set file blocksize
 0022C6 47F0 A46A            02334 20491    2189.              B     M1FCEW00            Done
00022CA                            20493    2191.     M1FC24   LABEL ,                   Obtain maximum number of blocks
 0022CA 9110 2006      00006       20495    2192.              IF    RQACLP,'CLEAR RQWHIXR' Clear number of IXRs
 0022CE 47E0 A40E            022D8 20505             +
 0022D2 D703 2050 2050 00050 00050 20517             +
 0022D8 9110 2005      00005       20522    2193.              IF    RQCNIXR,BEGIN       Non-IXR file
 0022DC 47E0 A436            02300 20532             +
 0022E0 58E0 2060            00060 20537  1 2194.                L     R14,RQBLKC          Get block count
 0022E4 9104 2005      00005       20538  1 2195.                IF    RQCHYBR,BEGIN       Hybrid
 0022E8 47E0 A432            022FC 20548  1          +
 0022EC 9110 2006      00006       20553  2 2196.                  IF    RQACLP,'ST R14,RQWHIXR' Set IXR count
 0022F0 47E0 A42E            022F8 20563  2          +
 0022F4 50E0 2050            00050 20569  2          +
 0022F8 4CE0 A572            0243C 20574  2 2197.                  MH    R14,=Y(IXRNT#)      Calc max user blocks
 0022FC                            20575  1 2198.                END   ,                   Hybrid
 0022FC 50E0 2058            00058 20579  1 2199.                ST    R14,RQWHFSZ         Set total file capacity
 002300                            20580    2200.              END   ,                   Non-IXR file
 002300 A43A           02300 022DE 20584    2201.              ELSE  BEGIN               IXR file
 002300 47F0 A440            0230A 20589             +
 002304 D203 2058 A52E 00058 023F8 20595  1 2202.                MVC   RQWHFSZ,=A(IXRMXNT#) Set maximum user blocks
 00230A                            20596    2203.              END   ,                   IXR file
 00230A 47F0 A46A            02334 20600    2204.              B     M1FCEW00            Done
000230E                            20602    2206.     M1FC25   LABEL ,                   Convert file to hybrid file
 00230E 9104 2004      00004       20604    2207.              IF    ~RQAPERM.FPW,M1FCEW08 Need write access
 002312 47E0 A474            0233E 20617             +
 002316 9120 2006      00006       20623    2208.              IF    RQASHR,M1FCEM04     Can't be attached in share mode
 00231A 4710 A49E            02368 20635             +
 00231E 58F0 2034/12FF       00034 20641    2209.              IF    ('LT R15,RQICBLK',NP),M1FCSPEC
 002324 47D0 A4D6            023A0 20654             +
 002328 59F0 A54E            02418 20660    2210.              IF    (R15,GT,=A(16700000)),M1FCSPEC
 00232C 4720 A4D6            023A0 20673             +
 002330 47F0 A4EC            023B6 20679    2211.              B     M1FCTEMP            Check temp
0002334                            20681    2213.     M1FCEW00 LABEL ,
 002334                            20683    2214.              CLEAR RQWRETC             Set wait return
 002334 D703 2054 2054 00054 00054 20689             +
 00233A 47F0 A4DE            023A8 20690    2215.              B     M1FCNOIO
1FILEMAN  (FILEMA) (09:39) (22MAR04) ORVYL'S File Manager                                                                   Page  132
0Current Usings:  (PZERO,R0) (RQWB,R2) (FSB,R3) (M1FCONT,R10) (@CHKMEM-72,R13)
0Loc    Object Code    Addr1 Addr2  Stmt Lv Lineno    Source Statement           (Hibal 5, Asmedit 3.3)  HLASM R4.0  2004/03/22 09.39
+___    ______ ____    _____ _____  ____ __ ______    ______ _________
000233E                            20692    2217.     M1FCEW08 LABEL ,
 00233E D203 2054 A552 00054 0241C 20694    2218.              MVC   RQWRETC,=F'8'       Set not authorized wait return
 002344 47F0 A4DE            023A8 20695    2219.              B     M1FCNOIO
0002348                            20697    2221.     M1FCEW12 LABEL ,
 002348 D203 2054 A556 00054 02420 20699    2222.              MVC   RQWRETC,=F'12'      Does not exist
 00234E 47F0 A4DE            023A8 20700    2223.              B     M1FCNOIO
0002352                            20702    2225.     M1FCEW28 LABEL ,
 002352 D203 2054 A55A 00054 02424 20704    2226.              MVC   RQWRETC,=F'28'      Does not exist
 002358 47F0 A4DE            023A8 20705    2227.              B     M1FCNOIO
000235C                            20707    2229.     M1FCERVR LABEL ,
 00235C 5000 2044            00044 20709    2230.              ST    RVR,RQRETC          Set error return code
 002360 4100 0001            00001 20710    2231.              LA    RVR,1               No IO necessary
 002364 47F0 A4FC            023C6 20711    2232.              EXIT  M1FCONT
0002368                            20715    2234.     M1FCEM04 LABEL ,
 002368 D203 2044 A55E 00044 02428 20717    2235.              MVC   RQRETC,=F'-4'
 00236E 4100 0001            00001 20718    2236.              LA    RVR,1               No IO necessary
 002372 47F0 A4FC            023C6 20719    2237.              EXIT  M1FCONT
0002376                            20723    2239.     M1FCEM08 LABEL ,
 002376 D203 2044 A562 00044 0242C 20725    2240.              MVC   RQRETC,=F'-8'
 00237C 4100 0001            00001 20726    2241.              LA    RVR,1               No IO necessary
 002380 47F0 A4FC            023C6 20727    2242.              EXIT  M1FCONT
0002384                            20731    2244.     M1FCEM12 LABEL ,
 002384 D203 2044 A566 00044 02430 20733    2245.              MVC   RQRETC,=F'-12'
 00238A 4100 0001            00001 20734    2246.              LA    RVR,1               No IO necessary
 00238E 47F0 A4FC            023C6 20735    2247.              EXIT  M1FCONT
0002392                            20739    2249.     M1FCER04 LABEL ,
 002392 D203 2044 A56A 00044 02434 20741    2250.              MVC   RQRETC,=F'4'
 002398 4100 0001            00001 20742    2251.              LA    RVR,1               No IO necessary
 00239C 47F0 A4FC            023C6 20743    2252.              EXIT  M1FCONT
00023A0                            20747    2254.     M1FCSPEC LABEL ,
 0023A0 5800 A56E            02438 20749    2255.              L     RVR,=X'80000006'    Specification
 0023A4 47F0 A4FC            023C6 20750    2256.              EXIT  M1FCONT
00023A8                            20754    2258.     M1FCNOIO LABEL ,
 0023A8 4100 0001            00001 20756    2259.              LA    RVR,1               No IO necessary
 0023AC                            20757    2260.              CLEAR RQRETC
 0023AC D703 2044 2044 00044 00044 20763             +
 0023B2 47F0 A4FC            023C6 20764    2261.              EXIT  M1FCONT
00023B6                            20768    2263.     M1FCTEMP LABEL ,
 0023B6 9140 2006      00006       20770    2264.              IF    RQATMP,M1FCSPEC     Can't be a temp file
 0023BA 4710 A4D6            023A0 20782             +
 0023BE                            20788    2265.     M1FCDOIO LABEL ,
 0023BE                            20790    2266.              CLEAR RQRETC,RVR          IO necessary
 0023BE D703 2044 2044 00044 00044 20796             +
 0023C4 1B00                       20798             +
1FILEMAN  (FILEMA) (09:39) (22MAR04) ORVYL'S File Manager                                                                   Page  133
0Current Usings:  (PZERO,R0) (@CHKMEM-72,R13)
0Loc    Object Code    Addr1 Addr2  Stmt Lv Lineno    Source Statement           (Hibal 5, Asmedit 3.3)  HLASM R4.0  2004/03/22 09.39
+___    ______ ____    _____ _____  ____ __ ______    ______ _________
00023C6 981F C008            00008 20800    2268.              PEND  ,
 DROP   FSB,R3
 DROP   RQWB,R2
 DROP   M1FCONT,R10
 0023CA 9680 C000/0B0E 00000       20820             +
 DROP   @CHKMEM-72,R13
 0023D0 010101                     20829    2269.     M1FCIOTP DC    3AL1(1)                 CONTROLS 0-2 DO WRITES
 0023D3 00000000                   20830    2270.              DC    4AL1(0)                 CONTROLS 3-6 DO READS
 0023D7 010101                     20831    2271.              DC    3AL1(1)                 CONTROLS 7-9 DO WRITES
 0023DA 0100010001000100           20832    2272.              DC    5AL1(1,0)               CONTROLS 10-19 ALTERNATE
 0023E4 00                         20833    2273.              DC    AL1(0)                  CONTROL 20 READS
 0023E5 01                         20834    2274.              DC    AL1(1)                  CONTROL 21 WRITES
 0023E6 000000                     20835    2275.              DC    AL3(0)                  CONTROL 22-24 READS
 0023E9 01                         20836    2276.              DC    AL1(1)                  CONTROL 25 WRITES
 0023F0                            20837    2277.              LTORG ,
 0023F0 0000317C                   20839                             =A(RTNTABC)
 0023F4 00003244                   20840                             =A(RTNTABCM)
 0023F8 0006A068                   20841                             =A(IXRMXNT#)
 0023FC 0000002C                   20842                             =A(L'RQNAME)
 002400 00000001                   20843                             =A(1)
 002404 000054D2                   20844                             =A(CHKMEM)
 002408 000047C2                   20845                             =A(SETFNAME)
 00240C 0000537C                   20846                             =A(CHKACC)
 002410 FFFFFFF8                   20847                             =A(-8)
 002414 00000007                   20848                             =A(L'NTRYPR)
 002418 00FED260                   20849                             =A(16700000)
 00241C 00000008                   20850                             =F'8'
 002420 0000000C                   20851                             =F'12'
 002424 0000001C                   20852                             =F'28'
 002428 FFFFFFFC                   20853                             =F'-4'
 00242C FFFFFFF8                   20854                             =F'-8'
 002430 FFFFFFF4                   20855                             =F'-12'
 002434 00000004                   20856                             =F'4'
 002438 80000006                   20857                             =X'80000006'
 00243C 0294           0243E 06510 20858                             =Y(IXRNT#)
1FILEMAN  (FILEMA) (09:39) (22MAR04) ORVYL'S File Manager                                                                   Page  134
0Current Usings:  (PZERO,R0)
0Loc    Object Code    Addr1 Addr2  Stmt Lv Lineno    Source Statement           (Hibal 5, Asmedit 3.3)  HLASM R4.0  2004/03/22 09.39
+___    ______ ____    _____ _____  ____ __ ______    ______ _________
0                                  20863    2279.     *---------------------------------------------------------------------*
                                   20864    2280.     *  M1ICONT - File CONTROL processing, IO part
                                   20865    2281.     *
                                   20866    2282.     *   Inputs - RA points to RQWB
                                   20867    2283.     *
                                   20868    2284.     *   Output -
                                   20869    2285.     *---------------------------------------------------------------------*
 000000                00000 00019 20870    2286.     #ICONT   RECORD BEGIN
 000000                            20878  1 2287.     #ICONBU1   DS    A                   IO buffer address
 000004                            20879  1 2288.     #ICONBU2   DS    A                   IO buffer address
 000008                            20880  1 2289.     #ICONBU3   DS    A                   IO buffer address
 00000C                            20881  1 2290.     #ICONBU4   DS    A                   IO buffer address
 000010                            20882  1 2291.     #ICONBLK   DS    A                   First block
 000014                            20883  1 2292.     #ICONCNT   DS    A                   Count of blocks
 000018 00                         20884  1 2293.     #ICONFLG   FLAG  ,
 #ICONFLG.#ICONSET 80 ONES         20888  1 2294.                FLAG  #ICONSET
 000019                00019 00019 20893    2295.              END   ,
000243E                            20903    2297.     M1ICONT  PROC  ,#ICONT
 00243E D4F1C9C3D6D5E340           20910             +
 002446 0000/0020                  20911             +
 00244A 900F D004/18AF       00004 20913             +
 USING  M1ICONT,R10
 002450 50D0 C000/18CD       00000 20928             +
 002456 9680 C000      00000       20930             +
 USING  #ICONT-72,R12
 00245A 41D0 C068            00068 20944             +
 USING  RQWB,R2                    20945    2298.              WITH  (RQWB,RA)
 00245E 5830 2024            00024 20958    2299.              L     RB,RQFSB
 USING  FSB,R3                     20959    2300.              WITH  (FSB,RB)
 USING  IXR,R6                     20972    2301.              WITH  (IXR,RX)            IXR
 USING  S.IXR,R7                   20985    2302.              WITH  (IXR,RY),LABEL=S    Super IXR record
 USING  F.IXR,R4                   20993    2303.              WITH  (IXR,RJ),LABEL=F    First hybrid IXR record
 USING  H.IXR,R5                   21001    2304.              WITH  (IXR,RK),LABEL=H    Hybrid IXR record
 002462                            21009    2305.              CLEAR #ICONT
 002462 D718 C048 C048 00000 00000 21015             +
0002468 5810 203C            0003C 21017    2307.              L     RS,RQICON           Get control type
 00246C 8910 0003            00003 21018    2308.              SLL   RS,3                Times eight
 002470 5811 AD36            03180 21019    2309.              L     RS,RTNTABC+4(RS)    Point to control routine
 002474 07F1                       21020    2310.              BR    RS                  Just do it
0002476                            21022    2312.     M1IC00   LABEL ,                   Create a file block
 002476 D203 2030 2034 00030 00034 21024    2313.              MVC   RQIBLK,RQICBLK      Set up to call write routine
 00247C D203 2070 2034 00070 00034 21025    2314.              MVC   RQLBLK,RQICBLK
 002482 41E0 20A4            000A4 21026    2315.              LA    R14,RQVARI
 002486 50E0 203C            0003C 21027    2316.              ST    R14,RQIDAT
 00248A                            21028    2317.              CLEAR RQILEN
 00248A D703 2034 2034 00034 00034 21034             +
 002490 58F0 AE06/0DEF       03250 21035    2318.              ACALL M1IWRIT             Write code is the same
 002496 47F0 AD28            03172 21042    2319.              EXIT  M1ICONT             Done
000249A                            21046    2321.     M1IC01   LABEL ,                   Delete a file block
 00249A D203 2030 2034 00030 00034 21048    2322.              MVC   RQICBL2,RQICBLK     End of range
1FILEMAN  (FILEMA) (09:39) (22MAR04) ORVYL'S File Manager                                                                   Page  135
0Current Usings:  (PZERO,R0) (RQWB,R2) (FSB,R3) (F.IXR,R4) (H.IXR,R5) (IXR,R6) (S.IXR,R7) (M1ICONT,R10) (#ICONT-72,R12)
0Loc    Object Code    Addr1 Addr2  Stmt Lv Lineno    Source Statement           (Hibal 5, Asmedit 3.3)  HLASM R4.0  2004/03/22 09.39
+___    ______ ____    _____ _____  ____ __ ______    ______ _________
00024A0                            21049    2323.     M1IC02   LABEL ,                   Delete a range of file blocks
 0024A0 4D10 AC26            03070 21051    2324.              BAS   RS,M1ICXRES         Get reserve
 0024A4 4D10 AC78            030C2 21052    2325.              BAS   RS,M1ICGIXR         Get IXR
 0024A8 5810 6034            00034 21053    2326.              L     RS,IXRRRCS          Get before block count
 USING  @BLKDEL-72,R13             21054    2327.              PSET  @BLKDEL
 0024AC D70B D048 D048 00000 00000 21071             +
 0024B2 5020 D048            00000 21072    2328.              PMOV  @BLKDRQW,LA:RQWB
 0024B6 5060 D04C            00004 21083    2329.              PMOV  @BLKDADR,LA:IXR
 0024BA 58F0 AE0A/0DEF       03254 21094    2330.              ACALL FMDELBLK            Delete the blocks
 0024C0 1890                       21101    2331.              LR    RN,RVR              Save return code
 0024C2                            21102    2332.              IF    (RQICON,EQ,2),BEGIN
 0024C2 D503 AE0E 203C 03258 0003C 21114             +
 0024C8 4770 A088            024D2 21115             +
 0024CC D203 204C D050 0004C 00008 21120  1 2333.                MVC   RQRCBK,@BLKDCNT     Set number of blocks deleted
 0024D2                            21121    2334.              END   ,
 0024D2 5B10 6034            00034 21125    2335.              S     RS,IXRRRCS          Calc real blocks deleted
 0024D6 47D0 A0CE            02518 21126    2336.              IF    P,BEGIN             Some deleted
 0024DA 9140 2006      00006       21137  1 2337.                IF    ~RQATMP,BEGIN       Not a temp file
 0024DE 4710 A0B2            024FC 21147  1          +
 DROP   @BLKDEL-72,R13             21152  2 2338.                  PSET  @FCACMOD
 USING  @FCACMOD-72,R13
 0024E2 D70D D048 D048 00000 00000 21172  2          +
 0024E8 5030 D048            00000 21173  2 2339.                  PMOV  @FCACFSB,LA:FSB
 0024EC                            21184  2 2340.                  PMOV  @FCACCNT,RQNACC
 0024EC D205 D050 207C 00008 0007C 21188  2          +
 0024F2 5010 D04C            00004 21189  2 2341.                  PMOV  @FCACSPA,(RS)       Space released
 0024F6 58F0 AE12/0DEF       0325C 21199  2 2342.                  VCALL FCATPSPA            Update catalog space
 0024FC                            21203  1 2343.                END   ,                   Not a temp file
 0024FC A0B6           024FC 024E0 21207  1 2344.                ELSE  BEGIN               Temp file
 0024FC 47F0 A0CE            02518 21212  1          +
 002500 5880 0200            00200 21218  2 2345.                  L     RM,MATPTR
 002504 5880 8028            00028 21219  2 2346.                  WITH  (MAT,RM),'L RM,MATFILCB'
 USING  MAT,R8
 DROP   MAT,R8
 USING  FILECB,R8                  21243  2 2347.                  WITH  (FILECB,RM),BEGIN
 002508 58E0 80F8            000F8 21257  3 2348.                    L     R14,TTFILTBK
 00250C                            21258  3 2349.                    LOOP  BEGIN
 00250C 18FE                       21264  4 2350.                      LR    R15,R14
 00250E 1BF1                       21265  4 2351.                      SR    R15,RS              Calc new number of temp blocks
 002510 BAEF 80F8            000F8 21266  4 2352.                      CS    R14,R15,TTFILTBK    Set new number of temp blocks
 002514 4770 A0C2            0250C 21267  3 2353.                    UNTIL Z,END
 DROP   FILECB,R8                  21286  2 2354.                  END   ,
 002518                            21294  1 2355.                END   ,                   Temp file
 002518                            21298    2356.              END   ,                   Some deleted
 002518 1809                       21302    2357.              LR    RVR,RN              Restore return code
 00251A 47F0 ABEC            03036 21303    2358.              B     M1ICERVR            Exit
000251E                            21305    2360.     M1IC03   LABEL ,                   Test for file block existence
 00251E 4D10 AC2E            03078 21307    2361.              BAS   RS,M1ICSRES         Get reserve
 002522 4D10 AC78            030C2 21308    2362.              BAS   RS,M1ICGIXR         Get IXR
 002526                            21309    2363.              IF    (IXRNRCS,Z),M1ICEX12 No blocks at all
 002526 D603 6030 6030 00030 00030 21319             +
 00252C 4780 AC08            03052 21322             +
 002530 5890 2034            00034 21328    2364.              L     RN,RQICBLK          Get block number
1FILEMAN  (FILEMA) (09:39) (22MAR04) ORVYL'S File Manager                                                                   Page  136
0Current Usings:  (PZERO,R0) (RQWB,R2) (FSB,R3) (F.IXR,R4) (H.IXR,R5) (IXR,R6) (S.IXR,R7) (M1ICONT,R10) (#ICONT-72,R12) (@FCACMOD-72,R13)
0Loc    Object Code    Addr1 Addr2  Stmt Lv Lineno    Source Statement           (Hibal 5, Asmedit 3.3)  HLASM R4.0  2004/03/22 09.39
+___    ______ ____    _____ _____  ____ __ ______    ______ _________
0002534 1B88                       21329    2365.              CLEAR RM
 002536 9104 2005      00005       21333    2366.              IF    RQCHYBR,BEGIN       Hybrid file
 00253A 47E0 A10E            02558 21343             +
 00253E 5D80 AE16            03260 21348  1 2367.                D     RM,=A(IXRNT#)       Calc IXR number
 002542 1299/4780 A10C       02556 21349  1 2368.                IF    (RN,NZ),BEGIN       Already have the first one
 002548 5A90 205C            0005C 21363  2 2369.                  A     RN,RQFBLK           Calc IXR block number
 00254C 18E9                       21364  2 2370.                  LR    R14,RN              Get block number
 00254E 41F0 6000            00000 21365  2 2371.                  LA    R15,IXR             Use same buffer
 002552 4D10 AC98            030E2 21366  2 2372.                  BAS   RS,M1ICGIX2         Get IXR
 002556                            21367  1 2373.                END   ,                   Already have the first one
 002556 1898                       21371  1 2374.                LR    RN,RM               Get remainder
 002558                            21372    2375.              END   ,                   Hybrid file
 002558 A112           02558 0253C 21376    2376.              ELSE  BEGIN               IXR file
 002558 47F0 A14C            02596 21381             +
 00255C 9140 6000      00000       21387  1 2377.                IF    IXRSIXR,BEGIN       Super IXR
 002560 47E0 A140            0258A 21397  1          +
 002564 5D80 AE16            03260 21402  2 2378.                  D     RM,=A(IXRNT#)       Calc IXR index
 002568 4C90 AE82            032CC 21403  2 2379.                  MH    RN,=Y(L'IXRNT)      Calc displacement to block number
 00256C 4179 6000            00000 21404  2 2380.                  LA    RY,IXR(RN)          Point to it
 002570                            21405  2 2381.                  IF    (S.IXRNT,Z),M1ICEX12 It does not exist
 002570 D602 7044 7044 00044 00044 21415  2          +
 002576 4780 AC08            03052 21418  2          +
 00257A 1FEE/BFE7 7044       00044 21424  2 2382.                  L3    R14,S.IXRNT         Get block number
 002580 41F0 6000            00000 21430  2 2383.                  LA    R15,IXR             Use same buffer
 002584 4D10 AC98            030E2 21431  2 2384.                  BAS   RS,M1ICGIX2         Get IXR
 002588 1898                       21432  2 2385.                  LR    RN,RM               Get remainder
 00258A                            21433  1 2386.                END   ,                   Super IXR
 00258A A144           0258A 02562 21437  1 2387.                ELSE  BEGIN               MIXR record
 00258A 47F0 A14C            02596 21442  1          +
 00258E 5990 AE16            03260 21448  2 2388.                  IF    (RN,GE,IXRNT#),M1ICEX12 It does not exist
 002592 47A0 AC08            03052 21462  2          +
 002596                            21468  1 2389.                END   ,                   MIXR record
 002596                            21472    2390.              END   ,                   IXR record
 002596 4C90 AE82            032CC 21476    2391.              MH    RN,=Y(L'IXRNT)      Calc displacement to block number
 00259A 4179 6000            00000 21477    2392.              LA    RY,IXR(RN)          Point to it
 00259E                            21478    2393.              IF    (S.IXRNT,Z),M1ICEX12 Does not exist
 00259E D602 7044 7044 00044 00044 21488             +
 0025A4 4780 AC08            03052 21491             +
 0025A8 47F0 ABF4            0303E 21497    2394.              B     M1ICEX00            Does indeed exist
00025AC                            21499    2396.     M1IC04   LABEL ,                   Obtain first block number
 0025AC 4D10 AC2E            03078 21501    2397.              BAS   RS,M1ICSRES         Get reserve
 0025B0 4D10 AC78            030C2 21502    2398.              BAS   RS,M1ICGIXR         Get IXR
 0025B4                            21503    2399.              IF    (IXRNRCS,Z),M1ICEX12 No blocks at all
 0025B4 D603 6030 6030 00030 00030 21513             +
 0025BA 4780 AC08            03052 21516             +
 0025BE 9104 2005      00005       21522    2400.              IF    RQCHYBR,BEGIN       Hybrid file
 0025C2 47E0 A182            025CC 21532             +
 0025C6 1F99/BF97 603E       0003E 21537  1 2401.                L3    RN,IXRLWRF          Get first block number
 0025CC                            21543    2402.              END   ,                   Hybrid file
 0025CC A186           025CC 025C4 21547    2403.              ELSE  BEGIN               IXR file
 0025CC 47F0 A1C0            0260A 21552             +
 0025D0 9140 6000      00000       21558  1 2404.                IF    IXRSIXR,BEGIN       Super IXR
 0025D4 47E0 A1B6            02600 21568  1          +
1FILEMAN  (FILEMA) (09:39) (22MAR04) ORVYL'S File Manager                                                                   Page  137
0Current Usings:  (PZERO,R0) (RQWB,R2) (FSB,R3) (F.IXR,R4) (H.IXR,R5) (IXR,R6) (S.IXR,R7) (M1ICONT,R10) (#ICONT-72,R12) (@FCACMOD-72,R13)
0Loc    Object Code    Addr1 Addr2  Stmt Lv Lineno    Source Statement           (Hibal 5, Asmedit 3.3)  HLASM R4.0  2004/03/22 09.39
+___    ______ ____    _____ _____  ____ __ ______    ______ _________
00025D8 4870 67FC            007FC 21573  2 2405.                  LH    RY,IXRLWXR          Lowest IXR
 0025DC 1897                       21574  2 2406.                  LR    RN,RY               Save
 0025DE 4C70 AE82            032CC 21575  2 2407.                  MH    RY,=Y(L'IXRNT)      Calc displacemenet
 0025E2 4177 6000            00000 21576  2 2408.                  LA    RY,IXR(RY)          Point to IXR number
 0025E6 1FEE/BFE7 7044       00044 21577  2 2409.                  L3    R14,S.IXRNT         Get block number
 0025EC 41F0 6000            00000 21583  2 2410.                  LA    R15,IXR             Use same buffer
 0025F0 4D10 AC98            030E2 21584  2 2411.                  BAS   RS,M1ICGIX2         Get IXR
 0025F4 4C90 AE84            032CE 21585  2 2412.                  MH    RN,=Y(IXRNT#)       Calc first block number this IXR
 0025F8 1FEE/BFE7 6038       00038 21586  2 2413.                  L3    R14,IXRLWRC         Get first existing block this IXR
 0025FE 1A9E                       21592  2 2414.                  AR    RN,R14              Calculate first block number
 002600                            21593  1 2415.                END   ,                   Super IXR
 002600 A1BA           02600 025D6 21597  1 2416.                ELSE  BEGIN
 002600 47F0 A1C0            0260A 21602  1          +
 002604 1F99/BF97 6038       00038 21608  2 2417.                  L3    RN,IXRLWRC          Set first block number
 00260A                            21614  1 2418.                END   ,
 00260A                            21618    2419.              END   ,                   IXR file
 00260A 5090 204C            0004C 21622    2420.              ST    RN,RQRCBK           Set first block number return
 00260E 47F0 ABF4            0303E 21623    2421.              B     M1ICEX00            Exit
0002612                            21625    2423.     M1IC05   LABEL ,                   Obtain last block number
 002612 4D10 AC2E            03078 21627    2424.              BAS   RS,M1ICSRES         Get reserve
 002616 4D10 AC78            030C2 21628    2425.              BAS   RS,M1ICGIXR         Get IXR
 00261A                            21629    2426.              IF    (IXRNRCS,Z),M1ICEX12 No blocks at all
 00261A D603 6030 6030 00030 00030 21639             +
 002620 4780 AC08            03052 21642             +
 002624 9104 2005      00005       21648    2427.              IF    RQCHYBR,BEGIN       Hybrid file
 002628 47E0 A1E8            02632 21658             +
 00262C 1F99/BF97 6041       00041 21663  1 2428.                L3    RN,IXRHIRF          Get last block number
 002632                            21669    2429.              END   ,                   Hybrid file
 002632 A1EC           02632 0262A 21673    2430.              ELSE  BEGIN               IXR file
 002632 47F0 A226            02670 21678             +
 002636 9140 6000      00000       21684  1 2431.                IF    IXRSIXR,BEGIN       Super IXR
 00263A 47E0 A21C            02666 21694  1          +
 00263E 4870 67FE            007FE 21699  2 2432.                  LH    RY,IXRHIXR          Highest IXR
 002642 1897                       21700  2 2433.                  LR    RN,RY               Save
 002644 4C70 AE82            032CC 21701  2 2434.                  MH    RY,=Y(L'IXRNT)      Calc displacemenet
 002648 4177 6000            00000 21702  2 2435.                  LA    RY,IXR(RY)          Point to IXR number
 00264C 1FEE/BFE7 7044       00044 21703  2 2436.                  L3    R14,S.IXRNT         Get block number
 002652 41F0 6000            00000 21709  2 2437.                  LA    R15,IXR             Use same buffer
 002656 4D10 AC98            030E2 21710  2 2438.                  BAS   RS,M1ICGIX2         Get IXR
 00265A 4C90 AE84            032CE 21711  2 2439.                  MH    RN,=Y(IXRNT#)       Calc last block number this IXR
 00265E 1FEE/BFE7 603B       0003B 21712  2 2440.                  L3    R14,IXRHIRC         Get last existing block this IXR
 002664 1A9E                       21718  2 2441.                  AR    RN,R14              Calculate last block number
 002666                            21719  1 2442.                END   ,                   Super IXR
 002666 A220           02666 0263C 21723  1 2443.                ELSE  BEGIN
 002666 47F0 A226            02670 21728  1          +
 00266A 1F99/BF97 603B       0003B 21734  2 2444.                  L3    RN,IXRHIRC          Set last block number
 002670                            21740  1 2445.                END   ,
 002670                            21744    2446.              END   ,                   IXR file
 002670 5090 204C            0004C 21748    2447.              ST    RN,RQRCBK           Set last block number return
 002674 47F0 ABF4            0303E 21749    2448.              B     M1ICEX00            Exit
0002678                            21751    2450.     M1IC06   LABEL ,                   Obtain total number of blocks
 002678 4D10 AC2E            03078 21753    2451.              BAS   RS,M1ICSRES         Get reserve
1FILEMAN  (FILEMA) (09:39) (22MAR04) ORVYL'S File Manager                                                                   Page  138
0Current Usings:  (PZERO,R0) (RQWB,R2) (FSB,R3) (F.IXR,R4) (H.IXR,R5) (IXR,R6) (S.IXR,R7) (M1ICONT,R10) (#ICONT-72,R12) (@FCACMOD-72,R13)
0Loc    Object Code    Addr1 Addr2  Stmt Lv Lineno    Source Statement           (Hibal 5, Asmedit 3.3)  HLASM R4.0  2004/03/22 09.39
+___    ______ ____    _____ _____  ____ __ ______    ______ _________
000267C 4D10 AC78            030C2 21754    2452.              BAS   RS,M1ICGIXR         Get IXR
 002680 D203 204C 6030 0004C 00030 21755    2453.              MVC   RQRUSB,IXRNRCS      Number of user blocks
 002686 D203 2040 6034 00040 00034 21756    2454.              MVC   RQRBIB,IXRRRCS      Number of billable blocks
 00268C 47F0 ABF4            0303E 21757    2455.              B     M1ICEX00            Exit
0002690                            21759    2457.     M1IC08   LABEL ,                   Erasing and renaming files
 002690 4D10 AC26            03070 21761    2458.              BAS   RS,M1ICXRES         Get reserve
 USING  AHFB,R4                    21762    2459.              WITH  ((AHFB,RJ),(ATFB,RM)),BEGIN
 USING  ATFB,R8
 002694                            21786  1 2460.                IF    (RQICLOC,NZ),BEGIN  Rename option
 002694 D603 2034 2034 00034 00034 21796  1          +
 00269A 4780 A3C4            0280E 21797  1          +
 DROP   @FCACMOD-72,R13            21802  2 2461.                  PSET  @FCRNAME
 USING  @FCRNAME-72,R13
 00269E D74C D048 D048 00000 00000 21822  2          +
 0026A4 5030 D048            00000 21823  2 2462.                  PMOV  @FCRNFSB,LA:FSB
 0026A8 D227 D04C 20A8 00004 000A8 21834  2 2463.                  MVC   @FCRNAM1,RQWKNAME+4 File name
 0026AE                            21835  2 2464.                  PMOV  @FCRNAM2,RQNAM2     New file name
 0026AE D220 D074 2083 0002C 00083 21839  2          +
 0026B4 58F0 AE1A/0DEF       03264 21840  2 2465.                  VCALL FCATRNAM            Rename
 0026BA 1200/4770 ABEC       03036 21844  2 2466.                  IF    (RVR,NZ),M1ICERVR   Exit on error
 DROP   @FCRNAME-72,R13            21861  2 2467.                  PSET  @HASH
 USING  @HASH-72,R13
 0026C0 D70C D048 D048 00000 00000 21881  2          +
 0026C6 4100 2078            00078 21882  2 2468.                  PMOV  @HSHSTR,LA:RQNAME   File name
 0026CA 5000 D048            00000 21898  2          +
 0026CE 4100 002C            0002C 21899  2 2469.                  PMOV  @HSHLEN,LA:L'RQNAME Length
 0026D2 5000 D04C            00004 21915  2          +
 0026D6 4100 0151            00151 21916  2 2470.                  PMOV  @HSHVAL,LA:AHFBCNT  Hash value
 0026DA 5000 D050            00008 21932  2          +
 0026DE 9680 D054      0000C       21933  2 2471.                  SET   @HSHBLNK            Don't use trailing blanks
 0026E2 58F0 AE1E/0DEF       03268 21939  2 2472.                  VCALL HASHIT              Calculate hash number
 0026E8 1850                       21943  2 2473.                  LR    RK,RVR              Get hash number
 0026EA 5840 303C            0003C 21944  2 2474.                  L     RJ,FSBAHFB          Get file attach hash table ptr
 0026EE 5880 2018            00018 21945  2 2475.                  L     RM,RQATFB           Point to attached file block
 DROP   @HASH-72,R13               21946  2 2476.                  GRGET RID=AHFBGRID,EXCL=YES Reserve the table
 USING  @GRES-72,R13
 0026F2 D708 D048 D048 00000 00000 21967  2          +
 0026F8 D203 D04C 4004 00004 00004 21972  2          +
 0026FE 9680 D050      00008       21978  2          +
 002702 9640 D050      00008       21984  2          +
 002706 58F0 AE22/0DEF       0326C 21987  2          +
 00270C 5890 8018            00018 21989  2 2477.                  L     RN,ATFBATL          Point to hash list
 USING  AHFBL,R9                   21990  2 2478.                  WITH  (AHFBL,RN),BEGIN
 002710 1B00/58F0 9008       00008 22004  3 2479.                    LREM  AHFBL,LA:ATFB,WR=RS Remove from list
 002716 4110 0001/1BF1       00001 22042  4          +
 00271C 4740 A2EE            02738 22053  4          +
 002720 50F0 9008/18F8       00008 22059  4          +
 002726 180F/58E0 F004       00004 22066  4          +
 00272C 58F0 F000            00000 22074  4          +
 002730 50E0 F004            00004 22075  4          +
 002734 50F0 E000            00000 22076  3          +
 DROP   AHFBL,R9                   22081  2 2480.                  END   ,
 002738 D227 8028 207C 00028 0007C 22089  2 2481.                  MVC   ATFBNAME,RQNAMS     Set new name
1FILEMAN  (FILEMA) (09:39) (22MAR04) ORVYL'S File Manager                                                                   Page  139
0Current Usings:  (PZERO,R0) (RQWB,R2) (FSB,R3) (AHFB,R4) (H.IXR,R5) (IXR,R6) (S.IXR,R7) (ATFB,R8) (M1ICONT,R10) (#ICONT-72,R12) (@GRES-72,R13)
0Loc    Object Code    Addr1 Addr2  Stmt Lv Lineno    Source Statement           (Hibal 5, Asmedit 3.3)  HLASM R4.0  2004/03/22 09.39
+___    ______ ____    _____ _____  ____ __ ______    ______ _________
000273E 4C50 AE86            032D0 22090  2 2482.                  MH    RK,=Y(L'AHFBL)      Calculate index
 002742 4195 4010            00010 22091  2 2483.                  LA    RN,AHFBL(RK)        Point to queue
 002746 5090 8018            00018 22092  2 2484.                  ST    RN,ATFBATL          Set new hash list pointer
 USING  AHFBL,R9                   22093  2 2485.                  WITH  (AHFBL,RN),BEGIN
 00274A 41E0 0001            00001 22107  3 2486.                    LADD  AHFBL,LA:ATFB,WR=RS Add to the new list
 00274E 5EE0 9008            00008 22134  3          +
 002752 50E0 9008            00008 22135  3          +
 002756 58E0 9004            00004 22142  3          +
 00275A 5080 9004            00004 22148  3          +
 00275E 5090 8000            00000 22149  3          +
 002762 50E0 8004            00004 22155  3          +
 002766 5080 E000            00000 22156  3          +
 DROP   AHFBL,R9                   22158  2 2487.                  END   ,
 00276A                            22166  2 2488.                  GRREL RID=AHFBGRID
 00276A D708 D048 D048 00000 00000 22177  2          +
 002770 D203 D04C 4004 00004 00004 22182  2          +
 002776 58F0 AE26/0DEF       03270 22185  2          +
 00277C 9110 2005      00005       22187  2 2489.                  IF    ~RQCNIXR,BEGIN      IXR file
 002780 4710 A38C            027D6 22197  2          +
 002784 4D10 AC78            030C2 22202  3 2490.                    BAS   RS,M1ICGIXR         Get IXR
 002788 D227 6004 207C 00004 0007C 22203  3 2491.                    MVC   IXRNAME(L'RQNAMS),RQNAMS Set new file name
 00278E 41F0 6000            00000 22204  3 2492.                    LA    R15,IXR
 002792 4D10 ACB6            03100 22205  3 2493.                    BAS   RS,M1ICPIXR         Put IXR
 002796 9140 6000      00000       22206  3 2494.                    IF    IXRSIXR,BEGIN       Super IXR
 00279A 47E0 A38C            027D6 22216  3          +
 00279E 1876                       22221  4 2495.                      LR    RY,RX               Set SIXR address
 0027A0 4190 0292            00292 22222  4 2496.                      LA    RN,IXRIXNT#         Count of IXRs in super IXR
 0027A4 1B66                       22223  4 2497.                      CLEAR RX
 0027A6                            22227  4 2498.                      LOOP  BEGIN               Put the new name in all IXRs
 0027A6                            22233  5 2499.                        IF    (S.IXRNT,NZ),BEGIN  IXR exists
 0027A6 D602 7044 7044 00044 00044 22243  5          +
 0027AC 4780 A380            027CA 22244  5          +
 0027B0 1FEE/BFE7 7044       00044 22249  6 2500.                          L3    R14,S.IXRNT         Get block number
 0027B6 41F0 6000            00000 22255  6 2501.                          LA    R15,IXR             Use same buffer
 0027BA 4D10 AC98            030E2 22256  6 2502.                          BAS   RS,M1ICGIX2         Get IXR
 0027BE 186F                       22257  6 2503.                          LR    RX,R15              Get IXR address
 0027C0 D227 6004 207C 00004 0007C 22258  6 2504.                          MVC   IXRNAME(L'RQNAMS),RQNAMS Set new file name
 0027C6 4D10 ACB6            03100 22259  6 2505.                          BAS   RS,M1ICPIXR         Put IXR back
 0027CA                            22260  5 2506.                        END   ,                   IXR exists
 0027CA 4170 7003            00003 22264  5 2507.                        LA    RY,S.IXR+L'IXRNT    Increment SIXR pointer
 0027CE 4690 A35C            027A6 22265  4 2508.                      UNTIL (BCT,RN),END        Put the new name in all IXRs
 0027D2 5060 C04C            00004 22275  4 2509.                      ST    RX,#ICONBU2         Save buffer pointer
 0027D6                            22276  3 2510.                    END   ,                   Super IXR
 0027D6                            22280  2 2511.                  END   ,                   IXR file
 0027D6 A390           027D6 02782 22284  2 2512.                  ELSEIF RQCHYBR,BEGIN      Hybrid file
 0027D6 47F0 A3C4            0280E 22290  2          +
 0027DA 9104 2005      00005       22302  2          +
 0027DE 47E0 A3C4            0280E 22303  2          +
 0027E2 5880 205C            0005C 22308  3 2513.                    L     RM,RQFBLK           Get first IXR block number
 0027E6 5890 2060            00060 22309  3 2514.                    L     RN,RQBLKC           Get IXR count
 0027EA 1B66                       22310  3 2515.                    CLEAR RX
 0027EC                            22314  3 2516.                    LOOP  BEGIN               Put the new name in all IXRs
 0027EC 18E8                       22320  4 2517.                      LR    R14,RM              Get block number
 0027EE 41F0 6000            00000 22321  4 2518.                      LA    R15,IXR             Use same buffer
1FILEMAN  (FILEMA) (09:39) (22MAR04) ORVYL'S File Manager                                                                   Page  140
0Current Usings:  (PZERO,R0) (RQWB,R2) (FSB,R3) (AHFB,R4) (H.IXR,R5) (IXR,R6) (S.IXR,R7) (ATFB,R8) (M1ICONT,R10) (#ICONT-72,R12) (@GRES-72,R13)
0Loc    Object Code    Addr1 Addr2  Stmt Lv Lineno    Source Statement           (Hibal 5, Asmedit 3.3)  HLASM R4.0  2004/03/22 09.39
+___    ______ ____    _____ _____  ____ __ ______    ______ _________
00027F2 4D10 AC98            030E2 22322  4 2519.                      BAS   RS,M1ICGIX2         Get IXR
 0027F6 186F                       22323  4 2520.                      LR    RX,R15              Get pointer
 0027F8 D227 6004 207C 00004 0007C 22324  4 2521.                      MVC   IXRNAME(L'RQNAMS),RQNAMS Set new file name
 0027FE 4D10 ACB6            03100 22325  4 2522.                      BAS   RS,M1ICPIXR         Put IXR back
 002802 5E80 AE2A            03274 22326  4 2523.                      INCR  RM                  Next block
 002806 4690 A3A2            027EC 22329  3 2524.                    UNTIL (BCT,RN),END        Put the new name in all IXRs
 00280A 5060 C04C            00004 22339  3 2525.                    ST    RX,#ICONBU2         Save buffer pointer
 00280E                            22340  2 2526.                  END   ,                   Hybrid file
 00280E                            22344  1 2527.                END   ,                   Rename option
 00280E A3C8           0280E 0269C 22348  1 2528.                ELSE  BEGIN               Erase option
 00280E 47F0 A526            02970 22353  1          +
 DROP   @GRES-72,R13               22359  2 2529.                  PSET  @FCDLETE
 USING  @FCDLETE-72,R13
 002812 D72B D048 D048 00000 00000 22379  2          +
 002818 5030 D048            00000 22380  2 2530.                  PMOV  @FCDLFSB,LA:FSB
 00281C                            22391  2 2531.                  PMOV  @FCDLNAM,RQNAMS
 00281C D227 D04C 207C 00004 0007C 22395  2          +
 002822 58F0 AE2E/0DEF       03278 22396  2 2532.                  VCALL FCATDLET            Delete the name from the catalog
 002828 1200/4770 ABEC       03036 22400  2 2533.                  IF    (RVR,NZ),M1ICERVR   Exit on error
 00282E 58E0 2018            00018 22417  2 2534.                  L     R14,RQATFB
 USING  ATFB,R14                   22418  2 2535.                  WITH  (ATFB,R14),'CLEAR ATFBNAME' Indicated deleted
 002832 D727 E028 E028 00028 00028 22439  2          +
 DROP   ATFB,R14
 002838 9680 2020      00020       22448  2 2536.                  SET   RQRFRE              Free RQFB
 00283C 9110 2005      00005       22454  2 2537.                  IF    (~RQCNIXR,OR,RQCHYBR),BEGIN IXR or hybrid
 002840 47E0 A402            0284C 22468  2          +
 002844 9104 2005      00005       22477  2          +
 002848 47E0 A410            0285A 22478  2          +
 00284C 4D10 AC78            030C2 22483  3 2538.                    BAS   RS,M1ICGIXR         Get IXR
 002850                            22484  3 2539.                    CLEAR #ICONBU1            Don't release this buffer
 002850 D703 C048 C048 00000 00000 22490  3          +
 002856 5850 6034            00034 22491  3 2540.                    L     RK,IXRRRCS          Number of blocks
 00285A                            22492  2 2541.                  END   ,                   IXR or hybrid
 00285A A414           0285A 0284A 22496  2 2542.                  ELSE  BEGIN               Non-IXR
 00285A 47F0 A41C            02866 22501  2          +
 00285E 5850 2060            00060 22507  3 2543.                    L     RK,RQBLKC           Number of blocks
 002862 5860 205C            0005C 22508  3 2544.                    L     RX,RQFBLK           First block number
 002866                            22509  2 2545.                  END   ,                   Non-IXR
 DROP   @FCDLETE-72,R13            22513  2 2546.                  PSET  @FCACMOD
 USING  @FCACMOD-72,R13
 002866 D70D D048 D048 00000 00000 22533  2          +
 00286C 5030 D048            00000 22534  2 2547.                  PMOV  @FCACFSB,LA:FSB
 002870                            22545  2 2548.                  PMOV  @FCACCNT,RQNACC
 002870 D205 D050 207C 00008 0007C 22549  2          +
 002876 5050 D04C            00004 22550  2 2549.                  PMOV  @FCACSPA,(RK)       Space released
 00287A 58F0 AE12/0DEF       0325C 22560  2 2550.                  VCALL FCATPSPA            Update catalog space
 002880 5870 0200            00200 22564  2 2551.                  ADFCB ,                   Address file control block
 USING  MAT,R7
 002884 5870 7028            00028 22581  2          +
 DROP   MAT,R7
 USING  FILECB,R7
                                   22603  2 2552.                  SAVAIL HEAD=FILEDB,LEN=L'FDEL
 002888 9801 7108            00108 22606  2 02-01652 +             LM    RVR,RS,FILEDB       Get fwd and sequence number
 00288C                            22611  2 05-LABEL +$$$585S      DS    0H
1FILEMAN  (FILEMA) (09:39) (22MAR04) ORVYL'S File Manager                                                                   Page  141
0Current Usings:  (PZERO,R0) (RQWB,R2) (FSB,R3) (AHFB,R4) (H.IXR,R5) (IXR,R6) (FILECB,R7) (ATFB,R8) (M1ICONT,R10) (#ICONT-72,R12) (@FCACMOD-72,R13)
0Loc    Object Code    Addr1 Addr2  Stmt Lv Lineno    Source Statement           (Hibal 5, Asmedit 3.3)  HLASM R4.0  2004/03/22 09.39
+___    ______ ____    _____ _____  ____ __ ______    ______ _________
000288C 1200                       22621  3 05-$REL  +               LTR   RVR,RVR
 00288E 4780 A45A            028A4 22624  3 04-$BC   +               BC    8,$$$585F
 002892                            22627  3 05-LABEL +$$$586F        DS    0H
 002892 18E0                       22630  3 02-01655 +               LR    R14,RVR             Point to first item
 002894 58EE 0000            00000 22631  3 02-01656 +               L     R14,0(R14)          Get fwd pointer
 002898 41F1 0001            00001 22632  3 02-01657 +               LA    R15,1(RS)           Increment sequence
 00289C BB0E 7108            00108 22633  2 02-01658 +             CDS   RVR,R14,FILEDB      Remove item from list
 0028A0 4770 A442            0288C 22647  2 06-$BC   +             BC    7,$$$585S
 0028A4 1200/4770 A4B0       028FA 22650  2 07-LABEL +$$$585F      DS    0H
 DROP   @FCACMOD-72,R13            22669  3 02-VMGET +*,                                     Storage from pool 59
 USING  @VMGET-72,R13
 0028AA D70A D048 D048 00000 00000 22695  3          +
 0028B0 4100 0015            00015 22707  3          +
 0028B4 5000 D048            00000 22712  3          +
 0028B8 D201 D050 AE88 00008 032D2 22713  3          +
 0028BE 58F0 AE32/0DEF       0327C 22716  3          +
 0028C4 1200/4770 A4B0       028FA 22725  3          +
 0028CA AC04 021B      0021B       22735  4          +
 0028CE 9680 021A      0021A       22741  4          +
 0028D2 50F0 021C            0021C 22742  4          +
 0028D6 58F0 0210            00210 22743  4          +
 0028DA 89F0 0010            00010 22744  4          +
 0028DE 88F0 0010            00010 22745  4          +
 0028E2 41F0 F000            00000 22746  4          +
 0028E6 AEFF 0006            00006 22747  4          +
 0028EA D5D66DD4C5D46DC6           22748  3          +
 USING  FDEL,R5                    22757  2 2553.                  WITH  (FDEL,RK)
 0028FA 1850                       22770  2 2554.                  LR    RK,RVR              Get pointer
 0028FC                            22771  2 2555.                  CLEAR FDEL
 0028FC D714 5000 5000 00000 00000 22777  2          +
 002902 D203 5004 AE36 00004 03280 22778  2 2556.                  MVC   FDELID,=C'FILD'
 002908 5030 5008            00008 22779  2 2557.                  ST    RB,FDELF            FSB
 00290C 5060 500C            0000C 22780  2 2558.                  ST    RX,FDELB            First IXR
 002910 D203 5010 2060 00010 00060 22781  2 2559.                  MVC   FDELC,RQBLKC        Block count (non-ixr or hybrid)
 002916 9110 2005      00005       22782  2 2560.                  IF    RQCNIXR,'SET FDELFN' Non-ixr
 00291A 47E0 A4D8            02922 22792  2          +
 00291E 9680 5014      00014       22803  2          +
 002922 9104 2005      00005       22808  2 2561.                  IF    RQCHYBR,'SET FDELFH' Hybrid
 002926 47E0 A4E4            0292E 22818  2          +
 00292A 9640 5014      00014       22829  2          +
                                   22834  2 2562.                  SPUSH HEAD=FILEDF,ITEM=FDEL Put on list of things to do
 00292E 98EF 7118            00118 22836  2 01-01624 +             LM    R14,R15,FILEDF      Get fwd ptr and sequence number
 002932 4100 5000            00000 22837  2 01-01625 +             LA    RVR,FDEL            Point to new item
 002936                            22842  2 04-LABEL +$$$593S      DS    0H
 002936 411F 0001            00001 22844  3 01-01627 +               LA    RS,1(R15)           Increment sequence
 00293A D203 5000 7118 00000 00118 22845  3 01-01628 +               MVC   FDEL(L'FILEDFFP),FILEDFFP   Set item fwd ptr
 002940 BBE0 7118            00118 22846  2 01-01629 +             CDS   R14,RVR,FILEDF      Add item to list
 002944 4770 A4EC            02936 22860  2 05-$BC   +             BC    7,$$$593S
 002948                            22863  2 06-LABEL +$$$593F      DS    0H
 002948 9300 712E      0012E       22867  2 2563.                  TS    FILEDTS
 00294C 4770 A526            02970 22868  2 2564.                  IF    Z,BEGIN
 DROP   @VMGET-72,R13              22879  3 2565.                    SIGNL FILEDECB,,FILEDASB,FILEDSYR Been waiting long?
 USING  @SIGNAL-72,R13
 002950 D713 D048 D048 00000 00000 22900  3          +
1FILEMAN  (FILEMA) (09:39) (22MAR04) ORVYL'S File Manager                                                                   Page  142
0Current Usings:  (PZERO,R0) (RQWB,R2) (FSB,R3) (AHFB,R4) (FDEL,R5) (IXR,R6) (FILECB,R7) (ATFB,R8) (M1ICONT,R10) (#ICONT-72,R12) (@SIGNAL-72,R13)
0Loc    Object Code    Addr1 Addr2  Stmt Lv Lineno    Source Statement           (Hibal 5, Asmedit 3.3)  HLASM R4.0  2004/03/22 09.39
+___    ______ ____    _____ _____  ____ __ ______    ______ _________
0002956 4100 7100            00100 22912  3          +
 00295A 5000 D050            00008 22917  3          +
 00295E D203 D054 7120 0000C 00120 22922  3          +
 002964 D203 D058 7124 00010 00124 22927  3          +
 00296A 58F0 AE3A/0DEF       03284 22930  3          +
 002970                            22932  2 2566.                  END   ,
 DROP   FDEL,R5                    22936  1 2567.                END   ,                   Erase option
 DROP   FILECB,R7
 DROP   ATFB,R8                    22950    2568.              END   ,                   With
 DROP   AHFB,R4
 002970 47F0 ABF4            0303E 22963    2569.              B     M1ICEX00            Exit
0002974                            22965    2571.     M1IC09   LABEL ,                   Assigning Account Level File Priv
 002974                            22967    2572.              IF    (RQICUSA,Z),BEGIN   User not specified
 002974 D603 2030 2030 00030 00030 22977             +
 00297A 4770 A570            029BA 22978             +
 DROP   @SIGNAL-72,R13             22983  1 2573.                PSET  @FCUINFO            Update owner permits
 USING  @FCUINFO-72,R13
 00297E D739 D048 D048 00000 00000 23003  1          +
 002984 5030 D048            00000 23004  1 2574.                PMOV  @FCUIFSB,LA:FSB
 002988                            23015  1 2575.                PMOV  @FCUINAM,RQNAMS
 002988 D227 D04C 207C 00004 0007C 23019  1          +
 00298E 58E0 2034            00034 23020  1 2576.                L     R14,RQICINF
 002992 42E0 D074            0002C 23021  1 2577.                STC   R14,@FCUINF
 002996 9620 D080      00038       23022  1 2578.                SET   @FCUIOWN
 00299A 58F0 AE3E/0DEF       03288 23028  1 2579.                VCALL FCATUINF            Set info
 0029A0 1200/4770 ABEC       03036 23032  1 2580.                IF    (RVR,NZ),M1ICERVR   Exit if error
 0029A6 58E0 2034            00034 23049  1 2581.                L     R14,RQICINF         Get permits
 0029AA 54E0 AE42            0328C 23050  1 2582.                N     R14,=A(FPALL)       Clear unnecessary
 0029AE 58F0 2018            00018 23051  1 2583.                L     R15,RQATFB
                                   23052  1 2584.     * Note: no locking necessary with STC
 0029B2 42E0 F00C            0000C 23053  1 2585.                WITH  (ATFB,R15),'STC R14,ATFBMASK' Set file mask
 USING  ATFB,R15
 DROP   ATFB,R15
0                                  23078  1 2587.     * Eventially do not maintain file mask in IXRSTATE    ***
                                   23079  1 2588.     * Removed in spring of 2002
                                   23080  1 2589.     *         IF    ~RQCNIXR,BEGIN      IXR file           ***
                                   23081  1 2590.     *         BAS   RS,M1ICXRES         Get reserve        ***
                                   23082  1 2591.     *         BAS   RS,M1ICGIXR         Get IXR            ***
                                   23083  1 2592.     *         L     R14,RQICINF         Get permits        ***
                                   23084  1 2593.     *         N     R14,=A(FPALL)       Clear unnecessary  ***
                                   23085  1 2594.     *         NI    IXRSTATE,255-FPALL  Clear permits      ***
                                   23086  1 2595.     *         LC    R15,IXRSTATE        Get flags          ***
                                   23087  1 2596.     *         OR    R15,R14             Set new permits    ***
                                   23088  1 2597.     *         STC   R15,IXRSTATE        Reset              ***
                                   23089  1 2598.     *         LA    R15,IXR             Set IXR            ***
                                   23090  1 2599.     *         BAS   RS,M1ICPIXR         Put IXR back       ***
                                   23091  1 2600.     *         END   ,                                      ***
                                   23092  1 2601.     * File mask maintained in IXRSTATE will be obsolete   ***
00029B6 47F0 ABF4            0303E 23094  1 2603.                B     M1ICEX00
 0029BA                            23095    2604.              END   ,                   User not specified
 0029BA A574           029BA 0297C 23099    2605.              ELSE  BEGIN               User is specified
1FILEMAN  (FILEMA) (09:39) (22MAR04) ORVYL'S File Manager                                                                   Page  143
0Current Usings:  (PZERO,R0) (RQWB,R2) (FSB,R3) (IXR,R6) (M1ICONT,R10) (#ICONT-72,R12) (@FCUINFO-72,R13)
0Loc    Object Code    Addr1 Addr2  Stmt Lv Lineno    Source Statement           (Hibal 5, Asmedit 3.3)  HLASM R4.0  2004/03/22 09.39
+___    ______ ____    _____ _____  ____ __ ______    ______ _________
00029BA 47F0 A5AE            029F8 23104             +
 DROP   @FCUINFO-72,R13            23110  1 2606.                PSET  @FCASACC
 USING  @FCASACC-72,R13
 0029BE D739 D048 D048 00000 00000 23130  1          +
 0029C4 5030 D048            00000 23131  1 2607.                PMOV  @FCASFSB,LA:FSB
 0029C8                            23142  1 2608.                PMOV  @FCASUSR,RQACCNA    User receiving privileges
 0029C8 D205 D04C 20A4 00004 000A4 23146  1          +
 0029CE                            23147  1 2609.                PMOV  @FCASUSE,RQFACC     User extending privileges
 0029CE D205 D052 2008 0000A 00008 23151  1          +
 0029D4                            23152  1 2610.                PMOV  @FCASNAM,RQNAMS     File name
 0029D4 D227 D058 207C 00010 0007C 23156  1          +
 0029DA 58E0 2034            00034 23157  1 2611.                L     R14,RQICINF
 0029DE 42E0 D080            00038 23158  1 2612.                STC   R14,@FCASPRI        Set permits
 0029E2 9140 2007      00007       23159  1 2613.                IF    RQAMAG,'SET @FCASFM' Set to magic account
 0029E6 47E0 A5A4            029EE 23169  1          +
 0029EA 9680 D081      00039       23180  1          +
 0029EE 58F0 AE46/0DEF       03290 23185  1 2614.                VCALL FCATASAC            Go do it
 0029F4 47F0 ABEC            03036 23189  1 2615.                B     M1ICERVR            Exit
 0029F8                            23190    2616.              END   ,                   User is specified
00029F8                            23195    2618.     M1IC10   LABEL ,                   Assigning PUBLIC File Privileges
 DROP   @FCASACC-72,R13            23197    2619.              PSET  @FCUINFO
 USING  @FCUINFO-72,R13
 0029F8 D739 D048 D048 00000 00000 23217             +
 0029FE 5030 D048            00000 23218    2620.              PMOV  @FCUIFSB,LA:FSB
 002A02                            23229    2621.              PMOV  @FCUINAM,RQNAMS
 002A02 D227 D04C 207C 00004 0007C 23233             +
 002A08 58E0 2034            00034 23234    2622.              L     R14,RQICINF
 002A0C 42E0 D074            0002C 23235    2623.              STC   R14,@FCUINF
 002A10 9610 D080      00038       23236    2624.              SET   @FCUIPUB
 002A14 58F0 AE3E/0DEF       03288 23242    2625.              VCALL FCATUINF            Set info
 002A1A 47F0 ABEC            03036 23246    2626.              B     M1ICERVR            Exit
0002A1E                            23248    2628.     M1IC11   LABEL ,                   Reading File Access Privileges
 DROP   @FCUINFO-72,R13            23250    2629.              PSET  @FCGPERM
 USING  @FCGPERM-72,R13
 002A1E D746 D048 D048 00000 00000 23270             +
 002A24 5030 D048            00000 23271    2630.              PMOV  @FCGPFSB,LA:FSB
 002A28                            23282    2631.              PMOV  @FCGPLOC,RQICLOC    Privilege buffer
 002A28 D203 D04C 2034 00004 00034 23286             +
 002A2E                            23287    2632.              PMOV  @FCGPLEN,RQICLEN    Buffer length
 002A2E D203 D050 2030 00008 00030 23291             +
 002A34                            23292    2633.              PMOV  @FCGPNAM,RQNAMS     File
 002A34 D227 D067 207C 0001F 0007C 23296             +
 002A3A 9680 D058      00010       23297    2634.              SET   @FCGPFF             File request
 002A3E 9180 2007      00007       23303    2635.              IF    (RQAOWN,OR,RQAMAG),'SET @FCGPFM' Set to magic account
 002A42 4710 A604            02A4E 23317             +
 002A46 9140 2007      00007       23326             +
 002A4A 47E0 A608            02A52 23327             +
 002A4E 9620 D058      00010       23338             +
 002A52 58F0 AE4A/0DEF       03294 23343    2636.              VCALL FCATGPRM            Go do it
 002A58 1200/4770 A62C       02A76 23347    2637.              IF    (RVR,Z),BEGIN
 002A5E D203 2040 D054 00040 0000C 23361  1 2638.                MVC   RQRPCNT,@FCGPCNT    Get count of users
 002A64 1FEE/43E0 D059       00011 23362  1 2639.                LC    R14,@FCGPPP         Get public privileges
1FILEMAN  (FILEMA) (09:39) (22MAR04) ORVYL'S File Manager                                                                   Page  144
0Current Usings:  (PZERO,R0) (RQWB,R2) (FSB,R3) (IXR,R6) (M1ICONT,R10) (#ICONT-72,R12) (@FCGPERM-72,R13)
0Loc    Object Code    Addr1 Addr2  Stmt Lv Lineno    Source Statement           (Hibal 5, Asmedit 3.3)  HLASM R4.0  2004/03/22 09.39
+___    ______ ____    _____ _____  ____ __ ______    ______ _________
0002A6A 89E0 0008            00008 23369  1 2640.                SLL   R14,8               Put into next byte
 002A6E 43E0 D05A            00012 23370  1 2641.                IC    R14,@FCGPMS         Get file mask
 002A72 50E0 204C            0004C 23371  1 2642.                ST    R14,RQRPRIV         Set return
 002A76                            23372    2643.              END   ,
 002A76 47F0 ABEC            03036 23376    2644.              B     M1ICERVR            Exit
0002A7A                            23378    2646.     M1IC12   LABEL ,                   Set share only mode
 DROP   @FCGPERM-72,R13            23380    2647.              PSET  @FCUINFO
 USING  @FCUINFO-72,R13
 002A7A D739 D048 D048 00000 00000 23400             +
 002A80 5030 D048            00000 23401    2648.              PMOV  @FCUIFSB,LA:FSB
 002A84                            23412    2649.              PMOV  @FCUINAM,RQNAMS
 002A84 D227 D04C 207C 00004 0007C 23416             +
 002A8A 9608 D080      00038       23417    2650.              SET   @FCUISHR            Set share info
 002A8E                            23423    2651.              IF    (RQICINF,NZ),'SET @FCUISHO' Set share on
 002A8E D603 2034 2034 00034 00034 23433             +
 002A94 4780 A652            02A9C 23434             +
 002A98 9604 D080      00038       23445             +
 002A9C 58F0 AE3E/0DEF       03288 23450    2652.              VCALL FCATUINF            Set info
 002AA2 47F0 ABEC            03036 23454    2653.              B     M1ICERVR            Exit
0002AA6                            23456    2655.     M1IC13   LABEL ,                   Sense share only mode
 DROP   @FCUINFO-72,R13            23458    2656.              PSET  @FCFINFO
 USING  @FCFINFO-72,R13
 002AA6 D740 D048 D048 00000 00000 23478             +
 002AAC 5030 D048            00000 23479    2657.              PMOV  @FCFFSB,LA:FSB
 002AB0                            23490    2658.              PMOV  @FCFNAM,RQNAMS
 002AB0 D227 D04C 207C 00004 0007C 23494             +
 002AB6 58F0 AE4E/0DEF       03298 23495    2659.              VCALL FCATFINF            Get file info
 AUSING (NTFLOC,@FCFINF)           23499    2660.              WITH  (NTFLOC,@FCFINF),BEGIN
 002ABC 9110 D07B      00011       23509  1 2661.                IF    NTFPSHR,M1ICEX12    Share only mode
 002AC0 4710 AC08            03052 23521  1          +
                                   23527    2662.              END   ,                   With
 002AC4 47F0 ABF4            0303E 23530    2663.              B     M1ICEX00            Exit
0002AC8                            23532    2665.     M1IC14   LABEL ,                   Set format field
 DROP   @FCFINFO-72,R13            23534    2666.              PSET  @FCUINFO
 USING  @FCUINFO-72,R13
 002AC8 D739 D048 D048 00000 00000 23554             +
 002ACE 5030 D048            00000 23555    2667.              PMOV  @FCUIFSB,LA:FSB
 002AD2                            23566    2668.              PMOV  @FCUINAM,RQNAMS
 002AD2 D227 D04C 207C 00004 0007C 23570             +
 002AD8                            23571    2669.              PMOV  @FCUINF,RQICINF
 002AD8 D203 D074 2034 0002C 00034 23575             +
 002ADE 9680 D080      00038       23576    2670.              SET   @FCUIUIN
 002AE2 9110 201E      0001E       23582    2671.              IF    RQFORM,'SET @FCUIFRM'
 002AE6 47E0 A6A4            02AEE 23592             +
 002AEA 9640 D080      00038       23603             +
 002AEE 58F0 AE3E/0DEF       03288 23608    2672.              VCALL FCATUINF            Set info
 002AF4 47F0 ABEC            03036 23612    2673.              B     M1ICERVR            Exit
0002AF8                            23614    2675.     M1IC15   LABEL ,                   Sense file format field
 DROP   @FCUINFO-72,R13            23616    2676.              PSET  @FCFINFO
 USING  @FCFINFO-72,R13
1FILEMAN  (FILEMA) (09:39) (22MAR04) ORVYL'S File Manager                                                                   Page  145
0Current Usings:  (PZERO,R0) (RQWB,R2) (FSB,R3) (IXR,R6) (M1ICONT,R10) (#ICONT-72,R12) (@FCFINFO-72,R13)
0Loc    Object Code    Addr1 Addr2  Stmt Lv Lineno    Source Statement           (Hibal 5, Asmedit 3.3)  HLASM R4.0  2004/03/22 09.39
+___    ______ ____    _____ _____  ____ __ ______    ______ _________
0002AF8 D740 D048 D048 00000 00000 23636             +
 002AFE 5030 D048            00000 23637    2677.              PMOV  @FCFFSB,LA:FSB
 002B02                            23648    2678.              PMOV  @FCFNAM,RQNAMS
 002B02 D227 D04C 207C 00004 0007C 23652             +
 002B08 58F0 AE4E/0DEF       03298 23653    2679.              VCALL FCATFINF            Get file info
 AUSING (NTFLOC,@FCFINF)           23657    2680.              WITH  (NTFLOC,@FCFINF),BEGIN
 002B0E D203 204C D085 0004C 0001B 23667  1 2681.                MVC   RQRFORM,NTFUINFO    Get format field
 002B14 9140 D07A      00010       23668  1 2682.                IF    ~NTFSFORM,M1ICEX12  Format option not set
 002B18 47E0 AC08            03052 23680  1          +
                                   23686    2683.              END   ,                   With
 002B1C 47F0 ABF4            0303E 23689    2684.              B     M1ICEX00            Exit
0002B20                            23691    2686.     M1IC16   LABEL ,                   Set file NOCLP condition
 DROP   @FCFINFO-72,R13            23693    2687.              PSET  @FCUINFO
 USING  @FCUINFO-72,R13
 002B20 D739 D048 D048 00000 00000 23713             +
 002B26 5030 D048            00000 23714    2688.              PMOV  @FCUIFSB,LA:FSB
 002B2A                            23725    2689.              PMOV  @FCUINAM,RQNAMS
 002B2A D227 D04C 207C 00004 0007C 23729             +
 002B30 9680 D081      00039       23730    2690.              SET   @FCUINCL            Set NOCLP info
 002B34                            23736    2691.              IF    (RQICINF,NZ),'SET @FCUINCO' Set NOCLP on
 002B34 D603 2034 2034 00034 00034 23746             +
 002B3A 4780 A6F8            02B42 23747             +
 002B3E 9640 D081      00039       23758             +
 002B42 58F0 AE3E/0DEF       03288 23763    2692.              VCALL FCATUINF            Set info
 002B48 47F0 ABEC            03036 23767    2693.              B     M1ICERVR            Exit
0002B4C                            23769    2695.     M1IC17   LABEL ,                   Sense file NOCLP condition
 DROP   @FCUINFO-72,R13            23771    2696.              PSET  @FCFINFO
 USING  @FCFINFO-72,R13
 002B4C D740 D048 D048 00000 00000 23791             +
 002B52 5030 D048            00000 23792    2697.              PMOV  @FCFFSB,LA:FSB
 002B56                            23803    2698.              PMOV  @FCFNAM,RQNAMS
 002B56 D227 D04C 207C 00004 0007C 23807             +
 002B5C 58F0 AE4E/0DEF       03298 23808    2699.              VCALL FCATFINF            Get file info
 AUSING (NTFLOC,@FCFINF)           23812    2700.              WITH  (NTFLOC,@FCFINF),BEGIN
 002B62 9120 D07A      00010       23822  1 2701.                IF    NTFNOCLP,M1ICEX12   NOCLP option set
 002B66 4710 AC08            03052 23834  1          +
                                   23840    2702.              END   ,                   With
 002B6A 47F0 ABF4            0303E 23843    2703.              B     M1ICEX00            NOCLP option not set
0002B6E                            23845    2705.     M1IC18   LABEL ,                   Set file CLP only condition
 DROP   @FCFINFO-72,R13            23847    2706.              PSET  @FCUINFO
 USING  @FCUINFO-72,R13
 002B6E D739 D048 D048 00000 00000 23867             +
 002B74 5030 D048            00000 23868    2707.              PMOV  @FCUIFSB,LA:FSB
 002B78                            23879    2708.              PMOV  @FCUINAM,RQNAMS
 002B78 D227 D04C 207C 00004 0007C 23883             +
 002B7E 9620 D081      00039       23884    2709.              SET   @FCUICLP            Set CLP info
 002B82                            23890    2710.              IF    (RQICINF,NZ),'SET @FCUICLO' Set CLP on
 002B82 D603 2034 2034 00034 00034 23900             +
 002B88 4780 A746            02B90 23901             +
 002B8C 9610 D081      00039       23912             +
 002B90 58F0 AE3E/0DEF       03288 23917    2711.              VCALL FCATUINF            Set info
1FILEMAN  (FILEMA) (09:39) (22MAR04) ORVYL'S File Manager                                                                   Page  146
0Current Usings:  (PZERO,R0) (RQWB,R2) (FSB,R3) (IXR,R6) (M1ICONT,R10) (#ICONT-72,R12) (@FCUINFO-72,R13)
0Loc    Object Code    Addr1 Addr2  Stmt Lv Lineno    Source Statement           (Hibal 5, Asmedit 3.3)  HLASM R4.0  2004/03/22 09.39
+___    ______ ____    _____ _____  ____ __ ______    ______ _________
0002B96 47F0 ABEC            03036 23921    2712.              B     M1ICERVR            Exit
0002B9A                            23923    2714.     M1IC19   LABEL ,                   Sense file CLP only condition
 DROP   @FCUINFO-72,R13            23925    2715.              PSET  @FCFINFO
 USING  @FCFINFO-72,R13
 002B9A D740 D048 D048 00000 00000 23945             +
 002BA0 5030 D048            00000 23946    2716.              PMOV  @FCFFSB,LA:FSB
 002BA4                            23957    2717.              PMOV  @FCFNAM,RQNAMS
 002BA4 D227 D04C 207C 00004 0007C 23961             +
 002BAA 58F0 AE4E/0DEF       03298 23962    2718.              VCALL FCATFINF            Get file info
 AUSING (NTFLOC,@FCFINF)           23966    2719.              WITH  (NTFLOC,@FCFINF),BEGIN
 002BB0 9180 D07A      00010       23976  1 2720.                IF    NTFCLP,M1ICEX12     CLP option set
 002BB4 4710 AC08            03052 23988  1          +
                                   23994    2721.              END   ,                   With
 002BB8 47F0 ABF4            0303E 23997    2722.              B     M1ICEX00            CLP option not set
0002BBC                            23999    2724.     M1IC21   LABEL ,                   Set spires only flag
 DROP   @FCFINFO-72,R13            24001    2725.              PSET  @FCUINFO
 USING  @FCUINFO-72,R13
 002BBC D739 D048 D048 00000 00000 24021             +
 002BC2 5030 D048            00000 24022    2726.              PMOV  @FCUIFSB,LA:FSB
 002BC6                            24033    2727.              PMOV  @FCUINAM,RQNAMS
 002BC6 D227 D04C 207C 00004 0007C 24037             +
 002BCC 9608 D081      00039       24038    2728.              SET   @FCUISPI            Set spires info
 002BD0                            24044    2729.              IF    (RQICINF,NZ),'SET @FCUISPO' Set spires on
 002BD0 D603 2034 2034 00034 00034 24054             +
 002BD6 4780 A794            02BDE 24055             +
 002BDA 9604 D081      00039       24066             +
 002BDE 58F0 AE3E/0DEF       03288 24071    2730.              VCALL FCATUINF            Set info
 002BE4 47F0 ABEC            03036 24075    2731.              B     M1ICERVR            Exit
0002BE8                            24077    2733.     M1IC22   LABEL ,                   Sense spires only flag
 DROP   @FCUINFO-72,R13            24079    2734.              PSET  @FCFINFO
 USING  @FCFINFO-72,R13
 002BE8 D740 D048 D048 00000 00000 24099             +
 002BEE 5030 D048            00000 24100    2735.              PMOV  @FCFFSB,LA:FSB
 002BF2                            24111    2736.              PMOV  @FCFNAM,RQNAMS
 002BF2 D227 D04C 207C 00004 0007C 24115             +
 002BF8 58F0 AE4E/0DEF       03298 24116    2737.              VCALL FCATFINF            Get file info
 AUSING (NTFLOC,@FCFINF)           24120    2738.              WITH  (NTFLOC,@FCFINF),BEGIN
 002BFE 9108 D07A      00010       24130  1 2739.                IF    NTFSPI,M1ICEX12     Spires only
 002C02 4710 AC08            03052 24142  1          +
                                   24148    2740.              END   ,
 002C06 47F0 ABF4            0303E 24151    2741.              B     M1ICEX00            Not spires only
0002C0A                            24153    2743.     M1IC25   LABEL ,                   Convert file to hybrid file
                                   24155    2744.     *
                                   24156    2745.     * Convert a file (IXR, non-IXR, or hybrid) into a hybrid file.
                                   24157    2746.     * Typically the new hybrid file would have a much larger capacity
                                   24158    2747.     * than the file being converted.
                                   24159    2748.     *
                                   24160    2749.     * Calculate number of IXRs needed for hybrid file
 002C0A 1B88                       24161    2750.              CLEAR RM
 002C0C 5890 2034            00034 24165    2751.              L     RN,RQICBLK          Get block count
1FILEMAN  (FILEMA) (09:39) (22MAR04) ORVYL'S File Manager                                                                   Page  147
0Current Usings:  (PZERO,R0) (RQWB,R2) (FSB,R3) (IXR,R6) (M1ICONT,R10) (#ICONT-72,R12) (@FCFINFO-72,R13)
0Loc    Object Code    Addr1 Addr2  Stmt Lv Lineno    Source Statement           (Hibal 5, Asmedit 3.3)  HLASM R4.0  2004/03/22 09.39
+___    ______ ____    _____ _____  ____ __ ______    ______ _________
0002C10 4190 9293            00293 24166    2752.              LA    RN,@RN+IXRNT#-1     Rount up
 002C14 5D80 AE16            03260 24167    2753.              D     RM,=A(IXRNT#)       Calc IXRs needed
 002C18 5090 C05C            00014 24168    2754.              ST    RN,#ICONCNT         Save IXR count
0002C1C 4D10 AC2E            03078 24170    2756.              BAS   RS,M1ICSRES         Get reserve
                                   24171    2757.     * Make sure the existing file would not be truncated by the request by
                                   24172    2758.     * determining the number of IXRs needed to hold the current data and
                                   24173    2759.     * comparing to the number of IXRs needed for the file size requested.
 002C20 9110 2005      00005       24174    2760.              IF    (RQCNIXR,AND,~RQCHYBR),BEGIN Non-IXR file
 002C24 47E0 A7F6            02C40 24186             +
 002C28 9104 2005      00005       24197             +
 002C2C 4710 A7F6            02C40 24198             +
 002C30 1B44                       24203  1 2761.                CLEAR RJ
 002C32 5850 2060            00060 24207  1 2762.                L     RK,RQBLKC           Get current block count
 002C36 1B44                       24208  1 2763.                CLEAR RJ
 002C38 4150 5293            00293 24212  1 2764.                LA    RK,@RK+IXRNT#-1     Rount up
 002C3C 5D40 AE16            03260 24213  1 2765.                D     RJ,=A(IXRNT#)       Calc IXRs needed
 002C40                            24214    2766.              END   ,                   Non-IXR file
 002C40 A7FA           02C40 02C26 24218    2767.              ELSE  BEGIN               IXR file
 002C2E A7FA           02C30 02C40 24223             +
 002C40 47F0 A826            02C70 24225             +
 002C44 4D10 AC78            030C2 24231  1 2768.                BAS   RS,M1ICGIXR         Get first IXR
 002C48 9120 6000      00000       24232  1 2769.                IF    IXRZIXR,BEGIN       Hybrid file
 002C4C 47E0 A80A            02C54 24242  1          +
 002C50 5850 2060            00060 24247  2 2770.                  L     RK,RQBLKC           Get current IXR count
 002C54                            24248  1 2771.                END   ,                   Hybrid file
 002C54 A80E           02C54 02C4E 24252  1 2772.                ELSEIF IXRSIXR,BEGIN      Super IXR
 002C54 47F0 A81E            02C68 24258  1          +
 002C58 9140 6000      00000       24270  1          +
 002C5C 47E0 A81E            02C68 24271  1          +
 002C60 4850 67FE            007FE 24276  2 2773.                  LH    RK,IXRHIXR          Highest IXR number (relative to 0)
 002C64 5E50 AE2A            03274 24277  2 2774.                  INCR  RK                  Calc count of IXR
 002C68                            24280  1 2775.                END   ,                   Super IXR
 002C68 A822           02C68 02C5E 24284  1 2776.                ELSE  BEGIN
 002C68 47F0 A826            02C70 24289  1          +
 002C6C 4150 0001            00001 24295  2 2777.                  LA    RK,1                Only one IXR
 002C70                            24296  1 2778.                END   ,
 002C70                            24300    2779.              END   ,                   IXR file
 002C70 5950 C05C            00014 24304    2780.              IF    (RK,GT,#ICONCNT),M1ICEX12 Can't truncate the file
 002C74 4720 AC08            03052 24318             +
0                                  24325    2782.     * Get enough contiguous blocks for the hybrid IXR array
 002C78 5800 C05C            00014 24326    2783.              L     RVR,#ICONCNT        Get hybrid IXR count
 DROP   @FCFINFO-72,R13            24327    2784.              PSET  @FMFSB
 USING  @FMFSB-72,R13
 002C7C D704 D048 D048 00000 00000 24347             +
 002C82 5030 D048            00000 24348    2785.              PMOV  @FMFSBP,LA:FSB
 002C86 58F0 AE52/0DEF       0329C 24359    2786.              VCALL FBITGCON            Get this many contiguous
 002C8C 1200/4780 AC1C       03066 24363    2787.              IF    (RVR,Z),M1ICEX20    Can't do
 002C92 5000 C058            00010 24380    2788.              ST    RVR,#ICONBLK        Save first block
0                                  24382    2790.     * Adjust the number of blocks in use for the account
 002C96 1B11                       24383    2791.              CLEAR RS                  No existing IXRs for non-IXRd
 002C98 9110 2005      00005       24387    2792.              IF    (~RQCNIXR,OR,RQCHYBR),BEGIN Not non-IXR
1FILEMAN  (FILEMA) (09:39) (22MAR04) ORVYL'S File Manager                                                                   Page  148
0Current Usings:  (PZERO,R0) (RQWB,R2) (FSB,R3) (IXR,R6) (M1ICONT,R10) (#ICONT-72,R12) (@FMFSB-72,R13)
0Loc    Object Code    Addr1 Addr2  Stmt Lv Lineno    Source Statement           (Hibal 5, Asmedit 3.3)  HLASM R4.0  2004/03/22 09.39
+___    ______ ____    _____ _____  ____ __ ______    ______ _________
0002C9C 47E0 A85E            02CA8 24401             +
 002CA0 9104 2005      00005       24410             +
 002CA4 47E0 A866            02CB0 24411             +
 002CA8 5810 6034            00034 24416  1 2793.                L     RS,IXRRRCS          Get total records in file
 002CAC 5B10 6030            00030 24417  1 2794.                S     RS,IXRNRCS          Calc number of IXRs
 002CB0                            24418    2795.              END   ,                   Not non-IXR
 002CB0 5800 C05C            00014 24422    2796.              L     RVR,#ICONCNT        Get hybrid IXR count
 002CB4 1901                       24423    2797.              CR    RVR,RS              Compare to number of hybrid IXRs
 002CB6 4780 A8D2            02D1C 24424    2798.              IF    NE,BEGIN            Must adjust blocks in use
 002CBA 47D0 A8B2            02CFC 24435  1 2799.                IF    GT,BEGIN            Get some more
 002CBE 1B01                       24446  2 2800.                  SR    RVR,RS              Calc delta
 DROP   @FMFSB-72,R13              24447  2 2801.                  PSET  @FCACMOD
 USING  @FCACMOD-72,R13
 002CC0 D70D D048 D048 00000 00000 24467  2          +
 002CC6 5030 D048            00000 24468  2 2802.                  PMOV  @FCACFSB,LA:FSB
 002CCA                            24479  2 2803.                  PMOV  @FCACCNT,RQNACC
 002CCA D205 D050 207C 00008 0007C 24483  2          +
 002CD0 5000 D04C            00004 24484  2 2804.                  PMOV  @FCACSPA,(RVR)      Space needed
 002CD4 58F0 AE56/0DEF       032A0 24494  2 2805.                  VCALL FCATGSPA            Update catalog space
 002CDA 1200/4780 A8B2       02CFC 24498  2 2806.                  IF    (RVR,NZ),BEGIN      Can't do it
 002CE0 5810 C058            00010 24512  3 2807.                    L     RS,#ICONBLK         Get fist block
 002CE4 5800 C05C            00014 24513  3 2808.                    L     RVR,#ICONCNT        Get count
 DROP   @FCACMOD-72,R13            24514  3 2809.                    PSET  @FMFSB              Release bit numbers
 USING  @FMFSB-72,R13
 002CE8 D704 D048 D048 00000 00000 24534  3          +
 002CEE 5030 D048            00000 24535  3 2810.                    PMOV  @FMFSBP,LA:FSB
 002CF2 58F0 AE5A/0DEF       032A4 24546  3 2811.                    VCALL FBITRCON            Release back to the system
 002CF8 47F0 AC12            0305C 24550  3 2812.                    B     M1ICEX16
 002CFC                            24551  2 2813.                  END   ,                   Not enough space
 002CFC                            24555  1 2814.                END   ,                   Get some more
 002CFC A8B6           02CFC 02CBC 24559  1 2815.                ELSE  BEGIN               Put some back
 002CFC 47F0 A8D2            02D1C 24564  1          +
 002D00 1B10                       24570  2 2816.                  SR    RS,RVR              Calc delta
 DROP   @FMFSB-72,R13              24571  2 2817.                  PSET  @FCACMOD
 USING  @FCACMOD-72,R13
 002D02 D70D D048 D048 00000 00000 24591  2          +
 002D08 5030 D048            00000 24592  2 2818.                  PMOV  @FCACFSB,LA:FSB
 002D0C                            24603  2 2819.                  PMOV  @FCACCNT,RQNACC
 002D0C D205 D050 207C 00008 0007C 24607  2          +
 002D12 5010 D04C            00004 24608  2 2820.                  PMOV  @FCACSPA,(RS)       Space released
 002D16 58F0 AE12/0DEF       0325C 24618  2 2821.                  VCALL FCATPSPA            Update catalog space
 002D1C                            24622  1 2822.                END   ,                   Put some back
 002D1C                            24626    2823.              END   ,                   Must adjust blocks in use
0                                  24631    2825.     * Initialize the hybrid IXR array
 DROP   @FCACMOD-72,R13            24632    2826.              PSET  @FMIXRAD
 USING  @FMIXRAD-72,R13
 002D1C D737 D048 D048 00000 00000 24652             +
 002D22 5030 D048            00000 24653    2827.              PMOV  @FMIXFSB,LA:FSB
 002D26 D227 D04C 207C 00004 0007C 24664    2828.              MVC   @FMIXNAM,RQNAMS
 002D2C D203 D074 C058 0002C 00010 24665    2829.              MVC   @FMIXBLK,#ICONBLK   Set first block number
 002D32 D203 D078 C05C 00030 00014 24666    2830.              MVC   @FMIXCNT,#ICONCNT   Set count of blocks to init
 002D38 58F0 AE5E/0DEF       032A8 24667    2831.              VCALL FMHYINIT            Initialize hybrid file
1FILEMAN  (FILEMA) (09:39) (22MAR04) ORVYL'S File Manager                                                                   Page  149
0Current Usings:  (PZERO,R0) (RQWB,R2) (FSB,R3) (IXR,R6) (M1ICONT,R10) (#ICONT-72,R12) (@FMIXRAD-72,R13)
0Loc    Object Code    Addr1 Addr2  Stmt Lv Lineno    Source Statement           (Hibal 5, Asmedit 3.3)  HLASM R4.0  2004/03/22 09.39
+___    ______ ____    _____ _____  ____ __ ______    ______ _________
0                                  24672    2833.     * Get the first hybrid IXR
 002D3E 58E0 C058            00010 24673    2834.              L     R14,#ICONBLK        First hybrid IXR
 002D42 1BFF                       24674    2835.              CLEAR R15                 New buffer
 002D44 4D10 AC98            030E2 24678    2836.              BAS   RS,M1ICGIX2         Get IXR
 002D48 184F                       24679    2837.              LR    RJ,R15              Set address
 002D4A 50F0 C050            00008 24680    2838.              ST    R15,#ICONBU3        Save buffer address
0002D4E 9110 2005      00005       24682    2840.              IF    (RQCNIXR,AND,~RQCHYBR),BEGIN Non-IXR files
 002D52 47E0 A918            02D62 24694             +
 002D56 9104 2005      00005       24705             +
 002D5A 4710 A918            02D62 24706             +
 002D5E 58E0 2060            00060 24711  1 2841.                L     R14,RQBLKC          Get current block count
 002D62                            24712    2842.              END   ,                   Non-IXR files
 002D62 A91C           02D62 02D54 24716    2843.              ELSE  BEGIN               IXR or hybrid file
 002D5C A91C           02D5E 02D62 24721             +
 002D62 47F0 A920            02D6A 24723             +
 002D66 58E0 6030            00030 24729  1 2844.                L     R14,IXRNRCS         Get number of user records
 002D6A                            24730    2845.              END   ,                   IXR or hybrid file
 002D6A 50E0 4030            00030 24734    2846.              ST    R14,F.IXRNRCS       Set
 002D6E 5AE0 4034            00034 24735    2847.              A     R14,F.IXRRRCS       Calc total number of records
 002D72 50E0 4034            00034 24736    2848.              ST    R14,F.IXRRRCS       Set
0                                  24738    2850.     * Rereference user blocks from new hybrid file
 002D76 9104 2005      00005       24739    2851.              IF    RQCHYBR,BEGIN       Hybrid to hybrid
 002D7A 47E0 A9B4            02DFE 24749             +
 002D7E D202 6001 4001 00001 00001 24754  1 2852.                MVC   IXRECNO,F.IXRECNO   Set new record number
 002D84 D203 6034 4034 00034 00034 24755  1 2853.                MVC   IXRRRCS,F.IXRRRCS   Set total number of records
 002D8A 41F0 6000            00000 24756  1 2854.                LA    R15,IXR             Set buffer
 002D8E 4D10 ACB6            03100 24757  1 2855.                BAS   RS,M1ICPIXR         File the first one
 002D92                            24758  1 2856.                IF    (IXRNRCS,NZ),BEGIN  Some user records
 002D92 D603 6030 6030 00030 00030 24768  1          +
 002D98 4780 A9B4            02DFE 24769  1          +
 002D9C 1FFF/BFF7 6041       00041 24774  2 2857.                  L3    R15,IXRHIRF
 002DA2 59F0 AE16            03260 24780  2 2858.                  IF    (R15,GE,=A(IXRNT#)),BEGIN Not all in first
 002DA6 4750 A9B4            02DFE 24791  2          +
 002DAA 1FFF/BFF7 603E       0003E 24796  3 2859.                    L3    R15,IXRLWRF         Get low record
 002DB0 59F0 AE16            03260 24802  3 2860.                    IF    (R15,LT,=A(IXRNT#)),BEGIN In first
 002DB4 47B0 A972            02DBC 24813  3          +
 002DB8 41F0 0001            00001 24818  4 2861.                      LA    R15,1               Start with second
 002DBC                            24819  3 2862.                    END   ,
 002DBC A976           02DBC 02DB6 24823  3 2863.                    ELSE  BEGIN               Calc
 002DBC 47F0 A97C            02DC6 24828  3          +
 002DC0 1BEE                       24834  4 2864.                      CLEAR R14
 002DC2 5DE0 AE16            03260 24838  4 2865.                      D     R14,=A(IXRNT#)      Calc start IXR index
 002DC6                            24839  3 2866.                    END   ,                   Calc
 002DC6 1F99/BF97 6041       00041 24843  3 2867.                    L3    RN,IXRHIRF          Get high record
 002DCC 1B88                       24849  3 2868.                    CLEAR RM
 002DCE 5D80 AE16            03260 24853  3 2869.                    D     RM,=A(IXRNT#)       Calc end IXR index
 002DD2 5E90 AE2A            03274 24854  3 2870.                    INCR  RN
 002DD6 1B9F                       24857  3 2871.                    SR    RN,R15              Calc count of IXRs
 002DD8 188F                       24858  3 2872.                    LR    RM,R15              Get start IXR index
 002DDA                            24859  3 2873.                    LOOP  BEGIN               Get and file IXRs in new place
 002DDA 18E8                       24865  4 2874.                      LR    R14,RM
 002DDC 5AE0 205C            0005C 24866  4 2875.                      A     R14,RQFBLK          Calc IXR number
1FILEMAN  (FILEMA) (09:39) (22MAR04) ORVYL'S File Manager                                                                   Page  150
0Current Usings:  (PZERO,R0) (RQWB,R2) (FSB,R3) (IXR,R6) (M1ICONT,R10) (#ICONT-72,R12) (@FMIXRAD-72,R13)
0Loc    Object Code    Addr1 Addr2  Stmt Lv Lineno    Source Statement           (Hibal 5, Asmedit 3.3)  HLASM R4.0  2004/03/22 09.39
+___    ______ ____    _____ _____  ____ __ ______    ______ _________
0002DE0 41F0 6000            00000 24867  4 2876.                      LA    R15,IXR             Use this buffer
 002DE4 4D10 AC98            030E2 24868  4 2877.                      BAS   RS,M1ICGIX2         Get IXR
 002DE8 18E8                       24869  4 2878.                      LR    R14,RM
 002DEA 5AE0 C058            00010 24870  4 2879.                      A     R14,#ICONBLK        Calc new IXR number
 002DEE BEE7 6001            00001 24871  4 2880.                      ST3   R14,IXRECNO         Set
 002DF2 4D10 ACB6            03100 24873  4 2881.                      BAS   RS,M1ICPIXR         File in new place
 002DF6 5E80 AE2A            03274 24874  4 2882.                      INCR  RM                  Increment IXR index
 002DFA 4690 A990            02DDA 24877  3 2883.                    UNTIL (BCT,RN),END        Get and file IXRs in new place
 002DFE                            24887  2 2884.                  END   ,                   Not all in first
 002DFE                            24891  1 2885.                END   ,                   Some user records
 002DFE                            24895    2886.              END   ,                   Hybrid to hybrid
 002DFE A9B8           02DFE 02D7C 24899    2887.              ELSEIF RQCNIXR,BEGIN      Non-IXR to hybrid
 002DFE 47F0 AA2E            02E78 24905             +
 002E02 9110 2005      00005       24917             +
 002E06 47E0 AA2E            02E78 24918             +
 002E0A 58E0 2060            00060 24923  1 2888.                L     R14,RQBLKC          Count of user blocks
 002E0E 06E0                       24924  1 2889.                DECR  R14
 002E10 BEE7 4041            00041 24926  1 2890.                ST3   R14,F.IXRHIRF       Set high block number
 002E14 5870 205C            0005C 24928  1 2891.                L     RY,RQFBLK           Get first block number
 002E18 5890 2060            00060 24929  1 2892.                L     RN,RQBLKC           Count of blocks
 002E1C 1B88                       24930  1 2893.                CLEAR RM                  IXR index
 002E1E                            24934  1 2894.                LOOP  BEGIN
 002E1E 1288/4780 A9E8       02E32 24940  2 2895.                  IF    (RM,NZ),BEGIN       Already have first hybrid IXR
 002E24 18E8                       24954  3 2896.                    LR    R14,RM
 002E26 5AE0 C058            00010 24955  3 2897.                    A     R14,#ICONBLK        Calc IXR number
 002E2A 41F0 4000            00000 24956  3 2898.                    LA    R15,F.IXR           Use this buffer
 002E2E 4D10 AC98            030E2 24957  3 2899.                    BAS   RS,M1ICGIX2         Get hybrid IXR
 002E32                            24958  2 2900.                  END   ,                   Already have first hybrid IXR
 002E32 4160 4000            00000 24962  2 2901.                  LA    RX,F.IXR            Set IXR base
 002E36 5990 AE16            03260 24963  2 2902.                  IF    (RN,GT,=A(IXRNT#)),BEGIN
 002E3A 47D0 A9FC            02E46 24974  2          +
 002E3E 5B90 AE16            03260 24979  3 2903.                    S     RN,=A(IXRNT#)       Decrement count left
 002E42 5850 AE16            03260 24980  3 2904.                    L     RK,=A(IXRNT#)       Set loop count
 002E46                            24981  2 2905.                  END   ,
 002E46 AA00           02E46 02E3C 24985  2 2906.                  ELSE  BEGIN
 002E46 47F0 AA04            02E4E 24990  2          +
 002E4A 1859                       24996  3 2907.                    LR    RK,RN               Set loop count
 002E4C 1B99                       24997  3 2908.                    CLEAR RN                  None left
 002E4E                            25001  2 2909.                  END   ,
 002E4E 18F5                       25005  2 2910.                  LR    R15,RK              Get block count
 002E50 06F0                       25006  2 2911.                  DECR  R15                 Calc last block in IXR
 002E52 BEF7 603B            0003B 25008  2 2912.                  ST3   R15,IXRHIRC         Set
 002E56                            25010  2 2913.                  LOOP  BEGIN
 002E56 BE77 6044            00044 25016  3 2914.                    ST3   RY,IXRNT            Set block number
 002E5A 4160 6003            00003 25018  3 2915.                    LA    RX,IXR+L'IXRNT      Increment IXR pointer
 002E5E 5E70 AE2A            03274 25019  3 2916.                    INCR  RY                  Increment block number
 002E62 4650 AA0C            02E56 25022  2 2917.                  UNTIL (BCT,RK),END
 002E66 41F0 4000            00000 25032  2 2918.                  LA    R15,F.IXR           Point to hybrid IXR
 002E6A 4D10 ACB6            03100 25033  2 2919.                  BAS   RS,M1ICPIXR         File it away
 002E6E 5E80 AE2A            03274 25034  2 2920.                  INCR  RM
 002E72 1299/4770 A9D4       02E1E 25037  1 2921.                UNTIL (RN,Z),END
 002E78                            25059    2922.              END   ,                   Non-IXR to hybrid
 002E78 AA32           02E78 02E08 25063    2923.              ELSE  BEGIN               IXR to hybrid
 002E78 47F0 AB3E            02F88 25068             +
1FILEMAN  (FILEMA) (09:39) (22MAR04) ORVYL'S File Manager                                                                   Page  151
0Current Usings:  (PZERO,R0) (RQWB,R2) (FSB,R3) (IXR,R6) (M1ICONT,R10) (#ICONT-72,R12) (@FMIXRAD-72,R13)
0Loc    Object Code    Addr1 Addr2  Stmt Lv Lineno    Source Statement           (Hibal 5, Asmedit 3.3)  HLASM R4.0  2004/03/22 09.39
+___    ______ ____    _____ _____  ____ __ ______    ______ _________
0002E7C                            25074  1 2924.                IF    (IXRNRCS,NZ),BEGIN  Some user records
 002E7C D603 6030 6030 00030 00030 25084  1          +
 002E82 4780 AB36            02F80 25085  1          +
 002E86 9140 6000      00000       25090  2 2925.                  IF    IXRSIXR,BEGIN       Super IXR
 002E8A 47E0 AB06            02F50 25100  2          +
 002E8E 1876                       25105  3 2926.                    LR    RY,RX               Set SIXR pointer
 002E90 1B66                       25106  3 2927.                    CLEAR RX                  Clear IXR pointer
 002E92 1B88                       25110  3 2928.                    CLEAR RM                  Hybrid IXR index
 002E94 4190 0292            00292 25114  3 2929.                    LA    RN,IXRIXNT#         Number of SIXR entries
 002E98 1B55                       25115  3 2930.                    CLEAR RK                  Init hybrid IXR pointer
 002E9A                            25119  3 2931.                    LOOP  BEGIN               Copy data to hybrid file
 002E9A 1FEE/BFE7 7044       00044 25125  4 2932.                      L3    R14,S.IXRNT         Get IXR pointer
 002EA0 12EE/4780 AAE2       02F2C 25131  4 2933.                      IF    (R14,NZ),BEGIN      IXR exists
 002EA6 41F0 6000            00000 25145  5 2934.                        LA    R15,IXR             Reuse this buffer
 002EAA 4D10 AC98            030E2 25146  5 2935.                        BAS   RS,M1ICGIX2         Get IXR
 002EAE 186F                       25147  5 2936.                        LR    RX,R15              Get IXR pointer
 002EB0 50F0 C04C            00004 25148  5 2937.                        ST    R15,#ICONBU2        Save pointer
 002EB4 1288/4770 AA72       02EBC 25149  5 2938.                        IF    (RM,Z),BEGIN        First hybrid IXR
 002EBA 1854                       25163  6 2939.                          LR    RK,RJ               Set this temporarily
 002EBC                            25164  5 2940.                        END   ,
 002EBC AA76           02EBC 02EB8 25168  5 2941.                        ELSE  BEGIN               Get hybrid IXR
 002EBC 47F0 AA8A            02ED4 25173  5          +
 002EC0 18E8                       25179  6 2942.                          LR    R14,RM
 002EC2 5AE0 C058            00010 25180  6 2943.                          A     R14,#ICONBLK        Calc IXR number
 002EC6 41F0 5000            00000 25181  6 2944.                          LA    R15,H.IXR           Use this buffer
 002ECA 4D10 AC98            030E2 25182  6 2945.                          BAS   RS,M1ICGIX2         Get hybrid IXR
 002ECE 185F                       25183  6 2946.                          LR    RK,R15              Set pointer
 002ED0 50F0 C054            0000C 25184  6 2947.                          ST    R15,#ICONBU4        Save pointer
 002ED4                            25185  5 2948.                        END   ,                   Get hybrid IXR
 002ED4 D202 4038 6038 00038 00038 25189  5 2949.                        MVC   F.IXRLWRC,IXRLWRC   Set low record number
 002EDA D202 4038 603B 00038 0003B 25190  5 2950.                        MVC   F.IXRLWRC,IXRHIRC   Set high record number
 002EE0 41E0 6044            00044 25191  5 2951.                        LA    R14,IXRNT           Block number area
 002EE4 41F0 07BC            007BC 25192  5 2952.                        LA    R15,IXRNT#*L'IXRNT  Length
 002EE8 4100 5044            00044 25193  5 2953.                        LA    RVR,H.IXRNT         Point to destination
 002EEC 181F                       25194  5 2954.                        LR    RS,R15              Length
 002EEE 0E0E                       25195  5 2955.                        MVCL  RVR,R14             Move user blocks
 002EF0 9180 C060      00018       25196  5 2956.                        IF    ~#ICONSET,BEGIN     This not set yet
 002EF4 4710 AACE            02F18 25206  5          +
 002EF8 9680 C060      00018       25211  6 2957.                          SET   #ICONSET            Don't do it again
 002EFC 18F7                       25217  6 2958.                          LR    R15,RY              Save
 002EFE 5870 C048            00000 25218  6 2959.                          L     RY,#ICONBU1         Reset base
 002F02 48E0 77FC            007FC 25219  6 2960.                          LH    R14,S.IXRLWXR       Get low IXR number
 002F06 187F                       25220  6 2961.                          LR    RY,R15              Restore base
 002F08 4CE0 AE84            032CE 25221  6 2962.                          MH    R14,=Y(IXRNT#)      Calc block number
 002F0C 1FFF/BFF7 6038       00038 25222  6 2963.                          L3    R15,IXRLWRC         Get first block number in IXR
 002F12 1AEF                       25228  6 2964.                          AR    R14,R15             Calc first block in file
 002F14 BEE7 403E            0003E 25229  6 2965.                          ST3   R14,F.IXRLWRF       Save
 002F18                            25231  5 2966.                        END   ,                   This not set yet
 002F18 1288/4770 AAD6       02F20 25235  5 2967.                        IF    (RM,Z),BEGIN        First hybrid IXR
 002F1E 1B55                       25249  6 2968.                          CLEAR RK                  Clear temporary pointer
 002F20                            25253  5 2969.                        END   ,
 002F20 AADA           02F20 02F1C 25257  5 2970.                        ELSE  BEGIN
 002F20 47F0 AAE2            02F2C 25262  5          +
 002F24 41F0 5000            00000 25268  6 2971.                          LA    R15,H.IXR           Point to hybrid IXR
1FILEMAN  (FILEMA) (09:39) (22MAR04) ORVYL'S File Manager                                                                   Page  152
0Current Usings:  (PZERO,R0) (RQWB,R2) (FSB,R3) (IXR,R6) (M1ICONT,R10) (#ICONT-72,R12) (@FMIXRAD-72,R13)
0Loc    Object Code    Addr1 Addr2  Stmt Lv Lineno    Source Statement           (Hibal 5, Asmedit 3.3)  HLASM R4.0  2004/03/22 09.39
+___    ______ ____    _____ _____  ____ __ ______    ______ _________
0002F28 4D10 ACB6            03100 25269  6 2972.                          BAS   RS,M1ICPIXR         File it away
 002F2C                            25270  5 2973.                        END   ,
 002F2C                            25274  4 2974.                      END   ,                   IXR exists
 002F2C 4170 7003            00003 25278  4 2975.                      LA    RY,S.IXR+L'IXRNT    Point to next IXR
 002F30 5E80 AE2A            03274 25279  4 2976.                      INCR  RM                  Increment hybrid IXR index
 002F34 4690 AA50            02E9A 25282  3 2977.                    UNTIL (BCT,RN),END        Copy data to hybrid file
 002F38 5870 C048            00000 25292  3 2978.                    L     RY,#ICONBU1         Reset base
 002F3C 48E0 77FE            007FE 25293  3 2979.                    LH    R14,S.IXRHIXR       Get high IXR number
 002F40 4CE0 AE84            032CE 25294  3 2980.                    MH    R14,=Y(IXRNT#)      Calc block number
 002F44 1FFF/BFF7 603B       0003B 25295  3 2981.                    L3    R15,IXRHIRC         Get last block number in IXR
 002F4A 1AEF                       25301  3 2982.                    AR    R14,R15             Calc last block in file
 002F4C BEE7 4041            00041 25302  3 2983.                    ST3   R14,F.IXRHIRF       Save
 002F50                            25304  2 2984.                  END   ,                   Super IXR
 002F50 AB0A           02F50 02E8C 25308  2 2985.                  ELSE  BEGIN               Master IXR record
 002F50 47F0 AB36            02F80 25313  2          +
 002F54 1FEE/BFE7 6038       00038 25319  3 2986.                    L3    R14,IXRLWRC         Get low record number
 002F5A BEE7 4038            00038 25325  3 2987.                    ST3   R14,F.IXRLWRC       Set hybrid field
 002F5E BEE7 403E            0003E 25327  3 2988.                    ST3   R14,F.IXRLWRF       Set hybrid field
 002F62 1FEE/BFE7 603B       0003B 25329  3 2989.                    L3    R14,IXRHIRC         Get low record number
 002F68 BEE7 4038            00038 25335  3 2990.                    ST3   R14,F.IXRLWRC       Set hybrid field
 002F6C BEE7 4041            00041 25337  3 2991.                    ST3   R14,F.IXRHIRF       Set hybrid field
 002F70 41E0 6044            00044 25339  3 2992.                    LA    R14,IXRNT           Block number area
 002F74 41F0 07BC            007BC 25340  3 2993.                    LA    R15,IXRNT#*L'IXRNT  Length
 002F78 4100 4044            00044 25341  3 2994.                    LA    RVR,F.IXRNT         Point to destination
 002F7C 181F                       25342  3 2995.                    LR    RS,R15              Length
 002F7E 0E0E                       25343  3 2996.                    MVCL  RVR,R14             Move user blocks
 002F80                            25344  2 2997.                  END   ,                   Master IXR record
 002F80                            25348  1 2998.                END   ,                   Some user records
 002F80 41F0 4000            00000 25352  1 2999.                LA    R15,F.IXR           Point to First IXR
 002F84 4D10 ACB6            03100 25353  1 3000.                BAS   RS,M1ICPIXR         File the first one
 002F88                            25354    3001.              END   ,                   IXR to hybrid
0                                  25359    3003.     * Convert catalog entry to hybrid file
 DROP   @FMIXRAD-72,R13            25360    3004.              PSET  @FCUINFO            Convert to hybrid
 USING  @FCUINFO-72,R13
 002F88 D739 D048 D048 00000 00000 25380             +
 002F8E 5030 D048            00000 25381    3005.              PMOV  @FCUIFSB,LA:FSB
 002F92                            25392    3006.              PMOV  @FCUINAM,RQNAMS
 002F92 D227 D04C 207C 00004 0007C 25396             +
 002F98                            25397    3007.              PMOV  @FCUIBLK,#ICONBLK   Get first block number
 002F98 D203 D078 C058 00030 00010 25401             +
 002F9E                            25402    3008.              PMOV  @FCUICNT,#ICONCNT   Get block count
 002F9E D203 D07C C05C 00034 00014 25406             +
 002FA4 9602 D081      00039       25407    3009.              SET   @FCUIHYB            Convert to hybrid
 002FA8 58F0 AE3E/0DEF       03288 25413    3010.              VCALL FCATUINF            Set info
0                                  25418    3012.     * Release the IXR file IXRs back to the file system
 002FAE 9104 2005      00005       25419    3013.              IF    RQCHYBR,BEGIN       Hybrid file
 002FB2 47E0 AB84            02FCE 25429             +
 002FB6 5810 205C            0005C 25434  1 3014.                L     RS,RQFBLK           Old first block
 002FBA 5800 2060            00060 25435  1 3015.                L     RVR,RQBLKC          Old count of IXRs
 DROP   @FCUINFO-72,R13            25436  1 3016.                PSET  @FMFSB              Release bit numbers
 USING  @FMFSB-72,R13
 002FBE D704 D048 D048 00000 00000 25456  1          +
1FILEMAN  (FILEMA) (09:39) (22MAR04) ORVYL'S File Manager                                                                   Page  153
0Current Usings:  (PZERO,R0) (RQWB,R2) (FSB,R3) (IXR,R6) (M1ICONT,R10) (#ICONT-72,R12) (@FMFSB-72,R13)
0Loc    Object Code    Addr1 Addr2  Stmt Lv Lineno    Source Statement           (Hibal 5, Asmedit 3.3)  HLASM R4.0  2004/03/22 09.39
+___    ______ ____    _____ _____  ____ __ ______    ______ _________
0002FC4 5030 D048            00000 25457  1 3017.                PMOV  @FMFSBP,LA:FSB
 002FC8 58F0 AE5A/0DEF       032A4 25468  1 3018.                VCALL FBITRCON            Release back to the system
 002FCE                            25472    3019.              END   ,                   Hybrid file
 002FCE AB88           02FCE 02FB4 25476    3020.              ELSEIF ~RQCNIXR,BEGIN     IXR file
 002FCE 47F0 ABD0            0301A 25482             +
 002FD2 9110 2005      00005       25494             +
 002FD6 4710 ABD0            0301A 25495             +
 002FDA                            25500  1 3021.                PSET  @FMFSB              Release bit numbers
 002FDA D704 D048 D048 00000 00000 25510  1          +
 002FE0 5030 D048            00000 25511  1 3022.                PMOV  @FMFSBP,LA:FSB
 002FE4 5860 C048            00000 25522  1 3023.                L     RX,#ICONBU1         Reset base
 002FE8 1F00/BF07 6001       00001 25523  1 3024.                L3    RVR,IXRECNO         Get record block number
 002FEE 58F0 AE62/0DEF       032AC 25529  1 3025.                VCALL FBITREL             Release back to the system
 002FF4 9140 6000      00000       25533  1 3026.                IF    IXRSIXR,BEGIN       Super IXR
 002FF8 47E0 ABD0            0301A 25543  1          +
 002FFC 4190 0292            00292 25548  2 3027.                  LA    RN,IXRIXNT#         Get count
 003000                            25549  2 3028.                  LOOP  BEGIN
 003000 1F00/BF07 6044       00044 25555  3 3029.                    L3    RVR,IXRNT           Get block number
 003006 1200/4780 ABC8       03012 25561  3 3030.                    IF    (RVR,NZ),'VCALL FBITREL' Release back to the system
 00300C 58F0 AE62/0DEF       032AC 25578  3          +
 003012 4160 6003            00003 25584  3 3031.                    LA    RX,IXR+L'IXRNT      Increment to next number
 003016 4690 ABB6            03000 25585  2 3032.                  UNTIL (BCT,RN),END
 00301A                            25595  1 3033.                END   ,                   Super IXR
 00301A                            25599    3034.              END   ,                   IXR file
0                                  25604    3036.     * Reset RQWB fields for the file
 00301A 9610 2005      00005       25605    3037.              SET   RQCNIXR             Set non-ixr
 00301E 9604 2005      00005       25611    3038.              SET   RQCHYBR             Set hybrid file
 003022 58E0 2018            00018 25617    3039.              L     R14,RQATFB
 USING  ATFB,R14                   25618    3040.              WITH  (ATFB,R14),BEGIN
 003026 D203 E010 C058 00010 00010 25632  1 3041.                MVC   ATFBFBLK,#ICONBLK   Get first block number
 00302C D203 E014 C05C 00014 00014 25633  1 3042.                MVC   ATFBBLKC,#ICONCNT   Get block count (non-IXR'd)
 DROP   ATFB,R14                   25634    3043.              END   ,
0003032 47F0 ABF4            0303E 25643    3045.              B     M1ICEX00            Done
0003036                            25645    3047.     M1ICERVR LABEL ,
 003036 5000 2044            00044 25647    3048.              ST    RVR,RQRETC          Set return code
 00303A 47F0 ACCC            03116 25648    3049.              B     M1ICEXIT
000303E                            25650    3051.     M1ICEX00 LABEL ,
 00303E                            25652    3052.              CLEAR RQRETC              Request completed successfully
 00303E D703 2044 2044 00044 00044 25658             +
 003044 47F0 ACCC            03116 25659    3053.              B     M1ICEXIT
0003048                            25661    3055.     M1ICEX04 LABEL ,
 003048 D203 2044 AE66 00044 032B0 25663    3056.              MVC   RQRETC,=F'4'        File not immediately available
 00304E 47F0 ACCC            03116 25664    3057.              B     M1ICEXIT
0003052                            25666    3059.     M1ICEX12 LABEL ,
 003052 D203 2044 AE6A 00044 032B4 25668    3060.              MVC   RQRETC,=F'12'       The answer is yes or no
 003058 47F0 ACCC            03116 25669    3061.              B     M1ICEXIT            (depending on the question)
000305C                            25671    3063.     M1ICEX16 LABEL ,
1FILEMAN  (FILEMA) (09:39) (22MAR04) ORVYL'S File Manager                                                                   Page  154
0Current Usings:  (PZERO,R0) (RQWB,R2) (FSB,R3) (IXR,R6) (M1ICONT,R10) (#ICONT-72,R12) (@FMFSB-72,R13)
0Loc    Object Code    Addr1 Addr2  Stmt Lv Lineno    Source Statement           (Hibal 5, Asmedit 3.3)  HLASM R4.0  2004/03/22 09.39
+___    ______ ____    _____ _____  ____ __ ______    ______ _________
000305C D203 2044 AE6E 00044 032B8 25673    3064.              MVC   RQRETC,=F'16'       Can't have any more blocks
 003062 47F0 ACCC            03116 25674    3065.              B     M1ICEXIT
0003066                            25676    3067.     M1ICEX20 LABEL ,
 003066 D203 2044 AE72 00044 032BC 25678    3068.              MVC   RQRETC,=F'20'       Not enough file space
 00306C 47F0 ACCC            03116 25679    3069.              B     M1ICEXIT
0003070                            25681    3071.     M1ICXRES LABEL ,                   Get exclusive reserve
 003070 41F0 0001            00001 25683    3072.              LA    R15,1
 003074 47F0 AC30            0307A 25684    3073.              B     M1ICRESV
 003078                            25685    3074.     M1ICSRES LABEL ,                   Get shared reserve
 003078 1BFF                       25687    3075.              CLEAR R15
 00307A                            25691    3076.     M1ICRESV LABEL ,
 00307A 9120 2006      00006       25693    3077.              IF    (RQASHR,AND,~RQARES),BEGIN Not already reserved
 00307E 47E0 AC76            030C0 25705             +
 003082 9120 2007      00007       25716             +
 003086 4710 AC76            030C0 25717             +
 DROP   @FMFSB-72,R13              25722  1 3078.                PSET  @GRES
 USING  @GRES-72,R13
 00308A D708 D048 D048 00000 00000 25742  1          +
 003090 58E0 2018            00018 25743  1 3079.                L     R14,RQATFB           Point to attach block
 USING  ATFB,R14                   25744  1 3080.                WITH  (ATFB,R14),'PMOV @GRID,ATFBRGRI' Point to reserve grid
 003094 D203 D04C E020 00004 00020 25763  1          +
 DROP   ATFB,R14
 00309A 9120 201E      0001E       25772  1 3081.                IF    RQWAIT,'SET @GRWAIT' Wait if not avail
 00309E 47E0 AC5C            030A6 25782  1          +
 0030A2 9680 D050      00008       25793  1          +
 0030A6 12FF/4780 AC66       030B0 25798  1 3082.                IF    (R15,NZ),'SET @GREXCL' Exclusive hold
 0030AC 9640 D050      00008       25818  1          +
 0030B0 58F0 AE22/0DEF       0326C 25823  1 3083.                VCALL GRGET               Get resource id hold
 0030B6 1200/4780 ABFE       03048 25827  1 3084.                IF    (RVR,Z),M1ICEX04    No reserve, not available
 0030BC 5000 2014            00014 25844  1 3085.                ST    RVR,RQRGRH          Set reserve id
 0030C0                            25845    3086.              END   ,                   Not already reserved
 0030C0 07F1                       25849    3087.              BR    RS
00030C2                            25851    3089.     M1ICGIXR LABEL ,                   Get first IXR record
 DROP   @GRES-72,R13               25853    3090.              PSET  @IXRGEPU
 USING  @IXRGEPU-72,R13
 0030C2 D70B D048 D048 00000 00000 25873             +
 0030C8 5030 D048            00000 25874    3091.              PMOV  @IXRGFSB,LA:FSB
 0030CC                            25885    3092.              PMOV  @IXRGBNO,RQFBLK     Set block number
 0030CC D203 D04C 205C 00004 0005C 25889             +
 0030D2 58F0 AE76/0DEF       032C0 25890    3093.              ACALL FMIXRGET            Get IXR record
 0030D8 5860 D050            00008 25897    3094.              L     RX,@IXRGADR         Set IXR pointer
 0030DC 5060 C048            00000 25898    3095.              ST    RX,#ICONBU1         Save buffer address
 0030E0 07F1                       25899    3096.              BR    RS
00030E2                            25901    3098.     M1ICGIX2 LABEL ,                   Get IXR record
 0030E2                            25903    3099.              PSET  @IXRGEPU
 0030E2 D70B D048 D048 00000 00000 25913             +
 0030E8 5030 D048            00000 25914    3100.              PMOV  @IXRGFSB,LA:FSB
 0030EC 50E0 D04C            00004 25925    3101.              PMOV  @IXRGBNO,(R14)      Set block number
 0030F0 50F0 D050            00008 25935    3102.              PMOV  @IXRGADR,(R15)      Set buffer address
 0030F4 58F0 AE76/0DEF       032C0 25945    3103.              ACALL FMIXRGET            Get IXR record
1FILEMAN  (FILEMA) (09:39) (22MAR04) ORVYL'S File Manager                                                                   Page  155
0Current Usings:  (PZERO,R0) (RQWB,R2) (FSB,R3) (IXR,R6) (M1ICONT,R10) (#ICONT-72,R12) (@IXRGEPU-72,R13)
0Loc    Object Code    Addr1 Addr2  Stmt Lv Lineno    Source Statement           (Hibal 5, Asmedit 3.3)  HLASM R4.0  2004/03/22 09.39
+___    ______ ____    _____ _____  ____ __ ______    ______ _________
00030FA 58F0 D050            00008 25952    3104.              L     R15,@IXRGADR        Get buffer address
 0030FE 07F1                       25953    3105.              BR    RS
0003100                            25955    3107.     M1ICPIXR LABEL ,                   File IXR
 003100                            25957    3108.              PSET  @IXRGEPU
 003100 D70B D048 D048 00000 00000 25967             +
 003106 5030 D048            00000 25968    3109.              PMOV  @IXRGFSB,LA:FSB
 00310A 50F0 D050            00008 25979    3110.              PMOV  @IXRGADR,(R15)      Set buffer address
 00310E 58F0 AE7A/0DEF       032C4 25989    3111.              ACALL FMIXRPUT            File the IXR away
 003114 07F1                       25996    3112.              BR    RS
0003116                            25998    3114.     M1ICEXIT LABEL ,
 003116 9120 2007      00007       26000    3115.              IF    (~RQARES,AND,(RQRGRH,NZ)),BEGIN
 00311A 4710 ACF6            03140 26012             +
 00311E D603 2014 2014 00014 00014 26024             +
 003124 4780 ACF6            03140 26025             +
 DROP   @IXRGEPU-72,R13            26030  1 3116.                GRREL RID=RQRGRH          Release file reserve
 USING  @GRES-72,R13
 003128 D708 D048 D048 00000 00000 26051  1          +
 00312E D203 D04C 2014 00004 00014 26056  1          +
 003134 58F0 AE26/0DEF       03270 26059  1          +
 00313A                            26061  1 3117.                CLEAR RQRGRH              Clear hold id
 00313A D703 2014 2014 00014 00014 26067  1          +
 003140                            26068    3118.              END   ,
0003140 4180 C048            00000 26073    3120.              LA    RM,#ICONBU1         Release IO buffers
 003144 4190 0004            00004 26074    3121.              LA    RN,4
 DROP   @GRES-72,R13               26075    3122.              PSET  @SBFREE
 USING  @SBFREE-72,R13
 003148 D707 D048 D048 00000 00000 26095             +
 00314E                            26096    3123.              PMOV  @SBFPOO,FSBRBT
 00314E D203 D048 302C 00000 0002C 26100             +
 003154                            26101    3124.              LOOP  BEGIN
 003154 D203 D04C 8000 00004 00000 26107  1 3125.                MVC   @SBFADR,@RM
 00315A                            26108  1 3126.                IF    (@SBFADR,NZ),'VCALL SBUFREE'
 00315A D603 D04C D04C 00004 00004 26118  1          +
 003160 4780 AD20            0316A 26119  1          +
 003164 58F0 AE7E/0DEF       032C8 26127  1          +
 00316A 4180 8004            00004 26133  1 3127.                LA    RM,@RM+4
 00316E 4690 AD0A            03154 26134    3128.              UNTIL (BCT,RN),END
0003172 981F C008            00008 26145    3130.              PEND  ,
 DROP   H.IXR,R5
 DROP   F.IXR,R4
 DROP   S.IXR,R7
 DROP   IXR,R6
 DROP   FSB,R3
 DROP   RQWB,R2
 DROP   #ICONT-72,R12
 DROP   M1ICONT,R10
 003176 9680 C000/0B0E 00000       26199             +
 DROP   @SBFREE-72,R13
 00317C 00001F5000002476           26208    3131.     RTNTABC  DC    A(M1FC00),A(M1IC00)
 003184 00001F500000249A           26209    3132.              DC    A(M1FC01),A(M1IC01)
1FILEMAN  (FILEMA) (09:39) (22MAR04) ORVYL'S File Manager                                                                   Page  156
0Current Usings:  (PZERO,R0)
0Loc    Object Code    Addr1 Addr2  Stmt Lv Lineno    Source Statement           (Hibal 5, Asmedit 3.3)  HLASM R4.0  2004/03/22 09.39
+___    ______ ____    _____ _____  ____ __ ______    ______ _________
000318C 00001F20000024A0           26210    3133.              DC    A(M1FC02),A(M1IC02)
 003194 00001FA40000251E           26211    3134.              DC    A(M1FC03),A(M1IC03)
 00319C 00001FE8000025AC           26212    3135.              DC    A(M1FC04),A(M1IC04)
 0031A4 0000200600002612           26213    3136.              DC    A(M1FC05),A(M1IC05)
 0031AC 0000202800002678           26214    3137.              DC    A(M1FC06),A(M1IC06)
 0031B4 0000204C00000000           26215    3138.              DC    A(M1FC07),A(0)
 0031BC 0000205000002690           26216    3139.              DC    A(M1FC08),A(M1IC08)
 0031C4 0000212200002974           26217    3140.              DC    A(M1FC09),A(M1IC09)
 0031CC 000021AE000029F8           26218    3141.              DC    A(M1FC10),A(M1IC10)
 0031D4 000021CA00002A1E           26219    3142.              DC    A(M1FC11),A(M1IC11)
 0031DC 0000220E00002A7A           26220    3143.              DC    A(M1FC12),A(M1IC12)
 0031E4 000023B600002AA6           26221    3144.              DC    A(M1FCTEMP),A(M1IC13)
 0031EC 0000223200002AC8           26222    3145.              DC    A(M1FC14),A(M1IC14)
 0031F4 000023B600002AF8           26223    3146.              DC    A(M1FCTEMP),A(M1IC15)
 0031FC 0000223E00002B20           26224    3147.              DC    A(M1FC16),A(M1IC16)
 003204 000023B600002B4C           26225    3148.              DC    A(M1FCTEMP),A(M1IC17)
 00320C 0000226200002B6E           26226    3149.              DC    A(M1FC18),A(M1IC18)
 003214 000023B600002B9A           26227    3150.              DC    A(M1FCTEMP),A(M1IC19)
 00321C 0000228600000000           26228    3151.              DC    A(M1FC20),A(0)
 003224 0000229A00002BBC           26229    3152.              DC    A(M1FC21),A(M1IC21)
 00322C 000023B600002BE8           26230    3153.              DC    A(M1FCTEMP),A(M1IC22)
 003234 000022BE00000000           26231    3154.              DC    A(M1FC23),A(0)
 00323C 000022CA00000000           26232    3155.              DC    A(M1FC24),A(0)
 003244 0000230E00002C0A           26233    3156.     RTNTABCM DC    A(M1FC25),A(M1IC25)
 003250                            26234    3157.              LTORG ,
 003250 0000152C                   26236                             =A(M1IWRIT)
 003254 000056FA                   26237                             =A(FMDELBLK)
 003258 00000002                   26238                             =AL4(2)
 00325C 00000000                   26239                             =V(FCATPSPA)
 003260 00000294                   26240                             =A(IXRNT#)
 003264 00000000                   26241                             =V(FCATRNAM)
 003268 00000000                   26242                             =V(HASHIT)
 00326C 00000000                   26243                             =V(GRGET)
 003270 00000000                   26244                             =V(GRREL)
 003274 00000001                   26245                             =A(1)
 003278 00000000                   26246                             =V(FCATDLET)
 00327C 00000000                   26247                             =V(VMGET)
 003280 C6C9D3C4                   26248                             =C'FILD'
 003284 00000000                   26249                             =V(SIGNAL)
 003288 00000000                   26250                             =V(FCATUINF)
 00328C 0000000F                   26251                             =A(FPALL)
 003290 00000000                   26252                             =V(FCATASAC)
 003294 00000000                   26253                             =V(FCATGPRM)
 003298 00000000                   26254                             =V(FCATFINF)
 00329C 00000000                   26255                             =V(FBITGCON)
 0032A0 00000000                   26256                             =V(FCATGSPA)
 0032A4 00000000                   26257                             =V(FBITRCON)
 0032A8 00000000                   26258                             =V(FMHYINIT)
 0032AC 00000000                   26259                             =V(FBITREL)
 0032B0 00000004                   26260                             =F'4'
 0032B4 0000000C                   26261                             =F'12'
 0032B8 00000010                   26262                             =F'16'
 0032BC 00000014                   26263                             =F'20'
 0032C0 00005EA4                   26264                             =A(FMIXRGET)
1FILEMAN  (FILEMA) (09:39) (22MAR04) ORVYL'S File Manager                                                                   Page  157
0Current Usings:  (PZERO,R0)
0Loc    Object Code    Addr1 Addr2  Stmt Lv Lineno    Source Statement           (Hibal 5, Asmedit 3.3)  HLASM R4.0  2004/03/22 09.39
+___    ______ ____    _____ _____  ____ __ ______    ______ _________
00032C4 00005F38                   26265                             =A(FMIXRPUT)
 0032C8 00000000                   26266                             =V(SBUFREE)
 0032CC 0003                       26267                             =Y(L'IXRNT)
 0032CE 0294                       26268                             =Y(IXRNT#)
 0032D0 000C                       26269                             =Y(L'AHFBL)
 0032D2 3B00           032D4 06510 26270                             =Y(59*256+0)
1FILEMAN  (FILEMA) (09:39) (22MAR04) ORVYL'S File Manager                                                                   Page  158
0Current Usings:  (PZERO,R0)
0Loc    Object Code    Addr1 Addr2  Stmt Lv Lineno    Source Statement           (Hibal 5, Asmedit 3.3)  HLASM R4.0  2004/03/22 09.39
+___    ______ ____    _____ _____  ____ __ ______    ______ _________
0                                  26275    3159.     *---------------------------------------------------------------------*
                                   26276    3160.     *  M1FSTAT - File STATUS processing, preliminary edits
                                   26277    3161.     *
                                   26278    3162.     *   Inputs - RA points to RQWB
                                   26279    3163.     *
                                   26280    3164.     *   Output -
                                   26281    3165.     *---------------------------------------------------------------------*
 000000                00000 0002C 26282    3166.     #STATWK  RECORD BEGIN
 000000                            26290  1 3167.     #STATORV   DS    CL4
 000004                            26291  1 3168.     #STATNAM   DS    CL40
 00002C                0002C 00000 26292  1 3169.                ORG   #STATORV
 000000                            26293  1 3170.     #STATACC   DS    0CL6
 000000                            26294  1 3171.     #STATGRP   DS    CL2
 000002                            26295  1 3172.     #STATDFF   DS    CL4
 000006                00006 0002C 26296  1 3173.                ORG   ,
 00002C                0002C 0002C 26297    3174.              END   ,
 0032D4                            26306    3175.     M1FSTAT  PROC  ,#STATWK,NBR=2
 0032D4 D4F1C6E2E3C1E340           26313             +
 0032DC 0000/0030                  26314             +
 0032E0 900F D004/18AF       00004 26316             +
 0032E6 41B0 FFFF            00FFF 26318             +
 0032EA 41B0 B001            00001 26319             +
 USING  M1FSTAT,R10
 USING  M1FSTAT+4096,R11
 0032EE 50D0 C000/18CD       00000 26341             +
 0032F4 9680 C000      00000       26343             +
 USING  #STATWK-72,R12
 0032F8 41D0 C078            00078 26357             +
 USING  RQWB,R2                    26358    3176.              WITH  (RQWB,RA)
 USING  FSB,R3                     26371    3177.              WITH  (FSB,RB)
 0032FC 5870 0200            00200 26384    3178.              ADFCB ,
 USING  MAT,R7
 003300 5870 7028            00028 26401             +
 DROP   MAT,R7
 USING  FILECB,R7
0003304 9610 2007      00007       26424    3180.              SET   RQASTAT             Status request
 003308 58E0 2038            00038 26430    3181.              L     R14,RQISTAT         Get status type
 00330C 59E0 AA48            03D28 26431    3182.              IF    (R14,GE,100),BEGIN  Adjust for privileged status
 003310 4750 A038            03318 26443             +
 003314 4BE0 AAB8            03D98 26448  1 3183.                SH    R14,=Y(100-((RTNTABSX-RTNTABS)/(L'RTNTABS*2)))
 003318                            26449    3184.              END   ,
 003318 A03C           03318 03312 26453    3185.              ELSE  BEGIN
 003318 47F0 A044            03324 26458             +
 00331C 59E0 AA4C            03D2C 26464  1 3186.                IF    (R14,GT,=A((RTNTABSX-RTNTABS)/(L'RTNTABS*2))),M1FSPEC
 003320 4720 A964            03C44 26477  1          +
 003324                            26483    3187.              END   ,
 003324 89E0 0003            00003 26487    3188.              SLL   R14,3               Times eight
 003328 41EE B200            044E0 26488    3189.              LA    R14,RTNTABS(R14)    Point to control routine address
 00332C 58F0 E000            00000 26489    3190.              L     R15,@R14            Get routine address
0003330 59E0 AA50            03D30 26491    3192.              IF    ((R14,LT,=A(RTNTABS)),OR,(R14,GT,=A(RTNTABSM))),M1FSPEC
 003334 4740 A964            03C44 26506             +
 003338 59E0 AA54            03D34 26516             +
1FILEMAN  (FILEMA) (09:39) (22MAR04) ORVYL'S File Manager                                                                   Page  159
0Current Usings:  (PZERO,R0) (RQWB,R2) (FSB,R3) (FILECB,R7) (M1FSTAT,R10) (M1FSTAT+4096,R11) (#STATWK-72,R12)
0Loc    Object Code    Addr1 Addr2  Stmt Lv Lineno    Source Statement           (Hibal 5, Asmedit 3.3)  HLASM R4.0  2004/03/22 09.39
+___    ______ ____    _____ _____  ____ __ ______    ______ _________
000333C 4720 A964            03C44 26519             +
 003340 12FF/4780 A964       03C44 26525    3193.              IF    (R15,Z),M1FSPEC     Specification
 003346 07FF                       26542    3194.              BR    R15                 Branch to routine
0003348                            26544    3196.     M1FS00   LABEL ,                   Assigning Global File Access
 USING  @CHKMEM-72,R13             26546    3197.              CHKMEM RQISUSA,LA:L'RQACCNA   Check memory read
 003348 D707 D048 D048 00000 00000 26564             +
 00334E D203 D048 2034 00000 00034 26569             +
 003354 4100 0006            00006 26581             +
 003358 4000 D04C            00004 26586             +
 00335C D200 D04E 2021 00006 00021 26591             +
 003362 58F0 AA58/0DEF       03D38 26597             +
 003368 1200/4780 A092       03372 26599    3198.              IF    (RVR,NZ),'EXIT M1FSTAT' Denied
 00336E 47F0 AA3A            03D1A 26616             +
 003372 58E0 2034            00034 26621    3199.              L     R14,RQISUSA
 003376 D205 20A4 E000 000A4 00000 26622    3200.              MVC   RQACCNA,@R14        Get account
 00337C                            26623    3201.              IF    (RQISUSB,Z),'MVC RQACCNB,RQFACC' Default
 00337C D603 2030 2030 00030 00030 26633             +
 003382 4770 A0AC            0338C 26634             +
 003386 D205 20AA 2008 000AA 00008 26640             +
 00338C A0B0           0338C 03384 26645    3202.              ELSE  BEGIN
 00338C 47F0 A0E4            033C4 26650             +
 003390                            26656  1 3203.                CHKMEM RQISUSB,LA:L'RQACCNB   Check memory read
 003390 D707 D048 D048 00000 00000 26667  1          +
 003396 D203 D048 2030 00000 00030 26672  1          +
 00339C 4100 0006            00006 26684  1          +
 0033A0 4000 D04C            00004 26689  1          +
 0033A4 D200 D04E 2021 00006 00021 26694  1          +
 0033AA 58F0 AA58/0DEF       03D38 26700  1          +
 0033B0 1200/4780 A0DA       033BA 26702  1 3204.                IF    (RVR,NZ),'EXIT M1FSTAT' Denied
 0033B6 47F0 AA3A            03D1A 26719  1          +
 0033BA 58E0 2030            00030 26724  1 3205.                L     R14,RQISUSB
 0033BE D205 20AA E000 000AA 00000 26725  1 3206.                MVC   RQACCNB,@R14        Get account
 0033C4                            26726    3207.              END   ,
 DROP   @CHKMEM-72,R13             26730    3208.              CHKACC RQACCNB            Edit account
 USING  @CHKACC-72,R13
 0033C4 D709 D048 D048 00000 00000 26751             +
 0033CA D205 D04C 20AA 00004 000AA 26756             +
 0033D0 58F0 AA5C/0DEF       03D3C 26762             +
 0033D6 D205 20AA D04C 000AA 00004 26764             +
 0033DC 5830 D048/1200       00000 26765             +
 0033E2 4770 A96C            03C4C 26767    3209.              IF    NZ,M1FSERVR         Exit if error
 0033E6 5030 2024            00024 26781    3210.              ST    RB,RQFSB            Set FSB address
 0033EA                            26782    3211.              CHKACC RQACCNA            Edit account
 0033EA D709 D048 D048 00000 00000 26793             +
 0033F0 D205 D04C 20A4 00004 000A4 26798             +
 0033F6 58F0 AA5C/0DEF       03D3C 26804             +
 0033FC D205 20A4 D04C 000A4 00004 26806             +
 003402 5830 D048/1200       00000 26807             +
 003408 5900 AA60            03D40 26809    3212.              IF    (RVR,EQ,-8),M1FSERVR Exit if error
 00340C 4780 A96C            03C4C 26822             +
 003410                            26828    3213.              IF    (RQACCNA,EQ,RQACCNB),M1FSBA44
 003410 D505 20A4 20AA 000A4 000AA 26840             +
 003416 4780 A974            03C54 26843             +
1FILEMAN  (FILEMA) (09:39) (22MAR04) ORVYL'S File Manager                                                                   Page  160
0Current Usings:  (PZERO,R0) (RQWB,R2) (FSB,R3) (FILECB,R7) (M1FSTAT,R10) (M1FSTAT+4096,R11) (#STATWK-72,R12) (@CHKACC-72,R13)
0Loc    Object Code    Addr1 Addr2  Stmt Lv Lineno    Source Statement           (Hibal 5, Asmedit 3.3)  HLASM R4.0  2004/03/22 09.39
+___    ______ ____    _____ _____  ____ __ ______    ______ _________
000341A 47F0 A9BA            03C9A 26849    3214.              B     M1FSEX00            Out of here
000341E                            26851    3216.     M1FS01   LABEL ,                   Assigning Global Pubic Access
 00341E                            26853    3217.              CHKACC RQFACC             Get FSB address
 00341E D709 D048 D048 00000 00000 26864             +
 003424 D205 D04C 2008 00004 00008 26869             +
 00342A 58F0 AA5C/0DEF       03D3C 26875             +
 003430 D205 2008 D04C 00008 00004 26877             +
 003436 5830 D048/1200       00000 26878             +
 00343C 4770 A96C            03C4C 26880    3218.              IF    NZ,M1FSERVR         Exit if error
 003440 5030 2024            00024 26894    3219.              ST    RB,RQFSB            Set FSB address
 003444 47F0 A9BA            03C9A 26895    3220.              B     M1FSEX00            Out of here
0003448                            26897    3222.     M1FS02   LABEL ,                   List file names
 003448                            26899    3223.              IF    (RQISLEN,LT,=A(56)),M1FSPEC At least one
 003448 D503 AA64 2034 03D44 00034 26910             +
 00344E 4720 A964            03C44 26913             +
 003452                            26919    3224.     M1FS02A  LABEL ,                   Status 111 joins here
 DROP   @CHKACC-72,R13             26921    3225.              CHKMEM RQISLOC,L:RQISLEN,W Check write access
 USING  @CHKMEM-72,R13
 003452 D707 D048 D048 00000 00000 26942             +
 003458 D203 D048 203C 00000 0003C 26947             +
 00345E D201 D04C 2036 00004 00036 26952             +
 003464 D200 D04E 2021 00006 00021 26957             +
 00346A 9680 D04F      00007       26963             +
 00346E 58F0 AA58/0DEF       03D38 26969             +
 003474 1200/4780 A19E       0347E 26971    3226.              IF    (RVR,NZ),'EXIT M1FSTAT' Denied
 00347A 47F0 AA3A            03D1A 26988             +
 00347E 9240 2078      00078       26993    3227.              MVI   RQNAME,C' '
 003482 D22A 2079 2078 00079 00078 26994    3228.              MVC   RQNAME+1(L'RQNAME-1),RQNAME
 003488                            26995    3229.              IF    (RQISFIL,NZ),BEGIN  File name or user provided
 003488 D603 2030 2030 00030 00030 27005             +
 00348E 4780 A228            03508 27006             +
 003492                            27011  1 3230.                CHKMEM RQISFIL,LA:CFSBFLSZ Check memory read
 003492 D707 D048 D048 00000 00000 27022  1          +
 003498 D203 D048 2030 00000 00030 27027  1          +
 00349E 4100 0028            00028 27039  1          +
 0034A2 4000 D04C            00004 27044  1          +
 0034A6 D200 D04E 2021 00006 00021 27049  1          +
 0034AC 58F0 AA58/0DEF       03D38 27055  1          +
 0034B2 1200/4780 A1DC       034BC 27057  1 3231.                IF    (RVR,NZ),'EXIT M1FSTAT' Denied
 0034B8 47F0 AA3A            03D1A 27074  1          +
 0034BC 58E0 2030            00030 27079  1 3232.                L     R14,RQISFIL         Point to file name
 0034C0 9540 E006      00006       27080  1 3233.                IF    (('CLI @R14+6,C" "',E),OR,('CLI @R14+7,C" "',E)),BEGIN
 0034C4 4780 A1F0            034D0 27092  1          +
 0034C8 9540 E007      00007       27099  1          +
 0034CC 4770 A1F6            034D6 27100  1          +
 0034D0 D205 207C E000 0007C 00000 27105  2 3234.                  MVC   RQNACC,@R14         Get account
 0034D6                            27106  1 3235.                END   ,                   Account only
 0034D6 A1FA           034D6 034CE 27110  1 3236.                ELSE  BEGIN               Full file name
 0034D6 47F0 A228            03508 27115  1          +
 0034DA D203 C048 AA68 00000 03D48 27121  2 3237.                  MVC   #STATORV,=C'ORV.'
 0034E0 D227 C04C E000 00004 00000 27122  2 3238.                  MVC   #STATNAM,@R14
 DROP   @CHKMEM-72,R13             27123  2 3239.                  PSET  @SETFNAM
1FILEMAN  (FILEMA) (09:39) (22MAR04) ORVYL'S File Manager                                                                   Page  161
0Current Usings:  (PZERO,R0) (RQWB,R2) (FSB,R3) (FILECB,R7) (M1FSTAT,R10) (M1FSTAT+4096,R11) (#STATWK-72,R12) (@SETFNAM-72,R13)
0Loc    Object Code    Addr1 Addr2  Stmt Lv Lineno    Source Statement           (Hibal 5, Asmedit 3.3)  HLASM R4.0  2004/03/22 09.39
+___    ______ ____    _____ _____  ____ __ ______    ______ _________
0USING  @SETFNAM-72,R13
 0034E6 D707 D048 D048 00000 00000 27143  2          +
 0034EC 4100 C048            00000 27144  2 3240.                  PMOV  @SETFNA,LA:#STATORV
 0034F0 5000 D048            00000 27160  2          +
 0034F4 4100 002C            0002C 27161  2 3241.                  PMOV  @SETFNL,LA:L'RQNAME
 0034F8 5000 D04C            00004 27177  2          +
 0034FC 58F0 AA6C/0DEF       03D4C 27178  2 3242.                  ACALL SETFNAME            Format file name
 003502 1200/4770 A96C       03C4C 27185  2 3243.                  IF    (RVR,NZ),M1FSERVR
 003508                            27202  1 3244.                END   ,                   Full file name
 003508                            27206    3245.              END   ,                   File name or user provided
 003508 A22C           03508 03490 27210    3246.              ELSE  'MVC RQNACC,RQFACC' Set to signed on account
 003508 47F0 A232            03512 27215             +
 00350C D205 207C 2008 0007C 00008 27222             +
 DROP   @SETFNAM-72,R13            27227    3247.              CHKACC RQNACC
 USING  @CHKACC-72,R13
 003512 D709 D048 D048 00000 00000 27248             +
 003518 D205 D04C 207C 00004 0007C 27253             +
 00351E 58F0 AA5C/0DEF       03D3C 27259             +
 003524 D205 207C D04C 0007C 00004 27261             +
 00352A 5830 D048/1200       00000 27262             +
 003530 4770 A96C            03C4C 27264    3248.              IF    NZ,M1FSERVR         Exit if error
 003534 5030 2024            00024 27278    3249.              ST    RB,RQFSB            Set FSB address
 003538 47F0 A9BA            03C9A 27279    3250.              B     M1FSEX00            Out of here
000353C                            27281    3252.     M1FS03   LABEL ,                   Detect Account Level Privileges
 00353C                            27283    3253.              IF    (RQISLEN,LT,=A(L'NTRYPR)),M1FSPEC One member at least
 00353C D503 AA70 2034 03D50 00034 27294             +
 003542 4720 A964            03C44 27297             +
 DROP   @CHKACC-72,R13             27303    3254.              CHKMEM RQISLOC,L:RQISLEN,W Check write access
 USING  @CHKMEM-72,R13
 003546 D707 D048 D048 00000 00000 27324             +
 00354C D203 D048 203C 00000 0003C 27329             +
 003552 D201 D04C 2036 00004 00036 27334             +
 003558 D200 D04E 2021 00006 00021 27339             +
 00355E 9680 D04F      00007       27345             +
 003562 58F0 AA58/0DEF       03D38 27351             +
 003568 1200/4780 A292       03572 27353    3255.              IF    (RVR,NZ),'EXIT M1FSTAT' Denied
 00356E 47F0 AA3A            03D1A 27370             +
 003572                            27375    3256.              IF    (RQISUSB,Z),BEGIN   Showing ones own account
 003572 D603 2030 2030 00030 00030 27385             +
 003578 4770 A2A6            03586 27386             +
 00357C D205 20AA 2008 000AA 00008 27391  1 3257.                MVC   RQACCNB,RQFACC      Default
 003582 9680 2007      00007       27392  1 3258.                SET   RQAOWN              Set to owner of account
 003586                            27398    3259.              END   ,                   Showing ones own account
 003586 A2AA           03586 0357A 27402    3260.              ELSE  BEGIN
 003586 47F0 A2EC            035CC 27407             +
 00358A                            27413  1 3261.                CHKMEM RQISUSB,LA:L'RQACCNB Check memory read
 00358A D707 D048 D048 00000 00000 27424  1          +
 003590 D203 D048 2030 00000 00030 27429  1          +
 003596 4100 0006            00006 27441  1          +
 00359A 4000 D04C            00004 27446  1          +
 00359E D200 D04E 2021 00006 00021 27451  1          +
 0035A4 58F0 AA58/0DEF       03D38 27457  1          +
 0035AA 1200/4780 A2D4       035B4 27459  1 3262.                IF    (RVR,NZ),'EXIT M1FSTAT' Denied
1FILEMAN  (FILEMA) (09:39) (22MAR04) ORVYL'S File Manager                                                                   Page  162
0Current Usings:  (PZERO,R0) (RQWB,R2) (FSB,R3) (FILECB,R7) (M1FSTAT,R10) (M1FSTAT+4096,R11) (#STATWK-72,R12) (@CHKMEM-72,R13)
0Loc    Object Code    Addr1 Addr2  Stmt Lv Lineno    Source Statement           (Hibal 5, Asmedit 3.3)  HLASM R4.0  2004/03/22 09.39
+___    ______ ____    _____ _____  ____ __ ______    ______ _________
00035B0 47F0 AA3A            03D1A 27476  1          +
 0035B4 58E0 2030            00030 27481  1 3263.                L     R14,RQISUSB
 0035B8 D205 20AA E000 000AA 00000 27482  1 3264.                MVC   RQACCNB,@R14        Get account
 0035BE                            27483  1 3265.                IF    (RQACCNB,EQ,RQFACC),'SET RQAOWN' Account owner
 0035BE D505 20AA 2008 000AA 00008 27495  1          +
 0035C4 4770 A2EC            035CC 27496  1          +
 0035C8 9680 2007      00007       27507  1          +
 0035CC                            27512    3266.              END   ,
 DROP   @CHKMEM-72,R13             27516    3267.              CHKACC RQACCNB
 USING  @CHKACC-72,R13
 0035CC D709 D048 D048 00000 00000 27537             +
 0035D2 D205 D04C 20AA 00004 000AA 27542             +
 0035D8 58F0 AA5C/0DEF       03D3C 27548             +
 0035DE D205 20AA D04C 000AA 00004 27550             +
 0035E4 5830 D048/1200       00000 27551             +
 0035EA 4770 A96C            03C4C 27553    3268.              IF    NZ,M1FSERVR         Exit if error
 0035EE 5030 2024            00024 27567    3269.              ST    RB,RQFSB            Set FSB address
 0035F2 47F0 A9BA            03C9A 27568    3270.              B     M1FSEX00            Out of here
00035F6                            27570    3272.     M1FS04   LABEL ,                   Get current space and usage stats
 0035F6                            27572    3273.              IF    (RQISUSE,NZ),BEGIN
 0035F6 D603 203C 203C 0003C 0003C 27582             +
 0035FC 4780 A354            03634 27583             +
 DROP   @CHKACC-72,R13             27588  1 3274.                CHKMEM RQISUSE,LA:L'RQACCNB Check memory read
 USING  @CHKMEM-72,R13
 003600 D707 D048 D048 00000 00000 27609  1          +
 003606 D203 D048 203C 00000 0003C 27614  1          +
 00360C 4100 0006            00006 27626  1          +
 003610 4000 D04C            00004 27631  1          +
 003614 D200 D04E 2021 00006 00021 27636  1          +
 00361A 58F0 AA58/0DEF       03D38 27642  1          +
 003620 1200/4780 A34A       0362A 27644  1 3275.                IF    (RVR,NZ),'EXIT M1FSTAT' Denied
 003626 47F0 AA3A            03D1A 27661  1          +
 00362A 58E0 203C            0003C 27666  1 3276.                L     R14,RQISUSE
 00362E D205 20AA E000 000AA 00000 27667  1 3277.                MVC   RQACCNB,@R14        Get account
 003634                            27668    3278.              END   ,
 003634 A358           03634 035FE 27672    3279.              ELSE  'MVC RQACCNB,RQFACC' Default
 003634 47F0 A35E            0363E 27677             +
 003638 D205 20AA 2008 000AA 00008 27684             +
 DROP   @CHKMEM-72,R13             27689    3280.              CHKACC RQACCNB
 USING  @CHKACC-72,R13
 00363E D709 D048 D048 00000 00000 27710             +
 003644 D205 D04C 20AA 00004 000AA 27715             +
 00364A 58F0 AA5C/0DEF       03D3C 27721             +
 003650 D205 20AA D04C 000AA 00004 27723             +
 003656 5830 D048/1200       00000 27724             +
 00365C 4770 A96C            03C4C 27726    3281.              IF    NZ,M1FSERVR         Exit if error
 003660 5030 2024            00024 27740    3282.              ST    RB,RQFSB            Set FSB address
 003664 47F0 A9BA            03C9A 27741    3283.              B     M1FSEX00            Out of here
0003668                            27743    3285.     M1FS05   LABEL ,                   Extend a non-IXR'd file
 003668                            27745    3286.     M1FS06   LABEL ,                   Create a non-IXR'd file
 003668                            27747    3287.     M1FS07   LABEL ,                   Create a hybrid file
 003668                            27749    3288.              IF    (RQISBLK,GT,=X'00FFFFFF'),M1FSPEC Invalid block cnt
1FILEMAN  (FILEMA) (09:39) (22MAR04) ORVYL'S File Manager                                                                   Page  163
0Current Usings:  (PZERO,R0) (RQWB,R2) (FSB,R3) (FILECB,R7) (M1FSTAT,R10) (M1FSTAT+4096,R11) (#STATWK-72,R12) (@CHKACC-72,R13)
0Loc    Object Code    Addr1 Addr2  Stmt Lv Lineno    Source Statement           (Hibal 5, Asmedit 3.3)  HLASM R4.0  2004/03/22 09.39
+___    ______ ____    _____ _____  ____ __ ______    ______ _________
0003668 D503 AA74 2030 03D54 00030 27760             +
 00366E 4740 A964            03C44 27763             +
 003672                            27769    3289.              IF    (RQISBLK,Z),M1FSPEC Invalid block cnt
 003672 D603 2030 2030 00030 00030 27779             +
 003678 4780 A964            03C44 27782             +
 DROP   @CHKACC-72,R13             27788    3290.              CHKMEM RQISLOC,L:RQISLEN  Check read access
 USING  @CHKMEM-72,R13
 00367C D707 D048 D048 00000 00000 27809             +
 003682 D203 D048 203C 00000 0003C 27814             +
 003688 D201 D04C 2036 00004 00036 27819             +
 00368E D200 D04E 2021 00006 00021 27824             +
 003694 58F0 AA58/0DEF       03D38 27830             +
 00369A 1200/4780 A3C4       036A4 27832    3291.              IF    (RVR,NZ),'EXIT M1FSTAT' Denied
 0036A0 47F0 AA3A            03D1A 27849             +
 DROP   @CHKMEM-72,R13             27854    3292.              PSET  @SETFNAM
 USING  @SETFNAM-72,R13
 0036A4 D707 D048 D048 00000 00000 27874             +
 0036AA                            27875    3293.              PMOV  @SETFNA,RQISLOC
 0036AA D203 D048 203C 00000 0003C 27879             +
 0036B0                            27880    3294.              PMOV  @SETFNL,RQISLEN
 0036B0 D203 D04C 2034 00004 00034 27884             +
 0036B6 58F0 AA6C/0DEF       03D4C 27885    3295.              ACALL SETFNAME            Set file name
 0036BC 1200/4770 A96C       03C4C 27892    3296.              IF    (RVR,NZ),M1FSERVR   Invalid name
 0036C2 5830 2024            00024 27909    3297.              L     RB,RQFSB
 0036C6 47F0 A9BA            03C9A 27910    3298.              B     M1FSEX00
00036CA                            27912    3300.     M1FS100  LABEL ,                   Create a new account
 0036CA                            27914    3301.     M1FS102  LABEL ,                   Reset space allowed
 0036CA                            27916    3302.     M1FS104  LABEL ,                   Reset space used
 0036CA 9140 201E      0001E       27918    3303.              IF    ~RQSDEF,BEGIN       If do not default
 0036CE 4710 A3FC            036DC 27928             +
 0036D2                            27933  1 3304.                IF    (RQISPAC,GT,=X'00FFFFFF'),M1FSPEC Invalid space value
 0036D2 D503 AA74 2034 03D54 00034 27944  1          +
 0036D8 4740 A964            03C44 27947  1          +
 0036DC                            27953    3305.              END   ,
 0036DC                            27957    3306.     M1FS101  LABEL ,                   Delete an account
 DROP   @SETFNAM-72,R13            27959    3307.              CHKMEM RQISACC,LA:L'RQNACC Check memory read
 USING  @CHKMEM-72,R13
 0036DC D707 D048 D048 00000 00000 27980             +
 0036E2 D203 D048 203C 00000 0003C 27985             +
 0036E8 4100 0006            00006 27997             +
 0036EC 4000 D04C            00004 28002             +
 0036F0 D200 D04E 2021 00006 00021 28007             +
 0036F6 58F0 AA58/0DEF       03D38 28013             +
 0036FC 1200/4780 A426       03706 28015    3308.              IF    (RVR,NZ),'EXIT M1FSTAT' Denied
 003702 47F0 AA3A            03D1A 28032             +
 003706 58F0 203C            0003C 28037    3309.              L     R15,RQISACC
 00370A D205 207C F000 0007C 00000 28038    3310.              MVC   RQNACC,@R15         Set account name
 DROP   @CHKMEM-72,R13             28039    3311.              CHKACC RQNACC
 USING  @CHKACC-72,R13
 003710 D709 D048 D048 00000 00000 28060             +
 003716 D205 D04C 207C 00004 0007C 28065             +
 00371C 58F0 AA5C/0DEF       03D3C 28071             +
 003722 D205 207C D04C 0007C 00004 28073             +
1FILEMAN  (FILEMA) (09:39) (22MAR04) ORVYL'S File Manager                                                                   Page  164
0Current Usings:  (PZERO,R0) (RQWB,R2) (FSB,R3) (FILECB,R7) (M1FSTAT,R10) (M1FSTAT+4096,R11) (#STATWK-72,R12) (@CHKACC-72,R13)
0Loc    Object Code    Addr1 Addr2  Stmt Lv Lineno    Source Statement           (Hibal 5, Asmedit 3.3)  HLASM R4.0  2004/03/22 09.39
+___    ______ ____    _____ _____  ____ __ ______    ______ _________
0003728 5830 D048/1200       00000 28074             +
 00372E 4770 A96C            03C4C 28076    3312.              IF    NZ,M1FSERVR         Bad account
 003732 5030 2024            00024 28090    3313.              ST    RB,RQFSB            Set FSB address
 003736 47F0 A9BA            03C9A 28091    3314.              B     M1FSEX00
000373A                            28093    3316.     M1FS103  LABEL ,                   List accounts and space used
                                   28095    3317.     * Input: R1  = Data location
                                   28096    3318.     *        R15 = Data length
                                   28097    3319.     *        R14, byte 0 = File system id
                                   28098    3320.     *        R14, bytes 1-3 = Start account location
 00373A 1F99/4390 2030       00030 28099    3321.              LC    RN,RQIBLK           Get file number
 003740 4D10 A8EC            03BCC 28106    3322.              BAS   RS,M1FSFSB          Set FSB pointer
 003744                            28107    3323.              IF    (RQISLEN,LT,=A(14)),M1FSPEC At least one
 003744 D503 AA78 2034 03D58 00034 28118             +
 00374A 4720 A964            03C44 28121             +
 DROP   @CHKACC-72,R13             28127    3324.              CHKMEM RQISLOC,L:RQISLEN,W Check write access
 USING  @CHKMEM-72,R13
 00374E D707 D048 D048 00000 00000 28148             +
 003754 D203 D048 203C 00000 0003C 28153             +
 00375A D201 D04C 2036 00004 00036 28158             +
 003760 D200 D04E 2021 00006 00021 28163             +
 003766 9680 D04F      00007       28169             +
 00376A 58F0 AA58/0DEF       03D38 28175             +
 003770 1200/4780 A49A       0377A 28177    3325.              IF    (RVR,NZ),'EXIT M1FSTAT' Denied
 003776 47F0 AA3A            03D1A 28194             +
 00377A 1F11/BF17 2031       00031 28199    3326.              L3    RS,RQISFIL+1
 003780 1211/4780 A4D4       037B4 28205    3327.              IF    (RS,NZ),BEGIN       Start account specified
 003786                            28219  1 3328.                CHKMEM (RS),LA:L'RQNACC   Check memory read
 003786 D707 D048 D048 00000 00000 28230  1          +
 00378C 5010 D048            00000 28240  1          +
 003790 4100 0006            00006 28252  1          +
 003794 4000 D04C            00004 28257  1          +
 003798 D200 D04E 2021 00006 00021 28262  1          +
 00379E 58F0 AA58/0DEF       03D38 28268  1          +
 0037A4 1200/4780 A4CE       037AE 28270  1 3329.                IF    (RVR,NZ),'EXIT M1FSTAT' Denied
 0037AA 47F0 AA3A            03D1A 28287  1          +
 0037AE D205 207C 1000 0007C 00000 28292  1 3330.                MVC   RQNACC,@RS          Get account start
 0037B4                            28293    3331.              END   ,
 0037B4 47F0 A9BA            03C9A 28297    3332.              B     M1FSEX00
00037B8                            28299    3334.     M1FS105  LABEL ,     Delete file entry without releasing blocks
 0037B8                            28301    3335.              CHKMEM RQISLOC,L:RQISLEN  Check read access
 0037B8 D707 D048 D048 00000 00000 28312             +
 0037BE D203 D048 203C 00000 0003C 28317             +
 0037C4 D201 D04C 2036 00004 00036 28322             +
 0037CA D200 D04E 2021 00006 00021 28327             +
 0037D0 58F0 AA58/0DEF       03D38 28333             +
 0037D6 1200/4780 A500       037E0 28335    3336.              IF    (RVR,NZ),'EXIT M1FSTAT' Denied
 0037DC 47F0 AA3A            03D1A 28352             +
 DROP   @CHKMEM-72,R13             28357    3337.              PSET  @SETFNAM
 USING  @SETFNAM-72,R13
 0037E0 D707 D048 D048 00000 00000 28377             +
 0037E6                            28378    3338.              PMOV  @SETFNA,RQISLOC
 0037E6 D203 D048 203C 00000 0003C 28382             +
1FILEMAN  (FILEMA) (09:39) (22MAR04) ORVYL'S File Manager                                                                   Page  165
0Current Usings:  (PZERO,R0) (RQWB,R2) (FSB,R3) (FILECB,R7) (M1FSTAT,R10) (M1FSTAT+4096,R11) (#STATWK-72,R12) (@SETFNAM-72,R13)
0Loc    Object Code    Addr1 Addr2  Stmt Lv Lineno    Source Statement           (Hibal 5, Asmedit 3.3)  HLASM R4.0  2004/03/22 09.39
+___    ______ ____    _____ _____  ____ __ ______    ______ _________
00037EC                            28383    3339.              PMOV  @SETFNL,RQISLEN
 0037EC D203 D04C 2034 00004 00034 28387             +
 0037F2 58F0 AA6C/0DEF       03D4C 28388    3340.              ACALL SETFNAME            Set file name
 0037F8 1200/4770 A96C       03C4C 28395    3341.              IF    (RVR,NZ),M1FSERVR   Invalid name
 0037FE 47F0 A9BA            03C9A 28412    3342.              B     M1FSEX00            Done
0003802                            28414    3344.     M1FS106  LABEL ,                   Read real block number
                                   28416    3345.     * Input: R1  = Data location
                                   28417    3346.     *        R15 = Data length
                                   28418    3347.     *        R14, byte 0 = File system id
                                   28419    3348.     *        R14, bytes 1-3 = Absolute block number
 003802 1F99/4390 2030       00030 28420    3349.              LC    RN,RQIBLK           Get file number
 003808 4D10 A8EC            03BCC 28427    3350.              BAS   RS,M1FSFSB          Set FSB pointer
 00380C 58F0 2034            00034 28428    3351.              L     R15,RQILEN
 003810 59F0 AA7C            03D5C 28429    3352.              IF    (R15,LT,4),M1FSPEC  Data length of at least 4
 003814 4740 A964            03C44 28443             +
 003818 49F0 30AC            000AC 28449    3353.              IF    (R15,GT,FSBDSZ),'LH R15,FSBDSZ' Not more than rec size
 00381C 47D0 A544            03824 28461             +
 003820 48F0 30AC            000AC 28467             +
 003824 50F0 2034            00034 28472    3354.              ST    R15,RQILEN
 DROP   @SETFNAM-72,R13            28473    3355.              CHKMEM RQIDAT,RQILEN,W    Check write protect
 USING  @CHKMEM-72,R13
 003828 D707 D048 D048 00000 00000 28494             +
 00382E D203 D048 203C 00000 0003C 28499             +
 003834 D201 D04C 2036 00004 00036 28504             +
 00383A D200 D04E 2021 00006 00021 28509             +
 003840 9680 D04F      00007       28515             +
 003844 58F0 AA58/0DEF       03D38 28521             +
 00384A 1200/4780 A574       03854 28523    3356.              IF    (RVR,NZ),'EXIT M1FSTAT' Denied
 003850 47F0 AA3A            03D1A 28540             +
 003854 1F11/BF17 2031       00031 28545    3357.              L3    RS,RQIBLK+1         Get block number
 00385A 5910 30E0            000E0 28551    3358.              IF    (RS,GE,FSBTBLK),M1FSPEC Not greater than max
 00385E 47A0 A964            03C44 28565             +
 003862 47F0 A9BA            03C9A 28571    3359.              B     M1FSEX00            Out of here
0003866                            28573    3361.     M1FS107  LABEL ,                   Set pseudo user
 003866 5810 206C            0006C 28575    3362.              L     RS,RQASFB
 USING  ASFB,R1                    28576    3363.              WITH  (ASFB,RS),BEGIN
 00386A                            28590  1 3364.                IF    (RQISACC,Z),'CLEAR ASFBPACC' Clear pseudo
 00386A D603 203C 203C 0003C 0003C 28600  1          +
 003870 4770 A59A            0387A 28601  1          +
 003874 D705 102A 102A 0002A 0002A 28613  1          +
 00387A A59E           0387A 03872 28618  1 3365.                ELSE  BEGIN               Set pseudo
 00387A 47F0 A606            038E6 28623  1          +
 00387E                            28629  2 3366.                  CHKMEM RQISACC,LA:L'RQNACC Check memory read
 00387E D707 D048 D048 00000 00000 28640  2          +
 003884 D203 D048 203C 00000 0003C 28645  2          +
 00388A 4100 0006            00006 28657  2          +
 00388E 4000 D04C            00004 28662  2          +
 003892 D200 D04E 2021 00006 00021 28667  2          +
 003898 58F0 AA58/0DEF       03D38 28673  2          +
 00389E 1200/4780 A5C8       038A8 28675  2 3367.                  IF    (RVR,NZ),'EXIT M1FSTAT' Denied
 0038A4 47F0 AA3A            03D1A 28692  2          +
 0038A8 58F0 203C            0003C 28697  2 3368.                  L     R15,RQISACC
1FILEMAN  (FILEMA) (09:39) (22MAR04) ORVYL'S File Manager                                                                   Page  166
0Current Usings:  (PZERO,R0) (ASFB,R1) (RQWB,R2) (FSB,R3) (FILECB,R7) (M1FSTAT,R10) (M1FSTAT+4096,R11) (#STATWK-72,R12) (@CHKMEM-72,R13)
0Loc    Object Code    Addr1 Addr2  Stmt Lv Lineno    Source Statement           (Hibal 5, Asmedit 3.3)  HLASM R4.0  2004/03/22 09.39
+___    ______ ____    _____ _____  ____ __ ______    ______ _________
00038AC D205 2008 F000 00008 00000 28698  2 3369.                  MVC   RQFACC,@R15         Set account name
 DROP   @CHKMEM-72,R13             28699  2 3370.                  CHKACC RQFACC
 USING  @CHKACC-72,R13
 0038B2 D709 D048 D048 00000 00000 28720  2          +
 0038B8 D205 D04C 2008 00004 00008 28725  2          +
 0038BE 58F0 AA5C/0DEF       03D3C 28731  2          +
 0038C4 D205 2008 D04C 00008 00004 28733  2          +
 0038CA 5830 D048/1200       00000 28734  2          +
 0038D0 5900 AA60            03D40 28736  2 3371.                  IF    (RVR,EQ,-8),M1FSERVR Bad account
 0038D4 4780 A96C            03C4C 28749  2          +
                                   28755  2 3372.     * Note: it may seem strange that magic accounts can't set
                                   28756  2 3373.     * a pseudo user until one realizes that they don't have to
                                   28757  2 3374.     * because they can already do anything.
 0038D8 9120 201D      0001D       28758  2 3375.                  IF    (RQPRIV.KWRIFSPR,Z),M1FSPEC Not special privilege
 0038DC 4780 A964            03C44 28773  2          +
 0038E0 D205 102A 2008 0002A 00008 28779  2 3376.                  MVC   ASFBPACC,RQFACC     Set pseudo
 0038E6                            28780  1 3377.                END   ,                   Set pseudo
 DROP   ASFB,R1                    28784    3378.              END   ,
 0038E6 47F0 A99C            03C7C 28792    3379.              B     M1FSWE00            Done
00038EA                            28794    3381.     M1FS108  LABEL ,                   Turn file system read only on/off
                                   28796    3382.     * Input: R1 = Data location for file system name
                                   28797    3383.     *                    -or-
                                   28798    3384.     *             File system number
 0038EA 5890 203C            0003C 28799    3385.              L     RN,RQIDAT           Get file system name ptr
 0038EE 4D10 A8EC            03BCC 28800    3386.              BAS   RS,M1FSFSB          Edit file system name
 0038F2 58F0 2034            00034 28801    3387.              L     R15,RQISTYP         Request type
 0038F6 12FF/4770 A624       03904 28802    3388.              IF    (R15,Z),BEGIN       Clear read only
 0038FC 9140 3009      00009       28816  1 3389.                IF    ~FSBARO,M1FSBA44    Not read only already
 003900 47E0 A974            03C54 28828  1          +
 003904                            28834    3390.              END   ,
 003904 A628           03904 038FA 28838    3391.              ELSEIF (R15,EQ,4),BEGIN   Set to read only
 003904 47F0 A638            03918 28844             +
 003908 59F0 AA7C            03D5C 28858             +
 00390C 4770 A638            03918 28859             +
 003910 9140 3009      00009       28864  1 3392.                IF    FSBARO,M1FSBA44     Already read only
 003914 4710 A974            03C54 28876  1          +
 003918                            28882    3393.              END   ,
 003918 A63C           03918 0390E 28886    3394.              ELSEIF (R15,EQ,8),BEGIN   Set to available
 003918 47F0 A64C            0392C 28892             +
 00391C 59F0 AA80            03D60 28906             +
 003920 4770 A64C            0392C 28907             +
 003924 9180 3009      00009       28912  1 3395.                IF    ~FSBANAVL,M1FSBA44  Already available
 003928 47E0 A974            03C54 28924  1          +
 00392C                            28930    3396.              END   ,
 00392C A650           0392C 03922 28934    3397.              ELSEIF (R15,EQ,12),BEGIN  Set to unavailable
 00392C 47F0 A660            03940 28940             +
 003930 59F0 AA84            03D64 28954             +
 003934 4770 A660            03940 28955             +
 003938 9180 3009      00009       28960  1 3398.                IF    FSBANAVL,M1FSBA44   Already unavailable
 00393C 4710 A974            03C54 28972  1          +
 003940                            28978    3399.              END   ,
 003940 A97E           03940 03936 28982    3400.              ELSE  M1FSBACC            Error
 003940 47F0 A9BA            03C9A 28987    3401.              B     M1FSEX00            Out of here
1FILEMAN  (FILEMA) (09:39) (22MAR04) ORVYL'S File Manager                                                                   Page  167
0Current Usings:  (PZERO,R0) (RQWB,R2) (FSB,R3) (FILECB,R7) (M1FSTAT,R10) (M1FSTAT+4096,R11) (#STATWK-72,R12) (@CHKACC-72,R13)
0Loc    Object Code    Addr1 Addr2  Stmt Lv Lineno    Source Statement           (Hibal 5, Asmedit 3.3)  HLASM R4.0  2004/03/22 09.39
+___    ______ ____    _____ _____  ____ __ ______    ______ _________
0003944                            28989    3403.     M1FS109  LABEL ,                   Write real block number
                                   28991    3404.     * Input: R1  = Data location
                                   28992    3405.     *        R15, bytes 0-1 = Record type
                                   28993    3406.     *        R15, bytes 2-3 = Data length
                                   28994    3407.     *        R14, byte 0 = File system id
                                   28995    3408.     *        R14, bytes 1-3 = Absolute block number
 003944 1F99/4390 2030       00030 28996    3409.              LC    RN,RQIBLK           Get file number
 00394A 4D10 A8EC            03BCC 29003    3410.              BAS   RS,M1FSFSB          Set FSB pointer
 00394E 4810 2036            00036 29004    3411.              LH    RS,RQILEN+2         Get length
 003952 4910 30AC            000AC 29005    3412.              IF    (RS,GT,FSBDSZ),M1FSPEC Not more than record size
 003956 4720 A964            03C44 29019             +
 DROP   @CHKACC-72,R13             29025    3413.              CHKMEM RQIDAT,(RS)        Check read protect
 USING  @CHKMEM-72,R13
 00395A D707 D048 D048 00000 00000 29046             +
 003960 D203 D048 203C 00000 0003C 29051             +
 003966 4010 D04C            00004 29061             +
 00396A D200 D04E 2021 00006 00021 29066             +
 003970 58F0 AA58/0DEF       03D38 29072             +
 003976 1200/4780 A6A0       03980 29074    3414.              IF    (RVR,NZ),'EXIT M1FSTAT' Denied
 00397C 47F0 AA3A            03D1A 29091             +
 003980 1F11/BF17 2031       00031 29096    3415.              L3    RS,RQIBLK+1         Get block number
 003986 5910 30E0            000E0 29102    3416.              IF    (RS,GE,FSBTBLK),M1FSPEC Not greater than max
 00398A 47A0 A964            03C44 29116             +
 00398E 47F0 A9BA            03C9A 29122    3417.              B     M1FSEX00            Out of here
0003992                            29124    3419.     M1FS110  LABEL ,     Update first block for file
 003992                            29126    3420.              CHKMEM RQISLOC,L:RQISLEN  Check read access
 003992 D707 D048 D048 00000 00000 29137             +
 003998 D203 D048 203C 00000 0003C 29142             +
 00399E D201 D04C 2036 00004 00036 29147             +
 0039A4 D200 D04E 2021 00006 00021 29152             +
 0039AA 58F0 AA58/0DEF       03D38 29158             +
 0039B0 1200/4780 A6DA       039BA 29160    3421.              IF    (RVR,NZ),'EXIT M1FSTAT' Denied
 0039B6 47F0 AA3A            03D1A 29177             +
 DROP   @CHKMEM-72,R13             29182    3422.              PSET  @SETFNAM
 USING  @SETFNAM-72,R13
 0039BA D707 D048 D048 00000 00000 29202             +
 0039C0                            29203    3423.              PMOV  @SETFNA,RQISLOC
 0039C0 D203 D048 203C 00000 0003C 29207             +
 0039C6                            29208    3424.              PMOV  @SETFNL,RQISLEN
 0039C6 D203 D04C 2034 00004 00034 29212             +
 0039CC 58F0 AA6C/0DEF       03D4C 29213    3425.              ACALL SETFNAME            Set file name
 0039D2 1200/4770 A96C       03C4C 29220    3426.              IF    (RVR,NZ),M1FSERVR   Invalid name
 0039D8 5830 2024            00024 29237    3427.              L     RB,RQFSB            Point to FSB
 0039DC                            29238    3428.              IF    (RQIBLK,GE,FSBTBLK),M1FSPEC
 0039DC D503 2030 30E0 00030 000E0 29250             +
 0039E2 47A0 A964            03C44 29253             +
 0039E6 47F0 A9BA            03C9A 29259    3429.              B     M1FSEX00
00039EA                            29261    3431.     M1FS111  LABEL ,                   Return catalog entry
 0039EA                            29263    3432.              IF    (RQISLEN,LT,=A(L'NTRYGR)),M1FSPEC At least one
 0039EA D503 AA88 2034 03D68 00034 29274             +
 0039F0 4720 A964            03C44 29277             +
 0039F4 47F0 A172            03452 29283    3433.              B     M1FS02A             The rest is the same as 2
1FILEMAN  (FILEMA) (09:39) (22MAR04) ORVYL'S File Manager                                                                   Page  168
0Current Usings:  (PZERO,R0) (RQWB,R2) (FSB,R3) (FILECB,R7) (M1FSTAT,R10) (M1FSTAT+4096,R11) (#STATWK-72,R12) (@SETFNAM-72,R13)
0Loc    Object Code    Addr1 Addr2  Stmt Lv Lineno    Source Statement           (Hibal 5, Asmedit 3.3)  HLASM R4.0  2004/03/22 09.39
+___    ______ ____    _____ _____  ____ __ ______    ______ _________
00039F8                            29285    3435.     M1FS112  LABEL ,              Given file sys id or name, return both
 0039F8                            29287    3436.              IF    (RQISLEN,LT,=A(9)),M1FSPEC At least one
 0039F8 D503 AA8C 2034 03D6C 00034 29298             +
 0039FE 4720 A964            03C44 29301             +
 003A02 5890 2030            00030 29307    3437.              L     RN,RQISFIL          Get file id or name
 003A06 4D10 A8EC            03BCC 29308    3438.              BAS   RS,M1FSFSB          Edit file system name
 DROP   @SETFNAM-72,R13            29309    3439.              CHKMEM RQISLOC,L:RQISLEN,W Check write access
 USING  @CHKMEM-72,R13
 003A0A D707 D048 D048 00000 00000 29330             +
 003A10 D203 D048 203C 00000 0003C 29335             +
 003A16 D201 D04C 2036 00004 00036 29340             +
 003A1C D200 D04E 2021 00006 00021 29345             +
 003A22 9680 D04F      00007       29351             +
 003A26 58F0 AA58/0DEF       03D38 29357             +
 003A2C 1200/4780 A756       03A36 29359    3440.              IF    (RVR,NZ),'EXIT M1FSTAT' Denied
 003A32 47F0 AA3A            03D1A 29376             +
 003A36 58E0 203C            0003C 29381    3441.              L     R14,RQISLOC
 003A3A D200 E000 3008 00000 00008 29382    3442.              MVC   @R14(L'FSBID),FSBID Get the info
 003A40 D207 E001 3018 00001 00018 29383    3443.              MVC   @R14+L'FSBID(L'FSBNAME),FSBNAME
 003A46 47F0 A99C            03C7C 29384    3444.              B     M1FSWE00            Done
0003A4A                            29386    3446.     M1FS113  LABEL ,          Return file system id and name for group
 003A4A                            29388    3447.              IF    (RQISLEN,LT,=A(9)),M1FSPEC At least one
 003A4A D503 AA8C 2034 03D6C 00034 29399             +
 003A50 4720 A964            03C44 29402             +
 003A54                            29408    3448.              CHKMEM RQISLOC,L:RQISLEN,W Check write access
 003A54 D707 D048 D048 00000 00000 29419             +
 003A5A D203 D048 203C 00000 0003C 29424             +
 003A60 D201 D04C 2036 00004 00036 29429             +
 003A66 D200 D04E 2021 00006 00021 29434             +
 003A6C 9680 D04F      00007       29440             +
 003A70 58F0 AA58/0DEF       03D38 29446             +
 003A76 1200/4780 A7A0       03A80 29448    3449.              IF    (RVR,NZ),'EXIT M1FSTAT' Denied
 003A7C 47F0 AA3A            03D1A 29465             +
 003A80                            29470    3450.              CHKMEM RQISUSB,LA:2       Check read protect for group
 003A80 D707 D048 D048 00000 00000 29481             +
 003A86 D203 D048 2030 00000 00030 29486             +
 003A8C 4100 0002            00002 29498             +
 003A90 4000 D04C            00004 29503             +
 003A94 D200 D04E 2021 00006 00021 29508             +
 003A9A 58F0 AA58/0DEF       03D38 29514             +
 003AA0 1200/4780 A7CA       03AAA 29516    3451.              IF    (RVR,NZ),'EXIT M1FSTAT' Denied
 003AA6 47F0 AA3A            03D1A 29533             +
 003AAA 58E0 2030            00030 29538    3452.              L     R14,RQISUSB
 003AAE D201 C048 E000 00000 00000 29539    3453.              MVC   #STATGRP,@R14       Get group id
 003AB4 D203 C04A AA90 00002 03D70 29540    3454.              MVC   #STATDFF,=C'.DFF'   Dummy user
 DROP   @CHKMEM-72,R13             29541    3455.              CHKACC #STATACC           Get FSB
 USING  @CHKACC-72,R13
 003ABA D709 D048 D048 00000 00000 29562             +
 003AC0 D205 D04C C048 00004 00000 29567             +
 003AC6 58F0 AA5C/0DEF       03D3C 29573             +
 003ACC D205 C048 D04C 00000 00004 29575             +
 003AD2 5830 D048/1200       00000 29576             +
 003AD8 4770 A96C            03C4C 29578    3456.              IF    NZ,M1FSERVR         Bad group
1FILEMAN  (FILEMA) (09:39) (22MAR04) ORVYL'S File Manager                                                                   Page  169
0Current Usings:  (PZERO,R0) (RQWB,R2) (FSB,R3) (FILECB,R7) (M1FSTAT,R10) (M1FSTAT+4096,R11) (#STATWK-72,R12) (@CHKACC-72,R13)
0Loc    Object Code    Addr1 Addr2  Stmt Lv Lineno    Source Statement           (Hibal 5, Asmedit 3.3)  HLASM R4.0  2004/03/22 09.39
+___    ______ ____    _____ _____  ____ __ ______    ______ _________
0003ADC 58E0 203C            0003C 29592    3457.              L     R14,RQISLOC
 003AE0 D200 E000 3008 00000 00008 29593    3458.              MVC   @R14(L'FSBID),FSBID Get the info
 003AE6 D207 E001 3018 00001 00018 29594    3459.              MVC   @R14+L'FSBID(L'FSBNAME),FSBNAME
 003AEC 47F0 A99C            03C7C 29595    3460.              B     M1FSWE00            Done
0003AF0                            29597    3462.     M1FS114  LABEL ,                   Return group/filesys table
 003AF0                            29599    3463.              IF    (RQISLEN,LT,=A(36*26)),M1FSPEC At least one
 003AF0 D503 AA94 2034 03D74 00034 29610             +
 003AF6 4720 A964            03C44 29613             +
 DROP   @CHKACC-72,R13             29619    3464.              CHKMEM RQISLOC,L:RQISLEN,W Check write access
 USING  @CHKMEM-72,R13
 003AFA D707 D048 D048 00000 00000 29640             +
 003B00 D203 D048 203C 00000 0003C 29645             +
 003B06 D201 D04C 2036 00004 00036 29650             +
 003B0C D200 D04E 2021 00006 00021 29655             +
 003B12 9680 D04F      00007       29661             +
 003B16 58F0 AA58/0DEF       03D38 29667             +
 003B1C 1200/4780 A846       03B26 29669    3465.              IF    (RVR,NZ),'EXIT M1FSTAT' Denied
 003B22 47F0 AA3A            03D1A 29686             +
 003B26 5800 7010            00010 29691    3466.              L     RVR,FILEFSGT
 003B2A 5810 AA94            03D74 29692    3467.              L     RS,=A(36*26)
 003B2E 58E0 203C            0003C 29693    3468.              L     R14,RQISLOC
 003B32 58F0 2034            00034 29694    3469.              L     R15,RQISLEN
 003B36 0EE0                       29695    3470.              MVCL  R14,RVR             Get the table
 003B38 D203 204C 700C 0004C 0000C 29696    3471.              MVC   RQRLEN,FILEFSBC     Return count of file systems
 003B3E 47F0 A99C            03C7C 29697    3472.              B     M1FSWE00            Done
0003B42                            29699    3474.     M1FS115  LABEL ,                   Read real block header
                                   29701    3475.     * Input: R1  = Data location
                                   29702    3476.     *        R15 = Data length
                                   29703    3477.     *        R14, byte 0 = File system id
                                   29704    3478.     *        R14, bytes 1-3 = Absolute block number
 003B42 58F0 2034            00034 29705    3479.              L     R15,RQILEN
 003B46 59F0 AA7C            03D5C 29706    3480.              IF    (R15,LT,4),M1FSPEC  Data length of at least 4
 003B4A 4740 A964            03C44 29720             +
 003B4E 59F0 AA98            03D78 29726    3481.              IF    (R15,GT,32),M1FSPEC Not more than header size
 003B52 4720 A964            03C44 29740             +
 003B56                            29746    3482.              CHKMEM RQIDAT,RQILEN,W    Check write protect
 003B56 D707 D048 D048 00000 00000 29757             +
 003B5C D203 D048 203C 00000 0003C 29762             +
 003B62 D201 D04C 2036 00004 00036 29767             +
 003B68 D200 D04E 2021 00006 00021 29772             +
 003B6E 9680 D04F      00007       29778             +
 003B72 58F0 AA58/0DEF       03D38 29784             +
 003B78 1200/4780 A8A2       03B82 29786    3483.              IF    (RVR,NZ),'EXIT M1FSTAT' Denied
 003B7E 47F0 AA3A            03D1A 29803             +
 003B82 1F99/4390 2030       00030 29808    3484.              LC    RN,RQIBLK           Get file number
 003B88 4D10 A8EC            03BCC 29815    3485.              BAS   RS,M1FSFSB          Set FSB pointer
 003B8C 1F11/BF17 2031       00031 29816    3486.              L3    RS,RQIBLK+1         Get block number
 003B92 5910 30E0            000E0 29822    3487.              IF    (RS,GE,FSBTBLK),M1FSPEC Not greater than max
 003B96 47A0 A964            03C44 29836             +
 003B9A 47F0 A9BA            03C9A 29842    3488.              B     M1FSEX00            Out of here
0003B9E                            29844    3490.     M1FS116  LABEL ,                   Get contiguous range of blocks
1FILEMAN  (FILEMA) (09:39) (22MAR04) ORVYL'S File Manager                                                                   Page  170
0Current Usings:  (PZERO,R0) (RQWB,R2) (FSB,R3) (FILECB,R7) (M1FSTAT,R10) (M1FSTAT+4096,R11) (#STATWK-72,R12) (@CHKMEM-72,R13)
0Loc    Object Code    Addr1 Addr2  Stmt Lv Lineno    Source Statement           (Hibal 5, Asmedit 3.3)  HLASM R4.0  2004/03/22 09.39
+___    ______ ____    _____ _____  ____ __ ______    ______ _________
0                                  29846    3491.     *        R1, byte 0 = File system id
                                   29847    3492.     *        R1, bytes 1-3 = Block count
 003B9E 1F99/4390 203C       0003C 29848    3493.              LC    RN,RQIS116          Get file number
 003BA4 4D10 A8EC            03BCC 29855    3494.              BAS   RS,M1FSFSB          Set FSB pointer
 003BA8 1F11/BF17 203D       0003D 29856    3495.              L3    RS,RQIS116+1        Get block number
 003BAE 5910 30E0            000E0 29862    3496.              IF    (RS,GE,FSBTBLK),M1FSPEC Not greater than max
 003BB2 47A0 A964            03C44 29876             +
 003BB6 47F0 A9BA            03C9A 29882    3497.              B     M1FSEX00            Out of here
0003BBA                            29884    3499.     M1FS117  LABEL ,                   Suspend program execution
 003BBA 58F0 203C/12FF       0003C 29886    3500.              LT    R15,RQIS117
 003BC0 47D0 A964            03C44 29890    3501.              IF    NP,M1FSPEC          Must be positive
 003BC4 9608 2007      00007       29904    3502.              SET   RQAS117             Status 117 in progress
 003BC8 47F0 A9BA            03C9A 29910    3503.              B     M1FSEX00            Out of here
0003BCC                            29912    3505.     M1FSFSB  LABEL ,
 003BCC 5990 AA9C            03D7C 29914    3506.              IF    (RN,GE,255),BEGIN   Must be file name
 003BD0 4750 A93C            03C1C 29926             +
 003BD4                            29931  1 3507.                CHKMEM (RN),LA:L'FSBNAME Check read protect
 003BD4 D707 D048 D048 00000 00000 29942  1          +
 003BDA 5090 D048            00000 29952  1          +
 003BDE 4100 0008            00008 29964  1          +
 003BE2 4000 D04C            00004 29969  1          +
 003BE6 D200 D04E 2021 00006 00021 29974  1          +
 003BEC 58F0 AA58/0DEF       03D38 29980  1          +
 003BF2 1200/4780 A91C       03BFC 29982  1 3508.                IF    (RVR,NZ),'EXIT M1FSTAT' Denied
 003BF8 47F0 AA3A            03D1A 29999  1          +
 003BFC 5830 7008            00008 30004  1 3509.                L     RB,FILEFFSB         Point to first FSB
 003C00 5800 700C            0000C 30005  1 3510.                L     R0,FILEFSBC         Count of FSB's
 003C04                            30006  1 3511.                LOOP  BEGIN
 003C04 D507 3018 9000 00018 00000 30012  2 3512.                  CLC   FSBNAME,@RN
 003C0A 4780 A936            03C16 30013  2 3513.                  IF    EQ,EXIT             Found
 003C0E 5830 3004            00004 30027  2 3514.                  L     RB,FSBCHAIN         Next in chain
 003C12 4600 A924            03C04 30028  1 3515.                UNTIL (BCT,R0),END
 003C16 1200/4780 A988       03C68 30038  1 3516.                IF    (R0,Z),M1FSBAD8     Invalid file system name
 003C1C                            30055    3517.              END   ,                   Must be file name
 003C1C A940           03C1C 03BD2 30059    3518.              ELSE  BEGIN               Must be file ID
 003C1C 47F0 A95E            03C3E 30064             +
 003C20 5830 7008            00008 30070  1 3519.                L     RB,FILEFFSB         Point to first FSB
 003C24 5800 700C            0000C 30071  1 3520.                L     R0,FILEFSBC         Count of FSB's
 003C28                            30072  1 3521.                LOOP  BEGIN
 003C28 BD91 3008            00008 30078  2 3522.                  IF    (RN,EQ,FSBID),EXIT
 003C2C 4780 A958            03C38 30092  2          +
 003C30 5830 3004            00004 30098  2 3523.                  L     RB,FSBCHAIN         Next in chain
 003C34 4600 A948            03C28 30099  1 3524.                UNTIL (BCT,R0),END
 003C38 1200/4780 A992       03C72 30109  1 3525.                IF    (R0,Z),M1FSBADC     File system not available
 003C3E                            30126    3526.              END   ,                   Must be file ID
 003C3E 5030 2024            00024 30130    3527.              ST    RB,RQFSB            Set pointer to FSB
 003C42 07F1                       30131    3528.              BR    RS
0003C44                            30133    3530.     M1FSPEC  LABEL ,
 003C44 5800 AAA0            03D80 30135    3531.              L     RVR,=X'80000006'    Specification
 003C48 47F0 AA3A            03D1A 30136    3532.              EXIT  M1FSTAT
1FILEMAN  (FILEMA) (09:39) (22MAR04) ORVYL'S File Manager                                                                   Page  171
0Current Usings:  (PZERO,R0) (RQWB,R2) (FSB,R3) (FILECB,R7) (M1FSTAT,R10) (M1FSTAT+4096,R11) (#STATWK-72,R12) (@CHKMEM-72,R13)
0Loc    Object Code    Addr1 Addr2  Stmt Lv Lineno    Source Statement           (Hibal 5, Asmedit 3.3)  HLASM R4.0  2004/03/22 09.39
+___    ______ ____    _____ _____  ____ __ ______    ______ _________
0003C4C                            30140    3534.     M1FSERVR LABEL ,
 003C4C 5000 2044            00044 30142    3535.              ST    RVR,RQRETC          Set error return
 003C50 47F0 A9AE            03C8E 30143    3536.              B     M1FSERRX
0003C54                            30145    3538.     M1FSBA44 LABEL ,
 003C54 D203 2044 AAA4 00044 03D84 30147    3539.              MVC   RQRETC,=F'4'
 003C5A 47F0 A9AE            03C8E 30148    3540.              B     M1FSERRX
0003C5E                            30150    3542.     M1FSBACC LABEL ,
 003C5E D203 2044 AAA8 00044 03D88 30152    3543.              MVC   RQRETC,=F'12'
 003C64 47F0 A9AE            03C8E 30153    3544.              B     M1FSERRX
0003C68                            30155    3546.     M1FSBAD8 LABEL ,
 003C68 D203 2044 AAAC 00044 03D8C 30157    3547.              MVC   RQRETC,=F'-8'
 003C6E 47F0 A9AE            03C8E 30158    3548.              B     M1FSERRX
0003C72                            30160    3550.     M1FSBADC LABEL ,
 003C72 D203 2044 AAB0 00044 03D90 30162    3551.              MVC   RQRETC,=F'-12'
 003C78 47F0 A9AE            03C8E 30163    3552.              B     M1FSERRX
0003C7C                            30165    3554.     M1FSWE00 LABEL ,                   Set wait return to zero
 003C7C                            30167    3555.              CLEAR RQWRETC
 003C7C D703 2054 2054 00054 00054 30173             +
 003C82 9680 2020      00020       30174    3556.              SET   RQRFRE              Done with RQFB
 003C86 4100 0001            00001 30180    3557.              LA    RVR,1               No IO
 003C8A 47F0 A9C0            03CA0 30181    3558.              B     M1FSEXIT            Continue
0003C8E                            30183    3560.     M1FSERRX LABEL ,                   No IO for this one
 003C8E 9680 2020      00020       30185    3561.              SET   RQRFRE              Done with RQFB
 003C92 4100 0001            00001 30191    3562.              LA    RVR,1               No IO
 003C96 47F0 AA3A            03D1A 30192    3563.              EXIT  M1FSTAT
0003C9A                            30196    3565.     M1FSEX00 LABEL ,
 003C9A 1B00                       30198    3566.              CLEAR RVR                 Clear return code
 003C9C 47F0 A9C0            03CA0 30202    3567.              B     M1FSEXIT
0003CA0                            30204    3569.     M1FSEXIT LABEL ,
 003CA0 5830 2024            00024 30206    3570.              L     RB,RQFSB            Reset pointer
 003CA4                            30207    3571.              IF    (RQFACC,EQ,FSBOWNER),'SET RQAMAG' File system owner
 003CA4 D505 2008 3020 00008 00020 30219             +
 003CAA 4770 A9D2            03CB2 30220             +
 003CAE 9640 2007      00007       30231             +
 003CB2                            30236    3572.              IF    (RQNACC,EQ,RQFACC),'SET RQAOWN'   File owner
 003CB2 D505 207C 2008 0007C 00008 30248             +
 003CB8 4770 A9E0            03CC0 30249             +
 003CBC 9680 2007      00007       30260             +
 003CC0 58E0 2038            00038 30265    3573.              L     R14,RQISTAT         Get status type
 003CC4 59E0 AA48            03D28 30266    3574.              IF    (R14,GE,100),BEGIN  Adjust for big status
 003CC8 4750 AA0A            03CEA 30278             +
 003CCC 4BE0 AAB8            03D98 30283  1 3575.                SH    R14,=Y(100-((RTNTABSX-RTNTABS)/(L'RTNTABS*2)))
 003CD0 9140 2007      00007       30284  1 3576.                IF    ~RQAMAG,BEGIN
 003CD4 4710 AA0A            03CEA 30294  1          +
 003CD8 1FFF/43FE B2C8       045A8 30299  2 3577.                  LC    R15,STATPRIV(R14)   These are privileged stats
 003CDE 1F11/4310 201D       0001D 30306  2 3578.                  LC    RS,RQPRIV           Get privileges
1FILEMAN  (FILEMA) (09:39) (22MAR04) ORVYL'S File Manager                                                                   Page  172
0Current Usings:  (PZERO,R0) (RQWB,R2) (FSB,R3) (FILECB,R7) (M1FSTAT,R10) (M1FSTAT+4096,R11) (#STATWK-72,R12) (@CHKMEM-72,R13)
0Loc    Object Code    Addr1 Addr2  Stmt Lv Lineno    Source Statement           (Hibal 5, Asmedit 3.3)  HLASM R4.0  2004/03/22 09.39
+___    ______ ____    _____ _____  ____ __ ______    ______ _________
0003CE4 141F/4780 A964       03C44 30313  2 3579.                  IF    ('NR RS,R15',Z),M1FSPEC Under privileged
 003CEA                            30329  1 3580.                END   ,
 003CEA                            30333    3581.              END   ,
 003CEA 1FFF/43FE B2E2       045C2 30337    3582.              LC    R15,M1FSIOTP(R14)   Get IO type
 003CF0 59F0 AAB4            03D94 30344    3583.              IF    ((R15,EQ,2),AND,FSBARO),M1FSBADC Not available
 003CF4 4770 AA20            03D00 30358             +
 003CF8 9140 3009      00009       30369             +
 003CFC 4710 A992            03C72 30372             +
 003D00 12FF/4780 AA2E       03D0E 30378    3584.              IF    ((R15,NZ),AND,FSBANAVL),M1FSBADC Not available
 003D06 9180 3009      00009       30400             +
 003D0A 4710 A992            03C72 30403             +
0003D0E                            30410    3586.              CLEAR RQRETC              Clear return code
 003D0E D703 2044 2044 00044 00044 30416             +
 003D14 D203 2048 2064 00048 00064 30417    3587.              MVC   RQRFID,RQFIID       Set file id
0003D1A 981F C008            00008 30419    3589.              PEND  ,
 DROP   FILECB,R7
 DROP   FSB,R3
 DROP   RQWB,R2
 DROP   #STATWK-72,R12
 DROP   M1FSTAT+4096,R11
 DROP   M1FSTAT,R10
 003D1E 9680 C000/0B0E 00000       30454             +
 DROP   @CHKMEM-72,R13
 003D28                            30463    3590.              LTORG ,
 003D28 00000064                   30465                             =A(100)
 003D2C 00000008                   30466                             =A((RTNTABSX-RTNTABS)/(L'RTNTABS*2))
 003D30 000044E0                   30467                             =A(RTNTABS)
 003D34 000045A8                   30468                             =A(RTNTABSM)
 003D38 000054D2                   30469                             =A(CHKMEM)
 003D3C 0000537C                   30470                             =A(CHKACC)
 003D40 FFFFFFF8                   30471                             =A(-8)
 003D44 00000038                   30472                             =A(56)
 003D48 D6D9E54B                   30473                             =C'ORV.'
 003D4C 000047C2                   30474                             =A(SETFNAME)
 003D50 00000007                   30475                             =A(L'NTRYPR)
 003D54 00FFFFFF                   30476                             =X'00FFFFFF'
 003D58 0000000E                   30477                             =A(14)
 003D5C 00000004                   30478                             =A(4)
 003D60 00000008                   30479                             =A(8)
 003D64 0000000C                   30480                             =A(12)
 003D68 0000001A                   30481                             =A(L'NTRYGR)
 003D6C 00000009                   30482                             =A(9)
 003D70 4BC4C6C6                   30483                             =C'.DFF'
 003D74 000003A8                   30484                             =A(36*26)
 003D78 00000020                   30485                             =A(32)
 003D7C 000000FF                   30486                             =A(255)
 003D80 80000006                   30487                             =X'80000006'
 003D84 00000004                   30488                             =F'4'
 003D88 0000000C                   30489                             =F'12'
 003D8C FFFFFFF8                   30490                             =F'-8'
 003D90 FFFFFFF4                   30491                             =F'-12'
 003D94 00000002                   30492                             =A(2)
1FILEMAN  (FILEMA) (09:39) (22MAR04) ORVYL'S File Manager                                                                   Page  173
0Current Usings:  (PZERO,R0)
0Loc    Object Code    Addr1 Addr2  Stmt Lv Lineno    Source Statement           (Hibal 5, Asmedit 3.3)  HLASM R4.0  2004/03/22 09.39
+___    ______ ____    _____ _____  ____ __ ______    ______ _________
0003D98 005C           03D9A 06510 30493                             =Y(100-((RTNTABSX-RTNTABS)/(L'RTNTABS*2)))
1FILEMAN  (FILEMA) (09:39) (22MAR04) ORVYL'S File Manager                                                                   Page  174
0Current Usings:  (PZERO,R0)
0Loc    Object Code    Addr1 Addr2  Stmt Lv Lineno    Source Statement           (Hibal 5, Asmedit 3.3)  HLASM R4.0  2004/03/22 09.39
+___    ______ ____    _____ _____  ____ __ ______    ______ _________
0                                  30498    3592.     *---------------------------------------------------------------------*
                                   30499    3593.     *  M1ISTAT - File STATUS processing, IO part
                                   30500    3594.     *
                                   30501    3595.     *   Inputs - RA points to RQWB (note: there is no file attached for
                                   30502    3596.     *            status processing)
                                   30503    3597.     *
                                   30504    3598.     *   Output -
                                   30505    3599.     *---------------------------------------------------------------------*
 003D9A                            30506    3600.     M1ISTAT  PROC
 003D9A D4F1C9E2E3C1E340           30513             +
 003DA2 0000/0000                  30514             +
 003DA6 900F D004/18AF       00004 30516             +
 USING  M1ISTAT,R10
 003DAC 50D0 C000/18CD       00000 30531             +
 003DB2 9680 C000      00000       30533             +
 003DB6 41D0 C048            00048 30534             +
 USING  RQWB,R2                    30535    3601.              WITH  (RQWB,RA)
 003DBA 5830 2024            00024 30548    3602.              L     RB,RQFSB
 USING  FSB,R3                     30549    3603.              WITH  (FSB,RB)
0003DBE 9680 2020      00020       30563    3605.              SET   RQRFRE              Free RQFB when done, no matter what
0003DC2 58E0 2038            00038 30570    3607.              L     R14,RQISTAT         Get status type
 003DC6 59E0 A83A            045E0 30571    3608.              IF    (R14,GE,100),BEGIN  Adjust for big status
 003DCA 4750 A02C            03DD2 30583             +
 003DCE 4BE0 A8CA            04670 30588  1 3609.                SH    R14,=Y(100-((RTNTABSX-RTNTABS)/(L'RTNTABS*2)))
 003DD2                            30589    3610.              END   ,
 003DD2 89E0 0003            00003 30593    3611.              SLL   R14,3               Times eight
 003DD6 58EE A73E            044E4 30594    3612.              L     R14,RTNTABS+4(R14)  Get routine address
 003DDA 07FE                       30595    3613.              BR    R14                 Just do it!
0003DDC                            30597    3615.     M1IS00   LABEL ,                   Assigning Global File Access
 USING  @FCXTND-72,R13             30599    3616.              PSET  @FCXTND
 003DDC D717 D048 D048 00000 00000 30616             +
 003DE2 5030 D048            00000 30617    3617.              PMOV  @FCXFSB,LA:FSB
 003DE6                            30628    3618.              PMOV  @FCXUSR,RQACCNA     User receiving privileges
 003DE6 D205 D04C 20A4 00004 000A4 30632             +
 003DEC                            30633    3619.              PMOV  @FCXUSO,RQACCNB     File owner
 003DEC D205 D052 20AA 0000A 000AA 30637             +
 003DF2                            30638    3620.              PMOV  @FCXUSE,RQFACC      User extending privileges
 003DF2 D205 D058 2008 00010 00008 30642             +
 003DF8                            30643    3621.              PMOV  @FCXPRI,RQISPRM     Set permits being assigned
 003DF8 D200 D05E 203F 00016 0003F 30647             +
 003DFE 9140 2007      00007       30648    3622.              IF    RQAMAG,'SET @FCXFM' Set to magic account
 003E02 47E0 A064            03E0A 30658             +
 003E06 9680 D05F      00017       30669             +
 003E0A 58F0 A83E/0DEF       045E4 30674    3623.              VCALL FCATXTND            Go do it
 003E10 5000 2044            00044 30678    3624.              ST    RVR,RQRETC          Set return code
 003E14 47F0 A730            044D6 30679    3625.              EXIT  M1ISTAT             Done
0003E18                            30683    3627.     M1IS01   LABEL ,                   Assigning Global Pubic Access
 DROP   @FCXTND-72,R13             30685    3628.              PSET  @FCEPUB
 USING  @FCEPUB-72,R13
 003E18 D70A D048 D048 00000 00000 30705             +
1FILEMAN  (FILEMA) (09:39) (22MAR04) ORVYL'S File Manager                                                                   Page  175
0Current Usings:  (PZERO,R0) (RQWB,R2) (FSB,R3) (M1ISTAT,R10) (@FCEPUB-72,R13)
0Loc    Object Code    Addr1 Addr2  Stmt Lv Lineno    Source Statement           (Hibal 5, Asmedit 3.3)  HLASM R4.0  2004/03/22 09.39
+___    ______ ____    _____ _____  ____ __ ______    ______ _________
0003E1E 5030 D048            00000 30706    3629.              PMOV  @FCEPFSB,LA:FSB
 003E22                            30717    3630.              PMOV  @FCEPACC,RQFACC     Signed on account
 003E22 D205 D04C 2008 00004 00008 30721             +
 003E28                            30722    3631.              PMOV  @FCEPPUB,RQISPRM    Set permits
 003E28 D200 D052 203F 0000A 0003F 30726             +
 003E2E 58F0 A842/0DEF       045E8 30727    3632.              VCALL FCATEPUB            Set public permits
 003E34 5000 2044            00044 30731    3633.              ST    RVR,RQRETC          Set return code
 003E38 47F0 A730            044D6 30732    3634.              EXIT  M1ISTAT
0003E3C                            30736    3636.     M1IS02   LABEL ,                   List files names
 DROP   @FCEPUB-72,R13             30738    3637.              PSET  @FCFLIS
 USING  @FCFLIS-72,R13
 003E3C D73E D048 D048 00000 00000 30758             +
 003E42 5030 D048            00000 30759    3638.              PMOV  @FCFLFSB,LA:FSB
 003E46                            30770    3639.              PMOV  @FCFLLOC,RQISLOC    File name buffer
 003E46 D203 D04C 203C 00004 0003C 30774             +
 003E4C                            30775    3640.              PMOV  @FCFLLEN,RQISLEN    Buffer len
 003E4C D203 D050 2034 00008 00034 30779             +
 003E52                            30780    3641.              PMOV  @FCFLNAM,RQNAMS     Start file name
 003E52 D227 D05F 207C 00017 0007C 30784             +
 003E58 9140 201D      0001D       30785    3642.              IF    (RQPRIV.KWRIFAPR,Z),BEGIN Not special privilege
 003E5C 4770 A0D0            03E76 30798             +
 003E60 9140 2007      00007       30803  1 3643.                IF    (~RQAMAG,AND,~RQAOWN),'PMOV @FCFLUSE,RQFACC'
 003E64 4710 A0D0            03E76 30815  1          +
 003E68 9180 2007      00007       30826  1          +
 003E6C 4710 A0D0            03E76 30827  1          +
 003E70 D205 D059 2008 00011 00008 30837  1          +
 003E76                            30842    3644.              END   ,
 003E76 9110 2006      00006       30846    3645.              IF    RQACLP,'SET @FCFLCLP' Indicate if CLP mode
 003E7A 47E0 A0DC            03E82 30856             +
 003E7E 9680 D058      00010       30867             +
 003E82 58F0 A846/0DEF       045EC 30872    3646.              VCALL FCATFLIS            List file names
 003E88 5000 2044            00044 30876    3647.              ST    RVR,RQRETC          Set return
 003E8C 1200/4770 A0F2       03E98 30877    3648.              IF    (RVR,Z),BEGIN
 003E92 D203 204C D054 0004C 0000C 30891  1 3649.                MVC   RQRFCNT,@FCFLCNT    Set count returned
 003E98                            30892    3650.              END   ,
 003E98 47F0 A730            044D6 30896    3651.              EXIT  M1ISTAT
0003E9C                            30900    3653.     M1IS03   LABEL ,                   Detect Account Level Privileges
 DROP   @FCFLIS-72,R13             30902    3654.              PSET  @FCGPERM
 USING  @FCGPERM-72,R13
 003E9C D746 D048 D048 00000 00000 30922             +
 003EA2 5030 D048            00000 30923    3655.              PMOV  @FCGPFSB,LA:FSB
 003EA6                            30934    3656.              PMOV  @FCGPLOC,RQISLOC    Privilege buffer
 003EA6 D203 D04C 203C 00004 0003C 30938             +
 003EAC                            30939    3657.              PMOV  @FCGPLEN,RQISLEN    Buffer length
 003EAC D203 D050 2034 00008 00034 30943             +
 003EB2                            30944    3658.              PMOV  @FCGPUSE,RQFACC     User
 003EB2 D205 D05B 2008 00013 00008 30948             +
 003EB8                            30949    3659.              PMOV  @FCGPACC,RQACCNB    Account
 003EB8 D205 D061 20AA 00019 000AA 30953             +
 003EBE 9640 D058      00010       30954    3660.              SET   @FCGPFA             Account request
 003EC2 9180 2007      00007       30960    3661.              IF    (RQAOWN,OR,RQAMAG),'SET @FCGPFM' Set to magic account
 003EC6 4710 A12C            03ED2 30974             +
1FILEMAN  (FILEMA) (09:39) (22MAR04) ORVYL'S File Manager                                                                   Page  176
0Current Usings:  (PZERO,R0) (RQWB,R2) (FSB,R3) (M1ISTAT,R10) (@FCGPERM-72,R13)
0Loc    Object Code    Addr1 Addr2  Stmt Lv Lineno    Source Statement           (Hibal 5, Asmedit 3.3)  HLASM R4.0  2004/03/22 09.39
+___    ______ ____    _____ _____  ____ __ ______    ______ _________
0003ECA 9140 2007      00007       30983             +
 003ECE 47E0 A130            03ED6 30984             +
 003ED2 9620 D058      00010       30995             +
 003ED6 58F0 A84A/0DEF       045F0 31000    3662.              VCALL FCATGPRM            Go do it
 003EDC 5000 2044            00044 31004    3663.              ST    RVR,RQRETC          Set return code
 003EE0 1200/4770 A154       03EFA 31005    3664.              IF    (RVR,Z),BEGIN
 003EE6 D203 2040 D054 00040 0000C 31019  1 3665.                MVC   RQRPCNT,@FCGPCNT    Get count of users
 003EEC 1FEE/43E0 D059       00011 31020  1 3666.                LC    R14,@FCGPPP         Get public privileges
 003EF2 89E0 0008            00008 31027  1 3667.                SLL   R14,8               Put into next byte
 003EF6 50E0 204C            0004C 31028  1 3668.                ST    R14,RQRPRIV         Set return
 003EFA                            31029    3669.              END   ,
 003EFA 47F0 A730            044D6 31033    3670.              EXIT  M1ISTAT             Done
0003EFE                            31037    3672.     M1IS04   LABEL ,                   Get current space and usage stats
 DROP   @FCGPERM-72,R13            31039    3673.              PSET  @FCAINFO
 USING  @FCAINFO-72,R13
 003EFE D717 D048 D048 00000 00000 31059             +
 003F04 5030 D048            00000 31060    3674.              PMOV  @FCAIFSB,LA:FSB
 003F08                            31071    3675.              PMOV  @FCAIACC,RQACCNB    Set account
 003F08 D205 D04C 20AA 00004 000AA 31075             +
 003F0E 9140 201D      0001D       31076    3676.              IF    (RQPRIV.KWRIFAPR,Z),BEGIN Not special privilege
 003F12 4770 A188            03F2E 31089             +
 003F16 9140 2007      00007       31094  1 3677.                IF    (~RQAMAG,AND,(RQACCNB,NE,RQFACC)),BEGIN
 003F1A 4710 A188            03F2E 31106  1          +
 003F1E D505 20AA 2008 000AA 00008 31120  1          +
 003F24 4780 A188            03F2E 31121  1          +
 003F28                            31126  2 3678.                  PMOV  @FCAIUSE,RQFACC     Set user
 003F28 D205 D052 2008 0000A 00008 31130  2          +
 003F2E                            31131  1 3679.                END   ,
 003F2E                            31135    3680.              END   ,
 003F2E 58F0 A84E/0DEF       045F4 31139    3681.              VCALL FCATAINF            Get current space and usage stats
 003F34 5000 2044            00044 31143    3682.              ST    RVR,RQRETC          Set return code
 003F38 1200/4770 A1B2       03F58 31144    3683.              IF    (RVR,Z),BEGIN
 003F3E D203 204C D058 0004C 00010 31158  1 3684.                MVC   RQRABK,@FCAIABK     Allocated blocks
 003F44                            31159  1 3685.                IF    (RQRABK,EQ,=X'00FFFFFF'),'MVI RQRABK,255' Make negitive
 003F44 D503 A852 204C 045F8 0004C 31170  1          +
 003F4A 4770 A1AC            03F52 31171  1          +
 003F4E 92FF 204C      0004C       31177  1          +
 003F52 D203 2040 D05C 00040 00014 31182  1 3686.                MVC   RQRUBK,@FCAIUBK     Used blocks
 003F58                            31183    3687.              END   ,
 003F58 47F0 A730            044D6 31187    3688.              EXIT  M1ISTAT             Done
0003F5C                            31191    3690.     M1IS05   LABEL ,                   Extend a non-IXR'd file
 DROP   @FCAINFO-72,R13            31193    3691.              PSET  @FCNIXR
 USING  @FCNIXR-72,R13
 003F5C D73A D048 D048 00000 00000 31213             +
 003F62 5030 D048            00000 31214    3692.              PMOV  @FCNFSB,LA:FSB
 003F66                            31225    3693.              PMOV  @FCNBLKC,RQISBLK    Blocks requested
 003F66 D203 D04C 2030 00004 00030 31229             +
 003F6C                            31230    3694.              PMOV  @FCNNAME,RQNAMS     File name
 003F6C D227 D05B 207C 00013 0007C 31234             +
 003F72                            31235    3695.              PMOV  @FCNACC,RQFACC
 003F72 D205 D055 2008 0000D 00008 31239             +
 003F78 9140 2007      00007       31240    3696.              IF    RQAMAG,'SET @FCNFMAG'
1FILEMAN  (FILEMA) (09:39) (22MAR04) ORVYL'S File Manager                                                                   Page  177
0Current Usings:  (PZERO,R0) (RQWB,R2) (FSB,R3) (M1ISTAT,R10) (@FCNIXR-72,R13)
0Loc    Object Code    Addr1 Addr2  Stmt Lv Lineno    Source Statement           (Hibal 5, Asmedit 3.3)  HLASM R4.0  2004/03/22 09.39
+___    ______ ____    _____ _____  ____ __ ______    ______ _________
0003F7C 47E0 A1DE            03F84 31250             +
 003F80 9680 D054      0000C       31261             +
 003F84 9180 2007      00007       31266    3697.              IF    RQAOWN,'SET @FCNFMAG'
 003F88 47E0 A1EA            03F90 31276             +
 003F8C 9680 D054      0000C       31287             +
 003F90 58F0 A856/0DEF       045FC 31292    3698.              VCALL FCATNIXE            Extend the file
 003F96 5000 2044            00044 31296    3699.              ST    RVR,RQRETC
                                   31297    3700.     * If not enough blocks to extend the full requested amount,
                                   31298    3701.     * return the amount that is currently possible
 003F9A                            31299    3702.              IF    (RQRETC,EQ,=F'4'),'MVC RQRCBK,@FCNBLKC'
 003F9A D503 A85A 2044 04600 00044 31310             +
 003FA0 4770 A204            03FAA 31311             +
 003FA4 D203 204C D04C 0004C 00004 31317             +
0003FAA 47F0 A730            044D6 31323    3704.              EXIT  M1ISTAT
0003FAE                            31327    3706.     M1IS06   LABEL ,                   Create a non-IXR file
 003FAE 9180 300B      0000B       31329    3707.              IF    ~FSBONIXR,BEGIN
 003FB2 4710 A21A            03FC0 31339             +
 003FB6 D203 2044 A85E 00044 04604 31344  1 3708.                MVC   RQRETC,=F'28'       Not allowed
 003FBC 47F0 A730            044D6 31345  1 3709.                EXIT  M1ISTAT
 003FC0                            31348    3710.              END   ,
 003FC0                            31352    3711.              PSET  @FCNIXR
 003FC0 D73A D048 D048 00000 00000 31362             +
 003FC6 5030 D048            00000 31363    3712.              PMOV  @FCNFSB,LA:FSB
 003FCA                            31374    3713.              PMOV  @FCNBLKC,RQISBLK    Blocks requested
 003FCA D203 D04C 2030 00004 00030 31378             +
 003FD0                            31379    3714.              PMOV  @FCNNAME,RQNAMS     File name
 003FD0 D227 D05B 207C 00013 0007C 31383             +
 003FD6                            31384    3715.              PMOV  @FCNACC,RQFACC
 003FD6 D205 D055 2008 0000D 00008 31388             +
 003FDC 9140 2007      00007       31389    3716.              IF    RQAMAG,'SET @FCNFMAG'
 003FE0 47E0 A242            03FE8 31399             +
 003FE4 9680 D054      0000C       31410             +
 003FE8 9180 2007      00007       31415    3717.              IF    RQAOWN,'SET @FCNFMAG'
 003FEC 47E0 A24E            03FF4 31425             +
 003FF0 9680 D054      0000C       31436             +
 003FF4 58F0 A862/0DEF       04608 31441    3718.              VCALL FCATNIXR            Create a non-IXR file
 003FFA 5000 2044            00044 31445    3719.              ST    RVR,RQRETC
 003FFE 1200/4770 A278       0401E 31446    3720.              IF    (RVR,Z),BEGIN
 004004 5870 0200            00200 31460  1 3721.                ADFCB ,
 USING  MAT,R7
 004008 5870 7028            00028 31477  1          +
 DROP   MAT,R7
 USING  FILECB,R7
 00400C 58E0 7130/18FE       00130 31499  1 3722.                INCRS FILECRE             Number of files created
 004012 5EF0 A866            0460C 31510  2          +
 004016 BAEF 7130            00130 31511  1          +
 00401A 4770 A26A            04010 31525  1          +
 DROP   FILECB,R7                  31531    3723.              END   ,
 00401E 47F0 A730            044D6 31540    3724.              EXIT  M1ISTAT
0004022                            31544    3726.     M1IS07   LABEL ,                   Create a hybrid file
 004022 1BEE                       31546    3727.              CLEAR R14
1FILEMAN  (FILEMA) (09:39) (22MAR04) ORVYL'S File Manager                                                                   Page  178
0Current Usings:  (PZERO,R0) (RQWB,R2) (FSB,R3) (M1ISTAT,R10) (@FCNIXR-72,R13)
0Loc    Object Code    Addr1 Addr2  Stmt Lv Lineno    Source Statement           (Hibal 5, Asmedit 3.3)  HLASM R4.0  2004/03/22 09.39
+___    ______ ____    _____ _____  ____ __ ______    ______ _________
0004024 58F0 2030            00030 31550    3728.              L     R15,RQISBLK         Get blocks requested
 004028 41F0 F293            00293 31551    3729.              LA    R15,@R15+IXRNT#-1   Round up
 00402C 5DE0 A86A            04610 31552    3730.              D     R14,=A(IXRNT#)      Calc number of IXR's
 004030                            31553    3731.              PSET  @FCNIXR
 004030 D73A D048 D048 00000 00000 31563             +
 004036 5030 D048            00000 31564    3732.              PMOV  @FCNFSB,LA:FSB
 00403A 50F0 D04C            00004 31575    3733.              PMOV  @FCNBLKC,(R15)      Blocks requested
 00403E                            31585    3734.              PMOV  @FCNNAME,RQNAMS     File name
 00403E D227 D05B 207C 00013 0007C 31589             +
 004044                            31590    3735.              PMOV  @FCNACC,RQFACC
 004044 D205 D055 2008 0000D 00008 31594             +
 00404A 9140 2007      00007       31595    3736.              IF    RQAMAG,'SET @FCNFMAG'
 00404E 47E0 A2B0            04056 31605             +
 004052 9680 D054      0000C       31616             +
 004056 9180 2007      00007       31621    3737.              IF    RQAOWN,'SET @FCNFMAG'
 00405A 47E0 A2BC            04062 31631             +
 00405E 9680 D054      0000C       31642             +
 004062 9640 D054      0000C       31647    3738.              SET   @FCNFHYB            Hybrid file
 004066 58F0 A862/0DEF       04608 31653    3739.              VCALL FCATNIXR            Create a hybrid file
 00406C 5000 2044            00044 31657    3740.              ST    RVR,RQRETC
 004070 1200/4770 A2EA       04090 31658    3741.              IF    (RVR,Z),BEGIN
 004076 5870 0200            00200 31672  1 3742.                ADFCB ,
 USING  MAT,R7
 00407A 5870 7028            00028 31689  1          +
 DROP   MAT,R7
 USING  FILECB,R7
 00407E 58E0 7130/18FE       00130 31711  1 3743.                INCRS FILECRE             Number of files created
 004084 5EF0 A866            0460C 31722  2          +
 004088 BAEF 7130            00130 31723  1          +
 00408C 4770 A2DC            04082 31737  1          +
 DROP   FILECB,R7                  31743    3744.              END   ,
 004090 47F0 A730            044D6 31752    3745.              EXIT  M1ISTAT
0004094                            31756    3747.     M1IS100  LABEL ,                   Create a new account
 DROP   @FCNIXR-72,R13             31758    3748.              PSET  @FCACMOD
 USING  @FCACMOD-72,R13
 004094 D70D D048 D048 00000 00000 31778             +
 00409A 5030 D048            00000 31779    3749.              PMOV  @FCACFSB,LA:FSB
 00409E                            31790    3750.              PMOV  @FCACCNT,RQNACC
 00409E D205 D050 207C 00008 0007C 31794             +
 0040A4 9140 201E      0001E       31795    3751.              IF    RQSDEF,'L R14,=X"00FFFFFF"' Set to default
 0040A8 47E0 A30A            040B0 31805             +
 0040AC 58E0 A852            045F8 31811             +
 0040B0 A30E           040B0 040AA 31816    3752.              ELSE  'L R14,RQISPAC'     Get supplied space
 0040B0 47F0 A312            040B8 31821             +
 0040B4 58E0 2034            00034 31828             +
 0040B8 50E0 D04C            00004 31833    3753.              PMOV  @FCACSPA,(R14)      Space
 0040BC 58F0 A86E/0DEF       04614 31843    3754.              VCALL FCATAADD            Add the account
 0040C2 5000 2044            00044 31847    3755.              ST    RVR,RQRETC
 0040C6 47F0 A730            044D6 31848    3756.              EXIT  M1ISTAT
00040CA                            31852    3758.     M1IS101  LABEL ,                   Delete an account
 0040CA                            31854    3759.              PSET  @FCACMOD
 0040CA D70D D048 D048 00000 00000 31864             +
1FILEMAN  (FILEMA) (09:39) (22MAR04) ORVYL'S File Manager                                                                   Page  179
0Current Usings:  (PZERO,R0) (RQWB,R2) (FSB,R3) (M1ISTAT,R10) (@FCACMOD-72,R13)
0Loc    Object Code    Addr1 Addr2  Stmt Lv Lineno    Source Statement           (Hibal 5, Asmedit 3.3)  HLASM R4.0  2004/03/22 09.39
+___    ______ ____    _____ _____  ____ __ ______    ______ _________
00040D0 5030 D048            00000 31865    3760.              PMOV  @FCACFSB,LA:FSB
 0040D4                            31876    3761.              PMOV  @FCACCNT,RQNACC
 0040D4 D205 D050 207C 00008 0007C 31880             +
 0040DA 58F0 A872/0DEF       04618 31881    3762.              VCALL FCATADEL            Delete the account
 0040E0 5000 2044            00044 31885    3763.              ST    RVR,RQRETC
 0040E4 47F0 A730            044D6 31886    3764.              EXIT  M1ISTAT
00040E8                            31890    3766.     M1IS102  LABEL ,                   Reset max space allowed
 0040E8                            31892    3767.              PSET  @FCACMOD
 0040E8 D70D D048 D048 00000 00000 31902             +
 0040EE 5030 D048            00000 31903    3768.              PMOV  @FCACFSB,LA:FSB
 0040F2                            31914    3769.              PMOV  @FCACCNT,RQNACC
 0040F2 D205 D050 207C 00008 0007C 31918             +
 0040F8                            31919    3770.              PMOV  @FCACSPA,RQISPAC    Space
 0040F8 D203 D04C 2034 00004 00034 31923             +
 0040FE 58F0 A876/0DEF       0461C 31924    3771.              VCALL FCATMSPA            Add the account
 004104 5000 2044            00044 31928    3772.              ST    RVR,RQRETC
 004108 47F0 A730            044D6 31929    3773.              EXIT  M1ISTAT
000410C                            31933    3775.     M1IS103  LABEL ,                   List accounts and space used
 DROP   @FCACMOD-72,R13            31935    3776.              PSET  @FCALIS
 USING  @FCALIS-72,R13
 00410C D715 D048 D048 00000 00000 31955             +
 004112 5030 D048            00000 31956    3777.              PMOV  @FCALFSB,LA:FSB
 004116                            31967    3778.              PMOV  @FCALLOC,RQISLOC    File name buffer
 004116 D203 D04C 203C 00004 0003C 31971             +
 00411C                            31972    3779.              PMOV  @FCALLEN,RQISLEN    Buffer len
 00411C D203 D050 2034 00008 00034 31976             +
 004122                            31977    3780.              PMOV  @FCALNAM,RQNACC     Start account
 004122 D205 D058 207C 00010 0007C 31981             +
 004128 58F0 A87A/0DEF       04620 31982    3781.              VCALL FCATALIS            List accounts
 00412E 5000 2044            00044 31986    3782.              ST    RVR,RQRETC          Set return
 004132 1200/4770 A398       0413E 31987    3783.              IF    (RVR,Z),BEGIN
 004138 D203 204C D054 0004C 0000C 32001  1 3784.                MVC   RQRFCNT,@FCALCNT    Set count returned
 00413E                            32002    3785.              END   ,
 00413E 47F0 A730            044D6 32006    3786.              EXIT  M1ISTAT
0004142                            32010    3788.     M1IS104  LABEL ,                   Reset space used
 DROP   @FCALIS-72,R13             32012    3789.              PSET  @FCACMOD
 USING  @FCACMOD-72,R13
 004142 D70D D048 D048 00000 00000 32032             +
 004148 5030 D048            00000 32033    3790.              PMOV  @FCACFSB,LA:FSB
 00414C                            32044    3791.              PMOV  @FCACCNT,RQNACC
 00414C D205 D050 207C 00008 0007C 32048             +
 004152                            32049    3792.              PMOV  @FCACSPA,RQISPAC    Space
 004152 D203 D04C 2034 00004 00034 32053             +
 004158 58F0 A87E/0DEF       04624 32054    3793.              VCALL FCATUSPA            Space used
 00415E 5000 2044            00044 32058    3794.              ST    RVR,RQRETC
 004162 47F0 A730            044D6 32059    3795.              EXIT  M1ISTAT
0004166                            32063    3797.     M1IS105  LABEL ,        Delete file entry without releasing blocks
 004166 5840 303C            0003C 32065    3798.              L     RJ,FSBAHFB          Get file attach hash table ptr
 USING  AHFB,R4                    32066    3799.              WITH  (AHFB,RJ)
 DROP   @FCACMOD-72,R13            32079    3800.              PSET  @HASH
1FILEMAN  (FILEMA) (09:39) (22MAR04) ORVYL'S File Manager                                                                   Page  180
0Current Usings:  (PZERO,R0) (RQWB,R2) (FSB,R3) (AHFB,R4) (M1ISTAT,R10) (@HASH-72,R13)
0Loc    Object Code    Addr1 Addr2  Stmt Lv Lineno    Source Statement           (Hibal 5, Asmedit 3.3)  HLASM R4.0  2004/03/22 09.39
+___    ______ ____    _____ _____  ____ __ ______    ______ _________
0USING  @HASH-72,R13
 00416A D70C D048 D048 00000 00000 32099             +
 004170 4100 2078            00078 32100    3801.              PMOV  @HSHSTR,LA:RQNAME   File name
 004174 5000 D048            00000 32116             +
 004178 4100 002C            0002C 32117    3802.              PMOV  @HSHLEN,LA:L'RQNAME Length
 00417C 5000 D04C            00004 32133             +
 004180 4100 0151            00151 32134    3803.              PMOV  @HSHVAL,LA:AHFBCNT  Hash value
 004184 5000 D050            00008 32150             +
 004188 9680 D054      0000C       32151    3804.              SET   @HSHBLNK            Don't use trailing blanks
 00418C 58F0 A882/0DEF       04628 32157    3805.              VCALL HASHIT              Calculate hash number
 004192 1850                       32161    3806.              LR    RK,RVR              Get hash number
 004194 4C50 A8CC            04672 32162    3807.              MH    RK,=Y(L'AHFBL)      Calculate index
 004198 4155 4010            00010 32163    3808.              LA    RK,AHFBL(RK)        Point to queue
 USING  AHFBL,R5                   32164    3809.              WITH  (AHFBL,RK)
 DROP   @HASH-72,R13               32177    3810.              GRGET RID=AHFBGRID,EXCL=YES Reserve the table
 USING  @GRES-72,R13
 00419C D708 D048 D048 00000 00000 32198             +
 0041A2 D203 D04C 4004 00004 00004 32203             +
 0041A8 9680 D050      00008       32209             +
 0041AC 9640 D050      00008       32215             +
 0041B0 58F0 A886/0DEF       0462C 32218             +
 0041B6 5860 5000            00010 32220    3811.              L     RX,AHFBLFP          Point to first on list
 USING  ATFB,R6                    32221    3812.              WITH  (ATFB,RX)
 0041BA 1965/4780 A42C       041D2 32234    3813.              WHILE (RX,NE,RK),BEGIN    While not end of list
 0041C0                            32251  1 3814.                IF    (ATFBNAME,EQ,RQNAMS),EXIT
 0041C0 D527 6028 207C 00028 0007C 32263  1          +
 0041C6 4780 A42C            041D2 32266  1          +
 0041CA 5860 6000            00000 32272  1 3815.                L     RX,ATFBFP           Point to next on list
 0041CE 47F0 A414            041BA 32273    3816.              END
 0041D2 1965/4780 A436       041DC 32278    3817.              IF    (RX,NE,RK),'LA RVR,4' Already attached by someone
 0041D8 4100 0004            00004 32294             +
 0041DC A43A           041DC 041D6 32299    3818.              ELSE  BEGIN
 0041DC 47F0 A450            041F6 32304             +
 DROP   @GRES-72,R13               32310  1 3819.                PSET  @FCDLETE
 USING  @FCDLETE-72,R13
 0041E0 D72B D048 D048 00000 00000 32330  1          +
 0041E6 5030 D048            00000 32331  1 3820.                PMOV  @FCDLFSB,LA:FSB
 0041EA                            32342  1 3821.                PMOV  @FCDLNAM,RQNAMS
 0041EA D227 D04C 207C 00004 0007C 32346  1          +
 0041F0 58F0 A88A/0DEF       04630 32347  1 3822.                VCALL FCATDLET            Delete the name from the catalog
 0041F6                            32351    3823.              END   ,
 0041F6 5000 2044            00044 32355    3824.              ST    RVR,RQRETC
 DROP   @FCDLETE-72,R13            32356    3825.              GRREL RID=AHFBGRID
 USING  @GRES-72,R13
 0041FA D708 D048 D048 00000 00000 32377             +
 004200 D203 D04C 4004 00004 00004 32382             +
 004206 58F0 A88E/0DEF       04634 32385             +
 00420C 47F0 A730            044D6 32387    3826.              EXIT  M1ISTAT
0004210                            32391    3828.     M1IS106  LABEL ,                   Read absolute block number
 DROP   @GRES-72,R13               32393    3829.              PSET  @FDOIODO
 USING  @FDOIODO-72,R13
 004210 D70F D048 D048 00000 00000 32413             +
 004216 5030 D048            00000 32414    3830.              PMOV  @FDOFSB,LA:FSB      FSB ptr
1FILEMAN  (FILEMA) (09:39) (22MAR04) ORVYL'S File Manager                                                                   Page  181
0Current Usings:  (PZERO,R0) (RQWB,R2) (FSB,R3) (AHFB,R4) (AHFBL,R5) (ATFB,R6) (M1ISTAT,R10) (@FDOIODO-72,R13)
0Loc    Object Code    Addr1 Addr2  Stmt Lv Lineno    Source Statement           (Hibal 5, Asmedit 3.3)  HLASM R4.0  2004/03/22 09.39
+___    ______ ____    _____ _____  ____ __ ______    ______ _________
000421A 1FFF/BFF7 2031       00031 32425    3831.              L3    R15,RQIBLK+1
 004220 50F0 D04C            00004 32431    3832.              PMOV  @FDOBLK,(R15)       Block number
 004224                            32441    3833.              PMOV  @FDODATL,FSBDSZ     Data length
 004224 D201 D054 30AC 0000C 000AC 32445             +
 00422A 9690 D057      0000F       32446    3834.              SET   @FDOFR+@FDOS106     Indicate 106 read
 00422E 58F0 A892/0DEF       04638 32455    3835.              VCALL FDOIODO             Read record
 004234 58E0 D050            00008 32459    3836.              L     R14,@FDODATA
 004238 48F0 D054            0000C 32460    3837.              LH    R15,@FDODATL
 00423C 50F0 204C            0004C 32461    3838.              ST    R15,RQRTYPE         Return length of record
 004240 5800 203C            0003C 32462    3839.              L     R0,RQIDAT
 004244 5810 2034            00034 32463    3840.              L     R1,RQILEN
 004248 0E0E                       32464    3841.              MVCL  R0,R14              Move data to output buffer
 00424A 1FEE/43E0 D056       0000E 32465    3842.              LC    R14,@FDOTYPE        Get record type
 004250 40E0 204C            0004C 32472    3843.              STH   R14,RQRTYPE         Set return
 004254 58E0 D050            00008 32473    3844.              L     R14,@FDODATA
 DROP   @FDOIODO-72,R13            32474    3845.              PSET  @SBFREE
 USING  @SBFREE-72,R13
 004258 D707 D048 D048 00000 00000 32494             +
 00425E                            32495    3846.              PMOV  @SBFPOO,FSBRBT
 00425E D203 D048 302C 00000 0002C 32499             +
 004264 50E0 D04C            00004 32500    3847.              PMOV  @SBFADR,(R14)
 004268 58F0 A896/0DEF       0463C 32510    3848.              VCALL SBUFREE             Free buffer
 00426E                            32514    3849.              CLEAR RQRETC
 00426E D703 2044 2044 00044 00044 32520             +
 004274 47F0 A730            044D6 32521    3850.              EXIT  M1ISTAT
0004278                            32525    3852.     M1IS108  LABEL ,                   Turn file system read only on/off
 004278 58F0 2034            00034 32527    3853.              L     R15,RQISTYP         Request type
 00427C 12FF/4770 A502       042A8 32528    3854.              IF    (R15,Z),BEGIN       Clear read only
 004282 4D90 A584            0432A 32542  1 3855.                BAS   RN,M1IS108N         Set file sys name and len
 004286 4190 0003            00003 32543  1 3856.                LA    RN,3                Enqueue exclusive
 00428A 8308000E                   32544  1 3857.                SYSCTL R0,RM,TYPE=MVSENQ
 00428E 4780 A4F6            0429C 32547  1 3858.                IF    NZ,BEGIN            Offline still has it!
 004292 D203 2044 A85A 00044 04600 32558  2 3859.                  MVC   RQRETC,=F'4'        Set to unavailable
 004298 47F0 A730            044D6 32559  2 3860.                  EXIT  M1ISTAT             Done
 00429C                            32562  1 3861.                END   ,
 00429C 4D90 A556            042FC 32566  1 3862.                BAS   RN,M1IS108A         Activate bitmap processing
 0042A0 94BF 3009      00009       32567  1 3863.                CLEAR FSBARO
 0042A4 4D90 A5A8            0434E 32574  1 3864.                BAS   RN,M1IS108J         Tell JES about the change
 0042A8                            32575    3865.              END   ,
 0042A8 A506           042A8 04280 32579    3866.              ELSEIF (R15,EQ,4),BEGIN   Set to read only
 0042A8 47F0 A524            042CA 32585             +
 0042AC 59F0 A89A            04640 32599             +
 0042B0 4770 A524            042CA 32600             +
 0042B4 9640 3009      00009       32605  1 3867.                SET   FSBARO
 0042B8 4D90 A5A8            0434E 32611  1 3868.                BAS   RN,M1IS108J         Tell JES about the change
 0042BC 4D90 A568            0430E 32612  1 3869.                BAS   RN,M1IS108D         Deactivate bitmap processing
 0042C0 4D90 A584            0432A 32613  1 3870.                BAS   RN,M1IS108N         Set file sys name and len
 0042C4 1B99                       32614  1 3871.                CLEAR RN                  Release the file sys to offline
 0042C6 8308000E                   32618  1 3872.                SYSCTL R0,RM,TYPE=MVSENQ
 0042CA                            32621    3873.              END   ,
 0042CA A528           042CA 042B2 32625    3874.              ELSEIF (R15,EQ,8),BEGIN   Set to available
 0042CA 47F0 A538            042DE 32631             +
 0042CE 59F0 A89E            04644 32645             +
1FILEMAN  (FILEMA) (09:39) (22MAR04) ORVYL'S File Manager                                                                   Page  182
0Current Usings:  (PZERO,R0) (RQWB,R2) (FSB,R3) (AHFB,R4) (AHFBL,R5) (ATFB,R6) (M1ISTAT,R10) (@SBFREE-72,R13)
0Loc    Object Code    Addr1 Addr2  Stmt Lv Lineno    Source Statement           (Hibal 5, Asmedit 3.3)  HLASM R4.0  2004/03/22 09.39
+___    ______ ____    _____ _____  ____ __ ______    ______ _________
00042D2 4770 A538            042DE 32646             +
 0042D6 4D90 A556            042FC 32651  1 3875.                BAS   RN,M1IS108A         Activate bitmap processing
 0042DA 947F 3009      00009       32652  1 3876.                CLEAR  FSBANAVL
 0042DE                            32659    3877.              END   ,
 0042DE A53C           042DE 042D4 32663    3878.              ELSEIF (R15,EQ,12),BEGIN  Set to unavailable
 0042DE 47F0 A54C            042F2 32669             +
 0042E2 59F0 A8A2            04648 32683             +
 0042E6 4770 A54C            042F2 32684             +
 0042EA 9680 3009      00009       32689  1 3879.                SET   FSBANAVL
 0042EE 4D90 A568            0430E 32695  1 3880.                BAS   RN,M1IS108D         Deactivate bitmap processing
 0042F2                            32696    3881.              END   ,
 0042F2                            32700    3882.              CLEAR RQRETC
 0042F2 D703 2044 2044 00044 00044 32706             +
 0042F8 47F0 A730            044D6 32707    3883.              EXIT  M1ISTAT
00042FC                            32711    3885.     M1IS108A LABEL ,                   Activate bitmap processing
 DROP   @SBFREE-72,R13             32713    3886.              PSET  @FMFSB
 USING  @FMFSB-72,R13
 0042FC D704 D048 D048 00000 00000 32733             +
 004302 5030 D048            00000 32734    3887.              PMOV  @FMFSBP,LA:FSB
 004306 58F0 A8A6/0DEF       0464C 32745    3888.              VCALL FBITACT
 00430C 07F9                       32749    3889.              BR    RN
000430E                            32751    3891.     M1IS108D LABEL ,                   Deactivate bitmap processing
 00430E 4100 0032            00032 32753    3892.              LA    R0,50               50 * 0.1 = 5 seconds
 004312 58F0 A8AA/0DEF       04650 32754    3893.              VCALL M1GOWAIT            Wait for system to quiesce
 004318                            32758    3894.              PSET  @FMFSB
 004318 D704 D048 D048 00000 00000 32768             +
 00431E 5030 D048            00000 32769    3895.              PMOV  @FMFSBP,LA:FSB
 004322 58F0 A8AE/0DEF       04654 32780    3896.              VCALL FBITDEA
 004328 07F9                       32784    3897.              BR    RN
000432A                            32786    3899.     M1IS108N LABEL ,                   Set filesys name and length
 00432A 4100 3018            00018 32788    3900.              LA    R0,FSBNAME          Set name pointer
 00432E 4110 0008            00008 32789    3901.              LA    R1,L'FSBNAME        Get length
 004332 41E0 301F            0001F 32790    3902.              LA    R14,FSBNAME+L'FSBNAME-1 Point to last character
 004336                            32791    3903.              LOOP  BEGIN               Determine len of name w/o spaces
 004336 9540 E000      00000       32797  1 3904.                CLI   @R14,C' '
 00433A 4770 A59E            04344 32798  1 3905.                IF    NE,EXIT
 00433E 06E0                       32812  1 3906.                DECR  R14
 004340 4610 A590            04336 32814    3907.              UNTIL (BCT,R1),END
 004344 5880 0200            00200 32824    3908.              L     RM,MATPTR
 004348 4180 80D4            000D4 32825    3909.              WITH  (MAT,RM),'LA RM,MATSNAME' Which Orvyl
 USING  MAT,R8
 DROP   MAT,R8
 00434C 07F9                       32849    3910.              BR    RN
000434E                            32851    3912.     M1IS108J LABEL ,                   Inform JES of current Orvyl status
 00434E 58F0 A8B2/0DEF       04658 32853    3913.              VCALL STATFS
 004354 58F0 A8B6/0DEF       0465C 32857    3914.              VCALL M1GOSTAT
 00435A 07F9                       32861    3915.              BR    RN
000435C                            32863    3917.     M1IS109  LABEL ,                   Write absolute block number
 DROP   @FMFSB-72,R13              32865    3918.              PSET  @SBGET
1FILEMAN  (FILEMA) (09:39) (22MAR04) ORVYL'S File Manager                                                                   Page  183
0Current Usings:  (PZERO,R0) (RQWB,R2) (FSB,R3) (AHFB,R4) (AHFBL,R5) (ATFB,R6) (M1ISTAT,R10) (@SBGET-72,R13)
0Loc    Object Code    Addr1 Addr2  Stmt Lv Lineno    Source Statement           (Hibal 5, Asmedit 3.3)  HLASM R4.0  2004/03/22 09.39
+___    ______ ____    _____ _____  ____ __ ______    ______ _________
0USING  @SBGET-72,R13
 00435C D70B D048 D048 00000 00000 32885             +
 004362                            32886    3919.              PMOV  @SBGPOO,FSBRBT      Get an io buffer
 004362 D203 D048 302C 00000 0002C 32890             +
 004368 58F0 A8BA/0DEF       04660 32891    3920.              VCALL SBUFGET
 00436E 58E0 D04C            00004 32895    3921.              L     R14,@SBGADR         Get buffer address
 004372 48F0 30AC            000AC 32896    3922.              LH    R15,FSBDSZ          Get length
 004376 5800 203C            0003C 32897    3923.              L     R0,RQIDAT
 00437A 4810 2036            00036 32898    3924.              LH    R1,RQILEN+2
 00437E 0EE0                       32899    3925.              MVCL  R14,R0              Get record data
 004380 5890 D04C            00004 32900    3926.              L     RN,@SBGADR          Save buffer address
 DROP   @SBGET-72,R13              32901    3927.              PSET  @FDOIODO
 USING  @FDOIODO-72,R13
 004384 D70F D048 D048 00000 00000 32921             +
 00438A 5030 D048            00000 32922    3928.              PMOV  @FDOFSB,LA:FSB      FSB ptr
 00438E 1FFF/BFF7 2031       00031 32933    3929.              L3    R15,RQIBLK+1
 004394 50F0 D04C            00004 32939    3930.              PMOV  @FDOBLK,(R15)       Block number
 004398 5090 D050            00008 32949    3931.              PMOV  @FDODATA,(RN)
 00439C 48F0 2036            00036 32959    3932.              LH    R15,RQILEN+2
 0043A0 40F0 D054            0000C 32960    3933.              PMOV  @FDODATL,(R15)      Data length
 0043A4 48F0 2034            00034 32970    3934.              LH    R15,RQILEN
 0043A8 42F0 D056            0000E 32971    3935.              PMOV  @FDOTYPE,(R15)      Record type
 0043AC 9650 D057      0000F       32981    3936.              SET   @FDOFW+@FDOS106     Indicate 106 write
 0043B0 58F0 A892/0DEF       04638 32990    3937.              VCALL FDOIODO             Write record
 DROP   @FDOIODO-72,R13            32994    3938.              PSET  @SBFREE
 USING  @SBFREE-72,R13
 0043B6 D707 D048 D048 00000 00000 33014             +
 0043BC                            33015    3939.              PMOV  @SBFPOO,FSBRBT
 0043BC D203 D048 302C 00000 0002C 33019             +
 0043C2 5090 D04C            00004 33020    3940.              PMOV  @SBFADR,(RN)
 0043C6 58F0 A896/0DEF       0463C 33030    3941.              VCALL SBUFREE             Free buffer
 0043CC                            33034    3942.              CLEAR RQRETC
 0043CC D703 2044 2044 00044 00044 33040             +
 0043D2 47F0 A730            044D6 33041    3943.              EXIT  M1ISTAT
00043D6                            33045    3945.     M1IS110  LABEL ,                   Update first block for file
 DROP   @SBFREE-72,R13             33047    3946.              PSET  @FCUINFO            Convert to hybrid
 USING  @FCUINFO-72,R13
 0043D6 D739 D048 D048 00000 00000 33067             +
 0043DC 5030 D048            00000 33068    3947.              PMOV  @FCUIFSB,LA:FSB
 0043E0                            33079    3948.              PMOV  @FCUINAM,RQNAMS
 0043E0 D227 D04C 207C 00004 0007C 33083             +
 0043E6                            33084    3949.              PMOV  @FCUIBLK,RQIBLK     Get first block number
 0043E6 D203 D078 2030 00030 00030 33088             +
 0043EC 9601 D081      00039       33089    3950.              SET   @FCUINEW            Set new block number
 0043F0 58F0 A8BE/0DEF       04664 33095    3951.              VCALL FCATUINF            Set info
 0043F6 5000 2044            00044 33099    3952.              ST    RVR,RQRETC          Set return
 0043FA 47F0 A730            044D6 33100    3953.              EXIT  M1ISTAT
00043FE                            33104    3955.     M1IS111  LABEL ,                   Get account or file entry
 DROP   @FCUINFO-72,R13            33106    3956.              PSET  @FCS111
 USING  @FCS111-72,R13
 0043FE D733 D048 D048 00000 00000 33126             +
 004404 5030 D048            00000 33127    3957.              PMOV  @FCS1FSB,LA:FSB
1FILEMAN  (FILEMA) (09:39) (22MAR04) ORVYL'S File Manager                                                                   Page  184
0Current Usings:  (PZERO,R0) (RQWB,R2) (FSB,R3) (AHFB,R4) (AHFBL,R5) (ATFB,R6) (M1ISTAT,R10) (@FCS111-72,R13)
0Loc    Object Code    Addr1 Addr2  Stmt Lv Lineno    Source Statement           (Hibal 5, Asmedit 3.3)  HLASM R4.0  2004/03/22 09.39
+___    ______ ____    _____ _____  ____ __ ______    ______ _________
0004408                            33138    3958.              PMOV  @FCS1LOC,RQISLOC    Ntry buffer
 004408 D203 D04C 203C 00004 0003C 33142             +
 00440E                            33143    3959.              PMOV  @FCS1LEN,RQISLEN    Buffer len
 00440E D203 D050 2034 00008 00034 33147             +
 004414                            33148    3960.              PMOV  @FCS1NAM,RQNAMS     Account or file name
 004414 D227 D054 207C 0000C 0007C 33152             +
 00441A 58F0 A8C2/0DEF       04668 33153    3961.              VCALL FCATS111            Get entry
 004420 5000 2044            00044 33157    3962.              ST    RVR,RQRETC          Set return
 004424 47F0 A730            044D6 33158    3963.              EXIT  M1ISTAT
0004428                            33162    3965.     M1IS115  LABEL ,                   Read absolute block header
 DROP   @FCS111-72,R13             33164    3966.              PSET  @FDOIODO
 USING  @FDOIODO-72,R13
 004428 D70F D048 D048 00000 00000 33184             +
 00442E 5030 D048            00000 33185    3967.              PMOV  @FDOFSB,LA:FSB      FSB ptr
 004432 1FFF/BFF7 2031       00031 33196    3968.              L3    R15,RQIBLK+1
 004438 50F0 D04C            00004 33202    3969.              PMOV  @FDOBLK,(R15)       Block number
 00443C                            33212    3970.              PMOV  @FDODATL,FSBDSZ     Data length
 00443C D201 D054 30AC 0000C 000AC 33216             +
 004442 9688 D057      0000F       33217    3971.              SET   @FDOFR+@FDOS115     Indicate 115 read
 004446 58F0 A892/0DEF       04638 33226    3972.              VCALL FDOIODO             Read record
 00444C 58E0 D050            00008 33230    3973.              L     R14,@FDODATA
 004450 48F0 D054            0000C 33231    3974.              LH    R15,@FDODATL
 004454 50F0 204C            0004C 33232    3975.              ST    R15,RQRLEN          Set header length
 004458 5800 203C            0003C 33233    3976.              L     R0,RQIDAT
 00445C 5810 2034            00034 33234    3977.              L     R1,RQILEN
 004460 0E0E                       33235    3978.              MVCL  R0,R14              Move data to output buffer
 004462 58E0 D050            00008 33236    3979.              L     R14,@FDODATA
 DROP   @FDOIODO-72,R13            33237    3980.              PSET  @SBFREE
 USING  @SBFREE-72,R13
 004466 D707 D048 D048 00000 00000 33257             +
 00446C                            33258    3981.              PMOV  @SBFPOO,FSBRBT
 00446C D203 D048 302C 00000 0002C 33262             +
 004472 50E0 D04C            00004 33263    3982.              PMOV  @SBFADR,(R14)
 004476 58F0 A896/0DEF       0463C 33273    3983.              VCALL SBUFREE             Free buffer
 00447C                            33277    3984.              CLEAR RQRETC
 00447C D703 2044 2044 00044 00044 33283             +
 004482 47F0 A730            044D6 33284    3985.              EXIT  M1ISTAT
0004486                            33288    3987.     M1IS116  LABEL ,                   Get range of blocks
 004486 1F00/BF07 203D       0003D 33290    3988.              L3    RVR,RQIS116+1       Get count of blocks
 DROP   @SBFREE-72,R13             33296    3989.              PSET  @FMFSB
 USING  @FMFSB-72,R13
 00448C D704 D048 D048 00000 00000 33316             +
 004492 5030 D048            00000 33317    3990.              PMOV  @FMFSBP,LA:FSB
 004496 58F0 A8C6/0DEF       0466C 33328    3991.              VCALL FBITGCON            Get this many contiguous
 00449C 1200/4770 A702       044A8 33332    3992.              IF    (RVR,Z),BEGIN       Can't do
 0044A2 D203 2044 A85A 00044 04600 33346  1 3993.                MVC   RQRETC,=F'4'
 0044A8                            33347    3994.              END   ,
 0044A8 A706           044A8 044A0 33351    3995.              ELSE  BEGIN
 0044A8 47F0 A710            044B6 33356             +
 0044AC 5000 204C            0004C 33362  1 3996.                ST    RVR,RQRS116         Set first in range
 0044B0                            33363  1 3997.                CLEAR RQRETC
 0044B0 D703 2044 2044 00044 00044 33369  1          +
1FILEMAN  (FILEMA) (09:39) (22MAR04) ORVYL'S File Manager                                                                   Page  185
0Current Usings:  (PZERO,R0) (RQWB,R2) (FSB,R3) (AHFB,R4) (AHFBL,R5) (ATFB,R6) (M1ISTAT,R10) (@FMFSB-72,R13)
0Loc    Object Code    Addr1 Addr2  Stmt Lv Lineno    Source Statement           (Hibal 5, Asmedit 3.3)  HLASM R4.0  2004/03/22 09.39
+___    ______ ____    _____ _____  ____ __ ______    ______ _________
00044B6                            33370    3998.              END   ,
 0044B6 47F0 A730            044D6 33374    3999.              EXIT  M1ISTAT
00044BA                            33378    4001.     M1IS117  LABEL ,                   Suspend program execution
 0044BA 5800 203C            0003C 33380    4002.              L     RVR,RQIS117         Get time
 0044BE 58F0 A8AA/0DEF       04650 33381    4003.              VCALL M1GOWAIT
 0044C4 1200/4780 A728       044CE 33385    4004.              IF    (RVR,NZ),'LA RVR,4'
 0044CA 4100 0004            00004 33400             +
 0044CE 5000 2044            00044 33405    4005.              ST    RVR,RQRETC
 0044D2 47F0 A730            044D6 33406    4006.              EXIT  M1ISTAT
00044D6 981F C008            00008 33410    4008.              PEND  ,
 DROP   ATFB,R6
 DROP   AHFBL,R5
 DROP   AHFB,R4
 DROP   FSB,R3
 DROP   RQWB,R2
 DROP   M1ISTAT,R10
 0044DA 9680 C000/0B0E 00000       33445             +
 DROP   @FMFSB-72,R13
 0044E0 0000334800003DDC           33454    4009.     RTNTABS  DC    A(M1FS00),A(M1IS00)
 0044E8 0000341E00003E18           33455    4010.              DC    A(M1FS01),A(M1IS01)
 0044F0 0000344800003E3C           33456    4011.              DC    A(M1FS02),A(M1IS02)
 0044F8 0000353C00003E9C           33457    4012.              DC    A(M1FS03),A(M1IS03)
 004500 000035F600003EFE           33458    4013.              DC    A(M1FS04),A(M1IS04)
 004508 0000366800003F5C           33459    4014.              DC    A(M1FS05),A(M1IS05)
 004510 0000366800003FAE           33460    4015.              DC    A(M1FS06),A(M1IS06)
 004518 0000366800004022           33461    4016.              DC    A(M1FS07),A(M1IS07)
 004520 000036CA00004094           33462    4017.     RTNTABSX DC    A(M1FS100),A(M1IS100)
 004528 000036DC000040CA           33463    4018.              DC    A(M1FS101),A(M1IS101)
 004530 000036CA000040E8           33464    4019.              DC    A(M1FS102),A(M1IS102)
 004538 0000373A0000410C           33465    4020.              DC    A(M1FS103),A(M1IS103)
 004540 000036CA00004142           33466    4021.              DC    A(M1FS104),A(M1IS104)
 004548 000037B800004166           33467    4022.              DC    A(M1FS105),A(M1IS105)
 004550 0000380200004210           33468    4023.              DC    A(M1FS106),A(M1IS106)
 004558 0000386600000000           33469    4024.              DC    A(M1FS107),A(0)
 004560 000038EA00004278           33470    4025.              DC    A(M1FS108),A(M1IS108)
 004568 000039440000435C           33471    4026.              DC    A(M1FS109),A(M1IS109)
 004570 00003992000043D6           33472    4027.              DC    A(M1FS110),A(M1IS110)
 004578 000039EA000043FE           33473    4028.              DC    A(M1FS111),A(M1IS111)
 004580 000039F800000000           33474    4029.              DC    A(M1FS112),A(0)
 004588 00003A4A00000000           33475    4030.              DC    A(M1FS113),A(0)
 004590 00003AF000000000           33476    4031.              DC    A(M1FS114),A(0)
 004598 00003B4200004428           33477    4032.              DC    A(M1FS115),A(M1IS115)
 0045A0 00003B9E00004486           33478    4033.              DC    A(M1FS116),A(M1IS116)
 0045A8 00003BBA000044BA           33479    4034.     RTNTABSM DC    A(M1FS117),A(M1IS117)
-
 0045B0 62                         33483    4038.     STATP    DC    AL1(KWRIFAPR+KWRIFSPR+KWRIFADM)  STATUS 100
 0045B1 62                         33484    4039.              DC    AL1(KWRIFAPR+KWRIFSPR+KWRIFADM)  STATUS 101
 0045B2 62                         33485    4040.              DC    AL1(KWRIFAPR+KWRIFSPR+KWRIFADM)  STATUS 102
 0045B3 FF                         33486    4041.              DC    AL1(X'FF')              STATUS 103 - EVERYONE FOR NOW
 0045B4 20                         33487    4042.              DC    AL1(KWRIFSPR)           STATUS 104 - SYSTEM PRIVS
1FILEMAN  (FILEMA) (09:39) (22MAR04) ORVYL'S File Manager                                                                   Page  186
0Current Usings:  (PZERO,R0)
0Loc    Object Code    Addr1 Addr2  Stmt Lv Lineno    Source Statement           (Hibal 5, Asmedit 3.3)  HLASM R4.0  2004/03/22 09.39
+___    ______ ____    _____ _____  ____ __ ______    ______ _________
00045B5 20                         33488    4043.              DC    AL1(KWRIFSPR)           STATUS 105 - SYSTEM PRIVS
 0045B6 20                         33489    4044.              DC    AL1(KWRIFSPR)           STATUS 106 - SYSTEM PRIVS
 0045B7 FF                         33490    4045.              DC    AL1(X'FF')              STATUS 107 - EVERYONE FOR NOW
 0045B8 20                         33491    4046.              DC    AL1(KWRIFSPR)           STATUS 108 - SYSTEM PRIVS
 0045B9 20                         33492    4047.              DC    AL1(KWRIFSPR)           STATUS 109 - SYSTEM PRIVS
 0045BA 20                         33493    4048.              DC    AL1(KWRIFSPR)           STATUS 110 - SYSTEM PRIVS
 0045BB 20                         33494    4049.              DC    AL1(KWRIFSPR)           STATUS 111 - SYSTEM PRIVS
 0045BC FF                         33495    4050.              DC    AL1(X'FF')              STATUS 112 - EVERYONE FOR NOW
 0045BD FF                         33496    4051.              DC    AL1(X'FF')              STATUS 113 - EVERYONE FOR NOW
 0045BE FF                         33497    4052.              DC    AL1(X'FF')              STATUS 114 - EVERYONE FOR NOW
 0045BF 20                         33498    4053.              DC    AL1(KWRIFSPR)           STATUS 115 - SYSTEM PRIVS
 0045C0 20                         33499    4054.              DC    AL1(KWRIFSPR)           STATUS 116 - SYSTEM PRIVS
 0045C1 FF                         33500    4055.              DC    AL1(X'FF')              STATUS 117 - EVERYONE FOR NOW
                                   33501    4056.     STATPRIV EQU   STATP-((RTNTABSX-RTNTABS)/(L'RTNTABS*2))
00045C2 0202                       33503    4058.     M1FSIOTP DC    2AL1(2)                 STATUS 0-1 WRITE
 0045C4 010101                     33504    4059.              DC    3AL1(1)                 STATUS 2-4 READ
 0045C7 020202020202               33505    4060.              DC    6AL1(2)                 STATUS 5-7, 100-102 WRITE
 0045CD 01                         33506    4061.              DC    AL1(1)                  STATUS 103 READS
 0045CE 0202                       33507    4062.              DC    2AL1(2)                 STATUS 104-105 WRITE
 0045D0 00                         33508    4063.              DC    AL1(0)                  STATUS 106 don't check
 0045D1 01                         33509    4064.              DC    AL1(1)                  STATUS 107 READ
 0045D2 0000000000000000           33510    4065.              DC    8AL1(0)                 STATUS 108-115 don't check
 0045DA 02                         33511    4066.              DC    AL1(2)                  STATUS 116 WRITE
 0045DB 00                         33512    4067.              DC    AL1(0)                  STATUS 117 don't check
 0045E0                            33513    4068.              LTORG ,
 0045E0 00000064                   33515                             =A(100)
 0045E4 00000000                   33516                             =V(FCATXTND)
 0045E8 00000000                   33517                             =V(FCATEPUB)
 0045EC 00000000                   33518                             =V(FCATFLIS)
 0045F0 00000000                   33519                             =V(FCATGPRM)
 0045F4 00000000                   33520                             =V(FCATAINF)
 0045F8 00FFFFFF                   33521                             =X'00FFFFFF'
 0045FC 00000000                   33522                             =V(FCATNIXE)
 004600 00000004                   33523                             =F'4'
 004604 0000001C                   33524                             =F'28'
 004608 00000000                   33525                             =V(FCATNIXR)
 00460C 00000001                   33526                             =A(1)
 004610 00000294                   33527                             =A(IXRNT#)
 004614 00000000                   33528                             =V(FCATAADD)
 004618 00000000                   33529                             =V(FCATADEL)
 00461C 00000000                   33530                             =V(FCATMSPA)
 004620 00000000                   33531                             =V(FCATALIS)
 004624 00000000                   33532                             =V(FCATUSPA)
 004628 00000000                   33533                             =V(HASHIT)
 00462C 00000000                   33534                             =V(GRGET)
 004630 00000000                   33535                             =V(FCATDLET)
 004634 00000000                   33536                             =V(GRREL)
 004638 00000000                   33537                             =V(FDOIODO)
 00463C 00000000                   33538                             =V(SBUFREE)
 004640 00000004                   33539                             =A(4)
 004644 00000008                   33540                             =A(8)
 004648 0000000C                   33541                             =A(12)
 00464C 00000000                   33542                             =V(FBITACT)
1FILEMAN  (FILEMA) (09:39) (22MAR04) ORVYL'S File Manager                                                                   Page  187
0Current Usings:  (PZERO,R0)
0Loc    Object Code    Addr1 Addr2  Stmt Lv Lineno    Source Statement           (Hibal 5, Asmedit 3.3)  HLASM R4.0  2004/03/22 09.39
+___    ______ ____    _____ _____  ____ __ ______    ______ _________
0004650 00000000                   33543                             =V(M1GOWAIT)
 004654 00000000                   33544                             =V(FBITDEA)
 004658 00000000                   33545                             =V(STATFS)
 00465C 00000000                   33546                             =V(M1GOSTAT)
 004660 00000000                   33547                             =V(SBUFGET)
 004664 00000000                   33548                             =V(FCATUINF)
 004668 00000000                   33549                             =V(FCATS111)
 00466C 00000000                   33550                             =V(FBITGCON)
 004670 005C                       33551                             =Y(100-((RTNTABSX-RTNTABS)/(L'RTNTABS*2)))
 004672 000C           04674 06510 33552                             =Y(L'AHFBL)
1FILEMAN  (FILEMA) (09:39) (22MAR04) ORVYL'S File Manager                                                                   Page  188
0Current Usings:  (PZERO,R0)
0Loc    Object Code    Addr1 Addr2  Stmt Lv Lineno    Source Statement           (Hibal 5, Asmedit 3.3)  HLASM R4.0  2004/03/22 09.39
+___    ______ ____    _____ _____  ____ __ ______    ______ _________
0                                  33557    4070.     *---------------------------------------------------------------------*
                                   33558    4071.     *  M1FRSRV - Get exclusive reserve of the file
                                   33559    4072.     *
                                   33560    4073.     *   Inputs - RA points to RQWB
                                   33561    4074.     *
                                   33562    4075.     *   Output -
                                   33563    4076.     *---------------------------------------------------------------------*
 004674                            33564    4077.     M1FRSRV  PROC
 004674 D4F1C6D9E2D9E540           33571             +
 00467C 0000/0000                  33572             +
 004680 900F D004/18AF       00004 33574             +
 USING  M1FRSRV,R10
 004686 50D0 C000/18CD       00000 33589             +
 00468C 9680 C000      00000       33591             +
 004690 41D0 C048            00048 33592             +
 USING  RQWB,R2                    33593    4078.              WITH  (RQWB,RA)
 004694                            33606    4079.              CLEAR RQRETC,RVR          Operation started
 004694 D703 2044 2044 00044 00044 33612             +
 00469A 1B00                       33614             +
 00469C 981F C008            00008 33615    4080.              PEND  ,
 DROP   RQWB,R2
 DROP   M1FRSRV,R10
 0046A0 9680 C000/0B0E 00000       33630             +
0                                  33637    4082.     *---------------------------------------------------------------------*
                                   33638    4083.     *  M1IRSRV - Get exclusive reserve of the file
                                   33639    4084.     *
                                   33640    4085.     *   Inputs - RA points to RQWB
                                   33641    4086.     *
                                   33642    4087.     *   Output -
                                   33643    4088.     *---------------------------------------------------------------------*
 0046A6                            33644    4089.     M1IRSRV  PROC
 0046A6 D4F1C9D9E2D9E540           33651             +
 0046AE 0000/0000                  33652             +
 0046B2 900F D004/18AF       00004 33654             +
 USING  M1IRSRV,R10
 0046B8 50D0 C000/18CD       00000 33669             +
 0046BE 9680 C000      00000       33671             +
 0046C2 41D0 C048            00048 33672             +
 USING  RQWB,R2                    33673    4090.              WITH  (RQWB,RA)
00046C6 9104 201F      0001F       33687    4092.              IF    ~RQMPERM.FPW,BEGIN   No write access
 0046CA 4710 A02C            046DE 33698             +
 0046CE 9110 2005      00005       33703  1 4093.                IF    (RQCNIXR,OR,~RQMPERM.FPA),M1IRS08 Append only OK
 0046D2 4710 A088            0473A 33717  1          +
 0046D6 9102 201F      0001F       33727  1          +
 0046DA 47E0 A088            0473A 33730  1          +
 0046DE                            33736    4094.              END   ,                   No write access
                                   33740    4095.     * If not attached in share mode or already reserved
 0046DE 9120 2006      00006       33741    4096.              IF    (~RQASHR,OR,RQARES),M1IRS00
 0046E2 47E0 A074            04726 33755             +
 0046E6 9120 2007      00007       33764             +
 0046EA 4710 A074            04726 33767             +
 0046EE 5860 2018            00018 33773    4097.              L     RX,RQATFB           Point to attach block
1FILEMAN  (FILEMA) (09:39) (22MAR04) ORVYL'S File Manager                                                                   Page  189
0Current Usings:  (PZERO,R0) (RQWB,R2) (ATFB,R6) (M1IRSRV,R10)
0Loc    Object Code    Addr1 Addr2  Stmt Lv Lineno    Source Statement           (Hibal 5, Asmedit 3.3)  HLASM R4.0  2004/03/22 09.39
+___    ______ ____    _____ _____  ____ __ ______    ______ _________
0USING  ATFB,R6                    33774    4098.              WITH  (ATFB,RX)
 USING  @GRES-72,R13               33787    4099.              PSET  @GRES
 0046F2 D708 D048 D048 00000 00000 33804             +
 0046F8                            33805    4100.              PMOV  @GRID,ATFBRGRI      Point to reserve grid
 0046F8 D203 D04C 6020 00004 00020 33809             +
 0046FE 9640 D050      00008       33810    4101.              SET   @GREXCL             Get exclusive hold
 004702 9120 201E      0001E       33816    4102.              IF    RQWAIT,'SET @GRWAIT' Wait if not avail
 004706 47E0 A05C            0470E 33826             +
 00470A 9680 D050      00008       33837             +
 00470E 58F0 AA06/0DEF       050B8 33842    4103.              VCALL GRGET               Get resource id hold
 004714 5000 2014            00014 33846    4104.              ST    RVR,RQRGRH          Set reserve id
 004718 1200/4780 A07E       04730 33847    4105.              IF    (RVR,Z),M1IRS04     Not available
 00471E 9620 2007      00007       33864    4106.              SET   RQARES              Set to reserved status
 004722 9680 600D      0000D       33870    4107.              SET   ATFBFRES            Set for VFILE display
0004726                            33877    4109.     M1IRS00  LABEL ,
 004726                            33879    4110.              CLEAR RQRETC              Set return code
 004726 D703 2044 2044 00044 00044 33885             +
 00472C 47F0 A092            04744 33886    4111.              EXIT  M1IRSRV             Exit
0004730                            33890    4113.     M1IRS04  LABEL ,
 004730 D203 2044 AA0A 00044 050BC 33892    4114.              MVC   RQRETC,=F'4'        Not available
 004736 47F0 A092            04744 33893    4115.              EXIT  M1IRSRV             Exit
000473A                            33897    4117.     M1IRS08  LABEL ,
 00473A D203 2044 AA0E 00044 050C0 33899    4118.              MVC   RQRETC,=F'8'        No access
 004740 47F0 A092            04744 33900    4119.              EXIT  M1IRSRV             Exit
0004744 981F C008            00008 33904    4121.              PEND  ,
 DROP   ATFB,R6
 DROP   RQWB,R2
 DROP   M1IRSRV,R10
 004748 9680 C000/0B0E 00000       33924             +
 DROP   @GRES-72,R13
1FILEMAN  (FILEMA) (09:39) (22MAR04) ORVYL'S File Manager                                                                   Page  190
0Current Usings:  (PZERO,R0)
0Loc    Object Code    Addr1 Addr2  Stmt Lv Lineno    Source Statement           (Hibal 5, Asmedit 3.3)  HLASM R4.0  2004/03/22 09.39
+___    ______ ____    _____ _____  ____ __ ______    ______ _________
0                                  33934    4123.     *---------------------------------------------------------------------*
                                   33935    4124.     *  M1FRLSE - Release file reserve
                                   33936    4125.     *
                                   33937    4126.     *   Inputs - RA points to RQWB
                                   33938    4127.     *
                                   33939    4128.     *   Output -
                                   33940    4129.     *---------------------------------------------------------------------*
 00474E                            33941    4130.     M1FRLSE  PROC
 00474E D4F1C6D9D3E2C540           33948             +
 004756 0000/0000                  33949             +
 00475A 900F D004/18AF       00004 33951             +
 USING  M1FRLSE,R10
 004760 50D0 C000/18CD       00000 33966             +
 004766 9680 C000      00000       33968             +
 00476A 41D0 C048            00048 33969             +
 USING  RQWB,R2                    33970    4131.              WITH  (RQWB,RA)
000476E                            33984    4133.              IF    (RQRGRH,NZ),BEGIN   Reserved
 00476E D603 2014 2014 00014 00014 33994             +
 004774 4780 A042            0479C 33995             +
 004778 5860 2018            00018 34000  1 4134.                L     RX,RQATFB           Point to attach block
 00477C 947F 600D      0000D       34001  1 4135.                WITH  (ATFB,RX),'CLEAR ATFBFRES' Clear reserve flag
 USING  ATFB,R6
 DROP   ATFB,R6
 USING  @GRES-72,R13               34031  1 4136.                GRREL RID=RQRGRH          Release reserve
 004780 D708 D048 D048 00000 00000 34049  1          +
 004786 D203 D04C 2014 00004 00014 34054  1          +
 00478C 58F0 A96A/0DEF       050C4 34057  1          +
 004792                            34059  1 4137.                CLEAR RQRGRH,RQARES       Clear reserve
 004792 D703 2014 2014 00014 00014 34065  1          +
 004798 94DF 2007      00007       34070  1          +
 00479C                            34071    4138.              END   ,                   Reserved
000479C                            34076    4140.              CLEAR RQRETC,RQWRETC      Set return code
 00479C D703 2044 2044 00044 00044 34082             +
 0047A2 D703 2054 2054 00054 00054 34087             +
 0047A8 4100 0001            00001 34088    4141.              LA    RVR,1               No IO necessary
 0047AC 981F C008            00008 34089    4142.              PEND  ,
 DROP   RQWB,R2
 DROP   M1FRLSE,R10
 0047B0 9680 C000/0B0E 00000       34104             +
 DROP   @GRES-72,R13
1FILEMAN  (FILEMA) (09:39) (22MAR04) ORVYL'S File Manager                                                                   Page  191
0Current Usings:  (PZERO,R0)
0Loc    Object Code    Addr1 Addr2  Stmt Lv Lineno    Source Statement           (Hibal 5, Asmedit 3.3)  HLASM R4.0  2004/03/22 09.39
+___    ______ ____    _____ _____  ____ __ ______    ______ _________
0                                  34114    4144.     *---------------------------------------------------------------------*
                                   34115    4145.     *  SETFNAME - Set file name and file system pointers
                                   34116    4146.     *
                                   34117    4147.     *   Inputs -  RA points to the RQWB
                                   34118    4148.     *
                                   34119    4149.     *   Output -
                                   34120    4150.     *---------------------------------------------------------------------*
 000000                00000 00008 34121    4151.     @SETFNAM RECORD BEGIN
 000000                            34129  1 4152.     @SETFNA    DS    A                   File name pointer
 000004                            34130  1 4153.     @SETFNL    DS    A                   Length
 000008                00008 00008 34131    4154.              END   ,
 0047B6                            34140    4155.     SETFNAME PROC  @SETFNAM
 0047B6 E2C5E3C6D5C1D4C5           34147             +
 0047BE 0008/0000                  34148             +
 0047C2 900F D004/18AF       00004 34150             +
 USING  SETFNAME,R10
 0047C8 50D0 C000/18CD       00000 34165             +
 0047CE 9680 C000      00000       34167             +
 USING  @SETFNAM-72,R12
 0047D2 41D0 C050            00050 34181             +
 USING  RQWB,R2                    34182    4156.              WITH  (RQWB,RA)
00047D6 5860 C048            00000 34196    4158.              L     RX,@SETFNA          Point to file name
 0047DA 5870 C04C/1277       00004 34197    4159.              IF    ('LT RY,@SETFNL',Z),SETFNERR Set length of filename
 0047E0 4780 A1F8            049BA 34210             +
 0047E4 5970 A906            050C8 34216    4160.              IF    (RY,GT,=A(L'RQNAME)),SETFNERR
 0047E8 4720 A1F8            049BA 34229             +
 USING  @CHKMEM-72,R13             34235    4161.              CHKMEM @SETFNA,@SETFNL     Make sure we can read it
 0047EC D707 D048 D048 00000 00000 34253             +
 0047F2 D203 D048 C048 00000 00000 34258             +
 0047F8 D201 D04C C04E 00004 00006 34263             +
 0047FE D200 D04E 2021 00006 00021 34268             +
 004804 58F0 A90A/0DEF       050CC 34274             +
 00480A 1200/4780 A052       04814 34276    4162.              IF    (RVR,NZ),'EXIT SETFNAME' RVR contains panic code
 004810 47F0 A1FC            049BE 34293             +
0004814                            34299    4164.              IF    (=CL4'ORV.',EQ,@RX),BEGIN Fully qualified name
 004814 D503 A90E 6000 050D0 00000 34309             +
 00481A 4770 A082            04844 34310             +
 00481E 5970 A912            050D4 34315  1 4165.                IF    (RY,LE,=A(L'RQNPFX)),SETFNERR
 004822 47C0 A1F8            049BA 34328  1          +
 004826 D20A 2078 6000 00078 00000 34334  1 4166.                MVC   RQNPFX,@RX          Move prefix stuff
 00482C 4160 600B            0000B 34335  1 4167.                LA    RX,@RX+L'RQNPFX     Point pass the prefix stuff
 004830 4B70 A98A            0514C 34336  1 4168.                SH    RY,=Y(L'RQNPFX)     Adjust the length
 004834 954B 207E      0007E       34337  1 4169.                IF    ('CLI RQND1,C"."',NE),SETFNERR
 004838 4770 A1F8            049BA 34347  1          +
 00483C 954B 2082      00082       34353  1 4170.                IF    ('CLI RQND2,C"."',NE),SETFNERR
 004840 4770 A1F8            049BA 34363  1          +
 004844                            34369    4171.              END   ,                   Fully qualified name
 004844 A086           04844 0481C 34373    4172.              ELSE  BEGIN               Not fully qualified
 004844 47F0 A0B2            04874 34378             +
 004848 D203 2078 A90E 00078 050D0 34384  1 4173.                MVC   RQNORV,=CL4'ORV.'   Set
 00484E D205 207C 2008 0007C 00008 34385  1 4174.                MVC   RQNACC,RQFACC       Default to signed on account
 004854 924B 2082      00082       34386  1 4175.                MVI   RQND2,C'.'
1FILEMAN  (FILEMA) (09:39) (22MAR04) ORVYL'S File Manager                                                                   Page  192
0Current Usings:  (PZERO,R0) (RQWB,R2) (SETFNAME,R10) (@SETFNAM-72,R12) (@CHKMEM-72,R13)
0Loc    Object Code    Addr1 Addr2  Stmt Lv Lineno    Source Statement           (Hibal 5, Asmedit 3.3)  HLASM R4.0  2004/03/22 09.39
+___    ______ ____    _____ _____  ____ __ ______    ______ _________
0004858 4D10 A142            04904 34388  1 4177.                BAS   RS,SETFNGRP         Group specified?
 00485C 4770 A0A2            04864 34389  1 4178.                IF    (EQ),BEGIN
 004860 4D10 A164            04926 34400  2 4179.                  BAS   RS,SETFNUSE         Check if user specified
 004864                            34401  1 4180.                END   ,                   End group specified
 004864 A0A6           04864 0485E 34405  1 4181.                ELSE  BEGIN
 004864 47F0 A0B2            04874 34410  1          +
 004868 4D10 A164            04926 34416  2 4182.                  BAS   RS,SETFNUSE         User specified?
 00486C 4770 A0B2            04874 34417  2 4183.                  IF    (EQ),BEGIN
 004870 4D10 A142            04904 34428  3 4184.                    BAS   RS,SETFNGRP         Check if group specified
 004874                            34429  2 4185.                  END   ,                   End user specified
 004874                            34433  1 4186.                END   ,
 004874                            34437    4187.              END   ,                   End not fully qualified
0004874 4197 6000            00000 34442    4189.              LA    RN,@RX(RY)          Point to the last character
 004878 0690                       34443    4190.              DECR  RN
 00487A 9540 9000      00000       34445    4191.              WHILE ('CLI @RN,C" "',EQ),BEGIN Ignore trailing blanks
 00487E 4770 A0C8            0488A 34455             +
 004882 0690                       34460  1 4192.                DECR  RN
 004884 0670                       34462  1 4193.                DECR  RY                  Reduce the edit length
 004886 47F0 A0B8            0487A 34464    4194.              END   ,
000488A 4970 A98C            0514E 34470    4196.              IF    (RY,GT,=Y(L'RQNAM2)),SETFNERR Name too long
 00488E 4720 A1F8            049BA 34483             +
 004892 9240 2083      00083       34489    4197.              MVI   RQNAM2,C' '         Clear filename
 004896 D21F 2084 2083 00084 00083 34490    4198.              MVC   RQNAM2+1(L'RQNAM2-1),RQNAM2
 00489C 1897                       34491    4199.              LR    RN,RY
 00489E 0690/4490 A994       05156 34492    4200.              DEX   RN,'MVC RQNAM2(1),@RX' Get rest of name
 005156 D200 2083 6000 00083 00000 34503             +
0DROP   @CHKMEM-72,R13             34512    4202.              CHKACC RQNACC             Edit account
 USING  @CHKACC-72,R13
 0048A4 D709 D048 D048 00000 00000 34533             +
 0048AA D205 D04C 207C 00004 0007C 34538             +
 0048B0 58F0 A916/0DEF       050D8 34544             +
 0048B6 D205 207C D04C 0007C 00004 34546             +
 0048BC 5830 D048/1200       00000 34547             +
 0048C2 4780 A108            048CA 34549    4203.              IF    NZ,'EXIT SETFNAME'  Error
 0048C6 47F0 A1FC            049BE 34563             +
 0048CA 5030 2024            00024 34568    4204.              ST    RB,RQFSB            Set pointer to FSB
 USING  FSB,R3                     34569    4205.              WITH  (FSB,RB)
00048CE 4160 2083            00083 34583    4207.              LA    RX,RQNAM2           Point to file name (RY = len)
 0048D2 4D10 A1BE            04980 34584    4208.              BAS   RS,SETFNABC         First must be a letter
 0048D6 4780 A120            048E2 34585    4209.              WHILE (NZ),'BAS RS,SETFNCHR' Edit the rest
 0048DA 4D10 A186            04948 34599             +
 0048DE 47F0 A114            048D6 34603             +
00048E2                            34606    4211.              IF    (RQFACC,EQ,FSBOWNER),'SET RQAMAG'   File system owner
 0048E2 D505 2008 3020 00008 00020 34618             +
 0048E8 4770 A12E            048F0 34619             +
 0048EC 9640 2007      00007       34630             +
 0048F0                            34635    4212.              IF    (RQFACC,EQ,RQNACC),'SET RQAOWN'     File owner
 0048F0 D505 2008 207C 00008 0007C 34647             +
 0048F6 4770 A13C            048FE 34648             +
1FILEMAN  (FILEMA) (09:39) (22MAR04) ORVYL'S File Manager                                                                   Page  193
0Current Usings:  (PZERO,R0) (RQWB,R2) (FSB,R3) (SETFNAME,R10) (@SETFNAM-72,R12) (@CHKACC-72,R13)
0Loc    Object Code    Addr1 Addr2  Stmt Lv Lineno    Source Statement           (Hibal 5, Asmedit 3.3)  HLASM R4.0  2004/03/22 09.39
+___    ______ ____    _____ _____  ____ __ ______    ______ _________
00048FA 9680 2007      00007       34659             +
00048FE 1B00                       34665    4214.              CLEAR RVR                 Set good return
 004900 47F0 A1FC            049BE 34669    4215.              EXIT  SETFNAME
0004904                            34673    4217.     SETFNGRP LABEL ,                   Check for @gg.
 004904 957C 6000      00000       34675    4218.              CLI   @RX,C'@'            Group?
 004908 0771                       34676    4219.              BNER  RS                  No, return
 00490A D201 207C 6001 0007C 00001 34677    4220.              MVC   RQNGRP,@RX+1        Set specified group
 004910 4B70 A98E            05150 34678    4221.              SH    RY,=Y(4)            Decrement length
 004914 47D0 A1F8            049BA 34679    4222.              BNP   SETFNERR            Get real
 004918 954B 6003      00003       34680    4223.              CLI   @RX+3,C'.'          Dot?
 00491C 4770 A1F8            049BA 34681    4224.              BNE   SETFNERR            No, error
 004920 4160 6004            00004 34682    4225.              LA    RX,@RX+4            Increment pointer
 004924 07F1                       34683    4226.              BR    RS
0004926                            34685    4228.     SETFNUSE LABEL ,                   Check for &uuu.
 004926 9550 6000      00000       34687    4229.              CLI   @RX,C'&&'           User?
 00492A 0771                       34688    4230.              BNER  RS                  No, return
 00492C D202 207F 6001 0007F 00001 34689    4231.              MVC   RQNUSE,@RX+1        Set specified user
 004932 4B70 A990            05152 34690    4232.              SH    RY,=Y(5)            Decrement length
 004936 47D0 A1F8            049BA 34691    4233.              BNP   SETFNERR            Get real
 00493A 954B 6004      00004       34692    4234.              CLI   @RX+4,C'.'          Dot?
 00493E 4770 A1F8            049BA 34693    4235.              BNE   SETFNERR            No, error
 004942 4160 6005            00005 34694    4236.              LA    RX,@RX+5            Increment pointer
 004946 07F1                       34695    4237.              BR    RS
0004948                            34697    4239.     SETFNCHR LABEL ,
 004948 9110 2006      00006       34699    4240.              IF    ~RQACLP,SETFNCH1
 00494C 47E0 A196            04958 34711             +
 004950 9560 6000      00000       34717    4241.              CLI   @RX,C'-'
 004954 4780 A1EE            049B0 34718    4242.              BE    SETFNCHE
 004958                            34719    4243.     SETFNCH1 LABEL ,
 004958 954B 6000      00000       34721    4244.              CLI   @RX,C'.'
 00495C 4780 A1EE            049B0 34722    4245.              BE    SETFNCHE
 004960 955C 6000      00000       34723    4246.              CLI   @RX,C'*'
 004964 4780 A1EE            049B0 34724    4247.              BE    SETFNCHE
 004968 956D 6000      00000       34725    4248.              CLI   @RX,C'_'
 00496C 4780 A1EE            049B0 34726    4249.              BE    SETFNCHE
 004970 95F0 6000      00000       34727    4250.              CLI   @RX,C'0'
 004974 4740 A1BE            04980 34728    4251.              BL    SETFNABC
 004978 95F9 6000      00000       34729    4252.              CLI   @RX,C'9'
 00497C 47D0 A1EE            049B0 34730    4253.              BNH   SETFNCHE
 004980                            34731    4254.     SETFNABC LABEL ,                   Must be a letter
 004980 95C1 6000      00000       34733    4255.              CLI   @RX,C'A'
 004984 4740 A1F8            049BA 34734    4256.              BL    SETFNERR
 004988 95C9 6000      00000       34735    4257.              CLI   @RX,C'I'
 00498C 47D0 A1EE            049B0 34736    4258.              BNH   SETFNCHE
 004990 95D1 6000      00000       34737    4259.              CLI   @RX,C'J'
 004994 4740 A1F8            049BA 34738    4260.              BL    SETFNERR
 004998 95D9 6000      00000       34739    4261.              CLI   @RX,C'R'
 00499C 47D0 A1EE            049B0 34740    4262.              BNH   SETFNCHE
 0049A0 95E2 6000      00000       34741    4263.              CLI   @RX,C'S'
 0049A4 4740 A1F8            049BA 34742    4264.              BL    SETFNERR
1FILEMAN  (FILEMA) (09:39) (22MAR04) ORVYL'S File Manager                                                                   Page  194
0Current Usings:  (PZERO,R0) (RQWB,R2) (FSB,R3) (SETFNAME,R10) (@SETFNAM-72,R12) (@CHKACC-72,R13)
0Loc    Object Code    Addr1 Addr2  Stmt Lv Lineno    Source Statement           (Hibal 5, Asmedit 3.3)  HLASM R4.0  2004/03/22 09.39
+___    ______ ____    _____ _____  ____ __ ______    ______ _________
00049A8 95E9 6000      00000       34743    4265.              CLI   @RX,C'Z'
 0049AC 4720 A1F8            049BA 34744    4266.              BH    SETFNERR
 0049B0                            34745    4267.     SETFNCHE LABEL ,
 0049B0 4160 6001            00001 34747    4268.              LA    RX,@RX+1
 0049B4 0670                       34748    4269.              DECR  RY
 0049B6 1277                       34750    4270.              LTR   RY,RY               Set cc
 0049B8 07F1                       34751    4271.              BR    RS
00049BA                            34753    4273.     SETFNERR LABEL ,
 0049BA 5800 A91A            050DC 34755    4274.              L     RVR,=F'-8'        Invalid file name
 0049BE 981F C008            00008 34756    4275.              PEND  ,
 DROP   FSB,R3
 DROP   RQWB,R2
 DROP   @SETFNAM-72,R12
 DROP   SETFNAME,R10
 0049C2 9680 C000/0B0E 00000       34781             +
 DROP   @CHKACC-72,R13
1FILEMAN  (FILEMA) (09:39) (22MAR04) ORVYL'S File Manager                                                                   Page  195
0Current Usings:  (PZERO,R0)
0Loc    Object Code    Addr1 Addr2  Stmt Lv Lineno    Source Statement           (Hibal 5, Asmedit 3.3)  HLASM R4.0  2004/03/22 09.39
+___    ______ ____    _____ _____  ____ __ ______    ______ _________
0                                  34791    4277.     *---------------------------------------------------------------------*
                                   34792    4278.     *  RELRQFB - Release a RQFB
                                   34793    4279.     *
                                   34794    4280.     *   Inputs - @RELRQFB
                                   34795    4281.     *
                                   34796    4282.     *   Output - None
                                   34797    4283.     *---------------------------------------------------------------------*
 000000                00000 00004 34798    4284.     @RELRQFB RECORD BEGIN
 000000                            34806  1 4285.     @RELRQFP   DS    A
 000004                00004 00004 34807    4286.              END   ,
 0049C8                            34816    4287.     RELRQFB  PROC  @RELRQFB
 0049C8 D9C5D3D9D8C6C240           34823             +
 0049D0 0008/0000                  34824             +
 0049D4 900F D004/18AF       00004 34826             +
 USING  RELRQFB,R10
 0049DA 50D0 C000/18CD       00000 34841             +
 0049E0 9680 C000      00000       34843             +
 USING  @RELRQFB-72,R12
 0049E4 41D0 C050            00050 34857             +
 0049E8 5890 C048            00000 34858    4288.              L     RN,@RELRQFP         RQFB
 USING  RQFB,R9                    34859    4289.              WITH  (RQFB,RN)
 USING  ATFB,R6                    34872    4290.              WITH  (ATFB,RX)
 USING  FSB,R3                     34885    4291.              WITH  (FSB,RB)
0AUSING (RQATTF,RQFBASV)           34899    4293.              WITH  (RQATTF,RQFBASV)    Map RQWB saved fields in RQFB
00049EC 9102 9012      00006       34907    4295.              IF    RQADET,EXIT         Already released
 0049F0 4710 A32A            04CFE 34919             +
 0049F4 9602 9012      00006       34925    4296.              SET   RQADET              Don't do it again
00049F8 5860 9024/1266       00018 34932    4298.              IF    ('LT RX,RQATFB',NZ),BEGIN File attached
 0049FE 4780 A2CE            04CA2 34943             +
 004A02 5870 0200            00200 34948  1 4299.                ADFCB ,                   FILECB
 USING  MAT,R7
 004A06 5870 7028            00028 34965  1          +
 DROP   MAT,R7
 USING  FILECB,R7
 004A0A 5830 6024            00024 34987  1 4300.                L     RB,ATFBFSB          FSB
 004A0E                            34988  1 4301.                IF    (RQRGRH,NZ),BEGIN
 004A0E D603 9020 9020 00014 00014 34998  1          +
 004A14 4780 A056            04A2A 34999  1          +
 USING  @GRES-72,R13               35004  2 4302.                  GRREL RID=RQRGRH          Release reserve
 004A18 D708 D048 D048 00000 00000 35022  2          +
 004A1E D203 D04C 9020 00004 00014 35027  2          +
 004A24 58F0 A6F0/0DEF       050C4 35030  2          +
 004A2A                            35032  1 4303.                END   ,
 004A2A                            35036  1 4304.                IF    (RQAGRH,NZ),BEGIN
 004A2A D603 901C 901C 00010 00010 35046  1          +
 004A30 4780 A072            04A46 35047  1          +
 004A34                            35052  2 4305.                  GRREL RID=RQAGRH          Release attach
 004A34 D708 D048 D048 00000 00000 35063  2          +
 004A3A D203 D04C 901C 00004 00010 35068  2          +
 004A40 58F0 A6F0/0DEF       050C4 35071  2          +
 004A46                            35073  1 4306.                END   ,
1FILEMAN  (FILEMA) (09:39) (22MAR04) ORVYL'S File Manager                                                                   Page  196
0Current Usings:  (PZERO,R0) (FSB,R3) (ATFB,R6) (FILECB,R7) (RQFB,R9) (RELRQFB,R10) (@RELRQFB-72,R12) (@GRES-72,R13)
0Loc    Object Code    Addr1 Addr2  Stmt Lv Lineno    Source Statement           (Hibal 5, Asmedit 3.3)  HLASM R4.0  2004/03/22 09.39
+___    ______ ____    _____ _____  ____ __ ______    ______ _________
0004A46 9140 9012      00006       35078  1 4308.                IF    RQATMP,BEGIN        Temp file
 004A4A 47E0 A17E            04B52 35088  1          +
 004A4E 58E0 3134/18FE       00134 35093  2 4309.                  DECRS CTFILATP            Current attached files
 004A54 06F0/BAEF 3134       00134 35103  2          +
 004A5A 4770 A07E            04A52 35118  2          +
 004A5E 58E0 70F0/18FE       000F0 35124  2 4310.                  DECRS TTFILATP            Current attached files
 004A64 06F0/BAEF 70F0       000F0 35134  2          +
 004A6A 4770 A08E            04A62 35149  2          +
                                   35155  2 4311.     * Temp files are deleted when detached
 004A6E                            35156  2 4312.                  IF    (ATFBFBLK,NZ),BEGIN File was created
 004A6E D603 6010 6010 00010 00010 35166  2          +
 004A74 4780 A17E            04B52 35167  2          +
 USING  FDEL,R5                    35172  3 4313.                    WITH  (FDEL,RK)
 004A78 5870 0200            00200 35185  3 4314.                    ADFCB ,                   Address file control block
 DROP   FILECB,R7
 USING  MAT,R7
 004A7C 5870 7028            00028 35205  3          +
 DROP   MAT,R7
 USING  FILECB,R7
                                   35225  3 4315.                    SAVAIL HEAD=FILEDB,LEN=L'FDEL
 004A80 9801 7108            00108 35228  3 02-01652 +               LM    RVR,RS,FILEDB       Get fwd and sequence number
 004A84                            35233  3 05-LABEL +$$$896S        DS    0H
 004A84 1200                       35243  4 05-$REL  +                 LTR   RVR,RVR
 004A86 4780 A0C8            04A9C 35246  4 04-$BC   +                 BC    8,$$$896F
 004A8A                            35249  4 05-LABEL +$$$897F          DS    0H
 004A8A 18E0                       35252  4 02-01655 +                 LR    R14,RVR             Point to first item
 004A8C 58EE 0000            00000 35253  4 02-01656 +                 L     R14,0(R14)          Get fwd pointer
 004A90 41F1 0001            00001 35254  4 02-01657 +                 LA    R15,1(RS)           Increment sequence
 004A94 BB0E 7108            00108 35255  3 02-01658 +               CDS   RVR,R14,FILEDB      Remove item from list
 004A98 4770 A0B0            04A84 35269  3 06-$BC   +               BC    7,$$$896S
 004A9C 1200/4770 A11E       04AF2 35272  3 07-LABEL +$$$896F        DS    0H
 DROP   @GRES-72,R13               35291  4 02-VMGET +*,                                     Storage from pool 59
 USING  @VMGET-72,R13
 004AA2 D70A D048 D048 00000 00000 35317  4          +
 004AA8 4100 0015            00015 35329  4          +
 004AAC 5000 D048            00000 35334  4          +
 004AB0 D201 D050 A780 00008 05154 35335  4          +
 004AB6 58F0 A70C/0DEF       050E0 35338  4          +
 004ABC 1200/4770 A11E       04AF2 35347  4          +
 004AC2 AC04 021B      0021B       35357  5          +
 004AC6 9680 021A      0021A       35363  5          +
 004ACA 50F0 021C            0021C 35364  5          +
 004ACE 58F0 0210            00210 35365  5          +
 004AD2 89F0 0010            00010 35366  5          +
 004AD6 88F0 0010            00010 35367  5          +
 004ADA 41F0 F000            00000 35368  5          +
 004ADE AEFF 0006            00006 35369  5          +
 004AE2 D5D66DD4C5D46DC6           35370  4          +
 004AF2 1850                       35379  3 4316.                    LR    RK,RVR              Get pointer
 004AF4                            35380  3 4317.                    CLEAR FDEL
 004AF4 D714 5000 5000 00000 00000 35386  3          +
 004AFA D203 5004 A710 00004 050E4 35387  3 4318.                    MVC   FDELID,=C'TMPD'
 004B00 5030 5008            00008 35388  3 4319.                    ST    RB,FDELF            FSB
 004B04 D203 500C 6010 0000C 00010 35389  3 4320.                    MVC   FDELB,ATFBFBLK      First block
1FILEMAN  (FILEMA) (09:39) (22MAR04) ORVYL'S File Manager                                                                   Page  197
0Current Usings:  (PZERO,R0) (FSB,R3) (FDEL,R5) (ATFB,R6) (FILECB,R7) (RQFB,R9) (RELRQFB,R10) (@RELRQFB-72,R12) (@VMGET-72,R13)
0Loc    Object Code    Addr1 Addr2  Stmt Lv Lineno    Source Statement           (Hibal 5, Asmedit 3.3)  HLASM R4.0  2004/03/22 09.39
+___    ______ ____    _____ _____  ____ __ ______    ______ _________
0                                  35390  3 4321.                    SPUSH HEAD=FILEDT,ITEM=FDEL Put on list of things to do
 004B0A 98EF 7110            00110 35392  3 01-01624 +               LM    R14,R15,FILEDT      Get fwd ptr and sequence number
 004B0E 4100 5000            00000 35393  3 01-01625 +               LA    RVR,FDEL            Point to new item
 004B12                            35398  3 04-LABEL +$$$902S        DS    0H
 004B12 411F 0001            00001 35400  4 01-01627 +                 LA    RS,1(R15)           Increment sequence
 004B16 D203 5000 7110 00000 00110 35401  4 01-01628 +                 MVC   FDEL(L'FILEDTFP),FILEDTFP   Set item fwd ptr
 004B1C BBE0 7110            00110 35402  3 01-01629 +               CDS   R14,RVR,FILEDT      Add item to list
 004B20 4770 A13E            04B12 35416  3 05-$BC   +               BC    7,$$$902S
 004B24                            35419  3 06-LABEL +$$$902F        DS    0H
 004B24 9300 712E      0012E       35423  3 4322.                    TS    FILEDTS
 004B28 4770 A178            04B4C 35424  3 4323.                    IF    Z,BEGIN
 DROP   @VMGET-72,R13              35435  4 4324.                      SIGNL FILEDECB,,FILEDASB,FILEDSYR Been waiting long?
 USING  @SIGNAL-72,R13
 004B2C D713 D048 D048 00000 00000 35456  4          +
 004B32 4100 7100            00100 35468  4          +
 004B36 5000 D050            00008 35473  4          +
 004B3A D203 D054 7120 0000C 00120 35478  4          +
 004B40 D203 D058 7124 00010 00124 35483  4          +
 004B46 58F0 A714/0DEF       050E8 35486  4          +
 004B4C                            35488  3 4325.                    END   ,
 004B4C                            35492  3 4326.                    CLEAR ATFBFBLK            Don't do it again
 004B4C D703 6010 6010 00010 00010 35498  3          +
 DROP   FDEL,R5                    35499  2 4327.                  END   ,                   File was created
 004B52                            35508  1 4328.                END   ,                   Temp file
0004B52 A182           04B52 04A4C 35513  1 4330.                ELSE  BEGIN               Not a temp file
 004B52 47F0 A274            04C48 35518  1          +
 004B56 58E0 312C/18FE       0012C 35524  2 4331.                  DECRS CTFILAUS            Current user attached files
 004B5C 06F0/BAEF 312C       0012C 35534  2          +
 004B62 4770 A186            04B5A 35549  2          +
 004B66 58E0 70E8/18FE       000E8 35555  2 4332.                  DECRS TTFILAUS            Current user attached files
 004B6C 06F0/BAEF 70E8       000E8 35565  2          +
 004B72 4770 A196            04B6A 35580  2          +
 004B76 5840 303C            0003C 35586  2 4333.                  L     RJ,FSBAHFB          Get file attach hash table ptr
 USING  AHFB,R4                    35587  2 4334.                  WITH  (AHFB,RJ)
 004B7A 5850 6018            00018 35600  2 4335.                  L     RK,ATFBATL          Get attached list hash list address
 USING  AHFBL,R5                   35601  2 4336.                  WITH  (AHFBL,RK)
 DROP   @SIGNAL-72,R13             35614  2 4337.                  GRGET RID=AHFBGRID,EXCL=YES Reserve the table
 USING  @GRES-72,R13
 004B7E D708 D048 D048 00000 00000 35635  2          +
 004B84 D203 D04C 4004 00004 00004 35640  2          +
 004B8A 9680 D050      00008       35646  2          +
 004B8E 9640 D050      00008       35652  2          +
 004B92 58F0 A6E4/0DEF       050B8 35655  2          +
 004B98 4810 600E/0610       0000E 35657  2 4338.                  DECR  RS,ATFBCNT          Decrement the count
 004B9E 4010 600E            0000E 35661  2          +
 004BA2                            35662  2 4339.                  IF    (ATFBCNT,NZ),BEGIN  Others still attached
 004BA2 D601 600E 600E 0000E 0000E 35672  2          +
 004BA8 4780 A1EC            04BC0 35673  2          +
 004BAC 1B66                       35678  3 4340.                    CLEAR RX                  Don't free the ATFB
 004BAE                            35682  3 4341.                    GRREL RID=AHFBGRID        Release the table
 004BAE D708 D048 D048 00000 00000 35693  3          +
 004BB4 D203 D04C 4004 00004 00004 35698  3          +
 004BBA 58F0 A6F0/0DEF       050C4 35701  3          +
1FILEMAN  (FILEMA) (09:39) (22MAR04) ORVYL'S File Manager                                                                   Page  198
0Current Usings:  (PZERO,R0) (FSB,R3) (AHFB,R4) (AHFBL,R5) (ATFB,R6) (FILECB,R7) (RQFB,R9) (RELRQFB,R10) (@RELRQFB-72,R12) (@GRES-72,R13)
0Loc    Object Code    Addr1 Addr2  Stmt Lv Lineno    Source Statement           (Hibal 5, Asmedit 3.3)  HLASM R4.0  2004/03/22 09.39
+___    ______ ____    _____ _____  ____ __ ______    ______ _________
0004BC0                            35703  2 4342.                  END   ,                   Others still attached
 004BC0 A1F0           04BC0 04BAA 35707  2 4343.                  ELSE  BEGIN               File no longer attached
 004BC0 47F0 A274            04C48 35712  2          +
 004BC4 1B00/58F0 5008       00008 35718  3 4344.                    LREM  AHFBL,LA:ATFB,WR=RS Remove from list
 004BCA 4110 0001/1BF1       00001 35756  4          +
 004BD0 4740 A218            04BEC 35767  4          +
 004BD4 50F0 5008/18F6       00008 35773  4          +
 004BDA 180F/58E0 F004       00004 35780  4          +
 004BE0 58F0 F000            00000 35788  4          +
 004BE4 50E0 F004            00004 35789  4          +
 004BE8 50F0 E000            00000 35790  3          +
 004BEC                            35795  3 4345.                    GRREL RID=AHFBGRID        Release the table
 004BEC D708 D048 D048 00000 00000 35806  3          +
 004BF2 D203 D04C 4004 00004 00004 35811  3          +
 004BF8 58F0 A6F0/0DEF       050C4 35814  3          +
 004BFE 58E0 3124/18FE       00124 35816  3 4346.                    DECRS CTFILATT            Current attached files
 004C04 06F0/BAEF 3124       00124 35826  3          +
 004C0A 4770 A22E            04C02 35841  3          +
 004C0E 58E0 70E0/18FE       000E0 35847  3 4347.                    DECRS TTFILATT            Current attached files
 004C14 06F0/BAEF 70E0       000E0 35857  3          +
 004C1A 4770 A23E            04C12 35872  3          +
 004C1E 9140 600D      0000D       35878  3 4348.                    IF    (ATFBFTIM,AND,~RQAHALT),BEGIN Update the time?
 004C22 47E0 A274            04C48 35890  3          +
 004C26 9104 9012      00006       35901  3          +
 004C2A 4710 A274            04C48 35902  3          +
 DROP   @GRES-72,R13               35907  4 4349.                      PSET  @FCPERM
 USING  @FCPERM-72,R13
 004C2E D73D D048 D048 00000 00000 35927  4          +
 004C34 5030 D048            00000 35928  4 4350.                      PMOV  @FCPFSB,LA:FSB
 004C38                            35939  4 4351.                      PMOV  @FCPNAME,ATFBNAME   File name
 004C38 D227 D05B 6028 00013 00028 35943  4          +
 004C3E 9680 D054      0000C       35944  4 4352.                      SET   @FCPFMAG            Everyone is magic for this
 004C42 58F0 A718/0DEF       050EC 35950  4 4353.                      VCALL FCATOPRM            Update last access time
 004C48                            35954  3 4354.                    END   ,                   Update the time
 004C48                            35958  2 4355.                  END   ,                   File no longer attached
 DROP   AHFBL,R5                   35962  1 4356.                END   ,                   Not a temp file
 DROP   AHFB,R4
0004C48 1266/4780 A2CE       04CA2 35977  1 4358.                IF    (RX,NZ),BEGIN       Free ATFB
 004C4E                            35991  2 4359.                  IF    (ATFBAGRI,NZ),BEGIN
 004C4E D603 601C 601C 0001C 0001C 36001  2          +
 004C54 4780 A2A8            04C7C 36002  2          +
 DROP   @FCPERM-72,R13             36007  3 4360.                    GRDEL RID=ATFBAGRI        Delete the resource id
 USING  @GRES-72,R13
 004C58 D708 D048 D048 00000 00000 36028  3          +
 004C5E D203 D04C 601C 00004 0001C 36033  3          +
 004C64 58F0 A71C/0DEF       050F0 36036  3          +
 004C6A                            36038  3 4361.                    GRDEL RID=ATFBRGRI        Delete the resource id
 004C6A D708 D048 D048 00000 00000 36049  3          +
 004C70 D203 D04C 6020 00004 00020 36054  3          +
 004C76 58F0 A71C/0DEF       050F0 36057  3          +
 004C7C                            36059  2 4362.                  END   ,
 004C7C                            36063  2 4363.                  CLEAR ATFB
 004C7C D74F 6000 6000 00000 00000 36069  2          +
1FILEMAN  (FILEMA) (09:39) (22MAR04) ORVYL'S File Manager                                                                   Page  199
0Current Usings:  (PZERO,R0) (FSB,R3) (ATFB,R6) (FILECB,R7) (RQFB,R9) (RELRQFB,R10) (@RELRQFB-72,R12) (@GRES-72,R13)
0Loc    Object Code    Addr1 Addr2  Stmt Lv Lineno    Source Statement           (Hibal 5, Asmedit 3.3)  HLASM R4.0  2004/03/22 09.39
+___    ______ ____    _____ _____  ____ __ ______    ______ _________
0004C82 D203 6008 A720 00008 050F4 36070  2 4364.                  MVC   ATFBID,=C'aTFB'
                                   36071  2 4365.                  SPUSH HEAD=FILEATFB,ITEM=ATFB put on free list
 004C88 98EF 7040            00040 36073  2 01-01624 +             LM    R14,R15,FILEATFB    Get fwd ptr and sequence number
 004C8C 4100 6000            00000 36074  2 01-01625 +             LA    RVR,ATFB            Point to new item
 004C90                            36079  2 04-LABEL +$$$927S      DS    0H
 004C90 411F 0001            00001 36081  3 01-01627 +               LA    RS,1(R15)           Increment sequence
 004C94 D203 6000 7040 00000 00040 36082  3 01-01628C+               MVC   ATFB(L'FILEATFBFP),FILEATFBFP
                                          3          +                                                 Set item fwd ptr
 004C9A BBE0 7040            00040 36083  2 01-01629 +             CDS   R14,RVR,FILEATFB    Add item to list
 004C9E 4770 A2BC            04C90 36097  2 05-$BC   +             BC    7,$$$927S
 004CA2                            36100  2 06-LABEL +$$$927F      DS    0H
 004CA2                            36104  1 4366.                END   ,                   Free ATFB
 DROP   FILECB,R7                  36108    4367.              END   ,                   File attached
0004CA2 5880 0208            00208 36118    4369.              L     RM,PZCURASB
 004CA6 5880 8038            00038 36119    4370.              WITH  (ASB,RM),'L RM,ASBASFB'
 USING  ASB,R8
 DROP   ASB,R8
 USING  ASFB,R8                    36143    4371.              WITH  (ASFB,RM)
 004CAA 41E0 8018/1B00       00018 36156    4372.              LREM  ASFBRQ,LA:RQFB,WR=RS Remove from the list
 004CB0 58F0 E008            00008 36191  1          +
 004CB4 4110 0001/1BF1       00001 36199  1          +
 004CBA 4740 A302            04CD6 36210  1          +
 004CBE 50F0 E008/18F9       00008 36216  1          +
 004CC4 180F/58E0 F004       00004 36223  1          +
 004CCA 58F0 F000            00000 36231  1          +
 004CCE 50E0 F004            00004 36232  1          +
 004CD2 50F0 E000            00000 36233             +
 004CD6                            36238    4373.              CLEAR RQFB
 004CD6 D727 9000 9000 00000 00000 36244             +
 004CDC D203 9008 A724 00008 050F8 36245    4374.              MVC   RQFBID,=C'rQFB'
                                   36246    4375.              SPUSH HEAD=ASFBFQ,ITEM=RQFB Put avail item on free list
 004CE2 98EF 8010            00010 36248    01-01624 +         LM    R14,R15,ASFBFQ      Get fwd ptr and sequence number
 004CE6 4100 9000            00000 36249    01-01625 +         LA    RVR,RQFB            Point to new item
 004CEA                            36254    04-LABEL +$$$932S  DS    0H
 004CEA 411F 0001            00001 36256  1 01-01627 +           LA    RS,1(R15)           Increment sequence
 004CEE D203 9000 8010 00000 00010 36257  1 01-01628 +           MVC   RQFB(L'ASFBFQFP),ASFBFQFP   Set item fwd ptr
 004CF4 BBE0 8010            00010 36258    01-01629 +         CDS   R14,RVR,ASFBFQ      Add item to list
 004CF8 4770 A316            04CEA 36272    05-$BC   +         BC    7,$$$932S
 004CFC                            36275    06-LABEL +$$$932F  DS    0H
0004CFC 1B00                       36280    4377.              CLEAR RVR
 004CFE 981F C008            00008 36284    4378.              PEND  ,
 DROP   ASFB,R8
 DROP   FSB,R3
 DROP   ATFB,R6
 DROP   RQFB,R9
 DROP   @RELRQFB-72,R12
 DROP   RELRQFB,R10
 004D02 9680 C000/0B0E 00000       36319             +
 DROP   @GRES-72,R13
1FILEMAN  (FILEMA) (09:39) (22MAR04) ORVYL'S File Manager                                                                   Page  200
0Current Usings:  (PZERO,R0)
0Loc    Object Code    Addr1 Addr2  Stmt Lv Lineno    Source Statement           (Hibal 5, Asmedit 3.3)  HLASM R4.0  2004/03/22 09.39
+___    ______ ____    _____ _____  ____ __ ______    ______ _________
0000000                00000 00015 36329    4380.     #FMANFDT RECORD BEGIN
 000000                            36337  1 4381.     #FMANFDB   DS    XL(L'FDEL)
 000015                00015 00015 36338    4382.              END   ,
                                   36347    4383.     *---------------------------------------------------------------------*
                                   36348    4384.     *  FMANFDT -  Delete file task
                                   36349    4385.     *
                                   36350    4386.     *              This task is created by the delete temp file address
                                   36351    4387.     *              space to delete a file.
                                   36352    4388.     *
                                   36353    4389.     *   Inputs -   Delete file control block
                                   36354    4390.     *
                                   36355    4391.     *   Output -   None
                                   36356    4392.     *---------------------------------------------------------------------*
 004D08                            36357    4393.     FMANFDT  PROC  @TENTRY,#FMANFDT
 004D08 C6D4C1D5C6C4E340           36364             +
 004D10 0008/0018                  36365             +
 004D14 900F D004/18AF       00004 36367             +
 USING  FMANFDT,R10
 004D1A 50D0 C000/18CD       00000 36382             +
 004D20 9680 C000      00000       36384             +
 USING  @TENTRY-72,R12
 AUSING (#FMANFDT,@TENTRY+8)
 004D24 41D0 C068            00068 36403             +
0004D28 5870 0200            00200 36405    4395.              ADFCB ,                   Address file control block
 USING  MAT,R7
 004D2C 5870 7028            00028 36422             +
 DROP   MAT,R7
 USING  FILECB,R7
 004D30 5890 C048            00000 36444    4396.              L     RN,@TEPARM          Get block pointer
 USING  FDEL,R9                    36445    4397.              WITH  (FDEL,RN),BEGIN
 004D34 D214 C050 9000 00000 00000 36459  1 4398.                MVC   #FMANFDB,FDEL       Get info
 004D3A                            36460  1 4399.                CLEAR FDEL
 004D3A D714 9000 9000 00000 00000 36466  1          +
 004D40 D203 9004 A3E8 00004 050FC 36467  1 4400.                MVC   FDELID,=C'fDEL'
                                   36468  1 4401.                SPUSH HEAD=FILEDB,ITEM=FDEL Put on free list post haste
 004D46 98EF 7108            00108 36470  1 01-01624 +           LM    R14,R15,FILEDB      Get fwd ptr and sequence number
 004D4A 4100 9000            00000 36471  1 01-01625 +           LA    RVR,FDEL            Point to new item
 004D4E                            36476  1 04-LABEL +$$$936S    DS    0H
 004D4E 411F 0001            00001 36478  2 01-01627 +             LA    RS,1(R15)           Increment sequence
 004D52 D203 9000 7108 00000 00108 36479  2 01-01628 +             MVC   FDEL(L'FILEDBFP),FILEDBFP   Set item fwd ptr
 004D58 BBE0 7108            00108 36480  1 01-01629 +           CDS   R14,RVR,FILEDB      Add item to list
 004D5C 4770 A03A            04D4E 36494  1 05-$BC   +           BC    7,$$$936S
 004D60                            36497  1 06-LABEL +$$$936F    DS    0H
 DROP   FDEL,R9                    36501    4402.              END   ,
 AUSING (FDEL,#FMANFDB)            36509    4403.              WITH  (FDEL,#FMANFDB)
 USING  FSB,R3                     36516    4404.              WITH  (FSB,RB)
 USING  IXR,R6                     36529    4405.              WITH  (IXR,RX)
 004D60 5830 C058            00008 36542    4406.              L     RB,FDELF            FSB pointer
0004D64 9180 C064      00014       36544    4408.              IF    (~FDELFN,OR,FDELFH),BEGIN IXR or hybrid
 004D68 47E0 A060            04D74 36558             +
 004D6C 9140 C064      00014       36567             +
 004D70 47E0 A104            04E18 36568             +
1FILEMAN  (FILEMA) (09:39) (22MAR04) ORVYL'S File Manager                                                                   Page  201
0Current Usings:  (PZERO,R0) (FSB,R3) (IXR,R6) (FILECB,R7) (FMANFDT,R10) (@TENTRY-72,R12)
0Loc    Object Code    Addr1 Addr2  Stmt Lv Lineno    Source Statement           (Hibal 5, Asmedit 3.3)  HLASM R4.0  2004/03/22 09.39
+___    ______ ____    _____ _____  ____ __ ______    ______ _________
0004D74 5860 C05C            0000C 36573  1 4409.                L     RX,FDELB            Get first IXR
 004D78 9180 C064      00014       36574  1 4410.                IF    ~FDELFN,BEGIN       IXR file
 004D7C 4710 A080            04D94 36584  1          +
 USING  @DELIXR-72,R13             36589  2 4411.                  PSET  @DELIXR
 004D80 D707 D048 D048 00000 00000 36606  2          +
 004D86 5030 D048            00000 36607  2 4412.                  PMOV  @IXRDFSB,LA:FSB
 004D8A 5060 D04C            00004 36618  2 4413.                  PMOV  @IXRDADR,LA:IXR
 004D8E 58F0 A3EC/0DEF       05100 36629  2 4414.                  ACALL FMDELIXR            Release all blocks
 004D94                            36636  1 4415.                END   ,                   IXR file
 004D94 A084           04D94 04D7E 36640  1 4416.                ELSE  BEGIN               Hybrid
 004D94 47F0 A0EE            04E02 36645  1          +
 004D98 1F88/BF87 6001       00001 36651  2 4417.                  L3    RM,IXRECNO          Get the first block number
 004D9E                            36657  2 4418.                  CLEAR IXRECNO             Don't release block number
 004D9E D702 6001 6001 00001 00001 36663  2          +
 004DA4 5080 C05C            0000C 36664  2 4419.                  ST    RM,FDELB            Set for release blocks
 004DA8                            36665  2 4420.                  PSET  @DELIXR
 004DA8 D707 D048 D048 00000 00000 36675  2          +
 004DAE 5030 D048            00000 36676  2 4421.                  PMOV  @IXRDFSB,LA:FSB
 004DB2 5060 D04C            00004 36687  2 4422.                  PMOV  @IXRDADR,LA:IXR
 004DB6 58F0 A3EC/0DEF       05100 36698  2 4423.                  ACALL FMDELIXR            Release blocks in first IXR
 004DBC 5890 C060            00010 36705  2 4424.                  L     RN,FDELC            Get block count
 004DC0 0690                       36706  2 4425.                  DECR  RN                  Already did the first
 004DC2 1299/4780 A0EE       04E02 36708  2 4426.                  IF    (RN,NZ),BEGIN       More than one IXR
 004DC8                            36722  3 4427.                    LOOP  BEGIN
 004DC8 5E80 A3F0            05104 36728  4 4428.                      INCR  RM                  Next block
 DROP   @DELIXR-72,R13             36731  4 4429.                      PSET  @IXRGEPU
 USING  @IXRGEPU-72,R13
 004DCC D70B D048 D048 00000 00000 36751  4          +
 004DD2 5030 D048            00000 36752  4 4430.                      PMOV  @IXRGFSB,LA:FSB
 004DD6 5080 D04C            00004 36763  4 4431.                      PMOV  @IXRGBNO,(RM)       Set block number
 004DDA 5060 D050            00008 36773  4 4432.                      PMOV  @IXRGADR,LA:IXR     Use this buffer
 004DDE 58F0 A3F4/0DEF       05108 36784  4 4433.                      ACALL FMIXRGET            Get IXR record
 004DE4                            36791  4 4434.                      CLEAR IXRECNO             Don't release block number
 004DE4 D702 6001 6001 00001 00001 36797  4          +
 DROP   @IXRGEPU-72,R13            36798  4 4435.                      PSET  @DELIXR
 USING  @DELIXR-72,R13
 004DEA D707 D048 D048 00000 00000 36818  4          +
 004DF0 5030 D048            00000 36819  4 4436.                      PMOV  @IXRDFSB,LA:FSB
 004DF4 5060 D04C            00004 36830  4 4437.                      PMOV  @IXRDADR,LA:IXR
 004DF8 58F0 A3EC/0DEF       05100 36841  4 4438.                      ACALL FMDELIXR            Release all blocks
 004DFE 4690 A0B4            04DC8 36848  3 4439.                    UNTIL (BCT,RN),END
 004E02                            36858  2 4440.                  END   ,                   More than one IXR
 004E02                            36862  1 4441.                END   ,                   Hybrid
 DROP   @DELIXR-72,R13             36866  1 4442.                PSET  @SBFREE
 USING  @SBFREE-72,R13
 004E02 D707 D048 D048 00000 00000 36886  1          +
 004E08                            36887  1 4443.                PMOV  @SBFPOO,FSBRBT
 004E08 D203 D048 302C 00000 0002C 36891  1          +
 004E0E 5060 D04C            00004 36892  1 4444.                PMOV  @SBFADR,LA:IXR
 004E12 58F0 A3F8/0DEF       0510C 36903  1 4445.                VCALL SBUFREE             Free IO buffer
 004E18                            36907    4446.              END   ,                   IXR or hybrid
0004E18 9180 C064      00014       36912    4448.              IF    FDELFN,BEGIN        Non-IXR or hybrid
 004E1C 47E0 A124            04E38 36922             +
1FILEMAN  (FILEMA) (09:39) (22MAR04) ORVYL'S File Manager                                                                   Page  202
0Current Usings:  (PZERO,R0) (FSB,R3) (IXR,R6) (FILECB,R7) (FMANFDT,R10) (@TENTRY-72,R12) (@FMFSB-72,R13)
0Loc    Object Code    Addr1 Addr2  Stmt Lv Lineno    Source Statement           (Hibal 5, Asmedit 3.3)  HLASM R4.0  2004/03/22 09.39
+___    ______ ____    _____ _____  ____ __ ______    ______ _________
0DROP   @SBFREE-72,R13             36927  1 4449.                PSET  @FMFSB              Release bit numbers
 USING  @FMFSB-72,R13
 004E20 D704 D048 D048 00000 00000 36947  1          +
 004E26 5030 D048            00000 36948  1 4450.                PMOV  @FMFSBP,LA:FSB
 004E2A 5810 C05C            0000C 36959  1 4451.                L     RS,FDELB            Get first block
 004E2E 5800 C060            00010 36960  1 4452.                L     RVR,FDELC           Get count of blocks
 004E32 58F0 A3FC/0DEF       05110 36961  1 4453.                VCALL FBITRCON            Release blocks
 004E38                            36965    4454.              END   ,                   Non-ixr
0004E38 58E0 7128/18FE       00128 36970    4456.              DECRS FILEDCNT            One less task
 004E3E 06F0/BAEF 7128       00128 36980             +
 004E44 4770 A128            04E3C 36995             +
0DROP   @FMFSB-72,R13              37002    4458.              PSET  @TEXIT              Exit this task
 USING  @TEXIT-72,R13
 004E48 D703 D048 D048 00000 00000 37022             +
 004E4E 58F0 A400/0DEF       05114 37023    4459.              VCALL TEXIT
0DROP   IXR,R6                     37028    4461.              PEND  CODE=NO
 DROP   FSB,R3
 DROP   FILECB,R7
 DROP   @TENTRY-72,R12
 DROP   FMANFDT,R10
 DROP   @TEXIT-72,R13
1FILEMAN  (FILEMA) (09:39) (22MAR04) ORVYL'S File Manager                                                                   Page  203
0Current Usings:  (PZERO,R0)
0Loc    Object Code    Addr1 Addr2  Stmt Lv Lineno    Source Statement           (Hibal 5, Asmedit 3.3)  HLASM R4.0  2004/03/22 09.39
+___    ______ ____    _____ _____  ____ __ ______    ______ _________
0                                  37065    4463.     *---------------------------------------------------------------------*
                                   37066    4464.     *  FMANTDT -  Delete temporary file task
                                   37067    4465.     *
                                   37068    4466.     *              This task is created by the delete file address
                                   37069    4467.     *              space to delete a temporary file.
                                   37070    4468.     *
                                   37071    4469.     *   Inputs -   Delete temp file control block
                                   37072    4470.     *
                                   37073    4471.     *   Output -   None
                                   37074    4472.     *---------------------------------------------------------------------*
 004E54                            37075    4473.     FMANTDT  PROC  @TENTRY
 004E54 C6D4C1D5E3C4E340           37082             +
 004E5C 0008/0000                  37083             +
 004E60 900F D004/18AF       00004 37085             +
 USING  FMANTDT,R10
 004E66 50D0 C000/18CD       00000 37100             +
 004E6C 9680 C000      00000       37102             +
 USING  @TENTRY-72,R12
 004E70 41D0 C050            00050 37116             +
0004E74 5870 0200            00200 37118    4475.              ADFCB ,                   Address file control block
 USING  MAT,R7
 004E78 5870 7028            00028 37135             +
 DROP   MAT,R7
 USING  FILECB,R7
 USING  FSB,R3                     37157    4476.              WITH  (FSB,RB)
 USING  FDEL,R5                    37170    4477.              WITH  (FDEL,RK)
 004E7C 5850 C048            00000 37183    4478.              L     RK,@TEPARM          Get block pointer
 004E80 5830 5008            00008 37184    4479.              L     RB,FDELF            FSB pointer
 004E84 5860 500C            0000C 37185    4480.              L     RX,FDELB            Get first block number
0004E88                            37187    4482.              CLEAR FDEL
 004E88 D714 5000 5000 00000 00000 37193             +
 004E8E D203 5004 A29C 00004 050FC 37194    4483.              MVC   FDELID,=C'fDEL'
                                   37195    4484.              SPUSH HEAD=FILEDB,ITEM=FDEL Put on free list
 004E94 98EF 7108            00108 37197    01-01624 +         LM    R14,R15,FILEDB      Get fwd ptr and sequence number
 004E98 4100 5000            00000 37198    01-01625 +         LA    RVR,FDEL            Point to new item
 004E9C                            37203    04-LABEL +$$$951S  DS    0H
 004E9C 411F 0001            00001 37205  1 01-01627 +           LA    RS,1(R15)           Increment sequence
 004EA0 D203 5000 7108 00000 00108 37206  1 01-01628 +           MVC   FDEL(L'FILEDBFP),FILEDBFP   Set item fwd ptr
 004EA6 BBE0 7108            00108 37207    01-01629 +         CDS   R14,RVR,FILEDB      Add item to list
 004EAA 4770 A03C            04E9C 37221    05-$BC   +         BC    7,$$$951S
 004EAE                            37224    06-LABEL +$$$951F  DS    0H
0USING  @IXRGEPU-72,R13            37229    4486.              PSET  @IXRGEPU
 004EAE D70B D048 D048 00000 00000 37246             +
 004EB4 5030 D048            00000 37247    4487.              PMOV  @IXRGFSB,LA:FSB
 004EB8 5060 D04C            00004 37258    4488.              PMOV  @IXRGBNO,(RX)       Set first block number
 004EBC 58F0 A2A8/0DEF       05108 37268    4489.              ACALL FMIXRGET            Get IXR record
 004EC2 5860 D050            00008 37275    4490.              L     RX,@IXRGADR         Get IXR address
 004EC6 5810 6034            00034 37276    4491.              WITH  (IXR,RX),'L RS,IXRRRCS' IXR block count
 USING  IXR,R6
 DROP   IXR,R6
 DROP   @IXRGEPU-72,R13            37300    4492.              PSET  @DELIXR
1FILEMAN  (FILEMA) (09:39) (22MAR04) ORVYL'S File Manager                                                                   Page  204
0Current Usings:  (PZERO,R0) (FSB,R3) (FDEL,R5) (FILECB,R7) (FMANTDT,R10) (@TENTRY-72,R12) (@DELIXR-72,R13)
0Loc    Object Code    Addr1 Addr2  Stmt Lv Lineno    Source Statement           (Hibal 5, Asmedit 3.3)  HLASM R4.0  2004/03/22 09.39
+___    ______ ____    _____ _____  ____ __ ______    ______ _________
0USING  @DELIXR-72,R13
 004ECA D707 D048 D048 00000 00000 37320             +
 004ED0 5030 D048            00000 37321    4493.              PMOV  @IXRDFSB,LA:FSB
 004ED4 5060 D04C            00004 37332    4494.              PMOV  @IXRDADR,(RX)
 004ED8 58F0 A2A0/0DEF       05100 37342    4495.              ACALL FMDELIXR            Release all blocks
 DROP   @DELIXR-72,R13             37349    4496.              PSET  @SBFREE
 USING  @SBFREE-72,R13
 004EDE D707 D048 D048 00000 00000 37369             +
 004EE4                            37370    4497.              PMOV  @SBFPOO,FSBRBT
 004EE4 D203 D048 302C 00000 0002C 37374             +
 004EEA 5060 D04C            00004 37375    4498.              PMOV  @SBFADR,(RX)
 004EEE 58F0 A2AC/0DEF       0510C 37385    4499.              VCALL SBUFREE             Free IO buffer
 004EF4 58E0 70F8            000F8 37389    4500.              L     R14,TTFILTBK
 004EF8                            37390    4501.              LOOP  BEGIN
 004EF8 18FE                       37396  1 4502.                LR    R15,R14
 004EFA 1BF1                       37397  1 4503.                SR    R15,RS              Calc new number of temp blocks
 004EFC BAEF 70F8            000F8 37398  1 4504.                CS    R14,R15,TTFILTBK    Set new number of temp blocks
 004F00 4770 A098            04EF8 37399    4505.              UNTIL Z,END
0004F04 58E0 7128/18FE       00128 37419    4507.              DECRS FILEDCNT
 004F0A 06F0/BAEF 7128       00128 37429             +
 004F10 4770 A0A8            04F08 37444             +
0DROP   @SBFREE-72,R13             37451    4509.              PSET  @TEXIT              Exit this task
 USING  @TEXIT-72,R13
 004F14 D703 D048 D048 00000 00000 37471             +
 004F1A 58F0 A2B4/0DEF       05114 37472    4510.              VCALL TEXIT
0DROP   FDEL,R5                    37477    4512.              PEND  CODE=NO
 DROP   FSB,R3
 DROP   FILECB,R7
 DROP   @TENTRY-72,R12
 DROP   FMANTDT,R10
 DROP   @TEXIT-72,R13
1FILEMAN  (FILEMA) (09:39) (22MAR04) ORVYL'S File Manager                                                                   Page  205
0Current Usings:  (PZERO,R0)
0Loc    Object Code    Addr1 Addr2  Stmt Lv Lineno    Source Statement           (Hibal 5, Asmedit 3.3)  HLASM R4.0  2004/03/22 09.39
+___    ______ ____    _____ _____  ____ __ ______    ______ _________
0                                  37514    4514.     *---------------------------------------------------------------------*
                                   37515    4515.     *  FMANTDEL -  Delete file processing
                                   37516    4516.     *
                                   37517    4517.     *              This task is started during file initialization
                                   37518    4518.     *              processing. It checks a queue for temporary files
                                   37519    4519.     *              and a queue of regular IXR files to delete when awaken,
                                   37520    4520.     *              starting a new task each time one is found.
                                   37521    4521.     *
                                   37522    4522.     *   Inputs -   None
                                   37523    4523.     *
                                   37524    4524.     *   Output -   None
                                   37525    4525.     *---------------------------------------------------------------------*
 004F20                            37526    4526.     FMANTDEL PROC  SCOPE=GLOBAL
 004F20 C6D4C1D5E3C4C5D3           37532             +
 004F28 0000/0000                  37533             +
 004F2C 900F D004/18AF       00004 37535             +
 USING  FMANTDEL,R10
 004F32 50D0 C000/18CD       00000 37550             +
 004F38 9680 C000      00000       37552             +
 004F3C 41D0 C048            00048 37553             +
 004F40 58F0 A1EC/0DEF       05118 37554    4527.              VCALL DISPSHLD            Make us non-swapable
 004F46 5870 0200            00200 37558    4528.              ADFCB ,                   Address file control block
 USING  MAT,R7
 004F4A 5870 7028            00028 37575             +
 DROP   MAT,R7
 USING  FILECB,R7
 004F4E D203 7120 0208 00120 00208 37597    4529.              MVC   FILEDASB,PZCURASB   Set ASB pointer
 USING  @SYSRNEW-72,R13            37598    4530.              PSET  @SYSRNEW            Get system routine ID
 004F54 D703 D048 D048 00000 00000 37615             +
 004F5A 58F0 A1F0/0DEF       0511C 37616    4531.              VCALL SYSRNEW
 004F60 5000 7124            00124 37620    4532.              ST    RVR,FILEDSYR        Save pointer
 004F64                            37621    4533.              LOOP  BEGIN               Do forever
 004F64                            37627  1 4534.                IF    (FILEDCNT,GE,16),BEGIN Don't get carried away
 004F64 D503 A1F4 7128 05120 00128 37639  1          +
 004F6A 4730 A058            04F84 37640  1          +
 004F6E 4100 0002            00002 37645  2 4535.                  LA    R0,2                2 * 0.1 = .2 seconds
 004F72 58F0 A1F8/0DEF       05124 37646  2 4536.                  VCALL M1GOWAIT            Throttle the process
 004F78 41E0 0001            00001 37650  2 4537.                  INCR  R14,FILEDCN2        Count it
 004F7C 4AE0 712C            0012C 37654  2          +
 004F80 40E0 712C            0012C 37655  2          +
 004F84                            37656  1 4538.                END   ,                   Don't get carried away
 004F84 A05C           04F84 04F6C 37660  1 4539.                ELSE  BEGIN               Create tasks
 004F84 47F0 A13C            05068 37665  1          +
                                   37671  2 4540.                  SPOP  HEAD=FILEDT         Get the next control block
 004F88 9801 7110            00110 37673  2 01-01652 +             LM    RVR,RS,FILEDT       Get fwd and sequence number
 004F8C                            37678  2 04-LABEL +$$$964S      DS    0H
 004F8C 1200                       37688  3 04-$REL  +               LTR   RVR,RVR
 004F8E 4780 A078            04FA4 37691  3 03-$BC   +               BC    8,$$$964F
 004F92                            37694  3 04-LABEL +$$$965F        DS    0H
 004F92 18E0                       37697  3 01-01655 +               LR    R14,RVR             Point to first item
 004F94 58EE 0000            00000 37698  3 01-01656 +               L     R14,0(R14)          Get fwd pointer
 004F98 41F1 0001            00001 37699  3 01-01657 +               LA    R15,1(RS)           Increment sequence
 004F9C BB0E 7110            00110 37700  2 01-01658 +             CDS   RVR,R14,FILEDT      Remove item from list
 004FA0 4770 A060            04F8C 37714  2 05-$BC   +             BC    7,$$$964S
1FILEMAN  (FILEMA) (09:39) (22MAR04) ORVYL'S File Manager                                                                   Page  206
0Current Usings:  (PZERO,R0) (FILECB,R7) (FMANTDEL,R10) (@SYSRNEW-72,R13)
0Loc    Object Code    Addr1 Addr2  Stmt Lv Lineno    Source Statement           (Hibal 5, Asmedit 3.3)  HLASM R4.0  2004/03/22 09.39
+___    ______ ____    _____ _____  ____ __ ______    ______ _________
0004FA4                            37717  2 06-LABEL +$$$964F      DS    0H
 004FA4 1200/4780 A0BA       04FE6 37721  2 4541.                  IF    (R0,NZ),BEGIN       Got one!
 004FAA 58E0 7128/18FE       00128 37735  3 4542.                    INCRS FILEDCNT
 004FB0 5EF0 A1D8            05104 37746  4          +
 004FB4 BAEF 7128            00128 37747  3          +
 004FB8 4770 A082            04FAE 37761  3          +
 DROP   @SYSRNEW-72,R13            37767  3 4543.                    PSET  @TCREATE
 USING  @TCREATE-72,R13
 004FBC D714 D048 D048 00000 00000 37787  3          +
 004FC2 5000 D050            00008 37788  3 4544.                    ST    R0,@TCRPARM         Parm is the control block
 004FC6 D203 D058 A1FC 00010 05128 37789  3 4545.                    MVC   @TCRPRIO,=A(-10)    Lower priority
 004FCC D203 D048 A200 00000 0512C 37790  3 4546.                    MVC   @TCRPSW(4),=X'070C0000' Set PSW
 004FD2 D203 D04C A204 00004 05130 37791  3 4547.                    MVC   @TCRPSW+4(4),=A(FMANTDT) Temp file delete
 004FD8 9680 D04C      00004       37792  3 4548.                    SET   @TCRPSW+4.X'80'     31 bit addressing
 004FDC 9680 D05C      00014       37799  3 4549.                    SET   @TCRFSTK            Task needs a stack
 004FE0 58F0 A208/0DEF       05134 37805  3 4550.                    VCALL TCREATE             Just do it!
 004FE6                            37809  2 4551.                  END   ,                   Got one!
 004FE6 A0BE           04FE6 04FA8 37813  2 4552.                  ELSE  BEGIN               Check for other kind
 004FE6 47F0 A13C            05068 37818  2          +
                                   37824  3 4553.                    SPOP  HEAD=FILEDF         Get the next control block
 004FEA 9801 7118            00118 37826  3 01-01652 +               LM    RVR,RS,FILEDF       Get fwd and sequence number
 004FEE                            37831  3 04-LABEL +$$$974S        DS    0H
 004FEE 1200                       37841  4 04-$REL  +                 LTR   RVR,RVR
 004FF0 4780 A0DA            05006 37844  4 03-$BC   +                 BC    8,$$$974F
 004FF4                            37847  4 04-LABEL +$$$975F          DS    0H
 004FF4 18E0                       37850  4 01-01655 +                 LR    R14,RVR             Point to first item
 004FF6 58EE 0000            00000 37851  4 01-01656 +                 L     R14,0(R14)          Get fwd pointer
 004FFA 41F1 0001            00001 37852  4 01-01657 +                 LA    R15,1(RS)           Increment sequence
 004FFE BB0E 7118            00118 37853  3 01-01658 +               CDS   RVR,R14,FILEDF      Remove item from list
 005002 4770 A0C2            04FEE 37867  3 05-$BC   +               BC    7,$$$974S
 005006                            37870  3 06-LABEL +$$$974F        DS    0H
 005006 1200/4780 A11C       05048 37874  3 4554.                    IF    (R0,NZ),BEGIN       Got one!
 00500C 58E0 7128/18FE       00128 37888  4 4555.                      INCRS FILEDCNT
 005012 5EF0 A1D8            05104 37899  5          +
 005016 BAEF 7128            00128 37900  4          +
 00501A 4770 A0E4            05010 37914  4          +
 00501E                            37920  4 4556.                      PSET  @TCREATE
 00501E D714 D048 D048 00000 00000 37930  4          +
 005024 5000 D050            00008 37931  4 4557.                      ST    R0,@TCRPARM         Parm is the control block
 005028 D203 D058 A20C 00010 05138 37932  4 4558.                      MVC   @TCRPRIO,=A(-5)     Lower priority
 00502E D203 D048 A200 00000 0512C 37933  4 4559.                      MVC   @TCRPSW(4),=X'070C0000' Set PSW
 005034 D203 D04C A210 00004 0513C 37934  4 4560.                      MVC   @TCRPSW+4(4),=A(FMANFDT) IXR file delete
 00503A 9680 D04C      00004       37935  4 4561.                      SET   @TCRPSW+4.X'80'     31 bit addressing
 00503E 9680 D05C      00014       37942  4 4562.                      SET   @TCRFSTK            Task needs a stack
 005042 58F0 A208/0DEF       05134 37948  4 4563.                      VCALL TCREATE             Just do it!
 005048                            37952  3 4564.                    END   ,                   Got one!
 005048 A120           05048 0500A 37956  3 4565.                    ELSE  BEGIN               Wait a while
 005048 47F0 A13C            05068 37961  3          +
 DROP   @TCREATE-72,R13            37967  4 4566.                      AWAIT FILEDECB,LEN=LONG   Wait as long as necessary
 USING  @AWAIT-72,R13
 00504C D704 D048 D048 00000 00000 37988  4          +
 005052 4100 7100            00100 38000  4          +
 005056 5000 D048            00000 38005  4          +
 00505A 9680 D04C      00004       38011  4          +
1FILEMAN  (FILEMA) (09:39) (22MAR04) ORVYL'S File Manager                                                                   Page  207
0Current Usings:  (PZERO,R0) (FILECB,R7) (FMANTDEL,R10) (@AWAIT-72,R13)
0Loc    Object Code    Addr1 Addr2  Stmt Lv Lineno    Source Statement           (Hibal 5, Asmedit 3.3)  HLASM R4.0  2004/03/22 09.39
+___    ______ ____    _____ _____  ____ __ ______    ______ _________
000505E 58F0 A214/0DEF       05140 38014  4          +
 005064 9200 712E      0012E       38016  4 4567.                      CLEAR FILEDTS
 005068                            38023  3 4568.                    END   ,                   Wait a while
 005068                            38027  2 4569.                  END   ,                   Check for other kind
 005068                            38031  1 4570.                END   ,                   Create tasks
 005068 47F0 A038            04F64 38035    4571.              END   ,                   Do forever
0DROP   FILECB,R7                  38041    4573.              PEND  CODE=NO
 DROP   FMANTDEL,R10
 DROP   @AWAIT-72,R13
1FILEMAN  (FILEMA) (09:39) (22MAR04) ORVYL'S File Manager                                                                   Page  208
0Current Usings:  (PZERO,R0)
0Loc    Object Code    Addr1 Addr2  Stmt Lv Lineno    Source Statement           (Hibal 5, Asmedit 3.3)  HLASM R4.0  2004/03/22 09.39
+___    ______ ____    _____ _____  ____ __ ______    ______ _________
0                                  38063    4575.     *---------------------------------------------------------------------*
                                   38064    4576.     *  FMANTDIN -  Initialize delete temporary file processing
                                   38065    4577.     *
                                   38066    4578.     *   Inputs -   None
                                   38067    4579.     *
                                   38068    4580.     *   Output -   None
                                   38069    4581.     *---------------------------------------------------------------------*
 00506C                            38070    4582.     FMANTDIN PROC  SCOPE=GLOBAL
 00506C C6D4C1D5E3C4C9D5           38076             +
 005074 0000/0000                  38077             +
 005078 900F D004/18AF       00004 38079             +
 USING  FMANTDIN,R10
 00507E 50D0 C000/18CD       00000 38094             +
 005084 9680 C000      00000       38096             +
 005088 41D0 C048            00048 38097             +
                                   38098    4583.     *
                                   38099    4584.     *  Create an address space for deleting temporary files
                                   38100    4585.     *
 USING  @ACREATE-72,R13            38101    4586.              PSET  @ACREATE
 00508C D707 D048 D048 00000 00000 38118             +
 005092 D203 D048 A0B4 00000 0512C 38119    4587.              MVC   @ACRPSW(4),=X'070C0000' Default location
 005098 5820 0200            00200 38120    4588.              L     RA,MATPTR
 USING  MAT,R2                     38121    4589.              WITH  (MAT,RA),'OC @ACRPSW+1(1),MATSKEY' System Key
 00509C D600 D049 20E0 00001 000E0 38136             +
 DROP   MAT,R2
 0050A2 D203 D04C A0CC 00004 05144 38145    4590.              MVC   @ACRPSW+4(4),=A(X'80000000'+FMANTDEL)
 0050A8 58F0 A0D0/0DEF       05148 38146    4591.              VCALL ACREATE                 Create the address space
 0050AE 981F C008            00008 38150    4592.              PEND  ,
 DROP   FMANTDIN,R10
 0050B2 9680 C000/0B0E 00000       38160             +
 DROP   @ACREATE-72,R13
 0050B8                            38169    4593.              LTORG ,
 0050B8 00000000                   38171                             =V(GRGET)
 0050BC 00000004                   38172                             =F'4'
 0050C0 00000008                   38173                             =F'8'
 0050C4 00000000                   38174                             =V(GRREL)
 0050C8 0000002C                   38175                             =A(L'RQNAME)
 0050CC 000054D2                   38176                             =A(CHKMEM)
 0050D0 D6D9E54B                   38177                             =CL4'ORV.'
 0050D4 0000000B                   38178                             =A(L'RQNPFX)
 0050D8 0000537C                   38179                             =A(CHKACC)
 0050DC FFFFFFF8                   38180                             =F'-8'
 0050E0 00000000                   38181                             =V(VMGET)
 0050E4 E3D4D7C4                   38182                             =C'TMPD'
 0050E8 00000000                   38183                             =V(SIGNAL)
 0050EC 00000000                   38184                             =V(FCATOPRM)
 0050F0 00000000                   38185                             =V(GRDEL)
 0050F4 81E3C6C2                   38186                             =C'aTFB'
 0050F8 99D8C6C2                   38187                             =C'rQFB'
 0050FC 86C4C5D3                   38188                             =C'fDEL'
 005100 00005DAC                   38189                             =A(FMDELIXR)
 005104 00000001                   38190                             =A(1)
 005108 00005EA4                   38191                             =A(FMIXRGET)
 00510C 00000000                   38192                             =V(SBUFREE)
1FILEMAN  (FILEMA) (09:39) (22MAR04) ORVYL'S File Manager                                                                   Page  209
0Current Usings:  (PZERO,R0)
0Loc    Object Code    Addr1 Addr2  Stmt Lv Lineno    Source Statement           (Hibal 5, Asmedit 3.3)  HLASM R4.0  2004/03/22 09.39
+___    ______ ____    _____ _____  ____ __ ______    ______ _________
0005110 00000000                   38193                             =V(FBITRCON)
 005114 00000000                   38194                             =V(TEXIT)
 005118 00000000                   38195                             =V(DISPSHLD)
 00511C 00000000                   38196                             =V(SYSRNEW)
 005120 00000010                   38197                             =AL4(16)
 005124 00000000                   38198                             =V(M1GOWAIT)
 005128 FFFFFFF6                   38199                             =A(-10)
 00512C 070C0000                   38200                             =X'070C0000'
 005130 00004E60                   38201                             =A(FMANTDT)
 005134 00000000                   38202                             =V(TCREATE)
 005138 FFFFFFFB                   38203                             =A(-5)
 00513C 00004D14                   38204                             =A(FMANFDT)
 005140 00000000                   38205                             =V(AWAIT)
 005144 80004F2C                   38206                             =A(X'80000000'+FMANTDEL)
 005148 00000000                   38207                             =V(ACREATE)
 00514C 000B                       38208                             =Y(L'RQNPFX)
 00514E 0021                       38209                             =Y(L'RQNAM2)
 005150 0004                       38210                             =Y(4)
 005152 0005                       38211                             =Y(5)
 005154 3B00           0515C 06510 38212                             =Y(59*256+0)
1FILEMAN  (FILEMA) (09:39) (22MAR04) ORVYL'S File Manager                                                                   Page  210
0Current Usings:  (PZERO,R0)
0Loc    Object Code    Addr1 Addr2  Stmt Lv Lineno    Source Statement           (Hibal 5, Asmedit 3.3)  HLASM R4.0  2004/03/22 09.39
+___    ______ ____    _____ _____  ____ __ ______    ______ _________
0                                  38217    4595.     *---------------------------------------------------------------------*
                                   38218    4596.     *  FMASINIT -  Build a ASFB for this address space. This block exists
                                   38219    4597.     *              for the entire time the address space exists (user
                                   38220    4598.     *              stays logged on).
                                   38221    4599.     *
                                   38222    4600.     *   Inputs -   None
                                   38223    4601.     *
                                   38224    4602.     *   Output -   None
                                   38225    4603.     *---------------------------------------------------------------------*
 00515C                            38226    4604.     FMASFINI PROC  ,
 00515C C6D4C1E2C6C9D5C9           38233             +
 005164 0000/0000                  38234             +
 005168 900F D004/18AF       00004 38236             +
 USING  FMASFINI,R10
 00516E 50D0 C000/18CD       00000 38251             +
 005174 9680 C000      00000       38253             +
 005178 41D0 C048            00048 38254             +
 USING  @VMGET-72,R13              38255    4605.              VMGET L'ASFB,LOC=LOCSYS
 00517C D70A D048 D048 00000 00000 38279             +
 005182 4100 0030            00030 38291             +
 005186 5000 D048            00000 38296             +
 00518A D201 D050 A56C 00008 056D4 38297             +
 005190 58F0 A518/0DEF       05680 38300             +
 005196 1240/4770 A064       051CC 38302    4606.              IF    ('LTR RJ,RVR',Z),'ABORT NOASFBMEM'
 00519C AC04 021B      0021B       38319  1          +
 0051A0 9680 021A      0021A       38325  1          +
 0051A4 50F0 021C            0021C 38326  1          +
 0051A8 58F0 0210            00210 38327  1          +
 0051AC 89F0 0010            00010 38328  1          +
 0051B0 88F0 0010            00010 38329  1          +
 0051B4 41F0 F000            00000 38330  1          +
 0051B8 AEFF 0006            00006 38331  1          +
 0051BC D5D6C1E2C6C2D4C5           38332             +
 USING  ASFB,R4                    38337    4607.              WITH  (ASFB,RJ)
 0051CC                            38350    4608.              CLEAR ASFB
 0051CC D72F 4000 4000 00000 00000 38356             +
 0051D2 D203 4000 A51C 00000 05684 38357    4609.              MVC   ASFBID,=C'ASFB'     Set block id
 0051D8 41F0 4018            00018 38358    4610.              LA    R15,ASFBRQ          Init list
 0051DC 50F0 4018            00018 38359    4611.              ST    R15,ASFBRQFP
 0051E0 50F0 401C            0001C 38360    4612.              ST    R15,ASFBRQBP
 0051E4 5810 0208            00208 38361    4613.              L     RS,PZCURASB
 0051E8 5040 1038            00038 38362    4614.              WITH  (ASB,RS),'ST RJ,ASBASFB' set pointer
 USING  ASB,R1
 DROP   ASB,R1
 0051EC 58F0 A520/0DEF       05688 38386    4615.              ACALL FMSETSOU            Get signed on account
 0051F2 981F C008            00008 38393    4616.              PEND  ,
 DROP   ASFB,R4
 DROP   FMASFINI,R10
 0051F6 9680 C000/0B0E 00000       38408             +
 DROP   @VMGET-72,R13
1FILEMAN  (FILEMA) (09:39) (22MAR04) ORVYL'S File Manager                                                                   Page  211
0Current Usings:  (PZERO,R0)
0Loc    Object Code    Addr1 Addr2  Stmt Lv Lineno    Source Statement           (Hibal 5, Asmedit 3.3)  HLASM R4.0  2004/03/22 09.39
+___    ______ ____    _____ _____  ____ __ ______    ______ _________
0                                  38418    4618.     *---------------------------------------------------------------------*
                                   38419    4619.     *  Halt file operations in progress and serialize behind with any
                                   38420    4620.     *  tasks waiting for resources
                                   38421    4621.     *
                                   38422    4622.     *   Input - @FILEHALT
                                   38423    4623.     *
                                   38424    4624.     *  Output - None
                                   38425    4625.     *
                                   38426    4626.     *---------------------------------------------------------------------*
00051FC                            38428    4628.     FILEHALT PROC  @FILEHALT,SCOPE=GLOBAL
 0051FC C6C9D3C5C8C1D3E3           38434             +
 005204 0008/0000                  38435             +
 005208 900F D004/18AF       00004 38437             +
 USING  FILEHALT,R10
 00520E 50D0 C000/18CD       00000 38452             +
 005214 9680 C000      00000       38454             +
 USING  @FILEHALT-72,R12
 005218 41D0 C050            00050 38468             +
 00521C 5800 C048            00000 38469    4629.              L     R0,@FHRQID
 005220 5810 0208            00208 38470    4630.              L     R1,PZCURASB
 005224 9901 A4D4            056DC 38471    4631.              XTRC  R0,R1,FILEHALT      Save some clues
 0056DB 00/000056DC                       1          +
 0056E0 00000386/0001              38480  1          +
 0056E6 C6C9D3C5C8C1D3E3           38482             +
0USING  ATFB,R6                    38490    4633.              WITH  (ATFB,RX)
 USING  RQFB,R5                    38503    4634.              WITH  (RQFB,RK)
0005228 1B00                       38517    4636.              CLEAR RVR
000522A 5850 C048/1255       00000 38522    4638.              IF    ('LT RK,@FHRQID',Z),EXIT Nothing to do
 005230 4780 A110            05318 38535             +
0005234 5820 500C/1222       0000C 38542    4640.              IF    ('LT RA,RQFBRQWB',NZ),BEGIN IO in progress
 00523A 4780 A04C            05254 38553             +
 USING  RQWB,R2                    38558  1 4641.                WITH  (RQWB,RA)
 00523E 9604 2006      00006       38571  1 4642.                SET   RQAHALT             Indicate file halt processing
 005242                            38577  1 4643.                CLEAR RQWBRQFB            He is an orphan now
 005242 D703 2028 2028 00028 00028 38583  1          +
 005248                            38584  1 4644.                CLEAR RQATFB              We'll detach for him
 005248 D703 2018 2018 00018 00018 38590  1          +
 00524E                            38591  1 4645.                CLEAR RQFBRQWB            He is an orphan now
 00524E D703 500C 500C 0000C 0000C 38597  1          +
 DROP   RQWB,R2                    38598    4646.              END   ,
0AUSING (RQATTF,RQFBASV)           38608    4648.              WITH  (RQATTF,RQFBASV)    Map RQWB saved fields in RQFB
 005254 9604 5012      00006       38615    4649.              SET   RQAHALT             Indicate file halt processing
0005258 9108 5013      00007       38622    4651.              IF    RQAS117,BEGIN       Halt status 117
 00525C 47E0 A062            0526A 38632             +
 005260 58F0 A484/0DEF       0568C 38637  1 4652.                VCALL M1CANWAI            Cancel
 005266 47F0 A110            05318 38641  1 4653.                EXIT  FILEHALT            Done
 00526A                            38644    4654.              END   ,
1FILEMAN  (FILEMA) (09:39) (22MAR04) ORVYL'S File Manager                                                                   Page  212
0Current Usings:  (PZERO,R0) (RQFB,R5) (ATFB,R6) (FILEHALT,R10) (@FILEHALT-72,R12)
0Loc    Object Code    Addr1 Addr2  Stmt Lv Lineno    Source Statement           (Hibal 5, Asmedit 3.3)  HLASM R4.0  2004/03/22 09.39
+___    ______ ____    _____ _____  ____ __ ______    ______ _________
000526A 5860 5024/1266       00018 38649    4656.              IF    ('LT RX,RQATFB',Z),EXIT
 005270 4780 A110            05318 38662             +
0005274                            38669    4658.              IF    (ATFBRGRI,NZ),BEGIN
 005274 D603 6020 6020 00020 00020 38679             +
 00527A 4780 A08C            05294 38680             +
 USING  @GRES-72,R13               38685  1 4659.                GRCAN RID=ATFBRGRI        Cancel tasks waiting for reserve
 00527E D708 D048 D048 00000 00000 38703  1          +
 005284 9620 D050      00008       38709  1          +
 005288 D203 D04C 6020 00004 00020 38714  1          +
 00528E 58F0 A488/0DEF       05690 38717  1          +
 005294                            38719    4660.              END   ,
 005294                            38723    4661.              IF    (ATFBAGRI,NZ),BEGIN
 005294 D603 601C 601C 0001C 0001C 38733             +
 00529A 4780 A0AC            052B4 38734             +
 00529E                            38739  1 4662.                GRCAN RID=ATFBAGRI        Cancel tasks waiting for attach
 00529E D708 D048 D048 00000 00000 38750  1          +
 0052A4 9620 D050      00008       38756  1          +
 0052A8 D203 D04C 601C 00004 0001C 38761  1          +
 0052AE 58F0 A488/0DEF       05690 38764  1          +
 0052B4                            38766    4663.              END   ,
00052B4 5830 6024/1233       00024 38771    4665.              IF    ('LT RB,ATFBFSB',Z),EXIT Done
 0052BA 4780 A110            05318 38784             +
 USING  FSB,R3                     38790    4666.              WITH  (FSB,RB)
 0052BE                            38803    4667.              GRGET RID=FSBCGRI,EXCL=YES Serialize with catalog
 0052BE D708 D048 D048 00000 00000 38814             +
 0052C4 D203 D04C 3028 00004 00028 38819             +
 0052CA 9680 D050      00008       38825             +
 0052CE 9640 D050      00008       38831             +
 0052D2 58F0 A48C/0DEF       05694 38834             +
 0052D8                            38836    4668.              GRREL RID=(RVR)
 0052D8 D708 D048 D048 00000 00000 38847             +
 0052DE 5000 D04C            00004 38857             +
 0052E2 58F0 A490/0DEF       05698 38860             +
00052E8 5840 303C            0003C 38863    4670.              L     RJ,FSBAHFB          Get file attach hash table ptr
 USING  AHFB,R4                    38864    4671.              WITH  (AHFB,RJ)
 0052EC                            38877    4672.              GRGET RID=AHFBGRID,EXCL=YES Serialize with hash table
 0052EC D708 D048 D048 00000 00000 38888             +
 0052F2 D203 D04C 4004 00004 00004 38893             +
 0052F8 9680 D050      00008       38899             +
 0052FC 9640 D050      00008       38905             +
 005300 58F0 A48C/0DEF       05694 38908             +
 005306                            38910    4673.              GRREL RID=(RVR)
 005306 D708 D048 D048 00000 00000 38921             +
 00530C 5000 D04C            00004 38931             +
 005310 58F0 A490/0DEF       05698 38934             +
0005316 1B00                       38937    4675.              CLEAR RVR
 005318 981F C008            00008 38941    4676.              PEND  ,
 DROP   AHFB,R4
 DROP   FSB,R3
 DROP   RQFB,R5
1FILEMAN  (FILEMA) (09:39) (22MAR04) ORVYL'S File Manager                                                                   Page  213
0Current Usings:  (PZERO,R0) (@GRES-72,R13)
0Loc    Object Code    Addr1 Addr2  Stmt Lv Lineno    Source Statement           (Hibal 5, Asmedit 3.3)  HLASM R4.0  2004/03/22 09.39
+___    ______ ____    _____ _____  ____ __ ______    ______ _________
0DROP   ATFB,R6
 DROP   @FILEHALT-72,R12
 DROP   FILEHALT,R10
 00531C 9680 C000/0B0E 00000       38976             +
 DROP   @GRES-72,R13
1FILEMAN  (FILEMA) (09:39) (22MAR04) ORVYL'S File Manager                                                                   Page  214
0Current Usings:  (PZERO,R0)
0Loc    Object Code    Addr1 Addr2  Stmt Lv Lineno    Source Statement           (Hibal 5, Asmedit 3.3)  HLASM R4.0  2004/03/22 09.39
+___    ______ ____    _____ _____  ____ __ ______    ______ _________
0                                  38986    4678.     *---------------------------------------------------------------------*
                                   38987    4679.     *  SETTEMPN - Build "ccyymmdd.hh:mm:ss" string
                                   38988    4680.     *
                                   38989    4681.     *   Inputs -  RS points to format area
                                   38990    4682.     *
                                   38991    4683.     *   Output -  format area formated
                                   38992    4684.     *---------------------------------------------------------------------*
 005322                            38993    4685.     SETTEMPN PROC  ,
 005322 E2C5E3E3C5D4D7D5           39000             +
 00532A 0000/0000                  39001             +
 00532E 900F D004/18AF       00004 39003             +
 USING  SETTEMPN,R10
 005334 50D0 C000/18CD       00000 39018             +
 00533A 9680 C000      00000       39020             +
 00533E 41D0 C048            00048 39021             +
 005342 1861                       39022    4686.              LR    RX,R1               Get pointer to format area
 005344 58F0 A36E/0DEF       0569C 39023    4687.              VCALL M1TIME              Get current
 00534A 1870                       39027    4688.              LR    RY,R0               Save time
 00534C 1301                       39028    4689.              LCR   R0,R1               Get date
 00534E 1816                       39029    4690.              LR    R1,RX               Point to date format area
 005350 58E0 A372/0DEE       056A0 39030    4691.              XCALL DATE                VCR entry point
 005356 924B 1008      00008       39034    4692.              MVI   @R1+8,C'.'
 00535A 4110 1009            00009 39035    4693.              LA    R1,@R1+9            Next target
 00535E 1807                       39036    4694.              LR    R0,RY               Restore time
 005360 58E0 A376/0DEE       056A4 39037    4695.              XCALL TIME                VCR entry point
 005366 981F C008            00008 39041    4696.              PEND  ,
 DROP   SETTEMPN,R10
 00536A 9680 C000/0B0E 00000       39051             +
1FILEMAN  (FILEMA) (09:39) (22MAR04) ORVYL'S File Manager                                                                   Page  215
0Current Usings:  (PZERO,R0)
0Loc    Object Code    Addr1 Addr2  Stmt Lv Lineno    Source Statement           (Hibal 5, Asmedit 3.3)  HLASM R4.0  2004/03/22 09.39
+___    ______ ____    _____ _____  ____ __ ______    ______ _________
0                                  39058    4698.     *-------------------------------------------------------------------*
                                   39059    4699.     *
                                   39060    4700.     *  CHKACC  --  Check account
                                   39061    4701.     *
                                   39062    4702.     *   Input  --  @CHKACC
                                   39063    4703.     *
                                   39064    4704.     *  Output  --  Return code
                                   39065    4705.     *               RVR = 0 All OK
                                   39066    4706.     *               RVR = 1 Invalid account
                                   39067    4707.     *               RVR = 4 Protection exception
                                   39068    4708.     *               RVR = 5 Addressing exception
                                   39069    4709.     *
                                   39070    4710.     *-------------------------------------------------------------------*
 000000                00000 00003 39071    4711.     #CHKACC  RECORD BEGIN
 000000                            39079  1 4712.     #CHKACFI   DS    X                   FSB id
 000001                            39080  1 4713.     #CHKACFG   DS    CL2                 Group
 000003                00003 00003 39081    4714.              END   ,
 005370                            39090    4715.     CHKACC   PROC  @CHKACC,#CHKACC,SCOPE=LOCAL
 005370 C3C8D2C1C3C34040           39097             +
 005378 0010/0008                  39098             +
 00537C 900F D004/18AF       00004 39100             +
 USING  CHKACC,R10
 005382 50D0 C000/18CD       00000 39115             +
 005388 9680 C000      00000       39117             +
 USING  @CHKACC-72,R12
 AUSING (#CHKACC,@CHKACC+16)
 00538C 41D0 C060            00060 39136             +
0005390 955B C04F      00007       39138    4717.              CLI   @CHKACCN+3,C'$'     UUU$GG format?
 005394 4770 A02E            053AA 39139    4718.              IF    E,BEGIN             Reformat to GG.UUU
 005398 BFE7 C04C            00004 39150  1 4719.                ICM   R14,B'0111',@CHKACCN
 00539C D201 C04C C050 00004 00008 39151  1 4720.                MVC   @CHKACCG,@CHKACCN+4
 0053A2 924B C04E      00006       39152  1 4721.                MVI   @CHKACCD,C'.'
 0053A6 BEE7 C04F            00007 39153  1 4722.                STCM  R14,B'0111',@CHKACCU
 0053AA                            39154    4723.              END   ,
 0053AA 954B C04E      00006       39158    4724.              CLI   @CHKACCD,C'.'
 0053AE 4770 A0AC            05428 39159    4725.              IF    NE,CHKACERR
 0053B2 4160 C04C            00004 39173    4726.              LA    RX,@CHKACCG         Point to group
 0053B6 4D10 A0CC            05448 39174    4727.              BAS   RS,CHKACABC         First is alpha
 0053BA 4D10 A0BC            05438 39175    4728.              BAS   RS,CHKAC123         Second is alpha/num
 0053BE 4160 C04F            00007 39176    4729.              LA    RX,@CHKACCU         Point to user
 0053C2 4D10 A0CC            05448 39177    4730.              BAS   RS,CHKACABC         First is alpha
 0053C6 4D10 A0BC            05438 39178    4731.              BAS   RS,CHKAC123         Second is alpha/num
 0053CA 4D10 A0BC            05438 39179    4732.              BAS   RS,CHKAC123         Third is alpha/num
00053CE D201 C059 C04C 00001 00004 39181    4734.              MVC   #CHKACFG,@CHKACCG   Set group
 0053D4 DC01 C059 A04F 00001 053CB 39182    4735.              TR    #CHKACFG,CHKAIDTR   Set group indexes
 0053DA 1F11/4310 C059       00001 39183    4736.              LC    RS,#CHKACFG         Get first number
 0053E0 4C10 A35A            056D6 39190    4737.              MH    RS,=Y(26+10)        Calc index
 0053E4 1FFF/43F0 C05A       00002 39191    4738.              LC    R15,#CHKACFG+1      Get second number
 0053EA 1A1F                       39198    4739.              AR    RS,R15              Calc some more index
00053EC 5870 0200            00200 39200    4741.              ADFCB
 USING  MAT,R7
1FILEMAN  (FILEMA) (09:39) (22MAR04) ORVYL'S File Manager                                                                   Page  216
0Current Usings:  (PZERO,R0) (FILECB,R7) (CHKACC,R10) (@CHKACC-72,R12)
0Loc    Object Code    Addr1 Addr2  Stmt Lv Lineno    Source Statement           (Hibal 5, Asmedit 3.3)  HLASM R4.0  2004/03/22 09.39
+___    ______ ____    _____ _____  ____ __ ______    ______ _________
00053F0 5870 7028            00028 39217             +
 DROP   MAT,R7
 USING  FILECB,R7
 0053F4 5A10 7010            00010 39239    4742.              A     RS,FILEFSGT         Calculate file id address
 0053F8 D200 C058 1000 00000 00000 39240    4743.              MVC   #CHKACFI,@RS        Get file id
 0053FE 5830 7008            00008 39241    4744.              L     RB,FILEFFSB         Point to first FSB
 005402 5800 700C            0000C 39242    4745.              L     R0,FILEFSBC         Count of FSB's
 USING  FSB,R3                     39243    4746.              WITH  (FSB,RB)
 005406                            39256    4747.              LOOP  BEGIN
 005406                            39262  1 4748.                IF    (#CHKACFI,EQ,FSBID),EXIT
 005406 D500 C058 3008 00000 00008 39274  1          +
 00540C 4780 A09C            05418 39277  1          +
 005410 5830 3004            00004 39283  1 4749.                L     RB,FSBCHAIN         Next in chain
 005414 4600 A08A            05406 39284    4750.              UNTIL (BCT,R0),END
 005418 1200/4780 A0B4       05430 39294    4751.              IF    (R0,Z),CHKACER2     File system not available
 00541E 5030 C048            00000 39311    4752.              ST    RB,@CHKAFSB         Set pointer to FSB
0005422 1B00                       39313    4754.              CLEAR RVR
 005424 47F0 A106            05482 39317    4755.              EXIT  CHKACC
0005428                            39321    4757.     CHKACERR LABEL ,
 005428 5800 A32C            056A8 39323    4758.              L     RVR,=F'-8'
 00542C 47F0 A106            05482 39324    4759.              EXIT  CHKACC
0005430                            39328    4761.     CHKACER2 LABEL ,
 005430 5800 A330            056AC 39330    4762.              L     RVR,=F'-12'
 005434 47F0 A106            05482 39331    4763.              EXIT  CHKACC
0005438                            39335    4765.     CHKAC123 LABEL ,
 005438 95F0 6000      00000       39337    4766.              CLI   @RX,C'0'
 00543C 4740 A0CC            05448 39338    4767.              BL    CHKACABC
 005440 95F9 6000      00000       39339    4768.              CLI   @RX,C'9'
 005444 47D0 A0FC            05478 39340    4769.              BNH   CHKACABE
 005448                            39341    4770.     CHKACABC LABEL ,                   Must be a letter
 005448 95C1 6000      00000       39343    4771.              CLI   @RX,C'A'
 00544C 4740 A0AC            05428 39344    4772.              BL    CHKACERR
 005450 95C9 6000      00000       39345    4773.              CLI   @RX,C'I'
 005454 47D0 A0FC            05478 39346    4774.              BNH   CHKACABE
 005458 95D1 6000      00000       39347    4775.              CLI   @RX,C'J'
 00545C 4740 A0AC            05428 39348    4776.              BL    CHKACERR
 005460 95D9 6000      00000       39349    4777.              CLI   @RX,C'R'
 005464 47D0 A0FC            05478 39350    4778.              BNH   CHKACABE
 005468 95E2 6000      00000       39351    4779.              CLI   @RX,C'S'
 00546C 4740 A0AC            05428 39352    4780.              BL    CHKACERR
 005470 95E9 6000      00000       39353    4781.              CLI   @RX,C'Z'
 005474 4720 A0AC            05428 39354    4782.              BH    CHKACERR
 005478                            39355    4783.     CHKACABE LABEL ,
 005478 4160 6001            00001 39357    4784.              LA    RX,@RX+1
 00547C 0670                       39358    4785.              DECR  RY
 00547E 1277                       39360    4786.              LTR   RY,RY               Set cc
 005480 07F1                       39361    4787.              BR    RS
 005482 981F C008            00008 39362    4788.              PEND  ,
 DROP   FSB,R3
 DROP   FILECB,R7
1FILEMAN  (FILEMA) (09:39) (22MAR04) ORVYL'S File Manager                                                                   Page  217
0Current Usings:  (PZERO,R0)
0Loc    Object Code    Addr1 Addr2  Stmt Lv Lineno    Source Statement           (Hibal 5, Asmedit 3.3)  HLASM R4.0  2004/03/22 09.39
+___    ______ ____    _____ _____  ____ __ ______    ______ _________
0DROP   @CHKACC-72,R12
 DROP   CHKACC,R10
 005486 9680 C000/0B0E 00000       39387             +
                                   39393    4789.     CHKAIDTR EQU   *-C'A'
 00548C                0548C 0548C 39394    4790.              ORG   CHKAIDTR+C'A'
 00548C 0001020304050607           39395    4791.              DC    AL1(0,1,2,3,4,5,6,7,8)              A-I
 005495                05495 0549C 39396    4792.              ORG   CHKAIDTR+C'J'
 00549C 090A0B0C0D0E0F10           39397    4793.              DC    AL1(9,10,11,12,13,14,15,16,17)      J-R
 0054A5                054A5 054AD 39398    4794.              ORG   CHKAIDTR+C'S'
 0054AD 1213141516171819           39399    4795.              DC    AL1(18,19,20,21,22,23,24,25)        S-Z
 0054B5                054B5 054BB 39400    4796.              ORG   CHKAIDTR+C'0'
 0054BB 1A1B1C1D1E1F2021           39401    4797.              DC    AL1(26,27,28,29,30,31,32,33,34,35)  0-9
 0054C5                054C5 054C5 39402    4798.              ORG   ,
1FILEMAN  (FILEMA) (09:39) (22MAR04) ORVYL'S File Manager                                                                   Page  218
0Current Usings:  (PZERO,R0)
0Loc    Object Code    Addr1 Addr2  Stmt Lv Lineno    Source Statement           (Hibal 5, Asmedit 3.3)  HLASM R4.0  2004/03/22 09.39
+___    ______ ____    _____ _____  ____ __ ______    ______ _________
0                                  39404    4800.     *---------------------------------------------------------------------*
                                   39405    4801.     *
                                   39406    4802.     *  CHKMEM  --  Check user memory.
                                   39407    4803.     *
                                   39408    4804.     *   Input  --  @CHKMEM
                                   39409    4805.     *
                                   39410    4806.     *  Output  --  Return code
                                   39411    4807.     *               RVR = 0 All OK
                                   39412    4808.     *               RVR = 4 Protection exception
                                   39413    4809.     *               RVR = 5 Addressing exception
                                   39414    4810.     *
                                   39415    4811.     *---------------------------------------------------------------------*
 0054C6                            39416    4812.     CHKMEM   PROC  @CHKMEM,SCOPE=LOCAL
 0054C6 C3C8D2D4C5D44040           39423             +
 0054CE 0008/0000                  39424             +
 0054D2 900F D004/18AF       00004 39426             +
 USING  CHKMEM,R10
 0054D8 50D0 C000/18CD       00000 39441             +
 0054DE 9680 C000      00000       39443             +
 USING  @CHKMEM-72,R12
 0054E2 41D0 C050            00050 39457             +
                                   39458    4813.     *
                                   39459    4814.     * Check out the area
                                   39460    4815.     *
 0054E6 58E0 C048            00000 39461    4816.              L     R14,@CMEMLOC
 0054EA 58F0 C04C            00004 39462    4817.              L     R15,@CMEMLEN
 0054EE 12EE/4780 A028       054FA 39463    4818.              IF    ((R14,Z),OR,(R15,NP)),'LA RVR,6' Specification
 0054F4 12FF/4720 A02C       054FE 39484             +
 0054FA 4100 0006            00006 39491             +
 0054FE A030           054FE 054F8 39496    4819.              ELSE  BEGIN
 0054FE 47F0 A088            0555A 39501             +
 USING  @PAGE-72,R13               39507  1 4820.                PSET  @PAGE
 005502 D708 D048 D048 00000 00000 39524  1          +
 005508 D200 D050 C04E 00008 00006 39525  1 4821.                MVC   @PAGKEY,@CMEMKEY        Set the key
 00550E D203 D048 C048 00000 00000 39526  1 4822.                MVC   @PAGLOC,@CMEMLOC         the location
 005514 4810 C04C            00004 39527  1 4823.                LH    RS,@CMEMLEN
 005518 5010 D04C            00004 39528  1 4824.                ST    RS,@PAGLEN                and the length
 00551C 58F0 A1DE/0DEF       056B0 39529  1 4825.                VCALL PAGTPROT                Test the protection
 005522 1200/4780 A088       0555A 39533  1 4826.                IF    (RVR,NZ),BEGIN
 005528 5900 A1E2            056B4 39547  2 4827.                  IF    (RVR,EQ,3),'LA RVR,5'   Addressing exception
 00552C 4770 A062            05534 39559  2          +
 005530 4100 0005            00005 39565  2          +
 005534 A066           05534 0552E 39570  2 4828.                  ELSEIF (RVR,EQ,2),'LA RVR,4'   no access
 005534 47F0 A072            05544 39576  2          +
 005538 5900 A1E6            056B8 39590  2          +
 00553C 4770 A072            05544 39591  2          +
 005540 4100 0004            00004 39597  2          +
 005544 A076           05544 0553E 39602  2 4829.                  ELSEIF (@CMEMWRT),'LA RVR,4'   Only read, he wants to write
 005544 47F0 A082            05554 39608  2          +
 005548 9180 C04F      00007       39620  2          +
 00554C 47E0 A082            05554 39621  2          +
 005550 4100 0004            00004 39627  2          +
 005554 A086           05554 0554E 39632  2 4830.                  ELSE  'CLEAR RVR'             He just wants to look
 005554 47F0 A088/1B00       0555A 39637  2          +
1FILEMAN  (FILEMA) (09:39) (22MAR04) ORVYL'S File Manager                                                                   Page  219
0Current Usings:  (PZERO,R0) (CHKMEM,R10) (@CHKMEM-72,R12) (@PAGE-72,R13)
0Loc    Object Code    Addr1 Addr2  Stmt Lv Lineno    Source Statement           (Hibal 5, Asmedit 3.3)  HLASM R4.0  2004/03/22 09.39
+___    ______ ____    _____ _____  ____ __ ______    ______ _________
000555A                            39652  1 4831.                END   ,
 00555A                            39656    4832.              END   ,
 00555A 1200/4780 A092       05564 39660    4833.              IF    (RVR,NZ),'ICM RVR,B"1000",=X"80"' Set panic
 005560 BF08 A208            056DA 39675             +
0005564 981F C008            00008 39681    4835.              PEND  ,
 DROP   @CHKMEM-72,R12
 DROP   CHKMEM,R10
 005568 9680 C000/0B0E 00000       39696             +
 DROP   @PAGE-72,R13
1FILEMAN  (FILEMA) (09:39) (22MAR04) ORVYL'S File Manager                                                                   Page  220
0Current Usings:  (PZERO,R0)
0Loc    Object Code    Addr1 Addr2  Stmt Lv Lineno    Source Statement           (Hibal 5, Asmedit 3.3)  HLASM R4.0  2004/03/22 09.39
+___    ______ ____    _____ _____  ____ __ ______    ______ _________
0                                  39706    4837.     *---------------------------------------------------------------------*
                                   39707    4838.     *  FMRANGE - Edit read/write block number and buffer etc.
                                   39708    4839.     *
                                   39709    4840.     *   Inputs - RA points to the RQWB
                                   39710    4841.     *
                                   39711    4842.     *   Output - Results in RVR
                                   39712    4843.     *---------------------------------------------------------------------*
 00556E                            39713    4844.     FMRANGE  PROC  ,
 00556E C6D4D9C1D5C7C540           39720             +
 005576 0000/0000                  39721             +
 00557A 900F D004/18AF       00004 39723             +
 USING  FMRANGE,R10
 005580 50D0 C000/18CD       00000 39738             +
 005586 9680 C000      00000       39740             +
 00558A 41D0 C048            00048 39741             +
 USING  RQWB,R2                    39742    4845.              WITH  (RQWB,RA)
 00558E 9140 2020      00020       39755    4846.              IF    ~RQRM31,'NC RQIDAT,=X"00FFFFFF"' Non-extended addressing
 005592 4710 A022            0559C 39765             +
 005596 D403 203C A142 0003C 056BC 39771             +
000559C 58F0 2034/12FF       00034 39777    4848.              IF    ('LT R15,RQILEN',Z),BEGIN Zero length
 0055A2 4770 A034            055AE 39788             +
 0055A6 9508 201C      0001C       39793  1 4849.                IF    RQREAD,FMRANGES     Invalid for read
 0055AA 4780 A0F6            05670 39805  1          +
 0055AE                            39811    4850.              END   ,
 0055AE A038           055AE 055A4 39815    4851.              ELSE  BEGIN               Some data
 0055AE 47F0 A056            055D0 39820             +
 0055B2 59F0 A146            056C0 39826  1 4852.                IF    (R15,LT,4),FMRANGES Data length of at least 4
 0055B6 4740 A0F6            05670 39840  1          +
 0055BA 59F0 A14A            056C4 39846  1 4853.                IF    (R15,GT,8192),FMRANGES Not more than 2 pages
 0055BE 4720 A0F6            05670 39860  1          +
 0055C2 1BEE                       39866  1 4854.                CLEAR R14
 0055C4 06F0                       39870  1 4855.                DECR  R15                 One less
 0055C6 5830 2024            00024 39872  1 4856.                L     RB,RQFSB
 0055CA 4800 30AC            000AC 39873  1 4857.                WITH  (FSB,RB),'LH R0,FSBDSZ' Get block size
 USING  FSB,R3
 DROP   FSB,R3
 0055CE 1DE0                       39897  1 4858.                DR    R14,R0              Calc number of blocks - 1
 0055D0                            39898    4859.              END   ,                   Some data
 0055D0 5AF0 2030            00030 39902    4860.              A     R15,RQIBLK          Calc last block number
 0055D4 50F0 2070            00070 39903    4861.              ST    R15,RQLBLK
00055D8                            39905    4863.              IF    (RQILEN,NZ),BEGIN
 0055D8 D603 2034 2034 00034 00034 39915             +
 0055DE 4780 A0BE            05638 39916             +
 0055E2 9508 201C      0001C       39921  1 4864.                IF    RQREAD,BEGIN
 0055E6 4770 A092            0560C 39931  1          +
 USING  @CHKMEM-72,R13             39936  2 4865.                  CHKMEM RQIDAT,RQILEN,W    Check modify protect
 0055EA D707 D048 D048 00000 00000 39954  2          +
 0055F0 D203 D048 203C 00000 0003C 39959  2          +
 0055F6 D201 D04C 2036 00004 00036 39964  2          +
 0055FC D200 D04E 2021 00006 00021 39969  2          +
 005602 9680 D04F      00007       39975  2          +
 005606 58F0 A14E/0DEF       056C8 39981  2          +
1FILEMAN  (FILEMA) (09:39) (22MAR04) ORVYL'S File Manager                                                                   Page  221
0Current Usings:  (PZERO,R0) (RQWB,R2) (FMRANGE,R10) (@CHKMEM-72,R13)
0Loc    Object Code    Addr1 Addr2  Stmt Lv Lineno    Source Statement           (Hibal 5, Asmedit 3.3)  HLASM R4.0  2004/03/22 09.39
+___    ______ ____    _____ _____  ____ __ ______    ______ _________
000560C                            39983  1 4866.                END   ,
 00560C A096           0560C 055E8 39987  1 4867.                ELSE  BEGIN
 00560C 47F0 A0B4            0562E 39992  1          +
 005610                            39998  2 4868.                  CHKMEM RQIDAT,RQILEN      Check fetch protect
 005610 D707 D048 D048 00000 00000 40009  2          +
 005616 D203 D048 203C 00000 0003C 40014  2          +
 00561C D201 D04C 2036 00004 00036 40019  2          +
 005622 D200 D04E 2021 00006 00021 40024  2          +
 005628 58F0 A14E/0DEF       056C8 40030  2          +
 00562E                            40032  1 4869.                END   ,
 00562E 1200/4780 A0BE       05638 40036  1 4870.                IF    (RVR,NZ),'EXIT FMRANGE' Exit if error
 005634 47F0 A0FA            05674 40053  1          +
 005638                            40058    4871.              END   ,
0005638 58F0 2070            00070 40063    4873.              L     R15,RQLBLK
 00563C 9110 2005      00005       40064    4874.              IF    RQCNIXR,BEGIN
 005640 47E0 A0DC            05656 40074             +
 005644 58E0 2060            00060 40079  1 4875.                L     R14,RQBLKC          Get block count
 005648 9104 2005      00005       40080  1 4876.                IF    RQCHYBR,'MH R14,=Y(IXRNT#)' Each block is an IXR
 00564C 47E0 A0DA            05654 40090  1          +
 005650 4CE0 A15E            056D8 40096  1          +
 005654 19FE                       40101  1 4877.                CR    R15,R14             Check against block count
 005656                            40102    4878.              END   ,
 005656 A0E0           05656 05642 40106    4879.              ELSE  'C R15,=A(IXRMXNT#)' Max for IXR
 005656 47F0 A0E4            0565E 40111             +
 00565A 59F0 A152            056CC 40118             +
 00565E 4750 A0EC            05666 40123    4880.              IF    GE,BEGIN
 005662 4100 0001            00001 40134  1 4881.                LA    RVR,1               Out of range
 005666                            40135    4882.              END   ,
 005666 A0F0           05666 05660 40139    4883.              ELSE  'CLEAR RVR'
 005666 47F0 A0F2/1B00       0566C 40144             +
 00566C 47F0 A0FA            05674 40159    4884.              EXIT  FMRANGE             Done
0005670                            40163    4886.     FMRANGES LABEL ,                   Specification error exit
 005670 5800 A156            056D0 40165    4887.              L     RVR,=X'80000006'    Set panic return
0005674 981F C008            00008 40167    4889.              PEND  ,
 DROP   RQWB,R2
 DROP   FMRANGE,R10
 005678 9680 C000/0B0E 00000       40182             +
 DROP   @CHKMEM-72,R13
 005680                            40191    4890.              LTORG ,
 005680 00000000                   40193                             =V(VMGET)
 005684 C1E2C6C2                   40194                             =C'ASFB'
 005688 00006188                   40195                             =A(FMSETSOU)
 00568C 00000000                   40196                             =V(M1CANWAI)
 005690 00000000                   40197                             =V(GRCAN)
 005694 00000000                   40198                             =V(GRGET)
 005698 00000000                   40199                             =V(GRREL)
 00569C 00000000                   40200                             =V(M1TIME)
 0056A0 00000000                   40201                             =V(DATE)
 0056A4 00000000                   40202                             =V(TIME)
 0056A8 FFFFFFF8                   40203                             =F'-8'
 0056AC FFFFFFF4                   40204                             =F'-12'
1FILEMAN  (FILEMA) (09:39) (22MAR04) ORVYL'S File Manager                                                                   Page  222
0Current Usings:  (PZERO,R0)
0Loc    Object Code    Addr1 Addr2  Stmt Lv Lineno    Source Statement           (Hibal 5, Asmedit 3.3)  HLASM R4.0  2004/03/22 09.39
+___    ______ ____    _____ _____  ____ __ ______    ______ _________
00056B0 00000000                   40205                             =V(PAGTPROT)
 0056B4 00000003                   40206                             =A(3)
 0056B8 00000002                   40207                             =A(2)
 0056BC 00FFFFFF                   40208                             =X'00FFFFFF'
 0056C0 00000004                   40209                             =A(4)
 0056C4 00002000                   40210                             =A(8192)
 0056C8 000054D2                   40211                             =A(CHKMEM)
 0056CC 0006A068                   40212                             =A(IXRMXNT#)
 0056D0 80000006                   40213                             =X'80000006'
 0056D4 1B00                       40214                             =Y(27*256+0)
 0056D6 0024                       40215                             =Y(26+10)
 0056D8 0294                       40216                             =Y(IXRNT#)
 0056DA 80             056EE 06510 40217                             =X'80'
1FILEMAN  (FILEMA) (09:39) (22MAR04) ORVYL'S File Manager                                                                   Page  223
0Current Usings:  (PZERO,R0)
0Loc    Object Code    Addr1 Addr2  Stmt Lv Lineno    Source Statement           (Hibal 5, Asmedit 3.3)  HLASM R4.0  2004/03/22 09.39
+___    ______ ____    _____ _____  ____ __ ______    ______ _________
0                                  40222    4892.     *---------------------------------------------------------------------*
                                   40223    4893.     *  FMDELBLK - Called by controls 1 and 2 to delete blocks
                                   40224    4894.     *
                                   40225    4895.     *   Inputs -  @BLKDEL
                                   40226    4896.     *
                                   40227    4897.     *   Output -  None
                                   40228    4898.     *---------------------------------------------------------------------*
 000000                00000 0000C 40229    4899.     @BLKDEL  RECORD BEGIN
 000000                            40237  1 4900.     @BLKDRQW   DS    A
 000004                            40238  1 4901.     @BLKDADR   DS    A                   MIXR or SIXR address
 000008                            40239  1 4902.     @BLKDCNT   DS    F                   Count of blocks deleted
 00000C                0000C 0000C 40240    4903.              END   ,
0000000                00000 0001D 40250    4905.     #BLKDEL  RECORD BEGIN
 000000                            40258  1 4906.     #BLKDBLF   DS    F                   First block number
 000004                            40259  1 4907.     #BLKDBLL   DS    F                   Last block number
 000008                            40260  1 4908.     #BLKDCNT   DS    F                   Count of blocks to delete
 00000C                            40261  1 4909.     #BLKDBUF   DS    A                   IXR buffer
 000010                            40262  1 4910.     #BLKDBUD   DS    A                   IXR buffer for dummy IXR
 000014                            40263  1 4911.     #BLKDBLK   DS    F                   Block to release back to file sys
 000018                            40264  1 4912.     #BLKDRET   DS    A                   SIXR file routine return save
 00001C 00                         40265  1 4913.     #BLKDFLG   FLAG  ,
 #BLKDFLG.#BLKDMIS 80 ONES         40269  1 4914.                FLAG  #BLKDMIS            Missing blocks in range
 #BLKDFLG.#BLKDD1B 40 ONES         40274  1 4915.                FLAG  #BLKDD1B            Determine new first block
 #BLKDFLG.#BLKDD2B 20 ONES         40279  1 4916.                FLAG  #BLKDD2B            Determine new last block
 00001D                0001D 0001D 40284    4917.              END   ,
00056EE                            40294    4919.     FMDELBLK PROC  @BLKDEL,#BLKDEL
 0056EE C6D4C4C5D3C2D3D2           40301             +
 0056F6 0010/0020                  40302             +
 0056FA 900F D004/18AF       00004 40304             +
 USING  FMDELBLK,R10
 005700 50D0 C000/18CD       00000 40319             +
 005706 9680 C000      00000       40321             +
 USING  @BLKDEL-72,R12
 AUSING (#BLKDEL,@BLKDEL+16)
 00570A 41D0 C078            00078 40340             +
 00570E 5820 C048            00000 40341    4920.              L     RA,@BLKDRQW
 USING  RQWB,R2                    40342    4921.              WITH  (RQWB,RA)
 005712 5830 2024            00024 40355    4922.              L     RB,RQFSB
 USING  FSB,R3                     40356    4923.              WITH  (FSB,RB)
 005716 5860 C04C            00004 40369    4924.              L     RX,@BLKDADR
 USING  IXR,R6                     40370    4925.              WITH  (IXR,RX)
 USING  S.IXR,R7                   40383    4926.              WITH  (IXR,RY),LABEL=S    Super IXR
 USING  J.IXR,R4                   40391    4927.              WITH  (IXR,RJ),LABEL=J    Save block numbers for delete
 00571A                            40399    4928.              CLEAR #BLKDEL             Clear work area
 00571A D71C C058 C058 00000 00000 40405             +
0                                  40407    4930.     * Hybrid
 005720 9120 6000      00000       40408    4931.              IF    IXRZIXR,BEGIN       Hybrid file
 005724 47E0 A212            0590C 40418             +
 005728 1876                       40423  1 4932.                LR    RY,RX               Get base of first record
 00572A 1FFF/BFF7 703E       0003E 40424  1 4933.                L3    R15,S.IXRLWRF       Get first block in the file
 005730 1FEE/BFE7 7041       00041 40430  1 4934.                L3    R14,S.IXRHIRF       Get last block in the file
1FILEMAN  (FILEMA) (09:39) (22MAR04) ORVYL'S File Manager                                                                   Page  224
0Current Usings:  (PZERO,R0) (RQWB,R2) (FSB,R3) (J.IXR,R4) (IXR,R6) (S.IXR,R7) (FMDELBLK,R10) (@BLKDEL-72,R12)
0Loc    Object Code    Addr1 Addr2  Stmt Lv Lineno    Source Statement           (Hibal 5, Asmedit 3.3)  HLASM R4.0  2004/03/22 09.39
+___    ______ ____    _____ _____  ____ __ ______    ______ _________
0005736 59E0 2034            00034 40436  1 4935.                IF    (R14,LT,RQICBLK),FMBLKD12 Nothing to do
 00573A 4740 A41E            05B18 40450  1          +
 00573E 59F0 2030            00030 40456  1 4936.                IF    (R15,GT,RQICBL2),FMBLKD12 Nothing to do
 005742 4720 A41E            05B18 40470  1          +
 005746 59E0 2030            00030 40476  1 4937.                IF    (R14,LE,RQICBL2),BEGIN Last block in file le last block
 00574A 4730 A064            0575E 40488  1          +
 00574E 59E0 2030            00030 40493  2 4938.                  IF    (R14,LT,RQICBL2),'SET #BLKDMIS' Some are missing
 005752 47B0 A060            0575A 40505  2          +
 005756 9680 C074      0001C       40516  2          +
 00575A 9620 C074      0001C       40521  2 4939.                  SET   #BLKDD2B            Determine new last block
 00575E                            40527  1 4940.                END   ,                   Last block in file le last block
 00575E A068           0575E 0574C 40531  1 4941.                ELSE  'L R14,RQICBL2'     Get block specified
 00575E 47F0 A06C            05766 40536  1          +
 005762 58E0 2030            00030 40543  1          +
 005766 59F0 2034            00034 40548  1 4942.                IF    (R15,GE,RQICBLK),BEGIN First block in file ge 1st block
 00576A 4750 A0A0            0579A 40560  1          +
 00576E 59F0 2034            00034 40565  2 4943.                  IF    (R15,GT,RQICBLK),'SET #BLKDMIS' Some are missing
 005772 47D0 A080            0577A 40577  2          +
 005776 9680 C074      0001C       40588  2          +
 00577A 9120 C074      0001C       40593  2 4944.                  IF    #BLKDD2B,BEGIN      Deleting before first and after last
 00577E 47E0 A098            05792 40603  2          +
 005782                            40608  3 4945.                    CLEAR S.IXRLWRF,S.IXRHIRF,#BLKDD2B Deleting all blocks
 005782 D702 703E 703E 0003E 0003E 40614  3          +
 005788 D702 7041 7041 00041 00041 40619  3          +
 00578E 94DF C074      0001C       40624  3          +
 005792                            40625  2 4946.                  END   ,
 005792 A09C           05792 05780 40629  2 4947.                  ELSE  'SET #BLKDD1B'      Determine new first block
 005792 47F0 A0A0            0579A 40634  2          +
 005796 9640 C074      0001C       40646  2          +
 00579A                            40651  1 4948.                END   ,                   First block in file ge 1st block
 00579A A0A4           0579A 0576C 40655  1 4949.                ELSE  'L R15,RQICBLK'     Get block specified
 00579A 47F0 A0A8            057A2 40660  1          +
 00579E 58F0 2034            00034 40667  1          +
 0057A2 5EE0 AD5E            06458 40672  1 4950.                INCR  R14
 0057A6 1BEF                       40675  1 4951.                SR    R14,R15             Calc count of blocks to delete
 0057A8 50E0 C060            00008 40676  1 4952.                ST    R14,#BLKDCNT        Save
 0057AC 1BEE                       40677  1 4953.                CLEAR R14
 0057AE 5DE0 AD62            0645C 40681  1 4954.                D     R14,=A(IXRNT#)      Calc IXR/block index
 0057B2 4CE0 AE0A            06504 40682  1 4955.                MH    R14,=Y(L'IXRNT)     Calc block displacement
 0057B6 189E                       40683  1 4956.                LR    RN,R14              Get disp
 0057B8 188F                       40684  1 4957.                LR    RM,R15              Start IXR number
 0057BA 5080 C06C            00014 40685  1 4958.                ST    RM,#BLKDBLK         Save for later
 0057BE                            40686  1 4959.                LOOP  BEGIN               Until no next to process
 0057BE 1288/4780 A0D4       057CE 40692  2 4960.                  IF    (RM,NZ),BEGIN       Not the first record
 0057C4 58F0 205C            0005C 40706  3 4961.                    L     R15,RQFBLK
 0057C8 1AF8                       40707  3 4962.                    AR    R15,RM              Calc IXR block number
 0057CA 4D10 A55A            05C54 40708  3 4963.                    BAS   RS,FMBLKDE5         Get the IXR
 0057CE                            40709  2 4964.                  END   ,                   Not the first record
 0057CE A0D8           057CE 057C2 40713  2 4965.                  ELSE  'ST RX,#BLKDBUF'    Save buffer address temporarily
 0057CE 47F0 A0DC            057D6 40718  2          +
 0057D2 5060 C064            0000C 40725  2          +
 0057D6 41F0 67BC            007BC 40730  2 4966.                  LA    R15,IXR+(IXRNT#*L'IXRNT) Point to end
 0057DA 4169 6000            00000 40731  2 4967.                  LA    RX,IXR(RN)          Point to start block
 0057DE 1BF6                       40732  2 4968.                  SR    R15,RX              Calc
1FILEMAN  (FILEMA) (09:39) (22MAR04) ORVYL'S File Manager                                                                   Page  225
0Current Usings:  (PZERO,R0) (RQWB,R2) (FSB,R3) (J.IXR,R4) (IXR,R6) (S.IXR,R7) (FMDELBLK,R10) (@BLKDEL-72,R12)
0Loc    Object Code    Addr1 Addr2  Stmt Lv Lineno    Source Statement           (Hibal 5, Asmedit 3.3)  HLASM R4.0  2004/03/22 09.39
+___    ______ ____    _____ _____  ____ __ ______    ______ _________
00057E0 1BEE                       40733  2 4969.                  CLEAR R14
 0057E2 5DE0 AD66            06460 40737  2 4970.                  D     R14,=A(L'IXRNT)
 0057E6 59F0 C060            00008 40738  2 4971.                  C     R15,#BLKDCNT        Are the rest in this IXR?
 0057EA 4750 A0FE            057F8 40739  2 4972.                  IF    GE,BEGIN            Yes
 0057EE 5890 C060            00008 40750  3 4973.                    L     RN,#BLKDCNT         Get count to delete
 0057F2                            40751  3 4974.                    CLEAR #BLKDCNT
 0057F2 D703 C060 C060 00008 00008 40757  3          +
 0057F8                            40758  2 4975.                  END   ,
 0057F8 A102           057F8 057EC 40762  2 4976.                  ELSE  BEGIN
 0057F8 47F0 A10E            05808 40767  2          +
 0057FC 58E0 C060            00008 40773  3 4977.                    L     R14,#BLKDCNT
 005800 1BEF                       40774  3 4978.                    SR    R14,R15
 005802 50E0 C060            00008 40775  3 4979.                    ST    R14,#BLKDCNT        Set new count
 005806 189F                       40776  3 4980.                    LR    RN,R15              Get count for this IXR
 005808                            40777  2 4981.                  END   ,
 005808 4D10 A57E            05C78 40781  2 4982.                  BAS   RS,FMBLKDE6         Just do it!
 00580C 1288/4770 A11E       05818 40782  2 4983.                  IF    (RM,Z),BEGIN        First IXR
 005812                            40796  3 4984.                    CLEAR #BLKDBUF            Clear temporary buff save
 005812 D703 C064 C064 0000C 0000C 40802  3          +
 005818                            40803  2 4985.                  END   ,                   First IXR
 005818 1255/4780 A1A2       0589C 40807  2 4986.                  IF    (RK,NZ),BEGIN       Some deleted
 00581E 58E0 7030            00030 40821  3 4987.                    L     R14,S.IXRNRCS       Number of blocks
 005822 1BE5                       40822  3 4988.                    SR    R14,RK
 005824 50E0 7030            00030 40823  3 4989.                    ST    R14,S.IXRNRCS       Update
 005828 58E0 7034            00034 40824  3 4990.                    L     R14,S.IXRRRCS       Number of blocks
 00582C 1BE5                       40825  3 4991.                    SR    R14,RK
 00582E 50E0 7034            00034 40826  3 4992.                    ST    R14,S.IXRRRCS       Update
 005832 5A50 C050            00008 40827  3 4993.                    A     RK,@BLKDCNT         Calc number deleted so far
 005836 5050 C050            00008 40828  3 4994.                    ST    RK,@BLKDCNT         Save
 00583A 4D10 A544            05C3E 40829  3 4995.                    BAS   RS,FMBLKDE4         File the IXR
 00583E 9120 C074      0001C       40830  3 4996.                    IF    #BLKDD2B,BEGIN      Determining new last block?
 005842 47E0 A192            0588C 40840  3          +
 005846 1848                       40845  4 4997.                      LR    RJ,RM               Get current IXR block number
 005848                            40846  4 4998.                      LOOP  BEGIN               Loop forever
 005848 1244/4780 A178       05872 40852  5 4999.                        IF    (RJ,Z),EXIT         It must be here
 00584E                            40869  5 5000.                        IF    (IXRHIRC,NZ),EXIT   Here it is
 00584E D602 603B 603B 0003B 0003B 40879  5          +
 005854 4770 A178            05872 40882  5          +
 005858                            40888  5 5001.                        IF    (IXRNT,NZ),EXIT     The high one is the zero one
 005858 D602 6044 6044 00044 00044 40898  5          +
 00585E 4770 A178            05872 40901  5          +
 005862 0640                       40907  5 5002.                        DECR  RJ                  Back up one IXR
 005864 18F4                       40909  5 5003.                        LR    R15,RJ
 005866 5AF0 205C            0005C 40910  5 5004.                        A     R15,RQFBLK          Calc IXR block number
 00586A 4D10 A55A            05C54 40911  5 5005.                        BAS   RS,FMBLKDE5         Get the IXR
 00586E 47F0 A14E            05848 40912  4 5006.                      END   ,                   Loop forever
 005872 4C40 AE0C            06506 40917  4 5007.                      MH    RJ,=Y(IXRNT#)       Calc last block number
 005876 1FFF/BFF7 603B       0003B 40918  4 5008.                      L3    R15,IXRHIRC
 00587C 1A4F                       40924  4 5009.                      AR    RJ,R15
 00587E BE47 7041            00041 40925  4 5010.                      ST3   RJ,S.IXRHIRF        Save new last block numberr
 005882 1867                       40927  4 5011.                      LR    RX,RY
 005884 4D10 A544            05C3E 40928  4 5012.                      BAS   RS,FMBLKDE4         File the first IXR
 005888 94DF C074      0001C       40929  4 5013.                      CLEAR #BLKDD2B            Don't do it again
 00588C                            40936  3 5014.                    END   ,                   Determining new last block?
1FILEMAN  (FILEMA) (09:39) (22MAR04) ORVYL'S File Manager                                                                   Page  226
0Current Usings:  (PZERO,R0) (RQWB,R2) (FSB,R3) (J.IXR,R4) (IXR,R6) (S.IXR,R7) (FMDELBLK,R10) (@BLKDEL-72,R12)
0Loc    Object Code    Addr1 Addr2  Stmt Lv Lineno    Source Statement           (Hibal 5, Asmedit 3.3)  HLASM R4.0  2004/03/22 09.39
+___    ______ ____    _____ _____  ____ __ ______    ______ _________
000588C 1288/4780 A19E       05898 40940  3 5015.                    IF    (RM,NZ),BEGIN       Not the first record
 005892 1867                       40954  4 5016.                      LR    RX,RY
 005894 4D10 A544            05C3E 40955  4 5017.                      BAS   RS,FMBLKDE4         File the first IXR
 005898                            40956  3 5018.                    END   ,
 005898 4D10 A678            05D72 40960  3 5019.                    BAS   RS,FMBLKDE9         Return the block numbers
 00589C                            40961  2 5020.                  END   ,                   Some deleted
 00589C 5E80 AD5E            06458 40965  2 5021.                  INCR  RM                  Next IXR
 0058A0 1B99                       40968  2 5022.                  CLEAR RN                  Start with first block from now on
 0058A2                            40972  1 5023.                UNTIL (#BLKDCNT,Z),END    Until no next to process
 0058A2 D603 C060 C060 00008 00008 40987  1          +
 0058A8 4770 A0C4            057BE 40990  1          +
 0058AC 9140 C074      0001C       40996  1 5024.                IF    #BLKDD1B,BEGIN      New first block
 0058B0 47E0 A212            0590C 41006  1          +
 0058B4 0680                       41011  2 5025.                  DECR  RM                  Reset to current
 0058B6 1288/4770 A1C4       058BE 41013  2 5026.                  IF    (RM,Z),'LR RX,RY'   Point to first IXR
 0058BC 1867                       41028  2          +
 0058BE A1C8           058BE 058BA 41033  2 5027.                  ELSE  'L RX,#BLKDBUF'     Point to current IXR
 0058BE 47F0 A1CC            058C6 41038  2          +
 0058C2 5860 C064            0000C 41045  2          +
 0058C6 1848                       41050  2 5028.                  LR    RJ,RM               Get current IXR block number
 0058C8                            41051  2 5029.                  LOOP  BEGIN               Loop forever
 0058C8                            41057  3 5030.                    IF    (IXRLWRC,NZ),EXIT   Here it is
 0058C8 D602 6038 6038 00038 00038 41067  3          +
 0058CE 4770 A1FC            058F6 41070  3          +
 0058D2                            41076  3 5031.                    IF    (IXRNT,NZ),EXIT     The low one is the zero one
 0058D2 D602 6044 6044 00044 00044 41086  3          +
 0058D8 4770 A1FC            058F6 41089  3          +
 0058DC 5E40 AD5E            06458 41095  3 5032.                    INCR  RJ                  Go to the next IXR
 0058E0 5940 2060            00060 41098  3 5033.                    IF    (RJ,GE,RQBLKC),EXIT Can't go beyond the end
 0058E4 47A0 A1FC            058F6 41112  3          +
 0058E8 18F4                       41118  3 5034.                    LR    R15,RJ
 0058EA 5AF0 205C            0005C 41119  3 5035.                    A     R15,RQFBLK          Calc IXR block number
 0058EE 4D10 A55A            05C54 41120  3 5036.                    BAS   RS,FMBLKDE5         Get the IXR
 0058F2 47F0 A1CE            058C8 41121  2 5037.                  END   ,                   Loop forever
 0058F6 4C40 AE0C            06506 41126  2 5038.                  MH    RJ,=Y(IXRNT#)       Calc first block number
 0058FA 1FFF/BFF7 6038       00038 41127  2 5039.                  L3    R15,IXRLWRC
 005900 1A4F                       41133  2 5040.                  AR    RJ,R15
 005902 BE47 703E            0003E 41134  2 5041.                  ST3   RJ,S.IXRLWRF        Save new first block number
 005906 1867                       41136  2 5042.                  LR    RX,RY
 005908 4D10 A544            05C3E 41137  2 5043.                  BAS   RS,FMBLKDE4         File the first IXR
 00590C                            41138  1 5044.                END   ,                   New first block
 00590C                            41142    5045.              END   ,                   Hybrid file
                                   41146    5046.     * SIXR
 00590C A216           0590C 05726 41147    5047.              ELSEIF IXRSIXR,BEGIN      Super IXR
 00590C 47F0 A374            05A6E 41153             +
 005910 9140 6000      00000       41165             +
 005914 47E0 A374            05A6E 41166             +
 005918 5890 2030            00030 41171  1 5048.                L     RN,RQICBL2          Get end block number
 00591C 1B88                       41172  1 5049.                CLEAR RM
 00591E 5D80 AD62            0645C 41176  1 5050.                D     RM,=A(IXRNT#)       Calc IXR/block number
 005922 4990 67FC            007FC 41177  1 5051.                IF    (RN,LT,IXRLWXR),FMBLKD12 Last does not exist
 005926 4740 A41E            05B18 41191  1          +
 00592A 4990 67FE            007FE 41197  1 5052.                IF    (RN,GT,IXRHIXR),BEGIN End block greater than last
 00592E 47D0 A24E            05948 41209  1          +
1FILEMAN  (FILEMA) (09:39) (22MAR04) ORVYL'S File Manager                                                                   Page  227
0Current Usings:  (PZERO,R0) (RQWB,R2) (FSB,R3) (J.IXR,R4) (IXR,R6) (S.IXR,R7) (FMDELBLK,R10) (@BLKDEL-72,R12)
0Loc    Object Code    Addr1 Addr2  Stmt Lv Lineno    Source Statement           (Hibal 5, Asmedit 3.3)  HLASM R4.0  2004/03/22 09.39
+___    ______ ____    _____ _____  ____ __ ______    ______ _________
0005932 9680 C074      0001C       41214  2 5053.                  SET   #BLKDMIS            Indicate some are missing
 005936 4890 67FE            007FE 41220  2 5054.                  LH    RN,IXRHIXR          Go to last IXR
 00593A 4180 0293            00293 41221  2 5055.                  LA    RM,IXRNT#-1         Go to last record
 00593E 4C90 AE0C            06506 41222  2 5056.                  MH    RN,=Y(IXRNT#)       Calc last block number
 005942 1A98                       41223  2 5057.                  AR    RN,RM               In last IXR record
 005944 5090 C05C            00004 41224  2 5058.                  ST    RN,#BLKDBLL         Set last block number
 005948                            41225  1 5059.                END   ,                   End block greater than last
 005948 A252           05948 05930 41229  1 5060.                ELSE  'MVC #BLKDBLL,RQICBL2' Set last block number
 005948 47F0 A258            05952 41234  1          +
 00594C D203 C05C 2030 00004 00030 41241  1          +
 005952 5890 2034            00034 41246  1 5061.                L     RN,RQICBLK          Get start block number
 005956 1B88                       41247  1 5062.                CLEAR RM
 005958 5D80 AD62            0645C 41251  1 5063.                D     RM,=A(IXRNT#)       Calc IXR/block number
 00595C 4990 67FE            007FE 41252  1 5064.                IF    (RN,GT,IXRHIXR),FMBLKD12 First does not exist
 005960 4720 A41E            05B18 41266  1          +
 005964 4990 67FC            007FC 41272  1 5065.                IF    (RN,LT,IXRLWXR),BEGIN Start block less than first
 005968 47B0 A282            0597C 41284  1          +
 00596C 9680 C074      0001C       41289  2 5066.                  SET   #BLKDMIS            Indicate some are missing
 005970 4890 67FC            007FC 41295  2 5067.                  LH    RN,IXRLWXR          Start with first IXR
 005974 4C90 AE0C            06506 41296  2 5068.                  MH    RN,=Y(IXRNT#)       Calc first block number
 005978 5090 C058            00000 41297  2 5069.                  ST    RN,#BLKDBLF         Set first block number
 00597C                            41298  1 5070.                END   ,                   Start block less than first
 00597C A286           0597C 0596A 41302  1 5071.                ELSE  'MVC #BLKDBLF,RQICBLK' Set first block number
 00597C 47F0 A28C            05986 41307  1          +
 005980 D203 C058 2034 00000 00034 41314  1          +
 005986 5890 C058            00000 41319  1 5072.                L     RN,#BLKDBLF
 00598A 5880 C05C            00004 41320  1 5073.                L     RM,#BLKDBLL
 00598E 5E80 AD5E            06458 41321  1 5074.                INCR  RM
 005992 1B89                       41324  1 5075.                SR    RM,RN               Calc count of blocks to delete
 005994 5080 C060            00008 41325  1 5076.                ST    RM,#BLKDCNT         Save
 005998 1B88                       41326  1 5077.                CLEAR RM
 00599A 5D80 AD62            0645C 41330  1 5078.                D     RM,=A(IXRNT#)       Calc IXR and block number
 00599E 4C90 AE0A            06504 41331  1 5079.                MH    RN,=Y(L'IXRNT)      Calc SIXR displacement
 0059A2 4179 6000            00000 41332  1 5080.                LA    RY,IXR(RN)          Point IXR block number
 0059A6                            41333  1 5081.                LOOP  BEGIN               Until no next to process
 0059A6 41F0 0294            00294 41339  2 5082.                  LA    R15,IXRNT#          Count of blocks in IXR
 0059AA 1BF8                       41340  2 5083.                  SR    R15,RM              Calc count to end
 0059AC 58E0 C060            00008 41341  2 5084.                  L     R14,#BLKDCNT        Get count to delete
 0059B0 19EF/47D0 A2C4       059BE 41342  2 5085.                  IF    (R14,GT,R15),BEGIN
 0059B6 189F                       41357  3 5086.                    LR    RN,R15              Get count to delete this IXR
 0059B8 1BEF                       41358  3 5087.                    SR    R14,R15             Calc count left afterwards
 0059BA 50E0 C060            00008 41359  3 5088.                    ST    R14,#BLKDCNT        Set count left
 0059BE                            41360  2 5089.                  END   ,
 0059BE A2C8           059BE 059B4 41364  2 5090.                  ELSE  BEGIN
 0059BE 47F0 A2D0            059CA 41369  2          +
 0059C2 189E                       41375  3 5091.                    LR    RN,R14              Get count left
 0059C4                            41376  3 5092.                    CLEAR #BLKDCNT            None left afterwards
 0059C4 D703 C060 C060 00008 00008 41382  3          +
 0059CA                            41383  2 5093.                  END   ,
 0059CA                            41387  2 5094.                  IF    (S.IXRNT,Z),'SET #BLKDMIS' Indicate blocks missing
 0059CA D602 7044 7044 00044 00044 41397  2          +
 0059D0 4770 A2DE            059D8 41398  2          +
 0059D4 9680 C074      0001C       41409  2          +
 0059D8 A2E2           059D8 059D2 41414  2 5095.                  ELSE  BEGIN               Process IXR
1FILEMAN  (FILEMA) (09:39) (22MAR04) ORVYL'S File Manager                                                                   Page  228
0Current Usings:  (PZERO,R0) (RQWB,R2) (FSB,R3) (J.IXR,R4) (IXR,R6) (S.IXR,R7) (FMDELBLK,R10) (@BLKDEL-72,R12)
0Loc    Object Code    Addr1 Addr2  Stmt Lv Lineno    Source Statement           (Hibal 5, Asmedit 3.3)  HLASM R4.0  2004/03/22 09.39
+___    ______ ____    _____ _____  ____ __ ______    ______ _________
00059D8 47F0 A364            05A5E 41419  2          +
 0059DC 1FFF/BFF7 7044       00044 41425  3 5096.                    L3    R15,S.IXRNT         Get IXR block number
 0059E2 4D10 A55A            05C54 41431  3 5097.                    BAS   RS,FMBLKDE5         Get the IXR
 0059E6 4C80 AE0A            06504 41432  3 5098.                    MH    RM,=Y(L'IXRNT)      Calc displacement
 0059EA 4168 6000            00000 41433  3 5099.                    LA    RX,IXR(RM)          Point to start block
 0059EE 4D10 A57E            05C78 41434  3 5100.                    BAS   RS,FMBLKDE6         Just do it!
 0059F2 1255/4780 A364       05A5E 41435  3 5101.                    IF    (RK,NZ),BEGIN       Some blocks deleted
 0059F8                            41449  4 5102.                      IF    (IXRNRCS,Z),BEGIN   IXR empty
 0059F8 D603 6030 6030 00030 00030 41459  4          +
 0059FE 4770 A330            05A2A 41460  4          +
 005A02 1FFF/BFF7 7044       00044 41465  5 5103.                        L3    R15,S.IXRNT         Get block number
 005A08 50F0 C06C            00014 41471  5 5104.                        ST    R15,#BLKDBLK        Save
 005A0C                            41472  5 5105.                        CLEAR S.IXRNT             Clear block
 005A0C D702 7044 7044 00044 00044 41478  5          +
 005A12 5860 C04C            00004 41479  5 5106.                        L     RX,@BLKDADR         Get SIXR address
 005A16 48E0 67FA/06E0       007FA 41480  5 5107.                        DECR  R14,IXRNIXR         One less IXR
 005A1C 40E0 67FA            007FA 41484  5          +
 005A20 58E0 6034/06E0       00034 41485  5 5108.                        DECR  R14,IXRRRCS         One less total blocks
 005A26 50E0 6034            00034 41489  5          +
 005A2A                            41490  4 5109.                      END   ,                   IXR empty
 005A2A A334           05A2A 05A00 41494  4 5110.                      ELSE  'BAS RS,FMBLKDE4'   File the IXR
 005A2A 47F0 A338            05A32 41499  4          +
 005A2E 4D10 A544            05C3E 41506  4          +
 005A32 5860 C04C            00004 41511  4 5111.                      L     RX,@BLKDADR         Get SIXR address
 005A36 58E0 6030            00030 41512  4 5112.                      L     R14,IXRNRCS         Number of blocks
 005A3A 1BE5                       41513  4 5113.                      SR    R14,RK
 005A3C 50E0 6030            00030 41514  4 5114.                      ST    R14,IXRNRCS         Update
 005A40 58E0 6034            00034 41515  4 5115.                      L     R14,IXRRRCS         Number of blocks
 005A44 1BE5                       41516  4 5116.                      SR    R14,RK
 005A46 50E0 6034            00034 41517  4 5117.                      ST    R14,IXRRRCS         Update
 005A4A 5A50 C050            00008 41518  4 5118.                      A     RK,@BLKDCNT         Calc number deleted so far
 005A4E 5050 C050            00008 41519  4 5119.                      ST    RK,@BLKDCNT         Save
 005A52 4D10 A44E            05B48 41520  4 5120.                      BAS   RS,FMBLKDE2         Save the SIXR
 005A56 4D10 A678            05D72 41521  4 5121.                      BAS   RS,FMBLKDE9         Return the block numbers
 005A5A 4D10 A656            05D50 41522  4 5122.                      BAS   RS,FMBLKDE8         Return block number if needed
 005A5E                            41523  3 5123.                    END   ,                   Some blocks deleted
 005A5E                            41527  2 5124.                  END   ,                   Process IXR
 005A5E 4170 7003            00003 41531  2 5125.                  LA    RY,S.IXR+L'IXRNT    Point to next IXR block
 005A62 1B88                       41532  2 5126.                  CLEAR RM                  Start at beginning of next IXR
 005A64                            41536  1 5127.                UNTIL (#BLKDCNT,Z),END    Until no next to process
 005A64 D603 C060 C060 00008 00008 41551  1          +
 005A6A 4770 A2AC            059A6 41554  1          +
 005A6E                            41560    5128.              END   ,                   Super IXR
                                   41564    5129.     * MIXR
 005A6E A378           05A6E 05916 41565    5130.              ELSE  BEGIN               MIXR record
 005A6E 47F0 A3EE            05AE8 41570             +
 005A72 5060 C064            0000C 41576  1 5131.                ST    RX,#BLKDBUF         Save IXR address
 005A76 5880 2034            00034 41577  1 5132.                L     RM,RQICBLK          Get start block number
 005A7A BD87 603B            0003B 41578  1 5133.                IF    (RM,GT,IXRHIRC),FMBLKD12 Start does not exist
 005A7E 4720 A41E            05B18 41592  1          +
 005A82 BD87 6038            00038 41598  1 5134.                IF    (RM,LT,IXRLWRC),BEGIN Start lower than real start
 005A86 47B0 A39A            05A94 41610  1          +
 005A8A 1F88/BF87 6038       00038 41615  2 5135.                  L3    RM,IXRLWRC          Get real start
 005A90 9680 C074      0001C       41621  2 5136.                  SET   #BLKDMIS            Indicate some are missing
1FILEMAN  (FILEMA) (09:39) (22MAR04) ORVYL'S File Manager                                                                   Page  229
0Current Usings:  (PZERO,R0) (RQWB,R2) (FSB,R3) (J.IXR,R4) (IXR,R6) (S.IXR,R7) (FMDELBLK,R10) (@BLKDEL-72,R12)
0Loc    Object Code    Addr1 Addr2  Stmt Lv Lineno    Source Statement           (Hibal 5, Asmedit 3.3)  HLASM R4.0  2004/03/22 09.39
+___    ______ ____    _____ _____  ____ __ ______    ______ _________
0005A94                            41627  1 5137.                END   ,
 005A94 5890 2030            00030 41631  1 5138.                L     RN,RQICBL2          Get end block number
 005A98 BD97 6038            00038 41632  1 5139.                IF    (RN,LT,IXRLWRC),FMBLKD12 End does not exist
 005A9C 4740 A41E            05B18 41646  1          +
 005AA0 BD97 603B            0003B 41652  1 5140.                IF    (RN,GT,IXRHIRC),BEGIN End higher that real end
 005AA4 47D0 A3B8            05AB2 41664  1          +
 005AA8 1F99/BF97 603B       0003B 41669  2 5141.                  L3    RN,IXRHIRC          Get real end
 005AAE 9680 C074      0001C       41675  2 5142.                  SET   #BLKDMIS            Indicate some are missing
 005AB2                            41681  1 5143.                END   ,
 005AB2 5E90 AD5E            06458 41685  1 5144.                INCR  RN
 005AB6 1B98                       41688  1 5145.                SR    RN,RM               Calc number of blocks
 005AB8 4C80 AE0A            06504 41689  1 5146.                MH    RM,=Y(L'IXRNT)      Calc displacement
 005ABC 4168 6000            00000 41690  1 5147.                LA    RX,IXR(RM)          Point to first to delete
 005AC0 4D10 A57E            05C78 41691  1 5148.                BAS   RS,FMBLKDE6         Just do it!
 005AC4 5050 C050            00008 41692  1 5149.                ST    RK,@BLKDCNT         Set count deleted
 005AC8 1255/4780 A41E       05B18 41693  1 5150.                IF    (RK,Z),FMBLKD12     None deleted
 005ACE 58F0 6030            00030 41710  1 5151.                L     R15,IXRNRCS         Get count of user blocks
 005AD2 5EF0 AD5E            06458 41711  1 5152.                INCR  R15                 Count the MIXR
 005AD6 50F0 6034            00034 41714  1 5153.                ST    R15,IXRRRCS         Set total number of blocks
 005ADA 4D10 A544            05C3E 41715  1 5154.                BAS   RS,FMBLKDE4         File the IXR
 005ADE 4D10 A678            05D72 41716  1 5155.                BAS   RS,FMBLKDE9         Return the block numbers
 005AE2                            41717  1 5156.                CLEAR #BLKDBUF            Don't release this buffer
 005AE2 D703 C064 C064 0000C 0000C 41723  1          +
 005AE8                            41724    5157.              END   ,                   MIXR record
 005AE8                            41728    5158.              IF    (#BLKDBUF,NZ),BEGIN Free IO buffer
 005AE8 D603 C064 C064 0000C 0000C 41738             +
 005AEE 4780 A410            05B0A 41739             +
 USING  @SBFREE-72,R13             41744  1 5159.                PSET  @SBFREE
 005AF2 D707 D048 D048 00000 00000 41761  1          +
 005AF8                            41762  1 5160.                PMOV  @SBFPOO,FSBRBT
 005AF8 D203 D048 302C 00000 0002C 41766  1          +
 005AFE                            41767  1 5161.                PMOV  @SBFADR,#BLKDBUF
 005AFE D203 D04C C064 00004 0000C 41771  1          +
 005B04 58F0 AD6A/0DEF       06464 41772  1 5162.                VCALL SBUFREE             Free IO buffer
 005B0A                            41776    5163.              END   ,                   Free IO buffer
 005B0A 9180 C074      0001C       41780    5164.              IF    #BLKDMIS,FMBLKD12   Some missing
 005B0E 4710 A41E            05B18 41792             +
 005B12 1B99                       41798    5165.              CLEAR RN                  Set return code
 005B14 47F0 A426            05B20 41802    5166.              B     FMBLKDEX
0005B18                            41804    5168.     FMBLKD12 LABEL ,
 005B18 4190 000C            0000C 41806    5169.              LA    RN,12               Some blocks are missing
 005B1C 47F0 A426            05B20 41807    5170.              B     FMBLKDEX
0005B20                            41809    5172.     FMBLKDEX LABEL ,
 005B20                            41811    5173.              IF    (#BLKDBUD,NZ),BEGIN Free IO buffer
 005B20 D603 C068 C068 00010 00010 41821             +
 005B26 4780 A448            05B42 41822             +
 005B2A                            41827  1 5174.                PSET  @SBFREE
 005B2A D707 D048 D048 00000 00000 41837  1          +
 005B30                            41838  1 5175.                PMOV  @SBFPOO,FSBRBT
 005B30 D203 D048 302C 00000 0002C 41842  1          +
 005B36                            41843  1 5176.                PMOV  @SBFADR,#BLKDBUD
 005B36 D203 D04C C068 00004 00010 41847  1          +
1FILEMAN  (FILEMA) (09:39) (22MAR04) ORVYL'S File Manager                                                                   Page  230
0Current Usings:  (PZERO,R0) (RQWB,R2) (FSB,R3) (J.IXR,R4) (IXR,R6) (S.IXR,R7) (FMDELBLK,R10) (@BLKDEL-72,R12) (@SBFREE-72,R13)
0Loc    Object Code    Addr1 Addr2  Stmt Lv Lineno    Source Statement           (Hibal 5, Asmedit 3.3)  HLASM R4.0  2004/03/22 09.39
+___    ______ ____    _____ _____  ____ __ ______    ______ _________
0005B3C 58F0 AD6A/0DEF       06464 41848  1 5177.                VCALL SBUFREE             Free IO buffer
 005B42                            41852    5178.              END   ,                   Free IO buffer
 005B42 1809                       41856    5179.              LR    RVR,RN              Get return code
 005B44 47F0 A69C            05D96 41857    5180.              EXIT  FMDELBLK            Done
0005B48                            41861    5182.     FMBLKDE2 LABEL ,                   Save SIXR
 005B48 5010 C070            00018 41863    5183.              ST    RS,#BLKDRET         Save return address
 005B4C 5860 C04C            00004 41864    5184.              L     RX,@BLKDADR         Reset SIXR base
 005B50                            41865    5185.              IF    (IXRNRCS,Z),BEGIN   No more user blocks
 005B50 D603 6030 6030 00030 00030 41875             +
 005B56 4770 A46C            05B66 41876             +
 005B5A                            41881  1 5186.                CLEAR IXRLWXR,IXRHIXR     Clear low and high
 005B5A D701 67FC 67FC 007FC 007FC 41887  1          +
 005B60 D701 67FE 67FE 007FE 007FE 41892  1          +
 005B66                            41893    5187.              END   ,                   No more user blocks
 005B66 A470           05B66 05B58 41897    5188.              ELSE  BEGIN               Determine low and high
 005B66 47F0 A4B8            05BB2 41902             +
 005B6A 41E0 0292            00292 41908  1 5189.                LA    R14,IXRIXNT#        Get count of IXRs in SIXR
 005B6E                            41909  1 5190.                LOOP  BEGIN
 005B6E                            41915  2 5191.                  IF    (IXRNT,NZ),EXIT     First existing block
 005B6E D602 6044 6044 00044 00044 41925  2          +
 005B74 4770 A486            05B80 41928  2          +
 005B78 4160 6003            00003 41934  2 5192.                  LA    RX,IXR+L'IXRNT      Increment pointer
 005B7C 46E0 A474            05B6E 41935  1 5193.                UNTIL (BCT,R14),END
 005B80 5860 C04C            00004 41945  1 5194.                L     RX,@BLKDADR         Reset SIXR base
 005B84 41F0 0292            00292 41946  1 5195.                LA    R15,IXRIXNT#        Get count of IXRs in SIXR
 005B88 1BFE                       41947  1 5196.                SR    R15,R14             Calc block number
 005B8A 40F0 67FC            007FC 41948  1 5197.                STH   R15,IXRLWXR         Set first record number
 005B8E 4160 67B3            007B3 41949  1 5198.                LA    RX,IXR+(L'IXRNT*IXRIXNT#)-L'IXRNT Point to the last one
 005B92 41E0 0292            00292 41950  1 5199.                LA    R14,IXRIXNT#        Get count of IXRs in SIXR
 005B96 06E0                       41951  1 5200.                DECR  R14                 Rel zero
 005B98                            41953  1 5201.                LOOP  BEGIN
 005B98                            41959  2 5202.                  IF    (IXRNT,NZ),EXIT     Last existing block
 005B98 D602 6044 6044 00044 00044 41969  2          +
 005B9E 4770 A4B0            05BAA 41972  2          +
 005BA2 4B60 AE0A            06504 41978  2 5203.                  SH    RX,=Y(L'IXRNT)      Back up one
 005BA6 46E0 A49E            05B98 41979  1 5204.                UNTIL (BCT,R14),END
 005BAA 5860 C04C            00004 41989  1 5205.                L     RX,@BLKDADR         Reset SIXR base
 005BAE 40E0 67FE            007FE 41990  1 5206.                STH   R14,IXRHIXR         Set last record number
 005BB2                            41991    5207.              END   ,                   Determine low and high
 005BB2                            41995    5208.              IF    (IXRHIXR,Z),BEGIN   Convert SIXR to MIXR
 005BB2 D601 67FE 67FE 007FE 007FE 42005             +
 005BB8 4770 A536            05C30 42006             +
 005BBC 94BF 6000      00000       42011  1 5209.                CLEAR IXRSIXR,IXRLWRC,IXRHIRC,IXRNIXR
 005BC0 D702 6038 6038 00038 00038 42022  1          +
 005BC6 D702 603B 603B 0003B 0003B 42027  1          +
 005BCC D701 67FA 67FA 007FA 007FA 42032  1          +
 005BD2                            42033  1 5210.                IF    (IXRNT,NZ),BEGIN    Get blocks from first IXR
 005BD2 D602 6044 6044 00044 00044 42043  1          +
 005BD8 4780 A536            05C30 42044  1          +
 005BDC 1876                       42049  2 5211.                  LR    RY,RX               Get old SIXR address
 DROP   @SBFREE-72,R13             42050  2 5212.                  PSET  @IXRGEPU
 USING  @IXRGEPU-72,R13
 005BDE D70B D048 D048 00000 00000 42070  2          +
1FILEMAN  (FILEMA) (09:39) (22MAR04) ORVYL'S File Manager                                                                   Page  231
0Current Usings:  (PZERO,R0) (RQWB,R2) (FSB,R3) (J.IXR,R4) (IXR,R6) (S.IXR,R7) (FMDELBLK,R10) (@BLKDEL-72,R12) (@IXRGEPU-72,R13)
0Loc    Object Code    Addr1 Addr2  Stmt Lv Lineno    Source Statement           (Hibal 5, Asmedit 3.3)  HLASM R4.0  2004/03/22 09.39
+___    ______ ____    _____ _____  ____ __ ______    ______ _________
0005BE4 5030 D048            00000 42071  2 5213.                  PMOV  @IXRGFSB,LA:FSB
 005BE8                            42082  2 5214.                  PMOV  @IXRGADR,#BLKDBUF   Set buffer address
 005BE8 D203 D050 C064 00008 0000C 42086  2          +
 005BEE                            42087  2 5215.                  PMOV  @IXRGBNO,S.IXRNT    Set block number
 005BEE D202 D04D 7044 00005 00044 42091  2          +
 005BF4 58F0 AD6E/0DEF       06468 42092  2 5216.                  ACALL FMIXRGET            Get IXR
 005BFA 5860 D050            00008 42099  2 5217.                  L     RX,@IXRGADR         Get IXR base
 005BFE D202 7038 6038 00038 00038 42100  2 5218.                  MVC   S.IXRLWRC,IXRLWRC   Get low block
 005C04 D202 703B 603B 0003B 0003B 42101  2 5219.                  MVC   S.IXRHIRC,IXRHIRC   Get high block
 005C0A 4100 7044            00044 42102  2 5220.                  LA    R0,S.IXRNT          Point to first source block number
 005C0E 4110 07BC            007BC 42103  2 5221.                  LA    R1,L'IXRNT*IXRNT#   Get length of move
 005C12 41E0 6044            00044 42104  2 5222.                  LA    R14,IXRNT           Point to first dest block number
 005C16 18F1                       42105  2 5223.                  LR    R15,R1              Same length
 005C18 0E0E                       42106  2 5224.                  MVCL  R0,R14              Get the block numbers
 005C1A 58E0 7034/06E0       00034 42107  2 5225.                  DECR  R14,S.IXRRRCS       One less block in file
 005C20 50E0 7034            00034 42111  2          +
 005C24 1FEE/BFE7 6001       00001 42112  2 5226.                  L3    R14,IXRECNO         Save record number
 005C2A 50E0 C06C            00014 42118  2 5227.                  ST    R14,#BLKDBLK        Set
 005C2E 1867                       42119  2 5228.                  LR    RX,RY               Set new MIXR address
 005C30                            42120  1 5229.                END   ,                   Get blocks from first IXR
 005C30                            42124    5230.              END   ,                   Convert SIXR to MIXR
 005C30 4D10 A544            05C3E 42128    5231.              BAS   RS,FMBLKDE4         File SIXR
 005C34 4D10 A656            05D50 42129    5232.              BAS   RS,FMBLKDE8         Release block number if necessary
 005C38 5810 C070            00018 42130    5233.              L     RS,#BLKDRET         Get return address
 005C3C 07F1                       42131    5234.              BR    RS                  Return to caller
0005C3E                            42133    5236.     FMBLKDE4 LABEL ,                   Save IXR
 005C3E                            42135    5237.              PSET  @IXRGEPU
 005C3E D70B D048 D048 00000 00000 42145             +
 005C44 5030 D048            00000 42146    5238.              PMOV  @IXRGFSB,LA:FSB
 005C48 5060 D050            00008 42157    5239.              PMOV  @IXRGADR,LA:IXR     Set IXR address
 005C4C 58F0 AD72/0DEF       0646C 42168    5240.              ACALL FMIXRPUT            File the IXR away
 005C52 07F1                       42175    5241.              BR    RS
0005C54                            42177    5243.     FMBLKDE5 LABEL ,                   Get IXR
 005C54                            42179    5244.              PSET  @IXRGEPU
 005C54 D70B D048 D048 00000 00000 42189             +
 005C5A 5030 D048            00000 42190    5245.              PMOV  @IXRGFSB,LA:FSB
 005C5E                            42201    5246.              PMOV  @IXRGADR,#BLKDBUF   Set buffer address
 005C5E D203 D050 C064 00008 0000C 42205             +
 005C64 50F0 D04C            00004 42206    5247.              PMOV  @IXRGBNO,(R15)      Set block number
 005C68 58F0 AD6E/0DEF       06468 42216    5248.              ACALL FMIXRGET            Get IXR record
 005C6E 5860 D050            00008 42223    5249.              L     RX,@IXRGADR         Get IXR base
 005C72 5060 C064            0000C 42224    5250.              ST    RX,#BLKDBUF         Save buffer address
 005C76 07F1                       42225    5251.              BR    RS
0005C78                            42227    5253.     FMBLKDE6 LABEL ,                   Get blocks to delete
 005C78 5840 C068/1244       00010 42229    5254.              LT    RJ,#BLKDBUD         Get dummy ixr address
 005C7E 4770 A5A2            05C9C 42233    5255.              IF    Z,BEGIN
 DROP   @IXRGEPU-72,R13            42244  1 5256.                PSET  @SBGET
 USING  @SBGET-72,R13
 005C82 D70B D048 D048 00000 00000 42264  1          +
 005C88                            42265  1 5257.                PMOV  @SBGPOO,FSBRBT      Get an io buffer
 005C88 D203 D048 302C 00000 0002C 42269  1          +
1FILEMAN  (FILEMA) (09:39) (22MAR04) ORVYL'S File Manager                                                                   Page  232
0Current Usings:  (PZERO,R0) (RQWB,R2) (FSB,R3) (J.IXR,R4) (IXR,R6) (S.IXR,R7) (FMDELBLK,R10) (@BLKDEL-72,R12) (@SBGET-72,R13)
0Loc    Object Code    Addr1 Addr2  Stmt Lv Lineno    Source Statement           (Hibal 5, Asmedit 3.3)  HLASM R4.0  2004/03/22 09.39
+___    ______ ____    _____ _____  ____ __ ______    ______ _________
0005C8E 58F0 AD76/0DEF       06470 42270  1 5258.                VCALL SBUFGET
 005C94 5840 D04C            00004 42274  1 5259.                L     RJ,@SBGADR          Get dummy ixr address
 005C98 5040 C068            00010 42275  1 5260.                ST    RJ,#BLKDBUD
 005C9C                            42276    5261.              END   ,
 005C9C 4850 30AC            000AC 42280    5262.              LH    RK,FSBDSZ           Get length
 005CA0 1BFF                       42281    5263.              CLEAR R15
 005CA2 0E4E                       42285    5264.              MVCL  RJ,R14              Clear buffer
 005CA4 5840 C068            00010 42286    5265.              L     RJ,#BLKDBUD         Set base
 005CA8 1B55                       42287    5266.              CLEAR RK                  Clear kount of blocks deleted
 005CAA                            42291    5267.              LOOP  BEGIN
 005CAA                            42297  1 5268.                IF    (IXRNT,NZ),BEGIN
 005CAA D602 6044 6044 00044 00044 42307  1          +
 005CB0 4780 A5CE            05CC8 42308  1          +
 005CB4 D202 4044 6044 00044 00044 42313  2 5269.                  MVC   J.IXRNT,IXRNT       Save block number
 005CBA 4140 4003            00003 42314  2 5270.                  LA    RJ,J.IXR+L'IXRNT    Increment dummy pointer
 005CBE                            42315  2 5271.                  CLEAR IXRNT               Clear the block number
 005CBE D702 6044 6044 00044 00044 42321  2          +
 005CC4 5E50 AD5E            06458 42322  2 5272.                  INCR  RK                  Increment count of released
 005CC8                            42325  1 5273.                END   ,
 005CC8 A5D2           05CC8 05CB2 42329  1 5274.                ELSE  'SET #BLKDMIS'      Indicate some missing from range
 005CC8 47F0 A5D6            05CD0 42334  1          +
 005CCC 9680 C074      0001C       42346  1          +
 005CD0 4160 6003            00003 42351  1 5275.                LA    RX,IXR+L'IXRNT      Increment pointer
 005CD4 4690 A5B0            05CAA 42352    5276.              UNTIL (BCT,RN),END
 005CD8 5860 C064            0000C 42362    5277.              L     RX,#BLKDBUF         Reset IXR base
 005CDC 1255/4780 A654       05D4E 42363    5278.              IF    (RK,NZ),BEGIN       Something was deleted
 005CE2 9120 6000      00000       42377  1 5279.                IF    ~IXRZIXR,BEGIN      Not used for hybrid file
 005CE6 4710 A5FA            05CF4 42387  1          +
 005CEA 58F0 6030            00030 42392  2 5280.                  L     R15,IXRNRCS         Get count of blocks
 005CEE 1BF5                       42393  2 5281.                  SR    R15,RK              Calc count remaining
 005CF0 50F0 6030            00030 42394  2 5282.                  ST    R15,IXRNRCS         Set count left
 005CF4                            42395  1 5283.                END   ,
 005CF4                            42399  1 5284.                CLEAR IXRHIRC,IXRLWRC     Clear high low blocks
 005CF4 D702 603B 603B 0003B 0003B 42405  1          +
 005CFA D702 6038 6038 00038 00038 42410  1          +
 005D00 41E0 0294            00294 42411  1 5285.                LA    R14,IXRNT#          Get count of blocks in IXR
 005D04                            42412  1 5286.                LOOP  BEGIN
 005D04                            42418  2 5287.                  IF    (IXRNT,NZ),EXIT     First existing block
 005D04 D602 6044 6044 00044 00044 42428  2          +
 005D0A 4770 A61C            05D16 42431  2          +
 005D0E 4160 6003            00003 42437  2 5288.                  LA    RX,IXR+L'IXRNT      Increment pointer
 005D12 46E0 A60A            05D04 42438  1 5289.                UNTIL (BCT,R14),END
 005D16 5860 C064            0000C 42448  1 5290.                L     RX,#BLKDBUF         Reset IXR base
 005D1A 12EE/4780 A654       05D4E 42449  1 5291.                IF    (R14,NZ),BEGIN      Set hilo block numbers
 005D20 41F0 0294            00294 42463  2 5292.                  LA    R15,IXRNT#          Get count of blocks in IXR
 005D24 1BFE                       42464  2 5293.                  SR    R15,R14             Calc block number
 005D26 BEF7 6038            00038 42465  2 5294.                  ST3   R15,IXRLWRC         Set first record number
 005D2A 4160 67B9            007B9 42467  2 5295.                  LA    RX,IXR+(L'IXRNT*IXRNT#)-L'IXRNT Point to the last one
 005D2E 41E0 0294            00294 42468  2 5296.                  LA    R14,IXRNT#          Get count of blocks in IXR
 005D32 06E0                       42469  2 5297.                  DECR  R14                 Rel zero
 005D34                            42471  2 5298.                  LOOP  BEGIN
 005D34                            42477  3 5299.                    IF    (IXRNT,NZ),EXIT     Last existing block
 005D34 D602 6044 6044 00044 00044 42487  3          +
 005D3A 4770 A64C            05D46 42490  3          +
1FILEMAN  (FILEMA) (09:39) (22MAR04) ORVYL'S File Manager                                                                   Page  233
0Current Usings:  (PZERO,R0) (RQWB,R2) (FSB,R3) (J.IXR,R4) (IXR,R6) (S.IXR,R7) (FMDELBLK,R10) (@BLKDEL-72,R12) (@SBGET-72,R13)
0Loc    Object Code    Addr1 Addr2  Stmt Lv Lineno    Source Statement           (Hibal 5, Asmedit 3.3)  HLASM R4.0  2004/03/22 09.39
+___    ______ ____    _____ _____  ____ __ ______    ______ _________
0005D3E 4B60 AE0A            06504 42496  3 5300.                    SH    RX,=Y(L'IXRNT)      Back up one
 005D42 46E0 A63A            05D34 42497  2 5301.                  UNTIL (BCT,R14),END
 005D46 5860 C064            0000C 42507  2 5302.                  L     RX,#BLKDBUF         Reset IXR base
 005D4A BEE7 603B            0003B 42508  2 5303.                  ST3   R14,IXRHIRC         Set last record number
 005D4E                            42510  1 5304.                END   ,                   Set hilo block numbers
 005D4E                            42514    5305.              END   ,                   Something was deleted
 005D4E 07F1                       42518    5306.              BR    RS                  Return
0005D50                            42520    5308.     FMBLKDE8 LABEL ,                   Release block number
 005D50 5800 C06C/1200       00014 42522    5309.              LT    RVR,#BLKDBLK        Get block to return
 005D56 4780 A676            05D70 42526    5310.              IF    NZ,BEGIN
 DROP   @SBGET-72,R13              42537  1 5311.                PSET  @FMFSB
 USING  @FMFSB-72,R13
 005D5A D704 D048 D048 00000 00000 42557  1          +
 005D60 5030 D048            00000 42558  1 5312.                PMOV  @FMFSBP,LA:FSB
 005D64 58F0 AD7A/0DEF       06474 42569  1 5313.                VCALL FBITREL             Release back to the file system
 005D6A                            42573  1 5314.                CLEAR #BLKDBLK
 005D6A D703 C06C C06C 00014 00014 42579  1          +
 005D70                            42580    5315.              END   ,
 005D70 07F1                       42584    5316.              BR    RS                  Return
0005D72                            42586    5318.     FMBLKDE9 LABEL ,                   Release a dummy full of blocks
 005D72 5840 C068            00010 42588    5319.              L     RJ,#BLKDBUD         Reset dummy base
 005D76                            42589    5320.              IF    (J.IXRNT,NZ),BEGIN  Any to release
 005D76 D602 4044 4044 00044 00044 42599             +
 005D7C 4780 A69A            05D94 42600             +
 DROP   @FMFSB-72,R13              42605  1 5321.                PSET  @DELIXR
 USING  @DELIXR-72,R13
 005D80 D707 D048 D048 00000 00000 42625  1          +
 005D86 5030 D048            00000 42626  1 5322.                PMOV  @IXRDFSB,LA:FSB
 005D8A 5040 D04C            00004 42637  1 5323.                PMOV  @IXRDADR,LA:J.IXR
 005D8E 58F0 AD7E/0DEF       06478 42648  1 5324.                ACALL FMDELIXR            Release all the blocks
 005D94                            42655    5325.              END   ,                   Any to release
 005D94 07F1                       42659    5326.              BR    RS                  Return
0005D96 981F C008            00008 42661    5328.              PEND  ,
 DROP   J.IXR,R4
 DROP   S.IXR,R7
 DROP   IXR,R6
 DROP   FSB,R3
 DROP   RQWB,R2
 DROP   @BLKDEL-72,R12
 DROP   FMDELBLK,R10
 005D9A 9680 C000/0B0E 00000       42707             +
 DROP   @DELIXR-72,R13
1FILEMAN  (FILEMA) (09:39) (22MAR04) ORVYL'S File Manager                                                                   Page  234
0Current Usings:  (PZERO,R0)
0Loc    Object Code    Addr1 Addr2  Stmt Lv Lineno    Source Statement           (Hibal 5, Asmedit 3.3)  HLASM R4.0  2004/03/22 09.39
+___    ______ ____    _____ _____  ____ __ ______    ______ _________
0                                  42717    5330.     *---------------------------------------------------------------------*
                                   42718    5331.     *  FMDELIXR - Release IXR block numbers back to the system
                                   42719    5332.     *
                                   42720    5333.     *   Inputs -  @DELIXR
                                   42721    5334.     *
                                   42722    5335.     *   Output -  None
                                   42723    5336.     *
                                   42724    5337.     * Note: all block numbers referenced are release back to the system
                                   42725    5338.     *       and all IO buffers obtained by this routine are released back
                                   42726    5339.     *       to the system. The input buffer referenced by @IXRDADR is NOT
                                   42727    5340.     *       released by this routine and must be by the caller.
                                   42728    5341.     *
                                   42729    5342.     *---------------------------------------------------------------------*
 000000                00000 00008 42730    5343.     @DELIXR  RECORD BEGIN
 000000                            42738  1 5344.     @IXRDFSB   DS    A
 000004                            42739  1 5345.     @IXRDADR   DS    A
 000008                00008 00008 42740    5346.              END   ,
0005DA0                            42750    5348.     FMDELIXR PROC  @DELIXR
 005DA0 C6D4C4C5D3C9E7D9           42757             +
 005DA8 0008/0000                  42758             +
 005DAC 900F D004/18AF       00004 42760             +
 USING  FMDELIXR,R10
 005DB2 50D0 C000/18CD       00000 42775             +
 005DB8 9680 C000      00000       42777             +
 USING  @DELIXR-72,R12
 005DBC 41D0 C050            00050 42791             +
 005DC0 5830 C048            00000 42792    5349.              L     RB,@IXRDFSB
 USING  FSB,R3                     42793    5350.              WITH  (FSB,RB)
 005DC4 5860 C04C            00004 42806    5351.              L     RX,@IXRDADR
 USING  IXR,R6                     42807    5352.              WITH  (IXR,RX)
 USING  S.IXR,R7                   42820    5353.              WITH  (IXR,RY),LABEL=S    Super IXR
 005DC8 9140 6000      00000       42828    5354.              IF    IXRSIXR,BEGIN       Super IXR
 005DCC 47E0 A07C            05E28 42838             +
 005DD0 1876                       42843  1 5355.                LR    RY,RX               Set SIXR address
 005DD2 1B55                       42844  1 5356.                CLEAR RK                  Clear work block pointer
 005DD4 4140 0292            00292 42848  1 5357.                LA    RJ,IXRIXNT#         Count of IXRs in super IXR
 005DD8                            42849  1 5358.                LOOP  BEGIN
 005DD8                            42855  2 5359.                  IF    (S.IXRNT,NZ),BEGIN  IXR exists
 005DD8 D602 7044 7044 00044 00044 42865  2          +
 005DDE 4780 A05A            05E06 42866  2          +
 USING  @IXRGEPU-72,R13            42871  3 5360.                    PSET  @IXRGEPU
 005DE2 D70B D048 D048 00000 00000 42888  3          +
 005DE8 5030 D048            00000 42889  3 5361.                    PMOV  @IXRGFSB,LA:FSB
 005DEC 5050 D050            00008 42900  3 5362.                    PMOV  @IXRGADR,(RK)       Set block pointer
 005DF0                            42910  3 5363.                    PMOV  @IXRGBNO,S.IXRNT    Set block number
 005DF0 D202 D04D 7044 00005 00044 42914  3          +
 005DF6 58F0 A6BC/0DEF       06468 42915  3 5364.                    ACALL FMIXRGET            Get IXR
 005DFC 5860 D050            00008 42922  3 5365.                    L     RX,@IXRGADR
 005E00 1856                       42923  3 5366.                    LR    RK,RX               Save buffer address
 005E02 4D10 A0A4            05E50 42924  3 5367.                    BAS   RS,FMIXRDE4         Just do it!
 005E06                            42925  2 5368.                  END   ,                   IXR exists
 005E06 4170 7003            00003 42929  2 5369.                  LA    RY,S.IXR+L'IXRNT    Increment SIXR pointer
 005E0A 4640 A02C            05DD8 42930  1 5370.                UNTIL (BCT,RJ),END        Get all the IXRs
1FILEMAN  (FILEMA) (09:39) (22MAR04) ORVYL'S File Manager                                                                   Page  235
0Current Usings:  (PZERO,R0) (FSB,R3) (IXR,R6) (S.IXR,R7) (FMDELIXR,R10) (@DELIXR-72,R12) (@SBFREE-72,R13)
0Loc    Object Code    Addr1 Addr2  Stmt Lv Lineno    Source Statement           (Hibal 5, Asmedit 3.3)  HLASM R4.0  2004/03/22 09.39
+___    ______ ____    _____ _____  ____ __ ______    ______ _________
0DROP   @IXRGEPU-72,R13            42940  1 5371.                PSET  @SBFREE
 USING  @SBFREE-72,R13
 005E0E D707 D048 D048 00000 00000 42960  1          +
 005E14                            42961  1 5372.                PMOV  @SBFPOO,FSBRBT
 005E14 D203 D048 302C 00000 0002C 42965  1          +
 005E1A 5050 D04C            00004 42966  1 5373.                PMOV  @SBFADR,(RK)
 005E1E 58F0 A6B8/0DEF       06464 42976  1 5374.                VCALL SBUFREE             Free buffer
 005E24 5860 C04C            00004 42980  1 5375.                L     RX,@IXRDADR         Set SIXR address again
 005E28                            42981    5376.              END   ,                   Super IXR
0005E28 1F77/BF77 6001       00001 42986    5378.              L3    RY,IXRECNO          Save record number this block
 005E2E 4D10 A0A4            05E50 42992    5379.              BAS   RS,FMIXRDE4         Just do it!
0005E32 1277/4780 A09E       05E4A 42994    5381.              IF    (RY,NZ),BEGIN       Not called by CONTROL code
 DROP   @SBFREE-72,R13             43008  1 5382.                PSET  @FMFSB              Release bit numbers
 USING  @FMFSB-72,R13
 005E38 D704 D048 D048 00000 00000 43028  1          +
 005E3E 5030 D048            00000 43029  1 5383.                PMOV  @FMFSBP,LA:FSB
 005E42 1807                       43040  1 5384.                LR    RVR,RY
 005E44 58F0 A6C8/0DEF       06474 43041  1 5385.                VCALL FBITREL             Release back to the system
 005E4A                            43045    5386.              END   ,                   Not called by CONTROL code
0005E4A 1B00                       43050    5388.              CLEAR RVR
 005E4C 47F0 A0E2            05E8E 43054    5389.              EXIT  FMDELIXR
0005E50                            43058    5391.     FMIXRDE4 LABEL ,
 005E50                            43060    5392.              PSET  @FMFSB              Release bit numbers
 005E50 D704 D048 D048 00000 00000 43070             +
 005E56 5030 D048            00000 43071    5393.              PMOV  @FMFSBP,LA:FSB
 005E5A 9140 6000      00000       43082    5394.              IF    IXRSIXR,'LA RN,IXRIXNT#'
 005E5E 47E0 A0BA            05E66 43092             +
 005E62 4190 0292            00292 43098             +
 005E66 A0BE           05E66 05E60 43103    5395.              ELSE  'LA RN,IXRNT#'      Get count of blocks in IXR
 005E66 47F0 A0C2            05E6E 43108             +
 005E6A 4190 0294            00294 43115             +
 005E6E                            43120    5396.              LOOP  BEGIN
 005E6E                            43126  1 5397.                IF    (IXRNT,NZ),BEGIN
 005E6E D602 6044 6044 00044 00044 43136  1          +
 005E74 4780 A0D8            05E84 43137  1          +
 005E78 1F00/BF07 6044       00044 43142  2 5398.                  L3    RVR,IXRNT
 005E7E 58F0 A6C8/0DEF       06474 43148  2 5399.                  VCALL FBITREL             Release back to the system
 005E84                            43152  1 5400.                END   ,
 005E84 4160 6003            00003 43156  1 5401.                LA    RX,IXR+L'IXRNT      Increment pointer
 005E88 4690 A0C2            05E6E 43157    5402.              UNTIL (BCT,RN),END
 005E8C 07F1                       43167    5403.              BR    RS
0005E8E 981F C008            00008 43169    5405.              PEND  ,
 DROP   S.IXR,R7
 DROP   IXR,R6
 DROP   FSB,R3
 DROP   @DELIXR-72,R12
 DROP   FMDELIXR,R10
 005E92 9680 C000/0B0E 00000       43202             +
 DROP   @FMFSB-72,R13
1FILEMAN  (FILEMA) (09:39) (22MAR04) ORVYL'S File Manager                                                                   Page  236
0Current Usings:  (PZERO,R0)
0Loc    Object Code    Addr1 Addr2  Stmt Lv Lineno    Source Statement           (Hibal 5, Asmedit 3.3)  HLASM R4.0  2004/03/22 09.39
+___    ______ ____    _____ _____  ____ __ ______    ______ _________
0                                  43212    5407.     *---------------------------------------------------------------------*
                                   43213    5408.     *  FMIXRGET - Get IXR from the file
                                   43214    5409.     *
                                   43215    5410.     *   Inputs -  @IXRGEPU
                                   43216    5411.     *
                                   43217    5412.     *   Output -  None
                                   43218    5413.     *---------------------------------------------------------------------*
 005E98                            43219    5414.     FMIXRGET PROC  @IXRGEPU
 005E98 C6D4C9E7D9C7C5E3           43226             +
 005EA0 0010/0000                  43227             +
 005EA4 900F D004/18AF       00004 43229             +
 USING  FMIXRGET,R10
 005EAA 50D0 C000/18CD       00000 43244             +
 005EB0 9680 C000      00000       43246             +
 USING  @IXRGEPU-72,R12
 005EB4 41D0 C058            00058 43260             +
 005EB8 5830 C048            00000 43261    5415.              L     RB,@IXRGFSB         Address FSB
 USING  FSB,R3                     43262    5416.              WITH  (FSB,RB)
 USING  ATFB,R9                    43275    5417.              WITH  (ATFB,RN)
 USING  IXR,R6                     43288    5418.              WITH  (IXR,RX)
 USING  W.IXR,R8                   43301    5419.              WITH  (IXR,RM),LABEL=W
0005EBC                            43310    5421.              IF    (@IXRGBNO,Z),'ABORT IXRGET_INV_BLKNO'
 005EBC D603 C04C C04C 00004 00004 43320             +
 005EC2 4770 A052            05EF6 43321             +
 005EC6 AC04 021B      0021B       43330  1          +
 005ECA 9680 021A      0021A       43336  1          +
 005ECE 50F0 021C            0021C 43337  1          +
 005ED2 58F0 0210            00210 43338  1          +
 005ED6 89F0 0010            00010 43339  1          +
 005EDA 88F0 0010            00010 43340  1          +
 005EDE 41F0 F000            00000 43341  1          +
 005EE2 AEFF 0006            00006 43342  1          +
 005EE6 C9E7D9C7C5E36DC9           43343             +
0USING  @FDOIODO-72,R13            43349    5423.              PSET  @FDOIODO            Get IXR from file
 005EF6 D70F D048 D048 00000 00000 43366             +
 005EFC 5030 D048            00000 43367    5424.              PMOV  @FDOFSB,LA:FSB      FSB ptr
 005F00                            43378    5425.              PMOV  @FDOBLK,@IXRGBNO    Block number
 005F00 D203 D04C C04C 00004 00004 43382             +
 005F06                            43383    5426.              PMOV  @FDODATA,@IXRGADR   Block address
 005F06 D203 D050 C050 00008 00008 43387             +
 005F0C                            43388    5427.              PMOV  @FDODATL,FSBDSZ     Data length
 005F0C D201 D054 30AC 0000C 000AC 43392             +
 005F12 9680 D057      0000F       43393    5428.              SET   @FDOFR              Indicate read IXR
 005F16 58F0 A5D8/0DEF       0647C 43399    5429.              VCALL FDOIODO             Read IXR record
 005F1C D203 C050 D050 00008 00008 43403    5430.              MVC   @IXRGADR,@FDODATA   Set block address
0005F22 981F C008            00008 43405    5432.              PEND  ,
 DROP   W.IXR,R8
 DROP   IXR,R6
 DROP   ATFB,R9
 DROP   FSB,R3
 DROP   @IXRGEPU-72,R12
1FILEMAN  (FILEMA) (09:39) (22MAR04) ORVYL'S File Manager                                                                   Page  237
0Current Usings:  (PZERO,R0) (@FDOIODO-72,R13)
0Loc    Object Code    Addr1 Addr2  Stmt Lv Lineno    Source Statement           (Hibal 5, Asmedit 3.3)  HLASM R4.0  2004/03/22 09.39
+___    ______ ____    _____ _____  ____ __ ______    ______ _________
0DROP   FMIXRGET,R10
 005F26 9680 C000/0B0E 00000       43443             +
 DROP   @FDOIODO-72,R13
1FILEMAN  (FILEMA) (09:39) (22MAR04) ORVYL'S File Manager                                                                   Page  238
0Current Usings:  (PZERO,R0)
0Loc    Object Code    Addr1 Addr2  Stmt Lv Lineno    Source Statement           (Hibal 5, Asmedit 3.3)  HLASM R4.0  2004/03/22 09.39
+___    ______ ____    _____ _____  ____ __ ______    ______ _________
0                                  43453    5434.     *---------------------------------------------------------------------*
                                   43454    5435.     *  FMIXRPUT - Put IXR into the file
                                   43455    5436.     *
                                   43456    5437.     *   Inputs -  @IXRGEPU
                                   43457    5438.     *
                                   43458    5439.     *   Output -  None
                                   43459    5440.     *---------------------------------------------------------------------*
 005F2C                            43460    5441.     FMIXRPUT PROC  @IXRGEPU
 005F2C C6D4C9E7D9D7E4E3           43467             +
 005F34 0010/0000                  43468             +
 005F38 900F D004/18AF       00004 43470             +
 USING  FMIXRPUT,R10
 005F3E 50D0 C000/18CD       00000 43485             +
 005F44 9680 C000      00000       43487             +
 USING  @IXRGEPU-72,R12
 005F48 41D0 C058            00058 43501             +
 005F4C 5830 C048            00000 43502    5442.              L     RB,@IXRGFSB         Address FSB
 USING  FSB,R3                     43503    5443.              WITH  (FSB,RB)
 005F50 5860 C050            00008 43516    5444.              L     RX,@IXRGADR         IXR address
 USING  IXR,R6                     43517    5445.              WITH  (IXR,RX)
0005F54                            43531    5447.              IF    (IXRECNO,Z),'ABORT IXRPUT_INV_BLKNO'
 005F54 D602 6001 6001 00001 00001 43541             +
 005F5A 4770 A056            05F8E 43542             +
 005F5E AC04 021B      0021B       43551  1          +
 005F62 9680 021A      0021A       43557  1          +
 005F66 50F0 021C            0021C 43558  1          +
 005F6A 58F0 0210            00210 43559  1          +
 005F6E 89F0 0010            00010 43560  1          +
 005F72 88F0 0010            00010 43561  1          +
 005F76 41F0 F000            00000 43562  1          +
 005F7A AEFF 0006            00006 43563  1          +
 005F7E C9E7D9D7E4E36DC9           43564             +
0USING  @FDOIODO-72,R13            43570    5449.              PSET  @FDOIODO
 005F8E D70F D048 D048 00000 00000 43587             +
 005F94 5030 D048            00000 43588    5450.              PMOV  @FDOFSB,LA:FSB      FSB ptr
 005F98                            43599    5451.              PMOV  @FDOBLK,IXRECNO     Block number
 005F98 D202 D04D 6001 00005 00001 43603             +
 005F9E 5060 D050            00008 43604    5452.              PMOV  @FDODATA,LA:IXR     Block address
 005FA2 4100 0800            00800 43615    5453.              PMOV  @FDODATL,LA:L'IXR   Data length
 005FA6 4000 D054            0000C 43631             +
 005FAA 9640 D057      0000F       43632    5454.              SET   @FDOFW              Indicate write IXR
0005FAE 41F0 0008            00008 43639    5456.              LA    R15,FBHTIXR         Assume IXR
 005FB2 9120 6000      00000       43640    5457.              IF    IXRZIXR,'LA R15,FBHTZIXR' ZIXR
 005FB6 47E0 A086            05FBE 43650             +
 005FBA 41F0 0010            00010 43656             +
 005FBE A08A           05FBE 05FB8 43661    5458.              ELSEIF IXRSIXR,'LA R15,FBHTSIXR' SIXR
 005FBE 47F0 A096            05FCE 43667             +
 005FC2 9140 6000      00000       43679             +
 005FC6 47E0 A096            05FCE 43680             +
 005FCA 41F0 0004            00004 43686             +
 005FCE A09A           05FCE 05FC8 43691    5459.              ELSEIF IXRMIXR,'LA R15,FBHTMIXR' MIXR
1FILEMAN  (FILEMA) (09:39) (22MAR04) ORVYL'S File Manager                                                                   Page  239
0Current Usings:  (PZERO,R0) (FSB,R3) (IXR,R6) (FMIXRPUT,R10) (@IXRGEPU-72,R12) (@FDOIODO-72,R13)
0Loc    Object Code    Addr1 Addr2  Stmt Lv Lineno    Source Statement           (Hibal 5, Asmedit 3.3)  HLASM R4.0  2004/03/22 09.39
+___    ______ ____    _____ _____  ____ __ ______    ______ _________
0005FCE 47F0 A0A6            05FDE 43697             +
 005FD2 9180 6000      00000       43709             +
 005FD6 47E0 A0A6            05FDE 43710             +
 005FDA 41F0 0002            00002 43716             +
 005FDE 42F0 D056            0000E 43721    5460.              PMOV  @FDOTYPE,(R15)
0005FE2 58F0 A544/0DEF       0647C 43732    5462.              VCALL FDOIODO             Write IXR record
0005FE8 981F C008            00008 43737    5464.              PEND  ,
 DROP   IXR,R6
 DROP   FSB,R3
 DROP   @IXRGEPU-72,R12
 DROP   FMIXRPUT,R10
 005FEC 9680 C000/0B0E 00000       43762             +
 DROP   @FDOIODO-72,R13
1FILEMAN  (FILEMA) (09:39) (22MAR04) ORVYL'S File Manager                                                                   Page  240
0Current Usings:  (PZERO,R0)
0Loc    Object Code    Addr1 Addr2  Stmt Lv Lineno    Source Statement           (Hibal 5, Asmedit 3.3)  HLASM R4.0  2004/03/22 09.39
+___    ______ ____    _____ _____  ____ __ ______    ______ _________
0                                  43772    5466.     *---------------------------------------------------------------------*
                                   43773    5467.     *  FMIXRADD - Add first IXR to the file - called by FILECAT for
                                   43774    5468.     *             new file processing
                                   43775    5469.     *
                                   43776    5470.     *   Inputs - @FMIXIL
                                   43777    5471.     *
                                   43778    5472.     *   Output - RVR contains the return code
                                   43779    5473.     *---------------------------------------------------------------------*
 005FF2                            43780    5474.     FMIXRADD PROC  @FMIXRAD,SCOPE=GLOBAL
 005FF2 C6D4C9E7D9C1C4C4           43786             +
 005FFA 0038/0000                  43787             +
 005FFE 900F D004/18AF       00004 43789             +
 USING  FMIXRADD,R10
 006004 50D0 C000/18CD       00000 43804             +
 00600A 9680 C000      00000       43806             +
 USING  @FMIXRAD-72,R12
 00600E 41D0 C080            00080 43820             +
 006012 5830 C048            00000 43821    5475.              L     RB,@FMIXFSB         Address FSB
 USING  FSB,R3                     43822    5476.              WITH  (FSB,RB)
0USING  @FMFSB-72,R13              43836    5478.              PSET  @FMFSB
 006016 D704 D048 D048 00000 00000 43853             +
 00601C 5030 D048            00000 43854    5479.              PMOV  @FMFSBP,LA:FSB
 006020 58F0 A482/0DEF       06480 43865    5480.              VCALL FBITGET
 006026 1200/4770 A036       06034 43869    5481.              IF    (RVR,Z),BEGIN       No more blocks
 00602C 4100 001C            0001C 43883  1 5482.                LA    RVR,28              No more room
 006030 47F0 A096            06094 43884  1 5483.                EXIT  FMIXRADD
 006034                            43887    5484.              END   ,
 006034 5000 C074            0002C 43891    5485.              ST    RVR,@FMIXBLK        Save block number
 DROP   @FMFSB-72,R13              43892    5486.              PSET  @SBGET
 USING  @SBGET-72,R13
 006038 D70B D048 D048 00000 00000 43912             +
 00603E                            43913    5487.              PMOV  @SBGPOO,FSBRBT      Get an io buffer
 00603E D203 D048 302C 00000 0002C 43917             +
 006044 58F0 A472/0DEF       06470 43918    5488.              VCALL SBUFGET
 00604A 5880 D04C            00004 43922    5489.              L     RM,@SBGADR          Get buffer address
 USING  IXR,R8                     43923    5490.              WITH  (IXR,RM)
 00604E D203 802C A486 0002C 06484 43936    5491.              MVC   IXRNAME+L'IXRNAME-4(4),=CL4' '
 006054 D227 8004 C04C 00004 00004 43937    5492.              MVC   IXRNAME(L'IXRNAME-4),@FMIXNAM File name
 00605A D202 8001 C075 00001 0002D 43938    5493.              MVC   IXRECNO,@FMIXBLK+1  Set record number
                                   43939    5494.     ***** Eventially do not maintain file mask in IXRSTATE
                                   43940    5495.     * Removed in spring of 2002
                                   43941    5496.     *         OI    IXRSTATE,FPALL      All permits for owner
                                   43942    5497.     *****************************
 006060 9201 8037      00037       43943    5498.              MVI   IXRRRCS+3,1         This is the only record for now
 006064 9680 8000      00000       43944    5499.              SET   IXRMIXR             Set to master IXR
0DROP   @SBGET-72,R13              43951    5501.              PSET  @IXRGEPU
 USING  @IXRGEPU-72,R13
 006068 D70B D048 D048 00000 00000 43971             +
 00606E 5030 D048            00000 43972    5502.              PMOV  @IXRGFSB,LA:FSB
 006072 5080 D050            00008 43983    5503.              PMOV  @IXRGADR,LA:IXR     Set IXR address
 006076 58F0 A46E/0DEF       0646C 43994    5504.              ACALL FMIXRPUT            File the IXR away
1FILEMAN  (FILEMA) (09:39) (22MAR04) ORVYL'S File Manager                                                                   Page  241
0Current Usings:  (PZERO,R0) (FSB,R3) (IXR,R8) (FMIXRADD,R10) (@FMIXRAD-72,R12) (@SBFREE-72,R13)
0Loc    Object Code    Addr1 Addr2  Stmt Lv Lineno    Source Statement           (Hibal 5, Asmedit 3.3)  HLASM R4.0  2004/03/22 09.39
+___    ______ ____    _____ _____  ____ __ ______    ______ _________
0DROP   @IXRGEPU-72,R13            44003    5507.              PSET  @SBFREE
 USING  @SBFREE-72,R13
 00607C D707 D048 D048 00000 00000 44023             +
 006082                            44024    5508.              PMOV  @SBFPOO,FSBRBT
 006082 D203 D048 302C 00000 0002C 44028             +
 006088 5080 D04C            00004 44029    5509.              PMOV  @SBFADR,LA:IXR
 00608C 58F0 A466/0DEF       06464 44040    5510.              VCALL SBUFREE             Put buffer back
0006092 1B00                       44045    5512.              CLEAR RVR
0006094 981F C008            00008 44050    5514.              PEND  ,
 DROP   IXR,R8
 DROP   FSB,R3
 DROP   @FMIXRAD-72,R12
 DROP   FMIXRADD,R10
 006098 9680 C000/0B0E 00000       44075             +
 DROP   @SBFREE-72,R13
1FILEMAN  (FILEMA) (09:39) (22MAR04) ORVYL'S File Manager                                                                   Page  242
0Current Usings:  (PZERO,R0)
0Loc    Object Code    Addr1 Addr2  Stmt Lv Lineno    Source Statement           (Hibal 5, Asmedit 3.3)  HLASM R4.0  2004/03/22 09.39
+___    ______ ____    _____ _____  ____ __ ______    ______ _________
0                                  44085    5516.     *---------------------------------------------------------------------*
                                   44086    5517.     *  FMHYINIT - Initialize a hybrid file - called by FILECAT for
                                   44087    5518.     *             new file processing
                                   44088    5519.     *
                                   44089    5520.     *   Inputs - @FMIXIL
                                   44090    5521.     *
                                   44091    5522.     *   Output - RVR contains the return code
                                   44092    5523.     *---------------------------------------------------------------------*
 00609E                            44093    5524.     FMHYINIT PROC  @FMIXRAD,SCOPE=GLOBAL
 00609E C6D4C8E8C9D5C9E3           44099             +
 0060A6 0038/0000                  44100             +
 0060AA 900F D004/18AF       00004 44102             +
 USING  FMHYINIT,R10
 0060B0 50D0 C000/18CD       00000 44117             +
 0060B6 9680 C000      00000       44119             +
 USING  @FMIXRAD-72,R12
 0060BA 41D0 C080            00080 44133             +
 0060BE 5830 C048            00000 44134    5525.              L     RB,@FMIXFSB         Address FSB
 USING  FSB,R3                     44135    5526.              WITH  (FSB,RB)
0USING  @SBGET-72,R13              44149    5528.              PSET  @SBGET
 0060C2 D70B D048 D048 00000 00000 44166             +
 0060C8                            44167    5529.              PMOV  @SBGPOO,FSBRBT      Get an io buffer
 0060C8 D203 D048 302C 00000 0002C 44171             +
 0060CE 58F0 A3C6/0DEF       06470 44172    5530.              VCALL SBUFGET
 0060D4 5860 D04C            00004 44176    5531.              L     RX,@SBGADR          Get buffer address
 USING  IXR,R6                     44177    5532.              WITH  (IXR,RX)
0DROP   @SBGET-72,R13              44191    5534.              PSET  @IXRGEPU
 USING  @IXRGEPU-72,R13
 0060D8 D70B D048 D048 00000 00000 44211             +
 0060DE 5030 D048            00000 44212    5535.              PMOV  @IXRGFSB,LA:FSB
 0060E2 5060 D050            00008 44223    5536.              PMOV  @IXRGADR,LA:IXR     Set IXR address
00060E6 5880 C074            0002C 44235    5538.              L     RM,@FMIXBLK         First block number
 0060EA 5890 C078            00030 44236    5539.              L     RN,@FMIXCNT         Count of blocks
 0060EE                            44237    5540.              IF    (@FMIXEXT,NZ),BEGIN Extend existing file
 0060EE D603 C07C C07C 00034 00034 44247             +
 0060F4 4780 A078            06122 44248             +
 0060F8 5080 D04C            00004 44253  1 5541.                PMOV  @IXRGBNO,(RM)       Set first block number
 0060FC 58F0 A3BE/0DEF       06468 44263  1 5542.                ACALL FMIXRGET            Get the first IXR
 006102 18E9                       44270  1 5543.                LR    R14,RN              Get extend count
 006104 5AE0 6034            00034 44271  1 5544.                A     R14,IXRRRCS         Add to total
 006108 50E0 6034            00034 44272  1 5545.                ST    R14,IXRRRCS         Set
 00610C 58F0 A3C2/0DEF       0646C 44273  1 5546.                ACALL FMIXRPUT            Update
 006112 4100 6000            00000 44280  1 5547.                LA    R0,IXR
 006116 4810 30AC            000AC 44281  1 5548.                LH    R1,FSBDSZ
 00611A 1BFF                       44282  1 5549.                CLEAR R15
 00611C 0E0E                       44286  1 5550.                MVCL  R0,R14              Clear IXR
 00611E 5880 C07C            00034 44287  1 5551.                L     RM,@FMIXEXT         Init from here
 006122                            44288    5552.              END   ,                   Extend existing file
 006122 A07C           06122 060F6 44292    5553.              ELSE  'ST RN,IXRRRCS'     Count of IXRs in the file
 006122 47F0 A080            0612A 44297             +
 006126 5090 6034            00034 44304             +
1FILEMAN  (FILEMA) (09:39) (22MAR04) ORVYL'S File Manager                                                                   Page  243
0Current Usings:  (PZERO,R0) (FSB,R3) (IXR,R6) (FMHYINIT,R10) (@FMIXRAD-72,R12) (@IXRGEPU-72,R13)
0Loc    Object Code    Addr1 Addr2  Stmt Lv Lineno    Source Statement           (Hibal 5, Asmedit 3.3)  HLASM R4.0  2004/03/22 09.39
+___    ______ ____    _____ _____  ____ __ ______    ______ _________
000612A 9620 6000      00000       44310    5555.              SET   IXRZIXR             Indicate hybrid IXR
 00612E 9610 6000      00000       44316    5556.              SET   IXRFIXR             Indicate first one
 006132 D203 602C A3DA 0002C 06484 44322    5557.              MVC   IXRNAME+L'IXRNAME-4(4),=CL4' '
 006138 D227 6004 C04C 00004 00004 44323    5558.              MVC   IXRNAME(L'IXRNAME-4),@FMIXNAM File name
000613E                            44325    5560.              LOOP  BEGIN
 00613E BE87 6001            00001 44331  1 5561.                ST3   RM,IXRECNO
 006142 58F0 A3C2/0DEF       0646C 44333  1 5562.                ACALL FMIXRPUT            File the IXR away
 006148                            44340  1 5563.                CLEAR IXRRRCS,IXRFIXR     Only in the first one
 006148 D703 6034 6034 00034 00034 44346  1          +
 00614E 94EF 6000      00000       44351  1          +
 006152 5E80 A3AE            06458 44352  1 5564.                INCR  RM                  Next record in the range
 006156 4690 A094            0613E 44355    5565.              UNTIL (BCT,RN),END
0DROP   @IXRGEPU-72,R13            44366    5567.              PSET  @SBFREE
 USING  @SBFREE-72,R13
 00615A D707 D048 D048 00000 00000 44386             +
 006160                            44387    5568.              PMOV  @SBFPOO,FSBRBT
 006160 D203 D048 302C 00000 0002C 44391             +
 006166 5060 D04C            00004 44392    5569.              PMOV  @SBFADR,LA:IXR
 00616A 58F0 A3BA/0DEF       06464 44403    5570.              VCALL SBUFREE             Put buffer back
0006170 1B00                       44408    5572.              CLEAR RVR
0006172 981F C008            00008 44413    5574.              PEND  ,
 DROP   IXR,R6
 DROP   FSB,R3
 DROP   @FMIXRAD-72,R12
 DROP   FMHYINIT,R10
 006176 9680 C000/0B0E 00000       44438             +
 DROP   @SBFREE-72,R13
1FILEMAN  (FILEMA) (09:39) (22MAR04) ORVYL'S File Manager                                                                   Page  244
0Current Usings:  (PZERO,R0)
0Loc    Object Code    Addr1 Addr2  Stmt Lv Lineno    Source Statement           (Hibal 5, Asmedit 3.3)  HLASM R4.0  2004/03/22 09.39
+___    ______ ____    _____ _____  ____ __ ______    ______ _________
0                                  44448    5576.     *---------------------------------------------------------------------*
                                   44449    5577.     *  FMSETSOU - Set signed-on user in the address space file block.
                                   44450    5578.     *
                                   44451    5579.     *   Inputs - None
                                   44452    5580.     *
                                   44453    5581.     *   Output - signed-on user set/reset in ASFB
                                   44454    5582.     *---------------------------------------------------------------------*
 00617C                            44455    5583.     FMSETSOU PROC  ,
 00617C C6D4E2C5E3E2D6E4           44462             +
 006184 0000/0000                  44463             +
 006188 900F D004/18AF       00004 44465             +
 USING  FMSETSOU,R10
 00618E 50D0 C000/18CD       00000 44480             +
 006194 9680 C000      00000       44482             +
 006198 41D0 C048            00048 44483             +
 00619C 5810 0208            00208 44484    5584.              L     RS,PZCURASB
 USING  ASB,R1                     44485    5585.              WITH  (ASB,RS)
 USING  ASFB,R4                    44498    5586.              WITH  (ASFB,RJ)
 0061A0 5840 1038/1244       00038 44511    5587.              IF    ('LT RJ,ASBASFB',NZ),BEGIN
 0061A6 4780 A042            061CA 44522             +
 USING  @ACAINFO-72,R13            44527  1 5588.                PSET  @ACAINFO
 0061AA D717 D048 D048 00000 00000 44544  1          +
 0061B0 5010 D048            00000 44545  1 5589.                PMOV  @ACAASB,LA:ASB      Current ASB
 0061B4 58F0 A300/0DEF       06488 44556  1 5590.                VCALL ACAINFO             Get logged on account
 0061BA D201 4024 D04F 00024 00007 44560  1 5591.                MVC   ASFBSAGR,@ACAUID+3  Get group
 0061C0 924B 4026      00026       44561  1 5592.                MVI   ASFBSADO,C'.'        Set dot
 0061C4 D202 4027 D04C 00027 00004 44562  1 5593.                MVC   ASFBSAUS,@ACAUID    Get user
 0061CA                            44563    5594.              END   ,
 0061CA 1B00                       44567    5595.              CLEAR RVR
 0061CC 981F C008            00008 44571    5596.              PEND  ,
 DROP   ASFB,R4
 DROP   ASB,R1
 DROP   FMSETSOU,R10
 0061D0 9680 C000/0B0E 00000       44591             +
 DROP   @ACAINFO-72,R13
1FILEMAN  (FILEMA) (09:39) (22MAR04) ORVYL'S File Manager                                                                   Page  245
0Current Usings:  (PZERO,R0)
0Loc    Object Code    Addr1 Addr2  Stmt Lv Lineno    Source Statement           (Hibal 5, Asmedit 3.3)  HLASM R4.0  2004/03/22 09.39
+___    ______ ____    _____ _____  ____ __ ______    ______ _________
0                                  44601    5598.     *---------------------------------------------------------------------*
                                   44602    5599.     *  FMCLSUDO - Clear pseudo user in the address space file block
                                   44603    5600.     *
                                   44604    5601.     *   Inputs - none
                                   44605    5602.     *
                                   44606    5603.     *   Output - none
                                   44607    5604.     *---------------------------------------------------------------------*
 0061D6                            44608    5605.     FMCLSUDO PROC  SCOPE=GLOBAL        Clear pseudo user
 0061D6 C6D4C3D3E2E4C4D6           44614             +
 0061DE 0000/0000                  44615             +
 0061E2 900F D004/18AF       00004 44617             +
 USING  FMCLSUDO,R10
 0061E8 50D0 C000/18CD       00000 44632             +
 0061EE 9680 C000      00000       44634             +
 0061F2 41D0 C048            00048 44635             +
 0061F6 5810 0208            00208 44636    5606.              L     RS,PZCURASB
 USING  ASB,R1                     44637    5607.              WITH  (ASB,RS)
 USING  ASFB,R4                    44650    5608.              WITH  (ASFB,RJ)
 0061FA 5840 1038/1244       00038 44663    5609.              IF    ('LT RJ,ASBASFB',NZ),'CLEAR ASFBPACC'
 006200 4780 A028            0620A 44674             +
 006204 D705 402A 402A 0002A 0002A 44686             +
 00620A 981F C008            00008 44691    5610.              PEND  ,
 DROP   ASFB,R4
 DROP   ASB,R1
 DROP   FMCLSUDO,R10
 00620E 9680 C000/0B0E 00000       44711             +
1FILEMAN  (FILEMA) (09:39) (22MAR04) ORVYL'S File Manager                                                                   Page  246
0Current Usings:  (PZERO,R0)
0Loc    Object Code    Addr1 Addr2  Stmt Lv Lineno    Source Statement           (Hibal 5, Asmedit 3.3)  HLASM R4.0  2004/03/22 09.39
+___    ______ ____    _____ _____  ____ __ ______    ______ _________
0                                  44718    5612.     *---------------------------------------------------------------------*
                                   44719    5613.     *  FMANFINF - Provide various file system information
                                   44720    5614.     *
                                   44721    5615.     *   Inputs - @FMFINFO
                                   44722    5616.     *
                                   44723    5617.     *   Output - @FMFINFO
                                   44724    5618.     *---------------------------------------------------------------------*
 006214                            44725    5619.     FMANFINF PROC  @FMFINFO,SCOPE=GLOBAL
 006214 C6D4C1D5C6C9D5C6           44731             +
 00621C 0038/0000                  44732             +
 006220 900F D004/18AF       00004 44734             +
 USING  FMANFINF,R10
 006226 50D0 C000/18CD       00000 44749             +
 00622C 9680 C000      00000       44751             +
 USING  @FMFINFO-72,R12
 006230 41D0 C080            00080 44765             +
 USING  FSB,R3                     44766    5620.              WITH  (FSB,RB)
 USING  ATFB,R4                    44779    5621.              WITH  (ATFB,RJ)
 USING  RQFB,R5                    44792    5622.              WITH  (RQFB,RK)
 AUSING (RQATTF,RQFBASV)           44805    5623.              WITH  (RQATTF,RQFBASV)    Map RQWB saved fields in RQFB
 USING  IXR,R6                     44812    5624.              WITH  (IXR,RX)
 006234 5850 C048/1255       00000 44825    5625.              IF    ('LT RK,@FMFIDID',Z),BEGIN
 00623A 4770 A024            06244 44836             +
 00623E D22B C052 A26C 0000A 0648C 44841  1 5626.                MVC   @FMFINAM,=CL(L'@FMFINAM)'*** File being detached ***'
 006244                            44842    5627.              END   ,
 006244 A028           06244 0623C 44846    5628.              ELSEIF RQASTAT,BEGIN      Status SVC in progress
 006244 47F0 A036            06256 44852             +
 006248 9110 5013      00007       44864             +
 00624C 47E0 A036            06256 44865             +
 006250 D22B C052 A298 0000A 064B8 44870  1 5629.                MVC   @FMFINAM,=CL(L'@FMFINAM)'*** STATUS in progress ***'
 006256                            44871    5630.              END   ,
 006256 A03A           06256 0624E 44875    5631.              ELSE  BEGIN               Got the RQFB
 006256 47F0 A0EE            0630E 44880             +
 00625A 5840 5024            00018 44886  1 5632.                L     RJ,RQATFB           Point to the attached file block
 00625E D203 C052 A2C4 0000A 064E4 44887  1 5633.                MVC   @FMFINAM(4),=C'ORV.' Set file name
 006264 D227 C056 4028 0000E 00028 44888  1 5634.                MVC   @FMFINAM+4(L'ATFBNAME),ATFBNAME
 00626A 9120 5012      00006       44889  1 5635.                IF    RQASHR,'SET @FMFISHR'
 00626E 47E0 A056            06276 44899  1          +
 006272 9680 C051      00009       44910  1          +
 006276 9120 5013      00007       44915  1 5636.                IF    RQARES,'SET @FMFIRSV'
 00627A 47E0 A062            06282 44925  1          +
 00627E 9640 C051      00009       44936  1          +
 006282 9140 5012      00006       44941  1 5637.                IF    RQATMP,'SET @FMFITMP'
 006286 47E0 A06E            0628E 44951  1          +
 00628A 9620 C051      00009       44962  1          +
 00628E 9104 5011      00005       44967  1 5638.                IF    RQCHYBR,'SET @FMFIHYB'
 006292 47E0 A07A            0629A 44977  1          +
 006296 9604 C051      00009       44988  1          +
 00629A A07E           0629A 06294 44993  1 5639.                ELSEIF RQCNIXR,'SET @FMFINIX'
 00629A 47F0 A08A            062AA 44999  1          +
 00629E 9110 5011      00005       45011  1          +
 0062A2 47E0 A08A            062AA 45012  1          +
 0062A6 9610 C051      00009       45023  1          +
 0062AA 9180 5012      00006       45028  1 5640.                IF    ~RQADONE,'SET @FMFIATT'
1FILEMAN  (FILEMA) (09:39) (22MAR04) ORVYL'S File Manager                                                                   Page  247
0Current Usings:  (PZERO,R0) (FSB,R3) (ATFB,R4) (RQFB,R5) (IXR,R6) (FMANFINF,R10) (@FMFINFO-72,R12)
0Loc    Object Code    Addr1 Addr2  Stmt Lv Lineno    Source Statement           (Hibal 5, Asmedit 3.3)  HLASM R4.0  2004/03/22 09.39
+___    ______ ____    _____ _____  ____ __ ______    ______ _________
00062AE 4710 A096            062B6 45038  1          +
 0062B2 9608 C051      00009       45049  1          +
 0062B6 D200 C050 5010 00008 00004 45054  1 5641.                MVC   @FMFIPRI,RQAPERM      Get attach permits
 0062BC D400 C050 400C 00008 0000C 45055  1 5642.                NC    @FMFIPRI,ATFBMASK     Limit with file mask
 0062C2 9110 5011      00005       45056  1 5643.                IF    RQCNIXR,'MVC @FMFIBLK,ATFBBLKC' Set block count
 0062C6 47E0 A0B0            062D0 45066  1          +
 0062CA D203 C04C 4014 00004 00014 45072  1          +
 0062D0 A0B4           062D0 062C8 45077  1 5644.                ELSE  BEGIN               IXR file
 0062D0 47F0 A0EE            0630E 45082  1          +
 0062D4 5830 4024            00024 45088  2 5645.                  L     RB,ATFBFSB          Set FSB pointer
 USING  @IXRGEPU-72,R13            45089  2 5646.                  PSET  @IXRGEPU
 0062D8 D70B D048 D048 00000 00000 45106  2          +
 0062DE 5030 D048            00000 45107  2 5647.                  PMOV  @IXRGFSB,LA:FSB
 0062E2                            45118  2 5648.                  PMOV  @IXRGBNO,ATFBFBLK   Set first block number
 0062E2 D203 D04C 4010 00004 00010 45122  2          +
 0062E8 58F0 A248/0DEF       06468 45123  2 5649.                  ACALL FMIXRGET            Get IXR record
 0062EE 5860 D050            00008 45130  2 5650.                  L     RX,@IXRGADR         Set IXR pointer
 0062F2 D203 C04C 6030 00004 00030 45131  2 5651.                  MVC   @FMFIBLK,IXRNRCS    Number of user blocks
 DROP   @IXRGEPU-72,R13            45132  2 5652.                  PSET  @SBFREE
 USING  @SBFREE-72,R13
 0062F8 D707 D048 D048 00000 00000 45152  2          +
 0062FE                            45153  2 5653.                  PMOV  @SBFPOO,FSBRBT
 0062FE D203 D048 302C 00000 0002C 45157  2          +
 006304 5060 D04C            00004 45158  2 5654.                  PMOV  @SBFADR,LA:IXR
 006308 58F0 A244/0DEF       06464 45169  2 5655.                  VCALL SBUFREE             Give back IXR buffer
 00630E                            45173  1 5656.                END   ,                   IXR file
 00630E                            45177    5657.              END   ,                   Got the RQFB
000630E 1B00                       45182    5659.              CLEAR RVR
 006310 981F C008            00008 45186    5660.              PEND  ,
 DROP   IXR,R6
 DROP   RQFB,R5
 DROP   ATFB,R4
 DROP   FSB,R3
 DROP   @FMFINFO-72,R12
 DROP   FMANFINF,R10
 006314 9680 C000/0B0E 00000       45221             +
 DROP   @SBFREE-72,R13
