1                        J E S 2  J O B  L O G  --  S Y S T E M  S Y S B  --  N O D E  R L G
0
 09.47.00 JOB05980 ---- MONDAY,    22 MAR 2004 ----
 09.47.00 JOB05980  ICH70001I GG$PJG   LAST ACCESS AT 09:46:48 ON MONDAY, MARCH 22, 2004
 09.47.00 JOB05980  $HASP373 PJG#VFMT STARTED - INIT 2    - CLASS E - SYS SYSB
 09.47.00 JOB05980  ***  HCMD      STEP $$QUIET
 09.47.00 JOB05980  PURGE * Q=OUTPUT MULTIPLE
 09.47.00 JOB05980  JOB PJG#VFMT NOT IN OUTPUT QUEUE
 09.47.01 JOB05980  PJG#VFMT.$$QUIET .         RC=0008 TapeIO=0000 DiskIO=0000 CPU=  .01s Elapsed=20.45s
 09.47.01 JOB05980  PJG#VFMT.$CND    .         RC=Zero TapeIO=0000 DiskIO=0003 CPU=  .01s Elapsed=21.52s
 09.47.01 JOB05980  PJG#VFMT.$UNP    .         RC=Zero TapeIO=0000 DiskIO=0028 CPU=  .05s Elapsed=21.67s
 09.47.12 JOB05980  PJG#VFMT.ASM     .         RC=Zero TapeIO=0000 DiskIO=0739 CPU= 3.01s Elapsed=22.07s
 09.47.13 JOB05980  PJG#VFMT.$EDIT   .         RC=Zero TapeIO=0000 DiskIO=0141 CPU=  .58s Elapsed=32.21s
 09.47.13 JOB05980  PJG#VFMT Ended.  Name=Module: VFMT                   Total CPU= 3.66s Elapsed=20.45s
 09.47.13 JOB05980
 09.47.13 JOB05980  Execution charges   Priority=Standard   Block=Day
 09.47.13 JOB05980
 09.47.13 JOB05980  CPU Usage          66.56          $41.26   Standard Processing Unit Equivalent
 09.47.13 JOB05980                                   =======
 09.47.13 JOB05980                                    $41.26   Total Job execution charge
 09.47.13 JOB05980
 09.47.13 JOB05980  See back separator page for print charges
 09.47.13 JOB05980
 09.47.13 JOB05980  $HASP395 PJG#VFMT ENDED  ASM=0
1        1 //PJG#VFMT JOB PJG$GG,'Module: VFMT',TIME=1,MSGCLASS=C                  JOB05980
           /*JOBPARM HOLD=OUTPUT,LINES=50,CHARS=TN15,NOTIFY=YES
         2 //       EXEC PURGEOLD
         3 XXPURGEOLD PROC
           XX*
           XX* This proc is maintained by Jim Stosick
           XX*
         4 XX$$QUIET  EXEC PGM=HCMDX,PARM='PURGE * Q=OUTPUT MULTIPLE',
           XX         ACCT=(PURGEOLD,SYS3)
         5 //$CND   EXEC PGM=BILBO,REGION=512K,PARM='RECS=100'
         6 //STEPLIB  DD DSN=WYL.GG.ORV.LINKLIB,DISP=SHR
         7 //SYSPRINT DD SYSOUT=$
         8 //SYSUT1   DD DSN=WYL.GG.PJG.OBJ,DISP=OLD
         9 //SYSUT2   DD DSN=WYL.GG.PJG.OBJ,DISP=OLD
        10 //SYSIN    DD DUMMY
        11 //$UNP   EXEC PGM=WUNPRESS,PARM='NUM'
        12 //SYSPRINT DD SYSOUT=$
        13 //SYSUT1   DD DSN=WYL.GG.ORV.SOURCE.FILEUTIL(VFMT),DISP=SHR
        14 //SYSUT2   DD DSN=&&INPUT,DISP=(,PASS),UNIT=SYSDA,
           //            SPACE=(TRK,(25,25),RLSE),DCB=CARD
        15 //ASM    EXEC PGM=ASMA90,REGION=8M,COND=(0,NE,$UNP),
           //            PARM=('SYSPARM(VFMT),TERM,LANG(EN),OBJ',
           //          'LC(32500),XREF(SHORT),NODECK,NORLD,NODX,NOUS')
           //*STEPLIB  DD DSN=SYS1.SASMMOD1,DISP=SHR
        16 //SYSLIB   DD DSN=SYS3.DUMMYMAC,DISP=SHR,DCB=BLKSIZE=27920
        17 //         DD DSN=WYL.GG.SYS.MACLIB,DISP=SHR
        18 //         DD DSN=WYL.GG.ORV.BC.MACLIB,DISP=SHR
        19 //         DD DSN=WYL.GG.ORV.MACLIB,DISP=SHR
        20 //         DD DSN=SYS3.IS.MACLIB,DISP=SHR
        21 //         DD DSN=SYS1.MACLIB,DISP=SHR
        22 //         DD DSN=SYS1.MODGEN,DISP=SHR
        23 //SYSUT1   DD DSN=&&SYSUT1,UNIT=VIO,DISP=(,DELETE),
           //            SPACE=(4088,(500,250),,CONTIG,ROUND)
        24 //SYSTERM  DD SYSOUT=$
        25 //SYSPRINT DD DSN=&&PRINT,UNIT=SYSDA,DISP=(,PASS),
           //            SPACE=(6650,(250,250),RLSE),
           //            DCB=(BLKSIZE=6650,LRECL=133,RECFM=FB)
        26 //SYSLIN   DD DSN=WYL.GG.PJG.OBJ(VFMT),DISP=OLD
        27 //SYSUDUMP DD SYSOUT=A
        28 //SYSIN    DD DSN=&&INPUT,DISP=(OLD,DELETE)
        29 //$EDIT  EXEC PGM=ASMEDIT,REGION=1M,
           //            COND=EVEN,PARM='STMT,DATA'
        30 //STEPLIB  DD DSN=WYL.GG.SYS.LINKLIB,DISP=SHR
        31 //ASMOUT   DD DSN=&&PRINT,DISP=(OLD,DELETE)
        32 //SYSPRINT DD SYSOUT=A
        33 //SYSUDUMP DD SYSOUT=A
1 STMT NO. MESSAGE
         2 IEFC001I PROCEDURE PURGEOLD WAS EXPANDED USING SYSTEM LIBRARY SYS3.BETAPROC
        14 IGD01010I STORCLAS= TEMP STORGROUP =
        14 IGD01010I STORGRP=VIO ASSIGNED.
        23 IGD01010I STORCLAS= TEMP STORGROUP =
        23 IGD01010I STORGRP=VIO ASSIGNED.
        25 IGD01010I STORCLAS= TEMP STORGROUP =
        25 IGD01010I STORGRP=VIO ASSIGNED.
 ICH70001I GG$PJG   LAST ACCESS AT 09:46:48 ON MONDAY, MARCH 22, 2004
 IEF142I PJG#VFMT $$QUIET - STEP WAS EXECUTED - COND CODE 0008
 *********************************************************************************
 *   PJG#VFMT/$$QUIET /                    Return Code      0008                 *
 *   Region used      260K (16K user + 244K system)                              *
 *   Extended region  9352K (4K user + 9348K system)                             *
 *                                                                               *
 *   Paging              In      Out                                             *
 *   Private <-> Aux      0        0       CPU time (TCB)   00:00:00.01          *
 *   Private <-> Exp      0        0       CPU time (SRB)   00:00:00.00          *
 *   VIO                  0        0       Elapsed time    920:40:52.51          *
 *   Common               0      ---                                             *
 *                                                                               *
 *                                                                               *
 *   CPU Usage          0.18         $0.11  Standard Processing Unit Equivalent  *
 *                                   $0.11  Total Step execution charge          *
 *                                                                               *
 *    I/O count  DDname   Type Addr           I/O count  DDname   Type Addr      *
 *                         *** No I/O for this step ***                          *
 *********************************************************************************
 IEF373I STEP/$$QUIET /START 2004082.0947
 IEF374I STEP/$$QUIET /STOP  2004082.0947 CPU    0MIN 00.01SEC SRB    0MIN 00.00SEC VIRT    16K SYS   244K EXT       4K SYS    9348K
 IEF236I ALLOC. FOR PJG#VFMT $CND
 IEF237I 0401 ALLOCATED TO STEPLIB
 IEF237I JES2 ALLOCATED TO SYSPRINT
 IEF237I 04DC ALLOCATED TO SYSUT1
 IEF237I 04DC ALLOCATED TO SYSUT2
 IEF237I DMY  ALLOCATED TO SYSIN
 IEF142I PJG#VFMT $CND - STEP WAS EXECUTED - COND CODE 0000
 IEF285I   WYL.GG.ORV.LINKLIB                           KEPT
 IEF285I   VOL SER NOS= SYSB01.
 IEF285I   GG$PJG.PJG#VFMT.JOB05980.D0000101.?          SYSOUT
 IEF285I   WYL.GG.PJG.OBJ                               KEPT
 IEF285I   VOL SER NOS= SYSB05.
 IEF285I   WYL.GG.PJG.OBJ                               KEPT
 IEF285I   VOL SER NOS= SYSB05.
 *********************************************************************************
 *   PJG#VFMT/$CND    /                    Return Code      Zero                 *
 *   Region used      288K (16K user + 272K system)                              *
 *   Extended region  9392K (4K user + 9388K system)                             *
 *                                                                               *
 *   Paging              In      Out                                             *
 *   Private <-> Aux      0        0       CPU time (TCB)   00:00:00.01          *
 *   Private <-> Exp      0        0       CPU time (SRB)   00:00:00.00          *
 *   VIO                  0        0       Elapsed time    920:40:51.44          *
 *   Common               0      ---                                             *
 *                                                                               *
 *                                                                               *
 *   CPU Usage          0.18         $0.11  Standard Processing Unit Equivalent  *
 *                                   $0.11  Total Step execution charge          *
 *                                                                               *
 *    I/O count  DDname   Type Addr           I/O count  DDname   Type Addr      *
 *            3  STEPLIB  Disk 0401                   0  SYSPRINT      ----      *
 *            0  SYSUT1   Disk 04DC                   0  SYSUT2   Disk 04DC      *
 *            0  SYSIN         ----                                              *
 *********************************************************************************
 IEF373I STEP/$CND    /START 2004082.0947
 IEF374I STEP/$CND    /STOP  2004082.0947 CPU    0MIN 00.01SEC SRB    0MIN 00.00SEC VIRT    16K SYS   272K EXT       4K SYS    9388K
 IEF236I ALLOC. FOR PJG#VFMT $UNP
 IEF237I JES2 ALLOCATED TO SYSPRINT
 IEF237I 0402 ALLOCATED TO SYSUT1
 IGD101I SMS ALLOCATED TO DDNAME (SYSUT2  )
         DSN (SYS04082.T094700.RA000.PJG#VFMT.INPUT.H01   )
         STORCLAS (TEMP) MGMTCLAS (        ) DATACLAS (        )
         VOL SER NOS= SCR100
 IEF142I PJG#VFMT $UNP - STEP WAS EXECUTED - COND CODE 0000
 IEF285I   GG$PJG.PJG#VFMT.JOB05980.D0000102.?          SYSOUT
 IEF285I   WYL.GG.ORV.SOURCE.FILEUTIL                   KEPT
 IEF285I   VOL SER NOS= SYSB02.
 IGD106I SYS04082.T094700.RA000.PJG#VFMT.INPUT.H01    PASSED,    DDNAME=SYSUT2
 *********************************************************************************
 *   PJG#VFMT/$UNP    /                    Return Code      Zero                 *
 *   Region used      388K (108K user + 280K system)                             *
 *   Extended region  9468K (4K user + 9464K system)                             *
 *                                                                               *
 *   Paging              In      Out                                             *
 *   Private <-> Aux      0        0       CPU time (TCB)   00:00:00.05          *
 *   Private <-> Exp      0        0       CPU time (SRB)   00:00:00.00          *
 *   VIO                  0        0       Elapsed time    920:40:51.29          *
 *   Common               0      ---                                             *
 *                                                                               *
 *                                                                               *
 *   CPU Usage          0.93         $0.57  Standard Processing Unit Equivalent  *
 *                                   $0.57  Total Step execution charge          *
 *                                                                               *
 *    I/O count  DDname   Type Addr           I/O count  DDname   Type Addr      *
 *            0  SYSPRINT      ----                   4  SYSUT1   Disk 0402      *
 *           24  SYSUT2   Disk 038B                                              *
 *********************************************************************************
 IEF373I STEP/$UNP    /START 2004082.0947
 IEF374I STEP/$UNP    /STOP  2004082.0947 CPU    0MIN 00.05SEC SRB    0MIN 00.00SEC VIRT   108K SYS   280K EXT       4K SYS    9464K
 IEF236I ALLOC. FOR PJG#VFMT ASM
 IEF237I 0402 ALLOCATED TO SYSLIB
 IEF237I 04DC ALLOCATED TO
 IEF237I 0402 ALLOCATED TO
 IEF237I 0402 ALLOCATED TO
 IEF237I 04DC ALLOCATED TO
 IEF237I 04A0 ALLOCATED TO
 IEF237I 04A0 ALLOCATED TO
 IGD101I SMS ALLOCATED TO DDNAME (SYSUT1  )
         DSN (SYS04082.T094700.RA000.PJG#VFMT.SYSUT1.H01  )
         STORCLAS (TEMP) MGMTCLAS (        ) DATACLAS (        )
         VOL SER NOS= VIO
 IEF237I JES2 ALLOCATED TO SYSTERM
 IGD101I SMS ALLOCATED TO DDNAME (SYSPRINT)
         DSN (SYS04082.T094700.RA000.PJG#VFMT.PRINT.H01   )
         STORCLAS (TEMP) MGMTCLAS (        ) DATACLAS (        )
         VOL SER NOS= SCR100
 IEF237I 04DC ALLOCATED TO SYSLIN
 IEF237I JES2 ALLOCATED TO SYSUDUMP
 IGD103I SMS ALLOCATED TO DDNAME SYSIN
 IEF142I PJG#VFMT ASM - STEP WAS EXECUTED - COND CODE 0000
 IEF285I   SYS3.DUMMYMAC                                KEPT
 IEF285I   VOL SER NOS= SYSB02.
 IEF285I   WYL.GG.SYS.MACLIB                            KEPT
 IEF285I   VOL SER NOS= SYSB05.
 IEF285I   WYL.GG.ORV.BC.MACLIB                         KEPT
 IEF285I   VOL SER NOS= SYSB02.
 IEF285I   WYL.GG.ORV.MACLIB                            KEPT
 IEF285I   VOL SER NOS= SYSB02.
 IEF285I   SYS3.IS.MACLIB                               KEPT
 IEF285I   VOL SER NOS= SYSB05.
 IEF285I   SYS1.MACLIB                                  KEPT
 IEF285I   VOL SER NOS= MVSBR9.
 IEF285I   SYS1.MODGEN                                  KEPT
 IEF285I   VOL SER NOS= MVSBR9.
 IGD105I SYS04082.T094700.RA000.PJG#VFMT.SYSUT1.H01   DELETED,   DDNAME=SYSUT1
 IEF285I   GG$PJG.PJG#VFMT.JOB05980.D0000103.?          SYSOUT
 IGD106I SYS04082.T094700.RA000.PJG#VFMT.PRINT.H01    PASSED,    DDNAME=SYSPRINT
 IEF285I   WYL.GG.PJG.OBJ                               KEPT
 IEF285I   VOL SER NOS= SYSB05.
 IEF285I   GG$PJG.PJG#VFMT.JOB05980.D0000104.?          SYSOUT
 IGD105I SYS04082.T094700.RA000.PJG#VFMT.INPUT.H01    DELETED,   DDNAME=SYSIN
 *********************************************************************************
 *   PJG#VFMT/ASM     /                    Return Code      Zero                 *
 *   Region used      8484K (8192K user + 292K system)                           *
 *   Extended region  9956K (412K user + 9544K system)                           *
 *                                                                               *
 *   Paging              In      Out                                             *
 *   Private <-> Aux      0        0       CPU time (TCB)   00:00:02.92          *
 *   Private <-> Exp      0        0       CPU time (SRB)   00:00:00.09          *
 *   VIO                  0        0       Elapsed time    920:40:50.89          *
 *   Common               0      ---                                             *
 *                                                                               *
 *                                                                               *
 *   CPU Usage         54.75        $33.94  Standard Processing Unit Equivalent  *
 *                                  $33.94  Total Step execution charge          *
 *                                                                               *
 *    I/O count  DDname   Type Addr           I/O count  DDname   Type Addr      *
 *           64  SYSLIB   Disk 0402                 166  SYSLIB   Disk 04DC      *
 *            0  SYSLIB   Disk 0402                   0  SYSLIB   Disk 0402      *
 *            0  SYSLIB   Disk 04DC                 340  SYSLIB   Disk 04A0      *
 *            0  SYSLIB   Disk 04A0                   0  SYSUT1   VIO  ----      *
 *            0  SYSTERM       ----                 138  SYSPRINT Disk 038B      *
 *            6  SYSLIN   Disk 04DC                   0  SYSUDUMP      ----      *
 *           25  SYSIN    Disk 038B                                              *
 *********************************************************************************
 IEF373I STEP/ASM     /START 2004082.0947
 IEF374I STEP/ASM     /STOP  2004082.0947 CPU    0MIN 02.92SEC SRB    0MIN 00.09SEC VIRT  8192K SYS   292K EXT     412K SYS    9544K
 IEF236I ALLOC. FOR PJG#VFMT $EDIT
 IEF237I 0402 ALLOCATED TO STEPLIB
 IGD103I SMS ALLOCATED TO DDNAME ASMOUT
 IEF237I JES2 ALLOCATED TO SYSPRINT
 IEF237I JES2 ALLOCATED TO SYSUDUMP
 IEF142I PJG#VFMT $EDIT - STEP WAS EXECUTED - COND CODE 0000
 IEF285I   WYL.GG.SYS.LINKLIB                           KEPT
 IEF285I   VOL SER NOS= SYSB02.
 IGD105I SYS04082.T094700.RA000.PJG#VFMT.PRINT.H01    DELETED,   DDNAME=ASMOUT
 IEF285I   GG$PJG.PJG#VFMT.JOB05980.D0000105.?          SYSOUT
 IEF285I   GG$PJG.PJG#VFMT.JOB05980.D0000106.?          SYSOUT
 *********************************************************************************
 *   PJG#VFMT/$EDIT   /                    Return Code      Zero                 *
 *   Region used      388K (116K user + 272K system)                             *
 *   Extended region  9476K (4K user + 9472K system)                             *
 *                                                                               *
 *   Paging              In      Out                                             *
 *   Private <-> Aux      0        0       CPU time (TCB)   00:00:00.56          *
 *   Private <-> Exp      0        0       CPU time (SRB)   00:00:00.02          *
 *   VIO                  0        0       Elapsed time    920:40:40.75          *
 *   Common               0      ---                                             *
 *                                                                               *
 *                                                                               *
 *   CPU Usage         10.50         $6.51  Standard Processing Unit Equivalent  *
 *                                   $6.51  Total Step execution charge          *
 *                                                                               *
 *    I/O count  DDname   Type Addr           I/O count  DDname   Type Addr      *
 *            2  STEPLIB  Disk 0402                 139  ASMOUT   Disk 038B      *
 *            0  SYSPRINT      ----                   0  SYSUDUMP      ----      *
 *********************************************************************************
 IEF373I STEP/$EDIT   /START 2004082.0947
 IEF374I STEP/$EDIT   /STOP  2004082.0947 CPU    0MIN 00.56SEC SRB    0MIN 00.02SEC VIRT   116K SYS   272K EXT       4K SYS    9472K
 *********************************************************************************
 *                                                                               *
 *                      S t a n f o r d   U n i v e r s i t y                    *
 *                                                                               *
 *                              *** Job Summary ***                              *
 *                                                                               *
 *   System Id      SYSB                   Input time     09:38:35  Mar 22, 2004 *
 *                                                                               *
 *   System Release SP6.1.0                Start time     09:47:00  Mar 22, 2004 *
 *                                                                               *
 *   Job name       PJG#VFMT               Stop  time     00:00:00  Mar 22, 2004 *
 *                                                                               *
 *   Account        PJG$GG                 Elapsed time  920:40:52.51            *
 *                                                                               *
 *   User Name      Module: VFMT           CPU time       00:00:03.55            *
 *                                                                               *
 *   Job class      E                      SRB Time       00:00:00.11            *
 *                                                                               *
 *********************************************************************************
 IEF375I  JOB/PJG#VFMT/START 2004082.0947
 IEF376I  JOB/PJG#VFMT/STOP  2004082.0947 CPU    0MIN 03.55SEC SRB    0MIN 00.11SEC
1Data set successfully converted from EDIT to FB format
1Assembler Done VFMT No Statements Flagged
1         High Level Assembler Option Summary                   (PTF UQ57391)                                               Page    1
-                                                                                            HLASM R4.0  2004/03/22 09.47
0  No Overriding ASMAOPT Parameters
   Overriding Parameters-  SYSPARM(VFMT),TERM,LANG(EN),OBJ,LC(32500),XREF(SHORT),NODECK,NORLD,NODX,NOUS
   No Process Statements


   Options for this Assembly
0  NOADATA
     ALIGN
   NOASA
     BATCH
     CODEPAGE(047C)
   NOCOMPAT
   NODBCS
 3 NODECK
 3 NODXREF
     ESD
   NOEXIT
     FLAG(0,ALIGN,CONT,NOIMPLEN,NOPAGE0,PUSH,RECORD,NOSUBSTR,USING0)
   NOFOLD
   NOGOFF
   NOINFO
 3   LANGUAGE(EN)
   NOLIBMAC
 3   LINECOUNT(32500)
     LIST(121)
     MXREF(SOURCE)
 3   OBJECT
     OPTABLE(UNI,NOLIST)
   NOPCONTROL
   NOPESTOP
   NOPROFILE
   NORA2
   NORENT
 3 NORLD
     RXREF
     SIZE(MAX)
 3   SYSPARM(VFMT)
 3   TERM(WIDE)
   NOTEST
     THREAD
   NOTRANSLATE
 3 NOUSING
 3   XREF(SHORT)

   No Overriding DD Names

1VFMT     External Symbol Dictionary                                                                                        Page    2
-Symbol   Type   Id     Address  Length     LD ID  Flags Alias-of                            HLASM R4.0  2004/03/22 09.47
0VFMT      SD 00000001 00000000 00001E00             01
 VFMT08    LD          00000000           00000001
 ORVFMT    LD          00000016           00000001
 CALCTRK   ER 00000002
 RETUCBA   ER 00000003
 SCINIT    ER 00000004
 SCAN      ER 00000005

1VFMT     ORVYL'S DISK FORMATTING PROGRAM                                                                                   Page    3
0Loc    Object Code    Addr1 Addr2  Stmt Lv Lineno    Source Statement                    (Asmedit 3.3)  HLASM R4.0  2004/03/22 09.47
+___    ______ ____    _____ _____  ____ __ ______    ______ _________
0                                      2       2.     ******************************************************************
                                       3       3.     *                                                                *
                                       4       4.     *      ORVYL/370  RELEASE II - CLASS I - STANFORD PROPRIETARY    *
                                       5       5.     *                                                                *
                                       6       6.     ******************************************************************
                                       7       7.     *
                                       8       8.     *
                                       9       9.     *  Modifications
                                      10      10.     *
                                      11      11.     *  PJG01 08/01/78 - Support variable length Orvyl headers for
                                      12      12.     *                   Orvyl file disks.
                                      13      13.     *                   Fix return code error in "OPENIN".
                                      14      14.     *
                                      15      15.     *  PJG02 09/23/78 - Fix return code again in "OPENIN".
                                      16      16.     *
                                      17      17.     *  SLP03 02/10/79 - Add KEYHDR option to allow disk file header
                                      18      18.     *                   to be kept in key field of record.
                                      19      19.     *
                                      20      20.     *  RAL04 07/20/79 - Change page formatting, allow headers and
                                      21      21.     *                   keyed blocks for page files
                                      22      22.     *
                                      23      23.     *  JKR05 12/05/83 - Format for tree structure catalog
                                      24      24.     *
                                      25      25.     *  RAL06 08/15/95 - Minor changes for non 2K block file systems
                                      26      26.     *                   Fix some cases of error codes not being returned
                                      27      27.     *                   Fix tracks used in DSCB
                                      28      28.     *
                                      29      29.     *  pjg07 12/16/99 - Support for 4-digit UCB's
                                      30      30.     *                   UCB's located either above/below 16M line
                                      31      31.     *                   (Oh, let's face it.  Changed the s*** out of it)
                                      32      32.     *
                                      33      33.     *
-                                     35      35.              HIBAL ,                   Enable HIBAL macro system
                                    1016      36.              REGS  ,,FSR,,,,,,WAR,RAR,(LSR,BR),IOBREG,BRR,SPR
 000000                00000 01E00  1126      37.     VFMT     CSECT ,                   Define VFMT control section
                                    1130      38.     VFMT     AMODE 24                  Insure CSECT is in 24-bit mode
                                    1131      39.     VFMT     RMODE 24                  Insure residency is below line
0                                   1133      41.              GBLC  &MODULE
                                    1134      42.              LCLA  &NUMIOB,&NUMCCW
                                    1135      43.     &MODULE  SETC  'VFMT'
                                    1136      44.     &NUMIOB  SETA  2                   Set for 2 IOB's to be generated
                                    1137      45.     &NUMCCW  SETA  64                  Reserve space for 64 CCW's
                                    1138      46.     VFMT_ST  EQU   16*1024             16K for VFMT save stack
                                    1141      49.              IDENT 08
                                    1144             +
                                    1145    01-IDENT +         ENTRY VFMT08
                                    1146             +
 000000 14E5C6D4E3F0F86B            1147    01-IDENT +VFMT08   DC    AL1(20),C'VFMT08,22MAR04,09:47'
                                    1148             +*
1VFMT     (VFMT08) (09:47) (22MAR04) ORVYL'S DISK FORMATTING PROGRAM                                                        Page    4
0Loc    Object Code    Addr1 Addr2  Stmt Lv Lineno    Source Statement           (Hibal 5, Asmedit 3.3)  HLASM R4.0  2004/03/22 09.47
+___    ______ ____    _____ _____  ____ __ ______    ______ _________
0                                   1152      52.     ¿þþþþþþþþþþþþþþþþþþþþþþþþþþþþþþþþþþþþþþþþþþþþþþþþþþþþþþþþþþþþþþþþþþþþþÜ
                                    1153      53.     Ÿ                                                                     Ÿ
                                    1154      54.     Ÿ   Function                                                          Ÿ
                                    1155      55.     Ÿ                                                                     Ÿ
                                    1156      56.     Ÿ        1.  Format Orvyl page files                                  Ÿ
                                    1157      57.     Ÿ        2.  Format Orvyl file directory                              Ÿ
                                    1158      58.     Ÿ        3.  Format Orvyl file data sets                              Ÿ
                                    1159      59.     Ÿ        4.  Restore orvyl file system from the                       Ÿ
                                    1160      60.     Ÿ            orvyl dump tapes produced by "VDMP".                     Ÿ
                                    1161      61.     Ÿ        5.  Format an Orvyl file directiory volume                   Ÿ
                                    1162      62.     Ÿ                                                                     Ÿ
                                    1163      63.     Ÿ     ********************************************************        Ÿ
                                    1164      64.     Ÿ                                                                     Ÿ
                                    1165      65.     Ÿ   Parameters                                                        Ÿ
                                    1166      66.     Ÿ                                                                     Ÿ
                                    1167      67.     Ÿ    VOLS=nn         Number of ddcards to process, a number           Ÿ
                                    1168      68.     Ÿ                    starting at 00 and incremented by 1 is           Ÿ
                                    1169      69.     Ÿ                    appended to a four character ddname stem to      Ÿ
                                    1170      70.     Ÿ                    form the ddname used for formatting or           Ÿ
                                    1171      71.     Ÿ                    restoring.                                       Ÿ
                                    1172      72.     Ÿ                                                                     Ÿ
                                    1173      73.     Ÿ    DDNAME=xxxx     Four character DD name stem to be used for       Ÿ
                                    1174      74.     Ÿ                    formatting or restore data definitions.          Ÿ
                                    1175      75.     Ÿ                                                                     Ÿ
                                    1176      76.     Ÿ    BLKSIZE=nnnn    Blocksize used for formatting, defaults          Ÿ
                                    1177      77.     Ÿ                    TO 2048 FOR ORVYL FILES AND 4096 FOR             Ÿ
                                    1178      78.     Ÿ                    page data sets.                                  Ÿ
                                    1179      79.     Ÿ                                                                     Ÿ
                                    1180      80.     Ÿ                    Note:  this may or may not                       Ÿ
                                    1181      81.     Ÿ                           equal the data set blksize which          Ÿ
                                    1182      82.     Ÿ                           includes the file header except when      Ÿ
                                    1183      83.     Ÿ                           the header is                             Ÿ
                                    1184      84.     Ÿ                           contained in the record key field.        Ÿ
                                    1185      85.     Ÿ                                                                     Ÿ
                                    1186      86.     Ÿ    (NO)FDC         Format a file directory bitmap and               Ÿ
                                    1187      87.     Ÿ                    catalog.                                         Ÿ
                                    1188      88.     Ÿ                                                                     Ÿ
                                    1189      89.     Ÿ    (NO)PAGE        Format an Orvyl page file.                       Ÿ
                                    1190      90.     Ÿ                                                                     Ÿ
                                    1191      91.     Ÿ    (NO)CYLINDER    Data set must be allocated on cylinder           Ÿ
                                    1192      92.     Ÿ                    boundaries.                                      Ÿ
                                    1193      93.     Ÿ                                                                     Ÿ
                                    1194      94.     Ÿ    CONTIGUOUS      Data set must be one extent.                     Ÿ
                                    1195      95.     Ÿ                                                                     Ÿ
                                    1196      96.     Ÿ    (NO)CNTG        Data set may have more than one extent.          Ÿ
                                    1197      97.     Ÿ                                                                     Ÿ
                                    1198      98.     Ÿ    (NO)RESTORE     Perform a restore operation,  The input          Ÿ
                                    1199      99.     Ÿ                    data is defined by the "DUMPTAPE" DD card.       Ÿ
                                    1200     100.     Ÿ                                                                     Ÿ
                                                      ¾þþþþþþþþþþþþþþþþþþþþþþþþþþþþþþþþþþþþþþþþþþþþþþþþþþþþþþþþþþþþþþþþþþþþþ»
1VFMT     (VFMT08) (09:47) (22MAR04) ORVYL'S DISK FORMATTING PROGRAM                                                        Page    5
0Loc    Object Code    Addr1 Addr2  Stmt Lv Lineno    Source Statement           (Hibal 5, Asmedit 3.3)  HLASM R4.0  2004/03/22 09.47
+___    ______ ____    _____ _____  ____ __ ______    ______ _________
0                                   1202     102.     ¿þþþþþþþþþþþþþþþþþþþþþþþþþþþþþþþþþþþþþþþþþþþþþþþþþþþþþþþþþþþþþþþþþþþþþÜ
                                    1203     103.     Ÿ                                                                     Ÿ
                                    1204     104.     Ÿ                                                                     Ÿ
                                    1205     105.     Ÿ    HDRDISK=nnn     Format or restore with an Orvyl header           Ÿ
                                    1206     106.     Ÿ                    length of NNN. default is 20 bytes.              Ÿ
                                    1207     107.     Ÿ                                                                     Ÿ
                                    1208     108.     Ÿ    (NO)KEYHDR      Format data set with keyed blocks                Ÿ
                                    1209     109.     Ÿ                    (Orvyl header is the key field)                  Ÿ
                                    1210     110.     Ÿ                                                                     Ÿ
                                    1211     111.     Ÿ    BITBLK=nnn      Format NNN blocks of bitmap                      Ÿ
                                    1212     112.     Ÿ                                                                     Ÿ
                                    1213     113.     Ÿ    FDBLK=nnn       Format NNN blocks of catalog.                    Ÿ
                                    1214     114.     Ÿ                                                                     Ÿ
                                    1215     115.     Ÿ    GROUP=gg        Supply a group code for account GG.ORV           Ÿ
                                    1216     116.     Ÿ                    which contains the catalog and bitmap files      Ÿ
                                    1217     117.     Ÿ                                                                     Ÿ
                                    1218     118.     Ÿ    ACCIX=nnn       number of bytes in account tree entry            Ÿ
                                    1219     119.     Ÿ                                                                     Ÿ
                                    1220     120.     Ÿ    FILEIX=nnn      Number of bytes in file tree entry               Ÿ
                                    1221     121.     Ÿ                                                                     Ÿ
                                    1222     122.     Ÿ                                                                     Ÿ
                                    1223     123.     Ÿ        A prefix of "NO" turns the option off.  The following        Ÿ
                                    1224     124.     Ÿ        options are defaults.                                        Ÿ
                                    1225     125.     Ÿ                                                                     Ÿ
                                    1226     126.     Ÿ        DDNAME=FILE,VOLS=1,BLKSIZE=2048,NOPAGE,NOFDC,                Ÿ
                                    1227     127.     Ÿ        NOCYL,NOCNTG,NORESTORE,HDRSIZE=20,                           Ÿ
                                    1228     128.     Ÿ        NOKEYHDR,FDBLK=2048,BITBLK=1024,GROUP=GS,                    Ÿ
                                    1229     129.     Ÿ        ACCIX=CNODA99,FILEIX=CNODF99                                 Ÿ
                                    1230     130.     Ÿ                                                                     Ÿ
                                    1231     131.     Ÿ               (CNODA99 and CNODF99 are                              Ÿ
                                    1232     132.     Ÿ               constants defined in the FSB DSECT)                   Ÿ
                                    1233     133.     Ÿ                                                                     Ÿ
                                    1234     134.     Ÿ                                                                     Ÿ
                                    1235     135.     Ÿ        The Orvyl header on tape is assumed to be 12 bytes in        Ÿ
                                    1236     136.     Ÿ        length and contain the first 12 bytes of the disk resident   Ÿ
                                    1237     137.     Ÿ        header information.                                          Ÿ
                                    1238     138.     Ÿ                                                                     Ÿ
                                                      ¾þþþþþþþþþþþþþþþþþþþþþþþþþþþþþþþþþþþþþþþþþþþþþþþþþþþþþþþþþþþþþþþþþþþþþ»
1VFMT     (VFMT08) (09:47) (22MAR04) ORVYL'S DISK FORMATTING PROGRAM                                                        Page    6
0Loc    Object Code    Addr1 Addr2  Stmt Lv Lineno    Source Statement           (Hibal 5, Asmedit 3.3)  HLASM R4.0  2004/03/22 09.47
+___    ______ ____    _____ _____  ____ __ ______    ______ _________
0                                   1240     140.     ¿þþþþþþþþþþþþþþþþþþþþþþþþþþþþþþþþþþþþþþþþþþþþþþþþþþþþþþþþþþþþþþþþþþþþþÜ
                                    1241     141.     Ÿ                                                                     Ÿ
                                    1242     142.     Ÿ  ORVFMT problem list:                                               Ÿ
                                    1243     143.     Ÿ                                                                     Ÿ
                                    1244     144.     Ÿ        1.    When formatting an existing data set which had a       Ÿ
                                    1245     145.     Ÿ              keyed header the residual keylen is not cleared        Ÿ
                                    1246     146.     Ÿ              from the FMT1 DSCB.                                    Ÿ
                                    1247     147.     Ÿ                                                                     Ÿ
                                    1248     148.     Ÿ              Fixed: 22-Dec-1999 by setting JFCNDSCB to prevent      Ÿ
                                    1249     149.     Ÿ                     merging of DSCB and LABEL fields into the JFCB. Ÿ
                                    1250     150.     Ÿ                                                                     Ÿ
                                    1251     151.     Ÿ        2.    Error check for cylinder allocation has been removed.  Ÿ
                                    1252     152.     Ÿ              Either replace code or remove SCKW options.            Ÿ
                                    1253     153.     Ÿ                                                                     Ÿ
                                    1254     154.     Ÿ        3.    Use the IBM supplied records/track calculation routine Ÿ
                                    1255     155.     Ÿ              instead of the VMSC version which is pretty old by     Ÿ
                                    1256     156.     Ÿ              now.                                                   Ÿ
                                    1257     157.     Ÿ                                                                     Ÿ
                                                      ¾þþþþþþþþþþþþþþþþþþþþþþþþþþþþþþþþþþþþþþþþþþþþþþþþþþþþþþþþþþþþþþþþþþþþþ»
1VFMT     (VFMT08) (09:47) (22MAR04) ORVYL'S DISK FORMATTING PROGRAM                                                        Page    7
0Loc    Object Code    Addr1 Addr2  Stmt Lv Lineno    Source Statement           (Hibal 5, Asmedit 3.3)  HLASM R4.0  2004/03/22 09.47
+___    ______ ____    _____ _____  ____ __ ______    ______ _________
0                                   1259     159.              COPY   FILCONST
                                    1260             =         PRINT OFF                     ERRCODE MACRO
0000016                             1277             =DIRCONST BEGIN ,                       VARIOUS AND SUNDRY CONSTANTS
                                    1282  1          =PGESZ      EQU   4096                    ORVYL PAGE SIZE
                                    1283  1          =M1AMSK     EQU   X'00FFFFFF'             Mode 1 address mask
                                    1284  1          =PGEMSK     EQU   M1AMSK-PGESZ+1          PAGE ALIGN MASK
0                                   1286  1          =GRSZ       EQU   6                       ACCOUNT LENGTH
                                    1287  1          =DIRNFER    ERRCODE FIRST=YES             CONDITION: LEAF NOT FOUND
                                    1290  1          =DIRDUPER   ERRCODE ,                     ERROR: CAN'T INS DUPLICATE LEAF
                                    1293  1          =DIRDELAC   ERRCODE ,                     ERROR: CAN'T DEL ACC W/ FILES
                                    1296  1          =DIRNTSZ    ERRCODE ,                     ERROR: INVALID ENTRY SIZE
                                    1299  1          =DIRMODLN   ERRCODE ,                     ERROR: CAN'T CH LEN W/OUT FLAG
                                    1302  1          =DIRRENAC   ERRCODE ,                     ERROR: CAN'T RENAME ACCOUNTS
                                    1305  1          =DIRNMR     ERRCODE ,                     ERROR: NO MORE ROOM IN DIR
                                    1308  1          =DIRSTOV    ERRCODE ,                     ERROR: LIST_STACK OVERFLOW
                                    1311  1          =DIRSTUF    ERRCODE ,                     ERROR: LIST_STACK UNDERFLOW
                                    1314  1          =DIRTAGER   ERRCODE ,                     ERROR: BLOCK TAG MISMATCH
                                    1317  1          =DIRBLKER   ERRCODE ,                     ERROR: BLOCK NUMBER MISMATCH
                                    1320  1          =DIRIOS     ERRCODE ,                     ERROR: NO MORE I/O SPACE
                                    1323  1          =DIRIONF    ERRCODE ,                     ERROR: I/O BUFFER NOT FOUND
                                    1326  1          =DIRNIMP    ERRCODE ,                     CONDITION: NOT IMPLEMENTED
                                    1329  1          =ACCMODE    EQU   0                       INDICATE ACCOUNT MODE
                                    1330  1          =FILEMODE   EQU   4                       INDICATE FILE MODE
                                    1331  1          =CSEQNONT   EQU   16                      SEQ ACC: NO ENTRYS IN THIS TREE
                                    1332  1          =CSEQEND    EQU   8                       SEQ ACC: NO MORE ENTRYS IN TREE
                                    1333  1          =FALLBT     EQU   X'FF'                   A BYTE OF ONES
                                    1334  1          =NIL        EQU   X'FF'                   END OF LIST INDICATOR
                                    1335  1          =CDIRIOM    EQU   X'0100'                 I/O ROUTINES ARE MODULE #1
                                    1336  1          =CDIRDGM    EQU   X'0200'                 DSKGET ROUTINE IS MODULE #2
                                    1337  1          =CDIRDFM    EQU   X'0300'                 DSKFREE ROUTINE IS MODULE #3
                                    1338  1          =CDIRBUG    EQU   X'0400'                 DIRBUG ROUTINES ARE MODULE #4
                                    1339  1          =VIOFREE    EQU   X'7FFFFF00'             CONSTANT TO FREE A BUFFER (AND)
                                    1340  1          =VIOLOCK    EQU   X'000000FF'             CONSTANT TO LOCK A BUFFER (OR)
                                    1341  1          =BITAVAIL   EQU   X'7FFFFF00'             CONSTANT TO FREE A BUFFER (AND)
                                    1342  1          =BITMOD     EQU   X'000000FF'             CONSTANT TO SET BUFFER MOD (OR)
 000016                             1343             =         END   ,                       OF VARIOUS AND SUNDRY CONSTANTS
0                                   1348     161.     *                                      DSCB, JFCB, DEB, CVT, DCBD,
                                    1349     162.              PRINT OFF                     UCB, DCE
-
 000016                00000 01E00  6195     185.     VFMT     CSECT ,
1VFMT     (VFMT08) (09:47) (22MAR04) File System Master Block                                                               Page    8
0Loc    Object Code    Addr1 Addr2  Stmt Lv Lineno    Source Statement           (Hibal 5, Asmedit 3.3)  HLASM R4.0  2004/03/22 09.47
+___    ______ ____    _____ _____  ____ __ ______    ______ _________
0                                   6198     187.              COPY   FSMB
 000000                00000 00800  6199             =FSMB     RECORD BEGIN
                                    6207  1          =*
                                    6208  1          =*  FILE SYSTEM MASTER BLOCK  (DISK RESIDENT)
                                    6209  1          =*
 000000                             6210  1          =FSMSTART   DC    0D'0'                   FILE SYSTEM BLOCK START
 000000 C7C74BE4E4E4                6211  1          =FSMOWNER   DC    CL6'GG.UUU' NOT USED ** FILE-SYSTEM MASTER ACCOUNT
0000006 00                          6213  1          =FSMOFLGS   FLAG  ,                       FILE-SYSTEM OPTIONS
 FSMOFLGS.FSMOSE   80 ONES          6217  1          =           FLAG  FSMOSE   ** NOT USED **      SECURITY ERASE
0                                   6223  1          =*
                                    6224  1          =*  FILE-SYSTEM BLOCK LIMITS
                                    6225  1          =*                AND AVAILABLE BLOCKS
                                    6226  1          =*
 000008                             6227  1          =FSMMBLK    DS    A        ** NOT USED ** MAXIMUM BLOCK ALLOCATION
 00000C                             6228  1          =FSMTBLK    DS    A        ** NOT USED ** TOTAL NUMBER OF BLOCKS
 000010                             6229  1          =FSMDBLK    DS    A        ** NOT USED ** DEFAULT BLOCK ALLOCATION
 000014                             6230  1          =FSMNAME    DS    CL8      ** NOT USED ** FILE-SYSTEM NAME
 00001C                             6231  1          =FSMSYMB    DS    CL8      ** NOT USED ** FILE-SYSTEM DATA SET NAME
 000024                             6232  1          =FSMCATSB   DS    A                       CATALOGUE STARTING BLOCK
 000028                             6233  1          =FSMCATBC   DS    A                       CATALOGUE BLOCK COUNT
 00002C                             6234  1          =FSMBITSB   DS    A                       BIT-MAP STARTING BLOCK
 000030                             6235  1          =FSMBITBC   DS    A                       BIT-MAP BLOCK COUNT
                                    6236  1          =FSML1      EQU   FSMMBLK,*-FSMMBLK,C'X'
 000034                             6237  1          =FSMDSCNT   DS    H        ** NOT USED ** DATA SETS COMPRISING SYSTEM
                                    6238  1          =*
                                    6239  1          =*
 000036                             6240  1          =FSMAUCNT   DS    X        ** NOT USED ** ALLOWED-USER ACTIVE COUNT
 000037 00                                1
 000038                             6241  1          =           CNOP   0,4
 000038                             6242  1          =FSMBALST   DS     0X
 000038                             6243  1          =FSMDSZ     DS     Y                 Size of disk block
 00003A                             6244  1          =FSMDAVA    DS     Y                 Available space per block
 00003C                             6245  1          =FSMDTAGX   DS     Y                 Offset of end tag in block
 00003E                             6246  1          =FSMNALEN   DS     Y                 Account: Length of node
 000040                             6247  1          =FSMNASPA   DS     Y                 Î Free space in node
 000042                             6248  1          =FSMTAXLN   DS     Y                 Î Maximum length of entry
 000044                             6249  1          =FSMNAMXL   DS     Y                 Î Max len of entry in node
 000046                             6250  1          =FSMNAXSP   DS     Y                 Î Max free space per node
 000048                             6251  1          =FSMNANSP   DS     Y                 Î Min free space per node
 00004A                             6252  1          =FSMNFLEN   DS     Y                 File: Length of node
 00004C                             6253  1          =FSMNFSPA   DS     Y                 Î Free space in node
 00004E                             6254  1          =FSMTFXLN   DS     Y                 Î Maximum length of entry
 000050                             6255  1          =FSMNFMXL   DS     Y                 Î Max len of entry in node
 000052                             6256  1          =FSMNFXSP   DS     Y                 Î Max free space per node
 000054                             6257  1          =FSMNFNSP   DS     Y                 Î Min free space per node
 000056                             6258  1          =FSMTXXLN   DS     Y                 Max len of extended data entry
 000058                             6259  1          =FSMLOGFR   DS     Y                 Minimum logical block count
 00005A                             6260  1          =FSMMNFRE   DS     Y                 Minimum number of free blks in Cat
                                    6261  1          =FSMBALLN   EQU    *-FSMBALST
                                    6262  1          =FSMBALX    EQU    *                 End of balance parms
 00005C 07000700                    6263  1          =           CNOP   0,8                    FORCE ALIGNMENT
0                                   6265  1          =*
                                    6266  1          =*  FILE-SYSTEM VOLUME TABLE, MAXIMUM OF 128 VOLUMES
1VFMT     (VFMT08) (09:47) (22MAR04) File System Master Block                                                               Page    9
0Loc    Object Code    Addr1 Addr2  Stmt Lv Lineno    Source Statement           (Hibal 5, Asmedit 3.3)  HLASM R4.0  2004/03/22 09.47
+___    ______ ____    _____ _____  ____ __ ______    ______ _________
0                                   6267  1          =*  IN FILE-SYSTEM
                                    6268  1          =*
 000060                00060 00500  6269  1          =           ORG   FSMSTART+1280           ORIGIN OUT
 000500                             6270  1          =FSMVOLS    DS    128CL6   ** NOT USED ** ROOM FOR 128 VOLUME SERIALS
 000800                00800 00800  6271             =         END   ,
1VFMT     (VFMT08) (09:47) (22MAR04) FSB Definition                                                                         Page   10
0Loc    Object Code    Addr1 Addr2  Stmt Lv Lineno    Source Statement           (Hibal 5, Asmedit 3.3)  HLASM R4.0  2004/03/22 09.47
+___    ______ ____    _____ _____  ____ __ ______    ______ _________
0                                   6281     189.              COPY   FSB
 000000                00000 001E0  6282             =FSB      RECORD BEGIN
                                    6290  1          =CCAT0PCT   EQU   10                      % OF FREE BLOCKS FOR WARNING
                                    6291  1          =CCAT0MIN   EQU   60                      MIN FREE BEFORE WARNING
                                    6292  1          =CCAT1PCT   EQU   5                       % OF MIN LOGICAL FREE BLOCKS
                                    6293  1          =CCAT1MIN   EQU   60                      MIN FREE LOGICAL BLOCK NUM
                                    6294  1          =CCAT2PCT   EQU   1                       % OF MIN FREE BLOCKS
                                    6295  1          =CCAT2MIN   EQU   10                      MIN FREE BLOCK NUM
                                    6296  1          =
                                    6297  1          =CNODA99    EQU   72,72,C'N'              99th percentile
                                    6298  1          =CNODF99    EQU   65,65,C'N'              Non permit len, no per, max name
                                    6299  1          =
                                    6300  1          =CFSBFLSZ   EQU   40                      MAX FIL NAME LEN(DOTS, ~"ORV.")
                                    6301  1          =CFSBNDOT   EQU   38                      MAX FIL NAME LEN(~DOTS, ~"ORV.")
                                    6302  1          =CFSBNMSZ   EQU   33                      MAX NAME LEN TO SEARCH
                                    6303  1          =CFSBDBLK   EQU   3                       3 DOUBLE WRITE BLOCKS
                                    6304  1          =CFSBSTK    EQU   7                       STACK DEPTH OF 7
                                    6305  1          =CFSBMXNT   EQU   256+41                  MAX ENTRY LENGTH
                                    6306  1          =OBLKPL     EQU   3,3,C'N'                ORVYL FILE BLOCK POINTER LEN
                                    6307  1          =BL         EQU   2,2,C'N'                BLOCK POINTER LEN
                                    6308  1          =OL         EQU   2,2,C'N'                OFFSET POINTER LEN
                                    6309  1          =PL         EQU   BL+OL,BL+OL,C'N'        TOTAL POINTER LEN
                                    6310  1          =           GBLA  &BL,&L
                                    6311  1          =&BL        SETA  L'BL
                                    6312  1          =&L         SETA  L'PL                    TOTAL POINTER LENGTH
                                    6313  1          =*
                                    6314  1          =*  FILE SYSTEM BLOCK
                                    6315  1          =*
 000000 C6E2C240                    6316  1          =FSBBID     DC    CL4'FSB'                BLOCK ID
                                    6317  1          =
 000004                             6318  1          =FSBCHAIN   DS    A                       NEXT FSB ON CHAIN
                                    6319  1          =
 000008                             6320  1          =FSBID      DS    X                       FILE-SYSTEM ID NUMBER
                                    6321  1          =
 000009 00                          6322  1          =FSBAFLGS   FLAG  ,                       FILE-SYSTEM AVAILABILITY
 FSBAFLGS.FSBANAVL 80 ONES          6326  1          =           FLAG  FSBANAVL                NOT AVAILABLE
 FSBAFLGS.FSBARO   40 ONES          6331  1          =           FLAG  FSBARO                  READ-ONLY STATUS
 FSBAFLGS.FSBINIT  20 ONES          6336  1          =           FLAG  FSBINIT                 INITIALIZATION PROCESS
 FSBAFLGS.FSBCLOSE 10 ONES          6341  1          =           FLAG  FSBCLOSE                SHUTDOWN PROCESS
 FSBAFLGS.FSBCATNI 08 ONES          6346  1          =           FLAG  FSBCATNIN               CATALOG IN NoInsert MODE
 FSBAFLGS.FSBCATNL 04 ONES          6351  1          =           FLAG  FSBCATNLM               CATALOG IN NoLenMod MODE
                                    6356  1          =
 00000A 00                          6357  1          =FSBSFLGS   FLAG  ,                       FILE-SYSTEM STATUS
 FSBSFLGS.FSBSPROD 80 ONES          6361  1          =           FLAG  FSBSPROD                PRODUCTION FILE SYSTEM
 FSBSFLGS.FSBSABRO 40 ONES          6366  1          =           FLAG  FSBSABRO                ALLOW BATCH THOUGH R/O
 FSBSFLGS.FSBSTEMP 20 ONES          6371  1          =           FLAG  FSBSTEMP                DEDICATED TO TEMP FILES
                                    6376  1          =
 00000B 00                          6377  1          =FSBOFLGS   FLAG  ,                       FILE-SYSTEM OPTIONS
 FSBOFLGS.FSBONIXR 80 ONES          6381  1          =           FLAG  FSBONIXR                NON-IXR FILES ALLOWED
 FSBOFLGS.FSBFCACH 40 ONES          6386  1          =           FLAG  FSBFCACHE               Use file block caching
 FSBOFLGS.FSBHCACH 20 ONES          6391  1          =           FLAG  FSBHCACHE               Use hiperspace caching
                                    6396  1          =
 00000C                             6397  1          =FSBFRDB    DS    A                       FIRST RDB FOR FILE-SYSTEM
 000010                             6398  1          =FSBLRDB    DS    A                       LAST RDB FOR FILE-SYSTEM
 000014                             6399  1          =FSBDDN     DS    CL4                     DDNAME
 000018                             6400  1          =FSBNAME    DS    CL8                     FILE-SYSTEM NAME
1VFMT     (VFMT08) (09:47) (22MAR04) FSB Definition                                                                         Page   11
0Loc    Object Code    Addr1 Addr2  Stmt Lv Lineno    Source Statement           (Hibal 5, Asmedit 3.3)  HLASM R4.0  2004/03/22 09.47
+___    ______ ____    _____ _____  ____ __ ______    ______ _________
0000020 C7C74BE4E4E4                6401  1          =FSBOWNER   DC    CL6'GG.UUU'             FILE-SYSTEM MASTER ACCOUNT
                                    6402  1          =
 000026                             6403  1          =           DS    XL2                     Spare
                                    6404  1          =
 000028                             6405  1          =FSBCGRI    DS    A                       Catalog general resource id
 00002C                             6406  1          =FSBRBT     DS    A                       Read Buffer Table Pointer
 000030                             6407  1          =FSBCACHE   DS    A                       Cache table pointer
 000034                             6408  1          =FSBCACHS   DS    A                       System cache table pointer
 000038                             6409  1          =           DS    A                       Spare
 00003C                             6410  1          =FSBAHFB    DS    A                       File attached hash table
 000040                             6411  1          =FSBIOP     DS    A                       File IO parm buffers
                                    6412  1          =*
                                    6413  1          =*  CATALOG MANAGEMENT AREA
                                    6414  1          =*
 000044                             6415  1          =FSBCATSB   DS    A                       CATALOGUE START BLOCK
 000048                             6416  1          =FSBCATBC   DS    A                       CATALOGUE BLOCK COUNT
                                    6417  1          =*SBBMALO DS    A   ** MOVE TO STATS ** ALLOCATION REQUESTS
                                    6418  1          =*SBBMALS DS    A   ** MOVE TO STATS ** ALLOCATION NOT CACHED
                                    6419  1          =*SBBMFRE DS    A   ** MOVE TO STATS ** BITMAP RELEASES
                                    6420  1          =*SBBMFRS DS    A   ** MOVE TO STATS ** BITMAP RELEASES - TO SYS
 00004C                             6421  1          =           DS    4A                      Available
                                    6422  1          =CFSBBL     EQU   4                       FSB BLOCK PTR LEN
                                    6423  1          =CFSBPL     EQU   8,8,C'N'                FSB POINTER LEN (BLOCK + ADDR)
                                    6424  1          =CFSBBUF    EQU   8,8,C'N'                8 CAT BLOCK BUFFERS ALLOWED
 00005C                             6425  1          =FSBBLKTOP   DS   A                       POINTS TO LAST BUFFER SLOT
 000060                             6426  1          =FSBCHKA    DS    A                       CHECK POINT BUFFER ADDRESS
 000064                             6427  1          =FSBROOTB   DS    A                       BLOCK NUMBER IN ROOT BUFFER
 000068                             6428  1          =FSBROOTA   DS    A                       | ADDRESS OF ROOT BUFFER
 00006C                             6429  1          =FSBBLK1    DS    A                       BLOCK NUMBER IN 1ST BUFFER
 000070                             6430  1          =FSBBUF1    DS    A                       | ADDRESS OF 1ST BUFFER
                                    6431  1          =&BUFLEN    SETA  (L'CFSBBUF-1)*L'CFSBPL
                                    6432  1          =           DS    &BUFLEN.X               | LEN OF REMAINING BUF SLOTS
 000074                                   1          +           DS    56X                     | LEN OF REMAINING BUF SLOTS
                                    6433  1          =*
                                    6434  1          =*  Catalog Balancing Parameters
                                    6435  1          =*
 0000AC                             6436  1          =FSBBALST   DS    0X
 0000AC                             6437  1          =FSBDSZ     DS    Y                       Size of disk block
 0000AE                             6438  1          =FSBDAVA    DS    Y                       Available space per block
 0000B0                             6439  1          =FSBDTAGX   DS    Y                       Offset of end tag in block
 0000B2                             6440  1          =FSBNALEN   DS    Y                       Account: Length of node
 0000B4                             6441  1          =FSBNASPA   DS    Y                       | Free space in node
 0000B6                             6442  1          =FSBTAXLN   DS    Y                       | Maximum length of entry
 0000B8                             6443  1          =FSBNAMXL   DS    Y                       | Max len of entry in node
 0000BA                             6444  1          =FSBNAXSP   DS    Y                       | Max free space per node
 0000BC                             6445  1          =FSBNANSP   DS    Y                       | Min free space per node
 0000BE                             6446  1          =FSBNFLEN   DS    Y                       File: Length of node
 0000C0                             6447  1          =FSBNFSPA   DS    Y                       | Free space in node
 0000C2                             6448  1          =FSBTFXLN   DS    Y                       | Maximum length of entry
 0000C4                             6449  1          =FSBNFMXL   DS    Y                       | Max len of entry in node
 0000C6                             6450  1          =FSBNFXSP   DS    Y                       | Max free space per node
 0000C8                             6451  1          =FSBNFNSP   DS    Y                       | Min free space per node
 0000CA                             6452  1          =FSBTXXLN   DS    Y                       Max len of extended data entry
 0000CC                             6453  1          =FSBLOGFR   DS    Y                       Minimum logical block count
 0000CE                             6454  1          =FSBMNFRE   DS    Y                       Min num of free blks in Cat
                                    6455  1          =FSBBALLN   EQU   *-FSBBALST
1VFMT     (VFMT08) (09:47) (22MAR04) FSB Definition                                                                         Page   12
0Loc    Object Code    Addr1 Addr2  Stmt Lv Lineno    Source Statement           (Hibal 5, Asmedit 3.3)  HLASM R4.0  2004/03/22 09.47
+___    ______ ____    _____ _____  ____ __ ______    ______ _________
0                                   6456  1          =*
                                    6457  1          =*  BITMAP MANAGEMENT AREA
                                    6458  1          =*
 0000D0                             6459  1          =FSBBMCNO   DS    Y                       SPECIFIED CNT BLK# IN AVAIL LIST
 0000D4                             6460  1          =FSBBITSB   DS    A                       BIT MAP FIRST BLOCK
 0000D8                             6461  1          =FSBBITBC   DS    A                       BIT MAP BLOCK COUNT
 0000DC                             6462  1          =FSBABLK    DS    A                       NUMBER OF AVAILABLE BLOCKS
 0000E0                             6463  1          =FSBTBLK    DS    A                       TOTAL NUMBER OF BLOCKS
 0000E4                             6464  1          =FSBDBLK    DS    A                       DEFAULT BLOCK ALLOCATION
 0000E8                             6465  1          =FSBABNL    DS    A                       AVAILABLE BLOCK NUMBER LIST
                                    6466  1          =
 0000EC                             6467  1          =FSBSMF     DS    2A                      SMF STATISTICS WORK AREA
 0000F4                             6468  1          =FSBSTATS   DS    0X
 0000F4                             6469  1          =FSBCTRD    DS    F                       CATALOG READ COUNTER
 0000F8                             6470  1          =FSBCTRRD   DS    F                       CATALOG ROOT "READ" COUNTER
 0000FC                             6471  1          =FSBCTCRD   DS    F                       CATALOG CASHED READ COUNTER
 000100                             6472  1          =FSBCTBRD   DS    F                       CATALOG BALANCE READ COUNTER
 000104                             6473  1          =FSBCTWR    DS    F                       CATALOG WRITE COUNTER
 000108                             6474  1          =FSBCTIWR   DS    F                       CATALOG INTENTIONS WRITE CNT
 00010C                             6475  1          =FSBCTBWR   DS    F                       CATALOG BALANCE WRITE COUNTER
 000110                             6476  1          =FSBCTDWR   DS    F                       CATALOG DOUBLE WRITE COUNTER
                                    6477  1          =*
                                    6478  1          =*  Total IO's and IO time
                                    6479  1          =*
 000114                             6480  1          =FSBIOCT    DS    F                   Total I/O count
 000118                             6481  1          =FSBIOTIM   DS    D                   Total I/O time
                                    6482  1          =
 000120                             6483  1          =FSBCAT4K   DS    F                   Cat io 4K buffer (2K file sys only)
                                    6484  1          =
 000124                             6485  1          =CTFILATT   DS    F                   Number of files attached
 000128                             6486  1          =CTFILATM   DS    F                   | max number attached
 00012C                             6487  1          =CTFILAUS   DS    F                   Number of user attaches
 000130                             6488  1          =CTFILAUM   DS    F                   | max number of user attaches
 000134                             6489  1          =CTFILATP   DS    F                   Number of temp files attached
 000138                             6490  1          =CTFILAPM   DS    F                   | max number of temp files attached
000013C                             6492  1          =           DS    F                   Spare
                                    6493  1          =*
                                    6494  1          =* Note: don't modify the following counters in any way unless
                                    6495  1          =*       FILECB and the routine FDOIODO are also modified.
                                    6496  1          =*
                                    6497  1          =*  File read counts from disk
                                    6498  1          =*
 000140                             6499  1          =FSBFIOCT   DS    0D                  First IO count
 000140                             6500  1          =CTREADCT   DS    0D
 000140                             6501  1          =CTMASRCT   DS    D                   Master - read counts
 000148                             6502  1          =CTCATRCT   DS    D                   Catalog - read counts
 000150                             6503  1          =CTBITRCT   DS    D                   Bitmap - read counts
 000158                             6504  1          =CTIXRRCT   DS    D                   IXR - read counts
 000160                             6505  1          =CTUSERCT   DS    D                   User  - read counts
 000168                             6506  1          =CTOTHRCT   DS    D                   Other?? - read counts
                                    6507  1          =*
                                    6508  1          =* Counter indexes - All counters are referenced with the
                                    6509  1          =* generic label and using one of the following indexes.
                                    6510  1          =*
                                    6511  1          =CTMASD     EQU   CTMASRCT-CTREADCT
1VFMT     (VFMT08) (09:47) (22MAR04) FSB Definition                                                                         Page   13
0Loc    Object Code    Addr1 Addr2  Stmt Lv Lineno    Source Statement           (Hibal 5, Asmedit 3.3)  HLASM R4.0  2004/03/22 09.47
+___    ______ ____    _____ _____  ____ __ ______    ______ _________
0                                   6512  1          =CTCATD     EQU   CTCATRCT-CTREADCT
                                    6513  1          =CTBITD     EQU   CTBITRCT-CTREADCT
                                    6514  1          =CTIXRD     EQU   CTIXRRCT-CTREADCT
                                    6515  1          =CTUSED     EQU   CTUSERCT-CTREADCT
                                    6516  1          =CTOTHD     EQU   CTOTHRCT-CTREADCT
                                    6517  1          =*
                                    6518  1          =*  File write counts
                                    6519  1          =*
 000170                             6520  1          =CTWRITCT   DS    0D
 000170                             6521  1          =CTMASWCT   DS    D                   Master - writes
 000178                             6522  1          =CTCATWCT   DS    D                   Catalog - writes
 000180                             6523  1          =CTBITWCT   DS    D                   Bitmap -  writes
 000188                             6524  1          =CTIXRWCT   DS    D                   IXR - writes
 000190                             6525  1          =CTUSEWCT   DS    D                   User -  writes
 000198                             6526  1          =CTOTHWCT   DS    D                   Other?? - writes
                                    6527  1          =FSBFIOCN   EQU   (*-FSBFIOCT)/L'FSBFIOCT
                                    6528  1          =*
                                    6529  1          =*  File read counts from cache
                                    6530  1          =*
 0001A0                             6531  1          =FSBFCACT   DS    0D                  First cache count
 0001A0                             6532  1          =CTCACHCT   DS    0D
 0001A0                             6533  1          =CTMASCCT   DS    D                   Master - read counts
 0001A8                             6534  1          =CTCATCCT   DS    D                   Catalog - read counts
 0001B0                             6535  1          =CTBITCCT   DS    D                   Bitmap - read counts
 0001B8                             6536  1          =CTIXRCCT   DS    D                   IXR - read counts
 0001C0                             6537  1          =CTUSECCT   DS    D                   User  - read counts
 0001C8                             6538  1          =CTOTHCCT   DS    D                   Other?? - read counts
                                    6539  1          =
                                    6540  1          =CTREADD    EQU   CTREADCT-FSBFIOCT
                                    6541  1          =CTWRITD    EQU   CTWRITCT-FSBFIOCT
                                    6542  1          =CTCACHD    EQU   CTCACHCT-FSBFIOCT
                                    6543  1          =
                                    6544  1          =FSBFCACN   EQU   (*-FSBFCACT)/L'FSBFCACT
                                    6545  1          =CTFILECT   EQU   CTREADCT,*-CTREADCT
                                    6546  1          =CTFILECC   EQU   (*-CTREADCT)/L'CTREADCT
00001D0                             6548  1          =           DS    4A                  Spare
00001E0                001E0 001E0  6550             =         END   ,
1VFMT     (VFMT08) (09:47) (22MAR04) Checkpoint block definition                                                            Page   14
0Loc    Object Code    Addr1 Addr2  Stmt Lv Lineno    Source Statement           (Hibal 5, Asmedit 3.3)  HLASM R4.0  2004/03/22 09.47
+___    ______ ____    _____ _____  ____ __ ______    ______ _________
0                                   6560     191.              COPY   CHKPNT
                                    6561             =         PRINT OFF                     CHKPREC MACRO
0000000                00000 00008  6586             =CHKDSTK  RECORD BEGIN                  STACK ENTRY DEFINITIONS
 000000                             6594  1          =CHKSTBK    DS    AL(BL)                  BLOCK
 000002                             6595  1          =CHKSTNO    DS    AL(OL)                  NODE OFFSET
 000004                             6596  1          =CHKSTEO    DS    AL(OL)                  ENTRY OFFSET
 000006 00                          6597  1          =CHKSTFLG   FLAG  ,                       STACK FLAGS
 CHKSTFLG.CHKSTFOL 80 ONES          6601  1          =           FLAG  CHKSTFOLD               TRUE = This node is old
 000007                             6606  1          =           DS    X                       ** AVAILABLE **
 000008                00008 00008  6607             =         END   ,                       OF STACK ENTRY DEFINITIONS
-000000                00000 00640  6617             =CHKPNT   RECORD BEGIN                  CHECKPOINT CONTROL BLOCK
                                    6625  1          =CCHKSTK    EQU   7                       STACK DEPTH OF 7
                                    6626  1          =**
 000000                             6627  1          =CHKSTART   DS    0X                      START OF CHECKPOINT BLOCK
 000000                             6628  1          =CHKTIME    DS    D                       TIME OF WRITE ("STCK")
 000008                             6629  1          =CHKDWRT    DS    AL(BL)                  1ST DOUBLE WRITE BLOCK
 00000A                             6630  1          =CHKROOTB   DS    AL(BL)                  ROOT LOCATION (BLOCK)
 00000C                             6631  1          =CHKROOTN   DS    AL(OL)                  | (OFFSET)
 00000E                             6632  1          =CHKFBNO    DS    AL(BL)                  NUMBER OF FREE BLOCKS
 000010                             6633  1          =CHKFREB    DS    AL(BL)                  FIRST FREE BLOCK ADDRESS
 000012                             6634  1          =CHKNXDB    DS    AL(BL)                  NEXT AVAILABLE DATA BLOCK
                                    6635  1          =CHKANCH    EQU   CHKFREB,*-CHKFREB,C'R'  CHAIN ANCHORS
                                    6636  1          =CHKCHAIN   EQU   CHKFBNO,*-CHKFBNO,C'R'  CHAIN DATA
 000014                             6637  1          =           DS    2A
                                    6638  1          =*
                                    6639  1          =* CHECKPOINT SEARCH BLOCK
                                    6640  1          =*
 00001C                             6641  1          =CHKSFLG    DS    0X                      START OF FLAGS
 00001C 00                          6642  1          =CHKFLG     FLAG  ,                       REENTRANT FLAGS. 1/ATOMIC ACTION
 CHKFLG.CHKFACC    80 ONES          6646  1          =           FLAG  CHKFACC                 TRUE = Acc search; FALSE = File
 CHKFLG.CHKFMOD    40 ONES          6651  1          =           FLAG  CHKFMOD                 TRUE = Intent to modify entry
 CHKFLG.CHKFPER    20 ONES          6656  1          =           FLAG  CHKFPER                 Search for permits
 CHKFLG.CHKFINS    10 ONES          6661  1          =           FLAG  CHKFINS                 Insert in progress
 CHKFLG.CHKFDEL    08 ONES          6666  1          =           FLAG  CHKFDEL                 Delete in progress
 CHKFLG.CHKFLEAF   04 ONES          6671  1          =           FLAG  CHKFLEAF                Leaf is being operated on
 CHKFLG.CHKFLFTU   02 ONES          6676  1          =           FLAG  CHKFLFTU                Left sibling needs updating
 CHKFLG.CHKFRHTU   01 ONES          6681  1          =           FLAG  CHKFRHTU                Right sibling needs updating
 00001D 00                          6686  1          =CHKFLG2    FLAG  ,
 CHKFLG2.CHKFBAL   80 ONES          6690  1          =           FLAG  CHKFBAL                 Need to balance (NODBAL)
 CHKFLG2.CHKF3BAL  40 ONES          6695  1          =           FLAG  CHKF3BAL                Min 3 nodes in balance (NODBAL)
 CHKFLG2.CHKFDSRC  20 ONES          6700  1          =           FLAG  CHKFDSRC                Delete source of move (NODBAL)
 CHKFLG2.CHKFDLXT  10 ONES          6705  1          =           FLAG  CHKFDLXT                Del extended data area (NTRYCHG)
 CHKFLG2.CHKFINXT  08 ONES          6710  1          =           FLAG  CHKFINXT                Ins extended data area (NTRYCHG)
 CHKFLG2.CHKFXTAV  04 ONES          6715  1          =           FLAG  CHKFXTAV                Ext data block avail (NTRYCHG)
 CHKFLG2.CHKFNBLK  02 ONES          6720  1          =           FLAG  CHKFNBLK                New block on traverse
                                    6725  1          =CHKFLGS    EQU   CHKSFLG,*-CHKSFLG,C'R'
 00001E                             6726  1          =           DS    AL2                     ** AVAILABLE **
 000020                             6727  1          =CHKPT      DS    0X                      SEARCH POINTERS
 000020                             6728  1          =           CHKPREC PTRS=PAR              Parent pointers
 000020                             6732  1 01-06573 +CHKPARA    DS    A                       | Buffer address
 000024                             6733  1 01-06574 +CHKPARB    DS    AL(BL)                  | Block number
 000026                             6734  1 01-06575 +CHKPARN    DS    AL(OL)                  | Offset
 000028                             6738  1          =           CHKPREC PTRS=LFT              Left sibling pointers
1VFMT     (VFMT08) (09:47) (22MAR04) Checkpoint block definition                                                            Page   15
0Loc    Object Code    Addr1 Addr2  Stmt Lv Lineno    Source Statement           (Hibal 5, Asmedit 3.3)  HLASM R4.0  2004/03/22 09.47
+___    ______ ____    _____ _____  ____ __ ______    ______ _________
0000028                             6742  1 01-06573 +CHKLFTA    DS    A                       | Buffer address
 00002C                             6743  1 01-06574 +CHKLFTB    DS    AL(BL)                  | Block number
 00002E                             6744  1 01-06575 +CHKLFTN    DS    AL(OL)                  | Offset
 000030                             6748  1          =           CHKPREC PTRS=CUR              Current sibling pointers
 000030                             6752  1 01-06573 +CHKCURA    DS    A                       | Buffer address
 000034                             6753  1 01-06574 +CHKCURB    DS    AL(BL)                  | Block number
 000036                             6754  1 01-06575 +CHKCURN    DS    AL(OL)                  | Offset
 000038                             6758  1          =           CHKPREC PTRS=RHT              Right sibling pointers
 000038                             6762  1 01-06573 +CHKRHTA    DS    A                       | Buffer address
 00003C                             6763  1 01-06574 +CHKRHTB    DS    AL(BL)                  | Block number
 00003E                             6764  1 01-06575 +CHKRHTN    DS    AL(OL)                  | Offset
                                    6768  1          =CHKSPNT    EQU   CHKPT,*-CHKPT,C'R'      LEN OF SEARCH POINTERS
 000040                             6769  1          =           CHKPREC PTRS=NT               Entry pointers
 000040                             6773  1 01-06573 +CHKNTA     DS    A                       | Buffer address
 000044                             6774  1 01-06574 +CHKNTB     DS    AL(BL)                  | Block number
 000046                             6775  1 01-06575 +CHKNTN     DS    AL(OL)                  | Offset
 000048                             6779  1          =           CHKPREC PTRS=WRK              Work pointers
 000048                             6783  1 01-06573 +CHKWRKA    DS    A                       | Buffer address
 00004C                             6784  1 01-06574 +CHKWRKB    DS    AL(BL)                  | Block number
 00004E                             6785  1 01-06575 +CHKWRKN    DS    AL(OL)                  | Offset
 000050                             6789  1          =           CHKPREC PTRS=2WR              2nd work pointers
 000050                             6793  1 01-06573 +CHK2WRA    DS    A                       | Buffer address
 000054                             6794  1 01-06574 +CHK2WRB    DS    AL(BL)                  | Block number
 000056                             6795  1 01-06575 +CHK2WRN    DS    AL(OL)                  | Offset
 000058                             6799  1          =           CHKPREC PTRS=ACC              Account entry pointers
 000058                             6803  1 01-06573 +CHKACCA    DS    A                       | Buffer address
 00005C                             6804  1 01-06574 +CHKACCB    DS    AL(BL)                  | Block number
 00005E                             6805  1 01-06575 +CHKACCN    DS    AL(OL)                  | Offset
 000060                             6809  1          =           CHKPREC PTRS=BAL              Balance-Causing pointers
 000060                             6813  1 01-06573 +CHKBALA    DS    A                       | Buffer address
 000064                             6814  1 01-06574 +CHKBALB    DS    AL(BL)                  | Block number
 000066                             6815  1 01-06575 +CHKBALN    DS    AL(OL)                  | Offset
 000068                             6819  1          =           CHKPREC PTRS=SEQ              Sequential Access pointers
 000068                             6823  1 01-06573 +CHKSEQA    DS    A                       | Buffer address
 00006C                             6824  1 01-06574 +CHKSEQB    DS    AL(BL)                  | Block number
 00006E                             6825  1 01-06575 +CHKSEQN    DS    AL(OL)                  | Offset
 000070                             6829  1          =           CHKPREC PTRS=SEQE             Sequential Access Extended ptrs
 000070                             6833  1 01-06573 +CHKSEQEA   DS    A                       | Buffer address
 000074                             6834  1 01-06574 +CHKSEQEB   DS    AL(BL)                  | Block number
 000076                             6835  1 01-06575 +CHKSEQEN   DS    AL(OL)                  | Offset
                                    6839  1          =CHKAPNT    EQU   CHKPT,*-CHKPT,C'R'      LENGTH OF POINTERS
 000078                             6840  1          =CHKCHKA    DS    A                       POINTER TO RECOVERY CHECKPOINT
 00007C                             6841  1          =CHKBSAD    DS    A                       BALANCE WORK AREA - SOURCE ADDR
 000080                             6842  1          =CHKBDAD    DS    A                       | DESTINATION ADDR
 000084                             6843  1          =CHKBLAD    DS    A                       | LEFT ADDR
 000088                             6844  1          =CHKBCAD    DS    A                       | CURRENT ADDR
 00008C                             6845  1          =CHKBRAD    DS    A                       | RIGHT ADDR
 000090                             6846  1          =CHKBLPA    DS    A                       | LEFT PARENT ADDR
 000094                             6847  1          =CHKBRPA    DS    A                       | RIGHT PARENT ADDR
 000098                             6848  1          =CHKBNPA    DS    A                       | NEW PARENT ADDR
 00009C                             6849  1          =CHKBSLN    DS    Y                       | SOURCE LEN
 00009E                             6850  1          =CHKBSN     DS    Y                       | SOURCE NUMBER OF ENTRYS
 0000A0                             6851  1          =CHKBDLN    DS    Y                       | DESTINATION LEFT LEN
 0000A2                             6852  1          =CHKBLLN    DS    Y                       | LEFT LEN
 0000A4                             6853  1          =CHKBCLN    DS    Y                       | CURRENT LEN
 0000A6                             6854  1          =CHKBRLN    DS    Y                       | RIGHT LEN
1VFMT     (VFMT08) (09:47) (22MAR04) Checkpoint block definition                                                            Page   16
0Loc    Object Code    Addr1 Addr2  Stmt Lv Lineno    Source Statement           (Hibal 5, Asmedit 3.3)  HLASM R4.0  2004/03/22 09.47
+___    ______ ____    _____ _____  ____ __ ______    ______ _________
00000A8                             6855  1          =CHKBLPL    DS    Y                       | LEFT PARENT LEN
 0000AA                             6856  1          =CHKBRPL    DS    Y                       | RIGHT PARENT LEN
 0000AC                             6857  1          =CHKBNPL    DS    Y                       | NEW PARENT LEN
 0000AE                             6858  1          =CHKSPAC    DS    Y                       | SPACE IN BALANCE
 0000B0                             6859  1          =CHKNODN    DS    Y                       | NUM OF NODES IN BALANCE
 0000B4                             6860  1          =           DS    4A
 0000C4                             6861  1          =CHKFNMSZ   DS    X                       NAME LEN
 0000C5                             6862  1          =CHKFNAME   DS    CL(CFSBNDOT)            ACTUAL NAME (NO DOTS)
 0000EB                             6863  1          =           DS    0SL2(CHKFNAME-CHKFNMSZ-1,CHKFNMSZ-(CHKFNAME-1))
 0000EB                             6864  1          =CHKFRNMS   DS    X                       RENAME LEN
 0000EC                             6865  1          =CHKFRNAM   DS    CL(CFSBNDOT)            ACTUAL RENAME (NO DOTS)
 000112                             6866  1          =           DS    0SL2(CHKFRNAM-CHKFRNMS-1,CHKFRNMS-(CHKFRNAM-1))
 000112                             6867  1          =CHKFIX     DS    0X
                                    6868  1          =*
                                    6869  1          =* VARIABLE INTENTIONS INDICATORS
                                    6870  1          =*
 000112                             6871  1          =CHKISTRT   DS    0H                      START OF INTENTIONS BLOCK
 000112                             6872  1          =CHKITYPE   DS    X                       Type of transaction taking place
 000113                             6873  1          =CHKIFLG    DS    X                       FLAG
 000114                             6874  1          =CHKIFBNO   DS    AL(BL)                  Old_Free_Block_Num
 000116                             6875  1          =CHKIFREB   DS    AL(BL)                  Old_Free_Block
 000118                             6876  1          =CHKINXDB   DS    AL(BL)                  Old_Next_Leaf_Block
                                    6877  1          =CHKICHAN   EQU   CHKIFBNO,*-CHKIFBNO,C'R'         Old_Chain_Data
 00011A                             6878  1          =CHKIVAR    DS    0X                      START OF VAR INTENTIONS FIELD
                                    6879  1          =*
                                    6880  1          =* Insert Tree Root
 00011A                0011A 0011A  6881  1          =           ORG   CHKIVAR
                                    6882  1          =CCHKRTIN   EQU   4                       TRANSACTION TYPE (Insert root)
                                    6883  1          =* Entrys are the same as Entry Insert
                                    6884  1          =*
                                    6885  1          =* Delete Tree Root
 00011A                0011A 0011A  6886  1          =           ORG   CHKIVAR
                                    6887  1          =CCHKRTDL   EQU   8                       TRANSACTION TYPE (Delete root)
                                    6888  1          =* Entrys are the same as Entry Delete
                                    6889  1          =*
                                    6890  1          =* Split Root Node
 00011A                0011A 0011A  6891  1          =           ORG   CHKIVAR
                                    6892  1          =CCHKRTSP   EQU   12                      TRANSACTION TYPE (Split root)
 00011A                             6893  1          =CHKIRSPB   DS    AL(BL)                  Root_Split-Parent_Block
 00011C                             6894  1          =CHKIRSPN   DS    AL(OL)                  Root_Split-Parent_Node_Offset
 00011E                             6895  1          =CHKIRSLB   DS    AL(BL)                  Root_Split-Left_Block
 000120                             6896  1          =CHKIRSLN   DS    AL(OL)                  Root_Split-Left_Node_Offset
 000122                             6897  1          =CHKIRSCB   DS    AL(BL)                  Root_Split-Cur_Block
 000124                             6898  1          =CHKIRSCN   DS    AL(OL)                  Root_Split-Cur_Node_Offset
                                    6899  1          =*
                                    6900  1          =* Collapse Root Node
 000126                00126 0011A  6901  1          =           ORG   CHKIVAR
                                    6902  1          =CCHKRTCL   EQU   16                      TRANSACTION TYPE (Collapse root)
 00011A                             6903  1          =CHKIRCPB   DS    AL(BL)                  Root_Collapse-Parent_Block
 00011C                             6904  1          =CHKIRCPN   DS    AL(OL)                  Root_Collapse-Parent_Node_Offset
 00011E                             6905  1          =CHKIRCLB   DS    AL(BL)                  Root_Collapse-Left_Block
 000120                             6906  1          =CHKIRCLN   DS    AL(OL)                  Root_Collapse-Left_Node_Offset
 000122                             6907  1          =CHKIRCCB   DS    AL(BL)                  Root_Collapse-Cur_Block
 000124                             6908  1          =CHKIRCCN   DS    AL(OL)                  Root_Collapse-Cur_Node_Offset
                                    6909  1          =*
                                    6910  1          =* Balance nodes (No Insert or Delete)
1VFMT     (VFMT08) (09:47) (22MAR04) Checkpoint block definition                                                            Page   17
0Loc    Object Code    Addr1 Addr2  Stmt Lv Lineno    Source Statement           (Hibal 5, Asmedit 3.3)  HLASM R4.0  2004/03/22 09.47
+___    ______ ____    _____ _____  ____ __ ______    ______ _________
0000126                00126 0011A  6911  1          =           ORG   CHKIVAR
                                    6912  1          =CCHKNBAL   EQU   20                      TRANSACTION TYPE (Balance nodes)
 00011A                             6913  1          =CHKINBPB   DS    AL(BL)                  Node_Balance-Parent_Block
 00011C                             6914  1          =CHKINBPN   DS    AL(OL)                  Node_Balance-Parent_Node_Offset
 00011E                             6915  1          =CHKINBPC   DS    XL(4-BL)                Node_Balance-Parent_Clock_Tag
 000120                             6916  1          =CHKINBLB   DS    AL(BL)                  Node_Balance-Left_Block
 000122                             6917  1          =CHKINBLN   DS    AL(OL)                  Node_Balance-Left_Node_Offset
 000124                             6918  1          =CHKINBCB   DS    AL(BL)                  Node_Balance-Current_Block
 000126                             6919  1          =CHKINBCN   DS    AL(OL)                  Node_Balance-Current_Node_Offset
 000128                             6920  1          =CHKINBRB   DS    AL(BL)                  Node_Balance-Right_Block
 00012A                             6921  1          =CHKINBRN   DS    AL(OL)                  Node_Balance-Right_Node_Offset
                                    6922  1          =*
                                    6923  1          =* Balance nodes (With Insert)
 00012C                0012C 0011A  6924  1          =           ORG   CHKIVAR
                                    6925  1          =CCHKBINS   EQU   24                      TRANSACTION TYPE (Balance - ins)
 00011A                             6926  1          =CHKIBIPB   DS    AL(BL)                  Balance_Insert-Parent_Block
 00011C                             6927  1          =CHKIBIPN   DS    AL(OL)                  Balance_Ins-Parent_Node_Offset
 00011E                             6928  1          =CHKIBIPC   DS    XL(4-BL)                Balance_Insert-Parent_Clock_Tag
 000120                             6929  1          =CHKIBILB   DS    AL(BL)                  Balance_Insert-Left_Block
 000122                             6930  1          =CHKIBILN   DS    AL(OL)                  Balance_Insert-Left_Node_Offset
 000124                             6931  1          =CHKIBICB   DS    AL(BL)                  Balance_Insert-Current_Block
 000126                             6932  1          =CHKIBICN   DS    AL(OL)                  Balance_Ins-Current_Node_Offset
 000128                             6933  1          =CHKIBIRB   DS    AL(BL)                  Balance_Insert-Right_Block
 00012A                             6934  1          =CHKIBIRN   DS    AL(OL)                  Balance_Insert-Right_Node_Offset
 00012C                             6935  1          =CHKIBIRC   DS    XL(4-BL)                Balance_Ins-Right_Clock_Tag
                                    6936  1          =*
                                    6937  1          =* Balance nodes (With Delete)
 00012E                0012E 0011A  6938  1          =           ORG   CHKIVAR
                                    6939  1          =CCHKBDEL   EQU   28                      TRANSACTION TYPE (Balance - del)
 00011A                             6940  1          =CHKIBDPB   DS    AL(BL)                  Balance_Delete-Parent_Block
 00011C                             6941  1          =CHKIBDPN   DS    AL(OL)                  Balance_Del-Parent_Node_Offset
 00011E                             6942  1          =CHKIBDPC   DS    XL(4-BL)                Balance_Delete-Parent_Clock_Tag
 000120                             6943  1          =CHKIBDLB   DS    AL(BL)                  Balance_Delete-Left_Block
 000122                             6944  1          =CHKIBDLN   DS    AL(OL)                  Balance_Delete-Left_Node_Offset
 000124                             6945  1          =CHKIBDCB   DS    AL(BL)                  Balance_Delete-Current_Block
 000126                             6946  1          =CHKIBDCN   DS    AL(OL)                  Balance_Del-Current_Node_Offset
 000128                             6947  1          =CHKIBDOB   DS    AL(BL)                  Balance_Delete-Old(Del)_Block
 00012A                             6948  1          =CHKIBDON   DS    AL(OL)                  Balance_Del-Old(Del)_Node_Offset
 00012C                             6949  1          =CHKIBDOC   DS    XL(4-BL)                Balance_Delete-Old_Clock_Tag
                                    6950  1          =*
                                    6951  1          =* Modify Entry
                                    6952  1          =*   Current, Old, and New fields should be the same for Mod, Ins, and
                                    6953  1          =* Del entry
 00012E                0012E 0011A  6954  1          =           ORG   CHKIVAR
                                    6955  1          =CCHKNTRY   EQU   32                      TRANSACTION TYPE (Entry Mods)
 00011A                             6956  1          =CHKINTCB   DS    AL(BL)                  Entry-Current_Block
 00011C                             6957  1          =CHKINTCN   DS    AL(OL)                  Entry-Current_Node_Offset
 00011E                             6958  1          =CHKINTCT   DS    AL(OL)                  Entry-Current_enTry_Offset
 000120                             6959  1          =CHKINTCL   DS    AL(BL)                  Entry-Current_Link
 000122                             6960  1          =CHKINTCC   DS    XL(4-BL)                Entry-Current_Clock_Tag
 000124                             6961  1          =CHKINTOB   DS    AL(BL)                  Entry-Old_Data_Block
 000126                             6962  1          =CHKINTON   DS    AL(OL)                  Entry-Old_Data_Offset
 000128                             6963  1          =CHKINTOL   DS    AL(BL)                  Entry-Old_Data_Block_Link
 00012A                             6964  1          =CHKINTOC   DS    XL(4-BL)                Entry-Old_Data_Clock_Tag
 00012C                             6965  1          =CHKINTOF   DS    X                       Entry-Old_Data_Block_Flags
 00012D                             6966  1          =           DS    X
1VFMT     (VFMT08) (09:47) (22MAR04) Checkpoint block definition                                                            Page   18
0Loc    Object Code    Addr1 Addr2  Stmt Lv Lineno    Source Statement           (Hibal 5, Asmedit 3.3)  HLASM R4.0  2004/03/22 09.47
+___    ______ ____    _____ _____  ____ __ ______    ______ _________
000012E                             6967  1          =CHKINTNB   DS    AL(BL)                  Entry-New_Data_Block
 000130                             6968  1          =CHKINTNN   DS    AL(OL)                  Entry-New_Data_Offset
 000132                             6969  1          =CHKINTNL   DS    AL(BL)                  Entry-New_Data_Block_Link
 000134                             6970  1          =CHKINTNC   DS    XL(4-BL)                Entry-New_Data_Clock_Tag
 000136                             6971  1          =CHKINTNF   DS    X                       Entry-New_Data_Block_Flags
                                    6972  1          =*
                                    6973  1          =* Insert Entry
                                    6974  1          =*   Current, Old, and New fields should be the same for Mod, Ins, and
                                    6975  1          =* Del entry
 000137                00137 0011A  6976  1          =           ORG   CHKIVAR
                                    6977  1          =CCHKNTIN   EQU   36                      TRANSACTION TYPE (Insert Entry)
 00011A                             6978  1          =CHKINICB   DS    AL(BL)                  Entry_Insert-Current_Block
 00011C                             6979  1          =CHKINICN   DS    AL(OL)                  Entry_Ins-Current_Node_Offset
 00011E                             6980  1          =CHKINICT   DS    AL(OL)                  Entry_Ins-Current_enTry_Offset
 000120                             6981  1          =CHKINICL   DS    AL(BL)                  Entry_Insert-Current_Link
 000122                             6982  1          =CHKINICC   DS    XL(4-BL)                Entry_Insert-Cur_Clock_Tag
 000124                             6983  1          =CHKINIOB   DS    AL(BL)                  Entry_Insert-Old_Data_Block
 000126                             6984  1          =CHKINION   DS    AL(OL)                  Entry_Insert-Old_Data_Offset
 000128                             6985  1          =CHKINIOL   DS    AL(BL)                  Entry_Insert-Old_Data_Block_Link
 00012A                             6986  1          =CHKINIOC   DS    XL(4-BL)                Entry_Insert-Old_Data_Clock_Tag
 00012C                             6987  1          =CHKINIOF   DS    X                       Entry_Ins-Old_Data_Block_Flags
 00012D                             6988  1          =           DS    X
 00012E                             6989  1          =CHKININB   DS    AL(BL)                  Entry_Insert-New_Data_Block
 000130                             6990  1          =CHKININN   DS    AL(OL)                  Entry_Insert-New_Data_Offset
 000132                             6991  1          =CHKININL   DS    AL(BL)                  Entry_Insert-New_Data_Block_Link
 000134                             6992  1          =CHKININC   DS    XL(4-BL)                Entry_Insert-New_Data_Clock_Tag
 000136                             6993  1          =CHKININF   DS    X                       Entry_Ins-New_Data_Block_Flags
 000137                             6994  1          =           DS    X
 000138                             6995  1          =CHKINIAB   DS    AL(BL)                  Entry_Ins-Acc_Entry_Blk (Files)
 00013A                             6996  1          =CHKINIAN   DS    AL(OL)                  Entry_Ins-Acc_Entry_Node_Offset|
 00013C                             6997  1          =CHKINIAC   DS    XL(4-BL)                Entry_Ins-Acc_Entry_Clock_Tag
                                    6998  1          =*
                                    6999  1          =* Delete Entry
                                    7000  1          =*   Current, Old, and New fields should be the same for Mod, Ins, and
                                    7001  1          =* Del entry
 00013E                0013E 0011A  7002  1          =           ORG   CHKIVAR
                                    7003  1          =CCHKNTDL   EQU   40                      TRANSACTION TYPE (Delete Entry)
 00011A                             7004  1          =CHKINDCB   DS    AL(BL)                  Entry_Delete-Current_Block
 00011C                             7005  1          =CHKINDCN   DS    AL(OL)                  Entry_Delete-Current_Node_Offset
 00011E                             7006  1          =CHKINDCT   DS    AL(OL)                  Entry_Del-Current_enTry_Offset
 000120                             7007  1          =CHKINDCL   DS    AL(BL)                  Entry_Delete-Current_Link
 000122                             7008  1          =CHKINDCC   DS    XL(4-BL)                Entry_Delete-Current_Clock_Tag
 000124                             7009  1          =CHKINDOB   DS    AL(BL)                  Entry_Delete-Old_Data_Block
 000126                             7010  1          =CHKINDON   DS    AL(OL)                  Entry_Delete-Old_Data_Offset
 000128                             7011  1          =CHKINDOL   DS    AL(BL)                  Entry_Del-Old_Data_Block_Link
 00012A                             7012  1          =CHKINDOC   DS    XL(4-BL)                Entry_Delete-Old_Data_Clock_Tag
 00012C                             7013  1          =CHKINDOF   DS    X                       Entry_Del-Old_Data_Block_Flags
 00012D                             7014  1          =           DS    X
 00012E                             7015  1          =CHKINDNB   DS    AL(BL)                  Entry_Delete-New_Data_Block
 000130                             7016  1          =CHKINDNN   DS    AL(OL)                  Entry_Delete-New_Data_Offset
 000132                             7017  1          =CHKINDNL   DS    AL(BL)                  Entry_Del-New_Data_Block_Link
 000134                             7018  1          =CHKINDNC   DS    XL(4-BL)                Entry_Delete-New_Data_Clock_Tag
 000136                             7019  1          =CHKINDNF   DS    X                       Entry_Del-New_Data_Block_Flags
 000137                             7020  1          =           DS    X
 000138                             7021  1          =CHKINDAB   DS    AL(BL)                  Entry_Del-Account_Entry_Block
 00013A                             7022  1          =CHKINDAN   DS    AL(OL)                  Entry_Del-Account_Entry__Offset
1VFMT     (VFMT08) (09:47) (22MAR04) Checkpoint block definition                                                            Page   19
0Loc    Object Code    Addr1 Addr2  Stmt Lv Lineno    Source Statement           (Hibal 5, Asmedit 3.3)  HLASM R4.0  2004/03/22 09.47
+___    ______ ____    _____ _____  ____ __ ______    ______ _________
000013C                             7023  1          =CHKINDAC   DS    XL(4-BL)                Entry_Delete-Account_Clock_Tag
 00013E                             7024  1          =CHKIND2B   DS    AL(BL)                  Entry_Del-2nd_Entry_Block (Leaf)
 000140                             7025  1          =CHKIND2N   DS    AL(OL)                  Entry_Del-2nd_Entry_Node_Offset
 000142                             7026  1          =CHKIND2C   DS    XL(4-BL)                Entry_Del-2nd_Entry_Clock_Tag
                                    7027  1          =**
 000144                00144 00144  7028  1          =           ORG   ,
 000144                             7029  1          =           DS    4A
                                    7030  1          =CHKIV1LN   EQU   CHKIVAR,*-CHKIVAR,C'N'
                                    7031  1          =CHKIVLV1   EQU   CHKISTRT,*-CHKISTRT,C'R'         1ST VAR INTENTIONS BLK
-000154                             7033  1          =CHKI2ST    DS    0X                      START OF 2ND LEVEL OF INTENTIONS
 000154                             7034  1          =CHKI2TYP   DS    X                       Type of transaction taking place
 000155                             7035  1          =CHKI2FLG   DS    X                       FLAG
 000156                             7036  1          =CHKI2VAR   DS    0X
                                    7037  1          =*
                                    7038  1          =* Balance leaves after non-leaf delete
                                    7039  1          =CCHKDBAL   EQU   4                       TRANSACTION TYPE (Bal after del)
 000156                             7040  1          =CHKIDBAB   DS    AL(BL)                  Delete_Balance-Account_Block
 000158                             7041  1          =CHKIDBAN   DS    AL(OL)                  Delete_Balance-Account_Offset
 00015A                             7042  1          =CHKIDBAS   DS    H                       Del_Balance-Acc_Stack_Pointer
 00015C                             7043  1          =CHKIDBSZ   DS    X                       Delete_Balance-Entry_Name_Size
 00015D                             7044  1          =CHKIDBNM   DS    CL(CFSBNDOT)            Delete_Balance-Entry_Name
 000184                             7045  1          =           DS    4A
                                    7046  1          =CHKIV2LN   EQU   CHKI2VAR,*-CHKI2VAR,C'N'
                                    7047  1          =CHKIVLV2   EQU   CHKISTRT,*-CHKISTRT,C'R'         2ND VAR INTENTIONS BLK
-000194                             7049  1          =CHKI3ST    DS    0X                      START OF 3rd LEVEL OF INTENTIONS
 000194                             7050  1          =CHKI3TYP   DS    X                       Type of transaction taking place
 000195                             7051  1          =CHKI3FLG   DS    X                       FLAG
 000196                             7052  1          =CHKI3VAR   DS    0X
                                    7053  1          =*
                                    7054  1          =* Rename entry
                                    7055  1          =CCHKREN    EQU   4                       TRANSACTION TYPE (Rename entry)
                                    7056  1          =CCHKBREN   EQU   8                       | (Backup Rename - NMR)
 000196                             7057  1          =CHKIERAB   DS    AL(BL)                  Entry_Rename-Account_Block
 000198                             7058  1          =CHKIERAN   DS    AL(OL)                  Entry_Rename-Account_Offset
 00019A                             7059  1          =CHKIERAS   DS    H                       Entry_Rename-Acc_Stack_Pointer
 00019C                             7060  1          =CHKIERCB   DS    AL(BL)                  Entry_Rename-Cur_Block
 00019E                             7061  1          =CHKIERCN   DS    AL(OL)                  Entry_Rename-Cur_Node_Offset
 0001A0                             7062  1          =CHKIERCT   DS    AL(OL)                  Entry_Rename-Cur_enTry_Offset
 0001A2 00                          7063  1          =CHKIERFL   FLAG  ,                       Entry_Rename-Flag
 CHKIERFL.RENLEAF  80 ONES          7067  1          =           FLAG  RENLEAF                 Entry_Rename-Flag-Leaf_Rename
 CHKIERFL.RENRTDL  40 ONES          7072  1          =           FLAG  RENRTDL                 Entry_Rename-Flag-Root_Delete
 0001A3                             7077  1          =CHKIEROS   DS    X                       Entry_Rename-Old_entry_Name_Size
 0001A4                             7078  1          =CHKIERON   DS    CL(CFSBNDOT)            Entry_Rename-Old_entry_Name
 0001CA                             7079  1          =           DS    0SL2(CHKIERON-CHKIEROS-1,CHKIEROS-(CHKIERON-1))
 0001CA                             7080  1          =CHKIERNS   DS    X                       Entry_Rename-New_entry_Name_Size
 0001CB                             7081  1          =CHKIERNN   DS    CL(CFSBNDOT)            Entry_Rename-New_entry_Name
 0001F1                             7082  1          =           DS    0SL2(CHKIERNN-CHKIERNS-1,CHKIERNS-(CHKIERNN-1))
 0001F4                             7083  1          =           DS    4A
                                    7084  1          =CHKIV3LN   EQU   CHKI3VAR,*-CHKI3VAR,C'N'
                                    7085  1          =CHKIVLV3   EQU   CHKISTRT,*-CHKISTRT,C'R'         3rd VAR INTENTIONS BLK
 000204                             7086  1          =           DS    0F
 000204                             7087  1          =CHKINTRY   DS    512X                    Space for largest ntry (fil/acc)
1VFMT     (VFMT08) (09:47) (22MAR04) Checkpoint block definition                                                            Page   20
0Loc    Object Code    Addr1 Addr2  Stmt Lv Lineno    Source Statement           (Hibal 5, Asmedit 3.3)  HLASM R4.0  2004/03/22 09.47
+___    ______ ____    _____ _____  ____ __ ______    ______ _________
0000404                             7088  1          =           DS                            0F
 000404                             7089  1          =CHKIRNT    DS    512X                    |
 000604                             7090  1          =           DS    0SL2(512-CFSBMXNT)
                                    7091  1          =*
                                    7092  1          =*        Tree traversal stack
                                    7093  1          =*
 000604                             7094  1          =CHKACSP    DS    H                       CUR ACCOUNT STACK POINTER
 000606                             7095  1          =CHKSTKP    DS    H                       STACK POINTER
                                    7096  1          =&CHKDST    SETA  L'CHKDSTK               | ROOM FOR 'CCHKSTK' ENTRYS
                                    7097  1          =CHKSTAK    DS    (CCHKSTK)XL(&CHKDST)    |
 000608                                   1          +CHKSTAK    DS    (CCHKSTK)XL(8)          |
 000640                00640 00640  7098             =         END   ,                       OF CHECKPOINT RECORD
1VFMT     (VFMT08) (09:47) (22MAR04) DSKBLK Definition                                                                      Page   21
0Loc    Object Code    Addr1 Addr2  Stmt Lv Lineno    Source Statement           (Hibal 5, Asmedit 3.3)  HLASM R4.0  2004/03/22 09.47
+___    ______ ____    _____ _____  ____ __ ______    ______ _________
0                                   7108     193.              COPY   DSKBLK            CONTROL BLOCK
                                    7109             =         PRINT  OFF               DSKCHN MACRO
 000000                00000 00010  7128             =DSKBLK   RECORD BEGIN
                                    7136  1          =*  NOTE: THE SIZE OF A DISK HEADER MUST EVENLY DIVIDE INTO
                                    7137  1          =*        THE SIZE OF A DISK BLOCK.
                                    7138  1          =CDSKLLIM   EQU    8,8,C'N'          MINIMUM ALLOC SIZE IN A BLOCK
                                    7139  1          =*  NOTE: THE MINIMUM ALLOC SIZE IN A BLOCK MUST EVENLY DIVIDE INTO
                                    7140  1          =*        THE SIZE OF A DISK BLOCK.
                                    7141  1          =CDSKNIL    EQU    -1                END OF LIST POINTER
                                    7142  1          =CDSKSERR   EQU    4                 NOT ENOUGH SPACE FOR DSKGET
                                    7143  1          =CDSKINER   EQU    8                 BLOCK NOT INITIALIZED ERROR
                                    7144  1          =CDSKLNER   EQU    4                 LENGTH ERROR (DSKFREE)
                                    7145  1          =CDSKADER   EQU    8                 ADDRESS ERROR (DSKFREE)
                                    7146  1          =CDSKOVER   EQU    12                OVERLAP ERROR (DSKFREE)
                                    7147  1          =**
                                    7148  1          =DSKSTART   EQU    *
 000000                             7149  1          =DSKTAG     DS     Y                 IDENT FIELD (2 RAND BYTES)
 000002                             7150  1          =DSKBNUM    DS     Y                 Î (BLK #)
 000004                             7151  1          =DSKHEAD    DSKCHN PFX=DSK
 000004                             7156  1 01-07120 +DSKSIZ     DS     H                 SIZE OF THIS BLOCK
 000006                             7157  1 01-07121 +DSKFFWD    DS     H                 FIRST FIT FORWARD POINTER
 000008                             7158  1 01-07122 +DSKFBAC    DS     H                 FIRST FIT BACKWARD POINTER
 00000A                             7161  1          =DSKFRE     DS     H                 TOTAL AVAILABLE MEMORY
 00000C                             7162  1          =DSKBLINK   DS     H                 LINK TO NEXT BLOCK
 00000E 00                          7163  1          =DSKFL      FLAG   ,                 TYPE OF BLOCK USING FLAGS
 DSKFL.DSKFINIT    80 ONES          7167  1          =           FLAG   DSKFINIT          <TRUE> = INITIALIZED
 DSKFL.DSKFMOD     40 ONES          7172  1          =           FLAG   DSKFMOD           INDICATES MODIFICATION SINCE READ
 DSKFL.DSKFDLNK    20 ONES          7177  1          =           FLAG   DSKFDLNK          IN AVALIABLE_DATA LINKED LIST
 DSKFL.DSKFDATA    10 ONES          7182  1          =           FLAG   DSKFDATA          BLOCK IS FOR EXTENDED DATA NODES
 DSKFL.DSKFSTAT    08 ONES          7187  1          =           FLAG   DSKFSTAT          USED FOR STATS
0                                   7193  1          =HLEN       EQU    0,*-DSKSTART,C'N'
                                    7194  1          =&HLEN      SETA   ((L'HLEN+L'CDSKLLIM-1)/L'CDSKLLIM)*L'CDSKLLIM
                                    7195  1          =CDSKHSIZ   EQU    &HLEN
                                          1          +CDSKHSIZ   EQU    16
000000F                0000F 00010  7197  1          =           ORG    DSKSTART+CDSKHSIZ
 000010                             7198  1          =DSKDATA    DS     0X
 000010                00010 00010  7199             =         END   ,                  OF DSKBLK RECORD
1VFMT     (VFMT08) (09:47) (22MAR04) Internal Node Definition                                                               Page   22
0Loc    Object Code    Addr1 Addr2  Stmt Lv Lineno    Source Statement           (Hibal 5, Asmedit 3.3)  HLASM R4.0  2004/03/22 09.47
+___    ______ ____    _____ _____  ____ __ ______    ______ _________
0                                   7209     195.              COPY   NODE
 000000                00000 00008  7210             =NODE     RECORD BEGIN             INTERNAL NODE RECORD
                                    7218  1          =*   Minimum space allowed in balanced node is set such that there is
                                    7219  1          =* always room for one more insert of maximum length in balanced node.
                                    7220  1          =CNODNLLN   EQU    OL+PL,,C'N'       LENGTH OF NIL ENTRY
                                    7221  1          =**
 000000                             7222  1          =NODSTRT    DS     0X
 000000                             7223  1          =NODLEN     DS     H                 NUMBER OF BYTES IN REC
 000002                             7224  1          =NODNTNUM   DS     H                 NUMBER OF ENTRYS IN NODE
 000004                             7225  1          =NODSPACE   DS     H                 NUMBER OF FREE BYTES
 000006 00                          7226  1          =NODFL      FLAG   ,
 NODFL.NODFACC     80 ONES          7230  1          =           FLAG   NODFACC           SET = ACCOUNT NODE; CLEAR = FILE
 NODFL.NODFLEAF    40 ONES          7235  1          =           FLAG   NODFLEAF          LEAF OF TREE
 NODFL.NODFTRT     20 ONES          7240  1          =           FLAG   NODFTRT           ROOT OF TREE
 NODFL.NODFFUL     10 ONES          7245  1          =           FLAG   NODFFUL           NODE IS FULL
 NODFL.NODFEMT     08 ONES          7250  1          =           FLAG   NODFEMT           NODE IS CLOSE TO EMPTY
 NODFL.NODFSTAT    04 ONES          7255  1          =           FLAG   NODFSTAT          USED FOR STATS
 NODFL.NODFAVA     02 ONES          7260  1          =           FLAG   NODFAVA **NOT USED**  NODE AVAILABLE FOR LOCKING
 NODFL.NODFLOK     01 ONES          7265  1          =           FLAG   NODFLOK **NOT USED**  NODE IS LOCKED
 000007                             7270  1          =           DS     X                 ** AVAILABLE **
 000008                             7271  1          =NODNTRYS   DS     0X                ENTRIES BEGIN HERE
 000008                00008 00008  7272             =         END    ,                 OF NODE RECORD
1VFMT     (VFMT08) (09:47) (22MAR04) File System Priveledge Flag Codes                                                      Page   23
0Loc    Object Code    Addr1 Addr2  Stmt Lv Lineno    Source Statement           (Hibal 5, Asmedit 3.3)  HLASM R4.0  2004/03/22 09.47
+___    ______ ____    _____ _____  ____ __ ______    ______ _________
0                                   7282     197.              COPY   FPC
                                    7283             =*
                                    7284             =*  FILE SYSTEM PRIVILEGE FLAG CODES
                                    7285             =*
                                    7286             =FPMIXR   EQU   X'80',,C'N'             **RESERVE** IXR MASTER IXR
                                    7287             =FPSIXR   EQU   X'40',,C'N'             **RESERVE** IXR SUPER IXR
                                    7288             =FPZIXR   EQU   X'20',,C'N'             **RESERVE** IXR HYBRID IXR
                                    7289             =FPFIXR   EQU   X'10',,C'N'             **RESERVE** IXR FIRST HYBRID
                                    7290             =FPN      EQU   X'00',,C'N'             PRIMITIVE NO-ACCESS
                                    7291             =FPR      EQU   X'01',,C'N'             PRIMITIVE READ
                                    7292             =FPA      EQU   X'02',,C'N'             PRIMITIVE APPEND
                                    7293             =FPW      EQU   X'04',,C'N'             PRIMITIVE WRITE
                                    7294             =FPE      EQU   X'08',,C'N'             PRIMITIVE EXTEND
                                    7295             =FPS      EQU   X'10',,C'N'             PRIMITIVE SHARE
                                    7296             =
                                    7297             =FRO      EQU   FPR                     READ ONLY
                                    7298             =FRW      EQU   FPR+FPA+FPW             READ & WRITE
                                    7299             =FRP      EQU   FPR+FPA                 READ & APPEND
                                    7300             =FAO      EQU   FPA                     APPEND ONLY
                                    7301             =FSHR     EQU   FPS                     SHARE ONLY
                                    7302             =FAC      EQU   FPE                     EXTEND ONLY
                                    7303             =FPALL    EQU   FRW+FPE                 ALL PRIVILEGES
                                    7304             =FPNONE   EQU   FPN                     NO-ACCESS
                                    7305             =
                                    7306             =FPREAD   EQU   FPR                     READ ONLY
                                    7307             =FPAPPEND EQU   FPA                     APPEND ONLY
                                    7308             =FPWRITE  EQU   FPW                     WRITE ONLY
                                    7309             =FPEXTEND EQU   FPE                     EXTEND
                                    7310             =FPFWRITE EQU   FPR+FPA+FPW             FULL WRITE
1VFMT     (VFMT08) (09:47) (22MAR04) File Block Header                                                                      Page   24
0Loc    Object Code    Addr1 Addr2  Stmt Lv Lineno    Source Statement           (Hibal 5, Asmedit 3.3)  HLASM R4.0  2004/03/22 09.47
+___    ______ ____    _____ _____  ____ __ ______    ______ _________
0                                   7312     199.              COPY   FBHDR
 000000                00000 00014  7313             =FBHDR    RECORD BEGIN
                                    7321  1          =*
                                    7322  1          =*  ORVYL File Block Header Field
                                    7323  1          =*
 000000                             7324  1          =FBHBLOCK   DS    AL3                     Block number in file system
 000003                             7325  1          =FBHTYPE    DS    AL1                     Block type
                                    7326  1          =
                                    7327  1          =FBHTFSMB   EQU   X'FF'                   File System Master Block
                                    7328  1          =FBHTCAT    EQU   X'80'                   Catalog
                                    7329  1          =FBHTBIT    EQU   X'40'                   Bit Map
                                    7330  1          =FBHTZIXR   EQU   X'10'                   ZIXR
                                    7331  1          =FBHTIXR    EQU   X'08'                   IXR
                                    7332  1          =FBHTSIXR   EQU   X'04'                   SIXR
                                    7333  1          =FBHTMIXR   EQU   X'02'                   MIXR
                                    7334  1          =FBHTUSER   EQU   X'01'                   User data block
                                    7335  1          =FBHTIXRT   EQU   FBHTIXR+FBHTSIXR+FBHTMIXR+FBHTZIXR
                                    7336  1          =FBHTBICA   EQU   FBHTCAT+FBHTBIT
                                    7337  1          =FBHTSYSR   EQU   FBHTIXRT+FBHTBICA
                                    7338  1          =
 000004                             7339  1          =           DS    AL2                     Reserved
 000006                             7340  1          =FBHLEN     DS    AL2                     User data length in block
 000008                             7341  1          =FBHTIME    DS    AL4                     Time (STCK) block written
                                    7342  1          =
                                    7343  1          =FBHDTLEN   EQU   *-FBHDR                 Saved header length (VDMP)
 00000C                             7344  1          =FBHAVAIL   DS    2AL4                    Available
 000014                00014 00014  7345             =         END   ,
1VFMT     (VFMT08) (09:47) (22MAR04) Entry Definition                                                                       Page   25
0Loc    Object Code    Addr1 Addr2  Stmt Lv Lineno    Source Statement           (Hibal 5, Asmedit 3.3)  HLASM R4.0  2004/03/22 09.47
+___    ______ ____    _____ _____  ____ __ ______    ______ _________
0                                   7355     201.              COPY   NTRY
 000000                00000 00020  7356             =NTRY     RECORD BEGIN
                                    7364  1          =CNTAMXL    EQU    264                MAx len of account entry
                                    7365  1          =CNTFMXL    EQU    297                Max len of account entry
 000000                             7366  1          =           DS     0S(CFSBMXNT-CNTAMXL),0S(CFSBMXNT-CNTFMXL)
                                    7367  1          =CNTAMXSZ   EQU    5                  Maximum length of account name
                                    7368  1          =CNTFMXSZ   EQU    CFSBNMSZ           Maximum length of file name
                                    7369  1          =**
 000000                             7370  1          =NTRYSTRT   DS     0X
 000000                             7371  1          =NTRYLEN    DS     AL(OL)             Total length of entry
 000002                             7372  1          =NTRYOFFB   DS     AL(BL)             Offspring pointer (block)
 000004                             7373  1          =NTRYOFFN   DS     AL(OL)             = (offset)
 000006                             7374  1          =NTRYDATB   DS     AL(BL)             Data pointer (block)
 000008                             7375  1          =NTRYDATN   DS     AL(OL)             = (offset)
 00000A                             7376  1          =NTRYVAR    DS     0X
                                    7377  1          =*
                                    7378  1          =* FILE CATALOG ACCOUNT ENTRY
                                    7379  1          =*
 00000A                             7380  1          =NTGNAME    DS    XL(CNTAMXSZ)        Account
 00000F                             7381  1          =NTGMXSP    DS    XL3                 Max space allowed for account
 000012                             7382  1          =NTGUSSP    DS    XL3                 Space already used by account
 000015                             7383  1          =NTGFLRB    DS     AL(BL)             File root pointer (block)
 000017                             7384  1          =NTGFLRN    DS     AL(OL)             = (offset)
 000019 00                          7385  1          =NTGFLG     FLAG  ,                   Permits for public
 NTGFLG.NTGFRO     01 ONES          7389  1          =           FLAG  (NTGFRO,FRO)  (PUBLIC)        READ ONLY
 NTGFLG.NTGFRW     07 ONES          7398  1          =           FLAG  (NTGFRW,FRW)  (PUBLIC)        READ & WRITE
 NTGFLG.NTGFRP     03 ONES          7407  1          =           FLAG  (NTGFRP,FRP)  (PUBLIC)        READ & APPEND
 NTGFLG.NTGFAO     02 ONES          7416  1          =           FLAG  (NTGFAO,FAO)  (PUBLIC)        APPEND ONLY
 00001A                             7425  1          =NTGMEMBR   DS    0X                  Members start here
                                    7426  1          =NTRYGR     EQU    NTRYSTRT,*-NTRYSTRT,C'R'
                                    7427  1          =
 00001A                0001A 0000A  7428  1          =           ORG    NTRYVAR
                                    7429  1          =*
                                    7430  1          =* FILE CATALOG FILE ENTRY
                                    7431  1          =*
 00000A                             7432  1          =NTFLOC     DS    XL3                 Location of file index
 00000D                             7433  1          =NTFCNT     DS    XL3                 Number of blocks (non-ixr)
 000010 00                          7434  1          =NTFCODE    FLAG  ,                   File flags
 NTFCODE.NTFCLP    80 ONES          7438  1          =           FLAG  NTFCLP              Only clp can attach this file
 NTFCODE.NTFSFORM  40 ONES          7443  1          =           FLAG  NTFSFORM            User info is format data
 NTFCODE.NTFNOCLP  20 ONES          7448  1          =           FLAG  NTFNOCLP            Clp can't change this file
 NTFCODE.NTFNIXR   10 ONES          7453  1          =           FLAG  NTFNIXR             Non-ixr file
 NTFCODE.NTFSPI    08 ONES          7458  1          =           FLAG  NTFSPI              Only spires can attach file
 NTFCODE.NTFHYBR   04 ONES          7463  1          =           FLAG  NTFHYBR             IXR/Non-IXR hybrid file type
 000011 00                          7468  1          =NTFFLGP    FLAG  ,                   Permits for public
 NTFFLGP.NTFPFRO   01 ONES          7472  1          =           FLAG  (NTFPFRO,FRO)  (PUBLIC)       READ ONLY
 NTFFLGP.NTFPFRW   07 ONES          7481  1          =           FLAG  (NTFPFRW,FRW)  (PUBLIC)       READ & WRITE
 NTFFLGP.NTFPFRP   03 ONES          7490  1          =           FLAG  (NTFPFRP,FRP)  (PUBLIC)       READ & APPEND
 NTFFLGP.NTFPFAO   02 ONES          7499  1          =           FLAG  (NTFPFAO,FAO)  (PUBLIC)       APPEND ONLY
 NTFFLGP.NTFPSHR   10 ONES          7508  1          =           FLAG  (NTFPSHR,FSHR) (PUBLIC)       SHARE ONLY
 000012 00                          7517  1          =NTFFLGO    FLAG  ,                   Permits for owner
 NTFFLGO.NTFOFRO   01 ONES          7521  1          =           FLAG  (NTFOFRO,FRO)  (OWNER)        READ ONLY
 NTFFLGO.NTFOFRW   07 ONES          7530  1          =           FLAG  (NTFOFRW,FRW)  (OWNER)        READ & WRITE
 NTFFLGO.NTFOFAO   02 ONES          7539  1          =           FLAG  (NTFOFAO,FAO)  (OWNER)        APPEND ONLY
 NTFFLGO.NTFOFRP   03 ONES          7548  1          =           FLAG  (NTFOFRP,FRP)  (OWNER)        READ & APPEND
 000013                             7557  1          =NTFCRDT    DS    XL4                 Creation date & time
1VFMT     (VFMT08) (09:47) (22MAR04) Entry Definition                                                                       Page   26
0Loc    Object Code    Addr1 Addr2  Stmt Lv Lineno    Source Statement           (Hibal 5, Asmedit 3.3)  HLASM R4.0  2004/03/22 09.47
+___    ______ ____    _____ _____  ____ __ ______    ______ _________
0000017                             7558  1          =NTFLSDT    DS    XL4                 Last reference date & time
 00001B                             7559  1          =NTFUINFO   DS    XL4                 User info - set by control 14
 00001F                             7560  1          =NTFLNMSZ   DS    X                   Length of file name
 000020                             7561  1          =NTFLNAME   DS    0X                  File name here
                                    7562  1          =NTRYFL     EQU    NTRYSTRT,*-NTRYSTRT,C'R'
                                    7563  1          =*        MEMBERS START HERE AFTER FILE NAME
 000020                00020 00020  7564             =         END   ,
-000000                00000 00002  7574             =NTRYXTND RECORD BEGIN
 000000                             7582  1          =NTRYXST    DS     0X                 Start of extended_data
 000000                             7583  1          =NTRYXLEN   DS     AL(OL)             Len of extended_data entry
                                    7584  1          =CNTXFXLN   EQU    *-NTRYXST          Fixed overhead length
 000002                             7585  1          =NTRYXPER   DS     0X                 Permits start here
 000002                00002 00002  7586             =         END    ,
0000000                00000 00007  7596             =NTRYPR   RECORD BEGIN
                                    7604  1          =*
                                    7605  1          =* FILE CATALOG PERMIT ENTRY
                                    7606  1          =*      APPENDED TO ACCOUNT AND FILE ENTRYS
                                    7607  1          =*
 000000                             7608  1          =NTPNAME    DS    XL6                     PERMIT MEMBER ACCOUNT
 000006 00                          7609  1          =NTPFLG     FLAG  ,                       PERMIT FLAGS
 NTPFLG.NTPFRO     01 ONES          7613  1          =           FLAG  (NTPFRO,FRO)                  READ ONLY
 NTPFLG.NTPFRW     07 ONES          7622  1          =           FLAG  (NTPFRW,FRW)                  READ & WRITE
 NTPFLG.NTPFRP     03 ONES          7631  1          =           FLAG  (NTPFRP,FRP)                  READ & APPEND
 NTPFLG.NTPFAO     02 ONES          7640  1          =           FLAG  (NTPFAO,FAO)                  APPEND ONLY
 NTPFLG.NTPFAC     08 ONES          7649  1          =           FLAG  (NTPFAC,FAC)                  PERMIT ACCESS
 000007                00007 00007  7658             =         END   ,
1VFMT     (VFMT08) (09:47) (22MAR04) Entry Definition                                                                       Page   27
0Loc    Object Code    Addr1 Addr2  Stmt Lv Lineno    Source Statement           (Hibal 5, Asmedit 3.3)  HLASM R4.0  2004/03/22 09.47
+___    ______ ____    _____ _____  ____ __ ______    ______ _________
0000000                00000 00240  7668     203.     IOB      RECORD BEGIN
                                    7676  1  204.                COPY  IOB
                                    7677  1          =***********************************************************************
                                    7678  1          =*                                                                     *
                                    7679  1          =*                    STANDARD SECTION OF THE IOB                      *
                                    7680  1          =*                                                                     *
                                    7681  1          =***********************************************************************
-                                         1
 000000                             7683  1          =IOBSTDRD   DS    0D
0000000                             7685  1          =IOBFLAG1   DS    B -       FLAG BYTE
                                    7686  1          =IOBDATCH   EQU   X'80' --- DATA CHAINING USED IN CHANNEL PROGRAM
                                    7687  1          =IOBCMDCH   EQU   X'40' --- COMMAND CHAINING USED IN CHANNEL PROGRAM
                                    7688  1          =IOBERRTN   EQU   X'20' --- ERROR ROUTINE IS IN CONTROL
                                    7689  1          =IOBRPSTN   EQU   X'10' --- DEVICE IS TO BE REPOSITIONED
                                    7690  1          =IOBCYCCK   EQU   X'08' --- CYCLIC REDUNDANCY CHECK NEEDED(TAPE ONLY)
                                    7691  1          =IOBFCREX   EQU   X'08' --- FETCH COMMAND RETRY EXIT (DIRECT ACCESS ONLY)
                                    7692  1          =IOBIOERR   EQU   X'04' --- I/O ERROR HAS OCCURRED
                                    7693  1          =IOBUNREL   EQU   X'02' --- THIS I/O REQUEST IS UNRELATED(NON-SEQUENTIAL)
                                    7694  1          =IOBRSTRT   EQU   X'01' --- RESTART ADDR.IN IOB TO BE USED
 000001                             7695  1          =IOBFLAG2   DS    B -       FLAG BYTE
                                    7696  1          =IOBHALT    EQU   X'80' --- HALT I/O HAS BEEN ISSUED BY SVC PURGE ROUTINE
                                    7697  1          =IOBSENSE   EQU   X'40' --- ISSUE SENSE COMMAND AFTER DEVICE END OCCURS
                                    7698  1          =IOBPURGE   EQU   X'20' --- IOB HAS BEEN PURGED *ALLOW I/O TO QUIESCE
                                    7699  1          =IOBRDHA0   EQU   X'10' --- HOME ADDRESS TO BE READ * NO SEEK NEEDED
                                    7700  1          =IOBALTTR   EQU   X'08' --- NO TEST FOR OUT-OF-EXTENT * AN ALTERNATE TRACK
                                    7701  1          =*                        IS IN USE
                                    7702  1          =IOBSKUPD   EQU   X'04' --- SEEK ADDRESS IS BEING UPDATED -CYLINDER END
                                    7703  1          =*                        OR FILE MASK VIOLATION HAS OCCURRED
                                    7704  1          =IOBSTATO   EQU   X'02' --- DEVICE END STATUS HAS BEEN ORED WITH
                                    7705  1          =*                        CHANNEL END STATUS - GRAPHICS DEVICE
                                    7706  1          =IOBPNCH    EQU   X'01' --- TURNED ON BY QSAM WHEN ERROR RECOVERY IS TO
                                    7707  1          =*                        BE PROVIDED FOR THE 2540 CARD PUNCH
 000002                             7708  1          =IOBSENS0   DS    B ------- FIRST SENSE BYTE
                                    7709  1          =IOBS0B0    EQU   X'80' --- BIT 0 (DEVICE DEPENDENT)
                                    7710  1          =IOBS0B1    EQU   X'40' --- BIT 1 (DEVICE DEPENDENT)
                                    7711  1          =IOBS0B2    EQU   X'20' --- BIT 2 (DEVICE DEPENDENT)
                                    7712  1          =IOBS0B3    EQU   X'10' --- BIT 3 (DEVICE DEPENDENT)
                                    7713  1          =IOBS0B4    EQU   X'08' --- BIT 4 (DEVICE DEPENDENT)
                                    7714  1          =IOBS0B5    EQU   X'04' --- BIT 5 (DEVICE DEPENDENT)
                                    7715  1          =IOBS0B6    EQU   X'02' --- BIT 6 (DEVICE DEPENDENT)
                                    7716  1          =IOBS0B7    EQU   X'01' --- BIT 7 (DEVICE DEPENDENT)
                                    7717  1          =IOBSNSC9   EQU   X'01' --- CHANNEL 9 SENSED IN CARRIAGE TAPE
 000003                             7718  1          =IOBSENS1   DS    B ------- SECOND SENSE BYTE
                                    7719  1          =IOBS1B0    EQU   X'80' --- BIT 0 (DEVICE DEPENDENT)
                                    7720  1          =IOBS1B1    EQU   X'40' --- BIT 1 (DEVICE DEPENDENT)
                                    7721  1          =IOBS1B2    EQU   X'20' --- BIT 2 (DEVICE DEPENDENT)
                                    7722  1          =IOBS1B3    EQU   X'10' --- BIT 3 (DEVICE DEPENDENT)
                                    7723  1          =IOBS1B4    EQU   X'08' --- BIT 4 (DEVICE DEPENDENT)
                                    7724  1          =IOBS1B5    EQU   X'04' --- BIT 5 (DEVICE DEPENDENT)
                                    7725  1          =IOBS1B6    EQU   X'02' --- BIT 6 (DEVICE DEPENDENT)
                                    7726  1          =IOBS1B7    EQU   X'01' --- BIT 7 (DEVICE DEPENDENT)
 000004                             7727  1          =IOBECBPT   DS    0A ------ ADDRESS OF ECB TO BE POSTED ON I/O COMPLETION
 000004                             7728  1          =IOBECBCC   DS    CL1 ---- COMPLETION CODE FOR THIS I/O REQUEST
1VFMT     (VFMT08) (09:47) (22MAR04) Entry Definition                                                                       Page   28
0Loc    Object Code    Addr1 Addr2  Stmt Lv Lineno    Source Statement           (Hibal 5, Asmedit 3.3)  HLASM R4.0  2004/03/22 09.47
+___    ______ ____    _____ _____  ____ __ ______    ______ _________
0000005                             7729  1          =IOBECBPB   DS    AL3 ----- ADDRESS OF ECB TO BE POSTED ON I/O COMPLETION
 000008                             7730  1          =IOBFLAG3   DS    B ------- ERROR ROUTINE FLAG BYTE
 000009                             7731  1          =IOBCSW     DS    CL7 ----- LOW ORDER 7 BYTES OF CSW AT CHANNEL END
 000010                             7732  1          =IOBSTART   DS    0A ------ ADDRESS OF CHANNEL PROGRAM
 000010                             7733  1          =IOBSIOCC   DS    B ------- BITS 2 AND 3 = C.C. FROM SIO
 000011                             7734  1          =IOBSTRTB   DS    AL3 ----- ADDRESS OF CHANNEL PROGRAM
 000014                             7735  1          =IOBDCBPT   DS    0A ------ ADDRESS OF DATA CONTROL BLOCK FOR THIS IOB
 000014                             7736  1          =IOBRSV36   DS    XL1 ----- RESERVED
 000015                             7737  1          =IOBDCBPB   DS    AL3 ----- ADDRESS OF DATA CONTROL BLOCK FOR THIS IOB
 000018                             7738  1          =IOBRESTR   DS    0A ------ RESTART ADDRESS FOR ERROR RETRY
 000018                             7739  1          =IOBREPOS   DS    CL1 ----- CODE USED TO REPOSITION DEVICE
 000019                             7740  1          =IOBRSTRB   DS    AL3 ----- RESTART ADDRESS FOR ERROR RETRY
 00001C                             7741  1          =IOBINCAM   DS    0H ------ VALUE USED TO INCREMENT BLOCK COUNT ON TAPE
 00001C                             7742  1          =IOBBTAMF   DS    B ------- FLAG BYTE FOR BTAM
                                    7743  1          =IOBPRMER   EQU   X'80' --- 'SAD','ENABLE' ISSUED BY OPEN CAUSED I/O ERROR
                                    7744  1          =IOBINUSE   EQU   X'40' --- IOB IS IN USE
                                    7745  1          =IOBRSV14   EQU   X'20',,C'X' RESERVED
                                    7746  1          =IOBRSV15   EQU   X'10',,C'X' RESERVED
                                    7747  1          =IOBRSV16   EQU   X'08',,C'X' RESERVED
                                    7748  1          =IOBRSV17   EQU   X'04',,C'X' RESERVED
                                    7749  1          =IOBRFTMG   EQU   X'02' --- INDICATES A REQUEST-FOR-TEST MESSAGE FROM A
                                    7750  1          =*                        REMOTE 3270                             ICB478
                                    7751  1          =IOBOLTST   EQU   X'01' --- LINE IS UNDER ON-LINE TEST OPERATION
 00001D                             7752  1          =IOBRSV19   DS    XL1 ----- RESERVED
000001E                0001E 0001C  7754  1          =           ORG   IOBINCAM
 00001C                             7755  1          =IOBCRDCC   DS    CL1 ----- OPTICAL READER: DATA CHECK ERROR COUNT
 00001D                             7756  1          =IOBCRILC   DS    CL1 ----- OPTICAL READER: INCORRECT LENGTH ERROR COUNT
-00001E                             7758  1          =IOBERRCT   DS    H ------- NUMBER OF ERROR RETRIES
-                                         1
                                    7760  1          =***********************************************************************
                                    7761  1          =*                                                                     *
                                    7762  1          =*                   EXTENSION SECTIONS OF THE IOB                     *
                                    7763  1          =*                                                                     *
                                    7764  1          =***********************************************************************
0000020                             7766  1          =IOBEXTEN   DS    0D
0                                   7768  1          =*                            ******************************************
                                    7769  1          =*                            *                                        *
                                    7770  1          =*                            *  DIRECT ACCESS EXTENSION ** 16 BYTES   *
                                    7771  1          =*                            *                                        *
                                    7772  1          =*                            ******************************************
0000020                             7774  1          =IOBSEEK    DS    0CL8 ----
 000020                             7775  1          =IOBM       DS    CL1 ----- RELATIVE EXTENT NUMBER FOR THIS REQUEST(0-15)
 000021                             7776  1          =IOBBB      DS    0CL2 ---- BIN NUMBER(DATA CELL)
 000021                             7777  1          =IOBBB1     DS    CL1
 000022                             7778  1          =IOBBB2     DS    CL1
 000023                             7779  1          =IOBCC      DS    0CL2 ---- CYLINDER NUMBER
 000023                             7780  1          =IOBCC1     DS    CL1
 000024                             7781  1          =IOBCC2     DS    CL1
1VFMT     (VFMT08) (09:47) (22MAR04) Entry Definition                                                                       Page   29
0Loc    Object Code    Addr1 Addr2  Stmt Lv Lineno    Source Statement           (Hibal 5, Asmedit 3.3)  HLASM R4.0  2004/03/22 09.47
+___    ______ ____    _____ _____  ____ __ ______    ______ _________
0000025                             7782  1          =IOBHH      DS    0CL2 ---- TRACK NUMBER
 000025                             7783  1          =IOBHH1     DS    CL1
 000026                             7784  1          =IOBHH2     DS    CL1
 000027                             7785  1          =IOBR       DS    CL1 ----- RECORD NUMBER
                                    7786  1          =IOBAREA    EQU   IOBSTDRD,*-IOBSTDRD,C'R'         LENGTH OF IOB
                                    7787  1  205.     IOBSTSZE   EQU   *-IOBSTDRD              LENGTH OF ACTUAL IOB
-                                   7789  1  207.     ¿þþþþþþþþþþþþþþþþþþþþþþþþþþþþþþþþþþþþþþþþþþþþþþþþþþþþþþþþþþþþþþþþþþþþþÜ
                                    7790  1  208.     Ÿ   Define IOB extensions for VFMT                                    Ÿ
                                    7791  1  209.     Ÿ                                                                     Ÿ
                                          1           ¾þþþþþþþþþþþþþþþþþþþþþþþþþþþþþþþþþþþþþþþþþþþþþþþþþþþþþþþþþþþþþþþþþþþþþ»
0000028                             7793  1  211.     ECB        DS    F                       ECB FOR CURRENT IOB
 00002C                             7794  1  212.     BUFLEN     DS    F                       BUFFER LENGTH
 000030                             7795  1  213.     BUFADD     DS    F                       BUFFER ADDRESS
 000034                             7796  1  214.     IOBSECT    DS    X                       SECTOR NUMBER
 000035 00                          7797  1  215.     IOBRAL     FLAG  ,
 IOBRAL.IOBACT     80 ONES          7801  1  216.                FLAG  IOBACT                  I/O STARTED ON THIS IOB
 000036                             7806  1  217.                DS    XL2                     FILLLER VALUE
 000038                             7807  1  218.     IOBNEXT    DS    F                       IOB CHAIN POINTER
                                    7808  1  219.     CCWCHAIN   DS    &NUMCCW.D               CCW CHAIN
 000040                                   1  219.    +CCWCHAIN   DS    64D                     CCW CHAIN
0000240                00240 00240  7810     221.              END   ,
1VFMT     (VFMT08) (09:47) (22MAR04) Entry Definition                                                                       Page   30
0Loc    Object Code    Addr1 Addr2  Stmt Lv Lineno    Source Statement           (Hibal 5, Asmedit 3.3)  HLASM R4.0  2004/03/22 09.47
+___    ______ ____    _____ _____  ____ __ ______    ______ _________
0                                   7820     223.     ¿þþþþþþþþþþþþþþþþþþþþþþþþþþþþþþþþþþþþþþþþþþþþþþþþþþþþþþþþþþþþþþþþþþþþþÜ
                                    7821     224.     Ÿ                                                                     Ÿ
                                    7822     225.     Ÿ  Define CCW command format                                          Ÿ
                                    7823     226.     Ÿ                                                                     Ÿ
                                                      ¾þþþþþþþþþþþþþþþþþþþþþþþþþþþþþþþþþþþþþþþþþþþþþþþþþþþþþþþþþþþþþþþþþþþþþ»
-000000                00000 00008  7825     228.     CCW      RECORD BEGIN
 000000                             7833  1  229.     CCWADDR    DS    0F                  CCW DATA ADDRESS
 000000                             7834  1  230.     CCWOPCDE   DS    X                   CCW OPERATION CODE
 000001                             7835  1  231.     CCWADDR3   DS    AL3                 CCW DATA ADDRESS
 000004 00                          7836  1  232.     CCWFLAGS   FLAG  ,                   CCW flags
 CCWFLAGS.CCWFDCH  80 ONES          7840  1  233.                FLAG  CCWFDCH                 Data chainning
 CCWFLAGS.CCWFCCH  40 ONES          7845  1  234.                FLAG  CCWFCCH                 Command chainning
 CCWFLAGS.CCWFSLI  20 ONES          7850  1  235.                FLAG  CCWFSLI                 Suppress incorrect len
 CCWFLAGS.CCWFSKIP 10 ONES          7855  1  236.                FLAG  CCWFSKIP                Suppress data transfer
 CCWFLAGS.CCWFPCI  08 ONES          7860  1  237.                FLAG  CCWFPCI                 Programmed control int.
 CCWFLAGS.CCWFRSV5 04 ONES          7865  1  238.                FLAG  CCWFRSV5                Reserved
 CCWFLAGS.CCWFRSV6 02 ONES          7870  1  239.                FLAG  CCWFRSV6                Reserved
 CCWFLAGS.CCWFRSV7 01 ONES          7875  1  240.                FLAG  CCWFRSV7                Reserved
 000005                             7880  1  241.     CCWRSVD    DS    X                   CCW Reserved
 000006                             7881  1  242.     CCWLEN     DS    H                   CCW Data length
0                                   7883  1  244.     CCWNEXT    EQU   *                   Start of next CCW in chain
0                                   7885  1  246.     ¿þþþþþþþþþþþþþþþþþþþþþþþþþþþþþþþþþþþþþþþþþþþþþþþþþþþþþþþþþþþþþþþþþþþþþÜ
                                    7886  1  247.     Ÿ                                                                     Ÿ
                                    7887  1  248.     Ÿ   Define CCW operation codes                                        Ÿ
                                    7888  1  249.     Ÿ                                                                     Ÿ
                                          1           ¾þþþþþþþþþþþþþþþþþþþþþþþþþþþþþþþþþþþþþþþþþþþþþþþþþþþþþþþþþþþþþþþþþþþþþ»
0                                   7890  1  251.     CCWCMT     EQU   X'80'               Multi-track bit
                                    7891  1  252.     CCWCSID    EQU   X'31'               Search id equal
                                    7892  1  253.     CCWCSS     EQU   X'23'               Set sector
                                    7893  1  254.     CCWCWR     EQU   X'05'               Write data
                                    7894  1  255.     CCWCWRF    EQU   X'1D'               Write count, key and data
                                    7895  1  256.     CCWCRD     EQU   X'06'               Read data
                                    7896  1  257.     CCWCRDS    EQU   X'22'               Read sector
                                    7897  1  258.     CCWCNOP    EQU   X'03'               No operation
                                    7898  1  259.     CCWCTIC    EQU   X'08'               Transfer in channel
                                    7899  1  260.     CCWCSHA    EQU   X'39'               Search home address
0000008                00008 00008  7901     262.              END   ,
1VFMT     (VFMT08) (09:47) (22MAR04) Global Data Block                                                                      Page   31
0Loc    Object Code    Addr1 Addr2  Stmt Lv Lineno    Source Statement           (Hibal 5, Asmedit 3.3)  HLASM R4.0  2004/03/22 09.47
+___    ______ ____    _____ _____  ____ __ ______    ______ _________
0                                   7912     265.     ¿þþþþþþþþþþþþþþþþþþþþþþþþþþþþþþþþþþþþþþþþþþþþþþþþþþþþþþþþþþþþþþþþþþþþþÜ
                                    7913     266.     Ÿ                                                                     Ÿ
                                    7914     267.     Ÿ   Globally addressability data segment                              Ÿ
                                    7915     268.     Ÿ                                                                     Ÿ
                                                      ¾þþþþþþþþþþþþþþþþþþþþþþþþþþþþþþþþþþþþþþþþþþþþþþþþþþþþþþþþþþþþþþþþþþþþþ»
-000016                00000 01E00  7917     270.     VFMT     CSECT  ,
 000357                00357 01E00  7919     271.              DATA  BEGIN
 000357 00                                1
 000358                             7924  1  272.     DATASEG    DC    0D'0'               Define start of data
 000358 0000000000000000            7925  1  273.     DEC        DC    D'0'                Conversion work area
 000360 4040404040404040            7926  1  274.     WORK       DC    CL32' '             Work string
 000380 00000000                    7927  1  275.     RETCDE     DC    A(0)                Return code from orvfmt
 000384 00000000                    7928  1  276.     RETPTR     DC    A(0)                Address of original vs save area
 000388 00000000                    7929  1  277.     EXECPTR    DC    A(0)                Address of EXEC parameters
 00038C 0000000000000000            7930  1  278.     SVA        DC    128A(0)             Save stack address for VFMT
 00058C 00000000                    7931  1  279.     INCBUFR    DC    A(0)                Address of incremental buffer
 000590 00000000                    7932  1  280.     STRTBLK    DC    A(0)                Starting restore block number
 000594 00000000                    7933  1  281.     TRACKS     DC    F'0'                Tracks in data set
 000598 00000000                    7934  1  282.     BLKTOT     DC    F'0'                Total blocks read
 00059C 00000000                    7935  1  283.     FILTOT     DC    F'0'                File total blocks
 0005A0 00000000                    7936  1  284.     CURNTRK    DC    F'0'                Current track value
 0005A4 0000000000000000            7937  1  285.     TRBAL      DC    2A(0)               Track balance
                                    7938  1  286.     RPT        EQU   TRBAL+4,4           Records per track
00005AC 00000000                    7940  1  288.     FDPAGE     DC    A(0)                Current page
 0005B0 00000800                    7941  1  289.     FDBLKS     DC    A(2048)             Number of file catalog blks
 0005B4 00000400                    7942  1  290.     BITBLKS    DC    A(1024)             Number of bit map blocks
 0005B8 00000000                    7943  1  291.     FDIBBLK    DC     A(0)               Relative cat block number
                                    7944  1  292.
 0005BC 0800                        7945  1  293.     BLOCKSIZ   DC    AL2(2048)           Default Orvyl data length
 0005BE 0001                        7946  1  294.     LASTVOL    DC    H'1'                Default last volume number
 0005C0 0000                        7947  1  295.     CURVOL     DC    H'0'                Current volume number
 0005C2 0014                        7948  1  296.     FLHDR      DC    AL2(L'FBHDR)        File header length
                                          1                            ¿þþþþþþþþþþþþþþþþþþþþþþþþþþþþþþþþþþþþþþþþþþþþþþþþþþþþÜ
                                    7949  1  297.                      Ÿ  The VERY old tape header value was eight bytes    Ÿ
                                    7950  1  298.                      Ÿ  before incremental dumps added the STCK value.    Ÿ
                                    7951  1  299.                      Ÿ  The value for DTHDR will be modified to 12 bytes  Ÿ
                                    7952  1  300.                      Ÿ  in the restore tape open routine.                 Ÿ
                                          1                            ¾þþþþþþþþþþþþþþþþþþþþþþþþþþþþþþþþþþþþþþþþþþþþþþþþþþþþ»
 0005C4 0008                        7953  1  301.     DTHDR      DC    H'8'                Tape header length (Old value)
00005C6 0000                        7955  1  303.     CALCWORK   DC    AL2(0)
 0005C8 0080C0E0F0F8FCFE            7956  1  304.     EXBITS     DC    X'0080C0E0F0F8FCFEFF'
1VFMT     (VFMT08) (09:47) (22MAR04) Global Data Block                                                                      Page   32
0Loc    Object Code    Addr1 Addr2  Stmt Lv Lineno    Source Statement           (Hibal 5, Asmedit 3.3)  HLASM R4.0  2004/03/22 09.47
+___    ______ ____    _____ _____  ____ __ ______    ______ _________
00005D1 00                          7958  1  306.     PFL        FLAG  ,
 PFL.PFLFDC        80 ONES          7962  1  307.                FLAG  PFLFDC              Do file dir formatting
 PFL.PFLPAGE       40 ONES          7967  1  308.                FLAG  PFLPAGE             Do orvyl page data set
 PFL.PFLCYL        20 ONES          7972  1  309.                FLAG  PFLCYL              Cyl boundaries required
 PFL.PFLCNTG       10 ONES          7977  1  310.                FLAG  PFLCNTG             Contig allocation reqrd
 PFL.PFLREST       08 ONES          7982  1  311.                FLAG  PFLREST             Restore oper in progress
 PFL.PFLINC        04 ONES          7987  1  312.                FLAG  PFLINC              Incremental restore requested
 PFL.PFLKEY        02 ONES          7992  1  313.                FLAG  PFLKEY              File header is in key field
00005D2 00                          7998  1  315.     IOFLAG     FLAG  ,
 IOFLAG.IOFM23     80 ONES          8002  1  316.                FLAG  IOFM23              Mod 23 controller
00005D3 00                          8008  1  318.     RESFLAGS   FLAG  ,                   Restore flags
 RESFLAGS.RESVBF   80 ONES          8012  1  319.                FLAG  RESVBF              Restore tape recfm is vb
 RESFLAGS.INCVBF   40 ONES          8017  1  320.                FLAG  INCVBF              Incremental tape recfm is vb
 RESFLAGS.RESTSTRT 20 ONES          8022  1  321.                FLAG  RESTSTRT            Restore starting point
 RESFLAGS.FILLREC  10 ONES          8027  1  322.                FLAG  FILLREC             Fill blocks with fill character
 0005D4 00                          8032  1  323.     FMTFLG     FLAG   ,
 FMTFLG.FMTBINIT   80 ONES          8036  1  324.                FLAG  FMTBINIT            Balance parms pass init
 0005D5 FF                          8041  1  325.     FILLCHR    DC    X'FF'               Fill character
-                                         1
 0005D6 0000                              1
 0005D8 00000000                    8043  1  327.     IOBS       DC    A(0)                Address of IOB chain
00005DC                             8045  1  329.     EXLIST     DS    0F
 0005DC 870010E8                    8046  1  330.                DC    X'87',AL3(JFCBAREA)
00005E0                             8048  1  332.     RESTEXLS   DS    0F
 0005E0 850008A0                    8049  1  333.                DC    X'85',AL3(DCBEXIT)      DCB EXIT ROUTINE ADDRESS
1VFMT     (VFMT08) (09:47) (22MAR04) Global Data Block                                                                      Page   33
0Loc    Object Code    Addr1 Addr2  Stmt Lv Lineno    Source Statement           (Hibal 5, Asmedit 3.3)  HLASM R4.0  2004/03/22 09.47
+___    ______ ____    _____ _____  ____ __ ______    ______ _________
0                                   8051  1  335.     ¿þþþþþþþþþþþþþþþþþþþþþþþþþþþþþþþþþþþþþþþþþþþþþþþþþþþþþþþþþþþþþþþþþþþþþÜ
                                    8052  1  336.     Ÿ                                                                     Ÿ
                                    8053  1  337.     Ÿ  Data control block definition for file system output formatting    Ÿ
                                    8054  1  338.     Ÿ  restore I/O                                                        Ÿ
                                    8055  1  339.     Ÿ                                                                     Ÿ
                                          1           ¾þþþþþþþþþþþþþþþþþþþþþþþþþþþþþþþþþþþþþþþþþþþþþþþþþþþþþþþþþþþþþþþþþþþþþ»
0                                   8058  1  342.     DCB        DCB   DDNAME=FILE00,DSORG=DA,RECFM=F,MACRF=(E),EXLST=EXLIST
0                                   8061  1          +*                       DATA CONTROL BLOCK
                                    8062  1          +*
 0005E4                             8063  1 01-DCB   +DCB        DS    0F'0'          ORIGIN ON WORD BOUNDARY
 0005E4                005E4 005E8  8064  1 01-DCB   +           ORG   *+4            TO ORIGIN GENERATION
                                    8065  1          +*                       DIRECT ACCESS DEVICE INTERFACE
 0005E8 0000000000000000            8066  1 01-DCB   +           DC    BL12'0'        FDAD, DVTBL
 0005F4 00000000                    8067  1 01-DCB   +           DC    A(0)           KEYLEN, DEVT, TRBAL
                                    8068  1          +*                       COMMON ACCESS METHOD INTERFACE
 0005F8 00                          8069  1 01-DCB   +           DC    AL1(0)         BUFNO, NUMBER OF BUFFERS
 0005F9 000001                      8070  1 01-DCB   +           DC    AL3(1)         BUFCB, BUFFER POOL CONTROL BLOCK
 0005FC 0000                        8071  1 01-DCB   +           DC    AL2(0)         BUFL, BUFFER LENGTH
 0005FE 2000                        8072  1 01-DCB   +           DC    BL2'0010000000000000' DSORG, DATA SET ORGANIZATION
 000600 00000001                    8073  1 01-DCB   +           DC    A(1)           IOBAD FOR EXCP OR RESERVED
                                    8074  1          +*                       FOUNDATION EXTENSION
 000604 00                          8075  1 01-DCB   +           DC    BL1'00000000'  BFTEK, BFALN, DCBE INDICATORS
 000605 000001                      8076  1 01-DCB   +           DC    AL3(1)         EODAD (END OF DATA ROUTINE ADDRESS)
 000608 80                          8077  1 01-DCB   +           DC    BL1'10000000'  RECFM (RECORD FORMAT)
 000609 0005DC                      8078  1 01-DCB   +           DC    AL3(EXLIST)    EXLST (EXIT LIST ADDRESS)
                                    8079  1          +*                       FOUNDATION BLOCK
 00060C C6C9D3C5F0F04040            8080  1 01-DCB   +           DC    CL8'FILE00'    DDNAME
 000614 02                          8081  1 01-DCB   +           DC    BL1'00000010'  OFLGS (OPEN FLAGS)
 000615 00                          8082  1 01-DCB   +           DC    BL1'00000000'  IFLGS (IOS FLAGS)
 000616 D004                        8083  1 01-DCB   +           DC    BL2'1101000000000100' MACR (MACRO FORMAT)
1VFMT     (VFMT08) (09:47) (22MAR04) Global Data Block                                                                      Page   34
0Loc    Object Code    Addr1 Addr2  Stmt Lv Lineno    Source Statement           (Hibal 5, Asmedit 3.3)  HLASM R4.0  2004/03/22 09.47
+___    ______ ____    _____ _____  ____ __ ______    ______ _________
0                                   8087  1  345.     ¿þþþþþþþþþþþþþþþþþþþþþþþþþþþþþþþþþþþþþþþþþþþþþþþþþþþþþþþþþþþþþþþþþþþþþÜ
                                    8088  1  346.     Ÿ                                                                     Ÿ
                                    8089  1  347.     Ÿ  Data control block definition for incremental restore input        Ÿ
                                    8090  1  348.     Ÿ  data.                                                              Ÿ
                                    8091  1  349.     Ÿ                                                                     Ÿ
                                          1           ¾þþþþþþþþþþþþþþþþþþþþþþþþþþþþþþþþþþþþþþþþþþþþþþþþþþþþþþþþþþþþþþþþþþþþþ»
0                                   8094  1  352.   C RESTDCB    DCB   DDNAME=DUMPTAPE,DSORG=PS,MACRF=(GL),EODAD=TAPEND,
                                          1  353.                      EXLST=RESTEXLS
0                                   8097  1          +*                       DATA CONTROL BLOCK
                                    8098  1          +*
 000618                             8099  1 01-DCB   +RESTDCB    DC    0F'0'          ORIGIN ON WORD BOUNDARY
                                    8100  1          +*                       DIRECT ACCESS DEVICE INTERFACE
 000618 0000000000000000            8101  1 01-DCB   +           DC    BL16'0'        FDAD, DVTBL
 000628 00000000                    8102  1 01-DCB   +           DC    A(0)           KEYLEN, DEVT, TRBAL
                                    8103  1          +*                       COMMON ACCESS METHOD INTERFACE
 00062C 00                          8104  1 01-DCB   +           DC    AL1(0)         BUFNO, NUMBER OF BUFFERS
 00062D 000001                      8105  1 01-DCB   +           DC    AL3(1)         BUFCB, BUFFER POOL CONTROL BLOCK
 000630 0000                        8106  1 01-DCB   +           DC    AL2(0)         BUFL, BUFFER LENGTH
 000632 4000                        8107  1 01-DCB   +           DC    BL2'0100000000000000' DSORG, DATA SET ORGANIZATION
 000634 00000001                    8108  1 01-DCB   +           DC    A(1)           IOBAD FOR EXCP OR RESERVED
                                    8109  1          +*                       FOUNDATION EXTENSION
 000638 00                          8110  1 01-DCB   +           DC    BL1'00000000'  BFTEK, BFALN, DCBE INDICATORS
 000639 000FDA                      8111  1 01-DCB   +           DC    AL3(TAPEND)    EODAD (END OF DATA ROUTINE ADDRESS)
 00063C 00                          8112  1 01-DCB   +           DC    BL1'00000000'  RECFM (RECORD FORMAT)
 00063D 0005E0                      8113  1 01-DCB   +           DC    AL3(RESTEXLS)  EXLST (EXIT LIST ADDRESS)
                                    8114  1          +*                       FOUNDATION BLOCK
 000640 C4E4D4D7E3C1D7C5            8115  1 01-DCB   +           DC    CL8'DUMPTAPE'  DDNAME
 000648 02                          8116  1 01-DCB   +           DC    BL1'00000010'  OFLGS (OPEN FLAGS)
 000649 00                          8117  1 01-DCB   +           DC    BL1'00000000'  IFLGS (IOS FLAGS)
 00064A 4800                        8118  1 01-DCB   +           DC    BL2'0100100000000000' MACR (MACRO FORMAT)
                                    8119  1          +*                       BSAM-BPAM-QSAM INTERFACE
 00064C 00                          8120  1 01-DCB   +           DC    BL1'00000000'  OPTCD, OPTION CODES
 00064D 000001                      8121  1 01-DCB   +           DC    AL3(1)         CHECK OR INTERNAL QSAM SYNCHRONIZING RTN.
 000650 00000001                    8122  1 01-DCB   +           DC    A(1)           SYNAD, SYNCHRONOUS ERROR RTN. (3 BYTES)
 000654 0000                        8123  1 01-DCB   +           DC    H'0'           INTERNAL ACCESS METHOD FLAGS
 000656 0000                        8124  1 01-DCB   +           DC    AL2(0)         BLKSIZE, BLOCK SIZE
 000658 00000000                    8125  1 01-DCB   +           DC    F'0'           INTERNAL ACCESS METHOD FLAGS
 00065C 00000001                    8126  1 01-DCB   +           DC    A(1)           INTERNAL ACCESS METHOD USE
                                    8127  1          +*                            QSAM INTERFACE
 000660 00000001                    8128  1 01-DCB   +           DC    A(1)           EOBAD
 000664 00000001                    8129  1 01-DCB   +           DC    A(1)           RECAD
 000668 0000                        8130  1 01-DCB   +           DC    H'0'           QSWS (FLAGS) AND EITHER DIRCT OR BUFOFF
 00066A 0000                        8131  1 01-DCB   +           DC    AL2(0)         LRECL
 00066C 00                          8132  1 01-DCB   +           DC    BL1'00000000'  EROPT, ERROR OPTION
 00066D 000001                      8133  1 01-DCB   +           DC    AL3(1)         CNTRL
 000670 00000000                    8134  1 01-DCB   +           DC    H'0,0'         RESERVED AND PRECL
 000674 00000001                    8135  1 01-DCB   +           DC    A(1)           EOB, INTERNAL ACCESS METHOD FIELD
1VFMT     (VFMT08) (09:47) (22MAR04) Global Data Block                                                                      Page   35
0Loc    Object Code    Addr1 Addr2  Stmt Lv Lineno    Source Statement           (Hibal 5, Asmedit 3.3)  HLASM R4.0  2004/03/22 09.47
+___    ______ ____    _____ _____  ____ __ ______    ______ _________
0                                   8138  1  356.     ¿þþþþþþþþþþþþþþþþþþþþþþþþþþþþþþþþþþþþþþþþþþþþþþþþþþþþþþþþþþþþþþþþþþþþþÜ
                                    8139  1  357.     Ÿ                                                                     Ÿ
                                    8140  1  358.     Ÿ  Define WTO status and error console messages                       Ÿ
                                    8141  1  359.     Ÿ                                                                     Ÿ
                                          1           ¾þþþþþþþþþþþþþþþþþþþþþþþþþþþþþþþþþþþþþþþþþþþþþþþþþþþþþþþþþþþþþþþþþþþþþ»
-                                   8143  1  361.   C SFM        WTO   '*** ORVFMT *** Formatting 1,234,567 blocks on file 00',
 000678 0039/8000                         1  362.                      ROUTCDE=2,DESC=6,MF=L
 00067C 5C5C5C40D6D9E5C6            8147  1          +
 000684 D4E3405C5C5C40C6                  1          +
 0006B1 0400/4000                   8148  1          +
                                    8150  1  363.     SFMTP      EQU   SFM+19,10           Address of Formatting/Restoring
                                    8151  1  364.     SFMNP      EQU   SFMTP+10,10         Address of (#blocks) field
                                    8152  1  365.     SFMDD      EQU   SFMNP+21,4          Address of DD name field
                                    8153  1  366.     SFMPF      EQU   SFMDD+5,2           Address of file sequence field
                                    8154  1  367.
                                    8155  1  368.   C NFM        WTO   '*** ORVFMT *** Unable to format  file 00',
 0006B8 002C/8000                         1  369.                      ROUTCDE=2,DESC=6,MF=L
 0006BC 5C5C5C40D6D9E5C6            8159  1          +
 0006C4 D4E3405C5C5C40E4                  1          +
 0006E4 0400/4000                   8160  1          +
                                    8162  1  370.     NFMTP      EQU   NFM+29,7
                                    8163  1  371.     NFMDD      EQU   NFMTP+8,4
                                    8164  1  372.     NFMPF      EQU   NFMDD+5,2
                                    8165  1  373.
                                    8166  1  374.   C NCM        WTO   '*** ORVFMT *** Cylinder allocation required',
 0006E8 002F/8000                         1  375.                      ROUTCDE=2,DESC=6,MF=L
 0006EC 5C5C5C40D6D9E5C6            8170  1          +
 0006F4 D4E3405C5C5C40C3                  1          +
 000717 0400/4000                   8171  1          +
                                    8173  1  376.
                                    8174  1  377.   C MXM        WTO   '*** ORVFMT *** File must be single extent',
 00071C 002D/8000                         1  378.                      ROUTCDE=2,DESC=6,MF=L
 000720 5C5C5C40D6D9E5C6            8178  1          +
 000728 D4E3405C5C5C40C6                  1          +
 000749 0400/4000                   8179  1          +
                                    8181  1  379.
                                    8182  1  380.   C NTAPE      WTO   '*** ORVFMT *** Unable to open restore tape',
 000750 002E/8000                         1  381.                      ROUTCDE=2,DESC=6,MF=L
 000754 5C5C5C40D6D9E5C6            8186  1          +
 00075C D4E3405C5C5C40E4                  1          +
 00077E 0400/4000                   8187  1          +
                                    8189  1  382.
                                    8190  1  383.   C ITAPE      WTO   '*** ORVFMT *** Unable to open incremental tape',
 000784 0032/8000                         1  384.                      ROUTCDE=2,DESC=6,MF=L
 000788 5C5C5C40D6D9E5C6            8194  1          +
 000790 D4E3405C5C5C40E4                  1          +
 0007B6 0400/4000                   8195  1          +
                                    8197  1  385.
                                    8198  1  386.   C DEM        WTO   '*** ORVFMT *** Formatting complete',
 0007BC 0026/8000                         1  387.                      ROUTCDE=2,DESC=6,MF=L
 0007C0 5C5C5C40D6D9E5C6            8202  1          +
 0007C8 D4E3405C5C5C40C6                  1          +
 0007E2 0400/4000                   8203  1          +
                                    8205  1  388.     DEMTP      EQU   DEM+19,10
1VFMT     (VFMT08) (09:47) (22MAR04) Global Data Block                                                                      Page   36
0Loc    Object Code    Addr1 Addr2  Stmt Lv Lineno    Source Statement           (Hibal 5, Asmedit 3.3)  HLASM R4.0  2004/03/22 09.47
+___    ______ ____    _____ _____  ____ __ ______    ______ _________
0                                   8206  1  389.
                                    8207  1  390.   C IOEM       WTO   L78'*** ORVFMT *** I/O Error while formatting file 00',
 0007E8 0038/8000                         1  391.                      ROUTCDE=2,DESC=6,MF=L
 0007EC 5C5C5C40D6D9E5C6            8211  1          +
 0007F4 D4E3405C5C5C40C9                  1          +
 00083A 0400/4000                   8212  1          +
 00083E                0083E 007E8  8214  1  392.                ORG   IOEM
 0007E8 0052                        8215  1  393.                DC    AL2(78+4)               REAL LENGTH OF MESSAGE
 0007EA                007EA 0083E  8216  1  394.                ORG   ,                       BACK  IN STEP
                                    8217  1  395.
                                    8218  1  396.   C RERR       WTO   '*** ORVFMT ***  Restore data exceeds file size',
 000840 0032/8000                         1  397.                      ROUTCDE=2,DESC=6,MF=L
 000844 5C5C5C40D6D9E5C6            8222  1          +
 00084C D4E3405C5C5C4040                  1          +
 000872 0400/4000                   8223  1          +
 000016                00000 01E00  8225     398.              END   ,
1VFMT     (VFMT08) (09:47) (22MAR04) Orvyl's Disk Formatting Program                                                        Page   37
0Loc    Object Code    Addr1 Addr2  Stmt Lv Lineno    Source Statement           (Hibal 5, Asmedit 3.3)  HLASM R4.0  2004/03/22 09.47
+___    ______ ____    _____ _____  ____ __ ______    ______ _________
0                                   8232     400.     ¿þþþþþþþþþþþþþþþþþþþþþþþþþþþþþþþþþþþþþþþþþþþþþþþþþþþþþþþþþþþþþþþþþþþþþÜ
                                    8233     401.     Ÿ                                                                     Ÿ
                                    8234     402.     Ÿ                                                                     Ÿ
                                    8235     403.     Ÿ  Main entry point for Orvyl format/restore                          Ÿ
                                    8236     404.     Ÿ                                                                     Ÿ
                                    8237     405.     Ÿ                                                                     Ÿ
                                                      ¾þþþþþþþþþþþþþþþþþþþþþþþþþþþþþþþþþþþþþþþþþþþþþþþþþþþþþþþþþþþþþþþþþþþþþ»
-000016                00000 01E00  8239     407.     VFMT     CSECT ,                   Define control section
                                    8241     408.              ENTRY ORVFMT              And main entry point
 000016 90EC D00C            0000C  8242     409.     ORVFMT   STM   R14,R12,@R13+12     Save calling registers
 00001A 18CF                        8243     410.              LR    BRR,R15             Set program address register
 USING  ORVFMT,R12                  8244     411.              USING ORVFMT,BRR          Declare program initial base
0USING  IOB,R11                     8254     413.              USING IOB,IOBREG          Addressability for IOB chain
 00001C 50D0 C36E            00384  8263     414.              ST    R13,RETPTR          Save VS area address
 000020 5810 1000            00000  8264     415.              L     R1,@R1              Address of EXEC field parameters
 000024 5010 C372            00388  8265     416.              ST    R1,EXECPTR          Save address for VFMT_INI routine
 000028 47F0 C01E            00034  8266     417.              STORAGE OBTAIN,LENGTH=VFMT_ST,BNDRY=PAGE,LOC=(BELOW,ANY)
 00002C 00004000/00/00              8270             +
 000032 00/56                       8273             +
 000034 5800 C016            0002C  8276             +
 000038 58F0 C01A            00030  8277             +
 00003C 58E0 0010            00010  8278             +
 000040 58EE 0304            00304  8279             +
 000044 58EE 00A0            000A0  8280             +
 000048 B218 E000      00000        8281             +
 00004C 18D1                        8282     418.              LR    SPR,R1              Copy address of save stack
 00004E 50D0 C376            0038C  8283     419.              ST    SPR,SVA             Save address of VFMT save stack
 000052 5890 C2F2/0D99       00308  8284     420.              ACALL VFMT_INI            Scan exec parameter tokens
 000058 9180 C5BB      005D1        8288     421.              IF    PFLFDC,BEGIN        Format Orvyl catalog/bitmap
 00005C 47E0 C05C            00072  8298             +
 000060 5890 C2F6/0D99       0030C  8303  1  422.                ACALL FORMDS
 000066 4780 C05C            00072  8307  1  423.                IF    NZ,BEGIN            Check if successful
 00006A 50F0 C36A            00380  8318  2  424.                  ST    R15,RETCDE          Set return code
 00006E 47F0 C280            00296  8319  2  425.                  B     RETURN              And take error exit
 000072                             8320  1  426.                END   ,
 000072                             8324     427.              END   ,
-000072 9108 C5BB      005D1        8329     429.              IF    PFLREST,BEGIN       Special processing for restore
 000076 47E0 C0AE            000C4  8339             +
 00007A 5890 C2FA/0D99       00310  8344  1  430.                ACALL OPENIN              Open restore data input file
 000080 4780 C07C            00092  8348  1  431.                IF    NZ,BEGIN            Abort on open error in restore
 000084 50F0 C36A            00380  8359  2  432.                  ST    R15,RETCDE          Set return code
 000088 4110 C73A/0A23       00750  8360  2  433.                  WTO   MF=(E,NTAPE)        Issue WTO error message
 00008E 47F0 C280            00296  8364  2  434.                  B     RETURN              And take error exit
 000092                             8365  1  435.                END   ,
 000092 9104 C5BB      005D1        8369  1  436.                IF    PFLINC,BEGIN        Special for incremental restore
 000096 47E0 C09C            000B2  8379  1          +
 00009A 5890 C2FE/0D99       00314  8384  2  437.                  ACALL OPENINC             Open incremental restore tape
 0000A0 4780 C09C            000B2  8388  2  438.                  IF    NZ,BEGIN            Check for successful open
 0000A4 50F0 C36A            00380  8399  3  439.                    ST    R15,RETCDE          Set return code
 0000A8 4110 C76E/0A23       00784  8400  3  440.                    WTO   MF=(E,ITAPE)        Issue error message
 0000AE 47F0 C280            00296  8404  3  441.                    B     RETURN              And take error exit
1VFMT     (VFMT08) (09:47) (22MAR04) Orvyl's Disk Formatting Program                                                        Page   38
0Current Usings:  (IOB,R11) (ORVFMT,R12)
0Loc    Object Code    Addr1 Addr2  Stmt Lv Lineno    Source Statement           (Hibal 5, Asmedit 3.3)  HLASM R4.0  2004/03/22 09.47
+___    ______ ____    _____ _____  ____ __ ______    ______ _________
00000B2                             8405  2  442.                  END   ,
 0000B2                             8409  1  443.                END   ,
 0000B2 D209 C7B9 C32A 007CF 00340  8413  1  444.                MVC   DEMTP(10),=CL10'Restoring '
 0000B8 D209 C675 C32A 0068B 00340  8414  1  445.                MVC   SFMTP(10),=CL10'Restoring '
 0000BE D209 C6BF C32A 006D5 00340  8415  1  446.                MVC   NFMTP(10),=CL10'Restoring '
 0000C4                             8416     447.              END   ,
1VFMT     (VFMT08) (09:47) (22MAR04) Orvyl's Disk Formatting Program                                                        Page   39
0Current Usings:  (IOB,R11) (ORVFMT,R12)
0Loc    Object Code    Addr1 Addr2  Stmt Lv Lineno    Source Statement           (Hibal 5, Asmedit 3.3)  HLASM R4.0  2004/03/22 09.47
+___    ______ ____    _____ _____  ____ __ ______    ______ _________
0                                   8421     449.     ¿þþþþþþþþþþþþþþþþþþþþþþþþþþþþþþþþþþþþþþþþþþþþþþþþþþþþþþþþþþþþþþþþþþþþþÜ
                                    8422     450.     Ÿ                                                                     Ÿ
                                    8423     451.     Ÿ  Main formatting/restoring processing loop                          Ÿ
                                    8424     452.     Ÿ                                                                     Ÿ
                                                      ¾þþþþþþþþþþþþþþþþþþþþþþþþþþþþþþþþþþþþþþþþþþþþþþþþþþþþþþþþþþþþþþþþþþþþþ»
-0000C4                             8426     454.              LOOP  BEGIN               Format/Restore current volume
 0000C4 D201 C699 C5FA 006AF 00610  8432  1  455.                MVC   SFMPF,DCB+(DCBDDNAM+4-IHADCB) Set file number
 0000CA 9280 C5F2      00608        8433  1  456.                MVI   DCB+(DCBRECFM-IHADCB),DCBRECF Reset RECFM to FIXED
                                    8434  1  457.                ¿þþþþþþþþþþþþþþþþþþþþþþþþþþþþþþþþþþÜ
                                    8435  1  458.                Ÿ  Determine file characteristics  Ÿ
                                    8436  1  459.                ¾þþþþþþþþþþþþþþþþþþþþþþþþþþþþþþþþþþ»
00000CE 5890 C302/0D99       00318  8438  1  461.                ACALL CHKDEV              Check output voluem characteristics
 0000D4 4780 C0CA            000E0  8442  1  462.                IF    NZ,BEGIN            Abort processing on any error
 0000D8 50F0 C36A            00380  8453  2  463.                  ST    R15,RETCDE          Set return code
 0000DC 47F0 C228            0023E  8454  2  464.                  B     NXTVOL              Proceed to next volume
 0000E0                             8455  1  465.                END   ,
                                    8459  1  466.                ¿þþþþþþþþþþþþþþþþþþþþþþþþþþþþþþþþþþþþþÜ
                                    8460  1  467.                Ÿ  Open FILEnn volume for formatting  Ÿ
                                    8461  1  468.                ¾þþþþþþþþþþþþþþþþþþþþþþþþþþþþþþþþþþþþþ»
 0000E0 5890 C306/0D99       0031C  8462  1  469.                ACALL OPENOUT             Open file volume for output
 0000E6 4780 C0DC            000F2  8466  1  470.                IF    NZ,BEGIN            Abort processing on error return
 0000EA 50F0 C36A            00380  8477  2  471.                  ST    R15,RETCDE          Set return code
 0000EE 47F0 C228            0023E  8478  2  472.                  B     NXTVOL              Do next volume if bad
 0000F2                             8479  1  473.                END   ,
                                    8483  1  474.                ¿þþþþþþþþþþþþþþþþþþþþþþþþþþþþÜ
                                    8484  1  475.                Ÿ  Compute number of tracks  Ÿ
                                    8485  1  476.                ¾þþþþþþþþþþþþþþþþþþþþþþþþþþþþ»
 0000F2 5820 C5FA            00610  8486  1  477.                L     R2,DCB+(DCBDEBAD-IHADCB)  DEB ADDR
 USING  DEBBASIC,R2                 8487  1  478.                WITH  (DEBBASIC,R2),BEGIN Addressability to the DEB
 0000F6 1F33/4330 2010       00034  8501  2  479.                  LC    R3,DEBNMEXT         Number of extents
 0000FC 9110 C5BB      005D1        8508  2  480.                  IF    (PFLCNTG,AND,(R3,GT,1)),BEGIN
 000100 47E0 C116            0012C  8520  2          +
 000104 5930 C30A            00320  8533  2          +
 000108 47D0 C116            0012C  8534  2          +
 00010C 4110 C706/0A23       0071C  8539  3  481.                    WTO   MF=(E,MXM)          Write contig err message
 000112 D201 C6CC C699 006E2 006AF  8543  3  482.                    MVC   NFMPF,SFMPF         Set volume number
 000118 D203 C6C7 C694 006DD 006AA  8544  3  483.                    MVC   NFMDD,SFMDD         Set ddname
 00011E 4110 C6A2/0A23       006B8  8545  3  484.                    WTO   MF=(E,NFM)          Issue error message
 000124 9208 C36D      00383        8549  3  485.                    MVI   RETCDE+3,8          Set error return code
 000128 47F0 C228            0023E  8550  3  486.                    B     NXTVOL              Go do next volume
 00012C                             8551  2  487.                  END   ,
 00012C 4120 2020            00044  8555  2  488.                  LA    R2,DEBBASND         Device dependent section
 DROP   DEBBASIC,R2                 8556  1  489.                END   ,                   Release DEB addressability
 USING  DEBDASD,R2                  8564  1  490.                WITH (DEBDASD,R2),BEGIN
 000130 1B55                        8578  2  491.                  CLEAR R5                  Clear number of tracks
 000132                             8582  2  492.                  LOOP  BEGIN               Tally each extent in data set
 000132 1F00/BF03 200E       0000E  8588  3  493.                    L2    R0,DEBNMTRK         Set number of tracks in extent
 000138 1E50                        8594  3  494.                    ALR   R5,R0                 add to total
 00013A 4120 2010            00010  8595  3  495.                    LA    R2,DEBDASDE             next extent area
 00013E 4630 C11C            00132  8596  2  496.                  UNTIL (BCT,R3),END        Tally up next extent area
 DROP   DEBDASD,R2                  8606  1  497.                END   ,                   Release DEB addressability
1VFMT     (VFMT08) (09:47) (22MAR04) Orvyl's Disk Formatting Program                                                        Page   40
0Current Usings:  (IOB,R11) (ORVFMT,R12)
0Loc    Object Code    Addr1 Addr2  Stmt Lv Lineno    Source Statement           (Hibal 5, Asmedit 3.3)  HLASM R4.0  2004/03/22 09.47
+___    ______ ____    _____ _____  ____ __ ______    ______ _________
0000142 5050 C57E            00594  8614  1  498.                ST    R5,TRACKS           Save tracks in data set
 000146 5C40 C592            005A8  8615  1  499.                M     R4,RPT              X records/track
 00014A D200 C5DA C595 005F0 005AB  8616  1  500.                MVC   DCB+DCBFDAD+7-IHADCB(1),RPT+3    SET RECORD NUM
1VFMT     (VFMT08) (09:47) (22MAR04) Orvyl's Disk Formatting Program                                                        Page   41
0Current Usings:  (IOB,R11) (ORVFMT,R12)
0Loc    Object Code    Addr1 Addr2  Stmt Lv Lineno    Source Statement           (Hibal 5, Asmedit 3.3)  HLASM R4.0  2004/03/22 09.47
+___    ______ ____    _____ _____  ____ __ ______    ______ _________
0                                   8618  1  502.     ¿þþþþþþþþþþþþþþþþþþþþþþþþþþþþþþþþþþþþþþþþþþþþþþþþþþþþþþþþþþþþþþþþþþþþþÜ
                                    8619  1  503.     Ÿ                                                                     Ÿ
                                    8620  1  504.     Ÿ  Format/Restore the file                                            Ÿ
                                    8621  1  505.     Ÿ                                                                     Ÿ
                                          1           ¾þþþþþþþþþþþþþþþþþþþþþþþþþþþþþþþþþþþþþþþþþþþþþþþþþþþþþþþþþþþþþþþþþþþþþ»
-000150 5890 C30E/0D99       00324  8623  1  507.                ACALL BUILDIOB            Initialize IOB's
 000156 4E50 C342            00358  8627  1  508.                CVD   R5,DEC              CONVERT NO. OF BLOCKS
 00015A D209 C67F C334 00695 0034A  8628  1  509.                MVC   SFMNP,=X'40206B2020206B202120'
 000160 DE09 C67F C346 00695 0035C  8629  1  510.                ED    SFMNP,DEC+4
 000166 4110 C662/0A23       00678  8630  1  511.                WTO   MF=(E,SFM)          Issue start message
 00016C 58B0 C5C2            005D8  8634  1  512.                L     IOBREG,IOBS         Start at first IOB
 000170 1B22                        8635  1  513.                CLEAR R2                  Clear track count
 000172 5020 C58A            005A0  8639  1  514.                ST    R2,CURNTRK          Zero out current track
 000176 18F2                        8640  1  515.                LR    R15,R2              Move relative track address
 000178 5890 C312/0D99       00328  8641  1  516.                ACALL CALCSEEK            Set seek address in IOB
 00017E 5890 C316/0D99       0032C  8645  1  517.                ACALL GETDATA             Fill buffer
 000184 181B/0A00                   8649  1  518.                EXCP  (IOBREG)            Start I/O on first buffer
 000188 D206 C5D3 B020 005E9 00020  8653  1  519.                MVC   DCB+DCBFDAD-IHADCB(7),IOBSEEK   SET MBCCHH
 00018E 9680 B035      00035        8654  1  520.                SET   IOBACT              Set I/O active
 000192                             8660  1  521.                LOOP  BEGIN
 000192 4120 0001            00001  8666  2  522.                  INCR  R2,CURNTRK          Bump track address
 000196 5E20 C58A            005A0  8670  2          +
 00019A 5020 C58A            005A0  8671  2          +
 00019E 5920 C57E            00594  8672  2  523.                  IF    (R2,GE,TRACKS),EXIT Exit loop if done
 0001A2 47A0 C1D8            001EE  8686  2          +
 0001A6 58B0 B038            00038  8692  2  524.                  L     IOBREG,IOBNEXT      Chain to next IOB
 0001AA 9180 B035      00035        8693  2  525.                  IF    IOBACT,BEGIN        Only check if I/O started
 0001AE 47E0 C1B8            001CE  8703  2          +
 0001B2 947F B035      00035        8708  3  526.                    CLEAR IOBACT              Clear I/O active
 0001B6 4100 0001            00001  8715  3  527.                    WAIT  ECB=ECB             Wait for I/O completion
 0001BA 4110 B028/0A01       00028  8720  3          +
 0001C0 957F B028      00028        8722  3  528.                    IF    (ECB,NE,X'7F'),IOERR
 0001C4 4770 C860            00876  8736  3          +
 0001C8                             8742  3  529.                    CLEAR ECB                 Clear event control block
 0001C8 D703 B028 B028 00028 00028  8748  3          +
 0001CE                             8749  2  530.                  END   ,
 0001CE 18F2                        8753  2  531.                  LR    R15,R2              Move relative track address
 0001D0 5890 C312/0D99       00328  8754  2  532.                  ACALL CALCSEEK            Set seek address in IOB
 0001D6 5890 C316/0D99       0032C  8758  2  533.                  ACALL GETDATA             Fill buffer
 0001DC 181B/0A00                   8762  2  534.                  EXCP  (IOBREG)            Start I/O
 0001E0 D206 C5D3 B020 005E9 00020  8766  2  535.                  MVC   DCB+DCBFDAD-IHADCB(7),IOBSEEK   SET MBCCHH
 0001E6 9680 B035      00035        8767  2  536.                  SET   IOBACT              Set I/O active
 0001EA 47F0 C17C            00192  8773  1  537.                END   ,                   Go do next IOB
1VFMT     (VFMT08) (09:47) (22MAR04) Orvyl's Disk Formatting Program                                                        Page   42
0Current Usings:  (IOB,R11) (ORVFMT,R12)
0Loc    Object Code    Addr1 Addr2  Stmt Lv Lineno    Source Statement           (Hibal 5, Asmedit 3.3)  HLASM R4.0  2004/03/22 09.47
+___    ______ ____    _____ _____  ____ __ ______    ______ _________
0                                   8779  1  539.     ¿þþþþþþþþþþþþþþþþþþþþþþþþþþþþþþþþþþþþþþþþþþþþþþþþþþþþþþþþþþþþþþþþþþþþþÜ
                                    8780  1  540.     Ÿ                                                                     Ÿ
                                    8781  1  541.     Ÿ  Check remaining IOB's for outstanding I/O's                        Ÿ
                                    8782  1  542.     Ÿ                                                                     Ÿ
                                          1           ¾þþþþþþþþþþþþþþþþþþþþþþþþþþþþþþþþþþþþþþþþþþþþþþþþþþþþþþþþþþþþþþþþþþþþþ»
-0001EE 58B0 C5C2            005D8  8784  1  544.                L     IOBREG,IOBS         CHECK ALL BUFFERS FOR
 0001F2 4120 0002            00002  8785  1  545.                LA    R2,&NUMIOB          I/O COMPLETION
 0001F6                             8786  1  546.                LOOP  BEGIN
 0001F6 9180 B035      00035        8792  2  547.                  IF    IOBACT,BEGIN        ONLY CHECK I/O'S
 0001FA 47E0 C204            0021A  8802  2          +
 0001FE 947F B035      00035        8807  3  548.                    CLEAR IOBACT              CLEAR I/O ACTIVE
 000202 4100 0001            00001  8814  3  549.                    WAIT  ECB=ECB             WAIT FOR I/O COMPLETION
 000206 4110 B028/0A01       00028  8819  3          +
 00020C 957F B028      00028        8821  3  550.                    IF    (ECB,NE,X'7F'),IOERR
 000210 4770 C860            00876  8835  3          +
 000214                             8841  3  551.                    CLEAR ECB
 000214 D703 B028 B028 00028 00028  8847  3          +
 00021A                             8848  2  552.                  END   ,
 00021A 58B0 B038            00038  8852  2  553.                  L     IOBREG,IOBNEXT      CHAIN TO NEXT IOB
 00021E 5B20 C31A            00330  8853  2  554.                  S     R2,=F'1'            DECREMENT IOB COUNT
 000222 4780 C214            0022A  8854  2  555.                  IF    Z,EXIT              EXIT LOOP IF FINISHED
 000226 47F0 C1E0            001F6  8868  1  556.                END   ,
000022A                             8874  1  558.     CLOSE      LABEL ,
 00022A 9680 C5FE      00614        8876  1  559.                OI    DCB+(DCBOFLGS-IHADCB),DCBOFLWR
 00022E 0700/4510 C222       00238  8877  1  560.                CLOSE DCB                 Close formatting DCB
 000234 80/0005E4/0A14              8880  1          +
 00023A 9200 C5BC      005D2        8883  1  561.                CLEAR IOFLAG              CLEAR IOFLAGS
000023E                             8891  1  563.     NXTVOL     LABEL ,
 00023E                             8893  1  564.                CLEAR FILTOT              Zero current block count
 00023E D703 C586 C586 0059C 0059C  8899  1          +
 000244 41F0 0001            00001  8900  1  565.                INCR  R15,CURVOL          BUMP CURRENT VOLUME
 000248 4AF0 C5AA            005C0  8904  1          +
 00024C 40F0 C5AA            005C0  8905  1          +
 000250 49F0 C5A8            005BE  8906  1  566.                IF    (R15,GE,LASTVOL),EXIT   EXIT LOOP IF AT LAST
 000254 47A0 C256            0026C  8920  1          +
 000258 4EF0 C342            00358  8926  1  567.                CVD   R15,DEC             Convert volume number to packed
 00025C F311 C342 C348 00358 0035E  8927  1  568.                UNPK  DEC(2),DEC+6(2)     And format for DDNAME update
 000262 D101 C5FA C342 00610 00358  8928  1  569.                MVN   DCB+(DCBDDNAM-IHADCB)+4(2),DEC
 000268 47F0 C0AE            000C4  8929     570.              END   ,
1VFMT     (VFMT08) (09:47) (22MAR04) Orvyl's Disk Formatting Program                                                        Page   43
0Current Usings:  (IOB,R11) (ORVFMT,R12)
0Loc    Object Code    Addr1 Addr2  Stmt Lv Lineno    Source Statement           (Hibal 5, Asmedit 3.3)  HLASM R4.0  2004/03/22 09.47
+___    ______ ____    _____ _____  ____ __ ______    ______ _________
0                                   8935     572.     ¿þþþþþþþþþþþþþþþþþþþþþþþþþþþþþþþþþþþþþþþþþþþþþþþþþþþþþþþþþþþþþþþþþþþþþÜ
                                    8936     573.     Ÿ                                                                     Ÿ
                                    8937     574.     Ÿ  Format/Restore operation is complete                               Ÿ
                                    8938     575.     Ÿ                                                                     Ÿ
                                                      ¾þþþþþþþþþþþþþþþþþþþþþþþþþþþþþþþþþþþþþþþþþþþþþþþþþþþþþþþþþþþþþþþþþþþþþ»
-00026C                             8940     577.     DONE     LABEL ,
 00026C 9108 C5BB      005D1        8942     578.              IF    PFLREST,BEGIN       Special action if restore
 000270 47E0 C27A            00290  8952             +
 000274 4110 C602            00618  8957  1  579.                LA    R1,RESTDCB          Input dcb
 USING  IHADCB,R1                   8958  1  580.                WITH (IHADCB,R1),BEGIN    Addressability to dcb
 000278 D202 1021 C33E 00021 00354  8972  2  581.                  MVC   DCBEODA,=AL3(DONEMSG)   normal end of job
 DROP   IHADCB,R1                   8973  1  582.                END   ,                   Release dcb addressability
 00027E 1FFF/BFF7 1031       00031  8981  1  583.                GET   (1)                 A parting shot, should eof
 000284 05EF                        8985  1          +
 000286 9204 C36D      00383        8986  1  584.                MVI   RETCDE+3,4          Set warning return code
 00028A 4110 C82A/0A23       00840  8987  1  585.                WTO   MF=(E,RERR)         Report too much restore data
 000290                             8991     586.              END   ,
0000290 4110 C7A6/0A23       007BC  8996     588.     DONEMSG  WTO   MF=(E,DEM)
0000296                             9001     590.     RETURN   LABEL ,                   Prepare for system return
 000296 5810 C5C2/1211       005D8  9003     591.              LT    R1,IOBS             Load address of IOB storage
 00029C 4780 C2AA            002C0  9007     592.              IF    NZ,BEGIN            Release obtained IOB storage
 0002A0 5800 C31E            00334  9018  1  593.                L     R0,=A(&NUMIOB*L'IOB)    and length of IOB stroage
 0002A4 47F0 C296/00         002AC  9019  1  594.                STORAGE RELEASE,LENGTH=(0),ADDR=(1),COND=NO
 0002A9 00/00/03                    9024  1          +
 0002AC 58F0 C292            002A8  9028  1          +
 0002B0 58E0 0010            00010  9029  1          +
 0002B4 58EE 0304            00304  9030  1          +
 0002B8 58EE 00CC            000CC  9031  1          +
 0002BC B218 E000      00000        9032  1          +
 0002C0                             9033     595.              END   ,
 0002C0 5810 C376            0038C  9037     596.              L     R1,SVA              Set address of save stack start
 0002C4 47F0 C2BA            002D0  9038     597.              STORAGE RELEASE,LENGTH=VFMT_ST,ADDR=(1),COND=NO
 0002C8 00004000/00/00              9042             +
 0002CE 00/03                       9045             +
 0002D0 5800 C2B2            002C8  9048             +
 0002D4 58F0 C2B6            002CC  9049             +
 0002D8 58E0 0010            00010  9050             +
 0002DC 58EE 0304            00304  9051             +
 0002E0 58EE 00CC            000CC  9052             +
 0002E4 B218 E000      00000        9053             +
 0002E8 58D0 C36E            00384  9054     598.              L     R13,RETPTR          Set VS save area address
 0002EC 58F0 C36A            00380  9055     599.              L     R15,RETCDE            Set return code
 0002F0 58E0 D00C            0000C  9056     600.              L     R14,@R13+12             Restore register 12
 0002F4 980C D014            00014  9057     601.              LM    R0,R12,@R13+20            Restore remaining registers
 0002F8 07FE                        9058     602.              BR    R14                         And return to system
1VFMT     (VFMT08) (09:47) (22MAR04) Orvyl's Disk Formatting Program                                                        Page   44
0Current Usings:  (IOB,R11) (ORVFMT,R12)
0Loc    Object Code    Addr1 Addr2  Stmt Lv Lineno    Source Statement           (Hibal 5, Asmedit 3.3)  HLASM R4.0  2004/03/22 09.47
+___    ______ ____    _____ _____  ____ __ ______    ______ _________
0                                   9060     604.     ********************************************************************
                                    9061     605.     *                                                                  *
                                    9062     606.     *  Enter/Exit 370/XA Addressing modes                              *
                                    9063     607.     *                                                                  *
                                    9064     608.     ********************************************************************
00002FA                             9066     610.     AMODE31  LABEL ,                   Enter addressing mode 31
 0002FA 5690 C322            00338  9068     611.              O     RAR,=A(X'80000000')   Set amode bit
 0002FE 0B09                        9069     612.              BSM   0,RAR                   Return with addressing mode set
-
 000300                             9071     614.     AMODE24  LABEL ,                   Enter addressing mode 24
 000300 5490 C326            0033C  9073     615.              N     RAR,=A(X'7FFFFFFF')   Clear amode 31 bit
 000304 0B09                        9074     616.              BSM   0,RAR                   Return with addressing mode set
1VFMT     (VFMT08) (09:47) (22MAR04) Orvyl's Disk Formatting Program                                                        Page   45
0Current Usings:  (IOB,R11) (ORVFMT,R12)
0Loc    Object Code    Addr1 Addr2  Stmt Lv Lineno    Source Statement           (Hibal 5, Asmedit 3.3)  HLASM R4.0  2004/03/22 09.47
+___    ______ ____    _____ _____  ____ __ ______    ______ _________
0                                   9076     618.     ¿þþþþþþþþþþþþþþþþþþþþþþþþþþþþþþþþþþþþþþþþþþþþþþþþþþþþþþþþþþþþþþþþþþþþþÜ
                                    9077     619.     Ÿ                                                                     Ÿ
                                    9078     620.     Ÿ  Define initial literal pool                                        Ÿ
                                    9079     621.     Ÿ                                                                     Ÿ
                                                      ¾þþþþþþþþþþþþþþþþþþþþþþþþþþþþþþþþþþþþþþþþþþþþþþþþþþþþþþþþþþþþþþþþþþþþþ»
-000308                             9081     623.              LTORG ,                   Generate literal pool
 000308 00001726                    9083                             =A(VFMT_INI)
 00030C 00001504                    9084                             =A(FORMDS)
 000310 00000D2E                    9085                             =A(OPENIN)
 000314 00000B52                    9086                             =A(OPENINC)
 000318 00000A2C                    9087                             =A(CHKDEV)
 00031C 00000DA8                    9088                             =A(OPENOUT)
 000320 00000001                    9089                             =A(1)
 000324 000008AE                    9090                             =A(BUILDIOB)
 000328 00000CA8                    9091                             =A(CALCSEEK)
 00032C 00000E86                    9092                             =A(GETDATA)
 000330 00000001                    9093                             =F'1'
 000334 00000480                    9094                             =A(2*L'IOB)
 000338 80000000                    9095                             =A(X'80000000')
 00033C 7FFFFFFF                    9096                             =A(X'7FFFFFFF')
 000340 D985A2A396998995            9097                             =CL10'Restoring '
 00034A 40206B2020206B20            9098                             =X'40206B2020206B202120'
 000354 000290         00876 01E00  9099                             =AL3(DONEMSG)
1VFMT     (VFMT08) (09:47) (22MAR04) Orvyl's Disk Formatting Program                                                        Page   46
0Current Usings:  (IOB,R11) (ORVFMT,R12)
0Loc    Object Code    Addr1 Addr2  Stmt Lv Lineno    Source Statement           (Hibal 5, Asmedit 3.3)  HLASM R4.0  2004/03/22 09.47
+___    ______ ____    _____ _____  ____ __ ______    ______ _________
0                                   9104     625.     ¿þþþþþþþþþþþþþþþþþþþþþþþþþþþþþþþþþþþþþþþþþþþþþþþþþþþþþþþþþþþþþþþþþþþþþÜ
                                    9105     626.     Ÿ                                                                     Ÿ
                                    9106     627.     Ÿ  PROCESS WRITE I/O ERROR                                            Ÿ
                                    9107     628.     Ÿ                                                                     Ÿ
                                                      ¾þþþþþþþþþþþþþþþþþþþþþþþþþþþþþþþþþþþþþþþþþþþþþþþþþþþþþþþþþþþþþþþþþþþþþ»
0000876                             9109     630.     IOERR    LABEL ,
 000876 47F0 C866/00         0087C  9111     631.              SYNADAF  ACSMETH=EXCP,PARM1=(IOBREG)
 00087B 00/BFF8 C864         0087A  9114             +
 000880 181B/0A44                   9117             +
 000884 D24D C7D6 1032 007EC 00032  9119     632.              MVC   IOEM+4(78),50(1)        MOVE IN I/O ERROR MESSAGE
 00088A 47F0 C87A/FF00       00890  9120     633.              SYNADRLS ,
 000890 BFF8 C878/0A44       0088E  9123             +
 000896 4110 C7D2/0A23       007E8  9126     634.              WTO   MF=(E,IOEM)
 00089C 47F0 C214            0022A  9130     635.              B     CLOSE
-
                                    9132     637.     ¿þþþþþþþþþþþþþþþþþþþþþþþþþþþþþþþþþþþþþþþþþþþþþþþþþþþþþþþþþþþþþþþþþþþþþÜ
                                    9133     638.     Ÿ                                                                     Ÿ
                                    9134     639.     Ÿ  DCB exit routine for restore DCB                                   Ÿ
                                    9135     640.     Ÿ                                                                     Ÿ
                                                      ¾þþþþþþþþþþþþþþþþþþþþþþþþþþþþþþþþþþþþþþþþþþþþþþþþþþþþþþþþþþþþþþþþþþþþþ»
-0008A0                             9137     642.     DCBEXIT  LABEL ,                       DCB EXIT ROUTINE
 USING  IHADCB,R1                   9139     643.              USING IHADCB,R1               ## DCB ADDR
 0008A0 9148 1024      00024        9148     644.              IF    (~DCBRECFM.DCBRECV*DCBRECSB),@R14
 0008A4 4780 E000            00000  9164             +
 0008A8 9660 1020      00020        9170     645.              SET   DCBBFTEK.DCBBFTA        SET BUFTK=A FOR SPANNED
 0008AC 07FE                        9177     646.              BR    R14                     RETURN TO OPEN
0DROP   IHADCB,R1                   9179     648.              DROP  R1                      ## RLSE DCB ADDR
1VFMT     (VFMT08) (09:47) (22MAR04) Orvyl's Disk Formatting Program                                                        Page   47
0Current Usings:  (IOB,R11) (ORVFMT,R12)
0Loc    Object Code    Addr1 Addr2  Stmt Lv Lineno    Source Statement           (Hibal 5, Asmedit 3.3)  HLASM R4.0  2004/03/22 09.47
+___    ______ ____    _____ _____  ____ __ ______    ______ _________
0                                   9187     650.     ¿þþþþþþþþþþþþþþþþþþþþþþþþþþþþþþþþþþþþþþþþþþþþþþþþþþþþþþþþþþþþþþþþþþþþþÜ
                                    9188     651.     Ÿ                                                                     Ÿ
                                    9189     652.     Ÿ  Build IOB pool and channel command words for writing               Ÿ
                                    9190     653.     Ÿ  full track buffers.                                                Ÿ
                                    9191     654.     Ÿ                                                                     Ÿ
                                                      ¾þþþþþþþþþþþþþþþþþþþþþþþþþþþþþþþþþþþþþþþþþþþþþþþþþþþþþþþþþþþþþþþþþþþþþ»
-0010E8                010E8 01E00  9193     656.              DATA  BEGIN
 0010E8 0000000000000000            9198  1  657.     JFCBAREA   DC    0D'0',XL176'00'     Job File Control Block area
 001198 0000000000000000            9199  1  658.     DSCBAREA   DC    0D'0',XL148'00'     Data Set Control Block area
 00122C 404040404040                9200  1  659.     VOLUME     DC    CL6' '              Returned volume serial
 001232 4040404040404040            9201  1  660.     DSNAME     DC    CL44' '             Data set name
0001260 C1/00/00/00                 9203  1  662.     DSCB       CAMLST SEARCH,DSNAME,VOLUME,DSCBAREA
 001264 00001232                    9209  1          +
 001268 0000122C                    9210  1          +
 00126C 00001198                    9211  1          +
 0008AE                00876 01E00  9212     663.              END   ,
00008AE 5090 D000            00000  9219     665.     BUILDIOB PROC  ,                   Enter and save calling registers
 0008B2 902A D004/188D       00004  9232             +
 0008B8 41D0 D028/0DA0       00028  9234             +
 0008BE 58B0 C5C2            005D8  9257     666.              L     IOBREG,IOBS         Get address of IOB's
 USING  *,R10
 0008C2 4160 0002            00002  9258     667.              LA    R6,&NUMIOB          And total number
00008C6                             9260     669.              LOOP  BEGIN               Initialize all IOB's
 0008C6                             9266  1  670.                CLEAR (IOBSTDRD,IOBSTSZE) Clear IOB to zero
 0008C6 D727 B000 B000 00000 00000  9272  1          +
 0008CC                             9273  1  671.                CLEAR ECB                 Make sure this is done
 0008CC D703 B028 B028 00028 00028  9279  1          +
0                                   9281  1  673.                ¿þþþþþþþþþþþþþþþþþþþþþþþþþþþþþþþþþþþþþþþþþþþþþþþþþþþþþþþÜ
                                    9282  1  674.                Ÿ  First determine whether current buffer will satisfy  Ÿ
                                    9283  1  675.                Ÿ  our requirements.                                    Ÿ
                                    9284  1  676.                ¾þþþþþþþþþþþþþþþþþþþþþþþþþþþþþþþþþþþþþþþþþþþþþþþþþþþþþþþ»
00008D2 5830 C592            005A8  9286  1  678.                L     R3,RPT              Records/track
 0008D6 4140 0008            00008  9287  1  679.                LA    R4,8                Length of DASD count field
 0008DA 9188 C5BB      005D1        9288  1  680.                IF    ((PFLREST+PFLFDC),OR,FILLREC),BEGIN
 0008DE 4770 A02C            008EA  9305  1          +
 0008E2 9110 C5BD      005D3        9314  1          +
 0008E6 47E0 A034            008F2  9315  1          +
 0008EA 4A40 C5A6            005BC  9320  2  681.                  AH    R4,BLOCKSIZ         Need whole buffer
 0008EE 4A40 C5AC            005C2  9321  2  682.                  AH    R4,FLHDR            Plus disk header length
 0008F2                             9322  1  683.                END   ,
 0008F2 1C24                        9326  1  684.                MR    R2,R4               X record/track
0                                   9328  1  686.                ¿þþþþþþþþþþþþþþþþþþþþþþþþþþþþÜ
                                    9329  1  687.                Ÿ  Test current buffer size  Ÿ
                                    9330  1  688.                ¾þþþþþþþþþþþþþþþþþþþþþþþþþþþþ»
 0008F4 9801 B02C            0002C  9331  1  689.                LM    R0,R1,BUFLEN        Get current buffer attr
 0008F8 1930/47D0 A060       0091E  9332  1  690.                IF    (R3,GT,R0),BEGIN    Need new buffer
1VFMT     (VFMT08) (09:47) (22MAR04) Orvyl's Disk Formatting Program                                                        Page   48
0Current Usings:  (*,R10) (IOB,R11) (ORVFMT,R12)
0Loc    Object Code    Addr1 Addr2  Stmt Lv Lineno    Source Statement           (Hibal 5, Asmedit 3.3)  HLASM R4.0  2004/03/22 09.47
+___    ______ ____    _____ _____  ____ __ ______    ______ _________
00008FE 1200/4780 A04C       0090A  9347  2  691.                  IF    (R0,NZ),BEGIN       Must free old one first
 000904 4110 1000/0A0A       00000  9361  3  692.                    FREEMAIN R,LV=(0),A=(1)   Free old buffer please
 00090A                             9365  2  693.                  END   ,
 00090A 4130 3007            00007  9369  2  694.                  LA    R3,@R3+7            Round up to
 00090E 5430 A7E2            010A0  9370  2  695.                  N     R3,=A(X'FFF8')      Double word
 000912 1803/4510 A05A       00918  9371  2  696.                  GETMAIN R,LV=(R3)         Request core
 000918 0A0A                        9375  2          +
 00091A 9001 B02C            0002C  9376  2  697.                  STM   R0,R1,BUFLEN        And save for next time
 00091E                             9377  1  698.                END   ,
0                                   9382  1  700.                ¿þþþþþþþþþþþþþþþþþþþþþþþþÜ
                                    9383  1  701.                Ÿ  Clear buffer to zero  Ÿ
                                    9384  1  702.                ¾þþþþþþþþþþþþþþþþþþþþþþþþ»
000091E 1B33                        9386  1  704.                CLEAR R3                  Zero from length and pad
 000920 5800 B030            00030  9390  1  705.                L     R0,BUFADD           Get buffer address
 000924 5810 B02C            0002C  9391  1  706.                L     R1,BUFLEN           Get buffer length
 000928 0E02                        9392  1  707.                MVCL  R0,R2               Zap buffer to zeros
0                                   9394  1  709.                ¿þþþþþþþþþþþþþþþþþþþþþþþþþþþþþþþþþþþþþþþþþþþþþþþþþþÜ
                                    9395  1  710.                Ÿ  Build CCW chain according to device type        Ÿ
                                    9396  1  711.                Ÿ  and restore requirements.  Formatting the file  Ÿ
                                    9397  1  712.                Ÿ  directory also requires whole buffers.          Ÿ
                                    9398  1  713.                ¾þþþþþþþþþþþþþþþþþþþþþþþþþþþþþþþþþþþþþþþþþþþþþþþþþþ»
000092A 5820 B030            00030  9400  1  715.                L     R2,BUFADD           Get starting buffer address
 00092E 5830 C592            005A8  9401  1  716.                L     R3,RPT              Get record/track
 000932 4150 B040            00040  9402  1  717.                LA    R5,CCWCHAIN         Start address of CCW's
 USING  CCW,R5                      9403  1  718.                USING CCW,R5              ## addr for CCW
 000936                             9412  1  719.                CLEAR CCW                 Clear CCW area
 000936 D707 5000 5000 00000 00000  9418  1          +
                                          1                      ¿þþþþþþþþþþþþþþþþþþþþþþþþþþþþþþþþþþþþþþþþþþþþþþþþÜ
0                                   9420  1  721.                Ÿ  Assume that all DASD devices now support RPS  Ÿ
                                          1                      ¾þþþþþþþþþþþþþþþþþþþþþþþþþþþþþþþþþþþþþþþþþþþþþþþþ»
 00093C 4110 B034            00034  9421  1  722.                LA    R1,IOBSECT          Sector address
 000940 5010 5000            00000  9422  1  723.                ST    R1,CCWADDR          Build set sector
 000944 9223 5000      00000        9423  1  724.                MVI   CCWOPCDE,CCWCSS       channel command
 000948 9640 5004      00004        9424  1  725.                SET   CCWFCCH                 word
 00094C 9201 5007      00007        9430  1  726.                MVI   CCWLEN+1,1
 000950 4150 5008            00008  9431  1  727.                LA    R5,8(,R5)           Bump CCW address
0000954 4110 B023            00023  9433  1  729.                LA    R1,IOBCC            Seek address from IOB
 000958 5010 5000            00000  9434  1  730.                ST    R1,CCWADDR
 00095C 9231 5000      00000        9435  1  731.                MVI   CCWOPCDE,CCWCSID    Set search <r0>
 000960 9640 5004      00004        9436  1  732.                SET   CCWFCCH             Set command chainning
 000964 9205 5007      00007        9442  1  733.                MVI   CCWLEN+1,5          And search length
 000968 1815                        9443  1  734.                LR    R1,R5               Save address for tic back
 00096A 4150 5008            00008  9444  1  735.                LA    R5,8(,R5)           Bump CCW address
 00096E 5010 5000            00000  9445  1  736.                ST    R1,CCWADDR          Tic *-8
 000972 9208 5000      00000        9446  1  737.                MVI   CCWOPCDE,CCWCTIC    Set tic operation code
 000976 9201 5007      00007        9447  1  738.                MVI   CCWLEN+1,1          Set dummy length for tic
000097A 4100 0001            00001  9449  1  740.                LA    R0,1                Set record number one
1VFMT     (VFMT08) (09:47) (22MAR04) Orvyl's Disk Formatting Program                                                        Page   49
0Current Usings:  (CCW,R5) (*,R10) (IOB,R11) (ORVFMT,R12)
0Loc    Object Code    Addr1 Addr2  Stmt Lv Lineno    Source Statement           (Hibal 5, Asmedit 3.3)  HLASM R4.0  2004/03/22 09.47
+___    ______ ____    _____ _____  ____ __ ______    ______ _________
000097E                             9450  1  741.                LOOP  BEGIN
 00097E 9640 5004      00004        9456  2  742.                  SET   CCWFCCH             Chain from last CCW
 000982 4150 5008            00008  9462  2  743.                  LA    R5,8(,R5)           Bump CCW address
0000986 5020 5000            00000  9464  2  745.                  ST    R2,CCWADDR
 00098A 921D 5000      00000        9465  2  746.                  MVI   CCWOPCDE,CCWCWRF
 00098E 9620 5004      00004        9466  2  747.                  SET   CCWFSLI
 000992 9208 5007      00007        9472  2  748.                  MVI   CCWLEN+1,8          Set write length in CCW
 000996 4200 2004            00004  9473  2  749.                  STC   R0,@R2+4            Set record number in count
 00099A 48F0 C5A6            005BC  9474  2  750.                  LH    R15,BLOCKSIZ        Block length
 00099E 4AF0 C5AC            005C2  9475  2  751.                  AH    R15,FLHDR           Plus header size
 0009A2 9102 C5BB      005D1        9476  2  752.                  IF    PFLKEY,BEGIN        If format recs with key,
 0009A6 47E0 A0F8            009B6  9486  2          +
 0009AA D200 2005 C5AD 00005 005C3  9491  3  753.                    MVC   @R2+5(1),FLHDR+1    Set key len and
 0009B0 D201 2006 C5A6 00006 005BC  9492  3  754.                    MVC   @R2+6(2),BLOCKSIZ   Set block length in count
 0009B6 A0FC           009B6 009A8  9493  2  755.                  END   ELSE,BEGIN
 0009B6 47F0 A100            009BE  9502  2          +
 0009BA 40F0 2006            00006  9508  3  756.                    STH   R15,@R2+6           Set block length in count
 0009BE                             9509  2  757.                  END   ,
 0009BE 5A00 A7E6            010A4  9513  2  758.                  A     R0,=F'1'            Bump record number
 0009C2 4120 2008            00008  9514  2  759.                  LA    R2,@R2+8            Bump buffer address
 0009C6 9188 C5BB      005D1        9515  2  760.                  IF    ((PFLREST+PFLFDC),OR,FILLREC),BEGIN
 0009CA 4770 A118            009D6  9532  2          +
 0009CE 9110 C5BD      005D3        9541  2          +
 0009D2 47E0 A11A            009D8  9542  2          +
 0009D6 1A2F                        9547  3  761.                    AR    R2,R15              Bump by whole block
 0009D8                             9548  2  762.                  END   ,
 0009D8 5B30 A7E6            010A4  9552  2  763.                  S     R3,=F'1'            Decrement RPT count
 0009DC 4780 A126            009E4  9553  2  764.                  IF    Z,EXIT              Exit loop if done
 0009E0 47F0 A0C0            0097E  9567  1  765.                END   ,
0                                   9573  1  767.                ¿þþþþþþþþþþþþþþþþþþþþþþþþþþþþþþþþþþÜ
                                    9574  1  768.                Ÿ  Set up IOB fields as required.  Ÿ
                                    9575  1  769.                ¾þþþþþþþþþþþþþþþþþþþþþþþþþþþþþþþþþþ»
00009E4 9242 B000      00000        9577  1  771.                MVI   IOBFLAG1,IOBCMDCH+IOBUNREL
 0009E8 4110 B028            00028  9578  1  772.                LA    R1,ECB              Event control block address
 0009EC 5010 B004            00004  9579  1  773.                ST    R1,IOBECBPT         Stuff in IOB
 0009F0 4110 B040            00040  9580  1  774.                LA    R1,CCWCHAIN         Ccw address
 0009F4 5010 B010            00010  9581  1  775.                ST    R1,IOBSTART         Stuff that in IOB too
 0009F8 4110 C5CE            005E4  9582  1  776.                LA    R1,DCB              DCB address
 0009FC 5010 B014            00014  9583  1  777.                ST    R1,IOBDCBPT         IOB must be getting full?
 000A00 4110 B240            00240  9584  1  778.                LA    R1,L'IOB(,IOBREG)   Bump to next IOB
 000A04 5010 B038            00038  9585  1  779.                ST    R1,IOBNEXT          Chain IOB's together
 000A08 5B60 A7E6            010A4  9586  1  780.                S     R6,=F'1'            Decrement IOB count
 000A0C 4780 A158            00A16  9587  1  781.                IF    Z,EXIT              Exit loop if done
 000A10 18B1                        9601  1  782.                LR    IOBREG,R1           Move for next IOB
 000A12 47F0 A008            008C6  9602     783.              END   ,
 000A16 5810 C5C2            005D8  9607     784.              L     R1,IOBS             First IOB
 000A1A 5010 B038            00038  9608     785.              ST    R1,IOBNEXT          Make it polarian
0000A1E 18D8/982A D004       00004  9610     787.              PEND  ,                   Return please
 DROP   *,R10
 000A24 5890 D000/12FF       00000  9626             +
1VFMT     (VFMT08) (09:47) (22MAR04) Orvyl's Disk Formatting Program                                                        Page   50
0Current Usings:  (CCW,R5) (IOB,R11) (ORVFMT,R12)
0Loc    Object Code    Addr1 Addr2  Stmt Lv Lineno    Source Statement           (Hibal 5, Asmedit 3.3)  HLASM R4.0  2004/03/22 09.47
+___    ______ ____    _____ _____  ____ __ ______    ______ _________
0000A2A 07F9                        9629             +
1VFMT     (VFMT08) (09:47) (22MAR04) Orvyl's Disk Formatting Program                                                        Page   51
0Current Usings:  (CCW,R5) (IOB,R11) (ORVFMT,R12)
0Loc    Object Code    Addr1 Addr2  Stmt Lv Lineno    Source Statement           (Hibal 5, Asmedit 3.3)  HLASM R4.0  2004/03/22 09.47
+___    ______ ____    _____ _____  ____ __ ______    ______ _________
0                                   9631     789.     ¿þþþþþþþþþþþþþþþþþþþþþþþþþþþþþþþþþþþþþþþþþþþþþþþþþþþþþþþþþþþþþþþþþþþþþÜ
                                    9632     790.     Ÿ                                                                     Ÿ
                                    9633     791.     Ÿ  Check device characteristics                                       Ÿ
                                    9634     792.     Ÿ                                                                     Ÿ
                                                      ¾þþþþþþþþþþþþþþþþþþþþþþþþþþþþþþþþþþþþþþþþþþþþþþþþþþþþþþþþþþþþþþþþþþþþþ»
-001270                010E8 01E00  9636     794.              DATA  BEGIN
 001270 0000000000000000            9641  1  795.     DVTAREA    DC    6F'0'               DEVTYPE device data return
                                    9642  1  796.   C BDM        WTO   '*** ORVFMT ***  Device not supported',
 001288 0028/8000                         1  797.                      ROUTCDE=2,DESC=6,MF=L
 00128C 5C5C5C40D6D9E5C6            9646  1          +
 001294 D4E3405C5C5C4040                  1          +
 0012B0 0400/4000                   9647  1          +
 000A2C                00876 01E00  9649     798.              END   ,
0000A2C 5090 D000            00000  9656     800.     CHKDEV   PROC  ,                   Enter and save calling registers
 000A30 902A D004/188D       00004  9669             +
 000A36 41D0 D028/0DA0       00028  9671             +
 000A3C 4120 A834            01270  9694     801.              LA    R2,DVTAREA          Get address of DEV DATA
 USING  *,R10
 000A40 4130 C5CE            005E4  9695     802.              LA    R3,DCB              Get address of DCB
 000A44 4140 A6AC            010E8  9696     803.              LA    R4,JFCBAREA         Get address of JFCB
 000A48 4150 A75C            01198  9697     804.              LA    R5,DSCBAREA         Get address of FMT1 DSCB
0USING  DVAREA,R2                   9699     806.              USING DVAREA,R2           ## DVT ADDR
 USING  IHADCB,R3                   9708     807.              USING IHADCB,R3           ## DCB ADDR
 USING  JFCB,R4                     9717     808.              USING JFCB,R4             ## JFCB ADDR
 DROP   CCW,R5                      9726     809.              USING DSCBDSCT,R5         ## FMT1 DSCB ADDR
 USING  DSCBDSCT,R5
0000A4C 4110 3028/1802       00028  9739     811.              DEVTYPE DCBDDNAM,(R2),DEVTAB,RPS    REQUEST DEVICE DATA
 000A52 1311/1300/0A18              9743             +
 000A58 12FF/4780 A02C       00A68  9746     812.              IF    (R15,NZ),BEGIN      ERROR IF NOT ZERO RETURN
 000A5E 5890 A66C/0D99       010A8  9760  1  813.                ACALL VFNOPN              Issue WTO for failure
 000A64 47F0 A0D4            00B10  9764  1  814.                EXIT  CHKDEV              Abort CHKDEV processing
 000A68                             9767     815.              END   ,
 000A68 9120 2002      00002        9771     816.              IF    ~DVACLASS.UCB3DACC,BEGIN
 000A6C 4710 A042            00A7E  9782             +
 000A70 4110 A84C/0A23       01288  9787  1  817.                WTO   MF=(E,BDM)          Report unrecognized device
 000A76 9210 C36D      00383        9791  1  818.                MVI   RETCDE+3,16         Set abnormal return coce
 000A7A 47F0 C280            00296  9792  1  819.                B     RETURN              And abort format/restore
 000A7E                             9793     820.              END   ,
                                    9797     821.              ¿þþþþþþþþþþþþþþþþþþþþþþþþþþþÜ
                                    9798     822.              Ÿ  Calculate records/track  Ÿ
                                    9799     823.              ¾þþþþþþþþþþþþþþþþþþþþþþþþþþþ»
0000A7E 4800 C5A6            005BC  9801     825.              LH    R0,BLOCKSIZ         GET BLOCKSIZE VALUE
 000A82 9102 C5BB      005D1        9802     826.              IF    PFLKEY,'ICM  R0,4,FLHDR+1'      HEADER IF KEYED
 000A86 47E0 A052            00A8E  9812             +
 000A8A BF04 C5AD            005C3  9818             +
 000A8E A056           00A8E 00A88  9823     827.              ELSE  'AH  R0,FLHDR'      OR IF PART OF DATA
 000A8E 47F0 A05A            00A96  9828             +
 000A92 4A00 C5AC            005C2  9835             +
1VFMT     (VFMT08) (09:47) (22MAR04) Orvyl's Disk Formatting Program                                                        Page   52
0Current Usings:  (DVAREA,R2) (IHADCB,R3) (JFCB,R4) (DSCBDSCT,R5) (*,R10) (IOB,R11) (ORVFMT,R12)
0Loc    Object Code    Addr1 Addr2  Stmt Lv Lineno    Source Statement           (Hibal 5, Asmedit 3.3)  HLASM R4.0  2004/03/22 09.47
+___    ______ ____    _____ _____  ____ __ ______    ______ _________
0000A96 1812                        9840     828.              LR    R1,R2               MOVE DVT AREA ADDRESS
 000A98 5890 A670/0D99       010AC  9841     829.              VCALL CALCTRK             GO GET IT GEORGE
 000A9E 9001 C58E            005A4  9845     830.              STM   R0,R1,TRBAL         SAVE TRACK BALANCE, REC/TRK
1VFMT     (VFMT08) (09:47) (22MAR04) Orvyl's Disk Formatting Program                                                        Page   53
0Current Usings:  (DVAREA,R2) (IHADCB,R3) (JFCB,R4) (DSCBDSCT,R5) (*,R10) (IOB,R11) (ORVFMT,R12)
0Loc    Object Code    Addr1 Addr2  Stmt Lv Lineno    Source Statement           (Hibal 5, Asmedit 3.3)  HLASM R4.0  2004/03/22 09.47
+___    ______ ____    _____ _____  ____ __ ______    ______ _________
0                                   9847     832.              ¿þþþþþþþþþþþþþþþþþþþþþþþþþþþþþþþþþþþþþþþþþþÜ
                                    9848     833.              Ÿ  Read Job File Control Block for device  Ÿ
                                    9849     834.              ¾þþþþþþþþþþþþþþþþþþþþþþþþþþþþþþþþþþþþþþþþþþ»
 000AA2 0700/4510 A070       00AAC  9850     835.              RDJFCB DCB                Read the JFCB
 000AA8 80/0005E4/0A40              9854             +
 000AAE 12FF/4780 A082       00ABE  9857     836.              IF    (R15,NZ),BEGIN      Error occurred accessing JFCB
 000AB4 5890 A66C/0D99       010A8  9871  1  837.                ACALL VFNOPN              Report error via WTO
 000ABA 47F0 A0D4            00B10  9875  1  838.                EXIT  CHKDEV              And abort further CHKDEV processing
 000ABE                             9878     839.              END   ,
 000ABE D22B A7F6 4000 01232 00000  9882     840.              MVC   DSNAME,JFCBDSNM     Get data set name from JFCB
 000AC4 D205 A7F0 4076 0122C 00076  9883     841.              MVC   VOLUME,JFCBVOLS     GET VOLSER FROM JFCB
 000ACA 4800 C5A6            005BC  9884     842.              LH    R0,BLOCKSIZ         GET REQUESTED BLOCKSIZE
 000ACE 9102 C5BB      005D1        9885     843.              IF    PFLKEY,BEGIN        IF FORMAT RECS WITH KEY,
 000AD2 47E0 A0A0            00ADC  9895             +
 000AD6 D200 405D C5AD 0005D 005C3  9900  1  844.                MVC   JFCKEYLE,FLHDR+1    FILL IN KEY LEN AND
 000ADC A0A4           00ADC 00AD4  9901     845.              END   ELSE,BEGIN
 000ADC 47F0 A0AC            00AE8  9910             +
 000AE0 4A00 C5AC            005C2  9916  1  846.                AH    R0,FLHDR            GET TOTAL SIZE
 000AE4 9200 405D      0005D        9917  1  847.                CLEAR JFCKEYLE            Make sure Key is zero
 000AE8                             9924     848.              END   ,
 000AE8 4000 4066            00066  9928     849.              STH   R0,JFCBLKSI         IN JFCB LOGICAL RECORD
 000AEC 4000 4068            00068  9929     850.              STH   R0,JFCLRECL         AND LOGICAL RECORD SIZE
 000AF0 96C0 4057      00057        9930     851.              SET   JFCBIND2.JFCNEW     Set DISP=NEW for FMT1 update
 000AF4 9604 4034      00034        9937     852.              SET   JFCBTSDM.JFCNDSCB   Set for no merge with DSCB
                                    9944     853.              ¿þþþþþþþþþþþþþþþþþþþþþþþþþþþþþþþþþÜ
                                    9945     854.              Ÿ  Read Format 1 DSCB for device  Ÿ
                                    9946     855.              ¾þþþþþþþþþþþþþþþþþþþþþþþþþþþþþþþþþ»
 000AF8 4110 A824/0A1B       01260  9947     856.              OBTAIN DSCB               REQUEST FMT1 DSCB
 000AFE 12FF/4780 A0D2       00B0E  9951     857.              IF    (R15,NZ),BEGIN      QUIT IF BAD
 000B04 5890 A66C/0D99       010A8  9965  1  858.                ACALL VFNOPN              Report error
 000B0A 47F0 A0D4            00B10  9969  1  859.                EXIT  CHKDEV              And abort CHKDEV processing
 000B0E                             9972     860.              END   ,
 000B0E 1BFF                        9976     861.              CLEAR R15                 CLEAR FOR RETURN CODE
 000B10 18D8/982A D004       00004  9980     862.              PEND  ,                   RETURN WITH ZERO CODE
 DROP   *,R10
 000B16 5890 D000/12FF       00000  9996             +
 000B1C 07F9                        9999             +
0DROP   DVAREA,R2                  10001     864.              DROP  R2,R3,R4,R5         ## RLSE ADDR
 DROP   IHADCB,R3
 DROP   JFCB,R4
 DROP   DSCBDSCT,R5
1VFMT     (VFMT08) (09:47) (22MAR04) Orvyl's Disk Formatting Program                                                        Page   54
0Current Usings:  (IOB,R11) (ORVFMT,R12)
0Loc    Object Code    Addr1 Addr2  Stmt Lv Lineno    Source Statement           (Hibal 5, Asmedit 3.3)  HLASM R4.0  2004/03/22 09.47
+___    ______ ____    _____ _____  ____ __ ______    ______ _________
0                                  10027     866.     ¿þþþþþþþþþþþþþþþþþþþþþþþþþþþþþþþþþþþþþþþþþþþþþþþþþþþþþþþþþþþþþþþþþþþþþÜ
                                   10028     867.     Ÿ                                                                     Ÿ
                                   10029     868.     Ÿ   Report unable for format requested volume                         Ÿ
                                   10030     869.     Ÿ                                                                     Ÿ
                                                      ¾þþþþþþþþþþþþþþþþþþþþþþþþþþþþþþþþþþþþþþþþþþþþþþþþþþþþþþþþþþþþþþþþþþþþþ»
0000B1E 5090 D000            00000 10032     871.     VFNOPN   PROC  ,                   Enter and save calling registers
 000B22 902A D004/188D       00004 10045             +
 000B28 41D0 D028/0DA0       00028 10047             +
 000B2E D201 C6CC C699 006E2 006AF 10070     872.              MVC   NFMPF(2),SFMPF      Set volume name
 USING  *,R10
 000B34 D203 C6C7 C694 006DD 006AA 10071     873.              MVC   NFMDD(4),SFMDD      Set ddname
 000B3A 4110 C6A2/0A23       006B8 10072     874.              WTO   MF=(E,NFM)          Issue error message
 000B40 41F0 0008            00008 10076     875.              LA    R15,8               Set error return
 000B44 18D8/982A D004       00004 10077     876.              PEND  ,                   And return in error
 DROP   *,R10
 000B4A 5890 D000/12FF       00000 10093             +
 000B50 07F9                       10096             +
1VFMT     (VFMT08) (09:47) (22MAR04) Orvyl's Disk Formatting Program                                                        Page   55
0Current Usings:  (IOB,R11) (ORVFMT,R12)
0Loc    Object Code    Addr1 Addr2  Stmt Lv Lineno    Source Statement           (Hibal 5, Asmedit 3.3)  HLASM R4.0  2004/03/22 09.47
+___    ______ ____    _____ _____  ____ __ ______    ______ _________
0                                  10098     878.     ¿þþþþþþþþþþþþþþþþþþþþþþþþþþþþþþþþþþþþþþþþþþþþþþþþþþþþþþþþþþþþþþþþþþþþþÜ
                                   10099     879.     Ÿ                                                                     Ÿ
                                   10100     880.     Ÿ  Open processing for incremental restore DCB                        Ÿ
                                   10101     881.     Ÿ                                                                     Ÿ
                                                      ¾þþþþþþþþþþþþþþþþþþþþþþþþþþþþþþþþþþþþþþþþþþþþþþþþþþþþþþþþþþþþþþþþþþþþþ»
-0012B4                010E8 01E00 10103     883.              DATA  BEGIN
                                   10108  1  884.   C INCDATA    DCB   DDNAME=INCDATA,DSORG=PS,MACRF=(GL),EODAD=INCEND,
 0012B4                                   1  885.                      EXLST=RESTEXLS
 0012B4 0000000000000000           10115  1          +
 0012C4 00000000/00                10116  1          +
 0012C9 000001/0000                10119  1          +
 0012CE 4000/00000001              10121  1          +
 0012D4 00/000C2A/00               10124  1          +
 0012D9 0005E0                     10127  1          +
 0012DC C9D5C3C4C1E3C140           10129  1          +
 0012E4 02/00/4800/00              10130  1          +
 0012E9 000001                     10135  1          +
 0012EC 00000001/0000              10136  1          +
 0012F2 0000/00000000              10138  1          +
 0012F8 00000001                   10140  1          +
 0012FC 00000001                   10142  1          +
 001300 00000001/0000              10143  1          +
 001306 0000/00/000001             10145  1          +
 00130C 00000000                   10148  1          +
 001310 00000001                   10149  1          +
 000B52                00876 01E00 10150     886.              END   ,
 000B52 5090 D000            00000 10156     887.     OPENINC  PROC  ,                   Enter and save calling registers
 000B56 902A D004/188D       00004 10169             +
 000B5C 41D0 D028/0DA0       00028 10171             +
 000B62 4120 A752            012B4 10194     888.              LA    R2,INCDATA          Address of restore dcb
 USING  *,R10
 USING  IHADCB,R2                  10195     889.              WITH  (IHADCB,R2)         Addressability for the dcb
 000B66 0700/4510 A00E       00B70 10208     890.              OPEN  (INCDATA,(INPUT))   Open incremental dcb for input
 000B6C 80/0012B4/0A13             10211             +
 000B72 41F0 0004            00004 10214     891.              LA    R15,4               Set bad return initially
 000B76 9110 2030      00030       10215     892.              IF    DCBOFLGS.DCBOFOPN,BEGIN Continue of successful open
 000B7A 47E0 A04E            00BB0 10226             +
 000B7E 4800 2052            00052 10231  1  893.                LH    R0,DCBLRECL         Load logical record length
 000B82 9140 2024      00024       10232  1  894.                IF    DCBRECFM.DCBRECV,BEGIN  Adjust for variable records
 000B86 47E0 A030            00B92 10243  1          +
 000B8A 5B00 A54E            010B0 10248  2  895.                  S     R0,=A(4)                Decrement for RDW count
 000B8E 9640 C5BD      005D3       10249  2  896.                  SET   INCVBF                  Set RECFM VB restore tape
 000B92                            10255  1  897.                END   ,
 000B92 4B00 C5AE            005C4 10259  1  898.                SH    R0,DTHDR                Minus tape header length
 000B96 4900 C5A6            005BC 10260  1  899.                IF    (R0,EQ,BLOCKSIZ),BEGIN
 000B9A 4770 A04E            00BB0 10272  1          +
 000B9E 4110 A752/1FFF       012B4 10277  2  900.                  GET   INCDATA                 Prime first incremental buffer
 000BA4 BFF7 1031/05EF       00031 10281  2          +
 000BAA 5010 C576            0058C 10283  2  901.                  ST    R1,INCBUFR              Save address of first buffer
 000BAE 1BFF                       10284  2  902.                  CLEAR R15                     Set good return code
 000BB0                            10288  1  903.                END   ,
 000BB0                            10292     904.              END   ,
1VFMT     (VFMT08) (09:47) (22MAR04) Orvyl's Disk Formatting Program                                                        Page   56
0Current Usings:  (IOB,R11) (ORVFMT,R12)
0Loc    Object Code    Addr1 Addr2  Stmt Lv Lineno    Source Statement           (Hibal 5, Asmedit 3.3)  HLASM R4.0  2004/03/22 09.47
+___    ______ ____    _____ _____  ____ __ ______    ______ _________
0000BB0 18D8/982A D004       00004 10296     905.              PEND  ,                   Restore registers and return
 DROP   IHADCB,R2
 DROP   *,R10
 000BB6 5890 D000/12FF       00000 10317             +
 000BBC 07F9                       10320             +
1VFMT     (VFMT08) (09:47) (22MAR04) Orvyl's Disk Formatting Program                                                        Page   57
0Current Usings:  (IOB,R11) (ORVFMT,R12)
0Loc    Object Code    Addr1 Addr2  Stmt Lv Lineno    Source Statement           (Hibal 5, Asmedit 3.3)  HLASM R4.0  2004/03/22 09.47
+___    ______ ____    _____ _____  ____ __ ______    ______ _________
0                                  10322     907.     ¿þþþþþþþþþþþþþþþþþþþþþþþþþþþþþþþþþþþþþþþþþþþþþþþþþþþþþþþþþþþþþþþþþþþþþÜ
                                   10323     908.     Ÿ                                                                     Ÿ
                                   10324     909.     Ÿ  Check for incremental data block replacement                       Ÿ
                                   10325     910.     Ÿ                                                                     Ÿ
                                                      ¾þþþþþþþþþþþþþþþþþþþþþþþþþþþþþþþþþþþþþþþþþþþþþþþþþþþþþþþþþþþþþþþþþþþþþ»
-000BBE 5090 D000            00000 10327     912.     CHKINC   PROC  ,
 000BC2 902A D004/188D       00004 10340             +
 000BC8 41D0 D028/0DA0       00028 10342             +
 USING  *,R10                      10365     913.              LOOP  BEGIN               Look for incremental block
 000BCE 5840 C576            0058C 10371  1  914.                L     R4,INCBUFR          ADDRESS OF INCREMENTAL BUFFER
 000BD2 4850 A738            01306 10372  1  915.                LH    R5,INCDATA+DCBLRECL-IHADCB    fixed length block
 000BD6 9140 C5BD      005D3       10373  1  916.                IF    INCVBF,BEGIN        Whoops, vb(s) data
 000BDA 47E0 A01C            00BEA 10383  1          +
 000BDE 4850 4000            00000 10388  2  917.                  LH    R5,@R4              Set length from rdw field
 000BE2 5B50 A4E2            010B0 10389  2  918.                  S     R5,=A(4)            Adjust for rdw length
 000BE6 4140 4004            00004 10390  2  919.                  LA    R4,@R4+4            Move past rdw field
 000BEA                            10391  1  920.                END   ,
 000BEA D502 4000 2000 00000 00000 10395  1  921.                CLC   @R4(3),@R2          Compare block number
 000BF0 4750 A030            00BFE 10396  1  922.                IF    GE,BEGIN            Found possible block match
 000BF4 4770 A02E            00BFC 10407  2  923.                  IF    EQ,BEGIN            Found match, replace pointers
 000BF8 1824                       10418  3  924.                    LR    R2,R4               Move block address
 000BFA 1835                       10419  3  925.                    LR    R3,R5               Move block length
 000BFC                            10420  2  926.                  END   ,
 000BFC 1BFF                       10424  2  927.                  CLEAR R15                 Set for loop exit
 000BFE A034           00BFE 00BF2 10428  1  928.                END   ELSE,BEGIN          Process next block
 000BFE 47F0 A052            00C20 10437  1          +
 000C02 4110 A6E6/1FFF       012B4 10443  2  929.                  GET   INCDATA             Read next incremental block
 000C08 BFF7 1031/05EF       00031 10447  2          +
 000C0E 5010 C576            0058C 10449  2  930.                  ST    R1,INCBUFR          Reset buffer address
 000C12 1BFF                       10450  2  931.                  CLEAR R15                 Set for eof on incremental
 000C14 9104 C5BB      005D1       10454  2  932.                  IF    PFLINC,'LA R15,4'   Set for check next block
 000C18 47E0 A052            00C20 10464  2          +
 000C1C 41F0 0004            00004 10470  2          +
 000C20                            10475  1  933.                END   ,
 000C20 12FF/4770 A000       00BCE 10479     934.              UNTIL (R15,Z),END         Exit on r15 set to zero
 000C26 47F0 A0CC            00C9A 10501     935.              EXIT  CHKINC              Return to CHKINC caller
-                                  10505     937.     ¿þþþþþþþþþþþþþþþþþþþþþþþþþþþþþþþþþþþþþþþþþþþþþþþþþþþþþþþþþþþþþþþþþþþþþÜ
                                   10506     938.     Ÿ                                                                     Ÿ
                                   10507     939.     Ÿ  incremental restore end of file exit routine                       Ÿ
                                   10508     940.     Ÿ                                                                     Ÿ
                                                      ¾þþþþþþþþþþþþþþþþþþþþþþþþþþþþþþþþþþþþþþþþþþþþþþþþþþþþþþþþþþþþþþþþþþþþþ»
0000C2A                            10510     942.     INCEND   LABEL ,
 000C2A 50E0 D000            00000 10512     943.              VPUSH R14,,*              Save return address
 000C2E 41D0 D004            00004 10514             +
 000C32 0700/4510 A06E       00C3C 10515     944.              CLOSE INCDATA             Close restore file
 000C38 80/0012B4/0A14             10518             +
 000C3E 4110 A6E6            012B4 10521     945.              FREEPOOL INCDATA          Release INCDATA buffer pool
 000C42 9101 1017      00017       10524             +
 000C46 4710 A0BE/1FFF       00C8C 10525             +
1VFMT     (VFMT08) (09:47) (22MAR04) Orvyl's Disk Formatting Program                                                        Page   58
0Current Usings:  (*,R10) (IOB,R11) (ORVFMT,R12)
0Loc    Object Code    Addr1 Addr2  Stmt Lv Lineno    Source Statement           (Hibal 5, Asmedit 3.3)  HLASM R4.0  2004/03/22 09.47
+___    ______ ____    _____ _____  ____ __ ______    ______ _________
0000C4C BFF7 1015            00015 10527             +
 000C50 58E0 F000/12EE       00000 10528             +
 000C56 4770 A094            00C62 10530             +
 000C5A 9130 F004      00004       10531             +
 000C5E 4770 A0BE            00C8C 10532             +
 000C62 9601 1017/1BEE 00017       10533             +
 000C68 1B11/BF13 F006       00006 10535             +
 000C6E 43E0 F005/1C0E       00005 10537             +
 000C74 4110 1008            00008 10539             +
 000C78 9140 F004      00004       10540             +
 000C7C 47E0 A0B6            00C84 10541             +
 000C80 4110 1008/1801       00008 10542             +
 000C86 4110 F000/0A0A       00000 10544             +
 000C8C 94FB C5BB      005D1       10547     946.              CLEAR PFLINC              Clear incremental restore
 000C90 4BD0 A502            010D0 10554     947.              VPOP  R14,,*              Restore return register
 000C94 58E0 D000            00000 10556             +
 000C98 07FE                       10557     948.              BR    R14                 Return after get
0000C9A 18D8/982A D004       00004 10559     950.              PEND  ,
 DROP   *,R10
 000CA0 5890 D000/12FF       00000 10575             +
 000CA6 07F9                       10578             +
1VFMT     (VFMT08) (09:47) (22MAR04) Orvyl's Disk Formatting Program                                                        Page   59
0Current Usings:  (IOB,R11) (ORVFMT,R12)
0Loc    Object Code    Addr1 Addr2  Stmt Lv Lineno    Source Statement           (Hibal 5, Asmedit 3.3)  HLASM R4.0  2004/03/22 09.47
+___    ______ ____    _____ _____  ____ __ ______    ______ _________
0                                  10580     952.     ¿þþþþþþþþþþþþþþþþþþþþþþþþþþþþþþþþþþþþþþþþþþþþþþþþþþþþþþþþþþþþþþþþþþþþþÜ
                                   10581     953.     Ÿ                                                                     Ÿ
                                   10582     954.     Ÿ  CALCULATE SEEK ADDRESS                                             Ÿ
                                   10583     955.     Ÿ                                                                     Ÿ
                                   10584     956.     Ÿ  INPUT - R15 HAS LOGICAL TRACK NUMBER                               Ÿ
                                   10585     957.     Ÿ                                                                     Ÿ
                                   10586     958.     Ÿ  OUTPUT - IOBSEEK HAS SEEK ADDRESS                                  Ÿ
                                   10587     959.     Ÿ                                                                     Ÿ
                                                      ¾þþþþþþþþþþþþþþþþþþþþþþþþþþþþþþþþþþþþþþþþþþþþþþþþþþþþþþþþþþþþþþþþþþþþþ»
0000CA8 5090 D000            00000 10589     961.     CALCSEEK PROC  ,                       SAVE REGISTERS
 000CAC 902A D004/188D       00004 10602             +
 000CB2 41D0 D028/0DA0       00028 10604             +
 000CB8 4120 A5B8            01270 10627     962.              LA    R2,DVTAREA              ADDRESS OF DVT DATA
 USING  *,R10
 USING  DVAREA,R2                  10628     963.              USING DVAREA,R2               ## ADDR FOR DVT
 000CBC 5810 C5FA            00610 10637     964.              L     R1,DCB+(DCBDEBAD-IHADCB)  THE DEB
 USING  DEBBASIC,R1                10638     965.              USING DEBBASIC,R1             ##
 000CC0 1BEE                       10647     966.              CLEAR R14                     CLEAR
 000CC2 1F00/4300 1010       00034 10651     967.              LC    R0,DEBNMEXT             NUMBER OF EXTENTS
 000CC8 4110 1020            00044 10656     968.              LA    R1,DEBBASND             DEB EXTENT TABLE
 DROP   DEBBASIC,R1                10657     969.              USING DEBDASD,R1              ##
 USING  DEBDASD,R1
 000CCC                            10669     970.     SEEKLOOP LABEL ,
 000CCC 1F33/BF33 100E       0000E 10671     971.              L2    R3,DEBNMTRK         SET TRACKS IN THIS EXTENT
 000CD2 15F3                       10679     972.              CLR   R15,R3              WITHIN CURRENT EXTENT?
 000CD4 4740 A03E            00CF6 10680     973.              BL    SETSEEK                 BRANCH IF SO
 000CD8 1FF3                       10681     974.              SLR   R15,R3              DECREMENT NUMBER OF TRACKS
 000CDA 4110 1010            00010 10682     975.              LA    R1,DEBDASDE         POINT AT NEXT EXTENT
 000CDE 5AE0 A3EC            010A4 10683     976.              A     R14,=F'1'           INCREMENT EXTENT NUMBER
 000CE2 4600 A014            00CCC 10684     977.              BCT   R0,SEEKLOOP         KEEP LOOKING
 000CE6 4110 005B            0005B 10685     978.              ABEND 91,DUMP             OY!
 000CEA 4100 0080            00080 10690             +
 000CEE 8900 0018/1610       00018 10691             +
 000CF4 0A0D                       10693             +
 000CF6 D205 B021 1004 00021 00004 10694     979.     SETSEEK  MVC   IOBBB(6),DEBBINUM   SET STARTING BBCCHH
 000CFC 42E0 B020            00020 10695     980.              STC   R14,IOBM            SET EXTENT
 000D00 1F00/BF03 B025       00025 10696     981.              L2    R0,IOBHH            GET TRACK NUMBER
 000D06 1AF0                       10702     982.              AR    R15,R0              ADD TO REMAINING TRACKS
 000D08 1BEE                       10703     983.              CLEAR R14                 CLEAR FOR DIVIDE
 000D0A 4800 200A            0000A 10707     984.              LH    R0,DVATRK           GET NUMBER  OF TRACKS/CYL
 000D0E 1DE0                       10708     985.              DR    R14,R0              DOIT
 000D10 1F00/BF03 B023       00023 10709     986.              L2    R0,IOBCC            GET CYLINDER NUMBER
 000D16 1AF0                       10715     987.              AR    R15,R0
 000D18 40F0B023                   10716     988.              ST2   R15,IOBCC
 000D1C 40E0B025                   10718     989.              ST2   R14,IOBHH
 000D20 18D8/982A D004       00004 10720     990.              PEND  ,
 DROP   *,R10
 000D26 5890 D000/12FF       00000 10736             +
 000D2C 07F9                       10739             +
 DROP   DEBDASD,R1                 10740     991.              DROP  R1,R2               ## RLSE DEB AND DVT ADDR
 DROP   DVAREA,R2
1VFMT     (VFMT08) (09:47) (22MAR04) Orvyl's Disk Formatting Program                                                        Page   60
0Current Usings:  (IOB,R11) (ORVFMT,R12)
0Loc    Object Code    Addr1 Addr2  Stmt Lv Lineno    Source Statement           (Hibal 5, Asmedit 3.3)  HLASM R4.0  2004/03/22 09.47
+___    ______ ____    _____ _____  ____ __ ______    ______ _________
0                                  10754     993.     ¿þþþþþþþþþþþþþþþþþþþþþþþþþþþþþþþþþþþþþþþþþþþþþþþþþþþþþþþþþþþþþþþþþþþþþÜ
                                   10755     994.     Ÿ                                                                     Ÿ
                                   10756     995.     Ÿ  Do open processing for "RESTORE" operation                         Ÿ
                                   10757     996.     Ÿ                                                                     Ÿ
                                                      ¾þþþþþþþþþþþþþþþþþþþþþþþþþþþþþþþþþþþþþþþþþþþþþþþþþþþþþþþþþþþþþþþþþþþþþ»
-000D2E 5090 D000            00000 10759     998.     OPENIN   PROC  ,                   Enter and save calling registers
 000D32 902A D004/188D       00004 10772             +
 000D38 41D0 D028/0DA0       00028 10774             +
 000D3E 4120 C602            00618 10797     999.              LA    R2,RESTDCB          ADDRESS OF RESTORE DCB
 USING  *,R10
 USING  IHADCB,R2                  10798    1000.              WITH  (IHADCB,R2)         Addressability to the DCB
 000D42 0700/4510 A00E       00D4C 10811    1001.              OPEN  (RESTDCB,(INPUT))   Open restore DCB for input
 000D48 80/000618/0A13             10814             +
 000D4E 41F0 0004            00004 10817    1002.              LA    R15,4               Set bad return initially
 000D52 9110 2030      00030       10818    1003.              IF    DCBOFLGS.DCBOFOPN,BEGIN Continue on successful open
 000D56 47E0 A05C            00D9A 10829             +
 000D5A 4800 2052            00052 10834  1 1004.                LH    R0,DCBLRECL             Load logical record length
 000D5E 9140 2024      00024       10835  1 1005.                IF    DCBRECFM.DCBRECV,BEGIN  Adjust if RECFM=VB(S)
 000D62 47E0 A030            00D6E 10846  1          +
 000D66 5B00 A372            010B0 10851  2 1006.                  S     R0,=A(4)                Decrement for control field
 000D6A 9680 C5BD      005D3       10852  2 1007.                  SET   RESVBF                  Set RECFM VB restore tape
 000D6E                            10858  1 1008.                END   ,
 000D6E 41F0 0004            00004 10862  1 1009.                LA    R15,4                   Set bad return code
 000D72 4B00 C5AE            005C4 10863  1 1010.                SH    R0,DTHDR                Minus tape header length
 000D76 4900 C5A6            005BC 10864  1 1011.                IF    (R0,EQ,BLOCKSIZ),BEGIN  Test for old header length
 000D7A 4770 A042            00D80 10876  1          +
 000D7E 1BFF                       10881  2 1012.                  CLEAR R15                     Set good ret code
 000D80 A046           00D80 00D7C 10885  1 1013.                END   ELSE,BEGIN              Try for new header of 12
 000D80 47F0 A05C            00D9A 10894  1          +
 000D84 4110 000C            0000C 10900  2 1014.                  LA    R1,12                   Set header length
 000D88 4010 C5AE            005C4 10901  2 1015.                  STH   R1,DTHDR                Save in header length field
 000D8C 5B00 A372            010B0 10902  2 1016.                  S     R0,=A(4)                Minus 4 for total of 12
 000D90 4900 C5A6            005BC 10903  2 1017.                  IF    (R0,EQ,BLOCKSIZ),'CLEAR R15'  Set good return code
 000D94 4770 A05C/1BFF       00D9A 10915  2          +
 000D9A                            10929  1 1018.                END   ,
 000D9A                            10933    1019.              END   ,
 000D9A 18D8/982A D004       00004 10937    1020.              PEND  ,                   Restore registers and return
 DROP   IHADCB,R2
 DROP   *,R10
 000DA0 5890 D000/12FF       00000 10958             +
 000DA6 07F9                       10961             +
1VFMT     (VFMT08) (09:47) (22MAR04) Orvyl's Disk Formatting Program                                                        Page   61
0Current Usings:  (IOB,R11) (ORVFMT,R12)
0Loc    Object Code    Addr1 Addr2  Stmt Lv Lineno    Source Statement           (Hibal 5, Asmedit 3.3)  HLASM R4.0  2004/03/22 09.47
+___    ______ ____    _____ _____  ____ __ ______    ______ _________
0                                  10963    1022.     ¿þþþþþþþþþþþþþþþþþþþþþþþþþþþþþþþþþþþþþþþþþþþþþþþþþþþþþþþþþþþþþþþþþþþþþÜ
                                   10964    1023.     Ÿ                                                                     Ÿ
                                   10965    1024.     Ÿ  OPENOUT -- Open output file volume.                                Ÿ
                                   10966    1025.     Ÿ                                                                     Ÿ
                                   10967    1026.     Ÿ        The UCB device number is obtained from the data extent       Ÿ
                                   10968    1027.     Ÿ        block which in turn is used to obtain the address of         Ÿ
                                   10969    1028.     Ÿ        the true UCB which may reside either below or above the      Ÿ
                                   10970    1029.     Ÿ        16MB line.  This routine supports both 3 digit and 4 digit   Ÿ
                                   10971    1030.     Ÿ        UCB device numbers.                                          Ÿ
                                   10972    1031.     Ÿ                                                                     Ÿ
                                   10973    1032.     Ÿ                                                                     Ÿ
                                                      ¾þþþþþþþþþþþþþþþþþþþþþþþþþþþþþþþþþþþþþþþþþþþþþþþþþþþþþþþþþþþþþþþþþþþþþ»
-001314                010E8 01E00 10975    1034.              DATA  BEGIN
                                   10980  1 1035.   C NOUCB      WTO   '*** ORVFMT ***  UCB not found',
 001314 0021/8000                         1 1036.                      ROUTCDE=2,DESC=6,MF=L
 001318 5C5C5C40D6D9E5C6           10984  1          +
 001320 D4E3405C5C5C4040                  1          +
 001335 0400/4000                  10985  1          +
 000DA8                00876 01E00 10987    1037.              END   ,
-000000                00000 00014 10994    1039.     OPENOWK  RECORD BEGIN              Work area for openout processing
 000000 00000000                   11002  1 1040.     UCBCMAD    DC    A(0)                Address of ucb common segment
 000004 00000000                   11003  1 1041.     UCBCEAD    DC    A(0)                Address of common extension
 000008 00000000                   11004  1 1042.     UCBCPAD    DC    A(0)                Address of prefix extension
 00000C 00000000                   11005  1 1043.     UCBRTCD    DC    A(0)                UCBLOOK return code
 000010 00000000                   11006  1 1044.     UCBRECD    DC    A(0)                UCBLOOK reason code
 000014                00014 00014 11007    1045.              END   ,
0000DA8 5090 D000            00000 11017    1047.     OPENOUT  PROC  OPENOWK             Enter and save calling registers
 000DAC 902A D004/188D       00004 11031             +
 000DB2 41D0 D03C/0DA0       0003C 11034             +
 USING  *,R10                      11066    1048.              CLEAR OPENOWK             Clean stack work area
 USING  OPENOWK-(4+36),R8
 000DB8 D713 8028 8028 00000 00000 11072             +
 USING  IHADCB,R2                  11073    1049.              WITH  (IHADCB,R2)         Addressability to dcb
 000DBE 4120 C5CE            005E4 11086    1050.              LA    R2,DCB              Get dcb address for output
 000DC2 0700/4510 A014       00DCC 11087    1051.              OPEN  (DCB,OUTPUT),TYPE=J Open output file
 000DC8 8F/0005E4/0A16             11090             +
 000DCE 9110 2030      00030       11093    1052.              IF    DCBOFLGS.DCBOFOPN,BEGIN
 000DD2 47E0 A0B8            00E70 11104             +
                                   11109  1 1053.                ¿þþþþþþþþþþþþþþþþþþþþþþþþþþþþþþþþþþþþÜ
                                   11110  1 1054.                Ÿ  Check for 3880 mod 23 controller  Ÿ
                                   11111  1 1055.                ¾þþþþþþþþþþþþþþþþþþþþþþþþþþþþþþþþþþþþ»
 000DD6 5830 202C            0002C 11112  1 1056.                L     R3,DCBDEBAD         DEB address
 000DDA 4110 3020            00020 11113  1 1057.                LA    R1,DEBBASND-DEBBASIC(,R3)     DASD extension address
 000DDE 5810 1000            00000 11114  1 1058.                L     R1,DEBUCBAD-DEBDASD(,R1)      UCB ADDRESS
                                          1                      ¿þþþþþþþþþþþþþþþþþþþþþþþþþþþþþþþþþþþþþþþþþþþþþþþþþþþþþþþÜ
                                   11115  1 1059.                Ÿ  Obtain UCB common, extenstion, and prefix addresses  Ÿ
                                          1                      ¾þþþþþþþþþþþþþþþþþþþþþþþþþþþþþþþþþþþþþþþþþþþþþþþþþþþþþþþ»
 000DE2 4110 1004            00004 11116  1 1060.                LA    R1,UCBCHAN-UCBOB(,R1)   Address of halfword device no.
 000DE6 41F0 8028            00000 11117  1 1061.                LA    R15,UCBCMAD             Address of return cells
1VFMT     (VFMT08) (09:47) (22MAR04) Orvyl's Disk Formatting Program                                                        Page   62
0Current Usings:  (IHADCB,R2) (OPENOWK-(4+36),R8) (*,R10) (IOB,R11) (ORVFMT,R12)
0Loc    Object Code    Addr1 Addr2  Stmt Lv Lineno    Source Statement           (Hibal 5, Asmedit 3.3)  HLASM R4.0  2004/03/22 09.47
+___    ______ ____    _____ _____  ____ __ ______    ______ _________
0000DEA 58E0 A2FC/0DEE       010B4 11118  1 1062.                XCALL RETUCBA             Retreive true UCB address(es)
 000DF0 4780 A04A            00E02 11122  1 1063.                IF    NZ,BEGIN
 000DF4 50F0 C36A            00380 11133  2 1064.                  ST    R15,RETCDE          Set return code
 000DF8 4110 A55C/0A23       01314 11134  2 1065.                  WTO   MF=(E,NOUCB)        Issue wto error message
 000DFE 47F0 C280            00296 11138  2 1066.                  B     RETURN              And take error exit
 000E02                            11139  1 1067.                END   ,
 000E02 5810 8028            00000 11143  1 1068.                L     R1,UCBCMAD          ADDRESS OF UCB COMMON SEGMENT
 000E06 41E0 A076/0BE0       00E2E 11144  1 1069.                IOSDCXR ,                 Obtain address of the DDCE
 000E0C 41F0 A064            00E1C 11154  1          +
 000E10 56F0 A060/0B0F       00E18 11156  1          +
 000E16 0000/80000000                     1          +
 000E1C 58F0 0010            00010 11161  1          +
 000E20 58FF 007C            0007C 11162  1          +
 000E24 58FF 00D0            000D0 11163  1          +
 000E28 58FF 00A4/07FF       000A4 11164  1          +
                                   11169  1          +*                                            IOSDCXR-1
0000E2E 4D90 C2E4            002FA 11171  1 1070.                LCALL AMODE31             Enter 31-bit addressing mode
 000E32                            11173  1 1071.                BEGIN ,
 USING  DCE,R1                     11177  2 1072.                  WITH  (DCE,R1)            Addressability to device char.
 000E32 9110 1010      00010       11190  2 1073.                  IF    ~DCEFEAT1.DCECACHE,EXIT   Just plain old disk
 000E36 47E0 A0B2            00E6A 11203  2          +
                                   11209  2 1074.                  ¿þþþþþþþþþþþþþþþþþþþþþþþþþþþþþþþþþþþþþþþþþþþþþþþþþþþþþþþþþþÜ
                                   11210  2 1075.                  Ÿ  Got a mod 23 - set bits in DEB to bypass cache loading  Ÿ
                                   11211  2 1076.                  ¾þþþþþþþþþþþþþþþþþþþþþþþþþþþþþþþþþþþþþþþþþþþþþþþþþþþþþþþþþþ»
 000E3A 5B30 A300            010B8 11212  2 1077.                  S     R3,=A(DEBPREFE-DEBPREFX)      POINT AT DEB PREFIX
 000E3E 5830 3008            0001C 11213  2 1078.                  WITH  (DEBPREFX,R3),'L  R3,DEBXTNP' DEB EXTENSION
 USING  DEBPREFX,R3
 DROP   DEBPREFX,R3
 USING  DEBXTN,R3                  11237  2 1079.                  WITH  (DEBXTN,R3)
 000E42 0700/4510 A094       00E4C 11250  2 1080.                  MODESET KEY=ZERO          Enter key-zero for update
 000E48 00000030                   11254  2          +
 000E4C 5810 1000/0A6B       00000 11255  2          +
 000E52 9640 3028      00028       11257  2 1081.                  SET   DEBDEFG1.DEBXVDEF   Note define extent parm
 000E56 9604 3029      00029       11264  2 1082.                  SET   DEBGATTR.DEBBCACH   Bypass cache loading
 000E5A 0700/4510 A0AC       00E64 11271  2 1083.                  MODESET KEY=NZERO         Resume problem state key
 000E60 00000020                   11275  2          +
 000E64 5810 1000/0A6B       00000 11276  2          +
 DROP   DEBXTN,R3                  11278  1 1084.                END   ,
 DROP   DCE,R1
 000E6A 4D90 C2EA            00300 11292  1 1085.                LCALL AMODE24             Re-enter 24 bit mode
 000E6E 1BFF                       11294  1 1086.                CLEAR R15                 Clear return code
 000E70                            11298    1087.              END
 000E70 A0BC           00E70 00DD4 11302    1088.              ELSE  'LA R15,4'
 000E70 47F0 A0C0            00E78 11307             +
 000E74 41F0 0004            00004 11314             +
 000E78 18D8/982A D004       00004 11319    1089.              PEND  ,                   Restore registers and return
 DROP   IHADCB,R2
 DROP   OPENOWK-(4+36),R8
 DROP   *,R10
 000E7E 5890 D000/12FF       00000 11345             +
 000E84 07F9                       11348             +
1VFMT     (VFMT08) (09:47) (22MAR04) Orvyl's Disk Formatting Program                                                        Page   63
0Current Usings:  (IOB,R11) (ORVFMT,R12)
0Loc    Object Code    Addr1 Addr2  Stmt Lv Lineno    Source Statement           (Hibal 5, Asmedit 3.3)  HLASM R4.0  2004/03/22 09.47
+___    ______ ____    _____ _____  ____ __ ______    ______ _________
0                                  11350    1091.     ¿þþþþþþþþþþþþþþþþþþþþþþþþþþþþþþþþþþþþþþþþþþþþþþþþþþþþþþþþþþþþþþþþþþþþþÜ
                                   11351    1092.     Ÿ                                                                     Ÿ
                                   11352    1093.     Ÿ  GETDATA                                                            Ÿ
                                   11353    1094.     Ÿ                                                                     Ÿ
                                   11354    1095.     Ÿ    Build output records or read restore data from tape.  On         Ÿ
                                   11355    1096.     Ÿ    incremental restore, merge incremental data with restore         Ÿ
                                   11356    1097.     Ÿ    data.                                                            Ÿ
                                   11357    1098.     Ÿ                                                                     Ÿ
                                                      ¾þþþþþþþþþþþþþþþþþþþþþþþþþþþþþþþþþþþþþþþþþþþþþþþþþþþþþþþþþþþþþþþþþþþþþ»
0USING  CCW,R6                     11359    1100.              USING CCW,R6              Declare addressability to CCW
 000E86 5090 D000            00000 11368    1101.     GETDATA  PROC  ,                   Enter and save registers
 000E8A 902A D004/188D       00004 11381             +
 000E90 41D0 D028/0DA0       00028 11383             +
0000E96 4160 B040            00040 11407    1103.              LA    R6,CCWCHAIN         Address of CCW chain
 USING  *,R10
 000E9A                            11408    1104.              LOOP  BEGIN
 000E9A 951D 6000      00000       11414  1 1105.                IF    (CCWOPCDE,EQ,CCWCWRF),BEGIN
 000E9E 4770 A066            00EFC 11427  1          +
 000EA2 5840 6000            00000 11432  2 1106.                  L     R4,CCWADDR          Buffer address from CCW
 000EA6 D203 4000 B023 00000 00023 11433  2 1107.                  MVC   @R4(4),IOBCC        Set track address in count
 000EAC 4140 4008            00008 11434  2 1108.                  LA    R4,@R4+8            Bump to data buffer
 000EB0 D201 6006 A23C 00006 010D2 11435  2 1109.                  MVC   CCWLEN,=AL2(8)      Set default write length
 000EB6 9108 C5BB      005D1       11436  2 1110.                  IF    PFLREST,BEGIN       On restore go obtain block
 000EBA 47E0 A02E            00EC4 11446  2          +
 000EBE 5890 A226/0D99       010BC 11451  3 1111.                    ACALL GETBLOCK            Read block from restore tape
 000EC4                            11455  2 1112.                  END   ,
 000EC4 9180 C5BB      005D1       11459  2 1113.                  IF    PFLFDC,BEGIN        On catalog format format block
 000EC8 47E0 A03C            00ED2 11469  2          +
 000ECC 5890 A22A/0D99       010C0 11474  3 1114.                    ACALL FORMBLK             Format file directory
 000ED2                            11478  2 1115.                  END   ,
 000ED2 9110 C5BD      005D3       11482  2 1116.                  IF    FILLREC,BEGIN       Fill record with fill character
 000ED6 47E0 A066            00EFC 11492  2          +
 000EDA 4110 0008            00008 11497  3 1117.                    LA    R1,8                Eight bytes for the count field
 000EDE 4A10 C5AC            005C2 11498  3 1118.                    AH    R1,FLHDR            Plus current header length
 000EE2 4010 6006            00006 11499  3 1119.                    STH   R1,CCWLEN           Update CCW write length
 000EE6 1F00/BF07 6001       00001 11500  3 1120.                    L3    R0,CCWADDR3         Buffer address for this record
 000EEC 5E00 A22E            010C4 11506  3 1121.                    AL    R0,=A(8)            Skip past count field
 000EF0 5F10 A22E            010C4 11507  3 1122.                    SL    R1,=A(8)            Decrement count field length
 000EF4 1BFF                       11508  3 1123.                    CLEAR R15                 Zero from length
 000EF6 BFF8 C5BF            005D5 11512  3 1124.                    ICM   R15,X'08',FILLCHR   Set fill character
 000EFA 0E0E                       11513  3 1125.                    MVCL  R0,R14              Fill zero record with fill byte
 000EFC                            11514  2 1126.                  END   ,
 000EFC                            11518  1 1127.                END   ,
 000EFC 9140 6004      00004       11522  1 1128.                IF    ~CCWFCCH,EXIT       Exit loop if done
 000F00 47E0 A076            00F0C 11534  1          +
 000F04 4160 6008            00008 11540  1 1129.                LA    R6,CCWNEXT          Bump to next CCW
 000F08 47F0 A004            00E9A 11541    1130.              END   ,
 000F0C 1BFF                       11546    1131.              CLEAR R15                 Clear return code to zero
 000F0E 18D8/982A D004       00004 11550    1132.              PEND  ,                   Restore registers and return
 DROP   *,R10
 000F14 5890 D000/12FF       00000 11566             +
 000F1A 07F9                       11569             +
1VFMT     (VFMT08) (09:47) (22MAR04) Orvyl's Disk Formatting Program                                                        Page   64
0Current Usings:  (CCW,R6) (IOB,R11) (ORVFMT,R12)
0Loc    Object Code    Addr1 Addr2  Stmt Lv Lineno    Source Statement           (Hibal 5, Asmedit 3.3)  HLASM R4.0  2004/03/22 09.47
+___    ______ ____    _____ _____  ____ __ ______    ______ _________
0                                  11571    1134.     ¿þþþþþþþþþþþþþþþþþþþþþþþþþþþþþþþþþþþþþþþþþþþþþþþþþþþþþþþþþþþþþþþþþþþþþÜ
                                   11572    1135.     Ÿ                                                                     Ÿ
                                   11573    1136.     Ÿ  GETBLOCK --                                                        Ÿ
                                   11574    1137.     Ÿ                                                                     Ÿ
                                                      ¾þþþþþþþþþþþþþþþþþþþþþþþþþþþþþþþþþþþþþþþþþþþþþþþþþþþþþþþþþþþþþþþþþþþþþ»
0000F1C 5090 D000            00000 11576    1139.     GETBLOCK PROC  ,
 000F20 902A D004/188D       00004 11589             +
 000F26 41D0 D028/0DA0       00028 11591             +
 000F2C 9120 C5BD      005D3       11614    1140.              IF    RESTSTRT,BEGIN
 USING  *,R10
 000F30 47E0 A038            00F64 11624             +
 000F34                            11629  1 1141.                LOOP  BEGIN
 000F34 4110 C602/1FFF       00618 11635  2 1142.                  GET   RESTDCB
 000F3A BFF7 1031/05EF       00031 11639  2          +
 000F40 1821                       11641  2 1143.                  LR    R2,R1               Copy address of record
 000F42 9180 C5BD      005D3       11642  2 1144.                  IF    RESVBF,'LA R2,@R2+4'  skip rdw
 000F46 47E0 A022            00F4E 11652  2          +
 000F4A 4120 2004            00004 11658  2          +
 000F4E D502 2000 C57B 00000 00591 11663  2 1145.                  CLC   @R2(3),STRTBLK+1    Compare against starting block
 000F54 4770 A030            00F5C 11664  2 1146.                  IF    EQ,'CLEAR RESTSTRT' Go with this block
 000F58 94DF C5BD      005D3       11682  2          +
 000F5C 9120 C5BD      005D3       11687  1 1147.                UNTIL ~RESTSTRT,END       Read next block
 000F60 4710 A008            00F34 11704  1          +
 000F64 A03C           00F64 00F32 11710    1148.              END   ELSE,'GET RESTDCB'  Read block from tape
 000F64 47F0 A048            00F74 11719             +
 000F68 4110 C602/1FFF       00618 11728  1          +
 000F6E BFF7 1031/05EF       00031 11730             +
 000F74 9108 C5BB      005D1       11736    1149.              IF    PFLREST,BEGIN       Exit loop if eod hit
 000F78 47E0 A0AA            00FD6 11746             +
 000F7C 41F0 0001            00001 11751  1 1150.                INCR  R15,FILTOT          Bump file block count
 000F80 5EF0 C586            0059C 11755  1          +
 000F84 50F0 C586            0059C 11756  1          +
 000F88 1821                       11757  1 1151.                LR    R2,R1               Move block address
 000F8A 4830 C654            0066A 11758  1 1152.                LH    R3,RESTDCB+DCBLRECL-IHADCB     FIXED LENGTH BLOCK
 000F8E 9180 C5BD      005D3       11759  1 1153.                IF    RESVBF,BEGIN        Whoops, vb(s)
 000F92 47E0 A076            00FA2 11769  1          +
 000F96 4830 2000            00000 11774  2 1154.                  LH    R3,@R2              Get length from rdw
 000F9A 5B30 A19C            010C8 11775  2 1155.                  S     R3,=F'4'            Adjust block length
 000F9E 4120 2004            00004 11776  2 1156.                  LA    R2,@R2+4            Past rdw
 000FA2                            11777  1 1157.                END   ,
0000FA2 9104 C5BB      005D1       11782  1 1159.                IF    PFLINC,'ACALL CHKINC'   CHECK INCREMENTAL DATA
 000FA6 47E0 A084            00FB0 11792  1          +
 000FAA 5890 A1A0/0D99       010CC 11800  1          +
0000FB0 1813                       11807  1 1161.                LR    R1,R3               Copy data length from tape
 000FB2 4B10 C5AE            005C4 11808  1 1162.                SH    R1,DTHDR            Minus tape orvyl header
 000FB6 4A10 C5AC            005C2 11809  1 1163.                AH    R1,FLHDR            Plus disk orvyl header
 000FBA 4110 1008            00008 11810  1 1164.                LA    R1,@R1+8            Plus count field length
 000FBE 4010 6006            00006 11811  1 1165.                STH   R1,CCWLEN           Update CCW write length
 000FC2 1803                       11812  1 1166.                LR    R0,R3               Copy tape data length
 000FC4 4830 C5AE            005C4 11813  1 1167.                LH    R3,DTHDR            Tape header length
 000FC8 1B03                       11814  1 1168.                SR    R0,R3               Tape user data length
1VFMT     (VFMT08) (09:47) (22MAR04) Orvyl's Disk Formatting Program                                                        Page   65
0Current Usings:  (CCW,R6) (*,R10) (IOB,R11) (ORVFMT,R12)
0Loc    Object Code    Addr1 Addr2  Stmt Lv Lineno    Source Statement           (Hibal 5, Asmedit 3.3)  HLASM R4.0  2004/03/22 09.47
+___    ______ ____    _____ _____  ____ __ ______    ______ _________
0000FCA 4850 C5AC            005C2 11815  1 1169.                LH    R5,FLHDR            Disk header length
 000FCE 0E42                       11816  1 1170.                MVCL  R4,R2               Move header, trunc or pad
 000FD0 1830                       11817  1 1171.                LR    R3,R0               Copy remianing length for
 000FD2 1850                       11818  1 1172.                LR    R5,R0               Move of user data, if any
 000FD4 0E42                       11819  1 1173.                MVCL  R4,R2               Addrs updt by 1st mvcl
 000FD6                            11820    1174.              END   ,
 000FD6 47F0 A162            0108E 11824    1175.              EXIT  GETBLOCK            Exit getblock procedure
1VFMT     (VFMT08) (09:47) (22MAR04) Orvyl's Disk Formatting Program                                                        Page   66
0Current Usings:  (CCW,R6) (*,R10) (IOB,R11) (ORVFMT,R12)
0Loc    Object Code    Addr1 Addr2  Stmt Lv Lineno    Source Statement           (Hibal 5, Asmedit 3.3)  HLASM R4.0  2004/03/22 09.47
+___    ______ ____    _____ _____  ____ __ ______    ______ _________
0                                  11828    1177.     ¿þþþþþþþþþþþþþþþþþþþþþþþþþþþþþþþþþþþþþþþþþþþþþþþþþþþþþþþþþþþþþþþþþþþþþÜ
                                   11829    1178.     Ÿ                                                                     Ÿ
                                   11830    1179.     Ÿ   Restore data end of file exit routine                             Ÿ
                                   11831    1180.     Ÿ                                                                     Ÿ
                                                      ¾þþþþþþþþþþþþþþþþþþþþþþþþþþþþþþþþþþþþþþþþþþþþþþþþþþþþþþþþþþþþþþþþþþþþþ»
0000FDA                            11833    1182.     TAPEND   LABEL ,
 000FDA 50E0 D000            00000 11835    1183.              VPUSH R14,,*              Save return address
 000FDE 41D0 D004            00004 11837             +
 000FE2 0700/4510 A0C0       00FEC 11838    1184.              CLOSE RESTDCB             Close restore file
 000FE8 80/000618/0A14             11841             +
 000FEE 4110 C602            00618 11844    1185.              FREEPOOL RESTDCB          Release RESTDCB buffer pool
 000FF2 9101 1017      00017       11847             +
 000FF6 4710 A110/1FFF       0103C 11848             +
 000FFC BFF7 1015            00015 11850             +
 001000 58E0 F000/12EE       00000 11851             +
 001006 4770 A0E6            01012 11853             +
 00100A 9130 F004      00004       11854             +
 00100E 4770 A110            0103C 11855             +
 001012 9601 1017/1BEE 00017       11856             +
 001018 1B11/BF13 F006       00006 11858             +
 00101E 43E0 F005/1C0E       00005 11860             +
 001024 4110 1008            00008 11862             +
 001028 9140 F004      00004       11863             +
 00102C 47E0 A108            01034 11864             +
 001030 4110 1008/1801       00008 11865             +
 001036 4110 F000/0A0A       00000 11867             +
 00103C 4110 C7A6/0A23       007BC 11870    1186.              WTO   MF=(E,DEM)          Issue formatting done
 001042 D209 C675 A1A8 0068B 010D4 11874    1187.              MVC   SFMTP(10),=CL10'Formatting'
 001048 D209 C6BF A1A8 006D5 010D4 11875    1188.              MVC   NFMTP(10),=CL10'Formatting'
 00104E D209 C7B9 A1A8 007CF 010D4 11876    1189.              MVC   DEMTP(10),=CL10'Formatting'
 001054 947F C5BD      005D3       11877    1190.              CLEAR RESVBF              Clear vb(s) restore
 001058 94F7 C5BB      005D1       11884    1191.              CLEAR PFLREST             Clear restore flag
 00105C 5810 C586            0059C 11891    1192.              L     R1,FILTOT           Total blocks this file
 001060 5800 C57E            00594 11892    1193.              L     R0,TRACKS           Tracks in this data set
 001064 4C00 C594            005AA 11893    1194.              MH    R0,RPT+2            X records/track
 001068 1B01                       11894    1195.              SR    R0,R1               Record count restored
 00106A 4E00 C342            00358 11895    1196.              CVD   R0,DEC              Convert to packed
 00106E D209 C67F A1B2 00695 010DE 11896    1197.              MVC   SFMNP,=X'40206B2020206b202120'
 001074 DE09 C67F C346 00695 0035C 11897    1198.              ED    SFMNP,DEC+4         Edit into message
 00107A 4110 C662/0A23       00678 11898    1199.              WTO   MF=(E,SFM)          Issue formatting message
 001080 9208 6007      00007       11902    1200.              MVI   CCWLEN+1,8          Reset CCW write length
 001084 4BD0 A1A4            010D0 11903    1201.              VPOP  R14,,*              Restore return address
 001088 58E0 D000            00000 11905             +
 00108C 07FE                       11906    1202.              BR    R14                 Return after get
-
 00108E 18D8/982A D004       00004 11908    1204.              PEND  ,                   Restore registers
 DROP   *,R10
 001094 5890 D000/12FF       00000 11924             +
 00109A 07F9                       11927             +
1VFMT     (VFMT08) (09:47) (22MAR04) Orvyl's Disk Formatting Program                                                        Page   67
0Current Usings:  (CCW,R6) (IOB,R11) (ORVFMT,R12)
0Loc    Object Code    Addr1 Addr2  Stmt Lv Lineno    Source Statement           (Hibal 5, Asmedit 3.3)  HLASM R4.0  2004/03/22 09.47
+___    ______ ____    _____ _____  ____ __ ______    ______ _________
0                                  11929    1206.     ¿þþþþþþþþþþþþþþþþþþþþþþþþþþþþþþþþþþþþþþþþþþþþþþþþþþþþþþþþþþþþþþþþþþþþþÜ
                                   11930    1207.     Ÿ                                                                     Ÿ
                                   11931    1208.     Ÿ  Define literal pool                                                Ÿ
                                   11932    1209.     Ÿ                                                                     Ÿ
                                                      ¾þþþþþþþþþþþþþþþþþþþþþþþþþþþþþþþþþþþþþþþþþþþþþþþþþþþþþþþþþþþþþþþþþþþþþ»
-0010A0                            11934    1211.              LTORG ,                   Define literal pool
 0010A0 0000FFF8                   11936                             =A(X'FFF8')
 0010A4 00000001                   11937                             =F'1'
 0010A8 00000B1E                   11938                             =A(VFNOPN)
 0010AC 00000000                   11939                             =V(CALCTRK)
 0010B0 00000004                   11940                             =A(4)
 0010B4 00000000                   11941                             =V(RETUCBA)
 0010B8 00000010                   11942                             =A(DEBPREFE-DEBPREFX)
 0010BC 00000F1C                   11943                             =A(GETBLOCK)
 0010C0 0000133A                   11944                             =A(FORMBLK)
 0010C4 00000008                   11945                             =A(8)
 0010C8 00000004                   11946                             =F'4'
 0010CC 00000BBE                   11947                             =A(CHKINC)
 0010D0 0004                       11948                             =Y(4)
 0010D2 0008                       11949                             =AL2(8)
 0010D4 C696999481A3A389           11950                             =CL10'Formatting'
 0010DE 40206B2020206B20           11951                             =X'40206B2020206b202120'
1VFMT     (VFMT08) (09:47) (22MAR04) Orvyl's Disk Formatting Program                                                        Page   68
0Current Usings:  (CCW,R6) (IOB,R11) (ORVFMT,R12)
0Loc    Object Code    Addr1 Addr2  Stmt Lv Lineno    Source Statement           (Hibal 5, Asmedit 3.3)  HLASM R4.0  2004/03/22 09.47
+___    ______ ____    _____ _____  ____ __ ______    ______ _________
0                                  11956    1213.     ¿þþþþþþþþþþþþþþþþþþþþþþþþþþþþþþþþþþþþþþþþþþþþþþþþþþþþþþþþþþþþþþþþþþþþþÜ
                                   11957    1214.     Ÿ                                                                     Ÿ
                                   11958    1215.     Ÿ  FILE SYSTEM INITIALIZATION CATALOG (NEW STYLE)                     Ÿ
                                   11959    1216.     Ÿ                                                                     Ÿ
                                                      ¾þþþþþþþþþþþþþþþþþþþþþþþþþþþþþþþþþþþþþþþþþþþþþþþþþþþþþþþþþþþþþþþþþþþþþ»
0001A64                01A64 01E00 11960    1217.              DATA  BEGIN
                                   11965  1 1218.                GBLC  &SECT,&SLOC
                                   11966  1 1219.
 001A64 0048                       11967  1 1220.     FDAINX     DC     Y(CNODA99)              AMT OF ENTRY IN ACC INDEX
 001A66 0041                       11968  1 1221.     FDFINX     DC     Y(CNODF99)              AMT OF ENTRY IN FILE INDEX
                                   11969  1 1222.
 001A68 0000000000000000           11970  1 1223.     FDICHK     DC     (FDICHKLN)X'00'
                                   11971  1 1224.     FDICHKLN   EQU    CHKISTRT-CHKSTART       NON INTENT PART OF CHKPNT
-001B7A 0000000000000000           11973  1 1226.     FDIFSM     DC     (FDIFSMLN)X'00'
                                   11974  1 1227.     FDIFSMLN   EQU    FSMBALX-FSMSTART        THROUGH BALANCE PART
                                   11975  1 1228.
                                   11976  1 1229.   C BALAIX     WTO   '*** ORVFMT ***  Account node not a full block',
 001BD8 0031/8000                         1 1230.                      ROUTCDE=2,DESC=6,MF=L
 001BDC 5C5C5C40D6D9E5C6           11980  1          +
 001BE4 D4E3405C5C5C4040                  1          +
 001C09 0400/4000                  11981  1          +
                                   11983  1 1231.
                                   11984  1 1232.   C BALFIX     WTO   '*** ORVFMT ***  File node not a full block',
 001C10 002E/8000                         1 1233.                      ROUTCDE=2,DESC=6,MF=L
 001C14 5C5C5C40D6D9E5C6           11988  1          +
 001C1C D4E3405C5C5C4040                  1          +
 001C3E 0400/4000                  11989  1          +
                                   11991  1 1234.
                                   11992  1 1235.   C BALAFUL    WTO   '*** ORVFMT ***  Max account entry in index too large',
 001C44 0038/8000                         1 1236.                      ROUTCDE=2,DESC=6,MF=L
 001C48 5C5C5C40D6D9E5C6           11996  1          +
 001C50 D4E3405C5C5C4040                  1          +
 001C7C 0400/4000                  11997  1          +
                                   11999  1 1237.
                                   12000  1 1238.   C BALFFUL    WTO   '*** ORVFMT ***  Max file entry in index too large',
 001C80 0035/8000                         1 1239.                      ROUTCDE=2,DESC=6,MF=L
 001C84 5C5C5C40D6D9E5C6           12004  1          +
 001C8C D4E3405C5C5C4040                  1          +
 001CB5 0400/4000                  12005  1          +
                                   12007  1 1240.
1VFMT     (VFMT08) (09:47) (22MAR04) Orvyl's Disk Formatting Program                                                        Page   69
0Current Usings:  (CCW,R6) (IOB,R11) (ORVFMT,R12)
0Loc    Object Code    Addr1 Addr2  Stmt Lv Lineno    Source Statement           (Hibal 5, Asmedit 3.3)  HLASM R4.0  2004/03/22 09.47
+___    ______ ____    _____ _____  ____ __ ______    ______ _________
0001CB9 0000000000000000           12009  1 1242.     FDIANODE   DC     XL(NODNTRYS-NODE)'00'   ZERO ACCOUNT NODE HEADER
                                   12010  1 1243.     &SECT      SETC  'NODE'
                                   12011  1 1244.     &SLOC      SETC  'FDIANODE'
 001CC1                01CC1 01CB9 12012  1 1245.                CBORG  NODLEN
 001CB9 00                                1
 001CBA 0000                       12014  1 1246.     FDIANLN    DC     Y(0)
 001CBC                01CBC 01CBB 12015  1 1247.                CBORG  NODNTNUM
 001CBB 00                                1
 001CBC 0001                       12017  1 1248.                DC     Y(1)                    1 ENTRY IN ACCOUNT NODE
 001CBE                01CBE 01CBD 12018  1 1249.                CBORG  NODSPACE
 001CBD 00                                1
 001CBE 0000                       12020  1 1250.     FDIANSP    DC     Y(0)
 001CC0                01CC0 01CBF 12021  1 1251.                CBORG  NODFL
 001CBF E0                         12023  1 1252.                DC     AL1(L'NODFACC+L'NODFLEAF+L'NODFTRT)
 001CC0                01CC0 01CC1 12024  1 1253.                ORG    ,
-001CC1 0000000000000000           12026  1 1255.     FDIACCT    DC     XL(L'NTRYGR)'00'
                                   12027  1 1256.     &SECT      SETC  'NTRY'
                                   12028  1 1257.     &SLOC      SETC  'FDIACCT'
 001CDB                01CDB 01CC1 12029  1 1258.                CBORG  NTRYLEN
 001CC1 001A                       12031  1 1259.                DC     AL(OL)(L'NTRYGR)        ACCOUNT ENTRY LENGTH
 001CC3                01CC3 01CC3 12032  1 1260.                CBORG  NTRYOFFB                OFFSPRING IN THIS TREE
 001CC3 FFFFFFFF                   12034  1 1261.                DC     (PL)AL1(NIL)            Î NONE EXIST YET
 001CC7                01CC7 01CC7 12035  1 1262.                CBORG  NTRYDATB                DATA EXTENT ADDR FOR THIS ENTRY
 001CC7 FFFFFFFF                   12037  1 1263.                DC     (PL)AL1(NIL)            Î NONE EXIST YET
 001CCB                01CCB 01CCB 12038  1 1264.                CBORG NTGNAME
 001CCB C7E2D6D9E5                 12040  1 1265.     FDIGRP     DC     CL(CNTAMXSZ)'GSORV'     MASTER ACCOUNT
 001CD0                01CD0 01CD0 12041  1 1266.                CBORG NTGMXSP
 001CD0 FFFFFF                     12043  1 1267.                DC    XL3'FFFFFF'             SPACE ALLOWED
 001CD3                01CD3 01CD3 12044  1 1268.                CBORG NTGUSSP
 001CD3 000000                     12046  1 1269.     FDIGLEN    DC    XL3'00'                 SPACE USED
 001CD6                01CD6 01CD6 12047  1 1270.                CBORG  NTGFLRB
 001CD6 0005                       12049  1 1271.                DC     AL(BL)(CFSBDBLK+2)      Past intent, dbl write, and acc
 001CD8                01CD8 01CD8 12050  1 1272.                CBORG  NTGFLRN
 001CD8 0010                       12052  1 1273.                DC     AL(OL)(CDSKHSIZ)        Node starts after DSKBLK header
 001CDA                01CDA 01CDB 12053  1 1274.                ORG   ,
 001CDB FFFFFFFFFFFF               12054  1 1275.     FDIASTOP   DC     (CNODNLLN)AL1(NIL)      NIL END ENTRY
                                   12055  1 1276.     FDIDAELN   EQU   *-FDIACCT                ENTRY LEN IN ACCOUNT NODE
                                   12056  1 1277.     FDIDANLN   EQU   *-FDIANODE               NODE LEN IN ACCOUNT NODE
1VFMT     (VFMT08) (09:47) (22MAR04) Orvyl's Disk Formatting Program                                                        Page   70
0Current Usings:  (CCW,R6) (IOB,R11) (ORVFMT,R12)
0Loc    Object Code    Addr1 Addr2  Stmt Lv Lineno    Source Statement           (Hibal 5, Asmedit 3.3)  HLASM R4.0  2004/03/22 09.47
+___    ______ ____    _____ _____  ____ __ ______    ______ _________
0001CE1 0000000000000000           12058  1 1279.     FDIFNODE   DC     XL(NODNTRYS-NODE)'00'   ZERO FILE NODE HEADER
                                   12059  1 1280.     &SECT      SETC  'NODE'
                                   12060  1 1281.     &SLOC      SETC  'FDIFNODE'
 001CE9                01CE9 01CE1 12061  1 1282.                CBORG  NODLEN
 001CE1 00                                1
 001CE2 0000                       12063  1 1283.     FDIFNLN    DC     Y(0)
 001CE4                01CE4 01CE3 12064  1 1284.                CBORG  NODNTNUM
 001CE3 00                                1
 001CE4 0002                       12066  1 1285.                DC     Y(2)                    2 ENTRYS IN FILE NODE
 001CE6                01CE6 01CE5 12067  1 1286.                CBORG  NODSPACE
 001CE5 00                                1
 001CE6 0000                       12069  1 1287.     FDIFNSP    DC     Y(0)
 001CE8                01CE8 01CE7 12070  1 1288.                CBORG  NODFL
 001CE7 60                         12072  1 1289.                DC     AL1(L'NODFLEAF+L'NODFTRT)
 001CE8                01CE8 01CE9 12073  1 1290.                ORG    ,
-001CE9 0000000000000000           12075  1 1292.     FDIFILE1   DC    XL(L'NTRYFL+L'FDIF1SZ)'00'
                                   12076  1 1293.     &SECT      SETC  'NTRY'
                                   12077  1 1294.     &SLOC      SETC  'FDIFILE1'
 001D0F                01D0F 01CE9 12078  1 1295.                CBORG NTRYLEN                  FILE ENTRY LENGTH
 001CE9 0026                       12080  1 1296.     FDIF1      DC     AL2(L'NTRYFL+L'FDIF1SZ)
 001CEB                01CEB 01CEB 12081  1 1297.                CBORG  NTRYOFFB                OFFSPRING IN THIS TREE
 001CEB FFFFFFFF                   12083  1 1298.                DC     (PL)AL1(NIL)            Î NONE EXIST YET
 001CEF                01CEF 01CEF 12084  1 1299.                CBORG  NTRYDATB                DATA EXTENT ADDR FOR THIS ENTRY
 001CEF FFFFFFFF                   12086  1 1300.                DC     (PL)AL1(NIL)            Î NONE EXIST YET
 001CF3                01CF3 01CF3 12087  1 1301.                CBORG NTFLOC
 001CF3 000000                     12089  1 1302.     F1FRST     DC    XL3'00'                 FIRST BLOCK
 001CF6                01CF6 01CF6 12090  1 1303.                CBORG NTFCNT
 001CF6 000000                     12092  1 1304.     F1BCNT     DC    XL3'00'                 BLOCK COUNT
 001CF9                01CF9 01CFC 12093  1 1305.                CBORG NTFCRDT
 001CFC 00000000                   12095  1 1306.     F1CDATE    DC    XL4'00'                 CREATION DATE
 001D00                01D00 01D00 12096  1 1307.                CBORG NTFLSDT
 001D00 00000000                   12098  1 1308.     F1RDATE    DC    XL4'00'                 LAST REFERENCE DATE
 001D04                01D04 01CF9 12099  1 1309.                CBORG NTFCODE
 001CF9 B0                         12101  1 1310.                DC    AL1(L'NTFNIXR+L'NTFCLP+L'NTFNOCLP)   MODE FLAGS
 001CFA                01CFA 01CFB 12102  1 1311.                CBORG NTFFLGO
 001CFB 09                         12104  1 1312.                DC    AL1(FPR+FPE)            FILEMASK - READ/EXTEND
 001CFC                01CFC 01D08 12105  1 1313.                CBORG NTFLNMSZ
 001D08 06                         12107  1 1314.                DC    AL1(L'FDIF1SZ)          FILE NAME LENGTH
 001D09                01D09 01D09 12108  1 1315.                CBORG NTFLNAME
 001D09 C2C9E3D4C1D7               12110  1 1316.     FDIF1SZ    DC    CL6'BITMAP'             FILE NAME
 001D0F                01D0F 01D0F 12111  1 1317.                ORG    ,
0001D0F 0000000000000000           12113  1 1319.     FDIFILE2   DC    XL(L'NTRYFL+L'FDIF2SZ)'00'
                                   12114  1 1320.     &SECT      SETC  'NTRY'
                                   12115  1 1321.     &SLOC      SETC  'FDIFILE2'
 001D36                01D36 01D0F 12116  1 1322.                CBORG NTRYLEN                  FILE ENTRY LENGTH
 001D0F 0027                       12118  1 1323.     FDIF2      DC     AL2(L'NTRYFL+L'FDIF2SZ)
 001D11                01D11 01D11 12119  1 1324.                CBORG  NTRYOFFB                OFFSPRING IN THIS TREE
 001D11 FFFFFFFF                   12121  1 1325.                DC     (PL)AL1(NIL)            Î NONE EXIST YET
 001D15                01D15 01D15 12122  1 1326.                CBORG  NTRYDATB                DATA EXTENT ADDR FOR THIS ENTRY
 001D15 FFFFFFFF                   12124  1 1327.                DC     (PL)AL1(NIL)            Î NONE EXIST YET
 001D19                01D19 01D19 12125  1 1328.                CBORG NTFLOC
1VFMT     (VFMT08) (09:47) (22MAR04) Orvyl's Disk Formatting Program                                                        Page   71
0Current Usings:  (CCW,R6) (IOB,R11) (ORVFMT,R12)
0Loc    Object Code    Addr1 Addr2  Stmt Lv Lineno    Source Statement           (Hibal 5, Asmedit 3.3)  HLASM R4.0  2004/03/22 09.47
+___    ______ ____    _____ _____  ____ __ ______    ______ _________
0001D19 000000                     12127  1 1329.     F2FRST     DC    XL3'00'                 FIRST BLOCK
 001D1C                01D1C 01D1C 12128  1 1330.                CBORG NTFCNT
 001D1C 000000                     12130  1 1331.     F2BCNT     DC    XL3'00'                 BLOCK COUNT
 001D1F                01D1F 01D22 12131  1 1332.                CBORG NTFCRDT
 001D22 00000000                   12133  1 1333.     F2CDATE    DC    XL4'00'                 CREATION DATE
 001D26                01D26 01D26 12134  1 1334.                CBORG NTFLSDT
 001D26 00000000                   12136  1 1335.     F2RDATE    DC    XL4'00'                 LAST REFERENCE DATE
 001D2A                01D2A 01D1F 12137  1 1336.                CBORG NTFCODE
 001D1F B0                         12139  1 1337.                DC    AL1(L'NTFNIXR+L'NTFCLP+L'NTFNOCLP)   MODE FLAGS
 001D20                01D20 01D21 12140  1 1338.                CBORG NTFFLGO
 001D21 09                         12142  1 1339.                DC    AL1(FPR+FPE)            FILEMASK - READ/EXTEND
 001D22                01D22 01D2E 12143  1 1340.                CBORG NTFLNMSZ
 001D2E 07                         12145  1 1341.                DC    AL1(L'FDIF2SZ)          FILE NAME LENGTH
 001D2F                01D2F 01D2F 12146  1 1342.                CBORG NTFLNAME
 001D2F C3C1E3C1D3D6C7             12148  1 1343.     FDIF2SZ    DC    CL7'CATALOG'            FILE NAME
 001D36                01D36 01D36 12149  1 1344.                ORG   ,
0001D36 FFFFFFFFFFFF               12151  1 1346.     FDIFSTOP   DC    (CNODNLLN)AL1(NIL)
                                   12152  1 1347.     FDIDFELN   EQU   *-FDIFILE1               ENTRY LEN IN FILE NODE
                                   12153  1 1348.     FDIDFNLN   EQU   *-FDIFNODE               NODE LEN IN FILE NODE
 001339                01339 01E00 12154    1349.              END    ,                       END OF DATA BLOCK
1VFMT     (VFMT08) (09:47) (22MAR04) Orvyl's Disk Formatting Program                                                        Page   72
0Current Usings:  (CCW,R6) (IOB,R11) (ORVFMT,R12)
0Loc    Object Code    Addr1 Addr2  Stmt Lv Lineno    Source Statement           (Hibal 5, Asmedit 3.3)  HLASM R4.0  2004/03/22 09.47
+___    ______ ____    _____ _____  ____ __ ______    ______ _________
0                                  12161    1351.     ¿þþþþþþþþþþþþþþþþþþþþþþþþþþþþþþþþþþþþþþþþþþþþþþþþþþþþþþþþþþþþþþþþþþþþþÜ
                                   12162    1352.     Ÿ                                                                     Ÿ
                                   12163    1353.     Ÿ  FORMBLK                                                            Ÿ
                                   12164    1354.     Ÿ                                                                     Ÿ
                                                      ¾þþþþþþþþþþþþþþþþþþþþþþþþþþþþþþþþþþþþþþþþþþþþþþþþþþþþþþþþþþþþþþþþþþþþþ»
000133A 5090 D000            00000 12166    1356.     FORMBLK  PROC  ,                   Enter and save calling registers
 00133E 902A D004/188D       00004 12179             +
 001344 41D0 D028/0DA0       00028 12181             +
 00134A 58F0 C596            005AC 12204    1357.              L     R15,FDPAGE          GET CURRENT PAGE NUMBER
 USING  *,R10
 00134E 182F                       12205    1358.              LR    R2,R15              SAVE CURRENT PAGE
 001350 5AF0 A6AE            019F8 12206    1359.              A     R15,=F'1'           INCREMENT PAGE NUMBER
 001354 50F0 C596            005AC 12207    1360.              ST    R15,FDPAGE          AND SAVE BACK
 001358 18E4                       12208    1361.              LR    R14,R4              COPY BUFFER ADDRESS
 00135A 48F0 C5A6            005BC 12209    1362.              LH    R15,BLOCKSIZ        GET PAGE LENGTH
 00135E 4AF0 C5AC            005C2 12210    1363.              AH    R15,FLHDR           AND HEADER LENGTH
 001362 180F                       12211    1364.              LR    R0,R15              COPY BLOCK LENGTH
 001364 5A00 A6B2            019FC 12212    1365.              A     R0,=F'8'            + COUNT FIELD LENGTH
 001368 4000 6006            00006 12213    1366.              STH   R0,CCWLEN           UPDATE CCW WRITE LENGTH
 00136C 1B11                       12214    1367.              CLEAR R1                  CLEAR ZERO LENGTH
 00136E 0EE0                       12218    1368.              MVCL  R14,R0              CLEAR BUFFER TO ZERO
 001370                            12219    1369.              BEGIN
 USING  FBHDR,R4                   12223  1 1370.                WITH  (FBHDR,R4)
 001370 BE27 4000            00000 12236  1 1371.                ST3   R2,FBHBLOCK         SET BLOCK NUMBER
 001374 D201 4006 C5A6 00006 005BC 12238  1 1372.                MVC   FBHLEN,BLOCKSIZ     SET BLOCK LENGTH
 00137A B205 C342      00358       12239  1 1373.                STCK  DEC                 GET TIME & DATE
 00137E D203 4008 C342 00008 00358 12240  1 1374.                MVC   FBHTIME,DEC         SET TIME WRITTEN
 001384 92FF 4003      00003       12241  1 1375.                MVI   FBHTYPE,FBHTFSMB    ASSUME File Sys Master Block
 001388 1222/4780 A054       0139E 12242  1 1376.                IF    (R2,Z),EXIT         FSMB
 00138E 9240 4003      00003       12259  1 1377.                MVI   FBHTYPE,FBHTBIT     ASSUME BIT MAP BLOCK
 001392 5920 C59E            005B4 12260  1 1378.                IF    (R2,LE,BITBLKS),EXIT    STILL IN BIT MAP
 001396 47C0 A054            0139E 12274  1          +
 00139A 9280 4003      00003       12280  1 1379.                MVI   FBHTYPE,FBHTCAT     SET CATALOG BLOCK
 DROP   FBHDR,R4                   12281    1380.              END   ,
 00139E 4A40 C5AC            005C2 12290    1381.              AH    R4,FLHDR            POINT PAST KEY AREA
 0013A2 1222/4770 A064       013AE 12291    1382.              IF    (R2,Z),BEGIN        FILE SYSTEM MASTER BLOCK
 USING  FSMB,R4                    12305  1 1383.                WITH  (FSMB,R4)           ADDR TO FSMB
 0013A8 D25B 4000 A830 00000 01B7A 12318  1 1384.                MVC   FSMB(FDIFSMLN),FDIFSM   PUT IN FSMB DATA
 0013AE A068           013AE 013A6 12319    1385.              END   ELSE,BEGIN
 DROP   FSMB,R4
 0013AE 47F0 A1AC            014F6 12333             +
 0013B2 0620                       12339  1 1386.                DECR  R2
 0013B4 1222/4770 A098       013E2 12341  1 1387.                IF    (R2,Z),BEGIN        BITMAP BLOCK 0
 0013BA 4110 0001            00001 12355  2 1388.                  LA    R1,1                COUNT
 0013BE 5A10 C59E            005B4 12356  2 1389.                  A     R1,BITBLKS           OF TOTAL
 0013C2 5A10 C59A            005B0 12357  2 1390.                  A     R1,FDBLKS             ALLOCATION
 0013C6 1B00                       12358  2 1391.                  CLEAR R0
 0013C8 5D00 A6B2            019FC 12362  2 1392.                  D     R0,=F'8'            CONVERT TO BYTES
 0013CC 18E0                       12363  2 1393.                  LR    R14,R0              SAVE REMAINDER
 0013CE 1804                       12364  2 1394.                  LR    R0,R4               DATA BUFFER
 0013D0 1FFF/BFF8 A718       01A62 12365  2 1395.                  LCM   R15,8,=X'FF'        PAD
 0013D6 0E0E                       12372  2 1396.                  MVCL  R0,R14              SET THOSE BITS ON
 0013D8 43EE C5B2            005C8 12373  2 1397.                  IC    R14,EXBITS(R14)     GET REMAINDER BITS
1VFMT     (VFMT08) (09:47) (22MAR04) Orvyl's Disk Formatting Program                                                        Page   73
0Current Usings:  (CCW,R6) (*,R10) (IOB,R11) (ORVFMT,R12)
0Loc    Object Code    Addr1 Addr2  Stmt Lv Lineno    Source Statement           (Hibal 5, Asmedit 3.3)  HLASM R4.0  2004/03/22 09.47
+___    ______ ____    _____ _____  ____ __ ______    ______ _________
00013DC 1810                       12374  2 1398.                  LR    R1,R0               NEXT EMPTY SLOT
 0013DE 42E0 1000            00000 12375  2 1399.                  STC   R14,@R1             SET IT
 0013E2                            12376  1 1400.                END   ,                        OF NOT BITMAP BLK 0
 0013E2 A09C           013E2 013B8 12380  1 1401.                ELSEIF (R2,GE,BITBLKS),BEGIN   PAST BITMAP
 0013E2 47F0 A1AC            014F6 12386  1          +
 0013E6 5920 C59E            005B4 12400  1          +
 0013EA 4750 A1AC            014F6 12401  1          +
 0013EE 5B20 C59E            005B4 12406  2 1402.                  S     R2,BITBLKS               GET FD BLOCK NUMBER
 0013F2 5920 C59A            005B0 12407  2 1403.                  IF    (R2,GE,FDBLKS),BEGIN     PAST CATALOG
 0013F6 4750 A0BE            01408 12419  2          +
 0013FA 4B40 C5AC            005C2 12424  3 1404.                    SH    R4,FLHDR                 BACKUP TO KEY AREA
 USING  FBHDR,R4                   12425  3 1405.                    WITH  (FBHDR,R4),'CLEAR FBHDR' NO LONGER IN THE CATALOG
 0013FE D713 4000 4000 00000 00000 12446  3          +
 DROP   FBHDR,R4
 001404 947F C5BB      005D1       12455  3 1406.                    CLEAR PFLFDC
 001408                            12462  2 1407.                  END    ,                       OF PAST CATALOG
 001408 A0C2           01408 013F8 12466  2 1408.                  ELSE  BEGIN                    NOT PAST CAT
 001408 47F0 A1AC            014F6 12471  2          +
 00140C 5020 C5A2            005B8 12477  3 1409.                    ST     R2,FDIBBLK              SET RELATIVE BLOCK NUMBER
 001410 1222/4770 A0F0       0143A 12478  3 1410.                    IF    (R2,Z),BEGIN             BLOCK 0 OF CAT, INTENTIONS
 001416 1804                       12492  4 1411.                      LR     R0,R4                   DEST ADDR
 001418 41E0 A71E            01A68 12493  4 1412.                      LA     R14,FDICHK              SOURCE ADDR
 00141C 41F0 0112            00112 12494  4 1413.                      LA     R15,FDICHKLN            LEN OF MOVE
 001420 181F                       12495  4 1414.                      LR     R1,R15                  Î
 001422 0E0E                       12496  4 1415.                      MVCL   R0,R14                  MOVE OUT!!
 001424 41F0 A830            01B7A 12497  4 1416.                      LA     R15,FDIFSM              FSM ADDR
 001428 48E0 F03C            0003C 12498  4 1417.                      WITH   (FSMB,R15),'LH R14,FSMDTAGX '
 USING  FSMB,R15
 DROP   FSMB,R15
 00142C 41F0 A71E            01A68 12522  4 1418.                      LA     R15,FDICHK              ADDR TO CHKPNT
 USING  CHKPNT,R15                 12523  4 1419.                      WITH   (CHKPNT,R15)            Î
 001430 41EE 4000            00000 12536  4 1420.                      LA     R14,@R4(R14)            =
 001434 D207 E000 F000 00000 00000 12537  4 1421.                      MVC    @R14(8),CHKSTART        TAGS MATCH
 DROP   CHKPNT,R15                 12538  3 1422.                    END    ,                       OF BLOCK 0 OF CAT, INTENTIONS
 00143A A0F4           0143A 01414 12547  3 1423.                    ELSEIF (R2,GT,CFSBDBLK),BEGIN  PAST CAT DOUBLE WRITE BLKS
 00143A 47F0 A1AC            014F6 12553  3          +
 00143E 5920 A6B6            01A00 12567  3          +
 001442 47D0 A1AC            014F6 12568  3          +
 USING  DSKBLK,R4                  12573  4 1424.                      WITH   (DSKBLK,R4)             ADDR TO BLOCKS
 001446 41F0 A830            01B7A 12586  4 1425.                      LA     R15,FDIFSM              ADDR TO FSMB
 USING  FSMB,R15                   12587  4 1426.                      WITH   (FSMB,R15)              Î
 00144A 48E0 F03C            0003C 12600  4 1427.                      LH     R14,FSMDTAGX            ADDR TO TAG @ END
 00144E 41EE 4000            00000 12601  4 1428.                      LA     R14,DSKBLK(R14)         Î
 001452 B205 E000      00000       12602  4 1429.                      STCK   @R14                    COPY TIME TO TAG @ END
 001456 D201 E006 C5A4 00006 005BA 12603  4 1430.                      MVC    @R14+6(2),FDIBBLK+2     PUT REL BLOCK NUM @ END
 00145C D203 4000 E004 00000 00004 12604  4 1431.                      MVC    DSKTAG(4),@R14+4        START AND STOP FIELDS MATCH
 001462 58E0 C5A2            005B8 12605  4 1432.                      L      R14,FDIBBLK             ADDR OF NEXT BLOCK
 001466 5EE0 A6BA            01A04 12606  4 1433.                      INCR   R14                     Î
 00146A 59E0 C59A            005B0 12609  4 1434.                      IF     (R14,GE,FDBLKS),'L R14,=&L.AL1(NIL) '   NIL NEX IF LAST
 00146E 4750 A12C            01476 12621  4          +
 001472 58E0 A6BE            01A08 12627  4          +
 001476 40E0 400C            0000C 12632  4 1435.                      STH    R14,DSKBLINK            Î NEXT BLOCK
 00147A 5920 A6C2            01A0C 12633  4 1436.                      IF     (R2,EQ,CFSBDBLK+1),BEGIN        ACCOUNT ROOT
 00147E 4770 A16C            014B6 12645  4          +
1VFMT     (VFMT08) (09:47) (22MAR04) Orvyl's Disk Formatting Program                                                        Page   74
0Current Usings:  (DSKBLK,R4) (CCW,R6) (*,R10) (IOB,R11) (ORVFMT,R12) (FSMB,R15)
0Loc    Object Code    Addr1 Addr2  Stmt Lv Lineno    Source Statement           (Hibal 5, Asmedit 3.3)  HLASM R4.0  2004/03/22 09.47
+___    ______ ____    _____ _____  ____ __ ______    ______ _________
0001482                            12650  5 1437.                        MVC    DSKFFWD,=&L.AL1(NIL)    NO FWD PTR
 001482 D201 4006 A6BE 00006 01A08        5          +
 001488                            12651  5 1438.                        MVC    DSKFBAC,=&L.AL1(NIL)    Î OR BACK PTR
 001488 D201 4008 A6BE 00008 01A08        5          +
 00148E                            12652  5 1439.                        MVC    DSKBLINK,=&L.AL1(NIL)   Î NOT PART OF A CHAIN
 00148E D201 400C A6BE 0000C 01A08        5          +
 001494 D200 400E A719 0000E 01A63 12653  5 1440.                        MVC    DSKFL,=AL1(L'DSKFINIT)  Î DISK BLOCK INIT
 00149A 4140 4010            00010 12654  5 1441.                        LA     R4,DSKDATA              ADDR OF NODE (DISK DATA)
 DROP   DSKBLK,R4                  12655  5 1442.                        WITH   (NODE,R4)
 USING  NODE,R4
 00149E D227 4000 A96F 00000 01CB9 12671  5 1443.                        MVC    NODSTRT(FDIDANLN),FDIANODE      ACC NODE DATA
 0014A4 D201 4000 F03E 00000 0003E 12672  5 1444.                        MVC    NODLEN,FSMNALEN                 LEN OF ACC NODE
 0014AA 48E0 F040            00040 12673  5 1445.                        LH     R14,FSMNASPA                    FREE SPACE IN NODE
 0014AE 4BE0 A6F2            01A3C 12674  5 1446.                        SH     R14,=Y(FDIDAELN-CNODNLLN)       Î - ACC ENTRY LEN
 0014B2 40E0 4004            00004 12675  5 1447.                        STH    R14,NODSPACE                    Î
 DROP   NODE,R4                    12676  4 1448.                      END    ,                       OF ACCOUNT ROOT
 USING  DSKBLK,R4
 0014B6 A170           014B6 01480 12692  4 1449.                      ELSEIF (R2,EQ,CFSBDBLK+2),BEGIN        FILE RT FOR MASTER ACC
 0014B6 47F0 A1AC            014F6 12698  4          +
 0014BA 5920 A6C6            01A10 12712  4          +
 0014BE 4770 A1AC            014F6 12713  4          +
 0014C2                            12718  5 1450.                        MVC    DSKFFWD,=&L.AL1(NIL)    NO FWD PTR
 0014C2 D201 4006 A6BE 00006 01A08        5          +
 0014C8                            12719  5 1451.                        MVC    DSKFBAC,=&L.AL1(NIL)    Î OR BACK PTR
 0014C8 D201 4008 A6BE 00008 01A08        5          +
 0014CE                            12720  5 1452.                        MVC    DSKBLINK,=&L.AL1(NIL)   Î NOT PART OF A CHAIN
 0014CE D201 400C A6BE 0000C 01A08        5          +
 0014D4 D200 400E A719 0000E 01A63 12721  5 1453.                        MVC    DSKFL,=AL1(L'DSKFINIT)  Î DISK BLOCK INIT
 0014DA 4140 4010            00010 12722  5 1454.                        LA     R4,DSKDATA              ADDR OF NODE (DISK DATA)
 DROP   DSKBLK,R4                  12723  5 1455.                        WITH   (NODE,R4)
 USING  NODE,R4
 0014DE D25A 4000 A997 00000 01CE1 12739  5 1456.                        MVC    NODSTRT(FDIDFNLN),FDIFNODE      FILE NODE DATA
 0014E4 D201 4000 F04A 00000 0004A 12740  5 1457.                        MVC    NODLEN,FSMNFLEN                 LEN OF FILE NODE
 0014EA 48E0 F04C            0004C 12741  5 1458.                        LH     R14,FSMNFSPA                    FREE SPACE IN NODE
 0014EE 4BE0 A6F4            01A3E 12742  5 1459.                        SH     R14,=Y(FDIDFELN-CNODNLLN)       Î - FILES ENTRY LEN
 0014F2 40E0 4004            00004 12743  5 1460.                        STH    R14,NODSPACE                    Î
 DROP   NODE,R4                    12744  4 1461.                      END   ,                       OF FILE RT FOR MASTER ACC
 USING  DSKBLK,R4
 DROP   FSMB,R15                   12760  3 1462.                    END   ,                       OF PAST CAT DOUBLE WRITE BLKS
 DROP   DSKBLK,R4
 0014F6                            12774  2 1463.                  END   ,                        OF NOT PAST CAT
 0014F6                            12778  1 1464.                END   ,                        OF PAST BITMAP
 0014F6                            12782    1465.              END   ,                        OF NOT FSMB
 0014F6 18D8/982A D004       00004 12786    1466.              PEND  ,                   Restore registers and return
 DROP   *,R10
 0014FC 5890 D000/12FF       00000 12802             +
 001502 07F9                       12805             +
 DROP   CCW,R6                     12806    1467.              DROP  R6                  Release CCW addressability
1VFMT     (VFMT08) (09:47) (22MAR04) Orvyl's Disk Formatting Program                                                        Page   75
0Current Usings:  (IOB,R11) (ORVFMT,R12)
0Loc    Object Code    Addr1 Addr2  Stmt Lv Lineno    Source Statement           (Hibal 5, Asmedit 3.3)  HLASM R4.0  2004/03/22 09.47
+___    ______ ____    _____ _____  ____ __ ______    ______ _________
0                                  12814    1469.     ¿þþþþþþþþþþþþþþþþþþþþþþþþþþþþþþþþþþþþþþþþþþþþþþþþþþþþþþþþþþþþþþþþþþþþþÜ
                                   12815    1470.     Ÿ                                                                     Ÿ
                                   12816    1471.     Ÿ  FORMDS --                                                          Ÿ
                                   12817    1472.     Ÿ                                                                     Ÿ
                                                      ¾þþþþþþþþþþþþþþþþþþþþþþþþþþþþþþþþþþþþþþþþþþþþþþþþþþþþþþþþþþþþþþþþþþþþþ»
-001504 5090 D000            00000 12819    1474.     FORMDS   PROC  ,
 001508 902A D004/188D       00004 12832             +
 00150E 41D0 D028/0DA0       00028 12834             +
 001514 B205 C342      00358       12857    1475.              STCK  DEC                      GET TIME & DATE
 USING  *,R10
 001518 58F0 C342            00358 12858    1476.              L     R15,DEC                  UP TO THE SECOND
 00151C BEFF A7E8            01CFC 12859    1477.              ST4   R15,F1CDATE               AND SET
 001520 BEFF A7EC            01D00 12861    1478.              ST4   R15,F1RDATE                AND SET
 001524 BEFF A80E            01D22 12863    1479.              ST4   R15,F2CDATE                 AND SET
 001528 BEFF A812            01D26 12865    1480.              ST4   R15,F2RDATE                  AND SET
 00152C 4140 A554            01A68 12867    1481.              LA    R4,FDICHK
 USING  CHKPNT,R4                  12868    1482.              WITH   (CHKPNT,R4),BEGIN       ADDR TO CHECKPOINT BLK
 001530 D207 4000 C342 00000 00358 12882  1 1483.                MVC    CHKTIME,DEC             AND SET CHKPNT TIME
 001536 5810 C59A            005B0 12883  1 1484.                L      R1,FDBLKS               # OF DIR BLOCKS
 00153A 4B10 A52C            01A40 12884  1 1485.                SH     R1,=Y(CFSBDBLK+1+2)     # OF FREE DIR BLKS (-INIT TOO)
 00153E 4010 400E            0000E 12885  1 1486.                STH    R1,CHKFBNO              Î
 001542 D201 400A A52E 0000A 01A42 12886  1 1487.                MVC    CHKROOTB,=Y(CFSBDBLK+1) ROOT BLOCK AFTER DBL WRT BLKS
 001548 D201 400C A530 0000C 01A44 12887  1 1488.                MVC    CHKROOTN,=Y(CDSKHSIZ)   Î OFFSET PAST DISK HEADER
 00154E                            12888  1 1489.                MVC    CHKNXDB(BL),=&L.AL1(NIL)        NIL NEXT DATA_BLOCK
 00154E D201 4012 A4F4 00012 01A08        1          +
 001554 D201 4010 A532 00010 01A46 12889  1 1490.                MVC    CHKFREB,=Y(CFSBDBLK+3)  1ST FREE BLK (REL)
 00155A D201 4008 A534 00008 01A48 12890  1 1491.                MVC    CHKDWRT,=Y(1)           DBLE WRIT BLKS 1ST AFTER INTENT
 DROP   CHKPNT,R4                  12891    1492.              END    ,                       OF ADDR TO CHECKPOINT BLK
                                   12899    1493.
 001560 4140 A666            01B7A 12900    1494.              LA     R4,FDIFSM
 USING  FSMB,R4                    12901    1495.              WITH   (FSMB,R4),BEGIN        ADDR TO FSMB
 001564 4110 0001            00001 12915  1 1496.                LA    R1,1                    FIRST BLOCK OF BIT MAP FILE
 001568 5010 402C            0002C 12916  1 1497.                ST    R1,FSMBITSB              SET
 00156C 5800 C59E            005B4 12917  1 1498.                L     R0,BITBLKS              NUMBER OF BLOCKS
 001570 5000 4030            00030 12918  1 1499.                ST    R0,FSMBITBC              SET
 001574 BE17 A7DF            01CF3 12919  1 1500.                ST3   R1,F1FRST               BITMAP FILE ENTRY
 001578 BE07 A7E2            01CF6 12921  1 1501.                ST3   R0,F1BCNT                ALSO SET
 00157C 1A10                       12923  1 1502.                AR    R1,R0                   FIRST BLOCK OF CATALOG FILE
 00157E 5010 4024            00024 12924  1 1503.                ST    R1,FSMCATSB              SET
 001582 5800 C59A            005B0 12925  1 1504.                L     R0,FDBLKS               NUMBER OF BLOCKS
 001586 5000 4028            00028 12926  1 1505.                ST    R0,FSMCATBC              SET
 00158A BE17 A805            01D19 12927  1 1506.                ST3   R1,F2FRST               CATALOG FILE ENTRY
 00158E BE07 A808            01D1C 12929  1 1507.                ST3   R0,F2BCNT                ALSO SET
 001592 5A00 C59E            005B4 12931  1 1508.                A     R0,BITBLKS              TOTAL BLOCKS IN USE
 001596 BE07 A7BF            01CD3 12932  1 1509.                ST3   R0,FDIGLEN               SET
 00159A 4810 C5A6            005BC 12934  1 1510.                LH     R1,BLOCKSIZ       PHYSICAL SIZE OF DISK BLOCK
 00159E 4010 4038            00038 12935  1 1511.                STH    R1,FSMDSZ         Î
 0015A2 4B10 A536            01A4A 12936  1 1512.                SH     R1,=Y(8)          END DISK TAG OFFSET
 0015A6 4010 403C            0003C 12937  1 1513.                STH    R1,FSMDTAGX       Î
 0015AA 4B10 A530            01A44 12938  1 1514.                SH     R1,=Y(CDSKHSIZ)   AVAILABLE SPACE ON BLOCK
 0015AE 4010 403A            0003A 12939  1 1515.                STH    R1,FSMDAVA        Î
 0015B2 4010 403E            0003E 12940  1 1516.                STH    R1,FSMNALEN       LEN OF ACCOUNT NODE (WHOLE BLOCK)
1VFMT     (VFMT08) (09:47) (22MAR04) Orvyl's Disk Formatting Program                                                        Page   76
0Current Usings:  (FSMB,R4) (*,R10) (IOB,R11) (ORVFMT,R12)
0Loc    Object Code    Addr1 Addr2  Stmt Lv Lineno    Source Statement           (Hibal 5, Asmedit 3.3)  HLASM R4.0  2004/03/22 09.47
+___    ______ ____    _____ _____  ____ __ ______    ______ _________
00015B6 4010 404A            0004A 12941  1 1517.                STH    R1,FSMNFLEN       LEN OF FILE NODE (WHOLE BLOCK)
 0015BA 4B10 A538            01A4C 12942  1 1518.                SH     R1,=Y(L'NODE+CNODNLLN)  FREE SPACE IN NODE
 0015BE 4010 4040            00040 12943  1 1519.                STH    R1,FSMNASPA             Î
 0015C2 4010 404C            0004C 12944  1 1520.                STH    R1,FSMNFSPA             Î (FILE)
 0015C6 4810 A550            01A64 12945  1 1521.                LH     R1,FDAINX         MAX ENTRY SIZE IN INDEX NODE
 0015CA 4010 4044            00044 12946  1 1522.                STH    R1,FSMNAMXL       Î (ACCOUNT)
 0015CE 4A10 A550            01A64 12947  1 1523.                AH     R1,FDAINX         MIN FREE SPACE IN BALANCED ACC NODE
 0015D2 4B10 A53A            01A4E 12948  1 1524.                SH     R1,=Y(L'NTRYGR)   Î MAX ENTRY + MAX DIFF
 0015D6 4010 4048            00048 12949  1 1525.                STH    R1,FSMNANSP       Î
 0015DA 4810 A552            01A66 12950  1 1526.                LH     R1,FDFINX         MAX ENTRY SIZE IN INDEX NODE
 0015DE 4010 4050            00050 12951  1 1527.                STH    R1,FSMNFMXL       Î (FILE)
 0015E2 4A10 A552            01A66 12952  1 1528.                AH     R1,FDFINX         MIN FREE SPACE IN BALANCED FILE NODE
 0015E6 4B10 A53C            01A50 12953  1 1529.                SH     R1,=Y(L'NTRYFL+1) Î MAX ENTRY + MAX DIFF
 0015EA 4010 4054            00054 12954  1 1530.                STH    R1,FSMNFNSP       Î
 0015EE 4810 4040            00040 12955  1 1531.                LH     R1,FSMNASPA       MAX FREE SPACE IN BAL NODE (ACC)
 0015F2 4B10 4048            00048 12956  1 1532.                SH     R1,FSMNANSP       Î TOTAL-MAX_FREE
 0015F6 5E10 A4F0            01A04 12957  1 1533.                INCR   R1                Î Î = MIN_USED
 0015FA 8A10 0001            00001 12960  1 1534.                SRA    R1,1              Î 1/2*(MIN_USED)
 0015FE 4B10 4044            00044 12961  1 1535.                SH     R1,FSMNAMXL       Î (1/2*(MIN_USED))-MAX_IX_ENTRY
 001602 1311                       12962  1 1536.                LCR    R1,R1             Î -(MIN_AFTER_SPLIT)
 001604 4A10 4040            00040 12963  1 1537.                AH     R1,FSMNASPA       Î TOTAL-(MIN_AFTER_SPLIT)
 001608 4010 4046            00046 12964  1 1538.                STH    R1,FSMNAXSP       Î MAX FREE SPACE
 00160C 4810 404C            0004C 12965  1 1539.                LH     R1,FSMNFSPA       MAX FREE SPACE IN BAL NODE (FILE)
 001610 4B10 4054            00054 12966  1 1540.                SH     R1,FSMNFNSP       Î TOTAL-MAX_FREE
 001614 5E10 A4F0            01A04 12967  1 1541.                INCR   R1                Î Î = MIN_USED
 001618 8A10 0001            00001 12970  1 1542.                SRA    R1,1              Î 1/2*(MIN_USED)
 00161C 4B10 4050            00050 12971  1 1543.                SH     R1,FSMNFMXL       Î (1/2*(MIN_USED))-MAX_IX_ENTRY
 001620 1311                       12972  1 1544.                LCR    R1,R1             Î -(MIN_AFTER_SPLIT)
 001622 4A10 404C            0004C 12973  1 1545.                AH     R1,FSMNFSPA       Î TOTAL-(MIN_AFTER_SPLIT)
 001626 4010 4052            00052 12974  1 1546.                STH    R1,FSMNFXSP       Î MAX FREE SPACE
 00162A 4810 A53E            01A52 12975  1 1547.                LH     R1,=Y(CNTAMXL)    MAX ENTRY SIZE
 00162E 4010 4042            00042 12976  1 1548.                STH    R1,FSMTAXLN       Î ACCOUNT
 001632 4810 A540            01A54 12977  1 1549.                LH     R1,=Y(CNTFMXL)    MAX ENTRY SIZE
 001636 4010 404E            0004E 12978  1 1550.                STH    R1,FSMTFXLN       Î FILE
                                   12979  1 1551.
 00163A 4810 404E            0004E 12980  1 1552.                LH     R1,FSMTFXLN       MAX FILE ENTRY EXTENT LEN
 00163E 4B10 4050            00050 12981  1 1553.                SH     R1,FSMNFMXL       Î
 001642 4110 1002            00002 12982  1 1554.                LA     R1,@R1+CNTXFXLN   Î
 001646 48E0 4042            00042 12983  1 1555.                LH     R14,FSMTAXLN      MAX ACC ENTRY EXTENT LEN
 00164A 4BE0 4044            00044 12984  1 1556.                SH     R14,FSMNAMXL      Î
 00164E 41E0 E002            00002 12985  1 1557.                LA     R14,@R14+CNTXFXLN Î
 001652 19E1/47D0 A146       0165A 12986  1 1558.                IF     (R14,GT,R1),'LR R1,R14 '
 001658 181E                       13002  1          +
 00165A 4010 4056            00056 13007  1 1559.                STH    R1,FSMTXXLN       MAX EXTENDED ENTRY LENGTH
 00165E 5810 4028            00028 13008  1 1560.                L      R1,FSMCATBC       MIN LOGICAL FREE BLOCK NUM
 001662 4C10 A542            01A56 13009  1 1561.                MH     R1,=Y(CCAT1PCT)   Î
 001666 1B00                       13010  1 1562.                CLEAR  R0                Î
 001668 5D00 A500            01A14 13014  1 1563.                D      R0,=A(100)        Î PERCENTAGE
 00166C 4910 A544            01A58 13015  1 1564.                FLOOR  R1,=Y(CCAT1MIN)   Î ABSOLUTE MINIMUM
 001670 47B0 A164            01678 13018  1          +
 001674 4810 A544            01A58 13019  1          +
 001678 4010 4058            00058 13020  1 1565.                STH    R1,FSMLOGFR       Î
 00167C 5810 4028            00028 13021  1 1566.                L      R1,FSMCATBC       MIN FREE BLOCK NUM
 001680 4C10 A546            01A5A 13022  1 1567.                MH     R1,=Y(CCAT2PCT)   Î
1VFMT     (VFMT08) (09:47) (22MAR04) Orvyl's Disk Formatting Program                                                        Page   77
0Current Usings:  (FSMB,R4) (*,R10) (IOB,R11) (ORVFMT,R12)
0Loc    Object Code    Addr1 Addr2  Stmt Lv Lineno    Source Statement           (Hibal 5, Asmedit 3.3)  HLASM R4.0  2004/03/22 09.47
+___    ______ ____    _____ _____  ____ __ ______    ______ _________
0001684 1B00                       13023  1 1568.                CLEAR  R0                Î
 001686 5D00 A500            01A14 13027  1 1569.                D      R0,=A(100)        Î PERCENTAGE
 00168A 4910 A548            01A5C 13028  1 1570.                FLOOR  R1,=Y(CCAT2MIN)   Î ABSOLUTE MINIMUM
 00168E 47B0 A182            01696 13031  1          +
 001692 4810 A548            01A5C 13032  1          +
 001696 4010 405A            0005A 13033  1 1571.                STH    R1,FSMMNFRE       Î
                                   13034  1 1572.
 00169A 9680 C5BE      005D4       13035  1 1573.                SET    FMTBINIT          INITIALLY SET FLAG TO INDICATE OK
 00169E                            13041  1 1574.                IF     (FSMNALEN,NE,FSMDAVA),BEGIN     ACC NODE = FULL BLK
 00169E D501 403E 403A 0003E 0003A 13053  1          +
 0016A4 4780 A19E            016B2 13054  1          +
 0016A8 947F C5BE      005D4       13059  2 1575.                  CLEAR  FMTBINIT          DIDN'T PASS BALANCE CHECK
 0016AC 4110 A730/0A23       01C44 13066  2 1576.                  WTO    MF=(E,BALAFUL)    ACC NODE NOT A FULL BLOCK
 0016B2                            13070  1 1577.                END    ,                 OF ACC NODE = FULL BLK
 0016B2                            13074  1 1578.                IF     (FSMNFLEN,NE,FSMDAVA),BEGIN     FILE NODE = FULL BLK
 0016B2 D501 404A 403A 0004A 0003A 13086  1          +
 0016B8 4780 A1B2            016C6 13087  1          +
 0016BC 947F C5BE      005D4       13092  2 1579.                  CLEAR  FMTBINIT        DIDN'T PASS BALANCE CHECK
 0016C0 4110 A76C/0A23       01C80 13099  2 1580.                  WTO    MF=(E,BALFFUL)  FILE NODE NOT A FULL BLOCK
 0016C6                            13103  1 1581.                END    ,                 OF FILE NODE = FULL BLK
                                   13107  1 1582.     *   A balanced node must have at least 3 entrys for collapse to work
                                   13108  1 1583.     * right.  In order to use the average of the nodes being balanced
                                   13109  1 1584.     * as a sufficient indicator for not having to collapse, a limit
                                   13110  1 1585.     * must be placed on the maximum size of an entry.
                                   13111  1 1586.     *   Worst case is 3 nodes, 2 of which have 3 entrys, and the other node
                                   13112  1 1587.     * having only 2 entrys.  This would cause a failure if the average
                                   13113  1 1588.     * space of these entrys >= max free space allowed per node (total
                                   13114  1 1589.     * space >= 3 times the max free space per node).  Therefore the limit
                                   13115  1 1590.     * imposed is: max entry < 3/8 of max free space per node (that 8 entrys
                                   13116  1 1591.     * of max size cannot have a total size >= 3 times the max free space
                                   13117  1 1592.     * per node).
 0016C6 4810 4046            00046 13118  1 1593.                LH     R1,FSMNAXSP     BALANCE CHECK (max space in bal node)
 0016CA 4C10 A54A            01A5E 13119  1 1594.                MH     R1,=Y(3)        Î
 0016CE 48E0 4044            00044 13120  1 1595.                LH     R14,FSMNAMXL    Î (max entry in node)
 0016D2 4CE0 A536            01A4A 13121  1 1596.                MH     R14,=Y(8)       Î
 0016D6 19E1/4750 A1D2       016E6 13122  1 1597.                IF     (R14,GE,R1),BEGIN        WILL CAUSE BALANCE ERROR
 0016DC 947F C5BE      005D4       13137  2 1598.                  CLEAR  FMTBINIT        DIDN'T PASS BALANCE CHECK
 0016E0 4110 A6C4/0A23       01BD8 13144  2 1599.                  WTO    MF=(E,BALAIX)   ACC NODE INDEX MAX IS TOO LARGE
 0016E6                            13148  1 1600.                END    ,                       OF WILL CAUSE BALANCE ERROR
 0016E6 4810 4052            00052 13152  1 1601.                LH     R1,FSMNFXSP     BALANCE CHECK (max space in bal node)
 0016EA 4C10 A54A            01A5E 13153  1 1602.                MH     R1,=Y(3)        Î
 0016EE 48E0 4050            00050 13154  1 1603.                LH     R14,FSMNFMXL    Î (max entry in node)
 0016F2 4CE0 A536            01A4A 13155  1 1604.                MH     R14,=Y(8)       Î
 0016F6 19E1/4750 A1F2       01706 13156  1 1605.                IF     (R14,GE,R1),BEGIN       WILL CAUSE BALANCE ERROR
 0016FC 947F C5BE      005D4       13171  2 1606.                  CLEAR  FMTBINIT        DIDN'T PASS BALANCE CHECK
 001700 4110 A6FC/0A23       01C10 13178  2 1607.                  WTO    MF=(E,BALFIX)   FILE NODE INDEX MAX IS TOO LARGE
 001706                            13182  1 1608.                END    ,                       OF WILL CAUSE BALANCE ERROR
 DROP   FSMB,R4                    13186    1609.              END    ,               OF ADDR TO THE FSMB
 001706 9180 C5BE      005D4       13194    1610.              IF     FMTBINIT,'CLEAR R15'    INDICATE NO ERROR
 00170A 47E0 A1FC/1BFF       01710 13204             +
 001710 A200           01710 0170C 13218    1611.              ELSE   'LA R15,1'              INDICATE ERROR
 001710 47F0 A204            01718 13223             +
 001714 41F0 0001            00001 13230             +
 001718 18D8/982A D004       00004 13235    1612.              PEND  ,                   Restore registers and return
1VFMT     (VFMT08) (09:47) (22MAR04) Orvyl's Disk Formatting Program                                                        Page   78
0Current Usings:  (IOB,R11) (ORVFMT,R12)
0Loc    Object Code    Addr1 Addr2  Stmt Lv Lineno    Source Statement           (Hibal 5, Asmedit 3.3)  HLASM R4.0  2004/03/22 09.47
+___    ______ ____    _____ _____  ____ __ ______    ______ _________
0DROP   *,R10
 00171E 5890 D000/12FF       00000 13251             +
 001724 07F9                       13254             +
1VFMT     (VFMT08) (09:47) (22MAR04) Orvyl's Disk Formatting Program                                                        Page   79
0Current Usings:  (IOB,R11) (ORVFMT,R12)
0Loc    Object Code    Addr1 Addr2  Stmt Lv Lineno    Source Statement           (Hibal 5, Asmedit 3.3)  HLASM R4.0  2004/03/22 09.47
+___    ______ ____    _____ _____  ____ __ ______    ______ _________
0                                  13256    1614.     ¿þþþþþþþþþþþþþþþþþþþþþþþþþþþþþþþþþþþþþþþþþþþþþþþþþþþþþþþþþþþþþþþþþþþþþÜ
                                   13257    1615.     Ÿ                                                                     Ÿ
                                   13258    1616.     Ÿ  VFMT -- Scan exec field paramters                                  Ÿ
                                   13259    1617.     Ÿ                                                                     Ÿ
                                                      ¾þþþþþþþþþþþþþþþþþþþþþþþþþþþþþþþþþþþþþþþþþþþþþþþþþþþþþþþþþþþþþþþþþþþþþ»
-001D3C                01A64 01E00 13261    1619.              DATA  BEGIN
                                   13266  1 1620.   C INCFILL    WTO   '*** ORVFMT ***  FILL with FDC/Restore isincompatible',
 001D3C 0038/8000                         1 1621.                      ROUTCDE=2,DESC=6,MF=L
 001D40 5C5C5C40D6D9E5C6           13270  1          +
 001D48 D4E3405C5C5C4040                  1          +
 001D74 0400/4000                  13271  1          +
                                   13273  1 1622.
                                   13274  1 1623.   C PIM        WTO   '*** ORVFMT ***  FDC and RESTORE modes incompatible',
 001D78 0036/8000                         1 1624.                      ROUTCDE=2,DESC=6,MF=L
 001D7C 5C5C5C40D6D9E5C6           13278  1          +
 001D84 D4E3405C5C5C4040                  1          +
 001DAE 0400/4000                  13279  1          +
                                   13281  1 1625.
                                   13282  1 1626.   C PEM        WTO   '*** ORVFMT *** Parameter error',
 001DB4 0022/8000                         1 1627.                      ROUTCDE=2,DESC=6,MF=L
 001DB8 5C5C5C40D6D9E5C6           13286  1          +
 001DC0 D4E3405C5C5C40D7                  1          +
 001DD6 0400/4000                  13287  1          +
                                   13289  1 1628.     *
                                   13291  1 1630.                SCANCB PFX=SCAN           Scanner control block
 001DDC                            13292  1 01-SCANC +SCANCB     DS    0F
 001DDC                            13293  1 01-SCANC +SCANVAL    DS    A                       VALUE RETURNED
 001DE0                            13294  1 01-SCANC +SCANKW     DS    CL8                     CURRENT KEY WORD
 001DE8                            13295  1 01-SCANC +SCANLEN    DS    A                       LENGTH LEFT TO SCAN
 001DEC                            13296  1 01-SCANC +SCANLOC    DS    A                       NEXT THING TO SCAN
 001DF0                            13297  1 01-SCANC +SCANRA     DS    A                       RETURN ADDRESS
 001DF4                            13298  1 01-SCANC +SCANPRT    DS    A                       ROUTING TABLE ADDRESS
 001DF8                            13299  1 01-SCANC +SCANCLT    DS    A                       SCAN TYPE
                                   13300  1          +*                                      0 = NORMAL SCAN
                                   13301  1          +*                                      4 = EXPRESSION ISOLATION
                                   13302  1          +*                                      8 = EXPRESSION SCAN
                                   13303  1 01-SCANC +SCANCBL    EQU *-SCANCB
 001726                01339 01E00 13305    1632.              END   ,
-
 001726 5090 D000            00000 13312    1634.     VFMT_INI PROC  ,
 00172A 902A D004/188D       00004 13325             +
 001730 41D0 D028/0DA0       00028 13327             +
 001736 5810 C372            00388 13350    1635.              L     R1,EXECPTR          Set address of EXEC parameters
 USING  *,R10
 00173A 4800 1000            00000 13351    1636.              LH    R0,@R1              Loadup length of parameter string
 00173E 1200/4780 A02A       01760 13352    1637.              IF    (R0,NZ),BEGIN       Process parm string
 001744 4110 1002            00002 13366  1 1638.                LA    R1,@R1+2            Space past count
 001748 41F0 A6A6            01DDC 13367  1 1639.                SCINIT (R1),(R0),SCANCB   Initialize scanner
 00174C 58E0 A2E2/0DEE       01A18 13385  1          +
 001752 4110 A1B6            018EC 13387  1 1640.                SCAN  PARMKW              Process exec field parameters
1VFMT     (VFMT08) (09:47) (22MAR04) Orvyl's Disk Formatting Program                                                        Page   80
0Current Usings:  (*,R10) (IOB,R11) (ORVFMT,R12)
0Loc    Object Code    Addr1 Addr2  Stmt Lv Lineno    Source Statement           (Hibal 5, Asmedit 3.3)  HLASM R4.0  2004/03/22 09.47
+___    ______ ____    _____ _____  ____ __ ______    ______ _________
0001756 58E0 A2E6/0DEE       01A1C 13400  1          +
 00175C 4770 A080            017B6 13402  1 1641.                IF    NZ,PARMERR          Parameter error test
 001760                            13416    1642.              END   ,
 001760 9140 C5BB      005D1       13420    1643.              IF    (PFLPAGE,AND,(BLOCKSIZ,NE,4096)),PARMERR   CHECK
 001764 47E0 A03C            01772 13432             +
 001768 D501 A32A C5A6 01A60 005BC 13446             +
 00176E 4770 A080            017B6 13449             +
 001772 9188 C5BB      005D1       13455    1644.              IF    (PFLREST*PFLFDC),NOCANDO        SORRY, NOT VALID
 001776 4710 A08E            017C4 13470             +
 00177A 9110 C5BD      005D3       13476    1645.              IF    (FILLREC,AND,(PFLREST+PFLFDC)),INCFILL
 00177E 47E0 A054            0178A 13488             +
 001782 9188 C5BB      005D1       13502             +
 001786 4770 A606            01D3C 13505             +
                                                               ¿þþþþþþþþþþþþþþþþþþþþþþþþþþþþþþþþÜ
                                   13511    1646.              Ÿ  Obtain storage for IOB chain  Ÿ
                                                               ¾þþþþþþþþþþþþþþþþþþþþþþþþþþþþþþþþ»
 00178A 5800 A2EA            01A20 13512    1647.              L     R0,=A(&NUMIOB*L'IOB)    Memory required for IOB chain
 00178E 0700/47F0 A062       01798 13513    1648.              STORAGE OBTAIN,LENGTH=(0),BNDRY=PAGE,LOC=(BELOW,ANY)
 001794 00/00/00/56                13517             +
 001798 58F0 A05E            01794 13522             +
 00179C 58E0 0010            00010 13523             +
 0017A0 58EE 0304            00304 13524             +
 0017A4 58EE 00A0            000A0 13525             +
 0017A8 B218 E000      00000       13526             +
 0017AC 5010 C5C2            005D8 13527    1649.              ST    R1,IOBS             Save address of IOB storage
 0017B0 1BFF                       13528    1650.              CLEAR R15                 Clear initialization return code
 0017B2 47F0 A1A8            018DE 13532    1651.              EXIT  VFMT_INI            Exit initialization code
1VFMT     (VFMT08) (09:47) (22MAR04) Orvyl's Disk Formatting Program                                                        Page   81
0Current Usings:  (*,R10) (IOB,R11) (ORVFMT,R12)
0Loc    Object Code    Addr1 Addr2  Stmt Lv Lineno    Source Statement           (Hibal 5, Asmedit 3.3)  HLASM R4.0  2004/03/22 09.47
+___    ______ ____    _____ _____  ____ __ ______    ______ _________
0                                  13536    1653.     ¿þþþþþþþþþþþþþþþþþþþþþþþþþþþþþþþþþþþþþþþþþþþþþþþþþþþþþþþþþþþþþþþþþþþþþÜ
                                   13537    1654.     Ÿ                                                                     Ÿ
                                   13538    1655.     Ÿ   Exec statement parameter scan exit routines                       Ÿ
                                   13539    1656.     Ÿ                                                                     Ÿ
                                                      ¾þþþþþþþþþþþþþþþþþþþþþþþþþþþþþþþþþþþþþþþþþþþþþþþþþþþþþþþþþþþþþþþþþþþþþ»
-0017B6                            13541    1658.     PARMERR  LABEL ,                   Found an invalid exec parameter
 0017B6 4110 A67E/0A23       01DB4 13543    1659.              WTO   MF=(E,PEM)          Write to job log and console
 0017BC 920C C36D      00383       13547    1660.              MVI   RETCDE+3,12         Set return code
 0017C0 47F0 C280            00296 13548    1661.              B     RETURN              And abort further processing
00017C4                            13550    1663.     NOCANDO  LABEL ,                   Incompatible options specified
 0017C4 4110 A642/0A23       01D78 13552    1664.              WTO   MF=(E,PIM)          Write error message to console
 0017CA 920C C36D      00383       13556    1665.              MVI   RETCDE+3,12         Set error return code
 0017CE 47F0 C280            00296 13557    1666.              B     RETURN              And terminate further processing
00017D2                            13559    1668.     OWNGRP   LABEL ,                   Set catalog file system owner
 0017D2 5900 A2EE            01A24 13561    1669.              IF    (R0,NE,2),PARMERR   Check length
 0017D6 4770 A080            017B6 13575             +
 0017DA D201 A595 1000 01CCB 00000 13581    1670.              MVC   FDIGRP(2),@R1       Move in group code of owner
 0017E0 07FE                       13582    1671.              SCRTN (R15)               Return to the scanner
00017E2                            13589    1673.     VOLS     LABEL ,                   Set number of volumes to format
 0017E2 47D0 A080            017B6 13591    1674.              IF    NP,PARMERR          Insure valid passed parameter
 0017E6 D201 C5A8 A6A8 005BE 01DDE 13605    1675.              MVC   LASTVOL,SCANVAL+2   Set numberof volumes
 0017EC 07FE                       13606    1676.              SCRTN (R15)               Return to the scanner
00017EE                            13613    1678.     RESTOR   LABEL ,                   Set for restore
 0017EE 9608 C5BB      005D1       13615    1679.              SET   PFLREST             Indicate restore operation
 0017F2 07FE                       13621    1680.              SCRTN (R15)               Return to the scanner
00017F4                            13628    1682.     SETINC   LABEL ,                   Set for restore with incremental
 0017F4 9604 C5BB      005D1       13630    1683.              SET   PFLINC              Indicate incremental restore
 0017F8 07FE                       13636    1684.              SCRTN (R15)               Return to the scanner
00017FA                            13643    1686.     SETSTRT  LABEL ,                   Set starting orvyl block
 0017FA 47D0 A080            017B6 13645    1687.              IF    NP,PARMERR          Paramter error
 0017FE 5800 A6A6            01DDC 13659    1688.              L     R0,SCANVAL          Retrieve block starting number
 001802 5000 C57A            00590 13660    1689.              ST    R0,STRTBLK          Save starting block to restore
 001806 9620 C5BD      005D3       13661    1690.              SET   RESTSTRT
 00180A 07FE                       13667    1691.              SCRTN (R15)               Return to the scanner
000180C                            13674    1693.     BLKSIZE  LABEL ,                   Set blocksize value
 00180C 47D0 A080            017B6 13676    1694.              IF    NP,PARMERR          Insure valid parameter passed
 001810 D201 C5A6 A6A8 005BC 01DDE 13690    1695.              MVC   BLOCKSIZ,SCANVAL+2  Set blocksize value
 001816 07FE                       13691    1696.              SCRTN (R15)               Return to the scanner
0001818                            13698    1698.     BTBSZ    LABEL ,                   Set number of bitmap blocks
 001818 47D0 A080            017B6 13700    1699.              IF    NP,PARMERR          Insure a valid number is there
 00181C D203 C59E A6A6 005B4 01DDC 13714    1700.              MVC   BITBLKS,SCANVAL     Set number of bit blocks
 001822 07FE                       13715    1701.              SCRTN (R15)               Return to the scanner
1VFMT     (VFMT08) (09:47) (22MAR04) Orvyl's Disk Formatting Program                                                        Page   82
0Current Usings:  (*,R10) (IOB,R11) (ORVFMT,R12)
0Loc    Object Code    Addr1 Addr2  Stmt Lv Lineno    Source Statement           (Hibal 5, Asmedit 3.3)  HLASM R4.0  2004/03/22 09.47
+___    ______ ____    _____ _____  ____ __ ______    ______ _________
0                                  13722    1703.     ¿þþþþþþþþþþþþþþþþþþþþþþþþþþþþþþþþþþþþþþþþþþþþþþþþþþþþþþþþþþþþþþþþþþþþþÜ
                                   13723    1704.     Ÿ                                                                     Ÿ
                                   13724    1705.     Ÿ   Exec statement parameter scan exit routines                       Ÿ
                                   13725    1706.     Ÿ                                                                     Ÿ
                                                      ¾þþþþþþþþþþþþþþþþþþþþþþþþþþþþþþþþþþþþþþþþþþþþþþþþþþþþþþþþþþþþþþþþþþþþþ»
-001824                            13727    1708.     FDBSZ    LABEL ,                   Set number of catalogue blocks
 001824 47D0 A080            017B6 13729    1709.              IF    NP,PARMERR          Check for a valid block count
 001828 D203 C59A A6A6 005B0 01DDC 13743    1710.              MVC   FDBLKS,SCANVAL      Set number of cat blocks
 00182E 07FE                       13744    1711.              SCRTN (R15)               Return to the scanner
0001830                            13751    1713.     ACCIX    LABEL ,
 001830 47D0 A080            017B6 13753    1714.              IF    NP,PARMERR
 001834                            13767    1715.              IF     (SCANVAL,LT,L'NTRYGR),PARMERR  LT ~PERMIT LEN
 001834 D503 A2F2 A6A6 01A28 01DDC 13778             +
 00183A 4720 A080            017B6 13781             +
 00183E D201 A32E A6A8 01A64 01DDE 13787    1716.              MVC   FDAINX,SCANVAL+2
 001844 07FE                       13788    1717.              SCRTN (R15)               Return to the scanner
0001846                            13795    1719.     FILEIX   LABEL ,
 001846 47D0 A080            017B6 13797    1720.              IF    NP,PARMERR
 00184A                            13811    1721.              IF    (SCANVAL,LT,L'NTRYFL+CNTFMXSZ),PARMERR
 00184A D503 A2F6 A6A6 01A2C 01DDC 13822             +
 001850 4720 A080            017B6 13825             +
 001854 D201 A330 A6A8 01A66 01DDE 13831    1722.              MVC   FDFINX,SCANVAL+2
 00185A 07FE                       13832    1723.              SCRTN (R15)               Return to the scanner
000185C                            13839    1725.     CNTG     LABEL ,                   Allow only continguous allocations
 00185C 9610 C5BB      005D1       13841    1726.              SET   PFLCNTG             Set contiguous only
 001860 07FE                       13847    1727.              SCRTN (R15)               Return to the scanner
0001862                            13854    1729.     NOCNTG   LABEL ,                   Multiple extents will be allowed
 001862 94EF C5BB      005D1       13856    1730.              CLEAR PFLCNTG             Allow scattered allocation
 001866 07FE                       13863    1731.              SCRTN (R15)               Return to the scanner
0001868                            13870    1733.     FDC      LABEL ,                   Format orvyl catalog and bitmap
 001868 9680 C5BB      005D1       13872    1734.              SET   PFLFDC              Set file directory format
 00186C 07FE                       13878    1735.              SCRTN (R15)               Return to the scanner
000186E                            13885    1737.     NOFDC    LABEL ,                   Normal format/restore
 00186E 947F C5BB      005D1       13887    1738.              CLEAR PFLFDC              No file directory
 001872 07FE                       13894    1739.              SCRTN (R15)               Return to the scanner
0001874                            13901    1741.     CYL      LABEL ,                   Cylinder allocation only
 001874 9620 C5BB      005D1       13903    1742.              SET   PFLCYL              Set cylinders only
 001878 07FE                       13909    1743.              SCRTN (R15)               Return to the scanner
000187A                            13916    1745.     NOCYL    LABEL ,                   Allow any allocation unit
 00187A 94DF C5BB      005D1       13918    1746.              CLEAR PFLCYL              Set for any allocation unit
 00187E 07FE                       13925    1747.              SCRTN (R15)               Return to the scanner
1VFMT     (VFMT08) (09:47) (22MAR04) Orvyl's Disk Formatting Program                                                        Page   83
0Current Usings:  (*,R10) (IOB,R11) (ORVFMT,R12)
0Loc    Object Code    Addr1 Addr2  Stmt Lv Lineno    Source Statement           (Hibal 5, Asmedit 3.3)  HLASM R4.0  2004/03/22 09.47
+___    ______ ____    _____ _____  ____ __ ______    ______ _________
0                                  13932    1749.     ¿þþþþþþþþþþþþþþþþþþþþþþþþþþþþþþþþþþþþþþþþþþþþþþþþþþþþþþþþþþþþþþþþþþþþþÜ
                                   13933    1750.     Ÿ                                                                     Ÿ
                                   13934    1751.     Ÿ   Exec statement parameter scan exit routines                       Ÿ
                                   13935    1752.     Ÿ                                                                     Ÿ
                                                      ¾þþþþþþþþþþþþþþþþþþþþþþþþþþþþþþþþþþþþþþþþþþþþþþþþþþþþþþþþþþþþþþþþþþþþþ»
-001880                            13937    1754.     PPAGE    LABEL ,                   Set for formatting page data sets
 001880 9640 C5BB      005D1       13939    1755.              SET   PFLPAGE             Set page formatting
 001884 D201 C5A6 A32A 005BC 01A60 13945    1756.              MVC   BLOCKSIZ,=AL2(4096) Switch default block size
 00188A                            13946    1757.              CLEAR DTHDR               Set default length
 00188A D701 C5AE C5AE 005C4 005C4 13952             +
 001890 94FD C5BB      005D1       13953    1758.              CLEAR PFLKEY              Indicate no keyed records
 001894                            13960    1759.              CLEAR FLHDR
 001894 D701 C5AC C5AC 005C2 005C2 13966             +
 00189A 4110 A2FA            01A30 13967    1760.              SETMSG 'PAGE'             Set default ddname
 00189E 4100 0004            00004 13970             +
00018A2                            13972    1762.     DDNAME   LABEL ,
 0018A2 5900 A2FE            01A34 13974    1763.              IF    (R0,NE,4),PARMERR   Check DDNAME length
 0018A6 4770 A080            017B6 13988             +
 0018AA D203 C5F6 1000 0060C 00000 13994    1764.              MVC   DCB+(DCBDDNAM-IHADCB)(4),@R1      Set DDNAME
 0018B0 D603 C5F6 A302 0060C 01A38 13995    1765.              OC    DCB+(DCBDDNAM-IHADCB)(4),=CL4' '  Set capital
 0018B6 D203 C694 C5F6 006AA 0060C 13996    1766.              MVC   SFMDD(4),DCB+(DCBDDNAM-IHADCB)
 0018BC 07FE                       13997    1767.              SCRTN (R15)               Return to the scanner
00018BE                            14004    1769.     SHDIS    LABEL ,                   Set Orvyl header length
 0018BE 47D0 A080            017B6 14006    1770.              IF    NP,PARMERR          Insure we have a valid parameter
 0018C2 5800 A6A6            01DDC 14020    1771.              L     R0,SCANVAL          Load orvyl header length value
 0018C6 4000 C5AC            005C2 14021    1772.              STH   R0,FLHDR            And save for future use
 0018CA 07FE                       14022    1773.              SCRTN (15)                Return to the scanner
00018CC                            14030    1775.     KEYHDR   LABEL ,                   Header resides in key field
 0018CC 9602 C5BB      005D1       14032    1776.              SET   PFLKEY              Set hdr in key field
 0018D0 07FE                       14038    1777.              SCRTN (R15)               Return to the scanner
00018D2                            14045    1779.     NOKEYHDR LABEL ,                   Header resides in data block
 0018D2 94FD C5BB      005D1       14047    1780.              CLEAR PFLKEY              Set hdr in data field
 0018D6 07FE                       14054    1781.              SCRTN (R15)               Return to the scanner
00018D8                            14061    1783.     SETFILL  LABEL ,                   Set to fill formatted records
 0018D8 9610 C5BD      005D3       14063    1784.              SET   FILLREC             Set filling records
 0018DC 07FE                       14069    1785.              SCRTN (R15)               Return to the scanner
00018DE 18D8/982A D004       00004 14076    1787.              PEND  ,
 DROP   *,R10
 0018E4 5890 D000/12FF       00000 14092             +
 0018EA 07F9                       14095             +
1VFMT     (VFMT08) (09:47) (22MAR04) Orvyl's Disk Formatting Program                                                        Page   84
0Current Usings:  (IOB,R11) (ORVFMT,R12)
0Loc    Object Code    Addr1 Addr2  Stmt Lv Lineno    Source Statement           (Hibal 5, Asmedit 3.3)  HLASM R4.0  2004/03/22 09.47
+___    ______ ____    _____ _____  ____ __ ______    ______ _________
0                                  14097    1789.     ¿þþþþþþþþþþþþþþþþþþþþþþþþþþþþþþþþþþþþþþþþþþþþþþþþþþþþþþþþþþþþþþþþþþþþþÜ
                                   14098    1790.     Ÿ                                                                     Ÿ
                                   14099    1791.     Ÿ  ORVFMT - Exec field parameter definitions                          Ÿ
                                   14100    1792.     Ÿ                                                                     Ÿ
                                                      ¾þþþþþþþþþþþþþþþþþþþþþþþþþþþþþþþþþþþþþþþþþþþþþþþþþþþþþþþþþþþþþþþþþþþþþ»
00018EC                            14102    1794.     PARMKW   SCKW  VOLS,VOLS,(P,PI,A),100
 0018EC BB0017E2E5D6D3E2           14103             +
 0018F4 00000064                   14104             +
 0018F8                            14105    1795.              SCKW  BLKSIZE,BLKSIZE,(A,P,PI),32767
 0018F8 BE00180CC2D3D2E2           14106             +
 001903 00007FFF                   14107             +
 001907                            14108    1796.              SCKW  DDNAME,DDNAME,(P,A)
 001907 8D0018A2C4C4D5C1           14109             +
 001911                            14110    1797.              SCKW  FILL,SETFILL,A
 001911 0B0018D8C6C9D3D3           14111             +
 001919                            14112    1798.              SCKW  FDC,FDC
 001919 02001868C6C4C3             14113             +
 001920                            14114    1799.              SCKW  NOFDC,NOFDC,A
 001920 0C00186ED5D6C6C4           14115             +
 001929                            14116    1800.              SCKW  PAGE,PPAGE,A
 001929 0B001880D7C1C7C5           14117             +
 001931                            14118    1801.              SCKW  BITBLK,BTBSZ,(P,PI,A),1024
 001931 BD001818C2C9E3C2           14119             +
 00193B 00000400                   14120             +
 00193F                            14121    1802.              SCKW  FDBLK,FDBSZ,(P,PI,A),8192
 00193F BC001824C6C4C2D3           14122             +
 001948 00002000                   14123             +
 00194C                            14124    1803.              SCKW  CYLINDER,CYL,A
 00194C 0F001874C3E8D3C9           14125             +
 001958                            14126    1804.              SCKW  NOCYLINDER,NOCYL,A
 001958 0F00187AD5D6C3E8           14127             +
 001964                            14128    1805.              SCKW  CONTIG,CNTG,A
 001964 0D00185CC3D6D5E3           14129             +
 00196E                            14130    1806.              SCKW  CNTG,CNTG,A
 00196E 0B00185CC3D5E3C7           14131             +
 001976                            14132    1807.              SCKW  NOCNTG,NOCNTG
 001976 05001862D5D6C3D5           14133             +
 001980                            14134    1808.              SCKW  RESTORE,RESTOR,A
 001980 0E0017EED9C5E2E3           14135             +
 00198B                            14136    1809.              SCKW  INCDATA,SETINC,A
 00198B 0E0017F4C9D5C3C4           14137             +
 001996                            14138    1810.              SCKW  HDRSIZE,SHDIS,(A,P,PI),255
 001996 BE0018BEC8C4D9E2           14139             +
 0019A1 000000FF                   14140             +
 0019A5                            14141    1811.              SCKW  KEYHDR,KEYHDR,A
 0019A5 0D0018CCD2C5E8C8           14142             +
 0019AF                            14143    1812.              SCKW  NOKEYHDR,NOKEYHDR,A
 0019AF 0F0018D2D5D6D2C5           14144             +
 0019BB                            14145    1813.              SCKW  GROUP,OWNGRP,(A,P)
 0019BB 8C0017D2C7D9D6E4           14146             +
 0019C4                            14147    1814.              SCKW  GRP,OWNGRP,P
 0019C4 820017D2C7D9D7             14148             +
 0019CB                            14149    1815.              SCKW  ACCIX,ACCIX,(P,PI,A),2048
1VFMT     (VFMT08) (09:47) (22MAR04) Orvyl's Disk Formatting Program                                                        Page   85
0Current Usings:  (IOB,R11) (ORVFMT,R12)
0Loc    Object Code    Addr1 Addr2  Stmt Lv Lineno    Source Statement           (Hibal 5, Asmedit 3.3)  HLASM R4.0  2004/03/22 09.47
+___    ______ ____    _____ _____  ____ __ ______    ______ _________
00019CB BC001830C1C3C3C9           14150             +
 0019D4 00000800                   14151             +
 0019D8                            14152    1816.              SCKW  FILEIX,FILEIX,(P,PI,A),2048
 0019D8 BD001846C6C9D3C5           14153             +
 0019E2 00000800                   14154             +
 0019E6                            14155    1817.              SCKW  START,SETSTRT,(P,I,A)
 0019E6 CC0017FAE2E3C1D9           14156             +
 0019EF FF0017B6                   14157    1818.              SCKW  ,PARMERR
1VFMT     (VFMT08) (09:47) (22MAR04) Orvyl's Disk Formatting Program                                                        Page   86
0Current Usings:  (IOB,R11) (ORVFMT,R12)
0Loc    Object Code    Addr1 Addr2  Stmt Lv Lineno    Source Statement           (Hibal 5, Asmedit 3.3)  HLASM R4.0  2004/03/22 09.47
+___    ______ ____    _____ _____  ____ __ ______    ______ _________
0                                  14160    1820.     ¿þþþþþþþþþþþþþþþþþþþþþþþþþþþþþþþþþþþþþþþþþþþþþþþþþþþþþþþþþþþþþþþþþþþþþÜ
                                   14161    1821.     Ÿ                                                                     Ÿ
                                   14162    1822.     Ÿ  Define final literal pool                                          Ÿ
                                   14163    1823.     Ÿ                                                                     Ÿ
                                                      ¾þþþþþþþþþþþþþþþþþþþþþþþþþþþþþþþþþþþþþþþþþþþþþþþþþþþþþþþþþþþþþþþþþþþþþ»
-0019F8                            14165    1825.              LTORG ,                   Define final literal pool
 0019F8 00000001                   14167                             =F'1'
 0019FC 00000008                   14168                             =F'8'
 001A00 00000003                   14169                             =A(CFSBDBLK)
 001A04 00000001                   14170                             =A(1)
 001A08 FFFFFFFF                   14171                             =4AL1(NIL)
 001A0C 00000004                   14172                             =A(CFSBDBLK+1)
 001A10 00000005                   14173                             =A(CFSBDBLK+2)
 001A14 00000064                   14174                             =A(100)
 001A18 00000000                   14175                             =V(SCINIT)
 001A1C 00000000                   14176                             =V(SCAN)
 001A20 00000480                   14177                             =A(2*L'IOB)
 001A24 00000002                   14178                             =A(2)
 001A28 0000001A                   14179                             =AL4(L'NTRYGR)
 001A2C 00000041                   14180                             =AL4(L'NTRYFL+CNTFMXSZ)
 001A30 D7C1C7C5                   14181                             =C'PAGE'
 001A34 00000004                   14182                             =A(4)
 001A38 40404040                   14183                             =CL4' '
 001A3C 001A                       14184                             =Y(FDIDAELN-CNODNLLN)
 001A3E 004D                       14185                             =Y(FDIDFELN-CNODNLLN)
 001A40 0006                       14186                             =Y(CFSBDBLK+1+2)
 001A42 0004                       14187                             =Y(CFSBDBLK+1)
 001A44 0010                       14188                             =Y(CDSKHSIZ)
 001A46 0006                       14189                             =Y(CFSBDBLK+3)
 001A48 0001                       14190                             =Y(1)
 001A4A 0008                       14191                             =Y(8)
 001A4C 000E                       14192                             =Y(L'NODE+CNODNLLN)
 001A4E 001A                       14193                             =Y(L'NTRYGR)
 001A50 0021                       14194                             =Y(L'NTRYFL+1)
 001A52 0108                       14195                             =Y(CNTAMXL)
 001A54 0129                       14196                             =Y(CNTFMXL)
 001A56 0005                       14197                             =Y(CCAT1PCT)
 001A58 003C                       14198                             =Y(CCAT1MIN)
 001A5A 0001                       14199                             =Y(CCAT2PCT)
 001A5C 000A                       14200                             =Y(CCAT2MIN)
 001A5E 0003                       14201                             =Y(3)
 001A60 1000                       14202                             =AL2(4096)
 001A62 FF                         14203                             =X'FF'
 001A63 80             01DFC 01E00 14204                             =AL1(L'DSKFINIT)
 001E00                01E00 01E00 14208    1826.              END   .

1VFMT     (VFMT08) (09:47) (22MAR04) Ordinary Symbol and Literal Cross Reference                                            Page   87
-Symbol   Length   Value     Id    R Type   Defn References                                  HLASM R4.0  2004/03/22 09.47
0$$$@R10       1 00000000 FFFFFFF4     J     863  1068   1080
 $$$@R11       1 00000000 FFFFFFF3     J     876  1093
 $$$@R12       1 00000000 FFFFFFF2     J     889  1106
 $$$@R13       1 00000000 FFFFFFF1     J     902  1119
 $$$@R2        1 00000000 FFFFFFFC     J     759  1029
 $$$@R8        1 00000000 FFFFFFF6     J     837  1042
 $$$@R9        1 00000000 FFFFFFF5     J     850  1055
 $$$C1VFMT
               1 00000876 00000001     J    9100  9102   9216   9653  10154  10991  11014
 $$$C2VFMT
               1 00001339 00000001     J   11952 11954  12158  13309
 $$$C3VFMT
               1 00001DFC 00000001     J   14205 14207
 $$$C4VFMT
               1 00001E00 00000001     J   14211 14213
 $$$D0VFMT
               1 00000357 00000001     J    1128  7920
 $$$D1VFMT
               1 000010E8 00000001     J    9101  9194   9637  10104  10976
 $$$D2VFMT
               1 00001A64 00000001     J   11953 11961  13262
 $$$RCCW       1 00000000 FFFFFFD2     J    7827  7907   7907
 $$$RCHKDSTK
               1 00000000 FFFFFFDB     J    6588  6613   6613
 $$$RCHKPNT
               1 00000000 FFFFFFDA     J    6619  7104   7104
 $$$RDSCBDSCT
               1 00000000 FFFFFFED     J    1505  1732   1732
 $$$RDSKBLK
               1 00000000 FFFFFFD9     J    7130  7205   7205
 $$$RFBHDR
               1 00000000 FFFFFFD7     J    7315  7351   7351
 $$$RFSB       1 00000000 FFFFFFDC     J    6284  6556   6556
 $$$RFSMB      1 00000000 FFFFFFDD     J    6201  6277   6277
 $$$RIOB       1 00000000 FFFFFFD3     J    7670  7816   7816
 $$$RJFCB      1 00000000 FFFFFFEC     J    1738  2904   2904
 $$$RNODE      1 00000000 FFFFFFD8     J    7212  7278   7278
 $$$RNTRY      1 00000000 FFFFFFD6     J    7358  7570   7570
 $$$RNTRYPR
               1 00000000 FFFFFFD4     J    7598  7664   7664
 $$$RNTRYXTND
               1 00000000 FFFFFFD5     J    7576  7592   7592
 $$$ROPENOWK
               1 00000000 FFFFFFD1     J   10996 11013  11013
 $$$100B       1 00000CB8 00000001     X   10611 10618U
 $$$101        1 00000050 00000001 A   U   10737 10734  10736
 $$$103B       1 00000D3E 00000001     X   10781 10788U
 $$$104F       2 00000D9A 00000001     H   10936 10829B
 $$$106F       2 00000D6E 00000001     H   10861 10846B
 $$$108B       4 00000D7A 00000001     I   10876 10891
 $$$108F       2 00000D80 00000001     H   10888 10876B 10890
 $$$109E       2 00000D84 00000001     H   10898 10892
 $$$109F       2 00000D9A 00000001     H   10932 10894B
 $$$110F       2 00000D9A 00000001     H   10928 10915B
 $$$111        1 00000050 00000001 A   U   10959 10956  10958
1VFMT     (VFMT08) (09:47) (22MAR04) Ordinary Symbol and Literal Cross Reference                                            Page   88
 $$$113B       1 00000DB8 00000001     X   11041 11048U
 $$$114B       4 00000DD2 00000001     I   11104 11304
 $$$114F       2 00000E70 00000001     H   11301 11104B 11303
 $$$116F       2 00000E02 00000001     H   11142 11128B
 $$$117F       2 00000E6A 00000001     H   11291 11203B
 $$$122E       2 00000E74 00000001     H   11311 11305
 $$$122F       2 00000E78 00000001     H   11318 11307B
 $$$123        1 00000064 00000001 A   U   11346 11343  11345
 $$$125B       1 00000E96 00000001     X   11390 11397U
 $$$126F       2 00000F0C 00000001     H   11545 11534B
 $$$126S       2 00000E9A 00000001     H   11412 11544B
 $$$127F       2 00000EFC 00000001     H   11521 11427B
 $$$128F       2 00000EC4 00000001     H   11458 11446B
 $$$129F       2 00000ED2 00000001     H   11481 11469B
 $$$130F       2 00000EFC 00000001     H   11517 11492B
 $$$132        1 00000050 00000001 A   U   11567 11564  11566
 $$$133F       2 0000108E 00000001     H   11916 11826B
 $$$134B       1 00000F2C 00000001     X   11598 11605U
 $$$135B       4 00000F30 00000001     I   11624 11716
 $$$135F       2 00000F64 00000001     H   11713 11624B 11715
 $$$136S       2 00000F34 00000001     H   11633 11704B
 $$$137F       2 00000F4E 00000001     H   11662 11652B
 $$$138F       2 00000F5C 00000001     H   11686 11670B
 $$$141E       2 00000F68 00000001     H   11723 11717
 $$$141F       2 00000F74 00000001     H   11735 11719B
 $$$142F       2 00000FD6 00000001     H   11823 11746B
 $$$143F       2 00000FA2 00000001     H   11780 11769B
 $$$144F       2 00000FB0 00000001     H   11805 11792B
 $$$145        1 00000050 00000001 A   U   11925 11922  11924
 $$$147B       1 0000134A 00000001     X   12188 12195U
 $$$148F       2 0000139E 00000001     H   12289 12253B 12274B
 $$$151B       4 000013A4 00000001     I   12300 12330
 $$$151F       2 000013AE 00000001     H   12327 12300B 12329
 $$$152E       2 000013B2 00000001     H   12337 12331
 $$$152F       2 000014F6 00000001     H   12785 12333B
 $$$153B       4 000013B6 00000001     I   12350 12383
 $$$153F       2 000013E2 00000001     H   12379 12350B 12382
 $$$154E       2 000013E6 00000001     H   12390 12384
 $$$154F       2 000014F6 00000001     H   12781 12386B 12401B
 $$$156B       4 000013F6 00000001     I   12419 12468
 $$$156F       2 00001408 00000001     H   12465 12419B 12467
 $$$157E       2 0000140C 00000001     H   12475 12469
 $$$157F       2 000014F6 00000001     H   12777 12471B
 $$$158B       4 00001412 00000001     I   12487 12550
 $$$158F       2 0000143A 00000001     H   12546 12487B 12549
 $$$159E       2 0000143E 00000001     H   12557 12551
 $$$159F       2 000014F6 00000001     H   12773 12553B 12568B
 $$$161F       2 00001476 00000001     H   12631 12621B
 $$$162B       4 0000147E 00000001     I   12645 12695
 $$$162F       2 000014B6 00000001     H   12691 12645B 12694
 $$$163E       2 000014BA 00000001     H   12702 12696
 $$$163F       2 000014F6 00000001     H   12759 12698B 12713B
 $$$165        1 00000050 00000001 A   U   12803 12800  12802
 $$$167B       1 00001514 00000001     X   12841 12848U
 $$$168F       2 0000165A 00000001     H   13006 12996B
 $$$169F       2 000016B2 00000001     H   13073 13054B
 $$$170F       2 000016C6 00000001     H   13106 13087B
 $$$171F       2 000016E6 00000001     H   13151 13132B
 $$$172F       2 00001706 00000001     H   13185 13166B
1VFMT     (VFMT08) (09:47) (22MAR04) Ordinary Symbol and Literal Cross Reference                                            Page   89
 $$$173B       4 0000170A 00000001     I   13204 13220
 $$$173F       2 00001710 00000001     H   13217 13204B 13219
 $$$174E       2 00001714 00000001     H   13227 13221
 $$$174F       2 00001718 00000001     H   13234 13223B
 $$$175        1 00000050 00000001 A   U   13252 13249  13251
 $$$176F       2 000018DE 00000001     H   14084 13534B
 $$$177B       1 00001736 00000001     X   13334 13341U
 $$$178F       2 00001760 00000001     H   13419 13361B
 $$$180F       2 00001772 00000001     H   13452 13432B
 $$$183F       2 0000178A 00000001     H   13508 13488B
 $$$19F        2 00000072 00000001     H    8327  8298B
 $$$197        1 00000050 00000001 A   U   14093 14090  14092
 $$$20F        2 00000072 00000001     H    8323  8313B
 $$$21F        2 000000C4 00000001     H    8419  8339B
 $$$22F        2 00000092 00000001     H    8368  8354B
 $$$23F        2 000000B2 00000001     H    8412  8379B
 $$$24F        2 000000B2 00000001     H    8408  8394B
 $$$25F        2 0000026C 00000001     H    8933  8920B
 $$$25S        2 000000C4 00000001     H    8430  8932B
 $$$26F        2 000000E0 00000001     H    8458  8448B
 $$$27F        2 000000F2 00000001     H    8482  8472B
 $$$28F        2 0000012C 00000001     H    8554  8520B  8534B
 $$$30S        2 00000132 00000001     H    8586  8601B
 $$$32F        2 000001EE 00000001     H    8777  8686B
 $$$32S        2 00000192 00000001     H    8664  8776B
 $$$34F        2 000001CE 00000001     H    8752  8703B
 $$$36F        2 0000022A 00000001     H    8872  8862B
 $$$36S        2 000001F6 00000001     H    8790  8871B
 $$$37F        2 0000021A 00000001     H    8851  8802B
 $$$41F        2 00000290 00000001     H    8994  8952B
 $$$42F        2 000002C0 00000001     H    9036  9013B
 $$$48B        1 000008BE 00000001     X    9241  9248U
 $$$49F        2 00000A16 00000001     H    9606  9595B
 $$$49S        2 000008C6 00000001     H    9264  9605B
 $$$51F        2 000008F2 00000001     H    9325  9315B
 $$$51T        2 000008EA 00000001     H    9318  9305B
 $$$53F        2 0000091E 00000001     H    9380  9342B
 $$$54F        2 0000090A 00000001     H    9368  9356B
 $$$55F        2 000009E4 00000001     H    9571  9561B
 $$$55S        2 0000097E 00000001     H    9454  9570B
 $$$56B        4 000009A6 00000001     I    9486  9499
 $$$56F        2 000009B6 00000001     H    9496  9486B  9498
 $$$57E        2 000009BA 00000001     H    9506  9500
 $$$57F        2 000009BE 00000001     H    9512  9502B
 $$$58F        2 000009D8 00000001     H    9551  9542B
 $$$58T        2 000009D6 00000001     H    9545  9532B
 $$$62         1 00000050 00000001 A   U    9627  9624   9626
 $$$63F        2 00000B10 00000001     H    9988  9766B  9877B  9971B
 $$$64B        1 00000A3C 00000001     X    9678  9685U
 $$$65F        2 00000A68 00000001     H    9770  9755B
 $$$66F        2 00000A7E 00000001     H    9796  9782B
 $$$68B        4 00000A86 00000001     I    9812  9825
 $$$68F        2 00000A8E 00000001     H    9822  9812B  9824
 $$$69E        2 00000A92 00000001     H    9832  9826
 $$$69F        2 00000A96 00000001     H    9839  9828B
 $$$70F        2 00000ABE 00000001     H    9881  9866B
 $$$71B        4 00000AD2 00000001     I    9895  9907
 $$$71F        2 00000ADC 00000001     H    9904  9895B  9906
 $$$72E        2 00000AE0 00000001     H    9914  9908
1VFMT     (VFMT08) (09:47) (22MAR04) Ordinary Symbol and Literal Cross Reference                                            Page   90
 $$$72F        2 00000AE8 00000001     H    9927  9910B
 $$$75F        2 00000B0E 00000001     H    9975  9960B
 $$$76         1 00000050 00000001 A   U    9997  9994   9996
 $$$78B        1 00000B2E 00000001     X   10054 10061U
 $$$79         1 00000050 00000001 A   U   10094 10091  10093
 $$$81B        1 00000B62 00000001     X   10178 10185U
 $$$82F        2 00000BB0 00000001     H   10295 10226B
 $$$84F        2 00000B92 00000001     H   10258 10243B
 $$$86F        2 00000BB0 00000001     H   10291 10272B
 $$$87         1 00000050 00000001 A   U   10318 10315  10317
 $$$88F        2 00000C9A 00000001     H   10567 10503B
 $$$89B        1 00000BCE 00000001     X   10349 10356U
 $$$90S        2 00000BCE 00000001     H   10369 10495B
 $$$91F        2 00000BEA 00000001     H   10394 10383B
 $$$92B        4 00000BF0 00000001     I   10402 10434
 $$$92F        2 00000BFE 00000001     H   10431 10402B 10433
 $$$93F        2 00000BFC 00000001     H   10423 10413B
 $$$94E        2 00000C02 00000001     H   10441 10435
 $$$94F        2 00000C20 00000001     H   10478 10437B
 $$$95F        2 00000C20 00000001     H   10474 10464B
 $$$98         1 00000050 00000001 A   U   10576 10573  10575
 @R0           0 00000000 FFFFFFFE     @     734  1010U
 @R1           0 00000000 FFFFFFFD     @     747  1006U  8264   8979U  9184U 10664U 10745U 11288U 11810  12375M 12982
                                                 13351  13366  13581  13994
 @R10          0 00000000 FFFFFFF4     @     864   970U  9616U  9986U 10083U 10307U 10565U 10726U 10948U 11335U 11556U
                                                 11914U 12792U 13241U 14082U
 @R11          0 00000000 FFFFFFF3     @     877   966U
 @R12          0 00000000 FFFFFFF2     @     890   962U
 @R13          0 00000000 FFFFFFF1     @     903   958U  8242M  9056   9057
 @R14          0 00000000 FFFFFFF0     @     916   954U  9164B 12537M 12602M 12603M 12604  12985
 @R15          0 00000000 FFFFFFEF     @     929   950U 12371U 12520U 12543U 12765U
 @R2           0 00000000 FFFFFFFC     @     760  1002U  8562U  8612U  9473M  9491M  9492M  9508M  9514  10006U 10302U
                                                 10395  10751U 10943U 11325U 11658  11663  11774  11776
 @R3           0 00000000 FFFFFFFB     @     773   998U  8507U  9369  10012U 10678U 11235U 11283U
 @R4           0 00000000 FFFFFFFA     @     786   994U 10018U 10388  10390  10395  11433M 11434  12286U 12324U 12453U
                                                 12536  12664U 12685U 12732U 12753U 12770U 12897U 13192U
 @R5           0 00000000 FFFFFFF9     @     799   990U  9733U 10024U
 @R6           0 00000000 FFFFFFF8     @     812   986U 12811U
 @R7           0 00000000 FFFFFFF7     @     825   982U
 @R8           0 00000000 FFFFFFF6     @     838   978U 11330U
 @R9           0 00000000 FFFFFFF5     @     851   974U
 ACCIX         2 00001830 00000001     H   13752 14150
 AMODE24       2 00000300 00000001     H    9072 11293B
 AMODE31       2 000002FA 00000001     H    9067 11172B
 BALAFUL       4 00001C44 00000001     F   11993 13068
 BALAIX        4 00001BD8 00000001     F   11977 13146
 BALFFUL       4 00001C80 00000001     F   12001 13101
 BALFIX        4 00001C10 00000001     F   11985 13180
 BDM           4 00001288 00000001     F    9643  9789
 BITBLKS       4 000005B4 00000001     A    7942 12271  12356  12400  12406  12917  12931  13714M
 BL            2 00000002 FFFFFFDC A   N    6307  6309   6309   6594   6629   6630   6632   6633   6634   6733   6743
                                                  6753   6763   6774   6784   6794   6804   6814   6824   6834   6874
                                                  6875   6876   6893   6895   6897   6903   6905   6907   6913   6915
                                                  6916   6918   6920   6926   6928   6929   6931   6933   6935   6940
                                                  6942   6943   6945   6947   6949   6956   6959   6960   6961   6963
                                                  6964   6967   6969   6970   6978   6981   6982   6983   6985   6986
                                                  6989   6991   6992   6995   6997   7004   7007   7008   7009   7011
                                                  7012   7015   7017   7018   7021   7023   7024   7026   7040   7057
                                                  7060   7372   7374   7383  12049  12888
1VFMT     (VFMT08) (09:47) (22MAR04) Ordinary Symbol and Literal Cross Reference                                            Page   91
 BLKSIZE       2 0000180C 00000001     H   13675 14106
 BLOCKSIZ      2 000005BC 00000001     R    7945  9320   9474   9492   9801   9884  10271  10875  10914  12209  12238
                                                 12934  13446  13690M 13945M
 BRR          12 0000000C FFFFFFFF A   #    1100  8243M  8251U
 BTBSZ         2 00001818 00000001     H   13699 14119
 BUFADD        4 00000030 FFFFFFD3     F    7795  9390   9400
 BUFLEN        4 0000002C FFFFFFD3     F    7794  9331   9376M  9391
 BUILDIOB      2 000008AE 00000001     H    9223  9090
 CALCSEEK      2 00000CA8 00000001     H   10593  9091
 CALCTRK       1 00000000 00000002     T   11939 11939
 CCAT1MIN      1 0000003C FFFFFFDC A   U    6293 14198
 CCAT1PCT      1 00000005 FFFFFFDC A   U    6292 14197
 CCAT2MIN      1 0000000A FFFFFFDC A   U    6295 14200
 CCAT2PCT      1 00000001 FFFFFFDC A   U    6294 14199
 CCHKSTK       1 00000007 FFFFFFDA A   U    6625  7097
 CCW           8 00000000 FFFFFFD2     J    7907  9410U  9418M  9418  11366U
 CCWADDR       4 00000000 FFFFFFD2     F    7833  9422M  9434M  9445M  9464M 11432
 CCWADDR3      3 00000001 FFFFFFD2     R    7835 11505
 CCWCHAIN      8 00000040 FFFFFFD3     D    7808  9402   9580  11407
 CCWCSID       1 00000031 FFFFFFD2 A   U    7891  9435
 CCWCSS        1 00000023 FFFFFFD2 A   U    7892  9423
 CCWCTIC       1 00000008 FFFFFFD2 A   U    7898  9446
 CCWCWRF       1 0000001D FFFFFFD2 A   U    7894  9465  11426
 CCWFCCH      64 00000004 FFFFFFD2         7847  9429M  9441M  9461M 11531
 CCWFLAGS      1 00000004 FFFFFFD2     R    7838  7842   7847   7852   7857   7862   7867   7872   7877
 CCWFSLI      32 00000004 FFFFFFD2         7852  9471M
 CCWLEN        2 00000006 FFFFFFD2     H    7881  9430M  9442M  9447M  9472M 11435M 11499M 11811M 11902M 12213M
 CCWNEXT       1 00000008 FFFFFFD2     U    7883 11540
 CCWOPCDE      1 00000000 FFFFFFD2     X    7834  9423M  9435M  9446M  9465M 11426
 CDSKHSIZ      1 00000010 FFFFFFD9 A   U    7195  7197  12052  14188
 CFSBDBLK      1 00000003 FFFFFFDC A   U    6303 12049  14169  14172  14173  14186  14187  14189
 CFSBMXNT      1 00000129 FFFFFFDC A   U    6305  7090   7366   7366
 CFSBNDOT      1 00000026 FFFFFFDC A   U    6301  6862   6865   7044   7078   7081
 CFSBNMSZ      1 00000021 FFFFFFDC A   U    6302  7368
 CHKDEV        2 00000A2C 00000001     H    9660  9087
 CHKDWRT       2 00000008 FFFFFFDA     R    6629 12890M
 CHKFBNO       2 0000000E FFFFFFDA     R    6632  6636   6636  12885M
 CHKFLG        1 0000001C FFFFFFDA     R    6644  6648   6653   6658   6663   6668   6673   6678   6683
 CHKFLG2       1 0000001D FFFFFFDA     R    6688  6692   6697   6702   6707   6712   6717   6722
 CHKFNAME     38 000000C5 FFFFFFDA     C    6862  6863   6863
 CHKFNMSZ      1 000000C4 FFFFFFDA     X    6861  6863   6863
 CHKFREB       2 00000010 FFFFFFDA     R    6633  6635   6635  12889M
 CHKFRNAM     38 000000EC FFFFFFDA     C    6865  6866   6866
 CHKFRNMS      1 000000EB FFFFFFDA     X    6864  6866   6866
 CHKIERFL      1 000001A2 FFFFFFDA     R    7065  7069   7074
 CHKIERNN     38 000001CB FFFFFFDA     C    7081  7082   7082
 CHKIERNS      1 000001CA FFFFFFDA     X    7080  7082   7082
 CHKIERON     38 000001A4 FFFFFFDA     C    7078  7079   7079
 CHKIEROS      1 000001A3 FFFFFFDA     X    7077  7079   7079
 CHKIFBNO      2 00000114 FFFFFFDA     R    6874  6877   6877
 CHKINC        2 00000BBE 00000001     H   10331 11947
 CHKISTRT      2 00000112 FFFFFFDA     H    6871  7031   7031   7047   7047   7085   7085  11971
 CHKIVAR       1 0000011A FFFFFFDA     X    6878  6881   6886   6891   6901   6911   6924   6938   6954   6976   7002
                                                  7030   7030
 CHKI2VAR      1 00000156 FFFFFFDA     X    7036  7046   7046
 CHKI3VAR      1 00000196 FFFFFFDA     X    7052  7084   7084
 CHKNXDB       2 00000012 FFFFFFDA     R    6634 12888M
 CHKPNT     1600 00000000 FFFFFFDA     J    7104 12532U 12877U
 CHKPT         1 00000020 FFFFFFDA     X    6727  6768   6768   6839   6839
1VFMT     (VFMT08) (09:47) (22MAR04) Ordinary Symbol and Literal Cross Reference                                            Page   92
 CHKROOTB      2 0000000A FFFFFFDA     R    6630 12886M
 CHKROOTN      2 0000000C FFFFFFDA     R    6631 12887M
 CHKSFLG       1 0000001C FFFFFFDA     X    6641  6725   6725
 CHKSTART      1 00000000 FFFFFFDA     X    6627 11971  12537
 CHKSTFLG      1 00000006 FFFFFFDB     R    6599  6603
 CHKTIME       8 00000000 FFFFFFDA     D    6628 12882M
 CHK0327       1 00000020 FFFFFFDA     X    6730  6736   6736
 CHK0328       1 00000028 FFFFFFDA     X    6740  6746   6746
 CHK0329       1 00000030 FFFFFFDA     X    6750  6756   6756
 CHK0330       1 00000038 FFFFFFDA     X    6760  6766   6766
 CHK0331       1 00000040 FFFFFFDA     X    6771  6777   6777
 CHK0332       1 00000048 FFFFFFDA     X    6781  6787   6787
 CHK0333       1 00000050 FFFFFFDA     X    6791  6797   6797
 CHK0334       1 00000058 FFFFFFDA     X    6801  6807   6807
 CHK0335       1 00000060 FFFFFFDA     X    6811  6817   6817
 CHK0336       1 00000068 FFFFFFDA     X    6821  6827   6827
 CHK0337       1 00000070 FFFFFFDA     X    6831  6837   6837
 CLOSE         2 0000022A 00000001     H    8875  9130B
 CNODA99      72 00000048 FFFFFFDC A   N    6297 11967
 CNODF99      65 00000041 FFFFFFDC A   N    6298 11968
 CNODNLLN      2 00000006 FFFFFFD8 A   N    7220 12054  12151  14184  14185  14192
 CNTAMXL       1 00000108 FFFFFFD6 A   U    7364  7366  14195
 CNTAMXSZ      1 00000005 FFFFFFD6 A   U    7367  7380  12040
 CNTFMXL       1 00000129 FFFFFFD6 A   U    7365  7366  14196
 CNTFMXSZ      1 00000021 FFFFFFD6 A   U    7368 14180
 CNTG          2 0000185C 00000001     H   13840 14129  14131
 CNTXFXLN      1 00000002 FFFFFFD5 A   U    7584 12982  12985
 CTBITRCT      8 00000150 FFFFFFDC     D    6503  6513
 CTCACHCT      8 000001A0 FFFFFFDC     D    6532  6542
 CTCATRCT      8 00000148 FFFFFFDC     D    6502  6512
 CTIXRRCT      8 00000158 FFFFFFDC     D    6504  6514
 CTMASRCT      8 00000140 FFFFFFDC     D    6501  6511
 CTOTHRCT      8 00000168 FFFFFFDC     D    6506  6516
 CTREADCT      8 00000140 FFFFFFDC     D    6500  6511   6512   6513   6514   6515   6516   6540   6545   6545   6546
                                                  6546
 CTUSERCT      8 00000160 FFFFFFDC     D    6505  6515
 CTWRITCT      8 00000170 FFFFFFDC     D    6520  6541
 CURNTRK       4 000005A0 00000001     F    7936  8639M  8670   8671M
 CURVOL        2 000005C0 00000001     H    7947  8904   8905M
 CYL           2 00001874 00000001     H   13902 14125
 DCB           4 000005E4 00000001     F    8063  8432   8433M  8486   8616M  8653M  8766M  8876M  8881   8928M  9582
                                                  9695   9855  10637  11086  11091  13994M 13995M 13996
 DCBBFTA       1 00000060 FFFFFFE5 A   U    4126  9174
 DCBBFTEK      1 00000020 FFFFFFE5     B    4114  9176M
 DCBBIT0       1 00000080 FFFFFFE5 A   U    3984  4072   4080   4094   4116   4158   4160   4161   4163   4183   4186
                                                  4208   4212   4227   4264   4320   4340   4378   4382   4401   4484
 DCBBIT1       1 00000040 FFFFFFE5 A   U    3985  4073   4081   4096   4125   4126   4135   4141   4158   4160   4162
                                                  4163   4188   4208   4210   4212   4230   4231   4232   4267   4268
                                                  4320   4342   4384   4386   4404   4449   4485
 DCBBIT2       1 00000020 FFFFFFE5 A   U    3986  4074   4082   4097   4098   4099   4125   4126   4130   4136   4141
                                                  4158   4159   4164   4190   4213   4214   4235   4236   4237   4271
                                                  4272   4321   4347   4387   4409   4452   4455   4486
 DCBBIT3       1 00000010 FFFFFFE5 A   U    3987  4075   4097   4099   4100   4125   4138   4165   4193   4213   4216
                                                  4239   4240   4241   4275   4276   4321   4349   4351   4353   4389
                                                  4410   4452   4456
 DCBBIT4       1 00000008 FFFFFFE5 A   U    3988  4083   4139   4140   4141   4166   4194   4218   4223   4224   4244
                                                  4245   4279   4280   4282   4283   4322   4356   4391   4411   4452
                                                  4457
 DCBBIT5       1 00000004 FFFFFFE5 A   U    3989  4084   4146   4169   4170   4196   4218   4220   4221   4224   4248
1VFMT     (VFMT08) (09:47) (22MAR04) Ordinary Symbol and Literal Cross Reference                                            Page   93
                                                  4250   4251   4252   4286   4287   4288   4289   4322   4358   4361
                                                  4394   4413   4447
 DCBBIT6       1 00000002 FFFFFFE5 A   U    3990  4076   4148   4149   4152   4169   4171   4197   4255   4256   4257
                                                  4258   4292   4293   4294   4295   4323   4364   4396   4415   4458
 DCBBIT7       1 00000001 FFFFFFE5 A   U    3991  4077   4148   4150   4152   4173   4202   4260   4261   4298   4299
                                                  4301   4302   4367   4397   4398   4416   4460   4487
 DCBDCBE       4 00000000 FFFFFFE5     A    3999  4003
 DCBDDNAM      8 00000028 FFFFFFE5     C    4180  8432   8928M  9741  13994M 13995M 13996
 DCBDEBAD      4 0000002C FFFFFFE5     A    4318  8486  10637  11112
 DCBEODA       3 00000021 FFFFFFE5     R    4154  8972M
 DCBEXIT       2 000008A0 00000001     H    9138  8049
 DCBFDAD       8 00000005 FFFFFFE5     C    4015  4017   8616M  8653M  8766M
 DCBLRECL      2 00000052 FFFFFFE5     H    4481 10231  10372  10834  11758
 DCBOFIOF      1 00000001 FFFFFFE5 A   U    4202  4204
 DCBOFLGS      1 00000030 FFFFFFE5     B    4182  8876M 10225  10828  11103
 DCBOFLWR      1 00000080 FFFFFFE5 A   U    4183  8876
 DCBOFOPN      1 00000010 FFFFFFE5 A   U    4193 10223  10826  11101
 DCBOFUEX      1 00000002 FFFFFFE5 A   U    4197  4201
 DCBRECF       1 00000080 FFFFFFE5 A   U    4161  8433
 DCBRECFM      1 00000024 FFFFFFE5     B    4157  8433M  9161  10242  10845
 DCBRECSB      1 00000008 FFFFFFE5 A   U    4166  9159
 DCBRECV       1 00000040 FFFFFFE5 A   U    4162  9156  10240  10843
 DCE           1 00000000 FFFFFFDE     J    5991 11186U
 DCECACHE      1 00000010 FFFFFFDE A   U    6036 11198
 DCEFEAT1      1 00000010 FFFFFFDE     B    6024 11200
 DDNAME        2 000018A2 00000001     H   13973 14109
 DEBACSMD      1 00000000 FFFFFFE9     J    3505  3543   3560   3573   3597   3616   3630   3640   3680
 DEBBASIC      1 00000024 FFFFFFEB     U    3157  8496U 10645U 11113
 DEBBASND      1 00000044 FFFFFFEB     U    3311  3436   8555  10656  11113
 DEBBCACH      1 00000004 FFFFFFE7 A   U    3831 11268
 DEBBINUM      2 00000004 FFFFFFEA     C    3479 10694
 DEBDASD       1 00000000 FFFFFFEA     J    3473  8573U 10667U 11114
 DEBDASDE      1 00000010 FFFFFFEA     U    3499  8595  10682
 DEBDEFG1      1 00000028 FFFFFFE7     X    3801 11263M
 DEBDEVED      4 00000048 FFFFFFEB     A    3358  3390
 DEBEOEA       4 00000000 FFFFFFEB     A    3064  3067
 DEBGATTR      1 00000029 FFFFFFE7     X    3805 11270M
 DEBMCOMP      1 00000008 FFFFFFEB A   U    3343  3344
 DEBMTRF0      1 00000080 FFFFFFEB A   U    3339  3349   3352   3353
 DEBMTRF1      1 00000040 FFFFFFEB A   U    3340  3349   3350   3352   3354
 DEBM3424      1 00000002 FFFFFFEB A   U    3345  3349   3350
 DEBM9348      1 00000002 FFFFFFEB A   U    3346  3352   3353   3354
 DEBNMEXT      1 00000034 FFFFFFEB     B    3280  8506  10655
 DEBNMTRK      2 0000000E FFFFFFEA     C    3494  8593  10677
 DEBPREFE      1 00000024 FFFFFFEB     U    3151 11942
 DEBPREFX      4 00000014 FFFFFFEB     A    3127 11222U 11942
 DEBUCBAD      4 00000000 FFFFFFEA     A    3474 11114
 DEBXEND       1 00000054 FFFFFFE7     U    3910  3911
 DEBXTN        1 00000000 FFFFFFE7     J    3720  3911  11246U
 DEBXTNP       4 0000001C FFFFFFEB     A    3131 11228
 DEBXVDEF      1 00000040 FFFFFFE7 A   U    3803 11261
 DEB2XEND      1 000000B8 FFFFFFE6     U    3966  3967
 DEB2XTN       1 00000000 FFFFFFE6     J    3918  3967
 DEC           8 00000358 00000001     D    7925  8627M  8629   8926M  8927M  8927   8928  11895M 11897  12239M 12240
                                                 12857M 12858  12882
 DEM           4 000007BC 00000001     F    8199  8205   8998  11872
 DEMTP        10 000007CF 00000001     U    8205  8413M 11876M
 DONEMSG       4 00000290 00000001     I    8998  9099
 DSCB          4 00001260 00000001     F    9204  9949
1VFMT     (VFMT08) (09:47) (22MAR04) Ordinary Symbol and Literal Cross Reference                                            Page   94
 DSCBAREA      8 00001198 00000001     D    9199  9211   9697
 DSCBDSCT    140 00000000 FFFFFFED     J    1732  9736U
 DSKBLINK      2 0000000C FFFFFFD9     H    7162 12632M 12652M 12720M
 DSKBLK       16 00000000 FFFFFFD9     J    7205 12582U 12601  12688U 12756U
 DSKDATA       1 00000010 FFFFFFD9     X    7198 12654  12722
 DSKFBAC       2 00000008 FFFFFFD9     H    7158 12651M 12719M
 DSKFFWD       2 00000006 FFFFFFD9     H    7157 12650M 12718M
 DSKFINIT    128 0000000E FFFFFFD9         7169 14204
 DSKFL         1 0000000E FFFFFFD9     R    7165  7169   7174   7179   7184   7189  12653M 12721M
 DSKSTART      1 00000000 FFFFFFD9     U    7148  7193   7197
 DSKTAG        2 00000000 FFFFFFD9     Y    7149 12604M
 DSNAME       44 00001232 00000001     C    9201  9209   9882M
 DS1IND01      1 00000001 FFFFFFED A   U    1674  1675
 DS1IND02      1 00000002 FFFFFFED A   U    1670  1673
 DS1IND04      1 00000004 FFFFFFED A   U    1663  1669
 DS1IND10      1 00000010 FFFFFFED A   U    1658  1661
 DS1IND40      1 00000040 FFFFFFED A   U    1654  1655
 DTHDR         2 000005C4 00000001     H    7953 10259  10863  10901M 11808  11813  13952M 13952
 DVACLASS      1 00000002 FFFFFFEE     X    1383  9781
 DVAOVHD       2 0000000E FFFFFFEE     H    1396  1460
 DVAOVNK       1 00000010 FFFFFFEE     G    1402  1458
 DVAREA        1 00000000 FFFFFFEE     J    1369  1386   1473   1492   1733   2905   9706U 10635U
 DVARPS        4 00000014 FFFFFFEE     C    1436  1440
 DVASECTD      1 00000017 FFFFFFEE     X    1439  1464
 DVATAB       12 00000008 FFFFFFEE     C    1391  1425
 DVATOL        2 00000012 FFFFFFEE     H    1415  1462
 DVATRK        2 0000000A FFFFFFEE     H    1393 10707
 DVTAREA       4 00001270 00000001     F    9641  9694  10627
 ECB           4 00000028 FFFFFFD3     F    7793  8720   8733   8748M  8748   8819   8832   8847M  8847   9279M  9279
                                                  9578
 EXBITS        9 000005C8 00000001     X    7956 12373
 EXECPTR       4 00000388 00000001     A    7929  8265M 13350
 EXLIST        4 000005DC 00000001     F    8045  8078
 FAC           1 00000008 00000001 A   U    7302  7653
 FAO           1 00000002 00000001 A   U    7300  7420   7503   7543   7644
 FBHBLOCK      3 00000000 FFFFFFD7     R    7324 12237M
 FBHDR        20 00000000 FFFFFFD7     J    7351  7343   7948  12232U 12434U 12446M 12446
 FBHLEN        2 00000006 FFFFFFD7     R    7340 12238M
 FBHTBICA      1 000000C0 FFFFFFD7 A   U    7336  7337
 FBHTBIT       1 00000040 FFFFFFD7 A   U    7329  7336  12259
 FBHTCAT       1 00000080 FFFFFFD7 A   U    7328  7336  12280
 FBHTFSMB      1 000000FF FFFFFFD7 A   U    7327 12241
 FBHTIME       4 00000008 FFFFFFD7     R    7341 12240M
 FBHTIXR       1 00000008 FFFFFFD7 A   U    7331  7335
 FBHTIXRT      1 0000001E FFFFFFD7 A   U    7335  7337
 FBHTMIXR      1 00000002 FFFFFFD7 A   U    7333  7335
 FBHTSIXR      1 00000004 FFFFFFD7 A   U    7332  7335
 FBHTYPE       1 00000003 FFFFFFD7     R    7325 12241M 12259M 12280M
 FBHTZIXR      1 00000010 FFFFFFD7 A   U    7330  7335
 FDAINX        2 00001A64 00000001     Y   11967 12945  12947  13787M
 FDBLKS        4 000005B0 00000001     A    7941 12357  12418  12620  12883  12925  13743M
 FDBSZ         2 00001824 00000001     H   13728 14122
 FDC           2 00001868 00000001     H   13871 14113
 FDFINX        2 00001A66 00000001     Y   11968 12950  12952  13831M
 FDIACCT      26 00001CC1 00000001     X   12026 12030  12033  12036  12039  12042  12045  12048  12051  12055
 FDIANODE      8 00001CB9 00000001     X   12009 12013  12016  12019  12022  12056  12671
 FDIBBLK       4 000005B8 00000001     A    7943 12477M 12603  12605
 FDICHK        1 00001A68 00000001     X   11970 12493  12522  12867
 FDICHKLN      2 00000112 00000001 A   U   11971 11970  12494
1VFMT     (VFMT08) (09:47) (22MAR04) Ordinary Symbol and Literal Cross Reference                                            Page   95
 FDIDAELN      1 00000020 00000001 A   U   12055 14184
 FDIDANLN      1 00000028 00000001 A   U   12056 12671
 FDIDFELN      1 00000053 00000001 A   U   12152 14185
 FDIDFNLN      1 0000005B 00000001 A   U   12153 12739
 FDIFILE1     38 00001CE9 00000001     X   12075 12079  12082  12085  12088  12091  12094  12097  12100  12103  12106
                                                 12109  12152
 FDIFILE2     39 00001D0F 00000001     X   12113 12117  12120  12123  12126  12129  12132  12135  12138  12141  12144
                                                 12147
 FDIFNODE      8 00001CE1 00000001     X   12058 12062  12065  12068  12071  12153  12739
 FDIFSM        1 00001B7A 00000001     X   11973 12318  12497  12586  12900
 FDIFSMLN      1 0000005C 00000001 A   U   11974 11973  12318
 FDIF1SZ       6 00001D09 00000001     C   12110 12075  12080  12107
 FDIF2SZ       7 00001D2F 00000001     C   12148 12113  12118  12145
 FDIGLEN       3 00001CD3 00000001     X   12046 12933M
 FDIGRP        5 00001CCB 00000001     C   12040 13581M
 FDPAGE        4 000005AC 00000001     A    7940 12204  12207M
 FILEIX        2 00001846 00000001     H   13796 14153
 FILLCHR       1 000005D5 00000001     X    8041 11512
 FILLREC      16 000005D3 00000001         8029  9314   9541  11491  13487  14068M
 FILTOT        4 0000059C 00000001     F    7935  8899M  8899  11755  11756M 11891
 FLHDR         2 000005C2 00000001     R    7948  9321   9475   9491   9818   9835   9900   9916  11498  11809  11815
                                                 12210  12290  12424  13966M 13966  14021M
 FMTBINIT    128 000005D4 00000001         8038 13040M 13065M 13098M 13143M 13177M 13203
 FMTFLG        1 000005D4 00000001     R    8034  8038
 FORMBLK       2 0000133A 00000001     H   12170 11944
 FORMDS        2 00001504 00000001     H   12823  9084
 FPA           1 00000002 00000001 A   N    7292  7298   7299   7300   7307   7310
 FPE           1 00000008 00000001 A   N    7294  7302   7303   7309  12104  12142
 FPN           1 00000000 00000001 A   N    7290  7304
 FPR           1 00000001 00000001 A   N    7291  7297   7298   7299   7306   7310  12104  12142
 FPS           1 00000010 00000001 A   N    7295  7301
 FPW           1 00000004 00000001 A   N    7293  7298   7308   7310
 FRO           1 00000001 00000001 A   U    7297  7393   7476   7525   7617
 FRP           1 00000003 00000001 A   U    7299  7411   7494   7552   7635
 FRW           1 00000007 00000001 A   U    7298  7303   7402   7485   7534   7626
 FSBAFLGS      1 00000009 FFFFFFDC     R    6324  6328   6333   6338   6343   6348   6353
 FSBBALST      1 000000AC FFFFFFDC     X    6436  6455
 FSBFCACT      8 000001A0 FFFFFFDC     D    6531  6544   6544
 FSBFIOCT      8 00000140 FFFFFFDC     D    6499  6527   6527   6540   6541   6542
 FSBOFLGS      1 0000000B FFFFFFDC     R    6379  6383   6388   6393
 FSBSFLGS      1 0000000A FFFFFFDC     R    6359  6363   6368   6373
 FSHR          1 00000010 00000001 A   U    7301  7512
 FSMB       2048 00000000 FFFFFFDD     J    6277 12314U 12318M 12507U 12596U 12910U
 FSMBALST      1 00000038 FFFFFFDD     X    6242  6261
 FSMBALX       1 0000005C FFFFFFDD     U    6262 11974
 FSMBITBC      4 00000030 FFFFFFDD     A    6235 12918M
 FSMBITSB      4 0000002C FFFFFFDD     A    6234 12916M
 FSMCATBC      4 00000028 FFFFFFDD     A    6233 12926M 13008  13021
 FSMCATSB      4 00000024 FFFFFFDD     A    6232 12924M
 FSMDAVA       2 0000003A FFFFFFDD     Y    6244 12939M 13053  13086
 FSMDSZ        2 00000038 FFFFFFDD     Y    6243 12935M
 FSMDTAGX      2 0000003C FFFFFFDD     Y    6245 12513  12600  12937M
 FSMLOGFR      2 00000058 FFFFFFDD     Y    6259 13020M
 FSMMBLK       4 00000008 FFFFFFDD     A    6227  6236   6236
 FSMMNFRE      2 0000005A FFFFFFDD     Y    6260 13033M
 FSMNALEN      2 0000003E FFFFFFDD     Y    6246 12672  12940M 13053
 FSMNAMXL      2 00000044 FFFFFFDD     Y    6249 12946M 12961  12984  13120
 FSMNANSP      2 00000048 FFFFFFDD     Y    6251 12949M 12956
 FSMNASPA      2 00000040 FFFFFFDD     Y    6247 12673  12943M 12955  12963
1VFMT     (VFMT08) (09:47) (22MAR04) Ordinary Symbol and Literal Cross Reference                                            Page   96
 FSMNAXSP      2 00000046 FFFFFFDD     Y    6250 12964M 13118
 FSMNFLEN      2 0000004A FFFFFFDD     Y    6252 12740  12941M 13086
 FSMNFMXL      2 00000050 FFFFFFDD     Y    6255 12951M 12971  12981  13154
 FSMNFNSP      2 00000054 FFFFFFDD     Y    6257 12954M 12966
 FSMNFSPA      2 0000004C FFFFFFDD     Y    6253 12741  12944M 12965  12973
 FSMNFXSP      2 00000052 FFFFFFDD     Y    6256 12974M 13152
 FSMOFLGS      1 00000006 FFFFFFDD     R    6215  6219
 FSMSTART      8 00000000 FFFFFFDD     D    6210  6269  11974
 FSMTAXLN      2 00000042 FFFFFFDD     Y    6248 12976M 12983
 FSMTFXLN      2 0000004E FFFFFFDD     Y    6254 12978M 12980
 FSMTXXLN      2 00000056 FFFFFFDD     Y    6258 13007M
 FSR           2 00000002 FFFFFFFF A   #    1023  9232   9624M  9669   9994M 10045  10091M 10169  10315M 10340  10573M
                                                 10602  10734M 10772  10956M 11031  11343M 11381  11564M 11589  11922M
                                                 12179  12800M 12832  13249M 13325  14090M
 F1BCNT        3 00001CF6 00000001     X   12092 12922M
 F1CDATE       4 00001CFC 00000001     X   12095 12860M
 F1FRST        3 00001CF3 00000001     X   12089 12920M
 F1RDATE       4 00001D00 00000001     X   12098 12862M
 F2BCNT        3 00001D1C 00000001     X   12130 12930M
 F2CDATE       4 00001D22 00000001     X   12133 12864M
 F2FRST        3 00001D19 00000001     X   12127 12928M
 F2RDATE       4 00001D26 00000001     X   12136 12866M
 GETBLOCK      2 00000F1C 00000001     H   11580 11943
 GETDATA       2 00000E86 00000001     H   11372  9092
 HIBAL         1 00000000 FFFFFFFF     J     719   735    748    761    774    787    800    813    826    839    852
                                                   865    878    891    904    917    930   1031   1044   1057   1070
                                                  1082   1095   1108   1121
 IECSDSL1      1 00000000 FFFFFFED     U    1512  1513
 IHADCB        1 00000000 FFFFFFE5     J    3974  4054   4104   4179   4306   4311   4326   4335   4435   4438   4443
                                                  4468   4503   4504   5080   5306   5466   5690   5804   5834   8432
                                                  8433M  8486   8616M  8653M  8766M  8876M  8928M  8967U  9146U  9715U
                                                 10204U 10372  10637  10807U 11082U 11758  13994M 13995M 13996
 IHB0547B      4 00000034 00000001     F    8275  8269B
 IHB0547F      1 00000030 00000001     B    8271  8277
 IHB0547L      4 0000002C 00000001     A    8270  8276
 IHB0973B      4 000002AC 00000001     F    9027  9022B
 IHB0973F      1 000002A8 00000001     B    9023  9028
 IHB0977B      4 000002D0 00000001     F    9047  9041B
 IHB0977F      1 000002CC 00000001     B    9043  9049
 IHB0977L      4 000002C8 00000001     A    9042  9048
 IHB1730       2 00000C8C 00000001     H   10546 10525B 10532B
 IHB2460       2 0000103C 00000001     H   11869 11848B 11855B
 IHB3314B      4 00001798 00000001     F   13521 13516B
 IHB3314F      1 00001794 00000001     B   13517 13522
 INCBUFR       4 0000058C 00000001     A    7931 10283M 10371  10449M
 INCDATA       4 000012B4 00000001     F   10113 10194  10212  10279  10372  10445  10519  10523
 INCEND        2 00000C2A 00000001     H   10511 10125
 INCFILL       4 00001D3C 00000001     F   13267 13505B
 INCVBF       64 000005D3 00000001         8019 10254M 10382
 IOB         576 00000000 FFFFFFD3     J    7816  8261U  9094   9584  14177
 IOBACT      128 00000035 FFFFFFD3         7803  8659M  8702   8714M  8772M  8801   8813M
 IOBBB         2 00000021 FFFFFFD3     C    7776 10694M
 IOBCC         2 00000023 FFFFFFD3     C    7779  9433  10714  10717  11433
 IOBCMDCH      1 00000040 FFFFFFD3 A   U    7687  9577
 IOBDCBPT      4 00000014 FFFFFFD3     A    7735  9583M
 IOBECBPT      4 00000004 FFFFFFD3     A    7727  9579M
 IOBFLAG1      1 00000000 FFFFFFD3     B    7685  9577M
 IOBHH         2 00000025 FFFFFFD3     C    7782 10701  10719
 IOBINCAM      2 0000001C FFFFFFD3     H    7741  7754
1VFMT     (VFMT08) (09:47) (22MAR04) Ordinary Symbol and Literal Cross Reference                                            Page   97
 IOBM          1 00000020 FFFFFFD3     C    7775 10695M
 IOBNEXT       4 00000038 FFFFFFD3     F    7807  8692   8852   9585M  9608M
 IOBRAL        1 00000035 FFFFFFD3     R    7799  7803
 IOBREG       11 0000000B FFFFFFFF A   #    1087  8261U  8634M  8651   8692M  8764   8784M  8852M  9117   9257M  9584
                                                  9601M
 IOBS          4 000005D8 00000001     A    8043  8634   8784   9005   9257   9607  13527M
 IOBSECT       1 00000034 FFFFFFD3     X    7796  9421
 IOBSEEK       8 00000020 FFFFFFD3     C    7774  8653   8766
 IOBSTART      4 00000010 FFFFFFD3     A    7732  9581M
 IOBSTDRD      8 00000000 FFFFFFD3     D    7683  7786   7786   7787   9272M  9272
 IOBSTSZE      1 00000028 FFFFFFD3 A   U    7787  9271
 IOBUNREL      1 00000002 FFFFFFD3 A   U    7693  9577
 IOEM          4 000007E8 00000001     F    8208  8214   9119M  9128
 IOERR         2 00000876 00000001     H    9110  8736B  8835B
 IOFLAG        1 000005D2 00000001     R    8000  8004   8889M
 IOSDCXR_NXTADDR_2061
               2 00000E1C 00000001     H   11160 11154
 IOSDCXR_RETADDR_2061
               2 00000E2E 00000001     H   11166 11151
 IOSDCXR_X31_2061
               4 00000E18 00000001     A   11159 11156
 ITAPE         4 00000784 00000001     F    8191  8402
 JFCB        176 00000000 FFFFFFEC     J    2904  9724U
 JFCBAREA      8 000010E8 00000001     D    9198  8046   9696
 JFCBDSNM     44 00000000 FFFFFFEC     C    2142  9882
 JFCBIND2      1 00000057 FFFFFFEC     B    2379  9936M
 JFCBLKSI      2 00000066 FFFFFFEC     H    2634  9928M
 JFCBTSDM      1 00000034 FFFFFFEC     B    2154  9943M
 JFCBVOLS     30 00000076 FFFFFFEC     C    2786  9883
 JFCKEYLE      1 0000005D FFFFFFEC     X    2476  9900M  9923M
 JFCLRECL      2 00000068 FFFFFFEC     H    2641  9929M
 JFCNDSCB      1 00000004 FFFFFFEC A   U    2167  9941
 JFCNEW        1 000000C0 FFFFFFEC A   U    2381  9934
 JFCRESRV      4 0000006C FFFFFFEC     B    2703  2740
 KEYHDR        2 000018CC 00000001     H   14031 14142
 LASTVOL       2 000005BE 00000001     H    7946  8917  13605M
 LSR          10 0000000A FFFFFFFF A   #    1062  9232   9624M  9669   9994M 10045  10091M 10169  10315M 10340  10573M
                                                 10602  10734M 10772  10956M 11031  11343M 11381  11564M 11589  11922M
                                                 12179  12800M 12832  13249M 13325  14090M
 MXM           4 0000071C 00000001     F    8175  8541
 M1AMSK        1 00FFFFFF 00000001 A   U    1283  1284
 NFM           4 000006B8 00000001     F    8156  8162   8547  10074
 NFMDD         4 000006DD 00000001     U    8163  8164   8544M 10071M
 NFMPF         2 000006E2 00000001     U    8164  8543M 10070M
 NFMTP         7 000006D5 00000001     U    8162  8163   8415M 11875M
 NIL           1 000000FF 00000001 A   U    1334 12034  12037  12054  12083  12086  12121  12124  12151  14171
 NOCANDO       2 000017C4 00000001     H   13551 13470B
 NOCNTG        2 00001862 00000001     H   13855 14133
 NOCYL         2 0000187A 00000001     H   13917 14127
 NODE          8 00000000 FFFFFFD8     J    7278 12009  12013  12016  12019  12022  12058  12062  12065  12068  12071
                                                 12667U 12735U 14192
 NODFACC     128 00000006 FFFFFFD8         7232 12023
 NODFL         1 00000006 FFFFFFD8     R    7228  7232   7237   7242   7247   7252   7257   7262   7267  12022  12071
 NODFLEAF     64 00000006 FFFFFFD8         7237 12023  12072
 NODFTRT      32 00000006 FFFFFFD8         7242 12023  12072
 NODLEN        2 00000000 FFFFFFD8     H    7223 12013  12062  12672M 12740M
 NODNTNUM      2 00000002 FFFFFFD8     H    7224 12016  12065
 NODNTRYS      1 00000008 FFFFFFD8     X    7271 12009  12058
 NODSPACE      2 00000004 FFFFFFD8     H    7225 12019  12068  12675M 12743M
1VFMT     (VFMT08) (09:47) (22MAR04) Ordinary Symbol and Literal Cross Reference                                            Page   98
 NODSTRT       1 00000000 FFFFFFD8     X    7222 12671M 12739M
 NOFDC         2 0000186E 00000001     H   13886 14115
 NOKEYHDR      2 000018D2 00000001     H   14046 14144
 NOUCB         4 00001314 00000001     F   10981 11136
 NTAPE         4 00000750 00000001     F    8183  8362
 NTFCLP      128 00000010 FFFFFFD6         7440 12101  12139
 NTFCNT        3 0000000D FFFFFFD6     X    7433 12091  12129
 NTFCODE       1 00000010 FFFFFFD6     R    7436  7440   7445   7450   7455   7460   7465  12100  12138
 NTFCRDT       4 00000013 FFFFFFD6     X    7557 12094  12132
 NTFFLGO       1 00000012 FFFFFFD6     R    7519  7527   7536   7545   7554  12103  12141
 NTFFLGP       1 00000011 FFFFFFD6     R    7470  7478   7487   7496   7505   7514
 NTFLNAME      1 00000020 FFFFFFD6     X    7561 12109  12147
 NTFLNMSZ      1 0000001F FFFFFFD6     X    7560 12106  12144
 NTFLOC        3 0000000A FFFFFFD6     X    7432 12088  12126
 NTFLSDT       4 00000017 FFFFFFD6     X    7558 12097  12135
 NTFNIXR      16 00000010 FFFFFFD6         7455 12101  12139
 NTFNOCLP     32 00000010 FFFFFFD6         7450 12101  12139
 NTGFLG        1 00000019 FFFFFFD6     R    7387  7395   7404   7413   7422
 NTGFLRB       2 00000015 FFFFFFD6     R    7383 12048
 NTGFLRN       2 00000017 FFFFFFD6     R    7384 12051
 NTGMXSP       3 0000000F FFFFFFD6     X    7381 12042
 NTGNAME       5 0000000A FFFFFFD6     X    7380 12039
 NTGUSSP       3 00000012 FFFFFFD6     X    7382 12045
 NTPFLG        1 00000006 FFFFFFD4     R    7611  7619   7628   7637   7646   7655
 NTRY         32 00000000 FFFFFFD6     J    7570 12030  12033  12036  12039  12042  12045  12048  12051  12079  12082
                                                 12085  12088  12091  12094  12097  12100  12103  12106  12109  12117
                                                 12120  12123  12126  12129  12132  12135  12138  12141  12144  12147
 NTRYDATB      2 00000006 FFFFFFD6     R    7374 12036  12085  12123
 NTRYFL       32 00000000 FFFFFFD6     R    7562 12075  12080  12113  12118  14180  14194
 NTRYGR       26 00000000 FFFFFFD6     R    7426 12026  12031  14179  14193
 NTRYLEN       2 00000000 FFFFFFD6     R    7371 12030  12079  12117
 NTRYOFFB      2 00000002 FFFFFFD6     R    7372 12033  12082  12120
 NTRYSTRT      1 00000000 FFFFFFD6     X    7370  7426   7426   7562   7562
 NTRYVAR       1 0000000A FFFFFFD6     X    7376  7428
 NTRYXST       1 00000000 FFFFFFD5     X    7582  7584
 NXTVOL        2 0000023E 00000001     H    8892  8454B  8478B  8550B
 OL            2 00000002 FFFFFFDC A   N    6308  6309   6309   6595   6596   6631   6734   6744   6754   6764   6775
                                                  6785   6795   6805   6815   6825   6835   6894   6896   6898   6904
                                                  6906   6908   6914   6917   6919   6921   6927   6930   6932   6934
                                                  6941   6944   6946   6948   6957   6958   6962   6968   6979   6980
                                                  6984   6990   6996   7005   7006   7010   7016   7022   7025   7041
                                                  7058   7061   7062   7220   7371   7373   7375   7384   7583  12031
                                                 12052
 OPENIN        2 00000D2E 00000001     H   10763  9085
 OPENINC       2 00000B52 00000001     H   10160  9086
 OPENOUT       2 00000DA8 00000001     H   11021  9088
 OPENOWK      20 00000000 FFFFFFD1     J   11013 11034  11062U 11072M 11072  11343  11345  11346
 ORVFMT        4 00000016 00000001     I    8242  8241   8251U
 OWNGRP        2 000017D2 00000001     H   13560 14146  14148
 PARMERR       2 000017B6 00000001     H   13542 13410B 13449B 13575B 13599B 13653B 13684B 13708B 13737B 13761B 13781B
                                                 13805B 13825B 13988B 14014B 14158
 PARMKW        1 000018EC 00000001     R   14103 13394
 PEM           4 00001DB4 00000001     F   13283 13545
 PFL           1 000005D1 00000001     R    7960  7964   7969   7974   7979   7984   7989   7994
 PFLCNTG      16 000005D1 00000001         7979  8519  13846M 13862M
 PFLCYL       32 000005D1 00000001         7974 13908M 13924M
 PFLFDC      128 000005D1 00000001         7964  8297   9301   9301   9528   9528  11468  12461M 13466  13466  13501
                                                 13501  13877M 13893M
 PFLINC        4 000005D1 00000001         7989  8378  10463  10553M 11791  13635M
1VFMT     (VFMT08) (09:47) (22MAR04) Ordinary Symbol and Literal Cross Reference                                            Page   99
 PFLKEY        2 000005D1 00000001         7994  9485   9811   9894  13959M 14037M 14053M
 PFLPAGE      64 000005D1 00000001         7969 13431  13944M
 PFLREST       8 000005D1 00000001         7984  8338   8951   9301   9301   9302   9528   9528   9529  11445  11745
                                                 11890M 13466  13466  13467  13501  13501  13502  13620M
 PGESZ         1 00001000 00000001 A   U    1282  1284
 PIM           4 00001D78 00000001     F   13275 13554
 PL            4 00000004 FFFFFFDC A   N    6309  7220  12034  12037  12083  12086  12121  12124
 PPAGE         2 00001880 00000001     H   13938 14117
 RAR           9 00000009 FFFFFFFF A   #    1049  8286M  8287M  8287B  8305M  8306M  8306B  8346M  8347M  8347B  8386M
                                                  8387M  8387B  8440M  8441M  8441B  8464M  8465M  8465B  8625M  8626M
                                                  8626B  8643M  8644M  8644B  8647M  8648M  8648B  8756M  8757M  8757B
                                                  8760M  8761M  8761B  9068M  9069B  9073M  9074B  9229   9626M  9629B
                                                  9666   9762M  9763M  9763B  9843M  9844M  9844B  9873M  9874M  9874B
                                                  9967M  9968M  9968B  9996M  9999B 10042  10093M 10096B 10166  10317M
                                                 10320B 10337  10575M 10578B 10599  10736M 10739B 10769  10958M 10961B
                                                 11028  11172M 11293M 11345M 11348B 11378  11453M 11454M 11454B 11476M
                                                 11477M 11477B 11566M 11569B 11586  11800M 11801M 11801B 11924M 11927B
                                                 12176  12802M 12805B 12829  13251M 13254B 13322  14092M 14095B
 RERR          4 00000840 00000001     F    8219  8989
 RESFLAGS      1 000005D3 00000001     R    8010  8014   8019   8024   8029
 RESTDCB       4 00000618 00000001     F    8099  8957  10797  10815  11637  11728  11758  11842  11846
 RESTEXLS      4 000005E0 00000001     F    8048  8113  10127
 RESTOR        2 000017EE 00000001     H   13614 14135
 RESTSTRT     32 000005D3 00000001         8024 11623  11682M 11701  13666M
 RESVBF      128 000005D3 00000001         8014 10857M 11651  11768  11883M
 RETCDE        4 00000380 00000001     A    7927  8318M  8359M  8399M  8453M  8477M  8549M  8986M  9055   9791M 11133M
                                                 13547M 13556M
 RETPTR        4 00000384 00000001     A    7928  8263M  9054
 RETUCBA       1 00000000 00000003     T   11941 11941
 RETURN        2 00000296 00000001     H    9002  8319B  8364B  8404B  9792B 11138B 13548B 13557B
 RPT           4 000005A8 00000001     U    7938  8615   8616   9286   9401  11893
 R0            0 00000000 FFFFFFFF A   #     727  8593M  8594   9018M  9057M  9331M  9341   9355M  9355   9376   9390M
                                                  9392M  9449M  9473   9513M  9801M  9818M  9835M  9845   9884M  9916M
                                                  9928   9929  10231M 10248M 10259M 10271  10655M 10684M 10701M 10702
                                                 10707M 10708  10714M 10715  10834M 10851M 10863M 10875  10902M 10914
                                                 11505M 11506M 11513M 11812M 11814M 11817  11818  11892M 11893M 11894M
                                                 11895  12211M 12212M 12213  12218M 12361M 12361  12362M 12363  12364M
                                                 12372M 12374  12492M 12496M 12917M 12918  12922  12923  12925M 12926
                                                 12930  12931M 12933  13013M 13013  13014M 13026M 13026  13027M 13351M
                                                 13360M 13360  13512M 13572  13659M 13660  13970M 13985  14020M 14021
 R1            1 00000001 FFFFFFFF A   #     740  8264M  8265   8282   8957M  8967U  9005M  9006M  9006   9037M  9146U
                                                  9331M  9376   9391M  9421M  9422   9433M  9434   9443M  9445   9578M
                                                  9579   9580M  9581   9582M  9583   9584M  9585   9601   9607M  9608
                                                  9840M  9845  10283  10449  10637M 10645U 10656M 10667U 10682M 10900M
                                                 10901  11113M 11114M 11114  11116M 11116  11143M 11186U 11497M 11498M
                                                 11499  11507M 11641  11757  11807M 11808M 11809M 11810M 11811  11891M
                                                 11894  12217M 12217  12355M 12356M 12357M 12374M 12495M 12883M 12884M
                                                 12885  12915M 12916  12920  12923M 12924  12928  12934M 12935  12936M
                                                 12937  12938M 12939  12940  12941  12942M 12943  12944  12945M 12946
                                                 12947M 12948M 12949  12950M 12951  12952M 12953M 12954  12955M 12956M
                                                 12959M 12960M 12961M 12962M 12962  12963M 12964  12965M 12966M 12969M
                                                 12970M 12971M 12972M 12972  12973M 12974  12975M 12976  12977M 12978
                                                 12980M 12981M 12982M 12995  13002M 13007  13008M 13009M 13017  13019M
                                                 13020  13021M 13022M 13030  13032M 13033  13118M 13119M 13131  13152M
                                                 13153M 13165  13350M 13366M 13527  13969M
 R12          12 0000000C FFFFFFFF A   #     883  8242   9057M
 R13          13 0000000D FFFFFFFF A   #     896  8263   9054M
 R14          14 0000000E FFFFFFFF A   #     909  8242   9056M  9058B  9177B 10513  10556M 10557B 10650M 10650  10683M
                                                 10695  10706M 10706  10708M 10719  11513M 11836  11905M 11906B 12208M
1VFMT     (VFMT08) (09:47) (22MAR04) Ordinary Symbol and Literal Cross Reference                                            Page  100
                                                 12218M 12363M 12372M 12373M 12373  12375  12493M 12496M 12513M 12536M
                                                 12536  12600M 12601M 12601  12605M 12608M 12620  12627M 12632  12673M
                                                 12674M 12675  12741M 12742M 12743  12983M 12984M 12985M 12995  13002
                                                 13120M 13121M 13131  13154M 13155M 13165
 R15          15 0000000F FFFFFFFF A   #     922  8243   8318   8359   8399   8453   8477   8640M  8753M  8903M  8904M
                                                  8905   8917   8926   9055M  9474M  9475M  9508   9547   9628M  9628
                                                  9754M  9754   9865M  9865   9959M  9959   9979M  9979   9998M  9998
                                                 10076M 10095M 10095  10214M 10287M 10287  10319M 10319  10427M 10427
                                                 10453M 10453  10470M 10492M 10492  10577M 10577  10679  10681M 10702M
                                                 10715M 10717  10738M 10738  10817M 10862M 10884M 10884  10924M 10924
                                                 10960M 10960  11117M 11133  11297M 11297  11314M 11347M 11347  11511M
                                                 11511  11512M 11549M 11549  11568M 11568  11754M 11755M 11756  11926M
                                                 11926  12204M 12205  12206M 12207  12209M 12210M 12211  12370M 12494M
                                                 12495  12497M 12507U 12522M 12532U 12586M 12596U 12804M 12804  12858M
                                                 12860  12862  12864  12866  13213M 13213  13230M 13253M 13253  13531M
                                                 13531  14094M 14094
 R2            2 00000002 FFFFFFFF A   #     753  8486M  8496U  8555M  8573U  8595M  8638M  8638   8639   8640   8669M
                                                  8670M  8671   8683   8753   8785M  8853M  9326M  9392M  9400M  9464
                                                  9514M  9547M  9694M  9706U  9742   9840  10194M 10204U 10418M 10627M
                                                 10635U 10797M 10807U 11082U 11086M 11641M 11658M 11757M 11776M 11816M
                                                 11819M 12205M 12237  12250M 12250  12271  12299M 12299  12340M 12349M
                                                 12349  12400  12406M 12418  12477  12486M 12486  12567  12644  12712
 R3            3 00000003 FFFFFFFF A   #     766  8506M  8533   9286M  9341   9369M  9370M  9373   9389M  9389   9401M
                                                  9552M  9695M  9715U 10419M 10677M 10679  10681  11112M 11113  11212M
                                                 11222U 11228M 11246U 11758M 11774M 11775M 11807  11812  11813M 11814
                                                 11817M
 R4            4 00000004 FFFFFFFF A   #     779  8615M  9287M  9320M  9321M  9326   9696M  9724U 10371M 10390M 10418
                                                 11432M 11434M 11816M 11819M 12208  12232U 12290M 12314U 12364  12424M
                                                 12434U 12492  12582U 12654M 12667U 12722M 12735U 12867M 12877U 12900M
                                                 12910U
 R5            5 00000005 FFFFFFFF A   #     792  8581M  8581   8594M  8614   8627   9402M  9410U  9431M  9431   9443
                                                  9444M  9444   9462M  9462   9697M  9736U 10372M 10388M 10389M 10419
                                                 11815M 11818M
 R6            6 00000006 FFFFFFFF A   #     805  9258M  9586M 11366U 11407M 11540M
 R8            8 00000008 FFFFFFFF A   #     831 11062U
 SCAN          1 00000000 00000005     T   14176 14176
 SCANCB        4 00001DDC 00000001     F   13292 13303  13382
 SCANVAL       4 00001DDC 00000001     A   13293 13605  13659  13690  13714  13743  13778  13787  13822  13831  14020
 SCINIT        1 00000000 00000004     T   14175 14175
 SEEKLOOP      2 00000CCC 00000001     H   10670 10684B
 SETFILL       2 000018D8 00000001     H   14062 14111
 SETINC        2 000017F4 00000001     H   13629 14137
 SETSEEK       6 00000CF6 00000001     I   10694 10680B
 SETSTRT       2 000017FA 00000001     H   13644 14156
 SFM           4 00000678 00000001     F    8144  8150   8632  11900
 SFMDD         4 000006AA 00000001     U    8152  8153   8544  10071  13996M
 SFMNP        10 00000695 00000001     U    8151  8152   8628M  8629M 11896M 11897M
 SFMPF         2 000006AF 00000001     U    8153  8432M  8543  10070
 SFMTP        10 0000068B 00000001     U    8150  8151   8414M 11874M
 SHDIS         2 000018BE 00000001     H   14005 14139
 SPR          13 0000000D FFFFFFFF A   #    1113  8282M  8283   9229   9232   9233   9234M  9234   9620M  9624   9626
                                                  9666   9669   9670   9671M  9671   9990M  9994   9996  10042  10045
                                                 10046  10047M 10047  10087M 10091  10093  10166  10169  10170  10171M
                                                 10171  10311M 10315  10317  10337  10340  10341  10342M 10342  10569M
                                                 10573  10575  10599  10602  10603  10604M 10604  10730M 10734  10736
                                                 10769  10772  10773  10774M 10774  10952M 10956  10958  11028  11031
                                                 11033  11034M 11034  11339M 11343  11345  11378  11381  11382  11383M
                                                 11383  11560M 11564  11566  11586  11589  11590  11591M 11591  11918M
                                                 11922  11924  12176  12179  12180  12181M 12181  12796M 12800  12802
1VFMT     (VFMT08) (09:47) (22MAR04) Ordinary Symbol and Literal Cross Reference                                            Page  101
                                                 12829  12832  12833  12834M 12834  13245M 13249  13251  13322  13325
                                                 13326  13327M 13327  14086M 14090  14092
 SRTEASCI      1 00000004 FFFFFFE5 A   U    5185  5186
 SRTEBSTR      1 00000004 FFFFFFE5 A   U    5184  5187
 STRTBLK       4 00000590 00000001     A    7932 11663  13660M
 SVA           4 0000038C 00000001     A    7930  8283M  9037
 TAPEND        2 00000FDA 00000001     H   11834  8111
 TRACKS        4 00000594 00000001     F    7933  8614M  8683  11892
 TRBAL         4 000005A4 00000001     A    7937  7938   9845M
 UCBALOC       1 00000008 FFFFFFE5 A   U    4756  4923
 UCBBALB       1 00000020 FFFFFFE5 A   U    5100  5181
 UCBBNUL       1 00000001 FFFFFFE5 A   U    5109  5188
 UCBBPRV       1 00000010 FFFFFFE5 A   U    5102  5182
 UCBBPUB       1 00000008 FFFFFFE5 A   U    5103  5183
 UCBBSTR       1 00000004 FFFFFFE5 A   U    5104  5184   5185
 UCBBSVL       1 00000080 FFFFFFE5 A   U    5086  5180
 UCBCHAN       2 00000064 FFFFFFE5     G    4768 11116
 UCBCHGS       1 00000040 FFFFFFE5 A   U    4746  4920
 UCBCMAD       4 00000000 FFFFFFD1     A   11002 11117  11143
 UCBDADI       1 00000001 FFFFFFE5 A   U    4761  4926
 UCBDEV        1 00000078 FFFFFFE5     U    4934  5081   5307   5467   5483   5691   5713   5805   5835
 UCBDMCT       1 00000083 FFFFFFE5     X    5118  5189
 UCBFLA        1 00000066 FFFFFFE5     B    4773  4774
 UCBFL1        1 00000066 FFFFFFE5     U    4774  4927
 UCBFSCT       2 00000078 FFFFFFE5     H    5308  5312
 UCBFSEQ       2 0000007A FFFFFFE5     H    5309  5313
 UCBJBNR       1 00000060 FFFFFFE5     B    4686  4916
 UCBMONT       1 00000001 FFFFFFE5 A   U    4707  4917
 UCBNRY        1 00000040 FFFFFFE5 A   U    4778  4779
 UCBOB         4 00000060 FFFFFFE5     F    4680 11116
 UCBONLI       1 00000080 FFFFFFE5 A   U    4745  4919
 UCBPRES       1 00000004 FFFFFFE5 A   U    4757  4924
 UCBRESV       1 00000020 FFFFFFE5 A   U    4751  4921
 UCBSTAB       1 00000082 FFFFFFE5     B    5085  5179
 UCBSTAT       1 00000063 FFFFFFE5     B    4744  4918
 UCBSYSR       1 00000002 FFFFFFE5 A   U    4759  4925
 UCBTR         1 00000094 FFFFFFE5     G    5381  5383
 UCBUNLD       1 00000010 FFFFFFE5 A   U    4753  4922
 UCBUSER       2 00000086 FFFFFFE5     G    5159  5160
 UCBVOLI       6 0000007C FFFFFFE5     C    5084  5178
 UCB3DACC      1 00000020 FFFFFFE5 A   U    4888  9779
 VFMT          1 00000000 00000001     J    1127  1129   1130   1131   6196   6278   6557   6614   7105   7206   7279
                                                  7352   7571   7593   7665   7817   7908   7918   8229   8240
 VFMT_INI      2 00001726 00000001     H   13316  9083
 VFMT_ST       1 00004000 00000001 A   U    1138  8270   9042
 VFMT08        1 00000000 00000001     R    1147  1145
 VFNOPN        2 00000B1E 00000001     H   10036 11938
 VOLS          2 000017E2 00000001     H   13590 14103
 VOLUME        6 0000122C 00000001     C    9200  9210   9883M
 WAR           8 00000008 FFFFFFFF A   #    1036  9233M  9620   9670M  9990  10046M 10087  10170M 10311  10341M 10569
                                                 10603M 10730  10773M 10952  11033M 11339  11382M 11560  11590M 11918
                                                 12180M 12796  12833M 13245  13326M 14086
 =A(BUILDIOB)
               4 00000324 00000001     A    9090  8625
 =A(CALCSEEK)
               4 00000328 00000001     A    9091  8643   8756
 =A(CFSBDBLK+1)
               4 00001A0C 00000001     A   14172 12644
 =A(CFSBDBLK+2)
1VFMT     (VFMT08) (09:47) (22MAR04) Ordinary Symbol and Literal Cross Reference                                            Page  102
               4 00001A10 00000001     A   14173 12712
 =A(CFSBDBLK)
               4 00001A00 00000001     A   14169 12567
 =A(CHKDEV)
               4 00000318 00000001     A    9087  8440
 =A(CHKINC)
               4 000010CC 00000001     A   11947 11800
 =A(DEBPREFE-DEBPREFX)
               4 000010B8 00000001     A   11942 11212
 =A(FORMBLK)
               4 000010C0 00000001     A   11944 11476
 =A(FORMDS)
               4 0000030C 00000001     A    9084  8305
 =A(GETBLOCK)
               4 000010BC 00000001     A   11943 11453
 =A(GETDATA)
               4 0000032C 00000001     A    9092  8647   8760
 =A(OPENIN)
               4 00000310 00000001     A    9085  8346
 =A(OPENINC)
               4 00000314 00000001     A    9086  8386
 =A(OPENOUT)
               4 0000031C 00000001     A    9088  8464
 =A(VFMT_INI)
               4 00000308 00000001     A    9083  8286
 =A(VFNOPN)
               4 000010A8 00000001     A   11938  9762   9873   9967
 =A(X'FFF8')
               4 000010A0 00000001     A   11936  9370
 =A(X'7FFFFFFF')
               4 0000033C 00000001     A    9096  9073
 =A(X'80000000')
               4 00000338 00000001     A    9095  9068
 =A(1)         4 00000320 00000001     A    9089  8533
 =A(1)         4 00001A04 00000001     A   14170 12608  12959  12969
 =A(100)       4 00001A14 00000001     A   14174 13014  13027
 =A(2*L'IOB)
               4 00000334 00000001     A    9094  9018
 =A(2*L'IOB)
               4 00001A20 00000001     A   14177 13512
 =A(2)         4 00001A24 00000001     A   14178 13572
 =A(4)         4 000010B0 00000001     A   11940 10248  10389  10851  10902
 =A(4)         4 00001A34 00000001     A   14182 13985
 =A(8)         4 000010C4 00000001     A   11945 11506  11507
 =AL1(L'DSKFINIT)
               1 00001A63 00000001     R   14204 12653  12721
 =AL2(4096)
               2 00001A60 00000001     R   14202 13446  13945
 =AL2(8)       2 000010D2 00000001     R   11949 11435
 =AL3(DONEMSG)
               3 00000354 00000001     R    9099  8972
 =AL4(L'NTRYFL+CNTFMXSZ)
               4 00001A2C 00000001     R   14180 13822
 =AL4(L'NTRYGR)
               4 00001A28 00000001     R   14179 13778
 =C'PAGE'      4 00001A30 00000001     C   14181 13969
 =CL10'Formatting'
              10 000010D4 00000001     C   11950 11874  11875  11876
 =CL10'Restoring '
1VFMT     (VFMT08) (09:47) (22MAR04) Ordinary Symbol and Literal Cross Reference                                            Page  103
              10 00000340 00000001     C    9097  8413   8414   8415
 =CL4' '       4 00001A38 00000001     C   14183 13995
 =F'1'         4 00000330 00000001     F    9093  8853
 =F'1'         4 000010A4 00000001     F   11937  9513   9552   9586  10683
 =F'1'         4 000019F8 00000001     F   14167 12206
 =F'4'         4 000010C8 00000001     F   11946 11775
 =F'8'         4 000019FC 00000001     F   14168 12212  12362
 =V(CALCTRK)
               4 000010AC 00000001     V   11939  9843
 =V(RETUCBA)
               4 000010B4 00000001     V   11941 11120
 =V(SCAN)      4 00001A1C 00000001     V   14176 13400
 =V(SCINIT)
               4 00001A18 00000001     V   14175 13385
 =X'FF'        1 00001A62 00000001     X   14203 12370
 =X'40206B2020206b202120'
              10 000010DE 00000001     X   11951 11896
 =X'40206B2020206B202120'
              10 0000034A 00000001     X    9098  8628
 =Y(CCAT1MIN)
               2 00001A58 00000001     Y   14198 13017  13019
 =Y(CCAT1PCT)
               2 00001A56 00000001     Y   14197 13009
 =Y(CCAT2MIN)
               2 00001A5C 00000001     Y   14200 13030  13032
 =Y(CCAT2PCT)
               2 00001A5A 00000001     Y   14199 13022
 =Y(CDSKHSIZ)
               2 00001A44 00000001     Y   14188 12887  12938
 =Y(CFSBDBLK+1+2)
               2 00001A40 00000001     Y   14186 12884
 =Y(CFSBDBLK+1)
               2 00001A42 00000001     Y   14187 12886
 =Y(CFSBDBLK+3)
               2 00001A46 00000001     Y   14189 12889
 =Y(CNTAMXL)
               2 00001A52 00000001     Y   14195 12975
 =Y(CNTFMXL)
               2 00001A54 00000001     Y   14196 12977
 =Y(FDIDAELN-CNODNLLN)
               2 00001A3C 00000001     Y   14184 12674
 =Y(FDIDFELN-CNODNLLN)
               2 00001A3E 00000001     Y   14185 12742
 =Y(L'NODE+CNODNLLN)
               2 00001A4C 00000001     Y   14192 12942
 =Y(L'NTRYFL+1)
               2 00001A50 00000001     Y   14194 12953
 =Y(L'NTRYGR)
               2 00001A4E 00000001     Y   14193 12948
 =Y(1)         2 00001A48 00000001     Y   14190 12890
 =Y(3)         2 00001A5E 00000001     Y   14201 13119  13153
 =Y(4)         2 000010D0 00000001     Y   11948 10555  11904
 =Y(8)         2 00001A4A 00000001     Y   14191 12936  13121  13155
 =4AL1(NIL)
               1 00001A08 00000001     R   14171 12627  12650  12651  12652  12718  12719  12720  12888

1VFMT     (VFMT08) (09:47) (22MAR04) Macro and Copy Code Source Summary                                                     Page  104
- Con Source                                        Volume    Members                        HLASM R4.0  2004/03/22 09.47
0     PRIMARY INPUT                                           CHKPREC  CSECT    DROP     DSKCHN   END      ERRCODE  EX
                                                              LTORG    POP      PRINT    PUSH     START    USING
   L2 WYL.GG.SYS.MACLIB                             SYSB05    $BC      $BFLKUP  $BV      $CCLKUP  $CRS     $CSS     $L
                                                              $LBLAD   $LEXP    $LOR     $REL     $RGLKUP  $USLKUP
                                                              ACALL    BASE     BEGIN    CLEAR    COMPROC  CSECT    DATA
                                                              DECR     DEFCC    DROP     ELSE     ELSEIF   END      EX
                                                              EXIT     FLAG     FLOOR    GEN      HIBAL    IDENT    IF
                                                              INCR     LABEL    LC       LCALL    LCM      LOOP     LS
                                                              LT       LTORG    L2       L3       PEND     POP
                                                              PRINT    PROC     PUSH     RECORD   REG      REGS     SET
                                                              SETMSG   START    ST2      ST3      ST4      SYSLR
                                                              UNTIL    USING    VCALL    WHILE    WITH
   L3 WYL.GG.ORV.BC.MACLIB                          SYSB02    CBORG    CHKPNT   IOB      SCAN     SCANCB   SCINIT   SCKW
                                                              SCRTN    VPOP     VPUSH    XCALL
   L4 WYL.GG.ORV.MACLIB                             SYSB02    DSKBLK   FBHDR    FILCONST FPC      FSB      FSMB
                                                              IEFUCBOB NODE     NTRY
   L6 SYS1.MACLIB                                   MVSBR9    ABEND    CAMLST   CLOSE    DCB      DCBD     DEVTYPE  EXCP
                                                              FREEMAIN FREEPOOL GET      GETMAIN  IEFJFCBN IEZDEB
                                                              IHADVA   IHBINNRA IHBINNRR IHB01    IOSDCXR  MODESET  OPEN
                                                              RDJFCB   STORAGE  SYNADAF  SYNADRLS SYSSTATE WAIT     WTO
   L7 SYS1.MODGEN                                   MVSBR9    IECDDCE  IECDUCBC IECDUCBD IECDUCBE IECDUCBG IECDUCBT
                                                              IECDUCBU IECSDSL1 IOSDUCBC OBTAIN

1         (VFMT08) (09:47) (22MAR04) General Purpose Register Cross Reference                                               Page  105
- Register  References (M=modified, B=branch, U=USING, D=DROP, N=index)                      HLASM R4.0  2004/03/22 09.47
0    0(0)     1010U  1011D  8242   8276M  8592M  8592   8593M  8594   8718M  8817M  9018M  9048M  9057M  9331M  9341
              9355M  9355   9373M  9376   9390M  9392M  9449M  9473   9513M  9742M  9744M  9744   9801M  9818M  9835M
              9845   9884M  9916M  9928   9929  10231M 10248M 10259M 10271  10538M 10543M 10654M 10654  10655M 10684M
             10690M 10691M 10692  10700M 10700  10701M 10702  10707M 10708  10713M 10713  10714M 10715  10834M 10851M
             10863M 10875  10902M 10914  11504M 11504  11505M 11506M 11513M 11812M 11814M 11817  11818  11861M 11866M
             11892M 11893M 11894M 11895  12211M 12212M 12213  12218M 12361M 12361  12362M 12363  12364M 12372M 12374
             12492M 12496M 12917M 12918  12922  12923  12925M 12926  12930  12931M 12933  13013M 13013  13014M 13026M
             13026  13027M 13351M 13360M 13360  13512M 13572  13659M 13660  13970M 13985  14020M 14021
     1(1)     1006U  8242   8264M  8265   8282   8362M  8402M  8541M  8547M  8632M  8651M  8720M  8764M  8819M  8879M
              8957M  8967U  8979U  8984   8989M  8998M  9005M  9006M  9006   9037M  9057M  9117M  9119   9128M  9146U
              9184U  9331M  9363M  9363   9374M  9376   9391M  9392M  9421M  9422   9433M  9434   9443M  9445   9578M
              9579   9580M  9581   9582M  9583   9584M  9585   9601   9607M  9608   9741M  9743M  9743   9789M  9840M
              9845   9853M  9949M 10074M 10210M 10279M 10281  10283  10445M 10447  10449  10517M 10523M 10524  10527
             10533  10535M 10535  10536M 10538M 10539M 10539  10542M 10542  10543  10544M 10637M 10645U 10656M 10664U
             10667U 10682M 10689M 10692M 10745U 10813M 10900M 10901  11089M 11113M 11114M 11114  11116M 11116  11136M
             11143M 11186U 11253M 11255M 11255  11274M 11276M 11276  11288U 11497M 11498M 11499  11507M 11513M 11637M
             11639  11641  11728M 11730  11757  11807M 11808M 11809M 11810M 11811  11840M 11846M 11847  11850  11856
             11858M 11858  11859M 11861M 11862M 11862  11865M 11865  11866  11867M 11872M 11891M 11894  11900M 12217M
             12217  12218M 12355M 12356M 12357M 12362M 12372M 12374M 12495M 12496M 12883M 12884M 12885  12915M 12916
             12920  12923M 12924  12928  12934M 12935  12936M 12937  12938M 12939  12940  12941  12942M 12943  12944
             12945M 12946  12947M 12948M 12949  12950M 12951  12952M 12953M 12954  12955M 12956M 12959M 12960M 12961M
             12962M 12962  12963M 12964  12965M 12966M 12969M 12970M 12971M 12972M 12972  12973M 12974  12975M 12976
             12977M 12978  12980M 12981M 12982M 12995  13002M 13007  13008M 13009M 13014M 13017  13019M 13020  13021M
             13022M 13027M 13030  13032M 13033  13068M 13101M 13118M 13119M 13131  13146M 13152M 13153M 13165  13180M
             13350M 13366M 13394M 13527  13545M 13554M 13969M
     2(2)     1002U  8242   8486M  8496U  8555M  8562U  8573U  8595M  8612U  8638M  8638   8639   8640   8669M  8670M
              8671   8683   8753   8785M  8853M  9057M  9232   9326M  9392M  9400M  9464   9514M  9547M  9624M  9669
              9694M  9742   9840   9994M 10006U 10045  10091M 10169  10194M 10315M 10340  10418M 10573M 10602  10627M
             10734M 10751U 10772  10797M 10956M 11031  11086M 11343M 11381  11564M 11589  11641M 11658M 11757M 11776M
             11816M 11819M 11922M 12179  12205M 12237  12250M 12250  12271  12299M 12299  12340M 12349M 12349  12400
             12406M 12418  12477  12486M 12486  12567  12644  12712  12800M 12832  13249M 13325  14090M
     3(3)      998U  8242   8281M  8503D  8505M  8505   8506M  8507U  8533   8601M  9032M  9053M  9057M  9232   9286M
              9326M  9341   9369M  9370M  9373   9389M  9389   9392M  9401M  9552M  9624M  9669   9695M  9715U  9994M
             10012U 10045  10091M 10169  10315M 10340  10419M 10573M 10602  10674D 10676M 10676  10677M 10678U 10679
             10681  10734M 10772  10956M 11031  11112M 11113  11212M 11222U 11228M 11235U 11246U 11283U 11343M 11381
             11564M 11589  11758M 11774M 11775M 11807  11812  11813M 11814  11816M 11817M 11819M 11922M 12179  12800M
             12832  13249M 13325  13526M 14090M
     4(4)      994U  8242   8281M  8615M  9032M  9053M  9057M  9232   9287M  9320M  9321M  9326   9624M  9669   9696M
              9724U  9994M 10018U 10045  10091M 10169  10315M 10340  10371M 10390M 10418  10573M 10602  10734M 10772
             10956M 11031  11343M 11381  11432M 11434M 11564M 11589  11816M 11819M 11922M 12179  12208  12232U 12286U
             12290M 12314U 12324U 12364  12424M 12434U 12453U 12492  12582U 12654M 12664U 12667U 12685U 12688U 12722M
             12732U 12735U 12753U 12756U 12770U 12800M 12832  12867M 12877U 12897U 12900M 12910U 13192U 13249M 13325
             13526M 14090M
     5(5)      990U  8242   8581M  8581   8594M  8614   8615M  8627   9057M  9232   9402M  9410U  9431M  9431   9443
              9444M  9444   9462M  9462   9624M  9669   9697M  9733U  9736U  9994M 10024U 10045  10091M 10169  10315M
             10340  10372M 10388M 10389M 10419  10573M 10602  10734M 10772  10956M 11031  11343M 11381  11564M 11589
             11815M 11816M 11818M 11819M 11922M 12179  12800M 12832  13249M 13325  14090M
     6(6)      986U  8242   9057M  9232   9258M  9586M  9624M  9669   9994M 10045  10091M 10169  10315M 10340  10573M
             10602  10734M 10772  10956M 11031  11343M 11366U 11381  11407M 11540M 11564M 11589  11922M 12179  12800M
             12811U 12832  13249M 13325  14090M
     7(7)      982U  8242   9057M  9232   9624M  9669   9994M 10045  10091M 10169  10315M 10340  10573M 10602  10734M
             10772  10956M 11031  11343M 11381  11564M 11589  11922M 12179  12800M 12832  13249M 13325  14090M
     8(8)      978U  8242   9057M  9232   9233M  9620   9624M  9669   9670M  9990   9994M 10045  10046M 10087  10091M
             10169  10170M 10311  10315M 10340  10341M 10569  10573M 10602  10603M 10730  10734M 10772  10773M 10952
             10956M 11031  11033M 11062U 11330U 11339  11343M 11381  11382M 11560  11564M 11589  11590M 11918  11922M
1         (VFMT08) (09:47) (22MAR04) General Purpose Register Cross Reference                                               Page  106
             12179  12180M 12796  12800M 12832  12833M 13245  13249M 13325  13326M 14086  14090M
     9(9)      974U  8242   8286M  8287M  8287B  8305M  8306M  8306B  8346M  8347M  8347B  8386M  8387M  8387B  8440M
              8441M  8441B  8464M  8465M  8465B  8625M  8626M  8626B  8643M  8644M  8644B  8647M  8648M  8648B  8756M
              8757M  8757B  8760M  8761M  8761B  9057M  9068M  9069B  9073M  9074B  9229   9232   9624M  9626M  9629B
              9666   9669   9762M  9763M  9763B  9843M  9844M  9844B  9873M  9874M  9874B  9967M  9968M  9968B  9994M
              9996M  9999B 10042  10045  10091M 10093M 10096B 10166  10169  10315M 10317M 10320B 10337  10340  10573M
             10575M 10578B 10599  10602  10734M 10736M 10739B 10769  10772  10956M 10958M 10961B 11028  11031  11172M
             11293M 11343M 11345M 11348B 11378  11381  11453M 11454M 11454B 11476M 11477M 11477B 11564M 11566M 11569B
             11586  11589  11800M 11801M 11801B 11922M 11924M 11927B 12176  12179  12800M 12802M 12805B 12829  12832
             13249M 13251M 13254B 13322  13325  14090M 14092M 14095B
    10(A)      970U  8242   9057M  9232   9237M  9248U  9616U  9624M  9669   9674M  9685U  9986U  9994M 10045  10050M
             10061U 10083U 10091M 10169  10174M 10185U 10307U 10315M 10340  10345M 10356U 10565U 10573M 10602  10607M
             10618U 10726U 10734M 10772  10777M 10788U 10948U 10956M 11031  11037M 11048U 11335U 11343M 11381  11386M
             11397U 11556U 11564M 11589  11594M 11605U 11914U 11922M 12179  12184M 12195U 12792U 12800M 12832  12837M
             12848U 13241U 13249M 13325  13330M 13341U 14082U 14090M
    11(B)      966U  8242   8261U  8634M  8651   8692M  8764   8784M  8852M  9057M  9117   9257M  9584   9601M
    12(C)      962U  8242   8243M  8251U  9057M
    13(D)      958U  8263   8282M  8283   9054M  9229   9232   9233   9234M  9234   9620M  9624   9626   9666   9669
              9670   9671M  9671   9990M  9994   9996  10042  10045  10046  10047M 10047  10087M 10091  10093  10166
             10169  10170  10171M 10171  10311M 10315  10317  10337  10340  10341  10342M 10342  10513  10514M 10514
             10555M 10556  10569M 10573  10575  10599  10602  10603  10604M 10604  10730M 10734  10736  10769  10772
             10773  10774M 10774  10952M 10956  10958  11028  11031  11033  11034M 11034  11339M 11343  11345  11378
             11381  11382  11383M 11383  11560M 11564  11566  11586  11589  11590  11591M 11591  11836  11837M 11837
             11904M 11905  11918M 11922  11924  12176  12179  12180  12181M 12181  12796M 12800  12802  12829  12832
             12833  12834M 12834  13245M 13249  13251  13322  13325  13326  13327M 13327  14086M 14090  14092
    14(E)      954U  8242   8278M  8279M  8279N  8280M  8280N  8281   8281M  8985M  9029M  9030M  9030N  9031M  9031N
              9032   9032M  9050M  9051M  9051N  9052M  9052N  9053   9053M  9056M  9058B  9177B 10282M 10448M 10513
             10528M 10529M 10529  10534M 10534  10537M 10538  10556M 10557B 10650M 10650  10683M 10695  10706M 10706
             10708M 11120M 11121M 11121B 11151M 11152M 11513M 11640M 11731M 11836  11851M 11852M 11852  11857M 11857
             11860M 11861  11905M 11906B 12208M 12218M 12363M 12372M 12373M 12373N 12375  12493M 12496M 12513M 12536M
             12536N 12600M 12601M 12601N 12605M 12608M 12620  12627M 12632  12673M 12674M 12675  12741M 12742M 12743
             12983M 12984M 12985M 12995  13002  13120M 13121M 13131  13154M 13155M 13165  13385M 13386M 13386B 13400M
             13401M 13401B 13523M 13524M 13524N 13525M 13525N 13526  13526M 13587B 13611B 13626B 13641B 13672B 13696B
             13720B 13749B 13793B 13837B 13852B 13868B 13883B 13899B 13914B 13930B 14002B 14028B 14043B 14059B 14074B
    15(F)      950U  8242   8243   8277M  8318   8359   8399   8453   8477   8640M  8753M  8903M  8904M  8905   8917
              8926   8983M  8983   8984M  8985B  9028M  9049M  9055M  9115M  9123M  9474M  9475M  9508   9547   9628M
              9628   9754M  9754   9865M  9865   9959M  9959   9979M  9979   9998M  9998  10076M 10095M 10095  10214M
             10280M 10280  10281M 10282B 10287M 10287  10319M 10319  10427M 10427  10446M 10446  10447M 10448B 10453M
             10453  10470M 10492M 10492  10526M 10526  10527M 10528  10531  10536  10537  10540  10544  10577M 10577
             10679  10681M 10702M 10708M 10715M 10738M 10738  10817M 10862M 10884M 10884  10924M 10924  10960M 10960
             11117M 11133  11154M 11156M 11158B 11161M 11162M 11162N 11163M 11163N 11164M 11164N 11165B 11297M 11297
             11314M 11347M 11347  11511M 11511  11512M 11513M 11549M 11549  11568M 11568  11638M 11638  11639M 11640B
             11729M 11729  11730M 11731B 11754M 11755M 11756  11849M 11849  11850M 11851  11854  11859  11860  11863
             11867  11926M 11926  12204M 12205  12206M 12207  12209M 12210M 12211  12218M 12367D 12369M 12369  12370M
             12371U 12372M 12494M 12495  12496M 12497M 12507U 12520U 12522M 12532U 12543U 12586M 12596U 12765U 12804M
             12804  12858M 12860  12862  12864  12866  13213M 13213  13230M 13253M 13253  13382M 13522M 13531M 13531
             14094M 14094

1VFMT     (VFMT08) (09:47) (22MAR04) Diagnostic Cross Reference and Assembler Summary                                       Page  107
-                                                                                            HLASM R4.0  2004/03/22 09.47
0     No Statements Flagged in this Assembly
 HIGH LEVEL ASSEMBLER, 5696-234, RELEASE 4.0, PTF UQ57391
0SYSTEM: OS/390 02.10.00            JOBNAME: PJG#VFMT    STEPNAME: ASM        PROCSTEP: (NOPROC)
0Datasets Allocated for this Assembly
  Con DDname   Dataset Name                                 Volume  Member
   P1 SYSIN    SYS04082.T094700.RA000.PJG#VFMT.INPUT.H01    SCR100
   L1 SYSLIB   SYS3.DUMMYMAC                                SYSB02
   L2          WYL.GG.SYS.MACLIB                            SYSB05
   L3          WYL.GG.ORV.BC.MACLIB                         SYSB02
   L4          WYL.GG.ORV.MACLIB                            SYSB02
   L5          SYS3.IS.MACLIB                               SYSB05
   L6          SYS1.MACLIB                                  MVSBR9
   L7          SYS1.MODGEN                                  MVSBR9
      SYSLIN   WYL.GG.PJG.OBJ                               SYSB05  VFMT
      SYSPRINT SYS04082.T094700.RA000.PJG#VFMT.PRINT.H01    SCR100
      SYSTERM  GG$PJG.PJG#VFMT.JOB05980.D0000103.?

    7812K allocated to Buffer Pool,         4157K would be required for this to be an In-Storage Assembly
    1826 Primary Input Records Read        27158 Library Records Read                  0 Work File Reads
       0 ASMAOPT Records Read               6893 Primary Print Records Written         0 Work File Writes
     197 Punch Records Written                 0 ADATA Records Written
0Assembly Start Time: 09.47.02 Stop Time: 09.47.12 Processor Time: 00.00.02.8022
 Return Code 000
