1                        J E S 2  J O B  L O G  --  S Y S T E M  S Y S B  --  N O D E  R L G
0
 09.43.33 JOB05955 ---- MONDAY,    22 MAR 2004 ----
 09.43.33 JOB05955  ICH70001I GG$PJG   LAST ACCESS AT 09:42:48 ON MONDAY, MARCH 22, 2004
 09.43.33 JOB05955  $HASP373 PJG#PARM STARTED - INIT 2    - CLASS E - SYS SYSB
 09.43.33 JOB05955  ***  HCMD      STEP $$QUIET
 09.43.33 JOB05955  PURGE * Q=OUTPUT MULTIPLE
 09.43.33 JOB05955  JOB PJG#PARM NOT IN OUTPUT QUEUE
 09.43.34 JOB05955  PJG#PARM.$$QUIET .         RC=0008 TapeIO=0000 DiskIO=0000 CPU=  .01s Elapsed=13.22s
 09.43.34 JOB05955  PJG#PARM.$CND    .         RC=Zero TapeIO=0000 DiskIO=0002 CPU=  .01s Elapsed=14.26s
 09.43.34 JOB05955  PJG#PARM.$UNP    .         RC=Zero TapeIO=0000 DiskIO=0010 CPU=  .04s Elapsed=14.36s
 09.43.37 JOB05955  PJG#PARM.ASM     .         RC=Zero TapeIO=0000 DiskIO=0302 CPU= 1.46s Elapsed=14.59s
 09.43.38 JOB05955  PJG#PARM.$EDIT   .         RC=Zero TapeIO=0000 DiskIO=0072 CPU=  .27s Elapsed=17.79s
 09.43.38 JOB05955  PJG#PARM Ended.  Name=Module: PARMS                  Total CPU= 1.79s Elapsed=13.22s
 09.43.38 JOB05955
 09.43.38 JOB05955  Execution charges   Priority=Standard   Block=Day
 09.43.38 JOB05955
 09.43.38 JOB05955  CPU Usage          32.62          $20.22   Standard Processing Unit Equivalent
 09.43.38 JOB05955                                   =======
 09.43.38 JOB05955                                    $20.22   Total Job execution charge
 09.43.38 JOB05955
 09.43.38 JOB05955  See back separator page for print charges
 09.43.38 JOB05955
 09.43.38 JOB05955  $HASP395 PJG#PARM ENDED  ASM=0
1        1 //PJG#PARM JOB PJG$GG,'Module: PARMS',TIME=1,MSGCLASS=C                 JOB05955
           /*JOBPARM HOLD=OUTPUT,LINES=50,CHARS=TN15,NOTIFY=YES
         2 //       EXEC PURGEOLD
         3 XXPURGEOLD PROC
           XX*
           XX* This proc is maintained by Jim Stosick
           XX*
         4 XX$$QUIET  EXEC PGM=HCMDX,PARM='PURGE * Q=OUTPUT MULTIPLE',
           XX         ACCT=(PURGEOLD,SYS3)
         5 //$CND   EXEC PGM=BILBO,REGION=512K,PARM='RECS=100'
         6 //STEPLIB  DD DSN=WYL.GG.ORV.LINKLIB,DISP=SHR
         7 //SYSPRINT DD SYSOUT=$
         8 //SYSUT1   DD DSN=WYL.GG.PJG.OBJ,DISP=OLD
         9 //SYSUT2   DD DSN=WYL.GG.PJG.OBJ,DISP=OLD
        10 //SYSIN    DD DUMMY
        11 //$UNP   EXEC PGM=WUNPRESS,PARM='NUM'
        12 //SYSPRINT DD SYSOUT=$
        13 //SYSUT1   DD DSN=WYL.GG.ORV.SOURCE(PARMS),DISP=SHR
        14 //SYSUT2   DD DSN=&&INPUT,DISP=(,PASS),UNIT=SYSDA,
           //            SPACE=(TRK,(25,25),RLSE),DCB=CARD
        15 //ASM    EXEC PGM=ASMA90,REGION=8M,COND=(0,NE,$UNP),
           //            PARM=('SYSPARM(PARMS),TERM,LANG(EN),OBJ',
           //          'LC(32500),XREF(SHORT),NODECK,NORLD,NODX,NOUS')
           //*STEPLIB  DD DSN=SYS1.SASMMOD1,DISP=SHR
        16 //SYSLIB   DD DSN=SYS3.DUMMYMAC,DISP=SHR,DCB=BLKSIZE=27920
        17 //         DD DSN=WYL.GG.ORV.MACLIB,DISP=SHR
        18 //         DD DSN=WYL.GG.SYS.MACLIB,DISP=SHR
        19 //         DD DSN=SYS1.MACLIB,DISP=SHR
        20 //SYSUT1   DD DSN=&&SYSUT1,UNIT=VIO,DISP=(,DELETE),
           //            SPACE=(4088,(500,250),,CONTIG,ROUND)
        21 //SYSTERM  DD SYSOUT=$
        22 //SYSPRINT DD DSN=&&PRINT,UNIT=SYSDA,DISP=(,PASS),
           //            SPACE=(6650,(250,250),RLSE),
           //            DCB=(BLKSIZE=6650,LRECL=133,RECFM=FB)
        23 //SYSLIN   DD DSN=WYL.GG.PJG.OBJ(PARMS),DISP=OLD
        24 //SYSUDUMP DD SYSOUT=A
        25 //SYSIN    DD DSN=&&INPUT,DISP=(OLD,DELETE)
        26 //$EDIT  EXEC PGM=ASMEDIT,REGION=1M,
           //            COND=EVEN,PARM='STMT,DATA'
        27 //STEPLIB  DD DSN=WYL.GG.SYS.LINKLIB,DISP=SHR
        28 //ASMOUT   DD DSN=&&PRINT,DISP=(OLD,DELETE)
        29 //SYSPRINT DD SYSOUT=A
        30 //SYSUDUMP DD SYSOUT=A
1 STMT NO. MESSAGE
         2 IEFC001I PROCEDURE PURGEOLD WAS EXPANDED USING SYSTEM LIBRARY SYS3.BETAPROC
        14 IGD01010I STORCLAS= TEMP STORGROUP =
        14 IGD01010I STORGRP=VIO ASSIGNED.
        20 IGD01010I STORCLAS= TEMP STORGROUP =
        20 IGD01010I STORGRP=VIO ASSIGNED.
        22 IGD01010I STORCLAS= TEMP STORGROUP =
        22 IGD01010I STORGRP=VIO ASSIGNED.
 ICH70001I GG$PJG   LAST ACCESS AT 09:42:48 ON MONDAY, MARCH 22, 2004
 IEF142I PJG#PARM $$QUIET - STEP WAS EXECUTED - COND CODE 0008
 *********************************************************************************
 *   PJG#PARM/$$QUIET /                    Return Code      0008                 *
 *   Region used      260K (16K user + 244K system)                              *
 *   Extended region  9352K (4K user + 9348K system)                             *
 *                                                                               *
 *   Paging              In      Out                                             *
 *   Private <-> Aux      0        0       CPU time (TCB)   00:00:00.01          *
 *   Private <-> Exp      0        0       CPU time (SRB)   00:00:00.00          *
 *   VIO                  0        0       Elapsed time    920:44:19.74          *
 *   Common               0      ---                                             *
 *                                                                               *
 *                                                                               *
 *   CPU Usage          0.18         $0.11  Standard Processing Unit Equivalent  *
 *                                   $0.11  Total Step execution charge          *
 *                                                                               *
 *    I/O count  DDname   Type Addr           I/O count  DDname   Type Addr      *
 *                         *** No I/O for this step ***                          *
 *********************************************************************************
 IEF373I STEP/$$QUIET /START 2004082.0943
 IEF374I STEP/$$QUIET /STOP  2004082.0943 CPU    0MIN 00.01SEC SRB    0MIN 00.00SEC VIRT    16K SYS   244K EXT       4K SYS    9348K
 IEF236I ALLOC. FOR PJG#PARM $CND
 IEF237I 0401 ALLOCATED TO STEPLIB
 IEF237I JES2 ALLOCATED TO SYSPRINT
 IEF237I 04DC ALLOCATED TO SYSUT1
 IEF237I 04DC ALLOCATED TO SYSUT2
 IEF237I DMY  ALLOCATED TO SYSIN
 IEF142I PJG#PARM $CND - STEP WAS EXECUTED - COND CODE 0000
 IEF285I   WYL.GG.ORV.LINKLIB                           KEPT
 IEF285I   VOL SER NOS= SYSB01.
 IEF285I   GG$PJG.PJG#PARM.JOB05955.D0000101.?          SYSOUT
 IEF285I   WYL.GG.PJG.OBJ                               KEPT
 IEF285I   VOL SER NOS= SYSB05.
 IEF285I   WYL.GG.PJG.OBJ                               KEPT
 IEF285I   VOL SER NOS= SYSB05.
 *********************************************************************************
 *   PJG#PARM/$CND    /                    Return Code      Zero                 *
 *   Region used      280K (16K user + 264K system)                              *
 *   Extended region  9392K (4K user + 9388K system)                             *
 *                                                                               *
 *   Paging              In      Out                                             *
 *   Private <-> Aux      0        0       CPU time (TCB)   00:00:00.01          *
 *   Private <-> Exp      0        0       CPU time (SRB)   00:00:00.00          *
 *   VIO                  0        0       Elapsed time    920:44:18.70          *
 *   Common               0      ---                                             *
 *                                                                               *
 *                                                                               *
 *   CPU Usage          0.18         $0.11  Standard Processing Unit Equivalent  *
 *                                   $0.11  Total Step execution charge          *
 *                                                                               *
 *    I/O count  DDname   Type Addr           I/O count  DDname   Type Addr      *
 *            2  STEPLIB  Disk 0401                   0  SYSPRINT      ----      *
 *            0  SYSUT1   Disk 04DC                   0  SYSUT2   Disk 04DC      *
 *            0  SYSIN         ----                                              *
 *********************************************************************************
 IEF373I STEP/$CND    /START 2004082.0943
 IEF374I STEP/$CND    /STOP  2004082.0943 CPU    0MIN 00.01SEC SRB    0MIN 00.00SEC VIRT    16K SYS   264K EXT       4K SYS    9388K
 IEF236I ALLOC. FOR PJG#PARM $UNP
 IEF237I JES2 ALLOCATED TO SYSPRINT
 IEF237I 0402 ALLOCATED TO SYSUT1
 IGD101I SMS ALLOCATED TO DDNAME (SYSUT2  )
         DSN (SYS04082.T094333.RA000.PJG#PARM.INPUT.H01   )
         STORCLAS (TEMP) MGMTCLAS (        ) DATACLAS (        )
         VOL SER NOS= SCR101
 IEF142I PJG#PARM $UNP - STEP WAS EXECUTED - COND CODE 0000
 IEF285I   GG$PJG.PJG#PARM.JOB05955.D0000102.?          SYSOUT
 IEF285I   WYL.GG.ORV.SOURCE                            KEPT
 IEF285I   VOL SER NOS= SYSB02.
 IGD106I SYS04082.T094333.RA000.PJG#PARM.INPUT.H01    PASSED,    DDNAME=SYSUT2
 *********************************************************************************
 *   PJG#PARM/$UNP    /                    Return Code      Zero                 *
 *   Region used      380K (108K user + 272K system)                             *
 *   Extended region  9468K (4K user + 9464K system)                             *
 *                                                                               *
 *   Paging              In      Out                                             *
 *   Private <-> Aux      0        0       CPU time (TCB)   00:00:00.04          *
 *   Private <-> Exp      0        0       CPU time (SRB)   00:00:00.00          *
 *   VIO                  0        0       Elapsed time    920:44:18.60          *
 *   Common               0      ---                                             *
 *                                                                               *
 *                                                                               *
 *   CPU Usage          0.75         $0.46  Standard Processing Unit Equivalent  *
 *                                   $0.46  Total Step execution charge          *
 *                                                                               *
 *    I/O count  DDname   Type Addr           I/O count  DDname   Type Addr      *
 *            0  SYSPRINT      ----                   2  SYSUT1   Disk 0402      *
 *            8  SYSUT2   Disk 04E3                                              *
 *********************************************************************************
 IEF373I STEP/$UNP    /START 2004082.0943
 IEF374I STEP/$UNP    /STOP  2004082.0943 CPU    0MIN 00.04SEC SRB    0MIN 00.00SEC VIRT   108K SYS   272K EXT       4K SYS    9464K
 IEF236I ALLOC. FOR PJG#PARM ASM
 IEF237I 0402 ALLOCATED TO SYSLIB
 IEF237I 0402 ALLOCATED TO
 IEF237I 04DC ALLOCATED TO
 IEF237I 04A0 ALLOCATED TO
 IGD101I SMS ALLOCATED TO DDNAME (SYSUT1  )
         DSN (SYS04082.T094333.RA000.PJG#PARM.SYSUT1.H01  )
         STORCLAS (TEMP) MGMTCLAS (        ) DATACLAS (        )
         VOL SER NOS= VIO
 IEF237I JES2 ALLOCATED TO SYSTERM
 IGD101I SMS ALLOCATED TO DDNAME (SYSPRINT)
         DSN (SYS04082.T094333.RA000.PJG#PARM.PRINT.H01   )
         STORCLAS (TEMP) MGMTCLAS (        ) DATACLAS (        )
         VOL SER NOS= SCR101
 IEF237I 04DC ALLOCATED TO SYSLIN
 IEF237I JES2 ALLOCATED TO SYSUDUMP
 IGD103I SMS ALLOCATED TO DDNAME SYSIN
 IEF142I PJG#PARM ASM - STEP WAS EXECUTED - COND CODE 0000
 IEF285I   SYS3.DUMMYMAC                                KEPT
 IEF285I   VOL SER NOS= SYSB02.
 IEF285I   WYL.GG.ORV.MACLIB                            KEPT
 IEF285I   VOL SER NOS= SYSB02.
 IEF285I   WYL.GG.SYS.MACLIB                            KEPT
 IEF285I   VOL SER NOS= SYSB05.
 IEF285I   SYS1.MACLIB                                  KEPT
 IEF285I   VOL SER NOS= MVSBR9.
 IGD105I SYS04082.T094333.RA000.PJG#PARM.SYSUT1.H01   DELETED,   DDNAME=SYSUT1
 IEF285I   GG$PJG.PJG#PARM.JOB05955.D0000103.?          SYSOUT
 IGD106I SYS04082.T094333.RA000.PJG#PARM.PRINT.H01    PASSED,    DDNAME=SYSPRINT
 IEF285I   WYL.GG.PJG.OBJ                               KEPT
 IEF285I   VOL SER NOS= SYSB05.
 IEF285I   GG$PJG.PJG#PARM.JOB05955.D0000104.?          SYSOUT
 IGD105I SYS04082.T094333.RA000.PJG#PARM.INPUT.H01    DELETED,   DDNAME=SYSIN
 *********************************************************************************
 *   PJG#PARM/ASM     /                    Return Code      Zero                 *
 *   Region used      8484K (8192K user + 292K system)                           *
 *   Extended region  9952K (412K user + 9540K system)                           *
 *                                                                               *
 *   Paging              In      Out                                             *
 *   Private <-> Aux      0        0       CPU time (TCB)   00:00:01.42          *
 *   Private <-> Exp      0        0       CPU time (SRB)   00:00:00.04          *
 *   VIO                  0        0       Elapsed time    920:44:18.37          *
 *   Common               0      ---                                             *
 *                                                                               *
 *                                                                               *
 *   CPU Usage         26.62        $16.50  Standard Processing Unit Equivalent  *
 *                                  $16.50  Total Step execution charge          *
 *                                                                               *
 *    I/O count  DDname   Type Addr           I/O count  DDname   Type Addr      *
 *           74  SYSLIB   Disk 0402                   0  SYSLIB   Disk 0402      *
 *          138  SYSLIB   Disk 04DC                  10  SYSLIB   Disk 04A0      *
 *            0  SYSUT1   VIO  ----                   0  SYSTERM       ----      *
 *           69  SYSPRINT Disk 04E3                   2  SYSLIN   Disk 04DC      *
 *            0  SYSUDUMP      ----                   9  SYSIN    Disk 04E3      *
 *********************************************************************************
 IEF373I STEP/ASM     /START 2004082.0943
 IEF374I STEP/ASM     /STOP  2004082.0943 CPU    0MIN 01.42SEC SRB    0MIN 00.04SEC VIRT  8192K SYS   292K EXT     412K SYS    9540K
 IEF236I ALLOC. FOR PJG#PARM $EDIT
 IEF237I 0402 ALLOCATED TO STEPLIB
 IGD103I SMS ALLOCATED TO DDNAME ASMOUT
 IEF237I JES2 ALLOCATED TO SYSPRINT
 IEF237I JES2 ALLOCATED TO SYSUDUMP
 IEF142I PJG#PARM $EDIT - STEP WAS EXECUTED - COND CODE 0000
 IEF285I   WYL.GG.SYS.LINKLIB                           KEPT
 IEF285I   VOL SER NOS= SYSB02.
 IGD105I SYS04082.T094333.RA000.PJG#PARM.PRINT.H01    DELETED,   DDNAME=ASMOUT
 IEF285I   GG$PJG.PJG#PARM.JOB05955.D0000105.?          SYSOUT
 IEF285I   GG$PJG.PJG#PARM.JOB05955.D0000106.?          SYSOUT
 *********************************************************************************
 *   PJG#PARM/$EDIT   /                    Return Code      Zero                 *
 *   Region used      388K (116K user + 272K system)                             *
 *   Extended region  9468K (4K user + 9464K system)                             *
 *                                                                               *
 *   Paging              In      Out                                             *
 *   Private <-> Aux      0        0       CPU time (TCB)   00:00:00.26          *
 *   Private <-> Exp      0        0       CPU time (SRB)   00:00:00.01          *
 *   VIO                  0        0       Elapsed time    920:44:15.17          *
 *   Common               0      ---                                             *
 *                                                                               *
 *                                                                               *
 *   CPU Usage          4.87         $3.01  Standard Processing Unit Equivalent  *
 *                                   $3.01  Total Step execution charge          *
 *                                                                               *
 *    I/O count  DDname   Type Addr           I/O count  DDname   Type Addr      *
 *            2  STEPLIB  Disk 0402                  70  ASMOUT   Disk 04E3      *
 *            0  SYSPRINT      ----                   0  SYSUDUMP      ----      *
 *********************************************************************************
 IEF373I STEP/$EDIT   /START 2004082.0943
 IEF374I STEP/$EDIT   /STOP  2004082.0943 CPU    0MIN 00.26SEC SRB    0MIN 00.01SEC VIRT   116K SYS   272K EXT       4K SYS    9464K
 *********************************************************************************
 *                                                                               *
 *                      S t a n f o r d   U n i v e r s i t y                    *
 *                                                                               *
 *                              *** Job Summary ***                              *
 *                                                                               *
 *   System Id      SYSB                   Input time     09:38:25  Mar 22, 2004 *
 *                                                                               *
 *   System Release SP6.1.0                Start time     09:43:33  Mar 22, 2004 *
 *                                                                               *
 *   Job name       PJG#PARM               Stop  time     00:00:00  Mar 22, 2004 *
 *                                                                               *
 *   Account        PJG$GG                 Elapsed time  920:44:19.74            *
 *                                                                               *
 *   User Name      Module: PARMS          CPU time       00:00:01.74            *
 *                                                                               *
 *   Job class      E                      SRB Time       00:00:00.05            *
 *                                                                               *
 *********************************************************************************
 IEF375I  JOB/PJG#PARM/START 2004082.0943
 IEF376I  JOB/PJG#PARM/STOP  2004082.0943 CPU    0MIN 01.74SEC SRB    0MIN 00.05SEC
1Data set successfully converted from EDIT to FB format
1Assembler Done PARMS No Statements Flagged
1         High Level Assembler Option Summary                   (PTF UQ57391)                                               Page    1
-                                                                                            HLASM R4.0  2004/03/22 09.43
0  No Overriding ASMAOPT Parameters
   Overriding Parameters-  SYSPARM(PARMS),TERM,LANG(EN),OBJ,LC(32500),XREF(SHORT),NODECK,NORLD,NODX,NOUS
   No Process Statements


   Options for this Assembly
0  NOADATA
     ALIGN
   NOASA
     BATCH
     CODEPAGE(047C)
   NOCOMPAT
   NODBCS
 3 NODECK
 3 NODXREF
     ESD
   NOEXIT
     FLAG(0,ALIGN,CONT,NOIMPLEN,NOPAGE0,PUSH,RECORD,NOSUBSTR,USING0)
   NOFOLD
   NOGOFF
   NOINFO
 3   LANGUAGE(EN)
   NOLIBMAC
 3   LINECOUNT(32500)
     LIST(121)
     MXREF(SOURCE)
 3   OBJECT
     OPTABLE(UNI,NOLIST)
   NOPCONTROL
   NOPESTOP
   NOPROFILE
   NORA2
   NORENT
 3 NORLD
     RXREF
     SIZE(MAX)
 3   SYSPARM(PARMS)
 3   TERM(WIDE)
   NOTEST
     THREAD
   NOTRANSLATE
 3 NOUSING
 3   XREF(SHORT)

   No Overriding DD Names

1PARMS    External Symbol Dictionary                                                                                        Page    2
-Symbol   Type   Id     Address  Length     LD ID  Flags Alias-of                            HLASM R4.0  2004/03/22 09.43
0PARMS     SD 00000001 00000000 0000091E             06
 PARM00    LD          00000000           00000001
 PARMINIT  LD          00000022           00000001
 PARMDO    LD          000005B6           00000001
 MEMGET    ER 00000002
 PRMIOPEN  ER 00000003
 MEMFREE   ER 00000004
 PRMIORD   ER 00000005
 PRMIOEND  ER 00000006
 DTBDTB    ER 00000007
 STBSTB    ER 00000008

1PARMS    MP-ORVYL initialization parameter services                                                                        Page    3
0Loc    Object Code    Addr1 Addr2  Stmt Lv Lineno    Source Statement                    (Asmedit 3.3)  HLASM R4.0  2004/03/22 09.43
+___    ______ ____    _____ _____  ____ __ ______    ______ _________
0                                      2       2.              COPY  HEADER
                                       3             =*********************************************************************
                                       4             =*                                                                   *
                                       5             =*                                                                   *
                                       6             =*                          M P - O R V Y L                          *
                                       7             =*                                                                   *
                                       8             =*       ORVYL - Release 5.0 - Class I - Stanford Proprietary        *
                                       9             =*                                                                   *
                                      10             =*                                                                   *
                                      11             =*********************************************************************
-
-                                     13             =         SPLEVEL SET=2
                                      16             =         HIBAL ASSOC=YES
-
                                     998             =*
                                     999             =* REGISTER CONVENTIONS (USE ONLY THE SYMBOLS)
                                    1000             =*
                                    1001             =*                     CLASS  USAGE
                                    1002             =*                     -----  -----------------------------
                                    1003             =RVR      REG   0        1    RETURN VALUE REGISTER
                                    1015             =RS       REG   1        *    SCRATCH
                                    1027             =RA       REG   2        *    SCRATCH
                                    1039             =RB       REG   3        *    SCRATCH
                                    1051             =RJ       REG   4        *    SCRATCH
                                    1063             =RK       REG   5        *    SCRATCH
                                    1075             =RX       REG   6        *    SCRATCH
                                    1087             =RY       REG   7        *    SCRATCH
                                    1099             =RM       REG   8        *    SCRATCH
                                    1111             =RN       REG   9        *    SCRATCH (In Guest)
                                    1123             =RTCBR    REG   9        -    POINTER TO THE RTCB (In Host)
                                    1135             =BR       REG   10       -    FIRST BASE REGISTER
                                    1147             =BRR      REG   11       -    SECOND BASE REGISTER
                                    1159             =WAR      REG   12       -    WORK AREA POINTER
                                    1171             =SPR      REG   13       -    STACK TOP POINTER
                                    1183             =RAR      REG   14       1    RETURN ADDRESS REGISTER
                                    1195             =EPAR     REG   15       1    ENTRY POINT ADDRESS
                                    1207             =*
                                    1208             =*      CLASS   MEANING
                                    1209             =*      -----   --------------------------------------------------
                                    1210             =*        *     Register may be freely used for scratch
                                    1211             =*        -     Register may not be used
                                    1212             =*        1     Available but may change on subroutine calls
                                    1213             =*
1PARMS    MP-ORVYL initialization parameter services                                                                        Page    4
0D-Loc  Object Code    Addr1 Addr2  Stmt Lv Lineno    Source Statement           (Hibal 5, Asmedit 3.3)  HLASM R4.0  2004/03/22 09.43
+_____  ______ ____    _____ _____  ____ __ ______    ______ _________
0000000                00000 0091E  1215       3.     PARMS    MODULE ,
                                    1225             +*
                                    1226    02-IDENT +         ENTRY PARM00
                                    1227             +
 000000 14D7C1D9D4F0F06B            1228    02-IDENT +PARM00   DC    AL1(20),C'PARM00,22MAR04,09:43'
                                    1229             +*
1PARMS    (PARM00) (09:43) (22MAR04) MP-ORVYL initialization parameter services                                             Page    5
0Loc    Object Code    Addr1 Addr2  Stmt Lv Lineno    Source Statement           (Hibal 5, Asmedit 3.3)  HLASM R4.0  2004/03/22 09.43
+___    ______ ____    _____ _____  ____ __ ______    ______ _________
0                                   1232       5.              COPY  CBAT
                                    1233             =*******************************************************************
                                    1234             =*                                                                 *
                                    1235             =*      CBAT --  Table of addresses of control blocks for various  *
                                    1236             =*               services and functions.  This is pointed at by    *
                                    1237             =*               every RTCB, so services can find their roots.     *
                                    1238             =*                                                                 *
                                    1239             =*******************************************************************
0000000                00000 00090  1241             =CBAT     RECORD    BEGIN
 000000 C3C2C1E3                    1249  1          =           DC    CL4'CBAT'     Control block id
                                    1250  1          =*
                                    1251  1          =* Task Services info
                                    1252  1          =*
 000004                             1253  1          =CBATTASK   DS    A             Address of the task services CT
 000008                             1254  1          =           DS    4A            available
                                    1255  1          =*
                                    1256  1          =* Lock managment info
                                    1257  1          =*
 000018                             1258  1          =CBATLOCK   DS    A             Address of the lock manager CT
 00001C                             1259  1          =           DS    4A            available
                                    1260  1          =*
                                    1261  1          =* Message channel management info
                                    1262  1          =*
 00002C                             1263  1          =CBATMSGS   DS    A             Address of message manager CT
 000030                             1264  1          =           DS    4A            available
                                    1265  1          =*
                                    1266  1          =* Memory management info
                                    1267  1          =*
 000040                             1268  1          =CBATMEM    DS    A             Address of memory CT
 000044                             1269  1          =           DS    4A            available
                                    1270  1          =*
                                    1271  1          =* I/O service management info
                                    1272  1          =*
 000054                             1273  1          =CBATIOCT   DS    A             Address of I/O service CT
 000058                             1274  1          =           DS    4A            available
                                    1275  1          =*
                                    1276  1          =* Parameter initialization parameters
                                    1277  1          =*
 000068                             1278  1          =CBATPARM   DS    A             Address of parameter CT
 00006C                             1279  1          =           DS    4A            available
                                    1280  1          =*
                                    1281  1          =* Termination and Console command info
                                    1282  1          =*
 00007C                             1283  1          =CBATTMCB   DS    A             Address of the termination CT
 000080                             1284  1          =           DS    4A            available
 000090                00090 00090  1285             =         END   ,
1PARMS    (PARM00) (09:43) (22MAR04) MP-ORVYL initialization parameter services                                             Page    6
0Loc    Object Code    Addr1 Addr2  Stmt Lv Lineno    Source Statement           (Hibal 5, Asmedit 3.3)  HLASM R4.0  2004/03/22 09.43
+___    ______ ____    _____ _____  ____ __ ______    ______ _________
0                                   1295       7.              COPY  RTCB
                                    1296             =*******************************************************************
                                    1297             =*                                                                 *
                                    1298             =*      RTCB --  Information about each functional task.           *
                                    1299             =*                                                                 *
                                    1300             =*******************************************************************
0000000                00000 000B0  1302             =RTCB     RECORD    BEGIN
 000000 D9E3C3C2                    1310  1          =           DC    CL4'RTCB'     Control block id
                                    1311  1          =*
                                    1312  1          =* Global information
                                    1313  1          =*
 000004                             1314  1          =RTCBCBAT   DS    A             Address of the CBAT
                                    1315  1          =*
                                    1316  1          =* Task managment info
                                    1317  1          =*
 000008                             1318  1          =RTCBNEXT   DS    A             Chain of all RTCBs in the system
 00000C                             1319  1          =RTCBNAME   DS    CL8           Name of this task
 000014                             1320  1          =RTCBTCB    DS    A             Address of the MVS TCB for this task
 000018                             1321  1          =RTCBSTK    DS    A             Address of the stack for this task
 00001C                             1322  1          =RTCBMSV    DS    A             Address of MVS save area
 000020                             1323  1          =RTCBTECB   DS    A             End of task ECB
 000024                             1324  1          =RTCBESTA   DS    A             ESTAE data block
 000028                             1325  1          =           DS    2A            available
                                    1326  1          =*
                                    1327  1          =* Lock managment info
                                    1328  1          =*
 000030                             1329  1          =RTCBLKWT   DS    A             Address of the lock we're waiting for
 000034                             1330  1          =           DS    4A            available
                                    1331  1          =*
                                    1332  1          =* Message channel management info
                                    1333  1          =*
 000044                             1334  1          =RTCBMCBP   DS    A             Chain of xCCBs owned by this task
 000048                             1335  1          =           DS    4A            available
                                    1336  1          =*
                                    1337  1          =* Timer management info
                                    1338  1          =*
 000058                             1339  1          =RTCBTIMR   DS    D             Current logical timer value
 000060                             1340  1          =RTCBCPU    DS    D             Total CPU time for the task
 000068                             1341  1          =RTCBCPT    DS    D             Current cpu timer value
 000070                             1342  1          =           DS    4A            available
                                    1343  1          =*
                                    1344  1          =* Trace managment info
                                    1345  1          =*
 000080                             1346  1          =RTCBTRTC   DS    A             Loc of current (avail) trace entry
 000084                             1347  1          =RTCBTRTF   DS    A             Loc of start of trace table
 000088                             1348  1          =RTCBTRTL   DS    A             Loc of end of trace table (+1)
 00008C                             1349  1          =           DS    4A            available
                                    1350  1          =*
                                    1351  1          =* Memory management info
                                    1352  1          =*
 00009C                             1353  1          =RTCBMEM    DS    A             Addr of memory CT
 0000A0                             1354  1          =           DS    2A            available
                                    1355  1          =*
                                    1356  1          =* Memory management info
                                    1357  1          =*
1PARMS    (PARM00) (09:43) (22MAR04) MP-ORVYL initialization parameter services                                             Page    7
0Loc    Object Code    Addr1 Addr2  Stmt Lv Lineno    Source Statement           (Hibal 5, Asmedit 3.3)  HLASM R4.0  2004/03/22 09.43
+___    ______ ____    _____ _____  ____ __ ______    ______ _________
00000A8                             1358  1          =RTCBIOT    DS    A             Addr of I/O Services table
                                    1359  1          =*
                                    1360  1          =* Hiperspace management info
                                    1361  1          =*
 0000AC                             1362  1          =RTCBBUFR   DS    A             MVPG and HSPSERV Buffer for this TCB
 0000B0                000B0 000B0  1363             =         END   ,
1PARMS    (PARM00) (09:43) (22MAR04) MP-ORVYL initialization parameter services                                             Page    8
0Loc    Object Code    Addr1 Addr2  Stmt Lv Lineno    Source Statement           (Hibal 5, Asmedit 3.3)  HLASM R4.0  2004/03/22 09.43
+___    ______ ____    _____ _____  ____ __ ______    ______ _________
0                                   1373       9.              COPY  CONVPARM
 000000                00000 00009  1374             =@DTB     RECORD BEGIN                  Decimal to binary conversion
 000000                             1382  1          =@DTBLOC    DS    A                       String location
 000004                             1383  1          =@DTBLEN    DS    A                       String length
                                    1384  1          =@DTBMXLN   EQU   10,10,C'N'              10 digits (not including sign)
 000008 00                          1385  1          =@DTBFLG    FLAG  ,
 @DTBFLG.@DTBVALID 80 ONES          1389  1          =           FLAG  @DTBVALID               Is string valid?
 000009                             1394  1          =           DS    0SL2(@DTBLOC+4-@DTBLEN,@DTBLEN-@DTBLOC+4)
 000009                00009 00009  1395             =         END   ,
0000000                00000 00009  1405             =@XTB     RECORD BEGIN                  Hex to binary conversion
 000000                             1413  1          =@XTBLOC    DS    A                       Location of string
 000004                             1414  1          =@XTBLEN    DS    A                       Length of string
                                    1415  1          =@XTBMXLN   EQU   8,8,C'N'
 000008 00                          1416  1          =@XTBFLG    FLAG  ,
 @XTBFLG.@XTBVALID 80 ONES          1420  1          =           FLAG  @XTBVALID               Valid string specified
 000009                             1425  1          =           DS    0SL2(@XTBLOC+4-@XTBLEN,@XTBLEN-@XTBLOC+4)
 000009                00009 00009  1426             =         END   ,
0000000                00000 0000D  1436             =@STB     RECORD BEGIN                  Scaled to binary conversion
 000000                             1444  1          =@STBLOC    DS    A                       String location
 000004                             1445  1          =@STBLEN    DS    A                       | and length
                                    1446  1          =@STBMXLN   EQU   10+1,10+1,C'N'          10 digits, 1 point
                                    1447  1          =*                                      (not including sign)
 000008                             1448  1          =@STBSCAL   DS    A                       Scale factor
 00000C 00                          1449  1          =@STBFLG    FLAG  ,
 @STBFLG.@STBVALID 80 ONES          1453  1          =           FLAG  @STBVALID               Is string valid?
 00000D                             1458  1          =           DS    0SL2(@STBLOC+4-@STBLEN,@STBLEN-@STBLOC+4)
 00000D                0000D 0000D  1459             =         END   ,
0000000                00000 0000D  1469             =@BTD     RECORD BEGIN                  Binary to decimal conversion
 000000                             1477  1          =@BTDVAL    DS    F                       32 bit integer value
 000004                             1478  1          =@BTDLOC    DS    A                       Result location
 000008                             1479  1          =@BTDLEN    DS    A                       Result length
 00000C 00                          1480  1          =@BTDFLG    FLAG  ,
 @BTDFLG.@BTDCOMM  80 ONES          1484  1          =           FLAG  @BTDCOMM                Commas?
 @BTDFLG.@BTDUNSI  40 ONES          1489  1          =           FLAG  @BTDUNSI                Unsigned conversion?
 00000D                             1494  1          =           DS    0SL2(@BTDLOC+4-@BTDLEN,@BTDLEN-@BTDLOC+4)
 00000D                0000D 0000D  1495             =         END   ,
0000000                00000 0000C  1505             =@BTX     RECORD BEGIN                  Binary to hex converson
 000000                             1513  1          =@BTXVAL    DS    A                       Value to be converted
 000004                             1514  1          =@BTXLOC    DS    A                       Return area
 000008                             1515  1          =@BTXLEN    DS    A      Maximum length of result    (Positive)
                                    1516  1          =*                     Number of leading blanks    (Negative)
                                    1517  1          =*                     Return actual string length (Zero)
 00000C                             1518  1          =           DS    0SL2(@BTXLOC+4-@BTXLEN,@BTXLEN-@BTXLOC+4)
 00000C                0000C 0000C  1519             =         END   ,
0000000                00000 00010  1529             =@BTS     RECORD BEGIN                  Binary to scaled conversion
 000000                             1537  1          =@BTSLOC    DS    A                       Output loc
 000004                             1538  1          =@BTSLEN    DS    A                       Output length
 000008                             1539  1          =@BTSVAL    DS    A                       Scaled integer to convert
 00000C                             1540  1          =@BTSSCAL   DS    A                       Scale factor (# of dec digits)
 000010                             1541  1          =           DS    0SL2(@BTSLOC+4-@BTSLEN,@BTSLEN-@BTSLOC+4)
 000010                00010 00010  1542             =         END   ,
1PARMS    (PARM00) (09:43) (22MAR04) MP-ORVYL initialization parameter services                                             Page    9
0Loc    Object Code    Addr1 Addr2  Stmt Lv Lineno    Source Statement           (Hibal 5, Asmedit 3.3)  HLASM R4.0  2004/03/22 09.43
+___    ______ ____    _____ _____  ____ __ ______    ______ _________
0                                   1552      11.              COPY  PARMPARM
                                    1553             =*********************************************************************
                                    1554             =*                                                                   *
                                    1555             =*          Parameters to obtain initialization parameters           *
                                    1556             =*                                                                   *
                                    1557             =*********************************************************************
0000000                00000 00010  1559             =@PARMDO  RECORD BEGIN
 000000                             1567  1          =@PARILOC   DS    A                       Input location
 000004                             1568  1          =@PARILEN   DS    A                       | length
 000008                             1569  1          =@PAROLOC   DS    A                       Output location
 00000C                             1570  1          =@PAROLEN   DS    A                       | length
 000010                00010 00010  1571             =         END   ,
0000000                00000 00004  1581             =PARMIN   RECORD BEGIN
 000000 00                          1589  1          =PARMTYPE   FLAG  ,
 PARMTYPE.PARMFSTR 00 EQ            1593  1          =           FLAG  (PARMFSTR,0,EQ)         Return a string
 PARMTYPE.PARMFINT 04 EQ            1603  1          =           FLAG  (PARMFINT,4,EQ)         Return an integer
 PARMTYPE.PARMFYN  08 EQ            1613  1          =           FLAG  (PARMFYN,8,EQ)          Return Yea or Nay
 PARMTYPE.PARMFFLT 0C EQ            1623  1          =           FLAG  (PARMFFLT,12,EQ)        Return a floating point
 000001                             1633  1          =           DS    3X                      - Available -
 000004                             1634  1          =PARMKEYS   DS    0A                      Start of 8 byte keys
 000004                00004 00004  1635             =         END   ,
1PARMS    (PARM00) (09:43) (22MAR04) MP-ORVYL initialization parameter services                                             Page   10
0Loc    Object Code    Addr1 Addr2  Stmt Lv Lineno    Source Statement           (Hibal 5, Asmedit 3.3)  HLASM R4.0  2004/03/22 09.43
+___    ______ ____    _____ _____  ____ __ ______    ______ _________
0000000                00000 00008  1645      13.     @PRMIOPN RECORD BEGIN
 000000                             1653  1   14.     @PRMIONM   DS    CL8                     Name of parm file to open
 000008                00008 00008  1654      15.              END   ,
1PARMS    (PARM00) (09:43) (22MAR04) MP-ORVYL initialization parameter services                                             Page   11
0Loc    Object Code    Addr1 Addr2  Stmt Lv Lineno    Source Statement           (Hibal 5, Asmedit 3.3)  HLASM R4.0  2004/03/22 09.43
+___    ______ ____    _____ _____  ____ __ ______    ______ _________
0                                   1664      17.              COPY  MEMPARM
                                    1665             =*******************************************************************
                                    1666             =*                                                                 *
                                    1667             =*            Memory service initialization parameters             *
                                    1668             =*                                                                 *
                                    1669             =*******************************************************************
0000000                00000 00002  1671             =@MEMINIT RECORD BEGIN                           MEMORY INIT RECORD
 000000 00                          1679  1          =@MIFLAG    FLAG  ,                                Specification flags
 @MIFLAG.MIGLOBAL  80 ONES          1683  1          =           FLAG  MIGLOBAL                         | INIT GLOBAL POOL
                                    1688  1          =*-----------------------------------------------
                                    1689  1          =*  From here on need not be specified on call
                                    1690  1          =*-----------------------------------------------
 000001 00                          1691  1          =@MIWFLAG   FLAG  ,                                Work flags
                                    1695  1          =*   Pool type is determined by the bit values in the pool index
                                    1696  1          =*  offset
 @MIWFLAG.MIWPAGE  04 ONES          1697  1          =           FLAG  (MIWPAGE,X'04')                  | page boundary
 @MIWFLAG.MIWFIX   08 ONES          1706  1          =           FLAG  (MIWFIX,X'08')                   | fixed memory
 @MIWFLAG.MIWA16M  10 ONES          1715  1          =           FLAG  (MIWA16M,X'10')                  | above 16M
 000002                00002 00002  1724             =         END   ,                                OF MEMORY INIT RECORD
-
                                    1734             =*******************************************************************
                                    1735             =*                                                                 *
                                    1736             =*              Memory service allocation parameters               *
                                    1737             =*                                                                 *
                                    1738             =*******************************************************************
0000000                00000 0000A  1740             =@MEMGET  RECORD BEGIN
 000000                             1748  1          =@MGLL      DS    D                                Location/Length
 000008                00008 00000  1749  1          =           ORG   @MGLL
 000000                             1750  1          =@MGLOC     DS    A                                Location (return)
 000004                             1751  1          =@MGLEN     DS    A                                Length of request
 000008                00008 00008  1752  1          =           ORG   ,
 000008 0000                        1753  1          =@MGTYPE    DC    H'0'                             Request type - offset
                                    1754  1          =*   TYPES A16M, FIX, & PAG form an index into a control table for
                                    1755  1          =* a specified pool.  ie. a pool above the 16M line, unfixed and
                                    1756  1          =* double word boundary has an @MGTYPE value of X'10' = 16.
 00000A                0000A 00009  1757  1          =           ORG   @MGTYPE+1
 000009 00                          1758  1          =@MGFTYPE   FLAG  ,
 @MGFTYPE.MGA16M   10 ONES          1762  1          =           FLAG  (MGA16M,X'10')                   Above 16M line
 @MGFTYPE.MGFIX    08 ONES          1771  1          =           FLAG  (MGFIX,X'08')                    Fixed pool
 @MGFTYPE.MGPAG    04 ONES          1780  1          =           FLAG  (MGPAG,X'04')                    Page boundary
 @MGFTYPE.MGGLOB   02 ONES          1789  1          =           FLAG  (MGGLOB,X'02')                   Global pool
 @MGFTYPE.MGBEST   01 ONES          1798  1          =           FLAG  (MGBEST,X'01')                   Best fit
 00000A                0000A 0000A  1807  1          =           ORG   ,
 00000A                0000A 0000A  1808             =         END   ,
1PARMS    (PARM00) (09:43) (22MAR04) MP-ORVYL initialization parameter services                                             Page   12
0Loc    Object Code    Addr1 Addr2  Stmt Lv Lineno    Source Statement           (Hibal 5, Asmedit 3.3)  HLASM R4.0  2004/03/22 09.43
+___    ______ ____    _____ _____  ____ __ ______    ______ _________
0                                   1818             =*******************************************************************
                                    1819             =*                                                                 *
                                    1820             =*               Memory service release parameters                 *
                                    1821             =*                                                                 *
                                    1822             =*******************************************************************
0000000                00000 0000A  1824             =@MEMFREE RECORD BEGIN                           PARAMETERS
 000000                             1832  1          =@MFLL      DS    D                                Location/Length
 000008                00008 00000  1833  1          =           ORG   @MFLL
 000000                             1834  1          =@MFLOC     DS    A                                Location
 000004                             1835  1          =@MFLEN     DS    A                                Length
 000008                00008 00008  1836  1          =           ORG   ,
 000008 0000                        1837  1          =@MFTYPE    DC    H'0'                             Request type - offset
 00000A                0000A 00009  1838  1          =           ORG   @MFTYPE+1
 000009 00                          1839  1          =@MFFTYPE   FLAG  ,
                                    1843  1          =*   TYPES A16M, FIX, & PAG form an index into a control table for
                                    1844  1          =* a specified pool.  ie. a pool above the 16M line, unfixed and
                                    1845  1          =* double word boundary has an @MGTYPE value of X'10' = 16.
 @MFFTYPE.MFA16M   10 ONES          1846  1          =           FLAG  (MFA16M,X'10')                   Above 16M line
 @MFFTYPE.MFFIX    08 ONES          1855  1          =           FLAG  (MFFIX,X'08')                    Fixed pool
 @MFFTYPE.MFPAG    04 ONES          1864  1          =           FLAG  (MFPAG,X'04')                    Page boundary
 @MFFTYPE.MFGLOB   02 ONES          1873  1          =           FLAG  (MFGLOB,X'02')                   Global pool
 00000A                0000A 0000A  1882  1          =           ORG   ,
 00000A                0000A 0000A  1883             =         END   ,
1PARMS    (PARM00) (09:43) (22MAR04) MP-ORVYL initialization parameter services                                             Page   13
0Loc    Object Code    Addr1 Addr2  Stmt Lv Lineno    Source Statement           (Hibal 5, Asmedit 3.3)  HLASM R4.0  2004/03/22 09.43
+___    ______ ____    _____ _____  ____ __ ______    ______ _________
0                                   1893      19.              COPY  LSTMAC
                                    1894             =         PRINT OFF
                                    1938             =*********************************************************************
                                    1939             =*   Add elements to a list
                                    1940             =*
                                    1941             =*   Input
                                    1942             =*
                                    1943             =* &L  LADD     &HEAD,&FIRST,&FLAST,&FCOUNT,&WR=,&WR2=RAR,&WR3=EPAR
                                    1944             =*     &HEAD    is a pointer the head of the list (defop = LA)
                                    1945             =*     &FIRST   first element to be added to the list
                                    1946             =*     &FLAST   last element to be added (if not specified, assuming
                                    1947             =*              only one)
                                    1948             =*     &FCOUNT  count of elements being added (shouldn't be specified
                                    1949             =*              for only one add)
                                    1950             =*     &WR
                                    1951             =*     &WR2     Registers for scratch
                                    1952             =*     &WR3
                                    1953             =*
                                    1954             =*   Output
                                    1955             =*
                                    1956             =*     No parameter registers are modified
                                    1957             =*
                                    1958             =*********************************************************************
                                    1959             =         PRINT OFF
-
0                                   2054             =*********************************************************************
                                    2055             =*   Remove elements from a list
                                    2056             =*
                                    2057             =*   Input
                                    2058             =*
                                    2059             =* &L  LREM     &HEAD,&FFIRST,&FCOUNT,&LAST=,&WR=,&WR2=RAR,&WR3=EPAR
                                    2060             =*
                                    2061             =*     &HEAD    is a pointer the head of the list (defop = LA)
                                    2062             =*     &FFIRST  first element to be removed from the list (if not
                                    2063             =*              specified then take the first on the list)
                                    2064             =*     &LAST    last element removed (must be specified for multiple
                                    2065             =*              removes, must not be specified for single remove)
                                    2066             =*     &FCOUNT  count of elements to be removed (shouldn't be
                                    2067             =*              specified for single remove)
                                    2068             =*     &WR
                                    2069             =*     &WR2     Registers for scratch
                                    2070             =*     &WR3
                                    2071             =*
                                    2072             =*   Output
                                    2073             =*
                                    2074             =*     RVR      contains the address of the first element on the list
                                    2075             =*     No parameter registers are modified
                                    2076             =*
                                    2077             =*********************************************************************
                                    2078             =         PRINT OFF
-
1PARMS    (PARM00) (09:43) (22MAR04) MP-ORVYL initialization parameter services                                             Page   14
0Loc    Object Code    Addr1 Addr2  Stmt Lv Lineno    Source Statement           (Hibal 5, Asmedit 3.3)  HLASM R4.0  2004/03/22 09.43
+___    ______ ____    _____ _____  ____ __ ______    ______ _________
0                                   2220             =*********************************************************************
                                    2221             =*   Remove all elements from a list
                                    2222             =*
                                    2223             =*   Input
                                    2224             =*
                                    2225             =* &L  LREMALL  &HEAD,&COUNT=,&LAST=,&WR=
                                    2226             =*
                                    2227             =*     &HEAD    is a pointer the head of the list (defop = LA)
                                    2228             =*     &LAST    returns last element removed (must be specified)
                                    2229             =*     &COUNT   returns count of elements in list
                                    2230             =*
                                    2231             =*     &WR      Register for scratch
                                    2232             =*
                                    2233             =*   Output
                                    2234             =*
                                    2235             =*     RVR      contains the address of the first element on the list
                                    2236             =*
                                    2237             =*     No parameter registers are modified
                                    2238             =*
                                    2239             =*********************************************************************
                                    2240             =         PRINT OFF
1PARMS    (PARM00) (09:43) (22MAR04) MP-ORVYL initialization parameter services                                             Page   15
0Loc    Object Code    Addr1 Addr2  Stmt Lv Lineno    Source Statement           (Hibal 5, Asmedit 3.3)  HLASM R4.0  2004/03/22 09.43
+___    ______ ____    _____ _____  ____ __ ______    ______ _________
0                                   2327             =*********************************************************************
                                    2328             =*   Move an element to the end of a list
                                    2329             =*
                                    2330             =*   Input
                                    2331             =*
                                    2332             =* &L  LLRU     &HEAD,&ELEM,&WR=,&WR2=RAR,&WR3=EPAR
                                    2333             =*
                                    2334             =*     &HEAD    is a pointer the head of the list (defop = LA)
                                    2335             =*     &ELEM    element to be put at the end of the list
                                    2336             =*     &WR
                                    2337             =*     &WR2     Registers for scratch
                                    2338             =*     &WR3
                                    2339             =*
                                    2340             =*   Output
                                    2341             =*
                                    2342             =*     No parameter registers are modified
                                    2343             =*
                                    2344             =*********************************************************************
                                    2345             =         PRINT OFF
0                                   2433             =         MACRO
                                    2434             =         LSTCHK &HEAD
                                    2435             =         MEXIT
                                    2436             =         PSET  @LSTCHK,CLEAR=NO
                                    2437             =        $LA    EPAR,&HEAD
                                    2438             =         ST    EPAR,@LCHEAD
                                    2439             =         ACALL LSTCHK
                                    2440             =         MEND
1PARMS    (PARM00) (09:43) (22MAR04) MP-ORVYL initialization parameter services                                             Page   16
0Loc    Object Code    Addr1 Addr2  Stmt Lv Lineno    Source Statement           (Hibal 5, Asmedit 3.3)  HLASM R4.0  2004/03/22 09.43
+___    ______ ____    _____ _____  ____ __ ______    ______ _________
0000000                00000 0000C  2442      21.     LHEAD    RECORD BEGIN
                                    2450  1   22.                LHEAD PFX=LH
 000000                             2451  1 01-LHEAD +LHFP       DS    A                       Forward pointer
 000004                             2452  1 01-LHEAD +LHBP       DS    A                       Backward pointer
 000008                             2453  1 01-LHEAD +LHCNT      DS    A                       Number of elements in list
 00000C                0000C 0000C  2454      23.              END   ,
0000000                00000 00008  2464      25.     LELEM    RECORD BEGIN
                                    2472  1   26.                LELEM PFX=L
 000000                             2473  1 01-LELEM +LFP        DS    A                       Forward pointer
 000004                             2474  1 01-LELEM +LBP        DS    A                       Backward pointer
 000008                00008 00008  2475      27.              END   ,
1PARMS    (PARM00) (09:43) (22MAR04) Parms local work areas                                                                 Page   17
0Loc    Object Code    Addr1 Addr2  Stmt Lv Lineno    Source Statement           (Hibal 5, Asmedit 3.3)  HLASM R4.0  2004/03/22 09.43
+___    ______ ____    _____ _____  ____ __ ______    ______ _________
0000000                00000 00014  2485      29.     PARMHEAD RECORD BEGIN
                                    2493  1   30.     PHHEAD     LHEAD PFX=PH                  List of elements
                                    2494  1 01-LHEAD +PHHEAD     EQU   *,12,C'N'
 000000                             2495  1 01-LHEAD +PHFP       DS    A                       Forward pointer
 000004                             2496  1 01-LHEAD +PHBP       DS    A                       Backward pointer
 000008                             2497  1 01-LHEAD +PHCNT      DS    A                       Number of elements in list
 00000C                             2498  1   31.     PHPAR      DS    A                       Pointer to parent header
 000010 00                          2499  1   31.1    PHFLG      FLAG  ,
 PHFLG.PHFMULT     80 ONES          2503  1   31.2               FLAG  PHFMULT                 Allow multiple sensing of parm
 000014                             2508  1   31.3               DS    0A
 000014                00014 00014  2509      32.              END   ,
-
0000000                00000 00014  2519      34.     PARMBASE RECORD BEGIN
                                    2527  1   35.     PEELEM     LELEM PFX=PE
                                    2528  1 01-LELEM +PEELEM     EQU   *,8,C'N'
 000000                             2529  1 01-LELEM +PEFP       DS    A                       Forward pointer
 000004                             2530  1 01-LELEM +PEBP       DS    A                       Backward pointer
 000008                             2531  1   36.     PEKEY      DS    CL8                     Keyword for this element
 000010 00                          2532  1   37.     PEFLG      FLAG  ,
 PEFLG.PEFLEAF     80 ONES          2536  1   38.                FLAG  PEFLEAF                 This is a leaf record
 PEFLG.PEFSHOWN    40 ONES          2541  1   39.                FLAG  PEFSHOWN                This value already shown
 PEFLG.PEFMULT     20 ONES          2546  1   39.1               FLAG  PEFMULT                 Allow multiple sensing of parm
 000014                             2551  1   40.                DS    0A
 000014                00014 00014  2552      41.              END   ,
0000000                00000 00028  2562      43.     PARMHELEM RECORD BEGIN                 Header element
 000000                             2570  1   44.     PEHBASE    DS    XL(L'PARMBASE)
 000014                             2571  1   45.     PEHSUB     DS    XL(L'PARMHEAD)          Header for sub-keys
 000028                00028 00028  2572      46.              END   ,
0000000                00000 00018  2582      48.     PARMVELEM RECORD BEGIN                 Value element for leaf
 000000                             2590  1   49.     PEVBASE    DS    XL(L'PARMBASE)
 000014                             2591  1   50.     PEVAL      DS    A                       Pointer to value
 000018                00018 00018  2592      51.              END   ,
-000000                00000 00014  2602      53.     FILEELEM RECORD BEGIN
                                    2610  1   54.     FELINK     LELEM PFX=FE
                                    2611  1 01-LELEM +FELINK     EQU   *,8,C'N'
 000000                             2612  1 01-LELEM +FEFP       DS    A                       Forward pointer
 000004                             2613  1 01-LELEM +FEBP       DS    A                       Backward pointer
 000008                             2614  1   55.     FILNAME    DS    CL8                     Name of parm file to be opened
 000010                             2615  1   56.     FILHDR     DS    A                       Pointer to header to add to
 000014                00014 00014  2616      57.              END   ,
-
0000000                00000 00029  2626      59.     PARMCB   RECORD BEGIN
 000000 D7C1D9D4                    2634  1   60.     PARMID     DC    CL4'PARM'
 000004                             2635  1   61.     PARMROOT   DS    XL(L'PARMHEAD)
                                    2636  1   62.
                                    2637  1   63.     PARMFILS   LHEAD PFX=PFIL
1PARMS    (PARM00) (09:43) (22MAR04) Parms local work areas                                                                 Page   18
0Loc    Object Code    Addr1 Addr2  Stmt Lv Lineno    Source Statement           (Hibal 5, Asmedit 3.3)  HLASM R4.0  2004/03/22 09.43
+___    ______ ____    _____ _____  ____ __ ______    ______ _________
0                                   2638  1 01-LHEAD +PARMFILS   EQU   *,12,C'N'
 000018                             2639  1 01-LHEAD +PFILFP     DS    A                       Forward pointer
 00001C                             2640  1 01-LHEAD +PFILBP     DS    A                       Backward pointer
 000020                             2641  1 01-LHEAD +PFILCNT    DS    A                       Number of elements in list
                                    2642  1   64.
 000024                             2643  1   65.     PARMCHDR   DS    A                       Current header for keywords
 000028 00                          2644  1   66.     PARMSTAT   FLAG  ,
 PARMSTAT.PARMFINI 80 ONES          2648  1   67.                FLAG  PARMFINIT               Parms initialized
 PARMSTAT.PARMFCLO 40 ONES          2653  1   68.                FLAG  PARMFCLOS               Parms closed
 000029                00029 00029  2658      69.              END   ,
1PARMS    (PARM00) (09:43) (22MAR04) PARMS local calling parameters                                                         Page   19
0Loc    Object Code    Addr1 Addr2  Stmt Lv Lineno    Source Statement           (Hibal 5, Asmedit 3.3)  HLASM R4.0  2004/03/22 09.43
+___    ______ ____    _____ _____  ____ __ ______    ______ _________
0000000                00000 00004  2668      71.     @PARMREC RECORD BEGIN
 000000                             2676  1   72.     @RECLOC    DS    A                       VB record location
 000004                00004 00004  2677      73.              END   ,
0000000                00000 00011  2687      75.     @PARMPARS RECORD BEGIN
 000000                             2695  1   76.     @PARSLOC   DS    A                       Input location
 000004                             2696  1   77.     @PARSLEN   DS    A                       | length
 000008                             2697  1   78.     @PARSKEY   DS    CL8                     Return keyword
 000010 00                          2698  1   78.1    @PARSFLG   FLAG  ,
 @PARSFLG.@PARSFMU 80 ONES          2702  1   78.2               FLAG  @PARSFMUL               Can be multiply requested
 000011                00011 00011  2707      79.              END   ,
1PARMS    (PARM00) (09:43) (22MAR04) Initialize parameter services                                                          Page   20
0Loc    Object Code    Addr1 Addr2  Stmt Lv Lineno    Source Statement           (Hibal 5, Asmedit 3.3)  HLASM R4.0  2004/03/22 09.43
+___    ______ ____    _____ _____  ____ __ ______    ______ _________
0                                   2717      81.     *********************************************************************
                                    2718      82.     *  Initialization for this module                                   *
                                    2719      83.     *                                                                   *
                                    2720      84.     *   Input - none                                                    *
                                    2721      85.     *                                                                   *
                                    2722      86.     *  Output - none                                                    *
                                    2723      87.     *                                                                   *
                                    2724      88.     *********************************************************************
 000016                             2725      89.     PARMINIT PROC  ,SCOPE=GLOBAL
 000016 D7C1D9D4C9D5C9E3            2731             +
 00001E 0000/0000                   2732             +
 000022 900F D004/18AF       00004  2734             +
 USING  PARMINIT,R10
 000028 50D0 C000/18CD       00000  2749             +
 00002E 9680 C000      00000        2751             +
 000032 41D0 C048            00048  2752             +
                                    2753      90.     *
                                    2754      91.     *  Allocate and init global control block for init parms
                                    2755      92.     *
 USING  RTCB,R9                     2756      93.              WITH  (RTCB,RTCBR),BEGIN
 000036 5880 9004            00004  2770  1   94.                L     RM,RTCBCBAT
 USING  CBAT,R8                     2771  1   95.                WITH  (CBAT,RM)
 USING  @MEMGET-72,R13              2784  1   96.                MEMGET L'PARMCB,TYPE=GLOBAL   Parameter CT
 00003A D709 D048 D048 00000 00000  2803  1          +
 000040 4100 0029            00029  2810  1          +
 000044 5000 D04C            00004  2811  1          +
 000048 9213 D051      00009        2825  1          +
 00004C 58F0 A87E/0DEF       008A0  2828  1          +
 000052 5000 8068            00068  2830  1   97.                ST    RVR,CBATPARM            |
 000056 1880                        2831  1   98.                LR    RM,RVR                  |
 DROP   CBAT,R8                     2832      99.              END   ,
 DROP   RTCB,R9
 USING  PARMCB,R8                   2845     100.              WITH  (PARMCB,RM)
 000058                             2858     101.              CLEAR PARMCB
 000058 D728 8000 8000 00000 00000  2864             +
 00005E D203 8000 A882 00000 008A4  2865     102.              MVC   PARMID,=CL4'PARM'
 AUSING (PARMHEAD,PARMROOT)         2866     103.              WITH  (PARMHEAD,PARMROOT)
 000064 4120 8004            00000  2873     104.              LA    RA,PHHEAD               Init linked list of elements
 000068 5020 8004            00000  2874     105.              ST    RA,PHFP                 |
 00006C 5020 8008            00004  2875     106.              ST    RA,PHBP                 |
                                    2876     107.
 000070 4120 8018            00018  2877     108.              LA    RA,PARMFILS             Init list of parameter files
 000074 5020 8018            00018  2878     109.              ST    RA,PFILFP               |
 000078 5020 801C            0001C  2879     110.              ST    RA,PFILBP               |
                                    2880     111.     *
                                    2881     112.     *  Call to open and read parameters
                                    2882     113.     *
 00007C 58F0 A886/0DEF       008A8  2883     114.              ACALL PARMOPEN
 000082 981F C008            00008  2890     115.              PEND  ,
 DROP   PARMCB,R8
 DROP   PARMINIT,R10
 000086 9680 C000/0B0E 00000        2905             +
 DROP   @MEMGET-72,R13
1PARMS    (PARM00) (09:43) (22MAR04) Open and set-up parameter files                                                        Page   21
0Loc    Object Code    Addr1 Addr2  Stmt Lv Lineno    Source Statement           (Hibal 5, Asmedit 3.3)  HLASM R4.0  2004/03/22 09.43
+___    ______ ____    _____ _____  ____ __ ______    ______ _________
0                                   2915     117.     *********************************************************************
                                    2916     118.     *                                                                   *
                                    2917     119.     *********************************************************************
 00008C                             2918     120.     PARMOPEN PROC  ,
 00008C D7C1D9D4D6D7C5D5            2923             +
 000094 0000/0000                   2924             +
 000098 900F D004/18AF       00004  2926             +
 USING  PARMOPEN,R10
 00009E 50D0 C000/18CD       00000  2941             +
 0000A4 9680 C000      00000        2943             +
 0000A8 41D0 C048            00048  2944             +
 0000AC 5880 9004            00004  2945     121.              WITH  (RTCB,RTCBR),'L RM,RTCBCBAT'
 USING  RTCB,R9
 DROP   RTCB,R9
 0000B0 5880 8068            00068  2969     122.              WITH  (CBAT,RM),'L RM,CBATPARM'
 USING  CBAT,R8
 DROP   CBAT,R8
 USING  PARMCB,R8                   2993     123.              WITH  (PARMCB,RM)
 AUSING (PARMHEAD,PARMROOT)         3006     124.              WITH  (PARMHEAD,PARMROOT)
                                    3013     125.     *
                                    3014     126.     *  Put nul file element on list of init files
                                    3015     127.     *
 USING  @MEMGET-72,R13              3016     128.              MEMGET L'FILEELEM,TYPE=GLOBAL
 0000B4 D709 D048 D048 00000 00000  3035             +
 0000BA 4100 0014            00014  3042             +
 0000BE 5000 D04C            00004  3043             +
 0000C2 9213 D051      00009        3057             +
 0000C6 58F0 A808/0DEF       008A0  3060             +
 0000CC 1820                        3062     129.              LR    RA,RVR                  No-name file element on list
 USING  FILEELEM,R2                 3063     130.              WITH  (FILEELEM,RA)           |
 0000CE 4130 8004            00000  3076     131.              LA    RB,PARMHEAD             |
 0000D2 5030 2010            00010  3077     132.              ST    RB,FILHDR               |
 0000D6 4110 8018            00018  3078     133.              LADD  PARMFILS,LA:FILEELEM,WR=RS
 0000DA 41E0 0001            00001  3109             +
 0000DE 5EE0 1008            00008  3110             +
 0000E2 50E0 1008            00008  3111             +
 0000E6 58E0 1004            00004  3118             +
 0000EA 5020 1004            00004  3124             +
 0000EE 5010 2000            00000  3125             +
 0000F2 50E0 2004            00004  3131             +
 0000F6 5020 E000            00000  3132             +
                                    3134     134.
 0000FA                             3135     135.              WHILE (PFILCNT,NZ),BEGIN      Open and read all parm files
 0000FA D603 8020 8020 00020 00020  3147             +
 000100 4780 A10C            001A4  3148             +
 000104 41E0 8018/1B00       00018  3153  1  136.                LREM  PARMFILS,WR=RS
 00010A 58F0 E008            00008  3185  2          +
 00010E 4110 0001/1BF1       00001  3193  2          +
 000114 4740 A096            0012E  3204  2          +
 000118 50F0 E008            00008  3210  2          +
 00011C 58F0 E000/180F       00000  3217  2          +
 000122 58F0 F000            00000  3219  2          +
 000126 50E0 F004            00004  3220  2          +
 00012A 50F0 E000            00000  3221  1          +
 00012E 1820                        3226  1  137.                LR    RA,RVR
                                    3227  1  138.                WITH  (FILEELEM,RA),BEGIN     FILEELEM addr
1PARMS    (PARM00) (09:43) (22MAR04) Open and set-up parameter files                                                        Page   22
0Current Usings:  (FILEELEM,R2) (PARMCB,R8) (PARMOPEN,R10) (@MEMGET-72,R13)
0Loc    Object Code    Addr1 Addr2  Stmt Lv Lineno    Source Statement           (Hibal 5, Asmedit 3.3)  HLASM R4.0  2004/03/22 09.43
+___    ______ ____    _____ _____  ____ __ ______    ______ _________
0000130 D203 8024 2010 00024 00010  3234  2  139.                  MVC   PARMCHDR,FILHDR         Set the current header
                                    3235  2  140.     *
                                    3236  2  141.     *  Open parameter file
                                    3237  2  142.     *
 DROP   @MEMGET-72,R13              3238  2  143.                  PSET  @PRMIOPN
 USING  @PRMIOPN-72,R13
 000136 D707 D048 D048 00000 00000  3258  2          +
 00013C                             3259  2  144.                  PMOV  @PRMIONM,FILNAME
 00013C D207 D048 2008 00000 00008  3263  2          +
 000142 58F0 A814/0DEF       008AC  3264  2  145.                  VCALL PRMIOPEN
 000148 1200/4780 A0C6       0015E  3268  2  146.                  IF    (RVR,NZ),'KAPUT PARMOPEN'
 00014E 4110 0001            00001  3285  3 03-KAPUT +*,THIS FUNCTION IS NOT IMPLEMENTED
 000152 4100 0080            00080  3291  3          +
 000156 8900 0018/1610       00018  3292  3          +
 00015C 0A0D                        3294  2          +
 DROP   @PRMIOPN-72,R13             3299  2  147.                  MEMFREE L'FILEELEM,A=LA:FILEELEM,TYPE=GLOBAL
 USING  @MEMFREE-72,R13
 00015E D709 D048 D048 00000 00000  3321  2          +
 000164 4100 0014            00014  3328  2          +
 000168 5000 D04C            00004  3329  2          +
 00016C 4100 2000            00000  3333  2          +
 000170 5000 D048            00000  3334  2          +
 000174 9212 D051      00009        3344  2          +
 000178 58F0 A818/0DEF       008B0  3347  2          +
                                    3349  1  148.                END   ,                       OF FILEELEM addr
                                    3352  1  149.     *
                                    3353  1  150.     *  Read all records
                                    3354  1  151.     *
 00017E                             3355  1  152.                LOOP  BEGIN                   Read all records
 00017E 58F0 A81C/0DEF       008B4  3361  2  153.                  VCALL PRMIORD
 000184 1200/4780 A108       001A0  3365  2  154.                  IF    (RVR,ZERO),EXIT         No more records/error
                                    3382  2  155.     *
                                    3383  2  156.     *  Process this record
                                    3384  2  157.     *
 00018A 1820                        3385  2  158.                  LR    RA,RVR
 DROP   @MEMFREE-72,R13             3386  2  159.                  PSET  @PARMREC
 USING  @PARMREC-72,R13
 00018C D703 D048 D048 00000 00000  3406  2          +
 000192 5020 D048            00000  3407  2  160.                  PMOV  @RECLOC,(RA)
 000196 41F0 A128/0DEF       001C0  3417  2  161.                  LCALL PARMREC
 00019C 47F0 A0E6            0017E  3426  1  162.                END   ,                       OF Read all records
 0001A0 47F0 A062            000FA  3431     163.              END   ,                       OF Open and read all parm files
                                    3436     164.     *
                                    3437     165.     *  Tell Richie to clean up
 0001A4 58F0 A820/0DEF       008B8  3438     166.              VCALL PRMIOEND
 0001AA 981F C008            00008  3442     167.              PEND  ,
 DROP   FILEELEM,R2
 DROP   PARMCB,R8
 DROP   PARMOPEN,R10
 0001AE 9680 C000/0B0E 00000        3462             +
 DROP   @PARMREC-72,R13
1PARMS    (PARM00) (09:43) (22MAR04) Process a parameter record                                                             Page   23
0Loc    Object Code    Addr1 Addr2  Stmt Lv Lineno    Source Statement           (Hibal 5, Asmedit 3.3)  HLASM R4.0  2004/03/22 09.43
+___    ______ ____    _____ _____  ____ __ ______    ______ _________
0                                   3472     169.     *********************************************************************
                                    3473     170.     *                                                                   *
                                    3474     171.     *********************************************************************
 000000                00000 00019  3475     172.     #PARMREC RECORD BEGIN
 000000                             3483  1  173.                DS    XL(L'@PARMPARS)
 000011                             3484  1  174.     #RECKEY    DS    CL8                     Work area for keyword
 000019                00019 00019  3485     175.              END   ,
00001B4                             3495     177.     PARMREC  PROC  @PARMREC,#PARMREC
 0001B4 D7C1D9D4D9C5C340            3500             +
 0001BC 0008/0020                   3501             +
 0001C0 900F D004/18AF       00004  3503             +
 USING  PARMREC,R10
 0001C6 50D0 C000/18CD       00000  3518             +
 0001CC 9680 C000      00000        3520             +
 USING  @PARMREC-72,R12
 AUSING (#PARMREC,@PARMREC+8)
 0001D0 41D0 C070            00070  3539             +
                                    3540     178.     *
                                    3541     179.     *  Parse record
                                    3542     180.     *
 0001D4 5820 C048            00000  3543     181.              L     RA,@RECLOC
 USING  @PARMPARS-72,R13            3544     182.              PSET  @PARMPARS
 0001D8 D710 D048 D048 00000 00000  3561             +
 0001DE 4100 2004            00004  3562     183.              PMOV  @PARSLOC,LA:@RA+4       Record location
 0001E2 5000 D048            00000  3578             +
 0001E6 4830 2000            00000  3579     184.              LH    RB,@RA                  Subtract RDW len
 0001EA 4B30 A720            008E0  3580     185.              SH    RB,=Y(4)                |
 0001EE 5030 D04C            00004  3581     186.              PMOV  @PARSLEN,(RB)           Record length
 0001F2 41F0 A270/0DEF       00430  3591     187.              LCALL PARMPARS
                                    3600     188.
 0001F8                             3601     189.              IF    (@PARSKEY,ZERO),EXIT    Not a keyword assignment
 0001F8 D607 D050 D050 00008 00008  3611             +
 0001FE 4780 A25A            0041A  3614             +
 000202 D218 C050 D048 00000 00000  3620     190.              MVC   #PARMREC,@PARMPARS
 AUSING (@PARMPARS,#PARMREC)        3621     191.              WITH  (@PARMPARS,#PARMREC)
                                    3628     192.     *
                                    3629     193.     *  Get addr to global control block
                                    3630     194.     *
 000208 5880 9004            00004  3631     195.              WITH  (RTCB,RTCBR),'L RM,RTCBCBAT'
 USING  RTCB,R9
 DROP   RTCB,R9
 00020C 5880 8068            00068  3655     196.              WITH  (CBAT,RM),'L RM,CBATPARM'
 USING  CBAT,R8
 DROP   CBAT,R8
 USING  PARMCB,R8                   3679     197.              WITH  (PARMCB,RM)
                                    3692     198.     *--------------
                                    3693     199.     *  Check for reserved words
                                    3694     200.     *--------------
                                    3695     201.     *
                                    3696     202.     *  BEGIN keyword
                                    3697     203.     *
 000210                             3698     204.              IF    (@PARSKEY,EQ,=CL8'BEGIN'),BEGIN  Begin keyword
 000210 D507 A6B0 D050 00870 00008  3708             +
 000216 4770 A0E4            002A4  3709             +
 DROP   @PARMPARS-72,R13            3714  1  205.                MEMGET L'PARMHELEM,TYPE=GLOBAL
1PARMS    (PARM00) (09:43) (22MAR04) Process a parameter record                                                             Page   24
0Current Usings:  (PARMCB,R8) (PARMREC,R10) (@PARMREC-72,R12) (@MEMGET-72,R13)
0Loc    Object Code    Addr1 Addr2  Stmt Lv Lineno    Source Statement           (Hibal 5, Asmedit 3.3)  HLASM R4.0  2004/03/22 09.43
+___    ______ ____    _____ _____  ____ __ ______    ______ _________
0USING  @MEMGET-72,R13
 00021A D709 D048 D048 00000 00000  3736  1          +
 000220 4100 0028            00028  3743  1          +
 000224 5000 D04C            00004  3744  1          +
 000228 9213 D051      00009        3758  1          +
 00022C 58F0 A6E0/0DEF       008A0  3761  1          +
 000232 1820                        3763  1  206.                LR    RA,RVR                  Memory is cleared from MEMGET
 USING  PARMHELEM,R2                3764  1  207.                WITH  (PARMHELEM,RA)
 AUSING (PARMBASE,PEHBASE)          3777  1  208.                WITH  (PARMBASE,PEHBASE)
                                    3784  1  209.     *
                                    3785  1  210.     *  Set keyword of group
                                    3786  1  211.     *
 000234 D207 2008 A6B8 00008 00878  3787  1  212.                MVC   PEKEY,=CL8' '           Set keyword
 00023A 5830 C050            00000  3788  1  213.                L     RB,@PARSLOC             |
 00023E 5810 C054            00004  3789  1  214.                L     RS,@PARSLEN             |
 000242 5910 A6FC            008BC  3790  1  215.                CEIL  RS,8                    |
 000246 47D0 A08E            0024E  3799  1          +
 00024A 5810 A6FC            008BC  3804  1          +
 00024E 0610/4410 A72E       008EE  3809  1  216.                DEX   RS,'MVC PEKEY(0),@RB'   |
 0008EE D200 2008 3000 00008 00000  3820  1          +
                                    3828  1  217.     *
 AUSING (PARMHEAD,PEHSUB)           3829  1  218.                WITH  (PARMHEAD,PEHSUB),BEGIN Setup header for sub keys
 000254 4130 2014            00000  3839  2  219.                  LA    RB,PHHEAD               |
 000258 5030 2014            00000  3840  2  220.                  ST    RB,PHFP                 |
 00025C 5030 2018            00004  3841  2  221.                  ST    RB,PHBP                 |
 000260 5840 8024            00024  3842  2  221.1                 L     RJ,PARMCHDR             | parent of this header
 USING  PAR.PARMHEAD,R4             3843  2  221.11                WITH  (PARMHEAD,RJ),LABEL=PAR |
 000264 5040 2020            0000C  3851  2  221.2                 PMOV  PHPAR,LA:PAR.PARMHEAD   |
 000268 9180 C060      00010        3862  2  222.1                 IF    (@PARSFMUL,OR,PAR:PHFMULT),BEGIN
 00026C 4710 A0B8            00278  3876  2          +
 000270 9180 4010      00010        3885  2          +
 000274 47E0 A0B8            00278  3886  2          +
                                    3891  3  222.11   *        SET   PHFMULT                 Multiple sense for this blk
 000278                             3892  2  222.2                 END   ,
 DROP   PAR.PARMHEAD,R4             3896  1  223.                END   ,                       OF Setup header for sub keys
                                    3907  1  224.     *
                                    3908  1  225.     *  Add to current header
                                    3909  1  226.     *
 000278 5810 8024            00024  3910  1  227.                LADD  L:PARMCHDR,LA:PARMHELEM,WR=RS
 00027C 41E0 0001            00001  3938  1          +
 000280 5EE0 1008            00008  3939  1          +
 000284 50E0 1008            00008  3940  1          +
 000288 58E0 1004            00004  3947  1          +
 00028C 5020 1004            00004  3953  1          +
 000290 5010 2000            00000  3954  1          +
 000294 50E0 2004            00004  3960  1          +
 000298 5020 E000            00000  3961  1          +
                                    3963  1  228.     *
                                    3964  1  229.     *  Make this the current header
                                    3965  1  230.     *
 00029C 4100 2014            00000  3966  1  231.                PMOV  PARMCHDR,LA:PARMHEAD
 0002A0 5000 8024            00024  3982  1          +
 DROP   PARMHELEM,R2                3983     232.              END   ,                       OF Begin keyword
                                    3992     233.     *
1PARMS    (PARM00) (09:43) (22MAR04) Process a parameter record                                                             Page   25
0Current Usings:  (PARMCB,R8) (PARMREC,R10) (@PARMREC-72,R12) (@MEMGET-72,R13)
0Loc    Object Code    Addr1 Addr2  Stmt Lv Lineno    Source Statement           (Hibal 5, Asmedit 3.3)  HLASM R4.0  2004/03/22 09.43
+___    ______ ____    _____ _____  ____ __ ______    ______ _________
0                                   3993     234.     *  END keyword
                                    3994     235.     *
 0002A4 A0E8           002A4 00218  3995     236.              ELSEIF (@PARSKEY,EQ,=CL8'END'),BEGIN   End keyword
 0002A4 47F0 A154            00314  4001             +
 0002A8 D507 A6C0 C058 00880 00008  4014             +
 0002AE 4770 A154            00314  4015             +
                                    4020  1  237.     *
                                    4021  1  238.     *  Make sure we're not at the root, and that block labels match
 0002B2 5820 8024            00024  4022  1  239.                L     RA,PARMCHDR
 USING  PARMHEAD,R2                 4023  1  240.                WITH  (PARMHEAD,RA),BEGIN
 0002B6                             4037  2  241.                  IF    (PHPAR,ZERO),'KAPUT PARMROOTBAL'
 0002B6 D603 200C 200C 0000C 0000C  4047  2          +
 0002BC 4770 A110            002D0  4048  2          +
 0002C0 4110 0001            00001  4061  3          +
 0002C4 4100 0080            00080  4062  3          +
 0002C8 8900 0018/1610       00018  4063  3          +
 0002CE 0A0D                        4065  2          +
 DROP   PARMHEAD,R2                 4070  1  242.                END   ,
                                    4078  1  243.
 0002D0 4B20 A722            008E2  4079  1  244.                SH    RA,=Y(PEHSUB-PARMHELEM)
 USING  PARMHELEM,R2                4080  1  245.                WITH  (PARMHELEM,RA)
 AUSING (PARMBASE,PEHBASE)          4093  1  246.                WITH  (PARMBASE,PEHBASE)
 0002D4 D207 C061 A6B8 00011 00878  4100  1  247.                MVC   #RECKEY,=CL8' '
 0002DA 5830 C050            00000  4101  1  248.                L     RB,@PARSLOC
 0002DE 5810 C054            00004  4102  1  249.                L     RS,@PARSLEN
 0002E2 5910 A6FC            008BC  4103  1  250.                CEIL  RS,8
 0002E6 47D0 A12E            002EE  4112  1          +
 0002EA 5810 A6FC            008BC  4117  1          +
 0002EE 0610/4410 A734       008F4  4122  1  251.                DEX   RS,'MVC #RECKEY(0),@RB'
 0008F4 D200 C061 3000 00011 00000  4133  1          +
 0002F4                             4141  1  252.                IF    (#RECKEY,NE,PEKEY),'KAPUT PARMBALANCE'
 0002F4 D507 C061 2008 00011 00008  4153  1          +
 0002FA 4780 A14E            0030E  4154  1          +
 0002FE 4110 0001            00001  4167  2          +
 000302 4100 0080            00080  4168  2          +
 000306 8900 0018/1610       00018  4169  2          +
 00030C 0A0D                        4171  1          +
 AUSING (PARMHEAD,PEHSUB)           4176  1  253.                WITH  (PARMHEAD,PEHSUB)
                                    4183  1  254.     *
                                    4184  1  255.     *  Pop the level at the end of a block
                                    4185  1  256.     *
 00030E D203 8024 2020 00024 0000C  4186  1  257.                MVC   PARMCHDR,PHPAR
 DROP   PARMHELEM,R2                4187     258.              END   ,                       OF End keyword
                                    4196     259.     *
                                    4197     260.     *  INCLUDE keyword
                                    4198     261.     *
 000314 A158           00314 002B0  4199     262.              ELSEIF (@PARSKEY,EQ,=CL8'INCLUDE'),BEGIN       Include key
 000314 47F0 A1C6            00386  4205             +
 000318 D507 A6C8 C058 00888 00008  4218             +
 00031E 4770 A1C6            00386  4219             +
                                    4224  1  263.     *
                                    4225  1  264.     *  Set up include member w/ name, and point to current header
                                    4226  1  265.     *
 000322                             4227  1  266.                MEMGET L'FILEELEM,TYPE=GLOBAL
1PARMS    (PARM00) (09:43) (22MAR04) Process a parameter record                                                             Page   26
0Current Usings:  (PARMCB,R8) (PARMREC,R10) (@PARMREC-72,R12) (@MEMGET-72,R13)
0Loc    Object Code    Addr1 Addr2  Stmt Lv Lineno    Source Statement           (Hibal 5, Asmedit 3.3)  HLASM R4.0  2004/03/22 09.43
+___    ______ ____    _____ _____  ____ __ ______    ______ _________
0000322 D709 D048 D048 00000 00000  4239  1          +
 000328 4100 0014            00014  4246  1          +
 00032C 5000 D04C            00004  4247  1          +
 000330 9213 D051      00009        4261  1          +
 000334 58F0 A6E0/0DEF       008A0  4264  1          +
 00033A 1820                        4266  1  267.                LR    RA,RVR
 USING  FILEELEM,R2                 4267  1  268.                WITH  (FILEELEM,RA)
 00033C D207 2008 A6B8 00008 00878  4280  1  269.                MVC   FILNAME,=CL8' '
 000342 5830 C050            00000  4281  1  270.                L     RB,@PARSLOC
 000346 5810 C054            00004  4282  1  271.                L     RS,@PARSLEN
 00034A 5910 A6FC            008BC  4283  1  272.                CEIL  RS,8
 00034E 47D0 A196            00356  4292  1          +
 000352 5810 A6FC            008BC  4297  1          +
 000356 0610/4410 A73A       008FA  4302  1  273.                DEX   RS,'MVC FILNAME(0),@RB'
 0008FA D200 2008 3000 00008 00000  4313  1          +
 00035C D203 2010 8024 00010 00024  4321  1  274.                MVC   FILHDR,PARMCHDR         Point to current header
                                    4322  1  275.     *
                                    4323  1  276.     *  Add to list of include files
                                    4324  1  277.     *
 000362 4110 8018            00018  4325  1  278.                LADD  PARMFILS,LA:FILEELEM,WR=RS
 000366 41E0 0001            00001  4356  1          +
 00036A 5EE0 1008            00008  4357  1          +
 00036E 50E0 1008            00008  4358  1          +
 000372 58E0 1004            00004  4365  1          +
 000376 5020 1004            00004  4371  1          +
 00037A 5010 2000            00000  4372  1          +
 00037E 50E0 2004            00004  4378  1          +
 000382 5020 E000            00000  4379  1          +
 DROP   FILEELEM,R2                 4381     279.              END   ,                       OF Include key
                                    4390     280.     *
                                    4391     281.     *  Here we handle the actual KEY=value statements of the parmfile
                                    4392     282.     *
 000386 A1CA           00386 00320  4393     283.              ELSE  BEGIN                   Not a reserved keyword
 000386 47F0 A25A            0041A  4398             +
 00038A                             4404  1  284.                MEMGET L'PARMVELEM,TYPE=GLOBAL
 00038A D709 D048 D048 00000 00000  4416  1          +
 000390 4100 0018            00018  4423  1          +
 000394 5000 D04C            00004  4424  1          +
 000398 9213 D051      00009        4438  1          +
 00039C 58F0 A6E0/0DEF       008A0  4441  1          +
 0003A2 1820                        4443  1  285.                LR    RA,RVR
 USING  PARMVELEM,R2                4444  1  286.                WITH  (PARMVELEM,RA)
 AUSING (PARMBASE,PEVBASE)          4457  1  287.                WITH  (PARMBASE,PEVBASE)
                                    4464  1  288.     *
                                    4465  1  289.     *  Set keyword, and indicate it's a leaf
                                    4466  1  290.     *
 0003A4 D207 2008 C058 00008 00008  4467  1  291.                MVC   PEKEY,@PARSKEY
 0003AA 9680 2010      00010        4468  1  292.                SET   PEFLEAF
 0003AE 9180 C060      00010        4474  1  292.1               IF    @PARSFMUL,'SET PEFMULT' Allow multiple senses
 0003B2 47E0 A1FA            003BA  4484  1          +
 0003B6 9620 2010      00010        4495  1          +
                                    4500  1  293.     *
                                    4501  1  294.     *  Set value
                                    4502  1  295.     *
1PARMS    (PARM00) (09:43) (22MAR04) Process a parameter record                                                             Page   27
0Current Usings:  (PARMVELEM,R2) (PARMCB,R8) (PARMREC,R10) (@PARMREC-72,R12) (@MEMGET-72,R13)
0Loc    Object Code    Addr1 Addr2  Stmt Lv Lineno    Source Statement           (Hibal 5, Asmedit 3.3)  HLASM R4.0  2004/03/22 09.43
+___    ______ ____    _____ _____  ____ __ ______    ______ _________
00003BA 5810 C054            00004  4503  1  296.                L     RS,@PARSLEN             Length of value
 0003BE 4150 1004            00004  4504  1  297.                LA    RK,@RS+4                | + room for RDW
 0003C2                             4505  1  298.                MEMGET (RK),TYPE=GLOBAL
 0003C2 D709 D048 D048 00000 00000  4517  1          +
 0003C8 5050 D04C            00004  4518  1          +
 0003CC 9213 D051      00009        4532  1          +
 0003D0 58F0 A6E0/0DEF       008A0  4535  1          +
 0003D6 1830                        4537  1  299.                LR    RB,RVR
 0003D8 5030 2014            00014  4538  1  300.                ST    RB,PEVAL                Pointer to value
 0003DC 5840 C050            00000  4539  1  301.                L     RJ,@PARSLOC
 0003E0 0610/4410 A740       00900  4540  1  302.                DEX   RS,'MVC @RB+4(0),@RJ'   Move in location
 000900 D200 3004 4000 00004 00000  4551  1          +
 0003E6 4050 3000            00000  4559  1  303.                STH   RK,@RB                  Move in length
                                    4560  1  304.     *
                                    4561  1  305.     *  Add this element to header
                                    4562  1  306.     *
 0003EA 5840 8024            00024  4563  1  307.                L     RJ,PARMCHDR
 USING  PARMHEAD,R4                 4564  1  308.                WITH  (PARMHEAD,RJ)
 0003EE 41E0 0001            00001  4577  1  309.                LADD  PARMHEAD,LA:PARMVELEM,WR=RS
 0003F2 5EE0 4008            00008  4604  1          +
 0003F6 50E0 4008            00008  4605  1          +
 0003FA 58E0 4004            00004  4612  1          +
 0003FE 5020 4004            00004  4618  1          +
 000402 5040 2000            00000  4619  1          +
 000406 50E0 2004            00004  4625  1          +
 00040A 5020 E000            00000  4626  1          +
                                    4628  1  309.1    *
                                    4629  1  309.2    *  If the parent block has multiple senses, this block gets it too
                                    4630  1  309.3    *
 00040E 9180 4010      00010        4631  1  309.4               IF    PHFMULT,'SET PEFMULT'
 000412 47E0 A25A            0041A  4641  1          +
 000416 9620 2010      00010        4652  1          +
 DROP   PARMHEAD,R4                 4657     310.              END   ,                       OF Not a reserved keyword
 DROP   PARMVELEM,R2
 00041A 981F C008            00008  4671     311.              PEND  ,
 DROP   PARMCB,R8
 DROP   @PARMREC-72,R12
 DROP   PARMREC,R10
 00041E 9680 C000/0B0E 00000        4691             +
 DROP   @MEMGET-72,R13
1PARMS    (PARM00) (09:43) (22MAR04) Parse records                                                                          Page   28
0Loc    Object Code    Addr1 Addr2  Stmt Lv Lineno    Source Statement           (Hibal 5, Asmedit 3.3)  HLASM R4.0  2004/03/22 09.43
+___    ______ ____    _____ _____  ____ __ ______    ______ _________
0                                   4701     313.     *********************************************************************
                                    4702     314.     *  Output - @PARMPARS                                               *
                                    4703     315.     *              IF @PARSKEY <> 0 then @PARSLOC and @PARSLEN          *
                                    4704     316.     *                point to the parameter area                        *
                                    4705     316.1    *                @PARSFMUL is set if the value can be multiply      *
                                    4706     316.2    *                requested.                                         *
                                    4707     317.     *              IF @PARSKEY = 0, keyword/value pair not found        *
                                    4708     318.     *                                                                   *
                                    4709     319.     *********************************************************************
                                    4710     320.     SKIPCHAR EQU   C' '
                                    4711     321.     EOLNCHAR EQU   C';'
                                    4712     322.     ASNCHAR  EQU   C'='
                                    4713     323.     QUOTCHAR EQU   C''''
0000000                00000 00008  4715     324.1    #PARMPARS RECORD BEGIN
 000000                             4723  1  324.2    #PARSKEY   DS    CL8
 000008                00008 00008  4724     324.3             END   ,
0000424                             4734     325.     PARMPARS PROC  @PARMPARS,#PARMPARS
 000424 D7C1D9D4D7C1D9E2            4739             +
 00042C 0018/0008                   4740             +
 000430 900F D004/18AF       00004  4742             +
 USING  PARMPARS,R10
 000436 50D0 C000/18CD       00000  4757             +
 00043C 9680 C000      00000        4759             +
 USING  @PARMPARS-72,R12
 AUSING (#PARMPARS,@PARMPARS+24)
 000440 41D0 C068            00068  4778             +
 000444                             4779     325.1             CLEAR @PARSKEY
 000444 D707 C050 C050 00008 00008  4785             +
 00044A 5820 C048            00000  4786     326.              L     RA,@PARSLOC             First char
 00044E 5810 C04C            00004  4787     327.              L     RS,@PARSLEN             1 past last
 000452 1E12                        4788     328.              ALR   RS,RA                   |
 000454                             4789     328.1    PPLOOP   LABEL ,
                                    4791     329.     *
                                    4792     330.     *  Skip leading blanks
                                    4793     331.     *
 000454 1921/47B0 A03A       0046A  4794     332.              WHILE ((RA,LT,RS),AND,(@RA,EQ,SKIPCHAR)),BEGIN
 00045A 9540 2000      00000        4821             +
 00045E 4770 A03A            0046A  4822             +
 000462 4120 2001            00001  4827  1  333.                LA    RA,@RA+1
 000466 47F0 A024            00454  4828     334.              END   ,
 00046A 1921/47A0 A170       005A0  4833     335.              IF    (RA,GE,RS),EXIT
                                    4851     336.     *
                                    4852     337.     *  Get keyword
                                    4853     338.     *
 000470 1832                        4854     339.              LR    RB,RA                   Start of keyword
                                    4855     340.   C          WHILE ((RA,LT,RS),AND,(@RA,NE,SKIPCHAR),AND,
 000472 1921/47B0 A068       00498           341.                    (@RA,NE,ASNCHAR),AND,(@RA,NE,EOLNCHAR)),BEGIN
 000478 9540 2000      00000        4882             +
 00047C 4780 A068            00498  4883             +
 000480 957E 2000      00000        4896             +
 000484 4780 A068            00498  4897             +
 000488 955E 2000      00000        4910             +
 00048C 4780 A068            00498  4911             +
 000490 4120 2001            00001  4916  1  342.                LA    RA,@RA+1
1PARMS    (PARM00) (09:43) (22MAR04) Parse records                                                                          Page   29
0Current Usings:  (PARMPARS,R10) (@PARMPARS-72,R12)
0Loc    Object Code    Addr1 Addr2  Stmt Lv Lineno    Source Statement           (Hibal 5, Asmedit 3.3)  HLASM R4.0  2004/03/22 09.43
+___    ______ ____    _____ _____  ____ __ ______    ______ _________
0000494 47F0 A042            00472  4917     343.              END   ,
 000498 1852                        4922     344.              LR    RK,RA
 00049A 1F53                        4923     345.              SLR   RK,RB
 00049C 1921/47A0 A170       005A0  4924     346.              IF    ((RA,GE,RS),OR,(RK,ZERO)),EXIT   No keyword
 0004A2 1255/4780 A170       005A0  4946             +
 0004A8 1843                        4955     347.              LR    RJ,RB                   Location/RK=len
                                    4956     348.     *
                                    4957     349.     *  Skip blanks/assign char
                                    4958     350.     *
                                    4959     351.   C          WHILE ((RA,LT,RS),AND,(@RA,NE,EOLNCHAR),AND,
 0004AA 1921/47B0 A0A0       004D0           352.                    ((@RA,EQ,SKIPCHAR),OR,(@RA,EQ,ASNCHAR))),BEGIN
 0004B0 955E 2000      00000        4986             +
 0004B4 4780 A0A0            004D0  4987             +
 0004B8 9540 2000      00000        5002             +
 0004BC 4780 A098            004C8  5005             +
 0004C0 957E 2000      00000        5016             +
 0004C4 4770 A0A0            004D0  5017             +
 0004C8 4120 2001            00001  5022  1  353.                LA    RA,@RA+1
 0004CC 47F0 A07A            004AA  5023     354.              END   ,
 0004D0 1921/47A0 A170       005A0  5028     355.              IF    (RA,GE,RS),EXIT
                                    5046     355.01   *
                                    5047     355.02   *  Copy keyword to temp buffer... see if it is option keyword
                                    5048     355.03   *
 0004D6 9180 C058      00010        5049     355.04            IF    ~@PARSFMUL,BEGIN        Mult option not already set
 0004DA 4710 A0E2            00512  5059             +
 0004DE D207 C060 A448 00000 00878  5064  1  355.05              MVC   #PARSKEY,=CL8' '        Blank key
 0004E4 5950 A48C            008BC  5065  1  355.06              CEIL  RK,8
 0004E8 47D0 A0C0            004F0  5074  1          +
 0004EC 5850 A48C            008BC  5079  1          +
 0004F0 0650/4450 A4D6       00906  5084  1  355.07              DEX   RK,'MVC #PARSKEY(0),@RJ'
 000906 D200 C060 4000 00000 00000  5095  1          +
 0004F6 5E50 A490            008C0  5103  1  355.08              INCR  RK
 0004FA D607 C060 A448 00000 00878  5106  1  355.09              OC    #PARSKEY,=CL8' '        Convert keyword to upper case
 000500                             5107  1  355.1               IF    ('CLC #PARSKEY,=CL8"RESCAN"',EQ),BEGIN
 000500 D507 C060 A460 00000 00890  5114  1          +
 000506 4770 A0E2            00512  5115  1          +
 00050A 9680 C058      00010        5120  2  355.11                SET   @PARSFMUL
 00050E 47F0 A024            00454  5126  2  355.12                B     PPLOOP
 000512                             5127  1  355.13              END   ,
 000512                             5131     355.14            END   ,                       Mult option not already set
                                    5135     356.     *
                                    5136     357.     *  Get value, blank terminated or single quoted
                                    5137     358.     *
 000512 4180 0040            00040  5138     359.              LA    RM,C' '                 Default delimiter
 000516 957D 2000      00000        5139     360.              IF    (@RA,EQ,QUOTCHAR),BEGIN
 00051A 4770 A0F6            00526  5151             +
 00051E 4180 007D            0007D  5156  1  361.                LA    RM,QUOTCHAR
 000522 4120 2001            00001  5157  1  362.                LA    RA,@RA+1
 000526                             5158     363.              END   ,
 000526 A0FA           00526 0051C  5162     364.              ELSE  BEGIN                   Look for EOLN char
 000526 47F0 A114            00544  5167             +
 00052A 1832                        5173  1  365.                LR    RB,RA
 00052C 1931/47B0 A112       00542  5174  1  366.                WHILE ((RB,LT,RS),AND,(@RB,NE,EOLNCHAR)),BEGIN
 000532 955E 3000      00000        5201  1          +
1PARMS    (PARM00) (09:43) (22MAR04) Parse records                                                                          Page   30
0Current Usings:  (PARMPARS,R10) (@PARMPARS-72,R12)
0Loc    Object Code    Addr1 Addr2  Stmt Lv Lineno    Source Statement           (Hibal 5, Asmedit 3.3)  HLASM R4.0  2004/03/22 09.43
+___    ______ ____    _____ _____  ____ __ ______    ______ _________
0000536 4780 A112            00542  5202  1          +
 00053A 4130 3001            00001  5207  2  367.                  LA    RB,@RB+1
 00053E 47F0 A0FC            0052C  5208  1  368.                END   ,
 000542 1813                        5213  1  369.                LR    RS,RB                   New end char
 000544                             5214     370.              END   ,                       OF Look for EOLN char
 000544 1832                        5218     371.              LR    RB,RA                   Start of value parameter
 000546 1921/47B0 A12C       0055C  5219     372.              WHILE ((RA,LT,RS),AND,('CLM RM,1,@RA',NE)),BEGIN
 00054C BD81 2000            00000  5242             +
 000550 4780 A12C            0055C  5243             +
 000554 4120 2001            00001  5248  1  373.                LA    RA,@RA+1
 000558 47F0 A116            00546  5249     374.              END   ,
 00055C 1F23                        5254     375.              SLR   RA,RB                   RB = LOC, RA = length
 00055E 1222/4780 A170       005A0  5255     376.              IF    (RA,ZERO),EXIT          No keyword value
                                    5272     377.     *
                                    5273     378.     *  Found keyword/value pair - set parameter area w/ uppercase keyword
                                    5274     379.     *
 000564 D207 C050 A448 00008 00878  5275     380.              MVC   @PARSKEY,=CL8' '        Blank key
 00056A 5950 A48C            008BC  5276     381.              CEIL  RK,8
 00056E 47D0 A146            00576  5285             +
 000572 5850 A48C            008BC  5290             +
 000576 0650/4450 A4DC       0090C  5295     382.              DEX   RK,'MVC @PARSKEY(0),@RJ'
 00090C D200 C050 4000 00008 00000  5306             +
 00057C D607 C050 A448 00008 00878  5314     383.              OC    @PARSKEY,=CL8' '        Convert keyword to upper case
                                    5315     384.     *
                                    5316     385.     *  Set value - possibly convert it to upper case
                                    5317     386.     *
 000582 5030 C048            00000  5318     387.              ST    RB,@PARSLOC
 000586 5020 C04C            00004  5319     388.              ST    RA,@PARSLEN
 00058A 5980 A494            008C4  5320     389.              IF    (RM,NE,QUOTCHAR),BEGIN  Uppercase non-quoted value
 00058E 4780 A170            005A0  5332             +
 000592 0630                        5337  1  390.                DECR  RB                      Start -1
 000594                             5339  1  391.                LOOP  BEGIN                   Set all to upper
 000594 4112 3000            00000  5345  2  392.                  LA    RS,@RB(RA)
 000598 9640 1000      00000        5346  2  393.                  OI    @RS,C' '
 00059C 4620 A164            00594  5347  1  394.                UNTIL (BCT,RA),END            OF Set all to upper
 0005A0                             5357     395.              END   ,                       OF Uppercase non-quoted value
 0005A0 981F C008            00008  5361     396.              PEND  ,
 DROP   @PARMPARS-72,R12
 DROP   PARMPARS,R10
 0005A4 9680 C000/0B0E 00000        5376             +
1PARMS    (PARM00) (09:43) (22MAR04) Get parameter                                                                          Page   31
0Loc    Object Code    Addr1 Addr2  Stmt Lv Lineno    Source Statement           (Hibal 5, Asmedit 3.3)  HLASM R4.0  2004/03/22 09.43
+___    ______ ____    _____ _____  ____ __ ______    ______ _________
0                                   5383     398.     *********************************************************************
                                    5384     399.     *  Get initialization parameter                                     *
                                    5385     400.     *                                                                   *
                                    5386     401.     *   Input - @PARMDO                                                 *
                                    5387     402.     *                The input area consists of a fixed area followed   *
                                    5388     403.     *              by a variable length section of keywords.  Each      *
                                    5389     404.     *              keyword is 8 bytes long, and padded with blanks.     *
                                    5390     405.     *                                                                   *
                                    5391     406.     *  Output - RVR = 0                                                 *
                                    5392     407.     *                Keyword found and output area is filled in         *
                                    5393     408.     *           RVR > 0                                                 *
                                    5394     409.     *                Keyword not found                                  *
                                    5395     410.     *           RVR < 0                                                 *
                                    5396     411.     *                Keyword found, but type specified is invalid, or   *
                                    5397     412.     *              actual keyword does not match the type requested     *
                                    5398     413.     *                                                                   *
                                    5399     414.     *                The area pointed to in the @PARMDO area will be    *
                                    5400     415.     *              filled in according to the type of keyword that is   *
                                    5401     416.     *              specified.  String length is returned in @PAROLEN,   *
                                    5402     417.     *              and an integer parameter is returned as a fullword.  *
                                    5403     418.     *                                                                   *
                                    5404     419.     *********************************************************************
0000000                00000 00020  5406     421.     #PARMDO  RECORD BEGIN
 000000                             5414  1  422.     #PDLAST    DS    A                       Last keyword address
 000004                             5415  1  423.     #PDKEY     DS    A                       Address of current key
 000008                             5416  1  424.     #PDKEYUP   DS    CL8                     Work area for key
 000010                             5417  1  425.     #PDFLTW    DS    D                       Floating pt work area
 000018                             5418  1  426.     #PDFLT0    DS    D                       Save for floating point reg
 000020                00020 00020  5419     427.              END   ,
00005AA                             5429     429.     PARMDO   PROC  @PARMDO,#PARMDO,SCOPE=GLOBAL
 0005AA D7C1D9D4C4D64040            5435             +
 0005B2 0010/0020                   5436             +
 0005B6 900F D004/18AF       00004  5438             +
 USING  PARMDO,R10
 0005BC 50D0 C000/18CD       00000  5453             +
 0005C2 9680 C000      00000        5455             +
 USING  @PARMDO-72,R12
 AUSING (#PARMDO,@PARMDO+16)
 0005C6 41D0 C078            00078  5474             +
 0005CA 5880 9004            00004  5475     430.              WITH  (RTCB,RTCBR),'L RM,RTCBCBAT'
 USING  RTCB,R9
 DROP   RTCB,R9
 0005CE 5880 8068            00068  5499     431.              WITH  (CBAT,RM),'L RM,CBATPARM'
 USING  CBAT,R8
 DROP   CBAT,R8
 USING  PARMCB,R8                   5523     432.              WITH  (PARMCB,RM)
                                    5536     433.     *
                                    5537     434.     *  Set last keyword input parameter
                                    5538     435.     *
 0005D2 5820 C048            00000  5539     436.              L     RA,@PARILOC             Set last keyword parameter
 0005D6 5830 C04C            00004  5540     437.              L     RB,@PARILEN             |
 0005DA 1033                        5541     438.              LPR   RB,RB                   |
 0005DC 1E32                        5542     439.              ALR   RB,RA                   |
 0005DE 4B30 A32E            008E4  5543     440.              SH    RB,=Y(8)                |
1PARMS    (PARM00) (09:43) (22MAR04) Get parameter                                                                          Page   32
0Current Usings:  (PARMCB,R8) (PARMDO,R10) (@PARMDO-72,R12)
0Loc    Object Code    Addr1 Addr2  Stmt Lv Lineno    Source Statement           (Hibal 5, Asmedit 3.3)  HLASM R4.0  2004/03/22 09.43
+___    ______ ____    _____ _____  ____ __ ______    ______ _________
00005E2 5030 C058            00000  5544     441.              ST    RB,#PDLAST              |
                                    5545     442.
 0005E6 5820 C048            00000  5546     443.              L     RA,@PARILOC             First keyword
 0005EA 4120 2004            00004  5547     444.              WITH  (PARMIN,RA),'LA RA,PARMKEYS'
 USING  PARMIN,R2
 DROP   PARMIN,R2
 0005EE 4130 8004            00004  5571     445.              LA    RB,PARMROOT             Current header
 0005F2 4100 0004            00004  5572     446.              LA    RVR,4                   Default = nothing found
 0005F6                             5573     447.     KEYMATCH LOOP  BEGIN                   Search for keyword match
 0005F6 5840 3000            00000  5580  1  448.                WITH  (PARMHEAD,RB),'L RJ,PHFP'
 USING  PARMHEAD,R3
 DROP   PARMHEAD,R3
 0005FA 1943/4780 A070       00626  5604  1  449.                WHILE (RJ,NE,RB),BEGIN        Look for keyword
 USING  PARMBASE,R4                 5621  2  450.                  WITH  (PARMBASE,RJ)
 000600 D207 C060 2000 00008 00000  5634  2  451.                  MVC   #PDKEYUP,@RA            Convert to uppercase
 000606 D607 C060 A2C2 00008 00878  5635  2  452.                  OC    #PDKEYUP,=CL8' '        |
 00060C                             5636  2  453.                  IF    (('CLC PEKEY,#PDKEYUP',EQUAL),AND,~PEFSHOWN),EXIT
 00060C D507 4008 C060 00008 00008  5645  2          +
 000612 4770 A068            0061E  5646  2          +
 000616 9140 4010      00010        5657  2          +
 00061A 47E0 A070            00626  5660  2          +
 00061E 5840 4000            00000  5666  2  454.                  L     RJ,PEFP
 000622 47F0 A044            005FA  5667  1  455.                END   ,                       OF Look for keyword
 DROP   PARMBASE,R4
 000626 1943/4780 A278       0082E  5677  1  456.                IF    (RJ,EQ,RB),EXIT         Not found - we're @ the header
 USING  PARMBASE,R4                 5695  1  457.                WITH  (PARMBASE,RJ)
 00062C 9180 4010      00010        5708  1  458.                IF    (PEFLEAF,AND,(RA,NE,#PDLAST)),EXIT
 000630 47E0 A086            0063C  5720  1          +
 000634 5920 C058            00000  5733  1          +
 000638 4770 A278            0082E  5736  1          +
 00063C 9180 4010      00010        5742  1  459.                IF    (~PEFLEAF,AND,(RA,EQ,#PDLAST)),EXIT
 000640 4710 A096            0064C  5754  1          +
 000644 5920 C058            00000  5767  1          +
 000648 4780 A278            0082E  5770  1          +
 00064C 9180 4010      00010        5776  1  460.                IF    (~PEFLEAF,AND,(RA,NE,#PDLAST)),BEGIN     Push level
 000650 4710 A0B2            00668  5788  1          +
 000654 5920 C058            00000  5801  1          +
 000658 4780 A0B2            00668  5802  1          +
                                    5807  2  461.     *
                                    5808  2  462.     *  Go one level deeper
 DROP   PARMBASE,R4                 5809  2  463.                  WITH  (PARMHELEM,RJ)
 USING  PARMHELEM,R4
 00065C 4130 4014            00014  5825  2  464.                  LA    RB,PEHSUB
 000660 4120 2008            00008  5826  2  465.                  LA    RA,@RA+8
 000664 47F0 A040            005F6  5827  2  466.                  NEXT  KEYMATCH
 DROP   PARMHELEM,R4                5830  1  467.                END   ,                       OF Push level
 USING  PARMBASE,R4
 000668 9180 4010      00010        5846  1  468.                IF    (PEFLEAF,AND,(RA,EQ,#PDLAST)),BEGIN      Found match
 00066C 47E0 A274            0082A  5858  1          +
 000670 5920 C058            00000  5871  1          +
 000674 4770 A274            0082A  5872  1          +
                                    5877  2  469.     *
                                    5878  2  470.     *  Keyword match
                                    5879  2  470.1    *
1PARMS    (PARM00) (09:43) (22MAR04) Get parameter                                                                          Page   33
0Current Usings:  (PARMBASE,R4) (PARMCB,R8) (PARMDO,R10) (@PARMDO-72,R12)
0Loc    Object Code    Addr1 Addr2  Stmt Lv Lineno    Source Statement           (Hibal 5, Asmedit 3.3)  HLASM R4.0  2004/03/22 09.43
+___    ______ ____    _____ _____  ____ __ ______    ______ _________
0000678 9120 4010      00010        5880  2  471.                  IF    ~PEFMULT,'SET PEFSHOWN'
 00067C 4710 A0CE            00684  5890  2          +
 000680 9640 4010      00010        5901  2          +
 DROP   PARMBASE,R4                 5906  2  472.                  DROP  RJ
 000684 5840 4014            00014  5913  2  473.                  WITH  (PARMVELEM,RJ),'L RJ,PEVAL'      Source loc
 USING  PARMVELEM,R4
 DROP   PARMVELEM,R4
 000688 5860 C048            00000  5937  2  474.                  L     RX,@PARILOC
 USING  PARMIN,R6                   5938  2  475.                  WITH  (PARMIN,RX)
                                    5951  2  476.
 00068C 9500 6000      00000        5952  2  477.                  IF    PARMFSTR,BEGIN          Parameter is type string
 000690 4770 A10C            006C2  5962  2          +
 000694 4850 4000            00000  5967  3  478.                    LH    RK,@RJ                  Source length
 000698 4B50 A32A            008E0  5968  3  478.1                   SH    RK,=Y(4)                |
 00069C 5820 C050            00008  5969  3  479.                    L     RA,@PAROLOC             Dest loc
 0006A0 5830 C054            0000C  5970  3  480.                    L     RB,@PAROLEN             | length
 0006A4 4800 A330            008E6  5971  3  481.                    LH    RVR,=Y(-4)              Check for bad length
 0006A8 1233/47D0 A10C       006C2  5972  3  482.                    IF    (RB,NPOS),EXIT
 0006AE 1953/47D0 A100       006B6  5989  3  483.                    CEIL  RK,RB                   Limit length
 0006B4 1853                        5994  3          +
 0006B6 5050 C054            0000C  5995  3  484.                    ST    RK,@PAROLEN
 0006BA 0650/4450 A35C       00912  5996  3  487.                    DEX   RK,'MVC @RA(0),4(RJ)'
 000912 D200 2000 4004 00000 00004  6007  3          +
 0006C0 1B00                        6015  3  488.                    CLEAR RVR                     Found string type
 0006C2                             6019  2  489.                  END   ,                       OF Parameter is type string
                                    6023  2  490.     *
                                    6024  2  491.     *  Process Yes/No requests
                                    6025  2  492.     *
 0006C2 A110           006C2 00692  6026  2  493.                  ELSEIF PARMFYN,BEGIN          Parameter is type yes/no
 0006C2 47F0 A18A            00740  6032  2          +
 0006C6 9508 6000      00000        6044  2          +
 0006CA 4770 A18A            00740  6045  2          +
 0006CE 4850 4000            00000  6050  3  494.                    LH    RK,@RJ                  Source length
 0006D2 4B50 A32A            008E0  6051  3  494.1                   SH    RK,=Y(4)                |
 0006D6 5820 C050            00008  6052  3  495.                    L     RA,@PAROLOC             Dest loc
 0006DA 5830 C054            0000C  6053  3  496.                    L     RB,@PAROLEN             | length
 0006DE 4800 A330            008E6  6054  3  497.                    LH    RVR,=Y(-4)              Check for bad length
 0006E2 1233/47D0 A18A       00740  6055  3  498.                    IF    (RB,NPOS),EXIT
 0006E8 5950 A312            008C8  6072  3  499.                    CEIL  RK,L'#PDKEYUP           Limit length
 0006EC 47D0 A13E            006F4  6081  3          +
 0006F0 5850 A312            008C8  6086  3          +
 0006F4 D207 C060 A2C2 00008 00878  6091  3  500.                    MVC   #PDKEYUP,=CL8' '
 0006FA 4450 A362            00918  6092  3  501.                    EX    RK,'OC  #PDKEYUP(0),@RJ+4'  Move and convert to upper
 000918 D600 C060 4004 00008 00004  6100  3          +
 0006FE                             6108  3  502.                    IF    (#PDKEYUP,EQ,C'ON '),'MVC  #PDKEYUP,=C"YES "'
 0006FE D502 A332 C060 008E8 00008  6119  3          +
 000704 4770 A158            0070E  6120  3          +
 000708 D207 C060 A316 00008 008CC  6126  3          +
 00070E                             6131  3  503.                    IF    (#PDKEYUP,EQ,C'OFF '),'MVC  #PDKEYUP,=C"NO "'
 00070E D503 A31A C060 008D0 00008  6142  3          +
 000714 4770 A168            0071E  6143  3          +
 000718 D207 C060 A335 00008 008EB  6149  3          +
 00071E                             6154  3  504.                    IF    ((#PDKEYUP,EQ,C'YES '),OR,(#PDKEYUP,EQ,C'NO ')),BEGIN
 00071E D503 A316 C060 008CC 00008  6167  3          +
1PARMS    (PARM00) (09:43) (22MAR04) Get parameter                                                                          Page   34
0Current Usings:  (PARMIN,R6) (PARMCB,R8) (PARMDO,R10) (@PARMDO-72,R12)
0Loc    Object Code    Addr1 Addr2  Stmt Lv Lineno    Source Statement           (Hibal 5, Asmedit 3.3)  HLASM R4.0  2004/03/22 09.43
+___    ______ ____    _____ _____  ____ __ ______    ______ _________
0000724 4780 A17C            00732  6170  3          +
 000728 D502 A335 C060 008EB 00008  6181  3          +
 00072E 4770 A18A            00740  6182  3          +
 000732 D200 2000 C060 00000 00008  6187  4  505.                      MVC   @RA(1),#PDKEYUP
 000738 D203 C054 A30A 0000C 008C0  6188  4  505.1                     MVC   @PAROLEN,=A(1)
 00073E 1B00                        6189  4  506.                      CLEAR RVR                     Found string type
 000740                             6193  3  507.                    END
 000740                             6197  2  508.                  END   ,                       OF Parameter is type string
 000740 A18E           00740 006CC  6201  2  509.                  ELSEIF PARMFINT,BEGIN         Parameter is type integer
 000740 47F0 A1E6            0079C  6207  2          +
 000744 9504 6000      00000        6219  2          +
 000748 4770 A1E6            0079C  6220  2          +
 00074C 5820 C050            00008  6225  3  510.                    L     RA,@PAROLOC
 000750 5830 C054            0000C  6226  3  511.                    L     RB,@PAROLEN
 000754 4800 A330            008E6  6227  3  512.                    LH    RVR,=Y(-4)
 000758 1233/47D0 A1E6       0079C  6228  3  513.                    IF    ((RB,NPOS),OR,(RB,LT,4)),EXIT    Not enough room
 00075E 5930 A31E            008D4  6252  3          +
 000762 4740 A1E6            0079C  6255  3          +
 000766 4850 4000            00000  6261  3  514.                    LH    RK,@RJ                  Parameter Length
 00076A 4B50 A32A            008E0  6262  3  515.                    SH    RK,=Y(4)                |
 00076E 4140 4004            00004  6263  3  516.                    LA    RJ,@RJ+4                Location
 USING  @DTB-72,R13                 6264  3  517.                    DTB   (RJ),(RK)
 000772 D708 D048 D048 00000 00000  6282  3          +
 000778 5040 D048            00000  6293  3          +
 00077C 5050 D04C            00004  6303  3          +
 000780 58F0 A322/0DEF       008D8  6306  3          +
 000786 9180 D050      00008        6308  3  518.                    IF    @DTBVALID,BEGIN         Valid integer
 00078A 47E0 A1DE            00794  6318  3          +
 00078E 5000 2000            00000  6323  4  519.                      ST    RVR,@RA                 Save integer parm
 000792 1B00                        6324  4  520.                      CLEAR RVR
 000794                             6328  3  521.                    END   ,                       OF Valid integer
 000794 A1E2           00794 0078C  6332  3  522.                    ELSE  'LH RVR,=Y(-4)'
 000794 47F0 A1E6            0079C  6337  3          +
 000798 4800 A330            008E6  6344  3          +
 00079C                             6349  2  523.                  END   ,                       OF Parameter is type integer
                                    6353  2  524.     *
                                    6354  2  525.     *  Get float type parameter
                                    6355  2  526.     *
 00079C A1EA           0079C 0074A  6356  2  527.                  ELSEIF PARMFFLT,BEGIN         Parameter is float type
 00079C 47F0 A268            0081E  6362  2          +
 0007A0 950C 6000      00000        6374  2          +
 0007A4 4770 A268            0081E  6375  2          +
 0007A8 5820 C050            00008  6380  3  528.                    L     RA,@PAROLOC
 0007AC 5830 C054            0000C  6381  3  529.                    L     RB,@PAROLEN
 0007B0 4800 A330            008E6  6382  3  530.                    LH    RVR,=Y(-4)
 0007B4 5930 A31E            008D4  6383  3  531.                    IF    (RB,LT,4),EXIT          Not enough room
 0007B8 4740 A268            0081E  6397  3          +
 0007BC 4850 4000            00000  6403  3  532.                    LH    RK,@RJ
 0007C0 4B50 A32A            008E0  6404  3  533.                    SH    RK,=Y(4)
 0007C4 4140 4004            00004  6405  3  534.                    LA    RJ,@RJ+4
 DROP   @DTB-72,R13                 6406  3  535.                    STB   (RJ),(RK),4             Convert w/ 4 decimal pts
 USING  @STB-72,R13
 0007C8 D70C D048 D048 00000 00000  6427  3          +
 0007CE 5040 D048            00000  6438  3          +
1PARMS    (PARM00) (09:43) (22MAR04) Get parameter                                                                          Page   35
0Current Usings:  (PARMIN,R6) (PARMCB,R8) (PARMDO,R10) (@PARMDO-72,R12) (@STB-72,R13)
0Loc    Object Code    Addr1 Addr2  Stmt Lv Lineno    Source Statement           (Hibal 5, Asmedit 3.3)  HLASM R4.0  2004/03/22 09.43
+___    ______ ____    _____ _____  ____ __ ______    ______ _________
00007D2 5050 D04C            00004  6448  3          +
 0007D6 4100 0004            00004  6460  3          +
 0007DA 5000 D050            00008  6465  3          +
 0007DE 58F0 A326/0DEF       008DC  6468  3          +
 0007E4 9180 D054      0000C        6470  3  536.                    IF    @STBVALID,BEGIN         Valid scaled parm
 0007E8 47E0 A260            00816  6480  3          +
 0007EC 6000 C070            00018  6485  4  537.                      STD   R0,#PDFLT0              Save float reg
 0007F0 5700 A286            0083C  6486  4  538.                      X     RVR,TWO31+4
 0007F4 5000 C06C            00014  6487  4  539.                      ST    RVR,#PDFLTW+4           Save scaled integer
 0007F8 D203 C068 A282 00010 00838  6488  4  540.                      MVC   #PDFLTW(4),TWO31         and convert it to float
 0007FE 6800 C068            00010  6489  4  541.                      LD    R0,#PDFLTW
 000802 6B00 A282            00838  6490  4  542.                      SD    R0,TWO31
 000806 6D00 A2E2            00898  6491  4  543.                      DD    R0,=D'1E4'                and bring it down to size
 00080A 3500                        6492  4  544.                      LRER  R0,R0
 00080C 7000 2000            00000  6493  4  545.                      STE   R0,@RA                     save it
 000810 6800 C070            00018  6494  4  546.                      LD    R0,#PDFLT0              Restore float reg
 000814 1B00                        6495  4  547.                      CLEAR RVR                     All OK
 000816                             6499  3  548.                    END   ,                       OF Valid scaled parm
 000816 A264           00816 007EA  6503  3  549.                    ELSE  'LH RVR,=Y(-4)'         Invalid parm type
 000816 47F0 A268            0081E  6508  3          +
 00081A 4800 A330            008E6  6515  3          +
 00081E                             6520  2  550.                  END   ,                       OF Parameter is float type
 00081E A26C           0081E 007A6  6524  2  551.                  ELSE  BEGIN                   Parameter is of invalid type
 00081E 47F0 A270            00826  6529  2          +
 000822 4800 A330            008E6  6535  3  552.                    LH    RVR,=Y(-4)
 000826                             6536  2  553.                  END   ,                       OF Parameter is of invalid type
 000826 47F0 A278            0082E  6540  2  554.                  EXIT  KEYMATCH
 DROP   PARMIN,R6                   6543  1  555.                END   ,                       OF Found match
 00082A 47F0 A040            005F6  6552     556.              END   ,                       OF Search for keyword match
 00082E 981F C008            00008  6559     557.              PEND  ,
 DROP   PARMCB,R8
 DROP   @PARMDO-72,R12
 DROP   PARMDO,R10
 000832 9680 C000/0B0E 00000        6579             +
 DROP   @STB-72,R13
 000838                             6588     558.              DS    0D
 000838 4E000000800000              6589     559.     TWO31    DC    X'4E000000800000'
1PARMS    (PARM00) (09:43) (22MAR04) Clean up parameter tables                                                              Page   36
0Loc    Object Code    Addr1 Addr2  Stmt Lv Lineno    Source Statement           (Hibal 5, Asmedit 3.3)  HLASM R4.0  2004/03/22 09.43
+___    ______ ____    _____ _____  ____ __ ______    ______ _________
0000840                             6591     561.     PARMCLOS PROC  ,
 000840 D7C1D9D4C3D3D6E2            6596             +
 000848 0000/0000                   6597             +
 00084C 900F D004/18AF       00004  6599             +
 USING  PARMCLOS,R10
 000852 50D0 C000/18CD       00000  6614             +
 000858 9680 C000      00000        6616             +
 00085C 41D0 C048            00048  6617             +
 000860 981F C008            00008  6618     562.              PEND  ,
 DROP   PARMCLOS,R10
 000864 9680 C000/0B0E 00000        6628             +
 000870                             6634     563.              END   .
 000870 C2C5C7C9D5404040            6637                             =CL8'BEGIN'
 000878 4040404040404040            6638                             =CL8' '
 000880 C5D5C44040404040            6639                             =CL8'END'
 000888 C9D5C3D3E4C4C540            6640                             =CL8'INCLUDE'
 000890 D9C5E2C3C1D54040            6641                             =CL8'RESCAN'
 000898 4427100000000000            6642                             =D'1E4'
 0008A0 00000000                    6643                             =V(MEMGET)
 0008A4 D7C1D9D4                    6644                             =CL4'PARM'
 0008A8 00000098                    6645                             =A(PARMOPEN)
 0008AC 00000000                    6646                             =V(PRMIOPEN)
 0008B0 00000000                    6647                             =V(MEMFREE)
 0008B4 00000000                    6648                             =V(PRMIORD)
 0008B8 00000000                    6649                             =V(PRMIOEND)
 0008BC 00000008                    6650                             =A(8)
 0008C0 00000001                    6651                             =A(1)
 0008C4 0000007D                    6652                             =A(QUOTCHAR)
 0008C8 00000008                    6653                             =A(L'#PDKEYUP)
 0008CC E8C5E240                    6654                             =C'YES '
 0008D0 D6C6C640                    6655                             =C'OFF '
 0008D4 00000004                    6656                             =A(4)
 0008D8 00000000                    6657                             =V(DTBDTB)
 0008DC 00000000                    6658                             =V(STBSTB)
 0008E0 0004                        6659                             =Y(4)
 0008E2 0014                        6660                             =Y(PEHSUB-PARMHELEM)
 0008E4 0008                        6661                             =Y(8)
 0008E6 FFFC                        6662                             =Y(-4)
 0008E8 D6D540                      6663                             =C'ON '
 0008EB D5D640         0091E 0091E  6664                             =C'NO '

1PARMS    (PARM00) (09:43) (22MAR04) Ordinary Symbol and Literal Cross Reference                                            Page   37
-Symbol   Length   Value     Id    R Type   Defn References                                  HLASM R4.0  2004/03/22 09.43
0$$$@R0        1 00000000 FFFFFFFE     J     714 1010
 $$$@R1        1 00000000 FFFFFFFD     J     727 1022
 $$$@R10       1 00000000 FFFFFFF4     J     844 1142
 $$$@R11       1 00000000 FFFFFFF3     J     857 1154
 $$$@R12       1 00000000 FFFFFFF2     J     870 1166
 $$$@R13       1 00000000 FFFFFFF1     J     883 1178
 $$$@R14       1 00000000 FFFFFFF0     J     896 1190
 $$$@R15       1 00000000 FFFFFFEF     J     909 1202
 $$$@R2        1 00000000 FFFFFFFC     J     740 1034
 $$$@R3        1 00000000 FFFFFFFB     J     753 1046
 $$$@R4        1 00000000 FFFFFFFA     J     766 1058
 $$$@R5        1 00000000 FFFFFFF9     J     779 1070
 $$$@R6        1 00000000 FFFFFFF8     J     792 1082
 $$$@R7        1 00000000 FFFFFFF7     J     805 1094
 $$$@R8        1 00000000 FFFFFFF6     J     818 1106
 $$$@R9        1 00000000 FFFFFFF5     J     831 1118  1130
 $$$C1PARMS
               1 0000091E 00000001     J    6665 6667
 $$$D0PARMS
               1 000008EE 00000001     J    1220 3815  4128  4308  4546  5090  5301  6002  6095
 $$$R#PARMDO
               1 00000000 FFFFFFD4     J    5408 5425  5425
 $$$R#PARMPARS
               1 00000000 FFFFFFD5     J    4717 4730  4730
 $$$R#PARMREC
               1 00000000 FFFFFFD6     J    3477 3491  3491
 $$$R@BTD      1 00000000 FFFFFFE9     J    1471 1501  1501
 $$$R@BTS      1 00000000 FFFFFFE7     J    1531 1548  1548
 $$$R@BTX      1 00000000 FFFFFFE8     J    1507 1525  1525
 $$$R@DTB      1 00000000 FFFFFFEC     J    1376 1401  1401
 $$$R@MEMFREE
               1 00000000 FFFFFFE1     J    1826 1889  1889
 $$$R@MEMGET
               1 00000000 FFFFFFE2     J    1742 1814  1814
 $$$R@MEMINIT
               1 00000000 FFFFFFE3     J    1673 1730  1730
 $$$R@PARMDO
               1 00000000 FFFFFFE6     J    1561 1577  1577
 $$$R@PARMPARS
               1 00000000 FFFFFFD7     J    2689 2713  2713
 $$$R@PARMREC
               1 00000000 FFFFFFD8     J    2670 2683  2683
 $$$R@PRMIOPN
               1 00000000 FFFFFFE4     J    1647 1660  1660
 $$$R@STB      1 00000000 FFFFFFEA     J    1438 1465  1465
 $$$R@XTB      1 00000000 FFFFFFEB     J    1407 1432  1432
 $$$RCBAT      1 00000000 FFFFFFEE     J    1243 1291  1291
 $$$RFILEELEM
               1 00000000 FFFFFFDA     J    2604 2622  2622
 $$$RLELEM
               1 00000000 FFFFFFDF     J    2466 2481  2481
 $$$RLHEAD
               1 00000000 FFFFFFE0     J    2444 2460  2460
 $$$RPARMBASE
               1 00000000 FFFFFFDD     J    2521 2558  2558
1PARMS    (PARM00) (09:43) (22MAR04) Ordinary Symbol and Literal Cross Reference                                            Page   38
 $$$RPARMCB
               1 00000000 FFFFFFD9     J    2628 2664  2664
 $$$RPARMHEAD
               1 00000000 FFFFFFDE     J    2487 2515  2515
 $$$RPARMHELEM
               1 00000000 FFFFFFDC     J    2564 2578  2578
 $$$RPARMIN
               1 00000000 FFFFFFE5     J    1583 1641  1641
 $$$RPARMVELEM
               1 00000000 FFFFFFDB     J    2584 2598  2598
 $$$RRTCB      1 00000000 FFFFFFED     J    1304 1369  1369
 $$$101F       2 0000082A 00000001     H    6551 5858B 5872B
 $$$103F       2 00000684 00000001     H    5905 5890B
 $$$104B       4 00000690 00000001     I    5962 6029
 $$$104F       2 000006C2 00000001     H    6022 5962B 5983B 6028
 $$$106        6 00000912 00000001     I    6008 6000X
 $$$107        6 00000912 00000001     I    6007 6008  6008
 $$$108B       4 000006CA 00000001     I    6045 6204
 $$$108E       2 000006C6 00000001     H    6036 6030
 $$$108F       2 00000740 00000001     H    6200 6032B 6045B 6066B 6203
 $$$111F       2 000006F4 00000001     H    6090 6081B
 $$$112        6 00000918 00000001     I    6101 6093X
 $$$113        6 00000918 00000001     I    6100 6101  6101
 $$$114F       2 0000070E 00000001     H    6130 6120B
 $$$115F       2 0000071E 00000001     H    6153 6143B
 $$$116F       2 00000740 00000001     H    6196 6182B
 $$$116T       2 00000732 00000001     H    6185 6170B
 $$$118B       4 00000748 00000001     I    6220 6359
 $$$118E       2 00000744 00000001     H    6211 6205
 $$$118F       2 0000079C 00000001     H    6352 6207B 6220B 6241B 6255B 6358
 $$$122B       4 0000078A 00000001     I    6318 6334
 $$$122F       2 00000794 00000001     H    6331 6318B 6333
 $$$123E       2 00000798 00000001     H    6341 6335
 $$$123F       2 0000079C 00000001     H    6348 6337B
 $$$124B       4 000007A4 00000001     I    6375 6526
 $$$124E       2 000007A0 00000001     H    6366 6360
 $$$124F       2 0000081E 00000001     H    6523 6362B 6375B 6397B 6525
 $$$127B       4 000007E8 00000001     I    6480 6505
 $$$127F       2 00000816 00000001     H    6502 6480B 6504
 $$$128E       2 0000081A 00000001     H    6512 6506
 $$$128F       2 0000081E 00000001     H    6519 6508B
 $$$129E       2 00000822 00000001     H    6533 6527
 $$$129F       2 00000826 00000001     H    6539 6529B
 $$$18F        2 000001A4 00000001     H    3435 3148B
 $$$18S        2 000000FA 00000001     H    3140 3434B
 $$$20F        2 0000012E 00000001     H    3225 3204B
 $$$22F        2 0000015E 00000001     H    3298 3277B
 $$$23F        2 000001A0 00000001     H    3430 3376B
 $$$23S        2 0000017E 00000001     H    3359 3429B
 $$$25F        2 0000041A 00000001     H    4689 3614B
 $$$27B        4 00000216 00000001     I    3709 3998
 $$$27F        2 000002A4 00000001     H    3991 3709B 3997
 $$$28F        2 0000024E 00000001     H    3808 3799B
 $$$29         6 000008EE 00000001     I    3821 3813X
 $$$30         6 000008EE 00000001     I    3820 3821  3821
 $$$31F        2 00000278 00000001     H    3895 3886B
 $$$31T        2 00000278 00000001     H    3889 3876B
 $$$33B        4 000002AE 00000001     I    4015 4202
 $$$33E        2 000002A8 00000001     H    4005 3999
1PARMS    (PARM00) (09:43) (22MAR04) Ordinary Symbol and Literal Cross Reference                                            Page   39
 $$$33F        2 00000314 00000001     H    4195 4001B 4015B 4201
 $$$35F        2 000002D0 00000001     H    4069 4048B
 $$$36F        2 000002EE 00000001     H    4121 4112B
 $$$37         6 000008F4 00000001     I    4134 4126X
 $$$38         6 000008F4 00000001     I    4133 4134  4134
 $$$39F        2 0000030E 00000001     H    4175 4154B
 $$$40B        4 0000031E 00000001     I    4219 4395
 $$$40E        2 00000318 00000001     H    4209 4203
 $$$40F        2 00000386 00000001     H    4389 4205B 4219B 4394
 $$$42F        2 00000356 00000001     H    4301 4292B
 $$$43         6 000008FA 00000001     I    4314 4306X
 $$$44         6 000008FA 00000001     I    4313 4314  4314
 $$$45E        2 0000038A 00000001     H    4402 4396
 $$$45F        2 0000041A 00000001     H    4670 4398B
 $$$46F        2 000003BA 00000001     H    4499 4484B
 $$$47         6 00000900 00000001     I    4552 4544X
 $$$48         6 00000900 00000001     I    4551 4552  4552
 $$$49F        2 0000041A 00000001     H    4656 4641B
 $$$50F        2 000005A0 00000001     H    5374 4845B 4938B 4949B 5040B 5266B
 $$$51F        2 0000046A 00000001     H    4832 4808B 4822B
 $$$51S        2 00000454 00000001     H    4799 4831B
 $$$55F        2 00000498 00000001     H    4921 4869B 4883B 4897B 4911B
 $$$55S        2 00000472 00000001     H    4860 4920B
 $$$62F        2 000004D0 00000001     H    5027 4973B 4987B 5017B
 $$$62S        2 000004AA 00000001     H    4964 5026B
 $$$62T        2 000004C8 00000001     H    5020 5005B
 $$$68F        2 00000512 00000001     H    5134 5059B
 $$$69F        2 000004F0 00000001     H    5083 5074B
 $$$70         6 00000906 00000001     I    5096 5088X
 $$$71         6 00000906 00000001     I    5095 5096  5096
 $$$72F        2 00000512 00000001     H    5130 5115B
 $$$73B        4 0000051A 00000001     I    5151 5164
 $$$73F        2 00000526 00000001     H    5161 5151B 5163
 $$$74E        2 0000052A 00000001     H    5171 5165
 $$$74F        2 00000544 00000001     H    5217 5167B
 $$$75F        2 00000542 00000001     H    5212 5188B 5202B
 $$$75S        2 0000052C 00000001     H    5179 5211B
 $$$78F        2 0000055C 00000001     H    5253 5233B 5243B
 $$$78S        2 00000546 00000001     H    5224 5252B
 $$$82F        2 00000576 00000001     H    5294 5285B
 $$$83         6 0000090C 00000001     I    5307 5299X
 $$$84         6 0000090C 00000001     I    5306 5307  5307
 $$$85F        2 000005A0 00000001     H    5360 5332B
 $$$86S        2 00000594 00000001     H    5343 5352B
 $$$89F        2 0000082E 00000001     H    6558 5689B 5736B 5770B 6542B
 $$$89S        2 000005F6 00000001     H    5578 5829B 6557B
 $$$90F        2 00000626 00000001     H    5676 5616B 5660B
 $$$90S        2 000005FA 00000001     H    5609 5675B
 $$$92F        2 0000061E 00000001     H    5663 5646B
 $$$95F        2 0000063C 00000001     H    5739 5720B
 $$$97F        2 0000064C 00000001     H    5773 5754B
 $$$99F        2 00000668 00000001     H    5845 5788B 5802B
 #PARMDO      32 00000000 FFFFFFD4     J    5425 5472U
 #PARMPARS
               8 00000000 FFFFFFD5     J    4730 4776U
 #PARMREC     25 00000000 FFFFFFD6     J    3491 3537U 3620M 3626U
 #PARSKEY      8 00000000 FFFFFFD5     C    4723 5064M 5095M 5106M 5114
 #PDFLTW       8 00000010 FFFFFFD4     D    5417 6487M 6488M 6489
 #PDFLT0       8 00000018 FFFFFFD4     D    5418 6485M 6494
1PARMS    (PARM00) (09:43) (22MAR04) Ordinary Symbol and Literal Cross Reference                                            Page   40
 #PDKEYUP      8 00000008 FFFFFFD4     C    5416 5634M 5635M 5645  6091M 6100M 6119  6126M 6142  6149M 6167  6181  6187
                                                 6653
 #PDLAST       4 00000000 FFFFFFD4     A    5414 5544M 5733  5767  5801  5871
 #RECKEY       8 00000011 FFFFFFD6     C    3484 4100M 4133M 4153
 @BTDFLG       1 0000000C FFFFFFE9     R    1482 1486  1491
 @BTDLEN       4 00000008 FFFFFFE9     A    1479 1494  1494
 @BTDLOC       4 00000004 FFFFFFE9     A    1478 1494  1494
 @BTSLEN       4 00000004 FFFFFFE7     A    1538 1541  1541
 @BTSLOC       4 00000000 FFFFFFE7     A    1537 1541  1541
 @BTXLEN       4 00000008 FFFFFFE8     A    1515 1518  1518
 @BTXLOC       4 00000004 FFFFFFE8     A    1514 1518  1518
 @DTB          9 00000000 FFFFFFEC     J    1401 6274U 6282M 6282
 @DTBFLG       1 00000008 FFFFFFEC     R    1387 1391
 @DTBLEN       4 00000004 FFFFFFEC     A    1383 1394  1394  6303M
 @DTBLOC       4 00000000 FFFFFFEC     A    1382 1394  1394  6293M
 @DTBVALID
             128 00000008 FFFFFFEC         1391 6317
 @MEMFREE     10 00000000 FFFFFFE1     J    1889 3313U 3321M 3321
 @MEMGET      10 00000000 FFFFFFE2     J    1814 2795U 2803M 2803  3027U 3035M 3035  3728U 3736M 3736  4239M 4239  4416M
                                                 4416  4517M 4517
 @MFFTYPE      1 00000009 FFFFFFE1     R    1841 1852  1861  1870  1879
 @MFLEN        4 00000004 FFFFFFE1     A    1835 3329M
 @MFLL         8 00000000 FFFFFFE1     D    1832 1833
 @MFLOC        4 00000000 FFFFFFE1     A    1834 3334M
 @MFTYPE       2 00000008 FFFFFFE1     H    1837 1838
 @MGFTYPE      1 00000009 FFFFFFE2     R    1760 1768  1777  1786  1795  1804
 @MGLEN        4 00000004 FFFFFFE2     A    1751 2811M 3043M 3744M 4247M 4424M 4518M
 @MGLL         8 00000000 FFFFFFE2     D    1748 1749
 @MGTYPE       2 00000008 FFFFFFE2     H    1753 1757
 @MIFLAG       1 00000000 FFFFFFE3     R    1681 1685
 @MIWFLAG      1 00000001 FFFFFFE3     R    1693 1703  1712  1721
 @PARILEN      4 00000004 FFFFFFE6     A    1568 5540
 @PARILOC      4 00000000 FFFFFFE6     A    1567 5539  5546  5937
 @PARMDO      16 00000000 FFFFFFE6     J    1577 5465U 5472U
 @PARMPARS
              17 00000000 FFFFFFD7     J    2713 3483  3553U 3561M 3561  3620  3626U 4769U 4776U
 @PARMREC      4 00000000 FFFFFFD8     J    2683 3398U 3406M 3406  3530U 3537U
 @PAROLEN      4 0000000C FFFFFFE6     A    1570 5970  5995M 6053  6188M 6226  6381
 @PAROLOC      4 00000008 FFFFFFE6     A    1569 5969  6052  6225  6380
 @PARSFLG      1 00000010 FFFFFFD7     R    2700 2704
 @PARSFMUL
             128 00000010 FFFFFFD7         2704 3873  4483  5058  5125M
 @PARSKEY      8 00000008 FFFFFFD7     C    2697 3611M 3611  3708  4014  4218  4467  4785M 4785  5275M 5306M 5314M
 @PARSLEN      4 00000004 FFFFFFD7     A    2696 3590M 3789  4102  4282  4503  4787  5319M
 @PARSLOC      4 00000000 FFFFFFD7     A    2695 3578M 3788  4101  4281  4539  4786  5318M
 @PRMIONM      8 00000000 FFFFFFE4     C    1653 3263M
 @PRMIOPN      8 00000000 FFFFFFE4     J    1660 3250U 3258M 3258
 @RA           0 00000000 FFFFFFFC     @    1035 3573  3579  4821  4827  4882  4896  4910  4916  4986  5002  5016  5022
                                                 5150  5157  5242  5248  5634  5826  6007M 6187M 6323M 6493M
 @RB           0 00000000 FFFFFFFB     @    1047 3820  4133  4313  4551M 4559M 5201  5207  5345
 @RECLOC       4 00000000 FFFFFFD8     A    2676 3416M 3543
 @RJ           0 00000000 FFFFFFFA     @    1059 4551  5095  5306  5967  6050  6100  6261  6263  6403  6405
 @RS           0 00000000 FFFFFFFD     @    1023 4504  5346M
 @R0           0 00000000 FFFFFFFE     @     715  991U
 @R1           0 00000000 FFFFFFFD     @     728  987U
 @R10          0 00000000 FFFFFFF4     @     845  951U 2901U 3458U 4687U 5372U 6575U 6624U
 @R11          0 00000000 FFFFFFF3     @     858  947U
 @R12          0 00000000 FFFFFFF2     @     871  943U 4682U 5367U 6570U
 @R13          0 00000000 FFFFFFF1     @     884  939U 2912U 3247U 3310U 3395U 3469U 3725U 4698U 6416U 6586U
1PARMS    (PARM00) (09:43) (22MAR04) Ordinary Symbol and Literal Cross Reference                                            Page   41
 @R14          0 00000000 FFFFFFF0     @     897  935U
 @R15          0 00000000 FFFFFFEF     @     910  931U
 @R2           0 00000000 FFFFFFFC     @     741  983U 3448U 3988U 4076U 4192U 4386U 4667U 5569U
 @R3           0 00000000 FFFFFFFB     @     754  979U 5602U
 @R4           0 00000000 FFFFFFFA     @     767  975U 4662U 5672U 5818U 5839U 5911U 5935U
 @R5           0 00000000 FFFFFFF9     @     780  971U
 @R6           0 00000000 FFFFFFF8     @     793  967U 6548U
 @R7           0 00000000 FFFFFFF7     @     806  963U
 @R8           0 00000000 FFFFFFF6     @     819  959U 2837U 2896U 2991U 3453U 3677U 4677U 5521U 6565U
 @R9           0 00000000 FFFFFFF5     @     832  955U 2843U 2967U 3653U 5497U
 @STB         13 00000000 FFFFFFEA     J    1465 6419U 6427M 6427
 @STBFLG       1 0000000C FFFFFFEA     R    1451 1455
 @STBLEN       4 00000004 FFFFFFEA     A    1445 1458  1458  6448M
 @STBLOC       4 00000000 FFFFFFEA     A    1444 1458  1458  6438M
 @STBSCAL      4 00000008 FFFFFFEA     A    1448 6465M
 @STBVALID
             128 0000000C FFFFFFEA         1455 6479
 @XTBFLG       1 00000008 FFFFFFEB     R    1418 1422
 @XTBLEN       4 00000004 FFFFFFEB     A    1414 1425  1425
 @XTBLOC       4 00000000 FFFFFFEB     A    1413 1425  1425
 ASNCHAR       1 0000007E 00000001 A   U    4712 4896  5016
 BR           10 0000000A FFFFFFFF A   #    1136 2735M 2745U 2927M 2937U 3504M 3514U 4743M 4753U 5439M 5449U 6600M 6610U
 CBAT        144 00000000 FFFFFFEE     J    1291 2780U 2978U 3664U 5508U
 CBATPARM      4 00000068 FFFFFFEE     A    1278 2830M 2984  3670  5514
 DTBDTB        1 00000000 00000007     T    6657 6657
 EOLNCHAR      1 0000005E 00000001 A   U    4711 4910  4986  5201
 EPAR         15 0000000F FFFFFFFF A   #    1196 2735  2828M 2829B 2888M 2889B 2927  3060M 3061B 3266M 3267B 3347M 3348B
                                                 3363M 3364B 3424M 3425B 3440M 3441B 3504  3598M 3599B 3761M 3762B 4264M
                                                 4265B 4441M 4442B 4535M 4536B 4743  5439  6306M 6307B 6468M 6469B 6600
 FILEELEM     20 00000000 FFFFFFDA     J    2622 3042  3072U 3328  3333  4246  4276U
 FILHDR        4 00000010 FFFFFFDA     A    2615 3077M 3234  4321M
 FILNAME       8 00000008 FFFFFFDA     C    2614 3263  4280M 4313M
 HIBAL         1 00000000 FFFFFFFF     J     700  716   729   742   755   768   781   794   807   820   833   846   859
                                                  872   885   898   911  1012  1024  1036  1048  1060  1072  1084  1096
                                                 1108  1120  1132  1144  1156  1168  1180  1192  1204
 LBP           4 00000004 FFFFFFDF     A    2474 3131M 3220M 3960M 4378M 4625M
 LELEM         8 00000000 FFFFFFDF     J    2481 3125M 3131M 3132M 3219  3220M 3221M 3954M 3960M 3961M 4372M 4378M 4379M
                                                 4619M 4625M 4626M
 LFP           4 00000000 FFFFFFDF     A    2473 3125M 3132M 3219  3221M 3954M 3961M 4372M 4379M 4619M 4626M
 LHBP          4 00000004 FFFFFFE0     A    2452 3118  3124M 3947  3953M 4365  4371M 4612  4618M
 LHCNT         4 00000008 FFFFFFE0     A    2453 3110  3111M 3185  3210M 3939  3940M 4357  4358M 4604  4605M
 LHEAD        12 00000000 FFFFFFE0     J    2460 3110  3111M 3118  3124M 3185  3210M 3217  3939  3940M 3947  3953M 4357
                                                 4358M 4365  4371M 4604  4605M 4612  4618M
 LHFP          4 00000000 FFFFFFE0     A    2451 3217
 MEMFREE       1 00000000 00000004     T    6647 6647
 MEMGET        1 00000000 00000002     T    6643 6643
 MFA16M       16 00000009 FFFFFFE1         1852 3343  3343  3344M
 MFGLOB        2 00000009 FFFFFFE1         1879 3343  3343
 MGA16M       16 00000009 FFFFFFE2         1768 2822  2822  2823  2823  2825M 3054  3054  3055  3055  3057M 3755  3755
                                                 3756  3756  3758M 4258  4258  4259  4259  4261M 4435  4435  4436  4436
                                                 4438M 4529  4529  4530  4530  4532M
 MGBEST        1 00000009 FFFFFFE2         1804 2823  2823  2824  2824  3055  3055  3056  3056  3756  3756  3757  3757
                                                 4259  4259  4260  4260  4436  4436  4437  4437  4530  4530  4531  4531
 MGGLOB        2 00000009 FFFFFFE2         1795 2822  2822  2824  2824  3054  3054  3056  3056  3755  3755  3757  3757
                                                 4258  4258  4260  4260  4435  4435  4437  4437  4529  4529  4531  4531
 PAR                      00000001 A   U    3847 3885
 PARMBASE     20 00000000 FFFFFFDD     J    2558 2570  2590  3782U 4098U 4462U 5630U 5704U 5842U
 PARMCB       41 00000000 FFFFFFD9     J    2664 2810  2854U 2864M 2864  3002U 3688U 5532U
 PARMCHDR      4 00000024 FFFFFFD9     A    2643 3234M 3842  3930  3982M 4022  4186M 4321  4563
1PARMS    (PARM00) (09:43) (22MAR04) Ordinary Symbol and Literal Cross Reference                                            Page   42
 PARMCLOS      4 0000084C 00000001     I    6599 6610U
 PARMDO        4 000005B6 00000001     I    5438 5433  5449U
 PARMFFLT     12 00000000 FFFFFFE5         1630 6374
 PARMFILS     12 00000018 FFFFFFD9     N    2638 2877  3101  3169  4348
 PARMFINT      4 00000000 FFFFFFE5         1610 6219
 PARMFSTR      0 00000000 FFFFFFE5         1600 5961
 PARMFYN       8 00000000 FFFFFFE5         1620 6044
 PARMHEAD     20 00000000 FFFFFFDE     J    2515 2571  2635  2871U 3011U 3076  3834U 3847U 3977  4032U 4181U 4573U 5589U
 PARMHELEM
              40 00000000 FFFFFFDC     J    2578 3743  3773U 4089U 5821U 6660
 PARMID        4 00000000 FFFFFFD9     C    2634 2865M
 PARMIN        4 00000000 FFFFFFE5     J    1641 5556U 5947U
 PARMINIT      4 00000022 00000001     I    2734 2729  2745U
 PARMKEYS      4 00000004 FFFFFFE5     A    1634 5562
 PARMOPEN      4 00000098 00000001     I    2926 2937U 6645
 PARMPARS      4 00000430 00000001     I    4742 3598  4753U
 PARMREC       4 000001C0 00000001     I    3503 3424  3514U
 PARMROOT     20 00000004 FFFFFFD9     X    2635 2871U 3011U 5571
 PARMS         1 00000000 00000001     J    1219 1216  1217  1221  1292  1370  1402  1433  1466  1502  1526  1549  1578
                                                 1642  1661  1731  1815  1890  2461  2482  2516  2559  2579  2599  2623
                                                 2665  2684  2714  3492  3826  4139  4319  4557  4731  5101  5312  5426
                                                 6013  6106
 PARMSTAT      1 00000028 FFFFFFD9     R    2646 2650  2655
 PARMTYPE      1 00000000 FFFFFFE5     R    1591 1600  1610  1620  1630
 PARMVELEM
              24 00000000 FFFFFFDB     J    2598 4423  4453U 5922U
 PARM00        1 00000000 00000001     R    1228 1226
 PEFLEAF     128 00000010 FFFFFFDD         2538 4473M 5719  5753  5787  5857
 PEFLG         1 00000010 FFFFFFDD     R    2534 2538  2543  2548
 PEFMULT      32 00000010 FFFFFFDD         2548 4495M 4652M 5889
 PEFP          4 00000000 FFFFFFDD     A    2529 5666
 PEFSHOWN     64 00000010 FFFFFFDD         2543 5657  5901M
 PEHBASE      20 00000000 FFFFFFDC     X    2570 3782U 4098U
 PEHSUB       20 00000014 FFFFFFDC     X    2571 3834U 4181U 5825  6660
 PEKEY         8 00000008 FFFFFFDD     C    2531 3787M 3820M 4153  4467M 5645
 PEVAL         4 00000014 FFFFFFDB     A    2591 4538M 5928
 PEVBASE      20 00000000 FFFFFFDB     X    2590 4462U
 PFILBP        4 0000001C FFFFFFD9     A    2640 2879M
 PFILCNT       4 00000020 FFFFFFD9     A    2641 3147M 3147
 PFILFP        4 00000018 FFFFFFD9     A    2639 2878M
 PHBP          4 00000004 FFFFFFDE     A    2496 2875M 3841M
 PHFLG         1 00000010 FFFFFFDE     R    2501 2505
 PHFMULT     128 00000010 FFFFFFDE         2505 3885  4640
 PHFP          4 00000000 FFFFFFDE     A    2495 2874M 3840M 5595
 PHHEAD       12 00000000 FFFFFFDE     N    2494 2873  3839
 PHPAR         4 0000000C FFFFFFDE     A    2498 3861M 4047M 4047  4186
 PPLOOP        2 00000454 00000001     H    4790 5126B
 PRMIOEND      1 00000000 00000006     T    6649 6649
 PRMIOPEN      1 00000000 00000003     T    6646 6646
 PRMIORD       1 00000000 00000005     T    6648 6648
 QUOTCHAR      1 0000007D 00000001 A   U    4713 5150  5156  6652
 RA            2 00000002 FFFFFFFF A   #    1028 2873M 2874  2875  2877M 2878  2879  3062M 3072U 3226M 3385M 3543M 3763M
                                                 3773U 4022M 4032U 4079M 4089U 4266M 4276U 4443M 4453U 4786M 4788  4807
                                                 4827M 4842  4854  4868  4916M 4922  4935  4972  5022M 5037  5157M 5173
                                                 5218  5232  5248M 5254M 5263M 5263  5319  5345  5539M 5542  5546M 5556U
                                                 5562M 5733  5767  5801  5826M 5871  5969M 6052M 6225M 6380M
 RAR          14 0000000E FFFFFFFF A   #    1184 2829M 2889M 2906B 3061M 3267M 3348M 3364M 3425M 3441M 3463B 3599M 3762M
                                                 4265M 4442M 4536M 4692B 5377B 6307M 6469M 6580B 6629B
 RB            3 00000003 FFFFFFFF A   #    1040 3076M 3077  3579M 3580M 3788M 3839M 3840  3841  4101M 4281M 4537M 4538
1PARMS    (PARM00) (09:43) (22MAR04) Ordinary Symbol and Literal Cross Reference                                            Page   43
                                                 4854M 4923  4955  5173M 5187  5207M 5213  5218M 5254  5318  5338M 5540M
                                                 5541M 5541  5542M 5543M 5544  5571M 5589U 5615  5686  5825M 5970M 5980M
                                                 5980  5992  5994  6053M 6063M 6063  6226M 6238M 6238  6252  6381M 6394
 RJ            4 00000004 FFFFFFFF A   #    1052 3842M 4539M 4563M 4573U 4955M 5595M 5615  5630U 5666M 5686  5704U 5821U
                                                 5922U 5928M 6007  6263M 6405M
 RK            5 00000005 FFFFFFFF A   #    1064 4504M 4518  4559  4922M 4923M 4946M 4946  5067  5079M 5086M 5088  5105M
                                                 5278  5290M 5297M 5299  5967M 5968M 5992  5994M 5995  5998M 6000  6050M
                                                 6051M 6074  6086M 6093  6261M 6262M 6403M 6404M
 RM            8 00000008 FFFFFFFF A   #    1100 2770M 2780U 2831M 2854U 2960M 2978U 2984M 3002U 3646M 3664U 3670M 3688U
                                                 5138M 5156M 5242  5331  5490M 5508U 5514M 5532U
 RS            1 00000001 FFFFFFFF A   #    1016 3789M 3792  3804M 3811M 3813  4102M 4105  4117M 4124M 4126  4282M 4285
                                                 4297M 4304M 4306  4503M 4542M 4544  4787M 4788M 4807  4842  4868  4935
                                                 4972  5037  5187  5213M 5232  5345M
 RTCB        176 00000000 FFFFFFED     J    1369 2765U 2954U 3640U 5484U
 RTCBCBAT      4 00000004 FFFFFFED     A    1314 2770  2960  3646  5490
 RTCBR         9 00000009 FFFFFFFF A   #    1124 2765U 2954U 3640U 5484U
 RVR           0 00000000 FFFFFFFF A   #    1004 2810M 2811  2830  2831  3042M 3043  3062  3178M 3178  3218M 3226  3276M
                                                 3276  3328M 3329  3333M 3334  3373M 3373  3385  3573M 3743M 3744  3763
                                                 3977M 4246M 4247  4266  4423M 4424  4443  4537  5572M 5971M 6018M 6018
                                                 6054M 6192M 6192  6227M 6323  6327M 6327  6344M 6382M 6460M 6486M 6487
                                                 6498M 6498  6515M 6535M
 RX            6 00000006 FFFFFFFF A   #    1076 5937M 5947U
 R0            0 00000000 FFFFFFFF A   #     708 2734  2926  3503  4742  5438  6485  6489M 6490M 6491M 6492M 6492  6493
                                                 6494M 6599
 R1            1 00000001 FFFFFFFF A   #     721 2904M 3461M 4690M 5375M 6578M 6627M
 R15          15 0000000F FFFFFFFF A   #     903 2734  2904M 2926  3461M 3503  4690M 4742  5375M 5438  6578M 6599  6627M
 SKIPCHAR      1 00000040 00000001 A   U    4710 4821  4882  5002
 SPR          13 0000000D FFFFFFFF A   #    1172 2734  2749  2750  2752M 2795U 2926  2941  2942  2944M 3027U 3250U 3313U
                                                 3398U 3503  3518  3519  3539M 3553U 3728U 4742  4757  4758  4778M 5438
                                                 5453  5454  5474M 6274U 6419U 6599  6614  6615  6617M
 STBSTB        1 00000000 00000008     T    6658 6658
 TWO31         7 00000838 00000001     X    6589 6486  6488  6490
 WAR          12 0000000C FFFFFFFF A   #    1160 2749  2750M 2751  2752  2904  2905  2941  2942M 2943  2944  3461  3462
                                                 3518  3519M 3520  3530U 3539  4690  4691  4757  4758M 4759  4769U 4778
                                                 5375  5376  5453  5454M 5455  5465U 5474  6578  6579  6614  6615M 6616
                                                 6617  6627  6628
 =A(L'#PDKEYUP)
               4 000008C8 00000001     A    6653 6074  6086
 =A(PARMOPEN)
               4 000008A8 00000001     A    6645 2888
 =A(QUOTCHAR)
               4 000008C4 00000001     A    6652 5331
 =A(1)         4 000008C0 00000001     A    6651 5105  6188
 =A(4)         4 000008D4 00000001     A    6656 6252  6394
 =A(8)         4 000008BC 00000001     A    6650 3792  3804  4105  4117  4285  4297  5067  5079  5278  5290
 =C'NO '       3 000008EB 00000001     C    6664 6149  6181
 =C'OFF '      4 000008D0 00000001     C    6655 6142
 =C'ON '       3 000008E8 00000001     C    6663 6119
 =C'YES '      4 000008CC 00000001     C    6654 6126  6167
 =CL4'PARM'
               4 000008A4 00000001     C    6644 2865
 =CL8' '       8 00000878 00000001     C    6638 3787  4100  4280  5064  5106  5275  5314  5635  6091
 =CL8'BEGIN'
               8 00000870 00000001     C    6637 3708
 =CL8'END'
               8 00000880 00000001     C    6639 4014
 =CL8'INCLUDE'
               8 00000888 00000001     C    6640 4218
 =CL8'RESCAN'
1PARMS    (PARM00) (09:43) (22MAR04) Ordinary Symbol and Literal Cross Reference                                            Page   44
               8 00000890 00000001     C    6641 5114
 =D'1E4'       8 00000898 00000001     D    6642 6491
 =V(DTBDTB)
               4 000008D8 00000001     V    6657 6306
 =V(MEMFREE)
               4 000008B0 00000001     V    6647 3347
 =V(MEMGET)
               4 000008A0 00000001     V    6643 2828  3060  3761  4264  4441  4535
 =V(PRMIOEND)
               4 000008B8 00000001     V    6649 3440
 =V(PRMIOPEN)
               4 000008AC 00000001     V    6646 3266
 =V(PRMIORD)
               4 000008B4 00000001     V    6648 3363
 =V(STBSTB)
               4 000008DC 00000001     V    6658 6468
 =Y(-4)        2 000008E6 00000001     Y    6662 5971  6054  6227  6344  6382  6515  6535
 =Y(PEHSUB-PARMHELEM)
               2 000008E2 00000001     Y    6660 4079
 =Y(4)         2 000008E0 00000001     Y    6659 3580  5968  6051  6262  6404
 =Y(8)         2 000008E4 00000001     Y    6661 5543

1PARMS    (PARM00) (09:43) (22MAR04) Macro and Copy Code Source Summary                                                     Page   45
- Con Source                                        Volume    Members                        HLASM R4.0  2004/03/22 09.43
0     PRIMARY INPUT                                           $RL      CSECT    DROP     END      EX       LADD     LLRU
                                                              LREM     LREMALL  LSTCHK   LTORG    POP      PRINT    PUSH
                                                              START    USING
   L2 WYL.GG.ORV.MACLIB                             SYSB02    $LKPARM  ACALL    CBAT     CONVPARM DTB      HEADER
                                                              KAPUT    LCALL    LELEM    LHEAD    LSTMAC   MEMFREE
                                                              MEMGET   MEMPARM  MODULE   MOVSTR   PARMPARM PEND     PMOV
                                                              PROC     PSET     REG      RTCB     SPLEVEL  STB
                                                              VCALL
   L3 WYL.GG.SYS.MACLIB                             SYSB05    $BC      $BFLKUP  $BV      $CCLKUP  $CRS     $CSS     $L
                                                              $LA      $LBLAD   $LEXP    $LOR     $REL     $RGLKUP
                                                              $USLKUP  AUSING   BEGIN    CEIL     CLEAR    CSECT    DATA
                                                              DECR     DEFCC    DEX      DROP     ELSE     ELSEIF   END
                                                              EX       EXIT     FLAG     GEN      HIBAL    IDENT    IF
                                                              INCR     LABEL    LOOP     LTORG    NEXT     POP
                                                              PRINT    PUSH     RECORD   REGS     SET      START    STF
                                                              UNTIL    USING    WHILE    WITH
   L4 SYS1.MACLIB                                   MVSBR9    ABEND    IHBINNRR SYSSTATE

1         (PARM00) (09:43) (22MAR04) General Purpose Register Cross Reference                                               Page   46
- Register  References (M=modified, B=branch, U=USING, D=DROP, N=index)                      HLASM R4.0  2004/03/22 09.43
0    0(0)     991U  992D 2734  2810M 2811  2830  2831  2926  3042M 3043  3062  3178M 3178  3218M 3226  3276M 3276  3291M
             3292M 3293  3328M 3329  3333M 3334  3373M 3373  3385  3503  3573M 3578  3743M 3744  3763  3977M 3982  4062M
             4063M 4064  4168M 4169M 4170  4246M 4247  4266  4423M 4424  4443  4537  4742  5438  5572M 5971M 6018M 6018
             6054M 6192M 6192  6227M 6323  6327M 6327  6344M 6382M 6460M 6465  6486M 6487  6498M 6498  6515M 6535M 6599
     1(1)     987U 2734  2904M 2926  3101M 3110  3111  3118  3124  3125  3193M 3195  3290M 3293M 3461M 3503  3789M 3792
             3804M 3811M 3813  3930M 3939  3940  3947  3953  3954  4061M 4064M 4102M 4105  4117M 4124M 4126  4167M 4170M
             4282M 4285  4297M 4304M 4306  4348M 4357  4358  4365  4371  4372  4503M 4542M 4544  4690M 4742  4787M 4788M
             4807  4842  4868  4935  4972  5037  5187  5213M 5232  5345M 5375M 5438  6578M 6599  6627M
     2(2)     983U 2734  2873M 2874  2875  2877M 2878  2879  2904M 2926  3062M 3072U 3124  3125  3131  3132  3226M 3385M
             3416  3448U 3461M 3503  3543M 3763M 3773U 3953  3954  3960  3961  3988U 4022M 4032U 4076U 4079M 4089U 4192U
             4266M 4276U 4371  4372  4378  4379  4386U 4443M 4453U 4618  4619  4625  4626  4667U 4690M 4742  4786M 4788
             4807  4827M 4842  4854  4868  4916M 4922  4935  4972  5022M 5037  5157M 5173  5218  5232  5248M 5254M 5263M
             5263  5319  5345N 5352M 5375M 5438  5539M 5542  5546M 5556U 5562M 5569U 5733  5767  5801  5826M 5871  5969M
             6052M 6225M 6380M 6578M 6599  6627M
     3(3)     979U 2734  2904M 2926  3076M 3077  3461M 3503  3579M 3580M 3590  3788M 3839M 3840  3841  4101M 4281M 4537M
             4538  4690M 4742  4854M 4923  4955  5173M 5187  5207M 5213  5218M 5254  5318  5338M 5375M 5438  5540M 5541M
             5541  5542M 5543M 5544  5571M 5589U 5602U 5615  5686  5825M 5970M 5980M 5980  5992  5994  6053M 6063M 6063
             6226M 6238M 6238  6252  6381M 6394  6578M 6599  6627M
     4(4)     975U 2734  2904M 2926  3461M 3503  3842M 3847U 3861  4539M 4563M 4573U 4604  4605  4612  4618  4619  4662U
             4690M 4742  4955M 5375M 5438  5595M 5615  5630U 5666M 5672U 5686  5704U 5818U 5821U 5839U 5842U 5911U 5922U
             5928M 5935U 6007  6263M 6293  6405M 6438  6578M 6599  6627M
     5(5)     971U 2734  2904M 2926  3461M 3503  4504M 4518  4559  4690M 4742  4922M 4923M 4946M 4946  5067  5079M 5086M
             5088  5105M 5278  5290M 5297M 5299  5375M 5438  5967M 5968M 5992  5994M 5995  5998M 6000  6050M 6051M 6074
             6086M 6093  6261M 6262M 6303  6403M 6404M 6448  6578M 6599  6627M
     6(6)     967U 2734  2904M 2926  3461M 3503  4690M 4742  5375M 5438  5937M 5947U 6548U 6578M 6599  6627M
     7(7)     963U 2734  2904M 2926  3461M 3503  4690M 4742  5375M 5438  6578M 6599  6627M
     8(8)     959U 2734  2770M 2780U 2831M 2837U 2854U 2896U 2904M 2926  2960M 2978U 2984M 2991U 3002U 3453U 3461M 3503
             3646M 3664U 3670M 3677U 3688U 4677U 4690M 4742  5138M 5156M 5242  5331  5375M 5438  5490M 5508U 5514M 5521U
             5532U 6565U 6578M 6599  6627M
     9(9)     955U 2734  2765U 2843U 2904M 2926  2954U 2967U 3461M 3503  3640U 3653U 4690M 4742  5375M 5438  5484U 5497U
             6578M 6599  6627M
    10(A)     951U 2734  2735M 2745U 2901U 2904M 2926  2927M 2937U 3458U 3461M 3503  3504M 3514U 4687U 4690M 4742  4743M
             4753U 5372U 5375M 5438  5439M 5449U 6575U 6578M 6599  6600M 6610U 6624U 6627M
    11(B)     947U 2734  2904M 2926  3461M 3503  4690M 4742  5375M 5438  6578M 6599  6627M
    12(C)     943U 2734  2749  2750M 2751  2752  2904M 2904  2905  2926  2941  2942M 2943  2944  3461M 3461  3462  3503
             3518  3519M 3520  3530U 3539  4682U 4690M 4690  4691  4742  4757  4758M 4759  4769U 4778  5367U 5375M 5375
             5376  5438  5453  5454M 5455  5465U 5474  6570U 6578M 6578  6579  6599  6614  6615M 6616  6617  6627M 6627
             6628
    13(D)     939U 2734  2734  2749  2750  2752M 2795U 2904M 2912U 2926  2926  2941  2942  2944M 3027U 3247U 3250U 3310U
             3313U 3395U 3398U 3461M 3469U 3503  3503  3518  3519  3539M 3553U 3725U 3728U 4690M 4698U 4742  4742  4757
             4758  4778M 5375M 5438  5438  5453  5454  5474M 6274U 6416U 6419U 6578M 6586U 6599  6599  6614  6615  6617M
             6627M
    14(E)     935U 2734  2829M 2889M 2904M 2906B 2926  3061M 3109M 3110M 3111  3118M 3131  3132  3169M 3185  3210  3217
             3220  3221  3267M 3348M 3364M 3425M 3441M 3461M 3463B 3503  3599M 3762M 3938M 3939M 3940  3947M 3960  3961
             4265M 4356M 4357M 4358  4365M 4378  4379  4442M 4536M 4603M 4604M 4605  4612M 4625  4626  4690M 4692B 4742
             5375M 5377B 5438  6307M 6469M 6578M 6580B 6599  6627M 6629B
    15(F)     931U 2734  2735  2828M 2829B 2888M 2889B 2904M 2926  2927  3060M 3061B 3185M 3195M 3210  3217M 3218  3219M
             3219  3220  3221  3266M 3267B 3347M 3348B 3363M 3364B 3424M 3425B 3440M 3441B 3461M 3503  3504  3598M 3599B
             3761M 3762B 4264M 4265B 4441M 4442B 4535M 4536B 4690M 4742  4743  5375M 5438  5439  6306M 6307B 6468M 6469B
             6578M 6599  6600  6627M

1PARMS    (PARM00) (09:43) (22MAR04) Diagnostic Cross Reference and Assembler Summary                                       Page   47
-                                                                                            HLASM R4.0  2004/03/22 09.43
0     No Statements Flagged in this Assembly
 HIGH LEVEL ASSEMBLER, 5696-234, RELEASE 4.0, PTF UQ57391
0SYSTEM: OS/390 02.10.00            JOBNAME: PJG#PARM    STEPNAME: ASM        PROCSTEP: (NOPROC)
0Datasets Allocated for this Assembly
  Con DDname   Dataset Name                                 Volume  Member
   P1 SYSIN    SYS04082.T094333.RA000.PJG#PARM.INPUT.H01    SCR101
   L1 SYSLIB   SYS3.DUMMYMAC                                SYSB02
   L2          WYL.GG.ORV.MACLIB                            SYSB02
   L3          WYL.GG.SYS.MACLIB                            SYSB05
   L4          SYS1.MACLIB                                  MVSBR9
      SYSLIN   WYL.GG.PJG.OBJ                               SYSB05  PARMS
      SYSPRINT SYS04082.T094333.RA000.PJG#PARM.PRINT.H01    SCR101
      SYSTERM  GG$PJG.PJG#PARM.JOB05955.D0000103.?

    7812K allocated to Buffer Pool,         1089K would be required for this to be an In-Storage Assembly
     603 Primary Input Records Read         5164 Library Records Read                  0 Work File Reads
       0 ASMAOPT Records Read               3433 Primary Print Records Written         0 Work File Writes
      78 Punch Records Written                 0 ADATA Records Written
0Assembly Start Time: 09.43.34 Stop Time: 09.43.37 Processor Time: 00.00.01.3413
 Return Code 000
