1                        J E S 2  J O B  L O G  --  S Y S T E M  S Y S B  --  N O D E  R L G
0
 09.49.42 JOB06008 ---- MONDAY,    22 MAR 2004 ----
 09.49.42 JOB06008  ICH70001I GG$PJG   LAST ACCESS AT 09:49:33 ON MONDAY, MARCH 22, 2004
 09.49.42 JOB06008  $HASP373 PJG#VSSV STARTED - INIT 3    - CLASS E - SYS SYSB
 09.49.42 JOB06008  ***  HCMD      STEP $$QUIET
 09.49.42 JOB06008  PURGE * Q=OUTPUT MULTIPLE
 09.49.42 JOB06008  JOB PJG#VSSV NOT IN OUTPUT QUEUE
 09.49.43 JOB06008  PJG#VSSV.$$QUIET .         RC=0008 TapeIO=0000 DiskIO=0000 CPU=  .01s Elapsed=82.20s
 09.49.43 JOB06008  PJG#VSSV.$CND    .         RC=Zero TapeIO=0000 DiskIO=0002 CPU=  .01s Elapsed=83.24s
 09.49.43 JOB06008  PJG#VSSV.$UNP    .         RC=Zero TapeIO=0000 DiskIO=0020 CPU=  .05s Elapsed=83.35s
 09.49.47 JOB06008  PJG#VSSV.ASM     .         RC=Zero TapeIO=0000 DiskIO=0395 CPU= 1.92s Elapsed=83.56s
 09.49.47 JOB06008  PJG#VSSV.$EDIT   .         RC=Zero TapeIO=0000 DiskIO=0113 CPU=  .45s Elapsed=87.22s
 09.49.47 JOB06008  PJG#VSSV Ended.  Name=Module: VSSV                   Total CPU= 2.44s Elapsed=82.20s
 09.49.47 JOB06008
 09.49.47 JOB06008  Execution charges   Priority=Standard   Block=Day
 09.49.47 JOB06008
 09.49.47 JOB06008  CPU Usage          44.62          $27.66   Standard Processing Unit Equivalent
 09.49.47 JOB06008                                   =======
 09.49.47 JOB06008                                    $27.66   Total Job execution charge
 09.49.47 JOB06008
 09.49.47 JOB06008  See back separator page for print charges
 09.49.47 JOB06008
 09.49.48 JOB06008  $HASP395 PJG#VSSV ENDED  ASM=0
1        1 //PJG#VSSV JOB PJG$GG,'Module: VSSV',TIME=1,MSGCLASS=C                  JOB06008
           /*JOBPARM HOLD=OUTPUT,LINES=50,CHARS=TN15,NOTIFY=YES
         2 //       EXEC PURGEOLD
         3 XXPURGEOLD PROC
           XX*
           XX* This proc is maintained by Jim Stosick
           XX*
         4 XX$$QUIET  EXEC PGM=HCMDX,PARM='PURGE * Q=OUTPUT MULTIPLE',
           XX         ACCT=(PURGEOLD,SYS3)
         5 //$CND   EXEC PGM=BILBO,REGION=512K,PARM='RECS=100'
         6 //STEPLIB  DD DSN=WYL.GG.ORV.LINKLIB,DISP=SHR
         7 //SYSPRINT DD SYSOUT=$
         8 //SYSUT1   DD DSN=WYL.GG.PJG.OBJ,DISP=OLD
         9 //SYSUT2   DD DSN=WYL.GG.PJG.OBJ,DISP=OLD
        10 //SYSIN    DD DUMMY
        11 //$UNP   EXEC PGM=WUNPRESS,PARM='NUM'
        12 //SYSPRINT DD SYSOUT=$
        13 //SYSUT1   DD DSN=WYL.GG.ORV.SOURCE(VSSV),DISP=SHR
        14 //SYSUT2   DD DSN=&&INPUT,DISP=(,PASS),UNIT=SYSDA,
           //            SPACE=(TRK,(25,25),RLSE),DCB=CARD
        15 //ASM    EXEC PGM=ASMA90,REGION=8M,COND=(0,NE,$UNP),
           //            PARM=('SYSPARM(VSSV),TERM,LANG(EN),OBJ',
           //          'LC(32500),XREF(SHORT),NODECK,NORLD,NODX,NOUS')
           //*STEPLIB  DD DSN=SYS1.SASMMOD1,DISP=SHR
        16 //SYSLIB   DD DSN=SYS3.DUMMYMAC,DISP=SHR,DCB=BLKSIZE=27920
        17 //         DD DSN=WYL.GG.SYS.MACLIB,DISP=SHR
        18 //         DD DSN=WYL.GG.ORV.BC.MACLIB,DISP=SHR
        19 //         DD DSN=WYL.GG.ORV.MACLIB,DISP=SHR
        20 //         DD DSN=SYS3.ORVYL.UMACLIB,DISP=SHR
        21 //         DD DSN=SYS3.IS.MACLIB,DISP=SHR
        22 //SYSUT1   DD DSN=&&SYSUT1,UNIT=VIO,DISP=(,DELETE),
           //            SPACE=(4088,(500,250),,CONTIG,ROUND)
        23 //SYSTERM  DD SYSOUT=$
        24 //SYSPRINT DD DSN=&&PRINT,UNIT=SYSDA,DISP=(,PASS),
           //            SPACE=(6650,(250,250),RLSE),
           //            DCB=(BLKSIZE=6650,LRECL=133,RECFM=FB)
        25 //SYSLIN   DD DSN=WYL.GG.PJG.OBJ(VSSV),DISP=OLD
        26 //SYSUDUMP DD SYSOUT=A
        27 //SYSIN    DD DSN=&&INPUT,DISP=(OLD,DELETE)
        28 //$EDIT  EXEC PGM=ASMEDIT,REGION=1M,
           //            COND=EVEN,PARM='STMT,DATA'
        29 //STEPLIB  DD DSN=WYL.GG.SYS.LINKLIB,DISP=SHR
        30 //ASMOUT   DD DSN=&&PRINT,DISP=(OLD,DELETE)
        31 //SYSPRINT DD SYSOUT=A
        32 //SYSUDUMP DD SYSOUT=A
1 STMT NO. MESSAGE
         2 IEFC001I PROCEDURE PURGEOLD WAS EXPANDED USING SYSTEM LIBRARY SYS3.BETAPROC
        14 IGD01010I STORCLAS= TEMP STORGROUP =
        14 IGD01010I STORGRP=VIO ASSIGNED.
        22 IGD01010I STORCLAS= TEMP STORGROUP =
        22 IGD01010I STORGRP=VIO ASSIGNED.
        24 IGD01010I STORCLAS= TEMP STORGROUP =
        24 IGD01010I STORGRP=VIO ASSIGNED.
 ICH70001I GG$PJG   LAST ACCESS AT 09:49:33 ON MONDAY, MARCH 22, 2004
 IEF142I PJG#VSSV $$QUIET - STEP WAS EXECUTED - COND CODE 0008
 *********************************************************************************
 *   PJG#VSSV/$$QUIET /                    Return Code      0008                 *
 *   Region used      260K (16K user + 244K system)                              *
 *   Extended region  9352K (4K user + 9348K system)                             *
 *                                                                               *
 *   Paging              In      Out                                             *
 *   Private <-> Aux      0        0       CPU time (TCB)   00:00:00.01          *
 *   Private <-> Exp      0        0       CPU time (SRB)   00:00:00.00          *
 *   VIO                  0        0       Elapsed time    920:38:10.76          *
 *   Common               0      ---                                             *
 *                                                                               *
 *                                                                               *
 *   CPU Usage          0.18         $0.11  Standard Processing Unit Equivalent  *
 *                                   $0.11  Total Step execution charge          *
 *                                                                               *
 *    I/O count  DDname   Type Addr           I/O count  DDname   Type Addr      *
 *                         *** No I/O for this step ***                          *
 *********************************************************************************
 IEF373I STEP/$$QUIET /START 2004082.0949
 IEF374I STEP/$$QUIET /STOP  2004082.0949 CPU    0MIN 00.01SEC SRB    0MIN 00.00SEC VIRT    16K SYS   244K EXT       4K SYS    9348K
 IEF236I ALLOC. FOR PJG#VSSV $CND
 IEF237I 0401 ALLOCATED TO STEPLIB
 IEF237I JES2 ALLOCATED TO SYSPRINT
 IEF237I 04DC ALLOCATED TO SYSUT1
 IEF237I 04DC ALLOCATED TO SYSUT2
 IEF237I DMY  ALLOCATED TO SYSIN
 IEF142I PJG#VSSV $CND - STEP WAS EXECUTED - COND CODE 0000
 IEF285I   WYL.GG.ORV.LINKLIB                           KEPT
 IEF285I   VOL SER NOS= SYSB01.
 IEF285I   GG$PJG.PJG#VSSV.JOB06008.D0000101.?          SYSOUT
 IEF285I   WYL.GG.PJG.OBJ                               KEPT
 IEF285I   VOL SER NOS= SYSB05.
 IEF285I   WYL.GG.PJG.OBJ                               KEPT
 IEF285I   VOL SER NOS= SYSB05.
 *********************************************************************************
 *   PJG#VSSV/$CND    /                    Return Code      Zero                 *
 *   Region used      280K (16K user + 264K system)                              *
 *   Extended region  9392K (4K user + 9388K system)                             *
 *                                                                               *
 *   Paging              In      Out                                             *
 *   Private <-> Aux      0        0       CPU time (TCB)   00:00:00.01          *
 *   Private <-> Exp      0        0       CPU time (SRB)   00:00:00.00          *
 *   VIO                  0        0       Elapsed time    920:38:09.72          *
 *   Common               0      ---                                             *
 *                                                                               *
 *                                                                               *
 *   CPU Usage          0.18         $0.11  Standard Processing Unit Equivalent  *
 *                                   $0.11  Total Step execution charge          *
 *                                                                               *
 *    I/O count  DDname   Type Addr           I/O count  DDname   Type Addr      *
 *            2  STEPLIB  Disk 0401                   0  SYSPRINT      ----      *
 *            0  SYSUT1   Disk 04DC                   0  SYSUT2   Disk 04DC      *
 *            0  SYSIN         ----                                              *
 *********************************************************************************
 IEF373I STEP/$CND    /START 2004082.0949
 IEF374I STEP/$CND    /STOP  2004082.0949 CPU    0MIN 00.01SEC SRB    0MIN 00.00SEC VIRT    16K SYS   264K EXT       4K SYS    9388K
 IEF236I ALLOC. FOR PJG#VSSV $UNP
 IEF237I JES2 ALLOCATED TO SYSPRINT
 IEF237I 0402 ALLOCATED TO SYSUT1
 IGD101I SMS ALLOCATED TO DDNAME (SYSUT2  )
         DSN (SYS04082.T094942.RA000.PJG#VSSV.INPUT.H01   )
         STORCLAS (TEMP) MGMTCLAS (        ) DATACLAS (        )
         VOL SER NOS= SCR100
 IEF142I PJG#VSSV $UNP - STEP WAS EXECUTED - COND CODE 0000
 IEF285I   GG$PJG.PJG#VSSV.JOB06008.D0000102.?          SYSOUT
 IEF285I   WYL.GG.ORV.SOURCE                            KEPT
 IEF285I   VOL SER NOS= SYSB02.
 IGD106I SYS04082.T094942.RA000.PJG#VSSV.INPUT.H01    PASSED,    DDNAME=SYSUT2
 *********************************************************************************
 *   PJG#VSSV/$UNP    /                    Return Code      Zero                 *
 *   Region used      388K (108K user + 280K system)                             *
 *   Extended region  9468K (4K user + 9464K system)                             *
 *                                                                               *
 *   Paging              In      Out                                             *
 *   Private <-> Aux      0        0       CPU time (TCB)   00:00:00.05          *
 *   Private <-> Exp      0        0       CPU time (SRB)   00:00:00.00          *
 *   VIO                  0        0       Elapsed time    920:38:09.61          *
 *   Common               0      ---                                             *
 *                                                                               *
 *                                                                               *
 *   CPU Usage          0.93         $0.57  Standard Processing Unit Equivalent  *
 *                                   $0.57  Total Step execution charge          *
 *                                                                               *
 *    I/O count  DDname   Type Addr           I/O count  DDname   Type Addr      *
 *            0  SYSPRINT      ----                   3  SYSUT1   Disk 0402      *
 *           17  SYSUT2   Disk 038B                                              *
 *********************************************************************************
 IEF373I STEP/$UNP    /START 2004082.0949
 IEF374I STEP/$UNP    /STOP  2004082.0949 CPU    0MIN 00.05SEC SRB    0MIN 00.00SEC VIRT   108K SYS   280K EXT       4K SYS    9464K
 IEF236I ALLOC. FOR PJG#VSSV ASM
 IEF237I 0402 ALLOCATED TO SYSLIB
 IEF237I 04DC ALLOCATED TO
 IEF237I 0402 ALLOCATED TO
 IEF237I 0402 ALLOCATED TO
 IEF237I 0402 ALLOCATED TO
 IEF237I 04DC ALLOCATED TO
 IGD101I SMS ALLOCATED TO DDNAME (SYSUT1  )
         DSN (SYS04082.T094942.RA000.PJG#VSSV.SYSUT1.H01  )
         STORCLAS (TEMP) MGMTCLAS (        ) DATACLAS (        )
         VOL SER NOS= VIO
 IEF237I JES2 ALLOCATED TO SYSTERM
 IGD101I SMS ALLOCATED TO DDNAME (SYSPRINT)
         DSN (SYS04082.T094942.RA000.PJG#VSSV.PRINT.H01   )
         STORCLAS (TEMP) MGMTCLAS (        ) DATACLAS (        )
         VOL SER NOS= SCR100
 IEF237I 04DC ALLOCATED TO SYSLIN
 IEF237I JES2 ALLOCATED TO SYSUDUMP
 IGD103I SMS ALLOCATED TO DDNAME SYSIN
 IEF142I PJG#VSSV ASM - STEP WAS EXECUTED - COND CODE 0000
 IEF285I   SYS3.DUMMYMAC                                KEPT
 IEF285I   VOL SER NOS= SYSB02.
 IEF285I   WYL.GG.SYS.MACLIB                            KEPT
 IEF285I   VOL SER NOS= SYSB05.
 IEF285I   WYL.GG.ORV.BC.MACLIB                         KEPT
 IEF285I   VOL SER NOS= SYSB02.
 IEF285I   WYL.GG.ORV.MACLIB                            KEPT
 IEF285I   VOL SER NOS= SYSB02.
 IEF285I   SYS3.ORVYL.UMACLIB                           KEPT
 IEF285I   VOL SER NOS= SYSB02.
 IEF285I   SYS3.IS.MACLIB                               KEPT
 IEF285I   VOL SER NOS= SYSB05.
 IGD105I SYS04082.T094942.RA000.PJG#VSSV.SYSUT1.H01   DELETED,   DDNAME=SYSUT1
 IEF285I   GG$PJG.PJG#VSSV.JOB06008.D0000103.?          SYSOUT
 IGD106I SYS04082.T094942.RA000.PJG#VSSV.PRINT.H01    PASSED,    DDNAME=SYSPRINT
 IEF285I   WYL.GG.PJG.OBJ                               KEPT
 IEF285I   VOL SER NOS= SYSB05.
 IEF285I   GG$PJG.PJG#VSSV.JOB06008.D0000104.?          SYSOUT
 IGD105I SYS04082.T094942.RA000.PJG#VSSV.INPUT.H01    DELETED,   DDNAME=SYSIN
 *********************************************************************************
 *   PJG#VSSV/ASM     /                    Return Code      Zero                 *
 *   Region used      8484K (8192K user + 292K system)                           *
 *   Extended region  9952K (412K user + 9540K system)                           *
 *                                                                               *
 *   Paging              In      Out                                             *
 *   Private <-> Aux      0        0       CPU time (TCB)   00:00:01.87          *
 *   Private <-> Exp      0        0       CPU time (SRB)   00:00:00.05          *
 *   VIO                  0        0       Elapsed time    920:38:09.40          *
 *   Common               0      ---                                             *
 *                                                                               *
 *                                                                               *
 *   CPU Usage         35.06        $21.73  Standard Processing Unit Equivalent  *
 *                                  $21.73  Total Step execution charge          *
 *                                                                               *
 *    I/O count  DDname   Type Addr           I/O count  DDname   Type Addr      *
 *          107  SYSLIB   Disk 0402                 155  SYSLIB   Disk 04DC      *
 *            0  SYSLIB   Disk 0402                   0  SYSLIB   Disk 0402      *
 *            0  SYSLIB   Disk 0402                   0  SYSLIB   Disk 04DC      *
 *            0  SYSUT1   VIO  ----                   0  SYSTERM       ----      *
 *          110  SYSPRINT Disk 038B                   5  SYSLIN   Disk 04DC      *
 *            0  SYSUDUMP      ----                  18  SYSIN    Disk 038B      *
 *********************************************************************************
 IEF373I STEP/ASM     /START 2004082.0949
 IEF374I STEP/ASM     /STOP  2004082.0949 CPU    0MIN 01.87SEC SRB    0MIN 00.05SEC VIRT  8192K SYS   292K EXT     412K SYS    9540K
 IEF236I ALLOC. FOR PJG#VSSV $EDIT
 IEF237I 0402 ALLOCATED TO STEPLIB
 IGD103I SMS ALLOCATED TO DDNAME ASMOUT
 IEF237I JES2 ALLOCATED TO SYSPRINT
 IEF237I JES2 ALLOCATED TO SYSUDUMP
 IEF142I PJG#VSSV $EDIT - STEP WAS EXECUTED - COND CODE 0000
 IEF285I   WYL.GG.SYS.LINKLIB                           KEPT
 IEF285I   VOL SER NOS= SYSB02.
 IGD105I SYS04082.T094942.RA000.PJG#VSSV.PRINT.H01    DELETED,   DDNAME=ASMOUT
 IEF285I   GG$PJG.PJG#VSSV.JOB06008.D0000105.?          SYSOUT
 IEF285I   GG$PJG.PJG#VSSV.JOB06008.D0000106.?          SYSOUT
 *********************************************************************************
 *   PJG#VSSV/$EDIT   /                    Return Code      Zero                 *
 *   Region used      388K (116K user + 272K system)                             *
 *   Extended region  9468K (4K user + 9464K system)                             *
 *                                                                               *
 *   Paging              In      Out                                             *
 *   Private <-> Aux      0        0       CPU time (TCB)   00:00:00.44          *
 *   Private <-> Exp      0        0       CPU time (SRB)   00:00:00.01          *
 *   VIO                  0        0       Elapsed time    920:38:05.74          *
 *   Common               0      ---                                             *
 *                                                                               *
 *                                                                               *
 *   CPU Usage          8.25         $5.11  Standard Processing Unit Equivalent  *
 *                                   $5.11  Total Step execution charge          *
 *                                                                               *
 *    I/O count  DDname   Type Addr           I/O count  DDname   Type Addr      *
 *            2  STEPLIB  Disk 0402                 111  ASMOUT   Disk 038B      *
 *            0  SYSPRINT      ----                   0  SYSUDUMP      ----      *
 *********************************************************************************
 IEF373I STEP/$EDIT   /START 2004082.0949
 IEF374I STEP/$EDIT   /STOP  2004082.0949 CPU    0MIN 00.44SEC SRB    0MIN 00.01SEC VIRT   116K SYS   272K EXT       4K SYS    9464K
 *********************************************************************************
 *                                                                               *
 *                      S t a n f o r d   U n i v e r s i t y                    *
 *                                                                               *
 *                              *** Job Summary ***                              *
 *                                                                               *
 *   System Id      SYSB                   Input time     09:38:42  Mar 22, 2004 *
 *                                                                               *
 *   System Release SP6.1.0                Start time     09:49:42  Mar 22, 2004 *
 *                                                                               *
 *   Job name       PJG#VSSV               Stop  time     00:00:00  Mar 22, 2004 *
 *                                                                               *
 *   Account        PJG$GG                 Elapsed time  920:38:10.76            *
 *                                                                               *
 *   User Name      Module: VSSV           CPU time       00:00:02.38            *
 *                                                                               *
 *   Job class      E                      SRB Time       00:00:00.06            *
 *                                                                               *
 *********************************************************************************
 IEF375I  JOB/PJG#VSSV/START 2004082.0949
 IEF376I  JOB/PJG#VSSV/STOP  2004082.0949 CPU    0MIN 02.38SEC SRB    0MIN 00.06SEC
1Data set successfully converted from EDIT to FB format
1Assembler Done VSSV No Statements Flagged
1         High Level Assembler Option Summary                   (PTF UQ57391)                                               Page    1
-                                                                                            HLASM R4.0  2004/03/22 09.49
0  No Overriding ASMAOPT Parameters
   Overriding Parameters-  SYSPARM(VSSV),TERM,LANG(EN),OBJ,LC(32500),XREF(SHORT),NODECK,NORLD,NODX,NOUS
   No Process Statements


   Options for this Assembly
0  NOADATA
     ALIGN
   NOASA
     BATCH
     CODEPAGE(047C)
   NOCOMPAT
   NODBCS
 3 NODECK
 3 NODXREF
     ESD
   NOEXIT
     FLAG(0,ALIGN,CONT,NOIMPLEN,NOPAGE0,PUSH,RECORD,NOSUBSTR,USING0)
   NOFOLD
   NOGOFF
   NOINFO
 3   LANGUAGE(EN)
   NOLIBMAC
 3   LINECOUNT(32500)
     LIST(121)
     MXREF(SOURCE)
 3   OBJECT
     OPTABLE(UNI,NOLIST)
   NOPCONTROL
   NOPESTOP
   NOPROFILE
   NORA2
   NORENT
 3 NORLD
     RXREF
     SIZE(MAX)
 3   SYSPARM(VSSV)
 3   TERM(WIDE)
   NOTEST
     THREAD
   NOTRANSLATE
 3 NOUSING
 3   XREF(SHORT)

   No Overriding DD Names

1VSSV     External Symbol Dictionary                                                                                        Page    2
-Symbol   Type   Id     Address  Length     LD ID  Flags Alias-of                            HLASM R4.0  2004/03/22 09.49
0VSSV      SD 00000001 00000000 00001BB8             00
 VSSV07    LD          00000000           00000001
 CLPSYSTM  LD          00000016           00000001
 TYPEIT    ER 00000002
 VWRITE    ER 00000003
 VSEG      ER 00000004
 BTR       ER 00000005
 EVAL      ER 00000006
 MVCOS     ER 00000007
 BTDU      ER 00000008
 BTX       ER 00000009
 SEGSECS   ER 0000000A
 SCAN      ER 0000000B
 XTB       ER 0000000C
 VERPATCH  ER 0000000D
 RTRIM     ER 0000000E
 FSUB#COM  ER 0000000F
 VMARK     ER 00000010
 VREAD     ER 00000011
 SCINIT    ER 00000012
 VERSION   SD 00000013 00001BB8 00000108             00

1VSSV     ORVYL'S INTERNAL SET, SHOW AND DUMP COMMANDS                                                                      Page    3
0Loc    Object Code    Addr1 Addr2  Stmt Lv Lineno    Source Statement                    (Asmedit 3.3)  HLASM R4.0  2004/03/22 09.49
+___    ______ ____    _____ _____  ____ __ ______    ______ _________
0                                      2       2.     ********************************************************************
                                       3       3.     *                                                                  *
                                       4       4.     *      ORVYL/370  RELEASE III - CLASS I - STANFORD PROPRIETARY     *
                                       5       5.     *                                                                  *
                                       6       6.     ********************************************************************
-
                                       8       8.              HIBAL ASSOC=YES
                                     989       9.
 000000                00000 01BB8   990      10.     VSSV     CSECT
                                     994      11.              IDENT 07
                                     997             +
                                     998    01-IDENT +         ENTRY VSSV07
                                     999             +
 000000 14E5E2E2E5F0F76B            1000    01-IDENT +VSSV07   DC    AL1(20),C'VSSV07,22MAR04,09:49'
                                    1001             +*
-                                   1004      13.              COPY  ORVDEFN
                                    1005             =         SYSDEFN  ,
                                    1006             =         GBLB  &PROTECT
                                    1007             =         GBLC  &MODULE
                                    1008      14.     &MODULE  SETC  'VSSV'
-
                                    1010      16.              REGS  ,,SR,TR,QR,RR,BRR,BR,WAR,RAR,CLWR,LCBR,CTR
1VSSV     (VSSV07) (09:49) (22MAR04) ORVYL'S INTERNAL SET, SHOW AND DUMP COMMANDS                                           Page    4
0Loc    Object Code    Addr1 Addr2  Stmt Lv Lineno    Source Statement           (Hibal 5, Asmedit 3.3)  HLASM R4.0  2004/03/22 09.49
+___    ______ ____    _____ _____  ____ __ ______    ______ _________
0                                   1161      18.     *
                                    1162      19.              MACRO
                                    1163      20.     &L       BTD   &LOC,&LEN,&WORD,&SW,&COMMAS=NO
                                    1164      21.              LCLC  &CM
                                    1165      22.              AIF   ('&COMMAS' NE 'YES').NOCM
                                    1166      23.     &CM      SETC  'C'
                                    1167      24.     .NOCM    ANOP
                                    1168      25.     &L       SYSLR 15,&WORD,OP=L
                                    1169      26.              SYSLR 0,&LEN,TYPE=&SW
                                    1170      27.              SYSLR 1,&LOC
                                    1171      28.              XCALL BTDU&CM
                                    1172      29.              MEND
                                    1173      30.
                                    1174      31.              MACRO
                                    1175      32.     &L       BTX   &LOC,&LEN,&WORD
                                    1176      33.     &L       SYSLR 15,&WORD,OP=L
                                    1177      34.              SYSLR 0,&LEN
                                    1178      35.              SYSLR 1,&LOC
                                    1179      36.              XCALL BTX
                                    1180      37.              MEND
                                    1181      38.
                                    1182      39.              MACRO
                                    1183      40.     &L       SYSONLY ,
                                    1184      41.     &L       LCALL SYSTEST
                                    1185      42.              MEND
                                    1186      43.
                                    1187      44.              MACRO
                                    1188      45.     &L       PRVBLOCK ,
                                    1189      46.     &L       LCALL PRVPTEST
                                    1190      47.              MEND
                                    1191      48.
                                    1192      49.              MACRO
                                    1193      50.     &L       EVAL  &DUMMY
                                    1194      51.     &L       LCALL EVAL
                                    1195      52.              MEND
                                    1196      53.
                                    1197      54.              MACRO
                                    1198      55.     &L       SEGDC &LEN,&WORD,&SW
                                    1199      56.     &L       SYSLR 15,&WORD,OP=L
                                    1200      57.              SYSLR 0,&LEN,TYPE=&SW
                                    1201      58.              LCALL SEGDC
                                    1202      59.              MEND
                                    1203      60.
                                    1204      61.              MACRO
                                    1205      62.     &L       SEGHX &LEN,&WORD
                                    1206      63.     &L       SYSLR 15,&WORD,OP=L
                                    1207      64.              SYSLR 0,&LEN
                                    1208      65.              LCALL SEGHX
                                    1209      66.              MEND
1VSSV     (VSSV07) (09:49) (22MAR04) ORVYL'S INTERNAL SET, SHOW AND DUMP COMMANDS                                           Page    5
0Loc    Object Code    Addr1 Addr2  Stmt Lv Lineno    Source Statement           (Hibal 5, Asmedit 3.3)  HLASM R4.0  2004/03/22 09.49
+___    ______ ____    _____ _____  ____ __ ______    ______ _________
0                                   1212      69.              COPY  SCP
                                    1213             =*******************************************************************
                                    1214             =*                                                                 *
                                    1215             =*    SCP  -  Mode 1 Session Control Page                          *
                                    1216             =*                                                                 *
                                    1217             =*******************************************************************
0000000                00000 00294  1219             =SCP      RECORD BEGIN
 000000                             1227  1          =SCPID      DS    CL4'SCP'
                                    1228  1          =
 000008                             1229  1          =SCPPSW     DS    D                       RESUME PSW
 000010                             1230  1          =SCPGPRS    DS    16F                     RESUME GPRS
 000050                             1231  1          =SCPFPRS    DS    4D                      RESUME FPRS
                                    1232  1          =
 000070                             1233  1          =SCPXPSW    DS    D                       EXIT PSW
 000078                             1234  1          =SCPXGPRS   DS    16F                     EXIT GPRS
                                    1235  1          =
 0000B8                             1236  1          =SCPSBPSW   DS    D                       SESSION BREAK PSW
 0000C0                             1237  1          =SCPSBGPR   DS    16F                     SESSION BREAK GPRS
                                    1238  1          =
 000100                             1239  1          =SCPCLPSW   DS    D                       CLP ERROR PSW
 000108                             1240  1          =SCPCLPGP   DS    16F                     CLP ERROR GPRS
                                    1241  1          =
 000148                             1242  1          =SCPSVPSW   DS    D                       SVC ERROR PSW
 000150                             1243  1          =SCPSVGPR   DS    16F                     SVC ERROR GPRS
                                    1244  1          =
 000190                             1245  1          =SCPCTL8    DS    A                       CONTROL REGISTER 8 (MON CALL)
 000194                             1246  1          =SCPCTL9    DS    3A                      CONTROL REGISTERS 9-11 (PER)
                                    1247  1          =
 0001A0                             1248  1          =SCPPXA     DS    A                       PAGING EXCEPTION ADDR
 0001A4                             1249  1          =SCPIPSW    DS    A                       INTERRUPT PSW
 0001A8                             1250  1          =SCPPAN     DS    H                       PANIC CODE
                                    1251  1          =SCPPANSY   EQU   SCPPAN+1,1,C'X'         FOR ONE BYTE PANIC CODE
                                    1252  1          =
                                    1253  1          =PANOPER    EQU   1,,C'N'                 OPERATION ERROR
                                    1254  1          =PANPROT    EQU   4,,C'N'                 PROTECTION ERROR
                                    1255  1          =PANADDR    EQU   5,,C'N'                 ADDRESSING ERROR
                                    1256  1          =PANSPEC    EQU   6,,C'N'                 SPECIFICATION ERROR
                                    1257  1          =PANWAIT    EQU   16,,C'N'                MISSING WAIT ERROR
                                    1258  1          =
 0001AA                             1259  1          =SCPACCT    DS    C'GG.UUU'               SIGNED-ON ACCOUNT
                                    1260  1          =SCPUSER    EQU   SCPACCT+3,3,C'C'        SIGNED-ON USER
                                    1261  1          =SCPGROUP   EQU   SCPACCT,2,C'C'          SIGNED-ON GROUP
                                    1262  1          =*
                                    1263  1          =*SCPPACCT DS    C'GG.UUU'               PSEUDO ACCOUNT
                                    1264  1          =*SCPPUSER EQU   SCPPACCT+3,3,C'C'       PSEUDO USER
                                    1265  1          =*SCPPGRP  EQU   SCPPACCT,2,C'C'         PSEUDO GROUP
                                    1266  1          =*SCPPRIVS DS    X                       PSEUDO ACCOUNT PRIVS
 0001B0                             1267  1          =           DS    XL7                     SPARE
                                    1268  1          =
 0001B7                             1269  1          =SCPPRIV    DS    X                       ACCOUNT PRIVS
 0001B8                             1270  1          =SCPCLW     DS    A                       POINTER TO THE CLW
 0001BC                             1271  1          =SCPPCAT    DS    A                       PROGRAM CATALOG POINTER
1VSSV     (VSSV07) (09:49) (22MAR04) ORVYL'S INTERNAL SET, SHOW AND DUMP COMMANDS                                           Page    6
0D-Loc  Object Code    Addr1 Addr2  Stmt Lv Lineno    Source Statement           (Hibal 5, Asmedit 3.3)  HLASM R4.0  2004/03/22 09.49
+_____  ______ ____    _____ _____  ____ __ ______    ______ _________
00001C0                             1273  1          =SCPSID     DS    D                       SUSPEND ID
 0001C8                             1274  1          =SCPUCLK    DS    A                       USER CLOCK ID
 0001CC                             1275  1          =SCPUCXIT   DS    A                       USER CLOCK EXIT ID
 0001D0                             1276  1          =SCPCCLK    DS    A                       CLP CLOCK ID
 0001D4                             1277  1          =SCPCCXIT   DS    A                       CLP CLOCK EXIT ID
                                    1278  1          =
 0001D8                             1279  1          =SCPTXEP    DS    A                       TIMER EXIT ENTRY POINT
 0001DC                             1280  1          =SCPTXI     DS    A                       USER POINTER FOR TIMER EXIT
 0001E0                             1281  1          =SCPPXEP    DS    A                       PANIC EXIT ENTRY POINT
 0001E4                             1282  1          =SCPPXI     DS    A                       USER POINTER FOR PANIC EXIT
 0001E8                             1283  1          =SCPSXEP    DS    A                       SVC EXIT ENTRY POINT
 0001EC                             1284  1          =SCPSXI     DS    A                       USER POINTER FOR SVC EXIT
                                    1285  1          =
 0001F0                             1286  1          =SCPUMSIZ   DS    A                       ADDRESS SPACE LIMIT
 0001F4                             1287  1          =SCPRRSEG   DS    A                       LOW ADDR FOR RESERVE/RELEASE
 0001F8                             1288  1          =SCPRESRV   DS    H                       RESERVED (GETMAINED) PAGES
 0001FA                             1289  1          =SCPUNRSV   DS    H                       UNRESERVED PAGE COUNT
 0001FC                             1290  1          =SCPUMAP    DS    A                       USER MAP SIZE
                                    1291  1          =
 000200 00                          1292  1          =SCPFL      FLAG  ,                       FLAG BYTE
 SCPFL.SCPFERR     80 ONES          1296  1          =           FLAG  SCPFERR                 ERROR IN CLP
 SCPFL.SCPFPER     40 ONES          1301  1          =           FLAG  SCPFPER                 PER IS ACTIVE
 SCPFL.SCPFMON     20 ONES          1306  1          =           FLAG  SCPFMON                 MONITOR CALL IS ACTIVE
 SCPFL.SCPFPSEU    10 ONES          1311  1          =           FLAG  SCPFPSEU                PSUEDO USER SET
 SCPFL.SCPFSAM     08 ONES          1316  1          =           FLAG  SCPFSAM                 USER IS STAND-ALONE
 SCPFL.SCPFPRT     04 ONES          1321  1          =           FLAG  SCPFPRT                 USER PROGRAM "PROTECTED"
 SCPFL.SCPFTRU     02 ONES          1326  1          =           FLAG  SCPFTRU                 USER TRACE ACTIVE
 SCPFL.SCPFTRC     01 ONES          1331  1          =           FLAG  SCPFTRC                 CLP TRACE ACTIVE
                                    1336  1          =
 000201                             1337  1          =SCPKLUDG   DS    X     ***KLUDGE***      "KLUDGE" BYTE
 000202                             1338  1          =SCPTRASH   DS    X                       MEMORY CLEARING VALUE
 000203                             1339  1          =SCPJESR    DS    X                       NUMBER OF JES READERS IN USE
                                    1340  1          =
 000204                             1341  1          =SCPPER     DS    A                       PER INTERRUPT CODE,ADDRESS
 000208                             1342  1          =SCPMON     DS    A                       MONITOR INTERRUPT CODE,ADDRESS
                                    1343  1          =
 00020C                             1344  1          =SCPIDT     DS    A                       I/O ID TABLES
 000210                             1345  1          =SCPNIDT    DS    H                       NUMBER OF ID BLOCKS
 000212                             1346  1          =SCPQIDT    DS    H                       ENQ/DEQ ID TABLE
                                    1347  1          =
                                    1348  1          =SCPCWASZ   EQU   16,,C'N'                SIZE OF COMMON WORK AREA
 000214                             1349  1          =SCPCWA     DS    (SCPCWASZ)X
                                    1350  1          =
                                    1351  1          =CLWIBUFL   EQU   235                     LENGTH OF COMMAND BUFFER
 000224                             1352  1          =SCPCMDP    DS    A                       =>AL2(LEN),CL133'COMMAND'
 000228                             1353  1          =SCPPARMP   DS    A                       =>AL2(LEN),CL133'PARM'
 00022C                             1354  1          =SCPLCMDL   DS    H                       LENGTH OF LAST CMD
 00022E                             1355  1          =SCPLCMD    DS    CL40                    LAST COMMAND
                                    1356  1          =
 000256                             1357  1          =SCPNENQ    DS    H                       NUMBER OF ALLOWED ENQ'S
 000258                             1358  1          =SCPENQL    DS    A                       ENQUEUE ID TABLE ADDRESS
                                    1359  1          =
 00025C                             1360  1          =SCPTRACE   DS    A                       MODE 1 TRACE BUFFER CHAIN
1VSSV     (VSSV07) (09:49) (22MAR04) ORVYL'S INTERNAL SET, SHOW AND DUMP COMMANDS                                           Page    7
0D-Loc  Object Code    Addr1 Addr2  Stmt Lv Lineno    Source Statement           (Hibal 5, Asmedit 3.3)  HLASM R4.0  2004/03/22 09.49
+_____  ______ ____    _____ _____  ____ __ ______    ______ _________
0                                   1362  1          =*******************************************************************
                                    1363  1          =*                                                                 *
                                    1364  1          =*    SCB  -  Mode 1 Session Control Block                         *
                                    1365  1          =*                                                                 *
                                    1366  1          =*******************************************************************
0000260 00                          1368  1          =SCBWFL     FLAG  ,                       WAIT FLAGS
 SCBWFL.SCBFWAIT   80 ONES          1372  1          =           FLAG  SCBFWAIT                WAITING
                                    1377  1          =
 000261 00                          1378  1          =SCBCFL     FLAG  ,                       COMMON FLAGS
 SCBCFL.SCBCFALP   80 ONES          1382  1          =           FLAG  SCBCFALP                AUTO LOGOFF BEING PROCESSED
 SCBCFL.SCBCFCLA   40 ONES          1387  1          =           FLAG  SCBCFCLA                IDLE ATTN IN CLP
 SCBCFL.SCBCFAX    20 ONES          1392  1          =           FLAG  SCBCFAX                 BRANCH TO ATTENTION EXIT
 SCBCFL.SCBCFNMA   10 ONES          1397  1          =           FLAG  SCBCFNMA                SUPPRESS MULTIPLE ATTN BREAK
 SCBCFL.SCBFNESC   08 ONES          1402  1          =           FLAG  SCBFNESC                FORCE SESSION BREAK ON ATTN
                                    1407  1          =
 000262 00                          1408  1          =SCBFL      FLAG  ,                       FLAGS
 SCBFL.SCBFCLP     80 ONES          1412  1          =           FLAG  SCBFCLP                 CLP IN CONTROL
 SCBFL.SCBFSVC     40 ONES          1417  1          =           FLAG  SCBFSVC                 USER IS IN SVC PROCESSING
 SCBFL.SCBFNPUP    20 ONES          1422  1          =           FLAG  SCBFNPUP                NO PSW CC CHANGES
 SCBFL.SCBFASLK    10 ONES          1427  1          =           FLAG  SCBFASLK                ADDRESS SPACE LOCK HELD
 SCBFL.SCBFPCLP    08 ONES          1432  1          =           FLAG  SCBFPCLP                PSEUDO CLP
                                    1437  1          =
 000263 00                          1438  1          =SCBTFL     FLAG  ,                       TIMER FLAGS
 SCBTFL.SCBTUTR    80 ONES          1442  1          =           FLAG  SCBTUTR                 USER TIMER RUNNING
 SCBTFL.SCBTUCT    40 ONES          1447  1          =           FLAG  SCBTUCT                 USER TIMING CPU TIME
 SCBTFL.SCBTCPTR   20 ONES          1452  1          =           FLAG  SCBTCPTR                COMMAND TIMER RUNNING
 SCBTFL.SCBTCPCT   10 ONES          1457  1          =           FLAG  SCBTCPCT                COMMAND TIMING CPU TIME
 SCBTFL.SCBTCPQU   08 ONES          1462  1          =           FLAG  SCBTCPQU                "QUEUED" TIMER RUNNING
                                    1467  1          =
 000264 00                          1468  1          =SCBMB      FLAG  ,                       EXIT ENABLED FLAG
                                    1472  1          =*
                                    1473  1          =* FOLLOWING FLAGS USED FOR BOTH SCBMB AND SCBXFL
                                    1474  1          =*
 000265 00                          1475  1          =SCBXFL     FLAG   ,                      EXIT FLAGS
 SCBXFL.SCBXT      80 ONES          1479  1          =           FLAG  SCBXT                   TIMER EXIT
 SCBXFL.SCBXA      40 ONES          1484  1          =           FLAG  SCBXA                   ATTN EXIT
 SCBXFL.SCBXW      20 ONES          1489  1          =           FLAG  SCBXW                   WAIT EXIT
 SCBXFL.SCBXP      10 ONES          1494  1          =           FLAG  SCBXP                   PANIC EXIT
 SCBXFL.SCBXCPT    08 ONES          1499  1          =           FLAG  SCBXCPT                 CLP TIMER EXIT
 SCBXFL.SCBXALO    04 ONES          1504  1          =           FLAG  SCBXALO                 AUTO LOGOFF
 SCBXFL.SCBDEFMB   F0 NZ            1509  1          =           FLAG  (SCBDEFMB,SCBXT+SCBXA+SCBXW+SCBXP)  DEFAULT
                                    1529  1          =
 000268                             1530  1          =SCBSPB     DS    A                       SPB POINTER
 00026C                             1531  1          =SCBENQ     DS    A                       ENQUEUE ID
 000270                             1532  1          =SCPEPXIT   DS    A                       ENQUEUE POST EXIT ID
                                    1533  1          =
 000278                             1534  1          =           DS    D                       Available
 000280                             1535  1          =SCBPNAML   DS    H                       LENGTH OF THE PROGRAM NAME
 000282                             1536  1          =SCBPNAM    DS    CL8                     PROGRAM NAME
 00028A                             1537  1          =SCBUPRI    DS    X                       USER PRIORITY
                                    1538  1          =*
                                    1539  1          =* Shared symbol control
                                    1540  1          =*
 00028C                             1541  1          =SCBSSAB    DS    A                       POINTER TO SSAB CHAIN
                                    1542  1          =
1VSSV     (VSSV07) (09:49) (22MAR04) ORVYL'S INTERNAL SET, SHOW AND DUMP COMMANDS                                           Page    8
0D-Loc  Object Code    Addr1 Addr2  Stmt Lv Lineno    Source Statement           (Hibal 5, Asmedit 3.3)  HLASM R4.0  2004/03/22 09.49
+_____  ______ ____    _____ _____  ____ __ ______    ______ _________
0000290                             1543  1          =SCBWAITB   DS    A         WAIT BLOCK PTR (SEE M1GOWAIT IN M1SERV)
 000294                00294 00294  1544             =         END
1VSSV     (VSSV07) (09:49) (22MAR04) ORVYL'S INTERNAL SET, SHOW AND DUMP COMMANDS                                           Page    9
0Loc    Object Code    Addr1 Addr2  Stmt Lv Lineno    Source Statement           (Hibal 5, Asmedit 3.3)  HLASM R4.0  2004/03/22 09.49
+___    ______ ____    _____ _____  ____ __ ______    ______ _________
0                                   1554      71.              COPY  CLW
                                    1555             =*
                                    1556             =*                   COMMAND LANGUAGE WORK AREA
                                    1557             =*
                                    1558             =* ORGANIZATION:
                                    1559             =*
                                    1560             =*        COMMONLY USED CLP FLAGS, COMMAND BUFFERS AND OTHER CONTROL
                                    1561             =*        INFORMATION FOLLOW THE SESSION CONTROL PAGE INFORMATION.
                                    1562             =*        THE BALANCE OF THIS PAGE IS THE CLP SAVE AREA STACK.
                                    1563             =*
 000000                00000 00618  1564             =CLW      RECORD BEGIN
 000000                             1572  1          =CLWSTART   DS    0F
 000000                             1573  1          =CLWSCP     DS    A                       POINTER TO THE SCP
 000004                             1574  1          =           DS    5A                      AVAILABLE
 000018                             1575  1          =CLWUWST    DS    A                       STARTING LOC OF USER WORK AREA
 00001C                             1576  1          =CLWUPST    DS    A                       STARTING LOC OF USER PROGRAM
 000020                             1577  1          =CLWUPML    DS    A                       MAXIMUM LEN OF USER PROGRAM
 000024                             1578  1          =CLWUPRSV   DS    H                       USER PROGRAM RESERVE COUNT
 000026                             1579  1          =CLWUPURV   DS    H                       USER PROGRAM UN-RESERVE COUNT
 000028                             1580  1          =CLWIBUFN   DS    H                       LENGTH OF INPUT LINE
 00002A 606E40                      1581  1          =           DC    C'-> '
 00002D                             1582  1          =CLWIBUF    DS    CL235                   INPUT BUFFER
                                    1583  1          =
 000118                             1584  1          =CLWOBUF    DS    2H                      WRITE/PROMPT COUNTS
 00011C                             1585  1          =           DS    CL235                   OUTPUT BUFFER
                                    1586  1          =CLWOBUFL   EQU   *-CLWOBUF-4
                                    1587  1          =*                                      SESSION BREAK FLAGS:
 000207 00                          1588  1          =CLWFL      FLAG  ,                       ZEROED AT SESSION BREAK START
 CLWFL.CLWFTYPD    80 ONES          1592  1          =           FLAG  CLWFTYPD                CURRENT COMMAND WAS TYPED
 CLWFL.CLWFCMD     40 ONES          1597  1          =           FLAG  CLWFCMD                 PROCESSING COMMAND SVC
 CLWFL.CLWFWYL     20 ONES          1602  1          =           FLAG  CLWFWYL                 COMMAND HAS BEEN TO WYLBUR
                                    1607  1          =
 000208 00                          1608  1          =CLWFLG     FLAG  ,                       FLAGS
 CLWFLG.CLWFCERR   80 ONES          1612  1          =           FLAG  CLWFCERR                COMMAND ERROR: EXE BREAK
 CLWFLG.CLWFGPW    40 ONES          1617  1          =           FLAG  CLWFGPW                 GET-PUT WORK AREA ALLOCATED
 CLWFLG.CLWFTTRP   20 ONES          1622  1          =           FLAG  CLWFTTRP                TEMPORARY TRAP SET
 CLWFLG.CLWFTRAP   10 ONES          1627  1          =           FLAG  CLWFTRAP                TRAP IN PROGRESS
 CLWFLG.CLWFOSC    08 ONES          1632  1          =           FLAG  CLWFOSC                 READ/WRITE REAL (OS) CORE
 CLWFLG.CLWFQMSG   04 ONES          1637  1          =           FLAG  CLWFQMSG                "QUEUED" MESSAGE SENT
 CLWFLG.CLWFM31    02 ONES          1642  1          =           FLAG  CLWFM31                 PROGRAM IN 31 BIT MODE
                                    1647  1          =
 000209 00                          1648  1          =CLWPFL     FLAG  ,                       PROGRAM FLAGS
 CLWPFL.CLWPFSUP   80 ONES          1652  1          =           FLAG  CLWPFSUP                LINK AREA SET UP
 CLWPFL.CLWPFPL    40 ONES          1657  1          =           FLAG  CLWPFPL                 PROGRAM LOADING
 CLWPFL.CLWPFPIC   20 ONES          1662  1          =           FLAG  CLWPFPIC                PROGRAM ENTERED
 CLWPFL.CLWPFRUN   10 ONES          1667  1          =           FLAG  CLWPFRUN                EXECUTE PROGRAM
 CLWPFL.CLWPFPAU   08 ONES          1672  1          =           FLAG  CLWPFPAU                PAUSE BEFORE EXECUTION
 CLWPFL.CLWPFPRV   04 ONES          1677  1          =           FLAG  CLWPFPRV                PRIVATE PROGRAM
 CLWPFL.CLWPFPRT   02 ONES          1682  1          =           FLAG  CLWPFPRT                PROGRAM PROTECTED
 CLWPFL.CLWPFSHR   01 ONES          1687  1          =           FLAG  CLWPFSHR                SHARED PROGRAM LOADED
                                    1692  1          =
 00020A 00                          1693  1          =CLWMFL     FLAG  ,                       MISCELLANEOUS FLAGS
 CLWMFL.CLWMEVCN   80 ONES          1697  1          =           FLAG  CLWMEVCN                CONTINUE AFTER EVENTS
 CLWMFL.CLWMMNCN   40 ONES          1702  1          =           FLAG  CLWMMNCN                CONTINUE AFTER MONITORS
 CLWMFL.CLWMBSUC   20 ONES          1707  1          =           FLAG  CLWMBSUC                SIMULATED BRANCH SUCCESSFUL
 CLWMFL.CLWMNCST   10 ONES          1712  1          =           FLAG  CLWMNCST                SUPPRESS AUTOMATIC COST PRINT
1VSSV     (VSSV07) (09:49) (22MAR04) ORVYL'S INTERNAL SET, SHOW AND DUMP COMMANDS                                           Page   10
0Loc    Object Code    Addr1 Addr2  Stmt Lv Lineno    Source Statement           (Hibal 5, Asmedit 3.3)  HLASM R4.0  2004/03/22 09.49
+___    ______ ____    _____ _____  ____ __ ______    ______ _________
0CLWMFL.CLWMCLRP   08 ONES          1717  1          =           FLAG  CLWMCLRP                UNREC. CLR FOUND
 CLWMFL.CLWMNOL    04 ONES          1722  1          =           FLAG  CLWMNOL                 DON'T PRINT ON CONT. EVENTS
 CLWMFL.CLWMDSUP   02 ONES          1727  1          =           FLAG  CLWMDSUP                DUMP AREA SET UP
 CLWMFL.CLWMDUMP   01 ONES          1732  1          =           FLAG  CLWMDUMP                DUMP COMMAND BEING PROCESSED
                                    1737  1          =
 00020B 00                          1738  1          =CLWMONF    FLAG  ,                       PROGLOOK/MONITOR FLAGS
 CLWMONF.CLWFMWP   80 ONES          1742  1          =           FLAG  CLWFMWP                 MONITOR WORK PAGE EXISTS
 CLWMONF.CLWFPRGL  40 ONES          1747  1          =           FLAG  CLWFPRGL                PROGLOOK IN PROGRESS
 CLWMONF.CLWDOTIM  20 ONES          1752  1          =           FLAG  CLWDOTIM                SET TIMER AT RUN
 CLWMONF.CLWCPTIM  10 ONES          1757  1          =           FLAG  CLWCPTIM                SET CPU TIME TIMER
                                    1762  1          =
 00020C 00                          1763  1          =CLWSFL     FLAG  ,                       SESSION FLAGS
 CLWSFL.CLWSSAM    80 ONES          1767  1          =           FLAG  CLWSSAM                 STAND ALONE MODE
 CLWSFL.CLWSSP     40 ONES          1772  1          =           FLAG  CLWSSP                  SPECIAL PERSON
                                    1777  1          =
 00020D                             1778  1          =           DS    X
                                    1779  1          =
 00020E                             1780  1          =CLWEXSVC   DS    H                       EXIT SVC
 000210                             1781  1          =CLWPSVC    DS    H                       PAUSE/TRAP SVC
 000212                             1782  1          =CLWCSVC    DS    H                       COMMAND SVC
                                    1783  1          =
 000214                             1784  1          =CLWDSP     DS    X                       DISPATCHING PRIORITY
 000215                             1785  1          =CLWPFS     DS    X                       PARAMTER FLAG SAVE
 000218                             1786  1          =CLWPS      DS    3F                      PARAMETER SAVE
                                    1787  1          =
 000224                             1788  1          =CLWMLMOD   DS    F                       MILTEN MODE WORD
 000228                             1789  1          =CLWWLMOD   DS    F                       WYLBUR MODE WORD
                                    1790  1          =
 00022C                             1791  1          =CLWTIMER   DS    A                       TIMER VALUE TO BE SET AT RUN
 000230                             1792  1          =CLWTIMAX   DS    H                       MAX TIMER INTERVAL (IN .1 SEC)
 000232                             1793  1          =CLWTIVAL   DS    H                       CURRENT TIMER INTERVAL
 000234                             1794  1          =CLWTMAX    DS    H                       CPU TIME LIMIT
 000236                             1795  1          =CLWTIME    DS    H                       CURRENT CPU TIME
 000238                             1796  1          =CLWPELT    DS    A                       ELAPSED TIME
 00023C                             1797  1          =CLWPCVM    DS    A                       VM CHARGES
 000240                             1798  1          =CLWPIOS    DS    A                       I/O COUNTS
 000244                             1799  1          =CLWPCUSE   DS    A                       CPU TIME
                                    1800  1          =
 000248                             1801  1          =CLWPROGN   DS    CL8                     PROGRAM NAME
 000250                             1802  1          =CLWLNKP    DS    A                       LINK PAGE POINTER
 000254                             1803  1          =CLWGPWP    DS    A                       GET-PUT WORK PAGE POINTER
 000258                             1804  1          =CLWMONP    DS    A                       MONITOR/PROGLOOK PAGE
 00025C                             1805  1          =CLWSPB     DS    A                       SHARED PROGRAM BLOCK
 000260                             1806  1          =CLWDUMPB   DS    A                       POINTER TO DUMP BUFFER
                                    1807  1          =
 000264                             1808  1          =CLWPER     DS    A                       PER INFO
 000268                             1809  1          =CLWMON     DS    A                       MONITOR INFO
                                    1810  1          =
 00026C                             1811  1          =CLWEVCNT   DS    A                       NUMBER OF EVENTS TO EXECUTE
 000270                             1812  1          =CLWTRAPA   DS    A                       ADDR OF INST BEING TRAPPED
 000274                             1813  1          =CLWTRAPB   DS    A                       ADDR OF INST AFTER
 000278                             1814  1          =CLWTRAPI   DS    3H                      INSTRUCTION BEING TRAPPED
 00027E                             1815  1          =CLWTRAPJ   DS    H                       1ST HALFWORD OF INST AFTER
                                    1816  1          =
                                    1817  1          =CLWNTRAP   EQU   8,,C'N'                 NO. OF TRAPS
 000280                             1818  1          =CLWTRAPS   DS    (CLWNTRAP)XL5           TRAP TABLE
1VSSV     (VSSV07) (09:49) (22MAR04) ORVYL'S INTERNAL SET, SHOW AND DUMP COMMANDS                                           Page   11
0Loc    Object Code    Addr1 Addr2  Stmt Lv Lineno    Source Statement           (Hibal 5, Asmedit 3.3)  HLASM R4.0  2004/03/22 09.49
+___    ______ ____    _____ _____  ____ __ ______    ______ _________
00002A8                             1819  1          =CLWTTRAP   DS    XL5                     TEMPORARY TRAP
                                    1820  1          =*
                                    1821  1          =* KEYWORD FILE RECORD AREA
                                    1822  1          =*
 0002AD                             1823  1          =CLWKFL     DS    X                       KEYWORD FILE FLAGS
                                    1824  1          =
                                    1825  1          =CLWKFAC    EQU   X'80'                   PROGRAM AUTO CALL
                                    1826  1          =CLWKFMP    EQU   X'40'                   PROGRAM MANDATORY
                                    1827  1          =
 0002AE                             1828  1          =CLWKACC    DS    CL5                     ACCOUNT FOR PROGRAM SEARCH
 0002B3                             1829  1          =CLWKPROG   DS    CL8                     DEFAULT/MANDATORY PROGRAM
 0002BB                             1830  1          =CLWKMISC   DS    CL8                     MISCELLANEOUS FIELDS
                                    1831  1          =*
                                    1832  1          =*  SCANNER UTILITY AREA
                                    1833  1          =*
                                    1834  1          =           SCANCB PFX=CLWKW
 0002C4                             1835  1 01-SCANC +CLWKWCB    DS    0F
 0002C4                             1836  1 01-SCANC +CLWKWVAL   DS    A                       VALUE RETURNED
 0002C8                             1837  1 01-SCANC +CLWKWKW    DS    CL8                     CURRENT KEY WORD
 0002D0                             1838  1 01-SCANC +CLWKWLEN   DS    A                       LENGTH LEFT TO SCAN
 0002D4                             1839  1 01-SCANC +CLWKWLOC   DS    A                       NEXT THING TO SCAN
 0002D8                             1840  1 01-SCANC +CLWKWRA    DS    A                       RETURN ADDRESS
 0002DC                             1841  1 01-SCANC +CLWKWPRT   DS    A                       ROUTING TABLE ADDRESS
 0002E0                             1842  1 01-SCANC +CLWKWCLT   DS    A                       SCAN TYPE
                                    1843  1          +*                                      0 = NORMAL SCAN
                                    1844  1          +*                                      4 = EXPRESSION ISOLATION
                                    1845  1          +*                                      8 = EXPRESSION SCAN
                                    1846  1 01-SCANC +CLWKWCBL   EQU *-CLWKWCB
                                    1847  1          =
 0002E8                             1848  1          =CLWTEMP    DS    4D                      WORK AREA
                                    1849  1          =
 000308                             1850  1          =CLWDELTA   DS    F                       Wylbr line delta
 00030C                             1851  1          =           DS    F                       Spare
 000310                             1852  1          =CLWEVHST   DS    8D                      EVENT HISTORY
 000350                             1853  1          =CLWEVENT   DS    D                       LAST EVENT INFO
 000358                             1854  1          =CLWQRET    DS    3F                      QUICK RETURN FOR VSUB
                                    1855  1          =*                                      SAVE AREA FOR BRR,BR,WAR
                                    1856  1          =*
 000368                             1857  1          =CLWSBPSW   DS    D                       SESSION BREAK PSW
 000370                             1858  1          =CLWSBGPR   DS    16F                     SESSION BREAK GPRS
 0003B0                             1859  1          =CLWACCT    DS    C'GG.UUU'               USER ACCOUNT
                                    1860  1          =CLWUSER    EQU   CLWACCT+3,3,C'C'        USER
                                    1861  1          =CLWGROUP   EQU   CLWACCT,2,C'C'          GROUP
 0003B8                             1862  1          =CLWIDT     DS    A                       ADDRESS OF THE IDTS
 0003BC                             1863  1          =CLWNIDT    DS    H                       NUMBER OF IDTS
 0003C0                             1864  1          =           DS    0F                      START OF SAVE AREA
 0003C0                             1865  1          =CLWSVA     DS    XL600                   SAVE STACK
                                    1866  1          =CLWSVAEN   EQU   *-4,4,C'X'              LAST WORD OF THE STACK
 000618                00618 00618  1867             =         END   ,
1VSSV     (VSSV07) (09:49) (22MAR04) ORVYL'S INTERNAL SET, SHOW AND DUMP COMMANDS                                           Page   12
0Loc    Object Code    Addr1 Addr2  Stmt Lv Lineno    Source Statement           (Hibal 5, Asmedit 3.3)  HLASM R4.0  2004/03/22 09.49
+___    ______ ____    _____ _____  ____ __ ______    ______ _________
0                                   1877      73.              COPY  SPB
                                    1878             =*******************************************************************
                                    1879             =*                                                                 *
                                    1880             =*    SPB - Shared Program Block                                   *
                                    1881             =*                                                                 *
                                    1882             =*******************************************************************
0000000                00000 00072  1884             =SPB      RECORD BEGIN
 000000                             1892  1          =SPBID      DS    CL4'SPB'
 000004                             1893  1          =SPBNEXT    DS    A                       SPB CHAIN
 000008                             1894  1          =SPBNAME    DS    CL8                 NAME OF SHARED PROGRAM
 000010                             1895  1          =SPBPROG    DS    CL8                 Progran name
 000018                             1896  1          =SPBFILE    DS    CL44                    FILE NAME
                                    1897  1          =
 000044 00                          1898  1          =SPBFL      FLAG  ,                       FLAGS
 SPBFL.SPBFSPI     80 ONES          1902  1          =           FLAG  SPBFSPI                 ACCESS TO SPIRES ONLY FILES
 SPBFL.SPBFPRT     40 ONES          1907  1          =           FLAG  SPBFPRT                 PAGES ARE PROTECTED
 SPBFL.SPBFAUTH    20 ONES          1912  1          =           FLAG  SPBFAUTH                PROGRAM IS AUTHORIZED
 SPBFL.SPBFPURGABL 10 ONES          1917  1          =           FLAG  SPBFPURGABLE        - Purge program if no users
 SPBFL.SPBFLHI     08 ONES          1922  1          =           FLAG  SPBFLHI                 LOAD PROGRAM ABOVE THE LINE
 SPBFL.SPBFM31     04 ONES          1927  1          =           FLAG  SPBFM31                 START IN 31 BIT MODE
 000045 00                          1932  1          =SPBFL2     FLAG  ,
 SPBFL2.SPBFLOAD   80 ONES          1936  1          =           FLAG  SPBFLOAD                PROGRAM BENG LOADED
 SPBFL2.SPBFMEM    40 ONES          1941  1          =           FLAG  SPBFMEM                 MEMORY ALLOC FOR PROGRAM
 SPBFL2.SPBFACTV   20 ONES          1946  1          =           FLAG  SPBFACTV                PROGRAM IS ACTIVE
 SPBFL2.SPBFCORPSE 10 ONES          1951  1          =           FLAG  SPBFCORPSE          - Result of a refresh
                                    1956  1          =
 000048                             1957  1          =SPBORGIN   DS    A                       START ADDRESS OF PROGRAM
 00004C                             1958  1          =SPBSIZE    DS    A                       LENGTH OF PROGRAM AREA
 000050                             1959  1          =SPBEP      DS    A                       ENTRY POINT
 000054                             1960  1          =SPBNU      DS    A                       NO. OF USERS SIGNED ON
 000058                             1961  1          =SPBSSB     DS    A                       Chain of shared symbols
 00005C                             1962  1          =SPBNREF    DS    A                       # users ref'ing symbols
 000060                             1963  1          =SPBRESRV   DS    H                       RESERVE REQUIREMENT
                                    1964  1          =
                                    1965  1          =SPBCWASZ   EQU   16,,C'N'                COMMON WORK AREA
 000062                             1966  1          =SPBCWA     DS    (SPBCWASZ)X
 000072                00072 00072  1967             =         END   ,
1VSSV     (VSSV07) (09:49) (22MAR04) ORVYL'S INTERNAL SET, SHOW AND DUMP COMMANDS                                           Page   13
0Loc    Object Code    Addr1 Addr2  Stmt Lv Lineno    Source Statement           (Hibal 5, Asmedit 3.3)  HLASM R4.0  2004/03/22 09.49
+___    ______ ____    _____ _____  ____ __ ______    ______ _________
0                                   1977      75.              COPY  SSB
                                    1978=            =
                                    1979=            =
                                    1980=            =    SSB - Shared Symbol Block
                                    1981=            =

0000000                00000 000D8  1982             =SSB      RECORD BEGIN
 000000                             1990  1          =SSBID      DS    CL4'SSB'
 000004                             1991  1          =SSBNEXT    DS    A                   Next SSB ptr (or zero)
 000008                             1992  1          =SSBWORD    DS    A                   Symbol value (probably an address)
 00000C 00                          1993  1          =SSBFLAG    FLAG  ,                   Flags
 00000D                             1997  1          =           DS    XL3
 000010                             1998  1          =SSBNAME    DS    CL200               Symbol name
 0000D8                000D8 000D8  1999             =         END
1VSSV     (VSSV07) (09:49) (22MAR04) ORVYL'S INTERNAL SET, SHOW AND DUMP COMMANDS                                           Page   14
0Loc    Object Code    Addr1 Addr2  Stmt Lv Lineno    Source Statement           (Hibal 5, Asmedit 3.3)  HLASM R4.0  2004/03/22 09.49
+___    ______ ____    _____ _____  ____ __ ______    ______ _________
0                                   2009      77.              COPY  SLISTMAC
                                    2010             =*******************************************************************
                                    2011             =*                                                                 *
                                    2012             =* Macros for the serialized manipulation of single linked lists   *
                                    2013             =* in memory.  These lists are of the PUSH/POP (LIFO) variety.     *
                                    2014             =* Serialization is achieved using the CDS and CS instructions.    *
                                    2015             =*                                                                 *
                                    2016             =*******************************************************************
0                                   2018             =*******************************************************************
                                    2019             =*                                                                 *
                                    2020             =* Single linked list head fields                                  *
                                    2021             =*                                                                 *
                                    2022             =*******************************************************************
                                    2023             =         MACRO
                                    2024             =&LAB     SHEAD
                                    2025             =         AIF   ('&LAB' EQ '').ERR
                                    2026             =&LAB     DS   0D                   Single linked CDS list
                                    2027             =&LAB.FP  DS    A                   Forward pointer
                                    2028             =&LAB.SEQ DS    A                   CDS sequence number
                                    2029             =         MEXIT
                                    2030             =.ERR     MNOTE 8,'Label (list name) required'
                                    2031             =         MEND
0                                   2033             =*******************************************************************
                                    2034             =*                                                                 *
                                    2035             =* Push an item onto a single linked list                          *
                                    2036             =*                                                                 *
                                    2037             =*******************************************************************
                                    2038             =         MACRO
                                    2039             =&LABEL   SPUSH &HEAD=,&ITEM=
                                    2040             =         LCLC  &X
                                    2041             =         AIF   ('&LABEL' EQ '').NOLAB
                                    2042             =&LABEL   LABEL ,
                                    2043             =.NOLAB   ANOP  ,
                                    2044             =         AIF   ('&HEAD' EQ '').ERR1
                                    2045             =         AIF   ('&ITEM' EQ '').ERR2
                                    2047             =         LM    R14,R15,&HEAD       Get fwd ptr and sequence number
                                    2048             =         LA    RVR,&ITEM           Point to new item
                                    2049             =         LOOP  BEGIN
                                    2050             =         LA    RS,1(R15)           Increment sequence
                                    2051             =         MVC   &ITEM.(L'&HEAD.FP),&HEAD.FP Set item fwd ptr
                                    2052             =         CDS   R14,RVR,&HEAD       Add item to list
                                    2053             =         UNTIL (Z),END
                                    2055             =         AGO   .EXIT
                                    2056             =.ERR1    MNOTE 8,'Head is a required parameter'
                                    2057             =         AGO   .EXIT
                                    2058             =.ERR2    MNOTE 8,'Item is a required parameter'
                                    2059             =.EXIT    ANOP  ,
                                    2060             =         MEND  ,
0                                   2062             =*******************************************************************
                                    2063             =*                                                                 *
                                    2064             =* Pop an item from a single linked list. Addr returned in RVR     *
                                    2065             =* (zero if the list was empty).                                   *
                                    2066             =*                                                                 *
1VSSV     (VSSV07) (09:49) (22MAR04) ORVYL'S INTERNAL SET, SHOW AND DUMP COMMANDS                                           Page   15
0Loc    Object Code    Addr1 Addr2  Stmt Lv Lineno    Source Statement           (Hibal 5, Asmedit 3.3)  HLASM R4.0  2004/03/22 09.49
+___    ______ ____    _____ _____  ____ __ ______    ______ _________
0                                   2067             =*******************************************************************
                                    2068             =         MACRO
                                    2069             =&LABEL   SPOP  &HEAD=
                                    2070             =         AIF   ('&LABEL' EQ '').NOLAB
                                    2071             =&LABEL   LABEL ,
                                    2072             =.NOLAB   ANOP  ,
                                    2073             =         AIF   ('&HEAD' EQ '').ERR1
                                    2075             =         LM    RVR,RS,&HEAD        Get fwd and sequence number
                                    2076             =         LOOP  BEGIN
                                    2077             =         IF    (RVR,Z),EXIT        None to get
                                    2078             =         LR    R14,RVR             Point to first item
                                    2079             =         L     R14,0(R14)          Get fwd pointer
                                    2080             =         LA    R15,1(RS)           Increment sequence
                                    2081             =         CDS   RVR,R14,&HEAD       Remove item from list
                                    2082             =         UNTIL (Z),END
                                    2084             =         AGO   .EXIT
                                    2085             =.ERR1    MNOTE 8,'Head is a required parameter'
                                    2086             =.EXIT    ANOP  ,
                                    2087             =         MEND  ,
0                                   2089             =*******************************************************************
                                    2090             =*                                                                 *
                                    2091             =* Get an available item from list (ptr returned in RVR). Memory   *
                                    2092             =* will be obtained if the list is empty.                          *
                                    2093             =*                                                                 *
                                    2094             =*******************************************************************
                                    2095             =         MACRO
                                    2096             =&LABEL   SAVAIL &HEAD=,&LEN=,&LOC=GLOBHI,&FIX=,&PAGE=
                                    2097             =         AIF   ('&LABEL' EQ '').NOLAB
                                    2098             =&LABEL   LABEL ,
                                    2099             =.NOLAB   ANOP  ,
                                    2100             =         AIF   ('&HEAD' EQ '').ERR1
                                    2101             =         AIF   ('&LEN' EQ '').ERR2
                                    2102             =         SPOP  HEAD=&HEAD          pop a free item
                                    2103             =         IF    (RVR,Z),BEGIN       empty list
                                    2104             =         VMGET &LEN,LOC=&LOC,FIX=&FIX,PAGE=&PAGE
                                    2105             =         IF    ('LTR RVR,RVR',ZERO),'ABORT NO_MEM_&HEAD'
                                    2106             =         END   ,
                                    2107             =         AGO   .EXIT
                                    2108             =.ERR1    MNOTE 8,'Head is a required parameter'
                                    2109             =         AGO   .EXIT
                                    2110             =.ERR2    MNOTE 8,'Len is a required parameter'
                                    2111             =.EXIT    ANOP  ,
                                    2112             =         MEND  ,
0000000                00000 00008  2114             =SLDUMMY  RECORD BEGIN
                                    2122  1          =SLDUM      SHEAD ,
 000000                             2123  1 01-02026 +SLDUM      DS   0D                   Single linked CDS list
 000000                             2124  1 01-02027 +SLDUMFP    DS    A                   Forward pointer
 000004                             2125  1 01-02028 +SLDUMSEQ   DS    A                   CDS sequence number
 000008                00008 00008  2126             =         END
1VSSV     (VSSV07) (09:49) (22MAR04) ORVYL'S INTERNAL SET, SHOW AND DUMP COMMANDS                                           Page   16
0Loc    Object Code    Addr1 Addr2  Stmt Lv Lineno    Source Statement           (Hibal 5, Asmedit 3.3)  HLASM R4.0  2004/03/22 09.49
+___    ______ ____    _____ _____  ____ __ ______    ______ _________
0                                   2136      79.              COPY  MAT
                                    2137             =*****************************************************************
                                    2138             =*                                                               *
                                    2139             =*        *** M A S T E R   A D D R E S S   T A B L E ***        *
                                    2140             =*                                                               *
                                    2141             =*****************************************************************
-000000                00000 00100  2143             =MAT      RECORD BEGIN
                                    2151  1          =MATPTR     EQU   X'200',4,C'A' Address of the MAT in PZERO
 000000 D4C1E340                    2152  1          =           DC    CL4'MAT'      Control block ID
                                    2153  1          =*
                                    2154  1          =* Addresses of global control blocks
                                    2155  1          =*
 000004                             2156  1          =MATVMCB    DS    A             Virtual memory control block
 000008                             2157  1          =MATDCT     DS    A             Dispatcher control table
 00000C                             2158  1          =MATPAGCB   DS    A             Real memory control block
 000010                             2159  1          =MATM1CT    DS    A             CT for Mode 1 users
 000014                             2160  1          =MATLCT     DS    A             Lock manager control table
 000018                             2161  1          =MATQCT     DS    A             Queue manager control table
 00001C                             2162  1          =MATIOCB    DS    A             I/O Manager control block
 000020                             2163  1          =MATSBWB    DS    A             System buffer wait blocks
 000024                             2164  1          =MATGTCT    DS    A             Terminal global control table
 000028                             2165  1          =MATFILCB   DS    A             File master control table
 00002C                             2166  1          =MATJESCB   DS    A             JES master control table
 000030                             2167  1          =MATSYSCB   DS    A             System task control table
 000034                             2168  1          =MATACCT    DS    A             Accounting control table
 000038                             2169  1          =MATGRCT    DS    A             General Resource control table
 00003C                             2170  1          =MATGNCT    DS    A             Global Network Control table
 000040                             2171  1          =MATTECB    DS    D             Termination wait ECB
 000048                             2172  1          =           DS    25A           Reserved
                                    2173  1          =*
                                    2174  1          =* Control Block Chains
                                    2175  1          =*
 0000AC                             2176  1          =MATASBS    DS    A             Pointer to chain of ASBs
 0000B0                             2177  1          =MATASBL    DS    A             Id of suspend lock for ASB chain
 0000B4                             2178  1          =           DS    8A            **  RESERVED
                                    2179  1          =*
                                    2180  1          =* Control information
                                    2181  1          =*
 0000D4                             2182  1          =MATSNAME   DS    CL8           System Name
 0000DC                             2183  1          =MATPAGFN   DS    A             Current value of the Paging function
 0000E0                             2184  1          =MATSKEY    DS    X             SYSTEM storage key (in high 4 bits)
 0000E1                             2185  1          =MATUKEY    DS    X             USER storage key
                                    2186= 1          =
                                    2187= 1          =             Information about the Kernel
                                    2188= 1          =
 0000E4                             2189  1          =MATKSTRT   DS    A             Starting address of the Kernel
 0000E8                             2190  1          =MATKMAP    DS    A             Address of the Kernel map
 0000EC                             2191  1          =MATKMAPL   DS    A             Length of the Kernel map
                                    2192= 1          =
                                    2193= 1          =             Failsoft information.
                                    2194= 1          =
 0000F0                             2195  1          =MATNCLPE   DS    F             Number of CLP errors
 0000F4                             2196  1          =MATNFAIL   DS    F             Number of failsofts
 0000F8                             2197  1          =           DS    2A            Reserved
1VSSV     (VSSV07) (09:49) (22MAR04) ORVYL'S INTERNAL SET, SHOW AND DUMP COMMANDS                                           Page   17
0Loc    Object Code    Addr1 Addr2  Stmt Lv Lineno    Source Statement           (Hibal 5, Asmedit 3.3)  HLASM R4.0  2004/03/22 09.49
+___    ______ ____    _____ _____  ____ __ ______    ______ _________
0000100                00100 00100  2198             =         END
1VSSV     (VSSV07) (09:49) (22MAR04) ORVYL'S INTERNAL SET, SHOW AND DUMP COMMANDS                                           Page   18
0Loc    Object Code    Addr1 Addr2  Stmt Lv Lineno    Source Statement           (Hibal 5, Asmedit 3.3)  HLASM R4.0  2004/03/22 09.49
+___    ______ ____    _____ _____  ____ __ ______    ______ _________
0                                   2208      81.              COPY  FILECB
                                    2209=            =
                                    2210=            =
                                    2211=            =        Global File System Information
                                    2212=            =

0000000                00000 00158  2213             =FILECB   RECORD BEGIN
 000000 C6C9D3C5C3C24040            2221  1          =FILEID     DC    CL8'FILECB'         Self identification
                                    2222  1          =
 000008                             2223  1          =FILEFFSB   DS    A                   First FSB pointer
 00000C                             2224  1          =FILEFSBC   DS    A                   Number of FSBs
 000010                             2225  1          =FILEFSGT   DS    A                   Pointer to file sys group tbl
                                    2226  1          =*
                                    2227  1          =*  Buffer management
                                    2228  1          =*
 000014 00                          2229  1          =FILBFLAG   FLAG  ,                   Buffer flag
 FILBFLAG.FILBFHCA 80 ONES          2233  1          =           FLAG  FILBFHCA            Hiperspace cache
 FILBFLAG.FILBNOTD 40 ONES          2238  1          =           FLAG  FILBNOTD            Don't dump cache blocks
 000015                             2243  1          =           DS    XL3                 Spare
 000018                             2244  1          =FILE2KCH   DS    A                   File cache control block (user)
 00001C                             2245  1          =FILE2KCS   DS    A                   File cache control block (system)
 000020                             2246  1          =FILE4KCH   DS    A                   File cache control block (user)
 000024                             2247  1          =FILE4KCS   DS    A                   File cache control block (system)
                                    2248  1          =
 000028                             2249  1          =FILE2KRB   DS    A                   Read buffer control block
 00002C                             2250  1          =FILE4KRB   DS    A                   Read buffer control block
 000030                             2251  1          =FILEIOP    DS    A                   File IO parm buffers
                                    2252  1          =
 000034                             2253  1          =FILTEMPF   DS    A                   Temp files FSB
                                    2254  1          =
                                    2255  1          =FILEBW     SHEAD ,                   Free wait blocks for buff mngmt
 000038                             2256  1 01-02026 +FILEBW     DS   0D                   Single linked CDS list
 000038                             2257  1 01-02027 +FILEBWFP   DS    A                   Forward pointer
 00003C                             2258  1 01-02028 +FILEBWSEQ   DS   A                   CDS sequence number
                                    2259  1          =FILEATFB   SHEAD ,                   Free file attached blocks
 000040                             2260  1 01-02026 +FILEATFB   DS   0D                   Single linked CDS list
 000040                             2261  1 01-02027 +FILEATFBFP   DS  A                   Forward pointer
 000044                             2262  1 01-02028 +FILEATFBSEQ   DS A                   CDS sequence number
                                    2263  1          =*
                                    2264  1          =*  Statistics
                                    2265  1          =*
 000048                             2266  1          =FILMTIME   DS    D                   Elapsed time for SMF
                                    2267  1          =*
                                    2268  1          =* Note: don't modify the following counters in any way unless
                                    2269  1          =*       FSB and the routine FDOIODO are also modified.
                                    2270  1          =*
                                    2271  1          =*  File read counts from disk
                                    2272  1          =*
 000050                             2273  1          =TTREADCT   DS    0D
 000050                             2274  1          =TTMASRCT   DS    D                   Master - read counts
 000058                             2275  1          =TTCATRCT   DS    D                   Catalog - read counts
 000060                             2276  1          =TTBITRCT   DS    D                   Bitmap - read counts
 000068                             2277  1          =TTIXRRCT   DS    D                   IXR - read counts
 000070                             2278  1          =TTUSERCT   DS    D                   User  - read counts
 000078                             2279  1          =TTOTHRCT   DS    D                   Other?? - read counts
1VSSV     (VSSV07) (09:49) (22MAR04) ORVYL'S INTERNAL SET, SHOW AND DUMP COMMANDS                                           Page   19
0Loc    Object Code    Addr1 Addr2  Stmt Lv Lineno    Source Statement           (Hibal 5, Asmedit 3.3)  HLASM R4.0  2004/03/22 09.49
+___    ______ ____    _____ _____  ____ __ ______    ______ _________
0                                   2280  1          =*
                                    2281  1          =* Counter indexes - All counters are referenced with the
                                    2282  1          =* generic label and using one of the following indexes.
                                    2283  1          =*
                                    2284  1          =TTMASD     EQU   TTMASRCT-TTREADCT
                                    2285  1          =TTCATD     EQU   TTCATRCT-TTREADCT
                                    2286  1          =TTBITD     EQU   TTBITRCT-TTREADCT
                                    2287  1          =TTIXRD     EQU   TTIXRRCT-TTREADCT
                                    2288  1          =TTUSED     EQU   TTUSERCT-TTREADCT
                                    2289  1          =TTOTHD     EQU   TTOTHRCT-TTREADCT
                                    2290  1          =*
                                    2291  1          =*  File write counts
                                    2292  1          =*
 000080                             2293  1          =TTWRITCT   DS    0D
 000080                             2294  1          =TTMASWCT   DS    D                   Master - writes
 000088                             2295  1          =TTCATWCT   DS    D                   Catalog - writes
 000090                             2296  1          =TTBITWCT   DS    D                   Bitmap -  writes
 000098                             2297  1          =TTIXRWCT   DS    D                   IXR - writes
 0000A0                             2298  1          =TTUSEWCT   DS    D                   User -  writes
 0000A8                             2299  1          =TTOTHWCT   DS    D                   Other?? - writes
                                    2300  1          =*
                                    2301  1          =*  File read counts from cache
                                    2302  1          =*
 0000B0                             2303  1          =TTCACHCT   DS    0D
 0000B0                             2304  1          =TTMASCCT   DS    D                   Master - read counts
 0000B8                             2305  1          =TTCATCCT   DS    D                   Catalog - read counts
 0000C0                             2306  1          =TTBITCCT   DS    D                   Bitmap - read counts
 0000C8                             2307  1          =TTIXRCCT   DS    D                   IXR - read counts
 0000D0                             2308  1          =TTUSECCT   DS    D                   User  - read counts
 0000D8                             2309  1          =TTOTHCCT   DS    D                   Other?? - read counts
                                    2310  1          =TTFILECT   EQU   TTREADCT,*-TTREADCT
                                    2311  1          =TTFILECC   EQU   (*-TTREADCT)/L'TTREADCT
                                    2312  1          =
                                    2313  1          =TTFREAD    EQU   TTREADCT-TTFILECT
                                    2314  1          =TTFWRIT    EQU   TTWRITCT-TTFILECT
                                    2315  1          =TTFCACH    EQU   TTCACHCT-TTFILECT
                                    2316  1          =*
                                    2317  1          =*  Attach statistics
                                    2318  1          =*
 0000E0                             2319  1          =TTFILATT   DS    F                   Number of files attached
 0000E4                             2320  1          =TTFILATM   DS    F                   | max number attached
 0000E8                             2321  1          =TTFILAUS   DS    F                   Number of user attaches
 0000EC                             2322  1          =TTFILAUM   DS    F                   | max number of user attaches
 0000F0                             2323  1          =TTFILATP   DS    F                   Number of temp files attached
 0000F4                             2324  1          =TTFILAPM   DS    F                   | max number of temp files attached
 0000F8                             2325  1          =TTFILTBK   DS    F                   Number of temp blocks in use
 0000FC                             2326  1          =TTFILTBM   DS    F                   | max number of temp blocks in use
                                    2327  1          =*
                                    2328  1          =* Delete file processing control area
                                    2329  1          =*
 000100                             2330  1          =FILEDECB   DS    D                   Wait for work ECB
                                    2331  1          =FILEDB     SHEAD ,                   Free file delete blocks
 000108                             2332  1 01-02026 +FILEDB     DS   0D                   Single linked CDS list
 000108                             2333  1 01-02027 +FILEDBFP   DS    A                   Forward pointer
 00010C                             2334  1 01-02028 +FILEDBSEQ   DS   A                   CDS sequence number
                                    2335  1          =FILEDT     SHEAD ,                   List of temp files to delete
1VSSV     (VSSV07) (09:49) (22MAR04) ORVYL'S INTERNAL SET, SHOW AND DUMP COMMANDS                                           Page   20
0Loc    Object Code    Addr1 Addr2  Stmt Lv Lineno    Source Statement           (Hibal 5, Asmedit 3.3)  HLASM R4.0  2004/03/22 09.49
+___    ______ ____    _____ _____  ____ __ ______    ______ _________
0000110                             2336  1 01-02026 +FILEDT     DS   0D                   Single linked CDS list
 000110                             2337  1 01-02027 +FILEDTFP   DS    A                   Forward pointer
 000114                             2338  1 01-02028 +FILEDTSEQ   DS   A                   CDS sequence number
                                    2339  1          =FILEDF     SHEAD ,                   List of files to delete
 000118                             2340  1 01-02026 +FILEDF     DS   0D                   Single linked CDS list
 000118                             2341  1 01-02027 +FILEDFFP   DS    A                   Forward pointer
 00011C                             2342  1 01-02028 +FILEDFSEQ   DS   A                   CDS sequence number
 000120                             2343  1          =FILEDASB   DS    A                   Delete file processing ASB
 000124                             2344  1          =FILEDSYR   DS    A                   Sys routine id
 000128                             2345  1          =FILEDCNT   DS    A                   Count of active tasks
 00012C                             2346  1          =FILEDCN2   DS    H                   Count of 'throttle' waits
 00012E                             2347  1          =FILEDTS    DS    X                   Test and set lock
 00012F                             2348  1          =           DS    X                   Spare
 000130                             2349  1          =FILECRE    DS    A                   Files created
 000134                             2350  1          =           DS    9A                  Spare
 000158                00158 00158  2351             =         END
1VSSV     (VSSV07) (09:49) (22MAR04) ORVYL'S INTERNAL SET, SHOW AND DUMP COMMANDS                                           Page   21
0Loc    Object Code    Addr1 Addr2  Stmt Lv Lineno    Source Statement           (Hibal 5, Asmedit 3.3)  HLASM R4.0  2004/03/22 09.49
+___    ______ ____    _____ _____  ____ __ ______    ______ _________
0                                   2361      83.              COPY  FSB
 000000                00000 001E0  2362             =FSB      RECORD BEGIN
                                    2370  1          =CCAT0PCT   EQU   10                      % OF FREE BLOCKS FOR WARNING
                                    2371  1          =CCAT0MIN   EQU   60                      MIN FREE BEFORE WARNING
                                    2372  1          =CCAT1PCT   EQU   5                       % OF MIN LOGICAL FREE BLOCKS
                                    2373  1          =CCAT1MIN   EQU   60                      MIN FREE LOGICAL BLOCK NUM
                                    2374  1          =CCAT2PCT   EQU   1                       % OF MIN FREE BLOCKS
                                    2375  1          =CCAT2MIN   EQU   10                      MIN FREE BLOCK NUM
                                    2376  1          =
                                    2377  1          =CNODA99    EQU   72,72,C'N'              99th percentile
                                    2378  1          =CNODF99    EQU   65,65,C'N'              Non permit len, no per, max name
                                    2379  1          =
                                    2380  1          =CFSBFLSZ   EQU   40                      MAX FIL NAME LEN(DOTS, ~"ORV.")
                                    2381  1          =CFSBNDOT   EQU   38                      MAX FIL NAME LEN(~DOTS, ~"ORV.")
                                    2382  1          =CFSBNMSZ   EQU   33                      MAX NAME LEN TO SEARCH
                                    2383  1          =CFSBDBLK   EQU   3                       3 DOUBLE WRITE BLOCKS
                                    2384  1          =CFSBSTK    EQU   7                       STACK DEPTH OF 7
                                    2385  1          =CFSBMXNT   EQU   256+41                  MAX ENTRY LENGTH
                                    2386  1          =OBLKPL     EQU   3,3,C'N'                ORVYL FILE BLOCK POINTER LEN
                                    2387  1          =BL         EQU   2,2,C'N'                BLOCK POINTER LEN
                                    2388  1          =OL         EQU   2,2,C'N'                OFFSET POINTER LEN
                                    2389  1          =PL         EQU   BL+OL,BL+OL,C'N'        TOTAL POINTER LEN
                                    2390  1          =           GBLA  &BL,&L
                                    2391  1          =&BL        SETA  L'BL
                                    2392  1          =&L         SETA  L'PL                    TOTAL POINTER LENGTH
                                    2393  1          =*
                                    2394  1          =*  FILE SYSTEM BLOCK
                                    2395  1          =*
 000000 C6E2C240                    2396  1          =FSBBID     DC    CL4'FSB'                BLOCK ID
                                    2397  1          =
 000004                             2398  1          =FSBCHAIN   DS    A                       NEXT FSB ON CHAIN
                                    2399  1          =
 000008                             2400  1          =FSBID      DS    X                       FILE-SYSTEM ID NUMBER
                                    2401  1          =
 000009 00                          2402  1          =FSBAFLGS   FLAG  ,                       FILE-SYSTEM AVAILABILITY
 FSBAFLGS.FSBANAVL 80 ONES          2406  1          =           FLAG  FSBANAVL                NOT AVAILABLE
 FSBAFLGS.FSBARO   40 ONES          2411  1          =           FLAG  FSBARO                  READ-ONLY STATUS
 FSBAFLGS.FSBINIT  20 ONES          2416  1          =           FLAG  FSBINIT                 INITIALIZATION PROCESS
 FSBAFLGS.FSBCLOSE 10 ONES          2421  1          =           FLAG  FSBCLOSE                SHUTDOWN PROCESS
 FSBAFLGS.FSBCATNI 08 ONES          2426  1          =           FLAG  FSBCATNIN               CATALOG IN NoInsert MODE
 FSBAFLGS.FSBCATNL 04 ONES          2431  1          =           FLAG  FSBCATNLM               CATALOG IN NoLenMod MODE
                                    2436  1          =
 00000A 00                          2437  1          =FSBSFLGS   FLAG  ,                       FILE-SYSTEM STATUS
 FSBSFLGS.FSBSPROD 80 ONES          2441  1          =           FLAG  FSBSPROD                PRODUCTION FILE SYSTEM
 FSBSFLGS.FSBSABRO 40 ONES          2446  1          =           FLAG  FSBSABRO                ALLOW BATCH THOUGH R/O
 FSBSFLGS.FSBSTEMP 20 ONES          2451  1          =           FLAG  FSBSTEMP                DEDICATED TO TEMP FILES
                                    2456  1          =
 00000B 00                          2457  1          =FSBOFLGS   FLAG  ,                       FILE-SYSTEM OPTIONS
 FSBOFLGS.FSBONIXR 80 ONES          2461  1          =           FLAG  FSBONIXR                NON-IXR FILES ALLOWED
 FSBOFLGS.FSBFCACH 40 ONES          2466  1          =           FLAG  FSBFCACHE               Use file block caching
 FSBOFLGS.FSBHCACH 20 ONES          2471  1          =           FLAG  FSBHCACHE               Use hiperspace caching
                                    2476  1          =
 00000C                             2477  1          =FSBFRDB    DS    A                       FIRST RDB FOR FILE-SYSTEM
 000010                             2478  1          =FSBLRDB    DS    A                       LAST RDB FOR FILE-SYSTEM
 000014                             2479  1          =FSBDDN     DS    CL4                     DDNAME
 000018                             2480  1          =FSBNAME    DS    CL8                     FILE-SYSTEM NAME
1VSSV     (VSSV07) (09:49) (22MAR04) ORVYL'S INTERNAL SET, SHOW AND DUMP COMMANDS                                           Page   22
0Loc    Object Code    Addr1 Addr2  Stmt Lv Lineno    Source Statement           (Hibal 5, Asmedit 3.3)  HLASM R4.0  2004/03/22 09.49
+___    ______ ____    _____ _____  ____ __ ______    ______ _________
0000020 C7C74BE4E4E4                2481  1          =FSBOWNER   DC    CL6'GG.UUU'             FILE-SYSTEM MASTER ACCOUNT
                                    2482  1          =
 000026                             2483  1          =           DS    XL2                     Spare
                                    2484  1          =
 000028                             2485  1          =FSBCGRI    DS    A                       Catalog general resource id
 00002C                             2486  1          =FSBRBT     DS    A                       Read Buffer Table Pointer
 000030                             2487  1          =FSBCACHE   DS    A                       Cache table pointer
 000034                             2488  1          =FSBCACHS   DS    A                       System cache table pointer
 000038                             2489  1          =           DS    A                       Spare
 00003C                             2490  1          =FSBAHFB    DS    A                       File attached hash table
 000040                             2491  1          =FSBIOP     DS    A                       File IO parm buffers
                                    2492  1          =*
                                    2493  1          =*  CATALOG MANAGEMENT AREA
                                    2494  1          =*
 000044                             2495  1          =FSBCATSB   DS    A                       CATALOGUE START BLOCK
 000048                             2496  1          =FSBCATBC   DS    A                       CATALOGUE BLOCK COUNT
                                    2497  1          =*SBBMALO DS    A   ** MOVE TO STATS ** ALLOCATION REQUESTS
                                    2498  1          =*SBBMALS DS    A   ** MOVE TO STATS ** ALLOCATION NOT CACHED
                                    2499  1          =*SBBMFRE DS    A   ** MOVE TO STATS ** BITMAP RELEASES
                                    2500  1          =*SBBMFRS DS    A   ** MOVE TO STATS ** BITMAP RELEASES - TO SYS
 00004C                             2501  1          =           DS    4A                      Available
                                    2502  1          =CFSBBL     EQU   4                       FSB BLOCK PTR LEN
                                    2503  1          =CFSBPL     EQU   8,8,C'N'                FSB POINTER LEN (BLOCK + ADDR)
                                    2504  1          =CFSBBUF    EQU   8,8,C'N'                8 CAT BLOCK BUFFERS ALLOWED
 00005C                             2505  1          =FSBBLKTOP   DS   A                       POINTS TO LAST BUFFER SLOT
 000060                             2506  1          =FSBCHKA    DS    A                       CHECK POINT BUFFER ADDRESS
 000064                             2507  1          =FSBROOTB   DS    A                       BLOCK NUMBER IN ROOT BUFFER
 000068                             2508  1          =FSBROOTA   DS    A                       | ADDRESS OF ROOT BUFFER
 00006C                             2509  1          =FSBBLK1    DS    A                       BLOCK NUMBER IN 1ST BUFFER
 000070                             2510  1          =FSBBUF1    DS    A                       | ADDRESS OF 1ST BUFFER
                                    2511  1          =&BUFLEN    SETA  (L'CFSBBUF-1)*L'CFSBPL
                                    2512  1          =           DS    &BUFLEN.X               | LEN OF REMAINING BUF SLOTS
 000074                                   1          +           DS    56X                     | LEN OF REMAINING BUF SLOTS
                                    2513  1          =*
                                    2514  1          =*  Catalog Balancing Parameters
                                    2515  1          =*
 0000AC                             2516  1          =FSBBALST   DS    0X
 0000AC                             2517  1          =FSBDSZ     DS    Y                       Size of disk block
 0000AE                             2518  1          =FSBDAVA    DS    Y                       Available space per block
 0000B0                             2519  1          =FSBDTAGX   DS    Y                       Offset of end tag in block
 0000B2                             2520  1          =FSBNALEN   DS    Y                       Account: Length of node
 0000B4                             2521  1          =FSBNASPA   DS    Y                       | Free space in node
 0000B6                             2522  1          =FSBTAXLN   DS    Y                       | Maximum length of entry
 0000B8                             2523  1          =FSBNAMXL   DS    Y                       | Max len of entry in node
 0000BA                             2524  1          =FSBNAXSP   DS    Y                       | Max free space per node
 0000BC                             2525  1          =FSBNANSP   DS    Y                       | Min free space per node
 0000BE                             2526  1          =FSBNFLEN   DS    Y                       File: Length of node
 0000C0                             2527  1          =FSBNFSPA   DS    Y                       | Free space in node
 0000C2                             2528  1          =FSBTFXLN   DS    Y                       | Maximum length of entry
 0000C4                             2529  1          =FSBNFMXL   DS    Y                       | Max len of entry in node
 0000C6                             2530  1          =FSBNFXSP   DS    Y                       | Max free space per node
 0000C8                             2531  1          =FSBNFNSP   DS    Y                       | Min free space per node
 0000CA                             2532  1          =FSBTXXLN   DS    Y                       Max len of extended data entry
 0000CC                             2533  1          =FSBLOGFR   DS    Y                       Minimum logical block count
 0000CE                             2534  1          =FSBMNFRE   DS    Y                       Min num of free blks in Cat
                                    2535  1          =FSBBALLN   EQU   *-FSBBALST
1VSSV     (VSSV07) (09:49) (22MAR04) ORVYL'S INTERNAL SET, SHOW AND DUMP COMMANDS                                           Page   23
0Loc    Object Code    Addr1 Addr2  Stmt Lv Lineno    Source Statement           (Hibal 5, Asmedit 3.3)  HLASM R4.0  2004/03/22 09.49
+___    ______ ____    _____ _____  ____ __ ______    ______ _________
0                                   2536  1          =*
                                    2537  1          =*  BITMAP MANAGEMENT AREA
                                    2538  1          =*
 0000D0                             2539  1          =FSBBMCNO   DS    Y                       SPECIFIED CNT BLK# IN AVAIL LIST
 0000D4                             2540  1          =FSBBITSB   DS    A                       BIT MAP FIRST BLOCK
 0000D8                             2541  1          =FSBBITBC   DS    A                       BIT MAP BLOCK COUNT
 0000DC                             2542  1          =FSBABLK    DS    A                       NUMBER OF AVAILABLE BLOCKS
 0000E0                             2543  1          =FSBTBLK    DS    A                       TOTAL NUMBER OF BLOCKS
 0000E4                             2544  1          =FSBDBLK    DS    A                       DEFAULT BLOCK ALLOCATION
 0000E8                             2545  1          =FSBABNL    DS    A                       AVAILABLE BLOCK NUMBER LIST
                                    2546  1          =
 0000EC                             2547  1          =FSBSMF     DS    2A                      SMF STATISTICS WORK AREA
 0000F4                             2548  1          =FSBSTATS   DS    0X
 0000F4                             2549  1          =FSBCTRD    DS    F                       CATALOG READ COUNTER
 0000F8                             2550  1          =FSBCTRRD   DS    F                       CATALOG ROOT "READ" COUNTER
 0000FC                             2551  1          =FSBCTCRD   DS    F                       CATALOG CASHED READ COUNTER
 000100                             2552  1          =FSBCTBRD   DS    F                       CATALOG BALANCE READ COUNTER
 000104                             2553  1          =FSBCTWR    DS    F                       CATALOG WRITE COUNTER
 000108                             2554  1          =FSBCTIWR   DS    F                       CATALOG INTENTIONS WRITE CNT
 00010C                             2555  1          =FSBCTBWR   DS    F                       CATALOG BALANCE WRITE COUNTER
 000110                             2556  1          =FSBCTDWR   DS    F                       CATALOG DOUBLE WRITE COUNTER
                                    2557  1          =*
                                    2558  1          =*  Total IO's and IO time
                                    2559  1          =*
 000114                             2560  1          =FSBIOCT    DS    F                   Total I/O count
 000118                             2561  1          =FSBIOTIM   DS    D                   Total I/O time
                                    2562  1          =
 000120                             2563  1          =FSBCAT4K   DS    F                   Cat io 4K buffer (2K file sys only)
                                    2564  1          =
 000124                             2565  1          =CTFILATT   DS    F                   Number of files attached
 000128                             2566  1          =CTFILATM   DS    F                   | max number attached
 00012C                             2567  1          =CTFILAUS   DS    F                   Number of user attaches
 000130                             2568  1          =CTFILAUM   DS    F                   | max number of user attaches
 000134                             2569  1          =CTFILATP   DS    F                   Number of temp files attached
 000138                             2570  1          =CTFILAPM   DS    F                   | max number of temp files attached
000013C                             2572  1          =           DS    F                   Spare
                                    2573  1          =*
                                    2574  1          =* Note: don't modify the following counters in any way unless
                                    2575  1          =*       FILECB and the routine FDOIODO are also modified.
                                    2576  1          =*
                                    2577  1          =*  File read counts from disk
                                    2578  1          =*
 000140                             2579  1          =FSBFIOCT   DS    0D                  First IO count
 000140                             2580  1          =CTREADCT   DS    0D
 000140                             2581  1          =CTMASRCT   DS    D                   Master - read counts
 000148                             2582  1          =CTCATRCT   DS    D                   Catalog - read counts
 000150                             2583  1          =CTBITRCT   DS    D                   Bitmap - read counts
 000158                             2584  1          =CTIXRRCT   DS    D                   IXR - read counts
 000160                             2585  1          =CTUSERCT   DS    D                   User  - read counts
 000168                             2586  1          =CTOTHRCT   DS    D                   Other?? - read counts
                                    2587  1          =*
                                    2588  1          =* Counter indexes - All counters are referenced with the
                                    2589  1          =* generic label and using one of the following indexes.
                                    2590  1          =*
                                    2591  1          =CTMASD     EQU   CTMASRCT-CTREADCT
1VSSV     (VSSV07) (09:49) (22MAR04) ORVYL'S INTERNAL SET, SHOW AND DUMP COMMANDS                                           Page   24
0Loc    Object Code    Addr1 Addr2  Stmt Lv Lineno    Source Statement           (Hibal 5, Asmedit 3.3)  HLASM R4.0  2004/03/22 09.49
+___    ______ ____    _____ _____  ____ __ ______    ______ _________
0                                   2592  1          =CTCATD     EQU   CTCATRCT-CTREADCT
                                    2593  1          =CTBITD     EQU   CTBITRCT-CTREADCT
                                    2594  1          =CTIXRD     EQU   CTIXRRCT-CTREADCT
                                    2595  1          =CTUSED     EQU   CTUSERCT-CTREADCT
                                    2596  1          =CTOTHD     EQU   CTOTHRCT-CTREADCT
                                    2597  1          =*
                                    2598  1          =*  File write counts
                                    2599  1          =*
 000170                             2600  1          =CTWRITCT   DS    0D
 000170                             2601  1          =CTMASWCT   DS    D                   Master - writes
 000178                             2602  1          =CTCATWCT   DS    D                   Catalog - writes
 000180                             2603  1          =CTBITWCT   DS    D                   Bitmap -  writes
 000188                             2604  1          =CTIXRWCT   DS    D                   IXR - writes
 000190                             2605  1          =CTUSEWCT   DS    D                   User -  writes
 000198                             2606  1          =CTOTHWCT   DS    D                   Other?? - writes
                                    2607  1          =FSBFIOCN   EQU   (*-FSBFIOCT)/L'FSBFIOCT
                                    2608  1          =*
                                    2609  1          =*  File read counts from cache
                                    2610  1          =*
 0001A0                             2611  1          =FSBFCACT   DS    0D                  First cache count
 0001A0                             2612  1          =CTCACHCT   DS    0D
 0001A0                             2613  1          =CTMASCCT   DS    D                   Master - read counts
 0001A8                             2614  1          =CTCATCCT   DS    D                   Catalog - read counts
 0001B0                             2615  1          =CTBITCCT   DS    D                   Bitmap - read counts
 0001B8                             2616  1          =CTIXRCCT   DS    D                   IXR - read counts
 0001C0                             2617  1          =CTUSECCT   DS    D                   User  - read counts
 0001C8                             2618  1          =CTOTHCCT   DS    D                   Other?? - read counts
                                    2619  1          =
                                    2620  1          =CTREADD    EQU   CTREADCT-FSBFIOCT
                                    2621  1          =CTWRITD    EQU   CTWRITCT-FSBFIOCT
                                    2622  1          =CTCACHD    EQU   CTCACHCT-FSBFIOCT
                                    2623  1          =
                                    2624  1          =FSBFCACN   EQU   (*-FSBFCACT)/L'FSBFCACT
                                    2625  1          =CTFILECT   EQU   CTREADCT,*-CTREADCT
                                    2626  1          =CTFILECC   EQU   (*-CTREADCT)/L'CTREADCT
00001D0                             2628  1          =           DS    4A                  Spare
00001E0                001E0 001E0  2630             =         END   ,
1VSSV     (VSSV07) (09:49) (22MAR04) ORVYL'S INTERNAL SET, SHOW AND DUMP COMMANDS                                           Page   25
0Loc    Object Code    Addr1 Addr2  Stmt Lv Lineno    Source Statement           (Hibal 5, Asmedit 3.3)  HLASM R4.0  2004/03/22 09.49
+___    ______ ____    _____ _____  ____ __ ______    ______ _________
0                                   2640      85.              COPY  FILEDSD
 000000                00000 0004C  2641             =FILEDSD  RECORD BEGIN                  Dataset descriptor
 000000                             2649  1          =DSDNXT     DS    A                       Next dataset descriptor
 000004                             2650  1          =DSDCHID    DS    A                       Channel ID - host
 000008                             2651  1          =DSDSTART   DS    A                       Starting block of this DS
 00000C                             2652  1          =DSDCNT     DS    A                       Number of blocks
 000010                             2653  1          =DSDTIME    DS    D                       Time of file I/Os
 000018                             2654  1          =DSDICNT    DS    A                       Number of file I/Os
 00001C                             2655  1          =DSDLEN     DS    H                       Block length
 00001E                             2656  1          =DSDHDR     DS    H                       Header length
 000020                             2657  1          =DSDDSN     DS    CL44                    Dataset name
 00004C                0004C 0004C  2658             =         END   ,
1VSSV     (VSSV07) (09:49) (22MAR04) ORVYL'S INTERNAL SET, SHOW AND DUMP COMMANDS                                           Page   26
0Loc    Object Code    Addr1 Addr2  Stmt Lv Lineno    Source Statement           (Hibal 5, Asmedit 3.3)  HLASM R4.0  2004/03/22 09.49
+___    ______ ____    _____ _____  ____ __ ______    ______ _________
0                                   2668      87.
                                    2669      88.                WORK AREA
                                    2670      89.
 000000                00000 000C8  2671      90.     WA       DSECT
 000000                             2672      91.              VSA   SR,RAR
                                    2674      92.
 000020 00                          2675      93.     WAFL     FLAG  ,                       MISC FLAGS
 WAFL.WAFLSYS      80 ONES          2679      94.              FLAG  WAFLSYS                 SYSTEM PRIVS
 WAFL.WAFLINS      40 ONES          2684      95.              FLAG  WAFLINS                 INSIDER
                                    2689      96.              KWREC FLAGS
                                    2708      97.
 000028                             2709      98.     AREA     DS    0D
 000028                             2710      99.     WAORVST  DS    2A
 000030                             2711     100.     WACPUT   DS    2A
 000038                             2712     101.     WADSPT   DS    2A
 000040                             2713     102.     WAIOT    DS    2A
 000048                             2714     103.     WAORVCPU DS    2A                      ORVYL CPU TIME CONSUMED
                                    2715     104.
 000050                00050 00028  2716     105.              ORG   AREA                    SHOW VUSERS
 000028                             2717     106.     WAUNEXT  DS    A                       NEXT ASB IN CHAIN
 00002C                             2718     107.     WAUIOS   DS    A                       USER I/O COUNT
 000030                             2719     108.     WAUCPU   DS    2A                      USER CPU TIME
 000038                             2720     109.     WAUID    DS    CL8                     USER ID
 000040                             2721     110.     WAUPGNM  DS    CL8                     PROGRAM NAME
 000048                             2722     111.     WAUTID   DS    A                       TERMINAL ID
 00004C                             2723     112.     WAUSPOD  DS    A                       SPB ADDRESS
 000050                             2724     113.     WAULTIM  DS    A                       MINUTES LOGGED ON
                                    2725     114.     WAUAREA  EQU   WAUNEXT,*-WAUNEXT,C'X'
 000054                             2726     115.     WAULNO   DS    A                       LINE NUMBER
 000058                             2727     116.     WAUSPO   DS    A                       SHARED PROGRAM ADDRESS
 00005C 00                          2728     117.     WAUFLAG  FLAG  ,
 WAUFLAG.WAUFSHOW  80 ONES          2732     118.              FLAG  WAUFSHOW                SHOW THIS GUY
                                    2737     119.     WAUWA    EQU   WAUNEXT,*-WAUNEXT,C'X'
                                    2738     120.
 00005D                0005D 00028  2739     121.              ORG   AREA
 000028                             2740     122.     WAVVOLUM DS    0A                  Start of SHOW/SET VVOLUME wa
 000028                             2741     123.     WAVVPTR  DS    A                   Work pointer
 00002C                             2742     124.     WAVVFSN  DS    CL8                 File system name
 000034                             2743     125.     WAVVFSBP DS    A                   FSB pointer
 000038                             2744     126.     WAVVFSB  DS    XL(FSBOWNER-FSBBID) First part of FSB
 000058                             2745     127.     WAVVDSD  DS    XL(L'FILEDSD)       DSD area
 0000A4                             2746     128.     WAVVUNPK DS    CL8
                                    2747     129.     WAVVWRK  EQU   AREA,*-AREA,C'X'
                                    2748     130.
 0000AC                000AC 00028  2749     131.              ORG   AREA
 000028                             2750     132.     WAVREGIO DS    0A                  Start of SHOW/SET VREGION wa
 000028                             2751     133.     WAVRADDR DS    A                   Address of halfword region parm
 00002C                             2752     134.              DS    A
 000030                             2753     135.     WAVRLEN  DS    H                   Length
 000032                             2754     136.     WAVREG   DS    H                   Region
 000034                             2755     137.     WAVRORG  DS    A                   Origin
                                    2756     138.
 000038                00038 00028  2757     139.              ORG   AREA
                                    2758     140.     WAVGSTRT EQU   *                   Start of SHOW VGROUP wa
 000028                             2759     141.     WAVGROUP DS    CL2                 Group
 00002A                             2760     142.     WAVGS113 DS    0CL9                Status 113 return
1VSSV     (VSSV07) (09:49) (22MAR04) ORVYL'S INTERNAL SET, SHOW AND DUMP COMMANDS                                           Page   27
0Loc    Object Code    Addr1 Addr2  Stmt Lv Lineno    Source Statement           (Hibal 5, Asmedit 3.3)  HLASM R4.0  2004/03/22 09.49
+___    ______ ____    _____ _____  ____ __ ______    ______ _________
000002A                             2761     143.     WAVGFSID DS    X                   File system id
 00002B                             2762     144.     WAVGFSNM DS    CL8                 File system name
                                    2763     145.
 000033                00033 00028  2764     146.              ORG   AREA
 000028                             2765     147.     WASPB    DS    ((L'SPB+4+3)/4)F        SPB WORK AREA
 0000A0                             2766     148.     WASPBIX  DS    8A                      SPB INDEX TABLE
 0000C0                             2767     149.     WASPBIT  DS    A                       SPB INDEX TABLE POINTER
 0000C4                             2768     150.     WASPBCU  DS    H                       CURRENT ACTIVE
 0000C6                             2769     151.     WASPBMX  DS    H                       INDEX TABLE SIZE
                                    2770     152.
 0000C8                000C8 000C8  2771     153.              ORG   ,
                                    2772     154.     WASIZE   EQU   *-WA
                                    2773     155.     *
                                    2774     156.     *
                                    2775     157.     SETON    EQU   0
                                    2776     158.     SETOFF   EQU   4
                                    2777     159.     SETPATH  EQU   0
                                    2778     160.     SETJES   EQU   4
                                    2779     161.     SETOSF   EQU   8
                                    2780     162.     SETNET   EQU   12
1VSSV     (VSSV07) (09:49) (22MAR04) ORVYL'S INTERNAL SET, SHOW AND DUMP COMMANDS                                           Page   28
0D-Loc  Object Code    Addr1 Addr2  Stmt Lv Lineno    Source Statement           (Hibal 5, Asmedit 3.3)  HLASM R4.0  2004/03/22 09.49
+_____  ______ ____    _____ _____  ____ __ ______    ______ _________
0000015                00000 01BB8  2783     165.     VSSV     CSECT
                                    2785     166.     *
                                    2786     167.     *
 USING  CLW,R10                     2787     168.              USING CLW,CLWR                ##
 USING  WA,R8                       2796     169.              USING WA,WAR                  ##
                                    2805     170.     *  SYSTEM COMMANDS
                                    2806     171.     *
 000015 00/9029 D000         00000  2807     172.     CLPSYSTM VENTER SR,RAR,WASIZE
 00001A 188D/41D0 D0C8       000C8  2811             +
 000020 0D70                        2815             +
 USING  *,R7
                                    2827     173.     BASE2    EQU   *+4094
 000022 4160 7FFE            01020  2828     174.              LA    BRR,BASE2
 USING  BASE2,R6                    2829     175.              USING BASE2,BRR               ##
 000026                             2838     176.              CLEAR (WAFL,4)
 000026 D703 8020 8020 00020 00020  2844             +
 00002C 183F                        2845     177.              LR    TR,R15                  SAVE ENTRY CODE
 00002E 4100 0028/0AED       00028  2846     178.              CLPSERV PRIVTST               UPDATE PRIVS
 000034 5820 A000            00000  2855     179.              L     SR,CLWSCP               SCP POINTER
 USING  SCP,R2                      2856     180.              USING SCP,SR
 000038 9120 21B7      001B7        2865     181.              IF    ('TM  SCPPRIV,KWRIFSPR',O),'SET  WAFLSYS'
 00003C 47E0 7022            00044  2873             +
 000040 9680 8020      00020        2884             +
 DROP   SCP,R2                      2889     182.              DROP  SCP
 000044 4100 003C/0AED       0003C  2897     183.              CLPSERV LOCCT                 SENSE CT ADDRESS
 00004A 18C1                        2906     184.              LR    CTR,R1
 00004C 4D70 7258            0027A  2907     185.              BAS   BR,CMDTABLE
 DROP   *,R7                        2908     186.              USING BASE,BR                 ## BASE IS EXIT
 USING  BASE,R7
                                    2920     187.     BASE     EQU   *
                                    2921     188.     *  EXIT
 000050 4700 0000            00000  2922     189.              BC    0,0                     NOP for FSCALL erorr rets
 000054 4700 0000            00000  2923     190.              BC    0,0                     NOP for FSCALL erorr rets
 000058 1BFF                        2924     191.              SR    R15,R15                 SET OK RETURN
                                    2925     192.
 00005A 182F                        2926     193.     SHRET    LR    SR,R15
 00005C 4D90 7222            00272  2927     194.              LCALL AMODE24             Force return to 24 bit mode
 000060 18F2                        2929     195.              LR    R15,SR
                                    2930     196.
 000062 94F7 A208      00208        2931     197.              CLEAR CLWFOSC
 000066 18D8/9829 D000       00000  2938     198.              VEXIT SR,RAR,LTR
 00006C 12FF/07F9                   2942             +
                                    2944     199.
 000070 1000                        2945     200.     SCRET    LPR   R0,R0
 000072 4780 709E            000EE  2946     201.              BZ    MISSING
 000076 4590 70DA            0012A  2947     202.     ILLSTR   SEG   (1),(0)
 00007A 4110 0000            00000  2962     203.              SEG   ': Invalid string'
 00007E 4590 620E            0122E  2964             +
 000082 47F0 70BE            0010E  2965     204.              B     ERROR
                                    2966     205.
 000086 4110 0011            00011  2967     206.     REQABORT SEG   'Request aborted'
 00008A 4590 620E            0122E  2969             +
 00008E 47F0 70BE            0010E  2970     207.              B     ERROR
                                    2971     208.
 000092 9104 A209/07E9 00209        2972     209.     PRVPTEST IF    ~CLWPFPRV,RAR            PRIVATE PROGRAM?
 000098 4110 0021            00021  2991     210.              SEG   'Private program loaded, command blocked'
1VSSV     (VSSV07) (09:49) (22MAR04) ORVYL'S INTERNAL SET, SHOW AND DUMP COMMANDS                                           Page   29
0Current Usings:  (BASE2,R6) (BASE,R7) (WA,R8) (CLW,R10)
0D-Loc  Object Code    Addr1 Addr2  Stmt Lv Lineno    Source Statement           (Hibal 5, Asmedit 3.3)  HLASM R4.0  2004/03/22 09.49
+_____  ______ ____    _____ _____  ____ __ ______    ______ _________
000009C 4590 620E            0122E  2993             +
 0000A0 47F0 70BE            0010E  2994     211.              B     ERROR
                                    2995     212.
 0000A4 9180 8020/0719 00020        2996     213.     SYSTEST  IF    WAFLSYS,RAR
 0000AA                             3015     214.     PRIVCMD  LABEL ,
 0000AA 4120 A2CF            002CF  3017     215.              LA    SR,CLWKWKW+7            LAST BYTE OF KEYWORD
 0000AE 4130 0008            00008  3018     216.              LA    TR,L'CLWKWKW            LENGTH OF KEYWORD
 0000B2                             3019     217.     PRIVLOOK LABEL ,
 0000B2 9540 2000      00000        3021     218.              CLI   @SR,C' '                STILL BLANK
 0000B6 4770 7070            000C0  3022     219.              BNE   PRIVGOT                 NOPE -- REPORT INVALID
 0000BA 0620                        3023     220.              DECR  SR                      BACK OFF ADDRESS
 0000BC 4630 7062            000B2  3025     221.              BCT   TR,PRIVLOOK             KEEP LOOKING FOR LAST CHAR
 0000C0                             3026     222.     PRIVGOT  LABEL ,
 0000C0 4110 A2C8            002C8  3028     223.              LA    R1,CLWKWKW              ADDRESS OF KEYWORD
 0000C4 1803                        3029     224.              LR    R0,TR                   ACTUAL LENGTH
 0000C6 47F0 70AA            000FA  3030     225.              B     UNREC                   TELL THE BAD NEWS
0                                   3032     227.
 0000CA 4110 0049            00049  3033     228.     ILLVAL   SEG   'Invalid value'
 0000CE 4590 620E            0122E  3035             +
 0000D2 47F0 70BE            0010E  3036     229.              B     ERROR
                                    3037     230.
 0000D6 4110 0057            00057  3038     231.     ILLADDR  SEG   'Invalid address'
 0000DA 4590 620E            0122E  3040             +
 0000DE 47F0 70BE            0010E  3041     232.              B     ERROR
                                    3042     233.
 0000E2 4110 0067            00067  3043     234.     ILLINE   SEG   'Invalid line'
 0000E6 4590 620E            0122E  3045             +
 0000EA 47F0 70BE            0010E  3046     235.              B     ERROR
                                    3047     236.
 0000EE 4110 0074            00074  3048     237.     MISSING  SEG   'Missing operand'
 0000F2 4590 620E            0122E  3050             +
 0000F6 47F0 70BE            0010E  3051     238.              B     ERROR
                                    3052     239.     *
                                    3053     240.     *  UNRECOGNIZED NAME
                                    3054     241.     *
 0000FA                             3055     242.     UNREC    LABEL ,
 0000FA 4590 70DA            0012A  3057     243.              SEG   (1),(0)
 0000FE 4110 0084            00084  3071     244.              SEG   ': Invalid'
 000102 4590 620E            0122E  3073             +
 000106 47F0 70BE            0010E  3074     245.              B     ERROR
 00010A 4590 70DA            0012A  3075     246.     ERRORMSG SEG   (1),(0)                 SEG MESSAGE
 00010E                             3090     247.     ERROR    LABEL ,                       BE GRAMATICAL
 00010E 5890 6280/0D99       012A0  3092     248.              VCALL TYPEIT
 000114 07F7                        3096     249.              BR    BR                      EXIT
                                    3097     250.
 000116                             3098     251.     WYLMIL   LABEL ,
 000116 41F0 0004            00004  3100     252.              LA    R15,4                   SEND CODE
 00011A 47F0 700A            0005A  3101     253.              B     SHRET                   SEND 'SHOW' ON TO MILTEN
                                    3102     254.
 00011E 4590 70DA            0012A  3103     255.     MSGEXIT  SEG   (1),(0)
 000122 5890 6284/0D99       012A4  3118     256.     WRITEXIT VWRITE
 000128 07F7                        3123     257.              BR    BR
                                    3124     258.
1VSSV     (VSSV07) (09:49) (22MAR04) ORVYL'S INTERNAL SET, SHOW AND DUMP COMMANDS                                           Page   30
0Current Usings:  (BASE2,R6) (BASE,R7) (WA,R8) (CLW,R10)
0D-Loc  Object Code    Addr1 Addr2  Stmt Lv Lineno    Source Statement           (Hibal 5, Asmedit 3.3)  HLASM R4.0  2004/03/22 09.49
+_____  ______ ____    _____ _____  ____ __ ______    ______ _________
000012A 5090 D000            00000  3125     259.     SEG      VPUSH RAR,,*
 00012E 41D0 D004            00004  3127             +
 000132 5890 6288/0D99       012A8  3128     260.              VSEG  (1),(0)
 000138 4BD0 6330            01350  3145     261.              VPOP  RAR,,*
 00013C 5890 D000            00000  3147             +
 000140 07F9                        3148     262.              BR    RAR
                                    3149     263.
                                    3150     264.
                                    3151     265.       PRCT -- Local routine to do percentage.
                                    3152     266.         On entry:  Seg's R0/R1 as a percentage.
                                    3153     267.

0000142 9089 D000/188D       00000  3154     268.     PRCT     VSAVE WAR,RAR,*
 000148 41D0 D008            00008  3157             +
 00014C 1BEE/1BFF                   3158     269.              CLEAR R14,R15
 000150 1211/4780 710E       0015E  3164     270.              IF    (R1,NZ),BEGIN
 000156 18F0                        3178  1  271.                LR    R15,R0
 000158 5CE0 628C            012AC  3179  1  272.                M     R14,=A(1000)
 00015C 1DE1                        3180  1  273.                DR    R14,R1
 00015E                             3181     274.              END
 00015E 4100 0001            00001  3185     275.              BTR   CLWTEMP,(0,1),(R15)  Percentage -- nnn.n
 000162 4110 A2E8            002E8  3203             +
 000166 58E0 6290/0DEE       012B0  3206             +
 00016C 4590 70DA            0012A  3208     276.              SEG   (R1),(R0)
 000170 4110 008E            0008E  3220     277.              SEG   '%'
 000174 4590 620E            0122E  3222             +
 000178 18D8/9889 D000       00000  3223     278.              VREST WAR,RAR
 00017E 07F9                        3226     279.              BR    RAR
                                    3227     280.
                                    3228     281.
                                    3229     282.       FRTOMEG -- Display number in R15 which is in 4K frames as
                                    3230     283.         megabytes.
                                    3231     284.

0000180 9089 D000/188D       00000  3232     285.     FRTOMEG  VSAVE WAR,RAR,*
 000186 41D0 D008            00008  3235             +
 00018A 88F0 0008            00008  3236     286.              SRL   R15,8               Convert frames to megabytes
 00018E 1B00/4D90 71CC       0021C  3237     287.              SEGDC 0,(R15)             Megs
 000194 4110 0090            00090  3248     288.              SEG   'M'
 000198 4590 620E            0122E  3250             +
 00019C 18D8/9889 D000       00000  3251     289.              VREST WAR,RAR
 0001A2 07F9                        3254     290.              BR    RAR
                                    3255     291.
 0001A4 9089 D000/188D       00000  3256     292.     EVAL     VSAVE WAR,RAR,*
 0001AA 41D0 D008            00008  3259             +
 0001AE 5890 6294/0D99       012B4  3260     293.              VCALL EVAL
 0001B4 18D8/9889 D000       00000  3264     294.              VREST WAR,RAR                 RETURN IS IN RAR
 0001BA 4740 70BE            0010E  3267     295.              BM    ERROR
 0001BE 07F9                        3268     296.              BR    RAR
                                    3269     297.
 0001C0 5090 D000            00000  3270     298.     MSG      VPUSH RAR,,*                  SEG, WRITE, AND RETURN
 0001C4 41D0 D004            00004  3272             +
1VSSV     (VSSV07) (09:49) (22MAR04) ORVYL'S INTERNAL SET, SHOW AND DUMP COMMANDS                                           Page   31
0Current Usings:  (BASE2,R6) (BASE,R7) (WA,R8) (CLW,R10)
0D-Loc  Object Code    Addr1 Addr2  Stmt Lv Lineno    Source Statement           (Hibal 5, Asmedit 3.3)  HLASM R4.0  2004/03/22 09.49
+_____  ______ ____    _____ _____  ____ __ ______    ______ _________
00001C8 4590 70DA            0012A  3273     299.              SEG   (1),(0)
 0001CC 47F0 7188            001D8  3287     300.              B     WRIT1
                                    3288     301.
 0001D0 5090 D000            00000  3289     302.     WRITE    VPUSH RAR,,*                  SAVE RETURN
 0001D4 41D0 D004            00004  3291             +
 0001D8 5890 6284/0D99       012A4  3292     303.     WRIT1    VWRITE ,
 0001DE 0777                        3297     304.              BNZR  BR                      ATTN OR ERROR
 0001E0 4BD0 6330            01350  3298     305.              VPOP RAR,,*
 0001E4 5890 D000            00000  3300             +
 0001E8 07F9                        3301     306.              BR    RAR                     NO ERROR
                                    3302     307.
 0001EA 5090 D000            00000  3303     308.     SGOSD    VPUSH RAR,,*
 0001EE 41D0 D004            00004  3305             +
 0001F2 5890 6298/0D99       012B8  3306     309.              MVCOS CLWTEMP(4),@R14
 0001F8 D203 A2E8 E000 002E8 00000  3311             +
 0001FE 58F0 A2E8/1B00       002E8  3312     310.              BTD   CLWTEMP+4,0,CLWTEMP
 000204 4110 A2EC            002EC  3328             +
 000208 58E0 629C/0DEE       012BC  3331             +
 00020E 4590 70DA            0012A  3333     311.              SEG   (1),(0)
 000212 4BD0 6330            01350  3347     312.              VPOP  RAR,,*
 000216 5890 D000            00000  3349             +
 00021A 07F9                        3350     313.              BR    RAR
                                    3351     314.
 00021C 909E D000            00000  3352     315.     SEGDC    VPUSH RAR,14,*
 000220 41D0 D018            00018  3354             +
 000224 4110 A2E8            002E8  3355     316.              BTD   CLWTEMP,(0),(15)
 000228 58E0 629C/0DEE       012BC  3375             +
 00022E 5890 6288/0D99       012A8  3377     317.              VSEG  (1),(0)
 000234 4BD0 6332            01352  3394     318.              VPOP  RAR,14,*
 000238 989E D000            00000  3396             +
 00023C 07F9                        3397     319.              BR    RAR
                                    3398     320.
 00023E 909E D000            00000  3399     321.     SEGHX    VPUSH RAR,14,*
 000242 41D0 D018            00018  3401             +
 000246 4110 A2E8            002E8  3402     322.              BTX   CLWTEMP,(0),(15)
 00024A 58E0 62A0/0DEE       012C0  3422             +
 000250 5890 6288/0D99       012A8  3424     323.              VSEG  (1),(0)
 000256 4BD0 6332            01352  3441     324.              VPOP  RAR,14,*
 00025A 989E D000            00000  3443             +
 00025E 07F9                        3444     325.              BR    RAR
                                    3445     326.
 000260 58F0 62A4            012C4  3446     327.     SEGSECS  L     R15,=V(SEGSECS)         TIME IN R1
 000264 07FF                        3447     328.              BR    R15                     RETURN IN RAR
                                    3448     329.
                                    3449     330.
                                    3450     331.       AMODE31 -- Routine to switch to 31-bit addressing mode.
                                    3451     332.

0000266 41F0 7220            00270  3452     333.     AMODE31  LA    R15,A31GO
 00026A 56F0 62A8            012C8  3453     334.              O     R15,=A(X'80000000')  31 bit mode wanted
 00026E 0B0F                        3454     335.              BSM   0,R15
                                    3455     336.
 000270 07F9                        3456     337.     A31GO    BR    RAR                 Return
1VSSV     (VSSV07) (09:49) (22MAR04) ORVYL'S INTERNAL SET, SHOW AND DUMP COMMANDS                                           Page   32
0Current Usings:  (BASE2,R6) (BASE,R7) (WA,R8) (CLW,R10)
0D-Loc  Object Code    Addr1 Addr2  Stmt Lv Lineno    Source Statement           (Hibal 5, Asmedit 3.3)  HLASM R4.0  2004/03/22 09.49
+_____  ______ ____    _____ _____  ____ __ ______    ______ _________
0                                   3457     338.
                                    3458     339.
                                    3459     340.       AMODE24 -- Routine to switch back to 24-bit addressing mode.
                                    3460     341.

0000272 41F0 7228            00278  3461     342.     AMODE24  LA    R15,A24GO
 000276 0B0F                        3462     343.              BSM   0,R15               Return to 24 bit mode
                                    3463     344.
 000278 07F9                        3464     345.     A24GO    BR    RAR                 Return
1VSSV     (VSSV07) (09:49) (22MAR04) ORVYL'S INTERNAL SET, SHOW AND DUMP COMMANDS                                           Page   33
0Current Usings:  (BASE2,R6) (BASE,R7) (WA,R8) (CLW,R10)
0Loc    Object Code    Addr1 Addr2  Stmt Lv Lineno    Source Statement           (Hibal 5, Asmedit 3.3)  HLASM R4.0  2004/03/22 09.49
+___    ______ ____    _____ _____  ____ __ ______    ______ _________
0                                   3466     347.
                                    3467     348.                SYSTEM COMMAND VECTOR TABLE
                                    3468     349.
 00027A                             3469     350.     CMDTABLE LABEL
 00027A 47F3 722E            0027E  3471     351.              VSSVTAB  SYTAB,TR
 00027E 47F0 76F8            00748  3473             +
 000282 47F0 755A            005AA  3474             +
 000286 47F0 7982            009D2  3475             +
 00028A 47F0 60B4            010D4  3476             +
 00028E 47F0 7DCA            00E1A  3477             +
 000292 47F0 61C0            011E0  3478             +
 000296 47F0 7DBC            00E0C  3479             +
 00029A 47F0 7DF0            00E40  3480             +
 00029E 47F0 7DE8            00E38  3481             +
 0002A2 47F0 7F50            00FA0  3482             +
 0002A6 47F0 7F24            00F74  3483             +
 0002AA 47F0 7FA8            00FF8  3484             +
 0002AE 47F0 7F7C            00FCC  3485             +
 0002B2 47F0 6030            01050  3486             +
 0002B6 47F0 6004            01024  3487             +
 0002BA 47F0 6088            010A8  3488             +
 0002BE 47F0 605C            0107C  3489             +
 0002C2 47F0 7DDA            00E2A  3490             +
 0002C6 47F0 7DE2            00E32  3491             +
 0002CA 47F0 74A2            004F2  3492             +
 0002CE 47F0 797E            009CE  3493             +
 0002D2 47F0 7A8C            00ADC  3494             +
 0002D6 47F0 7B3A            00B8A  3495             +
 0002DA 47F0 729E            002EE  3496             +
 0002DE 47F0 7B2E            00B7E  3497             +
 0002E2 47F0 7BCC            00C1C  3498             +
 0002E6 47F0 7490            004E0  3499             +
 0002EA 47F0 7CEE            00D3E  3500             +
1VSSV     (VSSV07) (09:49) (22MAR04) SHOW VUSERS Command                                                                    Page   34
0Current Usings:  (BASE2,R6) (BASE,R7) (WA,R8) (CLW,R10)
0Loc    Object Code    Addr1 Addr2  Stmt Lv Lineno    Source Statement           (Hibal 5, Asmedit 3.3)  HLASM R4.0  2004/03/22 09.49
+___    ______ ____    _____ _____  ____ __ ______    ______ _________
0                                   3502     353.
                                    3503     354.
                                    3504     355.             SHOW VUSERS
                                    3505     356.

00002EE                             3506     357.     SHVUSERS LABEL
 0002EE                             3508     358.              CLEAR WAUWA
 0002EE D734 8028 8028 00028 00028  3514             +
 0002F4 4110 73F4            00444  3515     359.              SCAN  SHVUPRT,CLWKWCB     SHOW VUSERS options
 0002F8 41F0 A2C4            002C4  3529             +
 0002FC 58E0 62AC/0DEE       012CC  3532             +
 000302 4770 7020            00070  3534     360.              BNZ   SCRET               Trouble, scram
 000306 4110 0092            00092  3535     361.              SEG   'Session Id  Account     Program     '
 00030A 4590 620E            0122E  3537             +
 00030E 4110 00B7            000B7  3538     362.              SEG   'I/O count   CPU time    Logon'
 000312 4590 620E            0122E  3540             +
 000316                             3541     363.              IF    (WAUSPO,NZ),BEGIN
 000316 D603 8058 8058 00058 00058  3551             +
 00031C 4780 72D8            00328  3552             +
 000320 4110 00D5            000D5  3557  1  364.                SEG   '  SP Origin'
 000324 4590 620E            0122E  3559  1          +
 000328                             3560     365.              END   ,
 000328 4D90 7180            001D0  3564     366.              LCALL WRITE
 00032C 1BEE                        3566     367.              CLEAR R14
 00032E                             3570     368.              LOOP  BEGIN
 00032E 41F0 002C            0002C  3576  1  369.                CLPSERV UINFO,WAUAREA,L'WAUAREA,(R14)
 000332 4110 8028            00028  3594  1          +
 000336 4100 001C/0AED       0001C  3601  1          +
 00033C 4770 73F2            00442  3603  1  370.                IF    NZ,EXIT                 DONE
 000340 9680 805C      0005C        3617  1  371.                SET   WAUFSHOW
 000344                             3623  1  372.                IF    ((WAULNO,NZ),AND,(WAULNO,NE,WAUTID)),'CLEAR WAUFSHOW'
 000344 D603 8054 8054 00054 00054  3635  1          +
 00034A 4780 730C            0035C  3636  1          +
 00034E D503 8054 8048 00054 00048  3650  1          +
 000354 4780 730C            0035C  3651  1          +
 000358 947F 805C      0005C        3663  1          +
 00035C                             3668  1  373.                IF    ((WAUSPO,NZ),AND,(WAUSPO,NE,WAUSPOD)),'CLEAR WAUFSHOW'
 00035C D603 8058 8058 00058 00058  3680  1          +
 000362 4780 7324            00374  3681  1          +
 000366 D503 8058 804C 00058 0004C  3695  1          +
 00036C 4780 7324            00374  3696  1          +
 000370 947F 805C      0005C        3708  1          +
 000374 9180 805C      0005C        3713  1  374.                IF    WAUFSHOW,BEGIN
 000378 47E0 73E8            00438  3723  1          +
                                    3728  2  375.     *  Session ID
 00037C 4110 00E1            000E1  3729  2  376.                  SEG   'Mil-'
 000380 4590 620E            0122E  3731  2          +
 000384 58F0 8048            00048  3732  2  377.                  SEGDC 6,WAUTID
 000388 4100 0006            00006  3744  2          +
 00038C 4D90 71CC            0021C  3746  2          +
 000390 4110 00E6            000E6  3747  2  378.                  SEG   '  '
 000394 4590 620E            0122E  3749  2          +
                                    3750  2  379.     *  Account
1VSSV     (VSSV07) (09:49) (22MAR04) SHOW VUSERS Command                                                                    Page   35
0Current Usings:  (BASE2,R6) (BASE,R7) (WA,R8) (CLW,R10)
0Loc    Object Code    Addr1 Addr2  Stmt Lv Lineno    Source Statement           (Hibal 5, Asmedit 3.3)  HLASM R4.0  2004/03/22 09.49
+___    ______ ____    _____ _____  ____ __ ______    ______ _________
0000398 4110 803B            0003B  3751  2  380.                  SEG   WAUID+3,2               GROUP
 00039C 4100 0002            00002  3767  2          +
 0003A0 4590 70DA            0012A  3768  2          +
 0003A4 4110 00E9            000E9  3769  2  381.                  SEG   '.'
 0003A8 4590 620E            0122E  3771  2          +
 0003AC 4110 8038            00038  3772  2  382.                  SEG   WAUID,3                 USER
 0003B0 4100 0003            00003  3788  2          +
 0003B4 4590 70DA            0012A  3789  2          +
 0003B8 4110 00EB            000EB  3790  2  383.                  SEG   '      '
 0003BC 4590 620E            0122E  3792  2          +
                                    3793  2  384.     *  Program
 0003C0 4110 8040            00040  3794  2  385.                  SEG   WAUPGNM,8
 0003C4 4100 0008            00008  3810  2          +
 0003C8 4590 70DA            0012A  3811  2          +
 0003CC 4110 00F2            000F2  3812  2  386.                  SEG   '    '
 0003D0 4590 620E            0122E  3814  2          +
                                    3815  2  387.     *  I/O Count
 0003D4 58F0 802C            0002C  3816  2  388.                  SEGDC 9,WAUIOS
 0003D8 4100 0009            00009  3828  2          +
 0003DC 4D90 71CC            0021C  3830  2          +
 0003E0 4110 00E6            000E6  3831  2  389.                  SEG   '  '
 0003E4 4590 620E            0122E  3833  2          +
                                    3834  2  390.     *  CPU time
 0003E8 98EF 8030            00030  3835  2  391.                  LM    R14,R15,WAUCPU          CPU TIME
 0003EC 5DE0 62B0            012D0  3836  2  392.                  D     R14,=A(10000*4096)       TO CENTI-SECONDS
 0003F0 4100 0902            00902  3837  2  393.                  BTR   CLWTEMP,(9,2),(15)
 0003F4 4110 A2E8            002E8  3856  2          +
 0003F8 58E0 6290/0DEE       012B0  3859  2          +
 0003FE 4590 70DA            0012A  3861  2  394.                  SEG   (1),(0)
 000402 4110 00E6            000E6  3875  2  395.                  SEG   '  '
 000406 4590 620E            0122E  3877  2          +
 00040A 58F0 8050            00050  3878  2  396.                  SEGDC 7,WAULTIM
 00040E 4100 0007            00007  3890  2          +
 000412 4D90 71CC            0021C  3892  2          +
 000416 4110 00F7            000F7  3893  2  397.                  SEG   '   '
 00041A 4590 620E            0122E  3895  2          +
                                    3896  2  398.     *  Minutes logged on
 00041E                             3897  2  399.                  IF    (WAUSPO,NZ),BEGIN
 00041E D603 8058 8058 00058 00058  3907  2          +
 000424 4780 73E4            00434  3908  2          +
 000428 58F0 804C            0004C  3913  3  400.                    SEGHX 8,L:WAUSPOD
 00042C 4100 0008            00008  3925  3          +
 000430 4D90 71EE            0023E  3927  3          +
 000434                             3928  2  401.                  END   ,
 000434 4D90 7180            001D0  3932  2  402.                  LCALL WRITE
 000438                             3934  1  403.                END   ,                       OF Show this one
 000438 58E0 8028            00028  3938  1  404.                L     R14,WAUNEXT
 00043C 12EE/4770 72DE       0032E  3939     405.              UNTIL (R14,Z),END             DO ALL
 000442 07F7                        3961     406.     SHVUSX   BR    BR                      DONE
 000444                             3962     407.     SHVUPRT  SCKW  SPO,SHVUSPB,(A,P)
 000444 8A000462E2D7D6              3963             +
 00044B 0800049E6F                  3964     408.              SCKW  ?,SHVUHELP,A
 000450 4000045A40                  3966     409.              SCKW  ,SHVULNO,I
 000455 FF0000FA                    3968     410.              SCKW  ,UNREC
1VSSV     (VSSV07) (09:49) (22MAR04) SHOW VUSERS Command                                                                    Page   36
0Current Usings:  (BASE2,R6) (BASE,R7) (WA,R8) (CLW,R10)
0Loc    Object Code    Addr1 Addr2  Stmt Lv Lineno    Source Statement           (Hibal 5, Asmedit 3.3)  HLASM R4.0  2004/03/22 09.49
+___    ______ ____    _____ _____  ____ __ ______    ______ _________
000045A                             3970     411.     SHVULNO  LABEL ,
 00045A D203 8054 A2C4 00054 002C4  3972     412.              MVC   WAULNO,CLWKWVAL
 000460 07FE                        3973     413.              SCRTN (15)
 000462                             3980     414.     SHVUSPB  LABEL ,
 000462 90EF D000            00000  3982     415.              VPUSH R14,R15,*
 000466 41D0 D008            00008  3984             +
 00046A 1820                        3985     416.              LR    R2,R0               Save
 00046C 1831                        3986     417.              LR    R3,R1               Save
 00046E 58E0 62B4/0DEE       012D4  3987     418.              XCALL XTB
 000474 4780 743C            0048C  3991     419.              IF    NZ,BEGIN
 000478 1813/1802                   4002  1  420.                SEG   (R3),(R2)
 00047C 4590 70DA            0012A  4015  1          +
 000480 4110 62B8            012D8  4016  1  421.                SETMSG ': invalid hex string'
 000484 4100 0014            00014  4019  1          +
 000488 47F0 70CE            0011E  4020  1  422.                B     MSGEXIT
 00048C                             4021     423.              END   ,
 00048C 50F0 8058            00058  4025     424.              ST    R15,WAUSPO
 000490 947F 8058      00058        4026     425.              NI    WAUSPO,255-X'80'    Take out address mode if necessary
 000494 4BD0 6334            01354  4027     426.              VPOP  R14,R15,*
 000498 98EF D000            00000  4029             +
 00049C 07FE                        4030     427.              SCRTN (15)
                                    4037     428.
 00049E                             4038     429.     SHVUHELP LABEL ,
 00049E 4D90 7180            001D0  4040     430.              LCALL WRITE
 0004A2 4110 00FB            000FB  4042     431.              SEG   'SHOW VUSERS <parameters> '
 0004A6 4590 620E            0122E  4044             +
 0004AA 4D90 7180            001D0  4045     432.              LCALL WRITE
 0004AE 4110 0115            00115  4047     433.              SEG   ' where parameters can one of the following:'
 0004B2 4590 620E            0122E  4049             +
 0004B6 4D90 7180            001D0  4050     434.              LCALL WRITE
 0004BA 4110 0141            00141  4052     435.              SEG   'o nnnn      - nnnn is the line number of the user'
 0004BE 4590 620E            0122E  4054             +
 0004C2 4D90 7180            001D0  4055     436.              LCALL WRITE
 0004C6 4110 0173            00173  4057     437.              SEG   'o SPO xxxx  - Users of shared program with origin '
 0004CA 4590 620E            0122E  4059             +
 0004CE 4110 01A6            001A6  4060     438.              SEG   'of xxxxxxxx (in hex)'
 0004D2 4590 620E            0122E  4062             +
 0004D6 4D90 7180            001D0  4063     439.              LCALL WRITE
 0004DA 4D90 7180            001D0  4065     440.              LCALL WRITE
 0004DE 07F7                        4067     441.              BR    BR               Done
1VSSV     (VSSV07) (09:49) (22MAR04) SHOW VVERSION Command                                                                  Page   37
0Current Usings:  (BASE2,R6) (BASE,R7) (WA,R8) (CLW,R10)
0Loc    Object Code    Addr1 Addr2  Stmt Lv Lineno    Source Statement           (Hibal 5, Asmedit 3.3)  HLASM R4.0  2004/03/22 09.49
+___    ______ ____    _____ _____  ____ __ ______    ______ _________
0                                   4069     443.
                                    4070     444.
                                    4071     445.             SHOW VVERSION -- Display Orvyl version information.
                                    4072     446.                   Text is zapped into "VERSION" CSECT.
                                    4073     447.

00004E0 5810 62CC            012EC  4074     448.     SHVVERSI SEG   L:=A(VERSION),L'VERSTEXT  Display version info
 0004E4 4100 00EB            000EB  4088             +
 0004E8 4590 70DA            0012A  4089             +
 0004EC 4D90 7180            001D0  4090     449.              LCALL WRITE
                                    4092     450.
 0004F0 07F7                        4093     451.              BR    BR
1VSSV     (VSSV07) (09:49) (22MAR04) SHOW/SET VVOLUME Command                                                               Page   38
0Current Usings:  (BASE2,R6) (BASE,R7) (WA,R8) (CLW,R10)
0Loc    Object Code    Addr1 Addr2  Stmt Lv Lineno    Source Statement           (Hibal 5, Asmedit 3.3)  HLASM R4.0  2004/03/22 09.49
+___    ______ ____    _____ _____  ____ __ ______    ______ _________
0                                   4095     453.
                                    4096     454.
                                    4097     455.             SHOW VVOLUME
                                    4098     456.
                                    4099     457.                Displays statistics for file system volumes.
                                    4100     458.

00004F2                             4101     459.     SHVVOLUM BEGIN ,
 AUSING (FSB,WAVVFSB)               4106  1  460.                WITH  (FSB,WAVVFSB)
 AUSING (FILEDSD,WAVVDSD)           4113  1  461.                WITH  (FILEDSD,WAVVDSD)
 0004F2                             4120  1  462.                CLEAR WAVVWRK
 0004F2 D783 8028 8028 00028 00028  4126  1          +
 0004F8 1B11/41F0 A2C4       002C4  4127  1  463.                SCAN  ,CLWKWCB
 0004FE 58E0 62AC/0DEE       012CC  4141  1          +
 000504 47D0 7020            00070  4143  1  464.                BNP   SCRET               Trouble, scram
 000508 956F 1000      00000        4144  1  465.                IF    (@R1,EQ,'?'),SHOVVOLH
 00050C 4780 7840            00890  4157  1          +
 000510 4D50 77B2            00802  4163  1  466.                BAS   RR,VVOLFSN          Edit file system name
 000514 5820 8044            0000C  4164  1  467.                L     SR,FSBFRDB
 000518 4110 01BB            001BB  4165  1  468.                SEG   'DSD      Dataset name                           '
 00051C 4590 620E            0122E  4167  1          +
 000520 4110 01EC            001EC  4168  1  469.                SEG   '         Start  Count      I/Os'
 000524 4590 620E            0122E  4170  1          +
 000528 4D90 7180            001D0  4171  1  470.                LCALL WRITE
 00052C                             4173  1  471.                LOOP  BEGIN
 00052C 1222/4780 7558       005A8  4179  2  472.                  IF    (SR,Z),EXIT
 000532 4100 0099            00099  4196  2  473.                  SENSE 153,FILEDSD,L'FILEDSD,(SR) Get DSD
 000536 4110 8058            00000  4210  2          +
 00053A 41F0 004C/18E2       0004C  4217  2          +
 000540 0AFA                        4224  2          +
 000542 18F2/4100 0008       00008  4225  2  474.                  SEGHX 8,(SR)
 000548 4D90 71EE            0023E  4239  2          +
 00054C 4110 020C            0020C  4240  2  475.                  SEG   ' '
 000550 4590 620E            0122E  4242  2          +
 000554 4110 8078            00020  4243  2  476.                  SEG   DSDDSN,L'DSDDSN
 000558 4100 002C            0002C  4259  2          +
 00055C 4590 70DA            0012A  4260  2          +
 000560 4110 020C            0020C  4261  2  477.                  SEG   ' '
 000564 4590 620E            0122E  4263  2          +
 000568 58F0 8060            00008  4264  2  478.                  SEGDC 8,DSDSTART
 00056C 4100 0008            00008  4276  2          +
 000570 4D90 71CC            0021C  4278  2          +
 000574 4110 020C            0020C  4279  2  479.                  SEG   ' '
 000578 4590 620E            0122E  4281  2          +
 00057C 58F0 8064            0000C  4282  2  480.                  SEGDC 6,DSDCNT
 000580 4100 0006            00006  4294  2          +
 000584 4D90 71CC            0021C  4296  2          +
 000588 4110 020C            0020C  4297  2  481.                  SEG   ' '
 00058C 4590 620E            0122E  4299  2          +
 000590 58F0 8070            00018  4300  2  482.                  SEGDC 9,DSDICNT
 000594 4100 0009            00009  4312  2          +
 000598 4D90 71CC            0021C  4314  2          +
 00059C 4D90 7180            001D0  4315  2  483.                  LCALL WRITE
1VSSV     (VSSV07) (09:49) (22MAR04) SHOW/SET VVOLUME Command                                                               Page   39
0Current Usings:  (BASE2,R6) (BASE,R7) (WA,R8) (CLW,R10)
0Loc    Object Code    Addr1 Addr2  Stmt Lv Lineno    Source Statement           (Hibal 5, Asmedit 3.3)  HLASM R4.0  2004/03/22 09.49
+___    ______ ____    _____ _____  ____ __ ______    ______ _________
00005A0 5820 8058            00000  4317  2  484.                  L     SR,DSDNXT           Next in list
 0005A4 47F0 74DC            0052C  4318  1  485.                END   ,
 0005A8 07F7                        4323  1  486.                BR    BR                  Done
 0005AA                             4324     487.              END   ,
                                    4328     488.
                                    4329     489.
                                    4330     490.             SET VADDVOL
                                    4331     491.
                                    4332     492.                Adds an additional volume to the file system.
                                    4333     493.

00005AA                             4334     494.     SETVADDV BEGIN ,
 AUSING (FSB,WAVVFSB)               4339  1  495.                WITH  (FSB,WAVVFSB)
 AUSING (FILEDSD,WAVVDSD)           4346  1  496.                WITH  (FILEDSD,WAVVDSD)
 0005AA                             4353  1  497.                IF    (CLWACCT,NE,'GG.ORV'),VVOLER91
 0005AA D505 6336 A3B0 01356 003B0  4364  1          +
 0005B0 4770 7948            00998  4367  1          +
 0005B4                             4373  1  498.                CLEAR WAVVWRK
 0005B4 D783 8028 8028 00028 00028  4379  1          +
 0005BA 1B11/41F0 A2C4       002C4  4380  1  499.                SCAN  ,CLWKWCB
 0005C0 58E0 62AC/0DEE       012CC  4394  1          +
 0005C6 47D0 7020            00070  4396  1  500.                BNP   SCRET               Trouble, scram
 0005CA 956F 1000      00000        4397  1  501.                IF    (@R1,EQ,'?'),SETVADDH
 0005CE 4780 7850            008A0  4410  1          +
 0005D2 4D50 77B2            00802  4416  1  502.                BAS   RR,VVOLFSN          Edit file system name
 0005D6 1B11/41F0 A2C4       002C4  4417  1  503.                SCAN  ,CLWKWCB
 0005DC 58E0 62AC/0DEE       012CC  4431  1          +
 0005E2 4770 7654            006A4  4433  1  504.                IF    Z,BEGIN             Derive DSN from last one
 0005E6 5820 8048            00010  4444  2  505.                  L     SR,FSBLRDB          Get last DSD addr
 0005EA 4100 0099            00099  4445  2  506.                  SENSE 153,FILEDSD,L'FILEDSD,(SR) Get last DSD
 0005EE 4110 8058            00000  4459  2          +
 0005F2 41F0 004C/18E2       0004C  4466  2          +
 0005F8 0AFA                        4473  2          +
 0005FA 4110 020E            0020E  4474  2  507.                  SEG   'Last '
 0005FE 4590 620E            0122E  4476  2          +
 000602 4110 8078            00020  4477  2  508.                  SEG   DSDDSN,L'DSDDSN
 000606 4100 002C            0002C  4493  2          +
 00060A 4590 70DA            0012A  4494  2          +
 00060E 4D90 7180            001D0  4495  2  509.                  LCALL WRITE
 000612 41E0 80A3            0004B  4497  2  510.                  LA    R14,DSDDSN+L'DSDDSN-1 Point to last char
 000616 41F0 002C            0002C  4498  2  511.                  LA    R15,L'DSDDSN
 00061A                             4499  2  512.                  LOOP  BEGIN
 00061A 9540 E000      00000        4505  3  513.                    IF    ('CLI @R14,C" "',NE),EXIT
 00061E 4770 75D8            00628  4515  3          +
 000622 06E0                        4521  3  514.                    DECR  R14
 000624 46F0 75CA            0061A  4523  2  515.                  UNTIL (BCT,R15),END
 000628 59F0 62D0            012F0  4533  2  516.                  IF    (R15,LT,2),VVOLER93
 00062C 4740 796C            009BC  4547  2          +
 000630 185F                        4553  2  517.                  LR    RR,R15              Save length of DSN
 000632                             4554  2  518.                  LOOP  BEGIN
 000632 95F0 E000      00000        4560  3  519.                    IF    ('CLI @R14,C"0"',LT),EXIT
 000636 4740 75F0            00640  4570  3          +
 00063A 06E0                        4576  3  520.                    DECR  R14
1VSSV     (VSSV07) (09:49) (22MAR04) SHOW/SET VVOLUME Command                                                               Page   40
0Current Usings:  (BASE2,R6) (BASE,R7) (WA,R8) (CLW,R10)
0Loc    Object Code    Addr1 Addr2  Stmt Lv Lineno    Source Statement           (Hibal 5, Asmedit 3.3)  HLASM R4.0  2004/03/22 09.49
+___    ______ ____    _____ _____  ____ __ ______    ______ _________
000063C 46F0 75E2            00632  4578  2  521.                  UNTIL (BCT,R15),END
 000640 1825                        4588  2  522.                  LR    SR,RR               Get length of DSN
 000642 1B2F/4780 796C       009BC  4589  2  523.                  IF    ('SR SR,R15',Z),VVOLER93
 000648 4130 E001            00001  4605  2  524.                  LA    TR,@R14+1           Point to first digit
 00064C 18F2                        4606  2  525.                  LR    R15,SR              Get length of number
 00064E 06F0/44F0 635A       0137A  4607  2  526.                  DEX   R15,'PACK WAVVPTR,@TR(1)'
 00137A F230 8028 3000 00028 00000  4618  2          +
 000654 FA30 8028 6348 00028 01368  4626  2  527.                  AP    WAVVPTR,=PL1'1'     Calc next dataset
 00065A F373 80A4 8028 000A4 00028  4627  2  528.                  UNPK  WAVVUNPK,WAVVPTR    Get the new number
 000660 96F0 80AB      000AB        4628  2  529.                  OI    WAVVUNPK+L'WAVVUNPK-1,C'0' Make display
 000664 41E0 80A4            000A4  4629  2  530.                  LA    R14,WAVVUNPK
 000668 41F0 0008            00008  4630  2  531.                  LA    R15,L'WAVVUNPK
 00066C                             4631  2  532.                  LOOP  BEGIN
 00066C 95F0 E000      00000        4637  3  533.                    IF    ('CLI @R14,C"0"',NE),EXIT
 000670 4770 762C            0067C  4647  3          +
 000674 5EE0 62D4            012F4  4653  3  534.                    INCR  R14
 000678 46F0 761C            0066C  4656  2  535.                  UNTIL (BCT,R15),END
 00067C 19F2/47D0 7640       00690  4666  2  536.                  IF    (R15,GT,SR),BEGIN
 000682 5950 62D8            012F8  4681  3  537.                    IF    (RR,EQ,L'DSDDSN),BEGIN
 000686 4770 7640            00690  4693  3          +
 00068A 5EE0 62D4            012F4  4698  4  538.                      INCR  R14                 Truncate
 00068E 06F0                        4701  4  539.                      DECR  R15                 Truncate
 000690                             4703  3  540.                    END   ,
 000690                             4707  2  541.                  END   ,
 000690 7644           00690 00680  4711  2  542.                  ELSEIF (R15,LT,SR),BEGIN
 000690 47F0 764E/19F2       0069E  4717  2          +
 000696 47B0 764E            0069E  4730  2          +
 00069A 1B2F                        4735  3  543.                    SR    SR,R15              Calc difference
 00069C 1A32                        4736  3  544.                    AR    TR,SR               Increment pointer
 00069E                             4737  2  545.                  END   ,
 00069E 06F0/44F0 6360       01380  4741  2  546.                  DEX   R15,'MVC @TR(1),@R14' Set new name
 001380 D200 3000 E000 00000 00000  4752  2          +
 0006A4                             4760  1  547.                END   ,
 0006A4 7658           006A4 005E4  4764  1  548.                ELSE  BEGIN
 0006A4 47F0 7672            006C2  4769  1          +
 0006A8 5900 62D8            012F8  4775  2  549.                  IF    (R0,GT,L'DSDDSN),VVOLER93
 0006AC 4720 796C            009BC  4789  2          +
 0006B0 9240 8078      00020        4795  2  550.                  MVI   DSDDSN,C' '
 0006B4 D22A 8079 8078 00021 00020  4796  2  551.                  MVC   DSDDSN+1(L'DSDDSN-1),DSDDSN
 0006BA 18F0                        4797  2  552.                  LR    R15,R0
 0006BC 06F0/44F0 6366       01386  4798  2  553.                  DEX   R15,'MVC DSDDSN(1),@R1' Get DSN specified
 001386 D200 8078 1000 00020 00000  4809  2          +
 0006C2                             4817  1  554.                END   ,
 0006C2 4110 0214            00214  4821  1  555.                SEG   'Add  '
 0006C6 4590 620E            0122E  4823  1          +
 0006CA 41E0 8078            00020  4824  1  556.                LA    R14,DSDDSN
 0006CE 41F0 002C            0002C  4825  1  557.                LA    R15,L'DSDDSN
 0006D2                             4826  1  558.                LOOP  BEGIN
 0006D2 9540 E000      00000        4832  2  559.                  IF    ('CLI @R14,C" "',EQ),EXIT
 0006D6 4780 7692            006E2  4842  2          +
 0006DA 5EE0 62D4            012F4  4848  2  560.                  INCR  R14
 0006DE 46F0 7682            006D2  4851  1  561.                UNTIL (BCT,R15),END
 0006E2 41F0 8078            00020  4861  1  562.                LA    R15,DSDDSN
 0006E6 1BEF                        4862  1  563.                SR    R14,R15
1VSSV     (VSSV07) (09:49) (22MAR04) SHOW/SET VVOLUME Command                                                               Page   41
0Current Usings:  (BASE2,R6) (BASE,R7) (WA,R8) (CLW,R10)
0Loc    Object Code    Addr1 Addr2  Stmt Lv Lineno    Source Statement           (Hibal 5, Asmedit 3.3)  HLASM R4.0  2004/03/22 09.49
+___    ______ ____    _____ _____  ____ __ ______    ______ _________
00006E8 4110 8078/180E       00020  4863  1  564.                SEG   DSDDSN,(R14)
 0006EE 4590 70DA            0012A  4878  1          +
 0006F2 4110 021A            0021A  4879  1  565.                SEG   '  to '
 0006F6 4590 620E            0122E  4881  1          +
 0006FA 4110 802C            0002C  4882  1  566.                SEG   WAVVFSN,L'WAVVFSN
 0006FE 4100 0008            00008  4898  1          +
 000702 4590 70DA            0012A  4899  1          +
 000706 4110 0220            00220  4900  1  567.                SEG   '???'
 00070A 4590 620E            0122E  4902  1          +
 00070E 4D90 6162            01182  4903  1  568.                LCALL CHKOK
 000712 4770 7036            00086  4905  1  569.                BNZ   REQABORT
 000716 41F0 8078            00020  4906  1  570.                CLPSERV ADDVOL,WAVVFSN,DSDDSN Add the volume
 00071A 4110 802C            0002C  4920  1          +
 00071E 4100 0084/0AED       00084  4927  1          +
 000724 47FF 76D8            00728  4929  1  571.                B     *+4(15)
 000728 47F0 78C0            00910  4930  1  572.                B     VADDER00            Volume added
 00072C 47F0 78D8            00928  4931  1  573.                B     VADDER04            Invalid file system name
 000730 47F0 78DC            0092C  4932  1  574.                B     VADDER08            Allocation error
 000734 47F0 78F4            00944  4933  1  575.                B     VADDER12            Open error
 000738 47F0 7900            00950  4934  1  576.                B     VADDER16            Block length error
 00073C 47F0 790C            0095C  4935  1  577.                B     VADDER20            Header length error
 000740 47F0 7918            00968  4936  1  578.                B     VADDER24            Insufficient bitmap blocks
 000744 47F0 7924            00974  4937  1  579.                B     VADDER28            Volume already referenced
 000748                             4938     580.              END   ,
0                                   4943     582.
                                    4944     583.
                                    4945     584.             SET VREMVOL
                                    4946     585.
                                    4947     586.                Removes last volume from the file system.
                                    4948     587.

0000748                             4949     588.     SETVREMV BEGIN ,
 AUSING (FSB,WAVVFSB)               4954  1  589.                WITH  (FSB,WAVVFSB)
 AUSING (FILEDSD,WAVVDSD)           4961  1  590.                WITH  (FILEDSD,WAVVDSD)
 000748                             4968  1  591.                IF    (CLWACCT,NE,'GG.ORV'),VVOLER91
 000748 D505 6336 A3B0 01356 003B0  4979  1          +
 00074E 4770 7948            00998  4982  1          +
 000752                             4988  1  592.                CLEAR WAVVWRK
 000752 D783 8028 8028 00028 00028  4994  1          +
 000758 1B11/41F0 A2C4       002C4  4995  1  593.                SCAN  ,CLWKWCB
 00075E 58E0 62AC/0DEE       012CC  5009  1          +
 000764 47D0 7020            00070  5011  1  594.                BNP   SCRET               Trouble, scram
 000768 956F 1000      00000        5012  1  595.                IF    (@R1,EQ,'?'),SETVREMH
 00076C 4780 78A0            008F0  5025  1          +
 000770 4D50 77B2            00802  5031  1  596.                BAS   RR,VVOLFSN          Edit file system name
 000774                             5032  1  597.                IF    (FSBFRDB,EQ,FSBLRDB),VVOLER92
 000774 D503 8044 8048 0000C 00010  5044  1          +
 00077A 4780 7954            009A4  5047  1          +
 00077E 5820 8048            00010  5053  1  598.                L     SR,FSBLRDB          Get last DSD addr
 000782 4100 0099            00099  5054  1  599.                SENSE 153,FILEDSD,L'FILEDSD,(SR) Get last DSD
 000786 4110 8058            00000  5068  1          +
 00078A 41F0 004C/18E2       0004C  5075  1          +
1VSSV     (VSSV07) (09:49) (22MAR04) SHOW/SET VVOLUME Command                                                               Page   42
0Current Usings:  (BASE2,R6) (BASE,R7) (WA,R8) (CLW,R10)
0Loc    Object Code    Addr1 Addr2  Stmt Lv Lineno    Source Statement           (Hibal 5, Asmedit 3.3)  HLASM R4.0  2004/03/22 09.49
+___    ______ ____    _____ _____  ____ __ ______    ______ _________
0000790 0AFA                        5082  1          +
 000792 4110 0224            00224  5083  1  600.                SEG   'Remove  '
 000796 4590 620E            0122E  5085  1          +
 00079A 41E0 8078            00020  5086  1  601.                LA    R14,DSDDSN
 00079E 41F0 002C            0002C  5087  1  602.                LA    R15,L'DSDDSN
 0007A2                             5088  1  603.                LOOP  BEGIN
 0007A2 9540 E000      00000        5094  2  604.                  IF    ('CLI @R14,C" "',EQ),EXIT
 0007A6 4780 7762            007B2  5104  2          +
 0007AA 5EE0 62D4            012F4  5110  2  605.                  INCR  R14
 0007AE 46F0 7752            007A2  5113  1  606.                UNTIL (BCT,R15),END
 0007B2 41F0 8078            00020  5123  1  607.                LA    R15,DSDDSN
 0007B6 1BEF                        5124  1  608.                SR    R14,R15
 0007B8 4110 8078/180E       00020  5125  1  609.                SEG   DSDDSN,(R14)
 0007BE 4590 70DA            0012A  5140  1          +
 0007C2 4110 022D            0022D  5141  1  610.                SEG   '  from '
 0007C6 4590 620E            0122E  5143  1          +
 0007CA 4110 802C            0002C  5144  1  611.                SEG   WAVVFSN,L'WAVVFSN
 0007CE 4100 0008            00008  5160  1          +
 0007D2 4590 70DA            0012A  5161  1          +
 0007D6 4110 0220            00220  5162  1  612.                SEG   '???'
 0007DA 4590 620E            0122E  5164  1          +
 0007DE 4D90 6162            01182  5165  1  613.                LCALL CHKOK
 0007E2 4770 7036            00086  5167  1  614.                BNZ   REQABORT
 0007E6 1BFF/4110 802C       0002C  5168  1  615.                CLPSERV ADDVOL,WAVVFSN,0  Remove the volume
 0007EC 4100 0084/0AED       00084  5186  1          +
 0007F2 47FF 77A6            007F6  5188  1  616.                B     *+4(15)
 0007F6 47F0 78CC            0091C  5189  1  617.                B     VREMER00            Volume removed
 0007FA 47F0 78D8            00928  5190  1  618.                B     VADDER04            Invalid file system name
 0007FE 47F0 78E8            00938  5191  1  619.                B     VREMER08            Blocks being used in volume
 000802                             5192     620.              END   ,
0000802                             5197     622.     VVOLFSN  LABEL ,
 000802 5900 62DC            012FC  5199     623.              IF    (R0,GT,L'FSBNAME),VVOLER90 Invalid file system name
 000806 4720 7930            00980  5213             +
 00080A 9240 802C      0002C        5219     624.              MVI   WAVVFSN,C' '
 00080E D206 802D 802C 0002D 0002C  5220     625.              MVC   WAVVFSN+1(L'WAVVFSN-1),WAVVFSN
 000814 18F0                        5221     626.              LR    R15,R0
 000816 06F0/44F0 636C       0138C  5222     627.              DEX   R15,'MVC WAVVFSN(1),@R1' Get file system name
 00138C D200 802C 1000 0002C 00000  5233             +
 00081C 4100 0099            00099  5241     628.              SENSE 153,WAVVPTR,L'WAVVPTR,MATPTR Get MAT pointer
 000820 4110 8028            00028  5255             +
 000824 41F0 0004            00004  5262             +
 000828 41E0 0200/0AFA       00200  5269             +
 00082E 5820 8028            00028  5272     629.              L     SR,WAVVPTR
 000832 4A20 633C            0135C  5273     630.              AH    SR,=Y(MATFILCB-MAT)
 000836 4100 0099            00099  5274     631.              SENSE 153,WAVVPTR,L'WAVVPTR,(SR)  Get FILECB pointer
 00083A 4110 8028            00028  5288             +
 00083E 41F0 0004/18E2       00004  5295             +
 000844 0AFA                        5302             +
 000846 5820 8028            00028  5303     632.              L     SR,WAVVPTR
 00084A 4A20 633E            0135E  5304     633.              AH    SR,=Y(FILEFFSB-FILECB)
 00084E 4100 0099            00099  5305     634.              SENSE 153,WAVVPTR,L'WAVVPTR,(SR)  Get first FSB pointer
 000852 4110 8028            00028  5319             +
 000856 41F0 0004/18E2       00004  5326             +
1VSSV     (VSSV07) (09:49) (22MAR04) SHOW/SET VVOLUME Command                                                               Page   43
0Current Usings:  (BASE2,R6) (BASE,R7) (WA,R8) (CLW,R10)
0Loc    Object Code    Addr1 Addr2  Stmt Lv Lineno    Source Statement           (Hibal 5, Asmedit 3.3)  HLASM R4.0  2004/03/22 09.49
+___    ______ ____    _____ _____  ____ __ ______    ______ _________
000085C 0AFA                        5333             +
 00085E 5820 8028            00028  5334     635.              L     SR,WAVVPTR
 AUSING (FSB,WAVVFSB)               5335     636.              WITH  (FSB,WAVVFSB),BEGIN
 000862                             5345  1  637.                LOOP  BEGIN
 000862 1222/4780 7930       00980  5351  2  638.                  IF    (SR,Z),VVOLER90     Invalid file system name
 000868 4100 0099            00099  5368  2  639.                  SENSE 153,WAVVFSB,L'WAVVFSB,(SR)  Get FSB
 00086C 4110 8038            00038  5382  2          +
 000870 41F0 0020/18E2       00020  5389  2          +
 000876 0AFA                        5396  2          +
 000878                             5397  2  640.                  IF    (FSBNAME,EQ,WAVVFSN),EXIT   Found
 000878 D507 8050 802C 00018 0002C  5409  2          +
 00087E 4780 783A            0088A  5412  2          +
 000882 5820 803C            00004  5418  2  641.                  L     SR,FSBCHAIN         Next FSB pointer
 000886 47F0 7812            00862  5419  1  642.                END   ,
                                    5424     643.              END   ,
 00088A 5020 8034            00034  5427     644.              ST    SR,WAVVFSBP
 00088E 07F5                        5428     645.              BR    RR                  Return to caller
0000890                             5430     647.     SHOVVOLH LABEL ,
 000890 4D90 7180            001D0  5432     648.              LCALL WRITE
 000894 4110 0235            00235  5434     649.              SEG   'SHOW VVOLUME ffffffff'
 000898 4590 620E            0122E  5436             +
 00089C 47F0 78AC            008FC  5437     650.              B     SHOVREM2
00008A0                             5439     652.     SETVADDH LABEL ,
 0008A0 4D90 7180            001D0  5441     653.              LCALL WRITE
 0008A4 4110 024B            0024B  5443     654.              SEG   'SET VADDVOL ffffffff <dddddddddd>'
 0008A8 4590 620E            0122E  5445             +
 0008AC 4D90 7180            001D0  5446     655.              LCALL WRITE
 0008B0 4110 026D            0026D  5448     656.              SEG   '  where ffffffff is the file system name '
 0008B4 4590 620E            0122E  5450             +
 0008B8 4110 0297            00297  5451     657.              SEG   'and optionally ddddddddd is the'
 0008BC 4590 620E            0122E  5453             +
 0008C0 4D90 7180            001D0  5454     658.              LCALL WRITE
 0008C4 4110 02B7            002B7  5456     659.              SEG   '  DSN of the volume being added to the file '
 0008C8 4590 620E            0122E  5458             +
 0008CC 4110 02E4            002E4  5459     660.              SEG   'system specified. If not provided,'
 0008D0 4590 620E            0122E  5461             +
 0008D4 4D90 7180            001D0  5462     661.              LCALL WRITE
 0008D8 4110 0307            00307  5464     662.              SEG   '  the next logical DSN will be derived from the '
 0008DC 4590 620E            0122E  5466             +
 0008E0 4110 0338            00338  5467     663.              SEG   'DSN of the current last volume.'
 0008E4 4590 620E            0122E  5469             +
 0008E8 4D90 7180            001D0  5470     664.              LCALL WRITE
 0008EC 47F0 7978            009C8  5472     665.              B     VVOLER99
00008F0                             5474     667.     SETVREMH LABEL ,
 0008F0 4D90 7180            001D0  5476     668.              LCALL WRITE
 0008F4 4110 0358            00358  5478     669.              SEG   'SET VREMVOL ffffffff'
 0008F8 4590 620E            0122E  5480             +
 0008FC                             5481     670.     SHOVREM2 LABEL ,
 0008FC 4D90 7180            001D0  5483     671.              LCALL WRITE
 000900 4110 036D            0036D  5485     672.              SEG   '  where ffffffff is the file system name'
 000904 4590 620E            0122E  5487             +
1VSSV     (VSSV07) (09:49) (22MAR04) SHOW/SET VVOLUME Command                                                               Page   44
0Current Usings:  (BASE2,R6) (BASE,R7) (WA,R8) (CLW,R10)
0Loc    Object Code    Addr1 Addr2  Stmt Lv Lineno    Source Statement           (Hibal 5, Asmedit 3.3)  HLASM R4.0  2004/03/22 09.49
+___    ______ ____    _____ _____  ____ __ ______    ______ _________
0000908 4D90 7180            001D0  5488     673.              LCALL WRITE
 00090C 47F0 7978            009C8  5490     674.              B     VVOLER99
0000910                             5492     676.     VADDER00 LABEL ,
 000910 4110 0396            00396  5494     677.              SEG   'Volume added'
 000914 4590 620E            0122E  5496             +
 000918 47F0 7978            009C8  5497     678.              B     VVOLER99
000091C                             5499     680.     VREMER00 LABEL ,
 00091C 4110 03A3            003A3  5501     681.              SEG   'Volume removed'
 000920 4590 620E            0122E  5503             +
 000924 47F0 7978            009C8  5504     682.              B     VVOLER99
0000928                             5506     684.     VADDER04 LABEL ,
 000928 47F0 7930            00980  5508     685.              B     VVOLER90  ????
000092C                             5510     687.     VADDER08 LABEL ,
 00092C 4110 03B2            003B2  5512     688.              SEG   'Allocation error'
 000930 4590 620E            0122E  5514             +
 000934 47F0 7978            009C8  5515     689.              B     VVOLER99
0000938                             5517     691.     VREMER08 LABEL ,
 000938 4110 03C3            003C3  5519     692.              SEG   'Blocks being used in volume'
 00093C 4590 620E            0122E  5521             +
 000940 47F0 7978            009C8  5522     693.              B     VVOLER99
0000944                             5524     695.     VADDER12 LABEL ,
 000944 4110 03DF            003DF  5526     696.              SEG   'Open error'
 000948 4590 620E            0122E  5528             +
 00094C 47F0 7978            009C8  5529     697.              B     VVOLER99
0000950                             5531     699.     VADDER16 LABEL ,
 000950 4110 03EA            003EA  5533     700.              SEG   'Block length error'
 000954 4590 620E            0122E  5535             +
 000958 47F0 7978            009C8  5536     701.              B     VVOLER99
000095C                             5538     703.     VADDER20 LABEL ,
 00095C 4110 03FD            003FD  5540     704.              SEG   'Header length error'
 000960 4590 620E            0122E  5542             +
 000964 47F0 7978            009C8  5543     705.              B     VVOLER99
0000968                             5545     707.     VADDER24 LABEL ,
 000968 4110 0411            00411  5547     708.              SEG   'Insufficient bitmap blocks'
 00096C 4590 620E            0122E  5549             +
 000970 47F0 7978            009C8  5550     709.              B     VVOLER99
0000974                             5552     711.     VADDER28 LABEL ,
 000974 4110 042C            0042C  5554     712.              SEG   'Volume already referenced by Orvyl'
 000978 4590 620E            0122E  5556             +
 00097C 47F0 7978            009C8  5557     713.              B     VVOLER99
0000980                             5559     715.     VVOLER90 LABEL ,
 000980 4110 044F            0044F  5561     716.              SEG   'Invalid file system name: '
 000984 4590 620E            0122E  5563             +
1VSSV     (VSSV07) (09:49) (22MAR04) SHOW/SET VVOLUME Command                                                               Page   45
0Current Usings:  (BASE2,R6) (BASE,R7) (WA,R8) (CLW,R10)
0Loc    Object Code    Addr1 Addr2  Stmt Lv Lineno    Source Statement           (Hibal 5, Asmedit 3.3)  HLASM R4.0  2004/03/22 09.49
+___    ______ ____    _____ _____  ____ __ ______    ______ _________
0000988 4110 802C            0002C  5564     717.              SEG   WAVVFSN,L'WAVVFSN
 00098C 4100 0008            00008  5580             +
 000990 4590 70DA            0012A  5581             +
 000994 47F0 7978            009C8  5582     718.              B     VVOLER99
 000998                             5583     719.     VVOLER91 LABEL ,
 000998 4110 046A            0046A  5585     720.              SEG   'Not authorized'
 00099C 4590 620E            0122E  5587             +
 0009A0 47F0 7978            009C8  5588     721.              B     VVOLER99
 0009A4                             5589     722.     VVOLER92 LABEL ,
 0009A4 4110 0479            00479  5591     723.              SEG   'Can not remove the only volume.'
 0009A8 4590 620E            0122E  5593             +
 0009AC 4D90 7180            001D0  5594     724.              LCALL WRITE
 0009B0 4110 0499            00499  5596     725.              SEG   'Use SET NOVFILE to inactivate file system.'
 0009B4 4590 620E            0122E  5598             +
 0009B8 47F0 7978            009C8  5599     726.              B     VVOLER99
 0009BC                             5600     727.     VVOLER93 LABEL ,
 0009BC 4110 04C4            004C4  5602     728.              SEG   'Invalid DSN specified'
 0009C0 4590 620E            0122E  5604             +
 0009C4 47F0 7978            009C8  5605     729.              B     VVOLER99
 0009C8                             5606     730.     VVOLER99 LABEL ,
 0009C8 4D90 7180            001D0  5608     731.              LCALL WRITE
 0009CC 07F7                        5610     732.              BR    BR                  Return
1VSSV     (VSSV07) (09:49) (22MAR04) SHOW/SET VREGION Command                                                               Page   46
0Current Usings:  (BASE2,R6) (BASE,R7) (WA,R8) (CLW,R10)
0Loc    Object Code    Addr1 Addr2  Stmt Lv Lineno    Source Statement           (Hibal 5, Asmedit 3.3)  HLASM R4.0  2004/03/22 09.49
+___    ______ ____    _____ _____  ____ __ ______    ______ _________
0                                   5612     734.
                                    5613     735.
                                    5614     736.             SHOW VREGION
                                    5615     737.
                                    5616     738.                Displays the system wide region parameters.
                                    5617     739.

00009CE                             5618     740.     SHVREGIO LABEL ,
 0009CE 47F0 7A38            00A88  5620     741.              B     VREGDISP            Display
                                    5621     742.
                                    5622     743.
                                    5623     744.             SET VREGION
                                    5624     745.
                                    5625     746.                Sets the system wide region.
                                    5626     747.

00009D2                             5627     748.     SETVREGI LABEL ,
 0009D2 4D90 7180            001D0  5629     749.              LCALL WRITE
 0009D6 4D90 7054            000A4  5631     750.              SYSONLY ,                 Privileged
 0009DA 4100 0080/0AED       00080  5634     751.              CLPSERV VREGION           Get region parameters
 0009E0 90E1 8028            00028  5643     752.              STM   R14,R1,WAVREGIO     Save parameters
 0009E4                             5644     753.              IF    (WAVRLEN,EQ,=Y(X'300')),SETVRERR
 0009E4 D501 6340 8030 01360 00030  5655             +
 0009EA 4780 79E6            00A36  5658             +
 0009EE 5890 6294/0D99       012B4  5664     754.              VCALL EVAL
 0009F4 4740 7A0C            00A5C  5668     755.              BM    SETVRER3
 0009F8 4900 6340            01360  5669     756.              IF    (R0,LT,=Y(X'300')),SETVRER2
 0009FC 4740 79FA            00A4A  5682             +
 000A00 4900 8030            00030  5688     757.              IF    (R0,GT,WAVRLEN),SETVRER2
 000A04 4720 79FA            00A4A  5702             +
 000A08 1820                        5708     758.              LR    R2,R0
 000A0A 5890 62E0/0D99       01300  5709     759.              VCALL VERPATCH            Verify patch
 000A10 0777                        5713     760.              BNZR  BR
 000A12 5890 62E4/0D99       01304  5714     761.              ACALL AMODE31
 000A18 58F0 8028            00028  5718     762.              L     R15,WAVRADDR
 000A1C 4020 F000            00000  5719     763.              STH   R2,@R15             Set new region parameter
 000A20 5890 62E8/0D99       01308  5720     764.              ACALL AMODE24
 000A26 4110 04DA            004DA  5724     765.              SEG   'New region parameter set'
 000A2A 4590 620E            0122E  5726             +
 000A2E 4D90 7180            001D0  5727     766.              LCALL WRITE
 000A32 47F0 7A38            00A88  5729     767.              B     VREGDISP
 000A36                             5730     768.     SETVRERR LABEL ,
 000A36 4110 04F3            004F3  5732     769.              SEG   'Can''t set region when length and region '
 000A3A 4590 620E            0122E  5734             +
 000A3E 4110 051C            0051C  5735     770.              SEG   'are both x0300'
 000A42 4590 620E            0122E  5737             +
 000A46 47F0 7A30            00A80  5738     771.              B     SETVRER9
 000A4A                             5739     772.     SETVRER2 LABEL ,
 000A4A 18F0                        5741     773.              LR    R15,R0
 000A4C 4100 0004            00004  5742     774.              SEGHX 4,(R15)
 000A50 4D90 71EE            0023E  5755             +
 000A54 4110 052B            0052B  5756     775.              SEG   ' invalid'
1VSSV     (VSSV07) (09:49) (22MAR04) SHOW/SET VREGION Command                                                               Page   47
0Current Usings:  (BASE2,R6) (BASE,R7) (WA,R8) (CLW,R10)
0Loc    Object Code    Addr1 Addr2  Stmt Lv Lineno    Source Statement           (Hibal 5, Asmedit 3.3)  HLASM R4.0  2004/03/22 09.49
+___    ______ ____    _____ _____  ____ __ ______    ______ _________
0000A58 4590 620E            0122E  5758             +
 000A5C                             5759     776.     SETVRER3 LABEL ,
 000A5C 4110 0534            00534  5761     777.              SEG   ', '
 000A60 4590 620E            0122E  5763             +
 000A64                             5764     778.     SETVRER5 LABEL ,
 000A64 4110 0537            00537  5766     779.              SEG   'Region must be a number of pages '
 000A68 4590 620E            0122E  5768             +
 000A6C 4110 0559            00559  5769     780.              SEG   'between x0300 and x'
 000A70 4590 620E            0122E  5771             +
 000A74 48F0 8030            00030  5772     781.              SEGHX 4,LH:WAVRLEN
 000A78 4100 0004            00004  5783             +
 000A7C 4D90 71EE            0023E  5785             +
 000A80                             5786     782.     SETVRER9 LABEL ,
 000A80 4D90 7180            001D0  5788     783.              LCALL WRITE
 000A84 47F0 7A42            00A92  5790     784.              B     VREGDIS2
 000A88                             5791     785.     VREGDISP LABEL ,
 000A88 4100 0080/0AED       00080  5793     786.              CLPSERV VREGION           Get region parameters
 000A8E 90E1 8028            00028  5802     787.              STM   R14,R1,WAVREGIO     Save parameters
 000A92                             5803     788.     VREGDIS2 LABEL ,
 000A92 4110 056D            0056D  5805     789.              SEG   'User area origin: '
 000A96 4590 620E            0122E  5807             +
 000A9A 58F0 8034            00034  5808     790.              SEGHX 8,L:WAVRORG
 000A9E 4100 0008            00008  5820             +
 000AA2 4D90 71EE            0023E  5822             +
 000AA6 4110 0580            00580  5823     791.              SEG   ', length: '
 000AAA 4590 620E            0122E  5825             +
 000AAE 48F0 8030            00030  5826     792.              SEGHX 4,LH:WAVRLEN
 000AB2 4100 0004            00004  5837             +
 000AB6 4D90 71EE            0023E  5839             +
 000ABA 4110 058B            0058B  5840     793.              SEG   ' pages, region: '
 000ABE 4590 620E            0122E  5842             +
 000AC2 48F0 8032            00032  5843     794.              SEGHX 4,LH:WAVREG
 000AC6 4100 0004            00004  5854             +
 000ACA 4D90 71EE            0023E  5856             +
 000ACE 4110 059C            0059C  5857     795.              SEG   ' pages'
 000AD2 4590 620E            0122E  5859             +
 000AD6 4D90 7180            001D0  5860     796.              LCALL WRITE
                                    5862     797.
 000ADA 07F7                        5863     798.              BR    BR
1VSSV     (VSSV07) (09:49) (22MAR04) SHOW VGROUP Command                                                                    Page   48
0Current Usings:  (BASE2,R6) (BASE,R7) (WA,R8) (CLW,R10)
0Loc    Object Code    Addr1 Addr2  Stmt Lv Lineno    Source Statement           (Hibal 5, Asmedit 3.3)  HLASM R4.0  2004/03/22 09.49
+___    ______ ____    _____ _____  ____ __ ______    ______ _________
0                                   5865     800.
                                    5866     801.
                                    5867     802.             SHOW VGROUP
                                    5868     803.
                                    5869     804.                Displays the file system for a group.
                                    5870     805.

0000ADC                             5871     806.     SHVGROUP LABEL
 000ADC 4110 7B20            00B70  5873     807.              SCAN  SHVGPRT,CLWKWCB     SHOW VGROUP options
 000AE0 41F0 A2C4            002C4  5887             +
 000AE4 58E0 62AC/0DEE       012CC  5890             +
 000AEA 4770 7020            00070  5892     808.              BNZ   SCRET               Trouble, scram
 000AEE 4100 0071            00071  5893     809.              STATUS 113,WAVGS113,L'WAVGS113,WAVGROUP Get file sys for grp
 000AF2 4110 802A            0002A  5907             +
 000AF6 41F0 0009            00009  5914             +
 000AFA 41E0 8028/0AF1       00028  5921             +
 000B00 47FF 7AC0            00B10  5924     810.              B     *+16(R15)               INDEX INTO RETURN CODES
 000B04 47F0 7AF8            00B48  5925     811.              B     SHVGINV             -12 INVALID GROUP
 000B08 47F0 7AF8            00B48  5926     812.              B     SHVGINV              -8 INVALID GROUP
 000B0C 47F0 7EA0            00EF0  5927     813.              B     SETMANY              -4 TOO MANY DEVICES ATTACHED
 000B10                             5928     814.     SHVGWAIT LABEL ,
 000B10 0AF2                        5930     815.              WAIT  (0)                     WAIT FOR COMPLETION
 000B12 4D90 7180            001D0  5938     816.              LCALL WRITE
 000B16 4110 05A3            005A3  5940     817.              SEG   'File System ID: '
 000B1A 4590 620E            0122E  5942             +
 000B1E 1FFF/43F0 802A       0002A  5943     818.              SEGDC 0,LC:WAVGFSID
 000B24 1B00/4D90 71CC       0021C  5957             +
 000B2A 4110 05B4            005B4  5960     819.              SEG   '  Name: '
 000B2E 4590 620E            0122E  5962             +
 000B32 4110 802B            0002B  5963     820.              SEG   WAVGFSNM,L'WAVGFSNM
 000B36 4100 0008            00008  5979             +
 000B3A 4590 70DA            0012A  5980             +
 000B3E 4D90 7180            001D0  5981     821.              LCALL WRITE
 000B42 4D90 7180            001D0  5983     822.              LCALL WRITE
 000B46 07F7                        5985     823.              BR    BR
 000B48                             5986     824.     SHVGINV  LABEL ,
 000B48 4110 6230            01250  5988     825.              SETMSG 'Group specified not valid for Orvyl file systems'
 000B4C 4100 0030            00030  5991             +
 000B50 47F0 70CE            0011E  5992     826.              B     MSGEXIT             Done
 000B54                             5993     827.     SHVGG    LABEL ,
 000B54 5900 62D0            012F0  5995     828.              IF    (R0,NE,2),BEGIN
 000B58 4780 7B18            00B68  6007             +
 000B5C 4110 6260            01280  6012  1  829.                SETMSG 'Group must be specified (GG etc)'
 000B60 4100 0020            00020  6015  1          +
 000B64 47F0 70CE            0011E  6016  1  830.                B     MSGEXIT
 000B68                             6017     831.              END   ,
 000B68 D201 8028 1000 00028 00000  6021     832.              MVC   WAVGROUP,@R1
 000B6E 07FE                        6022     833.              SCRTN (15)
 000B70                             6029     834.     SHVGPRT  SCKW  GROUP,SHVGG,A
 000B70 0C000B54C7D9D6E4            6030             +
 000B79 FF000B54                    6031     835.              SCKW  ,SHVGG
1VSSV     (VSSV07) (09:49) (22MAR04) SHOW VSESSION Command                                                                  Page   49
0Current Usings:  (BASE2,R6) (BASE,R7) (WA,R8) (CLW,R10)
0Loc    Object Code    Addr1 Addr2  Stmt Lv Lineno    Source Statement           (Hibal 5, Asmedit 3.3)  HLASM R4.0  2004/03/22 09.49
+___    ______ ____    _____ _____  ____ __ ______    ______ _________
0                                   6034     837.
                                    6035     838.
                                    6036     839.             SHOW VSESSION
                                    6037     840.

0000B7E                             6038     841.     SHVSESSI LABEL
 000B7E 4110 62EC            0130C  6040     842.              SETMSG 'Command not yet implemented.'
 000B82 4100 001C            0001C  6043             +
 000B86 47F0 70CE            0011E  6044     843.              B     MSGEXIT
                                    6045     844.
1VSSV     (VSSV07) (09:49) (22MAR04) SHOW VTIME Command                                                                     Page   50
0Current Usings:  (BASE2,R6) (BASE,R7) (WA,R8) (CLW,R10)
0Loc    Object Code    Addr1 Addr2  Stmt Lv Lineno    Source Statement           (Hibal 5, Asmedit 3.3)  HLASM R4.0  2004/03/22 09.49
+___    ______ ____    _____ _____  ____ __ ______    ______ _________
0                                   6047     846.
                                    6048     847.
                                    6049     848.             SHOW VTIME
                                    6050     849.

0000B8A                             6051     850.     SHVTIME  LABEL
 000B8A 4110 05BD            005BD  6053     851.              SEG   'Orvyl session statistics:'
 000B8E 4590 620E            0122E  6055             +
 000B92 4D90 7180            001D0  6056     852.              LCALL WRITE
 000B96 4100 0019/0AFA       00019  6058     853.              SENSE 25                      GET STATS
 000B9C 1821                        6077     854.              LR    SR,R1                   SAVE CPU TIME
 000B9E 18F0/4100 0001       00001  6078     855.              SEGDC 1,(R0),PAD
 000BA4 1300/4D90 71CC       0021C  6091             +
 000BAA 4110 05D7            005D7  6094     856.              SEG   ' file I/O''s'
 000BAE 4590 620E            0122E  6096             +
 000BB2 4D90 7180            001D0  6097     857.              LCALL WRITE
 000BB6 4110 020C            0020C  6099     858.              SEG   ' '
 000BBA 4590 620E            0122E  6101             +
 000BBE 18F2                        6102     859.              LR    R15,SR                  COPY CPU TIME
 000BC0 1BEE                        6103     860.              CLEAR R14
 000BC2 5DE0 6308            01328  6107     861.              D     R14,=A(384)             TO CENTI-SECONDS
 000BC6 183F                        6108     862.              LR    TR,R15                  SAVE CENTI-SECONDS
 000BC8 4100 0002            00002  6109     863.              BTR   CLWTEMP,(0,2),(15)
 000BCC 4110 A2E8            002E8  6128             +
 000BD0 58E0 6290/0DEE       012B0  6131             +
 000BD6 5890 6288/0D99       012A8  6133     864.              VSEG  (1),(0)
 000BDC 4110 05E3            005E3  6150     865.              SEG   ' CPU seconds'
 000BE0 4590 620E            0122E  6152             +
 000BE4 4D90 7180            001D0  6153     866.              LCALL WRITE
 000BE8 4110 020C            0020C  6155     867.              SEG   ' '
 000BEC 4590 620E            0122E  6157             +
 000BF0 18F3                        6158     868.              LR    R15,TR                  GET CENTI-SECONDS
 000BF2 5CE0 630C            0132C  6159     869.              M     R14,=A(287)             CONVERT SECONDS TO
 000BF6 5DE0 6310            01330  6160     870.              D     R14,=A(100)              3081 MODEL D UNITS
 000BFA 4100 0002            00002  6161     871.              BTR   CLWTEMP,(0,2),(15)
 000BFE 4110 A2E8            002E8  6180             +
 000C02 58E0 6290/0DEE       012B0  6183             +
 000C08 5890 6288/0D99       012A8  6185     872.              VSEG  (1),(0)
 000C0E 4110 05F0            005F0  6202     873.              SEG   ' Charge units'
 000C12 4590 620E            0122E  6204             +
 000C16 4D90 7180            001D0  6205     874.              LCALL WRITE
 000C1A 07F7                        6207     875.              BR    BR
1VSSV     (VSSV07) (09:49) (22MAR04) SHOW VSYS Command                                                                      Page   51
0Current Usings:  (BASE2,R6) (BASE,R7) (WA,R8) (CLW,R10)
0Loc    Object Code    Addr1 Addr2  Stmt Lv Lineno    Source Statement           (Hibal 5, Asmedit 3.3)  HLASM R4.0  2004/03/22 09.49
+___    ______ ____    _____ _____  ____ __ ______    ______ _________
0                                   6209     877.
                                    6210     878.
                                    6211     879.       SHOW VSYS -- Show shared programs.
                                    6212     880.

0000C1C                             6213     881.     SHVSYS   LABEL ,
 000C1C 4100 0048/0AED       00048  6215     882.              CLPSERV SPBPTR                GET SPB CHAIN POINTER
 000C22 122F/0789                   6224     883.              IF    ('LTR  SR,R15',Z),RAR   NONE TO SHOW
 000C26 4110 05FE            005FE  6240     884.              SEG   'Name     Users  Size  Origin    '
 000C2A 4590 620E            0122E  6242             +
 000C2E 9140 A20C      0020C        6243     885.              IF    CLWSSP,BEGIN
 000C32 47E0 7BEE            00C3E  6253             +
 000C36 4110 061F            0061F  6258  1  886.                SEG   'SPB       '
 000C3A 4590 620E            0122E  6260  1          +
 000C3E                             6261     887.              END   ,
 000C3E 4110 062A            0062A  6265     888.              SEG   'Program'
 000C42 4590 620E            0122E  6267             +
 000C46 4D90 7180            001D0  6268     889.              LCALL WRITE
 000C4A 5890 62E4/0D99       01304  6270     890.              ACALL AMODE31
 000C50 1222/4780 7CE6       00D36  6274     891.              WHILE (SR,NZ),BEGIN
 USING  SPB,R2                      6290  1  892.                WITH  (SPB,SR)
 000C56 4110 2008            00008  6303  1  893.                SEG   SPBNAME,8
 000C5A 4100 0008            00008  6319  1          +
 000C5E 4590 70DA            0012A  6320  1          +
 000C62 58F0 2054            00054  6321  1  894.                SEGDC 6,L:SPBNU               USER COUNT
 000C66 4100 0006            00006  6333  1          +
 000C6A 4D90 71CC            0021C  6335  1          +
 000C6E 58F0 204C            0004C  6336  1  895.                L     R15,SPBSIZE             VIRTUAL
 000C72 88F0 000A            0000A  6337  1  896.                SRL   R15,10                  TO K
 000C76 4100 0005            00005  6338  1  897.                SEGDC 5,(R15)                  IN K
 000C7A 4D90 71CC            0021C  6351  1          +
 000C7E 4110 0632            00632  6352  1  898.                SEG   'K'
 000C82 4590 620E            0122E  6354  1          +
 000C86 4110 00E6            000E6  6355  1  899.                SEG   '  '
 000C8A 4590 620E            0122E  6357  1          +
 000C8E 58F0 2048            00048  6358  1  900.                L     R15,SPBORGIN            ORIGIN
 000C92 9104 2044      00044        6359  1  901.                IF    SPBFM31,'O R15,=X"80000000"'
 000C96 47E0 7C4E            00C9E  6369  1          +
 000C9A 56F0 6314            01334  6375  1          +
 000C9E 4100 0008            00008  6380  1  902.                SEGHX 8,(R15)
 000CA2 4D90 71EE            0023E  6393  1          +
 000CA6 4110 00E6            000E6  6394  1  903.                SEG   '  '
 000CAA 4590 620E            0122E  6396  1          +
 000CAE 9140 A20C      0020C        6397  1  904.                IF    CLWSSP,BEGIN
 000CB2 47E0 7C7A            00CCA  6407  1          +
 000CB6 41F0 2000            00000  6412  2  905.                  LA    R15,SPB                 SPB ADDR
 000CBA 4100 0008            00008  6413  2  906.                  SEGHX 8,(R15)
 000CBE 4D90 71EE            0023E  6426  2          +
 000CC2 4110 00E6            000E6  6427  2  907.                  SEG   '  '
 000CC6 4590 620E            0122E  6429  2          +
 000CCA                             6430  1  908.                END   ,
 000CCA 4110 2018            00018  6434  1  909.                SETMSG SPBFILE,L'SPBFILE   Proglib
 000CCE 4100 002C            0002C  6449  1          +
1VSSV     (VSSV07) (09:49) (22MAR04) SHOW VSYS Command                                                                      Page   52
0Current Usings:  (SPB,R2) (BASE2,R6) (BASE,R7) (WA,R8) (CLW,R10)
0Loc    Object Code    Addr1 Addr2  Stmt Lv Lineno    Source Statement           (Hibal 5, Asmedit 3.3)  HLASM R4.0  2004/03/22 09.49
+___    ______ ____    _____ _____  ____ __ ______    ______ _________
0000CD2 58E0 6318/0DEE       01338  6450  1  910.                XCALL RTRIM
 000CD8 4590 70DA            0012A  6454  1  911.                SEG   (R1),(R0)
 000CDC 4110 0634            00634  6466  1  912.                SEG   '('
 000CE0 4590 620E            0122E  6468  1          +
 000CE4 4110 2010            00010  6469  1  913.                SETMSG SPBPROG,L'SPBPROG   Member name
 000CE8 4100 0008            00008  6484  1          +
 000CEC 58E0 6318/0DEE       01338  6485  1  914.                XCALL RTRIM
 000CF2 4590 70DA            0012A  6489  1  915.                SEG   (R1),(R0)
 000CF6 4110 0636            00636  6501  1  916.                SEG   ')'
 000CFA 4590 620E            0122E  6503  1          +
                                    6504  1  917.
 000CFE 9110 2044      00044        6505  1  918.                IF    SPBFPURGABLE,'SEG " (Purgable)"'
 000D02 47E0 7CBE            00D0E  6515  1          +
 000D06 4110 0638            00638  6522  2          +
 000D0A 4590 620E            0122E  6523  1          +
 000D0E 9110 2045      00045        6528  1  919.                IF    SPBFCORPSE,'SEG " (Corpse)"'
 000D12 47E0 7CCE            00D1E  6538  1          +
 000D16 4110 0644            00644  6545  2          +
 000D1A 4590 620E            0122E  6546  1          +
                                    6551  1  920.
 000D1E 5890 62E8/0D99       01308  6552  1  921.                ACALL AMODE24
 000D24 4D90 7180            001D0  6556  1  922.                LCALL WRITE
 000D28 5890 62E4/0D99       01304  6558  1  923.                ACALL AMODE31
 000D2E 5820 2004            00004  6562  1  924.                L     SR,SPBNEXT              NEXT IN THE CHAIN
 000D32 47F0 7C00            00C50  6563     925.              END   ,
 DROP   SPB,R2
 000D36 5890 62E8/0D99       01308  6573     926.              ACALL AMODE24
 000D3C 07F7                        6577     927.              BR    BR
1VSSV     (VSSV07) (09:49) (22MAR04) SHOW VSYMBOLS Command                                                                  Page   53
0Current Usings:  (BASE2,R6) (BASE,R7) (WA,R8) (CLW,R10)
0Loc    Object Code    Addr1 Addr2  Stmt Lv Lineno    Source Statement           (Hibal 5, Asmedit 3.3)  HLASM R4.0  2004/03/22 09.49
+___    ______ ____    _____ _____  ____ __ ______    ______ _________
0                                   6579     929.
                                    6580     930.
                                    6581     931.       SHOW VSYMBOLS -- Show shared symbol table.
                                    6582     932.

0000D3E                             6583     933.     SHVSYMBO LABEL
 000D3E 4100 0048/0AED       00048  6585     934.              CLPSERV SPBPTR
 000D44 183F                        6594     935.              LR    TR,R15                  Get address of first SPB
                                    6595     936.
                                    6596     937.                SHOW VSYM title.
                                    6597     938.
 000D46 4110 064E            0064E  6598     939.              SEG   'Program   Users  Value   Symbol'
 000D4A 4590 620E            0122E  6600             +
                                    6601     940.     *              'XXXXXXXX* xxxx  xxxxxxxx xxxxxxxxxxxxxxxxxx'
 000D4E 4D90 7180            001D0  6602     941.              LCALL WRITE
                                    6604     942.
                                    6605     943.                SHOW VSYM entries.
                                    6606     944.
 000D52 5890 62E4/0D99       01304  6607     945.              ACALL AMODE31
 000D58 1233/4780 7DB4       00E04  6611     946.              WHILE (TR,NZ),BEGIN           Go through all SPBs
 USING  SPB,R3                      6627  1  947.                WITH  (SPB,TR)
 000D5E 5820 3058/1222       00058  6640  1  948.                LT    SR,SPBSSB               Get the SSB queue
 000D64 4780 7DAC            00DFC  6644  1  949.                IF    (NZ),BEGIN              Write out the program header
 USING  SSB,R2                      6655  2  950.                  WITH  (SSB,SR)
                                    6668  2  951.
                                    6669  2  952.                    Write out the initial information about the program
                                    6670  2  953.
 000D68 4110 3008            00008  6671  2  954.                  SEG   SPBNAME,8               Program name
 000D6C 4100 0008            00008  6687  2          +
 000D70 4590 70DA            0012A  6688  2          +
 000D74 9110 3045      00045        6689  2  955.                  IF    SPBFCORPSE,BEGIN        Mark Corpse entries
 000D78 47E0 7D34            00D84  6699  2          +
 000D7C 4110 066E            0066E  6704  3  956.                    SEG   '*'
 000D80 4590 620E            0122E  6706  3          +
 000D84 7D38           00D84 00D7A  6707  2  957.                  END   ELSE,BEGIN
 000D84 47F0 7D40            00D90  6716  2          +
 000D88 4110 020C            0020C  6722  3  958.                    SEG   ' '
 000D8C 4590 620E            0122E  6724  3          +
 000D90                             6725  2  959.                  END
 000D90 4110 020C            0020C  6729  2  960.                  SEG   ' '
 000D94 4590 620E            0122E  6731  2          +
 000D98 58F0 305C            0005C  6732  2  961.                  SEGDC 4,SPBNREF               Number of references
 000D9C 4100 0004            00004  6744  2          +
 000DA0 4D90 71CC            0021C  6746  2          +
 000DA4 4110 00E6            000E6  6747  2  962.                  SEG   '  '                    followed by two blanks
 000DA8 4590 620E            0122E  6749  2          +
 000DAC 47F0 7D6E            00DBE  6750  2  963.                  B     SVSNXT                  Jump ahead a bit
                                    6751  2  964.
                                    6752  2  965.                    Loop through the symbol entries
                                    6753  2  966.
 000DB0 1222/4780 7DAC       00DFC  6754  2  967.                  WHILE (SR,NZ),BEGIN           Go through table...
 000DB6 4110 0670            00670  6770  3  968.                    SEG   '                '      Get the spacing
 000DBA 4590 620E            0122E  6772  3          +
1VSSV     (VSSV07) (09:49) (22MAR04) SHOW VSYMBOLS Command                                                                  Page   54
0Current Usings:  (SSB,R2) (SPB,R3) (BASE2,R6) (BASE,R7) (WA,R8) (CLW,R10)
0Loc    Object Code    Addr1 Addr2  Stmt Lv Lineno    Source Statement           (Hibal 5, Asmedit 3.3)  HLASM R4.0  2004/03/22 09.49
+___    ______ ____    _____ _____  ____ __ ______    ______ _________
0000DBE                             6773  3  969.     SVSNXT         LABEL ,                       Label to skip the spacing
 000DBE 58F0 2008            00008  6775  3  970.                    SEGHX 8,L:SSBWORD             Symbol value
 000DC2 4100 0008            00008  6787  3          +
 000DC6 4D90 71EE            0023E  6789  3          +
 000DCA 4110 020C            0020C  6790  3  971.                    SEG   ' '
 000DCE 4590 620E            0122E  6792  3          +
                                    6793  3  972.
 000DD2 4110 2010            00010  6794  3  973.                    SETMSG SSBNAME                 Symbol name
 000DD6 4100 00C8            000C8  6807  3          +
 000DDA 58E0 6318/0DEE       01338  6808  3  974.                    XCALL RTRIM
 000DE0 4590 70DA            0012A  6812  3  975.                    SEG   (R1),(R0)
 000DE4 5890 62E8/0D99       01308  6824  3  976.                    ACALL AMODE24
 000DEA 4D90 7180            001D0  6828  3  977.                    LCALL WRITE
 000DEE 5890 62E4/0D99       01304  6830  3  978.                    ACALL AMODE31
                                    6834  3  979.
 000DF4 5820 2004            00004  6835  3  980.                    L     SR,SSBNEXT              Next SSB in chain
 000DF8 47F0 7D60            00DB0  6836  2  981.                  END
 DROP   SSB,R2                      6841  1  982.                END
 000DFC 5830 3004            00004  6850  1  983.                L     TR,SPBNEXT              Next SPB in the chain
 000E00 47F0 7D08            00D58  6851     984.              END
 DROP   SPB,R3
 000E04 5890 62E8/0D99       01308  6861     985.              ACALL AMODE24
                                    6865     986.
 000E0A 07F7                        6866     987.              BR    BR
1VSSV     (VSSV07) (09:49) (22MAR04) Internal SET Commands                                                                  Page   55
0Current Usings:  (BASE2,R6) (BASE,R7) (WA,R8) (CLW,R10)
0Loc    Object Code    Addr1 Addr2  Stmt Lv Lineno    Source Statement           (Hibal 5, Asmedit 3.3)  HLASM R4.0  2004/03/22 09.49
+___    ______ ____    _____ _____  ____ __ ______    ______ _________
0                                   6868     989.     *
                                    6869     990.     *    SET TO CANCEL ORVYL ON NEXT CLP ERROR
                                    6870     991.     *
 000E0C 4D90 7054            000A4  6871     992.     SETCLPER SYSONLY
 000E10 5810 A000            00000  6874     993.              L     R1,CLWSCP
 000E14 9680 1200      00200        6875     994.              WITH  (SCP,R1),'SET SCPFERR'
 USING  SCP,R1
 DROP   SCP,R1
 000E18 07F7                        6904     995.              BR    BR
-
                                    6906     997.     *
                                    6907     998.     *    SET USER PROGRAM AS PSEUDO CLP
                                    6908     999.     *
 000E1A 4D90 7054            000A4  6909    1000.     SETPSCLP SYSONLY ,
 000E1E 4110 0004            00004  6912    1001.              CLPSERV PSEUDO,4              SET FLAG
 000E22 4100 0058/0AED       00058  6926             +
 000E28 07F7                        6928    1002.              BR    BR
1VSSV     (VSSV07) (09:49) (22MAR04) Internal SET Commands                                                                  Page   56
0Current Usings:  (BASE2,R6) (BASE,R7) (WA,R8) (CLW,R10)
0Loc    Object Code    Addr1 Addr2  Stmt Lv Lineno    Source Statement           (Hibal 5, Asmedit 3.3)  HLASM R4.0  2004/03/22 09.49
+___    ______ ____    _____ _____  ____ __ ______    ______ _________
0                                   6930    1004.     *
                                    6931    1005.     * SET/RESET FILE SYSTEM MODES
                                    6932    1006.     *
 000E2A                             6933    1007.     SETVMAIN LABEL ,                       SET READ ONLY
 000E2A 4130 0004            00004  6935    1008.              LA    TR,4                    INDICATE READ ONLY
 000E2E 47F0 7DF8            00E48  6936    1009.              B     SETMAINT                JOIN COMMON CODE
0000E32                             6938    1011.     SETNOVMA LABEL ,
 000E32 1B33                        6940    1012.              CLEAR TR                      CLEAR READ ONLY
 000E34 47F0 7DF8            00E48  6944    1013.              B     SETMAINT                JOIN COMMON CODE
0000E38                             6946    1015.     SETNOVFI LABEL ,                       BLOCK ALL ACCESS
 000E38 4130 000C            0000C  6948    1016.              LA    TR,12                   INDICATE NO ACCESS
 000E3C 47F0 7DF8            00E48  6949    1017.              B     SETMAINT                JOIN COMMON CODE
0000E40                             6951    1019.     SETVFILE LABEL ,
 000E40 4130 0008            00008  6953    1020.              LA    TR,8                    ALLOW ACCESS
 000E44 47F0 7DF8            00E48  6954    1021.              B     SETMAINT                JOIN COMMON CODE
0000E48                             6956    1023.     SETMAINT LABEL ,                       COMMON PROCESSING
 000E48 9180 8020      00020        6958    1024.              IF    ~WAFLSYS,BEGIN
 000E4C 4710 7E0A            00E5A  6968             +
 000E50 D505 A3B0 6342 003B0 01362  6973  1 1025.                CLC   CLWACCT,=C'BP.ORV'      RLIN FELLOW?
 000E56 4770 705A            000AA  6974  1 1026.                BNE   PRIVCMD                 PRETEND IT NEVER HAPPENED
 000E5A                             6975    1027.              END   ,
 000E5A 1B11/41F0 A2C4       002C4  6979    1028.              SCAN  ,CLWKWCB                GET FILE SYSTEM NAME
 000E60 58E0 62AC/0DEE       012CC  6993             +
 000E66 47D0 7020            00070  6995    1029.              BNP   SCRET                   NO GOOD
 000E6A 5900 631C            0133C  6996    1030.              IF    (R0,GT,8),ILLSTR         THIS EITHER
 000E6E 4720 7026            00076  7010             +
 000E72 D207 A2E8 A2C8 002E8 002C8  7016    1031.              MVC   CLWTEMP(8),CLWKWKW       SAVE NAME
 000E78 4110 A2E8            002E8  7017    1032.              SEG   CLWTEMP,8
 000E7C 4100 0008            00008  7033             +
 000E80 4590 70DA            0012A  7034             +
 000E84 4110 0681            00681  7035    1033.              SEG   ' access will be '
 000E88 4590 620E            0122E  7037             +
 000E8C 1813                        7038    1034.              LR    R1,TR                   POINT AT PROPER MESSAGE
 000E8E 8910 0002            00002  7039    1035.              SLL   R1,2                    TIMES 4
 000E92 4111 61CE            011EE  7040    1036.              LA    R1,VMSGS(R1)
 000E96 4100 000A            0000A  7041    1037.              LA    R0,10
 000E9A 4590 70DA            0012A  7042    1038.              SEG   (R1),(R0)               ADD IT
 000E9E 4D90 6162            01182  7054    1039.              LCALL CHKOK                   HONEST-DODGER?
 000EA2 4770 7036            00086  7056    1040.              BNZ   REQABORT                MUST BE A CLANTON
 000EA6 4100 006C            0006C  7057    1041.              STATUS 108,CLWTEMP,(TR)       REQUEST SPECIFIED FILE MODE
 000EAA 4110 A2E8/18F3       002E8  7071             +
 000EB0 0AF1                        7081             +
 000EB2 47FF 7E6E            00EBE  7082    1042.              B     *+12(R15)               INDEX INTO RETURN CODES
 000EB6 47F0 7EDC            00F2C  7083    1043.              B     SETNOFS              -8 INVALID FILE SYSTEM NAME
 000EBA 47F0 7EA0            00EF0  7084    1044.              B     SETMANY              -4 TOO MANY DEVICES ATTACHED
 000EBE 47F0 7E7E            00ECE  7085    1045.              B     SETMWAIT              0 OPERATION BEGUN
 000EC2 47F0 7EAC            00EFC  7086    1046.              B     SETALDY               4 FILE SYSTEM ALREADY SET
 000EC6 47F0 7EE8            00F38  7087    1047.              B     SETINVA               8 INVALID ACCOUNT
 000ECA 47F0 7F00            00F50  7088    1048.              B     SETINVC              12 INVALID CODE
 000ECE                             7089    1049.     SETMWAIT LABEL ,
1VSSV     (VSSV07) (09:49) (22MAR04) Internal SET Commands                                                                  Page   57
0Current Usings:  (BASE2,R6) (BASE,R7) (WA,R8) (CLW,R10)
0Loc    Object Code    Addr1 Addr2  Stmt Lv Lineno    Source Statement           (Hibal 5, Asmedit 3.3)  HLASM R4.0  2004/03/22 09.49
+___    ______ ____    _____ _____  ____ __ ______    ______ _________
0000ECE 0AF2                        7091    1050.              WAIT  (0)                     WAIT FOR COMPLETION
 000ED0 47FF 7E88            00ED8  7099    1051.              B     *+8(R15)                INDEX INTO RETURN CODES
 000ED4 47F0 7EB8            00F08  7100    1052.              B     SETIOE               -4 I/O ERROR OCCURED
 000ED8 47F0 7EC4            00F14  7101    1053.              B     SETMOK                0 REQUESTED MODE SET
 000EDC 47F0 7ED0            00F20  7102    1054.              B     SETMSTIL              4 FILE MAINTENANCE IN PRGRSS
 000EE0 47F0 7F0C            00F5C  7103    1055.              B     SETMRG                8 RICHARD GOOFED
 000EE4 47F0 7F18            00F68  7104    1056.              B     SETMWS               12 YOU WIN SOME
 000EE8 47F0 7F18            00F68  7105    1057.              B     SETMWS               16     AND
 000EEC 47F0 7EF4            00F44  7106    1058.              B     SETMLS               20 YOU LOSE SOME
0000EF0                             7108    1060.     SETMANY  LABEL ,
 000EF0 4110 0692            00692  7110    1061.              SEG   'Too many devices attached'
 000EF4 4590 620E            0122E  7112             +
 000EF8 47F0 70BE            0010E  7113    1062.              B     ERROR
0000EFC                             7115    1064.     SETALDY  LABEL ,
 000EFC 4110 06AC            006AC  7117    1065.              SEG   'File system already in requested mode'
 000F00 4590 620E            0122E  7119             +
 000F04 47F0 70BE            0010E  7120    1066.              B     ERROR
0000F08                             7122    1068.     SETIOE   LABEL ,
 000F08 4110 06D2            006D2  7124    1069.              SEG   'I/O error'
 000F0C 4590 620E            0122E  7126             +
 000F10 47F0 70BE            0010E  7127    1070.              B     ERROR
 000F14                             7128    1071.     SETMOK   LABEL ,
 000F14 4110 06DC            006DC  7130    1072.              SEG   'Requested file mode set'
 000F18 4590 620E            0122E  7132             +
 000F1C 47F0 70D2            00122  7133    1073.              B     WRITEXIT
0000F20                             7135    1075.     SETMSTIL LABEL ,
 000F20 4110 06F4            006F4  7137    1076.              SEG   'File maintenance still in progress'
 000F24 4590 620E            0122E  7139             +
 000F28 47F0 70BE            0010E  7140    1077.              B     ERROR
0000F2C                             7142    1079.     SETNOFS  LABEL ,
 000F2C 4110 0717            00717  7144    1080.              SEG   'File system not found'
 000F30 4590 620E            0122E  7146             +
 000F34 47F0 70BE            0010E  7147    1081.              B     ERROR
                                    7148    1082.
 000F38                             7149    1083.     SETINVA  LABEL ,
 000F38 4110 072D            0072D  7151    1084.              SEG   'You can''t do that'
 000F3C 4590 620E            0122E  7153             +
 000F40 47F0 70BE            0010E  7154    1085.              B     ERROR
0000F44                             7156    1087.     SETMLS   LABEL ,
 000F44 4110 073F            0073F  7158    1088.              SEG   'You lose some...'
 000F48 4590 620E            0122E  7160             +
 000F4C 47F0 70BE            0010E  7161    1089.              B     ERROR
0000F50                             7163    1091.     SETINVC  LABEL ,
 000F50 4110 0750            00750  7165    1092.              SEG   'This will never happen'
 000F54 4590 620E            0122E  7167             +
 000F58 47F0 70BE            0010E  7168    1093.              B     ERROR
1VSSV     (VSSV07) (09:49) (22MAR04) Internal SET Commands                                                                  Page   58
0Current Usings:  (BASE2,R6) (BASE,R7) (WA,R8) (CLW,R10)
0Loc    Object Code    Addr1 Addr2  Stmt Lv Lineno    Source Statement           (Hibal 5, Asmedit 3.3)  HLASM R4.0  2004/03/22 09.49
+___    ______ ____    _____ _____  ____ __ ______    ______ _________
0000F5C                             7170    1095.     SETMRG   LABEL ,
 000F5C 4110 0767            00767  7172    1096.              SEG   'Richard goofed'
 000F60 4590 620E            0122E  7174             +
 000F64 47F0 70BE            0010E  7175    1097.              B     ERROR
                                    7176    1098.
 000F68                             7177    1099.     SETMWS   LABEL ,
 000F68 4110 0776            00776  7179    1100.              SEG   'You win some...'
 000F6C 4590 620E            0122E  7181             +
 000F70 47F0 70BE            0010E  7182    1101.              B     ERROR
1VSSV     (VSSV07) (09:49) (22MAR04) Internal SET Commands                                                                  Page   59
0Current Usings:  (BASE2,R6) (BASE,R7) (WA,R8) (CLW,R10)
0Loc    Object Code    Addr1 Addr2  Stmt Lv Lineno    Source Statement           (Hibal 5, Asmedit 3.3)  HLASM R4.0  2004/03/22 09.49
+___    ______ ____    _____ _____  ____ __ ______    ______ _________
0                                   7184    1103.     *
                                    7185    1104.     *  SET USER PATHS UNAVAILABLE
                                    7186    1105.     *
 000F74 4D90 7054            000A4  7187    1106.     SETNOVPA SYSONLY ,
 000F78 4110 0786            00786  7190    1107.              SEG   'User path'
 000F7C 4590 620E            0122E  7192             +
 000F80 4110 0790            00790  7193    1108.              SEG   ' access will be blocked'
 000F84 4590 620E            0122E  7195             +
 000F88 4D90 6162            01182  7196    1109.              LCALL CHKOK                   VERIFY HIS RESOLVE
 000F8C 4770 7036            00086  7198    1110.              BNZ   REQABORT                HE DIDN'T
 000F90 41F0 0004            00004  7199    1111.              CLPSERV UIOFSET,SETPATH,SETOFF
 000F94 4110 0000            00000  7213             +
 000F98 4100 004C/0AED       0004C  7220             +
 000F9E 07F7                        7222    1112.              BR    BR
-
                                    7224    1114.     *
                                    7225    1115.     *  SET USER PATHS AVAILABLE
                                    7226    1116.     *
 000FA0 4D90 7054            000A4  7227    1117.     SETVPATH SYSONLY ,
 000FA4 4110 0786            00786  7230    1118.              SEG   'User path'
 000FA8 4590 620E            0122E  7232             +
 000FAC 4110 07A8            007A8  7233    1119.              SEG   ' access will be allowed'
 000FB0 4590 620E            0122E  7235             +
 000FB4 4D90 6162            01182  7236    1120.              LCALL CHKOK                   VERIFY HIS RESOLVE
 000FB8 4770 7036            00086  7238    1121.              BNZ   REQABORT                HE DIDN'T
 000FBC 41F0 0000            00000  7239    1122.              CLPSERV UIOFSET,SETPATH,SETON
 000FC0 4110 0000            00000  7253             +
 000FC4 4100 004C/0AED       0004C  7260             +
 000FCA 07F7                        7262    1123.              BR    BR
1VSSV     (VSSV07) (09:49) (22MAR04) Internal SET Commands                                                                  Page   60
0Current Usings:  (BASE2,R6) (BASE,R7) (WA,R8) (CLW,R10)
0Loc    Object Code    Addr1 Addr2  Stmt Lv Lineno    Source Statement           (Hibal 5, Asmedit 3.3)  HLASM R4.0  2004/03/22 09.49
+___    ______ ____    _____ _____  ____ __ ______    ______ _________
0                                   7264    1125.     *
                                    7265    1126.     *  SET NETWORK UNAVAILABLE
                                    7266    1127.     *
 000FCC 4D90 7054            000A4  7267    1128.     SETNOVNE SYSONLY ,
 000FD0 4110 07C0            007C0  7270    1129.              SEG   'Network'
 000FD4 4590 620E            0122E  7272             +
 000FD8 4110 0790            00790  7273    1130.              SEG   ' access will be blocked'
 000FDC 4590 620E            0122E  7275             +
 000FE0 4D90 6162            01182  7276    1131.              LCALL CHKOK                   VERIFY HIS RESOLVE
 000FE4 4770 7036            00086  7278    1132.              BNZ   REQABORT                HE DIDN'T
 000FE8 41F0 0004            00004  7279    1133.              CLPSERV UIOFSET,SETNET,SETOFF
 000FEC 4110 000C            0000C  7293             +
 000FF0 4100 004C/0AED       0004C  7300             +
 000FF6 07F7                        7302    1134.              BR    BR
-
                                    7304    1136.     *
                                    7305    1137.     *  SET NETWORK FILE AVAILABLE
                                    7306    1138.     *
 000FF8 4D90 7054            000A4  7307    1139.     SETVNET  SYSONLY ,
 000FFC 4110 07C0            007C0  7310    1140.              SEG   'Network'
 001000 4590 620E            0122E  7312             +
 001004 4110 07A8            007A8  7313    1141.              SEG   ' access will be allowed'
 001008 4590 620E            0122E  7315             +
 00100C 4D90 6162            01182  7316    1142.              LCALL CHKOK                   VERIFY HIS RESOLVE
 001010 4770 7036            00086  7318    1143.              BNZ   REQABORT                HE DIDN'T
 001014 41F0 0000            00000  7319    1144.              CLPSERV UIOFSET,SETNET,SETON
 001018 4110 000C            0000C  7333             +
 00101C 4100 004C/0AED       0004C  7340             +
 001022 07F7                        7342    1145.              BR    BR
1VSSV     (VSSV07) (09:49) (22MAR04) Internal SET Commands                                                                  Page   61
0Current Usings:  (BASE2,R6) (BASE,R7) (WA,R8) (CLW,R10)
0Loc    Object Code    Addr1 Addr2  Stmt Lv Lineno    Source Statement           (Hibal 5, Asmedit 3.3)  HLASM R4.0  2004/03/22 09.49
+___    ______ ____    _____ _____  ____ __ ______    ______ _________
0                                   7344    1147.     *
                                    7345    1148.     *  SET OS FILES UNAVAILABLE
                                    7346    1149.     *
 001024 4D90 7054            000A4  7347    1150.     SETNOVOS SYSONLY ,
 001028 4110 07C8            007C8  7350    1151.              SEG   'OS file'
 00102C 4590 620E            0122E  7352             +
 001030 4110 0790            00790  7353    1152.              SEG   ' access will be blocked'
 001034 4590 620E            0122E  7355             +
 001038 4D90 6162            01182  7356    1153.              LCALL CHKOK                   VERIFY HIS RESOLVE
 00103C 4770 7036            00086  7358    1154.              BNZ   REQABORT                HE DIDN'T
 001040 41F0 0004            00004  7359    1155.              CLPSERV UIOFSET,SETOSF,SETOFF
 001044 4110 0008            00008  7373             +
 001048 4100 004C/0AED       0004C  7380             +
 00104E 07F7                        7382    1156.              BR    BR
-
                                    7384    1158.     *
                                    7385    1159.     *  SET OS FILES AVAILABLE
                                    7386    1160.     *
 001050 4D90 7054            000A4  7387    1161.     SETVOSF  SYSONLY ,
 001054 4110 07C8            007C8  7390    1162.              SEG   'OS file'
 001058 4590 620E            0122E  7392             +
 00105C 4110 07A8            007A8  7393    1163.              SEG   ' access will be allowed'
 001060 4590 620E            0122E  7395             +
 001064 4D90 6162            01182  7396    1164.              LCALL CHKOK                   VERIFY HIS RESOLVE
 001068 4770 7036            00086  7398    1165.              BNZ   REQABORT                HE DIDN'T
 00106C 41F0 0000            00000  7399    1166.              CLPSERV UIOFSET,SETOSF,SETON
 001070 4110 0008            00008  7413             +
 001074 4100 004C/0AED       0004C  7420             +
 00107A 07F7                        7422    1167.              BR    BR
1VSSV     (VSSV07) (09:49) (22MAR04) Internal SET Commands                                                                  Page   62
0Current Usings:  (BASE2,R6) (BASE,R7) (WA,R8) (CLW,R10)
0Loc    Object Code    Addr1 Addr2  Stmt Lv Lineno    Source Statement           (Hibal 5, Asmedit 3.3)  HLASM R4.0  2004/03/22 09.49
+___    ______ ____    _____ _____  ____ __ ______    ______ _________
0                                   7424    1169.     *
                                    7425    1170.     *  SET JES READER UNAVAILABLE
                                    7426    1171.     *
 00107C 4D90 7054            000A4  7427    1172.     SETNOVJE SYSONLY ,
 001080 4110 07D0            007D0  7430    1173.              SEG   'JES reader'
 001084 4590 620E            0122E  7432             +
 001088 4110 0790            00790  7433    1174.              SEG   ' access will be blocked'
 00108C 4590 620E            0122E  7435             +
 001090 4D90 6162            01182  7436    1175.              LCALL CHKOK
 001094 4770 7036            00086  7438    1176.              BNZ   REQABORT
 001098 41F0 0004            00004  7439    1177.              CLPSERV UIOFSET,SETJES,SETOFF
 00109C 4110 0004            00004  7453             +
 0010A0 4100 004C/0AED       0004C  7460             +
 0010A6 07F7                        7462    1178.              BR    BR
-
                                    7464    1180.     *
                                    7465    1181.     * SET JES READER AVAILABLE
                                    7466    1182.     *
 0010A8 4D90 7054            000A4  7467    1183.     SETVJES  SYSONLY ,
 0010AC 4110 07D0            007D0  7470    1184.              SEG   'JES reader'
 0010B0 4590 620E            0122E  7472             +
 0010B4 4110 07A8            007A8  7473    1185.              SEG   ' access will be allowed'
 0010B8 4590 620E            0122E  7475             +
 0010BC 4D90 6162            01182  7476    1186.              LCALL CHKOK
 0010C0 4770 7036            00086  7478    1187.              BNZ   REQABORT
 0010C4 41F0 0000            00000  7479    1188.              CLPSERV UIOFSET,SETJES,SETON
 0010C8 4110 0004            00004  7493             +
 0010CC 4100 004C/0AED       0004C  7500             +
 0010D2 07F7                        7502    1189.              BR    BR
1VSSV     (VSSV07) (09:49) (22MAR04) Internal SET Commands                                                                  Page   63
0Current Usings:  (BASE2,R6) (BASE,R7) (WA,R8) (CLW,R10)
0Loc    Object Code    Addr1 Addr2  Stmt Lv Lineno    Source Statement           (Hibal 5, Asmedit 3.3)  HLASM R4.0  2004/03/22 09.49
+___    ______ ____    _____ _____  ____ __ ______    ______ _________
0000000                00000 00008  7504    1191.     REFRESH  RECORD BEGIN
 000000                             7512  1 1192.     REFNAME    DS    CL8                     Name of program for refresh
 000008                00008 00008  7513    1193.              END   ,
00010D4 4D90 7054            000A4  7523    1195.     SETREFRE SYSONLY ,
 AUSING (REFRESH,CLWTEMP)           7526    1196.              WITH  (REFRESH,CLWTEMP)
 0010D8 1B11/41F0 A2C4       002C4  7533    1197.              SCAN  ,CLWKWCB
 0010DE 58E0 62AC/0DEE       012CC  7547             +
 0010E4 47D0 7020            00070  7549    1198.              BNP   SCRET                   No good parm
 0010E8 5900 631C            0133C  7550    1199.              IF    (R0,GT,8),ILLSTR
 0010EC 4720 7026            00076  7564             +
 0010F0 D207 A2E8 A2C8 00000 002C8  7570    1200.              MVC   REFNAME,CLWKWKW         Save shared pgm name
                                    7571    1201.     *
                                    7572    1202.     *  Verify that this is what the user wants
                                    7573    1203.     *
 0010F6 4110 07DB            007DB  7574    1204.              SEG   'Shared program '
 0010FA 4590 620E            0122E  7576             +
 0010FE 4110 A2E8            00000  7577    1205.              VSEG  REFNAME
 001102 4100 0008            00008  7591             +
 001106 5890 6288/0D99       012A8  7594             +
 00110C 4110 07EB            007EB  7596    1206.              SEG   ' will be refreshed '
 001110 4590 620E            0122E  7598             +
 001114 4D90 6162            01182  7599    1207.              LCALL CHKOK                   Check it out dude!
 001118 4770 7036            00086  7601    1208.              IF    NZ,REQABORT             chicken
                                    7615    1209.     *
                                    7616    1210.     *  Get SPB loading enqueue
                                    7617    1211.     *
 00111C 4110 6349            01369  7618    1212.              SETMSG 'SPB LOADING STUFF'
 001120 4100 0011            00011  7621             +
 001124 4D90 6152/0C24       01172  7622    1213.              FSCALL ENQ
                                    7626    1214.     *
                                    7627    1215.     *  Refresh SPB entry
                                    7628    1216.     *
 00112A 4110 A2E8            00000  7629    1217.              CLPSERV REFSPB,LA:REFNAME
 00112E 4100 0070/0AED       00070  7641             +
 001134 182F                        7643    1218.              LR    SR,R15
                                    7644    1219.     *
                                    7645    1220.     *  Release enqueue
                                    7646    1221.     *
 001136 4D90 6152/0C28       01172  7647    1222.              FSCALL DEQ
                                    7651    1223.     *
                                    7652    1224.     *  All done.
                                    7653    1225.     *
 00113C 4110 07FF            007FF  7654    1226.              SEG   'Refresh of '
 001140 4590 620E            0122E  7656             +
 001144 4110 A2E8            00000  7657    1227.              VSEG  REFNAME
 001148 4100 0008            00008  7671             +
 00114C 5890 6288/0D99       012A8  7674             +
 001152 1222/4770 6140       01160  7676    1228.              IF    (SR,ZERO),BEGIN
 001158 4110 080B            0080B  7690  1 1229.                SEG   ' completed.'
 00115C 4590 620E            0122E  7692  1          +
 001160 6144           01160 01156  7693    1230.              END   ELSE,BEGIN
 001160 47F0 614C            0116C  7702             +
 001164 4110 0817            00817  7708  1 1231.                SEG   ' failed.'
1VSSV     (VSSV07) (09:49) (22MAR04) Internal SET Commands                                                                  Page   64
0Current Usings:  (BASE2,R6) (BASE,R7) (WA,R8) (CLW,R10)
0Loc    Object Code    Addr1 Addr2  Stmt Lv Lineno    Source Statement           (Hibal 5, Asmedit 3.3)  HLASM R4.0  2004/03/22 09.49
+___    ______ ____    _____ _____  ____ __ ______    ______ _________
0001168 4590 620E            0122E  7710  1          +
 00116C                             7711    1232.              END   ,
 00116C 4D90 7180            001D0  7715    1233.              LCALL WRITE
 001170 07F7                        7717    1234.              BR    BR
                                    7718    1235.     *
                                    7719    1236.     *
                                    7720    1237.     *
 001172 9029 D000/188D       00000  7721    1238.              FSCALL GOSUB
 001178 41D0 D020            00020  7726             +
 00117C 5860 6320/07F6       01340  7727             +
1VSSV     (VSSV07) (09:49) (22MAR04) Internal SET Commands                                                                  Page   65
0Current Usings:  (BASE2,R6) (BASE,R7) (WA,R8) (CLW,R10)
0Loc    Object Code    Addr1 Addr2  Stmt Lv Lineno    Source Statement           (Hibal 5, Asmedit 3.3)  HLASM R4.0  2004/03/22 09.49
+___    ______ ____    _____ _____  ____ __ ______    ______ _________
0                                   7730    1240.     *
                                    7731    1241.     *  VERIFY USER REQUEST TO ENABLE/DISABLE SOME FUNCTION
                                    7732    1242.     *
 001182 5090 D000            00000  7733    1243.     CHKOK    VPUSH RAR,,*
 001186 41D0 D004            00004  7735             +
 00118A 5890 6324/0D99       01344  7736    1244.              VMARK ,
 001190 4110 0820            00820  7741    1245.              SEG   'Ok'
 001194 4590 620E            0122E  7743             +
 001198 5890 6328/0D99       01348  7744    1246.              VREAD ,
 00119E 4770 619A            011BA  7749    1247.              BNZ   CKABORT
 0011A2 41F0 A2C4            002C4  7750    1248.              SCINIT (1),(0),CLWKWCB
 0011A6 58E0 632C/0DEE       0134C  7770             +
 0011AC 4110 61AE            011CE  7772    1249.              SCAN  CKTBL,CLWKWCB           SCAN FOR ANSWER
 0011B0 41F0 A2C4            002C4  7786             +
 0011B4 58E0 62AC/0DEE       012CC  7789             +
 0011BA 18F9                        7791    1250.     CKABORT  LR    R15,RAR                 FOR RETURN CODE
 0011BC 47F0 61A2            011C2  7792    1251.              B     CKEXIT
                                    7793    1252.
 0011C0 1BFF                        7794    1253.     CKOK     SR    R15,R15                 FOR RETURN CODE
                                    7795    1254.
 0011C2 4BD0 6330            01350  7796    1255.     CKEXIT   VPOP  RAR,,*
 0011C6 5890 D000            00000  7798             +
 0011CA 12FF                        7799    1256.              LTR   R15,R15                 SET CC
 0011CC 07F9                        7800    1257.              BR    RAR                     RETURN
                                    7801    1258.
 0011CE                             7802    1259.     CKTBL    SCKW  YES,CKOK
 0011CE 020011C0E8C5E2              7803             +
 0011D5 010011C0D6D2                7804    1260.              SCKW  OK,CKOK
 0011DB FF0011BA                    7806    1261.              SCKW  ,CKABORT
1VSSV     (VSSV07) (09:49) (22MAR04) Internal SET Commands                                                                  Page   66
0Current Usings:  (BASE2,R6) (BASE,R7) (WA,R8) (CLW,R10)
0Loc    Object Code    Addr1 Addr2  Stmt Lv Lineno    Source Statement           (Hibal 5, Asmedit 3.3)  HLASM R4.0  2004/03/22 09.49
+___    ______ ____    _____ _____  ____ __ ______    ______ _________
00011E0                             7809    1263.     SETNOPSC LABEL ,
 0011E0 4D90 7054            000A4  7811    1264.              SYSONLY ,
 0011E4 1B11/4100 0058       00058  7814    1265.              CLPSERV PSEUDO,0              RESET FLAG
 0011EA 0AED                        7826             +
 0011EC 07F7                        7827    1266.              BR    BR
1VSSV     (VSSV07) (09:49) (22MAR04) Internal SET Commands                                                                  Page   67
0Current Usings:  (BASE2,R6) (BASE,R7) (WA,R8) (CLW,R10)
0Loc    Object Code    Addr1 Addr2  Stmt Lv Lineno    Source Statement           (Hibal 5, Asmedit 3.3)  HLASM R4.0  2004/03/22 09.49
+___    ______ ____    _____ _____  ____ __ ______    ______ _________
0                                   7829    1268.     *  CONSTANTS
                                    7830    1269.     *
00011EE 9985818461A69989            7832    1271.     VMSGS    DC    CL16'read/write'
 0011FE 9985818440969593            7833    1272.              DC    CL16'read only'
 00120E 81939396A6858440            7834    1273.              DC    CL16'allowed'
 00121E 8293968392858440            7835    1274.              DC    CL16'blocked'
-
-00122E 5090 D000            00000  7837    1276.              GENMSGS
 001232 41D0 D004/1F00       00004  7841             +
 001238 4301 6372            01392  7846             +
 00123C 4111 6373            01393  7847             +
 001240 5890 6288/0D99       012A8  7863             +
 001246 4BD0 6330            01350  7866             +
 00124A 5890 D000/07F9       00000  7867             +
 001250 C79996A49740A297            7871                             =C'Group specified not valid for Orvyl file systems'
 001280 C79996A4974094A4            7872                             =C'Group must be specified (GG etc)'
 0012A0 00000000                    7873                             =V(TYPEIT)
 0012A4 00000000                    7874                             =V(VWRITE)
 0012A8 00000000                    7875                             =V(VSEG)
 0012AC 000003E8                    7876                             =A(1000)
 0012B0 00000000                    7877                             =V(BTR)
 0012B4 00000000                    7878                             =V(EVAL)
 0012B8 00000000                    7879                             =V(MVCOS)
 0012BC 00000000                    7880                             =V(BTDU)
 0012C0 00000000                    7881                             =V(BTX)
 0012C4 00000000                    7882                             =V(SEGSECS)
 0012C8 80000000                    7883                             =A(X'80000000')
 0012CC 00000000                    7884                             =V(SCAN)
 0012D0 02710000                    7885                             =A(10000*4096)
 0012D4 00000000                    7886                             =V(XTB)
 0012D8 7A408995A5819389            7887                             =C': invalid hex string'
 0012EC 00001BB8                    7888                             =A(VERSION)
 0012F0 00000002                    7889                             =A(2)
 0012F4 00000001                    7890                             =A(1)
 0012F8 0000002C                    7891                             =A(L'DSDDSN)
 0012FC 00000008                    7892                             =A(L'FSBNAME)
 001300 00000000                    7893                             =V(VERPATCH)
 001304 00000266                    7894                             =A(AMODE31)
 001308 00000272                    7895                             =A(AMODE24)
 00130C C396949481958440            7896                             =C'Command not yet implemented.'
 001328 00000180                    7897                             =A(384)
 00132C 0000011F                    7898                             =A(287)
 001330 00000064                    7899                             =A(100)
 001334 80000000                    7900                             =X'80000000'
 001338 00000000                    7901                             =V(RTRIM)
 00133C 00000008                    7902                             =A(8)
 001340 00000000                    7903                             =V(FSUB#COM)
 001344 00000000                    7904                             =V(VMARK)
 001348 00000000                    7905                             =V(VREAD)
1VSSV     (VSSV07) (09:49) (22MAR04) Internal SET Commands                                                                  Page   68
0Current Usings:  (BASE2,R6) (BASE,R7) (WA,R8) (CLW,R10)
0Loc    Object Code    Addr1 Addr2  Stmt Lv Lineno    Source Statement           (Hibal 5, Asmedit 3.3)  HLASM R4.0  2004/03/22 09.49
+___    ______ ____    _____ _____  ____ __ ______    ______ _________
000134C 00000000                    7906                             =V(SCINIT)
 001350 0004                        7907                             =Y(4)
 001352 0018                        7908                             =Y((14+1-(RAR)+16*((RAR)/(14+1))/((RAR)/(14+1)))*4)
 001354 0008                        7909                             =Y((R15+1-(R14)+16*((R14)/(R15+1))/((R14)/(R15+1)))*4)
 001356 C7C74BD6D9E5                7910                             =C'GG.ORV'
 00135C 0028                        7911                             =Y(MATFILCB-MAT)
 00135E 0008                        7912                             =Y(FILEFFSB-FILECB)
 001360 0300                        7913                             =Y(X'300')
 001362 C2D74BD6D9E5                7914                             =C'BP.ORV'
 001368 1C                          7915                             =PL1'1'
 001369 E2D7C240D3D6C1C4            7916                             =C'SPB LOADING STUFF'
-
-
 DROP   CLW,R10                     8169    1278.              DROP  ,
 DROP   WA,R8
 DROP   BASE,R7
 DROP   BASE2,R6
1VSSV     (VSSV07) (09:49) (22MAR04) Internal SET Commands                                                                  Page   69
0Loc    Object Code    Addr1 Addr2  Stmt Lv Lineno    Source Statement           (Hibal 5, Asmedit 3.3)  HLASM R4.0  2004/03/22 09.49
+___    ______ ____    _____ _____  ____ __ ______    ______ _________
0001BB8                01BB8 01BB8  8215    1280.              LTORG
                                    8220    1281.     *
 001BB8                01BB8 00108  8221    1282.     VERSION  CSECT
 001BB8 D59640D6D9E5E8D3            8225    1283.     VERSTEXT DC    CL235'No ORVYL version information available.'
 001CA3 4C6060604C4C4C40            8226    1284.              DC    C'<---<<< End of version info'
 001CC0                01CC0 00108  8227    1285.              END   .

1VSSV     (VSSV07) (09:49) (22MAR04) Ordinary Symbol and Literal Cross Reference                                            Page   70
-Symbol   Length   Value     Id    R Type   Defn References                                  HLASM R4.0  2004/03/22 09.49
0$$$@R10       1 00000000 FFFFFFF4     J     836 1127
 $$$@R11       1 00000000 FFFFFFF3     J     849 1140
 $$$@R12       1 00000000 FFFFFFF2     J     862 1153
 $$$@R2        1 00000000 FFFFFFFC     J     732 1023
 $$$@R3        1 00000000 FFFFFFFB     J     745 1036
 $$$@R4        1 00000000 FFFFFFFA     J     758 1049
 $$$@R5        1 00000000 FFFFFFF9     J     771 1062
 $$$@R6        1 00000000 FFFFFFF8     J     784 1075
 $$$@R7        1 00000000 FFFFFFF7     J     797 1088
 $$$@R8        1 00000000 FFFFFFF6     J     810 1101
 $$$@R9        1 00000000 FFFFFFF5     J     823 1114
 $$$C1VSSV
               1 00001392 00000001     J    7917 7919
 $$$C2VSSV
               1 00001BB8 00000001     J    8217 8219
 $$$C3VERSION
               1 00001CC0 00000013     J    8230 8232
 $$$D0VSSV
               1 0000137A 00000001     J     992 4613  4747  4804  5228
 $$$RCLW       1 00000000 FFFFFFED     J    1566 1873  1873
 $$$RFILECB
               1 00000000 FFFFFFE8     J    2215 2357  2357
 $$$RFILEDSD
               1 00000000 FFFFFFE6     J    2643 2664  2664
 $$$RFSB       1 00000000 FFFFFFE7     J    2364 2636  2636
 $$$RMAT       1 00000000 FFFFFFE9     J    2145 2204  2204
 $$$RREFRESH
               1 00000000 FFFFFFE4     J    7506 7519  7519
 $$$RSCP       1 00000000 FFFFFFEE     J    1221 1550  1550
 $$$RSLDUMMY
               1 00000000 FFFFFFEA     J    2116 2132  2132
 $$$RSPB       1 00000000 FFFFFFEC     J    1886 1973  1973
 $$$RSSB       1 00000000 FFFFFFEB     J    1984 2005  2005
 $$$0B         1 00000022 00000001     X    2818 2825U
 $$$11F        2 00000374 00000001     H    3712 3681B 3696B
 $$$13F        2 00000438 00000001     H    3937 3723B
 $$$14F        2 00000434 00000001     H    3931 3908B
 $$$17F        2 0000048C 00000001     H    4024 3997B
 $$$2F         2 00000044 00000001     H    2888 2873B
 $$$20F        2 000005A8 00000001     H    4322 4190B
 $$$20S        2 0000052C 00000001     H    4177 4321B
 $$$25B        4 000005E2 00000001     I    4439 4766
 $$$25F        2 000006A4 00000001     H    4763 4439B 4765
 $$$26F        2 00000628 00000001     H    4532 4515B
 $$$26S        2 0000061A 00000001     H    4503 4528B
 $$$30F        2 00000640 00000001     H    4587 4570B
 $$$30S        2 00000632 00000001     H    4558 4583B
 $$$34         6 0000137A 00000001     I    4619 4611X
 $$$35         6 0000137A 00000001     I    4618 4619  4619
 $$$36F        2 0000067C 00000001     H    4665 4647B
 $$$36S        2 0000066C 00000001     H    4635 4661B
 $$$39B        4 0000067E 00000001     I    4676 4714
 $$$39F        2 00000690 00000001     H    4710 4676B 4713
 $$$40F        2 00000690 00000001     H    4706 4693B
 $$$41E        2 00000694 00000001     H    4721 4715
1VSSV     (VSSV07) (09:49) (22MAR04) Ordinary Symbol and Literal Cross Reference                                            Page   71
 $$$41F        2 0000069E 00000001     H    4740 4717B 4730B
 $$$43         6 00001380 00000001     I    4753 4745X
 $$$44         6 00001380 00000001     I    4752 4753  4753
 $$$45E        2 000006A8 00000001     H    4773 4767
 $$$45F        2 000006C2 00000001     H    4820 4769B
 $$$47         6 00001386 00000001     I    4810 4802X
 $$$48         6 00001386 00000001     I    4809 4810  4810
 $$$49F        2 000006E2 00000001     H    4860 4842B
 $$$49S        2 000006D2 00000001     H    4830 4856B
 $$$5F         2 0000015E 00000001     H    3184 3173B
 $$$56F        2 000007B2 00000001     H    5122 5104B
 $$$56S        2 000007A2 00000001     H    5092 5118B
 $$$6F         2 00000328 00000001     H    3563 3552B
 $$$60         6 0000138C 00000001     I    5234 5226X
 $$$61         6 0000138C 00000001     I    5233 5234  5234
 $$$62F        2 0000088A 00000001     H    5423 5412B
 $$$62S        2 00000862 00000001     H    5349 5422B
 $$$68F        2 00000B68 00000001     H    6020 6007B
 $$$7F         2 00000442 00000001     H    3958 3611B
 $$$7S         2 0000032E 00000001     H    3574 3955B
 $$$70F        2 00000C3E 00000001     H    6264 6253B
 $$$71F        2 00000D36 00000001     H    6572 6285B
 $$$71S        2 00000C50 00000001     H    6279 6571B
 $$$73F        2 00000C9E 00000001     H    6379 6369B
 $$$74F        2 00000CCA 00000001     H    6433 6407B
 $$$75F        2 00000D0E 00000001     H    6527 6515B
 $$$76F        2 00000D1E 00000001     H    6550 6538B
 $$$77F        2 00000E04 00000001     H    6860 6622B
 $$$77S        2 00000D58 00000001     H    6616 6859B
 $$$79F        2 00000DFC 00000001     H    6849 6650B
 $$$80B        4 00000D78 00000001     I    6699 6713
 $$$80F        2 00000D84 00000001     H    6710 6699B 6712
 $$$81E        2 00000D88 00000001     H    6720 6714
 $$$81F        2 00000D90 00000001     H    6728 6716B
 $$$82F        2 00000DFC 00000001     H    6840 6765B
 $$$82S        2 00000DB0 00000001     H    6759 6839B
 $$$84F        2 00000E5A 00000001     H    6978 6968B
 $$$88B        4 00001154 00000001     I    7685 7699
 $$$88F        2 00001160 00000001     H    7696 7685B 7698
 $$$89E        2 00001164 00000001     H    7706 7700
 $$$89F        2 0000116C 00000001     H    7714 7702B
 $$$9F         2 0000035C 00000001     H    3667 3636B 3651B
 #VSSVA1M      1 00001392 00000001     R    7923 2963
 #VSSVA1T     16 00001393 00000001     C    7924 7923
 #VSSVA2M      1 000013A3 00000001     R    7925 2968
 #VSSVA2T     15 000013A4 00000001     C    7926 7925
 #VSSVA3M      1 000013B3 00000001     R    7927 2992
 #VSSVA3T     39 000013B4 00000001     C    7928 7927
 #VSSVA4M      1 000013DB 00000001     R    7929 3034
 #VSSVA4T     13 000013DC 00000001     C    7930 7929
 #VSSVA5M      1 000013E9 00000001     R    7931 3039
 #VSSVA5T     15 000013EA 00000001     C    7932 7931
 #VSSVA6M      1 000013F9 00000001     R    7933 3044
 #VSSVA6T     12 000013FA 00000001     C    7934 7933
 #VSSVA7M      1 00001406 00000001     R    7935 3049
 #VSSVA7T     15 00001407 00000001     C    7936 7935
 #VSSVA8M      1 00001416 00000001     R    7937 3072
 #VSSVA8T      9 00001417 00000001     C    7938 7937
 #VSSVA9M      1 00001420 00000001     R    7939 3221
1VSSV     (VSSV07) (09:49) (22MAR04) Ordinary Symbol and Literal Cross Reference                                            Page   72
 #VSSVA9T      1 00001421 00000001     C    7940 7939
 #VSSVB0M      1 00001422 00000001     R    7941 3249
 #VSSVB0T      1 00001423 00000001     C    7942 7941
 #VSSVB1M      1 00001424 00000001     R    7943 3536
 #VSSVB1T     36 00001425 00000001     C    7944 7943
 #VSSVB2M      1 00001449 00000001     R    7945 3539
 #VSSVB2T     29 0000144A 00000001     C    7946 7945
 #VSSVB3M      1 00001467 00000001     R    7947 3558
 #VSSVB3T     11 00001468 00000001     C    7948 7947
 #VSSVB4M      1 00001473 00000001     R    7949 3730
 #VSSVB4T      4 00001474 00000001     C    7950 7949
 #VSSVB5M      1 00001478 00000001     R    7951 3748  7959  7960  8087  8088  8089  8104
 #VSSVB5T      2 00001479 00000001     C    7952 7951
 #VSSVB6M      1 0000147B 00000001     R    7953 3770
 #VSSVB6T      1 0000147C 00000001     C    7954 7953
 #VSSVB7M      1 0000147D 00000001     R    7955 3791
 #VSSVB7T      6 0000147E 00000001     C    7956 7955
 #VSSVB8M      1 00001484 00000001     R    7957 3813
 #VSSVB8T      4 00001485 00000001     C    7958 7957
 #VSSVB9M      1 00001478 00000001     U    7959 3832
 #VSSVC0M      1 00001478 00000001     U    7960 3876
 #VSSVC1M      1 00001489 00000001     R    7961 3894
 #VSSVC1T      3 0000148A 00000001     C    7962 7961
 #VSSVC2M      1 0000148D 00000001     R    7963 4043
 #VSSVC2T     25 0000148E 00000001     C    7964 7963
 #VSSVC3M      1 000014A7 00000001     R    7965 4048
 #VSSVC3T     43 000014A8 00000001     C    7966 7965
 #VSSVC4M      1 000014D3 00000001     R    7967 4053
 #VSSVC4T     49 000014D4 00000001     C    7968 7967
 #VSSVC5M      1 00001505 00000001     R    7969 4058
 #VSSVC5T     50 00001506 00000001     C    7970 7969
 #VSSVC6M      1 00001538 00000001     R    7971 4061
 #VSSVC6T     20 00001539 00000001     C    7972 7971
 #VSSVC7M      1 0000154D 00000001     R    7973 4166
 #VSSVC7T     48 0000154E 00000001     C    7974 7973
 #VSSVC8M      1 0000157E 00000001     R    7975 4169
 #VSSVC8T     31 0000157F 00000001     C    7976 7975
 #VSSVC9M      1 0000159E 00000001     R    7977 4241  7979  7980  7981  8073  8076  8102  8103  8107
 #VSSVC9T      1 0000159F 00000001     C    7978 7977
 #VSSVD0M      1 0000159E 00000001     U    7979 4262
 #VSSVD1M      1 0000159E 00000001     U    7980 4280
 #VSSVD2M      1 0000159E 00000001     U    7981 4298
 #VSSVD3M      1 000015A0 00000001     R    7982 4475
 #VSSVD3T      5 000015A1 00000001     C    7983 7982
 #VSSVD4M      1 000015A6 00000001     R    7984 4822
 #VSSVD4T      5 000015A7 00000001     C    7985 7984
 #VSSVD5M      1 000015AC 00000001     R    7986 4880
 #VSSVD5T      5 000015AD 00000001     C    7987 7986
 #VSSVD6M      1 000015B2 00000001     R    7988 4901  7994
 #VSSVD6T      3 000015B3 00000001     C    7989 7988
 #VSSVD7M      1 000015B6 00000001     R    7990 5084
 #VSSVD7T      8 000015B7 00000001     C    7991 7990
 #VSSVD8M      1 000015BF 00000001     R    7992 5142
 #VSSVD8T      7 000015C0 00000001     C    7993 7992
 #VSSVD9M      1 000015B2 00000001     U    7994 5163
 #VSSVE0M      1 000015C7 00000001     R    7995 5435
 #VSSVE0T     21 000015C8 00000001     C    7996 7995
 #VSSVE1M      1 000015DD 00000001     R    7997 5444
 #VSSVE1T     33 000015DE 00000001     C    7998 7997
1VSSV     (VSSV07) (09:49) (22MAR04) Ordinary Symbol and Literal Cross Reference                                            Page   73
 #VSSVE2M      1 000015FF 00000001     R    7999 5449
 #VSSVE2T     41 00001600 00000001     C    8000 7999
 #VSSVE3M      1 00001629 00000001     R    8001 5452
 #VSSVE3T     31 0000162A 00000001     C    8002 8001
 #VSSVE4M      1 00001649 00000001     R    8003 5457
 #VSSVE4T     44 0000164A 00000001     C    8004 8003
 #VSSVE5M      1 00001676 00000001     R    8005 5460
 #VSSVE5T     34 00001677 00000001     C    8006 8005
 #VSSVE6M      1 00001699 00000001     R    8007 5465
 #VSSVE6T     48 0000169A 00000001     C    8008 8007
 #VSSVE7M      1 000016CA 00000001     R    8009 5468
 #VSSVE7T     31 000016CB 00000001     C    8010 8009
 #VSSVE8M      1 000016EA 00000001     R    8011 5479
 #VSSVE8T     20 000016EB 00000001     C    8012 8011
 #VSSVE9M      1 000016FF 00000001     R    8013 5486
 #VSSVE9T     40 00001700 00000001     C    8014 8013
 #VSSVF0M      1 00001728 00000001     R    8015 5495
 #VSSVF0T     12 00001729 00000001     C    8016 8015
 #VSSVF1M      1 00001735 00000001     R    8017 5502
 #VSSVF1T     14 00001736 00000001     C    8018 8017
 #VSSVF2M      1 00001744 00000001     R    8019 5513
 #VSSVF2T     16 00001745 00000001     C    8020 8019
 #VSSVF3M      1 00001755 00000001     R    8021 5520
 #VSSVF3T     27 00001756 00000001     C    8022 8021
 #VSSVF4M      1 00001771 00000001     R    8023 5527
 #VSSVF4T     10 00001772 00000001     C    8024 8023
 #VSSVF5M      1 0000177C 00000001     R    8025 5534
 #VSSVF5T     18 0000177D 00000001     C    8026 8025
 #VSSVF6M      1 0000178F 00000001     R    8027 5541
 #VSSVF6T     19 00001790 00000001     C    8028 8027
 #VSSVF7M      1 000017A3 00000001     R    8029 5548
 #VSSVF7T     26 000017A4 00000001     C    8030 8029
 #VSSVF8M      1 000017BE 00000001     R    8031 5555
 #VSSVF8T     34 000017BF 00000001     C    8032 8031
 #VSSVF9M      1 000017E1 00000001     R    8033 5562
 #VSSVF9T     26 000017E2 00000001     C    8034 8033
 #VSSVG0M      1 000017FC 00000001     R    8035 5586
 #VSSVG0T     14 000017FD 00000001     C    8036 8035
 #VSSVG1M      1 0000180B 00000001     R    8037 5592
 #VSSVG1T     31 0000180C 00000001     C    8038 8037
 #VSSVG2M      1 0000182B 00000001     R    8039 5597
 #VSSVG2T     42 0000182C 00000001     C    8040 8039
 #VSSVG3M      1 00001856 00000001     R    8041 5603
 #VSSVG3T     21 00001857 00000001     C    8042 8041
 #VSSVG4M      1 0000186C 00000001     R    8043 5725
 #VSSVG4T     24 0000186D 00000001     C    8044 8043
 #VSSVG5M      1 00001885 00000001     R    8045 5733
 #VSSVG5T     40 00001886 00000001     C    8046 8045
 #VSSVG6M      1 000018AE 00000001     R    8047 5736
 #VSSVG6T     14 000018AF 00000001     C    8048 8047
 #VSSVG7M      1 000018BD 00000001     R    8049 5757
 #VSSVG7T      8 000018BE 00000001     C    8050 8049
 #VSSVG8M      1 000018C6 00000001     R    8051 5762
 #VSSVG8T      2 000018C7 00000001     C    8052 8051
 #VSSVG9M      1 000018C9 00000001     R    8053 5767
 #VSSVG9T     33 000018CA 00000001     C    8054 8053
 #VSSVH0M      1 000018EB 00000001     R    8055 5770
 #VSSVH0T     19 000018EC 00000001     C    8056 8055
 #VSSVH1M      1 000018FF 00000001     R    8057 5806
1VSSV     (VSSV07) (09:49) (22MAR04) Ordinary Symbol and Literal Cross Reference                                            Page   74
 #VSSVH1T     18 00001900 00000001     C    8058 8057
 #VSSVH2M      1 00001912 00000001     R    8059 5824
 #VSSVH2T     10 00001913 00000001     C    8060 8059
 #VSSVH3M      1 0000191D 00000001     R    8061 5841
 #VSSVH3T     16 0000191E 00000001     C    8062 8061
 #VSSVH4M      1 0000192E 00000001     R    8063 5858
 #VSSVH4T      6 0000192F 00000001     C    8064 8063
 #VSSVH5M      1 00001935 00000001     R    8065 5941
 #VSSVH5T     16 00001936 00000001     C    8066 8065
 #VSSVH6M      1 00001946 00000001     R    8067 5961
 #VSSVH6T      8 00001947 00000001     C    8068 8067
 #VSSVH7M      1 0000194F 00000001     R    8069 6054
 #VSSVH7T     25 00001950 00000001     C    8070 8069
 #VSSVH8M      1 00001969 00000001     R    8071 6095
 #VSSVH8T     11 0000196A 00000001     C    8072 8071
 #VSSVH9M      1 0000159E 00000001     U    8073 6100
 #VSSVI0M      1 00001975 00000001     R    8074 6151
 #VSSVI0T     12 00001976 00000001     C    8075 8074
 #VSSVI1M      1 0000159E 00000001     U    8076 6156
 #VSSVI2M      1 00001982 00000001     R    8077 6203
 #VSSVI2T     13 00001983 00000001     C    8078 8077
 #VSSVI3M      1 00001990 00000001     R    8079 6241
 #VSSVI3T     32 00001991 00000001     C    8080 8079
 #VSSVI4M      1 000019B1 00000001     R    8081 6259
 #VSSVI4T     10 000019B2 00000001     C    8082 8081
 #VSSVI5M      1 000019BC 00000001     R    8083 6266
 #VSSVI5T      7 000019BD 00000001     C    8084 8083
 #VSSVI6M      1 000019C4 00000001     R    8085 6353
 #VSSVI6T      1 000019C5 00000001     C    8086 8085
 #VSSVI7M      1 00001478 00000001     U    8087 6356
 #VSSVI8M      1 00001478 00000001     U    8088 6395
 #VSSVI9M      1 00001478 00000001     U    8089 6428
 #VSSVJ0M      1 000019C6 00000001     R    8090 6467
 #VSSVJ0T      1 000019C7 00000001     C    8091 8090
 #VSSVJ1M      1 000019C8 00000001     R    8092 6502
 #VSSVJ1T      1 000019C9 00000001     C    8093 8092
 #VSSVJ2M      1 000019CA 00000001     R    8094 6522
 #VSSVJ2T     11 000019CB 00000001     C    8095 8094
 #VSSVJ3M      1 000019D6 00000001     R    8096 6545
 #VSSVJ3T      9 000019D7 00000001     C    8097 8096
 #VSSVJ4M      1 000019E0 00000001     R    8098 6599
 #VSSVJ4T     31 000019E1 00000001     C    8099 8098
 #VSSVJ5M      1 00001A00 00000001     R    8100 6705
 #VSSVJ5T      1 00001A01 00000001     C    8101 8100
 #VSSVJ6M      1 0000159E 00000001     U    8102 6723
 #VSSVJ7M      1 0000159E 00000001     U    8103 6730
 #VSSVJ8M      1 00001478 00000001     U    8104 6748
 #VSSVJ9M      1 00001A02 00000001     R    8105 6771
 #VSSVJ9T     16 00001A03 00000001     C    8106 8105
 #VSSVK0M      1 0000159E 00000001     U    8107 6791
 #VSSVK1M      1 00001A13 00000001     R    8108 7036
 #VSSVK1T     16 00001A14 00000001     C    8109 8108
 #VSSVK2M      1 00001A24 00000001     R    8110 7111
 #VSSVK2T     25 00001A25 00000001     C    8111 8110
 #VSSVK3M      1 00001A3E 00000001     R    8112 7118
 #VSSVK3T     37 00001A3F 00000001     C    8113 8112
 #VSSVK4M      1 00001A64 00000001     R    8114 7125
 #VSSVK4T      9 00001A65 00000001     C    8115 8114
 #VSSVK5M      1 00001A6E 00000001     R    8116 7131
1VSSV     (VSSV07) (09:49) (22MAR04) Ordinary Symbol and Literal Cross Reference                                            Page   75
 #VSSVK5T     23 00001A6F 00000001     C    8117 8116
 #VSSVK6M      1 00001A86 00000001     R    8118 7138
 #VSSVK6T     34 00001A87 00000001     C    8119 8118
 #VSSVK7M      1 00001AA9 00000001     R    8120 7145
 #VSSVK7T     21 00001AAA 00000001     C    8121 8120
 #VSSVK8M      1 00001ABF 00000001     R    8122 7152
 #VSSVK8T     17 00001AC0 00000001     C    8123 8122
 #VSSVK9M      1 00001AD1 00000001     R    8124 7159
 #VSSVK9T     16 00001AD2 00000001     C    8125 8124
 #VSSVL0M      1 00001AE2 00000001     R    8126 7166
 #VSSVL0T     22 00001AE3 00000001     C    8127 8126
 #VSSVL1M      1 00001AF9 00000001     R    8128 7173
 #VSSVL1T     14 00001AFA 00000001     C    8129 8128
 #VSSVL2M      1 00001B08 00000001     R    8130 7180
 #VSSVL2T     15 00001B09 00000001     C    8131 8130
 #VSSVL3M      1 00001B18 00000001     R    8132 7191  8136
 #VSSVL3T      9 00001B19 00000001     C    8133 8132
 #VSSVL4M      1 00001B22 00000001     R    8134 7194  8141  8146  8151
 #VSSVL4T     23 00001B23 00000001     C    8135 8134
 #VSSVL5M      1 00001B18 00000001     U    8136 7231
 #VSSVL6M      1 00001B3A 00000001     R    8137 7234  8143  8148  8153
 #VSSVL6T     23 00001B3B 00000001     C    8138 8137
 #VSSVL7M      1 00001B52 00000001     R    8139 7271  8142
 #VSSVL7T      7 00001B53 00000001     C    8140 8139
 #VSSVL8M      1 00001B22 00000001     U    8141 7274
 #VSSVL9M      1 00001B52 00000001     U    8142 7311
 #VSSVM0M      1 00001B3A 00000001     U    8143 7314
 #VSSVM1M      1 00001B5A 00000001     R    8144 7351  8147
 #VSSVM1T      7 00001B5B 00000001     C    8145 8144
 #VSSVM2M      1 00001B22 00000001     U    8146 7354
 #VSSVM3M      1 00001B5A 00000001     U    8147 7391
 #VSSVM4M      1 00001B3A 00000001     U    8148 7394
 #VSSVM5M      1 00001B62 00000001     R    8149 7431  8152
 #VSSVM5T     10 00001B63 00000001     C    8150 8149
 #VSSVM6M      1 00001B22 00000001     U    8151 7434
 #VSSVM7M      1 00001B62 00000001     U    8152 7471
 #VSSVM8M      1 00001B3A 00000001     U    8153 7474
 #VSSVM9M      1 00001B6D 00000001     R    8154 7575
 #VSSVM9T     15 00001B6E 00000001     C    8155 8154
 #VSSVN0M      1 00001B7D 00000001     R    8156 7597
 #VSSVN0T     19 00001B7E 00000001     C    8157 8156
 #VSSVN1M      1 00001B91 00000001     R    8158 7655
 #VSSVN1T     11 00001B92 00000001     C    8159 8158
 #VSSVN2M      1 00001B9D 00000001     R    8160 7691
 #VSSVN2T     11 00001B9E 00000001     C    8161 8160
 #VSSVN3M      1 00001BA9 00000001     R    8162 7709
 #VSSVN3T      8 00001BAA 00000001     C    8163 8162
 #VSSVN4M      1 00001BB2 00000001     R    8164 7742
 #VSSVN4T      2 00001BB3 00000001     C    8165 8164
 @R0           0 00000000 FFFFFFFE     @     707  983U
 @R1           0 00000000 FFFFFFFD     @     720  979U 4154  4407  4809  5022  5233  6021  6902U
 @R10          0 00000000 FFFFFFF4     @     837  943U 8183U
 @R11          0 00000000 FFFFFFF3     @     850  939U
 @R12          0 00000000 FFFFFFF2     @     863  935U
 @R13          0 00000000 FFFFFFF1     @     876  931U
 @R14          0 00000000 FFFFFFF0     @     889  927U 3311  4512  4567  4605  4644  4752  4839  5101
 @R15          0 00000000 FFFFFFEF     @     902  923U 5719M 5953U
 @R2           0 00000000 FFFFFFFC     @     733  975U 2895U 6568U 6846U
 @R3           0 00000000 FFFFFFFB     @     746  971U 6856U
1VSSV     (VSSV07) (09:49) (22MAR04) Ordinary Symbol and Literal Cross Reference                                            Page   76
 @R4           0 00000000 FFFFFFFA     @     759  967U
 @R5           0 00000000 FFFFFFF9     @     772  963U
 @R6           0 00000000 FFFFFFF8     @     785  959U 8200U
 @R7           0 00000000 FFFFFFF7     @     798  955U 2915U 8195U
 @R8           0 00000000 FFFFFFF6     @     811  951U 8190U
 @R9           0 00000000 FFFFFFF5     @     824  947U
 @SR           0 00000000 FFFFFFFC     @    1024 3021
 @TR           0 00000000 FFFFFFFB     @    1037 4618  4752M
 AMODE24       4 00000272 00000001     I    3461 2928B 7895
 AMODE31       4 00000266 00000001     I    3452 7894
 AREA          8 00000028 FFFFFFE5     D    2709 2716  2739  2747  2747  2749  2757  2764
 A24GO         2 00000278 00000001     I    3464 3461
 A31GO         2 00000270 00000001     I    3456 3452
 BASE          1 00000050 00000001     U    2920 2918U
 BASE2         1 00001020 00000001     U    2827 2828  2836U
 BL            2 00000002 FFFFFFE7 A   N    2387 2389  2389
 BR            7 00000007 00000001 A   #    1082 2907M 2918U 3096B 3123B 3297B 3961B 4067B 4093B 4323B 5610B 5713B 5863B
                                                 5985B 6207B 6577B 6866B 6904B 6928B 7222B 7262B 7302B 7342B 7382B 7422B
                                                 7462B 7502B 7717B 7827B
 BRR           6 00000006 00000001 A   #    1069 2828M 2836U 7727M 7728B
 BTDU          1 00000000 00000008     T    7880 7880
 BTR           1 00000000 00000005     T    7877 7877
 BTX           1 00000000 00000009     T    7881 7881
 CHKOK         4 00001182 00000001     I    7734 4904B 5166B 7055B 7197B 7237B 7277B 7317B 7357B 7397B 7437B 7477B 7600B
 CKABORT       2 000011BA 00000001     I    7791 7749B 7807
 CKEXIT        4 000011C2 00000001     I    7797 7792B
 CKOK          2 000011C0 00000001     I    7794 7803  7805
 CKTBL         1 000011CE 00000001     R    7803 7779
 CLPSYSTM      4 00000016 00000001     I    2810 2808
 CLW        1560 00000000 FFFFFFED     J    1873 2794U
 CLWACCT       6 000003B0 FFFFFFED     C    1859 1860  1861  4364  4979  6973
 CLWFL         1 00000207 FFFFFFED     R    1590 1594  1599  1604
 CLWFLG        1 00000208 FFFFFFED     R    1610 1614  1619  1624  1629  1634  1639  1644
 CLWFOSC       8 00000208 FFFFFFED         1634 2937M
 CLWKWCB       4 000002C4 FFFFFFED     F    1835 1846  3529  4138  4391  4428  5006  5887  6990  7544  7767  7786
 CLWKWKW       8 000002C8 FFFFFFED     C    1837 3017  3018  3028  7016  7570
 CLWKWVAL      4 000002C4 FFFFFFED     A    1836 3972
 CLWMFL        1 0000020A FFFFFFED     R    1695 1699  1704  1709  1714  1719  1724  1729  1734
 CLWMONF       1 0000020B FFFFFFED     R    1740 1744  1749  1754  1759
 CLWNTRAP      1 00000008 FFFFFFED A   N    1817 1818
 CLWOBUF       2 00000118 FFFFFFED     H    1584 1586
 CLWPFL        1 00000209 FFFFFFED     R    1650 1654  1659  1664  1669  1674  1679  1684  1689
 CLWPFPRV      4 00000209 FFFFFFED         1679 2982
 CLWR         10 0000000A 00000001 A   #    1121 2794U
 CLWSCP        4 00000000 FFFFFFED     A    1573 2855  6874
 CLWSFL        1 0000020C FFFFFFED     R    1765 1769  1774
 CLWSSP       64 0000020C FFFFFFED         1774 6252  6406
 CLWTEMP       8 000002E8 FFFFFFED     D    1848 3203  3311M 3317  3328  3372  3419  3856  6128  6180  7016M 7026  7071
                                                 7531U
 CMDTABLE      2 0000027A 00000001     H    3470 2907B
 CTBITRCT      8 00000150 FFFFFFE7     D    2583 2593
 CTCACHCT      8 000001A0 FFFFFFE7     D    2612 2622
 CTCATRCT      8 00000148 FFFFFFE7     D    2582 2592
 CTIXRRCT      8 00000158 FFFFFFE7     D    2584 2594
 CTMASRCT      8 00000140 FFFFFFE7     D    2581 2591
 CTOTHRCT      8 00000168 FFFFFFE7     D    2586 2596
 CTR          12 0000000C 00000001 A   #    1147 2906M
 CTREADCT      8 00000140 FFFFFFE7     D    2580 2591  2592  2593  2594  2595  2596  2620  2625  2625  2626  2626
 CTUSERCT      8 00000160 FFFFFFE7     D    2585 2595
1VSSV     (VSSV07) (09:49) (22MAR04) Ordinary Symbol and Literal Cross Reference                                            Page   77
 CTWRITCT      8 00000170 FFFFFFE7     D    2600 2621
 DSDCNT        4 0000000C FFFFFFE6     A    2652 4287
 DSDDSN       44 00000020 FFFFFFE6     C    2657 4252  4259  4486  4493  4497  4497  4498  4795M 4796  4796M 4796  4809M
                                                 4824  4825  4861  4872  4913  5086  5087  5123  5134  7891
 DSDICNT       4 00000018 FFFFFFE6     A    2654 4305
 DSDNXT        4 00000000 FFFFFFE6     A    2649 4317
 DSDSTART      4 00000008 FFFFFFE6     A    2651 4269
 ERROR         2 0000010E 00000001     H    3091 2965B 2970B 2994B 3036B 3041B 3046B 3051B 3074B 3267B 7113B 7120B 7127B
                                                 7140B 7147B 7154B 7161B 7168B 7175B 7182B
 EVAL          1 00000000 00000006     T    7878 7878
 FILBFLAG      1 00000014 FFFFFFE8     R    2231 2235  2240
 FILECB      344 00000000 FFFFFFE8     J    2357 7912
 FILEDSD      76 00000000 FFFFFFE6     J    2664 2745  4118U 4210  4217  4351U 4459  4466  4966U 5068  5075
 FILEFFSB      4 00000008 FFFFFFE8     A    2223 7912
 FSB         480 00000000 FFFFFFE7     J    2636 4111U 4344U 4959U 5340U
 FSBAFLGS      1 00000009 FFFFFFE7     R    2404 2408  2413  2418  2423  2428  2433
 FSBBALST      1 000000AC FFFFFFE7     X    2516 2535
 FSBBID        4 00000000 FFFFFFE7     C    2396 2744
 FSBCHAIN      4 00000004 FFFFFFE7     A    2398 5418
 FSBFCACT      8 000001A0 FFFFFFE7     D    2611 2624  2624
 FSBFIOCT      8 00000140 FFFFFFE7     D    2579 2607  2607  2620  2621  2622
 FSBFRDB       4 0000000C FFFFFFE7     A    2477 4164  5044
 FSBLRDB       4 00000010 FFFFFFE7     A    2478 4444  5044  5053
 FSBNAME       8 00000018 FFFFFFE7     C    2480 5409  7892
 FSBOFLGS      1 0000000B FFFFFFE7     R    2459 2463  2468  2473
 FSBOWNER      6 00000020 FFFFFFE7     C    2481 2744
 FSBSFLGS      1 0000000A FFFFFFE7     R    2439 2443  2448  2453
 FSUB#COM      1 00000000 0000000F     T    7903 7903
 GOSUB         2 00001172 00000001     H    7722 7624B 7649B
 HIBAL         1 00000000 FFFFFFFF     J     692  708   721   734   747   760   773   786   799   812   825   838   851
                                                  864   877   890   903
 ILLSTR        2 00000076 00000001     H    2955 7010B 7564B
 KWRIFSPR      1 00000020 FFFFFFE5 A   U    2695 2872
 MAT         256 00000000 FFFFFFE9     J    2204 7911
 MATFILCB      4 00000028 FFFFFFE9     A    2165 7911
 MATPTR        4 00000200 FFFFFFE9 A   A    2151 5269
 MISSING       4 000000EE 00000001     I    3049 2946B
 MSGEXIT       2 0000011E 00000001     H    3111 4020B 5992B 6016B 6044B
 MVCOS         1 00000000 00000007     T    7879 7879
 OL            2 00000002 FFFFFFE7 A   N    2388 2389  2389
 PRIVCMD       2 000000AA 00000001     H    3016 6974B
 PRIVGOT       2 000000C0 00000001     H    3027 3022B
 PRIVLOOK      2 000000B2 00000001     H    3020 3025B
 RAR           9 00000009 00000001 A   #    1108 2673  2673  2673  2810  2928M 2941M 2961M 2964M 2969M 2985B 2993M 3009B
                                                 3035M 3040M 3045M 3050M 3070M 3073M 3089M 3094M 3095M 3095B 3117M 3121M
                                                 3122M 3122B 3126  3143M 3144M 3144B 3147M 3148B 3155  3157  3157  3157
                                                 3219M 3222M 3225M 3226B 3233  3235  3235  3235  3247M 3250M 3253M 3254B
                                                 3257  3259  3259  3259  3262M 3263M 3263B 3266M 3268B 3271  3286M 3290
                                                 3295M 3296M 3296B 3300M 3301B 3304  3309M 3310M 3310B 3346M 3349M 3350B
                                                 3353  3354  3354  3354  3392M 3393M 3393B 3396M 3397B 3400  3401  3401
                                                 3401  3439M 3440M 3440B 3443M 3444B 3456B 3464B 3537M 3540M 3559M 3565M
                                                 3731M 3746M 3749M 3768M 3771M 3789M 3792M 3811M 3814M 3830M 3833M 3874M
                                                 3877M 3892M 3895M 3927M 3933M 4015M 4041M 4044M 4046M 4049M 4051M 4054M
                                                 4056M 4059M 4062M 4064M 4066M 4089M 4091M 4167M 4170M 4172M 4239M 4242M
                                                 4260M 4263M 4278M 4281M 4296M 4299M 4314M 4316M 4476M 4494M 4496M 4823M
                                                 4878M 4881M 4899M 4902M 4904M 5085M 5140M 5143M 5161M 5164M 5166M 5433M
                                                 5436M 5442M 5445M 5447M 5450M 5453M 5455M 5458M 5461M 5463M 5466M 5469M
                                                 5471M 5477M 5480M 5484M 5487M 5489M 5496M 5503M 5514M 5521M 5528M 5535M
                                                 5542M 5549M 5556M 5563M 5581M 5587M 5593M 5595M 5598M 5604M 5609M 5630M
1VSSV     (VSSV07) (09:49) (22MAR04) Ordinary Symbol and Literal Cross Reference                                            Page   78
                                                 5633M 5666M 5667M 5667B 5711M 5712M 5712B 5716M 5717M 5717B 5722M 5723M
                                                 5723B 5726M 5728M 5734M 5737M 5755M 5758M 5763M 5768M 5771M 5785M 5789M
                                                 5807M 5822M 5825M 5839M 5842M 5856M 5859M 5861M 5939M 5942M 5959M 5962M
                                                 5980M 5982M 5984M 6055M 6057M 6093M 6096M 6098M 6101M 6148M 6149M 6149B
                                                 6152M 6154M 6157M 6200M 6201M 6201B 6204M 6206M 6234B 6242M 6260M 6267M
                                                 6269M 6272M 6273M 6273B 6320M 6335M 6351M 6354M 6357M 6393M 6396M 6426M
                                                 6429M 6465M 6468M 6500M 6503M 6523M 6546M 6554M 6555M 6555B 6557M 6560M
                                                 6561M 6561B 6575M 6576M 6576B 6600M 6603M 6609M 6610M 6610B 6688M 6706M
                                                 6724M 6731M 6746M 6749M 6772M 6789M 6792M 6823M 6826M 6827M 6827B 6829M
                                                 6832M 6833M 6833B 6863M 6864M 6864B 6873M 6911M 7034M 7037M 7053M 7055M
                                                 7112M 7119M 7126M 7132M 7139M 7146M 7153M 7160M 7167M 7174M 7181M 7189M
                                                 7192M 7195M 7197M 7229M 7232M 7235M 7237M 7269M 7272M 7275M 7277M 7309M
                                                 7312M 7315M 7317M 7349M 7352M 7355M 7357M 7389M 7392M 7395M 7397M 7429M
                                                 7432M 7435M 7437M 7469M 7472M 7475M 7477M 7525M 7576M 7594M 7595M 7595B
                                                 7598M 7600M 7624M 7649M 7656M 7674M 7675M 7675B 7692M 7710M 7716M 7724
                                                 7726  7726  7726  7734  7739M 7740M 7740B 7743M 7747M 7748M 7748B 7791
                                                 7798M 7800B 7813M 7840  7863M 7864M 7864B 7867M 7868B 7908  7908  7908
 REFNAME       8 00000000 FFFFFFE4     C    7512 7570M 7586  7591  7634  7666  7671
 REFRESH       8 00000000 FFFFFFE4     J    7519 7531U
 REQABORT      4 00000086 00000001     I    2968 4905B 5167B 7056B 7198B 7238B 7278B 7318B 7358B 7398B 7438B 7478B 7609B
 RR            5 00000005 00000001 A   #    1056 4163M 4416M 4553M 4588  4692  5031M 5428B
 RTRIM         1 00000000 0000000E     T    7901 7901
 R0            0 00000000 FFFFFFFF A   #     700 2945M 2945  3029M 3178  3767M 3788M 3810M 3985  4014M 4019M 4088M 4259M
                                                 4493M 4786  4797  4877M 4898M 5139M 5160M 5210  5221  5580M 5679  5699
                                                 5708  5741  5979M 5991M 6006  6015M 6043M 6083  6319M 6449M 6484M 6687M
                                                 6807M 7007  7033M 7041M 7561  7621M 7846M
 R1            1 00000001 FFFFFFFF A   #     713 2906  3028M 3172M 3172  3180  3760M 3781M 3803M 3986  4009M 4018M 4081M
                                                 4252M 4486M 4872M 4891M 5134M 5153M 5573M 5643  5802  5972M 5990M 6014M
                                                 6042M 6077  6312M 6442M 6477M 6680M 6802M 6874M 6884U 7026M 7038M 7039M
                                                 7040M 7040  7620M 7847M
 R14          14 0000000E FFFFFFFF A   #     882 3161M 3161  3179M 3180M 3569M 3569  3835M 3836M 3938M 3952M 3952  3983
                                                 3984  3984  3984  4029M 4497M 4522M 4577M 4629M 4655M 4700M 4824M 4850M
                                                 4862M 4877  5086M 5112M 5124M 5139  5643  5802  6106M 6106  6107M 6159M
                                                 6160M 7909  7909  7909
 R15          15 0000000F FFFFFFFF A   #     895 2845  2924M 2924  2926  2929M 3100M 3163M 3163  3178M 3236M 3446M 3447B
                                                 3452M 3453M 3454B 3461M 3462B 3835M 3983  3984  3984  3984  4025  4029M
                                                 4498M 4544  4553  4596  4606M 4609M 4611  4630M 4675  4702M 4729  4735
                                                 4743M 4745  4797M 4800M 4802  4825M 4861M 4862  5087M 5123M 5124  5221M
                                                 5224M 5226  5718M 5741M 5924B 6102M 6108  6158M 6231  6336M 6337M 6358M
                                                 6375M 6412M 6594  7082B 7099B 7643  7791M 7794M 7794  7799M 7799  7909
                                                 7909  7909
 R2            2 00000002 FFFFFFFF A   #     726 3985M 4014  5708M 5719
 R3            3 00000003 FFFFFFFF A   #     739 3986M 4009
 SCAN          1 00000000 0000000B     T    7884 7884
 SCBCFL        1 00000261 FFFFFFEE     R    1380 1384  1389  1394  1399  1404
 SCBFL         1 00000262 FFFFFFEE     R    1410 1414  1419  1424  1429  1434
 SCBTFL        1 00000263 FFFFFFEE     R    1440 1444  1449  1454  1459  1464
 SCBWFL        1 00000260 FFFFFFEE     R    1370 1374
 SCBXA        64 00000265 FFFFFFEE         1486 1520  1520  1522  1522  1524  1524
 SCBXFL        1 00000265 FFFFFFEE     R    1477 1481  1486  1491  1496  1501  1506  1526
 SCBXP        16 00000265 FFFFFFEE         1496 1523  1523  1524  1524  1525  1525
 SCBXT       128 00000265 FFFFFFEE         1481 1520  1520  1521  1521  1523  1523
 SCBXW        32 00000265 FFFFFFEE         1491 1521  1521  1522  1522  1525  1525
 SCINIT        1 00000000 00000012     T    7906 7906
 SCP         660 00000000 FFFFFFEE     J    1550 2863U 6884U
 SCPACCT       6 000001AA FFFFFFEE     C    1259 1260  1261
 SCPCWASZ      1 00000010 FFFFFFEE A   N    1348 1349
 SCPFERR     128 00000200 FFFFFFEE         1298 6895M
 SCPFL         1 00000200 FFFFFFEE     R    1294 1298  1303  1308  1313  1318  1323  1328  1333
1VSSV     (VSSV07) (09:49) (22MAR04) Ordinary Symbol and Literal Cross Reference                                            Page   79
 SCPPAN        2 000001A8 FFFFFFEE     H    1250 1251
 SCPPRIV       1 000001B7 FFFFFFEE     X    1269 2872
 SCRET         2 00000070 00000001     I    2945 3534B 4143B 4396B 5011B 5892B 6995B 7549B
 SEG           4 0000012A 00000001     I    3126 2961B 3070B 3089B 3117B 3219B 3286B 3346B 3768B 3789B 3811B 3874B 4015B
                                                 4089B 4260B 4494B 4878B 4899B 5140B 5161B 5581B 5980B 6320B 6465B 6500B
                                                 6688B 6823B 7034B 7053B
 SEGDC         4 0000021C 00000001     I    3353 3247B 3746B 3830B 3892B 4278B 4296B 4314B 5959B 6093B 6335B 6351B 6746B
 SEGHX         4 0000023E 00000001     I    3400 3927B 4239B 5755B 5785B 5822B 5839B 5856B 6393B 6426B 6789B
 SEGSECS       1 00000000 0000000A     T    7882 7882
 SETALDY       2 00000EFC 00000001     H    7116 7086B
 SETCLPER      4 00000E0C 00000001     I    6873 3479B
 SETINVA       2 00000F38 00000001     H    7150 7087B
 SETINVC       2 00000F50 00000001     H    7164 7088B
 SETIOE        2 00000F08 00000001     H    7123 7100B
 SETJES        1 00000004 FFFFFFE5 A   U    2778 7453  7493
 SETMAINT      2 00000E48 00000001     H    6957 6936B 6944B 6949B 6954B
 SETMANY       2 00000EF0 00000001     H    7109 5927B 7084B
 SETMLS        2 00000F44 00000001     H    7157 7106B
 SETMOK        2 00000F14 00000001     H    7129 7101B
 SETMRG        2 00000F5C 00000001     H    7171 7103B
 SETMSTIL      2 00000F20 00000001     H    7136 7102B
 SETMWAIT      2 00000ECE 00000001     H    7090 7085B
 SETMWS        2 00000F68 00000001     H    7178 7104B 7105B
 SETNET        1 0000000C FFFFFFE5 A   U    2780 7293  7333
 SETNOFS       2 00000F2C 00000001     H    7143 7083B
 SETNOPSC      2 000011E0 00000001     H    7810 3478B
 SETNOVFI      2 00000E38 00000001     H    6947 3481B
 SETNOVJE      4 0000107C 00000001     I    7429 3489B
 SETNOVMA      2 00000E32 00000001     H    6939 3491B
 SETNOVNE      4 00000FCC 00000001     I    7269 3485B
 SETNOVOS      4 00001024 00000001     I    7349 3487B
 SETNOVPA      4 00000F74 00000001     I    7189 3483B
 SETOFF        1 00000004 FFFFFFE5 A   U    2776 7206  7286  7366  7446
 SETON         1 00000000 FFFFFFE5 A   U    2775 7246  7326  7406  7486
 SETOSF        1 00000008 FFFFFFE5 A   U    2779 7373  7413
 SETPATH       1 00000000 FFFFFFE5 A   U    2777 7213  7253
 SETPSCLP      4 00000E1A 00000001     I    6911 3477B
 SETREFRE      4 000010D4 00000001     I    7525 3476B
 SETVADDH      2 000008A0 00000001     H    5440 4410B
 SETVADDV      2 000005AA 00000001     H    4336 3474B
 SETVFILE      2 00000E40 00000001     H    6952 3480B
 SETVJES       4 000010A8 00000001     I    7469 3488B
 SETVMAIN      2 00000E2A 00000001     H    6934 3490B
 SETVNET       4 00000FF8 00000001     I    7309 3484B
 SETVOSF       4 00001050 00000001     I    7389 3486B
 SETVPATH      4 00000FA0 00000001     I    7229 3482B
 SETVREGI      2 000009D2 00000001     H    5628 3475B
 SETVREMH      2 000008F0 00000001     H    5475 5025B
 SETVREMV      2 00000748 00000001     H    4951 3473B
 SETVRERR      2 00000A36 00000001     H    5731 5658B
 SETVRER2      2 00000A4A 00000001     H    5740 5682B 5702B
 SETVRER3      2 00000A5C 00000001     H    5760 5668B
 SETVRER9      2 00000A80 00000001     H    5787 5738B
 SHOVREM2      2 000008FC 00000001     H    5482 5437B
 SHOVVOLH      2 00000890 00000001     H    5431 4157B
 SHRET         2 0000005A 00000001     I    2926 3101B
 SHVGG         2 00000B54 00000001     H    5994 6030  6032
 SHVGINV       2 00000B48 00000001     H    5987 5925B 5926B
 SHVGPRT       1 00000B70 00000001     R    6030 5880
1VSSV     (VSSV07) (09:49) (22MAR04) Ordinary Symbol and Literal Cross Reference                                            Page   80
 SHVGROUP      2 00000ADC 00000001     H    5872 3494B
 SHVREGIO      2 000009CE 00000001     H    5619 3493B
 SHVSESSI      2 00000B7E 00000001     H    6039 3497B
 SHVSYMBO      2 00000D3E 00000001     H    6584 3500B
 SHVSYS        2 00000C1C 00000001     H    6214 3498B
 SHVTIME       2 00000B8A 00000001     H    6052 3495B
 SHVUHELP      2 0000049E 00000001     H    4039 3965
 SHVULNO       2 0000045A 00000001     H    3971 3967
 SHVUPRT       1 00000444 00000001     R    3963 3522
 SHVUSERS      2 000002EE 00000001     H    3507 3496B
 SHVUSPB       2 00000462 00000001     H    3981 3963
 SHVVERSI      4 000004E0 00000001     I    4081 3499B
 SHVVOLUM      2 000004F2 00000001     H    4103 3492B
 SPB         114 00000000 FFFFFFEC     J    1973 2765  6299U 6412  6636U
 SPBCWASZ      1 00000010 FFFFFFEC A   N    1965 1966
 SPBFCORPSE
              16 00000045 FFFFFFEC         1953 6537  6698
 SPBFILE      44 00000018 FFFFFFEC     C    1896 6442  6449
 SPBFL         1 00000044 FFFFFFEC     R    1900 1904  1909  1914  1919  1924  1929
 SPBFL2        1 00000045 FFFFFFEC     R    1934 1938  1943  1948  1953
 SPBFM31       4 00000044 FFFFFFEC         1929 6368
 SPBFPURGABLE
              16 00000044 FFFFFFEC         1919 6514
 SPBNAME       8 00000008 FFFFFFEC     C    1894 6312  6680
 SPBNEXT       4 00000004 FFFFFFEC     A    1893 6562  6850
 SPBNREF       4 0000005C FFFFFFEC     A    1962 6737
 SPBNU         4 00000054 FFFFFFEC     A    1960 6326
 SPBORGIN      4 00000048 FFFFFFEC     A    1957 6358
 SPBPROG       8 00000010 FFFFFFEC     C    1895 6477  6484
 SPBSIZE       4 0000004C FFFFFFEC     A    1958 6336
 SPBSSB        4 00000058 FFFFFFEC     A    1961 6642
 SR            2 00000002 00000001 A   #    1017 2673  2673  2673  2810  2855M 2863U 2926M 2929  2941M 3017M 3024M 4164M
                                                 4187M 4187  4222  4230  4317M 4444M 4471  4588M 4596M 4606  4675  4729
                                                 4735M 4736  5053M 5080  5272M 5273M 5300  5303M 5304M 5331  5334M 5359M
                                                 5359  5394  5418M 5427  6077M 6102  6231M 6284M 6284  6299U 6562M 6642M
                                                 6643M 6643  6664U 6764M 6764  6835M 7643M 7684M 7684  7724  7726  7726
                                                 7726
 SSB         216 00000000 FFFFFFEB     J    2005 6664U
 SSBNAME     200 00000010 FFFFFFEB     C    1998 6802  6807
 SSBNEXT       4 00000004 FFFFFFEB     A    1991 6835
 SSBWORD       4 00000008 FFFFFFEB     A    1992 6780
 SVSNXT        2 00000DBE 00000001     H    6774 6750B
 SYSTEST       2 000000A4 00000001     H    2998 5633B 6873B 6911B 7189B 7229B 7269B 7309B 7349B 7389B 7429B 7469B 7525B
                                                 7813B
 TR            3 00000003 00000001 A   #    1030 2845M 3018M 3025M 3029  3472B 4605M 4736M 6108M 6158  6594M 6621M 6621
                                                 6636U 6850M 6935M 6943M 6943  6948M 6953M 7038  7076
 TTBITRCT      8 00000060 FFFFFFE8     D    2276 2286
 TTCACHCT      8 000000B0 FFFFFFE8     D    2303 2315
 TTCATRCT      8 00000058 FFFFFFE8     D    2275 2285
 TTFILECT    144 00000050 FFFFFFE8     U    2310 2313  2314  2315
 TTIXRRCT      8 00000068 FFFFFFE8     D    2277 2287
 TTMASRCT      8 00000050 FFFFFFE8     D    2274 2284
 TTOTHRCT      8 00000078 FFFFFFE8     D    2279 2289
 TTREADCT      8 00000050 FFFFFFE8     D    2273 2284  2285  2286  2287  2288  2289  2310  2310  2311  2311  2313
 TTUSERCT      8 00000070 FFFFFFE8     D    2278 2288
 TTWRITCT      8 00000080 FFFFFFE8     D    2293 2314
 TYPEIT        1 00000000 00000002     T    7873 7873
 UNREC         2 000000FA 00000001     H    3056 3030B 3969
 VADDER00      2 00000910 00000001     H    5493 4930B
1VSSV     (VSSV07) (09:49) (22MAR04) Ordinary Symbol and Literal Cross Reference                                            Page   81
 VADDER04      2 00000928 00000001     H    5507 4931B 5190B
 VADDER08      2 0000092C 00000001     H    5511 4932B
 VADDER12      2 00000944 00000001     H    5525 4933B
 VADDER16      2 00000950 00000001     H    5532 4934B
 VADDER20      2 0000095C 00000001     H    5539 4935B
 VADDER24      2 00000968 00000001     H    5546 4936B
 VADDER28      2 00000974 00000001     H    5553 4937B
 VERPATCH      1 00000000 0000000D     T    7893 7893
 VERSION       1 00001BB8 00000013     J    8222 7888  8224
 VERSTEXT    235 00001BB8 00000013     C    8225 4088
 VMARK         1 00000000 00000010     T    7904 7904
 VMSGS        16 000011EE 00000001     C    7832 7040
 VREAD         1 00000000 00000011     T    7905 7905
 VREGDISP      2 00000A88 00000001     H    5792 5620B 5729B
 VREGDIS2      2 00000A92 00000001     H    5804 5790B
 VREMER00      2 0000091C 00000001     H    5500 5189B
 VREMER08      2 00000938 00000001     H    5518 5191B
 VSEG          1 00000000 00000004     T    7875 7875
 VSSV          1 00000000 00000001     J     991  993  1025  1038  1051  1064  1077  1090  1103  1116  1129  1142  1155
                                                 1551  1874  1974  2006  2133  2205  2358  2637  2665  2784  4624  4758
                                                 4815  5239  7520
 VSSV#SEG      2 0000122E 00000001     H    7838 2964B 2969B 2993B 3035B 3040B 3045B 3050B 3073B 3222B 3250B 3537B 3540B
                                                 3559B 3731B 3749B 3771B 3792B 3814B 3833B 3877B 3895B 4044B 4049B 4054B
                                                 4059B 4062B 4167B 4170B 4242B 4263B 4281B 4299B 4476B 4823B 4881B 4902B
                                                 5085B 5143B 5164B 5436B 5445B 5450B 5453B 5458B 5461B 5466B 5469B 5480B
                                                 5487B 5496B 5503B 5514B 5521B 5528B 5535B 5542B 5549B 5556B 5563B 5587B
                                                 5593B 5598B 5604B 5726B 5734B 5737B 5758B 5763B 5768B 5771B 5807B 5825B
                                                 5842B 5859B 5942B 5962B 6055B 6096B 6101B 6152B 6157B 6204B 6242B 6260B
                                                 6267B 6354B 6357B 6396B 6429B 6468B 6503B 6523B 6546B 6600B 6706B 6724B
                                                 6731B 6749B 6772B 6792B 7037B 7112B 7119B 7126B 7132B 7139B 7146B 7153B
                                                 7160B 7167B 7174B 7181B 7192B 7195B 7232B 7235B 7272B 7275B 7312B 7315B
                                                 7352B 7355B 7392B 7395B 7432B 7435B 7472B 7475B 7576B 7598B 7656B 7692B
                                                 7710B 7743B
 VSSVMORG      1 00001392 00000001     U    7920 2963  2968  2992  3034  3039  3044  3049  3072  3221  3249  3536  3539
                                                 3558  3730  3748  3770  3791  3813  3832  3876  3894  4043  4048  4053
                                                 4058  4061  4166  4169  4241  4262  4280  4298  4475  4822  4880  4901
                                                 5084  5142  5163  5435  5444  5449  5452  5457  5460  5465  5468  5479
                                                 5486  5495  5502  5513  5520  5527  5534  5541  5548  5555  5562  5586
                                                 5592  5597  5603  5725  5733  5736  5757  5762  5767  5770  5806  5824
                                                 5841  5858  5941  5961  6054  6095  6100  6151  6156  6203  6241  6259
                                                 6266  6353  6356  6395  6428  6467  6502  6522  6545  6599  6705  6723
                                                 6730  6748  6771  6791  7036  7111  7118  7125  7131  7138  7145  7152
                                                 7159  7166  7173  7180  7191  7194  7231  7234  7271  7274  7311  7314
                                                 7351  7354  7391  7394  7431  7434  7471  7474  7575  7597  7655  7691
                                                 7709  7742  7846  7847
 VSSV07        1 00000000 00000001     R    1000  998
 VVOLER90      2 00000980 00000001     H    5560 5213B 5362B 5508B
 VVOLER91      2 00000998 00000001     H    5584 4367B 4982B
 VVOLER92      2 000009A4 00000001     H    5590 5047B
 VVOLER93      2 000009BC 00000001     H    5601 4547B 4599B 4789B
 VVOLER99      2 000009C8 00000001     H    5607 5472B 5490B 5497B 5504B 5515B 5522B 5529B 5536B 5543B 5550B 5557B 5582B
                                                 5588B 5599B 5605B
 VVOLFSN       2 00000802 00000001     H    5198 4163B 4416B 5031B
 VWRITE        1 00000000 00000003     T    7874 7874
 WA            1 00000000 FFFFFFE5     J    2671 2772  2803U
 WAFL          1 00000020 FFFFFFE5     R    2677 2681  2686  2844M 2844
 WAFLSYS     128 00000020 FFFFFFE5         2681 2884M 3006  6967
 WAR           8 00000008 00000001 A   #    1095 2803U 3155  3157  3157  3157  3225M 3233  3235  3235  3235  3253M 3257
                                                 3259  3259  3259  3266M
1VSSV     (VSSV07) (09:49) (22MAR04) Ordinary Symbol and Literal Cross Reference                                            Page   82
 WASIZE        1 000000C8 FFFFFFE5 A   U    2772 2812
 WAUAREA      44 00000028 FFFFFFE5     X    2725 3587  3594
 WAUCPU        4 00000030 FFFFFFE5     A    2719 3835
 WAUFLAG       1 0000005C FFFFFFE5     R    2730 2734
 WAUFSHOW    128 0000005C FFFFFFE5         2734 3622M 3663M 3708M 3722
 WAUID         8 00000038 FFFFFFE5     C    2720 3760  3781
 WAUIOS        4 0000002C FFFFFFE5     A    2718 3821
 WAULNO        4 00000054 FFFFFFE5     A    2726 3635M 3635  3650  3972M
 WAULTIM       4 00000050 FFFFFFE5     A    2724 3883
 WAUNEXT       4 00000028 FFFFFFE5     A    2717 2725  2725  2737  2737  3938
 WAUPGNM       8 00000040 FFFFFFE5     C    2721 3803
 WAUSPO        4 00000058 FFFFFFE5     A    2727 3551M 3551  3680M 3680  3695  3907M 3907  4025M 4026M
 WAUSPOD       4 0000004C FFFFFFE5     A    2723 3695  3918
 WAUTID        4 00000048 FFFFFFE5     A    2722 3650  3737
 WAUWA        53 00000028 FFFFFFE5     X    2737 3514M 3514
 WAVGFSID      1 0000002A FFFFFFE5     X    2761 5952
 WAVGFSNM      8 0000002B FFFFFFE5     C    2762 5972  5979
 WAVGROUP      2 00000028 FFFFFFE5     C    2759 5921  6021M
 WAVGS113      9 0000002A FFFFFFE5     C    2760 5907  5914
 WAVRADDR      4 00000028 FFFFFFE5     A    2751 5718
 WAVREG        2 00000032 FFFFFFE5     H    2754 5847
 WAVREGIO      4 00000028 FFFFFFE5     A    2750 5643M 5802M
 WAVRLEN       2 00000030 FFFFFFE5     H    2753 5655  5699  5776  5830
 WAVRORG       4 00000034 FFFFFFE5     A    2755 5813
 WAVVDSD      76 00000058 FFFFFFE5     X    2745 4118U 4351U 4966U
 WAVVFSB      32 00000038 FFFFFFE5     X    2744 4111U 4344U 4959U 5340U 5382  5389
 WAVVFSBP      4 00000034 FFFFFFE5     A    2743 5427M
 WAVVFSN       8 0000002C FFFFFFE5     C    2742 4891  4898  4920  5153  5160  5179  5219M 5220  5220M 5220  5233M 5409
                                                 5573  5580
 WAVVPTR       4 00000028 FFFFFFE5     A    2741 4618M 4626M 4627  5255  5262  5272  5288  5295  5303  5319  5326  5334
 WAVVUNPK      8 000000A4 FFFFFFE5     C    2746 4627M 4628M 4628M 4629  4630
 WAVVWRK     132 00000028 FFFFFFE5     X    2747 4126M 4126  4379M 4379  4994M 4994
 WRITE         4 000001D0 00000001     I    3290 3565B 3933B 4041B 4046B 4051B 4056B 4064B 4066B 4091B 4172B 4316B 4496B
                                                 5433B 5442B 5447B 5455B 5463B 5471B 5477B 5484B 5489B 5595B 5609B 5630B
                                                 5728B 5789B 5861B 5939B 5982B 5984B 6057B 6098B 6154B 6206B 6269B 6557B
                                                 6603B 6829B 7716B
 WRITEXIT      4 00000122 00000001     I    3121 7133B
 WRIT1         4 000001D8 00000001     I    3295 3287B
 XTB           1 00000000 0000000C     T    7886 7886
 =A(AMODE24)
               4 00001308 00000001     A    7895 5722  6554  6575  6826  6863
 =A(AMODE31)
               4 00001304 00000001     A    7894 5716  6272  6560  6609  6832
 =A(L'DSDDSN)
               4 000012F8 00000001     A    7891 4692  4786
 =A(L'FSBNAME)
               4 000012FC 00000001     A    7892 5210
 =A(VERSION)
               4 000012EC 00000001     A    7888 4081
 =A(X'80000000')
               4 000012C8 00000001     A    7883 3453
 =A(1)         4 000012F4 00000001     A    7890 4655  4700  4850  5112
 =A(100)       4 00001330 00000001     A    7899 6160
 =A(1000)      4 000012AC 00000001     A    7876 3179
 =A(10000*4096)
               4 000012D0 00000001     A    7885 3836
 =A(2)         4 000012F0 00000001     A    7889 4544  6006
 =A(287)       4 0000132C 00000001     A    7898 6159
 =A(384)       4 00001328 00000001     A    7897 6107
1VSSV     (VSSV07) (09:49) (22MAR04) Ordinary Symbol and Literal Cross Reference                                            Page   83
 =A(8)         4 0000133C 00000001     A    7902 7007  7561
 =C': invalid hex string'
              20 000012D8 00000001     C    7887 4018
 =C'BP.ORV'
               6 00001362 00000001     C    7914 6973
 =C'Command not yet implemented.'
              28 0000130C 00000001     C    7896 6042
 =C'Group must be specified (GG etc)'
              32 00001280 00000001     C    7872 6014
 =C'Group specified not valid for Orvyl file systems'
              48 00001250 00000001     C    7871 5990
 =C'GG.ORV'
               6 00001356 00000001     C    7910 4364  4979
 =C'SPB LOADING STUFF'
              17 00001369 00000001     C    7916 7620
 =PL1'1'       1 00001368 00000001     P    7915 4626
 =V(BTDU)      4 000012BC 00000001     V    7880 3331  3375
 =V(BTR)       4 000012B0 00000001     V    7877 3206  3859  6131  6183
 =V(BTX)       4 000012C0 00000001     V    7881 3422
 =V(EVAL)      4 000012B4 00000001     V    7878 3262  5666
 =V(FSUB#COM)
               4 00001340 00000001     V    7903 7727
 =V(MVCOS)
               4 000012B8 00000001     V    7879 3309
 =V(RTRIM)
               4 00001338 00000001     V    7901 6452  6487  6810
 =V(SCAN)      4 000012CC 00000001     V    7884 3532  4141  4394  4431  5009  5890  6993  7547  7789
 =V(SCINIT)
               4 0000134C 00000001     V    7906 7770
 =V(SEGSECS)
               4 000012C4 00000001     V    7882 3446
 =V(TYPEIT)
               4 000012A0 00000001     V    7873 3094
 =V(VERPATCH)
               4 00001300 00000001     V    7893 5711
 =V(VMARK)
               4 00001344 00000001     V    7904 7739
 =V(VREAD)
               4 00001348 00000001     V    7905 7747
 =V(VSEG)      4 000012A8 00000001     V    7875 3143  3392  3439  6148  6200  7594  7674  7863
 =V(VWRITE)
               4 000012A4 00000001     V    7874 3121  3295
 =V(XTB)       4 000012D4 00000001     V    7886 3989
 =X'80000000'
               4 00001334 00000001     X    7900 6375
 =Y((R15+1-(R14)+16*((R14)/(R15+1))/((R14)/(R15+1)))*4)
               2 00001354 00000001     Y    7909 4028
 =Y((14+1-(RAR)+16*((RAR)/(14+1))/((RAR)/(14+1)))*4)
               2 00001352 00000001     Y    7908 3395  3442
 =Y(FILEFFSB-FILECB)
               2 0000135E 00000001     Y    7912 5304
 =Y(MATFILCB-MAT)
               2 0000135C 00000001     Y    7911 5273
 =Y(X'300')
               2 00001360 00000001     Y    7913 5655  5679
 =Y(4)         2 00001350 00000001     Y    7907 3146  3299  3348  7797  7866

1VSSV     (VSSV07) (09:49) (22MAR04) Macro and Copy Code Source Summary                                                     Page   84
- Con Source                                        Volume    Members                        HLASM R4.0  2004/03/22 09.49
0     PRIMARY INPUT                                           BTD      BTX      CSECT    DROP     END      EVAL     EX
                                                              LTORG    POP      PRINT    PRVBLOCK PUSH     SAVAIL
                                                              SEGDC    SEGHX    SHEAD    SPOP     SPUSH    START
                                                              SYSONLY  USING
   L2 WYL.GG.SYS.MACLIB                             SYSB05    $BC      $BFLKUP  $BV      $CCLKUP  $CRS     $CSS     $L
                                                              $LA      $LBLAD   $LEXP    $LOR     $REL     $RGLKUP
                                                              $USLKUP  ACALL    AUSING   BASE     BEGIN    CLEAR
                                                              CSECT    DATA     DECR     DEFCC    DEX      DROP     ELSE
                                                              ELSEIF   END      EX       FLAG     GEN      HIBAL
                                                              IDENT    IF       INCR     LABEL    LC       LCALL    LOOP
                                                              LS       LT       LTORG    POP      PRINT    PUSH
                                                              RECORD   REG      REGS     SET      SETMSG   START
                                                              SYSLR    SYSQS    UNTIL    USING    VCALL    WHILE    WITH
   L3 WYL.GG.ORV.BC.MACLIB                          SYSB02    BTR      CLPSERV  CLW      FSCALL   GENMSGS  MVCOS
                                                              ORVDEFN  SCAN     SCANCB   SCINIT   SCKW     SCRTN    SEG
                                                              VENTER   VEXIT    VMARK    VPOP     VPUSH    VREAD
                                                              VREST    VSA      VSAVE    VSEG     VSSVTAB  VWRITE
                                                              XCALL
   L4 WYL.GG.ORV.MACLIB                             SYSB02    FILECB   FILEDSD  FSB      KWREC    MAT      SCP
                                                              SLISTMAC SPB      SSB
   L5 SYS3.ORVYL.UMACLIB                            SYSB02    CALLSYS  SENSE    STATUS   WAIT
   L6 SYS3.IS.MACLIB                                SYSB05    SYSDEFN

1         (VSSV07) (09:49) (22MAR04) General Purpose Register Cross Reference                                               Page   85
- Register  References (M=modified, B=branch, U=USING, D=DROP, N=index)                      HLASM R4.0  2004/03/22 09.49
0    0(0)     983U  984D 2853M 2904M 2945M 2945  3029M 3178  3196M 3245M 3245  3321M 3321  3601M 3744M 3767M 3788M 3810M
             3828M 3849M 3890M 3925M 3985  4014M 4019M 4088M 4203M 4237M 4259M 4276M 4294M 4312M 4452M 4493M 4786  4797
             4877M 4898M 4927M 5061M 5139M 5160M 5186M 5210  5221  5248M 5281M 5312M 5375M 5580M 5641M 5643  5679  5699
             5708  5741  5753M 5783M 5800M 5802  5820M 5837M 5854M 5900M 5957M 5957  5979M 5991M 6006  6015M 6043M 6065M
             6083  6090M 6091M 6091  6121M 6173M 6222M 6319M 6333M 6349M 6391M 6424M 6449M 6484M 6592M 6687M 6744M 6787M
             6807M 6926M 7007  7033M 7041M 7064M 7220M 7260M 7300M 7340M 7380M 7420M 7460M 7500M 7561  7591M 7621M 7641M
             7671M 7825M 7845M 7845  7846M
     1(1)     979U 2906  2963M 2968M 2992M 3028M 3034M 3039M 3044M 3049M 3072M 3172M 3172  3180  3203M 3221M 3249M 3328M
             3372M 3419M 3522M 3536M 3539M 3558M 3594M 3730M 3748M 3760M 3770M 3781M 3791M 3803M 3813M 3832M 3856M 3876M
             3894M 3986  4009M 4018M 4043M 4048M 4053M 4058M 4061M 4081M 4131M 4131  4166M 4169M 4210M 4241M 4252M 4262M
             4280M 4298M 4384M 4384  4421M 4421  4459M 4475M 4486M 4822M 4872M 4880M 4891M 4901M 4920M 4999M 4999  5068M
             5084M 5134M 5142M 5153M 5163M 5179M 5255M 5288M 5319M 5382M 5435M 5444M 5449M 5452M 5457M 5460M 5465M 5468M
             5479M 5486M 5495M 5502M 5513M 5520M 5527M 5534M 5541M 5548M 5555M 5562M 5573M 5586M 5592M 5597M 5603M 5643
             5725M 5733M 5736M 5757M 5762M 5767M 5770M 5802  5806M 5824M 5841M 5858M 5880M 5907M 5941M 5961M 5972M 5990M
             6014M 6042M 6054M 6077  6095M 6100M 6128M 6151M 6156M 6180M 6203M 6241M 6259M 6266M 6312M 6353M 6356M 6395M
             6428M 6442M 6467M 6477M 6502M 6522M 6545M 6599M 6680M 6705M 6723M 6730M 6748M 6771M 6791M 6802M 6874M 6884U
             6902U 6919M 6983M 6983  7026M 7036M 7038M 7039M 7040M 7040N 7071M 7111M 7118M 7125M 7131M 7138M 7145M 7152M
             7159M 7166M 7173M 7180M 7191M 7194M 7213M 7231M 7234M 7253M 7271M 7274M 7293M 7311M 7314M 7333M 7351M 7354M
             7373M 7391M 7394M 7413M 7431M 7434M 7453M 7471M 7474M 7493M 7537M 7537  7575M 7586M 7597M 7620M 7634M 7655M
             7666M 7691M 7709M 7742M 7779M 7818M 7818  7846N 7847M 7847N
     2(2)     975U 2810  2855M 2926M 2929  2941M 3017M 3024M 3985M 4014  4164M 4187M 4187  4222  4230  4317M 4444M 4471
             4588M 4596M 4606  4675  4729  4735M 4736  5053M 5080  5272M 5273M 5300  5303M 5304M 5331  5334M 5359M 5359
             5394  5418M 5427  5708M 5719  6077M 6102  6231M 6284M 6284  6299U 6562M 6568U 6642M 6643M 6643  6664U 6764M
             6764  6835M 6846U 7643M 7684M 7684  7724
     3(3)     971U 2810  2845M 2941M 3018M 3025M 3029  3472N 3986M 4009  4605M 4736M 6108M 6158  6594M 6621M 6621  6636U
             6850M 6856U 6935M 6943M 6943  6948M 6953M 7038  7076  7724
     4(4)     967U 2810  2941M 7724
     5(5)     963U 2810  2941M 4163M 4416M 4553M 4588  4692  5031M 5428B 7724
     6(6)     959U 2810  2828M 2836U 2941M 7724  7727M 7728B 8200U
     7(7)     955U 2810  2815M 2825U 2907M 2915U 2918U 2941M 3096B 3123B 3297B 3961B 4067B 4093B 4323B 5610B 5713B 5863B
             5985B 6207B 6577B 6866B 6904B 6928B 7222B 7262B 7302B 7342B 7382B 7422B 7462B 7502B 7717B 7724  7827B 8195U
     8(8)     951U 2803U 2810  2811M 2940  2941M 3155  3156M 3224  3225M 3233  3234M 3252  3253M 3257  3258M 3265  3266M
             7724  7725M 8190U
     9(9)     947U 2810  2928M 2941M 2943B 2961M 2964M 2969M 2985B 2993M 3009B 3035M 3040M 3045M 3050M 3070M 3073M 3089M
             3094M 3095M 3095B 3117M 3121M 3122M 3122B 3126  3143M 3144M 3144B 3147M 3148B 3155  3219M 3222M 3225M 3226B
             3233  3247M 3250M 3253M 3254B 3257  3262M 3263M 3263B 3266M 3268B 3271  3286M 3290  3295M 3296M 3296B 3300M
             3301B 3304  3309M 3310M 3310B 3346M 3349M 3350B 3353  3392M 3393M 3393B 3396M 3397B 3400  3439M 3440M 3440B
             3443M 3444B 3456B 3464B 3537M 3540M 3559M 3565M 3731M 3746M 3749M 3768M 3771M 3789M 3792M 3811M 3814M 3830M
             3833M 3874M 3877M 3892M 3895M 3927M 3933M 4015M 4041M 4044M 4046M 4049M 4051M 4054M 4056M 4059M 4062M 4064M
             4066M 4089M 4091M 4167M 4170M 4172M 4239M 4242M 4260M 4263M 4278M 4281M 4296M 4299M 4314M 4316M 4476M 4494M
             4496M 4823M 4878M 4881M 4899M 4902M 4904M 5085M 5140M 5143M 5161M 5164M 5166M 5433M 5436M 5442M 5445M 5447M
             5450M 5453M 5455M 5458M 5461M 5463M 5466M 5469M 5471M 5477M 5480M 5484M 5487M 5489M 5496M 5503M 5514M 5521M
             5528M 5535M 5542M 5549M 5556M 5563M 5581M 5587M 5593M 5595M 5598M 5604M 5609M 5630M 5633M 5666M 5667M 5667B
             5711M 5712M 5712B 5716M 5717M 5717B 5722M 5723M 5723B 5726M 5728M 5734M 5737M 5755M 5758M 5763M 5768M 5771M
             5785M 5789M 5807M 5822M 5825M 5839M 5842M 5856M 5859M 5861M 5939M 5942M 5959M 5962M 5980M 5982M 5984M 6055M
             6057M 6093M 6096M 6098M 6101M 6148M 6149M 6149B 6152M 6154M 6157M 6200M 6201M 6201B 6204M 6206M 6234B 6242M
             6260M 6267M 6269M 6272M 6273M 6273B 6320M 6335M 6351M 6354M 6357M 6393M 6396M 6426M 6429M 6465M 6468M 6500M
             6503M 6523M 6546M 6554M 6555M 6555B 6557M 6560M 6561M 6561B 6575M 6576M 6576B 6600M 6603M 6609M 6610M 6610B
             6688M 6706M 6724M 6731M 6746M 6749M 6772M 6789M 6792M 6823M 6826M 6827M 6827B 6829M 6832M 6833M 6833B 6863M
             6864M 6864B 6873M 6911M 7034M 7037M 7053M 7055M 7112M 7119M 7126M 7132M 7139M 7146M 7153M 7160M 7167M 7174M
             7181M 7189M 7192M 7195M 7197M 7229M 7232M 7235M 7237M 7269M 7272M 7275M 7277M 7309M 7312M 7315M 7317M 7349M
             7352M 7355M 7357M 7389M 7392M 7395M 7397M 7429M 7432M 7435M 7437M 7469M 7472M 7475M 7477M 7525M 7576M 7594M
             7595M 7595B 7598M 7600M 7624M 7649M 7656M 7674M 7675M 7675B 7692M 7710M 7716M 7724  7734  7739M 7740M 7740B
             7743M 7747M 7748M 7748B 7791  7798M 7800B 7813M 7840  7863M 7864M 7864B 7867M 7868B
    10(A)     943U 2794U 3353  3396M 3400  3443M 8183U
1         (VSSV07) (09:49) (22MAR04) General Purpose Register Cross Reference                                               Page   86
    11(B)     939U 3353  3396M 3400  3443M
    12(C)     935U 2906M 3353  3396M 3400  3443M
    13(D)     931U 2810  2811  2812M 2812  2940M 2941  3126  3127M 3127  3146M 3147  3155  3156  3157M 3157  3224M 3225
             3233  3234  3235M 3235  3252M 3253  3257  3258  3259M 3259  3265M 3266  3271  3272M 3272  3290  3291M 3291
             3299M 3300  3304  3305M 3305  3348M 3349  3353  3353  3354M 3354  3395M 3396M 3396  3400  3400  3401M 3401
             3442M 3443M 3443  3983  3984M 3984  4028M 4029  7724  7725  7726M 7726  7734  7735M 7735  7797M 7798  7840
             7841M 7841  7866M 7867
    14(E)     927U 3161M 3161  3179M 3180M 3206M 3207M 3207B 3331M 3332M 3332B 3353  3375M 3376M 3376B 3396M 3400  3422M
             3423M 3423B 3443M 3532M 3533M 3533B 3569M 3569  3835M 3836M 3859M 3860M 3860B 3938M 3952M 3952  3979B 3983
             3989M 3990M 3990B 4029M 4036B 4141M 4142M 4142B 4222M 4394M 4395M 4395B 4431M 4432M 4432B 4471M 4497M 4522M
             4577M 4629M 4655M 4700M 4824M 4850M 4862M 4877  5009M 5010M 5010B 5080M 5086M 5112M 5124M 5139  5269M 5300M
             5331M 5394M 5643  5802  5890M 5891M 5891B 5921M 6028B 6106M 6106  6107M 6131M 6132M 6132B 6159M 6160M 6183M
             6184M 6184B 6452M 6453M 6453B 6487M 6488M 6488B 6810M 6811M 6811B 6993M 6994M 6994B 7547M 7548M 7548B 7770M
             7771M 7771B 7789M 7790M 7790B
    15(F)     923U 2845  2924M 2924  2926  2929M 2942M 2942  3100M 3163M 3163  3178M 3179M 3180M 3236M 3317M 3446M 3447B
             3452M 3453M 3454B 3461M 3462B 3529M 3587M 3737M 3821M 3835M 3836M 3883M 3918M 3983  4025  4029M 4138M 4217M
             4230M 4269M 4287M 4305M 4391M 4428M 4466M 4498M 4528M 4544  4553  4583M 4596  4606M 4609M 4611  4630M 4661M
             4675  4702M 4729  4735  4743M 4745  4797M 4800M 4802  4825M 4856M 4861M 4862  4913M 4929N 5006M 5075M 5087M
             5118M 5123M 5124  5172M 5172  5188N 5221M 5224M 5226  5262M 5295M 5326M 5389M 5643  5718M 5741M 5776M 5802
             5813M 5830M 5847M 5887M 5914M 5924N 5949D 5951M 5951  5952M 5953U 6083M 6102M 6107M 6108  6158M 6159M 6160M
             6231  6326M 6336M 6337M 6358M 6375M 6412M 6594  6737M 6780M 6990M 7076M 7082N 7099N 7206M 7246M 7286M 7326M
             7366M 7406M 7446M 7486M 7544M 7643  7767M 7786M 7791M 7794M 7794  7799M 7799

1VSSV     (VSSV07) (09:49) (22MAR04) Diagnostic Cross Reference and Assembler Summary                                       Page   87
-                                                                                            HLASM R4.0  2004/03/22 09.49
0     No Statements Flagged in this Assembly
 HIGH LEVEL ASSEMBLER, 5696-234, RELEASE 4.0, PTF UQ57391
0SYSTEM: OS/390 02.10.00            JOBNAME: PJG#VSSV    STEPNAME: ASM        PROCSTEP: (NOPROC)
0Datasets Allocated for this Assembly
  Con DDname   Dataset Name                                 Volume  Member
   P1 SYSIN    SYS04082.T094942.RA000.PJG#VSSV.INPUT.H01    SCR100
   L1 SYSLIB   SYS3.DUMMYMAC                                SYSB02
   L2          WYL.GG.SYS.MACLIB                            SYSB05
   L3          WYL.GG.ORV.BC.MACLIB                         SYSB02
   L4          WYL.GG.ORV.MACLIB                            SYSB02
   L5          SYS3.ORVYL.UMACLIB                           SYSB02
   L6          SYS3.IS.MACLIB                               SYSB05
      SYSLIN   WYL.GG.PJG.OBJ                               SYSB05  VSSV
      SYSPRINT SYS04082.T094942.RA000.PJG#VSSV.PRINT.H01    SCR100
      SYSTERM  GG$PJG.PJG#VSSV.JOB06008.D0000103.?

    7812K allocated to Buffer Pool,         1277K would be required for this to be an In-Storage Assembly
    1285 Primary Input Records Read         5243 Library Records Read                  0 Work File Reads
       0 ASMAOPT Records Read               5452 Primary Print Records Written         0 Work File Writes
     159 Punch Records Written                 0 ADATA Records Written
0Assembly Start Time: 09.49.43 Stop Time: 09.49.47 Processor Time: 00.00.01.7844
 Return Code 000
