1VDMP     (VDMP21) (09:46) (22MAR04) ORVYL's File System Dump Program: Dump task                                            Page  241
0Current Usings:  (DUMP,R6) (*,R7) (IOB,R10) (DWA,R11) (SWA,R12)
0Loc    Object Code    Addr1 Addr2  Stmt Lv Lineno    Source Statement           (Hibal 5, Asmedit 3.3)  HLASM R4.0  2004/03/22 09.46
+___    ______ ____    _____ _____  ____ __ ______    ______ _________
0                                  45191    5684.     *  Build the channel program
                                   45192    5685.     *
 00764A 9160 C05E/4780_0005E       45193    5685.01            IF    SFLECKD+SFLCYL,BEGIN  BUILD ECKD CHAIN
 007652 9120 C05E/47E0_0005E       45211  1 5685.02              IF    SFLCYL,BEGIN         BUILD ECKD CHAIN FOR FULL CYL
 00765A 5800 A030            00030 45226  2 5685.03                L     R0,IOBBUFFA         ADDRESS OF DATA BUFFER
 00765E 5810 C178            00178 45227  2 5685.04                L     R1,FSTRKPC          TRACKS/CYLINDER COUNT
 007662 4120 A050            00050 45228  2 5685.05                LA    R2,IOBREADS         ADDRESS OF CCW READ TRACKS START
 007666 48F0 C188            00188 45229  2 5685.06                LH    R15,FSRDLEN         TRACK READ LENGTH
 00766A 5CE0 C174            00174 45230  2 5685.07                M     R14,FSRPT             X RECORDS/TRACK
 00766E 41F0 F018            00018 45231  2 5685.08                LA    R15,@R15+8+16           ADJUST FOR PSEUDO COUNT + R0
                                   45232  2 5685.77   ¿þþþþþþþþþþþþþþþþþþþþþþþþþþþþþþþþþþþþþþþþþþþþþþþþþþþþþþþþþþþþþþþþþþþþþÜ
                                   45233  2 5685.78   Ÿ        SET COMMAND CHAINING IN EACH CCW BUILT.  THE COMMAND         Ÿ
                                   45234  2 5685.79   Ÿ        CHAINING BIT WILL BE RESET FOR EACH I/O DEPENDING ON         Ÿ
                                   45235  2 5685.8    Ÿ        THE CURRENT CYLINDER BOUNDARIES.                             Ÿ
                                          2           ¾þþþþþþþþþþþþþþþþþþþþþþþþþþþþþþþþþþþþþþþþþþþþþþþþþþþþþþþþþþþþþþþþþþþþþ»
0007672 1211/4780 71AE             45236  2 5685.81                WHILE (R1,NZ),BEGIN       BUILD CCW CHAIN
 007678 5000 2000            00000 45252  3 5685.82                  ST    R0,@R2              SET DATA READ ADDRESS
 00767C 92DE 2000      00000       45253  3 5685.83                  MVI   @R2,X'DE'           SET "READ TRACK" CCW OPCODE
 007680 9240 2004      00004       45254  3 5685.84                  MVI   @R2+4,X'40'         SET COMMAND CHAINING FLAG
 007684 40F0 2006            00006 45255  3 5685.85                  STH   R15,@R2+6           SET "READ TRACK" READ LENGTH
 007688 4120 2008            00008 45256  3 5685.86                  LA    R2,@R2+8            BUMP TO NEXT CCW
 00768C 1A0F                       45257  3 5685.87                  AR    R0,R15              BUMP TO NEXT TRACK BUFFER ADDRESS
 00768E 5B10 7424            0790C 45258  3 5685.88                  S     R1,=A(1)            DECREMENT TRACK COUNT
 007692 47F0 718A            07672 45259  2 5685.89                END   ,
 007696 71B2/47F0 71CE 07696 07658 45264  1 5685.9               END   ELSE,BEGIN          BUILD ECKD FOR SINGLE TRACK I/O
 00769A 5800 A030            00030 45279  2 5685.91                L     R0,IOBBUFFA         LOAD BUFFER ADDRESS
 00769E 5000 A050            00050 45280  2 5685.92                ST    R0,IOBREADS         SET DATA READ ADDRESS
 0076A2 92DE A050      00050       45281  2 5685.93                MVI   IOBREADS,X'DE'      SET CCW COMMAND CODE
 0076A6 4810 C188            00188 45282  2 5685.94                LH    R1,FSRDLEN          LENGTH OF COUNT+KEY+DATA
 0076AA 5C00 C174            00174 45283  2 5685.95                M     R0,FSRPT              X RECORDS/TRACK
 0076AE 4110 1008            00008 45284  2 5685.96                LA    R1,@R1+8                + SPACE FOR PSEUDO COUNT
 0076B2 5010 A054            00054 45285  2 5685.97                ST    R1,IOBREADS+4       SET FLAGS AND READ LENGTH
 0076B6                            45286  1 5685.98              END   ,
 0076B6 71D2/47F0 720C 076B6 07650 45290    5685.99            END   ELSE,BEGIN
 0076BA 4150 A048            00048 45305  1 5686.                LA    RR,IOBREADS-L'CCW   Initialize CCW pointer
 USING  CCW,R5                     45306  1 5687.                USING CCW,RR              ## Addressability to CCW prorgram
 0076BE 5840 A030            00030 45315  1 5688.                L     QR,IOBBUFFA         Get buffer address
 0076C2 5830 C174            00174 45316  1 5689.                L     TR,FSRPT            Number of reads to build
 0076C6 47F0 71E6            076CE 45317  1 5690.                B     BRDSTART            Start building
 0076CA 9640 5004      00004       45318  1 5691.     BRDDLOOP   SET   CCWCMDCH            Set command chain
 0076CE 4150 5008            00008 45325  1 5692.     BRDSTART   LA    RR,CCWNEXT          Point at next CCW
 0076D2 5040 5000            00000 45326  1 5693.                ST    QR,CCWADDR          Insert buffer address in CCW command
 0076D6 4A40 C188            00188 45327  1 5694.                AH    QR,FSRDLEN          Point at next CCW
 0076DA 921E 5000      00000       45328  1 5695.                MVI   CCWOPCDE,CCWRCKD    Read COUNT, KEY, DATA command
 0076DE 9110 C05E/47E0_0005E       45329  1 5695.1               IF    SFLRANY,BEGIN        ESCON CHANNEL PROCESSING
 0076E6 9680 5000      00000       45344  2 5695.2                 SET   CCWMT               SET MULTI-TRACK READ
 0076EA                            45350  1 5695.3               END   ,
 0076EA D201 5006 C188 00006 00188 45354  1 5696.                MVC   CCWLEN,FSRDLEN      Set read length in CCW
 0076F0 4630 71E2            076CA 45355  1 5697.                BCT   TR,BRDDLOOP         Loop until CCW program complete
 0076F4                            45356    5697.1             END   ,
0                                  45361    5699.     *
                                   45362    5700.     * Set up CCW program retry chain
1VDMP     (VDMP21) (09:46) (22MAR04) ORVYL's File System Dump Program: Dump task                                            Page  242
0Current Usings:  (CCW,R5) (DUMP,R6) (*,R7) (IOB,R10) (DWA,R11) (SWA,R12)
0Loc    Object Code    Addr1 Addr2  Stmt Lv Lineno    Source Statement           (Hibal 5, Asmedit 3.3)  HLASM R4.0  2004/03/22 09.46
+___    ______ ____    _____ _____  ____ __ ______    ______ _________
0                                  45363    5701.     *
00076F4 4150 A148            00148 45365    5703.              LA    RR,IOBRETRY         Address of retry CCW chain
 0076F8 D21F A148 7520 00148 07A08 45366    5704.              MVC   IOBRETRY(L'RETRYCCW),RETRYCCW SET SKELETON CHAIN
 0076FE 4120 A03D            0003D 45367    5705.              LA    SR,IOBSECT          Sector address
 007702 BE27 5001            00001 45368    5706.              ST3   SR,CCWADDR3         Set sector address
 007706 4150 5008            00008 45370    5707.              LA    RR,8(,RR)           Bump to search CCW
 00770A 4120 A023            00023 45371    5708.              LA    SR,IOBCC            Seek address in IOB
 00770E BE27 5001            00001 45372    5709.              ST3   SR,CCWADDR3         Set in CCW program
 007712 1825                       45374    5710.              LR    SR,RR               Save current CCW address
 007714 4150 5008            00008 45375    5711.              LA    RR,8(,RR)           Bump to tic ccw
 007718 BE27 5001            00001 45376    5712.              ST3   SR,CCWADDR3         Set TIC address
 00771C 4150 5008            00008 45378    5713.              LA    RR,8(,RR)           Bump to read ccw
 007720 4820 C188            00188 45379    5714.              LH    SR,FSRDLEN          Get full read length
 007724 4B20 7472            0795A 45380    5715.              SH    SR,=Y(L'DRFCOUNT)   Minus count field
 007728 4020 5006            00006 45381    5716.              STH   SR,CCWLEN           Set in read ccw
 00772C 18D8/9819 D000_            45382    5717.              VEXIT R1,RAR              Restore registes and return
 DROP   CCW,R5                     45387    5718.              DROP  RR                  # Rlse CCW addr
                                   45394    5718.01   ¿þþþþþþþþþþþþþþþþþþþþþþþþþþþþþþþþþþþþþþþþþþþþþþþþþþþþþþþþþþþþþþþþþþþþþÜ
                                   45395    5718.02   Ÿ                                                                     Ÿ
                                   45396    5718.03   Ÿ  CHECK FOR ESCON CAPABLE DEVICE                                     Ÿ
                                   45397    5718.04   Ÿ                                                                     Ÿ
                                                      ¾þþþþþþþþþþþþþþþþþþþþþþþþþþþþþþþþþþþþþþþþþþþþþþþþþþþþþþþþþþþþþþþþþþþþþ»
0007734 9029 D000/41D0_      00000 45399    5718.06   CHKESCON VPUSH SR,RAR,*
 00773C 47F0 7260/0000_      07748 45402    5718.07            GETMAIN RC,LV=64          REQUEST 256 BYTE BUFFER
 007754 1831                       45416    5718.08            LR    R3,R1               SAVE ADDRESS
 007756 5030 A040            00040 45417    5718.09            ST    R3,IOBRDDEV         SAVE BUFFER ADDRESS IN CCW
 00775A 9264 A040      00040       45418    5718.1             MVI   IOBRDDEV,X'64'      SET CCW OPCODE
 00775E D201 A046 7474 00046 0795C 45419    5718.11            MVC   IOBRDDEV+6(2),=AL2(64)  SET CCW LENGTH
 007764 4100 A040            00040 45420    5718.12            LA    R0,IOBRDDEV         ADDRESS OF CCW CHAIN
 007768 5000 A010            00010 45421    5718.13            ST    R0,IOBSTART         SAVE IN IOB START ADDRESS
 00776C 5800 744C            07934 45422    5718.14            L     R0,=A(X'00000100')  LOAD TTRN VALUE
 007770 5810 CC0C            00C0C 45423    5718.15            L     R1,FSDEBAD          DEB ADDRESS
 007774 4120 A020            00020 45424    5718.16            LA    R2,IOBSEEK          ADDRESS TO RECEIVE MBBCCHHR
 007778 908D D000/188D_      00000 45425    5718.17            VSAVE R8,R13,*            SAVE REGISTERS
 007782 58F0 B04C            0004C 45429    5718.18            L     R15,ATTRCONV        ADDRESS OF CONVERT ROUTINE
 007786 05EF                       45430    5718.19            BALR  R14,R15             CONVERT TTRN TO MBBCCHHR
 007788 18D8/988D D000             45431    5718.2             VREST R8,R13              RESTORE REGISTERS
 00778E 4110 A000/0A00       00000 45434    5718.21            EXCP  IOB                 INITIATE I/O REQUEST
 007794 4100 0001/4110_      00001 45438    5718.22            WAIT  ECB=IOBECB          WAIT FOR I/O COMPLETION
 00779E 957F A028/4780_00028       45445    5718.23            IF    (IOBECB,NE,X'7F'),BEGIN TEST FOR SUCCESSFUL I/O
 0077A6 4110 7476/4100_      0795E 45462  1 5718.24              VSEG  'VDMP058E - Unable to determine device '
 0077B4 4110 73A8/4100_      07890 45471  1 5718.25              VSEG  'characteristics.'
 0077C2 5890 7410/0D99       078F8 45480  1 5718.26              VWRITE ,                  WRITE TO REPORT FILE
 0077C8 4100 0010/4110_      00010 45485  1 5718.27              VCNTL BLANK,11            SET SPACES INTO REPORT FILE
 0077D6 4110 749C/4100_      07984 45504  1 5718.28              VSEG  'Reverting to ECKD read track commands.'
 0077E4 5890 7410/0D99       078F8 45513  1 5718.29              VWRITE ,
 0077EA 944F C05E      0005E       45518  1 5718.3               CLEAR SFLRANY+SFLSECT+SFLCYL CLEAR CCW OPTION SFLAGS
 0077EE 9640 C05E      0005E       45532  1 5718.31              SET   SFLECKD              SET ECKD I/O MODE
 0077F2 9204 C0C3      000C3       45538  1 5718.32              MVI   SRETCODE+3,RET_WARN SET WARNING RETURN CODE
 0077F6 7312/47F0 7372 077F6 077A4 45539    5718.33            END   ELSE,BEGIN
 0077FA 9120 3002/4710_00002       45554  1 5718.82              IF    ~@R3+2.X'20',BEGIN
 007802 9110 C05E/47E0_0005E       45570  2 5718.83                IF    SFLRANY,BEGIN        DISABLE READ ANY MODE OF I/O
1VDMP     (VDMP21) (09:46) (22MAR04) ORVYL's File System Dump Program: Dump task                                            Page  243
0Current Usings:  (DUMP,R6) (*,R7) (IOB,R10) (DWA,R11) (SWA,R12)
0Loc    Object Code    Addr1 Addr2  Stmt Lv Lineno    Source Statement           (Hibal 5, Asmedit 3.3)  HLASM R4.0  2004/03/22 09.46
+___    ______ ____    _____ _____  ____ __ ______    ______ _________
000780A 4110 73B8/4100_      078A0 45585  3 5718.84                  VSEG  'VDMP059W - Read any mode not supported for this '
 007818 4110 7513/4100_      079FB 45594  3 5718.85                  VSEG  'Device.'
 007826 5890 7410/0D99       078F8 45603  3 5718.86                  VWRITE ,                  WRITE TO REPORT FILE
 00782C 4100 0010/4110_      00010 45608  3 5718.87                  VCNTL BLANK,11            SET SPACES TO REPORT FILE
 00783A 4110 749C/4100_      07984 45627  3 5718.88                  VSEG  'Reverting to ECKD read track commands.'
 007848 5890 7410/0D99       078F8 45636  3 5718.89                  VWRITE ,                  WRITE TO REPORT FILE
 00784E 9204 C0C3      000C3       45641  3 5718.9                   MVI   SRETCODE+3,RET_WARN SET WARNING RETURN CODE
 007852 948F C05E      0005E       45642  3 5718.91                  CLEAR SFLRANY+SFLECKD+SFLCYL CLEAR READ ANY MODE OF I/O
 007856 9680 C05E      0005E       45656  3 5718.92                  SET   SFLSECT              SET EXTENDED COUNT KEY DATA MODE
 00785A                            45662  2 5718.93                END   ,
 00785A                            45666  1 5718.94              END   ,
 00785A                            45670    5718.95            END   ,
 00785A 4100 0040/4110_      00040 45674    5718.96            FREEMAIN R,LV=64,A=(R3)  RELEASE BUFFER
 007864 4BD0 74C2/9829_      079AA 45679    5718.97            VPOP  SR,RAR,*            RESTORE CALLING REGISTERS
 00786C 07F9                       45682    5718.98            BR    RAR                 RETURN TO CALLER
 007870                            45683    5718.99            LTORG ,
 007870 40C885818485997E           45685                             =C' Header='
 007878 6BE59693A494857E           45686                             =C',Volume='
 007880 6B4DC3C1C3C8C540           45687                             =C',(CACHE INHIBIT)'
 007890 838881998183A385           45688                             =C'characteristics.'
 0078A0 E5C4D4D7F0F5F9E6           45689                             =C'VDMP059W - Read any mode not supported for this '
 0078D0 00000000                   45690                             =V(BTD)
 0078D4 00000004                   45691                             =A(4)
 0078D8 FFFFFFFC                   45692                             =A(-4)
 0078DC FFFFFFF8                   45693                             =A(-8)
 0078E0 FFFFFFF4                   45694                             =A(-12)
 0078E4 FFFFFFF0                   45695                             =A(-16)
 0078E8 00000000                   45696                             =V(VSEG)
 0078EC 40C481A381938595           45697                             =C' Datalength='
 0078F8 00000000                   45698                             =V(VWRITE)
 0078FC FFFFFFE8                   45699                             =A(-24)
 007900 0000B676                   45700                             =A(CALCTRK)
 007904 0000001C                   45701                             =A(IOBRMAX)
 007908 00000010                   45702                             =A(DEBPREFE-DEBPREFX)
 00790C 00000001                   45703                             =A(1)
 007910 00000000                   45704                             =V(VCNTRL)
 007914 00000000                   45705                             =V(BTDC)
 007918 C4A2957E                   45706                             =C'Dsn='
 00791C 000074DC                   45707                             =A(BUILDIOB)
 007920 40000001                   45708                             =X'40000001'
 007924 40000010                   45709                             =X'40000010'
 007928 40000015                   45710                             =X'40000015'
 00792C 00000008                   45711                             =A(8)
 007930 FFFFFFF8                   45712                             =F'-8'
 007934 00000100                   45713                             =A(X'00000100')
 007938 E5C4D4D7F5F0F6C9           45714                             =C'VDMP506I - Keylen='
 00794A 000C                       45715                             =AL2(12)
 00794C D799968385A2A289           45716                             =C'Processing'
 007956 FF9D                       45717                             =H'-99'
 007958 0001                       45718                             =AL2(1)
 00795A 0008                       45719                             =Y(L'DRFCOUNT)
 00795C 0040                       45720                             =AL2(64)
 00795E E5C4D4D7F0F5F8C5           45721                             =C'VDMP058E - Unable to determine device '
 007984 D985A58599A38995           45722                             =C'Reverting to ECKD read track commands.'
1VDMP     (VDMP21) (09:46) (22MAR04) ORVYL's File System Dump Program: Dump task                                            Page  244
0Current Usings:  (DUMP,R6) (*,R7) (IOB,R10) (DWA,R11) (SWA,R12)
0Loc    Object Code    Addr1 Addr2  Stmt Lv Lineno    Source Statement           (Hibal 5, Asmedit 3.3)  HLASM R4.0  2004/03/22 09.46
+___    ______ ____    _____ _____  ____ __ ______    ______ _________
00079AA 0020                       45723                             =Y((RAR+1-(SR)+16*((SR)/(RAR+1))/((SR)/(RAR+1)))*4)
 0079AC 40C2939683929385           45724                             =C' Blocklength='
 0079B9 E5C4D4D7F5F0F7C9           45725                             =C'VDMP507I - '
 0079C4 C4A49497899587             45726                             =C'Dumping'
 0079CB 40C293968392A240           45727                             =C' Blocks on '
 0079D6 404DE2C5D840D7D9           45728                             =C' (SEQ PRESTAGE)'
 0079E5 6B4DC3C1C3C8C540           45729                             =C',(CACHE BYPASS)'
 0079F4 C8C4D99385957E             45730                             =C'HDRlen='
 0079FB C485A58983854B             45731                             =C'Device.'
1VDMP     (VDMP21) (09:46) (22MAR04) ORVYL's File System Dump Program: Dump task                                            Page  245
0Current Usings:  (DUMP,R6) (*,R7) (IOB,R10) (DWA,R11) (SWA,R12)
0Loc    Object Code    Addr1 Addr2  Stmt Lv Lineno    Source Statement           (Hibal 5, Asmedit 3.3)  HLASM R4.0  2004/03/22 09.46
+___    ______ ____    _____ _____  ____ __ ______    ______ _________
0                                  45736    5720.     ¿þþþþþþþþþþþþþþþþþþþþþþþþþþþþþþþþþþþþþþþþþþþþþþþþþþþþþþþþþþþþþþþþþþþþþÜ
                                   45737    5721.     Ÿ                                                                     Ÿ
                                   45738    5722.     Ÿ    Issue channel program to read one track's worth of data          Ÿ
                                   45739    5723.     Ÿ    blocks.  update subask i/o counter and determine if the i/o      Ÿ
                                   45740    5724.     Ÿ    rate is too high.                                                Ÿ
                                   45741    5725.     Ÿ                                                                     Ÿ
                                                      ¾þþþþþþþþþþþþþþþþþþþþþþþþþþþþþþþþþþþþþþþþþþþþþþþþþþþþþþþþþþþþþþþþþþþþþ»
0007A28 9019 D000/188D_      00000 45743    5728.     READFS   VENTER R1,RAR,*,LOCAL     Enter and save registers
 DROP   *,R7
 USING  *,R7
 007A34 947F A03C      0003C       45765    5729.              CLEAR IOBEXCPD            Set no EXCP done
 007A38 1B22                       45772    5730.              CLEAR SR                  Calculate TTR from
 007A3A 5830 C168            00168 45776    5731.              L     TR,FSBLKCNT           Blocks read so far
 007A3E 5930 C164            00164 45777    5732.              C     TR,FSBLOCKS              Done yet?
 007A42 47B0 722E            07C62 45778    5733.              IF    L,BEGIN             Blocks still left to dump
 007A46 5D20 C174            00174 45789  1 5734.                D     SR,FSRPT            Get relative track
 007A4A 8930 0010            00010 45790  1 5735.                SLL   TR,16               Move into position
 007A4E 1803                       45791  1 5736.                LR    R0,TR               Copy for conversion call
 007A50 5600 78E4            08318 45792  1 5737.                O     R0,=X'00000100'     Set record one
 007A54 5810 CC0C            00C0C 45793  1 5738.                L     R1,FSDEBAD          Deb address
 007A58 4120 A020            00020 45794  1 5739.                LA    R2,IOBSEEK          Output area
 007A5C 908D D000/188D_      00000 45795  1 5740.                VSAVE R8,R13,*            Routine clobbers r9-r13
 007A66 58F0 B04C            0004C 45799  1 5741.                L     R15,ATTRCONV        Address of routine
 007A6A 05EF                       45800  1 5742.                BALR  R14,R15             On voyage
 007A6C 18D8/988D D000             45801  1 5742.01              VREST R8,R13              Get the regs back
 007A72 9140 C05E/47E0_0005E       45804  1 5742.02              IF    SFLECKD,BEGIN        Update locate record parameters
 007A7A D203 A134 A023 00134 00023 45819  2 5742.03                MVC   IOBLOCRX+4(4),IOBSEEK+3 Update seek argument
 007A80 D204 A138 A023 00138 00023 45820  2 5742.04                MVC   IOBLOCRX+8(5),IOBSEEK+3 Update search argument
 007A86 9200 A13C      0013C       45821  2 5742.05                MVI   IOBLOCRX+12,0           Orient on record 0
 007A8A 9201 A133      00133       45822  2 5742.06                MVI   IOBLOCRX+3,1            Set for single RT CCW
 007A8E D203 A038 C174 00038 00174 45823  2 5742.07                MVC   IOBIOCNT,FSRPT           Set I/O block count
 007A94                            45824  1 5742.08              END   ,
 007A94 9110 C05E/47E0_0005E       45828  1 5742.09              IF    SFLRANY,BEGIN        UPDATE LOCATE RECORD PARAMETERS
 007A9C D203 A134 A023 00134 00023 45843  2 5742.1                 MVC   IOBLOCRX+4(4),IOBSEEK+3 UPDATE SEEK ARGUMENT
 007AA2                            45844  1 5742.11              END   ,
 007AA2 9120 C05E/47E0_0005E       45848  1 5742.12              IF    SFLCYL,BEGIN         UPDATE FOR FULL CYLINDER READ
 007AAA D203 A134 A023 00134 00023 45863  2 5742.13                MVC   IOBLOCRX+4(4),IOBSEEK+3 UPDATE SEEK ARGUMENT
 007AB0 D203 A138 A023 00138 00023 45864  2 5742.14                MVC   IOBLOCRX+8(4),IOBSEEK+3 Update search argument
 007AB6 BFFF A130            00130 45865  2 5742.15         L4 R15,IOBLOCRX
 007ABA 4100 0008/4110_      00008 45867  2 5742.16         SEGHX 8,(R15)
 007ACE 4110 79C4/4100_      083F8 45908  2 5742.17         VWRITE ' - CURRENT CCHH'
 007AE2 1F00/BF03 A025             45922  2 5742.84                L2    R0,IOBSEEK+5        LOAD CURRENT HEAD ADDRESS
 007AE8 5810 C178            00178 45928  2 5742.85                L     R1,FSTRKPC          LOAD TRACKS/CYLINDER
 007AEC 1B10                       45929  2 5742.86                SR    R1,R0               TRACKS LEFT TO END OF CYLINDER
 007AEE 18F1                       45930  2 5742.87                LR    R15,R1              COPY FOR RECORD CALCULATION
 007AF0 5CE0 C174            00174 45931  2 5742.88                M     R14,FSRPT           COMPUTE NUMBER OF BLOCKS READ
 007AF4 50F0 A038            00038 45932  2 5742.89                ST    R15,IOBIOCNT         SAVE FOR PUTLOOP
 007AF8 4210 A133            00133 45933  2 5742.9                 STC   R1,IOBLOCRX+3       SET LOCATE RECORD DOMAIN COUNT
 007AFC 4120 A050            00050 45934  2 5742.91                LA    SR,IOBREADS         START OF READ CYLINDER CCW'S
 007B00 5B10 78F4            08328 45935  2 5742.92                S     R1,=A(1)            ADJUST READ COUNT
 007B04 4780 70E4            07B18 45936  2 5742.93                WHILE NZ,BEGIN            SET COMMAND CHAINING
 007B08 9640 2004      00004       45949  3 5742.94                  OI    @SR+4,X'40'         SET COMMAND CHAINING BIT
 007B0C 4120 2008            00008 45950  3 5742.95                  LA    SR,@SR+8            BUMP TO NEXT CCW
1VDMP     (VDMP21) (09:46) (22MAR04) ORVYL's File System Dump Program: Dump task                                            Page  246
0Current Usings:  (DUMP,R6) (*,R7) (IOB,R10) (DWA,R11) (SWA,R12)
0Loc    Object Code    Addr1 Addr2  Stmt Lv Lineno    Source Statement           (Hibal 5, Asmedit 3.3)  HLASM R4.0  2004/03/22 09.46
+___    ______ ____    _____ _____  ____ __ ______    ______ _________
0007B10 5B10 78F4            08328 45951  3 5742.96                  S     R1,=A(1)            ADJUST READ COUNT
 007B14 47F0 70D0            07B04 45952  2 5742.97                END   ,
 007B18 94AF 2004      00004       45957  2 5742.98                NI    @SR+4,X'AF'         TERMINATE CCW COMMAND CHAIN
 007B1C                            45958  1 5742.99              END   ,
 007B1C 9180 B1C7/47E0_001C7       45962  1 5744.                IF    TFRATE,BEGIN        Throttle set to idle?
 007B24 5810 B184            00184 45977  2 5745.                  L     R1,GIOLIMIT         Set global desired rate
 007B28 5C00 78F8            0832C 45978  2 5746.                  M     R0,=A(100)          Prepare for division
 007B2C 5820 B140            00140 45979  2 5747.                  L     SR,STACTIVE         Set active subtasks
 007B30 4C20 7978            083AC 45980  2 5748.                  MH    SR,=H'100'          Adjust divisor for scaling
 007B34 1D02                       45981  2 5749.                  DR    R0,SR               Compute subtask i/o rate
 007B36 1821                       45982  2 5750.                  LR    SR,R1               Move rate for later
 007B38 5800 78FC            08330 45983  2 5751.                  L     R0,=A(100000000)    Set 100 million to compute
 007B3C 8E00 0020            00020 45984  2 5752.                  SRDA  R0,32                 Time delay required in
 007B40 1D02                       45985  2 5753.                  DR    R0,SR                   Micro-seconds
 007B42 1B00                       45986  2 5754.                  CLEAR R0                  Convert to tod clock format
 007B44 8D00 000C            0000C 45990  2 5755.                  SLDL  R0,12                 make bit 51 equal to m-sec
 007B48 9001 C610            00610 45991  2 5756.                  STM   R0,R1,FSDELAY           save delay required
 007B4C 9801 C600            00600 45992  2 5757.                  LM    R0,R1,FSLSTIO       Set stck of last i/o issued
 007B50 B205 C600      00600       45993  2 5758.                  STCK  FSLSTIO               reset stck of this i/o
 007B54 9823 C600            00600 45994  2 5759.                  LM    SR,TR,FSLSTIO           set current stck time
 007B58 1F31/47B0 712C_            45995  2 5760.                  SDLR  SR,R0                     compute elapsed time
 007B62 9023 C608            00608 46002  2 5761.                  STM   SR,TR,FSELAP                save elapsed time
 007B66 D507 C610 C608 00610 00608 46003  2 5762.                  CLC   FSDELAY,FSELAP      Test difference in elapsed
 007B6C 47D0 7162            07B96 46004  2 5763.                  IF    GT,BEGIN            Need to wait for a while
 007B70 9801 C610            00610 46015  3 5764.                    LM    R0,R1,FSDELAY       Set delay required
 007B74 9823 C608            00608 46016  3 5765.                    LM    SR,TR,FSELAP          Set actual elapsed time
 007B78 1F13/47B0 714C_            46017  3 5766.                    SDLR  R0,SR                   Set updated wait time
 007B82 9001 C610            00610 46024  3 5767.                    STM   R0,R1,FSDELAY             Save wait time
 007B86 4110 C610/1BFF_      00610 46025  3 5768.                    STIMER WAIT,MICVL=FSDELAY Wait for timer fire
 007B96                            46033  2 5769.                  END   ,
 007B96                            46037  1 5770.                END   ,
 007B96 D703 A028 A028 00028 00028 46041  1 5771.                CLEAR IOBECB              Clear the ecb
 007B9C D701 A01E A01E 0001E 0001E 46048  1 5772.                CLEAR IOBERRCT            Clear the retry counter
 007BA2 B205 C600      00600       46055  1 5773.                STCK  FSLSTIO             Set last file i/o time
 007BA6 4110 A000/0A00       00000 46056  1 5774.                EXCP  IOB                 Issue channel program start
 007BAC 9120 B1C3/47E0_001C3       46060  1 5774.01              IF    FLCYL,BEGIN         UPDATE BLOCKS READ
 007BB4 58F0 A038/4100_      00038 46075  2 5774.02        SEGDC 8,IOBIOCNT
 007BCC 58F0 C168/4100_      00168 46117  2 5774.03        SEGDC 8,FSBLKCNT
 007BE4 1BFF/4100 0008_            46159  2 5774.04        SEGDC 8 FSBLOCKS
 007BFA 5890 78F0/0D99       08324 46200  2 5774.05        VWRITE ,
 007C00 5820 A038            00038 46205  2 5774.96                L     SR,IOBIOCNT          SET RECORDS PER TRACK
 007C04 5A20 C168            00168 46206  2 5774.97                A     SR,FSBLKCNT           ADD TO CURRENT BLOCK COUNT
 007C08 5020 C168            00168 46207  2 5774.98                ST    SR,FSBLKCNT             REPLACE BLOCKS READ COUNT
 007C0C 71DC/47F0 71E8 07C0C 07BB2 46208  1 5774.99              END   ELSE,BEGIN
 007C10 5820 C174            00174 46223  2 5775.                  L     SR,FSRPT            Set records per track value
 007C14 5A20 C168            00168 46224  2 5776.                  A     SR,FSBLKCNT           add to current block count
 007C18 5020 C168            00168 46225  2 5777.                  ST    SR,FSBLKCNT             replace blocks read count
 007C1C                            46226  1 5777.1               END   ,
 007C1C 9680 A03C      0003C       46230  1 5778.                SET   IOBEXCPD            Set excp done on this iob
0007C20 41F0 B0E8            000E8 46237  1 5780.                LA    R15,COMLOCK         Address of lockword pair
 007C24 4D90 628C            002A2 46238  1 5781.                LCALL GETLOCK             Get communications lock
 007C28 4100 0001/5E00_      00001 46240  1 5782.                INCR  R0,GIOCNT           Update global i/o counter
 007C34 4100 0001/5E00_      00001 46246  1 5783.                INCR  R0,IIOCNT           Update inst. i/o counter
1VDMP     (VDMP21) (09:46) (22MAR04) ORVYL's File System Dump Program: Dump task                                            Page  247
0Current Usings:  (DUMP,R6) (*,R7) (IOB,R10) (DWA,R11) (SWA,R12)
0Loc    Object Code    Addr1 Addr2  Stmt Lv Lineno    Source Statement           (Hibal 5, Asmedit 3.3)  HLASM R4.0  2004/03/22 09.46
+___    ______ ____    _____ _____  ____ __ ______    ______ _________
0007C40 5800 B190            00190 46252  1 5784.                L     R0,GIOBLKS          Update global block counter
 007C44 5A00 C174            00174 46253  1 5785.                A     R0,FSRPT            Add records per track
 007C48 5000 B190            00190 46254  1 5786.                ST    R0,GIOBLKS          Reset global block counter
0007C4C 5800 B1B4            001B4 46256  1 5788.                L     R0,IIOBLKS          Set inst. block counter
 007C50 5A00 C174            00174 46257  1 5789.                A     R0,FSRPT            Add records per track
 007C54 5000 B1B4            001B4 46258  1 5790.                ST    R0,IIOBLKS          Reset inst. block counter
0007C58 41F0 B0E8            000E8 46260  1 5792.                LA    R15,COMLOCK         Address of lockword pair
 007C5C 4D90 6310            00326 46261  1 5793.                LCALL RELLOCK             Release communiations lock
 007C60 1BFF                       46263  1 5794.                CLEAR R15                 Set zero return code from readfs
 007C62 7232/47F0 7236_07C62 07A44 46267    5795.              END   ELSE,'LA R15,4'     Set positive (eof) return
 007C6A 18D8/9819 D000_            46288    5796.              VEXIT R1,RAR,LTR          Return to caller
1VDMP     (VDMP21) (09:46) (22MAR04) ORVYL's File System Dump Program: Dump task                                            Page  248
0Current Usings:  (DUMP,R6) (*,R7) (IOB,R10) (DWA,R11) (SWA,R12)
0Loc    Object Code    Addr1 Addr2  Stmt Lv Lineno    Source Statement           (Hibal 5, Asmedit 3.3)  HLASM R4.0  2004/03/22 09.46
+___    ______ ____    _____ _____  ____ __ ______    ______ _________
0                                  46295    5797.1    ¿þþþþþþþþþþþþþþþþþþþþþþþþþþþþþþþþþþþþþþþþþþþþþþþþþþþþþþþþþþþþþþþþþþþþþÜ
                                   46296    5798.     Ÿ                                                                     Ÿ
                                   46297    5799.     Ÿ   Perform error analysis for disk input errors.                     Ÿ
                                   46298    5800.     Ÿ                                                                     Ÿ
                                   46299    5800.1    Ÿ        1.  Find failing CCW in read chain and attemp to re-read     Ÿ
                                   46300    5800.2    Ÿ            the record.                                              Ÿ
                                   46301    5800.3    Ÿ                                                                     Ÿ
                                   46302    5800.4    Ÿ        2.  Report permenant data/eq check to operator console.      Ÿ
                                   46303    5800.5    Ÿ            Make message non-deletable.                              Ÿ
                                   46304    5801.     Ÿ                                                                     Ÿ
                                   46305    5801.1    Ÿ        Currently when in ECKD mode no error recovery is             Ÿ
                                   46306    5801.2    Ÿ        performed.                                                   Ÿ
                                   46307    5801.3    Ÿ                                                                     Ÿ
                                                      ¾þþþþþþþþþþþþþþþþþþþþþþþþþþþþþþþþþþþþþþþþþþþþþþþþþþþþþþþþþþþþþþþþþþþþþ»
0007C74 9029 D000/188D_      00000 46309    5803.     FSERRANL VENTER SR,RAR,*,LOCAL     Entry for error analysis
 DROP   *,R7
 USING  *,R7
 USING  DRF,R4                     46331    5804.              USING DRF,QR              ## data record format addr
 USING  CCWDSECT,R5                46340    5805.              USING CCWDSECT,RR         ## ccw addr
0007C80 9140 C05E/47E0_0005E       46350    5806.01            IF    SFLECKD,BEGIN        Currently let's just blow
 007C88 4110 01BC/4100_      001BC 46365  1 5806.02              ABEND 444,DUMP            Pull the plug
 007C98                            46374    5806.03            END   ,
 007C98 41F0 0004            00004 46378    5806.1             LA    R15,RET_WARN        Set warning for good retry
 007C9C 5890 76B8/0D99       08338 46379    5806.2             ACALL SUBRETC             Set maximum return code
 007CA2 9680 C05D      0005D       46383    5808.              SET   FSIOERR             Set I/O error occured on volume
 007CA6 9200 C15C      0015C       46389    5810.              CLEAR FSERRFID            Clear first ID read
 007CAA 9200 C15D      0015D       46396    5811.              CLEAR FSERRPID            Clear previous ID read
0                                  46404    5813.     *
                                   46405    5814.     *  FIND FAILING CCW IN THE READ CHAIN
                                   46406    5815.     *
0007CAE 1F22/BF27 A009             46408    5817.              LCM   SR,7,IOBCSW         CSW: NEXT CCW TO BE XEQ'D
 007CB4 5F20 76BC            0833C 46415    5818.              SL    SR,=F'8'              BACK OFF TO FAILING CCW
 007CB8 4150 A050            00050 46416    5819.              LA    RR,IOBREADS             ADDR OF READ CCW CHAIN
0                                  46418    5821.     *
                                   46419    5822.     *  LOOP THROUGH READ CCW'S TAKING NOTE OF WHICH RECORD
                                   46420    5823.     *  HAD THE ERROR.
                                   46421    5824.     *
                                   46422    5825.     *              SR -> ADDRESS OF FAILING CCW
                                   46423    5826.     *              RR -> START OF CCW CHANNEL PROGRAM
                                   46424    5827.     *
0007CBC 1F44/BF47 5001             46426    5829.              LCM   QR,7,CCWADDR3       Get first data buffer address
 007CC2 1952/4780 7068             46433    5830.              IF    (RR,NE,SR),BEGIN    If at least one record
 007CC8 D200 C15C 4004 0015C 00004 46448  1 5831.                MVC   FSERRFID,DRFID      Set first data record read
0007CCE 1952/47B0 7068             46450  1 5833.                WHILE (RR,LT,SR),BEGIN    Loop until failing rec is fnd
 007CD4 D200 C15D 4004 0015D 00004 46467  2 5834.                  MVC   FSERRPID,DRFID      Save rec id from count field
 007CDA 4150 5008            00008 46468  2 5835.                  LA    RR,8(,RR)           Bump to next ccw
 007CDE 1F44/BF47 5001             46469  2 5836.                  LCM   QR,7,CCWADDR3       Pick up buffer addr from ccw
1VDMP     (VDMP21) (09:46) (22MAR04) ORVYL's File System Dump Program: Dump task                                            Page  249
0Current Usings:  (DRF,R4) (CCWDSECT,R5) (DUMP,R6) (*,R7) (IOB,R10) (DWA,R11) (SWA,R12)
0Loc    Object Code    Addr1 Addr2  Stmt Lv Lineno    Source Statement           (Hibal 5, Asmedit 3.3)  HLASM R4.0  2004/03/22 09.46
+___    ______ ____    _____ _____  ____ __ ______    ______ _________
0007CE4 47F0 704E            07CCE 46476  1 5837.                END   ,                   Try next ccw
 007CE8 706C/47F0 70A0 07CE8 07CC6 46481    5838.              END   ELSE,BEGIN
 007CEC 4810 C188            00188 46496  1 5839.                LH    R1,FSRDLEN          Get max length read
 007CF0 4B10 A00E            0000E 46497  1 5840.                SH    R1,IOBCSW+5           - residual length
 007CF4 5910 76C0/47B0_      08340 46498  1 5841.                IF    (R1,LT,5),BEGIN     Just call it zero please
 007CFC 9200 C15D      0015D       46515  2 5842.                  MVI   FSERRPID,0          Resume record zero
 007D00 D200 4004 0001 00004 00001 46516  2 5843.                  MVC   DRFID,1             Set record zero uncdtl
 007D06 9200 400B      0000B       46517  2 5844.                  CLEAR DRFTYPE             Zero out
 007D0A D701 400E 400E 0000E 0000E 46524  2 5845.                  CLEAR DRFORVDL            Zero data length
 007D10 7094/47F0 70A0 07D10 07CFA 46531  1 5846.                END   ELSE,BEGIN
 007D14 1F11/4310 4004             46546  2 5847.                  LC    R1,DRFID            Get record id
 007D1A 0610                       46553  2 5848.                  DECR  R1                  Back off to psuedo prev
 007D1C 4210 C15D            0015D 46555  2 5849.                  STC   R1,FSERRPID         Plug in previous id
 007D20                            46556  1 5850.                END   ,
 007D20                            46560    5851.              END   ,
1VDMP     (VDMP21) (09:46) (22MAR04) ORVYL's File System Dump Program: Dump task                                            Page  250
0Current Usings:  (DRF,R4) (CCWDSECT,R5) (DUMP,R6) (*,R7) (IOB,R10) (DWA,R11) (SWA,R12)
0Loc    Object Code    Addr1 Addr2  Stmt Lv Lineno    Source Statement           (Hibal 5, Asmedit 3.3)  HLASM R4.0  2004/03/22 09.46
+___    ______ ____    _____ _____  ____ __ ______    ______ _________
0                                  46565    5852.1    ¿þþþþþþþþþþþþþþþþþþþþþþþþþþþþþþþþþþþþþþþþþþþþþþþþþþþþþþþþþþþþþþþþþþþþþÜ
                                   46566    5853.     Ÿ                                                                     Ÿ
                                   46567    5854.     Ÿ  QR        -> ADDRESS OF FAILING DATA BUFFER                        Ÿ
                                   46568    5855.     Ÿ  RR        -> FAILING CCW                                           Ÿ
                                   46569    5856.     Ÿ  SR        -> FAILING CCW                                           Ÿ
                                   46570    5857.     Ÿ  FSERRPID  -> LAST RECORD ID READ SUCCESSFULLY                      Ÿ
                                   46571    5858.     Ÿ                                                                     Ÿ
                                   46572    5859.     Ÿ                                                                     Ÿ
                                   46573    5860.     Ÿ                                                                     Ÿ
                                                      ¾þþþþþþþþþþþþþþþþþþþþþþþþþþþþþþþþþþþþþþþþþþþþþþþþþþþþþþþþþþþþþþþþþþþþþ»
0007D20 BF11 C15D/4110_      0015D 46575    5862.              INCR  R1,FSERRPID             BUMP TO BAD BLOCK
                                   46581    5863.   C          IF    (FSERRPID,GT,FSRPT+3),  CHECK FOR OVERFLOW
 007D2C D500 C15D C177_0015D 00177          5864.                    'MVI FSERRPID,1'        RESET TO RECORD 1
 007D3A 5890 76C4/0D99       08344 46605    5865.              ACALL FSERRBB                 REPORT AND FIX BAD BLOCK
                                   46609    5866.     *
                                   46610    5867.     *  SET ERROR RETRY CCW IN IOBSTART
                                   46611    5868.     *
0007D40 4120 A148            00148 46613    5870.              LA    SR,IOBRETRY         ADDRESS OF RETRY CCW CHAIN
 007D44 5020 A010            00010 46614    5871.              ST    SR,IOBSTART         RESET IN IOB
0007D48                            46616    5873.              LOOP  BEGIN               PROCESS REMAINING RECORDS
 007D48 1F11/4310 C15D             46622  1 5874.                LC    R1,FSERRPID         GET CURRENT RECORD #
 007D4E 4210 A027            00027 46629  1 5875.                STC   R1,IOBR             STUFF IN IOB
 007D52 1F00/BF07 5001             46630  1 5876.                L3    R0,CCWADDR3
 007D58 4810 C188            00188 46636  1 5877.                LH    R1,FSRDLEN
 007D5C 1B33                       46637  1 5878.                CLEAR TR
 007D5E 0E02                       46641  1 5879.                MVCL  R0,SR                   ZAP BUFFER TO ZERO
 007D60 1F11/BF17 5001             46642  1 5880.                L3    R1,CCWADDR3
 007D66 D204 1000 A023 00000 00023 46650  1 5881.                MVC   @R1(5),IOBCC
 007D6C 4110 1008            00008 46651  1 5882.                LA    R1,@R1+L'DRFCOUNT       NOT READING COUNT
 007D70 BE17 A161            00161 46652  1 5883.                ST3   R1,IOBRKD+1             UPDATED READ ADDRESS
 007D74 1BEE                       46654  1 5884.                CLEAR R14
 007D76 4110 C5E8            005E8 46658  1 5885.                LA    R1,FSDVTA
 007D7A 1FFF/43F0 A027             46659  1 5886.                LC    R15,IOBR                RECORD NUMBER
 007D80 4800 C188            00188 46666  1 5887.                LH    R0,FSRDLEN
 007D84 4B00 772E            083AE 46667  1 5888.                SH    R0,=Y(L'DRFCOUNT)
 007D88 9500 C2AE      002AE       46668  1 5889.                CLI   FSDSNAME+DS1KEYL-FORMAT1,0
 007D8C 4780 7112/1100       07D92 46669  1 5890.                IF    NE,'LNR R0,R0'
 007D92 5890 76C8/0D99       08348 46686  1 5891.                ACALL CALCRPS
 007D98 42F0 A03D            0003D 46690  1 5892.                STC   R15,IOBSECT             SET SECTOR NUMBER
 007D9C D703 A028 A028 00028 00028 46691  1 5893.                CLEAR IOBECB              CLEAR IOB ECB
 007DA2 4110 A000/0A00       00000 46698  1 5894.                EXCP  IOB                 ISSUE READ
 007DA8 4100 0001/4110_      00001 46702  1 5895.                WAIT  ECB=IOBECB          WAIT FOR COMPLETION
 007DB2 957F A028/4780_00028       46709  1 5896.                IF    (IOBECB,NE,X'7F'),BEGIN
 007DBA 41F0 0008            00008 46726  2 5896.01                LA    R15,RET_BLK         Set permenant i/o error
 007DBE 5890 76B8/0D99       08338 46727  2 5896.02                ACALL SUBRETC             Set maximum condition code
 007DC4 5890 76C4/0D99       08344 46731  2 5896.1                 ACALL FSERRBB
 007DCA                            46735  1 5896.2               END   ,
 007DCA 714E/47F0 71B0 07DCA 07DB8 46739  1 5897.                ELSE  BEGIN
 007DCE 4110 7730/4100_      083B0 46750  2 5898.                  VSEG  '   Record '
 007DDC 1FFF/43F0 A027             46759  2 5899.                  LC    R15,IOBR                GET RECORD NUMBER
 007DE2 4100 0002/4110_      00002 46766  2 5900.                  SEGDC 2,(R15)
1VDMP     (VDMP21) (09:46) (22MAR04) ORVYL's File System Dump Program: Dump task                                            Page  251
0Current Usings:  (DRF,R4) (CCWDSECT,R5) (DUMP,R6) (*,R7) (IOB,R10) (DWA,R11) (SWA,R12)
0Loc    Object Code    Addr1 Addr2  Stmt Lv Lineno    Source Statement           (Hibal 5, Asmedit 3.3)  HLASM R4.0  2004/03/22 09.46
+___    ______ ____    _____ _____  ____ __ ______    ______ _________
0007DF6 4110 7787/4100_      08407 46807  2 5901.                  VSEG  ' at CCHH='
 007E04 BFFF A023            00023 46816  2 5902.                  ICM   R15,15,IOBCC            GET CCHH
 007E08 4100 0008/4110_      00008 46817  2 5903.                  BTX   WORK,8,(R15)
 007E16 5890 76A0/0D99       08320 46840  2 5904.                  VSEG  (1),(0)
 007E1C 4110 76CC/4100_      0834C 46857  2 5905.                  VWRITE ', Successfully read.'
 007E30                            46871  1 5906.                END   ,
 007E30 9140 5004/47E0_00004       46875  1 5907.                IF    ~CCWCMDCH,EXIT      IF NO CHAIN, MUST BE DONE
 007E38 4150 5008            00008 46893  1 5908.                LA    RR,8(,RR)           BUMP TO NEXT CCW
 007E3C BF11 C15D/4110_      0015D 46894  1 5909.                INCR  R1,FSERRPID         BUMP TO NEXT RECORD ID
                                   46900  1 5910.   C            IF    (FSERRPID,GT,FSRPT+3),        CHECK FOR OVERFLOW
 007E48 D500 C15D C177_0015D 00177        1 5911.                      'MVI FSERRPID,1'              RESET TO RECORD 1
 007E56 47F0 70C8            07D48 46924    5912.              END   ,
0                                  46930    5914.     *
                                   46931    5915.     * RESET NORMAL CCW PROGRAM IN IOB
                                   46932    5916.     *
0007E5A 9180 B1C3/47E0_001C3       46934    5917.1             IF    FLSECT,BEGIN        RESTART AT SET SECTOR COMMAND
 007E62 4120 A048            00048 46949  1 5917.2               LA    SR,IOBCHPRO         ADDRESS OF SET SECTOR COMMAND
 007E66 71EA/47F0 71EE 07E66 07E60 46950    5917.3             END   ELSE,BEGIN
 007E6A 4120 A050            00050 46965  1 5918.                LA    SR,IOBREADS         GET ADDRESS OF NORMAL CCW
 007E6E                            46966    5918.1             END   ,
 007E6E 5020 A010            00010 46970    5919.              ST    SR,IOBSTART         AND PUT IT BACK PLEASE
 007E72 18D8/9829 D000_            46971    5920.              VEXIT SR,RAR              RETURN
 DROP   DRF,R4                     46976    5921.              DROP  QR
1VDMP     (VDMP21) (09:46) (22MAR04) ORVYL's File System Dump Program: Dump task                                            Page  252
0Current Usings:  (CCWDSECT,R5) (DUMP,R6) (*,R7) (IOB,R10) (DWA,R11) (SWA,R12)
0Loc    Object Code    Addr1 Addr2  Stmt Lv Lineno    Source Statement           (Hibal 5, Asmedit 3.3)  HLASM R4.0  2004/03/22 09.46
+___    ______ ____    _____ _____  ____ __ ______    ______ _________
0007E7A 9029 D000/188D_      00000 46984    5923.     FSERRBB  VENTER SR,RAR,*,LOCAL     ENTER AND SAVE CALLING REGISTERS
 DROP   *,R7
 USING  *,R7
 007E86 47F0 7006/00/0_      07E8C 47006    5924.              SYNADAF ACSMETH=EXCP,PARM1=IOB
 007E96 D24D C0E4 1032 000E4 00032 47014    5925.              MVC   SYNADBUF,@R1+50     MOVE ERROR DESC. TO BUFFER
 007E9C 4110 C129            00129 47015    5926.              LA    R1,SYNADBUF+69          ADDRESS OF BUFFER
 007EA0 1FFF/43F0 C15D             47016    5927.              LC    R15,FSERRPID            ACTUAL RECORD #
 007EA6 4100 0002/1300_      00002 47023    5928.              BTD   (R1),2,(R15),PAD        CONVERT INTO MSG
 007EB2 47F0 7032/FF00_      07EB8 47044    5929.              SYNADRLS ,                Release synad buffer
 007EBE 4110 C0E4/4100_      000E4 47050    5930.              VSEG  SYNADBUF,L'SYNADBUF Set message for wto
 007ECC 1B11                       47071    5930.1             CLEAR R1                  Clear wto parameter register
 007ECE BF12 758A            08410 47075    5930.2             ICM   R1,2,=X'02'         Set descriptor code 2
 007ED2 4100 0000/1B11_      00000 47076    5931.              VCNTL WTO                 Inform operator of i/o error
0007EDE 9541 A028/4780_00028       47093    5933.              IF    (IOBECB,NE,X'41'),'ABEND 101,DUMP'
 007EF6 4100 0018/1B11_      00018 47124    5934.              VCNTL SKIP2
 007F02 4110 7534/4100_      083BA 47140    5935.              VSEG  '***Permanent I/O error occured on '
 007F10 4110 C194/4100_      00194 47149    5936.              VWRITE FSVOLSER
 007F24 4100 0010/4110_      00010 47173    5937.              VCNTL BLANK,3
 007F32 4110 C0E4/4100_      000E4 47192    5938.              VWRITE SYNADBUF,L'SYNADBUF     PRINT SYNAD ERROR ANAL.
 007F46 4110 758B/4100_      08411 47218    5939.              VSEG  '   IOB='
 007F54 18FA/4100 0006_            47227    5940.              BTX   WORK,6,(IOBREG)
 007F64 4110 B010/4100_      00010 47251    5941.              VSEG  WORK,6
 007F72 4110 7556/4100_      083DC 47272    5942.              VSEG  ', CSW='
 007F80 58F0 A008            00008 47281    5943.              L     R15,IOBCSW-1
 007F84 4100 0008/4110_      00008 47282    5944.              BTX   WORK,8,(R15)
 007F92 4110 B010/4100_      00010 47305    5945.              VSEG  WORK,8
 007FA0 4110 7592/4100_      08418 47326    5946.              VSEG  ' '
 007FAE 58F0 A00C            0000C 47335    5947.              L     R15,IOBCSW+3
 007FB2 4100 0008/4110_      00008 47336    5948.              BTX   WORK,8,(R15)
 007FC0 4110 B010/4100_      00010 47359    5949.              VWRITE WORK,8
 007FD4 4110 7593/4100_      08419 47385    5950.              VSEG  '   CCW='
 007FE2 1F22/BF27 A009             47394    5951.              LCM   SR,7,IOBCSW
 007FE8 5F20 74B6            0833C 47401    5952.              SL    SR,=F'8'                BACKUP TO FAILING CCW
 007FEC 58F0 2000            00000 47402    5953.              L     R15,@SR
 007FF0 4100 0008/4110_      00008 47403    5954.              BTX   WORK,8,(R15)
 007FFE 4110 B010/4100_      00010 47426    5955.              VSEG  WORK,8
 00800C 4110 7592/4100_      08418 47447    5956.              VSEG  ' '
 00801A 58F0 2004            00004 47456    5957.              L     R15,@SR+4
 00801E 4100 0008/4110_      00008 47457    5958.              BTX   WORK,8,(R15)
 00802C 4110 B010/4100_      00010 47480    5959.              VSEG  WORK,8
 00803A 5890 749E/0D99       08324 47501    5960.              VWRITE ,
 008040 4110 755C/4100_      083E2 47506    5961.              VSEG  '   ORVYL Block number='
 00804E 1FFF/43F0 C15D             47515    5962.              LC    R15,FSERRPID        LOAD REC NUMBER IN QUESTION
 008054 5AF0 C6A4            006A4 47522    5963.              A     R15,DTBLKCNT        ADD BLOCKS DUMPED TO TAPE
 008058 06F0                       47523    5964.              DECR  R15                 DECR FOR TRUE ORVYL #
 00805A 1B00/4110 B010_            47525    5965.              BTD   WORK,0,(15),COMMAS=YES
 008066 5890 749A/0D99_      08320 47546    5966.              VWRITE (1),(0)            ADD TO OUTPUT LINE
 008072 18D8/9829 D000_            47568    5967.              VEXIT SR,RAR,LTR
1VDMP     (VDMP21) (09:46) (22MAR04) ORVYL's File System Dump Program: Dump task                                            Page  253
0Current Usings:  (CCWDSECT,R5) (DUMP,R6) (*,R7) (IOB,R10) (DWA,R11) (SWA,R12)
0Loc    Object Code    Addr1 Addr2  Stmt Lv Lineno    Source Statement           (Hibal 5, Asmedit 3.3)  HLASM R4.0  2004/03/22 09.46
+___    ______ ____    _____ _____  ____ __ ______    ______ _________
0                                  47575    5969.     *
                                   47576    5970.     *  REPORT INITIAL SUBTASK HEADER PAGE
                                   47577    5971.     *
000807C 9029 D000/188D_      00000 47579    5973.     SINIT    VENTER SR,RAR,*,LOCAL     ENTER AND SAVE CALLING REGISTERS
 DROP   *,R7
 USING  *,R7
 008088 5890 72E0/0D99       08368 47601    5974.              VINIT ,                   INITIALIZE PRINT AND SEG ROUTINES
 00808E 4110 C0DC            000DC 47604    5975.              LA    R1,SYSPDDN          ADDRESS OF PRINT FILE DDNAME
 008092 4100 0020/5890_      00020 47605    5976.              VCNTL DDNAM,(R1)          SET FOR PRINT ROUTINE OPEN
 00809C 9620 C05D      0005D       47621    5977.              SET   FLSOPN              SET PRINT ROUTINES ARE ACTIVE
 0080A0 4100 001C/1B11_      0001C 47627    5978.              VCNTL PAGE                SKIP TO A FRESH PAGE
 0080AC 4110 7240/4100_      082C8 47643    5979.              VSEG  'Filedump'          SAY "FILEDUMP" PLEASE
 0080BA 4110 7398/4100_      08420 47652    5980.              VSEG  '    ***ORVYL subtask dump segment***   '
 0080C8 4110 7248/4100_      082D0 47661    5981.              VSEG  'Version='          Add version number
 0080D6 5820 72E4            0836C 47670    5982.              L     SR,=A(VDMP)         Starting address of VDMP
 0080DA 1F00/4300 2000             47671    5983.              LC    R0,@SR              Set length of id field
 0080E0 4110 2001            00001 47676    5984.              LA    R1,@SR+1            Set start of id field
 0080E4 5890 7298/0D99       08320 47677    5985.              VSEG  (R1),(R0)           Add to message
 0080EA 5890 729C/0D99       08324 47692    5986.              VWRITE ,                  Write to subtask report file
 0080F0 4100 0010/4110_      00010 47697    5987.              VCNTL BLANK,20            Add spacer to message
 0080FE 4110 0001/0A0B       00001 47716    5988.              TIME  BIN                 Request time value
 008104 9001 C0C8            000C8 47720    5989.              STM   R0,R1,SUBTIME       Save time values in swa
 008108 5800 C0CC            000CC 47721    5990.              L     R0,SUBTIME+4        Set day value
 00810C 4110 C098            00098 47722    5991.              LA    R1,SWORK            Set subtask work area
 008110 58E0 72E8/0DEE       08370 47723    5992.              XCALL DAYF                Format out day value
 008116 5890 7298/0D99       08320 47727    5993.              VSEG  (R1),(R0)           Add to message
 00811C 4100 0010/4110_      00010 47742    5994.              VCNTL BLANK,3             Add some space please
 00812A 5800 C0C8            000C8 47761    5995.              L     R0,SUBTIME          Set time value
 00812E 4110 C098            00098 47762    5996.              LA    R1,SWORK            Set subtask work area
 008132 58E0 72EC/0DEE       08374 47763    5997.              XCALL TIME                Format time value
 008138 4100 0008/5890_      00008 47767    5998.              VSEG  (R1),8              Add to message
 008142 5890 729C/0D99       08324 47785    5999.              VWRITE ,                  Write to subtask report file
 008148 4100 0014/1B11_      00014 47790    6000.              VCNTL SKIP1               Skip a blank line
1VDMP     (VDMP21) (09:46) (22MAR04) ORVYL's File System Dump Program: Dump task                                            Page  254
0Current Usings:  (CCWDSECT,R5) (DUMP,R6) (*,R7) (IOB,R10) (DWA,R11) (SWA,R12)
0Loc    Object Code    Addr1 Addr2  Stmt Lv Lineno    Source Statement           (Hibal 5, Asmedit 3.3)  HLASM R4.0  2004/03/22 09.46
+___    ______ ____    _____ _____  ____ __ ______    ______ _________
0                                  47807    6002.     ********************************************************************
                                   47808    6003.     *                                                                  *
                                   47809    6004.     *  Initialize FILEDUMP ESTAE FOR DUMP/READ/INC SUBTASK RECOVERY    *
                                   47810    6005.     *                                                                  *
                                   47811    6006.     ********************************************************************
0008154 5820 72F0            08378 47813    6008.              L     SR,=A(SUBREC)       Address of ESTAE recovery routine
                                   47814    6009.   C          ESTAE (SR),CT,PARAM=(DWR),XCTL=NO,PURGE=QUIESCE,
 008158 4110 CBC8/5021_      00BC8          6010.                    ASYNCH=YES,TERM=YES,MF=(E,SUBEST)
 008188 12FF/4780 7142             47831    6011.              IF    (R15,NZ),BEGIN
 00818E 182F                       47845  1 6012.                LR    SR,R15              Save ESTAE return code
 008190 4110 7250/4100_      082D8 47846  1 6013.                VSEG  'VDMP119E - Unable to establish ESTAE environment'
 00819E 4110 73BF/4100_      08447 47855  1 6014.                VSEG  ', Return='         Set for ESATE return code
 0081AC 18F2/1B00/4110_            47864  1 6015.                SEGDC 0,(SR)              Report estae return code
 0081C0 5890 729C/0D99       08324 47903  1 6016.                VWRITE ,                  Write to report file
 0081C6 9204 B05B      0005B       47908  1 6017.                MVI   RETCODE+3,RET_WARN  OK to continue
 0081CA 7146/47F0 715A 081CA 0818C 47909    6018.              END   ELSE,BEGIN
 0081CE 4110 73C8/4100_      08450 47924  1 6019.                VSEG  'VDMP121I - ESTAE Environment established.'
 0081DC 5890 729C/0D99       08324 47933  1 6020.                VWRITE ,                  Write to report file
 0081E2                            47938    6021.              END   ,
00081E2 18D8/9829 D000_            47943    6023.              VEXIT SR,RAR              Return to caller
1VDMP     (VDMP21) (09:46) (22MAR04) ORVYL's File System Dump Program: Dump task                                            Page  255
0Current Usings:  (CCWDSECT,R5) (DUMP,R6) (*,R7) (IOB,R10) (DWA,R11) (SWA,R12)
0Loc    Object Code    Addr1 Addr2  Stmt Lv Lineno    Source Statement           (Hibal 5, Asmedit 3.3)  HLASM R4.0  2004/03/22 09.46
+___    ______ ____    _____ _____  ____ __ ______    ______ _________
0                                  47949    6025.     ********************************************************************
                                   47950    6026.     *                                                                  *
                                   47951    6027.     *  Define ESTAE recovery routine for DumpSegment/ReadBack          *
                                   47952    6027.1    *                                                                  *
                                   47953    6027.2    *        1.  REPORT ABEND                                          *
                                   47954    6027.3    *        2.  RELEASE DISK RELATED BUFFER'S                         *
                                   47955    6027.4    *        3.  RELEASE ANY TAPE RELATED BUFFER'S                     *
                                   47956    6028.     *                                                                  *
                                   47957    6029.     ********************************************************************
00081EA                            47959    6031.     SUBREC   LABEL ,
 USING  SUBREC,R15                 47961    6032.              WITH  (SUBREC,R15),BEGIN  Estae routine addressability
 0081EA 5900 F192/4770_      0837C 47975  1 6033.                IF    (R0,EQ,12),BEGIN    Insufficient memory to get sdwa
 0081F2 1BFF                       47992  2 6034.                  CLEAR R15                 Continue abending
 0081F4 07FE                       47996  2 6035.                  BR    R14                 Return to RTM2
 0081F6                            47997  1 6036.                END   ,
 DROP   SUBREC,R15                 48001    6037.              END   ,
 0081F6 90EC D00C            0000C 48009    6038.              STM   R14,R12,@R13+12     Save return registers
 0081FA 187F                       48010    6039.              LR    BR,R15              Copy entry address
 DROP   *,R7                       48011    6040.              USING SUBREC,BR           ## estae routine addressability
 USING  SUBREC,R7
 DROP   CCWDSECT,R5                48023    6041.              USING SDWA,RR             ## addressability to sdwa
 USING  SDWA,R5
 0081FC 1851                       48035    6042.              LR    RR,R1               Set sdwa address
 0081FE 188D                       48036    6043.              LR    WAR,R13             Save estae routine save addresss
 008200 5860 70D6            082C0 48037    6044.              L     BRR,SXITBSE         Reset program base
 008204 58C0 5000            00000 48038    6045.              L     DWR,SDWAPARM        Set address of dump work area
 008208 5810 C010            00010 48039    6046.              L     R1,PBLKADR          ADDRESS OF SUBPARAMETER BLOCK
 USING  SUBPARM,R1                 48040    6047.              WITH  (SUBPARM,R1),BEGIN  ADDRESSABILITY TO SUBPARAMETER
 00820C 58B0 1014            00014 48054  1 6048.                L     SWR,SUBDWA          RESET ADDRESS OF DUMP WORK AREA
 DROP   SUBPARM,R1                 48055    6049.              END   ,
 008210 4100 0800/4510_      00800 48063    6050.              GETMAIN R,LV=2048         Request memory for save stack
 00821A 18D1                       48068    6051.              LR    R13,R1              Copy memory into stack register
 00821C 4110 7196/4100_      08380 48069    6052.              VSEG  'VDMP609I - ESTAE routine has been entered.  '
 00822A 4110 711E/4100_      08308 48078    6053.              VSEG  'Completion code '  Set completion code into message
 008238 58F0 5004/4100_      00004 48087    6054.              SEGHX 8,SDWACMPF,WORK=SWORK   Report abend completion codes
 008250 5890 713A/0D99       08324 48129    6055.              VWRITE ,                  Write to report file
1VDMP     (VDMP21) (09:46) (22MAR04) ORVYL's File System Dump Program: Dump task                                            Page  256
0Current Usings:  (SDWA,R5) (DUMP,R6) (SUBREC,R7) (IOB,R10) (DWA,R11) (SWA,R12)
0Loc    Object Code    Addr1 Addr2  Stmt Lv Lineno    Source Statement           (Hibal 5, Asmedit 3.3)  HLASM R4.0  2004/03/22 09.46
+___    ______ ____    _____ _____  ____ __ ______    ______ _________
0                                  48135    6058.     *
                                   48136    6059.     *  RELEASE IOB BUFFER'S FOR DISK I/O
                                   48137    6060.     *
0008256 41A0 C318            00318 48139    6062.              LA    IOBREG,FSIOB1       Set first IOB address
 00825A D603 A02C A02C_0002C 0002C 48140    6063.              IF    (IOBNXIOB,NZ),BEGIN IF ANY IOB BUFFER CAN EXIT
 008264 4130 0002            00002 48156  1 6064.                LA    TR,&IOBS            And set the count
 008268                            48157  1 6065.                LOOP  BEGIN               Release all buffers
 008268 5810 A030            00030 48163  2 6066.                  L     R1,IOBBUFFA         Address of IOB buffer
 00826C 1211/4780 709E             48164  2 6067.                  IF    (R1,NZ),BEGIN       Something there, release it
 008272 5800 A034            00034 48178  3 6068.                    L     R0,IOBBUFFL         Set length to release
 008276 4110 1000/0A0A       00000 48179  3 6069.                    FREEMAIN R,LV=(0),A=(1)   Release memory
 00827C D703 A030 A030 00030 00030 48183  3 6070.                    CLEAR IOBBUFFA            Zero IOB buffer address
 008282 D703 A034 A034 00034 00034 48190  3 6071.                    CLEAR IOBBUFFL            Zero iob buffer length
 008288                            48197  2 6072.                  END   ,
 008288 58A0 A02C            0002C 48201  2 6073.                  L     IOBREG,IOBNXIOB     Chain to next IOB
 00828C 5B30 713E            08328 48202  2 6074.                  S     TR,=A(1)            Decrement IOB counter
 008290 4770 707E            08268 48203  1 6075.                UNTIL Z,END               Process all IOB's
 008294                            48222    6076.              END   ,
0                                  48227    6078.     *
                                   48228    6079.     *  RELEASE TAPE I/O BUFFER'S
                                   48229    6080.     *
0008294 4110 CC14            00C14 48231    6082.              LA    R1,DTDCB            ADDRESS OF DUMPTAPE DCB
 USING  IHADCB,R1                  48232    6083.              WITH  (IHADCB,R1),BEGIN   ADDRESSABILITY TO DCB
 008298 9110 1030/47E0_00030       48246  1 6084.                IF    DCBOFLGS.DCBOFOPN,BEGIN  RELEASE BUFFER POOL IF OPEN
 0082A0 4D90 611E            00134 48262  2 6085.1                 LCALL FREPOOL             RELEASE TAPE I/O BUFFERS
 0082A4                            48264  1 6086.                END   ,
 DROP   IHADCB,R1                  48268    6087.              END   ,
00082A4 181D                       48277    6089.              LR    R1,R13              Set to free save stack
 0082A6 4100 0800/4110_      00800 48278    6090.              FREEMAIN R,LV=2048,A=(1)  Release save stack memory
 0082B0 18D8                       48283    6091.              LR    R13,WAR             Reset estae save area address
 0082B2 0700/1815/9200_            48284    6092.              SETRP WKAREA=(RR),REGS=(14,12),RC=0
00082BE 0000
 0082C0 00000016                   48296    6094.     SXITBSE  DC    A(DUMP)             SUBTASK ESTAE base address
-DROP   SDWA,R5                    48298    6096.              DROP  RR                  ## RELEASE SDWA ADDRESSABILITY
 DROP   SUBREC,R7                  48305    6097.              DROP  BR                  ## RELEASE BASE REGISTER
1VDMP     (VDMP21) (09:46) (22MAR04) ORVYL's File System Dump Program: Dump task                                            Page  257
0Current Usings:  (DUMP,R6) (IOB,R10) (DWA,R11) (SWA,R12)
0Loc    Object Code    Addr1 Addr2  Stmt Lv Lineno    Source Statement           (Hibal 5, Asmedit 3.3)  HLASM R4.0  2004/03/22 09.46
+___    ______ ____    _____ _____  ____ __ ______    ______ _________
0                                  48313    6099.     ********************************************************************
                                   48314    6100.     *                                                                  *
                                   48315    6101.     *  Define literal pool and release all program addressability      *
                                   48316    6102.     *                                                                  *
                                   48317    6103.     ********************************************************************
0DROP   SWA,R12                    48319    6105.              DROP  ,
 DROP   DWA,R11
 DROP   IOB,R10
 DROP   DUMP,R6
00082C8                            48365    6107.              LTORG ,
 0082C8 C689938584A49497           48367                             =C'Filedump'
 0082D0 E58599A28996957E           48368                             =C'Version='
 0082D8 E5C4D4D7F1F1F9C5           48369                             =C'VDMP119E - Unable to establish ESTAE environment'
 008308 C39694979385A389           48370                             =C'Completion code '
 008318 00000100                   48371                             =X'00000100'
 00831C 00000000                   48372                             =V(BTX)
 008320 00000000                   48373                             =V(VSEG)
 008324 00000000                   48374                             =V(VWRITE)
 008328 00000001                   48375                             =A(1)
 00832C 00000064                   48376                             =A(100)
 008330 05F5E100                   48377                             =A(100000000)
 008334 00000000                   48378                             =V(BTD)
 008338 00005716                   48379                             =A(SUBRETC)
 00833C 00000008                   48380                             =F'8'
 008340 00000005                   48381                             =A(5)
 008344 00007E7A                   48382                             =A(FSERRBB)
 008348 0000B6CE                   48383                             =A(CALCRPS)
 00834C 6B40E2A4838385A2           48384                             =C', Successfully read.'
 008360 00000000                   48385                             =V(VCNTRL)
 008364 00000000                   48386                             =V(BTDC)
 008368 00000000                   48387                             =V(VIDCINIT)
 00836C 00000000                   48388                             =A(VDMP)
 008370 00000000                   48389                             =V(DAYF)
 008374 00000000                   48390                             =V(TIME)
 008378 000081EA                   48391                             =A(SUBREC)
 00837C 0000000C                   48392                             =A(12)
 008380 E5C4D4D7F6F0F9C9           48393                             =C'VDMP609I - ESTAE routine has been entered.  '
 0083AC 0064                       48394                             =H'100'
 0083AE 0008                       48395                             =Y(L'DRFCOUNT)
 0083B0 404040D985839699           48396                             =C'   Record '
 0083BA 5C5C5CD785999481           48397                             =C'***Permanent I/O error occured on '
 0083DC 6B40C3E2E67E               48398                             =C', CSW='
 0083E2 404040D6D9E5E8D3           48399                             =C'   ORVYL Block number='
 0083F8 406040C3E4D9D9C5           48400                             =C' - CURRENT CCHH'
 008407 4081A340C3C3C8C8           48401                             =C' at CCHH='
 008410 02                         48402                             =X'02'
 008411 404040C9D6C27E             48403                             =C'   IOB='
 008418 40                         48404                             =C' '
 008419 404040C3C3E67E             48405                             =C'   CCW='
 008420 404040405C5C5CD6           48406                             =C'    ***ORVYL subtask dump segment***   '
 008447 6B40D985A3A49995           48407                             =C', Return='
 008450 E5C4D4D7F1F2F1C9           48408                             =C'VDMP121I - ESTAE Environment established.'
1VDMP     (VDMP21) (09:46) (22MAR04) ORVYL's File System Dump Program: Offload Data                                         Page  258
0Loc    Object Code    Addr1 Addr2  Stmt Lv Lineno    Source Statement           (Hibal 5, Asmedit 3.3)  HLASM R4.0  2004/03/22 09.46
+___    ______ ____    _____ _____  ____ __ ______    ______ _________
0                                  48413    6109.     ¿þþþþþþþþþþþþþþþþþþþþþþþþþþþþþþþþþþþþþþþþþþþþþþþþþþþþþþþþþþþþþþþþþþþþþÜ
                                   48414    6110.     Ÿ                                                                     Ÿ
                                   48415    6112.     Ÿ  OFFLOAD INCREMENTAL DUMP POOL DATA SETS TO TAPE                    Ÿ
                                   48416    6113.     Ÿ                                                                     Ÿ
                                   48417    6113.01   Ÿ                                                                     Ÿ
                                   48418    6113.02   Ÿ                                                                     Ÿ
                                   48419    6113.03   Ÿ        1.  FOR DAILY INCREMENTAL MERGE, DETERMINE LAST INCREMENTAL  Ÿ
                                   48420    6113.04   Ÿ            DUMP TO MERGE OFFLOADED DATA WITH.                       Ÿ
                                   48421    6113.05   Ÿ                                                                     Ÿ
                                   48422    6113.1    Ÿ        2.  BUILD ALL POOL CONTROL BLOCKS FOR THE INCREMENTAL        Ÿ
                                   48423    6113.2    Ÿ            DATA SEGMENTS.                                           Ÿ
                                   48424    6113.3    Ÿ                                                                     Ÿ
                                   48425    6113.4    Ÿ        3.  CHECK FOR THE IXRDUMP INCREMENTAL DATA SET AND COPY      Ÿ
                                   48426    6113.5    Ÿ            TO TAPE IF NECESSARY.                                    Ÿ
                                   48427    6113.6    Ÿ                                                                     Ÿ
                                   48428    6113.7    Ÿ        4.  DUMP ALL INCREMENTAL DATA SEGMENTS TO TAPE.              Ÿ
                                   48429    6114.     Ÿ                                                                     Ÿ
                                   48430    6114.1    Ÿ        5.  SCRATCH INCREMENTAL DATA SEGMENTS.                       Ÿ
                                   48431    6114.2    Ÿ                                                                     Ÿ
                                   48432    6115.     Ÿ                                                                     Ÿ
                                                      ¾þþþþþþþþþþþþþþþþþþþþþþþþþþþþþþþþþþþþþþþþþþþþþþþþþþþþþþþþþþþþþþþþþþþþþ»
-
 00847A                            48434    6117.     OFFLFNC  LABEL ,                   Entry point for offload function
 00847A 0570                       48436    6118.              BALR  BR,0                  Generate addressability
 USING  *,R7                       48437    6119.              USING *,BR                    Declare addressability
 USING  DWA,R12                    48447    6120.              USING DWA,DWR                   Addressability to work area
 USING  DUMP,R6                    48456    6121.              USING DUMP,BRR                    Addressability to common
-00847C 4110 75B4/4100_      08A30 48466    6122.              VSEG  'VDMP088I - Offload function of filedump.'
 00848A 5890 7668/0D99       08AE4 48475    6123.              VWRITE ,                  Write to report file
-008490 4110 75DC            08A58 48481    6124.              LA    R1,=CL8'CONTROL'    Check for control ddname
 008494 5890 766C/0D99       08AE8 48482    6125.              ACALL FINDDD              Check via the tiot the ddname
 00849A 4780 703E            084BA 48486    6126.              IF    NZ,BEGIN            Must have control for "offload"
 00849E 4110 7670/4100_      08AEC 48497  1 6127.                VSEG  'VDMP573E - CONTROL file must be present for offload.'
 0084AC 5890 7668/0D99       08AE4 48506  1 6128.                VWRITE ,                  Write to report file
 0084B2 9210 C05B      0005B       48511  1 6129.                MVI   RETCODE+3,CNT_PRM   Set return code
 0084B6 47F0 60DA            000F0 48512  1 6130.                B     DUMPEXIT            And return to the system
 0084BA                            48513    6131.              END   ,
1VDMP     (VDMP21) (09:46) (22MAR04) ORVYL's File System Dump Program: Offload Data                                         Page  259
0Current Usings:  (DUMP,R6) (*,R7) (DWA,R12)
0Loc    Object Code    Addr1 Addr2  Stmt Lv Lineno    Source Statement           (Hibal 5, Asmedit 3.3)  HLASM R4.0  2004/03/22 09.46
+___    ______ ____    _____ _____  ____ __ ______    ______ _________
0                                  48518    6131.93            ¿þþþþþþþþþþþþþþþþþþþþþþþþþþþþþþþþþþþþþþþþþþþþþþþþþþþþþþþþþþþþþþþÜ
                                   48519    6131.94            Ÿ                                                               Ÿ
                                   48520    6131.95            Ÿ  Find incremental dump records in the history file in         Ÿ
                                   48521    6131.96            Ÿ  preparation for building the incremental dump pool records.  Ÿ
                                   48522    6131.97            Ÿ                                                               Ÿ
                                   48523    6131.98            ¾þþþþþþþþþþþþþþþþþþþþþþþþþþþþþþþþþþþþþþþþþþþþþþþþþþþþþþþþþþþþþþþ»
-0084BA 5890 76A4/0D99       08B20 48525    6132.              ACALL DOCNTL              Process control file for offload
 0084C0 4110 0001            00001 48529    6133.              LA    R1,1                Set master record buffer
 0084C4 4D90 636C            00382 48530    6134.              LCALL GRADR               Compute address to record
 0084C8 1821                       48532    6135.              LR    SR,R1               Copy address of base block
 USING  HISBREC,R2                 48533    6136.              WITH  (HISBREC,SR),BEGIN  Addressability to base block
 0084CA 9110 C1C1/47E0_001C1       48547  1 6136.01              IF    FLDAILY,BEGIN       Daily incremental merge processing
                                   48562  2 6136.02                ¿þþþþþþþþþþþþþþþþþþþþþþþþþþþþþþþþþþþþþþþþÜ
                                   48563  2 6136.03                Ÿ  Retrieve date of last full file dump  Ÿ
                                   48564  2 6136.04                ¾þþþþþþþþþþþþþþþþþþþþþþþþþþþþþþþþþþþþþþþþ»
 0084D2 5810 2014/1211       00014 48565  2 6136.05                LT    R1,HISBDMPS         Record number of last dump
 0084D8 4770 708A            08506 48569  2 6136.06                IF    Z,BEGIN             No dump record exists
 0084DC 4110 77D6/4100_      08C52 48580  3 6136.07                  VSEG  'VDMP831I - No dump record exists, clearing '
 0084EA 4110 7801/4100_      08C7D 48589  3 6136.08                  VSEG  'incremental merge option.'
 0084F8 5890 7668/0D99       08AE4 48598  3 6136.09                  VWRITE ,                  Write to report file
 0084FE 9204 C05B      0005B       48603  3 6136.1                   MVI   RETCODE+3,4         Set warning return code
 008502 94EF C1C1      001C1       48604  3 6136.11                  CLEAR FLDAILY             Clear incremental merge
 008506 708E/47F0 70A8 08506 084DA 48611  2 6136.12                END   ELSE,BEGIN
 00850A 4100 0002            00002 48626  3 6136.13                  LA    R0,2                Set buffer number two for dump
 00850E 5890 76A8/0D99       08B24 48627  3 6136.14                  ACALL HIO                 Read last dump record into buffer
 USING  HISDREC,R1                 48631  3 6136.15                  WITH  (HISDREC,R1),BEGIN  Addressability to dump record
 008514 D203 C160 100C 00160 0000C 48645  4 6136.16                    MVC   INCTODBS,HISDCLCK   Save time of last dump
 DROP   HISDREC,R1                 48646  3 6136.17                  END   ,
 00851A 4100 0002/5890_      00002 48654  3 6136.18                  CLRNW 2                   Release buffer number two
 008524                            48660  2 6136.19                END   ,
 008524                            48664  1 6136.2               END   ,
                                   48668  1 6136.21              ¿þþþþþþþþþþþþþþþþþþþþþþþþþþþþþþþþþþþþþþÜ
                                   48669  1 6136.22              Ÿ  Check for incremental dump records  Ÿ
                                   48670  1 6136.23              ¾þþþþþþþþþþþþþþþþþþþþþþþþþþþþþþþþþþþþþþ»
 008524 5810 2018/1211       00018 48671  1 6137.                LT    R1,HISBINCS         Set record number for first inc
 00852A 4770 70CE            0854A 48675  1 6138.                IF    Z,BEGIN             Error - no incremental records
 00852E 4110 7720/4100_      08B9C 48686  2 6139.                  VSEG  'VDMP579E - No incremental records in file.'
 00853C 5890 7668/0D99       08AE4 48695  2 6140.                  VWRITE ,                  Write to report file
 008542 921C C05B      0005B       48700  2 6141.                  MVI   RETCODE+3,HST_ERR   Set return code
 008546 47F0 60DA            000F0 48701  2 6142.                  B     DUMPEXIT            And return to system
 00854A                            48702  1 6143.                END   ,
 DROP   HISBREC,R2                 48706    6143.1             END   ,
-00854A 4100 0002            00002 48715    6144.              LA    R0,2                Set buffer two for inc record
 00854E 5890 76A8/0D99       08B24 48716    6145.              ACALL HIO                 Read first incremental record
 008554 1821                       48720    6147.              LR    SR,R1               Save incremental record address
 USING  HISIREC,R2                 48721    6148.              USING HISIREC,SR          ## addressability to inc record
 008556 9110 C1C1/47E0_001C1       48730    6149.              IF    FLDAILY,BEGIN       DAILY MERGE PROCESSING
 00855E 5810 2004/1211       00004 48745  1 6155.                LT    R1,HISINXT          ANY PREVIOUS INCREMENTAL RECORD
 008564 4770 7116            08592 48749  1 6155.01              IF    Z,BEGIN
 008568 4110 781A/4100_      08C96 48760  2 6155.02                VSEG  'VDMP762W - No previous incremental record, '
1VDMP     (VDMP21) (09:46) (22MAR04) ORVYL's File System Dump Program: Offload Data                                         Page  260
0Current Usings:  (HISIREC,R2) (DUMP,R6) (*,R7) (DWA,R12)
0Loc    Object Code    Addr1 Addr2  Stmt Lv Lineno    Source Statement           (Hibal 5, Asmedit 3.3)  HLASM R4.0  2004/03/22 09.46
+___    ______ ____    _____ _____  ____ __ ______    ______ _________
0008576 4110 774A/4100_      08BC6 48769  2 6155.03                VSEG  'clearing incremental merge option.'
 008584 5890 7668/0D99       08AE4 48778  2 6155.04                VWRITE ,
 00858A 9204 C05B      0005B       48783  2 6155.05                MVI   RETCODE+3,4         SET WARNING RETURN CODE
 00858E 94EF C1C1      001C1       48784  2 6155.06                CLEAR FLDAILY             CLEAR DAILY MERGE CODE
 008592 711A/47F0 71D4 08592 08566 48791  1 6155.07              END   ELSE,BEGIN
 008596 4100 0003            00003 48806  2 6155.08                LA    R0,3                SET BUFFER THREE FOR LAST-1 INC
 00859A 5890 76A8/0D99       08B24 48807  2 6155.09                ACALL HIO                 READ LAST-1 INCREMENTAL DUMP
 0085A0 1831                       48811  2 6155.1                 LR    TR,R1               SAVE ADDRESS OF LAST-1 INCREMENT
 0085A2 5810 300C            0000C 48812  2 6155.11                L     R1,HISICLCK-HISIREC(,TR)   SET TIME OF LAST
 0085A6 5510 C160            00160 48813  2 6155.12                CL    R1,INCTODBS         COMPARE AGAINST LAST FULL DUMP
 0085AA 4730 7158            085D4 48814  2 6155.13                IF    LE,BEGIN
 0085AE 4110 7845/4100_      08CC1 48825  3 6155.14                  VSEG  'VDMP985I - CLearing daily merge, base dump '
 0085BC 4110 7870/4100_      08CEC 48834  3 6155.15                  VSEG  'is current.'
 0085CA 5890 7668/0D99       08AE4 48843  3 6155.16                  VWRITE ,                  Write to report file
 0085D0 94EF C1C1      001C1       48848  3 6155.17                  CLEAR FLDAILY             CLEAR DAILY MERGE CODE
 0085D4 715C/47F0 71CA 085D4 085AC 48855  2 6155.18                END   ELSE,BEGIN
 0085D8 4110 75E4/4100_      08A60 48870  3 6155.19                  VSEG  'VDMP455I - Incremental daily merge in is effect.'
 0085E6 5890 7668/0D99       08AE4 48879  3 6155.2                   VWRITE ,                  WRITE TO REPORT FILE
 0085EC 4110 3014            00014 48884  3 6155.21                  LA    R1,HISIDSN-HISIREC(,TR) ADDRESS OF DATA SET NAME
 0085F0 D62B 1000 1000 00000 00000 48885  3 6155.22                  OC    @R1(L'HISIDSN),@R1      TEST FOR TAPE DATA SET PRESENT
 0085F6 4770 719A            08616 48886  3 6155.23                  IF    Z,BEGIN
 0085FA 4110 787B/4100_      08CF7 48897  4 6155.24                    VSEG  'VDMP224E - Previous increment has pool records.'
 008608 5890 7668/0D99       08AE4 48906  4 6155.25                    VWRITE ,
 00860E 921C C05B      0005B       48911  4 6155.26                    MVI   RETCODE+3,HST_ERR   SET RETURN CODE
 008612 47F0 60DA            000F0 48912  4 6155.27                    B     DUMPEXIT            ABORT PROCESSING
 008616 719E/47F0 71CA 08616 085F8 48913  3 6155.28                  END   ELSE,BEGIN
 00861A D22B C68A 1000 0068A 00000 48928  4 6155.29                    MVC   MDSN+6(44),@R1      SET DATA SET TO MERGE
 008620 4110 76B0/4100_      08B2C 48929  4 6155.3                     VSEG  'VDMP223I - Merging with DSN='
 00862E 4110 3014            00014 48938  4 6155.31                    LA    R1,HISIDSN-HISIREC(,TR)
 008632 4100 002C            0002C 48939  4 6155.32                    LA    R0,44                 SET MAXIMUM LENGTH
 008636 4D90 616A            00180 48940  4 6155.33                    LCALL RTRIM                   TRIM TRAILING BLANKS
 00863A 5890 7664/0D99       08AE0 48942  4 6155.34                    VSEG  (R1),(R0)                 ADD TO MESSAGE
 008640 5890 7668/0D99       08AE4 48957  4 6155.35                    VWRITE ,                          AND WRITE TO FILE
 008646                            48962  3 6155.36                  END   ,
 008646                            48966  2 6155.37                END   ,
 008646 4100 0003            00003 48970  2 6155.38                LA    R0,3                SET BUFFER THREE
 00864A 5890 76AC/0D99       08B28 48971  2 6155.39                ACALL CLRNW               CLEAR AND RELEASE BUFFER THREE
 008650                            48975  1 6155.4               END   ,
 008650                            48979    6155.41            END   ,
-008650 5810 2010/1211       00010 48984    6155.43            LT    R1,HISIPOOL         Set first pool record
 008656 4770 71FA            08676 48988    6155.44            IF    Z,BEGIN             No pool records exist
 00865A 4110 76CC/4100_      08B48 48999  1 6155.45              VSEG  'VDMP581E - NO POOL Records exist for incemental rec.'
 008668 5890 7668/0D99       08AE4 49008  1 6155.46              VWRITE ,                  Write to report file
 00866E 921C C05B      0005B       49013  1 6155.47              MVI   RETCODE+3,HST_ERR   Set return code
 008672 47F0 60DA            000F0 49014  1 6155.48              B     DUMPEXIT            And return to the system
 008676                            49015    6155.49            END   ,
1VDMP     (VDMP21) (09:46) (22MAR04) ORVYL's File System Dump Program: Offload Data                                         Page  261
0Current Usings:  (HISIREC,R2) (DUMP,R6) (*,R7) (DWA,R12)
0Loc    Object Code    Addr1 Addr2  Stmt Lv Lineno    Source Statement           (Hibal 5, Asmedit 3.3)  HLASM R4.0  2004/03/22 09.46
+___    ______ ____    _____ _____  ____ __ ______    ______ _________
0                                  49020    6155.51   ¿þþþþþþþþþþþþþþþþþþþþþþþþþþþþþþþþþþþþþþþþþþþþþþþþþþþþþþþþþþþþþþþþþþþþþÜ
                                   49021    6155.52   Ÿ                                                                     Ÿ
                                   49022    6155.53   Ÿ  BUILD ALL POOL CONTROL BLOCKS                                      Ÿ
                                   49023    6155.54   Ÿ                                                                     Ÿ
                                   49024    6155.55   Ÿ*******************************************************************  Ÿ
                                   49025    6155.94   Ÿ                                                                     Ÿ
                                   49026    6155.95   Ÿ        SR Points to the incremental dump record from the            Ÿ
                                   49027    6155.96   Ÿ           history file.                                             Ÿ
                                   49028    6155.97   Ÿ                                                                     Ÿ
                                   49029    6155.98   Ÿ                                                                     Ÿ
                                                      ¾þþþþþþþþþþþþþþþþþþþþþþþþþþþþþþþþþþþþþþþþþþþþþþþþþþþþþþþþþþþþþþþþþþþþþ»
-008676 4140 C134            00134 49031    6156.              LA    QR,INCCMPLT         Set anchor address
 00867A 1211/4780 7274             49032    6157.              WHILE (R1,NZ),BEGIN       Build pool control blocks
 008680 4100 0003            00003 49048  1 6158.                LA    R0,3                Set buffer three for pool blocks
 008684 5890 76AC/0D99       08B28 49049  1 6159.                ACALL CLRNW               Clear any previous record
 00868A 5890 76A8/0D99       08B24 49053  1 6160.                ACALL HIO                 Read pool control record
 008690 1831                       49057  1 6161.                LR    TR,R1               Save address of pool record
 USING  HISPREC,R3                 49058  1 6162.                USING HISPREC,TR          ## addressability to pool record
 008692 0700/47F0 7224_            49067  1 6163.                GETMAIN RC,LV=L'INCDSN    Length of idscn control block
 0086AC 12FF/4780 7252             49081  1 6164.                IF    (R15,NZ),BEGIN
 0086B2 4110 78AA/4100_      08D26 49095  2 6165.                  VSEG  'VDMP583E - Insufficient memory for offload.'
 0086C0 5890 7668/0D99       08AE4 49104  2 6166.                  VWRITE ,                  Write to report file
 0086C6 9220 C05B      0005B       49109  2 6167.                  MVI   RETCODE+3,NO_MEM    Set return code
 0086CA 47F0 60DA            000F0 49110  2 6168.                  B     DUMPEXIT            And return to system
 0086CE                            49111  1 6169.                END   ,
 USING  INCDSN,R1                  49115  1 6170.                USING INCDSN,R1           ## addressability to block
 0086CE D743 1000 1000 00000 00000 49124  1 6171.                CLEAR INCDSN              Zero control block
 0086D4 D203 1008 7700 00008 08B7C 49131  1 6172.                MVC   INCDNAME,=C'INCD'   Set eye-catcher id
 0086DA D22B 1018 3010 00018 00010 49132  1 6173.                MVC   INCDDSN,HISPDSN     Set data set name
 0086E0 1804                       49133  1 6174.                LR    R0,QR               Set for enqueue
 0086E2 4D90 61A8            001BE 49134  1 6175.                LCALL ENQB                Add to end of chain
 0086E6 1841                       49136  1 6176.                LR    QR,R1               Save for next pass
 DROP   INCDSN,R1                  49137  1 6177.                DROP  R1                  ## release incdsn block
 0086E8 5810 3004            00004 49144  1 6178.                L     R1,HISPNXT          Set forward chain
 0086EC 47F0 71FE            0867A 49145    6179.              END   ,
 0086F0 4100 0003            00003 49150    6180.              LA    R0,3                Set buffer three for release
 0086F4 5890 76AC/0D99       08B28 49151    6181.              ACALL CLRNW               Release buffer
 DROP   HISIREC,R2                 49155    6182.              DROP  SR                  ## release inc record
 DROP   HISPREC,R3                 49162    6183.              DROP  TR                  ## release pool record
 0086FA 4110 78D5/4100_      08D51 49169    6184.              VSEG  'VDMP454I - Pool control blocks built.'
 008708 5890 7668/0D99       08AE4 49178    6185.              VWRITE ,
1VDMP     (VDMP21) (09:46) (22MAR04) ORVYL's File System Dump Program: Offload Data                                         Page  262
0Current Usings:  (DUMP,R6) (*,R7) (DWA,R12)
0Loc    Object Code    Addr1 Addr2  Stmt Lv Lineno    Source Statement           (Hibal 5, Asmedit 3.3)  HLASM R4.0  2004/03/22 09.46
+___    ______ ____    _____ _____  ____ __ ______    ______ _________
0                                  49184    6186.01   *
                                   49185    6186.02   *  INITIALIZE LOCATE PARAMETER LIST
                                   49186    6186.03   *
 00870E 9244 CAC4      00AC4       49187    6186.04            MVI   IDOFLST,X'44'       Set flag byte
 008712 4110 CAE4            00AE4 49188    6186.05            LA    R1,IDOFWRK          Address of locate work area
 008716 5010 CAD0            00AD0 49189    6186.06            ST    R1,IDOFLST+12       Set address of work area
-                                  49191    6186.08            ¿þþþþþþþþþþþþþþþþþþþþþþþþþþþþþþþþþþþþþþþþþþþþþþþþþþþþþþþÜ
                                   49192    6186.09            Ÿ  If processing daily incremental merge build dynamic  Ÿ
                                   49193    6186.1             Ÿ  allocation parameter lists for allocating input      Ÿ
                                   49194    6186.11            Ÿ  incremental dump file.                               Ÿ
                                   49195    6186.12            ¾þþþþþþþþþþþþþþþþþþþþþþþþþþþþþþþþþþþþþþþþþþþþþþþþþþþþþþþ»
000871A 9110 C1C1/47E0_001C1       49197    6186.14            IF    FLDAILY,BEGIN       Daily merge incremental
 USING  IHADCB,R1                  49212  1 6186.15              WITH  (IHADCB,R1),BEGIN
 008722 4110 C7AC            007AC 49226  2 6186.16                LA    R1,INCODCB          Address for merged data
 008726 4D90 60FC            00112 49227  2 6186.17                LCALL DCBINIT             Initialize common fields
 00872A 9650 1024      00024       49229  2 6186.18                SET   DCBRECFM.DCBRECV+DCBRECBR     RECFM=VB
                                   49239  2 6186.19   *        SET   DCBRECFM.DCBRECSB             RECFM=VBS
 00872E 9650 1032      00032       49240  2 6186.47                SET   DCBMACR1.DCBMRGET+DCBMRMVP    MACRF=PM
 008732 9640 101A      0001A       49250  2 6186.48                SET   DCBDSRG1.DCBDSGPS             DSORG=PS
 008736 D207 1028 7614 00028 08A90 49257  2 6186.49                MVC   DCBDDNAM,=CL8'INCOLD'         DDNAME=INCOLD
 00873C 5800 7704            08B80 49258  2 6186.5                 L     R0,=A(CHKM1ST)                EODAD Address
 008740 5000 1020            00020 49259  2 6186.51                ST    R0,DCBEODAD                   Save into DCB
 DROP   IHADCB,R1                  49260  1 6186.52              END   ,
 008744 4110 C440            00440 49268  1 6186.53              LA    R1,IINCRB           Address of SVC 99 request block
 008748 5010 C43C            0043C 49269  1 6186.54              ST    R1,IINCP              Save in pointer
 00874C 9680 C43C      0043C       49270  1 6186.55              OI    IINCP,X'80'             And mark only one parameter
0008750 4120 C440            00440 49272  1 6186.57              LA    SR,IINCRB           Address of SVC 99 request block
 USING  S99RB,R2                   49273  1 6186.58              WITH  (S99RB,SR),BEGIN    Addressability to RB
 008754 9214 2000      00000       49287  2 6186.59                MVI   S99RBLN,20          Set length of SVC 99 RB
 008758 9201 2001      00001       49288  2 6186.6                 MVI   S99VERB,S99VRBAL    Set allocation request
 00875C 4110 C468            00468 49289  2 6186.61                LA    R1,MINCPTRS         Address of pointer units
 008760 5010 2008            00008 49290  2 6186.62                ST    R1,S99TXTPP         Set address into list
 DROP   S99RB,R2                   49291  1 6186.63              END   ,
 008764 4110 C676            00676 49299  1 6186.64              LA    R1,MDDN             Address of ddname unit
 008768 5010 C468            00468 49300  1 6186.65              ST    R1,MINCPTRS+00      Save in pointer list
000876C 4110 C684            00684 49302  1 6186.67              LA    R1,MDSN             Address of dsname unit
 008770 5010 C46C            0046C 49303  1 6186.68              ST    R1,MINCPTRS+04      Save in pointer list
0008774 4110 C6BD            006BD 49305  1 6186.7               LA    R1,MSTAT            Address of status disp=old
 008778 5010 C470            00470 49306  1 6186.71              ST    R1,MINCPTRS+08      Save in pointer list
000877C 4110 C6B6            006B6 49308  1 6186.73              LA    R1,MNDSP            Address of normal disposition
 008780 5010 C474            00474 49309  1 6186.74              ST    R1,MINCPTRS+12      Save in pointer list
0008784 4110 C6C4            006C4 49311  1 6186.76              LA    R1,MFREE            Address of free unit
 008788 5010 C478            00478 49312  1 6186.77              ST    R1,MINCPTRS+16      Save in pointer list
 00878C 9680 C478      00478       49313  1 6186.78              OI    MINCPTRS+16,X'80'   Mark last pointer unit
 008790 D205 C676 776C 00676 08BE8 49314  1 6186.79              MVC   MDDN(6),=AL2(DALDDNAM,1,8)
 008796 D207 C67C 7614 0067C 08A90 49315  1 6186.8               MVC   MDDN+6(8),=CL8'INCOLD'
1VDMP     (VDMP21) (09:46) (22MAR04) ORVYL's File System Dump Program: Offload Data                                         Page  263
0Current Usings:  (DUMP,R6) (*,R7) (DWA,R12)
0Loc    Object Code    Addr1 Addr2  Stmt Lv Lineno    Source Statement           (Hibal 5, Asmedit 3.3)  HLASM R4.0  2004/03/22 09.46
+___    ______ ____    _____ _____  ____ __ ______    ______ _________
000879C D205 C684 7772 00684 08BEE 49316  1 6186.81              MVC   MDSN(6),=AL2(DALDSNAM,1,44)
 0087A2 D205 C6BD 7778 006BD 08BF4 49317  1 6186.82              MVC   MSTAT(6),=AL2(DALSTATS,1,1)
 0087A8 9208 C6C3      006C3       49318  1 6186.83              MVI   MSTAT+6,X'08'
 0087AC D205 C6B6 777E 006B6 08BFA 49319  1 6186.84              MVC   MNDSP(6),=AL2(DALNDISP,1,1)
 0087B2 9208 C6BC      006BC       49320  1 6186.85              MVI   MNDSP+6,X'08'
 0087B6 D203 C6C4 7708 006C4 08B84 49321  1 6186.86              MVC   MFREE(4),=AL2(DALCLOSE,0)
00087BC 4110 C43C            0043C 49323  1 6186.88              LA    R1,IINCP            ADDRESS OF SVC99 RB
 0087C0 0A63                       49324  1 6186.89              DYNALLOC ,
 0087C2 12FF/4780 735C             49327  1 6186.9               IF    (R15,NZ),BEGIN
 0087C8 4110 006F/4100_      0006F 49341  2 6186.91                ABEND 111,DUMP
 0087D8                            49350  1 6186.92              END   ,
 0087D8 9680 C4D0      004D0       49354  1 6186.93              OI    ITOPNLST,X'80'      INSURE ONLY ONE DCB
 0087DC 4110 C4D0/94F0_      004D0 49355  1 6186.94              OPEN  (INCODCB,(INPUT)),MF=(E,ITOPNLST)
 USING  IHADCB,R1                  49364  1 6186.95              WITH  (IHADCB,R1),BEGIN
 0087F6 4110 C7AC            007AC 49378  2 6186.96                LA    R1,INCODCB          ADDRESS FOR MERGED DATA
 0087FA 9140 1024/47E0_00024       49379  2 6186.97                IF    DCBRECFM.DCBRECV,'CLEAR R0'   RECFM=V
 008804 1F00/BF03 1052             49404  2 6186.98                L2    R0,DCBLRECL         LOAD LRECL FROM DCB
 DROP   IHADCB,R1                  49410  1 6186.99              END   ,
 00880A 0700/47F0 7398_            49418  1 6187.74              GETMAIN RC,LV=(0)         REQUEST BUFFER
 00881C 12FF/4780 73C2             49430  1 6187.75              IF    (R15,NZ),BEGIN
 008822 4110 78FA/4100_      08D76 49444  2 6187.76                VSEG  'Insufficient memory'
 008830 5890 7668/0D99       08AE4 49453  2 6187.77                VWRITE ,
 008836 9220 C05B      0005B       49458  2 6187.78                MVI   RETCODE+3,NO_MEM
 00883A 47F0 60DA            000F0 49459  2 6187.79                B     DUMPEXIT
 00883E                            49460  1 6187.8               END   ,
 00883E 5010 C168            00168 49464  1 6187.81              ST    R1,INCOBUFR         SAVE BUFFER ADDRESS
 008842 1801                       49465  1 6187.82              LR    R0,R1               MOVE BUFFER ADDRESS
 008844 4110 C7AC/1FFF_      007AC 49466  1 6187.83              GET   INCODCB,(0)         PRIME DATA BUFFER
 008850 4110 C7AC            007AC 49472  1 6187.84              LA    R1,INCODCB
 USING  IHADCB,R1                  49473  1 6187.85              WITH  (IHADCB,R1),BEGIN
 008854 5800 770C            08B88 49487  2 6187.86                L     R0,=A(CHKMEOD)
 008858 BE07 1021            00021 49488  2 6187.87                ST3   R0,DCBEODAD+1       SAVE INTO DCB
 DROP   IHADCB,R1                  49490  1 6187.88              END   ,
 00885C                            49498    6187.89            END   ,
-                                  49503    6187.91   ********************************************************************
                                   49504    6187.92   *                                                                  *
                                   49505    6187.93   *  DUMP IXR DATA AND INCREMENTAL SEGMENTS TO TAPE                  *
                                   49506    6187.94   *                                                                  *
                                   49507    6187.95   ********************************************************************
-00885C 5890 7710/0D99       08B8C 49509    6187.97            ACALL TAPEINC             Offload data to tape
1VDMP     (VDMP21) (09:46) (22MAR04) ORVYL's File System Dump Program: Offload Data                                         Page  264
0Current Usings:  (DUMP,R6) (*,R7) (DWA,R12)
0Loc    Object Code    Addr1 Addr2  Stmt Lv Lineno    Source Statement           (Hibal 5, Asmedit 3.3)  HLASM R4.0  2004/03/22 09.46
+___    ______ ____    _____ _____  ____ __ ______    ______ _________
0                                  49514    6187.99   ********************************************************************
                                   49515    6188.     *                                                                  *
                                   49516    6189.     *  DEQUEUE POOL BLOCKS FROM HISTORY FILE                           *
                                   49517    6190.     *                                                                  *
                                   49518    6190.1    ********************************************************************
-008862 4110 0002            00002 49520    6192.              LA    R1,2                Set buffer two
 008866 4D90 636C            00382 49521    6193.              LCALL GRADR               Compute address to inc record
 00886A 1821                       49523    6194.              LR    SR,R1               Copy address of inc record
 USING  HISIREC,R2                 49524    6195.              USING HISIREC,SR          ## addressability to inc record
 00886C D22B 2014 C268 00014 00268 49533    6195.1             MVC   HISIDSN,TAPEDSN     Set offload data set name
 008872 5810 2010            00010 49534    6196.              L     R1,HISIPOOL         Set first pool record
 008876 D703 2010 2010 00010 00010 49535    6197.              CLEAR HISIPOOL            Zero pool pointer
 00887C 1211/4780 742E             49542    6198.              WHILE (R1,NZ),BEGIN       Free all records
 008882 4100 0003            00003 49558  1 6199.                LA    R0,3                Set buffer number three
 008886 5890 76A8/0D99       08B24 49559  1 6200.                ACALL HIO                 Read pool record in
 00888C 1831                       49563  1 6201.                LR    TR,R1               Copy address of record
 USING  HISPREC,R3                 49564  1 6202.                USING HISPREC,TR          ## addressability to record
 00888E 4110 3010            00010 49573  1 6203.                LA    R1,HISPDSN          Set address of data set name
 008892 4D90 7498            08914 49574  1 6204.                LCALL OFFDELD             Scratch data set from volume
 008896 4100 0003            00003 49576  1 6205.                LA    R0,3                Set buffer number three
 00889A 5840 3004            00004 49577  1 6206.                L     QR,HISPNXT          Next next record
 00889E 5890 7714/0D99       08B90 49578  1 6207.                ACALL FREREC              Release current record
 0088A4 1814                       49582  1 6208.                LR    R1,QR               Set for next pass
 0088A6 47F0 7400            0887C 49583    6209.              END   ,
 0088AA 4100 0002            00002 49588    6210.              LA    R0,2                Set buffer number two
 0088AE 5890 7718/0D99       08B94 49589    6211.              ACALL CLRIO               Update incremental block
 0088B4 4110 761C/4100_      08A98 49593    6212.              VSEG  'VDMP644I - History file updated.'
 0088C2 5890 7668/0D99       08AE4 49602    6213.              VWRITE ,                  Write to report file
 DROP   HISIREC,R2                 49607    6214.              DROP  SR                  ## release incremental record
 DROP   HISPREC,R3                 49614    6215.              DROP  TR                  ## release pool record
00088C8 47F0 60DA            000F0 49622    6216.              B     DUMPEXIT            And return for right now
1VDMP     (VDMP21) (09:46) (22MAR04) ORVYL's File System Dump Program: Offload Data                                         Page  265
0Current Usings:  (DUMP,R6) (*,R7) (DWA,R12)
0Loc    Object Code    Addr1 Addr2  Stmt Lv Lineno    Source Statement           (Hibal 5, Asmedit 3.3)  HLASM R4.0  2004/03/22 09.46
+___    ______ ____    _____ _____  ____ __ ______    ______ _________
0                                  49624    6216.02   ¿þþþþþþþþþþþþþþþþþþþþþþþþþþþþþþþþþþþþþþþþþþþþþþþþþþþþþþþþþþþþþþþþþþþþþÜ
                                   49625    6216.03   Ÿ                                                                     Ÿ
                                   49626    6216.04   Ÿ  End-of-Data Exit for initial prime of old incremental data         Ÿ
                                   49627    6216.05   Ÿ                                                                     Ÿ
                                                      ¾þþþþþþþþþþþþþþþþþþþþþþþþþþþþþþþþþþþþþþþþþþþþþþþþþþþþþþþþþþþþþþþþþþþþþ»
00088CC                            49629    6216.07   CHKM1ST  LABEL ,
 0088CC 50E0 D000/41D0_      00000 49631    6216.08            VPUSH R14,,*              SAVE RETURN ADDRESS
 0088D4 4110 7784/4100_      08C00 49634    6216.09            VSEG  'VDMP721I - No records on previous incremental tape'
 0088E2 5890 7668/0D99       08AE4 49643    6216.1             VWRITE ,                  Write to report file
 0088E8 94EF C1C1      001C1       49648    6216.11            CLEAR FLDAILY             CLEAR MERGE FLAG
 0088EC 4110 C4D0/43E1_      004D0 49655    6216.12            CLOSE INCODCB,MF=(E,ITOPNLST)
 008902 4110 C7AC            007AC 49663    6216.13            LA    R1,INCODCB
 008906 4D90 611E            00134 49664    6216.14            LCALL FREPOOL
 00890A 4BD0 77B6/58E0_      08C32 49666    6216.15            VPOP  R14,,*
 008912 07FE                       49669    6216.99            BR    R14                 AND RETURN AFTER "GET" CALL
1VDMP     (VDMP21) (09:46) (22MAR04) ORVYL's File System Dump Program: Offload Data                                         Page  266
0Current Usings:  (DUMP,R6) (*,R7) (DWA,R12)
0Loc    Object Code    Addr1 Addr2  Stmt Lv Lineno    Source Statement           (Hibal 5, Asmedit 3.3)  HLASM R4.0  2004/03/22 09.46
+___    ______ ____    _____ _____  ____ __ ______    ______ _________
0                                  49671    6218.     ********************************************************************
                                   49672    6219.     *                                                                  *
                                   49673    6220.     *  Scratch incremental data set from pool volume                   *
                                   49674    6221.     *                                                                  *
                                   49675    6222.     *        R1 -> Contains address of data set name to scratch        *
                                   49676    6223.     *                                                                  *
                                   49677    6224.     ********************************************************************
-008914                            49679    6226.     OFFDELD  LABEL ,                   Scratch incremental data set
 008914 9029 D000/41D0_      00000 49681    6227.              VPUSH SR,RAR,*            Save calling registers
 00891C 1821                       49684    6228.              LR    SR,R1               Save pointer to data set name
 00891E 5020 CAC8            00AC8 49685    6229.              ST    SR,IDOFLST+4        Address of data set name
 008922 9244 CAC4      00AC4       49686    6229.01            MVI   IDOFLST,X'44'       Set catalog locate flags
 008926 4110 CAC4/0A1A       00AC4 49687    6233.              LOCATE IDOFLST            Locate volume for data set
 00892C 12FF/4780 74DA             49691    6234.              IF    (R15,NZ),BEGIN      Error during locate
 008932 4110 790D/4100_      08D89 49705  1 6235.                VSEG  'VDMP832E - Locate error'
 008940 5890 7668/0D99       08AE4 49714  1 6236.                VWRITE ,                  Write to report file
 008946 4110 000B/4100_      0000B 49719  1 6237.                ABEND  11,DUMP
 008956                            49728    6238.              END   ,
 008956 9241 CAD4      00AD4       49732    6239.              MVI   IDOFSCR,X'41'       Set scratch flags
 00895A 5020 CAD8            00AD8 49733    6240.              ST    SR,IDOFSCR+4        Set address of data set name
 00895E 4110 CAE4            00AE4 49734    6241.              LA    R1,IDOFWRK          Address of work area
 008962 5010 CAE0            00AE0 49735    6242.              ST    R1,IDOFSCR+12       Set volume list address
 008966 D201 1000 77B8 00000 08C34 49736    6243.              MVC   @R1(2),=AL2(1)      Set only one volume
 00896C D701 100C 100C 0000C 0000C 49737    6244.              XC    @R1+12(2),@R1+12    Zero scratch status code
 008972 4110 1006            00006 49738    6245.              LA    R1,@R1+6            Pointer to volume serial
 008976 5890 771C/0D99       08B98 49739    6246.              ACALL FINDUCB             Set ucb address
 00897C 1801                       49743    6247.              LR    R0,R1               Copy ucb address
 00897E 4110 CAD4/0A1D       00AD4 49744    6248.              SCRATCH IDOFSCR           Remove data set from volume
 008984 12FF/4780 7532             49748    6249.              IF    (R15,NZ),BEGIN      Check error returns
 00898A 4110 763C/4100_      08AB8 49762  1 6250.                VSEG  'VDMP845E - Scratch error'
 008998 5890 7668/0D99       08AE4 49771  1 6251.                VWRITE ,                  Write to report file
 00899E 4110 000C/4100_      0000C 49776  1 6252.                ABEND 12,DUMP
 0089AE                            49785    6253.              END   ,
 0089AE 920C CAC4      00AC4       49789    6254.              MVI   IDOFLST,X'0C'       Set uncatalog flags
 0089B2 4110 CAC4/0A1A       00AC4 49790    6255.              CATALOG IDOFLST           Uncatalog data set
 0089B8 12FF/4780 7566             49795    6256.              IF    (R15,NZ),BEGIN      Bad return code
 0089BE 4110 77BA/4100_      08C36 49809  1 6257.                VSEG  'VDMP668E - Uncatalog error'
 0089CC 5890 7668/0D99       08AE4 49818  1 6258.                VWRITE ,
 0089D2 4110 000E/4100_      0000E 49823  1 6259.                ABEND 14,DUMP
 0089E2                            49832    6260.              END   ,
 0089E2 4110 7924/4100_      08DA0 49836    6261.              VSEG  'VDMP664I - '       Set message header
 0089F0 1812                       49845    6262.              LR    R1,SR               Copy data set name
 0089F2 4100 002C            0002C 49846    6263.              LA    R0,44               Set maximum length
 0089F6 4D90 616A            00180 49847    6264.              LCALL RTRIM               Strip trailing blanks
 0089FA 5890 7664/0D99       08AE0 49849    6265.              VSEG  (R1),(R0)           Report data set name
 008A00 4110 7654/4100_      08AD0 49864    6266.              VSEG  ' scratched from '  Indicate action of scratch
 008A0E 4110 CAEA            00AEA 49873    6267.              LA    R1,IDOFWRK+6        Address of volume serial
 008A12 4100 0006            00006 49874    6268.              LA    R0,6                Set maximum length
 008A16 4D90 616A            00180 49875    6269.              LCALL RTRIM               Strip trailing blanks
 008A1A 5890 7664/0D99       08AE0 49877    6270.              VSEG  (R1),(R0)           Add to message
 008A20 5890 7668/0D99       08AE4 49892    6271.              VWRITE ,                  Write to report file
 008A26 4BD0 77D4/9829_      08C50 49897    6272.              VPOP  SR,RAR,*            Restore calling registers
1VDMP     (VDMP21) (09:46) (22MAR04) ORVYL's File System Dump Program: Offload Data                                         Page  267
0Current Usings:  (DUMP,R6) (*,R7) (DWA,R12)
0Loc    Object Code    Addr1 Addr2  Stmt Lv Lineno    Source Statement           (Hibal 5, Asmedit 3.3)  HLASM R4.0  2004/03/22 09.46
+___    ______ ____    _____ _____  ____ __ ______    ______ _________
0008A2E 07F9                       49900    6273.              BR    RAR                 And return to caller
1VDMP     (VDMP21) (09:46) (22MAR04) ORVYL's File System Dump Program: Offload Data                                         Page  268
0Current Usings:  (DUMP,R6) (*,R7) (DWA,R12)
0Loc    Object Code    Addr1 Addr2  Stmt Lv Lineno    Source Statement           (Hibal 5, Asmedit 3.3)  HLASM R4.0  2004/03/22 09.46
+___    ______ ____    _____ _____  ____ __ ______    ______ _________
0008A30                            49902    6273.2             LTORG ,
 008A30 E5C4D4D7F0F8F8C9           49904                             =C'VDMP088I - Offload function of filedump.'
 008A58 C3D6D5E3D9D6D340           49905                             =CL8'CONTROL'
 008A60 E5C4D4D7F4F5F5C9           49906                             =C'VDMP455I - Incremental daily merge in is effect.'
 008A90 C9D5C3D6D3C44040           49907                             =CL8'INCOLD'
 008A98 E5C4D4D7F6F4F4C9           49908                             =C'VDMP644I - History file updated.'
 008AB8 E5C4D4D7F8F4F5C5           49909                             =C'VDMP845E - Scratch error'
 008AD0 40A2839981A38388           49910                             =C' scratched from '
 008AE0 00000000                   49911                             =V(VSEG)
 008AE4 00000000                   49912                             =V(VWRITE)
 008AE8 00001F42                   49913                             =A(FINDDD)
 008AEC E5C4D4D7F5F7F3C5           49914                             =C'VDMP573E - CONTROL file must be present for offload.'
 008B20 000020F6                   49915                             =A(DOCNTL)
 008B24 00003668                   49916                             =A(HIO)
 008B28 00003862                   49917                             =A(CLRNW)
 008B2C E5C4D4D7F2F2F3C9           49918                             =C'VDMP223I - Merging with DSN='
 008B48 E5C4D4D7F5F8F1C5           49919                             =C'VDMP581E - NO POOL Records exist for incemental rec.'
 008B7C C9D5C3C4                   49920                             =C'INCD'
 008B80 000088CC                   49921                             =A(CHKM1ST)
 008B84 001C0000                   49922                             =AL2(DALCLOSE,0)
 008B88 0000984C                   49923                             =A(CHKMEOD)
 008B8C 00008DAC                   49924                             =A(TAPEINC)
 008B90 00003912                   49925                             =A(FREREC)
 008B94 000037BC                   49926                             =A(CLRIO)
 008B98 00001FA6                   49927                             =A(FINDUCB)
 008B9C E5C4D4D7F5F7F9C5           49928                             =C'VDMP579E - No incremental records in file.'
 008BC6 8393858199899587           49929                             =C'clearing incremental merge option.'
 008BE8 000100010008               49930                             =AL2(DALDDNAM,1,8)
 008BEE 00020001002C               49931                             =AL2(DALDSNAM,1,44)
 008BF4 000400010001               49932                             =AL2(DALSTATS,1,1)
 008BFA 000500010001               49933                             =AL2(DALNDISP,1,1)
 008C00 E5C4D4D7F7F2F1C9           49934                             =C'VDMP721I - No records on previous incremental tape'
 008C32 0004                       49935                             =Y(4)
 008C34 0001                       49936                             =AL2(1)
 008C36 E5C4D4D7F6F6F8C5           49937                             =C'VDMP668E - Uncatalog error'
 008C50 0020                       49938                             =Y((RAR+1-(SR)+16*((SR)/(RAR+1))/((SR)/(RAR+1)))*4)
 008C52 E5C4D4D7F8F3F1C9           49939                             =C'VDMP831I - No dump record exists, clearing '
 008C7D 8995839985948595           49940                             =C'incremental merge option.'
 008C96 E5C4D4D7F7F6F2E6           49941                             =C'VDMP762W - No previous incremental record, '
 008CC1 E5C4D4D7F9F8F5C9           49942                             =C'VDMP985I - CLearing daily merge, base dump '
 008CEC 89A24083A4999985           49943                             =C'is current.'
 008CF7 E5C4D4D7F2F2F4C5           49944                             =C'VDMP224E - Previous increment has pool records.'
 008D26 E5C4D4D7F5F8F3C5           49945                             =C'VDMP583E - Insufficient memory for offload.'
 008D51 E5C4D4D7F4F5F4C9           49946                             =C'VDMP454I - Pool control blocks built.'
 008D76 C995A2A486868983           49947                             =C'Insufficient memory'
 008D89 E5C4D4D7F8F3F2C5           49948                             =C'VDMP832E - Locate error'
 008DA0 E5C4D4D7F6F6F4C9           49949                             =C'VDMP664I - '
1VDMP     (VDMP21) (09:46) (22MAR04) ORVYL's File System Dump Program: Offload Data                                         Page  269
0Current Usings:  (DUMP,R6) (*,R7) (DWA,R12)
0Loc    Object Code    Addr1 Addr2  Stmt Lv Lineno    Source Statement           (Hibal 5, Asmedit 3.3)  HLASM R4.0  2004/03/22 09.46
+___    ______ ____    _____ _____  ____ __ ______    ______ _________
0                                  49954    6275.     ********************************************************************
                                   49955    6276.     *                                                                  *
                                   49956    6277.     *  Process the incremental dump complete queue                     *
                                   49957    6278.     *                                                                  *
                                   49958    6279.     *        Write each IDSCB data to tape in the proper sequence      *
                                   49959    6280.     *                                                                  *
                                   49960    6281.     ********************************************************************
0008DAB 00/9029 D000/188_          49962    6283.     TAPEINC  VENTER SR,RAR,*,LOCAL     ENTER AND SAVE CALLING REGISTERS
 DROP   *,R7
 USING  *,R7
0008DB8 4110 C440            00440 49985    6289.              LA    R1,IINCRB           Address of SVC 99 request block
 008DBC 5010 C43C            0043C 49986    6290.              ST    R1,IINCP              Save in pointer
 008DC0 9680 C43C      0043C       49987    6291.              OI    IINCP,X'80'             And mark only one parameter
0008DC4 4120 C440            00440 49989    6293.              LA    SR,IINCRB           Address of SVC 99 request block
 USING  S99RB,R2                   49990    6294.              WITH  (S99RB,SR),BEGIN    Addressability to RB
 008DC8 9214 2000      00000       50004  1 6295.                MVI   S99RBLN,20          Set length of SVC 99 RB
 008DCC 9201 2001      00001       50005  1 6296.                MVI   S99VERB,S99VRBAL    Set allocation request
 008DD0 4110 C454            00454 50006  1 6297.                LA    R1,IINCPTRS         Address of pointer units
 008DD4 5010 2008            00008 50007  1 6298.                ST    R1,S99TXTPP         Set address into list
 DROP   S99RB,R2                   50008    6299.              END   ,
0008DD8 4110 C47C            0047C 50017    6301.              LA    R1,IINCDDN          Address of ddname unit
 008DDC 5010 C454            00454 50018    6302.              ST    R1,IINCPTRS+00      Save in pointer list
0008DE0 4110 C48A            0048A 50020    6303.              LA    R1,IINCDSN          Address of dsname unit
 008DE4 5010 C458            00458 50021    6304.              ST    R1,IINCPTRS+04      Save in pointer list
0008DE8 4110 C4BC            004BC 50023    6305.              LA    R1,IINCSTAT         Address of status disp=old
 008DEC 5010 C45C            0045C 50024    6306.              ST    R1,IINCPTRS+08      Save in pointer list
0008DF0 4110 C4C3            004C3 50026    6307.              LA    R1,IINCNDSP         Address of normal disposition
 008DF4 5010 C460            00460 50027    6308.              ST    R1,IINCPTRS+12      Save in pointer list
0008DF8 4110 C4CA            004CA 50029    6309.              LA    R1,IINCFREE         Address of free unit
 008DFC 5010 C464            00464 50030    6310.              ST    R1,IINCPTRS+16      Save in pointer list
 008E00 9680 C464      00464       50031    6311.              OI    IINCPTRS+16,X'80'   Mark last pointer unit
0008E04 D205 C47C 7558 0047C 09310 50033    6313.              MVC   IINCDDN(6),=AL2(DALDDNAM,1,8)
 008E0A D207 C482 7468 00482 09220 50034    6314.              MVC   IINCDDN+6(8),=CL8'INCFILE'
 008E10 D205 C48A 755E 0048A 09316 50035    6315.              MVC   IINCDSN(6),=AL2(DALDSNAM,1,44)
 008E16 D205 C4BC 7564 004BC 0931C 50036    6316.              MVC   IINCSTAT(6),=AL2(DALSTATS,1,1)
 008E1C 9208 C4C2      004C2       50037    6317.              MVI   IINCSTAT+6,X'08'    DISP=SHR
 008E20 D205 C4C3 756A 004C3 09322 50038    6318.              MVC   IINCNDSP(6),=AL2(DALNDISP,1,1)
 008E26 9208 C4C9      004C9       50039    6319.              MVI   IINCNDSP+6,X'08'    DISPOSITION OF KEEP
 008E2A D203 C4CA 7488 004CA 09240 50040    6320.              MVC   IINCFREE(4),=AL2(DALCLOSE,0)
0                                  50042    6321.01   *
                                   50043    6321.02   *  CHECK FOR IXRDUMP DATA RESIDING ON DISK TO PLACE AT THE
                                   50044    6321.03   *  BEGINNING OF THE INCREMENTAL DUMP TAPE
                                   50045    6321.04   *
1VDMP     (VDMP21) (09:46) (22MAR04) ORVYL's File System Dump Program: Offload Data                                         Page  270
0Current Usings:  (DUMP,R6) (*,R7) (DWA,R12)
0Loc    Object Code    Addr1 Addr2  Stmt Lv Lineno    Source Statement           (Hibal 5, Asmedit 3.3)  HLASM R4.0  2004/03/22 09.46
+___    ______ ____    _____ _____  ____ __ ______    ______ _________
0008E30 D22B C4F4 C268 004F4 00268 50047    6321.06            MVC   IDSNWRK,TAPEDSN     SET TAPE DSN PREFIX VALUE
 008E36 4110 C4F4            004F4 50048    6321.07            LA    R1,IDSNWRK          ADDRESS OF TAPE DSN PREFIX
 008E3A 5010 CAC8            00AC8 50049    6321.08            ST    R1,IDOFLST+4        SET INTO CAMLIST PARAMETER
 008E3E 4100 002C            0002C 50050    6321.09            LA    R0,44                 SET MAXIMUM DSN LENGTH
 008E42 4D90 616A            00180 50051    6321.1             LCALL RTRIM                   TRIM TRAILING BLANKS
 008E46 1E10                       50053    6321.11            ALR   R1,R0                     POINT TO END OF NAME
 008E48 D207 1000 7470 00000 09228 50054    6321.12            MVC   @R1(8),=C'.INC.IXR'         SET DISK IXR DSN NAME
 008E4E 4110 CAC4/0A1A       00AC4 50055    6321.13            LOCATE IDOFLST            TRY TO LOCATE VIA CATALOG
 008E54 12FF/4770 70F0             50059    6321.14            IF    (R15,Z),BEGIN
 008E5A 4110 7570/4100_      09328 50073  1 6321.15              VWRITE 'ALLOCATING IXR INPUT FILE.'
 008E6E 9680 C1C9      001C9       50087  1 6321.87              SET   DMPIXR              SET DUMPING IXR'S TO TAPE
 008E72 D207 C482 7478 00482 09230 50093  1 6321.88              MVC   IINCDDN+6(8),=CL8'INCIXIN'
 008E78 D22B C490 C4F4 00490 004F4 50094  1 6321.89              MVC   IINCDSN+6(44),IDSNWRK
 008E7E 4110 C43C            0043C 50095  1 6321.9               LA    R1,IINCP            ADDRESS OF SVC99 RB
 008E82 0A63                       50096  1 6321.91              DYNALLOC ,                ALLOCATE IXR INPUT FILE
 008E84 12FF/4780 70EA             50099  1 6321.92              IF    (R15,NZ),BEGIN
 008E8A 4110 758E/4100_      09346 50113  2 6321.93                VSEG  'VDMP449E - ERROR ALLOCATING IXR INPUT FILE.'
 008E98 5890 7490/0D99       09248 50122  2 6321.94                VWRITE ,                  WRITE TO REPORT FILE
 008E9E 47F0 60DA            000F0 50127  2 6321.95                B     DUMPEXIT            AND RETURN EMPTY HANDED
 008EA2                            50128  1 6321.96              END   ,
 008EA2 5890 7494/0D99       0924C 50132  1 6321.97              ACALL DUMPIX              DUMP IXR'S TO TAPE
 008EA8                            50136    6321.98            END   ,
-USING  IHADCB,R1                  50141    6323.              WITH  (IHADCB,R1),BEGIN
 008EA8 4110 C80C            0080C 50155  1 6323.1               LA    R1,INCFIL           ADDRESS OF INCREMENTAL DCB
 008EAC 4D90 60FC            00112 50156  1 6324.                LCALL DCBINIT             INITIALIZE COMMON FIELDS
 008EB0 9640 101A      0001A       50158  1 6325.                SET   DCBDSRG1.DCBDSGPS  DSORG=PS
 008EB4 4100 7A00            097B8 50165  1 6326.                LA    R0,INCEOD           END OF DATA ADDRESS
 008EB8 5000 1020            00020 50166  1 6327.                ST    R0,DCBEODAD         SAVE END OF DATA ADDRESS
 008EBC 9690 1024      00024       50167  1 6328.                SET   DCBRECFM.DCBRECF+DCBRECBR     RECFM=FB
 008EC0 D207 1028 7468 00028 09220 50177  1 6329.                MVC   DCBDDNAM,=CL8'INCFILE'    DDNAME=INCFILE
 008EC6 9650 1032      00032       50178  1 6330.                SET   DCBMACR1.DCBMRGET+DCBMRMVG    MACRF=GM
0008ECA 4110 C74C            0074C 50189  1 6331.                LA    R1,INCDCB           ADDRESS OF TAPE INCREMENTAL DCB
 008ECE 4D90 60FC            00112 50190  1 6332.                LCALL DCBINIT             INITIALIZE COMMON FIELDS
 008ED2 9640 101A      0001A       50192  1 6333.                SET   DCBDSRG1.DCBDSGPS             DSORG=PS
 008ED6 9650 1024      00024       50199  1 6334.                SET   DCBRECFM.DCBRECV+DCBRECBR     RECFM=VB
 008EDA 9608 1024      00024       50209  1 6334.1               SET   DCBRECFM.DCBRECSB             RECFM=VBS
 008EDE 9650 1033      00033       50216  1 6335.                SET   DCBMACR2.DCBMRPUT+DCBMRMVP    MACRF=PM
 008EE2 D207 1028 7480 00028 09238 50226  1 6336.                MVC   DCBDDNAM,=CL8'INCDATA'        DDNAME=INCDATA
 008EE8 D201 103E 758A 0003E 09342 50227  1 6337.                MVC   DCBBLKSI,=AL2(32760)          BLOCKSIZE=32760
 DROP   IHADCB,R1                  50228    6337.51            END   ,                   RELEASE DCB ADDRESSABILITY
-008EEE 9680 C4D0      004D0       50237    6340.              OI    ITOPNLST,X'80'      MARK ONLY ONE DCB
 008EF2 D703 C4D8 C4D8 004D8 004D8 50238    6341.              CLEAR IINCBLK             ZERO BLOCK COUNT TO TAPE
 008EF8 F870 C4DC 75B9 004DC 09371 50245    6342.              ZAP   IINCBYTE,=P'0'      ZERO BYTE COUNT TO TAPE
0                                  50247    6344.              ¿þþþþþþþþþþþþþþþþþþþþþþþþþþþþþþþþþþþþþþþþþþÜ
                                   50248    6345.              Ÿ  Process each incremental dump data set  Ÿ
                                   50249    6346.              ¾þþþþþþþþþþþþþþþþþþþþþþþþþþþþþþþþþþþþþþþþþþ»
 008EFE 4110 7480            09238 50250    6347.              LA    R1,=CL8'INCDATA'    CHECK IF DYNAMIC ALLOCATION
 008F02 5890 7498/0D99       09250 50251    6348.              ACALL FINDDD              CHECK FOR DDNAME THROUGH TIOT
1VDMP     (VDMP21) (09:46) (22MAR04) ORVYL's File System Dump Program: Offload Data                                         Page  271
0Current Usings:  (DUMP,R6) (*,R7) (DWA,R12)
0Loc    Object Code    Addr1 Addr2  Stmt Lv Lineno    Source Statement           (Hibal 5, Asmedit 3.3)  HLASM R4.0  2004/03/22 09.46
+___    ______ ____    _____ _____  ____ __ ______    ______ _________
0008F08 4780 715A            08F12 50255    6349.              IF    NZ,BEGIN            NOT THERE - ALLOCATE
 008F0C 5890 749C/0D99       09254 50266  1 6349.1               ACALL INCTALO             ALLOCATE INCDATA OUTPUT FILE
 008F12 715E/47F0 717A 08F12 08F0A 50270    6465.              END   ELSE,BEGIN          CHECK FOR 2ND FILE
 008F16 9180 C1C9/47E0_001C9       50285  1 6465.01              IF    DMPIXR,BEGIN        YEP -- WRITE TO SECOND FILE
 008F1E 4110 75BA/4100_      09372 50300  2 6465.02                VWRITE 'SETTING TO FILE 2'
 008F32                            50314  1 6465.03              END   ,
 008F32                            50318    6465.04            END   ,
 008F32 4110 7480            09238 50322    6467.              LA    R1,=CL8'INCDATA'    SET DDNAME
 008F36 5890 7498/0D99       09250 50323    6468.              ACALL FINDDD              RETRIEVE TIOT ENTRY
 008F3C 1821                       50327    6469.              LR    SR,R1               COPY ADDRESS OF TIOT ENTRY
 USING  TIOENTRY,R2                50328    6470.              USING TIOENTRY,SR         ## ADDRESSABILITY TO ENTRY
 008F3E 1B11                       50337    6471.              CLEAR R1                  ZERO FOR COMPLETENESS
 008F40 BF17 200C            00024 50341    6472.              ICM   R1,7,TIOEJFCB       ADDRESS OF JFCB
 008F44 4110 1010            00010 50342    6472.1             LA    R1,@R1+16           BEATS ME (??*&%$#)
 USING  JFCB,R1                    50343    6473.              USING JFCB,R1             ## ADDRESSABILITY TO JFCB
 008F48 D22B C268 1000 00268 00000 50352    6474.              MVC   TAPEDSN,JFCBDSNM    MOVE IN DATA SET NAME
 DROP   JFCB,R1                    50353    6475.              DROP  R1                  ## RELEASE JFCB
 DROP   TIOENTRY,R2                50360    6476.              DROP  SR                  ## RELEASE TIOT
 008F4E 5820 C134            00134 50367    6477.              L     SR,INCCMPLT         ADDRESS OF FIRST BLOCK
 008F52 1222/4780 71AE             50368    6478.              WHILE (SR,NZ),BEGIN       PROCESS EACH BLOCK
 USING  INCDSN,R2                  50384  1 6479.                USING INCDSN,SR           ## ADDRESSABILTY TO BLOCK
 008F58 5890 74A0/0D99       09258 50393  1 6480.                ACALL DUMPINC             GO DO IT FRED
 008F5E 5820 2000            00000 50397  1 6481.                L     SR,INCDFWD          CHAIN TO NEXT BLOCK
 DROP   INCDSN,R2                  50398  1 6482.                DROP  SR                  ## RELEASE ADDRESSABILITY
 008F62 47F0 719A            08F52 50405    6483.              END   ,                   CHECK FOR ANY REMAINING BLOCKS
-008F66 9110 C1C1/47E0_001C1       50411    6483.02            IF    FLDAILY,BEGIN       CONTINUE PROCESSING OLD DATA
 008F6E 4110 C7AC            007AC 50426  1 6483.03              LA    R1,INCODCB          ADDRESS OF OLD INCREMENTAL DATA
 USING  IHADCB,R1                  50427  1 6483.04              WITH  (IHADCB,R1),BEGIN
 008F72 4100 71EA            08FA2 50441  2 6483.05                LA    R0,INCREMX          ADDRESS OF EODAD
 008F76 BE07 1021            00021 50442  2 6483.06                ST3   R0,DCBEODAD+1       RESET EOD ADDRESS
 DROP   IHADCB,R1                  50444  1 6483.07              END   ,
 008F7A 5820 C168            00168 50452  1 6483.08              L     SR,INCOBUFR         SET BUFFER ADDRESS
 008F7E                            50453  1 6483.09              LOOP  BEGIN
 008F7E 4110 C74C/4100_      0074C 50459  2 6483.1                 PUT   INCDCB,@SR          WRITE TO OUTPUT TAPE
 008F8E 4110 C7AC/4100_      007AC 50466  2 6483.92                GET   INCODCB,@SR
 008F9E 47F0 71C6            08F7E 50473  1 6483.94              END   ,
 008FA2 4110 C4D0/43E1_      004D0 50478  1 6483.95   INCREMX    CLOSE INCODCB,MF=(E,ITOPNLST)
 008FB8 4110 C7AC            007AC 50486  1 6483.96              LA    R1,INCODCB
 008FBC 4D90 611E            00134 50487  1 6483.97              LCALL FREPOOL
 008FC0 94EF C1C1      001C1       50489  1 6483.98              CLEAR FLDAILY
 008FC4                            50496    6483.99            END   ,
 008FC4 4110 C4D0/43E1_      004D0 50500    6484.              CLOSE INCDCB,MF=(E,ITOPNLST) CLOSE OUT TAPE DCB
 008FDA 4110 C74C            0074C 50508    6485.1             LA    R1,INCDCB           ADDRESS OF DCB BUFFER POOL
 008FDE 4D90 611E            00134 50509    6485.2             LCALL FREPOOL             RELEASE BUFFER POOL
 008FE2 5890 7490/0D99       09248 50511    6486.              VWRITE ,                  PROVIDE A BLANK LINE
 008FE8 4110 74A4/4100_      0925C 50516    6487.              VSEG  'VDMP803I - Incremental data has been dumped.'
 008FF6 5890 7490/0D99       09248 50525    6488.              VWRITE ,                  WRITE CONTROL LINE
 008FFC 4100 0010/4110_      00010 50530    6489.              VCNTL BLANK,11            PROVIDE SPACING
 00900A 58F0 C4D8/1B00_      004D8 50549    6490.              SEGDC 0,IINCBLK,COMMAS=YES    REPORT NUMBER OF BLOCKS
 009020 4110 75CB/4100_      09383 50588    6491.              VSEG  ' blocks dumped.'
 00902E 5890 7490/0D99       09248 50597    6492.              VWRITE ,
 009034 4100 0010/4110_      00010 50602    6493.              VCNTL BLANK,11            ADD SPACING TO REPORT
1VDMP     (VDMP21) (09:46) (22MAR04) ORVYL's File System Dump Program: Offload Data                                         Page  272
0Current Usings:  (DUMP,R6) (*,R7) (DWA,R12)
0Loc    Object Code    Addr1 Addr2  Stmt Lv Lineno    Source Statement           (Hibal 5, Asmedit 3.3)  HLASM R4.0  2004/03/22 09.46
+___    ______ ____    _____ _____  ____ __ ______    ______ _________
0009042 D213 C010 6546 00010 0055C 50621    6494.              MVC   WORK(L'EDMSK),EDMSK MOVE IN EDIT MASK
 009048 4110 C023            00023 50622    6495.              LA    R1,WORK+L'EDMSK-1   ADDRESS OF LAST BYTE
 00904C DF13 C010 C4DC 00010 004DC 50623    6496.              EDMK  WORK(L'EDMSK),IINCBYTE  CONVERT BYTE COUNT
 009052 4100 C024            00024 50624    6497.              LA    R0,WORK+L'EDMSK     LAST BYTE + 1
 009056 1B01                       50625    6498.              SR    R0,R1               LENGTH OF SIGNIFICANT PART
 009058 5890 748C/0D99       09244 50626    6499.              VSEG  (R1),(R0)           ADD TO MESSAGE
 00905E 4110 74D8/4100_      09290 50641    6500.              VSEG  ' data bytes written.'
 00906C 5890 7490/0D99       09248 50650    6501.              VWRITE ,
 009072 1BFF                       50655    6502.              CLEAR R15                 ZERO RETURN REGISTER
 009074 18D8/9829 D000_            50659    6503.              VEXIT SR,RAR,LTR          RESTORE REGISTERS AND RETURN
1VDMP     (VDMP21) (09:46) (22MAR04) ORVYL's File System Dump Program: Offload Data                                         Page  273
0Current Usings:  (DUMP,R6) (*,R7) (DWA,R12)
0Loc    Object Code    Addr1 Addr2  Stmt Lv Lineno    Source Statement           (Hibal 5, Asmedit 3.3)  HLASM R4.0  2004/03/22 09.46
+___    ______ ____    _____ _____  ____ __ ______    ______ _________
0                                  50666    6503.02   *
                                   50667    6503.03   *  DUMP DISK RESIDENT IXR DATA TO INCREMENTAL DUMP TAPE
                                   50668    6503.04   *
000907E                            50670    6503.06   DUMPIX   LABEL ,
 00907E 9029 D000/188D_      00000 50672    6503.07            VENTER SR,RAR,*,LOCAL     ENTER AND SAVE CALLING REGISTERS
 DROP   *,R7
 USING  *,R7
 00908A 4120 C86C            0086C 50694    6503.08            LA    SR,INCIXIN          ADDRESS OF INPUT IXR DCB
 USING  IHADCB,R2                  50695    6503.09            WITH  (IHADCB,SR),BEGIN
 00908E 1812                       50709  1 6503.1               LR    R1,SR               SET DCB ADDRESS FOR INIT
 009090 4D90 60FC            00112 50710  1 6503.11              LCALL DCBINIT             INITIALIZE COMMON DCB FIELDS
 009094 9640 201A      0001A       50712  1 6503.12              SET   DCBDSRG1.DCBDSGPS   DSORT=PS
 009098 4100 7142            091CC 50719  1 6503.13              LA    R0,DUMPIXE          EOD EXIT ADDRESS
 00909C 5000 2020            00020 50720  1 6503.14              ST    R0,DCBEODAD         SAVE EXIT ADDRESS IN DCB
 0090A0 9690 2024      00024       50721  1 6503.15              SET   DCBRECFM.DCBRECF+DCBRECBR     RECFM=FB
 0090A4 9650 2032      00032       50731  1 6503.16              SET   DCBMACR1.DCBMRGET+DCBMRMVG    MACRF=GM
 0090A8 D207 2028 71A6 00028 09230 50741  1 6503.17              MVC   DCBDDNAM,=CL8'INCIXIN'        DDNAME=INCIXIN
 0090AE 9680 C4D0      004D0       50742  1 6503.18              OI    ITOPNLST,X'80'      INSURE ONLY ONE DCB IN LIST
 0090B2 4110 C4D0/94F0_      004D0 50743  1 6503.19              OPEN  ((SR),INPUT),MF=(E,ITOPNLST)  OPEN FILE
 0090C8 9110 2030/4710_00030       50751  1 6503.2               IF    ~DCBOFLGS.DCBOFOPN,BEGIN      CHECK FOR GOOD OPEN
 0090D0 4110 7308/4100_      09392 50767  2 6503.21                VSEG  'VDMP982E - UNABLE TO OPEN IXR INPUT'
 0090DE 5890 71BE/0D99       09248 50776  2 6503.22                VWRITE ,
 0090E4 47F0 60DA            000F0 50781  2 6503.23                B     DUMPEXIT            ABORT PROCESSING
 0090E8                            50782  1 6503.24              END   ,
 DROP   IHADCB,R2                  50786    6503.25            END   ,
 0090E8 4120 C8CC            008CC 50794    6503.26            LA    SR,INCIXOUT         ADDRESS OF INPUT IXR DCB
 USING  IHADCB,R2                  50795    6503.27            WITH  (IHADCB,SR),BEGIN
 0090EC 5890 71CA/0D99       09254 50809  1 6503.28              ACALL INCTALO             ALLOCATE OUTPUT TAPE
 0090F2 1812                       50813  1 6503.29              LR    R1,SR               SET OUTPUT DCB ADDRESS FOR INIT
 0090F4 4D90 60FC            00112 50814  1 6503.3               LCALL DCBINIT             INITIALIZE COMMON DCB FIELDS
 0090F8 9640 201A      0001A       50816  1 6503.31              SET   DCBDSRG1.DCBDSGPS   DSORT=PS
 0090FC 9690 2024      00024       50823  1 6503.32              SET   DCBRECFM.DCBRECF+DCBRECBR     RECFM=FB
 009100 9650 2033      00033       50833  1 6503.33              SET   DCBMACR2.DCBMRPUT+DCBMRMVP    MACRF=PM
 009104 D207 2028 71AE 00028 09238 50843  1 6503.34              MVC   DCBDDNAM,=CL8'INCDATA'        DDNAME=INCIXIN
 00910A 9680 C4D0      004D0       50844  1 6503.35              OI    ITOPNLST,X'80'      INSURE ONLY ONE DCB IN LIST
 00910E 4110 C4D0/94F0_      004D0 50845  1 6503.36              OPEN  ((SR),OUTPUT),MF=(E,ITOPNLST) OPEN FILE
 009128 9110 2030/4710_00030       50854  1 6503.37              IF    ~DCBOFLGS.DCBOFOPN,BEGIN      CHECK FOR GOOD OPEN
 009130 4110 721A/4100_      092A4 50870  2 6503.38                VSEG  'VDMP982E - UNABLE TO OPEN IXR OUTPUT'
 00913E 5890 71BE/0D99       09248 50879  2 6503.39                VWRITE ,                  WRITE TO REPORT FILE
 009144 9218 C05B      0005B       50884  2 6503.4                 MVI   RETCODE+3,DYN_ALC   SET RETURN CODE
 009148 47F0 60DA            000F0 50885  2 6503.41                B     DUMPEXIT            ABORT PROCESSING
 00914C                            50886  1 6503.42              END   ,
 DROP   IHADCB,R2                  50890    6503.43            END   ,
 00914C 4110 723E/4100_      092C8 50898    6503.44    VWRITE 'IXR INPUT/OUTPUT FILES OPEN.'
 009160 4D90 70E2            0916C 50912    6503.45            LCALL DUMPIXA             CREATE IXR DUMP TAPE
 009164 18D8/9829 D000_            50914    6503.46            VEXIT SR,RAR              RETURN TO CALLER
1VDMP     (VDMP21) (09:46) (22MAR04) ORVYL's File System Dump Program: Offload Data                                         Page  274
0Current Usings:  (DUMP,R6) (*,R7) (DWA,R12)
0Loc    Object Code    Addr1 Addr2  Stmt Lv Lineno    Source Statement           (Hibal 5, Asmedit 3.3)  HLASM R4.0  2004/03/22 09.46
+___    ______ ____    _____ _____  ____ __ ______    ______ _________
0                                  50920    6503.48   ********************************************************************
                                   50921    6503.7    *                                                                  *
                                   50922    6503.71   *  COPY IXR DATA TO DUMP TAPE                                      *
                                   50923    6503.72   *                                                                  *
                                   50924    6503.721  ********************************************************************
000916C                            50926    6503.74   DUMPIXA  LABEL ,
 00916C 5090 D000/41D0_      00000 50928    6503.75            VPUSH RAR,,*              SAVE RETURN REGISTER
 009174 47F0 70F6/0000_      09180 50931    6503.76            GETMAIN RC,LV=2104        REQUEST IXR BUFFER
 00918C 12FF/4780 7120             50945    6503.77            IF    (R15,NZ),BEGIN
 009192 4110 725A/4100_      092E4 50959  1 6503.78              VSEG  'VDMP583E - INSUFFICIENT MEMORY FOR IXR DUMP.'
 0091A0 5890 71BE/0D99       09248 50968  1 6503.79              VWRITE ,
 0091A6 47F0 60DA            000F0 50973  1 6503.8               B     DUMPEXIT            ABORT PROCESSING
 0091AA                            50974    6503.81            END   ,
 0091AA 1821                       50978    6503.82            LR    SR,R1               SAVE ADDRESS OF BUFFER
 0091AC                            50979    6503.83            LOOP  BEGIN               PROCESS ALL IXR RECORDS
 0091AC 4110 C86C/1802_      0086C 50985  1 6503.84              GET   INCIXIN,(SR)        READ IXR RECORD
 0091BA 4110 C8CC/1802_      008CC 50992  1 6503.85              PUT   INCIXOUT,(SR)       WRITE IXR RECORD
 0091C8 47F0 7122            091AC 50999    6503.86            END   ,                   PROCESS NEXT IXR RECORD
00091CC                            51005    6503.88   DUMPIXE  LABEL ,                   IXRDUMP EOF EXIT ADDRESS
 0091CC 4100 0838/4110_      00838 51007    6503.89            FREEMAIN R,LV=2104,A=(SR) RELEASE IXRDUMP BUFFER
 0091D6 4110 C4D0/43E1_      004D0 51012    6503.9             CLOSE INCIXIN,MF=(E,ITOPNLST)
 0091EC 4110 C4D0/43E1_      004D0 51020    6503.91            CLOSE INCIXOUT,MF=(E,ITOPNLST)
 009202 4110 C86C            0086C 51028    6503.92            LA    R1,INCIXIN          ADDRESS OF INPUT DCB
 009206 4D90 611E            00134 51029    6503.93            LCALL FREPOOL             RELEASE BUFFER POOL
 00920A 4110 C8CC            008CC 51031    6503.94            LA    R1,INCIXOUT         ADDRESS OF OUTPUT DCB
 00920E 4D90 611E            00134 51032    6503.95            LCALL FREPOOL             RELEASE BUFFER POOL
 009212 4BD0 72BA/5890_      09344 51034    6503.96            VPOP  RAR,,*              RESTORE RETURN REGISTER
 00921A 07F9                       51037    6503.97            BR    RAR                 AND RETURN TO CALLER
 009220                            51038    6503.98            LTORG ,
 009220 C9D5C3C6C9D3C540           51040                             =CL8'INCFILE'
 009228 4BC9D5C34BC9E7D9           51041                             =C'.INC.IXR'
 009230 C9D5C3C9E7C9D540           51042                             =CL8'INCIXIN'
 009238 C9D5C3C4C1E3C140           51043                             =CL8'INCDATA'
 009240 001C0000                   51044                             =AL2(DALCLOSE,0)
 009244 00000000                   51045                             =V(VSEG)
 009248 00000000                   51046                             =V(VWRITE)
 00924C 0000907E                   51047                             =A(DUMPIX)
 009250 00001F42                   51048                             =A(FINDDD)
 009254 000093B6                   51049                             =A(INCTALO)
 009258 0000967E                   51050                             =A(DUMPINC)
 00925C E5C4D4D7F8F0F3C9           51051                             =C'VDMP803I - Incremental data has been dumped.'
 009288 00000000                   51052                             =V(VCNTRL)
 00928C 00000000                   51053                             =V(BTDC)
 009290 408481A3814082A8           51054                             =C' data bytes written.'
 0092A4 E5C4D4D7F9F8F2C5           51055                             =C'VDMP982E - UNABLE TO OPEN IXR OUTPUT'
 0092C8 C9E7D940C9D5D7E4           51056                             =C'IXR INPUT/OUTPUT FILES OPEN.'
 0092E4 E5C4D4D7F5F8F3C5           51057                             =C'VDMP583E - INSUFFICIENT MEMORY FOR IXR DUMP.'
 009310 000100010008               51058                             =AL2(DALDDNAM,1,8)
 009316 00020001002C               51059                             =AL2(DALDSNAM,1,44)
 00931C 000400010001               51060                             =AL2(DALSTATS,1,1)
 009322 000500010001               51061                             =AL2(DALNDISP,1,1)
 009328 C1D3D3D6C3C1E3C9           51062                             =C'ALLOCATING IXR INPUT FILE.'
1VDMP     (VDMP21) (09:46) (22MAR04) ORVYL's File System Dump Program: Offload Data                                         Page  275
0Current Usings:  (DUMP,R6) (*,R7) (DWA,R12)
0Loc    Object Code    Addr1 Addr2  Stmt Lv Lineno    Source Statement           (Hibal 5, Asmedit 3.3)  HLASM R4.0  2004/03/22 09.46
+___    ______ ____    _____ _____  ____ __ ______    ______ _________
0009342 7FF8                       51063                             =AL2(32760)
 009344 0004                       51064                             =Y(4)
 009346 E5C4D4D7F4F4F9C5           51065                             =C'VDMP449E - ERROR ALLOCATING IXR INPUT FILE.'
 009371 0C                         51066                             =P'0'
 009372 E2C5E3E3C9D5C740           51067                             =C'SETTING TO FILE 2'
 009383 408293968392A240           51068                             =C' blocks dumped.'
 009392 E5C4D4D7F9F8F2C5           51069                             =C'VDMP982E - UNABLE TO OPEN IXR INPUT'
1VDMP     (VDMP21) (09:46) (22MAR04) ORVYL's File System Dump Program: Offload Data                                         Page  276
0Current Usings:  (DUMP,R6) (*,R7) (DWA,R12)
0Loc    Object Code    Addr1 Addr2  Stmt Lv Lineno    Source Statement           (Hibal 5, Asmedit 3.3)  HLASM R4.0  2004/03/22 09.46
+___    ______ ____    _____ _____  ____ __ ______    ______ _________
0                                  51074    6504.     ********************************************************************
                                   51075    6504.01   *                                                                  *
                                   51076    6504.02   *  ALLOCATE INCREMENTAL OUTPUT TAPE FILE                           *
                                   51077    6504.03   *                                                                  *
                                   51078    6504.04   *        1.  ALLOCATE TAPE OUTPUT FILE FOR EITHER THE DISK         *
                                   51079    6504.05   *            RESIDENT IXR DATA OR FOR THE INCREMENTAL DATA         *
                                   51080    6504.06   *            SEGMENTS.                                             *
                                   51081    6504.07   *                                                                  *
                                   51082    6504.08   ********************************************************************
00093B6                            51084    6504.1    INCTALO  LABEL ,
 0093B6 9029 D000/188D_      00000 51086    6504.11            VENTER SR,RAR,*,LOCAL     Enter and save registers
 DROP   *,R7
 USING  *,R7
 0093C2 4120 C524            00524 51108    6504.12            LA    SR,ODYNRB           Address of svc99 request block
 0093C6 5020 C520            00520 51109    6504.13            ST    SR,ODYNP              save in pointer area
 0093CA 9680 C520      00520       51110    6504.14            OI    ODYNP,X'80'             mark only one request block
0USING  S99RB,R2                   51112    6504.16            WITH  (S99RB,SR),BEGIN    Addressability to SVC 99
 0093CE 9214 2000      00000       51126  1 6504.17              MVI   S99RBLN,20          Set length of request block
 0093D2 9201 2001      00001       51127  1 6504.18              MVI   S99VERB,S99VRBAL    Set data set allocation request
 0093D6 9601 2010      00010       51128  1 6504.19              SET   S99FLG21.S99MOUNT   Set ok to mount volumes
 0093DA 9102 C1C0/47E0_001C0       51135  1 6504.2               IF    FLDUMMY,BEGIN       SET FOR DD DUMMY PROCESSING
 0093E2 D205 C58C 756E 0058C 09930 51150  2 6504.21                MVC   ODMYA(6),=AL2(DALDUMMY,0,0)
 0093E8 D205 C5A0 7574 005A0 09936 51151  2 6504.22                MVC   ODSN(6),=AL2(DALDSNAM,1,44)
 0093EE D22B C5A6 74EE 005A6 098B0 51152  2 6504.23                MVC   ODSN+6(44),=CL44'NULLFILE'
 0093F4 4110 C58C            0058C 51153  2 6504.33                LA    R1,ODMYA            ADDRESS OF DD DUMMY TEXT UNIT
 0093F8 5010 C538            00538 51154  2 6504.34                ST    R1,ODMY             SAVE IN PARAMETER LIST
 0093FC 9680 C53C      0053C       51155  2 6504.35                OI    ODMY+4,X'80'        MARK AS LAST TEXT UNIT
 009400 4130 C538            00538 51156  2 6504.36                LA    R3,ODMY             ADDRESS OF DUMMY TEXT UNIT
 009404 7046/47F0 704A 09404 093E0 51157  1 6504.37              END   ELSE,BEGIN
 009408 4130 C540            00540 51172  2 6504.38                LA    R3,OPTRS            Address of text unit pointers
 00940C                            51173  1 6504.39              END   ,
 00940C 5030 2008            00008 51177  1 6504.4               ST    R3,S99TXTPP         Save text pointer address
 DROP   S99RB,R2                   51178    6504.41            END   ,
-009410 4110 C592            00592 51188    6504.44            LA    R1,ODDN             Address of ddn text unit
 009414 5010 C540            00540 51189    6504.45            ST    R1,OPTRS+0          Save in parameter list
 009418 4110 C5A0            005A0 51190    6504.46            LA    R1,ODSN             Address of dsn text unit
 00941C 5010 C544            00544 51191    6504.47            ST    R1,OPTRS+4          Save in parameter list
 009420 4110 C5D2            005D2 51192    6504.48            LA    R1,OMEM             Address of member text unit
 009424 5010 C548            00548 51193    6504.49            ST    R1,OPTRS+8          Save in parameter list
 009428 4110 C5DA            005DA 51194    6504.5             LA    R1,OSTAT            Address of status text unit
 00942C 5010 C54C            0054C 51195    6504.51            ST    R1,OPTRS+12         Save in parameter list
 009430 4110 C5E1            005E1 51196    6504.52            LA    R1,ONDSP            Address of normal disposition
 009434 5010 C550            00550 51197    6504.53            ST    R1,OPTRS+16         Save in parameter list
 009438 4110 C5E8            005E8 51198    6504.54            LA    R1,OCDSP            Address of conditional disp
 00943C 5010 C554            00554 51199    6504.55            ST    R1,OPTRS+20         Save in parameter list
 009440 4110 C5EF            005EF 51200    6504.56            LA    R1,OSP1             Address of space type allocation
 009444 5010 C558            00558 51201    6504.57            ST    R1,OPTRS+24         Save in parameter list
 009448 4110 C5F8            005F8 51202    6504.58            LA    R1,OSP2             Address of primary space
 00944C 5010 C55C            0055C 51203    6504.59            ST    R1,OPTRS+28         Save in parameter list
 009450 4110 C601            00601 51204    6504.6             LA    R1,OSP3             Address of secondary space
1VDMP     (VDMP21) (09:46) (22MAR04) ORVYL's File System Dump Program: Offload Data                                         Page  277
0Current Usings:  (DUMP,R6) (*,R7) (DWA,R12)
0Loc    Object Code    Addr1 Addr2  Stmt Lv Lineno    Source Statement           (Hibal 5, Asmedit 3.3)  HLASM R4.0  2004/03/22 09.46
+___    ______ ____    _____ _____  ____ __ ______    ______ _________
0009454 5010 C560            00560 51205    6504.61            ST    R1,OPTRS+32         Save in parameter list
 009458 4110 C60A            0060A 51206    6504.62            LA    R1,OCNT             Address of volume count
 00945C 5010 C564            00564 51207    6504.63            ST    R1,OPTRS+36         Save in parameter list
 009460 4110 C611            00611 51208    6504.64            LA    R1,OUNIT            Address of unit allocation
 009464 5010 C568            00568 51209    6504.65            ST    R1,OPTRS+40         Save in parameter list
 009468 4110 C61F            0061F 51210    6504.66            LA    R1,OLBL             Address of label type
 00946C 5010 C56C            0056C 51211    6504.67            ST    R1,OPTRS+44         Save in parameter list
 009470 4110 C626            00626 51212    6504.68            LA    R1,OSEQ             Address of label sequence
 009474 5010 C570            00570 51213    6504.69            ST    R1,OPTRS+48         Save in parameter list
 009478 4110 C62E            0062E 51214    6504.7             LA    R1,OPROT            Address of prototype dcb
 00947C 5010 C574            00574 51215    6504.71            ST    R1,OPTRS+52         Save in parameter list
 009480 4110 C667            00667 51216    6504.72            LA    R1,ORETP            Address of retention period
 009484 5010 C578            00578 51217    6504.73            ST    R1,OPTRS+56         Save in parameter list
 009488 4110 C66F            0066F 51218    6504.74            LA    R1,OTRTCH           Address of trtch parameter
 00948C 5010 C57C            0057C 51219    6504.75            ST    R1,OPTRS+60         Save in parameter list
 009490 9104 C1C0/47E0_001C0       51220    6504.76            IF    FLIDRC,BEGIN
 009498 9680 C57C      0057C       51235  1 6504.77              OI    OPTRS+60,X'80'      Mark end of pointer list
 00949C 70DE/47F0 70E2 0949C 09496 51236    6504.78            END   ELSE,BEGIN
 0094A0 9680 C578      00578       51251  1 6504.79              OI    OPTRS+56,X'80'      Mark end of pointer list
 0094A4                            51252    6504.8             END   ,
                                   51256    6504.81   *
                                   51257    6504.82   ** INITIALIZE TEXT UNIT POINTERS FOR UNALLOCATION
                                   51258    6504.83   *
 0094A4 4110 C592            00592 51259    6504.84            LA    R1,ODDN             ADDRESS OF DDN TEXT UNIT
 0094A8 5010 C580            00580 51260    6504.85            ST    R1,OPTRU+0          SAVE IN PARAMETER LIST
 0094AC 4110 C5A0            005A0 51261    6504.86            LA    R1,ODSN             ADDRESS OF DSN TEXT UNIT
 0094B0 5010 C584            00584 51262    6504.87            ST    R1,OPTRU+4          SAVE IN PARAMETER LIST
 0094B4 4110 C660            00660 51263    6504.88            LA    R1,OUNA             ADDRESS OF DISP CHANGE UNIT
 0094B8 5010 C588            00588 51264    6504.89            ST    R1,OPTRU+8          SAVE IN PARAMETER LIST
 0094BC 9680 C588      00588       51265    6504.9             OI    OPTRU+8,X'80'       MARK LAST POINTER ]
0                                  51267    6504.92   *
                                   51268    6504.93   ** INITIALIZE THE TEXT UNIT'S THEMSELVES
                                   51269    6504.94   *
 0094C0 D205 C592 757A 00592 0993C 51270    6504.95            MVC   ODDN(6),=AL2(DALDDNAM,1,8)
 0094C6 D207 C598 74B6 00598 09878 51271    6504.96            MVC   ODDN+6(8),=CL8'INCDATA'
 0094CC D205 C5A0 7574 005A0 09936 51272    6504.97            MVC   ODSN(6),=AL2(DALDSNAM,1,44)
 0094D2 D205 C58C 756E 0058C 09930 51273    6504.98            MVC   ODMYA(6),=AL2(DALDUMMY,0,0)
 0094D8 D22B C4F4 C268 004F4 00268 51274    6504.99            MVC   IDSNWRK,TAPEDSN     SET TAPE DATA SET NAME PREFIX
 0094DE 4110 C4F4            004F4 51275    6505.              LA    R1,IDSNWRK          ADDRESS OF DATA SET PREFIX
 0094E2 4100 002C            0002C 51276    6505.01            LA    R0,44               SET MAXIMUM LENGTH
 0094E6 4D90 616A            00180 51277    6505.02            LCALL RTRIM               TRIM TRAILING BLANKS
 0094EA 1E10                       51279    6505.03            ALR   R1,R0               POINT TO END OF NAME
 0094EC 9180 C1C9/47E0_001C9       51280    6505.04            IF    DMPIXR,'MVC @R1(7),=C".INCIXR"'
 0094FA 713C/47F0 7142_094FA 094F2 51301    6505.05            ELSE  'MVC @R1(8),=C".INCDATA"'
 009504 9102 C1C0/4710_001C0       51318    6505.06            IF    ~FLDUMMY,BEGIN
 00950C D22B C5A6 C4F4 005A6 004F4 51333  1 6505.07              MVC   ODSN+6(44),IDSNWRK  SET DATA SET NAME IN UNIT
 009512                            51334    6505.08            END   ,
 009512 D205 C5DA 7580 005DA 09942 51338    6505.49            MVC   OSTAT(6),=AL2(DALSTATS,1,1)
 009518 9204 C5E0      005E0       51339    6505.5             MVI   OSTAT+6,X'04'       SET DISP=NEW
 00951C D205 C5D2 7586 005D2 09948 51340    6505.51            MVC   OMEM(6),=AL2(DALMEMBR,1,2)
 009522 D201 C5D8 758C 005D8 0994E 51341    6505.52            MVC   OMEM+6(2),=CL2'+1'  SET GENERATION NUMBER
 009528 D205 C5E1 758E 005E1 09950 51342    6505.53            MVC   ONDSP(6),=AL2(DALNDISP,1,1)
 00952E 9202 C5E7      005E7       51343    6505.54            MVI   ONDSP+6,X'02'       DISP=(,CATLG)
1VDMP     (VDMP21) (09:46) (22MAR04) ORVYL's File System Dump Program: Offload Data                                         Page  278
0Current Usings:  (DUMP,R6) (*,R7) (DWA,R12)
0Loc    Object Code    Addr1 Addr2  Stmt Lv Lineno    Source Statement           (Hibal 5, Asmedit 3.3)  HLASM R4.0  2004/03/22 09.46
+___    ______ ____    _____ _____  ____ __ ______    ______ _________
0009532 D205 C5E8 7594 005E8 09956 51344    6505.55            MVC   OCDSP(6),=AL2(DALCDISP,1,1)
 009538 9204 C5EE      005EE       51345    6505.56            MVI   OCDSP+6,X'04'       DISP=(,,DELETE)
 00953C D205 C5EF 759A 005EF 0995C 51346    6505.57            MVC   OSP1(6),=AL2(DALBLKLN,1,3)
 009542 D202 C5F5 7607 005F5 099C9 51347    6505.58            MVC   OSP1+6(3),=XL3'0'   SPACE=0
 009548 D205 C5F8 75A0 005F8 09962 51348    6505.59            MVC   OSP2(6),=AL2(DALPRIME,1,3)
 00954E D202 C5FE 7607 005FE 099C9 51349    6505.6             MVC   OSP2+6(3),=XL3'0'   SPACE=(,(0))
 009554 D205 C601 75A6 00601 09968 51350    6505.61            MVC   OSP3(6),=AL2(DALSECND,1,3)
 00955A D202 C607 760A 00607 099CC 51351    6505.62            MVC   OSP3+6(3),=XL3'4'   SPACE=(,(,4))
 009560 D205 C60A 75AC 0060A 0996E 51352    6505.63            MVC   OCNT(6),=AL2(DALVLCNT,1,1)
 009566 9215 C610      00610       51353    6505.64            MVI   OCNT+6,21           VOL=(,,,21)
 00956A D205 C611 75B2 00611 09974 51354    6505.65            MVC   OUNIT(6),=AL2(DALUNIT,1,8)
 009570 D207 C617 C2C8 00617 002C8 51355    6505.66            MVC   OUNIT+6(8),TAPEUNIT     SET SPECIFIED TAPE UNIT TYPE
 009576 D205 C61F 75B8 0061F 0997A 51356    6505.67            MVC   OLBL(6),=AL2(DALLABEL,1,1)
 00957C 9202 C625      00625       51357    6505.68            MVI   OLBL+6,X'02'        LABEL=(,SL)
 009580 D205 C626 75BE 00626 09980 51358    6505.69            MVC   OSEQ(6),=AL2(DALDSSEQ,1,2)
 009586 D201 C62C 75C4 0062C 09986 51359    6505.7             MVC   OSEQ+6(2),=XL2'1'   LABEL=1
 00958C D205 C62E 75C6 0062E 09988 51360    6505.71            MVC   OPROT(6),=AL2(DALDCBDS,1,44)
 009592 D22B C634 751A 00634 098DC 51361    6505.72            MVC   OPROT+6(44),=CL44'SYS3.PROTO.DSCB'
 009598 D205 C667 75CC 00667 0998E 51362    6505.73            MVC   ORETP(6),=AL2(DALRETPD,1,2)
 00959E D201 C66D 75D2 0066D 09994 51363    6505.74            MVC   ORETP+6(2),=AL2(90)    SET RETENTION PERIOD
 0095A4 D205 C66F 75D4 0066F 09996 51364    6505.75            MVC   OTRTCH(6),=AL2(DALTRTCH,1,1)
 0095AA 9208 C675      00675       51365    6505.76            MVI   OTRTCH+6,DCBCMPAC       SET COMPACTION MODE
 0095AE D205 C660 75DA 00660 0999C 51366    6505.77            MVC   OUNA(6),=AL2(DUNOVDSP,1,1)
 0095B4 9202 C666      00666       51367    6505.78            MVI   OUNA+6,X'02'        DISP=(,CATLG)
00095B8 4110 C520            00520 51369    6505.8             LA    R1,ODYNP            Address of POINTER
 0095BC 0A63                       51370    6505.81            DYNALLOC ,                Go do if
 0095BE 12FF/4780 72B4             51373    6505.82            IF    (R15,NZ),BEGIN
 0095C4 182F                       51387  1 6505.83              LR    SR,R15              Save return code from allocation
 0095C6 4110 74C6/4100_      09888 51388  1 6505.84              VSEG  'VDMP613E - Error allocating tape volume.'
 0095D4 5890 754A/0D99       0990C 51397  1 6505.85              VWRITE ,
 0095DA 4100 0010/4110_      00010 51402  1 6505.86              VCNTL BLANK,11            Set spacer blanks into message
 0095E8 4110 760D/4100_      099CF 51421  1 6505.87              VSEG  'RETURN('           Set message
 0095F6 18F2/1B00/4110_            51430  1 6505.88              SEGDC 0,(SR)              Convert return code into message
 00960A 4110 7614/4100_      099D6 51469  1 6505.89              VSEG  ')  ERROR('         Report error code
 009618 1FFF/BFF3 C528             51478  1 6505.9               L2    R15,ODYNRB+4        Load error code from svc99 rb
 00961E 4100 0004/4110_      00004 51486  1 6505.91              SEGHX 4,(R15)             Convert error code into message
 009632 4110 75E0/4100_      099A2 51527  1 6505.92              VSEG  ')  REASON('        Report reason code
 009640 1FFF/BFF3 C52A             51536  1 6505.93              L2    R15,ODYNRB+6        Load reason code from svc99 rb
 009646 4100 0004/4110_      00004 51544  1 6505.94              SEGHX 4,(R15)             Convert reasson code into message
 00965A 4110 761D/4100_      099DF 51585  1 6505.95              VSEG  ')'                 Add closing parrend
 009668 5890 754A/0D99       0990C 51594  1 6505.96              VWRITE ,                  Write to report file
 00966E 9218 C05B      0005B       51599  1 6505.97              MVI   RETCODE+3,DYN_ALC   Set subtask return code
 009672 47F0 60DA            000F0 51600  1 6505.98              B     DUMPEXIT            And return to caller
 009676                            51601    6505.99            END   ,
 009676 18D8/9829 D000_            51605    6506.67            VEXIT SR,RAR              Restore and return to caller
1VDMP     (VDMP21) (09:46) (22MAR04) ORVYL's File System Dump Program: Offload Data                                         Page  279
0Current Usings:  (DUMP,R6) (*,R7) (DWA,R12)
0Loc    Object Code    Addr1 Addr2  Stmt Lv Lineno    Source Statement           (Hibal 5, Asmedit 3.3)  HLASM R4.0  2004/03/22 09.46
+___    ______ ____    _____ _____  ____ __ ______    ______ _________
0                                  51611    6506.99   *
                                   51612    6507.     *  DUMP DATA FROM INCREMENTAL DUMP DATA SET POINTED TO
                                   51613    6508.     *  BY REGISTER (SR)
                                   51614    6509.     *
 00967E 9029 D000/188D_      00000 51615    6510.     DUMPINC  VENTER SR,RAR,*,LOCAL     Enter and save calling registers
 DROP   *,R7
 USING  *,R7
 USING  INCDSN,R2                  51637    6511.              USING INCDSN,SR           ## ADDRESSABILITY TO INCDSN
 00968A D22B C490 2018 00490 00018 51646    6512.              MVC   IINCDSN+6(44),INCDDSN   SET DATA SET NAME
 009690 4110 7322/4100_      099AC 51647    6513.              VSEG  'VDMP110I - Offloading '
 00969E 4110 2018            00018 51656    6514.              LA    R1,INCDDSN          ADDRESS OF DATA SET ANME
 0096A2 4100 002C            0002C 51657    6515.              LA    R0,44               MAXIMUM LENGTH OF NAME
 0096A6 4D90 616A            00180 51658    6516.              LCALL RTRIM               STRIP TRAILING BLANKS
 0096AA 5890 727E/0D99       09908 51660    6517.              VSEG  (R1),(R0)           REPORT DATA SET NAME
 0096B0 4110 7356/4100_      099E0 51675    6518.              VSEG  ' to holding file.'
 0096BE 5890 7282/0D99       0990C 51684    6519.              VWRITE ,
 0096C4 4110 C43C            0043C 51689    6520.              LA    R1,IINCP            ADDRESS OF PARAMETER LIST
 0096C8 0A63                       51690    6521.              DYNALLOC ,                ALLOCATE FILE
 0096CA 12FF/4780 7054             51693    6522.              IF    (R15,NZ),BEGIN      CHECK FOR ERROR
 0096D0 5890 7292/0D99       0991C 51707  1 6523.                ACALL DYNERR              REPORT SVC99 ERROR
 0096D6 9218 C05B      0005B       51711  1 6524.                MVI   RETCODE+3,DYN_ALC   SET RETURN CODE
 0096DA 47F0 60DA            000F0 51712  1 6525.                B     DUMPEXIT            AND RETURN
 0096DE                            51713    6526.              END   ,
 0096DE 0700/47F0 7062_            51717    6527.              GETMAIN RC,LV=8196        ACQUIRE AN I/O BUFFER
 0096F8 1831                       51731    6528.              LR    TR,R1               SAVE ADDRESS OF I/O BUFFER
 0096FA 9680 C4D4      004D4       51732    6529.              OI    IFOPNLST,X'80'      MARK ONLY ONE DCB
 0096FE 4110 C4D4/94F0_      004D4 51733    6530.              OPEN  (INCFIL,(INPUT)),MF=(E,IFOPNLST)
                                                               ¿þþþþþþþþþþþþþþþþþþþþþþþþþþþþþþþþþþþþþþþþþþþþþþþþþþþþþþþþþþÜ
                                   51742    6530.01            Ÿ  Determine logical record length for incremental output  Ÿ
                                                               ¾þþþþþþþþþþþþþþþþþþþþþþþþþþþþþþþþþþþþþþþþþþþþþþþþþþþþþþþþþþ»
 USING  IHADCB,R1                  51743    6530.02            WITH  (IHADCB,R1),BEGIN
 009718 4110 C80C            0080C 51757  1 6530.03              LA    R1,INCFIL           ADDRESS OF INPUT DCB
 00971C 1F00/BF03 1052             51758  1 6530.04              L2    R0,DCBLRECL         LOAD INPUT FILE'S LRECL
 009722 4110 C74C            0074C 51764  1 6530.05              LA    R1,INCDCB           ADDRESS OF OUTPUT INCREMENTAL
 009726 9110 1030/4710_00030       51765  1 6530.06              IF    ~DCBOFLGS.DCBOFOPN,BEGIN
 00972E 9108 1024/47E0_00024       51781  2 6530.07                IF    DCBRECFM.DCBRECSB,BEGIN ADJUST FOR RECFM=VBS
 009736 5E00 7296            09920 51797  3 6530.08                  AL    R0,=A(4)                ADJUST FOR RDW
 00973A                            51798  2 6530.09                END   ,
 00973A 40001052                   51802  2 6530.1                 ST2   R0,DCBLRECL         SET INTO INCDATA DCB LRECL
 00973E 4110 C4D0/94F0_      004D0 51804  2 6530.11                OPEN  (INCDCB,(OUTPUT)),MF=(E,ITOPNLST)
 00975C                            51814  1 6530.12              END   ,
 DROP   IHADCB,R1                  51818    6530.97            END   ,
                                                         ¿þþþþþþþþþþþþþþþþþþþþþþþþþþþþþþþþþþþþþþþþþþþþþþþþþþþþþþþþþþþþþþþþþÜ
                                   51826    6530.98      Ÿ  End of problem area, would be nice to check to good open also  Ÿ
                                                         ¾þþþþþþþþþþþþþþþþþþþþþþþþþþþþþþþþþþþþþþþþþþþþþþþþþþþþþþþþþþþþþþþþþ»
 00975C                            51827    6531.              LOOP  BEGIN               READ ALL BLOCKS
 00975C 4110 C80C/4100_      0080C 51833  1 6532.                GET   INCFIL,@TR+4        READ BLOCK FROM FILE
 00976C 4800 300A            0000A 51840  1 6533.                LH    R0,@TR+4+6          LENGTH OF THIS RECORD
 009770 5A00 729A            09924 51841  1 6534.                A     R0,=A(12+4)         ADJUST FOR RECFM=VB
 009774 4000 3000            00000 51842  1 6535.                STH   R0,@TR              SAVE RDW FOR RECORD
 009778 D701 3002 3002 00002 00002 51843  1 6536.                CLEAR (@TR+2,2)           ZERO REMAINING TWO BYTES
 00977E 9110 C1C1/47E0_001C1       51850  1 6536.1               IF    FLDAILY,BEGIN
 009786 5890 729E/0D99       09928 51865  2 6536.2                 ACALL CHKMERGE
 00978C                            51869  1 6536.3               END   ,
1VDMP     (VDMP21) (09:46) (22MAR04) ORVYL's File System Dump Program: Offload Data                                         Page  280
0Current Usings:  (INCDSN,R2) (DUMP,R6) (*,R7) (DWA,R12)
0Loc    Object Code    Addr1 Addr2  Stmt Lv Lineno    Source Statement           (Hibal 5, Asmedit 3.3)  HLASM R4.0  2004/03/22 09.46
+___    ______ ____    _____ _____  ____ __ ______    ______ _________
000978C 4110 C74C/1803_      0074C 51873  1 6537.                PUT   INCDCB,(TR)         WRITE RECORD
 00979A 4800 3000            00000 51880  1 6538.                LH    R0,@TR              LOAD BYTE COUNT FOR THIS RECORD
 00979E 4E00 C010            00010 51881  1 6539.                CVD   R0,CLWTEMP            CONVERT TO PACKED
 0097A2 FA77 C4DC C010 004DC 00010 51882  1 6540.                AP    IINCBYTE,CLWTEMP        ADD TO TOTAL SO FAR
 0097A8 4110 0001/5E10_      00001 51883  1 6541.                INCR  R1,IINCBLK          BUMP BLOCK COUNT
 0097B4 47F0 70D2            0975C 51889    6542.              END   ,
 0097B8                            51894    6543.     INCEOD   LABEL ,
 0097B8 4110 C4D4/43E1_      004D4 51896    6544.              CLOSE INCFIL,MF=(E,IFOPNLST)
 0097CE 4110 C80C            0080C 51904    6545.1             LA    R1,INCFIL           ADDRESS OF DCB BUFFER POOL
 0097D2 4D90 611E            00134 51905    6545.2             LCALL FREPOOL             RELEASE DYNAMIC BUFFER POOL
 0097D6 5800 72A2            0992C 51907    6546.              L     R0,=A(8196)         LENGTH OF I/O BUFFER
 0097DA 1813                       51908    6547.              LR    R1,TR               ADDRESS OF BUFFER
 0097DC 4110 1000/0A0A       00000 51909    6548.              FREEMAIN R,LV=(0),A=(1)
 0097E2 18D8/9829 D000_            51913    6549.              VEXIT SR,RAR,LTR          RETURN TO CALLER
 DROP   INCDSN,R2                  51919    6550.              DROP  SR                  ## RELEASE INCREMENTAL POOL
1VDMP     (VDMP21) (09:46) (22MAR04) ORVYL's File System Dump Program: Offload Data                                         Page  281
0Current Usings:  (DUMP,R6) (*,R7) (DWA,R12)
0Loc    Object Code    Addr1 Addr2  Stmt Lv Lineno    Source Statement           (Hibal 5, Asmedit 3.3)  HLASM R4.0  2004/03/22 09.46
+___    ______ ____    _____ _____  ____ __ ______    ______ _________
0                                  51927    6550.76   ¿þþþþþþþþþþþþþþþþþþþþþþþþþþþþþþþþþþþþþþþþþþþþþþþþþþþþþþþþþþþþþþþþþþþþþÜ
                                   51928    6550.77   Ÿ                                                                     Ÿ
                                   51929    6550.78   Ÿ  CHECK OLD INCREMENTAL DATA TAPE                                    Ÿ
                                   51930    6550.79   Ÿ                                                                     Ÿ
                                   51931    6550.8    Ÿ        TR -> ADDRESS OF CURRENT INCREMENTAL DUMP BLOCK              Ÿ
                                   51932    6550.81   Ÿ                                                                     Ÿ
                                                      ¾þþþþþþþþþþþþþþþþþþþþþþþþþþþþþþþþþþþþþþþþþþþþþþþþþþþþþþþþþþþþþþþþþþþþþ»
00097EC 9029 D000/188D_      00000 51934    6550.83   CHKMERGE VENTER SR,RAR,*,LOCAL
 DROP   *,R7
 USING  *,R7
 0097F8 5820 C168            00168 51956    6550.84            L     SR,INCOBUFR         ADDRESS OF OLD INCREMENTAL BUFFER
 0097FC D502 2004 3004_00004 00004 51957    6550.85            WHILE ('CLC @SR+4(3),@TR+4',LT),BEGIN
 009806 4110 C74C/4100_      0074C 51972  1 6550.86              PUT   INCDCB,@SR          WRITE OLD BLOCK
 009816 4110 C7AC/4100_      007AC 51979  1 6550.87              GET   INCODCB,@SR         READ NEXT OLD BLOCK
 009826 47F0 7004            097FC 51986    6550.88            END   ,                   CHECK NEXT BLOCK
 00982A D502 2004 3004 00004 00004 51991    6550.89            CLC   @SR+4(3),@TR+4      COMPARE TO EQUAL BLOCK NUMBERS
 009830 4770 704C            09844 51992    6550.9             IF    EQ,BEGIN
 009834 4110 C7AC/4100_      007AC 52003  1 6550.91              GET   INCODCB,@SR         DISCARD EQUAL BLOCK FROM OLD
 009844                            52010    6550.92            END   ,
 009844 18D8/9829 D000_            52014    6550.93   CHKMXIT  VEXIT SR,RAR
 00984C                            52019    6550.94   CHKMEOD  LABEL ,
 00984C 94EF C1C1      001C1       52021    6550.95            CLEAR FLDAILY             CLEAR INCREMENTAL MERGE OPTION
 009850 4110 C4D0/43E1_      004D0 52028    6550.96            CLOSE INCODCB,MF=(E,ITOPNLST)
 009866 4110 C7AC            007AC 52036    6550.97            LA    R1,INCODCB
 00986A 4D90 611E            00134 52037    6550.98            LCALL FREPOOL
 00986E 47F0 704C            09844 52039    6550.99            B     CHKMXIT             AND RETURN
1VDMP     (VDMP21) (09:46) (22MAR04) ORVYL's File System Dump Program: Offload Data                                         Page  282
0Current Usings:  (DUMP,R6) (*,R7) (DWA,R12)
0Loc    Object Code    Addr1 Addr2  Stmt Lv Lineno    Source Statement           (Hibal 5, Asmedit 3.3)  HLASM R4.0  2004/03/22 09.46
+___    ______ ____    _____ _____  ____ __ ______    ______ _________
0                                  52041    6551.1    ********************************************************************
                                   52042    6551.11   *                                                                  *
                                   52043    6551.12   *  Define literal pool and release all addressability              *
                                   52044    6551.2    *                                                                  *
                                   52045    6551.3    ********************************************************************
-DROP   DWA,R12                    52047    6551.41            DROP  ,
 DROP   *,R7
 DROP   DUMP,R6
-009878                            52090    6552.              LTORG ,
 009878 C9D5C3C4C1E3C140           52092                             =CL8'INCDATA'
 009880 4BC9D5C3C4C1E3C1           52093                             =C'.INCDATA'
 009888 E5C4D4D7F6F1F3C5           52094                             =C'VDMP613E - Error allocating tape volume.'
 0098B0 D5E4D3D3C6C9D3C5           52095                             =CL44'NULLFILE'
 0098DC E2E8E2F34BD7D9D6           52096                             =CL44'SYS3.PROTO.DSCB'
 009908 00000000                   52097                             =V(VSEG)
 00990C 00000000                   52098                             =V(VWRITE)
 009910 00000000                   52099                             =V(VCNTRL)
 009914 00000000                   52100                             =V(BTD)
 009918 00000000                   52101                             =V(BTX)
 00991C 00001B0C                   52102                             =A(DYNERR)
 009920 00000004                   52103                             =A(4)
 009924 00000010                   52104                             =A(12+4)
 009928 000097EC                   52105                             =A(CHKMERGE)
 00992C 00002004                   52106                             =A(8196)
 009930 002400000000               52107                             =AL2(DALDUMMY,0,0)
 009936 00020001002C               52108                             =AL2(DALDSNAM,1,44)
 00993C 000100010008               52109                             =AL2(DALDDNAM,1,8)
 009942 000400010001               52110                             =AL2(DALSTATS,1,1)
 009948 000300010002               52111                             =AL2(DALMEMBR,1,2)
 00994E 4EF1                       52112                             =CL2'+1'
 009950 000500010001               52113                             =AL2(DALNDISP,1,1)
 009956 000600010001               52114                             =AL2(DALCDISP,1,1)
 00995C 000900010003               52115                             =AL2(DALBLKLN,1,3)
 009962 000A00010003               52116                             =AL2(DALPRIME,1,3)
 009968 000B00010003               52117                             =AL2(DALSECND,1,3)
 00996E 001300010001               52118                             =AL2(DALVLCNT,1,1)
 009974 001500010008               52119                             =AL2(DALUNIT,1,8)
 00997A 001E00010001               52120                             =AL2(DALLABEL,1,1)
 009980 001F00010002               52121                             =AL2(DALDSSEQ,1,2)
 009986 0001                       52122                             =XL2'1'
 009988 002C0001002C               52123                             =AL2(DALDCBDS,1,44)
 00998E 002300010002               52124                             =AL2(DALRETPD,1,2)
 009994 005A                       52125                             =AL2(90)
 009996 004F00010001               52126                             =AL2(DALTRTCH,1,1)
 00999C 000500010001               52127                             =AL2(DUNOVDSP,1,1)
 0099A2 5D4040D9C5C1E2D6           52128                             =C')  REASON('
 0099AC E5C4D4D7F1F1F0C9           52129                             =C'VDMP110I - Offloading '
 0099C2 4BC9D5C3C9E7D9             52130                             =C'.INCIXR'
 0099C9 000000                     52131                             =XL3'0'
 0099CC 000004                     52132                             =XL3'4'
1VDMP     (VDMP21) (09:46) (22MAR04) ORVYL's File System Dump Program: Offload Data                                         Page  283
0Loc    Object Code    Addr1 Addr2  Stmt Lv Lineno    Source Statement           (Hibal 5, Asmedit 3.3)  HLASM R4.0  2004/03/22 09.46
+___    ______ ____    _____ _____  ____ __ ______    ______ _________
00099CF D9C5E3E4D9D54D             52133                             =C'RETURN('
 0099D6 5D4040C5D9D9D6D9           52134                             =C')  ERROR('
 0099DF 5D                         52135                             =C')'
 0099E0 40A3964088969384           52136                             =C' to holding file.'
1VDMP     (VDMP21) (09:46) (22MAR04) ORVYL's File System Dump Program: Communication                                        Page  284
0Loc    Object Code    Addr1 Addr2  Stmt Lv Lineno    Source Statement           (Hibal 5, Asmedit 3.3)  HLASM R4.0  2004/03/22 09.46
+___    ______ ____    _____ _____  ____ __ ______    ______ _________
0                                  52141    6556.     ********************************************************************
                                   52142    6557.     *                                                                  *
                                   52143    6558.     *  Define communication subtask work area                          *
                                   52144    6559.     *                                                                  *
                                   52145    6560.     ********************************************************************
0000000                00000 0037D 52147    6562.     COMAREA  RECORD BEGIN
 000000 00000000                   52155  1 6563.     COMADR     DC    A(0)                Print routine buffer address
 000004 C3D6D440C3D6D440           52156  1 6564.     COMEYE     DC    3CL4'COM '          Control block identification
 000010 00000000                   52157  1 6565.     COMBLK     DC    A(0)                Address of subtask block
 000014 00000000                   52158  1 6566.     COMFIRE    DC    A(0)                Timer fire counter
 000018 00000000                   52159  1 6567.     COMSAVE    DC    A(0)                Address of save area
 00001C 00000000                          1
 000020 0000000000000000           52160  1 6568.     COMWORK    DC    4D'0'               Conversion work area
 000040 00000000                   52161  1 6569.     COMEVENT   DC    A(0)                Address of event table
 000044 00000000                   52162  1 6570.     COMCIB     DC    A(0)                Address of communications
 000048 00000000                   52163  1 6571.     COMCECB    DC    A(0)                Communications ecb
 00004C 00000000                   52164  1 6572.     COMSTIMR   DC    A(0)                Ecb for stimer
 000050 00000000                   52165  1 6573.     COMXSVA    DC    A(0)                Stimer exit save area
0                                  52167  1 6575.     *
                                   52168  1 6576.     *  Define timer control variables
                                   52169  1 6577.     *
 000054 00000000                   52170  1 6578.     COMSTID    DC    A(0)                Stimerm returned identifier
 000058 00000000                   52171  1 6579.     COMADDR    DC    A(0)                Address of communications area
 00005C 00000000                   52172  1 6580.     COMDWA     DC    A(0)                Address of mainline dump work area
 000060 00000000                   52173  1 6581.     COMBRR     DC    A(0)                Save base for common routines
 000064 0001BD50                   52174  1 6582.     COMTIME    DC    A(19*60*100)        Timer fire after ten minutes
0                                  52176  1 6584.     COMSTIM    STIMERM SET,MF=L
                                   52177  1          +*        MACDATE = 08/19/88                                           *
 000068 0000000000000000           52178  1 01-STIME +COMSTIM    DC    XL24'00'           REMOTE STIMERM SET PARM LIST
0                                  52180  1 6586.     COMEXT     EXTRACT COMCIB,'S',FIELDS=(COMM),MF=L
 000080                            52181  1 01-EXTRA +           DS    0F
 000080 00000044                   52182  1 01-EXTRA +COMEXT     DC    A(COMCIB)                         LIST ADDRESS
 000084 00000000                   52183  1 01-EXTRA +           DC    A(0)                              TCB ADDRESS
 000088 01                         52184  1 01-EXTRA +           DC    AL1(1)                            FIELD BYTE
 000089 00                         52185  1 01-EXTRA +           DC    AL1(0)        .         FIELD BYTE 2               20021
 00008A 0000                       52186  1 01-EXTRA +           DC    AL2(0) .                                           20021
0                                  52188  1 6588.                SCANCB PFX=COM
 00008C                            52189  1 01-SCANC +COMCB      DS    0F
 00008C                            52190  1 01-SCANC +COMVAL     DS    A                       VALUE RETURNED
 000090                            52191  1 01-SCANC +COMKW      DS    CL8                     CURRENT KEY WORD
 000098                            52192  1 01-SCANC +COMLEN     DS    A                       LENGTH LEFT TO SCAN
 00009C                            52193  1 01-SCANC +COMLOC     DS    A                       NEXT THING TO SCAN
 0000A0                            52194  1 01-SCANC +COMRA      DS    A                       RETURN ADDRESS
 0000A4                            52195  1 01-SCANC +COMPRT     DS    A                       ROUTING TABLE ADDRESS
 0000A8                            52196  1 01-SCANC +COMCLT     DS    A                       SCAN TYPE
                                   52197  1          +*                                      0 = NORMAL SCAN
                                   52198  1          +*                                      4 = EXPRESSION ISOLATION
                                   52199  1          +*                                      8 = EXPRESSION SCAN
                                   52200  1 01-SCANC +COMCBL     EQU *-COMCB
 0000AC 0000000000000000           52201  1 6589.     COMXSTCK   DC    32A(0)              STIMER EXIT SAVE STACK
 00012C 0000000000000000           52202  1 6590.     COMSTACK   DC    128A(0)             Communication save stack
1VDMP     (VDMP21) (09:46) (22MAR04) ORVYL's File System Dump Program: Communication                                        Page  285
0Loc    Object Code    Addr1 Addr2  Stmt Lv Lineno    Source Statement           (Hibal 5, Asmedit 3.3)  HLASM R4.0  2004/03/22 09.46
+___    ______ ____    _____ _____  ____ __ ______    ______ _________
000032C 40                         52203  1 6591.     COMMCSID   DC    CL1' '              MCS CONSOLE IDENTIFIER
 00032D 4040404040404040           52204  1 6592.     COMLINE    DC    CL80' '             COMMAND INPUT BUFFER
 00037D                0037D 0037D 52205    6593.              END   ,
1VDMP     (VDMP21) (09:46) (22MAR04) ORVYL's File System Dump Program: Communication                                        Page  286
0Loc    Object Code    Addr1 Addr2  Stmt Lv Lineno    Source Statement           (Hibal 5, Asmedit 3.3)  HLASM R4.0  2004/03/22 09.46
+___    ______ ____    _____ _____  ____ __ ______    ______ _________
0                                  52215    6595.     ********************************************************************
                                   52216    6596.     ********************************************************************
                                   52217    6597.     *                                                                  *
                                   52218    6598.     *               Communications Subtask                             *
                                   52219    6599.     *                                                                  *
                                   52220    6600.     ********************************************************************
                                   52221    6601.     *                                                                  *
                                   52222    6602.     *                                                                  *
                                   52223    6603.     *        Provide operator status reports on progress on            *
                                   52224    6604.     *        the dump.                                                 *
                                   52225    6605.     *                                                                  *
                                   52226    6606.     ********************************************************************
                                   52227    6607.     ********************************************************************
-0099F2                            52229    6609.     COMTASK  LABEL ,                   Enter and save registers
 0099F2 90EC D00C            0000C 52231    6610.              STM   R14,R12,@R13+12       save calling registers
 0099F6 187F                       52232    6611.              LR    BR,R15                  copy entry address
 USING  COMTASK,R7                 52233    6612.              USING COMTASK,BR                ## communications addr
 USING  DUMP,R6                    52242    6613.              USING DUMP,BRR                    ## COMMON ROUTINES
00099F8 1821                       52252    6615.              LR    SR,R1               Save address of subtask block
 0099FA 0700/47F0 7016_            52253    6616.              GETMAIN RC,LV=L'COMAREA   Acquire storage for workarea
 009A14 12FF/4780 7036             52267    6617.              IF    (R15,NZ),BEGIN      Insufficient storage
 009A1A 41F0 001C            0001C 52281  1 6618.                LA    R15,28              Set return code
 009A1E 58E0 D00C            0000C 52282  1 6619.                L     R14,@R13+12         Reset register 14
 009A22 980C D014            00014 52283  1 6620.                LM    R0,R12,@R13+20      Reset remaining registers
 009A26 07FE                       52284  1 6621.                BR    R14                 And return to system
 009A28                            52285    6622.              END   ,
0009A28 18B1                       52290    6624.              LR    SWR,R1              Copy area address
 009A2A 1801                       52291    6625.              LR    R0,R1               Copy address again for clear
 009A2C 4110 037D            0037D 52292    6626.              LA    R1,L'COMAREA          and set length of area
 009A30 1BFF                       52293    6627.              CLEAR R15                     zero from length
 009A32 0E0E                       52297    6628.              MVCL  R0,R14                    set area to zero
0009A34 17BC                       52299    6630.              XR    SWR,DWR             Swap base addresses
 009A36 17CB                       52300    6631.              XR    DWR,SWR               for print routines
 009A38 17BC                       52301    6632.              XR    SWR,DWR                 compatability
0USING  DWA,R11                    52303    6634.              USING DWA,SWR             ## needed for print routine
 USING  COMAREA,R12                52312    6635.              USING COMAREA,DWR         ## compatability, whew
0009A3A 50D0 C018            00018 52322    6637.              ST    R13,COMSAVE         Save save area address
 009A3E 41D0 C12C            0012C 52323    6638.              LA    R13,COMSTACK        Set communications stack address
 009A42 50C0 C058            00058 52324    6639.              ST    DWR,COMADDR         Save communications address
 009A46 50B0 C05C            0005C 52325    6640.              ST    SWR,COMDWA          Save mainline work area address
 009A4A 5060 C060            00060 52326    6641.              ST    BRR,COMBRR          Save address of common base
1VDMP     (VDMP21) (09:46) (22MAR04) ORVYL's File System Dump Program: Communication                                        Page  287
0Current Usings:  (DUMP,R6) (COMTASK,R7) (DWA,R11) (COMAREA,R12)
0Loc    Object Code    Addr1 Addr2  Stmt Lv Lineno    Source Statement           (Hibal 5, Asmedit 3.3)  HLASM R4.0  2004/03/22 09.46
+___    ______ ____    _____ _____  ____ __ ______    ______ _________
0009A4E 5890 7876/0D99       0A268 52328    6643.              VINIT ,                   Initialize print routines
 009A54 D20B C004 787A 00004 0A26C 52331    6644.              MVC   COMEYE(12),=3CL4'COM '  Set eye-catcher for dump
 009A5A D203 C064 7886 00064 0A278 52332    6645.              MVC   COMTIME,=A(10*100)  Fire every ten SECONDS
 009A60 47F0 7076/80/0_      09A68 52333    6646.              EVENTS ENTRIES=3          Set maximum on three ECB's
 009A74 5010 C040            00040 52344    6647.              ST    R1,COMEVENT         Save address of event table
0009A78 4110 C080/41E0_      00080 52346    6649.              EXTRACT COMCIB,'S',FIELDS=(COMM),MF=(E,COMEXT)
 009A94 5820 C044            00044 52356    6650.              L     SR,COMCIB           Address of comm parm list
 USING  COM,R2                     52357    6651.              USING COM,SR              ## addr to com list
 009A98 5830 2004/1233       00004 52366    6652.              LT    TR,COMCIBPT         Any CIB currently queued
 009A9E 4780 70E6            09AD8 52370    6653.              IF    NZ,BEGIN            Yep -- free it
 USING  CIB,R3                     52381  1 6654.                USING CIB,TR              ## Addressability to CIB
 009AA2 9504 3004/4770_00004       52390  1 6655.                IF    (CIBVERB,EQ,CIBSTART),BEGIN
 009AAA 1113/4100 2004_            52408  2 6656.                  QEDIT ORIGIN=COMCIBPT,BLOCK=(TR)
 009AB2 70C4/47F0 70E6 09AB2 09AA8 52412  1 6657.                END   ELSE,BEGIN          Unexpected CIB queued
 009AB6 4110 7986/4100_      0A378 52427  2 6658.                  VSEG  'Unexpected CIB queued'
 009AC4 4100 0000/1B11_      00000 52436  2 6659.                  VCNTL WTO,0               Write to console operator
 009AD0 1113/4100 2004_            52452  2 6659.1                 QEDIT ORIGIN=COMCIBPT,BLOCK=(TR)
 009AD8                            52456  1 6660.                END   ,
 009AD8                            52460    6661.              END   ,
 DROP   CIB,R3                     52464    6662.              DROP  TR                  ## Release CIB addressability
 009AD8 9180 2000      00000       52471    6663.              TM    0(SR),X'80'         Test for waiting
 009ADC 47E0 7114            09B06 52472    6664.              IF    O,BEGIN             This is fishy
 009AE0 4510 70F6/0000_      09AE8 52483  1 6665.                MODESET MODE=SUP
 009AEE 4110 0000/4100_      00000 52490  1 6666.                QEDIT ORIGIN=COMCIBPT     Free entire chain
 009AF8 4510 710E/0000_      09B00 52494  1 6667.                MODESET MODE=PROB
 009B06                            52501    6668.              END   ,
 009B06 4110 0001/1111_      00001 52505    6669.              QEDIT ORIGIN=COMCIBPT,CIBCTR=1      Queue one command
 009B14 12FF/4780 7166             52511    6670.              IF    (R15,NZ),BEGIN      Test return code
 009B1A 182F                       52525  1 6671.                LR    SR,R15              Save qedit return code
 009B1C 4110 799B/4100_      0A38D 52526  1 6672.                VSEG  'Communication task failure QEDIT='
 009B2A 18F2/1B00/4110_            52535  1 6673.                SEGDC 0,(SR)              Add QEDIT return code
 009B3E 4100 0000/1B11_      00000 52574  1 6674.                VCNTL WTO,0               Write to operator and exit
 009B4A 4100 000C/4110_      0000C 52590  1 6675.                POST  SYNCECB,12          Post syncronization ECB
 009B54 47F0 7330            09D22 52596  1 6676.                B     COMXIT              Just kill subtask
 009B58                            52597    6677.              END   ,
 009B58 5800 2000            00000 52601    6678.              L     R0,COMECBPT         Pointer to CIB ECB
 009B5C 5000 C048            00048 52602    6679.              ST    R0,COMCECB          Save address of ECB for later
 DROP   COM,R2                     52603    6680.              DROP  SR                  ## release comm parameter list
 009B60 4D90 72DA            09CCC 52610    6681.              LCALL COMQUE              Queue this ECB to events table
0009B64 4100 B0FC            000FC 52613    6683.              LA    R0,COMWAIT          Address of quiesce ECB
 009B68 4D90 72DA            09CCC 52614    6684.              LCALL COMQUE              Queue quiesce ecb to table
0009B6C 4100 C04C            0004C 52617    6686.              LA    R0,COMSTIMR         Address of stimer ecb
 009B70 4D90 72DA            09CCC 52618    6687.              LCALL COMQUE              Queue stimer ecb to table
 009B74 4D90 72F0            09CE2 52620    6688.              LCALL COMTSET             SET COMMUNICATIONS UPDATE TIMER
0009B78 4110 791A/4100_      0A30C 52623    6690.              VSEG  'Communication task active.'
 009B86 4100 0000/1B11_      00000 52632    6691.              VCNTL WTO,0               WRITE TO CONSOLE OPERATOR
 009B92 1B00/4110 B060_            52648    6692.              POST  SYNCECB,0           POST MOTHER TASK TO CONTINUE
1VDMP     (VDMP21) (09:46) (22MAR04) ORVYL's File System Dump Program: Communication                                        Page  288
0Current Usings:  (DUMP,R6) (COMTASK,R7) (DWA,R11) (COMAREA,R12)
0Loc    Object Code    Addr1 Addr2  Stmt Lv Lineno    Source Statement           (Hibal 5, Asmedit 3.3)  HLASM R4.0  2004/03/22 09.46
+___    ______ ____    _____ _____  ____ __ ______    ______ _________
0                                  52655    6694.     ********************************************************************
                                   52656    6695.     *                                                                  *
                                   52657    6696.     *  COMMUNICATION SUBTASK WAIT LOOP                                 *
                                   52658    6697.     *                                                                  *
                                   52659    6698.     ********************************************************************
-009B9A                            52661    6700.              LOOP  BEGIN               COMMAND PROCESSING LOOP
 009B9A 0700/5810 C040_            52667  1 6701.                EVENTS TABLE=COMEVENT,WAIT=YES
 009BB0 1211/4780 72D6             52678  1 6702.                IF    (R1,NZ),BEGIN       Process request
 009BB6 5820 1000            00000 52692  2 6703.                  L     SR,@R1              Set first ecb in list
 009BBA 4120 2000            00000 52693  2 6704.                  LA    SR,@SR              Clear any extraenous bits
 009BBE 4130 B0FC            000FC 52694  2 6705.                  LA    TR,COMWAIT          Quiesce ecb
 009BC2 1923/4780 7330             52695  2 6706.                  IF    (SR,EQ,TR),COMXIT   Exit please
 009BC8 4130 C04C            0004C 52713  2 6707.                  LA    TR,COMSTIMR         Timer fire?
 009BCC 1923/4770 71FE             52714  2 6708.                  IF    (SR,EQ,TR),BEGIN    RESET TIMER
 009BD2 4100 0001/5E00_      00001 52729  3 6709.                    INCR  R0,COMFIRE          UPDATE TIMER FIRE COUNTER
 009BDE D703 C04C C04C 0004C 0004C 52735  3 6710.                    CLEAR COMSTIMR            ZERO TIMER ECB
 009BE4 4100 C04C            0004C 52742  3 6711.                    LA    R0,COMSTIMR         ADDRESS OF STIMER ECB
 009BE8 4D90 72DA            09CCC 52743  3 6712.                    LCALL COMQUE              REQUEUE STIMER ECB TO TABLE
 009BEC 4D90 72F0            09CE2 52745  3 6713.                    LCALL COMTSET             SET REAL TIME INTERVAL
 009BF0                            52747  2 6714.                  END   ,
 009BF0 5830 C048            00048 52751  2 6715.                  L     TR,COMCECB          MODIFY/STOP ECB
 009BF4 1923/4770 72D6             52752  2 6716.                  IF    (SR,EQ,TR),BEGIN    PROCESS COMMAND
 009BFA 5820 C044            00044 52767  3 6717.                    L     SR,COMCIB           ADDRESS OF PARAMETER LIST
 USING  COM,R2                     52768  3 6718.                    USING COM,SR              ## ADDR TO LIST
 009BFE 5830 2004            00004 52777  3 6719.                    L     TR,COMCIBPT         SET POINTER
 USING  CIB,R3                     52778  3 6720.                    USING CIB,TR              ## ADDR TO CIB
 009C02 9540 3004/4770_00004       52787  3 6721.                    IF    (CIBVERB,EQ,CIBSTOP),BEGIN
 009C0A 4110 79BC/4100_      0A3AE 52805  4 6722.                      VSEG  'VDMP888I - Task begin quiesced.'
 009C18 1B11                       52814  4 6723.                      CLEAR R1                  ZERO REGISTER 1 FOR MCS FLAG
 009C1A BF18 300C            0000C 52818  4 6724.                      ICM   R1,8,CIBCONID       SET CONSOLE MCS IDENTIFIER
 009C1E 4100 0000/5890_      00000 52819  4 6725.                      VCNTL WTO,(R1)            WRITE TO SPECIFIED CONSOLE
 009C28 9640 B1C4      001C4       52835  4 6726.                      SET   FLQUIT              SET QUIT FLAG FOR SUBTASKS
 009C2C 723E/47F0 72D6 09C2C 09C08 52841  3 6727.                    END   ELSE,BEGIN
 009C30 D200 C32C 300C 0032C 0000C 52856  4 6728.                      MVC   COMMCSID,CIBCONID   SAVE CONSOLE IDENTIFIER
 009C36 4110 7896/4100_      0A288 52857  4 6729.                      VSEG  'VDMP732I - CONSOLE ('
 009C44 1FFF/43F0 C32C             52866  4 6730.                      LC    R15,COMMCSID        SET MCS CONSOLE ID
 009C4A 4100 0002/4110_      00002 52873  4 6731.                      SEGHX 2,(R15)             ADD CONSOLE ID
 009C5E 4110 7934/4100_      0A326 52914  4 6732.                      VSEG  ') CMD='            ADD COMMAND PREFIX
 009C6C 4800 300E            0000E 52923  4 6733.                      LH    R0,CIBDATLN         SET LENGTH OF CONSOLE COMMAND
 009C70 4110 3010            00010 52924  4 6734.                      LA    R1,CIBDATA          ADDRESS OF CONSOLE COMMAND
 009C74 5890 788A/0D99       0A27C 52925  4 6735.                      VSEG  (R1),(R0)           ADD TO MESSAGE BUFFER
 009C7A 1B11                       52940  4 6736.                      CLEAR R1                  ZERO FLAG BYTE
 009C7C BF11 79DB            0A3CD 52944  4 6737.                      ICM   R1,1,=AL1(11)       WRITE TO PROGRAMMER ROUTCDE
 009C80 4100 0000/5890_      00000 52945  4 6738.                      VCNTL WTO,(R1)            WRITE TO JOB LOG ONLY
 009C8A 4840 300E            0000E 52961  4 6739.                      LH    QR,CIBDATLN         LENGTH OF CIB DATA IN BYTES
 009C8E 1804                       52962  4 6740.                      LR    R0,QR               SAVE LENGTH OF CIB DATA
 009C90 4110 C32D            0032D 52963  4 6741.                      LA    R1,COMLINE          ADDRESS OF RECEIVE DATA
 009C94 9240 C32D      0032D       52964  4 6742.                      MVI   COMLINE,C' '        BLANK FILL COMMAND BUFFER
 009C98 D24E 1000 1001 00000 00001 52965  4 6743.                      MVC   @R1(79),@R1+1       BLANK FILL COMMAND BUFFER
 009C9E 0640/4440 7A82_            52966  4 6744.                      DEX   QR,'MVC @R1(0),CIBDATA'   SET COMMAND LINE
 009CA4 41F0 C08C/58E0_      0008C 52985  4 6745.                      SCINIT (R1),(R0),COMCB    INITIALIZE SCANNER
 009CAE 4110 738A/58E0_      09D7C 53005  4 6746.                      SCAN  COMSCAN,(R15)       PROCESS PARAMETER
1VDMP     (VDMP21) (09:46) (22MAR04) ORVYL's File System Dump Program: Communication                                        Page  289
0Current Usings:  (COM,R2) (CIB,R3) (DUMP,R6) (COMTASK,R7) (DWA,R11) (COMAREA,R12)
0Loc    Object Code    Addr1 Addr2  Stmt Lv Lineno    Source Statement           (Hibal 5, Asmedit 3.3)  HLASM R4.0  2004/03/22 09.46
+___    ______ ____    _____ _____  ____ __ ______    ______ _________
0009CB8 1113/4100 2004_            53021  4 6747.                      QEDIT ORIGIN=COMCIBPT,BLOCK=(TR)    RELEASE CIB FROM CHAIN
 DROP   COM,R2                     53025  4 6748.                      DROP  SR                  ## RELEASE ADDR TO LIST
 DROP   CIB,R3                     53032  4 6749.                      DROP  TR                  ## RELEASE ADDR TO CIB
 009CC0 5800 C048            00048 53039  4 6750.                      L     R0,COMCECB          ADDRESS OF ECB
 009CC4 4D90 72DA            09CCC 53040  4 6751.                      LCALL COMQUE              REQUEUE ECB TO EVENT TABLE
 009CC8                            53042  3 6752.                    END   ,
 009CC8                            53046  2 6753.                  END   ,                   PROCESS NEXT COMMAND
 009CC8                            53050  1 6754.                END   ,
 009CC8 47F0 71A8            09B9A 53054    6755.              END   ,
1VDMP     (VDMP21) (09:46) (22MAR04) ORVYL's File System Dump Program: Communication                                        Page  290
0Current Usings:  (DUMP,R6) (COMTASK,R7) (DWA,R11) (COMAREA,R12)
0Loc    Object Code    Addr1 Addr2  Stmt Lv Lineno    Source Statement           (Hibal 5, Asmedit 3.3)  HLASM R4.0  2004/03/22 09.46
+___    ______ ____    _____ _____  ____ __ ______    ______ _________
0                                  53060    6757.     *
                                   53061    6758.     *  QUEUE ECB TO COMMUNICATIONS SUBTASK EVENTS TABLE
                                   53062    6759.     *
0009CCC                            53064    6761.     COMQUE   LABEL ,                   QUEUE ECB TO EVENTS TABLE
 009CCC 5810 C040/18F0_      00040 53066    6762.              EVENTS TABLE=COMEVENT,ECB=(0)
 009CE0 07F9                       53077    6763.              BR    RAR                 RETURN TO CALLER
-                                  53079    6765.     *
                                   53080    6766.     *  SET REAL TIME MULTIPLE TIMER
                                   53081    6767.     *
0009CE2                            53083    6769.     COMTSET  LABEL ,                   SET REAL TIME INTERVAL
                                   53086    6771.   C          STIMERM SET,ID=COMSTID,BINTVL=COMTIME,WAIT=NO,
                                            6772.                    EXIT=COMAGAIN,PARM=COMADDR,MF=(E,COMSTIM)
                                   53087             +*        MACDATE = 08/19/88                                           *
 009CE2                            53088    01-STIME +         DS    0H                 STIMERM INVOCATION
 009CE2 4110 C068            00068 53089    01-STIME +         LA    1,COMSTIM          LA LIST ADDRESS
 009CE6 D717 1000 1000 00000 00000 53090    01-STIME +         XC    0(24,1),0(1)       CLEAR LIST TO ZEROES
 009CEC 9213 1000      00000       53091    01-STIME +         MVI   0(1),B'00010011'   SET FLAG BYTE
 009CF0 9201 1003      00003       53092    01-STIME +         MVI   3(1),1             INITIALIZE LVL# IN PARAMETER LIST
 009CF4 41F0 C054            00054 53093    01-STIME +         LA    15,COMSTID         GET ID ADDRESS
 009CF8 50F0 1004            00004 53094    01-STIME +         ST    15,4(,1)           STORE ID ADDRESS INTO LIST
 009CFC 41F0 C064            00064 53095    01-STIME +         LA    15,COMTIME         GET INTERVAL ADDRESS
 009D00 50F0 1008            00008 53096    01-STIME +         ST    15,8(,1)           STORE INTERVAL ADDRESS INTO LIST
 009D04 41F0 7796            0A188 53097    01-STIME +         LA    15,COMAGAIN        GET EXIT ADDRESS
 009D08 50F0 100C            0000C 53098    01-STIME +         ST    15,12(,1)          STORE EXIT ROUTINE ADDRESS INTO LIST
 009D0C 41F0 C058            00058 53099    01-STIME +         LA    15,COMADDR         GET PARM ADDRESS
 009D10 D203 1010 F000 00010 00000 53100    01-STIME +         MVC   16(4,1),0(15)      MOVE USER PARAMETER INTO LIST
 009D16 4100 0004            00004 53101    01-STIME +         LA    0,4                LOAD OPTION BYTE INTO GPR 0
 009D1A 8900 0018            00018 53102    01-STIME +         SLL   0,24               SHIFT OPTION TO HIGH BYTE (BIT 5 ON)
 009D1E 0A2F                       53103    01-STIME +         SVC   47                 ISSUE STIMER/STIMERM SET SVC
 009D20 07F9                       53104    6773.              BR    RAR                 AND RETURN TO CALLER
1VDMP     (VDMP21) (09:46) (22MAR04) ORVYL's File System Dump Program: Communication                                        Page  291
0Current Usings:  (DUMP,R6) (COMTASK,R7) (DWA,R11) (COMAREA,R12)
0Loc    Object Code    Addr1 Addr2  Stmt Lv Lineno    Source Statement           (Hibal 5, Asmedit 3.3)  HLASM R4.0  2004/03/22 09.46
+___    ______ ____    _____ _____  ____ __ ______    ______ _________
0                                  53107    6776.     *
                                   53108    6777.     *  COMMUNICATIONS TASK SHUTDOWN ROUTINE
                                   53109    6778.     *
0009D22                            53111    6780.     COMXIT   LABEL ,
 009D22 4100 0030/1B11_      00030 53113    6780.1             VCNTL STPC                ISSUE INTERNAL STOP COMMAND
 009D2E 4100 000C/1B11_      0000C 53129    6781.              VCNTL CLOSE               RELEASE PRINT CONTROL BUFFERS
 009D3A 4110 C068/D70F_      00068 53145    6782.              STIMERM CANCEL,ID=ALL,MF=(E,COMSTIM)  KILL ALL TIMERS
 009D54 5810 C040/1700_      00040 53155    6783.              EVENTS ENTRIES=DEL,TABLE=COMEVENT   RELEASE EVENT TABLE
 009D60 58D0 C018            00018 53163    6784.              L     R13,COMSAVE         Reset save area address
 009D64 181C                       53164    6785.              LR    R1,DWR              Prepare to release area
 009D66 4100 037D            0037D 53165    6786.              LA    R0,L'COMAREA        Length of area
 009D6A 4110 1000/0A0A       00000 53166    6787.              FREEMAIN R,LV=(0),A=(1)   Release memory
 009D70 1BFF                       53170    6788.              CLEAR R15                 Clear return code to zero
 009D72 58E0 D00C            0000C 53174    6789.              L     R14,@R13+12         Reset register 14
 009D76 980C D014            00014 53175    6790.              LM    R0,R12,@R13+20      Reset remaining registers
 009D7A 07FE                       53176    6791.              BR    R14                 And return to system
1VDMP     (VDMP21) (09:46) (22MAR04) ORVYL's File System Dump Program: Communication                                        Page  292
0Current Usings:  (DUMP,R6) (COMTASK,R7) (DWA,R11) (COMAREA,R12)
0Loc    Object Code    Addr1 Addr2  Stmt Lv Lineno    Source Statement           (Hibal 5, Asmedit 3.3)  HLASM R4.0  2004/03/22 09.46
+___    ______ ____    _____ _____  ____ __ ______    ______ _________
0                                  53178    6793.     *******************************************************************
                                   53179    6794.     *                                                                  *
                                   53180    6795.     *   COMMUNICATIONS SUBTASK KEYWORD ROUTING TABLE                   *
                                   53181    6796.     *                                                                  *
                                   53182    6797.     *******************************************************************
0009D7C 0D00A060E2E3C1E3           53184    6799.     COMSCAN  SCKW  STATUS,COMSTAT,A
 009D86 AD009F32C9D6D9C1           53186    6800.              SCKW  IORATE,COMIOR,(A,P,PI)
 009D90 AF009FE4C9D5E3C5           53188    6801.              SCKW  INTERVAL,COMINT,(A,P,PI)
 009D9C 0C009DB4D9C1E3C5           53190    6802.              SCKW  RATES,COMRATE,A
 009DA5 0D009FB0D7E3D7E3           53192    6802.1             SCKW  PTPTTM,COMUNL,A     "Put The Pedal To The Metal"
 009DAF FF00A156                   53194    6803.              SCKW  ,COMINV
1VDMP     (VDMP21) (09:46) (22MAR04) ORVYL's File System Dump Program: Communication                                        Page  293
0Current Usings:  (DUMP,R6) (COMTASK,R7) (DWA,R11) (COMAREA,R12)
0Loc    Object Code    Addr1 Addr2  Stmt Lv Lineno    Source Statement           (Hibal 5, Asmedit 3.3)  HLASM R4.0  2004/03/22 09.46
+___    ______ ____    _____ _____  ____ __ ______    ______ _________
0                                  53197    6805.     ********************************************************************
                                   53198    6806.     *                                                                  *
                                   53199    6807.     *  Report on Global and Instantaneous I/O rates                    *
                                   53200    6808.     *                                                                  *
                                   53201    6809.     ********************************************************************
0009DB4                            53203    6811.     COMRATE  LABEL ,
 009DB4 90E3 D000/41D0_      00000 53205    6812.              VPUSH R14,TR,*            SAVE CALLING REGISTERS
 009DBC 4110 79DC/4100_      0A3CE 53208    6813.              VSEG  'VDMP931I - I/O Rate summary ('
 009DCA 58F0 C014/1B00_      00014 53217    6814.              SEGDC 0,COMFIRE           ADD FIRE TIMER COUNTER
 009DE0 4110 79F9/4100_      0A3EB 53256    6815.              VSEG  ')'                 CLOSE OUT MESSGE
 009DEE 1B11                       53265    6816.              CLEAR R1                  ZERO MCS REGISTER
 009DF0 BF18 C32C            0032C 53269    6817.              ICM   R1,8,COMMCSID         SET REQUESTING CONSOLE ID
 009DF4 BF14 79FA            0A3EC 53270    6818.              ICM   R1,4,=X'40'             SET MULTI-LINE WTO
 009DF8 1BFF                       53271    6819.              CLEAR R15                       ZERO LINE TYPE DESCRIPTION
 009DFA BFF2 79FA            0A3EC 53275    6820.              ICM   R15,2,=X'40'                SET LINE TYPE "L"
 009DFE 4100 0000/5890_      00000 53276    6821.              VCNTL WTO,(R1),(R15)                ISSUE WTO TO CONSOLE
0009E08 4100 0010/4110_      00010 53294    6823.              VCNTL BLANK,11            SET SPACES INTO MESSAGE
 009E16 4110 78B6/4100_      0A2A8 53313    6824.              VSEG  'Global I/O''s/second: Target='
 009E24 9180 B1C7/47E0_001C7       53322    6824.1             IF    TFRATE,BEGIN        REPORT RATE IF THROTTLE CONTROL
 009E2C 4110 C020            00020 53337  1 6825.                LA    R1,COMWORK          Address of work area
 009E30 58F0 B184            00184 53338  1 6826.                L     R15,GIOLIMIT          global limit value
 009E34 4100 0002            00002 53339  1 6827.                LA    R0,2                    set precision
 009E38 58E0 78D2/0DEE       0A2C4 53340  1 6828.                XCALL BTR                       convert to printable
 009E3E 5890 788A/0D99       0A27C 53344  1 6829.                VSEG  (R1),(R0)                   set into message
 009E44 7456/47F0 7464 09E44 09E2A 53359    6829.1             END   ELSE,BEGIN          NON-THROTTLE CONTROL MODE
 009E48 4110 79FB/4100_      0A3ED 53374  1 6829.2               VSEG  'Unlimited'
 009E56                            53383    6829.3             END   ,
0009E56 4110 7A04/4100_      0A3F6 53388    6831.              VSEG  ', Actual='         Report actual i/o rate
 009E64 B205 C020      00020       53397    6832.              STCK  COMWORK             Set ending stck time
 009E68 9801 C020            00020 53398    6833.              LM    R0,R1,COMWORK       Set ending time into register
 009E6C 9823 B030            00030 53399    6834.              LM    SR,TR,CLCKSTRT      Set begin stck value
 009E70 58F0 B18C            0018C 53400    6835.              L     R15,GIOCNT          Set global i/o counter
 009E74 4D90 6260            00276 53401    6836.              LCALL RATECOMP            Compute i/o's per second (.01 u)
 009E78 4110 C020            00020 53403    6837.              LA    R1,COMWORK          Address of work area
 009E7C 4100 0002            00002 53404    6838.              LA    R0,2                Set precision level
 009E80 58E0 78D2/0DEE       0A2C4 53405    6839.              XCALL BTR                 Convert into i/o's per second
 009E86 5890 788A/0D99       0A27C 53409    6840.              VSEG  (R1),(R0)           add to message
 009E8C 1B11                       53424    6841.              CLEAR R1                  ZERO MCS FLAG REGISTER
 009E8E BF18 C32C            0032C 53428    6842.              ICM   R1,8,COMMCSID         SET REQUESTING CONSOLE
 009E92 BF14 79FA            0A3EC 53429    6843.              ICM   R1,4,=X'40'             SET MULTI-LINE WTO
 009E96 BFFF 78D6            0A2C8 53430    6844.              ICM   R15,15,=X'00002000'       SET LINE TYPE "D"
 009E9A 4100 0000/5890_      00000 53431    6845.              VCNTL WTO,(R1),(R15)              REPORT TO CONSOLE
0009EA4 4100 0010/4110_      00010 53449    6847.              VCNTL BLANK,11            ADD SPACERS TO MESSAGE
 009EB2 4110 7A0D/4100_      0A3FF 53468    6848.              VSEG  'Instantaneous I/O Rate='
 009EC0 41F0 B0E8            000E8 53477    6849.              LA    R15,COMLOCK         ADDRESS OF LOCKWORDS
 009EC4 4D90 628C            002A2 53478    6850.              LCALL GETLOCK             LOCK ON COMMUNICATIONS
 009EC8 58F0 B1A8            001A8 53480    6851.              L     R15,IIORATE         SET INSTANTANEOUS I/O RATE
 009ECC 4110 C020            00020 53481    6852.              LA    R1,COMWORK          ADDRESS OF WORK AREA
 009ED0 4100 0002            00002 53482    6853.              LA    R0,2                  SET PRECISION OF CONVERSION
 009ED4 58E0 78D2/0DEE       0A2C4 53483    6854.              XCALL BTR                     CONVERT TO PRINTABLE
1VDMP     (VDMP21) (09:46) (22MAR04) ORVYL's File System Dump Program: Communication                                        Page  294
0Current Usings:  (DUMP,R6) (COMTASK,R7) (DWA,R11) (COMAREA,R12)
0Loc    Object Code    Addr1 Addr2  Stmt Lv Lineno    Source Statement           (Hibal 5, Asmedit 3.3)  HLASM R4.0  2004/03/22 09.46
+___    ______ ____    _____ _____  ____ __ ______    ______ _________
0009EDA 5890 788A/0D99       0A27C 53487    6855.              VSEG  (R1),(R0)                 ADD TO MESSAGE
 009EE0 4110 7A24/4100_      0A416 53502    6856.              VSEG  ', Interval='       REPORT INTERVAL
 009EEE 58F0 C064            00064 53511    6857.              L     R15,COMTIME         SET STIMER INTERVAL
 009EF2 4110 C020            00020 53512    6858.              LA    R1,COMWORK            ADDRESS OF WORK AREA
 009EF6 4100 0002            00002 53513    6859.              LA    R0,2                    SET PRECISION FOR CONVERSION
 009EFA 58E0 78D2/0DEE       0A2C4 53514    6860.              XCALL BTR                       CONVERT TO PRINTABLE
 009F00 5890 788A/0D99       0A27C 53518    6861.              VSEG  (R1),(R0)                   ADD TO CONSOLE MESSAGE
 009F06 41F0 B0E8            000E8 53533    6862.              LA    R15,COMLOCK         ADDRESS OF LOCKWORDS
 009F0A 4D90 6310            00326 53534    6863.              LCALL RELLOCK             RELEASE COMMUNICATIONS LOCK
 009F0E 1B11                       53536    6864.              CLEAR R1                  ZERO MCS FLAGE REGISTER
 009F10 BF18 C32C            0032C 53540    6865.              ICM   R1,8,COMMCSID         SET REQUESTING CONSOLE
 009F14 BF14 79FA            0A3EC 53541    6866.              ICM   R1,4,=X'40'             SET MULTI-LINE WTO
 009F18 1BFF                       53542    6867.              CLEAR R15                       ZERO LINE-TYPE REGISTER
 009F1A BFF2 7A2F            0A421 53546    6868.              ICM   R15,2,=X'30'                SET LINE TYPE "DE"
 009F1E 4100 0000/5890_      00000 53547    6869.              VCNTL WTO,(R1),(R15)                WRITE TO CONSOLE
 009F28 4BD0 793A/98E3_      0A32C 53564    6870.              VPOP  R14,TR,*            RESTORE CALLING REGISTERS
 009F30 07FE                       53567    6871.              SCRTN (R15)               RETURN TO THE SCANNER
1VDMP     (VDMP21) (09:46) (22MAR04) ORVYL's File System Dump Program: Communication                                        Page  295
0Current Usings:  (DUMP,R6) (COMTASK,R7) (DWA,R11) (COMAREA,R12)
0Loc    Object Code    Addr1 Addr2  Stmt Lv Lineno    Source Statement           (Hibal 5, Asmedit 3.3)  HLASM R4.0  2004/03/22 09.46
+___    ______ ____    _____ _____  ____ __ ______    ______ _________
0                                  53574    6872.5    ********************************************************************
                                   53575    6873.     *                                                                  *
                                   53576    6874.     *  Report setting of global I/O rate target                        *
                                   53577    6875.     *                                                                  *
                                   53578    6875.5    ********************************************************************
0009F32                            53580    6877.     COMIOR   LABEL ,                   Set global target i/o rate
 009F32 90E3 D000/41D0_      00000 53582    6878.              VPUSH R14,TR,*            Save calling registers
 009F3A 4720 756A            09F5C 53585    6879.              IF    NP,BEGIN            Invalid parameter
 009F3E 4110 7A30/4100_      0A422 53596  1 6880.                VSEG  'VDMP932E - Missing I/O rate from command.'
 009F4C 1B11                       53605  1 6881.                CLEAR R1                  Zero mcs console id
 009F4E BF18 C32C            0032C 53609  1 6882.                ICM   R1,8,COMMCSID         Set requesting console
 009F52 4100 0000/5890_      00000 53610  1 6883.                VCNTL WTO,(R1)                Issue message to console
 009F5C 756E/47F0 75B4 09F5C 09F3C 53626    6884.              END   ELSE,BEGIN          Process I/O rate parameter
 009F60 5810 F000            00000 53641  1 6885.                L     R1,@R15             Set value from scanner block
 009F64 5C00 78DA            0A2CC 53642  1 6886.                M     R0,=A(100)          Convert to .01 units
 009F68 5010 B184            00184 53643  1 6887.                ST    R1,GIOLIMIT         Set global I/O limit value
 009F6C 4110 78DE/4100_      0A2D0 53644  1 6888.                VSEG  'VDMP932I - I/O rate has been set to '
 009F7A 58F0 B184            00184 53653  1 6889.                L     R15,GIOLIMIT        Reset blobal I/O limit value
 009F7E 4110 C020            00020 53654  1 6890.                LA    R1,COMWORK          Set address of work area
 009F82 4100 0002            00002 53655  1 6891.                LA    R0,2                And precision of result
 009F86 58E0 78D2/0DEE       0A2C4 53656  1 6892.                XCALL BTR                 Convert rate to printable
 009F8C 5890 788A/0D99       0A27C 53660  1 6893.                VSEG  (R1),(R0)           Add to end of message
 009F92 1B11                       53675  1 6894.                CLEAR R1                  Zero MCS console ID
 009F94 BF18 C32C            0032C 53679  1 6895.                ICM   R1,8,COMMCSID       Set mcs console id for response
 009F98 4100 0000/5890_      00000 53680  1 6896.                VCNTL WTO,(R1)            Report to issuing console
 009FA2 9680 B1C7      001C7       53696  1 6896.1               SET   TFRATE              Set throttle control in effect
 009FA6                            53702    6897.              END   ,
 009FA6 4BD0 793A/98E3_      0A32C 53706    6898.              VPOP  R14,TR,*            Restore calling registers
 009FAE 07FE                       53709    6899.              SCRTN (R15)               Return to the scanner
1VDMP     (VDMP21) (09:46) (22MAR04) ORVYL's File System Dump Program: Communication                                        Page  296
0Current Usings:  (DUMP,R6) (COMTASK,R7) (DWA,R11) (COMAREA,R12)
0Loc    Object Code    Addr1 Addr2  Stmt Lv Lineno    Source Statement           (Hibal 5, Asmedit 3.3)  HLASM R4.0  2004/03/22 09.46
+___    ______ ____    _____ _____  ____ __ ______    ______ _________
0                                  53716    6899.15   ********************************************************************
                                   53717    6899.2    *                                                                  *
                                   53718    6899.3    *  Set no throttle control                                         *
                                   53719    6899.4    *                                                                  *
                                   53720    6899.45   ********************************************************************
0009FB0                            53722    6899.6    COMUNL   LABEL ,
 009FB0 90E3 D000/41D0_      00000 53724    6899.61            VPUSH R14,TR,*            Push scanner control registers
 009FB8 947F B1C7      001C7       53727    6899.7             CLEAR TFRATE              Zero throttle control flag
 009FBC 4110 7816/4100_      0A208 53734    6899.8             VSEG  'VDMP937I - Unlimited I/O rate mode now in effect'
 009FCA 1B11                       53743    6899.9             CLEAR R1                  Zero mcs console id
 009FCC BF18 C32C            0032C 53747    6899.91            ICM   R1,8,COMMCSID       Set mcs console id
 009FD0 4100 0000/5890_      00000 53748    6899.92            VCNTL WTO,(R1)            Report to issuing console
 009FDA 4BD0 793A/98E3_      0A32C 53764    6899.93            VPOP  R14,TR,*            Restore scanner registers
 009FE2 07FE                       53767    6899.94            SCRTN (R15)               And return to the scanner
1VDMP     (VDMP21) (09:46) (22MAR04) ORVYL's File System Dump Program: Communication                                        Page  297
0Current Usings:  (DUMP,R6) (COMTASK,R7) (DWA,R11) (COMAREA,R12)
0Loc    Object Code    Addr1 Addr2  Stmt Lv Lineno    Source Statement           (Hibal 5, Asmedit 3.3)  HLASM R4.0  2004/03/22 09.46
+___    ______ ____    _____ _____  ____ __ ______    ______ _________
0                                  53774    6900.1    ********************************************************************
                                   53775    6900.2    *                                                                  *
                                   53776    6900.3    *  REPORT SETTING OF NEW UPDATE INTERVAL                           *
                                   53777    6900.4    *                                                                  *
                                   53778    6900.5    ********************************************************************
0009FE4                            53780    6900.7    COMINT   LABEL ,                   SET GLOBAL TARGET I/O RATE
 009FE4 90E3 D000/41D0_      00000 53782    6900.8             VPUSH R14,TR,*            SAVE CALLING REGISTERS
 009FEC 4720 761E            0A010 53785    6902.              IF    NP,BEGIN            INVALID PARAMETER
 009FF0 4110 7A59/4100_      0A44B 53796  1 6903.                VSEG  'VDMP933E - Missing interval from command.'
 009FFE 1B11                       53805  1 6904.                CLEAR R1                  ZERO MCS CONSOLE ID
 00A000 BF18 C32C            0032C 53809  1 6905.                ICM   R1,8,COMMCSID         SET REQUESTING CONSOLE
 00A004 4100 0000/1B11_      00000 53810  1 6906.                VCNTL WTO                     ISSUE MESSAGE TO CONSOLE
 00A010 7622/47F0 7664 0A010 09FEE 53826    6907.              END   ELSE,BEGIN          PROCESS I/O RATE PARAMETER
 00A014 5810 F000            00000 53841  1 6908.                L     R1,@R15             SET VALUE FROM SCANNER BLOCK
 00A018 5C00 78DA            0A2CC 53842  1 6909.                M     R0,=A(100)          CONVERT TO .01 UNITS
 00A01C 5010 C064            00064 53843  1 6910.                ST    R1,COMTIME          SET STIMER UPDATE INTERVAL
 00A020 4110 793C/4100_      0A32E 53844  1 6911.                VSEG  'VDMP933I - Upate interval has been set to '
 00A02E 58F0 C064            00064 53853  1 6912.                L     R15,COMTIME         SET STIMER UPDATE INTERVAL
 00A032 4110 C020            00020 53854  1 6913.                LA    R1,COMWORK          SET ADDRESS OF WORK AREA
 00A036 4100 0002            00002 53855  1 6914.                LA    R0,2                AND PRECISION OF RESULT
 00A03A 58E0 78D2/0DEE       0A2C4 53856  1 6915.                XCALL BTR                 CONVERT RATE TO PRINTABLE
 00A040 5890 788A/0D99       0A27C 53860  1 6916.                VSEG  (R1),(R0)           ADD TO END OF MESSAGE
 00A046 1B11                       53875  1 6917.                CLEAR R1                  ZERO MCS CONSOLE ID
 00A048 BF18 C32C            0032C 53879  1 6918.                ICM   R1,8,COMMCSID       SET MCS CONSOLE ID FOR RESPONSE
 00A04C 4100 0000/5890_      00000 53880  1 6919.                VCNTL WTO,(R1)            REPORT TO ISSUING CONSOLE
 00A056                            53896    6920.              END   ,
 00A056 4BD0 793A/98E3_      0A32C 53900    6921.              VPOP  R14,TR,*            RESTORE CALLING REGISTERS
 00A05E 07FE                       53903    6922.              SCRTN (R15)               RETURN TO THE SCANNER
1VDMP     (VDMP21) (09:46) (22MAR04) ORVYL's File System Dump Program: Communication                                        Page  298
0Current Usings:  (DUMP,R6) (COMTASK,R7) (DWA,R11) (COMAREA,R12)
0Loc    Object Code    Addr1 Addr2  Stmt Lv Lineno    Source Statement           (Hibal 5, Asmedit 3.3)  HLASM R4.0  2004/03/22 09.46
+___    ______ ____    _____ _____  ____ __ ______    ______ _________
0                                  53910    6923.1    ********************************************************************
                                   53911    6924.     *
                                   53912    6925.     *  REPORT ACTIVE SUBTASKS TO ISSUING CONSOLE
                                   53913    6926.     *
                                   53914    6926.5    ********************************************************************
000A060                            53916    6928.     COMSTAT  LABEL ,
 00A060 90E3 D000/41D0_      00000 53918    6929.              VPUSH R14,TR,*            SAVE CALLING REGISTERS
 USING  SUBTASK,R2                 53921    6929.05            USING SUBTASK,SR          ## ADDRESSABILITY TO SUBTASK
 00A068 41F0 B100            00100 53930    6929.1             LA    R15,QUELOCK         ADDRESS OF QUEUE CONTROL LOCK
 00A06C 4D90 628C            002A2 53931    6929.2             LCALL GETLOCK             ENTER LOCK CODE
 00A070 5820 B128            00128 53933    6930.              L     SR,STWRK            SET ADDRESS OF ACTIVE QUEUE
 00A074 1222/4770 76A6             53934    6931.              IF    (SR,Z),BEGIN
 00A07A 4110 7846/4100_      0A238 53948  1 6932.                VSEG  'No active filedump tasks, hummm?'
 00A088 1B11                       53957  1 6932.1               CLEAR R1                  ZERO MCS IDENTIFIER
 00A08A BF18 C32C            0032C 53961  1 6932.2               ICM   R1,8,COMMCSID       SET CONSOLE MCS IDENTIFIER
 00A08E 4100 0000/5890_      00000 53962  1 6933.                VCNTL WTO,(R1)            ISSUE MESSAGE TO CONSOLE
 00A098 76AA/47F0 7752 0A098 0A078 53978    6934.              END   ELSE,BEGIN          REPORT ON ACTIVE TASKS
 00A09C 1222/4780 7752             53993  1 6936.                WHILE (SR,NZ),BEGIN
 00A0A2 4110 7866/4100_      0A258 54009  2 6937.                  VSEG  'Subtask '          Add subtask message
 00A0B0 58F0 201C/1B00_      0001C 54018  2 6938.                  SEGDC 0,STSEQ             Add subtask identifier
 00A0C6 4110 7902/4100_      0A2F4 54057  2 6939.                  VSEG  ' Active for '
 00A0D4 9130 2010/4780_00010       54066  2 6939.05                IF    STVER+STCAT,BEGIN   CATALOG, VERIFY ACTIVE?
 00A0DC 9110 2010/47E0_00010       54084  3 6939.1                   IF    STVER,'VSEG "VERIFY"'
 00A0F2 7704/47F0 7712_0A0F2 0A0E2 54113  3 6939.15                  ELSE  'VSEG "CATALOG DUMP"'
 00A104 7716/47F0 773A 0A104 0A0DA 54138  2 6939.2                 END   ELSE,BEGIN
 00A108 4110 786E/4100_      0A260 54153  3 6939.5                   VSEG  'segment '
 00A116 58F0 2020/1B00_      00020 54162  3 6940.                    SEGDC 0,STSEG             Set current segment
 00A12C                            54201  2 6940.1                 END   ,
 00A12C 1B11                       54205  2 6940.2                 CLEAR R1                  ZERO MCS REGISTER
 00A12E BF18 C32C            0032C 54209  2 6940.3                 ICM   R1,8,COMMCSID       INSERT CONSOLE ID
 00A132 4100 0000/5890_      00000 54210  2 6941.                  VCNTL WTO,(R1)            Issue message to console
 00A13C 5820 2000            00000 54226  2 6942.                  L     SR,STFWD            Chain forward to next subtask
 00A140 47F0 76AA            0A09C 54227  1 6943.                END   ,
 00A144                            54232    6944.              END   ,
 00A144 41F0 B100            00100 54236    6944.1             LA    R15,QUELOCK         ADDRESS OF QUEUE CONTROL LOCK
 00A148 4D90 6310            00326 54237    6944.2             LCALL RELLOCK             RELEASE CONTROL OF QUEUE'S
 DROP   SUBTASK,R2                 54239    6945.              DROP  SR                  ## Release addressability
 00A14C 4BD0 793A/98E3_      0A32C 54246    6946.              VPOP  R14,TR,*            Restore calling registers
 00A154 07FE                       54249    6947.              SCRTN (R15)               Return to the scanner
000A156                            54256    6949.     COMINV   LABEL ,
 00A156 90E3 D000/41D0_      00000 54258    6950.              VPUSH R14,TR,*            SAVE CALLING REGISTERS
 00A15E 4110 796C/4100_      0A35E 54261    6951.              VSEG  'VDMP947E - INVALID COMMAND'
 00A16C 1B11                       54270    6952.              CLEAR R1                  ZERO MCS CONSOLE ID
 00A16E BF18 C32C            0032C 54274    6953.              ICM   R1,8,COMMCSID         SET REQUESTING CONSOLE
 00A172 4100 0000/1B11_      00000 54275    6954.              VCNTL WTO                     AND REPORT TO THAT ONE
 00A17E 4BD0 793A/98E3_      0A32C 54291    6955.              VPOP  R14,TR,*            RESTORE CALLING REGISTERS
 00A186 07FE                       54294    6956.              SCRTN (R15)
1VDMP     (VDMP21) (09:46) (22MAR04) ORVYL's File System Dump Program: Communication                                        Page  299
0Current Usings:  (DUMP,R6) (COMTASK,R7) (DWA,R11) (COMAREA,R12)
0Loc    Object Code    Addr1 Addr2  Stmt Lv Lineno    Source Statement           (Hibal 5, Asmedit 3.3)  HLASM R4.0  2004/03/22 09.46
+___    ______ ____    _____ _____  ____ __ ______    ______ _________
0                                  54301    6958.     ********************************************************************
                                   54302    6959.     *                                                                  *
                                   54303    6960.     *  STIMER exit routine for communications task                     *
                                   54304    6961.     *                                                                  *
                                   54305    6962.     ********************************************************************
000A188                            54307    6964.     COMAGAIN LABEL ,
 00A188 90EC D00C            0000C 54309    6965.              STM   R14,R12,@R13+12     Save initial registers
 00A18C 187F                       54310    6966.              LR    BR,R15              Reset initial base address
 DROP   COMTASK,R7                 54311    6967.              USING COMAGAIN,BR         ## Exit routine addr
 USING  COMAGAIN,R7
000A18E 58C0 1004            00004 54324    6969.              L     DWR,@R1+4           Set passed timer parameter value
 00A192 58B0 C05C            0005C 54325    6970.              L     SWR,COMDWA          Set address of mainline area
 00A196 5860 C060            00060 54326    6971.              L     BRR,COMBRR          Set common routine base
000A19A 50D0 C050            00050 54328    6973.              ST    R13,COMXSVA         Save exit routine save area
 00A19E 41D0 C0AC            000AC 54329    6974.              LA    R13,COMXSTCK        Set save stack address
000A1A2 41F0 B0E8            000E8 54331    6976.              LA    R15,COMLOCK         Address of lockwords
 00A1A6 4D90 628C            002A2 54332    6977.              LCALL GETLOCK             Get communications lock
 00A1AA B205 B198      00198       54334    6978.              STCK  IIOCRT              Set current time
 00A1AE 9801 B198            00198 54335    6979.              LM    R0,R1,IIOCRT        Set current time into registers
 00A1B2 9823 B1A0            001A0 54336    6980.              LM    SR,TR,IIOLST        Set last time into registers
 00A1B6 58F0 B1B0            001B0 54337    6981.              L     R15,IIOCNT          Set i/o counter into register
 00A1BA 4D90 6260            00276 54338    6982.              LCALL RATECOMP            Compute i/o's/second
 00A1BE 50F0 B1A8            001A8 54340    6983.              ST    R15,IIORATE         Save rate
 00A1C2 9801 B198            00198 54341    6984.              LM    R0,R1,IIOCRT        Set current time into registers
 00A1C6 9823 B1A0            001A0 54342    6985.              LM    SR,TR,IIOLST        Set last time into registers
 00A1CA 58F0 B1B4            001B4 54343    6986.              L     R15,IIOBLKS         Set block counter into registers
 00A1CE 4D90 6260            00276 54344    6987.              LCALL RATECOMP            Compute i/o's/seconds
 00A1D2 50F0 B1AC            001AC 54346    6988.              ST    R15,IIOBRATE        Save blocks/second value
 00A1D6 D703 B1B0 B1B0 001B0 001B0 54347    6989.              CLEAR IIOCNT              Clear i/o counter
 00A1DC D703 B1B4 B1B4 001B4 001B4 54354    6990.              CLEAR IIOBLKS             Clear block counter
 00A1E2 D207 B1A0 B198 001A0 00198 54361    6991.              MVC   IIOLST,IIOCRT       Reset last stck value
 00A1E8 41F0 B0E8            000E8 54362    6992.              LA    R15,COMLOCK         Address of lockwords
 00A1EC 4D90 6310            00326 54363    6993.              LCALL RELLOCK             Release communications lock
 00A1F0 1B00/4110 C04C_            54365    6994.              POST  COMSTIMR,0          Post timer fire
 00A1F8 58D0 C050            00050 54371    6995.              L     R13,COMXSVA         Reset exit routine save area addr
 00A1FC 98EC D00C            0000C 54372    6996.              LM    R14,R12,@R13+12     Restore registers for return
 00A200 1BFF                       54373    6997.              CLEAR R15                 Zero return code
 00A202 07FE                       54377    6998.              BR    R14                 And return to control program
0DROP   COMAGAIN,R7                54379    7000.              DROP  BR                  ## release exit routine addr.
 DROP   COMAREA,R12                54386    7001.              DROP  DWR                 ## release addressability
 DROP   DWA,R11                    54393    7002.              DROP  SWR                 ## Release addressability
1VDMP     (VDMP21) (09:46) (22MAR04) ORVYL's File System Dump Program: Communication                                        Page  300
0Current Usings:  (DUMP,R6)
0Loc    Object Code    Addr1 Addr2  Stmt Lv Lineno    Source Statement           (Hibal 5, Asmedit 3.3)  HLASM R4.0  2004/03/22 09.46
+___    ______ ____    _____ _____  ____ __ ______    ______ _________
000A208                            54401    7004.              LTORG ,
 00A208 E5C4D4D7F9F3F7C9           54403                             =C'VDMP937I - Unlimited I/O rate mode now in effect'
 00A238 D596408183A389A5           54404                             =C'No active filedump tasks, hummm?'
 00A258 E2A482A381A29240           54405                             =C'Subtask '
 00A260 A28587948595A340           54406                             =C'segment '
 00A268 00000000                   54407                             =V(VIDCINIT)
 00A26C C3D6D440C3D6D440           54408                             =3CL4'COM '
 00A278 000003E8                   54409                             =A(10*100)
 00A27C 00000000                   54410                             =V(VSEG)
 00A280 00000000                   54411                             =V(VCNTRL)
 00A284 00000000                   54412                             =V(BTD)
 00A288 E5C4D4D7F7F3F2C9           54413                             =C'VDMP732I - CONSOLE ('
 00A29C 00000000                   54414                             =V(BTX)
 00A2A0 00000000                   54415                             =V(SCINIT)
 00A2A4 00000000                   54416                             =V(SCAN)
 00A2A8 C7939682819340C9           54417                             =C'Global I/O''s/second: Target='
 00A2C4 00000000                   54418                             =V(BTR)
 00A2C8 00002000                   54419                             =X'00002000'
 00A2CC 00000064                   54420                             =A(100)
 00A2D0 E5C4D4D7F9F3F2C9           54421                             =C'VDMP932I - I/O rate has been set to '
 00A2F4 40C183A389A58540           54422                             =C' Active for '
 00A300 C3C1E3C1D3D6C740           54423                             =C'CATALOG DUMP'
 00A30C C3969494A4958983           54424                             =C'Communication task active.'
 00A326 5D40C3D4C47E               54425                             =C') CMD='
 00A32C 0018                       54426                             =Y((TR+1-(R14)+16*((R14)/(TR+1))/((R14)/(TR+1)))*4)
 00A32E E5C4D4D7F9F3F3C9           54427                             =C'VDMP933I - Upate interval has been set to '
 00A358 E5C5D9C9C6E8               54428                             =C'VERIFY'
 00A35E E5C4D4D7F9F4F7C5           54429                             =C'VDMP947E - INVALID COMMAND'
 00A378 E49585A7978583A3           54430                             =C'Unexpected CIB queued'
 00A38D C3969494A4958983           54431                             =C'Communication task failure QEDIT='
 00A3AE E5C4D4D7F8F8F8C9           54432                             =C'VDMP888I - Task begin quiesced.'
 00A3CD 0B                         54433                             =AL1(11)
 00A3CE E5C4D4D7F9F3F1C9           54434                             =C'VDMP931I - I/O Rate summary ('
 00A3EB 5D                         54435                             =C')'
 00A3EC 40                         54436                             =X'40'
 00A3ED E49593899489A385           54437                             =C'Unlimited'
 00A3F6 6B40C183A3A48193           54438                             =C', Actual='
 00A3FF C995A2A38195A381           54439                             =C'Instantaneous I/O Rate='
 00A416 6B40C995A38599A5           54440                             =C', Interval='
 00A421 30                         54441                             =X'30'
 00A422 E5C4D4D7F9F3F2C5           54442                             =C'VDMP932E - Missing I/O rate from command.'
 00A44B E5C4D4D7F9F3F3C5           54443                             =C'VDMP933E - Missing interval from command.'
-DROP   DUMP,R6                    54448    7006.              DROP  ,                   Release all addressability
1VDMP     (VDMP21) (09:46) (22MAR04) ORVYL's File System Dump Program: History Maint                                        Page  301
0Loc    Object Code    Addr1 Addr2  Stmt Lv Lineno    Source Statement           (Hibal 5, Asmedit 3.3)  HLASM R4.0  2004/03/22 09.46
+___    ______ ____    _____ _____  ____ __ ______    ______ _________
0                                  54485    7277.     *
                                   54486    7278.     *  DEFINE CONTROL INFORMATION FOR HISTORY FILE MAINTENANCE.
                                   54487    7279.     *              1.  ALLOCATION/FORMAT FUNCTIONS
                                   54488    7280.     *              2.  LISTING/UPDATE FUNCTIONS
                                   54489    7281.     *
0000000                00000 00178 54491    7283.     HWA      RECORD BEGIN
 000000 C8E6C140C8E6C140           54499  1 7284.     HWANAME    DC    4CL4'HWA '          DEFINE EYE-CATCHER
 000010 4040404040404040           54500  1 7285.     HWABUF     DC    CL128' '            HISTORY RECORD BUFFER
 000090 00000000                   54501  1 7286.     HWALNK     DC    A(0)                LINK POINTER
 000094 00000000                   54502  1 7287.     HWATRKS    DC    A(0)                NUMBER OF TRACKS IN DATA SET
 000098 00000000                   54503  1 7288.     HWARPT     DC    A(0)                RECORDS PER TRACK FOR DATA SET
 00009C 00000000                   54504  1 7289.     HWARECS    DC    A(0)                TOTAL RECORDS IN DATA SET
 0000A0 00000000                   54505  1 7290.     HWOPNLST   DC    A(0)                OPEN PARAMETER LIST
00000A4 800000A8                   54507  1 7292.     HWADP      DC    A(X'80000000'+HWADRB)   POINTER TO SVC99 RB
 0000A8 0000000000000000           54508  1 7293.     HWADRB     DC    5A(0)                   SVC99 DYNAMIC REQUEST BLOCK
00000BC 000000CC                   54510  1 7295.     HWADPTRS   DC    A(HWADDN)           POINTER TO DDNAME
 0000C0 000000DA                   54511  1 7296.                DC    A(HWADSN)                   TO DATA SET NAME
 0000C4 0000010C                   54512  1 7297.                DC    A(HWAFREE)                  TO CLOSE=FREE
 0000C8 00000110                   54513  1 7298.                DC    A(HWASTAT)                  TO STATUS UNIT
00000CC 000100010008C3D6           54515  1 7300.     HWADDN     DC    AL2(DALDDNAM,1,8),CL8'CONTROL'
 0000DA 0002000100084040           54516  1 7301.     HWADSN     DC    AL2(DALDSNAM,1,8),CL44' '
 00010C 001C0000                   54517  1 7302.     HWAFREE    DC    AL2(DALCLOSE,0)
 000110 00040001000102             54518  1 7303.     HWASTAT    DC    AL2(DALSTATS,1,1),X'02'
1VDMP     (VDMP21) (09:46) (22MAR04) ORVYL's File System Dump Program: History Maint                                        Page  302
0D-Loc  Object Code    Addr1 Addr2  Stmt Lv Lineno    Source Statement           (Hibal 5, Asmedit 3.3)  HLASM R4.0  2004/03/22 09.46
+_____  ______ ____    _____ _____  ____ __ ______    ______ _________
0                                  54521  1 7306.     *
                                   54522  1 7307.     ** DEFINE FORMATTING DCB FOR THE HISTORY FILE
                                   54523  1 7308.     *
                                   54524  1 7309.   C HWAFDCB    DCB   DDNAME=HISTORY,MACRF=PM,RECFM=F,LRECL=128,
                                          1 7310.                      BLKSIZE=128,DSORG=PS
0                                  54527  1          +*                       DATA CONTROL BLOCK
                                   54528  1          +*
 000117 00                                1          +
 000118                            54529  1 01-DCB   +HWAFDCB    DC    0F'0'          ORIGIN ON WORD BOUNDARY
                                   54530  1          +*                       DIRECT ACCESS DEVICE INTERFACE
 000118 0000000000000000           54531  1 01-DCB   +           DC    BL16'0'        FDAD, DVTBL
 000128 00000000                   54532  1 01-DCB   +           DC    A(0)           KEYLEN, DEVT, TRBAL
                                   54533  1          +*                       COMMON ACCESS METHOD INTERFACE
 00012C 00                         54534  1 01-DCB   +           DC    AL1(0)         BUFNO, NUMBER OF BUFFERS
 00012D 000001                     54535  1 01-DCB   +           DC    AL3(1)         BUFCB, BUFFER POOL CONTROL BLOCK
 000130 0000                       54536  1 01-DCB   +           DC    AL2(0)         BUFL, BUFFER LENGTH
 000132 4000                       54537  1 01-DCB   +           DC    BL2'0100000000000000' DSORG, DATA SET ORGANIZATION
 000134 00000001                   54538  1 01-DCB   +           DC    A(1)           IOBAD FOR EXCP OR RESERVED
                                   54539  1          +*                       FOUNDATION EXTENSION
 000138 00                         54540  1 01-DCB   +           DC    BL1'00000000'  BFTEK, BFALN, DCBE INDICATORS
 000139 000001                     54541  1 01-DCB   +           DC    AL3(1)         EODAD (END OF DATA ROUTINE ADDRESS)
 00013C 80                         54542  1 01-DCB   +           DC    BL1'10000000'  RECFM (RECORD FORMAT)
 00013D 000000                     54543  1 01-DCB   +           DC    AL3(0)         EXLST (EXIT LIST ADDRESS)
                                   54544  1          +*                       FOUNDATION BLOCK
 000140 C8C9E2E3D6D9E840           54545  1 01-DCB   +           DC    CL8'HISTORY'   DDNAME
 000148 02                         54546  1 01-DCB   +           DC    BL1'00000010'  OFLGS (OPEN FLAGS)
 000149 00                         54547  1 01-DCB   +           DC    BL1'00000000'  IFLGS (IOS FLAGS)
 00014A 0050                       54548  1 01-DCB   +           DC    BL2'0000000001010000' MACR (MACRO FORMAT)
                                   54549  1          +*                       BSAM-BPAM-QSAM INTERFACE
 00014C 00                         54550  1 01-DCB   +           DC    BL1'00000000'  OPTCD, OPTION CODES
 00014D 000001                     54551  1 01-DCB   +           DC    AL3(1)         CHECK OR INTERNAL QSAM SYNCHRONIZING RTN.
 000150 00000001                   54552  1 01-DCB   +           DC    A(1)           SYNAD, SYNCHRONOUS ERROR RTN. (3 BYTES)
 000154 0000                       54553  1 01-DCB   +           DC    H'0'           INTERNAL ACCESS METHOD FLAGS
 000156 0080                       54554  1 01-DCB   +           DC    AL2(128)       BLKSIZE, BLOCK SIZE
 000158 00000000                   54555  1 01-DCB   +           DC    F'0'           INTERNAL ACCESS METHOD FLAGS
 00015C 00000001                   54556  1 01-DCB   +           DC    A(1)           INTERNAL ACCESS METHOD USE
                                   54557  1          +*                            QSAM INTERFACE
 000160 00000001                   54558  1 01-DCB   +           DC    A(1)           EOBAD
 000164 00000001                   54559  1 01-DCB   +           DC    A(1)           RECAD
 000168 0000                       54560  1 01-DCB   +           DC    H'0'           QSWS (FLAGS) AND EITHER DIRCT OR BUFOFF
 00016A 0080                       54561  1 01-DCB   +           DC    AL2(128)       LRECL
 00016C 00                         54562  1 01-DCB   +           DC    BL1'00000000'  EROPT, ERROR OPTION
 00016D 000001                     54563  1 01-DCB   +           DC    AL3(1)         CNTRL
 000170 00000000                   54564  1 01-DCB   +           DC    H'0,0'         RESERVED AND PRECL
 000174 00000001                   54565  1 01-DCB   +           DC    A(1)           EOB, INTERNAL ACCESS METHOD FIELD
 000178                00178 00178 54566    7311.              END   ,
 00A47A                0A47A 0B848 54575    7390.     VDMP     CSECT ,                   Continue VDMP control section
1VDMP     (VDMP21) (09:46) (22MAR04) ORVYL's File System Dump Program: History Maint                                        Page  303
0Loc    Object Code    Addr1 Addr2  Stmt Lv Lineno    Source Statement           (Hibal 5, Asmedit 3.3)  HLASM R4.0  2004/03/22 09.46
+___    ______ ____    _____ _____  ____ __ ______    ______ _________
0                                  54578    7392.     ********************************************************************
                                   54579    7393.     *                                                                  *
                                   54580    7394.     *   HISTORY FILE MAINTENANCE                                       *
                                   54581    7395.     *                                                                  *
                                   54582    7395.1    ********************************************************************
                                   54583    7395.2    *                                                                  *
                                   54584    7395.3    *        1.  Format a new HISTORY file                             *
                                   54585    7395.4    *                                                                  *
                                   54586    7395.5    *        2.  List contents of a HISTORY file                       *
                                   54587    7395.51   *                                                                  *
                                   54588    7395.52   *        3.  Cleanup incremental data sets after ABEND or error.   *
                                   54589    7395.6    *                                                                  *
                                   54590    7396.     ********************************************************************
-00A47A                            54592    7397.1    CLENFNC  LABEL ,                   Entry point for cleanup function
 00A47A                            54594    7398.     LISTFNC  LABEL ,                   Entry point for list function
 00A47A                            54596    7399.     FORMFNC  LABEL ,                   Entry point for format function
000A47A 0570                       54599    7400.              BALR  BR,0                Generate segment addressability
 USING  *,R7                       54600    7401.              USING *,BR                ## declare addressability
 USING  DUMP,R6                    54610    7402.              USING DUMP,BRR            ## common routine addressability
 USING  DWA,R12                    54619    7403.              USING DWA,DWR             ## addressability to main work
 00A47C 4100 0014/1B11_      00014 54628    7404.              VCNTL SKIP1               Space one line
 00A488 4110 7A78/4100_      0AEF4 54644    7405.              VSEG  'VDMP601I - History File Maintenance '
 00A496 9110 C1C6/47E0_001C6       54653    7406.              IF    FNCFHST,BEGIN       Format history file
 00A49E 4110 79F4/4100_      0AE70 54668  1 7407.                VSEG  'FORMAT FUNCTION.'  Set formatting message
 00A4AC                            54677    7408.              END   ,                   List function for history
 00A4AC 7034/47F0 704A_0A4AC 0A49C 54681    7408.1             ELSEIF FNCLHST,BEGIN      LIST HISTORY FILE
 00A4B8 4110 7B50/4100_      0AFCC 54705  1 7409.                VSEG  'LIST FUNCTION.'    Set listing message
 00A4C6                            54714    7410.              END   ,
 00A4C6 704E/47F0 705C 0A4C6 0A4B6 54718    7410.1             ELSE  BEGIN               Data set cleanup function
 00A4CA 4110 7BA8/4100_      0B024 54729  1 7410.11              VSEG  'CLEANUP FUNCTION.' Set listing message
 00A4D8                            54738    7410.2             END   ,
 00A4D8 5890 7AA0/0D99       0AF1C 54742    7411.              VWRITE ,                  Write to report file
 00A4DE 4100 0178            00178 54747    7412.              LA    R0,L'HWA            Length of history work area
 00A4E2 0700/47F0 7070_            54748    7413.              GETMAIN RC,LV=(0)
 00A4F4 12FF/4770 70CC             54760    7414.              IF    (R15,NZ),HSTNCORE   Insufficient memory
 00A4FA 18B1                       54777    7415.              LR    SWR,R1              Save address to workarea
 00A4FC 1801                       54778    7416.              LR    R0,R1               Copy address for clear
 00A4FE 4110 0178            00178 54779    7417.              LA    R1,L'HWA              and set length
 00A502 1BFF                       54780    7418.              CLEAR R15                     zero from length and pad
 00A504 0E0E                       54784    7419.              MVCL  R0,R14                    zero workarea to zero
 USING  HWA,R11                    54785    7420.              USING HWA,SWR             ## addressability to area
 00A506 D20F B000 7A04 00000 0AE80 54794    7421.              MVC   HWANAME(4*4),=4CL4'HWA '      Set eye-catcher field
 00A50C 9110 C1C6/47E0_001C6       54795    7422.              IF    FNCFHST,BEGIN       Format function in effect
 00A514 4D90 76D8            0AB54 54810  1 7423.                LCALL FMTHIST             Go format history file
 00A518                            54812    7424.              END   ,                   Else it is a list function
 00A518 70A0/47F0 70AC_0A518 0A512 54816    7424.1             ELSEIF FNCLHST,BEGIN      List hisotry function
 00A524 4D90 725A            0A6D6 54840  1 7425.                LCALL LSTHIST             Go list hitory file
 00A528                            54842    7426.              END   ,
 00A528 70B0/47F0 70B4 0A528 0A522 54846    7426.1             ELSE  BEGIN
 00A52C 4D90 7116            0A592 54857  1 7426.2               LCALL CLNHIST             Perform data set cleanup
 00A530                            54859    7426.3             END   ,
1VDMP     (VDMP21) (09:46) (22MAR04) ORVYL's File System Dump Program: History Maint                                        Page  304
0Current Usings:  (DUMP,R6) (*,R7) (HWA,R11) (DWA,R12)
0Loc    Object Code    Addr1 Addr2  Stmt Lv Lineno    Source Statement           (Hibal 5, Asmedit 3.3)  HLASM R4.0  2004/03/22 09.46
+___    ______ ____    _____ _____  ____ __ ______    ______ _________
0                                  54864    7427.01   ¿þþþþþþþþþþþþþþþþþþþþþþþþþþþþþþþþþþþþþþþþþþþþþþþþþþþþþþþþþþþþþþþþþþþþþÜ
                                   54865    7427.1    Ÿ                                                                     Ÿ
                                   54866    7427.2    Ÿ   History file maintenance exit procedures                          Ÿ
                                   54867    7427.3    Ÿ                                                                     Ÿ
                                                      ¾þþþþþþþþþþþþþþþþþþþþþþþþþþþþþþþþþþþþþþþþþþþþþþþþþþþþþþþþþþþþþþþþþþþþþ»
-00A530                            54869    7428.     HISTEXIT LABEL ,                   Exit with zero code
 00A530 1BFF                       54871    7429.              CLEAR R15                 Zero return code
000A532                            54876    7430.     HISTXIT  LABEL ,
 00A532 121B                       54878    7431.              LTR   R1,SWR              Work area exist?
 00A534 4780 70C8            0A544 54879    7432.              IF    NZ,BEGIN            Yep - release it
 00A538 1BBB                       54890  1 7433.                CLEAR SWR                 Zero register pointer
 00A53A 4100 0178            00178 54894  1 7434.                LA    R0,L'HWA            Length of workarea
 00A53E 4110 1000/0A0A       00000 54895  1 7435.                FREEMAIN R,LV=(0),A=(1)   Release workarea
 00A544                            54899    7436.              END   ,
 00A544 47F0 60DA            000F0 54903    7437.              B     DUMPEXIT            And exit processing
000A548                            54905    7439.     HSTNCORE LABEL ,                   Insufficient memory return
 00A548 41F0 001C            0001C 54907    7440.              LA    R15,28              Set return code
 00A54C 47F0 70B6            0A532 54908    7441.              B     HISTXIT             And exit
1VDMP     (VDMP21) (09:46) (22MAR04) ORVYL's File System Dump Program: History Maint                                        Page  305
0Current Usings:  (DUMP,R6) (*,R7) (HWA,R11) (DWA,R12)
0Loc    Object Code    Addr1 Addr2  Stmt Lv Lineno    Source Statement           (Hibal 5, Asmedit 3.3)  HLASM R4.0  2004/03/22 09.46
+___    ______ ____    _____ _____  ____ __ ______    ______ _________
0                                  54910    7442.01   ¿þþþþþþþþþþþþþþþþþþþþþþþþþþþþþþþþþþþþþþþþþþþþþþþþþþþþþþþþþþþþþþþþþþþþþÜ
                                   54911    7442.02   Ÿ                                                                     Ÿ
                                   54912    7442.03   Ÿ  Check for presence of CONTROL file.  Process CONTROL file          Ÿ
                                   54913    7442.04   Ÿ  data.                                                              Ÿ
                                   54914    7442.05   Ÿ                                                                     Ÿ
                                                      ¾þþþþþþþþþþþþþþþþþþþþþþþþþþþþþþþþþþþþþþþþþþþþþþþþþþþþþþþþþþþþþþþþþþþþþ»
-00A550                            54916    7442.08   HSTCHKCL LABEL ,
 00A550 5090 D000/41D0_      00000 54918    7442.09            VPUSH RAR,,*              Save calling registers
 00A558 4110 7A14            0AE90 54921    7442.1             LA    R1,=CL8'CONTROL'    Check for control file
 00A55C 5890 7AA4/0D99       0AF20 54922    7442.11            ACALL FINDDD              Locate via tiot
 00A562 4780 7106            0A582 54926    7442.12            IF    NZ,BEGIN            Must be there for list function
 00A566 4110 7BB9/4100_      0B035 54937  1 7442.13              VSEG  'VDMP753E - Control file must be present for list.'
 00A574 5890 7AA0/0D99       0AF1C 54946  1 7442.14              VWRITE ,                  Write to control file
 00A57A 9210 C05B      0005B       54951  1 7442.15              MVI   RETCODE+3,CNT_PRM   Set return code
 00A57E 47F0 70B6            0A532 54952  1 7442.16              B     HISTXIT             And exit processing
 00A582                            54953    7442.17            END   ,
000A582 5890 7AA8/0D99       0AF24 54958    7442.19            ACALL DOCNTL              Process control file
 00A588 4BD0 7B5E/5890_      0AFDA 54962    7442.2             VPOP  RAR,,*              Restore return register
 00A590 07F9                       54965    7442.21            BR    RAR                 Return to caller
1VDMP     (VDMP21) (09:46) (22MAR04) ORVYL's File System Dump Program: History Maint                                        Page  306
0Current Usings:  (DUMP,R6) (*,R7) (HWA,R11) (DWA,R12)
0Loc    Object Code    Addr1 Addr2  Stmt Lv Lineno    Source Statement           (Hibal 5, Asmedit 3.3)  HLASM R4.0  2004/03/22 09.46
+___    ______ ____    _____ _____  ____ __ ______    ______ _________
0                                  54967    7442.23   ¿þþþþþþþþþþþþþþþþþþþþþþþþþþþþþþþþþþþþþþþþþþþþþþþþþþþþþþþþþþþþþþþþþþþþþÜ
                                   54968    7442.24   Ÿ                                                                     Ÿ
                                   54969    7442.25   Ÿ  Cleanup history file data sets                                     Ÿ
                                   54970    7442.26   Ÿ                                                                     Ÿ
                                                      ¾þþþþþþþþþþþþþþþþþþþþþþþþþþþþþþþþþþþþþþþþþþþþþþþþþþþþþþþþþþþþþþþþþþþþþ»
-00A592                            54972    7442.29   CLNHIST  LABEL ,
 00A592 9029 D000/41D0_      00000 54974    7442.3             VPUSH SR,RAR,*            Enter and save calling registers
 00A59A 4110 7AAC/4100_      0AF28 54977    7442.31            VSEG  'VDMP752I - Cleanup function.'
 00A5A8 5890 7AA0/0D99       0AF1C 54986    7442.32            VWRITE ,                  Write to report file
 00A5AE 4D90 70D4            0A550 54991    7442.33            LCALL HSTCHKCL            Check and process control file
000A5B2 4110 0001            00001 54994    7442.35            LA    R1,1                Set master record buffer
 00A5B6 4D90 636C            00382 54995    7442.36            LCALL GRADR               Compute address of master record
 00A5BA 1821                       54997    7442.37            LR    SR,R1               Copy base block address
 USING  HISBREC,R2                 54998    7442.38            WITH  (HISBREC,SR),BEGIN  Addressability to base block
 00A5BC 4110 7BEA/4100_      0B066 55012  1 7442.39              VSEG  'VDMP755I - Base record loaded for processing.'
 00A5CA 5890 7AA0/0D99       0AF1C 55021  1 7442.4               VWRITE ,                  Write to report file
 00A5D0 5820 2018            00018 55026  1 7442.41              L     SR,HISBINCS         Set first incremental dump
 DROP   HISBREC,R2                 55027    7442.42            END   ,
000A5D4 1222/4770 7184             55036    7443.              IF    (SR,Z),BEGIN        No incremental records exist
 00A5DA 4110 7C17/4100_      0B093 55050  1 7443.01              VSEG  'VDMP756E - No incremental dump '
 00A5E8 4110 7A1C/4100_      0AE98 55059  1 7443.02              VSEG  'data to cleanup.'
 00A5F6 5890 7AA0/0D99       0AF1C 55068  1 7443.03              VWRITE ,                  WRITE TO REPORT FILE
 00A5FC 47F0 70B6            0A532 55073  1 7443.04              B     HISTXIT             Return to system
 00A600                            55074    7443.05            END   ,
1VDMP     (VDMP21) (09:46) (22MAR04) ORVYL's File System Dump Program: History Maint                                        Page  307
0Current Usings:  (DUMP,R6) (*,R7) (HWA,R11) (DWA,R12)
0Loc    Object Code    Addr1 Addr2  Stmt Lv Lineno    Source Statement           (Hibal 5, Asmedit 3.3)  HLASM R4.0  2004/03/22 09.46
+___    ______ ____    _____ _____  ____ __ ______    ______ _________
000A600                            55079    7443.51            LOOP  BEGIN               Process all incremental records
 00A600 1812                       55085  1 7443.52              LR    R1,SR               Set block number
 00A602 4100 0002            00002 55086  1 7443.53              LA    R0,2                Use buffer two for inc record
 00A606 5890 7AC8/0D99       0AF44 55087  1 7443.54              ACALL HIO                 Read incremental dump record
 00A60C 1821                       55091  1 7443.55              LR    SR,R1               SET ADDRESS OF RECORD
 USING  HISIREC,R2                 55092  1 7443.56              WITH  (HISIREC,SR),BEGIN  ADDRESSABILITY TO INCREMENTAL
 00A60E 5800 200C            0000C 55106  2 7443.57                L     R0,HISICLCK         TOD CLOCK VALUE FOR INCREMENTAL
 00A612 4D90 7682            0AAFE 55107  2 7443.58                LCALL LSTCLCK             REPORT CLOCK VALUE
 00A616 4110 7C36/4100_      0B0B2 55109  2 7443.59                VSEG  'Incremental dump taken, Return='
 00A624 58F0 2040/1B00_      00040 55118  2 7443.6                 SEGDC 0,HISIRC            ADD RETURN CODE TO MESSAGE
 00A63A 5890 7AA0/0D99       0AF1C 55157  2 7443.61                VWRITE ,                  WRITE TO REPORT FILE
 00A640 5830 2010/1233       00010 55162  2 7443.62                LT    TR,HISIPOOL         SET FIRST POOL RECORD
 00A646 4770 71F0            0A66C 55166  2 7443.63                IF    Z,BEGIN
 00A64A 4100 0010/4110_      00010 55177  3 7443.64                  VCNTL BLANK,18            SET SPACERS
 00A658 4110 7C55/4100_      0B0D1 55196  3 7443.65                  VSEG  'No incremental data sets chained.'
 00A666 5890 7AA0/0D99       0AF1C 55205  3 7443.66                  VWRITE ,                  Write to report file
 00A66C 71F4/47F0 723C 0A66C 0A648 55210  2 7443.67                END   ELSE,BEGIN          Process incremental pool dsn's
 00A670 1233/4780 723C             55225  3 7443.68                  WHILE (TR,NZ),BEGIN       Process all pool records
 00A676 4100 0003            00003 55241  4 7443.69                    LA    R0,3                Set buffer three control
 00A67A 1813                       55242  4 7443.7                     LR    R1,TR               Set record number
 00A67C 5890 7AC8/0D99       0AF44 55243  4 7443.71                    ACALL HIO                 Read record into buffer
 00A682 1831                       55247  4 7443.72                    LR    TR,R1               Set address of record
 USING  HISPREC,R3                 55248  4 7443.73                    WITH  (HISPREC,TR),BEGIN  Addressability to record
 00A684 4100 0010/4110_      00010 55262  5 7443.74                      VCNTL BLANK,18            Set report spaces
 00A692 4110 3010/4100_      00010 55281  5 7443.75                      VSEG  HISPDSN             Report data set name
 00A6A0 5890 7AA0/0D99       0AF1C 55300  5 7443.76                      VWRITE ,                  Write to report file
 00A6A6 5830 3004            00004 55305  5 7443.77                      L     TR,HISPNXT          Chain to next record
 DROP   HISPREC,R3                 55306  4 7443.78                    END   ,
 00A6AA 4100 0003            00003 55314  4 7443.79                    LA    R0,3                Set buffer three control
 00A6AE 5890 7AD0/0D99       0AF4C 55315  4 7443.8                     ACALL CLRNW               Release record
 00A6B4 47F0 71F4            0A670 55319  3 7443.81                  END   ,
 00A6B8                            55324  2 7443.82                END   ,
 00A6B8 4100 0002            00002 55328  2 7443.83                LA    R0,2                Set buffer two control
 00A6BC 5890 7AD0/0D99       0AF4C 55329  2 7443.84                ACALL CLRNW               Release record
 00A6C2 5820 2004            00004 55333  2 7443.85                L     SR,HISINXT          Set next incremental record
 DROP   HISIREC,R2                 55334  1 7443.86              END   ,
 00A6C6 1222/4770 7184             55342    7443.87            UNTIL (SR,Z),END          Get next incremental reecord
000A6CC 4BD0 7B60/9829_      0AFDC 55365    7443.89            VPOP  SR,RAR,*            Restore registers
 00A6D4 07F9                       55368    7443.9             BR    RAR                 And return
1VDMP     (VDMP21) (09:46) (22MAR04) ORVYL's File System Dump Program: History Maint                                        Page  308
0Current Usings:  (DUMP,R6) (*,R7) (HWA,R11) (DWA,R12)
0Loc    Object Code    Addr1 Addr2  Stmt Lv Lineno    Source Statement           (Hibal 5, Asmedit 3.3)  HLASM R4.0  2004/03/22 09.46
+___    ______ ____    _____ _____  ____ __ ______    ______ _________
0                                  55370    7443.92   ¿þþþþþþþþþþþþþþþþþþþþþþþþþþþþþþþþþþþþþþþþþþþþþþþþþþþþþþþþþþþþþþþþþþþþþÜ
                                   55371    7443.93   Ÿ                                                                     Ÿ
                                   55372    7443.94   Ÿ  List history file                                                  Ÿ
                                   55373    7443.95   Ÿ                                                                     Ÿ
                                                      ¾þþþþþþþþþþþþþþþþþþþþþþþþþþþþþþþþþþþþþþþþþþþþþþþþþþþþþþþþþþþþþþþþþþþþþ»
-00A6D6                            55375    7443.98   LSTHIST  LABEL ,
 00A6D6 9029 D000/41D0_      00000 55377    7443.99            VPUSH SR,RAR,*            Enter and save calling registers
 00A6DE 4110 7C76/4100_      0B0F2 55380    7444.              VSEG  'VDMP751I - List function.'
 00A6EC 5890 7AA0/0D99       0AF1C 55389    7445.              VWRITE ,                  Write to report file
 00A6F2 4D90 70D4            0A550 55394    7445.1             LCALL HSTCHKCL            Check and process control file
000A6F6 4110 0001            00001 55397    7446.1             LA    R1,1                Set master record buffer
 00A6FA 4D90 636C            00382 55398    7447.1             LCALL GRADR               Compute address of master record
 00A6FE 1821                       55400    7448.1             LR    R2,R1               Copy base block address
 USING  HISBREC,R2                 55401    7449.1             USING HISBREC,R2          ## addressability to base block
 00A700 4110 7BEA/4100_      0B066 55410    7450.1             VSEG  'VDMP755I - Base record loaded for processing.'
 00A70E 5890 7AA0/0D99       0AF1C 55419    7451.1             VWRITE ,                  Write loaded message
1VDMP     (VDMP21) (09:46) (22MAR04) ORVYL's File System Dump Program: History Maint                                        Page  309
0Current Usings:  (HISBREC,R2) (DUMP,R6) (*,R7) (HWA,R11) (DWA,R12)
0Loc    Object Code    Addr1 Addr2  Stmt Lv Lineno    Source Statement           (Hibal 5, Asmedit 3.3)  HLASM R4.0  2004/03/22 09.46
+___    ______ ____    _____ _____  ____ __ ______    ______ _________
0                                  55425    7476.1    ¿þþþþþþþþþþþþþþþþþþþþþþþþþþþþþþþþþþþþþþþþþþþþþþþþþþþþþþþþþþþþþþþþþþþþþÜ
                                   55426    7476.2    Ÿ                                                                     Ÿ
                                   55427    7477.     Ÿ  Report on base record                                              Ÿ
                                   55428    7478.     Ÿ                                                                     Ÿ
                                                      ¾þþþþþþþþþþþþþþþþþþþþþþþþþþþþþþþþþþþþþþþþþþþþþþþþþþþþþþþþþþþþþþþþþþþþþ»
-00A714 4100 001C/1B11_      0001C 55430    7479.              VCNTL PAGE                Start new page for listing
 00A720 4110 7C8F/4100_      0B10B 55446    7480.              VSEG  'VDMP886I - History file listing'
 00A72E 4110 202C            0002C 55455    7480.01            LA    R1,HISBNAME         Address of file system name
 00A732 4100 0008            00008 55456    7480.02            LA    R0,L'HISBNAME       And maximum name length
 00A736 4D90 616A            00180 55457    7480.03            LCALL RTRIM               Trim trailing blanks
 00A73A 1200/4780 72E8             55459    7480.05            IF    (R0,NZ),BEGIN       Report the specified name
 00A740 9001 D000/41D0_      00000 55473  1 7480.06              VPUSH R0,R1,*             Save length and address of name
 00A748 4110 7CAE/4100_      0B12A 55476  1 7480.16              VSEG  ' for '             Add separator
 00A756 4BD0 7B62/9801_      0AFDE 55485  1 7480.26              VPOP  R0,R1,*             Restore file system name
 00A75E 5890 7A9C/0D99       0AF18 55488  1 7480.97              VSEG  (R1),(R0)           Add in file system name
 00A764                            55503    7480.98            END   ,
 00A764 4110 7CB3/4100_      0B12F 55507    7480.99            VSEG  ' as of '
 00A772 9801 C030            00030 55516    7481.              LM    R0,R1,CLCKSTRT      Set starting time
 00A776 41F0 C010            00010 55517    7482.              LA    R15,CLWTEMP         Address of work area
 00A77A 58E0 7AD4/0DEE       0AF50 55518    7483.              XCALL FMTCLCK             Format tod clock value
 00A780 5890 7A9C/0D99       0AF18 55522    7484.              VSEG  (R1),(R0)
 00A786 5890 7AA0/0D99       0AF1C 55537    7485.              VWRITE ,                  Write to report file
 00A78C 5810 2034/1211       00034 55542    7485.01            LT    R1,HISBSPLT         Set split record, if any
 00A792 4780 73A4            0A820 55546    7485.02            IF    NZ,BEGIN            Read first split record
 00A796 4100 0004            00004 55557  1 7485.04              LA    R0,4                Set buffer two for split records
 00A79A 5890 7AC8/0D99       0AF44 55558  1 7485.05              ACALL HIO                 Read first split record in
 00A7A0 1831                       55562  1 7485.06              LR    R3,R1               Save address of split record
 USING  HISSPREC,R3                55563  1 7485.08              WITH  (HISSPREC,R3)       Addressability to split
 00A7A2 4100 0010/4110_      00010 55576  1 7485.09              VCNTL BLANK,11            Set spacing
 00A7B0 4110 7CBA/4100_      0B136 55595  1 7485.1               VSEG  'BCV volumes indicate '
 00A7BE 9180 3008/47E0_00008       55604  1 7485.11              IF    HISSP_est,'VSEG "ESTABLISHED"'
 00A7D4 9140 3008/47E0_00008       55633  1 7485.12              IF    HISSP_split,'VSEG "SPLIT"'
 00A7EA 4110 7CB3/4100_      0B12F 55662  1 7485.13              VSEG  ' as of '           Report time of last change
 00A7F8 5810 300C            0000C 55671  1 7485.14              L     R1,HISSPCLK         Load up TOD clock of last change
 00A7FC 8D00 0020            00020 55672  1 7485.15              SLDL  R0,32               Move over for TOD clock format
 00A800 41F0 C010            00010 55673  1 7485.16              LA    R15,CLWTEMP         Address of conversion area
 00A804 58E0 7AD4/0DEE       0AF50 55674  1 7485.17              XCALL FMTCLCK             Format TOD clock value
 00A80A 5890 7A9C/0D99       0AF18 55678  1 7485.18              VSEG  (R1),(R0)           Add TOD clock to message
 00A810 5890 7AA0/0D99       0AF1C 55693  1 7485.19              VWRITE ,                  Write BCV status message
 00A816 4100 0004/5890_      00004 55698  1 7485.21              CLRNW 4                   Release HIO buffer 4
 DROP   HISSPREC,R3                55704    7485.22            END   ,
 00A820 4100 0010/4110_      00010 55713    7486.              VCNTL BLANK,11            Set spacing
 00A82E 4110 7B64/4100_      0AFE0 55732    7487.              VSEG  'File contains '
 00A83C 58F0 2020            00020 55741    7488.              L     R15,HISBDGC         Set current generation count
 00A840 1B00/4110 C010_            55742    7489.              SEGDC 0,(R15)             Convert into message
 00A852 4110 7AD8/4100_      0AF54 55780    7490.              VSEG  ' of '              Set separator into message
 00A860 58F0 201C            0001C 55789    7491.              L     R15,HISBDGEN        Set maximum generations
 00A864 1B00/4110 C010_            55790    7492.              SEGDC 0,(R15)             Convert into message
 00A876 4110 7CDF/4100_      0B15B 55828    7493.              VSEG  ' full dump records.'
 00A884 5890 7AA0/0D99       0AF1C 55837    7494.              VWRITE ,                  Write to report file
 00A88A 4100 0010/4110_      00010 55842    7495.              VCNTL BLANK,11            Set spacing for message
 00A898 4110 7ADC/4100_      0AF58 55861    7496.              VSEG  'and '              Set message text
1VDMP     (VDMP21) (09:46) (22MAR04) ORVYL's File System Dump Program: History Maint                                        Page  310
0Current Usings:  (HISBREC,R2) (DUMP,R6) (*,R7) (HWA,R11) (DWA,R12)
0Loc    Object Code    Addr1 Addr2  Stmt Lv Lineno    Source Statement           (Hibal 5, Asmedit 3.3)  HLASM R4.0  2004/03/22 09.46
+___    ______ ____    _____ _____  ____ __ ______    ______ _________
000A8A6 58F0 2028            00028 55870    7497.              L     R15,HISBIGC         Set current incremental
 00A8AA 1B00/4110 C010_            55871    7498.              SEGDC 0,(R15)             Convert into message
 00A8BC 4110 7AD8/4100_      0AF54 55909    7499.              VSEG  ' of '              Set separator into message
 00A8CA 58F0 2024            00024 55918    7500.              L     R15,HISBIGEN        Load maximum inc generations
 00A8CE 1B00/4110 C010_            55919    7501.              SEGDC 0,(R15)             Convert into message
 00A8E0 4110 7B72/4100_      0AFEE 55957    7502.              VSEG  ' incremental dump records.'
 00A8EE 5890 7AA0/0D99       0AF1C 55966    7503.              VWRITE ,                  Write to report file
 00A8F4 1B33                       55971    7504.01            CLEAR TR                  Zero dump pointer
 00A8F6 5810 2014/1211       00014 55975    7504.02            LT    R1,HISBDMPS         Set first dump record
 00A8FC 4780 7490            0A90C 55979    7504.03            IF    NZ,BEGIN            Read first dump record
 00A900 4100 0002            00002 55990  1 7504.04              LA    R0,2                Set buffer two for dump records
 00A904 5890 7AC8/0D99       0AF44 55991  1 7504.05              ACALL HIO                 Read first dump record in
 00A90A 1831                       55995  1 7504.06              LR    TR,R1               Save address of dump record
 00A90C                            55996    7504.07            END   ,
 00A90C 1B44                       56000    7504.08            CLEAR QR                  Zero incremental pointer
 00A90E 5810 2018/1211       00018 56004    7504.09            LT    R1,HISBINCS         Set first incremental record
 00A914 4780 74A8            0A924 56008    7504.1             IF    NZ,BEGIN            Read first incremental record
 00A918 4100 0003            00003 56019  1 7504.11              LA    R0,3                Set buffer three for inc records
 00A91C 5890 7AC8/0D99       0AF44 56020  1 7504.12              ACALL HIO                 Read first incremental record
 00A922 1841                       56024  1 7504.13              LR    QR,R1               Save address of incremental record
 00A924                            56025    7504.14            END   ,
 DROP   HISBREC,R2                 56029    7504.24            DROP  SR                  ## release base record
 USING  HISDREC,R3                 56036    7505.              USING HISDREC,TR          ## addressability to dump rec
 USING  HISIREC,R4                 56045    7506.              USING HISIREC,QR          ## addressability to inc record
 00A924 1934/4780 7678             56054    7507.              WHILE (TR,NE,QR),BEGIN    List all records from file
 00A92A 1B00                       56071  1 7508.                CLEAR R0                  Zero for compare of tod values
 00A92C 1B11                       56075  1 7509.                CLEAR R1                  Zero for compare to tod values
 00A92E 1233/4780 74BC_            56079  1 7510.                IF    (TR,NZ),'L R0,HISDCLCK'
 00A938 1244/4780 74C6_            56099  1 7511.                IF    (QR,NZ),'L R1,HISICLCK'
 00A942 1501                       56119  1 7512.                CLR   R0,R1               Compare clock values
 00A944 47D0 758C            0AA08 56120  1 7513.                IF    GT,BEGIN            Report on most recent record
 00A948 5800 300C            0000C 56131  2 7514.                  L     R0,HISDCLCK         Tod clock value
 00A94C 4D90 7682            0AAFE 56132  2 7515.                  LCALL LSTCLCK             Report clock value
 00A950 4110 7A2C/4100_      0AEA8 56134  2 7516.                  VSEG  'Full dump taken, Return='
 00A95E 58F0 3010/1B00_      00010 56143  2 7517.                  SEGDC 0,HISDRC            Add return code for dump
 00A974 5890 7AA0/0D99       0AF1C 56182  2 7518.                  VWRITE ,                  Write to report file
 00A97A 5820 3014            00014 56187  2 7519.                  L     SR,HISDSEG          Point to first segment record
 00A97E 1222/4780 756E             56188  2 7520.                  WHILE (SR,NZ),BEGIN       Loop through segment records
 00A984 4100 0004            00004 56204  3 7521.                    LA    R0,4                Set buffer four for segment record
 00A988 1812                       56205  3 7522.                    LR    R1,SR               Move record number for read
 00A98A 5890 7AD0/0D99       0AF4C 56206  3 7523.                    ACALL CLRNW               Clear previous read, if any
 00A990 5890 7AC8/0D99       0AF44 56210  3 7524.                    ACALL HIO                 Read record into buffer
 00A996 1821                       56214  3 7525.                    LR    SR,R1               Copy address of segment record
 USING  HISSREC,R2                 56215  3 7526.                    WITH  (HISSREC,SR),BEGIN  Addressability to segment record
 00A998 4100 0010/4110_      00010 56229  4 7527.                      VCNTL BLANK,12            Add spacing to listing
 00A9A6 4110 2010            00010 56248  4 7528.                      LA    R1,HISSDSN          Address of data set name
 00A9AA 4100 002C            0002C 56249  4 7529.                      LA    R0,44               And maximum length of name
 00A9AE 4D90 616A            00180 56250  4 7530.                      LCALL RTRIM               Strip trailing blanks
 00A9B2 5890 7A9C/0D99       0AF18 56252  4 7531.                      VSEG  (R1),(R0)           Add to message
 00A9B8 4110 7CF2/4100_      0B16E 56267  4 7532.                      VSEG  ', RETURN='         Add return code label
 00A9C6 58F0 203C/1B00_      0003C 56276  4 7533.                      SEGDC 0,HISSRC            Convert return code into message
 00A9DC 5890 7AA0/0D99       0AF1C 56315  4 7534.                      VWRITE ,                  Write to report file
 00A9E2 5820 2004            00004 56320  4 7535.                      L     SR,HISSNXT          Chain to next segment record
 DROP   HISSREC,R2                 56321  3 7536.                    END   ,
1VDMP     (VDMP21) (09:46) (22MAR04) ORVYL's File System Dump Program: History Maint                                        Page  311
0Current Usings:  (HISDREC,R3) (HISIREC,R4) (DUMP,R6) (*,R7) (HWA,R11) (DWA,R12)
0Loc    Object Code    Addr1 Addr2  Stmt Lv Lineno    Source Statement           (Hibal 5, Asmedit 3.3)  HLASM R4.0  2004/03/22 09.46
+___    ______ ____    _____ _____  ____ __ ______    ______ _________
000A9E6 47F0 7502            0A97E 56329  2 7537.                  END   ,
 00A9EA 5830 3004/1233       00004 56334  2 7538.                  LT    TR,HISDNXT          Chain to next record
 00A9F0 4780 758C            0AA08 56338  2 7539.                  IF    NZ,BEGIN            Get next dump record
 00A9F4 4100 0002            00002 56349  3 7540.                    LA    R0,2                Set buffer two
 00A9F8 5890 7AD0/0D99       0AF4C 56350  3 7541.                    ACALL CLRNW               Release dump record
 00A9FE 1813                       56354  3 7542.                    LR    R1,TR               Set next block number
 00AA00 5890 7AC8/0D99       0AF44 56355  3 7543.                    ACALL HIO                 Read next dump record
 00AA06 1831                       56359  3 7544.                    LR    TR,R1               RESET RECORD ADDRESS
 00AA08                            56360  2 7545.                  END   ,
 00AA08 7590/47F0 7668 0AA08 0A946 56364  1 7546.                END   ELSE,BEGIN          Report on incremental
 00AA0C 5800 400C            0000C 56379  2 7547.                  L     R0,HISICLCK         Tod clock value for incremental
 00AA10 4D90 7682            0AAFE 56380  2 7548.                  LCALL LSTCLCK             Report clock value
 00AA14 4110 7C36/4100_      0B0B2 56382  2 7549.                  VSEG  'Incremental dump taken, Return='
 00AA22 58F0 4040/1B00_      00040 56391  2 7550.                  SEGDC 0,HISIRC            Add return code to message
 00AA38 5890 7AA0/0D99       0AF1C 56430  2 7551.                  VWRITE ,                  Write to report file
 00AA3E D62B 4014 4014 00014 00014 56435  2 7551.1                 OC    HISIDSN,HISIDSN     Any offloaded data set name
 00AA44 4780 75FC            0AA78 56436  2 7551.2                 IF    NZ,BEGIN            Yep - report data set name
 00AA48 4100 0010/4110_      00010 56447  3 7551.21                  VCNTL BLANK,12            Add spacers to message
 00AA56 4110 7AE0/4100_      0AF5C 56466  3 7551.22                  VSEG  'DSN='              Add prefix to message
 00AA64 4110 4014/4100_      00014 56475  3 7551.23                  VSEG  HISIDSN             Add data set name to message
 00AA72 5890 7AA0/0D99       0AF1C 56494  3 7551.24                  VWRITE ,
 00AA78                            56499  2 7551.3                 END   ,
 00AA78 5820 4010/1222       00010 56503  2 7552.                  LT    SR,HISIPOOL         Any pool volumes exist
 00AA7E 1222/4780 764A             56507  2 7553.                  WHILE (SR,NZ),BEGIN       Yep - list all pool segments
 00AA84 4100 0004            00004 56523  3 7554.                    LA    R0,4                Set buffer four
 00AA88 1812                       56524  3 7555.                    LR    R1,SR               Move record number for read
 00AA8A 5890 7AD0/0D99       0AF4C 56525  3 7556.                    ACALL CLRNW               Clear any previous read
 00AA90 5890 7AC8/0D99       0AF44 56529  3 7557.                    ACALL HIO                 Read pool record into buffer
 00AA96 1821                       56533  3 7558.                    LR    SR,R1               Save address of pool record
 USING  HISPREC,R2                 56534  3 7559.                    WITH  (HISPREC,SR),BEGIN  Addressability to pool record
 00AA98 4100 0010/4110_      00010 56548  4 7560.                      VCNTL BLANK,12            Add spacers to message
 00AAA6 4110 2010            00010 56567  4 7561.                      LA    R1,HISPDSN          Address of data set name
 00AAAA 4100 002C            0002C 56568  4 7562.                      LA    R0,44               Maximum length of data set name
 00AAAE 4D90 616A            00180 56569  4 7563.                      LCALL RTRIM               Strip trailing blanks
 00AAB2 5890 7A9C/0D99       0AF18 56571  4 7564.                      VSEG  (R1),(R0)           Add data set name to message
 00AAB8 5890 7AA0/0D99       0AF1C 56586  4 7565.                      VWRITE ,                  Write to report file
 00AABE 5820 2004            00004 56591  4 7566.                      L     SR,HISPNXT          Chain to next pool record
 DROP   HISPREC,R2                 56592  3 7567.                    END   ,
 00AAC2 47F0 7602            0AA7E 56600  2 7568.                  END   ,
 00AAC6 5840 4004/1244       00004 56605  2 7569.                  LT    QR,HISINXT          Chain to next inc record
 00AACC 4780 7668            0AAE4 56609  2 7570.                  IF    NZ,BEGIN            Read next incremental record
 00AAD0 4100 0003            00003 56620  3 7571.                    LA    R0,3                Set buffer number three
 00AAD4 5890 7AD0/0D99       0AF4C 56621  3 7572.                    ACALL CLRNW               Release previous record
 00AADA 1814                       56625  3 7573.                    LR    R1,QR               Set next record number
 00AADC 5890 7AC8/0D99       0AF44 56626  3 7574.                    ACALL HIO                 Read next inc record
 00AAE2 1841                       56630  3 7575.                    LR    QR,R1               Reset record address
 00AAE4                            56631  2 7576.                  END   ,
 00AAE4                            56635  1 7577.                END   ,                   Chain through entire file
 00AAE4 4100 0018/1B11_      00018 56639  1 7578.                VCNTL SKIP2               Skip blank line
 00AAF0 47F0 74A8            0A924 56655    7579.              END   ,
                                   56660    7580.              DROP  SR                  ## release base record
 DROP   HISDREC,R3                 56664    7581.              DROP  TR                  ## release dump record
 DROP   HISIREC,R4                 56671    7582.              DROP  QR                  ## release incremental record
 00AAF4 4BD0 7B60/9829_      0AFDC 56678    7583.              VPOP  SR,RAR,*            Restore calling registers
1VDMP     (VDMP21) (09:46) (22MAR04) ORVYL's File System Dump Program: History Maint                                        Page  312
0Current Usings:  (DUMP,R6) (*,R7) (HWA,R11) (DWA,R12)
0Loc    Object Code    Addr1 Addr2  Stmt Lv Lineno    Source Statement           (Hibal 5, Asmedit 3.3)  HLASM R4.0  2004/03/22 09.46
+___    ______ ____    _____ _____  ____ __ ______    ______ _________
000AAFC 07F9                       56681    7584.              BR    RAR                 And return
                                   56682    7584.1    *
                                   56683    7584.2    *  ADD TOD CLOCK TO MESSAGE
                                   56684    7584.3    *
-00AAFE                            56686    7586.     LSTCLCK  LABEL ,                   List tod clock value
 00AAFE 5090 D000/41D0_      00000 56688    7587.              VPUSH RAR,,*              Save return address
 00AB06 1B11                       56691    7588.              CLEAR R1                  Zero low order bits
 00AB08 41F0 C010            00010 56695    7589.              LA    R15,CLWTEMP         Address of workarea
 00AB0C 58E0 7AD4/0DEE       0AF50 56696    7590.              XCALL FMTCLCK             Do it for now
 00AB12 4110 C019/4100_      00019 56700    7591.              VSEG  CLWTEMP+9,8         Add date to message
 00AB20 4110 7CFB/4100_      0B177 56721    7592.              VSEG  ' '                 Add one blank
 00AB2E 4110 C010/4100_      00010 56730    7593.              VSEG  CLWTEMP,8           Add time to message
 00AB3C 4110 7CFB/4100_      0B177 56751    7594.              VSEG  ' '                 Add trailing blank
 00AB4A 4BD0 7B5E/5890_      0AFDA 56760    7595.              VPOP  RAR,,*              Restore return address
 00AB52 07F9                       56763    7596.              BR    RAR                 And return to caller
1VDMP     (VDMP21) (09:46) (22MAR04) ORVYL's File System Dump Program: History Maint                                        Page  313
0Current Usings:  (DUMP,R6) (*,R7) (HWA,R11) (DWA,R12)
0Loc    Object Code    Addr1 Addr2  Stmt Lv Lineno    Source Statement           (Hibal 5, Asmedit 3.3)  HLASM R4.0  2004/03/22 09.46
+___    ______ ____    _____ _____  ____ __ ______    ______ _________
0                                  56765    7597.1    ¿þþþþþþþþþþþþþþþþþþþþþþþþþþþþþþþþþþþþþþþþþþþþþþþþþþþþþþþþþþþþþþþþþþþþþÜ
                                   56766    7598.     Ÿ                                                                     Ÿ
                                   56767    7599.     Ÿ  Format the History file                                            Ÿ
                                   56768    7600.     Ÿ                                                                     Ÿ
                                                      ¾þþþþþþþþþþþþþþþþþþþþþþþþþþþþþþþþþþþþþþþþþþþþþþþþþþþþþþþþþþþþþþþþþþþþþ»
-00AB54 9029 D000/41D0_      00000 56770    7601.     FMTHIST  VPUSH  SR,RAR,*           Enter and save registers
 00AB5C 4110 7A44            0AEC0 56773    7602.              LA    R1,=CL8'HISTORY'    Check for history ddname
 00AB60 5890 7AA4/0D99       0AF20 56774    7603.              ACALL FINDDD              Locate via tiot
 00AB66 4780 7718            0AB94 56778    7604.              IF    NZ,BEGIN            Not there -- error
 00AB6A 4110 7AE4/4100_      0AF60 56789  1 7605.                VSEG  'VDMP603E - HISTORY file must be defined for '
 00AB78 4110 7A4C/4100_      0AEC8 56798  1 7606.                VSEG  'format function.'
 00AB86 5890 7AA0/0D99       0AF1C 56807  1 7607.                VWRITE ,                  Write to VDMP log
 00AB8C 9210 C05B      0005B       56812  1 7608.                MVI   RETCODE+3,CNT_PRM   Set return code
 00AB90 47F0 70B6            0A532 56813  1 7609.                B     HISTXIT             And return to mainline
 00AB94                            56814    7610.              END   ,
 00AB94 4110 B118            00118 56818    7611.              LA    R1,HWAFDCB          Address for format dcb
 00AB98 4D90 60FC            00112 56819    7612.              LCALL DCBINIT             Initialize dcb
 USING  IHADCB,R5                  56821    7613.              USING IHADCB,RR           ## addressability to dcb
 00AB9C 1851                       56830    7614.              LR    RR,R1               Save dcb address for initialize
 00AB9E D207 5028 7A44 00028 0AEC0 56831    7615.              MVC   DCBDDNAM,=CL8'HISTORY'  SET DDNAME IN DCB
 00ABA4 D201 503E 7B8C 0003E 0B008 56832    7616.              MVC   DCBBLKSI,=AL2(128)      SET BLOCKSIZE
 00ABAA D201 5052 7B8C 00052 0B008 56833    7617.              MVC   DCBLRECL,=AL2(128)      SET LRECL
 00ABB0 9640 501A      0001A       56834    7618.              SET   DCBDSRG1.DCBDSGPS       SET DSORG=PS
 00ABB4 9680 5024      00024       56841    7619.              SET   DCBRECFM.DCBRECF        SET RECFM=F
 00ABB8 9640 5033      00033       56848    7620.              SET   DCBMACR2.DCBMRPUT       SET MACRF=P
 00ABBC 9610 5033      00033       56855    7621.              SET   DCBMACR2.DCBMRMVP       SET MACRF=PM
 00ABC0 4120 B0A0            000A0 56862    7622.              LA    SR,HWOPNLST         Address of open parameter list
 00ABC4 5050 2000            00000 56863    7623.              ST    RR,@SR              Save dcb address for open
 00ABC8 9680 2000      00000       56864    7624.              OI    @SR,X'80'           Set only one dcb to open
 00ABCC 4110 B0A0/94F0_      000A0 56865    7625.              OPEN  ((RR),(OUTPUT)),MF=(E,HWOPNLST)
 00ABE6 9110 5030/4710_00030       56874    7626.              IF    ~DCBOFLGS.DCBOFOPN,BEGIN      UNABLE TO OPEN
 00ABEE 4110 7CFC/4100_      0B178 56890  1 7627.                VSEG  'VDMP605E - Unable to open history file for '
 00ABFC 4110 7A4C/4100_      0AEC8 56899  1 7628.                VSEG  'format function.'
 00AC0A 5890 7AA0/0D99       0AF1C 56908  1 7629.                VWRITE ,                  WRITE TO REPORT FILE
 00AC10 9210 C05B      0005B       56913  1 7630.                MVI   RETCODE+3,CNT_PRM   SET RETURN CODE
 00AC14 47F0 70B6            0A532 56914  1 7631.                B     HISTXIT             AND RETURN
 00AC18                            56915    7632.              END   ,
1VDMP     (VDMP21) (09:46) (22MAR04) ORVYL's File System Dump Program: History Maint                                        Page  314
0Current Usings:  (IHADCB,R5) (DUMP,R6) (*,R7) (HWA,R11) (DWA,R12)
0Loc    Object Code    Addr1 Addr2  Stmt Lv Lineno    Source Statement           (Hibal 5, Asmedit 3.3)  HLASM R4.0  2004/03/22 09.46
+___    ______ ____    _____ _____  ____ __ ______    ______ _________
0                                  56920    7633.1    ¿þþþþþþþþþþþþþþþþþþþþþþþþþþþþþþþþþþþþþþþþþþþþþþþþþþþþþþþþþþþþþþþþþþþþþÜ
                                   56921    7634.     Ÿ                                                                     Ÿ
                                   56922    7635.     Ÿ  DETERMINE NUMBER OF TRACKS IN THE HISTORY FILE DATA SET            Ÿ
                                   56923    7636.     Ÿ                                                                     Ÿ
                                                      ¾þþþþþþþþþþþþþþþþþþþþþþþþþþþþþþþþþþþþþþþþþþþþþþþþþþþþþþþþþþþþþþþþþþþþþ»
-00AC18 5820 502C            0002C 56925    7637.              L     SR,DCBDEBAD         Address of the deb
 USING  DEBBASIC,R2                56926    7638.              USING DEBBASIC,SR         ## addressability to basic section
 00AC1C 1F00/4300 2010             56935    7639.              LC    R0,DEBNMEXT         Number of extents in data set
 00AC22 4120 2020            00044 56940    7640.              LA    SR,DEBBASND         End of basic section
 DROP   DEBBASIC,R2                56941    7641.              DROP  SR                  ## release basic section
 USING  DEBDASD,R2                 56948    7642.              USING DEBDASD,SR          ## addressabilty to dasd section
 00AC26 1B11                       56957    7643.              CLEAR R1                  Zero track counter
 00AC28 1200/4780 77C2             56961    7644.              WHILE (R0,NZ),BEGIN       Add all tracks in data set
 00AC2E 4A10 200E            0000E 56977  1 7645.                AH    R1,DEBNMTRK         Add this extent in
 00AC32 4120 2010            00010 56978  1 7646.                LA    SR,DEBNMTRK+2       Point to next extent in data set
 00AC36 5F00 7B10            0AF8C 56979  1 7647.                SL    R0,=A(1)            Decrement extend counter
 00AC3A 47F0 77AC            0AC28 56980    7648.              END   ,
 DROP   DEBDASD,R2                 56985    7649.              DROP  SR                  ## release deb dasd section
 00AC3E 5010 B094            00094 56992    7650.              ST    R1,HWATRKS          Save number of tracks
 00AC42 1F11/4310 5011             56993    7651.              LC    R1,DCBDEVT          Get device tye from dcb
 00AC48 5410 7B14            0AF90 57000    7652.              N     R1,=A(X'0F')        Just the device type doo-do
 00AC4C 1311                       57001    7653.              LCR   R1,R1                 set negative for calctrk
 00AC4E 4100 0080            00080 57002    7654.              LA    R0,128                  set blocksize for hist file
 00AC52 5890 7B18/0D99       0AF94 57003    7655.              ACALL CALCTRK                   enter calctrk routine
 00AC58 5010 B098            00098 57007    7656.              ST    R1,HWARPT           Save record per track value
 00AC5C 5C00 B094            00094 57008    7657.              M     R0,HWATRKS            compute records in data set
 00AC60 5010 B09C            0009C 57009    7658.              ST    R1,HWARECS              SAVE TOTAL RECORD COUNT
 00AC64 4110 7D27/4100_      0B1A3 57010    7659.              VSEG  'VDMP610I - History file parameters.'
 00AC72 5890 7AA0/0D99       0AF1C 57019    7660.              VWRITE ,
 00AC78 4100 0010/4110_      00010 57024    7661.              VCNTL BLANK,11            Set report spacing
 00AC86 58F0 B094/4100_      00094 57043    7662.              SEGDC 10,HWATRKS,COMMAS=YES
 00AC9E 4110 7A5C/4100_      0AED8 57085    7663.              VSEG  ' Total tracks allocated.'
 00ACAC 5890 7AA0/0D99       0AF1C 57094    7664.              VWRITE ,                  Write to report file
 00ACB2 4100 0010/4110_      00010 57099    7665.              VCNTL BLANK,11            Set report spacing
 00ACC0 58F0 B098/4100_      00098 57118    7666.              SEGDC 10,HWARPT,COMMAS=YES
 00ACD8 4110 7D4A/4100_      0B1C6 57160    7667.              VSEG  ' Records per track.'
 00ACE6 5890 7AA0/0D99       0AF1C 57169    7668.              VWRITE ,                  WRITE TO REPORT FILE
 00ACEC 4100 0010/4110_      00010 57174    7669.              VCNTL BLANK,11            SET REPORT SPACING
 00ACFA 58F0 B09C/4100_      0009C 57193    7670.              SEGDC 10,HWARECS,COMMAS=YES REPORT TOTAL NUMBER OF RECORDS
 00AD12 4110 7D5D/4100_      0B1D9 57235    7671.              VSEG  ' Total records in data set.'
 00AD20 5890 7AA0/0D99       0AF1C 57244    7672.              VWRITE ,                  WRITE TO REPORT FILE
 00AD26 5890 7AA0/0D99       0AF1C 57249    7673.              VWRITE ,
 00AD2C 4110 7B8E/4100_      0B00A 57254    7674.              VSEG  'VDMP834I - Formatting for '
 00AD3A 58F0 C4E4/1B00_      004E4 57263    7675.              SEGDC 0,HSTDGEN
 00AD50 4110 7D78/4100_      0B1F4 57302    7676.              VSEG  ' full dump generations.'
 00AD5E 5890 7AA0/0D99       0AF1C 57311    7677.              VWRITE ,
 00AD64 4100 0010/4110_      00010 57316    7678.              VCNTL BLANK,11            ADD SPACERS TO REPORT FILE
 00AD72 4110 7ADC/4100_      0AF58 57335    7679.              VSEG  'and '
 00AD80 58F0 C4E8/1B00_      004E8 57344    7680.              SEGDC 0,HSTIGEN           ADD INCREMENTAL GENERATIONS
 00AD96 4110 7D8F/4100_      0B20B 57383    7681.              VSEG  ' incremental generations.'
 00ADA4 5890 7AA0/0D99       0AF1C 57392    7682.              VWRITE ,                  WRITE TO REPORT FILE
 DROP   IHADCB,R5                  57397    7683.              DROP  RR                  ## RELEASE HISTORY DCB ADDR
1VDMP     (VDMP21) (09:46) (22MAR04) ORVYL's File System Dump Program: History Maint                                        Page  315
0Current Usings:  (DUMP,R6) (*,R7) (HWA,R11) (DWA,R12)
0Loc    Object Code    Addr1 Addr2  Stmt Lv Lineno    Source Statement           (Hibal 5, Asmedit 3.3)  HLASM R4.0  2004/03/22 09.46
+___    ______ ____    _____ _____  ____ __ ______    ______ _________
0                                  57405    7684.1    ¿þþþþþþþþþþþþþþþþþþþþþþþþþþþþþþþþþþþþþþþþþþþþþþþþþþþþþþþþþþþþþþþþþþþþþÜ
                                   57406    7685.     Ÿ                                                                     Ÿ
                                   57407    7686.     Ÿ  Format history file with computed number of records                Ÿ
                                   57408    7687.     Ÿ                                                                     Ÿ
                                                      ¾þþþþþþþþþþþþþþþþþþþþþþþþþþþþþþþþþþþþþþþþþþþþþþþþþþþþþþþþþþþþþþþþþþþþþ»
000ADAA 4130 B010            00010 57410    7688.              LA    R3,HWABUF           Address of data buffer
 USING  HISBREC,R3                 57411    7689.              WITH  (HISBREC,R3),BEGIN  ## addressability to base block
 00ADAE D203 3004 B09C 00004 0009C 57425  1 7690.                MVC   HISBLKS,HWARECS     Set total number of blocks
 00ADB4 D203 3008 0080 00008 00080 57426  1 7691.                MVC   HISBLKSZ,HISRECSZ   128 for right now chuck
 00ADBA D203 300C B09C 0000C 0009C 57427  1 7692.                MVC   HISBRECS,HWARECS    Set total number of records
 00ADC0 D203 3010 7B10 00010 0AF8C 57428  1 7693.                MVC   HISBFREE,=A(1)      Pointer to first free block
 00ADC6 D207 302C C2C0 0002C 002C0 57429  1 7694.                MVC   HISBNAME,FSNAME     Set name of file system
 00ADCC D203 301C C4E4 0001C 004E4 57430  1 7695.                MVC   HISBDGEN,HSTDGEN    Set maximum dump genrations
 00ADD2 D203 3024 C4E8 00024 004E8 57431  1 7696.                MVC   HISBIGEN,HSTIGEN    Set maximum incremental gens
 00ADD8 D207 302C C4EC 0002C 004EC 57432  1 7696.1               MVC   HISBNAME,HSTFSNAM   Set file system name
 00ADDE 4110 B118/4100_      00118 57433  1 7697.                PUT   HWAFDCB,HISBREC     Write base block to file
 DROP   HISBREC,R3                 57440    7698.              END   ,                   ## release base block
 00ADEE D77F B010 B010 00010 00010 57448    7699.              CLEAR HWABUF              Zero for next record
 00ADF4 5820 7B10            0AF8C 57455    7700.              L     SR,=A(1)            Start with record 1
 00ADF8 5840 B09C            0009C 57456    7701.              L     QR,HWARECS          Total records in file
 00ADFC 5B40 7B20            0AF9C 57457    7702.              S     QR,=A(2)            Adjust for address
 00AE00                            57458    7703.              LOOP  BEGIN
 00AE00 D703 B010 B010 00010 00010 57464  1 7704.                CLEAR (HWABUF,4)          Zero forward pointer
 00AE06 5020 B010            00010 57471  1 7705.                ST    SR,HWABUF+0         Set block address field
 00AE0A 1924/47B0 799C             57472  1 7706.                IF    (SR,LT,QR),BEGIN
 00AE10 4130 2001            00001 57487  2 7707.                  LA    TR,@SR+1            Set next addres
 00AE14 5030 B014            00014 57488  2 7708.                  ST    TR,HWABUF+4         Set forward chain
 00AE18                            57489  1 7709.                END   ,
 00AE18 4110 B118/4100_      00118 57493  1 7710.                PUT   HWAFDCB,HWABUF      Write buffer to file
 00AE28 5A20 7B10            0AF8C 57500  1 7711.                A     SR,=A(1)
 00AE2C 1924/47D0 7984             57501    7712.              UNTIL (SR,GT,QR),END      Go process next record
000AE32 4110 B0A0/43E1_      000A0 57525    7714.              CLOSE (HWAFDCB),MF=(E,HWOPNLST)     CLOSE HISTORY FILE
 00AE48 4110 B118            00118 57533    7715.1             LA    R1,HWAFDCB          ADDRESS OF DCB
 00AE4C 4D90 611E            00134 57534    7715.2             LCALL FREPOOL             RELEASE BUFFER POOL
 00AE50 4110 7B24/4100_      0AFA0 57536    7716.              VSEG  'VDMP666I - History file formatting complete.'
 00AE5E 5890 7AA0/0D99       0AF1C 57545    7717.              VWRITE ,                  WRITE TO REPORT FILE
 00AE64 4BD0 7B60/9829_      0AFDC 57550    7718.              VPOP  SR,RAR,*            RESTORE REGISTERS AND RETURN
 00AE6C 07F9                       57553    7719.              BR    RAR                 AND RETURN TO CALLER
1VDMP     (VDMP21) (09:46) (22MAR04) ORVYL's File System Dump Program: History Maint                                        Page  316
0Current Usings:  (DUMP,R6) (*,R7) (HWA,R11) (DWA,R12)
0Loc    Object Code    Addr1 Addr2  Stmt Lv Lineno    Source Statement           (Hibal 5, Asmedit 3.3)  HLASM R4.0  2004/03/22 09.46
+___    ______ ____    _____ _____  ____ __ ______    ______ _________
0                                  57555    7720.01   ********************************************************************
                                   57556    7720.02   *                                                                  *
                                   57557    7720.03   *  Define literal pool and release all addressability              *
                                   57558    7720.04   *                                                                  *
                                   57559    7720.05   ********************************************************************
-DROP   DWA,R12                    57561    7720.98            DROP  ,
 DROP   HWA,R11
 DROP   *,R7
 DROP   DUMP,R6
-
 00AE70                            57607    7721.              LTORG ,
 00AE70 C6D6D9D4C1E340C6           57609                             =C'FORMAT FUNCTION.'
 00AE80 C8E6C140C8E6C140           57610                             =4CL4'HWA '
 00AE90 C3D6D5E3D9D6D340           57611                             =CL8'CONTROL'
 00AE98 8481A38140A39640           57612                             =C'data to cleanup.'
 00AEA8 C6A493934084A494           57613                             =C'Full dump taken, Return='
 00AEC0 C8C9E2E3D6D9E840           57614                             =CL8'HISTORY'
 00AEC8 8696999481A34086           57615                             =C'format function.'
 00AED8 40E396A3819340A3           57616                             =C' Total tracks allocated.'
 00AEF0 00000000                   57617                             =V(VCNTRL)
 00AEF4 E5C4D4D7F6F0F1C9           57618                             =C'VDMP601I - History File Maintenance '
 00AF18 00000000                   57619                             =V(VSEG)
 00AF1C 00000000                   57620                             =V(VWRITE)
 00AF20 00001F42                   57621                             =A(FINDDD)
 00AF24 000020F6                   57622                             =A(DOCNTL)
 00AF28 E5C4D4D7F7F5F2C9           57623                             =C'VDMP752I - Cleanup function.'
 00AF44 00003668                   57624                             =A(HIO)
 00AF48 00000000                   57625                             =V(BTD)
 00AF4C 00003862                   57626                             =A(CLRNW)
 00AF50 00000000                   57627                             =V(FMTCLCK)
 00AF54 40968640                   57628                             =C' of '
 00AF58 81958440                   57629                             =C'and '
 00AF5C C4E2D57E                   57630                             =C'DSN='
 00AF60 E5C4D4D7F6F0F3C5           57631                             =C'VDMP603E - HISTORY file must be defined for '
 00AF8C 00000001                   57632                             =A(1)
 00AF90 0000000F                   57633                             =A(X'0F')
 00AF94 0000B676                   57634                             =A(CALCTRK)
 00AF98 00000000                   57635                             =V(BTDC)
 00AF9C 00000002                   57636                             =A(2)
 00AFA0 E5C4D4D7F6F6F6C9           57637                             =C'VDMP666I - History file formatting complete.'
 00AFCC D3C9E2E340C6E4D5           57638                             =C'LIST FUNCTION.'
 00AFDA 0004                       57639                             =Y(4)
 00AFDC 0020                       57640                             =Y((RAR+1-(SR)+16*((SR)/(RAR+1))/((SR)/(RAR+1)))*4)
 00AFDE 0008                       57641                             =Y((R1+1-(R0)+16*((R0)/(R1+1))/((R0)/(R1+1)))*4)
 00AFE0 C689938540839695           57642                             =C'File contains '
 00AFEE 4089958399859485           57643                             =C' incremental dump records.'
 00B008 0080                       57644                             =AL2(128)
 00B00A E5C4D4D7F8F3F4C9           57645                             =C'VDMP834I - Formatting for '
 00B024 C3D3C5C1D5E4D740           57646                             =C'CLEANUP FUNCTION.'
 00B035 E5C4D4D7F7F5F3C5           57647                             =C'VDMP753E - Control file must be present for list.'
1VDMP     (VDMP21) (09:46) (22MAR04) ORVYL's File System Dump Program: History Maint                                        Page  317
0Loc    Object Code    Addr1 Addr2  Stmt Lv Lineno    Source Statement           (Hibal 5, Asmedit 3.3)  HLASM R4.0  2004/03/22 09.46
+___    ______ ____    _____ _____  ____ __ ______    ______ _________
000B066 E5C4D4D7F7F5F5C9           57648                             =C'VDMP755I - Base record loaded for processing.'
 00B093 E5C4D4D7F7F5F6C5           57649                             =C'VDMP756E - No incremental dump '
 00B0B2 C995839985948595           57650                             =C'Incremental dump taken, Return='
 00B0D1 D596408995839985           57651                             =C'No incremental data sets chained.'
 00B0F2 E5C4D4D7F7F5F1C9           57652                             =C'VDMP751I - List function.'
 00B10B E5C4D4D7F8F8F6C9           57653                             =C'VDMP886I - History file listing'
 00B12A 4086969940                 57654                             =C' for '
 00B12F 4081A240968640             57655                             =C' as of '
 00B136 C2C3E540A59693A4           57656                             =C'BCV volumes indicate '
 00B14B C5E2E3C1C2D3C9E2           57657                             =C'ESTABLISHED'
 00B156 E2D7D3C9E3                 57658                             =C'SPLIT'
 00B15B 4086A493934084A4           57659                             =C' full dump records.'
 00B16E 6B40D9C5E3E4D9D5           57660                             =C', RETURN='
 00B177 40                         57661                             =C' '
 00B178 E5C4D4D7F6F0F5C5           57662                             =C'VDMP605E - Unable to open history file for '
 00B1A3 E5C4D4D7F6F1F0C9           57663                             =C'VDMP610I - History file parameters.'
 00B1C6 40D98583969984A2           57664                             =C' Records per track.'
 00B1D9 40E396A381934099           57665                             =C' Total records in data set.'
 00B1F4 4086A493934084A4           57666                             =C' full dump generations.'
 00B20B 4089958399859485           57667                             =C' incremental generations.'
1VDMP     (VDMP21) (09:46) (22MAR04) ORVYL's File System Dump Program: Print Routines                                       Page  318
0Loc    Object Code    Addr1 Addr2  Stmt Lv Lineno    Source Statement           (Hibal 5, Asmedit 3.3)  HLASM R4.0  2004/03/22 09.46
+___    ______ ____    _____ _____  ____ __ ______    ______ _________
0                                  57673    7726.     ********************************************************************
                                   57674    7727.     ********************************************************************
                                   57675    7728.     ********************************************************************
                                   57676    7729.     ***                                                              ***
                                   57677    7730.     ***                                                              ***
                                   57678    7731.     ***          Reentrant print routines                            ***
                                   57679    7732.     ***                                                              ***
                                   57680    7733.     ***                                                              ***
                                   57681    7734.     ********************************************************************
                                   57682    7735.     ********************************************************************
                                   57683    7736.     ********************************************************************
-00B7D2                0B7D2 0B848 57685    7738.              DATA  BEGIN
                                   57690  1 7739.                PRINT NOGEN
 00B7D2 0005000040                 57692  1 7739.1    VCLRBUF    DC    X'0005000040'       RESET VSEG BUFFER TO NULL
                                   57693  1 7740.   C MODPRT     DCB   DDNAME=SYSPRINT,MACRF=PM,DSORG=PS,LRECL=137,
 00B7D8 0000000000000000                  1 7741.                      RECFM=VBA,EXLST=OPEXITL
                                   57735  1 7742.     MODOTL     EQU   *-MODPRT                DEFINE DCB LENGTH
                                   57736  1 7743.                PRINT GEN
 00B224                0B224 0B848 57738    7744.              END   ,
-000000                00000 00181 57745    7746.     VIDC     RECORD BEGIN
 000000 E5C9C4C3                   57753  1 7747.     VIDCID     DC    CL4'VIDC'           Memory identifier
 000004 00000000                   57754  1 7748.     VIDCHDR    DC    A(0)                Possible header page routine
 000008 00000000                   57755  1 7749.     VIDCPLN    DC    A(0)                Page length, default 60
 00000C 00000000                   57756  1 7750.     VIDCMSG    DC    A(0)                MESSAGE IDENTIFIER FOR WTO
0                                  57758  1 7752.     OPNLST     OPEN  (PRYNTER,(OUTPUT)),MF=L
 000010                            57759  1 01-OPEN  +OPNLST     DC    0F'0'                             ALIGN LIST TO FULLWORD
 000010 8F                         57760  1 01-OPEN  +           DC    AL1(143)                     OPTION BYTE
 000011 0000A0                     57761  1 01-OPEN  +           DC    AL3(PRYNTER)                 DCB ADDRESS
0000014                            57763  1 7754.                DC    0A(0)               FORCE ALIGNMENT
 000014                            57764  1 7755.     SEGBUF     DS    0CL137
 000014 00050000                   57765  1 7756.     SEGLEN     DC    AL2(5,0)
 000018 40                         57766  1 7757.     SEGCC      DC    C' '
 000019                            57767  1 7758.     SEGB       DS    CL(L'SEGBUF-5)
000009D 00                         57769  1 7760.     SEGFLAGS   FLAG  ,
 SEGFLAGS.SEGFCLOS 80 ONES         57773  1 7761.                FLAG  SEGFCLOS
 SEGFLAGS.SEGFJNAM 40 ONES         57778  1 7762.                FLAG  SEGFJNAM
0                                  57784  1 7764.                PRINT NOGEN
                                   57785  1 01-00287 +         $$PRINT NOGEN
                                   57786  1 7765.   C PRYNTER    DCB   DDNAME=SYSPRINT,RECFM=VBA,LRECL=137,DSORG=PS,DEVD=DA,
 0000A0 0000000000000000                  1 7766.                      MACRF=PM,EXLST=OPEXITL
                                   57828  1 7767.                PRINT GEN
                                   57829  1 01-00287 +         $$PRINT GEN
1VDMP     (VDMP21) (09:46) (22MAR04) ORVYL's File System Dump Program: Print Routines                                       Page  319
0D-Loc  Object Code    Addr1 Addr2  Stmt Lv Lineno    Source Statement           (Hibal 5, Asmedit 3.3)  HLASM R4.0  2004/03/22 09.46
+_____  ______ ____    _____ _____  ____ __ ______    ______ _________
0000100                            57831  1 7769.     WTOBUFF    DC   0A(0)                Force alignment
 000100 0000                       57832  1 7770.     WTOLEN     DC    AL2(0)              LENGTH OF WTO PARAMETER LIST
 000102                            57833  1 7771.     WTOFLAGS   DC   0AL2(0)              WTO MCS FLAG BYTES
 000102 00                         57834  1 7772.     WTOMCSF0   FLAG  ,                   DEFINE MCS FLAG BYTE 0
 WTOMCSF0.WTOFMCS  80 ONES         57838  1 7773.                FLAG  (WTOFMCS,X'80')       -  ROUTING AND DESCRIPTOR CODES
 WTOMCSF0.WTOFID0  40 ONES         57847  1 7774.                FLAG  (WTOFID0,X'40')       -  ROUTE TO MCS ID IN REG0
 000103 00                         57856  1 7775.     WTOMCSF1   FLAG  ,                   DEFINE MCS FLAG BYTE 1
 WTOMCSF1.WTOFMULT 40 ONES         57860  1 7776.                FLAG  (WTOFMULT,X'40')      -  MULTI-LINE WTO
0000104 5C5C5C40                   57870  1 7778.     WTOSTAR1   DC    CL4'*** '
 000108 C6C9D3C5C4E4D4D7           57871  1 7779.     WTOJNAME   DC    CL8'FILEDUMP'
 000110 405C5C5C40                 57872  1 7780.     WTOSTAR2   DC    CL5' *** '
 000115 4040404040404040           57873  1 7781.     WTOMSG     DC    CL100' '
0000179 0000                       57875  1 7783.     WTODESC    DC    AL2(0)              DESCRIPTOR CODES
 00017B 0000                       57876  1 7784.     WTOROUTC   DC    AL2(0)              ROUTING CODES
 00017D 00                         57877  1 7785.     WTOTFLG    FLAG  ,                   LINE TYPE (MULTI-LINE WTO)
 WTOTFLG.WTOTYPC   80 ONES         57881  1 7786.                FLAG  WTOTYPC               -- LINE TYPE "C"
 WTOTFLG.WTOTYPL   40 ONES         57886  1 7787.                FLAG  WTOTYPL               -- LINE TYPE "L"
 WTOTFLG.WTOTYPD   20 ONES         57891  1 7788.                FLAG  WTOTYPD               -- LINE TYPE "D"
 WTOTFLG.WTOTYPE   10 ONES         57896  1 7789.                FLAG  WTOTYPE               -- LINE TYPE "E"
 00017E 00                         57901  1 7790.     WTOAREA    DC    AL1(0)              AREA ID FOR DISPLAY WTO'S
 00017F 0000                       57902  1 7791.     WTOLINES   DC    AL2(0)              TOTAL NUMBER OF LINES (MULT-LINE)
                                   57903  1 7792.     WTOCODES   EQU   WTODESC,*-WTODESC   ADDRESS AND LENGTH OF TRAILER INFO
0000181                00181 00181 57905    7794.              END   ,
0USING  VIDC,R11                   57915    7796.              USING VIDC,VWRK           ## Print work area buffer
1VDMP     (VDMP21) (09:46) (22MAR04) ORVYL's File System Dump Program: Print Routines                                       Page  320
0Current Usings:  (VIDC,R11)
0Loc    Object Code    Addr1 Addr2  Stmt Lv Lineno    Source Statement           (Hibal 5, Asmedit 3.3)  HLASM R4.0  2004/03/22 09.46
+___    ______ ____    _____ _____  ____ __ ______    ______ _________
0                                  57925    7798.     ********************************************************************
                                   57926    7799.     *                                                                  *
                                   57927    7800.     *    Add segment to output buffer                                  *
                                   57928    7801.     *                                                                  *
                                   57929    7802.     ********************************************************************
000B224 900F D000/188D_      00000 57931    7804.     VSEG     VENTER R0,R15,*               Enter and save calling regs
 USING  *,R7
 00B230 58B0 C000            00000 57951    7805.              L     VWRK,0(,R12)        Set address register
 00B234 1230                       57952    7806.              LTR   TR,R0                   Check length
 00B236 47D0 7036            0B266 57953    7807.              IF    P,BEGIN                 Non-zero call
 00B23A 4120 0089            00089 57964  1 7808.                LA    SR,L'SEGBUF             Calculate
 00B23E 4B20 B014            00014 57965  1 7809.                SH    SR,SEGLEN               Length remaining
 00B242 47D0 7036            0B266 57966  1 7810.                IF    P,BEGIN                 Sufficient space, continue
 00B246 1B23                       57977  2 7811.                  SR    SR,TR                   More data than space?
 00B248 47B0 701E/1A32       0B24E 57978  2 7812.                  IF    M,'AR TR,SR '           Nope, reduce to max avail.
 00B24E 4140 B014            00014 57995  2 7813.                  LA    QR,SEGBUF               Calculate data address
 00B252 4A40 B014            00014 57996  2 7814.                  AH    QR,SEGLEN
 00B256 1823                       57997  2 7815.                  LR    SR,TR                   Calculate new
 00B258 4A20 B014            00014 57998  2 7816.                  AH    SR,SEGLEN               Record length
 00B25C 4020 B014            00014 57999  2 7817.                  STH   SR,SEGLEN               And save it
 00B260 0630/4430 7608_            58000  2 7818.                  DEX   TR,'MVC @QR(0),@R1'     Move in the goodies
 00B266                            58019  1 7819.                END   ,
 00B266                            58023    7820.              END   ,
 00B266 18D8/980F D000_            58027    7821.              VEXIT R0,R15                  Restore and return
 DROP   *,R7                       58032    7821.1             Drop  BR                  Release VENTER/VEXIT base
1VDMP     (VDMP21) (09:46) (22MAR04) ORVYL's File System Dump Program: Print Routines                                       Page  321
0Current Usings:  (VIDC,R11)
0Loc    Object Code    Addr1 Addr2  Stmt Lv Lineno    Source Statement           (Hibal 5, Asmedit 3.3)  HLASM R4.0  2004/03/22 09.46
+___    ______ ____    _____ _____  ____ __ ______    ______ _________
0                                  58040    7823.     ¿þþþþþþþþþþþþþþþþþþþþþþþþþþþþþþþþþþþþþþþþþþþþþþþþþþþþþþþþþþþþþþþþþþþþþÜ
                                   58041    7824.     Ÿ                                                                     Ÿ
                                   58042    7825.     Ÿ    Print the current buffer                                         Ÿ
                                   58043    7826.     Ÿ                                                                     Ÿ
                                                      ¾þþþþþþþþþþþþþþþþþþþþþþþþþþþþþþþþþþþþþþþþþþþþþþþþþþþþþþþþþþþþþþþþþþþþþ»
000B26E 900F D000/188D_      00000 58045    7829.     VWRITE   VENTER R0,R15,*               SAVE CALLING REGISTERS
 USING  *,R7
 00B27A 58B0 C000            00000 58065    7830.              L     VWRK,0(,R12)        Set dynamic work buffer
 00B27E 1BEE                       58066    7831.              CLEAR R14                 Set GOOD return code
 00B280 D503 B000 74A6 00000 0B720 58070    7832.              CLC   VIDCID,=C'VIDC'     X-Check work area id
 00B286 4770 706C            0B2E6 58071    7833.              IF    E,BEGIN             Ok, continue with the print
 00B28A 4120 B0A0            000A0 58082  1 7834.                LA    SR,PRYNTER          Output dcb address
 USING  IHADCB,R2                  58083  1 7835.                USING IHADCB,SR           ## Addr to dcb
 00B28E 9110 2030/4710_00030       58092  1 7836.                IF    ~DCBOFLGS.DCBOFOPN,BEGIN      Closed dcb, try to open
 00B296 41E0 0001            00001 58108  2 7837.                  LA    R14,1               Set bad return code
 00B29A 9180 B09D/4710_0009D       58109  2 7838.                  IF    ~SEGFCLOS,BEGIN     First time processing
 00B2A2 4110 B010/94F0_      00010 58124  3 7839.                    OPEN  (PRYNTER,(OUTPUT)),MF=(E,OPNLST)
 00B2C0 9110 2030/47E0_00030       58134  3 7840.                    IF    DCBOFLGS.DCBOFOPN,'CLEAR R14' ZERO RETURN CODE
 00B2CA                            58159  2 7841.                  END
 00B2CA                            58163  1 7842.                END   ,
 00B2CA 12EE/4770 706C             58167  1 7843.                IF    (R14,Z),BEGIN           FILE IS OPEN
 00B2D0 4110 B0A0/4100_      000A0 58181  2 7844.                  PUT   PRYNTER,SEGBUF          OUTPUT BUFFER
 00B2E0 D204 B014 7558 00014 0B7D2 58188  2 7845.                  MVC   SEGBUF(5),VCLRBUF       RESET BUFFER
 00B2E6                            58189  1 7846.                END   ,
 00B2E6                            58193    7847.              END   ,
 00B2E6 12EE                       58197    7848.              LTR   R14,R14                 SET CONDITION CODE
 00B2E8 18D8/980F D000_            58198    7849.              VEXIT R0,R15                  AND RETURN TO CALLER
 DROP   IHADCB,R2                  58203    7850.              DROP  SR                  Release DCB ADDRESSABILITY
 DROP   *,R7                       58210    7850.1             Drop  BR                  Release VENTER/VEXIT base
1VDMP     (VDMP21) (09:46) (22MAR04) ORVYL's File System Dump Program: Print Routines                                       Page  322
0Current Usings:  (VIDC,R11)
0Loc    Object Code    Addr1 Addr2  Stmt Lv Lineno    Source Statement           (Hibal 5, Asmedit 3.3)  HLASM R4.0  2004/03/22 09.46
+___    ______ ____    _____ _____  ____ __ ______    ______ _________
0                                  58218    7852.     ¿þþþþþþþþþþþþþþþþþþþþþþþþþþþþþþþþþþþþþþþþþþþþþþþþþþþþþþþþþþþþþþþþþþþþþÜ
                                   58219    7853.     Ÿ                                                                     Ÿ
                                   58220    7854.     Ÿ    Perform control functions                                        Ÿ
                                   58221    7855.     Ÿ                                                                     Ÿ
                                                      ¾þþþþþþþþþþþþþþþþþþþþþþþþþþþþþþþþþþþþþþþþþþþþþþþþþþþþþþþþþþþþþþþþþþþþþ»
000B2F0 900E D000/188D_      00000 58223    7858.     VCNTRL   VENTER R0,R14,*           ENTER AND SAVE REGISTERS
 USING  *,R7
 00B2FC 58B0 C000            00000 58243    7859.              L     VWRK,0(,R12)        SET ADDRESS REGISTER
 00B300 1820                       58244    7860.              LR    SR,R0               COPY CONTROL CODE VALUE
                                   58246    7862.              VCNTL TABLE,SR                GENERATE CONTROL TABLE VECTOR
 00B302 47F2 700A            0B306 58247    01-01496 +VCNBTBL  B     VCNBTBL+4(SR)
 00B306 47F0 7188            0B484 58248    01-01499 +         B     VCNWTO
 00B30A 47F0 7198            0B494 58249    01-01499 +         B     VCNWTOWR
 00B30E 47F0 704E            0B34A 58250    01-01499 +         B     VCNSETCC
 00B312 47F0 70F2            0B3EE 58251    01-01499 +         B     VCNCLOSE
 00B316 47F0 71A6            0B4A2 58252    01-01499 +         B     VCNBLANK
 00B31A 47F0 71B6            0B4B2 58253    01-01499 +         B     VCNSKIP1
 00B31E 47F0 71BE            0B4BA 58254    01-01499 +         B     VCNSKIP2
 00B322 47F0 71C6            0B4C2 58255    01-01499 +         B     VCNPAGE
 00B326 47F0 71CE            0B4CA 58256    01-01499 +         B     VCNDDNAM
 00B32A 47F0 703E            0B33A 58257    01-01499 +         B     VCNPGRT
 00B32E 47F0 7046            0B342 58258    01-01499 +         B     VCNPGLN
 00B332 47F0 70B2            0B3AE 58259    01-01499 +         B     VCNICMD
 00B336 47F0 7056            0B352 58260    01-01499 +         B     VCNSTPC
 00B33A                            58262    7864.     VCNPGRT  LABEL ,
 00B33A 5010 B004            00004 58264    7865.              ST    R1,VIDCHDR          SAVE PAGE HEADER ROUTINE
 00B33E 47F0 71E0            0B4DC 58265    7866.              B     VCNEXIT             AND EXIT CONTROL ROUTINE
 00B342                            58266    7867.     VCNPGLN  LABEL ,
 00B342 5010 B008            00008 58268    7868.              ST    R1,VIDCPLN          SAVE PAGE LENGTH
 00B346 47F0 71E0            0B4DC 58269    7869.              B     VCNEXIT             SAY BYE,BYE
 00B34A                            58270    7870.     VCNSETCC LABEL ,
 00B34A 4210 B018            00018 58272    7871.              STC   R1,SEGCC                SET CARRIAGE CONTROL CHAR.
 00B34E 47F0 71E0            0B4DC 58273    7872.              B     VCNEXIT                 BYE, BYE
-00B352                            58275    7873.01   VCNSTPC  LABEL ,                   ISSUE INTERNAL STOP COMMAND
 00B352 4110 74C0/4100_      0B7BC 58277    7873.02            VSEG  'P '                ADD COMMAND CODE FOR STOP
 00B360 4110 B108/4100_      00108 58286    7873.03            VSEG  WTOJNAME            ADD JOBNAME
 00B36E 4110 74D0/4100_      0B7CC 58305    7873.04            VSEG  ' '                 ADD TRAILING BLANK FOR GOD
 00B37C 4510 7088/0000_      0B384 58314    7873.05            MODESET KEY=ZERO          ENTER KEY ZERO
 00B38A 1B00                       58321    7873.06            CLEAR R0                  ZERO UCM ID
 00B38C 4110 B014            00014 58325    7873.07            LA    R1,SEGBUF           ADDRESS OF COMMAND BUFFER
 00B390 0A22                       58326    7873.08            SVC   34                  ISSUE INTERNAL COMMAND
 00B392 0700/4510 70A0_            58327    7873.09            MODESET KEY=NZERO         BACK TO PROBLEM KEY
 00B3A2 D204 B014 74D6 00014 0B7D2 58334    7873.1             MVC   SEGBUF(5),VCLRBUF   CLEAR PRINT BUFFER
 00B3A8 1BFF                       58335    7873.11            CLEAR R15                 ZERO RETURN KEY
 00B3AA 47F0 71E0            0B4DC 58339    7873.12            B     VCNEXIT
-00B3AE                            58341    7873.14   VCNICMD  LABEL ,                   GENERATE INTERNAL COMMAND
 00B3AE 4110 74D0/4100_      0B7CC 58343    7873.15            VSEG  ' '                 INSURE TRAILING BLANK
 00B3BC 4510 70C8/0000_      0B3C4 58352    7873.25            MODESET KEY=ZERO          ENTER KEY ZERO
 00B3CA 1B00                       58359    7873.35            CLEAR R0                  ZERO UCM ID
1VDMP     (VDMP21) (09:46) (22MAR04) ORVYL's File System Dump Program: Print Routines                                       Page  323
0Current Usings:  (*,R7) (VIDC,R11)
0Loc    Object Code    Addr1 Addr2  Stmt Lv Lineno    Source Statement           (Hibal 5, Asmedit 3.3)  HLASM R4.0  2004/03/22 09.46
+___    ______ ____    _____ _____  ____ __ ______    ______ _________
000B3CC 4110 B014            00014 58363    7873.45            LA    R1,SEGBUF           ADDRESS OF COMMAND BUFFER
 00B3D0 0A22                       58364    7873.55            SVC   34                  ISSUE INTERNAL COMMAND
 00B3D2 0700/4510 70E0_            58365    7873.65            MODESET KEY=NZERO         BACK TO PROBLEM KEY
 00B3E2 D204 B014 74D6 00014 0B7D2 58372    7873.97            MVC   SEGBUF(5),VCLRBUF   CLEAR PRINT BUFFER
 00B3E8 1BFF                       58373    7873.98            CLEAR R15                 ZERO RETURN CODE
 00B3EA 47F0 71E0            0B4DC 58377    7873.99            B     VCNEXIT             AND RETURN TO CALLER
 00B3EE                            58378    7874.     VCNCLOSE LABEL ,                   Close print routines
 00B3EE D504 B014 74D6 00014 0B7D2 58380    7874.1             CLC   SEGBUF(5),VCLRBUF   ANY RESIDUAL IN BUFFER
 00B3F4 4780 7102            0B3FE 58381    7876.              IF    NE,BEGIN            YES - PRINT RESIDUAL
 00B3F8 5890 742C/0D99       0B728 58392  1 7877.                VWRITE ,                  Write whatever's there
 00B3FE                            58397    7878.              END   ,
 00B3FE 4110 B0A0            000A0 58401    7879.              LA    R1,PRYNTER          ADDRESS OF PRINT DCB
 USING  IHADCB,R1                  58402    7880.              USING IHADCB,R1           ## ADDR TO PRINT DCB
 00B402 9110 1030/47E0_00030       58411    7881.              IF    DCBOFLGS.DCBOFOPN,BEGIN IT'S OPEN, PLEASE CLOSE
 00B40A 4110 B010/43E1_      00010 58427  1 7882.                CLOSE PRYNTER,MF=(E,OPNLST)   Close the data set
 00B420 4110 B0A0/9101_      000A0 58435  1 7883.                FREEPOOL PRYNTER              Release buffer pool
 00B46E                            58461    7884.              END   ,
 DROP   IHADCB,R1                  58465    7885.              DROP  R1                  ## RELEASE DCB ADDRESSABILITY
 00B46E 181B                       58472    7886.              LR    R1,VWRK             Release print work area
 00B470 4100 0181            00181 58473    7887.              LA    R0,L'VIDC           Set length to freemain
 00B474 4110 1000/0A0A       00000 58474    7888.              FREEMAIN R,LV=(0),A=(1)   Release work area
 00B47A D703 C000 C000 00000 00000 58478    7889.              XC    @R12(4),@R12        Zero address
 00B480 47F0 71E0            0B4DC 58479    7890.              B     VCNEXIT             Return to caller
000B484                            58481    7892.     VCNWTO   LABEL ,
 00B484 4590 71EA            0B4E6 58483    7893.              BAL   RAR,DOWTO           Issue the WTO message
 00B488 18F1                       58484    7894.              LR    R15,R1              Save DOM-ID from WTO
 00B48A D204 B014 74D6 00014 0B7D2 58485    7895.              MVC   SEGLEN(5),VCLRBUF   Reset the buffer length
 00B490 47F0 71E0            0B4DC 58486    7896.              B     VCNEXIT             Return to main caller
000B494                            58488    7898.     VCNWTOWR LABEL ,                   Issue WTO and print buffer
 00B494 4590 71EA            0B4E6 58490    7899.              BAL   RAR,DOWTO           Do the WTO operation first
 00B498 5890 742C/0D99       0B728 58491    7900.              VWRITE ,                  Write the line also
 00B49E 47F0 71E0            0B4DC 58496    7901.              B     VCNEXIT             Return to main caller
000B4A2                            58498    7903.     VCNBLANK LABEL ,                   Blank fill for (R1) characters
 00B4A2 1801                       58500    7904.              LR    R0,R1               Set blank fill length
 00B4A4 4110 7430            0B72C 58501    7905.              LA    R1,=CL132' '        Assume 1 line or less
 00B4A8 5890 7428/0D99       0B724 58502    7906.              VSEG  (R1),(R0)           Add blanks to output buffer
 00B4AE 47F0 71E0            0B4DC 58517    7907.              B     VCNEXIT             Return to the main caller
000B4B2                            58519    7909.     VCNSKIP1 LABEL ,                   Set carriage control byte
 00B4B2 92F0 B018      00018       58521    7910.              MVI   SEGCC,C'0'            For double space
 00B4B6 47F0 71E0            0B4DC 58522    7911.              B     VCNEXIT                 Return to the main caller
000B4BA                            58524    7913.     VCNSKIP2 LABEL ,                   Set carriage control byte
 00B4BA 9260 B018      00018       58526    7914.              MVI   SEGCC,C'-'            For triple spacing
 00B4BE 47F0 71E0            0B4DC 58527    7915.              B     VCNEXIT                 Return to the main caller
000B4C2                            58529    7917.     VCNPAGE  LABEL ,                   Set carriage control byte
 00B4C2 92F1 B018      00018       58531    7918.              MVI   SEGCC,C'1'            For page eject operation
 00B4C6 47F0 71E0            0B4DC 58532    7919.              B     VCNEXIT                 Return to the main caller
000B4CA                            58534    7921.     VCNDDNAM LABEL ,                   Set print file DDNAME
1VDMP     (VDMP21) (09:46) (22MAR04) ORVYL's File System Dump Program: Print Routines                                       Page  324
0Current Usings:  (*,R7) (VIDC,R11)
0Loc    Object Code    Addr1 Addr2  Stmt Lv Lineno    Source Statement           (Hibal 5, Asmedit 3.3)  HLASM R4.0  2004/03/22 09.46
+___    ______ ____    _____ _____  ____ __ ______    ______ _________
000B4CA 9110 B0D0      000D0       58536    7922.              TM    PRYNTER+(DCBOFLGS-IHADCB),DCBOFOPN  Already open?
 00B4CE 4710 71E0            0B4DC 58537    7923.              BO    VCNEXIT             Can't do it now, dodo
 00B4D2 D207 B0C8 1000 000C8 00000 58538    7924.              MVC   PRYNTER+(DCBDDNAM-IHADCB)(8),@R1  Set DDNAME
 00B4D8 47F0 71E0            0B4DC 58539    7925.              B     VCNEXIT             Return to the main caller
000B4DC 18D8/980E D000_            58541    7927.     VCNEXIT  VEXIT R0,R14,LTR          Exit control routines
1VDMP     (VDMP21) (09:46) (22MAR04) ORVYL's File System Dump Program: Print Routines                                       Page  325
0Current Usings:  (*,R7) (VIDC,R11)
0Loc    Object Code    Addr1 Addr2  Stmt Lv Lineno    Source Statement           (Hibal 5, Asmedit 3.3)  HLASM R4.0  2004/03/22 09.46
+___    ______ ____    _____ _____  ____ __ ______    ______ _________
0                                  58548    7929.     ********************************************************************
                                   58549    7930.     *                                                                  *
                                   58550    7931.     *    Format a WTO and issue the WTO svc                            *
                                   58551    7932.     *                                                                  *
                                   58552    7933.     *    Entry Parameters:                                             *
                                   58553    7934.     *                                                                  *
                                   58554    7935.     *        Reg1  Byte 0  --  MCS console identifier                  *
                                   58555    7936.     *              Byte 1  --  MCS multi-line indicator                *
                                   58556    7937.     *              Byte 2  --  Binary descriptor code, (0-15)          *
                                   58557    7938.     *              Byte 3  --  Binary route code, (0-15)               *
                                   58558    7939.     *                                                                  *
                                   58559    7940.     *        Reg15 Byte 0  --  Line type, if MCS flag byte 1 bit 1     *
                                   58560    7941.     *                          has been set.                           *
                                   58561    7942.     *                                                                  *
                                   58562    7943.     ********************************************************************
000B4E6 9029 D000/41D0_      00000 58564    7945.     DOWTO    VPUSH SR,RAR,*            Enter and save registers
 00B4EE 4820 B014            00014 58567    7946.              LH    SR,SEGLEN           Get length of message
 00B4F2 4B20 74C2            0B7BE 58568    7947.              SH    SR,=H'6'            Less cc, reduce for execute
 00B4F6 4740 72EA            0B5E6 58569    7948.              BM    DWEXIT              Nothing to send
 00B4FA 4920 74C4            0B7C0 58570    7949.              CH    SR,=AL2(L'WTOMSG-1) Message too big?
 00B4FE 47D0 720A            0B506 58571    7950.              IF    H,BEGIN             Yes, reduce to maximum length
 00B502 4120 0063            00063 58582  1 7951.                LA    SR,L'WTOMSG-1       Set maximum length of message
 00B506                            58583    7952.              END   ,
000B506 5010 D000            00000 58588    7954.              ST    R1,@R13             Save possible MCS,DESC,ROUTCDE
 00B50A 91FF D001      00001       58589    7955.              TM    @R13+1,X'FF'        IS THIS A MULTI-LINE WTO?
 00B50E 4770 7240            0B53C 58590    7956.              IF    Z,BEGIN             NO -- SET JOBNAME INFO
 00B512 D203 B104 74B4 00104 0B7B0 58601  1 7957.                MVC   WTOSTAR1,=C'*** '   SET STARS
 00B518 D204 B110 74D1 00110 0B7CD 58602  1 7958.                MVC   WTOSTAR2,=C' *** '  I SEE STARS, MOM?
 00B51E 5830 0010            00010 58603  1 7959.                L     TR,CVTPTR           Set CVT pointer for current
 00B522 5830 3000            00000 58604  1 7960.                WITH  (CVT,TR),'L TR,CVTTCBP'    TCB double-words
 USING  CVT,R3
 DROP   CVT,R3
 00B526 5830 3004            00004 58628  1 7961.                L     TR,@TR+4            Set current TCB pointer That's us
 00B52A 5830 300C            0000C 58629  1 7962.                L     TR,@TR+12           TCBTIOT - TIOT pointer
 00B52E D207 B108 3000 00108 00000 58630  1 7963.                MVC   WTOJNAME,@TR        Set jobname for WTO
 00B534 4130 B115            00115 58631  1 7964.                LA    TR,WTOMSG           RECEIVE ADDRESS FOR DATA
 00B538 4120 2011            00011 58632  1 7965.                LA    SR,@SR+17           ADJUST FOR JOBNAME HEADER FIELD
 00B53C 7244/47F0 7248 0B53C 0B510 58633    7966.              END   ELSE,BEGIN          MULT-LINE WTO IN PROGRESS
 00B540 4130 B104            00104 58648  1 7967.                LA    TR,WTOSTAR1         MULTI-LINE RECEIVE ADDRESS
 00B544                            58649    7968.              END   ,
 00B544 4420 7542/D200_      0B83E 58653    7969.              EX    SR,'MVC @TR(0),SEGB' Set message in WTO list
 00B548 4120 2005            00005 58669    7970.              LA    SR,5(,SR)           Full WTO length
 00B54C 4020 B100            00100 58670    7971.              STH   SR,WTOLEN           Set WTO message lenth
 00B550 4132 B100            00100 58671    7972.              LA    TR,WTOBUFF(SR)      POINT TO DESCRIPTOR START
 USING  WTOCODES,R3                58672    7973.              WITH  (WTOCODES,TR),BEGIN ADDRESSABILITY TO DESC AND ROUT
 00B554 D201 B102 74C6 00102 0B7C2 58686  1 7974.                MVC   WTOFLAGS,=X'8000'   Set new formate of WTO expansion
 00B55A D201 3000 74C8 00179 0B7C4 58687  1 7975.                MVC   WTODESC,=X'0400'    SET DESCRIPTOR CODE 6
 00B560 D201 3002 74CA 0017B 0B7C6 58688  1 7976.                MVC   WTOROUTC,=X'4000'   SET ROUTE CODE 2
000B566 1F00/4300 D000             58690  1 7978.                LC    R0,@R13             Load possible MCS console ID
 00B56C 1200/4780 727A             58695  1 7979.                IF    (R0,NZ),BEGIN       MCS console ID in REG0
 00B572 9640 B102      00102       58709  2 7980.                  SET   WTOFID0             SET WTO PARAMETER BIT "REG0"
1VDMP     (VDMP21) (09:46) (22MAR04) ORVYL's File System Dump Program: Print Routines                                       Page  326
0Current Usings:  (WTOCODES,R3) (*,R7) (VIDC,R11)
0Loc    Object Code    Addr1 Addr2  Stmt Lv Lineno    Source Statement           (Hibal 5, Asmedit 3.3)  HLASM R4.0  2004/03/22 09.46
+___    ______ ____    _____ _____  ____ __ ______    ______ _________
000B576                            58715  1 7981.                END   ,
000B576 1F22/4320 D001             58720  1 7983.                LC    SR,@R13+1           SET POSSIBLE MULTI-LINE WTO
 00B57C 1222/4780 7294             58727  1 7984.                IF    (SR,NZ),BEGIN       SET MULTI-LINE WTO FLAG
 00B582 9640 B103      00103       58741  2 7985.                  SET   WTOFMULT            SET MULTI-LINE BIT
 00B586 BEF3 3004            0017D 58747  2 7986.                  STCM  R15,3,WTOTFLG       SET LINE TYPE
 00B58A D201 3006 74CC 0017F 0B7C8 58748  2 7987.                  MVC   WTOLINES,=AL2(1)    SET ONE LINE PASSED
 00B590                            58749  1 7988.                END   ,
000B590 1F22/4320 D002             58754  1 7990.                LC    SR,@R13+2           Set possible descriptor code value
 00B596 1222/4780 72AC             58761  1 7991.                IF    (SR,NZ),BEGIN       Descriptor set, set in WTO list
 00B59C 5840 74B8            0B7B4 58775  2 7992.                  L     QR,=X'00010000'     Set bit in register for shifting
 00B5A0 8840 2000            00000 58776  2 7993.                  SRL   QR,@SR              Shift by register amount
 00B5A4 40403000                   58777  2 7994.                  ST2   QR,WTODESC          Store descriptor code in WTO list
 00B5A8                            58779  1 7995.                END   ,
000B5A8 1F22/4320 D003             58784  1 7997.                LC    SR,@R13+3           Set possible ROUTCDE specification
 00B5AE 1222/4780 72C4             58791  1 7998.                IF    (SR,NZ),BEGIN       Yep - set into WTO parameter list
 00B5B4 5840 74B8            0B7B4 58805  2 7999.                  L     QR,=X'00010000'     Set bit in register for shifting
 00B5B8 8840 2000            00000 58806  2 8000.                  SRL   QR,@SR              Shift by register amount
 00B5BC 40403002                   58807  2 8001.                  ST2   QR,WTOROUTC         Store ROUTCDE in WTO parm list
 00B5C0                            58809  1 8002.                END   ,
000B5C0 9140 B103/47E0_00103       58814  1 8004.                IF    (WTOFMULT,AND,WTOTYPD),BEGIN  SET MESSAGE ID
 00B5D0 BF0E B00D            0000D 58843  2 8005.                  ICM   R0,14,VIDCMSG+1     SET MESSAGE IDENTIFIER
 00B5D4                            58844  1 8006.                END   ,
000B5D4 4110 B100/0A23       00100 58849  1 8008.                WTO   MF=(E,WTOBUFF)      Send the word to a console
 00B5DA 9140 B103/47E0_00103       58853  1 8009.                IF    WTOFMULT,BEGIN      MULTI-LINE WTO PROCESSING
 00B5E2 5010 B00C            0000C 58868  2 8010.                  ST    R1,VIDCMSG          SAVE MESSAGE IDENTIFIER
 00B5E6                            58869  1 8011.                END   ,
 DROP   WTOCODES,R3                58873    8012.              END   ,
000B5E6 4BD0 74CE/9829_      0B7CA 58882    8014.     DWEXIT   VPOP  SR,RAR,*            Restore calling registers
 00B5EE 07F9                       58885    8015.              BR    RAR                 And return to the caller
-
 DROP   *,R7                       58887    8015.2             Drop  BR                  Release VENTER base
1VDMP     (VDMP21) (09:46) (22MAR04) ORVYL's File System Dump Program: Print Routines                                       Page  327
0Current Usings:  (VIDC,R11)
0Loc    Object Code    Addr1 Addr2  Stmt Lv Lineno    Source Statement           (Hibal 5, Asmedit 3.3)  HLASM R4.0  2004/03/22 09.46
+___    ______ ____    _____ _____  ____ __ ______    ______ _________
0                                  58895    8017.     ¿þþþþþþþþþþþþþþþþþþþþþþþþþþþþþþþþþþþþþþþþþþþþþþþþþþþþþþþþþþþþþþþþþþþþþÜ
                                   58896    8018.     Ÿ                                                                     Ÿ
                                   58897    8019.     Ÿ    DCB exit list and exit routine for the seg/write routines        Ÿ
                                   58898    8020.     Ÿ                                                                     Ÿ
                                                      ¾þþþþþþþþþþþþþþþþþþþþþþþþþþþþþþþþþþþþþþþþþþþþþþþþþþþþþþþþþþþþþþþþþþþþþ»
-00B5F0 85                         58900    8023.     OPEXITL  DC    0A(0),X'85'         Define DCB exit list
 00B5F1 00B5F4                     58901    8024.              DC    AL3(OPEXIT)         Address of open exit
0USING  OPEXIT,R15                 58903    8026.              USING OPEXIT,R15          ## Addressability for exit
000B5F4                            58913    8028.     OPEXIT   LABEL ,                   DCB open exit for SYSPRINT
 USING  IHADCB,R1                  58915    8029.              WITH  (IHADCB,R1),BEGIN   DCB ADDRESSABILITY
 00B5F4 4820 1052            00052 58929  1 8030.                LH    SR,DCBLRECL         Get record length
 00B5F8 4120 2004            00004 58930  1 8031.                LA    SR,@SR+4            Bump by 4 for variable output
 00B5FC 4920 103E            0003E 58931  1 8032.                CH    SR,DCBBLKSI         Pass the test?
 00B600 07DE                       58932  1 8033.                BNHR  R14                 It's ok
 00B602 4020 103E            0003E 58933  1 8034.                STH   SR,DCBBLKSI         Set blocksize in DCB
 00B606 07FE                       58934  1 8035.                BR    R14                 Return to system
 DROP   IHADCB,R1                  58935    8036.              END   ,
0DROP   OPEXIT,R15                 58944    8038.              DROP  R15                 ## Release addressability
1VDMP     (VDMP21) (09:46) (22MAR04) ORVYL's File System Dump Program: Print Routines                                       Page  328
0Current Usings:  (VIDC,R11)
0Loc    Object Code    Addr1 Addr2  Stmt Lv Lineno    Source Statement           (Hibal 5, Asmedit 3.3)  HLASM R4.0  2004/03/22 09.46
+___    ______ ____    _____ _____  ____ __ ______    ______ _________
0                                  58952    8040.     ¿þþþþþþþþþþþþþþþþþþþþþþþþþþþþþþþþþþþþþþþþþþþþþþþþþþþþþþþþþþþþþþþþþþþþþÜ
                                   58953    8041.     Ÿ                                                                     Ÿ
                                   58954    8042.     Ÿ  Print initialization subroutine                                    Ÿ
                                   58955    8043.     Ÿ                                                                     Ÿ
                                                      ¾þþþþþþþþþþþþþþþþþþþþþþþþþþþþþþþþþþþþþþþþþþþþþþþþþþþþþþþþþþþþþþþþþþþþþ»
000B608 900E D000/188D_      00000 58957    8046.     VIDCINIT VENTER R0,R14,*           Enter and save registers
 USING  *,R7
 00B614 47F0 700C/0000_      0B620 58977    8047.              GETMAIN RC,LV=L'VIDC      Request memory for work area
 00B62C 12FF/4770 7056             58991    8048.              IF    (R15,Z),BEGIN       Successfull request
 00B632 18B1                       59005  1 8049.                LR    VWRK,R1             Set for addressability
 00B634 1801                       59006  1 8050.                LR    R0,R1               Copy address
 00B636 4110 0181            00181 59007  1 8051.                LA    R1,L'VIDC             And length
 00B63A 1BFF                       59008  1 8052.                CLEAR R15                     For initial
 00B63C 0E0E                       59012  1 8053.                MVCL  R0,R14                    Clearing of work area
 00B63E D203 B000 710C 00000 0B720 59013  1 8054.                MVC   VIDCID,=C'VIDC'     Set work area id for x-check
 00B644 D203 B014 71A4 00014 0B7B8 59014  1 8055.                MVC   SEGLEN(4),=AL2(5,0) Preset zero length buffer
 00B64A 9240 B018      00018       59015  1 8056.                MVI   SEGCC,C' '          Preset skip one line
 00B64E D25F B0A0 71C4 000A0 0B7D8 59016  1 8057.                MVC   PRYNTER(MODOTL),MODPRT  Initialize output DCB
 00B654 9680 B010      00010       59017  1 8058.                OI    OPNLST,X'80'        Set only one DCB
 00B658 D203 B104 719C 00104 0B7B0 59018  1 8059.                MVC   WTOSTAR1,=C'*** '   Initialize WTO list
 00B65E D204 B110 71B9 00110 0B7CD 59019  1 8060.                MVC   WTOSTAR2,=C' *** '  Initialize WTO parameter list
 00B664 50B0 C000            00000 59020  1 8061.                ST    VWRK,@R12           Pass back memory address
 00B668 1BFF                       59021  1 8062.                CLEAR R15                 Set zero return code
 00B66A                            59025    8063.              END
 00B66A 18D8/980E D000_            59029    8064.              VEXIT R0,R14,LTR          Return to caller
 00B674 07F9                       59035    8065.              BR    RAR                 And return to caller
 DROP   *,R7                       59036    8065.1             Drop  BR                  Relase routine base
1VDMP     (VDMP21) (09:46) (22MAR04) ORVYL's File System Dump Program: Print Routines                                       Page  329
0Current Usings:  (VIDC,R11)
0Loc    Object Code    Addr1 Addr2  Stmt Lv Lineno    Source Statement           (Hibal 5, Asmedit 3.3)  HLASM R4.0  2004/03/22 09.46
+___    ______ ____    _____ _____  ____ __ ______    ______ _________
0                                  59044    8067.     ¿þþþþþþþþþþþþþþþþþþþþþþþþþþþþþþþþþþþþþþþþþþþþþþþþþþþþþþþþþþþþþþþþþþþþþÜ
                                   59045    8068.     Ÿ                                                                     Ÿ
                                   59046    8069.     Ÿ  Define work area for CALCTRK and CALCRPS routines                  Ÿ
                                   59047    8070.     Ÿ                                                                     Ÿ
                                                      ¾þþþþþþþþþþþþþþþþþþþþþþþþþþþþþþþþþþþþþþþþþþþþþþþþþþþþþþþþþþþþþþþþþþþþþ»
-
 000000                00000 0000C 59050    8073.     TRKWRK   RECORD BEGIN
                                   59058  1 8075.     TRKLIST    TRKCALC MF=D
 000000                            59059  1 01-TRKCA +           DS    0F                       ALIGN TO FULL WORD BOUNDARY
 000000                            59060  1 01-TRKCA +TRKLIST    DS    0CL12                    STAR PARM LIST MAP
 000000                            59061  1 01-TRKCA +STARUCBA   DS    0F                       UCB ADDRESS
 000000                            59062  1 01-TRKCA +STARDCTA   DS    0F                       DEVICE TABLE ADDRESS
 000000                            59063  1 01-TRKCA +           DS    XL3
 000003                            59064  1 01-TRKCA +STARTYPE   DS    XL1                      DEVICE TYPE
 000004                            59065  1 01-TRKCA +STARFLGS   DS    XL1                      FUNCTION AND OPTIONS
                                   59066  1 01-TRKCA +STARFUNC   EQU   B'10000000'              FUNCTION: 0=TRKBAL, 1=TRKCAP
                                   59067  1 01-TRKCA +STARMAXS   EQU   B'01000000'              1=MAXSIZE REQUESTED
                                   59068  1 01-TRKCA +STARREMV   EQU   B'00100000'              1=REMOVE REQUESTED
                                   59069  1 01-TRKCA +STARUBAL   EQU   B'00010000'              1=CALLER PROVIDED BALANCE
                                   59070  1 01-TRKCA +STARLAST   EQU   B'00001000'              1=SPECIAL LAST RCD REQUEST
                                   59071  1 01-TRKCA +STARDTU    EQU   B'00000110'              DVCT ENTRY SOURCE FLAGS:
                                   59072  1          +*                                       00=DVCT ENTRY ADDRESS PROVIDED
                                   59073  1          +*                                       01=RESERVED
                                   59074  1          +*                                       10=UCB ADDRESS PROVIDED
                                   59075  1          +*                                       11=DEVICE TYPE PROVIDED
                                   59076  1 01-TRKCA +STARLOC    EQU   B'00000001'              LOC=ANY. DEVTAB OR UCB     @L1C
                                   59077  1          +*                                       ABOVE THE LINE             @L1A
 000005                            59078  1 01-TRKCA +           DS    XL1                      RESERVED
 000006                            59079  1 01-TRKCA +STARBAL    DS    H                        TRACK BALANCE
 000008                            59080  1 01-TRKCA +STARRKDD   DS    0F                       RECORD INFO AS DEFINED BELOW
 000008                            59081  1 01-TRKCA +STARR      DS    XL1                      RECORD NUMBER
 000009                            59082  1 01-TRKCA +STARKL     DS    XL1                      KEY LENGTH
 00000A                            59083  1 01-TRKCA +STARDL     DS    H                        DATA LENGTH
 00000C                0000C 0000C 59084    8076.              END   ,
1VDMP     (VDMP21) (09:46) (22MAR04) ORVYL's File System Dump Program: Print Routines                                       Page  330
0Current Usings:  (VIDC,R11)
0Loc    Object Code    Addr1 Addr2  Stmt Lv Lineno    Source Statement           (Hibal 5, Asmedit 3.3)  HLASM R4.0  2004/03/22 09.46
+___    ______ ____    _____ _____  ____ __ ______    ______ _________
0                                  59094    8078.     ¿þþþþþþþþþþþþþþþþþþþþþþþþþþþþþþþþþþþþþþþþþþþþþþþþþþþþþþþþþþþþþþþþþþþþþÜ
                                   59095    8079.     Ÿ                                                                     Ÿ
                                   59096    8080.     Ÿ CALCTRK calculates the number of records/track for a given          Ÿ
                                   59097    8081.     Ÿ        BLKSIZE, and the number of extra blocks/cylinder             Ÿ
                                   59098    8082.     Ÿ        if track overflow were to be used.                           Ÿ
                                   59099    8083.     Ÿ                                                                     Ÿ
                                   59100    8084.     Ÿ Input  R1  Points to DVTAREA and the DEVTYPE has been done          Ÿ
                                   59101    8085.     Ÿ        R0  Has the desired blocksize and key length                 Ÿ
                                   59102    8086.     Ÿ                                                                     Ÿ
                                   59103    8087.     Ÿ Output R1  Has records/track                                        Ÿ
                                   59104    8088.     Ÿ                                                                     Ÿ
                                                      ¾þþþþþþþþþþþþþþþþþþþþþþþþþþþþþþþþþþþþþþþþþþþþþþþþþþþþþþþþþþþþþþþþþþþþþ»
000B676 5090 D000/902C_      00000 59106    8091.     CALCTRK  PROC  TRKWRK              Enter and save calling registers
 USING  *,R7
 USING  TRKWRK-(4+44),R8
 00B686 D70B 8030 8030 00000 00000 59155    8093.              CLEAR TRKLIST             Zero trackcalc workarea
 00B68C 5000 8038            00008 59162    8094.              ST    R0,STARRKDD         Set key and data length
 00B690 9201 8038      00008       59163    8095.              MVI   STARR,1             Set record number
 00B694 1211/47B0 7016             59164    8096.              IF    (R1,M),BEGIN        Passed device type in r1?
 00B69A 1321                       59178  1 8097.                LCR   SR,R1               Yep - move and invert value
 00B69C 701A/47F0 7020 0B69C 0B698 59179    8098.              END   ELSE,BEGIN          Nope - use devtype information
 00B6A0 1F22/4320 1003             59194  1 8099.                WITH  (DVTAREA,R1),'LC SR,DVTUTYPE'    Device type
 USING  DVTAREA,R1
 DROP   DVTAREA,R1
 00B6A6                            59224    8100.              END   ,
 00B6A6 4110 8030/4220_      00000 59228    8101.              TRKCALC  FUNCTN=TRKCAP,TYPE=(SR),MF=(E,TRKLIST)
 00B6BE 1810                       59239    8102.              LR    R1,R0               Answer area
 00B6C0 18D8/982C D004_            59240    8104.              PEND  ,                   Return to caller
 DROP   TRKWRK-(4+44),R8
 DROP   *,R7
1VDMP     (VDMP21) (09:46) (22MAR04) ORVYL's File System Dump Program: Print Routines                                       Page  331
0Current Usings:  (VIDC,R11)
0Loc    Object Code    Addr1 Addr2  Stmt Lv Lineno    Source Statement           (Hibal 5, Asmedit 3.3)  HLASM R4.0  2004/03/22 09.46
+___    ______ ____    _____ _____  ____ __ ______    ______ _________
0                                  59266    8106.     ¿þþþþþþþþþþþþþþþþþþþþþþþþþþþþþþþþþþþþþþþþþþþþþþþþþþþþþþþþþþþþþþþþþþþþþÜ
                                   59267    8107.     Ÿ                                                                     Ÿ
                                   59268    8108.     Ÿ  Calculate RPS values                                               Ÿ
                                   59269    8109.     Ÿ                                                                     Ÿ
                                   59270    8110.     Ÿ  Input  R1  Points to dvtarea and the DEVTYPE has been done         Ÿ
                                   59271    8111.     Ÿ         R0  Has blksize                                             Ÿ
                                   59272    8112.     Ÿ         R14 Length of short first block (including overhead)        Ÿ
                                   59273    8113.     Ÿ         R15 Record number                                           Ÿ
                                   59274    8114.     Ÿ                                                                     Ÿ
                                   59275    8115.     Ÿ  Output R15 has sector number                                       Ÿ
                                   59276    8116.     Ÿ                                                                     Ÿ
                                                      ¾þþþþþþþþþþþþþþþþþþþþþþþþþþþþþþþþþþþþþþþþþþþþþþþþþþþþþþþþþþþþþþþþþþþþþ»
-00B6CE 5090 D000/902C_      00000 59278    8119.     CALCRPS  PROC  TRKWRK              Enter and save registers
 USING  *,R7
 USING  TRKWRK-(4+44),R8
 00B6DE 12FF/4780 7032             59327    8121.              IF    (R15,NZ),BEGIN      Nothing to do for R0 record
 00B6E4 5000 8038            00008 59341  1 8122.                ST    R0,STARRKDD         Set KEY and DATA length
 00B6E8 180F                       59342  1 8123.                LR    R0,R15              Record number in byte 3
 00B6EA BF0C 803A            0000A 59343  1 8124.                ICM   R0,B'1100',STARDL   Data length in bytes 0 & 1
 00B6EE BF02 8039            00009 59344  1 8125.                ICM   R0,B'0010',STARKL   Key length in byte 2
 00B6F2 D701 8036 8036 00006 00006 59345  1 8126.                CLEAR STARBAL             Answer area
 00B6F8 4120 8036            00006 59352  1 8127.                LA    R2,STARBAL          Set pointer
 00B6FC BF28 1003            00003 59353  1 8128.                WITH  (DVTAREA,R1),'ICM R2,B'1000',DVTUTYPE'   Device type
 USING  DVTAREA,R1
 DROP   DVTAREA,R1
 00B700 58F0 0010            00010 59377  1 8129.                L     R15,CVTPTR          CVT Pointer
 00B704 58F0 F0E8            000E8 59378  1 8130.                WITH  (CVT,R15),'L  R15,CVT0SCR1'   Get sector number
 USING  CVT,R15
 DROP   CVT,R15
 00B708 05EF                       59402  1 8131.                BALR  R14,R15             Enter service subroutine
 00B70A 1FFF/43F0 8036             59403  1 8132.                LC    R15,STARBAL         Set track balance
 00B710                            59410    8133.              END   ,
 00B710 18D8/982C D004_            59414    8133.1             PEND  ,
 DROP   TRKWRK-(4+44),R8
 DROP   *,R7
1VDMP     (VDMP21) (09:46) (22MAR04) ORVYL's File System Dump Program: Print Routines                                       Page  332
0Current Usings:  (VIDC,R11)
0Loc    Object Code    Addr1 Addr2  Stmt Lv Lineno    Source Statement           (Hibal 5, Asmedit 3.3)  HLASM R4.0  2004/03/22 09.46
+___    ______ ____    _____ _____  ____ __ ______    ______ _________
0                                  59440    8137.     ¿þþþþþþþþþþþþþþþþþþþþþþþþþþþþþþþþþþþþþþþþþþþþþþþþþþþþþþþþþþþþþþþþþþþþþÜ
                                   59441    8138.     Ÿ                                                                     Ÿ
                                   59442    8139.     Ÿ  Define literal pool                                                Ÿ
                                   59443    8140.     Ÿ                                                                     Ÿ
                                                      ¾þþþþþþþþþþþþþþþþþþþþþþþþþþþþþþþþþþþþþþþþþþþþþþþþþþþþþþþþþþþþþþþþþþþþþ»
-DROP   VIDC,R11                   59445    8143.              DROP  ,                   Release all addressability
000B720                            59482    8145.              LTORG ,                   Define final literal pool
 00B720 E5C9C4C3                   59484                             =C'VIDC'
 00B724 00000000                   59485                             =V(VSEG)
 00B728 00000000                   59486                             =V(VWRITE)
 00B72C 4040404040404040           59487                             =CL132' '
 00B7B0 5C5C5C40                   59488                             =C'*** '
 00B7B4 00010000                   59489                             =X'00010000'
 00B7B8 00050000                   59490                             =AL2(5,0)
 00B7BC D740                       59491                             =C'P '
 00B7BE 0006                       59492                             =H'6'
 00B7C0 0063                       59493                             =AL2(L'WTOMSG-1)
 00B7C2 8000                       59494                             =X'8000'
 00B7C4 0400                       59495                             =X'0400'
 00B7C6 4000                       59496                             =X'4000'
 00B7C8 0001                       59497                             =AL2(1)
 00B7CA 0020                       59498                             =Y((RAR+1-(SR)+16*((SR)/(RAR+1))/((SR)/(RAR+1)))*4)
 00B7CC 40                         59499                             =C' '
 00B7CD 405C5C5C40                 59500                             =C' *** '
-00B848                0B848 0B848 59505    8147.              END   .

1VDMP     (VDMP21) (09:46) (22MAR04) Ordinary Symbol and Literal Cross Reference                                            Page  333
-Symbol   Length   Value     Id    R Type   Defn References                                  HLASM R4.0  2004/03/22 09.46
0$$$@R10       1 00000000 FFFFFFF4     J     842  1133
 $$$@R11       1 00000000 FFFFFFF3     J     855  1146   1158
 $$$@R12       1 00000000 FFFFFFF2     J     868  1171   1183
 $$$@R13       1 00000000 FFFFFFF1     J     881  1196
 $$$@R2        1 00000000 FFFFFFFC     J     738  1017   1029
 $$$@R3        1 00000000 FFFFFFFB     J     751  1042
 $$$@R4        1 00000000 FFFFFFFA     J     764  1055
 $$$@R5        1 00000000 FFFFFFF9     J     777  1068
 $$$@R6        1 00000000 FFFFFFF8     J     790  1081
 $$$@R7        1 00000000 FFFFFFF7     J     803  1094
 $$$@R8        1 00000000 FFFFFFF6     J     816  1107
 $$$@R9        1 00000000 FFFFFFF5     J     829  1120
 $$$C1VDMP
               1 00000570 00000001     J   16954 16956
 $$$C10VDMP
               1 00004A4A 00000001     J   33735 33737  33805  33948  34226  34353
 $$$C11VDMP
               1 00004D28 00000001     J   34479 34481  35196
 $$$C12VDMP
               1 00005A29 00000001     J   38130 38132
 $$$C13VDMP
               1 000068B9 00000001     J   41561 41563  41583
 $$$C14VDMP
               1 00006BD0 00000001     J   42302 42304
 $$$C15VDMP
               1 00006FC4 00000001     J   43280 43282  44848
 $$$C16VDMP
               1 00007A28 00000001     J   45732 45734
 $$$C17VDMP
               1 00008479 00000001     J   48409 48411
 $$$C18VDMP
               1 00008DAB 00000001     J   49950 49952
 $$$C19VDMP
               1 000093B5 00000001     J   51070 51072
 $$$C2VDMP
               1 00000746 00000001     J   17229 17231
 $$$C20VDMP
               1 000099F1 00000001     J   52137 52139  52212  52983
 $$$C21VDMP
               1 0000A47A 00000001     J   54444 54446  54573
 $$$C22VDMP
               1 0000B224 00000001     J   57668 57670  57742  57912  58017  58667  59091
 $$$C23VDMP
               1 0000B844 00000001     J   59501 59503
 $$$C24VDMP
               1 0000B848 00000001     J   59508 59510
 $$$C3VDMP
               1 0000134B 00000001     J   19969 19971
 $$$C4VDMP
               1 000015FE 00000001     J   20782 20784
 $$$C5VDMP
               1 0000185D 00000001     J   21446 21448  22388
 $$$C6VDMP
               1 00001EF0 00000001     J   23452 23454  23924
 $$$C7VDMP
1VDMP     (VDMP21) (09:46) (22MAR04) Ordinary Symbol and Literal Cross Reference                                            Page  334
               1 00002058 00000001     J   24086 24088  24117  25700  25908  26117  26289  26369  26698  26746  26823
                                                 26932
 $$$C8VDMP
               1 00002FB4 00000001     J   27543 27545
 $$$C9VDMP
               1 00003C6D 00000001     J   30508 30510  32261  32465
 $$$DVT        4 00000000 FFFFFFEE     F    1550  1604   1604
 $$$D0VDMP
               1 00000543 00000001     J    1530 15681
 $$$D10VDMP
               1 00004D24 00000001     J   33736 34342
 $$$D13VDMP
               1 00006BA8 00000001     J   41562 41573
 $$$D15VDMP
               1 00007A02 00000001     J   43281 44832
 $$$D20VDMP
               1 0000A474 00000001     J   52138 52972
 $$$D22VDMP
               1 0000B7D2 00000001     J   57669 57686  58006  58656
 $$$D7VDMP
               1 00002F7E 00000001     J   24087 25689  25897  26106  26278  26358  26687  26735  26812  26921
 $$$D9VDMP
               1 00004A3E 00000001     J   30509 32250  32454
 $$$RASKDATA
               1 00000000 FFFFFFA1     J   33748 33804  33804
 $$$RCCWDSECT
               1 00000000 FFFFFFB9     J   13758 13821  13821
 $$$RCOM       1 00000000 FFFFFFED     J    1609  1651   1651
 $$$RCOMAREA
               1 00000000 FFFFFF9D     J   52149 52211  52211
 $$$RDEVNM
               1 00000000 FFFFFFA0     J   33927 33947  33947
 $$$RDOUTREC
               1 00000000 FFFFFFA2     J   24097 24116  24116
 $$$RDRF       1 00000000 FFFFFFAD     J   14210 14265  14265
 $$$RDSNENTRY
               1 00000000 FFFFFFAC     J   14281 14296  14296
 $$$RDWA       1 00000000 FFFFFFA5     J   14581 15670  15670
 $$$RDYNWRK
               1 00000000 FFFFFFA4     J   22373 22387  22387
 $$$RD3990RDC
               1 00000000 FFFFFFB8     J   13838 13936  13936
 $$$RHISTIO
               1 00000000 FFFFFFA8     J   14475 14505  14505
 $$$RHWA       1 00000000 FFFFFF9C     J   54493 54572  54572
 $$$RINCDSN
               1 00000000 FFFFFFAA     J   14356 14375  14375
 $$$RINCPL
               1 00000000 FFFFFFAE     J   14159 14195  14195
 $$$RIOB       1 00000000 FFFFFFBA     J   13586 13745  13745
 $$$RSUBPARM
               1 00000000 FFFFFFAB     J   14302 14340  14340
 $$$RSUBTASK
               1 00000000 FFFFFFA9     J   14387 14463  14463
 $$$RSWA       1 00000000 FFFFFF9E     J   34610 35195  35195
 $$$RTRCBLK
               1 00000000 FFFFFFA7     J   14517 14535  14535
 $$$RTRCTABLE
               1 00000000 FFFFFFA6     J   14547 14564  14564
1VDMP     (VDMP21) (09:46) (22MAR04) Ordinary Symbol and Literal Cross Reference                                            Page  335
 $$$RTRKWRK
               1 00000000 FFFFFF9A     J   59052 59090  59090
 $$$RUPL       1 00000000 FFFFFFA3     J   23855 23923  23923
 $$$RUPS       1 00000000 FFFFFF9F     J   34136 34225  34225
 $$$RVDMPEXIT
               1 00000000 FFFFFFAF     J   14094 14147  14147
 $$$RVIDC      1 00000000 FFFFFF9B     J   57747 57911  57911
 $$$100E       2 00000C4E 00000001     H   18978 18972
 $$$100F       2 00000C5C 00000001     H   18992 18974B
 $$$101F       2 00000C80 00000001     H   19033 19022B
 $$$102E       2 00000C84 00000001     H   19047 19041
 $$$102F       2 00000DBE 00000001     H   19359 19043B
 $$$103F       2 00000CB8 00000001     H   19091 19078B
 $$$104B       4 00000D6C 00000001     I   19243 19308
 $$$104F       2 00000D98 00000001     H   19305 19243B 19307
 $$$105B       4 00000D74 00000001     I   19258 19279
 $$$105F       2 00000D86 00000001     H   19276 19258B 19278
 $$$106E       2 00000D8A 00000001     H   19286 19280
 $$$106F       2 00000D98 00000001     H   19301 19282B
 $$$107E       2 00000D9C 00000001     H   19315 19309
 $$$107F       2 00000DB8 00000001     H   19350 19311B
 $$$108F       2 00000DD6 00000001     H   19403 19390B
 $$$108S       2 00000DC2 00000001     H   19382 19402B
 $$$110F       2 00000E84 00000001     H   19632 19443B 19456B
 $$$112F       2 00000E84 00000001     H   19628 19502B
 $$$112S       2 00000E10 00000001     H   19496 19627B
 $$$114F       2 00000E7C 00000001     H   19622 19528B
 $$$114S       2 00000E1A 00000001     H   19522 19621B
 $$$116F       2 00000E74 00000001     H   19616 19603B
 $$$117F       2 00000F50 00000001     H   19894 19663B
 $$$118B       4 00000E9A 00000001     I   19683 19695
 $$$118F       2 00000EA4 00000001     H   19692 19683B 19694
 $$$119E       2 00000EA8 00000001     H   19702 19696
 $$$119F       2 00000EAE 00000001     H   19708 19698B
 $$$12F        2 000001A8 00000001     H   16114 16090B
 $$$12S        2 00000194 00000001     H   16079 16111B
 $$$120B       4 00000F14 00000001     I   19818 19844
 $$$120F       2 00000F2A 00000001     H   19841 19818B 19843
 $$$121E       2 00000F2E 00000001     H   19851 19845
 $$$121F       2 00000F40 00000001     H   19872 19847B
 $$$122F       2 00001384 00000001     H   20061 20014B
 $$$123F       2 000013D0 00000001     H   20168 20082B
 $$$124F       2 000013E4 00000001     H   20210 20186B
 $$$125F       2 000013FA 00000001     H   20244 20228B
 $$$126F       2 0000141E 00000001     H   20307 20262B
 $$$127F       2 0000141E 00000001     H   20303 20278B
 $$$127S       2 00001404 00000001     H   20272 20302B
 $$$129F       2 00001442 00000001     H   20370 20322B
 $$$130F       2 00001442 00000001     H   20366 20350B
 $$$130S       2 00001428 00000001     H   20344 20365B
 $$$132F       2 00001460 00000001     H   20426 20394B
 $$$132S       2 00001446 00000001     H   20388 20425B
 $$$134F       2 0000147E 00000001     H   20475 20443B
 $$$134S       2 00001464 00000001     H   20437 20474B
 $$$136F       2 0000149C 00000001     H   20522 20506B
 $$$136S       2 00001482 00000001     H   20500 20521B
 $$$138F       2 000014C0 00000001     H   20574 20556B
 $$$140F       2 000014DE 00000001     H   20606 20591B
 $$$142F       2 0000150C 00000001     H   20666 20631B
1VDMP     (VDMP21) (09:46) (22MAR04) Ordinary Symbol and Literal Cross Reference                                            Page  336
 $$$142S       2 000014E6 00000001     H   20625 20665B
 $$$144F       2 00001500 00000001     H   20659 20646B
 $$$145F       2 0000153C 00000001     H   20732 20681B
 $$$146F       2 0000153C 00000001     H   20728 20696B
 $$$148B       1 0000160E 00000001     X   20813 20823U
 $$$149S       2 00001624 00000001     H   20847 21388B
 $$$150S       2 00001626 00000001     H   20854 21355B
 $$$151F       2 0000175A 00000001     H   21193 21113B
 $$$152B       4 0000172E 00000001     I   21126 21146
 $$$152F       2 0000173E 00000001     H   21143 21126B 21145
 $$$153E       2 00001742 00000001     H   21153 21147
 $$$153F       2 0000175A 00000001     H   21189 21149B
 $$$154F       2 0000175A 00000001     H   21185 21170B
 $$$155B       4 0000175E 00000001     I   21208 21258
 $$$155F       2 00001772 00000001     H   21255 21208B 21257
 $$$156F       2 00001772 00000001     H   21251 21235B
 $$$157E       2 00001776 00000001     H   21265 21259
 $$$157F       2 0000179C 00000001     H   21312 21261B
 $$$158F       2 0000179C 00000001     H   21308 21283B 21295B
 $$$16F        2 000001E0 00000001     H   16171 16162B
 $$$164        1 00000060 00000001 A   U   21418 21415  21417
 $$$166B       1 0000186E 00000001     X   21477 21487U
 $$$167F       2 000019CE 00000001     H   21865 21509B
 $$$168B       4 000018F8 00000001     I   21631 21681
 $$$168F       2 00001912 00000001     H   21678 21631B 21680
 $$$169E       2 00001916 00000001     H   21688 21682
 $$$169F       2 0000192C 00000001     H   21732 21684B
 $$$17F        2 0000020C 00000001     H   16204 16195B
 $$$170        1 00000060 00000001 A   U   21890 21887  21889
 $$$172B       1 000019EC 00000001     X   21923 21933U
 $$$173B       4 000019FE 00000001     I   21984 22029
 $$$173F       2 00001A1E 00000001     H   22026 21984B 22028
 $$$174E       2 00001A22 00000001     H   22036 22030
 $$$174F       2 00001A4E 00000001     H   22103 22032B
 $$$175        1 00000060 00000001 A   U   22171 22168  22170
 $$$177B       1 00001A8C 00000001     X   22202 22212U
 $$$178        1 00000060 00000001 A   U   22357 22354  22356
 $$$18F        2 00000228 00000001     H   16240 16231B
 $$$180B       1 00001B1C 00000001     X   22415 22425U
 $$$181S       2 00001C1C 00000001     H   22757 22825B
 $$$184S       2 00001C5C 00000001     H   22843 23228B
 $$$185F       2 00001D48 00000001     H   23207 23102B
 $$$186B       4 00001D1A 00000001     I   23119 23172
 $$$186F       2 00001D38 00000001     H   23169 23119B 23171
 $$$187E       2 00001D3C 00000001     H   23179 23173
 $$$187F       2 00001D48 00000001     H   23203 23175B
 $$$19F        2 0000026C 00000001     H   16348 16274B
 $$$19S        2 00000232 00000001     H   16268 16347B
 $$$190        1 00000074 00000001 A   U   23263 23260  23262
 $$$192B       1 00001D78 00000001     X   23294 23304U
 $$$193F       2 00001DAC 00000001     H   23388 23325B
 $$$194        1 00000060 00000001 A   U   23413 23410  23412
 $$$196B       1 00001F00 00000001     X   23485 23495U
 $$$197F       2 00001F18 00000001     H   23543 23517B 23530B
 $$$197S       2 00001F00 00000001     H   23509 23542B
 $$$200F       2 00001F34 00000001     H   23589 23562B 23575B
 $$$200S       2 00001F1E 00000001     H   23554 23588B
 $$$203        1 00000060 00000001 A   U   23614 23611  23613
 $$$205B       1 00001F52 00000001     X   23649 23659U
1VDMP     (VDMP21) (09:46) (22MAR04) Ordinary Symbol and Literal Cross Reference                                            Page  337
 $$$206F       2 00001F8A 00000001     H   23777 23740B 23759B
 $$$206S       2 00001F6C 00000001     H   23734 23776B
 $$$209F       2 00001F98 00000001     H   23811 23788B
 $$$21B        4 0000023E 00000001     I   16289 16306
 $$$21F        2 0000024C 00000001     H   16303 16289B 16305
 $$$210        1 00000060 00000001 A   U   23836 23833  23835
 $$$212B       1 00001FB6 00000001     X   23949 23959U
 $$$213        1 00000060 00000001 A   U   24081 24078  24080
 $$$215B       1 00002068 00000001     X   24143 24153U
 $$$216        1 00000060 00000001 A   U   24258 24255  24257
 $$$217B       1 00002102 00000001     X   24284 24294U
 $$$22E        2 00000250 00000001     H   16313 16307
 $$$22F        2 00000268 00000001     H   16343 16309B
 $$$223F       2 0000217C 00000001     H   24390 24366B
 $$$225S       2 00002184 00000001     H   24426 24617B
 $$$227F       2 0000222E 00000001     H   24599 24507B
 $$$228B       4 000021FC 00000001     I   24548 24560
 $$$228F       2 00002206 00000001     H   24557 24548B 24559
 $$$229E       2 0000220A 00000001     H   24567 24561
 $$$229F       2 00002210 00000001     H   24573 24563B
 $$$23F        2 00000268 00000001     H   16339 16324B
 $$$232F       2 00002280 00000001     H   24693 24650B
 $$$233F       2 00002280 00000001     H   24689 24665B
 $$$234F       2 000022CA 00000001     H   24783 24711B
 $$$235F       2 000022CA 00000001     H   24779 24726B
 $$$236F       2 00002336 00000001     H   24911 24802B
 $$$237B       4 0000230C 00000001     I   24859 24880
 $$$237F       2 0000231E 00000001     H   24877 24859B 24879
 $$$238E       2 00002322 00000001     H   24887 24881
 $$$238F       2 00002330 00000001     H   24902 24883B
 $$$239F       2 000023B4 00000001     H   25071 24924B
 $$$24B        4 00000278 00000001     I   16391 16414
 $$$24F        2 0000029A 00000001     H   16411 16391B 16413
 $$$240F       2 000023B4 00000001     H   25067 24957B
 $$$241F       2 000023B4 00000001     H   25063 25005B
 $$$242F       2 000023B4 00000001     H   25059 25035B
 $$$243F       2 00002468 00000001     H   25263 25095B
 $$$245F       2 00002500 00000001     H   25368 25335B
 $$$246F       2 0000259A 00000001     H   25544 25458B
 $$$248F       2 0000258C 00000001     H   25512 25497B
 $$$249F       2 0000259A 00000001     H   25540 25525B
 $$$25E        2 0000029E 00000001     H   16421 16415
 $$$25F        2 000002A0 00000001     H   16431 16417B
 $$$250F       2 000025CE 00000001     H   25636 25564B
 $$$251F       2 000025B2 00000001     H   25588 25579B
 $$$252F       2 000025CE 00000001     H   25632 25616B
 $$$255        6 00002F7E 00000001     I   25695 25687X
 $$$256        6 00002F7E 00000001     I   25694 25695  25695
 $$$259S       2 00002616 00000001     H   25774 25984B
 $$$26F        2 000002D0 00000001     H   16485 16468B
 $$$260F       2 000026BE 00000001     H   25970 25798B
 $$$261F       2 000026BA 00000001     H   25965 25813B
 $$$262F       2 0000266E 00000001     H   25866 25842B
 $$$263        6 00002F84 00000001     I   25903 25895X
 $$$264        6 00002F84 00000001     I   25902 25903  25903
 $$$265B       4 00002692 00000001     I   25922 25937
 $$$265F       2 000026A6 00000001     H   25934 25922B 25936
 $$$266E       2 000026AA 00000001     H   25944 25938
 $$$266F       2 000026BA 00000001     H   25953 25940B
1VDMP     (VDMP21) (09:46) (22MAR04) Ordinary Symbol and Literal Cross Reference                                            Page  338
 $$$27S        2 000002D0 00000001     H   16491 16586B
 $$$271        6 00002F8A 00000001     I   26112 26104X
 $$$272        6 00002F8A 00000001     I   26111 26112  26112
 $$$274F       2 00002718 00000001     H   26164 26155B
 $$$275F       2 00002728 00000001     H   26187 26178B
 $$$276F       2 00002738 00000001     H   26210 26201B
 $$$278F       2 00002750 00000001     H   26252 26242B
 $$$279F       2 00002760 00000001     H   26270 26260B
 $$$28F        2 00000318 00000001     H   16572 16507B
 $$$280        6 00002F90 00000001     I   26284 26276X
 $$$281        6 00002F90 00000001     I   26283 26284  26284
 $$$283F       2 00002782 00000001     H   26332 26322B
 $$$284F       2 00002792 00000001     H   26350 26340B
 $$$285        6 00002F96 00000001     I   26364 26356X
 $$$286        6 00002F96 00000001     I   26363 26364  26364
 $$$288F       2 000027B2 00000001     H   26416 26407B
 $$$29S        2 000002E6 00000001     H   16517 16535B
 $$$290F       2 000027C8 00000001     H   26462 26453B
 $$$293B       4 000027EA 00000001     I   26529 26541
 $$$293F       2 000027F4 00000001     H   26538 26529B 26540
 $$$294E       2 000027F8 00000001     H   26548 26542
 $$$294F       2 0000282A 00000001     H   26582 26544B
 $$$296B       4 00002836 00000001     I   26617 26635
 $$$296F       2 0000283E 00000001     H   26632 26617B 26634
 $$$297E       2 00002842 00000001     H   26642 26636
 $$$297F       2 00002846 00000001     H   26655 26638B
 $$$299        6 00002F9C 00000001     I   26693 26685X
 $$$300        6 00002F9C 00000001     I   26692 26693  26693
 $$$301B       4 0000285A 00000001     I   26706 26723
 $$$301F       2 00002862 00000001     H   26720 26706B 26722
 $$$302E       2 00002866 00000001     H   26730 26724
 $$$302F       2 0000286A 00000001     H   26751 26726B
 $$$303        6 00002FA2 00000001     I   26741 26733X
 $$$304        6 00002FA2 00000001     I   26740 26741  26741
 $$$306F       2 0000289C 00000001     H   26828 26785B
 $$$307        6 00002FA8 00000001     I   26818 26810X
 $$$308        6 00002FA8 00000001     I   26817 26818  26818
 $$$310F       2 000028B0 00000001     H   26871 26862B
 $$$312F       2 000028D6 00000001     H   26937 26905B
 $$$313        6 00002FAE 00000001     I   26927 26919X
 $$$314        6 00002FAE 00000001     I   26926 26927  26927
 $$$316F       2 00002902 00000001     H   27007 26971B
 $$$317F       2 00002994 00000001     H   27211 27059B
 $$$319B       1 00002FC4 00000001     X   27574 27581U
 $$$32F        2 00000318 00000001     H   16568 16552B
 $$$320F       2 000030E8 00000001     H   27923 27621B
 $$$320S       2 00002FE2 00000001     H   27615 27922B
 $$$322B       4 0000301C 00000001     I   27699 27730
 $$$322F       2 00003038 00000001     H   27727 27699B 27729
 $$$323E       2 0000303C 00000001     H   27737 27731
 $$$323F       2 000030E0 00000001     H   27912 27733B
 $$$324        1 00000060 00000001 A   U   27941 27938  27940
 $$$326B       1 00003106 00000001     X   27973 27980U
 $$$327B       4 0000310C 00000001     I   28000 28236
 $$$327F       2 000031BE 00000001     H   28233 28000B 28235
 $$$328B       4 00003114 00000001     I   28015 28201
 $$$328F       2 0000319E 00000001     H   28198 28015B 28200
 $$$329F       2 00003148 00000001     H   28072 28048B
 $$$330F       2 0000319E 00000001     H   28186 28118B
1VDMP     (VDMP21) (09:46) (22MAR04) Ordinary Symbol and Literal Cross Reference                                            Page  339
 $$$331F       2 00003194 00000001     H   28169 28160B
 $$$332E       2 000031A2 00000001     H   28208 28202
 $$$332F       2 000031BE 00000001     H   28229 28204B
 $$$333E       2 000031C2 00000001     H   28243 28237
 $$$333F       2 000031FC 00000001     H   28295 28239B
 $$$334F       2 000031E8 00000001     H   28268 28259B
 $$$335F       2 000031F8 00000001     H   28290 28280B
 $$$336F       2 0000322C 00000001     H   28348 28321B 28336B
 $$$338        1 00000060 00000001 A   U   28537 28534  28536
 $$$339F       2 00003572 00000001     H   29299 28712B 28777B
 $$$340B       1 000032E4 00000001     X   28568 28575U
 $$$341F       2 000033A8 00000001     H   28720 28595B
 $$$342F       2 000033A8 00000001     H   28716 28657B
 $$$343F       2 000033F8 00000001     H   28781 28755B
 $$$345F       2 000034C6 00000001     H   29046 28833B 28848B
 $$$347F       2 00003460 00000001     H   28914 28874B
 $$$347S       2 00003436 00000001     H   28868 28913B
 $$$349F       2 0000345C 00000001     H   28909 28899B
 $$$35F        2 00000352 00000001     H   16640 16623B
 $$$350F       2 000034A4 00000001     H   29021 28984B
 $$$350S       2 00003480 00000001     H   28978 29020B
 $$$352F       2 0000356C 00000001     H   29273 29060B 29075B
 $$$354F       2 00003506 00000001     H   29141 29101B
 $$$354S       2 000034DC 00000001     H   29095 29140B
 $$$356F       2 00003502 00000001     H   29136 29126B
 $$$357F       2 0000354A 00000001     H   29248 29211B
 $$$357S       2 00003526 00000001     H   29205 29247B
 $$$359        1 00000060 00000001 A   U   29308 29305  29307
 $$$36S        2 00000358 00000001     H   16651 16685B
 $$$361B       1 00003590 00000001     X   29339 29346U
 $$$362F       2 000035FA 00000001     H   29473 29406B
 $$$363F       2 000035E2 00000001     H   29439 29422B
 $$$364B       4 000035FE 00000001     I   29491 29527
 $$$364F       2 00003620 00000001     H   29524 29491B 29526
 $$$365E       2 00003624 00000001     H   29534 29528
 $$$365F       2 00003642 00000001     H   29564 29530B
 $$$366        1 00000060 00000001 A   U   29601 29598  29600
 $$$368B       1 00003678 00000001     X   29641 29648U
 $$$369B       4 0000368C 00000001     I   29680 29876
 $$$369F       2 00003766 00000001     H   29873 29680B 29875
 $$$37F        2 00000362 00000001     H   16670 16660B
 $$$370F       2 00003712 00000001     H   29842 29696B
 $$$371E       2 0000376A 00000001     H   29883 29877
 $$$371F       2 000037AE 00000001     H   29911 29879B
 $$$372        1 00000060 00000001 A   U   29936 29933  29935
 $$$374B       1 000037CC 00000001     X   29967 29974U
 $$$375F       2 00003804 00000001     H   30036 30012B
 $$$376        1 00000060 00000001 A   U   30096 30093  30095
 $$$378B       1 00003872 00000001     X   30127 30134U
 $$$379        1 00000060 00000001 A   U   30197 30194  30196
 $$$381B       1 000038AE 00000001     X   30235 30242U
 $$$382F       2 000038E0 00000001     H   30303 30279B
 $$$384        1 00000060 00000001 A   U   30347 30344  30346
 $$$386B       1 00003922 00000001     X   30378 30385U
 $$$387        1 00000060 00000001 A   U   30452 30449  30451
 $$$388B       1 00003C7A 00000001     X   30541 30548U
 $$$389F       2 00003CC2 00000001     H   30634 30603B
 $$$390F       2 00003CC2 00000001     H   30630 30620B
 $$$391F       2 00003CD4 00000001     H   30661 30651B
1VDMP     (VDMP21) (09:46) (22MAR04) Ordinary Symbol and Literal Cross Reference                                            Page  340
 $$$392F       2 00003DF0 00000001     H   30928 30880B
 $$$393B       4 00003E26 00000001     I   30963 31038
 $$$393F       2 00003E66 00000001     H   31035 30963B 31037
 $$$394E       2 00003E6A 00000001     H   31045 31039
 $$$394F       2 00003E7E 00000001     H   31064 31041B
 $$$395F       2 00003ECC 00000001     H   31167 31086B
 $$$396F       2 00003ECC 00000001     H   31163 31102B
 $$$397F       2 00003ECC 00000001     H   31159 31118B
 $$$398F       2 00003ECC 00000001     H   31155 31132B
 $$$399S       2 00003ECC 00000001     H   31180 31260B
 $$$40F        2 00000378 00000001     H   16715 16701B
 $$$400S       2 00003ED8 00000001     H   31195 31237B
 $$$401F       2 00003EF8 00000001     H   31221 31204B
 $$$407F       2 000041C8 00000001     H   31928 31425B
 $$$408B       4 00004026 00000001     I   31453 31628
 $$$408F       2 000040B6 00000001     H   31625 31453B 31627
 $$$409E       2 000040BA 00000001     H   31635 31629
 $$$409F       2 000041C8 00000001     H   31924 31631B
 $$$41F        2 000003AC 00000001     H   16770 16752B
 $$$410F       2 000041C8 00000001     H   31920 31889B
 $$$411F       2 0000428C 00000001     H   32174 31943B
 $$$412F       2 0000428C 00000001     H   32170 31958B
 $$$413F       2 0000428C 00000001     H   32161 31997B
 $$$417        6 00004A3E 00000001     I   32256 32248X
 $$$418        6 00004A3E 00000001     I   32255 32256  32256
 $$$42F        2 0000041A 00000001     H   16865 16841B
 $$$426        6 00004A44 00000001     I   32460 32452X
 $$$427        6 00004A44 00000001     I   32459 32460  32460
 $$$43F        2 00000680 00000001     H   17070 17057B
 $$$431F       2 00004356 00000001     H   32564 32555B
 $$$432F       2 00004366 00000001     H   32587 32578B
 $$$433F       2 00004376 00000001     H   32610 32601B
 $$$44B        1 00000748 00000001     X   17254 17261U
 $$$442F       2 00004478 00000001     H   33099 33090B
 $$$45F        2 0000075C 00000001     H   17293 17281B
 $$$451F       2 0000452C 00000001     H   33345 33326B
 $$$453F       2 0000454A 00000001     H   33396 33361B 33375B
 $$$457B       1 00004A56 00000001     X   33818 33828U
 $$$458B       1 00004BD4 00000001     X   33970 33980U
 $$$459S       2 00004BFC 00000001     H   34041 34092B
 $$$46B        4 00000760 00000001     I   17317 17570
 $$$46F        2 00000832 00000001     H   17567 17317B 17569
 $$$460B       4 00004C02 00000001     I   34050 34067
 $$$460F       2 00004C10 00000001     H   34064 34050B 34066
 $$$461E       2 00004C14 00000001     H   34074 34068
 $$$461F       2 00004C1C 00000001     H   34081 34070B
 $$$464S       2 00004C6A 00000001     H   34282 34419B
 $$$465F       2 00004CC6 00000001     H   34402 34319B
 $$$466        4 00004D24 00000001     I   34348 34340X
 $$$467        4 00004D24 00000001     I   34347 34348  34348
 $$$468F       2 00004CC6 00000001     H   34390 34361B
 $$$469F       2 00004CC6 00000001     H   34386 34377B
 $$$47F        2 000007B8 00000001     H   17404 17332B
 $$$473F       2 00004DC6 00000001     H   35291 35252B
 $$$474F       2 00004E0A 00000001     H   35383 35373B
 $$$475F       2 00004F3E 00000001     H   35560 35520B
 $$$476F       2 00004F3E 00000001     H   35556 35538B
 $$$477F       2 00004FBA 00000001     H   35693 35625B
 $$$478F       2 00004FBA 00000001     H   35689 35640B
1VDMP     (VDMP21) (09:46) (22MAR04) Ordinary Symbol and Literal Cross Reference                                            Page  341
 $$$479F       2 000051CA 00000001     H   36293 35728B
 $$$479S       2 00004FC6 00000001     H   35722 36292B
 $$$48B        4 000007CA 00000001     I   17427 17490
 $$$48F        2 000007F6 00000001     H   17487 17427B 17489
 $$$481B       4 00004FDE 00000001     I   35769 35983
 $$$481F       2 000050C2 00000001     H   35980 35769B 35982
 $$$481T       2 00004FE2 00000001     H   35772 35759B
 $$$483F       2 000050C2 00000001     H   35976 35786B
 $$$484F       2 00005044 00000001     H   35854 35811B
 $$$485E       2 000050C6 00000001     H   35990 35984
 $$$485F       2 000050CA 00000001     H   35996 35986B
 $$$486F       2 000051BE 00000001     H   36281 36037B
 $$$487F       2 000051BE 00000001     H   36277 36055B
 $$$488F       2 000052A2 00000001     H   36656 36358B
 $$$488S       2 000051CA 00000001     H   36321 36655B
 $$$489F       2 000051D8 00000001     H   36345 36333B
 $$$49B        4 000007D2 00000001     I   17442 17462
 $$$49F        2 000007E4 00000001     H   17459 17442B 17461
 $$$492B       4 000051EA 00000001     I   36388 36428
 $$$492F       2 00005200 00000001     H   36425 36388B 36427
 $$$493F       2 00005200 00000001     H   36421 36403B
 $$$494E       2 00005204 00000001     H   36435 36429
 $$$494F       2 0000520E 00000001     H   36458 36431B
 $$$496F       2 00005230 00000001     H   36502 36474B
 $$$496S       2 00005216 00000001     H   36467 36501B
 $$$499F       2 00005278 00000001     H   36635 36528B
 $$$499S       2 00005230 00000001     H   36521 36634B
 $$$50E        2 000007E8 00000001     H   17469 17463
 $$$50F        2 000007F6 00000001     H   17483 17465B
 $$$501F       2 00005250 00000001     H   36565 36552B
 $$$505F       2 000052F8 00000001     H   36763 36679B
 $$$506B       4 000052C0 00000001     I   36704 36724
 $$$506F       2 000052D2 00000001     H   36721 36704B 36723
 $$$507E       2 000052D6 00000001     H   36731 36725
 $$$507F       2 000052E4 00000001     H   36745 36727B
 $$$508F       2 00005348 00000001     H   36880 36780B
 $$$509S       2 0000530A 00000001     H   36790 36871B
 $$$51E        2 000007FA 00000001     H   17497 17491
 $$$51F        2 00000808 00000001     H   17511 17493B
 $$$510F       2 0000531C 00000001     H   36817 36802B
 $$$511F       2 0000533C 00000001     H   36855 36828B
 $$$514F       2 00005366 00000001     H   36928 36906B
 $$$516B       4 0000536A 00000001     I   36940 37136
 $$$516F       2 00005438 00000001     H   37133 36940B 37135
 $$$517F       2 000053AC 00000001     H   36998 36990B
 $$$518F       2 00005438 00000001     H   37129 37045B
 $$$519E       2 0000543C 00000001     H   37143 37137
 $$$519F       2 00005600 00000001     H   37683 37139B
 $$$52F        2 00000832 00000001     H   17563 17522B
 $$$520F       2 00005478 00000001     H   37221 37166B
 $$$522F       2 0000545A 00000001     H   37199 37181B
 $$$523F       2 000054A4 00000001     H   37284 37232B
 $$$524F       2 000054A4 00000001     H   37280 37271B
 $$$525S       2 00005562 00000001     H   37494 37604B
 $$$526S       2 00005574 00000001     H   37520 37579B
 $$$53E        2 00000836 00000001     H   17577 17571
 $$$53F        2 0000086C 00000001     H   17643 17573B
 $$$531F       2 00005634 00000001     H   37760 37713B
 $$$532F       2 00005634 00000001     H   37749 37739B
1VDMP     (VDMP21) (09:46) (22MAR04) Ordinary Symbol and Literal Cross Reference                                            Page  342
 $$$533F       2 00005644 00000001     H   37784 37772B
 $$$534F       2 000056DE 00000001     H   37957 37892B
 $$$535B       1 00005716 00000001     X   38023 38030U
 $$$536F       2 00005722 00000001     H   38056 38047B
 $$$537B       1 00005A36 00000001     X   38154 38164U
 $$$538B       4 00005A56 00000001     I   38205 38220
 $$$538F       2 00005A5E 00000001     H   38215 38192B 38205B 38217
 $$$539B       4 00005A4C 00000001     I   38192 38218
 $$$54B        4 00000848 00000001     I   17598 17618
 $$$54F        2 0000085A 00000001     H   17615 17598B 17617
 $$$540E       2 00005A62 00000001     H   38227 38219  38221
 $$$540F       2 00005A66 00000001     H   38234 38223B
 $$$541F       2 00005A74 00000001     H   38259 38249B
 $$$543B       4 00005BD8 00000001     I   38459 38477
 $$$543F       2 00005BFE 00000001     H   38474 38459B 38476
 $$$544E       2 00005C02 00000001     H   38484 38478
 $$$544F       2 00005C06 00000001     H   38490 38480B
 $$$545B       4 00005C8E 00000001     I   38542 38554
 $$$545F       2 00005C96 00000001     H   38551 38542B 38553
 $$$546E       2 00005C9A 00000001     H   38561 38555
 $$$546F       2 00005C9E 00000001     H   38567 38557B
 $$$547F       2 00005E7C 00000001     H   38937 38674B
 $$$548F       2 00005E74 00000001     H   38921 38693B
 $$$549B       4 00005F04 00000001     I   39013 39044
 $$$549F       2 00005F12 00000001     H   39041 39013B 39043
 $$$55E        2 0000085E 00000001     H   17625 17619
 $$$55F        2 0000086C 00000001     H   17639 17621B
 $$$550E       2 00005F16 00000001     H   39051 39045
 $$$550F       2 00005F64 00000001     H   39144 39047B
 $$$551F       2 00005F64 00000001     H   39140 39068B
 $$$552B       4 00005F6C 00000001     I   39168 39193
 $$$552F       2 00005F78 00000001     H   39190 39168B 39192
 $$$553E       2 00005F7C 00000001     H   39200 39194
 $$$553F       2 00005F94 00000001     H   39256 39196B
 $$$554F       2 00005F94 00000001     H   39252 39230B
 $$$554T       2 00005F8C 00000001     H   39233 39218B
 $$$556F       2 00005FA4 00000001     H   39278 39268B
 $$$557F       2 00006016 00000001     H   39410 39320B 39400B
 $$$559F       2 0000606C 00000001     H   39508 39424B
 $$$56F        2 0000088E 00000001     H   17688 17666B
 $$$560F       2 00006064 00000001     H   39501 39442B
 $$$561F       2 0000613E 00000001     H   39786 39740B
 $$$562B       4 0000612A 00000001     I   39757 39769
 $$$562F       2 00006134 00000001     H   39766 39757B 39768
 $$$563E       2 00006138 00000001     H   39776 39770
 $$$563F       2 0000613E 00000001     H   39782 39772B
 $$$564B       1 00006166 00000001     X   39890 39900U
 $$$565F       2 000061AC 00000001     H   39985 39938B
 $$$565S       2 00006176 00000001     H   39929 39984B
 $$$567F       2 0000619C 00000001     H   39977 39967B
 $$$568B       1 000061C2 00000001     X   40018 40028U 42083U
 $$$569B       4 000061C6 00000001     I   40065 40077
 $$$569F       2 000061CE 00000001     H   40074 40065B 40076
 $$$57F        2 000008AC 00000001     H   17744 17708B
 $$$570E       2 000061D2 00000001     H   40084 40078
 $$$570F       2 0000624A 00000001     H   40234 40080B
 $$$571B       4 000061E8 00000001     I   40107 40122
 $$$571F       2 000061EE 00000001     H   40119 40107B 40121
 $$$572E       2 000061F2 00000001     H   40129 40123
1VDMP     (VDMP21) (09:46) (22MAR04) Ordinary Symbol and Literal Cross Reference                                            Page  343
 $$$572F       2 0000620A 00000001     H   40170 40125B
 $$$573F       2 000061FE 00000001     H   40148 40138B
 $$$574F       2 0000620A 00000001     H   40166 40156B
 $$$577F       2 00006256 00000001     H   40265 40256B
 $$$578F       2 00006346 00000001     H   40578 40277B
 $$$579F       2 00006346 00000001     H   40574 40289B
 $$$58F        2 000008A6 00000001     H   17736 17724B
 $$$580F       2 00006346 00000001     H   40570 40307B
 $$$581F       2 00006370 00000001     H   40607 40595B
 $$$582F       2 000063A0 00000001     H   40654 40636B
 $$$585B       4 000063A4 00000001     I   40672 40810
 $$$585F       2 0000644A 00000001     H   40807 40672B 40809
 $$$586F       2 000063BC 00000001     H   40714 40704B
 $$$588F       2 0000644A 00000001     H   40803 40730B
 $$$589F       2 00006414 00000001     H   40779 40745B
 $$$59F        2 000008BC 00000001     H   17775 17766B
 $$$590E       2 0000644E 00000001     H   40817 40811
 $$$590F       2 000064F6 00000001     H   41018 40813B
 $$$591B       4 00006452 00000001     I   40834 40963
 $$$591F       2 000064BA 00000001     H   40960 40834B 40962
 $$$592F       2 0000648A 00000001     H   40895 40873B
 $$$593F       2 000064B2 00000001     H   40948 40908B
 $$$594F       2 000064B2 00000001     H   40944 40932B
 $$$595E       2 000064BE 00000001     H   40970 40964
 $$$595F       2 000064DA 00000001     H   41005 40966B
 $$$596F       2 000064DA 00000001     H   41001 40989B
 $$$597B       4 000064FA 00000001     I   41032 41083
 $$$597F       2 00006526 00000001     H   41080 41032B 41082
 $$$599F       2 00006522 00000001     H   41075 41065B
 $$$60F        2 000008CC 00000001     H   17799 17790B
 $$$600E       2 0000652A 00000001     H   41090 41084
 $$$600F       2 00006568 00000001     H   41185 41086B
 $$$602B       4 00006538 00000001     I   41123 41136
 $$$602F       2 00006540 00000001     H   41133 41123B 41135
 $$$603E       2 00006544 00000001     H   41143 41137
 $$$603F       2 00006548 00000001     H   41149 41139B
 $$$605F       2 000065A2 00000001     H   41309 41202B
 $$$606F       2 000065A2 00000001     H   41305 41287B
 $$$606T       2 00006598 00000001     H   41290 41274B
 $$$608F       2 000065BE 00000001     H   41367 41334B 41349B
 $$$61F        2 000008DC 00000001     H   17823 17814B
 $$$611B       1 000068CA 00000001     X   41608 41618U
 $$$612F       2 00006A06 00000001     H   42068 41653B 41665B
 $$$612T       2 000068E2 00000001     H   41668 41641B
 $$$615B       4 00006900 00000001     I   41732 41753
 $$$615F       2 00006912 00000001     H   41750 41732B 41752
 $$$616E       2 00006916 00000001     H   41760 41754
 $$$616F       2 00006924 00000001     H   41787 41756B
 $$$617B       4 0000695E 00000001     I   41840 41862
 $$$617F       2 00006970 00000001     H   41858 41840B 41861
 $$$618B       4 00006978 00000001     I   41878 41900
 $$$618E       2 00006974 00000001     H   41869 41863
 $$$618F       2 0000698A 00000001     H   41896 41865B 41878B 41899
 $$$62F        2 000008EC 00000001     H   17847 17838B
 $$$620B       4 00006992 00000001     I   41916 41938
 $$$620E       2 0000698E 00000001     H   41907 41901
 $$$620F       2 000069A4 00000001     H   41934 41903B 41916B 41937
 $$$622B       4 000069AC 00000001     I   41954 41976
 $$$622E       2 000069A8 00000001     H   41945 41939
1VDMP     (VDMP21) (09:46) (22MAR04) Ordinary Symbol and Literal Cross Reference                                            Page  344
 $$$622F       2 000069BE 00000001     H   41972 41941B 41954B 41975
 $$$624E       2 000069C2 00000001     H   41983 41977
 $$$624F       2 000069D8 00000001     H   42010 41979B 41992B
 $$$626F       2 00006A02 00000001     H   42057 42026B
 $$$627        1 00000060 00000001 A   U   42094 42091  42093
 $$$628B       1 00006A26 00000001     X   42127 42137U
 $$$629F       2 00006A94 00000001     H   42227 42218B
 $$$63F        2 00000904 00000001     H   17893 17879B
 $$$63S        2 000008EC 00000001     H   17859 17892B
 $$$630B       1 00006BDC 00000001     X   42337 42347U
 $$$631S       2 00006C06 00000001     H   42386 42406B
 $$$634F       2 00006C5C 00000001     H   42455 42446B
 $$$635S       2 00006CA4 00000001     H   42484 42829B
 $$$636B       4 00006CB8 00000001     I   42505 42613
 $$$636F       2 00006CF4 00000001     H   42610 42505B 42612
 $$$637F       2 00006CD4 00000001     H   42568 42521B 42550B
 $$$637S       2 00006CBC 00000001     H   42515 42567B
 $$$640F       2 00006CF4 00000001     H   42606 42578B
 $$$641E       2 00006CF8 00000001     H   42620 42614
 $$$641F       2 00006D14 00000001     H   42686 42616B
 $$$642F       2 00006D14 00000001     H   42682 42633B
 $$$642S       2 00006CF8 00000001     H   42627 42681B
 $$$644F       2 00006D0C 00000001     H   42669 42659B
 $$$645F       2 00006D80 00000001     H   42812 42716B
 $$$646B       4 00006D52 00000001     I   42762 42784
 $$$646F       2 00006D68 00000001     H   42777 42735B 42749B 42762B 42779
 $$$647B       4 00006D3E 00000001     I   42735 42780
 $$$648B       4 00006D48 00000001     I   42749 42782
 $$$649E       2 00006D6C 00000001     H   42791 42781  42783  42785
 $$$649F       2 00006D80 00000001     H   42808 42787B
 $$$65F        2 00000918 00000001     H   17922 17912B
 $$$652B       1 00006E28 00000001     X   42991 43001U
 $$$653F       2 00006E80 00000001     H   43100 43029B
 $$$653S       2 00006E2C 00000001     H   43023 43099B
 $$$655B       4 00006E40 00000001     I   43052 43070
 $$$655F       2 00006E48 00000001     H   43067 43052B 43069
 $$$656E       2 00006E4C 00000001     H   43077 43071
 $$$656F       2 00006E78 00000001     H   43094 43073B
 $$$657F       2 00006EEC 00000001     H   43230 43127B
 $$$657S       2 00006E98 00000001     H   43121 43229B
 $$$659B       1 00006FD0 00000001     X   43299 43309U
 $$$66F        2 0000096A 00000001     H   18008 17944B
 $$$661F       2 00007064 00000001     H   43447 43437B
 $$$662F       2 00007078 00000001     H   43481 43471B
 $$$663F       2 000070A4 00000001     H   43517 43500B
 $$$664F       2 000070F0 00000001     H   43573 43556B
 $$$665B       4 00007118 00000001     I   43639 43656
 $$$665F       2 0000712E 00000001     H   43653 43639B 43655
 $$$666E       2 00007132 00000001     H   43663 43657
 $$$666F       2 0000713E 00000001     H   43670 43659B
 $$$668F       2 00007208 00000001     H   43915 43905B
 $$$67F        2 000009D6 00000001     H   18120 18028B
 $$$67S        2 00000970 00000001     H   18019 18119B
 $$$671F       2 000072DE 00000001     H   44187 44035B
 $$$673B       4 000072AA 00000001     I   44084 44149
 $$$673F       2 000072C6 00000001     H   44146 44084B 44148
 $$$674B       4 000072B6 00000001     I   44105 44123
 $$$674F       2 000072BE 00000001     H   44120 44105B 44122
 $$$676E       2 000072C2 00000001     H   44130 44124
1VDMP     (VDMP21) (09:46) (22MAR04) Ordinary Symbol and Literal Cross Reference                                            Page  345
 $$$676F       2 000072C6 00000001     H   44142 44126B
 $$$678E       2 000072CA 00000001     H   44156 44150
 $$$678F       2 000072CE 00000001     H   44168 44152B
 $$$680S       2 000072FA 00000001     H   44251 44275B
 $$$683B       4 00007338 00000001     I   44327 44347
 $$$683F       2 0000734A 00000001     H   44344 44327B 44346
 $$$684E       2 0000734E 00000001     H   44354 44348
 $$$684F       2 0000735C 00000001     H   44368 44350B
 $$$685F       2 0000739E 00000001     H   44447 44436B
 $$$685S       2 0000738A 00000001     H   44428 44446B
 $$$687F       2 00007448 00000001     H   44672 44569B
 $$$688B       4 0000740A 00000001     I   44584 44604
 $$$688F       2 0000741C 00000001     H   44601 44584B 44603
 $$$689E       2 00007420 00000001     H   44611 44605
 $$$689F       2 00007448 00000001     H   44668 44607B
 $$$69F        2 000009AE 00000001     H   18079 18055B
 $$$690B       4 00007424 00000001     I   44623 44643
 $$$690F       2 00007436 00000001     H   44640 44623B 44642
 $$$691E       2 0000743A 00000001     H   44650 44644
 $$$691F       2 00007448 00000001     H   44664 44646B
 $$$692B       1 000074E8 00000001     X   44861 44871U
 $$$693F       2 0000752C 00000001     H   44911 44901B
 $$$694B       4 00007530 00000001     I   44934 45071
 $$$694F       2 000075E4 00000001     H   45068 44934B 45070
 $$$695F       2 00007552 00000001     H   44962 44949B
 $$$696F       2 0000757E 00000001     H   44995 44973B
 $$$697F       2 000075A6 00000001     H   45027 45006B
 $$$698F       2 000075E4 00000001     H   45064 45038B
 $$$699E       2 000075E8 00000001     H   45078 45072
 $$$699F       2 000075EC 00000001     H   45084 45074B
 $$$7F         2 00000048 00000001     H   15772 15761B
 $$$70F        2 000009F0 00000001     H   18150 18140B
 $$$700F       2 00007618 00000001     H   45136 45104B
 $$$701F       2 00007618 00000001     H   45132 45120B
 $$$702F       2 0000764A 00000001     H   45189 45149B
 $$$703F       2 00007634 00000001     H   45177 45164B
 $$$704B       4 0000764E 00000001     I   45206 45296
 $$$704F       2 000076B6 00000001     H   45293 45206B 45295
 $$$705B       4 00007656 00000001     I   45221 45270
 $$$705F       2 00007696 00000001     H   45267 45221B 45269
 $$$706F       2 00007696 00000001     H   45263 45247B
 $$$706S       2 00007672 00000001     H   45241 45262B
 $$$708E       2 0000769A 00000001     H   45277 45271
 $$$708F       2 000076B6 00000001     H   45289 45273B
 $$$709E       2 000076BA 00000001     H   45303 45297
 $$$709F       2 000076F4 00000001     H   45359 45299B
 $$$71F        2 00000A06 00000001     H   18174 18164B
 $$$710F       2 000076EA 00000001     H   45353 45339B
 $$$711B       4 000077A2 00000001     I   45457 45545
 $$$711F       2 000077F6 00000001     H   45542 45457B 45544
 $$$712E       2 000077FA 00000001     H   45552 45546
 $$$712F       2 0000785A 00000001     H   45673 45548B
 $$$713F       2 0000785A 00000001     H   45669 45565B
 $$$715F       2 0000785A 00000001     H   45665 45580B
 $$$716B       1 00007A34 00000001     X   45753 45763U
 $$$717B       4 00007A42 00000001     I   45784 46273
 $$$717F       2 00007C62 00000001     H   46270 45784B 46272
 $$$718F       2 00007A94 00000001     H   45827 45814B
 $$$719F       2 00007AA2 00000001     H   45847 45838B
1VDMP     (VDMP21) (09:46) (22MAR04) Ordinary Symbol and Literal Cross Reference                                            Page  346
 $$$72B        4 00000A40 00000001     I   18210 18284
 $$$72F        2 00000A7C 00000001     H   18281 18210B 18283
 $$$720F       2 00007B1C 00000001     H   45961 45858B
 $$$721F       2 00007B18 00000001     H   45956 45944B
 $$$721S       2 00007B04 00000001     H   45941 45955B
 $$$723F       2 00007B96 00000001     H   46040 45972B
 $$$724F       2 00007B96 00000001     H   46036 46010B
 $$$725B       4 00007BB0 00000001     I   46070 46214
 $$$725F       2 00007C0C 00000001     H   46211 46070B 46213
 $$$726E       2 00007C10 00000001     H   46221 46215
 $$$726F       2 00007C1C 00000001     H   46229 46217B
 $$$727E       2 00007C66 00000001     H   46280 46274
 $$$727F       2 00007C6A 00000001     H   46287 46276B
 $$$728B       1 00007C80 00000001     X   46319 46329U
 $$$729F       2 00007C98 00000001     H   46377 46360B
 $$$73E        2 00000A80 00000001     H   18291 18285
 $$$73F        2 00000AAC 00000001     H   18331 18287B
 $$$730B       4 00007CC4 00000001     I   46443 46487
 $$$730F       2 00007CE8 00000001     H   46484 46443B 46486
 $$$731F       2 00007CE8 00000001     H   46480 46462B
 $$$731S       2 00007CCE 00000001     H   46455 46479B
 $$$733E       2 00007CEC 00000001     H   46494 46488
 $$$733F       2 00007D20 00000001     H   46563 46490B
 $$$734B       4 00007CF8 00000001     I   46510 46537
 $$$734F       2 00007D10 00000001     H   46534 46510B 46536
 $$$735E       2 00007D14 00000001     H   46544 46538
 $$$735F       2 00007D20 00000001     H   46559 46540B
 $$$736F       2 00007D3A 00000001     H   46604 46594B
 $$$737F       2 00007E5A 00000001     H   46928 46887B
 $$$737S       2 00007D48 00000001     H   46620 46927B
 $$$738F       2 00007D92 00000001     H   46685 46675B
 $$$739B       4 00007DB6 00000001     I   46721 46741
 $$$739F       2 00007DCA 00000001     H   46738 46721B 46740
 $$$74F        2 00000AC2 00000001     H   18388 18354B
 $$$740E       2 00007DCE 00000001     H   46748 46742
 $$$740F       2 00007E30 00000001     H   46874 46744B
 $$$742F       2 00007E56 00000001     H   46923 46913B
 $$$743B       4 00007E5E 00000001     I   46944 46956
 $$$743F       2 00007E66 00000001     H   46953 46944B 46955
 $$$744E       2 00007E6A 00000001     H   46963 46957
 $$$744F       2 00007E6E 00000001     H   46969 46959B
 $$$745B       1 00007E86 00000001     X   46994 47004U
 $$$746F       2 00007EF6 00000001     H   47123 47105B
 $$$747B       1 00008088 00000001     X   47589 47599U
 $$$748B       4 0000818A 00000001     I   47840 47915
 $$$748F       2 000081CA 00000001     H   47912 47840B 47914
 $$$749E       2 000081CE 00000001     H   47922 47916
 $$$749F       2 000081E2 00000001     H   47941 47918B
 $$$75F        2 00000AC2 00000001     H   18384 18372B
 $$$750F       2 000081F6 00000001     H   48000 47987B
 $$$751F       2 00008294 00000001     H   48225 48151B
 $$$752S       2 00008268 00000001     H   48161 48216B
 $$$753F       2 00008288 00000001     H   48200 48173B
 $$$756F       2 000082A4 00000001     H   48267 48257B
 $$$758B       1 0000847C 00000001     X   48438 48445U
 $$$759F       2 000084BA 00000001     H   48516 48492B
 $$$76F        2 00000DC2 00000001     H   19368 18417B
 $$$76S        2 00000AC2 00000001     H   18395 19367B
 $$$76T        2 00000AD4 00000001     H   18420 18406B
1VDMP     (VDMP21) (09:46) (22MAR04) Ordinary Symbol and Literal Cross Reference                                            Page  347
 $$$760F       2 00008524 00000001     H   48667 48557B
 $$$761B       4 000084D8 00000001     I   48575 48617
 $$$761F       2 00008506 00000001     H   48614 48575B 48616
 $$$762E       2 0000850A 00000001     H   48624 48618
 $$$762F       2 00008524 00000001     H   48663 48620B
 $$$763F       2 0000854A 00000001     H   48705 48681B
 $$$764F       2 00008650 00000001     H   48982 48740B
 $$$765B       4 00008564 00000001     I   48755 48797
 $$$765F       2 00008592 00000001     H   48794 48755B 48796
 $$$766E       2 00008596 00000001     H   48804 48798
 $$$766F       2 00008650 00000001     H   48978 48800B
 $$$767B       4 000085AA 00000001     I   48820 48861
 $$$767F       2 000085D4 00000001     H   48858 48820B 48860
 $$$768E       2 000085D8 00000001     H   48868 48862
 $$$768F       2 00008646 00000001     H   48969 48864B
 $$$769B       4 000085F6 00000001     I   48892 48919
 $$$769F       2 00008616 00000001     H   48916 48892B 48918
 $$$770E       2 0000861A 00000001     H   48926 48920
 $$$770F       2 00008646 00000001     H   48965 48922B
 $$$771F       2 00008676 00000001     H   49018 48994B
 $$$772F       2 000086F0 00000001     H   49149 49043B
 $$$772S       2 0000867A 00000001     H   49037 49148B
 $$$774F       2 000086CE 00000001     H   49114 49090B
 $$$775F       2 0000885C 00000001     H   49501 49207B
 $$$781F       2 000087D8 00000001     H   49353 49336B
 $$$782F       2 00008804 00000001     H   49403 49390B
 $$$784F       2 0000883E 00000001     H   49463 49439B
 $$$785F       2 000088AA 00000001     H   49587 49553B
 $$$785S       2 0000887C 00000001     H   49547 49586B
 $$$787F       2 00008956 00000001     H   49731 49700B
 $$$788F       2 000089AE 00000001     H   49788 49757B
 $$$789F       2 000089E2 00000001     H   49835 49804B
 $$$79F        2 00000B0A 00000001     H   18497 18450B
 $$$790B       1 00008DB8 00000001     X   49972 49982U
 $$$791F       2 00008EA8 00000001     H   50139 50068B
 $$$792F       2 00008EA2 00000001     H   50131 50108B
 $$$8F         2 00000094 00000001     H   15831 15820B
 $$$80F        2 00000B0A 00000001     H   18493 18469B
 $$$804B       4 00008F08 00000001     I   50261 50276
 $$$804F       2 00008F12 00000001     H   50273 50261B 50275
 $$$805E       2 00008F16 00000001     H   50283 50277
 $$$805F       2 00008F32 00000001     H   50321 50279B
 $$$806F       2 00008F32 00000001     H   50317 50295B
 $$$807F       2 00008F66 00000001     H   50409 50379B
 $$$807S       2 00008F52 00000001     H   50373 50408B
 $$$809F       2 00008FC4 00000001     H   50499 50421B
 $$$81B        4 00000B18 00000001     I   18527 18612
 $$$81F        2 00000B4C 00000001     H   18607 18515B 18527B 18609
 $$$810S       2 00008F7E 00000001     H   50457 50476B
 $$$811B       1 0000908A 00000001     X   50682 50692U
 $$$817F       2 000090E8 00000001     H   50785 50762B
 $$$82B        4 00000B10 00000001     I   18515 18610
 $$$824F       2 0000914C 00000001     H   50889 50865B
 $$$826F       2 000091AA 00000001     H   50977 50954B
 $$$827S       2 000091AC 00000001     H   50983 51002B
 $$$828B       1 000093C2 00000001     X   51096 51106U
 $$$83B        4 00000B24 00000001     I   18548 18575
 $$$83F        2 00000B38 00000001     H   18572 18548B 18574
 $$$830B       4 000093DE 00000001     I   51145 51163
1VDMP     (VDMP21) (09:46) (22MAR04) Ordinary Symbol and Literal Cross Reference                                            Page  348
 $$$830F       2 00009404 00000001     H   51160 51145B 51162
 $$$831E       2 00009408 00000001     H   51170 51164
 $$$831F       2 0000940C 00000001     H   51176 51166B
 $$$832B       4 00009494 00000001     I   51230 51242
 $$$832F       2 0000949C 00000001     H   51239 51230B 51241
 $$$833E       2 000094A0 00000001     H   51249 51243
 $$$833F       2 000094A4 00000001     H   51255 51245B
 $$$834B       4 000094F0 00000001     I   51290 51303
 $$$834F       2 000094FA 00000001     H   51300 51290B 51302
 $$$835E       2 000094FE 00000001     H   51310 51304
 $$$835F       2 00009504 00000001     H   51317 51306B
 $$$836F       2 00009512 00000001     H   51337 51328B
 $$$837F       2 00009676 00000001     H   51604 51382B
 $$$838B       1 0000968A 00000001     X   51625 51635U
 $$$839F       2 000096DE 00000001     H   51716 51702B
 $$$84E        2 00000B3C 00000001     H   18582 18576
 $$$84F        2 00000B4C 00000001     H   18603 18578B
 $$$840F       2 0000975C 00000001     H   51817 51776B
 $$$842F       2 0000973A 00000001     H   51801 51792B
 $$$844S       2 0000975C 00000001     H   51831 51892B
 $$$846F       2 0000978C 00000001     H   51872 51860B
 $$$847B       1 000097F8 00000001     X   51944 51954U
 $$$848F       2 0000982A 00000001     H   51990 51967B
 $$$848S       2 000097FC 00000001     H   51962 51989B
 $$$85E        2 00000B50 00000001     H   18619 18611  18613
 $$$85F        2 00000B8A 00000001     H   18721 18615B
 $$$850F       2 00009844 00000001     H   52013 51998B
 $$$851F       2 00009A28 00000001     H   52288 52276B
 $$$852F       2 00009AD8 00000001     H   52463 52376B
 $$$853B       4 00009AA6 00000001     I   52403 52418
 $$$853F       2 00009AB2 00000001     H   52415 52403B 52417
 $$$854E       2 00009AB6 00000001     H   52425 52419
 $$$854F       2 00009AD8 00000001     H   52459 52421B
 $$$855F       2 00009B06 00000001     H   52504 52478B
 $$$856F       2 00009B58 00000001     H   52600 52520B
 $$$857S       2 00009B9A 00000001     H   52665 53057B
 $$$858F       2 00009CC8 00000001     H   53053 52687B
 $$$86F        2 00000B8A 00000001     H   18717 18631B
 $$$860F       2 00009BF0 00000001     H   52750 52724B
 $$$861F       2 00009CC8 00000001     H   53049 52762B
 $$$862B       4 00009C06 00000001     I   52800 52847
 $$$862F       2 00009C2C 00000001     H   52844 52800B 52846
 $$$863E       2 00009C30 00000001     H   52854 52848
 $$$863F       2 00009CC8 00000001     H   53045 52850B
 $$$864        6 0000A474 00000001     I   52978 52970X
 $$$865        6 0000A474 00000001     I   52977 52978  52978
 $$$866B       4 00009E28 00000001     I   53332 53365
 $$$866F       2 00009E44 00000001     H   53362 53332B 53364
 $$$867E       2 00009E48 00000001     H   53372 53366
 $$$867F       2 00009E56 00000001     H   53386 53368B
 $$$868B       4 00009F3A 00000001     I   53591 53632
 $$$868F       2 00009F5C 00000001     H   53629 53591B 53631
 $$$869E       2 00009F60 00000001     H   53639 53633
 $$$869F       2 00009FA6 00000001     H   53705 53635B
 $$$87F        2 00000B6E 00000001     H   18683 18657B
 $$$87S        2 00000B5A 00000001     H   18640 18680B
 $$$870B       4 00009FEC 00000001     I   53791 53832
 $$$870F       2 0000A010 00000001     H   53829 53791B 53831
 $$$871E       2 0000A014 00000001     H   53839 53833
1VDMP     (VDMP21) (09:46) (22MAR04) Ordinary Symbol and Literal Cross Reference                                            Page  349
 $$$871F       2 0000A056 00000001     H   53899 53835B
 $$$872B       4 0000A076 00000001     I   53943 53984
 $$$872F       2 0000A098 00000001     H   53981 53943B 53983
 $$$873E       2 0000A09C 00000001     H   53991 53985
 $$$873F       2 0000A144 00000001     H   54235 53987B
 $$$874F       2 0000A144 00000001     H   54231 54004B
 $$$874S       2 0000A09C 00000001     H   53998 54230B
 $$$876B       4 0000A0D8 00000001     I   54079 54144
 $$$876F       2 0000A104 00000001     H   54141 54079B 54143
 $$$877B       4 0000A0E0 00000001     I   54094 54115
 $$$877F       2 0000A0F2 00000001     H   54112 54094B 54114
 $$$878E       2 0000A0F6 00000001     H   54122 54116
 $$$878F       2 0000A104 00000001     H   54137 54118B
 $$$879E       2 0000A108 00000001     H   54151 54145
 $$$879F       2 0000A12C 00000001     H   54204 54147B
 $$$880B       1 0000A47C 00000001     X   54601 54608U
 $$$881B       4 0000A49A 00000001     I   54663 54684
 $$$881F       2 0000A4AC 00000001     H   54680 54663B 54683
 $$$882B       4 0000A4B4 00000001     I   54700 54720
 $$$882E       2 0000A4B0 00000001     H   54691 54685
 $$$882F       2 0000A4C6 00000001     H   54717 54687B 54700B 54719
 $$$884E       2 0000A4CA 00000001     H   54727 54721
 $$$884F       2 0000A4D8 00000001     H   54741 54723B
 $$$886B       4 0000A510 00000001     I   54805 54819
 $$$886F       2 0000A518 00000001     H   54815 54805B 54818
 $$$887B       4 0000A520 00000001     I   54835 54848
 $$$887E       2 0000A51C 00000001     H   54826 54820
 $$$887F       2 0000A528 00000001     H   54845 54822B 54835B 54847
 $$$889E       2 0000A52C 00000001     H   54855 54849
 $$$889F       2 0000A530 00000001     H   54862 54851B
 $$$890F       2 0000A544 00000001     H   54902 54885B
 $$$891F       2 0000A582 00000001     H   54956 54932B
 $$$892F       2 0000A600 00000001     H   55077 55045B
 $$$893S       2 0000A600 00000001     H   55083 55358B
 $$$894B       4 0000A646 00000001     I   55172 55216
 $$$894F       2 0000A66C 00000001     H   55213 55172B 55215
 $$$895E       2 0000A670 00000001     H   55223 55217
 $$$895F       2 0000A6B8 00000001     H   55327 55219B
 $$$896F       2 0000A6B8 00000001     H   55323 55236B
 $$$896S       2 0000A670 00000001     H   55230 55322B
 $$$9F         2 000000CA 00000001     H   15897 15873B
 $$$900F       2 0000A764 00000001     H   55506 55468B
 $$$901F       2 0000A820 00000001     H   55712 55552B
 $$$902F       2 0000A7D4 00000001     H   55632 55614B
 $$$903F       2 0000A7EA 00000001     H   55661 55643B
 $$$904F       2 0000A90C 00000001     H   55999 55985B
 $$$905F       2 0000A924 00000001     H   56028 56014B
 $$$906F       2 0000AAF4 00000001     H   56659 56066B
 $$$906S       2 0000A924 00000001     H   56059 56658B
 $$$908F       2 0000A938 00000001     H   56098 56088B
 $$$909F       2 0000A942 00000001     H   56118 56108B
 $$$91F        2 00000B78 00000001     H   18704 18695B
 $$$910B       4 0000A944 00000001     I   56126 56370
 $$$910F       2 0000AA08 00000001     H   56367 56126B 56369
 $$$911F       2 0000A9EA 00000001     H   56333 56199B
 $$$911S       2 0000A97E 00000001     H   56193 56332B
 $$$913F       2 0000AA08 00000001     H   56363 56344B
 $$$914E       2 0000AA0C 00000001     H   56377 56371
 $$$914F       2 0000AAE4 00000001     H   56638 56373B
1VDMP     (VDMP21) (09:46) (22MAR04) Ordinary Symbol and Literal Cross Reference                                            Page  350
 $$$915F       2 0000AA78 00000001     H   56502 56442B
 $$$916F       2 0000AAC6 00000001     H   56604 56518B
 $$$916S       2 0000AA7E 00000001     H   56512 56603B
 $$$918F       2 0000AAE4 00000001     H   56634 56615B
 $$$919F       2 0000AB94 00000001     H   56817 56784B
 $$$92B        4 00000B8C 00000001     I   18732 18747
 $$$92F        2 00000B96 00000001     H   18744 18732B 18746
 $$$924F       2 0000AC18 00000001     H   56918 56885B
 $$$926F       2 0000AC3E 00000001     H   56984 56972B
 $$$926S       2 0000AC28 00000001     H   56966 56983B
 $$$928S       2 0000AE00 00000001     H   57462 57518B
 $$$93E        2 00000B9A 00000001     H   18754 18748
 $$$93F        2 00000DBE 00000001     H   19363 18750B
 $$$930F       2 0000AE18 00000001     H   57492 57482B
 $$$936B       1 0000B230 00000001     X   57942 57949U
 $$$937F       2 0000B266 00000001     H   58026 57959B
 $$$938F       2 0000B266 00000001     H   58022 57972B
 $$$939F       2 0000B24E 00000001     H   57994 57984B
 $$$94B        4 00000B9E 00000001     I   18766 19040
 $$$94F        2 00000C80 00000001     H   19037 18766B 19039
 $$$940        6 0000B838 00000001     I   58012 58004X
 $$$941        6 0000B838 00000001     I   58011 58012  58012
 $$$942B       1 0000B27A 00000001     X   58056 58063U
 $$$943F       2 0000B2E6 00000001     H   58196 58077B
 $$$944F       2 0000B2CA 00000001     H   58166 58103B
 $$$946F       2 0000B2CA 00000001     H   58162 58119B
 $$$947F       2 0000B2CA 00000001     H   58158 58145B
 $$$949F       2 0000B2E6 00000001     H   58192 58176B
 $$$95B        4 00000BDA 00000001     I   18824 18889
 $$$95F        2 00000C06 00000001     H   18886 18824B 18888
 $$$950B       1 0000B2FC 00000001     X   58234 58241U
 $$$951F       2 0000B3FE 00000001     H   58400 58387B
 $$$952F       2 0000B46E 00000001     H   58464 58422B
 $$$954F       2 0000B506 00000001     H   58586 58577B
 $$$955B       4 0000B50E 00000001     I   58596 58639
 $$$955F       2 0000B53C 00000001     H   58636 58596B 58638
 $$$956E       2 0000B540 00000001     H   58646 58640
 $$$956F       2 0000B544 00000001     H   58652 58642B
 $$$957        6 0000B83E 00000001     I   58662 58654X
 $$$958        6 0000B83E 00000001     I   58661 58662  58662
 $$$959F       2 0000B576 00000001     H   58718 58704B
 $$$96B        4 00000BE2 00000001     I   18839 18860
 $$$96F        2 00000BF4 00000001     H   18857 18839B 18859
 $$$960F       2 0000B590 00000001     H   58752 58736B
 $$$961F       2 0000B5A8 00000001     H   58782 58770B
 $$$962F       2 0000B5C0 00000001     H   58812 58800B
 $$$963F       2 0000B5D4 00000001     H   58847 58826B 58838B
 $$$965F       2 0000B5E6 00000001     H   58872 58863B
 $$$966B       1 0000B614 00000001     X   58968 58975U
 $$$967F       2 0000B66A 00000001     H   59028 59000B
 $$$969B       1 0000B686 00000001     X   59130 59137U
 $$$97E        2 00000BF8 00000001     H   18867 18861
 $$$97F        2 00000C06 00000001     H   18882 18863B
 $$$970B       4 0000B696 00000001     I   59173 59185
 $$$970F       2 0000B69C 00000001     H   59182 59173B 59184
 $$$971E       2 0000B6A0 00000001     H   59192 59186
 $$$971F       2 0000B6A6 00000001     H   59227 59188B
 $$$972        1 0000006C 00000001 A   U   59262 59259  59261
 $$$974B       1 0000B6DE 00000001     X   59302 59309U
1VDMP     (VDMP21) (09:46) (22MAR04) Ordinary Symbol and Literal Cross Reference                                            Page  351
 $$$975F       2 0000B710 00000001     H   59413 59336B
 $$$976        1 0000006C 00000001 A   U   59436 59433  59435
 $$$98E        2 00000C0A 00000001     H   18896 18890
 $$$98F        2 00000C26 00000001     H   18931 18892B
 $$$99B        4 00000C38 00000001     I   18951 18971
 $$$99F        2 00000C4A 00000001     H   18968 18951B 18970
 @QR           0 00000000 FFFFFFFA     @    1056 16497  16500M 16512  16521M 16545M 20856  21341  25902  26817M 26926M
                                                 30868  31348  39978  58011M
 @RR           0 00000000 FFFFFFF9     @    1069 20858  34382  39301  39302  39304
 @R0           0 00000000 FFFFFFFE     @     713   989U
 @R1           0 00000000 FFFFFFFD     @     726   985U 16003U 16150M 16151M 16154  16183  16184  16205M 16205  16614
                                                 16615  16666  16710  16732  16776U 16875M 16903  20725U 22021U 22065U
                                                 22098U 22135U 23529  23536  23756  24215U 24522M 24553M 24569M 25094
                                                 25301M 25429U 25483  25694  25748  26111  26235  26247  26253  26265
                                                 26283  26315  26327  26333  26345  26363  26616  26692  26740  26817
                                                 26926  27788U 28623U 28723  28787U 28970U 29015U 29197U 29242U 31268
                                                 32167U 32255  32459  33061  33078  33100  33178  33197  33214  33217
                                                 33221  33325  33360  34056  35437U 37216U 37745M 38374U 39498U 39949U
                                                 40094U 40660U 40721U 40957U 42389  42433M 42434M 42436M 42437M 42438M
                                                 42439  42451M 42465M 42468M 42469M 43399U 43607U 43621  43997U 45126
                                                 45284  46552U 46579  46628U 46649U 46650M 46651  46898  47014  48061U
                                                 48274U 48652U 48885M 48885  48928  49142U 49266U 49416U 49496U 49736M
                                                 49737M 49737  49738  50054M 50234U 50342  50358U 50450U 51296M 51313M
                                                 51824U 52692  52965M 52965  52977M 54324  56999U 58011  58470U 58538
                                                 58941U 59222U 59375U
 @R10          0 00000000 FFFFFFF4     @     843   949U 48339U
 @R11          0 00000000 FFFFFFF3     @     856   945U 48334U 54398U 57576U 59457U
 @R12          0 00000000 FFFFFFF2     @     869   941U 34569U 48329U 52057U 54391U 57571U 58478M 58478  59020M
 @R13          0 00000000 FFFFFFF1     @     882   937U 15721M 15766  15825  16405M 16407  16543M 16544M 16544  16562
                                                 16564  17078M 20763  20765  33271M 33272  35217M 37797  37798  48009M
                                                 52231M 52282  52283  53174  53175  54309M 54372  58588M 58589  58694
                                                 58725  58759  58789
 @R14          0 00000000 FFFFFFF0     @     895   933U 16454  16455
 @R15          0 00000000 FFFFFFEF     @     908   929U 15900  16467  16616  16646  16671M 17076U 22568U 22626U 26160
                                                 26183  26206  26412  26458  26492  26534  26867  32301  32340  32402
                                                 32503  32560  32583  32606  32656  32695  33269  36158U 36216U 38796U
                                                 38854U 39827U 39867U 40519U 41389U 45231  46665U 46765U 47022U 47521U
                                                 48007U 51485U 51543U 52872U 53641  53841  58949U 59400U 59409U
 @R2           0 00000000 FFFFFFFC     @     739   981U 19415U 19638U 19889U 20334U 20376U 20420U 20469U 20529U 20612U
                                                 22143U 22286U 22326U 22567  22625  22759  22810  22915  23213  23214
                                                 23574  23684U 23704U 23717U 23803U 24396U 25104M 25147  25199  25960U
                                                 27206U 27919U 28193U 29279U 29582U 29917U 30080U 30147  30181U 34017U
                                                 34104U 35286U 35443U 36289U 36923U 36975U 37255U 37755U 38497U 38658U
                                                 38994U 39038U 39290U 39490U 39706U 39993U 41156U 41225U 41238U 41315U
                                                 41688U 41703U 42676U 43237U 43535U 43614U 43954U 44182U 45252M 45253M
                                                 45254M 45255M 45256  46414U 47400U 48712U 49160U 49297U 49612U 50014U
                                                 50365U 50403U 50792U 50896U 51184U 51924U 52608U 53030U 54244U 55033U
                                                 55340U 56034U 56327U 56598U 56946U 56990U 58208U 58726U 58760U 58790U
                                                 59215U
 @R3           0 00000000 FFFFFFFB     @     752   977U 16200M 16359U 16924U 19422U 19645U 22148U 22319U 22922  22981
                                                 23040  23127  23190  23728U 23772U 24053U 25383U 27346U 27821U 28101U
                                                 28181U 29479U 29519U 29559U 30331U 30436U 30578U 34431U 35568U 39646U
                                                 41461U 42105U 42958U 44216U 45564  49167U 49619U 52469U 53037U 55312U
                                                 55709U 56669U 57446U 58626U 58879U
 @R4           0 00000000 FFFFFFFA     @     765   973U 16185M 18113U 22334U 24266U 27828U 28935U 29041U 29162U 29259U
                                                 29470U 33863U 34397U 41467U 42562U 42965U 44825U 46981U 56676U
 @R5           0 00000000 FFFFFFF9     @     778   969U 17210U 21339U 22982U 36299U 38424U 39300U 41473U 42972U 44226U
                                                 44287U 45392U 48030U 48303U 57402U
 @R6           0 00000000 FFFFFFF8     @     791   965U 34587U 48350U 52075U 54470U 57592U
1VDMP     (VDMP21) (09:46) (22MAR04) Ordinary Symbol and Literal Cross Reference                                            Page  352
 @R7           0 00000000 FFFFFFF7     @     804   961U 17217U 19991U 20820U 21404U 21484U 21876U 21930U 22157U 22209U
                                                 22343U 22422U 23249U 23301U 23399U 23492U 23600U 23656U 23822U 23956U
                                                 24067U 24150U 24244U 24291U 27353U 27930U 28526U 29297U 29590U 29925U
                                                 30085U 30186U 30336U 30441U 33825U 33977U 34582U 38161U 39897U 40025U
                                                 41615U 42080U 42134U 42344U 42998U 43306U 44868U 45760U 46326U 47001U
                                                 47596U 48018U 48310U 49979U 50689U 51103U 51632U 51951U 52070U 54318U
                                                 54384U 57587U 58037U 58215U 58892U 59041U 59251U 59425U
 @R8           0 00000000 FFFFFFF6     @     817   957U 23240U 59246U 59420U
 @R9           0 00000000 FFFFFFF5     @     830   953U 38064U
 @SR           0 00000000 FFFFFFFC     @    1030 16081  16151  16172M 16866M 16874  18080M 20638  20660  23686  24219
                                                 25301  29661  29987  30310  30317M 30317  30416M 30417  30418M 30418
                                                 30733  30743  30869  30870  31197  31197  31209M 31209  31210M 31210
                                                 31211M 31211  31222  31356  31357  31358  40580  40642  41157  43538M
                                                 43540M 43542M 43544M 44435  44804  44884  44885M 45178  45949M 45950
                                                 45957M 47402  47456  47675  47676  50462  50469  51966  51975  51982
                                                 51991  52006  52693  56863M 56864M 57487  58632  58776  58806  58930
 @TR           0 00000000 FFFFFFFB     @    1043 16167M 17924  27790  37528  37564  39980  40600  40603M 40608M 40643M
                                                 40650M 40650  40692  40710  51836  51840  51842M 51849M 51849  51880
                                                 51966  51991  58628  58629  58630  58661M
 ABT_RET       1 0000000C FFFFFFFF A   C    1253 21439
 AHLHEAD       1 00000000 00000000 A   T    9808  9808
 AHLVCCR8      1 00000000 00000000 A   T   10299 10299
 AMODE24       2 000001B8 00000001     H   16134 34107B 34467B 44189B
 AMODE31       2 000001B2 00000001     H   16129 33992B 34461B 43999B
 ASKDATA     312 00000000 FFFFFFA1     J   33804 33835  33846U 33866
 ASKDOM        4 00000000 FFFFFFA1     A   33754 33854M
 ASKMOD1       4 00004A9C 00000001     F   33883 33848
 ASKMOD2       4 00004B98 00000001     F   33910 33849
 ASKREP        5 00000004 FFFFFFA1     C   33755 33790  33914
 ASKTASK       4 00004A4A 00000001     I   33810 19924
 ASKW1         4 0000000C FFFFFFA1     F   33759 33848M 33852
 ASKW2         4 00000108 FFFFFFA1     F   33786 33849M
 ASMVT         1 00000000 00000000 A   T   10188 10188
 ATTRCONV      4 0000004C FFFFFFA5     A   14602 31349M 45429  45799
 BIT0          1 00000080 FFFFFFC8 A   U   11380 11397  11420  11421  11674  11701  11749  11753  11754  11836  11856
                                                 11870  11901
 BIT1          1 00000040 FFFFFFC8 A   U   11381 11398  11422  11424  11704  11749  11751  11752  11754  11837  11858
                                                 11871  11903
 BIT2          1 00000020 FFFFFFC8 A   U   11382 11399  11707  11749  11751  11777  11840  11860  11873  11904
 BIT3          1 00000010 FFFFFFC8 A   U   11383 11400  11708  11755  11766  11779  11780  11842  11861  11875  11906
 BIT4          1 00000008 FFFFFFC8 A   U   11384 11401  11710  11767  11781  11786  11787  11843  11862  11877  11909
 BIT5          1 00000004 FFFFFFC8 A   U   11385 11402  11414  11416  11711  11781  11784  11787  11844  11863  11879
                                                 11910
 BIT6          1 00000002 FFFFFFC8 A   U   11386 11403  11406  11427  11428  11712  11770  11846  11849  11864  11880
                                                 11911
 BIT7          1 00000001 FFFFFFC8 A   U   11387 11403  11405  11406  11429  11434  11714  11771  11846  11850  11865
                                                 11881  11912
 BR            7 00000007 FFFFFFFF A   #    1088 15933M 15934B 17079M 17087U 17252M 17261U 19994U 35218M 35226U 48010M
                                                 48021U 48436M 48445U 52232M 52240U 54310M 54321U 54599M 54608U
 BRDDLOOP      2 000076CA 00000001     H   45320 45355B
 BRDSTART      4 000076CE 00000001     I   45325 45317B
 BRR           6 00000006 FFFFFFFF A   #    1075 15722M 15730U 17100M 35344U 48037M 48463U 52249U 52326  54326M 54617U
 BTD           1 00000000 00000009     T   19925 19925  20773  21434  23427  27508  30487  33674  38086  41497  45690
                                                 48378  52100  54412  57625
 BTDC          1 00000000 00000010     T   30473 30473  38097  41511  43270  45705  48386  51053  57635
 BTR           1 00000000 0000000C     T   23428 23428  27493  38083  42292  54418
 BTX           1 00000000 00000008     T   17227 17227  21435  23432  27497  30479  33686  38087  41500  48372  52101
                                                 54414
 BUILDIOB      4 000074DC 00000001     I   44853 45707
1VDMP     (VDMP21) (09:46) (22MAR04) Ordinary Symbol and Literal Cross Reference                                            Page  353
 CALCPOOL      4 00006E1C 00000001     I   42983 43264
 CALCRPS       2 0000B6CE 00000001     H   59282 48383
 CALCTRK       2 0000B676 00000001     H   59110 41508  45700  57634
 CBBRANCH      1 00000000 00000000 A   T   10344 10344
 CBLDPRM       2 0000273A 00000001     H   26219 27419
 CCW           8 00000000 FFFFFFB9 C   U   13771 40041U 45305  45313U
 CCWADDR       4 00000000 FFFFFFB9     A   13764 40087  40186  41159  45326M
 CCWADDR3      3 00000001 FFFFFFB9     R   13766 45369M 45373M 45377M 46431  46474  46635  46648
 CCWCMDCH     64 00000004 FFFFFFB9        13803 40219  41122  45324M 46884
 CCWDSECT      8 00000000 FFFFFFB9     J   13821 13771  46347U
 CCWFLAGS      1 00000004 FFFFFFB9     X   13767 13794  13803  13812
 CCWLEN        2 00000006 FFFFFFB9     H   13769 45354M 45381M
 CCWMT       128 00000000 FFFFFFB9        13785 45349M
 CCWNEXT       1 00000008 FFFFFFB9     U   13770 40228  41129  45325
 CCWOPCDE      1 00000000 FFFFFFB9     X   13765 13785  45328M
 CCWRCKD       1 0000001E FFFFFFB9 A   U   13776 45328
 CCWRKD        1 0000000E FFFFFFB9 A   U   13774 13738  44842
 CCWSIDEQ      1 00000031 FFFFFFB9 A   U   13777 13736  44840
 CCWSS         1 00000023 FFFFFFB9 A   U   13773 13729  13735  44839
 CCWTIC        1 00000008 FFFFFFB9 A   U   13778 13737  44841
 CCWTYPE       1 000001C3 FFFFFFA5     R   14796 14800  14805  14810  14815  14820  43343
 CDAILY        2 000026CC 00000001     H   26001 27401
 CDENTRY       1 00000000 FFFFFFC4     J   11971 31271
 CDMPLVL       2 000027B4 00000001     H   26425 27415
 CDXLMJP       4 00000014 FFFFFFC4     F   11986 31271
 CFILE         2 0000286C 00000001     H   26760 27371
 CHIST         2 000026E4 00000001     H   26062 27377
 CHKESCON      4 00007734 00000001     I   45400 44907B
 CHKMEOD       2 0000984C 00000001     H   52020 49923
 CHKMERGE      4 000097EC 00000001     I   51936 52105
 CHKMXIT       2 00009844 00000001     I   52016 52039B
 CHKM1ST       2 000088CC 00000001     H   49630 49921
 CHKTASK       4 00004BC8 00000001     I   33962 19923
 CIB           1 00000000 FFFFFFEC     J    1655 52388U 52785U
 CIBCONID      1 0000000C FFFFFFEC     C    1741 52818  52856
 CIBDATA       8 00000010 FFFFFFEC     C    1748 52924  52977
 CIBDATLN      2 0000000E FFFFFFEC     H    1747 52923  52961
 CIBSTART      1 00000004 FFFFFFEC A   U    1731 52402
 CIBSTOP       1 00000040 FFFFFFEC A   U    1734 52799
 CIBVERB       1 00000004 FFFFFFEC     C    1730 52402  52799
 CIBVRSN       1 00000003 FFFFFFEC A   U    1746  1742
 CIBX          1 00000000 FFFFFFEB     J    1759  1784
 CIBXEND       1 00000030 FFFFFFEB     U    1783  1784
 CIB15497      1 00000003 FFFFFFEC A   U    1745  1746
 CINCLVL       2 0000279E 00000001     H   26379 27417
 CINCSZ        2 000027E0 00000001     H   26503 27393
 CIORATE       2 000027CA 00000001     H   26471 27403
 CLCKSTRT      8 00000030 FFFFFFA5     D   14591 21564  21567  21762  21823  22121  22274  29392  30768M 30769  53399
                                                 55516
 CLENFNC       2 0000A47A 00000001     H   54593 15911
 CLNHIST       2 0000A592 00000001     H   54973 54858B
 CLRIO         2 000037BC 00000001     H   29949 19938  23431  30484  49926
 CLRNW         2 00003862 00000001     H   30109 30475  49917  57626
 CLWTEMP       8 00000010 FFFFFFA5     D   14590 17165  17976  18251  18780M 18781  18782  19084M 19085  19153  19199
                                                 19779  20129  20911  20957  21008  21078  21561M 21562  21568  21653
                                                 21707  21757M 21758  21766  21827  23357  24742  25168  25221  25818M
                                                 25889  27133  27250  27850M 27851  27853M 27854  27873  28426  28462
                                                 29762  29810  30822  31004  31538  31586  31730  31782  31832  32067
                                                 32115  33078M 33079  33080M 33083  33100M 33101  33214M 33215  33217M
1VDMP     (VDMP21) (09:46) (22MAR04) Ordinary Symbol and Literal Cross Reference                                            Page  354
                                                 33218  33221M 33222  33514M 33524  39540  39587  40350  40425  40467
                                                 40533  41406  43696  43743  43790  43837  44390  44722  44769  45886
                                                 46095  46137  46178  46785  47881  50566  51447  51505  51563  51881M
                                                 51882  52552  52892  53234  54035  54179  55135  55517  55673  55758
                                                 55806  55887  55935  56160  56293  56408  56695  56709  56739  57063
                                                 57138  57213  57280  57361
 CMBFLGS       1 000001CA FFFFFFA5     R   14968 14972  14977  14982  14987
 CNSECT        2 000026DE 00000001     H   26046 27389
 CNT_PRM       1 00000010 FFFFFFFF A   C    1244 24385  25054  27338  28224  48511  54951  56812  56913
 CNTBSET       8 000001C5 FFFFFFA5        14882 25578  25602M 27000M
 CNTBUF       80 00000218 FFFFFFA5     C   15001 24431  24448  24455  27305  27306
 CNTDCB        4 0000092C FFFFFFA5     F   15455 20535  24297  24430  24630  24634
 CNTDCBAX      2 000023BC 00000001     H   25083 24340
 CNTDDFNO      2 00000A72 FFFFFF9E     U   35011 36014
 CNTDDN        8 00000A6C FFFFFF9E     C   35008 35009  35010  35011  35394M 36019  36026
 CNTDDSEG      2 00000A70 FFFFFF9E     U   35010 35997M
 CNTEND      128 000001C5 FFFFFFA5        14862 24614  25628M
 CNTEOD        2 00002236 00000001     H   24625 24338
 CNTERR        2 0000299E 00000001     H   27223 24491B 25477B 25654B 25676B 25719B 25739B 26071B 26091B 26136B 26228B
                                                 26308B 26388B 26434B 26480B 26512B 26600B 26673B 26769B 26846B 26889B
                                                 26955B
 CNTEXLST      4 000003EC FFFFFFA5     A   15048 24341M 24342M 24343M 24344
 CNTFILS      64 000001C5 FFFFFFA5        14867 24664  26795M
 CNTFLG        1 000001C5 FFFFFFA5     R   14858 14862  14867  14872  14877  14882  14887  24411M
 CNTFNO        4 00000A68 FFFFFF9E     A   35007 36003  36024  36025M
 CNTKWR        1 00002A12 00000001     R   27363 24474
 CNTNSEG      16 000001C5 FFFFFFA5        14877 24506  24518M 24589M 25508M 25536M
 CNTNUM        4 0000010C FFFFFFA5     A   14633 24439  24440M 27122  27239
 CNTONL        2 00004C32 00000001     H   34230 34109B
 CNTOPNL       4 000003E8 FFFFFFA5     F   15045 20563  20598  24296M 24349  24628  28726
 CNTSEG       32 000001C5 FFFFFFA5        14872 24595M 25563  25595M 26784  26861  26904  26970
 CNTSKIP       4 000001C5 FFFFFFA5        14887 27023M 27037M 27058
 COM          12 00000000 FFFFFFED     J    1651 52364U 52775U
 COMADDR       4 00000058 FFFFFF9D     A   52171 52324M 53099
 COMAGAIN      2 0000A188 00000001     H   54308 53097  54321U
 COMAREA     893 00000000 FFFFFF9D     J   52211 52257  52292  52319U 53165
 COMATT        4 00000A7C FFFFFFA5     F   15618 18188
 COMBRR        4 00000060 FFFFFF9D     A   52173 52326M 54326
 COMCB         4 0000008C FFFFFF9D     F   52189 52200  53000
 COMCECB       4 00000048 FFFFFF9D     A   52163 52602M 52751  53039
 COMCIB        4 00000044 FFFFFF9D     A   52162 52182  52349  52356  52767
 COMCIBPT      4 00000004 FFFFFFED     A    1638 52368  52410  52454  52492  52508  52777  53023
 COMDWA        4 0000005C FFFFFF9D     A   52172 52325M 54325
 COMECB        4 000000F4 FFFFFFA5     A   14618 15621  18194  20030
 COMECBPT      4 00000000 FFFFFFED     A    1637 52601
 COMEVENT      4 00000040 FFFFFF9D     A   52161 52344M 52671  53070  53159
 COMEXT        4 00000080 FFFFFF9D     A   52182 52348
 COMEYE        4 00000004 FFFFFF9D     C   52156 52331M
 COMFIRE       4 00000014 FFFFFF9D     A   52158 52733  52734M 53223
 COMFLGS       1 000001C4 FFFFFFA5     R   14826 14830  14835  14840  14852
 COMHITS       4 000000F0 FFFFFFA5     A   14617 20118
 COMINT        2 00009FE4 00000001     H   53781 53189
 COMINV        2 0000A156 00000001     H   54257 53195
 COMIOR        2 00009F32 00000001     H   53581 53187
 COMLINE      80 0000032D FFFFFF9D     C   52204 52963  52964M
 COMLOCK       4 000000E8 FFFFFFA5     A   14615 39429  39502  40839  40949  42492  42699  46237  46260  53477  53533
                                                 54331  54362
 COMMCSID      1 0000032C FFFFFF9D     C   52203 52856M 52871  53269  53428  53540  53609  53679  53747  53809  53879
                                                 53961  54209  54274
1VDMP     (VDMP21) (09:46) (22MAR04) Ordinary Symbol and Literal Cross Reference                                            Page  355
 COMQUE        2 00009CCC 00000001     H   53065 52611B 52615B 52619B 52744B 53041B
 COMRATE       2 00009DB4 00000001     H   53204 53191
 COMSAVE       4 00000018 FFFFFF9D     A   52159 52322M 53163
 COMSCAN       1 00009D7C 00000001     R   53185 53012
 COMSTACK      4 0000012C FFFFFF9D     A   52202 52323
 COMSTAT       2 0000A060 00000001     H   53917 53185
 COMSTID       4 00000054 FFFFFF9D     A   52170 53093
 COMSTIM      24 00000068 FFFFFF9D     X   52178 53089  53148
 COMSTIMR      4 0000004C FFFFFF9D     A   52164 52617  52713  52741M 52741  52742  54369
 COMTASK       2 000099F2 00000001     H   52230 19930  52240U
 COMTCB        4 000000F8 FFFFFFA5     A   14619 18293M 20049
 COMTIME       4 00000064 FFFFFF9D     A   52174 52332M 53095  53511  53843M 53853
 COMTSET       2 00009CE2 00000001     H   53084 52621B 52746B
 COMUNL        2 00009FB0 00000001     H   53723 53193
 COMWAIT       4 000000FC FFFFFFA5     A   14620 20023  52613  52694
 COMWORK       8 00000020 FFFFFF9D     D   52160 53337  53397M 53398  53403  53481  53512  53654  53854
 COMXIT        2 00009D22 00000001     H   53112 52596B 52707B
 COMXSTCK      4 000000AC FFFFFF9D     A   52201 54329
 COMXSVA       4 00000050 FFFFFF9D     A   52165 54328M 54371
 CON           2 000028B2 00000001     H   26880 27373
 COPORD        2 000026D2 00000001     H   26016 27399
 CPOOL         2 000025F0 00000001     H   25710 27397
 CRBRANCH      1 00000000 00000000 A   T   10085 10085
 CSECT         2 000026D8 00000001     H   26031 27379
 CSEG          2 00002568 00000001     H   25444 27367
 CSEGMNT       2 00000216 FFFFFFA5     C   15000 24582  25483M 25496  25603M
 CSEQ          2 0000289E 00000001     H   26837 27395
 CSRTABLE      1 00000000 00000000 A   T   10105 10105
 CSTRT         2 000028D8 00000001     H   26946 27375
 CSVARMGR      1 00000000 00000000 A   T   10153 10153
 CSVEXIT       1 00000000 00000000 A   T   10026 10026
 CSVLLCB       1 00000000 00000000 A   T    9626  9626
 CSVLLTRM      1 00000000 00000000 A   T    9627  9627
 CSVMEM        1 00000000 00000000 A   T    9854  9854
 CSVVFGET      1 00000000 00000000 A   T   10418 10418
 CSVVFIND      1 00000000 00000000 A   T   10416 10416
 CTAPE         2 000025D0 00000001     H   25645 27391
 CTAPUNIT      2 00002848 00000001     H   26664 27405
 CTIDRC        2 0000282C 00000001     H   26591 27411
 CTSKLVL       2 00002704 00000001     H   26127 27413
 CVRFPRM       2 0000276C 00000001     H   26299 27421
 CVT           1 00000000 FFFFFFCC     J    9596 27771  58613U 59387U
 CVTBRET       2 00000052 FFFFFFCC     H    9651 10164  10243
 CVTJESCT      4 00000128 FFFFFFCC     V    9868 34462
 CVTMAP        1 00000000 FFFFFFCC     U    9601 23676U 31267  34462
 CVTPTR        1 00000010 FFFFFFCD A   U    9592 27770  34459  58603  59377
 CVTTCBP       4 00000000 FFFFFFCC     V    9603 23678  31267  58619
 CVTVSTGX      1 00000000 FFFFFFCB     J   10616 10480
 CVTXTNT1      1 00000000 FFFFFFCA     J   10655  9823
 CVTXTNT2      1 00000000 FFFFFFC9     J   10663  9893
 CVTZDTAB      4 00000040 FFFFFFCC     A    9641 27771
 CVT0SCR1      4 000000E8 FFFFFFCC     V    9788 59393
 CVT4MS1       1 00000010 FFFFFFCC A   U    9676  9684
 CVT6DAT       1 00000002 FFFFFFCC A   U    9680  9684
 CWHAT         2 00002910 00000001     H   27045 27478
 DALBLKLN      1 00000009 FFFFFFD0 A   U    8014 15170  34957  41531  52115
 DALCDISP      1 00000006 FFFFFFD0 A   U    8011 15169  34956  41530  52114
 DALCLOSE      1 0000001C FFFFFFD0 A   U    8033 15109  15186  15204  30482  34916  35000  38076  41491  49922  51044
                                                 54517
1VDMP     (VDMP21) (09:46) (22MAR04) Ordinary Symbol and Literal Cross Reference                                            Page  356
 DALDCBDS      1 0000002C FFFFFFD0 A   U    8049 15177  34964  41537  52123
 DALDDNAM      1 00000001 FFFFFFD0 A   U    8006 15033  15105  15164  15182  15201  16950  24108  27510  30493  34908
                                                 34951  34998  35005  38101  41519  49930  51058  52109  54515
 DALDSNAM      1 00000002 FFFFFFD0 A   U    8007 15106  15165  15183  15202  30494  34909  34952  34999  38102  41520
                                                 49931  51059  52108  54516
 DALDSSEQ      1 0000001F FFFFFFD0 A   U    8036 15176  34963  41535  52121
 DALDUMMY      1 00000024 FFFFFFD0 A   U    8041 15162  41527  52107
 DALLABEL      1 0000001E FFFFFFD0 A   U    8035 15175  34962  41534  52120
 DALMEMBR      1 00000003 FFFFFFD0 A   U    8008 15166  34953  41528  52111
 DALNDISP      1 00000005 FFFFFFD0 A   U    8010 15108  15168  15184  34911  34955  41522  49933  51061  52113
 DALPRIME      1 0000000A FFFFFFD0 A   U    8015 15171  34913  34958  41523  52116
 DALRETPD      1 00000023 FFFFFFD0 A   U    8040 15179  34966  41538  52124
 DALRLSE       1 0000000D FFFFFFD0 A   U    8018 34915  41490
 DALSECND      1 0000000B FFFFFFD0 A   U    8016 15172  34959  41532  52117
 DALSTATS      1 00000004 FFFFFFD0 A   U    8009 15107  15167  15185  15203  30495  34910  34954  35003  38105  41521
                                                 49932  51060  52110  54518
 DALSYSOU      1 00000018 FFFFFFD0 A   U    8029 15035  16945  24109  27488  35006  38077
 DALTRK        1 00000007 FFFFFFD0 A   U    8012 34912  41489
 DALTRTCH      1 0000004F FFFFFFD0 A   U    8084 15180  34967  41540  52126
 DALUNIT       1 00000015 FFFFFFD0 A   U    8026 15174  34914  34961  35001  38103  41524  52119
 DALVLCNT      1 00000013 FFFFFFD0 A   U    8024 15173  34960  41533  52118
 DALVLSER      1 00000010 FFFFFFD0 A   U    8021 34917  35002  38104  41525
 DAY           4 0000003C FFFFFFA5     F   14594 30789  42438
 DAYF          1 00000000 00000012     T   33671 33671  48389
 DCBBIT0       1 00000080 FFFFFFEA A   U    1801  1926   1934   1948   1970   2012   2014   2015   2017   2037   2040
                                                  2062   2066   2081   2118   2174   2200   2238   2242   2261   2367
 DCBBIT1       1 00000040 FFFFFFEA A   U    1802  1927   1935   1950   1979   1980   1989   1995   2012   2014   2016
                                                  2017   2042   2062   2064   2066   2084   2085   2086   2121   2122
                                                  2174   2202   2244   2246   2264   2309   2368
 DCBBIT2       1 00000020 FFFFFFEA A   U    1803  1928   1936   1951   1952   1953   1979   1980   1984   1990   1995
                                                  2012   2013   2018   2044   2067   2068   2089   2090   2091   2125
                                                  2126   2175   2207   2247   2269   2312   2315   2369
 DCBBIT3       1 00000010 FFFFFFEA A   U    1804  1929   1951   1953   1954   1979   1992   2019   2047   2067   2070
                                                  2093   2094   2095   2129   2130   2175   2209   2211   2213   2249
                                                  2270   2312   2316
 DCBBIT4       1 00000008 FFFFFFEA A   U    1805  1937   1993   1994   1995   2020   2048   2072   2077   2078   2098
                                                  2099   2133   2134   2136   2137   2176   2216   2251   2271   2312
                                                  2317
 DCBBIT5       1 00000004 FFFFFFEA A   U    1806  1938   2000   2023   2024   2050   2072   2074   2075   2078   2102
                                                  2104   2105   2106   2140   2141   2142   2143   2176   2218   2221
                                                  2254   2273   2307
 DCBBIT6       1 00000002 FFFFFFEA A   U    1807  1930   2002   2003   2006   2023   2025   2051   2109   2110   2111
                                                  2112   2146   2147   2148   2149   2177   2224   2256   2275   2318
 DCBBIT7       1 00000001 FFFFFFEA A   U    1808  1931   2002   2004   2006   2027   2056   2114   2115   2152   2153
                                                  2155   2156   2227   2257   2258   2276   2320   2370
 DCBBLKSI      2 0000003E FFFFFFEA     H    2278 35127  35127  35179  35179  50227M 56832M 58931  58933M
 DCBBUFCA      3 00000015 FFFFFFEA     R    1921 35183  35183
 DCBBUFCB      4 00000014 FFFFFFEA     A    1915 15983M 38977M 43385M
 DCBCHECK      4 00000034 FFFFFFEA     A    2198 15986M 38981M
 DCBCMPAC      1 00000008 FFFFFFEA A   U    1887 15180  34967  38611  51365
 DCBDCBE       4 00000000 FFFFFFEA     A    1816  1820
 DCBDDNAM      8 00000028 FFFFFFEA     C    2034 24310M 35123  35123  35181  35181  38365M 38976M 49257M 50177M 50226M
                                                 50741M 50843M 56831M 58538M
 DCBDEBAD      4 0000002C FFFFFFEA     A    2172 35119  35119  35185  35185  56925
 DCBDEVT       1 00000011 FFFFFFEA     C    1911 56998
 DCBDSGDA      1 00000020 FFFFFFEA A   U    1928 43388
 DCBDSGPS      1 00000040 FFFFFFEA A   U    1927 24325  38366  38984  49254  50162  50196  50716  50820  56838
 DCBDSRG1      1 0000001A FFFFFFEA     B    1925 24327M 38366M 38984M 43388M 49256M 50164M 50198M 50718M 50822M 56840M
 DCBEODAD      4 00000020 FFFFFFEA     A    1966 15985M 24339M 38979M 43387M 49259M 49489M 50166M 50443M 50720M
1VDMP     (VDMP21) (09:46) (22MAR04) Ordinary Symbol and Literal Cross Reference                                            Page  357
 DCBEXLSA      3 00000025 FFFFFFEA     R    2029 24346M
 DCBEXLST      4 00000024 FFFFFFEA     A    2010 38986M 43393M
 DCBFDAD       8 00000005 FFFFFFEA     C    1832  1834
 DCBINIT       2 00000112 00000001     H   15968 24309B 38353B 38950B 49228B 50157B 50191B 50711B 50815B 56820B
 DCBIOBA       4 00000044 FFFFFFEA     A    2286 15988M 38982M
 DCBIOBAD      4 0000001C FFFFFFEA     A    1939 15984M 35115  35115  38978M 43386M
 DCBLRECL      2 00000052 FFFFFFEA     H    2342 35125  35125  35177  35177  49409  51763  51803  56833M 58929
 DCBMACR1      1 00000032 FFFFFFEA     B    2080 24337M 43390M 49249M 50187M 50740M
 DCBMACR2      1 00000033 FFFFFFEA     B    2117 38368M 38988M 43391M 50225M 50842M 56854M 56861M
 DCBMRCI       1 00000010 FFFFFFEA A   U    2093 43390  43391
 DCBMRECP      1 00000080 FFFFFFEA A   U    2081 43390
 DCBMRFE       1 00000040 FFFFFFEA A   U    2084 43390
 DCBMRGET      1 00000040 FFFFFFEA A   U    2085 24332  49244  50182  50735
 DCBMRMVG      1 00000010 FFFFFFEA A   U    2094 24335  50185  50738
 DCBMRMVP      1 00000010 FFFFFFEA A   U    2129 38368  38988  49247  50223  50840  56859
 DCBMRPUT      1 00000040 FFFFFFEA A   U    2121 38368  38988  50220  50837  56852
 DCBOFIOF      1 00000001 FFFFFFEA A   U    2056  2058
 DCBOFLGS      1 00000030 FFFFFFEA     B    2036 15996M 20555  20590  24365  28754  35121  35175  36905  37165  38980M
                                                 43389M 48256  50761  50864  51775  56884  58102  58144  58421  58536
 DCBOFOPN      1 00000010 FFFFFFEA A   U    2047 20553  20588  24363  28752  35121  35175  36903  37163  48254  50759
                                                 50862  51773  56882  58100  58142  58419  58536
 DCBOFUEX      1 00000002 FFFFFFEA A   U    2051  2055  15994
 DCBRECAD      4 0000004C FFFFFFEA     A    2358 15989M 38983M
 DCBRECBR      1 00000010 FFFFFFEA A   U    2019 24318  38367  38987  49236  50174  50206  50728  50830
 DCBRECF       1 00000080 FFFFFFEA A   U    2015 24315  38367  50171  50725  50827  56845
 DCBRECFM      1 00000024 FFFFFFEA     B    2011 24320M 35117  35187  35187  38367M 38987M 40635  40703  49238M 49389
                                                 50176M 50208M 50215M 50730M 50832M 51791  56847M
 DCBRECSB      1 00000008 FFFFFFEA A   U    2020 50213  51789
 DCBRECTO      1 00000020 FFFFFFEA A   U    2018 35117
 DCBRECV       1 00000040 FFFFFFEA A   U    2016 38987  40633  40701  49233  49387  50203
 DCBSYNAD      4 00000038 FFFFFFEA     A    2232 15987M
 DCE           1 00000000 FFFFFFBD     J   13228 44028  44077
 DCECACHE      1 00000010 FFFFFFBD A   U   13273 44028
 DCEFEAT1      1 00000010 FFFFFFBD     B   13261 44028
 DCEFSTWT      1 00000004 FFFFFFBD A   U   13308 44077
 DCEXFEAT      1 00000019 FFFFFFBD     B   13302 44077
 DEBACSMD      1 00000000 FFFFFFC1     J   12651 12689  12706  12719  12743  12762  12776  12786  12826
 DEBBASIC      1 00000024 FFFFFFC3     U   12303 41215U 41678U 43988  44205U 56933U
 DEBBASND      1 00000044 FFFFFFC3     U   12457 12582  41217  41680  43988  44218  56940
 DEBBCACH      1 00000004 FFFFFFBF A   U   12977 44162
 DEBDASD       1 00000000 FFFFFFC2     J   12619 41228U 41691U 43996  44238U 56955U
 DEBDEFG1      1 00000028 FFFFFFBF     X   12947 44076M
 DEBDEVED      4 00000048 FFFFFFC3     A   12504 12536
 DEBEOEA       4 00000000 FFFFFFC3     A   12210 12213
 DEBGATTR      1 00000029 FFFFFFBF     X   12951 44116M 44138M 44164M
 DEBICACH      1 00000008 FFFFFFBF A   U   12978 44136
 DEBMCOMP      1 00000008 FFFFFFC3 A   U   12489 12490
 DEBMTRF0      1 00000080 FFFFFFC3 A   U   12485 12495  12498  12499
 DEBMTRF1      1 00000040 FFFFFFC3 A   U   12486 12495  12496  12498  12500
 DEBM3424      1 00000002 FFFFFFC3 A   U   12491 12495  12496
 DEBM9348      1 00000002 FFFFFFC3 A   U   12492 12498  12499  12500
 DEBNMEXT      1 00000034 FFFFFFC3     B   12426 44215  56939
 DEBNMTRK      2 0000000E FFFFFFC2     C   12640 44258  44260  56977  56978
 DEBPREFE      1 00000024 FFFFFFC3     U   12297 45702
 DEBPREFX      4 00000014 FFFFFFC3     A   12273 44042  45702
 DEBSCACH      1 0000000C FFFFFFBF A   U   12979 44114
 DEBUCBA       3 00000001 FFFFFFC2     R   12623 43996
 DEBUCBAD      4 00000000 FFFFFFC2     A   12620 41230  41697
 DEBXEND       1 00000054 FFFFFFBF     U   13056 13057
1VDMP     (VDMP21) (09:46) (22MAR04) Ordinary Symbol and Literal Cross Reference                                            Page  358
 DEBXTN        1 00000000 FFFFFFBF     J   12866 13057  44052U
 DEBXTNP       4 0000001C FFFFFFC3     A   12277 44042
 DEBXVDEF      1 00000040 FFFFFFBF A   U   12949 44074
 DEB2XEND      1 000000B8 FFFFFFBE     U   13112 13113
 DEB2XTN       1 00000000 FFFFFFBE     J   13064 13113
 DEQB          2 000001EE 00000001     H   16179 18707B 19051B 19554B 20875B
 DEV_ERR       1 00000014 FFFFFFFF A   C    1245 24684  36684  37963  38009
 DEVNM        32 00000000 FFFFFFA0     J   33947 34003U
 DEVNMCNT      4 00000000 FFFFFFA0     A   33933 34008
 DEVNMENT      4 00000008 FFFFFFA0     A   33935 34010  34032U 34076
 DEVNMGTP      4 0000001C FFFFFFA0     A   33940 34055
 DEVNMLEN      4 00000004 FFFFFFA0     A   33934 34009
 DEVNMTXT      8 00000008 FFFFFFA0     C   33936 34043
 DEVTABL       4 00000050 FFFFFFA5     A   14603 33993  34465M
 DFAIDTAB      1 00000000 00000000 A   T   10493 10493
 DHIST         2 00001A7C 00000001     H   22184 21440
 DMPIXR      128 000001C9 FFFFFFA5        14962 50092M 50294  51289
 DMPLVL        4 0000011C FFFFFFA5     A   14641 17813  17819M 17901  21696  26200  26452  26458M 31308M 32600  32606M
 DMPSEG        2 00004D90 00000001     H   35216 19928  35226U
 DMPXIT1       2 00005600 00000001     H   37686 35379B
 DMPXIT2       2 0000565A 00000001     H   37796 35279B
 DOCNTL        4 000020F6 00000001     I   24276 19914  49915  57622
 DOINC         2 000030F6 00000001     H   27951 19920
 DONEDUMP      2 000052A2 00000001     H   36665 35850B 36273B 36581B 36606B 37964B 38010B
 DOUTCLAS      2 0000002E FFFFFFA2     R   24109 24192  24218M
 DOUTDDNM      2 00000020 FFFFFFA2     R   24108 24190  24217M 24219M
 DOUTPTR       4 00000000 FFFFFFA2     A   24103 24188M 24189M 24220
 DOUTPTRS      4 00000018 FFFFFFA2     A   24105 24191M 24193M 24194M 24208
 DOUTRB        4 00000004 FFFFFFA2     A   24104 24187  24195  24225
 DOUTREC      50 00000000 FFFFFFA2     J   24116 24167  24178U 24186M 24186  24227
 DOWTO         4 0000B4E6 00000001     I   58565 58483B 58490B
 DRF          20 00000000 FFFFFFAD     J   14265 14221  40050U 40261  46338U 46432U 46475U
 DRFBLKNO      3 00000008 FFFFFFAD     X   14222 14258  14258  40276M 40276  40282  40411  40453  40518
 DRFCC         2 00000000 FFFFFFAD     X   14216 14221
 DRFCOUNT      8 00000000 FFFFFFAD C   U   14221 43621  45719  46651  48395
 DRFID         1 00000004 FFFFFFAD     X   14218 40093  40201  40255  41104  41172  46448  46467  46516M 46551
 DRFORVDL      2 0000000E FFFFFFAD     X   14255 40579  46530M 46530
 DRFORVHD     12 00000008 FFFFFFAD     U   14258 40581
 DRFTYPE       1 0000000B FFFFFFAD     R   14225 14233  14242  14251  46523M
 DSNENTNX      4 00000034 FFFFFFAC     A   14289 36282
 DSNENTRY     52 00000000 FFFFFFAC     J   14296 14333  24575  27525  35742U 35746  35794  35839
 DSNNAME      44 00000000 FFFFFFAC     C   14287 35958  35963
 DSNVOL        6 0000002C FFFFFFAC     C   14288 35748  35775  35855M 35876  35881
 DS1BLKL       2 00000056 FFFFFFDE     X    5665 43606  43947
 DS1DSNAM     44 00000000 FFFFFFDE     C    5539  5751   5751
 DS1END        1 0000008C FFFFFFDE     U    5750  5751
 DS1IND01      1 00000001 FFFFFFDE A   U    5699  5700
 DS1IND02      1 00000002 FFFFFFDE A   U    5695  5698
 DS1IND04      1 00000004 FFFFFFDE A   U    5688  5694
 DS1IND10      1 00000010 FFFFFFDE A   U    5683  5686
 DS1IND40      1 00000040 FFFFFFDE A   U    5679  5680
 DS1KEYL       1 0000005A FFFFFFDE     X    5674 43599  43948  46668
 DTB           1 00000000 0000000F     T   27507 27507  33697
 DTBLKCNT      4 000006A4 FFFFFF9E     F   34870 37317  38173M 38173  40795  40796M 41013  41014M 47522
 DTBLKSI       2 00000C52 FFFFFF9E        35179 38380M 39529  39739  39756  39762M 39778M 39787  39789M
 DTBYTCNT      8 000006A8 FFFFFF9E     P   34871 37417  38174M 40790M 41007M
 DTCAMLST      4 00000BB4 FFFFFF9E     F   35052 37027M 37028M 37030M 37034
 DTDCB         4 00000C14 FFFFFF9E     F   35136 35067  35175  35177  35179  35181  35183  35185  35187  36949  36953
                                                 37145  37204  37208  38351  38948  38963  38966  39465  40615  40677
1VDMP     (VDMP21) (09:46) (22MAR04) Ordinary Symbol and Literal Cross Reference                                            Page  359
                                                 40754  40758  40771  40775  40917  40974  42039  42045  48231
 DTDCBEX       2 0000611C 00000001     H   39726 35020  38951
 DTDDN         8 00000678 FFFFFF9E     C   34863 34864  34865  35395M 37368  37375  37992  37999  38365  38615  38663
                                                 38679  38976  42477
 DTDDNAM       8 00000C3C FFFFFF9E        35181 39055
 DTDDSEG       2 0000067C FFFFFF9E     U   34865 35428M 35592
 DTDEBAD       4 00000C40 FFFFFF9E        35185 41207  41670
 DTDEVERR      2 000056EC 00000001     H   37973 36449B
 DTDVTA       24 00000688 FFFFFF9E     C   34867 39002M 39002  39018  39056  39145
 DTEGLMT       4 00000178 FFFFFFA5     A   14676 31285M 32402M 41286
 DTEOVCNT      8 00000680 FFFFFF9E     P   34866 38175M 41008M 41348  41792  42069M
 DTEOVEX       2 0000614E 00000001     H   39799 35023  39809U 41502
 DTEXLST       4 00000A74 FFFFFF9E     A   35019 35150  38952M 38953M 38955M 38956M 38958M 38959M 38961M 38962M 38985
 DTFEOVC       8 0000017C FFFFFFA5     P   14677 31312M 33380M 33442M 41348
 DTFLGS        1 0000005F FFFFFF9E     R   34718 34722  34727
 DTFOPEN      16 00000C44 FFFFFF9E        35175 36332  36387  38248
 DTIANC        4 000007A0 FFFFFF9E     A   34882 37728  42381
 DTIBLKS       4 0000079C FFFFFF9E     A   34881 40737  40797  40799M 42853M
 DTIBLKSZ      2 000007AC FFFFFF9E     R   34885 38379  42847M
 DTIRETRY      4 000007A8 FFFFFF9E     A   34884 42479M 42761M 42761  42767  42769M
 DTISEQ        4 000007A4 FFFFFF9E     A   34883 42466  42473  42476M
 DTJFCB        8 000006C0 FFFFFF9E     D   34875 35021  38954  39467  39614
 DTLASTID      1 000006B1 FFFFFF9E     X   34873 40185M 41104
 DTLRECL       2 00000C66 FFFFFF9E        35177 38378M 39303M 39576
 DTMAXBLK      2 000006A0 FFFFFF9E     H   34868 39292M 39778  39787  39789
 DTMINBLK      2 000006A2 FFFFFF9E     H   34869 39305M 39739  39762
 DTOPNLST      4 00000BC4 FFFFFF9E     F   35065 36947  37202  38354M 38355M 38383  38964M 38965M 39309  39511  40752
                                                 40767
 DTRDSN       44 00000770 FFFFFF9E     C   34876 35057  37029  39676M 39677  39678
 DTRECID       1 000006B0 FFFFFF9E     X   34872 40183M 41155  41158M 41172  41388
 DTRECOK     128 0000005F FFFFFF9E        34722 38927M
 DTSAVHDR     12 000006B2 FFFFFF9E     C   34874 40600M 40603
 DTTRLX        2 00006154 00000001     H   39836 35022  39846U 41501
 DTTWLMT       4 00000174 FFFFFFA5     A   14675 31284M 32503M 41271
 DUMP          4 00000016 00000001     I   15721 15720  15730U 17204  22923U 23041U 35344U 48296  48463U 52249U 54617U
 DUMPEXIT      2 000000F0 00000001     H   15932 15893B 15959B 16861B 18004B 18075B 18146B 18489B 19895B 24386B 24685B
                                                 25055B 25364B 25862B 27339B 28068B 28225B 29838B 30032B 30299B 30626B
                                                 30657B 33510B 33557B 33582B 33621B 33640B 48512B 48701B 48912B 49014B
                                                 49110B 49459B 49622B 50127B 50781B 50885B 50973B 51600B 51712B 54903B
 DUMPFNC       2 00000746 00000001     H   17249 15906
 DUMPINC       4 0000967E 00000001     I   51617 51050
 DUMPIX        2 0000907E 00000001     H   50671 51047
 DUMPIXA       2 0000916C 00000001     H   50927 50913B
 DUMPIXE       2 000091CC 00000001     H   51006 50719
 DUNOVDSP      1 00000005 FFFFFFD0 A   U    8236 15178  34965  41541  52127
 DVCMOD1       2 00000014 FFFFFFBB     R   13573 13578  13578
 DVCOVHD       2 00000006 FFFFFFBB     H   13524 13574
 DVCT          1 00000000 FFFFFFBB     J   13517 13552  13746  13822  13937  27801U
 DVCTOL        2 0000000A FFFFFFBB     H   13542 13576
 DVCTRK        2 00000002 FFFFFFBB     H   13521 27806
 DVCTRKLN      2 00000004 FFFFFFBB     H   13522 27813
 DVTAREA      24 00000000 FFFFFFEE     U    1605 34849  34867  39028U 39153U 43456U 59203U 59362U
 DVTCDA        1 00000020 FFFFFFEE A   U    1561 43470
 DVTCLASS      1 00000002 FFFFFFEE     X    1557 39167  43470
 DVTCTAPE      1 00000080 FFFFFFEE A   U    1559 39167
 DVTDEVCD      4 00000000 FFFFFFEE     F    1551  1553   1557   1566  39267M 39267
 DVTDSECT      1 00000000 FFFFFFEE     J    1548  1605   1605   1652
 DVTMXBLK      4 00000004 FFFFFFEE     F    1576 39032M 39274M 39284
 DVTNUMT       2 0000000A FFFFFFEE     H    1579 43977  43979
1VDMP     (VDMP21) (09:46) (22MAR04) Ordinary Symbol and Literal Cross Reference                                            Page  360
 DVTUTYPE      1 00000003 FFFFFFEE     X    1566 39215  39229  59214  59368
 DWA        3318 00000000 FFFFFFA5     J   15670 15742  15781U 15784  20754  35326U 48454U 52310U 54626U
 DWANAME       4 00000004 FFFFFFA5     C   14588 15790M
 DWEXIT        4 0000B5E6 00000001     I   58883 58569B
 DWR          12 0000000C FFFFFFFF A   #    1165 15773M 15781U 17101M 20753  24531  25287  30946  35315  35316M 35317
                                                 35335U 37786  47823  48038M 48454U 52299  52300M 52301  52319U 52324
                                                 53164  54324M 54626U
 DYN_ALC       1 00000018 FFFFFFFF A   C    1246 30625  30656  35849  36272  37276  38910  42798  50884  51599  51711
 DYNCONV       8 00000000 FFFFFFA4     D   22379 22497  22588  22646  22721  22779  22884  22944  23003  23062  23144
 DYNERBP       4 00000010 FFFFFFA4     A   22380 22444M 22837
 DYNERR        2 00001B0C 00000001     H   22395 43265  52102
 DYNPRT        2 00000434 00000001     H   16885 30610B 31125B
 DYNWRK       20 00000000 FFFFFFA4     J   22387 22408  22439U 23260  23262  23263
 EDMSK        20 0000055C 00000001     X   15691 37415  37415  37416  37417  37418  50621  50621  50622  50623  50624
 EDT_BYT      20 00000075 FFFFFF9E     X   34788 41791M 41792M 41811  41816
 ENDVECT       1 000000F0 00000001     U   15912 16936
 ENQB          2 000001BE 00000001     H   16145 16331B 19055B 19577B 21330B 25305B 42415B 49135B
 EOVASYNC      8 00000060 FFFFFF9E        34757 39819M 40931  40988  41991
 EOVEND       16 00000060 FFFFFF9E        34752 37191M 41953
 EOVERR      128 00000060 FFFFFF9E        34737 34780  34780  34781  34781  41297M 41839
 EOVFEOV     224 00000060 FFFFFF9E     €   34783 42025
 EOVFLGS       1 00000060 FFFFFF9E     R   34733 34737  34742  34747  34752  34757  34762  34767  34783  42064M
 EOVMAX       64 00000060 FFFFFF9E        34742 34780  34780  34782  34782  41359M 41915
 EOVMSG        2 000068BA 00000001     H   41590 38091  41518
 EOVNEW       32 00000060 FFFFFF9E        34747 34781  34781  34782  34782  36413M 41664  41877
 EOVOK         2 00000060 FFFFFF9E        34767 42036M 42053M
 EREG15        4 0000008C FFFFFF9E     A   34789 37906  43511M 43567M
 ERFLG         1 0000005C FFFFFF9E     R   34623 34627  34632  34637
 ER15        128 0000005C FFFFFF9E        34627 37891  43510M 43566M
 ESEG          2 0000259C 00000001     H   25553 27369
 ESTLST        1 00000A64 FFFFFFA5     R   15603 30942
 EXE_PRM       1 0000000C FFFFFFFF A   C    1243  1253  33509  33556  33581  33639
 FDYNP         4 000009B8 FFFFFF9E     A   34976 35468M 35469M 35525  36042
 FDYNRB        4 000009BC FFFFFF9E     A   34977 35452  35467  36157  36215
 FILENO        4 00000150 FFFFFF9E     F   34815 36650  36651M 43349
 FINDDD        2 00001F42 00000001     H   23631 19913  30481  33665  38078  41498  49913  51048  57621
 FINDUCB       2 00001FA6 00000001     H   23931 30472  43269  49927
 FKWRT         1 00000657 00000001     R   17020 33694
 FL_BCV      128 000001C1 FFFFFFA5        14760 17665  19817  29405  32847M 35768  35785
 FLABEND      64 000001C8 FFFFFFA5        14952 32710M
 FLABORT      32 000001C4 FFFFFFA5        14840 14851  14851  18950  21136M 21181M 36577  36577  36602  36602  36677
                                                 36677
 FLCOMACT    128 000001C4 FFFFFFA5        14830 18327M 20013  20057M
 FLCYL        32 000001C3 FFFFFFA5        14810 17313  17313  17315  17315  17425  17425  17441  32801M 45005  45119
                                                 46069
 FLDAILY      16 000001C1 FFFFFFA5        14775 26007M 28117  28320  32816M 32832M 48556  48610M 48739  48790M 48854M
                                                 49206  49654M 50420  50495M 51859  52027M
 FLDUMMY       2 000001C0 FFFFFFA5        14750 26716M 38458  39012  39397  51144  51327
 FLDYN         8 000001C0 FFFFFFA5        14740 37231  38933M
 FLECKD       64 000001C3 FFFFFFA5        14805 17313  17313  17314  17314  17316  17425  17425  17426  32756M
 FLFEOV       64 000001C0 FFFFFFA5        14725 31298M 33289M 33386M 33448M 36402  37180  38409  38409  39179M 39241M
                                                 41333
 FLIDRC        4 000001C0 FFFFFFA5        14745 24858  26628M 26651M 38541  51229
 FLLOGHST     64 000001C1 FFFFFFA5        14765 18353  19602  19662  21282  28014  29286M
 FLORDER      32 000001C1 FFFFFFA5        14770 26022M 42504
 FLPOPN       16 000001C0 FFFFFFA5        14735 20185  30684M
 FLPSTAGE      8 000001C3 FFFFFFA5        14820 17521  32786M
 FLQUIT       64 000001C4 FFFFFFA5        14835 14851  14851  36577  36577  36578  36602  36602  36603  36677  36677
                                                 36678  36703  52840M
1VDMP     (VDMP21) (09:46) (22MAR04) Ordinary Symbol and Literal Cross Reference                                            Page  361
 FLRANY       16 000001C3 FFFFFFA5        14815 17314  17314  17315  17315  32771M
 FLSCACHE     16 0000005D FFFFFF9E        34662 43341  43341  43342M 44069M 44568
 FLSECT      128 000001C3 FFFFFFA5        14800 17331  17400M 17597  26037M 26053M 32725M 32741M 46943
 FLSFSTWT      8 0000005D FFFFFF9E        34667 43341  43341  44094M 44622
 FLSOPN       32 0000005D FFFFFF9E        34657 47626M
 FLSTOP       96 000001C4 FFFFFFA5        14852 18765  21112
 FLTHIST      32 000001C0 FFFFFFA5        14730 31291M 32355M 32371M 32401M 32502M 38409  38409  38410M 39186M 39248M
                                                 41201
 FMBRANCH      1 00000000 00000000 A   T   10269 10269
 FMTCLCK       1 00000000 0000000B     T   19937 19937  30480  57627
 FMTHIST       4 0000AB54 00000001     I   56771 54811B
 FMTTIME       1 00000000 0000000A     T   19933 19933  21433  23426  42286
 FNCCLN        2 000001C6 FFFFFFA5        14927 24947  24947  24948  24948  24951  24951  24954  24954  32924M
 FNCDMP      128 000001C6 FFFFFFA5        14897 18370  18370  19682  20080  20080  21294  21507  21507  21508  24648
                                                 24648  24649  24946  24946  24947  24947  24949  24949  24952  24952
                                                 24956  25034  25456  25456  25457  28832  29490  31305M 32973  32973
                                                 32974M 32991M
 FNCFHST      16 000001C6 FFFFFFA5        14912 32879M 54662  54804
 FNCFLGS       1 000001C6 FFFFFFA5     R   14893 14897  14902  14907  14912  14917  14922  14927
 FNCFULL       4 000001C6 FFFFFFA5        14922 32973  32973
 FNCINC       64 000001C6 FFFFFFA5        14902 17707  17911  18370  18370  18371  19442  20080  20080  20081  21507
                                                 21507  21630  24547  24648  24648  24710  24946  24946  24948  24948
                                                 24950  24950  24953  24953  25456  25456  25812  29059  32941M 33076M
                                                 33212M 35624  38191  40671  41638  41652  44326
 FNCLHST      32 000001C6 FFFFFFA5        14907 24949  24949  24950  24950  24951  24951  24955  24955  32862M 54699
                                                 54834
 FNCOFFL       8 000001C6 FFFFFFA5        14917 24952  24952  24953  24953  24954  24954  24955  24955  32907M
 FNCVECT       4 00000110 FFFFFFA5     A   14634 15866  15899  32863M 32880M 32908M 32925M 32942M 32975M 32992M 33077M
                                                 33213M
 FORMAT1     140 00000000 FFFFFFDE     U    5751 43590U 43945U 46668
 FORMFNC       2 0000A47A 00000001     H   54597 15909
 FREPOOL       2 00000134 00000001     H   16014 20570B 24636B 36955B 37210B 40760B 48263B 49665B 50488B 50510B 51030B
                                                 51033B 51906B 52038B 57535B
 FREREC        2 00003912 00000001     H   30360 30485  49925
 FSABS         4 00000148 FFFFFF9E     A   34813 35431M 40282  40336  40608  40613  40614M
 FSBLKCNT      4 00000168 FFFFFF9E     F   34824 43318M 43318  45776  46123  46206  46207M 46224  46225M
 FSBLKLEN      2 0000018C FFFFFF9E     R   34834 43619  43646  43666  43732  44758
 FSBLOCKS      4 00000164 FFFFFF9E     F   34823 42229  44291M 45777
 FSCAMLST      4 00000A88 FFFFFF9E     F   35029 43537  43547
 FSDCB         4 00000BE0 FFFFFF9E     F   35092 35115  35117  35119  35121  35123  35125  35127  36642  36885  43371
                                                 43375  43487  43891  44887
 FSDDFNO       2 0000015A FFFFFF9E     U   34819 43360
 FSDDN         8 00000154 FFFFFF9E     C   34816 34817  34818  34819  35393M 37870  37877  43374  43403  44422  44457
 FSDDNAM       8 00000C08 FFFFFF9E        35123 43374M
 FSDDSEG       2 00000158 FFFFFF9E     U   34818 35429M
 FSDEBAD       4 00000C0C FFFFFF9E        35119 43987  44040  44195  45423  45793
 FSDELAY       8 00000610 FFFFFF9E     D   34853 45991M 46003  46015  46024M 46028
 FSDEVERR      2 00005664 00000001     H   37802 36372B 36491B 36624B
 FSDSNAME     44 00000254 FFFFFF9E     C   34842 35034  43529M 43539  43580  43937  44511  46668
 FSDVTA       24 000005E8 FFFFFF9E     C   34849 43404  43448  43956  46658
 FSELAP        8 00000608 FFFFFF9E     D   34852 46002M 46003  46016
 FSERRANL      4 00007C74 00000001     I   46311 38094
 FSERRBB       4 00007E7A 00000001     I   46986 48382
 FSERRFID      1 0000015C FFFFFF9E     X   34820 46395M 46448M
 FSERRPID      1 0000015D FFFFFF9E     X   34821 46402M 46467M 46515M 46555M 46578  46580M 46593  46600M 46627  46897
                                                 46899M 46912  46919M 47021  47520
 FSEXLST       4 00000A84 FFFFFF9E     A   35025 35106  43369M 43370M 43392
 FSFLGS        1 0000005D FFFFFF9E     R   34643 34647  34652  34657  34662  34667
 FSFOPEN      16 00000C10 FFFFFF9E        35121 43904
1VDMP     (VDMP21) (09:46) (22MAR04) Ordinary Symbol and Literal Cross Reference                                            Page  362
 FSHDRDMP      1 0000000C FFFFFFFF A   U    1286 34874  38376  39301  39918  39978  40580  40603  40787  41512  41547
                                                 42841
 FSHDRLEN      1 00000014 FFFFFFFF A   U    1285 43644
 FSIDRPT       2 00000192 FFFFFF9E     R   34837 42851M
 FSIOB         1 00000318 FFFFFF9E     X   34845 34847  34848  44796
 FSIOBAD       4 00000BFC FFFFFF9E        35115 36460  44797M 44883
 FSIOBEND      1 000005E8 FFFFFF9E     U   34846 44798
 FSIOB1      360 00000318 FFFFFF9E     U   34847 36768  48139
 FSIOERR     128 0000005D FFFFFF9E        34647 43332M 46388M
 FSJFCB      176 000001A0 FFFFFF9E     C   34840 35026  43368  43518
 FSKEYLEN      2 0000018A FFFFFF9E     R   34833 43617  43638M 43638  43665  43685
 FSLSTIO       8 00000600 FFFFFF9E     D   34851 45992  45993M 45994  46055M
 FSNAME        8 000002C0 FFFFFFA5     C   15004 57429
 FSOBTA      148 00000280 FFFFFF9E     C   34843 35036  43543
 FSOPNL        4 00000BC0 FFFFFF9E     F   35061 36640  36913  43372M 43373M 43485  43888
 FSORVHD       2 0000018E FFFFFF9E     R   34835 40594  40601  43645M 43665M 43779  43876  44711
 FSR           2 00000002 FFFFFFFF A   #    1011 20804  21415M 21468  21887M 21914  22168M 22193  22354M 22405  23260M
                                                 23285  23410M 23640  23833M 23940  24078M 24134  24255M 27565  27938M
                                                 27964  28534M 28559  29305M 29330  29598M 29632  29933M 29958  30093M
                                                 30118  30194M 30226  30344M 30369  30449M 41599  42091M 59120  59259M
                                                 59292  59433M
 FSRDLEN       2 00000188 FFFFFF9E     R   34832 41057  43623  45090  45229  45282  45327  45354  45379  46496  46636
                                                 46666
 FSRECTO      32 00000C04 FFFFFF9E        35117 43925
 FSRPC         4 00000170 FFFFFF9E     F   34826 43978M
 FSRPT         4 00000174 FFFFFF9E     F   34827 40144  40184  43961M 44290  45051  45089  45230  45283  45316  45789
                                                 45823  45931  46223  46253  46257  46593  46912
 FSSTCK        8 00000138 FFFFFF9E     D   34811 36461M 42150  42153  42206  42209
 FSSTCKE       8 00000140 FFFFFF9E     D   34812 36637M 42148  42204
 FSTAPERR     64 0000005D FFFFFF9E        34652 36939
 FSTRKPC       4 00000178 FFFFFF9E     F   34828 43980M 45127  45227  45928
 FSTRKS        4 00000160 FFFFFF9E     F   34822 44289M
 FSUDATLN      2 00000190 FFFFFF9E     R   34836 38377  39299  39919  39979  40788  42842  43649  43666M 43826
 FSVOLCAM      4 00000A98 FFFFFF9E     F   35039 35793M 35795M 35797M 35800
 FSVOLSER      6 00000194 FFFFFF9E     C   34838 35035  43528M 43541  44547  44554  47159  47164
 FSVOLWRK      1 00000AA8 FFFFFF9E     X   35048 35046  35796  35855  35856
 FSXTNTAB      4 0000017C FFFFFF9E     A   34829 44219M
 FSXTNTS       4 00000180 FFFFFF9E     F   34830 44217M
 GENFLGS       1 000001C1 FFFFFFA5     R   14756 14760  14765  14770  14775
 GETDEVT       2 00004CE6 00000001     H   34455 33990B
 GETHIO        2 000003E0 00000001     H   16817 16791B 16795B 16799B 16803B
 GETIDSN       4 00006BD0 00000001     I   42329 41492
 GETLOCK       2 000002A2 00000001     H   16448 39431B 40841B 42494B 46239B 53479B 53932B 54333B
 GETREC        2 0000389E 00000001     H   30217 23429
 GETSPRM       2 000024BC 00000001     H   25312 24520B 25277B
 GIOBLKS       4 00000190 FFFFFFA5     A   14693 21824  46252  46254M
 GIOCNT        4 0000018C FFFFFFA5     A   14692 21763  46244  46245M 53400
 GIOLIMIT      4 00000184 FFFFFFA5     A   14690 24740  26494M 35654  45977  53338  53643M 53653
 GLBRANCH      1 00000000 00000000 A   T   10175 10175
 GLBRPT        2 0000185E 00000001     H   21459 19935
 GMBRANCH      1 00000000 00000000 A   T   10271 10271
 GRADR         2 00000382 00000001     H   16728 19670B 21958B 22040B 22058B 22120B 22237B 22290B 28022B 29357B 30254B
                                                 30397B 30401B 48531B 49522B 54996B 55399B
 GVT           1 00000000 00000000 A   T   10037 10037
 HBASE         2 00003580 00000001     H   29321 19931
 HIBAL         1 00000000 FFFFFFFF     J     698   714    727    740    753    766    779    792    805    818    831
                                                   844    857    870    883    896    909   1019   1031   1044   1057
                                                  1070   1083   1096   1109   1122   1135   1148   1160   1173   1185
                                                  1198
1VDMP     (VDMP21) (09:46) (22MAR04) Ordinary Symbol and Literal Cross Reference                                            Page  363
 HIO           2 00003668 00000001     H   29623 23430  30474  49916  57624
 HISBDGC       4 00000020 FFFFFFB7     A   13963 28847  29027  29029M 29511  29512M 55741
 HISBDGEN      4 0000001C FFFFFFB7     A   13962 28847  55789  57430M
 HISBDMPS      4 00000014 FFFFFFB7     A   13960 28040  28862  29505  29506M 48567  55977
 HISBFREE      4 00000010 FFFFFFB7     A   13959 22055  22248  22264M 29368  29384M 30269  30310M 30416  30417M 57428M
 HISBIGC       4 00000028 FFFFFFB7     A   13965 29074  29261  29263M 29550  29551M 55870
 HISBIGEN      4 00000024 FFFFFFB7     A   13964 29074  55918  57431M
 HISBINCS      4 00000018 FFFFFFB7     A   13961 28125  29089  29545  29552M 48673  55026  56006
 HISBLEN       1 00000040 FFFFFFB7 A   U   13972 13973
 HISBLKS       4 00000004 FFFFFFB7     A   13956 57425M
 HISBLKSZ      4 00000008 FFFFFFB7     A   13957 57426M
 HISBNAME      8 0000002C FFFFFFB7     C   13966 55455  55456  57429M 57432M
 HISBREC       1 00000000 FFFFFFB7     J   13954 13972  22050U 22246U 28033U 28819U 29366U 30265U 30412U 48542U 55007U
                                                 55408U 57420U 57436
 HISBRECS      4 0000000C FFFFFFB7     A   13958 57427M
 HISBSPLT      4 00000034 FFFFFFB7     A   13969 29414  55544
 HISDBLK       4 00000000 FFFFFFB6     A   13977 28905  29506
 HISDCLCK      4 0000000C FFFFFFB6     A   13984 28093  28094  48645  56094  56131
 HISDNXT       4 00000004 FFFFFFB6     A   13978 28891  28949M 28949  29505M 56336
 HISDRC        4 00000010 FFFFFFB6     A   13985 19688M 29513M 56149
 HISDREC       1 00000000 FFFFFFB6     J   13976 13987  19688M 22299U 28088U 28860U 28938U 28965U 29503U 48640U 56043U
 HISDSEG       4 00000014 FFFFFFB6     A   13986 22301  22302M 28972  56187
 HISIBLK       4 00000000 FFFFFFB3     A   14028 29132  29552
 HISICLCK      4 0000000C FFFFFFB3     A   14040 28159  28165  48812  55106  56114  56379
 HISIDSN      44 00000014 FFFFFFB3     C   14042 48884  48885  48938  49533M 56435M 56435  56484  56489
 HISIFLG1      1 00000008 FFFFFFB3     R   14032 14036
 HISINXT       4 00000004 FFFFFFB3     A   14029 29118  29176M 29176  29545M 48747  55333  56607
 HISIPOOL      4 00000010 FFFFFFB3     A   14041 21983M 21983  22008M 29199  48986  49534  49541M 49541  55164  56505
 HISIRC        4 00000040 FFFFFFB3     A   14043 19704M 29553M 55124  56397
 HISIREC       1 00000000 FFFFFFB3     J   14027 14045  19704M 21969U 28142U 29087U 29165U 29192U 29543U 48728U 48812
                                                 48884  48938  49531U 55101U 56052U
 HISPBLK       4 00000000 FFFFFFB2     A   14048 22008
 HISPCLCK      4 0000000C FFFFFFB2     A   14055 22121M
 HISPDSN      44 00000010 FFFFFFB2     C   14056 22122M 49132  49573  55290  55295  56567
 HISPNXT       4 00000004 FFFFFFB2     A   14049 22081M 29230  49144  49577  55305  56591
 HISPREC       1 00000000 FFFFFFB2     J   14047 14058  22003U 22076U 22113U 29228U 49065U 49571U 55257U 56543U
 HISRECSZ      1 00000080 FFFFFFFF A   U    1264 57426
 HISSBLK       4 00000000 FFFFFFB4     A   14014 22302
 HISSDSN      44 00000010 FFFFFFB4     C   14022 22272M 56248
 HISSNXT       4 00000004 FFFFFFB4     A   14015 22264  22271M 22271  22301M 29003  56320
 HISSP_est
             128 00000008 FFFFFFB5        13999 55613
 HISSP_split
              64 00000008 FFFFFFB5        14004 55642
 HISSPCLK      4 0000000C FFFFFFB5     A   14008 29458  55671
 HISSPFLG      1 00000008 FFFFFFB5     R   13995 13999  14004
 HISSPREC      1 00000000 FFFFFFB5     J   13990 14010  29454U 55572U
 HISSRC        4 0000003C FFFFFFB4     A   14023 22273M 56282
 HISSREC       1 00000000 FFFFFFB4     J   14013 14025  22262U 29001U 56224U
 HISSTIME      4 0000000C FFFFFFB4     A   14021 22274M
 HISTADR       4 00000004 FFFFFFA8     A   14482 16744  29695M 29695  29869M 30011M 30011  30066M 30066  30167M 30167
 HISTBLK       4 00000008 FFFFFFA8     A   14483 14496  29843M 29856  29896  30048  30073M 30073  30174M 30174
 HISTBUFF    128 00000028 FFFFFFA8     X   14498 14493  29854  29868  29894  30046
 HISTDDN       2 000006F0 FFFFFFA5     R   15201 15196  28626  28636M 28637M
 HISTDECB      4 0000000C FFFFFFA8     A   14488 29846  29863  29887  29903  30039  30055
 HISTDSN       2 000006FE FFFFFFA5     R   15202 15197  28628  28638M 28639M
 HISTFDSN     44 00000294 FFFFFFA5     C   15003 24923M 24923  24971  24972  26097M 26098  26098M 26098  26111M 28639
 HISTFREE      2 00000737 FFFFFFA5     R   15204 15199  28632  28642M
 HISTINIT      4 000003AE 00000001     I   16787 28790B
1VDMP     (VDMP21) (09:46) (22MAR04) Ordinary Symbol and Literal Cross Reference                                            Page  364
 HISTIO      168 00000000 FFFFFFA8     J   14505 16740U 16819  16868  20651  29669U 29997U 30157U
 HISTP         4 000006C8 FFFFFFA5     A   15193 28601M 28602M 28644
 HISTPTRS      4 000006E0 FFFFFFA5     A   15196 28616  28627M 28629M 28631M 28633M 28634M
 HISTRB        4 000006CC FFFFFFA5     A   15194 28600
 HISTRECA      4 0000073C FFFFFFA5     A   15209 16731  16789  20618  29660  29986  30146
 HISTRECB      4 00000740 FFFFFFA5     A   15210 16793
 HISTRECC      4 00000744 FFFFFFA5     A   15211 16797
 HISTRECD      4 00000748 FFFFFFA5     A   15212 16801
 HISTSTAT      2 00000730 FFFFFFA5     R   15203 15198  28630  28640M 28641M
 HISTXIT       2 0000A532 00000001     H   54877 54908B 54952B 55073B 56813B 56914B
 HISVREC       1 00000000 FFFFFFB0     J   14079 14084  14148  14196  14266  14297  14341  14376  14464  14506  14536
                                                 14565
 HISX_Split
             128 00000008 FFFFFFB1        14071 19828M 19859M
 HISXCLCK      4 0000000C FFFFFFB1     A   14075 19774  29392M 29458M
 HISXFLG       1 00000008 FFFFFFB1     R   14067 14071
 HISXNXT       4 00000004 FFFFFFB1     A   14064 29384  29391M 29391
 HISXREC       1 00000000 FFFFFFB1     J   14062 14077  19718U 29382U
 HST_ERR       1 0000001C FFFFFFFF A   C    1247 28067  30298  48700  48911  49013
 HSTCHKCL      2 0000A550 00000001     H   54917 54992B 55395B
 HSTDCB        4 0000098C FFFFFFA5     F   15500 20579  28723M 28730  28734  29852  29859  29892  29899  30044  30051
 HSTDGEN       4 000004E4 FFFFFFA5     A   15122 31282M 32301M 57269  57430
 HSTFSNAM      8 000004EC FFFFFFA5     C   15124 31325M 31326  31326M 31326  32255M 57432
 HSTIGEN       4 000004E8 FFFFFFA5     A   15123 31283M 32340M 57350  57431
 HSTNCORE      2 0000A548 00000001     H   54906 54771B
 HWA         376 00000000 FFFFFF9C     J   54572 54747  54779  54792U 54894
 HWABUF      128 00000010 FFFFFF9C     C   54500 57410  57454M 57454  57470M 57470  57471M 57488M 57496
 HWADDN        2 000000CC FFFFFF9C     R   54515 54510
 HWADRB        4 000000A8 FFFFFF9C     A   54508 54507
 HWADSN        2 000000DA FFFFFF9C     R   54516 54511
 HWAFDCB       4 00000118 FFFFFF9C     F   54529 56818  57435  57495  57529  57533
 HWAFREE       2 0000010C FFFFFF9C     R   54517 54512
 HWANAME       4 00000000 FFFFFF9C     C   54499 54794M
 HWARECS       4 0000009C FFFFFF9C     A   54504 57009M 57199  57425  57427  57456
 HWARPT        4 00000098 FFFFFF9C     A   54503 57007M 57124
 HWASTAT       2 00000110 FFFFFF9C     R   54518 54513
 HWATRKS       4 00000094 FFFFFF9C     A   54502 56992M 57008  57049
 HWOPNLST      4 000000A0 FFFFFF9C     A   54505 56862  56867  57527
 IARMPVT       1 00000000 00000000 A   T    9912  9912
 IARMRRCE      1 00000000 00000000 A   T   10457 10457
 IARPIBR       1 00000000 00000000 A   T   10427 10427
 IARPSIV       1 00000000 00000000 A   T   10251 10251
 IARPSXM       1 00000000 00000000 A   T   10400 10400
 IARXKEY       1 00000000 00000000 A   T   10358 10358
 IARXVIO       1 00000000 00000000 A   T   10252 10252
 ICYMMVTC      1 00000000 00000000 A   T   10683 10683
 IDA121CV      1 00000000 00000000 A   T   10190 10190
 IDDN          2 000007F0 FFFFFF9E     R   34908 34897  38297  38319M 42477M
 IDENT         2 00001D68 00000001     H   23276 19929
 IDOFLST       4 00000AC4 FFFFFFA5     F   15642 49187M 49189M 49685M 49686M 49689  49789M 49793  50049M 50057
 IDOFSCR       4 00000AD4 FFFFFFA5     F   15652 49732M 49733M 49735M 49746
 IDOFWRK       2 00000AE4 FFFFFFA5     C   15661 15649  49188  49734  49873
 IDSN          2 000007FE FFFFFF9E     R   34909 34898  38299  38320M 42478M
 IDSNWRK      44 000004F4 FFFFFFA5     C   15125 50047M 50048  50094  51274M 51275  51333
 IDYNP         4 000007B0 FFFFFF9E     A   34894 38276M 38277M 42703
 IDYNRB        4 000007B4 FFFFFF9E     A   34895 38275  42748  42793
 IEABEND       1 00000000 00000000 A   T    9774  9774
 IEADQIQE      1 00000000 00000000 A   T   10170 10170
 IEAECVT       1 00000000 00000000 A   T    9699  9699
1VDMP     (VDMP21) (09:46) (22MAR04) Ordinary Symbol and Literal Cross Reference                                            Page  365
 IEAGSMQ       1 00000000 00000000 A   T   10147 10147
 IEAIHASU      1 00000000 00000000 A   T   10387 10387
 IEALSMQ       1 00000000 00000000 A   T   10149 10149
 IEAMASCB      1 00000000 00000000 A   T   10117 10117  10121
 IEAPATCH      1 00000000 00000000 A   T    9782  9782
 IEAPDSRT      1 00000000 00000000 A   T   10045 10045
 IEAPTRV       1 00000000 00000000 A   T    9861  9861
 IEAQCDSR      1 00000000 00000000 A   T    9765  9765
 IEAQCS01      1 00000000 00000000 A   T   10157 10157
 IEAQLPAQ      1 00000000 00000000 A   T    9766  9766
 IEAQTD00      1 00000000 00000000 A   T    9662  9662
 IEAQTE00      1 00000000 00000000 A   T    9660  9660
 IEARPOST      1 00000000 00000000 A   T   10172 10172
 IEASMFEX      1 00000000 00000000 A   T   10049 10049
 IEASMFSP      1 00000000 00000000 A   T   10395 10395
 IEASPOST      1 00000000 00000000 A   T   10192 10192
 IEASVDCB      1 00000000 00000000 A   T    9653  9653
 IEATCBP       1 00000000 00000000 A   T    9603  9603
 IEATPC        1 00000000 00000000 A   T    9655  9655
 IEATRSCN      1 00000000 00000000 A   T   10013 10013
 IEAVAR02      1 00000000 00000000 A   T   10097 10097
 IEAVBLDP      1 00000000 00000000 A   T   10081 10081
 IEAVDELP      1 00000000 00000000 A   T   10084 10084
 IEAVEAC0      1 00000000 00000000 A   T   10174 10174
 IEAVEADV      1 00000000 00000000 A   T   10332 10332
 IEAVEDR1      1 00000000 00000000 A   T   10217 10217
 IEAVELRM      1 00000000 00000000 A   T   10166 10166
 IEAVENLU      1 00000000 00000000 A   T   10513 10513
 IEAVENQ2      1 00000000 00000000 A   T   10163 10163
 IEAVEQV1      1 00000000 00000000 A   T   10320 10320
 IEAVEQV2      1 00000000 00000000 A   T   10323 10323
 IEAVEQV3      1 00000000 00000000 A   T   10326 10326
 IEAVERI1      1 00000000 00000000 A   T   10219 10219
 IEAVERP1      1 00000000 00000000 A   T   10221 10221
 IEAVERX1      1 00000000 00000000 A   T   10409 10409
 IEAVESC1      1 00000000 00000000 A   T   10348 10348
 IEAVESPR      1 00000000 00000000 A   T   10277 10277
 IEAVESTU      1 00000000 00000000 A   T   10511 10511
 IEAVESVT      1 00000000 00000000 A   T   10283 10283
 IEAVET6E      1 00000000 00000000 A   T   10383 10383
 IEAVEVT2      1 00000000 00000000 A   T   10337 10337
 IEAVEXPR      1 00000000 00000000 A   T   10145 10145
 IEAVEXP1      1 00000000 00000000 A   T   10314 10314
 IEAVFRCL      1 00000000 00000000 A   T   10083 10083
 IEAVGSDA      1 00000000 00000000 A   T   10328 10328
 IEAVGTCL      1 00000000 00000000 A   T   10082 10082
 IEAVGWSA      1 00000000 00000000 A   T   10177 10177
 IEAVLKRM      1 00000000 00000000 A   T    9884  9884
 IEAVMFRM      1 00000000 00000000 A   T   10262 10262
 IEAVMSGS      1 00000000 00000000 A   T    9831  9831
 IEAVNVT0      1 00000000 00000000 A   T   10496 10496
 IEAVRSUH      1 00000000 00000000 A   T   10375 10375
 IEAVRT03      1 00000000 00000000 A   T    9989  9989
 IEAVSPND      1 00000000 00000000 A   T   10385 10385
 IEAVSTAG      1 00000000 00000000 A   T   10125 10125
 IEAVTCTL      1 00000000 00000000 A   T   10377 10377
 IEAVTEST      1 00000000 00000000 A   T    9888  9888
 IEAVTRGR      1 00000000 00000000 A   T   10185 10185
 IEAVTRG1      1 00000000 00000000 A   T    9634  9634
1VDMP     (VDMP21) (09:46) (22MAR04) Ordinary Symbol and Literal Cross Reference                                            Page  366
 IEAVTRV3      1 00000000 00000000 A   T    9881  9881
 IEAVTSBP      1 00000000 00000000 A   T   10131 10131
 IEAVTSFR      1 00000000 00000000 A   T    9852  9852
 IEAVTSGL      1 00000000 00000000 A   T   10129 10129
 IEAVVMSR      1 00000000 00000000 A   T    9910  9910
 IEAVWAIT      1 00000000 00000000 A   T   10152 10152
 IEAVWSAC      1 00000000 00000000 A   T   10183 10183
 IEAVWSAG      1 00000000 00000000 A   T   10181 10181
 IEAVWSAL      1 00000000 00000000 A   T   10179 10179
 IEAVXEXT      1 00000000 00000000 A   T   10260 10260
 IEAVXSFT      1 00000000 00000000 A   T   10227 10227
 IEAVXSTN      1 00000000 00000000 A   T   10233 10233
 IEAVXSTS      1 00000000 00000000 A   T   10231 10231
 IEAVXUNN      1 00000000 00000000 A   T   10256 10256
 IEAVXUNS      1 00000000 00000000 A   T   10235 10235
 IEAWTCB       1 00000000 00000000 A   T   10292 10292
 IEA0DS        1 00000000 00000000 A   T    9698  9698
 IEA0EF00      1 00000000 00000000 A   T    9604  9604
 IEA0EF01      1 00000000 00000000 A   T    9644  9644
 IEA0PT0E      1 00000000 00000000 A   T   10364 10364
 IEA0PT01      1 00000000 00000000 A   T    9705  9705
 IEA0PT02      1 00000000 00000000 A   T   10289 10289
 IEA0PT03      1 00000000 00000000 A   T   10366 10366
 IEA0VL00      1 00000000 00000000 A   T    9615  9615
 IEA0VL01      1 00000000 00000000 A   T   10022 10022
 IECIXAVL      1 00000000 00000000 A   T    9690  9690
 IECPCNVT      1 00000000 00000000 A   T    9618  9618
 IECPRLTV      1 00000000 00000000 A   T    9622  9622
 IECSDSL1      1 00000000 FFFFFFDE     U    5537  5538
 IECVEXCL      1 00000000 00000000 A   T   10254 10254
 IECXAPG       1 00000000 00000000 A   T    9613  9613
 IECXITP       1 00000000 00000000 A   T    9643  9643
 IECXTLER      1 00000000 00000000 A   T    9629  9629
 IEC0SCR1      1 00000000 00000000 A   T    9788  9788
 IEECUCB       1 00000000 00000000 A   T    9659  9659
 IEEMSER       1 00000000 00000000 A   T    9637  9637   9703
 IEEVEXSN      1 00000000 00000000 A   T    9992  9992
 IEEVSTOP      1 00000000 00000000 A   T   10302 10302
 IEFAQTOP      1 00000000 00000000 A   T   10109 10109
 IEFAUSDM      1 00000000 00000000 A   T    9609  9609
 IEFENFDM      1 00000000 00000000 A   T    9768  9768
 IEFJESCT      1 00000000 00000000 A   T    9868  9868
 IEFLINK       1 00000000 00000000 A   T    9606  9606
 IEFQMWR       1 00000000 00000000 A   T    9719  9719
 IEWFBOSV      1 00000000 00000000 A   T    9696  9696
 IEWMSEPT      1 00000000 00000000 A   T   10201 10201
 IFBDCB        1 00000000 00000000 A   T    9685  9685
 IFDOLT0A      1 00000000 00000000 A   T   10047 10047
 IFGDEBVR      1 00000000 00000000 A   T   10678 10678
 IFLGS         1 000001C9 FFFFFFA5     R   14958 14962
 IFOPNLST      4 000004D4 FFFFFFA5     F   15117 51732M 51735  51898
 IFREE         2 0000085D FFFFFF9E     R   34916 34905  38313  38331M
 IGC043BR      1 00000000 00000000 A   T   10093 10093
 IGC044R2      1 00000000 00000000 A   T   10203 10203
 IGC062R1      1 00000000 00000000 A   T   10173 10173
 IGC07903      1 00000000 00000000 A   T   10318 10318
 IGC124        1 00000000 00000000 A   T   10334 10334
 IGFRVT        1 00000000 00000000 A   T    9783  9783
 IGVCPBDB      1 00000000 00000000 A   T   10449 10449
1VDMP     (VDMP21) (09:46) (22MAR04) Ordinary Symbol and Literal Cross Reference                                            Page  367
 IGVCPDLB      1 00000000 00000000 A   T   10451 10451
 IGVCPFRE      1 00000000 00000000 A   T   10441 10441
 IGVCPGTC      1 00000000 00000000 A   T   10439 10439
 IGVCPGUB      1 00000000 00000000 A   T   10433 10433
 IGVCPGUP      1 00000000 00000000 A   T   10436 10436
 IGVCPGUS      1 00000000 00000000 A   T   10459 10459
 IGVGCAS       1 00000000 00000000 A   T   10087 10087
 IGVGFAS       1 00000000 00000000 A   T   10091 10091
 IGVGRRGN      1 00000000 00000000 A   T   10463 10463
 IGVGVRGN      1 00000000 00000000 A   T   10465 10465
 IGVQSPET      1 00000000 00000000 A   T   10089 10089
 IGVSLIST      1 00000000 00000000 A   T   10443 10443
 IGVSLOC       1 00000000 00000000 A   T   10447 10447
 IGVSREGN      1 00000000 00000000 A   T   10445 10445
 IGVSTSKI      1 00000000 00000000 A   T   10430 10430
 IHADCB        1 00000000 FFFFFFEA     J    1791  1871   1908   1958   2033   2160   2165   2180   2186   2195   2295
                                                  2298   2303   2328   2346   2347   2351   2387   2388  15978U 20543U
                                                 24305U 28742U 35115  35117  35119  35121  35123  35125  35127  35175
                                                 35177  35179  35181  35183  35185  35187  36893U 37153U 38363U 38974U
                                                 40623U 40687U 43383U 48241U 49221U 49373U 49482U 50150U 50436U 50704U
                                                 50804U 51752U 56828U 58090U 58409U 58536  58538M 58924U
 IHB0567C      2 0000002C 00000001     H   15747 15741B
 IHB0567F      1 00000028 00000001     B   15743 15749
 IHB0567L      4 00000024 00000001     A   15742 15748
 IHB0590B      4 0000006C 00000001     F   15804 15798B
 IHB0590F      1 00000068 00000001     B   15800 15806
 IHB0590L      4 00000064 00000001     A   15799 15805
 IHB0652       2 0000017E 00000001     H   16040 16019B 16026B
 IHB1017C      2 000003F0 00000001     H   16828 16823B
 IHB1017F      1 000003EC 00000001     B   16824 16829
 IHB10806C
               2 00004C48 00000001     H   34244 34238B
 IHB10806F
               1 00004C44 00000001     B   34240 34246
 IHB10806L
               4 00004C40 00000001     A   34239 34245
 IHB11050C
               2 00004DA4 00000001     H   35238 35232B
 IHB11050F
               1 00004DA0 00000001     B   35234 35240
 IHB11050L
               4 00004D9C 00000001     A   35233 35239
 IHB11108C
               2 00004DF4 00000001     H   35360 35355B
 IHB11108F
               1 00004DF0 00000001     B   35356 35361
 IHB15021C
               2 00006BE8 00000001     H   42358 42352B
 IHB15021F
               1 00006BE4 00000001     B   42354 42360
 IHB15021L
               4 00006BE0 00000001     A   42353 42359
 IHB1635C      2 00000984 00000001     H   18042 18037B
 IHB1635F      1 00000980 00000001     B   18038 18043
 IHB16717C
               2 00007748 00000001     H   45411 45405B
 IHB16717F
               1 00007744 00000001     B   45407 45413
 IHB16717L
1VDMP     (VDMP21) (09:46) (22MAR04) Ordinary Symbol and Literal Cross Reference                                            Page  368
               4 00007740 00000001     A   45406 45412
 IHB18709C
               2 000086A0 00000001     H   49076 49070B
 IHB18709F
               1 0000869C 00000001     B   49072 49078
 IHB18709L
               4 00008698 00000001     A   49071 49077
 IHB18882C
               2 00008814 00000001     H   49426 49421B
 IHB18882F
               1 00008810 00000001     B   49422 49427
 IHB19619C
               2 00009180 00000001     H   50940 50934B
 IHB19619F
               1 0000917C 00000001     B   50936 50942
 IHB19619L
               4 00009178 00000001     A   50935 50941
 IHB19977C
               2 000096EC 00000001     H   51726 51720B
 IHB19977F
               1 000096E8 00000001     B   51722 51728
 IHB19977L
               4 000096E4 00000001     A   51721 51727
 IHB20187C
               2 00009A08 00000001     H   52262 52256B
 IHB20187F
               1 00009A04 00000001     B   52258 52264
 IHB20187L
               4 00009A00 00000001     A   52257 52263
 IHB21495C
               2 0000A4EC 00000001     H   54756 54751B
 IHB21495F
               1 0000A4E8 00000001     B   54752 54757
 IHB23468      2 0000B46E 00000001     H   58460 58439B 58446B
 IHB23719C
               2 0000B620 00000001     H   58986 58980B
 IHB23719F
               1 0000B61C 00000001     B   58982 58988
 IHB23719L
               4 0000B618 00000001     A   58981 58987
 IHB3074B      4 00001550 00000001     F   20745 20739B
 IHB3074F      1 0000154C 00000001     B   20741 20747
 IHB3074L      4 00001548 00000001     A   20740 20746
 IHB4983C      2 00001FC4 00000001     H   23978 23972B
 IHB4983F      1 00001FC0 00000001     B   23974 23980
 IHB4983L      4 00001FBC 00000001     A   23973 23979
 IHB5705C      2 000024C8 00000001     H   25322 25317B
 IHB5705F      1 000024C4 00000001     B   25318 25323
 IHB6034C      2 00002640 00000001     H   25828 25822B
 IHB6034F      1 0000263C 00000001     B   25824 25830
 IHB6034L      4 00002638 00000001     A   25823 25829
 IINCBLK       4 000004D8 FFFFFFA5     A   15120 50244M 50244  50555  51887  51888M
 IINCBYTE      8 000004DC FFFFFFA5     P   15121 50245M 50623  51882M
 IINCDDN       2 0000047C FFFFFFA5     R   15105 15093  50017  50033M 50034M 50093M
 IINCDSN       2 0000048A FFFFFFA5     R   15106 15094  50020  50035M 50094M 51646M
 IINCFREE      2 000004CA FFFFFFA5     R   15109 15097  50029  50040M
 IINCNDSP      2 000004C3 FFFFFFA5     R   15108 15096  50026  50038M 50039M
 IINCP         4 0000043C FFFFFFA5     A   15090 49269M 49270M 49323  49986M 49987M 50095  51689
 IINCPTRS      4 00000454 FFFFFFA5     A   15093 50006  50018M 50021M 50024M 50027M 50030M 50031M
1VDMP     (VDMP21) (09:46) (22MAR04) Ordinary Symbol and Literal Cross Reference                                            Page  369
 IINCRB        4 00000440 FFFFFFA5     A   15091 49268  49272  49985  49989
 IINCSTAT      2 000004BC FFFFFFA5     R   15107 15095  50023  50036M 50037M
 IIOBLKS       4 000001B4 FFFFFFA5     A   14701 46256  46258M 54343  54360M 54360
 IIOBRATE      4 000001AC FFFFFFA5     A   14699 54346M
 IIOCNT        4 000001B0 FFFFFFA5     A   14700 46250  46251M 54337  54353M 54353
 IIOCRT        8 00000198 FFFFFFA5     D   14696 54334M 54335  54341  54361
 IIOLST        8 000001A0 FFFFFFA5     D   14697 30769M 54336  54342  54361M
 IIORATE       4 000001A8 FFFFFFA5     A   14698 53480  54340M
 ILRJTERM      1 00000000 00000000 A   T   10372 10372
 INCCMPLT      4 00000134 FFFFFFA5     A   14647 19480  20431  49031  50367
 INCDAYS       4 00000154 FFFFFFA5     A   14663 27999M 27999  28245  33103M
 INCDCB        4 0000074C FFFFFFA5     F   15224 15115  50189  50461  50504  50508  51764  51810  51875  51974
 INCDDSN      44 00000018 FFFFFFAA     C   14368 19555  22122  42426M 42428  42478  42925  49132M 51646  51656
 INCDFWD       4 00000000 FFFFFFAA     A   14362 20459  50397
 INCDINC       4 0000000C FFFFFFAA     A   14365 42836M
 INCDNAME      4 00000008 FFFFFFAA     C   14364 42380M 49131M
 INCDSEG       4 00000010 FFFFFFAA     A   14366 42472M
 INCDSEQ       4 00000014 FFFFFFAA     A   14367 42474M
 INCDSN       68 00000000 FFFFFFAA     J   14375 19515U 20455U 20457  21952U 38349U 42353  42371U 42379M 42379  49071
                                                 49122U 49130M 49130  50391U 51644U
 INCEOD        2 000097B8 00000001     H   51895 50165
 INCFIL        4 0000080C FFFFFFA5     F   15317 15119  50155  51738  51757  51835  51900  51904
 INCIXIN       4 0000086C FFFFFFA5     F   15362 50694  50987  51016  51028
 INCIXOUT      4 000008CC FFFFFFA5     F   15407 50794  50994  51024  51031
 INCLOGD       2 000019DC 00000001     H   21905 19936
 INCLVL        4 00000118 FFFFFFA5     A   14640 17789  17795M 17918  21642  26177  26406  26412M 31309M 32577  32583M
 INCOBUFR      4 00000168 FFFFFFA5     A   14668 49464M 50452  51956
 INCODCB       4 000007AC FFFFFFA5     F   15269 49226  49360  49378  49468  49472  49659  49663  50426  50468  50482
                                                 50486  51981  52005  52032  52036
 INCPALLO      4 0000001C FFFFFFAE     A   14172 25910M 42547  42697  42852
 INCPBCK       4 00000004 FFFFFFAE     A   14166 25930M 25948M
 Incpblk       4 00000028 FFFFFFAE     A   14175 39973M 42848M
 INCPFLGS      1 00000031 FFFFFFAE     R   14180 14184
 INCPL        86 00000000 FFFFFFAE     J   14195 20490U 20511  25823  25877U 25888M 25888  25947M 27635U 39912U 42533U
                                                 42645U 42694U 43013U
 INCPLST       4 0000016C FFFFFFA5     A   14669 25928M 25946  25949M
 INCPMSG      30 00000038 FFFFFFAE     C   14188 27741  27752  27850  27853  43081  43084  43087
 INCPNXT       4 00000000 FFFFFFAE     A   14165 20513  25947M 27913  42556  42670  43095  43225
 INCPOFF     128 00000031 FFFFFFAE        14184 27723M 43040M 43063M
 INCPOOL       4 00000164 FFFFFFA5     A   14667 17723M 17723  19455M 19455  20480  25921M 25921  25927M 25929  26528M
                                                 26528  27609  38204M 38204  42486  43003  43115
 INCPSPC       4 00000010 FFFFFFAE     A   14169 27856M 42547  42658  42664  42696  42698M 43090M 43157
 INCPTLN       4 00000018 FFFFFFAE     A   14171 27814M
 IncpTotB      4 0000002C FFFFFFAE     A   14176 42854M
 INCPTPC       4 00000014 FFFFFFAE     A   14170 27807M 27849  43083
 INCPTYPE      1 00000030 FFFFFFAE     X   14177 27789M 39948
 INCPUCB       4 0000000C FFFFFFAE     A   14168 27739M 27740  27772  43079M
 INCPVOL       6 00000032 FFFFFFAE     C   14187 25890M 25902M 27667  27688  42702  42873  42878  43041  43208
 INCREMX       4 00008FA2 00000001     I   50480 50441
 INCSEC        4 00000158 FFFFFFA5     A   14664 28249  33224M
 INCTALO       2 000093B6 00000001     H   51085 51049
 INCTOD        4 0000015C FFFFFFA5     A   14665 28093M 28165M 28291M 28335  28406  28457  40723
 INCTODBS      4 00000160 FFFFFFA5     A   14666 28094M 28159  28335  48645M 48813
 INDSP         2 00000837 FFFFFF9E     R   34911 34900  38303  38323M 38324M
 INFMJFCB      1 00000000 FFFFFFE9     U    2784  3544
 INIT          4 00003C6E 00000001     I   30533 16935
 INTCTRS       4 0000061C FFFFFF9E     A   34860 37488  40177  40178M
 IOB         360 00000000 FFFFFFBA     J   13745 34845  34847  34848  34848  36315U 44804  44875  44884  44885M 45436
                                                 46058  46700  47012
1VDMP     (VDMP21) (09:46) (22MAR04) Ordinary Symbol and Literal Cross Reference                                            Page  370
 IOBBUFFA      4 00000030 FFFFFFBA     A   13713 36818  36844M 36844  40070  44873  44881M 45169  45185M 45226  45279
                                                 45315  48163  48189M 48189
 IOBBUFFL      4 00000034 FFFFFFBA     F   13714 36833  36851M 36851  45148  45156  45180M 48178  48196M 48196
 IOBCC         2 00000023 FFFFFFBA     C   13695 45371  46650  46816
 IOBCHPRO      8 00000048 FFFFFFBA     D   13728 44955M 44956M 44957M 44958  44988M 44989M 44990M 44991  45020M 45021M
                                                 45022M 45023  45057M 45058M 45059M 45060  46949
 IOBCMDCH      1 00000040 FFFFFFBA A   U   13603 44886
 IOBCSW        7 00000009 FFFFFFBA     C   13647 46413  46497  47281  47335  47399
 IOBDCBPT      4 00000014 FFFFFFBA     A   13651 44888M
 IOBECB        4 00000028 FFFFFFBA     F   13711 36538  36551  36812  44889  45443  45456  46047M 46047  46697M 46697
                                                 46707  46720  47104
 IOBECBPT      4 00000004 FFFFFFBA     A   13643 44890M
 IOBERRCT      2 0000001E FFFFFFBA     H   13674 46054M 46054
 IOBEXCPD    128 0000003C FFFFFFBA        13722 36473  36527  36801  45771M 46235M
 IOBFLAGA      1 0000003C FFFFFFBA     R   13718 13722
 IOBFLAG1      1 00000000 FFFFFFBA     B   13601 44886M
 IOBINCAM      2 0000001C FFFFFFBA     H   13657 13670
 IOBIOCNT      4 00000038 FFFFFFBA     A   13715 41037  41039M 45823M 45932M 46081  46205
 IOBLOCRX     22 00000130 FFFFFFBA     X   13733 44984M 44984  44985M 44986M 44987  45017M 45017  45018M 45019  45049M
                                                 45049  45050M 45052M 45053M 45054M 45055M 45056  45819M 45820M 45821M
                                                 45822M 45843M 45863M 45864M 45866  45933M
 IOBNXIOB      4 0000002C FFFFFFBA     A   13712 36497  36630  36779M 36779  36856  44882M 44884M 44884  44885M 48150M
                                                 48150  48201
 IOBR          1 00000027 FFFFFFBA     C   13701 46629M 46664  46764
 IOBRDDEV      8 00000040 FFFFFFBA     W   13727 45417M 45418M 45419M 45420
 IOBREADS      8 00000050 FFFFFFBA     D   13731 40086  41145  45080  45228  45280M 45281M 45285M 45305  45934  46416
                                                 46965
 IOBREG       10 0000000A FFFFFFFF A   #    1127 36315U 36460M 36497M 36630M 36768M 36856M 44799M 44874  44882  44885
                                                 47232  48139M 48201M
 IOBRETRY      8 00000148 FFFFFFBA     D   13734 45365  45366M 46613
 IOBRKD        8 00000160 FFFFFFBA     W   13738 46653M
 IOBRMAX       1 0000001C FFFFFFBA A   U   13730 13731  45701
 IOBSECT       1 0000003D FFFFFFBA     X   13725 13729  44954  45367  46690M
 IOBSEEK       8 00000020 FFFFFFBA     C   13690 45424  45794  45819  45820  45843  45863  45864  45927
 IOBSTART      4 00000010 FFFFFFBA     A   13648 45085M 45421M 46614M 46970M
 IOBSTDRD      8 00000000 FFFFFFBA     D   13599 13702  13702
 IOBUNREL      1 00000002 FFFFFFBA A   U   13609 44886
 IOSDCXR_NXTADDR_15950
               2 00007268 00000001     H   44016 44010
 IOSDCXR_RETADDR_15950
               2 0000727A 00000001     H   44022 44007
 IOSDCXR_X31_15950
               4 00007264 00000001     A   44015 44012
 IOSVDEVN      1 00000000 00000000 A   T   10389 10389
 IOSVHID       1 00000000 00000000 A   T   10399 10399
 IOSVSUCB      1 00000000 00000000 A   T   10402 10402
 IPTRS         4 000007C8 FFFFFF9E     A   34897 38290  38298M 38300M 38302M 38304M 38306M 38308M 38310M 38312M 38314M
                                                 38316M 38317M
 IRARMCNS      1 00000000 00000000 A   T   10143 10143
 IRARMEPS      1 00000000 00000000 A   T   10361 10361
 IRARMI00      1 00000000 00000000 A   T   10100 10100
 IRBEND        4 000000A0 FFFFFFC6     F   11809 11935  11940  11951
 IRLSE         2 00000859 FFFFFF9E     R   34915 34904  38311  38330M
 ISNBRNCH      1 00000000 00000000 A   T   10258 10258
 ISP1          2 0000083E FFFFFF9E     R   34912 34901  38305  38325M
 ISP2          2 00000842 FFFFFF9E     R   34913 34902  38307  38326M 38327M
 ISTAT         2 00000830 FFFFFF9E     R   34910 34899  38301  38321M 38322M
 ITOPNLST      4 000004D0 FFFFFFA5     F   15113 49354M 49357  49657  50237M 50480  50502  50742M 50745  50844M 50847
                                                 51014  51022  51806  52030
1VDMP     (VDMP21) (09:46) (22MAR04) Ordinary Symbol and Literal Cross Reference                                            Page  371
 IUNIT         2 0000084B FFFFFF9E     R   34914 34903  38309  38328M 38329M
 IVOL          2 00000861 FFFFFF9E     R   34917 34906  38315  38332M 42702M
 JESCT         1 00000000 FFFFFFC8     J   11059 11244  34463
 JESEDT        4 00000034 FFFFFFC8     A   11092 34463
 JFCB        176 00000000 FFFFFFE9     U    3544 34840  43526U 50350U
 JFCBDSNM     44 00000000 FFFFFFE9     C    2788 39478U 39483  39622U 39639  39676  43529  50352
 JFCBLGTH      1 000000B0 FFFFFFE9 A   U    3540  3544
 JFCBVOLS     30 00000076 FFFFFFE9     C    3432 43528
 JFCRESRV      4 0000006C FFFFFFE9     B    3349  3386
 LISTFNC       2 0000A47A 00000001     H   54595 15908
 LMLST         4 00000044 FFFFFFA5     A   14600 31273M
 LOADFAIL      2 00004024 00000001     H   31443 31441B
 LOADXIT       4 00000A54 FFFFFFA5     R   15591 31434
 LSR          12 0000000C FFFFFFFF A   #    1177 20804  21415M 21468  21887M 21914  22168M 22193  22354M 22405  23260M
                                                 23285  23410M 23476  23611M 23640  23833M 23940  24078M 24134  24255M
                                                 27565  27938M 27964  28534M 28559  29305M 29330  29598M 29632  29933M
                                                 29958  30093M 30118  30194M 30226  30344M 30369  30449M 41599  42091M
                                                 59120  59259M 59292  59433M
 LSTCLCK       2 0000AAFE 00000001     H   56687 55108B 56133B 56381B
 LSTHIST       2 0000A6D6 00000001     H   55376 54841B
 MAINEXIT      2 0000134C 00000001     H   19983 16939  19994U 21407U 21879U 22160U 22346U 23252U 23402U 23603U 23825U
                                                 24070U 24247U
 MAINXPRM     72 000001CC FFFFFFA5     X   14998 20701  31963  35410
 MAX_DPS       1 0000004A FFFFFFFF A   U    1268 14333  24575
 MDDN          2 00000676 FFFFFFA5     R   15182 15099  49299  49314M 49315M
 MDSN          2 00000684 FFFFFFA5     R   15183 15100  48928M 49302  49316M
 MFREE         2 000006C4 FFFFFFA5     R   15186 15103  49311  49321M
 MINCPTRS      4 00000468 FFFFFFA5     A   15099 49289  49300M 49303M 49306M 49309M 49312M 49313M
 MNDSP         2 000006B6 FFFFFFA5     R   15184 15102  49308  49319M 49320M
 MODOTL        1 00000060 00000001 A   U   57735 59016
 MODPRT        4 0000B7D8 00000001     F   57698 57735  59016
 MSK_BYT      20 00006BBC 00000001     X   41578 41791
 MSTAT         2 000006BD FFFFFFA5     R   15185 15101  49305  49317M 49318M
 NO_MEM        1 00000020 FFFFFFFF A   C    1248 15767  15826  16860  18074  25363  25861  33620  35378  49109  49458
 NOTAPCHK      2 000042E6 00000001     H   32364 16974
 OCDSP         2 000005E8 FFFFFFA5     R   15169 15145  51198  51344M 51345M
 OCNT          2 0000060A FFFFFFA5     R   15173 15149  51206  51352M 51353M
 ODDN          2 00000592 FFFFFFA5     R   15164 15140  15157  51188  51259  51270M 51271M
 ODMY          4 00000538 FFFFFFA5     A   15137 38468M 38469M 38470  51154M 51155M 51156
 ODMYA         2 0000058C FFFFFFA5     R   15162 15137  38464M 38467  51150M 51153  51273M
 ODSN          2 000005A0 FFFFFFA5     R   15165 15138  15141  15158  38465M 38466M 51151M 51152M 51190  51261  51272M
                                                 51333M
 ODYNP         4 00000520 FFFFFFA5     A   15134 51109M 51110M 51369
 ODYNRB        4 00000524 FFFFFFA5     A   15135 51108  51484  51542
 OFFDELD       2 00008914 00000001     H   49680 49575B
 OFFLFNC       2 0000847A 00000001     H   48435 15910
 OLBL          2 0000061F FFFFFFA5     R   15175 15151  51210  51356M 51357M
 OMEM          2 000005D2 FFFFFFA5     R   15166 15143  51192  51340M 51341M
 ONDSP         2 000005E1 FFFFFFA5     R   15168 15144  51196  51342M 51343M
 OPENHIST      2 000032D4 00000001     H   28550 27495
 OPEXIT        2 0000B5F4 00000001     H   58914 58901  58910U
 OPEXITL       4 0000B5F0 00000001     A   58900 57712  57805
 OPNLST        4 00000010 FFFFFF9B     F   57759 58126  58429  59017M
 OPROT         2 0000062E FFFFFFA5     R   15177 15153  51214  51360M 51361M
 OPTRS         4 00000540 FFFFFFA5     A   15140 51172  51189M 51191M 51193M 51195M 51197M 51199M 51201M 51203M 51205M
                                                 51207M 51209M 51211M 51213M 51215M 51217M 51219M 51235M 51251M
 OPTRU         4 00000580 FFFFFFA5     A   15157 51260M 51262M 51264M 51265M
 ORETP         2 00000667 FFFFFFA5     R   15179 15154  51216  51362M 51363M
 OSEQ          2 00000626 FFFFFFA5     R   15176 15152  51212  51358M 51359M
1VDMP     (VDMP21) (09:46) (22MAR04) Ordinary Symbol and Literal Cross Reference                                            Page  372
 OSP1          2 000005EF FFFFFFA5     R   15170 15146  51200  51346M 51347M
 OSP2          2 000005F8 FFFFFFA5     R   15171 15147  51202  51348M 51349M
 OSP3          2 00000601 FFFFFFA5     R   15172 15148  51204  51350M 51351M
 OSTAT         2 000005DA FFFFFFA5     R   15167 15142  51194  51338M 51339M
 OTRTCH        2 0000066F FFFFFFA5     R   15180 15155  51218  51364M 51365M
 OUNA          2 00000660 FFFFFFA5     R   15178 15160  51263  51366M 51367M
 OUNIT         2 00000611 FFFFFFA5     R   15174 15150  51208  51354M 51355M
 PARMERR       2 000045F4 00000001     H   33566 31405B 33025B 33045B 33064B 33142B 33162B 33181B 33200B 33263B 33415B
                                                 33435B
 PARMKW        1 00000570 00000001     R   16964 31388
 PARMPTR       4 00000048 FFFFFFA5     A   14601 15834M 30867  31355
 PBLKADR       4 00000010 FFFFFF9E     A   34618 35347M 35705  37705  38617  39624  42416  48039
 PHSTDCB       4 00004D28 00000001     F   34495 30483  34530
 PHSTLEN       1 00000068 00000001 A   U   34530 28723
 PINV          2 000045B8 00000001     H   33513 17012  32217B 32237B 32295B 32334B 32536B 32650B 32689B
 PMISS         2 0000457C 00000001     H   33466 32203B 32281B 32320B 32390B 32421B 32441B 32491B 32522B 32636B 32675B
                                                 33011B 33128B 33249B
 PRBEND        4 000000A8 FFFFFFC6     F   11824 11948
 PRCFLGS       1 000001C0 FFFFFFA5     R   14716 14720  14725  14730  14735  14740  14745  14750
 PREVID        4 00000618 FFFFFF9E     F   34859 40106M 40106  40131  40179M 43325M 43325
 PRMFEOV       2 00004516 00000001     H   33298 16966
 PRMNFEOV      2 00004510 00000001     H   33282 16968  33307B 33342B
 PRMSEG        2 000044E8 00000001     H   33239 16964
 PRMXIT        2 00004302 00000001     H   32411 16970
 PRYNTER       4 000000A0 FFFFFF9B     F   57791 57761  58082  58130  58183  58401  58431  58437  58536  58538M 59016M
 PUTDONE       2 00006568 00000001     H   41187 41051B 41107B
 PUTDT         4 000061B6 00000001     I   40010 38095
 PUTLOOP       2 0000624A 00000001     H   40243 40204B 41076B 41175B
 QR            4 00000004 FFFFFFFF A   #    1049 16450  16451  16451  16451  16452M 16594M 16948  16948  16948  18081M
                                                 18098U 18106  18567M 18598M 19087M 19099  19480M 19575  19578M 20849M
                                                 21331  21332  21341M 22221M 22231U 24033M 24056  24170M 24178U 24226
                                                 25746  25747  25747  25747  25889M 25992M 26799M 26800M 26801  26802M
                                                 26803M 26804M 26804  26910M 26911M 26912M 26913M 26913  27047  27048
                                                 27048  27048  27214M 27522  27522  27522  27772M 27780U 28860U 28888M
                                                 29087U 29115M 29702M 29751  30394M 30419  30867M 31347M 31348M 31349
                                                 33838M 33846U 33865  34009M 34076  34324M 34334U 35716M 35727M 35727
                                                 36283M 37515M 37565M 39918M 39919M 39937  39951  39973  39978M 39979M
                                                 40050U 40070M 40087M 40186M 40261M 41057M 41058  41071M 41071  41159M
                                                 42491M 42520M 42520  42533U 42556M 42577M 42577  42665M 42694U 42836
                                                 43448M 43456U 44873M 44881  45315M 45326  45327M 46338U 46431M 46474M
                                                 49031M 49133  49136M 49577M 49582  52961M 52962  52968M 52970  56003M
                                                 56003  56024M 56052U 56065  56107M 56107  56607M 56608M 56608  56625
                                                 56630M 57456M 57457M 57481  57515  57995M 57996M 58775M 58776M 58778
                                                 58805M 58806M 58808
 QUELOCK       4 00000100 FFFFFFA5     A   14626 53930  54236
 QUESUB        2 0000022A 00000001     H   16250 19029B 21270B
 RAR           9 00000009 FFFFFFFF A   #    1114 15857M 15858M 15858B 15885M 15886M 15886B 15890M 15891M 15891B 15951M
                                                 15952M 15952B 15956M 15957M 15957B 16005B 16041B 16063B 16120B 16130M
                                                 16131B 16135M 16136B 16147  16148  16148  16148  16175M 16176B 16181
                                                 16182  16182  16182  16208M 16209B 16241B 16252  16331M 16351M 16352B
                                                 16432B 16595B 16719B 16778B 16787  16791M 16795M 16799M 16803M 16807M
                                                 16808B 16853M 16854M 16854B 16858M 16859M 16859B 16876B 16887  16888
                                                 16888  16888  16915M 16917B 16947  16947  16947  17110M 17111M 17111B
                                                 17115M 17116M 17116B 17134M 17135M 17135B 17143M 17144M 17144B 17185M
                                                 17186M 17186B 17190M 17191M 17191B 17273M 17274M 17274B 17288M 17289M
                                                 17289B 17344M 17345M 17345B 17353M 17354M 17354B 17358M 17359M 17359B
                                                 17377M 17378M 17378B 17386M 17387M 17387B 17391M 17392M 17392B 17412M
                                                 17413M 17413B 17454M 17455M 17455B 17478M 17479M 17479B 17506M 17507M
                                                 17507B 17530M 17531M 17531B 17549M 17550M 17550B 17558M 17559M 17559B
1VDMP     (VDMP21) (09:46) (22MAR04) Ordinary Symbol and Literal Cross Reference                                            Page  373
                                                 17586M 17587M 17587B 17610M 17611M 17611B 17634M 17635M 17635B 17647M
                                                 17648M 17648B 17678M 17679M 17679B 17683M 17684M 17684B 17731M 17732M
                                                 17732B 17739M 17740M 17740B 17863M 17864M 17864B 17887M 17888M 17888B
                                                 17957M 17958M 17958B 17996M 17997M 17997B 18001M 18002M 18002B 18067M
                                                 18068M 18068B 18072M 18073M 18073B 18132M 18133M 18133B 18156M 18157M
                                                 18157B 18223M 18224M 18224B 18232M 18233M 18233B 18271M 18272M 18272B
                                                 18276M 18277M 18277B 18315M 18316M 18316B 18320M 18321M 18321B 18379M
                                                 18380M 18380B 18457M 18458M 18458B 18481M 18482M 18482B 18486M 18487M
                                                 18487B 18707M 18739M 18740M 18740B 18778M 18779M 18779B 18800M 18801M
                                                 18801B 18809M 18810M 18810B 18852M 18853M 18853B 18877M 18878M 18878B
                                                 18905M 18906M 18906B 18926M 18927M 18927B 18939M 18940M 18940B 18963M
                                                 18964M 18964B 18987M 18988M 18988B 19000M 19001M 19001B 19005M 19006M
                                                 19006B 19029M 19051M 19055M 19140M 19141M 19141B 19149M 19150M 19150B
                                                 19171M 19172M 19172B 19180M 19181M 19181B 19219M 19220M 19220B 19228M
                                                 19229M 19229B 19271M 19272M 19272B 19296M 19297M 19297B 19324M 19325M
                                                 19325B 19345M 19346M 19346B 19354M 19355M 19355B 19397M 19398M 19398B
                                                 19407M 19408M 19408B 19464M 19465M 19465B 19473M 19474M 19474B 19478M
                                                 19479M 19479B 19550M 19551M 19551B 19554M 19558M 19572M 19573M 19573B
                                                 19577M 19586M 19587M 19587B 19591M 19592M 19592B 19611M 19612M 19612B
                                                 19670M 19730M 19731M 19731B 19739M 19740M 19740B 19744M 19745M 19745B
                                                 19763M 19764M 19764B 19772M 19773M 19773B 19797M 19798M 19798B 19806M
                                                 19807M 19807B 19836M 19837M 19837B 19867M 19868M 19868B 19876M 19877M
                                                 19877B 19881M 19882M 19882B 20039M 20040M 20040B 20044M 20045M 20045B
                                                 20101M 20102M 20102B 20110M 20111M 20111B 20149M 20150M 20150B 20158M
                                                 20159M 20159B 20163M 20164M 20164B 20205M 20206M 20206B 20570M 20801
                                                 20875M 20898M 20899M 20899B 20907M 20908M 20908B 20929M 20930M 20930B
                                                 20938M 20939M 20939B 20977M 20978M 20978B 20986M 20987M 20987B 21028M
                                                 21029M 21029B 21037M 21038M 21038B 21042M 21043M 21043B 21061M 21062M
                                                 21062B 21070M 21071M 21071B 21096M 21097M 21097B 21101M 21102M 21102B
                                                 21139M 21158M 21270M 21303M 21304M 21304B 21330M 21417M 21420B 21465
                                                 21517M 21518M 21518B 21526M 21527M 21527B 21531M 21532M 21532B 21550M
                                                 21551M 21551B 21559M 21560M 21560B 21586M 21587M 21587B 21591M 21592M
                                                 21592B 21610M 21611M 21611B 21619M 21620M 21620B 21673M 21674M 21674B
                                                 21727M 21728M 21728B 21736M 21737M 21737B 21755M 21756M 21756B 21765M
                                                 21785M 21786M 21786B 21794M 21795M 21795B 21799M 21800M 21800B 21818M
                                                 21819M 21819B 21826M 21846M 21847M 21847B 21855M 21856M 21856B 21860M
                                                 21861M 21861B 21889M 21892B 21911  21958M 21992M 21993M 21993B 22013M
                                                 22014M 22014B 22040M 22058M 22085M 22086M 22086B 22090M 22091M 22091B
                                                 22120M 22127M 22128M 22128B 22170M 22173B 22190  22237M 22252M 22253M
                                                 22253B 22279M 22280M 22280B 22290M 22307M 22308M 22308B 22312M 22313M
                                                 22313B 22356M 22359B 22402  22460M 22461M 22461B 22469M 22470M 22470B
                                                 22478M 22479M 22479B 22517M 22518M 22518B 22526M 22527M 22527B 22531M
                                                 22532M 22532B 22550M 22551M 22551B 22559M 22560M 22560B 22608M 22609M
                                                 22609B 22617M 22618M 22618B 22666M 22667M 22667B 22675M 22676M 22676B
                                                 22680M 22681M 22681B 22699M 22700M 22700B 22741M 22742M 22742B 22750M
                                                 22751M 22751B 22799M 22800M 22800B 22808M 22809M 22809B 22834M 22835M
                                                 22835B 22862M 22863M 22863B 22904M 22905M 22905B 22913M 22914M 22914B
                                                 22964M 22965M 22965B 22973M 22974M 22974B 23023M 23024M 23024B 23032M
                                                 23033M 23033B 23082M 23083M 23083B 23091M 23092M 23092B 23164M 23165M
                                                 23165B 23198M 23199M 23199B 23211M 23212M 23212B 23262M 23265B 23282
                                                 23338M 23339M 23339B 23377M 23378M 23378B 23382M 23383M 23383B 23412M
                                                 23415B 23473  23613M 23616B 23637  23835M 23838B 23937  24080M 24083B
                                                 24131  24257M 24260B 24276  24278  24278  24278  24309M 24378M 24379M
                                                 24379B 24383M 24384M 24384B 24520M 24536M 24636M 24677M 24678M 24678B
                                                 24682M 24683M 24683B 24738M 24739M 24739B 24760M 24761M 24761B 24769M
                                                 24770M 24770B 24774M 24775M 24775B 24814M 24815M 24815B 24819M 24833M
                                                 24834M 24834B 24838M 24839M 24839B 24847M 24848M 24848B 24872M 24873M
                                                 24873B 24897M 24898M 24898B 24906M 24907M 24907B 24969M 24970M 24970B
                                                 24974M 24988M 24989M 24989B 24993M 24994M 24994B 24997M 24998M 24998B
1VDMP     (VDMP21) (09:46) (22MAR04) Ordinary Symbol and Literal Cross Reference                                            Page  374
                                                 25017M 25018M 25018B 25022M 25023M 25023B 25047M 25048M 25048B 25052M
                                                 25053M 25053B 25075M 25112M 25113M 25113B 25117M 25118M 25118B 25136M
                                                 25137M 25137B 25145M 25146M 25146B 25188M 25189M 25189B 25197M 25198M
                                                 25198B 25241M 25242M 25242B 25250M 25251M 25251B 25255M 25256M 25256B
                                                 25274  25277M 25299M 25305M 25308M 25309B 25347M 25348M 25348B 25356M
                                                 25357M 25357B 25361M 25362M 25362B 25431B 25854M 25855M 25855B 25859M
                                                 25860M 25860B 26560M 26561M 26561B 26569M 26570M 26570B 26574M 26575M
                                                 26575B 27086M 27087M 27087B 27091M 27105M 27106M 27106B 27114M 27115M
                                                 27115B 27153M 27154M 27154B 27158M 27159M 27159B 27177M 27178M 27178B
                                                 27187M 27188M 27188B 27191M 27192M 27192B 27231M 27232M 27232B 27270M
                                                 27271M 27271B 27275M 27276M 27276B 27294M 27295M 27295B 27303M 27304M
                                                 27304B 27308M 27322M 27323M 27323B 27331M 27332M 27332B 27336M 27337M
                                                 27337B 27562  27593M 27594M 27594B 27602M 27603M 27603B 27607M 27608M
                                                 27608B 27656M 27657M 27657B 27677M 27678M 27678B 27686M 27687M 27687B
                                                 27691M 27692M 27692B 27711M 27712M 27712B 27716M 27717M 27717B 27762M
                                                 27763M 27763B 27767M 27768M 27768B 27847M 27848M 27848B 27893M 27894M
                                                 27894B 27902M 27903M 27903B 27907M 27908M 27908B 27940M 27943B 27961
                                                 28022M 28060M 28061M 28061B 28065M 28066M 28066B 28076M 28077M 28077B
                                                 28106M 28107M 28107B 28130M 28131M 28131B 28173M 28174M 28174B 28217M
                                                 28218M 28218B 28222M 28223M 28223B 28303M 28304M 28304B 28362M 28363M
                                                 28363B 28371M 28372M 28372B 28376M 28377M 28377B 28395M 28396M 28396B
                                                 28404M 28405M 28405B 28446M 28447M 28447B 28455M 28456M 28456B 28480M
                                                 28481M 28481B 28485M 28486M 28486B 28504M 28505M 28505B 28513M 28514M
                                                 28514B 28518M 28519M 28519B 28536M 28539B 28556  28587M 28588M 28588B
                                                 28669M 28670M 28670B 28674M 28675M 28675B 28693M 28694M 28694B 28702M
                                                 28703M 28703B 28707M 28708M 28708B 28767M 28768M 28768B 28772M 28773M
                                                 28773B 28790M 28795M 28796M 28796B 28805M 28806M 28806B 28810M 28811M
                                                 28811B 28882M 28883M 28883B 28886M 28887M 28887B 28919M 28920M 28920B
                                                 28953M 28954M 28954B 28992M 28993M 28993B 29007M 29008M 29008B 29025M
                                                 29026M 29026B 29034M 29035M 29035B 29109M 29110M 29110B 29113M 29114M
                                                 29114B 29146M 29147M 29147B 29180M 29181M 29181B 29219M 29220M 29220B
                                                 29234M 29235M 29235B 29252M 29253M 29253B 29268M 29269M 29269B 29307M
                                                 29310B 29327  29357M 29372M 29373M 29373B 29442M 29443M 29443B 29463M
                                                 29464M 29464B 29569M 29570M 29570B 29575M 29576M 29576B 29600M 29603B
                                                 29629  29710M 29711M 29711B 29715M 29716M 29716B 29734M 29735M 29735B
                                                 29743M 29744M 29744B 29782M 29783M 29783B 29791M 29792M 29792B 29830M
                                                 29831M 29831B 29835M 29836M 29836B 29935M 29938B 29955  30024M 30025M
                                                 30025B 30029M 30030M 30030B 30095M 30098B 30115  30196M 30199B 30223
                                                 30254M 30291M 30292M 30292B 30296M 30297M 30297B 30307M 30308M 30308B
                                                 30322M 30323M 30323B 30346M 30349B 30366  30397M 30401M 30422M 30423M
                                                 30423B 30428M 30429M 30429B 30451M 30454B 30533  30535  30535  30535
                                                 30592M 30593M 30593B 30610M 30643M 30644M 30644B 30677M 30678M 30678B
                                                 30699M 30700M 30700B 30708M 30709M 30709B 30717M 30718M 30718B 30726M
                                                 30727M 30727B 30751M 30752M 30752B 30756M 30757M 30757B 30787M 30788M
                                                 30788B 30810M 30811M 30811B 30819M 30820M 30820B 30844M 30845M 30845B
                                                 30849M 30850M 30850B 30865M 30866M 30866B 30892M 30893M 30893B 30909M
                                                 30910M 30910B 30918M 30919M 30919B 30923M 30924M 30924B 30976M 30977M
                                                 30977B 30985M 30986M 30986B 31024M 31025M 31025B 31029M 31030M 31030B
                                                 31054M 31055M 31055B 31059M 31060M 31060B 31078M 31079M 31079B 31094M
                                                 31095M 31095B 31110M 31111M 31111B 31125M 31144M 31145M 31145B 31149M
                                                 31150M 31150B 31467M 31468M 31468B 31487M 31488M 31488B 31491M 31492M
                                                 31492B 31510M 31511M 31511B 31519M 31520M 31520B 31558M 31559M 31559B
                                                 31567M 31568M 31568B 31606M 31607M 31607B 31616M 31617M 31617B 31620M
                                                 31621M 31621B 31647M 31648M 31648B 31652M 31666M 31667M 31667B 31676M
                                                 31677M 31677B 31680M 31681M 31681B 31699M 31700M 31700B 31708M 31709M
                                                 31709B 31750M 31751M 31751B 31759M 31760M 31760B 31802M 31803M 31803B
                                                 31811M 31812M 31812B 31852M 31853M 31853B 31861M 31862M 31862B 31866M
                                                 31867M 31867B 31901M 31902M 31902B 31910M 31911M 31911B 31915M 31916M
                                                 31916B 32012M 32013M 32013B 32017M 32018M 32018B 32039M 32040M 32040B
1VDMP     (VDMP21) (09:46) (22MAR04) Ordinary Symbol and Literal Cross Reference                                            Page  375
                                                 32048M 32049M 32049B 32087M 32088M 32088B 32096M 32097M 32097B 32135M
                                                 32136M 32136B 32144M 32145M 32145B 32149M 32150M 32150B 32184M 33474M
                                                 33475M 33475B 33479M 33493M 33494M 33494B 33502M 33503M 33503B 33507M
                                                 33508M 33508B 33522M 33523M 33523B 33526M 33540M 33541M 33541B 33549M
                                                 33550M 33550B 33554M 33555M 33555B 33574M 33575M 33575B 33579M 33580M
                                                 33580B 33593M 33594M 33594B 33602M 33603M 33603B 33618M 33619M 33619B
                                                 33632M 33633M 33633B 33637M 33638M 33638B 33810  33812  33812  33812
                                                 33875M 33962  33964  33964  33964  33986M 33990M 33992M 34107M 34109M
                                                 34113M 34232  34233  34233  34233  34443M 34445B 34457  34461M 34467M
                                                 34470M 34471B 34477  34477  34477  35512M 35513M 35513B 35572M 35573M
                                                 35573B 35581M 35582M 35582B 35602M 35603M 35603B 35612M 35613M 35613B
                                                 35652M 35653M 35653B 35679M 35680M 35680B 35684M 35685M 35685B 35823M
                                                 35824M 35824B 35842M 35843M 35843B 35847M 35848M 35848B 35865M 35866M
                                                 35866B 35884M 35885M 35885B 35893M 35894M 35894B 35914M 35915M 35915B
                                                 35919M 35920M 35920B 35938M 35939M 35939B 35947M 35948M 35948B 35966M
                                                 35967M 35967B 35971M 35972M 35972B 36029M 36030M 36030B 36068M 36069M
                                                 36069B 36073M 36074M 36074B 36092M 36093M 36093B 36101M 36102M 36102B
                                                 36140M 36141M 36141B 36149M 36150M 36150B 36198M 36199M 36199B 36207M
                                                 36208M 36208B 36256M 36257M 36257B 36265M 36266M 36266B 36270M 36271M
                                                 36271B 36340M 36341M 36341B 36348M 36349M 36349B 36416M 36417M 36417B
                                                 36439M 36440M 36440B 36481M 36482M 36482B 36560M 36561M 36561B 36589M
                                                 36590M 36590B 36614M 36615M 36615B 36692M 36693M 36693B 36716M 36717M
                                                 36717B 36740M 36741M 36741B 36753M 36754M 36754B 36758M 36759M 36759B
                                                 36955M 37006M 37007M 37007B 37011M 37012M 37012B 37020M 37021M 37021B
                                                 37025M 37026M 37026B 37058M 37059M 37059B 37067M 37068M 37068B 37106M
                                                 37107M 37107B 37115M 37116M 37116B 37120M 37121M 37121B 37194M 37195M
                                                 37195B 37210M 37300M 37301M 37301B 37309M 37310M 37310B 37348M 37349M
                                                 37349B 37357M 37358M 37358B 37378M 37379M 37379B 37394M 37395M 37395B
                                                 37413M 37414M 37414B 37435M 37436M 37436B 37444M 37445M 37445B 37449M
                                                 37450M 37450B 37465M 37466M 37466B 37481M 37482M 37482B 37486M 37487M
                                                 37487B 37513M 37514M 37514B 37562M 37563M 37563B 37588M 37589M 37589B
                                                 37624M 37625M 37625B 37633M 37634M 37634B 37670M 37671M 37671B 37674M
                                                 37675M 37675B 37701M 37702M 37702B 37811M 37812M 37812B 37850M 37851M
                                                 37851B 37859M 37860M 37860B 37880M 37881M 37881B 37904M 37905M 37905B
                                                 37943M 37944M 37944B 37952M 37953M 37953B 37961M 37962M 37962B 37981M
                                                 37982M 37982B 38002M 38003M 38003B 38007M 38008M 38008B 38030U 38057B
                                                 38146  38148  38148  38148  38211M 38230M 38263M 38272  38339M 38340M
                                                 38340B 38353M 38394M 38395M 38395B 38399M 38400M 38400B 38413M 38414B
                                                 38431  38630M 38666M 38667M 38667B 38706M 38707M 38707B 38711M 38712M
                                                 38712B 38730M 38731M 38731B 38739M 38740M 38740B 38778M 38779M 38779B
                                                 38787M 38788M 38788B 38836M 38837M 38837B 38845M 38846M 38846B 38894M
                                                 38895M 38895B 38903M 38904M 38904B 38908M 38909M 38909B 38915M 38950M
                                                 39081M 39082M 39082B 39120M 39121M 39121B 39129M 39130M 39130B 39134M
                                                 39135M 39135B 39333M 39334M 39334B 39372M 39373M 39373B 39381M 39382M
                                                 39382B 39386M 39387M 39387B 39431M 39504M 39522M 39523M 39523B 39560M
                                                 39561M 39561B 39569M 39570M 39570B 39607M 39608M 39608B 39612M 39613M
                                                 39613B 39665M 39666M 39666B 39674M 39675M 39675B 39680M 39694M 39695M
                                                 39695B 39699M 39700M 39700B 39716M 39717B 39882  39884  39884  39884
                                                 39954M 39955M 39955B 39998M 40010  40012  40012  40012  40319M 40320M
                                                 40320B 40328M 40329M 40329B 40370M 40371M 40371B 40375M 40376M 40376B
                                                 40394M 40395M 40395B 40403M 40404M 40404B 40445M 40446M 40446B 40487M
                                                 40488M 40488B 40496M 40497M 40497B 40505M 40506M 40506B 40553M 40554M
                                                 40554B 40558M 40559M 40559B 40760M 40763M 40764M 40764B 40841M 40939M
                                                 40940M 40940B 40951M 40996M 40997M 40997B 41300M 41301M 41301B 41362M
                                                 41363M 41363B 41371M 41381M 41382M 41382B 41426M 41427M 41427B 41442M
                                                 41443M 41443B 41596  41721M 41722M 41722B 41745M 41746M 41746B 41782M
                                                 41783M 41783B 41800M 41801M 41801B 41819M 41820M 41820B 41828M 41829M
                                                 41829B 41853M 41854M 41854B 41891M 41892M 41892B 41929M 41930M 41930B
                                                 41967M 41968M 41968B 42005M 42006M 42006B 42014M 42015M 42015B 42093M
1VDMP     (VDMP21) (09:46) (22MAR04) Ordinary Symbol and Literal Cross Reference                                            Page  376
                                                 42096B 42119  42121  42121  42121  42146M 42147M 42147B 42178M 42179M
                                                 42179B 42183M 42184M 42184B 42202M 42203M 42203B 42251M 42252M 42252B
                                                 42260M 42261M 42261B 42265M 42266M 42266B 42270M 42329  42331  42331
                                                 42331  42415M 42430M 42494M 42590M 42591M 42591B 42595M 42596M 42596B
                                                 42701M 42772M 42773M 42773B 42796M 42797M 42797B 42862M 42863M 42863B
                                                 42881M 42882M 42882B 42886M 42887M 42887B 42905M 42906M 42906B 42914M
                                                 42915M 42915B 42935M 42936M 42936B 42940M 42941M 42941B 42950M 42983
                                                 42985  42985  42985  43044M 43045M 43045B 43108M 43109M 43109B 43113M
                                                 43114M 43114B 43149M 43150M 43150B 43188M 43189M 43189B 43197M 43198M
                                                 43198B 43218M 43219M 43219B 43223M 43224M 43224B 43246M 43291  43293
                                                 43293  43293  43678M 43679M 43679B 43716M 43717M 43717B 43725M 43726M
                                                 43726B 43763M 43764M 43764B 43772M 43773M 43773B 43810M 43811M 43811B
                                                 43819M 43820M 43820B 43857M 43858M 43858B 43862M 43863M 43863B 43959M
                                                 43960M 43960B 43999M 44189M 44306M 44307M 44307B 44315M 44316M 44316B
                                                 44339M 44340M 44340B 44363M 44364M 44364B 44410M 44411M 44411B 44419M
                                                 44420M 44420B 44464M 44465M 44465B 44480M 44481M 44481B 44499M 44500M
                                                 44500B 44508M 44509M 44509B 44513M 44527M 44528M 44528B 44536M 44537M
                                                 44537B 44557M 44558M 44558B 44596M 44597M 44597B 44635M 44636M 44636B
                                                 44659M 44660M 44660B 44676M 44677M 44677B 44695M 44696M 44696B 44704M
                                                 44705M 44705B 44742M 44743M 44743B 44751M 44752M 44752B 44789M 44790M
                                                 44790B 44794M 44795M 44795B 44802M 44803M 44803B 44814M 44853  44855
                                                 44855  44855  44907M 45385M 45400  45401  45401  45401  45469M 45470M
                                                 45470B 45478M 45479M 45479B 45483M 45484M 45484B 45502M 45503M 45503B
                                                 45511M 45512M 45512B 45516M 45517M 45517B 45592M 45593M 45593B 45601M
                                                 45602M 45602B 45606M 45607M 45607B 45625M 45626M 45626B 45634M 45635M
                                                 45635B 45639M 45640M 45640B 45681M 45682B 45723  45723  45723  45745
                                                 45747  45747  45747  45906M 45907M 45907B 45916M 45917M 45917B 45920M
                                                 45921M 45921B 46115M 46116M 46116B 46157M 46158M 46158B 46198M 46199M
                                                 46199B 46203M 46204M 46204B 46239M 46262M 46291M 46311  46313  46313
                                                 46313  46381M 46382M 46382B 46607M 46608M 46608B 46688M 46689M 46689B
                                                 46729M 46730M 46730B 46733M 46734M 46734B 46757M 46758M 46758B 46805M
                                                 46806M 46806B 46814M 46815M 46815B 46855M 46856M 46856B 46865M 46866M
                                                 46866B 46869M 46870M 46870B 46974M 46986  46988  46988  46988  47069M
                                                 47070M 47070B 47090M 47091M 47091B 47138M 47139M 47139B 47147M 47148M
                                                 47148B 47167M 47168M 47168B 47171M 47172M 47172B 47190M 47191M 47191B
                                                 47212M 47213M 47213B 47216M 47217M 47217B 47225M 47226M 47226B 47270M
                                                 47271M 47271B 47279M 47280M 47280B 47324M 47325M 47325B 47333M 47334M
                                                 47334B 47379M 47380M 47380B 47383M 47384M 47384B 47392M 47393M 47393B
                                                 47445M 47446M 47446B 47454M 47455M 47455B 47499M 47500M 47500B 47504M
                                                 47505M 47505B 47513M 47514M 47514B 47562M 47563M 47563B 47566M 47567M
                                                 47567B 47571M 47581  47583  47583  47583  47602M 47603M 47603B 47619M
                                                 47620M 47620B 47641M 47642M 47642B 47650M 47651M 47651B 47659M 47660M
                                                 47660B 47668M 47669M 47669B 47690M 47691M 47691B 47695M 47696M 47696B
                                                 47714M 47715M 47715B 47740M 47741M 47741B 47759M 47760M 47760B 47783M
                                                 47784M 47784B 47788M 47789M 47789B 47804M 47805M 47805B 47853M 47854M
                                                 47854B 47862M 47863M 47863B 47901M 47902M 47902B 47906M 47907M 47907B
                                                 47931M 47932M 47932B 47936M 47937M 47937B 47946M 48076M 48077M 48077B
                                                 48085M 48086M 48086B 48127M 48128M 48128B 48132M 48133M 48133B 48263M
                                                 48473M 48474M 48474B 48478M 48479M 48479B 48484M 48485M 48485B 48504M
                                                 48505M 48505B 48509M 48510M 48510B 48527M 48528M 48528B 48531M 48587M
                                                 48588M 48588B 48596M 48597M 48597B 48601M 48602M 48602B 48629M 48630M
                                                 48630B 48658M 48659M 48659B 48693M 48694M 48694B 48698M 48699M 48699B
                                                 48718M 48719M 48719B 48767M 48768M 48768B 48776M 48777M 48777B 48781M
                                                 48782M 48782B 48809M 48810M 48810B 48832M 48833M 48833B 48841M 48842M
                                                 48842B 48846M 48847M 48847B 48877M 48878M 48878B 48882M 48883M 48883B
                                                 48904M 48905M 48905B 48909M 48910M 48910B 48936M 48937M 48937B 48941M
                                                 48955M 48956M 48956B 48960M 48961M 48961B 48973M 48974M 48974B 49006M
                                                 49007M 49007B 49011M 49012M 49012B 49051M 49052M 49052B 49055M 49056M
                                                 49056B 49102M 49103M 49103B 49107M 49108M 49108B 49135M 49153M 49154M
1VDMP     (VDMP21) (09:46) (22MAR04) Ordinary Symbol and Literal Cross Reference                                            Page  377
                                                 49154B 49176M 49177M 49177B 49181M 49182M 49182B 49228M 49451M 49452M
                                                 49452B 49456M 49457M 49457B 49511M 49512M 49512B 49522M 49561M 49562M
                                                 49562B 49575M 49580M 49581M 49581B 49591M 49592M 49592B 49600M 49601M
                                                 49601B 49605M 49606M 49606B 49641M 49642M 49642B 49646M 49647M 49647B
                                                 49665M 49682  49683  49683  49683  49712M 49713M 49713B 49717M 49718M
                                                 49718B 49741M 49742M 49742B 49769M 49770M 49770B 49774M 49775M 49775B
                                                 49816M 49817M 49817B 49821M 49822M 49822B 49843M 49844M 49844B 49848M
                                                 49862M 49863M 49863B 49871M 49872M 49872B 49876M 49890M 49891M 49891B
                                                 49895M 49896M 49896B 49899M 49900B 49938  49938  49938  49964  49966
                                                 49966  49966  50052M 50081M 50082M 50082B 50085M 50086M 50086B 50120M
                                                 50121M 50121B 50125M 50126M 50126B 50134M 50135M 50135B 50157M 50191M
                                                 50253M 50254M 50254B 50268M 50269M 50269B 50308M 50309M 50309B 50312M
                                                 50313M 50313B 50325M 50326M 50326B 50395M 50396M 50396B 50488M 50510M
                                                 50514M 50515M 50515B 50523M 50524M 50524B 50528M 50529M 50529B 50547M
                                                 50548M 50548B 50586M 50587M 50587B 50595M 50596M 50596B 50600M 50601M
                                                 50601B 50619M 50620M 50620B 50639M 50640M 50640B 50648M 50649M 50649B
                                                 50653M 50654M 50654B 50662M 50674  50676  50676  50676  50711M 50774M
                                                 50775M 50775B 50779M 50780M 50780B 50811M 50812M 50812B 50815M 50877M
                                                 50878M 50878B 50882M 50883M 50883B 50906M 50907M 50907B 50910M 50911M
                                                 50911B 50913M 50917M 50929  50966M 50967M 50967B 50971M 50972M 50972B
                                                 51030M 51033M 51036M 51037B 51088  51090  51090  51090  51278M 51395M
                                                 51396M 51396B 51400M 51401M 51401B 51419M 51420M 51420B 51428M 51429M
                                                 51429B 51467M 51468M 51468B 51476M 51477M 51477B 51525M 51526M 51526B
                                                 51534M 51535M 51535B 51583M 51584M 51584B 51592M 51593M 51593B 51597M
                                                 51598M 51598B 51608M 51617  51619  51619  51619  51654M 51655M 51655B
                                                 51659M 51673M 51674M 51674B 51682M 51683M 51683B 51687M 51688M 51688B
                                                 51709M 51710M 51710B 51867M 51868M 51868B 51906M 51916M 51936  51938
                                                 51938  51938  52017M 52038M 52329M 52330M 52330B 52434M 52435M 52435B
                                                 52450M 52451M 52451B 52533M 52534M 52534B 52572M 52573M 52573B 52588M
                                                 52589M 52589B 52611M 52615M 52619M 52621M 52630M 52631M 52631B 52646M
                                                 52647M 52647B 52744M 52746M 52812M 52813M 52813B 52833M 52834M 52834B
                                                 52864M 52865M 52865B 52912M 52913M 52913B 52921M 52922M 52922B 52938M
                                                 52939M 52939B 52959M 52960M 52960B 53041M 53077B 53104B 53127M 53128M
                                                 53128B 53143M 53144M 53144B 53215M 53216M 53216B 53254M 53255M 53255B
                                                 53263M 53264M 53264B 53291M 53292M 53292B 53311M 53312M 53312B 53320M
                                                 53321M 53321B 53357M 53358M 53358B 53381M 53382M 53382B 53395M 53396M
                                                 53396B 53402M 53422M 53423M 53423B 53446M 53447M 53447B 53466M 53467M
                                                 53467B 53475M 53476M 53476B 53479M 53500M 53501M 53501B 53509M 53510M
                                                 53510B 53531M 53532M 53532B 53535M 53562M 53563M 53563B 53603M 53604M
                                                 53604B 53624M 53625M 53625B 53651M 53652M 53652B 53673M 53674M 53674B
                                                 53694M 53695M 53695B 53741M 53742M 53742B 53762M 53763M 53763B 53803M
                                                 53804M 53804B 53824M 53825M 53825B 53851M 53852M 53852B 53873M 53874M
                                                 53874B 53894M 53895M 53895B 53932M 53955M 53956M 53956B 53976M 53977M
                                                 53977B 54016M 54017M 54017B 54055M 54056M 54056B 54064M 54065M 54065B
                                                 54107M 54108M 54108B 54132M 54133M 54133B 54160M 54161M 54161B 54199M
                                                 54200M 54200B 54224M 54225M 54225B 54238M 54268M 54269M 54269B 54289M
                                                 54290M 54290B 54333M 54339M 54345M 54364M 54642M 54643M 54643B 54651M
                                                 54652M 54652B 54675M 54676M 54676B 54712M 54713M 54713B 54736M 54737M
                                                 54737B 54745M 54746M 54746B 54811M 54841M 54858M 54919  54924M 54925M
                                                 54925B 54944M 54945M 54945B 54949M 54950M 54950B 54960M 54961M 54961B
                                                 54964M 54965B 54975  54976  54976  54976  54984M 54985M 54985B 54989M
                                                 54990M 54990B 54992M 54996M 55019M 55020M 55020B 55024M 55025M 55025B
                                                 55057M 55058M 55058B 55066M 55067M 55067B 55071M 55072M 55072B 55089M
                                                 55090M 55090B 55108M 55116M 55117M 55117B 55155M 55156M 55156B 55160M
                                                 55161M 55161B 55194M 55195M 55195B 55203M 55204M 55204B 55208M 55209M
                                                 55209B 55245M 55246M 55246B 55279M 55280M 55280B 55298M 55299M 55299B
                                                 55303M 55304M 55304B 55317M 55318M 55318B 55331M 55332M 55332B 55367M
                                                 55368B 55378  55379  55379  55379  55387M 55388M 55388B 55392M 55393M
                                                 55393B 55395M 55399M 55417M 55418M 55418B 55422M 55423M 55423B 55444M
1VDMP     (VDMP21) (09:46) (22MAR04) Ordinary Symbol and Literal Cross Reference                                            Page  378
                                                 55445M 55445B 55453M 55454M 55454B 55458M 55483M 55484M 55484B 55501M
                                                 55502M 55502B 55514M 55515M 55515B 55535M 55536M 55536B 55540M 55541M
                                                 55541B 55560M 55561M 55561B 55593M 55594M 55594B 55602M 55603M 55603B
                                                 55627M 55628M 55628B 55656M 55657M 55657B 55669M 55670M 55670B 55691M
                                                 55692M 55692B 55696M 55697M 55697B 55702M 55703M 55703B 55730M 55731M
                                                 55731B 55739M 55740M 55740B 55778M 55779M 55779B 55787M 55788M 55788B
                                                 55826M 55827M 55827B 55835M 55836M 55836B 55840M 55841M 55841B 55859M
                                                 55860M 55860B 55868M 55869M 55869B 55907M 55908M 55908B 55916M 55917M
                                                 55917B 55955M 55956M 55956B 55964M 55965M 55965B 55969M 55970M 55970B
                                                 55993M 55994M 55994B 56022M 56023M 56023B 56133M 56141M 56142M 56142B
                                                 56180M 56181M 56181B 56185M 56186M 56186B 56208M 56209M 56209B 56212M
                                                 56213M 56213B 56246M 56247M 56247B 56251M 56265M 56266M 56266B 56274M
                                                 56275M 56275B 56313M 56314M 56314B 56318M 56319M 56319B 56352M 56353M
                                                 56353B 56357M 56358M 56358B 56381M 56389M 56390M 56390B 56428M 56429M
                                                 56429B 56433M 56434M 56434B 56464M 56465M 56465B 56473M 56474M 56474B
                                                 56492M 56493M 56493B 56497M 56498M 56498B 56527M 56528M 56528B 56531M
                                                 56532M 56532B 56565M 56566M 56566B 56570M 56584M 56585M 56585B 56589M
                                                 56590M 56590B 56623M 56624M 56624B 56628M 56629M 56629B 56653M 56654M
                                                 56654B 56680M 56681B 56689  56719M 56720M 56720B 56728M 56729M 56729B
                                                 56749M 56750M 56750B 56758M 56759M 56759B 56762M 56763B 56771  56772
                                                 56772  56772  56776M 56777M 56777B 56796M 56797M 56797B 56805M 56806M
                                                 56806B 56810M 56811M 56811B 56820M 56897M 56898M 56898B 56906M 56907M
                                                 56907B 56911M 56912M 56912B 57005M 57006M 57006B 57017M 57018M 57018B
                                                 57022M 57023M 57023B 57041M 57042M 57042B 57083M 57084M 57084B 57092M
                                                 57093M 57093B 57097M 57098M 57098B 57116M 57117M 57117B 57158M 57159M
                                                 57159B 57167M 57168M 57168B 57172M 57173M 57173B 57191M 57192M 57192B
                                                 57233M 57234M 57234B 57242M 57243M 57243B 57247M 57248M 57248B 57252M
                                                 57253M 57253B 57261M 57262M 57262B 57300M 57301M 57301B 57309M 57310M
                                                 57310B 57314M 57315M 57315B 57333M 57334M 57334B 57342M 57343M 57343B
                                                 57381M 57382M 57382B 57390M 57391M 57391B 57395M 57396M 57396B 57535M
                                                 57543M 57544M 57544B 57548M 57549M 57549B 57552M 57553B 57640  57640
                                                 57640  58284M 58285M 58285B 58303M 58304M 58304B 58312M 58313M 58313B
                                                 58350M 58351M 58351B 58395M 58396M 58396B 58483M 58490M 58494M 58495M
                                                 58495B 58515M 58516M 58516B 58565  58566  58566  58566  58884M 58885B
                                                 59035B 59117  59261M 59264B 59289  59435M 59438B 59498  59498  59498
 RATECOMP      2 00000276 00000001     H   16381 21765B 21826B 53402B 54339B 54345B
 RBBASIC       1 00000040 FFFFFFC6     U   11391 31270
 RBCDE         4 0000004C FFFFFFC6     A   11899 31270
 RBEP          4 0000004C FFFFFFC6     A   11791 11898
 RBPGMQ        4 00000058 FFFFFFC6     A   11799 11916  11925  11930
 RBPREFIX      1 00000000 FFFFFFC6     U   11622 11945
 RBPRFX        1 00000000 FFFFFFC6     J   11389 11620
 RBPRFXND      1 00000040 FFFFFFC6     C   11733 11945  11947
 RBPRFXST      8 00000020 FFFFFFC6     D   11662 11947  11948  11949  11950  11951  11953
 RDC_SCD4      1 00000009 FFFFFFB8     R   13863 13867  13872  13877  13882  13887  13892  13897  13902
 RDLVL         4 00000120 FFFFFFA5     A   14642 17837  17843M 31310M
 READFNC       2 00000746 00000001     H   17251 15907
 READFS        4 00007A28 00000001     I   45745 38093
 RECROUT       2 00000674 00000001     H   17035 15611  17043U 17087U 33673
 RELLOCK       2 00000326 00000001     H   16609 39504B 40951B 42701B 46262B 53535B 54238B 54364B
 RET_BLK       1 00000008 FFFFFFFF A   C    1242 46726
 RET_SUB       1 00000024 FFFFFFFF A   C    1249 21137
 RET_WARN      1 00000004 FFFFFFFF A   C    1241 17393  18170  25024  28709  28774  31031  31151  40560  45538  45641
                                                 46378  47908
 RETCODE       4 00000058 FFFFFFA5     A   14605 15892M 15958M 16230  16236M 16860M 17393M 18003M 18074M 18145M 18170M
                                                 18488M 19688  19704  20752  24385M 24684M 25024M 25054M 25363M 25861M
                                                 27338M 28067M 28224M 28709M 28774M 29837M 30031M 30298M 30625M 30656M
                                                 31031M 31151M 33509M 33556M 33581M 33620M 33639M 35378M 37276M 37963M
                                                 47908M 48511M 48603M 48700M 48783M 48911M 49013M 49109M 49458M 50884M
1VDMP     (VDMP21) (09:46) (22MAR04) Ordinary Symbol and Literal Cross Reference                                            Page  379
                                                 51599M 51711M 54951M 56812M 56913M
 RETRYCCW     32 00007A08 00000001     X   44843 45366  45366
 RMBRANCH      1 00000000 00000000 A   T   10268 10268
 RPTPOOL       2 00002FB4 00000001     H   27556 19919
 RR            5 00000005 FFFFFFFF A   #    1062 17089M 17097U 17199  20856M 20857M 20858M 20868U 20873  21328  34276M
                                                 34276  34382M 34440  35705M 35713U 38341M 38349U 39299M 39301M 39302M
                                                 39303  39304M 39305  39923M 39923  39966  39972M 39986  40041U 40086M
                                                 40228M 41129M 41145M 42363M 42371U 42413  42942  43987M 43988M 43988
                                                 43996  44027M 44028  44077  44195M 44205U 44218M 44219  44238U 44260M
                                                 44873M 44881  45305M 45313U 45325M 45365M 45370M 45370  45374  45375M
                                                 45375  45378M 45378  46347U 46416M 46442  46461  46468M 46468  46893M
                                                 46893  48033U 48035M 48290  56828U 56830M 56863  56871
 RTRIM         2 00000180 00000001     H   16051 19558B 24536B 24819B 24974B 25299B 27091B 27308B 31652B 33479B 33526B
                                                 38630B 39680B 42430B 44513B 48941B 49848B 49876B 50052B 51278B 51659B
                                                 55458B 56251B 56570B
 R0            0 00000000 FFFFFFFF A   #     706 15789M 16060M 16060  16073  16097M 16149  16281M 16282M 16282  16315M
                                                 16398M 16401M 16402M 16403M 16404M 16496M 16496  16500M 16541  16545M
                                                 16646M 16671M 16819M 16867M 16873M 16901M 16902  16904M 16905  16906M
                                                 16907  17056  17924M 18033M 18082M 18088M 18128M 18152M 18711M 18712M
                                                 18713  18781M 19052M 19085M 19086  19123M 19124M 19125  19152M 19556M
                                                 19575M 19774M 19878M 20292M 20356M 20408M 20457M 20511M 20651M 20754M
                                                 20765M 20876M 20877M 20878  20910M 21072M 21074M 21076M 21077M 21327M
                                                 21562M 21564M 21566M 21567M 21758M 21760  21761  21761  21761  21767M
                                                 21822M 21828M 21989M 22009M 22010M 22010  22055M 22081  22082M 22087M
                                                 22123M 22124M 22124  22249M 22275M 22276M 22276  22303M 22304M 22304
                                                 22309M 23124M 23125M 23438  23438  23438  23516M 23516  23538M 23546
                                                 23561M 23561  23584M 23993M 23999M 24043M 24208M 24209  24227M 24232M
                                                 24338M 24339  24340M 24341  24344M 24346  24438M 24439M 24440  24534M
                                                 24537  24574M 24581M 24741M 24817M 24972M 25297M 25300  25303M 25313M
                                                 25474  25673  25682  25736  25749M 25818  25929M 25930  26088  26099
                                                 26234  26314  26493M 26680  26805  26914  27089M 27306M 27740M 27806M
                                                 27807  27813M 27814  27851M 27852  27854M 27855  28073M 28103M 28127M
                                                 28170M 28247M 28248M 28264M 28269M 28270M 28286M 28291  28308M 28344M
                                                 28457M 28616M 28617  28791M 28879M 28916M 28950M 28989M 29004M 29022M
                                                 29027M 29028M 29029  29030M 29031M 29031  29106M 29143M 29177M 29216M
                                                 29231M 29249M 29261M 29262M 29263  29264M 29265M 29265  29369M 29411M
                                                 29460M 29510M 29511M 29512  29549M 29550M 29551  29565M 29566M 29566
                                                 29571M 29572M 29572  29657  29679M 29679  29702  29983  30143  30251
                                                 30304M 30318M 30319M 30319  30394  30395  30419M 30424M 30425M 30425
                                                 30557M 30558  30733M 30762  30767  30789M 30821M 31333M 31334  31336M
                                                 31337  31340M 31341  31343M 31344  31637  31638  31650M 32003  32004
                                                 32004  32004  32234  32243  32438  32447  33042  33159  33339  33374
                                                 33412M 33412  33477M 33514  33524M 33866M 34022M 34022  34056M 34234
                                                 34264M 34270M 34435M 35294M 35300M 35350M 35351  35426M 35427  35467M
                                                 35468  35470M 35471  35472M 35473  35474M 35475  35476M 35477  35478M
                                                 35479  35480M 35481  35486M 35487  35499M 35500  35501M 35502  35561M
                                                 35562  35655M 35658M 35661M 35791M 35792M 35793  35794M 35795  35796M
                                                 35797  36023M 36024M 36025  36833M 37418M 37419M 37644M 37744M 37745
                                                 37762M 37771M 37771  37787M 37798M 38376M 38377M 38378  38379M 38380
                                                 38628M 38631  39677M 39951M 39956M 39986M 40095M 40179  40564M 40565M
                                                 40566  40642M 40643  40692M 40710M 40723  40737M 40738M 40738  40787M
                                                 40788M 40789  40797M 40798M 40799  41037M 41038M 41039  41048M 41048
                                                 41257M 41271  42148M 42150M 42152M 42153M 42232M 42381M 42388  42389M
                                                 42403M 42403  42412M 42427M 42431  42466M 42467  42473M 42474  42475M
                                                 42476  42696M 42697M 42698  42767M 42768M 42769  42843M 42844M 42845M
                                                 42846M 42849M 42850M 42852M 43080M 43085M 43086  43088M 43089  43599M
                                                 43617  43620  43644M 43645  43647  43947M 43948M 44258M 44259  44421M
                                                 44441M 44510M 44874M 44880M 44954M 44955  44987M 44988  45019M 45020
                                                 45051M 45052  45056M 45057  45127M 45156M 45157M 45157  45178M 45179M
1VDMP     (VDMP21) (09:46) (22MAR04) Ordinary Symbol and Literal Cross Reference                                            Page  380
                                                 45180  45226M 45252  45257M 45279M 45280  45283M 45420M 45421  45422M
                                                 45791M 45792M 45927M 45929  45978M 45981M 45983M 45984M 45985M 45989M
                                                 45989  45990M 45991  45992M 45997  46001  46015M 46019M 46022M 46023M
                                                 46024  46243M 46244M 46245  46249M 46250M 46251  46252M 46253M 46254
                                                 46256M 46257M 46258  46635M 46641M 46666M 46667M 46681M 46681  47675M
                                                 47720  47721M 47761M 47986  48178M 48626M 48655M 48715M 48806M 48939M
                                                 48970M 49048M 49133M 49150M 49258M 49259  49399M 49399  49409M 49465M
                                                 49487M 49489  49558M 49576M 49588M 49743M 49846M 49874M 50050M 50053
                                                 50165M 50166  50441M 50443  50624M 50625M 50719M 50720  51276M 51279
                                                 51657M 51763M 51797M 51803  51840M 51841M 51842  51880M 51881  51907M
                                                 52283M 52291M 52297M 52601M 52602  52613M 52617M 52732M 52733M 52734
                                                 52742M 52923M 52962M 53039M 53165M 53175M 53339M 53398M 53404M 53482M
                                                 53513M 53642M 53655M 53842M 53855M 54335M 54341M 54747M 54778M 54784M
                                                 54894M 55086M 55106M 55241M 55314M 55328M 55456M 55467M 55467  55474
                                                 55475  55475  55475  55487M 55516M 55557M 55672M 55699M 55990M 56019M
                                                 56074M 56074  56094M 56119  56131M 56204M 56249M 56349M 56379M 56523M
                                                 56568M 56620M 56939M 56971M 56971  56979M 57002M 57008M 57641  57641
                                                 57641  57934  57936  57936  57936  57952  58030M 58048  58050  58050
                                                 58050  58201M 58226  58228  58228  58228  58244  58324M 58324  58362M
                                                 58362  58473M 58500M 58544M 58694M 58703M 58703  58843M 58960  58962
                                                 58962  58962  59006M 59012M 59032M 59162  59239  59341  59342M 59343M
                                                 59344M
 R1            1 00000001 FFFFFFFF A   #     719 15732  15773  15783  15788M 15788  15832  15978U 16072  16167  16172
                                                 16329M 16405  16497M 16499  16543  16613M 16614M 16615M 16616  16646M
                                                 16653  16700M 16700  16729M 16730M 16731M 16731  16732M 16740U 16744M
                                                 16745M 16745  16789M 16793M 16797M 16801M 16818  16866  16867  16868M
                                                 16874M 16909M 17089  17270M 18009  18080  18081  18082  18083M 18129M
                                                 18153M 18293  18705M 18781M 19049M 19053M 19092M 19107  19152M 19552M
                                                 19555M 19574M 19608M 19668M 19671  19778M 19778  20293M 20355M 20409M
                                                 20458M 20512M 20568M 20638M 20639M 20639  20701M 20711U 20735M 20753M
                                                 20849  20873M 20910M 21072M 21118M 21119M 21300M 21328M 21385M 21385
                                                 21562M 21758M 21760  21761  21761  21761  21766M 21822M 21827M 21942
                                                 21956M 21959  22003U 22038M 22050U 22056M 22076U 22113U 22118M 22221
                                                 22235M 22238  22248M 22254  22288M 22291  22443  23438  23438  23438
                                                 23536M 23545  23793M 23968  23983  23993  23994M 24042M 24055M 24162
                                                 24170  24187M 24188  24190M 24191  24192M 24193  24195M 24203U 24220M
                                                 24226M 24307M 24521  24523  24533M 24537M 24575M 24634M 24742M 24816M
                                                 24971M 25101  25102  25102  25102  25103  25259M 25278  25296M 25300M
                                                 25302M 25386U 25748M 25818  25867  25946M 25947  25948  26247M 26265M
                                                 26327M 26345M 26492M 26494  27088M 27305M 27517  27517  27517  27688M
                                                 27739  27741M 27787M 27789  27790M 27790  27791  28020M 28023  28040M
                                                 28041M 28041  28078  28125M 28126M 28126  28132  28245M 28246M 28252M
                                                 28279M 28279  28307M 28343M 28461M 28461  28584M 28600M 28601  28611U
                                                 28626M 28627  28628M 28629  28630M 28631  28632M 28633  28644M 28722M
                                                 28734M 28742U 28792M 28797  28862M 28873M 28873  28888  28891M 28892M
                                                 28892  28915M 28938U 28972M 28983M 28983  29001U 29009M 29089M 29100M
                                                 29100  29115  29118M 29119M 29119  29142M 29165U 29199M 29210M 29210
                                                 29228U 29236M 29355M 29358  29368M 29374  29414M 29415M 29415  29444
                                                 29701  29843  29868M 29869  30252M 30255  30269M 30278M 30278  30309
                                                 30324M 30395M 30398  30399M 30402  30589M 30608M 30662M 30762  30790M
                                                 30822M 31075M 31091M 31107M 31123M 31266M 31267M 31267  31268M 31269M
                                                 31269  31270M 31270  31271M 31271  31272M 31272  31273  31459  31639
                                                 31649M 31963M 31973U 32881M 33476M 33514  33524M 33838  33854  33865M
                                                 34055M 34249  34264  34265M 34434M 34459M 34462M 34462  34463M 34463
                                                 34464M 34464  34465  35228  35293  35294  35295M 35384  35386  35411M
                                                 35421U 35507M 35508  35509M 35525M 35654M 35659  35660M 36026M 36042M
                                                 36818M 36827M 36827  36953M 36977M 37029M 37030  37145M 37153U 37208M
                                                 37257M 37416M 37419  37645M 37729M 37738M 37738  37762M 37786M 38297M
                                                 38298  38299M 38300  38301M 38302  38303M 38304  38305M 38306  38307M
1VDMP     (VDMP21) (09:46) (22MAR04) Ordinary Symbol and Literal Cross Reference                                            Page  381
                                                 38308  38309M 38310  38311M 38312  38313M 38314  38315M 38316  38341
                                                 38351M 38354  38363U 38467M 38468  38500M 38501  38502M 38503  38504M
                                                 38505  38506M 38507  38508M 38509  38510M 38511  38512M 38513  38514M
                                                 38515  38516M 38517  38518M 38519  38520M 38521  38522M 38523  38524M
                                                 38525  38526M 38527  38528M 38529  38530M 38531  38571M 38572  38573M
                                                 38574  38575M 38576  38627M 38631M 38663M 38680M 38948M 38963M 38964
                                                 39447M 39457U 39678M 39902  39948M 39950M 39950  39966  39972  40010
                                                 40012  40012  40012  40093M 40095  40115M 40115  40131M 40144M 40149
                                                 40162M 40171M 40171  40172M 40172  40177  40178  40612M 40613M 40614
                                                 40615M 40623U 40677M 40687U 40758M 40775M 40782  40843M 40853U 41371M
                                                 42148M 42233M 42363  42388M 42412  42413M 42428M 42431M 42703M 42793M
                                                 42847  42848  42851  42853  42854  42942M 43041M 43079  43080  43081M
                                                 43371M 43372  43375M 43383U 43539M 43540  43541M 43542  43543M 43544
                                                 43606M 43619  43620M 43621M 43623  43646M 43647M 43649  43956M 43961
                                                 43962  43977M 43978  43979M 43980  43996M 44027  44511M 44853  44855
                                                 44855  44855  44875M 45125M 45126M 45128  45169M 45185  45227M 45246M
                                                 45246  45258M 45282M 45284M 45285  45385M 45416  45423M 45745  45747
                                                 45747  45747  45793M 45928M 45929M 45930  45933  45935M 45951M 45977M
                                                 45982  45991  45992M 46015M 46024  46291M 46496M 46497M 46509  46551M
                                                 46554M 46555  46578M 46579M 46580  46627M 46629  46636M 46648M 46651M
                                                 46653  46658M 46897M 46898M 46899  47015M 47074M 47074  47075M 47604M
                                                 47676M 47720  47722M 47762M 48035  48039M 48049U 48068  48163M 48172M
                                                 48172  48231M 48241U 48277M 48481M 48529M 48532  48567M 48568M 48568
                                                 48640U 48673M 48674M 48674  48720  48747M 48748M 48748  48811  48812M
                                                 48813  48884M 48938M 48986M 48987M 48987  49042M 49042  49057  49122U
                                                 49136  49144M 49188M 49189  49221U 49226M 49268M 49269  49289M 49290
                                                 49299M 49300  49302M 49303  49305M 49306  49308M 49309  49311M 49312
                                                 49323M 49373U 49378M 49464  49465  49472M 49482U 49520M 49523  49534M
                                                 49552M 49552  49563  49573M 49582M 49663M 49684  49734M 49735  49738M
                                                 49743  49845M 49873M 49985M 49986  50006M 50007  50017M 50018  50020M
                                                 50021  50023M 50024  50026M 50027  50029M 50030  50048M 50049  50053M
                                                 50095M 50150U 50155M 50189M 50250M 50322M 50327  50340M 50340  50341M
                                                 50342M 50350U 50426M 50436U 50486M 50508M 50622M 50625  50709M 50813M
                                                 50978  51028M 51031M 51153M 51154  51188M 51189  51190M 51191  51192M
                                                 51193  51194M 51195  51196M 51197  51198M 51199  51200M 51201  51202M
                                                 51203  51204M 51205  51206M 51207  51208M 51209  51210M 51211  51212M
                                                 51213  51214M 51215  51216M 51217  51218M 51219  51259M 51260  51261M
                                                 51262  51263M 51264  51275M 51279M 51369M 51656M 51689M 51731  51752U
                                                 51757M 51764M 51886M 51887M 51888  51904M 51908M 52036M 52252  52290
                                                 52291  52292M 52344  52686M 52686  52817M 52817  52818M 52924M 52943M
                                                 52943  52944M 52963M 53164M 53268M 53268  53269M 53270M 53337M 53398M
                                                 53403M 53427M 53427  53428M 53429M 53481M 53512M 53539M 53539  53540M
                                                 53541M 53608M 53608  53609M 53641M 53643  53654M 53678M 53678  53679M
                                                 53746M 53746  53747M 53808M 53808  53809M 53841M 53843  53854M 53878M
                                                 53878  53879M 53960M 53960  53961M 54208M 54208  54209M 54273M 54273
                                                 54274M 54335M 54341M 54777  54778  54779M 54878M 54921M 54994M 54997
                                                 55085M 55091  55242M 55247  55397M 55400  55455M 55474  55475  55475
                                                 55475  55487M 55516M 55544M 55545M 55545  55562  55671M 55977M 55978M
                                                 55978  55995  56006M 56007M 56007  56024  56078M 56078  56114M 56119
                                                 56205M 56214  56248M 56354M 56359  56524M 56533  56567M 56625M 56630
                                                 56694M 56694  56773M 56818M 56830  56960M 56960  56977M 56992  56998M
                                                 57000M 57001M 57001  57007  57009  57533M 57641  57641  57641  58264
                                                 58268  58272  58325M 58363M 58401M 58409U 58472M 58484  58500  58501M
                                                 58588  58868  58924U 59005  59006  59007M 59172M 59172  59178  59203U
                                                 59239M 59362U
 R12          12 0000000C FFFFFFFF A   #     862 15721  15766M 15825M 17078  20765M 35217  37798M 48009  52231  52283M
                                                 53175M 54309  54372M 57951  58065  58243
 R13          13 0000000D FFFFFFFF A   #     875 15791  15832M 15833  16542  17099  17102M 17192M 20734M 35385  35386M
                                                 37785M 45426  45428  45428  45428  45433M 45796  45798  45798  45798
1VDMP     (VDMP21) (09:46) (22MAR04) Ordinary Symbol and Literal Cross Reference                                            Page  382
                                                 45803M 48036  48068M 48277  48283M 52322  52323M 53163M 54328  54329M
                                                 54371M
 R14          14 0000000E FFFFFFFF A   #     888 15721  15766M 15768B 15825M 15827B 16406M 16407M 16453M 16454M 16455M
                                                 16467  16498  16873M 17066B 17078  18088M 20719M 20763M 20766B 23999M
                                                 24581M 25101  25102  25102  25102  25259M 25264B 25746  25747  25747
                                                 25747  25992M 26551  26552  26552  26552  26578M 26977  26978  26978
                                                 26978  27003M 27047  27048  27048  27048  27214M 27517  27517  27517
                                                 27522  27522  27522  27524  27524  27524  27852M 31987M 33398  33399
                                                 33399  33399  33441M 33451M 33711  33711  33711  34270M 35217  35300M
                                                 37797M 37799B 39492M 39788B 39790B 39820B 40860M 42230M 42231M 43086M
                                                 45230M 45430M 45800M 45931M 46657M 46657  47996B 48009  49632  49668M
                                                 49669B 52231  52282M 52284B 52297M 53174M 53176B 53206  53207  53207
                                                 53207  53566M 53583  53584  53584  53584  53708M 53725  53726  53726
                                                 53726  53766M 53783  53784  53784  53784  53902M 53919  53920  53920
                                                 53920  54248M 54259  54260  54260  54260  54293M 54309  54372M 54377B
                                                 54426  54426  54426  54784M 58069M 58069  58108M 58154M 58154  58175M
                                                 58175  58197M 58197  58226  58228  58228  58228  58544M 58932B 58934B
                                                 58960  58962  58962  58962  59012M 59032M 59402M
 R15          15 0000000F FFFFFFFF A   #     901 15722  15760M 15760  15767M 15819M 15819  15826M 15898M 15899M 15900M
                                                 15901B 16230  16236  16390M 16390  16427M 16427  16452  16840M 16840
                                                 16872M 16872  16916M 16916  17043U 17065M 17065  17079  17876  17943M
                                                 17943  17949  18054M 18054  18087M 18087  18209M 18209  18215  18782M
                                                 19108M 19114  19153M 19779M 20688M 20689M 20689  20719B 20764M 20911M
                                                 20988M 21078M 21137M 21155M 21156M 21169  21419M 21419  21568M 21763M
                                                 21824M 21891M 21891  22172M 22172  22358M 22358  22445  22567M 22625M
                                                 22759M 23127M 23264M 23264  23324M 23324  23330  23384M 23414M 23414
                                                 23615M 23615  23778M 23797M 23797  23837M 23837  23998M 23998  24033
                                                 24056M 24082M 24082  24224  24233M 24259M 24259  24579M 24579  24580M
                                                 24740M 25147M 25148M 25199M 25200M 25201M 25334M 25334  25841M 25841
                                                 26551  26552  26552  26552  26578M 26977  26978  26978  26978  26994
                                                 27003M 27064  27524  27524  27524  27849M 27855M 27856  27942M 27942
                                                 28406M 28462M 28538M 28538  28656M 28656  29290M 29290  29309M 29309
                                                 29602M 29602  29937M 29937  30097M 30097  30198M 30198  30348M 30348
                                                 30453M 30453  30602M 30602  30619M 30619  30962M 30962  30968  31452M
                                                 31452  31458  31761M 31762M 31888M 31888  31950M 31951M 31951  31987B
                                                 31996M 31996  32003  32004  32004  32004  33398  33399  33399  33399
                                                 33432  33442  33451M 33711  33711  33711  33830  33982M 34269M 34269
                                                 34318M 34318  34416M 34416  34440M 34444M 34444  35218  35251M 35251
                                                 35271M 35272  35299M 35299  35372M 35372  35537M 35537  35659M 35810M
                                                 35810  36054M 36054  36060  36157M 36215M 36989M 36989  37044M 37044
                                                 37050  37125M 37125  37270M 37270  37679M 37679  37793M 37803  37906M
                                                 38046  38052  38238M 38238  38255M 38692M 38692  38698  38795M 38853M
                                                 38911M 39067M 39067  39073  39319M 39319  39325  39429M 39434M 39435M
                                                 39435  39492B 39502M 39711M 39711  39809U 39846U 39860M 39860  40839M
                                                 40842M 40860B 40872  40907  40949M 41388M 42095M 42095  42154M 42229M
                                                 42492M 42699M 42715M 42715  42734  42826M 42826  42841M 42842M 42845
                                                 42846  42850  42946M 42946  43083M 43089M 43090  43242M 43242  43419
                                                 43436M 43436  43442M 43476M 43499M 43499  43511  43512M 43549M 43549
                                                 43567  43568M 43910M 44810M 44810  44818M 45229M 45231M 45255  45257
                                                 45429M 45430B 45799M 45800B 45866M 45930M 45932  46237M 46260M 46266M
                                                 46266  46283M 46378M 46664M 46690  46726M 46764M 46816M 47021M 47281M
                                                 47335M 47402M 47456M 47520M 47522M 47524M 47839M 47839  47845  47970U
                                                 47995M 47995  48010  49089M 49089  49335M 49335  49438M 49438  49699M
                                                 49699  49756M 49756  49803M 49803  50067M 50067  50107M 50107  50658M
                                                 50658  50953M 50953  51381M 51381  51387  51484M 51542M 51701M 51701
                                                 52232  52275M 52275  52281M 52296M 52296  52519M 52519  52525  52871M
                                                 53173M 53173  53274M 53274  53275M 53338M 53400M 53430M 53477M 53480M
                                                 53511M 53533M 53545M 53545  53546M 53653M 53853M 53930M 54236M 54310
                                                 54331M 54337M 54340  54343M 54346  54362M 54376M 54376  54768M 54768
1VDMP     (VDMP21) (09:46) (22MAR04) Ordinary Symbol and Literal Cross Reference                                            Page  383
                                                 54783M 54783  54874M 54874  54907M 55517M 55673M 55741M 55789M 55870M
                                                 55918M 56695M 57934  57936  57936  57936  58030M 58048  58050  58050
                                                 58050  58201M 58338M 58338  58376M 58376  58484M 58747  58910U 58999M
                                                 58999  59011M 59011  59024M 59024  59263M 59263  59335M 59335  59342
                                                 59377M 59387U 59393M 59402B 59408M 59437M 59437
 R2            2 00000002 FFFFFFFF A   #     732 19671M 19688  19704  19718U 21959M 21969U 22443M 22444  22707  22810M
                                                 22837M 22838M 22838  22870  23214M 23476  23545M 23546M 23548M 23582M
                                                 23611M 25103M 29997U 30143M 30144M 30145M 30146M 30146  30147M 30157U
                                                 31458M 31575  31638M 31874M 31877  32021M 32056  32243M 32246M 32248
                                                 32447M 32450M 32452  33709  33709  33709  38957M 38958  39018M 39028U
                                                 39465M 39466  39467M 39468  39478U 45228M 45256M 45424M 45794M 55400M
                                                 55408U 59352M 59368M
 R3            3 00000003 FFFFFFFF A   #     745 16185  16194M 16194  21942M 21952U 22445M 22486  22752M 22811M 22915M
                                                 31459M 31527  31639M 31761  31813M 31814M 31821  32021M 32104  33709
                                                 33709  33709  38470M 38486M 38491  45416M 45417  45677  51156M 51172M
                                                 51177  55562M 55572U 57410M 57420U
 R4            4 00000004 FFFFFFFF A   #     758 15732M 15834  16184M 16200  29444M 29454U
 R5            5 00000005 FFFFFFFF A   #     771 22981M 22989  23101M 23101
 R6            6 00000006 FFFFFFFF A   #     784 22922M 22930  23040M 23048  23118  23124  23195
 R8            8 00000008 FFFFFFFF A   #     810 22439U 45426  45428  45428  45428  45433M 45796  45798  45798  45798
                                                 45803M 59151U 59323U
 SBCV_DEF      2 0000290A 00000001     H   27031 27468
 SCAN          1 00000000 0000000E     T   27492 27492  33685  54416
 SCANCB        4 000003F4 FFFFFFA5     F   15054 15065  24462  27074U 31376
 SCANKW        8 000003F8 FFFFFFA5     C   15056 27088
 SCANLEN       4 00000400 FFFFFFA5     A   15057 27199M 27199
 SCCWTYPE      1 0000005E FFFFFF9E     R   34673 34680  34688  34696  34704  34712  43343M
 SCERR         8 00000434 FFFFFFA5     C   15080 32194M 32272M 32311M 32381M 32412M 32482M 32513M 32627M 32666M 33002M
                                                 33119M 33240M 33476
 SCINIT        1 00000000 0000000D     T   27491 27491  33684  54415
 SCN2CB        4 00000414 FFFFFFA5     F   15068 15079  25765  25787
 SDWA          1 00000000 FFFFFFE8     J    3794  4790   5533  17097U 17200M 48033U 48291M
 SDWACLEN      8 000001C8 FFFFFFE0 A   U    4793  4800   4801
 SDWACMPF      1 00000004 FFFFFFE8     B    3810 17151  48093
 SDWADEND      8 000000F0 FFFFFFE0     D    4787  4797
 SDWADLEN      8 000000F0 FFFFFFE0 A   U    4797  4798
 SDWAEEND      8 00000150 FFFFFFE4     D    4738  4799
 SDWAELEN      8 00000150 FFFFFFE0 A   U    4799  4800   4801   4808
 SDWAEND       8 00000298 FFFFFFE8     D    4433  4790
 SDWAIEND      8 00000010 FFFFFFE6     D    4660  4794
 SDWAILEN      8 00000010 FFFFFFE0 A   U    4794  4800   4801
 SDWALEN       8 00000298 FFFFFFE0 A   U    4790  4801
 SDWALEND      8 00000020 FFFFFFE5     D    4708  4795
 SDWALLEN      8 00000020 FFFFFFE0 A   U    4795  4800   4801
 SDWAMLEN      8 00000600 FFFFFFE0 A   U    4802  4805   4811
 SDWAMLNP      8 000005E0 FFFFFFE0 A   U    4801  4802
 SDWANLNS      8 000001F0 FFFFFFE0 A   U    4798  4805   4813
 SDWANOPR      1 00000000 FFFFFFE0 A   U    4816 17195B 48286B
 SDWANRC1      1 00000000 FFFFFFE2     J    4762  4792
 SDWANRC2      1 00000000 FFFFFFE1     J    4771  4796
 SDWANRC3      1 00000000 FFFFFFE0     J    4784  4797
 SDWAPARM      4 00000000 FFFFFFE8     A    3796 17101  48038
 SDWAPEND      8 00000020 FFFFFFE3     D    4756  4791
 SDWAPLEN      8 00000020 FFFFFFE0 A   U    4791  4802
 SDWAPTRS      1 00000000 FFFFFFE3     J    4747  4791
 SDWARCDE      1 000000FC FFFFFFE8     B    4227 17200M 48291M
 SDWARC1       1 00000000 FFFFFFE7     J    4435  4793
 SDWARC2       1 00000000 FFFFFFE6     J    4654  4794
 SDWARC3       1 00000000 FFFFFFE5     J    4666  4795
1VDMP     (VDMP21) (09:46) (22MAR04) Ordinary Symbol and Literal Cross Reference                                            Page  384
 SDWARC4       1 00000000 FFFFFFE4     J    4716  4799
 SDWAREND      8 000000F0 FFFFFFE2     D    4764  4792
 SDWARLEN      8 000000F0 FFFFFFE0 A   U    4792  4798
 SDWASEN       8 00000010 FFFFFFE1     D    4777  4796
 SDWASEND      8 000001C8 FFFFFFE7     D    4648  4793
 SDWASLEN      8 00000710 FFFFFFE0 A   U    4811  4813
 SDWASPL       8 00000010 FFFFFFE0 A   U    4796  4798
 SDWATLEN      8 000007F0 FFFFFFE0 A   U    4805  4808
 SDWATRAN      4 00000074 FFFFFFE8     A    3956  3958
 SDYNBLK       4 000003B4 FFFFFFA5     A   15021 16909  30558M 30559M
 SDYNPRM       4 000003B8 FFFFFFA5     A   15022 15021  16889  30557  30560
 SEGB        132 00000019 FFFFFF9B     C   57767 58661
 SEGBUF      137 00000014 FFFFFF9B     C   57764 57767  57964  57995  58184  58188M 58325  58334M 58363  58372M 58380
 SEGCC         1 00000018 FFFFFF9B     C   57766 58272M 58521M 58526M 58531M 59015M
 SEGFCLOS    128 0000009D FFFFFF9B        57775 58118
 SEGFLAGS      1 0000009D FFFFFF9B     R   57771 57775  57780
 SEGLEN        2 00000014 FFFFFF9B     R   57765 57965  57996  57998  57999M 58485M 58567  59014M
 SEGMENT       2 00000214 FFFFFFA5     C   14999 25496  25524  25615  30588M 33272M 33273M
 SEND_DEF      2 00002904 00000001     H   27016 27466
 SETABORT      2 000043A4 00000001     H   32704 17006
 SETCLN        2 00004404 00000001     H   32917 16988
 SETCYL        2 000043C8 00000001     H   32795 27387
 SETDATE       2 00004430 00000001     H   33001 16996
 SETDGEN       2 000042B4 00000001     H   32271 17020
 SETDLY        2 000043CE 00000001     H   32810 17008
 SETDMP        2 00004426 00000001     H   32984 16992
 SETDTXT       2 00006112 00000001     H   39713 39136B 39406B
 SETECKD       2 000043B6 00000001     H   32750 27381
 SETEG         2 000042EC 00000001     H   32380 16976
 SETFLBCV      2 000043DA 00000001     H   32841 16982
 SETFMT        2 000043EA 00000001     H   32872 16984
 SETFUL        2 00004418 00000001     H   32951 16994
 SETHSTN       2 00004294 00000001     H   32193 17024
 SETIGEN       2 000042CA 00000001     H   32310 17022
 SETINC        2 0000440E 00000001     H   32934 16990
 SETISZE       2 00004378 00000001     H   32626 17002
 SETLST        2 000043E0 00000001     H   32855 16980
 SETNDLY       2 000043D4 00000001     H   32825 17010
 SETOFFL       2 000043FA 00000001     H   32900 16986
 SETPSTG       2 000043C2 00000001     H   32780 27385
 SETRANY       2 000043BC 00000001     H   32765 27383
 SETRETC       2 0000021C 00000001     H   16218 21139B 21158B
 SETTAPC       2 000042E0 00000001     H   32349 16972
 SETTASK       2 00004338 00000001     H   32512 17000
 SETTIME       2 0000448A 00000001     H   33118 16998
 SETTRC        2 0000438E 00000001     H   32665 17004
 SETTW         2 00004322 00000001     H   32481 16978
 SETUPDT       4 00005A2A 00000001     I   38146 38092
 SETUPFS       4 00006FC4 00000001     I   43291 38090
 SETUPIT       4 00005A7E 00000001     I   38272 38211B
 SETUPTT       4 00005BB4 00000001     I   38431 38230B
 SFILDD        2 000009F0 FFFFFF9E     R   34998 34982  35470  35488M 36019M
 SFILDISP      2 00000A4E FFFFFF9E     R   35003 34984  35474  35493M 35494M
 SFILDSN       2 000009FE FFFFFF9E     R   34999 34983  35472  35489M 35746M
 SFILFRE       2 00000A30 FFFFFF9E     R   35000 34987  35480  35490M
 SFILPTRS      4 000009D0 FFFFFF9E     A   34982 35471M 35473M 35475M 35477M 35479M 35481M 35482M 35486  35561  35774M
                                                 35992M
 SFILUNIT      2 00000A34 FFFFFF9E     R   35001 34985  35478  35491M 35495M
 SFILVOL       2 00000A42 FFFFFF9E     R   35002 34986  35476  35492M 35775M 35856M 35857M 35904
1VDMP     (VDMP21) (09:46) (22MAR04) Ordinary Symbol and Literal Cross Reference                                            Page  385
 SFLCYL       32 0000005E FFFFFF9E        34696 40063  40063  41030  41030  44930  44930  44931  44931  44932  44932
                                                 45102  45102  45204  45204  45220  45529  45529  45530  45530  45653
                                                 45653  45654  45654  45857
 SFLECKD      64 0000005E FFFFFF9E        34688 40063  40063  40064  41030  41030  41031  44927  44927  44929  44929
                                                 44931  44931  44972  45102  45102  45103  45204  45204  45205  45537M
                                                 45652  45652  45654  45654  45813  46359
 SFLGS         1 000001C8 FFFFFFA5     R   14943 14947  14952
 SFLPSTAGE
               8 0000005E FFFFFF9E        34712 44104  44583
 SFLRANY      16 0000005E FFFFFF9E        34704 44900  44928  44928  44929  44929  44932  44932  45037  45338  45528
                                                 45528  45529  45529  45531M 45579  45652  45652  45653  45653  45655M
                                                 45837
 SFLSECT     128 0000005E FFFFFF9E        34680 44927  44927  44928  44928  44930  44930  44933  44948  45528  45528
                                                 45530  45530  45661M
 SFSERREX      4 000074D4 00000001     I   44818 43879B 43928B 43971B
 SFSEXIT       2 000074CA 00000001     I   44813 43422B 43443B 43477B 43513B 43569B 43911B 44819B
 SFSIOBL       2 000074B6 00000001     I   44799 44806B
 SINIT         4 0000807C 00000001     I   47581 38079
 SIRBEND       4 000000E8 FFFFFFC6     F   11887 11949
 SKEL          8 00007A08 00000001     W   44839 44843  44843
 SOUTDD        2 000003D4 FFFFFFA5     R   15033 15027  16899M 16904
 SOUTDDNM      8 000003DA FFFFFFA5     C   15034 16903M
 SOUTOUT       2 000003E2 FFFFFFA5     R   15035 15028  16900M 16906
 SOUTPTRS      4 000003CC FFFFFFA5     A   15027 16901  16905M 16907M 16908M
 SPR          13 0000000D FFFFFFFF A   #    1190 20801  20804  20805  20806M 20806  21411M 21415  21417  21465  21468
                                                 21469  21470M 21470  21883M 21887  21889  21911  21914  21915  21916M
                                                 21916  22164M 22168  22170  22190  22193  22194  22195M 22195  22350M
                                                 22354  22356  22402  22405  22407  22408M 22408  23256M 23260  23262
                                                 23282  23285  23286  23287M 23287  23406M 23410  23412  23473  23476
                                                 23477  23478M 23478  23607M 23611  23613  23637  23640  23641  23642M
                                                 23642  23829M 23833  23835  23937  23940  23941  23942M 23942  24074M
                                                 24078  24080  24131  24134  24135  24136M 24136  24251M 24255  24257
                                                 27562  27565  27566  27567M 27567  27934M 27938  27940  27961  27964
                                                 27965  27966M 27966  28530M 28534  28536  28556  28559  28560  28561M
                                                 28561  29301M 29305  29307  29327  29330  29331  29332M 29332  29594M
                                                 29598  29600  29629  29632  29633  29634M 29634  29929M 29933  29935
                                                 29955  29958  29959  29960M 29960  30089M 30093  30095  30115  30118
                                                 30119  30120M 30120  30190M 30194  30196  30223  30226  30227  30228M
                                                 30228  30340M 30344  30346  30366  30369  30370  30371M 30371  30445M
                                                 30449  30451  41596  41599  41600  41601M 41601  42087M 42091  42093
                                                 59117  59120  59122  59123M 59123  59255M 59259  59261  59289  59292
                                                 59294  59295M 59295  59429M 59433  59435
 SR            2 00000002 FFFFFFFF A   #    1023 15783M 15789M 16070  16072M 16073M 16074M 16096M 16119M 16147  16148
                                                 16148  16148  16149M 16150  16175M 16181  16182  16182  16182  16208M
                                                 16273M 16273  16294  16295  16299M 16299  16317  16329  16335M 16335
                                                 16398  16402  16450  16451  16451  16451  16498M 16500  16512M 16519
                                                 16521M 16541M 16545  16594M 16611  16612  16612  16612  16645M 16645
                                                 16671  16718M 16818M 16887  16888  16888  16888  16915M 16947  16947
                                                 16947  16948  16948  16948  16949  16949  16949  17900M 17949M 17965
                                                 18103  18106M 18215M 18240  18429U 18502M 18502  18568M 18599M 18623M
                                                 18624M 18624  18665M 18666M 18666  18694M 18694  18700M 18705  18731M
                                                 18731  19083  19092  19481M 19489U 19501M 19501  19623M 20218M 20227M
                                                 20227  20237  20252M 20261M 20261  20277M 20277  20290U 20293  20294M
                                                 20314M 20315M 20315  20337U 20349M 20349  20355  20357M 20382M 20393M
                                                 20393  20406U 20409  20410M 20431M 20442M 20442  20455U 20458  20459M
                                                 20480M 20490U 20505M 20505  20512  20513M 20535M 20543U 20565  20568
                                                 20579M 20600  20618M 20660M 20752M 20764  21267M 21332M 21366  21762M
                                                 21823M 22238M 22246U 22291M 22299U 23330M 23346  23384  23668M 23676U
                                                 23678M 23686M 23694U 23696M 23707U 23709M 23720U 23765M 23793  23968M
1VDMP     (VDMP21) (09:46) (22MAR04) Ordinary Symbol and Literal Cross Reference                                            Page  386
                                                 24019  24041M 24055  24162M 24224M 24233  24276  24278  24278  24278
                                                 24297M 24305U 24307  24352  25075M 25682M 25685M 25687  25867M 25877U
                                                 25927  25928  25947  25949  26099M 26102M 26104  26234M 26248M 26266M
                                                 26271  26274M 26276  26314M 26328M 26346M 26351  26354M 26356  26680M
                                                 26683M 26685  26733  26805M 26808M 26810  26914M 26917M 26919  27064M
                                                 27074U 27609M 27620M 27620  27635U 27913M 28023M 28033U 28250M 28251M
                                                 28269  28797M 28819U 29358M 29366U 29657M 29658M 29659M 29660M 29660
                                                 29661M 29669U 29983M 29984M 29985M 29986M 29986  29987M 30251M 30304
                                                 30309M 30324  30398M 30533  30535  30535  30535  30728M 30868M 30870M
                                                 30901  30936M 30943  30968M 30993  31189M 31222M 31355M 31356M 31358M
                                                 31364  32184M 33081M 33082M 33101M 33102  33216M 33218M 33219  33220M
                                                 33222M 33223  33269M 33270  33810  33812  33812  33812  33875M 33962
                                                 33964  33964  33964  33986M 33993M 34003U 34010M 34032U 34076M 34113M
                                                 34232  34233  34233  34233  34234M 34271  34272M 34340  34443M 34477
                                                 34477  34477  35228M 35266U 35347  35405U 35656M 35657M 35658  35715M
                                                 35742U 36282M 36649M 36650M 36651  36885M 36893U 36915  36956M 36964U
                                                 37050M 37075  37237M 37245U 37489M 37590M 37636M 37638M 37640M 37641M
                                                 37642M 37643M 37705M 37706M 37706  37725U 37788M 37793  37803M 37819
                                                 38146  38148  38148  38148  38263M 38275M 38276  38286U 38434M 38435
                                                 38617M 38625U 38698M 38747  38915M 38951M 38952  38954M 38955  38960M
                                                 38961  38966M 38974U 39073M 39089  39145M 39153U 39325M 39341  39614M
                                                 39622U 39882  39884  39884  39884  39902M 39912U 39998M 40184M 40185
                                                 40229M 40579M 40580M 40794M 40795M 40796  41006  41012M 41013M 41014
                                                 41155M 41157M 41158  41207M 41215U 41217M 41228U 41230M 41241U 41670M
                                                 41678U 41680M 41691U 42119  42121  42121  42121  42204M 42206M 42208M
                                                 42209M 42210M 42223M 42228M 42270M 42329  42331  42331  42331  42471M
                                                 42472  42486M 42491  42632M 42632  42645U 42665  42670M 42950M 42983
                                                 42985  42985  42985  43003M 43013U 43028M 43028  43095M 43115M 43126M
                                                 43126  43225M 43246M 43291  43293  43293  43293  43368M 43369  43392M
                                                 43393  43518M 43526U 43537M 43580M 43590U 43937M 43945U 44040M 44041M
                                                 44042M 44042  44052U 44246M 44246  44259M 44289  44290M 44291  44375
                                                 44422M 44442M 44796M 44797  44799  44804M 44805  44814M 44880M 44883M
                                                 44887M 44888  44889M 44890  44958M 44991M 45023M 45060M 45080M 45085
                                                 45089M 45090M 45109M 45125  45128M 45148  45367M 45369  45371M 45373
                                                 45374M 45377  45379M 45380M 45381  45400  45401  45401  45401  45681M
                                                 45723  45723  45723  45775M 45775  45789M 45934M 45950M 45979M 45980M
                                                 45981  45982M 45985  45994M 45997M 46000M 46001M 46002  46016M 46019
                                                 46023  46205M 46206M 46207  46223M 46224M 46225  46311  46313  46313
                                                 46313  46413M 46415M 46442  46461  46613M 46614  46641M 46949M 46965M
                                                 46970  46974M 46986  46988  46988  46988  47399M 47401M 47571M 47581
                                                 47583  47583  47583  47670M 47813M 47820  47845M 47870  47946M 48532M
                                                 48542U 48720M 48728U 49272M 49282U 49523M 49531U 49682  49683  49683
                                                 49683  49684M 49685  49733  49845  49899M 49938  49938  49938  49964
                                                 49966  49966  49966  49989M 49999U 50327M 50335U 50367M 50378M 50378
                                                 50391U 50397M 50452M 50662M 50674  50676  50676  50676  50694M 50704U
                                                 50709  50748  50794M 50804U 50813  50851  50917M 50978M 50988  50995
                                                 51010  51088  51090  51090  51090  51108M 51109  51121U 51387M 51436
                                                 51608M 51617  51619  51619  51619  51644U 51916M 51936  51938  51938
                                                 51938  51956M 52017M 52252M 52356M 52364U 52471  52525M 52541  52692M
                                                 52693M 52704  52723  52761  52767M 52775U 53399M 53928U 53933M 53942M
                                                 53942  54003M 54003  54226M 54336M 54342M 54975  54976  54976  54976
                                                 54997M 55007U 55026M 55044M 55044  55085  55091M 55101U 55333M 55355M
                                                 55355  55367M 55378  55379  55379  55379  56187M 56198M 56198  56205
                                                 56214M 56224U 56320M 56505M 56506M 56506  56517M 56517  56524  56533M
                                                 56543U 56591M 56680M 56771  56772  56772  56772  56862M 56925M 56933U
                                                 56940M 56955U 56978M 57455M 57471  57481  57500M 57515  57552M 57640
                                                 57640  57640  57964M 57965M 57977M 57990  57997M 57998M 57999  58082M
                                                 58090U 58244M 58247B 58565  58566  58566  58566  58567M 58568M 58570
                                                 58582M 58632M 58654  58669M 58669  58670  58671  58725M 58735M 58735
1VDMP     (VDMP21) (09:46) (22MAR04) Ordinary Symbol and Literal Cross Reference                                            Page  387
                                                 58759M 58769M 58769  58789M 58799M 58799  58884M 58929M 58930M 58931
                                                 58933  59178M 59214M 59234  59498  59498  59498
 SRCHERR       4 000065C6 00000001     I   41377 40222B 40230B 41181B
 SRCHIDEQ      4 0000622A 00000001     I   40186 40229B
 SRETCODE      4 000000C0 FFFFFF9E     A   34795 35849M 36272M 36684M 37727  37788  38009M 38046  38052M 38910M 40560M
                                                 42798M 45538M 45641M
 SRTEASCI      1 00000004 FFFFFFDD A   U    6714  6715
 SRTEBSTR      1 00000004 FFFFFFDD A   U    6713  6716
 STACTIVE      4 00000140 FFFFFFA5     A   14650 19124  19125M 20876  20878M 35656  45979
 STANC         4 00000124 FFFFFFA5     A   14643 17900  18440  18459  20252  21327
 STARBAL       2 00000006 FFFFFF9A     H   59079 59351M 59351  59352  59408
 STARDL        2 0000000A FFFFFF9A     H   59083 59343
 STARKL        1 00000009 FFFFFF9A     X   59082 59344
 STARR         1 00000008 FFFFFF9A     X   59081 59163M
 STARRKDD      4 00000008 FFFFFF9A     F   59080 59162M 59341M
 STARTIME      8 000000B8 FFFFFF9E     D   34794 35391M 37638  37641
 STATL         4 00000038 FFFFFFA9     F   14434 19098
 STBCK         4 00000004 FFFFFFA9     A   14394 18103M
 STCAT        32 00000010 FFFFFFA9        14413 18559M 18822  18822  18823  18838  19020  19020  19021  19076  19076
                                                 19077  19241  19241  19242  19257  21206  21206  21207  54077  54077
 STECB         4 0000000C FFFFFFA9     A   14396 14437  19062M 19062  19100  19108  20988  21118  21155  21429
 STEND         8 00000030 FFFFFFA9     D   14427 20909M 20910  21072
 STEVENTS      4 0000013C FFFFFFA5     A   14649 18009M 19113  20218  20836  21365
 STFLGS        1 00000010 FFFFFFA9     R   14399 14403  14408  14413  14418  21319M
 STFWD         4 00000000 FFFFFFA9     A   14393 20294  54226
 STNAME        4 00000008 FFFFFFA9     C   14395 18105M
 STRT          8 00000038 FFFFFFA5     D   14592 14593  14594  30762M
 STRTCAT      32 000001CA FFFFFFA5        14982 18547  18566M 21233  21233  21234  32961  32961  32963  32963
 STRTREQ      64 000001CA FFFFFFA5        14977 18403  18514  21247M 32961  32961  32962  32962  32964M
 STRTRUN     128 000001CA FFFFFFA5        14972 18526  18537M 21219M
 STRTVER      16 000001CA FFFFFFA5        14987 18597M 21233  21233  32962  32962  32963  32963
 STSEG         4 00000020 FFFFFFA9     A   14425 19086M 54168
 STSEQ         4 0000001C FFFFFFA9     A   14424 18104M 19188  20946  54024
 STSTCKSZ      1 00002000 FFFFFFFF A   U    1267 38075
 STSTRT        8 00000028 FFFFFFA9     D   14426 19151M 19152  21074  21077
 STSUB         4 00000018 FFFFFFA9     A   14423 19083M 21267  21300  21326M 21326
 STTCB         4 00000014 FFFFFFA9     A   14422 19107M 20882
 STVER        16 00000010 FFFFFFA9        14418 18590M 18822  18822  19020  19020  19076  19076  19241  19241  21206
                                                 21206  54077  54077  54078  54093
 STWRK         4 00000128 FFFFFFA5     A   14644 19052  19389M 19389  53933
 SUBANCHR      4 0000012C FFFFFFA5     A   14645 18416M 18416  18623  18700  20314  24412  25303
 SUBBCK        4 00000004 FFFFFFAB     A   14309 16295M
 SUBCMPLT      4 00000130 FFFFFFA5     A   14646 19027  19481  20382  21268
 SUBCNT        4 00000020 FFFFFFAB     A   14316 24530M 24530  26800  26801M 26910  35716
 SUBDD         2 00000A55 FFFFFF9E     R   35005 34992  35499  35504M 35505M
 SUBDSN       52 00000053 FFFFFFAB     C   14333 24574  26804  26913  35715
 SUBDWA        4 00000014 FFFFFFAB     A   14313 24531M 25287M 48054
 SUBEST        1 00000BC8 FFFFFF9E     R   35075 47819
 SUBFAIL      64 00000024 FFFFFFAB        14328 35278M
 SUBFLG        1 00000024 FFFFFFAB     R   14319 14323  14328
 SUBFWD        4 00000000 FFFFFFAB     A   14308 16281  16294M 16316  18665  19623  20357  20410  24521M
 SUBINCP       4 00000018 FFFFFFAB     A   14314 19507  19617  37728M 37729  37744
 SUBNAME       4 00000008 FFFFFFAB     C   14310 25413M
 SUBOUT        2 00000A63 FFFFFF9E     R   35006 34993  35501  35506M
 SUBPARM    3931 00000000 FFFFFFAB     J   14340 16261U 16295M 16317  18429U 19489U 20337U 20356  20406U 20408  22231U
                                                 24420U 25313  25386U 25397M 25397  25398M 25398  25399M 25399  25400M
                                                 25400  25401M 25401  25402M 25402  25403M 25403  25404M 25404  25405M
                                                 25405  25406M 25406  25407M 25407  25408M 25408  25409M 25409  25410M
                                                 25410  25411M 25411  25412M 25412  25424U 35266U 35405U 35713U 37725U
1VDMP     (VDMP21) (09:46) (22MAR04) Ordinary Symbol and Literal Cross Reference                                            Page  388
                                                 38625U 39634U 42424U 48049U
 SUBREC        2 000081EA 00000001     H   47960 35083  47970U 48021U 48391
 SUBRET        4 0000001C FFFFFFAB     A   14315 22273  25294M 25294  35272M 37727M
 SUBRETC       2 00005716 00000001     H   38019 48379
 SUBSAD        4 000000D8 FFFFFF9E     A   34800 35384M
 SUBSEG        2 00000051 FFFFFFAB     C   14332 16317  16317  18916  19084  19335  24582M 35425  35428  35429  35430
                                                 35997  42434  42470
 SUBSEQ        4 00000010 FFFFFFAB     A   14312 18654  25286M 26867M
 SUBSLN        4 000000D4 FFFFFF9E     A   34799 35351M 37762
 SUBSTART      4 0000000C FFFFFFAB     A   14311 25285M 25285  25584M 26994M 35431
 SUBSYS        4 000009E8 FFFFFF9E     A   34992 35500M 35502M 35503M 35507
 SUBTAPE      44 00000025 FFFFFFAB     C   14331 22272  24532M 24533  24534  25295M 25296  38627  38652  39639M 42426
 SUBTASK     128 00000000 FFFFFFA9     J   14463 18033  18083  18098U 18438U 20290U 20292  20868U 21429  53928U
 SUBTIME       4 000000C8 FFFFFF9E     A   34797 47720M 47721  47761
 SUBTXPRM     72 00000014 FFFFFF9E     X   34619 35410M 35411  39447  40843
 SUBVS         4 000000D0 FFFFFF9E     A   34798 35385M 37785
 SVA           4 00000064 FFFFFFA5     A   14608 15833M 20735
 SVRBEND       4 00000110 FFFFFFC6     F   11896 11953
 SVSTCKSZ      1 00002000 FFFFFFFF A   U    1266 15799  20740
 SWA        3188 00000000 FFFFFF9E     J   35195 35233  35295  35335U 37787
 SWANAME       4 00000004 FFFFFF9E     C   34617 35348M
 SWARNING      4 000000C4 FFFFFF9E     A   34796 40306  40565  40566M
 SWORK         8 00000098 FFFFFF9E     D   34793 35425M 35426  36120  36178  36236  37086  37328  37542  37635M 37636
                                                 37830  37923  38615M 38616  38758  38816  38874  39100  39352  40789M
                                                 40790  41006M 41007  41008  42467M 42468  42470M 42471  43084M 43085
                                                 43087M 43088  43168  47722  47762  48107
 SWR          11 0000000B FFFFFFFF A   #    1140 15737M 15737  35293M 35315M 35316  35317M 35326U 48054M 52290M 52299M
                                                 52300  52301M 52310U 52325  54325M 54777M 54792U 54878  54893M 54893
 SXITBSE       4 000082C0 00000001     A   48296 48037
 SYNADBUF     78 000000E4 FFFFFF9E     C   34803 47014M 47015  47059  47066  47202  47209
 SYNCECB       4 00000060 FFFFFFA5     A   14607 18299  18307M 18307  52594  52652
 SYS_BAD       1 0000002C FFFFFFFF A   C    1251 15892  15958  18488  29837  30031
 SYS_FAIL      1 00000028 FFFFFFFF A   C    1250 18003  18145
 SYSPDDN       8 000000DC FFFFFF9E     C   34801 35392M 35430M 35505  35509  47604
 S99FLG11      1 00000002 FFFFFFD5     C    7647 24207M 28615M 30572M 35485M
 S99FLG21      1 00000010 FFFFFFD5     C    7686 38448M 51134M
 S99MOUNT      1 00000001 FFFFFFD5 A   U    7699 38446  51132
 S99NOMNT      1 00000020 FFFFFFD5 A   U    7655 24207  28615  30572  35485
 S99RB         1 00000000 FFFFFFD5     J    7635 16897U 22838  24203U 28611U 30568U 35462U 36964U 37245U 38286U 49282U
                                                 49999U 51121U
 S99RBLN       1 00000000 FFFFFFD5     C    7637 24205M 28613M 30570M 35483M 38288M 38440M 49287M 50004M 51126M
 S99TXTPP      4 00000008 FFFFFFD5     F    7683 16902M 22838  24209M 28617M 35487M 35508M 35562M 36968M 37249M 38291M
                                                 38491M 49290M 50007M 51177M
 S99VERB       1 00000001 FFFFFFD5     C    7638 24206M 28614M 30571M 35484M 36966M 37247M 38289M 38441M 49288M 50005M
                                                 51127M
 S99VRBAL      1 00000001 FFFFFFD5 A   U    7639 24206  28614  30571  35484  38289  38441  49288  50005  51127
 S99VRBUN      1 00000002 FFFFFFD5 A   U    7640 36966  37247
 TAPEDSN      44 00000268 FFFFFFA5     C   15002 24532  24801M 24801  24816  24817  25295  25660M 25661  25661M 25661
                                                 25694M 49533  50047  50352M 51274
 TAPEINC       4 00008DAC 00000001     I   49964 49924
 TAPEUNIT      8 000002C8 FFFFFFA5     C   15005 26679M 26740M 31313M 34043  38601  51355
 TASKLVL       4 00000114 FFFFFFA5     A   14639 17765  17771M 17795  17819  17843  17876  17923M 18027  26154  26160M
                                                 26183M 26206M 31307M 32554  32560M 33871M
 TCB           1 00000020 FFFFFFCF     U    8416  9115  23694U 31269
 TCBAE         4 000000BC FFFFFFCF     A    8660  8663
 TCBDARPN      1 00000040 FFFFFFCF A   U    8706  8708
 TCBDARTN      1 00000080 FFFFFFCF A   U    8703  8705
 TCBFIX        1 00000000 FFFFFFCF     J    8404  8411
 TCBMNLEN      1 00000158 FFFFFFCF A   U    9115  9160
1VDMP     (VDMP21) (09:46) (22MAR04) Ordinary Symbol and Literal Cross Reference                                            Page  389
 TCBPXLEN      1 00000020 FFFFFFCF A   U    8411  9160
 TCBRBP        4 00000020 FFFFFFCF     A    8418 31269
 TCBRD         4 000000B8 FFFFFFCF     A    8655  8659
 TCBTIO        4 0000002C FFFFFFCF     A    8424 23696
 TCBXTNT2      1 00000000 FFFFFFCE     J    9120  9158
 TCBX2LEN      1 00000020 FFFFFFCE A   U    9158  9160
 TCDSP         2 0000092A FFFFFF9E     R   34956 34934  38510  38590M 38591M
 TCNT          2 0000094C FFFFFF9E     R   34960 34938  38518  38598M 38599M
 TDDN          2 000008D4 FFFFFF9E     R   34951 34929  34946  38500  38571  38582M 38679M
 TDSN          2 000008E2 FFFFFF9E     R   34952 34930  34947  38502  38573  38583M 38652M
 TDYNP         4 00000870 FFFFFF9E     A   34926 36977  37257  38435M 38436M 38680
 TDYNRB        4 00000874 FFFFFF9E     A   34927 36956  37237  38434  38795  38853
 TFLGS         1 000001C7 FFFFFFA5     R   14933 14937
 TFRATE      128 000001C7 FFFFFFA5        14937 24725  26491M 35639  45971  53331  53701M 53733M
 TIME          4 00000038 FFFFFFA5     F   14593 30821
 TIME          1 00000000 00000013     T   33672 33672  38099  48390
 TIME2INC      4 00000040 FFFFFFA5     A   14595 30767M
 TIOEDDNM      8 0000001C FFFFFFCD     C    9339 23756
 TIOEJFCB      3 00000024 FFFFFFCD     C    9340 50341
 TIOELNGH      1 00000018 FFFFFFCD     G    9296 23727  23765  23771
 TIOENTRY      1 00000018 FFFFFFCD     U    9295 23709  23720U 50335U
 TIOT1         1 00000000 FFFFFFCD     U    9274 23707U
 TIRBEND       4 000000A8 FFFFFFC6     F   11825 11950
 TLBL          2 00000961 FFFFFF9E     R   34962 34940  38522  38602M 38603M
 TMEM          2 00000914 FFFFFF9E     R   34953 34932  38504  38586M 38587M
 TNDSP         2 00000923 FFFFFF9E     R   34955 34933  38508  38588M 38589M
 TPROT         2 00000970 FFFFFF9E     R   34964 34942  38526  38606M 38607M
 TPTRS         4 00000888 FFFFFF9E     A   34929 38486  38501M 38503M 38505M 38507M 38509M 38511M 38513M 38515M 38517M
                                                 38519M 38521M 38523M 38525M 38527M 38529M 38531M 38547M 38563M
 TPTRU         4 000008C8 FFFFFF9E     A   34946 36967  37248  38572M 38574M 38576M 38577M
 TR            3 00000003 FFFFFFFF A   #    1036 15784M 16154M 16155M 16155  16183M 16261U 16295  16315  16316M 16499M
                                                 16519M 16520M 16521  16542M 16611  16612  16612  16612  16653M 16666M
                                                 16718M 16889M 16897U 16949  16949  16949  17901M 17918M 17923  18013M
                                                 18013  18027  18104  18115M 18438U 18440M 18449M 18449  18459M 18468M
                                                 18468  19027M 19049  19053  19507M 19515U 19527M 19527  19552  19574
                                                 19578  19608  19617M 20619M 20630M 20630  20661M 21268M 21762M 21823M
                                                 22254M 22262U 23727M 23739M 23739  23765  23771M 23787M 23787  23983M
                                                 23991U 24042  24225M 24232  24412M 24420U 24522  24523M 25278M 25302
                                                 25889M 25893M 25895  27770M 27771M 27771  27791M 27801U 28078M 28088U
                                                 28132M 28142U 28249M 28252  28905M 28915  29003M 29009  29132M 29142
                                                 29230M 29236  29374M 29382U 29503U 29543U 29701M 29799  30255M 30265U
                                                 30402M 30412U 30560M 30568U 30869M 30879M 30879  30906  31190M 31223M
                                                 31357M 31369  33079M 33080  33095M 33102M 33103  33215M 33219M 33223M
                                                 33224  33830M 33871  34008M 34060M 34060  34077M 34249M 34259U 34434
                                                 35452M 35462U 36060M 36109  36785M 36857M 36967M 36968  37248M 37249
                                                 37488M 37564M 37636M 37644  38290M 38291  38616M 38637  38985M 38986
                                                 39284M 39292  39624M 39634U 39917M 39956  39980M 40176M 40177M 40178
                                                 40581M 40601M 40602M 40641M 40783  40859  40914M 40918  40975  41243M
                                                 41251U 41696M 41696  41697M 41712U 41731M 41731  42204M 42211M 42231
                                                 42416M 42424U 42490M 42490  42658  42664M 44215M 44217  44261M 44798M
                                                 44805  44879M 44879  45316M 45355M 45776M 45777  45790M 45791  45994M
                                                 46002  46016M 46640M 46640  48156M 48202M 48811M 48812  48884  48938
                                                 49057M 49065U 49563M 49571U 51731M 51876  51908  52368M 52369M 52369
                                                 52388U 52409  52453  52694M 52704  52713M 52723  52751M 52761  52777M
                                                 52785U 53022  53206  53207  53207  53207  53399M 53566M 53583  53584
                                                 53584  53584  53708M 53725  53726  53726  53726  53766M 53783  53784
                                                 53784  53784  53902M 53919  53920  53920  53920  54248M 54259  54260
                                                 54260  54260  54293M 54336M 54342M 54426  54426  54426  55164M 55165M
                                                 55165  55235M 55235  55242  55247M 55257U 55305M 55974M 55974  55995M
1VDMP     (VDMP21) (09:46) (22MAR04) Ordinary Symbol and Literal Cross Reference                                            Page  390
                                                 56043U 56065  56087M 56087  56336M 56337M 56337  56354  56359M 57487M
                                                 57488  57952M 57977  57990M 57997  58002M 58004  58603M 58613U 58619M
                                                 58628M 58629M 58631M 58648M 58671M 58681U
 TRCSIZE       4 000001BC FFFFFFA5     A   14708 31306M 32695M
 TRETP         2 000009A9 FFFFFF9E     R   34966 34943  38528  38608M 38609M
 TRKALLO       4 00000170 FFFFFFA5     A   14670 25910  26534M 31311M 32656M 38327
 TRKLIST      12 00000000 FFFFFF9A     C   59060 59161M 59161  59233
 TRKWRK       12 00000000 FFFFFF9A     J   59090 59123  59151U 59259  59261  59262  59295  59323U 59433  59435  59436
 TRL_Lab       4 00000060 FFFFFF9E        34762 39856M
 TSEQ          2 00000968 FFFFFF9E     R   34963 34941  38524  38604M 38605M
 TSKSEQ        4 00000138 FFFFFFA5     A   14648 18654  18712  18713M
 TSP1          2 00000931 FFFFFF9E     R   34957 34935  38512  38592M 38593M
 TSP2          2 0000093A FFFFFF9E     R   34958 34936  38514  38594M 38595M
 TSP3          2 00000943 FFFFFF9E     R   34959 34937  38516  38596M 38597M
 TSTAT         2 0000091C FFFFFF9E     R   34954 34931  38506  38584M 38585M
 TTRTCH        2 000009B1 FFFFFF9E     R   34967 34944  38530  38610M 38611M
 TUNA          2 000009A2 FFFFFF9E     R   34965 34949  36969M 37258M 38575  38612M 38613M
 TUNIT         2 00000953 FFFFFF9E     R   34961 34939  38520  38600M 38601M
 UCB           1 00000000 FFFFFFDD     J    5754  6609   6835   6995   7219   7333   7363
 UCBALOC       1 00000008 FFFFFFDD A   U    6256  6443
 UCBBALB       1 00000020 FFFFFFDD A   U    6629  6710
 UCBBNUL       1 00000001 FFFFFFDD A   U    6638  6717
 UCBBPRV       1 00000010 FFFFFFDD A   U    6631  6711
 UCBBPUB       1 00000008 FFFFFFDD A   U    6632  6712
 UCBBSTR       1 00000004 FFFFFFDD A   U    6633  6713   6714
 UCBBSVL       1 00000080 FFFFFFDD A   U    6615  6709
 UCBCHGS       1 00000040 FFFFFFDD A   U    6246  6440
 UCBDADI       1 00000001 FFFFFFDD A   U    6270  6446
 UCBDEV        1 00000018 FFFFFFDD     U    6454  6610   6836   6996   7012   7220   7242   7334   7364
 UCBDMCT       1 00000023 FFFFFFDD     X    6647  6718
 UCBERG        2 0000003C FFFFFFDD     H    6943 41286
 UCBFLA        1 00000006 FFFFFFDD     B    6282  6283
 UCBFL1        1 00000006 FFFFFFDD     U    6283  6447
 UCBFSCT       2 00000018 FFFFFFDD     H    6837  6841
 UCBFSEQ       2 0000001A FFFFFFDD     H    6838  6842
 UCBJBNR       1 00000000 FFFFFFDD     B    6177  6436
 UCBMONT       1 00000001 FFFFFFDD A   U    6198  6437
 UCBMT         2 00000030 FFFFFFDD     H    6902 41251U
 UCBNRY        1 00000040 FFFFFFDD A   U    6287  6288
 UCBOB         4 00000000 FFFFFFDD     F    6171 27780U 34334U 41241U 41712U
 UCBONLI       1 00000080 FFFFFFDD A   U    6245  6439  34374
 UCBPRES       1 00000004 FFFFFFDD A   U    6266  6444
 UCBRESV       1 00000020 FFFFFFDD A   U    6251  6441
 UCBSTAB       1 00000022 FFFFFFDD     B    6614  6708
 UCBSTAT       1 00000003 FFFFFFDD     B    6244  6438  34376
 UCBSYSR       1 00000002 FFFFFFDD A   U    6268  6445
 UCBTBYT4      1 00000013 FFFFFFDD     C    6406 27787  34347
 UCBTR         1 00000034 FFFFFFDD     G    6910  6912
 UCBTW         1 00000035 FFFFFFDD     G    6919 41257
 UCBUNLD       1 00000010 FFFFFFDD A   U    6253  6442
 UCBUSER       2 00000026 FFFFFFDD     G    6688  6689
 UCBVOLI       6 0000001C FFFFFFDD     C    6613  6707  41772
 UCBXTN        4 0000002C FFFFFFDD     A    6866 41243
 UPL          80 00000000 FFFFFFA3     J   23923 23973  23991U 23994  24043  34435
 UPLMFL        8 00000000 FFFFFFA3     D   23868 23867  23910  24016
 UPLUCB        4 0000004C FFFFFFA3     A   23916 24027M 24041
 UPS         224 00000000 FFFFFF9F     J   34225 34239  34259U 34265
 UPSCID        1 00000074 FFFFFF9F     X   34216 34271M 34298
 UPSMFL        8 00000000 FFFFFF9F     D   34149 34148  34210  34291
1VDMP     (VDMP21) (09:46) (22MAR04) Ordinary Symbol and Literal Cross Reference                                            Page  391
 UPSUCB        4 00000078 FFFFFF9F     A   34217 34304M 34324
 UPSWRK      100 0000007C FFFFFF9F     X   34218 34294
 VBLDPRM       2 000002E0 FFFFFFA5     R   15014 15013  26271M 31341M 31343
 VBLDPTR       4 000002DC FFFFFFA5     A   15013 18568  31344M 31345M
 VBLDTEXT    100 000002E2 FFFFFFA5     C   15015 15014  26283M 31342M
 VCLRBUF       5 0000B7D2 00000001     X   57692 58188  58334  58372  58380  58485
 VCNBLANK      2 0000B4A2 00000001     H   58499 58252B
 VCNBTBL       4 0000B302 00000001     I   58247 58247B
 VCNCLOSE      2 0000B3EE 00000001     H   58379 58251B
 VCNDDNAM      2 0000B4CA 00000001     H   58535 58256B
 VCNEXIT       2 0000B4DC 00000001     I   58543 58265B 58269B 58273B 58339B 58377B 58479B 58486B 58496B 58517B 58522B
                                                 58527B 58532B 58537B 58539B
 VCNICMD       2 0000B3AE 00000001     H   58342 58259B
 VCNPAGE       2 0000B4C2 00000001     H   58530 58255B
 VCNPGLN       2 0000B342 00000001     H   58267 58258B
 VCNPGRT       2 0000B33A 00000001     H   58263 58257B
 VCNSETCC      2 0000B34A 00000001     H   58271 58250B
 VCNSKIP1      2 0000B4B2 00000001     H   58520 58253B
 VCNSKIP2      2 0000B4BA 00000001     H   58525 58254B
 VCNSTPC       2 0000B352 00000001     H   58276 58260B
 VCNTRL        4 0000B2F0 00000001     I   58226 58224
 VCNTRL        1 00000000 00000007     T   17226 17226  19917  20772  21431  23425  27496  30471  33667  38085  41499
                                                 42287  43267  45704  48385  51052  52099  54411  57617
 VCNWTO        2 0000B484 00000001     H   58482 58248B
 VCNWTOWR      2 0000B494 00000001     H   58489 58249B
 VCR           1 00000000 00000004     T   15688 15688
 VDMP          1 00000000 00000001     J    1529  1531  14577  15671  15697  15719  33669  48388  54576
 VDMP          1 00000000 00000002     T   15686 15686
 VDMP_BLK      4 00000018 FFFFFFAF     A   14132 40859M 40914
 VDMP_DCB      4 00000018 FFFFFFAF     A   14138 39466M
 VDMP_JFC      4 00000014 FFFFFFAF     A   14137 39468M
 VDMP_LL       4 00000014 FFFFFFAF     A   14127 14136
 VDMP_NAM     44 0000001C FFFFFFAF     C   14139 39483M
 VDMP_SEG      4 00000014 FFFFFFAF     A   14131 35427M
 VDMP_XIT      1 000001C2 FFFFFFA5     R   14781 14785  14790
 VDMPEXIT     72 00000000 FFFFFFAF     J   14147 14998  20711U 20776  31973U 31983M 31983  33690  34619  35421U 39457U
                                                 40853U 41505
 VDMPF_BLCK
               1 00000018 FFFFFFAF A   U   14114 41515
 VDMPF_CLOS
               1 00000004 FFFFFFAF A   U   14109 20778
 VDMPF_INIT
               1 00000000 FFFFFFAF A   U   14108 33691
 VDMPF_OPNT
               1 0000000C FFFFFFAF A   U   14111 41507
 VDMPFNC       4 00000008 FFFFFFAF     A   14102 20718M 31986M 39464M 40857M
 VDMPR_BMOD
               1 00000004 FFFFFFAF A   U   14119 41517
 VDMPR_TERM
               1 00000010 FFFFFFAF A   U   14122 41516
 VDMPRETC      4 0000000C FFFFFFAF     A   14103 20717M 39463M 40858M
 VDMPXID       4 00000000 FFFFFFAF     C   14100 20715M 31984M 39461M
 VDMPXLEN      4 00000004 FFFFFFAF     A   14101 20716M 31985M 39462M
 VDMP21        1 00000000 00000001     R    1538  1536
 VECTOR        2 000000D8 00000001     H   15905 15898  16936
 VELAP         2 00006A1A 00000001     H   42116 38089
 VEXCH       128 000001C8 FFFFFFA5        14947 31188M 31217M 31257
 VIDC        385 00000000 FFFFFF9B     J   57911 57922U 58473  58981  59007
 VIDCHDR       4 00000004 FFFFFF9B     A   57754 58264M
1VDMP     (VDMP21) (09:46) (22MAR04) Ordinary Symbol and Literal Cross Reference                                            Page  392
 VIDCID        4 00000000 FFFFFF9B     C   57753 58070  59013M
 VIDCINIT      4 0000B608 00000001     I   58960 58958
 VIDCINIT      1 00000000 00000011     T   33666 33666  48387  54407
 VIDCMSG       4 0000000C FFFFFF9B     A   57756 58843  58868M
 VIDCPLN       4 00000008 FFFFFF9B     A   57755 58268M
 VRADAT        1 00000002 FFFFFFDF     G    4946  4950
 VRAKL         2 00000000 FFFFFFDF     G    4938  4950
 VRFYPRM       2 0000034C FFFFFFA5     R   15018 15017  26351M 31334M 31336
 VRFYPTR       4 00000348 FFFFFFA5     A   15017 18599  31337M 31338M
 VRFYTEXT    100 0000034E FFFFFFA5     C   15019 15018  26363M 31335M
 VSCN          1 00000000 00000003     T   15687 15687
 VSECT         4 00000543 00000001     C   15686 15689  33675
 VSECT#        1 00000003 00000001 A   U   15689 31190
 VSEG          4 0000B224 00000001     I   57934 57932
 VSEG          1 00000000 00000005     T   16937 16937  17224  19915  20770  21432  23424  27489  30470  33668  38080
                                                 41493  42283  43261  45696  48373  49911  51045  52097  54410  57619
                                                 59485
 VSSAVE        4 00000054 FFFFFFA5     A   14604 15791M 20734
 VWRITE        4 0000B26E 00000001     I   58048 58046
 VWRITE        1 00000000 00000006     T   16938 16938  17225  19916  20771  21436  23423  27490  30469  33670  38081
                                                 41494  42285  43262  45698  48374  49912  51046  52098  57620  59486
 VWRK         11 0000000B FFFFFFFF A   #    1152 57922U 57951M 58065M 58243M 58472  59005M 59020
 WAR           8 00000008 FFFFFFFF A   #    1101 17099M 17192  20805M 21411  21469M 21883  21915M 22164  22194M 22350
                                                 22407M 23256  23286M 23406  23477M 23607  23641M 23829  23941M 24074
                                                 24135M 24251  27566M 27934  27965M 28530  28560M 29301  29331M 29594
                                                 29633M 29929  29959M 30089  30119M 30190  30227M 30340  30370M 30445
                                                 41600M 42087  48036M 48283  59122M 59255  59294M 59429
 WORK          8 00000010 FFFFFFA5     D   14589 14590  30790  33270M 33271  35660  37415M 37416  37417M 37418  37645
                                                 37660  42154  42168  42233  46835  47246  47260  47300  47314  47354
                                                 47369  47421  47435  47475  47489  47541  50621M 50622  50623M 50624
 WTEVENT       2 000015FE 00000001     H   20795 19932
 WTOBUFF       4 00000100 FFFFFF9B     A   57831 58671  58851
 WTOCODES      8 00000179 FFFFFF9B     U   57903 58681U
 WTODESC       2 00000179 FFFFFF9B     R   57875 57903  57903  58687M 58778
 WTOFID0      64 00000102 FFFFFF9B        57853 58714M
 WTOFLAGS      2 00000102 FFFFFF9B     R   57833 58686M
 WTOFMULT     64 00000103 FFFFFF9B        57866 58746M 58825  58862
 WTOJNAME      8 00000108 FFFFFF9B     C   57871 58295  58300  58630M
 WTOLEN        2 00000100 FFFFFF9B     R   57832 58670M
 WTOLINES      2 0000017F FFFFFF9B     R   57902 58748M
 WTOMCSF0      1 00000102 FFFFFF9B     R   57836 57844  57853
 WTOMCSF1      1 00000103 FFFFFF9B     R   57858 57866
 WTOMSG      100 00000115 FFFFFF9B     C   57873 58582  58631  59493
 WTOROUTC      2 0000017B FFFFFF9B     R   57876 58688M 58808
 WTOSTAR1      4 00000104 FFFFFF9B     C   57870 58601M 58648  59018M
 WTOSTAR2      5 00000110 FFFFFF9B     C   57872 58602M 59019M
 WTOTFLG       1 0000017D FFFFFF9B     R   57879 57883  57888  57893  57898  58747M
 WTOTYPD      32 0000017D FFFFFF9B        57893 58837
 XIT_Active
              64 000001C2 FFFFFFA5        14790 20680  31323  31323  31873M 31942  32157M 39423  40833  40884M
 XIT_EP        4 000002D8 FFFFFFA5     A   15007 20688  31637M 31716  31874  31950  39434  40842  40891M 40891
 XIT_Loaded
             128 000001C2 FFFFFFA5        14785 31323  31323  31324M 31424  32472M
 XIT_Name      8 000002D0 FFFFFFA5     C   15006 31314M 31435  31479  31484  31649  31878  32459M
 XITBSE        4 000006F4 00000001     A   17204 17100
 XTLMSBLA      4 00000008 FFFFFFC5     A   11963 31272
 XTLST         1 00000000 FFFFFFC5     J   11960 31272
 XVA           4 00000068 FFFFFFA5     A   14609 17102
 =A(-1)        4 000015A4 00000001     A   20777 20717
1VDMP     (VDMP21) (09:46) (22MAR04) Ordinary Symbol and Literal Cross Reference                                            Page  393
 =A(-1)        4 00002CF0 00000001     A   27502 25584
 =A(-1)        4 00003A5C 00000001     A   30486 29513  29553
 =A(-1)        4 00004770 00000001     A   33681 31306  31307  31308  31309  31310
 =A(-1)        4 000066FC 00000001     A   41506 39463  40858
 =A(-12)       4 000078E0 00000001     A   45694 43512
 =A(-16)       4 000078E4 00000001     A   45695 43568
 =A(-24)       4 000078FC 00000001     A   45699 43910
 =A(-4)        4 000078D8 00000001     A   45692 43442
 =A(-8)        4 000078DC 00000001     A   45693 43476
 =A(ABT_RET)
               4 00001810 00000001     A   21439 21169
 =A(ASKTASK)
               4 0000102C 00000001     A   19924 17887
 =A(BUILDIOB)
               4 0000791C 00000001     A   45707 44802
 =A(CALCPOOL)
               4 00006F10 00000001     A   43264 42772
 =A(CALCRPS)
               4 00008348 00000001     A   48383 46688
 =A(CALCTRK)
               4 00006704 00000001     A   41508 39954
 =A(CALCTRK)
               4 00007900 00000001     A   45700 43959
 =A(CALCTRK)
               4 0000AF94 00000001     A   57634 57005
 =A(CHKMEOD)
               4 00008B88 00000001     A   49923 49487
 =A(CHKMERGE)
               4 00009928 00000001     A   52105 51867
 =A(CHKM1ST)
               4 00008B80 00000001     A   49921 49258
 =A(CHKTASK)
               4 00001028 00000001     A   19923 17863
 =A(CLRIO)
               4 0000109C 00000001     A   19938 19881
 =A(CLRIO)
               4 00001DE0 00000001     A   23431 22085  22312
 =A(CLRIO)
               4 00003A54 00000001     A   30484 28953  29180  30422
 =A(CLRIO)
               4 00008B94 00000001     A   49926 49591
 =A(CLRNW)
               4 00003A30 00000001     A   30475 28106  28173  28882  29109  29463
 =A(CLRNW)
               4 00008B28 00000001     A   49917 48658  48973  49051  49153
 =A(CLRNW)
               4 0000AF4C 00000001     A   57626 55317  55331  55702  56208  56352  56527  56623
 =A(COMTASK)
               4 00001074 00000001     A   19930 18153
 =A(DEBPREFE-DEBPREFX)
               4 00007908 00000001     A   45702 44041
 =A(DHIST)
               4 00001814 00000001     A   21440 21303
 =A(DMPSEG)
               4 0000106C 00000001     A   19928 18129
 =A(DOCNTL)
               4 00000FE4 00000001     A   19914 17288
 =A(DOCNTL)
               4 00008B20 00000001     A   49915 48527
1VDMP     (VDMP21) (09:46) (22MAR04) Ordinary Symbol and Literal Cross Reference                                            Page  394
 =A(DOCNTL)
               4 0000AF24 00000001     A   57622 54960
 =A(DOINC)
               4 0000101C 00000001     A   19920 17739
 =A(DTEOVEX)
               4 000066EC 00000001     A   41502 38960
 =A(DTTRLX)
               4 000066E8 00000001     A   41501 38957
 =A(DUMPINC)
               4 00009258 00000001     A   51050 50395
 =A(DUMPIX)
               4 0000924C 00000001     A   51047 50134
 =A(DYNERR)
               4 00006F14 00000001     A   43265 42796
 =A(DYNERR)
               4 0000991C 00000001     A   52102 51709
 =A(ENDVECT-VECTOR)
               4 00000490 00000001     A   16936 15866
 =A(EOVMSG)
               4 000057B4 00000001     A   38091 36416  37194
 =A(EOVMSG)
               4 0000672C 00000001     A   41518 40939  40996  41300  41362
 =A(FINDDD)
               4 00000FE0 00000001     A   19913 17273
 =A(FINDDD)
               4 00003A48 00000001     A   30481 28587
 =A(FINDDD)
               4 00004730 00000001     A   33665 30592  31078  31094  31110
 =A(FINDDD)
               4 00005768 00000001     A   38078 35512  36029
 =A(FINDDD)
               4 000066DC 00000001     A   41498 38666
 =A(FINDDD)
               4 00008AE8 00000001     A   49913 48484
 =A(FINDDD)
               4 00009250 00000001     A   51048 50253  50325
 =A(FINDDD)
               4 0000AF20 00000001     A   57621 54924  56776
 =A(FINDUCB)
               4 00003A24 00000001     A   30472 27691
 =A(FINDUCB)
               4 00006F24 00000001     A   43269 43044
 =A(FINDUCB)
               4 00008B98 00000001     A   49927 49741
 =A(FKWRT)
               4 000047A4 00000001     A   33694 32881
 =A(FREREC)
               4 00003A58 00000001     A   30485 29007  29025  29234  29252
 =A(FREREC)
               4 00008B90 00000001     A   49925 49580
 =A(fserranl)
               4 000057C0 00000001     A   38094 36560
 =A(FSERRBB)
               4 00008344 00000001     A   48382 46607  46733
 =A(FSHDRDMP)
               4 00006714 00000001     A   41512 40602
 =A(GETIDSN)
               4 00006674 00000001     A   41492 38339  40763
 =A(GETREC)
1VDMP     (VDMP21) (09:46) (22MAR04) Ordinary Symbol and Literal Cross Reference                                            Page  395
               4 00001DD8 00000001     A   23429 21992  22090
 =A(GLBRPT)
               4 00001090 00000001     A   19935 19407
 =A(HBASE)
               4 00001078 00000001     A   19931 18379
 =A(HIO)       4 00001DDC 00000001     A   23430 22013  22127  22252  22279  22307
 =A(HIO)       4 00003A2C 00000001     A   30474 28076  28130  28795  28886  28919  28992  29034  29113  29146  29219
                                                 29268  29372  29442  29569  29575  30307  30322  30428
 =A(HIO)       4 00008B24 00000001     A   49916 48629  48718  48809  49055  49561
 =A(HIO)       4 0000AF44 00000001     A   57624 55089  55245  55560  55993  56022  56212  56357  56531  56628
 =A(IDENT)
               4 00001070 00000001     A   19929 18132  18156
 =A(INCLOGD)
               4 00001094 00000001     A   19936 19611
 =A(INCTALO)
               4 00009254 00000001     A   51049 50268  50811
 =A(INIT)      4 0000048C 00000001     A   16935 15857
 =A(IOBRMAX)
               4 00007904 00000001     A   45701 43962
 =A(L'VDMPEXIT)
               4 000015A0 00000001     A   20776 20716
 =A(L'VDMPEXIT)
               4 00004794 00000001     A   33690 31985
 =A(L'VDMPEXIT)
               4 000066F8 00000001     A   41505 39462
 =A(MAINEXIT)
               4 0000049C 00000001     A   16939 15933
 =A(OPENHIST)
               4 00002CD4 00000001     A   27495 24997
 =A(PHSTDCB)
               4 00003A50 00000001     A   30483 28722
 =A(PUTDT)
               4 000057C4 00000001     A   38095 36589
 =A(READFS)
               4 000057BC 00000001     A   38093 36481  36614
 =A(RECROUT)
               4 00004750 00000001     A   33673 30936
 =A(RPTPOOL)
               4 00001018 00000001     A   19919 17731
 =A(SETUPDT)
               4 000057B8 00000001     A   38092 36439
 =A(SETUPFS)
               4 000057B0 00000001     A   38090 36348
 =A(SINIT)
               4 0000576C 00000001     A   38079 35572
 =A(STECB-SUBTASK)
               4 000017E8 00000001     A   21429 20857
 =A(STSTCKSZ)
               4 0000575C 00000001     A   38075 35350
 =A(SUBREC)
               4 00008378 00000001     A   48391 47813
 =A(SUBRETC)
               4 00008338 00000001     A   48379 46381  46729
 =A(TAPEINC)
               4 00008B8C 00000001     A   49924 49511
 =A(VDMP)      4 00004740 00000001     A   33669 30728
 =A(VDMP)      4 0000836C 00000001     A   48388 47670
 =A(VDMPF_BLCK)
               4 00006720 00000001     A   41515 40857
1VDMP     (VDMP21) (09:46) (22MAR04) Ordinary Symbol and Literal Cross Reference                                            Page  396
 =A(VDMPF_CLOS)
               4 000015A8 00000001     A   20778 20718
 =A(VDMPF_INIT)
               4 00004798 00000001     A   33691 31986
 =A(VDMPF_OPNT)
               4 00006700 00000001     A   41507 39464
 =A(VDMPR_BMOD)
               4 00006728 00000001     A   41517 40907
 =A(VDMPR_TERM)
               4 00006724 00000001     A   41516 40872
 =A(VELAP)
               4 000057AC 00000001     A   38089 36340
 =A(VSECT)
               4 00004758 00000001     A   33675 31189
 =A(WTEVENT)
               4 0000107C 00000001     A   19932 18457  18739  19397
 =A(X'FFF')
               4 0000180C 00000001     A   21438 21156
 =A(X'FFF')
               4 00002CE0 00000001     A   27498 25201
 =A(X'FFF0')
               4 00001808 00000001     A   21437 21119
 =A(X'0F')
               4 0000AF90 00000001     A   57633 57000
 =A(X'00FFFFFF')
               4 0000478C 00000001     A   33688 31813
 =A(X'00000100')
               4 00007934 00000001     A   45713 45422
 =A(X'7FFFFFFF')
               4 000004A8 00000001     A   16942 16135
 =A(X'80000000')
               4 000004A4 00000001     A   16941 16130
 =A(0)         4 00002CE4 00000001     A   27499 25286
 =A(1)         4 000004A0 00000001     A   16940 16074  16096  16097  16520  16729
 =A(1)         4 00001024 00000001     A   19922 17771  18115
 =A(1)         4 00001598 00000001     A   20774 20661
 =A(1)         4 000017EC 00000001     A   21430 20877
 =A(1)         4 00001DE8 00000001     A   23433 22811
 =A(1)         4 00002CF8 00000001     A   27504 25736  26802  26911
 =A(1)         4 00003A34 00000001     A   30476 28246  28264  28286  29028  29262  29658  29984  30144
 =A(1)         4 0000475C 00000001     A   33676 31223  33095
 =A(1)         4 00004D18 00000001     A   34475 34077
 =A(1)         4 000057A8 00000001     A   38088 36283  36857  37565  37590
 =A(1)         4 0000671C 00000001     A   41514 40798  41038
 =A(1)         4 00006B18 00000001     A   42289 42223
 =A(1)         4 00006EFC 00000001     A   43259 42475  42768
 =A(1)         4 0000790C 00000001     A   45703 44261  44441  44442  45258
 =A(1)         4 00008328 00000001     A   48375 45935  45951  48202
 =A(1)         4 0000AF8C 00000001     A   57632 56979  57428  57455  57500
 =A(10*100)
               4 0000A278 00000001     A   54409 52332
 =A(100)       4 00002D00 00000001     A   27506 26493
 =A(100)       4 00004774 00000001     A   33682 31311  33082
 =A(100)       4 00005778 00000001     A   38082 35655
 =A(100)       4 00006B20 00000001     A   42291 42230
 =A(100)       4 0000832C 00000001     A   48376 45978
 =A(100)       4 0000A2CC 00000001     A   54420 53642  53842
 =A(1000)      4 000047B4 00000001     A   33698 33432
 =A(10000)
1VDMP     (VDMP21) (09:46) (22MAR04) Ordinary Symbol and Literal Cross Reference                                            Page  397
               4 000004AC 00000001     A   16943 16404  16406
 =A(10000)
               4 000057D0 00000001     A   38098 37643
 =A(100000)
               4 00006B1C 00000001     A   42290 42228
 =A(100000000)
               4 00008330 00000001     A   48377 45983
 =A(11)        4 0000476C 00000001     A   33680 31285
 =A(12+4)      4 00009924 00000001     A   52104 51841
 =A(12)        4 00000708 00000001     A   17223 17056
 =A(12)        4 0000837C 00000001     A   48392 47986
 =A(2)         4 00002CEC 00000001     A   27501 25474  25749  26248  26266  26328  26346
 =A(2)         4 00004764 00000001     A   33678 31283  33339
 =A(2)         4 00006F00 00000001     A   43260 42479  42849
 =A(2)         4 0000AF9C 00000001     A   57636 57457
 =A(255)       4 00004D1C 00000001     A   34476 34272
 =A(27*390625)
               4 00003A38 00000001     A   30477 28247
 =A(27998)
               4 00006F18 00000001     A   43266 42843
 =A(3)         4 00004760 00000001     A   33677 31282  33374
 =A(32760)
               4 000066F0 00000001     A   41503 39032  39274  39937
 =A(36525)
               4 000047A8 00000001     A   33695 33081
 =A(4)         4 00001DF0 00000001     A   23435 23118
 =A(4)         4 00006718 00000001     A   41513 40641
 =A(4)         4 00006F0C 00000001     A   43263 42734
 =A(4)         4 000078D4 00000001     A   45691 43419
 =A(4)         4 00009920 00000001     A   52103 51797
 =A(44)        4 00002CF4 00000001     A   27503 25673  26088
 =A(5*5*5*5*5*5)
               4 00003A3C 00000001     A   30478 28250
 =A(5)         4 00008340 00000001     A   48381 46509
 =A(50000)
               4 00006B14 00000001     A   42288 42211
 =A(6)         4 00004768 00000001     A   33679 31284  33042
 =A(60)        4 000047AC 00000001     A   33696 33216  33220
 =A(8)         4 0000479C 00000001     A   33692 32234  32438  33159
 =A(8)         4 0000792C 00000001     A   45711 45109
 =A(8196)      4 0000992C 00000001     A   52106 51907
 =AL1(11)      1 0000A3CD 00000001     R   54433 52944
 =AL2(DALBLKLN,1,3)
               2 00006770 00000001     R   41531 38592
 =AL2(DALBLKLN,1,3)
               2 0000995C 00000001     R   52115 51346
 =AL2(DALCDISP,1,1)
               2 0000676A 00000001     R   41530 38590
 =AL2(DALCDISP,1,1)
               2 00009956 00000001     R   52114 51344
 =AL2(DALCLOSE,0)
               2 00003A4C 00000001     R   30482 28642
 =AL2(DALCLOSE,0)
               2 00005760 00000001     R   38076 35490
 =AL2(DALCLOSE,0)
               2 00006670 00000001     R   41491 38331
 =AL2(DALCLOSE,0)
               2 00008B84 00000001     R   49922 49321
 =AL2(DALCLOSE,0)
1VDMP     (VDMP21) (09:46) (22MAR04) Ordinary Symbol and Literal Cross Reference                                            Page  398
               2 00009240 00000001     R   51044 50040
 =AL2(DALDCBDS,1,44)
               2 00006790 00000001     R   41537 38606
 =AL2(DALDCBDS,1,44)
               2 00009988 00000001     R   52123 51360
 =AL2(DALDDNAM,1,8)
               2 000004C0 00000001     R   16950 16899
 =AL2(DALDDNAM,1,8)
               2 00002D38 00000001     R   27510 24217
 =AL2(DALDDNAM,1,8)
               2 00003B3A 00000001     R   30493 28636
 =AL2(DALDDNAM,1,8)
               2 000057E4 00000001     R   38101 35488  35504
 =AL2(DALDDNAM,1,8)
               2 00006730 00000001     R   41519 38319  38582
 =AL2(DALDDNAM,1,8)
               2 00008BE8 00000001     R   49930 49314
 =AL2(DALDDNAM,1,8)
               2 00009310 00000001     R   51058 50033
 =AL2(DALDDNAM,1,8)
               2 0000993C 00000001     R   52109 51270
 =AL2(DALDSNAM,1,44)
               2 00003B40 00000001     R   30494 28638
 =AL2(DALDSNAM,1,44)
               2 000057EA 00000001     R   38102 35489
 =AL2(DALDSNAM,1,44)
               2 00006736 00000001     R   41520 38320  38465  38583
 =AL2(DALDSNAM,1,44)
               2 00008BEE 00000001     R   49931 49316
 =AL2(DALDSNAM,1,44)
               2 00009316 00000001     R   51059 50035
 =AL2(DALDSNAM,1,44)
               2 00009936 00000001     R   52108 51151  51272
 =AL2(DALDSSEQ,1,2)
               2 00006788 00000001     R   41535 38604
 =AL2(DALDSSEQ,1,2)
               2 00009980 00000001     R   52121 51358
 =AL2(DALDUMMY,0,0)
               2 0000675C 00000001     R   41527 38464
 =AL2(DALDUMMY,0,0)
               2 00009930 00000001     R   52107 51150  51273
 =AL2(DALLABEL,1,1)
               2 00006782 00000001     R   41534 38602
 =AL2(DALLABEL,1,1)
               2 0000997A 00000001     R   52120 51356
 =AL2(DALMEMBR,1,2)
               2 00006762 00000001     R   41528 38586
 =AL2(DALMEMBR,1,2)
               2 00009948 00000001     R   52111 51340
 =AL2(DALNDISP,1,1)
               2 00006742 00000001     R   41522 38323  38588
 =AL2(DALNDISP,1,1)
               2 00008BFA 00000001     R   49933 49319
 =AL2(DALNDISP,1,1)
               2 00009322 00000001     R   51061 50038
 =AL2(DALNDISP,1,1)
               2 00009950 00000001     R   52113 51342
 =AL2(DALPRIME,1,3)
               2 00006748 00000001     R   41523 38326  38594
1VDMP     (VDMP21) (09:46) (22MAR04) Ordinary Symbol and Literal Cross Reference                                            Page  399
 =AL2(DALPRIME,1,3)
               2 00009962 00000001     R   52116 51348
 =AL2(DALRETPD,1,2)
               2 00006796 00000001     R   41538 38608
 =AL2(DALRETPD,1,2)
               2 0000998E 00000001     R   52124 51362
 =AL2(DALRLSE,0)
               2 0000666C 00000001     R   41490 38330
 =AL2(DALSECND,1,3)
               2 00006776 00000001     R   41532 38596
 =AL2(DALSECND,1,3)
               2 00009968 00000001     R   52117 51350
 =AL2(DALSTATS,1,1)
               2 00003B46 00000001     R   30495 28640
 =AL2(DALSTATS,1,1)
               2 000057FC 00000001     R   38105 35493
 =AL2(DALSTATS,1,1)
               2 0000673C 00000001     R   41521 38321  38584
 =AL2(DALSTATS,1,1)
               2 00008BF4 00000001     R   49932 49317
 =AL2(DALSTATS,1,1)
               2 0000931C 00000001     R   51060 50036
 =AL2(DALSTATS,1,1)
               2 00009942 00000001     R   52110 51338
 =AL2(DALSYSOU,0)
               2 000004B4 00000001     R   16945 16900
 =AL2(DALSYSOU,0)
               2 00002C98 00000001     R   27488 24218
 =AL2(DALSYSOU,0)
               2 00005764 00000001     R   38077 35506
 =AL2(DALTRK,0)
               2 00006668 00000001     R   41489 38325
 =AL2(DALTRTCH,1,1)
               2 0000679E 00000001     R   41540 38610
 =AL2(DALTRTCH,1,1)
               2 00009996 00000001     R   52126 51364
 =AL2(DALUNIT,1,8)
               2 000057F0 00000001     R   38103 35491
 =AL2(DALUNIT,1,8)
               2 0000674E 00000001     R   41524 38328  38600
 =AL2(DALUNIT,1,8)
               2 00009974 00000001     R   52119 51354
 =AL2(DALVLCNT,1,1)
               2 0000677C 00000001     R   41533 38598
 =AL2(DALVLCNT,1,1)
               2 0000996E 00000001     R   52118 51352
 =AL2(DALVLSER,1,6)
               2 000057F6 00000001     R   38104 35492
 =AL2(DALVLSER,1,6)
               2 00006754 00000001     R   41525 38332
 =AL2(DUNOVDSP,1,1)
               2 000067A4 00000001     R   41541 38612
 =AL2(DUNOVDSP,1,1)
               2 0000999C 00000001     R   52127 51366
 =AL2(FSHDRDMP)
               2 00006824 00000001     R   41547 40594
 =AL2(L'WTOMSG-1)
               2 0000B7C0 00000001     R   59493 58570
 =AL2(1)       2 00007958 00000001     R   45718 45054
1VDMP     (VDMP21) (09:46) (22MAR04) Ordinary Symbol and Literal Cross Reference                                            Page  400
 =AL2(1)       2 00008C34 00000001     R   49936 49736
 =AL2(1)       2 0000B7C8 00000001     R   59497 58748
 =AL2(12)      2 0000794A 00000001     R   45715 43876
 =AL2(128)
               2 0000B008 00000001     R   57644 56832  56833
 =AL2(32760)
               2 00009342 00000001     R   51063 50227
 =AL2(5,0)
               2 0000B7B8 00000001     R   59490 59014
 =AL2(64)      2 0000795C 00000001     R   45720 45419
 =AL2(90)      2 0000679C 00000001     R   41539 38609
 =AL2(90)      2 00009994 00000001     R   52125 51363
 =AL4(-1)      4 00001020 00000001     R   19921 17765  17789  17813  17837
 =AL4(-1)      4 00002CFC 00000001     R   27505 26154  26177  26200  26406  26452
 =AL4(-1)      4 000047A0 00000001     R   33693 32554  32577  32600
 =AL4(10)      4 0000670C 00000001     R   41510 40306
 =C'    ***ORVYL subtask dump segment***   '
              39 00008420 00000001     C   48406 47655
 =C'    ***ORVYL File Dump Program***    '
              37 000048EE 00000001     C   33717 30713
 =C'   '       3 00003BAC 00000001     C   30501 28451
 =C'   CCW='
               7 00008419 00000001     C   48405 47388
 =C'   IOB='
               7 00008411 00000001     C   48403 47221
 =C'   ORVYL Block number='
              22 000083E2 00000001     C   48399 47509
 =C'   Record '
              10 000083B0 00000001     C   48396 46753
 =C'  '        2 000011CA 00000001     C   19950 19802
 =C'  '        2 00002DE0 00000001     C   27520 25524  25603  25615
 =C'  '        2 000047BC 00000001     C   33700 30588  30815
 =C'  '        2 00006822 00000001     C   41546 40492
 =C' (SEQ PRESTAGE)'
              15 000079D6 00000001     C   45728 44592
 =C' *** '
               5 0000B7CD 00000001     C   59500 58602  59019
 =C' - ('      4 00001DEC 00000001     C   23434 22909
 =C' - '       3 00001EBA 00000001     C   23448 22746
 =C' - CURRENT CCHH'
              15 000083F8 00000001     C   48400 45912
 =C' '         1 00001EBD 00000001     C   23449 22804
 =C' '         1 00002E68 00000001     C   27531 24580
 =C' '         1 00003C3F 00000001     C   30506 29787
 =C' '         1 00006B41 00000001     C   42295 41796
 =C' '         1 00008418 00000001     C   48404 47329  47450
 =C' '         1 0000B177 00000001     C   57661 56724  56754
 =C' '         1 0000B7CC 00000001     C   59499 58308  58346
 =C' as of '
               7 0000B12F 00000001     C   57655 55510  55665
 =C' at CCHH='
               9 00008407 00000001     C   48401 46810
 =C' blocks dumped.'
              15 00009383 00000001     C   51068 50591
 =C' blocks per second.'
              19 00001E92 00000001     C   23444 21851
 =C' control file.'
              14 00002DD2 00000001     C   27519 25352
 =C' data bytes written.'
1VDMP     (VDMP21) (09:46) (22MAR04) Ordinary Symbol and Literal Cross Reference                                            Page  401
              20 00009290 00000001     C   51054 50644
 =C' due to '
               8 00000FA8 00000001     C   19911 18935
 =C' dynamic allocation'
              19 00004A2B 00000001     C   33734 33598
 =C' for '
               5 0000B12A 00000001     C   57654 55479
 =C' for date determination.'
              24 000039A0 00000001     C   30464 28367
 =C' full dump generations.'
              23 0000B1F4 00000001     C   57666 57305
 =C' full dump records.'
              19 0000B15B 00000001     C   57659 55831
 =C' has been added to complete queue.'
              34 0000119A 00000001     C   19948 19582
 =C' has been loaded.'
              17 0000499D 00000001     C   33726 31672
 =C' has completed, ECB=x'''
              22 00001818 00000001     C   21441 20982
 =C' incremental dump records.'
              26 0000AFEE 00000001     C   57643 55960
 =C' incremental generations.'
              25 0000B20B 00000001     C   57667 57386
 =C' lockword spin loops.'
              21 000015E9 00000001     C   20781 20154
 =C' of '      4 0000AF54 00000001     C   57628 55783  55912
 =C' request.'
               9 00005977 00000001     C   38122 36749
 =C' scratched from '
              16 00008AD0 00000001     C   49910 49867
 =C' to holding file.'
              17 000099E0 00000001     C   52136 51678
 =C' to paired BCV volume '
              22 00005832 00000001     C   38108 35889
 =C' Active for '
              12 0000A2F4 00000001     C   54422 54060
 =C' AC('      4 00004788 00000001     C   33687 31755
 =C' Blocklength='
              13 000079AC 00000001     C   45724 43721
 =C' Blocks dumped to '
              18 000058A6 00000001     C   38112 37353
 =C' Blocks on '
              11 000079CB 00000001     C   45727 44415
 =C' Blocks/second.'
              15 00006B99 00000001     C   42301 42256
 =C' Bytes written, '
              16 00006AD8 00000001     C   42281 41824
 =C' Data bytes written'
              19 000059E2 00000001     C   38127 37440
 =C' Datalength='
              12 000078EC 00000001     C   45697 43815  44747
 =C' Flushing '
              10 00001184 00000001     C   19945 18805
 =C' For '
               5 00001307 00000001     C   19965 19224
 =C' Header='
               8 00007870 00000001     C   45685 43768
 =C' I/O''s per second.'
              18 00001E0E 00000001     C   23437 21790
1VDMP     (VDMP21) (09:46) (22MAR04) Ordinary Symbol and Literal Cross Reference                                            Page  402
 =C' I/O''s per second.'
              18 00002D72 00000001     C   27513 24765
 =C' Records per track.'
              19 0000B1C6 00000001     C   57664 57163
 =C' Request.'
               9 000012D8 00000001     C   19962 18996
 =C' R15('
               5 000059D2 00000001     C   38125 37063  37900
 =C' Starting subtask sequence '
              27 000012EC 00000001     C   19964 19176
 =C' Subtask '
               9 00001853 00000001     C   21444 20934
 =C' Total records in data set.'
              27 0000B1D9 00000001     C   57665 57238
 =C' Total tracks allocated.'
              24 0000AED8 00000001     C   57616 57088
 =C' Tracks available for incremental data'
              38 00003ABC 00000001     C   30490 27898
 =C' TRACKS AVAILABLE ON '
              21 00006FAF 00000001     C   43279 43193
 =C'.D'        2 00006F2E 00000001     C   43272 42436
 =C'.FILSEG'
               7 00002E61 00000001     C   27530 24569
 =C'.I'        2 00006F2C 00000001     C   43271 42433
 =C'.INC.IXR'
               8 00009228 00000001     C   51041 50054
 =C'.INCDATA'
               8 00009880 00000001     C   52093 51313
 =C'.INCIXR'
               7 000099C2 00000001     C   52130 51296
 =C'.P'        2 00006F30 00000001     C   43273 42465
 =C'.X'        2 00002D3E 00000001     C   27511 24553
 =C'<='        2 00002E38 00000001     C   27528 27327
 =C'<='        2 000047BE 00000001     C   33701 30914
 =C'(SPLIT)'
               7 00001344 00000001     C   19968 19832
 =C'(TRUE)'
               6 000011CC 00000001     C   19951 19863
 =C'*** '      4 0000B7B0 00000001     C   59488 58601  59018
 =C'*** Search error *** can''t find record # '
              41 00006890 00000001     C   41560 41377
 =C'***Permanent I/O error occured on '
              34 000083BA 00000001     C   48397 47143
 =C')  Error('
               9 00005968 00000001     C   38119 36145
 =C')  ERROR('
               9 00006835 00000001     C   41553 38783
 =C')  ERROR('
               9 000099D6 00000001     C   52134 51472
 =C')  Reason('
              10 00005848 00000001     C   38109 36203
 =C')  REASON('
              10 000067AA 00000001     C   41542 38841
 =C')  REASON('
              10 000099A2 00000001     C   52128 51530
 =C') '        2 00001E4A 00000001     C   23441 23087
 =C') CMD='
               6 0000A326 00000001     C   54425 52917
 =C') Device error on '
1VDMP     (VDMP21) (09:46) (22MAR04) Ordinary Symbol and Literal Cross Reference                                            Page  403
              18 000058D6 00000001     C   38114 37855
 =C') Length(x'''
              11 000049AE 00000001     C   33727 31807
 =C') Reason('
               9 00001EB1 00000001     C   23447 22613
 =C') Reason('
               9 00002EF6 00000001     C   27537 25193
 =C') Reason('
               9 00004993 00000001     C   33724 31563
 =C') REASON('
               9 000049F1 00000001     C   33730 32092
 =C')'         1 00001EB0 00000001     C   23446 22522  22671
 =C')'         1 00002EFF 00000001     C   27538 25246
 =C')'         1 0000499C 00000001     C   33725 31612  32140
 =C')'         1 00005971 00000001     C   38120 36261  37111  37948
 =C')'         1 0000683E 00000001     C   41554 38899  39125  39377
 =C')'         1 000099DF 00000001     C   52135 51588
 =C')'         1 0000A3EB 00000001     C   54435 53259
 =C'-'         1 00003B76 00000001     C   30497 27682
 =C', Actual='
               9 0000A3F6 00000001     C   54438 53391
 =C', CSW='
               6 000083DC 00000001     C   48398 47275
 =C', Interval='
              11 0000A416 00000001     C   54440 53505
 =C', Return='
               9 0000492C 00000001     C   33719 30981
 =C', Return='
               9 00008447 00000001     C   48407 47858
 =C', RETURN='
               9 0000B16E 00000001     C   57660 56270
 =C', Successfully read.'
              20 0000834C 00000001     C   48384 46861
 =C',(CACHE BYPASS)'
              15 000079E5 00000001     C   45729 44655
 =C',(CACHE INHIBIT)'
              16 00007880 00000001     C   45687 44631
 =C','         1 00001EBE 00000001     C   23450 22969  23028
 =C',LRECL='
               7 00006866 00000001     C   41556 39565
 =C',Volume='
               8 00007878 00000001     C   45686 44532
 =C''')'       2 00004814 00000001     C   33706 31857
 =C''''        1 0000185C 00000001     C   21445 21033
 =C'=>'        2 00002E36 00000001     C   27527 27299
 =C'" in control file at line '
              26 00002E1C 00000001     C   27526 27110
 =C'" keyword.'
              10 00004876 00000001     C   33713 33498
 =C'"'         1 000049FD 00000001     C   33732 33545
 =C'"ABORT"'
               7 000012D1 00000001     C   19961 18959
 =C'"QUIT"'
               6 00001194 00000001     C   19947 18983
 =C'and '      4 0000AF58 00000001     C   57629 55864  57338
 =C'characteristics.'
              16 00007890 00000001     C   45688 45474
 =C'clearing incremental merge option.'
              34 00008BC6 00000001     C   49929 48772
1VDMP     (VDMP21) (09:46) (22MAR04) Ordinary Symbol and Literal Cross Reference                                            Page  404
 =C'data to cleanup.'
              16 0000AE98 00000001     C   57612 55062
 =C'for VDMP exit.'
              14 00004816 00000001     C   33707 31906
 =C'format function.'
              16 0000AEC8 00000001     C   57615 56801  56902
 =C'incremental merge option.'
              25 00008C7D 00000001     C   49940 48592
 =C'is current.'
              11 00008CEC 00000001     C   49943 48837
 =C'or READANY (ESCON);'
              19 00001203 00000001     C   19953 17349
 =C'segment '
               8 00000FA0 00000001     C   19910 18901  19320
 =C'segment '
               8 0000A260 00000001     C   54406 54156
 =C'Abend('
               6 00002DC8 00000001     C   27516 25141
 =C'Abend('
               6 000047EA 00000001     C   33703 31515
 =C'Actual block='
              13 00006883 00000001     C   41559 40501
 =C'Asynchronous EOV.'
              17 00006B64 00000001     C   42298 42001
 =C'ABORT'
               5 00005972 00000001     C   38121 36736
 =C'ALLOCATING IXR INPUT FILE.'
              26 00009328 00000001     C   51062 50077
 =C'Blocks written after this date will be dumped.'
              46 00003B0C 00000001     C   30492 28509
 =C'BCV volumes indicate '
              21 0000B136 00000001     C   57656 55598
 =C'Communication task active.'
              26 0000A30C 00000001     C   54424 52626
 =C'Communication task failure QEDIT='
              33 0000A38D 00000001     C   54431 52529
 =C'Completion code '
              16 000006F8 00000001     C   17222 17139
 =C'Completion code '
              16 00008308 00000001     C   48370 48081
 =C'Computed block='
              15 0000686D 00000001     C   41557 40324
 =C'CATALOG DUMP'
              12 00001084 00000001     C   19934 18848  19267
 =C'CATALOG DUMP'
              12 0000A300 00000001     C   54423 54128
 =C'CLEANUP FUNCTION.'
              17 0000B024 00000001     C   57646 54732
 =C'Device.'
               7 000079FB 00000001     C   45731 45597
 =C'Dsn='      4 00007918 00000001     C   45706 44504
 =C'Dump taken at '
              14 000011BC 00000001     C   19949 19768
 =C'Dumping'
               7 000079C4 00000001     C   45726 44359
 =C'Dynamic allocation failed, RETURN('
              34 00001E22 00000001     C   23439 22474
 =C'DISABLED.'
               9 00002EAF 00000001     C   27534 24893
1VDMP     (VDMP21) (09:46) (22MAR04) Ordinary Symbol and Literal Cross Reference                                            Page  405
 =C'DSN='      4 00006F20 00000001     C   43268 42910
 =C'DSN='      4 0000AF5C 00000001     C   57630 56469
 =C'DUMMY '
               6 00006B28 00000001     C   42293 41741
 =C'DUMP'      4 00004778 00000001     C   33683 31342
 =C'Elapsed time for subtask= '
              26 0000182E 00000001     C   21442 21066
 =C'End of task.'
              12 00006AFC 00000001     C   42284 41963
 =C'Entry parameters '
              17 00003C2E 00000001     C   30505 29739
 =C'Error count too high.'
              21 00006B42 00000001     C   42296 41849
 =C'Error('
               6 00001E44 00000001     C   23440 22555
 =C'ECKD full cylinder read CCW''s enabled.'
              38 000010A0 00000001     C   19939 17450
 =C'ECKD read track CCW''s enabled.'
              30 000010C6 00000001     C   19940 17474
 =C'ENABLED.'
               8 00002C50 00000001     C   27483 24868
 =C'ESTABLISHED'
              11 0000B14B 00000001     C   57657 55623
 =C'File contains '
              14 0000AFE0 00000001     C   57642 55735
 =C'Filedump'
               8 00004668 00000001     C   33645 30704
 =C'Filedump'
               8 000082C8 00000001     C   48367 47646
 =C'For DSN='
               8 00005748 00000001     C   38073 35943
 =C'Full dump taken, Return='
              24 0000AEA8 00000001     C   57613 56137
 =C'FORMAT FUNCTION.'
              16 0000AE70 00000001     C   57609 54671
 =C'FULL DUMP'
               9 00003B98 00000001     C   30499 28307
 =C'Global I/O''s/second: Target='
              28 0000A2A8 00000001     C   54417 53316
 =C'Header='
               7 0000687C 00000001     C   41558 40399
 =C'HDRlen='
               7 000079F4 00000001     C   45730 44700
 =C'Incremental dump taken, Return='
              31 0000B0B2 00000001     C   57650 55112  56385
 =C'Instantaneous I/O Rate='
              23 0000A3FF 00000001     C   54439 53471
 =C'Insufficient memory to initialize.'
              34 000048AA 00000001     C   33715 33589
 =C'Insufficient memory'
              19 00008D76 00000001     C   49947 49447
 =C'IGNORED.'
               8 00002C58 00000001     C   27484 26565
 =C'INCD'      4 00006EF8 00000001     C   43258 42380
 =C'INCD'      4 00008B7C 00000001     C   49920 49131
 =C'INCREMENTAL'
              11 00003BA1 00000001     C   30500 28343
 =C'IXR INPUT/OUTPUT FILES OPEN.'
              28 000092C8 00000001     C   51056 50902
1VDMP     (VDMP21) (09:46) (22MAR04) Ordinary Symbol and Literal Cross Reference                                            Page  406
 =C'IXRDUMP'
               7 00004963 00000001     C   33722 31335
 =C'Loaded at '
              10 0000480A 00000001     C   33705 31704
 =C'LIST FUNCTION.'
              14 0000AFCC 00000001     C   57638 54708
 =C'Maximum data.'
              13 00006B57 00000001     C   42297 41925
 =C'New file volume.'
              16 00006AE8 00000001     C   42282 41887
 =C'No active filedump tasks, hummm?'
              32 0000A238 00000001     C   54404 53951
 =C'No incremental data sets chained.'
              33 0000B0D1 00000001     C   57651 55199
 =C'NO'        2 00004850 00000001     C   33710 33325
 =C'P '        2 0000B7BC 00000001     C   59491 58280
 =C'Parallel channel CCW chain is enabled.'
              38 00001130 00000001     C   19943 17630
 =C'Processing'
              10 0000794C 00000001     C   45716 44335
 =C'QUIT'      4 000057C8 00000001     C   38096 36712
 =C'Read any (ESCON) CCW''s enabled.'
              31 00001221 00000001     C   19955 17502
 =C'Recording not possible this run.'
              32 000039D0 00000001     C   30467 28698
 =C'Remaining data on this card will be flushed.'
              44 00002D0C 00000001     C   27509 27183
 =C'Return '
               7 0000126B 00000001     C   19957 18228
 =C'Return('
               7 00005961 00000001     C   38118 36097
 =C'Reverting to ECKD read track commands.'
              38 00007984 00000001     C   45722 45507  45630
 =C'RETURN('
               7 000049EA 00000001     C   33729 32044
 =C'RETURN('
               7 0000682E 00000001     C   41552 38735
 =C'RETURN('
               7 000099CF 00000001     C   52133 51424
 =C'Sequential Cache Staging will be used.'
              38 000010E4 00000001     C   19941 17554
 =C'Subtask '
               8 0000A258 00000001     C   54405 54012
 =C'SECTOR option has been disabled.'
              32 00000F60 00000001     C   19905 17382
 =C'SET SECTOR channel command is enabled.'
              38 0000110A 00000001     C   19942 17606
 =C'SETTING TO FILE 2'
              17 00009372 00000001     C   51067 50304
 =C'SPLIT'
               5 0000B156 00000001     C   57658 55652
 =C'SUBP'      4 00002CE8 00000001     C   27500 25413
 =C'Tapedsn='
               8 00006658 00000001     C   41487 39670
 =C'Termination status.'
              19 00001331 00000001     C   19967 19735
 =C'Total elapsed time='
              19 00001E7F 00000001     C   23443 21555
 =C'TOD Clock value '
1VDMP     (VDMP21) (09:46) (22MAR04) Ordinary Symbol and Literal Cross Reference                                            Page  407
              16 000039B8 00000001     C   30465 28400
 =C'Unexpected CIB queued'
              21 0000A378 00000001     C   54430 52430
 =C'Unlimited'
               9 0000A3ED 00000001     C   54437 53377
 =C'Version='
               8 00004670 00000001     C   33646 30722
 =C'Version='
               8 000082D0 00000001     C   48368 47664
 =C'VDMP003I - Using last successful '
              33 00003B77 00000001     C   30498 28299
 =C'VDMP005I - Input parms =>'
              25 00004913 00000001     C   33718 30888
 =C'VDMP007E - Unable to open CONTROL file.'
              39 00002E3A 00000001     C   27529 24374
 =C'VDMP010E - Missing parameter for "'
              34 00004854 00000001     C   33712 33470
 =C'VDMP011E - Parameter error in control file at card '
              51 00002F4B 00000001     C   27542 27227
 =C'VDMP015E - Invalid keyword in EXEC field "'
              42 00004880 00000001     C   33714 33518
 =C'VDMP016I - '
              11 00001216 00000001     C   19954 17408  17582
 =C'VDMP017W - SECTOR option invalid with ECKD, CYL, '
              49 000011D2 00000001     C   19952 17340
 =C'VDMP021W - Unable to allocate SYSUDUMP DD.'
              42 000047C0 00000001     C   33702 31140
 =C'VDMP029E - Unable to allocate subtask control blocks'
              52 00001034 00000001     C   19926 18063
 =C'VDMP033E - Open failed on control DCB.'
              38 00002DA2 00000001     C   27515 25108
 =C'VDMP035E - Parameter error in EXEC parm field'
              45 000049FE 00000001     C   33733 33570
 =C'VDMP037E - Missing keyword operand'
              34 000048CC 00000001     C   33716 33628
 =C'VDMP043E - Insufficient memory to process'
              41 00002F00 00000001     C   27539 25343
 =C'VDMP045I - Tape dsname prefix '
              30 00002D84 00000001     C   27514 24810
 =C'VDMP046I - IDRC data compaction is '
              35 00002E8C 00000001     C   27533 24843
 =C'VDMP047I - History file data set is '
              36 00002CB0 00000001     C   27494 24965
 =C'VDMP051E - IDENTIFY of subtask failed, return is '
              49 00001EBF 00000001     C   23451 23334
 =C'VDMP053E - Insufficient memory (HIO).'
              37 0000051E 00000001     C   16953 16849
 =C'VDMP053I - Incremental dump pool will be -'
              42 00003A64 00000001     C   30488 27598
 =C'VDMP057W - Unable to locate unit control block'
              46 00003A8E 00000001     C   30489 27707
 =C'VDMP058E - Unable to determine device '
              38 0000795E 00000001     C   45721 45465
 =C'VDMP059W - Read any mode not supported for this '
              48 000078A0 00000001     C   45689 45588
 =C'VDMP061E - No files could be found.'
              35 00002E69 00000001     C   27532 24673
 =C'VDMP073W - Undefined keyword parameter "'
              40 00002C70 00000001     C   27487 27082
1VDMP     (VDMP21) (09:46) (22MAR04) Ordinary Symbol and Literal Cross Reference                                            Page  408
 =C'VDMP083I - Initial target global I/O rate will be '
              50 00002D40 00000001     C   27512 24734
 =C'VDMP085W - Unable to open history file.'
              39 00003BDA 00000001     C   30503 28763
 =C'VDMP086I - History file base block loaded.'
              42 00003B4C 00000001     C   30496 28801
 =C'VDMP087I - Report on incremental dump data sets.'
              48 00000FB0 00000001     C   19912 19469
 =C'VDMP088I - Offload function of filedump.'
              40 00008A30 00000001     C   49904 48469
 =C'VDMP089E - Insufficient memory.'
              31 00002F29 00000001     C   27540 25850
 =C'VDMP097W - Unable to allocate history file.'
              43 00003BAF 00000001     C   30502 28665
 =C'VDMP109I - Communication task active.'
              37 00001272 00000001     C   19958 18311
 =C'VDMP110I - Offloading '
              22 000099AC 00000001     C   52129 51650
 =C'VDMP119E - Unable to establish ESTAE environment'
              48 000082D8 00000001     C   48369 47849
 =C'VDMP119W - Unable to establish ESTAE environment'
              48 00004678 00000001     C   33647 30972
 =C'VDMP121I - ESTAE Environment established.'
              41 00004935 00000001     C   33720 31050
 =C'VDMP121I - ESTAE Environment established.'
              41 00008450 00000001     C   48408 47927
 =C'VDMP123E - Error allocating file volumes.'
              41 00005938 00000001     C   38117 36064
 =C'VDMP127W - Unable to initialize comm task, '
              43 00001240 00000001     C   19956 18219
 =C'VDMP173I - Dumping from BCV volumes.'
              36 00000FF4 00000001     C   19918 17674
 =C'VDMP201I - GLOBAL I/O statistic report for filedump'
              51 00001E4C 00000001     C   23442 21522
 =C'VDMP202I - Begin subtask for segment '
              37 000058E8 00000001     C   38115 35577
 =C'VDMP208I - Initial subtask target I/O rate is '
              46 00005802 00000001     C   38106 35648
 =C'VDMP223I - Merging with DSN='
              28 00008B2C 00000001     C   49918 48932
 =C'VDMP224E - Previous increment has pool records.'
              47 00008CF7 00000001     C   49944 48900
 =C'VDMP313E - Error allocating tape volume.'
              40 00006630 00000001     C   41486 38702
 =C'VDMP317I - Incremental data set allocated on '
              45 00006F82 00000001     C   43278 42858
 =C'VDMP319E - Error return from devtype, r15('
              42 000067B4 00000001     C   41543 39077
 =C'VDMP320E - Bad return from RDJFCB, R15('
              39 0000683F 00000001     C   41555 39329
 =C'VDMP323E - Run aborted.'
              23 00002EDF 00000001     C   27536 25043
 =C'VDMP377E - Device error on '
              27 00005A0E 00000001     C   38129 37977
 =C'VDMP387I - Switching volume '
              28 00005780 00000001     C   38084 35861
 =C'VDMP388E - Unable to locate volume for DSN='
              43 0000590D 00000001     C   38116 35819
 =C'VDMP402I - '
1VDMP     (VDMP21) (09:46) (22MAR04) Ordinary Symbol and Literal Cross Reference                                            Page  409
              11 000012E1 00000001     C   19963 19145
 =C'VDMP404E - '
              11 000012C6 00000001     C   19960 18774
 =C'VDMP404I - '
              11 00001848 00000001     C   21443 20903
 =C'VDMP449E - ERROR ALLOCATING IXR INPUT FILE.'
              43 00009346 00000001     C   51065 50116
 =C'VDMP453I - Subtask terminating due to '
              38 00005852 00000001     C   38110 36688
 =C'VDMP454I - Pool control blocks built.'
              37 00008D51 00000001     C   49946 49172
 =C'VDMP455I - Incremental daily merge in is effect.'
              48 00008A60 00000001     C   49906 48873
 =C'VDMP501I - Dumptape open: BLKSIZE='
              34 000067DE 00000001     C   41544 39518
 =C'VDMP505I - Elapsed time for volume '
              35 00006B76 00000001     C   42300 42142
 =C'VDMP506I - Keylen='
              18 00007938 00000001     C   45714 43674
 =C'VDMP507I - '
              11 000079B9 00000001     C   45725 44311
 =C'VDMP509I - Incremental DCB open.'
              32 00006610 00000001     C   41485 38390
 =C'VDMP555W - Block sequence error:  '
              34 00006800 00000001     C   41545 40315
 =C'VDMP557E - Unable to determine date range.'
              42 00003AE2 00000001     C   30491 28213
 =C'VDMP559E - No dump record found in history file.'
              48 00003970 00000001     C   30463 28056
 =C'VDMP573E - CONTROL file must be present for offload.'
              52 00008AEC 00000001     C   49914 48500
 =C'VDMP574E - Error creating event table, Return='
              46 00001156 00000001     C   19944 17953
 =C'VDMP579E - No incremental records in file.'
              42 00008B9C 00000001     C   49928 48689
 =C'VDMP581E - NO POOL Records exist for incemental rec.'
              52 00008B48 00000001     C   49919 49002
 =C'VDMP583E - Insufficient memory for offload.'
              43 00008D26 00000001     C   49945 49098
 =C'VDMP583E - INSUFFICIENT MEMORY FOR IXR DUMP.'
              44 000092E4 00000001     C   51057 50962
 =C'VDMP583I - Exit routine has been disabled.'
              42 00004824 00000001     C   33708 32008
 =C'VDMP601E - ('
              12 000057D8 00000001     C   38100 37807
 =C'VDMP601I - History File Maintenance '
              36 0000AEF4 00000001     C   57618 54647
 =C'VDMP603E - HISTORY file must be defined for '
              44 0000AF60 00000001     C   57631 56792
 =C'VDMP603I - FEOV on '
              19 00006B2E 00000001     C   42294 41717
 =C'VDMP605E - Unable to open history file for '
              43 0000B178 00000001     C   57662 56893
 =C'VDMP609I - ESTAE routine has been entered.  '
              44 00008380 00000001     C   48393 48072
 =C'VDMP609I - ESTAE routine has been entered.'
              42 0000071C 00000001     C   17228 17106
 =C'VDMP610I - History file parameters.'
              35 0000B1A3 00000001     C   57663 57013
1VDMP     (VDMP21) (09:46) (22MAR04) Ordinary Symbol and Literal Cross Reference                                            Page  410
 =C'VDMP613E - Error allocating tape volume.'
              40 00009888 00000001     C   52094 51391
 =C'VDMP644I - History file updated.'
              32 00008A98 00000001     C   49908 49596
 =C'VDMP664I - '
              11 00008DA0 00000001     C   49949 49839
 =C'VDMP666I - History file formatting complete.'
              44 0000AFA0 00000001     C   57637 57539
 =C'VDMP668E - Uncatalog error'
              26 00008C36 00000001     C   49937 49812
 =C'VDMP701I - '
              11 000059D7 00000001     C   38126 37305
 =C'VDMP703I - Interval counters: '
              30 000058B8 00000001     C   38113 37477
 =C'VDMP707I - Elapsed time= '
              25 000059F5 00000001     C   38128 37629
 =C'VDMP721I - No records on previous incremental tape'
              50 00008C00 00000001     C   49934 49637
 =C'VDMP732E - '
              11 00001EA5 00000001     C   23445 22465
 =C'VDMP732E - No more incremental dump pool space.'
              47 00006F53 00000001     C   43277 42586
 =C'VDMP732I - CONSOLE ('
              20 0000A288 00000001     C   54413 52860
 =C'VDMP739E - Unable to open history file.'
              39 00002EB8 00000001     C   27535 25013
 =C'VDMP751I - List function.'
              25 0000B0F2 00000001     C   57652 55383
 =C'VDMP752I - Cleanup function.'
              28 0000AF28 00000001     C   57623 54980
 =C'VDMP753E - Control file must be present for list.'
              49 0000B035 00000001     C   57647 54940
 =C'VDMP755I - Base record loaded for processing.'
              45 0000B066 00000001     C   57648 55015  55413
 =C'VDMP756E - No incremental dump '
              31 0000B093 00000001     C   57649 55053
 =C'VDMP762W - No previous incremental record, '
              43 00008C96 00000001     C   49941 48763
 =C'VDMP763W - Incremental DSN size out of order, '
              46 00002DEA 00000001     C   27523 26556
 =C'VDMP769E - History file full, sorry Mom.'
              40 000039F0 00000001     C   30468 30287
 =C'VDMP801I - Tape has been deallocated.'
              37 00005980 00000001     C   38123 37002
 =C'VDMP802I - Tape data set has been uncataloged.'
              46 00005878 00000001     C   38111 37016
 =C'VDMP803I - Incremental data has been dumped.'
              44 0000925C 00000001     C   51051 50519
 =C'VDMP810E - Bad return from uncatalog request '
              45 000059A5 00000001     C   38124 37054
 =C'VDMP831I - Communication task shutdown.'
              39 000015C2 00000001     C   20780 20035
 =C'VDMP831I - No dump record exists, clearing '
              43 00008C52 00000001     C   49939 48583
 =C'VDMP832E - Locate error'
              23 00008D89 00000001     C   49948 49708
 =C'VDMP834E - Unable to load requested exit '
              41 0000496A 00000001     C   33723 31463
 =C'VDMP834I - Formatting for '
1VDMP     (VDMP21) (09:46) (22MAR04) Ordinary Symbol and Literal Cross Reference                                            Page  411
              26 0000B00A 00000001     C   57645 57257
 =C'VDMP835I - Requested exit '
              26 000047F0 00000001     C   33704 31643
 =C'VDMP837W - Unexpected return from IDENTIFY macro '
              49 000049B9 00000001     C   33728 31897
 =C'VDMP845E - Scratch error'
              24 00008AB8 00000001     C   49909 49765
 =C'VDMP873I - Recomputed pool'
              26 00006F34 00000001     C   43275 43104
 =C'VDMP886I - History file listing'
              31 0000B10B 00000001     C   57653 55449
 =C'VDMP888I - Task begin quiesced.'
              31 0000A3AE 00000001     C   54432 52808
 =C'VDMP907S - History access logic error. (READ)'
              45 00003C01 00000001     C   30504 29706
 =C'VDMP907S - History file access error. (WRITE)'
              45 00003C40 00000001     C   30507 30020
 =C'VDMP909S - (1) Error processing subtask blocks.'
              47 00001297 00000001     C   19959 18477
 =C'VDMP911I - There were '
              22 000015AC 00000001     C   20779 20106
 =C'VDMP923I - History file updated with '
              37 0000130C 00000001     C   19966 19726
 =C'VDMP931I - I/O Rate summary ('
              29 0000A3CE 00000001     C   54434 53211
 =C'VDMP932E - Missing I/O rate from command.'
              41 0000A422 00000001     C   54442 53599
 =C'VDMP932I - I/O rate has been set to '
              36 0000A2D0 00000001     C   54421 53647
 =C'VDMP933E - Missing interval from command.'
              41 0000A44B 00000001     C   54443 53799
 =C'VDMP933I - Upate interval has been set to '
              42 0000A32E 00000001     C   54427 53847
 =C'VDMP937I - Unlimited I/O rate mode now in effect'
              48 0000A208 00000001     C   54403 53737
 =C'VDMP947E - INVALID COMMAND'
              26 0000A35E 00000001     C   54429 54264
 =C'VDMP982E - UNABLE TO OPEN IXR INPUT'
              35 00009392 00000001     C   51069 50770
 =C'VDMP982E - UNABLE TO OPEN IXR OUTPUT'
              36 000092A4 00000001     C   51055 50873
 =C'VDMP985I - CLearing daily merge, base dump '
              43 00008CC1 00000001     C   49942 48828
 =C'VDMP998S - Function not yet implemented, sorry.'
              47 000004EF 00000001     C   16952 15947
 =C'VDMP999S - (2) Severe program logic error'
              41 000004C6 00000001     C   16951 15881
 =C'VERIFY'
               6 0000118E 00000001     C   19946 18873  19292
 =C'VERIFY'
               6 0000A358 00000001     C   54428 54103
 =C'VIDC'      4 0000B720 00000001     C   59484 58070  59013
 =C'With tasking level set at '
              26 00001DF4 00000001     C   23436 21615
 =C'YES'       3 00002F48 00000001     C   27541 26616
 =C'YES'       3 000049FA 00000001     C   33731 33360
 =CL132' '
             132 0000B72C 00000001     C   59487 58501
 =CL2'+1'      2 00006768 00000001     C   41529 38587
1VDMP     (VDMP21) (09:46) (22MAR04) Ordinary Symbol and Literal Cross Reference                                            Page  412
 =CL2'+1'      2 0000994E 00000001     C   52112 51341
 =CL4'HIO '
               4 000004B0 00000001     C   16944 16875
 =CL4'SUBT'
               4 00001068 00000001     C   19927 18105
 =CL4'VXIT'
               4 0000159C 00000001     C   20775 20715
 =CL4'VXIT'
               4 00004790 00000001     C   33689 31984
 =CL4'VXIT'
               4 000066F4 00000001     C   41504 39461
 =CL44'NULLFILE'
              44 00006680 00000001     C   41495 38466
 =CL44'NULLFILE'
              44 000098B0 00000001     C   52095 51152
 =CL44'SYS3.PROTO.DSCB'
              44 000066AC 00000001     C   41496 38607
 =CL44'SYS3.PROTO.DSCB'
              44 000098DC 00000001     C   52096 51361
 =CL6' '       6 00002DE2 00000001     C   27521 25890
 =CL8' '       8 00002C60 00000001     C   27485 26679
 =CL8' '       8 000046C8 00000001     C   33652 31314
 =CL8'COMTASK'
               8 00000F88 00000001     C   19907 18152
 =CL8'CONTROL'
               8 00000F58 00000001     C   19904 17270
 =CL8'CONTROL'
               8 00002C48 00000001     C   27482 24310
 =CL8'CONTROL'
               8 00008A58 00000001     C   49905 48481
 =CL8'CONTROL'
               8 0000AE90 00000001     C   57611 54921
 =CL8'DATE'
               8 00004718 00000001     C   33662 33002
 =CL8'DMPSEG'
               8 00000F80 00000001     C   19906 18128  19087
 =CL8'DUMMY'
               8 00002C68 00000001     C   27486 26692
 =CL8'EGLIMIT'
               8 000046E8 00000001     C   33656 32381
 =CL8'EXIT'
               8 000046F0 00000001     C   33657 32412
 =CL8'FILE'
               8 00005730 00000001     C   38070 35393  35394
 =CL8'GENS'
               8 000046D8 00000001     C   33654 32272
 =CL8'HISTORY'
               8 000039C8 00000001     C   30466 28584  28637
 =CL8'HISTORY'
               8 0000AEC0 00000001     C   57614 56773  56831
 =CL8'IGENS'
               8 000046E0 00000001     C   33655 32311
 =CL8'INCDATA'
               8 00009238 00000001     C   51043 50226  50250  50322  50843
 =CL8'INCDATA'
               8 00009878 00000001     C   52092 51271
 =CL8'INCFILE'
               8 00009220 00000001     C   51040 50034  50177
 =CL8'INCIXIN'
1VDMP     (VDMP21) (09:46) (22MAR04) Ordinary Symbol and Literal Cross Reference                                            Page  413
               8 00009230 00000001     C   51042 50093  50741
 =CL8'INCOLD'
               8 00008A90 00000001     C   49907 49257  49315
 =CL8'INCSIZE'
               8 00004708 00000001     C   33660 32627
 =CL8'NAME'
               8 000046D0 00000001     C   33653 32194
 =CL8'SEGMENT'
               8 00004728 00000001     C   33664 33240
 =CL8'SYSABEND'
               8 000046B8 00000001     C   33650 31107
 =CL8'SYSALLDA'
               8 00005740 00000001     C   38072 35495
 =CL8'SYSALLDA'
               8 00006608 00000001     C   41484 38329
 =CL8'SYSMDUMP'
               8 000046B0 00000001     C   33649 31091
 =CL8'SYSPRT'
               8 00004660 00000001     C   33644 30589  30608  30662
 =CL8'SYSPRT'
               8 00005728 00000001     C   38069 35392
 =CL8'SYSUDUMP'
               8 000046A8 00000001     C   33648 31075  31123
 =CL8'TAPE'
               8 000046C0 00000001     C   33651 31313
 =CL8'TAPE'
               8 00005738 00000001     C   38071 35395
 =CL8'TASKLVL'
               8 00004700 00000001     C   33659 32513
 =CL8'TIME'
               8 00004720 00000001     C   33663 33119
 =CL8'TRACE'
               8 00004710 00000001     C   33661 32666
 =CL8'TWLIMIT'
               8 000046F8 00000001     C   33658 32482
 =CL8'VBLD'
               8 00000F90 00000001     C   19908 18567
 =CL8'VERIFY'
               8 00000F98 00000001     C   19909 18598
 =F'-8'        4 00007930 00000001     F   45712 45179
 =F'1000000'
               4 000047B8 00000001     F   33699 33441
 =F'19'        4 00006708 00000001     F   41509 40149
 =F'8'         4 0000833C 00000001     F   48380 46415  47401
 =H'-99'       2 00007956 00000001     H   45717 44818
 =H'100'       2 00005830 00000001     H   38107 35657
 =H'100'       2 000083AC 00000001     H   48394 45980
 =H'6'         2 0000B7BE 00000001     H   59492 58568
 =P'0'         1 00006827 00000001     P   41549 38175
 =P'0'         1 00006B75 00000001     P   42299 42069
 =P'0'         1 00009371 00000001     P   51066 50245
 =P'160000000'
               5 0000495E 00000001     P   33721 31312  33380
 =PL1'0'       1 00006826 00000001     P   41548 38174
 =V(BTD)       4 00001030 00000001     V   19925 17979  18254  19202
 =V(BTD)       4 00001594 00000001     V   20773 20132
 =V(BTD)       4 000017FC 00000001     V   21434 20960
 =V(BTD)       4 00001DD0 00000001     V   23427 21656  21710  22500  23360
 =V(BTD)       4 00002D08 00000001     V   27508 27136  27253
1VDMP     (VDMP21) (09:46) (22MAR04) Ordinary Symbol and Literal Cross Reference                                            Page  414
 =V(BTD)       4 00003A60 00000001     V   30487 29765  29813
 =V(BTD)       4 00004754 00000001     V   33674 31007  32070  32118
 =V(BTD)       4 000057A0 00000001     V   38086 36017  36123  37089  37833  37926
 =V(BTD)       4 000066D8 00000001     V   41497 38650  38761  39103  39355  39543  39590
 =V(BTD)       4 000078D0 00000001     V   45690 43363  43699  43746  43793  43840  44725  44772
 =V(BTD)       4 00008334 00000001     V   48378 46098  46140  46181  46788  47042  47884
 =V(BTD)       4 00009914 00000001     V   52100 51450
 =V(BTD)       4 0000A284 00000001     V   54412 52555  53237  54038  54182
 =V(BTD)       4 0000AF48 00000001     V   57625 55138  55761  55809  55890  55938  56163  56296  56411  57283  57364
 =V(BTDC)      4 00003A28 00000001     V   30473 27876
 =V(BTDC)      4 000057CC 00000001     V   38097 37331  37545
 =V(BTDC)      4 00006710 00000001     V   41511 40353  40536  41409
 =V(BTDC)      4 00006F28 00000001     V   43270 43171
 =V(BTDC)      4 00007914 00000001     V   45705 44393
 =V(BTDC)      4 00008364 00000001     V   48386 47544
 =V(BTDC)      4 0000928C 00000001     V   51053 50569
 =V(BTDC)      4 0000AF98 00000001     V   57635 57066  57141  57216
 =V(BTR)       4 00001DD4 00000001     V   23428 21770  21831
 =V(BTR)       4 00002CAC 00000001     V   27493 24745
 =V(BTR)       4 0000577C 00000001     V   38083 35664
 =V(BTR)       4 00006B24 00000001     V   42292 42236
 =V(BTR)       4 0000A2C4 00000001     V   54418 53342  53407  53485  53516  53658  53858
 =V(BTX)       4 00000718 00000001     V   17227 17168
 =V(BTX)       4 00001800 00000001     V   21435 21011
 =V(BTX)       4 00001DE4 00000001     V   23432 22591  22649  22724  22782  22887  22947  23006  23065  23147
 =V(BTX)       4 00002CDC 00000001     V   27497 25171  25224
 =V(BTX)       4 00003A40 00000001     V   30479 28429
 =V(BTX)       4 00004784 00000001     V   33686 31541  31589  31733  31785  31835
 =V(BTX)       4 000057A4 00000001     V   38087 36181  36239
 =V(BTX)       4 000066E4 00000001     V   41500 38819  38877  40428  40470
 =V(BTX)       4 0000831C 00000001     V   48372 45889  46838  47249  47303  47357  47424  47478  48110
 =V(BTX)       4 00009918 00000001     V   52101 51508  51566
 =V(BTX)       4 0000A29C 00000001     V   54414 52895
 =V(DAYF)      4 00004748 00000001     V   33671 30793
 =V(DAYF)      4 00008370 00000001     V   48389 47725
 =V(DTB)       4 00002D04 00000001     V   27507 26992
 =V(DTB)       4 000047B0 00000001     V   33697 33402
 =V(FMTCLCK)
               4 00001098 00000001     V   19937 19782
 =V(FMTCLCK)
               4 00003A44 00000001     V   30480 28465
 =V(FMTCLCK)
               4 0000AF50 00000001     V   57627 55520  55676  56698
 =V(FMTTIME)
               4 00001080 00000001     V   19933 18785  19156
 =V(FMTTIME)
               4 000017F8 00000001     V   21433 20914  21081
 =V(FMTTIME)
               4 00001DCC 00000001     V   23426 21571
 =V(FMTTIME)
               4 00006B0C 00000001     V   42286 42157
 =V(SCAN)      4 00002CA8 00000001     V   27492 24481  25790
 =V(SCAN)      4 00004780 00000001     V   33685 31395
 =V(SCAN)      4 0000A2A4 00000001     V   54416 53019
 =V(SCINIT)
               4 00002CA4 00000001     V   27491 24465  25768
 =V(SCINIT)
               4 0000477C 00000001     V   33684 31379
 =V(SCINIT)
1VDMP     (VDMP21) (09:46) (22MAR04) Ordinary Symbol and Literal Cross Reference                                            Page  415
               4 0000A2A0 00000001     V   54415 53003
 =V(TIME)      4 0000474C 00000001     V   33672 30825
 =V(TIME)      4 000057D4 00000001     V   38099 37648
 =V(TIME)      4 00008374 00000001     V   48390 47765
 =V(VCNTRL)
               4 00000714 00000001     V   17226 17134
 =V(VCNTRL)
               4 00000FF0 00000001     V   19917 17377  17549  19140  19550  19763
 =V(VCNTRL)
               4 00001590 00000001     V   20772 20101  20205
 =V(VCNTRL)
               4 000017F0 00000001     V   21431 20898  21061
 =V(VCNTRL)
               4 00001DC8 00000001     V   23425 21550  21610  21755  21818  22460  22550  22699  22862
 =V(VCNTRL)
               4 00002CD8 00000001     V   27496 25136  27177  27294
 =V(VCNTRL)
               4 00003A20 00000001     V   30471 27656  27847  28395  28504  28693  29734
 =V(VCNTRL)
               4 00004738 00000001     V   33667 30677  30699  30787  30865  31510  31699  32039  33618
 =V(VCNTRL)
               4 0000579C 00000001     V   38085 35938  36092  37300  37394  37413  37465  37513  37624  37701
 =V(VCNTRL)
               4 000066E0 00000001     V   41499 38730  39665  40394  41442
 =V(VCNTRL)
               4 00006B10 00000001     V   42287 42202
 =V(VCNTRL)
               4 00006F1C 00000001     V   43267 42905  43149
 =V(VCNTRL)
               4 00007910 00000001     V   45704 44306  44480  44499  44695  45502  45625
 =V(VCNTRL)
               4 00008360 00000001     V   48385 47090  47138  47190  47619  47641  47714  47759  47804
 =V(VCNTRL)
               4 00009288 00000001     V   51052 50547  50619
 =V(VCNTRL)
               4 00009910 00000001     V   52099 51419
 =V(VCNTRL)
               4 0000A280 00000001     V   54411 52450  52588  52646  52833  52959  53127  53143  53291  53311  53446
                                                 53466  53562  53624  53694  53762  53824  53894  53976  54224  54289
 =V(VCNTRL)
               4 0000AEF0 00000001     V   57617 54642  55194  55279  55444  55593  55730  55859  56246  56464  56565
                                                 56653  57041  57116  57191  57333
 =V(VIDCINIT)
               4 00004734 00000001     V   33666 30643
 =V(VIDCINIT)
               4 00008368 00000001     V   48387 47602
 =V(VIDCINIT)
               4 0000A268 00000001     V   54407 52329
 =V(VSEG)      4 00000494 00000001     V   16937 15885  15951  16853
 =V(VSEG)      4 0000070C 00000001     V   17224 17110  17143  17185
 =V(VSEG)      4 00000FE8 00000001     V   19915 17344  17353  17386  17412  17454  17478  17506  17558  17586  17610
                                                 17634  17678  17957  17996  18067  18223  18232  18271  18315  18481
                                                 18778  18800  18809  18852  18877  18905  18926  18939  18963  18987
                                                 19000  19149  19171  19180  19219  19228  19271  19296  19324  19345
                                                 19473  19572  19586  19730  19739  19772  19797  19806  19836  19867
 =V(VSEG)      4 00001588 00000001     V   20770 20039  20110  20149  20158
 =V(VSEG)      4 000017F4 00000001     V   21432 20907  20929  20938  20977  20986  21028  21037  21070  21096
 =V(VSEG)      4 00001DC4 00000001     V   23424 21526  21559  21586  21619  21673  21727  21785  21794  21846  21855
                                                 22469  22478  22517  22526  22559  22608  22617  22666  22675  22741
1VDMP     (VDMP21) (09:46) (22MAR04) Ordinary Symbol and Literal Cross Reference                                            Page  416
                                                 22750  22799  22808  22904  22913  22964  22973  23023  23032  23082
                                                 23091  23164  23198  23338  23377
 =V(VSEG)      4 00002C9C 00000001     V   27489 24378  24677  24738  24760  24769  24814  24833  24847  24872  24897
                                                 24969  24988  25017  25047  25112  25145  25188  25197  25241  25250
                                                 25347  25356  25854  26560  26569  27086  27105  27114  27153  27187
                                                 27231  27270  27303  27322  27331
 =V(VSEG)      4 00003A1C 00000001     V   30470 27602  27677  27686  27711  27762  27893  27902  28060  28217  28303
                                                 28362  28371  28404  28446  28455  28480  28513  28669  28702  28767
                                                 28805  29710  29743  29782  29791  29830  30024  30291
 =V(VSEG)      4 0000473C 00000001     V   33668 30708  30717  30726  30751  30810  30819  30844  30892  30909  30918
                                                 30976  30985  31024  31054  31144  31467  31487  31519  31558  31567
                                                 31606  31616  31647  31666  31676  31708  31750  31759  31802  31811
                                                 31852  31861  31901  31910  32012  32048  32087  32096  32135  32144
                                                 33474  33493  33502  33522  33540  33549  33574  33593  33602  33632
 =V(VSEG)      4 00005770 00000001     V   38080 35581  35602  35652  35679  35823  35842  35865  35884  35893  35914
                                                 35947  35966  36068  36101  36140  36149  36198  36207  36256  36265
                                                 36692  36716  36740  36753  37006  37020  37058  37067  37106  37115
                                                 37309  37348  37357  37378  37435  37444  37481  37562  37633  37670
                                                 37811  37850  37859  37880  37904  37943  37952  37981  38002
 =V(VSEG)      4 00006678 00000001     V   41493 38394  38706  38739  38778  38787  38836  38845  38894  38903  39081
                                                 39120  39129  39333  39372  39381  39522  39560  39569  39607  39674
                                                 39694  40319  40328  40370  40403  40445  40487  40496  40505  40553
                                                 41381  41426
 =V(VSEG)      4 00006AF8 00000001     V   42283 41721  41745  41782  41800  41819  41828  41853  41891  41929  41967
                                                 42005  42146  42178  42251  42260
 =V(VSEG)      4 00006F04 00000001     V   43261 42590  42862  42881  42914  42935  43108  43188  43197  43218
 =V(VSEG)      4 000078E8 00000001     V   45696 43678  43716  43725  43763  43772  43810  43819  43857  44315  44339
                                                 44363  44410  44419  44464  44508  44527  44536  44557  44596  44635
                                                 44659  44704  44742  44751  44789  45469  45478  45511  45592  45601
                                                 45634
 =V(VSEG)      4 00008320 00000001     V   48373 45906  45916  46115  46157  46198  46757  46805  46814  46855  46865
                                                 47069  47147  47167  47212  47225  47270  47279  47324  47333  47379
                                                 47392  47445  47454  47499  47513  47562  47650  47659  47668  47690
                                                 47740  47783  47853  47862  47901  47931  48076  48085  48127
 =V(VSEG)      4 00008AE0 00000001     V   49911 48473  48504  48587  48596  48693  48767  48776  48832  48841  48877
                                                 48904  48936  48955  49006  49102  49176  49451  49600  49641  49712
                                                 49769  49816  49843  49862  49871  49890
 =V(VSEG)      4 00009244 00000001     V   51045 50081  50120  50308  50523  50586  50595  50639  50648  50774  50877
                                                 50906  50966
 =V(VSEG)      4 00009908 00000001     V   52097 51395  51428  51467  51476  51525  51534  51583  51592  51654  51673
                                                 51682
 =V(VSEG)      4 0000A27C 00000001     V   54410 52434  52533  52572  52630  52812  52864  52912  52921  52938  53215
                                                 53254  53263  53320  53357  53381  53395  53422  53475  53500  53509
                                                 53531  53603  53651  53673  53741  53803  53851  53873  53955  54016
                                                 54055  54064  54107  54132  54160  54199  54268
 =V(VSEG)      4 0000AF18 00000001     V   57619 54651  54675  54712  54736  54944  54984  55019  55057  55066  55116
                                                 55155  55203  55298  55387  55417  55453  55483  55501  55514  55535
                                                 55602  55627  55656  55669  55691  55739  55778  55787  55826  55835
                                                 55868  55907  55916  55955  55964  56141  56180  56265  56274  56313
                                                 56389  56428  56473  56492  56584  56719  56728  56749  56758  56796
                                                 56805  56897  56906  57017  57083  57092  57158  57167  57233  57242
                                                 57261  57300  57309  57342  57381  57390  57543
 =V(VSEG)      4 0000B724 00000001     V   59485 58284  58303  58312  58350  58515
 =V(VWRITE)
               4 00000498 00000001     V   16938 15890  15956  16858
 =V(VWRITE)
               4 00000710 00000001     V   17225 17115  17190
 =V(VWRITE)
               4 00000FEC 00000001     V   19916 17358  17391  17530  17647  17683  18001  18072  18276  18320  18486
1VDMP     (VDMP21) (09:46) (22MAR04) Ordinary Symbol and Literal Cross Reference                                            Page  417
                                                 19005  19354  19464  19478  19591  19744  19876
 =V(VWRITE)
               4 0000158C 00000001     V   20771 20044  20163
 =V(VWRITE)
               4 00001804 00000001     V   21436 21042  21101
 =V(VWRITE)
               4 00001DC0 00000001     V   23423 21517  21531  21591  21736  21799  21860  22531  22680  22834  23211
                                                 23382
 =V(VWRITE)
               4 00002CA0 00000001     V   27490 24383  24682  24774  24838  24906  24993  25022  25052  25117  25255
                                                 25361  25859  26574  27158  27191  27275  27336
 =V(VWRITE)
               4 00003A18 00000001     V   30469 27593  27607  27716  27767  27907  28065  28222  28376  28485  28518
                                                 28674  28707  28772  28810  29715  29835  30029  30296
 =V(VWRITE)
               4 00004744 00000001     V   33670 30756  30849  30923  31029  31059  31149  31491  31620  31680  31866
                                                 31915  32017  32149  33507  33554  33579  33637
 =V(VWRITE)
               4 00005774 00000001     V   38081 35612  35684  35847  35919  35971  36073  36270  36758  37011  37025
                                                 37120  37449  37486  37588  37674  37961  38007
 =V(VWRITE)
               4 0000667C 00000001     V   41494 38399  38711  38908  39134  39386  39612  39699  40375  40558
 =V(VWRITE)
               4 00006B08 00000001     V   42285 42014  42183  42265
 =V(VWRITE)
               4 00006F08 00000001     V   43262 42595  42886  42940  43113  43223
 =V(VWRITE)
               4 000078F8 00000001     V   45698 43862  44676  44794  45483  45516  45606  45639
 =V(VWRITE)
               4 00008324 00000001     V   48374 45920  46203  46869  47171  47216  47383  47504  47566  47695  47788
                                                 47906  47936  48132
 =V(VWRITE)
               4 00008AE4 00000001     V   49912 48478  48509  48601  48698  48781  48846  48882  48909  48960  49011
                                                 49107  49181  49456  49605  49646  49717  49774  49821  49895
 =V(VWRITE)
               4 00009248 00000001     V   51046 50085  50125  50312  50514  50528  50600  50653  50779  50882  50910
                                                 50971
 =V(VWRITE)
               4 0000990C 00000001     V   52098 51400  51597  51687
 =V(VWRITE)
               4 0000AF1C 00000001     V   57620 54745  54949  54989  55024  55071  55160  55208  55303  55392  55422
                                                 55540  55696  55840  55969  56185  56318  56433  56497  56589  56810
                                                 56911  57022  57097  57172  57247  57252  57314  57395  57548
 =V(VWRITE)
               4 0000B728 00000001     V   59486 58395  58494
 =X'00000100'
               4 00008318 00000001     X   48371 45792
 =X'00002000'
               4 0000A2C8 00000001     X   54419 53430
 =X'00010000'
               4 0000B7B4 00000001     X   59489 58775  58805
 =X'02'        1 00008410 00000001     X   48402 47075
 =X'0400'      2 0000B7C4 00000001     X   59495 58687
 =X'2120202020'
               5 00006F4E 00000001     X   43276 42437
 =X'30'        1 0000A421 00000001     X   54441 53546
 =X'40'        1 0000A3EC 00000001     X   54436 53270  53275  53429  53541
 =X'4000'      2 0000B7C6 00000001     X   59496 58688
 =X'40000001'
1VDMP     (VDMP21) (09:46) (22MAR04) Ordinary Symbol and Literal Cross Reference                                            Page  418
               4 00007920 00000001     X   45708 44957
 =X'40000010'
               4 00007924 00000001     X   45709 44990  45022
 =X'40000015'
               4 00007928 00000001     X   45710 45059
 =X'4714'      2 00006F32 00000001     X   43274 42748
 =X'8000'      2 0000B7C2 00000001     X   59494 58686
 =XL2'1'       2 0000678E 00000001     X   41536 38605
 =XL2'1'       2 00009986 00000001     X   52122 51359
 =XL3'0'       3 00006828 00000001     X   41550 38593  38595
 =XL3'0'       3 000099C9 00000001     X   52131 51347  51349
 =XL3'4'       3 0000682B 00000001     X   41551 38597
 =XL3'4'       3 000099CC 00000001     X   52132 51351
 =Y((QR+1-(R14)+16*((R14)/(QR+1))/((R14)/(QR+1)))*4)
               2 00002DE8 00000001     Y   27522 25991  27213
 =Y((QR+1-(SR)+16*((SR)/(QR+1))/((SR)/(QR+1)))*4)
               2 000004BC 00000001     Y   16948 16593
 =Y((RAR+1-(SR)+16*((SR)/(RAR+1))/((SR)/(RAR+1)))*4)
               2 000004BA 00000001     Y   16947 16174  16207  16914
 =Y((RAR+1-(SR)+16*((SR)/(RAR+1))/((SR)/(RAR+1)))*4)
               2 00004D20 00000001     Y   34477 34442
 =Y((RAR+1-(SR)+16*((SR)/(RAR+1))/((SR)/(RAR+1)))*4)
               2 000079AA 00000001     Y   45723 45680
 =Y((RAR+1-(SR)+16*((SR)/(RAR+1))/((SR)/(RAR+1)))*4)
               2 00008C50 00000001     Y   49938 49898
 =Y((RAR+1-(SR)+16*((SR)/(RAR+1))/((SR)/(RAR+1)))*4)
               2 0000AFDC 00000001     Y   57640 55366  56679  57551
 =Y((RAR+1-(SR)+16*((SR)/(RAR+1))/((SR)/(RAR+1)))*4)
               2 0000B7CA 00000001     Y   59498 58883
 =Y((R1+1-(R0)+16*((R0)/(R1+1))/((R0)/(R1+1)))*4)
               2 00001E20 00000001     Y   23438 21821
 =Y((R1+1-(R0)+16*((R0)/(R1+1))/((R0)/(R1+1)))*4)
               2 0000AFDE 00000001     Y   57641 55486
 =Y((R1+1-(R14)+16*((R14)/(R1+1))/((R14)/(R1+1)))*4)
               2 00002DCE 00000001     Y   27517 25258
 =Y((R15+1-(R14)+16*((R14)/(R15+1))/((R14)/(R15+1)))*4)
               2 00002E18 00000001     Y   27524 26577  27002
 =Y((R15+1-(R14)+16*((R14)/(R15+1))/((R14)/(R15+1)))*4)
               2 00004852 00000001     Y   33711 33450
 =Y((R3+1-(R2)+16*((R2)/(R3+1))/((R2)/(R3+1)))*4)
               2 0000484E 00000001     Y   33709 32020
 =Y((TR+1-(R14)+16*((R14)/(TR+1))/((R14)/(TR+1)))*4)
               2 0000A32C 00000001     Y   54426 53565  53707  53765  53901  54247  54292
 =Y((TR+1-(SR)+16*((SR)/(TR+1))/((SR)/(TR+1)))*4)
               2 000004BE 00000001     Y   16949 16717
 =Y(L'DRFCOUNT)
               2 0000795A 00000001     Y   45719 45380
 =Y(L'DRFCOUNT)
               2 000083AE 00000001     Y   48395 46667
 =Y(L'DSNENTRY)
               2 00002E1A 00000001     Y   27525 26803  26912
 =Y(4)         2 000004B8 00000001     Y   16946 16118  16350  16806
 =Y(4)         2 00002DD0 00000001     Y   27518 25307
 =Y(4)         2 00004D22 00000001     Y   34478 34469
 =Y(4)         2 0000675A 00000001     Y   41526 38412  39715
 =Y(4)         2 00008C32 00000001     Y   49935 49667
 =Y(4)         2 00009344 00000001     Y   51064 51035
 =Y(4)         2 0000AFDA 00000001     Y   57639 54963  56761
 =3CL4'COM '
1VDMP     (VDMP21) (09:46) (22MAR04) Ordinary Symbol and Literal Cross Reference                                            Page  419
               4 0000A26C 00000001     C   54408 52331
 =3CL4'DWA '
               4 00000480 00000001     C   16934 15790
 =3CL4'SWA '
               4 00005750 00000001     C   38074 35348
 =4CL4'HWA '
               4 0000AE80 00000001     C   57610 54794
 =8X'FF'       1 00006660 00000001     X   41488 41058

1VDMP     (VDMP21) (09:46) (22MAR04) Macro and Copy Code Source Summary                                                     Page  420
- Con Source                                        Volume    Members                        HLASM R4.0  2004/03/22 09.46
0     PRIMARY INPUT                                           A31      CLRNW    CSECT    DBSNAP   DCBQU    DROP     END
                                                              EX       LTORG    POP      PRINT    PUSH     START
                                                              USING    VCNTL    VINIT    VTRACE
   L2 WYL.GG.SYS.MACLIB                             SYSB05    $BC      $BFLKUP  $BV      $CCLKUP  $CRS     $CSS     $L
                                                              $LA      $LBLAD   $LEXP    $LOR     $REL     $RGLKUP
                                                              $USLKUP  ACALL    BASE     BEGIN    CLEAR    COMPROC
                                                              CSECT    DATA     DECR     DEFCC    DEX      DROP     ELSE
                                                              ELSEIF   END      EX       EXIT     FLAG     GEN
                                                              HIBAL    IDENT    IF       INCR     LABEL    LC
                                                              LCALL    LCM      LOOP     LS       LT       LTORG    L2
                                                              L3       L4       PEND     POP      PRINT    PROC     PUSH
                                                              RECORD   REG      REGS     SDL      SDLR     SET
                                                              START    ST2      ST3      SYSLR    SYSQS    UNTIL
                                                              USING    VCALL    WHILE    WITH
   L3 WYL.GG.ORV.BC.MACLIB                          SYSB02    BTD      BTX      DTB      IOB      SCAN     SCANCB
                                                              SCINIT   SCKW     SCRTN    SEGDC    SEGHX    VDMPEXIT
                                                              VDMPHIST VENTER   VEXIT    VPOP     VPUSH    VREST
                                                              VSAVE    VSEG     VWRITE   XCALL
   L4 SYS3.IS.MACLIB                                SYSB05    DVTAREA  D3990RDC XPOP     XPUSH
   L6 SYS1.MACLIB                                   MVSBR9    ABEND    ATTACH   CAMLST   CATALOG  CHECK    CLOSE    CVT
                                                              DCB      DCBD     DETACH   DEVTYPE  DOM      DYNALLOC
                                                              ESTAE    EVENTS   EXCP     EXTRACT  FEOV     FREEMAIN
                                                              FREEPOOL GET      GETMAIN  IDENTIFY IEFJESCT IEFJFCBN
                                                              IEFSJDKY IEFTIOT1 IEFUCBOB IEFZB4D0 IEFZB4D2 IEZCIB
                                                              IEZCOM   IEZDEB   IHARB    IHASDWA  IHAVRA   IHBINNRA
                                                              IHBINNRR IHBINNRX IHBRDWRD IHB01    IKJTCB   IOSDCXR  LOAD
                                                              LOCATE   MODESET  OPEN     POST     PUT      QEDIT
                                                              RDJFCB   READ     RETURN   SCRATCH  SETRP    SPLEVEL
                                                              STIMER   STIMERM  STORAGE  SYNADAF  SYNADRLS SYSSTATE TIME
                                                              TRKCALC  TRUNC    UCBLOOK  UCBSCAN  WAIT     WRITE    WTO
                                                              WTOR
   L7 SYS1.MODGEN                                   MVSBR9    IECDDCE  IECDUCBC IECDUCBD IECDUCBE IECDUCBG IECDUCBT
                                                              IECDUCBU IECSDSL1 IEZBITS  IHACDE   IHADVCT  IHAXTLST
                                                              IKJRB    IOSDUCBC OBTAIN

1         (VDMP21) (09:46) (22MAR04) General Purpose Register Cross Reference                                               Page  421
- Register  References (M=modified, B=branch, U=USING, D=DROP, N=index)                      HLASM R4.0  2004/03/22 09.46
0    0(0)      989U   990D 15721  15748M 15766M 15789M 15805M 15825M 15882M 15948M 16032M 16037M 16060M 16060  16073
             16097M 16149  16281M 16282M 16282  16315M 16401M 16402M 16403M 16404M 16478M 16479M 16480  16496M 16496
             16500M 16541  16545M 16560M 16633M 16634M 16635  16646M 16671M 16709M 16709  16763M 16764M 16765  16819M
             16850M 16867M 16873M 16901M 16902  16904M 16905  16906M 16907  17056  17078  17107M 17118M 17140M 17158M
             17202M 17341M 17350M 17361M 17383M 17409M 17451M 17475M 17503M 17533M 17555M 17583M 17607M 17631M 17675M
             17924M 17931M 17954M 17969M 17969  18033M 18064M 18082M 18088M 18128M 18152M 18220M 18229M 18244M 18244
             18297M 18312M 18478M 18711M 18712M 18713  18775M 18781M 18806M 18849M 18874M 18902M 18923M 18936M 18960M
             18984M 18997M 19052M 19085M 19086  19118M 19123M 19124M 19125  19127M 19146M 19152M 19177M 19192M 19192
             19225M 19268M 19293M 19321M 19342M 19470M 19534M 19556M 19575M 19583M 19727M 19736M 19747M 19769M 19774M
             19803M 19833M 19864M 19878M 20022M 20022  20028M 20036M 20088M 20107M 20122M 20122  20155M 20192M 20238M
             20238  20292M 20356M 20408M 20457M 20511M 20651M 20746M 20754M 20765M 20840M 20876M 20877M 20878  20885M
             20904M 20910M 20935M 20950M 20950  20983M 21001M 21034M 21045M 21067M 21072M 21076M 21077M 21327M 21370M
             21523M 21534M 21556M 21562M 21566M 21567M 21594M 21616M 21646M 21646  21700M 21700  21739M 21758M 21760
             21767M 21791M 21802M 21822M 21828M 21852M 21989M 22009M 22010M 22010  22055M 22081  22082M 22087M 22123M
             22124M 22124  22249M 22275M 22276M 22276  22303M 22304M 22304  22309M 22447M 22466M 22475M 22490M 22490
             22523M 22534M 22556M 22581M 22614M 22639M 22672M 22683M 22714M 22747M 22772M 22805M 22846M 22877M 22910M
             22937M 22970M 22996M 23029M 23055M 23088M 23124M 23125M 23195M 23335M 23350M 23350  23516M 23516  23538M
             23546  23561M 23561  23584M 23979M 23993M 23999M 24022M 24043M 24168M 24208M 24209  24227M 24232M 24338M
             24339  24340M 24341  24344M 24346  24375M 24431M 24438M 24439M 24440  24455M 24534M 24537  24574M 24581M
             24630M 24631  24674M 24735M 24741M 24766M 24811M 24817M 24844M 24869M 24894M 24966M 24972M 25014M 25044M
             25101  25109M 25120M 25142M 25161M 25194M 25214M 25247M 25259M 25297M 25300  25303M 25313M 25344M 25353M
             25474  25673  25682  25736  25746  25749M 25818  25829M 25851M 25929M 25930  25992M 26088  26099  26234
             26314  26493M 26557M 26566M 26680  26805  26914  27047  27083M 27089M 27111M 27126M 27126  27161M 27184M
             27214M 27228M 27243M 27243  27278M 27300M 27306M 27328M 27599M 27640M 27674M 27683M 27708M 27740M 27759M
             27806M 27807  27812M 27812  27813M 27814  27831M 27851M 27852  27854M 27855  27866M 27866  27899M 28057M
             28073M 28103M 28127M 28170M 28214M 28247M 28248M 28264M 28269M 28270M 28286M 28291  28300M 28308M 28344M
             28368M 28379M 28401M 28419M 28452M 28457M 28488M 28510M 28616M 28617  28666M 28677M 28699M 28730M 28731
             28764M 28791M 28802M 28879M 28916M 28950M 28989M 29004M 29022M 29027M 29028M 29029  29030M 29031M 29031
             29106M 29143M 29177M 29216M 29231M 29249M 29261M 29262M 29263  29264M 29265M 29265  29369M 29411M 29432M
             29433M 29434  29460M 29510M 29511M 29512  29549M 29550M 29551  29565M 29566M 29566  29571M 29572M 29572
             29657  29679M 29679  29702  29707M 29718M 29740M 29755M 29755  29788M 29803M 29803  29983  30021M 30143
             30251  30288M 30304M 30318M 30319M 30319  30394  30395  30419M 30424M 30425M 30425  30557M 30558  30664M
             30686M 30705M 30714M 30723M 30732M 30732  30733M 30762  30767  30771M 30789M 30816M 30821M 30841M 30852M
             30889M 30906M 30915M 30952M 30973M 30982M 30997M 30997  31051M 31141M 31333M 31334  31336M 31337  31340M
             31341  31343M 31344  31369M 31435M 31436  31464M 31484M 31494M 31516M 31531M 31531  31564M 31579M 31579
             31613M 31637  31638  31644M 31650M 31673M 31683M 31705M 31723M 31756M 31775M 31808M 31825M 31825  31858M
             31878M 31898M 31907M 32003  32009M 32023M 32045M 32060M 32060  32093M 32108M 32108  32141M 32234  32243
             32438  32447  33042  33159  33339  33374  33412M 33412  33471M 33477M 33499M 33514  33519M 33524M 33546M
             33571M 33590M 33599M 33605M 33629M 33836M 33856M 33866M 34022M 34022  34056M 34234  34245M 34264M 34270M
             34299M 34435M 35217  35239M 35294M 35300M 35350M 35351  35426M 35427  35467M 35468  35470M 35471  35472M
             35473  35474M 35475  35476M 35477  35478M 35479  35480M 35481  35486M 35487  35499M 35500  35501M 35502
             35549M 35550M 35551  35561M 35562  35578M 35599M 35649M 35655M 35658M 35661M 35791M 35792M 35793  35794M
             35795  35796M 35797  35820M 35839M 35862M 35881M 35890M 35911M 35922M 35944M 35963M 36007M 36007  36023M
             36024M 36025  36065M 36076M 36098M 36113M 36113  36146M 36171M 36204M 36229M 36262M 36536M 36642M 36643
             36689M 36713M 36737M 36750M 36810M 36833M 36949M 36950  37003M 37017M 37055M 37064M 37079M 37079  37112M
             37204M 37205  37287M 37306M 37321M 37321  37354M 37375M 37381M 37397M 37418M 37419M 37441M 37452M 37478M
             37497M 37535M 37611M 37630M 37644M 37667M 37688M 37744M 37745  37762M 37771M 37771  37787M 37798M 37808M
             37823M 37823  37856M 37877M 37901M 37916M 37916  37949M 37978M 37999M 38376M 38377M 38378  38379M 38380
             38391M 38628M 38631  38641M 38641  38703M 38714M 38736M 38751M 38751  38784M 38809M 38842M 38867M 38900M
             39056M 39057M 39057  39078M 39093M 39093  39126M 39330M 39345M 39345  39378M 39519M 39533M 39533  39566M
             39580M 39580  39649M 39671M 39677M 39951M 39956M 39986M 40095M 40179  40316M 40325M 40343M 40378M 40400M
             40418M 40460M 40493M 40502M 40526M 40564M 40565M 40566  40642M 40643  40692M 40710M 40723  40737M 40738M
             40738  40754M 40755  40771M 40772  40783M 40787M 40788M 40789  40797M 40798M 40799  40918M 40975M 41037M
             41038M 41039  41048M 41048  41256M 41256  41257M 41271  41378M 41399M 41399  41429M 41449M 41450M 41451
             41718M 41742M 41779M 41797M 41816M 41825M 41850M 41888M 41926M 41964M 42002M 42143M 42148M 42152M 42153M
1         (VDMP21) (09:46) (22MAR04) General Purpose Register Cross Reference                                               Page  422
             42175M 42186M 42232M 42257M 42359M 42381M 42388  42389M 42403M 42403  42412M 42427M 42431  42466M 42467
             42473M 42474  42475M 42476  42587M 42696M 42697M 42698  42767M 42768M 42769  42843M 42844M 42845M 42846M
             42849M 42850M 42852M 42859M 42878M 42889M 42911M 42932M 43080M 43085M 43086  43088M 43089  43105M 43133M
             43161M 43161  43194M 43215M 43353M 43353  43404M 43406M 43406  43487M 43488  43598M 43598  43599M 43620
             43644M 43645  43647  43675M 43689M 43689  43722M 43736M 43736  43769M 43783M 43783  43816M 43830M 43830
             43891M 43892  43947M 43948M 44257M 44257  44258M 44259  44293M 44312M 44336M 44360M 44382M 44383M 44383
             44416M 44421M 44441M 44467M 44483M 44505M 44510M 44533M 44554M 44593M 44632M 44656M 44679M 44701M 44715M
             44715  44748M 44762M 44762  44874M 44880M 44954M 44955  44987M 44988  45019M 45020  45051M 45052  45056M
             45057  45127M 45156M 45157M 45157  45178M 45179M 45180  45226M 45252  45257M 45279M 45280  45283M 45412M
             45420M 45421  45422M 45441M 45466M 45475M 45486M 45508M 45589M 45598M 45609M 45631M 45676M 45791M 45792M
             45879M 45913M 45926M 45926  45927M 45929  45978M 45981M 45983M 45984M 45985M 45989M 45989  45990M 45991
             45992M 46001  46015M 46022M 46023M 46024  46030M 46031M 46088M 46130M 46171M 46243M 46244M 46245  46249M
             46250M 46251  46252M 46253M 46254  46256M 46257M 46258  46370M 46371M 46372  46634M 46634  46635M 46641M
             46666M 46667M 46681M 46681  46705M 46754M 46778M 46811M 46828M 46862M 47034M 47035M 47035  47066M 47077M
             47116M 47117M 47118  47125M 47144M 47164M 47174M 47209M 47222M 47239M 47267M 47276M 47293M 47321M 47330M
             47347M 47376M 47389M 47414M 47442M 47451M 47468M 47496M 47510M 47534M 47534  47606M 47628M 47647M 47656M
             47665M 47674M 47674  47675M 47698M 47720  47721M 47743M 47761M 47780M 47791M 47829M 47850M 47859M 47874M
             47874  47928M 47986  48009  48065M 48073M 48082M 48100M 48178M 48280M 48293M 48470M 48501M 48584M 48593M
             48626M 48655M 48690M 48715M 48764M 48773M 48806M 48829M 48838M 48874M 48901M 48933M 48939M 48970M 49003M
             49048M 49077M 49099M 49133M 49150M 49173M 49258M 49259  49346M 49347M 49348  49360M 49361  49399M 49399
             49408M 49408  49409M 49448M 49465M 49487M 49489  49558M 49576M 49588M 49597M 49638M 49659M 49660  49709M
             49724M 49725M 49726  49743M 49766M 49781M 49782M 49783  49813M 49828M 49829M 49830  49840M 49846M 49868M
             49874M 50050M 50053  50078M 50117M 50165M 50166  50305M 50441M 50443  50462M 50469M 50482M 50483  50504M
             50505  50520M 50531M 50559M 50559  50592M 50603M 50624M 50625M 50645M 50719M 50720  50771M 50874M 50903M
             50941M 50963M 50988M 50995M 51009M 51016M 51017  51024M 51025  51276M 51279  51392M 51403M 51425M 51440M
             51440  51473M 51498M 51531M 51556M 51589M 51651M 51657M 51679M 51727M 51738M 51739  51762M 51762  51763M
             51797M 51810M 51811  51836M 51840M 51841M 51842  51876M 51880M 51881  51900M 51901  51907M 51975M 51982M
             52006M 52032M 52033  52231  52263M 52283M 52291M 52297M 52340M 52410M 52431M 52437M 52454M 52492M 52508M
             52509M 52509  52530M 52545M 52545  52575M 52593M 52601M 52602  52613M 52617M 52627M 52633M 52651M 52651
             52675M 52732M 52733M 52734  52742M 52809M 52820M 52861M 52885M 52918M 52923M 52946M 52962M 53023M 53039M
             53071  53075M 53101M 53102M 53114M 53130M 53152M 53160M 53160  53165M 53175M 53206  53212M 53227M 53227
             53260M 53277M 53295M 53317M 53339M 53378M 53392M 53398M 53404M 53432M 53450M 53472M 53482M 53506M 53513M
             53548M 53566M 53583  53600M 53611M 53642M 53648M 53655M 53681M 53708M 53725  53738M 53749M 53766M 53783
             53800M 53811M 53842M 53848M 53855M 53881M 53902M 53919  53952M 53963M 54013M 54028M 54028  54061M 54104M
             54129M 54157M 54172M 54172  54211M 54248M 54259  54265M 54276M 54293M 54309  54335M 54341M 54368M 54368
             54372M 54629M 54648M 54672M 54709M 54733M 54747M 54778M 54784M 54894M 54941M 54981M 55016M 55054M 55063M
             55086M 55106M 55113M 55128M 55128  55178M 55200M 55241M 55263M 55295M 55314M 55328M 55384M 55414M 55431M
             55450M 55456M 55467M 55467  55474  55480M 55487M 55511M 55516M 55557M 55577M 55599M 55624M 55653M 55666M
             55672M 55699M 55714M 55736M 55751M 55751  55784M 55799M 55799  55832M 55843M 55865M 55880M 55880  55913M
             55928M 55928  55961M 55990M 56019M 56074M 56074  56094M 56119  56131M 56138M 56153M 56153  56204M 56230M
             56249M 56271M 56286M 56286  56349M 56379M 56386M 56401M 56401  56448M 56470M 56489M 56523M 56549M 56568M
             56620M 56640M 56716M 56725M 56746M 56755M 56793M 56802M 56894M 56903M 56938M 56938  56939M 56971M 56971
             56979M 57002M 57008M 57014M 57025M 57056M 57089M 57100M 57131M 57164M 57175M 57206M 57239M 57258M 57273M
             57273  57306M 57317M 57339M 57354M 57354  57387M 57436M 57496M 57529M 57530  57540M 57934  57952  58030M
             58048  58130M 58131  58184M 58201M 58226  58244  58281M 58300M 58309M 58324M 58324  58347M 58362M 58362
             58431M 58432  58452M 58457M 58473M 58500M 58544M 58693M 58693  58694M 58703M 58703  58843M 58960  58987M
             59006M 59012M 59032M 59162  59239  59341  59342M 59343M 59344M
     1(1)      985U 15721  15732  15750M 15750  15766M 15773  15783  15788M 15788  15789M 15825M 15832  15881M 15947M
             15978U 16003U 16018  16021  16027  16029M 16029  16030M 16032M 16033M 16033  16036M 16036  16037  16038M
             16072  16167  16172  16329M 16398M 16403M 16404M 16405  16477M 16480M 16497M 16499  16500M 16543  16545M
             16562M 16613M 16614M 16615M 16616  16632M 16635M 16646M 16653  16671M 16700M 16700  16710M 16729M 16730M
             16731M 16731N 16732M 16740U 16744M 16745M 16745  16762M 16765M 16776U 16789M 16793M 16797M 16801M 16818
             16830M 16830  16849M 16866  16867  16868M 16873M 16874M 16909M 17078  17089  17106M 17125M 17139M 17165M
             17199M 17200  17202M 17270M 17340M 17349M 17368M 17382M 17408M 17450M 17474M 17502M 17540M 17554M 17582M
             17606M 17630M 17674M 17932M 17932  17953M 17976M 18009  18044M 18044  18063M 18080  18081  18082  18083M
             18088M 18129M 18153M 18219M 18228M 18251M 18293  18299M 18311M 18477M 18705M 18774M 18781M 18805M 18848M
             18873M 18901M 18916M 18935M 18959M 18983M 18996M 19049M 19053M 19092M 19107  19113M 19131M 19131  19145M
             19152M 19176M 19199M 19224M 19267M 19292M 19320M 19335M 19469M 19541M 19552M 19555M 19574M 19582M 19608M
             19668M 19671  19726M 19735M 19754M 19768M 19778M 19778  19802M 19832M 19863M 20023M 20030M 20035M 20049M
1         (VDMP21) (09:46) (22MAR04) General Purpose Register Cross Reference                                               Page  423
             20092M 20092  20106M 20129M 20154M 20196M 20196  20237M 20293M 20297M 20297  20355M 20360M 20360  20409M
             20413M 20413  20458M 20462M 20462  20512M 20516M 20516  20563M 20564N 20565N 20566N 20568M 20598M 20599N
             20600N 20601N 20638M 20639M 20639  20654M 20654  20701M 20711U 20725U 20735M 20753M 20761M 20761  20765M
             20836M 20849  20873M 20882M 20889M 20889  20903M 20910M 20934M 20957M 20982M 21008M 21033M 21052M 21066M
             21072M 21074M 21118M 21119M 21300M 21328M 21365M 21385M 21385  21522M 21541M 21555M 21562M 21564M 21601M
             21615M 21653M 21707M 21746M 21758M 21760  21766M 21790M 21809M 21822M 21827M 21851M 21942  21956M 21959
             22003U 22021U 22038M 22050U 22056M 22065U 22076U 22098U 22113U 22118M 22135U 22221  22235M 22238  22248M
             22254  22288M 22291  22443  22451M 22451  22465M 22474M 22497M 22522M 22541M 22555M 22588M 22613M 22646M
             22671M 22690M 22721M 22746M 22779M 22804M 22853M 22884M 22909M 22944M 22969M 23003M 23028M 23062M 23087M
             23144M 23190M 23334M 23357M 23536M 23545  23793M 23968  23981M 23981  23983  23993  23994M 23999M 24004M
             24006M 24006  24016M 24017  24017  24018  24019  24020  24021  24027  24037M 24039M 24039  24042M 24046M
             24046  24055M 24162  24166M 24168  24170  24187M 24188  24190M 24191  24192M 24193  24195M 24203U 24215U
             24220M 24226M 24230M 24230  24307M 24349M 24350  24351N 24352N 24353N 24374M 24430M 24433  24448M 24474M
             24521  24523  24533M 24537M 24575M 24581M 24628M 24629N 24631N 24632N 24634M 24673M 24734M 24742M 24765M
             24810M 24816M 24843M 24868M 24893M 24965M 24971M 25013M 25043M 25101  25103  25108M 25127M 25141M 25168M
             25193M 25221M 25246M 25259M 25278  25296M 25300M 25302M 25324M 25324  25343M 25352M 25386U 25429U 25746
             25748M 25780M 25780  25818  25831M 25831  25850M 25867  25946M 25947  25948  25992M 26247M 26265M 26327M
             26345M 26492M 26493M 26494  26556M 26565M 27047  27082M 27088M 27110M 27133M 27168M 27183M 27214M 27227M
             27250M 27285M 27299M 27305M 27327M 27598M 27647M 27667M 27682M 27688M 27707M 27739  27741M 27752M 27784D
             27786M 27786  27787M 27788U 27789  27790M 27790N 27791  27838M 27873M 27898M 28020M 28023  28040M 28041M
             28041  28056M 28078  28125M 28126M 28126  28132  28213M 28245M 28246M 28247M 28248M 28252M 28270M 28279M
             28279  28299M 28307M 28343M 28367M 28386M 28400M 28426M 28451M 28461M 28461  28495M 28509M 28584M 28600M
             28601  28611U 28623U 28626M 28627  28628M 28629  28630M 28631  28632M 28633  28644M 28665M 28684M 28698M
             28722M 28726M 28727  28728  28729N 28731N 28732N 28734M 28742U 28763M 28787U 28792M 28797  28801M 28862M
             28873M 28873  28888  28891M 28892M 28892  28915M 28938U 28970U 28972M 28983M 28983  29001U 29009M 29015U
             29089M 29100M 29100  29115  29118M 29119M 29119  29142M 29165U 29197U 29199M 29210M 29210  29228U 29236M
             29242U 29355M 29358  29368M 29374  29414M 29415M 29415  29431M 29434M 29444  29701  29706M 29725M 29739M
             29762M 29787M 29810M 29843  29846M 29847  29848  29849  29851  29853  29855  29857  29863M 29864  29868M
             29869  29887M 29888  29889  29891  29893  29895  29897  29903M 29904  30020M 30039M 30040  30041  30043
             30045  30047  30049  30055M 30056  30252M 30255  30269M 30278M 30278  30287M 30309  30324M 30395M 30398
             30399M 30402  30589M 30608M 30662M 30690M 30690  30704M 30713M 30722M 30743M 30760M 30762  30765M 30778M
             30790M 30815M 30822M 30856M 30856  30888M 30901M 30914M 30942M 30943N 30944  30945  30946  30947  30948
             30949  30950  30951  30951  30972M 30981M 31004M 31050M 31075M 31091M 31107M 31123M 31140M 31266M 31267M
             31267  31268M 31269M 31269N 31270M 31270N 31271M 31271N 31272M 31272N 31273  31364M 31388M 31434M 31436
             31437  31459  31463M 31479M 31501M 31515M 31538M 31563M 31586M 31612M 31639  31643M 31649M 31672M 31690M
             31704M 31730M 31755M 31782M 31807M 31832M 31857M 31877M 31897M 31906M 31963M 31973U 32008M 32030M 32044M
             32067M 32092M 32115M 32140M 32167U 32881M 33470M 33476M 33498M 33514  33518M 33524M 33545M 33570M 33589M
             33598M 33609M 33609  33628M 33834M 33836  33838  33852M 33854  33865M 33869M 33869  34055M 34247M 34247
             34249  34264  34265M 34270M 34291M 34292  34292  34293  34295  34296  34297  34298  34304  34434M 34438M
             34438  34459M 34462M 34462  34463M 34463  34464M 34464  34465  35217  35228  35241M 35241  35293  35294
             35295M 35300M 35362M 35362  35384  35386  35411M 35421U 35437U 35507M 35508  35509M 35525M 35548M 35551M
             35577M 35592M 35648M 35654M 35655M 35658M 35659  35660M 35800M 35819M 35834M 35861M 35876M 35889M 35904M
             35929M 35943M 35958M 36014M 36026M 36042M 36064M 36083M 36097M 36120M 36145M 36178M 36203M 36236M 36261M
             36538M 36640M 36641N 36643N 36644N 36688M 36712M 36736M 36749M 36812M 36818M 36827M 36827  36836M 36836
             36913M 36914N 36915N 36916N 36947M 36948N 36950N 36951N 36953M 36977M 37002M 37016M 37029M 37030  37034M
             37054M 37063M 37086M 37111M 37145M 37153U 37202M 37203N 37205N 37206N 37208M 37216U 37257M 37291M 37291
             37305M 37328M 37353M 37368M 37385M 37385  37404M 37416M 37417M 37419  37440M 37456M 37456  37477M 37504M
             37542M 37615M 37615  37629M 37645M 37660M 37692M 37692  37729M 37738M 37738  37762M 37779M 37779  37786M
             37791M 37791  37798M 37807M 37830M 37855M 37870M 37900M 37923M 37948M 37977M 37992M 38297M 38298  38299M
             38300  38301M 38302  38303M 38304  38305M 38306  38307M 38308  38309M 38310  38311M 38312  38313M 38314
             38315M 38316  38341  38351M 38354  38363U 38374U 38383M 38384  38385  38390M 38467M 38468  38500M 38501
             38502M 38503  38504M 38505  38506M 38507  38508M 38509  38510M 38511  38512M 38513  38514M 38515  38516M
             38517  38518M 38519  38520M 38521  38522M 38523  38524M 38525  38526M 38527  38528M 38529  38530M 38531
             38571M 38572  38573M 38574  38575M 38576  38627M 38631M 38663M 38680M 38702M 38721M 38735M 38758M 38783M
             38816M 38841M 38874M 38899M 38948M 38963M 38964  39055M 39077M 39100M 39125M 39309M 39329M 39352M 39377M
             39447M 39457U 39498U 39511M 39512  39513  39518M 39540M 39565M 39587M 39656M 39670M 39678M 39902  39945D
             39947M 39947  39948M 39949U 39950M 39950  39956M 39966  39972  40010  40090D 40092M 40092  40093M 40095
             40115M 40115  40131M 40144M 40149  40162M 40171M 40171  40172M 40172  40177N 40178N 40315M 40324M 40350M
             40385M 40399M 40425M 40467M 40492M 40501M 40533M 40612M 40613M 40614  40615M 40677M 40752M 40753N 40755N
1         (VDMP21) (09:46) (22MAR04) General Purpose Register Cross Reference                                               Page  424
             40756N 40758M 40767M 40768  40769  40770N 40772N 40773N 40775M 40782M 40782  40785  40843M 40917M 40920
             40974M 40977  41371M 41377M 41406M 41433M 41433  41448M 41451M 41717M 41741M 41772M 41796M 41811M 41824M
             41849M 41887M 41925M 41963M 42001M 42039M 42041  42045M 42142M 42148M 42150M 42168M 42193M 42233M 42256M
             42361M 42361  42363  42388M 42412  42413M 42428M 42431M 42586M 42601M 42703M 42793M 42803M 42844M 42845M
             42846M 42847  42848  42849M 42850M 42851  42852M 42853  42854  42858M 42873M 42896M 42910M 42925M 42942M
             43041M 43079  43080  43081M 43104M 43140M 43168M 43193M 43208M 43360M 43371M 43372  43375M 43383U 43399U
             43403M 43405M 43405  43485M 43486N 43488N 43489N 43539M 43540  43541M 43542  43543M 43544  43547M 43603D
             43605M 43605  43606M 43607U 43620M 43621M 43646M 43647M 43674M 43696M 43721M 43743M 43768M 43790M 43815M
             43837M 43888M 43889  43890N 43892N 43893N 43956M 43961  43962  43977M 43978  43979M 43980  43993D 43995M
             43995  43996M 43997U 44027  44060M 44062M 44062  44172M 44174M 44174  44297M 44297  44311M 44335M 44359M
             44390M 44415M 44457M 44471M 44471  44490M 44504M 44511M 44532M 44547M 44592M 44631M 44655M 44686M 44700M
             44722M 44747M 44769M 44853  44875M 44880M 45125M 45126M 45127M 45128  45169M 45172M 45172  45183M 45185
             45227M 45246M 45246  45258M 45282M 45283M 45284M 45285  45385M 45414M 45414  45416  45423M 45436M 45443M
             45465M 45474M 45493M 45507M 45588M 45597M 45616M 45630M 45677M 45745  45793M 45886M 45912M 45928M 45929M
             45930  45933  45935M 45951M 45977M 45978M 45981M 45982  45984M 45985M 45990M 45991  45992M 45997  46015M
             46019M 46024  46028M 46058M 46095M 46137M 46178M 46291M 46369M 46372M 46496M 46497M 46509  46548D 46550M
             46550  46551M 46552U 46554M 46555  46578M 46579M 46580  46624D 46626M 46626  46627M 46628U 46629  46636M
             46641M 46645D 46647M 46647  46648M 46649U 46651M 46653  46658M 46700M 46707M 46753M 46785M 46810M 46835M
             46861M 46897M 46898M 46899  47012M 47015M 47059M 47074M 47074  47075M 47081M 47081  47115M 47118M 47129M
             47129  47143M 47159M 47181M 47202M 47221M 47246M 47260M 47275M 47300M 47314M 47329M 47354M 47369M 47388M
             47421M 47435M 47450M 47475M 47489M 47509M 47541M 47604M 47632M 47632  47646M 47655M 47664M 47676M 47705M
             47718M 47720  47722M 47750M 47762M 47795M 47795  47819M 47820N 47821  47822  47823  47824  47825  47826
             47827  47828  47828  47849M 47858M 47881M 47927M 48009  48035  48039M 48049U 48061U 48066M 48068  48072M
             48081M 48107M 48163M 48172M 48172  48181M 48181  48231M 48241U 48274U 48277M 48281M 48281  48290M 48291
             48293M 48469M 48481M 48500M 48529M 48532  48567M 48568M 48568  48583M 48592M 48640U 48652U 48673M 48674M
             48674  48689M 48720  48747M 48748M 48748  48763M 48772M 48811  48812M 48813  48828M 48837M 48873M 48884M
             48900M 48932M 48938M 48986M 48987M 48987  49002M 49042M 49042  49057  49079M 49079  49098M 49122U 49136
             49142U 49144M 49172M 49188M 49189  49221U 49226M 49266U 49268M 49269  49289M 49290  49299M 49300  49302M
             49303  49305M 49306  49308M 49309  49311M 49312  49323M 49345M 49348M 49357M 49358  49359N 49361N 49362N
             49373U 49378M 49416U 49428M 49428  49447M 49464  49465  49468M 49470  49472M 49482U 49496U 49520M 49523
             49534M 49552M 49552  49563  49573M 49582M 49596M 49637M 49657M 49658N 49660N 49661N 49663M 49684  49689M
             49708M 49723M 49726M 49734M 49735  49738M 49743  49746M 49765M 49780M 49783M 49793M 49812M 49827M 49830M
             49839M 49845M 49867M 49873M 49985M 49986  50006M 50007  50017M 50018  50020M 50021  50023M 50024  50026M
             50027  50029M 50030  50048M 50049  50053M 50057M 50077M 50095M 50116M 50150U 50155M 50189M 50234U 50250M
             50304M 50322M 50327  50340M 50340  50341M 50342M 50350U 50358U 50426M 50436U 50450U 50461M 50464  50468M
             50471  50480M 50481N 50483N 50484N 50486M 50502M 50503N 50505N 50506N 50508M 50519M 50538M 50566M 50591M
             50610M 50622M 50623M 50625  50644M 50709M 50745M 50746  50747N 50748N 50749N 50770M 50813M 50847M 50848
             50849  50850N 50851N 50852N 50873M 50902M 50943M 50943  50962M 50978  50987M 50990  50994M 50997  51010M
             51014M 51015N 51017N 51018N 51022M 51023N 51025N 51026N 51028M 51031M 51153M 51154  51188M 51189  51190M
             51191  51192M 51193  51194M 51195  51196M 51197  51198M 51199  51200M 51201  51202M 51203  51204M 51205
             51206M 51207  51208M 51209  51210M 51211  51212M 51213  51214M 51215  51216M 51217  51218M 51219  51259M
             51260  51261M 51262  51263M 51264  51275M 51279M 51369M 51391M 51410M 51424M 51447M 51472M 51505M 51530M
             51563M 51588M 51650M 51656M 51678M 51689M 51729M 51729  51731  51735M 51736  51737N 51739N 51740N 51752U
             51757M 51764M 51806M 51807  51808  51809N 51811N 51812N 51824U 51835M 51838  51875M 51878  51886M 51887M
             51888  51898M 51899N 51901N 51902N 51904M 51908M 51911M 51911  51974M 51977  51981M 51984  52005M 52008
             52030M 52031N 52033N 52034N 52036M 52231  52252  52265M 52265  52283M 52290  52291  52292M 52297M 52341M
             52341  52344  52348M 52350N 52352N 52353  52354  52409M 52430M 52441M 52441  52453M 52486M 52488M 52488
             52491M 52497M 52499M 52499  52506M 52507M 52507  52529M 52552M 52579M 52579  52594M 52626M 52637M 52637
             52652M 52671M 52686M 52686  52808M 52817M 52817  52818M 52860M 52892M 52917M 52924M 52943M 52943  52944M
             52963M 53012M 53022M 53070M 53089M 53090  53090  53091  53092  53094  53096  53098  53100  53118M 53118
             53134M 53134  53148M 53149  53149  53150  53151  53152  53153M 53159M 53164M 53168M 53168  53175M 53206
             53211M 53234M 53259M 53268M 53268  53269M 53270M 53302M 53316M 53337M 53377M 53391M 53398M 53403M 53427M
             53427  53428M 53429M 53457M 53471M 53481M 53505M 53512M 53539M 53539  53540M 53541M 53566M 53583  53599M
             53608M 53608  53609M 53641M 53642M 53643  53647M 53654M 53678M 53678  53679M 53708M 53725  53737M 53746M
             53746  53747M 53766M 53783  53799M 53808M 53808  53809M 53815M 53815  53841M 53842M 53843  53847M 53854M
             53878M 53878  53879M 53902M 53919  53951M 53960M 53960  53961M 54012M 54035M 54060M 54103M 54128M 54156M
             54179M 54208M 54208  54209M 54248M 54259  54264M 54273M 54273  54274M 54280M 54280  54293M 54309  54335M
             54341M 54369M 54372M 54633M 54633  54647M 54671M 54708M 54732M 54758M 54758  54777  54778  54779M 54784M
             54878M 54897M 54897  54921M 54940M 54980M 54994M 54997  55015M 55053M 55062M 55085M 55091  55112M 55135M
1         (VDMP21) (09:46) (22MAR04) General Purpose Register Cross Reference                                               Page  425
             55185M 55199M 55242M 55247  55270M 55290M 55383M 55397M 55400  55413M 55435M 55435  55449M 55455M 55474
             55479M 55487M 55510M 55516M 55544M 55545M 55545  55562  55584M 55598M 55623M 55652M 55665M 55671M 55672M
             55721M 55735M 55758M 55783M 55806M 55831M 55850M 55864M 55887M 55912M 55935M 55960M 55977M 55978M 55978
             55995  56006M 56007M 56007  56024  56078M 56078  56114M 56119  56137M 56160M 56205M 56214  56237M 56248M
             56270M 56293M 56354M 56359  56385M 56408M 56455M 56469M 56484M 56524M 56533  56556M 56567M 56625M 56630
             56644M 56644  56694M 56694  56709M 56724M 56739M 56754M 56773M 56792M 56801M 56818M 56830  56867M 56868
             56869  56870N 56871N 56872N 56893M 56902M 56960M 56960  56977M 56992  56995D 56997M 56997  56998M 56999U
             57000M 57001M 57001  57007  57008M 57009  57013M 57032M 57063M 57088M 57107M 57138M 57163M 57182M 57213M
             57238M 57257M 57280M 57305M 57324M 57338M 57361M 57386M 57435M 57438  57495M 57498  57527M 57528N 57530N
             57531N 57533M 57539M 57934  58030M 58048  58126M 58127  58128  58129N 58131N 58132N 58183M 58186  58201M
             58226  58264  58268  58272  58280M 58295M 58308M 58317M 58319M 58319  58325M 58330M 58332M 58332  58346M
             58355M 58357M 58357  58363M 58368M 58370M 58370  58401M 58409U 58429M 58430N 58432N 58433N 58437M 58438
             58441  58447  58449M 58449  58450M 58452M 58453M 58453  58456M 58456  58457  58458M 58470U 58472M 58476M
             58476  58484  58500  58501M 58544M 58588  58851M 58868  58924U 58941U 58960  58989M 58989  59005  59006
             59007M 59012M 59032M 59172M 59172  59178  59203U 59222U 59233M 59234  59235  59239M 59362U 59375U
     2(2)      981U 15721  15766M 15783M 15789M 15825M 16070  16072M 16073M 16074M 16096M 16119M 16147  16149M 16150
             16175M 16181  16208M 16273M 16273  16294  16295  16299M 16299  16317  16329  16335M 16335  16402  16450
             16498M 16500  16512M 16519  16521M 16541M 16545  16594M 16611  16645M 16645  16671  16718M 16818M 16887
             16915M 17078  17202M 17900M 17949M 17965  18103  18106M 18215M 18240  18429U 18502M 18502  18568M 18599M
             18623M 18624M 18624  18665M 18666M 18666  18694M 18694  18700M 18705  18731M 18731  19083  19092  19415U
             19481M 19489U 19501M 19501  19623M 19638U 19671M 19688  19704  19718U 19889U 20218M 20227M 20227  20237
             20252M 20261M 20261  20277M 20277  20290U 20293  20294M 20314M 20315M 20315  20334U 20337U 20349M 20349
             20355  20357M 20376U 20382M 20393M 20393  20406U 20409  20410M 20420U 20431M 20442M 20442  20455U 20458
             20459M 20469U 20480M 20490U 20505M 20505  20512  20513M 20529U 20535M 20543U 20565  20568  20579M 20600
             20612U 20618M 20660M 20752M 20764  20765M 20804  21267M 21332M 21366  21415M 21468  21762M 21823M 21887M
             21914  21959M 22168M 22193  22238M 22291M 22354M 22405  22443M 22444  22707  22810M 22837M 22838M 22838
             22870  23214M 23260M 23285  23330M 23346  23384  23410M 23476  23545M 23546M 23548M 23582M 23611M 23640
             23668M 23678M 23686M 23696M 23709M 23765M 23793  23833M 23940  23968M 24019  24041M 24055  24078M 24134
             24162M 24224M 24233  24255M 24276  24297M 24307  24352  24396U 25075M 25103M 25682M 25685M 25687  25746
             25867M 25877U 25927  25928  25947  25949  25960U 25992M 26099M 26102M 26104  26234M 26248M 26266M 26271
             26274M 26276  26314M 26328M 26346M 26351  26354M 26356  26680M 26683M 26685  26733  26805M 26808M 26810
             26914M 26917M 26919  27047  27064M 27074U 27206U 27214M 27565  27609M 27620M 27620  27913M 27938M 27964
             28023M 28250M 28251M 28269  28534M 28559  28797M 29305M 29330  29358M 29598M 29632  29657M 29658M 29659M
             29660M 29660N 29661M 29933M 29958  29983M 29984M 29985M 29986M 29986N 29987M 30093M 30118  30143M 30144M
             30145M 30146M 30146N 30147M 30194M 30226  30251M 30304  30309M 30324  30344M 30369  30398M 30449M 30533
             30728M 30868M 30870M 30901  30936M 30943  30968M 30993  31189M 31222M 31355M 31356M 31358M 31364  31458M
             31575  31638M 31874M 31877  32021M 32056  32184M 32243M 32246M 32248  32447M 32450M 32452  33081M 33082M
             33101M 33102  33216M 33218M 33219  33220M 33222M 33223  33269M 33270  33810  33875M 33962  33986M 33993M
             34010M 34076M 34113M 34232  34234M 34271  34272M 34340  34443M 35217  35228M 35266U 35286U 35347  35405U
             35443U 35656M 35657M 35658  35715M 35742U 35834  36282M 36289U 36649M 36650M 36651  36885M 36893U 36915
             36923U 36956M 36964U 36975U 37050M 37075  37237M 37245U 37255U 37489M 37590M 37636M 37640M 37641M 37642M
             37643M 37705M 37706M 37706  37788M 37793  37798M 37803M 37819  38146  38263M 38275M 38276  38434M 38435
             38617M 38698M 38747  38915M 38951M 38952  38954M 38955  38957M 38958  38960M 38961  38966M 39018M 39073M
             39089  39145M 39325M 39341  39465M 39466  39467M 39468  39614M 39882  39902M 39998M 40010  40184M 40185
             40229M 40579M 40580M 40794M 40795M 40796  41006  41012M 41013M 41014  41152D 41154M 41154  41155M 41156U
             41157M 41158  41207M 41215U 41217M 41225U 41228U 41230M 41238U 41241U 41315U 41371M 41599  41670M 41680M
             42091M 42119  42204M 42208M 42209M 42210M 42223M 42228M 42270M 42329  42471M 42472  42486M 42491  42632M
             42632  42665  42670M 42950M 42983  43003M 43028M 43028  43095M 43115M 43126M 43126  43225M 43237U 43246M
             43291  43368M 43369  43392M 43393  43518M 43537M 43580M 43937M 44040M 44041M 44042M 44042N 44182U 44246M
             44246  44259M 44289  44290M 44291  44375  44422M 44442M 44796M 44797  44799  44804M 44805  44814M 44853
             44880M 44883M 44887M 44888  44889M 44890  44958M 44991M 45023M 45060M 45080M 45085  45089M 45090M 45109M
             45125  45128M 45148  45228M 45256M 45367M 45369  45371M 45373  45374M 45377  45379M 45380M 45381  45385M
             45400  45424M 45681M 45745  45775M 45775  45789M 45794M 45934M 45950M 45979M 45980M 45981  45982M 45985
             45994M 46000M 46001M 46002  46016M 46023  46205M 46206M 46207  46223M 46224M 46225  46291M 46311  46410D
             46412M 46412  46413M 46415M 46442  46461  46613M 46614  46641M 46949M 46965M 46970  46974M 46986  47396D
             47398M 47398  47399M 47401M 47571M 47581  47670M 47813M 47820  47845M 47870  47946M 48009  48293M 48532M
             48542U 48712U 48720M 48728U 49160U 49272M 49282U 49297U 49523M 49531U 49612U 49682  49684M 49685  49733
             49845  49899M 49964  49989M 50327M 50367M 50378M 50378  50397M 50452M 50662M 50674  50694M 50709  50748
             50792U 50794M 50813  50851  50896U 50917M 50978M 50988  50995  51010  51088  51108M 51109  51387M 51436
1         (VDMP21) (09:46) (22MAR04) General Purpose Register Cross Reference                                               Page  426
             51608M 51617  51916M 51924U 51936  51956M 52017M 52231  52252M 52283M 52356M 52364U 52471  52525M 52541
             52608U 52692M 52693M 52704  52723  52761  52767M 52775U 53030U 53175M 53206  53399M 53566M 53583  53708M
             53725  53766M 53783  53902M 53919  53928U 53933M 53942M 53942  54003M 54003  54226M 54244U 54248M 54259
             54293M 54309  54336M 54342M 54372M 54975  54997M 55026M 55044M 55044  55085  55091M 55333M 55355M 55355
             55367M 55378  55400M 56034U 56187M 56198M 56198  56205  56214M 56224U 56320M 56327U 56505M 56506M 56506
             56517M 56517  56524  56533M 56543U 56591M 56598U 56680M 56771  56862M 56925M 56940M 56978M 56990U 57455M
             57471  57481  57500M 57515  57552M 57934  57964M 57965M 57977M 57990  57997M 57998M 57999  58030M 58048
             58082M 58090U 58201M 58208U 58226  58244M 58247N 58544M 58565  58567M 58568M 58570  58582M 58632M 58654
             58669M 58669  58670  58671N 58722D 58724M 58724  58725M 58735M 58735  58756D 58758M 58758  58759M 58769M
             58769  58786D 58788M 58788  58789M 58799M 58799  58884M 58929M 58930M 58931  58933  58960  59032M 59120
             59178M 59211D 59213M 59213  59214M 59234  59259M 59292  59352M 59368M 59433M
     3(3)      977U 15721  15766M 15784M 15789M 15810M 15825M 16147  16154M 16155M 16155  16175M 16181  16183M 16185
             16194M 16194  16208M 16261U 16295  16315  16316M 16359U 16398  16450  16499M 16500  16519M 16520M 16521
             16542M 16545  16594M 16611  16653M 16666M 16671  16718M 16887  16889M 16897U 16915M 16924U 17078  17202M
             17901M 17918M 17923  18013M 18013  18027  18104  18115M 18438U 18440M 18449M 18449  18459M 18468M 18468
             19027M 19049  19053  19422U 19507M 19515U 19527M 19527  19552  19574  19578  19608  19617M 19645U 20619M
             20630M 20630  20661M 20751M 20765M 20804  21268M 21415M 21468  21762M 21823M 21887M 21914  21942M 21952U
             22148U 22168M 22193  22254M 22262U 22319U 22354M 22405  22445M 22486  22752M 22811M 22915M 23260M 23285
             23410M 23476  23611M 23640  23724D 23726M 23726  23727M 23728U 23739M 23739  23765N 23768D 23770M 23770
             23771M 23772U 23787M 23787  23833M 23940  23983M 23991U 24026M 24042  24053U 24078M 24134  24225M 24232
             24255M 24276  24412M 24420U 24522  24523M 25075M 25278M 25302  25383U 25424U 25746  25889M 25893M 25895
             25992M 27047  27214M 27346U 27565  27770M 27771M 27771  27791M 27801U 27821U 27938M 27964  28078M 28088U
             28101U 28132M 28142U 28181U 28249M 28250M 28251M 28252  28534M 28559  28905M 28915  29003M 29009  29132M
             29142  29230M 29236  29305M 29330  29374M 29382U 29479U 29503U 29519U 29543U 29559U 29598M 29632  29701M
             29799  29933M 29958  30093M 30118  30194M 30226  30255M 30265U 30331U 30344M 30369  30402M 30412U 30436U
             30449M 30533  30560M 30568U 30578U 30869M 30879M 30879  30906  31190M 31223M 31357M 31369  31459M 31527
             31639M 31761  31813M 31814M 31821  32021M 32104  32184M 33079M 33080  33081M 33082M 33095M 33102M 33103
             33215M 33216M 33219M 33220M 33223M 33224  33810  33830M 33871  33875M 33962  33986M 34008M 34060M 34060
             34077M 34113M 34232  34249M 34259U 34303M 34431U 34434  34443M 35217  35452M 35462U 35568U 36060M 36109
             36785M 36857M 36967M 36968  37248M 37249  37488M 37564M 37636M 37638M 37642M 37643M 37644  37798M 38146
             38263M 38290M 38291  38470M 38486M 38491  38616M 38637  38915M 38985M 38986  39284M 39292  39624M 39634U
             39646U 39882  39917M 39956  39980M 39998M 40010  40176M 40177M 40178  40581M 40601M 40602M 40641M 40783
             40859  40914M 40918  40975  41243M 41251U 41371M 41461U 41599  41696M 41696  41697M 41712U 41731M 41731
             42091M 42105U 42119  42204M 42206M 42210M 42211M 42228M 42231  42270M 42329  42416M 42424U 42490M 42490
             42658  42664M 42950M 42958U 42983  43246M 43291  44212D 44214M 44214  44215M 44216U 44217  44261M 44798M
             44805  44814M 44853  44879M 44879  44880M 45316M 45355M 45385M 45400  45416M 45417  45677  45681M 45745
             45776M 45777  45789M 45790M 45791  45994M 45997M 46002  46016M 46019  46291M 46311  46640M 46640  46641M
             46974M 46986  47571M 47581  47946M 48009  48156M 48202M 48293M 48811M 48812  48884  48938  49057M 49065U
             49167U 49563M 49571U 49619U 49682  49899M 49964  50662M 50674  50917M 51088  51156M 51172M 51177  51608M
             51617  51731M 51876  51908  51916M 51936  52017M 52231  52283M 52368M 52369M 52369  52388U 52409  52453
             52469U 52694M 52704  52713M 52723  52751M 52761  52777M 52785U 53022  53037U 53175M 53206  53399M 53566M
             53583  53708M 53725  53766M 53783  53902M 53919  54248M 54259  54293M 54309  54336M 54342M 54372M 54975
             55164M 55165M 55165  55235M 55235  55242  55247M 55257U 55305M 55312U 55367M 55378  55562M 55572U 55709U
             55974M 55974  55995M 56043U 56065  56087M 56087  56336M 56337M 56337  56354  56359M 56669U 56680M 56771
             57410M 57420U 57446U 57487M 57488  57552M 57934  57952M 57977  57990M 57997  58002M 58004  58030M 58048
             58201M 58226  58544M 58565  58603M 58613U 58619M 58626U 58628M 58629M 58631M 58648M 58671M 58681U 58879U
             58884M 58960  59032M 59120  59259M 59292  59433M
     4(4)      973U 15721  15732M 15766M 15810M 15825M 15834  16147  16175M 16181  16184M 16200  16208M 16450  16452M
             16594M 16887  16915M 17078  17202M 18081M 18098U 18106  18113U 18567M 18598M 19087M 19099  19480M 19575
             19578M 20751M 20765M 20804  20849M 21331  21332  21341M 21415M 21468  21887M 21914  22168M 22193  22221M
             22231U 22334U 22354M 22405  23260M 23285  23410M 23476  23611M 23640  23833M 23940  24026M 24033M 24056
             24078M 24134  24170M 24178U 24226  24255M 24266U 24276  25075M 25746  25889M 25992M 26799M 26800M 26801
             26802M 26803M 26804M 26804N 26910M 26911M 26912M 26913M 26913N 27047  27214M 27565  27772M 27780U 27828U
             27938M 27964  28534M 28559  28860U 28888M 28935U 28965U 29041U 29087U 29115M 29162U 29192U 29259U 29305M
             29330  29444M 29454U 29470U 29598M 29632  29702M 29751  29933M 29958  30093M 30118  30194M 30226  30344M
             30369  30394M 30419  30449M 30533  30867M 31347M 31348M 31349  32184M 33810  33838M 33846U 33863U 33865
             33875M 33962  33986M 34009M 34076N 34113M 34232  34303M 34324M 34334U 34397U 34443M 35217  35716M 35727M
             35727  36283M 37515M 37565M 37798M 38146  38263M 38915M 39882  39918M 39919M 39937  39951  39973  39978M
             39979M 39998M 40010  40050U 40070M 40087M 40186M 40261M 41057M 41058  41071M 41071  41159M 41371M 41467U
1         (VDMP21) (09:46) (22MAR04) General Purpose Register Cross Reference                                               Page  427
             41599  42091M 42119  42270M 42329  42491M 42520M 42520  42533U 42556M 42562U 42577M 42577  42665M 42694U
             42836  42950M 42965U 42983  43246M 43291  43448M 43456U 44814M 44825U 44853  44873M 44881  45315M 45326
             45327M 45385M 45400  45681M 45745  46291M 46311  46338U 46428D 46430M 46430  46431M 46432U 46471D 46473M
             46473  46474M 46475U 46974M 46981U 46986  47571M 47581  47946M 48009  48293M 49031M 49133  49136M 49577M
             49582  49682  49899M 49964  50662M 50674  50917M 51088  51608M 51617  51916M 51936  52017M 52231  52283M
             52961M 52962  52968M 52970  53175M 54309  54372M 54975  55367M 55378  56003M 56003  56024M 56052U 56065
             56107M 56107  56607M 56608M 56608  56625  56630M 56676U 56680M 56771  57456M 57457M 57481  57515  57552M
             57934  57995M 57996M 58030M 58048  58201M 58226  58544M 58565  58775M 58776M 58805M 58806M 58884M 58960
             59032M 59120  59259M 59292  59433M
     5(5)      969U 15721  15766M 15825M 16147  16175M 16181  16208M 16887  16915M 17078  17089M 17097U 17199  17202M
             17210U 20765M 20804  20856M 20857M 20858M 20868U 20873  21328  21339U 21415M 21468  21887M 21914  22168M
             22193  22354M 22405  22978D 22980M 22980  22981M 22982U 22989  23101M 23101  23260M 23285  23410M 23476
             23611M 23640  23833M 23940  24078M 24134  24255M 24276  25075M 27565  27938M 27964  28534M 28559  29305M
             29330  29598M 29632  29933M 29958  30093M 30118  30194M 30226  30344M 30369  30449M 30533  32184M 33810
             33875M 33962  33986M 34113M 34232  34276M 34276  34382M 34440  34443M 35217  35705M 35713U 36299U 37798M
             38146  38263M 38341M 38349U 38424U 38915M 39296D 39298M 39298  39299M 39300U 39301M 39302M 39303  39304M
             39305  39882  39923M 39923  39966  39972M 39986  39998M 40010  40041U 40086M 40228M 41129M 41145M 41371M
             41473U 41599  42091M 42119  42270M 42329  42363M 42371U 42413  42942  42950M 42972U 42983  43246M 43291
             43987M 43988M 43988  43996  44027M 44028  44077  44195M 44205U 44218M 44219  44226U 44238U 44260M 44287U
             44814M 44853  44873M 44881  45305M 45313U 45325M 45365M 45370M 45370  45374  45375M 45375  45378M 45378
             45385M 45392U 45400  45681M 45745  46291M 46311  46347U 46416M 46442  46461  46468M 46468  46893M 46893
             46974M 46986  47571M 47581  47946M 48009  48030U 48033U 48035M 48290  48293M 48303U 49682  49899M 49964
             50662M 50674  50917M 51088  51608M 51617  51916M 51936  52017M 52231  52283M 53175M 54309  54372M 54975
             55367M 55378  56680M 56771  56828U 56830M 56863  56871  57402U 57552M 57934  58030M 58048  58201M 58226
             58544M 58565  58884M 58960  59032M 59120  59259M 59292  59433M
     6(6)      965U 15721  15722M 15730U 15766M 15825M 16147  16175M 16181  16208M 16887  16915M 17078  17100M 17202M
             20765M 20804  21415M 21468  21887M 21914  22168M 22193  22354M 22405  22919D 22921M 22921  22922M 22923U
             22930  23037D 23039M 23039  23040M 23041U 23048  23118  23124  23195  23260M 23285  23410M 23476  23611M
             23640  23833M 23940  24078M 24134  24255M 24276  25075M 27565  27938M 27964  28534M 28559  29305M 29330
             29598M 29632  29933M 29958  30093M 30118  30194M 30226  30344M 30369  30449M 30533  32184M 33810  33875M
             33962  33986M 34113M 34232  34443M 34587U 35217  35344U 37798M 38146  38263M 38915M 39882  39998M 40010
             41371M 41599  42091M 42119  42270M 42329  42950M 42983  43246M 43291  44814M 44853  45385M 45400  45681M
             45745  46291M 46311  46974M 46986  47571M 47581  47946M 48009  48037M 48293M 48350U 48463U 49682  49899M
             49964  50662M 50674  50917M 51088  51608M 51617  51916M 51936  52017M 52075U 52231  52249U 52283M 52326
             53175M 54309  54326M 54372M 54470U 54617U 54975  55367M 55378  56680M 56771  57552M 57592U 57934  58030M
             58048  58201M 58226  58544M 58565  58884M 58960  59032M 59120  59259M 59292  59433M
     7(7)      961U 15721  15766M 15825M 15933M 15934B 16147  16175M 16181  16208M 16887  16915M 17078  17079M 17087U
             17202M 17217U 17252M 17261U 19991U 19994U 20765M 20804  20809M 20820U 20823U 21404U 21407U 21415M 21468
             21473M 21484U 21487U 21876U 21879U 21887M 21914  21919M 21930U 21933U 22157U 22160U 22168M 22193  22198M
             22209U 22212U 22343U 22346U 22354M 22405  22411M 22422U 22425U 23249U 23252U 23260M 23285  23290M 23301U
             23304U 23399U 23402U 23410M 23476  23481M 23492U 23495U 23600U 23603U 23611M 23640  23645M 23656U 23659U
             23822U 23825U 23833M 23940  23945M 23956U 23959U 24067U 24070U 24078M 24134  24139M 24150U 24153U 24244U
             24247U 24255M 24276  24281M 24291U 24294U 25075M 27353U 27565  27570M 27581U 27930U 27938M 27964  27969M
             27980U 28526U 28534M 28559  28564M 28575U 29297U 29305M 29330  29335M 29346U 29590U 29598M 29632  29637M
             29648U 29925U 29933M 29958  29963M 29974U 30085U 30093M 30118  30123M 30134U 30186U 30194M 30226  30231M
             30242U 30336U 30344M 30369  30374M 30385U 30441U 30449M 30533  30538M 30548U 32184M 33810  33815M 33825U
             33828U 33875M 33962  33967M 33977U 33980U 33986M 34113M 34232  34443M 34582U 35217  35218M 35226U 37798M
             38146  38151M 38161U 38164U 38263M 38915M 39882  39887M 39897U 39900U 39998M 40010  40015M 40025U 40028U
             41371M 41599  41604M 41615U 41618U 42080U 42083U 42091M 42119  42124M 42134U 42137U 42270M 42329  42334M
             42344U 42347U 42950M 42983  42988M 42998U 43001U 43246M 43291  43296M 43306U 43309U 44814M 44853  44858M
             44868U 44871U 45385M 45400  45681M 45745  45750M 45760U 45763U 46291M 46311  46316M 46326U 46329U 46974M
             46986  46991M 47001U 47004U 47571M 47581  47586M 47596U 47599U 47946M 48009  48010M 48018U 48021U 48293M
             48310U 48436M 48445U 49682  49899M 49964  49969M 49979U 49982U 50662M 50674  50679M 50689U 50692U 50917M
             51088  51093M 51103U 51106U 51608M 51617  51622M 51632U 51635U 51916M 51936  51941M 51951U 51954U 52017M
             52070U 52231  52232M 52240U 52283M 53175M 54309  54310M 54318U 54321U 54372M 54384U 54599M 54608U 54975
             55367M 55378  56680M 56771  57552M 57587U 57934  57939M 57949U 58030M 58037U 58048  58053M 58063U 58201M
             58215U 58226  58231M 58241U 58544M 58565  58884M 58892U 58960  58965M 58975U 59032M 59041U 59120  59126M
             59137U 59251U 59259M 59292  59298M 59309U 59425U 59433M
     8(8)      957U 15721  15766M 15825M 16147  16175M 16181  16208M 16887  16915M 17078  17099M 17192  17202M 20765M
1         (VDMP21) (09:46) (22MAR04) General Purpose Register Cross Reference                                               Page  428
             20804  20805M 21411  21415M 21468  21469M 21883  21887M 21914  21915M 22164  22168M 22193  22194M 22350
             22354M 22405  22407M 22439U 23240U 23256  23260M 23285  23286M 23406  23410M 23476  23477M 23607  23611M
             23640  23641M 23829  23833M 23940  23941M 24074  24078M 24134  24135M 24251  24255M 24276  24277M 25074
             25075M 27565  27566M 27934  27938M 27964  27965M 28530  28534M 28559  28560M 29301  29305M 29330  29331M
             29594  29598M 29632  29633M 29929  29933M 29958  29959M 30089  30093M 30118  30119M 30190  30194M 30226
             30227M 30340  30344M 30369  30370M 30445  30449M 30533  30534M 32183  32184M 33810  33811M 33874  33875M
             33962  33963M 33985  33986M 34112  34113M 34232  34443M 35217  37798M 38146  38147M 38262  38263M 38914
             38915M 39882  39883M 39997  39998M 40010  40011M 41370  41371M 41599  41600M 42087  42091M 42119  42120M
             42269  42270M 42329  42330M 42949  42950M 42983  42984M 43245  43246M 43291  43292M 44813  44814M 44853
             44854M 45384  45385M 45400  45426  45427M 45432  45433M 45681M 45745  45746M 45796  45797M 45802  45803M
             46290  46291M 46311  46312M 46973  46974M 46986  46987M 47570  47571M 47581  47582M 47945  47946M 48009
             48036M 48283  48293M 49682  49899M 49964  49965M 50661  50662M 50674  50675M 50916  50917M 51088  51089M
             51607  51608M 51617  51618M 51915  51916M 51936  51937M 52016  52017M 52231  52283M 53175M 54309  54372M
             54975  55367M 55378  56680M 56771  57552M 57934  57935M 58029  58030M 58048  58049M 58200  58201M 58226
             58227M 58543  58544M 58565  58884M 58960  58961M 59031  59032M 59120  59122M 59151U 59246U 59255  59259M
             59292  59294M 59323U 59420U 59429  59433M
     9(9)      953U 15721  15766M 15825M 15857M 15858M 15858B 15885M 15886M 15886B 15890M 15891M 15891B 15951M 15952M
             15952B 15956M 15957M 15957B 16005B 16041B 16063B 16120B 16130M 16131B 16135M 16136B 16147  16175M 16176B
             16181  16208M 16209B 16241B 16252  16331M 16351M 16352B 16432B 16595B 16719B 16778B 16787  16791M 16795M
             16799M 16803M 16807M 16808B 16853M 16854M 16854B 16858M 16859M 16859B 16876B 16887  16915M 16917B 17078
             17110M 17111M 17111B 17115M 17116M 17116B 17134M 17135M 17135B 17143M 17144M 17144B 17185M 17186M 17186B
             17190M 17191M 17191B 17202M 17273M 17274M 17274B 17288M 17289M 17289B 17344M 17345M 17345B 17353M 17354M
             17354B 17358M 17359M 17359B 17377M 17378M 17378B 17386M 17387M 17387B 17391M 17392M 17392B 17412M 17413M
             17413B 17454M 17455M 17455B 17478M 17479M 17479B 17506M 17507M 17507B 17530M 17531M 17531B 17549M 17550M
             17550B 17558M 17559M 17559B 17586M 17587M 17587B 17610M 17611M 17611B 17634M 17635M 17635B 17647M 17648M
             17648B 17678M 17679M 17679B 17683M 17684M 17684B 17731M 17732M 17732B 17739M 17740M 17740B 17863M 17864M
             17864B 17887M 17888M 17888B 17957M 17958M 17958B 17996M 17997M 17997B 18001M 18002M 18002B 18067M 18068M
             18068B 18072M 18073M 18073B 18132M 18133M 18133B 18156M 18157M 18157B 18223M 18224M 18224B 18232M 18233M
             18233B 18271M 18272M 18272B 18276M 18277M 18277B 18315M 18316M 18316B 18320M 18321M 18321B 18379M 18380M
             18380B 18457M 18458M 18458B 18481M 18482M 18482B 18486M 18487M 18487B 18707M 18739M 18740M 18740B 18778M
             18779M 18779B 18800M 18801M 18801B 18809M 18810M 18810B 18852M 18853M 18853B 18877M 18878M 18878B 18905M
             18906M 18906B 18926M 18927M 18927B 18939M 18940M 18940B 18963M 18964M 18964B 18987M 18988M 18988B 19000M
             19001M 19001B 19005M 19006M 19006B 19029M 19051M 19055M 19140M 19141M 19141B 19149M 19150M 19150B 19171M
             19172M 19172B 19180M 19181M 19181B 19219M 19220M 19220B 19228M 19229M 19229B 19271M 19272M 19272B 19296M
             19297M 19297B 19324M 19325M 19325B 19345M 19346M 19346B 19354M 19355M 19355B 19397M 19398M 19398B 19407M
             19408M 19408B 19464M 19465M 19465B 19473M 19474M 19474B 19478M 19479M 19479B 19550M 19551M 19551B 19554M
             19558M 19572M 19573M 19573B 19577M 19586M 19587M 19587B 19591M 19592M 19592B 19611M 19612M 19612B 19670M
             19730M 19731M 19731B 19739M 19740M 19740B 19744M 19745M 19745B 19763M 19764M 19764B 19772M 19773M 19773B
             19797M 19798M 19798B 19806M 19807M 19807B 19836M 19837M 19837B 19867M 19868M 19868B 19876M 19877M 19877B
             19881M 19882M 19882B 20039M 20040M 20040B 20044M 20045M 20045B 20101M 20102M 20102B 20110M 20111M 20111B
             20149M 20150M 20150B 20158M 20159M 20159B 20163M 20164M 20164B 20205M 20206M 20206B 20570M 20765M 20801
             20804  20875M 20898M 20899M 20899B 20907M 20908M 20908B 20929M 20930M 20930B 20938M 20939M 20939B 20977M
             20978M 20978B 20986M 20987M 20987B 21028M 21029M 21029B 21037M 21038M 21038B 21042M 21043M 21043B 21061M
             21062M 21062B 21070M 21071M 21071B 21096M 21097M 21097B 21101M 21102M 21102B 21139M 21158M 21270M 21303M
             21304M 21304B 21330M 21415M 21417M 21420B 21465  21468  21517M 21518M 21518B 21526M 21527M 21527B 21531M
             21532M 21532B 21550M 21551M 21551B 21559M 21560M 21560B 21586M 21587M 21587B 21591M 21592M 21592B 21610M
             21611M 21611B 21619M 21620M 21620B 21673M 21674M 21674B 21727M 21728M 21728B 21736M 21737M 21737B 21755M
             21756M 21756B 21765M 21785M 21786M 21786B 21794M 21795M 21795B 21799M 21800M 21800B 21818M 21819M 21819B
             21826M 21846M 21847M 21847B 21855M 21856M 21856B 21860M 21861M 21861B 21887M 21889M 21892B 21911  21914
             21958M 21992M 21993M 21993B 22013M 22014M 22014B 22040M 22058M 22085M 22086M 22086B 22090M 22091M 22091B
             22120M 22127M 22128M 22128B 22168M 22170M 22173B 22190  22193  22237M 22252M 22253M 22253B 22279M 22280M
             22280B 22290M 22307M 22308M 22308B 22312M 22313M 22313B 22354M 22356M 22359B 22402  22405  22460M 22461M
             22461B 22469M 22470M 22470B 22478M 22479M 22479B 22517M 22518M 22518B 22526M 22527M 22527B 22531M 22532M
             22532B 22550M 22551M 22551B 22559M 22560M 22560B 22608M 22609M 22609B 22617M 22618M 22618B 22666M 22667M
             22667B 22675M 22676M 22676B 22680M 22681M 22681B 22699M 22700M 22700B 22741M 22742M 22742B 22750M 22751M
             22751B 22799M 22800M 22800B 22808M 22809M 22809B 22834M 22835M 22835B 22862M 22863M 22863B 22904M 22905M
             22905B 22913M 22914M 22914B 22964M 22965M 22965B 22973M 22974M 22974B 23023M 23024M 23024B 23032M 23033M
             23033B 23082M 23083M 23083B 23091M 23092M 23092B 23164M 23165M 23165B 23198M 23199M 23199B 23211M 23212M
             23212B 23260M 23262M 23265B 23282  23285  23338M 23339M 23339B 23377M 23378M 23378B 23382M 23383M 23383B
1         (VDMP21) (09:46) (22MAR04) General Purpose Register Cross Reference                                               Page  429
             23410M 23412M 23415B 23473  23476  23611M 23613M 23616B 23637  23640  23833M 23835M 23838B 23937  23940
             24078M 24080M 24083B 24131  24134  24255M 24257M 24260B 24276  24309M 24378M 24379M 24379B 24383M 24384M
             24384B 24520M 24536M 24636M 24677M 24678M 24678B 24682M 24683M 24683B 24738M 24739M 24739B 24760M 24761M
             24761B 24769M 24770M 24770B 24774M 24775M 24775B 24814M 24815M 24815B 24819M 24833M 24834M 24834B 24838M
             24839M 24839B 24847M 24848M 24848B 24872M 24873M 24873B 24897M 24898M 24898B 24906M 24907M 24907B 24969M
             24970M 24970B 24974M 24988M 24989M 24989B 24993M 24994M 24994B 24997M 24998M 24998B 25017M 25018M 25018B
             25022M 25023M 25023B 25047M 25048M 25048B 25052M 25053M 25053B 25075M 25076B 25112M 25113M 25113B 25117M
             25118M 25118B 25136M 25137M 25137B 25145M 25146M 25146B 25188M 25189M 25189B 25197M 25198M 25198B 25241M
             25242M 25242B 25250M 25251M 25251B 25255M 25256M 25256B 25274  25277M 25299M 25305M 25308M 25309B 25347M
             25348M 25348B 25356M 25357M 25357B 25361M 25362M 25362B 25431B 25854M 25855M 25855B 25859M 25860M 25860B
             26560M 26561M 26561B 26569M 26570M 26570B 26574M 26575M 26575B 27086M 27087M 27087B 27091M 27105M 27106M
             27106B 27114M 27115M 27115B 27153M 27154M 27154B 27158M 27159M 27159B 27177M 27178M 27178B 27187M 27188M
             27188B 27191M 27192M 27192B 27231M 27232M 27232B 27270M 27271M 27271B 27275M 27276M 27276B 27294M 27295M
             27295B 27303M 27304M 27304B 27308M 27322M 27323M 27323B 27331M 27332M 27332B 27336M 27337M 27337B 27562
             27565  27593M 27594M 27594B 27602M 27603M 27603B 27607M 27608M 27608B 27656M 27657M 27657B 27677M 27678M
             27678B 27686M 27687M 27687B 27691M 27692M 27692B 27711M 27712M 27712B 27716M 27717M 27717B 27762M 27763M
             27763B 27767M 27768M 27768B 27847M 27848M 27848B 27893M 27894M 27894B 27902M 27903M 27903B 27907M 27908M
             27908B 27938M 27940M 27943B 27961  27964  28022M 28060M 28061M 28061B 28065M 28066M 28066B 28076M 28077M
             28077B 28106M 28107M 28107B 28130M 28131M 28131B 28173M 28174M 28174B 28217M 28218M 28218B 28222M 28223M
             28223B 28303M 28304M 28304B 28362M 28363M 28363B 28371M 28372M 28372B 28376M 28377M 28377B 28395M 28396M
             28396B 28404M 28405M 28405B 28446M 28447M 28447B 28455M 28456M 28456B 28480M 28481M 28481B 28485M 28486M
             28486B 28504M 28505M 28505B 28513M 28514M 28514B 28518M 28519M 28519B 28534M 28536M 28539B 28556  28559
             28587M 28588M 28588B 28669M 28670M 28670B 28674M 28675M 28675B 28693M 28694M 28694B 28702M 28703M 28703B
             28707M 28708M 28708B 28767M 28768M 28768B 28772M 28773M 28773B 28790M 28795M 28796M 28796B 28805M 28806M
             28806B 28810M 28811M 28811B 28882M 28883M 28883B 28886M 28887M 28887B 28919M 28920M 28920B 28953M 28954M
             28954B 28992M 28993M 28993B 29007M 29008M 29008B 29025M 29026M 29026B 29034M 29035M 29035B 29109M 29110M
             29110B 29113M 29114M 29114B 29146M 29147M 29147B 29180M 29181M 29181B 29219M 29220M 29220B 29234M 29235M
             29235B 29252M 29253M 29253B 29268M 29269M 29269B 29305M 29307M 29310B 29327  29330  29357M 29372M 29373M
             29373B 29442M 29443M 29443B 29463M 29464M 29464B 29569M 29570M 29570B 29575M 29576M 29576B 29598M 29600M
             29603B 29629  29632  29710M 29711M 29711B 29715M 29716M 29716B 29734M 29735M 29735B 29743M 29744M 29744B
             29782M 29783M 29783B 29791M 29792M 29792B 29830M 29831M 29831B 29835M 29836M 29836B 29933M 29935M 29938B
             29955  29958  30024M 30025M 30025B 30029M 30030M 30030B 30093M 30095M 30098B 30115  30118  30194M 30196M
             30199B 30223  30226  30254M 30291M 30292M 30292B 30296M 30297M 30297B 30307M 30308M 30308B 30322M 30323M
             30323B 30344M 30346M 30349B 30366  30369  30397M 30401M 30422M 30423M 30423B 30428M 30429M 30429B 30449M
             30451M 30454B 30533  30592M 30593M 30593B 30610M 30643M 30644M 30644B 30677M 30678M 30678B 30699M 30700M
             30700B 30708M 30709M 30709B 30717M 30718M 30718B 30726M 30727M 30727B 30751M 30752M 30752B 30756M 30757M
             30757B 30787M 30788M 30788B 30810M 30811M 30811B 30819M 30820M 30820B 30844M 30845M 30845B 30849M 30850M
             30850B 30865M 30866M 30866B 30892M 30893M 30893B 30909M 30910M 30910B 30918M 30919M 30919B 30923M 30924M
             30924B 30976M 30977M 30977B 30985M 30986M 30986B 31024M 31025M 31025B 31029M 31030M 31030B 31054M 31055M
             31055B 31059M 31060M 31060B 31078M 31079M 31079B 31094M 31095M 31095B 31110M 31111M 31111B 31125M 31144M
             31145M 31145B 31149M 31150M 31150B 31467M 31468M 31468B 31487M 31488M 31488B 31491M 31492M 31492B 31510M
             31511M 31511B 31519M 31520M 31520B 31558M 31559M 31559B 31567M 31568M 31568B 31606M 31607M 31607B 31616M
             31617M 31617B 31620M 31621M 31621B 31647M 31648M 31648B 31652M 31666M 31667M 31667B 31676M 31677M 31677B
             31680M 31681M 31681B 31699M 31700M 31700B 31708M 31709M 31709B 31750M 31751M 31751B 31759M 31760M 31760B
             31802M 31803M 31803B 31811M 31812M 31812B 31852M 31853M 31853B 31861M 31862M 31862B 31866M 31867M 31867B
             31901M 31902M 31902B 31910M 31911M 31911B 31915M 31916M 31916B 32012M 32013M 32013B 32017M 32018M 32018B
             32039M 32040M 32040B 32048M 32049M 32049B 32087M 32088M 32088B 32096M 32097M 32097B 32135M 32136M 32136B
             32144M 32145M 32145B 32149M 32150M 32150B 32184M 32185B 33474M 33475M 33475B 33479M 33493M 33494M 33494B
             33502M 33503M 33503B 33507M 33508M 33508B 33522M 33523M 33523B 33526M 33540M 33541M 33541B 33549M 33550M
             33550B 33554M 33555M 33555B 33574M 33575M 33575B 33579M 33580M 33580B 33593M 33594M 33594B 33602M 33603M
             33603B 33618M 33619M 33619B 33632M 33633M 33633B 33637M 33638M 33638B 33810  33875M 33876B 33962  33986M
             33988B 33990M 33992M 34107M 34109M 34113M 34115B 34232  34443M 34445B 34457  34461M 34467M 34470M 34471B
             35217  35512M 35513M 35513B 35572M 35573M 35573B 35581M 35582M 35582B 35602M 35603M 35603B 35612M 35613M
             35613B 35652M 35653M 35653B 35679M 35680M 35680B 35684M 35685M 35685B 35823M 35824M 35824B 35842M 35843M
             35843B 35847M 35848M 35848B 35865M 35866M 35866B 35884M 35885M 35885B 35893M 35894M 35894B 35914M 35915M
             35915B 35919M 35920M 35920B 35938M 35939M 35939B 35947M 35948M 35948B 35966M 35967M 35967B 35971M 35972M
             35972B 36029M 36030M 36030B 36068M 36069M 36069B 36073M 36074M 36074B 36092M 36093M 36093B 36101M 36102M
             36102B 36140M 36141M 36141B 36149M 36150M 36150B 36198M 36199M 36199B 36207M 36208M 36208B 36256M 36257M
             36257B 36265M 36266M 36266B 36270M 36271M 36271B 36340M 36341M 36341B 36348M 36349M 36349B 36416M 36417M
1         (VDMP21) (09:46) (22MAR04) General Purpose Register Cross Reference                                               Page  430
             36417B 36439M 36440M 36440B 36481M 36482M 36482B 36560M 36561M 36561B 36589M 36590M 36590B 36614M 36615M
             36615B 36692M 36693M 36693B 36716M 36717M 36717B 36740M 36741M 36741B 36753M 36754M 36754B 36758M 36759M
             36759B 36955M 37006M 37007M 37007B 37011M 37012M 37012B 37020M 37021M 37021B 37025M 37026M 37026B 37058M
             37059M 37059B 37067M 37068M 37068B 37106M 37107M 37107B 37115M 37116M 37116B 37120M 37121M 37121B 37194M
             37195M 37195B 37210M 37300M 37301M 37301B 37309M 37310M 37310B 37348M 37349M 37349B 37357M 37358M 37358B
             37378M 37379M 37379B 37394M 37395M 37395B 37413M 37414M 37414B 37435M 37436M 37436B 37444M 37445M 37445B
             37449M 37450M 37450B 37465M 37466M 37466B 37481M 37482M 37482B 37486M 37487M 37487B 37513M 37514M 37514B
             37562M 37563M 37563B 37588M 37589M 37589B 37624M 37625M 37625B 37633M 37634M 37634B 37670M 37671M 37671B
             37674M 37675M 37675B 37701M 37702M 37702B 37798M 37811M 37812M 37812B 37850M 37851M 37851B 37859M 37860M
             37860B 37880M 37881M 37881B 37904M 37905M 37905B 37943M 37944M 37944B 37952M 37953M 37953B 37961M 37962M
             37962B 37981M 37982M 37982B 38002M 38003M 38003B 38007M 38008M 38008B 38030U 38057B 38064U 38146  38211M
             38230M 38263M 38265B 38272  38339M 38340M 38340B 38353M 38394M 38395M 38395B 38399M 38400M 38400B 38413M
             38414B 38431  38630M 38666M 38667M 38667B 38706M 38707M 38707B 38711M 38712M 38712B 38730M 38731M 38731B
             38739M 38740M 38740B 38778M 38779M 38779B 38787M 38788M 38788B 38836M 38837M 38837B 38845M 38846M 38846B
             38894M 38895M 38895B 38903M 38904M 38904B 38908M 38909M 38909B 38915M 38917B 38950M 39081M 39082M 39082B
             39120M 39121M 39121B 39129M 39130M 39130B 39134M 39135M 39135B 39333M 39334M 39334B 39372M 39373M 39373B
             39381M 39382M 39382B 39386M 39387M 39387B 39431M 39504M 39522M 39523M 39523B 39560M 39561M 39561B 39569M
             39570M 39570B 39607M 39608M 39608B 39612M 39613M 39613B 39665M 39666M 39666B 39674M 39675M 39675B 39680M
             39694M 39695M 39695B 39699M 39700M 39700B 39716M 39717B 39882  39954M 39955M 39955B 39998M 39999B 40010
             40319M 40320M 40320B 40328M 40329M 40329B 40370M 40371M 40371B 40375M 40376M 40376B 40394M 40395M 40395B
             40403M 40404M 40404B 40445M 40446M 40446B 40487M 40488M 40488B 40496M 40497M 40497B 40505M 40506M 40506B
             40553M 40554M 40554B 40558M 40559M 40559B 40760M 40763M 40764M 40764B 40841M 40939M 40940M 40940B 40951M
             40996M 40997M 40997B 41300M 41301M 41301B 41362M 41363M 41363B 41371M 41372B 41381M 41382M 41382B 41426M
             41427M 41427B 41442M 41443M 41443B 41596  41599  41721M 41722M 41722B 41745M 41746M 41746B 41782M 41783M
             41783B 41800M 41801M 41801B 41819M 41820M 41820B 41828M 41829M 41829B 41853M 41854M 41854B 41891M 41892M
             41892B 41929M 41930M 41930B 41967M 41968M 41968B 42005M 42006M 42006B 42014M 42015M 42015B 42091M 42093M
             42096B 42119  42146M 42147M 42147B 42178M 42179M 42179B 42183M 42184M 42184B 42202M 42203M 42203B 42251M
             42252M 42252B 42260M 42261M 42261B 42265M 42266M 42266B 42270M 42271B 42329  42415M 42430M 42494M 42590M
             42591M 42591B 42595M 42596M 42596B 42701M 42772M 42773M 42773B 42796M 42797M 42797B 42862M 42863M 42863B
             42881M 42882M 42882B 42886M 42887M 42887B 42905M 42906M 42906B 42914M 42915M 42915B 42935M 42936M 42936B
             42940M 42941M 42941B 42950M 42952B 42983  43044M 43045M 43045B 43108M 43109M 43109B 43113M 43114M 43114B
             43149M 43150M 43150B 43188M 43189M 43189B 43197M 43198M 43198B 43218M 43219M 43219B 43223M 43224M 43224B
             43246M 43248B 43291  43678M 43679M 43679B 43716M 43717M 43717B 43725M 43726M 43726B 43763M 43764M 43764B
             43772M 43773M 43773B 43810M 43811M 43811B 43819M 43820M 43820B 43857M 43858M 43858B 43862M 43863M 43863B
             43959M 43960M 43960B 43999M 44189M 44306M 44307M 44307B 44315M 44316M 44316B 44339M 44340M 44340B 44363M
             44364M 44364B 44410M 44411M 44411B 44419M 44420M 44420B 44464M 44465M 44465B 44480M 44481M 44481B 44499M
             44500M 44500B 44508M 44509M 44509B 44513M 44527M 44528M 44528B 44536M 44537M 44537B 44557M 44558M 44558B
             44596M 44597M 44597B 44635M 44636M 44636B 44659M 44660M 44660B 44676M 44677M 44677B 44695M 44696M 44696B
             44704M 44705M 44705B 44742M 44743M 44743B 44751M 44752M 44752B 44789M 44790M 44790B 44794M 44795M 44795B
             44802M 44803M 44803B 44814M 44816B 44853  44907M 45385M 45386B 45400  45426  45433M 45469M 45470M 45470B
             45478M 45479M 45479B 45483M 45484M 45484B 45502M 45503M 45503B 45511M 45512M 45512B 45516M 45517M 45517B
             45592M 45593M 45593B 45601M 45602M 45602B 45606M 45607M 45607B 45625M 45626M 45626B 45634M 45635M 45635B
             45639M 45640M 45640B 45681M 45682B 45745  45796  45803M 45906M 45907M 45907B 45916M 45917M 45917B 45920M
             45921M 45921B 46115M 46116M 46116B 46157M 46158M 46158B 46198M 46199M 46199B 46203M 46204M 46204B 46239M
             46262M 46291M 46293B 46311  46381M 46382M 46382B 46607M 46608M 46608B 46688M 46689M 46689B 46729M 46730M
             46730B 46733M 46734M 46734B 46757M 46758M 46758B 46805M 46806M 46806B 46814M 46815M 46815B 46855M 46856M
             46856B 46865M 46866M 46866B 46869M 46870M 46870B 46974M 46975B 46986  47069M 47070M 47070B 47090M 47091M
             47091B 47138M 47139M 47139B 47147M 47148M 47148B 47167M 47168M 47168B 47171M 47172M 47172B 47190M 47191M
             47191B 47212M 47213M 47213B 47216M 47217M 47217B 47225M 47226M 47226B 47270M 47271M 47271B 47279M 47280M
             47280B 47324M 47325M 47325B 47333M 47334M 47334B 47379M 47380M 47380B 47383M 47384M 47384B 47392M 47393M
             47393B 47445M 47446M 47446B 47454M 47455M 47455B 47499M 47500M 47500B 47504M 47505M 47505B 47513M 47514M
             47514B 47562M 47563M 47563B 47566M 47567M 47567B 47571M 47573B 47581  47602M 47603M 47603B 47619M 47620M
             47620B 47641M 47642M 47642B 47650M 47651M 47651B 47659M 47660M 47660B 47668M 47669M 47669B 47690M 47691M
             47691B 47695M 47696M 47696B 47714M 47715M 47715B 47740M 47741M 47741B 47759M 47760M 47760B 47783M 47784M
             47784B 47788M 47789M 47789B 47804M 47805M 47805B 47853M 47854M 47854B 47862M 47863M 47863B 47901M 47902M
             47902B 47906M 47907M 47907B 47931M 47932M 47932B 47936M 47937M 47937B 47946M 47947B 48009  48076M 48077M
             48077B 48085M 48086M 48086B 48127M 48128M 48128B 48132M 48133M 48133B 48263M 48293M 48473M 48474M 48474B
             48478M 48479M 48479B 48484M 48485M 48485B 48504M 48505M 48505B 48509M 48510M 48510B 48527M 48528M 48528B
             48531M 48587M 48588M 48588B 48596M 48597M 48597B 48601M 48602M 48602B 48629M 48630M 48630B 48658M 48659M
1         (VDMP21) (09:46) (22MAR04) General Purpose Register Cross Reference                                               Page  431
             48659B 48693M 48694M 48694B 48698M 48699M 48699B 48718M 48719M 48719B 48767M 48768M 48768B 48776M 48777M
             48777B 48781M 48782M 48782B 48809M 48810M 48810B 48832M 48833M 48833B 48841M 48842M 48842B 48846M 48847M
             48847B 48877M 48878M 48878B 48882M 48883M 48883B 48904M 48905M 48905B 48909M 48910M 48910B 48936M 48937M
             48937B 48941M 48955M 48956M 48956B 48960M 48961M 48961B 48973M 48974M 48974B 49006M 49007M 49007B 49011M
             49012M 49012B 49051M 49052M 49052B 49055M 49056M 49056B 49102M 49103M 49103B 49107M 49108M 49108B 49135M
             49153M 49154M 49154B 49176M 49177M 49177B 49181M 49182M 49182B 49228M 49451M 49452M 49452B 49456M 49457M
             49457B 49511M 49512M 49512B 49522M 49561M 49562M 49562B 49575M 49580M 49581M 49581B 49591M 49592M 49592B
             49600M 49601M 49601B 49605M 49606M 49606B 49641M 49642M 49642B 49646M 49647M 49647B 49665M 49682  49712M
             49713M 49713B 49717M 49718M 49718B 49741M 49742M 49742B 49769M 49770M 49770B 49774M 49775M 49775B 49816M
             49817M 49817B 49821M 49822M 49822B 49843M 49844M 49844B 49848M 49862M 49863M 49863B 49871M 49872M 49872B
             49876M 49890M 49891M 49891B 49895M 49896M 49896B 49899M 49900B 49964  50052M 50081M 50082M 50082B 50085M
             50086M 50086B 50120M 50121M 50121B 50125M 50126M 50126B 50134M 50135M 50135B 50157M 50191M 50253M 50254M
             50254B 50268M 50269M 50269B 50308M 50309M 50309B 50312M 50313M 50313B 50325M 50326M 50326B 50395M 50396M
             50396B 50488M 50510M 50514M 50515M 50515B 50523M 50524M 50524B 50528M 50529M 50529B 50547M 50548M 50548B
             50586M 50587M 50587B 50595M 50596M 50596B 50600M 50601M 50601B 50619M 50620M 50620B 50639M 50640M 50640B
             50648M 50649M 50649B 50653M 50654M 50654B 50662M 50664B 50674  50711M 50774M 50775M 50775B 50779M 50780M
             50780B 50811M 50812M 50812B 50815M 50877M 50878M 50878B 50882M 50883M 50883B 50906M 50907M 50907B 50910M
             50911M 50911B 50913M 50917M 50918B 50929  50966M 50967M 50967B 50971M 50972M 50972B 51030M 51033M 51036M
             51037B 51088  51278M 51395M 51396M 51396B 51400M 51401M 51401B 51419M 51420M 51420B 51428M 51429M 51429B
             51467M 51468M 51468B 51476M 51477M 51477B 51525M 51526M 51526B 51534M 51535M 51535B 51583M 51584M 51584B
             51592M 51593M 51593B 51597M 51598M 51598B 51608M 51609B 51617  51654M 51655M 51655B 51659M 51673M 51674M
             51674B 51682M 51683M 51683B 51687M 51688M 51688B 51709M 51710M 51710B 51867M 51868M 51868B 51906M 51916M
             51918B 51936  52017M 52018B 52038M 52231  52283M 52329M 52330M 52330B 52434M 52435M 52435B 52450M 52451M
             52451B 52533M 52534M 52534B 52572M 52573M 52573B 52588M 52589M 52589B 52611M 52615M 52619M 52621M 52630M
             52631M 52631B 52646M 52647M 52647B 52744M 52746M 52812M 52813M 52813B 52833M 52834M 52834B 52864M 52865M
             52865B 52912M 52913M 52913B 52921M 52922M 52922B 52938M 52939M 52939B 52959M 52960M 52960B 53041M 53077B
             53104B 53127M 53128M 53128B 53143M 53144M 53144B 53175M 53215M 53216M 53216B 53254M 53255M 53255B 53263M
             53264M 53264B 53291M 53292M 53292B 53311M 53312M 53312B 53320M 53321M 53321B 53357M 53358M 53358B 53381M
             53382M 53382B 53395M 53396M 53396B 53402M 53422M 53423M 53423B 53446M 53447M 53447B 53466M 53467M 53467B
             53475M 53476M 53476B 53479M 53500M 53501M 53501B 53509M 53510M 53510B 53531M 53532M 53532B 53535M 53562M
             53563M 53563B 53603M 53604M 53604B 53624M 53625M 53625B 53651M 53652M 53652B 53673M 53674M 53674B 53694M
             53695M 53695B 53741M 53742M 53742B 53762M 53763M 53763B 53803M 53804M 53804B 53824M 53825M 53825B 53851M
             53852M 53852B 53873M 53874M 53874B 53894M 53895M 53895B 53932M 53955M 53956M 53956B 53976M 53977M 53977B
             54016M 54017M 54017B 54055M 54056M 54056B 54064M 54065M 54065B 54107M 54108M 54108B 54132M 54133M 54133B
             54160M 54161M 54161B 54199M 54200M 54200B 54224M 54225M 54225B 54238M 54268M 54269M 54269B 54289M 54290M
             54290B 54309  54333M 54339M 54345M 54364M 54372M 54642M 54643M 54643B 54651M 54652M 54652B 54675M 54676M
             54676B 54712M 54713M 54713B 54736M 54737M 54737B 54745M 54746M 54746B 54811M 54841M 54858M 54919  54924M
             54925M 54925B 54944M 54945M 54945B 54949M 54950M 54950B 54960M 54961M 54961B 54964M 54965B 54975  54984M
             54985M 54985B 54989M 54990M 54990B 54992M 54996M 55019M 55020M 55020B 55024M 55025M 55025B 55057M 55058M
             55058B 55066M 55067M 55067B 55071M 55072M 55072B 55089M 55090M 55090B 55108M 55116M 55117M 55117B 55155M
             55156M 55156B 55160M 55161M 55161B 55194M 55195M 55195B 55203M 55204M 55204B 55208M 55209M 55209B 55245M
             55246M 55246B 55279M 55280M 55280B 55298M 55299M 55299B 55303M 55304M 55304B 55317M 55318M 55318B 55331M
             55332M 55332B 55367M 55368B 55378  55387M 55388M 55388B 55392M 55393M 55393B 55395M 55399M 55417M 55418M
             55418B 55422M 55423M 55423B 55444M 55445M 55445B 55453M 55454M 55454B 55458M 55483M 55484M 55484B 55501M
             55502M 55502B 55514M 55515M 55515B 55535M 55536M 55536B 55540M 55541M 55541B 55560M 55561M 55561B 55593M
             55594M 55594B 55602M 55603M 55603B 55627M 55628M 55628B 55656M 55657M 55657B 55669M 55670M 55670B 55691M
             55692M 55692B 55696M 55697M 55697B 55702M 55703M 55703B 55730M 55731M 55731B 55739M 55740M 55740B 55778M
             55779M 55779B 55787M 55788M 55788B 55826M 55827M 55827B 55835M 55836M 55836B 55840M 55841M 55841B 55859M
             55860M 55860B 55868M 55869M 55869B 55907M 55908M 55908B 55916M 55917M 55917B 55955M 55956M 55956B 55964M
             55965M 55965B 55969M 55970M 55970B 55993M 55994M 55994B 56022M 56023M 56023B 56133M 56141M 56142M 56142B
             56180M 56181M 56181B 56185M 56186M 56186B 56208M 56209M 56209B 56212M 56213M 56213B 56246M 56247M 56247B
             56251M 56265M 56266M 56266B 56274M 56275M 56275B 56313M 56314M 56314B 56318M 56319M 56319B 56352M 56353M
             56353B 56357M 56358M 56358B 56381M 56389M 56390M 56390B 56428M 56429M 56429B 56433M 56434M 56434B 56464M
             56465M 56465B 56473M 56474M 56474B 56492M 56493M 56493B 56497M 56498M 56498B 56527M 56528M 56528B 56531M
             56532M 56532B 56565M 56566M 56566B 56570M 56584M 56585M 56585B 56589M 56590M 56590B 56623M 56624M 56624B
             56628M 56629M 56629B 56653M 56654M 56654B 56680M 56681B 56689  56719M 56720M 56720B 56728M 56729M 56729B
             56749M 56750M 56750B 56758M 56759M 56759B 56762M 56763B 56771  56776M 56777M 56777B 56796M 56797M 56797B
             56805M 56806M 56806B 56810M 56811M 56811B 56820M 56897M 56898M 56898B 56906M 56907M 56907B 56911M 56912M
             56912B 57005M 57006M 57006B 57017M 57018M 57018B 57022M 57023M 57023B 57041M 57042M 57042B 57083M 57084M
1         (VDMP21) (09:46) (22MAR04) General Purpose Register Cross Reference                                               Page  432
             57084B 57092M 57093M 57093B 57097M 57098M 57098B 57116M 57117M 57117B 57158M 57159M 57159B 57167M 57168M
             57168B 57172M 57173M 57173B 57191M 57192M 57192B 57233M 57234M 57234B 57242M 57243M 57243B 57247M 57248M
             57248B 57252M 57253M 57253B 57261M 57262M 57262B 57300M 57301M 57301B 57309M 57310M 57310B 57314M 57315M
             57315B 57333M 57334M 57334B 57342M 57343M 57343B 57381M 57382M 57382B 57390M 57391M 57391B 57395M 57396M
             57396B 57535M 57543M 57544M 57544B 57548M 57549M 57549B 57552M 57553B 57934  58030M 58031B 58048  58201M
             58202B 58226  58284M 58285M 58285B 58303M 58304M 58304B 58312M 58313M 58313B 58350M 58351M 58351B 58395M
             58396M 58396B 58483M 58490M 58494M 58495M 58495B 58515M 58516M 58516B 58544M 58546B 58565  58884M 58885B
             58960  59032M 59034B 59035B 59117  59120  59259M 59261M 59264B 59289  59292  59433M 59435M 59438B
    10(A)      949U 15721  15766M 15825M 17078  17202M 20765M 20804  21415M 21468  21887M 21914  22168M 22193  22354M
             22405  23260M 23285  23410M 23476  23611M 23640  23833M 23940  24078M 24134  24255M 27565  27938M 27964
             28534M 28559  29305M 29330  29598M 29632  29933M 29958  30093M 30118  30194M 30226  30344M 30369  30449M
             35217  36315U 36460M 36497M 36630M 36768M 36856M 37798M 41599  42091M 44799M 44874  44882  44885  45426
             45433M 45796  45803M 47232  48009  48139M 48201M 48293M 48339U 52231  52283M 53175M 54309  54372M 57934
             58030M 58048  58201M 58226  58544M 58960  59032M 59120  59259M 59292  59433M
    11(B)      945U 10011B 10012B 15721  15737M 15737  15766M 15825M 17078  17202M 20765M 20804  21415M 21468  21887M
             21914  22168M 22193  22354M 22405  23260M 23285  23410M 23476  23611M 23640  23833M 23940  24078M 24134
             24255M 27565  27938M 27964  28534M 28559  29305M 29330  29598M 29632  29933M 29958  30093M 30118  30194M
             30226  30344M 30369  30449M 35217  35293M 35315M 35316  35317M 35326U 37798M 41599  42091M 45426  45433M
             45796  45803M 48009  48054M 48293M 48334U 52231  52283M 52290M 52299M 52300  52301M 52310U 52325  53175M
             54309  54325M 54372M 54398U 54777M 54792U 54878  54893M 54893  57576U 57922U 57934  57951M 58030M 58048
             58065M 58201M 58226  58243M 58472  58544M 58960  59005M 59020  59032M 59120  59259M 59292  59433M 59457U
    12(C)      941U 15721  15766M 15773M 15781U 15825M 17078  17101M 17202M 20753  20765M 20804  21415M 21468  21887M
             21914  22168M 22193  22354M 22405  23260M 23285  23410M 23476  23611M 23640  23833M 23940  24078M 24134
             24255M 24531  25287  27565  27938M 27964  28534M 28559  29305M 29330  29598M 29632  29933M 29958  30093M
             30118  30194M 30226  30344M 30369  30449M 30946  34569U 35217  35315  35316M 35317  35335U 37786  37798M
             41599  42091M 45426  45433M 45796  45803M 47823  48009  48038M 48293M 48329U 48454U 52057U 52231  52283M
             52299  52300M 52301  52319U 52324  53164  53175M 54309  54324M 54372M 54391U 54626U 57571U 57934  57951
             58030M 58048  58065  58201M 58226  58243  58544M 58960  59032M 59120  59259M 59292  59433M
    13(D)      937U 15791  15832M 15833  16070  16071M 16071  16118M 16119  16147  16148M 16148  16174M 16175  16181
             16182M 16182  16207M 16208  16252  16253M 16253  16350M 16351  16450  16451M 16451  16542  16593M 16594
             16611  16612M 16612  16717M 16718  16787  16788M 16788  16806M 16807  16887  16888M 16888  16914M 16915
             17099  17102M 17192M 17202  20734M 20801  20804  20805  20806M 20806  21411M 21415  21417  21465  21468
             21469  21470M 21470  21760  21761M 21761  21821M 21822  21883M 21887  21889  21911  21914  21915  21916M
             21916  22164M 22168  22170  22190  22193  22194  22195M 22195  22350M 22354  22356  22402  22405  22407
             22408M 22408  23256M 23260  23262  23282  23285  23286  23287M 23287  23406M 23410  23412  23473  23476
             23477  23478M 23478  23607M 23611  23613  23637  23640  23641  23642M 23642  23829M 23833  23835  23937
             23940  23941  23942M 23942  24074M 24078  24080  24131  24134  24135  24136M 24136  24251M 24255  24257
             24276  24277  24278M 24278  25074M 25075  25101  25102M 25102  25258M 25259  25274  25275M 25275  25307M
             25308  25746  25747M 25747  25991M 25992  26551  26552M 26552  26577M 26578  26977  26978M 26978  27002M
             27003  27047  27048M 27048  27213M 27214  27562  27565  27566  27567M 27567  27934M 27938  27940  27961
             27964  27965  27966M 27966  28530M 28534  28536  28556  28559  28560  28561M 28561  29301M 29305  29307
             29327  29330  29331  29332M 29332  29594M 29598  29600  29629  29632  29633  29634M 29634  29929M 29933
             29935  29955  29958  29959  29960M 29960  30089M 30093  30095  30115  30118  30119  30120M 30120  30190M
             30194  30196  30223  30226  30227  30228M 30228  30340M 30344  30346  30366  30369  30370  30371M 30371
             30445M 30449  30451  30533  30534  30535M 30535  32003  32004M 32004  32020M 32021  32183M 32184  33398
             33399M 33399  33450M 33451  33810  33811  33812M 33812  33874M 33875  33962  33963  33964M 33964  33985M
             33986  34112M 34113  34232  34233M 34233  34442M 34443  34457  34458M 34458  34469M 34470  35385  35386M
             37785M 38146  38147  38148M 38148  38262M 38263  38272  38273M 38273  38412M 38413  38431  38432M 38432
             38914M 38915  39715M 39716  39882  39883  39884M 39884  39997M 39998  40010  40011  40012M 40012  41370M
             41371  41596  41599  41600  41601M 41601  42087M 42091  42093  42119  42120  42121M 42121  42269M 42270
             42329  42330  42331M 42331  42949M 42950  42983  42984  42985M 42985  43245M 43246  43291  43292  43293M
             43293  44813M 44814  44853  44854  44855M 44855  45384M 45385  45400  45401M 45401  45426  45426  45427
             45428M 45428  45432M 45433M 45433  45680M 45681  45745  45746  45747M 45747  45796  45796  45797  45798M
             45798  45802M 45803M 45803  46290M 46291  46311  46312  46313M 46313  46973M 46974  46986  46987  46988M
             46988  47570M 47571  47581  47582  47583M 47583  47945M 47946  48036  48068M 48277  48283M 48293  49632
             49633M 49633  49667M 49668  49682  49683M 49683  49898M 49899  49964  49965  49966M 49966  50661M 50662
             50674  50675  50676M 50676  50916M 50917  50929  50930M 50930  51035M 51036  51088  51089  51090M 51090
             51607M 51608  51617  51618  51619M 51619  51915M 51916  51936  51937  51938M 51938  52016M 52017  52322
             52323M 53163M 53206  53207M 53207  53565M 53566  53583  53584M 53584  53707M 53708  53725  53726M 53726
1         (VDMP21) (09:46) (22MAR04) General Purpose Register Cross Reference                                               Page  433
             53765M 53766  53783  53784M 53784  53901M 53902  53919  53920M 53920  54247M 54248  54259  54260M 54260
             54292M 54293  54328  54329M 54371M 54919  54920M 54920  54963M 54964  54975  54976M 54976  55366M 55367
             55378  55379M 55379  55474  55475M 55475  55486M 55487  56679M 56680  56689  56690M 56690  56761M 56762
             56771  56772M 56772  57551M 57552  57934  57934  57935  57936M 57936  58029M 58030M 58030  58048  58048
             58049  58050M 58050  58200M 58201M 58201  58226  58226  58227  58228M 58228  58543M 58544M 58544  58565
             58566M 58566  58883M 58884  58960  58960  58961  58962M 58962  59031M 59032M 59032  59117  59120  59122
             59123M 59123  59255M 59259  59261  59289  59292  59294  59295M 59295  59429M 59433  59435
    14(E)      933U 15721  15766M 15768B 15807M 15808M 15808N 15809M 15809N 15810  15810M 15825M 15827B 16022M 16023M
             16023  16028M 16028  16031M 16032  16406M 16407M 16453M 16454M 16455M 16467  16498  16873M 17066B 17078
             17168M 17169M 17169B 17202M 17203B 17979M 17980M 17980B 18088M 18189M 18190  18194M 18195  18254M 18255M
             18255B 18785M 18786M 18786B 19100M 19101  19156M 19157M 19157B 19202M 19203M 19203B 19782M 19783M 19783B
             20132M 20133M 20133B 20564M 20566  20599M 20601  20719M 20748M 20749M 20749N 20750M 20750N 20751  20751M
             20763M 20766B 20914M 20915M 20915B 20960M 20961M 20961B 21011M 21012M 21012B 21081M 21082M 21082B 21571M
             21572M 21572B 21656M 21657M 21657B 21710M 21711M 21711B 21770M 21771M 21771B 21831M 21832M 21832B 22500M
             22501M 22501B 22591M 22592M 22592B 22649M 22650M 22650B 22724M 22725M 22725B 22782M 22783M 22783B 22887M
             22888M 22888B 22947M 22948M 22948B 23006M 23007M 23007B 23065M 23066M 23066B 23147M 23148M 23148B 23360M
             23361M 23361B 23999M 24023M 24024M 24024N 24025M 24025N 24026  24026M 24351M 24353  24434M 24465M 24466M
             24466B 24481M 24482M 24482B 24581M 24629M 24632  24745M 24746M 24746B 25101  25171M 25172M 25172B 25224M
             25225M 25225B 25259M 25264B 25550B 25642B 25707B 25746  25768M 25769M 25769B 25790M 25791M 25791B 25992M
             25998B 26013B 26028B 26043B 26059B 26124B 26216B 26296B 26376B 26422B 26468B 26500B 26551  26578M 26588B
             26661B 26757B 26834B 26877B 26943B 26977  26992M 26993M 26993B 27003M 27013B 27029B 27043B 27047  27136M
             27137M 27137B 27214M 27220B 27253M 27254M 27254B 27852M 27876M 27877M 27877B 28429M 28430M 28430B 28465M
             28466M 28466B 28729M 28732  29765M 29766M 29766B 29813M 29814M 29814B 29850M 29851  29852M 29853  29854M
             29855  29856M 29857  29860M 29864M 29866  29867M 29890M 29891  29892M 29893  29894M 29895  29896M 29897
             29900M 29904M 29906  29907M 30042M 30043  30044M 30045  30046M 30047  30048M 30049  30052M 30056M 30058
             30059M 30793M 30794M 30794B 30825M 30826M 30826B 31007M 31008M 31008B 31379M 31380M 31380B 31395M 31396M
             31396B 31541M 31542M 31542B 31589M 31590M 31590B 31733M 31734M 31734B 31785M 31786M 31786B 31835M 31836M
             31836B 31987M 32070M 32071M 32071B 32118M 32119M 32119B 32268B 32307B 32346B 32361B 32377B 32408B 32478B
             32509B 32616B 32662B 32701B 32716B 32731B 32747B 32762B 32777B 32792B 32807B 32822B 32838B 32853B 32869B
             32891  32914B 32931B 32948B 32981B 32998B 33109B 33230B 33279B 33295B 33392B 33398  33402M 33403M 33403B
             33441M 33451M 33457B 34270M 34294M 34295  34300M 34301M 34301N 34302M 34302N 34303  34303M 35217  35300M
             35664M 35665M 35665B 36017M 36018M 36018B 36123M 36124M 36124B 36181M 36182M 36182B 36239M 36240M 36240B
             36641M 36644  36914M 36916  36948M 36951  37089M 37090M 37090B 37203M 37206  37331M 37332M 37332B 37545M
             37546M 37546B 37648M 37649M 37649B 37797M 37799B 37833M 37834M 37834B 37926M 37927M 37927B 38650M 38651M
             38651B 38761M 38762M 38762B 38819M 38820M 38820B 38877M 38878M 38878B 39103M 39104M 39104B 39355M 39356M
             39356B 39492M 39543M 39544M 39544B 39590M 39591M 39591B 39788B 39790B 39820B 40353M 40354M 40354B 40428M
             40429M 40429B 40470M 40471M 40471B 40536M 40537M 40537B 40753M 40756  40770M 40773  40786M 40860M 40921M
             40978M 41409M 41410M 41410B 42042M 42157M 42158M 42158B 42230M 42231M 42236M 42237M 42237B 43086M 43171M
             43172M 43172B 43363M 43364M 43364B 43486M 43489  43699M 43700M 43700B 43746M 43747M 43747B 43793M 43794M
             43794B 43840M 43841M 43841B 43890M 43893  44007M 44008M 44393M 44394M 44394B 44725M 44726M 44726B 44772M
             44773M 44773B 45230M 45430M 45800M 45889M 45890M 45890B 45931M 46098M 46099M 46099B 46140M 46141M 46141B
             46181M 46182M 46182B 46657M 46657  46788M 46789M 46789B 46838M 46839M 46839B 47042M 47043M 47043B 47249M
             47250M 47250B 47303M 47304M 47304B 47357M 47358M 47358B 47424M 47425M 47425B 47478M 47479M 47479B 47544M
             47545M 47545B 47725M 47726M 47726B 47765M 47766M 47766B 47884M 47885M 47885B 47996B 48009  48110M 48111M
             48111B 48293M 48294B 49359M 49362  49471M 49632  49658M 49661  49668M 49669B 50465M 50472M 50481M 50484
             50503M 50506  50569M 50570M 50570B 50747M 50749  50850M 50852  50991M 50998M 51015M 51018  51023M 51026
             51450M 51451M 51451B 51508M 51509M 51509B 51566M 51567M 51567B 51737M 51740  51809M 51812  51839M 51879M
             51899M 51902  51978M 51985M 52009M 52031M 52034  52231  52282M 52284B 52297M 52349M 52350  52351M 52351
             52352  52555M 52556M 52556B 52895M 52896M 52896B 53003M 53004M 53004B 53019M 53020M 53020B 53174M 53176B
             53206  53237M 53238M 53238B 53342M 53343M 53343B 53407M 53408M 53408B 53485M 53486M 53486B 53516M 53517M
             53517B 53566M 53572B 53583  53658M 53659M 53659B 53708M 53714B 53725  53766M 53772B 53783  53858M 53859M
             53859B 53902M 53908B 53919  54038M 54039M 54039B 54182M 54183M 54183B 54248M 54254B 54259  54293M 54299B
             54309  54372M 54377B 54784M 55138M 55139M 55139B 55520M 55521M 55521B 55676M 55677M 55677B 55761M 55762M
             55762B 55809M 55810M 55810B 55890M 55891M 55891B 55938M 55939M 55939B 56163M 56164M 56164B 56296M 56297M
             56297B 56411M 56412M 56412B 56698M 56699M 56699B 56870M 56872  57066M 57067M 57067B 57141M 57142M 57142B
             57216M 57217M 57217B 57283M 57284M 57284B 57364M 57365M 57365B 57439M 57499M 57528M 57531  57934  58030M
             58048  58069M 58069  58108M 58129M 58132  58154M 58154  58175M 58175  58187M 58197M 58197  58201M 58226
             58430M 58433  58442M 58443M 58443  58448M 58448  58451M 58452  58544M 58932B 58934B 58960  59012M 59032M
             59238M 59402M
1         (VDMP21) (09:46) (22MAR04) General Purpose Register Cross Reference                                               Page  434
    15(F)      929U 10473M 10473  15721  15722  15749M 15760M 15760  15766M 15767M 15806M 15819M 15819  15825M 15826M
             15898M 15899M 15900M 15901B 16020M 16020  16021M 16022  16025  16030  16031  16034  16038  16230  16236
             16390M 16390  16406M 16407M 16427M 16427  16452  16829M 16840M 16840  16872M 16872  16873M 16916M 16916
             17043U 17065M 17065  17076U 17078  17079  17151M 17202M 17876  17933M 17943M 17943  17949  17965M 18043M
             18054M 18054  18087M 18087  18088M 18188M 18189  18190  18191  18195  18196  18197  18198  18199  18209M
             18209  18215  18240M 18782M 19098M 19099  19101  19102  19103  19104  19105  19108M 19114M 19114  19153M
             19188M 19779M 20118M 20239M 20688M 20689M 20689  20719B 20747M 20764M 20841M 20841  20911M 20946M 20988M
             21078M 21137M 21155M 21156M 21169  21366M 21419M 21419  21568M 21642M 21696M 21763M 21824M 21891M 21891
             22172M 22172  22358M 22358  22445  22486M 22564D 22566M 22566  22567M 22568U 22622D 22624M 22624  22625M
             22626U 22707M 22759M 22870M 22930M 22989M 23048M 23127M 23264M 23264  23324M 23324  23330  23346M 23384M
             23414M 23414  23615M 23615  23778M 23797M 23797  23837M 23837  23980M 23998M 23998  23999M 24033  24056M
             24082M 24082  24224  24233M 24259M 24259  24432M 24432  24433M 24434B 24462M 24579M 24579  24580M 24581M
             24740M 25101  25147M 25148M 25199M 25200M 25201M 25259M 25323M 25334M 25334  25746  25765M 25787M 25830M
             25841M 25841  25992M 26551  26578M 26977  26994  27003M 27047  27064  27122M 27214M 27239M 27849M 27852M
             27855M 27856  27942M 27942  28406M 28462M 28538M 28538  28656M 28656  29290M 29290  29309M 29309  29602M
             29602  29751M 29799M 29858M 29858  29859M 29860B 29865M 29865  29866M 29867B 29898M 29898  29899M 29900B
             29905M 29905  29906M 29907B 29937M 29937  30050M 30050  30051M 30052B 30057M 30057  30058M 30059B 30097M
             30097  30198M 30198  30348M 30348  30453M 30453  30602M 30602  30619M 30619  30962M 30962  30968  30993M
             31376M 31438M 31440M 31440  31452M 31452  31458  31527M 31575M 31716M 31761M 31762M 31821M 31888M 31888
             31950M 31951M 31951  31987B 31996M 31996  32003  32056M 32104M 33398  33432  33441M 33442  33451M 33830
             33982M 33987M 33987  34114M 34114  34246M 34269M 34269  34270M 34318M 34318  34416M 34416  34440M 34444M
             34444  35217  35218  35240M 35251M 35251  35271M 35272  35299M 35299  35300M 35361M 35372M 35372  35537M
             35537  35659M 35810M 35810  36003M 36054M 36054  36060  36109M 36154D 36156M 36156  36157M 36158U 36212D
             36214M 36214  36215M 36216U 36989M 36989  37044M 37044  37050  37075M 37125M 37125  37270M 37270  37317M
             37528M 37679M 37679  37793M 37803  37819M 37906M 38046  38052  38238M 38238  38255M 38264M 38264  38637M
             38692M 38692  38698  38747M 38792D 38794M 38794  38795M 38796U 38850D 38852M 38852  38853M 38854U 38911M
             38916M 38916  39067M 39067  39073  39089M 39319M 39319  39325  39341M 39429M 39434M 39435M 39435  39492B
             39502M 39529M 39576M 39711M 39711  39809U 39827U 39846U 39860M 39860  39867U 40336M 40411M 40453M 40515D
             40517M 40517  40518M 40519U 40784M 40784  40785M 40786B 40839M 40842M 40860B 40872  40907  40919M 40919
             40920M 40921B 40949M 40976M 40976  40977M 40978B 41385D 41387M 41387  41388M 41389U 42040M 42040  42041M
             42042  42095M 42095  42154M 42229M 42230M 42231M 42360M 42492M 42699M 42715M 42715  42734  42826M 42826
             42841M 42842M 42845  42846  42850  42946M 42946  42951M 42951  43083M 43086M 43089M 43090  43157M 43242M
             43242  43247M 43247  43349M 43419  43436M 43436  43442M 43476M 43499M 43499  43511  43512M 43549M 43549
             43567  43568M 43685M 43732M 43779M 43826M 43910M 44010M 44012M 44014B 44017M 44018M 44018N 44019M 44019N
             44020M 44020N 44021B 44375M 44711M 44758M 44810M 44810  44815M 44815  44818M 45229M 45230M 45231M 45255
             45257  45413M 45429M 45430B 45799M 45800B 45866M 45930M 45931M 45932  46029M 46029  46081M 46123M 46164M
             46164  46237M 46260M 46266M 46266  46283M 46292M 46292  46378M 46661D 46663M 46663  46664M 46665U 46690
             46726M 46761D 46763M 46763  46764M 46765U 46816M 47010M 47018D 47020M 47020  47021M 47022U 47047M 47232M
             47281M 47335M 47402M 47456M 47517D 47519M 47519  47520M 47521U 47522M 47524M 47572M 47572  47839M 47839
             47845  47870M 47970U 47995M 47995  48007U 48009  48010  48093M 48293M 49078M 49089M 49089  49335M 49335
             49427M 49438M 49438  49469M 49469  49470M 49471B 49699M 49699  49756M 49756  49803M 49803  50067M 50067
             50107M 50107  50463M 50463  50464M 50465B 50470M 50470  50471M 50472B 50555M 50658M 50658  50663M 50663
             50942M 50953M 50953  50989M 50989  50990M 50991B 50996M 50996  50997M 50998B 51381M 51381  51387  51436M
             51481D 51483M 51483  51484M 51485U 51539D 51541M 51541  51542M 51543U 51701M 51701  51728M 51837M 51837
             51838M 51839B 51877M 51877  51878M 51879B 51917M 51917  51976M 51976  51977M 51978B 51983M 51983  51984M
             51985B 52007M 52007  52008M 52009B 52231  52232  52264M 52275M 52275  52281M 52296M 52296  52297M 52342M
             52519M 52519  52525  52541M 52676M 52676  52868D 52870M 52870  52871M 52872U 53000M 53071M 53093M 53094
             53095M 53096  53097M 53098  53099M 53100  53161M 53173M 53173  53206  53223M 53274M 53274  53275M 53338M
             53400M 53430M 53477M 53480M 53511M 53533M 53545M 53545  53546M 53566M 53583  53653M 53708M 53725  53766M
             53783  53853M 53902M 53919  53930M 54024M 54168M 54236M 54248M 54259  54293M 54309  54310  54331M 54337M
             54340  54343M 54346  54362M 54372M 54376M 54376  54757M 54768M 54768  54783M 54783  54784M 54874M 54874
             54907M 55124M 55517M 55673M 55741M 55789M 55870M 55918M 56149M 56282M 56397M 56695M 57049M 57124M 57199M
             57269M 57350M 57437M 57437  57438M 57439B 57497M 57497  57498M 57499B 57934  58030M 58048  58185M 58185
             58186M 58187B 58201M 58338M 58338  58376M 58376  58440M 58440  58441M 58442  58445  58450  58451  58454
             58458  58484M 58545M 58545  58747  58910U 58949U 58988M 58999M 58999  59011M 59011  59012M 59024M 59024
             59033M 59033  59236M 59237M 59237  59238  59263M 59263  59335M 59335  59342  59377M 59387U 59393M 59400U
             59402B 59405D 59407M 59407  59408M 59409U 59437M 59437

1VDMP     (VDMP21) (09:46) (22MAR04) Diagnostic Cross Reference and Assembler Summary                                       Page  435
-                                                                                            HLASM R4.0  2004/03/22 09.46
0     No Statements Flagged in this Assembly
 HIGH LEVEL ASSEMBLER, 5696-234, RELEASE 4.0, PTF UQ57391
0SYSTEM: OS/390 02.10.00            JOBNAME: PJG#VDMP    STEPNAME: ASM        PROCSTEP: (NOPROC)
0Datasets Allocated for this Assembly
  Con DDname   Dataset Name                                 Volume  Member
   P1 SYSIN    SYS04082.T094621.RA000.PJG#VDMP.INPUT.H01    SCR100
   L1 SYSLIB   SYS3.DUMMYMAC                                SYSB02
   L2          WYL.GG.SYS.MACLIB                            SYSB05
   L3          WYL.GG.ORV.BC.MACLIB                         SYSB02
   L4          SYS3.IS.MACLIB                               SYSB05
   L5          SYS3.MACLIB                                  SYSB02
   L6          SYS1.MACLIB                                  MVSBR9
   L7          SYS1.MODGEN                                  MVSBR9
      SYSLIN   WYL.GG.PJG.OBJ                               SYSB05  VDMP
      SYSPRINT SYS04082.T094621.RA000.PJG#VDMP.PRINT.H01    SCR100
      SYSTERM  GG$PJG.PJG#VDMP.JOB05974.D0000103.?

    7812K allocated to Buffer Pool,        12117K would be required for this to be an In-Storage Assembly
   10090 Primary Input Records Read        54443 Library Records Read               1041 Work File Reads
       0 ASMAOPT Records Read              33265 Primary Print Records Written      1080 Work File Writes
    1069 Punch Records Written                 0 ADATA Records Written
0Assembly Start Time: 09.46.23 Stop Time: 09.46.39 Processor Time: 00.00.11.4354
 Return Code 000
