1                        J E S 2  J O B  L O G  --  S Y S T E M  S Y S B  --  N O D E  R L G
0
 09.48.18 JOB05992 ---- MONDAY,    22 MAR 2004 ----
 09.48.18 JOB05992  ICH70001I GG$PJG   LAST ACCESS AT 09:48:08 ON MONDAY, MARCH 22, 2004
 09.48.18 JOB05992  $HASP373 PJG#VMNT STARTED - INIT 3    - CLASS E - SYS SYSB
 09.48.18 JOB05992  ***  HCMD      STEP $$QUIET
 09.48.18 JOB05992  PURGE * Q=OUTPUT MULTIPLE
 09.48.18 JOB05992  JOB PJG#VMNT NOT IN OUTPUT QUEUE
 09.48.19 JOB05992  PJG#VMNT.$$QUIET .         RC=0008 TapeIO=0000 DiskIO=0000 CPU=  .01s Elapsed=98.75s
 09.48.20 JOB05992  PJG#VMNT.$CND    .         RC=Zero TapeIO=0000 DiskIO=0002 CPU=  .01s Elapsed=99.85s
 09.48.20 JOB05992  PJG#VMNT.$UNP    .         RC=Zero TapeIO=0000 DiskIO=0079 CPU=  .07s Elapsed=00.09s
 09.48.38 JOB05992  PJG#VMNT.ASM     .         RC=Zero TapeIO=0000 DiskIO=1233 CPU= 7.95s Elapsed=00.66s
 09.48.42 JOB05992  PJG#VMNT.$EDIT   .         RC=Zero TapeIO=0000 DiskIO=0361 CPU= 1.35s Elapsed=18.29s
 09.48.42 JOB05992  PJG#VMNT Ended.  Name=Module: VMNT                   Total CPU= 9.39s Elapsed=98.75s
 09.48.42 JOB05992
 09.48.42 JOB05992  Execution charges   Priority=Standard   Block=Day
 09.48.42 JOB05992
 09.48.42 JOB05992  CPU Usage         172.68         $107.06   Standard Processing Unit Equivalent
 09.48.42 JOB05992                                   =======
 09.48.42 JOB05992                                   $107.06   Total Job execution charge
 09.48.42 JOB05992
 09.48.42 JOB05992  See back separator page for print charges
 09.48.42 JOB05992
 09.48.42 JOB05992  $HASP395 PJG#VMNT ENDED  ASM=0
1        1 //PJG#VMNT JOB PJG$GG,'Module: VMNT',TIME=1,MSGCLASS=C                  JOB05992
           /*JOBPARM HOLD=OUTPUT,LINES=50,CHARS=TN15,NOTIFY=YES
         2 //       EXEC PURGEOLD
         3 XXPURGEOLD PROC
           XX*
           XX* This proc is maintained by Jim Stosick
           XX*
         4 XX$$QUIET  EXEC PGM=HCMDX,PARM='PURGE * Q=OUTPUT MULTIPLE',
           XX         ACCT=(PURGEOLD,SYS3)
         5 //$CND   EXEC PGM=BILBO,REGION=512K,PARM='RECS=100'
         6 //STEPLIB  DD DSN=WYL.GG.ORV.LINKLIB,DISP=SHR
         7 //SYSPRINT DD SYSOUT=$
         8 //SYSUT1   DD DSN=WYL.GG.PJG.OBJ,DISP=OLD
         9 //SYSUT2   DD DSN=WYL.GG.PJG.OBJ,DISP=OLD
        10 //SYSIN    DD DUMMY
        11 //$UNP   EXEC PGM=WUNPRESS,PARM='NUM'
        12 //SYSPRINT DD SYSOUT=$
        13 //SYSUT1   DD DSN=WYL.GG.ORV.SOURCE.FILEUTIL(VMNT),DISP=SHR
        14 //SYSUT2   DD DSN=&&INPUT,DISP=(,PASS),UNIT=SYSDA,
           //            SPACE=(TRK,(25,25),RLSE),DCB=CARD
        15 //ASM    EXEC PGM=ASMA90,REGION=8M,COND=(0,NE,$UNP),
           //            PARM=('SYSPARM(VMNT),TERM,LANG(EN),OBJ',
           //          'LC(32500),XREF(SHORT),NODECK,NORLD,NODX,NOUS')
           //*STEPLIB  DD DSN=SYS1.SASMMOD1,DISP=SHR
        16 //SYSLIB   DD DSN=SYS3.DUMMYMAC,DISP=SHR,DCB=BLKSIZE=27920
        17 //         DD DSN=WYL.GG.SYS.MACLIB,DISP=SHR
        18 //         DD DSN=SYS3.IS.MACLIB,DISP=SHR
        19 //         DD DSN=SYS3.MACLIB,DISP=SHR
        20 //         DD DSN=WYL.GG.ORV.BC.MACLIB,DISP=SHR
        21 //         DD DSN=SYS1.MACLIB,DISP=SHR
        22 //         DD DSN=SYS1.MODGEN,DISP=SHR
        23 //SYSUT1   DD DSN=&&SYSUT1,UNIT=VIO,DISP=(,DELETE),
           //            SPACE=(4088,(500,250),,CONTIG,ROUND)
        24 //SYSTERM  DD SYSOUT=$
        25 //SYSPRINT DD DSN=&&PRINT,UNIT=SYSDA,DISP=(,PASS),
           //            SPACE=(6650,(250,250),RLSE),
           //            DCB=(BLKSIZE=6650,LRECL=133,RECFM=FB)
        26 //SYSLIN   DD DSN=WYL.GG.PJG.OBJ(VMNT),DISP=OLD
        27 //SYSUDUMP DD SYSOUT=A
        28 //SYSIN    DD DSN=&&INPUT,DISP=(OLD,DELETE)
        29 //$EDIT  EXEC PGM=ASMEDIT,REGION=1M,
           //            COND=EVEN,PARM='STMT,DATA'
        30 //STEPLIB  DD DSN=WYL.GG.SYS.LINKLIB,DISP=SHR
        31 //ASMOUT   DD DSN=&&PRINT,DISP=(OLD,DELETE)
        32 //SYSPRINT DD SYSOUT=A
        33 //SYSUDUMP DD SYSOUT=A
1 STMT NO. MESSAGE
         2 IEFC001I PROCEDURE PURGEOLD WAS EXPANDED USING SYSTEM LIBRARY SYS3.BETAPROC
        14 IGD01010I STORCLAS= TEMP STORGROUP =
        14 IGD01010I STORGRP=VIO ASSIGNED.
        23 IGD01010I STORCLAS= TEMP STORGROUP =
        23 IGD01010I STORGRP=VIO ASSIGNED.
        25 IGD01010I STORCLAS= TEMP STORGROUP =
        25 IGD01010I STORGRP=VIO ASSIGNED.
 ICH70001I GG$PJG   LAST ACCESS AT 09:48:08 ON MONDAY, MARCH 22, 2004
 IEF142I PJG#VMNT $$QUIET - STEP WAS EXECUTED - COND CODE 0008
 *********************************************************************************
 *   PJG#VMNT/$$QUIET /                    Return Code      0008                 *
 *   Region used      260K (16K user + 244K system)                              *
 *   Extended region  9352K (4K user + 9348K system)                             *
 *                                                                               *
 *   Paging              In      Out                                             *
 *   Private <-> Aux      0        0       CPU time (TCB)   00:00:00.01          *
 *   Private <-> Exp      0        0       CPU time (SRB)   00:00:00.00          *
 *   VIO                  0        0       Elapsed time    920:39:34.21          *
 *   Common               0      ---                                             *
 *                                                                               *
 *                                                                               *
 *   CPU Usage          0.18         $0.11  Standard Processing Unit Equivalent  *
 *                                   $0.11  Total Step execution charge          *
 *                                                                               *
 *    I/O count  DDname   Type Addr           I/O count  DDname   Type Addr      *
 *                         *** No I/O for this step ***                          *
 *********************************************************************************
 IEF373I STEP/$$QUIET /START 2004082.0948
 IEF374I STEP/$$QUIET /STOP  2004082.0948 CPU    0MIN 00.01SEC SRB    0MIN 00.00SEC VIRT    16K SYS   244K EXT       4K SYS    9348K
 IEF236I ALLOC. FOR PJG#VMNT $CND
 IEF237I 0401 ALLOCATED TO STEPLIB
 IEF237I JES2 ALLOCATED TO SYSPRINT
 IEF237I 04DC ALLOCATED TO SYSUT1
 IEF237I 04DC ALLOCATED TO SYSUT2
 IEF237I DMY  ALLOCATED TO SYSIN
 IEF142I PJG#VMNT $CND - STEP WAS EXECUTED - COND CODE 0000
 IEF285I   WYL.GG.ORV.LINKLIB                           KEPT
 IEF285I   VOL SER NOS= SYSB01.
 IEF285I   GG$PJG.PJG#VMNT.JOB05992.D0000101.?          SYSOUT
 IEF285I   WYL.GG.PJG.OBJ                               KEPT
 IEF285I   VOL SER NOS= SYSB05.
 IEF285I   WYL.GG.PJG.OBJ                               KEPT
 IEF285I   VOL SER NOS= SYSB05.
 *********************************************************************************
 *   PJG#VMNT/$CND    /                    Return Code      Zero                 *
 *   Region used      288K (16K user + 272K system)                              *
 *   Extended region  9392K (4K user + 9388K system)                             *
 *                                                                               *
 *   Paging              In      Out                                             *
 *   Private <-> Aux      0        0       CPU time (TCB)   00:00:00.01          *
 *   Private <-> Exp      0        0       CPU time (SRB)   00:00:00.00          *
 *   VIO                  0        0       Elapsed time    920:39:33.11          *
 *   Common               0      ---                                             *
 *                                                                               *
 *                                                                               *
 *   CPU Usage          0.18         $0.11  Standard Processing Unit Equivalent  *
 *                                   $0.11  Total Step execution charge          *
 *                                                                               *
 *    I/O count  DDname   Type Addr           I/O count  DDname   Type Addr      *
 *            2  STEPLIB  Disk 0401                   0  SYSPRINT      ----      *
 *            0  SYSUT1   Disk 04DC                   0  SYSUT2   Disk 04DC      *
 *            0  SYSIN         ----                                              *
 *********************************************************************************
 IEF373I STEP/$CND    /START 2004082.0948
 IEF374I STEP/$CND    /STOP  2004082.0948 CPU    0MIN 00.01SEC SRB    0MIN 00.00SEC VIRT    16K SYS   272K EXT       4K SYS    9388K
 IEF236I ALLOC. FOR PJG#VMNT $UNP
 IEF237I JES2 ALLOCATED TO SYSPRINT
 IEF237I 0402 ALLOCATED TO SYSUT1
 IGD101I SMS ALLOCATED TO DDNAME (SYSUT2  )
         DSN (SYS04082.T094818.RA000.PJG#VMNT.INPUT.H01   )
         STORCLAS (TEMP) MGMTCLAS (        ) DATACLAS (        )
         VOL SER NOS= SCR100
 IEF142I PJG#VMNT $UNP - STEP WAS EXECUTED - COND CODE 0000
 IEF285I   GG$PJG.PJG#VMNT.JOB05992.D0000102.?          SYSOUT
 IEF285I   WYL.GG.ORV.SOURCE.FILEUTIL                   KEPT
 IEF285I   VOL SER NOS= SYSB02.
 IGD106I SYS04082.T094818.RA000.PJG#VMNT.INPUT.H01    PASSED,    DDNAME=SYSUT2
 *********************************************************************************
 *   PJG#VMNT/$UNP    /                    Return Code      Zero                 *
 *   Region used      388K (108K user + 280K system)                             *
 *   Extended region  9468K (4K user + 9464K system)                             *
 *                                                                               *
 *   Paging              In      Out                                             *
 *   Private <-> Aux      0        0       CPU time (TCB)   00:00:00.07          *
 *   Private <-> Exp      0        0       CPU time (SRB)   00:00:00.00          *
 *   VIO                  0        0       Elapsed time    920:39:32.87          *
 *   Common               0      ---                                             *
 *                                                                               *
 *                                                                               *
 *   CPU Usage          1.31         $0.81  Standard Processing Unit Equivalent  *
 *                                   $0.81  Total Step execution charge          *
 *                                                                               *
 *    I/O count  DDname   Type Addr           I/O count  DDname   Type Addr      *
 *            0  SYSPRINT      ----                  25  SYSUT1   Disk 0402      *
 *           54  SYSUT2   Disk 038B                                              *
 *********************************************************************************
 IEF373I STEP/$UNP    /START 2004082.0948
 IEF374I STEP/$UNP    /STOP  2004082.0948 CPU    0MIN 00.07SEC SRB    0MIN 00.00SEC VIRT   108K SYS   280K EXT       4K SYS    9464K
 IEF236I ALLOC. FOR PJG#VMNT ASM
 IEF237I 0402 ALLOCATED TO SYSLIB
 IEF237I 04DC ALLOCATED TO
 IEF237I 04DC ALLOCATED TO
 IEF237I 0402 ALLOCATED TO
 IEF237I 0402 ALLOCATED TO
 IEF237I 04A0 ALLOCATED TO
 IEF237I 04A0 ALLOCATED TO
 IGD101I SMS ALLOCATED TO DDNAME (SYSUT1  )
         DSN (SYS04082.T094818.RA000.PJG#VMNT.SYSUT1.H01  )
         STORCLAS (TEMP) MGMTCLAS (        ) DATACLAS (        )
         VOL SER NOS= VIO
 IEF237I JES2 ALLOCATED TO SYSTERM
 IGD101I SMS ALLOCATED TO DDNAME (SYSPRINT)
         DSN (SYS04082.T094818.RA000.PJG#VMNT.PRINT.H01   )
         STORCLAS (TEMP) MGMTCLAS (        ) DATACLAS (        )
         VOL SER NOS= SCR100
 IEF237I 04DC ALLOCATED TO SYSLIN
 IEF237I JES2 ALLOCATED TO SYSUDUMP
 IGD103I SMS ALLOCATED TO DDNAME SYSIN
 IEF142I PJG#VMNT ASM - STEP WAS EXECUTED - COND CODE 0000
 IEF285I   SYS3.DUMMYMAC                                KEPT
 IEF285I   VOL SER NOS= SYSB02.
 IEF285I   WYL.GG.SYS.MACLIB                            KEPT
 IEF285I   VOL SER NOS= SYSB05.
 IEF285I   SYS3.IS.MACLIB                               KEPT
 IEF285I   VOL SER NOS= SYSB05.
 IEF285I   SYS3.MACLIB                                  KEPT
 IEF285I   VOL SER NOS= SYSB02.
 IEF285I   WYL.GG.ORV.BC.MACLIB                         KEPT
 IEF285I   VOL SER NOS= SYSB02.
 IEF285I   SYS1.MACLIB                                  KEPT
 IEF285I   VOL SER NOS= MVSBR9.
 IEF285I   SYS1.MODGEN                                  KEPT
 IEF285I   VOL SER NOS= MVSBR9.
 IGD105I SYS04082.T094818.RA000.PJG#VMNT.SYSUT1.H01   DELETED,   DDNAME=SYSUT1
 IEF285I   GG$PJG.PJG#VMNT.JOB05992.D0000103.?          SYSOUT
 IGD106I SYS04082.T094818.RA000.PJG#VMNT.PRINT.H01    PASSED,    DDNAME=SYSPRINT
 IEF285I   WYL.GG.PJG.OBJ                               KEPT
 IEF285I   VOL SER NOS= SYSB05.
 IEF285I   GG$PJG.PJG#VMNT.JOB05992.D0000104.?          SYSOUT
 IGD105I SYS04082.T094818.RA000.PJG#VMNT.INPUT.H01    DELETED,   DDNAME=SYSIN
 *********************************************************************************
 *   PJG#VMNT/ASM     /                    Return Code      Zero                 *
 *   Region used      8488K (8192K user + 296K system)                           *
 *   Extended region  9972K (412K user + 9560K system)                           *
 *                                                                               *
 *   Paging              In      Out                                             *
 *   Private <-> Aux      0        0       CPU time (TCB)   00:00:07.81          *
 *   Private <-> Exp      0        0       CPU time (SRB)   00:00:00.14          *
 *   VIO                  0        0       Elapsed time    920:39:32.30          *
 *   Common               0      ---                                             *
 *                                                                               *
 *                                                                               *
 *   CPU Usage        146.43        $90.78  Standard Processing Unit Equivalent  *
 *                                  $90.78  Total Step execution charge          *
 *                                                                               *
 *    I/O count  DDname   Type Addr           I/O count  DDname   Type Addr      *
 *           22  SYSLIB   Disk 0402                 190  SYSLIB   Disk 04DC      *
 *            0  SYSLIB   Disk 04DC                   0  SYSLIB   Disk 0402      *
 *            0  SYSLIB   Disk 0402                 591  SYSLIB   Disk 04A0      *
 *            0  SYSLIB   Disk 04A0                 481  SYSUT1   VIO  ----      *
 *            0  SYSTERM       ----                 358  SYSPRINT Disk 038B      *
 *           17  SYSLIN   Disk 04DC                   0  SYSUDUMP      ----      *
 *           55  SYSIN    Disk 038B                                              *
 *********************************************************************************
 IEF373I STEP/ASM     /START 2004082.0948
 IEF374I STEP/ASM     /STOP  2004082.0948 CPU    0MIN 07.81SEC SRB    0MIN 00.14SEC VIRT  8192K SYS   296K EXT     412K SYS    9560K
 IEF236I ALLOC. FOR PJG#VMNT $EDIT
 IEF237I 0402 ALLOCATED TO STEPLIB
 IGD103I SMS ALLOCATED TO DDNAME ASMOUT
 IEF237I JES2 ALLOCATED TO SYSPRINT
 IEF237I JES2 ALLOCATED TO SYSUDUMP
 IEF142I PJG#VMNT $EDIT - STEP WAS EXECUTED - COND CODE 0000
 IEF285I   WYL.GG.SYS.LINKLIB                           KEPT
 IEF285I   VOL SER NOS= SYSB02.
 IGD105I SYS04082.T094818.RA000.PJG#VMNT.PRINT.H01    DELETED,   DDNAME=ASMOUT
 IEF285I   GG$PJG.PJG#VMNT.JOB05992.D0000105.?          SYSOUT
 IEF285I   GG$PJG.PJG#VMNT.JOB05992.D0000106.?          SYSOUT
 *********************************************************************************
 *   PJG#VMNT/$EDIT   /                    Return Code      Zero                 *
 *   Region used      388K (116K user + 272K system)                             *
 *   Extended region  9484K (4K user + 9480K system)                             *
 *                                                                               *
 *   Paging              In      Out                                             *
 *   Private <-> Aux      0        0       CPU time (TCB)   00:00:01.31          *
 *   Private <-> Exp      0        0       CPU time (SRB)   00:00:00.04          *
 *   VIO                  0        0       Elapsed time    920:39:14.67          *
 *   Common               0      ---                                             *
 *                                                                               *
 *                                                                               *
 *   CPU Usage         24.56        $15.22  Standard Processing Unit Equivalent  *
 *                                  $15.22  Total Step execution charge          *
 *                                                                               *
 *    I/O count  DDname   Type Addr           I/O count  DDname   Type Addr      *
 *            2  STEPLIB  Disk 0402                 359  ASMOUT   Disk 038B      *
 *            0  SYSPRINT      ----                   0  SYSUDUMP      ----      *
 *********************************************************************************
 IEF373I STEP/$EDIT   /START 2004082.0948
 IEF374I STEP/$EDIT   /STOP  2004082.0948 CPU    0MIN 01.31SEC SRB    0MIN 00.04SEC VIRT   116K SYS   272K EXT       4K SYS    9480K
 *********************************************************************************
 *                                                                               *
 *                      S t a n f o r d   U n i v e r s i t y                    *
 *                                                                               *
 *                              *** Job Summary ***                              *
 *                                                                               *
 *   System Id      SYSB                   Input time     09:38:38  Mar 22, 2004 *
 *                                                                               *
 *   System Release SP6.1.0                Start time     09:48:18  Mar 22, 2004 *
 *                                                                               *
 *   Job name       PJG#VMNT               Stop  time     00:00:00  Mar 22, 2004 *
 *                                                                               *
 *   Account        PJG$GG                 Elapsed time  920:39:34.21            *
 *                                                                               *
 *   User Name      Module: VMNT           CPU time       00:00:09.21            *
 *                                                                               *
 *   Job class      E                      SRB Time       00:00:00.18            *
 *                                                                               *
 *********************************************************************************
 IEF375I  JOB/PJG#VMNT/START 2004082.0948
 IEF376I  JOB/PJG#VMNT/STOP  2004082.0948 CPU    0MIN 09.21SEC SRB    0MIN 00.18SEC
1Data set successfully converted from EDIT to FB format
1Assembler Done VMNT No Statements Flagged
1         High Level Assembler Option Summary                   (PTF UQ57391)                                               Page    1
-                                                                                            HLASM R4.0  2004/03/22 09.48
0  No Overriding ASMAOPT Parameters
   Overriding Parameters-  SYSPARM(VMNT),TERM,LANG(EN),OBJ,LC(32500),XREF(SHORT),NODECK,NORLD,NODX,NOUS
   No Process Statements


   Options for this Assembly
0  NOADATA
     ALIGN
   NOASA
     BATCH
     CODEPAGE(047C)
   NOCOMPAT
   NODBCS
 3 NODECK
 3 NODXREF
     ESD
   NOEXIT
     FLAG(0,ALIGN,CONT,NOIMPLEN,NOPAGE0,PUSH,RECORD,NOSUBSTR,USING0)
   NOFOLD
   NOGOFF
   NOINFO
 3   LANGUAGE(EN)
   NOLIBMAC
 3   LINECOUNT(32500)
     LIST(121)
     MXREF(SOURCE)
 3   OBJECT
     OPTABLE(UNI,NOLIST)
   NOPCONTROL
   NOPESTOP
   NOPROFILE
   NORA2
   NORENT
 3 NORLD
     RXREF
     SIZE(MAX)
 3   SYSPARM(VMNT)
 3   TERM(WIDE)
   NOTEST
     THREAD
   NOTRANSLATE
 3 NOUSING
 3   XREF(SHORT)

   No Overriding DD Names

1VMNT     External Symbol Dictionary                                                                                        Page    2
-Symbol   Type   Id     Address  Length     LD ID  Flags Alias-of                            HLASM R4.0  2004/03/22 09.48
0VMNT      SD 00000001 00000000 00006F60             01
 VMNT21    LD          00000000           00000001
 MAINT     LD          00000016           00000001
 SEGWR     ER 00000002
 SEG       ER 00000003
 SEGBLANK  ER 00000004
 SEGDC     ER 00000005
 SEGCLR    ER 00000006
 SEGB      ER 00000007
 SEGHX     ER 00000008
 SCINIT    ER 00000009
 SCAN      ER 0000000A
 BTD       ER 0000000B
 XTB       ER 0000000C
 SEGINIT   ER 0000000D
 SEGINITR  ER 0000000E
 BTR       ER 0000000F
 RETUCBA   ER 00000010
 BTX       ER 00000011
 RETVOLU   ER 00000012
 VSIO_GO   ER 00000013
 FMTCLCK   ER 00000014
 FMTTIME   ER 00000015

1VMNT     ORVYL File Maintenance Driver                                                                                     Page    3
0Loc    Object Code    Addr1 Addr2  Stmt Lv Lineno    Source Statement                    (Asmedit 3.3)  HLASM R4.0  2004/03/22 09.48
+___    ______ ____    _____ _____  ____ __ ______    ______ _________
0                                      2       2.     ********************************************************************
                                       3       3.     ********************************************************************
                                       4       4.     **                                                                **
                                       5       5.     **                                                                **
                                       6       6.     **     ORVYL/370  Release III - Class I - Stanford Proprietary    **
                                       7       7.     **                                                                **
                                       8       8.     **                                                                **
                                       9       9.     ********************************************************************
                                      10      10.     ********************************************************************
-
                                      12      12.     ********************************************************************
                                      13      13.     *                                                                  *
                                      14      14.     *  FILMAINT is the driver program for running ORVYL file system    *
                                      15      15.     *  maintenance.  It will attach the necessary utilities to dump    *
                                      16      16.     *  the file system catalog, verify the IXR record structure, dump  *
                                      17      17.     *  the IXR records, and dump the actual file system.               *
                                      18      18.     *                                                                  *
                                      19      19.     ********************************************************************
                                      20      20.     *                                                                  *
                                      21      21.     *  Exec field parameters:                                          *
                                      22      22.     *                                                                  *
                                      23      23.     *        FSNAME     ORVYL file system name                         *
                                      24      24.     *        ORVNAME    Name of ORVYL to communicate with              *
                                      25      25.     *        DUMP       Perform full file dump                         *
                                      26      26.     *        VERIFY     Perform file system verify                     *
                                      27      27.     *        INCTAPE    Perform incremental dump to tape               *
                                      28      28.     *        INCDISK    Perform incremental dump to disk               *
                                      29      29.     *                                                                  *
                                      30      30.     *                                                                  *
                                      31      31.     ********************************************************************
                                      32      32.     *                                                                  *
                                      33      33.     *  Return codes:                                                   *
                                      34      34.     *                                                                  *
                                      35      35.     *              0  -  File maintenance completed successfully       *
                                      36      36.     *              4  -  Completed successfully, warnings issued       *
                                      37      37.     *              8  -  Completed successfully, error messages issued *
                                      38      38.     *             12  -  Maintenance terminated by operator            *
                                      39      39.     *             16  -  File system maintenance has failed            *
                                      40      40.     *             20  -  Internal logic error                          *
                                      41      41.     *                                                                  *
                                      42      42.     *                                                                  *
                                      43      43.     ********************************************************************
1VMNT     ORVYL File Maintenance Driver                                                                                     Page    4
0Loc    Object Code    Addr1 Addr2  Stmt Lv Lineno    Source Statement                    (Asmedit 3.3)  HLASM R4.0  2004/03/22 09.48
+___    ______ ____    _____ _____  ____ __ ______    ______ _________
0                                     45      45.     ¿þþþþþþþþþþþþþþþþþþþþþþþþþþþþþþþþþþþþþþþþþþþþþþþþþþþþþþþþþþþþþþþþþþþþþÜ
                                      46      46.     Ÿ                                                                     Ÿ
                                      47      47.     Ÿ  Define operating environment and global EQUates                    Ÿ
                                      48      48.     Ÿ                                                                     Ÿ
                                                      ¾þþþþþþþþþþþþþþþþþþþþþþþþþþþþþþþþþþþþþþþþþþþþþþþþþþþþþþþþþþþþþþþþþþþþþ»
-                                     50      50.              HIBAL ,
                                    1031      51.              REGS  FSR,,,,,,,BR,WAR,,,,(LSR,ATTR),SPR,RAR
                                    1128      52.              SPLEVEL SET=4             Okay -- so we're behind
-                                   1132      54.     VMNT     AMODE 24                  Set 24-bit addressing mode
                                    1133      55.     VMNT     RMODE 24                  Below 16-Meg line residency
 000000                00000 06F60  1134      56.     VMNT     CSECT ,                   Define main control section
-                                   1139      58.              ¿þþþþþþþþþþþþþþþþþþþþþþþþþþþþþþþþÜ
                                    1140      59.              Ÿ  Define FILMAINT return codes  Ÿ
                                    1141      60.              ¾þþþþþþþþþþþþþþþþþþþþþþþþþþþþþþþþ»
0                                   1143      62.     RET_SUC  EQU   0,4,C'A'            File system maintenance successful
                                    1144      63.     RET_WRN  EQU   4                   Successful, warnings issued
                                    1145      64.     RET_ERR  EQU   8                   Successful, errors present
                                    1146      65.     RET_TRM  EQU   12                  Maintenance terminated by operator
                                    1147      66.     RET_FAIL EQU   16                  File maintenance has failed
                                    1148      67.     RET_INT  EQU   20                  Internal logic error
                                    1149      68.     RET_MEM  EQU   24                  Insufficient memory to continue
-
                                    1151      70.              ¿þþþþþþþþþþþþþþþþþþþþþþþþþþþÜ
                                    1152      71.              Ÿ  Global constant equates  Ÿ
                                    1153      72.              ¾þþþþþþþþþþþþþþþþþþþþþþþþþþþ»
                                    1154      73.     STCKLEN  EQU   32*4096             Length of save stack
                                    1155      73.01   T179VER# EQU   97,4,C'A'           Define type 179 version level
                                    1156      73.02   T179SMF  EQU   179                 SMF record type
                                    1157      73.12   T179SUBT EQU   8                   SMF record 179 subtype #008
1VMNT     ORVYL File Maintenance Driver                                                                                     Page    5
0Loc    Object Code    Addr1 Addr2  Stmt Lv Lineno    Source Statement           (Hibal 5, Asmedit 3.3)  HLASM R4.0  2004/03/22 09.48
+___    ______ ____    _____ _____  ____ __ ______    ______ _________
0                                   1159      75.     ¿þþþþþþþþþþþþþþþþþþþþþþþþþþþþþþþþþþþþþþþþþþþþþþþþþþþþþþþþþþþþþþþþþþþþþÜ
                                    1160      76.     Ÿ                                                                     Ÿ
                                    1161      77.     Ÿ  Define system control block record layouts                         Ÿ
                                    1162      78.     Ÿ                                                                     Ÿ
                                                      ¾þþþþþþþþþþþþþþþþþþþþþþþþþþþþþþþþþþþþþþþþþþþþþþþþþþþþþþþþþþþþþþþþþþþþþ»
-                                   1164      80.              PRINT nogen               Suppress macro expansions
                                    1166      81.              IEFZB4D0 ,                SVC99 dynamic allocation
                                    1563      82.              IEFZB4D2 ,                SVC99 dynamic allocation
 DROP   PSA,R0                      2006      83.              IHAPSA ,                  Map prefixed storage area
 000000 D7C3C3C1                    3323      84.              IHAPCCA ,                 Map physical conf comm area
                                    3581      85.              IEESMCA ,                 SMF control table
                                    4110      86.              IEZJSCB ,                 Job Step Control Block
                                    4541      87.              IHASDWA ,                 STAE dump work area format
                                    6529      88.              IHADSAB ,                 Data set association block
                                    6818      89.              IKJTCB ,                  Task Control Block
                                    7731      90.              DCBD  DSORG=PS            Map format of Data Control Blocks
                                    8563      91.              IEFUCBOB ,                I/O Unit Control Block
                                   10218      92.              CVT DSECT=YES             Communications Vector Table
 000000                00000 00040 11548      93.     TIOT     DSECT ,                   Define dummy section name
                                   11549      94.              IEFTIOT1 ,                Task Input/Output Table
 000000                00000 0035F 11782      95.     SCVT     DSECT  ,                  Define dummy section name
 000000 E2C3C9D7                   11783      96.              SCIPCVT ,                 Stanford SCIP CVT
 000000                00000 00100 11852      97.     CSCB     DSECT ,                   Define dummy section name
                                   11853      98.              IEECHAIN ,                Map out the CSCB chain format
 SEGCBCOD.SEGCBSEG 01 EQ           12308      99.     SEGCB    RECORD 'SEGCB'            Define segment control block fields
 SEGCBCOD.SEGCBWR  02 EQ
 SEGCBCOD.SEGCBCLR 03 EQ
 SEGCBCOD.SEGCBSPP 04 EQ
 SEGCBCOD.SEGCBOVF 05 EQ
 SEGCBCOD.SEGCBCR  06 EQ
 SEGCBCOD.SEGCBMAR 07 EQ
                                   12413     100.     VMNT     CSECT ,                   Continue VMNT control section
                                   12415     101.              PRINT gen                 Enable macro expansion
1VMNT     IHAPSAE  - PSA Extension (ESAME)                                                                                  Page    6
0Loc    Object Code    Addr1 Addr2  Stmt Lv Lineno    Source Statement           (Hibal 5, Asmedit 3.3)  HLASM R4.0  2004/03/22 09.48
+___    ______ ____    _____ _____  ____ __ ______    ______ _________
0                                  12418     103.     ¿þþþþþþþþþþþþþþþþþþþþþþþþþþþþþþþþþþþþþþþþþþþþþþþþþþþþþþþþþþþþþþþþþþþþþÜ
                                   12419     104.     Ÿ                                                                     Ÿ
                                   12420     105.     Ÿ  Define record layouts for control blocks                           Ÿ
                                   12421     106.     Ÿ                                                                     Ÿ
                                                      ¾þþþþþþþþþþþþþþþþþþþþþþþþþþþþþþþþþþþþþþþþþþþþþþþþþþþþþþþþþþþþþþþþþþþþþ»
-000000                00000 00002 12423     108.     CODES    RECORD BEGIN
 000000                            12431  1  109.     CODE       DS    H
 000002                00002 00002 12432     110.              END   ,
                                                               ¿þþþþþþþþþþþþþþþþþþþþþþþþþþþþþþþþþþþþþþþþþþþþþþþþþþþþþþþþþþÜ
-                                  12442     111.01            Ÿ  Declare global SET symbol for the SEGCB default string  Ÿ
                                                               ¾þþþþþþþþþþþþþþþþþþþþþþþþþþþþþþþþþþþþþþþþþþþþþþþþþþþþþþþþþþ»
                                   12443     111.02            GBLC  &$SEGCB
                                   12444     111.1             MACRO
                                   12445     111.2    &L       SENDWTO &ROUT,&DESC,&SEGCB
                                   12446     111.3             SEGLD &SEGCB
                                   12447     111.31            AIF   (T'&ROUT EQ 'O').SETRTE
                                   12448     111.4             LA    R1,&ROUT            Load WTO routing code
                                   12449     111.41            AGO   .CHKDSC
                                   12450     111.42   .SETRTE  ANOP  ,
                                   12451     111.43            LA    R1,2                Master console information
                                   12452     111.44   .CHKDSC  ANOP  ,
                                   12453     111.45            AIF   (T'&DESC EQ 'O').SETDSC
                                   12454     111.5             LA    R0,&DESC            Load wto descriptor code
                                   12455     111.51            AGO   .SNDWTO
                                   12456     111.52   .SETDSC  ANOP  ,
                                   12457     111.53            LA    R0,6                Job status descriptor code
                                   12458     111.54   .SNDWTO  ANOP  ,
                                   12459     111.6             ACALL SENDWTO             Write seg buffer to console
                                   12460     111.7             MEND  ,
-                                  12462     112.              MACRO
                                   12463     113.              ABND  &CODE,&MSG
                                   12464     114.     A&CODE   STM   R0,R15,REGSAVE          Save error registers
                                   12465     115.              SYSQS R2,R3,&MSG              Length and address of error
                                   12466     116.              LA    R4,&CODE                Set abend code
                                   12467     117.              B     ABORT                   Kill-us
                                   12468     118.              MEND  ,
1VMNT     IHAPSAE  - PSA Extension (ESAME)                                                                                  Page    7
0Loc    Object Code    Addr1 Addr2  Stmt Lv Lineno    Source Statement           (Hibal 5, Asmedit 3.3)  HLASM R4.0  2004/03/22 09.48
+___    ______ ____    _____ _____  ____ __ ______    ______ _________
0                                  12470     118.2             Copy  VDMPHIST            Include history file definitions
                                   12471=            =¿þþþþþþþþþþþþþþþþþþþþþþþþþþþþþþþþþþþþþþþþþþþþþþþþþþþþþþþþþþþþþþþþþþþþþÜ
                                   12472=            =Ÿ                                                                     Ÿ
                                   12473=            =Ÿ  Define history file record formats                                 Ÿ
                                   12474=            =Ÿ                                                                     Ÿ
                                   12475=            =Ÿ        The history file is a simple BDAM file which is used to      Ÿ
                                   12476=            =Ÿ        record the file maintenance history.  Records are keep for   Ÿ
                                   12477=            =Ÿ        each full file system dump, each incremental, and the        Ÿ
                                   12478=            =Ÿ        status of the Established/Split state of the EMC business    Ÿ
                                   12479=            =Ÿ        continuance volumes.                                         Ÿ
                                   12480=            =Ÿ                                                                     Ÿ
                                                      ¾þþþþþþþþþþþþþþþþþþþþþþþþþþþþþþþþþþþþþþþþþþþþþþþþþþþþþþþþþþþþþþþþþþþþþ»
0                                                              ¿þþþþþþþþþþþþþþþþþþþþþþþþþþþþþþþþþþþþÜ
-                                  12482=            =         Ÿ  History base block record layout  Ÿ
                                                               ¾þþþþþþþþþþþþþþþþþþþþþþþþþþþþþþþþþþþþ»
                                   12483             =HIS#LEN  EQU   128                 Set length of history record
 000000                00000 00080 12484             =HISBREC  DSECT ,                   Define history base record
 000000 00000000                   12485             =HISBBLK  DC    A(0)                Block number address
 000004 00000000                   12486             =HISBLKS  DC    A(0)                Number of blocks in history file
 000008 00000000                   12487             =HISBLKSZ DC    A(0)                Blocksize in file (multiple of 64)
 00000C 00000000                   12488             =HISBRECS DC    A(0)                Total records in file
 000010 00000000                   12489             =HISBFREE DC    A(0)                Next available record pointer
 000014 00000000                   12490             =HISBDMPS DC    A(0)                Pointer to most recent dump
 000018 00000000                   12491             =HISBINCS DC    A(0)                Pointer to most recent incremental
 00001C 00000000                   12492             =HISBDGEN DC    A(0)                Dump generations to maintain
 000020 00000000                   12493             =HISBDGC  DC    A(0)                Current count of generations
 000024 00000000                   12494             =HISBIGEN DC    A(0)                Incremental gens to maintain
 000028 00000000                   12495             =HISBIGC  DC    A(0)                Current incremental generations
 00002C C3C1D4D7E4E24040           12496             =HISBNAME DC    CL8'CAMPUS'         File system name
                                                               ¿þþþþþþþþþþþþþþþþþþþþþþþþþþþþþþþþþþþþþþþþþþþþþþþþþþþþþþþþþÜ
                                   12497=            =         Ÿ  Expansion growth may start here to avoid invalidating  Ÿ
                                   12498=            =         Ÿ  existing History file data.                            Ÿ
                                                               ¾þþþþþþþþþþþþþþþþþþþþþþþþþþþþþþþþþþþþþþþþþþþþþþþþþþþþþþþþþ»
 000034 00000000                   12499             =HISBSPLT DC    A(0)                Pointer to most recent split
 000038 00000000                   12500             =HISBSPCN DC    A(0)                Current count of split generations
 00003C 00000000                   12501             =HISBSPMX DC    A(0)                Maximum retained count of splits
                                   12502             =HISBLEN  EQU   128-(*-HISBREC)     Define length of block
 000040 0000000000000000           12503             =         DC    XL(HISBLEN)'00'     End of record
                                                               ¿þþþþþþþþþþþþþþþþþþþþþþþþþþþþþþþþþþÜ
-                                  12505=            =         Ÿ  Format of the Full Dump Record  Ÿ
                                                               ¾þþþþþþþþþþþþþþþþþþþþþþþþþþþþþþþþþþ»
 000000                00000 00080 12506             =HISDREC  DSECT ,                   Define dump record format
 000000 00000000                   12507             =HISDBLK  DC    A(0)                Block number address
 000004 00000000                   12508             =HISDNXT  DC    A(0)                Record number chain
 000008 00                         12509             =HISDFLG1 FLAG  ,                   Define record flags
 000009 000000                     12513             =         DC    AL3(0)              Reserved
 00000C 00000000                   12514             =HISDCLCK DC    A(0)                Record time-stamp, (tod format)
 000010 00000000                   12515             =HISDRC   DC    A(0)                Return code from function
 000014 00000000                   12516             =HISDSEG  DC    A(0)                Pointer to segment records
 000018 0000000000000000           12517             =         DC    (128-(*-HISDREC))X'00'  end of record
1VMNT     IHAPSAE  - PSA Extension (ESAME)                                                                                  Page    8
0Loc    Object Code    Addr1 Addr2  Stmt Lv Lineno    Source Statement           (Hibal 5, Asmedit 3.3)  HLASM R4.0  2004/03/22 09.48
+___    ______ ____    _____ _____  ____ __ ______    ______ _________
0                                                              ¿þþþþþþþþþþþþþþþþþþþþþþþþþþþþþþþþþþþþþþþþþÜ
-                                  12519=            =         Ÿ  Format of the BCV split status record  Ÿ
                                                               ¾þþþþþþþþþþþþþþþþþþþþþþþþþþþþþþþþþþþþþþþþþ»
 000000                00000 00080 12520             =HISSPREC DSECT ,                   Define dump record format
 000000 00000000                   12521             =HISSPBLK DC    A(0)                Block number address
 000004 00000000                   12522             =HISSPNXT DC    A(0)                Record number chain
 000008 00                         12523             =HISSPFLG FLAG  ,                   Define record flags
 HISSPFLG.HISSP_es 80 ONES         12527             =         FLAG  HISSP_est             - Volumes are established
 HISSPFLG.HISSP_sp 40 ONES         12532             =         FLAG  HISSP_split           - Volumes are split
 000009 000000                     12537             =         DC    AL3(0)              Reserved
 00000C 00000000                   12538             =HISSPCLK DC    A(0)                Record time-stamp, (tod format)
 000010 00000000                   12539             =HISSPRC  DC    A(0)                Return code from function
 000014 0000000000000000           12540             =         DC    (128-(*-HISSPREC))X'00' Fill to end of record
                                                               ¿þþþþþþþþþþþþþþþþþþþþþþþþþþþþþþþþþþþþþÜ
-                                  12542=            =         Ÿ  Format of the dump Segment record  Ÿ
                                                               ¾þþþþþþþþþþþþþþþþþþþþþþþþþþþþþþþþþþþþþ»
 000000                00000 00080 12543             =HISSREC  DSECT ,                   Define segment record format
 000000 00000000                   12544             =HISSBLK  DC    A(0)                Block number address
 000004 00000000                   12545             =HISSNXT  DC    A(0)                Record number chain
 000008 00                         12546             =HISSFLG1 FLAG  ,                   Define record flags
 000009 000000                     12550             =         DC    AL3(0)              Reserved
 00000C 00000000                   12551             =HISSTIME DC    A(0)                Record time-stamp (tod format)
 000010 4040404040404040           12552             =HISSDSN  DC    CL44' '             Data set name
 00003C 00000000                   12553             =HISSRC   DC    A(0)                Return code for segment
 000040 00000000                   12554             =HISSVOLS DC    A(0)                Pointer to volume records
 000044 0000000000000000           12555             =         DC    (128-(*-HISSREC))X'00'  end of record
-000000                00000 00080 12557             =HISIREC  DSECT ,                   Define incremental record format
 000000 00000000                   12558             =HISIBLK  DC    A(0)                Block number address
 000004 00000000                   12559             =HISINXT  DC    A(0)                Pointer to older record
 000008 00                         12560             =HISIFLG1 FLAG  ,                   Define flag field
 HISIFLG1.HISIFSCR 80 ONES         12564             =         FLAG  HISIFSCR              -  data sets scratched
 000009 000000                     12569             =         DC    AL3(0)              Reserved
 00000C 00000000                   12570             =HISICLCK DC    A(0)                Record time stamp
 000010 00000000                   12571             =HISIPOOL DC    A(0)                Pointer to pool volume records
 000014 4040404040404040           12572             =HISIDSN  DC    CL44' '             Data set name
 000040 00000000                   12573             =HISIRC   DC    A(0)                Return code from function
 000044 00000000                   12574             =HISIVOLS DC    A(0)                Pointer to volume records
 000048 0000000000000000           12575             =         DC    (128-(*-HISIREC))X'00'   end of record
-000000                00000 00080 12577             =HISPREC  DSECT ,
 000000 00000000                   12578             =HISPBLK  DC    A(0)                Block number
 000004 00000000                   12579             =HISPNXT  DC    A(0)                Pointer to the next record
 000008 00                         12580             =HISPFLG  FLAG  ,                   Flag bits
 000009 000000                     12584             =         DC    AL3(0)              Reserved
 00000C 00000000                   12585             =HISPCLCK DC    A(0)                Tod clock value
 000010 4040404040404040           12586             =HISPDSN  DC    CL44' '             Data set name
 00003C 404040404040               12587             =HISPVOL  DC    CL6' '              Volume serial
 000042 0000000000000000           12588             =         DC    (128-(*-HISPREC))X'00'  end of record
1VMNT     IHAPSAE  - PSA Extension (ESAME)                                                                                  Page    9
0Loc    Object Code    Addr1 Addr2  Stmt Lv Lineno    Source Statement           (Hibal 5, Asmedit 3.3)  HLASM R4.0  2004/03/22 09.48
+___    ______ ____    _____ _____  ____ __ ______    ______ _________
0                                                              ¿þþþþþþþþþþþþþþþþþþþþþþþþþþþþþþþþþþþþþþþþþþþþþþþþþþþÜ
-                                  12590=            =         Ÿ  This mapping is used when we are working on the  Ÿ
                                   12591=            =         Ÿ  Dump/Incremental type records for common fields  Ÿ
                                                               ¾þþþþþþþþþþþþþþþþþþþþþþþþþþþþþþþþþþþþþþþþþþþþþþþþþþþ»
 000000                00000 00080 12592             =HISXREC  DSECT ,
 000000 00000000                   12593             =HISXBLK  DC    A(0)                Block number
 000004 00000000                   12594             =HISXNXT  DC    A(0)                Chain pointer
 000008 00                         12595             =HISXFLG  FLAG  ,                   Flag bits
 HISXFLG.HISX_Spli 80 ONES         12599             =         FLAG  HISX_Split           - Time originates from SPLIT
 000009 000000                     12604             =         DC    AL3(0)              Reserved
 00000C 00000000                   12605             =HISXCLCK DC    A(0)                Tod clock value
 000010 00000000                   12606             =HISXRC   DC    A(0)                Return code from function
 000014 0000000000000000           12607             =         DC    (128-(*-HISXREC))X'00'  end of record
-000000                00000 00080 12609             =HISVREC  DSECT ,                   Define volume record format
 000000 00000000                   12610             =HISVBLK  DC    A(0)                Block number address
 000004 00000000                   12611             =HISVNXT  DC    A(0)                Pointer to next volume record
 000008 00000000                   12612             =HISVCNT  DC    A(0)                Number of volumes in this record
 00000C E5D6D3E2C5D9               12613             =HISVOLS  DC    CL6'VOLSER'         Volume serials
 000012 0000000000000000           12614             =         DC    (128-(*-HISVREC))X'00'  end of record
1VMNT     IHAPSAE  - PSA Extension (ESAME)                                                                                  Page   10
0D-Loc  Object Code    Addr1 Addr2  Stmt Lv Lineno    Source Statement           (Hibal 5, Asmedit 3.3)  HLASM R4.0  2004/03/22 09.48
+_____  ______ ____    _____ _____  ____ __ ______    ______ _________
0                                  12616     120.     ¿þþþþþþþþþþþþþþþþþþþþþþþþþþþþþþþþþþþþþþþþþþþþþþþþþþþþþþþþþþþþþþþþþþþþþÜ
                                   12617     121.     Ÿ                                                                     Ÿ
                                   12618     122.     Ÿ  Define attach record layout                                        Ÿ
                                   12619     123.     Ÿ                                                                     Ÿ
                                   12620     124.     Ÿ    The attach record maintains the control fields necessary to      Ÿ
                                   12621     125.     Ÿ    spawn an MVS subtask and to record the task's completion         Ÿ
                                   12622     126.     Ÿ    status.                                                          Ÿ
                                   12623     127.     Ÿ                                                                     Ÿ
                                                      ¾þþþþþþþþþþþþþþþþþþþþþþþþþþþþþþþþþþþþþþþþþþþþþþþþþþþþþþþþþþþþþþþþþþþþþ»
-000000                00000 0003C 12625     129.     ATTREC   RECORD BEGIN
 000000 0000000000000000           12633  1  130.     ATTPGNM    DC    D'0'                Program name
 000008 0000000000000000           12634  1  131.     ATTDDNM    DC    D'0'                DDname for retry processing
 000010 0000000000000000           12635  1  132.     ATTSTRT    DC    D'0'                Subtask starting time (STCK)
 000018 0000000000000000           12636  1  133.     ATTENDT    DC    D'0'                Subtask ending time (STCK)
0000020 00                         12638  1  135.     ATTFLGS    FLAG  ,                   Option indicators
 ATTFLGS.ATTFABND  80 ONES         12642  1  136.                FLAG  ATTFABND              - Subtask has abended
 ATTFLGS.ATTFRST   40 ONES         12647  1  137.                FLAG  ATTFRST               - Attempt restart on abend
 ATTFLGS.ATTFDRST  20 ONES         12652  1  138.                FLAG  ATTFDRST              - Perform subtask restart
 000021 00                         12657  1  139.     ATTFRS1    FLAG  ,                   Reserved flags
 000022 00                         12661  1  140.     ATTFRS2    FLAG  ,                   Reserved flags
 000023 00                         12665  1  141.     ATTFRS3    FLAG  ,                   Reserved flags
0000024                            12670  1  143.     ATTPRM     DS    F                   Parameter list address
 000028                            12671  1  144.     ATTCMP     DS    F                   TCB completion field
 00002C                            12672  1  145.     ATTECB     DS    A                   Attach ECB
 000030                            12673  1  146.     ATTTCB     DS    A                   Subtask TCB address
 000034                            12674  1  147.     ATTRET     DS    F                   User return code
 000038                            12675  1  148.     ATTABND    DS    H                   Abend code
 00003A                            12676  1  149.     ATTUSR     DS    H                   User code
                                   12677  1  150.     ATTCLR     EQU   ATTCMP,*-ATTCMP,C'X'    Clear length for retry
 00003C                0003C 0003C 12678     151.              END   ,
1VMNT     IHAPSAE  - PSA Extension (ESAME)                                                                                  Page   11
0D-Loc  Object Code    Addr1 Addr2  Stmt Lv Lineno    Source Statement           (Hibal 5, Asmedit 3.3)  HLASM R4.0  2004/03/22 09.48
+_____  ______ ____    _____ _____  ____ __ ______    ______ _________
0                                  12688     153.     ¿þþþþþþþþþþþþþþþþþþþþþþþþþþþþþþþþþþþþþþþþþþþþþþþþþþþþþþþþþþþþþþþþþþþþþÜ
                                   12689     154.     Ÿ                                                                     Ÿ
                                   12690     155.     Ÿ  Define STAE/STAI work area format                                  Ÿ
                                   12691     156.     Ÿ                                                                     Ÿ
                                                      ¾þþþþþþþþþþþþþþþþþþþþþþþþþþþþþþþþþþþþþþþþþþþþþþþþþþþþþþþþþþþþþþþþþþþþþ»
0000000                00000 00068 12693     158.     STWRK    RECORD BEGIN
0                                  12702  1  160.     *
                                   12703  1  161.     *              STAE/STAI ENTRY CODES
                                   12704  1  162.     *
                                   12705  1  163.     STACTIO    EQU   0                       Active i/o, restorable
                                   12706  1  164.     STACTNR    EQU   4                       Active i/o, not restorable
                                   12707  1  165.     STNOIO     EQU   8                       No active I/O
                                   12708  1  166.     STNOCORE   EQU   12                      Insufficient core
0                                  12710  1  168.     *
                                   12711  1  169.     *              STAE/STAI RETURN CODES
                                   12712  1  170.     *
                                   12713  1  171.     STRABND    EQU   0                       Continue abnormal termination
                                   12714  1  172.     STRRET4    EQU   4                       Schedule retry, purge rb chain
                                   12715  1  173.     STRNPRG    EQU   8                       Schedule retry, no rb purge
                                   12716  1  174.     STRRET12   EQU   12                      Schedule retry, purge rb chain
                                   12717  1  175.     STRNACT    EQU   16                      No further stae/stai processing
0000000                            12719  1  177.     STEXPRM    DS    A                       Stae/stai exit parameter
 000004                            12720  1  178.     STABND     DS    A                       TCB abend code
 000008                            12721  1  179.     STPSW      DS    D                       Psw at abend
 000010                            12722  1  180.     STLPSW     DS    D                       Last p/p psw
 000018                            12723  1  181.     STREGS     DS    16F                     Registers at abend
 000058                            12724  1  182.     STNAM      DS    CL8                     Program name
 000060                            12725  1  183.     STIOBQ     DS    A                       Iob restart chain
 000064                00064 00058 12726  1  184.                ORG   STNAM                   Overlay for supervisor tasks
 000058                            12727  1  185.     STRBADDR   DS    A                       Supervisor task only
 00005C                            12728  1  186.                DS    3A
 000068                00068 00068 12729  1  187.                ORG   ,
 000068                00068 00068 12730     188.              END   ,
1VMNT     IHAPSAE  - PSA Extension (ESAME)                                                                                  Page   12
0D-Loc  Object Code    Addr1 Addr2  Stmt Lv Lineno    Source Statement           (Hibal 5, Asmedit 3.3)  HLASM R4.0  2004/03/22 09.48
+_____  ______ ____    _____ _____  ____ __ ______    ______ _________
0                                  12740     190.     ¿þþþþþþþþþþþþþþþþþþþþþþþþþþþþþþþþþþþþþþþþþþþþþþþþþþþþþþþþþþþþþþþþþþþþþÜ
                                   12741     191.     Ÿ                                                                     Ÿ
                                   12742     192.     Ÿ  Define mapping for File data set name volume buildup               Ÿ
                                   12743     193.     Ÿ  locations.  This information will be used to insure that           Ÿ
                                   12744     194.     Ÿ  the appropriate EMC BCV volumes are available and properly         Ÿ
                                   12745     195.     Ÿ  Established, Split, and Re-established.                            Ÿ
                                   12746     196.     Ÿ                                                                     Ÿ
                                                      ¾þþþþþþþþþþþþþþþþþþþþþþþþþþþþþþþþþþþþþþþþþþþþþþþþþþþþþþþþþþþþþþþþþþþþþ»
-000000                00000 00034 12748     198.     BCVLIST  RECORD BEGIN
 000000 C2C3E540                   12756  1  199.     BCVID      DC    CL4'BCV '           Define dump eye-catcher
 000004 00000000                   12757  1  200.     BCVNXT     DC    A(0)                Pointer for next entry on chain
 000008 00000000                   12758  1  201.     BCVBCK     DC    A(0)                Pointer to previous entry on chain
 00000C 00000000                   12759  1  202.     BCV_STD    DC    A(0)                Standard UCB device number
 000010 00000000                   12760  1  203.     BCV_UCB    DC    A(0)                EMC BCV UCB device number
 000014 00000000                   12761  1  204.     BCV_STDE   DC    A(0)                EMC's device number
 000018 00000000                   12762  1  205.     BCV_UCBE   DC    A(0)                EMC's device number
 00001C 00000000                   12763  1  205.01   BCV_STDA   DC    A(0)                Standard UCB address
 000020 00000000                   12764  1  205.02   BCV_UCBA   DC    A(0)                EMC BCV UCB address
 000024 00                         12765  1  205.1    BCV_Flgs   FLAG  ,                   Define BCV volume status
 BCV_Flgs.BFL_Unkn 80 ONES         12769  1  205.2               FLAG  BFL_Unknown           -  Unknown device status
 BCV_Flgs.BFL_Vrf  40 ONES         12774  1  205.21              FLAG  BFL_Vrf               -  Pairing has been verified
 BCV_Flgs.BFL_Est  20 ONES         12779  1  205.3               FLAG  BFL_Est               -  This pair is ESTABLISHED
 BCV_Flgs.BFL_Avai 10 ONES         12784  1  205.4               FLAG  BFL_Avail             -  This pair is AVAILABLE
 000025 000000                     12789  1  205.5               DC    AL3(0)              Just for neatness
 000028 E5D6D3E2C5D9               12790  1  206.     BCV_VOL    DC    CL6'VOLSER'         Volser of standard volume
 00002E C2C3E5E5D6D3               12791  1  207.     BCV_BSER   DC    CL6'BCVVOL'         Volser of paired BCV volume
 000034                00034 00034 12792     208.              END   ,
-000000                00000 0004B 12802     210.     FILELIST RECORD BEGIN              File system data set name entry
 000000 C6C9D3C5                   12810  1  211.     FILEID     DC    CL4'FILE'           Define dump eye-catcher
 000004 00000000                   12811  1  212.     FILENXT    DC    A(0)                Pointer for next entry on chain
 000008 00000000                   12812  1  213.     FILEBCK    DC    A(0)                Pointer to previous entry on chain
 00000C 00000000                   12813  1  214.     FILE_UCB   DC    A(0)                UCB address of main volume
 000010 00000000                   12814  1  215.     FILE_BCV   DC    A(0)                UCB address of BCV volume
 000014 00000000                   12815  1  216.     FILE_DVT   DC    A(0)                Cataloged returned devtype
 000018 00                         12816  1  217.     FILE_FL    FLAG  ,                   File data set name flags
 000019 4040404040404040           12820  1  218.     FILENAME   DC    CL44' '             Data set name
 000045 404040404040               12821  1  219.     FILEVOL    DC    CL6' '              Data set volume serial placement
 00004B                0004B 0004B 12822     220.              END   ,
-000000                00000 00020 12832     220.1    STIM_WRK RECORD BEGIN              Define stack work area for welcome
 000000 0000000000000000           12840  1  220.2    STIM_TIM   DC    2A(0)               Return area for time of day
 000008 0000000C                   12841  1  220.3    STIM_DAT   DC    PL4'0'              Return area for date
 00000C 00000000                   12842  1  220.4    STIM_RSV   DC    A(0)                Return area for date (reserved)
 000010 0000000000000000           12843  1  220.41   STIM_TD1   DC    A(0,0)              STCK first TOD value
 000018 0000000000000000           12844  1  220.42   STIM_TD2   DC    A(0,0)              STCK second TOD value
 000020                00020 00020 12845     220.5             END   ,
1VMNT     IHAPSAE  - PSA Extension (ESAME)                                                                                  Page   13
0D-Loc  Object Code    Addr1 Addr2  Stmt Lv Lineno    Source Statement           (Hibal 5, Asmedit 3.3)  HLASM R4.0  2004/03/22 09.48
+_____  ______ ____    _____ _____  ____ __ ______    ______ _________
0                                  12855     222.              Copy  VSIOPRM             Include VSIO parameter list
                                   12856=            =¿þþþþþþþþþþþþþþþþþþþþþþþþþþþþþþþþþþþþþþþþþþþþþþþþþþþþþþþþþþþþþþþþþþþþþÜ
                                   12857=            =Ÿ                                                                     Ÿ
                                   12858=            =Ÿ  VSIO global call parameter list                                    Ÿ
                                   12859=            =Ÿ                                                                     Ÿ
                                                      ¾þþþþþþþþþþþþþþþþþþþþþþþþþþþþþþþþþþþþþþþþþþþþþþþþþþþþþþþþþþþþþþþþþþþþþ»
-000000                00000 00028 12861             =VSIOPRM  RECORD BEGIN
 000000 E5E2C9D6                   12869  1          =VSIOID     DC    CL4'VSIO'           Define eye-catcher for parameter
 000004 00000000                   12870  1          =VSIOUPTR   DC    A(0)                Address of dynamic work area
 000008 00000000                   12871  1          =VSIOFUNC   DC    A(0)                VSIO function vector
                                   12872  1          =VSIO_INI   EQU   0,4,C'A'              - Initialize VSIO (Not required)
                                   12873  1          =VSIO_RDC   EQU   4,4,C'A'              - Return device characteristics
                                   12874  1          =VSIO_TRM   EQU   12,4,C'A'             - Release resources
 00000C 00000000                   12875  1          =VSIODEVA   DC    A(0)                Subchannel device number
 000010 00000000                   12876  1          =VSIOUCBA   DC    A(0)                Address of Unit Control Block
 000014 00000000                   12877  1          =VSIOBUFL   DC    A(0)                Length of Data return buffer
 000018 00000000                   12878  1          =VSIOBUFR   DC    A(0)                Address of Data return area
 00001C 00                         12879  1          =VSIO_COD   DC    XL1'00'             I/O Completion post code
 00001D 000000                     12880  1          =           DC    XL3'00'             Reserved
 000020 0000000000000000           12881  1          =VSIO_CSW   DC    XL8'00'             Channel Status Word
 000028                00028 00028 12882             =         END   ,
-000000                00000 00040 12892     224.     GDG      RECORD BEGIN
 000000 00000000                   12900  1  225.     GDGFWD     DC    A(0)                Define GDG forward chain address
 000004 00000000                   12901  1  226.     GDGGEN     DC    A(0)                Define current GDG number
 000008 00000000                   12902  1  227.     GDGPREV    DC    A(0)                Define previous GDG number
 00000C 4040404040404040           12903  1  228.     GDGDD      DC    CL8' '              Define GDG ddname
 000014 4040404040404040           12904  1  229.     GDGNAME    DC    CL44' '             Define qualified GDG name
 000040                00040 00040 12905     230.              END   ,
0000000                00000 0000C 12915     232.     IDCPARM  RECORD BEGIN
 000000 00000000                   12923  1  233.     IDCUDATA   DC    A(0)                Pointer to user data
 000004 00000000                   12924  1  234.     IDCIOPTR   DC    A(0)                Pointer to I/O flag field
 000008 00000000                   12925  1  235.     IDCINPTR   DC    A(0)                Pointer to I/O information field
 00000C                0000C 0000C 12926     236.              END   ,
0000000                00000 00004 12936     238.     IDCFLAGS RECORD BEGIN              Define IDCAMS I/O flags
 000000 00                         12944  1  239.     IDCFLG1    DC    X'00'               First flag byte
                                   12945  1  240.     IDCF1OPN   EQU   X'00',1,1             This is an OPEN call
                                   12946  1  241.     IDCF1CLS   EQU   X'04',1,1             This is a CLOSE call
                                   12947  1  242.     IDCF1GET   EQU   X'08',1,1             This is a "GET" call
                                   12948  1  243.     IDCF1PUT   EQU   X'0C',1,1             This is a "PUT" call
 000001 00                         12949  1  244.     IDCFLG2    FLAG  ,                   Second flag byte
 IDCFLG2.IDCF2INP  80 ONES         12953  1  245.                FLAG  IDCF2INP              Open for "input"
 IDCFLG2.IDCF2OUT  40 ONES         12958  1  246.                FLAG  IDCF2OUT              Open for "output"
 IDCFLG2.IDCF2DD   20 ONES         12963  1  247.                FLAG  IDCF2DD               i/o info contains a ddname
 IDCFLG2.IDCF2DS   10 ONES         12968  1  248.                FLAG  IDCF2DS               i/o info contains a data set
 000002 0000                       12973  1  249.     IDCMSG     DC    AL2(0)              IDCAMS coded message value
 000004                00004 00004 12974     250.              END   ,
1VMNT     IHAPSAE  - PSA Extension (ESAME)                                                                                  Page   14
0D-Loc  Object Code    Addr1 Addr2  Stmt Lv Lineno    Source Statement           (Hibal 5, Asmedit 3.3)  HLASM R4.0  2004/03/22 09.48
+_____  ______ ____    _____ _____  ____ __ ______    ______ _________
0                                  12984     250.02   ¿þþþþþþþþþþþþþþþþþþþþþþþþþþþþþþþþþþþþþþþþþþþþþþþþþþþþþþþþþþþþþþþþþþþþþÜ
                                   12985     250.03   Ÿ                                                                     Ÿ
                                   12986     250.04   Ÿ  Define format for the SMF Type 179 records to log the              Ÿ
                                   12987     250.05   Ÿ  completion status and file system downtimes.                       Ÿ
                                   12988     250.06   Ÿ                                                                     Ÿ
                                                      ¾þþþþþþþþþþþþþþþþþþþþþþþþþþþþþþþþþþþþþþþþþþþþþþþþþþþþþþþþþþþþþþþþþþþþþ»
-000000                00000 00018 12990     250.08   SMFDATA  RECORD BEGIN              Define SMF record format
 000000 0000                       12998  1  250.09   XSMFLEN    DC    AL2(0)              Total smf record length
 000002 0000                       12999  1  250.1               DC    AL2(0)              **reserved**
 000004 00                         13000  1  250.11   XSMFFLG    DC    AL1(0)              Smf flag byte
 000005 B3                         13001  1  250.12   XSMFRTY    DC    AL1(T179SMF)        Smf record type
 000006 00000000                   13002  1  250.13   XSMFTME    DC    AL4(0)              Time (.01 seconds)
 00000A 00000000                   13003  1  250.14   XSMFDTE    DC    AL4(0)              Date (00yydddf)
 00000E E2E8E2C1                   13004  1  250.15   XSMFSID    DC    CL4'SYSA'           Smf system id
 000012 00000061                   13005  1  250.16   XSMFVER    DC    AL4(T179VER#)       Type 179 version number
 000016 0001                       13006  1  250.17   XSMF#SC    DC    AL2(1)              Record section counter
                                   13007  1  250.18   XSMF#END   EQU   *                   Define start of subtypes
                                   13008  1  250.19   SMFHDRLN   EQU   *-SMFDATA
 000018                00018 00018 13009     250.2             END   ,
-
                                   13019     250.22   ¿þþþþþþþþþþþþþþþþþþþþþþþþþþþþþþþþþþþþþþþþþþþþþþþþþþþþþþþþþþþþþþþþþþþþþÜ
                                   13020     250.23   Ÿ                                                                     Ÿ
                                   13021     250.24   Ÿ   Subtype 8: General interactive counter cells                      Ÿ
                                   13022     250.25   Ÿ                                                                     Ÿ
                                                      ¾þþþþþþþþþþþþþþþþþþþþþþþþþþþþþþþþþþþþþþþþþþþþþþþþþþþþþþþþþþþþþþþþþþþþþ»
-000000                00000 0004C 13024     250.83   STYP#008 RECORD BEGIN              Define subtype #001
 000000 0000004C                   13032  1  250.84   S#8LEN     DC    A(S#8LENF)          Length of this subtype
 000004 00000008                   13033  1  250.85   S#8TYP     DC    A(8)                Define this subtype format
 000008 D699A8A59340D481           13034  1  250.86   S#8DESC    DC    CL16'Oryvl Maintenance'
 000018 00                         13035  1  250.87   S#8FLG1    FLAG  ,                   Flags
 S#8FLG1.S#8_FLtes 80 ONES         13039  1  250.88              FLAG  S#8_FLtest            -  Ignore, test record
 000019 00                         13044  1  250.89   S#8FLG2    FLAG  ,                   Flags
 00001A 00                         13048  1  250.9    S#8FLG3    FLAG  ,                   Flags
 00001B 00                         13052  1  250.91              DC    XL1'00'             **reserved**
 00001C C785958599819340           13053  1  250.92   S#8FSNAM   DC    CL8'General'        Orvyl file system name
 000024 000000000000000C           13054  1  250.93   S#8MNTST   DC    AL4(0),PL4'0'       Maintenance start date/time
 00002C 000000000000000C           13055  1  250.94   S#8MNTEN   DC    AL4(0),PL4'0'       Maintenance end date/time
 000034 00000000                   13056  1  250.95   S#8MNTEL   DC    A(0)                Maintenance elsapsed time
 000038 00000000                   13057  1  250.96   S#8MNTRC   DC    A(0)                Global return code
 00003C 0000000000000000           13058  1  250.97              DC    4A(0)               **reserved**
                                   13059  1  250.98   S#8LENF    EQU   *-STYP#008          Define length of subtype 1
 00004C                0004C 0004C 13060     250.99            END   ,
1VMNT     IHAPSAE  - PSA Extension (ESAME)                                                                                  Page   15
0D-Loc  Object Code    Addr1 Addr2  Stmt Lv Lineno    Source Statement           (Hibal 5, Asmedit 3.3)  HLASM R4.0  2004/03/22 09.48
+_____  ______ ____    _____ _____  ____ __ ______    ______ _________
0                                  13070     252.     ¿þþþþþþþþþþþþþþþþþþþþþþþþþþþþþþþþþþþþþþþþþþþþþþþþþþþþþþþþþþþþþþþþþþþþþÜ
                                   13071     253.     Ÿ                                                                     Ÿ
                                   13072     254.     Ÿ  Define global static data area                                     Ÿ
                                   13073     255.     Ÿ                                                                     Ÿ
                                   13074     256.     Ÿ        Fields defined within the first 4K of this data              Ÿ
                                   13075     257.     Ÿ        area are guaranteed to be addressable from all               Ÿ
                                   13076     258.     Ÿ        local routines within the VMNT utility.                      Ÿ
                                   13077     259.     Ÿ                                                                     Ÿ
                                                      ¾þþþþþþþþþþþþþþþþþþþþþþþþþþþþþþþþþþþþþþþþþþþþþþþþþþþþþþþþþþþþþþþþþþþþþ»
-000000                00000 06F60 13079     261.     VMNT     CSECT ,                   Continue main control section
 000766                00766 06F60 13081     262.              DATA  BEGIN               Define start of global data
 000766 0000                              1
 000768 00000000                   13086  1  263.     STACK      DC    A(0)                Address of save stack
 00076C 00000000                   13087  1  264.     VSSAVE     DC    A(0)                Address of VS save area
 000770 00000000                   13088  1  265.     EXECPTR    DC    A(0)                Pointer to exec field parm
 000774 00000000                   13089  1  265.1    SMFBUFA    DC    A(0)                Address of SMF T179 buffer
 000778                            13090  1  266.     XITSTCK    DS    20D                 Exit routine save stack
 000818                            13091  1  267.     CPUID      DS    D                   CPU identification
 000820 0000000000000000           13092  1  268.     CLWTEMP    DC    4D'0.0'             Segdc work-area
 000840 40404040                   13093  1  269.     MACHINE    DC    CL4' '              Smf system id
 000844 00000000                   13094  1  270.     DOMWAIT    DC    A(0)                Msg-id for wait wto
 000848 00000000                   13095  1  271.     DOMSTAT    DC    A(0)                MSG-ID for stat-line
 00084C 00000000                   13096  1  272.     DOMVFRY    DC    A(0)
 000850 00000000                   13097  1  273.     DOMDMP     DC    A(0)
 000854 0000000C                   13098  1  274.     MODESUP    MODESET MODE=SUP,MF=L     Enter supervisor state
 000858 00000004                   13102  1  275.     MODEPROB   MODESET MODE=PROB,MF=L    Reset to problem state
 00085C 00000030                   13106  1  276.     KEYZERO    MODESET KEY=ZERO,MF=L     Enter key zero storage protection
 000860 00000020                   13110  1  277.     KEYNZERO   MODESET KEY=NZERO,MF=L    Reset to application key
 000864 00000000                   13114  1  278.     RETCDE     DC    A(0)                Return code for driver
 000868 00000000                   13115  1  279.     VSMSGA     DC    A(0)                Command after successful verify
 00086C 4040404040404040           13116  1  280.     JOBNAME    DC    CL8' '              Jobname for wto msg's
 000874 D6D9E5E8D3404040           13117  1  281.     ORVNAME    DC    CL8'ORVYL'          System/major enq name
 00087C 00000880                   13118  1  282.     FSACTIVE   DC    A(FSNAME)           Address of current file system
 000880 C3C1D4D7E4E24040           13119  1  283.     FSNAME     DC    CL8'CAMPUS'         File system/minor enq name
 000888 0000000000000000           13120  1  284.                DC    8XL8'00'            Linked file system names
 0008C8 FF                         13121  1  285.                DC    X'FF'               End of table indication.
 0008C9 E3C5E2E3D6D9E5             13122  1  286.     ALTSYS     DC    C'TESTORV'          Default test system
00008D0 00                         13124  1  288.     FLG        FLAG  ,                   Define function flags
 FLG.FLDUMP        80 ONES         13128  1  289.                FLAG  FLDUMP                - Full dump processing
 FLG.FLINC         40 ONES         13133  1  289.1               FLAG  FLINC                 - Incremental dump processing
 FLG.FLOFFLOAD     20 ONES         13138  1  289.2               FLAG  FLOFFLOAD             - Offload incremental data
 FLG.FLSPLIT       10 ONES         13143  1  289.3               FLAG  FLSPLIT               - Split BCV copy of file system
 FLG.FLESTAB       08 ONES         13148  1  289.31              FLAG  FLESTAB               - Establish BCV copy of file
 FLG.FLBCVDUMP     04 ONES         13153  1  289.4               FLAG  FLBCVDUMP             - Split has been done previously
 FLG.FLVRFY        02 ONES         13158  1  290.                FLAG  FLVRFY                - Verify only
00008D1 00                         13164  1  297.     BCVFLGS    FLAG  ,                   Define EMC bcv processing flags
 BCVFLGS.FL_BCV    80 ONES         13168  1  298.                FLAG  FL_BCV              EMC BCV mode processing
 BCVFLGS.FL_EMClog 40 ONES         13173  1  299.                FLAG  FL_EMClog           Print all EMC sysout logs
 BCVFLGS.FL_LvSplt 20 ONES         13178  1  299.1               FLAG  FL_LvSplt           Leave BCV volumes in split status
 BCVFLGS.FL_LvEst  10 ONES         13183  1  299.11              FLAG  FL_LvEst            Leave BCV volumes in established
 BCVFLGS.FL_LvWait 08 ONES         13188  1  299.21              FLAG  FL_LvWait           We will wait for ending status
 BCVFLGS.FL_BCVwai 04 ONES         13193  1  299.31              FLAG  FL_BCVwait          Wait for all possible EMC commands
1VMNT     IHAPSAE  - PSA Extension (ESAME)                                                                                  Page   16
0D-Loc  Object Code    Addr1 Addr2  Stmt Lv Lineno    Source Statement           (Hibal 5, Asmedit 3.3)  HLASM R4.0  2004/03/22 09.48
+_____  ______ ____    _____ _____  ____ __ ______    ______ _________
00008D2 00                         13199  1  301.     IFLGS      FLAG  ,                   Incremental dump flags
 IFLGS.FLDINC      80 ONES         13203  1  302.                FLAG  FLDINC              Dump IXR's to disk
 IFLGS.FLTINC      40 ONES         13208  1  303.                FLAG  FLTINC              Dump IXR's to tape
 IFLGS.FLNIXR      20 ONES         13213  1  304.                FLAG  FLNIXR              Set no IXR dump at all
 IFLGS.FLNOFF      10 ONES         13218  1  305.                FLAG  FLNOFF              Don't offload incremental data
 IFLGS.FL_Stack    08 ONES         13223  1  305.1               FLAG  FL_Stack            Stack CAT, IXR, & 1st segment
00008D3 00                         13229  1  307.     MOREFLGS   FLAG  ,                   General flag option settings
 MOREFLGS.FL_Auth  80 ONES         13233  1  307.01              FLAG  FL_Auth               - VMNT is running APF authorized
 MOREFLGS.FLABTRM  40 ONES         13238  1  307.96              FLAG  FLABTRM               - Subtask abended
 MOREFLGS.FLTSTSYS 20 ONES         13243  1  307.97              FLAG  FLTSTSYS              - Just testing, don't chat
 MOREFLGS.GDGERROR 10 ONES         13248  1  307.98              FLAG  GDGERROR              - Gdg synchronization error
 MOREFLGS.FL_Warn  08 ONES         13253  1  307.99              FLAG  FL_Warn               - Warn operator on Day/I condition
 MOREFLGS.EOF      04 ONES         13258  1  308.                FLAG  EOF                   - General end of file flag
 MOREFLGS.FL_SMFlo 02 ONES         13263  1  309.01              FLAG  FL_SMFlog             - Log SMF status via Type 179
 MOREFLGS.ANS_Yes  01 ONES         13268  1  309.1               FLAG  ANS_Yes                 The "Answer" was yes
 MOREFLGS.ANS_No   01 OFF          13273  1  309.2               FLAG  (ANS_No,ANS_Yes,OFF)    The "Anser" was no
00008D4 00                         13283  1  311.     LNKFLGS    FLAG  ,                   Caution: no more flags allowed
 LNKFLGS.FL_ReadOn 80 ONES         13287  1  311.01              FLAG  FL_ReadOnly         Read/Only mode has ben set
 LNKFLGS.ENABLE    40 ONES         13292  1  311.96              FLAG  ENABLE              Linked file system enable
 LNKFLGS.DISABLE   20 ONES         13297  1  311.97              FLAG  DISABLE             Linked file system disable
 LNKFLGS.FLOFF     10 ONES         13302  1  311.98              FLAG  FLOFF               Turn file system off
 LNKFLGS.FLON      10 OFF          13307  1  311.99              FLAG  (FLON,FLOFF,OFF)    Turn file system on
00008D5 00                         13317  1  314.01   Avoid      FLAG  ,
 Avoid.FL_NOENQ    80 ONES         13321  1  314.1               FLAG  FL_NOENQ            Bypass ENQ/DEQ on filesys name
00008D6 0000                              1
 0008D8 0000000000000000           13327  1  316.     REGSAVE    DC    16F'0'              Error register save area
 000918 00000000                   13328  1  317.     FILHEAD    DC    A(0)                Chain head for FILE data sets
 00091C 00000000                   13329  1  318.     FILLAST    DC    A(0)                Pointer to last FILE data set
 000920 00000000                   13330  1  319.     BCVHEAD    DC    A(0)                Chain head for BCV volume
 000924 00000000                   13331  1  320.     BCVLAST    DC    A(0)                Pointer to last BCV volume
 000928 00000000                   13332  1  321.     GDGCNTR    DC    A(0)                GDG counter for ddnames
 00092C 00000000                   13333  1  322.     GDGANCHR   DC    A(0)                GDG anchor address
 000930 00000000                   13334  1  322.1    TapeFseq   DC    A(0)                Tape file sequence for LABEL
 000934 4040404040404040           13335  1  322.2    TapePrfx   DC    CL44' '             Tape GDG name stem
 000960 4040404040404040           13336  1  322.21   TapeRefD   DC    CL44' '             Tape reference data set name
 00098C 4040404040404040           13337  1  322.3    TapeUnit   DC    CL8' '              Tape allocation unitname
 000994 4040404040404040           13338  1  323.     SYNCDSN    DC    CL44' '             Data set name to kill
 0009C0 4040404040404040           13339  1  323.1    HIST_DSN   DC    CL44' '             History file data set name
1VMNT     IHAPSAE  - PSA Extension (ESAME)                                                                                  Page   17
0Loc    Object Code    Addr1 Addr2  Stmt Lv Lineno    Source Statement           (Hibal 5, Asmedit 3.3)  HLASM R4.0  2004/03/22 09.48
+___    ______ ____    _____ _____  ____ __ ______    ______ _________
0                                         1                      ¿þþþþþþþþþþþþþþþþþþþþþþþþþþþþþþþþþþþþþþþþþþÜ
0                                  13341  1  325.                Ÿ  Parameter list for VSIO direct STARTIO  Ÿ
                                          1                      ¾þþþþþþþþþþþþþþþþþþþþþþþþþþþþþþþþþþþþþþþþþþ»
 0009EC 0000000000000000           13342  1  326.     VSIOPRML   DC    0A(0),XL(L'VSIOPRM)'00'
 000A14                00A14 009EC 13343  1  327.                ORG   VSIOPRML            Origin back to start of list
 0009EC E5E2C9D6                   13344  1  328.                DC    C'VSIO'             Set eye-catcher in parameter list
 0009F0 FFFFFFFF                   13345  1  329.                DC    A(-1)               VSIO token
 0009F4                009F4 00A14 13346  1  330.                ORG   ,                   Origin out to end of list
 000A14                            13347  1  331.1               DC    0A(0)               Insure fullword alignment
 000A14                            13348  1  332.                SCANCB ,                  Primary scanner control block
 000A34                            13361  1  333.                SCANCB PFX=SCND           Secondary scanner control block
                                          1                      ¿þþþþþþþþþþþþþþþþþþþþþþþþþþþþþþþþþÜ
                                   13374  1  333.1               Ÿ  A print line of some sort (?)  Ÿ
                                          1                      ¾þþþþþþþþþþþþþþþþþþþþþþþþþþþþþþþþþ»
 000A54                            13375  1  334.                DC    0A(0)               Alignment
 000A54 00000000                   13376  1  335.     PRMHDR     DC    AL2(0,0)              VBS record header
 000A58 40                         13377  1  336.     PRMCC      DC    CL1' '                Carriage control character
 000A59 4040404040404040           13378  1  337.     PRMDATA    DC    CL132' '              Line data
 000AE0 00/00/0000                 13379  1  338.     PRMSEG     SEGCB ,                   Parameter parm string buildup
 PRMSEGCOD.PRMSEGS 01 EQ
 PRMSEGCOD.PRMSEGW 02 EQ
 PRMSEGCOD.PRMSEGC 03 EQ
 PRMSEGCOD.PRMSEGS 04 EQ
 PRMSEGCOD.PRMSEGO 05 EQ
 PRMSEGCOD.PRMSEGC 06 EQ
 PRMSEGCOD.PRMSEGM 07 EQ
 000AE4 00000000                   13456  1          +
 000AE8 00000000                   13457  1          +
 000AEC 00000000                   13458  1          +
 000AF0 00000000                   13459  1          +
 000AF4 00000000                   13460  1          +
 000AF8 0000000000000000           13461  1          +
 000B00 00000000                   13462  1          +
 000B04 00000000                   13463  1          +
 000B08 0000000000000000           13464  1          +
 000B18 00000000                   13465  1          +
 000B1C 00/00/0000                 13467  1  339.     PRTSEG     SEGCB ,                   VMNT report file SEGCB
 PRTSEGCOD.PRTSEGS 01 EQ
 PRTSEGCOD.PRTSEGW 02 EQ
 PRTSEGCOD.PRTSEGC 03 EQ
 PRTSEGCOD.PRTSEGS 04 EQ
 PRTSEGCOD.PRTSEGO 05 EQ
 PRTSEGCOD.PRTSEGC 06 EQ
 PRTSEGCOD.PRTSEGM 07 EQ
 000B20 00000000                   13544  1          +
 000B24 00000000                   13545  1          +
 000B28 00000000                   13546  1          +
 000B2C 00000000                   13547  1          +
 000B30 00000000                   13548  1          +
 000B34 0000000000000000           13549  1          +
 000B3C 00000000                   13550  1          +
 000B40 00000000                   13551  1          +
 000B44 0000000000000000           13552  1          +
 000B54 00000000                   13553  1          +
1VMNT     IHAPSAE  - PSA Extension (ESAME)                                                                                  Page   18
0Loc    Object Code    Addr1 Addr2  Stmt Lv Lineno    Source Statement           (Hibal 5, Asmedit 3.3)  HLASM R4.0  2004/03/22 09.48
+___    ______ ____    _____ _____  ____ __ ______    ______ _________
0                                  13557  1  346.     ¿þþþþþþþþþþþþþþþþþþþþþþþþþþþþþþþþþþþþþþþþþþþþþþþþþþþþþþþþþþþþþþþþþþþþþÜ
                                   13558  1  347.     Ÿ                                                                     Ÿ
                                   13559  1  348.     Ÿ  Define dynamic allocation request block and associated text        Ÿ
                                   13560  1  349.     Ÿ  units.                                                             Ÿ
                                   13561  1  350.     Ÿ                                                                     Ÿ
                                          1           ¾þþþþþþþþþþþþþþþþþþþþþþþþþþþþþþþþþþþþþþþþþþþþþþþþþþþþþþþþþþþþþþþþþþþþþ»
0000B58                            13563  1  352.                DC    0A(0)               Force full word alignment
 000B58 80000B5C                   13564  1  353.     SDYNBLK    DC    X'80',AL3(SDYNPRM)  Pointer to svc99 request block
 000B5C 14                         13565  1  354.     SDYNPRM    DC    AL1(20)             Length of svc99 request block
 000B5D 01                         13566  1  355.                DC    AL1(S99VRBAL)       Dsname allocation
 000B5E 20                         13567  1  356.                DC    AL1(S99NOMNT)       Don't mount volumes
 000B5F 00                         13568  1  357.                DC    AL1(0)              Reserved flags
 000B60 00000000                   13569  1  358.                DC    AL2(0,0)            Error and reason codes
 000B64 00005864                   13570  1  359.     SDYNTPTR   DC    A(STXTS)            Address of text unit list
 000B68 00000000                   13571  1  360.                DC    A(0)                Reserved
 000B6C 00000000                   13572  1  361.                DC    A(0)                System flag information
0000B70 00000CAF                   13574  1  363.     STUNA      DC    A(STUDD)            Address of ddname unit
 000B74 80000CBD                   13575  1  364.                DC    X'80',AL3(STUDEL)   Address of delete unit
0000B78 00000C6F                   13577  1  366.     KILLUN     DC    A(KILLDD)           Address of ddname unit
 000B7C 00000C6B                   13578  1  367.                DC    A(KILLPRM)          Address of perm alloc.
 000B80 80000C7D                   13579  1  368.                DC    X'80',AL3(KILLDSN)  Address of dsn unit
0000B84 00000BB4                   13581  1  370.     IPTRS      DC    A(IDDN)             POINT TO DDNAME UNIT
 000B88 00000BC2                   13582  1  371.                DC    A(IDSN)                   TO DSNAME UNIT
 000B8C 00000BF4                   13583  1  372.                DC    A(ISTAT)                  TO STATUS UNIT (NEW)
 000B90 00000C03                   13584  1  373.                DC    A(INDSP)                  TO DISPOSITION (CATLG)
 000B94 00000C0A                   13585  1  374.                DC    A(ISP1)                   TO SPACE UNIT (TRACKS)
 000B98 00000C0E                   13586  1  375.                DC    A(ISP2)                   TO PRIMARY QUANTITY
 000B9C 00000BFB                   13587  1  376.                DC    A(IMEM)                   TO MEMBER
 000BA0 00000C25                   13588  1  377.                DC    A(IPROT)                  TO PROTOTYPE DSCB
 000BA4 00000C17                   13589  1  378.                DC    A(IUNIT)                  TO UNIT SPECIFICATION
 000BA8 00000C57                   13590  1  379.                DC    A(IRLSE)                  TO RELEASE UNIT
 000BAC 80000C5B                   13591  1  380.     ILVOL      DC    A(X'80000000'+IFREE)      TO FREE=CLOSE UNIT
 000BB0 80000C5F                   13592  1  381.                DC    A(X'80000000'+IVOL)       TO VOLUME UNIT
0000BB4 000100010008D3C9           13594  1  383.     IDDN       DC    AL2(DALDDNAM,1,8),CL8'LIST'
 000BC2 00020001002CC4E2           13595  1  384.     IDSN       DC    AL2(DALDSNAM,1,44),CL44'DSN'
 000BF4 00040001000104             13596  1  385.     ISTAT      DC    AL2(DALSTATS,1,1),X'04'
 000BFB 0003000100024EF1           13597  1  386.     IMEM       DC    AL2(DALMEMBR,1,2),CL2'+1'
 000C03 00050001000102             13598  1  387.     INDSP      DC    AL2(DALNDISP,1,1),X'02'
 000C0A 00070000                   13599  1  388.     ISP1       DC    AL2(DALTRK,0)
 000C0E 000A000100030000           13600  1  389.     ISP2       DC    AL2(DALPRIME,1,3),AL3(75)
 000C17 001500010008C4C9           13601  1  390.     IUNIT      DC    AL2(DALUNIT,1,8),CL8'DISK'
 000C25 002C0001002CE2E8           13602  1  391.     IPROT      DC    AL2(DALDCBDS,1,44),CL44'SYS3.PROTO.DSCB'
 000C57 000D0000                   13603  1  392.     IRLSE      DC    AL2(DALRLSE,0)
 000C5B 001C0000                   13604  1  393.     IFREE      DC    AL2(DALCLOSE,0)
 000C5F 0010000100064040           13605  1  394.     IVOL       DC    AL2(DALVLSER,1,6),CL6'      '
0000C6B 00070000                   13607  1  396.     KILLPRM    DC    AL2(DUNUNALC,0)
 000C6F 0001000100084040           13608  1  397.     KILLDD     DC    AL2(DUNDDNAM,1,8),CL8' '
 000C7D 00020001002C4040           13609  1  398.     KILLDSN    DC    AL2(DUNDSNAM,1,44),CL44' '
0000CAF 0001000100084040           13611  1  400.     STUDD      DC    AL2(DUNDDNAM,1,8),CL8' '
1VMNT     IHAPSAE  - PSA Extension (ESAME)                                                                                  Page   19
0Loc    Object Code    Addr1 Addr2  Stmt Lv Lineno    Source Statement           (Hibal 5, Asmedit 3.3)  HLASM R4.0  2004/03/22 09.48
+___    ______ ____    _____ _____  ____ __ ______    ______ _________
0000CBD 00050001000104             13612  1  401.     STUDEL     DC    AL2(DUNOVDSP,1,1),X'04'
 000CC4 00180000                   13613  1  402.     SOUT       DC    AL2(DALSYSOU,0)
1VMNT     IHAPSAE  - PSA Extension (ESAME)                                                                                  Page   20
0Loc    Object Code    Addr1 Addr2  Stmt Lv Lineno    Source Statement           (Hibal 5, Asmedit 3.3)  HLASM R4.0  2004/03/22 09.48
+___    ______ ____    _____ _____  ____ __ ______    ______ _________
0                                  13615  1  404.     ¿þþþþþþþþþþþþþþþþþþþþþþþþþþþþþþþþþþþþþþþþþþþþþþþþþþþþþþþþþþþþþþþþþþþþþÜ
                                   13616  1  405.     Ÿ                                                                     Ÿ
                                   13617  1  406.     Ÿ  Define control file information                                    Ÿ
                                   13618  1  407.     Ÿ                                                                     Ÿ
                                          1           ¾þþþþþþþþþþþþþþþþþþþþþþþþþþþþþþþþþþþþþþþþþþþþþþþþþþþþþþþþþþþþþþþþþþþþþ»
-000CC8 4040404040404040           13620  1  410.     CNTCARD    DC    CL80' '             Control buffer
 000D18 4040404040404040           13621  1  411.     GDGPFX     DC    CL44' '             GDG name prefix
0                                  13623  1  413.                PRINT NOGEN               Suppress macro expansion
 000D44 0000000000000000           13625  1  414.     CNTDCB     DCB   DDNAME=CONTROL,MACRF=GM,DSORG=PS,LRECL=80
                                   13667  1  415.   C VMNTPRT    DCB   DDNAME=VMNTPRT,MACRF=PM,DSORG=PS,LRECL=137,
 000DA4 0000000000000000                  1  416.                      RECFM=VBA
                                   13709  1  417.                PRINT GEN                 Enable macro expansion
0000E04 44/00/00/00                13712  1  419.     SYNLOC     CAMLST NAME,SYNCDSN,,0    Locate via name
 000E08 00000994                   13718  1          +
 000E0C 00000000                   13719  1          +
 000E10 00000000                   13720  1          +
 000E14 0C/00/00/00                13721  1  420.     SYNUNC     CAMLST UNCAT,SYNCDSN      UNCATALOG DATA SET
 000E18 00000994                   13727  1          +
 000E1C 00000000                   13728  1          +
 000E20 41/00/50/00                13729  1  421.     SYNSCR     CAMLST SCRATCH,SYNCDSN,,SYNVOL,,OVRD
 000E24 00000994                   13735  1          +
 000E28 00000000                   13736  1          +
 000E2C 00000E30                   13737  1          +
0000E30 0001                       13739  1  423.     SYNVOL     DC    H'1'                Only one volume maximum
 000E32 00000000                   13740  1  424.     SYNDEV     DC    XL4'00'             Device type area
 000E36 E5D6D3E2C5D9               13741  1  425.     SYNSER     DC    CL6'VOLSER'         Volume serial area
 000E3C 0000                       13742  1  426.     SYNSTA     DC    H'0'                Scratch status return code
 000000                00000 06F60 13743     427.              END   ,
1VMNT     IHAPSAE  - PSA Extension (ESAME)                                                                                  Page   21
0Loc    Object Code    Addr1 Addr2  Stmt Lv Lineno    Source Statement           (Hibal 5, Asmedit 3.3)  HLASM R4.0  2004/03/22 09.48
+___    ______ ____    _____ _____  ____ __ ______    ______ _________
0                                  13750     429.     ********************************************************************
                                   13751     430.     *                                                                  *
                                   13752     431.     *  Main entry point for ORVYL file  system maintenance driver      *
                                   13753     432.     *                                                                  *
                                   13754     433.     ********************************************************************
0000000                00000 06F60 13756     435.     VMNT     CSECT ,                   Insure start of control section
                                   13758     436.              IDENT 21                  Module identification
                                   13761             +
                                   13762    01-IDENT +         ENTRY VMNT21
                                   13763             +
 000000 14E5D4D5E3F2F16B           13764    01-IDENT +VMNT21   DC    AL1(20),C'VMNT21,22MAR04,09:48'
                                   13765             +*
0                                  13768     438.              ENTRY MAINT               Define entry point for startup
 000015 00
 000016 90EC D00C            0000C 13769     439.     MAINT    STM   R14,R12,@R13+12     Enter and save calling registers
 USING  MAINT,R15                  13770     440.              WITH  (MAINT,R15),BEGIN   Temporary addressability
 00001A 58B0 F5D2            005E8 13784  1  441.                L     R11,=A(VMNT)        Generate addressability
 DROP   MAINT,R15                  13785     442.              END   ,
 USING  VMNT,R11                   13793     443.              USING VMNT,R11            Declare program addressability
 USING  ATTREC,R12                 13802     444.              USING ATTREC,ATTR         Attach record addr
 00001E 5010 B770            00770 13811     445.              ST    R1,EXECPTR          Save exec field pointer address
 000022 50D0 B76C            0076C 13812     446.              ST    R13,VSSAVE          Chuck VS savearea address
 000026 5800 B5EC            005EC 13813     447.              L     R0,=A(STCKLEN)      Set for 32K stack
 00002A 1800/4510 B030       00030 13814     448.              GETMAIN R,LV=(R0)         Request save stack memory
 000030 0A0A                       13818             +
 000032 18D1                       13819     449.              LR    R13,R1              Save address
 000034 50D0 B768            00768 13820     450.              ST    R13,STACK           Save stack address for release
-                                  13822     452.              ¿þþþþþþþþþþþþþþþþþþþþþþþþþþþþþþþþþþþþþþþþþþþþþþÜ
                                   13823     453.              Ÿ  Allocate initial files and report run date  Ÿ
                                   13824     454.              ¾þþþþþþþþþþþþþþþþþþþþþþþþþþþþþþþþþþþþþþþþþþþþþþ»
 000038 58E0 B5F0/0DEE       005F0 13825     455.              ACALL Welcome             Initial processing
1VMNT     (VMNT21) (09:48) (22MAR04) IHAPSAE  - PSA Extension (ESAME)                                                       Page   22
0Current Usings:  (VMNT,R11) (ATTREC,R12)
0Loc    Object Code    Addr1 Addr2  Stmt Lv Lineno    Source Statement           (Hibal 5, Asmedit 3.3)  HLASM R4.0  2004/03/22 09.48
+___    ______ ____    _____ _____  ____ __ ______    ______ _________
0                                  13830     457.     ¿þþþþþþþþþþþþþþþþþþþþþþþþþþþþþþþþþþþþþþþþþþþþþþþþþþþþþþþþþþþþþþþþþþþþþÜ
                                   13831     458.     Ÿ                                                                     Ÿ
                                   13832     459.     Ÿ  Syncronize dump generations if attempting a file system dump       Ÿ
                                   13833     460.     Ÿ                                                                     Ÿ
                                                      ¾þþþþþþþþþþþþþþþþþþþþþþþþþþþþþþþþþþþþþþþþþþþþþþþþþþþþþþþþþþþþþþþþþþþþþ»
-                                  13835     462.              SEGDEF PRTSEG             Latch VMNT SEGCB control
 00003E 9180 B8D0      008D0       13836     463.              IF    FLDUMP,BEGIN        Dump processing
 000042 47E0 B110            00110 13846             +
 000046 58E0 B5F4/0DEE       005F4 13851  1  464.                ACALL SYNCGDG             Syncronize gdg's
 00004C 1B00/41F0 BB1C       00B1C 13855  1  465.                SEGWR ,
 000052 58E0 B5F8/0DEE       005F8 13877  1          +
 000058 4110 B588            00588 13879  1  466.                SEG   'VMNT101I - Checking GDG initial synchronization.'
 00005C 4100 0030            00030 13883  1          +
 000060 41F0 BB1C            00B1C 13891  1          +
 000064 58E0 B5FC/0DEE       005FC 13894  1          +
 00006A 1B00/41F0 BB1C       00B1C 13896  1  467.                SEGWR ,                   Write to report file
 000070 58E0 B5F8/0DEE       005F8 13918  1          +
 000076 58E0 B600/0DEE       00600 13920  1  468.                ACALL SYNCIDC             Attach IDCAMS to get gens
 00007C 5820 B92C            0092C 13924  1  469.                L     R2,GDGANCHR         Set GDG anchor block address
 USING  GDG,R2                     13925  1  470.                WITH  (GDG,R2)            Addressability to GDG block
 000080 1222/4780 B0F2       000F2 13938  1  471.                WHILE (R2,NZ),BEGIN       Report on all segments
 000086 4100 000B            0000B 13954  2  472.                  SEGBLANK 11               Make a nice little table
 00008A 41F0 BB1C            00B1C 13969  2          +
 00008E 58E0 B604/0DEE       00604 13972  2          +
 000094 4110 B68C            0068C 13974  2  473.                  SEG   '- '                Add some spacing characters
 000098 4100 0002            00002 13978  2          +
 00009C 41F0 BB1C            00B1C 13986  2          +
 0000A0 58E0 B5FC/0DEE       005FC 13989  2          +
 0000A6 4110 2014            00014 13991  2  474.                  LA    R1,GDGNAME          Address of gdg name
 0000AA 4100 002C            0002C 13992  2  475.                  LA    R0,L'GDGNAME        Maximum length of name
 0000AE 4DE0 B438            00438 13993  2  476.                  LCALL RTRIM               Trim trailing blanks
 0000B2 41F0 BB1C            00B1C 13995  2  477.                  SEG   (R1),(R0)           Add data set name to message
 0000B6 58E0 B5FC/0DEE       005FC 14016  2          +
 0000BC 4110 B68E            0068E 14018  2  478.                  SEG   ' is at generation '
 0000C0 4100 0012            00012 14022  2          +
 0000C4 41F0 BB1C            00B1C 14030  2          +
 0000C8 58E0 B5FC/0DEE       005FC 14033  2          +
 0000CE 5810 2004/1B00       00004 14035  2  479.                  SEGDC GDGGEN,0            Add generation number
 0000D4 41F0 BB1C            00B1C 14051  2          +
 0000D8 58E0 B608/0DEE       00608 14054  2          +
 0000DE 1B00/41F0 BB1C       00B1C 14056  2  480.                  SEGWR ,                   Write to report file
 0000E4 58E0 B5F8/0DEE       005F8 14078  2          +
 0000EA 5820 2000            00000 14080  2  481.                  L     R2,GDGFWD           Set forward chain address
 0000EE 47F0 B080            00080 14081  1  482.                END   ,
 0000F2 4110 B6A0            006A0 14086  1  483.                SEG   'VMNT801I - Complete GDG synchronization check.'
 0000F6 4100 002E            0002E 14090  1          +
 0000FA 41F0 BB1C            00B1C 14098  1          +
 0000FE 58E0 B5FC/0DEE       005FC 14101  1          +
 000104 1B00/41F0 BB1C       00B1C 14103  1  484.                SEGWR ,
 00010A 58E0 B5F8/0DEE       005F8 14125  1          +
 DROP   GDG,R2                     14127     485.              END   ,
1VMNT     (VMNT21) (09:48) (22MAR04) IHAPSAE  - PSA Extension (ESAME)                                                       Page   23
0Current Usings:  (VMNT,R11) (ATTREC,R12)
0Loc    Object Code    Addr1 Addr2  Stmt Lv Lineno    Source Statement           (Hibal 5, Asmedit 3.3)  HLASM R4.0  2004/03/22 09.48
+___    ______ ____    _____ _____  ____ __ ______    ______ _________
0                                  14137     487.     ¿þþþþþþþþþþþþþþþþþþþþþþþþþþþþþþþþþþþþþþþþþþþþþþþþþþþþþþþþþþþþþþþþþþþþþÜ
                                   14138     488.     Ÿ                                                                     Ÿ
                                   14139     489.     Ÿ  Bring the Orvyl file system into read/only maintenance mode.       Ÿ
                                   14140     490.     Ÿ                                                                     Ÿ
                                   14141     491.     Ÿ    1.  Ensure that the BCV's are fully established if the BCV       Ÿ
                                   14142     492.     Ÿ        mode has been selected.                                      Ÿ
                                   14143     493.     Ÿ    2.  ENQ on the specified ORVYL file system, place the file       Ÿ
                                   14144     494.     Ÿ        system into read/only mode.                                  Ÿ
                                   14145     495.     Ÿ    3.  Split the BCV volumes from the fully established Orvyl       Ÿ
                                   14146     496.     Ÿ        file system.                                                 Ÿ
                                   14147     497.     Ÿ    4.  Report on Orvyl file volume EMC/BCV pairings                 Ÿ
                                   14148     498.     Ÿ                                                                     Ÿ
                                                      ¾þþþþþþþþþþþþþþþþþþþþþþþþþþþþþþþþþþþþþþþþþþþþþþþþþþþþþþþþþþþþþþþþþþþþþ»
0000110 9180 B8D1      008D1       14150     499.1             IF    (FL_BCV,OR,FLESTAB),BEGIN     Processing in BCV mode
 000114 4710 B120            00120 14164             +
 000118 9108 B8D0      008D0       14173             +
 00011C 47E0 B138            00138 14174             +
 000120 58E0 B60C/0DEE       0060C 14179  1  500.                ACALL BCV_wrkf            Allocate required EMC work files
 000126 58E0 B610/0DEE       00610 14183  1  501.                ACALL BCV_stat            Obtain current status of BCV's
 00012C 58E0 B614/0DEE       00614 14187  1  501.1               ACALL BCV_Pair            Report EMC/BCV pairings
 000132 58E0 B618/0DEE       00618 14191  1  502.                ACALL BCV_est             Insure that we are established
 000138                            14195     502.1             END   ,
                                                               ¿þþþþþþþþþþþþþþþþþþþþþþþþþþþþþþþþþþþþþþþþþþþþþþþþþþÜ
                                   14199     502.2             Ÿ  Enqueue effected file system(s) prior to Split  Ÿ
                                                               ¾þþþþþþþþþþþþþþþþþþþþþþþþþþþþþþþþþþþþþþþþþþþþþþþþþþ»
 000138 9104 B8D0      008D0       14200     502.3             IF    ~FLBCVDUMP,BEGIN    Enqueue and Split if required
 00013C 4710 B168            00168 14210             +
 000140 9108 B8D0      008D0       14215  1  502.4               IF    FLESTAB,EXIT        Establish was the only function
 000144 4710 B168            00168 14227  1          +
 000148 58E0 B61C/0DEE       0061C 14233  1  503.                ACALL ENQFS               Enqueue on file systems
 00014E 9180 B8D1      008D1       14237  1  503.1               IF    FL_BCV,BEGIN        Processing in BCV mode
 000152 47E0 B168            00168 14247  1          +
 000156 58E0 B620/0DEE       00620 14252  2  504.                  ACALL BCV_splt            Split off the BCV volumes
 00015C 58E0 B624/0DEE       00624 14256  2  504.1                 ACALL ENABSYS             Release Read/Only mode now
 000162 58E0 B628/0DEE       00628 14260  2  505.                  ACALL BCV_File            Report EMC/BCV pairings
 000168                            14264  1  505.1               END   ,
 000168                            14268     505.2             END   ,
1VMNT     (VMNT21) (09:48) (22MAR04) IHAPSAE  - PSA Extension (ESAME)                                                       Page   24
0Current Usings:  (VMNT,R11) (ATTREC,R12)
0Loc    Object Code    Addr1 Addr2  Stmt Lv Lineno    Source Statement           (Hibal 5, Asmedit 3.3)  HLASM R4.0  2004/03/22 09.48
+___    ______ ____    _____ _____  ____ __ ______    ______ _________
0                                  14273     507.     ¿þþþþþþþþþþþþþþþþþþþþþþþþþþþþþþþþþþþþþþþþþþþþþþþþþþþþþþþþþþþþþþþþþþþþþÜ
                                   14274     508.     Ÿ                                                                     Ÿ
                                   14275     509.     Ÿ  At this point we have control over the specified file system.      Ÿ
                                   14276     510.     Ÿ  Do not attempt to adjust the vertical....do not attempt to         Ÿ
                                   14277     511.     Ÿ  adjust the horizontal...for the next hour you will be involved     Ÿ
                                   14278     512.     Ÿ  in file system maintenance.                                        Ÿ
                                   14279     513.     Ÿ                                                                     Ÿ
                                                      ¾þþþþþþþþþþþþþþþþþþþþþþþþþþþþþþþþþþþþþþþþþþþþþþþþþþþþþþþþþþþþþþþþþþþþþ»
-000168                            14281     514.1             BEGIN ,                   Maintenance announcement message
 000168 9110 B8D0      008D0       14285  1  514.2               IF    FLSPLIT,EXIT        Bypass message if only splitting
 00016C 4710 B1BE            001BE 14297  1          +
 000170 9108 B8D0      008D0       14303  1  514.3               IF    FLESTAB,EXIT        Bypass message if only establishing
 000174 4710 B1BE            001BE 14315  1          +
 000178 4110 B880            00880 14321  1  515.                LA    R1,FSNAME           Address of prime file system
 00017C 5010 B87C            0087C 14322  1  516.                ST    R1,FSACTIVE         Set into active file system
 000180 5810 B848/1211       00848 14323  1  517.                LT    R1,DOMSTAT          Statistic id
 000186 4780 B190            00190 14327  1  518.                IF    NZ,BEGIN            Kill outstanding WTO if any
 00018A 4100 0000/0A57       00000 14338  2  519.                  DOM   MSG=(1)             Kill Waiting WTO message
 000190                            14341  1  520.                END   ,
 000190 58E0 B62C/0DEE       0062C 14345  1  521.                ACALL MSGSUFF             Report file system
 000196 4110 B5B8            005B8 14349  1  522.                SEG   'Maintenance in progress.'
 00019A 4100 0018            00018 14353  1          +
 00019E 41F0 BB1C            00B1C 14361  1          +
 0001A2 58E0 B5FC/0DEE       005FC 14364  1          +
 0001A8 41F0 BB1C            00B1C 14366  1  522.1               SENDWTO 2,2               Write message to console
 0001AC 4110 0002            00002 14375  1          +
 0001B0 4100 0002            00002 14376  1          +
 0001B4 58E0 B630/0DEE       00630 14379  1          +
 0001BA 50F0 B848            00848 14381  1  527.                ST    R15,DOMSTAT         Save dom-id
 0001BE                            14382     527.1             END   ,
1VMNT     (VMNT21) (09:48) (22MAR04) IHAPSAE  - PSA Extension (ESAME)                                                       Page   25
0Current Usings:  (VMNT,R11) (ATTREC,R12)
0Loc    Object Code    Addr1 Addr2  Stmt Lv Lineno    Source Statement           (Hibal 5, Asmedit 3.3)  HLASM R4.0  2004/03/22 09.48
+___    ______ ____    _____ _____  ____ __ ______    ______ _________
0                                  14387     529.     ¿þþþþþþþþþþþþþþþþþþþþþþþþþþþþþþþþþþþþþþþþþþþþþþþþþþþþþþþþþþþþþþþþþþþþþÜ
                                   14388     530.     Ÿ                                                                     Ÿ
                                   14389     531.     Ÿ  Process the file directory segment now for FILEDUMP, VERIFY,       Ÿ
                                   14390     532.     Ÿ  and incremental dump process                                       Ÿ
                                   14391     533.     Ÿ                                                                     Ÿ
                                                      ¾þþþþþþþþþþþþþþþþþþþþþþþþþþþþþþþþþþþþþþþþþþþþþþþþþþþþþþþþþþþþþþþþþþþþþ»
00001BE 91C2 B8D0      008D0       14393     535.              IF    FLDUMP+FLVRFY+FLINC,BEGIN
 0001C2 4780 B1CC            001CC 14410             +
 0001C6 58E0 B634/0DEE       00634 14415  1  536.                ACALL Proc_FD             Process file directory
 0001CC                            14419     537.              END   ,
-
                                   14424     539.     ¿þþþþþþþþþþþþþþþþþþþþþþþþþþþþþþþþþþþþþþþþþþþþþþþþþþþþþþþþþþþþþþþþþþþþþÜ
                                   14425     540.     Ÿ                                                                     Ÿ
                                   14426     541.     Ÿ  Start VERIFY process                                               Ÿ
                                   14427     542.     Ÿ                                                                     Ÿ
                                                      ¾þþþþþþþþþþþþþþþþþþþþþþþþþþþþþþþþþþþþþþþþþþþþþþþþþþþþþþþþþþþþþþþþþþþþþ»
-0001CC 91C2 B8D0      008D0       14429     544.              IF    FLDUMP+FLVRFY+FLINC,BEGIN
 0001D0 4780 B1DA            001DA 14446             +
 0001D4 58E0 B638/0DEE       00638 14451  1  545.                ACALL Proc_VRF            Process file system verify
 0001DA                            14455     546.              END   ,
-
                                   14460     548.     ¿þþþþþþþþþþþþþþþþþþþþþþþþþþþþþþþþþþþþþþþþþþþþþþþþþþþþþþþþþþþþþþþþþþþþþÜ
                                   14461     549.     Ÿ                                                                     Ÿ
                                   14462     550.     Ÿ Start dump segemnts.  If in multitasking mode only attach           Ÿ
                                   14463     551.     Ÿ FILEDUMP once.  It takes care of itself.                            Ÿ
                                   14464     552.     Ÿ                                                                     Ÿ
                                                      ¾þþþþþþþþþþþþþþþþþþþþþþþþþþþþþþþþþþþþþþþþþþþþþþþþþþþþþþþþþþþþþþþþþþþþþ»
-0001DA 9180 B8D0      008D0       14466     554.              IF    FLDUMP,BEGIN
 0001DE 47E0 B1E8            001E8 14476             +
 0001E2 58E0 B63C/0DEE       0063C 14481  1  555.                ACALL Proc_DMP            Process Full dump request
 0001E8                            14485     556.              END   ,
-
                                   14490     558.     ¿þþþþþþþþþþþþþþþþþþþþþþþþþþþþþþþþþþþþþþþþþþþþþþþþþþþþþþþþþþþþþþþþþþþþþÜ
                                   14491     559.     Ÿ                                                                     Ÿ
                                   14492     560.     Ÿ  Incremental dumping                                                Ÿ
                                   14493     561.     Ÿ                                                                     Ÿ
                                                      ¾þþþþþþþþþþþþþþþþþþþþþþþþþþþþþþþþþþþþþþþþþþþþþþþþþþþþþþþþþþþþþþþþþþþþþ»
-0001E8 9140 B8D0      008D0       14495     563.              IF    FLINC,BEGIN         For incremental dumping
 0001EC 47E0 B1F6            001F6 14505             +
 0001F0 58E0 B640/0DEE       00640 14510  1  564.                ACALL Proc_Inc            Process incremental dump request
 0001F6                            14514     565.              END   ,
1VMNT     (VMNT21) (09:48) (22MAR04) IHAPSAE  - PSA Extension (ESAME)                                                       Page   26
0Current Usings:  (VMNT,R11) (ATTREC,R12)
0Loc    Object Code    Addr1 Addr2  Stmt Lv Lineno    Source Statement           (Hibal 5, Asmedit 3.3)  HLASM R4.0  2004/03/22 09.48
+___    ______ ____    _____ _____  ____ __ ______    ______ _________
0
                                   14519     565.02   ¿þþþþþþþþþþþþþþþþþþþþþþþþþþþþþþþþþþþþþþþþþþþþþþþþþþþþþþþþþþþþþþþþþþþþþÜ
                                   14520     565.03   Ÿ                                                                     Ÿ
                                   14521     565.04   Ÿ        If we are in BCV mode check on the desired state that the    Ÿ
                                   14522     565.05   Ÿ        BCV volumes should be left in.                               Ÿ
                                   14523     565.06   Ÿ                                                                     Ÿ
                                                      ¾þþþþþþþþþþþþþþþþþþþþþþþþþþþþþþþþþþþþþþþþþþþþþþþþþþþþþþþþþþþþþþþþþþþþþ»
00001F6 9180 B8D1      008D1       14525     565.93            IF    FL_BCV,BEGIN        Processing in BCV mode
 0001FA 47E0 B216            00216 14535             +
 0001FE 9110 B8D1      008D1       14540  1  565.94              IF    FL_LVEST,BEGIN      Oops -- Need to leave established
 000202 47E0 B216            00216 14550  1          +
 000206 58E0 B610/0DEE       00610 14555  2  565.95                ACALL BCV_Stat            Look at current BCV status
 00020C 94FB B8D1      008D1       14559  2  565.96                CLEAR FL_BCVwait          Clear WAIT option for timefinder
 000210 58E0 B618/0DEE       00618 14566  2  565.97                ACALL BCV_EST             Re-establish paired BCV volumes
 000216                            14570  1  565.98              END   ,
 000216                            14574     565.99            END   ,
1VMNT     (VMNT21) (09:48) (22MAR04) IHAPSAE  - PSA Extension (ESAME)                                                       Page   27
0Current Usings:  (VMNT,R11) (ATTREC,R12)
0Loc    Object Code    Addr1 Addr2  Stmt Lv Lineno    Source Statement           (Hibal 5, Asmedit 3.3)  HLASM R4.0  2004/03/22 09.48
+___    ______ ____    _____ _____  ____ __ ______    ______ _________
0                                  14579     567.     ¿þþþþþþþþþþþþþþþþþþþþþþþþþþþþþþþþþþþþþþþþþþþþþþþþþþþþþþþþþþþþþþþþþþþþþÜ
                                   14580     568.     Ÿ                                                                     Ÿ
                                   14581     569.     Ÿ  Post-processing for file maintenance                               Ÿ
                                   14582     570.     Ÿ                                                                     Ÿ
                                                      ¾þþþþþþþþþþþþþþþþþþþþþþþþþþþþþþþþþþþþþþþþþþþþþþþþþþþþþþþþþþþþþþþþþþþþþ»
0000216                            14583     571.     EXIT     LABEL ,
 000216 9120 B8D4      008D4       14585     572.              IF    ~DISABLE,BEGIN      Skip if first in link
 00021A 4710 B224            00224 14595             +
 00021E 58E0 B624/0DEE       00624 14600  1  573.                ACALL ENABSYS             Enable all file systems
 000224                            14604     574.              END   ,
0000224 9180 B8D0      008D0       14609     576.              IF    FLDUMP,BEGIN        Do ending GDG status
 000228 47E0 B232            00232 14619             +
 00022C 58E0 B644/0DEE       00644 14624  1  577.                ACALL SYNCLST             Check ending GDG status
 000232                            14628     578.              END   ,
0000232                            14633     579.              IF    (RETCDE,LE,4),BEGIN Release VAM stuff
 000232 D503 B648 B864 00648 00864 14645             +
 000238 4750 B254            00254 14646             +
 00023C 9202 BB5D      00B5D       14651  1  580.                MVI   SDYNPRM+1,S99VRBUN  Request unallocation service
 000240 D207 BCB5 B5D0 00CB5 005D0 14652  1  580.1               MVC   STUDD+6(8),=CL8'SYSKAPUT'
 000246 4110 BB70            00B70 14653  1  581.                LA    R1,STUNA            Address of pointer list
 00024A 5010 BB64            00B64 14654  1  582.                ST    R1,SDYNPRM+8        Save in SVC99 RB
 00024E 4110 BB58            00B58 14655  1  583.                LA    R1,SDYNBLK          Address to pass
 000252 0A63                       14656  1  584.                DYNALLOC ,                Release SYSKAPUT DD name
 000254                            14659     585.              END   ,
                                                               ¿þþþþþþþþþþþþþþþþþþþþþþþþþþþþþþþþþþþþþþþþþþþþþþþþþþþþþþþþþÜ
0                                  14664     586.01            Ÿ  Log completion status to SMF if requested and release  Ÿ
                                   14665     586.02            Ÿ  SMF log buffer                                         Ÿ
                                                               ¾þþþþþþþþþþþþþþþþþþþþþþþþþþþþþþþþþþþþþþþþþþþþþþþþþþþþþþþþþ»
 000254 5820 B774/1222       00774 14666     586.03            LT    R2,SMFBUFA          Is there any outstanding SMF
 00025A 4780 B340            00340 14670     586.04            IF    NZ,BEGIN            Yep -- Release SMF buffer
 USING  SMFDATA,R2                 14681  1  586.05              WITH  (SMFDATA,R2)        Addressability to SMF buffer
 00025E 184D/41D0 D020       00020 14694  1  586.06              VPUSH ,,L'STIM_WRK,PTR=R4 Request stack space
 USING  STIM_WRK,R4                14697  1  586.07              WITH  (STIM_WRK,R4)       Addressability to timer work
 000264                            14710  1  586.08              CLEAR STIM_WRK            Clear timer work area
 000264 D71F 4000 4000 00000 00000 14716  1          +
                                   14717  1  586.09 C            TIME  BIN,STIM_TIM,DATETYPE=YYYYDDD,ZONE=LT,
 00026A 5110 0000            00000        1  586.1                     LINKAGE=SYSTEM
 00026E 4110 B278            00278 14721  1          +
 000272 47F0 B294/0000       00294 14722  1          +
 00027A 00/00                      14725  1          +
 00027C 0000000000000000           14727  1          +
 000284 0000000000000000           14728  1          +
 00028C 0000000000000000           14729  1          +
 000294 9201 1003      00003       14731  1          +
 000298 9200 1002      00002       14732  1          +
 00029C 58E0 0010            00010 14733  1          +
 0002A0 58EE 0304            00304 14734  1          +
 0002A4 58EE 0130            00130 14735  1          +
 0002A8 B218 E000      00000       14736  1          +
 0002AC 51E0 4000            00000 14737  1          +
1VMNT     (VMNT21) (09:48) (22MAR04) IHAPSAE  - PSA Extension (ESAME)                                                       Page   28
0Current Usings:  (SMFDATA,R2) (STIM_WRK,R4) (VMNT,R11) (ATTREC,R12)
0Loc    Object Code    Addr1 Addr2  Stmt Lv Lineno    Source Statement           (Hibal 5, Asmedit 3.3)  HLASM R4.0  2004/03/22 09.48
+___    ______ ____    _____ _____  ____ __ ______    ______ _________
00002B0 D20F E000 100C 00000 0000C 14738  1          +
 0002B6 D203 2006 4000 00006 00000 14740  1  586.11              MVC   XSMFTME,STIM_TIM    Move in current time (.01 sec)
 0002BC F133 4008 4008 00008 00008 14741  1  586.12              MVO   STIM_DAT,STIM_DAT   Move over bud!
 0002C2 94F0 400B      0000B       14742  1  586.13              NI    STIM_DAT+3,X'F0'    Clear sign position to zero
 0002C6 960C 400B      0000B       14743  1  586.14              OI    STIM_DAT+3,X'0C'    Insure a positive sign digit
 0002CA FB33 4008 B64C 00008 0064C 14744  1  586.15              SP    STIM_DAT,=P'1900000'    adjust for smf date format
 0002D0 D203 200A 4008 0000A 00008 14745  1  586.16              MVC   XSMFDTE,STIM_DAT    Move packed date into smf record
 0002D6 4130 2018            00018 14746  1  586.17              LA    R3,XSMF#END         Point to start of subtype #008
 USING  STYP#008,R3                14747  1  586.18              WITH  (STYP#008,R3)       Addressability to subtype data
 0002DA D203 3000 B650 00000 00650 14760  1  586.19              MVC   S#8LEN,=A(L'STYP#008)   Set subtype total length
 0002E0 D203 3004 B654 00004 00654 14761  1  586.2               MVC   S#8TYP,=A(T179SUBT)     Set subtype number (#008)
 0002E6 D20F 3008 B5D8 00008 005D8 14762  1  586.21              MVC   S#8DESC,=CL16'Orvyl File Maintenance'
 0002EC 9680 3018      00018       14763  1  586.22              SET   S#8_FLtest              Set "testing" record
 0002F0 D207 302C 2006 0002C 00006 14769  1  586.23              MVC   S#8MNTEN(8),XSMFTME Log maintenance ending time
 0002F6 4110 3024            00024 14770  1  586.24              LA    R1,S#8MNTST         Address of start/end time/date
 0002FA 58E0 B658/0DEE       00658 14771  1  586.25              ACALL SMFELAP             Convert start/end to elapsed secs
 000300 5010 3034            00034 14775  1  586.26              ST    R1,S#8MNTEL         Save elapsed seconds (.01 units)
 000304 9102 B8D3      008D3       14776  1  586.28              IF    FL_SMFlog,BEGIN     Write logging smf record to set
 000308 47E0 B334            00334 14786  1          +
 00030C 1812/0A53                  14791  2  586.3                 SMFWTM (R2)               Pass smf record on
 000310 12FF/4780 B334       00334 14794  2  586.31                IF    (R15,NZ),BEGIN      Error occurred passing record
                                   14808  3  586.32                  SEGDEF PRTSEG             Latch vmnt message file
 000316 4110 B6CE            006CE 14809  3  586.33                  SEG   'VMNT628W - Unable to write logging smf record.'
 00031A 4100 002E            0002E 14813  3          +
 00031E 41F0 BB1C            00B1C 14821  3          +
 000322 58E0 B5FC/0DEE       005FC 14824  3          +
 000328 1B00/41F0 BB1C       00B1C 14826  3  586.34                  SEGWR ,                   Write to vmnt report file
 00032E 58E0 B5F8/0DEE       005F8 14848  3          +
 000334                            14850  2  586.35                END   ,
 000334                            14854  1  586.36              END   ,
 000334 4100 0064            00064 14858  1  586.37              LA    R0,L'SMFDATA+L'STYP#008 Load length of SMF buffer
 000338 4110 2000/0A0A       00000 14859  1  586.89              FREEMAIN R,LV=(0),A=(2)       Release SMF buffer memory
 00033E 18D4                       14863  1  586.9               VPOP  ,,PTR=R4                Restore acquired stack space
 DROP   STYP#008,R3                14865     586.91            END   ,
 DROP   STIM_WRK,R4
 DROP   SMFDATA,R2
-000340                            14885     586.93            IF    (DOMSTAT,NZ),BEGIN  Delete outstanding STATUS msg
 000340 D603 B848 B848 00848 00848 14895             +
 000346 4780 B35A            0035A 14896             +
 00034A 5810 B848            00848 14901  1  586.94              L     R1,DOMSTAT          Load status message identifier
 00034E 4100 0000/0A57       00000 14902  1  586.95              DOM   MSG=(1)             Kill outstanding WTO message
 000354                            14905  1  586.96              CLEAR DOMSTAT             Remove residual WTO msg id
 000354 D703 B848 B848 00848 00848 14911  1          +
 00035A                            14912     586.97            END   ,
                                   14916     586.98            SEGDEF PRTSEG             Establish SEGCB control
 00035A 58E0 B62C/0DEE       0062C 14917     586.99            ACALL MSGSUFF             Report file system
 000360                            14921     587.              IF    (RETCDE,GE,12),BEGIN global failure
 000360 D503 B65C B864 0065C 00864 14933             +
 000366 4730 B37C            0037C 14934             +
 00036A 4110 B6FC            006FC 14939  1  588.                SEG   'File system maintenance FAILED'
 00036E 4100 001E            0001E 14943  1          +
 000372 41F0 BB1C            00B1C 14951  1          +
1VMNT     (VMNT21) (09:48) (22MAR04) IHAPSAE  - PSA Extension (ESAME)                                                       Page   29
0Current Usings:  (VMNT,R11) (ATTREC,R12)
0Loc    Object Code    Addr1 Addr2  Stmt Lv Lineno    Source Statement           (Hibal 5, Asmedit 3.3)  HLASM R4.0  2004/03/22 09.48
+___    ______ ____    _____ _____  ____ __ ______    ______ _________
0000376 58E0 B5FC/0DEE       005FC 14954  1          +
 00037C B380           0037C 00368 14956     594.              END   ELSE,BEGIN          Completed
 00037C 47F0 B392            00392 14965             +
 000380 4110 B71A            0071A 14971  1  595.                SEG   'File system maintenance successful'
 000384 4100 0022            00022 14975  1          +
 000388 41F0 BB1C            00B1C 14983  1          +
 00038C 58E0 B5FC/0DEE       005FC 14986  1          +
 000392                            14988     601.              END   ,
                                                               ¿þþþþþþþþþþþþþþþþþþþþþþþþþþþþþþþþþþþþþþþþþþþþþþþþþþþþþþþþþþÜ
                                   14992     601.01            Ÿ  Do not save the message id which comes back in R15, we  Ÿ
                                   14993     601.02            Ÿ  would like to leave the final status message on the     Ÿ
                                   14994     601.03            Ÿ  console.                                                Ÿ
                                                               ¾þþþþþþþþþþþþþþþþþþþþþþþþþþþþþþþþþþþþþþþþþþþþþþþþþþþþþþþþþþ»
 000392 41F0 BB1C            00B1C 14995     601.2             SENDWTO 2,2               Write completion message
 000396 4110 0002            00002 15004             +
 00039A 4100 0002            00002 15005             +
 00039E 58E0 B630/0DEE       00630 15008             +
 0003A4                            15010     602.     EXIT2    LABEL ,                   Exit point
 0003A4 58E0 B660/0DEE       00660 15012     603.              ACALL DOMMSGS             Kill outstanding msgs
 0003AA                            15016     604.     EXIT3    LABEL ,                   Exit point
 0003AA 5830 B864            00864 15018     605.              L     R3,RETCDE           Set return code
 0003AE 5840 B76C            0076C 15019     606.              L     R4,VSSAVE           Reset VS save area address
 0003B2 5800 B5EC            005EC 15020     607.              L     R0,=A(STCKLEN)      Length of save stack
 0003B6 5810 B768            00768 15021     608.              L     R1,STACK            Set start of save stack
 0003BA 1800/4110 1000       00000 15022     609.              FREEMAIN R,LV=(R0),A=(R1) Release stack memory
 0003C0 0A0A                       15026             +
 0003C2 18D4                       15027     610.              LR    R13,R4              Set original VS save stack
 0003C4 12F3                       15028     611.              LTR   R15,R3              Set return code and CC
 0003C6 58E0 D00C            0000C 15029     612.              L     R14,@R13+12         Reset return register
 0003CA 980C D014            00014 15030     613.              LM    R0,R12,@R13+20      Restore registers
 0003CE 07FE                       15031     614.              BR    R14                 And return
1VMNT     (VMNT21) (09:48) (22MAR04) IHAPSAE  - PSA Extension (ESAME)                                                       Page   30
0Current Usings:  (VMNT,R11) (ATTREC,R12)
0Loc    Object Code    Addr1 Addr2  Stmt Lv Lineno    Source Statement           (Hibal 5, Asmedit 3.3)  HLASM R4.0  2004/03/22 09.48
+___    ______ ____    _____ _____  ____ __ ______    ______ _________
0                                  15033     616.     ¿þþþþþþþþþþþþþþþþþþþþþþþþþþþþþþþþþþþþþþþþþþþþþþþþþþþþþþþþþþþþþþþþþþþþþÜ
                                   15034     617.     Ÿ                                                                     Ÿ
                                   15035     618.     Ÿ  Orvyl maintenance has failed, abandon ship                         Ÿ
                                   15036     619.     Ÿ                                                                     Ÿ
                                                      ¾þþþþþþþþþþþþþþþþþþþþþþþþþþþþþþþþþþþþþþþþþþþþþþþþþþþþþþþþþþþþþþþþþþþþþ»
00003D0                            15038     621.     DUMPFAIL LABEL ,
 0003D0 9210 B867      00867       15040     621.01            MVI   RETCDE+3,RET_FAIL   Set bad return
 0003D4 58E0 B62C/0DEE       0062C 15041     621.1             ACALL MSGSUFF             Report which file system
 0003DA 4110 B73E            0073E 15045     623.              SEG   'Filedump failed'   Report filedump failure
 0003DE 4100 000F            0000F 15049             +
 0003E2 41F0 BB1C            00B1C 15057             +
 0003E6 58E0 B5FC/0DEE       005FC 15060             +
 0003EC 58E0 B664/0DEE       00664 15062     623.1             ACALL DOCODE              Set Abend/return code
 0003F2 1B00/41F0 BB1C       00B1C 15066     623.11            SEGWR ,
 0003F8 58E0 B5F8/0DEE       005F8 15088             +
 0003FE 47F0 B216            00216 15090     623.2             B     EXIT                And terminate processing
0000402                            15092     625.     FAIL     LABEL ,
 000402 58E0 B62C/0DEE       0062C 15094     626.              ACALL MSGSUFF                 Report which file system
 000408 58E0 B664/0DEE       00664 15098     627.              ACALL DOCODE                  Set abend/return code
 00040E 41F0 BB1C            00B1C 15102     631.              SENDWTO ,                 ISSUE WTO COMMAND
 000412 4110 0002            00002 15111             +
 000416 4100 0006            00006 15112             +
 00041A 58E0 B630/0DEE       00630 15115             +
 000420 47F0 B216            00216 15117     632.              B     EXIT                And terminate please
-
                                   15119     634.     ¿þþþþþþþþþþþþþþþþþþþþþþþþþþþþþþþþþþþþþþþþþþþþþþþþþþþþþþþþþþþþþþþþþþþþþÜ
                                   15120     635.     Ÿ                                                                     Ÿ
                                   15121     636.     Ÿ  Hard abort exits                                                   Ÿ
                                   15122     637.     Ÿ                                                                     Ÿ
                                                      ¾þþþþþþþþþþþþþþþþþþþþþþþþþþþþþþþþþþþþþþþþþþþþþþþþþþþþþþþþþþþþþþþþþþþþþ»
0000424 900F B8D8            008D8 15124     640.              ABND  1005,'ORVYL NOT TALKING BROTHER'
 000428 4120 B74D            0074D 15128             +
 00042C 4130 0019            00019 15129             +
 000430 4140 03ED            003ED 15130             +
 000434 47F0 B470            00470 15131             +
1VMNT     (VMNT21) (09:48) (22MAR04) IHAPSAE  - PSA Extension (ESAME)                                                       Page   31
0Current Usings:  (VMNT,R11) (ATTREC,R12)
0Loc    Object Code    Addr1 Addr2  Stmt Lv Lineno    Source Statement           (Hibal 5, Asmedit 3.3)  HLASM R4.0  2004/03/22 09.48
+___    ______ ____    _____ _____  ____ __ ______    ______ _________
0                                  15133     642.     ¿þþþþþþþþþþþþþþþþþþþþþþþþþþþþþþþþþþþþþþþþþþþþþþþþþþþþþþþþþþþþþþþþþþþþþÜ
                                   15134     643.     Ÿ                                                                     Ÿ
                                   15135     644.     Ÿ  Trim trailing blanks from a character string                       Ÿ
                                   15136     645.     Ÿ                                                                     Ÿ
                                                      ¾þþþþþþþþþþþþþþþþþþþþþþþþþþþþþþþþþþþþþþþþþþþþþþþþþþþþþþþþþþþþþþþþþþþþþ»
0000438                            15138     647.     RTRIM    LABEL ,                   Right trim character string
 000438 1200/078E                  15140     648.              IF    (R0,Z),RAR          Just return if length is zero
 00043C 5020 D000            00000 15157     649.              VPUSH R2,,*               Save work register
 000440 41D0 D004            00004 15159             +
 000444 1821                       15160     650.              LR    R2,R1               Copy address of string start
 000446 1E20                       15161     651.              ALR   R2,R0               Set address of end of string +1
 000448 5B20 B668            00668 15162     652.              S     R2,=A(1)            Point to last character
 00044C                            15163     653.              LOOP  BEGIN               Find first non-blank character
 00044C 9540 2000      00000       15169  1  654.                CLI   @R2,C' '            Any blank there?
 000450 4770 B460            00460 15170  1  655.                IF    NE,EXIT             Exit loop if non-balnk
 000454 5F20 B668            00668 15184  1  656.                SL    R2,=A(1)            Decrement compare address
 000458 5B00 B668            00668 15185  1  657.                S     R0,=A(1)            Decrement string length
 00045C 4770 B44C            0044C 15186     658.              UNTIL Z,END               Loop back to check next character
 000460 4BD0 B73C            0073C 15205     659.              VPOP  R2,,*               Restore registers
 000464 5820 D000            00000 15207             +
 000468 07FE                       15208     660.              BR    RAR                 And return
-
                                   15210     662.     ¿þþþþþþþþþþþþþþþþþþþþþþþþþþþþþþþþþþþþþþþþþþþþþþþþþþþþþþþþþþþþþþþþþþþþþÜ
                                   15211     663.     Ÿ                                                                     Ÿ
                                   15212     664.     Ÿ  End of file routine for control processing                         Ÿ
                                   15213     665.     Ÿ                                                                     Ÿ
                                                      ¾þþþþþþþþþþþþþþþþþþþþþþþþþþþþþþþþþþþþþþþþþþþþþþþþþþþþþþþþþþþþþþþþþþþþþ»
000046A                            15214     666.     EODROUT  LABEL ,
 00046A 9604 B8D3      008D3       15216     667.              SET   EOF                 Set end of file flag
 00046E 07FE                       15222     668.              BR    R14                 And return after "put" request
-
 000470                            15224     670.     ABORT    LABEL ,
 000470 58E0 B660/0DEE       00660 15226     671.              ACALL DOMMSGS             Kill outstands msgs
 000476 4110 B66C            0066C 15230     672.              SEG   'File maintenance failed for '
 00047A 4100 001C            0001C 15234             +
 00047E 41F0 BB1C            00B1C 15242             +
 000482 58E0 B5FC/0DEE       005FC 15245             +
 000488 58E0 B62C/0DEE       0062C 15247     673.              ACALL MSGSUFF             Which file system
 00048E 41F0 BB1C            00B1C 15251     677.              SENDWTO 2,2               ISSUE WTO COMMAND
 000492 4110 0002            00002 15260             +
 000496 4100 0002            00002 15261             +
 00049A 58E0 B630/0DEE       00630 15264             +
 0004A0 1812/1803                  15266     678.              SEG   (R2),(R3)           Set error message
 0004A4 41F0 BB1C            00B1C 15286             +
 0004A8 58E0 B5FC/0DEE       005FC 15289             +
 0004AE 41F0 BB1C            00B1C 15291     682.              SENDWTO 2,2               Issue WTO command
 0004B2 4110 0002            00002 15300             +
 0004B6 4100 0002            00002 15301             +
1VMNT     (VMNT21) (09:48) (22MAR04) IHAPSAE  - PSA Extension (ESAME)                                                       Page   32
0Current Usings:  (VMNT,R11) (ATTREC,R12)
0Loc    Object Code    Addr1 Addr2  Stmt Lv Lineno    Source Statement           (Hibal 5, Asmedit 3.3)  HLASM R4.0  2004/03/22 09.48
+___    ______ ____    _____ _____  ____ __ ______    ______ _________
00004BA 58E0 B630/0DEE       00630 15304             +
 0004C0 1814/4100 0080       00080 15306     683.              ABEND (R4),DUMP           Abend time
 0004C6 8900 0018/1610       00018 15312             +
 0004CC 0A0D                       15314             +
1VMNT     (VMNT21) (09:48) (22MAR04) IHAPSAE  - PSA Extension (ESAME)                                                       Page   33
0Current Usings:  (VMNT,R11) (ATTREC,R12)
0Loc    Object Code    Addr1 Addr2  Stmt Lv Lineno    Source Statement           (Hibal 5, Asmedit 3.3)  HLASM R4.0  2004/03/22 09.48
+___    ______ ____    _____ _____  ____ __ ______    ______ _________
0                                  15316     685.     ¿þþþþþþþþþþþþþþþþþþþþþþþþþþþþþþþþþþþþþþþþþþþþþþþþþþþþþþþþþþþþþþþþþþþþþÜ
                                   15317     686.     Ÿ                                                                     Ÿ
                                   15318     687.     Ÿ  Search TIOT for specified ddname                                   Ÿ
                                   15319     688.     Ÿ                                                                     Ÿ
                                   15320     689.     Ÿ                                                                     Ÿ
                                   15321     690.     Ÿ    Entry:                                                           Ÿ
                                   15322     691.     Ÿ                R1 -> DDNAME                                         Ÿ
                                   15323     693.     Ÿ                      Z -- DDCARD FOUND                              Ÿ
                                   15324     694.     Ÿ                     NZ -- NO DDCARD FOUND                           Ÿ
                                   15325     695.     Ÿ                                                                     Ÿ
                                                      ¾þþþþþþþþþþþþþþþþþþþþþþþþþþþþþþþþþþþþþþþþþþþþþþþþþþþþþþþþþþþþþþþþþþþþþ»
-0004CE                            15327     698.     FINDDD   LABEL ,
 0004CE 5820 0010            00010 15329     699.              L     R2,CVTPTR           CVT address
 0004D2 5820 2000            00000 15330     700.              L     R2,@R2              Address of TCB words
 0004D6 5820 2004            00004 15331     701.              L     R2,@R2+4            Address of TCB
 USING  TCB,R2                     15332     702.              USING TCB,R2              ##
 0004DA 5820 200C            0002C 15341     703.              L     R2,TCBTIO           Address of tiot
 DROP   TCB,R2                     15342     704.              USING TIOT,R2             ##
 USING  TIOT,R2
 0004DE 4120 2018            00018 15354     705.              LA    R2,TIOELNGH         DD entries
 DROP   TIOT,R2                    15355     706.              USING TIOELNGH,R2         ##
 USING  TIOELNGH,R2
 0004E2 1B33                       15367     707.              CLEAR R3                  Clear for length bytes
 0004E4 9500 2000      00018       15371     708.              WHILE (TIOELNGH,NZ),BEGIN
 0004E8 4780 B500            00500 15384             +
 0004EC D507 1000 2004 00000 0001C 15389  1  709.                CLC   @R1(8),TIOEDDNM     Found ddname?
 0004F2 078E                       15390  1  710.                BER   RAR                 Yep -- return
 0004F4 4330 2000            00018 15391  1  711.                IC    R3,TIOELNGH         Entry length
 0004F8 4123 2000            00000 15392  1  712.                LA    R2,0(R3,R2)         Bump entry address
 0004FC 47F0 B4E4            004E4 15393     713.              END   ,
 000500 9500 B500      00500       15398     714.              CLI   *,0                 Set cc ne
 000504 07FE                       15399     715.              BR    RAR                 Return
-DROP   TIOELNGH,R2                15401     717.              DROP  R2                  Release TIOT addressability
1VMNT     (VMNT21) (09:48) (22MAR04) IHAPSAE  - PSA Extension (ESAME)                                                       Page   34
0Current Usings:  (VMNT,R11) (ATTREC,R12)
0Loc    Object Code    Addr1 Addr2  Stmt Lv Lineno    Source Statement           (Hibal 5, Asmedit 3.3)  HLASM R4.0  2004/03/22 09.48
+___    ______ ____    _____ _____  ____ __ ______    ______ _________
0                                  15409     717.02   ¿þþþþþþþþþþþþþþþþþþþþþþþþþþþþþþþþþþþþþþþþþþþþþþþþþþþþþþþþþþþþþþþþþþþþþÜ
                                   15410     717.03   Ÿ                                                                     Ÿ
                                   15411     717.04   Ÿ  MVS/Operator command interface                                     Ÿ
                                   15412     717.05   Ÿ                                                                     Ÿ
                                   15413     717.06   Ÿ        Pass an operator command to the master-console.  This        Ÿ
                                   15414     717.07   Ÿ        routine operates as a SEG processing routine.                Ÿ
                                   15415     717.08   Ÿ                                                                     Ÿ
                                   15416     717.09   Ÿ        Environment: Calling routine must have APF authorization     Ÿ
                                   15417     717.1    Ÿ        Entry:    R0 - Length of the operator command                Ÿ
                                   15418     717.11   Ÿ                  R1 - Address of operator command                   Ÿ
                                   15419     717.12   Ÿ                                                                     Ÿ
                                                      ¾þþþþþþþþþþþþþþþþþþþþþþþþþþþþþþþþþþþþþþþþþþþþþþþþþþþþþþþþþþþþþþþþþþþþþ»
-000E3E                00766 06F60 15421     717.14            DATA  BEGIN
 000E40 00/00/0000                 15426  1  717.15   CONSEGCB   SEGCB ,                   Reserve space to console seg cb
 CONSEGCBCOD.CONSE 01 EQ
 CONSEGCBCOD.CONSE 02 EQ
 CONSEGCBCOD.CONSE 03 EQ
 CONSEGCBCOD.CONSE 04 EQ
 CONSEGCBCOD.CONSE 05 EQ
 CONSEGCBCOD.CONSE 06 EQ
 CONSEGCBCOD.CONSE 07 EQ
 000E44 00000000                   15503  1          +
 000E48 00000000                   15504  1          +
 000E4C 00000000                   15505  1          +
 000E50 00000000                   15506  1          +
 000E54 00000000                   15507  1          +
 000E58 0000000000000000           15508  1          +
 000E60 00000000                   15509  1          +
 000E64 00000000                   15510  1          +
 000E68 0000000000000000           15511  1          +
 000E78 00000000                   15512  1          +
 000E7C                            15514  1  717.16              DC    0A(0)               Insure fullword alignment
 000E7C 0000                       15515  1  717.17   CONS_LEN   DC    AL2(0)              Command length
 000E7E 0000                       15516  1  717.18   CONS_MCS   DC    AL2(0)              Mcs flags
 000E80 4040404040404040           15517  1  717.19   CONS_STR   DC    CL100' '            Command text string
 000506                00000 06F60 15518     717.2             END   ,
-000506 50E0 D000            00000 15525     717.22   CONSCMD  PROC  ,                   Pass command to the operator console
 00050A 900C D004/188D       00004 15538             +
 000510 41D0 D038/0D70       00038 15540             +
 USING  *,R7                       15563     717.23            WITH  (SEGCB,R5)          Addressability to segcb
 USING  SEGCB,R5
 000516 185F                       15576     717.24            LR    R5,R15              Copy address of segcb
 000518 9502 5000      00000       15577     717.25            IF    (SEGCBWR,OR,SEGCBCR,OR,SEGCBOVF),BEGIN  segwr...
 00051C 4780 701A            00530 15591             +
 000520 9506 5000      00000       15600             +
 000524 4780 701A            00530 15603             +
 000528 9505 5000      00000       15612             +
 00052C 4770 7062            00578 15613             +
 000530                            15618  1  717.26              CLEAR CONS_MCS            Clear mcs flags
 000530 D701 7968 7968 00E7E 00E7E 15624  1          +
1VMNT     (VMNT21) (09:48) (22MAR04) IHAPSAE  - PSA Extension (ESAME)                                                       Page   35
0Current Usings:  (SEGCB,R5) (*,R7) (VMNT,R11) (ATTREC,R12)
0Loc    Object Code    Addr1 Addr2  Stmt Lv Lineno    Source Statement           (Hibal 5, Asmedit 3.3)  HLASM R4.0  2004/03/22 09.48
+___    ______ ____    _____ _____  ____ __ ______    ______ _________
0000536 1820                       15625  1  717.27              LR    R2,R0               Copy length of mvs command
 000538 4100 2004            00004 15626  1  717.28              LA    R0,@R2+4            Adjust for WTO header fields
 00053C 4000 7966            00E7C 15627  1  717.29              STH   R0,CONS_LEN         Save length of command
 000540 4510 7032            00548 15628  1  717.3               MODESET KEY=ZERO          Enter key zero for svc 34
 000544 00000030                   15632  1          +
 000548 5810 1000/0A6B       00000 15633  1          +
 00054E 4110 7966            00E7C 15635  1  717.31              LA    R1,CONS_LEN         Address of mcs command
 000552 1B00                       15636  1  717.32              CLEAR R0                  Ucmid=0 (indicated master console)
 000554 0A22                       15640  1  717.33              SVC   34                  Dear dad, please send money
 000556 0700/4510 704A       00560 15641  1  717.34              MODESET KEY=NZERO         Re-enter problem key
 00055C 00000020                   15645  1          +
 000560 5810 1000/0A6B       00000 15646  1          +
 000566 4110 7172/1BFF       00688 15648  1  717.35              STIMER WAIT,BINTVL==A(25) Wait a 1/4 of a second
 00056C 4100 0091            00091 15653  1          +
 000570 8900 0018/0A2F       00018 15654  1          +
 000576 1302                       15656  1  717.36              LCR   R0,R2               Indicate bytes processed
 000578                            15657     717.37            END   ,
 000578 18D8/980C D004       00004 15661     717.38            PEND  ,                   Return to seg caller
 DROP   SEGCB,R5
 DROP   *,R7
 00057E 58E0 D000/12FF       00000 15682             +
 000584 07FE                       15685             +
1VMNT     (VMNT21) (09:48) (22MAR04) IHAPSAE  - PSA Extension (ESAME)                                                       Page   36
0Current Usings:  (VMNT,R11) (ATTREC,R12)
0Loc    Object Code    Addr1 Addr2  Stmt Lv Lineno    Source Statement           (Hibal 5, Asmedit 3.3)  HLASM R4.0  2004/03/22 09.48
+___    ______ ____    _____ _____  ____ __ ______    ______ _________
0                                  15687     719.     ¿þþþþþþþþþþþþþþþþþþþþþþþþþþþþþþþþþþþþþþþþþþþþþþþþþþþþþþþþþþþþþþþþþþþþþÜ
                                   15688     720.     Ÿ                                                                     Ÿ
                                   15689     721.     Ÿ  Define intitial literal pool and global addressable data           Ÿ
                                   15690     722.     Ÿ  segments.                                                          Ÿ
                                   15691     723.     Ÿ                                                                     Ÿ
                                                      ¾þþþþþþþþþþþþþþþþþþþþþþþþþþþþþþþþþþþþþþþþþþþþþþþþþþþþþþþþþþþþþþþþþþþþþ»
-000588                            15693     725.              LTORG ,                   Generate literal pool
 000588 E5D4D5E3F1F0F1C9           15695                             =C'VMNT101I - Checking GDG initial synchronization.'
 0005B8 D4818995A3859581           15696                             =C'Maintenance in progress.'
 0005D0 E2E8E2D2C1D7E4E3           15697                             =CL8'SYSKAPUT'
 0005D8 D699A5A89340C689           15698                             =CL16'Orvyl File Maintenance'
 0005E8 00000000                   15699                             =A(VMNT)
 0005EC 00020000                   15700                             =A(STCKLEN)
 0005F0 00004AB8                   15701                             =A(Welcome)
 0005F4 00001586                   15702                             =A(SYNCGDG)
 0005F8 00000000                   15703                             =V(SEGWR)
 0005FC 00000000                   15704                             =V(SEG)
 000600 000066E8                   15705                             =A(SYNCIDC)
 000604 00000000                   15706                             =V(SEGBLANK)
 000608 00000000                   15707                             =V(SEGDC)
 00060C 00004440                   15708                             =A(BCV_wrkf)
 000610 00003EEC                   15709                             =A(BCV_stat)
 000614 00004512                   15710                             =A(BCV_Pair)
 000618 00003278                   15711                             =A(BCV_est)
 00061C 000024BC                   15712                             =A(ENQFS)
 000620 00002DEC                   15713                             =A(BCV_splt)
 000624 00002674                   15714                             =A(ENABSYS)
 000628 000046A0                   15715                             =A(BCV_File)
 00062C 0000245E                   15716                             =A(MSGSUFF)
 000630 00004A14                   15717                             =A(SENDWTO)
 000634 00000F20                   15718                             =A(Proc_FD)
 000638 00001030                   15719                             =A(Proc_VRF)
 00063C 000011BE                   15720                             =A(Proc_DMP)
 000640 00001252                   15721                             =A(Proc_Inc)
 000644 00001FC8                   15722                             =A(SYNCLST)
 000648 00000004                   15723                             =AL4(4)
 00064C 1900000C                   15724                             =P'1900000'
 000650 0000004C                   15725                             =A(L'STYP#008)
 000654 00000008                   15726                             =A(T179SUBT)
 000658 000015EA                   15727                             =A(SMFELAP)
 00065C 0000000C                   15728                             =AL4(12)
 000660 00001416                   15729                             =A(DOMMSGS)
 000664 00001474                   15730                             =A(DOCODE)
 000668 00000001                   15731                             =A(1)
 00066C C689938540948189           15732                             =C'File maintenance failed for '
 000688 00000019                   15733                             =A(25)
 00068C 6040                       15734                             =C'- '
 00068E 4089A24081A34087           15735                             =C' is at generation '
 0006A0 E5D4D5E3F8F0F1C9           15736                             =C'VMNT801I - Complete GDG synchronization check.'
 0006CE E5D4D5E3F6F2F8E6           15737                             =C'VMNT628W - Unable to write logging smf record.'
 0006FC C689938540A2A8A2           15738                             =C'File system maintenance FAILED'
 00071A C689938540A2A8A2           15739                             =C'File system maintenance successful'
1VMNT     (VMNT21) (09:48) (22MAR04) IHAPSAE  - PSA Extension (ESAME)                                                       Page   37
0Current Usings:  (VMNT,R11) (ATTREC,R12)
0Loc    Object Code    Addr1 Addr2  Stmt Lv Lineno    Source Statement           (Hibal 5, Asmedit 3.3)  HLASM R4.0  2004/03/22 09.48
+___    ______ ____    _____ _____  ____ __ ______    ______ _________
000073C 0004                       15740                             =Y(4)
 00073E C689938584A49497           15741                             =C'Filedump failed'
 00074D D6D9E5E8D340D5D6           15742                             =C'ORVYL NOT TALKING BROTHER'
1VMNT     (VMNT21) (09:48) (22MAR04) IHAPSAE  - PSA Extension (ESAME)                                                       Page   38
0Current Usings:  (VMNT,R11) (ATTREC,R12)
0Loc    Object Code    Addr1 Addr2  Stmt Lv Lineno    Source Statement           (Hibal 5, Asmedit 3.3)  HLASM R4.0  2004/03/22 09.48
+___    ______ ____    _____ _____  ____ __ ______    ______ _________
0                                  15747     727.     ¿þþþþþþþþþþþþþþþþþþþþþþþþþþþþþþþþþþþþþþþþþþþþþþþþþþþþþþþþþþþþþþþþþþþþþÜ
                                   15748     728.     Ÿ                                                                     Ÿ
                                   15749     729.     Ÿ  Historically this routine would inspect the termination            Ÿ
                                   15750     730.     Ÿ  condition of a subtask and determine if the subtask was            Ÿ
                                   15751     731.     Ÿ  restartable.  Most of the subtasking recovery has been moved       Ÿ
                                   15752     732.     Ÿ  to the Orvyl filedump code.                                        Ÿ
                                   15753     733.     Ÿ                                                                     Ÿ
                                   15754     734.     Ÿ    Entry:    Assumes that the ATTR contains a valid attach record   Ÿ
                                   15755     735.     Ÿ                                                                     Ÿ
                                   15756     736.     Ÿ    Returns:  Z - Subtask has failed                                 Ÿ
                                   15757     737.     Ÿ              P - Subtask has terminated normally                    Ÿ
                                   15758     738.     Ÿ                                                                     Ÿ
                                   15759     739.     Ÿ                                                                     Ÿ
                                                      ¾þþþþþþþþþþþþþþþþþþþþþþþþþþþþþþþþþþþþþþþþþþþþþþþþþþþþþþþþþþþþþþþþþþþþþ»
-000000                00000 00004 15761     739.2    DOT_WRK  RECORD BEGIN              DEFINE STACK WORK AREA
 000000 00000000                   15769  1  739.3    DOT_RETC   DC    A(0)                SUCCEED/FAIL RETURN CODE
 000004                00004 00004 15770     739.4             END   ,
0000EE4 50E0 D000            00000 15780     741.     DOTASK   PROC  DOT_WRK             Enter and save calling registers
 000EE8 900C D004/188D       00004 15794             +
 000EEE 41D0 D03C/0D70       0003C 15797             +
 000EF4 58E0 79E4/0DEE       018D8 15829     742.              ACALL ATTASK              Attach subtask
 USING  *,R7
 USING  DOT_WRK-(4+52),R8
 000EFA 4770 7010            00F04 15833     743.              IF    Z,'MVC DOT_RETC,=A(4)'  Indicate success
 000EFE D203 8038 79E8 00000 018DC 15845             +
 000F04 7014           00F04 00EFC 15850     744.              ELSE  'MVC DOT_RETC,=A(0)'    Indicate dismal failure
 000F04 47F0 701A            00F0E 15855             +
 000F08 D203 8038 79EC 00000 018E0 15862             +
 000F0E 58F0 8038            00000 15867     744.1             L     R15,DOT_RETC
 000F12 18D8/980C D004       00004 15868     745.              PEND  ,                   Restore registers and return
 DROP   DOT_WRK-(4+52),R8
 DROP   *,R7
 000F18 58E0 D000/12FF       00000 15889             +
 000F1E 07FE                       15892             +
1VMNT     (VMNT21) (09:48) (22MAR04) IHAPSAE  - PSA Extension (ESAME)                                                       Page   39
0Current Usings:  (VMNT,R11) (ATTREC,R12)
0Loc    Object Code    Addr1 Addr2  Stmt Lv Lineno    Source Statement           (Hibal 5, Asmedit 3.3)  HLASM R4.0  2004/03/22 09.48
+___    ______ ____    _____ _____  ____ __ ______    ______ _________
0                                  15894     747.     ¿þþþþþþþþþþþþþþþþþþþþþþþþþþþþþþþþþþþþþþþþþþþþþþþþþþþþþþþþþþþþþþþþþþþþþÜ
                                   15895     748.     Ÿ                                                                     Ÿ
                                   15896     749.     Ÿ  Process the Orvyl file directory/catalog structure                 Ÿ
                                   15897     750.     Ÿ                                                                     Ÿ
                                                      ¾þþþþþþþþþþþþþþþþþþþþþþþþþþþþþþþþþþþþþþþþþþþþþþþþþþþþþþþþþþþþþþþþþþþþþ»
-000F20 50E0 D000            00000 15899     752.     Proc_FD  PROC  ,                   Enter and save registers
 000F24 900C D004/188D       00004 15912             +
 000F2A 41D0 D038/0D70       00038 15914             +
 USING  *,R7                       15937     753.              SEGDEF PRTSEG             Latch SEGCB to VMNT report
 000F30 9120 B8D2      008D2       15938     754.              IF    FLNIXR,EXIT         Abort if no ixr dump being done
 000F34 4710 70F2            01022 15950             +
 000F38 58C0 79B4            018E4 15956     769.              L     ATTR,=A(BLDATT)     address of attach record
 000F3C                            15957     770.              CLEAR ATTREC              clear to zeroes
 000F3C D73B C000 C000 00000 00000 15963             +
 000F42 D207 C000 7928 00000 01858 15964     771.              MVC   ATTPGNM,=CL8'VBLD'  directory list program name
 000F48 D207 C008 7930 00008 01860 15965     772.              MVC   ATTDDNM,=CL8'CATDUMP'   set ddname for restart
                                   15966     773.              SEGDEF PRMSEG             Define segcb
 000F4E 41F0 BAE0            00AE0 15967     774.              SEGCLR ,                  Clear seg buffer
 000F52 58E0 79B8/0DEE       018E8 15978             +
 000F58 9180 B8D0      008D0       15980     775.              IF    FLDUMP,BEGIN
 000F5C 47E0 7054            00F84 15990             +
 000F60 4110 79BC            018EC 15995  1  776.                SEG   'DUMP'              Buildup VBLD parameter string
 000F64 4100 0004            00004 15999  1          +
 000F68 41F0 BAE0            00AE0 16007  1          +
 000F6C 58E0 79C0/0DEE       018F0 16010  1          +
 000F72 9108 B8D2      008D2       16012  1  776.1               IF    FL_STACK,BEGIN      PRE-ALLOCATE FOR MULTIPLE FILES
 000F76 47E0 7054            00F84 16022  1          +
 000F7A 4110 7938            01868 16027  2  776.11                LA    R1,=CL16'CATDUMP DIRDUMP '    SET DDNAME, SUFFIX
 000F7E 58E0 79C4/0DEE       018F4 16028  2  776.12                ACALL PREALLOC                      PRE-ALLOCATE TAPE
 000F84                            16032  1  776.2               END   ,
 000F84                            16036     777.              END   ,
 000F84 9180 B8D1      008D1       16040     778.              IF    (FL_BCV,OR,FLBCVDUMP),BEGIN   Processing BCV volumes
 000F88 4710 7064            00F94 16054             +
 000F8C 9104 B8D0      008D0       16063             +
 000F90 47E0 7076            00FA6 16064             +
 000F94 4110 79C8            018F8 16069  1  779.                SEGB  ',BCV'                        Dump from BCV volumes
 000F98 4100 0004            00004 16074  1          +
 000F9C 41F0 BAE0            00AE0 16082  1          +
 000FA0 58E0 79CC/0DEE       018FC 16085  1          +
 000FA6                            16087     780.              END   ,
 000FA6 1B00/41F0 BAE0       00AE0 16091     781.              SEGWR ,                   Update string length
 000FAC 58E0 79D0/0DEE       01900 16113             +
 000FB2 5810 79D4            01904 16115     782.              L     R1,=A(EXECSLEN)     Address of parameter string
                                   16116     783.              SEGDEF PRTSEG             Insure neatness
 000FB6 5010 C024            00024 16117     784.              ST    R1,ATTPRM           save for attach macro
 000FBA 9680 C024      00024       16118     785.              OI    ATTPRM,X'80'        Indicate last parm
 000FBE 58E0 79D8/0DEE       01908 16119     786.              ACALL DOTASK              List file directory
 000FC4 4720 70BE            00FEE 16123     787.              IF    NP,BEGIN            Everyone loses today
 000FC8 9210 B867      00867       16134  1  788.                MVI   RETCDE+3,16         Set bad return
 000FCC 58E0 79DC/0DEE       0190C 16135  1  788.1               ACALL MSGSUFF             Set file system name into message
 000FD2 4110 7A40            01970 16139  1  789.                SEG   'Directory dump failed.'
 000FD6 4100 0016            00016 16143  1          +
1VMNT     (VMNT21) (09:48) (22MAR04) IHAPSAE  - PSA Extension (ESAME)                                                       Page   40
0Current Usings:  (*,R7) (VMNT,R11) (ATTREC,R12)
0Loc    Object Code    Addr1 Addr2  Stmt Lv Lineno    Source Statement           (Hibal 5, Asmedit 3.3)  HLASM R4.0  2004/03/22 09.48
+___    ______ ____    _____ _____  ____ __ ______    ______ _________
0000FDA 41F0 BB1C            00B1C 16151  1          +
 000FDE 58E0 79C0/0DEE       018F0 16154  1          +
 000FE4 58E0 79E0/0DEE       01910 16156  1  789.1               ACALL DOCODE              Report completion codes
 000FEA 47F0 B402            00402 16160  1  790.                B     FAIL                General fail routine
 000FEE 70C2           00FEE 00FC6 16161     791.              END   ELSE,BEGIN          Report successful catalog dump
 000FEE 47F0 70F2            01022 16170             +
 000FF2 58E0 79DC/0DEE       0190C 16176  1  791.1               ACALL MSGSUFF             Set file system name into message
 000FF8 4110 7A72            019A2 16180  1  792.                SEG   'Catalog dump successful'
 000FFC 4100 0017            00017 16184  1          +
 001000 41F0 BB1C            00B1C 16192  1          +
 001004 58E0 79C0/0DEE       018F0 16195  1          +
 00100A 58E0 79E0/0DEE       01910 16197  1  794.                ACALL DOCODE              Set return code
 001010 41F0 BB1C            00B1C 16201  1  798.                SENDWTO ,                 Report status to console
 001014 4110 0002            00002 16210  1          +
 001018 4100 0006            00006 16211  1          +
 00101C 58E0 79E4/0DEE       01914 16214  1          +
 001022                            16216     799.              END   ,
 001022 18D8/980C D004       00004 16220     800.              PEND  ,                   Restore register environment
 DROP   *,R7
 001028 58E0 D000/12FF       00000 16236             +
 00102E 07FE                       16239             +
1VMNT     (VMNT21) (09:48) (22MAR04) IHAPSAE  - PSA Extension (ESAME)                                                       Page   41
0Current Usings:  (VMNT,R11) (ATTREC,R12)
0Loc    Object Code    Addr1 Addr2  Stmt Lv Lineno    Source Statement           (Hibal 5, Asmedit 3.3)  HLASM R4.0  2004/03/22 09.48
+___    ______ ____    _____ _____  ____ __ ______    ______ _________
0                                  16241     802.     ¿þþþþþþþþþþþþþþþþþþþþþþþþþþþþþþþþþþþþþþþþþþþþþþþþþþþþþþþþþþþþþþþþþþþþþÜ
                                   16242     803.     Ÿ                                                                     Ÿ
                                   16243     804.     Ÿ   Process Filedump verify                                           Ÿ
                                   16244     805.     Ÿ                                                                     Ÿ
                                                      ¾þþþþþþþþþþþþþþþþþþþþþþþþþþþþþþþþþþþþþþþþþþþþþþþþþþþþþþþþþþþþþþþþþþþþþ»
-001030 50E0 D000            00000 16246     807.     Proc_VRF PROC  ,                   Enter and save calling registers
 001034 900C D004/188D       00004 16259             +
 00103A 41D0 D038/0D70       00038 16261             +
 USING  *,R7                       16284     808.              SEGDEF PRTSEG             Latch SEGCB to VMNT report
 001040 9120 B8D2      008D2       16285     809.              IF    FLNIXR,EXIT         No IXR dump this time
 001044 4710 7170            011B0 16297             +
 001048 58C0 78D8            01918 16303     810.              L     ATTR,=A(VERATT)     Address of verify record
 00104C                            16304     811.              CLEAR ATTREC              Clear attach record
 00104C D73B C000 C000 00000 00000 16310             +
 001052 D207 C000 7838 00000 01878 16311     812.              MVC   ATTPGNM,=CL8'VERIFY'    set program name
 001058 D207 C008 7840 00008 01880 16312     813.              MVC   ATTDDNM,=CL8'IXRDUMP'   set ddname for restart
 00105E 9640 C020      00020       16313     814.              SET   ATTFRST                 set restart possible
                                   16319     815.              SEGDEF PRMSEG             Define parm buildup segcb
 001062 41F0 BAE0            00AE0 16320     816.              SEGCLR ,                  Clear any residual data
 001066 58E0 78A8/0DEE       018E8 16331             +
 00106C 91C0 B8D0      008D0       16333     817.              IF    (FLDUMP+FLINC),BEGIN
 001070 4780 7098            010D8 16346             +
                                          1                      ¿þþþþþþþþþþþþþþþþþþþþþþþþþþþþþþþþþþþþþþþþþþþþþþþþþþþþþþþþÜ
                                   16351  1  817.1               Ÿ  Request that VERIFY dump the IXR structures           Ÿ
                                   16352  1  817.2               Ÿ        Additional work is needed here to coordinate    Ÿ
                                   16353  1  817.3               Ÿ        the IXRDUMP either to the tape based GDG or to  Ÿ
                                   16354  1  817.4               Ÿ        a DASD holding data set (!!!!)                  Ÿ
                                          1                      ¾þþþþþþþþþþþþþþþþþþþþþþþþþþþþþþþþþþþþþþþþþþþþþþþþþþþþþþþþ»
 001074 4110 7979            019B9 16355  1  818.                SEG   'IXRDUMP'           Request ixr dump
 001078 4100 0007            00007 16359  1          +
 00107C 41F0 BAE0            00AE0 16367  1          +
 001080 58E0 78B0/0DEE       018F0 16370  1          +
 001086 9140 B8D0      008D0       16372  1  818.1               IF    FLINC,'SEG ",INC"'  Request .INCIXR name stem
 00108A 47E0 7060            010A0 16382  1          +
 00108E 4110 78DC            0191C 16391  2          +
 001092 4100 0004            00004 16392  2          +
 001096 41F0 BAE0            00AE0 16400  2          +
 00109A 58E0 78B0/0DEE       018F0 16403  1          +
 0010A0 9180 B8D2      008D2       16409  1  819.                IF    FLDINC,'SEG ",DISK"' Dump IXRS to disk
 0010A4 47E0 707A            010BA 16419  1          +
 0010A8 4110 7980            019C0 16428  2          +
 0010AC 4100 0005            00005 16429  2          +
 0010B0 41F0 BAE0            00AE0 16437  2          +
 0010B4 58E0 78B0/0DEE       018F0 16440  1          +
 0010BA 9108 B8D2      008D2       16446  1  819.01              IF    FL_STACK,BEGIN      PRE-ALLOCATE FOR MULTIPLE FILES
 0010BE 47E0 7098            010D8 16456  1          +
 0010C2 4110 7848            01888 16461  2  819.02                LA    R1,=CL16'IXRDUMP IXRDUMP '    SET DDNAME, SUFFIX
 0010C6 9140 B8D0      008D0       16462  2  819.03                IF    FLINC,BEGIN
 0010CA 47E0 7092            010D2 16472  2          +
 0010CE 4110 7858            01898 16477  3  819.04                  LA    R1,=CL16'IXRDUMP INCIXR  '    SET DDNAME, SUFFIX
 0010D2                            16478  2  819.96                END   ,
 0010D2 58E0 78B4/0DEE       018F4 16482  2  819.97                ACALL PREALLOC                      PRE-ALLOCATE TAPE
1VMNT     (VMNT21) (09:48) (22MAR04) IHAPSAE  - PSA Extension (ESAME)                                                       Page   42
0Current Usings:  (*,R7) (VMNT,R11) (ATTREC,R12)
0Loc    Object Code    Addr1 Addr2  Stmt Lv Lineno    Source Statement           (Hibal 5, Asmedit 3.3)  HLASM R4.0  2004/03/22 09.48
+___    ______ ____    _____ _____  ____ __ ______    ______ _________
00010D8                            16486  1  819.98              END   ,
00010D8                            16491     821.              END   ,
 0010D8 9180 B8D1      008D1       16495     822.              IF    (FL_BCV,OR,FLBCVDUMP),'SEG ",BCV"'
 0010DC 4710 70A8            010E8 16509             +
 0010E0 9104 B8D0      008D0       16518             +
 0010E4 47E0 70BA            010FA 16519             +
 0010E8 4110 78B8            018F8 16528  1          +
 0010EC 4100 0004            00004 16529  1          +
 0010F0 41F0 BAE0            00AE0 16537  1          +
 0010F4 58E0 78B0/0DEE       018F0 16540             +
 0010FA 1B00/41F0 BAE0       00AE0 16546     823.              SEGWR ,                   Update exec parm string length
 001100 58E0 78C0/0DEE       01900 16568             +
                                   16570     824.              SEGDEF PRTSEG             Latch SEGCB to VMNT report
 001106 5810 78C4            01904 16571     825.              L     R1,=A(EXECSLEN)     Address of exec parameter
 00110A 5010 C024            00024 16572     826.              ST    R1,ATTPRM           Set for attach
 00110E 9680 C024      00024       16573     827.              OI    ATTPRM,X'80'        Indicate last parameter
 001112 58E0 78C8/0DEE       01908 16574     828.              ACALL DOTASK              Start up verify procedure
 001118 9180 C020      00020       16578     829.              IF    ATTFABND,BEGIN      Whoops -- sorry mom
 00111C 47E0 70FA            0113A 16588             +
 001120 9210 B867      00867       16593  1  830.                MVI   RETCDE+3,RET_FAIL   Set return code
 001124 4110 7946            01986 16594  1  831.                SEG   'Verify failed for '    Report verify failure
 001128 4100 0012            00012 16598  1          +
 00112C 41F0 BB1C            00B1C 16606  1          +
 001130 58E0 78B0/0DEE       018F0 16609  1          +
 001136 47F0 B402            00402 16611  1  832.                B     FAIL                General fail routine
 00113A 70FE           0113A 0111E 16612     833.              END   ELSE,BEGIN          Normal termination, check ret
 00113A 47F0 715E            0119E 16621             +
 00113E 5820 C034            00034 16627  1  834.                L     R2,ATTRET           Get return code
 001142 1222/4770 713E       0117E 16628  1  835.                IF    (R2,Z),BEGIN        Good return
 001148 5810 B868/1211       00868 16642  2  836.                  LT    R1,VSMSGA           ANY VERIFY COMMAND TO ISSUE?
 00114E 4780 7120            01160 16646  2  837.                  IF    NZ,BEGIN            YEP - SEND COMMAND ACROSS
 001152 9180 B8D0      008D0       16657  3  838.                    IF    FLDUMP,EXIT         BYPASS FOR DUMP
 001156 4710 7120            01160 16669  3          +
 00115A 58E0 78E0/0DEE       01920 16675  3  839.                    ACALL SEND34              ISSUE INTERNAL COMMAND
 001160                            16679  2  840.                  END   ,
                                   16683  2  840.1                 SEGDEF PRTSEG             Establish SEGCB buffer
 001160 58E0 78CC/0DEE       0190C 16684  2  840.2                 ACALL MSGSUFF                 Proper file system
 001166 4110 7985            019C5 16688  2  841.                  SEG   'Verify successful'     Verify was successful
 00116A 4100 0011            00011 16692  2          +
 00116E 41F0 BB1C            00B1C 16700  2          +
 001172 58E0 78B0/0DEE       018F0 16703  2          +
 001178 58E0 78D0/0DEE       01910 16705  2  841.1                 ACALL DOCODE                  Report return code
 00117E 7142           0117E 01146 16709  1  843.                END   ELSE,BEGIN              Bad return from verify
 00117E 47F0 715E            0119E 16718  1          +
 001182 4110 7996            019D6 16724  2  844.                  SEG   'Verify errors exist'
 001186 4100 0013            00013 16728  2          +
 00118A 41F0 BB1C            00B1C 16736  2          +
 00118E 58E0 78B0/0DEE       018F0 16739  2          +
 001194 58E0 78D0/0DEE       01910 16741  2  846.                  ACALL DOCODE                  Report return code
 00119A 9204 B867      00867       16745  2  847.                  MVI   RETCDE+3,RET_WRN        Set return code
 00119E                            16746  1  848.                END   ,
 00119E                            16750     849.              END   ,
 00119E 41F0 BB1C            00B1C 16754     853.              SENDWTO ,                 Report status to console
1VMNT     (VMNT21) (09:48) (22MAR04) IHAPSAE  - PSA Extension (ESAME)                                                       Page   43
0Current Usings:  (*,R7) (VMNT,R11) (ATTREC,R12)
0Loc    Object Code    Addr1 Addr2  Stmt Lv Lineno    Source Statement           (Hibal 5, Asmedit 3.3)  HLASM R4.0  2004/03/22 09.48
+___    ______ ____    _____ _____  ____ __ ______    ______ _________
00011A2 4110 0002            00002 16763             +
 0011A6 4100 0006            00006 16764             +
 0011AA 58E0 78D4/0DEE       01914 16767             +
 0011B0 18D8/980C D004       00004 16769     855.              PEND  ,                   Restore registers and return
 DROP   *,R7
 0011B6 58E0 D000/12FF       00000 16785             +
 0011BC 07FE                       16788             +
1VMNT     (VMNT21) (09:48) (22MAR04) IHAPSAE  - PSA Extension (ESAME)                                                       Page   44
0Current Usings:  (VMNT,R11) (ATTREC,R12)
0Loc    Object Code    Addr1 Addr2  Stmt Lv Lineno    Source Statement           (Hibal 5, Asmedit 3.3)  HLASM R4.0  2004/03/22 09.48
+___    ______ ____    _____ _____  ____ __ ______    ______ _________
0                                  16790     857.     ¿þþþþþþþþþþþþþþþþþþþþþþþþþþþþþþþþþþþþþþþþþþþþþþþþþþþþþþþþþþþþþþþþþþþþþÜ
                                   16791     858.     Ÿ                                                                     Ÿ
                                   16792     859.     Ÿ  Process full file dump request                                     Ÿ
                                   16793     860.     Ÿ                                                                     Ÿ
                                                      ¾þþþþþþþþþþþþþþþþþþþþþþþþþþþþþþþþþþþþþþþþþþþþþþþþþþþþþþþþþþþþþþþþþþþþþ»
-0011BE 50E0 D000            00000 16795     862.     Proc_DMP PROC  ,                   Enter and save calling registers
 0011C2 900C D004/188D       00004 16808             +
 0011C8 41D0 D038/0D70       00038 16810             +
 0011CE 58C0 7756            01924 16833     863.              L     ATTR,=A(FILATT)     Set filedump record
 USING  *,R7
 0011D2                            16834     864.              CLEAR ATTREC              Clear record
 0011D2 D73B C000 C000 00000 00000 16840             +
 0011D8 D207 C000 76DA 00000 018A8 16841     865.              MVC   ATTPGNM,=CL8'FILEDUMP'  set program name
 0011DE 9108 B8D2      008D2       16842     865.01            IF    FL_Stack,BEGIN
 0011E2 47E0 7022            011F0 16852             +
 0011E6 4110 76E2            018B0 16857  1  865.1               LA    R1,=CL16'TAPE00  FILSEG0 '    SET DDNAME, SUFFIX
 0011EA 58E0 7726/0DEE       018F4 16858  1  865.11              ACALL PREALLOC                      Allocate first segment
 0011F0                            16862     865.2             END   ,
                                   16866     866.              SEGDEF PRMSEG             Define exec parm segcb
 0011F0 41F0 BAE0            00AE0 16867     867.              SEGCLR ,                  Clear any residual data
 0011F4 58E0 771A/0DEE       018E8 16878             +
 0011FA 9180 B8D1      008D1       16880     868.              IF    (FL_BCV,OR,FLBCVDUMP),BEGIN
 0011FE 4710 703C            0120A 16894             +
 001202 9104 B8D0      008D0       16903             +
 001206 47E0 704E            0121C 16904             +
 00120A 4110 781B            019E9 16909  1  868.1               SEG   'BCV'               Processing BCV environement
 00120E 4100 0003            00003 16913  1          +
 001212 41F0 BAE0            00AE0 16921  1          +
 001216 58E0 7722/0DEE       018F0 16924  1          +
 00121C                            16926     868.2             END   ,
 00121C 1B00/41F0 BAE0       00AE0 16930     869.              SEGWR ,                   Update exec parm string length
 001222 58E0 7732/0DEE       01900 16952             +
                                   16954     870.              SEGDEF PRTSEG             Neatness counts
 001228 5810 7736            01904 16955     871.              L     R1,=A(EXECSLEN)     Address of exec file parm
 00122C 5010 C024            00024 16956     872.              ST    R1,ATTPRM           And plug for attach
 001230 9680 C024      00024       16957     873.              OI    ATTPRM,X'80'        Mark last parameter
 001234 58E0 773A/0DEE       01908 16958     874.              ACALL DOTASK              Fire off subtask
 00123A 47D0 B3D0            003D0 16962     875.              IF    NP,DUMPFAIL         Indicate failure
 00123E 58E0 775A/0DEE       01928 16976     876.              ACALL DUMPRET             Process filedump return code
 001244 18D8/980C D004       00004 16980     877.              PEND  ,                   Restore registers and return
 DROP   *,R7
 00124A 58E0 D000/12FF       00000 16996             +
 001250 07FE                       16999             +
1VMNT     (VMNT21) (09:48) (22MAR04) IHAPSAE  - PSA Extension (ESAME)                                                       Page   45
0Current Usings:  (VMNT,R11) (ATTREC,R12)
0Loc    Object Code    Addr1 Addr2  Stmt Lv Lineno    Source Statement           (Hibal 5, Asmedit 3.3)  HLASM R4.0  2004/03/22 09.48
+___    ______ ____    _____ _____  ____ __ ______    ______ _________
0                                  17001     879.     ¿þþþþþþþþþþþþþþþþþþþþþþþþþþþþþþþþþþþþþþþþþþþþþþþþþþþþþþþþþþþþþþþþþþþþþÜ
                                   17002     880.     Ÿ                                                                     Ÿ
                                   17003     881.     Ÿ  Process incremental dump request                                   Ÿ
                                   17004     882.     Ÿ                                                                     Ÿ
                                                      ¾þþþþþþþþþþþþþþþþþþþþþþþþþþþþþþþþþþþþþþþþþþþþþþþþþþþþþþþþþþþþþþþþþþþþþ»
-001252 50E0 D000            00000 17006     884.     Proc_Inc PROC  ,                   Enter and save registers
 001256 900C D004/188D       00004 17019             +
 00125C 41D0 D038/0D70       00038 17021             +
 001262 58C0 76C2            01924 17044     885.              L     ATTR,=A(FILATT)     Set filedump record
 USING  *,R7
 001266                            17045     886.              CLEAR ATTREC              Zero attach record
 001266 D73B C000 C000 00000 00000 17051             +
 00126C D207 C000 7646 00000 018A8 17052     887.              MVC   ATTPGNM,=CL8'FILEDUMP'  set program name
                                   17053     888.              SEGDEF PRMSEG             Define exec field segcb
 001272 41F0 BAE0            00AE0 17054     889.              SEGCLR ,                  Zero exec field parameter
 001276 58E0 7686/0DEE       018E8 17065             +
 00127C 4110 778A            019EC 17067     890.              SEG   'Inc'               Tell FILEDUMP it's incremental
 001280 4100 0003            00003 17071             +
 001284 41F0 BAE0            00AE0 17079             +
 001288 58E0 768E/0DEE       018F0 17082             +
 00128E 9180 B8D1      008D1       17084     891.              IF    (FL_BCV,OR,FLBCVDUMP),BEGIN
 001292 4710 703C            0129E 17098             +
 001296 9104 B8D0      008D0       17107             +
 00129A 47E0 704E            012B0 17108             +
 00129E 4110 7696            018F8 17113  1  891.1               SEG   ',BCV'              Processing BCV environment
 0012A2 4100 0004            00004 17117  1          +
 0012A6 41F0 BAE0            00AE0 17125  1          +
 0012AA 58E0 768E/0DEE       018F0 17128  1          +
 0012B0                            17130     891.2             END   ,
 0012B0 1B00/41F0 BAE0       00AE0 17134     892.              SEGWR ,                   Update exec field string length
 0012B6 58E0 769E/0DEE       01900 17156             +
                                   17158     893.              SEGDEF PRTSEG             Neatness counts
 0012BC 5810 76A2            01904 17159     894.              L     R1,=A(EXECSLEN)     Address of exec file parameter
 0012C0 5010 C024            00024 17160     895.              ST    R1,ATTPRM           And plug for attach
 0012C4 9680 C024      00024       17161     896.              OI    ATTPRM,X'80'        Mark as last parameter
 0012C8 58E0 76A6/0DEE       01908 17162     897.              ACALL DOTASK              Fire off incremental dump
 0012CE 47D0 B3D0            003D0 17166     898.              IF    NP,DUMPFAIL         Incremental dump failed
 0012D2 58E0 76C6/0DEE       01928 17180     899.              ACALL DUMPRET             Report filedump return code
 0012D8 4120 B880            00880 17184     900.              LA    R2,FSNAME           First file system name
 0012DC 9120 B8D4      008D4       17185     901.              IF    ~DISABLE,BEGIN      Turn system on if not disabling
 0012E0 4710 7090            012F2 17195             +
 0012E4 58E0 76CA/0DEE       0192C 17200  1  902.                ACALL ENABSYS             Enable all file systems
                                          1                      ¿þþþþþþþþþþþþþþþþþþþþþþþþþþþþþþþþþþþþþþþþþþþþþþþÜ
                                   17204  1  902.1               Ÿ  Swap flags for incremental offload function  Ÿ
                                          1                      ¾þþþþþþþþþþþþþþþþþþþþþþþþþþþþþþþþþþþþþþþþþþþþþþþ»
 0012EA 94BF B8D0      008D0       17205  1  902.2               CLEAR FLINC               Clear processing incremental dump
 0012EE 9620 B8D0      008D0       17212  1  902.3               SET   FLOFFLOAD           Set for "offload" function & msgs
 0012F2                            17218     903.              END   ,
-0012F2 9110 B8D2      008D2       17223     905.              IF    ~FLNOFF,BEGIN       Offload incremental data
 0012F6 4710 70E2            01344 17233             +
1VMNT     (VMNT21) (09:48) (22MAR04) IHAPSAE  - PSA Extension (ESAME)                                                       Page   46
0Current Usings:  (*,R7) (VMNT,R11) (ATTREC,R12)
0Loc    Object Code    Addr1 Addr2  Stmt Lv Lineno    Source Statement           (Hibal 5, Asmedit 3.3)  HLASM R4.0  2004/03/22 09.48
+___    ______ ____    _____ _____  ____ __ ______    ______ _________
00012FA 58C0 76C2            01924 17238  1  906.                L     ATTR,=A(FILATT)     Set filedump record
 0012FE                            17239  1  907.                CLEAR ATTREC              Zero attach record
 0012FE D73B C000 C000 00000 00000 17245  1          +
 001304 D207 C000 7646 00000 018A8 17246  1  908.                MVC   ATTPGNM,=CL8'FILEDUMP'  set program name
                                   17247  1  909.                SEGDEF PRMSEG             Define exec parm seg control block
 00130A 4110 778D            019EF 17248  1  910.                SEGB  'OFFLOAD'           Set for tape offload function
 00130E 4100 0007            00007 17253  1          +
 001312 41F0 BAE0            00AE0 17261  1          +
 001316 58E0 769A/0DEE       018FC 17264  1          +
 00131C 1B00/41F0 BAE0       00AE0 17266  1  911.                SEGWR ,                   Update exec parm string length
 001322 58E0 769E/0DEE       01900 17288  1          +
                                   17290  1  912.                SEGDEF PRTSEG             For neatness
 001328 5810 76A2            01904 17291  1  913.                L     R1,=A(EXECSLEN)     Address of exec parm string
 00132C 5010 C024            00024 17292  1  914.                ST    R1,ATTPRM           And plug for attach
 001330 9680 C024      00024       17293  1  915.                OI    ATTPRM,X'80'        Mark as last parameter
 001334 58E0 76A6/0DEE       01908 17294  1  916.                ACALL DOTASK              File off offload function
 00133A 47D0 B3D0            003D0 17298  1  917.                IF    NP,DUMPFAIL         Offload function has failed
 00133E 58E0 76C6/0DEE       01928 17312  1  918.                ACALL DUMPRET             Report offload return code
 001344                            17316     919.              END   ,
 001344 18D8/980C D004       00004 17320     920.              PEND  ,                   Restore registers and return
 DROP   *,R7
 00134A 58E0 D000/12FF       00000 17336             +
 001350 07FE                       17339             +
1VMNT     (VMNT21) (09:48) (22MAR04) IHAPSAE  - PSA Extension (ESAME)                                                       Page   47
0Current Usings:  (VMNT,R11) (ATTREC,R12)
0Loc    Object Code    Addr1 Addr2  Stmt Lv Lineno    Source Statement           (Hibal 5, Asmedit 3.3)  HLASM R4.0  2004/03/22 09.48
+___    ______ ____    _____ _____  ____ __ ______    ______ _________
0                                  17341     922.     ¿þþþþþþþþþþþþþþþþþþþþþþþþþþþþþþþþþþþþþþþþþþþþþþþþþþþþþþþþþþþþþþþþþþþþþÜ
                                   17342     923.     Ÿ                                                                     Ÿ
                                   17343     924.     Ÿ   Process Filedump return code                                      Ÿ
                                   17344     925.     Ÿ                                                                     Ÿ
                                                      ¾þþþþþþþþþþþþþþþþþþþþþþþþþþþþþþþþþþþþþþþþþþþþþþþþþþþþþþþþþþþþþþþþþþþþþ»
-001352 50E0 D000            00000 17346     927.     DUMPRET  PROC  ,                   Enter and save calling registers
 001356 900C D004/188D       00004 17359             +
 00135C 41D0 D038/0D70       00038 17361             +
 001362 5820 C034            00034 17384     928.              L     R2,ATTRET           Set filedump return code
 USING  *,R7
 001366 5420 75CE            01930 17385     929.              N     R2,=A(X'FFF')       Strip unwanted bits
 00136A 5920 75D2            01934 17386     930.              IF    (R2,GE,8),BEGIN     Global failure for filedump
 00136E 4750 7014            01376 17398             +
 001372 920C B867      00867       17403  1  931.                MVI   RETCDE+3,12         Indicate boo-boo has happened
 001376                            17404     932.              END   ,
 001376 5810 B850/1211       00850 17408     933.              LT    R1,DOMDMP           Set dom id for filedump msg's
 00137C 4780 7024            01386 17412     934.              IF    NZ,BEGIN            Delete last message
 001380 4100 0000/0A57       00000 17423  1  935.                DOM   MSG=(1)             Delete last message id
 001386                            17426     936.              END   ,
                                   17430     936.1             SEGDEF PRTSEG             Establish SEGCB control
 001386 58E0 75AA/0DEE       0190C 17431     936.2             ACALL MSGSUFF             Inform which file system
 00138C 9180 B8D0      008D0       17435     936.3             IF     FLDUMP,'SEG "Filedump"'          Full Dump
 001390 47E0 7044            013A6 17445             +
 001394 4110 755E            018C0 17454  1          +
 001398 4100 0008            00008 17455  1          +
 00139C 41F0 BB1C            00B1C 17463  1          +
 0013A0 58E0 758E/0DEE       018F0 17466             +
 0013A6 7048           013A6 01392 17472     936.4             ELSEIF FLINC,'SEG "Incremental dump"'   Incremental
 0013A6 47F0 7062            013C4 17478             +
 0013AA 9140 B8D0      008D0       17490             +
 0013AE 47E0 7062            013C4 17491             +
 0013B2 4110 7566            018C8 17500  1          +
 0013B6 4100 0010            00010 17501  1          +
 0013BA 41F0 BB1C            00B1C 17509  1          +
 0013BE 58E0 758E/0DEE       018F0 17512             +
 0013C4 7066           013C4 013B0 17518     937.              ELSE         'SEG "Offload"'            Offload
 0013C4 47F0 7078            013DA 17523             +
 0013C8 4110 7694            019F6 17533  1          +
 0013CC 4100 0007            00007 17534  1          +
 0013D0 41F0 BB1C            00B1C 17542  1          +
 0013D4 58E0 758E/0DEE       018F0 17545             +
 0013DA 4110 7636            01998 17551     937.1             SEG   ' completed'        Continue message buildup
 0013DE 4100 000A            0000A 17555             +
 0013E2 41F0 BB1C            00B1C 17563             +
 0013E6 58E0 758E/0DEE       018F0 17566             +
 0013EC 58E0 75AE/0DEE       01910 17568     939.              ACALL DOCODE              Report return code
 0013F2 41F0 BB1C            00B1C 17572     943.              SENDWTO ,                 Issue wto command
 0013F6 4110 0002            00002 17581             +
 0013FA 4100 0006            00006 17582             +
 0013FE 58E0 75B2/0DEE       01914 17585             +
 001404 50F0 B850            00850 17587     944.              ST    R15,DOMDMP          Save dom id for next message
 001408 18D8/980C D004       00004 17588     945.              PEND  ,                   Restore registers and return
1VMNT     (VMNT21) (09:48) (22MAR04) IHAPSAE  - PSA Extension (ESAME)                                                       Page   48
0Current Usings:  (VMNT,R11) (ATTREC,R12)
0Loc    Object Code    Addr1 Addr2  Stmt Lv Lineno    Source Statement           (Hibal 5, Asmedit 3.3)  HLASM R4.0  2004/03/22 09.48
+___    ______ ____    _____ _____  ____ __ ______    ______ _________
0DROP   *,R7
 00140E 58E0 D000/12FF       00000 17604             +
 001414 07FE                       17607             +
1VMNT     (VMNT21) (09:48) (22MAR04) IHAPSAE  - PSA Extension (ESAME)                                                       Page   49
0Current Usings:  (VMNT,R11) (ATTREC,R12)
0Loc    Object Code    Addr1 Addr2  Stmt Lv Lineno    Source Statement           (Hibal 5, Asmedit 3.3)  HLASM R4.0  2004/03/22 09.48
+___    ______ ____    _____ _____  ____ __ ______    ______ _________
0                                  17609     947.     ¿þþþþþþþþþþþþþþþþþþþþþþþþþþþþþþþþþþþþþþþþþþþþþþþþþþþþþþþþþþþþþþþþþþþþþÜ
                                   17610     948.     Ÿ                                                                     Ÿ
                                   17611     949.     Ÿ  Delete outstanding messages from operator console                  Ÿ
                                   17612     950.     Ÿ                                                                     Ÿ
                                                      ¾þþþþþþþþþþþþþþþþþþþþþþþþþþþþþþþþþþþþþþþþþþþþþþþþþþþþþþþþþþþþþþþþþþþþþ»
0001416 50E0 D000            00000 17614     952.     DOMMSGS  PROC  ,                   Enter and save calling registers
 00141A 900C D004/188D       00004 17627             +
 001420 41D0 D038/0D70       00038 17629             +
 001426 5810 B848            00848 17652     953.              L     R1,DOMSTAT          Any statistic msg-id
 USING  *,R7
 00142A 1211/4780 7010       01436 17653     954.              IF    (R1,NZ),BEGIN       Kill-itt
 001430 4100 0000/0A57       00000 17667  1  955.                DOM   MSG=(1)             Delete operator message
 001436                            17670     956.              END   ,
 001436 5810 B844            00844 17674     957.              L     R1,DOMWAIT          Wait msg-id
 00143A 1211/4780 7020       01446 17675     958.              IF    (R1,NZ),BEGIN       Any waiting for maintenance msg
 001440 4100 0000/0A57       00000 17689  1  959.                DOM   MSG=(1)             Kill-it also
 001446                            17692     960.              END   ,                   Delete operator message
 001446 5810 B84C/1211       0084C 17696     961.              LT    R1,DOMVFRY          Any verify message outstanding?
 00144C 4780 7030            01456 17700     962.              IF    NZ,BEGIN            Yes -- kill it
 001450 4100 0000/0A57       00000 17711  1  963.                DOM   MSG=(1)             Delete operator message
 001456                            17714     964.              END   ,
 001456 5810 B850/1211       00850 17718     965.              LT    R1,DOMDMP           Any Filedump messages outstanding
 00145C 4780 7040            01466 17722     966.              IF    NZ,BEGIN            Yes -- Kill them too
 001460 4100 0000/0A57       00000 17733  1  967.                DOM   MSG=(1)             Delete operator message
 001466                            17736     968.              END   ,
 001466 18D8/980C D004       00004 17740     969.              PEND  ,                   ...and return to your caller
 DROP   *,R7
 00146C 58E0 D000/12FF       00000 17756             +
 001472 07FE                       17759             +
1VMNT     (VMNT21) (09:48) (22MAR04) IHAPSAE  - PSA Extension (ESAME)                                                       Page   50
0Current Usings:  (VMNT,R11) (ATTREC,R12)
0Loc    Object Code    Addr1 Addr2  Stmt Lv Lineno    Source Statement           (Hibal 5, Asmedit 3.3)  HLASM R4.0  2004/03/22 09.48
+___    ______ ____    _____ _____  ____ __ ______    ______ _________
0                                  17761     971.     ¿þþþþþþþþþþþþþþþþþþþþþþþþþþþþþþþþþþþþþþþþþþþþþþþþþþþþþþþþþþþþþþþþþþþþþÜ
                                   17762     972.     Ÿ                                                                     Ÿ
                                   17763     973.     Ÿ  Report abend/return code from subtask                              Ÿ
                                   17764     974.     Ÿ                                                                     Ÿ
                                                      ¾þþþþþþþþþþþþþþþþþþþþþþþþþþþþþþþþþþþþþþþþþþþþþþþþþþþþþþþþþþþþþþþþþþþþþ»
-001474 50E0 D000            00000 17766     976.     DOCODE   PROC  ,                   Enter and save registers
 001478 900C D004/188D       00004 17779             +
 00147E 41D0 D038/0D70       00038 17781             +
 USING  *,R7                       17804     977.              SEGDEF PRTSEG             Latch SEGCB to VMNT report
 001484 9180 C020      00020       17805     979.              IF    ATTFABND,BEGIN      Subtask abended
 001488 47E0 7056            014DA 17815             +
 00148C 4110 7579            019FD 17820  1  980.                SEG   ', Code='           Report abend code and return
 001490 4100 0007            00007 17824  1          +
 001494 41F0 BB1C            00B1C 17832  1          +
 001498 58E0 746C/0DEE       018F0 17835  1          +
 00149E 4820 C038            00038 17837  1  981.                LH    R2,ATTABND          System abend code
 0014A2 1222/4780 702C       014B0 17838  1  982.                IF    (R2,NZ),BEGIN       If this was a system abend
 0014A8 4110 7580            01A04 17852  2  983.                  SETMSG 'S'                Indicate system abend
 0014AC 4100 0001            00001 17855  2          +
 0014B0 7030           014B0 014A6 17856  1  984.                END   ELSE,BEGIN          For user abend code
 0014B0 47F0 703C            014C0 17865  1          +
 0014B4 4110 7581            01A05 17871  2  985.                  SETMSG 'U'                Indicate a user abend request
 0014B8 4100 0001            00001 17874  2          +
 0014BC 4820 C03A            0003A 17875  2  986.                  LH    R2,ATTUSR           Get user abend
 0014C0                            17876  1  987.                END   ,
 0014C0 41F0 BB1C            00B1C 17880  1  988.                SEG   (1),(0)             Set prefix
 0014C4 58E0 746C/0DEE       018F0 17903  1          +
 0014CA 1812/4100 0003       00003 17905  1  989.                SEGHX (R2),3              Convert abend code to hex
 0014D0 41F0 BB1C            00B1C 17924  1          +
 0014D4 58E0 74B4/0DEE       01938 17927  1          +
 0014DA 705A           014DA 0148A 17929     990.              END   ELSE,BEGIN          Normal termination
 0014DA 47F0 707E            01502 17938             +
 0014DE 4110 7582            01A06 17944  1  991.                SEG   ', Return='         Tell about return code
 0014E2 4100 0009            00009 17948  1          +
 0014E6 41F0 BB1C            00B1C 17956  1          +
 0014EA 58E0 746C/0DEE       018F0 17959  1          +
 0014F0 58F0 C034            00034 17961  1  992.                L     R15,ATTRET          Get return code
 0014F4 181F/1B00                  17962  1  993.                SEGDC (R15),0             Convert into line
 0014F8 41F0 BB1C            00B1C 17978  1          +
 0014FC 58E0 74B8/0DEE       0193C 17981  1          +
 001502                            17983     994.              END   ,
 001502 18D8/980C D004       00004 17987     995.              PEND  ,                   Return to caller
 DROP   *,R7
 001508 58E0 D000/12FF       00000 18003             +
 00150E 07FE                       18006             +
1VMNT     (VMNT21) (09:48) (22MAR04) IHAPSAE  - PSA Extension (ESAME)                                                       Page   51
0Current Usings:  (VMNT,R11) (ATTREC,R12)
0Loc    Object Code    Addr1 Addr2  Stmt Lv Lineno    Source Statement           (Hibal 5, Asmedit 3.3)  HLASM R4.0  2004/03/22 09.48
+___    ______ ____    _____ _____  ____ __ ______    ______ _________
0                                  18008     997.     ¿þþþþþþþþþþþþþþþþþþþþþþþþþþþþþþþþþþþþþþþþþþþþþþþþþþþþþþþþþþþþþþþþþþþþþÜ
                                   18009     998.     Ÿ                                                                     Ÿ
                                   18010     999.     Ÿ Routine to search TCB chain for program name                        Ÿ
                                   18011    1000.     Ÿ                                                                     Ÿ
                                                      ¾þþþþþþþþþþþþþþþþþþþþþþþþþþþþþþþþþþþþþþþþþþþþþþþþþþþþþþþþþþþþþþþþþþþþþ»
-001510 50E0 D000            00000 18013    1002.     TCBSRCH  PROC  ,                   Enter and save registers
 001514 900C D004/188D       00004 18026             +
 00151A 41D0 D038/0D70       00038 18028             +
 001520 1831                       18051    1003.              LR    R3,R1               Save name pointer
 USING  *,R7
 001522 58F0 0010            00010 18052    1004.              L     R15,CVTPTR          CVT address
 001526 41F0 F094            00094 18053    1005.              WITH  (CVTMAP,R15),'LA R15,CVTMSER-(CHPTR-CSCB)'
 USING  CVTMAP,R15
 DROP   CVTMAP,R15
 USING  CSCB,R15                   18077    1006.              WITH  (CSCB,R15)          CSCB Addressability
 00152A 58F0 F000/12FF       00000 18090    1007.              WHILE ('LT R15,CHPTR',NZ),BEGIN
 001530 4780 7022            01542 18103             +
 001534 D507 F010 3000 00010 00000 18108  1 1008.                CLC   CHCLS,@R3           The one we want?
 00153A 4780 7022            01542 18109  1 1009.                IF    E,EXIT              Yep - time to exit
 00153E 47F0 700A            0152A 18123    1010.              END   ,                   Go check next TCB on chain
 001542 18D8/980C D004       00004 18128    1011.              PEND  ,                   Restore registers and return
 DROP   CSCB,R15
 DROP   *,R7
 001548 58E0 D000/12FF       00000 18149             +
 00154E 07FE                       18152             +
-
                                   18154    1013.     ¿þþþþþþþþþþþþþþþþþþþþþþþþþþþþþþþþþþþþþþþþþþþþþþþþþþþþþþþþþþþþþþþþþþþþþÜ
                                   18155    1014.     Ÿ                                                                     Ÿ
                                   18156    1015.     Ÿ  Quiesce specified Orvyl file system                                Ÿ
                                   18157    1016.     Ÿ                                                                     Ÿ
                                                      ¾þþþþþþþþþþþþþþþþþþþþþþþþþþþþþþþþþþþþþþþþþþþþþþþþþþþþþþþþþþþþþþþþþþþþþ»
0001550 50E0 D000            00000 18158    1017.     QUIESCE  PROC  ,                   Enter and save calling registers
 001554 900C D004/188D       00004 18171             +
 00155A 41D0 D038/0D70       00038 18173             +
 001560 58C0 73E0            01940 18196    1018.              L     ATTR,=A(VAMATT)     Attach record for orvcom
 USING  *,R7
 001564 5810 73E4            01944 18197    1019.              L     R1,=A(ORVCOMNM)     Address of program name
 001568 D207 C000 1000 00000 00000 18198    1020.              MVC   ATTPGNM,@R1         Set program name
 00156E 58E0 7378/0DEE       018D8 18199    1021.              ACALL ATTASK              Quiesce file system
 001574 4770 B424            00424 18203    1022.              IF    NZ,A1005            Shouldn't happen
 001578 18D8/980C D004       00004 18217    1023.              PEND  ,                   Return to caller
 DROP   *,R7
 00157E 58E0 D000/12FF       00000 18233             +
 001584 07FE                       18236             +
1VMNT     (VMNT21) (09:48) (22MAR04) IHAPSAE  - PSA Extension (ESAME)                                                       Page   52
0Current Usings:  (VMNT,R11) (ATTREC,R12)
0Loc    Object Code    Addr1 Addr2  Stmt Lv Lineno    Source Statement           (Hibal 5, Asmedit 3.3)  HLASM R4.0  2004/03/22 09.48
+___    ______ ____    _____ _____  ____ __ ______    ______ _________
0                                  18238    1025.     ¿þþþþþþþþþþþþþþþþþþþþþþþþþþþþþþþþþþþþþþþþþþþþþþþþþþþþþþþþþþþþþþþþþþþþþÜ
                                   18239    1026.     Ÿ                                                                     Ÿ
                                   18240    1027.     Ÿ  GDG support routines                                               Ÿ
                                   18241    1028.     Ÿ              report current generation level for dump set           Ÿ
                                   18242    1029.     Ÿ                                                                     Ÿ
                                                      ¾þþþþþþþþþþþþþþþþþþþþþþþþþþþþþþþþþþþþþþþþþþþþþþþþþþþþþþþþþþþþþþþþþþþþþ»
-001586 50E0 D000            00000 18244    1031.     SYNCGDG  PROC  ,                   Enter and save calling registers
 00158A 900C D004/188D       00004 18257             +
 001590 41D0 D038/0D70       00038 18259             +
 001596 4110 7040            015D6 18282    1032.              LA    R1,SYNCEOD          Set control dcb eod address
 USING  *,R7
 00159A 58E0 73B2/0DEE       01948 18283    1033.              ACALL OPNCONT             Open control file
 0015A0                            18287    1034.              CLEAR GDGCNTR             Zero counter
 0015A0 D703 B928 B928 00928 00928 18293             +
 0015A6                            18294    1035.              LOOP  BEGIN               Process control file
 0015A6 4110 BD44            00D44 18300  1 1036.                GET   CNTDCB,CNTCARD      Read parameter card from file
 0015AA 4100 BCC8/1FFF       00CC8 18303  1          +
 0015B0 BFF7 1031/05EF       00031 18305  1          +
 0015B6 4110 BCC8            00CC8 18307  1 1037.                SCINIT CNTCARD,L'CNTCARD,SCNCB      initialize scanner
 0015BA 4100 0050            00050 18321  1          +
 0015BE 41F0 BA14            00A14 18328  1          +
 0015C2 58E0 73B6/0DEE       0194C 18331  1          +
 0015C8 5810 73BA            01950 18333  1 1038.                SCAN  L:=A(CNTKWRT),(R15) Process parameter card
 0015CC 58E0 73BE/0DEE       01954 18345  1          +
 0015D2 47F0 7010            015A6 18347    1039.              END   ,
 0015D6                            18352    1040.     SYNCEOD  LABEL ,                   Eod exit address for control file
 0015D6 58E0 73C2/0DEE       01958 18354    1041.              ACALL CLSCONT             Close control file
 0015DC 18D8/980C D004       00004 18358    1042.              PEND  ,
 DROP   *,R7
 0015E2 58E0 D000/12FF       00000 18374             +
 0015E8 07FE                       18377             +
1VMNT     (VMNT21) (09:48) (22MAR04) IHAPSAE  - PSA Extension (ESAME)                                                       Page   53
0Current Usings:  (VMNT,R11) (ATTREC,R12)
0Loc    Object Code    Addr1 Addr2  Stmt Lv Lineno    Source Statement           (Hibal 5, Asmedit 3.3)  HLASM R4.0  2004/03/22 09.48
+___    ______ ____    _____ _____  ____ __ ______    ______ _________
0                                  18379    1043.01   ¿þþþþþþþþþþþþþþþþþþþþþþþþþþþþþþþþþþþþþþþþþþþþþþþþþþþþþþþþþþþþþþþþþþþþþÜ
                                   18380    1043.02   Ÿ                                                                     Ÿ
                                   18381    1043.03   Ÿ  SMFELAP - Compute elapsed time                                     Ÿ
                                   18382    1043.04   Ÿ                                                                     Ÿ
                                   18383    1043.32   Ÿ  Compute elapsed time in (.01) second units from a starting         Ÿ
                                   18384    1043.33   Ÿ  and ending SMF format time/date pairs.  This routine is Y2K        Ÿ
                                   18385    1043.34   Ÿ  compliant.  The offset value for GMT to LT is not relevant in      Ÿ
                                   18386    1043.35   Ÿ  this case in that we are interested in a time interval and not     Ÿ
                                   18387    1043.36   Ÿ  a particular time of day.                                          Ÿ
                                   18388    1043.37   Ÿ                                                                     Ÿ
                                   18389    1043.38   Ÿ    Entry:    R1 - Address of a four word list                       Ÿ
                                   18390    1043.39   Ÿ                   +0 SMF format starting time                       Ÿ
                                   18391    1043.4    Ÿ                   +4 SMF format starting date                       Ÿ
                                   18392    1043.41   Ÿ                   +8 SMF format ending time                         Ÿ
                                   18393    1043.42   Ÿ                  +12 SMF format ending date                         Ÿ
                                   18394    1043.43   Ÿ                                                                     Ÿ
                                   18395    1043.44   Ÿ    Returns:  R1 - 32-bit unsigned integer in (.01) second units     Ÿ
                                   18396    1043.45   Ÿ                                                                     Ÿ
                                                      ¾þþþþþþþþþþþþþþþþþþþþþþþþþþþþþþþþþþþþþþþþþþþþþþþþþþþþþþþþþþþþþþþþþþþþþ»
-0015EA 50E0 D000            00000 18398    1043.47   SMFELAP  PROC  STIM_WRK            Enter and save calling registers
 0015EE 900C D004/188D       00004 18412             +
 0015F4 41D0 D058/0D70       00058 18415             +
 0015FA 1821                       18447    1043.48            LR    R2,R1               Save address of smf pairs
 USING  *,R7
 USING  STIM_WRK-(4+52),R8
 0015FC                            18448    1043.49            CLEAR STIM_WRK            Clear conversion time/date work
 0015FC D71F 8038 8038 00000 00000 18454             +
 001602 D203 8038 2000 00000 00000 18455    1043.5             MVC   STIM_TIM,@R2+00     Set time in .01 second units
 001608 D203 8040 2004 00008 00004 18456    1043.51            MVC   STIM_DAT,@R2+04     Set date in 0cyydddf format
                                                               ¿þþþþþþþþþþþþþþþþþþþþþþþþþþþþþþÜ
                                   18457    1043.52            Ÿ  Convert starting time/date  Ÿ
                                                               ¾þþþþþþþþþþþþþþþþþþþþþþþþþþþþþþ»
                                   18458    1043.53 C          CONVTOD CONVVAL=STIM_WRK,TODVAL=STIM_TD1,
 00160E 5110 0000            00000          1043.54                  TIMETYPE=BIN,DATETYPE=YYDDD
 001612 4110 703A            01634 18462             +
 001616 D71F 1000 1000 00000 00000 18463             +
 00161C 9204 1002      00002       18464             +
 001620 9201 1003      00003       18465             +
 001624 51E0 8038            00000 18466             +
 001628 D20F 1008 E000 00008 00000 18467             +
 00162E 47F0 705A/0000       01654 18468             +
 001636 00/00/00000000             18471             +
 00163C 0000000000000000           18474             +
 001644 0000000000000000           18475             +
 00164C 0000000000000000           18476             +
 001654 58E0 0010            00010 18478             +
 001658 58EE 0304            00304 18479             +
 00165C 58EE 0160            00160 18480             +
 001660 B218 E000      00000       18481             +
 001664 51E0 8048            00010 18482             +
 001668 D207 E000 1018 00000 00018 18483             +
1VMNT     (VMNT21) (09:48) (22MAR04) IHAPSAE  - PSA Extension (ESAME)                                                       Page   54
0Current Usings:  (*,R7) (STIM_WRK-(4+52),R8) (VMNT,R11) (ATTREC,R12)
0Loc    Object Code    Addr1 Addr2  Stmt Lv Lineno    Source Statement           (Hibal 5, Asmedit 3.3)  HLASM R4.0  2004/03/22 09.48
+___    ______ ____    _____ _____  ____ __ ______    ______ _________
0                                                              ¿þþþþþþþþþþþþþþþþþþþþþþþþþþþþÜ
                                   18485    1043.55            Ÿ  Convert ending time/date  Ÿ
                                                               ¾þþþþþþþþþþþþþþþþþþþþþþþþþþþþ»
 00166E D203 8038 2008 00000 00008 18486    1043.56            MVC   STIM_TIM,@R2+08     Set time in .01 second units
 001674 D203 8040 200C 00008 0000C 18487    1043.57            MVC   STIM_DAT,@R2+12     Set date in 0cyydddf format
                                   18488    1043.58 C          CONVTOD CONVVAL=STIM_WRK,TODVAL=STIM_TD2,
 00167A 5110 0000            00000          1043.59                  TIMETYPE=BIN,DATETYPE=YYDDD
 00167E 4110 70A6            016A0 18492             +
 001682 D71F 1000 1000 00000 00000 18493             +
 001688 9204 1002      00002       18494             +
 00168C 9201 1003      00003       18495             +
 001690 51E0 8038            00000 18496             +
 001694 D20F 1008 E000 00008 00000 18497             +
 00169A 47F0 70C6/0000       016C0 18498             +
 0016A2 00/00/00000000             18501             +
 0016A8 0000000000000000           18504             +
 0016B0 0000000000000000           18505             +
 0016B8 0000000000000000           18506             +
 0016C0 58E0 0010            00010 18508             +
 0016C4 58EE 0304            00304 18509             +
 0016C8 58EE 0160            00160 18510             +
 0016CC B218 E000      00000       18511             +
 0016D0 51E0 8050            00018 18512             +
 0016D4 D207 E000 1018 00000 00018 18513             +
 0016DA 9801 8050            00018 18515    1043.6             LM    R0,R1,STIM_TD2      Load ending tod clock time
 0016DE 5F10 804C            00014 18516    1043.61            SDL   R0,STIM_TD1         Subtract (double) starting time
 0016E2 47B0 70EE/0600       016E8 18518             +
 0016E8 5F00 8048            00010 18520             +
 0016EC 8C00 000C            0000C 18521    1043.62            SRDL  R0,12               Convert to microseconds
 0016F0 5D00 7362            0195C 18522    1043.63            D     R0,=A(10000)        Convert to (.01) second units
 0016F4 5018 0008            00008 18523    1043.64            PRETURN (R1)              Return elapsed time (.01) seconds
 0016F8 1BFF                       18525    1043.65            CLEAR R15                 Clear return code
 0016FA 18D8/980C D004       00004 18529    1043.66            PEND  ,
 DROP   STIM_WRK-(4+52),R8
 DROP   *,R7
 001700 58E0 D000/12FF       00000 18550             +
 001706 07FE                       18553             +
1VMNT     (VMNT21) (09:48) (22MAR04) IHAPSAE  - PSA Extension (ESAME)                                                       Page   55
0Current Usings:  (VMNT,R11) (ATTREC,R12)
0Loc    Object Code    Addr1 Addr2  Stmt Lv Lineno    Source Statement           (Hibal 5, Asmedit 3.3)  HLASM R4.0  2004/03/22 09.48
+___    ______ ____    _____ _____  ____ __ ______    ______ _________
0                                  18555    1043.68   ¿þþþþþþþþþþþþþþþþþþþþþþþþþþþþþþþþþþþþþþþþþþþþþþþþþþþþþþþþþþþþþþþþþþþþþÜ
                                   18556    1043.69   Ÿ                                                                     Ÿ
                                   18557    1043.7    Ÿ  Convert STCK TOD value to (time,date) format                       Ÿ
                                   18558    1043.71   Ÿ                                                                     Ÿ
                                   18559    1043.72   Ÿ        This routine is Y2K compliant and uses documented            Ÿ
                                   18560    1043.73   Ÿ        IBM system service calls.                                    Ÿ
                                   18561    1043.74   Ÿ                                                                     Ÿ
                                   18562    1043.75   Ÿ  Entry:  R15 Contains address of eight byte TOD clock value         Ÿ
                                   18563    1043.76   Ÿ  Returns: R0 Time of day in .01 seconds                             Ÿ
                                   18564    1043.77   Ÿ           R1 Julian date (cYY.DDD) (SMF style format)               Ÿ
                                   18565    1043.78   Ÿ                                                                     Ÿ
                                                      ¾þþþþþþþþþþþþþþþþþþþþþþþþþþþþþþþþþþþþþþþþþþþþþþþþþþþþþþþþþþþþþþþþþþþþþ»
-000000                00000 00030 18567    1043.8    STCKCNVW RECORD BEGIN              Stck conversion work area
 000000 0000000000000000           18575  1 1043.81   STCKTIME   DC    XL(L'STIM_WRK)'00'  Reserve space for work area
 000020 0000000000000000           18576  1 1043.82              DC    XL16'00'            Reserved for absolutely nothing
 000030                00030 00030 18577    1043.83            END   ,
0001708 50E0 D000            00000 18587    1043.85   STCKCNV  PROC  STCKCNVW            Enter and save calling registers
 00170C 900C D004/188D       00004 18601             +
 001712 41D0 D068/0D70       00068 18604             +
 USING  *,R7                       18636    1043.86            CLEAR STCKCNVW            Clear conversion work area
 USING  STCKCNVW-(4+52),R8
 001718 D72F 8038 8038 00000 00000 18642             +
 00171E 4120 8038            00000 18643    1043.87            LA    R2,STCKTIME         Address of time conversion
 USING  STIM_WRK,R2                18644    1043.88            WITH  (STIM_WRK,R2)
                                   18657    1043.89 C          STCKCONV STCKVAL=(R15),CONVVAL=STCKCNVW,
 001722 5110 0000            00000          1043.9                   TIMETYPE=BIN,DATETYPE=YYYYDDD
 001726 4110 7024            0173C 18661             +
 00172A 9200 1002      00002       18662             +
 00172E 51E0 F000            00000 18663             +
 001732 D207 1004 E000 00004 00000 18664             +
 001738 47F0 7040/0000       01758 18665             +
 00173E 00/00                      18668             +
 001740 0000000000000000           18670             +
 001748 0000000000000000           18671             +
 001750 0000000000000000           18672             +
 001758 9221 1003      00003       18674             +
 00175C 58E0 0010            00010 18675             +
 001760 58EE 0304            00304 18676             +
 001764 58EE 0130            00130 18677             +
 001768 B218 E000      00000       18678             +
 00176C 51E0 8038            00000 18679             +
 001770 D20F E000 100C 00000 0000C 18680             +
 001776 5800 2000            00000 18682    1043.91            L     R0,STIM_TIM         Load converted time value
 00177A F133 2008 2008 00008 00008 18683    1043.92            MVO   STIM_DAT,STIM_DAT   Move over for sign
 001780 94F0 200B      0000B       18684    1043.93            NI    STIM_DAT+3,X'F0'    Clear sign digit
 001784 960C 200B      0000B       18685    1043.94            OI    STIM_DAT+3,X'0C'    And force to positive sign
 001788 FB33 2008 7248 00008 01960 18686    1043.95            SP    STIM_DAT,=P'1900000'    convert to smf format
 00178E 5810 2008            00008 18687    1043.96            L     R1,STIM_DAT         Load converted date value
 001792 9001 8004            00004 18688    1043.97            PRETURN (R0,R1)           Return (time,date) values
 001796 18D8/980C D004       00004 18690    1043.98            PEND  ,
 DROP   STIM_WRK,R2
1VMNT     (VMNT21) (09:48) (22MAR04) IHAPSAE  - PSA Extension (ESAME)                                                       Page   56
0Current Usings:  (VMNT,R11) (ATTREC,R12)
0Loc    Object Code    Addr1 Addr2  Stmt Lv Lineno    Source Statement           (Hibal 5, Asmedit 3.3)  HLASM R4.0  2004/03/22 09.48
+___    ______ ____    _____ _____  ____ __ ______    ______ _________
0DROP   STCKCNVW-(4+52),R8
 DROP   *,R7
 00179C 58E0 D000/12FF       00000 18716             +
 0017A2 07FE                       18719             +
1VMNT     (VMNT21) (09:48) (22MAR04) IHAPSAE  - PSA Extension (ESAME)                                                       Page   57
0Current Usings:  (VMNT,R11) (ATTREC,R12)
0Loc    Object Code    Addr1 Addr2  Stmt Lv Lineno    Source Statement           (Hibal 5, Asmedit 3.3)  HLASM R4.0  2004/03/22 09.48
+___    ______ ____    _____ _____  ____ __ ______    ______ _________
0                                  18721    1044.     ¿þþþþþþþþþþþþþþþþþþþþþþþþþþþþþþþþþþþþþþþþþþþþþþþþþþþþþþþþþþþþþþþþþþþþþÜ
                                   18722    1045.     Ÿ                                                                     Ÿ
                                   18723    1046.     Ÿ  ATTACH SUBTASK                                                     Ÿ
                                   18724    1047.     Ÿ                                                                     Ÿ
                                   18725    1048.     Ÿ        ENTRY:                                                       Ÿ
                                   18726    1049.     Ÿ              ATTR REGISTER POINTS TO THE ATTACH RECORD              Ÿ
                                   18727    1050.     Ÿ                                                                     Ÿ
                                   18728    1051.     Ÿ         RETURNS:                                                    Ÿ
                                   18729    1052.     Ÿ              M  -  FAILED                                           Ÿ
                                   18730    1053.     Ÿ              Z  -  OK                                               Ÿ
                                   18731    1054.     Ÿ              P  -  RESTART ME                                       Ÿ
                                   18732    1055.     Ÿ                                                                     Ÿ
                                                      ¾þþþþþþþþþþþþþþþþþþþþþþþþþþþþþþþþþþþþþþþþþþþþþþþþþþþþþþþþþþþþþþþþþþþþþ»
-001A0F                01A0F 06F60 18734    1057.              DATA  BEGIN
 001A10 00000000                   18739  1 1058.     ATTLIST    ATTACH DCB=0,SZERO=NO,ETXR=EOTXIT,STAI=STAIXIT,SF=L
 001A14 00000000                   18746  1          +
 001A18 80000000                   18747  1          +
 001A1C 00000000                   18748  1          +
 001A20 00000000                   18749  1          +
 001A24 00006444/0000              18750  1          +
 001A2A 00/08                      18752  1          +
 001A2C 0000000000000000           18754  1          +
 001A34 00000000                   18755  1          +
 001A38 00000000                   18756  1          +
 001A3C 000063BE                   18757  1          +
 001A40 00000000/00/00             18758  1          +
 001A46 0048/00000000              18761  1          +
 001A4C 01/01                      18763  1          +
 001A4E 0000000000000000           18765  1          +
 0017A4                00EE4 06F60 18766    1059.              END   ,
 0017A4 50E0 D000            00000 18772    1060.     ATTASK   PROC  ,                   Enter and save calling registers
 0017A8 900C D004/188D       00004 18785             +
 0017AE 41D0 D038/0D70       00038 18787             +
 USING  *,R7                       18810    1061.              CLEAR ATTCLR              Clear resettable fields
 0017B4 D713 C028 C028 00028 00028 18816             +
 0017BA B205 C010      00010       18817    1061.1             STCK  ATTSTRT             Save TOD clock at task start
 0017BE 945F C020      00020       18818    1062.              CLEAR ATTFDRST*ATTFABND   Clear flags
 0017C2 5820 71B0            01964 18828    1063.              L     R2,=A(STAIXIT)      Address of STAI exit
                                   18829    1064.   C          ATTACH EPLOC=ATTPGNM,ECB=ATTECB,MF=(E,ATTPRM),
 0017C6 4110 C024            00024          1065.                    STAI=((R2),(ATTR)),SF=(E,ATTLIST)
 0017CA 41F0 725C            01A10 18839             +
 0017CE 41E0 C000            00000 18840             +
 0017D2 50E0 F000            00000 18841             +
 0017D6 41E0 C02C            0002C 18842             +
 0017DA 50E0 F008            00008 18843             +
 0017DE 5020 F02C            0002C 18844             +
 0017E2 50C0 F028            00028 18845             +
 0017E6 9248 F037      00037       18846             +
 0017EA 9680 F008      00008       18847             +
 0017EE 947F F03C      0003C       18848             +
 0017F2 9601 F03C      0003C       18849             +
 0017F6 9201 F03D/0A2A 0003D       18850             +
1VMNT     (VMNT21) (09:48) (22MAR04) IHAPSAE  - PSA Extension (ESAME)                                                       Page   58
0Current Usings:  (*,R7) (VMNT,R11) (ATTREC,R12)
0Loc    Object Code    Addr1 Addr2  Stmt Lv Lineno    Source Statement           (Hibal 5, Asmedit 3.3)  HLASM R4.0  2004/03/22 09.48
+___    ______ ____    _____ _____  ____ __ ______    ______ _________
00017FC 5010 C030            00030 18852    1066.              ST    R1,ATTTCB           Save off TCB address
 001800 4100 0001            00001 18853    1067.              WAIT  ECB=ATTECB          Pause that refreshes
 001804 4110 C02C/0A01       0002C 18858             +
 00180A 4110 C030/0A3E       00030 18860    1068.              DETACH ATTTCB             On your own now
 001810 9180 C020      00020       18865    1069.              IF    ATTFABND,BEGIN      If subtask abended
 001814 47E0 706A            0181E 18875             +
 001818 4100 0001            00001 18880  1 1070.                LA    R0,1                Either go or no-go
 00181C 1300                       18881  1 1071.                LCR   R0,R0               Whoops -- total failure
 00181E 706E           0181E 01816 18882    1072.              END   ELSE,BEGIN
 00181E 47F0 708E            01842 18891             +
 001822 5800 C02C            0002C 18897  1 1073.                L     R0,ATTECB           Retrieve return code
 001826 5400 71B4            01968 18898  1 1074.                N     R0,=A(X'00000FFF')  Just return code please
 00182A 5000 C034            00034 18899  1 1075.                ST    R0,ATTRET           Set return code in attrec
 00182E 5900 71B8            0196C 18900  1 1076.                IF    (R0,GT,7),BEGIN
 001832 47D0 7088            0183C 18912  1          +
 001836 4100 0001            00001 18917  2 1077.                  LA    R0,1                Set failure
 00183A 1300                       18918  2 1078.                  LCR   R0,R0               Complete for condition code
 00183C 708C           0183C 01834 18919  1 1079.                END   ELSE,BEGIN
 00183C 47F0 708E            01842 18928  1          +
 001840 1B00                       18934  2 1080.                  CLEAR R0                  Indicate normal termination
 001842                            18938  1 1081.                END   ,
 001842                            18942    1082.              END   ,
 001842 B205 C018      00018       18946    1082.1             STCK  ATTENDT             Save TOD clock at task end
 001846 12F0                       18947    1083.              LTR   R15,R0              Test completion status
 001848 18D8/980C D004       00004 18948    1084.              PEND  ,                   Return to caller
 DROP   *,R7
 00184E 58E0 D000/12FF       00000 18964             +
 001854 07FE                       18967             +
1VMNT     (VMNT21) (09:48) (22MAR04) IHAPSAE  - PSA Extension (ESAME)                                                       Page   59
0Current Usings:  (VMNT,R11) (ATTREC,R12)
0Loc    Object Code    Addr1 Addr2  Stmt Lv Lineno    Source Statement           (Hibal 5, Asmedit 3.3)  HLASM R4.0  2004/03/22 09.48
+___    ______ ____    _____ _____  ____ __ ______    ______ _________
0                                  18969    1086.     ¿þþþþþþþþþþþþþþþþþþþþþþþþþþþþþþþþþþþþþþþþþþþþþþþþþþþþþþþþþþþþþþþþþþþþþÜ
                                   18970    1087.     Ÿ                                                                     Ÿ
                                   18971    1088.     Ÿ  Define literal pool                                                Ÿ
                                   18972    1089.     Ÿ                                                                     Ÿ
                                                      ¾þþþþþþþþþþþþþþþþþþþþþþþþþþþþþþþþþþþþþþþþþþþþþþþþþþþþþþþþþþþþþþþþþþþþþ»
-001858                            18974    1091.              LTORG ,                   Generate defined literals
 001858 E5C2D3C440404040           18976                             =CL8'VBLD'
 001860 C3C1E3C4E4D4D740           18977                             =CL8'CATDUMP'
 001868 C3C1E3C4E4D4D740           18978                             =CL16'CATDUMP DIRDUMP '
 001878 E5C5D9C9C6E84040           18979                             =CL8'VERIFY'
 001880 C9E7D9C4E4D4D740           18980                             =CL8'IXRDUMP'
 001888 C9E7D9C4E4D4D740           18981                             =CL16'IXRDUMP IXRDUMP '
 001898 C9E7D9C4E4D4D740           18982                             =CL16'IXRDUMP INCIXR  '
 0018A8 C6C9D3C5C4E4D4D7           18983                             =CL8'FILEDUMP'
 0018B0 E3C1D7C5F0F04040           18984                             =CL16'TAPE00  FILSEG0 '
 0018C0 C689938584A49497           18985                             =C'Filedump'
 0018C8 C995839985948595           18986                             =C'Incremental dump'
 0018D8 000017A4                   18987                             =A(ATTASK)
 0018DC 00000004                   18988                             =A(4)
 0018E0 00000000                   18989                             =A(0)
 0018E4 00002C70                   18990                             =A(BLDATT)
 0018E8 00000000                   18991                             =V(SEGCLR)
 0018EC C4E4D4D7                   18992                             =C'DUMP'
 0018F0 00000000                   18993                             =V(SEG)
 0018F4 000062B4                   18994                             =A(PREALLOC)
 0018F8 6BC2C3E5                   18995                             =C',BCV'
 0018FC 00000000                   18996                             =V(SEGB)
 001900 00000000                   18997                             =V(SEGWR)
 001904 000057FE                   18998                             =A(EXECSLEN)
 001908 00000EE4                   18999                             =A(DOTASK)
 00190C 0000245E                   19000                             =A(MSGSUFF)
 001910 00001474                   19001                             =A(DOCODE)
 001914 00004A14                   19002                             =A(SENDWTO)
 001918 00002BBC                   19003                             =A(VERATT)
 00191C 6BC9D5C3                   19004                             =C',INC'
 001920 00001E3A                   19005                             =A(SEND34)
 001924 00002BF8                   19006                             =A(FILATT)
 001928 00001352                   19007                             =A(DUMPRET)
 00192C 00002674                   19008                             =A(ENABSYS)
 001930 00000FFF                   19009                             =A(X'FFF')
 001934 00000008                   19010                             =A(8)
 001938 00000000                   19011                             =V(SEGHX)
 00193C 00000000                   19012                             =V(SEGDC)
 001940 00002C34                   19013                             =A(VAMATT)
 001944 00006F3C                   19014                             =A(ORVCOMNM)
 001948 00004F94                   19015                             =A(OPNCONT)
 00194C 00000000                   19016                             =V(SCINIT)
 001950 00005A46                   19017                             =A(CNTKWRT)
 001954 00000000                   19018                             =V(SCAN)
 001958 00004FFA                   19019                             =A(CLSCONT)
 00195C 00002710                   19020                             =A(10000)
 001960 1900000C                   19021                             =P'1900000'
1VMNT     (VMNT21) (09:48) (22MAR04) IHAPSAE  - PSA Extension (ESAME)                                                       Page   60
0Current Usings:  (VMNT,R11) (ATTREC,R12)
0Loc    Object Code    Addr1 Addr2  Stmt Lv Lineno    Source Statement           (Hibal 5, Asmedit 3.3)  HLASM R4.0  2004/03/22 09.48
+___    ______ ____    _____ _____  ____ __ ______    ______ _________
0001964 000063BE                   19022                             =A(STAIXIT)
 001968 00000FFF                   19023                             =A(X'00000FFF')
 00196C 00000007                   19024                             =A(7)
 001970 C489998583A39699           19025                             =C'Directory dump failed.'
 001986 E585998986A84086           19026                             =C'Verify failed for '
 001998 40839694979385A3           19027                             =C' completed'
 0019A2 C381A38193968740           19028                             =C'Catalog dump successful'
 0019B9 C9E7D9C4E4D4D7             19029                             =C'IXRDUMP'
 0019C0 6BC4C9E2D2                 19030                             =C',DISK'
 0019C5 E585998986A840A2           19031                             =C'Verify successful'
 0019D6 E585998986A84085           19032                             =C'Verify errors exist'
 0019E9 C2C3E5                     19033                             =C'BCV'
 0019EC C99583                     19034                             =C'Inc'
 0019EF D6C6C6D3D6C1C4             19035                             =C'OFFLOAD'
 0019F6 D6868693968184             19036                             =C'Offload'
 0019FD 6B40C39684857E             19037                             =C', Code='
 001A04 E2                         19038                             =C'S'
 001A05 E4                         19039                             =C'U'
 001A06 6B40D985A3A49995           19040                             =C', Return='
1VMNT     (VMNT21) (09:48) (22MAR04) IHAPSAE  - PSA Extension (ESAME)                                                       Page   61
0Current Usings:  (VMNT,R11) (ATTREC,R12)
0Loc    Object Code    Addr1 Addr2  Stmt Lv Lineno    Source Statement           (Hibal 5, Asmedit 3.3)  HLASM R4.0  2004/03/22 09.48
+___    ______ ____    _____ _____  ____ __ ______    ______ _________
0                                  19045    1093.     ¿þþþþþþþþþþþþþþþþþþþþþþþþþþþþþþþþþþþþþþþþþþþþþþþþþþþþþþþþþþþþþþþþþþþþþÜ
                                   19046    1094.     Ÿ                                                                     Ÿ
                                   19047    1095.     Ÿ  Scanner exit routines for processing control file                  Ÿ
                                   19048    1096.     Ÿ                                                                     Ÿ
                                                      ¾þþþþþþþþþþþþþþþþþþþþþþþþþþþþþþþþþþþþþþþþþþþþþþþþþþþþþþþþþþþþþþþþþþþþþ»
0001A58 50E0 D000            00000 19050    1098.     SYNCTAPE PROC  ,                   Scan exit for tape prefix
 001A5C 900C D004/188D       00004 19063             +
 001A62 41D0 D038/0D70       00038 19065             +
 001A68 50F0 D000            00000 19088    1099.              VPUSH R15,,*              Save pointer to SCANCB
 USING  *,R7
 001A6C 41D0 D004            00004 19090             +
 001A70 1820                       19091    1100.              LR    R2,R0               Save parameter pointers
 001A72 0620/4420 753C       01FA4 19092    1101.              DEX   R2,'MVC GDGPFX(0),@R1' move in prefix length
 001FA4 D200 BD18 1000 00D18 00000 19103             +
 001A78 58E0 74F0/0DEE       01F58 19111    1102.              ACALL SYNCBLK             Allocate a gdg block
 001A7E 1821                       19115    1103.              LR    R2,R1               Save address of gdg block
 USING  GDG,R2                     19116    1104.              WITH  (GDG,R2)            Addressability to gdg block
 001A80 D22B 2014 BD18 00014 00D18 19129    1105.              MVC   GDGNAME,GDGPFX      Set prefix into gdg block
 001A86 4110 2014            00014 19130    1106.              LA    R1,GDGNAME          Address for trimming
 001A8A 4100 002C            0002C 19131    1107.              LA    R0,44               Maximum length
 001A8E 4DE0 B438            00438 19132    1108.              LCALL RTRIM               Return length of prefix
 001A92 1A10                       19134    1109.              AR    R1,R0               Address end of string
 001A94 D207 1000 74C0 00000 01F28 19135    1110.              MVC   @R1(8),=C'.DIRDUMP' Directory dump segment
 001A9A D207 200C 74C8 0000C 01F30 19136    1111.              MVC   GDGDD,=CL8'DIRDUMP' Set ddname
 001AA0 58E0 74F0/0DEE       01F58 19137    1112.              ACALL SYNCBLK             Allocate a gdg block
 001AA6 1821                       19141    1113.              LR    R2,R1               Move gdg block address
 001AA8 D22B 2014 BD18 00014 00D18 19142    1114.              MVC   GDGNAME,GDGPFX      Set prefix into gdg block
 001AAE 4110 2014            00014 19143    1115.              LA    R1,GDGNAME          Address for strimg trim
 001AB2 4100 002C            0002C 19144    1116.              LA    R0,44               Maximum string length
 001AB6 4DE0 B438            00438 19145    1117.              LCALL RTRIM               Return length of prefix
 001ABA 1A10                       19147    1118.              AR    R1,R0               Address end of string
 001ABC D207 1000 74D0 00000 01F38 19148    1119.              MVC   @R1(8),=C'.IXRDUMP' Index record segment
 001AC2 D207 200C 74D8 0000C 01F40 19149    1120.              MVC   GDGDD,=CL8'IXRDUMP' SET DDNAME FOR FILE
 001AC8 4BD0 7528            01F90 19150    1121.              VPOP  R15,,*              Restore pointer to SCANCB
 001ACC 58F0 D000            00000 19152             +
 001AD0 18D8/980C D004       00004 19153    1122.              PEND  ,
 DROP   GDG,R2
 DROP   *,R7
 001AD6 58E0 D000/12FF       00000 19174             +
 001ADC 07FE                       19177             +
0001ADE 50E0 D000            00000 19179    1124.     SYNCSEG  PROC  ,                   Save scanner registers
 001AE2 900C D004/188D       00004 19192             +
 001AE8 41D0 D038/0D70       00038 19194             +
 001AEE 50F0 D000            00000 19217    1125.              VPUSH R15,,*              Save pointer to SCANCB
 USING  *,R7
 001AF2 41D0 D004            00004 19219             +
 001AF6 5840 F000            00000 19220    1126.              L     R4,@R15             Save scanned value
 001AFA 58E0 746A/0DEE       01F58 19221    1127.              ACALL SYNCBLK             Allocate a gdg block
 001B00 1821                       19225    1128.              LR    R2,R1               Move gdg base address
 USING  GDG,R2                     19226    1129.              WITH  (GDG,R2)            GDG addressability
 001B02 D207 200C 745A 0000C 01F48 19239    1130.              MVC   GDGDD,=CL8'TAPE00'
 001B08 5800 B928            00928 19240    1131.              L     R0,GDGCNTR          Set ddname counter
1VMNT     (VMNT21) (09:48) (22MAR04) IHAPSAE  - PSA Extension (ESAME)                                                       Page   62
0Current Usings:  (GDG,R2) (*,R7) (VMNT,R11) (ATTREC,R12)
0Loc    Object Code    Addr1 Addr2  Stmt Lv Lineno    Source Statement           (Hibal 5, Asmedit 3.3)  HLASM R4.0  2004/03/22 09.48
+___    ______ ____    _____ _____  ____ __ ______    ______ _________
0001B0C 4E00 B820            00820 19241    1132.              CVD   R0,CLWTEMP
 001B10 5A00 746E            01F5C 19242    1133.              A     R0,=A(1)            Bump ddname counter
 001B14 5000 B928            00928 19243    1134.              ST    R0,GDGCNTR
 001B18 F317 2010 B820 00010 00820 19244    1135.              UNPK  GDGDD+4(2),CLWTEMP(8)
 001B1E 96F0 2011      00011       19245    1136.              OI    GDGDD+5,X'F0'       Fixup sign byte
 001B22 D22B 2014 BD18 00014 00D18 19246    1137.              MVC   GDGNAME,GDGPFX      Set gdg prefix
 001B28 4100 002C            0002C 19247    1138.              LA    R0,44               Set maximum prefix length
 001B2C 4110 2014            00014 19248    1139.              LA    R1,GDGNAME          Set address of name
 001B30 4DE0 B438            00438 19249    1140.              LCALL RTRIM               Trim trailing blanks
 001B34 1831                       19251    1141.              LR    R3,R1               Copy data set name
 001B36 1A30                       19252    1142.              AR    R3,R0               Address end of string
 001B38 D206 3000 74A6 00000 01F94 19253    1143.1             MVC   @R3(7),=C'.FILSEG'  Set remaining prefix
 001B3E 18F4/1B00                  19254    1144.              BTD   @R3+7,0,(R4)        Convert segment number
 001B42 4110 3007            00007 19270             +
 001B46 58E0 7472/0DEE       01F60 19273             +
 001B4C 4BD0 74A2            01F90 19275    1145.              VPOP  R15,,*              Restore pointer to SCANCB
 001B50 58F0 D000            00000 19277             +
 001B54 18D8/980C D004       00004 19278    1146.              PEND  ,
 DROP   GDG,R2
 DROP   *,R7
 001B5A 58E0 D000/12FF       00000 19299             +
 001B60 07FE                       19302             +
0001B62 50E0 D000            00000 19304    1147.01   SHISTFL  PROC  ,                   Save name of the history file
 001B66 900C D004/188D       00004 19317             +
 001B6C 41D0 D038/0D70       00038 19319             +
 001B72 47D0 700C            01B7E 19342    1147.02            IF    P,BEGIN             Found a valid data set name
 USING  *,R7
 001B76 1820                       19353  1 1147.03              LR    R2,R0               Copy length of data set name
 001B78 0620/4420 7438       01FAA 19354  1 1147.04              DEX   R2,'MVC HIST_DSN(*-*),@R1'    Move in history file
 001FAA D200 B9C0 1000 009C0 00000 19365  1          +
 001B7E                            19373    1147.98            END   ,
 001B7E 18D8/980C D004       00004 19377    1147.99            PEND  ,                   Return to the scanner
 DROP   *,R7
 001B84 58E0 D000/12FF       00000 19393             +
 001B8A 07FE                       19396             +
 001B8C 50E0 D000            00000 19397    1148.     SFILECAP PROC  ,
 001B90 900C D004/188D       00004 19410             +
 001B96 41D0 D038/0D70       00038 19412             +
 001B9C 58E0 73C8/0DEE       01F64 19435    1149.              ACALL ADDFILE             Add scanned filename to chain
 USING  *,R7
 001BA2 18D8/980C D004       00004 19439    1150.              PEND  ,
 DROP   *,R7
 001BA8 58E0 D000/12FF       00000 19455             +
 001BAE 07FE                       19458             +
0001BB0 50E0 D000            00000 19460    1152.     SBCVUCB  PROC  ,
 001BB4 900C D004/188D       00004 19473             +
 001BBA 41D0 D038/0D70       00038 19475             +
 001BC0 5900 73A8            01F68 19498    1153.              IF    (R0,EQ,4),BEGIN
 USING  *,R7
 001BC4 4770 702C            01BEC 19510             +
 001BC8 5820 B924/1222       00924 19515  1 1154.                LT    R2,BCVLAST          Load up current (last) bcv entry
 001BCE 4780 702C            01BEC 19519  1 1155.                IF    NZ,BEGIN
1VMNT     (VMNT21) (09:48) (22MAR04) IHAPSAE  - PSA Extension (ESAME)                                                       Page   63
0Current Usings:  (BCVLIST,R2) (*,R7) (VMNT,R11) (ATTREC,R12)
0Loc    Object Code    Addr1 Addr2  Stmt Lv Lineno    Source Statement           (Hibal 5, Asmedit 3.3)  HLASM R4.0  2004/03/22 09.48
+___    ______ ____    _____ _____  ____ __ ______    ______ _________
0USING  BCVLIST,R2                 19530  2 1156.                  WITH  (BCVLIST,R2)        Addressability to list
 001BD2 50F0 D000            00000 19543  2 1157.                  VPUSH R15,,*              Save scanner cb address
 001BD6 41D0 D004            00004 19545  2          +
 001BDA 58E0 73AC/0DEE       01F6C 19546  2 1158.                  XCALL XTB                 Convert bcv ucb address to binary
 001BE0 50F0 2010            00010 19550  2 1159.                  ST    R15,BCV_UCB         Save ucb address of bcv
 001BE4 4BD0 73D0            01F90 19551  2 1160.                  VPOP  R15,,*              Restore scancb address
 001BE8 58F0 D000            00000 19553  2          +
 DROP   BCVLIST,R2                 19554  1 1161.                END   ,
 001BEC                            19563    1162.              END   ,
 001BEC 18D8/980C D004       00004 19567    1163.              PEND  ,
 DROP   *,R7
 001BF2 58E0 D000/12FF       00000 19583             +
 001BF8 07FE                       19586             +
 001BFA 50E0 D000            00000 19587    1164.     SVOLCAP  PROC  ,
 001BFE 900C D004/188D       00004 19600             +
 001C04 41D0 D038/0D70       00038 19602             +
 001C0A 58E0 7366/0DEE       01F70 19625    1165.              ACALL ADDBCV              Queue BCV volume to chain
 USING  *,R7
 001C10 18D8/980C D004       00004 19629    1166.              PEND  ,
 DROP   *,R7
 001C16 58E0 D000/12FF       00000 19645             +
 001C1C 07FE                       19648             +
0001C1E 50E0 D000            00000 19650    1168.     SYNCLINK PROC  ,
 001C22 900C D004/188D       00004 19663             +
 001C28 41D0 D038/0D70       00038 19665             +
 001C2E 47D0 706A            01C98 19688    1169.              IF    P,BEGIN
 USING  *,R7
 001C32 90EF D000            00000 19699  1 1170.                VPUSH R14,R15,*           Save scanner registers
 001C36 41D0 D008            00008 19701  1          +
 001C3A 954D 1000      00000       19702  1 1171.                IF    (@R1,EQ,'('),BEGIN
 001C3E 4770 701C            01C4A 19713  1          +
 001C42 4110 1001            00001 19718  2 1172.                  LA    R1,@R1+1            Point past open parend
 001C46 5B00 7346            01F74 19719  2 1173.                  S     R0,=A(2)            Decrement length
 001C4A                            19720  1 1174.                END   ,
 001C4A 1820                       19724  1 1175.                LR    R2,R0               Move length of linked names
 001C4C 4130 B888            00888 19725  1 1176.                LA    R3,FSNAME+8         First linked file system name
 001C50 1802/41F0 BA34       00A34 19726  1 1177.                SCINIT (R1),(R2),SCNDCB   Initialize secondary scanner
 001C56 58E0 734A/0DEE       01F78 19745  1          +
 001C5C                            19747  1 1178.                LOOP  BEGIN
 001C5C 1B11/41F0 BA34       00A34 19753  2 1179.                  SCAN  ,SCNDCB             Pull off file system name
 001C62 58E0 734E/0DEE       01F7C 19767  2          +
 001C68 47D0 7062            01C90 19769  2 1180.                  IF    NP,EXIT             Done, exit loop
 001C6C 1840                       19783  2 1181.                  LR    R4,R0               Copy length
 001C6E 95FF 3000      00000       19784  2 1182.                  IF    (@R3,EQ,X'FF'),BEGIN    table overflow
 001C72 4770 704E            01C7C 19795  2          +
 001C76 4110 0309/0A0D       00309 19800  3 1183.                    ABEND 777
 001C7C                            19806  2 1184.                  END   ,
 001C7C D207 3000 7322 00000 01F50 19810  2 1185.                  MVC   @R3(8),=CL8' '      Blank initialize field
 001C82 0640/4440 7382       01FB0 19811  2 1186.                  DEX   R4,'MVC @R3(0),@R1' Set linked name
 001FB0 D200 3000 1000 00000 00000 19822  2          +
 001C88 4130 3008            00008 19830  2 1187.                  LA    R3,@R3+8            Point to next name field
 001C8C 47F0 702E            01C5C 19831  1 1188.                END   ,
 001C90 4BD0 7364            01F92 19836  1 1189.                VPOP  R14,R15,*           Restore scanner registers
1VMNT     (VMNT21) (09:48) (22MAR04) IHAPSAE  - PSA Extension (ESAME)                                                       Page   64
0Current Usings:  (*,R7) (VMNT,R11) (ATTREC,R12)
0Loc    Object Code    Addr1 Addr2  Stmt Lv Lineno    Source Statement           (Hibal 5, Asmedit 3.3)  HLASM R4.0  2004/03/22 09.48
+___    ______ ____    _____ _____  ____ __ ______    ______ _________
0001C94 98EF D000            00000 19838  1          +
 001C98                            19839    1190.              END   ,
 001C98 18D8/980C D004       00004 19843    1191.              PEND  ,                   Return to scanner
 DROP   *,R7
 001C9E 58E0 D000/12FF       00000 19859             +
 001CA4 07FE                       19862             +
0001CA6 50E0 D000            00000 19864    1191.02   SWARN    PROC  ,
 001CAA 900C D004/188D       00004 19877             +
 001CB0 41D0 D038/0D70       00038 19879             +
 001CB6 47D0 7044            01CFA 19902    1191.9             IF    P,BEGIN             Determine a Yes/No parameter
 USING  *,R7
 001CBA 90EF D000            00000 19913  1 1191.91              VPUSH R14,R15,*           Save scanner registers
 001CBE 41D0 D008            00008 19915  1          +
 001CC2 1820                       19916  1 1191.92              LR    R2,R0               Move length of linked names
 001CC4 1802/41F0 BA34       00A34 19917  1 1191.93              SCINIT (R1),(R2),SCNDCB   Initialize secondary scanner
 001CCA 58E0 72C2/0DEE       01F78 19936  1          +
 001CD0 5810 72CA            01F80 19938  1 1191.94              SCAN  L:=A(YESOK),SCNDCB  Pull off yes/no response
 001CD4 41F0 BA34            00A34 19950  1          +
 001CD8 58E0 72C6/0DEE       01F7C 19953  1          +
 001CDE 9101 B8D3      008D3       19955  1 1191.95              IF    ANS_YES,'SET FL_Warn'
 001CE2 47E0 7034            01CEA 19965  1          +
 001CE6 9608 B8D3      008D3       19976  1          +
 001CEA 7038           01CEA 01CE4 19981  1 1191.96              ELSE  'CLEAR FL_Warn'
 001CEA 47F0 703C            01CF2 19986  1          +
 001CEE 94F7 B8D3      008D3       19999  1          +
 001CF2 4BD0 72DC            01F92 20004  1 1191.97              VPOP  R14,R15,*           Restore scanner registers
 001CF6 98EF D000            00000 20006  1          +
 001CFA                            20007    1191.98            END   ,
 001CFA 18D8/980C D004       00004 20011    1191.99            PEND  ,                   Return to scanner
 DROP   *,R7
 001D00 58E0 D000/12FF       00000 20027             +
 001D06 07FE                       20030             +
0001D08 50E0 D000            00000 20032    1192.01   SETYES   PROC  ,                   Set generalized "Yes" answer
 001D0C 900C D004/188D       00004 20045             +
 001D12 41D0 D038/0D70       00038 20047             +
 001D18 9601 B8D3      008D3       20070    1192.02            SET   ANS_YES
 USING  *,R7
 001D1C 18D8/980C D004       00004 20076    1192.03            PEND  ,
 DROP   *,R7
 001D22 58E0 D000/12FF       00000 20092             +
 001D28 07FE                       20095             +
 001D2A 50E0 D000            00000 20096    1192.04   SETNO    PROC  ,                   Set generalized "No" answer
 001D2E 900C D004/188D       00004 20109             +
 001D34 41D0 D038/0D70       00038 20111             +
 001D3A 94FE B8D3      008D3       20134    1192.05            SET   ANS_NO
 USING  *,R7
 001D3E 18D8/980C D004       00004 20140    1192.06            PEND  ,
 DROP   *,R7
 001D44 58E0 D000/12FF       00000 20156             +
 001D4A 07FE                       20159             +
0001D4C 50E0 D000            00000 20161    1192.08   SNAME    PROC  ,                   Enter and save registers
1VMNT     (VMNT21) (09:48) (22MAR04) IHAPSAE  - PSA Extension (ESAME)                                                       Page   65
0Current Usings:  (VMNT,R11) (ATTREC,R12)
0Loc    Object Code    Addr1 Addr2  Stmt Lv Lineno    Source Statement           (Hibal 5, Asmedit 3.3)  HLASM R4.0  2004/03/22 09.48
+___    ______ ____    _____ _____  ____ __ ______    ______ _________
0001D50 900C D004/188D       00004 20174             +
 001D56 41D0 D038/0D70       00038 20176             +
 001D5C 47D0 701A            01D76 20199    1192.09            IF    P,BEGIN             Parameter located
 USING  *,R7
 001D60 5900 7228            01F84 20210  1 1192.1               IF    (R0,GT,8),EXIT      Name is too long, don't bother
 001D64 4720 701A            01D76 20224  1          +
 001D68 1820                       20230  1 1192.2               LR    R2,R0                 move length
 001D6A D207 B880 71F4 00880 01F50 20231  1 1192.3               MVC   FSNAME,=CL8' '          initialize name to blanks
 001D70 0620/4420 725A       01FB6 20232  1 1192.4               DEX   R2,'MVC FSNAME(0),@R1'    set file system name
 001FB6 D200 B880 1000 00880 00000 20243  1          +
 001D76                            20251    1192.97            END   ,                   Return to the scanner
 001D76 18D8/980C D004       00004 20255    1192.98            PEND  ,
 DROP   *,R7
 001D7C 58E0 D000/12FF       00000 20271             +
 001D82 07FE                       20274             +
0001D84 50E0 D000            00000 20276    1201.     SFLVOL   PROC  ,
 001D88 900C D004/188D       00004 20289             +
 001D8E 41D0 D038/0D70       00038 20291             +
 001D94 47D0 7010            01DA4 20314    1202.              IF    P,BEGIN
 USING  *,R7
 001D98 1820                       20325  1 1203.                LR    R2,R0               Save length of volser
 001D9A 0620/4420 7228       01FBC 20326  1 1204.                DEX   R2,'MVC IVOL+6(0),@R1'  move in volume serial
 001FBC D200 BC65 1000 00C65 00000 20337  1          +
 001DA0 947F BBAC      00BAC       20345  1 1205.                NI    ILVOL,X'7F'         Allocate on specific volume
 001DA4                            20346    1206.              END   ,
 001DA4 18D8/980C D004       00004 20350    1207.              PEND  ,                   Return to scanner
 DROP   *,R7
 001DAA 58E0 D000/12FF       00000 20366             +
 001DB0 07FE                       20369             +
0001DB2 50E0 D000            00000 20371    1209.     SVSMSG   PROC  ,
 001DB6 900C D004/188D       00004 20384             +
 001DBC 41D0 D038/0D70       00038 20386             +
 001DC2 47D0 7016            01DD8 20409    1210.              IF    P,BEGIN             Process verify successful msg
 USING  *,R7
 001DC6 5B00 71B2            01F74 20420  1 1211.                S     R0,=A(2)            Adjust for quotes
 001DCA 4110 1001            00001 20421  1 1212.                LA    R1,@R1+1            Adjust starting address
 001DCE 4120 B868            00868 20422  1 1213.                LA    R2,VSMSGA           Address to recieve list
 001DD2 58E0 71C6/0DEE       01F88 20423  1 1214.                ACALL SET34TXT            Set text
 001DD8                            20427    1215.              END   ,
 001DD8 18D8/980C D004       00004 20431    1216.              PEND  ,
 DROP   *,R7
 001DDE 58E0 D000/12FF       00000 20447             +
 001DE4 07FE                       20450             +
-001DE6 50E0 D000            00000 20452    1218.     SET34TXT PROC  ,                   Set svc 34 command text
 001DEA 900C D004/188D       00004 20465             +
 001DF0 41D0 D038/0D70       00038 20467             +
 001DF6 1830                       20490    1219.              LR    R3,R0               Save length of message
 USING  *,R7
 001DF8 1841                       20491    1220.              LR    R4,R1               Save address of message
 001DFA 5A00 7196            01F8C 20492    1221.              A     R0,=A(6)            Increment length for control
1VMNT     (VMNT21) (09:48) (22MAR04) IHAPSAE  - PSA Extension (ESAME)                                                       Page   66
0Current Usings:  (*,R7) (VMNT,R11) (ATTREC,R12)
0Loc    Object Code    Addr1 Addr2  Stmt Lv Lineno    Source Statement           (Hibal 5, Asmedit 3.3)  HLASM R4.0  2004/03/22 09.48
+___    ______ ____    _____ _____  ____ __ ______    ______ _________
0001DFE 4510 700C/0A0A       01E02 20493    1222.              GETMAIN R,LV=(0)          Request memory for ver msg
 001E04 5010 2000            00000 20497    1223.              ST    R1,@R2              Save address of command text
 001E08 4000 1000            00000 20498    1224.              STH   R0,@R1              Set message length
 001E0C D701 1002 1002 00002 00002 20499    1225.              XC    @R1+2(2),@R1+2      Clear bytes 3 & 4
 001E12 9240 1004      00004       20500    1226.              MVI   @R1+4,C' '          Set initial blank character
 001E16 4110 1005            00005 20501    1227.              LA    R1,@R1+5            Bump message pointer
 001E1A 0630/4430 71CC       01FC2 20502    1228.              DEX   R3,'MVC @R1(0),@R4' Set message text into buffer
 001FC2 D200 1000 4000 00000 00000 20513             +
 001E20 4113 1001            00001 20521    1229.              LA    R1,@R1+1(R3)        Point to last byte of message+1
 001E24 9240 1000      00000       20522    1230.              MVI   @R1,C' '            Insure trailing blank
 001E28 5810 2000            00000 20523    1231.              L     R1,@R2
 001E2C 18D8/980C D004       00004 20524    1232.              PEND  ,
 DROP   *,R7
 001E32 58E0 D000/12FF       00000 20540             +
 001E38 07FE                       20543             +
-001E3A 50E0 D000            00000 20545    1234.     SEND34   PROC  ,                   Send svc 34 command
 001E3E 900C D004/188D       00004 20558             +
 001E44 41D0 D038/0D70       00038 20560             +
 001E4A 1821                       20583    1235.              LR    R2,R1               Save address of command text
 USING  *,R7
 001E4C 5810 B85C/0A6B       0085C 20584    1236.              MODESET MF=(E,KEYZERO)    Enter sup state
 001E52 1812                       20588    1237.              LR    R1,R2               Restore text pointer
 001E54 1B00                       20589    1238.              CLEAR R0                  Clear ucmid
 001E56 0A22                       20593    1239.              SVC   34                  Issue command
 001E58 5810 B860/0A6B       00860 20594    1240.              MODESET MF=(E,KEYNZERO)   Return to problem state
 001E5E 18D8/980C D004       00004 20598    1241.              PEND  ,                   Restore registers and return
 DROP   *,R7
 001E64 58E0 D000/12FF       00000 20614             +
 001E6A 07FE                       20617             +
1VMNT     (VMNT21) (09:48) (22MAR04) IHAPSAE  - PSA Extension (ESAME)                                                       Page   67
0Current Usings:  (VMNT,R11) (ATTREC,R12)
0Loc    Object Code    Addr1 Addr2  Stmt Lv Lineno    Source Statement           (Hibal 5, Asmedit 3.3)  HLASM R4.0  2004/03/22 09.48
+___    ______ ____    _____ _____  ____ __ ______    ______ _________
0                                  20619    1243.     ¿þþþþþþþþþþþþþþþþþþþþþþþþþþþþþþþþþþþþþþþþþþþþþþþþþþþþþþþþþþþþþþþþþþþþþÜ
                                   20620    1244.     Ÿ                                                                     Ÿ
                                   20621    1245.     Ÿ  Allocate GDG block to save current and next generation sequence    Ÿ
                                   20622    1246.     Ÿ                                                                     Ÿ
                                                      ¾þþþþþþþþþþþþþþþþþþþþþþþþþþþþþþþþþþþþþþþþþþþþþþþþþþþþþþþþþþþþþþþþþþþþþ»
-001E6C 50E0 D000            00000 20624    1248.     SYNCBLK  PROC  ,
 001E70 900C D004/188D       00004 20637             +
 001E76 41D0 D038/0D70       00038 20639             +
 001E7C 47F0 700C            01E88 20662    1249.              GETMAIN RC,LV=L'GDG       Length of GDG block
 USING  *,R7
 001E80 00000040/00/00             20666             +
 001E86 00/00                      20669             +
 001E88 5800 7004            01E80 20672             +
 001E8C 58F0 7008/1B11       01E84 20673             +
 001E92 0A78                       20675             +
 001E94 12FF/4770 7050       01ECC 20676    1250.              IF    (R15,Z),BEGIN       Storage acquired
 USING  GDG,R1                     20690  1 1251.                WITH  (GDG,R1)            Addressability to GDG block
 001E9A                            20703  1 1252.                CLEAR GDGFWD              Zero forward pointer
 001E9A D703 1000 1000 00000 00000 20709  1          +
 001EA0                            20710  1 1253.                CLEAR GDGGEN              Zero current generation number
 001EA0 D703 1004 1004 00004 00004 20716  1          +
 001EA6 9240 1014      00014       20717  1 1254.                MVI   GDGNAME,C' '        Blank fill data set name
 001EAA D22A 1015 1014 00015 00014 20718  1 1255.                MVC   GDGNAME+1(L'GDGNAME-1),GDGNAME  complete propogation
 001EB0 4120 B92C            0092C 20719  1 1256.                LA    R2,GDGANCHR         Set anchor address
 001EB4 5830 2000            00000 20720  1 1257.                L     R3,@R2              Set first chain address
 001EB8 1233/4780 704C       01EC8 20721  1 1258.                WHILE (R3,NZ),BEGIN       Chain to end
 001EBE 1823                       20737  2 1259.                  LR    R2,R3               Set back chain address
 001EC0 5830 2000            00000 20738  2 1260.                  L     R3,@R2              Chain forward
 001EC4 47F0 703C            01EB8 20739  1 1261.                END   ,
 001EC8 5010 2000            00000 20744  1 1262.                ST    R1,@R2              Set back chain address
 DROP   GDG,R1                     20745    1263.              END   ,
 001ECC 5018 0008            00008 20754    1264.              PRETURN (R1)              Return GDG block pointer
 001ED0 18D8/980C D004       00004 20756    1265.              PEND  ,
 DROP   *,R7
 001ED6 58E0 D000/12FF       00000 20772             +
 001EDC 07FE                       20775             +
1VMNT     (VMNT21) (09:48) (22MAR04) IHAPSAE  - PSA Extension (ESAME)                                                       Page   68
0Current Usings:  (VMNT,R11) (ATTREC,R12)
0Loc    Object Code    Addr1 Addr2  Stmt Lv Lineno    Source Statement           (Hibal 5, Asmedit 3.3)  HLASM R4.0  2004/03/22 09.48
+___    ______ ____    _____ _____  ____ __ ______    ______ _________
0                                  20777    1267.     ¿þþþþþþþþþþþþþþþþþþþþþþþþþþþþþþþþþþþþþþþþþþþþþþþþþþþþþþþþþþþþþþþþþþþþþÜ
                                   20778    1268.     Ÿ                                                                     Ÿ
                                   20779    1269.     Ÿ  Construct fully qualified GDG name into "SYNCDSN"                  Ÿ
                                   20780    1270.     Ÿ                                                                     Ÿ
                                                      ¾þþþþþþþþþþþþþþþþþþþþþþþþþþþþþþþþþþþþþþþþþþþþþþþþþþþþþþþþþþþþþþþþþþþþþ»
0001EDE 50E0 D000            00000 20782    1272.     SYNCSET  PROC  ,                   Enter and save registers
 001EE2 900C D004/188D       00004 20795             +
 001EE8 41D0 D038/0D70       00038 20797             +
 USING  *,R7                       20820    1273.              WITH  (GDG,R4)            Addressability to gdg block
 USING  GDG,R4
 001EEE D22B B994 4014 00994 00014 20833    1274.              MVC   SYNCDSN,GDGNAME     Set name
 001EF4 4110 B994            00994 20834    1275.              LA    R1,SYNCDSN          Address of name
 001EF8 4100 002C            0002C 20835    1276.              LA    R0,44               Set maximum length
 001EFC 4DE0 B438            00438 20836    1277.              LCALL RTRIM               Trim trailing blanks
 001F00 1E10                       20838    1278.              ALR   R1,R0               Address of last
 001F02 D208 1000 70AD 00000 01F9B 20839    1279.              MVC   @R1(9),=C'.G0000V00'    generation suffix
 001F08 5800 4004            00004 20840    1280.              L     R0,GDGGEN           Set current gen
 001F0C 4E00 B820            00820 20841    1281.              CVD   R0,CLWTEMP          Convert to decimal
 001F10 F337 1002 B820 00002 00820 20842    1282.              UNPK  @R1+2(4),CLWTEMP(8) Doit
 001F16 96F0 1005      00005       20843    1283.              OI    @R1+5,X'F0'         Fixup sign byte
 001F1A 18D8/980C D004       00004 20844    1284.              PEND  ,
 DROP   GDG,R4
 DROP   *,R7
 001F20 58E0 D000/12FF       00000 20865             +
 001F26 07FE                       20868             +
1VMNT     (VMNT21) (09:48) (22MAR04) IHAPSAE  - PSA Extension (ESAME)                                                       Page   69
0Current Usings:  (VMNT,R11) (ATTREC,R12)
0Loc    Object Code    Addr1 Addr2  Stmt Lv Lineno    Source Statement           (Hibal 5, Asmedit 3.3)  HLASM R4.0  2004/03/22 09.48
+___    ______ ____    _____ _____  ____ __ ______    ______ _________
0                                  20870    1286.     ¿þþþþþþþþþþþþþþþþþþþþþþþþþþþþþþþþþþþþþþþþþþþþþþþþþþþþþþþþþþþþþþþþþþþþþÜ
                                   20871    1287.     Ÿ                                                                     Ÿ
                                   20872    1288.     Ÿ  Define literal pool                                                Ÿ
                                   20873    1289.     Ÿ                                                                     Ÿ
                                                      ¾þþþþþþþþþþþþþþþþþþþþþþþþþþþþþþþþþþþþþþþþþþþþþþþþþþþþþþþþþþþþþþþþþþþþþ»
-001F28                            20875    1291.              LTORG ,                   DEFINE INITIAL LITERAL POOL
 001F28 4BC4C9D9C4E4D4D7           20877                             =C'.DIRDUMP'
 001F30 C4C9D9C4E4D4D740           20878                             =CL8'DIRDUMP'
 001F38 4BC9E7D9C4E4D4D7           20879                             =C'.IXRDUMP'
 001F40 C9E7D9C4E4D4D740           20880                             =CL8'IXRDUMP'
 001F48 E3C1D7C5F0F04040           20881                             =CL8'TAPE00'
 001F50 4040404040404040           20882                             =CL8' '
 001F58 00001E6C                   20883                             =A(SYNCBLK)
 001F5C 00000001                   20884                             =A(1)
 001F60 00000000                   20885                             =V(BTD)
 001F64 00005C86                   20886                             =A(ADDFILE)
 001F68 00000004                   20887                             =A(4)
 001F6C 00000000                   20888                             =V(XTB)
 001F70 00005D20                   20889                             =A(ADDBCV)
 001F74 00000002                   20890                             =A(2)
 001F78 00000000                   20891                             =V(SCINIT)
 001F7C 00000000                   20892                             =V(SCAN)
 001F80 00005A01                   20893                             =A(YESOK)
 001F84 00000008                   20894                             =A(8)
 001F88 00001DE6                   20895                             =A(SET34TXT)
 001F8C 00000006                   20896                             =A(6)
 001F90 0004                       20897                             =Y(4)
 001F92 0008                       20898                             =Y((R15+1-(R14)+16*((R14)/(R15+1))/((R14)/(R15+1)))*4)
 001F94 4BC6C9D3E2C5C7             20899                             =C'.FILSEG'
 001F9B 4BC7F0F0F0F0E5F0           20900                             =C'.G0000V00'
1VMNT     (VMNT21) (09:48) (22MAR04) IHAPSAE  - PSA Extension (ESAME)                                                       Page   70
0Current Usings:  (VMNT,R11) (ATTREC,R12)
0Loc    Object Code    Addr1 Addr2  Stmt Lv Lineno    Source Statement           (Hibal 5, Asmedit 3.3)  HLASM R4.0  2004/03/22 09.48
+___    ______ ____    _____ _____  ____ __ ______    ______ _________
0                                  20905    1293.     ¿þþþþþþþþþþþþþþþþþþþþþþþþþþþþþþþþþþþþþþþþþþþþþþþþþþþþþþþþþþþþþþþþþþþþþÜ
                                   20906    1294.     Ÿ                                                                     Ÿ
                                   20907    1295.     Ÿ  Process ending generation data group levels checking for           Ÿ
                                   20908    1296.     Ÿ  out of synchronization conditions.  If file maintenance has        Ÿ
                                   20909    1297.     Ÿ  been successful all generation data groups should be at the +1     Ÿ
                                   20910    1298.     Ÿ  level.  If this is not the case a warning message is Issued and    Ÿ
                                   20911    1299.     Ÿ  a return code of 4 is returned for file system maintenance.        Ÿ
                                   20912    1300.     Ÿ                                                                     Ÿ
                                   20913    1301.     Ÿ  If file system maintenance has failed due to some error the        Ÿ
                                   20914    1302.     Ÿ  current generation levels are compared to the initial status.      Ÿ
                                   20915    1303.     Ÿ  Newly created generation and uncataloged and scratched if they     Ÿ
                                   20916    1304.     Ÿ  reside on direct access storage.                                   Ÿ
                                   20917    1305.     Ÿ                                                                     Ÿ
                                                      ¾þþþþþþþþþþþþþþþþþþþþþþþþþþþþþþþþþþþþþþþþþþþþþþþþþþþþþþþþþþþþþþþþþþþþþ»
-001FC8 50E0 D000            00000 20919    1308.     SYNCLST  PROC  ,                   Enter and save calling registers
 001FCC 900C D004/188D       00004 20932             +
 001FD2 41D0 D038/0D70       00038 20934             +
 001FD8 4110 78A0            02878 20957    1309.              LA    R1,=CL8'CONTROL'    Check for control file
 USING  *,R7
 001FDC 4DE0 B4CE            004CE 20958    1310.              LCALL FINDDD              Check for ddname present
 001FE0 4770 7274            0224C 20960    1311.              IF    Z,BEGIN             Yep -- proc gdg sync check
 001FE4 1B00/41F0 BB1C       00B1C 20971  1 1312.                SEGWR  ,
 001FEA 58E0 7950/0DEE       02928 20993  1          +
 001FF0 4110 7A08            029E0 20995  1 1313.                SEG   'VMNT107I - Checking final GDG synchronization.'
 001FF4 4100 002E            0002E 20999  1          +
 001FF8 41F0 BB1C            00B1C 21007  1          +
 001FFC 58E0 7954/0DEE       0292C 21010  1          +
 002002 1B00/41F0 BB1C       00B1C 21012  1 1314.                SEGWR ,
 002008 58E0 7950/0DEE       02928 21034  1          +
 00200E 5840 B92C            0092C 21036  1 1315.                L     R4,GDGANCHR         Set anchor address for gdg blocks
 USING  GDG,R4                     21037  1 1316.                USING GDG,R4              ## addressability to gdg block
 002012 1244/4780 724A       02222 21046  1 1317.                WHILE (R4,NZ),BEGIN       Chain through gdg blocks
 002018 4100 0005            00005 21062  2 1318.                  SEGBLANK 5                Set blank spacing in report
 00201C 41F0 BB1C            00B1C 21077  2          +
 002020 58E0 7958/0DEE       02930 21080  2          +
 002026 D22B B994 4014 00994 00014 21082  2 1319.                  MVC   SYNCDSN,GDGNAME     Set gdg prefix name
 00202C 4110 B994            00994 21083  2 1320.                  LA    R1,SYNCDSN          Set address of name
 002030 4100 002C            0002C 21084  2 1321.                  LA    R0,44               Set maximum name length
 002034 4DE0 B438            00438 21085  2 1322.                  LCALL RTRIM               Trim trailing blanks
 002038 1E10                       21087  2 1323.                  ALR   R1,R0               Address of last
 00203A D203 1000 795C 00000 02934 21088  2 1324.                  MVC   @R1(4),=C'(+0)'     Set for generation zero
 002040 4110 BE04/0A1A       00E04 21089  2 1325.                  LOCATE SYNLOC             Locate in catalog
 002046 12FF/4780 7084       0205C 21093  2 1326.                  IF    (R15,NZ),BEGIN
 00204C 4110 014D            0014D 21107  3 1327.                    ABEND 333,DUMP
 002050 4100 0080            00080 21112  3          +
 002054 8900 0018/1610       00018 21113  3          +
 00205A 0A0D                       21115  3          +
 00205C                            21116  2 1328.                  END   ,
 00205C 4110 B994            00994 21120  2 1329.                  LA    R1,SYNCDSN          Address of data set name
 002060 4100 002C            0002C 21121  2 1330.                  LA    R0,44               Maximum name length
 002064 4DE0 B438            00438 21122  2 1331.                  LCALL RTRIM               Strip trailing blanks
 002068 1E10                       21124  2 1332.                  ALR   R1,R0               Address of last byte
1VMNT     (VMNT21) (09:48) (22MAR04) IHAPSAE  - PSA Extension (ESAME)                                                       Page   71
0Current Usings:  (GDG,R4) (*,R7) (VMNT,R11) (ATTREC,R12)
0Loc    Object Code    Addr1 Addr2  Stmt Lv Lineno    Source Statement           (Hibal 5, Asmedit 3.3)  HLASM R4.0  2004/03/22 09.48
+___    ______ ____    _____ _____  ____ __ ______    ______ _________
000206A 5F10 7960            02938 21125  2 1333.                  SL    R1,=A(7)            Backoff to generation
 00206E F273 B820 1000 00820 00000 21126  2 1334.                  PACK  CLWTEMP,@R1(4)      Convert to packed
 002074 4F00 B820            00820 21127  2 1335.                  CVB   R0,CLWTEMP          Convert to binary
 002078 D203 4008 4004 00008 00004 21128  2 1336.                  MVC   GDGPREV,GDGGEN      Move starting generation
 00207E 5000 4004            00004 21129  2 1337.                  ST    R0,GDGGEN           Set current generation
 002082 4110 4014            00014 21130  2 1338.                  LA    R1,GDGNAME          Address of prefix
 002086 4100 002C            0002C 21131  2 1339.                  LA    R0,44               Set maximum name length
 00208A 4DE0 B438            00438 21132  2 1340.                  LCALL RTRIM               Trim trailing blanks
 00208E 41F0 BB1C            00B1C 21134  2 1341.                  SEG   (R1),(R0)           Add name to message
 002092 58E0 7954/0DEE       0292C 21155  2          +
 002098 4110 7A36            02A0E 21157  2 1342.                  SEG   ' is at generation '
 00209C 4100 0012            00012 21161  2          +
 0020A0 41F0 BB1C            00B1C 21169  2          +
 0020A4 58E0 7954/0DEE       0292C 21172  2          +
 0020AA 5810 4004/1B00       00004 21174  2 1343.                  SEGDC L:GDGGEN,0          Add current generation
 0020B0 41F0 BB1C            00B1C 21190  2          +
 0020B4 58E0 7964/0DEE       0293C 21193  2          +
 0020BA                            21195  2 1344.                  IF    (RETCDE,LE,4),BEGIN
 0020BA D503 7968 B864 02940 00864 21207  2          +
 0020C0 4750 711A            020F2 21208  2          +
 0020C4 5800 4004            00004 21213  3 1345.                    L     R0,GDGGEN           Get current generation
 0020C8 5B00 4008            00008 21214  3 1346.                    S     R0,GDGPREV          Less previous generation
 0020CC 5900 796C            02944 21215  3 1347.                    IF    (R0,NE,1),BEGIN     Gdg synchronization error
 0020D0 4780 711A            020F2 21227  3          +
 0020D4 4110 7970            02948 21232  4 1348.                      SEG   ' (OUT OF SYNC ERROR)'
 0020D8 4100 0014            00014 21236  4          +
 0020DC 41F0 BB1C            00B1C 21244  4          +
 0020E0 58E0 7954/0DEE       0292C 21247  4          +
 0020E6 1B00/41F0 BB1C       00B1C 21249  4 1349.                      SEGWR ,                   WRITE TO REPORT FILE
 0020EC 58E0 7950/0DEE       02928 21271  4          +
 0020F2                            21273  3 1350.                    END   ,
 0020F2 711E           020F2 020C2 21277  2 1351.                  END   ELSE,BEGIN          FILE MAINTENANCE HAS ABENDED
 0020F2 47F0 7236            0220E 21286  2          +
 0020F6                            21292  3 1352.                    IF    (GDGGEN,NE,GDGPREV),BEGIN     HAVE TO BACK IT UP
 0020F6 D503 4004 4008 00004 00008 21304  3          +
 0020FC 4780 714C            02124 21305  3          +
 002100 4110 78A8            02880 21310  4 1353.                      SEG   ' (Extraneous Generation)'
 002104 4100 0018            00018 21314  4          +
 002108 41F0 BB1C            00B1C 21322  4          +
 00210C 58E0 7954/0DEE       0292C 21325  4          +
 002112 1B00/41F0 BB1C       00B1C 21327  4 1354.                      SEGWR ,                   Write to report file
 002118 58E0 7950/0DEE       02928 21349  4          +
 00211E 58E0 7984/0DEE       0295C 21351  4 1355.                      ACALL SYNCKILL            Go kill this generation
 002124 7150           02124 020FE 21355  3 1356.                    END   ELSE,BEGIN          Must kill if still allocated
 002124 47F0 7236            0220E 21364  3          +
 002128 4110 400C            0000C 21370  4 1357.                      LA    R1,GDGDD            Address of gdg ddname
 00212C 4DE0 B4CE            004CE 21371  4 1358.                      LCALL FINDDD              Look in tiot for ddname
 002130 4770 7236            0220E 21373  4 1359.                      IF    Z,BEGIN             Found it -- unallocate it
 002134 D207 BC75 400C 00C75 0000C 21384  5 1360.                        MVC   KILLDD+6(8),GDGDD   Set ddname to unallocate
 00213A 5800 4004            00004 21385  5 1361.                        L     R0,GDGGEN           Set current gen
 00213E 5A00 796C            02944 21386  5 1362.                        A     R0,=A(1)              + 1 for future catalog
 002142 5000 4004            00004 21387  5 1363.                        ST    R0,GDGGEN               resave in gdg block
 002146 58E0 7988/0DEE       02960 21388  5 1364.                        ACALL SYNCSET             Create qualified name
 00214C D22B BC83 B994 00C83 00994 21392  5 1365.                        MVC   KILLDSN+6(44),SYNCDSN   SET QUALIFIED GDG NAME
1VMNT     (VMNT21) (09:48) (22MAR04) IHAPSAE  - PSA Extension (ESAME)                                                       Page   72
0Current Usings:  (GDG,R4) (*,R7) (VMNT,R11) (ATTREC,R12)
0Loc    Object Code    Addr1 Addr2  Stmt Lv Lineno    Source Statement           (Hibal 5, Asmedit 3.3)  HLASM R4.0  2004/03/22 09.48
+___    ______ ____    _____ _____  ____ __ ______    ______ _________
0002152 9202 BB5D      00B5D       21393  5 1366.                        MVI   SDYNPRM+1,S99VRBUN  Set unallocation request
 002156 4110 BB78            00B78 21394  5 1367.                        LA    R1,KILLUN           Address for text pointers
 00215A 5010 BB64            00B64 21395  5 1368.                        ST    R1,SDYNPRM+8        Save in svc99 rb area
 00215E 4110 BB58            00B58 21396  5 1369.                        LA    R1,SDYNBLK          Address of parameter list
 002162 0A63                       21397  5 1370.                        DYNALLOC ,
 002164 12FF/4780 7230       02208 21400  5 1371.                        IF    (R15,NZ),BEGIN      Bad return to dynamic allocation
 00216A 182F                       21414  6 1372.                          LR    R2,R15              Save return code
 00216C 4100 000A            0000A 21415  6 1373.                          SEGBLANK 10
 002170 41F0 BB1C            00B1C 21430  6          +
 002174 58E0 7958/0DEE       02930 21433  6          +
 00217A 4110 78C0            02898 21435  6 1374.                          SEG   'Error return from DYNALLOC, R15('
 00217E 4100 0020            00020 21439  6          +
 002182 41F0 BB1C            00B1C 21447  6          +
 002186 58E0 7954/0DEE       0292C 21450  6          +
 00218C 1812/1B00                  21452  6 1375.                          SEGDC (R2),0              Add return code
 002190 41F0 BB1C            00B1C 21468  6          +
 002194 58E0 7964/0DEE       0293C 21471  6          +
 00219A 4110 78E0            028B8 21473  6 1376.                          SEG   ') Error('
 00219E 4100 0008            00008 21477  6          +
 0021A2 41F0 BB1C            00B1C 21485  6          +
 0021A6 58E0 7954/0DEE       0292C 21488  6          +
 0021AC 1FFF/BFF3 BB60       00B60 21490  6 1377.                          L2    R15,SDYNPRM+4       Set error code
 0021B2 181F/4100 0004       00004 21498  6 1378.                          SEGHX (R15),4
 0021B8 41F0 BB1C            00B1C 21517  6          +
 0021BC 58E0 798C/0DEE       02964 21520  6          +
 0021C2 4110 7A8C            02A64 21522  6 1379.                          SEG   ') Reason('         Add reason code
 0021C6 4100 0009            00009 21526  6          +
 0021CA 41F0 BB1C            00B1C 21534  6          +
 0021CE 58E0 7954/0DEE       0292C 21537  6          +
 0021D4 1FFF/BFF3 BB62       00B62 21539  6 1380.                          L2    R15,SDYNPRM+6       Set reason code
 0021DA 181F/4100 0004       00004 21547  6 1381.                          SEGHX (R15),4             Add to message
 0021E0 41F0 BB1C            00B1C 21566  6          +
 0021E4 58E0 798C/0DEE       02964 21569  6          +
 0021EA 4110 7A95            02A6D 21571  6 1382.                          SEG   ')'
 0021EE 4100 0001            00001 21575  6          +
 0021F2 41F0 BB1C            00B1C 21583  6          +
 0021F6 58E0 7954/0DEE       0292C 21586  6          +
 0021FC 1B00/41F0 BB1C       00B1C 21588  6 1383.                          SEGWR ,
 002202 58E0 7950/0DEE       02928 21610  6          +
 002208                            21612  5 1384.                        END   ,
 002208 58E0 7984/0DEE       0295C 21616  5 1385.                        ACALL SYNCKILL            Kill it dead
 00220E                            21620  4 1386.                      END   ,
 00220E                            21624  3 1387.                    END   ,
 00220E                            21628  2 1388.                  END   ,
 00220E 1B00/41F0 BB1C       00B1C 21632  2 1389.                  SEGWR  ,                  Write report line
 002214 58E0 7950/0DEE       02928 21654  2          +
 00221A 5840 4000            00000 21656  2 1390.                  L     R4,GDGFWD           Chain forward
 DROP   GDG,R4                     21657  2 1391.                  DROP  R4                  ## release addr
 00221E 47F0 703A            02012 21664  1 1392.                END   ,
 002222 4110 7990            02968 21669  1 1393.                SEG   'VMNT303I - Final GDG synchronization check complete.'
 002226 4100 0034            00034 21673  1          +
 00222A 41F0 BB1C            00B1C 21681  1          +
 00222E 58E0 7954/0DEE       0292C 21684  1          +
 002234 1B00/41F0 BB1C       00B1C 21686  1 1394.                SEGWR  ,
1VMNT     (VMNT21) (09:48) (22MAR04) IHAPSAE  - PSA Extension (ESAME)                                                       Page   73
0Current Usings:  (*,R7) (VMNT,R11) (ATTREC,R12)
0Loc    Object Code    Addr1 Addr2  Stmt Lv Lineno    Source Statement           (Hibal 5, Asmedit 3.3)  HLASM R4.0  2004/03/22 09.48
+___    ______ ____    _____ _____  ____ __ ______    ______ _________
000223A 58E0 7950/0DEE       02928 21708  1          +
 002240 9110 B8D3      008D3       21710  1 1395.                IF    GDGERROR,'MVI RETCDE+3,8'     SET RETURN CODE
 002244 47E0 7274            0224C 21720  1          +
 002248 9208 B867      00867       21726  1          +
 00224C                            21731    1396.              END   ,
 00224C 18D8/980C D004       00004 21735    1397.              PEND  ,
 DROP   *,R7
 002252 58E0 D000/12FF       00000 21751             +
 002258 07FE                       21754             +
1VMNT     (VMNT21) (09:48) (22MAR04) IHAPSAE  - PSA Extension (ESAME)                                                       Page   74
0Current Usings:  (VMNT,R11) (ATTREC,R12)
0Loc    Object Code    Addr1 Addr2  Stmt Lv Lineno    Source Statement           (Hibal 5, Asmedit 3.3)  HLASM R4.0  2004/03/22 09.48
+___    ______ ____    _____ _____  ____ __ ______    ______ _________
0                                  21756    1399.     ¿þþþþþþþþþþþþþþþþþþþþþþþþþþþþþþþþþþþþþþþþþþþþþþþþþþþþþþþþþþþþþþþþþþþþþÜ
                                   21757    1400.     Ÿ                                                                     Ÿ
                                   21758    1401.     Ÿ  Kill current generation                                            Ÿ
                                   21759    1402.     Ÿ                                                                     Ÿ
                                                      ¾þþþþþþþþþþþþþþþþþþþþþþþþþþþþþþþþþþþþþþþþþþþþþþþþþþþþþþþþþþþþþþþþþþþþþ»
-00225A 50E0 D000            00000 21761    1405.     SYNCKILL PROC  ,                   Save calling registers
 00225E 900C D004/188D       00004 21774             +
 002264 41D0 D038/0D70       00038 21776             +
 USING  *,R7                       21799    1406.              WITH  (GDG,R5)            Addressability to gdg block
 USING  GDG,R5
 00226A 58E0 76F6/0DEE       02960 21812    1407.              ACALL SYNCSET             Set current dsn into syncdsn
 002270 4110 BE04/0A1A       00E04 21816    1408.              LOCATE SYNLOC             Request catalog information
 002276 12FF/4780 7062       022CC 21820    1409.              IF    (R15,NZ),BEGIN      Bad request from locate
 00227C 183F                       21834  1 1410.                LR    R3,R15              Save return code
 00227E 1B00/41F0 BB1C       00B1C 21835  1 1411.                SEGWR ,                   Write any residual message line
 002284 58E0 76BE/0DEE       02928 21857  1          +
 00228A 4100 000A            0000A 21859  1 1412.                SEGBLANK 10               Filler space
 00228E 41F0 BB1C            00B1C 21874  1          +
 002292 58E0 76C6/0DEE       02930 21877  1          +
 002298 4110 7804            02A6E 21879  1 1413.                SEG   'Bad return from locate, RETURN='
 00229C 4100 001F            0001F 21883  1          +
 0022A0 41F0 BB1C            00B1C 21891  1          +
 0022A4 58E0 76C2/0DEE       0292C 21894  1          +
 0022AA 1813/1B00                  21896  1 1414.                SEGDC (R3),0              Add return code
 0022AE 41F0 BB1C            00B1C 21912  1          +
 0022B2 58E0 76D2/0DEE       0293C 21915  1          +
 0022B8 1B00/41F0 BB1C       00B1C 21917  1 1415.                SEGWR ,
 0022BE 58E0 76BE/0DEE       02928 21939  1          +
 0022C4 41F0 0004            00004 21941  1 1416.                LA    R15,4               Set return code
 0022C8 47F0 71E6            02450 21942  1 1417.                B     SYNCKXIT            Return from kill subroutine
 0022CC                            21943    1418.              END   ,
 0022CC 5830 BE10            00E10 21947    1419.              L     R3,SYNLOC+12        Set volume list area
 0022D0 D203 BE32 3002 00E32 00002 21948    1420.              MVC   SYNDEV,@R3+2        Set device type into list
 0022D6 D205 BE36 3006 00E36 00006 21949    1421.              MVC   SYNSER,@R3+6        Set first volume serial
 0022DC 4110 BE14/0A1A       00E14 21950    1422.              CATALOG SYNUNC            Uncatalog data set
 0022E2 12FF/4780 70C2       0232C 21955    1423.              IF    (R15,NZ),BEGIN
 0022E8 183F                       21969  1 1424.                LR    R3,R15              Save return code
 0022EA 4100 000A            0000A 21970  1 1425.                SEGBLANK 10               Add blank filler
 0022EE 41F0 BB1C            00B1C 21985  1          +
 0022F2 58E0 76C6/0DEE       02930 21988  1          +
 0022F8 4110 7823            02A8D 21990  1 1426.                SEG   'Bad return from catalog'
 0022FC 4100 0017            00017 21994  1          +
 002300 41F0 BB1C            00B1C 22002  1          +
 002304 58E0 76C2/0DEE       0292C 22005  1          +
 00230A 1813/1B00                  22007  1 1427.                SEGDC (R3),0              Add return code
 00230E 41F0 BB1C            00B1C 22023  1          +
 002312 58E0 76D2/0DEE       0293C 22026  1          +
 002318 1B00/41F0 BB1C       00B1C 22028  1 1428.                SEGWR ,                   Write to report file
 00231E 58E0 76BE/0DEE       02928 22050  1          +
 002324 41F0 0004            00004 22052  1 1429.                LA    R15,4               Set bad return code
 002328 47F0 71E6            02450 22053  1 1430.                B     SYNCKXIT            Return from kill subroutine
 00232C                            22054    1431.              END   ,
1VMNT     (VMNT21) (09:48) (22MAR04) IHAPSAE  - PSA Extension (ESAME)                                                       Page   75
0Current Usings:  (GDG,R5) (*,R7) (VMNT,R11) (ATTREC,R12)
0Loc    Object Code    Addr1 Addr2  Stmt Lv Lineno    Source Statement           (Hibal 5, Asmedit 3.3)  HLASM R4.0  2004/03/22 09.48
+___    ______ ____    _____ _____  ____ __ ______    ______ _________
000232C 4100 000A            0000A 22058    1432.              SEGBLANK 10               Add blank filler
 002330 41F0 BB1C            00B1C 22073             +
 002334 58E0 76C6/0DEE       02930 22076             +
 00233A 4110 B994            00994 22078    1433.              LA    R1,SYNCDSN          Address of dsn
 00233E 4100 002C            0002C 22079    1434.              LA    R0,44               Set maximum length
 002342 4DE0 B438            00438 22080    1435.              LCALL RTRIM               Trim trailing blanks
 002346 41F0 BB1C            00B1C 22082    1436.              SEG   (R1),(R0)           Add data set
 00234A 58E0 76C2/0DEE       0292C 22103             +
 002350 4110 77B6            02A20 22105    1437.              SEG   ' has been uncataloged.'
 002354 4100 0016            00016 22109             +
 002358 41F0 BB1C            00B1C 22117             +
 00235C 58E0 76C2/0DEE       0292C 22120             +
 002362 1B00/41F0 BB1C       00B1C 22122    1438.              SEGWR ,                   Write to report file
 002368 58E0 76BE/0DEE       02928 22144             +
 00236E 9520 BE34      00E34       22146    1439.              IF    (SYNDEV+2,EQ,X'20'),BEGIN     DASD DEVICE
 002372 4770 719C            02406 22158             +
 002376 1B00                       22163  1 1440.                CLEAR R0                  Silly scratch, no ucb given
 002378 4110 BE20/0A1D       00E20 22167  1 1441.                SCRATCH SYNSCR            Scratch direct data set
 00237E 12FF/4780 715E       023C8 22171  1 1442.                IF    (R15,NZ),BEGIN      Whoops -- Should be SCIP CVT
 002384 183F                       22185  2 1443.                  LR    R3,R15              Save return code
 002386 4100 000A            0000A 22186  2 1444.                  SEGBLANK 10               Add blank filler
 00238A 41F0 BB1C            00B1C 22201  2          +
 00238E 58E0 76C6/0DEE       02930 22204  2          +
 002394 4110 7656            028C0 22206  2 1445.                  SEG   'Bad return from scratch, return='
 002398 4100 0020            00020 22210  2          +
 00239C 41F0 BB1C            00B1C 22218  2          +
 0023A0 58E0 76C2/0DEE       0292C 22221  2          +
 0023A6 1813/1B00                  22223  2 1446.                  SEGDC (R3),0              Add return code to message
 0023AA 41F0 BB1C            00B1C 22239  2          +
 0023AE 58E0 76D2/0DEE       0293C 22242  2          +
 0023B4 1B00/41F0 BB1C       00B1C 22244  2 1447.                  SEGWR ,                   Write to report file
 0023BA 58E0 76BE/0DEE       02928 22266  2          +
 0023C0 41F0 0004            00004 22268  2 1448.                  LA    R15,4               Set bad return code
 0023C4 47F0 71E6            02450 22269  2 1449.                  B     SYNCKXIT            And return from kill routine
 0023C8                            22270  1 1450.                END   ,
 0023C8 4100 000A            0000A 22274  1 1451.                SEGBLANK 10               Add blank filler
 0023CC 41F0 BB1C            00B1C 22289  1          +
 0023D0 58E0 76C6/0DEE       02930 22292  1          +
 0023D6 4110 7676            028E0 22294  1 1452.                SEG   'Has been scratched from '
 0023DA 4100 0018            00018 22298  1          +
 0023DE 41F0 BB1C            00B1C 22306  1          +
 0023E2 58E0 76C2/0DEE       0292C 22309  1          +
 0023E8 4110 BE36            00E36 22311  1 1453.                SEG   SYNSER,6
 0023EC 4100 0006            00006 22327  1          +
 0023F0 41F0 BB1C            00B1C 22335  1          +
 0023F4 58E0 76C2/0DEE       0292C 22338  1          +
 0023FA 1B00/41F0 BB1C       00B1C 22340  1 1454.                SEGWR ,
 002400 58E0 76BE/0DEE       02928 22362  1          +
 002406                            22364    1455.              END   ,
 002406 1B00/41F0 BB1C       00B1C 22368    1456.              SEGWR ,
 00240C 58E0 76BE/0DEE       02928 22390             +
 002412 4100 000A            0000A 22392    1457.              SEGBLANK 10               BLANK SPACE
 002416 41F0 BB1C            00B1C 22407             +
 00241A 58E0 76C6/0DEE       02930 22410             +
1VMNT     (VMNT21) (09:48) (22MAR04) IHAPSAE  - PSA Extension (ESAME)                                                       Page   76
0Current Usings:  (GDG,R5) (*,R7) (VMNT,R11) (ATTREC,R12)
0Loc    Object Code    Addr1 Addr2  Stmt Lv Lineno    Source Statement           (Hibal 5, Asmedit 3.3)  HLASM R4.0  2004/03/22 09.48
+___    ______ ____    _____ _____  ____ __ ______    ______ _________
0002420 4110 783A            02AA4 22412    1458.              SEG   'Has been backed up to generation '
 002424 4100 0021            00021 22416             +
 002428 41F0 BB1C            00B1C 22424             +
 00242C 58E0 76C2/0DEE       0292C 22427             +
 002432 5810 5008/1B00       00008 22429    1459.              SEGDC L:GDGPREV,0         Report previous generation
 002438 41F0 BB1C            00B1C 22445             +
 00243C 58E0 76D2/0DEE       0293C 22448             +
 002442 1B00/41F0 BB1C       00B1C 22450    1460.              SEGWR ,
 002448 58E0 76BE/0DEE       02928 22472             +
 00244E 1BFF                       22474    1461.              CLEAR R15                 ZERO RETURN CODE
 002450                            22478    1462.     SYNCKXIT LABEL ,                   ERROR EXIT POINT
 002450 18D8/980C D004       00004 22480    1463.              PEND  ,
 DROP   GDG,R5
 DROP   *,R7
 002456 58E0 D000/12FF       00000 22501             +
 00245C 07FE                       22504             +
1VMNT     (VMNT21) (09:48) (22MAR04) IHAPSAE  - PSA Extension (ESAME)                                                       Page   77
0Current Usings:  (VMNT,R11) (ATTREC,R12)
0Loc    Object Code    Addr1 Addr2  Stmt Lv Lineno    Source Statement           (Hibal 5, Asmedit 3.3)  HLASM R4.0  2004/03/22 09.48
+___    ______ ____    _____ _____  ____ __ ______    ______ _________
0                                  22506    1463.02   ¿þþþþþþþþþþþþþþþþþþþþþþþþþþþþþþþþþþþþþþþþþþþþþþþþþþþþþþþþþþþþþþþþþþþþþÜ
                                   22507    1463.03   Ÿ                                                                     Ÿ
                                   22508    1463.04   Ÿ  Append message suffix according to file system name                Ÿ
                                   22509    1463.05   Ÿ                                                                     Ÿ
                                                      ¾þþþþþþþþþþþþþþþþþþþþþþþþþþþþþþþþþþþþþþþþþþþþþþþþþþþþþþþþþþþþþþþþþþþþþ»
-00245E 50E0 D000            00000 22511    1463.07   MSGSUFF  PROC  ,                   Enter and save calling registers
 002462 900C D004/188D       00004 22524             +
 002468 41D0 D038/0D70       00038 22526             +
 00246E 4100 0008            00008 22549    1463.08            LA    R0,8                Set maximum name length
 USING  *,R7
 002472 4110 B874            00874 22550    1463.09            LA    R1,ORVNAME          Set address of orvyl name
 002476 4DE0 B438            00438 22551    1463.1             LCALL RTRIM               Trim trailing blanks
 00247A 41F0 BB1C            00B1C 22553    1463.11            SEG   (R1),(R0)           Set into message buffer
 00247E 58E0 74BE/0DEE       0292C 22574             +
 002484 4110 7657            02AC5 22576    1463.12            SEG   '/'                 Add separator character
 002488 4100 0001            00001 22580             +
 00248C 41F0 BB1C            00B1C 22588             +
 002490 58E0 74BE/0DEE       0292C 22591             +
 002496 4100 0008            00008 22593    1463.13            LA    R0,8                Set maximum name length
 00249A 5810 B87C            0087C 22594    1463.14            L     R1,FSACTIVE         Set active file system name
 00249E 4DE0 B438            00438 22595    1463.15            LCALL RTRIM               Trim trailing blanks
 0024A2 41F0 BB1C            00B1C 22597    1463.16            SEGB  (R1),(R0)           Add file system name to message
 0024A6 58E0 752E/0DEE       0299C 22619             +
 0024AC 1BFF                       22621    1463.18            CLEAR R15                 Clear return code
 0024AE 18D8/980C D004       00004 22625    1463.19            PEND  ,                   Restore registers and return
 DROP   *,R7
 0024B4 58E0 D000/12FF       00000 22641             +
 0024BA 07FE                       22644             +
1VMNT     (VMNT21) (09:48) (22MAR04) IHAPSAE  - PSA Extension (ESAME)                                                       Page   78
0Current Usings:  (VMNT,R11) (ATTREC,R12)
0Loc    Object Code    Addr1 Addr2  Stmt Lv Lineno    Source Statement           (Hibal 5, Asmedit 3.3)  HLASM R4.0  2004/03/22 09.48
+___    ______ ____    _____ _____  ____ __ ______    ______ _________
0                                  22646    1465.     ¿þþþþþþþþþþþþþþþþþþþþþþþþþþþþþþþþþþþþþþþþþþþþþþþþþþþþþþþþþþþþþþþþþþþþþÜ
                                   22647    1466.     Ÿ                                                                     Ÿ
                                   22648    1467.     Ÿ  Enqueue of affected file systems                                   Ÿ
                                   22649    1468.     Ÿ                                                                     Ÿ
                                                      ¾þþþþþþþþþþþþþþþþþþþþþþþþþþþþþþþþþþþþþþþþþþþþþþþþþþþþþþþþþþþþþþþþþþþþþ»
-002B67                02B67 06F60 22651    1470.              DATA  BEGIN
 002B68 C0/00/43/00                22656  1 1471.     ENQLIST    ENQ   (ORVNAME,*-*,E,*-*,SYSTEM),RET=USE,MF=L
 002B6C 00000874                   22665  1          +
 002B70 00000000                   22666  1          +
 002B74 C0/00/41/00                22667  1 1471.1    DEQLIST    DEQ   (ORVNAME,*-*,*-*,SYSTEM),RET=HAVE,MF=L
 002B78 00000874                   22677  1          +
 002B7C 00000000                   22678  1          +
 0024BC                01FC8 06F60 22679    1472.              End   ,
-0024BC 50E0 D000            00000 22686    1474.     ENQFS    PROC  ,                   Enter and save calling registers
 0024C0 900C D004/188D       00004 22699             +
 0024C6 41D0 D038/0D70       00038 22701             +
 0024CC 4120 B880            00880 22724    1475.              LA    R2,FSNAME           First file system ENQ name
 USING  *,R7
 0024D0                            22725    1476.              WHILE ('OC @R2(8),@R2',NZ),BEGIN
 0024D0 D607 2000 2000 00000 00000 22734             +
 0024D6 4780 7196            02662 22735             +
 0024DA 5020 B87C            0087C 22740  1 1477.                ST    R2,FSACTIVE         Set active file system name
 0024DE 4100 0008            00008 22741  1 1478.                LA    R0,8                Set maximum length
 0024E2 1812                       22742  1 1479.                LR    R1,R2                 Move address of file system
 0024E4 4DE0 B438            00438 22743  1 1480.                LCALL RTRIM                   Trim trailing blanks
 0024E8 1830                       22745  1 1481.                LR    R3,R0                     Set string length for ENQ
                                          1                      ¿þþþþþþþþþþþþþþþþþþþþþþþþþþþþþþþþþþþþþþþþþþþþÜ
                                   22746  1 1483.                Ÿ  Request exclusive enqueue on file system  Ÿ
                                          1                      ¾þþþþþþþþþþþþþþþþþþþþþþþþþþþþþþþþþþþþþþþþþþþþ»
 0024EA 4110 769C            02B68 22747  1 1484.                ENQ   (,(R2),,(R3)),RET=USE,MF=(E,ENQLIST)
 0024EE 4230 1001            00001 22751  1          +
 0024F2 94F8 1002      00002       22752  1          +
 0024F6 9603 1002/18E1 00002       22753  1          +
 0024FC 9180 E000      00000       22755  1          +
 002500 4710 7048            02514 22756  1          +
 002504 41EE 000C            0000C 22757  1          +
 002508 94F8 E002      00002       22758  1          +
 00250C 9603 E002      00002       22759  1          +
 002510 47F0 7030            024FC 22760  1          +
 002514 5020 1008/0A38       00008 22761  1          +
 00251A 12FF/4780 718E       0265A 22763  1 1485.                IF    (R15,NZ),BEGIN
 002520 1F33/4330 F000       00000 22777  2 1486.                  LC    R3,@R15             Save return code from enq request
 002526 4110 742C            028F8 22784  2 1487.                  SEG   'VMNT202I - Enqueue held '
 00252A 4100 0018            00018 22788  2          +
 00252E 41F0 BB1C            00B1C 22796  2          +
 002532 58E0 7460/0DEE       0292C 22799  2          +
 002538 4110 75FA            02AC6 22801  2 1488.                  SEG   'ENQ RET=USE,RC='   Report status of enqueue request
 00253C 4100 000F            0000F 22805  2          +
 002540 41F0 BB1C            00B1C 22813  2          +
 002544 58E0 7460/0DEE       0292C 22816  2          +
1VMNT     (VMNT21) (09:48) (22MAR04) IHAPSAE  - PSA Extension (ESAME)                                                       Page   79
0Current Usings:  (*,R7) (VMNT,R11) (ATTREC,R12)
0Loc    Object Code    Addr1 Addr2  Stmt Lv Lineno    Source Statement           (Hibal 5, Asmedit 3.3)  HLASM R4.0  2004/03/22 09.48
+___    ______ ____    _____ _____  ____ __ ______    ______ _________
000254A 1813/1B00                  22818  2 1489.                  SEGDC (R3),0              Set return code into message
 00254E 41F0 BB1C            00B1C 22834  2          +
 002552 58E0 7470/0DEE       0293C 22837  2          +
 002558 4110 7609            02AD5 22839  2 1490.                  SEG   ',FILESYS='         Set message text
 00255C 4100 0009            00009 22843  2          +
 002560 41F0 BB1C            00B1C 22851  2          +
 002564 58E0 7460/0DEE       0292C 22854  2          +
 00256A 58E0 74D4/0DEE       029A0 22856  2 1491.                  ACALL MSGSUFF             Report file system name
 002570 1B00/41F0 BB1C       00B1C 22860  2 1492.                  SEGWR ,                   Write to report file
 002576 58E0 745C/0DEE       02928 22882  2          +
 00257C 41F0 BB1C            00B1C 22884  2 1492.01                SEGLD &$SEGCB             Loadup current SEGCB pointer
 002580 58E0 74D8/0DEE       029A4 22892  2 1492.98                ACALL RPT_SCVT            Report current ScipCVT bits
 002586 58E0 74D4/0DEE       029A0 22896  2 1492.99                ACALL MSGSUFF             For file system
 00258C 4110 74DC            029A8 22900  2 1493.                  SEG   'Waiting for '      Indicate waiting
 002590 4100 000C            0000C 22904  2          +
 002594 41F0 BB1C            00B1C 22912  2          +
 002598 58E0 7460/0DEE       0292C 22915  2          +
 00259E 4110 7444            02910 22917  2 1495.                  SEG   'Read/Only status'  To quisce
 0025A2 4100 0010            00010 22921  2          +
 0025A6 41F0 BB1C            00B1C 22929  2          +
 0025AA 58E0 7460/0DEE       0292C 22932  2          +
 0025B0 41F0 BB1C            00B1C 22934  2 1499.                  SENDWTO 2,2               ISSUE WTO COMMAND
 0025B4 4110 0002            00002 22943  2          +
 0025B8 4100 0002            00002 22944  2          +
 0025BC 58E0 74E8/0DEE       029B4 22947  2          +
 0025C2 50F0 B844            00844 22949  2 1500.                  ST    R15,DOMWAIT         Save msg-id for DOM
 0025C6 9610 B8D4      008D4       22950  2 1501.                  SET   FLOFF               Set for file quiesce
 0025CA 58E0 74EC/0DEE       029B8 22956  2 1502.                  ACALL QUIESCE             Turn it off
 0025D0 9180 B8D5      008D5       22960  2 1502.1                 IF    ~FL_NOENQ,BEGIN     Bypass filesys ENQ (Magstar)
 0025D4 4710 7174            02640 22970  2          +
 0025D8 4110 769C            02B68 22975  3 1503.                    ENQ   RET=NONE,MF=(E,ENQLIST) TWIDDLE-TOES-TIME
 0025DC 94F8 1002/18E1 00002       22979  3          +
 0025E2 9180 E000      00000       22981  3          +
 0025E6 4710 712A            025F6 22982  3          +
 0025EA 41EE 000C            0000C 22983  3          +
 0025EE 94F8 E002      00002       22984  3          +
 0025F2 47F0 7116/0A38       025E2 22985  3          +
 0025F8 4110 74F0            029BC 22987  3 1504.                    SEG   'VMNT203I - Enqueue acquired '
 0025FC 4100 001C            0001C 22991  3          +
 002600 41F0 BB1C            00B1C 22999  3          +
 002604 58E0 7460/0DEE       0292C 23002  3          +
 00260A 4110 7612            02ADE 23004  3 1505.                    SEG   'ENQ RET=NONE,'     Report status of enqueue request
 00260E 4100 000D            0000D 23008  3          +
 002612 41F0 BB1C            00B1C 23016  3          +
 002616 58E0 7460/0DEE       0292C 23019  3          +
 00261C 4110 7454            02920 23021  3 1506.                    SEG   'FILESYS='          Set message text
 002620 4100 0008            00008 23025  3          +
 002624 41F0 BB1C            00B1C 23033  3          +
 002628 58E0 7460/0DEE       0292C 23036  3          +
 00262E 58E0 74D4/0DEE       029A0 23038  3 1507.                    ACALL MSGSUFF             Report file system name
 002634 1B00/41F0 BB1C       00B1C 23042  3 1508.                    SEGWR ,                   Write to report file
 00263A 58E0 745C/0DEE       02928 23064  3          +
 002640                            23066  2 1508.11                END   ,
 002640 41F0 BB1C            00B1C 23070  2 1508.12                SEGLD &$SEGCB             Loadup current SEGCB pointer
1VMNT     (VMNT21) (09:48) (22MAR04) IHAPSAE  - PSA Extension (ESAME)                                                       Page   80
0Current Usings:  (*,R7) (VMNT,R11) (ATTREC,R12)
0Loc    Object Code    Addr1 Addr2  Stmt Lv Lineno    Source Statement           (Hibal 5, Asmedit 3.3)  HLASM R4.0  2004/03/22 09.48
+___    ______ ____    _____ _____  ____ __ ______    ______ _________
0002644 58E0 74D8/0DEE       029A4 23078  2 1508.2                 ACALL RPT_SCVT            Report current ScipCVT bits
 00264A 5810 B844            00844 23082  2 1509.                  L     R1,DOMWAIT          Regain msg-id
 00264E 4100 0000/0A57       00000 23083  2 1510.                  DOM   MSG=(1)             Delete message
 002654                            23086  2 1511.                  CLEAR DOMWAIT             Clear waiting dom ID
 002654 D703 B844 B844 00844 00844 23092  2          +
 00265A                            23093  1 1512.                END   ,
 00265A 4120 2008            00008 23097  1 1513.                LA    R2,@R2+8            Skip to next linked file system
 00265E 47F0 7004            024D0 23098    1514.              END   ,
 002662 9680 B8D4      008D4       23103    1514.1             SET   FL_ReadOnly         Set Read/Only mode established
 002666 18D8/980C D004       00004 23109    1515.              PEND  ,                   Restore registers and return
 DROP   *,R7
 00266C 58E0 D000/12FF       00000 23125             +
 002672 07FE                       23128             +
1VMNT     (VMNT21) (09:48) (22MAR04) IHAPSAE  - PSA Extension (ESAME)                                                       Page   81
0Current Usings:  (VMNT,R11) (ATTREC,R12)
0Loc    Object Code    Addr1 Addr2  Stmt Lv Lineno    Source Statement           (Hibal 5, Asmedit 3.3)  HLASM R4.0  2004/03/22 09.48
+___    ______ ____    _____ _____  ____ __ ______    ______ _________
0                                  23130    1517.     ¿þþþþþþþþþþþþþþþþþþþþþþþþþþþþþþþþþþþþþþþþþþþþþþþþþþþþþþþþþþþþþþþþþþþþþÜ
                                   23131    1518.     Ÿ                                                                     Ÿ
                                   23132    1519.     Ÿ  Routine to enable all file systems after termination               Ÿ
                                   23133    1520.     Ÿ  of Orvyl file system maintenance.                                  Ÿ
                                   23134    1521.     Ÿ                                                                     Ÿ
                                                      ¾þþþþþþþþþþþþþþþþþþþþþþþþþþþþþþþþþþþþþþþþþþþþþþþþþþþþþþþþþþþþþþþþþþþþþ»
-002674 50E0 D000            00000 23136    1526.     ENABSYS  PROC  ,                   Enter and save calling registers
 002678 900C D004/188D       00004 23149             +
 00267E 41D0 D038/0D70       00038 23151             +
 002684 1BFF                       23174    1526.1             CLEAR R15                 Assume successful completion
 USING  *,R7
 002686 9180 B8D4      008D4       23178    1526.2             IF    ~FL_ReadOnly,EXIT   Exit if no action is required
 00268A 47E0 70C6            0274A 23190             +
 00268E 4120 B880            00880 23196    1527.              LA    R2,FSNAME           Address of first file system
 002692                            23197    1528.              WHILE ('OC @R2(8),@R2',NZ),BEGIN
 002692 D607 2000 2000 00000 00000 23206             +
 002698 4780 70C0            02744 23207             +
 00269C 5020 B87C            0087C 23212  1 1529.                ST    R2,FSACTIVE         Save active file system
 0026A0 4100 0008            00008 23213  1 1530.                LA    R0,8                  set maximum name length
 0026A4 1812                       23214  1 1531.                LR    R1,R2                   set address of name
 0026A6 4DE0 B438            00438 23215  1 1532.                LCALL RTRIM                     trim trailing blanks
 0026AA 1830                       23217  1 1533.                LR    R3,R0                       set name length
 0026AC 4110 74F0            02B74 23218  1 1534.                DEQ   (,(R2),(R3)),MF=(E,DEQLIST) Release file system
 0026B0 4230 1001            00001 23223  1          +
 0026B4 5020 1008/0A30       00008 23224  1          +
00026BA 4110 B874            00874 23227  1 1536.                LA    R1,ORVNAME          Orvyl's jobname
 0026BE 58E0 7354/0DEE       029D8 23228  1 1537.                ACALL TCBSRCH               Is he alive and well?
 0026C4 4780 704E            026D2 23232  1 1538.                IF    NZ,BEGIN                Yep -- give back file system
 0026C8 94EF B8D4      008D4       23243  2 1539.                  SET   FLON                      Turn file system back on
 0026CC 58E0 7334/0DEE       029B8 23249  2 1540.                  ACALL QUIESCE                     Doit
 0026D2                            23253  1 1541.                END   ,
 0026D2 4110 7467            02AEB 23257  1 1541.1               SEG   'VMNT204I - Enqueue has been released for '
 0026D6 4100 0029            00029 23261  1          +
 0026DA 41F0 BB1C            00B1C 23269  1          +
 0026DE 58E0 72A8/0DEE       0292C 23272  1          +
 0026E4 4110 729C            02920 23274  1 1541.3               SEG   'FILESYS='          Set message text
 0026E8 4100 0008            00008 23278  1          +
 0026EC 41F0 BB1C            00B1C 23286  1          +
 0026F0 58E0 72A8/0DEE       0292C 23289  1          +
 0026F6 58E0 731C/0DEE       029A0 23291  1 1541.4               ACALL MSGSUFF             Report file system name
 0026FC 1B00/41F0 BB1C       00B1C 23295  1 1541.5               SEGWR ,                   Write to report file
 002702 58E0 72A4/0DEE       02928 23317  1          +
 002708 41F0 BB1C            00B1C 23319  1 1541.6               SEGLD &$SEGCB             Loadup current SEGCB pointer
 00270C 58E0 7320/0DEE       029A4 23327  1 1541.7               ACALL RPT_SCVT            Report current ScipCVT bits
 002712 58E0 731C/0DEE       029A0 23331  1 1542.                ACALL MSGSUFF             Set file system name
 002718 4110 7490            02B14 23335  1 1543.                SEG   'File system has been enabled.'
 00271C 4100 001D            0001D 23339  1          +
 002720 41F0 BB1C            00B1C 23347  1          +
 002724 58E0 72A8/0DEE       0292C 23350  1          +
 00272A 41F0 BB1C            00B1C 23352  1 1547.                SENDWTO ,                 Issue WTO command
 00272E 4110 0002            00002 23361  1          +
1VMNT     (VMNT21) (09:48) (22MAR04) IHAPSAE  - PSA Extension (ESAME)                                                       Page   82
0Current Usings:  (*,R7) (VMNT,R11) (ATTREC,R12)
0Loc    Object Code    Addr1 Addr2  Stmt Lv Lineno    Source Statement           (Hibal 5, Asmedit 3.3)  HLASM R4.0  2004/03/22 09.48
+___    ______ ____    _____ _____  ____ __ ______    ______ _________
0002732 4100 0006            00006 23362  1          +
 002736 58E0 7330/0DEE       029B4 23365  1          +
 00273C 4120 2008            00008 23367  1 1548.                LA    R2,@R2+8            Skip to next file system
 002740 47F0 700E            02692 23368    1549.              END   ,
 002744 947F B8D4      008D4       23373    1549.1             CLEAR FL_ReadOnly         Clear Read/Only flag setting
 002748 1BFF                       23380    1550.              CLEAR R15                 Clear return code
 00274A 18D8/980C D004       00004 23384    1551.              PEND  ,                   Return to caller
 DROP   *,R7
 002750 58E0 D000/12FF       00000 23400             +
 002756 07FE                       23403             +
1VMNT     (VMNT21) (09:48) (22MAR04) IHAPSAE  - PSA Extension (ESAME)                                                       Page   83
0Current Usings:  (VMNT,R11) (ATTREC,R12)
0Loc    Object Code    Addr1 Addr2  Stmt Lv Lineno    Source Statement           (Hibal 5, Asmedit 3.3)  HLASM R4.0  2004/03/22 09.48
+___    ______ ____    _____ _____  ____ __ ______    ______ _________
0                                  23405    1551.02   ¿þþþþþþþþþþþþþþþþþþþþþþþþþþþþþþþþþþþþþþþþþþþþþþþþþþþþþþþþþþþþþþþþþþþþþÜ
                                   23406    1551.03   Ÿ                                                                     Ÿ
                                   23407    1551.04   Ÿ  RPT_SCVT - Report interactive status from the SCIPCVT              Ÿ
                                   23408    1551.05   Ÿ                                                                     Ÿ
                                   23409    1551.06   Ÿ    Entry:    R15 - Address of the requested SEGCB control           Ÿ
                                   23410    1551.07   Ÿ                                                                     Ÿ
                                   23411    1551.08   Ÿ                                                                     Ÿ
                                                      ¾þþþþþþþþþþþþþþþþþþþþþþþþþþþþþþþþþþþþþþþþþþþþþþþþþþþþþþþþþþþþþþþþþþþþþ»
-002758 50E0 D000            00000 23413    1551.1    RPT_SCVT PROC  ,                   Enter and save calling registers
 00275C 900C D004/188D       00004 23426             +
 002762 41D0 D038/0D70       00038 23428             +
 002768 186F                       23451    1551.11            LR    R6,R15              Save address of requested segcb
 USING  *,R7
                                   23452    1551.12            SEGDEF (R6)               Inform seg macros of segcb
 00276A 5820 0010            00010 23453    1551.13            L     R2,CVTPTR           Address of CVT
 00276E 5820 20CC            000CC 23454    1551.14            L     R2,CVTUSER-CVT(,R2) Address of SCIPCVT (CVTUSER)
 USING  SCVT,R2                    23455    1551.15            WITH  (SCVT,R2)           Addressability to SCIPCVT
 002772 4100 000B/18F6       0000B 23468    1551.16            SEGBLANK 11               Tab over
 002778 58E0 71C8/0DEE       02930 23484             +
 00277E                            23486    1551.17            IF    (USEIDENT,NE,'SCIP'),BEGIN
 00277E D503 7274 2000 029DC 00000 23497             +
 002784 4780 7030            02798 23498             +
 002788 4110 72CE            02A36 23503  1 1551.18              SEG   '(Couldn''t locate SCIPCVT!)'
 00278C 4100 001A/18F6       0001A 23507  1          +
 002792 58E0 71C4/0DEE       0292C 23516  1          +
 002798 7034           02798 02786 23518    1551.19            END   ELSE,BEGIN          Found SCIPCVT, report bits
 002798 47F0 70F4            0285C 23527             +
 USING  SEGCB,R6                   23533  1 1551.2               WITH  (SEGCB,R6)          Addressability to SEGCB
 00279C 4110 73C9            02B31 23546  1 1551.21              SEG   '('                 Report systems up and ready
 0027A0 4100 0001/18F6       00001 23550  1          +
 0027A6 58E0 71C4/0DEE       0292C 23559  1          +
 0027AC 91E2 2004      00004       23561  1 1551.22              IF    (USEHSPFL.HSPFINT+HSPFJES,NZ),BEGIN
 0027B0 4780 70D0            02838 23577  1          +
 0027B4 9102 2004      00004       23582  2 1551.23                IF    USEHSPFL.HSPFJES,'SEG "Jes2,"'
 0027B8 47E0 7064            027CC 23593  2          +
 0027BC 4110 73CA            02B32 23602  3          +
 0027C0 4100 0005/18F6       00005 23603  3          +
 0027C6 58E0 71C4/0DEE       0292C 23612  2          +
 0027CC 9180 2004      00004       23618  2 1551.24                IF    USEHSPFL.HSPFMIL,'SEG "Milten,"'
 0027D0 47E0 707C            027E4 23629  2          +
 0027D4 4110 73CF            02B37 23638  3          +
 0027D8 4100 0007/18F6       00007 23639  3          +
 0027DE 58E0 71C4/0DEE       0292C 23648  2          +
 0027E4 9140 2004      00004       23654  2 1551.25                IF    USEHSPFL.HSPFWYL,'SEG "Wylbur,"'
 0027E8 47E0 7094            027FC 23665  2          +
 0027EC 4110 73D6            02B3E 23674  3          +
 0027F0 4100 0007/18F6       00007 23675  3          +
 0027F6 58E0 71C4/0DEE       0292C 23684  2          +
 0027FC 9120 2004      00004       23690  2 1551.26                IF    USEHSPFL.HSPFORV,'SEG "Orvyl,"'
 002800 47E0 70AC            02814 23701  2          +
 002804 4110 72E8            02A50 23710  3          +
 002808 4100 0006/18F6       00006 23711  3          +
1VMNT     (VMNT21) (09:48) (22MAR04) IHAPSAE  - PSA Extension (ESAME)                                                       Page   84
0Current Usings:  (SCVT,R2) (SEGCB,R6) (*,R7) (VMNT,R11) (ATTREC,R12)
0Loc    Object Code    Addr1 Addr2  Stmt Lv Lineno    Source Statement           (Hibal 5, Asmedit 3.3)  HLASM R4.0  2004/03/22 09.48
+___    ______ ____    _____ _____  ____ __ ______    ______ _________
000280E 58E0 71C4/0DEE       0292C 23720  2          +
 002814 9110 2004      00004       23726  2 1551.27                IF    USEHSPFL.HSPFORVR,'SEG "Orvyl2,"'
 002818 47E0 70C4            0282C 23737  2          +
 00281C 4110 73DD            02B45 23746  3          +
 002820 4100 0007/18F6       00007 23747  3          +
 002826 58E0 71C4/0DEE       0292C 23756  2          +
 00282C 5800 600C            0000C 23762  2 1551.28                L     R0,SEGCBLENF        Loadup current length of string
 002830 5F00 71DC            02944 23763  2 1551.29                SL    R0,=A(1)            Decrement for last ','
 002834 5000 600C            0000C 23764  2 1551.3                 ST    R0,SEGCBLENF        Oops -- didn't want that last one
 002838 70D4           02838 027B2 23765  1 1551.31              END   ELSE,BEGIN
 002838 47F0 70E4            0284C 23774  1          +
 00283C 4110 72EE            02A56 23780  2 1551.32                SEG   'Nothing''s up!!'   Ghost town (?)
 002840 4100 000E/18F6       0000E 23784  2          +
 002846 58E0 71C4/0DEE       0292C 23793  2          +
 00284C                            23795  1 1551.34              END   ,
 00284C 4110 73E4            02B4C 23799  1 1551.35              SEG   ') subsystems are available.'
 002850 4100 001B/18F6       0001B 23803  1          +
 002856 58E0 71C4/0DEE       0292C 23812  1          +
 DROP   SEGCB,R6                   23814    1551.96            END   ,
 00285C 1B00/18F6                  23823    1551.97            SEGWR ,                   Write to report file
 002860 58E0 71C0/0DEE       02928 23843             +
                                   23845    1551.98            SEGDEF DUMMY              Neatness counts
 002866 18D8/980C D004       00004 23846    1551.99            PEND  ,                   Restore registers and return
 DROP   SCVT,R2
 DROP   *,R7
 00286C 58E0 D000/12FF       00000 23867             +
 002872 07FE                       23870             +
1VMNT     (VMNT21) (09:48) (22MAR04) IHAPSAE  - PSA Extension (ESAME)                                                       Page   85
0Current Usings:  (VMNT,R11) (ATTREC,R12)
0Loc    Object Code    Addr1 Addr2  Stmt Lv Lineno    Source Statement           (Hibal 5, Asmedit 3.3)  HLASM R4.0  2004/03/22 09.48
+___    ______ ____    _____ _____  ____ __ ______    ______ _________
0                                  23872    1553.     ¿þþþþþþþþþþþþþþþþþþþþþþþþþþþþþþþþþþþþþþþþþþþþþþþþþþþþþþþþþþþþþþþþþþþþþÜ
                                   23873    1554.     Ÿ                                                                     Ÿ
                                   23874    1555.     Ÿ  Additional DATA not requiring global addressability                Ÿ
                                   23875    1556.     Ÿ                                                                     Ÿ
                                                      ¾þþþþþþþþþþþþþþþþþþþþþþþþþþþþþþþþþþþþþþþþþþþþþþþþþþþþþþþþþþþþþþþþþþþþþ»
-002B80                02B67 06F60 23877    1558.              DATA  BEGIN
0002B80 0000000000000000           23883  1 1560.     EMCATT     DC    0A(0),XL(L'ATTREC)'00'
 002BBC 0000000000000000           23884  1 1561.     VERATT     DC    0A(0),XL(L'ATTREC)'00'
 002BF8 0000000000000000           23885  1 1562.     FILATT     DC    0A(0),XL(L'ATTREC)'00'
 002C34 0000000000000000           23886  1 1563.     VAMATT     DC    0A(0),XL(L'ATTREC)'00'
 002C70 0000000000000000           23887  1 1564.     BLDATT     DC    0A(0),XL(L'ATTREC)'00'
 002874                01FC8 06F60 23888    1565.              END   ,
-002878                            23895    1567.              Ltorg ,                   Generate defined literals
 002878 C3D6D5E3D9D6D340           23897                             =CL8'CONTROL'
 002880 404DC5A7A3998195           23898                             =C' (Extraneous Generation)'
 002898 C599999699409985           23899                             =C'Error return from DYNALLOC, R15('
 0028B8 5D40C5999996994D           23900                             =C') Error('
 0028C0 C28184409985A3A4           23901                             =C'Bad return from scratch, return='
 0028E0 C881A24082858595           23902                             =C'Has been scratched from '
 0028F8 E5D4D5E3F2F0F2C9           23903                             =C'VMNT202I - Enqueue held '
 002910 D985818461D69593           23904                             =C'Read/Only status'
 002920 C6C9D3C5E2E8E27E           23905                             =C'FILESYS='
 002928 00000000                   23906                             =V(SEGWR)
 00292C 00000000                   23907                             =V(SEG)
 002930 00000000                   23908                             =V(SEGBLANK)
 002934 4D4EF05D                   23909                             =C'(+0)'
 002938 00000007                   23910                             =A(7)
 00293C 00000000                   23911                             =V(SEGDC)
 002940 00000004                   23912                             =AL4(4)
 002944 00000001                   23913                             =A(1)
 002948 404DD6E4E340D6C6           23914                             =C' (OUT OF SYNC ERROR)'
 00295C 0000225A                   23915                             =A(SYNCKILL)
 002960 00001EDE                   23916                             =A(SYNCSET)
 002964 00000000                   23917                             =V(SEGHX)
 002968 E5D4D5E3F3F0F3C9           23918                             =C'VMNT303I - Final GDG synchronization check complete.'
 00299C 00000000                   23919                             =V(SEGB)
 0029A0 0000245E                   23920                             =A(MSGSUFF)
 0029A4 00002758                   23921                             =A(RPT_SCVT)
 0029A8 E68189A389958740           23922                             =C'Waiting for '
 0029B4 00004A14                   23923                             =A(SENDWTO)
 0029B8 00001550                   23924                             =A(QUIESCE)
 0029BC E5D4D5E3F2F0F3C9           23925                             =C'VMNT203I - Enqueue acquired '
 0029D8 00001510                   23926                             =A(TCBSRCH)
 0029DC E2C3C9D7                   23927                             =C'SCIP'
 0029E0 E5D4D5E3F1F0F7C9           23928                             =C'VMNT107I - Checking final GDG synchronization.'
 002A0E 4089A24081A34087           23929                             =C' is at generation '
 002A20 408881A240828585           23930                             =C' has been uncataloged.'
 002A36 4DC396A49384957D           23931                             =C'(Couldn''t locate SCIPCVT!)'
 002A50 D699A5A8936B               23932                             =C'Orvyl,'
1VMNT     (VMNT21) (09:48) (22MAR04) IHAPSAE  - PSA Extension (ESAME)                                                       Page   86
0Current Usings:  (VMNT,R11) (ATTREC,R12)
0Loc    Object Code    Addr1 Addr2  Stmt Lv Lineno    Source Statement           (Hibal 5, Asmedit 3.3)  HLASM R4.0  2004/03/22 09.48
+___    ______ ____    _____ _____  ____ __ ______    ______ _________
0002A56 D596A3888995877D           23933                             =C'Nothing''s up!!'
 002A64 5D40D98581A29695           23934                             =C') Reason('
 002A6D 5D                         23935                             =C')'
 002A6E C28184409985A3A4           23936                             =C'Bad return from locate, RETURN='
 002A8D C28184409985A3A4           23937                             =C'Bad return from catalog'
 002AA4 C881A24082858595           23938                             =C'Has been backed up to generation '
 002AC5 61                         23939                             =C'/'
 002AC6 C5D5D840D9C5E37E           23940                             =C'ENQ RET=USE,RC='
 002AD5 6BC6C9D3C5E2E8E2           23941                             =C',FILESYS='
 002ADE C5D5D840D9C5E37E           23942                             =C'ENQ RET=NONE,'
 002AEB E5D4D5E3F2F0F4C9           23943                             =C'VMNT204I - Enqueue has been released for '
 002B14 C689938540A2A8A2           23944                             =C'File system has been enabled.'
 002B31 4D                         23945                             =C'('
 002B32 D185A2F26B                 23946                             =C'Jes2,'
 002B37 D48993A385956B             23947                             =C'Milten,'
 002B3E E6A89382A4996B             23948                             =C'Wylbur,'
 002B45 D699A5A893F26B             23949                             =C'Orvyl2,'
 002B4C 5D40A2A482A2A8A2           23950                             =C') subsystems are available.'
1VMNT     (VMNT21) (09:48) (22MAR04) IHAPSAE  - PSA Extension (ESAME)                                                       Page   87
0Current Usings:  (VMNT,R11) (ATTREC,R12)
0Loc    Object Code    Addr1 Addr2  Stmt Lv Lineno    Source Statement           (Hibal 5, Asmedit 3.3)  HLASM R4.0  2004/03/22 09.48
+___    ______ ____    _____ _____  ____ __ ______    ______ _________
0                                  23955    1567.2    ¿þþþþþþþþþþþþþþþþþþþþþþþþþþþþþþþþþþþþþþþþþþþþþþþþþþþþþþþþþþþþþþþþþþþþþÜ
                                   23956    1567.3    Ÿ                                                                     Ÿ
                                   23957    1567.4    Ÿ  Data section for maintaing the state changes to the EMC business   Ÿ
                                   23958    1567.5    Ÿ  continuance volume.  This data section is here because             Ÿ
                                   23959    1567.6    Ÿ  addressability was becoming a problem.                             Ÿ
                                   23960    1567.7    Ÿ                                                                     Ÿ
                                                      ¾þþþþþþþþþþþþþþþþþþþþþþþþþþþþþþþþþþþþþþþþþþþþþþþþþþþþþþþþþþþþþþþþþþþþþ»
-003CAE                03CAE 06F60 23962    1567.9             DATA  BEGIN
 003CAE 0000                              1
 003CB0                            23967  1 1567.91   EMCDATA    DC    0D'0'               Double-word alignment
 003CB0 C5D4C3E3C6404040           23968  1 1568.     EMCTF      DC    CL8'EMCTF'          EMC timefinder module name
 003CB8 C5D4C3E3C6E44040           23969  1 1568.1    EMCTFU     DC    CL8'EMCTFU'         EMC timefinder utility name
 003CC0 4040404040404040           23970  1 1568.2    EMCCARD    DC    CL80' '             EMC timefinder statement image
 003D10 4040404040404040           23971  1 1568.3    EMCSOUT    DC    CL121' '            EMC sysout buffer
 003D8C 00/00/0000                 23972  1 1568.4    EMCSEG     SEGCB ,                   EMC command stream SEGCB
 EMCSEGCOD.EMCSEGS 01 EQ
 EMCSEGCOD.EMCSEGW 02 EQ
 EMCSEGCOD.EMCSEGC 03 EQ
 EMCSEGCOD.EMCSEGS 04 EQ
 EMCSEGCOD.EMCSEGO 05 EQ
 EMCSEGCOD.EMCSEGC 06 EQ
 EMCSEGCOD.EMCSEGM 07 EQ
 003D90 00000000                   24049  1          +
 003D94 00000000                   24050  1          +
 003D98 00000000                   24051  1          +
 003D9C 00000000                   24052  1          +
 003DA0 00000000                   24053  1          +
 003DA4 0000000000000000           24054  1          +
 003DAC 00000000                   24055  1          +
 003DB0 00000000                   24056  1          +
 003DB4 0000000000000000           24057  1          +
 003DC4 00000000                   24058  1          +
                                   24060  1 1568.5  C EMCSYSN    DCB   DDNAME=SYSIN,DSORG=PS,RECFM=FB,MACRF=PM,
 003DC8                                   1 1568.6                     LRECL=80,BLKSIZE=6160
 003DC8 0000000000000000           24067  1          +
 003DD8 00000000/00                24068  1          +
 003DDD 000001/0000                24071  1          +
 003DE2 4000/00000001              24073  1          +
 003DE8 00/000001/90               24076  1          +
 003DED 000000                     24079  1          +
 003DF0 E2E8E2C9D5404040           24081  1          +
 003DF8 02/00/0050/00              24082  1          +
 003DFD 000001                     24087  1          +
 003E00 00000001/0000              24088  1          +
 003E06 1810/00000000              24090  1          +
 003E0C 00000001                   24092  1          +
 003E10 00000001                   24094  1          +
 003E14 00000001/0000              24095  1          +
 003E1A 0050/00/000001             24097  1          +
 003E20 00000000                   24100  1          +
 003E24 00000001                   24101  1          +
 003E28                            24102  1 1568.7    EMCPRTF    DCB   DDNAME=SYSOUT,DSORG=PS,LRECL=121,MACRF=GM
1VMNT     (VMNT21) (09:48) (22MAR04) IHAPSAE  - PSA Extension (ESAME)                                                       Page   88
0Current Usings:  (VMNT,R11) (ATTREC,R12)
0Loc    Object Code    Addr1 Addr2  Stmt Lv Lineno    Source Statement           (Hibal 5, Asmedit 3.3)  HLASM R4.0  2004/03/22 09.48
+___    ______ ____    _____ _____  ____ __ ______    ______ _________
0003E28 0000000000000000           24109  1          +
 003E38 00000000/00                24110  1          +
 003E3D 000001/0000                24113  1          +
 003E42 4000/00000001              24115  1          +
 003E48 00/000001/00               24118  1          +
 003E4D 000000                     24121  1          +
 003E50 E2E8E2D6E4E34040           24123  1          +
 003E58 02/00/5000/00              24124  1          +
 003E5D 000001                     24129  1          +
 003E60 00000001/0000              24130  1          +
 003E66 0000/00000000              24132  1          +
 003E6C 00000001                   24134  1          +
 003E70 00000001                   24136  1          +
 003E74 00000001/0000              24137  1          +
 003E7A 0079/00/000001             24139  1          +
 003E80 00000000                   24142  1          +
 003E84 00000001                   24143  1          +
                                   24144  1 1568.8  C EMCLOGF    DCB   DDNAME=EMCLOG,DSORG=PS,LRECL=121,MACRF=PM,
 003E88                                   1 1568.9                     RECFM=FB
 003E88 0000000000000000           24151  1          +
 003E98 00000000/00                24152  1          +
 003E9D 000001/0000                24155  1          +
 003EA2 4000/00000001              24157  1          +
 003EA8 00/000001/90               24160  1          +
 003EAD 000000                     24163  1          +
 003EB0 C5D4C3D3D6C74040           24165  1          +
 003EB8 02/00/0050/00              24166  1          +
 003EBD 000001                     24171  1          +
 003EC0 00000001/0000              24172  1          +
 003EC6 0000/00000000              24174  1          +
 003ECC 00000001                   24176  1          +
 003ED0 00000001                   24178  1          +
 003ED4 00000001/0000              24179  1          +
 003EDA 0079/00/000001             24181  1          +
 003EE0 00000000                   24184  1          +
 003EE4 00000001                   24185  1          +
 002CAC                02CAC 06F60 24186    1569.              END   ,
1VMNT     (VMNT21) (09:48) (22MAR04) IHAPSAE  - PSA Extension (ESAME)                                                       Page   89
0Current Usings:  (VMNT,R11) (ATTREC,R12)
0Loc    Object Code    Addr1 Addr2  Stmt Lv Lineno    Source Statement           (Hibal 5, Asmedit 3.3)  HLASM R4.0  2004/03/22 09.48
+___    ______ ____    _____ _____  ____ __ ______    ______ _________
0                                  24193    1588.     ¿þþþþþþþþþþþþþþþþþþþþþþþþþþþþþþþþþþþþþþþþþþþþþþþþþþþþþþþþþþþþþþþþþþþþþÜ
                                   24194    1589.     Ÿ                                                                     Ÿ
                                   24195    1590.     Ÿ  Print EMC utility log file when requested                          Ÿ
                                   24196    1591.     Ÿ                                                                     Ÿ
                                                      ¾þþþþþþþþþþþþþþþþþþþþþþþþþþþþþþþþþþþþþþþþþþþþþþþþþþþþþþþþþþþþþþþþþþþþþ»
-002CAC 50E0 D000            00000 24198    1593.     BCV_Plog PROC  ,                   Print EMC sysout log
 002CB0 900C D004/188D       00004 24211             +
 002CB6 41D0 D038/0D70       00038 24213             +
 002CBC 58A0 7C2C            038E8 24236    1593.1             L     R10,=A(EMCDATA)     Address of EMC data fields
 USING  *,R7
 USING  EMCDATA,R10                24237    1593.2             WITH  (EMCDATA,R10)       Addressability to EMC data fields
 002CC0 4120 A178            03E28 24250    1594.              LA    R2,EMCPRTF          Address of EMC sysout file
 USING  IHADCB,R2                  24251    1595.              WITH  (IHADCB,R2)         Addressability to dcb
 002CC4 4100 706E            02D2A 24264    1596.              LA    R0,BCV_PEOD         Address of end of data exit
 002CC8 5000 2020            00020 24265    1597.              ST    R0,DCBEODAD         Save into data control block
 002CCC 4510 7018/80         02CD4 24266    1598.              OPEN  (EMCPRTF,(INPUT))   Open EMC sysout file
 002CD1 003E28/0A13                24270             +
 002CD6 9110 2030      00030       24272    1598.1             IF    ~DCBOFLGS.DCBOFOPN,BEGIN      Error on log open
 002CDA 4710 702A            02CE6 24283             +
 002CDE 41F0 000C            0000C 24288  1 1598.11              LA    R15,12                        Set error return
 002CE2 47F0 7122            02DDE 24289  1 1598.12              EXIT  BCV_Plog                      Terminate print
 002CE6                            24292    1598.2             END   ,
 002CE6 4120 A1D8            03E88 24296    1598.3             LA    R2,EMCLOGF          Address of VMNT EMC log
 002CEA 0700/4510 7038       02CF4 24297    1599.              OPEN  (EMCLOGF,(OUTPUT))  Open EMC log output file
 002CF0 8F/003E88/0A13             24300             +
 002CF6 9110 2030      00030       24303    1599.1             IF    ~DCBOFLGS.DCBOFOPN,BEGIN      Error on log open
 002CFA 4710 704A            02D06 24314             +
 002CFE 41F0 000C            0000C 24319  1 1599.2               LA    R15,12                        Set error return
 002D02 47F0 7122            02DDE 24320  1 1599.3               EXIT  BCV_Plog                      Terminate print
 002D06                            24323    1599.4             END   ,
                                                               ¿þþþþþþþþþþþþþþþþþþþþþþþþþþþþþþþþþþþþþþÜ
                                   24327    1599.41            Ÿ  Read and print all EMC sysout data  Ÿ
                                                               ¾þþþþþþþþþþþþþþþþþþþþþþþþþþþþþþþþþþþþþþ»
 002D06                            24328    1600.              LOOP  BEGIN               Print EMC sysout log
 002D06 4110 A178            03E28 24334  1 1601.                GET   EMCPRTF,EMCSOUT     Read next line of sysout data
 002D0A 4100 A060/1FFF       03D10 24337  1          +
 002D10 BFF7 1031/05EF       00031 24339  1          +
 002D16 4110 A1D8            03E88 24341  1 1602.                PUT   EMCLOGF,EMCSOUT     Print for us mortals to see
 002D1A 4100 A060/1FFF       03D10 24344  1          +
 002D20 BFF7 1031/05EF       00031 24346  1          +
 002D26 47F0 704A            02D06 24348    1603.              END   ,
0002D2A                            24354    1604.     BCV_PEOD LABEL ,                   Completed sysout file
 002D2A 0700/4510 7078       02D34 24356    1605.              CLOSE EMCLOGF             Close EMC log file
 002D30 80/003E88/0A14             24359             +
 002D36 4110 A1D8            03E88 24362    1606.              FREEPOOL EMCLOGF          Release buffer pool
 002D3A 9101 1017      00017       24365             +
 002D3E 4710 70C8/1FFF       02D84 24366             +
 002D44 BFF7 1015            00015 24368             +
 002D48 58E0 F000/12EE       00000 24369             +
 002D4E 4770 709E            02D5A 24371             +
 002D52 9130 F004      00004       24372             +
1VMNT     (VMNT21) (09:48) (22MAR04) IHAPSAE  - PSA Extension (ESAME)                                                       Page   90
0Current Usings:  (IHADCB,R2) (*,R7) (EMCDATA,R10) (VMNT,R11) (ATTREC,R12)
0Loc    Object Code    Addr1 Addr2  Stmt Lv Lineno    Source Statement           (Hibal 5, Asmedit 3.3)  HLASM R4.0  2004/03/22 09.48
+___    ______ ____    _____ _____  ____ __ ______    ______ _________
0002D56 4770 70C8            02D84 24373             +
 002D5A 9601 1017/1BEE 00017       24374             +
 002D60 1B11/BF13 F006       00006 24376             +
 002D66 43E0 F005/1C0E       00005 24378             +
 002D6C 4110 1008            00008 24380             +
 002D70 9140 F004      00004       24381             +
 002D74 47E0 70C0            02D7C 24382             +
 002D78 4110 1008/1801       00008 24383             +
 002D7E 4110 F000/0A0A       00000 24385             +
 002D84 4510 70D0/80         02D8C 24388    1607.              CLOSE EMCPRTF             Close EMC sysout file
 002D89 003E28/0A14                24392             +
 002D8E 4110 A178            03E28 24394    1608.              FREEPOOL EMCPRTF          Release buffer pool
 002D92 9101 1017      00017       24397             +
 002D96 4710 7120/1FFF       02DDC 24398             +
 002D9C BFF7 1015            00015 24400             +
 002DA0 58E0 F000/12EE       00000 24401             +
 002DA6 4770 70F6            02DB2 24403             +
 002DAA 9130 F004      00004       24404             +
 002DAE 4770 7120            02DDC 24405             +
 002DB2 9601 1017/1BEE 00017       24406             +
 002DB8 1B11/BF13 F006       00006 24408             +
 002DBE 43E0 F005/1C0E       00005 24410             +
 002DC4 4110 1008            00008 24412             +
 002DC8 9140 F004      00004       24413             +
 002DCC 47E0 7118            02DD4 24414             +
 002DD0 4110 1008/1801       00008 24415             +
 002DD6 4110 F000/0A0A       00000 24417             +
 002DDC 1BFF                       24420    1608.1             CLEAR R15                 Clear return code
 002DDE 18D8/980C D004       00004 24424    1609.              PEND  ,                   Restore registers and return
 DROP   IHADCB,R2
 DROP   EMCDATA,R10
 DROP   *,R7
 002DE4 58E0 D000/12FF       00000 24450             +
 002DEA 07FE                       24453             +
1VMNT     (VMNT21) (09:48) (22MAR04) IHAPSAE  - PSA Extension (ESAME)                                                       Page   91
0Current Usings:  (VMNT,R11) (ATTREC,R12)
0Loc    Object Code    Addr1 Addr2  Stmt Lv Lineno    Source Statement           (Hibal 5, Asmedit 3.3)  HLASM R4.0  2004/03/22 09.48
+___    ______ ____    _____ _____  ____ __ ______    ______ _________
0                                  24455    1610.01   ¿þþþþþþþþþþþþþþþþþþþþþþþþþþþþþþþþþþþþþþþþþþþþþþþþþþþþþþþþþþþþþþþþþþþþþÜ
                                   24456    1610.02   Ÿ                                                                     Ÿ
                                   24457    1610.03   Ÿ  Split established standard, BCV pairs                              Ÿ
                                   24458    1610.04   Ÿ                                                                     Ÿ
                                                      ¾þþþþþþþþþþþþþþþþþþþþþþþþþþþþþþþþþþþþþþþþþþþþþþþþþþþþþþþþþþþþþþþþþþþþþ»
-
 000000                00000 00025 24460    1610.06   BCV_WRK  RECORD BEGIN              BCV processing work area
 000000 00000000                   24468  1 1610.07   BCW_UCBA   DC    A(0)                BCV UCB common address
 000004 00000000                   24469  1 1610.08   BCW_UCBE   DC    A(0)                BCV UCB common extension
 000008 00000000                   24470  1 1610.09   BCW_UCBP   DC    A(0)                BCV UCB common prefix
 00000C 0000000000000000           24471  1 1610.1               DC    2A(0)               Reserved for UCB return codes
 000014 A7A7A7A7                   24472  1 1610.11   BCV_DEVC   DC    CL4'xxxx'           Four byte device number
 000018 00                         24473  1 1610.12   BCV_Sflg   FLAG  ,                   Temporary scanning flags
 BCV_Sflg.BCV_Acti 80 ONES         24477  1 1610.13              FLAG  BCV_Action            -  Some action is needed
 BCV_Sflg.BCV_Eof  40 ONES         24482  1 1610.14              FLAG  BCV_Eof               -  End of data reached
0000019 40F1F2F36BF4F5F6           24488  1 1610.16   BCV_cwrk   DC    CL12' 123,456.789'  Receive for converted Real
 000025                00025 00025 24489    1610.18            End   ,
-003EE8                03CAE 06F60 24499    1610.2             DATA  BEGIN
 003EE8 00000000                   24504  1 1610.21   EMC_prm    DC    AL2(0,0)            Insure zero length parameter
 002DEC                02CAC 06F60 24505    1610.98            END   ,
-002DEC 50E0 D000            00000 24512    1611.     BCV_Splt PROC  BCV_WRK             Enter and save registers
 002DF0 900C D004/188D       00004 24526             +
 002DF6 41D0 D060/0D70       00060 24529             +
 002DFC 58A0 7AEC            038E8 24561    1611.1             L     R10,=A(EMCDATA)     Address of EMC data fields
 USING  *,R7
 USING  BCV_WRK-(4+52),R8
 USING  EMCDATA,R10                24562    1611.2             WITH  (EMCDATA,R10)       Addressability to EMC data fields
 002E00 1BFF                       24575    1612.              CLEAR R15                 Assume successful establishment
 002E02 9180 B8D1      008D1       24579    1613.              IF    FL_BCV,BEGIN        Bcv mode has been requested
 002E06 47E0 7458            03254 24589             +
 002E0A                            24594  1 1613.01              IF    (DOMSTAT,NZ),BEGIN  Delete outstanding STATUS msg
 002E0A D603 B848 B848 00848 00848 24604  1          +
 002E10 4780 7028            02E24 24605  1          +
 002E14 5810 B848            00848 24610  2 1613.02                L     R1,DOMSTAT          Load status message identifier
 002E18 4100 0000/0A57       00000 24611  2 1613.03                DOM   MSG=(1)             Kill outstanding WTO message
 002E1E                            24614  2 1613.04                CLEAR DOMSTAT             Remove residual WTO msg id
 002E1E D703 B848 B848 00848 00848 24620  2          +
 002E24                            24621  1 1613.05              END   ,
                                   24625  1 1613.06              SEGDEF PRTSEG             Establish SEGCB buffer
 002E24 58E0 7AF0/0DEE       038EC 24626  1 1613.96              ACALL MSGSUFF             Report file system
 002E2A 4110 7D44            03B40 24630  1 1613.97              SEG   'Splitting BCV volumes'
 002E2E 4100 0015            00015 24634  1          +
 002E32 41F0 BB1C            00B1C 24642  1          +
 002E36 58E0 7AF4/0DEE       038F0 24645  1          +
 002E3C 41F0 BB1C            00B1C 24647  1 1613.98              SENDWTO 2,2               Write completion message
 002E40 4110 0002            00002 24656  1          +
 002E44 4100 0002            00002 24657  1          +
1VMNT     (VMNT21) (09:48) (22MAR04) IHAPSAE  - PSA Extension (ESAME)                                                       Page   92
0Current Usings:  (*,R7) (BCV_WRK-(4+52),R8) (EMCDATA,R10) (VMNT,R11) (ATTREC,R12)
0Loc    Object Code    Addr1 Addr2  Stmt Lv Lineno    Source Statement           (Hibal 5, Asmedit 3.3)  HLASM R4.0  2004/03/22 09.48
+___    ______ ____    _____ _____  ____ __ ______    ______ _________
0002E48 58E0 7AF8/0DEE       038F4 24660  1          +
 002E4E 50F0 B848            00848 24662  1 1613.99              ST    R15,DOMSTAT         Save STATUS message identifier
 002E52 4110 7AB4            038B0 24663  1 1614.                LA    R1,=CL8'SYSIN'      Address of requested DDNAME
 002E56 58E0 7AFC/0DEE       038F8 24664  1 1615.                ACALL EMCSDDN             Set this DDNAME into DCB
 002E5C 4510 7068/8F         02E64 24668  1 1616.                OPEN  (EMCSYSN,(OUTPUT))  Open timefinder input file
 002E61 003DC8/0A13                24672  1          +
 002E66 4110 A010            03CC0 24674  1 1617.                SEGINIT EMCCARD,L'EMCCARD,EMCSEG,RTN=EMCSRTN
 002E6A 4100 0050            00050 24690  1          +
 002E6E 41F0 A0DC            03D8C 24698  1          +
 002E72 58E0 7B00/0DEE       038FC 24701  1          +
 002E78 5800 7B04/1B11       03900 24703  1          +
 002E7E 41F0 A0DC            03D8C 24715  1          +
 002E82 58E0 7B08/0DEE       03904 24718  1          +
                                   24720  1 1618.                SEGDEF EMCSEG             Default segcb set latch
 002E88 4110 7D59            03B55 24721  1 1619.                SEGWR ' GLOBAL MAXRC=0'   Everything must go smoothly
 002E8C 4100 000F            0000F 24726  1          +
 002E90 41F0 A0DC            03D8C 24734  1          +
 002E94 58E0 7B0C/0DEE       03908 24737  1          +
 USING  BCVLIST,R2                 24739  1 1620.                WITH  (BCVLIST,R2)        Addressability to bcv entries
 002E9A 5820 B920            00920 24752  1 1621.                L     R2,BCVHEAD          Address of first bcv volume
 002E9E 1222/4780 70F2       02EEE 24753  1 1622.                WHILE (R2,NZ),BEGIN       Write split commands for each
 002EA4 4110 7D68            03B64 24769  2 1623.                  SEG   ' SPLIT 010,'
 002EA8 4100 000B            0000B 24773  2          +
 002EAC 41F0 A0DC            03D8C 24781  2          +
 002EB0 58E0 7AF4/0DEE       038F0 24784  2          +
 002EB6 5810 2010            00010 24786  2 1624.                  SEGHX L:BCV_UCB,4         Bcv device number
 002EBA 4100 0004            00004 24797  2          +
 002EBE 41F0 A0DC            03D8C 24805  2          +
 002EC2 58E0 7B10/0DEE       0390C 24808  2          +
 002EC8 4110 7D73            03B6F 24810  2 1625.                  SEGB  ',WAIT'             Wait for split to complete
 002ECC 4100 0005            00005 24815  2          +
 002ED0 41F0 A0DC            03D8C 24823  2          +
 002ED4 58E0 7B14/0DEE       03910 24826  2          +
                                   24828  2 1625.1                 ¿þþþþþþþþþþþþþþþþþþþþþþþþþþþþþþþþþþþþþþþþþþþþþþþþþþÜ
                                   24829  2 1625.2                 Ÿ  V5.1.0 TimeFinder does not like comments        Ÿ
                                   24830  2 1626.                  Ÿ  SEG   BCV_VOL             Report paired volume  Ÿ
                                   24831  2 1626.1                 ¾þþþþþþþþþþþþþþþþþþþþþþþþþþþþþþþþþþþþþþþþþþþþþþþþþþ»
 002EDA 1B00/41F0 A0DC       03D8C 24832  2 1627.                  SEGWR ,
 002EE0 58E0 7B0C/0DEE       03908 24854  2          +
                                   24856  2 1628.                  SEGDEF PRTSEG             Reset global SEBCB latch
 002EE6 5820 2004            00004 24857  2 1629.                  L     R2,BCVNXT           Chain to next bcv volume
 002EEA 47F0 70A2            02E9E 24858  1 1630.                END   ,
 002EEE 0700/4510 70FC       02EF8 24863  1 1631.                CLOSE EMCSYSN             Close timefinder input file
 002EF4 80/003DC8/0A14             24866  1          +
 002EFA 4110 A118            03DC8 24869  1 1632.                FREEPOOL EMCSYSN          Release dynamic buffer pool
 002EFE 9101 1017      00017       24872  1          +
 002F02 4710 714C/1FFF       02F48 24873  1          +
 002F08 BFF7 1015            00015 24875  1          +
 002F0C 58E0 F000/12EE       00000 24876  1          +
 002F12 4770 7122            02F1E 24878  1          +
 002F16 9130 F004      00004       24879  1          +
 002F1A 4770 714C            02F48 24880  1          +
 002F1E 9601 1017/1BEE 00017       24881  1          +
 002F24 1B11/BF13 F006       00006 24883  1          +
1VMNT     (VMNT21) (09:48) (22MAR04) IHAPSAE  - PSA Extension (ESAME)                                                       Page   93
0Current Usings:  (BCVLIST,R2) (*,R7) (BCV_WRK-(4+52),R8) (EMCDATA,R10) (VMNT,R11) (ATTREC,R12)
0Loc    Object Code    Addr1 Addr2  Stmt Lv Lineno    Source Statement           (Hibal 5, Asmedit 3.3)  HLASM R4.0  2004/03/22 09.48
+___    ______ ____    _____ _____  ____ __ ______    ______ _________
0002F2A 43E0 F005/1C0E       00005 24885  1          +
 002F30 4110 1008            00008 24887  1          +
 002F34 9140 F004      00004       24888  1          +
 002F38 47E0 7144            02F40 24889  1          +
 002F3C 4110 1008/1801       00008 24890  1          +
 002F42 4110 F000/0A0A       00000 24892  1          +
                                          1                      ¿þþþþþþþþþþþþþþþþþþþþþþþþþþþþþþþþþþþþþþþþþþÜ
                                   24895  1 1633.                Ÿ  Attach Timefinder to perform the split  Ÿ
                                          1                      ¾þþþþþþþþþþþþþþþþþþþþþþþþþþþþþþþþþþþþþþþþþþ»
 002F48 58C0 7B18            03914 24896  1 1634.                L     ATTR,=A(EMCATT)     Load address of timefinder record
 002F4C D207 C000 A000 00000 03CB0 24897  1 1635.                MVC   ATTPGNM,EMCTF       Address of module name
 002F52 5810 7B1C            03918 24898  1 1635.1               L     R1,=A(EMC_prm)      Address of exec parameter
 002F56 5010 C024            00024 24899  1 1635.2               ST    R1,ATTPRM           Set for attach
 002F5A 9680 C024      00024       24900  1 1635.3               OI    ATTPRM,X'80'        Indicate last parameter
 002F5E 58E0 7B20/0DEE       0391C 24901  1 1636.                ACALL ATTASK              Attach emc timefinder utility
 002F64 4110 7D78            03B74 24905  1 1637.                SEG   'VMNT188I - '       Report completion code
 002F68 4100 000B            0000B 24909  1          +
 002F6C 41F0 BB1C            00B1C 24917  1          +
 002F70 58E0 7AF4/0DEE       038F0 24920  1          +
 002F76 4110 7D83            03B7F 24922  1 1638.                SEG   'Timefinder SPLIT has completed, return('
 002F7A 4100 0027            00027 24926  1          +
 002F7E 41F0 BB1C            00B1C 24934  1          +
 002F82 58E0 7AF4/0DEE       038F0 24937  1          +
 002F88 5810 C034/1B00       00034 24939  1 1639.                SEGDC L:ATTRET,0          Get return code from timefinder
 002F8E 41F0 BB1C            00B1C 24955  1          +
 002F92 58E0 7B24/0DEE       03920 24958  1          +
 002F98 4110 7DAA            03BA6 24960  1 1640.                SEG   ')'                 Terminate message
 002F9C 4100 0001            00001 24964  1          +
 002FA0 41F0 BB1C            00B1C 24972  1          +
 002FA4 58E0 7AF4/0DEE       038F0 24975  1          +
 002FAA 1B00/41F0 BB1C       00B1C 24977  1 1641.                SEGWR ,                   And write to report file
 002FB0 58E0 7B0C/0DEE       03908 24999  1          +
 002FB6 4100 000B            0000B 25001  1 1641.01              SEGBLANK 11               Tab over to next column
 002FBA 41F0 BB1C            00B1C 25016  1          +
 002FBE 58E0 7B28/0DEE       03924 25019  1          +
 002FC4 98EF C018            00018 25021  1 1641.02              LM    R14,R15,ATTENDT     Load up substask ending time
 002FC8 5FF0 C014            00014 25022  1 1641.03              SDL   R14,ATTSTRT         Compute TOD clock elapsed time
 002FCC 47B0 71D6/06E0       02FD2 25024  1          +
 002FD2 5FE0 C010            00010 25026  1          +
 002FD6 8CE0 000C            0000C 25027  1 1641.04              SRDL  R14,12              Convert to micro-seconds
 002FDA 5DE0 7B2C            03928 25028  1 1641.05              D     R14,=A(1000)        Convert to milli-seconds
 002FDE 4110 8051            00019 25029  1 1641.06              LS    R1,R0,BCV_cwrk      Load string address and length
 002FE2 4100 000C            0000C 25041  1          +
 002FE6 8900 0008            00008 25042  1 1641.07              SLL   R0,8                Move over total length
 002FEA 5600 7B30            0392C 25043  1 1641.08              O     R0,=A(3)            And set for three decimal places
 002FEE 58E0 7B34/0DEE       03930 25044  1 1641.96              XCALL BTR                 Convert to decimal real
 002FF4 41F0 BB1C            00B1C 25048  1 1641.97              SEG   (R1),(R0)           Add to message
 002FF8 58E0 7AF4/0DEE       038F0 25069  1          +
 002FFE 4110 7DAB            03BA7 25071  1 1641.98              SEG   ' Elapsed seconds.'
 003002 4100 0011            00011 25075  1          +
 003006 41F0 BB1C            00B1C 25083  1          +
 00300A 58E0 7AF4/0DEE       038F0 25086  1          +
 003010 1B00/41F0 BB1C       00B1C 25088  1 1641.99              SEGWR ,                   Write elapsed time to file
 003016 58E0 7B0C/0DEE       03908 25110  1          +
1VMNT     (VMNT21) (09:48) (22MAR04) IHAPSAE  - PSA Extension (ESAME)                                                       Page   94
0Current Usings:  (BCVLIST,R2) (*,R7) (BCV_WRK-(4+52),R8) (EMCDATA,R10) (VMNT,R11) (ATTREC,R12)
0Loc    Object Code    Addr1 Addr2  Stmt Lv Lineno    Source Statement           (Hibal 5, Asmedit 3.3)  HLASM R4.0  2004/03/22 09.48
+___    ______ ____    _____ _____  ____ __ ______    ______ _________
000301C 5800 C034/1200       00034 25112  1 1642.                LT    R0,ATTRET           Test for log print requirement
 003022 4770 7232            0302E 25116  1 1643.                IF    (NZ,OR,FL_EMCLOG),BEGIN PRINT LOG FOR ANALYSIS
 003026 9140 B8D1      008D1       25135  1          +
 00302A 47E0 725A            03056 25136  1          +
 00302E 58E0 7B38/0DEE       03934 25141  2 1644.                  ACALL BCV_PLOG            Print current BCV log
 003034 4780 725A            03056 25145  2 1644.1                 IF    NZ,BEGIN            Unable to print EMC log
                                   25156  3 1644.2                   SEGDEF PRTSEG             Establish proper SEGCB
 003038 4110 7C08            03A04 25157  3 1644.3                   SEG   'VMNT739W - Unable to open EMC log.'
 00303C 4100 0022            00022 25161  3          +
 003040 41F0 BB1C            00B1C 25169  3          +
 003044 58E0 7AF4/0DEE       038F0 25172  3          +
 00304A 1B00/41F0 BB1C       00B1C 25174  3 1644.4                   SEGWR ,                   Write to VMNT log file
 003050 58E0 7B0C/0DEE       03908 25196  3          +
 003056                            25198  2 1644.5                 END   ,
 003056                            25202  1 1645.                END   ,
 003056                            25206  1 1645.1               IF    (ATTRET,NZ),BEGIN   Unable to continue
 003056 D603 C034 C034 00034 00034 25216  1          +
 00305C 4780 728A            03086 25217  1          +
 003060 4110 7B3C            03938 25222  2 1645.2                 SEG   'VMNT601E - SPLIT failed, unable to continue.'
 003064 4100 002C            0002C 25226  2          +
 003068 41F0 BB1C            00B1C 25234  2          +
 00306C 58E0 7AF4/0DEE       038F0 25237  2          +
 003072 1B00/41F0 BB1C       00B1C 25239  2 1645.3                 SEGWR ,                   Write to vmnt log
 003078 58E0 7B0C/0DEE       03908 25261  2          +
 00307E 920C B867      00867       25263  2 1645.4                 MVI   RETCDE+3,12         Error return code
 003082 47F0 B216            00216 25264  2 1645.5                 B     EXIT                Terminate further processing
 003086                            25265  1 1645.6               END   ,
 003086 4110 7ABC            038B8 25269  1 1646.                LA    R1,=CL8'TFINPUT'    Address of requested DDNAME
 00308A 58E0 7AFC/0DEE       038F8 25270  1 1647.                ACALL EMCSDDN             Set this DDNAME into DCB
 003090 4510 729C/8F         03098 25274  1 1648.                OPEN  (EMCSYSN,(OUTPUT))  Open emc timefinder utility file
 003095 003DC8/0A13                25278  1          +
 00309A 5820 B920            00920 25280  1 1649.                L     R2,BCVHEAD          Address of first bcv volume
 00309E 1222/4780 7328       03124 25281  1 1650.                WHILE (R2,NZ),BEGIN       Write split commands for each
                                   25297  2 1651.                  SEGDEF EMCSEG             Latch SEGCB switch
 0030A4 4110 7DBC            03BB8 25298  2 1652.                  SEG   ' RELABEL CUU='
 0030A8 4100 000D            0000D 25302  2          +
 0030AC 41F0 A0DC            03D8C 25310  2          +
 0030B0 58E0 7AF4/0DEE       038F0 25313  2          +
 0030B6 5810 2010            00010 25315  2 1653.                  SEGHX L:BCV_UCB,4         Bcv device number
 0030BA 4100 0004            00004 25326  2          +
 0030BE 41F0 A0DC            03D8C 25334  2          +
 0030C2 58E0 7B10/0DEE       0390C 25337  2          +
 0030C8 4110 7B68            03964 25339  2 1654.                  SEG   ',OLD-VOLSER='      Continue command buildup
 0030CC 4100 000C            0000C 25343  2          +
 0030D0 41F0 A0DC            03D8C 25351  2          +
 0030D4 58E0 7AF4/0DEE       038F0 25354  2          +
 0030DA 4110 2028            00028 25356  2 1655.                  SEG   BCV_VOL             Set old standard volume serial
 0030DE 4100 0006            00006 25370  2          +
 0030E2 41F0 A0DC            03D8C 25378  2          +
 0030E6 58E0 7AF4/0DEE       038F0 25381  2          +
 0030EC 4110 7B74            03970 25383  2 1656.                  SEG   ',NEW-VOLSER='      Continue command buildup
 0030F0 4100 000C            0000C 25387  2          +
 0030F4 41F0 A0DC            03D8C 25395  2          +
 0030F8 58E0 7AF4/0DEE       038F0 25398  2          +
1VMNT     (VMNT21) (09:48) (22MAR04) IHAPSAE  - PSA Extension (ESAME)                                                       Page   95
0Current Usings:  (BCVLIST,R2) (*,R7) (BCV_WRK-(4+52),R8) (EMCDATA,R10) (VMNT,R11) (ATTREC,R12)
0Loc    Object Code    Addr1 Addr2  Stmt Lv Lineno    Source Statement           (Hibal 5, Asmedit 3.3)  HLASM R4.0  2004/03/22 09.48
+___    ______ ____    _____ _____  ____ __ ______    ______ _________
00030FE 4110 202E            0002E 25400  2 1657.                  SEG   BCV_BSER            Set requested BCV volume serial
 003102 4100 0006            00006 25414  2          +
 003106 41F0 A0DC            03D8C 25422  2          +
 00310A 58E0 7AF4/0DEE       038F0 25425  2          +
 003110 1B00/41F0 A0DC       03D8C 25427  2 1658.                  SEGWR ,                   Write command line to file
 003116 58E0 7B0C/0DEE       03908 25449  2          +
 00311C 5820 2004            00004 25451  2 1659.                  L     R2,BCVNXT           Chain to next bcv volume
 003120 47F0 72A2            0309E 25452  1 1660.                END   ,
                                   25457  1 1661.                SEGDEF PRTSEG             Relatch SEGCB
 003124 4510 7330/80         0312C 25458  1 1662.                CLOSE EMCSYSN             Close EMC timefineder utility
 003129 003DC8/0A14                25462  1          +
 00312E 4110 A118            03DC8 25464  1 1663.                FREEPOOL EMCSYSN          Release buffer pool
 003132 9101 1017      00017       25467  1          +
 003136 4710 7380/1FFF       0317C 25468  1          +
 00313C BFF7 1015            00015 25470  1          +
 003140 58E0 F000/12EE       00000 25471  1          +
 003146 4770 7356            03152 25473  1          +
 00314A 9130 F004      00004       25474  1          +
 00314E 4770 7380            0317C 25475  1          +
 003152 9601 1017/1BEE 00017       25476  1          +
 003158 1B11/BF13 F006       00006 25478  1          +
 00315E 43E0 F005/1C0E       00005 25480  1          +
 003164 4110 1008            00008 25482  1          +
 003168 9140 F004      00004       25483  1          +
 00316C 47E0 7378            03174 25484  1          +
 003170 4110 1008/1801       00008 25485  1          +
 003176 4110 F000/0A0A       00000 25487  1          +
 00317C 58C0 7B18            03914 25490  1 1664.                L     ATTR,=A(EMCATT)     Load address of timefinder record
 003180 D207 C000 A008 00000 03CB8 25491  1 1665.                MVC   ATTPGNM,EMCTFU      Address of timefinder utility name
 003186 5810 7B1C            03918 25492  1 1665.1               L     R1,=A(EMC_prm)      Address of exec parameter
 00318A 5010 C024            00024 25493  1 1665.2               ST    R1,ATTPRM           Set for attach
 00318E 9680 C024      00024       25494  1 1665.3               OI    ATTPRM,X'80'        Indicate last parameter
 003192 58E0 7B20/0DEE       0391C 25495  1 1666.                ACALL ATTASK              Attach emc timefinder utility
 003198 4110 7DC9            03BC5 25499  1 1667.                SEG   'VMNT189I - '       Report completion code
 00319C 4100 000B            0000B 25503  1          +
 0031A0 41F0 BB1C            00B1C 25511  1          +
 0031A4 58E0 7AF4/0DEE       038F0 25514  1          +
 0031AA 4110 7DD4            03BD0 25516  1 1668.                SEG   'Timefinder RELABEL has completed, return('
 0031AE 4100 0029            00029 25520  1          +
 0031B2 41F0 BB1C            00B1C 25528  1          +
 0031B6 58E0 7AF4/0DEE       038F0 25531  1          +
 0031BC 5810 C034/1B00       00034 25533  1 1669.                SEGDC L:ATTRET,0          Get return code from timefinder
 0031C2 41F0 BB1C            00B1C 25549  1          +
 0031C6 58E0 7B24/0DEE       03920 25552  1          +
 0031CC 4110 7DAA            03BA6 25554  1 1670.                SEG   ')'                 Terminate message
 0031D0 4100 0001            00001 25558  1          +
 0031D4 41F0 BB1C            00B1C 25566  1          +
 0031D8 58E0 7AF4/0DEE       038F0 25569  1          +
 0031DE 1B00/41F0 BB1C       00B1C 25571  1 1671.                SEGWR ,                   And write to report file
 0031E4 58E0 7B0C/0DEE       03908 25593  1          +
 0031EA 5800 C034/1200       00034 25595  1 1672.                LT    R0,ATTRET           Test for log print requirement
 0031F0 4770 7400            031FC 25599  1 1673.                IF    (NZ,OR,FL_EMCLOG),BEGIN Print log for analysis
 0031F4 9140 B8D1      008D1       25618  1          +
 0031F8 47E0 7458            03254 25619  1          +
1VMNT     (VMNT21) (09:48) (22MAR04) IHAPSAE  - PSA Extension (ESAME)                                                       Page   96
0Current Usings:  (BCVLIST,R2) (*,R7) (BCV_WRK-(4+52),R8) (EMCDATA,R10) (VMNT,R11) (ATTREC,R12)
0Loc    Object Code    Addr1 Addr2  Stmt Lv Lineno    Source Statement           (Hibal 5, Asmedit 3.3)  HLASM R4.0  2004/03/22 09.48
+___    ______ ____    _____ _____  ____ __ ______    ______ _________
00031FC 58E0 7B38/0DEE       03934 25624  2 1674.                  ACALL BCV_PLOG            Print current BCV log
 003202 4780 7428            03224 25628  2 1674.01                IF    NZ,BEGIN            Unable to print EMC log
                                   25639  3 1674.02                  SEGDEF PRTSEG             Establish proper SEGCB
 003206 4110 7C08            03A04 25640  3 1674.03                  SEG   'VMNT739W - Unable to open EMC log.'
 00320A 4100 0022            00022 25644  3          +
 00320E 41F0 BB1C            00B1C 25652  3          +
 003212 58E0 7AF4/0DEE       038F0 25655  3          +
 003218 1B00/41F0 BB1C       00B1C 25657  3 1674.04                  SEGWR ,                   Write to VMNT log file
 00321E 58E0 7B0C/0DEE       03908 25679  3          +
 003224                            25681  2 1674.05                END   ,
 003224                            25685  2 1674.06                IF    (ATTRET,NZ),BEGIN   Unable to continue
 003224 D603 C034 C034 00034 00034 25695  2          +
 00322A 4780 7458            03254 25696  2          +
 00322E 4110 7C2A            03A26 25701  3 1674.07                  SEG   'VMNT602E - RELABEL failed, unable to continue.'
 003232 4100 002E            0002E 25705  3          +
 003236 41F0 BB1C            00B1C 25713  3          +
 00323A 58E0 7AF4/0DEE       038F0 25716  3          +
 003240 1B00/41F0 BB1C       00B1C 25718  3 1674.08                  SEGWR ,                   Write to vmnt log
 003246 58E0 7B0C/0DEE       03908 25740  3          +
 00324C 920C B867      00867       25742  3 1674.09                  MVI   RETCDE+3,12         Error return code
 003250 47F0 B216            00216 25743  3 1674.1                   B     EXIT                Terminate further processing
 003254                            25744  2 1674.98                END   ,
 003254                            25748  1 1674.99              END   ,
 DROP   BCVLIST,R2                 25752    1676.              END   ,
                                                               ¿þþþþþþþþþþþþþþþþþþþþþþþþþþþþþþþþþþþþþþþþþþþþþþþþþþþþþþþþþþÜ
                                   25761    1676.01            Ÿ  The split completed, log the split in the history file  Ÿ
                                   25762    1676.02            Ÿ  data base.                                              Ÿ
                                                               ¾þþþþþþþþþþþþþþþþþþþþþþþþþþþþþþþþþþþþþþþþþþþþþþþþþþþþþþþþþþ»
 003254 58E0 7B80/0DEE       0397C 25763    1676.03            ACALL HIST_OPN            Open VDMP history file
 00325A 58E0 7B84/0DEE       03980 25767    1676.04            ACALL HIST_SAD            RETURN ADDRESS OF "SPLIT" RECORD
 USING  HISSPREC,R1                25771    1676.05            WITH  (HISSPREC,R1),BEGIN ADDRESSABILITY TO "SPLIT" RECORD
 003260 9240 1008      00008       25785  1 1676.06              SET   (HISSP_split,EQ)    Indicate that we are now split
 DROP   HISSPREC,R1                25792    1676.98            END   ,
 003264 58E0 7B88/0DEE       03984 25800    1676.99            ACALL HIST_CLS            Close the VDMP history file
                                   25804    1677.              SEGDEF PRTSEG             Neatness counts
 00326A 18D8/980C D004       00004 25805    1678.              PEND  ,                   Restore registers and return
 DROP   EMCDATA,R10
 DROP   BCV_WRK-(4+52),R8
 DROP   *,R7
 003270 58E0 D000/12FF       00000 25831             +
 003276 07FE                       25834             +
1VMNT     (VMNT21) (09:48) (22MAR04) IHAPSAE  - PSA Extension (ESAME)                                                       Page   97
0Current Usings:  (VMNT,R11) (ATTREC,R12)
0Loc    Object Code    Addr1 Addr2  Stmt Lv Lineno    Source Statement           (Hibal 5, Asmedit 3.3)  HLASM R4.0  2004/03/22 09.48
+___    ______ ____    _____ _____  ____ __ ______    ______ _________
0                                  25836    1680.     ¿þþþþþþþþþþþþþþþþþþþþþþþþþþþþþþþþþþþþþþþþþþþþþþþþþþþþþþþþþþþþþþþþþþþþþÜ
                                   25837    1681.     Ÿ                                                                     Ÿ
                                   25838    1682.     Ÿ  Verify that the Orvyl EMC BCV volumes have been established        Ÿ
                                   25839    1683.     Ÿ  prior to "spliting."  For those volumes which are found to be      Ÿ
                                   25840    1683.1    Ÿ  in an available state a RE-ESTABLISH command will be issued to     Ÿ
                                   25841    1683.2    Ÿ  bring the volume into full establishment.                          Ÿ
                                   25842    1684.     Ÿ                                                                     Ÿ
                                                      ¾þþþþþþþþþþþþþþþþþþþþþþþþþþþþþþþþþþþþþþþþþþþþþþþþþþþþþþþþþþþþþþþþþþþþþ»
0003278 50E0 D000            00000 25843    1689.     BCV_Est  PROC  BCV_Wrk             Enter and save registers
 00327C 900C D004/188D       00004 25857             +
 003282 41D0 D060/0D70       00060 25860             +
 003288 58A0 7660            038E8 25892    1689.1             L     R10,=A(EMCDATA)     Address of EMC data fields
 USING  *,R7
 USING  BCV_WRK-(4+52),R8
 USING  EMCDATA,R10                25893    1689.2             WITH  (EMCDATA,R10)       Addressability to EMC data fields
 00328C 1BFF                       25906    1690.              CLEAR R15                 Assume successful split
 00328E                            25910    1690.1             CLEAR BCV_Wrk             Clear stack work area
 00328E D724 8038 8038 00000 00000 25916             +
 003294 9180 B8D1      008D1       25917    1691.              IF    FL_BCV,BEGIN        Bcv mode has been requested
 003298 47E0 7614            0389C 25927             +
 00329C                            25932  1 1691.01              IF    (DOMSTAT,NZ),BEGIN  Delete outstanding STATUS msg
 00329C D603 B848 B848 00848 00848 25942  1          +
 0032A2 4780 702E            032B6 25943  1          +
 0032A6 5810 B848            00848 25948  2 1691.02                L     R1,DOMSTAT          Load status message identifier
 0032AA 4100 0000/0A57       00000 25949  2 1691.03                DOM   MSG=(1)             Kill outstanding WTO message
 0032B0                            25952  2 1691.04                CLEAR DOMSTAT             Remove residual WTO msg id
 0032B0 D703 B848 B848 00848 00848 25958  2          +
 0032B6                            25959  1 1691.05              END   ,
                                   25963  1 1691.06              SEGDEF PRTSEG             Establish SEGCB buffer
 0032B6 58E0 7664/0DEE       038EC 25964  1 1691.07              ACALL MSGSUFF             Report file system
 0032BC 4110 7638            038C0 25968  1 1691.08              SEG   'Establishing BCV volumes'
 0032C0 4100 0018            00018 25972  1          +
 0032C4 41F0 BB1C            00B1C 25980  1          +
 0032C8 58E0 7668/0DEE       038F0 25983  1          +
 0032CE 41F0 BB1C            00B1C 25985  1 1691.09              SENDWTO 2,2               Write completion message
 0032D2 4110 0002            00002 25994  1          +
 0032D6 4100 0002            00002 25995  1          +
 0032DA 58E0 766C/0DEE       038F4 25998  1          +
 0032E0 50F0 B848            00848 26000  1 1691.1               ST    R15,DOMSTAT         Save STATUS message identifier
                                   26001  1 1691.11              SEGDEF PRTSEG             Establish report SEGCB
 0032E4 4110 7971            03BF9 26002  1 1691.12              SEG   'VMNT077I - Establishing required BCV volumes.'
 0032E8 4100 002D            0002D 26006  1          +
 0032EC 41F0 BB1C            00B1C 26014  1          +
 0032F0 58E0 7668/0DEE       038F0 26017  1          +
 0032F6 1B00/41F0 BB1C       00B1C 26019  1 1691.13              SEGWR ,                   and write to the report file.
 0032FC 58E0 7680/0DEE       03908 26041  1          +
 003302 4110 7628            038B0 26043  1 1692.                LA    R1,=CL8'SYSIN'      Address of requested DDNAME
 003306 58E0 7670/0DEE       038F8 26044  1 1693.                ACALL EMCSDDN             Set this DDNAME into DCB
 00330C 4510 708C/8F         03314 26048  1 1694.                OPEN  (EMCSYSN,(OUTPUT))  Open timefinder input file
 003311 003DC8/0A13                26052  1          +
 003316 4110 A010            03CC0 26054  1 1695.                SEGINIT EMCCARD,L'EMCCARD,EMCSEG,RTN=EMCSRTN
 00331A 4100 0050            00050 26070  1          +
 00331E 41F0 A0DC            03D8C 26078  1          +
1VMNT     (VMNT21) (09:48) (22MAR04) IHAPSAE  - PSA Extension (ESAME)                                                       Page   98
0Current Usings:  (*,R7) (BCV_WRK-(4+52),R8) (EMCDATA,R10) (VMNT,R11) (ATTREC,R12)
0Loc    Object Code    Addr1 Addr2  Stmt Lv Lineno    Source Statement           (Hibal 5, Asmedit 3.3)  HLASM R4.0  2004/03/22 09.48
+___    ______ ____    _____ _____  ____ __ ______    ______ _________
0003322 58E0 7674/0DEE       038FC 26081  1          +
 003328 5800 7678/1B11       03900 26083  1          +
 00332E 41F0 A0DC            03D8C 26095  1          +
 003332 58E0 767C/0DEE       03904 26098  1          +
                                   26100  1 1695.01              SEGDEF EMCSEG             Latch SEG routine for EMC
 003338 4110 77CC            03A54 26101  1 1695.1               SEGWR '* The following statements are generated from '
 00333C 4100 002E            0002E 26106  1          +
 003340 41F0 A0DC            03D8C 26114  1          +
 003344 58E0 7680/0DEE       03908 26117  1          +
 00334A 4110 799E            03C26 26119  1 1695.2               SEGWR '* the VMNT Orvyl maintenance utility.  The '
 00334E 4100 002B            0002B 26124  1          +
 003352 41F0 A0DC            03D8C 26132  1          +
 003356 58E0 7680/0DEE       03908 26135  1          +
 00335C 4110 77FA            03A82 26137  1 1695.3               SEGWR '* completion return code must be ZERO.'
 003360 4100 0026            00026 26142  1          +
 003364 41F0 A0DC            03D8C 26150  1          +
 003368 58E0 7680/0DEE       03908 26153  1          +
 00336E 4110 78CD            03B55 26155  1 1696.                SEGWR ' GLOBAL MAXRC=0'   Everything must be just right
 003372 4100 000F            0000F 26160  1          +
 003376 41F0 A0DC            03D8C 26168  1          +
 00337A 58E0 7680/0DEE       03908 26171  1          +
 003380 5820 B920            00920 26173  1 1697.                L     R2,BCVHEAD          Address of first bcv volume
 003384 1222/4780 7450       036D8 26174  1 1698.                WHILE (R2,NZ),BEGIN       Write split commands for each
 USING  BCVLIST,R2                 26190  2 1699.                  WITH  (BCVLIST,R2)        Addressability to BCV entries
 00338A 9120 2024      00024       26203  2 1699.01                IF    BFL_Est,BEGIN       This volume is already established
 00338E 47E0 7190            03418 26213  2          +
                                   26218  3 1699.02                  SEGDEF PRTSEG             Establish proper segcb control
 003392 4100 000B            0000B 26219  3 1699.03                  SEGBLANK 11               Tab over of a neat report
 003396 41F0 BB1C            00B1C 26234  3          +
 00339A 58E0 769C/0DEE       03924 26237  3          +
 0033A0 4110 2028            00028 26239  3 1699.04                  SEG   BCV_VOL             Report current volume serial
 0033A4 4100 0006            00006 26253  3          +
 0033A8 41F0 BB1C            00B1C 26261  3          +
 0033AC 58E0 7668/0DEE       038F0 26264  3          +
 0033B2 4110 79C9            03C51 26266  3 1699.05                  SEG   ' on ('             Set separator
 0033B6 4100 0005            00005 26270  3          +
 0033BA 41F0 BB1C            00B1C 26278  3          +
 0033BE 58E0 7668/0DEE       038F0 26281  3          +
 0033C4 5810 200C            0000C 26283  3 1699.06                  SEGHX L:BCV_STD,4         Convert MVS device number
 0033C8 4100 0004            00004 26294  3          +
 0033CC 41F0 BB1C            00B1C 26302  3          +
 0033D0 58E0 7684/0DEE       0390C 26305  3          +
 0033D6 4110 79CE            03C56 26307  3 1699.07                  SEG   ','                 Add separator
 0033DA 4100 0001            00001 26311  3          +
 0033DE 41F0 BB1C            00B1C 26319  3          +
 0033E2 58E0 7668/0DEE       038F0 26322  3          +
 0033E8 5810 2014            00014 26324  3 1699.08                  SEGHX L:BCV_STDE,4        Convert EMC device number
 0033EC 4100 0004            00004 26335  3          +
 0033F0 41F0 BB1C            00B1C 26343  3          +
 0033F4 58E0 7684/0DEE       0390C 26346  3          +
 0033FA 4110 7820            03AA8 26348  3 1699.09                  SEG   ') is already established and will be bypassed.'
 0033FE 4100 002E            0002E 26352  3          +
 003402 41F0 BB1C            00B1C 26360  3          +
 003406 58E0 7668/0DEE       038F0 26363  3          +
1VMNT     (VMNT21) (09:48) (22MAR04) IHAPSAE  - PSA Extension (ESAME)                                                       Page   99
0Current Usings:  (BCVLIST,R2) (*,R7) (BCV_WRK-(4+52),R8) (EMCDATA,R10) (VMNT,R11) (ATTREC,R12)
0Loc    Object Code    Addr1 Addr2  Stmt Lv Lineno    Source Statement           (Hibal 5, Asmedit 3.3)  HLASM R4.0  2004/03/22 09.48
+___    ______ ____    _____ _____  ____ __ ______    ______ _________
000340C 1B00/41F0 BB1C       00B1C 26365  3 1699.1                   SEGWR ,                   Write to report file
 003412 58E0 7680/0DEE       03908 26387  3          +
 003418 7194           03418 03390 26389  2 1699.11                END   ELSE,BEGIN          Proceed with the establish
 003418 47F0 7448            036D0 26398  2          +
 00341C 9680 8050      00018       26404  3 1699.12                  SET   BCV_Action          Indicate action is required
                                          3                          ¿þþþþþþþþþþþþþþþþþþþþþþþþþþþþþþþþþþþþþþþþþþþþþþþþþþþþþþÜ
                                   26410  3 1699.13                  Ÿ  Obtain current online/offline status of BCV volume  Ÿ
                                          3                          ¾þþþþþþþþþþþþþþþþþþþþþþþþþþþþþþþþþþþþþþþþþþþþþþþþþþþþþþ»
 003420 4110 2012            00012 26411  3 1699.14                  LA    R1,BCV_UCB+2        Address of ucb device number
 003424 41F0 8038            00000 26412  3 1699.15                  LA    R15,BCW_UCBA        Address of UCB return area
 003428 58E0 7700/0DEE       03988 26413  3 1699.16                  XCALL RETUCBA             Obtain ucb address of BCV device
 00342E 4780 71D0            03458 26417  3 1699.17                  IF    NZ,BEGIN            Unable to return ucb address
                                   26428  4 1699.18                    SEGDEF PRTSEG             Report error to vmnt log
 003432 4110 7704            0398C 26429  4 1699.19                    SEG   'VMNT482E - Unable to obtain BCV UCB address.'
 003436 4100 002C            0002C 26433  4          +
 00343A 41F0 BB1C            00B1C 26441  4          +
 00343E 58E0 7668/0DEE       038F0 26444  4          +
 003444 1B00/41F0 BB1C       00B1C 26446  4 1699.2                     SEGWR ,                   Write to vmnt log
 00344A 58E0 7680/0DEE       03908 26468  4          +
 003450 920C B867      00867       26470  4 1699.21                    MVI   RETCDE+3,12         Set error return code
 003454 47F0 B216            00216 26471  4 1699.22                    B     EXIT                And abort further processing
 003458                            26472  3 1699.23                  END   ,
 003458 1831                       26476  3 1699.97                  LR    R3,R1               Move UCB address
 USING  UCBOB,R3                   26477  3 1699.98                  WITH  (UCBOB,R3),BEGIN    Addressability to ucb common
 00345A 9180 3003      00063       26491  4 1699.99                    IF    UCBSTAT.UCBONLI,BEGIN
 00345E 47E0 7352            035DA 26502  4          +
                                          5                              ¿þþþþþþþþþþþþþþþþþþþþþþþþþþþþþþþþþþþþþþþþþþþþþÜ
                                   26507  5 1700.                        Ÿ  Convert BCV device number to a hex string  Ÿ
                                          5                              ¾þþþþþþþþþþþþþþþþþþþþþþþþþþþþþþþþþþþþþþþþþþþþþ»
 003462 4100 0004            00004 26508  5 1701.                        LA    R0,4                Set for four digits
 003466 4110 804C            00014 26509  5 1702.                        LA    R1,BCV_DEVC         Address to receive string
 00346A 58F0 2010            00010 26510  5 1703.                        L     R15,BCV_UCB         Load binary device number
 00346E 58E0 7730/0DEE       039B8 26511  5 1704.                        XCALL BTX                 Convert value to hex
                                   26515  5 1705.                        SEGDEF CONSEGCB           Latch Console SEGCB
 003474 4110 7734            039BC 26516  5 1706.                        SEGB  'VARY'              Buildup VARY command
 003478 4100 0004            00004 26521  5          +
 00347C 41F0 BE40            00E40 26529  5          +
 003480 58E0 7688/0DEE       03910 26532  5          +
 003486 4110 804C            00014 26534  5 1707.                        SEG   BCV_DEVC            Set device number into command
 00348A 4100 0004            00004 26548  5          +
 00348E 41F0 BE40            00E40 26556  5          +
 003492 58E0 7668/0DEE       038F0 26559  5          +
 003498 4110 7650            038D8 26561  5 1708.                        SEGB  ',OFFLINE'          Take this one offline
 00349C 4100 0008            00008 26566  5          +
 0034A0 41F0 BE40            00E40 26574  5          +
 0034A4 58E0 7688/0DEE       03910 26577  5          +
 0034AA 4110 784E            03AD6 26579  5 1709.                        SEGB  '***Insure that'    Some SYSLOG documentation
 0034AE 4100 000E            0000E 26584  5          +
 0034B2 41F0 BE40            00E40 26592  5          +
 0034B6 58E0 7688/0DEE       03910 26595  5          +
 0034BC 4110 202E            0002E 26597  5 1710.                        SEGB  BCV_BSER            To indicate where this
 0034C0 4100 0006            00006 26612  5          +
 0034C4 41F0 BE40            00E40 26620  5          +
 0034C8 58E0 7688/0DEE       03910 26623  5          +
1VMNT     (VMNT21) (09:48) (22MAR04) IHAPSAE  - PSA Extension (ESAME)                                                       Page  100
0Current Usings:  (BCVLIST,R2) (UCBOB,R3) (*,R7) (BCV_WRK-(4+52),R8) (EMCDATA,R10) (VMNT,R11) (ATTREC,R12)
0Loc    Object Code    Addr1 Addr2  Stmt Lv Lineno    Source Statement           (Hibal 5, Asmedit 3.3)  HLASM R4.0  2004/03/22 09.48
+___    ______ ____    _____ _____  ____ __ ______    ______ _________
00034CE 4110 79CF            03C57 26625  5 1711.                        SEG   'is offline***'     Command came from
 0034D2 4100 000D            0000D 26629  5          +
 0034D6 41F0 BE40            00E40 26637  5          +
 0034DA 58E0 7668/0DEE       038F0 26640  5          +
 0034E0 1B00/41F0 BE40       00E40 26642  5 1712.                        SEGWR ,                   Pass command on to MVS
 0034E6 58E0 7680/0DEE       03908 26664  5          +
                                          5                              ¿þþþþþþþþþþþþþþþþþþþþþþþþþþþþþþÜ
                                   26666  5 1712.01                      Ÿ  Wait for UCB to go offline  Ÿ
                                          5                              ¾þþþþþþþþþþþþþþþþþþþþþþþþþþþþþþ»
 0034EC 4150 001E            0001E 26667  5 1712.04                      LA    R5,30               Wait maximum of 30 seconds
 0034F0 9180 3003      00063       26668  5 1712.05                      WHILE UCBSTAT.UCBONLI,BEGIN   wait for offline to complete
 0034F4 47E0 7352            035DA 26681  5          +
 0034F8 4110 7738/1BFF       039C0 26686  6 1712.06                        STIMER WAIT,BINTVL==A(100)    wait for one second
 0034FE 4100 0091            00091 26691  6          +
 003502 8900 0018/0A2F       00018 26692  6          +
 003508 5B50 773C            039C4 26694  6 1712.07                        S     R5,=A(1)                decrement wait counter
 00350C 4720 734E            035D6 26695  6 1712.08                        IF    NP,BEGIN                something is wrong
                                   26706  7 1712.09                          SEGDEF PRTSEG                 establish vmnt report
 003510 4110 79DC            03C64 26707  7 1712.1                           SEG   'VMNT483E - BCV device ('
 003514 4100 0017            00017 26711  7          +
 003518 41F0 BB1C            00B1C 26719  7          +
 00351C 58E0 7668/0DEE       038F0 26722  7          +
 003522 4110 804C            00014 26724  7 1712.11                          SEG   BCV_DEVC                Report BCV device number
 003526 4100 0004            00004 26738  7          +
 00352A 41F0 BB1C            00B1C 26746  7          +
 00352E 58E0 7668/0DEE       038F0 26749  7          +
 003534 4110 785C            03AE4 26751  7 1712.12                          SEG   ') will not go offline!'
 003538 4100 0016            00016 26755  7          +
 00353C 41F0 BB1C            00B1C 26763  7          +
 003540 58E0 7668/0DEE       038F0 26766  7          +
 003546 1B00/41F0 BB1C       00B1C 26768  7 1712.14                          SEGWR ,                       write to report file
 00354C 58E0 7680/0DEE       03908 26790  7          +
 003552 5840 803C            00004 26792  7 1712.15                          L     R4,BCW_UCBE             address of common extension
 USING  UCBCMEXT,R4                26793  7 1712.16                          WITH  (UCBCMEXT,R4)           addressability to extension
 003556 4100 000B            0000B 26806  7 1712.26                          SEGBLANK 11                   tab over for report
 00355A 41F0 BB1C            00B1C 26821  7          +
 00355E 58E0 769C/0DEE       03924 26824  7          +
 003564 4110 79F3            03C7B 26826  7 1712.36                          SEG   'Status(x'''            report ucbstatus flag bytes
 003568 4100 0009            00009 26830  7          +
 00356C 41F0 BB1C            00B1C 26838  7          +
 003570 58E0 7668/0DEE       038F0 26841  7          +
 003576 1F11/4310 3003       00063 26843  7 1712.46                          SEGHX LC:UCBSTAT,2            convert status byte
 00357C 4100 0002            00002 26859  7          +
 003580 41F0 BB1C            00B1C 26867  7          +
 003584 58E0 7684/0DEE       0390C 26870  7          +
 00358A 4110 79FC            03C84 26872  7 1712.56                          SEG   ''') ASID('''           and report any asid present
 00358E 4100 0009            00009 26876  7          +
 003592 41F0 BB1C            00B1C 26884  7          +
 003596 58E0 7668/0DEE       038F0 26887  7          +
 00359C 1F11/BF13 400E       0000E 26889  7 1712.66                          SEGHX L2:UCBASID,4            loadup allocated asid
 0035A2 4100 0004            00004 26906  7          +
 0035A6 41F0 BB1C            00B1C 26914  7          +
 0035AA 58E0 7684/0DEE       0390C 26917  7          +
 0035B0 4110 7872            03AFA 26919  7 1712.76                          SEG   ''')'                   terminate message
1VMNT     (VMNT21) (09:48) (22MAR04) IHAPSAE  - PSA Extension (ESAME)                                                       Page  101
0Current Usings:  (BCVLIST,R2) (UCBOB,R3) (UCBCMEXT,R4) (*,R7) (BCV_WRK-(4+52),R8) (EMCDATA,R10) (VMNT,R11) (ATTREC,R12)
0Loc    Object Code    Addr1 Addr2  Stmt Lv Lineno    Source Statement           (Hibal 5, Asmedit 3.3)  HLASM R4.0  2004/03/22 09.48
+___    ______ ____    _____ _____  ____ __ ______    ______ _________
00035B4 4100 0002            00002 26923  7          +
 0035B8 41F0 BB1C            00B1C 26931  7          +
 0035BC 58E0 7668/0DEE       038F0 26934  7          +
 0035C2 1B00/41F0 BB1C       00B1C 26936  7 1712.86                          SEGWR ,                       write out error message
 0035C8 58E0 7680/0DEE       03908 26958  7          +
 0035CE 920C B867      00867       26960  7 1712.94                          MVI   RETCDE+3,12             set error return code
 0035D2 47F0 B216            00216 26961  7 1712.95                          B     EXIT                    and abort further processing
 DROP   UCBCMEXT,R4                26962  6 1712.96                        END   ,
 0035D6 47F0 7268            034F0 26971  5 1712.97                      END   ,
 0035DA                            26976  4 1712.98                    END   ,
 DROP   UCBOB,R3                   26980  3 1712.99                  END   ,                   Release UCB addressability
                                   26988  3 1713.                    SEGDEF EMCSEG             Default segcb set latch
 0035DA 4110 7A05            03C8D 26989  3 1714.                    SEG   ' QUERY 002,'       Buildup query command
 0035DE 4100 000B            0000B 26993  3          +
 0035E2 41F0 A0DC            03D8C 27001  3          +
 0035E6 58E0 7668/0DEE       038F0 27004  3          +
 0035EC 5810 2010            00010 27006  3 1715.                    SEGHX L:BCV_UCB,4         Bcv device number
 0035F0 4100 0004            00004 27017  3          +
 0035F4 41F0 A0DC            03D8C 27025  3          +
 0035F8 58E0 7684/0DEE       0390C 27028  3          +
 0035FE 4110 7874            03AFC 27030  3 1720.                    SEG   ',1'                Only one device number range
 003602 4100 0002            00002 27034  3          +
 003606 41F0 A0DC            03D8C 27042  3          +
 00360A 58E0 7668/0DEE       038F0 27045  3          +
 003610 1B00/41F0 A0DC       03D8C 27047  3 1721.                    SEGWR ,                   Write command image to file
 003616 58E0 7680/0DEE       03908 27069  3          +
 00361C 4110 7A10            03C98 27071  3 1721.1                   SEG   ' QUERY 020,'       Buildup query command
 003620 4100 000B            0000B 27075  3          +
 003624 41F0 A0DC            03D8C 27083  3          +
 003628 58E0 7668/0DEE       038F0 27086  3          +
 00362E 5810 2010            00010 27088  3 1721.2                   SEGHX L:BCV_UCB,4         Bcv device number
 003632 4100 0004            00004 27099  3          +
 003636 41F0 A0DC            03D8C 27107  3          +
 00363A 58E0 7684/0DEE       0390C 27110  3          +
 003640 4110 7874            03AFC 27112  3 1721.3                   SEG   ',1'                Only one device number range
 003644 4100 0002            00002 27116  3          +
 003648 41F0 A0DC            03D8C 27124  3          +
 00364C 58E0 7668/0DEE       038F0 27127  3          +
 003652 1B00/41F0 A0DC       03D8C 27129  3 1721.4                   SEGWR ,                   Write command image to file
 003658 58E0 7680/0DEE       03908 27151  3          +
 00365E 4110 7876            03AFE 27153  3 1722.                    SEG   ' RE-ESTABLISH '
 003662 4100 000E            0000E 27157  3          +
 003666 41F0 A0DC            03D8C 27165  3          +
 00366A 58E0 7668/0DEE       038F0 27168  3          +
 003670 4110 7740            039C8 27170  3 1723.                    SEG   '010,'
 003674 4100 0004            00004 27174  3          +
 003678 41F0 A0DC            03D8C 27182  3          +
 00367C 58E0 7668/0DEE       038F0 27185  3          +
 003682 5810 2010            00010 27187  3 1724.                    SEGHX L:BCV_UCB,4         Bcv device number
 003686 4100 0004            00004 27198  3          +
 00368A 41F0 A0DC            03D8C 27206  3          +
 00368E 58E0 7684/0DEE       0390C 27209  3          +
 003694 9104 B8D1      008D1       27211  3 1724.1                   IF    FL_BCVwait,BEGIN    Wait for Re-Establish to complete
 003698 47E0 7426            036AE 27221  3          +
1VMNT     (VMNT21) (09:48) (22MAR04) IHAPSAE  - PSA Extension (ESAME)                                                       Page  102
0Current Usings:  (BCVLIST,R2) (*,R7) (BCV_WRK-(4+52),R8) (EMCDATA,R10) (VMNT,R11) (ATTREC,R12)
0Loc    Object Code    Addr1 Addr2  Stmt Lv Lineno    Source Statement           (Hibal 5, Asmedit 3.3)  HLASM R4.0  2004/03/22 09.48
+___    ______ ____    _____ _____  ____ __ ______    ______ _________
000369C 4110 7884            03B0C 27226  4 1729.                      SEG   ',WAIT '
 0036A0 4100 0006            00006 27230  4          +
 0036A4 41F0 A0DC            03D8C 27238  4          +
 0036A8 58E0 7668/0DEE       038F0 27241  4          +
 0036AE 742A           036AE 0369A 27243  3 1729.01                  END   ELSE,BEGIN
 0036AE 47F0 743C            036C4 27252  3          +
 0036B2 4110 7658            038E0 27258  4 1729.02                    SEG   ',NOWAIT '
 0036B6 4100 0008            00008 27262  4          +
 0036BA 41F0 A0DC            03D8C 27270  4          +
 0036BE 58E0 7668/0DEE       038F0 27273  4          +
 0036C4                            27275  3 1729.03                  END   ,
                                          3                          ¿þþþþþþþþþþþþþþþþþþþþþþþþþþþþþþþþþþþþþþþþþþþþþþþþþþþþþþþÜ
                                   27279  3 1729.04                  Ÿ  TimeFinder V5.1.0 does not like comment              Ÿ
                                   27280  3 1729.05                  Ÿ                                                       Ÿ
                                   27281  3 1729.1                   Ÿ  SEGBLANK 4                Set some spacers           Ÿ
                                   27282  3 1730.                    Ÿ  SEG   BCV_VOL             Report establishment pair  Ÿ
                                          3                          ¾þþþþþþþþþþþþþþþþþþþþþþþþþþþþþþþþþþþþþþþþþþþþþþþþþþþþþþþ»
 0036C4 1B00/41F0 A0DC       03D8C 27283  3 1731.                    SEGWR ,                   Write to EMC command file
 0036CA 58E0 7680/0DEE       03908 27305  3          +
 0036D0                            27307  2 1731.1                 END   ,
 0036D0 5820 2004            00004 27311  2 1732.                  L     R2,BCVNXT           Chain to next bcv volume
 0036D4 47F0 70FC            03384 27312  1 1733.                END   ,
 DROP   BCVLIST,R2
 0036D8 4510 7458/80         036E0 27322  1 1734.                CLOSE EMCSYSN             Close timefinder input file
 0036DD 003DC8/0A14                27326  1          +
 0036E2 4110 A118            03DC8 27328  1 1735.                FREEPOOL EMCSYSN          Release dynamic buffer pool
 0036E6 9101 1017      00017       27331  1          +
 0036EA 4710 74A8/1FFF       03730 27332  1          +
 0036F0 BFF7 1015            00015 27334  1          +
 0036F4 58E0 F000/12EE       00000 27335  1          +
 0036FA 4770 747E            03706 27337  1          +
 0036FE 9130 F004      00004       27338  1          +
 003702 4770 74A8            03730 27339  1          +
 003706 9601 1017/1BEE 00017       27340  1          +
 00370C 1B11/BF13 F006       00006 27342  1          +
 003712 43E0 F005/1C0E       00005 27344  1          +
 003718 4110 1008            00008 27346  1          +
 00371C 9140 F004      00004       27347  1          +
 003720 47E0 74A0            03728 27348  1          +
 003724 4110 1008/1801       00008 27349  1          +
 00372A 4110 F000/0A0A       00000 27351  1          +
 003730 9180 8050      00018       27354  1 1735.01              IF    BCV_Action,BEGIN    Only attach Timefinder if needed
 003734 47E0 75FE            03886 27364  1          +
 003738 4110 7744/1BFF       039CC 27369  2 1735.1                 STIMER WAIT,BINTVL==A(500)    Wait for 5 seconds for varies
 00373E 4100 0091            00091 27374  2          +
 003742 8900 0018/0A2F       00018 27375  2          +
 003748 58C0 768C            03914 27377  2 1736.                  L     ATTR,=A(EMCATT)     Load address of timefinder record
 00374C D207 C000 A000 00000 03CB0 27378  2 1737.                  MVC   ATTPGNM,EMCTF       Address of module name
 003752 5810 7690            03918 27379  2 1737.1                 L     R1,=A(EMC_prm)      Address of exec parameter
 003756 5010 C024            00024 27380  2 1737.2                 ST    R1,ATTPRM           Set for attach
 00375A 9680 C024      00024       27381  2 1737.3                 OI    ATTPRM,X'80'        Indicate last parameter
 00375E 58E0 7694/0DEE       0391C 27382  2 1738.                  ACALL ATTASK              Attach EMC timefinder utility
                                   27386  2 1739.                  SEGDEF PRTSEG             Neatness counts
 003764 4110 7A1B            03CA3 27387  2 1740.                  SEG   'VMNT187I - '       Report completion code
1VMNT     (VMNT21) (09:48) (22MAR04) IHAPSAE  - PSA Extension (ESAME)                                                       Page  103
0Current Usings:  (*,R7) (BCV_WRK-(4+52),R8) (EMCDATA,R10) (VMNT,R11) (ATTREC,R12)
0Loc    Object Code    Addr1 Addr2  Stmt Lv Lineno    Source Statement           (Hibal 5, Asmedit 3.3)  HLASM R4.0  2004/03/22 09.48
+___    ______ ____    _____ _____  ____ __ ______    ______ _________
0003768 4100 000B            0000B 27391  2          +
 00376C 41F0 BB1C            00B1C 27399  2          +
 003770 58E0 7668/0DEE       038F0 27402  2          +
 003776 4110 788A            03B12 27404  2 1741.                  SEG   'Timefinder RE-ESTABLISH has completed, return('
 00377A 4100 002E            0002E 27408  2          +
 00377E 41F0 BB1C            00B1C 27416  2          +
 003782 58E0 7668/0DEE       038F0 27419  2          +
 003788 5810 C034/1B00       00034 27421  2 1742.                  SEGDC L:ATTRET,0          Get return code from timefinder
 00378E 41F0 BB1C            00B1C 27437  2          +
 003792 58E0 7698/0DEE       03920 27440  2          +
 003798 4110 791E            03BA6 27442  2 1743.                  SEG   ')'                 Terminate message
 00379C 4100 0001            00001 27446  2          +
 0037A0 41F0 BB1C            00B1C 27454  2          +
 0037A4 58E0 7668/0DEE       038F0 27457  2          +
 0037AA 1B00/41F0 BB1C       00B1C 27459  2 1744.                  SEGWR ,                   And write to report file
 0037B0 58E0 7680/0DEE       03908 27481  2          +
 0037B6 4100 000B            0000B 27483  2 1744.01                SEGBLANK 11               Tab over to next column
 0037BA 41F0 BB1C            00B1C 27498  2          +
 0037BE 58E0 769C/0DEE       03924 27501  2          +
 0037C4 98EF C018            00018 27503  2 1744.02                LM    R14,R15,ATTENDT     Load up substask ending time
 0037C8 5FF0 C014            00014 27504  2 1744.03                SDL   R14,ATTSTRT         Compute TOD clock elapsed time
 0037CC 47B0 754A/06E0       037D2 27506  2          +
 0037D2 5FE0 C010            00010 27508  2          +
 0037D6 8CE0 000C            0000C 27509  2 1744.04                SRDL  R14,12              Convert to micro-seconds
 0037DA 5DE0 76A0            03928 27510  2 1744.05                D     R14,=A(1000)        Convert to milli-seconds
 0037DE 4110 8051            00019 27511  2 1744.07                LS    R1,R0,BCV_cwrk      Load string address and length
 0037E2 4100 000C            0000C 27523  2          +
 0037E6 8900 0008            00008 27524  2 1744.17                SLL   R0,8                Move over total length
 0037EA 5600 76A4            0392C 27525  2 1744.27                O     R0,=A(3)            And set for three decimal places
 0037EE 58E0 76A8/0DEE       03930 27526  2 1744.95                XCALL BTR                 Convert to decimal real
 0037F4 41F0 BB1C            00B1C 27530  2 1744.96                SEG   (R1),(R0)           Add to message
 0037F8 58E0 7668/0DEE       038F0 27551  2          +
 0037FE 4110 791F            03BA7 27553  2 1744.97                SEG   ' Elapsed seconds.'
 003802 4100 0011            00011 27557  2          +
 003806 41F0 BB1C            00B1C 27565  2          +
 00380A 58E0 7668/0DEE       038F0 27568  2          +
 003810 1B00/41F0 BB1C       00B1C 27570  2 1744.98                SEGWR ,                   Write elapsed time to file
 003816 58E0 7680/0DEE       03908 27592  2          +
 00381C 5800 C034/1200       00034 27594  2 1745.                  LT    R0,ATTRET           Test for log print requirement
 003822 4770 75A6            0382E 27598  2 1746.                  IF    (NZ,OR,FL_EMCLOG),BEGIN Print log for analysis
 003826 9140 B8D1      008D1       27617  2          +
 00382A 47E0 75CE            03856 27618  2          +
 00382E 58E0 76AC/0DEE       03934 27623  3 1747.                    ACALL BCV_PLOG            Print current BCV log
 003834 4780 75CE            03856 27627  3 1747.01                  IF    NZ,BEGIN            Unable to print EMC log
                                   27638  4 1747.02                    SEGDEF PRTSEG             Establish proper SEGCB
 003838 4110 777C            03A04 27639  4 1747.03                    SEG   'VMNT739W - Unable to open EMC log.'
 00383C 4100 0022            00022 27643  4          +
 003840 41F0 BB1C            00B1C 27651  4          +
 003844 58E0 7668/0DEE       038F0 27654  4          +
 00384A 1B00/41F0 BB1C       00B1C 27656  4 1747.04                    SEGWR ,                   Write to VMNT log file
 003850 58E0 7680/0DEE       03908 27678  4          +
 003856                            27680  3 1747.05                  END   ,
 003856                            27684  2 1747.1                 END   ,
 003856                            27688  2 1747.2                 IF    (ATTRET,NZ),BEGIN   Unable to continue
1VMNT     (VMNT21) (09:48) (22MAR04) IHAPSAE  - PSA Extension (ESAME)                                                       Page  104
0Current Usings:  (*,R7) (BCV_WRK-(4+52),R8) (EMCDATA,R10) (VMNT,R11) (ATTREC,R12)
0Loc    Object Code    Addr1 Addr2  Stmt Lv Lineno    Source Statement           (Hibal 5, Asmedit 3.3)  HLASM R4.0  2004/03/22 09.48
+___    ______ ____    _____ _____  ____ __ ______    ______ _________
0003856 D603 C034 C034 00034 00034 27698  2          +
 00385C 4780 75FE            03886 27699  2          +
 003860 4110 7748            039D0 27704  3 1747.3                   SEG   'VMNT599E - ESTABLISH has failed, unable to continue.'
 003864 4100 0034            00034 27708  3          +
 003868 41F0 BB1C            00B1C 27716  3          +
 00386C 58E0 7668/0DEE       038F0 27719  3          +
 003872 1B00/41F0 BB1C       00B1C 27721  3 1747.4                   SEGWR ,                   Write to vmnt log
 003878 58E0 7680/0DEE       03908 27743  3          +
 00387E 920C B867      00867       27745  3 1747.5                   MVI   RETCDE+3,12         Error return code
 003882 47F0 B216            00216 27746  3 1747.6                   B     EXIT                Terminate further processing
 003886                            27747  2 1747.7                 END   ,
 003886                            27751  1 1748.                END   ,
                                          1                      ¿þþþþþþþþþþþþþþþþþþþþþþþþþþþþþþþþþþþþþþþþþþþþþþþþþþþþþþþþþþþÜ
                                   27755  1 1748.1               Ÿ  Log the completion of the establish in the history file  Ÿ
                                   27756  1 1748.2               Ÿ  data base.                                               Ÿ
                                          1                      ¾þþþþþþþþþþþþþþþþþþþþþþþþþþþþþþþþþþþþþþþþþþþþþþþþþþþþþþþþþþþ»
 003886 58E0 76F4/0DEE       0397C 27757  1 1748.3               ACALL HIST_OPN            Open VDMP history file
 00388C 58E0 76F8/0DEE       03980 27761  1 1748.4               ACALL HIST_SAD            Return address of "split" record
 USING  HISSPREC,R1                27765  1 1748.5               WITH  (HISSPREC,R1),BEGIN Addressability to "split" record
 003892 9280 1008      00008       27779  2 1748.6                 SET   (HISSP_est,EQ)      Indicate that we are established
 DROP   HISSPREC,R1                27786  1 1748.7               END   ,
 003896 58E0 76FC/0DEE       03984 27794  1 1748.8               ACALL HIST_CLS            Close the VDMP history file
 00389C                            27798    1749.              END   ,
 00389C 18D8/980C D004       00004 27802    1750.              PEND  ,                   Restore registers and return
 DROP   EMCDATA,R10
 DROP   BCV_WRK-(4+52),R8
 DROP   *,R7
 0038A2 58E0 D000/12FF       00000 27828             +
 0038A8 07FE                       27831             +
1VMNT     (VMNT21) (09:48) (22MAR04) IHAPSAE  - PSA Extension (ESAME)                                                       Page  105
0Current Usings:  (VMNT,R11) (ATTREC,R12)
0Loc    Object Code    Addr1 Addr2  Stmt Lv Lineno    Source Statement           (Hibal 5, Asmedit 3.3)  HLASM R4.0  2004/03/22 09.48
+___    ______ ____    _____ _____  ____ __ ______    ______ _________
0                                  27833    1751.1    ¿þþþþþþþþþþþþþþþþþþþþþþþþþþþþþþþþþþþþþþþþþþþþþþþþþþþþþþþþþþþþþþþþþþþþþÜ
                                   27834    1752.     Ÿ                                                                     Ÿ
                                   27835    1753.     Ÿ  Define literal pool                                                Ÿ
                                   27836    1754.     Ÿ                                                                     Ÿ
                                                      ¾þþþþþþþþþþþþþþþþþþþþþþþþþþþþþþþþþþþþþþþþþþþþþþþþþþþþþþþþþþþþþþþþþþþþþ»
-0038B0                            27838    1756.              LTORG ,                   Define literal pool
 0038B0 E2E8E2C9D5404040           27840                             =CL8'SYSIN'
 0038B8 E3C6C9D5D7E4E340           27841                             =CL8'TFINPUT'
 0038C0 C5A2A381829389A2           27842                             =C'Establishing BCV volumes'
 0038D8 6BD6C6C6D3C9D5C5           27843                             =C',OFFLINE'
 0038E0 6BD5D6E6C1C9E340           27844                             =C',NOWAIT '
 0038E8 00003CB0                   27845                             =A(EMCDATA)
 0038EC 0000245E                   27846                             =A(MSGSUFF)
 0038F0 00000000                   27847                             =V(SEG)
 0038F4 00004A14                   27848                             =A(SENDWTO)
 0038F8 00004300                   27849                             =A(EMCSDDN)
 0038FC 00000000                   27850                             =V(SEGINIT)
 003900 0000429C                   27851                             =A(EMCSRTN)
 003904 00000000                   27852                             =V(SEGINITR)
 003908 00000000                   27853                             =V(SEGWR)
 00390C 00000000                   27854                             =V(SEGHX)
 003910 00000000                   27855                             =V(SEGB)
 003914 00002B80                   27856                             =A(EMCATT)
 003918 00003EE8                   27857                             =A(EMC_prm)
 00391C 000017A4                   27858                             =A(ATTASK)
 003920 00000000                   27859                             =V(SEGDC)
 003924 00000000                   27860                             =V(SEGBLANK)
 003928 000003E8                   27861                             =A(1000)
 00392C 00000003                   27862                             =A(3)
 003930 00000000                   27863                             =V(BTR)
 003934 00002CAC                   27864                             =A(BCV_PLOG)
 003938 E5D4D5E3F6F0F1C5           27865                             =C'VMNT601E - SPLIT failed, unable to continue.'
 003964 6BD6D3C460E5D6D3           27866                             =C',OLD-VOLSER='
 003970 6BD5C5E660E5D6D3           27867                             =C',NEW-VOLSER='
 00397C 00005E54                   27868                             =A(HIST_OPN)
 003980 00005FA0                   27869                             =A(HIST_SAD)
 003984 00005F3E                   27870                             =A(HIST_CLS)
 003988 00000000                   27871                             =V(RETUCBA)
 00398C E5D4D5E3F4F8F2C5           27872                             =C'VMNT482E - Unable to obtain BCV UCB address.'
 0039B8 00000000                   27873                             =V(BTX)
 0039BC E5C1D9E8                   27874                             =C'VARY'
 0039C0 00000064                   27875                             =A(100)
 0039C4 00000001                   27876                             =A(1)
 0039C8 F0F1F06B                   27877                             =C'010,'
 0039CC 000001F4                   27878                             =A(500)
 0039D0 E5D4D5E3F5F9F9C5           27879                             =C'VMNT599E - ESTABLISH has failed, unable to continue.'
 003A04 E5D4D5E3F7F3F9E6           27880                             =C'VMNT739W - Unable to open EMC log.'
 003A26 E5D4D5E3F6F0F2C5           27881                             =C'VMNT602E - RELABEL failed, unable to continue.'
 003A54 5C40E38885408696           27882                             =C'* The following statements are generated from '
 003A82 5C40839694979385           27883                             =C'* completion return code must be ZERO.'
 003AA8 5D4089A240819399           27884                             =C') is already established and will be bypassed.'
 003AD6 5C5C5CC995A2A499           27885                             =C'***Insure that'
1VMNT     (VMNT21) (09:48) (22MAR04) IHAPSAE  - PSA Extension (ESAME)                                                       Page  106
0Current Usings:  (VMNT,R11) (ATTREC,R12)
0Loc    Object Code    Addr1 Addr2  Stmt Lv Lineno    Source Statement           (Hibal 5, Asmedit 3.3)  HLASM R4.0  2004/03/22 09.48
+___    ______ ____    _____ _____  ____ __ ______    ______ _________
0003AE4 5D40A68993934095           27886                             =C') will not go offline!'
 003AFA 7D5D                       27887                             =C''')'
 003AFC 6BF1                       27888                             =C',1'
 003AFE 40D9C560C5E2E3C1           27889                             =C' RE-ESTABLISH '
 003B0C 6BE6C1C9E340               27890                             =C',WAIT '
 003B12 E389948586899584           27891                             =C'Timefinder RE-ESTABLISH has completed, return('
 003B40 E2979389A3A38995           27892                             =C'Splitting BCV volumes'
 003B55 40C7D3D6C2C1D340           27893                             =C' GLOBAL MAXRC=0'
 003B64 40E2D7D3C9E340F0           27894                             =C' SPLIT 010,'
 003B6F 6BE6C1C9E3                 27895                             =C',WAIT'
 003B74 E5D4D5E3F1F8F8C9           27896                             =C'VMNT188I - '
 003B7F E389948586899584           27897                             =C'Timefinder SPLIT has completed, return('
 003BA6 5D                         27898                             =C')'
 003BA7 40C5938197A28584           27899                             =C' Elapsed seconds.'
 003BB8 40D9C5D3C1C2C5D3           27900                             =C' RELABEL CUU='
 003BC5 E5D4D5E3F1F8F9C9           27901                             =C'VMNT189I - '
 003BD0 E389948586899584           27902                             =C'Timefinder RELABEL has completed, return('
 003BF9 E5D4D5E3F0F7F7C9           27903                             =C'VMNT077I - Establishing required BCV volumes.'
 003C26 5C40A3888540E5D4           27904                             =C'* the VMNT Orvyl maintenance utility.  The '
 003C51 409695404D                 27905                             =C' on ('
 003C56 6B                         27906                             =C','
 003C57 89A2409686869389           27907                             =C'is offline***'
 003C64 E5D4D5E3F4F8F3C5           27908                             =C'VMNT483E - BCV device ('
 003C7B E2A381A3A4A24DA7           27909                             =C'Status(x'''
 003C84 7D5D40C1E2C9C44D           27910                             =C''') ASID('''
 003C8D 40D8E4C5D9E840F0           27911                             =C' QUERY 002,'
 003C98 40D8E4C5D9E840F0           27912                             =C' QUERY 020,'
 003CA3 E5D4D5E3F1F8F7C9           27913                             =C'VMNT187I - '
1VMNT     (VMNT21) (09:48) (22MAR04) IHAPSAE  - PSA Extension (ESAME)                                                       Page  107
0Current Usings:  (VMNT,R11) (ATTREC,R12)
0Loc    Object Code    Addr1 Addr2  Stmt Lv Lineno    Source Statement           (Hibal 5, Asmedit 3.3)  HLASM R4.0  2004/03/22 09.48
+___    ______ ____    _____ _____  ____ __ ______    ______ _________
0                                  27918    1839.     ¿þþþþþþþþþþþþþþþþþþþþþþþþþþþþþþþþþþþþþþþþþþþþþþþþþþþþþþþþþþþþþþþþþþþþþÜ
                                   27919    1840.     Ÿ                                                                     Ÿ
                                   27920    1841.     Ÿ  Obtain current status of paired BCV status.                        Ÿ
                                   27921    1842.     Ÿ                                                                     Ÿ
                                                      ¾þþþþþþþþþþþþþþþþþþþþþþþþþþþþþþþþþþþþþþþþþþþþþþþþþþþþþþþþþþþþþþþþþþþþþ»
-003EEC 50E0 D000            00000 27923    1844.     BCV_Stat PROC  BCV_Wrk             Obtain bcv status for pairings
 003EF0 900C D004/188D       00004 27937             +
 003EF6 41D0 D060/0D70       00060 27940             +
 003EFC 58A0 7474            04370 27972    1844.1             L     R10,=A(EMCDATA)     Address of EMC data fields
 USING  *,R7
 USING  BCV_WRK-(4+52),R8
 USING  EMCDATA,R10                27973    1844.2             WITH  (EMCDATA,R10)       Addressability to EMC data fields
 003F00 1BFF                       27986    1845.              CLEAR R15                 Assume successful completion
 003F02 9180 B8D1      008D1       27990    1846.              IF    ~FL_BCV,EXIT        Exit if not in BCV mode
 003F06 47E0 72CA            041C6 28002             +
 003F0A 4110 7434            04330 28008    1847.              LA    R1,=CL8'SYSIN'      Address of requested DDNAME
 003F0E 58E0 7478/0DEE       04374 28009    1848.              ACALL EMCSDDN             Set this DDNAME into DCB
 003F14 4510 7020/8F         03F1C 28013    1849.              OPEN  (EMCSYSN,(OUTPUT))  Open timefinder input file
 003F19 003DC8/0A13                28017             +
 003F1E 4110 A010            03CC0 28019    1850.              SEGINIT EMCCARD,L'EMCCARD,EMCSEG,RTN=EMCSRTN
 003F22 4100 0050            00050 28035             +
 003F26 41F0 A0DC            03D8C 28043             +
 003F2A 58E0 747C/0DEE       04378 28046             +
 003F30 5800 7480/1B11       0437C 28048             +
 003F36 41F0 A0DC            03D8C 28060             +
 003F3A 58E0 7484/0DEE       04380 28063             +
 003F40 4110 74E4            043E0 28065    1851.              SEGWR ' GLOBAL MAXRC=0'   Everything must be just right
 003F44 4100 000F            0000F 28070             +
 003F48 41F0 A0DC            03D8C 28078             +
 003F4C 58E0 7488/0DEE       04384 28081             +
 003F52 5820 B920            00920 28083    1852.              L     R2,BCVHEAD          Address of first bcv volume
 003F56 1222/4780 70BC       03FB8 28084    1853.              WHILE (R2,NZ),BEGIN       Write split commands for each
 USING  BCVLIST,R2                 28100  1 1854.                WITH  (BCVLIST,R2)        Addressability to bcv entries
                                   28113  1 1855.                SEGDEF EMCSEG             Default segcb set latch
                                          1                      ¿þþþþþþþþþþþþþþþþþþþþþþþþþþþþþþþþþþþþþþþþþþþþþÜ
                                   28114  1 1856.                Ÿ  Convert BCV device number to a hex string  Ÿ
                                          1                      ¾þþþþþþþþþþþþþþþþþþþþþþþþþþþþþþþþþþþþþþþþþþþþþ»
 003F5C 4100 0004            00004 28115  1 1857.                LA    R0,4                Set for four digits
 003F60 4110 804C            00014 28116  1 1858.                LA    R1,BCV_DEVC         Address to receive string
 003F64 58F0 2010            00010 28117  1 1859.                L     R15,BCV_UCB         Load binary device number
 003F68 58E0 748C/0DEE       04388 28118  1 1860.                XCALL BTX                 Convert value to hex
 003F6E 4110 74F3            043EF 28122  1 1861.                SEG   ' QUERY 002,'       Ask about this bcv's status
 003F72 4100 000B            0000B 28126  1          +
 003F76 41F0 A0DC            03D8C 28134  1          +
 003F7A 58E0 7490/0DEE       0438C 28137  1          +
 003F80 4110 804C            00014 28139  1 1862.                SEG   BCV_DEVC            And provide it's mvs address
 003F84 4100 0004            00004 28153  1          +
 003F88 41F0 A0DC            03D8C 28161  1          +
 003F8C 58E0 7490/0DEE       0438C 28164  1          +
 003F92 4110 74B4            043B0 28166  1 1863.                SEG   ',1'                And only for one volume
 003F96 4100 0002            00002 28170  1          +
 003F9A 41F0 A0DC            03D8C 28178  1          +
1VMNT     (VMNT21) (09:48) (22MAR04) IHAPSAE  - PSA Extension (ESAME)                                                       Page  108
0Current Usings:  (BCVLIST,R2) (*,R7) (BCV_WRK-(4+52),R8) (EMCDATA,R10) (VMNT,R11) (ATTREC,R12)
0Loc    Object Code    Addr1 Addr2  Stmt Lv Lineno    Source Statement           (Hibal 5, Asmedit 3.3)  HLASM R4.0  2004/03/22 09.48
+___    ______ ____    _____ _____  ____ __ ______    ______ _________
0003F9E 58E0 7490/0DEE       0438C 28181  1          +
 003FA4 1B00/41F0 A0DC       03D8C 28183  1 1864.                SEGWR ,                   Include command in file
 003FAA 58E0 7488/0DEE       04384 28205  1          +
 003FB0 5820 2004            00004 28207  1 1865.                L     R2,BCVNXT           Chain to next bcv volume
                                   28208  1 1866.                SEGDEF PRTSEG             Neatness counts!
 003FB4 47F0 705A            03F56 28209    1867.              END   ,
 DROP   BCVLIST,R2
 003FB8 4510 70C4/80         03FC0 28219    1868.              CLOSE EMCSYSN             Close timefinder input file
 003FBD 003DC8/0A14                28223             +
 003FC2 4110 A118            03DC8 28225    1869.              FREEPOOL EMCSYSN          Release dynamic buffer pool
 003FC6 9101 1017      00017       28228             +
 003FCA 4710 7114/1FFF       04010 28229             +
 003FD0 BFF7 1015            00015 28231             +
 003FD4 58E0 F000/12EE       00000 28232             +
 003FDA 4770 70EA            03FE6 28234             +
 003FDE 9130 F004      00004       28235             +
 003FE2 4770 7114            04010 28236             +
 003FE6 9601 1017/1BEE 00017       28237             +
 003FEC 1B11/BF13 F006       00006 28239             +
 003FF2 43E0 F005/1C0E       00005 28241             +
 003FF8 4110 1008            00008 28243             +
 003FFC 9140 F004      00004       28244             +
 004000 47E0 710C            04008 28245             +
 004004 4110 1008/1801       00008 28246             +
 00400A 4110 F000/0A0A       00000 28248             +
 004010 58C0 7494            04390 28251    1870.              L     ATTR,=A(EMCATT)     Load address of timefinder record
 004014 D207 C000 A000 00000 03CB0 28252    1871.              MVC   ATTPGNM,EMCTF       Address of module name
 00401A 5810 7498            04394 28253    1871.01            L     R1,=A(EMC_prm)      Address of exec parameter
 00401E 5010 C024            00024 28254    1871.02            ST    R1,ATTPRM           Set for attach
 004022 9680 C024      00024       28255    1871.03            OI    ATTPRM,X'80'        Indicate last parameter
 004026 5810 7498            04394 28256    1871.1             L     R1,=A(EMC_prm)      Address of exec parameter
 00402A 5010 C024            00024 28257    1871.2             ST    R1,ATTPRM           Set for attach
 00402E 9680 C024      00024       28258    1871.3             OI    ATTPRM,X'80'        Indicate last parameter
 004032 58E0 749C/0DEE       04398 28259    1872.              ACALL ATTASK              Attach emc timefinder utility
 004038 4110 74FE            043FA 28263    1873.              SEG   'VMNT186I - '       Report completion code
 00403C 4100 000B            0000B 28267             +
 004040 41F0 BB1C            00B1C 28275             +
 004044 58E0 7490/0DEE       0438C 28278             +
 00404A 4110 7509            04405 28280    1874.              SEG   'Timefinder QUERY has completed, return('
 00404E 4100 0027            00027 28284             +
 004052 41F0 BB1C            00B1C 28292             +
 004056 58E0 7490/0DEE       0438C 28295             +
 00405C 5810 C034/1B00       00034 28297    1875.              SEGDC L:ATTRET,0          Get return code from timefinder
 004062 41F0 BB1C            00B1C 28313             +
 004066 58E0 74A0/0DEE       0439C 28316             +
 00406C 4110 7530            0442C 28318    1876.              SEG   ')'                 Terminate message
 004070 4100 0001            00001 28322             +
 004074 41F0 BB1C            00B1C 28330             +
 004078 58E0 7490/0DEE       0438C 28333             +
 00407E 1B00/41F0 BB1C       00B1C 28335    1877.              SEGWR ,                   And write to report file
 004084 58E0 7488/0DEE       04384 28357             +
 00408A 5800 C034/1200       00034 28359    1878.              LT    R0,ATTRET           TEST FOR LOG PRINT REQUIREMENT
 004090 4770 71A0            0409C 28363    1879.              IF    (NZ,OR,FL_EMCLOG),BEGIN PRINT LOG FOR ANALYSIS
 004094 9140 B8D1      008D1       28382             +
1VMNT     (VMNT21) (09:48) (22MAR04) IHAPSAE  - PSA Extension (ESAME)                                                       Page  109
0Current Usings:  (*,R7) (BCV_WRK-(4+52),R8) (EMCDATA,R10) (VMNT,R11) (ATTREC,R12)
0Loc    Object Code    Addr1 Addr2  Stmt Lv Lineno    Source Statement           (Hibal 5, Asmedit 3.3)  HLASM R4.0  2004/03/22 09.48
+___    ______ ____    _____ _____  ____ __ ______    ______ _________
0004098 47E0 71C8            040C4 28383             +
 00409C 58E0 74A4/0DEE       043A0 28388  1 1880.                ACALL BCV_PLOG            Print current BCV log
 0040A2 4780 71C8            040C4 28392  1 1880.1               IF    NZ,BEGIN            Unable to print EMC log
                                   28403  2 1880.2                 SEGDEF PRTSEG             Establish proper SEGCB
 0040A6 4110 74B6            043B2 28404  2 1880.3                 SEG   'VMNT739W - Unable to open EMC log.'
 0040AA 4100 0022            00022 28408  2          +
 0040AE 41F0 BB1C            00B1C 28416  2          +
 0040B2 58E0 7490/0DEE       0438C 28419  2          +
 0040B8 1B00/41F0 BB1C       00B1C 28421  2 1880.4                 SEGWR ,                   Write to VMNT log file
 0040BE 58E0 7488/0DEE       04384 28443  2          +
 0040C4                            28445  1 1880.5               END   ,
 0040C4                            28449    1881.              END   ,
 0040C4                            28453    1881.1             IF    (ATTRET,NZ),BEGIN   Unable to continue
 0040C4 D603 C034 C034 00034 00034 28463             +
 0040CA 4780 71F8            040F4 28464             +
 0040CE 4110 743C            04338 28469  1 1881.2               SEG   'VMNT600E - QUERY has failed, unable to continue.'
 0040D2 4100 0030            00030 28473  1          +
 0040D6 41F0 BB1C            00B1C 28481  1          +
 0040DA 58E0 7490/0DEE       0438C 28484  1          +
 0040E0 1B00/41F0 BB1C       00B1C 28486  1 1881.3               SEGWR ,                   Write to vmnt log
 0040E6 58E0 7488/0DEE       04384 28508  1          +
 0040EC 920C B867      00867       28510  1 1881.4               MVI   RETCDE+3,12         Error return code
 0040F0 47F0 B216            00216 28511  1 1881.5               B     EXIT                Terminate further processing
 0040F4                            28512    1881.6             END   ,
                                   28516    1882.              ¿þþþþþþþþþþþþþþþþþþþþþþþþþþþþþþþþþþþþþþþþþþþþþþþþþþþþþþþþÜ
                                   28517    1883.              Ÿ  Okay damnit! Scan the output from Timefinder          Ÿ
                                   28518    1884.              Ÿ        As we read the output we assume that the order  Ÿ
                                   28519    1885.              Ÿ        out is the same as the order in!                Ÿ
                                   28520    1886.              ¾þþþþþþþþþþþþþþþþþþþþþþþþþþþþþþþþþþþþþþþþþþþþþþþþþþþþþþþþ»
 0040F4 4110 A178            03E28 28521    1888.              LA    R1,EMCPRTF          Address of emc sysout dcb
 USING  IHADCB,R1                  28522    1889.              WITH  (IHADCB,R1),BEGIN   Addressability to dcb
 0040F8                            28536  1 1890.                CLEAR DCBEODAD            Clear any outstanding eod exit
 0040F8 D703 1020 1020 00020 00020 28542  1          +
 0040FE 4100 72C4            041C0 28543  1 1890.1               LA    R0,BCV_EOD          ADDRESS OF END OF DATA ROUTINE
 004102 5000 1020            00020 28544  1 1890.2               ST    R0,DCBEODAD         SAVE IN DCB FOR END OF DATA EXIT
 004106 0700/4510 7214       04110 28545  1 1891.                OPEN  (EMCPRTF,(INPUT))   Open sysout data set
 00410C 80/003E28/0A13             28548  1          +
 DROP   IHADCB,R1                  28551    1892.              END   ,
 004112 4110 A178            03E28 28559    1894.              GET   EMCPRTF,EMCSOUT     Read next report line from file
 004116 4100 A060/1FFF       03D10 28562             +
 00411C BFF7 1031/05EF       00031 28564             +
 004122 9140 8050      00018       28566    1900.              WHILE ~BCV_Eof,BEGIN      Process output from query commands
 004126 4710 7266            04162 28578             +
 00412A D507 A069 746C 03D19 04368 28583  1 1902.                CLC   EMCSOUT+9(8),=CL8'BCVM003I'
 004130 4770 7252            0414E 28584  1 1902.01              IF    EQ,BEGIN            Found the right message ID
 004134 D508 A072 7531 03D22 0442D 28595  2 1902.02                CLC   EMCSOUT+18(9),=CL9'...BCV...'
 00413A 4780 7252            0414E 28596  2 1902.03                IF    NE,BEGIN            Eliminate first header line
 00413E D508 A072 753A 03D22 04436 28607  3 1902.04                  CLC   EMCSOUT+18(9),=CL9'CUU  DEV#'
 004144 4780 7252            0414E 28608  3 1902.05                  IF    NE,BEGIN            Eliminate second header line
 004148 58E0 74A8/0DEE       043A4 28619  4 1902.06                    ACALL BCV_MAT             Go matchup with defined list
 00414E                            28623  3 1902.97                  END   ,
 00414E                            28627  2 1902.98                END   ,
 00414E                            28631  1 1902.99              END   ,
 00414E 4110 A178            03E28 28635  1 1903.                GET   EMCPRTF,EMCSOUT     Read next report line from file
1VMNT     (VMNT21) (09:48) (22MAR04) IHAPSAE  - PSA Extension (ESAME)                                                       Page  110
0Current Usings:  (*,R7) (BCV_WRK-(4+52),R8) (EMCDATA,R10) (VMNT,R11) (ATTREC,R12)
0Loc    Object Code    Addr1 Addr2  Stmt Lv Lineno    Source Statement           (Hibal 5, Asmedit 3.3)  HLASM R4.0  2004/03/22 09.48
+___    ______ ____    _____ _____  ____ __ ______    ______ _________
0004152 4100 A060/1FFF       03D10 28638  1          +
 004158 BFF7 1031/05EF       00031 28640  1          +
 00415E 47F0 7226            04122 28642    1907.              END   ,
 004162 0700/4510 7270       0416C 28647    1911.              CLOSE EMCPRTF             Close EMC sysout data set
 004168 80/003E28/0A14             28650             +
 00416E 4110 A178            03E28 28653    1912.              FREEPOOL EMCPRTF          Release remaining buffer pools
 004172 9101 1017      00017       28656             +
 004176 4710 72C0/1FFF       041BC 28657             +
 00417C BFF7 1015            00015 28659             +
 004180 58E0 F000/12EE       00000 28660             +
 004186 4770 7296            04192 28662             +
 00418A 9130 F004      00004       28663             +
 00418E 4770 72C0            041BC 28664             +
 004192 9601 1017/1BEE 00017       28665             +
 004198 1B11/BF13 F006       00006 28667             +
 00419E 43E0 F005/1C0E       00005 28669             +
 0041A4 4110 1008            00008 28671             +
 0041A8 9140 F004      00004       28672             +
 0041AC 47E0 72B8            041B4 28673             +
 0041B0 4110 1008/1801       00008 28674             +
 0041B6 4110 F000/0A0A       00000 28676             +
                                   28679    1913.              SEGDEF PRTSEG             Neatness counts
 0041BC 47F0 72CA            041C6 28680    1913.1             EXIT  BCV_Stat            Bypass EOD exit routine
-0041C0                            28684    1913.2    BCV_EOD  LABEL ,
 0041C0 9640 8050      00018       28686    1913.3             SET   BCV_eof             Set end of data encountered
 0041C4 07FE                       28692    1913.4             BR    R14                 And return after "GET" request
 0041C6 18D8/980C D004       00004 28693    1914.              PEND  ,
 DROP   EMCDATA,R10
 DROP   BCV_WRK-(4+52),R8
 DROP   *,R7
 0041CC 58E0 D000/12FF       00000 28719             +
 0041D2 07FE                       28722             +
1VMNT     (VMNT21) (09:48) (22MAR04) IHAPSAE  - PSA Extension (ESAME)                                                       Page  111
0Current Usings:  (VMNT,R11) (ATTREC,R12)
0Loc    Object Code    Addr1 Addr2  Stmt Lv Lineno    Source Statement           (Hibal 5, Asmedit 3.3)  HLASM R4.0  2004/03/22 09.48
+___    ______ ____    _____ _____  ____ __ ______    ______ _________
0                                  28724    1914.02   ¿þþþþþþþþþþþþþþþþþþþþþþþþþþþþþþþþþþþþþþþþþþþþþþþþþþþþþþþþþþþþþþþþþþþþþÜ
                                   28725    1914.03   Ÿ                                                                     Ÿ
                                   28726    1914.04   Ÿ  Matchup Timefinder utility output line with defined EMC BCV        Ÿ
                                   28727    1914.05   Ÿ  pairings as defined in the Orvyl control stream                    Ÿ
                                   28728    1914.06   Ÿ                                                                     Ÿ
                                   28729    1914.07   Ÿ  Entry:      Assumes that EMCSOUT contains the BCVM003I message     Ÿ
                                   28730    1914.08   Ÿ              relating to an EMC BCV device status                   Ÿ
                                   28731    1914.09   Ÿ                                                                     Ÿ
                                                      ¾þþþþþþþþþþþþþþþþþþþþþþþþþþþþþþþþþþþþþþþþþþþþþþþþþþþþþþþþþþþþþþþþþþþþþ»
00041D4 50E0 D000            00000 28733    1914.11   BCV_Mat  PROC  ,                   Enter and save calling registers
 0041D8 900C D004/188D       00004 28746             +
 0041DE 41D0 D038/0D70       00038 28748             +
 0041E4 58A0 718C            04370 28771    1914.12            L     R10,=A(EMCDATA)     Address of EMC data fields
 USING  *,R7
 USING  EMCDATA,R10                28772    1914.13            WITH  (EMCDATA,R10)       Addressability to EMC data fields
                                   28785    1914.58            SEGDEF PRTSEG             Insure we have the proper segcb
 0041E8 4110 A072            03D22 28786    1914.59            LA    R1,EMCSOUT+18       Start of bcv device number string
 0041EC 4100 0004            00004 28787    1914.6             LA    R0,4                Length of bcv device number string
 0041F0 58E0 71C4/0DEE       043A8 28788    1914.61            XCALL XTB                 Go convert number to binary in (r15)
 0041F6 5820 B920            00920 28792    1914.62            L     R2,BCVHEAD          Load start of bcvlist
 0041FA 1222/4780 70A6       0428A 28793    1914.63            WHILE (R2,NZ),BEGIN       Scan through bcv entries
 USING  BCVLIST,R2                 28809  1 1914.64              WITH  (BCVLIST,R2)        Addressability to bcv entry
 004200 59F0 2010            00010 28822  1 1914.65              IF    (R15,EQ,BCV_UCB),BEGIN  Have we found the right one?
 004204 4770 709E            04282 28834  1          +
                                          2                        ¿þþþþþþþþþþþþþþþþþþþþþþþþþþþþþþþþþþþþþþþþþþþþþþþþþþþþþþþþþþþþÜ
                                   28839  2 1914.66                Ÿ  We have located the correct output line, pull off status  Ÿ
                                          2                        ¾þþþþþþþþþþþþþþþþþþþþþþþþþþþþþþþþþþþþþþþþþþþþþþþþþþþþþþþþþþþþ»
 004208 947F 2024      00024       28840  2 1914.67                CLEAR BFL_Unknown         Clear unknown flag
 00420C 9200 2024      00024       28847  2 1914.68                CLEAR BCV_Flgs            ---ah, just clear them all
                                          2                        ¿þþþþþþþþþþþþþþþþþþþþþþþþþþþþþþþþþþþþþþþþþþþþþþþþþþþÜ
                                   28854  2 1914.69                Ÿ  Pull off EMC's device number for the BCV volume  Ÿ
                                          2                        ¾þþþþþþþþþþþþþþþþþþþþþþþþþþþþþþþþþþþþþþþþþþþþþþþþþþþ»
 004210 4110 A077            03D27 28855  2 1914.7                 LA    R1,EMCSOUT+23       Address of emc device number
 004214 4100 0004            00004 28856  2 1914.71                LA    R0,4                And length of the number
 004218 58E0 71C4/0DEE       043A8 28857  2 1914.72                XCALL XTB                 Convert device number to binary
 00421E 50F0 2018            00018 28861  2 1914.73                ST    R15,BCV_UCBE        Save emc's device number
                                          2                        ¿þþþþþþþþþþþþþþþþþþþþþþþþþþþþþþþþþþþþþþþþþþþþþþþþþþþþþþþþÜ
                                   28862  2 1914.74                Ÿ  Pull off EMC's device number for the standard volume  Ÿ
                                          2                        ¾þþþþþþþþþþþþþþþþþþþþþþþþþþþþþþþþþþþþþþþþþþþþþþþþþþþþþþþþ»
 004222 4110 A082            03D32 28863  2 1914.75                LA    R1,EMCSOUT+34       Address of EMC device number
 004226 4100 0004            00004 28864  2 1914.76                LA    R0,4                And length of the number
 00422A 58E0 71C4/0DEE       043A8 28865  2 1914.77                XCALL XTB                 Convert device number to binary
 004230 50F0 2014            00014 28869  2 1914.78                ST    R15,BCV_STDE        Save emc's device number
                                          2                        ¿þþþþþþþþþþþþþþþþþþþþþþþþþþþþþþþþþþþþþþþþþþþþþþþþþþþþþþþþþþþþþþþÜ
                                   28870  2 1914.79                Ÿ  Pull off MVS device number of paired volume for cross check  Ÿ
                                          2                        ¾þþþþþþþþþþþþþþþþþþþþþþþþþþþþþþþþþþþþþþþþþþþþþþþþþþþþþþþþþþþþþþþ»
 004234 D503 A07D 71C8 03D2D 043AC 28871  2 1914.8                 CLC   EMCSOUT+29(4),=CL4'----'
 00423A 4780 707C            04260 28872  2 1914.81                IF    NE,BEGIN            Cross check
 00423E 4110 A07D            03D2D 28883  3 1914.82                  LA    R1,EMCSOUT+29       Address of mvs device number
 004242 4100 0004            00004 28884  3 1914.83                  LA    R0,4                And length of number
 004246 58E0 71C4/0DEE       043A8 28885  3 1914.84                  XCALL XTB                 Convert device number to binary
 00424C 59F0 200C            0000C 28889  3 1914.85                  IF    (R15,EQ,BCV_STD),'SET BFL_Vrf'
 004250 4770 7074            04258 28901  3          +
1VMNT     (VMNT21) (09:48) (22MAR04) IHAPSAE  - PSA Extension (ESAME)                                                       Page  112
0Current Usings:  (BCVLIST,R2) (*,R7) (EMCDATA,R10) (VMNT,R11) (ATTREC,R12)
0Loc    Object Code    Addr1 Addr2  Stmt Lv Lineno    Source Statement           (Hibal 5, Asmedit 3.3)  HLASM R4.0  2004/03/22 09.48
+___    ______ ____    _____ _____  ____ __ ______    ______ _________
0004254 9640 2024      00024       28912  3          +
 004258 7078           04258 04252 28917  3 1914.86                  ELSE  'CLEAR BFL_Vrf'
 004258 47F0 707C            04260 28922  3          +
 00425C 94BF 2024      00024       28935  3          +
 004260                            28940  2 1914.87                END   ,
                                          2                        ¿þþþþþþþþþþþþþþþþþþþþþþþþþþþþþþþþþþþþþþþþþþþþþþþþþþþþþþþþþþþþþþþþÜ
                                   28944  2 1914.88                Ÿ  Set establishment status (Established, Avail, Inuse, InuseX)  Ÿ
                                          2                        ¾þþþþþþþþþþþþþþþþþþþþþþþþþþþþþþþþþþþþþþþþþþþþþþþþþþþþþþþþþþþþþþþþ»
 004260 D505 A09C 71F0 03D4C 043D4 28945  2 1914.89                CLC   EMCSOUT+60(6),=CL6'AVAIL '    Test for available
 004266 4770 708A            0426E 28946  2 1914.9                 IF    EQ,'SET BFL_AVAIL'            Set available status
 00426A 9610 2024      00024       28963  2          +
 00426E D505 A09C 71F6 03D4C 043DA 28968  2 1914.91                CLC   EMCSOUT+60(6),=CL6'INUSE '    Test for "Inuse"
 004274 4770 7098            0427C 28969  2 1914.92                IF    EQ,'SET BFL_EST'              Set "Established" status
 004278 9620 2024      00024       28986  2          +
 00427C 1BFF                       28991  2 1914.93                CLEAR R15                 Clear return code
 00427E 47F0 70AA            0428E 28995  2 1914.94                EXIT  BCV_Mat             And exit procedure
 004282                            28998  1 1914.95              END   ,
 004282 5820 2004            00004 29002  1 1914.96              L     R2,BCVNXT           Link to next BCV entry
 004286 47F0 7016            041FA 29003    1914.97            END   ,
 DROP   BCVLIST,R2
 00428A 41F0 000C            0000C 29013    1914.98            LA    R15,12              Unable to locate bcv device
 00428E 18D8/980C D004       00004 29014    1914.99            PEND  ,
 DROP   EMCDATA,R10
 DROP   *,R7
 004294 58E0 D000/12FF       00000 29035             +
 00429A 07FE                       29038             +
1VMNT     (VMNT21) (09:48) (22MAR04) IHAPSAE  - PSA Extension (ESAME)                                                       Page  113
0Current Usings:  (VMNT,R11) (ATTREC,R12)
0Loc    Object Code    Addr1 Addr2  Stmt Lv Lineno    Source Statement           (Hibal 5, Asmedit 3.3)  HLASM R4.0  2004/03/22 09.48
+___    ______ ____    _____ _____  ____ __ ______    ______ _________
0                                  29040    1916.     ¿þþþþþþþþþþþþþþþþþþþþþþþþþþþþþþþþþþþþþþþþþþþþþþþþþþþþþþþþþþþþþþþþþþþþþÜ
                                   29041    1917.     Ÿ                                                                     Ÿ
                                   29042    1918.     Ÿ  EMC SEG routine for building command string                        Ÿ
                                   29043    1919.     Ÿ                                                                     Ÿ
                                                      ¾þþþþþþþþþþþþþþþþþþþþþþþþþþþþþþþþþþþþþþþþþþþþþþþþþþþþþþþþþþþþþþþþþþþþþ»
-
 00429C 50E0 D000            00000 29045    1921.     EMCSRTN  PROC  ,                   Emc command string seg routine
 0042A0 900C D004/188D       00004 29058             +
 0042A6 41D0 D038/0D70       00038 29060             +
 0042AC 58A0 70C4            04370 29083    1921.1             L     R10,=A(EMCDATA)     Address of EMC data fields
 USING  *,R7
 USING  EMCDATA,R10                29084    1921.2             WITH  (EMCDATA,R10)       Addressability to EMC data fields
 0042B0 182F                       29097    1922.              LR    R2,R15              Copy address of segcb
 0042B2 1830                       29098    1923.              LR    R3,R0               Copy length of seg information
 USING  SEGCB,R2                   29099    1924.              WITH  (SEGCB,R2)          Addressability to segcb
 0042B4 9502 2000      00000       29112    1925.              IF    (SEGCBWR,OR,SEGCBCR,OR,SEGCBOVF),BEGIN  segwr...
 0042B8 4780 7020            042CC 29126             +
 0042BC 9506 2000      00000       29135             +
 0042C0 4780 7020            042CC 29138             +
 0042C4 9505 2000      00000       29147             +
 0042C8 4770 703C            042E8 29148             +
 0042CC 4110 A118            03DC8 29153  1 1926.                PUT   EMCSYSN,EMCCARD     Write out command statement
 0042D0 4100 A010/1FFF       03CC0 29156  1          +
 0042D6 BFF7 1031/05EF       00031 29158  1          +
 0042DC 9240 A010      03CC0       29160  1 1927.                MVI   EMCCARD,C' '        Blank fill written card
 0042E0 D24E A011 A010 03CC1 03CC0 29161  1 1928.                MVC   EMCCARD+1(L'EMCCARD-1),EMCCARD
 0042E6 1303                       29162  1 1929.                LCR   R0,R3               For overflow: nbytes processed
 0042E8                            29163    1930.              END   ,
                                   29167    1931.              ¿þþþþþþþþþþþþþþþþþþþþþþþþþþþþþþþþþþþþþþþþþþþÜ
                                   29168    1932.              Ÿ  Post processing (set return code only).  Ÿ
                                   29169    1933.              ¾þþþþþþþþþþþþþþþþþþþþþþþþþþþþþþþþþþþþþþþþþþþ»
 0042E8 9504 2000      00000       29170    1934.              IF    SEGCBSPP,BEGIN      Post processing...
 0042EC 4770 7046            042F2 29180             +
 0042F0 1B00                       29185  1 1935.                CLEAR R0                  Assume a-ok
 0042F2                            29189    1936.              END   ,
 0042F2 18D8/980C D004       00004 29193    1937.              PEND  ,                   Restore registers and return
 DROP   SEGCB,R2
 DROP   EMCDATA,R10
 DROP   *,R7
 0042F8 58E0 D000/12FF       00000 29219             +
 0042FE 07FE                       29222             +
-
                                   29224    1939.     ¿þþþþþþþþþþþþþþþþþþþþþþþþþþþþþþþþþþþþþþþþþþþþþþþþþþþþþþþþþþþþþþþþþþþþþÜ
                                   29225    1940.     Ÿ                                                                     Ÿ
                                   29226    1941.     Ÿ  Set EMC timefinder utility program input DDNAME                    Ÿ
                                   29227    1942.     Ÿ                                                                     Ÿ
                                   29228    1943.     Ÿ    R1  Address of 8 character DDNAME                                Ÿ
                                   29229    1944.     Ÿ                                                                     Ÿ
                                                      ¾þþþþþþþþþþþþþþþþþþþþþþþþþþþþþþþþþþþþþþþþþþþþþþþþþþþþþþþþþþþþþþþþþþþþþ»
1VMNT     (VMNT21) (09:48) (22MAR04) IHAPSAE  - PSA Extension (ESAME)                                                       Page  114
0Current Usings:  (VMNT,R11) (ATTREC,R12)
0Loc    Object Code    Addr1 Addr2  Stmt Lv Lineno    Source Statement           (Hibal 5, Asmedit 3.3)  HLASM R4.0  2004/03/22 09.48
+___    ______ ____    _____ _____  ____ __ ______    ______ _________
0004300 50E0 D000            00000 29230    1945.     EMCSDDN  PROC  ,                   Set command file input ddname
 004304 900C D004/188D       00004 29243             +
 00430A 41D0 D038/0D70       00038 29245             +
 004310 58A0 7060            04370 29268    1945.1             L     R10,=A(EMCDATA)     Address of EMC data fields
 USING  *,R7
 USING  EMCDATA,R10                29269    1945.2             WITH  (EMCDATA,R10)       Addressability to EMC data fields
 004314 4120 A118            03DC8 29282    1946.              LA    R2,EMCSYSN          Address of input DCB
 USING  IHADCB,R2                  29283    1947.              WITH  (IHADCB,R2)         Addressability to DCB
 004318 D207 2028 1000 00028 00000 29296    1948.              MVC   DCBDDNAM,@R1        Set appropritate DDNAME
 00431E 18D8/980C D004       00004 29297    1949.              PEND  ,
 DROP   IHADCB,R2
 DROP   EMCDATA,R10
 DROP   *,R7
 004324 58E0 D000/12FF       00000 29323             +
 00432A 07FE                       29326             +
1VMNT     (VMNT21) (09:48) (22MAR04) IHAPSAE  - PSA Extension (ESAME)                                                       Page  115
0Current Usings:  (VMNT,R11) (ATTREC,R12)
0Loc    Object Code    Addr1 Addr2  Stmt Lv Lineno    Source Statement           (Hibal 5, Asmedit 3.3)  HLASM R4.0  2004/03/22 09.48
+___    ______ ____    _____ _____  ____ __ ______    ______ _________
0                                  29328    1949.2    ¿þþþþþþþþþþþþþþþþþþþþþþþþþþþþþþþþþþþþþþþþþþþþþþþþþþþþþþþþþþþþþþþþþþþþþÜ
                                   29329    1949.3    Ÿ                                                                     Ÿ
                                   29330    1949.4    Ÿ  Define literal pool                                                Ÿ
                                   29331    1949.5    Ÿ                                                                     Ÿ
                                                      ¾þþþþþþþþþþþþþþþþþþþþþþþþþþþþþþþþþþþþþþþþþþþþþþþþþþþþþþþþþþþþþþþþþþþþþ»
-
 004330                            29333    1950.              LTORG ,                   Define literals thus far
 004330 E2E8E2C9D5404040           29335                             =CL8'SYSIN'
 004338 E5D4D5E3F6F0F0C5           29336                             =C'VMNT600E - QUERY has failed, unable to continue.'
 004368 C2C3E5D4F0F0F3C9           29337                             =CL8'BCVM003I'
 004370 00003CB0                   29338                             =A(EMCDATA)
 004374 00004300                   29339                             =A(EMCSDDN)
 004378 00000000                   29340                             =V(SEGINIT)
 00437C 0000429C                   29341                             =A(EMCSRTN)
 004380 00000000                   29342                             =V(SEGINITR)
 004384 00000000                   29343                             =V(SEGWR)
 004388 00000000                   29344                             =V(BTX)
 00438C 00000000                   29345                             =V(SEG)
 004390 00002B80                   29346                             =A(EMCATT)
 004394 00003EE8                   29347                             =A(EMC_prm)
 004398 000017A4                   29348                             =A(ATTASK)
 00439C 00000000                   29349                             =V(SEGDC)
 0043A0 00002CAC                   29350                             =A(BCV_PLOG)
 0043A4 000041D4                   29351                             =A(BCV_MAT)
 0043A8 00000000                   29352                             =V(XTB)
 0043AC 60606060                   29353                             =CL4'----'
 0043B0 6BF1                       29354                             =C',1'
 0043B2 E5D4D5E3F7F3F9E6           29355                             =C'VMNT739W - Unable to open EMC log.'
 0043D4 C1E5C1C9D340               29356                             =CL6'AVAIL '
 0043DA C9D5E4E2C540               29357                             =CL6'INUSE '
 0043E0 40C7D3D6C2C1D340           29358                             =C' GLOBAL MAXRC=0'
 0043EF 40D8E4C5D9E840F0           29359                             =C' QUERY 002,'
 0043FA E5D4D5E3F1F8F6C9           29360                             =C'VMNT186I - '
 004405 E389948586899584           29361                             =C'Timefinder QUERY has completed, return('
 00442C 5D                         29362                             =C')'
 00442D 4B4B4BC2C3E54B4B           29363                             =CL9'...BCV...'
 004436 C3E4E44040C4C5E5           29364                             =CL9'CUU  DEV#'
1VMNT     (VMNT21) (09:48) (22MAR04) IHAPSAE  - PSA Extension (ESAME)                                                       Page  116
0Current Usings:  (VMNT,R11) (ATTREC,R12)
0Loc    Object Code    Addr1 Addr2  Stmt Lv Lineno    Source Statement           (Hibal 5, Asmedit 3.3)  HLASM R4.0  2004/03/22 09.48
+___    ______ ____    _____ _____  ____ __ ______    ______ _________
0                                  29369    1950.02   ¿þþþþþþþþþþþþþþþþþþþþþþþþþþþþþþþþþþþþþþþþþþþþþþþþþþþþþþþþþþþþþþþþþþþþþÜ
                                   29370    1950.03   Ÿ                                                                     Ÿ
                                   29371    1950.04   Ÿ  Allocate the required EMC utility program work files               Ÿ
                                   29372    1950.05   Ÿ                                                                     Ÿ
                                   29373    1950.06   Ÿ    Required files:                                                  Ÿ
                                   29374    1950.07   Ÿ        1) SYSIN for the timefinder command input stream             Ÿ
                                   29375    1950.08   Ÿ        2) TFINPUT for the timefinder utility command input stream   Ÿ
                                   29376    1950.09   Ÿ        3) SYSOUT data set for utility output text                   Ÿ
                                   29377    1950.1    Ÿ                                                                     Ÿ
                                                      ¾þþþþþþþþþþþþþþþþþþþþþþþþþþþþþþþþþþþþþþþþþþþþþþþþþþþþþþþþþþþþþþþþþþþþþ»
-004916                04916 06F60 29379    1950.12            DATA  BEGIN               Define addressable data section
 004916 E2E8E2C9D5404040           29384  1 1950.13   BCA_SYSN   DC    CL8'SYSIN'          Timefinder command input DDNAME
 00491E E3C6C9D5D7E4E340           29385  1 1950.14   BCA_TFIN   DC    CL8'TFINPUT'        Timefinder utility cmd input
 004926 E2E8E2D6E4E34040           29386  1 1950.15   BCA_SOUT   DC    CL8'SYSOUT'         Timefinder report data set
 00492E C5D4C3D3D6C74040           29387  1 1950.16   BCA_LOGF   DC    CL8'EMCLOG'         VMNT log file for EMC reports
0004936 0000                              1
 004938 00004964                   29389  1 1950.18   BCA_S99A   DC    A(BCA_DDN)          Address of DDNAME text unit
 00493C 80004960                   29390  1 1950.19              DC    A(X'80000000'+BCA_OUT$)     of SYSOUT=$ unit
0004940 00004964                   29392  1 1950.21   BCA_S99    DC    A(BCA_DDN)          Address of DDNAME text unit
 004944 00004972                   29393  1 1950.22              DC    A(BCA_STAT)                 of STATUS UNIT (NEW)
 004948 00004979                   29394  1 1950.23              DC    A(BCA_SPAC)                 of SPACE UNIT (TRACKS)
 00494C 0000497D                   29395  1 1950.24              DC    A(BCA_UNIT)                 of UNIT=VIO
 004950 8000498B                   29396  1 1950.25   BCA_STP1   DC    A(X'80000000'+BCA_PRIM)     of PRIMARY QUANTITY
 004954 00004994                   29397  1 1950.26              DC    A(BCA_BLKZ)                 of Blocksize
 004958 0000499C                   29398  1 1950.27              DC    A(BCA_LREC)                 of Record length
 00495C 800049A4                   29399  1 1950.28              DC    A(X'80000000'+BCA_RECF)     of Record format
-004960 00180000                   29401  1 1950.3    BCA_OUT$   DC    AL2(DALSYSOU,0)
 004964 000100010008E2E8           29402  1 1950.31   BCA_DDN    DC    AL2(DALDDNAM,1,8),CL8'SYSIN'  DDNAME
 004972 00040001000104             29403  1 1950.32   BCA_STAT   DC    AL2(DALSTATS,1,1),X'04'       DISP=NEW
 004979 00070000                   29404  1 1950.33   BCA_SPAC   DC    AL2(DALTRK,0)                 SPACE=TRK
 00497D 001500010008E5C9           29405  1 1950.34   BCA_UNIT   DC    AL2(DALUNIT,1,8),CL8'VIO'     UNIT=VIO
 00498B 000A000100030000           29406  1 1950.35   BCA_PRIM   DC    AL2(DALPRIME,1,3),AL3(75)     SPACE=(,75)
 004994 00300001000204BA           29407  1 1950.36   BCA_BLKZ   DC    AL2(DALBLKSZ,1,2),AL2(1210)   BLKSIZE=1210
 00499C 0042000100020079           29408  1 1950.37   BCA_LREC   DC    AL2(DALLRECL,1,2),AL2(121)    LRECL=121
 0049A4 00490001000190             29409  1 1950.38   BCA_RECF   DC    AL2(DALRECFM,1,1),X'90'       RECFM=FB
 00443F                0443F 06F60 29410    1950.39            END   ,
1VMNT     (VMNT21) (09:48) (22MAR04) IHAPSAE  - PSA Extension (ESAME)                                                       Page  117
0Current Usings:  (VMNT,R11) (ATTREC,R12)
0Loc    Object Code    Addr1 Addr2  Stmt Lv Lineno    Source Statement           (Hibal 5, Asmedit 3.3)  HLASM R4.0  2004/03/22 09.48
+___    ______ ____    _____ _____  ____ __ ______    ______ _________
0                                  29417    1950.41   ¿þþþþþþþþþþþþþþþþþþþþþþþþþþþþþþþþþþþþþþþþþþþþþþþþþþþþþþþþþþþþþþþþþþþþþÜ
                                   29418    1950.42   Ÿ                                                                     Ÿ
                                   29419    1950.43   Ÿ  Allocate EMC utility program work files                            Ÿ
                                   29420    1950.44   Ÿ                                                                     Ÿ
                                                      ¾þþþþþþþþþþþþþþþþþþþþþþþþþþþþþþþþþþþþþþþþþþþþþþþþþþþþþþþþþþþþþþþþþþþþþ»
-004440 50E0 D000            00000 29422    1950.53   BCV_WRKF PROC  ,                   Allocate EMC utility work files
 004444 900C D004/188D       00004 29435             +
 00444A 41D0 D038/0D70       00038 29437             +
 004450 9180 B8D1      008D1       29460    1950.54            IF    FL_BCV,BEGIN        BCV mode has been requested
 USING  *,R7
 004454 47E0 70B4            04504 29470             +
                                          1                      ¿þþþþþþþþþþþþþþþþþþþþþþþþþþþþþþþþþþþþþþþþþþþþþþþþþþþþþþþÜ
                                   29475  1 1950.55              Ÿ  Acquire necessary SYSIN stream data set if required  Ÿ
                                          1                      ¾þþþþþþþþþþþþþþþþþþþþþþþþþþþþþþþþþþþþþþþþþþþþþþþþþþþþþþþ»
 004458 4110 74C6            04916 29476  1 1950.56              LA    R1,BCA_SYSN         EMC Timefinder command input
 00445C 4DE0 B4CE            004CE 29477  1 1950.57              LCALL FINDDD              Do we already have one?
 004460 4780 7038            04488 29479  1 1950.58              IF    NZ,BEGIN            Nope -- go get one please
 004464 D207 751A 74C6 0496A 04916 29490  2 1950.59                MVC   BCA_DDN+6(8),BCA_SYSN   Set requested ddname
 00446A 9680 7500      04950       29491  2 1950.6                 OI    BCA_STP1,X'80'          Insure that we stop here
 00446E 4100 74F0            04940 29492  2 1950.61                LA    R0,BCA_S99          Address of text unit pointer list
 004472 5000 BB64            00B64 29493  2 1950.62                ST    R0,SDYNPRM+8        Save in SVC99 rb
 004476 4110 BB58            00B58 29494  2 1950.63                LA    R1,SDYNBLK          Address of svc99 parameter list
 00447A 0A63                       29495  2 1950.64                DYNALLOC ,                Allocate the sysin work file
 00447C 12FF/4780 7038       04488 29498  2 1950.65                IF    (R15,NZ),'ABEND 334'    WHOOPS
 004482 4110 014E/0A0D       0014E 29517  2          +
 004488                            29523  1 1950.66              END   ,
                                          1                      ¿þþþþþþþþþþþþþþþþþþþþþþþþþþþþþþþþþþþþþþþþþþþþþþþþþþþþþþþþþþÜ
                                   29527  1 1950.67              Ÿ  Acquire necessary TFINPUT stream data set if necessary  Ÿ
                                          1                      ¾þþþþþþþþþþþþþþþþþþþþþþþþþþþþþþþþþþþþþþþþþþþþþþþþþþþþþþþþþþ»
 004488 4110 74CE            0491E 29528  1 1950.68              LA    R1,BCA_TFIN         EMC Timefinder command input
 00448C 4DE0 B4CE            004CE 29529  1 1950.69              LCALL FINDDD              Do we already have one?
 004490 4780 7060            044B0 29531  1 1950.7               IF    NZ,BEGIN            Nope -- go get one please
 004494 D207 751A 74CE 0496A 0491E 29542  2 1950.71                MVC   BCA_DDN+6(8),BCA_TFIN   Reset ddname for TFU
 00449A 9680 7500      04950       29543  2 1950.72                OI    BCA_STP1,X'80'          Insure that we stop here
 00449E 4110 BB58            00B58 29544  2 1950.73                LA    R1,SDYNBLK          Address of svc99 parameter list
 0044A2 0A63                       29545  2 1950.74                DYNALLOC ,                Allocate the TFU command file
 0044A4 12FF/4780 7060       044B0 29548  2 1950.75                IF    (R15,NZ),'ABEND 335'    Whoops
 0044AA 4110 014F/0A0D       0014F 29567  2          +
 0044B0                            29573  1 1950.76              END   ,
                                          1                      ¿þþþþþþþþþþþþþþþþþþþþþþþþþþþþþþþþþþþþþþþþþþþþþþþþþþþþþþÜ
                                   29577  1 1950.77              Ÿ  Acquire necessary report file data set if required  Ÿ
                                          1                      ¾þþþþþþþþþþþþþþþþþþþþþþþþþþþþþþþþþþþþþþþþþþþþþþþþþþþþþþ»
 0044B0 4110 74D6            04926 29578  1 1950.78              LA    R1,BCA_SOUT         EMC Timefinder output file
 0044B4 4DE0 B4CE            004CE 29579  1 1950.79              LCALL FINDDD              Do we already have one?
 0044B8 4780 7088            044D8 29581  1 1950.8               IF    NZ,BEGIN            Nope -- go get one please
 0044BC D207 751A 74D6 0496A 04926 29592  2 1950.81                MVC   BCA_DDN+6(8),BCA_SOUT   Reset ddname for TFU
 0044C2 947F 7500      04950       29593  2 1950.82                NI    BCA_STP1,X'7F'          Set BLKSIZE, LRECL, RECFM
 0044C6 4110 BB58            00B58 29594  2 1950.83                LA    R1,SDYNBLK          Address of svc99 parameter list
 0044CA 0A63                       29595  2 1950.84                DYNALLOC ,                Allocate the TFU command file
 0044CC 12FF/4780 7088       044D8 29598  2 1950.85                IF    (R15,NZ),'ABEND 336'    Whoops
 0044D2 4110 0150/0A0D       00150 29617  2          +
 0044D8                            29623  1 1950.86              END   ,
1VMNT     (VMNT21) (09:48) (22MAR04) IHAPSAE  - PSA Extension (ESAME)                                                       Page  118
0Current Usings:  (*,R7) (VMNT,R11) (ATTREC,R12)
0Loc    Object Code    Addr1 Addr2  Stmt Lv Lineno    Source Statement           (Hibal 5, Asmedit 3.3)  HLASM R4.0  2004/03/22 09.48
+___    ______ ____    _____ _____  ____ __ ______    ______ _________
0                                         1                      ¿þþþþþþþþþþþþþþþþþþþþþþþþþþþþþþþþþþþþþþþþþþþþþþþþþþþÜ
                                   29627  1 1950.87              Ÿ  Acquire necessary VMNT log file for EMC reports  Ÿ
                                          1                      ¾þþþþþþþþþþþþþþþþþþþþþþþþþþþþþþþþþþþþþþþþþþþþþþþþþþþ»
 0044D8 4110 74DE            0492E 29628  1 1950.88              LA    R1,BCA_LOGF         VMNT logfile for EMC reports
 0044DC 4DE0 B4CE            004CE 29629  1 1950.89              LCALL FINDDD              Do we already have one?
 0044E0 4780 70B4            04504 29631  1 1950.9               IF    NZ,BEGIN            Nope -- go get one please
 0044E4 4100 74E8            04938 29642  2 1950.91                LA    R0,BCA_S99A         Address of text unit pointer list
 0044E8 5000 BB64            00B64 29643  2 1950.92                ST    R0,SDYNPRM+8        Save in SVC99 rb
 0044EC D207 751A 74DE 0496A 0492E 29644  2 1950.93                MVC   BCA_DDN+6(8),BCA_LOGF   Reset ddname for TFU
 0044F2 4110 BB58            00B58 29645  2 1950.94                LA    R1,SDYNBLK          Address of svc99 parameter list
 0044F6 0A63                       29646  2 1950.95                DYNALLOC ,                Allocate the TFU command file
 0044F8 12FF/4780 70B4       04504 29649  2 1950.96                IF    (R15,NZ),'ABEND 337'    Whoops
 0044FE 4110 0151/0A0D       00151 29668  2          +
 004504                            29674  1 1950.97              END   ,
 004504                            29678    1950.98            END   ,
 004504 18D8/980C D004       00004 29682    1950.99            PEND  ,                   Restore registers and return
 DROP   *,R7
 00450A 58E0 D000/12FF       00000 29698             +
 004510 07FE                       29701             +
1VMNT     (VMNT21) (09:48) (22MAR04) IHAPSAE  - PSA Extension (ESAME)                                                       Page  119
0Current Usings:  (VMNT,R11) (ATTREC,R12)
0Loc    Object Code    Addr1 Addr2  Stmt Lv Lineno    Source Statement           (Hibal 5, Asmedit 3.3)  HLASM R4.0  2004/03/22 09.48
+___    ______ ____    _____ _____  ____ __ ______    ______ _________
0                                  29703    2051.     ¿þþþþþþþþþþþþþþþþþþþþþþþþþþþþþþþþþþþþþþþþþþþþþþþþþþþþþþþþþþþþþþþþþþþþþÜ
                                   29704    2052.     Ÿ                                                                     Ÿ
                                   29705    2053.     Ÿ  Report on Orvyl file data set names and their potential            Ÿ
                                   29706    2054.     Ÿ  EMC BCV pairings.  For each data set locate the volume on          Ÿ
                                   29707    2055.     Ÿ  which it resides and the UCB address of the volume.  We will       Ÿ
                                   29708    2056.     Ÿ  save this information in the FILELIST structure.                   Ÿ
                                   29709    2057.     Ÿ                                                                     Ÿ
                                                      ¾þþþþþþþþþþþþþþþþþþþþþþþþþþþþþþþþþþþþþþþþþþþþþþþþþþþþþþþþþþþþþþþþþþþþþ»
0004512 50E0 D000            00000 29711    2059.     BCV_Pair PROC  ,                   Enter and save callings registers
 004516 900C D004/188D       00004 29724             +
 00451C 41D0 D038/0D70       00038 29726             +
 USING  *,R7                       29749    2060.              SEGDEF PRTSEG             Neatness counts
 004522 5820 B920            00920 29750    2061.              L     R2,BCVHEAD          Address of first bcv device
 004526 1222/4780 7170       04692 29751    2062.              WHILE (R2,NZ),BEGIN       Chain through and report each dev
 USING  BCVLIST,R2                 29767  1 2063.                WITH  (BCVLIST,R2)        Addressability to bcv entry
 00452C 4110 7396            048B8 29780  1 2064.                SEG   'VMNT200I - '       Report this bcv device entry
 004530 4100 000B            0000B 29784  1          +
 004534 41F0 BB1C            00B1C 29792  1          +
 004538 58E0 733E/0DEE       04860 29795  1          +
 00453E 4110 2028            00028 29797  1 2065.                SEG   BCV_VOL             Report Orvyl file system volume
 004542 4100 0006            00006 29811  1          +
 004546 41F0 BB1C            00B1C 29819  1          +
 00454A 58E0 733E/0DEE       04860 29822  1          +
 004550 4110 73A1            048C3 29824  1 2066.                SEG   ' on ('
 004554 4100 0005            00005 29828  1          +
 004558 41F0 BB1C            00B1C 29836  1          +
 00455C 58E0 733E/0DEE       04860 29839  1          +
 004562 5810 200C            0000C 29841  1 2067.                SEGHX L:BCV_STD,4         Report standard UCB address
 004566 4100 0004            00004 29852  1          +
 00456A 41F0 BB1C            00B1C 29860  1          +
 00456E 58E0 7342/0DEE       04864 29863  1          +
 004574 4110 73A6            048C8 29865  1 2067.1               SEG   ','
 004578 4100 0001            00001 29869  1          +
 00457C 41F0 BB1C            00B1C 29877  1          +
 004580 58E0 733E/0DEE       04860 29880  1          +
 004586 5810 2014            00014 29882  1 2067.2               SEGHX L:BCV_STDE,4
 00458A 4100 0004            00004 29893  1          +
 00458E 41F0 BB1C            00B1C 29901  1          +
 004592 58E0 7342/0DEE       04864 29904  1          +
 004598 4110 73A7            048C9 29906  1 2067.3               SEG   ')'
 00459C 4100 0001            00001 29910  1          +
 0045A0 41F0 BB1C            00B1C 29918  1          +
 0045A4 58E0 733E/0DEE       04860 29921  1          +
 0045AA 4110 7346            04868 29923  1 2068.                SEG   ' is paired with BCV device ('
 0045AE 4100 001C            0001C 29927  1          +
 0045B2 41F0 BB1C            00B1C 29935  1          +
 0045B6 58E0 733E/0DEE       04860 29938  1          +
 0045BC 5810 2010            00010 29940  1 2069.                SEGHX L:BCV_UCB,4         Convert BCV address into message
 0045C0 4100 0004            00004 29951  1          +
 0045C4 41F0 BB1C            00B1C 29959  1          +
 0045C8 58E0 7342/0DEE       04864 29962  1          +
 0045CE 4110 73A6            048C8 29964  1 2069.1               SEG   ','                 Add a separator
 0045D2 4100 0001            00001 29968  1          +
1VMNT     (VMNT21) (09:48) (22MAR04) IHAPSAE  - PSA Extension (ESAME)                                                       Page  120
0Current Usings:  (BCVLIST,R2) (*,R7) (VMNT,R11) (ATTREC,R12)
0Loc    Object Code    Addr1 Addr2  Stmt Lv Lineno    Source Statement           (Hibal 5, Asmedit 3.3)  HLASM R4.0  2004/03/22 09.48
+___    ______ ____    _____ _____  ____ __ ______    ______ _________
00045D6 41F0 BB1C            00B1C 29976  1          +
 0045DA 58E0 733E/0DEE       04860 29979  1          +
 0045E0 5810 2018            00018 29981  1 2069.2               SEGHX L:BCV_UCBE,4        Convert emc bcv device number
 0045E4 4100 0004            00004 29992  1          +
 0045E8 41F0 BB1C            00B1C 30000  1          +
 0045EC 58E0 7342/0DEE       04864 30003  1          +
 0045F2 4110 73A7            048C9 30005  1 2069.3               SEG   ')'
 0045F6 4100 0001            00001 30009  1          +
 0045FA 41F0 BB1C            00B1C 30017  1          +
 0045FE 58E0 733E/0DEE       04860 30020  1          +
 004604 1B00/41F0 BB1C       00B1C 30022  1 2070.                SEGWR ,                   Write to report file
 00460A 58E0 7362/0DEE       04884 30044  1          +
 004610 4100 000B            0000B 30046  1 2070.1               SEGBLANK 11
 004614 41F0 BB1C            00B1C 30061  1          +
 004618 58E0 7366/0DEE       04888 30064  1          +
 00461E 4110 73A8            048CA 30066  1 2070.2               SEG   'and is '
 004622 4100 0007            00007 30070  1          +
 004626 41F0 BB1C            00B1C 30078  1          +
 00462A 58E0 733E/0DEE       04860 30081  1          +
 004630 9120 2024      00024       30083  1 2070.3               IF     BFL_Est,'SEG "in the ESTABLISHED state."'
 004634 47E0 7128            0464A 30093  1          +
 004638 4110 73AF            048D1 30102  2          +
 00463C 4100 0019            00019 30103  2          +
 004640 41F0 BB1C            00B1C 30111  2          +
 004644 58E0 733E/0DEE       04860 30114  1          +
 00464A 712C           0464A 04636 30120  1 2070.4               ELSEIF BFL_Avail,'SEG "in the AVAILABLE state."'
 00464A 47F0 7146            04668 30126  1          +
 00464E 9110 2024      00024       30138  1          +
 004652 47E0 7146            04668 30139  1          +
 004656 4110 73C8            048EA 30148  2          +
 00465A 4100 0017            00017 30149  2          +
 00465E 41F0 BB1C            00B1C 30157  2          +
 004662 58E0 733E/0DEE       04860 30160  1          +
 004668 714A           04668 04654 30166  1 2070.5               ELSE   'SEG "in the dogy-doo state."'
 004668 47F0 715C            0467E 30171  1          +
 00466C 4110 7376            04898 30181  2          +
 004670 4100 0016            00016 30182  2          +
 004674 41F0 BB1C            00B1C 30190  2          +
 004678 58E0 733E/0DEE       04860 30193  1          +
 00467E 1B00/41F0 BB1C       00B1C 30199  1 2070.6               SEGWR ,
 004684 58E0 7362/0DEE       04884 30221  1          +
 00468A 5820 2004            00004 30223  1 2071.                L     R2,BCVNXT           Chain to next bcv entry
 00468E 47F0 7004            04526 30224    2072.              END   ,
 DROP   BCVLIST,R2
 004692 18D8/980C D004       00004 30234    2073.              PEND  ,                   Restore registers and return
 DROP   *,R7
 004698 58E0 D000/12FF       00000 30250             +
 00469E 07FE                       30253             +
1VMNT     (VMNT21) (09:48) (22MAR04) IHAPSAE  - PSA Extension (ESAME)                                                       Page  121
0Current Usings:  (VMNT,R11) (ATTREC,R12)
0Loc    Object Code    Addr1 Addr2  Stmt Lv Lineno    Source Statement           (Hibal 5, Asmedit 3.3)  HLASM R4.0  2004/03/22 09.48
+___    ______ ____    _____ _____  ____ __ ______    ______ _________
0                                  30255    2073.2    ¿þþþþþþþþþþþþþþþþþþþþþþþþþþþþþþþþþþþþþþþþþþþþþþþþþþþþþþþþþþþþþþþþþþþþþÜ
                                   30256    2073.3    Ÿ                                                                     Ÿ
                                   30257    2073.4    Ÿ  Report on each file data set and it's associated BCV counterpart   Ÿ
                                   30258    2073.5    Ÿ                                                                     Ÿ
                                   30259    2073.6    Ÿ                                                                     Ÿ
                                                      ¾þþþþþþþþþþþþþþþþþþþþþþþþþþþþþþþþþþþþþþþþþþþþþþþþþþþþþþþþþþþþþþþþþþþþþ»
00046A0 50E0 D000            00000 30261    2073.8    BCV_File PROC  ,                   Save calling registers
 0046A4 900C D004/188D       00004 30274             +
 0046AA 41D0 D038/0D70       00038 30276             +
 0046B0 5820 B918            00918 30299    2074.              L     R2,FILHEAD          Address of first file name
 USING  *,R7
 0046B4 5830 BE10            00E10 30300    2075.              L     R3,SYNLOC+12        Address of catalog work area
 0046B8 1222/4780 7180       04830 30301    2076.              WHILE (R2,NZ),BEGIN       Spin through entire list
 USING  FILELIST,R2                30317  1 2077.                WITH  (FILELIST,R2)       Addressability to list
 0046BE D22B B994 2019 00994 00019 30330  1 2078.                MVC   SYNCDSN,FILENAME    Set gdg prefix name
 0046C4 4110 BE04/0A1A       00E04 30331  1 2079.                LOCATE SYNLOC             Locate in catalog
 0046CA 12FF/4780 7044       046F4 30335  1 2080.                IF    (R15,NZ),BEGIN      Error locating catalog entry
 0046D0 4110 7190            04840 30349  2 2081.                  SEG   'VMNT202E - File='  Report file name
 0046D4 4100 0010            00010 30353  2          +
 0046D8 41F0 BB1C            00B1C 30361  2          +
 0046DC 58E0 71B0/0DEE       04860 30364  2          +
 0046E2 4110 2019            00019 30366  2 2082.                  SEG   FILENAME            Say which file I couldn't find
 0046E6 4100 002C            0002C 30380  2          +
 0046EA 41F0 BB1C            00B1C 30388  2          +
 0046EE 58E0 71B0/0DEE       04860 30391  2          +
 0046F4 7048           046F4 046CE 30393  1 2083.                END   ELSE,BEGIN          Report BCV pairing information
 0046F4 47F0 7138            047E8 30402  1          +
 0046F8 4110 71A0            04850 30408  2 2084.                  SEG   'VMNT201I - File='  Report file name
 0046FC 4100 0010            00010 30412  2          +
 004700 41F0 BB1C            00B1C 30420  2          +
 004704 58E0 71B0/0DEE       04860 30423  2          +
 00470A 4110 2019            00019 30425  2 2085.                  SEG   FILENAME            Add file data set name to message
 00470E 4100 002C            0002C 30439  2          +
 004712 41F0 BB1C            00B1C 30447  2          +
 004716 58E0 71B0/0DEE       04860 30450  2          +
 00471C D203 2014 3002 00014 00002 30452  2 2086.                  MVC   FILE_DVT,@R3+2      Move in returned device type
 004722 D205 2045 3006 00045 00006 30453  2 2087.                  MVC   FILEVOL,@R3+6       Move in returned volume serial
 004728 1B00/41F0 BB1C       00B1C 30454  2 2088.                  SEGWR ,                   Write out previous message
 00472E 58E0 71D4/0DEE       04884 30476  2          +
 004734 4100 000B            0000B 30478  2 2089.                  SEGBLANK 11               Provide message spacing
 004738 41F0 BB1C            00B1C 30493  2          +
 00473C 58E0 71D8/0DEE       04888 30496  2          +
 004742 4110 7251            04901 30498  2 2090.                  SEG   'Volume='           Report returned volume serial
 004746 4100 0007            00007 30502  2          +
 00474A 41F0 BB1C            00B1C 30510  2          +
 00474E 58E0 71B0/0DEE       04860 30513  2          +
 004754 4110 2045            00045 30515  2 2091.                  SEG   FILEVOL             Add in returned volume serial
 004758 4100 0006            00006 30529  2          +
 00475C 41F0 BB1C            00B1C 30537  2          +
 004760 58E0 71B0/0DEE       04860 30540  2          +
 004766 4110 71FE            048AE 30542  2 2092.                  SEG   ', DEVTYPE('        Throw in device type too
 00476A 4100 000A            0000A 30546  2          +
 00476E 41F0 BB1C            00B1C 30554  2          +
1VMNT     (VMNT21) (09:48) (22MAR04) IHAPSAE  - PSA Extension (ESAME)                                                       Page  122
0Current Usings:  (FILELIST,R2) (*,R7) (VMNT,R11) (ATTREC,R12)
0Loc    Object Code    Addr1 Addr2  Stmt Lv Lineno    Source Statement           (Hibal 5, Asmedit 3.3)  HLASM R4.0  2004/03/22 09.48
+___    ______ ____    _____ _____  ____ __ ______    ______ _________
0004772 58E0 71B0/0DEE       04860 30557  2          +
 004778 5810 2014            00014 30559  2 2093.                  SEGHX L:FILE_DVT,8        Convert device type into message
 00477C 4100 0008            00008 30570  2          +
 004780 41F0 BB1C            00B1C 30578  2          +
 004784 58E0 71B4/0DEE       04864 30581  2          +
 00478A 4110 7258            04908 30583  2 2094.                  SEG   '), UCB('           Add address of unit control block
 00478E 4100 0007            00007 30587  2          +
 004792 41F0 BB1C            00B1C 30595  2          +
 004796 58E0 71B0/0DEE       04860 30598  2          +
 00479C 4110 2045            00045 30600  2 2095.                  LA    R1,FILEVOL          Address of returned volume serial
 0047A0 58E0 71DC/0DEE       0488C 30601  2 2096.                  XCALL RETVOLU             Retreive unit control block addr
 0047A6 4770 7110            047C0 30605  2 2097.                  IF    Z,BEGIN             Good, it's online!
 0047AA 5010 200C            0000C 30616  3 2098.                    ST    R1,FILE_UCB         Save ucb address
 0047AE 5810 200C            0000C 30617  3 2099.                    SEGHX L:FILE_UCB,8        Convert ucb address into message
 0047B2 4100 0008            00008 30628  3          +
 0047B6 41F0 BB1C            00B1C 30636  3          +
 0047BA 58E0 71B4/0DEE       04864 30639  3          +
 0047C0 7114           047C0 047A8 30641  2 2100.                  END   ELSE,BEGIN
 0047C0 47F0 7126            047D6 30650  2          +
 0047C4 4110 725F            0490F 30656  3 2101.                    SEG   'Unknown'
 0047C8 4100 0007            00007 30660  3          +
 0047CC 41F0 BB1C            00B1C 30668  3          +
 0047D0 58E0 71B0/0DEE       04860 30671  3          +
 0047D6                            30673  2 2102.                  END   ,
 0047D6 4110 7219            048C9 30677  2 2103.                  SEG   ')'                 Terminate message
 0047DA 4100 0001            00001 30681  2          +
 0047DE 41F0 BB1C            00B1C 30689  2          +
 0047E2 58E0 71B0/0DEE       04860 30692  2          +
 0047E8                            30694  1 2104.                END   ,
 0047E8 1B00/41F0 BB1C       00B1C 30698  1 2105.                SEGWR ,                   Write to report file
 0047EE 58E0 71D4/0DEE       04884 30720  1          +
 0047F4 4110 B9EC            009EC 30722  1 2106.                LA    R1,VSIOPRML         Address of vsio_go parameter list
 USING  VSIOPRM,R1                 30723  1 2107.                WITH  (VSIOPRM,R1),BEGIN  Addressability to parameter list
 USING  UCBOB,R15                  30737  2 2108.                  WITH  (UCBOB,R15)         Addressability to unit control block
 0047F8 58F0 200C            0000C 30750  2 2109.                  L     R15,FILE_UCB        Address of unit control block
 0047FC 50F0 1010            00010 30751  2 2110.                  ST    R15,VSIOUCBA        Save address of Unit Control Block
 004800 4800 F004            00064 30752  2 2111.                  LH    R0,UCBCHAN          Load binary device number (cuu)
 004804 5000 100C            0000C 30753  2 2112.                  ST    R0,VSIODEVA         Save binary device number
 004808 4100 0004            00004 30754  2 2113.                  LA    R0,VSIO_RDC         Return device characteristics
 00480C 5000 1008            00008 30755  2 2114.                  ST    R0,VSIOFUNC         Set function vector code
 004810 184D/41D0 D040       00040 30756  2 2115.                  VPUSH ,,64,PTR=R4         Obtain stack space
 004816 5040 1018            00018 30759  2 2116.                  ST    R4,VSIOBUFR         Save address of receive buffer
 00481A D203 1014 71E0 00014 04890 30760  2 2117.                  MVC   VSIOBUFL,=A(64)     And set buffer length
 DROP   UCBOB,R15                  30761  1 2118.                END   ,
 DROP   VSIOPRM,R1
 004820 58E0 71E4/0DEE       04894 30774  1 2119.                XCALL VSIO_GO             Access status of BCV device
 004826 18D4                       30778  1 2120.                VPOP  PTR=R4              Return stack space
 004828 5820 2004            00004 30780  1 2121.                L     R2,FILENXT          Chain forward
 00482C 47F0 7008            046B8 30781    2122.              END   ,                   Back for next entry
 DROP   FILELIST,R2
 004830 18D8/980C D004       00004 30791    2123.              PEND  ,                   Restore registers and return
 DROP   *,R7
 004836 58E0 D000/12FF       00000 30807             +
 00483C 07FE                       30810             +
1VMNT     (VMNT21) (09:48) (22MAR04) IHAPSAE  - PSA Extension (ESAME)                                                       Page  123
0Current Usings:  (VMNT,R11) (ATTREC,R12)
0Loc    Object Code    Addr1 Addr2  Stmt Lv Lineno    Source Statement           (Hibal 5, Asmedit 3.3)  HLASM R4.0  2004/03/22 09.48
+___    ______ ____    _____ _____  ____ __ ______    ______ _________
0004840                            30811    2124.              LTORG ,                   Generate literal pool
 004840 E5D4D5E3F2F0F2C5           30813                             =C'VMNT202E - File='
 004850 E5D4D5E3F2F0F1C9           30814                             =C'VMNT201I - File='
 004860 00000000                   30815                             =V(SEG)
 004864 00000000                   30816                             =V(SEGHX)
 004868 4089A24097818999           30817                             =C' is paired with BCV device ('
 004884 00000000                   30818                             =V(SEGWR)
 004888 00000000                   30819                             =V(SEGBLANK)
 00488C 00000000                   30820                             =V(RETVOLU)
 004890 00000040                   30821                             =A(64)
 004894 00000000                   30822                             =V(VSIO_GO)
 004898 899540A388854084           30823                             =C'in the dogy-doo state.'
 0048AE 6B40C4C5E5E3E8D7           30824                             =C', DEVTYPE('
 0048B8 E5D4D5E3F2F0F0C9           30825                             =C'VMNT200I - '
 0048C3 409695404D                 30826                             =C' on ('
 0048C8 6B                         30827                             =C','
 0048C9 5D                         30828                             =C')'
 0048CA 8195844089A240             30829                             =C'and is '
 0048D1 899540A3888540C5           30830                             =C'in the ESTABLISHED state.'
 0048EA 899540A3888540C1           30831                             =C'in the AVAILABLE state.'
 004901 E59693A494857E             30832                             =C'Volume='
 004908 5D6B40E4C3C24D             30833                             =C'), UCB('
 00490F E495929596A695             30834                             =C'Unknown'
1VMNT     (VMNT21) (09:48) (22MAR04) IHAPSAE  - PSA Extension (ESAME)                                                       Page  124
0Current Usings:  (VMNT,R11) (ATTREC,R12)
0Loc    Object Code    Addr1 Addr2  Stmt Lv Lineno    Source Statement           (Hibal 5, Asmedit 3.3)  HLASM R4.0  2004/03/22 09.48
+___    ______ ____    _____ _____  ____ __ ______    ______ _________
0                                  30839    2124.02   ¿þþþþþþþþþþþþþþþþþþþþþþþþþþþþþþþþþþþþþþþþþþþþþþþþþþþþþþþþþþþþþþþþþþþþþÜ
                                   30840    2124.03   Ÿ                                                                     Ÿ
                                   30841    2124.04   Ÿ  VMNT report file SEG routine                                       Ÿ
                                   30842    2124.05   Ÿ                                                                     Ÿ
                                                      ¾þþþþþþþþþþþþþþþþþþþþþþþþþþþþþþþþþþþþþþþþþþþþþþþþþþþþþþþþþþþþþþþþþþþþþ»
-0049AC 50E0 D000            00000 30844    2124.07   VMNTSEG  PROC  ,                   Enter and save calling registers
 0049B0 900C D004/188D       00004 30857             +
 0049B6 41D0 D038/0D70       00038 30859             +
 0049BC 186F                       30882    2124.08            LR    R6,R15              Move address of segcb
 USING  *,R7
 0049BE 1850                       30883    2124.09            LR    R5,R0               Copy length of seg data
 USING  SEGCB,R6                   30884    2124.1             WITH  (SEGCB,R6)          Addressability to segcb
 0049C0 9502 6000      00000       30897    2124.11            IF    (SEGCBWR,OR,SEGCBCR,OR,SEGCBOVF),BEGIN  segwr...
 0049C4 4780 701C            049D8 30911             +
 0049C8 9506 6000      00000       30920             +
 0049CC 4780 701C            049D8 30923             +
 0049D0 9505 6000      00000       30932             +
 0049D4 4770 7040            049FC 30933             +
 0049D8 4100 5005            00005 30938  1 2124.12              LA    R0,@R5+5            Adjust for vb record length
 0049DC 4000 BA54            00A54 30939  1 2124.13              STH   R0,PRMHDR           Update record descriptor word
 0049E0 4110 BDA4            00DA4 30940  1 2124.14              PUT   VMNTPRT,PRMHDR      Write out command statement
 0049E4 4100 BA54/1FFF       00A54 30943  1          +
 0049EA BFF7 1031/05EF       00031 30945  1          +
 0049F0 9240 BA59      00A59       30947  1 2124.15              MVI   PRMDATA,C' '        Blank fill written card
 0049F4 D282 BA5A BA59 00A5A 00A59 30948  1 2124.16              MVC   PRMDATA+1(L'PRMDATA-1),PRMDATA
 0049FA 1305                       30949  1 2124.17              LCR   R0,R5               For overflow: nbytes processed
 0049FC                            30950    2124.18            END   ,
                                   30954    2124.19            ¿þþþþþþþþþþþþþþþþþþþþþþþþþþþþþþþþþþþþþþþþþþþÜ
                                   30955    2124.2             Ÿ  Post processing (set return code only).  Ÿ
                                   30956    2124.21            ¾þþþþþþþþþþþþþþþþþþþþþþþþþþþþþþþþþþþþþþþþþþþ»
 0049FC 9504 6000      00000       30957    2124.22            IF    SEGCBSPP,BEGIN      Post processing...
 004A00 4770 704A            04A06 30967             +
 004A04 1B00                       30972  1 2124.23              CLEAR R0                  Assume a-ok
 004A06                            30976    2124.24            END   ,
 004A06 18D8/980C D004       00004 30980    2124.25            PEND  ,                   Restore registers and return
 DROP   SEGCB,R6
 DROP   *,R7
 004A0C 58E0 D000/12FF       00000 31001             +
 004A12 07FE                       31004             +
1VMNT     (VMNT21) (09:48) (22MAR04) IHAPSAE  - PSA Extension (ESAME)                                                       Page  125
0Current Usings:  (VMNT,R11) (ATTREC,R12)
0Loc    Object Code    Addr1 Addr2  Stmt Lv Lineno    Source Statement           (Hibal 5, Asmedit 3.3)  HLASM R4.0  2004/03/22 09.48
+___    ______ ____    _____ _____  ____ __ ______    ______ _________
0                                  31006    2124.27   ¿þþþþþþþþþþþþþþþþþþþþþþþþþþþþþþþþþþþþþþþþþþþþþþþþþþþþþþþþþþþþþþþþþþþþþÜ
                                   31007    2124.28   Ÿ                                                                     Ÿ
                                   31008    2124.29   Ÿ  Ship line in passed SEGCB buffer to the console                    Ÿ
                                   31009    2124.3    Ÿ                                                                     Ÿ
                                   31010    2124.31   Ÿ    Entry:    R0 -                                                   Ÿ
                                   31011    2124.32   Ÿ              R1 - Descriptor code                                   Ÿ
                                   31012    2124.33   Ÿ             R15 - Passed SEGCB pointer                              Ÿ
                                   31013    2124.34   Ÿ                                                                     Ÿ
                                                      ¾þþþþþþþþþþþþþþþþþþþþþþþþþþþþþþþþþþþþþþþþþþþþþþþþþþþþþþþþþþþþþþþþþþþþþ»
-000000                00000 0006A 31015    2124.36   SWTO_WRK RECORD BEGIN              WTO parameter list buildup
 000000 E6E3D66D                   31023  1 2124.37   SWTO_ID    DC    CL4'WTO_'           Set eye catcher for stack
 000004 0000                       31024  1 2124.38   SWTO_LEN   DC    AL2(0)              Message length (less rout,desc)
 000006 0000                       31025  1 2124.39   SWTO_MCS   DC    AL2(0)              MCS flags
 000008 4040404040404040           31026  1 2124.4    SWTO_TXT   DC    CL98' '             Room for parameter message
 00006A                0006A 0006A 31027    2124.41            END   ,
0004A14 50E0 D000            00000 31037    2124.43   SENDWTO  PROC  SWTO_WRK            Enter and obtain stack space
 004A18 900C D004/188D       00004 31051             +
 004A1E 41D0 D0A4/0D70       000A4 31054             +
 004A24 186F                       31086    2124.44            LR    R6,R15              Copy address of requested segcb
 USING  *,R7
 USING  SWTO_WRK-(4+52),R8
 USING  SEGCB,R6                   31087    2124.45            WITH  (SEGCB,R6)          Addressability to segcb
 004A26                            31100    2124.46            CLEAR SWTO_WRK            Clear stack work area to zeros
 004A26 D769 8038 8038 00000 00000 31106             +
 004A2C D203 8038 707C 00000 04AA0 31107    2124.47            MVC   SWTO_ID,=CL4'WTO_'  Set eye-catcher in stack area
 004A32 5840 6020            00020 31108    2124.48            L     R4,SEGCBLOC         Load address of text string
 004A36 5820 600C            0000C 31109    2124.49            L     R2,SEGCBLENF        Obtain current length of text
 004A3A 4130 2004            00004 31110    2124.5             LA    R3,@R2+4            Adjust for length, mcs, and text
 004A3E 4030 803C            00004 31111    2124.51            STH   R3,SWTO_LEN         Set length of svc 34 list
 004A42 D201 803E 708C 00006 04AB0 31112    2124.52            MVC   SWTO_MCS,=XL2'8000' Set default mcs flags
 004A48 0620/4420 708E       04AB2 31113    2124.53            DEX   R2,'MVC SWTO_TXT(*-*),@R4'
 004AB2 D200 8040 4000 00008 00000 31124             +
 004A4E 4153 803C            00004 31132    2124.54            LA    R5,SWTO_LEN(R3)     Point to descriptor, routing
 004A52 D203 5000 7080 00000 04AA4 31133    2124.55            MVC   @R5(4),=X'04004000' Set default DESC=6, ROUT=2
 004A58 1220                       31134    2124.56            LTR   R2,R0               Test for passed descriptor
 004A5A 47D0 7046            04A6A 31135    2124.57            IF    P,BEGIN             We have a specific descriptor
 004A5E 5830 7084            04AA8 31146  1 2124.58              L     R3,=A(X'10000')     Load descriptor mask
 004A62 8830 2000            00000 31147  1 2124.59              SRL   R3,@R2              Move descriptor bit over
 004A66 4030 5000            00000 31148  1 2124.6               STH   R3,@R5+0            Save descriptor in list
 004A6A                            31149    2124.61            END   ,
 004A6A 1221                       31153    2124.62            LTR   R2,R1               Test for passed ROUTING
 004A6C 47D0 7058            04A7C 31154    2124.63            IF    P,BEGIN             We have a specific routecde
 004A70 5830 7084            04AA8 31165  1 2124.64              L     R3,=A(X'10000')     Load routing mask
 004A74 8830 2000            00000 31166  1 2124.65              SRL   R3,@R2              Move routing bit into position
 004A78 4030 5002            00002 31167  1 2124.66              STH   R3,@R5+2            Save routing bit in list
 004A7C                            31168    2124.67            END   ,
 004A7C 4110 803C            00004 31172    2124.68            LA    R1,SWTO_LEN         Address of SVC 35 parameters
 004A80 0A23                       31173    2124.69            SVC   35                  Issue write to operator
 004A82 1821                       31174    2124.7             LR    R2,R1               Save message identitifer
 004A84 18F6                       31175    2124.71            LR    R15,R6              Move address of requested SEGCB
 004A86 58E0 7088/0DEE       04AAC 31176    2124.72            XCALL SEGCLR              Clear passed segcb
1VMNT     (VMNT21) (09:48) (22MAR04) IHAPSAE  - PSA Extension (ESAME)                                                       Page  126
0Current Usings:  (SEGCB,R6) (*,R7) (SWTO_WRK-(4+52),R8) (VMNT,R11) (ATTREC,R12)
0Loc    Object Code    Addr1 Addr2  Stmt Lv Lineno    Source Statement           (Hibal 5, Asmedit 3.3)  HLASM R4.0  2004/03/22 09.48
+___    ______ ____    _____ _____  ____ __ ______    ______ _________
0004A8C 18F2                       31180    2124.73            LR    R15,R2              Reset message identifier
 004A8E 18D8/980C D004       00004 31181    2124.74            PEND  ,                   Restore registers and return
 DROP   SEGCB,R6
 DROP   SWTO_WRK-(4+52),R8
 DROP   *,R7
 004A94 58E0 D000/12FF       00000 31207             +
 004A9A 07FE                       31210             +
 004AA0                            31211    2124.75            LTORG ,                   Define literal pool
 004AA0 E6E3D66D                   31213                             =CL4'WTO_'
 004AA4 04004000                   31214                             =X'04004000'
 004AA8 00010000                   31215                             =A(X'10000')
 004AAC 00000000                   31216                             =V(SEGCLR)
 004AB0 8000           04AB8 06F60 31217                             =XL2'8000'
1VMNT     (VMNT21) (09:48) (22MAR04) VMNT - File Maintenance Driver - Welcome processing.                                   Page  127
0Current Usings:  (VMNT,R11) (ATTREC,R12)
0Loc    Object Code    Addr1 Addr2  Stmt Lv Lineno    Source Statement           (Hibal 5, Asmedit 3.3)  HLASM R4.0  2004/03/22 09.48
+___    ______ ____    _____ _____  ____ __ ______    ______ _________
0                                  31222    2126.     ¿þþþþþþþþþþþþþþþþþþþþþþþþþþþþþþþþþþþþþþþþþþþþþþþþþþþþþþþþþþþþþþþþþþþþþÜ
                                   31223    2127.     Ÿ                                                                     Ÿ
                                   31224    2128.     Ÿ  Initial welcoming messages and setup                               Ÿ
                                   31225    2129.     Ÿ                                                                     Ÿ
                                   31226    2130.     Ÿ    Allocate VMNTPRT, SYSPRINT and SYSKAPUT output file if not       Ÿ
                                   31227    2131.     Ÿ    specified.                                                       Ÿ
                                   31228    2132.     Ÿ                                                                     Ÿ
                                                      ¾þþþþþþþþþþþþþþþþþþþþþþþþþþþþþþþþþþþþþþþþþþþþþþþþþþþþþþþþþþþþþþþþþþþþþ»
-0057FD                057FD 06F60 31230    2134.              DATA  BEGIN               Define data section
 0057FD 00                                1
 0057FE 0000                       31235  1 2135.     EXECSLEN   DC    H'0'                Length of passed parameter
 005800 4040404040404040           31236  1 2136.     EXECSTR    DC    CL100' '            String buildup for utilities
 005864 0000586C                   31237  1 2137.     STXTS      DC    A(SDD)              Address of ddname unit
 005868 80000CC4                   31238  1 2138.                DC    X'80',AL3(SOUT)     Address of sysout=$ unit
 00586C 0001000100084040           31239  1 2139.     SDD        DC    AL2(DALDDNAM,1,8),CL8' '
0                                  31241  1 2141.                ¿þþþþþþþþþþþþþþþþþþþþþþþþþþþþþþþþþþþþþþþþþþþþþþþÜ
                                   31242  1 2142.                Ÿ  EXEC statement keyword routing table tokens  Ÿ
                                   31243  1 2143.                ¾þþþþþþþþþþþþþþþþþþþþþþþþþþþþþþþþþþþþþþþþþþþþþþþ»
 00587A                            31244  1 2144.     KWRT       SCKW  FSNAME,SETFS,(A,P)
 00587A 8D0053C2C6E2D5C1           31245  1          +
 005884                            31246  1 2144.1               SCKW  NOENQ,SETNOENQ,A        Bypass ENQ/DEQ for Filesys name
 005884 0C0053F8D5D6C5D5           31247  1          +
 00588D                            31248  1 2145.                SCKW  BCV,SETBCV              Set for BCV mode processing
 00588D 02005480C2C3E5             31249  1          +
 005894                            31250  1 2145.1               SCKW  LVSPLIT,SETLVSP         Leave BCV volumes split
 005894 060054C8D3E5E2D7           31251  1          +
 00589F                            31252  1 2145.2               SCKW  LVEST,SETLVEST          Leave BCV volume established
 00589F 040054EED3E5C5E2           31253  1          +
 0058A8                            31254  1 2145.3               SCKW  LVWAIT,SETLVWT          "Wait" for BCV ending status
 0058A8 050054A6D3E5E6C1           31255  1          +
 0058B2                            31256  1 2146.                SCKW  EMCLOG,SETEMCL          Print EMC processing logs
 0058B2 0500545EC5D4C3D3           31257  1          +
 0058BC                            31258  1 2146.1               SCKW  SMFLOG,SETSMFL,A        Log status to SMF Type 179
 0058BC 0D00541AE2D4C6D3           31259  1          +
 0058C6                            31260  1 2146.2               SCKW  NOSMFLOG,CLRSMFL,A      Clear SMF log option
 0058C6 0F00543CD5D6E2D4           31261  1          +
00058D2                            31263  1 2148.                SCKW  ORVNAME,SETORV,(A,P)    Orvyl job name
 0058D2 8E005380D6D9E5D5           31264  1          +
 0058DD                            31265  1 2149.                SCKW  TESTSYS,SETTES,(A,P)    Test Orvyl job processing
 0058DD 8E00533AE3C5E2E3           31266  1          +
00058E8                            31268  1 2151.                SCKW  DUMP,SETDUMP            Full file system dump
 0058E8 0300513CC4E4D4D7           31269  1          +
 0058F0                            31270  1 2152.                SCKW  VERIFY,SETVRFY,A        Verify file system only
 0058F0 0D00515EE5C5D9C9           31271  1          +
 0058FA                            31272  1 2152.1               SCKW  SPLIT,SETSPLIT,A        Split copy of file system
 0058FA 0C0051D8E2D7D3C9           31273  1          +
 005903                            31274  1 2152.11              SCKW  ESTABLISH,SETESTAB,A    Establish copy of file system
 005903 0F00520EC5E2E3C1           31275  1          +
 00590F                            31276  1 2152.2               SCKW  BCVDUMP,SETBCVD         Dump from split BCV volumes
1VMNT     (VMNT21) (09:48) (22MAR04) VMNT - File Maintenance Driver - Welcome processing.                                   Page  128
0Current Usings:  (VMNT,R11) (ATTREC,R12)
0Loc    Object Code    Addr1 Addr2  Stmt Lv Lineno    Source Statement           (Hibal 5, Asmedit 3.3)  HLASM R4.0  2004/03/22 09.48
+___    ______ ____    _____ _____  ____ __ ______    ______ _________
000590F 06005184C2C3E5C4           31277  1          +
 00591A                            31278  1 2152.3               SCKW  BCVINC,SETBCVI          Incremental dump from BCV
 00591A 050051AEC2C3E5C9           31279  1          +
 005924                            31280  1 2153.                SCKW  VRFY,SETVRFY            Verify file system only
 005924 0300515EE5D9C6E8           31281  1          +
 00592C                            31282  1 2154.                SCKW  INCTAPE,SETTINC,A       Incremental dump, IXRS to tape
 00592C 0E00526AC9D5C3E3           31283  1          +
 005937                            31284  1 2155.                SCKW  INCDISK,SETDINC,A       Incremental dump, XIRS to disk
 005937 0E005244C9D5C3C4           31285  1          +
0005942                            31287  1 2157.                SCKW  NOIXR,SETNIXR,A         Bypass IXR dump
 005942 0C005318D5D6C9E7           31288  1          +
 00594B                            31289  1 2158.                SCKW  NOOFF,SETNOFF,A         Bypass "offload" phase
 00594B 0C005290D5D6D6C6           31290  1          +
 005954                            31291  1 2159.                SCKW  OFFLOAD,CLRNOFF,A       Schedule "offload" of inc data
 005954 0E0052B2D6C6C6D3           31292  1          +
 00595F                            31293  1 2160.                SCKW  ENABLE,SETENAB,A        Enable file system(s)
 00595F 0D0052D4C5D5C1C2           31294  1          +
 005969                            31295  1 2161.                SCKW  DISABLE,SETDISAB,A      Leave file system(s) in R/O mode
 005969 0E0052F6C4C9E2C1           31296  1          +
 005974 FF0050BC                   31297  1 2162.                SCKW  ,PARMERR                Abort on unknown parameter
-004AB8                04AB8 06F60 31300    2164.              END   ,
1VMNT     (VMNT21) (09:48) (22MAR04) VMNT - File Maintenance Driver - Welcome processing.                                   Page  129
0Current Usings:  (VMNT,R11) (ATTREC,R12)
0Loc    Object Code    Addr1 Addr2  Stmt Lv Lineno    Source Statement           (Hibal 5, Asmedit 3.3)  HLASM R4.0  2004/03/22 09.48
+___    ______ ____    _____ _____  ____ __ ______    ______ _________
0                                  31307    2164.1    ¿þþþþþþþþþþþþþþþþþþþþþþþþþþþþþþþþþþþþþþþþþþþþþþþþþþþþþþþþþþþþþþþþþþþþþÜ
                                   31308    2164.2    Ÿ                                                                     Ÿ
                                   31309    2164.3    Ÿ  Main code segment for welcoming processing and system              Ÿ
                                   31310    2164.4    Ÿ  initialization.                                                    Ÿ
                                   31311    2164.5    Ÿ                                                                     Ÿ
                                                      ¾þþþþþþþþþþþþþþþþþþþþþþþþþþþþþþþþþþþþþþþþþþþþþþþþþþþþþþþþþþþþþþþþþþþþþ»
-004AB8 50E0 D000            00000 31313    2166.     WELCOME  PROC  ,                   Enter and save calling registers
 004ABC 900C D004/188D       00004 31326             +
 004AC2 41D0 D038/0D70       00038 31328             +
                                                               ¿þþþþþþþþþþþþþþþþþþþþþþþþþþþþþþþþþþþþþþþþþþþþþþþþþþþþþþþÜ
                                   31351    2167.              Ÿ  Allocate VMNTPRT report file if not already present  Ÿ
                                                               ¾þþþþþþþþþþþþþþþþþþþþþþþþþþþþþþþþþþþþþþþþþþþþþþþþþþþþþþþ»
 004AC8 4110 7AE0            055A8 31352    2168.              LA    R1,=CL8'VMNTPRT'    Look for VMNT report file DDNAME
 USING  *,R7
 004ACC D207 7DAA 1000 05872 00000 31353    2169.              MVC   SDD+6(8),@R1        Set requested ddname in SVC99
 004AD2 4DE0 B4CE            004CE 31354    2170.              LCALL FINDDD              Is one out there?
 004AD6 4780 702E            04AF6 31356    2171.              IF    NZ,BEGIN            Nope -- let's make a report file
 004ADA 4110 7D9C            05864 31367  1 2172.                LA    R1,STXTS            Address of sysout allocate list
 004ADE 5010 BB64            00B64 31368  1 2173.                ST    R1,SDYNTPTR         Set text unit pointer
 004AE2 4110 BB58            00B58 31369  1 2174.                LA    R1,SDYNBLK          Address of svc99 parameter list
 004AE6 0A63                       31370  1 2175.                DYNALLOC ,                Request allocation of report file
 004AE8 12FF/4780 702E       04AF6 31373  1 2176.                IF    (R15,NZ),BEGIN      Insure a valid allocation took place
 004AEE 9214 B867      00867       31387  2 2177.                  MVI   RETCDE+3,RET_INT    Indicate internal error
 004AF2 47F0 B3AA            003AA 31388  2 2178.                  B     EXIT3               And just terminate dismally
 004AF6                            31389  1 2179.                END   ,
 004AF6                            31393    2180.              END   ,
 004AF6 0700/4510 7038       04B00 31397    2181.              OPEN  (VMNTPRT,(OUTPUT))  Open VMNT report file
 004AFC 8F/000DA4/0A13             31400             +
 004B02 4120 BDA4            00DA4 31403    2182.              LA    R2,VMNTPRT          Load address of report dcb
 USING  IHADCB,R2                  31404    2183.              WITH  (IHADCB,R2),BEGIN   Addressability to dcb
 004B06 9214 B867      00867       31418  1 2184.                MVI   RETCDE+3,RET_INT    Indicate internal error
 004B0A 9110 2030      00030       31419  1 2185.                IF    ~DCBOFLGS.DCBOFOPN,EXIT2      Abort if bad open
 004B0E 47E0 B3A4            003A4 31432  1          +
 DROP   IHADCB,R2                  31438    2186.              END   ,
 004B12                            31446    2187.              CLEAR RETCDE              Zero return code
 004B12 D703 B864 B864 00864 00864 31452             +
 004B18 4110 BA59            00A59 31453    2188.              SEGINIT PRMDATA,L'PRMDATA,PRTSEG,RTN=VMNTSEG
 004B1C 4100 0084            00084 31469             +
 004B20 41F0 BB1C            00B1C 31477             +
 004B24 58E0 7B08/0DEE       055D0 31480             +
 004B2A 5800 7B0C/1B11       055D4 31482             +
 004B30 41F0 BB1C            00B1C 31494             +
 004B34 58E0 7B10/0DEE       055D8 31497             +
                                   31499    2189.              SEGDEF PRTSEG             Set for VMNT report printing
 004B3A 4110 7C82            0574A 31500    2190.              SEG   'VMNT001I - ORVYL File Maintenance Driver.'
 004B3E 4100 0029            00029 31504             +
 004B42 41F0 BB1C            00B1C 31512             +
 004B46 58E0 7B14/0DEE       055DC 31515             +
 004B4C 1B00/41F0 BB1C       00B1C 31517    2191.              SEGWR ,                   Write to report file
 004B52 58E0 7B18/0DEE       055E0 31539             +
 004B58 4100 000B            0000B 31541    2192.              SEGBLANK 11               Tab over for version
 004B5C 41F0 BB1C            00B1C 31556             +
1VMNT     (VMNT21) (09:48) (22MAR04) VMNT - File Maintenance Driver - Welcome processing.                                   Page  130
0Current Usings:  (*,R7) (VMNT,R11) (ATTREC,R12)
0Loc    Object Code    Addr1 Addr2  Stmt Lv Lineno    Source Statement           (Hibal 5, Asmedit 3.3)  HLASM R4.0  2004/03/22 09.48
+___    ______ ____    _____ _____  ____ __ ______    ______ _________
0004B60 58E0 7B1C/0DEE       055E4 31559             +
 004B66 4110 7AE8            055B0 31561    2193.              SEG   'Version='          Set version header
 004B6A 4100 0008            00008 31565             +
 004B6E 41F0 BB1C            00B1C 31573             +
 004B72 58E0 7B14/0DEE       055DC 31576             +
 004B78 1F00/4300 B000       00000 31578    2194.              LC    R0,VMNT             Load length of version id
 004B7E 4110 B001            00001 31583    2195.              LA    R1,VMNT+1           And start of version id
 004B82 41F0 BB1C            00B1C 31584    2196.              SEG   (R1),(R0)           Add to report file
 004B86 58E0 7B14/0DEE       055DC 31605             +
 004B8C 1B00/41F0 BB1C       00B1C 31607    2197.              SEGWR ,                   Write to report file
 004B92 58E0 7B18/0DEE       055E0 31629             +
 004B98 4100 000B            0000B 31631    2198.              SEGBLANK 11               Tab over for run date
 004B9C 41F0 BB1C            00B1C 31646             +
 004BA0 58E0 7B1C/0DEE       055E4 31649             +
 004BA6 4110 7B20            055E8 31651    2199.              SEG   'Run date is '      Header text
 004BAA 4100 000C            0000C 31655             +
 004BAE 41F0 BB1C            00B1C 31663             +
 004BB2 58E0 7B14/0DEE       055DC 31666             +
 004BB8 1B00                       31668    2200.              CLEAR R0                  Zero for current time
 004BBA 1B11                       31672    2201.              CLEAR R1                  Of day return
 004BBC 41F0 B820            00820 31676    2202.              LA    R15,CLWTEMP         Address of conversion output
 004BC0 58E0 7B2C/0DEE       055F4 31677    2203.              XCALL FMTCLCK             Convert current time
 004BC6 4110 B820            00820 31681    2204.              SEG   CLWTEMP,26          Add to message
 004BCA 4100 001A            0001A 31697             +
 004BCE 41F0 BB1C            00B1C 31705             +
 004BD2 58E0 7B14/0DEE       055DC 31708             +
 004BD8 1B00/41F0 BB1C       00B1C 31710    2205.              SEGWR ,                   Write to report file
 004BDE 58E0 7B18/0DEE       055E0 31732             +
0004BE4 4110 7AF0            055B8 31735    2207.              LA    R1,=CL8'SYSPRINT'   Check for sysprint ddname
 004BE8 58E0 7B30/0DEE       055F8 31736    2208.              ACALL FINDDD              Check via tiot
 004BEE 4780 7156            04C1E 31740    2209.              IF    NZ,BEGIN            Not there, allocate one
 004BF2 D207 7DAA 7AF0 05872 055B8 31751  1 2210.                MVC   SDD+6(8),=CL8'SYSPRINT'  Set ddname to allocate
 004BF8 4110 BB58            00B58 31752  1 2211.                LA    R1,SDYNBLK          Address of SVC99 Request Block
 004BFC 0A63                       31753  1 2212.                DYNALLOC ,                Issue dynamic allocation
 004BFE 12FF/4780 7156       04C1E 31756  1 2213.                IF    (R15,NZ),BEGIN
 004C04 9214 B867      00867       31770  2 2214.                  MVI   RETCDE+3,RET_INT    Indicate internal error
 004C08 4110 7B34            055FC 31771  2 2215.                  SEGWR 'VMNT025E - Unable to allocate SYSPRINT file.'
 004C0C 4100 002C            0002C 31776  2          +
 004C10 41F0 BB1C            00B1C 31784  2          +
 004C14 58E0 7B18/0DEE       055E0 31787  2          +
 004C1A 47F0 B3A4            003A4 31789  2 2216.                  B     EXIT2               Abort processing
 004C1E                            31790  1 2217.                END   ,
 004C1E                            31794    2218.              END   ,
0004C1E 4110 7AF8            055C0 31799    2220.              LA    R1,=CL8'SYSKAPUT'   Check for syskaput
 004C22 58E0 7B30/0DEE       055F8 31800    2221.              ACALL FINDDD              Check via TIOT
 004C28 4780 7190            04C58 31804    2222.              IF    NZ,BEGIN            Not there, allocate one
 004C2C D207 7DAA 7AF8 05872 055C0 31815  1 2223.                MVC   SDD+6(8),=CL8'SYSKAPUT' Set ddname to allocate
 004C32 4110 BB58            00B58 31816  1 2224.                LA    R1,SDYNBLK          Address of parameter list
 004C36 0A63                       31817  1 2225.                DYNALLOC ,                Request allocation
 004C38 12FF/4780 7190       04C58 31820  1 2226.                IF    (R15,NZ),BEGIN      Check dynamic allocation
 004C3E 9214 B867      00867       31834  2 2227.                  MVI   RETCDE+3,RET_INT    Indicate internal error
 004C42 4110 7B60            05628 31835  2 2228.                  SEGWR 'VMNT026E - Unable to allocate SYSKAPUT file.'
1VMNT     (VMNT21) (09:48) (22MAR04) VMNT - File Maintenance Driver - Welcome processing.                                   Page  131
0Current Usings:  (*,R7) (VMNT,R11) (ATTREC,R12)
0Loc    Object Code    Addr1 Addr2  Stmt Lv Lineno    Source Statement           (Hibal 5, Asmedit 3.3)  HLASM R4.0  2004/03/22 09.48
+___    ______ ____    _____ _____  ____ __ ______    ______ _________
0004C46 4100 002C            0002C 31840  2          +
 004C4A 41F0 BB1C            00B1C 31848  2          +
 004C4E 58E0 7B18/0DEE       055E0 31851  2          +
 004C54 47F0 B3A4            003A4 31853  2 2229.                  B     EXIT2               Abort processing
 004C58                            31854  1 2230.                END   ,
 004C58                            31858    2231.              END   ,
                                   31862    2233.              ¿þþþþþþþþþþþþþþþþþþþþþþþþþþþþþþþþÜ
                                   31863    2234.              Ÿ  Obtain SMF SMCA system ID     Ÿ
                                   31864    2235.              Ÿ     i.e. SYSA, SYSB, Whatever  Ÿ
                                   31865    2236.              ¾þþþþþþþþþþþþþþþþþþþþþþþþþþþþþþþþ»
-004C58 5820 0010            00010 31867    2238.              L     R2,CVTPTR           Address of CVT
 004C5C 5820 20C4            000C4 31868    2239.              L     R2,CVTSMCA-CVT(,R2) Address of SMCA area
 USING  SMCABASE,R2                31869    2240.              WITH  (SMCABASE,R2),BEGIN Addressability to SMCA
 004C60 D203 B840 2010 00840 00010 31883  1 2241.                MVC   MACHINE,SMCASID     Move in machine name
 DROP   SMCABASE,R2                31884    2242.              END   ,
                                   31892    2243.              ¿þþþþþþþþþþþþþþþþþþþþþþþþþþþþþþþþþþþþþþþþþÜ
                                   31893    2244.              Ÿ  Prime CAMLST catalog locate work area  Ÿ
                                   31894    2245.              ¾þþþþþþþþþþþþþþþþþþþþþþþþþþþþþþþþþþþþþþþþþ»
 004C66 4100 0109            00109 31895    2246.              GETMAIN R,LV=265          Request memory for volume list
 004C6A 4510 71A6/0A0A       04C6E 31898             +
 004C70 5010 BE10            00E10 31900    2247.              ST    R1,SYNLOC+12        Save address of for vol list
0                                  31902    2249.              ¿þþþþþþþþþþþþþþþþþþþþþþþþþþþþþþþþþþþþþþþþþþþþþþþþþþþþþÜ
                                   31903    2250.              Ÿ  Save CPUID for ALPHA/BETA file system differences  Ÿ
                                   31904    2251.              ¾þþþþþþþþþþþþþþþþþþþþþþþþþþþþþþþþþþþþþþþþþþþþþþþþþþþþþ»
-004C74 5810 0208            00208 31906    2253.              L     R1,PSAPCCAV-PSA(,R0)    Virtual address of PCCA
 004C78 4110 1004            00004 31907    2254.              LA    R1,PCCACPID-PCCA(,R1)   Address of ebcdic cpu id
 004C7C F248 B820 1000 00820 00000 31908    2255.              PACK  CLWTEMP(5),@R1(9)   Pack hex digits
 004C82 D203 B818 B820 00818 00820 31909    2256.              MVC   CPUID(4),CLWTEMP      Set first four bytes of id
 004C88 F224 B820 1008 00820 00008 31910    2257.              PACK  CLWTEMP(3),@R1+8(5)     Pack second portion of id
 004C8E D201 B81C B820 0081C 00820 31911    2258.              MVC   CPUID+4(2),CLWTEMP        Set second two bytes
 004C94 D701 B81E B81E 0081E 0081E 31912    2259.              XC    CPUID+6(2),CPUID+6          Clear last two bytes
                                   31913    2260.              ¿þþþþþþþþþþþþþþþþþþþþþþþþþþþþþþþþþþþþþþþþþþþþþþþþþþþþþþþþþþþþþÜ
                                   31914    2261.              Ÿ  Initialize passed parameter SEG control block and console  Ÿ
                                   31915    2262.              Ÿ  command SEG control block                                  Ÿ
                                   31916    2263.              ¾þþþþþþþþþþþþþþþþþþþþþþþþþþþþþþþþþþþþþþþþþþþþþþþþþþþþþþþþþþþþþ»
 004C9A 5810 7B8C            05654 31917    2264.              SEGINIT L:=A(EXECSTR),L'EXECSTR,PRMSEG,RTN=PRMSEGRT
 004C9E 4100 0064            00064 31931             +
 004CA2 41F0 BAE0            00AE0 31939             +
 004CA6 58E0 7B08/0DEE       055D0 31942             +
 004CAC 5800 7B90/1B11       05658 31944             +
 004CB2 41F0 BAE0            00AE0 31956             +
 004CB6 58E0 7B10/0DEE       055D8 31959             +
                                   31961    2265.   C          SEGINIT L:=A(CONS_STR),L'CONS_STR,L:=A(CONSEGCB),
 004CBC 5810 7B94            0565C          2266.                    RTN=CONSCMD
 004CC0 4100 0064            00064 31975             +
 004CC4 58F0 7B98            05660 31981             +
 004CC8 58E0 7B08/0DEE       055D0 31984             +
 004CCE 5800 7B9C/1B11       05664 31986             +
 004CD4 58F0 7B98            05660 31996             +
1VMNT     (VMNT21) (09:48) (22MAR04) VMNT - File Maintenance Driver - Welcome processing.                                   Page  132
0Current Usings:  (*,R7) (VMNT,R11) (ATTREC,R12)
0Loc    Object Code    Addr1 Addr2  Stmt Lv Lineno    Source Statement           (Hibal 5, Asmedit 3.3)  HLASM R4.0  2004/03/22 09.48
+___    ______ ____    _____ _____  ____ __ ______    ______ _________
0004CD8 58E0 7B10/0DEE       055D8 31999             +
                                   32001    2267.              SEGDEF PRTSEG             Reset SEG latch
                                   32002    2268.              ¿þþþþþþþþþþþþþþþþþþþþþþþþþþþþþþþþþþþþþþþþþþþþþþÜ
                                   32003    2269.              Ÿ  Process passed EXEC statement parameters    Ÿ
                                   32004    2269.1             Ÿ        Set initial pre-scan system defaults  Ÿ
                                   32005    2270.              ¾þþþþþþþþþþþþþþþþþþþþþþþþþþþþþþþþþþþþþþþþþþþþþþ»
 004CDE 9608 B8D3      008D3       32006    2270.1             SET   FL_Warn             Default Day block warning to YES
 004CE2 9602 B8D3      008D3       32012    2270.2             SET   FL_SMFlog           Default SMF logging option
 004CE6 94DF B8D1      008D1       32018    2270.3             CLEAR FL_LVSPLT           Default BCV volume status
 004CEA 9610 B8D1      008D1       32025    2270.4             SET   FL_LVEST            Default BCV status to "established"
 004CEE 5820 B770            00770 32031    2271.              L     R2,EXECPTR          Retrieve EXEC field pointer
 004CF2 5820 2000            00000 32032    2272.              L     R2,@R2              Get exec parms
 004CF6 4830 2000            00000 32033    2273.              LH    R3,@R2              Parameter length
 004CFA 4120 2002            00002 32034    2274.              LA    R2,@R2+2            Bump to start of parm
 004CFE 1222/4780 72A4       04D6C 32035    2275.              IF    (R2,NZ),BEGIN       Scan exec statement parameters
 004D04 4100 000B            0000B 32049  1 2276.                SEGBLANK 11               Tab over for spacing
 004D08 41F0 BB1C            00B1C 32064  1          +
 004D0C 58E0 7B1C/0DEE       055E4 32067  1          +
 004D12 4110 7BE4            056AC 32069  1 2277.                SEG   'Parm="'            Report EXEC parameter
 004D16 4100 0006            00006 32073  1          +
 004D1A 41F0 BB1C            00B1C 32081  1          +
 004D1E 58E0 7B14/0DEE       055DC 32084  1          +
 004D24 1812/1803                  32086  1 2278.                SEG   (R2),(R3)           Add parameter string
 004D28 41F0 BB1C            00B1C 32106  1          +
 004D2C 58E0 7B14/0DEE       055DC 32109  1          +
 004D32 4110 7CAB            05773 32111  1 2279.                SEG   '"'                 Terminate quote mark
 004D36 4100 0001            00001 32115  1          +
 004D3A 41F0 BB1C            00B1C 32123  1          +
 004D3E 58E0 7B14/0DEE       055DC 32126  1          +
 004D44 1B00/41F0 BB1C       00B1C 32128  1 2280.                SEGWR ,                   Write to report file
 004D4A 58E0 7B18/0DEE       055E0 32150  1          +
 004D50 1812/1803                  32152  1 2281.                SCINIT (R2),(R3),SCNCB    Initialize scanner
 004D54 41F0 BA14            00A14 32169  1          +
 004D58 58E0 7BA0/0DEE       05668 32172  1          +
 004D5E 4110 7DB2            0587A 32174  1 2282.                SCAN  KWRT,(R15)          Process parms
 004D62 58E0 7BA4/0DEE       0566C 32188  1          +
 004D68 4770 75F4            050BC 32190  1 2283.                IF    NZ,PARMERR          Error abort on erroneous parms
 004D6C                            32204    2284.              END   ,
-
                                   32209    2285.01            ¿þþþþþþþþþþþþþþþþþþþþþþþþþþþþþþþþþþþþþþþþþþþþþþþþþþþþþþþþþþþÜ
                                   32210    2285.02            Ÿ  Check for APF authorization, some functions of the VMNT  Ÿ
                                   32211    2285.03            Ÿ  driver will not operatte in non-APF mode.                Ÿ
                                   32212    2285.04            ¾þþþþþþþþþþþþþþþþþþþþþþþþþþþþþþþþþþþþþþþþþþþþþþþþþþþþþþþþþþþ»
 004D6C 4110 0001            00001 32213    2285.05            TESTAUTH FCTN=1,BRANCH=NO Obtain APF-authorization
 004D70 4100 0FFF            00FFF 32215             +
 004D74 8900 0014/0A77       00014 32216             +
 004D7A 12FF/4770 72BC       04D84 32218    2285.06            IF    (R15,Z),'SET FL_Auth'   Hurray -- we've got it
 004D80 9680 B8D3      008D3       32238             +
 004D84 72C0           04D84 04D7E 32243    2285.07            ELSE  BEGIN
 004D84 47F0 72E6            04DAE 32248             +
 004D88 947F B8D3      008D3       32254  1 2285.08              CLEAR FL_Auth             Poohbah -- second class
 004D8C 9204 B867      00867       32261  1 2285.09              MVI   RETCDE+3,RET_WRN    Leave a little warning behind
1VMNT     (VMNT21) (09:48) (22MAR04) VMNT - File Maintenance Driver - Welcome processing.                                   Page  133
0Current Usings:  (*,R7) (VMNT,R11) (ATTREC,R12)
0Loc    Object Code    Addr1 Addr2  Stmt Lv Lineno    Source Statement           (Hibal 5, Asmedit 3.3)  HLASM R4.0  2004/03/22 09.48
+___    ______ ____    _____ _____  ____ __ ______    ______ _________
0004D90 4110 7BEA            056B2 32262  1 2285.66              SEG   'VMNT294W - Running non-APF authorized!'
 004D94 4100 0026            00026 32266  1          +
 004D98 41F0 BB1C            00B1C 32274  1          +
 004D9C 58E0 7B14/0DEE       055DC 32277  1          +
 004DA2 1B00/41F0 BB1C       00B1C 32279  1 2285.67              SEGWR ,
 004DA8 58E0 7B18/0DEE       055E0 32301  1          +
 004DAE                            32303    2285.68            END   ,
-                                  32308    2285.7    ¿þþþþþþþþþþþþþþþþþþþþþþþþþþþþþþþþþþþþþþþþþþþþþþþþþþþþþþþþþþþþþþþþþþþþþÜ
                                   32309    2285.71   Ÿ                                                                     Ÿ
                                   32310    2285.72   Ÿ  Allocate and prime SMF record type 179 log buffer for              Ÿ
                                   32311    2285.73   Ÿ  file maintenance completion status.                                Ÿ
                                   32312    2285.74   Ÿ                                                                     Ÿ
                                                      ¾þþþþþþþþþþþþþþþþþþþþþþþþþþþþþþþþþþþþþþþþþþþþþþþþþþþþþþþþþþþþþþþþþþþþþ»
0004DAE 4100 0064            00064 32314    2285.76            LA    R0,L'SMFDATA+L'STYP#008
 004DB2 0700/47F0 72F4       04DBC 32315    2285.77            GETMAIN RC,LV=(0)         Request storage for SMF buffer
 004DB8 00/00/00/00                32319             +
 004DBC 58F0 72F0/1B11       04DB8 32324             +
 004DC2 0A78                       32326             +
 004DC4 12FF/4780 7324       04DEC 32327    2285.78            IF    (R15,NZ),BEGIN      Unable to obtain smf buffer
                                   32341  1 2285.79              SEGDEF PRTSEG             Establish vmnt report segcb
 004DCA 4110 7CAC            05774 32342  1 2285.8               SEG   'VMNT045W - Unable to obtain SMF buffer storage.'
 004DCE 4100 002F            0002F 32346  1          +
 004DD2 41F0 BB1C            00B1C 32354  1          +
 004DD6 58E0 7B14/0DEE       055DC 32357  1          +
 004DDC 1B00/41F0 BB1C       00B1C 32359  1 2285.81              SEGWR ,
 004DE2 58E0 7B18/0DEE       055E0 32381  1          +
 004DE8 9204 B867      00867       32383  1 2285.82              MVI   RETCDE+3,4          Set warning global return
 004DEC 7328           04DEC 04DC8 32384    2285.83            END   ELSE,BEGIN
 004DEC 47F0 735E            04E26 32393             +
 004DF0 5010 B774            00774 32399  1 2285.84              ST    R1,SMFBUFA          Save address of smf 179 buffer
 004DF4 1821                       32400  1 2285.85              LR    R2,R1               Copy address for basing
 USING  SMFDATA,R2                 32401  1 2285.86              WITH  (SMFDATA,R2)        Addressability to smf header
 004DF6                            32414  1 2285.87              CLEAR SMFDATA             Clear smf buffer header
 004DF6 D717 2000 2000 00000 00000 32420  1          +
 004DFC 4100 0064            00064 32421  1 2285.88              LA    R0,L'SMFDATA+L'STYP#008
 004E00 4000 2000            00000 32422  1 2285.89              STH   R0,XSMFLEN          Save length of total record
 004E04 92B3 2005      00005       32423  1 2285.9               MVI   XSMFRTY,T179SMF     Initialize record type
 004E08 D203 200E B840 0000E 00840 32424  1 2285.91              MVC   XSMFSID,MACHINE     Set SMF system id
 004E0E D203 2012 7BA8 00012 05670 32425  1 2285.92              MVC   XSMFVER,=A(T179VER#)    Set T179 version number
 004E14 4100 0001            00001 32426  1 2285.93              LA    R0,1                    Set for only one subtype
 004E18 4000 2016            00016 32427  1 2285.94              STH   R0,XSMF#SC              Set subtype count
 004E1C 4130 2018            00018 32428  1 2285.95              LA    R3,XSMF#END         Address of first subtype
 USING  STYP#008,R3                32429  1 2285.96              WITH  (STYP#008,R3)       Addressability to smf subtype
 004E20                            32442  1 2285.97              CLEAR STYP#008            Clear subtype data
 004E20 D74B 3000 3000 00000 00000 32448  1          +
 DROP   STYP#008,R3                32449    2285.98            END   ,
 DROP   SMFDATA,R2
1VMNT     (VMNT21) (09:48) (22MAR04) VMNT - File Maintenance Driver - Welcome processing.                                   Page  134
0Current Usings:  (*,R7) (VMNT,R11) (ATTREC,R12)
0Loc    Object Code    Addr1 Addr2  Stmt Lv Lineno    Source Statement           (Hibal 5, Asmedit 3.3)  HLASM R4.0  2004/03/22 09.48
+___    ______ ____    _____ _____  ____ __ ______    ______ _________
0                                  32464    2286.              ¿þþþþþþþþþþþþþþþþþþþþþþþþþþþþþþþþþþþþþþþþþþþÜ
                                   32465    2287.              Ÿ  Identify entry point of the VAM subtask  Ÿ
                                   32466    2288.              ¾þþþþþþþþþþþþþþþþþþþþþþþþþþþþþþþþþþþþþþþþþþþ»
0004E26 5820 7BAC            05674 32468    2290.              L     R2,=A(ORVCOMNM)     Address of entry point name
 004E2A 5830 7BB0            05678 32469    2291.              L     R3,=A(ORVCOM)       Address of communication routine
 004E2E 1813/1802/0A29             32470    2292.              IDENTIFY EPLOC=(R2),ENTRY=(R3)
 004E34 12FF/4780 73AA       04E72 32475    2293.              IF    (R15,NZ),BEGIN      Unable to identify orvyl commun.
 004E3A 4110 7C10            056D8 32489  1 2294.                SEG   'VMNT999E - Unable to IDENTIFY ORVYL communication '
 004E3E 4100 0032            00032 32493  1          +
 004E42 41F0 BB1C            00B1C 32501  1          +
 004E46 58E0 7B14/0DEE       055DC 32504  1          +
 004E4C 4110 7CDB            057A3 32506  1 2295.                SEG   'task.'
 004E50 4100 0005            00005 32510  1          +
 004E54 41F0 BB1C            00B1C 32518  1          +
 004E58 58E0 7B14/0DEE       055DC 32521  1          +
 004E5E 1B00/41F0 BB1C       00B1C 32523  1 2296.                SEGWR ,                   Write to report fiole.
 004E64 58E0 7B18/0DEE       055E0 32545  1          +
 004E6A 9214 B867      00867       32547  1 2297.                MVI   RETCDE+3,RET_INT    Set internal logic error
 004E6E 47F0 B3A4            003A4 32548  1 2298.                B     EXIT2               Abort processing
 004E72                            32549    2299.              END   ,
                                   32553    2300.              ¿þþþþþþþþþþþþþþþþþþþþþþþþþþþþþÜ
                                   32554    2301.              Ÿ  Initial operator messages  Ÿ
                                   32555    2302.              ¾þþþþþþþþþþþþþþþþþþþþþþþþþþþþþ»
0                                  32557    2303.2             SEGDEF PRTSEG             Establish SEGCB buffer
 004E72 58E0 7BB4/0DEE       0567C 32558    2305.              ACALL MSGSUFF             Report file system
 004E78 4110 7CE0            057A8 32562    2305.1             SEG   'Beginning file '       Set message
 004E7C 4100 000F            0000F 32566             +
 004E80 41F0 BB1C            00B1C 32574             +
 004E84 58E0 7B14/0DEE       055DC 32577             +
 004E8A 4110 7C42            0570A 32579    2306.              SEG   'system maintenance'    Set message suffix
 004E8E 4100 0012            00012 32583             +
 004E92 41F0 BB1C            00B1C 32591             +
 004E96 58E0 7B14/0DEE       055DC 32594             +
 004E9C 41F0 BB1C            00B1C 32596    2310.              SENDWTO 2,2               Issue WTO command
 004EA0 4110 0002            00002 32605             +
 004EA4 4100 0002            00002 32606             +
 004EA8 58E0 7BB8/0DEE       05680 32609             +
 004EAE 50F0 B848            00848 32611    2311.              ST    R15,DOMSTAT         Save msg-id
                                                               ¿þþþþþþþþþþþþþþþþþþþþþþþþþþþþþþþþþþþþþþþþþþþþþþþÜ
                                   32612    2312.              Ÿ  Log maintenance starting time in smf buffer  Ÿ
                                                               ¾þþþþþþþþþþþþþþþþþþþþþþþþþþþþþþþþþþþþþþþþþþþþþþþ»
 004EB2 5820 B774            00774 32613    2313.              L     R2,SMFBUFA          Address of smf buffer header
 004EB6 4120 2018            00018 32614    2313.1             LA    R2,@R2+L'SMFDATA    Start of subtype #008
 USING  STYP#008,R2                32615    2314.              WITH  (STYP#008,R2),BEGIN Adressability to subtype
 004EBA 5810 B87C            0087C 32629  1 2314.01              L     R1,FSACTIVE         Address of active system
 004EBE D207 201C 1000 0001C 00000 32630  1 2314.02              MVC   S#8FSNAM,@R1        Set into smf buffer area
 004EC4 B205 B820      00820       32631  1 2314.1               STCK  CLWTEMP             Save starting time
 004EC8 41F0 B820            00820 32632  1 2314.2               LA    R15,CLWTEMP         Address of tod clock string
 004ECC 58E0 7BBC/0DEE       05684 32633  1 2314.3               ACALL STCKCNV             Convert TOD clock
 004ED2 9001 2024            00024 32637  1 2314.4               STM   R0,R1,S#8MNTST      Save maintenance starting time
 DROP   STYP#008,R2                32638    2315.              END   ,
1VMNT     (VMNT21) (09:48) (22MAR04) VMNT - File Maintenance Driver - Welcome processing.                                   Page  135
0Current Usings:  (*,R7) (VMNT,R11) (ATTREC,R12)
0Loc    Object Code    Addr1 Addr2  Stmt Lv Lineno    Source Statement           (Hibal 5, Asmedit 3.3)  HLASM R4.0  2004/03/22 09.48
+___    ______ ____    _____ _____  ____ __ ______    ______ _________
0                                  32647    2322.     ¿þþþþþþþþþþþþþþþþþþþþþþþþþþþþþþþþþþþþþþþþþþþþþþþþþþþþþþþþþþþþþþþþþþþþþÜ
                                   32648    2323.     Ÿ                                                                     Ÿ
                                   32649    2324.     Ÿ  Establish extended STAE environment                                Ÿ
                                   32650    2325.     Ÿ                                                                     Ÿ
                                                      ¾þþþþþþþþþþþþþþþþþþþþþþþþþþþþþþþþþþþþþþþþþþþþþþþþþþþþþþþþþþþþþþþþþþþþþ»
-
                                   32652    2328.   C          ESTAE ESTROUT,CT,PARAM=(BR),XCTL=NO,PURGE=QUIESCE,
 004ED6 0700/4510 742C       04EF4          2329.                    ASYNCH=YES,TERM=YES
 004EDC 14/000000                  32659             +
 004EE0 00000000                   32661             +
 004EE4 00000000/40/01             32662             +
 004EEA 0000/00000000              32665             +
 004EF0 0000637A                   32667             +
 004EF4 5070 7418            04EE0 32668             +
 004EF8 4100 0100            00100 32669             +
 004EFC 4110 1000/0A3C       00000 32670             +
 004F02 12FF/4780 745A       04F22 32672    2331.              IF    (R15,NZ),BEGIN      Unable to establish ESTAE
 004F08 9214 B867      00867       32686  1 2332.                MVI   RETCDE+3,RET_INT    Indicate internal error
 004F0C 4110 7C54            0571C 32687  1 2333.                SEGWR 'VMNT029E - Unable to establish ESTAE recovery.'
 004F10 4100 002E            0002E 32692  1          +
 004F14 41F0 BB1C            00B1C 32700  1          +
 004F18 58E0 7B18/0DEE       055E0 32703  1          +
 004F1E 47F0 B3A4            003A4 32705  1 2334.                B     EXIT2               Abort processing.
 004F22                            32706    2335.              END   ,
1VMNT     (VMNT21) (09:48) (22MAR04) VMNT - File Maintenance Driver - Welcome processing.                                   Page  136
0Current Usings:  (*,R7) (VMNT,R11) (ATTREC,R12)
0Loc    Object Code    Addr1 Addr2  Stmt Lv Lineno    Source Statement           (Hibal 5, Asmedit 3.3)  HLASM R4.0  2004/03/22 09.48
+___    ______ ____    _____ _____  ____ __ ______    ______ _________
0                                  32711    2337.     ¿þþþþþþþþþþþþþþþþþþþþþþþþþþþþþþþþþþþþþþþþþþþþþþþþþþþþþþþþþþþþþþþþþþþþþÜ
                                   32712    2338.     Ÿ                                                                     Ÿ
                                   32713    2339.     Ÿ  Scan control file and synchronize GDG's for dump function          Ÿ
                                   32714    2340.     Ÿ                                                                     Ÿ
                                                      ¾þþþþþþþþþþþþþþþþþþþþþþþþþþþþþþþþþþþþþþþþþþþþþþþþþþþþþþþþþþþþþþþþþþþþþ»
0004F22 4110 B46A            0046A 32716    2342.              LA    R1,EODROUT          Address of control eod routine
 004F26 58E0 7BC0/0DEE       05688 32717    2343.              ACALL OPNCONT             Open control file
 004F2C 4110 BD44            00D44 32721    2344.              GET   CNTDCB,CNTCARD      Read control file card
 004F30 4100 BCC8/1FFF       00CC8 32724             +
 004F36 BFF7 1031/05EF       00031 32726             +
 004F3C 9104 B8D3      008D3       32728    2345.              WHILE ~EOF,BEGIN          Process all records
 004F40 4710 74AC            04F74 32740             +
 004F44 4110 BCC8            00CC8 32745  1 2346.                SCINIT CNTCARD,L'CNTCARD,SCNCB   Initialize scanner
 004F48 4100 0050            00050 32759  1          +
 004F4C 41F0 BA14            00A14 32766  1          +
 004F50 58E0 7BA0/0DEE       05668 32769  1          +
 004F56 5810 7BC4            0568C 32771  1 2347.                SCAN  L:=A(CNTIKWR),(R15) Process parameters
 004F5A 58E0 7BA4/0DEE       0566C 32783  1          +
 004F60 4110 BD44            00D44 32785  1 2348.                GET   CNTDCB,CNTCARD      Read next control record
 004F64 4100 BCC8/1FFF       00CC8 32788  1          +
 004F6A BFF7 1031/05EF       00031 32790  1          +
 004F70 47F0 7474            04F3C 32792    2349.              END   ,
 004F74 58E0 7BC8/0DEE       05690 32797    2350.              ACALL CLSCONT             Close control file
-                                  32802    2350.02            ¿þþþþþþþþþþþþþþþþþþþþþþþþþþþþþþþþþþþþþþþþþþÜ
                                   32803    2350.03            Ÿ  Check for prime-shift file maintenance  Ÿ
                                   32804    2350.04            ¾þþþþþþþþþþþþþþþþþþþþþþþþþþþþþþþþþþþþþþþþþþ»
 004F7A 58E0 7BCC/0DEE       05694 32805    2350.05            ACALL CHKSHFT             Check for shift error
                                   32809    2350.06            ¿þþþþþþþþþþþþþþþþþþþþþþþþþþþþþþþþþþþþþþþþþþÜ
                                   32810    2350.07            Ÿ  Message for "I" intercative class jobs  Ÿ
                                   32811    2350.08            ¾þþþþþþþþþþþþþþþþþþþþþþþþþþþþþþþþþþþþþþþþþþ»
 004F80 58E0 7BD0/0DEE       05698 32812    2350.09            ACALL CHKIJOB             Check for interactive jobs
 004F86 18D8/980C D004       00004 32816    2351.              PEND  ,                   Restore registers and return
 DROP   *,R7
 004F8C 58E0 D000/12FF       00000 32832             +
 004F92 07FE                       32835             +
1VMNT     (VMNT21) (09:48) (22MAR04) VMNT - File Maintenance Driver - Welcome processing.                                   Page  137
0Current Usings:  (VMNT,R11) (ATTREC,R12)
0Loc    Object Code    Addr1 Addr2  Stmt Lv Lineno    Source Statement           (Hibal 5, Asmedit 3.3)  HLASM R4.0  2004/03/22 09.48
+___    ______ ____    _____ _____  ____ __ ______    ______ _________
0                                  32837    2419.     ¿þþþþþþþþþþþþþþþþþþþþþþþþþþþþþþþþþþþþþþþþþþþþþþþþþþþþþþþþþþþþþþþþþþþþþÜ
                                   32838    2420.     Ÿ                                                                     Ÿ
                                   32839    2421.     Ÿ  Open control file for input processing                             Ÿ
                                   32840    2422.     Ÿ                                                                     Ÿ
                                                      ¾þþþþþþþþþþþþþþþþþþþþþþþþþþþþþþþþþþþþþþþþþþþþþþþþþþþþþþþþþþþþþþþþþþþþþ»
0004F94 50E0 D000            00000 32842    2424.     OPNCONT  PROC  ,                   Enter and save calling registers
 004F98 900C D004/188D       00004 32855             +
 004F9E 41D0 D038/0D70       00038 32857             +
 004FA4 4120 BD44            00D44 32880    2425.              LA    R2,CNTDCB           Address of control dcb
 USING  *,R7
 USING  IHADCB,R2                  32881    2426.              WITH  (IHADCB,R2),BEGIN   Addressability to control dcb
 004FA8 BE17 2021            00021 32895  1 2427.                ST3   R1,DCBEODA          Set eod routine address
 004FAC 4510 7010            04FB4 32897  1 2428.                OPEN  ((R2),(INPUT))      Open control file
 004FB0 00000000                   32900  1          +
 004FB4 5021 0000            00000 32901  1          +
 004FB8 9280 1000/0A13 00000       32902  1          +
 004FBE 9110 2030      00030       32904  1 2429.                IF    ~DCBOFLGS.DCBOFOPN,BEGIN      good open for control?
 004FC2 4710 7048            04FEC 32915  1          +
 004FC6 4110 7813            057B7 32920  2 2430.                  SEG   'VMNT203E - Unable to open control file.'
 004FCA 4100 0027            00027 32924  2          +
 004FCE 41F0 BB1C            00B1C 32932  2          +
 004FD2 58E0 7638/0DEE       055DC 32935  2          +
 004FD8 1B00/41F0 BB1C       00B1C 32937  2 2431.                  SEGWR ,
 004FDE 58E0 763C/0DEE       055E0 32959  2          +
 004FE4 9214 B867      00867       32961  2 2432.                  MVI   RETCDE+3,RET_INT    Set return code
 004FE8 47F0 B402            00402 32962  2 2433.                  B     FAIL                Go to failure routine
 004FEC                            32963  1 2434.                END   ,
 DROP   IHADCB,R2                  32967    2435.              END   ,                   Release dcb addressability
 004FEC 18D8/980C D004       00004 32975    2436.              PEND  ,
 DROP   *,R7
 004FF2 58E0 D000/12FF       00000 32991             +
 004FF8 07FE                       32994             +
-004FFA 50E0 D000            00000 32996    2438.     CLSCONT  PROC  ,                   Enter and save calling registers
 004FFE 900C D004/188D       00004 33009             +
 005004 41D0 D038/0D70       00038 33011             +
 00500A 0700/4510 700A       05014 33034    2439.              CLOSE CNTDCB              Close control file
 USING  *,R7
 005010 80/000D44/0A14             33037             +
 005016 4110 BD44            00D44 33040    2440.              FREEPOOL CNTDCB           Release buffer pool
 00501A 9101 1017      00017       33043             +
 00501E 4710 705A/1FFF       05064 33044             +
 005024 BFF7 1015            00015 33046             +
 005028 58E0 F000/12EE       00000 33047             +
 00502E 4770 7030            0503A 33049             +
 005032 9130 F004      00004       33050             +
 005036 4770 705A            05064 33051             +
 00503A 9601 1017/1BEE 00017       33052             +
 005040 1B11/BF13 F006       00006 33054             +
 005046 43E0 F005/1C0E       00005 33056             +
 00504C 4110 1008            00008 33058             +
 005050 9140 F004      00004       33059             +
1VMNT     (VMNT21) (09:48) (22MAR04) VMNT - File Maintenance Driver - Welcome processing.                                   Page  138
0Current Usings:  (*,R7) (VMNT,R11) (ATTREC,R12)
0Loc    Object Code    Addr1 Addr2  Stmt Lv Lineno    Source Statement           (Hibal 5, Asmedit 3.3)  HLASM R4.0  2004/03/22 09.48
+___    ______ ____    _____ _____  ____ __ ______    ______ _________
0005054 47E0 7052            0505C 33060             +
 005058 4110 1008/1801       00008 33061             +
 00505E 4110 F000/0A0A       00000 33063             +
 005064 18D8/980C D004       00004 33066    2441.              PEND  ,                   Restore calling registers
 DROP   *,R7
 00506A 58E0 D000/12FF       00000 33082             +
 005070 07FE                       33085             +
1VMNT     (VMNT21) (09:48) (22MAR04) VMNT - File Maintenance Driver - Welcome processing.                                   Page  139
0Current Usings:  (VMNT,R11) (ATTREC,R12)
0Loc    Object Code    Addr1 Addr2  Stmt Lv Lineno    Source Statement           (Hibal 5, Asmedit 3.3)  HLASM R4.0  2004/03/22 09.48
+___    ______ ____    _____ _____  ____ __ ______    ______ _________
0                                  33087    2443.     ¿þþþþþþþþþþþþþþþþþþþþþþþþþþþþþþþþþþþþþþþþþþþþþþþþþþþþþþþþþþþþþþþþþþþþþÜ
                                   33088    2444.     Ÿ                                                                     Ÿ
                                   33089    2445.     Ÿ  SEG processing routine to handle the parameter buildup string      Ÿ
                                   33090    2446.     Ÿ  which is passed to the various Orvyl file maintenance utility      Ÿ
                                   33091    2447.     Ÿ  programs.                                                          Ÿ
                                   33092    2448.     Ÿ                                                                     Ÿ
                                                      ¾þþþþþþþþþþþþþþþþþþþþþþþþþþþþþþþþþþþþþþþþþþþþþþþþþþþþþþþþþþþþþþþþþþþþþ»
-005072 50E0 D000            00000 33094    2450.     PRMSEGRT PROC  ,                   Enter and save caller registers
 005076 900C D004/188D       00004 33107             +
 00507C 41D0 D038/0D70       00038 33109             +
 USING  *,R7                       33132    2451.              WITH  (SEGCB,R15)         Addressability to SEGCB
 USING  SEGCB,R15
                                   33145    2452.              ¿þþþþþþþþþþþþþþþþþþþþþþþþþþþþþþÜ
                                   33146    2453.              Ÿ  SEGWR/SEGCR (or overflow).  Ÿ
                                   33147    2454.              ¾þþþþþþþþþþþþþþþþþþþþþþþþþþþþþþ»
 005082 9502 F000      00000       33148    2455.              IF    (SEGCBWR,OR,SEGCBCR,OR,SEGCBOVF),BEGIN  segwr...
 005086 4780 7018            0509A 33162             +
 00508A 9506 F000      00000       33171             +
 00508E 4780 7018            0509A 33174             +
 005092 9505 F000      00000       33183             +
 005096 4770 7022            050A4 33184             +
 00509A 5820 761A            0569C 33189  1 2456.                L     R2,=A(EXECSLEN)     Address to receive length halfword
 00509E 4000 2000            00000 33190  1 2457.                STH   R0,@R2              Plug length of exec parm string
 0050A2 1300                       33191  1 2458.                LCR   R0,R0               For overflow: nbytes processed
 0050A4                            33192    2459.              END   ,
                                   33196    2460.              ¿þþþþþþþþþþþþþþþþþþþþþþþþþþþþþþþþþþþþþþþþþþþÜ
                                   33197    2461.              Ÿ  Post processing (set return code only).  Ÿ
                                   33198    2462.              ¾þþþþþþþþþþþþþþþþþþþþþþþþþþþþþþþþþþþþþþþþþþþ»
 0050A4 9504 F000      00000       33199    2463.              IF    SEGCBSPP,BEGIN      Post processing...
 0050A8 4770 702C            050AE 33209             +
 0050AC 1B00                       33214  1 2464.                CLEAR R0                  Assume a-ok
 0050AE                            33218    2465.              END   ,
 0050AE 18D8/980C D004       00004 33222    2466.              PEND  ,                   End of SEG exit routine
 DROP   SEGCB,R15
 DROP   *,R7
 0050B4 58E0 D000/12FF       00000 33243             +
 0050BA 07FE                       33246             +
1VMNT     (VMNT21) (09:48) (22MAR04) VMNT - File Maintenance Driver - Welcome processing.                                   Page  140
0Current Usings:  (VMNT,R11) (ATTREC,R12)
0Loc    Object Code    Addr1 Addr2  Stmt Lv Lineno    Source Statement           (Hibal 5, Asmedit 3.3)  HLASM R4.0  2004/03/22 09.48
+___    ______ ____    _____ _____  ____ __ ______    ______ _________
0                                  33248    2519.     ¿þþþþþþþþþþþþþþþþþþþþþþþþþþþþþþþþþþþþþþþþþþþþþþþþþþþþþþþþþþþþþþþþþþþþþÜ
                                   33249    2520.     Ÿ                                                                     Ÿ
                                   33250    2521.     Ÿ  Scan and interpret EXEC field parameter tokens                     Ÿ
                                   33251    2522.     Ÿ                                                                     Ÿ
                                                      ¾þþþþþþþþþþþþþþþþþþþþþþþþþþþþþþþþþþþþþþþþþþþþþþþþþþþþþþþþþþþþþþþþþþþþþ»
-                                  33253    2524.              USING VMNT,R11            Common addressability
 005978                057FD 06F60 33255    2525.              DATA  BEGIN
                                   33260  1 2526.                ¿þþþþþþþþþþþþþþþþþþþþþþþþþþþþþþþþþþþþþþþþþþþþþþþþþþÜ
                                   33261  1 2527.                Ÿ  Keyword tokens scanned from the control stream  Ÿ
                                   33262  1 2528.                ¾þþþþþþþþþþþþþþþþþþþþþþþþþþþþþþþþþþþþþþþþþþþþþþþþþþ»
 005978                            33263  1 2529.     CNTIKWR    SCKW  LINKED,SYNCLINK,(A,P)         Linked file systems
 005978 8D001C1ED3C9D5D2           33264  1          +
 005982                            33265  1 2529.01              SCKW  NAME,SNAME,(A,P)              Retain NAME of file sys
 005982 8B001D4CD5C1D4C5           33266  1          +
 00598A                            33267  1 2529.1               SCKW  WARN,SWARN,(A,P)              Day Block/I jobs warning
 00598A 8B001CA6E6C1D9D5           33268  1          +
 005992                            33269  1 2530.                SCKW  VERSUCC,SVSMSG,(A,P)
 005992 8E001DB2E5C5D9E2           33270  1          +
 00599D                            33271  1 2532.                SCKW  FLVOL,SFLVOL,(A,P)
 00599D 8C001D84C6D3E5D6           33272  1          +
 0059A6                            33273  1 2532.1               SCKW  HISTORY,SHISTFL,(A,P)         Remember history file
 0059A6 8E001B62C8C9E2E3           33274  1          +
 0059B1                            33275  1 2533.                SCKW  FILE,SFILECAP,(A,P)           Capture File DSN
 0059B1 8B001B8CC6C9D3C5           33276  1          +
 0059B9                            33277  1 2534.                SCKW  VOLUME,SVOLCAP,(A,P)          Capture BCV (vol,ucb)
 0059B9 8D001BFAE5D6D3E4           33278  1          +
 0059C3                            33279  1 2535.                SCKW  DEVICE,SBCVUCB,(A,P)          Capture BCV device no
 0059C3 8D001BB0C4C5E5C9           33280  1          +
 0059CD                            33281  1 2535.1               SCKW  TAPE,STPSTEM,(A,P)            Capture Tape DSN prefix
 0059CD 8B005514E3C1D7C5           33282  1          +
 0059D5                            33283  1 2535.2               SCKW  UNIT,STPUNIT,(A,P)            Capture tape unit device
 0059D5 8B00554CE4D5C9E3           33284  1          +
 0059DD                            33285  1 2535.21              SCKW  UNITCAT,,(P)                  Swallow CATDUMP alloc
 0059DD 86000000E4D5C9E3           33286  1          +
 0059E8                            33287  1 2535.22              SCKW  UNITIX,,(P)                   Swallow IXRDUMP alloc
 0059E8 85000000E4D5C9E3           33288  1          +
 0059F2                            33289  1 2535.3               SCKW  STACKED,STSTACK,A             Indicated stacked files
 0059F2 0E005584E2E3C1C3           33290  1          +
 0059FD FF000000                   33291  1 2536.                SCKW  ,
0005A01                            33294  1 2536.02   YESOK      SCKW  YES,SETYES,A
 005A01 0A001D08E8C5E2             33295  1          +
 005A08                            33296  1 2536.03              SCKW  YEA,SETYES,A
 005A08 0A001D08E8C5C1             33297  1          +
 005A0F 09001D08D6D2               33298  1 2536.92              SCKW  OK,SETYES,A
 005A15                            33300  1 2536.93              SCKW  OKAY,SETYES,A
 005A15 0B001D08D6D2C1E8           33301  1          +
 005A1D 09001D2AD5D6               33302  1 2536.94              SCKW  NO,SETNO,A
 005A23                            33304  1 2536.95              SCKW  NAH,SETNO,A
 005A23 0A001D2AD5C1C8             33305  1          +
 005A2A                            33306  1 2536.96              SCKW  NEA,SETNO,A
 005A2A 0A001D2AD5C5C1             33307  1          +
1VMNT     (VMNT21) (09:48) (22MAR04) VMNT - File Maintenance Driver - Welcome processing.                                   Page  141
0Current Usings:  (VMNT,R11) (ATTREC,R12)
0Loc    Object Code    Addr1 Addr2  Stmt Lv Lineno    Source Statement           (Hibal 5, Asmedit 3.3)  HLASM R4.0  2004/03/22 09.48
+___    ______ ____    _____ _____  ____ __ ______    ______ _________
0005A31                            33308  1 2536.97              SCKW  NOPE,SETNO,A
 005A31 0B001D2AD5D6D7C5           33309  1          +
 005A39                            33310  1 2536.98              SCKW  NOWAY,SETNO,A
 005A39 0C001D2AD5D6E6C1           33311  1          +
 005A42 FF001D2A                   33312  1 2536.99              SCKW  ,SETNO              ASSUME A NO RESPONSE!
0005A46                            33315  1 2538.     CNTKWRT    SCKW  TAPE,SYNCTAPE,(A,P)
 005A46 8B001A58E3C1D7C5           33316  1          +
 005A4E                            33317  1 2539.                SCKW  SEGMENT,SYNCSEG,(A,P,I)
 005A4E CE001ADEE2C5C7D4           33318  1          +
 005A59 FF000000                   33319  1 2540.                SCKW  ,
 0050BC                04AB8 06F60 33321    2541.              END   ,
1VMNT     (VMNT21) (09:48) (22MAR04) VMNT - File Maintenance Driver - Welcome processing.                                   Page  142
0Current Usings:  (VMNT,R11) (ATTREC,R12)
0Loc    Object Code    Addr1 Addr2  Stmt Lv Lineno    Source Statement           (Hibal 5, Asmedit 3.3)  HLASM R4.0  2004/03/22 09.48
+___    ______ ____    _____ _____  ____ __ ______    ______ _________
0                                  33328    2543.     ¿þþþþþþþþþþþþþþþþþþþþþþþþþþþþþþþþþþþþþþþþþþþþþþþþþþþþþþþþþþþþþþþþþþþþþÜ
                                   33329    2544.     Ÿ                                                                     Ÿ
                                   33330    2545.     Ÿ  Define scanner exit processing routines for EXEC field             Ÿ
                                   33331    2546.     Ÿ  parameters.                                                        Ÿ
                                   33332    2547.     Ÿ                                                                     Ÿ
                                                      ¾þþþþþþþþþþþþþþþþþþþþþþþþþþþþþþþþþþþþþþþþþþþþþþþþþþþþþþþþþþþþþþþþþþþþþ»
-0050BC 50E0 D000            00000 33334    2549.     PARMERR  PROC  ,                   Error abort on invalid parms
 0050C0 900C D004/188D       00004 33347             +
 0050C6 41D0 D038/0D70       00038 33349             +
 0050CC 4110 7712            057DE 33372    2550.              SEG   'Parameter error for FILMAINT.' Set WTO message
 USING  *,R7
 0050D0 4100 001D            0001D 33376             +
 0050D4 41F0 BB1C            00B1C 33384             +
 0050D8 58E0 7510/0DEE       055DC 33387             +
 0050DE 4110 772F            057FB 33389    2551.              SEG   '('
 0050E2 4100 0001            00001 33393             +
 0050E6 41F0 BB1C            00B1C 33401             +
 0050EA 58E0 7510/0DEE       055DC 33404             +
 0050F0 4110 BA18            00A18 33406    2552.              SEG   SCNKW,8
 0050F4 4100 0008            00008 33422             +
 0050F8 41F0 BB1C            00B1C 33430             +
 0050FC 58E0 7510/0DEE       055DC 33433             +
 005102 4110 7730            057FC 33435    2553.              SEG   ')'
 005106 4100 0001            00001 33439             +
 00510A 41F0 BB1C            00B1C 33447             +
 00510E 58E0 7510/0DEE       055DC 33450             +
 005114 41F0 BB1C            00B1C 33452    2557.              SENDWTO ,                 Issue WTO command
 005118 4110 0002            00002 33461             +
 00511C 4100 0006            00006 33462             +
 005120 58E0 75B4/0DEE       05680 33465             +
 005126 9220 B867      00867       33467    2558.              MVI   RETCDE+3,32         Set system return code
 00512A 47F0 B3A4            003A4 33468    2559.              B     EXIT2               And exit from file maintenance
 00512E 18D8/980C D004       00004 33469    2560.              PEND  ,
 DROP   *,R7
 005134 58E0 D000/12FF       00000 33485             +
 00513A 07FE                       33488             +
000513C 50E0 D000            00000 33490    2562.     SETDUMP  PROC  ,
 005140 900C D004/188D       00004 33503             +
 005146 41D0 D038/0D70       00038 33505             +
 00514C 9680 B8D0      008D0       33528    2563.              SET   FLDUMP              Full filedump processing
 USING  *,R7
 005150 18D8/980C D004       00004 33534    2564.              PEND  ,                   Return to scanner
 DROP   *,R7
 005156 58E0 D000/12FF       00000 33550             +
 00515C 07FE                       33553             +
000515E 50E0 D000            00000 33555    2566.     SETVRFY  PROC  ,
 005162 900C D004/188D       00004 33568             +
 005168 41D0 D038/0D70       00038 33570             +
 00516E 9602 B8D0      008D0       33593    2567.              SET   FLVRFY              Verify processing only
 USING  *,R7
1VMNT     (VMNT21) (09:48) (22MAR04) VMNT - File Maintenance Driver - Welcome processing.                                   Page  143
0Current Usings:  (*,R7) (VMNT,R11) (ATTREC,R12)
0Loc    Object Code    Addr1 Addr2  Stmt Lv Lineno    Source Statement           (Hibal 5, Asmedit 3.3)  HLASM R4.0  2004/03/22 09.48
+___    ______ ____    _____ _____  ____ __ ______    ______ _________
0005172 941F B8D0      008D0       33599    2567.1             CLEAR FLDUMP*FLINC*FLOFFLOAD
 005176 18D8/980C D004       00004 33613    2568.              PEND  ,                   Return to scanner
 DROP   *,R7
 00517C 58E0 D000/12FF       00000 33629             +
 005182 07FE                       33632             +
0005184 50E0 D000            00000 33634    2569.01   SETBCVD  PROC  ,                   Dumping previously split volumes
 005188 900C D004/188D       00004 33647             +
 00518E 41D0 D038/0D70       00038 33649             +
 005194 9680 B8D0      008D0       33672    2569.02            SET   FLDUMP              Indicate full dump processing
 USING  *,R7
 005198 9604 B8D0      008D0       33678    2569.03            SET   FLBCVDUMP           and that the Split is already done
 00519C 947F B8D1      008D1       33684    2569.04            CLEAR FL_BCV              Clear Establish/Split
 0051A0 18D8/980C D004       00004 33691    2569.05            PEND  ,
 DROP   *,R7
 0051A6 58E0 D000/12FF       00000 33707             +
 0051AC 07FE                       33710             +
00051AE 50E0 D000            00000 33712    2569.07   SETBCVI  PROC  ,                   Incremental from BCV split volumes
 0051B2 900C D004/188D       00004 33725             +
 0051B8 41D0 D038/0D70       00038 33727             +
 0051BE 9640 B8D0      008D0       33750    2569.08            SET   FLINC               Indicate incremental dump
 USING  *,R7
 0051C2 9604 B8D0      008D0       33756    2569.09            SET   FLBCVDUMP           and that the Split is already done
 0051C6 947F B8D1      008D1       33762    2569.1             CLEAR FL_BCV              Clear Establish/Split
 0051CA 18D8/980C D004       00004 33769    2569.11            PEND  ,
 DROP   *,R7
 0051D0 58E0 D000/12FF       00000 33785             +
 0051D6 07FE                       33788             +
00051D8 50E0 D000            00000 33790    2569.13   SETSPLIT PROC  ,
 0051DC 900C D004/188D       00004 33803             +
 0051E2 41D0 D038/0D70       00038 33805             +
 0051E8 9610 B8D0      008D0       33828    2569.14            SET   FLSPLIT             Split off BCV image
 USING  *,R7
 0051EC 941D B8D0      008D0       33834    2569.15            CLEAR FLDUMP*FLINC*FLOFFLOAD*FLVRFY
 0051F0 94EF B8D1      008D1       33853    2569.16            CLEAR FL_LVest            Keep BCV volumes split
 0051F4 9680 B8D1      008D1       33860    2569.17            SET   FL_BCV              Insure BCV mode set
 0051F8 9604 B8D1      008D1       33866    2569.18            SET   FL_BCVwait          Insure the we WAIT for ESTABLISHMENT
 0051FC 9640 B8D1      008D1       33872    2569.19            SET   FL_EMClog           Print EMC timefinder log
 005200 18D8/980C D004       00004 33878    2569.2             PEND  ,                   Return to scanner
 DROP   *,R7
 005206 58E0 D000/12FF       00000 33894             +
 00520C 07FE                       33897             +
000520E 50E0 D000            00000 33899    2569.22   SETESTAB PROC  ,
 005212 900C D004/188D       00004 33912             +
 005218 41D0 D038/0D70       00038 33914             +
 00521E 9608 B8D0      008D0       33937    2569.23            SET   FLESTAB             Set for Establish BCV function
 USING  *,R7
 005222 941D B8D0      008D0       33943    2569.24            CLEAR FLDUMP*FLINC*FLOFFLOAD*FLVRFY
 005226 94EF B8D1      008D1       33962    2569.25            CLEAR FL_LVest            No need to RE-ESTABLISH
 00522A 9680 B8D1      008D1       33969    2569.26            SET   FL_BCV              Avoid the "split"
 00522E 9604 B8D1      008D1       33975    2569.27            SET   FL_BCVwait          Insure the we WAIT for ESTABLISHMENT
1VMNT     (VMNT21) (09:48) (22MAR04) VMNT - File Maintenance Driver - Welcome processing.                                   Page  144
0Current Usings:  (*,R7) (VMNT,R11) (ATTREC,R12)
0Loc    Object Code    Addr1 Addr2  Stmt Lv Lineno    Source Statement           (Hibal 5, Asmedit 3.3)  HLASM R4.0  2004/03/22 09.48
+___    ______ ____    _____ _____  ____ __ ______    ______ _________
0005232 9640 B8D1      008D1       33981    2569.28            SET   FL_EMClog           Print EMC timefinder log
 005236 18D8/980C D004       00004 33987    2569.29            PEND  ,                   Return to scanner
 DROP   *,R7
 00523C 58E0 D000/12FF       00000 34003             +
 005242 07FE                       34006             +
0005244 50E0 D000            00000 34008    2570.     SETDINC  PROC  ,
 005248 900C D004/188D       00004 34021             +
 00524E 41D0 D038/0D70       00038 34023             +
 005254 9680 B8D2      008D2       34046    2571.              SET   FLDINC              Set to process incremental dump
 USING  *,R7
 005258 9640 B8D0      008D0       34052    2572.              SET   FLINC               Set incremental dump
 00525C 18D8/980C D004       00004 34058    2573.              PEND  ,                   And return to the scanner
 DROP   *,R7
 005262 58E0 D000/12FF       00000 34074             +
 005268 07FE                       34077             +
000526A 50E0 D000            00000 34079    2575.     SETTINC  PROC  ,
 00526E 900C D004/188D       00004 34092             +
 005274 41D0 D038/0D70       00038 34094             +
 00527A 9640 B8D2      008D2       34117    2576.              SET   FLTINC              Set to process incremental dump
 USING  *,R7
 00527E 9640 B8D0      008D0       34123    2577.              SET   FLINC               Set incremental dump
 005282 18D8/980C D004       00004 34129    2578.              PEND  ,                   And return to the scanner
 DROP   *,R7
 005288 58E0 D000/12FF       00000 34145             +
 00528E 07FE                       34148             +
0005290 50E0 D000            00000 34150    2580.     SETNOFF  PROC  ,                   Don't offload incremental data
 005294 900C D004/188D       00004 34163             +
 00529A 41D0 D038/0D70       00038 34165             +
 0052A0 9610 B8D2      008D2       34188    2581.              SET   FLNOFF              Set bypass offload flag
 USING  *,R7
 0052A4 18D8/980C D004       00004 34194    2582.              PEND  ,                   Return to the scanner
 DROP   *,R7
 0052AA 58E0 D000/12FF       00000 34210             +
 0052B0 07FE                       34213             +
00052B2 50E0 D000            00000 34215    2584.     CLRNOFF  PROC  ,                   Offload incremental data
 0052B6 900C D004/188D       00004 34228             +
 0052BC 41D0 D038/0D70       00038 34230             +
 0052C2 94EF B8D2      008D2       34253    2585.              CLEAR FLNOFF              Clear bypass offload flag
 USING  *,R7
 0052C6 18D8/980C D004       00004 34260    2586.              PEND  ,                   Return to the scanner
 DROP   *,R7
 0052CC 58E0 D000/12FF       00000 34276             +
 0052D2 07FE                       34279             +
00052D4 50E0 D000            00000 34281    2588.     SETENAB  PROC  ,                   Enable all linked file systems
 0052D8 900C D004/188D       00004 34294             +
 0052DE 41D0 D038/0D70       00038 34296             +
 0052E4 9240 B8D4      008D4       34319    2589.              SET   (ENABLE,EQ)         Set enable flag
 USING  *,R7
 0052E8 18D8/980C D004       00004 34326    2590.              PEND  ,                   Return to the scanner
1VMNT     (VMNT21) (09:48) (22MAR04) VMNT - File Maintenance Driver - Welcome processing.                                   Page  145
0Current Usings:  (VMNT,R11) (ATTREC,R12)
0Loc    Object Code    Addr1 Addr2  Stmt Lv Lineno    Source Statement           (Hibal 5, Asmedit 3.3)  HLASM R4.0  2004/03/22 09.48
+___    ______ ____    _____ _____  ____ __ ______    ______ _________
0DROP   *,R7
 0052EE 58E0 D000/12FF       00000 34342             +
 0052F4 07FE                       34345             +
00052F6 50E0 D000            00000 34347    2592.     SETDISAB PROC  ,                   Disable all linked file systems
 0052FA 900C D004/188D       00004 34360             +
 005300 41D0 D038/0D70       00038 34362             +
 005306 9220 B8D4      008D4       34385    2593.              SET   (DISABLE,EQ)        Set disable flag
 USING  *,R7
 00530A 18D8/980C D004       00004 34392    2594.              PEND  ,                   Return to the scanner
 DROP   *,R7
 005310 58E0 D000/12FF       00000 34408             +
 005316 07FE                       34411             +
0005318 50E0 D000            00000 34413    2596.     SETNIXR  PROC  ,                   No IXRDUMP on incremental dump
 00531C 900C D004/188D       00004 34426             +
 005322 41D0 D038/0D70       00038 34428             +
 005328 9620 B8D2      008D2       34451    2597.              SET   FLNIXR              Set no IXRDUMP flag
 USING  *,R7
 00532C 18D8/980C D004       00004 34457    2598.              PEND  ,                   Return to the scanner
 DROP   *,R7
 005332 58E0 D000/12FF       00000 34473             +
 005338 07FE                       34476             +
000533A 50E0 D000            00000 34478    2600.     SETTES   PROC  ,                   Test system
 00533E 900C D004/188D       00004 34491             +
 005344 41D0 D038/0D70       00038 34493             +
 00534A 47B0 700A            05354 34516    2601.              IF    M,'ACALL PARMERR'   Parameter error
 USING  *,R7
 00534E 58E0 7356/0DEE       056A0 34530             +
 005354 4770 7016            05360 34536    2602.              IF    Z,BEGIN             Set default value
 005358 4100 0007            00007 34547  1 2603.                LA    R0,L'ALTSYS         Length
 00535C 4110 B8C9            008C9 34548  1 2604.                LA    R1,ALTSYS           And testsys name
 005360                            34549    2605.              END   ,
 005360 D207 B874 727E 00874 055C8 34553    2606.              MVC   ORVNAME,=CL8' '     Blank out
 005366 1820                       34554    2607.              LR    R2,R0               Move length
 005368 0620/4420 7714       05A5E 34555    2608.              DEX   R2,'MVC ORVNAME(0),@R1' Set TESTSYS name
 005A5D 00                                1          +
 005A5E D200 B874 1000 00874 00000 34566             +
 00536E 9620 B8D3      008D3       34574    2609.              SET   FLTSTSYS                Set test system flag
 005372 18D8/980C D004       00004 34580    2610.              PEND  ,
 DROP   *,R7
 005378 58E0 D000/12FF       00000 34596             +
 00537E 07FE                       34599             +
0005380 50E0 D000            00000 34601    2612.     SETORV   PROC  ,
 005384 900C D004/188D       00004 34614             +
 00538A 41D0 D038/0D70       00038 34616             +
 005390 47B0 700A            0539A 34639    2613.              IF    M,'ACALL PARMERR'       Parameter error
 USING  *,R7
 005394 58E0 7310/0DEE       056A0 34653             +
 00539A 4770 7016            053A6 34659    2614.              IF    Z,BEGIN                 Set default value
 00539E 4100 0007            00007 34670  1 2615.                LA    R0,L'ALTSYS             Length
 0053A2 4110 B8C9            008C9 34671  1 2616.                LA    R1,ALTSYS               And testsys name
1VMNT     (VMNT21) (09:48) (22MAR04) VMNT - File Maintenance Driver - Welcome processing.                                   Page  146
0Current Usings:  (*,R7) (VMNT,R11) (ATTREC,R12)
0Loc    Object Code    Addr1 Addr2  Stmt Lv Lineno    Source Statement           (Hibal 5, Asmedit 3.3)  HLASM R4.0  2004/03/22 09.48
+___    ______ ____    _____ _____  ____ __ ______    ______ _________
00053A6                            34672    2617.              END   ,
 0053A6 D207 B874 7238 00874 055C8 34676    2618.              MVC   ORVNAME,=CL8' '         Blank out
 0053AC 1820                       34677    2619.              LR    R2,R0                   Move length
 0053AE 0620/4420 76D4       05A64 34678    2620.              DEX   R2,'MVC ORVNAME(0),@R1'   SET TESTSYS NAME
 005A64 D200 B874 1000 00874 00000 34689             +
 0053B4 18D8/980C D004       00004 34697    2621.              PEND  ,
 DROP   *,R7
 0053BA 58E0 D000/12FF       00000 34713             +
 0053C0 07FE                       34716             +
00053C2 50E0 D000            00000 34718    2623.     SETFS    PROC  ,
 0053C6 900C D004/188D       00004 34731             +
 0053CC 41D0 D038/0D70       00038 34733             +
 0053D2 4720 700A            053DC 34756    2624.              IF    NP,'ACALL PARMERR'  Parameter error
 USING  *,R7
 0053D6 58E0 72CE/0DEE       056A0 34770             +
 0053DC 1820                       34776    2625.              LR    R2,R0                 Move length
 0053DE D207 B880 71F6 00880 055C8 34777    2626.              MVC   FSNAME,=CL8' '          Initialize name to blanks
 0053E4 0620/4420 7698       05A6A 34778    2627.              DEX   R2,'MVC FSNAME(0),@R1'    Set file system name
 005A6A D200 B880 1000 00880 00000 34789             +
 0053EA 18D8/980C D004       00004 34797    2628.              PEND  ,                           Return to the scanner
 DROP   *,R7
 0053F0 58E0 D000/12FF       00000 34813             +
 0053F6 07FE                       34816             +
00053F8 50E0 D000            00000 34818    2629.01   SETNOENQ PROC  ,
 0053FC 900C D004/188D       00004 34831             +
 005402 41D0 D038/0D70       00038 34833             +
 005408 9680 B8D5      008D5       34856    2629.02            SET   FL_NOENQ
 USING  *,R7
 00540C 18D8/980C D004       00004 34862    2629.03            PEND  ,
 DROP   *,R7
 005412 58E0 D000/12FF       00000 34878             +
 005418 07FE                       34881             +
000541A 50E0 D000            00000 34883    2629.1    SETSMFL  PROC  ,                   Enable smf logging
 00541E 900C D004/188D       00004 34896             +
 005424 41D0 D038/0D70       00038 34898             +
 00542A 9602 B8D3      008D3       34921    2629.2             SET   FL_SMFlog           Indicate that we require logging
 USING  *,R7
 00542E 18D8/980C D004       00004 34927    2629.3             PEND  ,
 DROP   *,R7
 005434 58E0 D000/12FF       00000 34943             +
 00543A 07FE                       34946             +
000543C 50E0 D000            00000 34948    2629.5    CLRSMFL  PROC  ,                   Clear smf log option
 005440 900C D004/188D       00004 34961             +
 005446 41D0 D038/0D70       00038 34963             +
 00544C 94FD B8D3      008D3       34986    2629.6             CLEAR FL_SMFlog           Clear requirement for smf log
 USING  *,R7
 005450 18D8/980C D004       00004 34993    2629.7             PEND  ,
 DROP   *,R7
 005456 58E0 D000/12FF       00000 35009             +
 00545C 07FE                       35012             +
1VMNT     (VMNT21) (09:48) (22MAR04) VMNT - File Maintenance Driver - Welcome processing.                                   Page  147
0Current Usings:  (VMNT,R11) (ATTREC,R12)
0Loc    Object Code    Addr1 Addr2  Stmt Lv Lineno    Source Statement           (Hibal 5, Asmedit 3.3)  HLASM R4.0  2004/03/22 09.48
+___    ______ ____    _____ _____  ____ __ ______    ______ _________
000545E 50E0 D000            00000 35014    2630.     SETEMCL  PROC  ,                   Set for bcv mode processing
 005462 900C D004/188D       00004 35027             +
 005468 41D0 D038/0D70       00038 35029             +
 00546E 9640 B8D1      008D1       35052    2631.              SET   FL_EMCLOG           Print all EMC sysout logs
 USING  *,R7
 005472 18D8/980C D004       00004 35058    2632.              PEND  ,                   Return to the scanner
 DROP   *,R7
 005478 58E0 D000/12FF       00000 35074             +
 00547E 07FE                       35077             +
0005480 50E0 D000            00000 35079    2634.     SETBCV   PROC  ,                   Set for bcv mode processing
 005484 900C D004/188D       00004 35092             +
 00548A 41D0 D038/0D70       00038 35094             +
 005490 9680 B8D1      008D1       35117    2635.              SET   FL_BCV              Set BCV mode flag
 USING  *,R7
 005494 9604 B8D1      008D1       35123    2635.1             SET   FL_BCVwait          Set BCV wait option default
 005498 18D8/980C D004       00004 35129    2636.              PEND  ,                   Return to the scanner
 DROP   *,R7
 00549E 58E0 D000/12FF       00000 35145             +
 0054A4 07FE                       35148             +
00054A6 50E0 D000            00000 35150    2636.02   SETLVWT  PROC  ,                   Set wait/nowait flag
 0054AA 900C D004/188D       00004 35163             +
 0054B0 41D0 D038/0D70       00038 35165             +
 0054B6 9608 B8D1      008D1       35188    2636.03            SET   FL_LvWait           Set that we want to wait
 USING  *,R7
 0054BA 18D8/980C D004       00004 35194    2636.04            PEND  ,
 DROP   *,R7
 0054C0 58E0 D000/12FF       00000 35210             +
 0054C6 07FE                       35213             +
00054C8 50E0 D000            00000 35215    2636.06   SETLVSP  PROC  ,                   Set bcv volume ending status
 0054CC 900C D004/188D       00004 35228             +
 0054D2 41D0 D038/0D70       00038 35230             +
 0054D8 9620 B8D1      008D1       35253    2636.07            SET   FL_LVSPLT           Set to leave bcv volumes split
 USING  *,R7
 0054DC 94EF B8D1      008D1       35259    2636.08            CLEAR FL_LVEST            Clear "leave established" flag
 0054E0 18D8/980C D004       00004 35266    2636.09            PEND  ,                   Return to the scanner
 DROP   *,R7
 0054E6 58E0 D000/12FF       00000 35282             +
 0054EC 07FE                       35285             +
00054EE 50E0 D000            00000 35287    2636.11   SETLVEST PROC  ,                   Set bcv volume ending status
 0054F2 900C D004/188D       00004 35300             +
 0054F8 41D0 D038/0D70       00038 35302             +
 0054FE 94DF B8D1      008D1       35325    2636.12            CLEAR FL_LVSPLT           Clear to leave bcv volumes split
 USING  *,R7
 005502 9610 B8D1      008D1       35332    2636.13            SET   FL_LVEST            Set "leave established" flag
 005506 18D8/980C D004       00004 35338    2636.14            PEND  ,                   Return to the scanner
 DROP   *,R7
 00550C 58E0 D000/12FF       00000 35354             +
 005512 07FE                       35357             +
0005514 50E0 D000            00000 35359    2636.16   STPSTEM  PROC  ,                   Remember tape DSN prefix
1VMNT     (VMNT21) (09:48) (22MAR04) VMNT - File Maintenance Driver - Welcome processing.                                   Page  148
0Current Usings:  (VMNT,R11) (ATTREC,R12)
0Loc    Object Code    Addr1 Addr2  Stmt Lv Lineno    Source Statement           (Hibal 5, Asmedit 3.3)  HLASM R4.0  2004/03/22 09.48
+___    ______ ____    _____ _____  ____ __ ______    ______ _________
0005518 900C D004/188D       00004 35372             +
 00551E 41D0 D038/0D70       00038 35374             +
 005524 47D0 700C            05530 35397    2636.17            IF    (NP,OR,(R0,GT,26)),'ACALL PARMERR'
 USING  *,R7
 005528 5900 7180            056A4 35418             +
 00552C 47D0 7012            05536 35419             +
 005530 58E0 717C/0DEE       056A0 35427             +
 005536 1820                       35433    2636.38            LR    R2,R0                         Copy length of stem
 005538 0620/4420 754C       05A70 35434    2636.48            DEX   R2,'MVC TAPEPRFX(*-*),@R1'    Set tape stem name
 005A70 D200 B934 1000 00934 00000 35445             +
 00553E 18D8/980C D004       00004 35453    2637.              PEND  ,
 DROP   *,R7
 005544 58E0 D000/12FF       00000 35469             +
 00554A 07FE                       35472             +
000554C 50E0 D000            00000 35474    2637.02   STPUNIT  PROC  ,                   Remember tape allocation unit
 005550 900C D004/188D       00004 35487             +
 005556 41D0 D038/0D70       00038 35489             +
 00555C 47D0 700C            05568 35512    2637.03            IF    (NP,OR,(R0,GT,8)),'ACALL PARMERR'
 USING  *,R7
 005560 5900 714C            056A8 35533             +
 005564 47D0 7012            0556E 35534             +
 005568 58E0 7144/0DEE       056A0 35542             +
 00556E 1820                       35548    2637.04            LR    R2,R0                         Copy length of stem
 005570 0620/4420 751A       05A76 35549    2637.05            DEX   R2,'MVC TAPEUNIT(*-*),@R1'    Set tape alloc unit
 005A76 D200 B98C 1000 0098C 00000 35560             +
 005576 18D8/980C D004       00004 35568    2637.06            PEND  ,
 DROP   *,R7
 00557C 58E0 D000/12FF       00000 35584             +
 005582 07FE                       35587             +
0005584 50E0 D000            00000 35589    2637.08   STSTACK  PROC  ,                   Indicate stacked IXR, CAT, SEG0
 005588 900C D004/188D       00004 35602             +
 00558E 41D0 D038/0D70       00038 35604             +
 005594 9608 B8D2      008D2       35627    2637.09            SET   FL_STACK            - Set flag for stacke processing
 USING  *,R7
 005598 18D8/980C D004       00004 35633    2637.21            PEND  ,                     And return to the scanner
 DROP   *,R7
 00559E 58E0 D000/12FF       00000 35649             +
 0055A4 07FE                       35652             +
-0055A8                            35654    2637.23            LTORG ,                   Define literal pool
 0055A8 E5D4D5E3D7D9E340           35656                             =CL8'VMNTPRT'
 0055B0 E58599A28996957E           35657                             =C'Version='
 0055B8 E2E8E2D7D9C9D5E3           35658                             =CL8'SYSPRINT'
 0055C0 E2E8E2D2C1D7E4E3           35659                             =CL8'SYSKAPUT'
 0055C8 4040404040404040           35660                             =CL8' '
 0055D0 00000000                   35661                             =V(SEGINIT)
 0055D4 000049AC                   35662                             =A(VMNTSEG)
 0055D8 00000000                   35663                             =V(SEGINITR)
 0055DC 00000000                   35664                             =V(SEG)
 0055E0 00000000                   35665                             =V(SEGWR)
 0055E4 00000000                   35666                             =V(SEGBLANK)
1VMNT     (VMNT21) (09:48) (22MAR04) VMNT - File Maintenance Driver - Welcome processing.                                   Page  149
0Current Usings:  (VMNT,R11) (ATTREC,R12)
0Loc    Object Code    Addr1 Addr2  Stmt Lv Lineno    Source Statement           (Hibal 5, Asmedit 3.3)  HLASM R4.0  2004/03/22 09.48
+___    ______ ____    _____ _____  ____ __ ______    ______ _________
00055E8 D9A495408481A385           35667                             =C'Run date is '
 0055F4 00000000                   35668                             =V(FMTCLCK)
 0055F8 000004CE                   35669                             =A(FINDDD)
 0055FC E5D4D5E3F0F2F5C5           35670                             =C'VMNT025E - Unable to allocate SYSPRINT file.'
 005628 E5D4D5E3F0F2F6C5           35671                             =C'VMNT026E - Unable to allocate SYSKAPUT file.'
 005654 00005800                   35672                             =A(EXECSTR)
 005658 00005072                   35673                             =A(PRMSEGRT)
 00565C 00000E80                   35674                             =A(CONS_STR)
 005660 00000E40                   35675                             =A(CONSEGCB)
 005664 00000506                   35676                             =A(CONSCMD)
 005668 00000000                   35677                             =V(SCINIT)
 00566C 00000000                   35678                             =V(SCAN)
 005670 00000061                   35679                             =A(T179VER#)
 005674 00006F3C                   35680                             =A(ORVCOMNM)
 005678 000068D8                   35681                             =A(ORVCOM)
 00567C 0000245E                   35682                             =A(MSGSUFF)
 005680 00004A14                   35683                             =A(SENDWTO)
 005684 00001708                   35684                             =A(STCKCNV)
 005688 00004F94                   35685                             =A(OPNCONT)
 00568C 00005978                   35686                             =A(CNTIKWR)
 005690 00004FFA                   35687                             =A(CLSCONT)
 005694 00005A7C                   35688                             =A(CHKSHFT)
 005698 00005B84                   35689                             =A(CHKIJOB)
 00569C 000057FE                   35690                             =A(EXECSLEN)
 0056A0 000050BC                   35691                             =A(PARMERR)
 0056A4 0000001A                   35692                             =A(26)
 0056A8 00000008                   35693                             =A(8)
 0056AC D78199947E7F               35694                             =C'Parm="'
 0056B2 E5D4D5E3F2F9F4E6           35695                             =C'VMNT294W - Running non-APF authorized!'
 0056D8 E5D4D5E3F9F9F9C5           35696                             =C'VMNT999E - Unable to IDENTIFY ORVYL communication '
 00570A A2A8A2A385944094           35697                             =C'system maintenance'
 00571C E5D4D5E3F0F2F9C5           35698                             =C'VMNT029E - Unable to establish ESTAE recovery.'
 00574A E5D4D5E3F0F0F1C9           35699                             =C'VMNT001I - ORVYL File Maintenance Driver.'
 005773 7F                         35700                             =C'"'
 005774 E5D4D5E3F0F4F5E6           35701                             =C'VMNT045W - Unable to obtain SMF buffer storage.'
 0057A3 A381A2924B                 35702                             =C'task.'
 0057A8 C285878995958995           35703                             =C'Beginning file '
 0057B7 E5D4D5E3F2F0F3C5           35704                             =C'VMNT203E - Unable to open control file.'
 0057DE D78199819485A385           35705                             =C'Parameter error for FILMAINT.'
 0057FB 4D                         35706                             =C'('
 0057FC 5D             05A7C 06F60 35707                             =C')'
1VMNT     (VMNT21) (09:48) (22MAR04) VMNT - File Maintenance Driver - Welcome processing.                                   Page  150
0Current Usings:  (VMNT,R11) (ATTREC,R12)
0Loc    Object Code    Addr1 Addr2  Stmt Lv Lineno    Source Statement           (Hibal 5, Asmedit 3.3)  HLASM R4.0  2004/03/22 09.48
+___    ______ ____    _____ _____  ____ __ ______    ______ _________
0                                  35712    2637.25   ¿þþþþþþþþþþþþþþþþþþþþþþþþþþþþþþþþþþþþþþþþþþþþþþþþþþþþþþþþþþþþþþþþþþþþþÜ
                                   35713    2637.26   Ÿ                                                                     Ÿ
                                   35714    2637.27   Ÿ  Check for prime-shift error                                        Ÿ
                                   35715    2637.28   Ÿ                                                                     Ÿ
                                                      ¾þþþþþþþþþþþþþþþþþþþþþþþþþþþþþþþþþþþþþþþþþþþþþþþþþþþþþþþþþþþþþþþþþþþþþ»
-005E3E                05E3E 06F60 35717    2637.3             DATA  BEGIN
 005E3E 0000                              1
 005E40 00000000                   35722  1 2637.31   WTOECB     DC    A(0)                WTOR ECB
 005E44 40                         35723  1 2637.32   REPADR     DC    C' '                WTOR Reply buffer
 005E45 000000                            1
 005E48                            35724  1 2637.33              DC    0A(0)               Alignment
0005A7C                05A7C 06F60 35726    2637.35            END   ,
0005A7C 50E0 D000            00000 35733    2637.37   CHKSHFT  PROC  ,                   Enter and save calling registers
 005A80 900C D004/188D       00004 35746             +
 005A86 41D0 D038/0D70       00038 35748             +
 005A8C 5820 0010            00010 35771    2637.38            L     R2,CVTPTR           Address of CVT
 USING  *,R7
 005A90 5820 20CC            000CC 35772    2637.39            WITH  (CVTMAP,R2),'L R2,CVTUSER'    Address of SCIP-CVT
 USING  CVTMAP,R2
 DROP   CVTMAP,R2
 005A94 1F00/4300 200F       0000F 35796    2637.4             WITH  (SCVT,R2),'LC R0,USEBLOCK'    Get current time-block
 USING  SCVT,R2
 DROP   SCVT,R2
 005A9A 1200/4770 70EA       05B76 35824    2637.41            IF    (R0,Z),BEGIN        Test for day block, then verify
 005AA0 9120 B8D3      008D3       35838  1 2637.42              IF    FLTSTSYS,EXIT       Just testing, exit question
 005AA4 4710 70EA            05B76 35850  1          +
 005AA8 9140 B8D4      008D4       35856  1 2637.43              IF    ENABLE,EXIT         Enabling file systems, no need
 005AAC 4710 70EA            05B76 35868  1          +
 005AB0 9108 B8D3      008D3       35874  1 2637.44              IF    ~FL_WARN,EXIT       Skip if we don't want warnings
 005AB4 47E0 70EA            05B76 35886  1          +
 005AB8                            35892  1 2637.45              IF    (MACHINE,EQ,=C'SYSB'),EXIT    Skip for RLG
 005AB8 D503 7344 B840 05DD0 00840 35903  1          +
 005ABE 4780 70EA            05B76 35906  1          +
 005AC2                            35912  1 2637.46              LOOP  BEGIN               Loop waiting for correct reply
 005AC2                            35918  2 2637.47                CLEAR WTOECB              Clear WTO ECB
 005AC2 D703 73B4 73B4 05E40 05E40 35924  2          +
 005AC8 9240 73B8      05E44       35925  2 2637.48                MVI   REPADR,C' '         Clear reply string to blanks
                                   35926  2 2637.49 C              WTOR  'Caution: DAY block, do you want to continue? REPLY "Y"
                                          2 2637.5  C                    to continue.',
 005ACC 4510 7098            05B24        2 2637.51                      REPADR,1,WTOECB,ROUTCDE=(1,2,3)
 005AD0 80005E44                   35931  2          +
 005AD4 00005E40/01/47             35932  2          +
 005ADA 8000                       35935  2          +
 005ADC C381A4A38996957A           35936  2          +
 005AE4 40C4C1E840829396                  2          +
 005B1F 0000/E000/0A23             35937  2          +
 005B26 4100 0001            00001 35941  2 2637.52                WAIT  ECB=WTOECB
 005B2A 4110 73B4/0A01       05E40 35946  2          +
 005B30 95E8 73B8      05E44       35948  2 2637.53                IF    (REPADR,EQ,C'Y'),EXIT
 005B34 4780 70EA            05B76 35962  2          +
1VMNT     (VMNT21) (09:48) (22MAR04) VMNT - File Maintenance Driver - Welcome processing.                                   Page  151
0Current Usings:  (*,R7) (VMNT,R11) (ATTREC,R12)
0Loc    Object Code    Addr1 Addr2  Stmt Lv Lineno    Source Statement           (Hibal 5, Asmedit 3.3)  HLASM R4.0  2004/03/22 09.48
+___    ______ ____    _____ _____  ____ __ ______    ______ _________
0005B38 95D5 73B8      05E44       35968  2 2637.54                IF    (REPADR,EQ,C'N'),BEGIN
 005B3C 4770 70E6            05B72 35980  2          +
                                          3                          ¿þþþþþþþþþþþþþþþþþþþþþþþþþþþþþþþþþþþþþþþþþþþþþþþþþþþþþþþþþþÜ
                                   35985  3 2637.55                  Ÿ  Report termination and don't save R15 message id since  Ÿ
                                   35986  3 2637.56                  Ÿ  we want to leave this message on the console            Ÿ
                                          3                          ¾þþþþþþþþþþþþþþþþþþþþþþþþþþþþþþþþþþþþþþþþþþþþþþþþþþþþþþþþþþ»
                                   35987  3 2637.57                  SEGDEF PRTSEG             Establish SEGCB buffer
 005B40 58E0 7348/0DEE       05DD4 35988  3 2637.58                  ACALL MSGSUFF             Add proper file system name
 005B46 4110 7364            05DF0 35992  3 2637.59                  SEG   'File maintenance terminated by OPERATOR'
 005B4A 4100 0027            00027 35996  3          +
 005B4E 41F0 BB1C            00B1C 36004  3          +
 005B52 58E0 734C/0DEE       05DD8 36007  3          +
 005B58 41F0 BB1C            00B1C 36009  3 2637.6                   SENDWTO 2,2               Issue WTO command
 005B5C 4110 0002            00002 36018  3          +
 005B60 4100 0002            00002 36019  3          +
 005B64 58E0 7350/0DEE       05DDC 36022  3          +
 005B6A 9208 B867      00867       36024  3 2637.61                  MVI   RETCDE+3,8          Set return code
 005B6E 47F0 B3A4            003A4 36025  3 2637.62                  B     EXIT2               Abort maintenance processing
 005B72                            36026  2 2637.63                END   ,
 005B72 47F0 7036            05AC2 36030  1 2637.64              END   ,
 005B76                            36035    2637.65            END   ,
 005B76 18D8/980C D004       00004 36039    2637.66            PEND  ,                   Return to caller
 DROP   *,R7
 005B7C 58E0 D000/12FF       00000 36055             +
 005B82 07FE                       36058             +
1VMNT     (VMNT21) (09:48) (22MAR04) VMNT - File Maintenance Driver - Welcome processing.                                   Page  152
0Current Usings:  (VMNT,R11) (ATTREC,R12)
0Loc    Object Code    Addr1 Addr2  Stmt Lv Lineno    Source Statement           (Hibal 5, Asmedit 3.3)  HLASM R4.0  2004/03/22 09.48
+___    ______ ____    _____ _____  ____ __ ______    ______ _________
0                                  36060    2637.68   ¿þþþþþþþþþþþþþþþþþþþþþþþþþþþþþþþþþþþþþþþþþþþþþþþþþþþþþþþþþþþþþþþþþþþþþÜ
                                   36061    2637.69   Ÿ                                                                     Ÿ
                                   36062    2637.7    Ÿ  Message for "I" class jobs                                         Ÿ
                                   36063    2637.71   Ÿ                                                                     Ÿ
                                                      ¾þþþþþþþþþþþþþþþþþþþþþþþþþþþþþþþþþþþþþþþþþþþþþþþþþþþþþþþþþþþþþþþþþþþþþ»
-005B84 50E0 D000            00000 36065    2637.73   CHKIJOB  PROC  ,                   Enter and save calling registers
 005B88 900C D004/188D       00004 36078             +
 005B8E 41D0 D038/0D70       00038 36080             +
 005B94 9120 B8D3      008D3       36103    2637.74            IF    ~FLTSTSYS,BEGIN     Skip if in test mode
 USING  *,R7
 005B98 4710 70E4            05C78 36113             +
 005B9C 9140 B8D4      008D4       36118  1 2637.75              IF    ENABLE,EXIT         Skip if enabling linked files
 005BA0 4710 70E4            05C78 36130  1          +
 005BA4 9108 B8D3      008D3       36136  1 2637.76              IF    ~FL_WARN,EXIT       Skip if we don't want warnings
 005BA8 47E0 70E4            05C78 36148  1          +
 005BAC                            36154  1 2637.77              IF    (MACHINE,EQ,=C'SYSB'),EXIT      SKIP FOR RLG
 005BAC D503 723C B840 05DD0 00840 36165  1          +
 005BB2 4780 70E4            05C78 36168  1          +
 005BB6                            36174  1 2637.78              LOOP  BEGIN
 005BB6 9240 72B0      05E44       36180  2 2637.79                MVI   REPADR,C' '         Clear reply string
 005BBA                            36181  2 2637.8                 CLEAR WTOECB              Clear WTOR ECB
 005BBA D703 72AC 72AC 05E40 05E40 36187  2          +
                                   36188  2 2637.81 C              WTOR  'Caution: please make sure no "INTERACTIVE" jobs are run
                                          2 2637.82 C                    ning, REPLY "Y" to continue',
 005BC0 4510 7092            05C26        2 2637.83                      REPADR,1,WTOECB,ROUTCDE=(1,2,3)
 005BC4 80005E44                   36193  2          +
 005BC8 00005E40/01/56             36194  2          +
 005BCE 8000                       36197  2          +
 005BD0 C381A4A38996957A           36198  2          +
 005BD8 4097938581A28540                  2          +
 005BE0 9481928540A2A499                  2          +
 005C22 0000/E000/0A23             36199  2          +
 005C28 4100 0001            00001 36203  2 2637.84                WAIT  ECB=WTOECB          Wait for operator reply
 005C2C 4110 72AC/0A01       05E40 36208  2          +
 005C32 95E8 72B0      05E44       36210  2 2637.85                IF    (REPADR,EQ,C'Y'),EXIT
 005C36 4780 70E4            05C78 36224  2          +
 005C3A 95D5 72B0      05E44       36230  2 2637.86                IF    (REPADR,EQ,C'N'),BEGIN  MAKE SURE HE SAID "NO"
 005C3E 4770 70E0            05C74 36242  2          +
                                          3                          ¿þþþþþþþþþþþþþþþþþþþþþþþþþþþþþþþþþþþþþþþþþþþþþþþþþþþþþþþþþþÜ
                                   36247  3 2637.87                  Ÿ  Report termination and don't save R15 message id since  Ÿ
                                   36248  3 2637.88                  Ÿ  we want to leave this message on the console            Ÿ
                                          3                          ¾þþþþþþþþþþþþþþþþþþþþþþþþþþþþþþþþþþþþþþþþþþþþþþþþþþþþþþþþþþ»
                                   36249  3 2637.89                  SEGDEF PRTSEG             Establish SEGCB buffers
 005C42 58E0 7240/0DEE       05DD4 36250  3 2637.9                   ACALL MSGSUFF             Add file system identifier
 005C48 4110 7283            05E17 36254  3 2637.91                  SEG   'File Maintenance terminated by OPERATOR'
 005C4C 4100 0027            00027 36258  3          +
 005C50 41F0 BB1C            00B1C 36266  3          +
 005C54 58E0 7244/0DEE       05DD8 36269  3          +
 005C5A 41F0 BB1C            00B1C 36271  3 2637.92                  SENDWTO 2,2               Issue WTO command
 005C5E 4110 0002            00002 36280  3          +
 005C62 4100 0002            00002 36281  3          +
 005C66 58E0 7248/0DEE       05DDC 36284  3          +
1VMNT     (VMNT21) (09:48) (22MAR04) VMNT - File Maintenance Driver - Welcome processing.                                   Page  153
0Current Usings:  (*,R7) (VMNT,R11) (ATTREC,R12)
0Loc    Object Code    Addr1 Addr2  Stmt Lv Lineno    Source Statement           (Hibal 5, Asmedit 3.3)  HLASM R4.0  2004/03/22 09.48
+___    ______ ____    _____ _____  ____ __ ______    ______ _________
0005C6C 9208 B867      00867       36286  3 2637.93                  MVI   RETCDE+3,8          Set return code
 005C70 47F0 B3A4            003A4 36287  3 2637.94                  B     EXIT2               Terminate file maintenance run
 005C74                            36288  2 2637.95                END   ,
 005C74 47F0 7022            05BB6 36292  1 2637.96              END   ,
 005C78                            36297    2637.97            END   ,
 005C78 18D8/980C D004       00004 36301    2637.98            PEND  ,                   Restore registers and return
 DROP   *,R7
 005C7E 58E0 D000/12FF       00000 36317             +
 005C84 07FE                       36320             +
1VMNT     (VMNT21) (09:48) (22MAR04) VMNT - File Maintenance Driver - Welcome processing.                                   Page  154
0Current Usings:  (VMNT,R11) (ATTREC,R12)
0Loc    Object Code    Addr1 Addr2  Stmt Lv Lineno    Source Statement           (Hibal 5, Asmedit 3.3)  HLASM R4.0  2004/03/22 09.48
+___    ______ ____    _____ _____  ____ __ ______    ______ _________
0                                  36322    2638.     ¿þþþþþþþþþþþþþþþþþþþþþþþþþþþþþþþþþþþþþþþþþþþþþþþþþþþþþþþþþþþþþþþþþþþþþÜ
                                   36323    2639.     Ÿ                                                                     Ÿ
                                   36324    2640.     Ÿ  Add scanned FILE data set name to chained list and LOCATE          Ÿ
                                   36325    2641.     Ÿ  the DASD volume where it is allocated.                             Ÿ
                                   36326    2642.     Ÿ                                                                     Ÿ
                                   36327    2643.     Ÿ  Entered:    From the VSCN environment                              Ÿ
                                   36328    2644.     Ÿ              R0 - Contains the length of the data set name          Ÿ
                                   36329    2645.     Ÿ              R1 - Contains the address of the data set name         Ÿ
                                   36330    2646.     Ÿ  Returns:    File element added to the File list structure          Ÿ
                                   36331    2647.     Ÿ              cc - Z Element added                                   Ÿ
                                   36332    2648.     Ÿ                   NZ Unable to add element                          Ÿ
                                   36333    2649.     Ÿ                                                                     Ÿ
                                                      ¾þþþþþþþþþþþþþþþþþþþþþþþþþþþþþþþþþþþþþþþþþþþþþþþþþþþþþþþþþþþþþþþþþþþþþ»
-005C86 50E0 D000            00000 36335    2651.     ADDFILE  PROC  ,                   Enter and save registers
 005C8A 900C D004/188D       00004 36348             +
 005C90 41D0 D038/0D70       00038 36350             +
 005C96 50F0 D000            00000 36373    2652.              VPUSH R15,,*              Save pointer to SCANCB
 USING  *,R7
 005C9A 41D0 D004            00004 36375             +
 005C9E 9001 D000            00000 36376    2653.              VPUSH R0,R1,*             Save length,address of dsn
 005CA2 41D0 D008            00008 36378             +
 005CA6 0700/4510 701A       05CB0 36379    2654.              GETMAIN R,LV=L'FILELIST   Request storage for file entry
 005CAC 0000004B                   36383             +
 005CB0 5800 1000/0A0A       00000 36384             +
 005CB6 1821                       36386    2655.              LR    R2,R1               Save address of requested storage
 USING  FILELIST,R2                36387    2656.              WITH  (FILELIST,R2)       Addressability to file entry
 005CB8                            36400    2657.              CLEAR FILELIST            Clear entry to zero
 005CB8 D74A 2000 2000 00000 00000 36406             +
 005CBE D203 2000 714A 00000 05DE0 36407    2658.              MVC   FILEID,=CL4'FILE'   Set eye-catcher in entry block
 005CC4 9240 2019      00019       36408    2659.              MVI   FILENAME,C' '       Blank fill data set name
 005CC8 D22A 201A 2019 0001A 00019 36409    2660.              MVC   FILENAME+1(L'FILENAME-1),FILENAME
 005CCE 9240 2045      00045       36410    2661.              MVI   FILEVOL,C' '        Blank fill volume serial
 005CD2 D204 2046 2045 00046 00045 36411    2662.              MVC   FILEVOL+1(L'FILEVOL-1),FILEVOL
 005CD8 4BD0 7156            05DEC 36412    2663.              VPOP  R0,R1,*             Restore length and location
 005CDC 9801 D000            00000 36414             +
 005CE0 1840                       36415    2664.              LR    R4,R0               Copy length of data set name
 005CE2 0640/4440 71B2       05E48 36416    2665.              DEX   R4,'MVC FILENAME(0),@R1'    Move in data set name
 005E48 D200 2019 1000 00019 00000 36427             +
 005CE8 5830 B91C/1233       0091C 36435    2666.              LT    R3,FILLAST          Address of previous (if any) entry
 005CEE 4770 7064            05CFA 36439    2667.              IF    Z,BEGIN             We are adding the first element
 005CF2 5020 B918            00918 36450  1 2668.                ST    R2,FILHEAD          Save base anchor pointer
 005CF6 5020 B91C            0091C 36451  1 2669.                ST    R2,FILLAST          And last element
 005CFA 7068           05CFA 05CF0 36452    2670.              END   ELSE,BEGIN          Set back/forward pointers
 005CFA 47F0 7074            05D0A 36461             +
 005CFE 5030 2008            00008 36467  1 2671.                ST    R3,FILEBCK                    Set back pointer
 005D02 5020 3004            00004 36468  1 2672.                ST    R2,FILENXT-FILELIST(,R3)      Set forward pointer
 005D06 5020 B91C            0091C 36469  1 2673.                ST    R2,FILLAST                    Set current last entry
 005D0A                            36470    2674.              END   ,
 005D0A 4BD0 7158            05DEE 36474    2675.              VPOP  R15,,*              Restore pointer to SCANCB
 005D0E 58F0 D000            00000 36476             +
 005D12 18D8/980C D004       00004 36477    2676.              PEND  ,                   Restore registers and return
 DROP   FILELIST,R2
1VMNT     (VMNT21) (09:48) (22MAR04) VMNT - File Maintenance Driver - Welcome processing.                                   Page  155
0Current Usings:  (VMNT,R11) (ATTREC,R12)
0Loc    Object Code    Addr1 Addr2  Stmt Lv Lineno    Source Statement           (Hibal 5, Asmedit 3.3)  HLASM R4.0  2004/03/22 09.48
+___    ______ ____    _____ _____  ____ __ ______    ______ _________
0DROP   *,R7
 005D18 58E0 D000/12FF       00000 36498             +
 005D1E 07FE                       36501             +
1VMNT     (VMNT21) (09:48) (22MAR04) VMNT - File Maintenance Driver - Welcome processing.                                   Page  156
0Current Usings:  (VMNT,R11) (ATTREC,R12)
0Loc    Object Code    Addr1 Addr2  Stmt Lv Lineno    Source Statement           (Hibal 5, Asmedit 3.3)  HLASM R4.0  2004/03/22 09.48
+___    ______ ____    _____ _____  ____ __ ______    ______ _________
0                                  36503    2678.     ¿þþþþþþþþþþþþþþþþþþþþþþþþþþþþþþþþþþþþþþþþþþþþþþþþþþþþþþþþþþþþþþþþþþþþþÜ
                                   36504    2679.     Ÿ                                                                     Ÿ
                                   36505    2680.     Ÿ  Add scanned BCV volume and UCB pair to the list.                   Ÿ
                                   36506    2681.     Ÿ                                                                     Ÿ
                                   36507    2682.     Ÿ  Entered:    From the VSCN environment                              Ÿ
                                   36508    2683.     Ÿ              R0 - Contains the length of the standard volume        Ÿ
                                   36509    2684.     Ÿ              R1 - Contains the address of the standard volser       Ÿ
                                   36510    2685.     Ÿ  Returns:    Volume element added to the BCV list structure.        Ÿ
                                   36511    2686.     Ÿ              cc - Z Element added                                   Ÿ
                                   36512    2687.     Ÿ                   NZ Unable to add element                          Ÿ
                                   36513    2688.     Ÿ                                                                     Ÿ
                                                      ¾þþþþþþþþþþþþþþþþþþþþþþþþþþþþþþþþþþþþþþþþþþþþþþþþþþþþþþþþþþþþþþþþþþþþþ»
-005D20 50E0 D000            00000 36515    2690.     ADDBCV   PROC  ,                   Enter and save registers
 005D24 900C D004/188D       00004 36528             +
 005D2A 41D0 D038/0D70       00038 36530             +
 005D30 50F0 D000            00000 36553    2691.              VPUSH R15,,*              Save pointer to SCANCB
 USING  *,R7
 005D34 41D0 D004            00004 36555             +
 005D38 9001 D000            00000 36556    2692.              VPUSH R0,R1,*             Save length,address of dsn
 005D3C 41D0 D008            00008 36558             +
 005D40 4510 7018            05D48 36559    2693.              GETMAIN R,LV=L'BCVLIST    Request storage for BCV entry
 005D44 00000034                   36563             +
 005D48 5800 1000/0A0A       00000 36564             +
 005D4E 1821                       36566    2694.              LR    R2,R1               Save address of requested storage
 USING  BCVLIST,R2                 36567    2695.              WITH  (BCVLIST,R2)        Addressability to file entry
 005D50                            36580    2696.              CLEAR BCVLIST             Clear entry to zero
 005D50 D733 2000 2000 00000 00000 36586             +
 005D56 9680 2024      00024       36587    2696.1             SET   BFL_Unknown         Set initial "Unknown" pairing
 005D5A D203 2000 70B4 00000 05DE4 36593    2697.              MVC   BCVID,=CL4'BCV'     Set eye-catcher in entry block
 005D60 9240 2028      00028       36594    2698.              MVI   BCV_VOL,C' '        Blank fill volume serial
 005D64 D204 2029 2028 00029 00028 36595    2699.              MVC   BCV_VOL+1(L'BCV_VOL-1),BCV_VOL
 005D6A 4BD0 70BC            05DEC 36596    2700.              VPOP  R0,R1,*             Restore length and location
 005D6E 9801 D000            00000 36598             +
 005D72 1840                       36599    2701.              LR    R4,R0               Copy length of data set name
 005D74 0640/4440 711E       05E4E 36600    2702.              DEX   R4,'MVC BCV_VOL(0),@R1' Move in volume serial
 005E4E D200 2028 1000 00028 00000 36611             +
 005D7A D205 202E 2028 0002E 00028 36619    2703.              MVC   BCV_BSER,BCV_VOL        Copy for BCV pairing
 005D80 92C2 202E      0002E       36620    2704.              MVI   BCV_BSER,C'B'           Requested BCV volume serial
 005D84 4110 2028            00028 36621    2705.              LA    R1,BCV_VOL          Address of Orvyl volume
 005D88 58E0 70B8/0DEE       05DE8 36622    2706.              XCALL RETVOLU             Obtain UCB address
 USING  UCBOB,R1                   36626    2707.              WITH  (UCBOB,R1)          Addressability to UCB
 005D8E 4800 1004            00064 36639    2708.              LH    R0,UCBCHAN          Load binary device number (cuu)
 005D92 5000 200C            0000C 36640    2709.              ST    R0,BCV_STD          Save standard device number
 005D96 5830 B924/1233       00924 36641    2710.              LT    R3,BCVLAST          Address of previous (if any) entry
 005D9C 4770 7078            05DA8 36645    2711.              IF    Z,BEGIN             We are adding the first element
 005DA0 5020 B920            00920 36656  1 2712.                ST    R2,BCVHEAD          Save base anchor pointer
 005DA4 5020 B924            00924 36657  1 2713.                ST    R2,BCVLAST          And last element
 005DA8 707C           05DA8 05D9E 36658    2714.              END   ELSE,BEGIN          Set back/forward pointers
 005DA8 47F0 7088            05DB8 36667             +
 005DAC 5030 2008            00008 36673  1 2715.                ST    R3,BCVBCK                     Set back pointer
 005DB0 5020 3004            00004 36674  1 2716.                ST    R2,BCVNXT-BCVLIST(,R3)        Set forward pointer
 005DB4 5020 B924            00924 36675  1 2717.                ST    R2,BCVLAST                    Set current last entry
1VMNT     (VMNT21) (09:48) (22MAR04) VMNT - File Maintenance Driver - Welcome processing.                                   Page  157
0Current Usings:  (UCBOB,R1) (BCVLIST,R2) (*,R7) (VMNT,R11) (ATTREC,R12)
0Loc    Object Code    Addr1 Addr2  Stmt Lv Lineno    Source Statement           (Hibal 5, Asmedit 3.3)  HLASM R4.0  2004/03/22 09.48
+___    ______ ____    _____ _____  ____ __ ______    ______ _________
0005DB8                            36676    2718.              END   ,
 005DB8 4BD0 70BE            05DEE 36680    2719.              VPOP  R15,,*              Restore pointer to SCANCB
 005DBC 58F0 D000            00000 36682             +
 005DC0 18D8/980C D004       00004 36683    2720.              PEND  ,                   Restore registers and return
 DROP   UCBOB,R1
 DROP   BCVLIST,R2
 DROP   *,R7
 005DC6 58E0 D000/12FF       00000 36709             +
 005DCC 07FE                       36712             +
1VMNT     (VMNT21) (09:48) (22MAR04) VMNT - File Maintenance Driver - Welcome processing.                                   Page  158
0Current Usings:  (VMNT,R11) (ATTREC,R12)
0Loc    Object Code    Addr1 Addr2  Stmt Lv Lineno    Source Statement           (Hibal 5, Asmedit 3.3)  HLASM R4.0  2004/03/22 09.48
+___    ______ ____    _____ _____  ____ __ ______    ______ _________
0                                  36714    2720.02   ¿þþþþþþþþþþþþþþþþþþþþþþþþþþþþþþþþþþþþþþþþþþþþþþþþþþþþþþþþþþþþþþþþþþþþþÜ
                                   36715    2720.03   Ÿ                                                                     Ÿ
                                   36716    2720.04   Ÿ  Define literal pool                                                Ÿ
                                   36717    2720.05   Ÿ                                                                     Ÿ
                                                      ¾þþþþþþþþþþþþþþþþþþþþþþþþþþþþþþþþþþþþþþþþþþþþþþþþþþþþþþþþþþþþþþþþþþþþþ»
-DROP   ATTREC,R12                 36719    2720.2             DROP  ATTR                Release attach record
0005DD0                            36727    2721.1             LTORG ,                   Define literal pool
 005DD0 E2E8E2C2                   36729                             =C'SYSB'
 005DD4 0000245E                   36730                             =A(MSGSUFF)
 005DD8 00000000                   36731                             =V(SEG)
 005DDC 00004A14                   36732                             =A(SENDWTO)
 005DE0 C6C9D3C5                   36733                             =CL4'FILE'
 005DE4 C2C3E540                   36734                             =CL4'BCV'
 005DE8 00000000                   36735                             =V(RETVOLU)
 005DEC 0008                       36736                             =Y((R1+1-(R0)+16*((R0)/(R1+1))/((R0)/(R1+1)))*4)
 005DEE 0004                       36737                             =Y(4)
 005DF0 C689938540948189           36738                             =C'File maintenance terminated by OPERATOR'
 005E17 C689938540D48189           36739                             =C'File Maintenance terminated by OPERATOR'
1VMNT     (VMNT21) (09:48) (22MAR04) VMNT - File Maintenance Driver - History file update                                   Page  159
0Current Usings:  (VMNT,R11)
0Loc    Object Code    Addr1 Addr2  Stmt Lv Lineno    Source Statement           (Hibal 5, Asmedit 3.3)  HLASM R4.0  2004/03/22 09.48
+___    ______ ____    _____ _____  ____ __ ______    ______ _________
0                                  36744    2740.01   ¿þþþþþþþþþþþþþþþþþþþþþþþþþþþþþþþþþþþþþþþþþþþþþþþþþþþþþþþþþþþþþþþþþþþþþÜ
                                   36745    2740.02   Ÿ                                                                     Ÿ
                                   36746    2740.03   Ÿ  This section of the file maintenance driver updates the file       Ÿ
                                   36747    2740.04   Ÿ  system dump history data base.                                     Ÿ
                                   36748    2740.05   Ÿ                                                                     Ÿ
                                                      ¾þþþþþþþþþþþþþþþþþþþþþþþþþþþþþþþþþþþþþþþþþþþþþþþþþþþþþþþþþþþþþþþþþþþþþ»
-0060CA                060CA 06F60 36750    2740.07            DATA  BEGIN               Begin data for history maintenance
 0060CA 0000                              1
 0060CC 00000000                   36755  1 2740.08   HISTBLK    DC    A(0)                Relative block number
 0060D0 0000000000000000           36756  1 2740.09   HSTBASE    DC    XL(HIS#LEN)'00'     Reserve room for the base record
 006150 0000000000000000           36757  1 2740.1    HSTSPRC    DC    XL(HIS#LEN)'00'     Reserve room for a "split" record
00061D0 00                         36759  1 2740.12   HSTFLAG    FLAG  ,                   History file update flags
 HSTFLAG.HST_UPDAT 80 ONES         36763  1 2740.13              FLAG  HST_UPDATE_BASE       - rewrite history base block
 HSTFLAG.HST_UPDAT 40 ONES         36768  1 2740.14              FLAG  HST_UPDATE_SPLIT      - rewrite history split block
 0061D1 000000                     36773  1 2740.15              DC    AL3(0)              Alignment
0                                  36775  1 2740.17 C HSTDCB     DCB   DDNAME=HISTORY,DSORG=DA,BLKSIZE=128,
 0061D4 00000000/00    061D4 061E4        1 2740.18                    MACRF=(RIC,WIC),OPTCD=R,RECFM=FB
 0061E9 000001/0000                36785  1          +
 0061EE 2000/00000001              36787  1          +
 0061F4 00/000001/90               36790  1          +
 0061F9 000000                     36793  1          +
 0061FC C8C9E2E3D6D9E840           36795  1          +
 006204 02/00/2928/01              36796  1          +
 006209 000001                     36801  1          +
 00620C 00000001/0000              36802  1          +
 006212 0080/00000001              36804  1          +
 006218 00000001                   36806  1          +
 00621C 00000001                   36807  1          +
 006220 00000001                   36808  1          +
 006224 00000000                   36809  1          +
 006228 00000001                   36810  1          +
 00622C 00000001                   36811  1          +
 006230 00000001                   36812  1          +
 006234 00000001                   36813  1          +
 006238 00000001                   36814  1          +
                                   36816  1 2740.2               READ  HISTDECB,DI,HSTDCB,HSTBASE,128,,HISTBLK+1,MF=L
 00623C                            36818  1 02-IHBRD +           DS    0F
 00623C 00000000                   36819  1 02-IHBRD +HISTDECB   DC    A(0)                              EVENT CONTROL BLOCK
 006240 00                         36820  1 02-IHBRD +           DC    BL1'00000000'                     TYPE FIELD
 006241 08                         36821  1 02-IHBRD +           DC    BL1'00001000'                 TYPE FIELD
 006242 0080                       36822  1 02-IHBRD +           DC    AL2(128)                          LENGTH
 006244 000061D4                   36823  1 02-IHBRD +           DC    A(HSTDCB)                         DCB ADDRESS
 006248 000060D0                   36824  1 02-IHBRD +           DC    A(HSTBASE)                        AREA ADDRESS
 00624C 00000000                   36825  1 02-IHBRD +           DC    A(0)                              IOB ADDRESS
 006250 00000000                   36826  1 02-IHBRD +           DC    A(0)                              KEY ADDRESS
 006254 000060CD                   36827  1 02-IHBRD +           DC    A(HISTBLK+1)                      BLKREF ADDRESS
 006258 00006268                   36829  1 2740.22   HSTALC     DC    A(HSTDDN)               DDname pointer
 00625C 00006276                   36830  1 2740.23              DC    A(HSTDSN)               Data set name pointer
 006260 000062A8                   36831  1 2740.24              DC    A(HSTDSHR)              Disp=shr
 006264 800062AF                   36832  1 2740.25              DC    A(X'80000000'+HSTFCLS)  Free=close
1VMNT     (VMNT21) (09:48) (22MAR04) VMNT - File Maintenance Driver - History file update                                   Page  160
0Current Usings:  (VMNT,R11)
0Loc    Object Code    Addr1 Addr2  Stmt Lv Lineno    Source Statement           (Hibal 5, Asmedit 3.3)  HLASM R4.0  2004/03/22 09.48
+___    ______ ____    _____ _____  ____ __ ______    ______ _________
0006268 000100010008C8C9           36834  1 2740.27   HSTDDN     DC    AL2(DALDDNAM,1,8),CL8'HISTORY'
 006276 00020001002CC4E2           36835  1 2740.28   HSTDSN     DC    AL2(DALDSNAM,1,44),CL44'DSN'  DSN=
 0062A8 00040001000108             36836  1 2740.29   HSTDSHR    DC    AL2(DALSTATS,1,1),X'08'       Disp=SHR
 0062AF 001C0000                   36837  1 2740.3    HSTFCLS    DC    AL2(DALCLOSE,0)               Free=Close
 005E54                05E54 06F60 36838    2740.31            END   ,
1VMNT     (VMNT21) (09:48) (22MAR04) VMNT - File Maintenance Driver - History file update                                   Page  161
0Current Usings:  (VMNT,R11)
0Loc    Object Code    Addr1 Addr2  Stmt Lv Lineno    Source Statement           (Hibal 5, Asmedit 3.3)  HLASM R4.0  2004/03/22 09.48
+___    ______ ____    _____ _____  ____ __ ______    ______ _________
0                                  36845    2740.33   ¿þþþþþþþþþþþþþþþþþþþþþþþþþþþþþþþþþþþþþþþþþþþþþþþþþþþþþþþþþþþþþþþþþþþþþÜ
                                   36846    2740.34   Ÿ                                                                     Ÿ
                                   36847    2740.35   Ÿ  Allocate and open the history file associated with this file       Ÿ
                                   36848    2740.36   Ÿ  system.  Insure that we have an allocated "split" record within    Ÿ
                                   36849    2740.37   Ÿ  the history file.                                                  Ÿ
                                   36850    2740.38   Ÿ                                                                     Ÿ
                                                      ¾þþþþþþþþþþþþþþþþþþþþþþþþþþþþþþþþþþþþþþþþþþþþþþþþþþþþþþþþþþþþþþþþþþþþþ»
-005E54 50E0 D000            00000 36852    2741.     HIST_OPN PROC  ,                   Allocate and open history file
 005E58 900C D004/188D       00004 36865             +
 005E5E 41D0 D038/0D70       00038 36867             +
 005E64 D22B 7418 B9C0 0627C 009C0 36890    2741.01            MVC   HSTDSN+6(L'HIST_DSN),HIST_DSN
 USING  *,R7
 005E6A 4120 73F4            06258 36891    2741.02            LA    R2,HSTALC           Address of history alloc units
 005E6E 5020 BB64            00B64 36892    2741.03            ST    R2,SDYNTPTR         Update text unit point cell
 005E72 4110 BB58            00B58 36893    2741.04            LA    R1,SDYNBLK          Address of svc99 parameter list
 005E76 0A63                       36894    2741.05            DYNALLOC ,                Issue dynamic allocation
 005E78 12FF/4780 7034       05E98 36897    2741.06            IF    (R15,NZ),BEGIN      Error in history file allocation
                                   36911  1 2741.07              SEGDEF PRTSEG             Latch vmnt report file segcb
 005E7E 4110 7214            06078 36912  1 2741.08              SEGWR 'VMNT534E - Unable to allocate History file.'
 005E82 4100 002B            0002B 36917  1          +
 005E86 41F0 BB1C            00B1C 36925  1          +
 005E8A 58E0 720C/0DEE       06070 36928  1          +
 005E90 920C B867      00867       36930  1 2741.09              MVI   RETCDE+3,12         Set error return code
 005E94 47F0 B216            00216 36931  1 2741.1               B     EXIT                Terminate whole process
 005E98                            36932    2741.11            END   ,
 USING  IHADCB,R2                  36936    2741.12            WITH  (IHADCB,R2),BEGIN   ADDRESSABILITY TO DCB
 005E98 4120 7370            061D4 36950  1 2741.13              LA    R2,HSTDCB           Address of history dcb
 005E9C 4510 7040/84         05EA4 36951  1 2741.14              OPEN  (HSTDCB,(UPDAT))    Open history file for update
 005EA1 0061D4/0A13                36955  1          +
 005EA6 9110 2030      00030       36957  1 2741.15              IF    ~DCBOFLGS.DCBOFOPN,BEGIN      CHECK FOR GOOD OPEN
 005EAA 4710 7070            05ED4 36968  1          +
 005EAE 4110 723F            060A3 36973  2 2741.16                SEG   'VMNT085E - Unable to open history file.'
 005EB2 4100 0027            00027 36977  2          +
 005EB6 41F0 BB1C            00B1C 36985  2          +
 005EBA 58E0 7210/0DEE       06074 36988  2          +
 005EC0 1B00/41F0 BB1C       00B1C 36990  2 2741.17                SEGWR ,                   Write error message to log
 005EC6 58E0 720C/0DEE       06070 37012  2          +
 005ECC 920C B867      00867       37014  2 2741.18                MVI   RETCDE+3,12         Set error return code
 005ED0 47F0 B216            00216 37015  2 2741.19                B     EXIT                Terminate whole process
 005ED4                            37016  1 2741.2               END   ,
 DROP   IHADCB,R2                  37020    2741.21            END   ,                   Release addressability
                                                               ¿þþþþþþþþþþþþþþþþþþþþþþþþþþþþþþþþÜ
                                   37028    2741.22            Ÿ  Load history file base block  Ÿ
                                                               ¾þþþþþþþþþþþþþþþþþþþþþþþþþþþþþþþþ»
 005ED4 1B00                       37029    2741.23            CLEAR R0                  Set for read of block zero
 005ED6 4110 726C            060D0 37033    2741.24            LA    R1,HSTBASE          Set address of base block buffer
 005EDA 4DE0 71B4            06018 37034    2741.25            LCALL HIST_RD             Get record from history file
 USING  HISBREC,R2                 37036    2741.26            WITH  (HISBREC,R2)        Addressability to base block
 USING  HISSPREC,R3                37049    2741.27            WITH  (HISSPREC,R3)       Addressability to split recrd
 005EDE 4120 726C            060D0 37062    2741.28            LA    R2,HSTBASE          Address of history base block
 005EE2 4130 72EC            06150 37063    2741.29            LA    R3,HSTSPRC          Address of bcv split record
 005EE6 5800 2034/1200       00034 37064    2741.3             LT    R0,HISBSPLT         Load block number of last split
1VMNT     (VMNT21) (09:48) (22MAR04) VMNT - File Maintenance Driver - History file update                                   Page  162
0Current Usings:  (HISBREC,R2) (HISSPREC,R3) (*,R7) (VMNT,R11)
0Loc    Object Code    Addr1 Addr2  Stmt Lv Lineno    Source Statement           (Hibal 5, Asmedit 3.3)  HLASM R4.0  2004/03/22 09.48
+___    ______ ____    _____ _____  ____ __ ______    ______ _________
0005EEC 4770 70BC            05F20 37068    2741.31            IF    Z,BEGIN             None exit, create one
                                          1                      ¿þþþþþþþþþþþþþþþþþþþþþþþþþþþþþþþþþþþþþþÜ
                                   37079  1 2741.32              Ÿ  Allocate an initial "split" record  Ÿ
                                          1                      ¾þþþþþþþþþþþþþþþþþþþþþþþþþþþþþþþþþþþþþþ»
 005EF0 5800 2010            00010 37080  1 2741.33              L     R0,HISBFREE         Load next available free block
 005EF4 4110 72EC            06150 37081  1 2741.34              LA    R1,HSTSPRC          Address of split record buffer
 005EF8 4DE0 71B4            06018 37082  1 2742.                LCALL HIST_RD             Read next "free" record into buffer
 005EFC D203 2010 3004 00010 00004 37084  1 2742.01              MVC   HISBFREE,HISSPNXT   Update free block chain
 005F02 D203 2034 3000 00034 00000 37085  1 2742.02              MVC   HISBSPLT,HISSPBLK   Update split block base pointer
                                          1                      ¿þþþþþþþþþþþþþþþþþþþþþþþþþþþþþþþþþþþþþþþþþþþþþþþþþþþÜ
                                   37086  1 2742.03              Ÿ  Update base block with first split chain record  Ÿ
                                          1                      ¾þþþþþþþþþþþþþþþþþþþþþþþþþþþþþþþþþþþþþþþþþþþþþþþþþþþ»
 005F08 1B00                       37087  1 2742.04              CLEAR R0                  Clear for base block update
 005F0A 4110 726C            060D0 37091  1 2742.05              LA    R1,HSTBASE          Address of base block record
 005F0E 4DE0 7164            05FC8 37092  1 2742.06              LCALL HIST_WRT            Update base block in history file
 005F12 5800 3000            00000 37094  1 2742.07              L     R0,HISSPBLK         Remember split block number
 005F16                            37095  1 2742.08              CLEAR (HISSPREC,HIS#LEN)  Clear split block to zero
 005F16 D77F 3000 3000 00000 00000 37101  1          +
 005F1C 5000 3000            00000 37102  1 2742.09              ST    R0,HISSPBLK         Replace split block number
 005F20 70C0           05F20 05EEE 37103    2742.1             END   ELSE,BEGIN          Read in first split block record
 005F20 47F0 70C8            05F2C 37112             +
 005F24 4110 72EC            06150 37118  1 2742.11              LA    R1,HSTSPRC          Address of split record
 005F28 4DE0 71B4            06018 37119  1 2742.12              LCALL HIST_RD             Read in first split block in chain
 005F2C                            37121    2742.13            END   ,
 005F2C 9640 736C      061D0       37125    2742.14            SET   HST_UPDATE_SPLIT    Set for rewrite of "split" record
 005F30 18D8/980C D004       00004 37131    2742.15            PEND  ,                   Restore registers and return
 DROP   HISSPREC,R3
 DROP   HISBREC,R2
 DROP   *,R7
 005F36 58E0 D000/12FF       00000 37157             +
 005F3C 07FE                       37160             +
1VMNT     (VMNT21) (09:48) (22MAR04) VMNT - File Maintenance Driver - History file update                                   Page  163
0Current Usings:  (VMNT,R11)
0Loc    Object Code    Addr1 Addr2  Stmt Lv Lineno    Source Statement           (Hibal 5, Asmedit 3.3)  HLASM R4.0  2004/03/22 09.48
+___    ______ ____    _____ _____  ____ __ ______    ______ _________
0                                  37162    2742.17   ¿þþþþþþþþþþþþþþþþþþþþþþþþþþþþþþþþþþþþþþþþþþþþþþþþþþþþþþþþþþþþþþþþþþþþþÜ
                                   37163    2742.18   Ÿ                                                                     Ÿ
                                   37164    2742.19   Ÿ  Close and deallocate the history file                              Ÿ
                                   37165    2742.2    Ÿ                                                                     Ÿ
                                                      ¾þþþþþþþþþþþþþþþþþþþþþþþþþþþþþþþþþþþþþþþþþþþþþþþþþþþþþþþþþþþþþþþþþþþþþ»
0005F3E 50E0 D000            00000 37167    2742.22   HIST_CLS PROC  ,                   Close and deallocate history file
 005F42 900C D004/188D       00004 37180             +
 005F48 41D0 D038/0D70       00038 37182             +
 005F4E 9180 7282      061D0       37205    2742.23            IF    HST_UPDATE_BASE,BEGIN
 USING  *,R7
 005F52 47E0 7016            05F64 37215             +
 005F56 1B00                       37220  1 2742.24              CLEAR R0                  Clear for base block update
 005F58 4110 7182            060D0 37224  1 2742.25              LA    R1,HSTBASE          Address of history base block
 005F5C 4DE0 707A            05FC8 37225  1 2742.26              LCALL HIST_WRT            Update base block in history
 005F60 947F 7282      061D0       37227  1 2742.27              CLEAR HST_UPDATE_BASE     Clear update base block switch
 005F64                            37234    2742.28            END   ,
 005F64 9140 7282      061D0       37238    2742.29            IF    HST_UPDATE_SPLIT,BEGIN
 005F68 47E0 7038            05F86 37248             +
 005F6C 4110 7202            06150 37253  1 2742.3               LA    R1,HSTSPRC          Address of split block
 USING  HISSPREC,R1                37254  1 2742.31              WITH  (HISSPREC,R1)       Addressability to base block
 005F70 5800 1000            00000 37267  1 2742.32              L     R0,HISSPBLK         Load block number of base
 005F74 B205 D000      00000       37268  1 2742.33              STCK  @R13                Save current tod clock value
 005F78 D203 100C D000 0000C 00000 37269  1 2742.34              MVC   HISSPCLK,@R13       Update current tod clock value
 005F7E 4DE0 707A            05FC8 37270  1 2742.35              LCALL HIST_WRT            Update "split" record
 005F82 94BF 7282      061D0       37272  1 2742.36              CLEAR HST_UPDATE_SPLIT    Clear update base block switch
 DROP   HISSPREC,R1                37279    2742.37            END   ,
 005F86 0700/4510 7042       05F90 37288    2742.38            CLOSE HSTDCB              Close history file and deallocate
 005F8C 80/0061D4/0A14             37291             +
 005F92 18D8/980C D004       00004 37294    2742.39            PEND  ,                   Restore registers and return
 DROP   *,R7
 005F98 58E0 D000/12FF       00000 37310             +
 005F9E 07FE                       37313             +
                                   37314    2742.4    ¿þþþþþþþþþþþþþþþþþþþþþþþþþþþþþþþþþþþþþþþþþþþþþþþþþþþþþþþþþþþþþþþþþþþþþÜ
                                   37315    2742.41   Ÿ                                                                     Ÿ
                                   37316    2742.42   Ÿ  Return the address of the current "split" record                   Ÿ
                                   37317    2742.43   Ÿ                                                                     Ÿ
                                   37318    2742.44   Ÿ        I'm not sure exactly where I'm going with this; stay         Ÿ
                                   37319    2742.45   Ÿ        tuned, it may be amusing.                                    Ÿ
                                   37320    2742.46   Ÿ                                                                     Ÿ
                                                      ¾þþþþþþþþþþþþþþþþþþþþþþþþþþþþþþþþþþþþþþþþþþþþþþþþþþþþþþþþþþþþþþþþþþþþþ»
-005FA0 50E0 D000            00000 37322    2742.48   HIST_SAD PROC  ,                   Return address of split record
 005FA4 900C D004/188D       00004 37335             +
 005FAA 41D0 D038/0D70       00038 37337             +
 005FB0 4110 71A0            06150 37360    2742.49            LA    R1,HSTSPRC          Loadup address of split record
 USING  *,R7
 005FB4 5018 0008            00008 37361    2742.5             PRETURN (R1)              Pass back address to caller
 005FB8 1BFF                       37363    2742.51            Clear R15                 Clear return code
 005FBA 18D8/980C D004       00004 37367    2742.52            PEND  ,                   Restore registers and return
 DROP   *,R7
 005FC0 58E0 D000/12FF       00000 37383             +
 005FC6 07FE                       37386             +
1VMNT     (VMNT21) (09:48) (22MAR04) VMNT - File Maintenance Driver - History file update                                   Page  164
0Current Usings:  (VMNT,R11)
0Loc    Object Code    Addr1 Addr2  Stmt Lv Lineno    Source Statement           (Hibal 5, Asmedit 3.3)  HLASM R4.0  2004/03/22 09.48
+___    ______ ____    _____ _____  ____ __ ______    ______ _________
0                                  37388    2742.54   ¿þþþþþþþþþþþþþþþþþþþþþþþþþþþþþþþþþþþþþþþþþþþþþþþþþþþþþþþþþþþþþþþþþþþþþÜ
                                   37389    2742.55   Ÿ                                                                     Ÿ
                                   37390    2742.56   Ÿ  History file Input/Output                                          Ÿ
                                   37391    2742.57   Ÿ                                                                     Ÿ
                                   37392    2742.58   Ÿ    A call to HIST_WRT will write the history record.                Ÿ
                                   37393    2742.59   Ÿ    A call to HIST_RD wil read the history record.                   Ÿ
                                   37394    2742.6    Ÿ                                                                     Ÿ
                                   37395    2742.61   Ÿ    Entry:    R0  -  Relative block number of I/O                    Ÿ
                                   37396    2742.62   Ÿ              R1  -  Address of history record                       Ÿ
                                   37397    2742.63   Ÿ                                                                     Ÿ
                                                      ¾þþþþþþþþþþþþþþþþþþþþþþþþþþþþþþþþþþþþþþþþþþþþþþþþþþþþþþþþþþþþþþþþþþþþþ»
0005FC8 50E0 D000            00000 37398    2742.64   HIST_WRT PROC  ,                   Write passed block to history
 005FCC 900C D004/188D       00004 37411             +
 005FD2 41D0 D038/0D70       00038 37413             +
 005FD8 1821                       37436    2742.65            LR    R2,R1               Move address of history record
 USING  *,R7
 005FDA 5000 70F4            060CC 37437    2742.66            ST    R0,HISTBLK          Update relative block number
 005FDE 4110 7264            0623C 37438    2742.67            WRITE HISTDECB,DI,,(R2),MF=E  Write passed record
 005FE2 9200 1004      00004       37441             +
 005FE6 94C0 1005      00005       37442             +
 005FEA 5020 100C            0000C 37443             +
 005FEE 58F0 1008            00008 37444             +
 005FF2 BFF7 F031/05EF       00031 37445             +
 005FF8 4110 7264            0623C 37447    2742.68            CHECK HISTDECB                Wait for I/O to complete
 005FFC 58E0 1008/1BFF       00008 37450             +
 006002 BFF7 E035/05EF       00035 37452             +
 006008 1BFF                       37454    2742.69            CLEAR R15                     Clear return code
 00600A 18D8/980C D004       00004 37458    2742.7             PEND  ,                   Restore registers and return
 DROP   *,R7
 006010 58E0 D000/12FF       00000 37474             +
 006016 07FE                       37477             +
-
0006018 50E0 D000            00000 37479    2742.72   HIST_RD  PROC  ,                   Read passed block from history
 00601C 900C D004/188D       00004 37492             +
 006022 41D0 D038/0D70       00038 37494             +
 006028 1821                       37517    2742.73            LR    R2,R1               Move address of history record
 USING  *,R7
 00602A 5000 70A4            060CC 37518    2742.74            ST    R0,HISTBLK          Update relative block number
 00602E 4110 7214            0623C 37519    2742.75            READ  HISTDECB,DI,,(R2),MF=E  Write passed record
 006032 9200 1004      00004       37522             +
 006036 94C0 1005      00005       37523             +
 00603A 9608 1005      00005       37524             +
 00603E 5020 100C            0000C 37525             +
 006042 58F0 1008            00008 37526             +
 006046 BFF7 F031/05EF       00031 37527             +
 00604C 4110 7214            0623C 37529    2742.76            CHECK HISTDECB                Wait for I/O to complete
 006050 58E0 1008/1BFF       00008 37532             +
 006056 BFF7 E035/05EF       00035 37534             +
 00605C 1BFF                       37536    2742.77            CLEAR R15                     Clear return code
 00605E 18D8/980C D004       00004 37540    2742.78            PEND  ,                   Restore registers and return
1VMNT     (VMNT21) (09:48) (22MAR04) VMNT - File Maintenance Driver - History file update                                   Page  165
0Current Usings:  (VMNT,R11)
0Loc    Object Code    Addr1 Addr2  Stmt Lv Lineno    Source Statement           (Hibal 5, Asmedit 3.3)  HLASM R4.0  2004/03/22 09.48
+___    ______ ____    _____ _____  ____ __ ______    ______ _________
0DROP   *,R7
 006064 58E0 D000/12FF       00000 37556             +
 00606A 07FE                       37559             +
-006070                            37561    2742.8             LTORG ,                   Generate literal pool
 006070 00000000                   37563                             =V(SEGWR)
 006074 00000000                   37564                             =V(SEG)
 006078 E5D4D5E3F5F3F4C5           37565                             =C'VMNT534E - Unable to allocate History file.'
 0060A3 E5D4D5E3F0F8F5C5           37566                             =C'VMNT085E - Unable to open history file.'
1VMNT     (VMNT21) (09:48) (22MAR04) VMNT - File Maintenance Driver - Stacked allocation                                    Page  166
0Current Usings:  (VMNT,R11)
0Loc    Object Code    Addr1 Addr2  Stmt Lv Lineno    Source Statement           (Hibal 5, Asmedit 3.3)  HLASM R4.0  2004/03/22 09.48
+___    ______ ____    _____ _____  ____ __ ______    ______ _________
0                                  37571    2742.82   ¿þþþþþþþþþþþþþþþþþþþþþþþþþþþþþþþþþþþþþþþþþþþþþþþþþþþþþþþþþþþþþþþþþþþþþÜ
                                   37572    2742.83   Ÿ                                                                     Ÿ
                                   37573    2742.84   Ÿ  Routines to allocate stacked catalog, IXR, and the file segment    Ÿ
                                   37574    2742.85   Ÿ  data sets on a single tape volume with file number 1, 2, and 3     Ÿ
                                   37575    2742.86   Ÿ  respectfully.                                                      Ÿ
                                   37576    2742.87   Ÿ                                                                     Ÿ
                                                      ¾þþþþþþþþþþþþþþþþþþþþþþþþþþþþþþþþþþþþþþþþþþþþþþþþþþþþþþþþþþþþþþþþþþþþþ»
-00648C                0648C 06F60 37578    2742.89            DATA  BEGIN               Data area for stacked allocation
 00648C                            37583  1 2742.9               DC    0A(0)                   PROVIDE FULLWORD ALIGNMENT
 00648C 80006490                   37584  1 2742.91   TDYNBLK    DC    X'80',AL3(TDYNPRM)      Pointer to SVC99 request block
 006490 14                         37585  1 2742.92   TDYNPRM    DC    AL1(20)                 Length of SVC99 request block
 006491 01                         37586  1 2742.93              DC    AL1(S99VRBAL)           Dsname allocation
 006492 00                         37587  1 2742.94              DC    AL1(0)                  Don't mount volumes
 006493 00                         37588  1 2742.95              DC    AL1(0)                  Reserved flags
 006494 00000000                   37589  1 2742.96              DC    AL2(0,0)                Error and reason codes
 006498 000064A4                   37590  1 2742.97              DC    A(TPTRS)                Address of text unit list
 00649C 00000000                   37591  1 2742.98              DC    A(0)                    Reserved
 0064A0 00000000                   37592  1 2742.99              DC    A(0)                    System flag information
00064A4 000064E0                   37594  1 2743.01   TPTRS      DC    A(TDDN)             Pointer to DDNAME unit
 0064A8 000064EE                   37595  1 2743.02              DC    A(TDSN)                 To dsname unit
 0064AC 00006528                   37596  1 2743.03              DC    A(TSTAT)                To dsn status unit
 0064B0 00006520                   37597  1 2743.04              DC    A(TMEM)                 To relative generation
 0064B4 0000652F                   37598  1 2743.05              DC    A(TNDSP)                To normal disposition
 0064B8 0000653A                   37599  1 2743.06              DC    A(TCDSP)                To conditional disposition
 0064BC 00006541                   37600  1 2743.07              DC    A(TCNT)                 To volume count
 0064C0 00006548                   37601  1 2743.08              DC    A(TUNIT)                To unit specification
 0064C4 00006556                   37602  1 2743.09              DC    A(TLBL)                 To label type unit
 0064C8 0000655D                   37603  1 2743.1               DC    A(TSEQ)                 To label sequence number
 0064CC 00006536                   37604  1 2743.11              DC    A(TPRIV)                To VOL=(private) unit
 0064D0 00006569                   37605  1 2743.12              DC    A(TRETP)                To retention period
 0064D4 00006565                   37606  1 2743.13              DC    A(TFREE)                To FREE=CLOSE unit
 0064D8 800065A3                   37607  1 2743.14   Tclr       DC    X'80',AL3(TPROT)        To DCB dsname reference
 0064DC 80006571                   37608  1 2743.15   Tlast      DC    X'80',AL3(TVREF)        To VOL=REF=dsn
1VMNT     (VMNT21) (09:48) (22MAR04) VMNT - File Maintenance Driver - Stacked allocation                                    Page  167
0Current Usings:  (VMNT,R11)
0Loc    Object Code    Addr1 Addr2  Stmt Lv Lineno    Source Statement           (Hibal 5, Asmedit 3.3)  HLASM R4.0  2004/03/22 09.48
+___    ______ ____    _____ _____  ____ __ ______    ______ _________
00064E0 000100010008C3C1           37610  1 2743.17   TDDN       DC    AL2(DALDDNAM,1,8),CL8'CATDUMP'
 0064EE 00020001002C4040           37611  1 2743.18   TDSN       DC    AL2(DALDSNAM,1,44),CL44' '
 006520 0003000100024EF1           37612  1 2743.19   TMEM       DC    AL2(DALMEMBR,1,2),CL2'+1'
 006528 00040001000104             37613  1 2743.2    TSTAT      DC    AL2(DALSTATS,1,1),X'04' DISP=NEW
 00652F 00050001000102             37614  1 2743.21   TNDSP      DC    AL2(DALNDISP,1,1),X'02' DISP=(,CATLG)
 006536 00110000                   37615  1 2743.22   TPRIV      DC    AL2(DALPRIVT,0)                  VOL=(PRIVATE)
 00653A 00060001000104             37616  1 2743.23   TCDSP      DC    AL2(DALCDISP,1,1),X'04' DISP=(,,DELETE)
 006541 00130001000127             37617  1 2743.24   TCNT       DC    AL2(DALVLCNT,1,1),AL1(39)        VOL=(,,,39)
 006548 001500010008E3C1           37618  1 2743.25   TUNIT      DC    AL2(DALUNIT,1,8),CL8'TAPE'       UNIT=TAPE
 006556 001E0001000102             37619  1 2743.26   TLBL       DC    AL2(DALLABEL,1,1),XL1'02'        LABEL=(,SL)
 00655D 001F000100020001           37620  1 2743.27   TSEQ       DC    AL2(DALDSSEQ,1,2),AL2(1)         LABEL=1
 006565 001C0000                   37621  1 2743.28   TFREE      DC    AL2(DALCLOSE,0)                  FREE=CLOSE
 006569 002300010002005A           37622  1 2743.29   TRETP      DC    AL2(DALRETPD,1,2),AL2(90)        RETPD=90 DAYS
 006571 00140001002CD9C5           37623  1 2743.3    TVREF      DC    AL2(DALVLRDS,1,44),CL44'REFERENCE DATA SET'
 0065A3 002C0001002CE2E8           37624  1 2743.31   TPROT      DC    AL2(DALDCBDS,1,44),CL44'SYS3.PROTO.DSCB'
 0065D5 004F0001000108             37625  1 2743.32   OTRTCH     DC    AL2(DALTRTCH,1,1),AL1(DCBCMPAC)  TRTCH=COMP
 0065DC 00050001000102             37626  1 2743.33   TUNA       DC    AL2(DUNOVDSP,1,1),X'02' DISP=(,CATLG)
                                   37627  1 2743.34   TendU      EQU   *
 0062B3                062B3 06F60 37628    2743.35            END   ,
1VMNT     (VMNT21) (09:48) (22MAR04) VMNT - File Maintenance Driver - Stacked allocation                                    Page  168
0Current Usings:  (VMNT,R11)
0Loc    Object Code    Addr1 Addr2  Stmt Lv Lineno    Source Statement           (Hibal 5, Asmedit 3.3)  HLASM R4.0  2004/03/22 09.48
+___    ______ ____    _____ _____  ____ __ ______    ______ _________
0                                  37635    2743.37   ¿þþþþþþþþþþþþþþþþþþþþþþþþþþþþþþþþþþþþþþþþþþþþþþþþþþþþþþþþþþþþþþþþþþþþþÜ
                                   37636    2743.38   Ÿ                                                                     Ÿ
                                   37637    2743.39   Ÿ  Pre-allocate the Catalog, IXR, and first file segment files for    Ÿ
                                   37638    2743.4    Ÿ  a full dump operation as files 1, 2, then 3.                       Ÿ
                                   37639    2743.41   Ÿ                                                                     Ÿ
                                   37640    2743.42   Ÿ  For an incremental dump preallocate the IXRDUMP and then the       Ÿ
                                   37641    2743.43   Ÿ  final incremental data set.                                        Ÿ
                                   37642    2743.44   Ÿ                                                                     Ÿ
                                                      ¾þþþþþþþþþþþþþþþþþþþþþþþþþþþþþþþþþþþþþþþþþþþþþþþþþþþþþþþþþþþþþþþþþþþþþ»
-0062B4 50E0 D000            00000 37644    2743.46   PREALLOC PROC  ,
 0062B8 900C D004/188D       00004 37657             +
 0062BE 41D0 D038/0D70       00038 37659             +
 0062C4 1821                       37682    2743.47            LR    R2,R1               SAVE COPY OF DDNAME,SUFFIX POINTER
 USING  *,R7
 0062C6 4130 71CC            06490 37683    2743.48            LA    R3,TDYNPRM          ADDRESS OF S99 REQUEST BLOCK
 USING  S99RB,R3                   37684    2743.49            WITH  (S99RB,R3)          ADDRESSABILTY TO S99 REQUEST BLOCK
 0062CA D207 728A B98C 0654E 0098C 37697    2743.5             MVC   TUNIT+6(8),TAPEUNIT UPDATE UNIT= TEXT UNIT
 0062D0 D207 7222 2000 064E6 00000 37698    2743.51            MVC   TDDN+6(8),@R2       UPDATE DDNAME TEXT UNIT
 0062D6 D22B 7230 B934 064F4 00934 37699    2743.52            MVC   TDSN+6(44),TAPEPRFX UPDATE DSN TEXT UNIT WITH STEM
 0062DC 4110 7230            064F4 37700    2743.53            LA    R1,TDSN+6           POINT TO START OF DSN
 0062E0 4100 002C            0002C 37701    2743.54            LA    R0,44               AND SET MAXIMUM LENGTH
 0062E4 4DE0 B438            00438 37702    2743.55            LCALL RTRIM               TRIM TRAILING BLANKS FROM PREFIX
 0062E8 1E10                       37704    2743.56            ALR   R1,R0               ADDRESS OF FIRST BLANK IN DSN
 0062EA 924B 1000      00000       37705    2743.57            MVI   @R1,C'.'            SET "." SEPERATOR
 0062EE 4110 1001            00001 37706    2743.58            LA    R1,@R1+1            BUMP PAST "."
 0062F2 D207 1000 2008 00000 00008 37707    2743.59            MVC   @R1(8),@R2+8        AND ADD SUFFIX (MAX LEN CHECKED)
 0062F8 4100 0001            00001 37708    2743.6             INCR  R0,TapeFseq         UPDATE TAPE LABEL SEQUENCE
 0062FC 5E00 B930            00930 37712             +
 006300 5000 B930            00930 37713             +
 006304 D201 729F B932 06563 00932 37714    2743.61            MVC   TSEQ+6(2),TapeFseq+2    UPDATE IN TEXT UNIT
 00630A                            37715    2743.62            IF    (TapeFseq,GE,1),BEGIN   SAVE REFERENCE VOLUME
 00630A D503 719C B930 06460 00930 37727             +
 006310 4730 7086            0634A 37728             +
 006314                            37733  1 2743.63              IF    (TapeFseq,GT,1),BEGIN   UPDATE VOLUME REFERENCE
 006314 D503 719C B930 06460 00930 37745  1          +
 00631A 47B0 7068            0632C 37746  1          +
 00631E 947F 7214      064D8       37751  2 2743.64                NI    TCLR,X'7F'              CLEAR LAST TEXT UNIT
 006322 9680 7218      064DC       37752  2 2743.65                OI    TLAST,X'80'             AND RESET TO VOL=REF UNIT
 006326 D22B 72B3 B960 06577 00960 37753  2 2743.66                MVC   TVREF+6(44),TAPEREFD    AND SET REFERENCED DSN
 00632C 706C           0632C 0631C 37754  1 2743.67              END   ELSE,BEGIN              SAVE VOLUME REFERENCE DSN
 00632C 47F0 7086            0634A 37763  1          +
 006330 D22B B960 7230 00960 064F4 37769  2 2743.68                MVC   TAPEREFD,TDSN+6         UPDATE REFERENCE TAPE DSN
 006336 4110 B960            00960 37770  2 2743.69                LA    R1,TAPEREFD             ADDRESS OF REFERENCE DSN
 00633A 4100 002C            0002C 37771  2 2743.7                 LA    R0,44                   AND MAXIMUM LENGTH
 00633E 4DE0 B438            00438 37772  2 2743.71                LCALL RTRIM                   TRIM TRAILING BLANKS
 006342 1E10                       37774  2 2743.72                ALR   R1,R0                   ADDRESS OF FIRST BLANK CHAR
 006344 D203 1000 71A0 00000 06464 37775  2 2743.73                MVC   @R1(4),=CL4'(+0)'       COMPLETE NAME
 00634A                            37776  1 2743.74              END   ,
 00634A                            37780    2743.75            END   ,
 00634A                            37784    2743.79            CLEAR S99RSC              CLEAR ERROR AND REASON CODES
 00634A D703 3004 3004 00004 00004 37790             +
 006350 4110 71C8            0648C 37791    2743.8             LA    R1,TDYNBLK          ADDRESS OF SVC99 PARAMETER LIST
1VMNT     (VMNT21) (09:48) (22MAR04) VMNT - File Maintenance Driver - Stacked allocation                                    Page  169
0Current Usings:  (S99RB,R3) (*,R7) (VMNT,R11)
0Loc    Object Code    Addr1 Addr2  Stmt Lv Lineno    Source Statement           (Hibal 5, Asmedit 3.3)  HLASM R4.0  2004/03/22 09.48
+___    ______ ____    _____ _____  ____ __ ______    ______ _________
0006354 0A63                       37792    2743.81            DYNALLOC ,                ALLOCATE OUTPUT TAPE VOLUME
 006356 12FF/4780 70A8       0636C 37795    2743.82            IF    (R15,NZ),BEGIN
 00635C 4110 021F            0021F 37809  1 2743.94              ABEND 543,DUMP
 006360 4100 0080            00080 37814  1          +
 006364 8900 0018/1610       00018 37815  1          +
 00636A 0A0D                       37817  1          +
 00636C                            37818    2743.95            END   ,
 00636C 18D8/980C D004       00004 37822    2743.96            PEND  ,
 DROP   S99RB,R3
 DROP   *,R7
 006372 58E0 D000/12FF       00000 37843             +
 006378 07FE                       37846             +
1VMNT     (VMNT21) (09:48) (22MAR04) VMNT - File Maintenance Driver - Recovery processing.                                  Page  170
0Current Usings:  (VMNT,R11)
0Loc    Object Code    Addr1 Addr2  Stmt Lv Lineno    Source Statement           (Hibal 5, Asmedit 3.3)  HLASM R4.0  2004/03/22 09.48
+___    ______ ____    _____ _____  ____ __ ______    ______ _________
0                                  37848    2743.98   ¿þþþþþþþþþþþþþþþþþþþþþþþþþþþþþþþþþþþþþþþþþþþþþþþþþþþþþþþþþþþþþþþþþþþþþÜ
                                   37849    2743.99   Ÿ                                                                     Ÿ
                                   37850    2744.     Ÿ  Define ESTAE recovery routine                                      Ÿ
                                   37851    2745.     Ÿ                                                                     Ÿ
                                   37852    2746.     Ÿ    Release any "Hung" file systems from READ/ONLY mode.             Ÿ
                                   37853    2747.     Ÿ    Synchronize ending  status for dump function.                    Ÿ
                                   37854    2748.     Ÿ                                                                     Ÿ
                                   37855    2749.     Ÿ                                                                     Ÿ
                                                      ¾þþþþþþþþþþþþþþþþþþþþþþþþþþþþþþþþþþþþþþþþþþþþþþþþþþþþþþþþþþþþþþþþþþþþþ»
00065E3                0648C 06F60 37857    2751.              DATA  BEGIN
 0065E3 00                                1
 0065E4 0000000000000000           37862  1 2752.     ESTRSTCK   DC    64A(0)              Estae save stack
 0066E4 00000000                   37863  1 2753.     ESTRR13    DC    A(0)                Save for estae save area address
 00637A                062B3 06F60 37864    2754.              END   ,
000637A                            37871    2756.     ESTROUT  LABEL ,                   Estae recovery entry point
 USING  ESTROUT,R15                37873    2757.              USING ESTROUT,R15         Temporary addressability
 00637A 5900 F0EE            06468 37882    2758.              IF    (R0,EQ,12),BEGIN    Insufficient memory for estae?
 00637E 4770 F00C            06386 37894             +
 006382 1BFF                       37899  1 2759.                CLEAR R15                 Yes - zero return code
 006384 07FE                       37903  1 2760.                BR    R14                 And return to abend
 006386                            37904    2761.              END   ,
0DROP   ESTROUT,R15                37909    2763.              DROP  R15                 Release temp addr
 006386 0570                       37916    2764.              BALR  BR,0                Generate exit addressability
 USING  *,R7                       37917    2765.              USING *,BR                Declare routine addressability
0006388 90EC D00C            0000C 37928    2767.              STM   R14,R12,@R13+12     Save return registers
 00638C 18C1                       37929    2768.              LR    R12,R1                save sdwa address
 00638E 50D0 735C            066E4 37930    2769.              ST    R13,ESTRR13             Save area address
 006392 41D0 725C            065E4 37931    2770.              LA    R13,ESTRSTCK              Set save stack address
0006396 58B0 70E4            0646C 37933    2772.              L     R11,=A(VMNT)        Set first base register
0                                  37935    2774.              USING VMNT,R11            Addressability
 00639A 58E0 70E8/0DEE       06470 37937    2775.              ACALL ENABSYS             Enable any file systems hanging
 0063A0 9180 B8D0      008D0       37941    2776.              IF    FLDUMP,BEGIN        Check ending gdg status for dump
 0063A4 47E0 7026            063AE 37951             +
 0063A8 58E0 70EC/0DEE       06474 37956  1 2777.                ACALL SYNCLST             Syncronize gdg's
 0063AE                            37960    2778.              END   ,
 0063AE 58D0 735C            066E4 37964    2779.              L     R13,ESTRR13         Restore ESTAE save area address
 0063B2 0700/181C      063B4 063B2 37965    2780.              SETRP WKAREA=(R12),REGS=(14,12),RC=0
 0063B4 9200 10FC      000FC       37972             +
 0063B8 98EC D00C/07FE       0000C 37974             +
-DROP   VMNT,R11                   37977    2782.              DROP  ,                   Release all addressability
 DROP   *,R7
1VMNT     (VMNT21) (09:48) (22MAR04) VMNT - File Maintenance Driver - Recovery processing.                                  Page  171
0Loc    Object Code    Addr1 Addr2  Stmt Lv Lineno    Source Statement           (Hibal 5, Asmedit 3.3)  HLASM R4.0  2004/03/22 09.48
+___    ______ ____    _____ _____  ____ __ ______    ______ _________
0                                  38017    2801.     ¿þþþþþþþþþþþþþþþþþþþþþþþþþþþþþþþþþþþþþþþþþþþþþþþþþþþþþþþþþþþþþþþþþþþþþÜ
                                   38018    2801.01   Ÿ                                                                     Ÿ
                                   38019    2801.02   Ÿ  STAI EXIT FOR ABNORMAL TERMINATION                                 Ÿ
                                   38020    2801.03   Ÿ  OF SUBTASK                                                         Ÿ
                                   38021    2801.04   Ÿ                                                                     Ÿ
                                                      ¾þþþþþþþþþþþþþþþþþþþþþþþþþþþþþþþþþþþþþþþþþþþþþþþþþþþþþþþþþþþþþþþþþþþþþ»
-0063BE                            38023    2801.06   STAIXIT  LABEL ,
 0063BE 90EC D00C            0000C 38025    2801.07            STM   R14,R12,@R13+12     Save registers
 0063C2 187F                       38026    2801.08            LR    BR,R15              Move entry address for base
 USING  STAIXIT,R7                 38027    2801.09            USING STAIXIT,BR          Temporary addr
 0063C4 58B0 70AE            0646C 38036    2801.1             L     R11,=A(VMNT)        Set first base register
 USING  VMNT,R11                   38037    2801.11            USING VMNT,R11            Declare exit routine base(s)
 USING  ATTREC,R12                 38046    2801.12            USING ATTREC,ATTR         ## Addressability to attach record
 0063C8 50D0 B778            00778 38055    2801.13            ST    R13,XITSTCK             Save supervisor save
 0063CC 41D0 B77C            0077C 38056    2801.14            LA    R13,XITSTCK+4           Set internal stack
 USING  STWRK,R1                   38057    2801.15            USING STWRK,R1                ## work area format
 0063D0 5900 70BA            06478 38066    2801.16            IF    (R0,EQ,STNOCORE),BEGIN  Not enough memory processing
 0063D4 4770 7020            063DE 38078             +
 0063D8 18C2                       38083  1 2801.17              LR    ATTR,R2                 Set attach record address
 0063DA 5010 C028            00028 38084  1 2801.18              ST    R1,ATTCMP               Set abend completion status
 0063DE 7024           063DE 063D6 38085    2801.19            END   ELSE,BEGIN              Good entry
 0063DE 47F0 702E            063EC 38094             +
 0063E2 58C0 1000            00000 38100  1 2801.2               L     ATTR,STEXPRM            Set attach record address
 0063E6 D203 C028 1004 00028 00004 38101  1 2801.21              MVC   ATTCMP,STABND           Save abend codes
 0063EC                            38102    2801.22            END   ,
 DROP   STWRK,R1                   38106    2801.23            DROP  R1                      ## rlse work area
 0063EC 9680 C020      00020       38113    2801.24            SET   ATTFABND                Set subtask abended
 0063F0 5820 C028            00028 38119    2801.25            L     R2,ATTCMP               Retrieve abend
 0063F4 1832                       38120    2801.26            LR    R3,R2                   Copy for user code
 0063F6 5420 70BE            0647C 38121    2801.27            N     R2,=A(X'00FFF000')      Strip unwanted
 0063FA 8820 000C            0000C 38122    2801.28            SRL   R2,12                   Shift code down
 0063FE 4020 C038            00038 38123    2801.29            STH   R2,ATTABND              Save abend code
 006402 5430 70C2            06480 38124    2801.3             N     R3,=A(X'00000FFF')      Strip unwanted
 006406 4030 C03A            0003A 38125    2801.31            STH   R3,ATTUSR               Save user abend
 00640A 41F0 0000            00000 38126    2801.32            LA    R15,STRABND             Assume not-restartable
 00640E 9140 C020      00020       38127    2801.33            IF    ATTFRST,BEGIN           Only if a candidate
 006412 47E0 706C            0642A 38137             +
 006416 1802                       38142  1 2801.34              LR    R0,R2                   Copy abend code
 006418 5810 70C6/1211       06484 38143  1 2801.35              LT    R1,=A(1)                *** WAS -->LCALL RETRY
 00641E 4770 706C            0642A 38147  1 2801.36              IF    Z,BEGIN                 If restartable
 006422 9620 C020      00020       38158  2 2801.37                SET   ATTFDRST                Do restart
 006426 41F0 0004            00004 38164  2 2801.38                LA    R15,STRRET4             Schedule retry routine
 00642A                            38165  1 2801.39              END   ,
 00642A                            38169    2801.4             END   ,
 00642A 58D0 B778            00778 38173    2801.41            L     R13,XITSTCK             Regain supervisor save
 00642E 58E0 D00C            0000C 38174    2801.42            L     R14,@R13+12             Regain r14
 006432 59F0 70CA            06488 38175    2801.43            IF    (R15,EQ,STRRET4),'LA R0,STAIRET'
 006436 4770 7080            0643E 38187             +
 00643A 4100 7088            06446 38193             +
 00643E 981C D018            00018 38198    2801.44            LM    R1,R12,@R13+24          Reload remaining
 006442 07FE                       38199    2801.45            BR    R14                     Return to superisor
0DROP   STAIXIT,R7                 38201    2801.47            DROP  BR                  Release exit routine
 DROP   ATTREC,R12                 38208    2801.48            DROP  ,                   Release all basing declarations
1VMNT     (VMNT21) (09:48) (22MAR04) VMNT - File Maintenance Driver - Recovery processing.                                  Page  172
0Loc    Object Code    Addr1 Addr2  Stmt Lv Lineno    Source Statement           (Hibal 5, Asmedit 3.3)  HLASM R4.0  2004/03/22 09.48
+___    ______ ____    _____ _____  ____ __ ______    ______ _________
0DROP   VMNT,R11
1VMNT     (VMNT21) (09:48) (22MAR04) VMNT - File Maintenance Driver - Recovery processing.                                  Page  173
0Loc    Object Code    Addr1 Addr2  Stmt Lv Lineno    Source Statement           (Hibal 5, Asmedit 3.3)  HLASM R4.0  2004/03/22 09.48
+___    ______ ____    _____ _____  ____ __ ______    ______ _________
0                                  38248    2801.79   ¿þþþþþþþþþþþþþþþþþþþþþþþþþþþþþþþþþþþþþþþþþþþþþþþþþþþþþþþþþþþþþþþþþþþþþÜ
                                   38249    2801.8    Ÿ                                                                     Ÿ
                                   38250    2801.81   Ÿ END-OF-TASK EXIT ROUTINE                                            Ÿ
                                   38251    2801.82   Ÿ                                                                     Ÿ
                                                      ¾þþþþþþþþþþþþþþþþþþþþþþþþþþþþþþþþþþþþþþþþþþþþþþþþþþþþþþþþþþþþþþþþþþþþþ»
0006444                            38253    2801.84   EOTXIT   LABEL ,
 006444 07FE                       38255    2801.85            BR    R14                 Quick huh?
-
                                   38257    2801.87   ¿þþþþþþþþþþþþþþþþþþþþþþþþþþþþþþþþþþþþþþþþþþþþþþþþþþþþþþþþþþþþþþþþþþþþþÜ
                                   38258    2801.88   Ÿ                                                                     Ÿ
                                   38259    2801.89   Ÿ  STAI RETRY ROUTINE                                                 Ÿ
                                   38260    2801.9    Ÿ                                                                     Ÿ
                                                      ¾þþþþþþþþþþþþþþþþþþþþþþþþþþþþþþþþþþþþþþþþþþþþþþþþþþþþþþþþþþþþþþþþþþþþþ»
0006446                            38261    2801.91   STAIRET  LABEL ,                       Stai/retry routine
 USING  STAIRET,R15                38263    2801.92            USING STAIRET,R15             ##
 006446 5900 F032            06478 38272    2801.93            IF    (R0,NE,STNOCORE),BEGIN  FREE WORK AREA
 00644A 4780 F012            06458 38284             +
 00644E 4100 0068            00068 38289  1 2801.94              FREEMAIN R,LV=104,A=(1)       Free stae/stai workarea
 006452 4110 1000/0A0A       00000 38292  1          +
 006458                            38294    2801.95            END   ,
 DROP   STAIRET,R15                38298    2801.96            DROP  R15                     ## rlse base
 006458 1BFF                       38305    2801.97            CLEAR R15                     Zero return
 00645A 07FE                       38309    2801.98            BR    R14                     Return
0006460                            38311    2803.              LTORG ,
 006460 00000001                   38313                             =AL4(1)
 006464 4D4EF05D                   38314                             =CL4'(+0)'
 006468 0000000C                   38315                             =A(12)
 00646C 00000000                   38316                             =A(VMNT)
 006470 00002674                   38317                             =A(ENABSYS)
 006474 00001FC8                   38318                             =A(SYNCLST)
 006478 0000000C                   38319                             =A(STNOCORE)
 00647C 00FFF000                   38320                             =A(X'00FFF000')
 006480 00000FFF                   38321                             =A(X'00000FFF')
 006484 00000001                   38322                             =A(1)
 006488 00000004       066E8 06F60 38323                             =A(STRRET4)
1VMNT     (VMNT21) (09:48) (22MAR04) VMNT - File Maintenance Driver - IDCAMS sync.                                          Page  174
0Loc    Object Code    Addr1 Addr2  Stmt Lv Lineno    Source Statement           (Hibal 5, Asmedit 3.3)  HLASM R4.0  2004/03/22 09.48
+___    ______ ____    _____ _____  ____ __ ______    ______ _________
0                                  38328    2805.     ¿þþþþþþþþþþþþþþþþþþþþþþþþþþþþþþþþþþþþþþþþþþþþþþþþþþþþþþþþþþþþþþþþþþþþþÜ
                                   38329    2806.     Ÿ                                                                     Ÿ
                                   38330    2807.     Ÿ  Attach IDCAMS to get current GDG generations                       Ÿ
                                   38331    2808.     Ÿ                                                                     Ÿ
                                   38332    2809.     Ÿ                                                                     Ÿ
                                                      ¾þþþþþþþþþþþþþþþþþþþþþþþþþþþþþþþþþþþþþþþþþþþþþþþþþþþþþþþþþþþþþþþþþþþþþ»
-006D7A                06D7A 06F60 38334    2811.              DATA  BEGIN               Define data area for IDCAMS
 006D7A 0000                              1
 006D7C 00000000                   38339  1 2812.     SYNCVS     DC    A(0)                Idcams save area address
 006D80 00000000                   38340  1 2813.     SYNCNEXT   DC    A(0)                Address for next request
 006D84 0000000000000000           38341  1 2814.     SYNCSTCK   DC    64A(0)              I/O routine save stack
 006E84 00000000                   38342  1 2815.     SYNCECB    DC    A(0)                Attach ECB for IDCAMS
 006E88 00000000                   38343  1 2816.     SYNCTCB    DC    A(0)                IDCAMS TCB address
0006E8C 0000                       38345  1 2818.     IDCOPT     DC    H'0'                No exec field parameters
 006E8E 0000                       38346  1 2819.     IDCDNAM    DC    H'0'                No alternate ddname supplied
 006E90 0000                       38347  1 2820.     IDCPGE     DC    H'0'                No starting page number supplied
0006E92 0000                              1
 006E94 00000002                   38349  1 2822.     IDCIO      DC    A(2)                Define I/O routines
 006E98 00006EB0                   38350  1 2823.                DC    A(IDCIN)                pointer to "SYSIN" ddname
 006E9C 000067F2                   38351  1 2824.                DC    A(IDCIORT)              pointer to SYSIN I/O routine
 006EA0 00000000                   38352  1 2825.                DC    A(0)                    pointer to base registers
 006EA4 00006EBA                   38353  1 2826.                DC    A(IDCOUT)               pointer to "SYSPRINT" ddname
 006EA8 000067F2                   38354  1 2827.                DC    A(IDCIORT)              pointer to SYSPRINT routine
 006EAC 00000000                   38355  1 2828.                DC    A(0)                    pointer to base registers
0006EB0 C4C4E2E8E2C9D540           38357  1 2830.     IDCIN      DC    CL10'DDSYSIN'       Define sysin file
 006EBA C4C4E2E8E2D7D9C9           38358  1 2831.     IDCOUT     DC    CL10'DDSYSPRINT'    Define sysprint file
0006EC4 4040404040404040           38360  1 2833.     GDGLIST    DC    CL80' '             Define listcat command card
 006F14                06F14 06EC4 38361  1 2834.                ORG   GDGLIST             Reset to beginning of card
 006EC4 40                         38362  1 2835.                DC    C' '                Blank space for IDCAMS
 006EC5 D3C9E2E3C3C1E340           38363  1 2836.                DC    C'LISTCAT ENTRIES(' Define function
 006ED5 4040404040404040           38364  1 2837.     GDGCNAME   DC    CL44' '             Space to recieve dsn prefix
 006F01 5D40C7C4C740C1D3           38365  1 2838.                DC    C') GDG ALL'        List information on GDG's
 006F0A                06F0A 06F14 38366  1 2839.                ORG   ,                   Address to end of IDCAMS card
 0066E8                066E8 06F60 38367    2840.              END   ,
1VMNT     (VMNT21) (09:48) (22MAR04) VMNT - File Maintenance Driver - IDCAMS sync.                                          Page  175
0Loc    Object Code    Addr1 Addr2  Stmt Lv Lineno    Source Statement           (Hibal 5, Asmedit 3.3)  HLASM R4.0  2004/03/22 09.48
+___    ______ ____    _____ _____  ____ __ ______    ______ _________
0                                  38374    2842.     ¿þþþþþþþþþþþþþþþþþþþþþþþþþþþþþþþþþþþþþþþþþþþþþþþþþþþþþþþþþþþþþþþþþþþþþÜ
                                   38375    2843.     Ÿ                                                                     Ÿ
                                   38376    2844.     Ÿ  Attach IDCAMS to retrieve current genderation data group           Ÿ
                                   38377    2845.     Ÿ  entries for IXRDUMP, DIRDUMP, and the file segments.               Ÿ
                                   38378    2846.     Ÿ                                                                     Ÿ
                                                      ¾þþþþþþþþþþþþþþþþþþþþþþþþþþþþþþþþþþþþþþþþþþþþþþþþþþþþþþþþþþþþþþþþþþþþþ»
-USING  VMNT,R11                   38380    2848.              USING VMNT,R11            Reset initial 4K basing
 0066E8 50E0 D000            00000 38389    2849.     SYNCIDC  PROC  ,                   Attach IDCAMS to get current gens
 0066EC 900C D004/188D       00004 38402             +
 0066F2 41D0 D038/0D70       00038 38404             +
 0066F8 4110 757C            06C74 38427    2850.              SEG   'VMNT103I - Attaching IDCAMS'
 USING  *,R7
 0066FC 4100 001B            0001B 38431             +
 006700 41F0 BB1C            00B1C 38439             +
 006704 58E0 74B8/0DEE       06BB0 38442             +
 00670A 1B00/41F0 BB1C       00B1C 38444    2851.              SEGWR ,                   Write to report file
 006710 58E0 74BC/0DEE       06BB4 38466             +
 006716 5820 B92C            0092C 38468    2852.              L     R2,GDGANCHR         Address of anchro
 00671A 5020 7688            06D80 38469    2853.              ST    R2,SYNCNEXT         Set for initial call
 00671E                            38470    2854.              CLEAR SYNCECB             Zero subtask ecb for wait
 00671E D703 778C 778C 06E84 06E84 38476             +
                                   38477    2855.   C          ATTACH EP=IDCAMS,PARAM=(IDCOPT,IDCDNAM,IDCPGE,IDCIO),
 006724 4110 7034            0672C          2856.                    ECB=SYNCECB,VL=1
 006728 47F0 7044            0673C 38485             +
 00672C 00006E8C                   38487             +
 006730 00006E8E                   38488             +
 006734 00006E90                   38489             +
 006738 80006E94                   38490             +
 00673C 41F0 704C            06744 38492             +
 006740 47F0 F048            00048 38493             +
 006744 00006760                   38495             +
 006748 00000000                   38496             +
 00674C 80006E84                   38497             +
 006750 00000000                   38498             +
 006754 00000000                   38499             +
 006758 00000000/0000              38500             +
 00675E 00/00                      38502             +
 006760 C9C4C3C1D4E24040           38504             +
 006768 00000000                   38505             +
 00676C 00000000                   38506             +
 006770 00000000                   38507             +
 006774 00000000/00/00             38508             +
 00677A 0048/00000000              38511             +
 006780 00/01                      38513             +
 006782 0000000000000000           38515             +
 00678C 0A2A                       38516             +
 00678E 5010 7790            06E88 38517    2857.              ST    R1,SYNCTCB          Save IDCAMS TCB address
 006792 4100 0001            00001 38518    2858.              WAIT  ECB=SYNCECB         Wait for IDCAMS to complete
 006796 4110 778C/0A01       06E84 38523             +
 00679C 4110 7790/0A3E       06E88 38525    2859.              DETACH SYNCTCB            Detach idcams subtask
 0067A2 4110 74C0            06BB8 38530    2860.              SEG   'VMNT109I - IDCAMS completion code X'''
 0067A6 4100 0024            00024 38534             +
 0067AA 41F0 BB1C            00B1C 38542             +
 0067AE 58E0 74B8/0DEE       06BB0 38545             +
1VMNT     (VMNT21) (09:48) (22MAR04) VMNT - File Maintenance Driver - IDCAMS sync.                                          Page  176
0Current Usings:  (*,R7) (VMNT,R11)
0Loc    Object Code    Addr1 Addr2  Stmt Lv Lineno    Source Statement           (Hibal 5, Asmedit 3.3)  HLASM R4.0  2004/03/22 09.48
+___    ______ ____    _____ _____  ____ __ ______    ______ _________
00067B4 5810 778C            06E84 38547    2861.              SEGHX SYNCECB,8           Convert to printable
 0067B8 4100 0008            00008 38558             +
 0067BC 41F0 BB1C            00B1C 38566             +
 0067C0 58E0 74E4/0DEE       06BDC 38569             +
 0067C6 4110 7597            06C8F 38571    2862.              SEG   ''''                Terminate message
 0067CA 4100 0001            00001 38575             +
 0067CE 41F0 BB1C            00B1C 38583             +
 0067D2 58E0 74B8/0DEE       06BB0 38586             +
 0067D8 1B00/41F0 BB1C       00B1C 38588    2863.              SEGWR ,                   Write to report file
 0067DE 58E0 74BC/0DEE       06BB4 38610             +
 0067E4 18D8/980C D004       00004 38612    2864.              PEND  ,                   Restore registers and return
 DROP   *,R7
 0067EA 58E0 D000/12FF       00000 38628             +
 0067F0 07FE                       38631             +
1VMNT     (VMNT21) (09:48) (22MAR04) VMNT - File Maintenance Driver - IDCAMS sync.                                          Page  177
0Current Usings:  (VMNT,R11)
0Loc    Object Code    Addr1 Addr2  Stmt Lv Lineno    Source Statement           (Hibal 5, Asmedit 3.3)  HLASM R4.0  2004/03/22 09.48
+___    ______ ____    _____ _____  ____ __ ______    ______ _________
0                                  38633    2866.     ¿þþþþþþþþþþþþþþþþþþþþþþþþþþþþþþþþþþþþþþþþþþþþþþþþþþþþþþþþþþþþþþþþþþþþþÜ
                                   38634    2867.     Ÿ                                                                     Ÿ
                                   38635    2868.     Ÿ  IDCAMS SYSIN/SYSPRINT I/O Routines                                 Ÿ
                                   38636    2869.     Ÿ                                                                     Ÿ
                                                      ¾þþþþþþþþþþþþþþþþþþþþþþþþþþþþþþþþþþþþþþþþþþþþþþþþþþþþþþþþþþþþþþþþþþþþþ»
-0067F2                            38638    2871.     IDCIORT  LABEL ,                   IDCAMS I/O processing routine
 0067F2 90EC D00C            0000C 38640    2872.              STM   R14,R12,@R13+12     Save calling registers
 0067F6 187F                       38641    2873.              LR    BR,R15              Move IDC routine entry address
 USING  IDCIORT,R7                 38642    2874.              USING IDCIORT,BR          Addressability to IDCIORT
 0067F8 50D0 758A            06D7C 38651    2875.              ST    R13,SYNCVS          Save idcams save area address
 0067FC 41D0 7592            06D84 38652    2876.              LA    R13,SYNCSTCK        Set our save stack address
 006800 1821                       38653    2877.              LR    R2,R1               Copy entry parameters
 006802 58B0 73EE            06BE0 38654    2878.              L     R11,=A(VMNT)        Set first base register
 USING  IDCPARM,R2                 38655    2879.              USING IDCPARM,R2          ## addressability to parameters
 006806 5850 2004            00004 38664    2880.              L     R5,IDCIOPTR         Set i/o pointer
 00680A 5810 2008            00008 38665    2881.              L     R1,IDCINPTR         Set pointer
 USING  IDCFLAGS,R5                38666    2882.              USING IDCFLAGS,R5         ## addressability to flags
 00680E 1FFF/43F0 5000       00000 38675    2883.              LC    R15,IDCFLG1         Set entry function
 006814 47FF 7026            06818 38682    2884.              B     *+4(R15)            Enter proper routine
 006818 47F0 7036            06828 38683    2885.              B     IDCIOOPN                - Open function
 00681C 47F0 7036            06828 38684    2886.              B     IDCIOCLS                - Close function
 006820 47F0 70AC            0689E 38685    2887.              B     IDCIOGET                - Get function
 006824 47F0 7042            06834 38686    2888.              B     IDCIOPUT                - Put function
0DROP   IDCPARM,R2                 38688    2890.              DROP  R2                  Release parm addressability
-                                  38696    2892.              ¿þþþþþþþþþþþþþþþþþþþþþþþþþþþþþþþþþþþþþþþþþþþþþþþþþþþþþþþþþþþÜ
                                   38697    2893.              Ÿ  Open/Close exit routines are not required for this exit  Ÿ
                                   38698    2894.              ¾þþþþþþþþþþþþþþþþþþþþþþþþþþþþþþþþþþþþþþþþþþþþþþþþþþþþþþþþþþþ»
 006828                            38699    2895.     IDCIOOPN LABEL ,                   Open routine
 006828                            38701    2896.     IDCIOCLS LABEL ,                   Close routine
 006828 58D0 758A            06D7C 38703    2897.              L     R13,SYNCVS          Reset save area address
 00682C 98EC D00C            0000C 38704    2898.              LM    R14,R12,@R13+12     Restore registers
 006830 1BFF                       38705    2899.              CLEAR R15                 Zero return code
 006832 07FE                       38709    2900.              BR    R14                 And return from open/close
1VMNT     (VMNT21) (09:48) (22MAR04) VMNT - File Maintenance Driver - IDCAMS sync.                                          Page  178
0Current Usings:  (IDCFLAGS,R5) (IDCIORT,R7) (VMNT,R11)
0Loc    Object Code    Addr1 Addr2  Stmt Lv Lineno    Source Statement           (Hibal 5, Asmedit 3.3)  HLASM R4.0  2004/03/22 09.48
+___    ______ ____    _____ _____  ____ __ ______    ______ _________
0                                  38711    2902.     ********************************************************************
                                   38712    2903.     *                                                                  *
                                   38713    2904.     * Access Method Services PUT routine.                              *
                                   38714    2905.     *    Process last generation cataloged from IDCAMS output.         *
                                   38715    2906.     *                                                                  *
                                   38716    2907.     ********************************************************************
0006834                            38718    2909.     IDCIOPUT LABEL ,                   Put entry
 006834 9823 1000            00000 38720    2910.              LM    R2,R3,@R1           Set address and length
 006838 5840 758E            06D80 38721    2911.              L     R4,SYNCNEXT         Address of current gdg block
 USING  GDG,R4                     38722    2912.              WITH  (GDG,R4),BEGIN      Addressability to GDG block
 00683C                            38736  1 2913.                IF    (IDCMSG,Z),BEGIN
 00683C D601 5002 5002 00002 00002 38746  1          +
 006842 4770 7088            0687A 38747  1          +
 006846 5930 73F2            06BE4 38752  2 2914.                  C     R3,=A(18)           Is the length ok?
 00684A 4750 7088            0687A 38753  2 2915.                  IF    GE,BEGIN            Yep - check for nonvsam
 00684E D508 2008 749E 00008 06C90 38764  3 2916.                    CLC   @R2+8(9),=C'NONVSAM--'  nonvsam association?
 006854 4770 7088            0687A 38765  3 2917.                    IF    EQ,BEGIN            Yep - get generation number
 006858 4110 2011            00011 38776  4 2918.                      LA    R1,@R2+17           Address of data set name
 00685C 1803                       38777  4 2919.                      LR    R0,R3               Set line length
 00685E 5B00 73F6            06BE8 38778  4 2920.                      S     R0,=A(17)           Less header portion on line
 006862 4DE0 B438            00438 38779  4 2921.                      LCALL RTRIM               Trim any trailing blanks
 006866 1A10                       38781  4 2922.                      AR    R1,R0               Address of last + 1 byte
 006868 5B10 73FA            06BEC 38782  4 2923.                      S     R1,=A(7)            Address of character generation
 00686C F273 B820 1000 00820 00000 38783  4 2924.                      PACK  CLWTEMP(8),@R1(4)   Convert generation number
 006872 4F00 B820            00820 38784  4 2925.                      CVB   R0,CLWTEMP          To binary
 006876 5000 4004            00004 38785  4 2926.                      ST    R0,GDGGEN           And save in gdg block
 00687A                            38786  3 2927.                    END   ,
 00687A                            38790  2 2928.                  END   ,
 00687A 708C           0687A 06844 38794  1 2929.                END   ELSE,BEGIN          Check for final message
 00687A 47F0 709C            0688E 38803  1          +
 00687E                            38809  2 2930.                  IF    (IDCMSG,EQ,-1),BEGIN    End of function msg id
 00687E D501 742E 5002 06C20 00002 38821  2          +
 006884 4770 709C            0688E 38822  2          +
 006888 D203 758E 4000 06D80 00000 38827  3 2931.                    MVC   SYNCNEXT,GDGFWD     Set next block in chain
 00688E                            38828  2 2932.                  END   ,
 00688E                            38832  1 2933.                END   ,
 DROP   GDG,R4                     38836    2934.              END   ,                   Release GDG block addressability
 00688E 1BFF                       38844    2935.              CLEAR R15                 Zero return code from I/O put
 006890 58D0 758A            06D7C 38848    2936.              L     R13,SYNCVS          Reset VS save area address
 006894 58E0 D00C            0000C 38849    2937.              L     R14,@R13+12         Restore register 14
 006898 980C D014            00014 38850    2938.              LM    R0,R12,@R13+20      Restore remaining registers
 00689C 07FE                       38851    2939.              BR    R14                 Return to caller
1VMNT     (VMNT21) (09:48) (22MAR04) VMNT - File Maintenance Driver - IDCAMS sync.                                          Page  179
0Current Usings:  (IDCFLAGS,R5) (IDCIORT,R7) (VMNT,R11)
0Loc    Object Code    Addr1 Addr2  Stmt Lv Lineno    Source Statement           (Hibal 5, Asmedit 3.3)  HLASM R4.0  2004/03/22 09.48
+___    ______ ____    _____ _____  ____ __ ______    ______ _________
0                                  38853    2941.     ********************************************************************
                                   38854    2942.     *                                                                  *
                                   38855    2943.     * Access method services GET routine to supply card images         *
                                   38856    2944.     *                                                                  *
                                   38857    2945.     ********************************************************************
000689E                            38859    2947.     IDCIOGET LABEL ,                   Get entry point
 00689E 41F0 0004            00004 38861    2948.              LA    R15,4               Indicate EOD initially
 0068A2 5840 758E            06D80 38862    2949.              L     R4,SYNCNEXT         Get next block
 0068A6 1244/4780 70D8       068CA 38863    2950.              IF    (R4,NZ),BEGIN       Check for completion
 USING  GDG,R4                     38877  1 2951.                WITH  (GDG,R4)            Addressability to GDG block
 0068AC D203 1000 73FE 00000 06BF0 38890  1 2952.                MVC   @R1(4),=A(GDGLIST)  Address of sysin record
 0068B2 D203 1004 7402 00004 06BF4 38891  1 2953.                MVC   @R1+4(4),=A(80)     And record length
 0068B8 5840 758E            06D80 38892  1 2954.                L     R4,SYNCNEXT         Current address
 0068BC D203 4008 4004 00008 00004 38893  1 2955.                MVC   GDGPREV,GDGGEN      Reset last generation
 0068C2 D22B 76E3 4014 06ED5 00014 38894  1 2956.                MVC   GDGCNAME,GDGNAME    Set catalog gdg name
 0068C8 1BFF                       38895  1 2957.                CLEAR R15                 Zero return code
 DROP   GDG,R4                     38899    2958.              END   ,
 0068CA 58D0 758A            06D7C 38908    2959.              L     R13,SYNCVS          Reset idcams save area address
 0068CE 58E0 D00C            0000C 38909    2960.              L     R14,@R13+12         Reset return register
 0068D2 980C D014            00014 38910    2961.              LM    R0,R12,@R13+20      Restore remaining registers
 0068D6 07FE                       38911    2962.              BR    R14                 And return to idcams
-DROP   IDCFLAGS,R5                38913    2964.              DROP  R5                  Release IDCFLAGS addressabiliity
 DROP   VMNT,R11                   38920    2965.              DROP  ,                   Release all basing declarations
 DROP   IDCIORT,R7
1VMNT     (VMNT21) (09:48) (22MAR04) VMNT - File Maintenance Driver - Disable/Enable                                        Page  180
0Loc    Object Code    Addr1 Addr2  Stmt Lv Lineno    Source Statement           (Hibal 5, Asmedit 3.3)  HLASM R4.0  2004/03/22 09.48
+___    ______ ____    _____ _____  ____ __ ______    ______ _________
0                                  38960    2967.     ¿þþþþþþþþþþþþþþþþþþþþþþþþþþþþþþþþþþþþþþþþþþþþþþþþþþþþþþþþþþþþþþþþþþþþþÜ
                                   38961    2968.     Ÿ                                                                     Ÿ
                                   38962    2969.     Ÿ  VAM routine to Enable/Disable specified                            Ÿ
                                   38963    2970.     Ÿ  Orvyl File System                                                  Ÿ
                                   38964    2971.     Ÿ                                                                     Ÿ
                                                      ¾þþþþþþþþþþþþþþþþþþþþþþþþþþþþþþþþþþþþþþþþþþþþþþþþþþþþþþþþþþþþþþþþþþþþþ»
0006F14                06D7A 06F60 38965    2972.              DATA  BEGIN
 006F14 0000000000000000           38970  1 2973.     VAMREGS    DC    4F'0'               Vam parameter registers
 006F24                06F24 06F14 38971  1 2974.                ORG   VAMREGS
 006F14                            38972  1 2975.     VAMR14     DS    F                   Register 14 area
 006F18                            38973  1 2976.     VAMR15     DS    F                   Register 15 area
 006F1C                            38974  1 2977.     VAMR0      DS    F                   Register 0  area
 006F20                            38975  1 2978.     VAMR1      DS    F                   Register 1  area
 006F24                06F24 06F24 38976  1 2979.                ORG   ,
 006F24 00000000                          1
 006F28 0000000000000000           38977  1 2980.     VAMSTRT    DC    D'0'                VAM STCK Start time of request
 006F30 0000000000000000           38978  1 2981.     VAMEND     DC    D'0'                VAM STCK End time of request
 006F38                            38979  1 2982.     VAMADDR    DS    A                   Vam entry address
 006F3C D6D9E5C3D6D44040           38980  1 2983.     ORVCOMNM   DC    CL8'ORVCOM'         VAM task program name
 006F44 E5C1D4E3C1E2D240           38981  1 2984.     VAMTASK    DC    CL8'VAMTASK'        VAMTASK name
 006F4C E5C1D44040404040           38982  1 2985.     VAM        DC    CL8'VAM'            VAM prefix name
 006F54 C8C87AD4D47AE2E2           38983  1 2986.     VAMTIME    DC    C'HH:MM:SS.TT'      Receive area for time of day
                                   38984  1 2987.     STATCODE   EQU   48                  Status vam code
                                   38985  1 2988.     WAITCODE   EQU   52                  Wait vam code
 0068D8                066E8 06F60 38986    2989.              END   ,
-                                  38993    2991.     ¿þþþþþþþþþþþþþþþþþþþþþþþþþþþþþþþþþþþþþþþþþþþþþþþþþþþþþþþþþþþþþþþþþþþþþÜ
                                   38994    2992.     Ÿ                                                                     Ÿ
                                   38995    2993.     Ÿ  Entry point for ORVYL communications subtask for setting           Ÿ
                                   38996    2994.     Ÿ  resetting the read only status of the passed file system           Ÿ
                                   38997    2995.     Ÿ  name.                                                              Ÿ
                                   38998    2996.     Ÿ                                                                     Ÿ
                                                      ¾þþþþþþþþþþþþþþþþþþþþþþþþþþþþþþþþþþþþþþþþþþþþþþþþþþþþþþþþþþþþþþþþþþþþþ»
-0068D8                            39000    2998.     ORVCOM   LABEL ,                   Entry point for ORVYL
 0068D8 90EC D00C            0000C 39002    2999.              STM   R14,R12,@R13+12     Save off registers
 0068DC 187F                       39003    3000.              LR    BR,R15              Move routine base register
 USING  ORVCOM,R7                  39004    3001.              USING ORVCOM,BR           Declare addressability
 0068DE 58B0 7308            06BE0 39013    3002.              L     R11,=A(VMNT)         set first base register
 USING  VMNT,R11                   39014    3003.              USING VMNT,R11            Subtask addressasbility
 0068E2 4100 0320            00320 39023    3004.              LA    R0,200*4            Save stack length
 0068E6 4510 7012/0A0A       068EA 39024    3005.              GETMAIN R,LV=(0)          Get save stack area
 0068EC 50D0 1000            00000 39028    3006.              ST    R13,@R1             Save vs area address
 0068F0 41D0 1004            00004 39029    3007.              LA    R13,@R1+4           Initialize our stack
 0068F4 4110 734A            06C22 39030    3008.              SEGWR  'VMNT010I - Loading VAM module.'
 0068F8 4100 001E            0001E 39035             +
 0068FC 41F0 BB1C            00B1C 39043             +
 006900 58E0 72DC/0DEE       06BB4 39046             +
 006906 0700/4100 7674       06F4C 39048    3009.              LOAD  EPLOC=VAM           Fresh copy of vam prefix
 00690C 1B11/0A08                  39051             +
 006910 12FF/4780 7060       06938 39053    3010.              IF    (R15,NZ),BEGIN      Insure code has been loaded
 006916 4110 73C1            06C99 39067  1 3011.                SEGWR  'VMNT015E - Unable to load vam module.'
 00691A 4100 0025            00025 39072  1          +
1VMNT     (VMNT21) (09:48) (22MAR04) VMNT - File Maintenance Driver - Disable/Enable                                        Page  181
0Current Usings:  (ORVCOM,R7) (VMNT,R11)
0Loc    Object Code    Addr1 Addr2  Stmt Lv Lineno    Source Statement           (Hibal 5, Asmedit 3.3)  HLASM R4.0  2004/03/22 09.48
+___    ______ ____    _____ _____  ____ __ ______    ______ _________
000691E 41F0 BB1C            00B1C 39080  1          +
 006922 58E0 72DC/0DEE       06BB4 39083  1          +
 006928 4110 0008            00008 39085  1 3012.                ABEND 8,DUMP,STEP         Abend job step task
 00692C 4100 00C0            000C0 39090  1          +
 006930 8900 0018/1610       00018 39091  1          +
 006936 0A0D                       39093  1          +
 006938                            39094    3013.              END   ,
 006938 5000 7660            06F38 39098    3014.              ST    R0,VAMADDR          Save entry address of VAM
 00693C 4110 73E6            06CBE 39099    3015.              SEG   'VMNT011I - VAM code has been loaded at '
 006940 4100 0027            00027 39103             +
 006944 41F0 BB1C            00B1C 39111             +
 006948 58E0 72D8/0DEE       06BB0 39114             +
 00694E 5810 7660            06F38 39116    3016.              SEGHX L:VAMADDR,8         Convert loaded vam address
 006952 4100 0008            00008 39127             +
 006956 41F0 BB1C            00B1C 39135             +
 00695A 58E0 7304/0DEE       06BDC 39138             +
 006960 1B00/41F0 BB1C       00B1C 39140    3017.              SEGWR ,                   Write to report file
 006966 58E0 72DC/0DEE       06BB4 39162             +
 00696C B205 7650      06F28       39164    3018.              STCK  VAMSTRT             Save starting tod clock
 006970 4110 740D            06CE5 39165    3019.              SEG   'VMNT069I - Setting '
 006974 4100 0013            00013 39169             +
 006978 41F0 BB1C            00B1C 39177             +
 00697C 58E0 72D8/0DEE       06BB0 39180             +
 006982 9110 B8D4      008D4       39182    3020.              IF    FLOFF,BEGIN
 006986 47E0 70EE            069C6 39192             +
 00698A 4110 7420            06CF8 39197  1 3021.                SEG   'Read/Only mode for '
 00698E 4100 0013            00013 39201  1          +
 006992 41F0 BB1C            00B1C 39209  1          +
 006996 58E0 72D8/0DEE       06BB0 39212  1          +
 00699C 5810 B87C            0087C 39214  1 3022.                L     R1,FSACTIVE         Address of current file name
 0069A0 4100 0008            00008 39215  1 3023.                LA    R0,8                Maximum length of name
 0069A4 4DE0 B438            00438 39216  1 3024.                LCALL RTRIM               Trim trailing blanks
 0069A8 41F0 BB1C            00B1C 39218  1 3025.                SEG   (R1),(R0)           Add file system name to message
 0069AC 58E0 72D8/0DEE       06BB0 39239  1          +
 0069B2 1B00/41F0 BB1C       00B1C 39241  1 3026.                SEGWR ,                   Write to report file
 0069B8 58E0 72DC/0DEE       06BB4 39263  1          +
 0069BE 5810 B87C            0087C 39265  1 3027.                L     R1,FSACTIVE         Set file system name
 0069C2 41F0 0004            00004 39266  1 3028.                LA    R15,4               Set request for read/only
 0069C6 70F2           069C6 06988 39267    3029.              END   ELSE,BEGIN          Wrong -- set read only
 0069C6 47F0 712C            06A04 39276             +
 0069CA 4110 7320            06BF8 39282  1 3030.                SEG   'Read/Write mode for '
 0069CE 4100 0014            00014 39286  1          +
 0069D2 41F0 BB1C            00B1C 39294  1          +
 0069D6 58E0 72D8/0DEE       06BB0 39297  1          +
 0069DC 5810 B87C            0087C 39299  1 3031.                L     R1,FSACTIVE         Address of current fil ename
 0069E0 4100 0008            00008 39300  1 3032.                LA    R0,8                Maximum length of name
 0069E4 4DE0 B438            00438 39301  1 3033.                LCALL RTRIM               Trim trailing blanks
 0069E8 41F0 BB1C            00B1C 39303  1 3034.                SEG   (R1),(R0)           Add file system name to message
 0069EC 58E0 72D8/0DEE       06BB0 39324  1          +
 0069F2 1B00/41F0 BB1C       00B1C 39326  1 3035.                SEGWR ,                   Write to report file
 0069F8 58E0 72DC/0DEE       06BB4 39348  1          +
 0069FE 5810 B87C            0087C 39350  1 3036.                L     R1,FSACTIVE         Set file system name
 006A02 1BFF                       39351  1 3037.                CLEAR R15                 Set request for full access
 006A04                            39355    3038.              END   ,
1VMNT     (VMNT21) (09:48) (22MAR04) VMNT - File Maintenance Driver - Disable/Enable                                        Page  182
0Current Usings:  (ORVCOM,R7) (VMNT,R11)
0Loc    Object Code    Addr1 Addr2  Stmt Lv Lineno    Source Statement           (Hibal 5, Asmedit 3.3)  HLASM R4.0  2004/03/22 09.48
+___    ______ ____    _____ _____  ____ __ ______    ______ _________
0006A04 5010 7648            06F20 39359    3039.              ST    R1,VAMR1            Set vam register 1
 006A08 50F0 7640            06F18 39360    3040.              ST    R15,VAMR15          Set vam register 15
 006A0C 4100 006C            0006C 39361    3041.              LA    R0,108              Set file system mode
 006A10 5000 7644            06F1C 39362    3042.              ST    R0,VAMR0            Set vam register 0
 006A14 4110 763C            06F14 39363    3043.              LA    R1,VAMREGS          Address of register area
 006A18 58F0 7660            06F38 39364    3044.              L     R15,VAMADDR         Vam entry address
 006A1C 4100 0030            00030 39365    3045.              LA    R0,STATCODE         Status entry code
 006A20 05EF                       39366    3046.              BALR  R14,R15             Issue status
 006A22                            39367    3047.              IF    (VAMR15,Z),BEGIN    On zero return code continue
 006A22 D603 7640 7640 06F18 06F18 39377             +
 006A28 4770 716E            06A46 39378             +
 006A2C 58F0 7660            06F38 39383  1 3048.                L     R15,VAMADDR         Vam entry address
 006A30 4100 0034            00034 39384  1 3049.                LA    R0,WAITCODE         Wait entry code
 006A34 4110 763C            06F14 39385  1 3050.                LA    R1,VAMREGS          Point to vam registers
 006A38 05EF                       39386  1 3051.                BALR  R14,R15             Issue wait
 006A3A                            39387  1 3052.                IF    (VAMR15,Z),'CLEAR R2'   Good return
 006A3A D603 7640 7640 06F18 06F18 39397  1          +
 006A40 4770 716E/1B22       06A46 39398  1          +
 006A46                            39412    3053.              END   ,
                                                               ¿þþþþþþþþþþþþþþþþþþþþþþþþþþþþþþþþþþþþþþþþþþþþþþþþþþþþþþþþþþþÜ
                                   39416    3054.              Ÿ  Compute start time of day and the elapsed time required  Ÿ
                                                               ¾þþþþþþþþþþþþþþþþþþþþþþþþþþþþþþþþþþþþþþþþþþþþþþþþþþþþþþþþþþþ»
 006A46 B205 7658      06F30       39417    3055.              STCK  VAMEND              Save ending vam time
 006A4A 4110 7433            06D0B 39418    3056.              SEG   'VMNT020I - '       Report starting time of day
 006A4E 4100 000B            0000B 39422             +
 006A52 41F0 BB1C            00B1C 39430             +
 006A56 58E0 72D8/0DEE       06BB0 39433             +
 006A5C 9801 7658            06F30 39435    3057.              LM    R0,R1,VAMEND        Ending tod for status call
 006A60 41F0 767C            06F54 39436    3058.              LA    R15,VAMTIME         Address of receive area
 006A64 58E0 7334/0DEE       06C0C 39437    3059.              XCALL FMTTIME             Convert tod clck to time of day
 006A6A 41F0 BB1C            00B1C 39441    3060.              SEG   (R1),(R0)           Add to message
 006A6E 58E0 72D8/0DEE       06BB0 39462             +
 006A74 4110 743E            06D16 39464    3061.              SEG   ' Ending time for status call.'
 006A78 4100 001D            0001D 39468             +
 006A7C 41F0 BB1C            00B1C 39476             +
 006A80 58E0 72D8/0DEE       06BB0 39479             +
 006A86 1B00/41F0 BB1C       00B1C 39481    3062.              SEGWR ,                   Write to report file
 006A8C 58E0 72DC/0DEE       06BB4 39503             +
 006A92 4100 000B            0000B 39505    3063.              SEGBLANK 11               Tab over for readability
 006A96 41F0 BB1C            00B1C 39520             +
 006A9A 58E0 7338/0DEE       06C10 39523             +
 006AA0 9801 7650            06F28 39525    3064.              LM    R0,R1,VAMSTRT       Stck of initial call to ovam
 006AA4 41F0 767C            06F54 39526    3065.              LA    R15,VAMTIME         Address of receive area
 006AA8 58E0 7334/0DEE       06C0C 39527    3066.              XCALL FMTTIME             Convert tod clck to time of day
 006AAE 41F0 BB1C            00B1C 39531    3067.              SEG   (R1),(R0)           Add to message
 006AB2 58E0 72D8/0DEE       06BB0 39552             +
 006AB8 4110 7368            06C40 39554    3068.              SEG   ' Starting time of status call.'
 006ABC 4100 001E            0001E 39558             +
 006AC0 41F0 BB1C            00B1C 39566             +
 006AC4 58E0 72D8/0DEE       06BB0 39569             +
 006ACA 1B00/41F0 BB1C       00B1C 39571    3069.              SEGWR ,                   Write to the report file
 006AD0 58E0 72DC/0DEE       06BB4 39593             +
 006AD6 4100 000B            0000B 39595    3070.              SEGBLANK 11               Tab over for readability
 006ADA 41F0 BB1C            00B1C 39610             +
1VMNT     (VMNT21) (09:48) (22MAR04) VMNT - File Maintenance Driver - Disable/Enable                                        Page  183
0Current Usings:  (ORVCOM,R7) (VMNT,R11)
0Loc    Object Code    Addr1 Addr2  Stmt Lv Lineno    Source Statement           (Hibal 5, Asmedit 3.3)  HLASM R4.0  2004/03/22 09.48
+___    ______ ____    _____ _____  ____ __ ______    ______ _________
0006ADE 58E0 7338/0DEE       06C10 39613             +
 006AE4 98EF 7658            06F30 39615    3071.              LM    R14,R15,VAMEND      Load ending stck time
 006AE8 5FF0 7654            06F2C 39616    3072.              SDL   R14,VAMSTRT         Less starting time
 006AEC 47B0 721A/06E0       06AF2 39618             +
 006AF2 5FE0 7650            06F28 39620             +
 006AF6 8CE0 000C            0000C 39621    3073.              SRDL  R14,12              Convert to micro-seconds
 006AFA 5DE0 733C            06C14 39622    3074.              D     R14,=A(10000)       Convert to centi-seconds
 006AFE 4110 767C            06F54 39623    3075.              LA    R1,VAMTIME          Address of receive area
 006B02 4100 000B            0000B 39624    3076.              LA    R0,L'VAMTIME        Length of receive area
 006B06 8900 0008            00008 39625    3077.              SLL   R0,8                Shift over
 006B0A BF01 745B            06D33 39626    3078.              ICM   R0,1,=X'2'          Set number of decimal places
 006B0E 58E0 7340/0DEE       06C18 39627    3079.              XCALL BTR                 Convert into text
 006B14 4110 767C            06F54 39631    3080.              SEG   VAMTIME,L'VAMTIME   Move converted text into message
 006B18 4100 000B            0000B 39647             +
 006B1C 41F0 BB1C            00B1C 39655             +
 006B20 58E0 72D8/0DEE       06BB0 39658             +
 006B26 4110 7386            06C5E 39660    3081.              SEG   ' Seconds elapsed time.'
 006B2A 4100 0016            00016 39664             +
 006B2E 41F0 BB1C            00B1C 39672             +
 006B32 58E0 72D8/0DEE       06BB0 39675             +
 006B38 1B00/41F0 BB1C       00B1C 39677    3082.              SEGWR ,                   Write to the report file
 006B3E 58E0 72DC/0DEE       06BB4 39699             +
                                                               ¿þþþþþþþþþþþþþþþþþþþþþþþþþþþþþþþþþþþþþþþþÜ
                                   39701    3083.              Ÿ  Delete VAM stub and reduce use count  Ÿ
                                                               ¾þþþþþþþþþþþþþþþþþþþþþþþþþþþþþþþþþþþþþþþþ»
 006B44 4110 745C            06D34 39702    3084.              SEGWR 'VMNT012I - Deleting VAM module.'
 006B48 4100 001F            0001F 39707             +
 006B4C 41F0 BB1C            00B1C 39715             +
 006B50 58E0 72DC/0DEE       06BB4 39718             +
 006B56 4100 7674/0A09       06F4C 39720    3085.              DELETE EPLOC=VAM          Decrement use count of vam module
 006B5C 12FF/4780 72AC       06B84 39724    3086.              IF    (R15,NZ),BEGIN      Error in delete request
 006B62 4110 747B            06D53 39738  1 3087.                SEGWR 'VMNT013E - Unable to delete VAM module.'
 006B66 4100 0027            00027 39743  1          +
 006B6A 41F0 BB1C            00B1C 39751  1          +
 006B6E 58E0 72DC/0DEE       06BB4 39754  1          +
 006B74 4110 0006            00006 39756  1 3088.                ABEND 6,DUMP,STEP         Force task termination
 006B78 4100 00C0            000C0 39761  1          +
 006B7C 8900 0018/1610       00018 39762  1          +
 006B82 0A0D                       39764  1          +
 006B84                            39765    3089.              END   ,
 006B84                            39769    3090.              CLEAR VAMADDR             Clear previous address of VAM
 006B84 D703 7660 7660 06F38 06F38 39775             +
 006B8A 5BD0 7344            06C1C 39776    3091.              S     R13,=F'4'           Backoff to vs area
 006B8E 181D                       39777    3092.              LR    R1,R13              Move for freemain
 006B90 4100 0320            00320 39778    3093.              LA    R0,200*4            Length
 006B94 4110 1000/0A0A       00000 39779    3094.              FREEMAIN R,LV=(0),A=(1)   Release core
 006B9A 58D0 D000            00000 39783    3095.              L     R13,@R13            Reset vs area
 006B9E 58E0 D00C            0000C 39784    3096.              L     R14,@R13+12         Restore registers
 006BA2 980C D014            00014 39785    3097.              LM    R0,R12,@R13+20      Restore remaining registers
 006BA6 1BFF                       39786    3098.              CLEAR R15                 Zero return code
 006BA8 07FE                       39790    3099.              BR    R14                 Return
0DROP   VMNT,R11                   39792    3101.              DROP  ,                   Release all addressability
 DROP   ORVCOM,R7
1VMNT     (VMNT21) (09:48) (22MAR04) VMNT - File Maintenance Driver - Disable/Enable                                        Page  184
0Loc    Object Code    Addr1 Addr2  Stmt Lv Lineno    Source Statement           (Hibal 5, Asmedit 3.3)  HLASM R4.0  2004/03/22 09.48
+___    ______ ____    _____ _____  ____ __ ______    ______ _________
0                                  39832    3103.     ¿þþþþþþþþþþþþþþþþþþþþþþþþþþþþþþþþþþþþþþþþþþþþþþþþþþþþþþþþþþþþþþþþþþþþþÜ
                                   39833    3104.     Ÿ                                                                     Ÿ
                                   39834    3105.     Ÿ  Define final literal pool                                          Ÿ
                                   39835    3106.     Ÿ                                                                     Ÿ
                                                      ¾þþþþþþþþþþþþþþþþþþþþþþþþþþþþþþþþþþþþþþþþþþþþþþþþþþþþþþþþþþþþþþþþþþþþþ»
-006BB0                            39837    3108.              LTORG ,                   Generate all literals
 006BB0 00000000                   39839                             =V(SEG)
 006BB4 00000000                   39840                             =V(SEGWR)
 006BB8 E5D4D5E3F1F0F9C9           39841                             =C'VMNT109I - IDCAMS completion code X'''
 006BDC 00000000                   39842                             =V(SEGHX)
 006BE0 00000000                   39843                             =A(VMNT)
 006BE4 00000012                   39844                             =A(18)
 006BE8 00000011                   39845                             =A(17)
 006BEC 00000007                   39846                             =A(7)
 006BF0 00006EC4                   39847                             =A(GDGLIST)
 006BF4 00000050                   39848                             =A(80)
 006BF8 D985818461E69989           39849                             =C'Read/Write mode for '
 006C0C 00000000                   39850                             =V(FMTTIME)
 006C10 00000000                   39851                             =V(SEGBLANK)
 006C14 00002710                   39852                             =A(10000)
 006C18 00000000                   39853                             =V(BTR)
 006C1C 00000004                   39854                             =F'4'
 006C20 FFFF                       39855                             =AL2(-1)
 006C22 E5D4D5E3F0F1F0C9           39856                             =C'VMNT010I - Loading VAM module.'
 006C40 40E2A38199A38995           39857                             =C' Starting time of status call.'
 006C5E 40E28583969584A2           39858                             =C' Seconds elapsed time.'
 006C74 E5D4D5E3F1F0F3C9           39859                             =C'VMNT103I - Attaching IDCAMS'
 006C8F 7D                         39860                             =C''''
 006C90 D5D6D5E5E2C1D460           39861                             =C'NONVSAM--'
 006C99 E5D4D5E3F0F1F5C5           39862                             =C'VMNT015E - Unable to load vam module.'
 006CBE E5D4D5E3F0F1F1C9           39863                             =C'VMNT011I - VAM code has been loaded at '
 006CE5 E5D4D5E3F0F6F9C9           39864                             =C'VMNT069I - Setting '
 006CF8 D985818461D69593           39865                             =C'Read/Only mode for '
 006D0B E5D4D5E3F0F2F0C9           39866                             =C'VMNT020I - '
 006D16 40C5958489958740           39867                             =C' Ending time for status call.'
 006D33 02                         39868                             =X'2'
 006D34 E5D4D5E3F0F1F2C9           39869                             =C'VMNT012I - Deleting VAM module.'
 006D53 E5D4D5E3F0F1F3C5           39870                             =C'VMNT013E - Unable to delete VAM module.'
0006F60                06F60 06F60 39875    3110.              END   .

1VMNT     (VMNT21) (09:48) (22MAR04) Ordinary Symbol and Literal Cross Reference                                            Page  185
-Symbol   Length   Value     Id    R Type   Defn References                                  HLASM R4.0  2004/03/22 09.48
0$$$@R0        1 00000000 FFFFFFFE     J     748  1044
 $$$@R12       1 00000000 FFFFFFF2     J     904  1083   1095
 $$$@R13       1 00000000 FFFFFFF1     J     917  1108
 $$$@R14       1 00000000 FFFFFFF0     J     930  1121
 $$$@R7        1 00000000 FFFFFFF7     J     839  1057
 $$$@R8        1 00000000 FFFFFFF6     J     852  1070
 $$$C1VMNT
               1 00000EE4 00000001     J   15743 15745  15777  18584  18770
 $$$C10VMNT
               1 00005E54 00000001     J   36740 36742  36842
 $$$C11VMNT
               1 000062B3 00000001     J   37567 37569  37632  37868
 $$$C12VMNT
               1 000066E8 00000001     J   38324 38326  38371  38990
 $$$C13VMNT
               1 00006F5F 00000001     J   39871 39873
 $$$C14VMNT
               1 00006F60 00000001     J   39878 39880
 $$$C2VMNT
               1 00001A58 00000001     J   19041 19043  19109  19371  19828  20249  20343  20519
 $$$C3VMNT
               1 00001FC8 00000001     J   20901 20903  22683  23892
 $$$C4VMNT
               1 00002CAC 00000001     J   23951 23953  24190  24496  24509
 $$$C5VMNT
               1 00003EEC 00000001     J   27914 27916
 $$$C6VMNT
               1 0000443F 00000001     J   29365 29367  29414
 $$$C7VMNT
               1 000049AB 00000001     J   30835 30837  31034  31130
 $$$C8VMNT
               1 00004AB8 00000001     J   31218 31220  31304  33325  34572  34695  34795  35451  35566
 $$$C9VMNT
               1 00005A7C 00000001     J   35708 35710  35730  36433  36617
 $$$D0VMNT
               1 00000766 00000001     J    1136 13082  15422
 $$$D1VMNT
               1 00001A0F 00000001     J   15744 18735
 $$$D10VMNT
               1 000060CA 00000001     J   36741 36751
 $$$D11VMNT
               1 0000648C 00000001     J   37568 37579  37858
 $$$D12VMNT
               1 00006D7A 00000001     J   38325 38335  38966
 $$$D2VMNT
               1 00001FA4 00000001     J   19042 19098  19360  19817  20238  20332  20508
 $$$D3VMNT
               1 00002B67 00000001     J   20902 22652  23878
 $$$D4VMNT
               1 00003CAE 00000001     J   23952 23963  24500
 $$$D6VMNT
               1 00004916 00000001     J   29366 29380
 $$$D7VMNT
               1 00004AB2 00000001     J   30836 31119
 $$$D8VMNT
1VMNT     (VMNT21) (09:48) (22MAR04) Ordinary Symbol and Literal Cross Reference                                            Page  186
               1 000057FD 00000001     J   31219 31231  33256  34561  34684  34784  35440  35555
 $$$D9VMNT
               1 00005E3E 00000001     J   35709 35718  36422  36606
 $$$RATTREC
               1 00000000 FFFFFFBC     J   12627 12684  12684
 $$$RBCV_WRK
               1 00000000 FFFFFFAF     J   24462 24495  24495
 $$$RBCVLIST
               1 00000000 FFFFFFBA     J   12750 12798  12798
 $$$RCODES
               1 00000000 FFFFFFC5     J   12425 12438  12438
 $$$RDOT_WRK
               1 00000000 FFFFFFB1     J   15763 15776  15776
 $$$RFILELIST
               1 00000000 FFFFFFB9     J   12804 12828  12828
 $$$RGDG       1 00000000 FFFFFFB6     J   12894 12911  12911
 $$$RIDCFLAGS
               1 00000000 FFFFFFB4     J   12938 12980  12980
 $$$RIDCPARM
               1 00000000 FFFFFFB5     J   12917 12932  12932
 $$$RSEGCB
               1 00000000 FFFFFFC6     J   12310 12410  12410
 $$$RSMFDATA
               1 00000000 FFFFFFB3     J   12992 13015  13015
 $$$RSTCKCNVW
               1 00000000 FFFFFFB0     J   18569 18583  18583
 $$$RSTIM_WRK
               1 00000000 FFFFFFB8     J   12834 12851  12851
 $$$RSTWRK
               1 00000000 FFFFFFBB     J   12695 12736  12736
 $$$RSTYP#008
               1 00000000 FFFFFFB2     J   13026 13066  13066
 $$$RSWTO_WRK
               1 00000000 FFFFFFAE     J   31017 31033  31033
 $$$RVSIOPRM
               1 00000000 FFFFFFB7     J   12863 12888  12888
 $$$SEGCB16
               4 00000B1C 00000001     F   13468 13554  13554
 $$$SEGCB309
               4 00003D8C 00000001     F   23973 24059  24059
 $$$SEGCB58
               4 00000E40 00000001     F   15427 15513  15513
 $$$SEGCB8
               4 00000AE0 00000001     F   13380 13466  13466
 $$$100F       2 00001160 00000001     H   16682 16652B 16669B
 $$$102E       2 00001182 00000001     H   16722 16716
 $$$102F       2 0000119E 00000001     H   16749 16718B
 $$$103        1 00000070 00000001 A   U   16786 16783  16785
 $$$105B       1 000011CE 00000001     X   16817 16824U
 $$$106F       2 000011F0 00000001     H   16865 16852B
 $$$107F       2 0000121C 00000001     H   16929 16904B
 $$$107T       2 0000120A 00000001     H   16907 16894B
 $$$110        1 00000070 00000001 A   U   16997 16994  16996
 $$$112B       1 00001262 00000001     X   17028 17035U
 $$$113F       2 000012B0 00000001     H   17133 17108B
 $$$113T       2 0000129E 00000001     H   17111 17098B
 $$$116F       2 000012F2 00000001     H   17221 17195B
 $$$117F       2 00001344 00000001     H   17319 17233B
 $$$119        1 00000070 00000001 A   U   17337 17334  17336
1VMNT     (VMNT21) (09:48) (22MAR04) Ordinary Symbol and Literal Cross Reference                                            Page  187
 $$$121B       1 00001362 00000001     X   17368 17375U
 $$$122F       2 00001376 00000001     H   17407 17398B
 $$$123F       2 00001386 00000001     H   17429 17418B
 $$$124B       4 00001390 00000001     I   17445 17475
 $$$124F       2 000013A6 00000001     H   17471 17445B 17474
 $$$125B       4 000013AE 00000001     I   17491 17520
 $$$125E       2 000013AA 00000001     H   17482 17476
 $$$125F       2 000013C4 00000001     H   17517 17478B 17491B 17519
 $$$127E       2 000013C8 00000001     H   17527 17521
 $$$127F       2 000013DA 00000001     H   17550 17523B
 $$$128        1 00000070 00000001 A   U   17605 17602  17604
 $$$130B       1 00001426 00000001     X   17636 17643U
 $$$131F       2 00001436 00000001     H   17673 17662B
 $$$132F       2 00001446 00000001     H   17695 17684B
 $$$133F       2 00001456 00000001     H   17717 17706B
 $$$134F       2 00001466 00000001     H   17739 17728B
 $$$135        1 00000070 00000001 A   U   17757 17754  17756
 $$$137B       1 00001484 00000001     X   17788 17795U
 $$$138B       4 00001488 00000001     I   17815 17935
 $$$138F       2 000014DA 00000001     H   17932 17815B 17934
 $$$139B       4 000014A4 00000001     I   17847 17862
 $$$139F       2 000014B0 00000001     H   17859 17847B 17861
 $$$140E       2 000014B4 00000001     H   17869 17863
 $$$140F       2 000014C0 00000001     H   17879 17865B
 $$$141E       2 000014DE 00000001     H   17942 17936
 $$$141F       2 00001502 00000001     H   17986 17938B
 $$$142        1 00000070 00000001 A   U   18004 18001  18003
 $$$144B       1 00001520 00000001     X   18035 18042U
 $$$145F       2 00001542 00000001     H   18127 18103B 18117B
 $$$145S       2 0000152A 00000001     H   18095 18126B
 $$$148        1 00000070 00000001 A   U   18150 18147  18149
 $$$150B       1 00001560 00000001     X   18180 18187U
 $$$152        1 00000070 00000001 A   U   18234 18231  18233
 $$$154B       1 00001596 00000001     X   18266 18273U
 $$$155S       2 000015A6 00000001     H   18298 18350B
 $$$156        1 00000070 00000001 A   U   18375 18372  18374
 $$$158B       1 000015FA 00000001     X   18422 18429U
 $$$159        1 00000090 00000001 A   U   18551 18548  18550
 $$$161B       1 00001718 00000001     X   18611 18618U
 $$$162        1 000000A0 00000001 A   U   18717 18714  18716
 $$$164B       1 000017B4 00000001     X   18794 18801U
 $$$165B       4 00001814 00000001     I   18875 18888
 $$$165F       2 0000181E 00000001     H   18885 18875B 18887
 $$$166E       2 00001822 00000001     H   18895 18889
 $$$166F       2 00001842 00000001     H   18945 18891B
 $$$167B       4 00001832 00000001     I   18912 18925
 $$$167F       2 0000183C 00000001     H   18922 18912B 18924
 $$$168E       2 00001840 00000001     H   18932 18926
 $$$168F       2 00001842 00000001     H   18941 18928B
 $$$169        1 00000070 00000001 A   U   18965 18962  18964
 $$$171B       1 00001A68 00000001     X   19072 19079U
 $$$172        6 00001FA4 00000001     I   19104 19096X
 $$$173        6 00001FA4 00000001     I   19103 19104  19104
 $$$174        1 00000070 00000001 A   U   19175 19172  19174
 $$$176B       1 00001AEE 00000001     X   19201 19208U
 $$$177        1 00000070 00000001 A   U   19300 19297  19299
 $$$179B       1 00001B72 00000001     X   19326 19333U
 $$$180F       2 00001B7E 00000001     H   19376 19348B
 $$$181        6 00001FAA 00000001     I   19366 19358X
1VMNT     (VMNT21) (09:48) (22MAR04) Ordinary Symbol and Literal Cross Reference                                            Page  188
 $$$182        6 00001FAA 00000001     I   19365 19366  19366
 $$$183        1 00000070 00000001 A   U   19394 19391  19393
 $$$185B       1 00001B9C 00000001     X   19419 19426U
 $$$186        1 00000070 00000001 A   U   19456 19453  19455
 $$$188B       1 00001BC0 00000001     X   19482 19489U
 $$$189F       2 00001BEC 00000001     H   19566 19510B
 $$$190F       2 00001BEC 00000001     H   19562 19525B
 $$$191        1 00000070 00000001 A   U   19584 19581  19583
 $$$193B       1 00001C0A 00000001     X   19609 19616U
 $$$194        1 00000070 00000001 A   U   19646 19643  19645
 $$$196B       1 00001C2E 00000001     X   19672 19679U
 $$$197F       2 00001C98 00000001     H   19842 19694B
 $$$198F       2 00001C4A 00000001     H   19723 19713B
 $$$199F       2 00001C90 00000001     H   19835 19777B
 $$$199S       2 00001C5C 00000001     H   19751 19834B
 $$$201F       2 00001C7C 00000001     H   19809 19795B
 $$$202        6 00001FB0 00000001     I   19823 19815X
 $$$203        6 00001FB0 00000001     I   19822 19823  19823
 $$$204        1 00000070 00000001 A   U   19860 19857  19859
 $$$206B       1 00001CB6 00000001     X   19886 19893U
 $$$207F       2 00001CFA 00000001     H   20010 19908B
 $$$208B       4 00001CE2 00000001     I   19965 19983
 $$$208F       2 00001CEA 00000001     H   19980 19965B 19982
 $$$209E       2 00001CEE 00000001     H   19990 19984
 $$$209F       2 00001CF2 00000001     H   20003 19986B
 $$$210        1 00000070 00000001 A   U   20028 20025  20027
 $$$212B       1 00001D18 00000001     X   20054 20061U
 $$$213        1 00000070 00000001 A   U   20093 20090  20092
 $$$215B       1 00001D3A 00000001     X   20118 20125U
 $$$216        1 00000070 00000001 A   U   20157 20154  20156
 $$$218B       1 00001D5C 00000001     X   20183 20190U
 $$$219F       2 00001D76 00000001     H   20254 20205B 20224B
 $$$221        6 00001FB6 00000001     I   20244 20236X
 $$$222        6 00001FB6 00000001     I   20243 20244  20244
 $$$223        1 00000070 00000001 A   U   20272 20269  20271
 $$$225B       1 00001D94 00000001     X   20298 20305U
 $$$226F       2 00001DA4 00000001     H   20349 20320B
 $$$227        6 00001FBC 00000001     I   20338 20330X
 $$$228        6 00001FBC 00000001     I   20337 20338  20338
 $$$229        1 00000070 00000001 A   U   20367 20364  20366
 $$$231B       1 00001DC2 00000001     X   20393 20400U
 $$$232F       2 00001DD8 00000001     H   20430 20415B
 $$$233        1 00000070 00000001 A   U   20448 20445  20447
 $$$235B       1 00001DF6 00000001     X   20474 20481U
 $$$236        6 00001FC2 00000001     I   20514 20506X
 $$$237        6 00001FC2 00000001     I   20513 20514  20514
 $$$238        1 00000070 00000001 A   U   20541 20538  20540
 $$$24F        2 00000110 00000001     H   14135 13846B
 $$$240B       1 00001E4A 00000001     X   20567 20574U
 $$$241        1 00000070 00000001 A   U   20615 20612  20614
 $$$243B       1 00001E7C 00000001     X   20646 20653U
 $$$244F       2 00001ECC 00000001     H   20753 20685B
 $$$245F       2 00001EC8 00000001     H   20743 20732B
 $$$245S       2 00001EB8 00000001     H   20726 20742B
 $$$247        1 00000070 00000001 A   U   20773 20770  20772
 $$$249B       1 00001EEE 00000001     X   20804 20811U
 $$$25F        2 000000F2 00000001     H   14085 13949B
 $$$25S        2 00000080 00000001     H   13943 14084B
 $$$250        1 00000070 00000001 A   U   20866 20863  20865
1VMNT     (VMNT21) (09:48) (22MAR04) Ordinary Symbol and Literal Cross Reference                                            Page  189
 $$$252B       1 00001FD8 00000001     X   20941 20948U
 $$$253F       2 0000224C 00000001     H   21734 20966B
 $$$254F       2 00002222 00000001     H   21668 21057B
 $$$254S       2 00002012 00000001     H   21051 21667B
 $$$256F       2 0000205C 00000001     H   21119 21102B
 $$$257B       4 000020C0 00000001     I   21208 21283
 $$$257F       2 000020F2 00000001     H   21280 21208B 21282
 $$$258F       2 000020F2 00000001     H   21276 21227B
 $$$259E       2 000020F6 00000001     H   21290 21284
 $$$259F       2 0000220E 00000001     H   21631 21286B
 $$$260B       4 000020FC 00000001     I   21305 21361
 $$$260F       2 00002124 00000001     H   21358 21305B 21360
 $$$261E       2 00002128 00000001     H   21368 21362
 $$$261F       2 0000220E 00000001     H   21627 21364B
 $$$262F       2 0000220E 00000001     H   21623 21379B
 $$$263F       2 00002208 00000001     H   21615 21409B
 $$$264F       2 0000224C 00000001     H   21730 21720B
 $$$265        1 00000070 00000001 A   U   21752 21749  21751
 $$$267B       1 0000226A 00000001     X   21783 21790U
 $$$268F       2 000022CC 00000001     H   21946 21829B
 $$$269F       2 0000232C 00000001     H   22057 21964B
 $$$27F        2 00000138 00000001     H   14198 14174B
 $$$27T        2 00000120 00000001     H   14177 14164B
 $$$270F       2 00002406 00000001     H   22367 22158B
 $$$271F       2 000023C8 00000001     H   22273 22180B
 $$$272        1 00000070 00000001 A   U   22502 22499  22501
 $$$274B       1 0000246E 00000001     X   22533 22540U
 $$$275        1 00000070 00000001 A   U   22642 22639  22641
 $$$277B       1 000024CC 00000001     X   22708 22715U
 $$$278F       2 00002662 00000001     H   23102 22735B
 $$$278S       2 000024D0 00000001     H   22730 23101B
 $$$280F       2 0000265A 00000001     H   23096 22772B
 $$$281F       2 00002640 00000001     H   23069 22970B
 $$$282        1 00000070 00000001 A   U   23126 23123  23125
 $$$283F       2 0000274A 00000001     H   23392 23190B
 $$$284B       1 00002684 00000001     X   23158 23165U
 $$$286F       2 00002744 00000001     H   23372 23207B
 $$$286S       2 00002692 00000001     H   23202 23371B
 $$$288F       2 000026D2 00000001     H   23256 23238B
 $$$289        1 00000070 00000001 A   U   23401 23398  23400
 $$$29F        2 00000168 00000001     H   14271 14210B 14227B
 $$$291B       1 00002768 00000001     X   23435 23442U
 $$$292B       4 00002784 00000001     I   23498 23524
 $$$292F       2 00002798 00000001     H   23521 23498B 23523
 $$$293E       2 0000279C 00000001     H   23531 23525
 $$$293F       2 0000285C 00000001     H   23822 23527B
 $$$294B       4 000027B0 00000001     I   23577 23771
 $$$294F       2 00002838 00000001     H   23768 23577B 23770
 $$$297F       2 000027CC 00000001     H   23617 23593B
 $$$299F       2 000027E4 00000001     H   23653 23629B
 $$$301F       2 000027FC 00000001     H   23689 23665B
 $$$303F       2 00002814 00000001     H   23725 23701B
 $$$305F       2 0000282C 00000001     H   23761 23737B
 $$$307E       2 0000283C 00000001     H   23778 23772
 $$$307F       2 0000284C 00000001     H   23798 23774B
 $$$308        1 00000070 00000001 A   U   23868 23865  23867
 $$$31F        2 00000168 00000001     H   14267 14247B
 $$$317F       2 00002DDE 00000001     H   24442 24291B 24322B
 $$$318B       1 00002CBC 00000001     X   24220 24227U
1VMNT     (VMNT21) (09:48) (22MAR04) Ordinary Symbol and Literal Cross Reference                                            Page  190
 $$$319F       2 00002CE6 00000001     H   24295 24283B
 $$$32F        2 000001BE 00000001     H   14385 14297B 14315B
 $$$321F       2 00002D06 00000001     H   24326 24314B
 $$$323S       2 00002D06 00000001     H   24332 24351B
 $$$324        1 00000070 00000001 A   U   24451 24448  24450
 $$$326B       1 00002DFC 00000001     X   24536 24543U
 $$$327F       2 00003254 00000001     H   25760 24589B
 $$$328F       2 00002E24 00000001     H   24624 24605B
 $$$329F       2 00002EEE 00000001     H   24862 24764B
 $$$329S       2 00002E9E 00000001     H   24758 24861B
 $$$331F       2 00003056 00000001     H   25205 25136B
 $$$331T       2 0000302E 00000001     H   25139 25126B
 $$$333F       2 00003056 00000001     H   25201 25151B
 $$$334F       2 00003086 00000001     H   25268 25217B
 $$$335F       2 00003124 00000001     H   25456 25292B
 $$$335S       2 0000309E 00000001     H   25286 25455B
 $$$337F       2 00003254 00000001     H   25751 25619B
 $$$337T       2 000031FC 00000001     H   25622 25609B
 $$$339F       2 00003224 00000001     H   25684 25634B
 $$$340F       2 00003254 00000001     H   25747 25696B
 $$$341        1 00000098 00000001 A   U   25832 25829  25831
 $$$343B       1 00003288 00000001     X   25867 25874U
 $$$344F       2 0000389C 00000001     H   27801 25927B
 $$$345F       2 000032B6 00000001     H   25962 25943B
 $$$346F       2 000036D8 00000001     H   27321 26185B
 $$$346S       2 00003384 00000001     H   26179 27320B
 $$$348B       4 0000338E 00000001     I   26213 26395
 $$$348F       2 00003418 00000001     H   26392 26213B 26394
 $$$349E       2 0000341C 00000001     H   26402 26396
 $$$349F       2 000036D0 00000001     H   27310 26398B
 $$$35F        2 00000190 00000001     H   14344 14333B
 $$$350F       2 00003458 00000001     H   26475 26423B
 $$$351F       2 000035DA 00000001     H   26979 26502B
 $$$353F       2 000035DA 00000001     H   26975 26681B
 $$$353S       2 000034F0 00000001     H   26673 26974B
 $$$356F       2 000035D6 00000001     H   26970 26701B
 $$$357B       4 00003698 00000001     I   27221 27249
 $$$357F       2 000036AE 00000001     H   27246 27221B 27248
 $$$358E       2 000036B2 00000001     H   27256 27250
 $$$358F       2 000036C4 00000001     H   27278 27252B
 $$$359F       2 00003886 00000001     H   27754 27364B
 $$$36F        2 000001CC 00000001     H   14422 14410B
 $$$360F       2 00003856 00000001     H   27687 27618B
 $$$360T       2 0000382E 00000001     H   27621 27608B
 $$$362F       2 00003856 00000001     H   27683 27633B
 $$$363F       2 00003886 00000001     H   27750 27699B
 $$$364        1 00000098 00000001 A   U   27829 27826  27828
 $$$365F       2 000041C6 00000001     H   28711 28002B 28682B
 $$$366B       1 00003EFC 00000001     X   27947 27954U
 $$$368F       2 00003FB8 00000001     H   28218 28095B
 $$$368S       2 00003F56 00000001     H   28089 28217B
 $$$37F        2 000001DA 00000001     H   14458 14446B
 $$$370F       2 000040C4 00000001     H   28452 28383B
 $$$370T       2 0000409C 00000001     H   28386 28373B
 $$$372F       2 000040C4 00000001     H   28448 28398B
 $$$373F       2 000040F4 00000001     H   28515 28464B
 $$$374F       2 00004162 00000001     H   28646 28578B
 $$$374S       2 00004122 00000001     H   28571 28645B
 $$$376F       2 0000414E 00000001     H   28634 28590B
1VMNT     (VMNT21) (09:48) (22MAR04) Ordinary Symbol and Literal Cross Reference                                            Page  191
 $$$377F       2 0000414E 00000001     H   28630 28602B
 $$$378F       2 0000414E 00000001     H   28626 28614B
 $$$379        1 00000098 00000001 A   U   28720 28717  28719
 $$$38F        2 000001E8 00000001     H   14488 14476B
 $$$380F       2 0000428E 00000001     H   29027 28997B
 $$$381B       1 000041E4 00000001     X   28755 28762U
 $$$382F       2 0000428A 00000001     H   29012 28804B
 $$$382S       2 000041FA 00000001     H   28798 29011B
 $$$384F       2 00004282 00000001     H   29001 28834B
 $$$385F       2 00004260 00000001     H   28943 28878B
 $$$386B       4 00004250 00000001     I   28901 28919
 $$$386F       2 00004258 00000001     H   28916 28901B 28918
 $$$387E       2 0000425C 00000001     H   28926 28920
 $$$387F       2 00004260 00000001     H   28939 28922B
 $$$388F       2 0000426E 00000001     H   28967 28952B
 $$$389F       2 0000427C 00000001     H   28990 28975B
 $$$39F        2 000001F6 00000001     H   14517 14505B
 $$$390        1 00000070 00000001 A   U   29036 29033  29035
 $$$392B       1 000042AC 00000001     X   29067 29074U
 $$$393F       2 000042E8 00000001     H   29166 29148B
 $$$393T       2 000042CC 00000001     H   29151 29126B 29138B
 $$$396F       2 000042F2 00000001     H   29192 29180B
 $$$397        1 00000070 00000001 A   U   29220 29217  29219
 $$$399B       1 00004310 00000001     X   29252 29259U
 $$$40F        2 00000216 00000001     H   14577 14535B
 $$$400        1 00000070 00000001 A   U   29324 29321  29323
 $$$402B       1 00004450 00000001     X   29444 29451U
 $$$403F       2 00004504 00000001     H   29681 29470B
 $$$404F       2 00004488 00000001     H   29526 29485B
 $$$405F       2 00004488 00000001     H   29522 29507B
 $$$406F       2 000044B0 00000001     H   29576 29537B
 $$$407F       2 000044B0 00000001     H   29572 29557B
 $$$408F       2 000044D8 00000001     H   29626 29587B
 $$$409F       2 000044D8 00000001     H   29622 29607B
 $$$41F        2 00000216 00000001     H   14573 14550B
 $$$410F       2 00004504 00000001     H   29677 29637B
 $$$411F       2 00004504 00000001     H   29673 29658B
 $$$412        1 00000070 00000001 A   U   29699 29696  29698
 $$$414B       1 00004522 00000001     X   29733 29740U
 $$$415F       2 00004692 00000001     H   30233 29762B
 $$$415S       2 00004526 00000001     H   29756 30232B
 $$$417B       4 00004634 00000001     I   30093 30123
 $$$417F       2 0000464A 00000001     H   30119 30093B 30122
 $$$418B       4 00004652 00000001     I   30139 30168
 $$$418E       2 0000464E 00000001     H   30130 30124
 $$$418F       2 00004668 00000001     H   30165 30126B 30139B 30167
 $$$42F        2 00000224 00000001     H   14607 14595B
 $$$420E       2 0000466C 00000001     H   30175 30169
 $$$420F       2 0000467E 00000001     H   30198 30171B
 $$$421        1 00000070 00000001 A   U   30251 30248  30250
 $$$423B       1 000046B0 00000001     X   30283 30290U
 $$$424F       2 00004830 00000001     H   30790 30312B
 $$$424S       2 000046B8 00000001     H   30306 30789B
 $$$426B       4 000046CC 00000001     I   30344 30399
 $$$426F       2 000046F4 00000001     H   30396 30344B 30398
 $$$427E       2 000046F8 00000001     H   30406 30400
 $$$427F       2 000047E8 00000001     H   30697 30402B
 $$$428B       4 000047A6 00000001     I   30611 30647
 $$$428F       2 000047C0 00000001     H   30644 30611B 30646
1VMNT     (VMNT21) (09:48) (22MAR04) Ordinary Symbol and Literal Cross Reference                                            Page  192
 $$$429E       2 000047C4 00000001     H   30654 30648
 $$$429F       2 000047D6 00000001     H   30676 30650B
 $$$43F        2 00000232 00000001     H   14631 14619B
 $$$430        1 00000070 00000001 A   U   30808 30805  30807
 $$$432B       1 000049BC 00000001     X   30866 30873U
 $$$433F       2 000049FC 00000001     H   30953 30933B
 $$$433T       2 000049D8 00000001     H   30936 30911B 30923B
 $$$436F       2 00004A06 00000001     H   30979 30967B
 $$$437        1 00000070 00000001 A   U   31002 30999  31001
 $$$439B       1 00004A24 00000001     X   31061 31068U
 $$$44F        2 00000254 00000001     H   14662 14646B
 $$$440        6 00004AB2 00000001     I   31125 31117X
 $$$441        6 00004AB2 00000001     I   31124 31125  31125
 $$$442F       2 00004A6A 00000001     H   31152 31141B
 $$$443F       2 00004A7C 00000001     H   31171 31160B
 $$$444        1 000000DC 00000001 A   U   31208 31205  31207
 $$$446B       1 00004AC8 00000001     X   31335 31342U
 $$$447F       2 00004AF6 00000001     H   31396 31362B
 $$$448F       2 00004AF6 00000001     H   31392 31382B
 $$$45F        2 00000340 00000001     H   14883 14676B
 $$$451F       2 00004C1E 00000001     H   31797 31746B
 $$$452F       2 00004C1E 00000001     H   31793 31765B
 $$$453F       2 00004C58 00000001     H   31861 31810B
 $$$454F       2 00004C58 00000001     H   31857 31829B
 $$$455F       2 00004D6C 00000001     H   32207 32044B
 $$$457B       4 00004D7C 00000001     I   32227 32245
 $$$457F       2 00004D84 00000001     H   32242 32227B 32244
 $$$458E       2 00004D88 00000001     H   32252 32246
 $$$458F       2 00004DAE 00000001     H   32306 32248B
 $$$459B       4 00004DC6 00000001     I   32336 32390
 $$$459F       2 00004DEC 00000001     H   32387 32336B 32389
 $$$46F        2 00000334 00000001     H   14857 14786B
 $$$460E       2 00004DF0 00000001     H   32397 32391
 $$$460F       2 00004E26 00000001     H   32462 32393B
 $$$461F       2 00004E72 00000001     H   32552 32484B
 $$$462F       2 00004F22 00000001     H   32709 32681B
 $$$463F       2 00004F74 00000001     H   32796 32740B
 $$$463S       2 00004F3C 00000001     H   32733 32795B
 $$$465        1 00000070 00000001 A   U   32833 32830  32832
 $$$467B       1 00004FA4 00000001     X   32864 32871U
 $$$468F       2 00004FEC 00000001     H   32966 32915B
 $$$47F        2 00000334 00000001     H   14853 14803B
 $$$470        1 00000070 00000001 A   U   32992 32989  32991
 $$$472B       1 0000500A 00000001     X   33018 33025U
 $$$473        1 00000070 00000001 A   U   33083 33080  33082
 $$$475B       1 00005082 00000001     X   33116 33123U
 $$$476F       2 000050A4 00000001     H   33195 33184B
 $$$476T       2 0000509A 00000001     H   33187 33162B 33174B
 $$$479F       2 000050AE 00000001     H   33221 33209B
 $$$48F        2 0000035A 00000001     H   14915 14896B
 $$$480        1 00000070 00000001 A   U   33244 33241  33243
 $$$482B       1 000050CC 00000001     X   33356 33363U
 $$$483        1 00000070 00000001 A   U   33486 33483  33485
 $$$485B       1 0000514C 00000001     X   33512 33519U
 $$$486        1 00000070 00000001 A   U   33551 33548  33550
 $$$488B       1 0000516E 00000001     X   33577 33584U
 $$$489        1 00000070 00000001 A   U   33630 33627  33629
 $$$49B        4 00000366 00000001     I   14934 14962
 $$$49F        2 0000037C 00000001     H   14959 14934B 14961
1VMNT     (VMNT21) (09:48) (22MAR04) Ordinary Symbol and Literal Cross Reference                                            Page  193
 $$$491B       1 00005194 00000001     X   33656 33663U
 $$$492        1 00000070 00000001 A   U   33708 33705  33707
 $$$494B       1 000051BE 00000001     X   33734 33741U
 $$$495        1 00000070 00000001 A   U   33786 33783  33785
 $$$497B       1 000051E8 00000001     X   33812 33819U
 $$$498        1 00000070 00000001 A   U   33895 33892  33894
 $$$50E        2 00000380 00000001     H   14969 14963
 $$$50F        2 00000392 00000001     H   14991 14965B
 $$$500B       1 0000521E 00000001     X   33921 33928U
 $$$501        1 00000070 00000001 A   U   34004 34001  34003
 $$$503B       1 00005254 00000001     X   34030 34037U
 $$$504        1 00000070 00000001 A   U   34075 34072  34074
 $$$506B       1 0000527A 00000001     X   34101 34108U
 $$$507        1 00000070 00000001 A   U   34146 34143  34145
 $$$509B       1 000052A0 00000001     X   34172 34179U
 $$$510        1 00000070 00000001 A   U   34211 34208  34210
 $$$512B       1 000052C2 00000001     X   34237 34244U
 $$$513        1 00000070 00000001 A   U   34277 34274  34276
 $$$515B       1 000052E4 00000001     X   34303 34310U
 $$$516        1 00000070 00000001 A   U   34343 34340  34342
 $$$518B       1 00005306 00000001     X   34369 34376U
 $$$519        1 00000070 00000001 A   U   34409 34406  34408
 $$$52F        2 00000460 00000001     H   15202 15178B
 $$$52S        2 0000044C 00000001     H   15167 15199B
 $$$521B       1 00005328 00000001     X   34435 34442U
 $$$522        1 00000070 00000001 A   U   34474 34471  34473
 $$$524B       1 0000534A 00000001     X   34500 34507U
 $$$525F       2 00005354 00000001     H   34535 34522B
 $$$526F       2 00005360 00000001     H   34552 34542B
 $$$527        6 00005A5E 00000001     I   34567 34559X
 $$$528        6 00005A5E 00000001     I   34566 34567  34567
 $$$529        1 00000070 00000001 A   U   34597 34594  34596
 $$$531B       1 00005390 00000001     X   34623 34630U
 $$$532F       2 0000539A 00000001     H   34658 34645B
 $$$533F       2 000053A6 00000001     H   34675 34665B
 $$$534        6 00005A64 00000001     I   34690 34682X
 $$$535        6 00005A64 00000001     I   34689 34690  34690
 $$$536        1 00000070 00000001 A   U   34714 34711  34713
 $$$538B       1 000053D2 00000001     X   34740 34747U
 $$$539F       2 000053DC 00000001     H   34775 34762B
 $$$540        6 00005A6A 00000001     I   34790 34782X
 $$$541        6 00005A6A 00000001     I   34789 34790  34790
 $$$542        1 00000070 00000001 A   U   34814 34811  34813
 $$$544B       1 00005408 00000001     X   34840 34847U
 $$$545        1 00000070 00000001 A   U   34879 34876  34878
 $$$547B       1 0000542A 00000001     X   34905 34912U
 $$$548        1 00000070 00000001 A   U   34944 34941  34943
 $$$550B       1 0000544C 00000001     X   34970 34977U
 $$$551        1 00000070 00000001 A   U   35010 35007  35009
 $$$553B       1 0000546E 00000001     X   35036 35043U
 $$$554        1 00000070 00000001 A   U   35075 35072  35074
 $$$556B       1 00005490 00000001     X   35101 35108U
 $$$557        1 00000070 00000001 A   U   35146 35143  35145
 $$$559B       1 000054B6 00000001     X   35172 35179U
 $$$56F        2 00000500 00000001     H   15397 15384B
 $$$56S        2 000004E4 00000001     H   15376 15396B
 $$$560        1 00000070 00000001 A   U   35211 35208  35210
 $$$562B       1 000054D8 00000001     X   35237 35244U
 $$$563        1 00000070 00000001 A   U   35283 35280  35282
1VMNT     (VMNT21) (09:48) (22MAR04) Ordinary Symbol and Literal Cross Reference                                            Page  194
 $$$565B       1 000054FE 00000001     X   35309 35316U
 $$$566        1 00000070 00000001 A   U   35355 35352  35354
 $$$568B       1 00005524 00000001     X   35381 35388U
 $$$569F       2 00005536 00000001     H   35432 35419B
 $$$569T       2 00005530 00000001     H   35422 35407B
 $$$571        6 00005A70 00000001     I   35446 35438X
 $$$572        6 00005A70 00000001     I   35445 35446  35446
 $$$573        1 00000070 00000001 A   U   35470 35467  35469
 $$$575B       1 0000555C 00000001     X   35496 35503U
 $$$576F       2 0000556E 00000001     H   35547 35534B
 $$$576T       2 00005568 00000001     H   35537 35522B
 $$$578        6 00005A76 00000001     I   35561 35553X
 $$$579        6 00005A76 00000001     I   35560 35561  35561
 $$$580        1 00000070 00000001 A   U   35585 35582  35584
 $$$582B       1 00005594 00000001     X   35611 35618U
 $$$583        1 00000070 00000001 A   U   35650 35647  35649
 $$$585B       1 00005A8C 00000001     X   35755 35762U
 $$$586F       2 00005B76 00000001     H   36038 35833B 35850B 35868B 35886B 35906B
 $$$591F       2 00005B76 00000001     H   36034 35962B
 $$$591S       2 00005AC2 00000001     H   35916 36033B
 $$$593F       2 00005B72 00000001     H   36029 35980B
 $$$594        1 00000070 00000001 A   U   36056 36053  36055
 $$$596B       1 00005B94 00000001     X   36087 36094U
 $$$597F       2 00005C78 00000001     H   36300 36113B 36130B 36148B 36168B
 $$$601F       2 00005C78 00000001     H   36296 36224B
 $$$601S       2 00005BB6 00000001     H   36178 36295B
 $$$603F       2 00005C74 00000001     H   36291 36242B
 $$$604        1 00000070 00000001 A   U   36318 36315  36317
 $$$606B       1 00005C96 00000001     X   36357 36364U
 $$$607        6 00005E48 00000001     I   36428 36420X
 $$$608        6 00005E48 00000001     I   36427 36428  36428
 $$$609B       4 00005CEE 00000001     I   36445 36458
 $$$609F       2 00005CFA 00000001     H   36455 36445B 36457
 $$$610E       2 00005CFE 00000001     H   36465 36459
 $$$610F       2 00005D0A 00000001     H   36473 36461B
 $$$611        1 00000070 00000001 A   U   36499 36496  36498
 $$$613B       1 00005D30 00000001     X   36537 36544U
 $$$614        6 00005E4E 00000001     I   36612 36604X
 $$$615        6 00005E4E 00000001     I   36611 36612  36612
 $$$616B       4 00005D9C 00000001     I   36651 36664
 $$$616F       2 00005DA8 00000001     H   36661 36651B 36663
 $$$617E       2 00005DAC 00000001     H   36671 36665
 $$$617F       2 00005DB8 00000001     H   36679 36667B
 $$$618        1 00000070 00000001 A   U   36710 36707  36709
 $$$620B       1 00005E64 00000001     X   36874 36881U
 $$$621F       2 00005E98 00000001     H   36935 36906B
 $$$622F       2 00005ED4 00000001     H   37019 36968B
 $$$624B       4 00005EEC 00000001     I   37074 37109
 $$$624F       2 00005F20 00000001     H   37106 37074B 37108
 $$$626E       2 00005F24 00000001     H   37116 37110
 $$$626F       2 00005F2C 00000001     H   37124 37112B
 $$$627        1 00000070 00000001 A   U   37158 37155  37157
 $$$629B       1 00005F4E 00000001     X   37189 37196U
 $$$630F       2 00005F64 00000001     H   37237 37215B
 $$$631F       2 00005F86 00000001     H   37287 37248B
 $$$632        1 00000070 00000001 A   U   37311 37308  37310
 $$$634B       1 00005FB0 00000001     X   37344 37351U
 $$$635        1 00000070 00000001 A   U   37384 37381  37383
 $$$637B       1 00005FD8 00000001     X   37420 37427U
1VMNT     (VMNT21) (09:48) (22MAR04) Ordinary Symbol and Literal Cross Reference                                            Page  195
 $$$638        1 00000070 00000001 A   U   37475 37472  37474
 $$$640B       1 00006028 00000001     X   37501 37508U
 $$$641        1 00000070 00000001 A   U   37557 37554  37556
 $$$643B       1 000062C4 00000001     X   37666 37673U
 $$$644F       2 0000634A 00000001     H   37783 37728B
 $$$645B       4 0000631A 00000001     I   37746 37760
 $$$645F       2 0000632C 00000001     H   37757 37746B 37759
 $$$646E       2 00006330 00000001     H   37767 37761
 $$$646F       2 0000634A 00000001     H   37779 37763B
 $$$647F       2 0000636C 00000001     H   37821 37804B
 $$$648        1 00000070 00000001 A   U   37844 37841  37843
 $$$649F       2 00006386 00000001     H   37907 37894B
 $$$650B       1 00006388 00000001     X   37918 37925U
 $$$651F       2 000063AE 00000001     H   37963 37951B
 $$$652B       4 000063D4 00000001     I   38078 38091
 $$$652F       2 000063DE 00000001     H   38088 38078B 38090
 $$$653E       2 000063E2 00000001     H   38098 38092
 $$$653F       2 000063EC 00000001     H   38105 38094B
 $$$654F       2 0000642A 00000001     H   38172 38137B
 $$$655F       2 0000642A 00000001     H   38168 38153B
 $$$656F       2 0000643E 00000001     H   38197 38187B
 $$$657F       2 00006458 00000001     H   38297 38284B
 $$$659B       1 000066F8 00000001     X   38411 38418U
 $$$660        1 00000070 00000001 A   U   38629 38626  38628
 $$$661B       4 00006842 00000001     I   38747 38800
 $$$661F       2 0000687A 00000001     H   38797 38747B 38799
 $$$662F       2 0000687A 00000001     H   38793 38759B
 $$$663F       2 0000687A 00000001     H   38789 38771B
 $$$664E       2 0000687E 00000001     H   38807 38801
 $$$664F       2 0000688E 00000001     H   38835 38803B
 $$$665F       2 0000688E 00000001     H   38831 38822B
 $$$666F       2 000068CA 00000001     H   38907 38872B
 $$$667F       2 00006938 00000001     H   39097 39062B
 $$$668B       4 00006986 00000001     I   39192 39273
 $$$668F       2 000069C6 00000001     H   39270 39192B 39272
 $$$669E       2 000069CA 00000001     H   39280 39274
 $$$669F       2 00006A04 00000001     H   39358 39276B
 $$$67B        1 00000516 00000001     X   15547 15554U
 $$$670F       2 00006A46 00000001     H   39415 39378B
 $$$671F       2 00006A46 00000001     H   39411 39398B
 $$$672F       2 00006B84 00000001     H   39768 39733B
 $$$68F        2 00000578 00000001     H   15660 15613B
 $$$68T        2 00000530 00000001     H   15616 15591B 15603B
 $$$71         1 00000070 00000001 A   U   15683 15680  15682
 $$$73B        1 00000EF4 00000001     X   15804 15811U
 $$$74B        4 00000EFA 00000001     I   15839 15852
 $$$74F        2 00000F04 00000001     H   15849 15839B 15851
 $$$75E        2 00000F08 00000001     H   15859 15853
 $$$75F        2 00000F0E 00000001     H   15866 15855B
 $$$76         1 00000074 00000001 A   U   15890 15887  15889
 $$$77F        2 00001022 00000001     H   16228 15950B
 $$$78B        1 00000F30 00000001     X   15921 15928U
 $$$80F        2 00000F84 00000001     H   16039 15990B
 $$$81F        2 00000F84 00000001     H   16035 16022B
 $$$82F        2 00000FA6 00000001     H   16090 16064B
 $$$82T        2 00000F94 00000001     H   16067 16054B
 $$$84B        4 00000FC4 00000001     I   16129 16167
 $$$84F        2 00000FEE 00000001     H   16164 16129B 16166
 $$$85E        2 00000FF2 00000001     H   16174 16168
1VMNT     (VMNT21) (09:48) (22MAR04) Ordinary Symbol and Literal Cross Reference                                            Page  196
 $$$85F        2 00001022 00000001     H   16219 16170B
 $$$86         1 00000070 00000001 A   U   16237 16234  16236
 $$$87F        2 000011B0 00000001     H   16777 16297B
 $$$88B        1 00001040 00000001     X   16268 16275U
 $$$90F        2 000010D8 00000001     H   16494 16346B
 $$$91F        2 000010A0 00000001     H   16408 16382B
 $$$92F        2 000010BA 00000001     H   16445 16419B
 $$$93F        2 000010D8 00000001     H   16489 16456B
 $$$94F        2 000010D2 00000001     H   16481 16472B
 $$$95F        2 000010FA 00000001     H   16545 16519B
 $$$95T        2 000010E8 00000001     H   16522 16509B
 $$$97B        4 0000111C 00000001     I   16588 16618
 $$$97F        2 0000113A 00000001     H   16615 16588B 16617
 $$$98E        2 0000113E 00000001     H   16625 16619
 $$$98F        2 0000119E 00000001     H   16753 16621B
 $$$99B        4 00001144 00000001     I   16637 16715
 $$$99F        2 0000117E 00000001     H   16712 16637B 16714
 @R0           0 00000000 FFFFFFFE     @     749  1025U  3320U
 @R1           0 00000000 FFFFFFFD     @     762  1021U 15389  18198  19103  19135M 19148M 19365  19712  19718  19822
                                                 20243  20337  20421  20498M 20499M 20499  20500M 20501  20513M 20521
                                                 20522M 20750U 20839M 20842M 20843M 21088M 21126  25798U 26852U 26899U
                                                 27792U 28557U 29296  30772U 31353  31908  31910  32630  34566  34689
                                                 34789  35445  35560  36427  36611  36689U 37284U 37705M 37706  37707M
                                                 37775M 38111U 38720  38783  38890M 38891M 39028M 39029
 @R10          0 00000000 FFFFFFF4     @     879   985U 24435U 25811U 27808U 28699U 29020U 29204U 29308U
 @R11          0 00000000 FFFFFFF3     @     892   981U 37989U 38223U 38932U 39804U
 @R12          0 00000000 FFFFFFF2     @     905   977U 36724U 38218U
 @R13          0 00000000 FFFFFFF1     @     918   973U 13769M 15029  15030  37268M 37269  37928M 38025M 38174  38198
                                                 38640M 38704  38849  38850  38909  38910  39002M 39783  39784  39785
 @R14          0 00000000 FFFFFFF0     @     931   969U
 @R15          0 00000000 FFFFFFEF     @     944   965U 13791U 18075U 18134U 19220  21497U 21546U 22782  30766U 33228U
                                                 37914U 38303U 38681U
 @R2           0 00000000 FFFFFFFC     @     775  1017U 14132U 14880U 15169  15330  15331  15349U 15362U 15406U 15626
                                                 18455  18456  18486  18487  18696U 19159U 19284U 19559U 20497M 20523
                                                 20720  20738  20744M 22734M 22734  23097  23206M 23206  23367  23852U
                                                 24430U 25757U 27317U 28214U 29008U 29199U 29303U 30229U 30786U 31110
                                                 31147  31166  31444U 31890U 32032  32033  32034  32459U 32614  32644U
                                                 32973U 33190M 35794U 35822U 36483U 36694U 37026U 37142U 37698  37707
                                                 38693U 38764  38776
 @R3           0 00000000 FFFFFFFB     @     788  1013U 14870U 18108  19253M 19270  19794  19810M 19822M 19830  21948
                                                 21949  22783U 26986U 30452  30453  32454U 37137U 37828U
 @R4           0 00000000 FFFFFFFA     @     801  1009U 14875U 20513  20850U 21662U 26967U 31124  38842U 38904U
 @R5           0 00000000 FFFFFFF9     @     814  1005U 15667U 22486U 30938  31133M 31148M 31167M 38918U
 @R6           0 00000000 FFFFFFF8     @     827  1001U 23819U 30986U 31187U
 @R7           0 00000000 FFFFFFF7     @     840   997U 15672U 15879U 16226U 16775U 16986U 17326U 17594U 17746U 17993U
                                                 18139U 18223U 18364U 18540U 18706U 18954U 19164U 19289U 19383U 19445U
                                                 19573U 19635U 19849U 20017U 20082U 20146U 20261U 20356U 20437U 20530U
                                                 20604U 20762U 20855U 21741U 22491U 22631U 23115U 23390U 23857U 24440U
                                                 25821U 27818U 28709U 29025U 29209U 29313U 29688U 30240U 30797U 30991U
                                                 31197U 32822U 32981U 33072U 33233U 33475U 33540U 33619U 33697U 33775U
                                                 33884U 33993U 34064U 34135U 34200U 34266U 34332U 34398U 34463U 34586U
                                                 34703U 34803U 34868U 34933U 34999U 35064U 35135U 35200U 35272U 35344U
                                                 35459U 35574U 35639U 36045U 36307U 36488U 36699U 37147U 37300U 37373U
                                                 37464U 37546U 37833U 38000U 38206U 38618U 38943U 39815U
 @R8           0 00000000 FFFFFFF6     @     853   993U 15874U 18535U 18701U 25816U 27813U 28704U 31192U
 @R9           0 00000000 FFFFFFF5     @     866   989U
 ABORT         2 00000470 00000001     H   15225 15131B
 ADDBCV        2 00005D20 00000001     H   36519 20889
 ADDFILE       2 00005C86 00000001     H   36339 20886
1VMNT     (VMNT21) (09:48) (22MAR04) Ordinary Symbol and Literal Cross Reference                                            Page  197
 AHLHEAD       1 00000000 00000000 A   T   10624 10624
 AHLVCCR8      1 00000000 00000000 A   T   11115 11115
 ALTSYS        7 000008C9 00000001     C   13122 34547  34548  34670  34671
 ANS_No        1 000008D3 00000001     ‚   13279 20139M
 ANS_Yes       1 000008D3 00000001        13270 19964  20075M
 ASMVT         1 00000000 00000000 A   T   11004 11004
 ATTABND       2 00000038 FFFFFFBC     H   12675 17837  38123M
 ATTASK        2 000017A4 00000001     H   18776 18987  27858  29348
 ATTCLR       20 00000028 FFFFFFBC     X   12677 18816M 18816
 ATTCMP        4 00000028 FFFFFFBC     F   12671 12677  12677  38084M 38101M 38119
 ATTDDNM       8 00000008 FFFFFFBC     D   12634 15965M 16312M
 ATTECB        4 0000002C FFFFFFBC     A   12672 18842  18858  18897
 ATTENDT       8 00000018 FFFFFFBC     D   12636 18946M 25021  27503
 ATTFABND    128 00000020 FFFFFFBC        12644 16587  17814  18826  18826  18874  38118M
 ATTFDRST     32 00000020 FFFFFFBC        12654 18826  18826  18827M 38163M
 ATTFLGS       1 00000020 FFFFFFBC     R   12640 12644  12649  12654
 ATTFRST      64 00000020 FFFFFFBC        12649 16318M 38136
 ATTLIST       4 00001A10 00000001     F   18744 18839
 ATTPGNM       8 00000000 FFFFFFBC     D   12633 15964M 16311M 16841M 17052M 17246M 18198M 18840  24897M 25491M 27378M
                                                 28252M
 ATTPRM        4 00000024 FFFFFFBC     F   12670 16117M 16118M 16572M 16573M 16956M 16957M 17160M 17161M 17292M 17293M
                                                 18838  24899M 24900M 25493M 25494M 27380M 27381M 28254M 28255M 28257M
                                                 28258M
 ATTR         12 0000000C FFFFFFFF A   #    1089 13809U 15956M 16303M 16833M 17044M 17238M 18196M 18845  24896M 25490M
                                                 27377M 28251M 38053U 38083M 38100M
 ATTREC       60 00000000 FFFFFFBC     J   12684 13809U 15963M 15963  16310M 16310  16840M 16840  17051M 17051  17245M
                                                 17245  23883  23884  23885  23886  23887  38053U
 ATTRET        4 00000034 FFFFFFBC     F   12674 16627  17384  17961  18899M 24943  25114  25216M 25216  25537  25597
                                                 25695M 25695  27425  27596  27698M 27698  28301  28361  28463M 28463
 ATTSTRT       8 00000010 FFFFFFBC     D   12635 18817M 25023  25026  27505  27508
 ATTTCB        4 00000030 FFFFFFBC     A   12673 18852M 18863
 ATTUSR        2 0000003A FFFFFFBC     H   12676 17875  38125M
 Avoid         1 000008D5 00000001     R   13319 13323
 A1005         4 00000424 00000001     I   15125 18211B
 BCA_BLKZ      2 00004994 00000001     R   29407 29397
 BCA_DDN       2 00004964 00000001     R   29402 29389  29392  29490M 29542M 29592M 29644M
 BCA_LOGF      8 0000492E 00000001     C   29387 29628  29644
 BCA_LREC      2 0000499C 00000001     R   29408 29398
 BCA_OUT$      2 00004960 00000001     R   29401 29390
 BCA_PRIM      2 0000498B 00000001     R   29406 29396
 BCA_RECF      2 000049A4 00000001     R   29409 29399
 BCA_SOUT      8 00004926 00000001     C   29386 29578  29592
 BCA_SPAC      2 00004979 00000001     R   29404 29394
 BCA_STAT      2 00004972 00000001     R   29403 29393
 BCA_STP1      4 00004950 00000001     A   29396 29491M 29543M 29593M
 BCA_SYSN      8 00004916 00000001     C   29384 29476  29490
 BCA_S99       4 00004940 00000001     A   29392 29492
 BCA_S99A      4 00004938 00000001     A   29389 29642
 BCA_TFIN      8 0000491E 00000001     C   29385 29528  29542
 BCA_UNIT      2 0000497D 00000001     R   29405 29395
 BCV_Action
             128 00000018 FFFFFFAF        24479 26409M 27363
 BCV_BSER      6 0000002E FFFFFFBA     C   12791 25409  25414  26607  26612  36619M 36620M
 BCV_cwrk     12 00000019 FFFFFFAF     C   24488 25036  25041  27518  27523
 BCV_DEVC      4 00000014 FFFFFFAF     C   24472 26509  26543  26548  26733  26738  28116  28148  28153
 BCV_EOD       2 000041C0 00000001     H   28685 28543
 BCV_Eof      64 00000018 FFFFFFAF        24484 28577  28691M
 BCV_Est       2 00003278 00000001     H   25847 15711
 BCV_File      2 000046A0 00000001     H   30265 15715
1VMNT     (VMNT21) (09:48) (22MAR04) Ordinary Symbol and Literal Cross Reference                                            Page  198
 BCV_Flgs      1 00000024 FFFFFFBA     R   12767 12771  12776  12781  12786  28853M
 BCV_Mat       2 000041D4 00000001     H   28737 29351
 BCV_Pair      2 00004512 00000001     H   29715 15710
 BCV_PEOD      2 00002D2A 00000001     H   24355 24264
 BCV_Plog      2 00002CAC 00000001     H   24202 27864  29350
 BCV_Sflg      1 00000018 FFFFFFAF     R   24475 24479  24484
 BCV_Splt      2 00002DEC 00000001     H   24516 15713
 BCV_Stat      2 00003EEC 00000001     H   27927 15709
 BCV_STD       4 0000000C FFFFFFBA     A   12759 26287  28900  29845  36640M
 BCV_STDE      4 00000014 FFFFFFBA     A   12761 26328  28869M 29886
 BCV_UCB       4 00000010 FFFFFFBA     A   12760 19550M 24790  25319  26411  26510  27010  27092  27191  28117  28833
                                                 29944
 BCV_UCBE      4 00000018 FFFFFFBA     A   12762 28861M 29985
 BCV_VOL       6 00000028 FFFFFFBA     C   12790 25365  25370  26248  26253  29806  29811  36594M 36595  36595M 36595
                                                 36611M 36619  36621
 BCV_WRK      37 00000000 FFFFFFAF     J   24495 24529  24557U 25829  25831  25832  25860  25888U 25916M 25916  27826
                                                 27828  27829  27940  27968U 28717  28719  28720
 BCV_WRKF      2 00004440 00000001     H   29426 15708
 BCVBCK        4 00000008 FFFFFFBA     A   12758 36673M
 BCVFLGS       1 000008D1 00000001     R   13166 13170  13175  13180  13185  13190  13195
 BCVHEAD       4 00000920 00000001     A   13330 24752  25280  26173  28083  28792  29750  36656M
 BCVID         4 00000000 FFFFFFBA     C   12756 36593M
 BCVLAST       4 00000924 00000001     A   13331 19517  36643  36657M 36675M
 BCVLIST      52 00000000 FFFFFFBA     J   12798 19539U 24748U 26199U 28109U 28818U 29776U 36563  36576U 36586M 36586
                                                 36674M
 BCVNXT        4 00000004 FFFFFFBA     A   12757 24857  25451  27311  28207  29002  30223  36674M
 BCW_UCBA      4 00000000 FFFFFFAF     A   24468 26412
 BCW_UCBE      4 00000004 FFFFFFAF     A   24469 26792
 BFL_Avail
              16 00000024 FFFFFFBA        12786 28963M 30138
 BFL_Est      32 00000024 FFFFFFBA        12781 26212  28986M 30092
 BFL_Unknown
             128 00000024 FFFFFFBA        12771 28846M 36592M
 BFL_Vrf      64 00000024 FFFFFFBA        12776 28912M 28935M
 BIT0          1 00000080 FFFFFFE5 A   U    3763  3778   3792   3847   4071   4077
 BIT1          1 00000040 FFFFFFE5 A   U    3764  3779   3793   3848   4072   4078
 BIT2          1 00000020 FFFFFFE5 A   U    3765  3780   3802   3849   4079
 BIT3          1 00000010 FFFFFFE5 A   U    3766  3781   3804   3850   4080
 BIT4          1 00000008 FFFFFFE5 A   U    3767  3782   3805   3851   4056   4081
 BIT5          1 00000004 FFFFFFE5 A   U    3768  3783   3784   3807   3852   4057   4082
 BIT6          1 00000002 FFFFFFE5 A   U    3769  3785   3808   3853   4058   4083
 BIT7          1 00000001 FFFFFFE5 A   U    3770  3787   3811   3855   4059   4084
 BLDATT        4 00002C70 00000001     A   23887 18990
 BR            7 00000007 FFFFFFFF A   #    1051 32668  37916M 37925U 38026M 38034U 38641M 38649U 39003M 39011U
 BTD           1 00000000 0000000B     T   20885 20885
 BTR           1 00000000 0000000F     T   27863 27863  39853
 BTX           1 00000000 00000011     T   27873 27873  29344
 CBBRANCH      1 00000000 00000000 A   T   11160 11160
 CHASM         1 00000028 FFFFFFC8     U   12076 12141
 CHCLS         8 00000010 FFFFFFC8     C   12039 18108
 CHKIJOB       2 00005B84 00000001     H   36069 35689
 CHKSHFT       2 00005A7C 00000001     H   35737 35688
 CHPTR         4 00000000 FFFFFFC8     A   12006 18068  18101
 CHROALL       1 00000005 FFFFFFC8 A   U   12068 12069
 CHTYPE        1 000000A4 FFFFFFC8     B   12151 12164
 CLRNOFF       2 000052B2 00000001     H   34219 31292
 CLRSMFL       2 0000543C 00000001     H   34952 31261
 CLSCONT       2 00004FFA 00000001     H   33000 19019  35687
 CLWTEMP       8 00000820 00000001     D   13092 19241M 19244  20841M 20842  21126M 21127  31676  31690  31908M 31909
1VMNT     (VMNT21) (09:48) (22MAR04) Ordinary Symbol and Literal Cross Reference                                            Page  199
                                                 31910M 31911  32631M 32632  38783M 38784
 CNTCARD      80 00000CC8 00000001     C   13620 18303  18314  18321  32724  32752  32759  32788
 CNTDCB        4 00000D44 00000001     F   13630 18302  32723  32787  32880  33038  33042
 CNTIKWR       1 00005978 00000001     R   33264 35686
 CNTKWRT       1 00005A46 00000001     R   33316 19017
 CONS_LEN      2 00000E7C 00000001     R   15515 15627M 15635
 CONS_MCS      2 00000E7E 00000001     R   15516 15624M 15624
 CONS_STR    100 00000E80 00000001     C   15517 31975  35674
 CONSCMD       2 00000506 00000001     H   15529 35676
 CONSEGCB     60 00000E40 00000001     X   15513 26529  26556  26574  26592  26620  26637  26661  35675
 CONSEGCBCOD
               1 00000E40 00000001     R   15430 15439  15449  15459  15469  15479  15489  15499
 CPUID         8 00000818 00000001     D   13091 31909M 31911M 31912M 31912
 CRBRANCH      1 00000000 00000000 A   T   10901 10901
 CSCB          1 00000000 FFFFFFC8     J   11852 18068  18086U
 CSCX          1 00000000 FFFFFFC7     J   12289 12411
 CSRTABLE      1 00000000 00000000 A   T   10921 10921
 CSVARMGR      1 00000000 00000000 A   T   10969 10969
 CSVEXIT       1 00000000 00000000 A   T   10842 10842
 CSVLLCB       1 00000000 00000000 A   T   10442 10442
 CSVLLTRM      1 00000000 00000000 A   T   10443 10443
 CSVMEM        1 00000000 00000000 A   T   10670 10670
 CSVVFGET      1 00000000 00000000 A   T   11234 11234
 CSVVFIND      1 00000000 00000000 A   T   11232 11232
 CVT           1 00000000 FFFFFFCE     J   10412 23454  31868
 CVTBRET       2 00000052 FFFFFFCE     H   10467 10980  11059
 CVTMAP        1 00000000 FFFFFFCE     U   10417 18062U 35781U
 CVTMSER       4 00000094 FFFFFFCE     V   10519 18068
 CVTPTR        1 00000010 FFFFFFD5 A   U   10408 15329  18052  23453  31867  35771
 CVTSMCA       4 000000C4 FFFFFFCE     A   10586 31868
 CVTUSER       4 000000CC FFFFFFCE     A   10592 23454  35787
 CVTVSTGX      1 00000000 FFFFFFCD     J   11432 11296
 CVTXTNT1      1 00000000 FFFFFFCC     J   11471 10639
 CVTXTNT2      1 00000000 FFFFFFCB     J   11479 10709
 CVT4MS1       1 00000010 FFFFFFCE A   U   10492 10500
 CVT6DAT       1 00000002 FFFFFFCE A   U   10496 10500
 CXSP41        1 00000001 FFFFFFC7 A   U   12305 12306
 DALBLKSZ      1 00000030 FFFFFFE8 A   U    1807 29407
 DALCDISP      1 00000006 FFFFFFE8 A   U    1765 37616
 DALCLOSE      1 0000001C FFFFFFE8 A   U    1787 13604  36837  37621
 DALDCBDS      1 0000002C FFFFFFE8 A   U    1803 13602  37624
 DALDDNAM      1 00000001 FFFFFFE8 A   U    1760 13594  29402  31239  36834  37610
 DALDSNAM      1 00000002 FFFFFFE8 A   U    1761 13595  36835  37611
 DALDSSEQ      1 0000001F FFFFFFE8 A   U    1790 37620
 DALLABEL      1 0000001E FFFFFFE8 A   U    1789 37619
 DALLRECL      1 00000042 FFFFFFE8 A   U    1825 29408
 DALMEMBR      1 00000003 FFFFFFE8 A   U    1762 13597  37612
 DALNDISP      1 00000005 FFFFFFE8 A   U    1764 13598  37614
 DALPRIME      1 0000000A FFFFFFE8 A   U    1769 13600  29406
 DALPRIVT      1 00000011 FFFFFFE8 A   U    1776 37615
 DALRECFM      1 00000049 FFFFFFE8 A   U    1832 29409
 DALRETPD      1 00000023 FFFFFFE8 A   U    1794 37622
 DALRLSE       1 0000000D FFFFFFE8 A   U    1772 13603
 DALSTATS      1 00000004 FFFFFFE8 A   U    1763 13596  29403  36836  37613
 DALSYSOU      1 00000018 FFFFFFE8 A   U    1783 13613  29401
 DALTRK        1 00000007 FFFFFFE8 A   U    1766 13599  29404
 DALTRTCH      1 0000004F FFFFFFE8 A   U    1838 37625
 DALUNIT       1 00000015 FFFFFFE8 A   U    1780 13601  29405  37618
 DALVLCNT      1 00000013 FFFFFFE8 A   U    1778 37617
1VMNT     (VMNT21) (09:48) (22MAR04) Ordinary Symbol and Literal Cross Reference                                            Page  200
 DALVLRDS      1 00000014 FFFFFFE8 A   U    1779 37623
 DALVLSER      1 00000010 FFFFFFE8 A   U    1775 13605
 DCBBIT0       1 00000080 FFFFFFD5 A   U    7746  7915   7931   7971   7989   8035   8044   8059   8100   8108   8122
                                                  8144   8186   8188   8189   8191   8211   8214   8236   8240   8255
                                                  8292   8348   8374   8412   8416   8435   8541
 DCBBIT1       1 00000040 FFFFFFD5 A   U    7747  7916   7932   7990   7998   8035   8044   8061   8101   8109   8124
                                                  8153   8154   8163   8169   8186   8188   8190   8191   8216   8236
                                                  8238   8240   8258   8259   8260   8295   8296   8348   8376   8418
                                                  8420   8438   8483   8542
 DCBBIT2       1 00000020 FFFFFFD5 A   U    7748  7917   7933   7991   8000   8044   8062   8102   8110   8125   8126
                                                  8127   8153   8154   8158   8164   8169   8186   8187   8192   8218
                                                  8241   8242   8263   8264   8265   8299   8300   8349   8381   8421
                                                  8443   8486   8489   8543
 DCBBIT3       1 00000010 FFFFFFD5 A   U    7749  7870   7918   7934   8005   8046   8063   8103   8125   8127   8128
                                                  8153   8166   8193   8221   8241   8244   8267   8268   8269   8303
                                                  8304   8349   8383   8385   8387   8423   8444   8486   8490
 DCBBIT4       1 00000008 FFFFFFD5 A   U    7750  7871   7935   8006   8049   8064   8111   8167   8168   8169   8194
                                                  8222   8246   8251   8252   8272   8273   8307   8308   8310   8311
                                                  8350   8390   8425   8445   8486   8491
 DCBBIT5       1 00000004 FFFFFFD5 A   U    7751  7873   7936   8008   8050   8064   8112   8174   8197   8198   8224
                                                  8246   8248   8249   8252   8276   8278   8279   8280   8314   8315
                                                  8316   8317   8350   8392   8395   8428   8447   8481
 DCBBIT6       1 00000002 FFFFFFD5 A   U    7752  7875   7905   7919   7937   8010   8051   8067   8104   8176   8177
                                                  8180   8197   8199   8225   8283   8284   8285   8286   8320   8321
                                                  8322   8323   8351   8398   8430   8449   8492
 DCBBIT7       1 00000001 FFFFFFD5 A   U    7753  7877   7905   7920   8014   8053   8068   8105   8176   8178   8180
                                                  8201   8230   8288   8289   8326   8327   8329   8330   8401   8431
                                                  8432   8450   8494   8544
 DCBCMPAC      1 00000008 FFFFFFD5 A   U    7832 37625
 DCBDCBE       4 00000000 FFFFFFD5     A    7761  7765
 DCBDDNAM      8 00000028 FFFFFFD5     C    8208 29296M
 DCBEODA       3 00000021 FFFFFFD5     R    8182 32896M
 DCBEODAD      4 00000020 FFFFFFD5     A    8140 24265M 28542M 28542  28544M
 DCBFDAD       8 00000005 FFFFFFD5     C    7777  7779
 DCBOFIOF      1 00000001 FFFFFFD5 A   U    8230  8232
 DCBOFLGS      1 00000030 FFFFFFD5     B    8210 24282  24313  31429  32914  36967
 DCBOFOPN      1 00000010 FFFFFFD5 A   U    8221 24280  24311  31427  32912  36965
 DCBOFUEX      1 00000002 FFFFFFD5 A   U    8225  8229
 DCBSSID       8 00000000 FFFFFFD5     C    8024  8026
 DCBWTOID      4 00000000 FFFFFFD5     A    7942  7957   7967
 DEQLIST       1 00002B74 00000001     U   22671 23222
 DFAIDTAB      1 00000000 00000000 A   T   11309 11309
 DISABLE      32 000008D4 00000001        13299 14594  17194  34391M
 DISPLOCK      1 00000000 00000000 A   T    2421  2421
 DOCODE        2 00001474 00000001     H   17770 15730  19001
 DOMDMP        4 00000850 00000001     A   13097 17410  17587M 17720
 DOMMSGS       2 00001416 00000001     H   17618 15729
 DOMSTAT       4 00000848 00000001     A   13095 14325  14381M 14895M 14895  14901  14911M 14911  17652  24604M 24604
                                                 24610  24620M 24620  24662M 25942M 25942  25948  25958M 25958  26000M
                                                 32611M
 DOMVFRY       4 0000084C 00000001     A   13096 17698
 DOMWAIT       4 00000844 00000001     A   13094 17674  22949M 23082  23092M 23092
 DOT_RETC      4 00000000 FFFFFFB1     A   15769 15845M 15862M 15867
 DOT_WRK       4 00000000 FFFFFFB1     J   15776 15797  15825U 15887  15889  15890
 DOTASK        2 00000EE4 00000001     H   15784 18999
 DSAB          1 00000000 FFFFFFD9     J    6716  6812
 DSABANMI      1 00000000 FFFFFFD8     J    6813  6816
 DUMPFAIL      2 000003D0 00000001     H   15039 16970B 17174B 17306B
 DUMPRET       2 00001352 00000001     H   17350 19007
1VMNT     (VMNT21) (09:48) (22MAR04) Ordinary Symbol and Literal Cross Reference                                            Page  201
 DUNDDNAM      1 00000001 FFFFFFE8 A   U    1987 13608  13611
 DUNDSNAM      1 00000002 FFFFFFE8 A   U    1988 13609
 DUNOVDSP      1 00000005 FFFFFFE8 A   U    1990 13612  37626
 DUNUNALC      1 00000007 FFFFFFE8 A   U    1991 13607
 EMC_prm       2 00003EE8 00000001     R   24504 27857  29347
 EMCATT        4 00002B80 00000001     A   23883 27856  29346
 EMCCARD      80 00003CC0 00000001     C   23970 24683  24690  26063  26070  28028  28035  29156  29160M 29161  29161M
                                                 29161
 EMCDATA       8 00003CB0 00000001     D   23967 24246U 24571U 25902U 27845  27982U 28781U 29093U 29278U 29338
 EMCLOGF       4 00003E88 00000001     F   24149 24296  24301  24343  24360  24364
 EMCPRTF       4 00003E28 00000001     F   24107 24250  24270  24336  24392  24396  28521  28549  28561  28637  28651
                                                 28655
 EMCSDDN       2 00004300 00000001     H   29234 27849  29339
 EMCSEG       60 00003D8C 00000001     X   24059 24698  24715  24734  24781  24805  24823  24851  25310  25334  25351
                                                 25378  25395  25422  25446  26078  26095  26114  26132  26150  26168
                                                 27001  27025  27042  27066  27083  27107  27124  27148  27165  27182
                                                 27206  27238  27270  27302  28043  28060  28078  28134  28161  28178
                                                 28202
 EMCSEGCOD
               1 00003D8C 00000001     R   23976 23985  23995  24005  24015  24025  24035  24045
 EMCSOUT     121 00003D10 00000001     C   23971 24337  24344  28562  28583  28595  28607  28638  28786  28855  28863
                                                 28871  28883  28945  28968
 EMCSRTN       2 0000429C 00000001     H   29049 27851  29341
 EMCSYSN       4 00003DC8 00000001     F   24065 24672  24867  24871  25278  25462  25466  26052  27326  27330  28017
                                                 28223  28227  29155  29282
 EMCTF         8 00003CB0 00000001     C   23968 24897  27378  28252
 EMCTFU        8 00003CB8 00000001     C   23969 25491
 ENABLE       64 000008D4 00000001        13294 34325M 35865  36127
 ENABSYS       2 00002674 00000001     H   23140 15714  19008  38317
 ENQFS         2 000024BC 00000001     H   22690 15712
 ENQLIST       1 00002B68 00000001     U   22659 22750  22978
 EODROUT       2 0000046A 00000001     H   15215 32716
 EOF           4 000008D3 00000001        13260 15221M 32739
 EOTXIT        2 00006444 00000001     H   38254 18750
 ESTROUT       2 0000637A 00000001     H   37872 32667  37880U
 ESTRR13       4 000066E4 00000001     A   37863 37930M 37964
 ESTRSTCK      4 000065E4 00000001     A   37862 37931
 EXECPTR       4 00000770 00000001     A   13088 13811M 32031
 EXECSLEN      2 000057FE 00000001     H   31235 18998  35690
 EXECSTR     100 00005800 00000001     C   31236 31931  35672
 EXIT          2 00000216 00000001     H   14584 15090B 15117B 25264B 25743B 26471B 26961B 27746B 28511B 36931B 37015B
 EXIT2         2 000003A4 00000001     H   15011 31432B 31789B 31853B 32548B 32705B 33468B 36025B 36287B
 EXIT3         2 000003AA 00000001     H   15017 31388B
 FAIL          2 00000402 00000001     H   15093 16160B 16611B 32962B
 FILATT        4 00002BF8 00000001     A   23885 19006
 FILE_DVT      4 00000014 FFFFFFB9     A   12815 30452M 30563
 FILE_UCB      4 0000000C FFFFFFB9     A   12813 30616M 30621  30750
 FILEBCK       4 00000008 FFFFFFB9     A   12812 36467M
 FILEID        4 00000000 FFFFFFB9     C   12810 36407M
 FILELIST     75 00000000 FFFFFFB9     J   12828 30326U 36383  36396U 36406M 36406  36468M
 FILENAME     44 00000019 FFFFFFB9     C   12820 30330  30375  30380  30434  30439  36408M 36409  36409M 36409  36427M
 FILENXT       4 00000004 FFFFFFB9     A   12811 30780  36468M
 FILEVOL       6 00000045 FFFFFFB9     C   12821 30453M 30524  30529  30600  36410M 36411  36411M 36411
 FILHEAD       4 00000918 00000001     A   13328 30299  36450M
 FILLAST       4 0000091C 00000001     A   13329 36437  36451M 36469M
 FINDDD        2 000004CE 00000001     H   15328 20959B 21372B 29478B 29530B 29580B 29630B 31355B 35669
 FL_Auth     128 000008D3 00000001        13235 32238M 32260M
 FL_BCV      128 000008D1 00000001        13170 14161  14246  14534  16051  16506  16891  17095  24588  25926  27999
                                                 29469  33690M 33768M 33865M 33974M 35122M
1VMNT     (VMNT21) (09:48) (22MAR04) Ordinary Symbol and Literal Cross Reference                                            Page  202
 FL_BCVwait
               4 000008D1 00000001        13195 14565M 27220  33871M 33980M 35128M
 FL_EMClog
              64 000008D1 00000001        13175 25135  25618  27617  28382  33877M 33986M 35057M
 FL_LvEst     16 000008D1 00000001        13185 14549  32030M 33859M 33968M 35265M 35337M
 FL_LvSplt
              32 000008D1 00000001        13180 32024M 35258M 35331M
 FL_LvWait
               8 000008D1 00000001        13190 35193M
 FL_NOENQ    128 000008D5 00000001        13323 22969  34861M
 FL_ReadOnly
             128 000008D4 00000001        13289 23108M 23187  23379M
 FL_SMFlog
               2 000008D3 00000001        13265 14785  32017M 34926M 34992M
 FL_Stack      8 000008D2 00000001        13225 16021  16455  16851  35632M
 FL_Warn       8 000008D3 00000001        13255 19976M 19999M 32011M 35883  36145
 FLBCVDUMP
               4 000008D0 00000001        13155 14209  16063  16518  16903  17107  33683M 33761M
 FLCEAMDID
               1 000000A3 FFFFFFE7     C    3221  3222   3224
 FLCEFACILITIESLIST
               4 000000C8 FFFFFFE7     C    3251  3252
 FLCEFACILITIESLISTBYTE0
               1 000000C8 FFFFFFE7     B    3253  3254   3258
 FLCEICOD      2 00000086 FFFFFFE7     H    2161  2162
 FLCENPSW      4 00000058 FFFFFFE7     X    2137  2139
 FLCEOPSW      8 00000018 FFFFFFE7     X    2120  2121
 FLCEPDATA
               4 0000008C FFFFFFE7     C    3172  3173   3189
 FLCEPDATABYTE0
               2 0000008C FFFFFFE7     C    3174  3175   3180
 FLCEPER       8 00000098 FFFFFFE7     C    3214  3215
 FLCEPERATMID
               1 00000097 FFFFFFE7     B    3204  3205
 FLCEPERCODE
               2 00000096 FFFFFFE7     C    3195  3196   3213
 FLCEPERCODE0
               1 00000096 FFFFFFE7     B    3197  3198   3203
 FLCEPICODE
               2 0000008E FFFFFFE7     C    3181  3182
 FLCEPICODE1
               1 0000008F FFFFFFE7     G    3184  3185
 FLCEPIINFORMATION
               4 00000090 FFFFFFE7     C    3190  3191
 FLCEPILC      1 0000008D FFFFFFE7     G    3177  3178
 FLCESAME      8 00000000 FFFFFFE7     D    3154  3283
 FLCESDATA
               4 00000088 FFFFFFE7     C    3162  3163
 FLCESDATABYTE0
               2 00000088 FFFFFFE7     C    3164  3165   3170
 FLCESILC      1 00000089 FFFFFFE7     G    3167  3168
 FLCETEA       8 000000A8 FFFFFFE7     C    3228  3229
 FLCETEASNINFO
               8 000000A8 FFFFFFE7     C    3237  3238
 FLCETEA7      1 000000AF FFFFFFE7     B    3231  3232
 FLCETEID      8 000000A8 FFFFFFE7     C    3226  3227   3236   3241
 FLCETEPCINFO
               8 000000A8 FFFFFFE7     C    3242  3243
 FLCINPSW      4 00000078 FFFFFFE7     X    2151  2153
1VMNT     (VMNT21) (09:48) (22MAR04) Ordinary Symbol and Literal Cross Reference                                            Page  203
 FLCIOPSW      8 00000038 FFFFFFE7     X    2129  2130
 FLCIPPSW      8 00000000 FFFFFFE7     C    2110  2113
 FLCMNPSW      4 00000070 FFFFFFE7     X    2147  2150
 FLCMOPSW      8 00000030 FFFFFFE7     X    2127  2128
 FLCPICOD      2 0000008E FFFFFFE7     H    2185  2186
 FLCPIILC      1 0000008D FFFFFFE7     G    2178  2184
 FLCPNPSW      4 00000068 FFFFFFE7     X    2143  2146
 FLCPOPSW      8 00000028 FFFFFFE7     X    2125  2126
 FLCSNPSW      4 00000060 FFFFFFE7     X    2140  2142
 FLCSOPSW      8 00000020 FFFFFFE7     X    2122  2124
 FLCSVCN       2 0000008A FFFFFFE7     H    2172  2175
 FLCSVILC      1 00000089 FFFFFFE7     G    2166  2171
 FLDINC      128 000008D2 00000001        13205 16418  34051M
 FLDUMP      128 000008D0 00000001        13130 13845  14406  14406  14407  14407  14409  14442  14442  14443  14443
                                                 14445  14475  14618  15989  16344  16344  16345  16666  17444  33533M
                                                 33609  33609  33610  33610  33612M 33677M 33846  33846  33847  33847
                                                 33849  33849  33852M 33955  33955  33956  33956  33958  33958  33961M
                                                 37950
 FLESTAB       8 000008D0 00000001        13150 14173  14224  14312  33942M
 FLG           1 000008D0 00000001     R   13126 13130  13135  13140  13145  13150  13155  13160
 FLINC        64 000008D0 00000001        13135 14407  14407  14408  14408  14443  14443  14444  14444  14504  16344
                                                 16344  16381  16471  17211M 17490  33609  33609  33611  33611  33755M
                                                 33846  33846  33848  33848  33850  33850  33955  33955  33957  33957
                                                 33959  33959  34057M 34128M
 FLNIXR       32 000008D2 00000001        13215 15947  16294  34456M
 FLNOFF       16 000008D2 00000001        13220 17232  34193M 34259M
 FLOFF        16 000008D4 00000001        13304 22955M 39191
 FLOFFLOAD
              32 000008D0 00000001        13140 17217M 33610  33610  33611  33611  33847  33847  33848  33848  33851
                                                 33851  33956  33956  33957  33957  33960  33960
 FLON         16 000008D4 00000001     ‚   13313 23248M
 FLSPLIT      16 000008D0 00000001        13145 14294  33833M
 FLTINC       64 000008D2 00000001        13210 34122M
 FLTSTSYS     32 000008D3 00000001        13245 34579M 35847  36112
 FLVRFY        2 000008D0 00000001        13160 14406  14406  14408  14408  14442  14442  14444  14444  33598M 33849
                                                 33849  33850  33850  33851  33851  33958  33958  33959  33959  33960
                                                 33960
 FMBRANCH      1 00000000 00000000 A   T   11085 11085
 FMTCLCK       1 00000000 00000014     T   35668 35668
 FMTTIME       1 00000000 00000015     T   39850 39850
 FSACTIVE      4 0000087C 00000001     A   13118 14322M 22594  22740M 23212M 32629  39214  39265  39299  39350
 FSNAME        8 00000880 00000001     C   13119 13118  14321  17184  19725  20231M 20243M 22724  23196  34777M 34789M
 FSR           0 00000000 FFFFFFFF A   #    1038 15538  15680M 15794  15887M 15912  16234M 16259  16783M 16808  16994M
                                                 17019  17334M 17359  17602M 17627  17754M 17779  18001M 18026  18147M
                                                 18171  18231M 18257  18372M 18412  18524M 18548M 18601  18689M 18714M
                                                 18785  18962M 19063  19172M 19192  19297M 19317  19391M 19410  19453M
                                                 19473  19581M 19600  19643M 19663  19857M 19877  20025M 20045  20090M
                                                 20109  20154M 20174  20269M 20289  20364M 20384  20445M 20465  20538M
                                                 20558  20612M 20637  20755M 20770M 20795  20863M 20932  21749M 21774
                                                 22499M 22524  22639M 22699  23123M 23149  23398M 23426  23865M 24211
                                                 24448M 24526  25829M 25857  27826M 27937  28717M 28746  29033M 29058
                                                 29217M 29243  29321M 29435  29696M 29724  30248M 30274  30805M 30857
                                                 30999M 31051  31205M 31326  32830M 32855  32989M 33009  33080M 33107
                                                 33241M 33347  33483M 33503  33548M 33568  33627M 33647  33705M 33725
                                                 33783M 33803  33892M 33912  34001M 34021  34072M 34092  34143M 34163
                                                 34208M 34228  34274M 34294  34340M 34360  34406M 34426  34471M 34491
                                                 34594M 34614  34711M 34731  34811M 34831  34876M 34896  34941M 34961
                                                 35007M 35027  35072M 35092  35143M 35163  35208M 35228  35280M 35300
                                                 35352M 35372  35467M 35487  35582M 35602  35647M 35746  36053M 36078
1VMNT     (VMNT21) (09:48) (22MAR04) Ordinary Symbol and Literal Cross Reference                                            Page  204
                                                 36315M 36348  36496M 36528  36707M 36865  37155M 37180  37308M 37335
                                                 37362M 37381M 37411  37472M 37492  37554M 37657  37841M 38402  38626M
 GDG          64 00000000 FFFFFFB6     J   12911 13934U 19125U 19235U 20666  20699U 20829U 21044U 21808U 38731U 38886U
 GDGANCHR      4 0000092C 00000001     A   13333 13924  20719  21036  38468
 GDGCNAME     44 00006ED5 00000001     C   38364 38894M
 GDGCNTR       4 00000928 00000001     A   13332 18293M 18293  19240  19243M
 GDGDD         8 0000000C FFFFFFB6     C   12903 19136M 19149M 19239M 19244M 19245M 21370  21384
 GDGERROR     16 000008D3 00000001        13250 21719
 GDGFWD        4 00000000 FFFFFFB6     A   12900 14080  20709M 20709  21656  38827
 GDGGEN        4 00000004 FFFFFFB6     A   12901 14039  20716M 20716  20840  21128  21129M 21178  21213  21304  21385
                                                 21387M 38785M 38893
 GDGLIST      80 00006EC4 00000001     C   38360 38361  39847
 GDGNAME      44 00000014 FFFFFFB6     C   12904 13991  13992  19129M 19130  19142M 19143  19246M 19248  20717M 20718
                                                 20718M 20718  20833  21082  21130  38894
 GDGPFX       44 00000D18 00000001     C   13621 19103M 19129  19142  19246
 GDGPREV       4 00000008 FFFFFFB6     A   12902 21128M 21214  21304  22433  38893M
 GLBRANCH      1 00000000 00000000 A   T   10991 10991
 GMBRANCH      1 00000000 00000000 A   T   11087 11087
 GVT           1 00000000 00000000 A   T   10853 10853
 HIBAL         1 00000000 FFFFFFFF     J     734   750    763    776    789    802    815    828    841    854    867
                                                   880    893    906    919    932    945   1046   1059   1072   1085
                                                  1097   1110   1123
 HIS#LEN       1 00000080 00000001 A   U   12483 36756  36757  37100
 HISBFREE      4 00000010 FFFFFFC4     A   12489 37080  37084M
 HISBLEN       1 00000040 FFFFFFC4 A   U   12502 12503
 HISBREC       1 00000000 FFFFFFC4     J   12484 12502  37045U
 HISBSPLT      4 00000034 FFFFFFC4     A   12499 37066  37085M
 HISDREC       1 00000000 FFFFFFC3     J   12506 12517
 HISIFLG1      1 00000008 FFFFFFC0     R   12562 12566
 HISIREC       1 00000000 FFFFFFC0     J   12557 12575
 HISPREC       1 00000000 FFFFFFBF     J   12577 12588
 HISSP_est
             128 00000008 FFFFFFC2        12529 27785M
 HISSP_split
              64 00000008 FFFFFFC2        12534 25791M
 HISSPBLK      4 00000000 FFFFFFC2     A   12521 37085  37094  37102M 37267
 HISSPCLK      4 0000000C FFFFFFC2     A   12538 37269M
 HISSPFLG      1 00000008 FFFFFFC2     R   12525 12529  12534
 HISSPNXT      4 00000004 FFFFFFC2     A   12522 37084
 HISSPREC      1 00000000 FFFFFFC2     J   12520 12540  25780U 27774U 37058U 37101M 37101  37263U
 HISSREC       1 00000000 FFFFFFC1     J   12543 12555
 HIST_CLS      2 00005F3E 00000001     H   37171 27870
 HIST_DSN     44 000009C0 00000001     C   13339 19365M 36890  36890
 HIST_OPN      2 00005E54 00000001     H   36856 27868
 HIST_RD       2 00006018 00000001     H   37483 37035B 37083B 37120B
 HIST_SAD      2 00005FA0 00000001     H   37326 27869
 HIST_WRT      2 00005FC8 00000001     H   37402 37093B 37226B 37271B
 HISTBLK       4 000060CC 00000001     A   36755 36827  37437M 37518M
 HISTDECB      4 0000623C 00000001     A   36819 37440  37449  37521  37531
 HISVREC       1 00000000 FFFFFFBD     J   12609 12614  12685  12737  12799  12829  12852  12889  12912  12933  12981
                                                 13016  13067
 HISXFLG       1 00000008 FFFFFFBE     R   12597 12601
 HISXREC       1 00000000 FFFFFFBE     J   12592 12607
 HSPFINT       1 000000E0 FFFFFFC9 A   U   11791 23571
 HSPFJES       1 00000002 FFFFFFC9 A   U   11793 23574  23590
 HSPFMIL       1 00000080 FFFFFFC9 A   U   11787 11791  11792  23626
 HSPFORV       1 00000020 FFFFFFC9 A   U   11789 11791  23698
 HSPFORVR      1 00000010 FFFFFFC9 A   U   11790 11792  23734
 HSPFWYL       1 00000040 FFFFFFC9 A   U   11788 11791  11792  23662
1VMNT     (VMNT21) (09:48) (22MAR04) Ordinary Symbol and Literal Cross Reference                                            Page  205
 HST_UPDATE_BASE
             128 000061D0 00000001        36765 37214  37233M
 HST_UPDATE_SPLIT
              64 000061D0 00000001        36770 37130M 37247  37278M
 HSTALC        4 00006258 00000001     A   36829 36891
 HSTBASE     128 000060D0 00000001     X   36756 36824  37033  37062  37091  37224
 HSTDCB        4 000061D4 00000001     F   36780 36823  36950  36955  37292
 HSTDDN        2 00006268 00000001     R   36834 36829
 HSTDSHR       2 000062A8 00000001     R   36836 36831
 HSTDSN        2 00006276 00000001     R   36835 36830  36890M
 HSTFCLS       2 000062AF 00000001     R   36837 36832
 HSTFLAG       1 000061D0 00000001     R   36761 36765  36770
 HSTSPRC     128 00006150 00000001     X   36757 37063  37081  37118  37253  37360
 IARMPVT       1 00000000 00000000 A   T   10728 10728
 IARMRRCE      1 00000000 00000000 A   T   11273 11273
 IARPIBR       1 00000000 00000000 A   T   11243 11243
 IARPSIV       1 00000000 00000000 A   T   11067 11067
 IARPSXM       1 00000000 00000000 A   T   11216 11216
 IARXKEY       1 00000000 00000000 A   T   11174 11174
 IARXVIO       1 00000000 00000000 A   T   11068 11068
 ICYMMVTC      1 00000000 00000000 A   T   11499 11499
 IDA121CV      1 00000000 00000000 A   T   11006 11006
 IDCDNAM       2 00006E8E 00000001     H   38346 38488
 IDCFLAGS      4 00000000 FFFFFFB4     J   12980 38673U
 IDCFLG1       1 00000000 FFFFFFB4     X   12944 38680
 IDCFLG2       1 00000001 FFFFFFB4     R   12951 12955  12960  12965  12970
 IDCIN        10 00006EB0 00000001     C   38357 38350
 IDCINPTR      4 00000008 FFFFFFB5     A   12925 38665
 IDCIO         4 00006E94 00000001     A   38349 38490
 IDCIOCLS      2 00006828 00000001     H   38702 38684B
 IDCIOGET      2 0000689E 00000001     H   38860 38685B
 IDCIOOPN      2 00006828 00000001     H   38700 38683B
 IDCIOPTR      4 00000004 FFFFFFB5     A   12924 38664
 IDCIOPUT      2 00006834 00000001     H   38719 38686B
 IDCIORT       2 000067F2 00000001     H   38639 38351  38354  38649U
 IDCMSG        2 00000002 FFFFFFB4     R   12973 38746M 38746  38821
 IDCOPT        2 00006E8C 00000001     H   38345 38487
 IDCOUT       10 00006EBA 00000001     C   38358 38353
 IDCPARM      12 00000000 FFFFFFB5     J   12932 38662U
 IDCPGE        2 00006E90 00000001     H   38347 38489
 IDDN          2 00000BB4 00000001     R   13594 13581
 IDSN          2 00000BC2 00000001     R   13595 13582
 IEABEND       1 00000000 00000000 A   T   10590 10590
 IEACLTE       1 00000000 00000000 A   T    2743  2743
 IEACVT        1 00000000 00000000 A   T    2117  2117   2132
 IEADQIQE      1 00000000 00000000 A   T   10986 10986
 IEAECVT       1 00000000 00000000 A   T   10515 10515
 IEAGSMQ       1 00000000 00000000 A   T   10963 10963
 IEAIHASU      1 00000000 00000000 A   T   11203 11203
 IEALKPT       1 00000000 00000000 A   T    2736  2736
 IEALSMQ       1 00000000 00000000 A   T   10965 10965
 IEAMASCB      1 00000000 00000000 A   T    2270  2270  10933  10937
 IEAPATCH      1 00000000 00000000 A   T   10598 10598
 IEAPDSRT      1 00000000 00000000 A   T   10861 10861
 IEAPTRV       1 00000000 00000000 A   T   10677 10677
 IEAQCDSR      1 00000000 00000000 A   T   10581 10581
 IEAQCS01      1 00000000 00000000 A   T   10973 10973
 IEAQEX00      1 00000000 00000000 A   T    2138  2138
 IEAQIO00      1 00000000 00000000 A   T    2152  2152
1VMNT     (VMNT21) (09:48) (22MAR04) Ordinary Symbol and Literal Cross Reference                                            Page  206
 IEAQLPAQ      1 00000000 00000000 A   T   10582 10582
 IEAQPK00      1 00000000 00000000 A   T    2145  2145
 IEAQSC00      1 00000000 00000000 A   T    2141  2141
 IEAQTD00      1 00000000 00000000 A   T   10478 10478
 IEAQTE00      1 00000000 00000000 A   T   10476 10476
 IEARPOST      1 00000000 00000000 A   T   10988 10988
 IEASMFEX      1 00000000 00000000 A   T   10865 10865
 IEASMFSP      1 00000000 00000000 A   T   11211 11211
 IEASPOST      1 00000000 00000000 A   T   11008 11008
 IEASVDCB      1 00000000 00000000 A   T   10469 10469
 IEATCBP       1 00000000 00000000 A   T   10419 10419
 IEATPC        1 00000000 00000000 A   T   10471 10471
 IEATRSCN      1 00000000 00000000 A   T   10829 10829
 IEAVAR02      1 00000000 00000000 A   T   10913 10913
 IEAVBLDP      1 00000000 00000000 A   T   10897 10897
 IEAVDELP      1 00000000 00000000 A   T   10900 10900
 IEAVEAC0      1 00000000 00000000 A   T   10990 10990
 IEAVEADV      1 00000000 00000000 A   T   11148 11148
 IEAVEDR1      1 00000000 00000000 A   T   11033 11033
 IEAVELRM      1 00000000 00000000 A   T   10982 10982
 IEAVELT1      1 00000000 00000000 A   T    2507  2507
 IEAVELT2      1 00000000 00000000 A   T    2741  2741
 IEAVENLU      1 00000000 00000000 A   T   11329 11329
 IEAVENQ2      1 00000000 00000000 A   T   10979 10979
 IEAVEQV1      1 00000000 00000000 A   T   11136 11136
 IEAVEQV2      1 00000000 00000000 A   T   11139 11139
 IEAVEQV3      1 00000000 00000000 A   T   11142 11142
 IEAVERI1      1 00000000 00000000 A   T   11035 11035
 IEAVERP1      1 00000000 00000000 A   T   11037 11037
 IEAVERX1      1 00000000 00000000 A   T   11225 11225
 IEAVESC1      1 00000000 00000000 A   T    3033  3033  11164
 IEAVESC2      1 00000000 00000000 A   T    3035  3035
 IEAVESC7      1 00000000 00000000 A   T    3029  3029
 IEAVESC8      1 00000000 00000000 A   T    3031  3031
 IEAVESPR      1 00000000 00000000 A   T   11093 11093
 IEAVESTU      1 00000000 00000000 A   T   11327 11327
 IEAVESVT      1 00000000 00000000 A   T    3037  3037  11099
 IEAVETOT      1 00000000 00000000 A   T    2890  2890
 IEAVETVT      1 00000000 00000000 A   T    2888  2888
 IEAVET6E      1 00000000 00000000 A   T   11199 11199
 IEAVEVT2      1 00000000 00000000 A   T   11153 11153
 IEAVEXPR      1 00000000 00000000 A   T   10961 10961
 IEAVEXP1      1 00000000 00000000 A   T   11130 11130
 IEAVFRCL      1 00000000 00000000 A   T   10899 10899
 IEAVGSDA      1 00000000 00000000 A   T   11144 11144
 IEAVGTCL      1 00000000 00000000 A   T   10898 10898
 IEAVGWSA      1 00000000 00000000 A   T   10993 10993
 IEAVLKRM      1 00000000 00000000 A   T   10700 10700
 IEAVMFRM      1 00000000 00000000 A   T   11078 11078
 IEAVMSGS      1 00000000 00000000 A   T   10647 10647
 IEAVNVT0      1 00000000 00000000 A   T   11312 11312
 IEAVRSTR      1 00000000 00000000 A   T    2112  2112
 IEAVRSUH      1 00000000 00000000 A   T   11191 11191
 IEAVRT03      1 00000000 00000000 A   T   10805 10805
 IEAVSPND      1 00000000 00000000 A   T   11201 11201
 IEAVSTAG      1 00000000 00000000 A   T   10941 10941
 IEAVSVTX      1 00000000 00000000 A   T    3039  3039
 IEAVTCTL      1 00000000 00000000 A   T   11193 11193
 IEAVTEST      1 00000000 00000000 A   T   10704 10704
1VMNT     (VMNT21) (09:48) (22MAR04) Ordinary Symbol and Literal Cross Reference                                            Page  207
 IEAVTRGR      1 00000000 00000000 A   T   11001 11001
 IEAVTRG1      1 00000000 00000000 A   T   10450 10450
 IEAVTRV3      1 00000000 00000000 A   T   10697 10697
 IEAVTSBP      1 00000000 00000000 A   T   10947 10947
 IEAVTSFR      1 00000000 00000000 A   T   10668 10668
 IEAVTSGL      1 00000000 00000000 A   T   10945 10945
 IEAVVMSR      1 00000000 00000000 A   T   10726 10726
 IEAVWAIT      1 00000000 00000000 A   T   10968 10968
 IEAVWSAC      1 00000000 00000000 A   T   10999 10999
 IEAVWSAG      1 00000000 00000000 A   T   10997 10997
 IEAVWSAL      1 00000000 00000000 A   T   10995 10995
 IEAVXEXT      1 00000000 00000000 A   T   11076 11076
 IEAVXSFT      1 00000000 00000000 A   T   11043 11043
 IEAVXSTN      1 00000000 00000000 A   T   11049 11049
 IEAVXSTS      1 00000000 00000000 A   T   11047 11047
 IEAVXUNN      1 00000000 00000000 A   T   11072 11072
 IEAVXUNS      1 00000000 00000000 A   T   11051 11051
 IEAWTCB       1 00000000 00000000 A   T   11108 11108
 IEA0DS        1 00000000 00000000 A   T   10514 10514
 IEA0EF00      1 00000000 00000000 A   T   10420 10420
 IEA0EF01      1 00000000 00000000 A   T   10460 10460
 IEA0PT0E      1 00000000 00000000 A   T   11180 11180
 IEA0PT01      1 00000000 00000000 A   T   10521 10521
 IEA0PT02      1 00000000 00000000 A   T   11105 11105
 IEA0PT03      1 00000000 00000000 A   T   11182 11182
 IEA0VL00      1 00000000 00000000 A   T   10431 10431
 IEA0VL01      1 00000000 00000000 A   T   10838 10838
 IECIXAVL      1 00000000 00000000 A   T   10506 10506
 IECPCNVT      1 00000000 00000000 A   T   10434 10434
 IECPRLTV      1 00000000 00000000 A   T   10438 10438
 IECVEXCL      1 00000000 00000000 A   T   11070 11070
 IECXAPG       1 00000000 00000000 A   T   10429 10429
 IECXITP       1 00000000 00000000 A   T   10459 10459
 IECXTLER      1 00000000 00000000 A   T   10445 10445
 IEC0SCR1      1 00000000 00000000 A   T   10604 10604
 IEECUCB       1 00000000 00000000 A   T   10475 10475
 IEEMSER       1 00000000 00000000 A   T   10453 10453  10519
 IEEVEXSN      1 00000000 00000000 A   T   10808 10808
 IEEVSTOP      1 00000000 00000000 A   T   11118 11118
 IEFAQTOP      1 00000000 00000000 A   T   10925 10925
 IEFAUSDM      1 00000000 00000000 A   T   10425 10425
 IEFENFDM      1 00000000 00000000 A   T   10584 10584
 IEFJESCT      1 00000000 00000000 A   T   10684 10684
 IEFLINK       1 00000000 00000000 A   T   10422 10422
 IEFQMWR       1 00000000 00000000 A   T   10535 10535
 IEWFBOSV      1 00000000 00000000 A   T   10512 10512
 IEWMSEPT      1 00000000 00000000 A   T   11017 11017
 IEZJSCB       1 00000000 FFFFFFE4     J    4303  4304
 IFBDCB        1 00000000 00000000 A   T   10501 10501
 IFDOLT0A      1 00000000 00000000 A   T   10863 10863
 IFGDEBVR      1 00000000 00000000 A   T   11494 11494
 IFLGS         1 000008D2 00000001     R   13201 13205  13210  13215  13220  13225
 IFREE         2 00000C5B 00000001     R   13604 13591
 IGC043BR      1 00000000 00000000 A   T   10909 10909
 IGC044R2      1 00000000 00000000 A   T   11019 11019
 IGC062R1      1 00000000 00000000 A   T   10989 10989
 IGC07903      1 00000000 00000000 A   T   11134 11134
 IGC124        1 00000000 00000000 A   T   11150 11150
 IGFPMAIN      1 00000000 00000000 A   T    2148  2148
1VMNT     (VMNT21) (09:48) (22MAR04) Ordinary Symbol and Literal Cross Reference                                            Page  208
 IGFRVT        1 00000000 00000000 A   T   10599 10599
 IGVCPBDB      1 00000000 00000000 A   T   11265 11265
 IGVCPDLB      1 00000000 00000000 A   T   11267 11267
 IGVCPFRE      1 00000000 00000000 A   T   11257 11257
 IGVCPGTC      1 00000000 00000000 A   T   11255 11255
 IGVCPGUB      1 00000000 00000000 A   T   11249 11249
 IGVCPGUP      1 00000000 00000000 A   T   11252 11252
 IGVCPGUS      1 00000000 00000000 A   T   11275 11275
 IGVGCAS       1 00000000 00000000 A   T   10903 10903
 IGVGFAS       1 00000000 00000000 A   T   10907 10907
 IGVGRRGN      1 00000000 00000000 A   T   11279 11279
 IGVGVRGN      1 00000000 00000000 A   T   11281 11281
 IGVQSPET      1 00000000 00000000 A   T   10905 10905
 IGVSLIST      1 00000000 00000000 A   T   11259 11259
 IGVSLOC       1 00000000 00000000 A   T   11263 11263
 IGVSREGN      1 00000000 00000000 A   T   11261 11261
 IGVSTSKI      1 00000000 00000000 A   T   11246 11246
 IHADCB        1 00000000 FFFFFFD5     J    7736  7816   7853   7881   7911   7941   8023   8082   8132   8207   8334
                                                  8339   8354   8360   8369   8469   8472   8477   8502   8520   8521
                                                  8525   8561   8562   9417   9643   9803  10027  10141  10171  24260U
                                                 28531U 29292U 31413U 32890U 36945U
 IHAMPL        1 00000000 00000000 A   T    2226  2226
 IHB1143D      4 00000278 00000001     F   14723 14721
 IHB1143W      2 00000294 00000001     H   14730 14722B
 IHB11591C
               2 00004DBC 00000001     H   32323 32318B
 IHB11591F
               1 00004DB8 00000001     B   32319 32324
 IHB11785      1 00004EDC 00000001     U   32658 32668M
 IHB12003      2 00005064 00000001     H   33065 33044B 33051B
 IHB13851A
               2 00005B24 00000001     H   35939 35929B
 IHB14022A
               2 00005C26 00000001     H   36201 36191B
 IHB15213      4 00006744 00000001     F   38494 38492
 IHB15216      4 0000672C 00000001     F   38486 38484
 IHB15216A
               1 0000673C 00000001     U   38491 38485B
 IHB3337A      2 00001654 00000001     H   18477 18468B
 IHB3337K      4 00001634 00000001     F   18469 18462
 IHB3338A      2 000016C0 00000001     H   18507 18498B
 IHB3338K      4 000016A0 00000001     F   18499 18492
 IHB3417A      2 00001758 00000001     H   18673 18665B
 IHB3417K      4 0000173C 00000001     F   18666 18661
 IHB4547C      2 00001E88 00000001     H   20671 20665B
 IHB4547F      1 00001E84 00000001     B   20667 20673
 IHB4547L      4 00001E80 00000001     A   20666 20672
 IHB6720       2 00002D84 00000001     H   24387 24366B 24373B
 IHB6723       2 00002DDC 00000001     H   24419 24398B 24405B
 IHB6997       2 00002F48 00000001     H   24894 24873B 24880B
 IHB7381       2 0000317C 00000001     H   25489 25468B 25475B
 IHB8620       2 00003730 00000001     H   27353 27332B 27339B
 IHB9142       2 00004010 00000001     H   28250 28229B 28236B
 IHB9393       2 000041BC 00000001     H   28678 28657B 28664B
 ILRJTERM      1 00000000 00000000 A   T   11188 11188
 ILVOL         4 00000BAC 00000001     A   13591 20345M
 IMEM          2 00000BFB 00000001     R   13597 13587
 INDSP         2 00000C03 00000001     R   13598 13584
 IOSLOCK       1 00000000 00000000 A   T    2451  2451
1VMNT     (VMNT21) (09:48) (22MAR04) Ordinary Symbol and Literal Cross Reference                                            Page  209
 IOSVDEVN      1 00000000 00000000 A   T   11205 11205
 IOSVHID       1 00000000 00000000 A   T   11215 11215
 IOSVSUCB      1 00000000 00000000 A   T   11218 11218
 IPROT         2 00000C25 00000001     R   13602 13588
 IRARMCNS      1 00000000 00000000 A   T   10959 10959
 IRARMEPS      1 00000000 00000000 A   T   11177 11177
 IRARMI00      1 00000000 00000000 A   T   10916 10916
 IRLSE         2 00000C57 00000001     R   13603 13590
 ISNBRNCH      1 00000000 00000000 A   T   11074 11074
 ISP1          2 00000C0A 00000001     R   13599 13585
 ISP2          2 00000C0E 00000001     R   13600 13586
 ISTAT         2 00000BF4 00000001     R   13596 13583
 IUNIT         2 00000C17 00000001     R   13601 13589
 IVOL          2 00000C5F 00000001     R   13605 13592  20337M
 JSCBSEC1      1 000000BC FFFFFFE4     U    4311  4414
 JSCBSEC2      1 00000104 FFFFFFE4     U    4421  4425   4432
 JSCBSEC3      1 00000104 FFFFFFE4     U    4433  4532
 JSCBS1LN      1 00000048 FFFFFFE4 A   U    4414  4536   4537   4538
 JSCBS2LN      1 00000000 FFFFFFE4 A   U    4425  4537
 JSCBS3LN      1 00000078 FFFFFFE4 A   U    4532  4538
 KEYNZERO      4 00000860 00000001     F   13112 20596
 KEYZERO       4 0000085C 00000001     F   13108 20586
 KILLDD        2 00000C6F 00000001     R   13608 13577  21384M
 KILLDSN       2 00000C7D 00000001     R   13609 13579  21392M
 KILLPRM       2 00000C6B 00000001     R   13607 13578
 KILLUN        4 00000B78 00000001     A   13577 21394
 KWRT          1 0000587A 00000001     R   31245 32181
 LNKFLGS       1 000008D4 00000001     R   13285 13289  13294  13299  13304  13313
 LSR          12 0000000C FFFFFFFF A   #    1077 15538  15680M 15794  15887M 15912  16234M 16259  16783M 16808  16994M
                                                 17019  17334M 17359  17602M 17627  17754M 17779  18001M 18026  18147M
                                                 18171  18231M 18257  18372M 18412  18548M 18601  18714M 18785  18962M
                                                 19063  19172M 19192  19297M 19317  19391M 19410  19453M 19473  19581M
                                                 19600  19643M 19663  19857M 19877  20025M 20045  20090M 20109  20154M
                                                 20174  20269M 20289  20364M 20384  20445M 20465  20538M 20558  20612M
                                                 20637  20770M 20795  20863M 20932  21749M 21774  22499M 22524  22639M
                                                 22699  23123M 23149  23398M 23426  23865M 24211  24448M 24526  25829M
                                                 25857  27826M 27937  28717M 28746  29033M 29058  29217M 29243  29321M
                                                 29435  29696M 29724  30248M 30274  30805M 30857  30999M 31051  31205M
                                                 31326  32830M 32855  32989M 33009  33080M 33107  33241M 33347  33483M
                                                 33503  33548M 33568  33627M 33647  33705M 33725  33783M 33803  33892M
                                                 33912  34001M 34021  34072M 34092  34143M 34163  34208M 34228  34274M
                                                 34294  34340M 34360  34406M 34426  34471M 34491  34594M 34614  34711M
                                                 34731  34811M 34831  34876M 34896  34941M 34961  35007M 35027  35072M
                                                 35092  35143M 35163  35208M 35228  35280M 35300  35352M 35372  35467M
                                                 35487  35582M 35602  35647M 35746  36053M 36078  36315M 36348  36496M
                                                 36528  36707M 36865  37155M 37180  37308M 37335  37381M 37411  37472M
                                                 37492  37554M 37657  37841M 38402  38626M
 MACHINE       4 00000840 00000001     C   13093 31883M 32424  35903  36165
 MAINT         4 00000016 00000001     I   13769 13768  13779U
 MOREFLGS      1 000008D3 00000001     R   13231 13235  13240  13245  13250  13255  13260  13265  13270  13279
 MSGSUFF       2 0000245E 00000001     H   22515 15716  19000  23920  27846  35682  36730
 OPNCONT       2 00004F94 00000001     H   32846 19015  35685
 OPTLOCK       1 00000000 00000000 A   T    2432  2432
 ORVCOM        2 000068D8 00000001     H   39001 35681  39011U
 ORVCOMNM      8 00006F3C 00000001     C   38980 19014  35680
 ORVNAME       8 00000874 00000001     C   13117 22550  22665  22677  23227  34553M 34566M 34676M 34689M
 PARMERR       2 000050BC 00000001     H   33338 31298  32198B 35691
 PCCA          1 00000000 FFFFFFE6     J    3418 31907
 PCCACPID     12 00000004 FFFFFFE6     X    3420 31907
1VMNT     (VMNT21) (09:48) (22MAR04) Ordinary Symbol and Literal Cross Reference                                            Page  210
 PREALLOC      2 000062B4 00000001     H   37648 18994
 PRMDATA     132 00000A59 00000001     C   13378 30947M 30948  30948M 30948  31462  31469
 PRMHDR        2 00000A54 00000001     R   13376 30939M 30943
 PRMSEG       60 00000AE0 00000001     X   13466 15975  16007  16082  16110  16328  16367  16400  16437  16537  16565
                                                 16875  16921  16949  17062  17079  17125  17153  17261  17285  31939
                                                 31956
 PRMSEGCOD
               1 00000AE0 00000001     R   13383 13392  13402  13412  13422  13432  13442  13452
 PRMSEGRT      2 00005072 00000001     H   33098 35673
 Proc_DMP      2 000011BE 00000001     H   16799 15720
 Proc_FD       2 00000F20 00000001     H   15903 15718
 Proc_Inc      2 00001252 00000001     H   17010 15721
 Proc_VRF      2 00001030 00000001     H   16250 15719
 PRTSEG       60 00000B1C 00000001     X   13554 13874  13891  13915  13969  13986  14013  14030  14051  14075  14098
                                                 14122  14361  14374  14821  14845  14951  14983  15003  15057  15085
                                                 15110  15242  15259  15286  15299  16151  16192  16209  16606  16700
                                                 16736  16762  17463  17509  17542  17563  17580  17832  17900  17924
                                                 17956  17978  20990  21007  21031  21077  21152  21169  21190  21244
                                                 21268  21322  21346  21430  21447  21468  21485  21517  21534  21566
                                                 21583  21607  21651  21681  21705  21854  21874  21891  21912  21936
                                                 21985  22002  22023  22047  22073  22100  22117  22141  22201  22218
                                                 22239  22263  22289  22306  22335  22359  22387  22407  22424  22445
                                                 22469  22571  22588  22616  22796  22813  22834  22851  22879  22891
                                                 22912  22929  22942  22999  23016  23033  23061  23077  23269  23286
                                                 23314  23326  23347  23360  24642  24655  24917  24934  24955  24972
                                                 24996  25016  25066  25083  25107  25169  25193  25234  25258  25511
                                                 25528  25549  25566  25590  25652  25676  25713  25737  25980  25993
                                                 26014  26038  26234  26261  26278  26302  26319  26343  26360  26384
                                                 26441  26465  26719  26746  26763  26787  26821  26838  26867  26884
                                                 26914  26931  26955  27399  27416  27437  27454  27478  27498  27548
                                                 27565  27589  27651  27675  27716  27740  28275  28292  28313  28330
                                                 28354  28416  28440  28481  28505  29792  29819  29836  29860  29877
                                                 29901  29918  29935  29959  29976  30000  30017  30041  30061  30078
                                                 30111  30157  30190  30218  30361  30388  30420  30447  30473  30493
                                                 30510  30537  30554  30578  30595  30636  30668  30689  30717  31477
                                                 31494  31512  31536  31556  31573  31602  31626  31646  31663  31705
                                                 31729  31784  31848  32064  32081  32106  32123  32147  32274  32298
                                                 32354  32378  32501  32518  32542  32574  32591  32604  32700  32932
                                                 32956  33384  33401  33430  33447  33460  36004  36017  36266  36279
                                                 36925  36985  37009  38439  38463  38542  38566  38583  38607  39043
                                                 39080  39111  39135  39159  39177  39209  39236  39260  39294  39321
                                                 39345  39430  39459  39476  39500  39520  39549  39566  39590  39610
                                                 39655  39672  39696  39715  39751
 PRTSEGCOD
               1 00000B1C 00000001     R   13471 13480  13490  13500  13510  13520  13530  13540
 PSA           1 00000000 FFFFFFE7     J    2108  2106U  3054   3284  31906
 PSADTSAV      8 000006C0 FFFFFFE7     D    2854  2857   2858
 PSAEMS2S      4 0000026C FFFFFFE7     F    2387  2391
 PSAGSAV      64 000008A8 FFFFFFE7     X    2939  2941   2942
 PSAIPCIN      4 00000268 FFFFFFE7     F    2380  2384
 PSAJSTSA     64 00000998 FFFFFFE7     X    2988  2992   2993
 PSAPCCAV      4 00000208 FFFFFFE7     A    2260 31906
 PSARTM1R      4 000003FC FFFFFFE7     F    2614  2619
 PSARV7E8      4 000007E8 FFFFFFE7     X    2870  2871   2872
 PSASLSA      72 00000950 FFFFFFE7     X    2980  2986   2987
 PSASTOSM      4 00000270 FFFFFFE7     F    2394  2403
 PSATNEW       4 00000218 FFFFFFE7     A    2264  2267
 QUIESCE       2 00001550 00000001     H   18162 23924
 RAR          14 0000000E FFFFFFFF A   #    1115 13827M 13828M 13828B 13853M 13854M 13854B 13877M 13878M 13878B 13894M
1VMNT     (VMNT21) (09:48) (22MAR04) Ordinary Symbol and Literal Cross Reference                                            Page  211
                                                 13895M 13895B 13918M 13919M 13919B 13922M 13923M 13923B 13972M 13973M
                                                 13973B 13989M 13990M 13990B 13994M 14016M 14017M 14017B 14033M 14034M
                                                 14034B 14054M 14055M 14055B 14078M 14079M 14079B 14101M 14102M 14102B
                                                 14125M 14126M 14126B 14181M 14182M 14182B 14185M 14186M 14186B 14189M
                                                 14190M 14190B 14193M 14194M 14194B 14235M 14236M 14236B 14254M 14255M
                                                 14255B 14258M 14259M 14259B 14262M 14263M 14263B 14347M 14348M 14348B
                                                 14364M 14365M 14365B 14379M 14380M 14380B 14417M 14418M 14418B 14453M
                                                 14454M 14454B 14483M 14484M 14484B 14512M 14513M 14513B 14557M 14558M
                                                 14558B 14568M 14569M 14569B 14602M 14603M 14603B 14626M 14627M 14627B
                                                 14773M 14774M 14774B 14824M 14825M 14825B 14848M 14849M 14849B 14919M
                                                 14920M 14920B 14954M 14955M 14955B 14986M 14987M 14987B 15008M 15009M
                                                 15009B 15014M 15015M 15015B 15043M 15044M 15044B 15060M 15061M 15061B
                                                 15064M 15065M 15065B 15088M 15089M 15089B 15096M 15097M 15097B 15100M
                                                 15101M 15101B 15115M 15116M 15116B 15151B 15208B 15228M 15229M 15229B
                                                 15245M 15246M 15246B 15249M 15250M 15250B 15264M 15265M 15265B 15289M
                                                 15290M 15290B 15304M 15305M 15305B 15390B 15399B 15535  15682M 15685B
                                                 15791  15831M 15832M 15832B 15889M 15892B 15909  15978M 15979M 15979B
                                                 16010M 16011M 16011B 16030M 16031M 16031B 16085M 16086M 16086B 16113M
                                                 16114M 16114B 16121M 16122M 16122B 16137M 16138M 16138B 16154M 16155M
                                                 16155B 16158M 16159M 16159B 16178M 16179M 16179B 16195M 16196M 16196B
                                                 16199M 16200M 16200B 16214M 16215M 16215B 16236M 16239B 16256  16331M
                                                 16332M 16332B 16370M 16371M 16371B 16403M 16404M 16404B 16440M 16441M
                                                 16441B 16484M 16485M 16485B 16540M 16541M 16541B 16568M 16569M 16569B
                                                 16576M 16577M 16577B 16609M 16610M 16610B 16677M 16678M 16678B 16686M
                                                 16687M 16687B 16703M 16704M 16704B 16707M 16708M 16708B 16739M 16740M
                                                 16740B 16743M 16744M 16744B 16767M 16768M 16768B 16785M 16788B 16805
                                                 16860M 16861M 16861B 16878M 16879M 16879B 16924M 16925M 16925B 16952M
                                                 16953M 16953B 16960M 16961M 16961B 16978M 16979M 16979B 16996M 16999B
                                                 17016  17065M 17066M 17066B 17082M 17083M 17083B 17128M 17129M 17129B
                                                 17156M 17157M 17157B 17164M 17165M 17165B 17182M 17183M 17183B 17202M
                                                 17203M 17203B 17264M 17265M 17265B 17288M 17289M 17289B 17296M 17297M
                                                 17297B 17314M 17315M 17315B 17336M 17339B 17356  17433M 17434M 17434B
                                                 17466M 17467M 17467B 17512M 17513M 17513B 17545M 17546M 17546B 17566M
                                                 17567M 17567B 17570M 17571M 17571B 17585M 17586M 17586B 17604M 17607B
                                                 17624  17756M 17759B 17776  17835M 17836M 17836B 17903M 17904M 17904B
                                                 17927M 17928M 17928B 17959M 17960M 17960B 17981M 17982M 17982B 18003M
                                                 18006B 18023  18149M 18152B 18168  18201M 18202M 18202B 18233M 18236B
                                                 18254  18285M 18286M 18286B 18356M 18357M 18357B 18374M 18377B 18409
                                                 18550M 18553B 18598  18716M 18719B 18782  18964M 18967B 19060  19113M
                                                 19114M 19114B 19133M 19139M 19140M 19140B 19146M 19174M 19177B 19189
                                                 19223M 19224M 19224B 19250M 19299M 19302B 19314  19393M 19396B 19407
                                                 19437M 19438M 19438B 19455M 19458B 19470  19583M 19586B 19597  19627M
                                                 19628M 19628B 19645M 19648B 19660  19859M 19862B 19874  20027M 20030B
                                                 20042  20092M 20095B 20106  20156M 20159B 20171  20271M 20274B 20286
                                                 20366M 20369B 20381  20425M 20426M 20426B 20447M 20450B 20462  20540M
                                                 20543B 20555  20614M 20617B 20634  20772M 20775B 20792  20837M 20865M
                                                 20868B 20929  20959M 20993M 20994M 20994B 21010M 21011M 21011B 21034M
                                                 21035M 21035B 21080M 21081M 21081B 21086M 21123M 21133M 21155M 21156M
                                                 21156B 21172M 21173M 21173B 21193M 21194M 21194B 21247M 21248M 21248B
                                                 21271M 21272M 21272B 21325M 21326M 21326B 21349M 21350M 21350B 21353M
                                                 21354M 21354B 21372M 21390M 21391M 21391B 21433M 21434M 21434B 21450M
                                                 21451M 21451B 21471M 21472M 21472B 21488M 21489M 21489B 21520M 21521M
                                                 21521B 21537M 21538M 21538B 21569M 21570M 21570B 21586M 21587M 21587B
                                                 21610M 21611M 21611B 21618M 21619M 21619B 21654M 21655M 21655B 21684M
                                                 21685M 21685B 21708M 21709M 21709B 21751M 21754B 21771  21814M 21815M
                                                 21815B 21857M 21858M 21858B 21877M 21878M 21878B 21894M 21895M 21895B
                                                 21915M 21916M 21916B 21939M 21940M 21940B 21988M 21989M 21989B 22005M
                                                 22006M 22006B 22026M 22027M 22027B 22050M 22051M 22051B 22076M 22077M
                                                 22077B 22081M 22103M 22104M 22104B 22120M 22121M 22121B 22144M 22145M
1VMNT     (VMNT21) (09:48) (22MAR04) Ordinary Symbol and Literal Cross Reference                                            Page  212
                                                 22145B 22204M 22205M 22205B 22221M 22222M 22222B 22242M 22243M 22243B
                                                 22266M 22267M 22267B 22292M 22293M 22293B 22309M 22310M 22310B 22338M
                                                 22339M 22339B 22362M 22363M 22363B 22390M 22391M 22391B 22410M 22411M
                                                 22411B 22427M 22428M 22428B 22448M 22449M 22449B 22472M 22473M 22473B
                                                 22501M 22504B 22521  22552M 22574M 22575M 22575B 22591M 22592M 22592B
                                                 22596M 22619M 22620M 22620B 22641M 22644B 22696  22744M 22799M 22800M
                                                 22800B 22816M 22817M 22817B 22837M 22838M 22838B 22854M 22855M 22855B
                                                 22858M 22859M 22859B 22882M 22883M 22883B 22894M 22895M 22895B 22898M
                                                 22899M 22899B 22915M 22916M 22916B 22932M 22933M 22933B 22947M 22948M
                                                 22948B 22958M 22959M 22959B 23002M 23003M 23003B 23019M 23020M 23020B
                                                 23036M 23037M 23037B 23040M 23041M 23041B 23064M 23065M 23065B 23080M
                                                 23081M 23081B 23125M 23128B 23146  23216M 23230M 23231M 23231B 23251M
                                                 23252M 23252B 23272M 23273M 23273B 23289M 23290M 23290B 23293M 23294M
                                                 23294B 23317M 23318M 23318B 23329M 23330M 23330B 23333M 23334M 23334B
                                                 23350M 23351M 23351B 23365M 23366M 23366B 23400M 23403B 23423  23484M
                                                 23485M 23485B 23516M 23517M 23517B 23559M 23560M 23560B 23612M 23613M
                                                 23613B 23648M 23649M 23649B 23684M 23685M 23685B 23720M 23721M 23721B
                                                 23756M 23757M 23757B 23793M 23794M 23794B 23812M 23813M 23813B 23843M
                                                 23844M 23844B 23867M 23870B 24208  24450M 24453B 24523  24628M 24629M
                                                 24629B 24645M 24646M 24646B 24660M 24661M 24661B 24666M 24667M 24667B
                                                 24701M 24702M 24702B 24718M 24719M 24719B 24737M 24738M 24738B 24784M
                                                 24785M 24785B 24808M 24809M 24809B 24826M 24827M 24827B 24854M 24855M
                                                 24855B 24903M 24904M 24904B 24920M 24921M 24921B 24937M 24938M 24938B
                                                 24958M 24959M 24959B 24975M 24976M 24976B 24999M 25000M 25000B 25019M
                                                 25020M 25020B 25069M 25070M 25070B 25086M 25087M 25087B 25110M 25111M
                                                 25111B 25143M 25144M 25144B 25172M 25173M 25173B 25196M 25197M 25197B
                                                 25237M 25238M 25238B 25261M 25262M 25262B 25272M 25273M 25273B 25313M
                                                 25314M 25314B 25337M 25338M 25338B 25354M 25355M 25355B 25381M 25382M
                                                 25382B 25398M 25399M 25399B 25425M 25426M 25426B 25449M 25450M 25450B
                                                 25497M 25498M 25498B 25514M 25515M 25515B 25531M 25532M 25532B 25552M
                                                 25553M 25553B 25569M 25570M 25570B 25593M 25594M 25594B 25626M 25627M
                                                 25627B 25655M 25656M 25656B 25679M 25680M 25680B 25716M 25717M 25717B
                                                 25740M 25741M 25741B 25765M 25766M 25766B 25769M 25770M 25770B 25802M
                                                 25803M 25803B 25831M 25834B 25854  25966M 25967M 25967B 25983M 25984M
                                                 25984B 25998M 25999M 25999B 26017M 26018M 26018B 26041M 26042M 26042B
                                                 26046M 26047M 26047B 26081M 26082M 26082B 26098M 26099M 26099B 26117M
                                                 26118M 26118B 26135M 26136M 26136B 26153M 26154M 26154B 26171M 26172M
                                                 26172B 26237M 26238M 26238B 26264M 26265M 26265B 26281M 26282M 26282B
                                                 26305M 26306M 26306B 26322M 26323M 26323B 26346M 26347M 26347B 26363M
                                                 26364M 26364B 26387M 26388M 26388B 26444M 26445M 26445B 26468M 26469M
                                                 26469B 26532M 26533M 26533B 26559M 26560M 26560B 26577M 26578M 26578B
                                                 26595M 26596M 26596B 26623M 26624M 26624B 26640M 26641M 26641B 26664M
                                                 26665M 26665B 26722M 26723M 26723B 26749M 26750M 26750B 26766M 26767M
                                                 26767B 26790M 26791M 26791B 26824M 26825M 26825B 26841M 26842M 26842B
                                                 26870M 26871M 26871B 26887M 26888M 26888B 26917M 26918M 26918B 26934M
                                                 26935M 26935B 26958M 26959M 26959B 27004M 27005M 27005B 27028M 27029M
                                                 27029B 27045M 27046M 27046B 27069M 27070M 27070B 27086M 27087M 27087B
                                                 27110M 27111M 27111B 27127M 27128M 27128B 27151M 27152M 27152B 27168M
                                                 27169M 27169B 27185M 27186M 27186B 27209M 27210M 27210B 27241M 27242M
                                                 27242B 27273M 27274M 27274B 27305M 27306M 27306B 27384M 27385M 27385B
                                                 27402M 27403M 27403B 27419M 27420M 27420B 27440M 27441M 27441B 27457M
                                                 27458M 27458B 27481M 27482M 27482B 27501M 27502M 27502B 27551M 27552M
                                                 27552B 27568M 27569M 27569B 27592M 27593M 27593B 27625M 27626M 27626B
                                                 27654M 27655M 27655B 27678M 27679M 27679B 27719M 27720M 27720B 27743M
                                                 27744M 27744B 27759M 27760M 27760B 27763M 27764M 27764B 27796M 27797M
                                                 27797B 27828M 27831B 27934  28011M 28012M 28012B 28046M 28047M 28047B
                                                 28063M 28064M 28064B 28081M 28082M 28082B 28137M 28138M 28138B 28164M
                                                 28165M 28165B 28181M 28182M 28182B 28205M 28206M 28206B 28261M 28262M
                                                 28262B 28278M 28279M 28279B 28295M 28296M 28296B 28316M 28317M 28317B
1VMNT     (VMNT21) (09:48) (22MAR04) Ordinary Symbol and Literal Cross Reference                                            Page  213
                                                 28333M 28334M 28334B 28357M 28358M 28358B 28390M 28391M 28391B 28419M
                                                 28420M 28420B 28443M 28444M 28444B 28484M 28485M 28485B 28508M 28509M
                                                 28509B 28621M 28622M 28622B 28719M 28722B 28743  29035M 29038B 29055
                                                 29219M 29222B 29240  29323M 29326B 29432  29478M 29530M 29580M 29630M
                                                 29698M 29701B 29721  29795M 29796M 29796B 29822M 29823M 29823B 29839M
                                                 29840M 29840B 29863M 29864M 29864B 29880M 29881M 29881B 29904M 29905M
                                                 29905B 29921M 29922M 29922B 29938M 29939M 29939B 29962M 29963M 29963B
                                                 29979M 29980M 29980B 30003M 30004M 30004B 30020M 30021M 30021B 30044M
                                                 30045M 30045B 30064M 30065M 30065B 30081M 30082M 30082B 30114M 30115M
                                                 30115B 30160M 30161M 30161B 30193M 30194M 30194B 30221M 30222M 30222B
                                                 30250M 30253B 30271  30364M 30365M 30365B 30391M 30392M 30392B 30423M
                                                 30424M 30424B 30450M 30451M 30451B 30476M 30477M 30477B 30496M 30497M
                                                 30497B 30513M 30514M 30514B 30540M 30541M 30541B 30557M 30558M 30558B
                                                 30581M 30582M 30582B 30598M 30599M 30599B 30639M 30640M 30640B 30671M
                                                 30672M 30672B 30692M 30693M 30693B 30720M 30721M 30721B 30807M 30810B
                                                 30854  31001M 31004B 31048  31207M 31210B 31323  31355M 31480M 31481M
                                                 31481B 31497M 31498M 31498B 31515M 31516M 31516B 31539M 31540M 31540B
                                                 31559M 31560M 31560B 31576M 31577M 31577B 31605M 31606M 31606B 31629M
                                                 31630M 31630B 31649M 31650M 31650B 31666M 31667M 31667B 31708M 31709M
                                                 31709B 31732M 31733M 31733B 31738M 31739M 31739B 31787M 31788M 31788B
                                                 31802M 31803M 31803B 31851M 31852M 31852B 31942M 31943M 31943B 31959M
                                                 31960M 31960B 31984M 31985M 31985B 31999M 32000M 32000B 32067M 32068M
                                                 32068B 32084M 32085M 32085B 32109M 32110M 32110B 32126M 32127M 32127B
                                                 32150M 32151M 32151B 32277M 32278M 32278B 32301M 32302M 32302B 32357M
                                                 32358M 32358B 32381M 32382M 32382B 32504M 32505M 32505B 32521M 32522M
                                                 32522B 32545M 32546M 32546B 32560M 32561M 32561B 32577M 32578M 32578B
                                                 32594M 32595M 32595B 32609M 32610M 32610B 32635M 32636M 32636B 32703M
                                                 32704M 32704B 32719M 32720M 32720B 32799M 32800M 32800B 32807M 32808M
                                                 32808B 32814M 32815M 32815B 32832M 32835B 32852  32935M 32936M 32936B
                                                 32959M 32960M 32960B 32991M 32994B 33006  33082M 33085B 33104  33243M
                                                 33246B 33344  33387M 33388M 33388B 33404M 33405M 33405B 33433M 33434M
                                                 33434B 33450M 33451M 33451B 33465M 33466M 33466B 33485M 33488B 33500
                                                 33550M 33553B 33565  33629M 33632B 33644  33707M 33710B 33722  33785M
                                                 33788B 33800  33894M 33897B 33909  34003M 34006B 34018  34074M 34077B
                                                 34089  34145M 34148B 34160  34210M 34213B 34225  34276M 34279B 34291
                                                 34342M 34345B 34357  34408M 34411B 34423  34473M 34476B 34488  34530M
                                                 34531M 34531B 34596M 34599B 34611  34653M 34654M 34654B 34713M 34716B
                                                 34728  34770M 34771M 34771B 34813M 34816B 34828  34878M 34881B 34893
                                                 34943M 34946B 34958  35009M 35012B 35024  35074M 35077B 35089  35145M
                                                 35148B 35160  35210M 35213B 35225  35282M 35285B 35297  35354M 35357B
                                                 35369  35427M 35428M 35428B 35469M 35472B 35484  35542M 35543M 35543B
                                                 35584M 35587B 35599  35649M 35652B 35743  35990M 35991M 35991B 36007M
                                                 36008M 36008B 36022M 36023M 36023B 36055M 36058B 36075  36252M 36253M
                                                 36253B 36269M 36270M 36270B 36284M 36285M 36285B 36317M 36320B 36345
                                                 36498M 36501B 36525  36709M 36712B 36862  36928M 36929M 36929B 36988M
                                                 36989M 36989B 37012M 37013M 37013B 37035M 37083M 37093M 37120M 37157M
                                                 37160B 37177  37226M 37271M 37310M 37313B 37332  37383M 37386B 37408
                                                 37474M 37477B 37489  37556M 37559B 37654  37703M 37773M 37843M 37846B
                                                 37939M 37940M 37940B 37958M 37959M 37959B 38399  38442M 38443M 38443B
                                                 38466M 38467M 38467B 38545M 38546M 38546B 38569M 38570M 38570B 38586M
                                                 38587M 38587B 38610M 38611M 38611B 38628M 38631B 38780M 39046M 39047M
                                                 39047B 39083M 39084M 39084B 39114M 39115M 39115B 39138M 39139M 39139B
                                                 39162M 39163M 39163B 39180M 39181M 39181B 39212M 39213M 39213B 39217M
                                                 39239M 39240M 39240B 39263M 39264M 39264B 39297M 39298M 39298B 39302M
                                                 39324M 39325M 39325B 39348M 39349M 39349B 39433M 39434M 39434B 39462M
                                                 39463M 39463B 39479M 39480M 39480B 39503M 39504M 39504B 39523M 39524M
                                                 39524B 39552M 39553M 39553B 39569M 39570M 39570B 39593M 39594M 39594B
                                                 39613M 39614M 39614B 39658M 39659M 39659B 39675M 39676M 39676B 39699M
                                                 39700M 39700B 39718M 39719M 39719B 39754M 39755M 39755B
1VMNT     (VMNT21) (09:48) (22MAR04) Ordinary Symbol and Literal Cross Reference                                            Page  214
 REGSAVE       4 000008D8 00000001     F   13327 15125M
 REPADR        1 00005E44 00000001     C   35723 35925M 35931  35959  35979  36180M 36193  36221  36241
 RET_FAIL      1 00000010 00000001 A   U    1147 15040  16593
 RET_INT       1 00000014 00000001 A   U    1148 31387  31418  31770  31834  32547  32686  32961
 RET_WRN       1 00000004 00000001 A   U    1144 16745  32261
 RETCDE        4 00000864 00000001     A   13114 14645  14933  15018  15040M 16134M 16593M 16745M 17403M 21207  21726M
                                                 25263M 25742M 26470M 26960M 27745M 28510M 31387M 31418M 31452M 31452
                                                 31770M 31834M 32261M 32383M 32547M 32686M 32961M 33467M 36024M 36286M
                                                 36930M 37014M
 RETUCBA       1 00000000 00000010     T   27871 27871
 RETVOLU       1 00000000 00000012     T   30820 30820  36735
 RMBRANCH      1 00000000 00000000 A   T   11084 11084
 RPT_SCVT      2 00002758 00000001     H   23417 23921
 RSMLOCK       1 00000000 00000000 A   T    2444  2444
 RTRIM         2 00000438 00000001     H   15139 13994B 19133B 19146B 19250B 20837B 21086B 21123B 21133B 22081B 22552B
                                                 22596B 22744B 23216B 37703B 37773B 38780B 39217B 39302B
 R0            0 00000000 FFFFFFFF A   #     742 13813M 13816  13866M 13866  13883M 13907M 13907  13961M 13978M 13992M
                                                 14022M 14043M 14043  14067M 14067  14090M 14114M 14114  14353M 14376M
                                                 14813M 14837M 14837  14858M 14943M 14975M 15005M 15020M 15024  15030M
                                                 15049M 15077M 15077  15112M 15125  15148M 15148  15161  15185M 15234M
                                                 15261M 15278M 15301M 15625  15626M 15627  15639M 15639  15656M 15999M
                                                 16074M 16102M 16102  16143M 16184M 16211M 16359M 16392M 16429M 16529M
                                                 16557M 16557  16598M 16692M 16728M 16764M 16913M 16941M 16941  17071M
                                                 17117M 17145M 17145  17253M 17277M 17277  17455M 17501M 17534M 17555M
                                                 17582M 17824M 17855M 17874M 17916M 17948M 17970M 17970  18515M 18517M
                                                 18519M 18520M 18521M 18522M 18682M 18689  18689M 18880M 18881M 18881
                                                 18897M 18898M 18899  18911  18917M 18918M 18918  18937M 18937  18947
                                                 19091  19131M 19134  19144M 19147  19240M 19241  19242M 19243  19247M
                                                 19252  19353  19509  19719M 19724  19783  19916  20221  20230  20325
                                                 20420M 20490  20492M 20498  20592M 20592  20835M 20838  20840M 20841
                                                 20982M 20982  20999M 21023M 21023  21069M 21084M 21087  21121M 21124
                                                 21127M 21129  21131M 21161M 21182M 21182  21213M 21214M 21226  21236M
                                                 21260M 21260  21314M 21338M 21338  21385M 21386M 21387  21422M 21439M
                                                 21460M 21460  21477M 21509M 21526M 21558M 21575M 21599M 21599  21643M
                                                 21643  21673M 21697M 21697  21846M 21846  21866M 21883M 21904M 21904
                                                 21928M 21928  21977M 21994M 22015M 22015  22039M 22039  22065M 22079M
                                                 22109M 22133M 22133  22166M 22166  22193M 22210M 22231M 22231  22255M
                                                 22255  22281M 22298M 22327M 22351M 22351  22379M 22379  22399M 22416M
                                                 22437M 22437  22461M 22461  22549M 22580M 22593M 22741M 22745  22788M
                                                 22805M 22826M 22826  22843M 22871M 22871  22904M 22921M 22944M 22991M
                                                 23008M 23025M 23053M 23053  23213M 23217  23261M 23278M 23306M 23306
                                                 23339M 23362M 23475M 23507M 23550M 23603M 23639M 23675M 23711M 23747M
                                                 23762M 23763M 23764  23784M 23803M 23834M 23834  24264M 24265  24634M
                                                 24657M 24690M 24703M 24726M 24773M 24797M 24815M 24843M 24843  24909M
                                                 24926M 24947M 24947  24964M 24988M 24988  25008M 25041M 25042M 25043M
                                                 25075M 25099M 25099  25114M 25115M 25115  25161M 25185M 25185  25226M
                                                 25250M 25250  25302M 25326M 25343M 25370M 25387M 25414M 25438M 25438
                                                 25503M 25520M 25541M 25541  25558M 25582M 25582  25597M 25598M 25598
                                                 25644M 25668M 25668  25705M 25729M 25729  25972M 25995M 26006M 26030M
                                                 26030  26070M 26083M 26106M 26124M 26142M 26160M 26226M 26253M 26270M
                                                 26294M 26311M 26335M 26352M 26376M 26376  26433M 26457M 26457  26508M
                                                 26521M 26548M 26566M 26584M 26612M 26629M 26653M 26653  26711M 26738M
                                                 26755M 26779M 26779  26813M 26830M 26859M 26876M 26906M 26923M 26947M
                                                 26947  26993M 27017M 27034M 27058M 27058  27075M 27099M 27116M 27140M
                                                 27140  27157M 27174M 27198M 27230M 27262M 27294M 27294  27391M 27408M
                                                 27429M 27429  27446M 27470M 27470  27490M 27523M 27524M 27525M 27557M
                                                 27581M 27581  27596M 27597M 27597  27643M 27667M 27667  27708M 27732M
                                                 27732  28035M 28048M 28070M 28115M 28126M 28153M 28170M 28194M 28194
                                                 28267M 28284M 28305M 28305  28322M 28346M 28346  28361M 28362M 28362
1VMNT     (VMNT21) (09:48) (22MAR04) Ordinary Symbol and Literal Cross Reference                                            Page  215
                                                 28408M 28432M 28432  28473M 28497M 28497  28543M 28544  28787M 28856M
                                                 28864M 28884M 29098  29162M 29188M 29188  29492M 29493  29642M 29643
                                                 29784M 29811M 29828M 29852M 29869M 29893M 29910M 29927M 29951M 29968M
                                                 29992M 30009M 30033M 30033  30053M 30070M 30103M 30149M 30182M 30210M
                                                 30210  30353M 30380M 30412M 30439M 30465M 30465  30485M 30502M 30529M
                                                 30546M 30570M 30587M 30628M 30660M 30681M 30709M 30709  30752M 30753
                                                 30754M 30755  30883  30938M 30939  30949M 30975M 30975  31134  31469M
                                                 31482M 31504M 31528M 31528  31548M 31565M 31582M 31618M 31618  31638M
                                                 31655M 31671M 31671  31697M 31721M 31721  31776M 31840M 31906  31931M
                                                 31944M 31975M 31986M 32056M 32073M 32098M 32115M 32139M 32139  32266M
                                                 32290M 32290  32314M 32346M 32370M 32370  32421M 32422  32426M 32427
                                                 32493M 32510M 32534M 32534  32566M 32583M 32606M 32637  32692M 32924M
                                                 32948M 32948  33190  33191M 33191  33217M 33217  33376M 33393M 33422M
                                                 33439M 33462M 34547M 34554  34670M 34677  34776  35418  35433  35533
                                                 35548  35815M 35832M 35832  35996M 36019M 36258M 36281M 36377  36378
                                                 36378  36378  36414M 36415  36557  36558  36558  36558  36598M 36599
                                                 36639M 36640  36736  36736  36736  36917M 36977M 37001M 37001  37032M
                                                 37032  37066M 37067M 37067  37080M 37090M 37090  37094M 37102  37223M
                                                 37223  37267M 37437  37518  37701M 37704  37711M 37712M 37713  37771M
                                                 37774  37893  38077  38142M 38193M 38283  38431M 38455M 38455  38534M
                                                 38558M 38575M 38599M 38599  38777M 38778M 38781  38784M 38785  38850M
                                                 38910M 39023M 39035M 39072M 39098  39103M 39127M 39151M 39151  39169M
                                                 39201M 39215M 39252M 39252  39286M 39300M 39337M 39337  39361M 39362
                                                 39365M 39384M 39422M 39435M 39468M 39492M 39492  39512M 39525M 39558M
                                                 39582M 39582  39602M 39624M 39625M 39626M 39647M 39664M 39688M 39688
                                                 39707M 39743M 39778M 39785M
 R1            1 00000001 FFFFFFFF A   #     755 13811  13819  13882M 13977M 13991M 14021M 14039M 14089M 14321M 14322
                                                 14325M 14326M 14326  14352M 14375M 14653M 14654  14655M 14770M 14775
                                                 14812M 14901M 14942M 14974M 15004M 15021M 15025  15048M 15111M 15160
                                                 15233M 15260M 15273M 15300M 15635M 15998M 16027M 16073M 16115M 16117
                                                 16142M 16183M 16210M 16358M 16391M 16428M 16461M 16477M 16528M 16571M
                                                 16572  16597M 16644M 16645M 16645  16691M 16727M 16763M 16857M 16912M
                                                 16955M 16956  17070M 17116M 17159M 17160  17252M 17291M 17292  17410M
                                                 17411M 17411  17454M 17500M 17533M 17554M 17581M 17652M 17661M 17661
                                                 17674M 17683M 17683  17698M 17699M 17699  17720M 17721M 17721  17823M
                                                 17854M 17873M 17909M 17947M 17966M 18051  18197M 18282M 18447  18515M
                                                 18524  18524M 18687M 18689  18852  19115  19130M 19134M 19141  19143M
                                                 19147M 19225  19248M 19251  19718M 20421M 20491  20497  20501M 20521M
                                                 20523M 20583  20588M 20699U 20744  20755  20755M 20834M 20838M 20957M
                                                 20998M 21083M 21087M 21120M 21124M 21125M 21130M 21160M 21178M 21235M
                                                 21313M 21370M 21394M 21395  21396M 21438M 21456M 21476M 21502M 21525M
                                                 21551M 21574M 21672M 21882M 21900M 21993M 22011M 22078M 22108M 22209M
                                                 22227M 22297M 22320M 22415M 22433M 22550M 22579M 22594M 22742M 22787M
                                                 22804M 22822M 22842M 22903M 22920M 22943M 22990M 23007M 23024M 23082M
                                                 23214M 23227M 23260M 23277M 23338M 23361M 23506M 23549M 23602M 23638M
                                                 23674M 23710M 23746M 23783M 23802M 24610M 24633M 24656M 24663M 24683M
                                                 24707M 24707  24725M 24772M 24790M 24814M 24898M 24899  24908M 24925M
                                                 24943M 24963M 25036M 25074M 25160M 25225M 25269M 25301M 25319M 25342M
                                                 25365M 25386M 25409M 25492M 25493  25502M 25519M 25537M 25557M 25643M
                                                 25704M 25780U 25948M 25971M 25994M 26005M 26043M 26063M 26087M 26087
                                                 26105M 26123M 26141M 26159M 26248M 26269M 26287M 26310M 26328M 26351M
                                                 26411M 26432M 26476  26509M 26520M 26543M 26565M 26583M 26607M 26628M
                                                 26710M 26733M 26754M 26829M 26851M 26875M 26898M 26922M 26992M 27010M
                                                 27033M 27074M 27092M 27115M 27156M 27173M 27191M 27229M 27261M 27379M
                                                 27380  27390M 27407M 27425M 27445M 27518M 27556M 27642M 27707M 27774U
                                                 28008M 28028M 28052M 28052  28069M 28116M 28125M 28148M 28169M 28253M
                                                 28254  28256M 28257  28266M 28283M 28301M 28321M 28407M 28472M 28521M
                                                 28531U 28786M 28855M 28863M 28883M 29476M 29494M 29528M 29544M 29578M
                                                 29594M 29628M 29645M 29783M 29806M 29827M 29845M 29868M 29886M 29909M
1VMNT     (VMNT21) (09:48) (22MAR04) Ordinary Symbol and Literal Cross Reference                                            Page  216
                                                 29926M 29944M 29967M 29985M 30008M 30069M 30102M 30148M 30181M 30352M
                                                 30375M 30411M 30434M 30501M 30524M 30545M 30563M 30586M 30600M 30616
                                                 30621M 30659M 30680M 30722M 30732U 31153  31172M 31174  31352M 31367M
                                                 31368  31369M 31462M 31486M 31486  31503M 31564M 31583M 31654M 31675M
                                                 31675  31690M 31735M 31752M 31775M 31799M 31816M 31839M 31900  31906M
                                                 31907M 31907  31924M 31948M 31948  31968M 31990M 31990  32072M 32093M
                                                 32114M 32265M 32345M 32399  32400  32492M 32509M 32565M 32582M 32605M
                                                 32629M 32637  32691M 32716M 32896  32923M 33375M 33392M 33415M 33438M
                                                 33461M 34548M 34671M 35995M 36018M 36257M 36280M 36377  36378  36378
                                                 36378  36386  36414M 36557  36558  36558  36558  36566  36598M 36621M
                                                 36635U 36736  36736  36736  36893M 36916M 36976M 37033M 37081M 37091M
                                                 37118M 37224M 37253M 37263U 37360M 37362  37362M 37436  37517  37682
                                                 37700M 37704M 37706M 37770M 37774M 37791M 37929  38064U 38084  38145M
                                                 38146M 38146  38198M 38430M 38517  38533M 38551M 38574M 38653  38665M
                                                 38776M 38781M 38782M 39034M 39071M 39102M 39120M 39168M 39200M 39214M
                                                 39265M 39285M 39299M 39350M 39359  39363M 39385M 39421M 39435M 39467M
                                                 39525M 39557M 39623M 39640M 39663M 39706M 39742M 39777M
 R10          10 0000000A FFFFFFFF A   #     872 24236M 24246U 24561M 24571U 25892M 25902U 27972M 27982U 28771M 28781U
                                                 29083M 29093U 29268M 29278U
 R11          11 0000000B FFFFFFFF A   #     885 13784M 13800U 37933M 38036M 38044U 38387U 38654M 39013M 39021U
 R12          12 0000000C FFFFFFFF A   #     898 13769  15030M 37928  37929M 37971  38025  38198M 38640  38704M 38850M
                                                 38910M 39002  39785M
 R13          13 0000000D FFFFFFFF A   #     911 13812  13819M 13820  15027M 37930  37931M 37964M 38055  38056M 38173M
                                                 38651  38652M 38703M 38848M 38908M 39028  39029M 39776M 39777  39783M
 R14          14 0000000E FFFFFFFF A   #     924 13769  15029M 15031B 15222B 19700  19701  19701  19701  19838M 19914
                                                 19915  19915  19915  20006M 20898  20898  20898  25021M 25023M 25025M
                                                 25026M 25027M 25028M 27503M 27505M 27507M 27508M 27509M 27510M 28692B
                                                 37903B 37928  38025  38174M 38199B 38255B 38309B 38640  38704M 38709B
                                                 38849M 38851B 38909M 38911B 39002  39366M 39386M 39615M 39617M 39619M
                                                 39620M 39621M 39622M 39784M 39790B
 R15          15 0000000F FFFFFFFF A   #     937 13779U 13874M 13891M 13915M 13969M 13986M 14013M 14030M 14051M 14075M
                                                 14098M 14122M 14361M 14374M 14381  14802M 14802  14821M 14845M 14951M
                                                 14983M 15003M 15028M 15057M 15085M 15110M 15125  15242M 15259M 15286M
                                                 15299M 15576  15684M 15684  15867M 15891M 15891  15975M 16007M 16082M
                                                 16110M 16151M 16192M 16209M 16238M 16238  16328M 16367M 16400M 16437M
                                                 16537M 16565M 16606M 16700M 16736M 16762M 16787M 16787  16875M 16921M
                                                 16949M 16998M 16998  17062M 17079M 17125M 17153M 17261M 17285M 17338M
                                                 17338  17463M 17509M 17542M 17563M 17580M 17587  17606M 17606  17758M
                                                 17758  17832M 17900M 17924M 17956M 17961M 17966  17978M 18005M 18005
                                                 18052M 18062U 18068M 18086U 18101M 18102M 18102  18151M 18151  18235M
                                                 18235  18376M 18376  18528M 18528  18552M 18552  18663  18718M 18718
                                                 18947M 18966M 18966  19089  19152M 19176M 19176  19218  19277M 19301M
                                                 19301  19395M 19395  19457M 19457  19544  19550  19553M 19585M 19585
                                                 19647M 19647  19700  19701  19701  19701  19838M 19861M 19861  19914
                                                 19915  19915  19915  20006M 20029M 20029  20094M 20094  20158M 20158
                                                 20273M 20273  20368M 20368  20449M 20449  20542M 20542  20616M 20616
                                                 20684M 20684  20774M 20774  20867M 20867  20898  20898  20898  20990M
                                                 21007M 21031M 21077M 21101M 21101  21152M 21169M 21190M 21244M 21268M
                                                 21322M 21346M 21408M 21408  21414  21430M 21447M 21468M 21485M 21496M
                                                 21502  21517M 21534M 21545M 21551  21566M 21583M 21607M 21651M 21681M
                                                 21705M 21753M 21753  21828M 21828  21834  21854M 21874M 21891M 21912M
                                                 21936M 21941M 21963M 21963  21969  21985M 22002M 22023M 22047M 22052M
                                                 22073M 22100M 22117M 22141M 22179M 22179  22185  22201M 22218M 22239M
                                                 22263M 22268M 22289M 22306M 22335M 22359M 22387M 22407M 22424M 22445M
                                                 22469M 22477M 22477  22503M 22503  22571M 22588M 22616M 22624M 22624
                                                 22643M 22643  22771M 22771  22796M 22813M 22834M 22851M 22879M 22891M
                                                 22912M 22929M 22942M 22949  22999M 23016M 23033M 23061M 23077M 23127M
                                                 23127  23177M 23177  23269M 23286M 23314M 23326M 23347M 23360M 23383M
                                                 23383  23402M 23402  23451  23481M 23513M 23556M 23609M 23645M 23681M
1VMNT     (VMNT21) (09:48) (22MAR04) Ordinary Symbol and Literal Cross Reference                                            Page  217
                                                 23717M 23753M 23790M 23809M 23840M 23869M 23869  24288M 24319M 24423M
                                                 24423  24452M 24452  24578M 24578  24642M 24655M 24662  24698M 24715M
                                                 24734M 24781M 24805M 24823M 24851M 24917M 24934M 24955M 24972M 24996M
                                                 25016M 25021M 25066M 25083M 25107M 25169M 25193M 25234M 25258M 25310M
                                                 25334M 25351M 25378M 25395M 25422M 25446M 25511M 25528M 25549M 25566M
                                                 25590M 25652M 25676M 25713M 25737M 25833M 25833  25909M 25909  25980M
                                                 25993M 26000  26014M 26038M 26078M 26095M 26114M 26132M 26150M 26168M
                                                 26234M 26261M 26278M 26302M 26319M 26343M 26360M 26384M 26412M 26441M
                                                 26465M 26510M 26529M 26556M 26574M 26592M 26620M 26637M 26661M 26719M
                                                 26746M 26763M 26787M 26821M 26838M 26867M 26884M 26914M 26931M 26955M
                                                 27001M 27025M 27042M 27066M 27083M 27107M 27124M 27148M 27165M 27182M
                                                 27206M 27238M 27270M 27302M 27399M 27416M 27437M 27454M 27478M 27498M
                                                 27503M 27548M 27565M 27589M 27651M 27675M 27716M 27740M 27830M 27830
                                                 27989M 27989  28043M 28060M 28078M 28117M 28134M 28161M 28178M 28202M
                                                 28275M 28292M 28313M 28330M 28354M 28416M 28440M 28481M 28505M 28721M
                                                 28721  28833  28861  28869  28900  28994M 28994  29013M 29037M 29037
                                                 29097  29221M 29221  29325M 29325  29506M 29506  29556M 29556  29606M
                                                 29606  29657M 29657  29700M 29700  29792M 29819M 29836M 29860M 29877M
                                                 29901M 29918M 29935M 29959M 29976M 30000M 30017M 30041M 30061M 30078M
                                                 30111M 30157M 30190M 30218M 30252M 30252  30343M 30343  30361M 30388M
                                                 30420M 30447M 30473M 30493M 30510M 30537M 30554M 30578M 30595M 30636M
                                                 30668M 30689M 30717M 30746U 30750M 30751  30809M 30809  30882  31003M
                                                 31003  31086  31175M 31180M 31209M 31209  31381M 31381  31477M 31494M
                                                 31512M 31536M 31556M 31573M 31602M 31626M 31646M 31663M 31676M 31705M
                                                 31729M 31764M 31764  31784M 31828M 31828  31848M 31939M 31956M 31981M
                                                 31996M 32064M 32081M 32106M 32123M 32147M 32226M 32226  32274M 32298M
                                                 32335M 32335  32354M 32378M 32483M 32483  32501M 32518M 32542M 32574M
                                                 32591M 32604M 32611  32632M 32680M 32680  32700M 32834M 32834  32932M
                                                 32956M 32993M 32993  33084M 33084  33141U 33245M 33245  33384M 33401M
                                                 33430M 33447M 33460M 33487M 33487  33552M 33552  33631M 33631  33709M
                                                 33709  33787M 33787  33896M 33896  34005M 34005  34076M 34076  34147M
                                                 34147  34212M 34212  34278M 34278  34344M 34344  34410M 34410  34475M
                                                 34475  34598M 34598  34715M 34715  34815M 34815  34880M 34880  34945M
                                                 34945  35011M 35011  35076M 35076  35147M 35147  35212M 35212  35284M
                                                 35284  35356M 35356  35471M 35471  35586M 35586  35651M 35651  36004M
                                                 36017M 36057M 36057  36266M 36279M 36319M 36319  36374  36476M 36500M
                                                 36500  36554  36682M 36711M 36711  36905M 36905  36925M 36985M 37009M
                                                 37159M 37159  37312M 37312  37366M 37366  37385M 37385  37457M 37457
                                                 37476M 37476  37539M 37539  37558M 37558  37803M 37803  37845M 37845
                                                 37880U 37902M 37902  38026  38126M 38164M 38186  38270U 38308M 38308
                                                 38439M 38463M 38542M 38566M 38583M 38607M 38630M 38630  38641  38680M
                                                 38682B 38708M 38708  38847M 38847  38861M 38898M 38898  39003  39043M
                                                 39061M 39061  39080M 39111M 39135M 39159M 39177M 39209M 39236M 39260M
                                                 39266M 39294M 39321M 39345M 39354M 39354  39360  39364M 39366B 39383M
                                                 39386B 39430M 39436M 39459M 39476M 39500M 39520M 39526M 39549M 39566M
                                                 39590M 39610M 39615M 39655M 39672M 39696M 39715M 39732M 39732  39751M
                                                 39789M 39789
 R2            2 00000002 FFFFFFFF A   #     768 13924M 13934U 13948M 13948  14080M 14668M 14669M 14669  14690U 14792
                                                 15128M 15158  15160M 15161M 15162M 15184M 15207M 15273  15329M 15330M
                                                 15331M 15339U 15341M 15352U 15354M 15365U 15392M 15392  15625M 15656
                                                 16627M 16636M 16636  17184M 17384M 17385M 17397  17837M 17846M 17846
                                                 17875M 17909  18447M 18643M 18653U 18828M 18844  19091M 19094M 19096
                                                 19115M 19125U 19141M 19225M 19235U 19353M 19356M 19358  19517M 19518M
                                                 19518  19539U 19724M 19735  19916M 19926  20230M 20234M 20236  20325M
                                                 20328M 20330  20422M 20583M 20588  20719M 20737M 21414M 21456  22724M
                                                 22740  22742  22761  23097M 23196M 23212  23214  23224  23367M 23453M
                                                 23454M 23454  23464U 24250M 24260U 24296M 24748U 24752M 24763M 24763
                                                 24857M 25280M 25291M 25291  25451M 26173M 26184M 26184  26199U 27311M
                                                 28083M 28094M 28094  28109U 28207M 28792M 28803M 28803  28818U 29002M
1VMNT     (VMNT21) (09:48) (22MAR04) Ordinary Symbol and Literal Cross Reference                                            Page  218
                                                 29097M 29108U 29282M 29292U 29750M 29761M 29761  29776U 30223M 30299M
                                                 30311M 30311  30326U 30780M 31109M 31115M 31117  31134M 31153M 31174M
                                                 31180  31403M 31413U 31867M 31868M 31868  31878U 32031M 32032M 32034M
                                                 32043M 32043  32093  32157  32400M 32410U 32468M 32473  32613M 32614M
                                                 32624U 32880M 32890U 32901  33189M 34554M 34557M 34559  34677M 34680M
                                                 34682  34776M 34780M 34782  35433M 35436M 35438  35548M 35551M 35553
                                                 35771M 35781U 35787M 35805U 36386M 36396U 36450  36451  36468  36469
                                                 36566M 36576U 36656  36657  36674  36675  36891M 36892  36945U 36950M
                                                 37045U 37062M 37436M 37443  37517M 37525  37682M 38083  38119M 38120
                                                 38121M 38122M 38123  38142  38468M 38469  38653M 38662U 38720M 39407M
                                                 39407
 R3            3 00000003 FFFFFFFF A   #     781 14746M 14756U 15018M 15028  15129M 15278  15370M 15370  15391M 15392
                                                 18051M 19251M 19252M 19725M 19830M 20490M 20504M 20506  20521  20720M
                                                 20731M 20731  20737  20738M 21834M 21900  21947M 21969M 22011  22185M
                                                 22227  22745M 22751  22782M 22822  23217M 23223  26476M 26486U 29098M
                                                 29162  30300M 31110M 31111  31132  31146M 31147M 31148  31165M 31166M
                                                 31167  32033M 32098  32162  32428M 32438U 32469M 32472  36437M 36438M
                                                 36438  36467  36468  36643M 36644M 36644  36673  36674  37058U 37063M
                                                 37683M 37693U 38120M 38124M 38125  38720M 38752  38777
 R4            4 00000004 FFFFFFFF A   #     794 14695M 14706U 14864  15019M 15027  15130M 15310  19220M 19259  19783M
                                                 19813M 19815  20491M 20829U 21036M 21044U 21056M 21056  21656M 26792M
                                                 26802U 30757M 30759  30779  31108M 36415M 36418M 36420  36599M 36602M
                                                 36604  38721M 38731U 38862M 38871M 38871  38886U 38892M
 R5            5 00000005 FFFFFFFF A   #     807 15572U 15576M 21808U 26667M 26694M 30883M 30949  31132M 38664M 38673U
 R6            6 00000006 FFFFFFFF A   #     820 23451M 23481  23513  23542U 23556  23609  23645  23681  23717  23753
                                                 23790  23809  23840  30882M 30893U 31086M 31096U 31175
 R8            8 00000008 FFFFFFFF A   #     846 15825U 18443U 18632U 24557U 25888U 27968U 31082U
 S#8_FLtest
             128 00000018 FFFFFFB2        13041 14768M
 S#8DESC      16 00000008 FFFFFFB2     C   13034 14762M
 S#8FLG1       1 00000018 FFFFFFB2     R   13037 13041
 S#8FSNAM      8 0000001C FFFFFFB2     C   13053 32630M
 S#8LEN        4 00000000 FFFFFFB2     A   13032 14760M
 S#8LENF       1 0000004C FFFFFFB2 A   U   13059 13032
 S#8MNTEL      4 00000034 FFFFFFB2     A   13056 14775M
 S#8MNTEN      4 0000002C FFFFFFB2     R   13055 14769M
 S#8MNTST      4 00000024 FFFFFFB2     R   13054 14770  32637M
 S#8TYP        4 00000004 FFFFFFB2     A   13033 14761M
 SALCLOCK      1 00000000 00000000 A   T    2424  2424
 SBCVUCB       2 00001BB0 00000001     H   19464 33280
 SCAN          1 00000000 0000000A     T   19018 19018  20892  35678
 SCINIT        1 00000000 00000009     T   19016 19016  20891  35677
 SCNCB         4 00000A14 00000001     F   13349 13360  18328  32169  32766
 SCNDCB        4 00000A34 00000001     F   13362 13373  19742  19764  19933  19950
 SCNKW         8 00000A18 00000001     C   13351 33415
 SCVT          1 00000000 FFFFFFC9     J   11782 23464U 35805U
 SDD           2 0000586C 00000001     R   31239 31237  31353M 31751M 31815M
 SDWA          1 00000000 FFFFFFE3     J    4789  5785   6528  37972M
 SDWACLEN      8 000001C8 FFFFFFDB A   U    5788  5795   5796
 SDWADEND      8 000000F0 FFFFFFDB     D    5782  5792
 SDWADLEN      8 000000F0 FFFFFFDB A   U    5792  5793
 SDWAEEND      8 00000150 FFFFFFDF     D    5733  5794
 SDWAELEN      8 00000150 FFFFFFDB A   U    5794  5795   5796   5803
 SDWAEND       8 00000298 FFFFFFE3     D    5428  5785
 SDWAIEND      8 00000010 FFFFFFE1     D    5655  5789
 SDWAILEN      8 00000010 FFFFFFDB A   U    5789  5795   5796
 SDWALEN       8 00000298 FFFFFFDB A   U    5785  5796
 SDWALEND      8 00000020 FFFFFFE0     D    5703  5790
 SDWALLEN      8 00000020 FFFFFFDB A   U    5790  5795   5796
1VMNT     (VMNT21) (09:48) (22MAR04) Ordinary Symbol and Literal Cross Reference                                            Page  219
 SDWAMLEN      8 00000600 FFFFFFDB A   U    5797  5800   5806
 SDWAMLNP      8 000005E0 FFFFFFDB A   U    5796  5797
 SDWANLNS      8 000001F0 FFFFFFDB A   U    5793  5800   5808
 SDWANOPR      1 00000000 FFFFFFDB A   U    5811 37967B
 SDWANRC1      1 00000000 FFFFFFDD     J    5757  5787
 SDWANRC2      1 00000000 FFFFFFDC     J    5766  5791
 SDWANRC3      1 00000000 FFFFFFDB     J    5779  5792
 SDWAPEND      8 00000020 FFFFFFDE     D    5751  5786
 SDWAPLEN      8 00000020 FFFFFFDB A   U    5786  5797
 SDWAPTRS      1 00000000 FFFFFFDE     J    5742  5786
 SDWARCDE      1 000000FC FFFFFFE3     B    5222 37972M
 SDWARC1       1 00000000 FFFFFFE2     J    5430  5788
 SDWARC2       1 00000000 FFFFFFE1     J    5649  5789
 SDWARC3       1 00000000 FFFFFFE0     J    5661  5790
 SDWARC4       1 00000000 FFFFFFDF     J    5711  5794
 SDWAREND      8 000000F0 FFFFFFDD     D    5759  5787
 SDWARLEN      8 000000F0 FFFFFFDB A   U    5787  5793
 SDWASEN       8 00000010 FFFFFFDC     D    5772  5791
 SDWASEND      8 000001C8 FFFFFFE2     D    5643  5788
 SDWASLEN      8 00000710 FFFFFFDB A   U    5806  5808
 SDWASPL       8 00000010 FFFFFFDB A   U    5791  5793
 SDWATLEN      8 000007F0 FFFFFFDB A   U    5800  5803
 SDWATRAN      4 00000074 FFFFFFE3     A    4951  4953
 SDYNBLK       1 00000B58 00000001     X   13564 14655  21396  29494  29544  29594  29645  31369  31752  31816  36893
 SDYNPRM       1 00000B5C 00000001     R   13565 13564  14651M 14654M 21393M 21395M 21496  21545  29493M 29643M
 SDYNTPTR      4 00000B64 00000001     A   13570 31368M 36892M
 SEG           1 00000000 00000003     T   15704 15704  18993  23907  27847  29345  30815  35664  36731  37564  39839
 SEGB          1 00000000 00000007     T   18996 18996  23919  27855
 SEGBLANK      1 00000000 00000004     T   15706 15706  23908  27860  30819  35666  39851
 SEGCB        60 00000000 FFFFFFC6     J   12410 15572U 23542U 29108U 30893U 31096U 33141U
 SEGCBCOD      1 00000000 FFFFFFC6     R   12321 12330  12340  12350  12360  12370  12380  12390
 SEGCBCR       6 00000000 FFFFFFC6        12380 15600  29135  30920  33171
 SEGCBLENF
               4 0000000C FFFFFFC6     A   12396 23762  23764M 31109
 SEGCBLOC      4 00000020 FFFFFFC6     A   12400 31108
 SEGCBOVF      5 00000000 FFFFFFC6        12370 15612  29147  30932  33183
 SEGCBSPP      4 00000000 FFFFFFC6        12360 29179  30966  33208
 SEGCBWR       2 00000000 FFFFFFC6        12340 15588  29123  30908  33159
 SEGCLR        1 00000000 00000006     T   18991 18991  31216
 SEGDC         1 00000000 00000005     T   15707 15707  19012  23911  27859  29349
 SEGHX         1 00000000 00000008     T   19011 19011  23917  27854  30816  39842
 SEGINIT       1 00000000 0000000D     T   27850 27850  29340  35661
 SEGINITR      1 00000000 0000000E     T   27852 27852  29342  35663
 SEGWR         1 00000000 00000002     T   15703 15703  18997  23906  27853  29343  30818  35665  37563  39840
 SENDWTO       2 00004A14 00000001     H   31041 15717  19002  23923  27848  35683  36732
 SEND34        2 00001E3A 00000001     H   20549 19005
 SETBCV        2 00005480 00000001     H   35083 31249
 SETBCVD       2 00005184 00000001     H   33638 31277
 SETBCVI       2 000051AE 00000001     H   33716 31279
 SETDINC       2 00005244 00000001     H   34012 31285
 SETDISAB      2 000052F6 00000001     H   34351 31296
 SETDUMP       2 0000513C 00000001     H   33494 31269
 SETEMCL       2 0000545E 00000001     H   35018 31257
 SETENAB       2 000052D4 00000001     H   34285 31294
 SETESTAB      2 0000520E 00000001     H   33903 31275
 SETFS         2 000053C2 00000001     H   34722 31245
 SETLVEST      2 000054EE 00000001     H   35291 31253
 SETLVSP       2 000054C8 00000001     H   35219 31251
 SETLVWT       2 000054A6 00000001     H   35154 31255
1VMNT     (VMNT21) (09:48) (22MAR04) Ordinary Symbol and Literal Cross Reference                                            Page  220
 SETNIXR       2 00005318 00000001     H   34417 31288
 SETNO         2 00001D2A 00000001     H   20100 33303  33305  33307  33309  33311  33313
 SETNOENQ      2 000053F8 00000001     H   34822 31247
 SETNOFF       2 00005290 00000001     H   34154 31290
 SETORV        2 00005380 00000001     H   34605 31264
 SETSMFL       2 0000541A 00000001     H   34887 31259
 SETSPLIT      2 000051D8 00000001     H   33794 31273
 SETTES        2 0000533A 00000001     H   34482 31266
 SETTINC       2 0000526A 00000001     H   34083 31283
 SETVRFY       2 0000515E 00000001     H   33559 31271  31281
 SETYES        2 00001D08 00000001     H   20036 33295  33297  33299  33301
 SET34TXT      2 00001DE6 00000001     H   20456 20895
 SFILECAP      2 00001B8C 00000001     H   19401 33276
 SFLVOL        2 00001D84 00000001     H   20280 33272
 SHISTFL       2 00001B62 00000001     H   19308 33274
 SMCABASE      1 00000000 FFFFFFE5     J    3759  4109  31878U
 SMCAEND       1 000001E0 FFFFFFE5     U    4108  4109
 SMCASID       4 00000010 FFFFFFE5     C    3822 31883
 SMFBUFA       4 00000774 00000001     A   13089 14668  32399M 32613
 SMFDATA      24 00000000 FFFFFFB3     J   13015 13008  14690U 14858  32314  32410U 32420M 32420  32421  32614
 SMFELAP       2 000015EA 00000001     H   18402 15727
 SNAME         2 00001D4C 00000001     H   20165 33266
 SOUT          2 00000CC4 00000001     R   13613 31238
 SPR          13 0000000D FFFFFFFF A   #    1102 15535  15538  15539  15540M 15540  15676M 15680  15682  15791  15794
                                                 15796  15797M 15797  15883M 15887  15889  15909  15912  15913  15914M
                                                 15914  16230M 16234  16236  16256  16259  16260  16261M 16261  16779M
                                                 16783  16785  16805  16808  16809  16810M 16810  16990M 16994  16996
                                                 17016  17019  17020  17021M 17021  17330M 17334  17336  17356  17359
                                                 17360  17361M 17361  17598M 17602  17604  17624  17627  17628  17629M
                                                 17629  17750M 17754  17756  17776  17779  17780  17781M 17781  17997M
                                                 18001  18003  18023  18026  18027  18028M 18028  18143M 18147  18149
                                                 18168  18171  18172  18173M 18173  18227M 18231  18233  18254  18257
                                                 18258  18259M 18259  18368M 18372  18374  18409  18412  18414  18415M
                                                 18415  18544M 18548  18550  18598  18601  18603  18604M 18604  18710M
                                                 18714  18716  18782  18785  18786  18787M 18787  18958M 18962  18964
                                                 19060  19063  19064  19065M 19065  19168M 19172  19174  19189  19192
                                                 19193  19194M 19194  19293M 19297  19299  19314  19317  19318  19319M
                                                 19319  19387M 19391  19393  19407  19410  19411  19412M 19412  19449M
                                                 19453  19455  19470  19473  19474  19475M 19475  19577M 19581  19583
                                                 19597  19600  19601  19602M 19602  19639M 19643  19645  19660  19663
                                                 19664  19665M 19665  19853M 19857  19859  19874  19877  19878  19879M
                                                 19879  20021M 20025  20027  20042  20045  20046  20047M 20047  20086M
                                                 20090  20092  20106  20109  20110  20111M 20111  20150M 20154  20156
                                                 20171  20174  20175  20176M 20176  20265M 20269  20271  20286  20289
                                                 20290  20291M 20291  20360M 20364  20366  20381  20384  20385  20386M
                                                 20386  20441M 20445  20447  20462  20465  20466  20467M 20467  20534M
                                                 20538  20540  20555  20558  20559  20560M 20560  20608M 20612  20614
                                                 20634  20637  20638  20639M 20639  20766M 20770  20772  20792  20795
                                                 20796  20797M 20797  20859M 20863  20865  20929  20932  20933  20934M
                                                 20934  21745M 21749  21751  21771  21774  21775  21776M 21776  22495M
                                                 22499  22501  22521  22524  22525  22526M 22526  22635M 22639  22641
                                                 22696  22699  22700  22701M 22701  23119M 23123  23125  23146  23149
                                                 23150  23151M 23151  23394M 23398  23400  23423  23426  23427  23428M
                                                 23428  23861M 23865  23867  24208  24211  24212  24213M 24213  24444M
                                                 24448  24450  24523  24526  24528  24529M 24529  25825M 25829  25831
                                                 25854  25857  25859  25860M 25860  27822M 27826  27828  27934  27937
                                                 27939  27940M 27940  28713M 28717  28719  28743  28746  28747  28748M
                                                 28748  29029M 29033  29035  29055  29058  29059  29060M 29060  29213M
                                                 29217  29219  29240  29243  29244  29245M 29245  29317M 29321  29323
1VMNT     (VMNT21) (09:48) (22MAR04) Ordinary Symbol and Literal Cross Reference                                            Page  221
                                                 29432  29435  29436  29437M 29437  29692M 29696  29698  29721  29724
                                                 29725  29726M 29726  30244M 30248  30250  30271  30274  30275  30276M
                                                 30276  30801M 30805  30807  30854  30857  30858  30859M 30859  30995M
                                                 30999  31001  31048  31051  31053  31054M 31054  31201M 31205  31207
                                                 31323  31326  31327  31328M 31328  32826M 32830  32832  32852  32855
                                                 32856  32857M 32857  32985M 32989  32991  33006  33009  33010  33011M
                                                 33011  33076M 33080  33082  33104  33107  33108  33109M 33109  33237M
                                                 33241  33243  33344  33347  33348  33349M 33349  33479M 33483  33485
                                                 33500  33503  33504  33505M 33505  33544M 33548  33550  33565  33568
                                                 33569  33570M 33570  33623M 33627  33629  33644  33647  33648  33649M
                                                 33649  33701M 33705  33707  33722  33725  33726  33727M 33727  33779M
                                                 33783  33785  33800  33803  33804  33805M 33805  33888M 33892  33894
                                                 33909  33912  33913  33914M 33914  33997M 34001  34003  34018  34021
                                                 34022  34023M 34023  34068M 34072  34074  34089  34092  34093  34094M
                                                 34094  34139M 34143  34145  34160  34163  34164  34165M 34165  34204M
                                                 34208  34210  34225  34228  34229  34230M 34230  34270M 34274  34276
                                                 34291  34294  34295  34296M 34296  34336M 34340  34342  34357  34360
                                                 34361  34362M 34362  34402M 34406  34408  34423  34426  34427  34428M
                                                 34428  34467M 34471  34473  34488  34491  34492  34493M 34493  34590M
                                                 34594  34596  34611  34614  34615  34616M 34616  34707M 34711  34713
                                                 34728  34731  34732  34733M 34733  34807M 34811  34813  34828  34831
                                                 34832  34833M 34833  34872M 34876  34878  34893  34896  34897  34898M
                                                 34898  34937M 34941  34943  34958  34961  34962  34963M 34963  35003M
                                                 35007  35009  35024  35027  35028  35029M 35029  35068M 35072  35074
                                                 35089  35092  35093  35094M 35094  35139M 35143  35145  35160  35163
                                                 35164  35165M 35165  35204M 35208  35210  35225  35228  35229  35230M
                                                 35230  35276M 35280  35282  35297  35300  35301  35302M 35302  35348M
                                                 35352  35354  35369  35372  35373  35374M 35374  35463M 35467  35469
                                                 35484  35487  35488  35489M 35489  35578M 35582  35584  35599  35602
                                                 35603  35604M 35604  35643M 35647  35649  35743  35746  35747  35748M
                                                 35748  36049M 36053  36055  36075  36078  36079  36080M 36080  36311M
                                                 36315  36317  36345  36348  36349  36350M 36350  36492M 36496  36498
                                                 36525  36528  36529  36530M 36530  36703M 36707  36709  36862  36865
                                                 36866  36867M 36867  37151M 37155  37157  37177  37180  37181  37182M
                                                 37182  37304M 37308  37310  37332  37335  37336  37337M 37337  37377M
                                                 37381  37383  37408  37411  37412  37413M 37413  37468M 37472  37474
                                                 37489  37492  37493  37494M 37494  37550M 37554  37556  37654  37657
                                                 37658  37659M 37659  37837M 37841  37843  38399  38402  38403  38404M
                                                 38404  38622M 38626  38628
 SRTEASCI      1 00000004 FFFFFFD5 A   U    9522  9523
 SRTEBSTR      1 00000004 FFFFFFD5 A   U    9521  9524
 STABND        4 00000004 FFFFFFBB     A   12720 38101
 STACK         4 00000768 00000001     A   13086 13820M 15021
 STAIRET       2 00006446 00000001     H   38262 38193  38270U
 STAIXIT       2 000063BE 00000001     H   38024 18757  19022  38034U
 STATCODE      1 00000030 00000001 A   U   38984 39365
 STCKCNV       2 00001708 00000001     H   18591 35684
 STCKCNVW     48 00000000 FFFFFFB0     J   18583 18604  18632U 18642M 18642  18679  18714  18716  18717
 STCKLEN       1 00020000 00000001 A   U    1154 15700
 STCKTIME     32 00000000 FFFFFFB0     X   18575 18643
 STEXPRM       4 00000000 FFFFFFBB     A   12719 38100
 STIM_DAT      4 00000008 FFFFFFB8     P   12841 14741M 14741  14742M 14743M 14744M 14745  18456M 18487M 18683M 18683
                                                 18684M 18685M 18686M 18687
 STIM_TD1      4 00000010 FFFFFFB8     A   12843 18482  18517  18520
 STIM_TD2      4 00000018 FFFFFFB8     A   12844 18512  18515
 STIM_TIM      4 00000000 FFFFFFB8     A   12840 14737  14740  18455M 18486M 18682
 STIM_WRK     32 00000000 FFFFFFB8     J   12851 14696  14706U 14716M 14716  18415  18443U 18454M 18454  18466  18496
                                                 18548  18550  18551  18575  18653U
 STNAM         8 00000058 FFFFFFBB     C   12724 12726
1VMNT     (VMNT21) (09:48) (22MAR04) Ordinary Symbol and Literal Cross Reference                                            Page  222
 STNOCORE      1 0000000C FFFFFFBB A   U   12708 38319
 STPSTEM       2 00005514 00000001     H   35363 33282
 STPUNIT       2 0000554C 00000001     H   35478 33284
 STRABND       1 00000000 FFFFFFBB A   U   12713 38126
 STRRET4       1 00000004 FFFFFFBB A   U   12714 38164  38323
 STSTACK       2 00005584 00000001     H   35593 33290
 STUDD         2 00000CAF 00000001     R   13611 13574  14652M
 STUDEL        2 00000CBD 00000001     R   13612 13575
 STUNA         4 00000B70 00000001     A   13574 14653
 STWRK       104 00000000 FFFFFFBB     J   12736 38064U
 STXTS         4 00005864 00000001     A   31237 13570  31367
 STYP#008     76 00000000 FFFFFFB2     J   13066 13059  14756U 14858  15725  32314  32421  32438U 32448M 32448  32624U
 SVOLCAP       2 00001BFA 00000001     H   19591 33278
 SVSMSG        2 00001DB2 00000001     H   20375 33270
 SWARN         2 00001CA6 00000001     H   19868 33268
 SWTO_ID       4 00000000 FFFFFFAE     C   31023 31107M
 SWTO_LEN      2 00000004 FFFFFFAE     R   31024 31111M 31132  31172
 SWTO_MCS      2 00000006 FFFFFFAE     R   31025 31112M
 SWTO_TXT     98 00000008 FFFFFFAE     C   31026 31124M
 SWTO_WRK    106 00000000 FFFFFFAE     J   31033 31054  31082U 31106M 31106  31205  31207  31208
 SYNCBLK       2 00001E6C 00000001     H   20628 20883
 SYNCDSN      44 00000994 00000001     C   13338 13718  13727  13735  20833M 20834  21082M 21083  21120  21392  22078
                                                 30330M
 SYNCECB       4 00006E84 00000001     A   38342 38476M 38476  38497  38523  38551
 SYNCEOD       2 000015D6 00000001     H   18353 18282
 SYNCGDG       2 00001586 00000001     H   18248 15702
 SYNCIDC       2 000066E8 00000001     H   38393 15705
 SYNCKILL      2 0000225A 00000001     H   21765 23915
 SYNCKXIT      2 00002450 00000001     H   22479 21942B 22053B 22269B
 SYNCLINK      2 00001C1E 00000001     H   19654 33264
 SYNCLST       2 00001FC8 00000001     H   20923 15722  38318
 SYNCNEXT      4 00006D80 00000001     A   38340 38469M 38721  38827M 38862  38892
 SYNCSEG       2 00001ADE 00000001     H   19183 33318
 SYNCSET       2 00001EDE 00000001     H   20786 23916
 SYNCSTCK      4 00006D84 00000001     A   38341 38652
 SYNCTAPE      2 00001A58 00000001     H   19054 33316
 SYNCTCB       4 00006E88 00000001     A   38343 38517M 38528
 SYNCVS        4 00006D7C 00000001     A   38339 38651M 38703  38848  38908
 SYNDEV        4 00000E32 00000001     X   13740 21948M 22157
 SYNLOC        4 00000E04 00000001     F   13713 21091  21818  21947  30300  30333  31900M
 SYNSCR        4 00000E20 00000001     F   13730 22169
 SYNSER        6 00000E36 00000001     C   13741 21949M 22320
 SYNUNC        4 00000E14 00000001     F   13722 21953
 SYNVOL        2 00000E30 00000001     H   13739 13737
 S99NOMNT      1 00000020 FFFFFFED A   U    1410 13567
 S99RB         1 00000000 FFFFFFED     J    1390 37693U
 S99RSC        4 00000004 FFFFFFED     C    1435 37790M 37790
 S99VRBAL      1 00000001 FFFFFFED A   U    1394 13566  37586
 S99VRBUN      1 00000002 FFFFFFED A   U    1395 14651  21393
 TapeFseq      4 00000930 00000001     A   13334 37712  37713M 37714  37727  37745
 TapePrfx     44 00000934 00000001     C   13335 35445M 37699
 TapeRefD     44 00000960 00000001     C   13336 37753  37769M 37770
 TapeUnit      8 0000098C 00000001     C   13337 35560M 37697
 TCB           1 00000020 FFFFFFD7     U    6981  7680  15339U
 TCBAE         4 000000BC FFFFFFD7     A    7225  7228
 TCBDARPN      1 00000040 FFFFFFD7 A   U    7271  7273
 TCBDARTN      1 00000080 FFFFFFD7 A   U    7268  7270
 TCBFIX        1 00000000 FFFFFFD7     J    6969  6976
 TCBMNLEN      1 00000158 FFFFFFD7 A   U    7680  7725
1VMNT     (VMNT21) (09:48) (22MAR04) Ordinary Symbol and Literal Cross Reference                                            Page  223
 TCBPXLEN      1 00000020 FFFFFFD7 A   U    6976  7725
 TCBRD         4 000000B8 FFFFFFD7     A    7220  7224
 TCBSRCH       2 00001510 00000001     H   18017 23926
 TCBTIO        4 0000002C FFFFFFD7     A    6989 15341
 TCBXTNT2      1 00000000 FFFFFFD6     J    7685  7723
 TCBX2LEN      1 00000020 FFFFFFD6 A   U    7723  7725
 TCDSP         2 0000653A 00000001     R   37616 37599
 Tclr          1 000064D8 00000001     X   37607 37751M
 TCNT          2 00006541 00000001     R   37617 37600
 TDDN          2 000064E0 00000001     R   37610 37594  37698M
 TDSN          2 000064EE 00000001     R   37611 37595  37699M 37700  37769
 TDYNBLK       1 0000648C 00000001     X   37584 37791
 TDYNPRM       1 00006490 00000001     R   37585 37584  37683
 TFREE         2 00006565 00000001     R   37621 37606
 TIOEDDNM      8 0000001C FFFFFFCA     C   11720 15389
 TIOELNGH      1 00000018 FFFFFFCA     G   11677 15354  15365U 15383  15391
 TIOT          1 00000000 FFFFFFCA     J   11548 15352U
 Tlast         1 000064DC 00000001     X   37608 37752M
 TLBL          2 00006556 00000001     R   37619 37602
 TMEM          2 00006520 00000001     R   37612 37597
 TNDSP         2 0000652F 00000001     R   37614 37598
 TPRIV         2 00006536 00000001     R   37615 37604
 TPROT         2 000065A3 00000001     R   37624 37607
 TPTRS         4 000064A4 00000001     A   37594 37590
 TRCELOCK      1 00000000 00000000 A   T    2448  2448
 TRETP         2 00006569 00000001     R   37622 37605
 TSEQ          2 0000655D 00000001     R   37620 37603  37714M
 TSTAT         2 00006528 00000001     R   37613 37596
 TUNIT         2 00006548 00000001     R   37618 37601  37697M
 TVREF         2 00006571 00000001     R   37623 37608  37753M
 T179SMF       1 000000B3 00000001 A   U    1156 13001  32423
 T179SUBT      1 00000008 00000001 A   U    1157 15726
 T179VER#      4 00000061 00000001 A   A    1155 13005  35679
 UCBALOC       1 00000008 FFFFFFD5 A   U    9064  9251
 UCBASID       2 0000000E FFFFFFD4     H    9361 26898
 UCBBALB       1 00000020 FFFFFFD5 A   U    9437  9518
 UCBBNUL       1 00000001 FFFFFFD5 A   U    9446  9525
 UCBBPRV       1 00000010 FFFFFFD5 A   U    9439  9519
 UCBBPUB       1 00000008 FFFFFFD5 A   U    9440  9520
 UCBBSTR       1 00000004 FFFFFFD5 A   U    9441  9521   9522
 UCBBSVL       1 00000080 FFFFFFD5 A   U    9423  9517
 UCBCHAN       2 00000064 FFFFFFD5     G    9085 30752  36639
 UCBCHGS       1 00000040 FFFFFFD5 A   U    9054  9248
 UCBCMEXT      1 00000000 FFFFFFD4     J    9281 26802U
 UCBDADI       1 00000001 FFFFFFD5 A   U    9078  9254
 UCBDEV        1 00000078 FFFFFFD5     U    9262  9418   9644   9804   9820  10028  10050  10142  10172
 UCBDMCT       1 00000083 FFFFFFD5     X    9455  9526
 UCBFLA        1 00000066 FFFFFFD5     B    9090  9091
 UCBFL1        1 00000066 FFFFFFD5     U    9091  9255
 UCBFSCT       2 00000078 FFFFFFD5     H    9645  9649
 UCBFSEQ       2 0000007A FFFFFFD5     H    9646  9650
 UCBJBNR       1 00000060 FFFFFFD5     B    8985  9244
 UCBMONT       1 00000001 FFFFFFD5 A   U    9006  9245
 UCBNRY        1 00000040 FFFFFFD5 A   U    9095  9096
 UCBOB         4 00000060 FFFFFFD5     F    8979 26486U 30746U 36635U
 UCBONLI       1 00000080 FFFFFFD5 A   U    9053  9247  26499  26678
 UCBPRES       1 00000004 FFFFFFD5 A   U    9074  9252
 UCBRESV       1 00000020 FFFFFFD5 A   U    9059  9249
 UCBSTAB       1 00000082 FFFFFFD5     B    9422  9516
1VMNT     (VMNT21) (09:48) (22MAR04) Ordinary Symbol and Literal Cross Reference                                            Page  224
 UCBSTAT       1 00000063 FFFFFFD5     B    9052  9246  26501  26680  26851
 UCBSYSR       1 00000002 FFFFFFD5 A   U    9076  9253
 UCBTR         1 00000094 FFFFFFD5     G    9718  9720
 UCBUNLD       1 00000010 FFFFFFD5 A   U    9061  9250
 UCBUSER       2 00000086 FFFFFFD5     G    9496  9497
 UCBVOLI       6 0000007C FFFFFFD5     C    9421  9515
 USEBLOCK      1 0000000F FFFFFFC9     X   11814 35815
 USEHSPFL      1 00000004 FFFFFFC9     X   11786 23576  23592  23628  23664  23700  23736
 USEIDENT      4 00000000 FFFFFFC9     C   11785 23497
 VAM           8 00006F4C 00000001     C   38982 39050  39722
 VAMADDR       4 00006F38 00000001     A   38979 39098M 39120  39364  39383  39775M 39775
 VAMATT        4 00002C34 00000001     A   23886 19013
 VAMEND        8 00006F30 00000001     D   38978 39417M 39435  39615
 VAMREGS       4 00006F14 00000001     F   38970 38971  39363  39385
 VAMR0         4 00006F1C 00000001     F   38974 39362M
 VAMR1         4 00006F20 00000001     F   38975 39359M
 VAMR15        4 00006F18 00000001     F   38973 39360M 39377M 39377  39397M 39397
 VAMSTRT       8 00006F28 00000001     D   38977 39164M 39525  39617  39620
 VAMTIME      11 00006F54 00000001     C   38983 39436  39526  39623  39624  39640  39647
 VERATT        4 00002BBC 00000001     A   23884 19003
 VFIXLOCK      1 00000000 00000000 A   T    2434  2434
 VMNT          1 00000000 00000001     J    1135  1132   1133   1137  12414  12439  13080  13747  13757  13800U 15522
                                                 15699  31582  31583  38044U 38316  38387U 39021U 39843
 VMNTPRT       4 00000DA4 00000001     F   13672 30942  31401  31403
 VMNTSEG       2 000049AC 00000001     H   30848 35662
 VMNT21        1 00000000 00000001     R   13764 13762
 VPAGLOCK      1 00000000 00000000 A   T    2439  2439
 VRADAT        1 00000002 FFFFFFDA     G    5941  5945
 VRAKL         2 00000000 FFFFFFDA     G    5933  5945
 VSIO_GO       1 00000000 00000013     T   30822 30822
 VSIO_RDC      4 00000004 FFFFFFB7 A   A   12873 30754
 VSIOBUFL      4 00000014 FFFFFFB7     A   12877 30760M
 VSIOBUFR      4 00000018 FFFFFFB7     A   12878 30759M
 VSIODEVA      4 0000000C FFFFFFB7     A   12875 30753M
 VSIOFUNC      4 00000008 FFFFFFB7     A   12871 30755M
 VSIOPRM      40 00000000 FFFFFFB7     J   12888 13342  30732U
 VSIOPRML      4 000009EC 00000001     A   13342 13343  30722
 VSIOUCBA      4 00000010 FFFFFFB7     A   12876 30751M
 VSMSGA        4 00000868 00000001     A   13115 16644  20422
 VSSAVE        4 0000076C 00000001     A   13087 13812M 15019
 WAITCODE      1 00000034 00000001 A   U   38985 39384
 WAR           8 00000008 FFFFFFFF A   #    1064 15539M 15676  15796M 15883  15913M 16230  16260M 16779  16809M 16990
                                                 17020M 17330  17360M 17598  17628M 17750  17780M 17997  18027M 18143
                                                 18172M 18227  18258M 18368  18414M 18524  18544  18603M 18689  18710
                                                 18786M 18958  19064M 19168  19193M 19293  19318M 19387  19411M 19449
                                                 19474M 19577  19601M 19639  19664M 19853  19878M 20021  20046M 20086
                                                 20110M 20150  20175M 20265  20290M 20360  20385M 20441  20466M 20534
                                                 20559M 20608  20638M 20755  20766  20796M 20859  20933M 21745  21775M
                                                 22495  22525M 22635  22700M 23119  23150M 23394  23427M 23861  24212M
                                                 24444  24528M 25825  25859M 27822  27939M 28713  28747M 29029  29059M
                                                 29213  29244M 29317  29436M 29692  29725M 30244  30275M 30801  30858M
                                                 30995  31053M 31201  31327M 32826  32856M 32985  33010M 33076  33108M
                                                 33237  33348M 33479  33504M 33544  33569M 33623  33648M 33701  33726M
                                                 33779  33804M 33888  33913M 33997  34022M 34068  34093M 34139  34164M
                                                 34204  34229M 34270  34295M 34336  34361M 34402  34427M 34467  34492M
                                                 34590  34615M 34707  34732M 34807  34832M 34872  34897M 34937  34962M
                                                 35003  35028M 35068  35093M 35139  35164M 35204  35229M 35276  35301M
                                                 35348  35373M 35463  35488M 35578  35603M 35643  35747M 36049  36079M
                                                 36311  36349M 36492  36529M 36703  36866M 37151  37181M 37304  37336M
1VMNT     (VMNT21) (09:48) (22MAR04) Ordinary Symbol and Literal Cross Reference                                            Page  225
                                                 37362  37377  37412M 37468  37493M 37550  37658M 37837  38403M 38622
 WELCOME       2 00004AB8 00000001     H   31317 15701
 WTOECB        4 00005E40 00000001     A   35722 35924M 35924  35932  35946  36187M 36187  36194  36208
 XITSTCK       8 00000778 00000001     D   13090 38055M 38056  38173
 XSMF#END      1 00000018 FFFFFFB3     U   13007 14746  32428
 XSMF#SC       2 00000016 FFFFFFB3     R   13006 32427M
 XSMFDTE       4 0000000A FFFFFFB3     R   13003 14745M
 XSMFLEN       2 00000000 FFFFFFB3     R   12998 32422M
 XSMFRTY       1 00000005 FFFFFFB3     R   13001 32423M
 XSMFSID       4 0000000E FFFFFFB3     C   13004 32424M
 XSMFTME       4 00000006 FFFFFFB3     R   13002 14740M 14769
 XSMFVER       4 00000012 FFFFFFB3     R   13005 32425M
 XTB           1 00000000 0000000C     T   20888 20888  29352
 YESOK         1 00005A01 00000001     R   33295 20893
 =A(ADDBCV)
               4 00001F70 00000001     A   20889 19627
 =A(ADDFILE)
               4 00001F64 00000001     A   20886 19437
 =A(ATTASK)
               4 000018D8 00000001     A   18987 15831  18201
 =A(ATTASK)
               4 0000391C 00000001     A   27858 24903  25497  27384
 =A(ATTASK)
               4 00004398 00000001     A   29348 28261
 =A(BCV_est)
               4 00000618 00000001     A   15711 14193  14568
 =A(BCV_File)
               4 00000628 00000001     A   15715 14262
 =A(BCV_MAT)
               4 000043A4 00000001     A   29351 28621
 =A(BCV_Pair)
               4 00000614 00000001     A   15710 14189
 =A(BCV_PLOG)
               4 00003934 00000001     A   27864 25143  25626  27625
 =A(BCV_PLOG)
               4 000043A0 00000001     A   29350 28390
 =A(BCV_splt)
               4 00000620 00000001     A   15713 14254
 =A(BCV_stat)
               4 00000610 00000001     A   15709 14185  14557
 =A(BCV_wrkf)
               4 0000060C 00000001     A   15708 14181
 =A(BLDATT)
               4 000018E4 00000001     A   18990 15956
 =A(CHKIJOB)
               4 00005698 00000001     A   35689 32814
 =A(CHKSHFT)
               4 00005694 00000001     A   35688 32807
 =A(CLSCONT)
               4 00001958 00000001     A   19019 18356
 =A(CLSCONT)
               4 00005690 00000001     A   35687 32799
 =A(CNTIKWR)
               4 0000568C 00000001     A   35686 32776
 =A(CNTKWRT)
               4 00001950 00000001     A   19017 18338
 =A(CONS_STR)
               4 0000565C 00000001     A   35674 31968
 =A(CONSCMD)
1VMNT     (VMNT21) (09:48) (22MAR04) Ordinary Symbol and Literal Cross Reference                                            Page  226
               4 00005664 00000001     A   35676 31986
 =A(CONSEGCB)
               4 00005660 00000001     A   35675 31981  31996
 =A(DOCODE)
               4 00000664 00000001     A   15730 15064  15100
 =A(DOCODE)
               4 00001910 00000001     A   19001 16158  16199  16707  16743  17570
 =A(DOMMSGS)
               4 00000660 00000001     A   15729 15014  15228
 =A(DOTASK)
               4 00001908 00000001     A   18999 16121  16576  16960  17164  17296
 =A(DUMPRET)
               4 00001928 00000001     A   19007 16978  17182  17314
 =A(EMC_prm)
               4 00003918 00000001     A   27857 24898  25492  27379
 =A(EMC_prm)
               4 00004394 00000001     A   29347 28253  28256
 =A(EMCATT)
               4 00003914 00000001     A   27856 24896  25490  27377
 =A(EMCATT)
               4 00004390 00000001     A   29346 28251
 =A(EMCDATA)
               4 000038E8 00000001     A   27845 24236  24561  25892
 =A(EMCDATA)
               4 00004370 00000001     A   29338 27972  28771  29083  29268
 =A(EMCSDDN)
               4 000038F8 00000001     A   27849 24666  25272  26046
 =A(EMCSDDN)
               4 00004374 00000001     A   29339 28011
 =A(EMCSRTN)
               4 00003900 00000001     A   27851 24703  26083
 =A(EMCSRTN)
               4 0000437C 00000001     A   29341 28048
 =A(ENABSYS)
               4 00000624 00000001     A   15714 14258  14602
 =A(ENABSYS)
               4 0000192C 00000001     A   19008 17202
 =A(ENABSYS)
               4 00006470 00000001     A   38317 37939
 =A(ENQFS)
               4 0000061C 00000001     A   15712 14235
 =A(EXECSLEN)
               4 00001904 00000001     A   18998 16115  16571  16955  17159  17291
 =A(EXECSLEN)
               4 0000569C 00000001     A   35690 33189
 =A(EXECSTR)
               4 00005654 00000001     A   35672 31924
 =A(FILATT)
               4 00001924 00000001     A   19006 16833  17044  17238
 =A(FINDDD)
               4 000055F8 00000001     A   35669 31738  31802
 =A(GDGLIST)
               4 00006BF0 00000001     A   39847 38890
 =A(HIST_CLS)
               4 00003984 00000001     A   27870 25802  27796
 =A(HIST_OPN)
               4 0000397C 00000001     A   27868 25765  27759
 =A(HIST_SAD)
               4 00003980 00000001     A   27869 25769  27763
1VMNT     (VMNT21) (09:48) (22MAR04) Ordinary Symbol and Literal Cross Reference                                            Page  227
 =A(L'STYP#008)
               4 00000650 00000001     A   15725 14760
 =A(MSGSUFF)
               4 0000062C 00000001     A   15716 14347  14919  15043  15096  15249
 =A(MSGSUFF)
               4 0000190C 00000001     A   19000 16137  16178  16686  17433
 =A(MSGSUFF)
               4 000029A0 00000001     A   23920 22858  22898  23040  23293  23333
 =A(MSGSUFF)
               4 000038EC 00000001     A   27846 24628  25966
 =A(MSGSUFF)
               4 0000567C 00000001     A   35682 32560
 =A(MSGSUFF)
               4 00005DD4 00000001     A   36730 35990  36252
 =A(OPNCONT)
               4 00001948 00000001     A   19015 18285
 =A(OPNCONT)
               4 00005688 00000001     A   35685 32719
 =A(ORVCOM)
               4 00005678 00000001     A   35681 32469
 =A(ORVCOMNM)
               4 00001944 00000001     A   19014 18197
 =A(ORVCOMNM)
               4 00005674 00000001     A   35680 32468
 =A(PARMERR)
               4 000056A0 00000001     A   35691 34530  34653  34770  35427  35542
 =A(PREALLOC)
               4 000018F4 00000001     A   18994 16030  16484  16860
 =A(PRMSEGRT)
               4 00005658 00000001     A   35673 31944
 =A(Proc_DMP)
               4 0000063C 00000001     A   15720 14483
 =A(Proc_FD)
               4 00000634 00000001     A   15718 14417
 =A(Proc_Inc)
               4 00000640 00000001     A   15721 14512
 =A(Proc_VRF)
               4 00000638 00000001     A   15719 14453
 =A(QUIESCE)
               4 000029B8 00000001     A   23924 22958  23251
 =A(RPT_SCVT)
               4 000029A4 00000001     A   23921 22894  23080  23329
 =A(SENDWTO)
               4 00000630 00000001     A   15717 14379  15008  15115  15264  15304
 =A(SENDWTO)
               4 00001914 00000001     A   19002 16214  16767  17585
 =A(SENDWTO)
               4 000029B4 00000001     A   23923 22947  23365
 =A(SENDWTO)
               4 000038F4 00000001     A   27848 24660  25998
 =A(SENDWTO)
               4 00005680 00000001     A   35683 32609  33465
 =A(SENDWTO)
               4 00005DDC 00000001     A   36732 36022  36284
 =A(SEND34)
               4 00001920 00000001     A   19005 16677
 =A(SET34TXT)
               4 00001F88 00000001     A   20895 20425
 =A(SMFELAP)
1VMNT     (VMNT21) (09:48) (22MAR04) Ordinary Symbol and Literal Cross Reference                                            Page  228
               4 00000658 00000001     A   15727 14773
 =A(STAIXIT)
               4 00001964 00000001     A   19022 18828
 =A(STCKCNV)
               4 00005684 00000001     A   35684 32635
 =A(STCKLEN)
               4 000005EC 00000001     A   15700 13813  15020
 =A(STNOCORE)
               4 00006478 00000001     A   38319 38077  38283
 =A(STRRET4)
               4 00006488 00000001     A   38323 38186
 =A(SYNCBLK)
               4 00001F58 00000001     A   20883 19113  19139  19223
 =A(SYNCGDG)
               4 000005F4 00000001     A   15702 13853
 =A(SYNCIDC)
               4 00000600 00000001     A   15705 13922
 =A(SYNCKILL)
               4 0000295C 00000001     A   23915 21353  21618
 =A(SYNCLST)
               4 00000644 00000001     A   15722 14626
 =A(SYNCLST)
               4 00006474 00000001     A   38318 37958
 =A(SYNCSET)
               4 00002960 00000001     A   23916 21390  21814
 =A(TCBSRCH)
               4 000029D8 00000001     A   23926 23230
 =A(T179SUBT)
               4 00000654 00000001     A   15726 14761
 =A(T179VER#)
               4 00005670 00000001     A   35679 32425
 =A(VAMATT)
               4 00001940 00000001     A   19013 18196
 =A(VERATT)
               4 00001918 00000001     A   19003 16303
 =A(VMNT)      4 000005E8 00000001     A   15699 13784
 =A(VMNT)      4 0000646C 00000001     A   38316 37933  38036
 =A(VMNT)      4 00006BE0 00000001     A   39843 38654  39013
 =A(VMNTSEG)
               4 000055D4 00000001     A   35662 31482
 =A(Welcome)
               4 000005F0 00000001     A   15701 13827
 =A(X'FFF')
               4 00001930 00000001     A   19009 17385
 =A(X'00FFF000')
               4 0000647C 00000001     A   38320 38121
 =A(X'00000FFF')
               4 00001968 00000001     A   19023 18898
 =A(X'00000FFF')
               4 00006480 00000001     A   38321 38124
 =A(X'10000')
               4 00004AA8 00000001     A   31215 31146  31165
 =A(YESOK)
               4 00001F80 00000001     A   20893 19943
 =A(0)         4 000018E0 00000001     A   18989 15862
 =A(1)         4 00000668 00000001     A   15731 15162  15184  15185
 =A(1)         4 00001F5C 00000001     A   20884 19242
 =A(1)         4 00002944 00000001     A   23913 21226  21386  23763
 =A(1)         4 000039C4 00000001     A   27876 26694
1VMNT     (VMNT21) (09:48) (22MAR04) Ordinary Symbol and Literal Cross Reference                                            Page  229
 =A(1)         4 00006484 00000001     A   38322 38145
 =A(100)       4 000039C0 00000001     A   27875 26689
 =A(1000)      4 00003928 00000001     A   27861 25028  27510
 =A(10000)
               4 0000195C 00000001     A   19020 18522
 =A(10000)
               4 00006C14 00000001     A   39852 39622
 =A(12)        4 00006468 00000001     A   38315 37893
 =A(17)        4 00006BE8 00000001     A   39845 38778
 =A(18)        4 00006BE4 00000001     A   39844 38752
 =A(2)         4 00001F74 00000001     A   20890 19719  20420
 =A(25)        4 00000688 00000001     A   15733 15651
 =A(26)        4 000056A4 00000001     A   35692 35418
 =A(3)         4 0000392C 00000001     A   27862 25043  27525
 =A(4)         4 000018DC 00000001     A   18988 15845
 =A(4)         4 00001F68 00000001     A   20887 19509
 =A(500)       4 000039CC 00000001     A   27878 27372
 =A(6)         4 00001F8C 00000001     A   20896 20492
 =A(64)        4 00004890 00000001     A   30821 30760
 =A(7)         4 0000196C 00000001     A   19024 18911
 =A(7)         4 00002938 00000001     A   23910 21125
 =A(7)         4 00006BEC 00000001     A   39846 38782
 =A(8)         4 00001934 00000001     A   19010 17397
 =A(8)         4 00001F84 00000001     A   20894 20221
 =A(8)         4 000056A8 00000001     A   35693 35533
 =A(80)        4 00006BF4 00000001     A   39848 38891
 =AL2(-1)      2 00006C20 00000001     R   39855 38821
 =AL4(1)       4 00006460 00000001     R   38313 37727  37745
 =AL4(12)      4 0000065C 00000001     R   15728 14933
 =AL4(4)       4 00000648 00000001     R   15723 14645
 =AL4(4)       4 00002940 00000001     R   23912 21207
 =C' (Extraneous Generation)'
              24 00002880 00000001     C   23898 21313
 =C' (OUT OF SYNC ERROR)'
              20 00002948 00000001     C   23914 21235
 =C' completed'
              10 00001998 00000001     C   19027 17554
 =C' has been uncataloged.'
              22 00002A20 00000001     C   23930 22108
 =C' is at generation '
              18 0000068E 00000001     C   15735 14021
 =C' is at generation '
              18 00002A0E 00000001     C   23929 21160
 =C' is paired with BCV device ('
              28 00004868 00000001     C   30817 29926
 =C' on ('
               5 00003C51 00000001     C   27905 26269
 =C' on ('
               5 000048C3 00000001     C   30826 29827
 =C' Elapsed seconds.'
              17 00003BA7 00000001     C   27899 25074  27556
 =C' Ending time for status call.'
              29 00006D16 00000001     C   39867 39467
 =C' GLOBAL MAXRC=0'
              15 00003B55 00000001     C   27893 24725  26159
 =C' GLOBAL MAXRC=0'
              15 000043E0 00000001     C   29358 28069
 =C' QUERY 002,'
              11 00003C8D 00000001     C   27911 26992
1VMNT     (VMNT21) (09:48) (22MAR04) Ordinary Symbol and Literal Cross Reference                                            Page  230
 =C' QUERY 002,'
              11 000043EF 00000001     C   29359 28125
 =C' QUERY 020,'
              11 00003C98 00000001     C   27912 27074
 =C' RE-ESTABLISH '
              14 00003AFE 00000001     C   27889 27156
 =C' RELABEL CUU='
              13 00003BB8 00000001     C   27900 25301
 =C' Seconds elapsed time.'
              22 00006C5E 00000001     C   39858 39663
 =C' Starting time of status call.'
              30 00006C40 00000001     C   39857 39557
 =C' SPLIT 010,'
              11 00003B64 00000001     C   27894 24772
 =C'.DIRDUMP'
               8 00001F28 00000001     C   20877 19135
 =C'.FILSEG'
               7 00001F94 00000001     C   20899 19253
 =C'.G0000V00'
               9 00001F9B 00000001     C   20900 20839
 =C'.IXRDUMP'
               8 00001F38 00000001     C   20879 19148
 =C'(+0)'      4 00002934 00000001     C   23909 21088
 =C'('         1 00002B31 00000001     C   23945 23549
 =C'('         1 000057FB 00000001     C   35706 33392
 =C'(Couldn''t locate SCIPCVT!)'
              26 00002A36 00000001     C   23931 23506
 =C'* completion return code must be ZERO.'
              38 00003A82 00000001     C   27883 26141
 =C'* the VMNT Orvyl maintenance utility.  The '
              43 00003C26 00000001     C   27904 26123
 =C'* The following statements are generated from '
              46 00003A54 00000001     C   27882 26105
 =C'***Insure that'
              14 00003AD6 00000001     C   27885 26583
 =C') is already established and will be bypassed.'
              46 00003AA8 00000001     C   27884 26351
 =C') subsystems are available.'
              27 00002B4C 00000001     C   23950 23802
 =C') will not go offline!'
              22 00003AE4 00000001     C   27886 26754
 =C') Error('
               8 000028B8 00000001     C   23900 21476
 =C') Reason('
               9 00002A64 00000001     C   23934 21525
 =C'), UCB('
               7 00004908 00000001     C   30833 30586
 =C')'         1 00002A6D 00000001     C   23935 21574
 =C')'         1 00003BA6 00000001     C   27898 24963  25557  27445
 =C')'         1 0000442C 00000001     C   29362 28321
 =C')'         1 000048C9 00000001     C   30828 29909  30008  30680
 =C')'         1 000057FC 00000001     C   35707 33438
 =C'- '        2 0000068C 00000001     C   15734 13977
 =C'/'         1 00002AC5 00000001     C   23939 22579
 =C', Code='
               7 000019FD 00000001     C   19037 17823
 =C', DEVTYPE('
              10 000048AE 00000001     C   30824 30545
 =C', Return='
1VMNT     (VMNT21) (09:48) (22MAR04) Ordinary Symbol and Literal Cross Reference                                            Page  231
               9 00001A06 00000001     C   19040 17947
 =C','         1 00003C56 00000001     C   27906 26310
 =C','         1 000048C8 00000001     C   30827 29868  29967
 =C',BCV'      4 000018F8 00000001     C   18995 16073  16528  17116
 =C',DISK'
               5 000019C0 00000001     C   19030 16428
 =C',FILESYS='
               9 00002AD5 00000001     C   23941 22842
 =C',INC'      4 0000191C 00000001     C   19004 16391
 =C',NEW-VOLSER='
              12 00003970 00000001     C   27867 25386
 =C',NOWAIT '
               8 000038E0 00000001     C   27844 27261
 =C',OFFLINE'
               8 000038D8 00000001     C   27843 26565
 =C',OLD-VOLSER='
              12 00003964 00000001     C   27866 25342
 =C',WAIT '
               6 00003B0C 00000001     C   27890 27229
 =C',WAIT'
               5 00003B6F 00000001     C   27895 24814
 =C',1'        2 00003AFC 00000001     C   27888 27033  27115
 =C',1'        2 000043B0 00000001     C   29354 28169
 =C''') ASID('''
               9 00003C84 00000001     C   27910 26875
 =C''')'       2 00003AFA 00000001     C   27887 26922
 =C''''        1 00006C8F 00000001     C   39860 38574
 =C'"'         1 00005773 00000001     C   35700 32114
 =C'and is '
               7 000048CA 00000001     C   30829 30069
 =C'in the dogy-doo state.'
              22 00004898 00000001     C   30823 30181
 =C'in the AVAILABLE state.'
              23 000048EA 00000001     C   30831 30148
 =C'in the ESTABLISHED state.'
              25 000048D1 00000001     C   30830 30102
 =C'is offline***'
              13 00003C57 00000001     C   27907 26628
 =C'system maintenance'
              18 0000570A 00000001     C   35697 32582
 =C'task.'
               5 000057A3 00000001     C   35702 32509
 =C'Bad return from catalog'
              23 00002A8D 00000001     C   23937 21993
 =C'Bad return from locate, RETURN='
              31 00002A6E 00000001     C   23936 21882
 =C'Bad return from scratch, return='
              32 000028C0 00000001     C   23901 22209
 =C'Beginning file '
              15 000057A8 00000001     C   35703 32565
 =C'BCV'       3 000019E9 00000001     C   19033 16912
 =C'Catalog dump successful'
              23 000019A2 00000001     C   19028 16183
 =C'Directory dump failed.'
              22 00001970 00000001     C   19025 16142
 =C'DUMP'      4 000018EC 00000001     C   18992 15998
 =C'Error return from DYNALLOC, R15('
              32 00002898 00000001     C   23899 21438
 =C'Establishing BCV volumes'
1VMNT     (VMNT21) (09:48) (22MAR04) Ordinary Symbol and Literal Cross Reference                                            Page  232
              24 000038C0 00000001     C   27842 25971
 =C'ENQ RET=NONE,'
              13 00002ADE 00000001     C   23942 23007
 =C'ENQ RET=USE,RC='
              15 00002AC6 00000001     C   23940 22804
 =C'File maintenance failed for '
              28 0000066C 00000001     C   15732 15233
 =C'File maintenance terminated by OPERATOR'
              39 00005DF0 00000001     C   36738 35995
 =C'File system has been enabled.'
              29 00002B14 00000001     C   23944 23338
 =C'File system maintenance successful'
              34 0000071A 00000001     C   15739 14974
 =C'File system maintenance FAILED'
              30 000006FC 00000001     C   15738 14942
 =C'File Maintenance terminated by OPERATOR'
              39 00005E17 00000001     C   36739 36257
 =C'Filedump failed'
              15 0000073E 00000001     C   15741 15048
 =C'Filedump'
               8 000018C0 00000001     C   18985 17454
 =C'FILESYS='
               8 00002920 00000001     C   23905 23024  23277
 =C'Has been backed up to generation '
              33 00002AA4 00000001     C   23938 22415
 =C'Has been scratched from '
              24 000028E0 00000001     C   23902 22297
 =C'Inc'       3 000019EC 00000001     C   19034 17070
 =C'Incremental dump'
              16 000018C8 00000001     C   18986 17500
 =C'IXRDUMP'
               7 000019B9 00000001     C   19029 16358
 =C'Jes2,'
               5 00002B32 00000001     C   23946 23602
 =C'Maintenance in progress.'
              24 000005B8 00000001     C   15696 14352
 =C'Milten,'
               7 00002B37 00000001     C   23947 23638
 =C'Nothing''s up!!'
              14 00002A56 00000001     C   23933 23783
 =C'NONVSAM--'
               9 00006C90 00000001     C   39861 38764
 =C'Offload'
               7 000019F6 00000001     C   19036 17533
 =C'Orvyl,'
               6 00002A50 00000001     C   23932 23710
 =C'Orvyl2,'
               7 00002B45 00000001     C   23949 23746
 =C'OFFLOAD'
               7 000019EF 00000001     C   19035 17252
 =C'ORVYL NOT TALKING BROTHER'
              25 0000074D 00000001     C   15742 15128
 =C'Parameter error for FILMAINT.'
              29 000057DE 00000001     C   35705 33375
 =C'Parm="'
               6 000056AC 00000001     C   35694 32072
 =C'Read/Only mode for '
              19 00006CF8 00000001     C   39865 39200
 =C'Read/Only status'
1VMNT     (VMNT21) (09:48) (22MAR04) Ordinary Symbol and Literal Cross Reference                                            Page  233
              16 00002910 00000001     C   23904 22920
 =C'Read/Write mode for '
              20 00006BF8 00000001     C   39849 39285
 =C'Run date is '
              12 000055E8 00000001     C   35667 31654
 =C'S'         1 00001A04 00000001     C   19038 17854
 =C'Splitting BCV volumes'
              21 00003B40 00000001     C   27892 24633
 =C'Status(x'''
               9 00003C7B 00000001     C   27909 26829
 =C'SCIP'      4 000029DC 00000001     C   23927 23497
 =C'SYSB'      4 00005DD0 00000001     C   36729 35903  36165
 =C'Timefinder QUERY has completed, return('
              39 00004405 00000001     C   29361 28283
 =C'Timefinder RE-ESTABLISH has completed, return('
              46 00003B12 00000001     C   27891 27407
 =C'Timefinder RELABEL has completed, return('
              41 00003BD0 00000001     C   27902 25519
 =C'Timefinder SPLIT has completed, return('
              39 00003B7F 00000001     C   27897 24925
 =C'U'         1 00001A05 00000001     C   19039 17873
 =C'Unknown'
               7 0000490F 00000001     C   30834 30659
 =C'Verify errors exist'
              19 000019D6 00000001     C   19032 16727
 =C'Verify failed for '
              18 00001986 00000001     C   19026 16597
 =C'Verify successful'
              17 000019C5 00000001     C   19031 16691
 =C'Version='
               8 000055B0 00000001     C   35657 31564
 =C'Volume='
               7 00004901 00000001     C   30832 30501
 =C'VARY'      4 000039BC 00000001     C   27874 26520
 =C'VMNT001I - ORVYL File Maintenance Driver.'
              41 0000574A 00000001     C   35699 31503
 =C'VMNT010I - Loading VAM module.'
              30 00006C22 00000001     C   39856 39034
 =C'VMNT011I - VAM code has been loaded at '
              39 00006CBE 00000001     C   39863 39102
 =C'VMNT012I - Deleting VAM module.'
              31 00006D34 00000001     C   39869 39706
 =C'VMNT013E - Unable to delete VAM module.'
              39 00006D53 00000001     C   39870 39742
 =C'VMNT015E - Unable to load vam module.'
              37 00006C99 00000001     C   39862 39071
 =C'VMNT020I - '
              11 00006D0B 00000001     C   39866 39421
 =C'VMNT025E - Unable to allocate SYSPRINT file.'
              44 000055FC 00000001     C   35670 31775
 =C'VMNT026E - Unable to allocate SYSKAPUT file.'
              44 00005628 00000001     C   35671 31839
 =C'VMNT029E - Unable to establish ESTAE recovery.'
              46 0000571C 00000001     C   35698 32691
 =C'VMNT045W - Unable to obtain SMF buffer storage.'
              47 00005774 00000001     C   35701 32345
 =C'VMNT069I - Setting '
              19 00006CE5 00000001     C   39864 39168
 =C'VMNT077I - Establishing required BCV volumes.'
1VMNT     (VMNT21) (09:48) (22MAR04) Ordinary Symbol and Literal Cross Reference                                            Page  234
              45 00003BF9 00000001     C   27903 26005
 =C'VMNT085E - Unable to open history file.'
              39 000060A3 00000001     C   37566 36976
 =C'VMNT101I - Checking GDG initial synchronization.'
              48 00000588 00000001     C   15695 13882
 =C'VMNT103I - Attaching IDCAMS'
              27 00006C74 00000001     C   39859 38430
 =C'VMNT107I - Checking final GDG synchronization.'
              46 000029E0 00000001     C   23928 20998
 =C'VMNT109I - IDCAMS completion code X'''
              36 00006BB8 00000001     C   39841 38533
 =C'VMNT186I - '
              11 000043FA 00000001     C   29360 28266
 =C'VMNT187I - '
              11 00003CA3 00000001     C   27913 27390
 =C'VMNT188I - '
              11 00003B74 00000001     C   27896 24908
 =C'VMNT189I - '
              11 00003BC5 00000001     C   27901 25502
 =C'VMNT200I - '
              11 000048B8 00000001     C   30825 29783
 =C'VMNT201I - File='
              16 00004850 00000001     C   30814 30411
 =C'VMNT202E - File='
              16 00004840 00000001     C   30813 30352
 =C'VMNT202I - Enqueue held '
              24 000028F8 00000001     C   23903 22787
 =C'VMNT203E - Unable to open control file.'
              39 000057B7 00000001     C   35704 32923
 =C'VMNT203I - Enqueue acquired '
              28 000029BC 00000001     C   23925 22990
 =C'VMNT204I - Enqueue has been released for '
              41 00002AEB 00000001     C   23943 23260
 =C'VMNT294W - Running non-APF authorized!'
              38 000056B2 00000001     C   35695 32265
 =C'VMNT303I - Final GDG synchronization check complete.'
              52 00002968 00000001     C   23918 21672
 =C'VMNT482E - Unable to obtain BCV UCB address.'
              44 0000398C 00000001     C   27872 26432
 =C'VMNT483E - BCV device ('
              23 00003C64 00000001     C   27908 26710
 =C'VMNT534E - Unable to allocate History file.'
              43 00006078 00000001     C   37565 36916
 =C'VMNT599E - ESTABLISH has failed, unable to continue.'
              52 000039D0 00000001     C   27879 27707
 =C'VMNT600E - QUERY has failed, unable to continue.'
              48 00004338 00000001     C   29336 28472
 =C'VMNT601E - SPLIT failed, unable to continue.'
              44 00003938 00000001     C   27865 25225
 =C'VMNT602E - RELABEL failed, unable to continue.'
              46 00003A26 00000001     C   27881 25704
 =C'VMNT628W - Unable to write logging smf record.'
              46 000006CE 00000001     C   15737 14812
 =C'VMNT739W - Unable to open EMC log.'
              34 00003A04 00000001     C   27880 25160  25643  27642
 =C'VMNT739W - Unable to open EMC log.'
              34 000043B2 00000001     C   29355 28407
 =C'VMNT801I - Complete GDG synchronization check.'
              46 000006A0 00000001     C   15736 14089
1VMNT     (VMNT21) (09:48) (22MAR04) Ordinary Symbol and Literal Cross Reference                                            Page  235
 =C'VMNT999E - Unable to IDENTIFY ORVYL communication '
              50 000056D8 00000001     C   35696 32492
 =C'Waiting for '
              12 000029A8 00000001     C   23922 22903
 =C'Wylbur,'
               7 00002B3E 00000001     C   23948 23674
 =C'010,'      4 000039C8 00000001     C   27877 27173
 =CL16'CATDUMP DIRDUMP '
              16 00001868 00000001     C   18978 16027
 =CL16'IXRDUMP INCIXR  '
              16 00001898 00000001     C   18982 16477
 =CL16'IXRDUMP IXRDUMP '
              16 00001888 00000001     C   18981 16461
 =CL16'Orvyl File Maintenance'
              16 000005D8 00000001     C   15698 14762
 =CL16'TAPE00  FILSEG0 '
              16 000018B0 00000001     C   18984 16857
 =CL4'(+0)'
               4 00006464 00000001     C   38314 37775
 =CL4'----'
               4 000043AC 00000001     C   29353 28871
 =CL4'BCV'
               4 00005DE4 00000001     C   36734 36593
 =CL4'FILE'
               4 00005DE0 00000001     C   36733 36407
 =CL4'WTO_'
               4 00004AA0 00000001     C   31213 31107
 =CL6'AVAIL '
               6 000043D4 00000001     C   29356 28945
 =CL6'INUSE '
               6 000043DA 00000001     C   29357 28968
 =CL8' '       8 00001F50 00000001     C   20882 19810  20231
 =CL8' '       8 000055C8 00000001     C   35660 34553  34676  34777
 =CL8'BCVM003I'
               8 00004368 00000001     C   29337 28583
 =CL8'CATDUMP'
               8 00001860 00000001     C   18977 15965
 =CL8'CONTROL'
               8 00002878 00000001     C   23897 20957
 =CL8'DIRDUMP'
               8 00001F30 00000001     C   20878 19136
 =CL8'FILEDUMP'
               8 000018A8 00000001     C   18983 16841  17052  17246
 =CL8'IXRDUMP'
               8 00001880 00000001     C   18980 16312
 =CL8'IXRDUMP'
               8 00001F40 00000001     C   20880 19149
 =CL8'SYSIN'
               8 000038B0 00000001     C   27840 24663  26043
 =CL8'SYSIN'
               8 00004330 00000001     C   29335 28008
 =CL8'SYSKAPUT'
               8 000005D0 00000001     C   15697 14652
 =CL8'SYSKAPUT'
               8 000055C0 00000001     C   35659 31799  31815
 =CL8'SYSPRINT'
               8 000055B8 00000001     C   35658 31735  31751
 =CL8'TAPE00'
               8 00001F48 00000001     C   20881 19239
1VMNT     (VMNT21) (09:48) (22MAR04) Ordinary Symbol and Literal Cross Reference                                            Page  236
 =CL8'TFINPUT'
               8 000038B8 00000001     C   27841 25269
 =CL8'VBLD'
               8 00001858 00000001     C   18976 15964
 =CL8'VERIFY'
               8 00001878 00000001     C   18979 16311
 =CL8'VMNTPRT'
               8 000055A8 00000001     C   35656 31352
 =CL9'...BCV...'
               9 0000442D 00000001     C   29363 28595
 =CL9'CUU  DEV#'
               9 00004436 00000001     C   29364 28607
 =F'4'         4 00006C1C 00000001     F   39854 39776
 =P'1900000'
               4 0000064C 00000001     P   15724 14744
 =P'1900000'
               4 00001960 00000001     P   19021 18686
 =V(BTD)       4 00001F60 00000001     V   20885 19273
 =V(BTR)       4 00003930 00000001     V   27863 25046  27528
 =V(BTR)       4 00006C18 00000001     V   39853 39629
 =V(BTX)       4 000039B8 00000001     V   27873 26513
 =V(BTX)       4 00004388 00000001     V   29344 28120
 =V(FMTCLCK)
               4 000055F4 00000001     V   35668 31679
 =V(FMTTIME)
               4 00006C0C 00000001     V   39850 39439  39529
 =V(RETUCBA)
               4 00003988 00000001     V   27871 26415
 =V(RETVOLU)
               4 0000488C 00000001     V   30820 30603
 =V(RETVOLU)
               4 00005DE8 00000001     V   36735 36624
 =V(SCAN)      4 00001954 00000001     V   19018 18345
 =V(SCAN)      4 00001F7C 00000001     V   20892 19767  19953
 =V(SCAN)      4 0000566C 00000001     V   35678 32188  32783
 =V(SCINIT)
               4 0000194C 00000001     V   19016 18331
 =V(SCINIT)
               4 00001F78 00000001     V   20891 19745  19936
 =V(SCINIT)
               4 00005668 00000001     V   35677 32172  32769
 =V(SEG)       4 000005FC 00000001     V   15704 13894  13989  14016  14033  14101  14364  14824  14954  14986  15060
                                                 15245  15289
 =V(SEG)       4 000018F0 00000001     V   18993 16010  16154  16195  16370  16403  16440  16540  16609  16703  16739
                                                 16924  17082  17128  17466  17512  17545  17566  17835  17903  17959
 =V(SEG)       4 0000292C 00000001     V   23907 21010  21155  21172  21247  21325  21450  21488  21537  21586  21684
                                                 21894  22005  22103  22120  22221  22309  22338  22427  22574  22591
                                                 22799  22816  22854  22915  22932  23002  23019  23036  23272  23289
                                                 23350  23516  23559  23612  23648  23684  23720  23756  23793  23812
 =V(SEG)       4 000038F0 00000001     V   27847 24645  24784  24920  24937  24975  25069  25086  25172  25237  25313
                                                 25354  25381  25398  25425  25514  25531  25569  25655  25716  25983
                                                 26017  26264  26281  26322  26363  26444  26559  26640  26722  26749
                                                 26766  26841  26887  26934  27004  27045  27086  27127  27168  27185
                                                 27241  27273  27402  27419  27457  27551  27568  27654  27719
 =V(SEG)       4 0000438C 00000001     V   29345 28137  28164  28181  28278  28295  28333  28419  28484
 =V(SEG)       4 00004860 00000001     V   30815 29795  29822  29839  29880  29921  29938  29979  30020  30081  30114
                                                 30160  30193  30364  30391  30423  30450  30513  30540  30557  30598
                                                 30671  30692
 =V(SEG)       4 000055DC 00000001     V   35664 31515  31576  31605  31666  31708  32084  32109  32126  32277  32357
1VMNT     (VMNT21) (09:48) (22MAR04) Ordinary Symbol and Literal Cross Reference                                            Page  237
                                                 32504  32521  32577  32594  32935  33387  33404  33433  33450
 =V(SEG)       4 00005DD8 00000001     V   36731 36007  36269
 =V(SEG)       4 00006074 00000001     V   37564 36988
 =V(SEG)       4 00006BB0 00000001     V   39839 38442  38545  38586  39114  39180  39212  39239  39297  39324  39433
                                                 39462  39479  39552  39569  39658  39675
 =V(SEGB)      4 000018FC 00000001     V   18996 16085  17264
 =V(SEGB)      4 0000299C 00000001     V   23919 22619
 =V(SEGB)      4 00003910 00000001     V   27855 24826  26532  26577  26595  26623
 =V(SEGBLANK)
               4 00000604 00000001     V   15706 13972
 =V(SEGBLANK)
               4 00002930 00000001     V   23908 21080  21433  21877  21988  22076  22204  22292  22410  23484
 =V(SEGBLANK)
               4 00003924 00000001     V   27860 25019  26237  26824  27501
 =V(SEGBLANK)
               4 00004888 00000001     V   30819 30064  30496
 =V(SEGBLANK)
               4 000055E4 00000001     V   35666 31559  31649  32067
 =V(SEGBLANK)
               4 00006C10 00000001     V   39851 39523  39613
 =V(SEGCLR)
               4 000018E8 00000001     V   18991 15978  16331  16878  17065
 =V(SEGCLR)
               4 00004AAC 00000001     V   31216 31178
 =V(SEGDC)
               4 00000608 00000001     V   15707 14054
 =V(SEGDC)
               4 0000193C 00000001     V   19012 17981
 =V(SEGDC)
               4 0000293C 00000001     V   23911 21193  21471  21915  22026  22242  22448  22837
 =V(SEGDC)
               4 00003920 00000001     V   27859 24958  25552  27440
 =V(SEGDC)
               4 0000439C 00000001     V   29349 28316
 =V(SEGHX)
               4 00001938 00000001     V   19011 17927
 =V(SEGHX)
               4 00002964 00000001     V   23917 21520  21569
 =V(SEGHX)
               4 0000390C 00000001     V   27854 24808  25337  26305  26346  26870  26917  27028  27110  27209
 =V(SEGHX)
               4 00004864 00000001     V   30816 29863  29904  29962  30003  30581  30639
 =V(SEGHX)
               4 00006BDC 00000001     V   39842 38569  39138
 =V(SEGINIT)
               4 000038FC 00000001     V   27850 24701  26081
 =V(SEGINIT)
               4 00004378 00000001     V   29340 28046
 =V(SEGINIT)
               4 000055D0 00000001     V   35661 31480  31942  31984
 =V(SEGINITR)
               4 00003904 00000001     V   27852 24718  26098
 =V(SEGINITR)
               4 00004380 00000001     V   29342 28063
 =V(SEGINITR)
               4 000055D8 00000001     V   35663 31497  31959  31999
 =V(SEGWR)
               4 000005F8 00000001     V   15703 13877  13918  14078  14125  14848  15088
 =V(SEGWR)
1VMNT     (VMNT21) (09:48) (22MAR04) Ordinary Symbol and Literal Cross Reference                                            Page  238
               4 00001900 00000001     V   18997 16113  16568  16952  17156  17288
 =V(SEGWR)
               4 00002928 00000001     V   23906 20993  21034  21271  21349  21610  21654  21708  21857  21939  22050
                                                 22144  22266  22362  22390  22472  22882  23064  23317  23843
 =V(SEGWR)
               4 00003908 00000001     V   27853 24737  24854  24999  25110  25196  25261  25449  25593  25679  25740
                                                 26041  26117  26135  26153  26171  26387  26468  26664  26790  26958
                                                 27069  27151  27305  27481  27592  27678  27743
 =V(SEGWR)
               4 00004384 00000001     V   29343 28081  28205  28357  28443  28508
 =V(SEGWR)
               4 00004884 00000001     V   30818 30044  30221  30476  30720
 =V(SEGWR)
               4 000055E0 00000001     V   35665 31539  31629  31732  31787  31851  32150  32301  32381  32545  32703
                                                 32959
 =V(SEGWR)
               4 00006070 00000001     V   37563 36928  37012
 =V(SEGWR)
               4 00006BB4 00000001     V   39840 38466  38610  39046  39083  39162  39263  39348  39503  39593  39699
                                                 39718  39754
 =V(VSIO_GO)
               4 00004894 00000001     V   30822 30776
 =V(XTB)       4 00001F6C 00000001     V   20888 19548
 =V(XTB)       4 000043A8 00000001     V   29352 28790  28859  28867  28887
 =X'04004000'
               4 00004AA4 00000001     X   31214 31133
 =X'2'         1 00006D33 00000001     X   39868 39626
 =XL2'8000'
               2 00004AB0 00000001     X   31217 31112
 =Y((R1+1-(R0)+16*((R0)/(R1+1))/((R0)/(R1+1)))*4)
               2 00005DEC 00000001     Y   36736 36413  36597
 =Y((R15+1-(R14)+16*((R14)/(R15+1))/((R14)/(R15+1)))*4)
               2 00001F92 00000001     Y   20898 19837  20005
 =Y(4)         2 0000073C 00000001     Y   15740 15206
 =Y(4)         2 00001F90 00000001     Y   20897 19151  19276  19552
 =Y(4)         2 00005DEE 00000001     Y   36737 36475  36681

1VMNT     (VMNT21) (09:48) (22MAR04) Macro and Copy Code Source Summary                                                     Page  239
- Con Source                                        Volume    Members                        HLASM R4.0  2004/03/22 09.48
0     PRIMARY INPUT                                           ABND     CSECT    DROP     END      EX       LTORG    POP
                                                              PRINT    PUSH     SENDWTO  START    USING
   L2 WYL.GG.SYS.MACLIB                             SYSB05    $BC      $BFLKUP  $BV      $CCLKUP  $CRS     $CSS     $L
                                                              $LA      $LBLAD   $LEXP    $LOR     $REL     $RGLKUP
                                                              $USLKUP  ACALL    BASE     BEGIN    CLEAR    COMPROC
                                                              CSECT    DATA     DEFCC    DEX      DROP     ELSE
                                                              ELSEIF   END      EX       EXIT     FLAG     GEN
                                                              HIBAL    IDENT    IF       INCR     LABEL    LC
                                                              LCALL    LCM      LOOP     LS       LT       LTORG    L2
                                                              PEND     POP      PRETURN  PRINT    PROC     PUSH
                                                              RECORD   REG      REGS     SDL      SET      SETMSG
                                                              START    ST3      SYSLR    SYSQS    UNTIL    USING
                                                              VCALL    WHILE    WITH
   L3 SYS3.IS.MACLIB                                SYSB05    BTD      SEG      SEGB     SEGBLANK SEGCB    SEGCLR
                                                              SEGDC    SEGDEF   SEGHX    SEGINIT  SEGLD    SEGWR
   L4 SYS3.MACLIB                                   SYSB02    SCIPCVT  VSIOPRM
   L5 WYL.GG.ORV.BC.MACLIB                          SYSB02    SCAN     SCANCB   SCINIT   SCKW     VDMPHIST VPOP
                                                              VPUSH    XCALL
   L6 SYS1.MACLIB                                   MVSBR9    ABEND    ATTACH   CAMLST   CATALOG  CHECK    CLOSE
                                                              CONVTOD  CVT      DCB      DCBD     DELETE   DEQ
                                                              DETACH   DOM      DYNALLOC ENQ      ESTAE    FREEMAIN
                                                              FREEPOOL GET      GETMAIN  IDENTIFY IEESMCA  IEFSJDKY
                                                              IEFTIOT1 IEFUCBOB IEFZB4D0 IEFZB4D2 IEZJSCB  IHADSAB
                                                              IHAPSA   IHAPSAE  IHASDWA  IHAVRA   IHBERMAC IHBINNRA
                                                              IHBINNRR IHBOPLTX IHBRDWRD IHB01    IKJTCB   LOAD
                                                              LOCATE   MODESET  OPEN     PUT      READ     RETURN
                                                              SCRATCH  SETRP    SMFWTM   SPLEVEL  STCKCONV STIMER
                                                              SYSSTATE TESTAUTH TIME     WAIT     WRITE    WTO      WTOR
   L7 SYS1.MODGEN                                   MVSBR9    IECDUCBC IECDUCBD IECDUCBE IECDUCBG IECDUCBT IECDUCBU
                                                              IEECHAIN IEZBITS  IHAPCCA  IOSDUCBC

1         (VMNT21) (09:48) (22MAR04) General Purpose Register Cross Reference                                               Page  240
- Register  References (M=modified, B=branch, U=USING, D=DROP, N=index)                      HLASM R4.0  2004/03/22 09.48
0    0(0)     1025U  1026D  2106U  3320U  3321D 13769  13813M 13816M 13816  13866M 13866  13883M 13907M 13907  13961M
             13978M 13992M 14022M 14043M 14043  14067M 14067  14090M 14114M 14114  14339M 14353M 14376M 14813M 14837M
             14837  14858M 14903M 14943M 14975M 15005M 15020M 15024M 15024  15030M 15049M 15077M 15077  15112M 15125
             15148M 15148  15161  15185M 15234M 15261M 15278M 15301M 15311M 15312M 15313  15538  15625  15626M 15627
             15639M 15639  15653M 15654M 15656M 15680M 15794  15887M 15912  15999M 16074M 16102M 16102  16143M 16184M
             16211M 16234M 16259  16359M 16392M 16429M 16529M 16557M 16557  16598M 16692M 16728M 16764M 16783M 16808
             16913M 16941M 16941  16994M 17019  17071M 17117M 17145M 17145  17253M 17277M 17277  17334M 17359  17424M
             17455M 17501M 17534M 17555M 17582M 17602M 17627  17668M 17690M 17712M 17734M 17754M 17779  17824M 17855M
             17874M 17916M 17948M 17970M 17970  18001M 18026  18147M 18171  18231M 18257  18303M 18321M 18372M 18412
             18515M 18519M 18520M 18521M 18522M 18548M 18601  18682M 18689  18714M 18785  18856M 18880M 18881M 18881
             18897M 18898M 18899  18911  18917M 18918M 18918  18937M 18937  18947  18962M 19063  19091  19131M 19134
             19144M 19147  19172M 19192  19240M 19241  19242M 19243  19247M 19252  19263M 19263  19297M 19317  19353
             19391M 19410  19453M 19473  19509  19581M 19600  19643M 19663  19719M 19724  19735M 19783  19857M 19877
             19916  19926M 20025M 20045  20090M 20109  20154M 20174  20221  20230  20269M 20289  20325  20364M 20384
             20420M 20445M 20465  20490  20492M 20498  20538M 20558  20592M 20592  20612M 20637  20672M 20770M 20795
             20835M 20838  20840M 20841  20863M 20932  20982M 20982  20999M 21023M 21023  21069M 21084M 21087  21112M
             21113M 21114  21121M 21124  21127M 21129  21131M 21161M 21182M 21182  21213M 21214M 21226  21236M 21260M
             21260  21314M 21338M 21338  21385M 21386M 21387  21422M 21439M 21460M 21460  21477M 21509M 21526M 21558M
             21575M 21599M 21599  21643M 21643  21673M 21697M 21697  21749M 21774  21846M 21846  21866M 21883M 21904M
             21904  21928M 21928  21977M 21994M 22015M 22015  22039M 22039  22065M 22079M 22109M 22133M 22133  22166M
             22166  22193M 22210M 22231M 22231  22255M 22255  22281M 22298M 22327M 22351M 22351  22379M 22379  22399M
             22416M 22437M 22437  22461M 22461  22499M 22524  22549M 22580M 22593M 22639M 22699  22741M 22745  22788M
             22805M 22826M 22826  22843M 22871M 22871  22904M 22921M 22944M 22991M 23008M 23025M 23053M 23053  23084M
             23123M 23149  23213M 23217  23261M 23278M 23306M 23306  23339M 23362M 23398M 23426  23475M 23507M 23550M
             23603M 23639M 23675M 23711M 23747M 23762M 23763M 23764  23784M 23803M 23834M 23834  23865M 24211  24264M
             24265  24337M 24344M 24379M 24384M 24411M 24416M 24448M 24526  24612M 24634M 24657M 24690M 24703M 24726M
             24773M 24797M 24815M 24843M 24843  24886M 24891M 24909M 24926M 24947M 24947  24964M 24988M 24988  25008M
             25041M 25042M 25043M 25075M 25099M 25099  25114M 25115M 25115  25161M 25185M 25185  25226M 25250M 25250
             25302M 25326M 25343M 25370M 25387M 25414M 25438M 25438  25481M 25486M 25503M 25520M 25541M 25541  25558M
             25582M 25582  25597M 25598M 25598  25644M 25668M 25668  25705M 25729M 25729  25829M 25857  25950M 25972M
             25995M 26006M 26030M 26030  26070M 26083M 26106M 26124M 26142M 26160M 26226M 26253M 26270M 26294M 26311M
             26335M 26352M 26376M 26376  26433M 26457M 26457  26508M 26521M 26548M 26566M 26584M 26612M 26629M 26653M
             26653  26691M 26692M 26711M 26738M 26755M 26779M 26779  26813M 26830M 26859M 26876M 26906M 26923M 26947M
             26947  26993M 27017M 27034M 27058M 27058  27075M 27099M 27116M 27140M 27140  27157M 27174M 27198M 27230M
             27262M 27294M 27294  27345M 27350M 27374M 27375M 27391M 27408M 27429M 27429  27446M 27470M 27470  27490M
             27523M 27524M 27525M 27557M 27581M 27581  27596M 27597M 27597  27643M 27667M 27667  27708M 27732M 27732
             27826M 27937  28035M 28048M 28070M 28115M 28126M 28153M 28170M 28194M 28194  28242M 28247M 28267M 28284M
             28305M 28305  28322M 28346M 28346  28361M 28362M 28362  28408M 28432M 28432  28473M 28497M 28497  28543M
             28544  28562M 28638M 28670M 28675M 28717M 28746  28787M 28856M 28864M 28884M 29033M 29058  29098  29156M
             29162M 29188M 29188  29217M 29243  29321M 29435  29492M 29493  29642M 29643  29696M 29724  29784M 29811M
             29828M 29852M 29869M 29893M 29910M 29927M 29951M 29968M 29992M 30009M 30033M 30033  30053M 30070M 30103M
             30149M 30182M 30210M 30210  30248M 30274  30353M 30380M 30412M 30439M 30465M 30465  30485M 30502M 30529M
             30546M 30570M 30587M 30628M 30660M 30681M 30709M 30709  30752M 30753  30754M 30755  30805M 30857  30883
             30938M 30939  30943M 30949M 30975M 30975  30999M 31051  31134  31205M 31326  31469M 31482M 31504M 31528M
             31528  31548M 31565M 31581M 31581  31582M 31618M 31618  31638M 31655M 31671M 31671  31697M 31721M 31721
             31776M 31840M 31897M 31931M 31944M 31975M 31986M 32056M 32073M 32098M 32115M 32139M 32139  32162M 32215M
             32216M 32266M 32290M 32290  32314M 32346M 32370M 32370  32421M 32422  32426M 32427  32473M 32493M 32510M
             32534M 32534  32566M 32583M 32606M 32637  32669M 32692M 32724M 32759M 32788M 32830M 32855  32924M 32948M
             32948  32989M 33009  33057M 33062M 33080M 33107  33190  33191M 33191  33217M 33217  33241M 33347  33376M
             33393M 33422M 33439M 33462M 33483M 33503  33548M 33568  33627M 33647  33705M 33725  33783M 33803  33892M
             33912  34001M 34021  34072M 34092  34143M 34163  34208M 34228  34274M 34294  34340M 34360  34406M 34426
             34471M 34491  34547M 34554  34594M 34614  34670M 34677  34711M 34731  34776  34811M 34831  34876M 34896
             34941M 34961  35007M 35027  35072M 35092  35143M 35163  35208M 35228  35280M 35300  35352M 35372  35418
             35433  35467M 35487  35533  35548  35582M 35602  35647M 35746  35814M 35814  35815M 35832M 35832  35944M
             35996M 36019M 36053M 36078  36206M 36258M 36281M 36315M 36348  36377  36384M 36414M 36415  36496M 36528
1         (VMNT21) (09:48) (22MAR04) General Purpose Register Cross Reference                                               Page  241
             36557  36564M 36598M 36599  36639M 36640  36707M 36865  36917M 36977M 37001M 37001  37032M 37032  37066M
             37067M 37067  37080M 37090M 37090  37094M 37102  37155M 37180  37223M 37223  37267M 37308M 37335  37381M
             37411  37437  37472M 37492  37518  37554M 37657  37701M 37704  37711M 37712M 37713  37771M 37774  37814M
             37815M 37816  37841M 37893  37928  37974M 38025  38077  38142M 38193M 38283  38291M 38402  38431M 38455M
             38455  38521M 38534M 38558M 38575M 38599M 38599  38626M 38640  38704M 38777M 38778M 38781  38784M 38785
             38850M 38910M 39002  39023M 39035M 39050M 39072M 39090M 39091M 39092  39098  39103M 39127M 39151M 39151
             39169M 39201M 39215M 39252M 39252  39286M 39300M 39337M 39337  39361M 39362  39365M 39384M 39422M 39435M
             39468M 39492M 39492  39512M 39525M 39558M 39582M 39582  39602M 39624M 39625M 39626M 39647M 39664M 39688M
             39688  39707M 39722M 39743M 39761M 39762M 39763  39778M 39785M
     1(1)     1021U 13769  13811  13817M 13819  13882M 13977M 13991M 14021M 14039M 14089M 14321M 14322  14325M 14326M
             14326  14352M 14375M 14653M 14654  14655M 14720M 14721M 14731  14732  14738  14770M 14775  14792M 14812M
             14861M 14901M 14942M 14974M 15004M 15021M 15025M 15025  15030M 15048M 15111M 15125  15160  15233M 15260M
             15273M 15300M 15310M 15313M 15538  15631M 15633M 15633  15635M 15644M 15646M 15646  15651M 15680M 15794
             15887M 15912  15998M 16027M 16073M 16115M 16117  16142M 16183M 16210M 16234M 16259  16358M 16391M 16428M
             16461M 16477M 16528M 16571M 16572  16597M 16644M 16645M 16645  16691M 16727M 16763M 16783M 16808  16857M
             16912M 16955M 16956  16994M 17019  17070M 17116M 17159M 17160  17252M 17291M 17292  17334M 17359  17410M
             17411M 17411  17454M 17500M 17533M 17554M 17581M 17602M 17627  17652M 17661M 17661  17674M 17683M 17683
             17698M 17699M 17699  17720M 17721M 17721  17754M 17779  17823M 17854M 17873M 17909M 17947M 17966M 18001M
             18026  18051  18147M 18171  18197M 18231M 18257  18282M 18302M 18305  18314M 18338M 18372M 18412  18447
             18461M 18462M 18463  18463  18464  18465  18467  18483  18491M 18492M 18493  18493  18494  18495  18497
             18513  18515M 18517M 18521M 18522M 18524  18548M 18601  18660M 18661M 18662  18664  18674  18680  18687M
             18689  18714M 18785  18838M 18852  18858M 18863M 18962M 19063  19115  19130M 19134M 19141  19143M 19147M
             19172M 19192  19225  19248M 19251  19270M 19297M 19317  19391M 19410  19453M 19473  19581M 19600  19643M
             19663  19718M 19757M 19757  19804M 19857M 19877  19943M 20025M 20045  20090M 20109  20154M 20174  20269M
             20289  20364M 20384  20421M 20445M 20465  20491  20495M 20497  20501M 20521M 20523M 20538M 20558  20583
             20586M 20588M 20596M 20612M 20637  20674M 20674  20699U 20744  20750U 20755  20770M 20795  20834M 20838M
             20863M 20932  20957M 20998M 21083M 21087M 21091M 21111M 21114M 21120M 21124M 21125M 21130M 21160M 21178M
             21235M 21313M 21370M 21394M 21395  21396M 21438M 21456M 21476M 21502M 21525M 21551M 21574M 21672M 21749M
             21774  21818M 21882M 21900M 21953M 21993M 22011M 22078M 22108M 22169M 22209M 22227M 22297M 22320M 22415M
             22433M 22499M 22524  22550M 22579M 22594M 22639M 22699  22742M 22750M 22751  22752  22753  22754  22761
             22787M 22804M 22822M 22842M 22903M 22920M 22943M 22978M 22979  22980  22990M 23007M 23024M 23082M 23123M
             23149  23214M 23222M 23223  23224  23227M 23260M 23277M 23338M 23361M 23398M 23426  23506M 23549M 23602M
             23638M 23674M 23710M 23746M 23783M 23802M 23865M 24211  24268M 24299M 24336M 24339  24343M 24346  24358M
             24364M 24365  24368  24374  24376M 24376  24377M 24379M 24380M 24380  24383M 24383  24384  24385M 24390M
             24396M 24397  24400  24406  24408M 24408  24409M 24411M 24412M 24412  24415M 24415  24416  24417M 24448M
             24526  24610M 24633M 24656M 24663M 24670M 24683M 24707M 24707  24725M 24772M 24790M 24814M 24865M 24871M
             24872  24875  24881  24883M 24883  24884M 24886M 24887M 24887  24890M 24890  24891  24892M 24898M 24899
             24908M 24925M 24943M 24963M 25036M 25074M 25160M 25225M 25269M 25276M 25301M 25319M 25342M 25365M 25386M
             25409M 25460M 25466M 25467  25470  25476  25478M 25478  25479M 25481M 25482M 25482  25485M 25485  25486
             25487M 25492M 25493  25502M 25519M 25537M 25557M 25643M 25704M 25780U 25798U 25829M 25857  25948M 25971M
             25994M 26005M 26043M 26050M 26063M 26087M 26087  26105M 26123M 26141M 26159M 26248M 26269M 26287M 26310M
             26328M 26351M 26411M 26432M 26476  26509M 26520M 26543M 26565M 26583M 26607M 26628M 26689M 26710M 26733M
             26754M 26829M 26848D 26850M 26850  26851M 26852U 26875M 26895D 26897M 26897  26898M 26899U 26922M 26992M
             27010M 27033M 27074M 27092M 27115M 27156M 27173M 27191M 27229M 27261M 27324M 27330M 27331  27334  27340
             27342M 27342  27343M 27345M 27346M 27346  27349M 27349  27350  27351M 27372M 27379M 27380  27390M 27407M
             27425M 27445M 27518M 27556M 27642M 27707M 27774U 27792U 27826M 27937  28008M 28015M 28028M 28052M 28052
             28069M 28116M 28125M 28148M 28169M 28221M 28227M 28228  28231  28237  28239M 28239  28240M 28242M 28243M
             28243  28246M 28246  28247  28248M 28253M 28254  28256M 28257  28266M 28283M 28301M 28321M 28407M 28472M
             28521M 28531U 28547M 28557U 28561M 28564  28637M 28640  28649M 28655M 28656  28659  28665  28667M 28667
             28668M 28670M 28671M 28671  28674M 28674  28675  28676M 28717M 28746  28786M 28855M 28863M 28883M 29033M
             29058  29155M 29158  29217M 29243  29321M 29435  29476M 29494M 29517M 29528M 29544M 29567M 29578M 29594M
             29617M 29628M 29645M 29668M 29696M 29724  29783M 29806M 29827M 29845M 29868M 29886M 29909M 29926M 29944M
             29967M 29985M 30008M 30069M 30102M 30148M 30181M 30248M 30274  30333M 30352M 30375M 30411M 30434M 30501M
             30524M 30545M 30563M 30586M 30600M 30616  30621M 30659M 30680M 30722M 30732U 30772U 30805M 30857  30942M
             30945  30999M 31051  31153  31172M 31174  31205M 31326  31352M 31367M 31368  31369M 31399M 31462M 31486M
             31486  31503M 31564M 31583M 31654M 31675M 31675  31690M 31735M 31752M 31775M 31799M 31816M 31839M 31898M
             31900  31906M 31907M 31907  31924M 31948M 31948  31968M 31990M 31990  32072M 32093M 32114M 32157M 32181M
             32214M 32265M 32325M 32325  32345M 32399  32400  32472M 32492M 32509M 32565M 32582M 32605M 32629M 32637
             32657M 32670M 32670  32691M 32716M 32723M 32726  32752M 32776M 32787M 32790  32830M 32855  32896  32899M
1         (VMNT21) (09:48) (22MAR04) General Purpose Register Cross Reference                                               Page  242
             32901N 32902  32923M 32989M 33009  33036M 33042M 33043  33046  33052  33054M 33054  33055M 33057M 33058M
             33058  33061M 33061  33062  33063M 33080M 33107  33241M 33347  33375M 33392M 33415M 33438M 33461M 33483M
             33503  33548M 33568  33627M 33647  33705M 33725  33783M 33803  33892M 33912  34001M 34021  34072M 34092
             34143M 34163  34208M 34228  34274M 34294  34340M 34360  34406M 34426  34471M 34491  34548M 34594M 34614
             34671M 34711M 34731  34811M 34831  34876M 34896  34941M 34961  35007M 35027  35072M 35092  35143M 35163
             35208M 35228  35280M 35300  35352M 35372  35467M 35487  35582M 35602  35647M 35746  35929M 35946M 35995M
             36018M 36053M 36078  36191M 36208M 36257M 36280M 36315M 36348  36377  36382M 36384  36386  36414M 36496M
             36528  36557  36562M 36564  36566  36598M 36621M 36635U 36689U 36707M 36865  36893M 36916M 36953M 36976M
             37033M 37081M 37091M 37118M 37155M 37180  37224M 37253M 37263U 37284U 37290M 37308M 37335  37360M 37362
             37381M 37411  37436  37440M 37441  37442  37443  37444  37449M 37450  37472M 37492  37517  37521M 37522
             37523  37524  37525  37526  37531M 37532  37554M 37657  37682  37700M 37704M 37706M 37770M 37774M 37791M
             37813M 37816M 37841M 37928  37929  37971M 37972  37974M 38025  38064U 38084  38111U 38145M 38146M 38146
             38198M 38292M 38292  38402  38430M 38484M 38517  38523M 38528M 38533M 38551M 38574M 38626M 38640  38653
             38665M 38704M 38776M 38781M 38782M 38850M 38910M 39002  39026M 39034M 39051M 39051  39071M 39089M 39092M
             39102M 39120M 39168M 39200M 39214M 39265M 39285M 39299M 39350M 39359  39363M 39385M 39421M 39435M 39467M
             39525M 39557M 39623M 39640M 39663M 39706M 39742M 39760M 39763M 39777M 39781M 39781  39785M
     2(2)     1017U 13769  13924M 13934U 13948M 13948  14080M 14132U 14668M 14669M 14669  14690U 14792  14861  14880U
             15030M 15125  15128M 15158  15160M 15161M 15162M 15184M 15207M 15273  15329M 15330M 15331M 15339U 15341M
             15349U 15352U 15354M 15362U 15365U 15392M 15392  15406U 15538  15625M 15656  15680M 15794  15887M 15912
             16234M 16259  16627M 16636M 16636  16783M 16808  16994M 17019  17184M 17334M 17359  17384M 17385M 17397
             17602M 17627  17754M 17779  17837M 17846M 17846  17875M 17909  18001M 18026  18147M 18171  18231M 18257
             18372M 18412  18447M 18548M 18601  18643M 18653U 18696U 18714M 18785  18828M 18844  18962M 19063  19091M
             19094M 19096  19115M 19125U 19141M 19159U 19172M 19192  19225M 19235U 19284U 19297M 19317  19353M 19356M
             19358  19391M 19410  19453M 19473  19517M 19518M 19518  19539U 19559U 19581M 19600  19643M 19663  19724M
             19735  19857M 19877  19916M 19926  20025M 20045  20090M 20109  20154M 20174  20230M 20234M 20236  20269M
             20289  20325M 20328M 20330  20364M 20384  20422M 20445M 20465  20538M 20558  20583M 20588  20612M 20637
             20719M 20737M 20770M 20795  20863M 20932  21414M 21456  21749M 21774  22499M 22524  22639M 22699  22724M
             22740  22742  22761  23097M 23123M 23149  23196M 23212  23214  23224  23367M 23398M 23426  23453M 23454M
             23454  23464U 23852U 23865M 24211  24250M 24260U 24296M 24430U 24448M 24526  24748U 24752M 24763M 24763
             24857M 25280M 25291M 25291  25451M 25757U 25829M 25857  26173M 26184M 26184  26199U 27311M 27317U 27826M
             27937  28083M 28094M 28094  28109U 28207M 28214U 28717M 28746  28792M 28803M 28803  28818U 29002M 29008U
             29033M 29058  29097M 29108U 29199U 29217M 29243  29282M 29292U 29303U 29321M 29435  29696M 29724  29750M
             29761M 29761  29776U 30223M 30229U 30248M 30274  30299M 30311M 30311  30326U 30780M 30786U 30805M 30857
             30999M 31051  31109M 31115M 31117  31134M 31153M 31174M 31180  31205M 31326  31403M 31413U 31444U 31867M
             31868M 31868  31878U 31890U 32031M 32032M 32034M 32043M 32043  32093  32157  32400M 32410U 32459U 32468M
             32473  32613M 32614M 32624U 32644U 32830M 32855  32880M 32890U 32901  32973U 32989M 33009  33080M 33107
             33189M 33241M 33347  33483M 33503  33548M 33568  33627M 33647  33705M 33725  33783M 33803  33892M 33912
             34001M 34021  34072M 34092  34143M 34163  34208M 34228  34274M 34294  34340M 34360  34406M 34426  34471M
             34491  34554M 34557M 34559  34594M 34614  34677M 34680M 34682  34711M 34731  34776M 34780M 34782  34811M
             34831  34876M 34896  34941M 34961  35007M 35027  35072M 35092  35143M 35163  35208M 35228  35280M 35300
             35352M 35372  35433M 35436M 35438  35467M 35487  35548M 35551M 35553  35582M 35602  35647M 35746  35771M
             35781U 35787M 35794U 35805U 35822U 36053M 36078  36315M 36348  36386M 36396U 36450  36451  36468  36469
             36483U 36496M 36528  36566M 36576U 36656  36657  36674  36675  36694U 36707M 36865  36891M 36892  36945U
             36950M 37026U 37045U 37062M 37142U 37155M 37180  37308M 37335  37381M 37411  37436M 37443  37472M 37492
             37517M 37525  37554M 37657  37682M 37841M 37928  37974M 38025  38083  38119M 38120  38121M 38122M 38123
             38142  38198M 38402  38468M 38469  38626M 38640  38653M 38662U 38693U 38704M 38720M 38850M 38910M 39002
             39407M 39407  39785M
     3(3)     1013U 13769  14736M 14746M 14756U 14870U 15018M 15028  15030M 15125  15129M 15278  15370M 15370  15391M
             15392N 15538  15680M 15794  15887M 15912  16234M 16259  16783M 16808  16994M 17019  17334M 17359  17602M
             17627  17754M 17779  18001M 18026  18051M 18147M 18171  18231M 18257  18372M 18412  18481M 18511M 18548M
             18601  18678M 18714M 18785  18962M 19063  19172M 19192  19251M 19252M 19297M 19317  19391M 19410  19453M
             19473  19581M 19600  19643M 19663  19725M 19830M 19857M 19877  20025M 20045  20090M 20109  20154M 20174
             20269M 20289  20364M 20384  20445M 20465  20490M 20504M 20506  20521N 20538M 20558  20612M 20637  20720M
             20731M 20731  20737  20738M 20770M 20795  20863M 20932  21749M 21774  21834M 21900  21947M 21969M 22011
             22185M 22227  22499M 22524  22639M 22699  22745M 22751  22779D 22781M 22781  22782M 22783U 22822  23123M
             23149  23217M 23223  23398M 23426  23865M 24211  24448M 24526  25829M 25857  26476M 26486U 26986U 27826M
             27937  28717M 28746  29033M 29058  29098M 29162  29217M 29243  29321M 29435  29696M 29724  30248M 30274
             30300M 30805M 30857  30999M 31051  31110M 31111  31132N 31146M 31147M 31148  31165M 31166M 31167  31205M
             31326  32033M 32098  32162  32428M 32438U 32454U 32469M 32472  32830M 32855  32989M 33009  33080M 33107
1         (VMNT21) (09:48) (22MAR04) General Purpose Register Cross Reference                                               Page  243
             33241M 33347  33483M 33503  33548M 33568  33627M 33647  33705M 33725  33783M 33803  33892M 33912  34001M
             34021  34072M 34092  34143M 34163  34208M 34228  34274M 34294  34340M 34360  34406M 34426  34471M 34491
             34594M 34614  34711M 34731  34811M 34831  34876M 34896  34941M 34961  35007M 35027  35072M 35092  35143M
             35163  35208M 35228  35280M 35300  35352M 35372  35467M 35487  35582M 35602  35647M 35746  36053M 36078
             36315M 36348  36437M 36438M 36438  36467  36468  36496M 36528  36643M 36644M 36644  36673  36674  36707M
             36865  37058U 37063M 37137U 37155M 37180  37308M 37335  37381M 37411  37472M 37492  37554M 37657  37683M
             37693U 37828U 37841M 37928  37974M 38025  38120M 38124M 38125  38198M 38402  38626M 38640  38704M 38720M
             38752  38777  38850M 38910M 39002  39785M
     4(4)     1009U 13769  14695M 14706U 14736M 14864  14875U 15019M 15027  15030M 15125  15130M 15310  15538  15680M
             15794  15887M 15912  16234M 16259  16783M 16808  16994M 17019  17334M 17359  17602M 17627  17754M 17779
             18001M 18026  18147M 18171  18231M 18257  18372M 18412  18481M 18511M 18548M 18601  18678M 18714M 18785
             18962M 19063  19172M 19192  19220M 19259  19297M 19317  19391M 19410  19453M 19473  19581M 19600  19643M
             19663  19783M 19813M 19815  19857M 19877  20025M 20045  20090M 20109  20154M 20174  20269M 20289  20364M
             20384  20445M 20465  20491M 20538M 20558  20612M 20637  20770M 20795  20829U 20850U 20863M 20932  21036M
             21044U 21056M 21056  21656M 21662U 21749M 21774  22499M 22524  22639M 22699  23123M 23149  23398M 23426
             23865M 24211  24448M 24526  25829M 25857  26792M 26802U 26967U 27826M 27937  28717M 28746  29033M 29058
             29217M 29243  29321M 29435  29696M 29724  30248M 30274  30757M 30759  30779  30805M 30857  30999M 31051
             31108M 31205M 31326  32830M 32855  32989M 33009  33080M 33107  33241M 33347  33483M 33503  33548M 33568
             33627M 33647  33705M 33725  33783M 33803  33892M 33912  34001M 34021  34072M 34092  34143M 34163  34208M
             34228  34274M 34294  34340M 34360  34406M 34426  34471M 34491  34594M 34614  34711M 34731  34811M 34831
             34876M 34896  34941M 34961  35007M 35027  35072M 35092  35143M 35163  35208M 35228  35280M 35300  35352M
             35372  35467M 35487  35582M 35602  35647M 35746  36053M 36078  36315M 36348  36415M 36418M 36420  36496M
             36528  36599M 36602M 36604  36707M 36865  37155M 37180  37308M 37335  37381M 37411  37472M 37492  37554M
             37657  37841M 37928  37974M 38025  38198M 38402  38626M 38640  38704M 38721M 38731U 38842U 38850M 38862M
             38871M 38871  38886U 38892M 38904U 38910M 39002  39785M
     5(5)     1005U 13769  15030M 15125  15538  15572U 15576M 15667U 15680M 15794  15887M 15912  16234M 16259  16783M
             16808  16994M 17019  17334M 17359  17602M 17627  17754M 17779  18001M 18026  18147M 18171  18231M 18257
             18372M 18412  18548M 18601  18714M 18785  18962M 19063  19172M 19192  19297M 19317  19391M 19410  19453M
             19473  19581M 19600  19643M 19663  19857M 19877  20025M 20045  20090M 20109  20154M 20174  20269M 20289
             20364M 20384  20445M 20465  20538M 20558  20612M 20637  20770M 20795  20863M 20932  21749M 21774  21808U
             22486U 22499M 22524  22639M 22699  23123M 23149  23398M 23426  23865M 24211  24448M 24526  25829M 25857
             26667M 26694M 27826M 27937  28717M 28746  29033M 29058  29217M 29243  29321M 29435  29696M 29724  30248M
             30274  30805M 30857  30883M 30949  30999M 31051  31132M 31205M 31326  32830M 32855  32989M 33009  33080M
             33107  33241M 33347  33483M 33503  33548M 33568  33627M 33647  33705M 33725  33783M 33803  33892M 33912
             34001M 34021  34072M 34092  34143M 34163  34208M 34228  34274M 34294  34340M 34360  34406M 34426  34471M
             34491  34594M 34614  34711M 34731  34811M 34831  34876M 34896  34941M 34961  35007M 35027  35072M 35092
             35143M 35163  35208M 35228  35280M 35300  35352M 35372  35467M 35487  35582M 35602  35647M 35746  36053M
             36078  36315M 36348  36496M 36528  36707M 36865  37155M 37180  37308M 37335  37381M 37411  37472M 37492
             37554M 37657  37841M 37928  37974M 38025  38198M 38402  38626M 38640  38664M 38673U 38704M 38850M 38910M
             38918U 39002  39785M
     6(6)     1001U 13769  15030M 15125  15538  15680M 15794  15887M 15912  16234M 16259  16783M 16808  16994M 17019
             17334M 17359  17602M 17627  17754M 17779  18001M 18026  18147M 18171  18231M 18257  18372M 18412  18548M
             18601  18714M 18785  18962M 19063  19172M 19192  19297M 19317  19391M 19410  19453M 19473  19581M 19600
             19643M 19663  19857M 19877  20025M 20045  20090M 20109  20154M 20174  20269M 20289  20364M 20384  20445M
             20465  20538M 20558  20612M 20637  20770M 20795  20863M 20932  21749M 21774  22499M 22524  22639M 22699
             23123M 23149  23398M 23426  23451M 23481  23513  23542U 23556  23609  23645  23681  23717  23753  23790
             23809  23819U 23840  23865M 24211  24448M 24526  25829M 25857  27826M 27937  28717M 28746  29033M 29058
             29217M 29243  29321M 29435  29696M 29724  30248M 30274  30805M 30857  30882M 30893U 30986U 30999M 31051
             31086M 31096U 31175  31187U 31205M 31326  32830M 32855  32989M 33009  33080M 33107  33241M 33347  33483M
             33503  33548M 33568  33627M 33647  33705M 33725  33783M 33803  33892M 33912  34001M 34021  34072M 34092
             34143M 34163  34208M 34228  34274M 34294  34340M 34360  34406M 34426  34471M 34491  34594M 34614  34711M
             34731  34811M 34831  34876M 34896  34941M 34961  35007M 35027  35072M 35092  35143M 35163  35208M 35228
             35280M 35300  35352M 35372  35467M 35487  35582M 35602  35647M 35746  36053M 36078  36315M 36348  36496M
             36528  36707M 36865  37155M 37180  37308M 37335  37381M 37411  37472M 37492  37554M 37657  37841M 37928
             37974M 38025  38198M 38402  38626M 38640  38704M 38850M 38910M 39002  39785M
     7(7)      997U 13769  15030M 15125  15538  15543M 15554U 15672U 15680M 15794  15800M 15811U 15879U 15887M 15912
             15917M 15928U 16226U 16234M 16259  16264M 16275U 16775U 16783M 16808  16813M 16824U 16986U 16994M 17019
             17024M 17035U 17326U 17334M 17359  17364M 17375U 17594U 17602M 17627  17632M 17643U 17746U 17754M 17779
             17784M 17795U 17993U 18001M 18026  18031M 18042U 18139U 18147M 18171  18176M 18187U 18223U 18231M 18257
1         (VMNT21) (09:48) (22MAR04) General Purpose Register Cross Reference                                               Page  244
             18262M 18273U 18364U 18372M 18412  18418M 18429U 18540U 18548M 18601  18607M 18618U 18706U 18714M 18785
             18790M 18801U 18954U 18962M 19063  19068M 19079U 19164U 19172M 19192  19197M 19208U 19289U 19297M 19317
             19322M 19333U 19383U 19391M 19410  19415M 19426U 19445U 19453M 19473  19478M 19489U 19573U 19581M 19600
             19605M 19616U 19635U 19643M 19663  19668M 19679U 19849U 19857M 19877  19882M 19893U 20017U 20025M 20045
             20050M 20061U 20082U 20090M 20109  20114M 20125U 20146U 20154M 20174  20179M 20190U 20261U 20269M 20289
             20294M 20305U 20356U 20364M 20384  20389M 20400U 20437U 20445M 20465  20470M 20481U 20530U 20538M 20558
             20563M 20574U 20604U 20612M 20637  20642M 20653U 20762U 20770M 20795  20800M 20811U 20855U 20863M 20932
             20937M 20948U 21741U 21749M 21774  21779M 21790U 22491U 22499M 22524  22529M 22540U 22631U 22639M 22699
             22704M 22715U 23115U 23123M 23149  23154M 23165U 23390U 23398M 23426  23431M 23442U 23857U 23865M 24211
             24216M 24227U 24440U 24448M 24526  24532M 24543U 25821U 25829M 25857  25863M 25874U 27818U 27826M 27937
             27943M 27954U 28709U 28717M 28746  28751M 28762U 29025U 29033M 29058  29063M 29074U 29209U 29217M 29243
             29248M 29259U 29313U 29321M 29435  29440M 29451U 29688U 29696M 29724  29729M 29740U 30240U 30248M 30274
             30279M 30290U 30797U 30805M 30857  30862M 30873U 30991U 30999M 31051  31057M 31068U 31197U 31205M 31326
             31331M 31342U 32668  32822U 32830M 32855  32860M 32871U 32981U 32989M 33009  33014M 33025U 33072U 33080M
             33107  33112M 33123U 33233U 33241M 33347  33352M 33363U 33475U 33483M 33503  33508M 33519U 33540U 33548M
             33568  33573M 33584U 33619U 33627M 33647  33652M 33663U 33697U 33705M 33725  33730M 33741U 33775U 33783M
             33803  33808M 33819U 33884U 33892M 33912  33917M 33928U 33993U 34001M 34021  34026M 34037U 34064U 34072M
             34092  34097M 34108U 34135U 34143M 34163  34168M 34179U 34200U 34208M 34228  34233M 34244U 34266U 34274M
             34294  34299M 34310U 34332U 34340M 34360  34365M 34376U 34398U 34406M 34426  34431M 34442U 34463U 34471M
             34491  34496M 34507U 34586U 34594M 34614  34619M 34630U 34703U 34711M 34731  34736M 34747U 34803U 34811M
             34831  34836M 34847U 34868U 34876M 34896  34901M 34912U 34933U 34941M 34961  34966M 34977U 34999U 35007M
             35027  35032M 35043U 35064U 35072M 35092  35097M 35108U 35135U 35143M 35163  35168M 35179U 35200U 35208M
             35228  35233M 35244U 35272U 35280M 35300  35305M 35316U 35344U 35352M 35372  35377M 35388U 35459U 35467M
             35487  35492M 35503U 35574U 35582M 35602  35607M 35618U 35639U 35647M 35746  35751M 35762U 36045U 36053M
             36078  36083M 36094U 36307U 36315M 36348  36353M 36364U 36488U 36496M 36528  36533M 36544U 36699U 36707M
             36865  36870M 36881U 37147U 37155M 37180  37185M 37196U 37300U 37308M 37335  37340M 37351U 37373U 37381M
             37411  37416M 37427U 37464U 37472M 37492  37497M 37508U 37546U 37554M 37657  37662M 37673U 37833U 37841M
             37916M 37925U 37928  37974M 38000U 38025  38026M 38034U 38198M 38206U 38402  38407M 38418U 38618U 38626M
             38640  38641M 38649U 38704M 38850M 38910M 38943U 39002  39003M 39011U 39785M 39815U
     8(8)      993U 13769  15030M 15125  15538  15539M 15676  15680M 15794  15796M 15825U 15874U 15883  15887M 15912
             15913M 16230  16234M 16259  16260M 16779  16783M 16808  16809M 16990  16994M 17019  17020M 17330  17334M
             17359  17360M 17598  17602M 17627  17628M 17750  17754M 17779  17780M 17997  18001M 18026  18027M 18143
             18147M 18171  18172M 18227  18231M 18257  18258M 18368  18372M 18412  18414M 18443U 18524N 18535U 18544
             18548M 18601  18603M 18632U 18689  18701U 18710  18714M 18785  18786M 18958  18962M 19063  19064M 19168
             19172M 19192  19193M 19293  19297M 19317  19318M 19387  19391M 19410  19411M 19449  19453M 19473  19474M
             19577  19581M 19600  19601M 19639  19643M 19663  19664M 19853  19857M 19877  19878M 20021  20025M 20045
             20046M 20086  20090M 20109  20110M 20150  20154M 20174  20175M 20265  20269M 20289  20290M 20360  20364M
             20384  20385M 20441  20445M 20465  20466M 20534  20538M 20558  20559M 20608  20612M 20637  20638M 20755N
             20766  20770M 20795  20796M 20859  20863M 20932  20933M 21745  21749M 21774  21775M 22495  22499M 22524
             22525M 22635  22639M 22699  22700M 23119  23123M 23149  23150M 23394  23398M 23426  23427M 23861  23865M
             24211  24212M 24444  24448M 24526  24528M 24557U 25816U 25825  25829M 25857  25859M 25888U 27813U 27822
             27826M 27937  27939M 27968U 28704U 28713  28717M 28746  28747M 29029  29033M 29058  29059M 29213  29217M
             29243  29244M 29317  29321M 29435  29436M 29692  29696M 29724  29725M 30244  30248M 30274  30275M 30801
             30805M 30857  30858M 30995  30999M 31051  31053M 31082U 31192U 31201  31205M 31326  31327M 32826  32830M
             32855  32856M 32985  32989M 33009  33010M 33076  33080M 33107  33108M 33237  33241M 33347  33348M 33479
             33483M 33503  33504M 33544  33548M 33568  33569M 33623  33627M 33647  33648M 33701  33705M 33725  33726M
             33779  33783M 33803  33804M 33888  33892M 33912  33913M 33997  34001M 34021  34022M 34068  34072M 34092
             34093M 34139  34143M 34163  34164M 34204  34208M 34228  34229M 34270  34274M 34294  34295M 34336  34340M
             34360  34361M 34402  34406M 34426  34427M 34467  34471M 34491  34492M 34590  34594M 34614  34615M 34707
             34711M 34731  34732M 34807  34811M 34831  34832M 34872  34876M 34896  34897M 34937  34941M 34961  34962M
             35003  35007M 35027  35028M 35068  35072M 35092  35093M 35139  35143M 35163  35164M 35204  35208M 35228
             35229M 35276  35280M 35300  35301M 35348  35352M 35372  35373M 35463  35467M 35487  35488M 35578  35582M
             35602  35603M 35643  35647M 35746  35747M 36049  36053M 36078  36079M 36311  36315M 36348  36349M 36492
             36496M 36528  36529M 36703  36707M 36865  36866M 37151  37155M 37180  37181M 37304  37308M 37335  37336M
             37362N 37377  37381M 37411  37412M 37468  37472M 37492  37493M 37550  37554M 37657  37658M 37837  37841M
             37928  37974M 38025  38198M 38402  38403M 38622  38626M 38640  38704M 38850M 38910M 39002  39785M
     9(9)      989U 13769  15030M 15125  15538  15680M 15794  15887M 15912  16234M 16259  16783M 16808  16994M 17019
             17334M 17359  17602M 17627  17754M 17779  18001M 18026  18147M 18171  18231M 18257  18372M 18412  18548M
             18601  18714M 18785  18962M 19063  19172M 19192  19297M 19317  19391M 19410  19453M 19473  19581M 19600
1         (VMNT21) (09:48) (22MAR04) General Purpose Register Cross Reference                                               Page  245
             19643M 19663  19857M 19877  20025M 20045  20090M 20109  20154M 20174  20269M 20289  20364M 20384  20445M
             20465  20538M 20558  20612M 20637  20770M 20795  20863M 20932  21749M 21774  22499M 22524  22639M 22699
             23123M 23149  23398M 23426  23865M 24211  24448M 24526  25829M 25857  27826M 27937  28717M 28746  29033M
             29058  29217M 29243  29321M 29435  29696M 29724  30248M 30274  30805M 30857  30999M 31051  31205M 31326
             32830M 32855  32989M 33009  33080M 33107  33241M 33347  33483M 33503  33548M 33568  33627M 33647  33705M
             33725  33783M 33803  33892M 33912  34001M 34021  34072M 34092  34143M 34163  34208M 34228  34274M 34294
             34340M 34360  34406M 34426  34471M 34491  34594M 34614  34711M 34731  34811M 34831  34876M 34896  34941M
             34961  35007M 35027  35072M 35092  35143M 35163  35208M 35228  35280M 35300  35352M 35372  35467M 35487
             35582M 35602  35647M 35746  36053M 36078  36315M 36348  36496M 36528  36707M 36865  37155M 37180  37308M
             37335  37381M 37411  37472M 37492  37554M 37657  37841M 37928  37974M 38025  38198M 38402  38626M 38640
             38704M 38850M 38910M 39002  39785M
    10(A)      985U 13769  15030M 15125  15538  15680M 15794  15887M 15912  16234M 16259  16783M 16808  16994M 17019
             17334M 17359  17602M 17627  17754M 17779  18001M 18026  18147M 18171  18231M 18257  18372M 18412  18548M
             18601  18714M 18785  18962M 19063  19172M 19192  19297M 19317  19391M 19410  19453M 19473  19581M 19600
             19643M 19663  19857M 19877  20025M 20045  20090M 20109  20154M 20174  20269M 20289  20364M 20384  20445M
             20465  20538M 20558  20612M 20637  20770M 20795  20863M 20932  21749M 21774  22499M 22524  22639M 22699
             23123M 23149  23398M 23426  23865M 24211  24236M 24246U 24435U 24448M 24526  24561M 24571U 25811U 25829M
             25857  25892M 25902U 27808U 27826M 27937  27972M 27982U 28699U 28717M 28746  28771M 28781U 29020U 29033M
             29058  29083M 29093U 29204U 29217M 29243  29268M 29278U 29308U 29321M 29435  29696M 29724  30248M 30274
             30805M 30857  30999M 31051  31205M 31326  32830M 32855  32989M 33009  33080M 33107  33241M 33347  33483M
             33503  33548M 33568  33627M 33647  33705M 33725  33783M 33803  33892M 33912  34001M 34021  34072M 34092
             34143M 34163  34208M 34228  34274M 34294  34340M 34360  34406M 34426  34471M 34491  34594M 34614  34711M
             34731  34811M 34831  34876M 34896  34941M 34961  35007M 35027  35072M 35092  35143M 35163  35208M 35228
             35280M 35300  35352M 35372  35467M 35487  35582M 35602  35647M 35746  36053M 36078  36315M 36348  36496M
             36528  36707M 36865  37155M 37180  37308M 37335  37381M 37411  37472M 37492  37554M 37657  37841M 37928
             37974M 38025  38198M 38402  38626M 38640  38704M 38850M 38910M 39002  39785M
    11(B)      981U 10827B 10828B 13769  13784M 13800U 15030M 15125  15538  15680M 15794  15887M 15912  16234M 16259
             16783M 16808  16994M 17019  17334M 17359  17602M 17627  17754M 17779  18001M 18026  18147M 18171  18231M
             18257  18372M 18412  18548M 18601  18714M 18785  18962M 19063  19172M 19192  19297M 19317  19391M 19410
             19453M 19473  19581M 19600  19643M 19663  19857M 19877  20025M 20045  20090M 20109  20154M 20174  20269M
             20289  20364M 20384  20445M 20465  20538M 20558  20612M 20637  20770M 20795  20863M 20932  21749M 21774
             22499M 22524  22639M 22699  23123M 23149  23398M 23426  23865M 24211  24448M 24526  25829M 25857  27826M
             27937  28717M 28746  29033M 29058  29217M 29243  29321M 29435  29696M 29724  30248M 30274  30805M 30857
             30999M 31051  31205M 31326  32830M 32855  32989M 33009  33080M 33107  33241M 33347  33483M 33503  33548M
             33568  33627M 33647  33705M 33725  33783M 33803  33892M 33912  34001M 34021  34072M 34092  34143M 34163
             34208M 34228  34274M 34294  34340M 34360  34406M 34426  34471M 34491  34594M 34614  34711M 34731  34811M
             34831  34876M 34896  34941M 34961  35007M 35027  35072M 35092  35143M 35163  35208M 35228  35280M 35300
             35352M 35372  35467M 35487  35582M 35602  35647M 35746  36053M 36078  36315M 36348  36496M 36528  36707M
             36865  37155M 37180  37308M 37335  37381M 37411  37472M 37492  37554M 37657  37841M 37928  37933M 37974M
             37989U 38025  38036M 38044U 38198M 38223U 38387U 38402  38626M 38640  38654M 38704M 38850M 38910M 38932U
             39002  39013M 39021U 39785M 39804U
    12(C)      977U 13769  13809U 15030M 15125  15538  15680M 15794  15887M 15912  15956M 16234M 16259  16303M 16783M
             16808  16833M 16994M 17019  17044M 17238M 17334M 17359  17602M 17627  17754M 17779  18001M 18026  18147M
             18171  18196M 18231M 18257  18372M 18412  18548M 18601  18714M 18785  18845  18962M 19063  19172M 19192
             19297M 19317  19391M 19410  19453M 19473  19581M 19600  19643M 19663  19857M 19877  20025M 20045  20090M
             20109  20154M 20174  20269M 20289  20364M 20384  20445M 20465  20538M 20558  20612M 20637  20770M 20795
             20863M 20932  21749M 21774  22499M 22524  22639M 22699  23123M 23149  23398M 23426  23865M 24211  24448M
             24526  24896M 25490M 25829M 25857  27377M 27826M 27937  28251M 28717M 28746  29033M 29058  29217M 29243
             29321M 29435  29696M 29724  30248M 30274  30805M 30857  30999M 31051  31205M 31326  32830M 32855  32989M
             33009  33080M 33107  33241M 33347  33483M 33503  33548M 33568  33627M 33647  33705M 33725  33783M 33803
             33892M 33912  34001M 34021  34072M 34092  34143M 34163  34208M 34228  34274M 34294  34340M 34360  34406M
             34426  34471M 34491  34594M 34614  34711M 34731  34811M 34831  34876M 34896  34941M 34961  35007M 35027
             35072M 35092  35143M 35163  35208M 35228  35280M 35300  35352M 35372  35467M 35487  35582M 35602  35647M
             35746  36053M 36078  36315M 36348  36496M 36528  36707M 36724U 36865  37155M 37180  37308M 37335  37381M
             37411  37472M 37492  37554M 37657  37841M 37928  37929M 37971  37974M 38025  38053U 38083M 38100M 38198M
             38218U 38402  38626M 38640  38704M 38850M 38910M 39002  39785M
    13(D)      973U 13812  13819M 13820  14695  14696M 14696  14864M 15027M 15125  15158  15159M 15159  15206M 15207
             15535  15538  15539  15540M 15540  15676M 15680  15682  15791  15794  15796  15797M 15797  15883M 15887
             15889  15909  15912  15913  15914M 15914  16230M 16234  16236  16256  16259  16260  16261M 16261  16779M
1         (VMNT21) (09:48) (22MAR04) General Purpose Register Cross Reference                                               Page  246
             16783  16785  16805  16808  16809  16810M 16810  16990M 16994  16996  17016  17019  17020  17021M 17021
             17330M 17334  17336  17356  17359  17360  17361M 17361  17598M 17602  17604  17624  17627  17628  17629M
             17629  17750M 17754  17756  17776  17779  17780  17781M 17781  17997M 18001  18003  18023  18026  18027
             18028M 18028  18143M 18147  18149  18168  18171  18172  18173M 18173  18227M 18231  18233  18254  18257
             18258  18259M 18259  18368M 18372  18374  18409  18412  18414  18415M 18415  18544M 18548  18550  18598
             18601  18603  18604M 18604  18710M 18714  18716  18782  18785  18786  18787M 18787  18958M 18962  18964
             19060  19063  19064  19065M 19065  19089  19090M 19090  19151M 19152  19168M 19172  19174  19189  19192
             19193  19194M 19194  19218  19219M 19219  19276M 19277  19293M 19297  19299  19314  19317  19318  19319M
             19319  19387M 19391  19393  19407  19410  19411  19412M 19412  19449M 19453  19455  19470  19473  19474
             19475M 19475  19544  19545M 19545  19552M 19553  19577M 19581  19583  19597  19600  19601  19602M 19602
             19639M 19643  19645  19660  19663  19664  19665M 19665  19700  19701M 19701  19837M 19838  19853M 19857
             19859  19874  19877  19878  19879M 19879  19914  19915M 19915  20005M 20006  20021M 20025  20027  20042
             20045  20046  20047M 20047  20086M 20090  20092  20106  20109  20110  20111M 20111  20150M 20154  20156
             20171  20174  20175  20176M 20176  20265M 20269  20271  20286  20289  20290  20291M 20291  20360M 20364
             20366  20381  20384  20385  20386M 20386  20441M 20445  20447  20462  20465  20466  20467M 20467  20534M
             20538  20540  20555  20558  20559  20560M 20560  20608M 20612  20614  20634  20637  20638  20639M 20639
             20766M 20770  20772  20792  20795  20796  20797M 20797  20859M 20863  20865  20929  20932  20933  20934M
             20934  21745M 21749  21751  21771  21774  21775  21776M 21776  22495M 22499  22501  22521  22524  22525
             22526M 22526  22635M 22639  22641  22696  22699  22700  22701M 22701  23119M 23123  23125  23146  23149
             23150  23151M 23151  23394M 23398  23400  23423  23426  23427  23428M 23428  23861M 23865  23867  24208
             24211  24212  24213M 24213  24444M 24448  24450  24523  24526  24528  24529M 24529  25825M 25829  25831
             25854  25857  25859  25860M 25860  27822M 27826  27828  27934  27937  27939  27940M 27940  28713M 28717
             28719  28743  28746  28747  28748M 28748  29029M 29033  29035  29055  29058  29059  29060M 29060  29213M
             29217  29219  29240  29243  29244  29245M 29245  29317M 29321  29323  29432  29435  29436  29437M 29437
             29692M 29696  29698  29721  29724  29725  29726M 29726  30244M 30248  30250  30271  30274  30275  30276M
             30276  30757  30758M 30758  30779M 30801M 30805  30807  30854  30857  30858  30859M 30859  30995M 30999
             31001  31048  31051  31053  31054M 31054  31201M 31205  31207  31323  31326  31327  31328M 31328  32826M
             32830  32832  32852  32855  32856  32857M 32857  32985M 32989  32991  33006  33009  33010  33011M 33011
             33076M 33080  33082  33104  33107  33108  33109M 33109  33237M 33241  33243  33344  33347  33348  33349M
             33349  33479M 33483  33485  33500  33503  33504  33505M 33505  33544M 33548  33550  33565  33568  33569
             33570M 33570  33623M 33627  33629  33644  33647  33648  33649M 33649  33701M 33705  33707  33722  33725
             33726  33727M 33727  33779M 33783  33785  33800  33803  33804  33805M 33805  33888M 33892  33894  33909
             33912  33913  33914M 33914  33997M 34001  34003  34018  34021  34022  34023M 34023  34068M 34072  34074
             34089  34092  34093  34094M 34094  34139M 34143  34145  34160  34163  34164  34165M 34165  34204M 34208
             34210  34225  34228  34229  34230M 34230  34270M 34274  34276  34291  34294  34295  34296M 34296  34336M
             34340  34342  34357  34360  34361  34362M 34362  34402M 34406  34408  34423  34426  34427  34428M 34428
             34467M 34471  34473  34488  34491  34492  34493M 34493  34590M 34594  34596  34611  34614  34615  34616M
             34616  34707M 34711  34713  34728  34731  34732  34733M 34733  34807M 34811  34813  34828  34831  34832
             34833M 34833  34872M 34876  34878  34893  34896  34897  34898M 34898  34937M 34941  34943  34958  34961
             34962  34963M 34963  35003M 35007  35009  35024  35027  35028  35029M 35029  35068M 35072  35074  35089
             35092  35093  35094M 35094  35139M 35143  35145  35160  35163  35164  35165M 35165  35204M 35208  35210
             35225  35228  35229  35230M 35230  35276M 35280  35282  35297  35300  35301  35302M 35302  35348M 35352
             35354  35369  35372  35373  35374M 35374  35463M 35467  35469  35484  35487  35488  35489M 35489  35578M
             35582  35584  35599  35602  35603  35604M 35604  35643M 35647  35649  35743  35746  35747  35748M 35748
             36049M 36053  36055  36075  36078  36079  36080M 36080  36311M 36315  36317  36345  36348  36349  36350M
             36350  36374  36375M 36375  36377  36378M 36378  36413M 36414  36475M 36476  36492M 36496  36498  36525
             36528  36529  36530M 36530  36554  36555M 36555  36557  36558M 36558  36597M 36598  36681M 36682  36703M
             36707  36709  36862  36865  36866  36867M 36867  37151M 37155  37157  37177  37180  37181  37182M 37182
             37304M 37308  37310  37332  37335  37336  37337M 37337  37377M 37381  37383  37408  37411  37412  37413M
             37413  37468M 37472  37474  37489  37492  37493  37494M 37494  37550M 37554  37556  37654  37657  37658
             37659M 37659  37837M 37841  37843  37930  37931M 37964M 37974  38055  38056M 38173M 38399  38402  38403
             38404M 38404  38622M 38626  38628  38651  38652M 38703M 38848M 38908M 39028  39029M 39776M 39777  39783M
    14(E)      969U 13769  13827M 13828M 13828B 13853M 13854M 13854B 13877M 13878M 13878B 13894M 13895M 13895B 13918M
             13919M 13919B 13922M 13923M 13923B 13972M 13973M 13973B 13989M 13990M 13990B 13994M 14016M 14017M 14017B
             14033M 14034M 14034B 14054M 14055M 14055B 14078M 14079M 14079B 14101M 14102M 14102B 14125M 14126M 14126B
             14181M 14182M 14182B 14185M 14186M 14186B 14189M 14190M 14190B 14193M 14194M 14194B 14235M 14236M 14236B
             14254M 14255M 14255B 14258M 14259M 14259B 14262M 14263M 14263B 14347M 14348M 14348B 14364M 14365M 14365B
             14379M 14380M 14380B 14417M 14418M 14418B 14453M 14454M 14454B 14483M 14484M 14484B 14512M 14513M 14513B
             14557M 14558M 14558B 14568M 14569M 14569B 14602M 14603M 14603B 14626M 14627M 14627B 14733M 14734M 14734N
