1                        J E S 2  J O B  L O G  --  S Y S T E M  S Y S B  --  N O D E  R L G
0
 13.11.07 JOB04051 ---- MONDAY,    15 MAR 2004 ----
 13.11.07 JOB04051  ICH70001I GG$SLP   LAST ACCESS AT 13:01:26 ON MONDAY, MARCH 15, 2004
 13.11.07 JOB04051  $HASP373 AMY#ASM  STARTED - INIT 2    - CLASS E - SYS SYSB
 13.11.07 JOB04051  AMY#ASM .CND     .         RC=Zero TapeIO=0000 DiskIO=0000 CPU=  .01s Elapsed=67.79s
 13.11.30 JOB04051  AMY#ASM .ASM     .         RC=Zero TapeIO=0000 DiskIO=1653 CPU=17.88s Elapsed=67.91s
 13.11.34 JOB04051  AMY#ASM .EDIT    .         RC=Zero TapeIO=0000 DiskIO=0979 CPU= 2.99s Elapsed=90.36s
 13.11.35 JOB04051  AMY#ASM .LINK    .         RC=Zero TapeIO=0000 DiskIO=0036 CPU=  .18s Elapsed=94.80s
 13.11.35 JOB04051  AMY#ASM .COPY    .         RC=Zero TapeIO=0000 DiskIO=0011 CPU=  .09s Elapsed=95.30s
 13.11.35 JOB04051  AMY#ASM  Ended.  Name=Amelia                         Total CPU=21.15s Elapsed=67.79s
 13.11.35 JOB04051
 13.11.35 JOB04051  Execution charges   Priority=Standard   Block=Day
 13.11.35 JOB04051
 13.11.35 JOB04051  CPU Usage         392.43         $243.30   Standard Processing Unit Equivalent
 13.11.35 JOB04051                                   =======
 13.11.35 JOB04051                                   $243.30   Total Job execution charge
 13.11.35 JOB04051
 13.11.35 JOB04051  See back separator page for print charges
 13.11.35 JOB04051
 13.11.35 JOB04051  $HASP395 AMY#ASM  ENDED  CND=0, ASM=0, EDIT=0, LINK=0, COPY=0
1        1 //AMY#ASM JOB SLP$GG,'Amelia',TIME=1                                    JOB04051
           /*JOBPARM LINES=999,F=GBAR
           //*
           /*JOBPARM NOTIFY=GG.SLP,HOLD=OUTPUT                                     WYLGEN
         2 //CND    EXEC  PGM=BILBO,REGION=512K,PARM='RECS=450'
         3 //SYSPRINT DD  SYSOUT=$
         4 //SYSUT1   DD  DSN=WYL.GS.MIL.TESTAMY.LINKLIB,DISP=OLD
         5 //SYSUT2   DD  DSN=WYL.GS.MIL.TESTAMY.LINKLIB,DISP=OLD
         6 //SYSIN    DD  DUMMY
           //*
           //*
         7 //ASM    EXEC PGM=ASMA90,REGION=8M,
           //            PARM=('NORENT,TERM,FLAG(NOCONT),US(MAP,WARN(10)),NODECK',
           //            'LC(32767),XREF(SHORT),ESD,DXREF,OBJECT')
         8 //STEPLIB DD DSN=SYS3.IS.TESTASM,DISP=SHR
         9 //SYSLIB   DD  DSN=SYS3.IS.MACLIB,DISP=SHR
        10 //         DD  DSN=WYL.GG.SYS.VSCN.MACLIB,DISP=SHR
        11 //         DD  DSN=WYL.GG.SYS.MACLIB,DISP=SHR
        12 //         DD  DSN=SYS3.MACLIB,DISP=SHR
        13 //         DD  DSN=SYS1.MACLIB,DISP=SHR
        14 //SYSUT1   DD DSN=&&SYSUT1,UNIT=VIO,DISP=(,DELETE),
           //            SPACE=(4088,(500,250),,CONTIG,ROUND)
        15 //SYSTERM  DD SYSOUT=T
        16 //SYSPRINT DD DSN=&&PRINT,UNIT=SYSDA,DISP=(,PASS),
           //            SPACE=(6650,(250,250),RLSE),
           //            DCB=(BLKSIZE=6650,LRECL=133,RECFM=FB)
        17 //SYSLIN   DD DSN=WYL.GS.MIL.TESTAMY.OBJECT,DISP=OLD
        18 //SYSUDUMP DD SYSOUT=A
        19 //SYSIN    DD  *
           //*
        20 //EDIT    EXEC PGM=ASMEDIT,TIME=2,REGION=4000K,
           //             PARM='STMT'
        21 //STEPLIB  DD  DSN=WYL.GG.SYS.LINKLIB,DISP=SHR
        22 //ASMOUT   DD  DSN=&PRINT,DISP=(OLD,DELETE)
        23 //SYSPRINT DD  SYSOUT=A
           //*
        24 //LINK    EXEC  PGM=HEWL,PARM='DCBS,NCAL,LET,MAP'
        25 //SYSPRINT DD  SYSOUT=A
        26 //SYSUT1   DD  UNIT=VIO,SPACE=(1024,(100,100))
        27 //SYSLMOD  DD  UNIT=SYSDA,DISP=(,PASS),SPACE=(CYL,(5,5,10)),
           //             DCB=WYL.GS.MIL.AMELIA.BLINKLIB
        28 //SCANOBJ DD DSN=WYL.GG.SYS.VSCN.OBJECT,DISP=SHR
        29 //OBJECT   DD  DSN=WYL.GS.MIL.TESTAMY.OBJECT,DISP=SHR
        30 //SYSLIN   DD  *
           //*
        31 //COPY    EXEC  PGM=IEBCOPY,COND=(4,LT,LINK)
        32 //SYSPRINT DD  SYSOUT=A
        33 //IN       DD  DSN=*.LINK.SYSLMOD,DISP=(OLD,DELETE)
        34 //OUT      DD  DSN=WYL.GS.MIL.TESTAMY.LINKLIB,DISP=SHR
        35 //SYSIN    DD  *
1 STMT NO. MESSAGE
 -
        14 IGD01010I STORCLAS= TEMP STORGROUP =
        14 IGD01010I STORGRP=VIO ASSIGNED.
        16 IGD01010I STORCLAS= TEMP STORGROUP =
        16 IGD01010I STORGRP=VIO ASSIGNED.
        26 IGD01010I STORCLAS= TEMP STORGROUP =
        26 IGD01010I STORGRP=VIO ASSIGNED.
        27 IGD01010I STORCLAS= TEMP STORGROUP =
        27 IGD01010I STORGRP=VIO ASSIGNED.
 ICH70001I GG$SLP   LAST ACCESS AT 13:01:26 ON MONDAY, MARCH 15, 2004
 IEF236I ALLOC. FOR AMY#ASM CND
 IEF237I JES2 ALLOCATED TO SYSPRINT
 IEF237I 04DC ALLOCATED TO SYSUT1
 IEF237I 04DC ALLOCATED TO SYSUT2
 IEF237I DMY  ALLOCATED TO SYSIN
 IEF142I AMY#ASM CND - STEP WAS EXECUTED - COND CODE 0000
 IEF285I   GG$SLP.AMY#ASM.JOB04051.D0000104.?           SYSOUT
 IEF285I   WYL.GS.MIL.TESTAMY.LINKLIB                   KEPT
 IEF285I   VOL SER NOS= SYSB05.
 IEF285I   WYL.GS.MIL.TESTAMY.LINKLIB                   KEPT
 IEF285I   VOL SER NOS= SYSB05.
 *********************************************************************************
 *   AMY#ASM /CND     /                    Return Code      Zero                 *
 *   Region used      284K (16K user + 268K system)                              *
 *   Extended region  9484K (4K user + 9480K system)                             *
 *                                                                               *
 *   Paging              In      Out                                             *
 *   Private <-> Aux      0        0       CPU time (TCB)   00:00:00.01          *
 *   Private <-> Exp      0        0       CPU time (SRB)   00:00:00.00          *
 *   VIO                  0        0       Elapsed time    917:16:45.17          *
 *   Common               0      ---                                             *
 *                                                                               *
 *                                                                               *
 *   CPU Usage          0.18         $0.11  Standard Processing Unit Equivalent  *
 *                                   $0.11  Total Step execution charge          *
 *                                                                               *
 *    I/O count  DDname   Type Addr           I/O count  DDname   Type Addr      *
 *            0  SYSPRINT      ----                   0  SYSUT1   Disk 04DC      *
 *            0  SYSUT2   Disk 04DC                   0  SYSIN         ----      *
 *********************************************************************************
 IEF373I STEP/CND     /START 2004075.1311
 IEF374I STEP/CND     /STOP  2004075.1311 CPU    0MIN 00.01SEC SRB    0MIN 00.00SEC VIRT    16K SYS   268K EXT       4K SYS    9480K
 IEF236I ALLOC. FOR AMY#ASM ASM
 IEF237I 04DC ALLOCATED TO STEPLIB
 IEF237I 04DC ALLOCATED TO SYSLIB
 IEF237I 04DC ALLOCATED TO
 IEF237I 04DC ALLOCATED TO
 IEF237I 0402 ALLOCATED TO
 IEF237I 04A0 ALLOCATED TO
 IGD101I SMS ALLOCATED TO DDNAME (SYSUT1  )
         DSN (SYS04075.T131107.RA000.AMY#ASM.SYSUT1.H01   )
         STORCLAS (TEMP) MGMTCLAS (        ) DATACLAS (        )
         VOL SER NOS= VIO
 IEF237I JES2 ALLOCATED TO SYSTERM
 IGD101I SMS ALLOCATED TO DDNAME (SYSPRINT)
         DSN (SYS04075.T131107.RA000.AMY#ASM.PRINT.H01    )
         STORCLAS (TEMP) MGMTCLAS (        ) DATACLAS (        )
         VOL SER NOS= SCR101
 IEF237I 04DC ALLOCATED TO SYSLIN
 IEF237I JES2 ALLOCATED TO SYSUDUMP
 IEF237I JES2 ALLOCATED TO SYSIN
 IEF142I AMY#ASM ASM - STEP WAS EXECUTED - COND CODE 0000
 IEF285I   SYS3.IS.TESTASM                              KEPT
 IEF285I   VOL SER NOS= SYSB05.
 IEF285I   SYS3.IS.MACLIB                               KEPT
 IEF285I   VOL SER NOS= SYSB05.
 IEF285I   WYL.GG.SYS.VSCN.MACLIB                       KEPT
 IEF285I   VOL SER NOS= SYSB05.
 IEF285I   WYL.GG.SYS.MACLIB                            KEPT
 IEF285I   VOL SER NOS= SYSB05.
 IEF285I   SYS3.MACLIB                                  KEPT
 IEF285I   VOL SER NOS= SYSB02.
 IEF285I   SYS1.MACLIB                                  KEPT
 IEF285I   VOL SER NOS= MVSBR9.
 IGD105I SYS04075.T131107.RA000.AMY#ASM.SYSUT1.H01    DELETED,   DDNAME=SYSUT1
 IEF285I   GG$SLP.AMY#ASM.JOB04051.D0000105.?           SYSOUT
 IGD106I SYS04075.T131107.RA000.AMY#ASM.PRINT.H01     PASSED,    DDNAME=SYSPRINT
 IEF285I   WYL.GS.MIL.TESTAMY.OBJECT                    KEPT
 IEF285I   VOL SER NOS= SYSB05.
 IEF285I   GG$SLP.AMY#ASM.JOB04051.D0000106.?           SYSOUT
 IEF285I   GG$SLP.AMY#ASM.JOB04051.D0000101.?           SYSIN
 *********************************************************************************
 *   AMY#ASM /ASM     /                    Return Code      Zero                 *
 *   Region used      8480K (8192K user + 288K system)                           *
 *   Extended region  10112K (412K user + 9700K system)                          *
 *                                                                               *
 *   Paging              In      Out                                             *
 *   Private <-> Aux      0        0       CPU time (TCB)   00:00:17.76          *
 *   Private <-> Exp      0        0       CPU time (SRB)   00:00:00.12          *
 *   VIO                  0        0       Elapsed time    917:16:45.05          *
 *   Common               0      ---                                             *
 *                                                                               *
 *                                                                               *
 *   CPU Usage        333.00       $206.46  Standard Processing Unit Equivalent  *
 *                                 $206.46  Total Step execution charge          *
 *                                                                               *
 *    I/O count  DDname   Type Addr           I/O count  DDname   Type Addr      *
 *           98  STEPLIB  Disk 04DC                 206  SYSLIB   Disk 04DC      *
 *            0  SYSLIB   Disk 04DC                   0  SYSLIB   Disk 04DC      *
 *           16  SYSLIB   Disk 0402                 352  SYSLIB   Disk 04A0      *
 *        2,202  SYSUT1   VIO  ----                   0  SYSTERM       ----      *
 *          976  SYSPRINT Disk 04E3                   5  SYSLIN   Disk 04DC      *
 *            0  SYSUDUMP      ----                   0  SYSIN         ----      *
 *********************************************************************************
 IEF373I STEP/ASM     /START 2004075.1311
 IEF374I STEP/ASM     /STOP  2004075.1311 CPU    0MIN 17.76SEC SRB    0MIN 00.12SEC VIRT  8192K SYS   288K EXT     412K SYS    9700K
 IEF236I ALLOC. FOR AMY#ASM EDIT
 IEF237I 0402 ALLOCATED TO STEPLIB
 IGD103I SMS ALLOCATED TO DDNAME ASMOUT
 IEF237I JES2 ALLOCATED TO SYSPRINT
 IEF142I AMY#ASM EDIT - STEP WAS EXECUTED - COND CODE 0000
 IEF285I   WYL.GG.SYS.LINKLIB                           KEPT
 IEF285I   VOL SER NOS= SYSB02.
 IGD105I SYS04075.T131107.RA000.AMY#ASM.PRINT.H01     DELETED,   DDNAME=ASMOUT
 IEF285I   GG$SLP.AMY#ASM.JOB04051.D0000107.?           SYSOUT
 *********************************************************************************
 *   AMY#ASM /EDIT    /                    Return Code      Zero                 *
 *   Region used      388K (116K user + 272K system)                             *
 *   Extended region  9604K (4K user + 9600K system)                             *
 *                                                                               *
 *   Paging              In      Out                                             *
 *   Private <-> Aux      0        0       CPU time (TCB)   00:00:02.90          *
 *   Private <-> Exp      0        0       CPU time (SRB)   00:00:00.09          *
 *   VIO                  0        0       Elapsed time    917:16:22.60          *
 *   Common               0      ---                                             *
 *                                                                               *
 *                                                                               *
 *   CPU Usage         54.37        $33.70  Standard Processing Unit Equivalent  *
 *                                  $33.70  Total Step execution charge          *
 *                                                                               *
 *    I/O count  DDname   Type Addr           I/O count  DDname   Type Addr      *
 *            2  STEPLIB  Disk 0402                 977  ASMOUT   Disk 04E3      *
 *            0  SYSPRINT      ----                                              *
 *********************************************************************************
 IEF373I STEP/EDIT    /START 2004075.1311
 IEF374I STEP/EDIT    /STOP  2004075.1311 CPU    0MIN 02.90SEC SRB    0MIN 00.09SEC VIRT   116K SYS   272K EXT       4K SYS    9600K
 IEF236I ALLOC. FOR AMY#ASM LINK
 IEF237I JES2 ALLOCATED TO SYSPRINT
 IGD101I SMS ALLOCATED TO DDNAME (SYSUT1  )
         DSN (SYS04075.T131107.RA000.AMY#ASM.R0122569     )
         STORCLAS (TEMP) MGMTCLAS (        ) DATACLAS (        )
         VOL SER NOS= VIO
 IGD17360I RETENTION PERIOD OR EXPIRATION DATE IGNORED
 FOR TEMPORARY DATA SET SYS04075.T131107.RA000.AMY#ASM.R0122570
 IGD101I SMS ALLOCATED TO DDNAME (SYSLMOD )
         DSN (SYS04075.T131107.RA000.AMY#ASM.R0122570     )
         STORCLAS (TEMP) MGMTCLAS (        ) DATACLAS (        )
         VOL SER NOS= SCR101
 IEF237I 04DC ALLOCATED TO SCANOBJ
 IEF237I 04DC ALLOCATED TO OBJECT
 IEF237I JES2 ALLOCATED TO SYSLIN
 IEF142I AMY#ASM LINK - STEP WAS EXECUTED - COND CODE 0000
 IEF285I   GG$SLP.AMY#ASM.JOB04051.D0000108.?           SYSOUT
 IGD105I SYS04075.T131107.RA000.AMY#ASM.R0122569      DELETED,   DDNAME=SYSUT1
 IGD106I SYS04075.T131107.RA000.AMY#ASM.R0122570      PASSED,    DDNAME=SYSLMOD
 IEF285I   WYL.GG.SYS.VSCN.OBJECT                       KEPT
 IEF285I   VOL SER NOS= SYSB05.
 IEF285I   WYL.GS.MIL.TESTAMY.OBJECT                    KEPT
 IEF285I   VOL SER NOS= SYSB05.
 IEF285I   GG$SLP.AMY#ASM.JOB04051.D0000102.?           SYSIN
 *********************************************************************************
 *   AMY#ASM /LINK    /                    Return Code      Zero                 *
 *   Region used      504K (224K user + 280K system)                             *
 *   Extended region  10904K (1316K user + 9588K system)                         *
 *                                         Dataspace used   2K                   *
 *   Paging              In      Out                                             *
 *   Private <-> Aux      0        0       CPU time (TCB)   00:00:00.18          *
 *   Private <-> Exp      0        0       CPU time (SRB)   00:00:00.00          *
 *   VIO                  0        0       Elapsed time    917:16:18.16          *
 *   Common               2      ---                                             *
 *                                                                               *
 *                                                                               *
 *   CPU Usage          3.37         $2.08  Standard Processing Unit Equivalent  *
 *                                   $2.08  Total Step execution charge          *
 *                                                                               *
 *    I/O count  DDname   Type Addr           I/O count  DDname   Type Addr      *
 *            0  SYSPRINT      ----                   0  SYSUT1   VIO  ----      *
 *           25  SYSLMOD  Disk 04E3                   5  SCANOBJ  Disk 04DC      *
 *            6  OBJECT   Disk 04DC                   0  SYSLIN        ----      *
 *********************************************************************************
 IEF373I STEP/LINK    /START 2004075.1311
 IEF374I STEP/LINK    /STOP  2004075.1311 CPU    0MIN 00.18SEC SRB    0MIN 00.00SEC VIRT   224K SYS   280K EXT    1316K SYS    9588K
 IEF236I ALLOC. FOR AMY#ASM COPY
 IEF237I JES2 ALLOCATED TO SYSPRINT
 IGD103I SMS ALLOCATED TO DDNAME IN
 IEF237I 04DC ALLOCATED TO OUT
 IEF237I JES2 ALLOCATED TO SYSIN
 IEF142I AMY#ASM COPY - STEP WAS EXECUTED - COND CODE 0000
 IEF285I   GG$SLP.AMY#ASM.JOB04051.D0000109.?           SYSOUT
 IGD105I SYS04075.T131107.RA000.AMY#ASM.R0122570      DELETED,   DDNAME=IN
 IEF285I   WYL.GS.MIL.TESTAMY.LINKLIB                   KEPT
 IEF285I   VOL SER NOS= SYSB05.
 IEF285I   GG$SLP.AMY#ASM.JOB04051.D0000103.?           SYSIN
 *********************************************************************************
 *   AMY#ASM /COPY    /                    Return Code      Zero                 *
 *   Region used      1264K (1000K user + 264K system)                           *
 *   Extended region  9592K (4K user + 9588K system)                             *
 *                                                                               *
 *   Paging              In      Out                                             *
 *   Private <-> Aux      0        0       CPU time (TCB)   00:00:00.08          *
 *   Private <-> Exp      0        0       CPU time (SRB)   00:00:00.01          *
 *   VIO                  0        0       Elapsed time    917:16:17.66          *
 *   Common               0      ---                                             *
 *                                                                               *
 *                                                                               *
 *   CPU Usage          1.50         $0.93  Standard Processing Unit Equivalent  *
 *                                   $0.93  Total Step execution charge          *
 *                                                                               *
 *    I/O count  DDname   Type Addr           I/O count  DDname   Type Addr      *
 *            0  SYSPRINT      ----                   2  IN       Disk 04E3      *
 *            9  OUT      Disk 04DC                   0  SYSIN         ----      *
 *********************************************************************************
 IEF373I STEP/COPY    /START 2004075.1311
 IEF374I STEP/COPY    /STOP  2004075.1311 CPU    0MIN 00.08SEC SRB    0MIN 00.01SEC VIRT  1000K SYS   264K EXT       4K SYS    9588K
 *********************************************************************************
 *                                                                               *
 *                      S t a n f o r d   U n i v e r s i t y                    *
 *                                                                               *
 *                              *** Job Summary ***                              *
 *                                                                               *
 *   System Id      SYSB                   Input time     13:11:07  Mar 15, 2004 *
 *                                                                               *
 *   System Release SP6.1.0                Start time     13:11:07  Mar 15, 2004 *
 *                                                                               *
 *   Job name       AMY#ASM                Stop  time     00:00:00  Mar 15, 2004 *
 *                                                                               *
 *   Account        SLP$GG                 Elapsed time  917:16:45.17            *
 *                                                                               *
 *   User Name      Amelia                 CPU time       00:00:20.93            *
 *                                                                               *
 *   Job class      E                      SRB Time       00:00:00.22            *
 *                                                                               *
 *********************************************************************************
 IEF375I  JOB/AMY#ASM /START 2004075.1311
 IEF376I  JOB/AMY#ASM /STOP  2004075.1311 CPU    0MIN 20.93SEC SRB    0MIN 00.22SEC
1Assembler Done AMELIA No Statements Flagged
1         High Level Assembler Option Summary                   (PTF P72483 )                                               Page    1
-                                                                                            HLASM R4.0  2004/03/15 13.11
0  No Overriding ASMAOPT Parameters
   Overriding Parameters-  NORENT,TERM,FLAG(NOCONT),US(MAP,WARN(10)),NODECK,LC(32767),XREF(SHORT),ESD,DXREF,OBJECT
   No Process Statements


   Options for this Assembly
0  NOADATA
     ALIGN
   NOASA
     BATCH
     CODEPAGE(047C)
   NOCOMPAT
   NODBCS
 3 NODECK
 3   DXREF
 3   ESD
   NOEXIT
 3   FLAG(0,ALIGN,NOCONT,NOIMPLEN,NOPAGE0,PUSH,RECORD,NOSUBSTR,USING0)
   NOFOLD
   NOGOFF
   NOINFO
     LANGUAGE(EN)
   NOLIBMAC
 3   LINECOUNT(32767)
     LIST(121)
     MXREF(SOURCE)
 3   OBJECT
     OPTABLE(UNI,NOLIST)
   NOPCONTROL
   NOPESTOP
   NOPROFILE
   NORA2
 3 NORENT
     RLD
     RXREF
     SIZE(MAX)
     SYSPARM()
 3   TERM(WIDE)
   NOTEST
     THREAD
   NOTRANSLATE
 3   USING(NOLIMIT,MAP,WARN(10))
 3   XREF(SHORT)

   No Overriding DD Names

1AMELIA   External Symbol Dictionary                                                                                        Page    2
-Symbol   Type   Id     Address  Length     LD ID  Flags Alias-of                            HLASM R4.0  2004/03/15 13.11
0AMELIA    SD 00000001 00000000 0001041A             00
 STARTUP   LD          000009F8           00000001
 FMTXDATE  ER 00000002
 SCINIT    ER 00000003
 SCAN      ER 00000004
 BTD       ER 00000005
 XTB       ER 00000006
 DTB       ER 00000007
 HEXSEG    ER 00000008
 BTX       ER 00000009
 HEXSEG    LD          0000C888           00000001
 PATHINFO  LD          0000D534           00000001
 RTRIM     LD          0000EEFC           00000001
 LRTRIM    LD          0000EF36           00000001
 DTB       LD          0000EF88           00000001
 XTB       LD          0000EFD6           00000001
 BTD       LD          0000F03C           00000001
 BTX       LD          0000F0B8           00000001
 BTR       LD          0000F124           00000001
 FMTXDATE  LD          0000F2B4           00000001
 FMTCLCK   LD          0000F41A           00000001
 FMTRCLCK  LD          0000F472           00000001
 FMTTIME   LD          0000F4EA           00000001
 FMTDATE   LD          0000F55C           00000001
 FMTDAY    LD          0000F622           00000001
 FMTJUL    LD          0000F6EA           00000001
 TIMEDATE  LD          0000F734           00000001
 DATE      LD          0000F7B0           00000001
 TIME      LD          0000F886           00000001
 BTR       ER 0000000A
 DEQUOTE   LD          0000FB06           00000001
 DEQSTR    LD          0000FB0A           00000001
 SEGINIT   LD          0000FB80           00000001
 SEGB      LD          0000FBBA           00000001
 SEGTB     LD          0000FC02           00000001
 SEGCR     LD          0000FC4A           00000001
 SEGWR     LD          0000FC9A           00000001
 SEGT      LD          0000FCFE           00000001
 SEG       LD          0000FD60           00000001
 SEGCOL    LD          0000FE8C           00000001
 SEGBLANK  LD          0000FEE2           00000001
 SEGCLR    LD          0000FF46           00000001
 SEGMARK   LD          0000FF96           00000001
 SEGDC     LD          0000FF9E           00000001
 SEGHX     LD          0000FFEE           00000001
 VERSION   SD 0000000B 00010420 00000050             00

1AMELIA   Network Interface Server                                                                                          Page    3
0Loc    Object Code    Addr1 Addr2  Stmt Lv Lineno    Source Statement                    (Asmedit 3.3)  HLASM R4.0  2004/03/15 13.11
+___    ______ ____    _____ _____  ____ __ ______    ______ _________
0                                      2              ***
                                       3              ***
                                       4              ***  AMELIA  --  NETWORK ACCESS SERVER
                                       5              ***
                                       6              ***
                                       7              ***  This program runs as a separate task that OPENs the Spartacus
                                       8              ***  devices.  This program also opens Suzan paths allowing
                                       9              ***  other programs to read/write ethernet packets.
                                      10              ***
                                      11              ***  The stack conventions and some utility routines (such as SEG)
                                      12              ***  were borrowed from WYLBUR.
                                      13              ***
                                      14              ***  Written 11/86, Niz
                                      15              ***
                                      16              ***
                                      17              ***  Note:  The Spartacus K-200's "set link mode" channel command
                                      18              ***         opcode (x'2B') confuses the EXCP channel program
                                      19              ***         translation, so we use EXCPVR.  This means that this
                                      20              ***         program has to be authorized and has to page fix its
                                      21              ***         data areas.
                                      22              ***
                                      23              ***
                                      24              ***  Modifications:
                                      25              ***
                                      26              ***    05/01/87  Niz  Add minimal IP packet support.
                                      27              ***    12/01/87  JWS  Add TCP support and mini command processor.
                                      28              ***    07/15/89  jws  New host table and MX support
                                      29              ***    07/27/89  jws  K200 IO changes, new timeout logic, misc changes
                                      30              ***    09/20/89  jws  Fix MONITOR BROAD/NOBROAD bug
                                      31              ***    10/06/89  jws  Fix retransmit/timeout bugs
                                      32              ***    11/12/89  Niz  Support writes to our host (software loopback)
                                      33              ***    12/05/89  jws  Add more info to IO error msg in log
                                      34              ***    01/05/90  jws  Save partner's privs from HASPSERV JOBACCT call
                                      35              ***    06/22/90  jws  Path tracing, ACK delay change, TIMEWAIT change
                                      36              ***    06/26/90  jws  Add ISU code for name server validity checking
                                      37              ***    06/29/90  jws  More TCP trace changes
                                      38              ***    08/14/90  jws  Fix TCP out-of-sequence packet bug
                                      39              ***    09/07/90  jws  Busy (looping?) session logging
                                      40              ***    09/18/90  jws  Abort connection if data received after TCP_CLOSE
                                      41              ***    10/18/90  jws  Fix TIMEWAIT bug, fix problem handling empty
                                      42              ***                   name lookup reply
                                      43              ***    10/24/90  jws  TCP_CLOSE time stamp, logic changes
                                      44              ***    12/27/90  jws  More trace info after IO error
                                      45              ***    01/25/90  jws  Timeout default changes
                                      46              ***    03/18/91  jws  ISU bug fix, default routing changes
                                      47              ***    10/25/91  jws  Fix closing connection path msg interlock
                                      48              ***    02/15/92  jws  Fix TCP_STOP bug
                                      49              ***    04/20/92  jws  Add validity checking to NETTRAIL,
                                      50              ***                    add closed window probe, idle timeout
                                      51              ***    05/01/92  jws  Fix LOOPREAD bug
                                      52              ***    05/27/92  jws  Retry failed write
                                      53              ***    07/03/92  jws  Change mailhost 'unknown host' lookup return
                                      54              ***    07/10/92  jws  Another mailhost change, NSM id fix, TCB q check
                                      55              ***    10/12/92  jws  CCW changes for K2000
                                      56              ***    12/15/92  jws  Add IP and TCBID hash tables
                                      57              ***    01/29/93  jws  Add TCBFUID check to SNDPATHQ
1AMELIA   Network Interface Server                                                                                          Page    4
0Loc    Object Code    Addr1 Addr2  Stmt Lv Lineno    Source Statement                    (Asmedit 3.3)  HLASM R4.0  2004/03/15 13.11
+___    ______ ____    _____ _____  ____ __ ______    ______ _________
0                                     58              ***    03/10/93  jws  Abort logging, packet format change, MAXSENDQ up
                                      59              ***    03/11/93  jws  MON NODATA -> TRUNCATE, count MAXSENDQ overflows
                                      60              ***    04/27/93  jws  Fix name server error loop
                                      61              ***    05/06/93  jws  Add domain name in host lookup
                                      62              ***    09/20/93  jws  Add HST table hash queue
                                      63              ***    10/18/93  jws  Fix LOOKUP bug
                                      64              ***    11/29/93  jws  Add TCP data length validity check
                                      65              ***    03/16/94  jws  Fix not recognizing lower case 'in-addr.arpa'
                                      66              ***                   Add MONPRIV
                                      67              ***    07/21/94  jws  Patch for 'xxx.best' host names
                                      68              ***    03/20/96  jws  Add GETBUF routine
                                      69              ***    07/23/98  mpd  Fixes for HLA
                                      70              ***    07/23/98  jws  MAXCONN increased
                                      71              ***    12/17/02  rlg  Change 'MSG' to 'SETMSG'
                                      72              ***
1AMELIA   Network Interface Server                                                                                          Page    5
0Loc    Object Code    Addr1 Addr2  Stmt Lv Lineno    Source Statement                    (Asmedit 3.3)  HLASM R4.0  2004/03/15 13.11
+___    ______ ____    _____ _____  ____ __ ______    ______ _________
0                                     74              AMELIA   HIBAL
                                    1058                       REGS  FSR,,,,,,,,TCBR,WAR,,BR,(NITR,LSR),SPR,RAR
                                    1168
                                    1169                       GBLC  &ZONE,&ALTZONE
                                    1170                       SYSDEFN ,
                                    1171              ******** PRINT OFF                 (System DSECTS follow)
                                    1172              *
                                    1173                       MACRO
                                    1174              &L       BTD   &LOC,&LEN,&WORD,&COMMAS=NO
                                    1175                       LCLC  &CM,&LQ
                                    1176              &LQ      SETC  'L'''
                                    1177                       AIF   ('&COMMAS' NE 'YES').NOCM
                                    1178              &CM      SETC  'C'
                                    1179              .NOCM    ANOP
                                    1180              &L      $L     R15,&WORD
                                    1181                      $LA    R0,&LEN,NULL=&LQ&LOC
                                    1182                      $LA    R1,&LOC
                                    1183                       VCALL BTD&CM
                                    1184                       MEND
                                    1185
                                    1186                       MACRO
                                    1187              &L       BTX   &LOC,&LEN,&WORD
                                    1188                       LCLC  &LQ
                                    1189              &LQ      SETC  'L'''
                                    1190              &L      $L     R15,&WORD
                                    1191                      $LA    R0,&LEN,NULL=&LQ&LOC
                                    1192                      $LA    R1,&LOC
                                    1193                       VCALL BTX
                                    1194                       MEND
                                    1195
                                    1196                       MACRO
                                    1197              &L       DTB   &STR,&LEN
                                    1198              &L       SETMSG &STR,&LEN
                                    1199                       VCALL DTB
                                    1200                       MEND
                                    1201
                                    1202                       MACRO
                                    1203              &L       XTB   &STR,&LEN
                                    1204              &L       SETMSG &STR,&LEN
                                    1205                       VCALL XTB
                                    1206                       MEND
                                    1207
                                    1208                       MACRO
                                    1209              &L       BTR   &LOC,&LEN,&WORD,&SW
                                    1210                       LCLC  &LQ
                                    1211              &LQ      SETC  'L'''
                                    1212              &L      $L     R15,&WORD
                                    1213                       AIF   (N'&LEN NE 2).S
                                    1214                      $LA    R0,&LEN(1)*256+&LEN(2),NULL=&LQ&LOC,TYPE=&SW
                                    1215                       AGO   .JOIN
                                    1216              .S      $LA    R0,&LEN,NULL=&LQ&LOC,TYPE=&SW
                                    1217              .JOIN   $LA    R1,&LOC
                                    1218                       VCALL BTR
                                    1219                       MEND
                                    1220
                                    1221                       MACRO
1AMELIA   Network Interface Server                                                                                          Page    6
0Loc    Object Code    Addr1 Addr2  Stmt Lv Lineno    Source Statement           (Hibal 5, Asmedit 3.3)  HLASM R4.0  2004/03/15 13.11
+___    ______ ____    _____ _____  ____ __ ______    ______ _________
0                                   1222              &L       SEG   &LOC,&LEN,&SEGCB,&SFX
                                    1223              &L       SETMSG &LOC,&LEN
                                    1224                       SEGLD &SEGCB
                                    1225                       ACALL SEG&SFX
                                    1226                       MEND
                                    1227
                                    1228                       MACRO
                                    1229              &L       SEGB  &LOC,&LEN,&SEGCB
                                    1230                       AIF   ('&LOC&LEN' NE '').SEG
                                    1231              &L       SEG   (R1),0,&SEGCB,B
                                    1232                       MEXIT
                                    1233              .SEG     ANOP
                                    1234              &L       SEG   &LOC,&LEN,&SEGCB,B
                                    1235                       MEND
                                    1236
                                    1237                       MACRO
                                    1238              &L       SEGBLANK &NUM,&SEGCB
                                    1239              &L      $LA    R0,&NUM
                                    1240                       SEGLD &SEGCB
                                    1241                       ACALL SEGBLANK
                                    1242                       MEND
                                    1243
                                    1244                       MACRO
                                    1245              &L       SEGCB &LLOC,&LLEN,&RTN=0
                                    1246                       GBLC  &$SEGCB
                                    1247              &LOC     SETC  '0'
                                    1248                       AIF   ('&LLOC' EQ '').NLOC
                                    1249              &LOC     SETC  '&LLOC'
                                    1250              .NLOC    ANOP
                                    1251              &LEN     SETC  '0'
                                    1252                       AIF   ('&LLOC' EQ '').NLL
                                    1253              &LEN     SETC  'L''&LLOC'
                                    1254              .NLL     AIF   ('&LLEN' EQ '').NLEN
                                    1255              &LEN     SETC  '&LLEN'
                                    1256              .NLEN    ANOP
                                    1257              &P       SETC  'SEGCB'
                                    1258                       AIF   ('&L' EQ '').NOPFX
                                    1259              &P       SETC  '&L'
                                    1260              .NOPFX   ANOP
                                    1261              &$SEGCB  SETC  '&P'
                                    1262              $$$SEGCB&SYSNDX DS 0F
                                    1263              &P.COD   FLAG  ,                   Option code
                                    1264                       FLAG  (&P.SEG,1,EQ)       - Seg
                                    1265                       FLAG  (&P.WR,2,EQ)        - Segwr
                                    1266                       FLAG  (&P.CLR,3,EQ)       - Segclr
                                    1267                       FLAG  (&P.SPP,4,EQ)       - Seg post processing
                                    1268                       FLAG  (&P.OVF,5,EQ)       - Buffer overflow
                                    1269                       FLAG  (&P.CR,6,EQ)        - Segcr
                                    1270                       FLAG  (&P.MAR,7,EQ)       - Segmark
                                    1271                       DC    X'00'               Reserved
                                    1272              &P.MAX   DC    Y(&LEN)             Maximum buffer length
                                    1273              &P.MRK   DC    Y(0)                Length at last mark
                                    1274              &P.LEN   DC    Y(0)                Current length
                                    1275              &P.IND   DC    Y(0)                Overflow/indent count
                                    1276                       DC    3Y(0)               Reserved
                                    1277              &P.LOC   DC    A(&LOC)             Location of buffer
1AMELIA   Network Interface Server                                                                                          Page    7
0Loc    Object Code    Addr1 Addr2  Stmt Lv Lineno    Source Statement           (Hibal 5, Asmedit 3.3)  HLASM R4.0  2004/03/15 13.11
+___    ______ ____    _____ _____  ____ __ ______    ______ _________
0                                   1278              &P.RTN   DC    A(&RTN)             Processing routine
                                    1279                       DC    4A(0)               Reserved
                                    1280              &P.USR   DC    A(0)                USER field
                                    1281                       AIF   ('&L' EQ '').EXIT
                                    1282              &L       EQU   $$$SEGCB&SYSNDX,*-$$$SEGCB&SYSNDX,C'X'
                                    1283              .EXIT    MEND
                                    1284
                                    1285                       MACRO
                                    1286              &L       SEGCLR &SEGCB
                                    1287              &L       SEGLD &SEGCB
                                    1288                       ACALL SEGCLR
                                    1289                       MEND
                                    1290
                                    1291                       MACRO
                                    1292              &L       SEGCOL &COL,&SEGCB
                                    1293              &L      $LA    R0,&COL
                                    1294                       SEGLD &SEGCB
                                    1295                       ACALL SEGCOL
                                    1296                       MEND
                                    1297
                                    1298                       MACRO
                                    1299              &L       SEGCR &LOC,&LEN,&SEGCB
                                    1300                       AIF   ('&LOC&LEN' NE '').SEG
                                    1301              &L       SEG   (R1),0,&SEGCB,CR
                                    1302                       MEXIT
                                    1303              .SEG     ANOP
                                    1304              &L       SEG   &LOC,&LEN,&SEGCB,CR
                                    1305                       MEND
                                    1306
                                    1307                       MACRO
                                    1308              &L       SEGDC &NUM,&LEN,&SEGCB
                                    1309              &L      $L     R1,&NUM
                                    1310                      $LA    R0,&LEN
                                    1311                       SEGLD &SEGCB
                                    1312                       ACALL SEGDC
                                    1313                       MEND
                                    1314
                                    1315                       MACRO
                                    1316                       SEGDEF &SEGCB
                                    1317                       GBLC  &$SEGCB
                                    1318              &$SEGCB  SETC  '&SEGCB'
                                    1319                       MEND
                                    1320
                                    1321                       MACRO
                                    1322              &L       SEGHX &NUM,&LEN,&SEGCB
                                    1323              &L      $L     R1,&NUM
                                    1324                      $LA    R0,&LEN
                                    1325                       SEGLD &SEGCB
                                    1326                       ACALL SEGHX
                                    1327                       MEND
                                    1328
                                    1329                       MACRO
                                    1330              &L       SEGIP &IP,&SEGCB
                                    1331              &L      $L     R1,&IP
                                    1332                       SEGLD &SEGCB
                                    1333                       ACALL SEGIP
1AMELIA   Network Interface Server                                                                                          Page    8
0Loc    Object Code    Addr1 Addr2  Stmt Lv Lineno    Source Statement           (Hibal 5, Asmedit 3.3)  HLASM R4.0  2004/03/15 13.11
+___    ______ ____    _____ _____  ____ __ ______    ______ _________
0                                   1334                       MEND
                                    1335
                                    1336                       MACRO
                                    1337              &L       SEGINIT &LOC,&LEN,&SEGCB,&RTN=0
                                    1338              &L       SETMSG &LOC,&LEN
                                    1339                       SEGLD &SEGCB
                                    1340                       ACALL SEGINIT
                                    1341                       DC    AL4(&RTN)
                                    1342                       MEND
                                    1343
                                    1344                       MACRO
                                    1345              &L       SEGLD &SEGCB
                                    1346              .* INNER MACRO USED BUT OTHER "SEG" MACROS.
                                    1347                       GBLC  &$SEGCB
                                    1348                       AIF   ('&SEGCB' EQ '').DEF
                                    1349                       AIF   ('&SEGCB'(1,1) EQ '.').NSET
                                    1350              &L      $LA    R15,&SEGCB
                                    1351              &$SEGCB  SETC  '&SEGCB'
                                    1352                       MEXIT
                                    1353              .NSET    ANOP
                                    1354              &TEMP    SETC  '&SEGCB'(2,K'&SEGCB-1)
                                    1355              &L      $LA    R15,&TEMP
                                    1356                       MEXIT
                                    1357              .DEF     ANOP
                                    1358              &L      $LA    R15,&$SEGCB
                                    1359                       MEND
                                    1360
                                    1361                       MACRO
                                    1362              &L       SEGMARK &SEGCB
                                    1363              &L       SEGLD &SEGCB
                                    1364                       ACALL SEGMARK
                                    1365                       MEND
                                    1366
                                    1367                       MACRO
                                    1368              &L       SEGT  &LOC,&LEN,&SEGCB
                                    1369              &L       SEG   &LOC,&LEN,&SEGCB,T
                                    1370                       MEND
                                    1371
                                    1372                       MACRO
                                    1373              &L       SEGTB &LOC,&LEN,&SEGCB
                                    1374              &L       SEG   &LOC,&LEN,&SEGCB,TB
                                    1375                       MEND
                                    1376
                                    1377                       MACRO
                                    1378              &L       SEGWR &LOC,&LEN,&SEGCB
                                    1379                       AIF   ('&LOC&LEN' NE '').SEG
                                    1380              &L       SEG   (R1),0,&SEGCB,WR
                                    1381                       MEXIT
                                    1382              .SEG     ANOP
                                    1383              &L       SEG   &LOC,&LEN,&SEGCB,WR
                                    1384                       MEND
                                    1385
                                    1386                       MACRO
                                    1387              &L       CHECKSUM &LOC,&LEN,&BASE,&FINAL=YES
                                    1388              &L       SETMSG &LOC,&LEN
                                    1389                       AIF   ('&FINAL' NE 'NO').NOCOMP
1AMELIA   Network Interface Server                                                                                          Page    9
0Loc    Object Code    Addr1 Addr2  Stmt Lv Lineno    Source Statement           (Hibal 5, Asmedit 3.3)  HLASM R4.0  2004/03/15 13.11
+___    ______ ____    _____ _____  ____ __ ______    ______ _________
0                                   1390                       LNR   R0,R0
                                    1391              .NOCOMP  $L    R15,&BASE
                                    1392                       ACALL CHECKSUM
                                    1393                       MEND
                                    1394
                                    1395                       MACRO                     Get TCBID hash queue head
                                    1396              &L       TIDHASH &TCBID=
                                    1397              &L       $L    R1,&TCBID
                                    1398                       CLEAR R0
                                    1399                       D     R0,=A(HASHSIZE)
                                    1400                       LR    R1,R0
                                    1401                       SLL   R1,2
                                    1402                       A     R1,NITTIDHT
                                    1403                       MEND
                                    1404
                                    1405                       MACRO                     Get IP address hash queue head
                                    1406              &L       IPHASH &IP=,&LPORT=,&RPORT=
                                    1407              &L       CLEAR R0
                                    1408                       ICM   R1,12,&RPORT
                                    1409                       ICM   R1,3,&LPORT
                                    1410                       AL    R1,&IP
                                    1411                       SLL   R1,1
                                    1412                       X     R1,&IP
                                    1413                       D     R0,=A(HASHSIZE)
                                    1414                       LR    R1,R0
                                    1415                       SLL   R1,2
                                    1416                       A     R1,NITIPAHT
                                    1417                       MEND
                                    1418
                                    1419                       MACRO
                                    1420              &L       HEXDUMP &LOC,&LEN,&SEGCB,&CHARS=ASCII,&FORMAT=OFFSET
                                    1421              &L       SETMSG &LOC,&LEN
                                    1422              &FM      SETB  ('&FORMAT' EQ 'ADDRESS')
                                    1423              &CS      SETB  ('&CHARS' EQ 'EBCDIC')
                                    1424                       OI    NITHXDFL,&FM*L'HXDFLADD+&CS*L'HXDFLEBC
                                    1425                       SEGLD &SEGCB
                                    1426                       ACALL HEXDUMP
                                    1427                       MEND
                                    1428
                                    1429                       MACRO
                                    1430              &L       PTRACE &ID
                                    1431              &L       STM   R14,R15,NITTRSAV
                                    1432                       BAS   R14,NITTRACE
                                    1433                       DC    CL8'&ID '
                                    1434                       LM    R14,R15,NITTRSAV
                                    1435                       MEND
                                    1436
                                    1437                       MACRO
                                    1438              &L       FAIL  &MSG
                                    1439              &L       MVC   NITFAIL,=CL24&MSG
                                    1440                       EX    0,*
                                    1441                       MEND
                                    1442
                                    1443                       MACRO
                                    1444              &L       PROC  &P1,&P2,&PTR=WAR,&BASE=YES,&TRACE=YES
                                    1445              .*       ADDED 4/79, JDN; Last modified, 11/85, Niz
1AMELIA   Network Interface Server                                                                                          Page   10
0Loc    Object Code    Addr1 Addr2  Stmt Lv Lineno    Source Statement           (Hibal 5, Asmedit 3.3)  HLASM R4.0  2004/03/15 13.11
+___    ______ ____    _____ _____  ____ __ ______    ______ _________
0                                   1446                       GBLA  &$PPTR,&$REG#
                                    1447                       GBLB  &$OK
                                    1448                       GBLC  &$PSTK(0),&$PLENSTK(0),&$PFRSTK(0),&$PLRSTK(0)
                                    1449                       GBLC  &$PPTRSTK(0)
                                    1450              &L       BEGIN BLAB=&L,BLOCK=NO,TYPE=P
                                    1451              &FR      SETC  'FSR'
                                    1452              &LR      SETC  'LSR'
                                    1453              &LEN     SETC  ''
                                    1454                       AIF   ('&P1' EQ '').DO
                                    1455              &LEN     SETC  '&P1'
                                    1456                       AIF   ('&P1' NE '&P1(1)').DOC
                                    1457                      $RGLKUP &P1
                                    1458                       AIF   (NOT &$OK).DO
                                    1459              &FR      SETC  '&P1'
                                    1460              &LR      SETC  '&P1'
                                    1461              &LEN     SETC  '&P2'
                                    1462                       AGO   .DO
                                    1463              .DOC     ANOP
                                    1464              &FR      SETC  '&P1(1)'
                                    1465              &LR      SETC  '&P1(2)'
                                    1466              &LEN     SETC  '&P2'
                                    1467                       AIF   ('&LR' NE '').DO
                                    1468              &LR      SETC  '&FR'
                                    1469              .DO      ANOP
                                    1470              &REC     SETC  ''
                                    1471                       AIF   ('&LEN.L'''(1,2) EQ 'L''').RLEN
                                    1472              &REC     SETC  '&LEN'
                                    1473              &LEN     SETC  'L''&REC'
                                    1474              .RLEN   $RGLKUP &FR
                                    1475                       AIF   (NOT &$OK).ERRNR
                                    1476              &R1      SETA  &$REG#
                                    1477                      $RGLKUP &LR
                                    1478                       AIF   (NOT &$OK).ERRNR
                                    1479              &N       SETA  (&$REG#-&R1+1)*4
                                    1480                       AIF   (&N GT 0).HVL
                                    1481              &N       SETA  (16-&R1+&$REG#+1)*4
                                    1482              .HVL     ANOP
                                    1483              &$PPTR   SETA  &$PPTR+1
                                    1484              &$PSTK(&$PPTR)    SETC '&REC'
                                    1485              &$PLENSTK(&$PPTR) SETC '4+&N+&LEN'
                                    1486              &$PFRSTK(&$PPTR)  SETC '&FR'
                                    1487              &$PLRSTK(&$PPTR)  SETC '&LR'
                                    1488              &$PPTRSTK(&$PPTR)  SETC '&PTR'
                                    1489              .* Trace routine call
                                    1490                       AIF   ('&TRACE' NE 'YES').NOTRACE
                                    1491                       PTRACE &L
                                    1492              .NOTRACE ANOP
                                    1493              .*
                                    1494                       PUSH  RAR,(&FR,&LR),&LEN,PTR=&PTR
                                    1495                       AIF   ('&BASE' EQ 'NO').NBASE
                                    1496                       BASE  USING=WITH,TRACE=&TRACE,TRACEID=&L
                                    1497              .NBASE  $RGLKUP &PTR
                                    1498                       AIF   (NOT &$OK).ERRNWAR
                                    1499              &REC     SETC  '&REC-(4+&N)'
                                    1500                       AIF   ('&REC'(1,1) NE '-').DOWITH  (&REC wasn't null)
                                    1501              &REC     SETC  '@R&$REG#'
1AMELIA   Network Interface Server                                                                                          Page   11
0Loc    Object Code    Addr1 Addr2  Stmt Lv Lineno    Source Statement           (Hibal 5, Asmedit 3.3)  HLASM R4.0  2004/03/15 13.11
+___    ______ ____    _____ _____  ____ __ ______    ______ _________
0                                   1502              .DOWITH  WITH  (&REC,R&$REG#)
                                    1503                       MEXIT
                                    1504              .*
                                    1505              .ERRNWAR MNOTE 8,'Register &PTR must be defined.'
                                    1506                       MEXIT
                                    1507              .*
                                    1508              .ERRNR   MNOTE 8,'&FR,&LR must both be registers.'
                                    1509                       MEND
                                    1510                       MACRO
                                    1511              &L       XPROC &P1,&P2,&TRACE=YES
                                    1512              .*       ADDED 4/79, JDN
                                    1513                       AIF   ('&L' EQ '').DO
                                    1514                       ENTRY &L
                                    1515              .DO      ANOP
                                    1516              &L       PROC  &P1,&P2,TRACE=&TRACE
                                    1517                       MEND
                                    1518              *
                                    1519              *
                                    1520              ***
                                    1521              ***  OS IOB Mapping.
                                    1522              ***
 000000                00000 00021  1523              IOB      RECORD BEGIN
 000000 C2                          1531  1           IOBFL1     DC    X'C2'               IOB FLAGS 1
                                    1532  1
                                    1533  1           IOBFL1V    EQU   X'C2'       VALUE FOR FLAGS 1
                                    1534  1
 000001 00                          1535  1           IOBFL2     DC    X'00'       IOB FLAGS 2
 000002 0000                        1536  1           IOBSNS     DC    XL2'00'     SENSE DATA
 000004 7F                          1537  1           IOBPC      DC    X'7F'       POST CODE
 000005 000000                      1538  1           IOBECB     DC    AL3(0)      ECB POINTER
 000008 00                          1539  1           IOBFL3     DC    X'00'       IOB FLAGS 3
 000009 000000                      1540  1           IOBCSWA    DC    AL3(0)      ADDRESS PORTION OF CSW
 00000C 00                          1541  1           IOBCSWS1   FLAG  ,           STATUS PORTION OF CSW
 IOBCSWS1.CSWSATTN 80 ONES          1545  1                      FLAG  CSWSATTN      ATTENTION
 IOBCSWS1.CSWSSM   40 ONES          1550  1                      FLAG  CSWSSM        STATUS MODIFIER
 IOBCSWS1.CSWSCUE  20 ONES          1555  1                      FLAG  CSWSCUE       CONTROL UNIT END
 IOBCSWS1.CSWSBUSY 10 ONES          1560  1                      FLAG  CSWSBUSY      CONTROL UNIT BUSY
 IOBCSWS1.CSWSCE   08 ONES          1565  1                      FLAG  CSWSCE        CHANNEL END
 IOBCSWS1.CSWSDE   04 ONES          1570  1                      FLAG  CSWSDE        DEVICE END
 IOBCSWS1.CSWSUC   02 ONES          1575  1                      FLAG  CSWSUC        UNIT CHECK
 IOBCSWS1.CSWSUE   01 ONES          1580  1                      FLAG  CSWSUE        UNIT EXCEPTION
 00000D 00                          1585  1           IOBCSWS2   FLAG  ,           STATUS PORTION OF CSW
 IOBCSWS2.CSWSPCI  80 ONES          1589  1                      FLAG  CSWSPCI       PROGRAM-CONTROLLED INTERRUPT
 IOBCSWS2.CSWSIL   40 ONES          1594  1                      FLAG  CSWSIL        INCORRECT LENGTH
 IOBCSWS2.CSWSPC   20 ONES          1599  1                      FLAG  CSWSPC        PROGRAM CHECK
 IOBCSWS2.CSWSSPC  10 ONES          1604  1                      FLAG  CSWSSPC       STORAGE PROTECTION CHECK
 IOBCSWS2.CSWSCDC  08 ONES          1609  1                      FLAG  CSWSCDC       CHANNEL DATA CHECK
 IOBCSWS2.CSWSCCC  04 ONES          1614  1                      FLAG  CSWSCCC       CHANNEL CONTROL CHECK
 IOBCSWS2.CSWSICC  02 ONES          1619  1                      FLAG  CSWSICC       INTERFACE CONTROL CHECK
 IOBCSWS2.CSWSCC   01 ONES          1624  1                      FLAG  CSWSCC        CHAINING CHECK
 00000E 0000                        1629  1           IOBCSWL    DC    X'0000'     LENGTH PORTION OF CSW
 000010 00                          1630  1           IOBSIO     DC    X'00'       CC FROM SIO
 000011 000000                      1631  1           IOBCAW     DC    AL3(0)      POINTER TO CCWS
 000014 00                          1632  1                      DC    X'00'       RESERVED IN IOB
 000015 000000                      1633  1           IOBDCB     DC    AL3(0)      POINTER TO DCB
 000018 00                          1634  1           IOBRPM     DC    X'00'       REPOSITION MODIFIER
1AMELIA   Network Interface Server                                                                                          Page   12
0Loc    Object Code    Addr1 Addr2  Stmt Lv Lineno    Source Statement           (Hibal 5, Asmedit 3.3)  HLASM R4.0  2004/03/15 13.11
+___    ______ ____    _____ _____  ____ __ ______    ______ _________
0000019 000000                      1635  1           IOBRSA     DC    AL3(0)      RESTART ADDR
 00001C 0000                        1636  1           IOBBCI     DC    H'0'        BLOCK COUNT INCREMENT
 00001E 0000                        1637  1           IOBEC      DC    H'0'        ERROR COUNT
 000020 00                          1638  1           IOBEXT     DC    AL1(0)       EXTENT NUMBER
 000021                00021 00021  1639                       END
                                    1648              *
                                    1649              *
                                    1650                       MACRO
                                    1651              &L       IOB   &CAW=0,&DCB=0,&ECB=0,&EXT=0
                                    1652              &L       DC    0D'0'       START OF IOB
                                    1653                       DC    X'C2'       IOB FLAGS 1
                                    1654                       DC    X'00'       IOB FLAGS 2
                                    1655                       DC    XL2'00'     SENSE DATA
                                    1656                       DC    X'7F'       POST CODE
                                    1657                       DC    AL3(&ECB)   ECB POINTER (DUMMY ECB)
                                    1658                       DC    X'00'       IOB FLAGS 3
                                    1659                       DC    AL3(0)      ADDRESS PORTION OF CSW
                                    1660                       DC    X'0000'     STATUS PORTION OF CSW
                                    1661                       DC    X'0000'     LENGTH PORTION OF CSW
                                    1662                       DC    X'00'       CC FROM SIO
                                    1663                       DC    AL3(&CAW)   POINTER TO CCWS
                                    1664                       DC    X'00'       RESERVED IN IOB
                                    1665                       DC    AL3(&DCB)   POINTER TO DCB
                                    1666                       DC    X'00'       REPOSITION MODIFIER
                                    1667                       DC    AL3(0)      RESTART ADDR
                                    1668                       DC    H'0'        BLOCK COUNT INCREMENT
                                    1669                       DC    H'0'        ERROR COUNT
                                    1670                       DC    AL1(&EXT)    EXTENT NUMBER
                                    1671                       MEND
                                    1672              *
                                    1673              *
 000000                00000 0002C  1674              SEGCB    RECORD 'SEGCB'
 000000 00                          1684  1 03-01262 +$$$SEGCB0245      DS 0F
 SEGCBCOD.SEGCBSEG 01 EQ
 SEGCBCOD.SEGCBWR  02 EQ
 SEGCBCOD.SEGCBCLR 03 EQ
 SEGCBCOD.SEGCBSPP 04 EQ
 SEGCBCOD.SEGCBOVF 05 EQ
 SEGCBCOD.SEGCBCR  06 EQ
 SEGCBCOD.SEGCBMAR 07 EQ
 000001 00                          1759  1 03-01271 +           DC    X'00'               Reserved
 000002 0000                        1760  1 03-01272 +SEGCBMAX   DC    Y(0)                Maximum buffer length
 000004 0000                        1761  1 03-01273 +SEGCBMRK   DC    Y(0)                Length at last mark
 000006 0000                        1762  1 03-01274 +SEGCBLEN   DC    Y(0)                Current length
 000008 0000                        1763  1 03-01275 +SEGCBIND   DC    Y(0)                Overflow/indent count
 00000A 000000000000                1764  1 03-01276 +           DC    3Y(0)               Reserved
 000010 00000000                    1765  1 03-01277 +SEGCBLOC   DC    A(0)                Location of buffer
 000014 00000000                    1766  1 03-01278 +SEGCBRTN   DC    A(0)                Processing routine
 000018 0000000000000000            1767  1 03-01279 +           DC    4A(0)               Reserved
 000028 00000000                    1768    03-01280 +SEGCBUSR DC    A(0)                USER field
                                    1778              *
                                    1779              *
                                    1780              KWRIFVAL EQU  X'80'                - Valid user
                                    1781              KWRIFAPR EQU  X'40'                - ACCT privs
                                    1782              KWRIFSPR EQU  X'20'                - SYS privs
                                    1783              KWRIFOPR EQU  X'10'                - OPR privs
1AMELIA   Network Interface Server                                                                                          Page   13
0Loc    Object Code    Addr1 Addr2  Stmt Lv Lineno    Source Statement           (Hibal 5, Asmedit 3.3)  HLASM R4.0  2004/03/15 13.11
+___    ______ ____    _____ _____  ____ __ ______    ______ _________
0                                   1784              KWRIFSBM EQU  X'08'                - SUBMIT priv
                                    1785              KWRIFSUB EQU  X'04'                - SUBADMIN privs
                                    1786              KWRIFADM EQU  X'02'                - ADMIN privs
                                    1787              KWRIFPC  EQU  X'01'                - PC privs
                                    1788
                                    1789                       PUSH  NOGEN
                                    1793                       CVT   DSECT=YES
                                    3123
                                    3124                       IHASDWA
                                    5112                       IEZDEB
                                    6174                       DCBD  DEVD=DA,DSORG=PS
                                    6738              DCB      EQU   IHADCB,,C'X'
                                    6739
                                    6740              DVTAREA  RECORD 'DVTAREA'
                                    6812                       POP   PRINT
1AMELIA   Packet definitions                                                                                                Page   14
0D-Loc  Object Code    Addr1 Addr2  Stmt Lv Lineno    Source Statement           (Hibal 5, Asmedit 3.3)  HLASM R4.0  2004/03/15 13.11
+_____  ______ ____    _____ _____  ____ __ ______    ______ _________
0                                   6815
                                    6816                    Ethernet Packet Header
                                    6817
 000000                00000 0000E  6818              ENETHDR  RECORD BEGIN
 000000                             6826  1           ENETDST    DS    XL6                 Destination ether addr
 000006                             6827  1           ENETSRC    DS    XL6                 Source ether addr
 00000C                             6828  1           ENETTYPE   DS    H                   Packet type
 00000E                             6829  1           ENETDATA   DS    0X                  Start of packet data
                                    6830  1           ENETMAXL   EQU   1514                Max packet length
 00000E                0000E 0000E  6831                       END
                                    6840
                                    6841                    Ethernet Packet Types
                                    6842
                                    6843              ENETIP#  EQU   X'0800'             Ethernet IP packet type
                                    6844              ENETARP# EQU   X'0806'             Ethernet ARP/RARP type
-
                                    6846
                                    6847                    ARP Packet Format
                                    6848
 000000                00000 0001C  6849              ARP      RECORD BEGIN
 000000                             6857  1           ARPHRD     DS    XL2                 Hardware address type
                                    6858  1           ARPENET#    EQU   1                   - Ethernet address
 000002                             6859  1           ARPPRO     DS    XL2                 Protocol address type
 000004                             6860  1           ARPHLN     DS    X                   Hardware address length
 000005                             6861  1           ARPPLN     DS    X                   Protocol address length
 000006                             6862  1           ARPOP      DS    XL2                 Operation code
                                    6863  1           ARPREQ#     EQU   1                   - ARP Request
                                    6864  1           ARPREP#     EQU   2                   - ARP Reply
                                    6865  1           ARPRREQ#    EQU   3                   - Reverse ARP request
                                    6866  1           ARPRREP#    EQU   4                   - Reverse ARP reply
 000008                             6867  1           ARPSHA     DS    XL6                 Source hardware address
 00000E                             6868  1           ARPSPA     DS    XL4                 Source protocol address
 000012                             6869  1           ARPTHA     DS    XL6                 Target hardware address
 000018                             6870  1           ARPTPA     DS    XL4                 Target protocol address
 00001C                0001C 0001C  6871                       END
1AMELIA   Packet definitions                                                                                                Page   15
0D-Loc  Object Code    Addr1 Addr2  Stmt Lv Lineno    Source Statement           (Hibal 5, Asmedit 3.3)  HLASM R4.0  2004/03/15 13.11
+_____  ______ ____    _____ _____  ____ __ ______    ______ _________
0                                   6881                       COPY  IPTCP               IP/TCP headers
                                    6882             =*****************************************************************
                                    6883             =***  IP/TCP Protocol Headers Mappings                         ***
                                    6884             =*****************************************************************
-                                   6886             =***
                                    6887             =***  Internet Protocol Header (IP)
                                    6888             =***
 000000                00000 00014  6889             =IPHDR    RECORD BEGIN
 000000                             6897  1          =IPIHL      DS    0X                  IP header length
 000000                             6898  1          =IPVIHL     DS    X                   Version and header length
                                    6899  1          =*  The following description is for IP version 4.
 000001                             6900  1          =IPTOS      DS    X                   Type of service (zero=normal)
 000002                             6901  1          =IPLEN      DS    H                   Total packet length
                                    6902  1          =
 000004                             6903  1          =IPID       DS    H                   Identification
 000006                             6904  1          =IPFRAG     DS    H                   Fragmentation information
                                    6905  1          =
 000008                             6906  1          =IPTTL      DS    X                   Time to live (in seconds)
 000009                             6907  1          =IPTYPE     DS    X                   Protocol type (ICMP,UDP,TCP,...)
 00000A                             6908  1          =IPHDRCHK   DS    H                   Header checksum
                                    6909  1          =
 00000C                             6910  1          =IPSRC      DS    F                   Source IP address
 000010                             6911  1          =IPDST      DS    F                   Destination IP address
 000014                00014 00014  6912             =         END
                                    6921             =***
                                    6922             =***  IP Protocol Types
                                    6923             =***
                                    6924             =IPICMP#  EQU   1                   Internet Control Msg Facility
                                    6925             =IPTCP#   EQU   6                   Transmission Control Protocol
                                    6926             =IPUDP#   EQU   17                  User Datagram Protocol
1AMELIA   Packet definitions                                                                                                Page   16
0D-Loc  Object Code    Addr1 Addr2  Stmt Lv Lineno    Source Statement           (Hibal 5, Asmedit 3.3)  HLASM R4.0  2004/03/15 13.11
+_____  ______ ____    _____ _____  ____ __ ______    ______ _________
0                                   6928             =***
                                    6929             =***  User Datagram Protocol Header (UDP)
                                    6930             =***
 000000                00000 00008  6931             =UDPHDR  RECORD BEGIN
 000000                             6939  1          =UDPSRC     DS    H                   UDP Source port
 000002                             6940  1          =UDPDST     DS    H                   UDP Destination port
                                    6941  1          =UDPNS#     EQU   53                  Name server message
                                    6942  1          =
 000004                             6943  1          =UDPLEN     DS    H                   Length of UDP header + data
 000006                             6944  1          =UDPCHK     DS    H                   Checksum
 000008                00008 00008  6945             =         END
-                                   6955             =***
                                    6956             =***  Transmission Control Protocol (TCP) Header
                                    6957             =***
 000000                00000 00014  6958             =TCPHDR   RECORD BEGIN
 000000                             6966  1          =TCPSRC     DS    H                   Source port
 000002                             6967  1          =TCPDST     DS    H                   Destination port
 000004                             6968  1          =TCPSEQ     DS    F                   Sequence number
 000008                             6969  1          =TCPACK     DS    F                   Acknowledgement number
 00000C                             6970  1          =TCPOFFS    DS    X                   Data offset
 00000D 00                          6971  1          =TCPFLAGS   FLAG  ,                   Flags
 TCPFLAGS.TCPFLURG 20 ONES          6975  1          =           FLAG  (TCPFLURG,X'20')     - urgent
 TCPFLAGS.TCPFLACK 10 ONES          6984  1          =           FLAG  (TCPFLACK,X'10')     - ACK present
 TCPFLAGS.TCPFLPSH 08 ONES          6993  1          =           FLAG  (TCPFLPSH,X'08')     - push function
 TCPFLAGS.TCPFLRST 04 ONES          7002  1          =           FLAG  (TCPFLRST,X'04')     - reset
 TCPFLAGS.TCPFLSYN 02 ONES          7011  1          =           FLAG  (TCPFLSYN,X'02')     - synch
 TCPFLAGS.TCPFLFIN 01 ONES          7020  1          =           FLAG  (TCPFLFIN,X'01')     - final
 00000E                             7029  1          =TCPWIND    DS    H                   Receiver flow control window
 000010                             7030  1          =TCPCHK     DS    H                   Checksum
 000012                             7031  1          =TCPUP      DS    H                   Urgent pointer
 000014                00014 00014  7032             =         END
-                                   7042
                                    7043                    ICMP Packet format
                                    7044
 000000                00000 00004  7045              ICMPHDR  RECORD BEGIN
 000000                             7053  1           ICMPTYPE   DS    X                   ICMP message type
                                    7054  1           ICMPECR#    EQU   0                   - Echo reply
                                    7055  1           ICMPECM#    EQU   8                   - Echo message
 000001                             7056  1           ICMPCODE   DS    X                   Subcode number
 000002                             7057  1           ICMPCHK    DS    XL2                 Checksum
 000004                             7058  1           ICMPDATA   DS    0X                  Data start
 000004                00004 00004  7059                       END
1AMELIA   TCP connection control block                                                                                      Page   17
0D-Loc  Object Code    Addr1 Addr2  Stmt Lv Lineno    Source Statement           (Hibal 5, Asmedit 3.3)  HLASM R4.0  2004/03/15 13.11
+_____  ______ ____    _____ _____  ____ __ ______    ______ _________
0                                   7069
                                    7070
                                    7071                 TCP connection control block.  Contains state information for
                                    7072                 a single TCP connection.  A TCP block is also built for each
                                    7073                 port for which there is a passive open (listen) in effect.
                                    7074

0000000                00000 00233  7075              TCB      RECORD BEGIN
 000000                             7083  1           TCBDMPID   DS    C'TCB '             Id for dumps
 000004                             7084  1           TCBNEXT    DS    A                   Chain pointer
 000008                             7085  1           TCBID      DS    F                   Connection ID
 00000C                             7086  1           TCBUID     DS    F                   User connection id
 000010                             7087  1           TCBPATH    DS    A                   User path block address
 000014                             7088  1           TCBIPAHQ   DS    A                   IP addr hash queue chain ptr
 000018                             7089  1           TCBTIDHQ   DS    A                   TCBID hash queue chain ptr
 00001C                             7090  1           TCBSTART   DS    F                   Connection start time
 000020                             7091  1           TCBLPORT   DS    F                   Local port number
 000024                             7092  1           TCBRPORT   DS    F                   Remote port number
 000028                             7093  1           TCBIPADD   DS    F                   Remote host IP address
 00002C                             7094  1           TCBIPCHN   DS    A                   Secondary IP address entry chain
 000030                             7095  1           TCBHSTTB   DS    F                   Host table entry address
 000034                             7096  1           TCBISS     DS    F                   ISS - Initial send sequence
 000038                             7097  1           TCBIRS     DS    F                   IRS - Initial receive sequence
 00003C                             7098  1           TCBRCVAK   DS    F                   Last receive sequence ACKed
 000040                             7099  1           TCBRCVTM   DS    XL8                 Time of oldest unACKed rcv data
 000048                             7100  1           TCBRCVNX   DS    F                   RCV.NXT - next receive sequence
 00004C                             7101  1           TCBRCVWN   DS    F                   RCV.WND - receive window size
 000050                             7102  1           TCBSNDUN   DS    F                   SND.UNA - oldest unacked seq
 000054                             7103  1           TCBSNDNX   DS    F                   SND.NXT - next send sequence num
 000058                             7104  1           TCBSNDFN   DS    F                   Final sequence (+1) in send queue
 00005C                             7105  1           TCBSNDWN   DS    F                   SND.WND - send window
 000060                             7106  1           TCBSNDWS   DS    F                   SND.WL1 - seq of last window updt
 000064                             7107  1           TCBSNDWA   DS    F                   SND.WL2 - ack of last window updt
 000068                             7108  1           TCBSNDWT   DS    F                   Window probe/update time stamp
 00006C                             7109  1           TCBRMSS    DS    F                   Receive max segment size
 000070                             7110  1           TCBSMSS    DS    F                   Send max segment size
 000074                             7111  1           TCBCWIND   DS    F                   Congestion window size
 000078                             7112  1           TCBLMAX    DS    F                   Listen port MAX connections
 00007C                             7113  1           TCBFLOWL   DS    F                   Flow control low level
 000080                             7114  1           TCBFLOWH   DS    F                   Flow control high level
 000084                             7115  1           TCBTMOUT   DS    A                   Retransmit timeout limit
 000088                             7116  1           TCBIDLTM   DS    A                   Idle activity timeout limit
 00008C                             7117  1           TCBXSEQ    DS    F                   Transmit sequence being timed
 000090                             7118  1           TCBXTIME   DS    XL8                 Time TCBXSEQ transmitted
 000098                             7119  1           TCBRXTIM   DS    F                   Retransmit time
 00009C                             7120  1           TCBSRTT    DS    XL8                 Smoothed retransmit time value
 0000A4                             7121  1           TCBRXSEQ   DS    F                   Retransmit start sequence
 0000A8                             7122  1           TCBTIMER   DS    A                   Timer interval
 0000AC                             7123  1           TCBTMXIT   DS    A                   Timer exit routine
 0000B0                             7124  1           TCBSENDQ   DS    A                   Send data queue head
 0000B4                             7125  1           TCBPATHQ   DS    A                   Path message queue head
 0000B8                             7126  1           TCBOUTSQ   DS    A                   Out-of-sequence packet queue head
                                    7127  1
 0000BC                             7128  1           TCBINFO    DS    CL32                Info from user
                                    7129  1
1AMELIA   TCP connection control block                                                                                      Page   18
0D-Loc  Object Code    Addr1 Addr2  Stmt Lv Lineno    Source Statement           (Hibal 5, Asmedit 3.3)  HLASM R4.0  2004/03/15 13.11
+_____  ______ ____    _____ _____  ____ __ ______    ______ _________
00000DC                             7130  1           TCBRBYTE   DS    F                   Received bytes
 0000E0                             7131  1           TCBRPACK   DS    F                   Received packets
 0000E4                             7132  1           TCBRRXMT   DS    F                   Received retransmits
 0000E8                             7133  1           TCBSBYTE   DS    F                   Sent bytes
 0000EC                             7134  1           TCBSPACK   DS    F                   Sent packets
 0000F0                             7135  1           TCBSRXMT   DS    F                   Sent retransmits
                                    7136  1
 0000F4                             7137  1           TCBTRADD   DS    A                   Trace table address
 0000F8                             7138  1           TCBTRPTR   DS    F                   Trace table pointer
 0000FC                             7139  1           TCBTRELN   DS    F                   Trace table entry length
 000100                             7140  1           TCBTRTLN   DS    F                   Trace table total length
                                    7141  1
 000104                             7142  1           TCBCLTIM   DS    F                   Time TCP_CLOSE received
 000108                             7143  1           TCBSPTIM   DS    XL8                 Time of last packet transmit
 000110                             7144  1           TCBSDATT   DS    XL8                 Time of last data transmit
 000118                             7145  1           TCBSDATL   DS    F                   Length of last data sent
 00011C                             7146  1           TCBSDATA   DS    CL128               Last data sent
 00019C                             7147  1           TCBRPTIM   DS    XL8                 Time of last received packet
 0001A4                             7148  1           TCBRDATT   DS    XL8                 Time of last data received
 0001AC                             7149  1           TCBRDATL   DS    F                   Length of last data received
 0001B0                             7150  1           TCBRDATA   DS    CL128               Last data received
                                    7151  1
 000230                             7152  1           TCBSTATE   DS    X                   Connection state code
                                    7153  1           CLOSED      EQU   0
                                    7154  1           LISTEN      EQU   1
                                    7155  1           SYNSENT     EQU   2
                                    7156  1           SYNRECVD    EQU   3
                                    7157  1           ESTABLSH    EQU   4
                                    7158  1           FINWAIT1    EQU   5
                                    7159  1           FINWAIT2    EQU   6
                                    7160  1           CLOSWAIT    EQU   7
                                    7161  1           CLOSING     EQU   8
                                    7162  1           LASTACK     EQU   9
                                    7163  1           TIMEWAIT    EQU   10
                                    7164  1
 000231 00                          7165  1           TCBFLAGS   FLAG
 TCBFLAGS.TCBFSERV 80 ONES          7169  1                      FLAG  TCBFSERV            Connect to server port listen
 TCBFLAGS.TCBFUID  40 ONES          7174  1                      FLAG  TCBFUID             Have user connection id
 TCBFLAGS.TCBFSYN  20 ONES          7179  1                      FLAG  TCBFSYN             Connection seq no synch done
 TCBFLAGS.TCBFWRIT 10 ONES          7184  1                      FLAG  TCBFWRIT            Force packet write
 TCBFLAGS.TCBFTMO  08 ONES          7189  1                      FLAG  TCBFTMO             Transmit timeout has occurred
 TCBFLAGS.TCBFRXMT 04 ONES          7194  1                      FLAG  TCBFRXMT            Packet retransmit sent
 TCBFLAGS.TCBFSTOP 02 ONES          7199  1                      FLAG  TCBFSTOP            TCP_STOP message sent to path
 TCBFLAGS.TCBFXOFF 01 ONES          7204  1                      FLAG  TCBFXOFF            TCP_STOP received from path
                                    7209  1
 000232 00                          7210  1           TCBFLAG2   FLAG
 TCBFLAG2.TCBFCONN 80 ONES          7214  1                      FLAG  TCBFCONN            OPEN_INFO or CONNECT sent to path
 TCBFLAG2.TCBFEOF  40 ONES          7219  1                      FLAG  TCBFEOF             EOF msg received from path
 TCBFLAG2.TCBFRCLO 20 ONES          7224  1                      FLAG  TCBFRCLO            CLOSE msg received from path
 TCBFLAG2.TCBFSCLO 10 ONES          7229  1                      FLAG  TCBFSCLO            CLOSE msg sent to path
 TCBFLAG2.TCBFPASS 08 ONES          7234  1                      FLAG  TCBFPASS            Passive open
 TCBFLAG2.TCBFKEEP 04 ONES          7239  1                      FLAG  TCBFKEEP            Keepalive enabled
 TCBFLAG2.TCBFXKPA 02 ONES          7244  1                      FLAG  TCBFXKPA            Transmit keepalive/probe packet
 TCBFLAG2.TCBFIPHQ 01 ONES          7249  1                      FLAG  TCBFIPHQ            TCB addid to IP hash queue
                                    7254  1
 000233                00233 00233  7255                       END
1AMELIA   TCP connection control block                                                                                      Page   19
0D-Loc  Object Code    Addr1 Addr2  Stmt Lv Lineno    Source Statement           (Hibal 5, Asmedit 3.3)  HLASM R4.0  2004/03/15 13.11
+_____  ______ ____    _____ _____  ____ __ ______    ______ _________
0                                   7265
                                    7266                         TCB trace table entry header
                                    7267
 000000                00000 0000C  7268              TCBTRHDR RECORD BEGIN
 000000                             7276  1           TCBTRTIM   DS    XL8                 Time stamp
 000008                             7277  1           TCBTRTYP   DS    H                   Type code (or path send RC)
                                    7278  1           TCBTRRPM    EQU   4093                - Received path message
                                    7279  1           TCBTRRCV    EQU   4094                - Received TCP packet
                                    7280  1           TCBTRSND    EQU   4095                - Sent TCP packet
 00000A                             7281  1           TCBTRLEN   DS    H                   Original data length
 00000C                             7282  1           TCBTRDAT   DS    0X                  Trace data
 00000C                0000C 0000C  7283                       END
0                                   7293
                                    7294                         Format of queue entries chained off of TCB
                                    7295
 000000                00000 0000C  7296              TCBQHDR  RECORD BEGIN
 000000                             7304  1           TCBQNEXT   DS    A                   Chain pointer
 000004                             7305  1           TCBQLEN    DS    A                   Length of data
 000008                             7306  1           TCBQSEQ    DS    A                   Sequence number
 00000C                             7307  1           TCBQDATA   DS    0X                  Data start
 00000C                0000C 0000C  7308                       END
0                                   7318
                                    7319                         Constants
                                    7320
                                    7321              TIMESEC  EQU   1                   Timer goes off every second
                                    7322              MSL      EQU   60                  Max segment lifetime (seconds)
                                    7323              DEFOPTMO EQU   300                 Default TCP open timeout
                                    7324              DEFTMOUT EQU   5*60                Default connection timeout (secs)
                                    7325              MAXTCPLN EQU   1460                Max TCP data length
                                    7326              MAXCONN  EQU   3000                Max TCP connections per host
                                    7327              WINDOW   EQU   6*MAXTCPLN          Receive window size
                                    7328              DEFFLOWL EQU   4000                Default flow ctrl low threshhold
                                    7329              DEFFLOWH EQU   8000                Default flow ctrl high threshhold
                                    7330              MAXSENDQ EQU   200000              Max send queue size
                                    7331              MINRXTIM EQU   2                   Minimum retransmit interval
                                    7332              MAXRXTIM EQU   20                  Maximum retransmit interval
                                    7333              MAXSRTT  EQU   5                   Max value for TCP SRTT
                                    7334              ENETTIME EQU   300                 Ethernet address expiration time
                                    7335              GETCMAX  EQU   1000000             Max valid GETCORE request
                                    7336              HASHSIZE EQU   3001                Hash table size
1AMELIA   Name server message format                                                                                        Page   20
0D-Loc  Object Code    Addr1 Addr2  Stmt Lv Lineno    Source Statement           (Hibal 5, Asmedit 3.3)  HLASM R4.0  2004/03/15 13.11
+_____  ______ ____    _____ _____  ____ __ ______    ______ _________
0                                   7338
                                    7339                Domain name server message header
                                    7340

0000000                00000 0000C  7341              NSMHDR   RECORD BEGIN
 000000                             7349  1           NSMID      DS    H                   Id number
 000002                             7350  1           NSMOP      DS    X                   Query op code
                                    7351  1           NSMRESP     EQU   NSMOP,X'80',1       - Message is response
                                    7352  1           NSMAA       EQU   NSMOP,X'04',1       - Authoritative answer
                                    7353  1           NSMTC       EQU   NSMOP,X'02',1       - Truncated message
                                    7354  1           NSMRD       EQU   NSMOP,X'01',1       - Recursion desired
 000003                             7355  1           NSMRCODE   DS    X                   Response code
                                    7356  1           NSMRA       EQU   NSMRCODE,X'80',1    - Recursion available
 000004                             7357  1           NSMQDCNT   DS    H                   Query section count
 000006                             7358  1           NSMANCNT   DS    H                   Answer section count
 000008                             7359  1           NSMNSCNT   DS    H                   Name server section count
 00000A                             7360  1           NSMARCNT   DS    H                   Additional records count
 00000C                             7361  1           NSMQUERY   DS    0C                  Start of query
0                                   7363  1
                                    7364  1                   Query operation codes
                                    7365  1
                                          1
0                                   7366  1           NSM#STDQ   EQU   0                   Standard query
                                    7367  1           NSM#INVQ   EQU   1                   Inverse query
                                    7368  1           NSM#STAT   EQU   2                   Server status query
                                    7369  1
                                    7370  1                   Response code values
                                    7371  1
                                          1
0                                   7372  1           NSM#OK     EQU   0                   No errors
                                    7373  1           NSM#FERR   EQU   1                   Format error in query
                                    7374  1           NSM#FAIL   EQU   2                   Server failure
                                    7375  1           NSM#UNKN   EQU   3                   Unknown name
                                    7376  1           NSM#NIMP   EQU   4                   Requested query not implemented
                                    7377  1           NSM#REJ    EQU   5                   Server refuses to perform request
0                                   7379  1
                                    7380  1                   Query class code
                                          1
0                                   7381  1           NSM#IN     EQU   1                   Internet class
                                    7382  1
                                    7383  1                   Query type codes (also RR record type codes)
                                    7384  1
                                          1
0                                   7385  1           RR#A       EQU   1                   A    - Host address
                                    7386  1           RR#NS      EQU   2                   NS   - Name server
                                    7387  1           RR#CNAME   EQU   5                   CNAM - Canonical name for alias
                                    7388  1           RR#SOA     EQU   6                   SOA  - Start of zone of authority
                                    7389  1           RR#WKS     EQU   11                  WKS  - Well-known services
                                    7390  1           RR#PTR     EQU   12                  PTR  - Domain name pointer
1AMELIA   Name server message format                                                                                        Page   21
0D-Loc  Object Code    Addr1 Addr2  Stmt Lv Lineno    Source Statement           (Hibal 5, Asmedit 3.3)  HLASM R4.0  2004/03/15 13.11
+_____  ______ ____    _____ _____  ____ __ ______    ______ _________
0                                   7391  1           RR#HINFO   EQU   13                  HINFO - Host information
                                    7392  1           RR#MX      EQU   15                  MX   - Mail exchange
                                    7393  1           RR#TXT     EQU   16                  TXT  - Text string
                                    7394  1           RR#ALL     EQU   255                 All record types
                                    7395  1
 00000C                0000C 0000C  7396                       END
-                                   7406
                                    7407                      Resource record format (as returned by NSGETRR)
                                    7408

0000000                00000 0021C  7409              NSRR     RECORD BEGIN
 000000                             7417  1           NSRRNAME   DS    CL256               Name (in EBCDIC)
 000100                             7418  1           NSRRNMLN   DS    F                   Name length
 000104                             7419  1           NSRRTYPE   DS    H                   RR type code
 000106                             7420  1           NSRRCLAS   DS    H                   RR class code
 000108                             7421  1           NSRRTTL    DS    F                   RR TTL value
 00010C                             7422  1           NSRRRDLN   DS    F                   Original RDATA length
 000110                             7423  1           NSRRRDAD   DS    F                   Original RDATA ptr
 000114                             7424  1           NSRRIP     DS    0F                  A record IP address
 000114                             7425  1           NSRRDLEN   DS    F                   RDATA length (NS, CNAME, MX, PTR)
 000118                             7426  1           NSRRDATA   DS    CL256                and text in EBCDIC
 000218                             7427  1           NSRRMXPR   DS    F                   MX record preference value
 00021C                0021C 0021C  7428                       END
1AMELIA   NSL - Name lookup queue entry                                                                                     Page   22
0D-Loc  Object Code    Addr1 Addr2  Stmt Lv Lineno    Source Statement           (Hibal 5, Asmedit 3.3)  HLASM R4.0  2004/03/15 13.11
+_____  ______ ____    _____ _____  ____ __ ______    ______ _________
0                                   7438
                                    7439
                                    7440                Name server lookup queue entry format
                                    7441

0000000                00000 00354  7442              NSL      RECORD BEGIN
 000000                             7450  1           NSLNEXT    DS    A                   Chain pointer
 000004                             7451  1           NSLSTART   DS    F                   Lookup start time
 000008                             7452  1           NSLLCNTR   DS    F                   Lookup counter for loop check
 00000C                             7453  1           NSLUPATH   DS    F                   Path id for lookup
 000010                             7454  1           NSLTCPID   DS    F                   TCP id for lookup
 000014                             7455  1           NSLID      DS    H                   ID (matches NSMID)
 000016                             7456  1           NSLQTYPE   DS    X                   Query type
 000017                             7457  1           NSLQCLAS   DS    X                   Query class
 000018                             7458  1           NSLRCODE   DS    X                   Return code (from NSMRCODE)
 000019 00                          7459  1           NSLFLAGS   FLAG
 NSLFLAGS.NSLNOREC 80 ONES          7463  1                      FLAG  NSLNOREC            No recursion on lookup
 NSLFLAGS.NSLPCMD  40 ONES          7468  1                      FLAG  NSLPCMD             Command from path
 NSLFLAGS.NSLCMDLK 20 ONES          7473  1                      FLAG  NSLCMDLK            LOOKUP command
 NSLFLAGS.NSLCMDMH 10 ONES          7478  1                      FLAG  NSLCMDMH            MAILHOST lookup
 NSLFLAGS.NSLPMAIL 08 ONES          7483  1                      FLAG  NSLPMAIL            Mailhost lookup command
 NSLFLAGS.NSLTCP   04 ONES          7488  1                      FLAG  NSLTCP              TCP open lookup
 NSLFLAGS.NSLFTMO  02 ONES          7493  1                      FLAG  NSLFTMO             Lookup timeout occurred
                                    7498  1           MAXNSERV   EQU   4                   Name server list length
 00001C                             7499  1           NSLNMSRV   DS    (MAXNSERV)F         Name server list
 00002C                             7500  1                      DS    F                   Mark end of list
 000030                             7501  1           NSLSRVPT   DS    F                   Name server list pointer
 000034                             7502  1           NSLTRY     DS    F                   Number of server list tries
 000038                             7503  1           NSLTRYCT   DS    F                   Name server list try counter
 00003C                             7504  1           NSLEXPTM   DS    F                   Expiration time for lookup
 000040                             7505  1           NSLRETTM   DS    F                   Time to make next retry
 000044                             7506  1           NSLIP      DS    F                   IP address to look up
                                    7507  1           NSLHDR     EQU   NSLNEXT,*-NSLNEXT,C'C'  Header area to clear
 000048                             7508  1           NSLNAMLN   DS    F                   Name length
 00004C                             7509  1           NSLNAME    DS    CL256               Name to look up
                                    7510  1
 00014C                             7511  1           NSLUDP     DS    CL(L'UDPHDR)        UDP header for request packet
 000154                             7512  1           NSLPACK    DS    CL512               Name server request packet
                                    7513  1
                                    7514  1           NSLRTIM#   EQU   7                   Time interval between retries
                                    7515  1           NSLRCNT#   EQU   1                   Default number of lookup tries
                                    7516  1           NSLEXPT#   EQU   60                  Default time to wait before timeout
 000354                00354 00354  7517                       END
1AMELIA   Misc dsects                                                                                                       Page   23
0D-Loc  Object Code    Addr1 Addr2  Stmt Lv Lineno    Source Statement           (Hibal 5, Asmedit 3.3)  HLASM R4.0  2004/03/15 13.11
+_____  ______ ____    _____ _____  ____ __ ______    ______ _________
0                                   7527
                                    7528                    UDP port table definitions
                                    7529
                                    7530              PNUM#    EQU   5000,,C'N'          Port numbers start at 5000
                                    7531              PNUMCNT# EQU   1000,,C'N'          Number of port numbers to alloc
0                                   7533
                                    7534                    PNUM Entry
                                    7535
 000000                00000 00008  7536              PNUM     RECORD BEGIN
 000000                             7544  1           PNUMLINK   DS    A                   Ptr to next PNUM (or zero)
 000004                             7545  1           PNUMVAL    DS    F                   Port number
 000008                00008 00008  7546                       END
0                                   7556
                                    7557                    TCP port info table entry
                                    7558
 000000                00000 00010  7559              TPORT    RECORD BEGIN
 000000                             7567  1           TPORTNXT   DS    A                   Next entry
 000004                             7568  1           TPORTNUM   DS    A                   Port number
 000008                             7569  1           TPORTID    DS    CL8                 ID text
 000010                00010 00010  7570                       END
0                                   7580
                                    7581                    Host table entry
                                    7582
 000000                00000 0009C  7583              HSTTABLE RECORD BEGIN
 000000                             7591  1           HSTNEXT    DS    A                   Next entry
 000004                             7592  1           HSTHASHP   DS    A                   Hash table chain pointer
 000008                             7593  1           HSTIPADD   DS    F                   IP address
 00000C                             7594  1           HSTTIME    DS    F                   Ethernet address time stamp
 000010                             7595  1           HSTENET    DS    XL6                 Ethernet address
 000016                             7596  1                      DS    2X
 000018                             7597  1           HSTRFRAG   DS    F                   Received IP fragment packets
 00001C                             7598  1           HSTRICMP   DS    F                   Received ICMP packets
 000020                             7599  1           HSTSICMP   DS    F                   Sent ICMP packets
 000024                             7600  1           HSTRTCP    DS    F                   Received TCP packets
 000028                             7601  1           HSTSTCP    DS    F                   Sent TCP packets
 00002C                             7602  1           HSTRUDP    DS    F                   Received UDP packets
 000030                             7603  1           HSTSUDP    DS    F                   Sent UDP packets
 000034                             7604  1           HSTRIPMS   DS    F                   Other received IP packets
 000038                             7605  1           HSTSIPMS   DS    F                   Other sent IP packets
 00003C                             7606  1           HSTRTCPB   DS    F                   Received TCP bytes
 000040                             7607  1           HSTSTCPB   DS    F                   Sent TCP bytes
 000044                             7608  1           HSTRRXMT   DS    F                   TCP retransmits received
 000048                             7609  1           HSTSRXMT   DS    F                   TCP retransmits sent
 00004C                             7610  1           HSTTCCUR   DS    F                   Current TCP connections
 000050                             7611  1           HSTRTCNT   DS    A                   Received TCP connection counters
 000054                             7612  1           HSTSTCNT   DS    A                   Outgoing TCP connections counters
 000058                             7613  1           HSTNMLEN   DS    A                   Host name length
 00005C                             7614  1           HSTNAME    DS    CL64                Host name
 00009C                0009C 0009C  7615                       END
1AMELIA   Misc dsects                                                                                                       Page   24
0D-Loc  Object Code    Addr1 Addr2  Stmt Lv Lineno    Source Statement           (Hibal 5, Asmedit 3.3)  HLASM R4.0  2004/03/15 13.11
+_____  ______ ____    _____ _____  ____ __ ______    ______ _________
0                                   7625
                                    7626                    Host name table entry
                                    7627
 000000                00000 00011  7628              HNT      RECORD BEGIN
 000000                             7636  1           HNTNEXT    DS    A                   Next entry
 000004                             7637  1           HNTEXPTM   DS    F                   Expiration time
 000008                             7638  1           HNTIPADD   DS    F                   IP address
 00000C 00                          7639  1           HNTFLAGS   FLAG
 HNTFLAGS.HNTFMAIL 80 ONES          7643  1                      FLAG  HNTFMAIL            A entry is mail host
 00000D                             7648  1           HNTTYPE    DS    X                   Entry type (A, MX, or CNAME)
 00000E                             7649  1           HNTMXPRF   DS    XL2                 Preference value (MX entry)
 000010                             7650  1           HNTNAMLN   DS    X                   Name length
 000011                             7651  1           HNTNAME    DS    0C                  Host name (lower case)
 000011                             7652  1           HNTNAML2   DS    0X                  Second name len (MX or CNAME entry)
 000011                             7653  1           HNTNAME2   DS    0C                  Second name
 000011                00011 00011  7654                       END
1AMELIA   NIT DSECT                                                                                                         Page   25
0D-Loc  Object Code    Addr1 Addr2  Stmt Lv Lineno    Source Statement           (Hibal 5, Asmedit 3.3)  HLASM R4.0  2004/03/15 13.11
+_____  ______ ____    _____ _____  ____ __ ______    ______ _________
0                                   7664
                                    7665
                                    7666                 Network Information Table.
                                    7667
                                    7668                   (Should be aligned on a VS page boundry by linkage editor.)
                                    7669

0000000                00000 1041A  7670              AMELIA   CSECT
                                    7672
 000000                             7673              NIT      DS    0D
 000000 D5C9E340                    7674                       DC    CL4'NIT'            Self-identification
 000004 F0F361F1F561F0F4            7675              NITASMDT DC    CL8'&SYSDATE'       ASM date
 00000C F1F34BF1F1404040            7676              NITASMTM DC    CL8'&SYSTIME'       ASM time
                                    7677
 000014 00000000                    7678              NITTRBEG DC    A(0)                Trace table start
 000018 00000000                    7679              NITTRCUR DC    A(0)                Most recent trace table entry
 00001C 00000000                    7680              NITTREND DC    A(0)                Trace table end
 000020 0000000000000000            7681              NITTRSAV DC    2A(0)               Trace save area
                                    7682
 000028 00000000                    7683              NITLGBEG DC    A(0)                Log buffer start
 00002C 00000000                    7684              NITLGCUR DC    A(0)                Most recent log buffer entry
 000030 00000000                    7685              NITLGEND DC    A(0)                Log buffer end
                                    7686              LOGCNT   EQU   60                  Log buffer entry count
                                    7687              LOGLEN   EQU   100                 Log buffer entry length
                                    7688
 000034 00000000                    7689              NITIP    DC    A(0)                Our IP address
 000038 00000000                    7690              NITSUBNT DC    A(0)                Our subnet
 00003C 00000000                    7691              NITMASK  DC    A(0)                Our subnet mask
 000040 00000000                    7692              NITGATE  DC    A(0)                Our gateway IP address
 000044 FFFFFFFF                    7693              NITLMASK DC    F'-1'               Local (campus) network mask
 000048 7F000001                    7694              NITIPLP  DC    A(X'7F000001')      Loopback address (127.0.0.1)
                                    7695
 00004C C1D4C5D3C9C14040            7696              NITJOBNM DC    CL8'AMELIA'         Our job name
 000054 C1D4C5D3C9C14040            7697              NITPATH  DC    CL8'AMELIA'         User path name
                                    7698
 00005C 00000000                    7699              NITDOMLN DC    F'0'                Local domain name length
 000060 4040404040404040            7700              NITDNAME DC    CL32' '             Local domain name
                                    7701
 000080 00000000                    7702              NITHOSTQ DC    A(0)                Host table head
 000084 00000000                    7703              NITHNTQ  DC    A(0)                Host name table head
 000088 00000000                    7704              NITHNTTM DC    F'0'                Time of last HNT TTL check
                                    7705              NITHNTT# EQU   20*60               HNT TTL check interval
 00008C 00002A30                    7706              NITHNTTL DC    A(180*60)           Max HNT entry TTL value (seconds)
                                    7707
 000090 00000000                    7708              NITTIDHT DC    A(0)                TCBID hash table pointer
 000094 00000000                    7709              NITIPAHT DC    A(0)                IP addr hash table pointer
 000098 00000000                    7710              NITHSTHT DC    A(0)                HST entry hash table pointer
                                    7711
 00009C 0000000000000000            7712              NITNSERV DC    (MAXNSERV)F'0'      Name server list
 0000AC 00000000                    7713              NITNSCNT DC    F'0'                Name server lookup counter
 0000B0 00000000                    7714              NITNSRET DC    F'0'                Name lookup retry counter
 0000B4 00000000                    7715              NITNSLQ  DC    A(0)                NSL entry queue
 0000B8 00000000                    7716              NITNSLID DC    A(0)                NSM lookup id
                                    7717
 0000BC 0000012C                    7718              NITKPBEG DC    F'300'              Time before begin keepalive
1AMELIA   NIT DSECT                                                                                                         Page   26
0D-Loc  Object Code    Addr1 Addr2  Stmt Lv Lineno    Source Statement           (Hibal 5, Asmedit 3.3)  HLASM R4.0  2004/03/15 13.11
+_____  ______ ____    _____ _____  ____ __ ______    ______ _________
00000C0 0000001E                    7719              NITKPRET DC    F'30'               Time between keepalive retries
 0000C4 00000258                    7720              NITKPTMO DC    F'600'              Time before keepalive timeout
                                    7721
 0000C8 0000000A                    7722              NITPROBE DC    F'10'               Time between closed window probes
                                    7723
 0000CC 00000000                    7724              NITFRAGQ DC    A(0)                IP fragment queue head
                                    7725
 0000D0 00000000                    7726              NITTCBQ  DC    A(0)                TCP connection block queue
 0000D4 00000000                    7727              NITTCBID DC    A(0)                TCP connection id
                                    7728
 0000D8 0000177000001770            7729              NITPORT  DC    A(6000,6000,65535)  TCP port (last,low,high)
 0000E4 0000025800000258            7730              NITPPORT DC    A(600,600,1023)     TCP priv port (last,low,high)
 0000F0 00000000                    7731              NITTPORT DC    A(0)                TCP port info queue
                                    7732
 0000F4 00000020                    7733              NITTCPTL DC    A(32)               TCP trace entry data length
 0000F8 00000000                    7734              NITTCPTC DC    A(0)                TCP trace table entry count
                                    7735
 0000FC 00000020                    7736              NITTCPTR DC    A(32)               Truncate length for MON TRUNCATE
                                    7737
 000100 3C                          7738              NITIPTTL DC    AL1(60)             IP packet time-to-live value
                                    7739
 000101 00                          7740              NITFLAG  FLAG
 NITFLAG.NITFSNSI  80 ONES          7744                       FLAG  NITFSNSI            - Sense id done
 NITFLAG.NITFUP    40 ONES          7749                       FLAG  NITFUP              - Network interface is up
 NITFLAG.NITFCTIO  20 ONES          7754                       FLAG  NITFCTIO            - Control I/O active
 NITFLAG.NITFRDIO  10 ONES          7759                       FLAG  NITFRDIO            - Read I/O active
 NITFLAG.NITFWRIO  08 ONES          7764                       FLAG  NITFWRIO            - Write I/O active
 NITFLAG.NITFTRC   04 ONES          7769                       FLAG  NITFTRC             - Tracing active
 NITFLAG.NITFPNTS  02 ONES          7774                       FLAG  NITFPNTS            - No time stamp on print
 NITFLAG.NITFUP1   01 ONES          7779                       FLAG  NITFUP1             - Interface 1st init completed
                                    7784
 000102 00                          7785              NITFLAG2 FLAG
 NITFLAG2.NITFMONP 80 ONES          7789                       FLAG  NITFMONP            - MONITOR command is priv'd
 000103 00                          7794              NITIFLAG FLAG
 NITIFLAG.NITFNODE 80 ONES          7798                       FLAG  NITFNODEV           - No I/O device (loopback only)
                                    7803
 000104 00                          7804              NITHXDFL FLAG ,                    HEXDUMP routine flags
 NITHXDFL.HXDFLEBC 80 ONES          7808                       FLAG  HXDFLEBC             - CHARS=EBCDIC
 NITHXDFL.HXDFLADD 40 ONES          7813                       FLAG  HXDFLADD             - FORMAT=ADDRESS
                                    7818
 000105 000000
 000108 000005CC                    7819              NITECBLS DC    A(NITCECB)          Control I/O ECB
 00010C 0000072C                    7820                       DC    A(NITIECB)          Input   I/O ECB
 000110 000007AC                    7821                       DC    A(NITOECB)          Output  I/O ECB
 000114 000001E8                    7822                       DC    A(NITPECB)          Path ECB
 000118 80000218                    7823                       DC    A(X'80000000'+NITTECB)  Timer ECB (last)
                                    7824
 00011C 00000000                    7825              NITPATQH DC    A(0)                UPATH queue head
 000120 00000000                    7826              NITPATQT DC    A(0)                UPATH queue tail
 000124 00000000                    7827              NITPCUR  DC    A(0)                Current UPATH ptr
 000128 00000000                    7828              NITPCNTR DC    A(0)                UPATH ID counter
 00012C 00000000                    7829              NITPSND# DC    F'0'                Path send count
 000130 00000000                    7830              NITPFUL# DC    F'0'                Path full queue count
 000134 00000000                    7831              NITSNDQ# DC    F'0'                Send queue > MAXSENDQ
 000138 00000000                    7832              NITBUFQ  DC    A(0)                Free GETBUF buffer queue
 00013C 00000000                    7833              NITBUFCT DC    F'0'                Buffer queue size
1AMELIA   NIT DSECT                                                                                                         Page   27
0D-Loc  Object Code    Addr1 Addr2  Stmt Lv Lineno    Source Statement           (Hibal 5, Asmedit 3.3)  HLASM R4.0  2004/03/15 13.11
+_____  ______ ____    _____ _____  ____ __ ______    ______ _________
0000140 00000000                    7834              NITBUFAL DC    F'0'                Buffers allocated
 000144 00000064                    7835              NITBUFMX DC    F'100'              Max buffer pool size
                                    7836
 000148 00000000                    7837              NITPNQH  DC    A(0)                Free PNUM queue head
 00014C 00000000                    7838              NITPNQT  DC    A(0)                Free PNUM queue tail
                                    7839
 000150 00000000                    7840              NITCWTO  DC    F'0'                DOM id for WTO message
 000154 00000000                    7841              NITCERRS DC    F'0'                Control I/O erros
 000158 0000000000000000            7842              NITCERRT DC    XL8'00'             Time of last control error
                                    7843
 000160 00000000                    7844              NITWTRYS DC    F'0'                Write try count for current packet
 000164 00000000                    7845              NITWERRS DC    F'0'                Write errors
 000168 0000000000000000            7846              NITWERRT DC    XL8'00'             Time of last write error
                                    7847
 000170 00000000                    7848              NITRERRS DC    F'0'                Read errors
 000174 0000000000000000            7849              NITRERRT DC    XL8'00'             Time of last read error
                                    7850              *
                                    7851              * K200 internal counters
                                    7852              *
 00017C 00000000                    7853              NITKTOTL DC    F'0'                Total frame detected
 000180 00000000                    7854              NITKFCS  DC    F'0'                FCS error count
 000184 00000000                    7855              NITKLOST DC    F'0'                Lost frames
 000188 00000000                    7856              NITKAERR DC    F'0'                Alignment errors
 00018C 00000000                    7857              NITKOVFL DC    F'0'                Buffer overflow count
                                    7858
 000190 00000000                    7859              NITTIME  DC    F'0'                Amelia start time
 000194 00000000                    7860              NITRBROD DC    F'0'                Broadcast packets received
 000198 00000000                    7861              NITRPACK DC    F'0'                Direct packets received
 00019C 00000000                    7862              NITRLOOP DC    F'0'                Loopback packets
 0001A0 00000000                    7863              NITSPACK DC    F'0'                Packets sent
 0001A4 00000000                    7864              NITIPCHK DC    F'0'                IP checksum errors
 0001A8 00000000                    7865              NITTCPCH DC    F'0'                TCP checksum errors
 0001AC 00000000                    7866              NITUDPCH DC    F'0'                UDP checksum errors
 0001B0 00000000                    7867              NITTCPOS DC    F'0'                TCP packets received out of seq
 0001B4 00000000                    7868              NITRFRAG DC    F'0'                IP fragment packets received
 0001B8 00000000                    7869              NITRICMP DC    F'0'                ICMP packets received
 0001BC 00000000                    7870              NITSICMP DC    F'0'                ICMP packets sent
 0001C0 00000000                    7871              NITRTCP  DC    F'0'                TCP packets received
 0001C4 00000000                    7872              NITSTCP  DC    F'0'                TCP packets sent
 0001C8 00000000                    7873              NITRUDP  DC    F'0'                UDP packets received
 0001CC 00000000                    7874              NITSUDP  DC    F'0'                UDP packets sent
 0001D0 00000000                    7875              NITRIPMS DC    F'0'                Other IP packets received
 0001D4 00000000                    7876              NITSIPMS DC    F'0'                Other IP packets sent
 0001D8 00000000                    7877              NITRTCNT DC    A(0)                TCP received connect counter queue
 0001DC 00000000                    7878              NITSTCNT DC    A(0)                TCP outgoing connect counter queue
 0001E0 00000000                    7879              NITBSYCT DC    A(0)                Busy session logging counter
 0001E4 00009C40                    7880              NITBSYTH DC    F'40000'            Busy session threshold
                                    7881
 0001E8 00000000                    7882              NITPECB  DC    F'0'                Path ECB
 0001EC 00/00/0000/0000/_           7883              NITPSG   SEGCB ,                   Path seg buffer for writes
 NITPSGCOD.NITPSGS 01 EQ
 NITPSGCOD.NITPSGW 02 EQ
 NITPSGCOD.NITPSGC 03 EQ
 NITPSGCOD.NITPSGS 04 EQ
 NITPSGCOD.NITPSGO 05 EQ
 NITPSGCOD.NITPSGC 06 EQ
1AMELIA   NIT DSECT                                                                                                         Page   28
0D-Loc  Object Code    Addr1 Addr2  Stmt Lv Lineno    Source Statement           (Hibal 5, Asmedit 3.3)  HLASM R4.0  2004/03/15 13.11
+_____  ______ ____    _____ _____  ____ __ ______    ______ _________
0NITPSGCOD.NITPSGM 07 EQ
                                    7970
 000218 00000000                    7971              NITTECB  DC    F'0'                Timer ECB
                                    7972
 00021C 0000000000000000            7973              NITFAIL  DC    XL24'00'            FAIL message text
                                    7974
 000234 0000000000000000            7975              NITRCP   DC    2A(0)               Return code string len, loc
 00023C 4040404040404040            7976              NITBLANK DC    CL256' '            Blanks
 00033C 0000000000000000            7977              NITZERO  DC    XL8'00'             Zeros
 000344 0000000000000000            7978              NITCLOCK DC    2XL4'00'            Current time from STCK
                                    7979
                                    7980                         SYSIN information and host table.
                                    7981
 00034C 0000000000000000_           7982              NITINDCB DCB DDNAME=SYSIN,DSORG=PS,MACRF=GL,EXLST=NITINX,EODAD=INEOF
                                    8024
 0003AC 0000000000000000_           8025              NITHTDCB DCB DDNAME=HOSTS,DSORG=PS,MACRF=GL,EXLST=NITINX,EODAD=INEOF
                                    8067
 00040C 85000410                    8068              NITINX   DC    0A(0),X'85',AL3(NITINOEX)  DCB open exit
                                    8069
 000410                             8070              NITINOEX LABEL
 USING  DCB,R1                      8072                       WITH  (DCB,R1),(*,R15),BEGIN
 USING  *,R15
 000410 9608 1030      00030        8097  1                      SET   DCBOFLGS.DCBOFPPC   Allow concat of unlike attributes
 000414 9500 1014/4770_00014        8104  1                      IF    (DCBBUFNO,Z),'MVI DCBBUFNO,2'  bufno=2 default
 000420 D601 103E 103E_0003E 0003E  8126  1                      IF    (DCBBLKSI,Z),BEGIN  No blksize...
 00042A D201 103E 1052 0003E 00052  8142  2                        MVC   DCBBLKSI,DCBLRECL   Blksize = lrecl
 000430 D601 103E 103E_0003E 0003E  8143  2                        IF    (DCBBLKSI,Z),'MVC DCBBLKSI,=AL2(6223)'  Default
 000440                             8165  1                      END
 000440 07FE                        8169  1                      BR    RAR
 DROP   *,R15                       8170                       END
 DROP   DCB,R1
                                    8183
                                    8184                         SYSPRINT information.
                                    8185
                                    8186            C NITPRDCB DCB   DDNAME=SYSPRINT,DSORG=PS,MACRF=PL,
 000442 0000/000000000_                                              RECFM=VBA,LRECL=200,BLKSIZE=6233,EXLST=NITPREXL
                                    8228
 0004A4 910004A8                    8229              NITPREXL DC    0A(0),X'91',AL3(NITPRAEX)  DCB abend exit
                                    8230
 USING  *,R15                       8231              NITPRAEX WITH  (*,R15),BEGIN
 0004A8 9204 1003      00003        8247  1                      MVI   @R1+3,4             Tell OS to ignore the abend
 0004AC 07FE                        8248  1                      BR    R14                 Return
 DROP   *,R15                       8249                       END
                                    8257
 0004B0 00/00/0096/0000/_           8258              NITPRSG  SEGCB NITPRBUF,RTN=PRTSEG
 NITPRSGCOD.NITPRS 01 EQ
 NITPRSGCOD.NITPRS 02 EQ
 NITPRSGCOD.NITPRS 03 EQ
 NITPRSGCOD.NITPRS 04 EQ
 NITPRSGCOD.NITPRS 05 EQ
 NITPRSGCOD.NITPRS 06 EQ
 NITPRSGCOD.NITPRS 07 EQ
 0004DC 00                          8345              NITPRCC  DC    X'00'               Pending CC character
 0004DD                             8346              NITPRBUF DS    CL150               SYSPRINT seg buffer
1AMELIA   NIT DSECT                                                                                                         Page   29
0D-Loc  Object Code    Addr1 Addr2  Stmt Lv Lineno    Source Statement           (Hibal 5, Asmedit 3.3)  HLASM R4.0  2004/03/15 13.11
+_____  ______ ____    _____ _____  ____ __ ______    ______ _________
0                                   8347
                                    8348                         NETCTRL device information.
                                    8349
 000574 D5C5E3C3E3D9D3_00574 0059C  8350              NITCDCB  DCB   DDNAME=NETCTRL,MACRF=E
00005A8 C2/00/0000/7F/00_           8363              NITCIOB  IOB   DCB=NITCDCB,ECB=NITCECB
 0005C9 000000
 0005CC 00000000                    8383              NITCECB  DC    F'0'                Completion ECB
                                    8384
                                    8385                         Sense CCW
                                    8386
 0005D0 040005D820000018            8387              NITSNCCW CCW   X'04',NITSENSE,X'20',24   Sense
                                    8388
 0005D8                             8389              NITSENSE DS    XL24                Sense data
                                    8390
                                    8391                         Sense ID CCW
                                    8392
 0005F0 E40005F820000080            8393              NITIDCCW CCW   X'E4',NITSINFO,X'20',L'NITSINFO  Sense ID
                                    8394
 0005F8                             8395              NITSINFO DS    XL128               Sense information area
                                    8396
                                    8397                         Set link mode (enable K200) CCWs and data area.
                                    8398
 000678 2F00000060000001            8399              NITSLCCW CCW   X'2F',0,X'60',1                  Disable
 000680 2B00069060000009            8400              NITLMCCW CCW   X'2B',NITSLINF,X'60',L'NITSLINF  Set Link Mode
 000688 0300000020000001            8401                       CCW   X'03',0,X'20',1                  NOP
                                    8402
 000690                             8403              NITSL    DS    0D                  Link mode paramaters:
 000690 00                          8404                       DC    X'00'               : Mode
 000691 01                          8405                       DC    X'01'               : No. of ID's
 000692 06                          8406                       DC    X'06'               : Constant (length of ID)
 000693 000000000000                8407              NITETHER DC    XL6'00'             : *** Our Ethernet Addr ***
                                    8408              NITSLINF EQU   NITSL,*-NITSL,C'X'
                                    8409
                                    8410                         Read and reset buffer CCWs and data area
                                    8411
 000699 00000000000000
 0006A0 A40006B020000018            8412              NITRBCCW CCW   X'A4',NITRRB,X'20',24   Read and reset buffer
                                    8413
 0006A8                             8414              NITRRBTM DS    XL8                 Time stamp
 0006B0                             8415              NITRRB   DS    XL24                Data area
                                    8416
                                    8417                         Disable interface CCW
                                    8418
 0006C8 2F00000020000001            8419              NITDSCCW CCW   X'2F',0,X'20',1     Disable CCW
0                                   8421
                                    8422                         NETIN device information.
                                    8423
 0006D0 D5C5E3C9D54040_006D0 006F8  8424              NITIDCB  DCB   DDNAME=NETIN,MACRF=E
0000704 00000000/C2/00/0_           8437              NITIIOB  IOB   DCB=NITIDCB,ECB=NITIECB,CAW=NITPRCCW
 000729 000000
 00072C 00000000                    8457              NITIECB  DC    F'0'                Read completion ECB
                                    8458
 000730 0600000070000001            8459              NITPRCCW CCW   X'06',0,X'70',1             .Prepare
1AMELIA   NIT DSECT                                                                                                         Page   30
0D-Loc  Object Code    Addr1 Addr2  Stmt Lv Lineno    Source Statement           (Hibal 5, Asmedit 3.3)  HLASM R4.0  2004/03/15 13.11
+_____  ______ ____    _____ _____  ____ __ ______    ______ _________
0000738 22000000200005EC            8460              NITRDCCW CCW   X'22',*-*,X'20',ENETMAXL+2  .Read
                                    8461
 000740                             8462              NITIBUFP DS    A                   Read I/O buffer ptr
 000744                             8463              NITRDTIM DS    XL8                 Time of last read
                                    8464
 00074C 00000000                    8465              NITLPQH  DC    A(0)                Loopback buffer queue head
 000750 00000000                    8466              NITLPQT  DC    A(0)                Loopback buffer queue tail
                                    8467
                                    8468                         NETOUT device information.
                                    8469
 000754 D5C5E3D6E4E340_00754 0077C  8470              NITODCB  DCB   DDNAME=NETOUT,MACRF=E
0000788 C2/00/0000/7F/00_           8483              NITOIOB  IOB   DCB=NITODCB,ECB=NITOECB,CAW=NITWRCCW
 0007A9 000000
 0007AC 00000000                    8503              NITOECB  DC    F'0'                Write completion ECB
                                    8504
 0007B0 0100000020000000            8505              NITWRCCW CCW   X'01',*-*,X'20',*-*         .Write
                                    8506
 0007B8                             8507              NITOBUFP DS    A                   Write I/O buffer ptr
                                    8508
 0007BC 00/00/0000/0000/_           8509              NITOSG   SEGCB ,
 NITOSGCOD.NITOSGS 01 EQ
 NITOSGCOD.NITOSGW 02 EQ
 NITOSGCOD.NITOSGC 03 EQ
 NITOSGCOD.NITOSGS 04 EQ
 NITOSGCOD.NITOSGO 05 EQ
 NITOSGCOD.NITOSGC 06 EQ
 NITOSGCOD.NITOSGM 07 EQ
 0007E8 00000000                    8596              NITOQH   DC    A(0)                Pending write buffer queue head
 0007EC 00000000                    8597              NITOQT   DC    A(0)                Pending write buffer queue tail
 0007F0 00000000                    8598              NITOQCNT DC    A(0)                Write queue count
 0007F4 00000000                    8599              NITOQMAX DC    A(0)                Write queue max count
                                    8600
 0007F8                             8601              NITSCNCB SCANCB ,                  Scanner work area
                                    8615
                                    8616                       QLTORG
                                    8629              NITEND   EQU   *                   End of NIT
1AMELIA   AMELIA - NIT Trace routine                                                                                        Page   31
0Loc    Object Code    Addr1 Addr2  Stmt Lv Lineno    Source Statement           (Hibal 5, Asmedit 3.3)  HLASM R4.0  2004/03/15 13.11
+___    ______ ____    _____ _____  ____ __ ______    ______ _________
0                                   8631
                                    8632
                                    8633                      Trace table routine
                                    8634

0                                   8636
                                    8637                   Trace table entry format
                                    8638
 000000                00000 00050  8639              TRCENTRY RECORD BEGIN
 000000                             8647  1           TRCCLOCK   DS    D                   Time stamp
 000008                             8648  1           TRCNAME    DS    CL8                 Routine name or trace id
 000010                             8649  1           TRCREGS    DS    16F                 Registers
 000050                00050 00050  8650                       END
0                                   8660
                                    8661                   Trace routine -- on entry R14 and R15 have been saved in NITTRSAV
                                    8662
 USING  NIT,R12                     8663                       USING NIT
000081A 9104 C101/47E0_00101        8673              NITTRACE IF    NITFTRC,BEGIN       If tracing active,
 000822 58F0 C018            00018  8689  1                      L     R15,NITTRCUR        Get current entry address
 000826 41FF 0050            00050  8690  1                      LA    R15,L'TRCENTRY(R15) Step to next entry
 00082A 59F0 C01C/4750_      0001C  8691  1                      IF    (R15,GE,NITTREND),'L R15,NITTRBEG'  Check for wrap
 000836 50F0 C018            00018  8714  1                      ST    R15,NITTRCUR        Save current entry pointer
 USING  TRCENTRY,R15                8715  1                      WITH  (TRCENTRY,R15)
 00083A B205 F000      00000        8728  1                      STCK  TRCCLOCK            Time stamp
 00083E D207 F008 E000 00008 00000  8729  1                      MVC   TRCNAME,@R14        Move in id
 000844 900D F010            00010  8730  1                      STM   R0,R13,TRCREGS      Save R0-R13
 000848 D207 F048 C020 00048 00020  8731  1                      MVC   TRCREGS+14*4(8),NITTRSAV    Move in R14-R15
 DROP   TRCENTRY,R15                8732                       END
 00084E 47FE 0008            00008  8741                       B     8(R14)              Return to caller (step over id)
 DROP   NIT,R12                     8742                       DROP  NIT
                                    8750                       QLTORG
1AMELIA   UPATH DSECT                                                                                                       Page   32
0Loc    Object Code    Addr1 Addr2  Stmt Lv Lineno    Source Statement           (Hibal 5, Asmedit 3.3)  HLASM R4.0  2004/03/15 13.11
+___    ______ ____    _____ _____  ____ __ ______    ______ _________
0                                   8763
                                    8764
                                    8765                  User Path control block.
                                    8766
                                    8767                    MUST BE EXACTLY THE SAME AS MPATH!
                                    8768

0000000                00000 001A0  8769              UPATH    RECORD BEGIN
 000000 D7C1E3C8                    8777  1           UPATHID    DC    CL4'PATH'
 000004 00000000                    8778  1           UPATLINK   DC    A(0)                Next UPATH on waiting queue
 000008 00000000                    8779  1           UPATIDNO   DC    F'0'                Path ID number
                                    8780  1
 00000C 00                          8781  1           UPATSPST   DC    X'00'               Suzan post flag byte
 00000D 00                          8782  1           UPATSFLG   DC    X'00'               Copy of Suzan post flag byte
                                    8783  1
 00000E 00                          8784  1           UPATFLAG   FLAG
 UPATFLAG.UPATFO   80 ONES          8788  1                      FLAG  UPATFO              - Path has opened
 UPATFLAG.UPATFIP  40 ONES          8793  1                      FLAG  UPATFIP             - IP mode
 UPATFLAG.UPATFHDR 20 ONES          8798  1                      FLAG  UPATFHDR            - Send length word before data
 UPATFLAG.UPATFSPR 10 ONES          8803  1                      FLAG  UPATFSPR            - Partner is sys priv'd
 UPATFLAG.UPATFOPR 08 ONES          8808  1                      FLAG  UPATFOPR            - Partner is opr priv'd
                                    8813  1
 00000F                             8814  1           UPATWRC    DS    X                   Last write return code
                                    8815  1
 000010 00000000                    8816  1           UPATSND#   DC    F'0'                Send count
 000014 00000000                    8817  1           UPATFUL#   DC    F'0'                Full queue on send count
                                    8818  1
 000018 00000000                    8819  1           UPATPNQH   DC    A(0)                PNUM queue head (or zero)
 00001C 00000000                    8820  1           UPATPNQT   DC    A(0)                PNUM queue tail (or zero)
                                    8821  1
 000020 00000000                    8822  1           UPATDLOC   DC    A(0)                Remaining data location
 000024 00000000                    8823  1           UPATDLEN   DC    A(0)                Remaining data length
                                    8824  1
 000028 00000000                    8825  1           UPATPASC   DC    F'0'                Partner's ASCB ptr
 00002C 0000                        8826  1           UPATPLNO   DC    H'0'                Partner's line number
 00002E 0000000000000000            8827  1           UPATPJOB   DC    XL8'00'             Partner's jobname
 000036 0000000000000000            8828  1           UPATPACT   DC    XL8'00'             Partner's account
 00003E 0000000000000000            8829  1           UPATPNAM   DC    XL20'00'            Partner's user name
                                    8830  1
                                    8831  1                        Packet monitoring control fields
                                    8832  1
 000052 0000                        8833  1           UPATMENP   DC    H'0'                Ethernet protocol type
 000054 00                          8834  1           UPATMIPP   DC    X'0'                IP protocol type
 000055 00000000                    8835  1           UPATMIPA   DC    XL4'00'             IP address to monitor
 000059 00                          8836  1           UPATMFLG   FLAG
 UPATMFLG.UPATMACT 80 ONES          8840  1                      FLAG  UPATMACT            Monitoring active on path
 UPATMFLG.UPATMTRU 40 ONES          8845  1                      FLAG  UPATMTRU            TRUNCATE option specified
 UPATMFLG.UPATMNBR 20 ONES          8850  1                      FLAG  UPATMNBR            NOBROADCAST option
 UPATMFLG.UPATMBRO 10 ONES          8855  1                      FLAG  UPATMBRO            BROADCAST option
 UPATMFLG.UPATMEXT 08 ONES          8860  1                      FLAG  UPATMEXT            EXTERNAL option
                                    8865  1           UPATMON    EQU   UPATMENP,*-UPATMENP,C'C'
                                    8866  1
                                    8867  1         C            PATH  VERSION=2,PFX=UPAT,FLAG=UPATSPST,ECB=*-*,
                                          1                            MYTAG=MYTAG,PASS=PROD,BUFSIZE=16384
 00005A 0000                              1          +
1AMELIA   UPATH DSECT                                                                                                       Page   33
0Loc    Object Code    Addr1 Addr2  Stmt Lv Lineno    Source Statement           (Hibal 5, Asmedit 3.3)  HLASM R4.0  2004/03/15 13.11
+___    ______ ____    _____ _____  ____ __ ______    ______ _________
000005C                             8868  1 01-PATH  +UPAT       DC    0F'0'
 00005C 00000000                    8870  1 02-DEFIN +UPATMGC    DC    AL4(0)
 000060 00000000                    8872  1 02-DEFIN +UPATDJNM   DC    AL4(0)
 000064 D4E8E3C1C7404040            8874  1 02-DEFIN +UPATMY     DC    CL8'MYTAG'
 00006C FFFFFFFFFFFFFFFF            8876  1 02-DEFIN +UPATYOU    DC    XL8'FFFFFFFFFFFFFFFF'
 000074 80                          8878  1 02-DEFIN +UPATMFL    DC    AL1(1*X'80'+0*X'40'+0*X'20')
                                    8879  1          +
                                    8880  1 01-PATH  +UPATVER2    EQU  X'80'         CALLER IS USING VERSION 2
                                    8881  1 01-PATH  +UPATMCTL    EQU  X'40'         CALLER ASKS TERMINATION CONTROL
                                    8882  1 01-PATH  +UPATMNAM    EQU  X'20'         CALLER PROVIDES CALLEE NAME
                                    8883  1 01-PATH  +UPATMDP1    EQU  X'10'         DUPLICATE TAGS FOUND: MY=PCBO, YOU=PCBA
                                    8884  1 01-PATH  +UPATMDP2    EQU  X'08'         DUPLICATE TAGS FOUND: MY=PCBA, YOU=PCBO
                                    8885  1          +
 000075 000000                      8887  1 02-DEFIN +UPATOECB   DC    AL3(0)
 000078 00004000                    8889  1 02-DEFIN +UPATBUF    DC    AL4(16384)
 00007C 0000000C                    8891  1 02-DEFIN +UPATECBF   DC    AL4(UPATSPST)
                                    8892  1          +
                                    8893  1 01-PATH  +UPATFCLS    EQU   X'80'         I AM POSTED BECAUSE HE CLOSED
                                    8894  1 01-PATH  +UPATFFQE    EQU   X'40'         I AM POSTED BECAUSE HIS FULL Q EMPTIED
                                    8895  1 01-PATH  +UPATFNI     EQU   X'20'         I AM POSTED BECAUSE NEW INFO IN MY Q
                                    8896  1 01-PATH  +UPATFDP     EQU   X'10'         I AM POSTED AT HIS DISCRETION
                                    8897  1 01-PATH  +UPATFOPN    EQU   X'08'         I AM POSTED BECAUSE HE OPENED
                                    8898  1 01-PATH  +UPATFCLC    EQU   X'04'         I AM POSTED BECAUSE MY CLOSE IS COMPLETE
                                    8899  1          +
 000080 D7D9D6C4                    8901  1 02-DEFIN +UPATPASS   DC    CL4'PROD'
 000084 00000000                    8903  1 02-DEFIN +UPATECB    DC    AL4(*-*)
 000088 00000000                    8905  1 02-DEFIN +UPATEXIT   DC    AL4(0)
 00008C 00000000                    8907  1 02-DEFIN +UPATPINP   DC    XL4'0'
 000090 00000000                    8909  1 02-DEFIN +UPATRESV   DC    XL4'0'
                                    8910  1          +*
                                    8911  1          +*  VERSION 2 RETURN CODES
                                    8912  1          +*
                                    8913  1 01-PATH  +UPATROK     EQU  0                       COMPLETE OK
                                    8914  1 01-PATH  +UPATRIFC    EQU  4                       INVALID FUNCTION CODE
                                    8915  1 01-PATH  +UPATRPMW    EQU  8                       INVALID PATH MAGIC WORD
                                    8916  1 01-PATH  +UPATRBAF    EQU  12                      PARTNER'S BUFFER AREA FULL
                                    8917  1 01-PATH  +UPATRNOP    EQU  16                      PARTNER NOT THERE
                                    8918  1 01-PATH  +UPATRBOM    EQU  20                      BUFFER OVER PARTNER'S MAXIMUM
                                    8919  1 01-PATH  +UPATRIBS    EQU  24                      RECEIVE BUFFER TOO SMALL
                                    8920  1 01-PATH  +UPATRBPI    EQU  28                      INVALID BUFFER POINTER
                                    8921  1 01-PATH  +UPATRIAD    EQU  32                      INVALID ADDRESS
                                    8922  1 01-PATH  +UPATRES1    EQU  36                      RESERVED
                                    8923  1 01-PATH  +UPATRES2    EQU  40                      RESERVED
                                    8924  1 01-PATH  +UPATRES3    EQU  44                      RESERVED
                                    8925  1 01-PATH  +UPATRES4    EQU  48                      RESERVED
                                    8926  1          +
                                    8927  1 01-PATH  +UPATSIZE    EQU  *-UPAT        LENGTH OF PATH BLOCK
                                    8928  1
 000094 0000000000000000            8929  1           UPATXAND   DC    XL64'00'            Packet filter: AND mask
 0000D4 0000000000000000            8930  1           UPATXCMP   DC    XL64'FF'            Packet filter: COMPARE mask
 000114 0000000000000000            8931  1           UPATRTIM   DC    XL8'00'             Time of last received msg
 00011C 00000000                    8932  1           UPATRLEN   DC    F'0'                Length of last received msg
 000120 0000000000000000            8933  1           UPATRDAT   DC    XL128'00'           Last received message
 0001A0                001A0 001A0  8934                       END
1AMELIA   UPATH DSECT                                                                                                       Page   34
0Loc    Object Code    Addr1 Addr2  Stmt Lv Lineno    Source Statement           (Hibal 5, Asmedit 3.3)  HLASM R4.0  2004/03/15 13.11
+___    ______ ____    _____ _____  ____ __ ______    ______ _________
0                                   8944                       COPY  PINFO               Suzan "path info" format
                                    8945=            =
                                    8946=            =
                                    8947=            =  USER PATH INFORMATION
                                    8948=            =
                                    8949=            =
                                    8950=            =  Subsystems provides this information whenever they open user
                                    8951=            =  paths.  The information is set with the Suzan SVC
                                    8952=            =  "SETINFO" call (a 1/88 Suzan SVC extension).
                                    8953=            =
                                    8954=            =  Once a path is opened, a program can sense this information
                                    8955=            =  for the partner's side of the path.
                                    8956=            =
                                    8957=            =  Extended, 10/20/91, Niz
                                    8958=            =  Caller ID added for Wings, 6/92, Niz
                                    8959=            =

0000000                00000 00080  8960             =PINFO    RECORD BEGIN
 000000 D7C9D5C6                    8968  1          =           DC    CL4'PINF'           Self identification
 000004 00000000                    8969  1          =           DC    F'0'                Reserved
 000008 4040404040404040            8970  1          =PINFOSYS   DC    CL8' '              Subsystem name ("WYLBUR", etc.)
 000010 4040404040404040            8971  1          =PINFOACC   DC    CL8' '              User account ("gg.uuu")
 000018 4040404040404040            8972  1          =PINFOPRJ   DC    CL8' '              Project (subgroup)
 000020 40404040                    8973  1          =PINFOCAL   DC    CL4' '              Caller ID ("AUTH" or zeros)
 000024 00000000                    8974  1          =           DC    XL4'00'             Reserved
 000028 0000000000000000            8975  1          =           DC    2F'0'               Reserved
 000030 00                          8976  1          =PINFOIFL   FLAG  ,                   Copy of KWRIFL flags
 000031 00                          8980  1          =PINFOAFL   FLAG  ,                   Copy of KWRAFL flags
 000032 FFFF                        8984  1          =PINFOLNO   DC    H'-1'               Milten line-number (or -1)
 000034 00000000                    8985  1          =PINFOID    DC    F'0'                Milten session id
 000038 4040404040404040            8986  1          =PINFONAM   DC    CL20' '             User name
 00004C 4040404040404040            8987  1          =PINFONAMX   DC   CL20' '  (Expansion if name field expands)
 000060 0000000000000000            8988  1          =PINFOTAG   DC    XL16'00'            Session tag
 000070 0000000000000000            8989  1          =           DC    XL16'00'            Reserved
 000080                00080 00080  8990             =         END
1AMELIA   UPATH DSECT                                                                                                       Page   35
0Loc    Object Code    Addr1 Addr2  Stmt Lv Lineno    Source Statement           (Hibal 5, Asmedit 3.3)  HLASM R4.0  2004/03/15 13.11
+___    ______ ____    _____ _____  ____ __ ______    ______ _________
0                                   9000
                                    9001
                                    9002                  Model Path control block.
                                    9003
                                    9004                    MUST BE EXACTLY THE SAME AS UPATH!
                                    9005

0000858                             9006              MPATHST  DS    0D
 000858 D7C1E3C8                    9007              MPATHID  DC    CL4'PATH'
 00085C 00000000                    9008              MPATLINK DC    A(0)                Next UPATH on waiting queue
 000860 00000000                    9009              MPATIDNO DC    F'0'                Path ID number
                                    9010
 000864 00                          9011              MPATSPST DC    X'00'               Suzan post flag byte
 000865 00                          9012              MPATSFLG DC    X'00'               Copy of Suzan post flag byte
                                    9013
 000866 00                          9014              MPATFLAG FLAG
 MPATFLAG.MPATFO   80 ONES          9018                       FLAG  MPATFO              - Path has opened
 MPATFLAG.MPATFIP  40 ONES          9023                       FLAG  MPATFIP             - IP mode
                                    9028
 000867                             9029              MPATWRC  DS    X                   Last write return code
                                    9030
 000868 00000000                    9031              MPATSND# DC    F'0'                Send count
 00086C 00000000                    9032              MPATFUL# DC    F'0'                Full queue on send count
                                    9033
 000870 00000000                    9034              MPATPNQH DC    A(0)                PNUM queue head (or zero)
 000874 00000000                    9035              MPATPNQT DC    A(0)                PNUM queue tail (or zero)
                                    9036
 000878 00000000                    9037              MPATDLOC DC    A(0)                Remaining data location
 00087C 00000000                    9038              MPATDLEN DC    A(0)                Remaining data length
                                    9039
 000880 00000000                    9040              MPATPASC DC    F'0'                Partner's ASCB ptr
 000884 0000                        9041              MPATPLNO DC    H'0'                Partner's line number
 000886 0000000000000000            9042              MPATPJOB DC    XL8'00'             Partner's jobname
 00088E 0000000000000000            9043              MPATPACT DC    XL8'00'             Partner's account
 000896 0000000000000000            9044              MPATPNAM DC    XL20'00'            Partner's user name
                                    9045
 0008AA 0000000000000000            9046              MPATMON  DC    XL(L'UPATMON)'00'   Packet monitoring control area
                                    9047
                                    9048            C          PATH  VERSION=2,PFX=MPAT,FLAG=*-*,ECB=*-*,
 0008B2 0000/00000000_                                               MYTAG=MYTAG,PASS=PROD,BUFSIZE=16384
                                    9109
 0008EC 0000000000000000            9110              MPATXAND DC    XL64'00'            Packet filter: AND mask
 00092C 0000000000000000            9111              MPATXCMP DC    XL64'FF'            Packet filter: COMPARE mask
                                    9112
 00096C 0000000000000000            9113              MPATRTIM DC    XL8'00'             Time of last received msg
 000974 00000000                    9114              MPATRLEN DC    F'0'                Length of last received msg
 000978 0000000000000000            9115              MPATRDAT DC    XL128'00'           Last received message
                                    9116              MPATH    EQU   MPATHST,*-MPATHST,C'X'
                                    9117
 0009F8                             9118                       DS    0SL2(L'UPATH-L'MPATH,L'MPATH-L'UPATH)
1AMELIA   Initialization                                                                                                    Page   36
0Loc    Object Code    Addr1 Addr2  Stmt Lv Lineno    Source Statement           (Hibal 5, Asmedit 3.3)  HLASM R4.0  2004/03/15 13.11
+___    ______ ____    _____ _____  ____ __ ______    ______ _________
0                                   9120
                                    9121
                                    9122                      Main entry point - initialization
                                    9123

0                                   9124                       ENTRY STARTUP
                                    9125
 0009F8 0DB0                        9126              STARTUP  BASE  ,                   Get addressability
 USING  *,R11
 0009FA 1861                        9140                       LR    R6,R1               Save OS parm ptr
                                    9141
 0009FC 58C0 B4AE            00EA8  9142                       L     NITR,=A(NIT)
 USING  NIT,R12                     9143                       USING NIT                 Network information table ptr
                                    9152
 000A00 4510 B00E/0000_      00A08  9153                       MODESET MODE=SUP          (Causes S047 abend if not auth)
                                    9160
 000A0E 0700/4510 B01E_             9161                       GETMAIN R,LV=32*1024      Get a 32K stack
 000A1E 18D1                        9168                       LR    SPR,R1              Set stack
 000A20 1891                        9169                       LR    WAR,R1              Ditto
                                    9170
 000A22 5830 B4B2            00EAC  9171                       L     R3,=A(100*L'TRCENTRY)   Trace table size
 000A26 1803/4510 B032_             9172                       GETMAIN R,LV=(3)          Get trace table storage
 000A2E 5010 C014            00014  9177                       ST    R1,NITTRBEG         Save pointer
 000A32 5010 C018            00018  9178                       ST    R1,NITTRCUR         Init entry pointer
 000A36 4101 3000            00000  9179                       LA    R0,0(R1,R3)         Table end address
 000A3A 5000 C01C            0001C  9180                       ST    R0,NITTREND         Save address
 000A3E 1821                        9181                       LR    R2,R1               Copy address for MVCL
 000A40 1BFF                        9182                       CLEAR R15
 000A42 0E2E                        9186                       MVCL  R2,R14              Clear trace table
 000A44 9604 C101      00101        9187                       SET   NITFTRC             Flag tracing active
 000A48 90EF C020/4DE0_      00020  9193                       PTRACE Startup            Add first entry
                                    9198
 000A5C 5830 B4B6            00EB0  9199                       L     R3,=A(LOGCNT*LOGLEN)  Log buffer size
 000A60 1803/4510 B06C_             9200                       GETMAIN R,LV=(3)          Get log buffer area
 000A68 5010 C028            00028  9205                       ST    R1,NITLGBEG         Save pointer
 000A6C 5010 C02C            0002C  9206                       ST    R1,NITLGCUR         Init entry pointer
 000A70 4101 3000            00000  9207                       LA    R0,0(R1,R3)         End address
 000A74 5000 C030            00030  9208                       ST    R0,NITLGEND         Save end address
 000A78 1821                        9209                       LR    R2,R1               Copy address
 000A7A 1BFF                        9210                       CLEAR R15
 000A7C 0E2E                        9214                       MVCL  R2,R14              Clear log buffer
                                    9215
 000A7E 5830 B4BA            00EB4  9216                       L     R3,=A(HASHSIZE*4*3)  Space for 3 hash tables
 000A82 1803/4510 B08E_             9217                       GETMAIN R,LV=(3)          Get storage
 000A8A 1821                        9222                       LR    R2,R1               Copy address
 000A8C 1BFF                        9223                       CLEAR R15
 000A8E 0E2E                        9227                       MVCL  R2,R14              Clear storage
 000A90 5010 C090            00090  9228                       ST    R1,NITTIDHT         TCBID hash table
 000A94 5A10 B4BE            00EB8  9229                       A     R1,=A(HASHSIZE*4)   Start of second table
 000A98 5010 C094            00094  9230                       ST    R1,NITIPAHT         IP address hash table
 000A9C 5A10 B4BE            00EB8  9231                       A     R1,=A(HASHSIZE*4)   Start of third table
 000AA0 5010 C098            00098  9232                       ST    R1,NITHSTHT         Host HST entry hash table
                                    9233
 000AA4 1B00/181D/1BFF_             9234                       PRIVCHK ,                 System privs required (local)
                                    9261
1AMELIA   Initialization                                                                                                    Page   37
0Current Usings:  (*,R11) (NIT,R12)
0Loc    Object Code    Addr1 Addr2  Stmt Lv Lineno    Source Statement           (Hibal 5, Asmedit 3.3)  HLASM R4.0  2004/03/15 13.11
+___    ______ ____    _____ _____  ____ __ ______    ______ _________
0000AC0 58E0 B4C6/0DEE       00EC0  9262                       ACALL AMODE31             Switch to 31-bit mode
                                    9266
 000AC6 0700/4510 B0EA_             9267                       ESTAE  ESTAE,PURGE=NONE,ASYNCH=YES,TERM=YES
 000AEE 12FF/4780 B124              9286                       IF    (R15,NZ),BEGIN      Can't set STAE exit...
 000AF4 4510 B122/0024_      00B1C  9300  1                      WTO   'Note: ESTAE exit can not be set.'
 000B1E                             9308                       END
                                    9312
 000B1E 1B11                        9313                       CLEAR R1                  Zero means no ECB on SYSEVENT
 000B20 4100 000E/0A5F       0000E  9317                       SYSEVENT TRANSWAP         Ensure non-swappable fixed pages
                                    9320
 000B26 4120 C000            00000  9321                       LA    R2,NIT
 000B2A 5420 B4CA            00EC4  9322                       N     R2,=A(X'FFFFF000')
 000B2E 4130 C81A            0081A  9323                       LA    R3,NITEND
 000B32 5430 B4CA            00EC4  9324                       N     R3,=A(X'FFFFF000')
 000B36 1923/4780 B14C_             9325                       IF    (R2,NE,R3),'FAIL "NIT crosses page boundary"'
                                    9349
 000B46 181C/4800 B542              9350                       SETMSG NIT,LH:=AL2(L'NIT)
 000B4C 5900 B4CE/47D0_      00EC8  9363                       IF    (R0,GT,4096),'FAIL "NIT too big"'
 000B5E 58E0 B4D2/0DEE       00ECC  9389                       ACALL FIX                 Page fix NIT
 000B64 B205 D000      00000        9393                       STCK  @R13
 000B68 D203 C190 D000 00190 00000  9394                       MVC   NITTIME,@R13        Save start time
                                    9395
 000B6E 4100 0004/181D_      00004  9396                       HASPSERV JOBNAME,@R13     Get our job name
 000B78 D207 C04C D000 0004C 00000  9416                       MVC   NITJOBNM,@R13
                                    9417
                                    9418                         Open SYSPRINT.
                                    9419
 000B7E 4120 C444            00444  9420                       LA    R2,NITPRDCB
 USING  DCB,R2                      9421                       WITH  (DCB,R2),BEGIN
 000B82 58E0 B4D6/0DEE       00ED0  9435  1                      ACALL AMODE24             ********
 000B88 4510 B196/8F/0_      00B90  9439  1                      OPEN  (NITPRDCB,(OUTPUT))
 000B92 58E0 B4C6/0DEE       00EC0  9445  1                      ACALL AMODE31             ********
 DROP   DCB,R2                      9449                       END
                                    9457
 000B98 4110 B4DA/4100_      00ED4  9458                       SETMSG 'SHOW VERSION'
 000BA0 41F0 C4B0            004B0  9462                       SEGLD NITPRSG
 000BA4 58E0 B4E6/0DEE       00EE0  9470                       ACALL COMMAND
                                    9474
 000BAA 4110 B54A/4100_      00F44  9475                       SEG   'Started at ',,NITPRSG
 000BBC 18FD/41D0 D020              9492                       XPUSH ,,32,PTR=R15
 000BC2 1B00/1B11                   9495                       CLEAR R0,R1
 000BC6 58E0 B4EE/0DEE       00EE8  9501                       VCALL FMTXDATE            Time and date
 000BCC 41F0 C4B0/58E0_      004B0  9505                       SEG   (R1),(R0)
 000BD6 4BD0 B544            00F3E  9528                       XPOP  ,,32
 000BDA 1B00/41F0 C4B0_             9530                       SEGWR
                                    9554
                                    9555                         Scan SYSIN parameters.
                                    9556
 000BE6 5800 B4F6            00EF0  9557                       L     R0,=A(SCANPARM)     Scanning routine
 000BEA 4110 C34C            0034C  9558                       LA    R1,NITINDCB         SYSIN DCB address
 000BEE 41F0 C4B0            004B0  9559                       LA    R15,NITPRSG         SEGCB address
 000BF2 58E0 B4FA/0DEE       00EF4  9560                       ACALL SCNSYSIN
1AMELIA   Initialization                                                                                                    Page   38
0Current Usings:  (*,R11) (NIT,R12)
0Loc    Object Code    Addr1 Addr2  Stmt Lv Lineno    Source Statement           (Hibal 5, Asmedit 3.3)  HLASM R4.0  2004/03/15 13.11
+___    ______ ____    _____ _____  ____ __ ______    ______ _________
0                                   9564
                                    9565                         Now scan PARM for any overrides.
                                    9566
 000BF8 5820 6000            00000  9567                       L     R2,@R6              OS parm ptr
 000BFC 4110 2002/4800_      00002  9568                       SETMSG @R2+2,LH:@R2        OS parm loc, len
 000C04 58E0 B4F6/0DEE       00EF0  9581                       ACALL SCANPARM
                                    9585
                                    9586                         Check that we have necessary IP address information
                                    9587
 000C0A D603 C034 C034_00034 00034  9588                       IF    (NITIP,Z),'FAIL "Missing IP address"'
                                    9613            C          IF    ((NITGATE,NZ),AND,(NITMASK,Z)),
 000C1E D603 C040 C040_00040 00040                                   'FAIL "NETMASK not specified"'
 000C3C D203 C038 C034 00038 00034  9653                       MVC   NITSUBNT,NITIP      Isolate our IP subnet
 000C42 D403 C038 C03C 00038 0003C  9654                       NC    NITSUBNT,NITMASK
                                    9655
                                    9656                         Finish up initialization.
                                    9657
 000C48 4510 B256/0000_      00C50  9658                       GETMAIN R,LV=4096
 000C56 4800 B546/41F0_      00F40  9665                       SEGINIT (R1),LH:=AL2(4096),.NITPSG,RTN=PATHSEG  Path seg
                                    9689
 000C68 4510 B276/0000_      00C70  9690                       GETMAIN R,LV=4096
 000C76 4800 B546/41F0_      00F40  9697                       SEGINIT (R1),LH:=AL2(4096),.NITOSG,RTN=NETSEG  Network seg
                                    9721
                                    9722                         Build a queue of available port numbers.
                                    9723
 000C88 4510 B296/0000_      00C90  9724                       GETMAIN R,LV=L'PNUM*PNUMCNT#  Get room for PNUM queue
 000C96 5010 C148            00148  9731                       ST    R1,NITPNQH          Save queue head
                                    9732
 000C9A 5840 B502            00EFC  9733                       L     R4,=A(PNUM#)        First port number
 000C9E 1831                        9734                       LR    R3,R1               First PNUM ptr
 000CA0 4120 03E8            003E8  9735                       LA    R2,PNUMCNT#         Number of ports to allocate
                                    9736
 000CA4 1222/47D0 B2D0              9737                       WHILE (R2,POS),BEGIN      Build linked PNUM list...
 USING  PNUM,R3                     9753  1                      WITH  (PNUM,R3)
 000CAA D707 3000 3000 00000 00000  9766  1                      CLEAR PNUM
 000CB0 41F0 3008            00008  9773  1                      LA    R15,PNUM+L'PNUM     Next entry
 000CB4 50F0 3000            00000  9774  1                      ST    R15,PNUMLINK        Link
 000CB8 5040 3004            00004  9775  1                      ST    R4,PNUMVAL          Save port number
                                    9776  1
 000CBC 4140 4001            00001  9777  1                      LA    R4,@R4+1            Kick port number
 000CC0 4130 3008            00008  9778  1                      LA    R3,PNUM+L'PNUM      Next PNUM
 000CC4 0620                        9779  1                      DECR  R2                  One less to go
 000CC6 47F0 B2AA            00CA4  9781                       END
 DROP   PNUM,R3
                                    9791
 000CCA 4B30 B548            00F42  9792                       SH    R3,=AL2(L'PNUM)     Last PNUM
 000CCE D703 3000 3000 00000 00000  9793                       WITH  (PNUM,R3),'CLEAR PNUMLINK'  No next entry
 USING  PNUM,R3
 DROP   PNUM,R3
 000CD4 5030 C14C            0014C  9823                       ST    R3,NITPNQT          Save queue tail
1AMELIA   Initialization                                                                                                    Page   39
0Current Usings:  (*,R11) (NIT,R12)
0Loc    Object Code    Addr1 Addr2  Stmt Lv Lineno    Source Statement           (Hibal 5, Asmedit 3.3)  HLASM R4.0  2004/03/15 13.11
+___    ______ ____    _____ _____  ____ __ ______    ______ _________
0                                   9824
                                    9825                         Initialize Spartacus K-200 ethernet interface.
                                    9826
 000CD8 58E0 B506/0DEE       00F00  9827                       ACALL NETINIT             Initialize network interface
                                    9831
                                    9832                         Open a Suzan path (more paths will be opened as needed).
                                    9833
 000CDE 58E0 B50A/0DEE       00F04  9834                       ACALL PATHALLO            Allocate a new path
 000CE4 58E0 B50E/0DEE       00F08  9838                       ACALL PATHOPEN            Open it
                                    9842
                                    9843                         Start periodic timer.
                                    9844
 000CEA 58F0 B512            00F0C  9845                       L     R15,=A(TIMREXIT)
 000CEE 4110 B516/18FF_      00F10  9846                       STIMER REAL,(R15),BINTVL==A(TIMESEC*100)
1AMELIA   Main processing loop                                                                                              Page   40
0Current Usings:  (*,R11) (NIT,R12)
0Loc    Object Code    Addr1 Addr2  Stmt Lv Lineno    Source Statement           (Hibal 5, Asmedit 3.3)  HLASM R4.0  2004/03/15 13.11
+___    ______ ____    _____ _____  ____ __ ______    ______ _________
0                                   9855
                                    9856
                                    9857                      Main processing loop
                                    9858

0000CFE                             9859                       LOOP  BEGIN
                                    9865  1
                                    9866  1                        Wait for work.
                                    9867  1
 000CFE 90EF C020/4DE0_      00020  9868  1                      PTRACE MainWait           Trace wait
 000D12 4100 0001/4110_      00001  9873  1                      WAIT  ECBLIST=NITECBLS    Wait for work
 000D1E B205 C344      00344        9881  1                      STCK  NITCLOCK            Update current time
                                    9882  1
                                    9883  1                        Check for completion of Spartacus box I/O.
                                    9884  1
 000D22 9140 C7AC/47E0_007AC        9885  1                      IF    NITOECB.X'40',BEGIN  Ethernet write completed...
 000D2A 58E0 B51A/0DEE       00F14  9901  2                        ACALL NETWRITE            Write any next packet
 000D30                             9905  1                      END
                                    9909  1
 000D30 9140 C72C/47E0_0072C        9910  1                      IF    NITIECB.X'40',BEGIN  Ethernet read completed...
 000D38 4DE0 BA00            013FA  9926  2                        LCALL NETREAD             Process packet just read
 000D3C                             9928  1                      END
                                    9932  1
 000D3C 9140 C5CC/47E0_005CC        9933  1                      IF    NITCECB.X'40',BEGIN  Ethernet control completed...
 000D44 58E0 B51E/0DEE       00F18  9949  2                        ACALL NETCTRL             Process control packet completion
 000D4A                             9953  1                      END
                                    9957  1
 000D4A D603 C74C C74C_0074C 0074C  9958  1                      IF    (NITLPQH,NZ),BEGIN  Loopback read packet...
 000D54 58E0 B522/0DEE       00F1C  9974  2                        ACALL LOOPREAD            Process loopback packet
 000D5A                             9978  1                      END
                                    9982  1
                                    9983  1                        Check for Suzan path requests.
                                    9984  1
 000D5A 9140 C1E8/47E0_001E8        9985  1                      IF    NITPECB.X'40',BEGIN
 000D62 D703 C1E8 C1E8 001E8 001E8 10001  2                        CLEAR NITPECB             Clear path post ECB
 000D68 5820 C11C            0011C 10008  2                        L     R2,NITPATQH         Path queue head
 000D6C 1222/4780 B390             10009  2                        WHILE (R2,NZ),BEGIN
 USING  UPATH,R1                   10025  3                          WITH  (UPATH,R1)
 000D72 1812                       10038  3                          LR    R1,R2               Path block pointer
 000D74 5820 1004            00004 10039  3                          L     R2,UPATLINK         Get next path block addr
 000D78 9500 100C/4780_0000C       10040  3                          IF    (UPATSPST,NZ),BEGIN  If path posted,
 000D80 58E0 B526/0DEE       00F20 10056  4                            ACALL PATHDO               Go process
 000D86                            10060  3                          END
 000D86 47F0 B372            00D6C 10064  2                        END
 DROP   UPATH,R1
 000D8A                            10074  1                      END
                                   10078  1
                                   10079  1                        Check to see if periodic timer has gone off.
                                   10080  1
 000D8A 9140 C218/47E0_00218       10081  1                      IF    NITTECB.X'40',BEGIN  Periodic timer post...
 000D92 D703 C218 C218 00218 00218 10097  2                        CLEAR NITTECB             Reset post
 000D98 58F0 B512            00F0C 10104  2                        L     R15,=A(TIMREXIT)
 000D9C 4110 B516/4100_      00F10 10105  2                        STIMER REAL,(15),BINTVL==A(TIMESEC*100)  Restart timer
1AMELIA   Main processing loop                                                                                              Page   41
0Current Usings:  (*,R11) (NIT,R12)
0Loc    Object Code    Addr1 Addr2  Stmt Lv Lineno    Source Statement           (Hibal 5, Asmedit 3.3)  HLASM R4.0  2004/03/15 13.11
+___    ______ ____    _____ _____  ____ __ ______    ______ _________
0000DAA 58E0 B52A/0DEE       00F24 10112  2                        ACALL TIMER
 000DB0                            10116  1                      END
 000DB0 47F0 B304            00CFE 10120                       END
                                   10125
 000DB4 0000                       10126                       DC    H'0'                (Can't get here)
                                   10127
 DROP   *,R11                      10128                       DROP  BR
1AMELIA   TIMER - process timer interrupts                                                                                  Page   42
0Current Usings:  (NIT,R12)
0Loc    Object Code    Addr1 Addr2  Stmt Lv Lineno    Source Statement           (Hibal 5, Asmedit 3.3)  HLASM R4.0  2004/03/15 13.11
+___    ______ ____    _____ _____  ____ __ ______    ______ _________
0                                  10136
                                   10137
                                   10138                 TIMER -- Routine to process periodic timer interrupts.
                                   10139

0000DB6 90EF C020/4DE0_      00020 10140              TIMER    PROC
 USING  *,R11
                                   10182
 000DDA 58E0 B13E/0DEE       00F18 10183                       ACALL NETCTRL             Initiate ethernet control I/O
                                   10187
 000DE0 D603 C0CC C0CC_000CC 000CC 10188                       IF    (NITFRAGQ,NZ),BEGIN  If have IP fragments,
 000DEA 58E0 B14E/0DEE       00F28 10204  1                      ACALL IPFTIMER            Call IP fragment timer routine
 000DF0                            10208                       END
                                   10212
 000DF0 D603 C0B4 C0B4_000B4 000B4 10213                       IF    (NITNSLQ,NZ),BEGIN  If have name server lookup queue,
 000DFA 58E0 B152/0DEE       00F2C 10229  1                      ACALL NSLTIMER            Check for timeouts
 000E00                            10233                       END
                                   10237
 000E00 58E0 B156/0DEE       00F30 10238                       ACALL TCPTIMER            Call TCP timer routine
                                   10242
 000E06 5800 C344            00344 10243                       L     R0,NITCLOCK         Get time since
 000E0A 5F00 C088            00088 10244                       SL    R0,NITHNTTM           last HNT TTL check
 000E0E 5500 B15A            00F34 10245                       CL    R0,=A(NITHNTT#)     Compare against TTL check interval
 000E12 47D0 B048            00E22 10246                       IF    H,BEGIN             If greater,
 000E16 58E0 B15E/0DEE       00F38 10257  1                      ACALL HNTTIMER            Call timer routine
 000E1C D203 C088 C344 00088 00344 10261  1                      MVC   NITHNTTM,NITCLOCK   Reset time stamp
 000E22                            10262                       END
                                   10266
 000E22 18D9/980C D004_            10267                       PEND
 DROP   *,R11
                                   10287              *
                                   10288
                                   10289
                                   10290                 STIMER exit routine (Called from OS and runs as an IRB).
                                   10291                   Post main task and return.
                                   10292

0USING  TIMREXIT,R15               10293              TIMREXIT WITH  (TIMREXIT,R15),BEGIN
 000E30 900F D000            00000 10308  1                      STM   R0,R15,@R13         Save regs
 000E34 58C0 F078            00EA8 10309  1                      L     NITR,=A(NIT)
 000E38 1B00/4110 C218_            10310  1                      POST  NITTECB             Post timer ECB
 000E40 980F D000            00000 10316  1                      LM    R0,R15,@R13
 000E44 07FE                       10317  1                      BR    R14                 Return to OS
 DROP   TIMREXIT,R15               10318                       END
-                                  10327                       QLTORG
1AMELIA   NETINIT - initialize network interface                                                                            Page   43
0Current Usings:  (NIT,R12)
0Loc    Object Code    Addr1 Addr2  Stmt Lv Lineno    Source Statement           (Hibal 5, Asmedit 3.3)  HLASM R4.0  2004/03/15 13.11
+___    ______ ____    _____ _____  ____ __ ______    ______ _________
0                                  10384
                                   10385
                                   10386                 NETINIT -- Routine to allocate and initialize the network
                                   10387                   devices.  This routine is only called once.
                                   10388

0000F50 90EF C020/4DE0_      00020 10389              NETINIT  PROC
 USING  *,R11
 000F74 58E0 BA14/0DEE       01988 10431                       ACALL AMODE24             Switch back to 24-bit mode
                                   10435
                                   10436                         Get read and write buffers (we take a short-cut here and
                                   10437                           only get one VS page (4K) because we know that the length
                                   10438                           of read and write buffers combined are less than 4K.)
                                   10439
 000F7A 0700/47F0 B014_            10440                       GETMAIN RU,LV=4096,BNDRY=PAGE
 000F94 5010 C740            00740 10454                       ST    R1,NITIBUFP         First part is read buffer
 000F98 4120 15EC            005EC 10455                       LA    R2,@R1+ENETMAXL+2   Skip over read buffer
 000F9C 5020 C7B8            007B8 10456                       ST    R2,NITOBUFP         Second part is write buffer
 000FA0 4800 BA98            01A0C 10457                       SETMSG (R1),LH:=AL2(4096)
 000FA4 58E0 BA18/0DEE       0198C 10467                       ACALL FIX                 Fix page
                                   10471
                                   10472                         Set addresses in CCWs.  Use real addresses for EXCPVR.
                                   10473
 000FAA 1F11/BF17 C5D1             10474                       L3    R1,NITSNCCW+1       Sense
 000FB0 B111 0000            00000 10482                       LRA   R1,0(R1)
 000FB4 BE17 C5D1            005D1 10483                       ST3   R1,NITSNCCW+1
                                   10485
 000FB8 1F11/BF17 C5F1             10486                       L3    R1,NITIDCCW+1       Sense id
 000FBE B111 0000            00000 10494                       LRA   R1,0(R1)
 000FC2 BE17 C5F1            005F1 10495                       ST3   R1,NITIDCCW+1
                                   10497
 000FC6 1F11/BF17 C681             10498                       L3    R1,NITLMCCW+1       Link mode
 000FCC B111 0000            00000 10506                       LRA   R1,0(R1)
 000FD0 BE17 C681            00681 10507                       ST3   R1,NITLMCCW+1
                                   10509
 000FD4 1F11/BF17 C6A1             10510                       L3    R1,NITRBCCW+1       Read and reset buffer
 000FDA B111 0000            00000 10518                       LRA   R1,0(R1)
 000FDE BE17 C6A1            006A1 10519                       ST3   R1,NITRBCCW+1
                                   10521
 000FE2 58F0 C740            00740 10522                       L     R15,NITIBUFP        Input buffer
 000FE6 B1F0 F000            00000 10523                       LRA   R15,@R15
 000FEA BEF7 C739            00739 10524                       ST3   R15,NITRDCCW+1      Read CCW
                                   10526
 000FEE 58F0 C7B8            007B8 10527                       L     R15,NITOBUFP        Write buffer
 000FF2 B1F0 F000            00000 10528                       LRA   R15,@R15
 000FF6 BEF7 C7B1            007B1 10529                       ST3   R15,NITWRCCW+1      Set address in write CCW
                                   10531
 000FFA 58E0 BA1C/0DEE       01990 10532                       ACALL AMODE31             ********
1AMELIA   NETINIT - initialize network interface                                                                            Page   44
0Current Usings:  (*,R11) (NIT,R12)
0Loc    Object Code    Addr1 Addr2  Stmt Lv Lineno    Source Statement           (Hibal 5, Asmedit 3.3)  HLASM R4.0  2004/03/15 13.11
+___    ______ ____    _____ _____  ____ __ ______    ______ _________
0                                  10536
                                   10537                         No I/O device present.
                                   10538
 001000 9180 C103/47E0_00103       10539                       IF    NITFNODEV,BEGIN     No I/O...
 001008 96C1 C101      00101       10554  1                      SET   NITFUP+NITFUP1+NITFSNSI
 00100C D205 C693 BACE 00693 01A42 10567  1                      MVC   NITETHER,=X'00010203040506'
 001012                            10568                       END
                                   10572
                                   10573                         Open I/O devices.
                                   10574
 001012 B0A2/47F0 B0EA 01012 01006 10575                       ELSE  BEGIN               Open devices...
 001016 4110 C574            00574 10586  1                      LA    R1,NITCDCB
 00101A 4DE0 B0F8            0106C 10587  1                      LCALL OPENDCB             Open control path
 00101E 4780 B0B8/D217_      0102C 10589  1                      IF    NZ,'FAIL "Ethernet OPEN failed"'
                                   10609  1
 00102C 4110 C6D0            006D0 10610  1                      LA    R1,NITIDCB
 001030 4DE0 B0F8            0106C 10611  1                      LCALL OPENDCB             Open input path
 001034 4780 B0CE/D217_      01042 10613  1                      IF    NZ,'FAIL "Ethernet OPEN failed"'
                                   10633  1
 001042 4110 C754            00754 10634  1                      LA    R1,NITODCB
 001046 4DE0 B0F8            0106C 10635  1                      LCALL OPENDCB             Open output path
 00104A 4780 B0E4/D217_      01058 10637  1                      IF    NZ,'FAIL "Ethernet OPEN failed"'
                                   10657  1
                                   10658  1                        Initiate ethernet interface enable process
                                   10659  1
 001058 58E0 BA20/0DEE       01994 10660  1                      ACALL NETCTRL
 00105E                            10664                       END
                                   10668
 00105E 18D9/980C D004_            10669                       PEND
 DROP   *,R11
1AMELIA   NETINIT - initialize network interface                                                                            Page   45
0Current Usings:  (NIT,R12)
0Loc    Object Code    Addr1 Addr2  Stmt Lv Lineno    Source Statement           (Hibal 5, Asmedit 3.3)  HLASM R4.0  2004/03/15 13.11
+___    ______ ____    _____ _____  ____ __ ______    ______ _________
0                                  10690
                                   10691
                                   10692                 OPENDCB -- Routine to open the DCB specified.
                                   10693
                                   10694                   On entry:
                                   10695                     R1 - DCB ptr
                                   10696
                                   10697                   On exit, R15 (and cc):
                                   10698                     0 - opened ok
                                   10699                     nz- error of some sort
                                   10700

000106C 90EF C020/4DE0_      00020 10701              OPENDCB  PROC
 USING  *,R11
 001090 1851                       10743                       LR    R5,R1               DCB ptr
 USING  DCB,R5                     10744                       WITH  (DCB,R5)
 001092 9110 5030/47E0_00030       10757                       IF    DCBOFLGS.DCBOFOPN,'CLEAR R15; EXIT OPENDCB'
                                   10785
 0010A0 184D/41D0 D018             10786                       PUSH  L'DVTAREA,PTR=R4
 USING  DVTAREA,R4                 10790                       WITH  (DVTAREA,R4)
 0010A6 58E0 B8F8/0DEE       01988 10803                       ACALL AMODE24             ********
 0010AC 4110 5028/4100_      00028 10807                       DEVTYPE DCBDDNAM,DVTAREA  Is DDNAME defined?
 0010B6 58E0 B900/0DEE       01990 10812                       ACALL AMODE31             ********
 0010BC 12FF/4770 B06A             10816                       IF    (R15,NZ),EXIT       No, scram
                                   10833
 0010C2 4120 5000            00000 10834                       LA    R2,DCB
 0010C6 58E0 B8F8/0DEE       01988 10835                       ACALL AMODE24             ********
 0010CC 4510 B044/0000_      010D4 10839                       OPEN  ((2))               OPEN DCB
 0010DE 58E0 B900/0DEE       01990 10846                       ACALL AMODE31             ********
 0010E4 9110 5030/4710_00030       10850                       IF    ~DCBOFLGS.DCBOFOPN,'LA R15,20; EXIT OPENDCB'
                                   10875
                                   10876                         Turn off IOS error recovery.
                                   10877
 0010F4 960C 502C      0002C       10878                       OI    DCBIFLGS,X'0C'      No error recovery
                                   10879
 0010F8 1BFF                       10880                       CLEAR R15                 Set good return code
 0010FA 18D9/980C D004_            10884                       PEND
 DROP   DVTAREA,R4
 DROP   DCB,R5
 DROP   *,R11
1AMELIA   NETCTRL - Process Ethernet control I/O                                                                            Page   46
0Current Usings:  (NIT,R12)
0Loc    Object Code    Addr1 Addr2  Stmt Lv Lineno    Source Statement           (Hibal 5, Asmedit 3.3)  HLASM R4.0  2004/03/15 13.11
+___    ______ ____    _____ _____  ____ __ ______    ______ _________
0                                  10915
                                   10916
                                   10917                 NETCTRL -- Process ethernet control I/O completion, and
                                   10918                            initiate any new I/O needed.  Called after
                                   10919                            I/O completion and also by timer exit routine.
                                   10920

0001108 90EF C020/4DE0_      00020 10921              NETCTRL  PROC
 USING  *,R11
 00112C 9180 C103/4710_00103       10963                       IF    NITFNODEV,EXIT      No I/O device, scram
                                   10981
                                   10982                         Process I/O completion.  If I/O error, mark interface
                                   10983                         down and initiate sense (unless error was on a sense).
                                   10984                         Exit if error post, will be reentered at the next timer tick
                                   10985
 001134 9140 C5CC/4780_005CC       10986                       IF    (NITCECB.X'40',NZ),BEGIN   If ECB posted,
 00113C 9120 C101/4710_00101       11004  1                      IF    ~NITFCTIO,'FAIL "NETCTRL error"'
 00114E 94DF C101      00101       11028  1                      CLEAR NITFCTIO            Show no control I/O active
 001152 1F22/4320 C5CC             11035  1                      LC    R2,NITCECB          Save post code
 001158 D703 C5CC C5CC 005CC 005CC 11042  1                      CLEAR NITCECB             Reset ECB
 00115E 5920 B86C/4780_      01998 11049  1                      IF    (R2,NE,=A(X'7F')),BEGIN   If not '7F' post,
 001166 4100 0001/5E00_      00001 11065  2                        INCR  R0,NITCERRS         Incr counter
 001172 B205 C158      00158       11071  2                        STCK  NITCERRT            Time stamp
 001176 D603 C150 C150_00150 00150 11072  2                        IF    (NITCWTO,Z),BEGIN   If no console message,
 001180 4110 B070            0119C 11088  3                          LA    R1,NETCTWTO
 001184 D507 B7E4 1000_01910 00000 11089  3                          WHILE (@R1,NE,'*AMELIA*'),'INCR R1'
 001196 D207 1000 C04C 00000 0004C 11116  3                          MVC   @R1(8),NITJOBNM     Move job name into msg
                                   11117  3         C NETCTWTO       WTO   '*AMELIA* K200 network interface down',
 00119C 4510 B0A0/0028_      011CC        3                                ROUTCDE=(1,8,10),DESC=(1)
 0011CE 5010 C150            00150 11127  3                          ST    R1,NITCWTO          Save WTO id
 0011D2                            11128  2                        END
 0011D2 4110 B8E2/4100_      01A0E 11132  2                        SEG   'Control I/O error     ',,NITPRSG
 0011E4 4110 C5A8            005A8 11149  2                        LA    R1,NITCIOB          IOB address
 0011E8 58E0 B878/0DEE       019A4 11150  2                        ACALL NETERROR            Format IOB info
                                   11154  2
 0011EE 943F C101      00101       11155  2                        CLEAR NITFUP+NITFSNSI     Show interface not up
 0011F2 47F0 B270            0139C 11165  2                        EXIT  NETCTRL             Return
 0011F6                            11168  1                      END
                                   11172  1
                                   11173  1                        Process K200 sense id completion
                                   11174  1
 0011F6 1F22/BF27 C5B9             11175  1                      L3    R2,NITCIOB+IOBCAW-IOB   Get CCW pointer
 0011FC D507 C5F0 2000_005F0 00000 11183  1                      IF    (@R2,EQ,NITIDCCW),BEGIN  If sense id done,
 001206 9680 C101      00101       11200  2                        SET   NITFSNSI                Flag sense id done
 00120A D205 C693 C602 00693 00602 11206  2                        MVC   NITETHER,NITSINFO+10    Set Enet addr for set link
 001210 4110 B7EC/4100_      01918 11207  2                        SEGB  'Sense info completed, address is',,NITPRSG
 001222 BF0F C693            00693 11225  2                        ICM   R0,15,NITETHER
 001226 BF1C C697            00697 11226  2                        ICM   R1,12,NITETHER+4
 00122A 41F0 C4B0            004B0 11227  2                        SEGLD ,
 00122E 58E0 B880/0DEE       019AC 11235  2                        ACALL SEGENET
 001234 1B00/41F0 C4B0_            11239  2                        SEGWR
 001240                            11263  1                      END
1AMELIA   NETCTRL - Process Ethernet control I/O                                                                            Page   47
0Current Usings:  (*,R11) (NIT,R12)
0Loc    Object Code    Addr1 Addr2  Stmt Lv Lineno    Source Statement           (Hibal 5, Asmedit 3.3)  HLASM R4.0  2004/03/15 13.11
+___    ______ ____    _____ _____  ____ __ ______    ______ _________
0                                  11267  1
                                   11268  1                        Process K200 set link mode completion
                                   11269  1
 001240 B118/47F0 B1A8_01240 01204 11270  1                      ELSEIF (@R2,EQ,NITSLCCW),BEGIN
 00124E 9641 C101      00101       11296  2                        SET   NITFUP+NITFUP1      Flag interface up
 001252 4110 B91D/4100_      01A49 11305  2                        SEGWR 'Set link mode completed',,NITPRSG
 001264 D603 C150 C150_00150 00150 11323  2                        IF    (NITCWTO,NZ),BEGIN  If error msg on console,
 00126E 5810 C150            00150 11339  3                          L     R1,NITCWTO          Msg id
 001272 4100 0000/0A57       00000 11340  3                          DOM   MSG=(1)             Delete msg
 001278 D703 C150 C150 00150 00150 11343  3                          CLEAR NITCWTO             Show no msg up now
 00127E                            11350  2                        END
                                   11354  2
                                   11355  2                          ARP gateway and name server addresses
                                   11356  2
 00127E D603 C040 C040_00040 00040 11357  2                        IF    (NITGATE,NZ),BEGIN  If have gateway address
 001288 5810 C040            00040 11373  3                          L     R1,NITGATE          Get gateway IP address
 00128C 58E0 B888/0DEE       019B4 11374  3                          ACALL GETENET             This will send ARP packet
 001292                            11378  2                        END
                                   11382  2
 001292 4120 C09C            0009C 11383  2                        LA    R2,NITNSERV         Name server IP addr list
 001296 4130 0004            00004 11384  2                        LA    R3,MAXNSERV         List length
 00129A 1233/47D0 B18C_            11385  2                        WHILE ((R3,P),AND,(@R2,NE,0)),BEGIN
 0012A8 5810 2000            00000 11417  3                          L     R1,@R2              Get IP address
 0012AC 58E0 B888/0DEE       019B4 11418  3                          ACALL GETENET             Send ARP packet
 0012B2 0630                       11422  3                          DECR  R3
 0012B4 47F0 B16E            0129A 11424  2                        END
                                   11429  2
                                   11430  2                          Initiate packet read
                                   11431  2
 0012B8 9110 C101/4710_00101       11432  2                        IF    ~NITFRDIO,BEGIN     If read not active,
 0012C0 9610 C101      00101       11447  3                          SET   NITFRDIO            Flag read active
 0012C4 4110 C708            00708 11453  3                          LA    R1,NITIIOB          Input IOB address
 0012C8 47F0 B1A2/F400_      012CE 11454  3                          EXCPVR (1)                Initiate read
 0012D4                            11460  2                        END
 0012D4                            11464  1                      END
                                   11468  1
                                   11469  1                        Process K200 read-and-reset-buffer completion
                                   11470  1
 0012D4 B1AC/47F0 B1FE_012D4 0124C 11471  1                      ELSEIF (@R2,EQ,NITRBCCW),BEGIN
 0012E2 947F C6B4      006B4       11497  2                        NI    NITRRB+4,X'7F'      Clear high bit of count
 0012E6 5800 C6B4            006B4 11498  2                        L     R0,NITRRB+4         Total frame count
 0012EA 5A00 C17C            0017C 11499  2                        A     R0,NITKTOTL
 0012EE 5000 C17C            0017C 11500  2                        ST    R0,NITKTOTL
 0012F2 1F00/BF03 C6B8             11501  2                        L2    R0,NITRRB+8         FCS error count
 0012F8 5A00 C180            00180 11507  2                        A     R0,NITKFCS
 0012FC 5000 C180            00180 11508  2                        ST    R0,NITKFCS
 001300 1F00/BF03 C6BC             11509  2                        L2    R0,NITRRB+12        Lost frame count
 001306 5A00 C184            00184 11515  2                        A     R0,NITKLOST
 00130A 5000 C184            00184 11516  2                        ST    R0,NITKLOST
 00130E 1F00/BF03 C6BE             11517  2                        L2    R0,NITRRB+14        Alignment error count
 001314 5A00 C188            00188 11523  2                        A     R0,NITKAERR
 001318 5000 C188            00188 11524  2                        ST    R0,NITKAERR
 00131C 1F00/BF03 C6C0             11525  2                        L2    R0,NITRRB+16        Buffer overflow count
 001322 5A00 C18C            0018C 11531  2                        A     R0,NITKOVFL
1AMELIA   NETCTRL - Process Ethernet control I/O                                                                            Page   48
0Current Usings:  (*,R11) (NIT,R12)
0Loc    Object Code    Addr1 Addr2  Stmt Lv Lineno    Source Statement           (Hibal 5, Asmedit 3.3)  HLASM R4.0  2004/03/15 13.11
+___    ______ ____    _____ _____  ____ __ ______    ______ _________
0001326 5000 C18C            0018C 11532  2                        ST    R0,NITKOVFL
 00132A                            11533  1                      END
 00132A                            11537                       END
                                   11541
 00132A 9120 C101/4710_00101       11542                       IF    NITFCTIO,EXIT       Return if control I/O active
                                   11560
                                   11561                         If interface is down, wait 5 seconds after last control
                                   11562                         I/O error before retrying.  Routine will be reentered
                                   11563                         at each timer tick.
                                   11564
 001332 91C0 C101/4710_00101       11565                       IF    (NITFSNSI+NITFUP,NO),BEGIN
 00133A 5800 C344            00344 11585  1                      L     R0,NITCLOCK         Current time
 00133E 5F00 C158            00158 11586  1                      SL    R0,NITCERRT         Minus time of last error
 001342 5500 B88C            019B8 11587  1                      CL    R0,=A(5)            Less than 10 seconds?
 001346 47B0 B222/47F0_      0134E 11588  1                      IF    L,'EXIT NETCTRL'    If yes, return
 00134E                            11607                       END
                                   11611
                                   11612                         Initiate sense id.
                                   11613
 00134E 9180 C101/4710_00101       11614                       IF    ~NITFSNSI,BEGIN     If sense id not done,
 001356 4110 C5F0            005F0 11629  1                      LA    R1,NITIDCCW         CCW address
 00135A 58E0 B890/0DEE       019BC 11630  1                      ACALL NETCEXCP            Start IO
 001360 47F0 B270            0139C 11634  1                      EXIT  NETCTRL             Return
 001364                            11637                       END
                                   11641
                                   11642                         Initiate set link mode
                                   11643
 001364 9140 C101/4710_00101       11644                       IF    ~NITFUP,BEGIN       If interface not enabled,
 00136C 4110 C678            00678 11659  1                      LA    R1,NITSLCCW         CCW pointer
 001370 58E0 B890/0DEE       019BC 11660  1                      ACALL NETCEXCP            Start IO
 001376 47F0 B270            0139C 11664  1                      EXIT  NETCTRL             Return
 00137A                            11667                       END
                                   11671
                                   11672                         Issue K200 read and reset buffer every 60 seconds
                                   11673
 00137A 5800 C344            00344 11674                       L     R0,NITCLOCK         Compute interval
 00137E 5F00 C6A8            006A8 11675                       SL    R0,NITRRBTM           since last RRB
 001382 5500 B894/47D0_      019C0 11676                       IF    ('CL R0,=A(58)',H),BEGIN  If over threshhold,
 00138A B205 C6A8      006A8       11689  1                      STCK  NITRRBTM                    Time stamp
 00138E 4110 C6A0            006A0 11690  1                      LA    R1,NITRBCCW                 RRB CCW
 001392 58E0 B890/0DEE       019BC 11691  1                      ACALL NETCEXCP                    Initiate I/O
 001398 47F0 B270            0139C 11695  1                      EXIT  NETCTRL             Return
 00139C                            11698                       END
                                   11702
 00139C 18D9/980C D004_            11703                       PEND
 DROP   *,R11
-                                  11724
                                   11725                         NETCEXCP - Initiate control I/O
                                   11726
                                   11727                           On entry, R1 -> Channel program
                                   11728
 0013AA 90EF C020/4DE0_      00020 11729              NETCEXCP PROC
1AMELIA   NETCTRL - Process Ethernet control I/O                                                                            Page   49
0Current Usings:  (*,R11) (NIT,R12)
0Loc    Object Code    Addr1 Addr2  Stmt Lv Lineno    Source Statement           (Hibal 5, Asmedit 3.3)  HLASM R4.0  2004/03/15 13.11
+___    ______ ____    _____ _____  ____ __ ______    ______ _________
0USING  *,R11
 0013CE D703 C5CC C5CC 005CC 005CC 11771                       CLEAR NITCECB                Reset ECB
 0013D4 BE17 C5B9            005B9 11778                       ST3   R1,NITCIOB+IOBCAW-IOB  Set CCW pointer in IOB
 0013D8 4110 C5A8            005A8 11780                       LA    R1,NITCIOB          IOB address
 0013DC 47F0 B014/F400_      013E2 11781                       EXCPVR (1)                   Initiate I/O
 0013E8 9620 C101      00101       11787                       SET   NITFCTIO            Flag control I/O active
 0013EC 18D9/980C D004_            11793                       PEND
 DROP   *,R11
1AMELIA   NETREAD - Process Ethernet read completion                                                                        Page   50
0Current Usings:  (NIT,R12)
0Loc    Object Code    Addr1 Addr2  Stmt Lv Lineno    Source Statement           (Hibal 5, Asmedit 3.3)  HLASM R4.0  2004/03/15 13.11
+___    ______ ____    _____ _____  ____ __ ______    ______ _________
0                                  11814
                                   11815
                                   11816                 NETREAD -- Routine to handle the completion of ethernet
                                   11817                   read I/O.  This routine is responsible for sending the
                                   11818                   packet (across the Suzan path) to any listeners.
                                   11819

0000000                00000 00044 11820              NETRWA   RECORD BEGIN
 000000                            11828  1           NETRPCUR   DS    F                   NITPCUR save
 000004                            11829  1           NETRWORK   DS    XL64                Working header area
 000044                00044 00044 11830                       END
-0013FA 90EF C020/4DE0_      00020 11840              NETREAD  PROC  NETRWA
 USING  *,R11
 USING  NETRWA-(4+52),R9
 00141E B205 C744      00744       11893                       STCK  NITRDTIM            Time stamp
 001422 9110 C101/4710_00101       11894                       IF    ~NITFRDIO,'FAIL "NETREAD error"'
                                   11918
                                   11919                         Check for error conditions
                                   11920
 001434 957F C72C/4780_0072C       11921                       IF    (NITIECB,NE,X'7F'),BEGIN
 00143C 4100 0001/5E00_      00001 11938  1                      INCR  R0,NITRERRS         Incr error count
 001448 B205 C174      00174       11944  1                      STCK  NITRERRT            Time stamp
 00144C 4110 B606/4100_      01A24 11945  1                      SEG   'Ethernet read error   ',,NITPRSG  Log message
 00145E 4110 C708            00708 11962  1                      LA    R1,NITIIOB          Input IOB address
 001462 58E0 B586/0DEE       019A4 11963  1                      ACALL NETERROR            Format IOB info
                                   11967  1
 001468 4110 B066            01484 11968  1                      LA    R1,NETRDWTO
 00146C D507 B4F2 1000_01910 00000 11969  1                      WHILE (@R1,NE,'*AMELIA*'),'INCR R1'
 00147E D207 1000 C04C 00000 0004C 11996  1                      MVC   @R1(8),NITJOBNM     Move job name into msg
 001484 4510 B08A/0020_      014A8 11997  1           NETRDWTO   WTO   '*AMELIA* Ethernet read error'
 0014AA 943F C101      00101       12005  1                      CLEAR NITFUP+NITFSNSI     Reset interface status
 0014AE                            12015                       END
                                   12019
 0014AE 94EF C101      00101       12020                       CLEAR NITFRDIO            Show no read active
 0014B2 D703 C72C C72C 0072C 0072C 12027                       CLEAR NITIECB             Reset ECB
 0014B8 9140 C101/47E0_00101       12034                       IF    ~NITFUP,EXIT        Return if interface down
                                   12052
                                   12053                         Convert BSD 4.2 trailer format packets.
                                   12054
 0014C0 58E0 B5A6/0DEE       019C4 12055                       ACALL NETTRAIL
 0014C6 12FF/4770 B1B6             12059                       IF    (R15,NZ),NETREADN   Reissue read if bad packet
                                   12076
                                   12077                         Send packet just received to all paths that want it.
                                   12078
 0014CC 5850 C740            00740 12079                       L     R5,NITIBUFP         Read buffer ptr
 0014D0 4110 5002/4800_      00002 12080                       SETMSG @R5+2,LH:@R5        Packet addr and length
                                   12093
 USING  ENETHDR,R1                 12094                       WITH  (ENETHDR,R1),BEGIN
                                   12108  1         C            IF    (ENETDST.X'01',AND,  If our own broadcast packet,
 0014D8 9101 1000/47E0_00000              1                            (ENETSRC,EQ,NITETHER)),NETREADN   Just reissue read
 DROP   ENETHDR,R1                 12144                       END
1AMELIA   NETREAD - Process Ethernet read completion                                                                        Page   51
0Current Usings:  (NETRWA-(4+52),R9) (*,R11) (NIT,R12)
0Loc    Object Code    Addr1 Addr2  Stmt Lv Lineno    Source Statement           (Hibal 5, Asmedit 3.3)  HLASM R4.0  2004/03/15 13.11
+___    ______ ____    _____ _____  ____ __ ______    ______ _________
0                                  12152
 0014EA 41F0 0004            00004 12153                       LA    R15,4               Flag received packet
 0014EE 58E0 B5AA/0DEE       019C8 12154                       ACALL PATHMON             Check monitor paths
                                   12158
 0014F4 4160 C118            00118 12159                       LA    R6,NITPATQH-(UPATLINK-UPATH)  Dummy queue head
 0014F8                            12160                       LOOP  BEGIN
 USING  UPATH,R6                   12166  1                      WITH  (UPATH,R6)
 0014F8 5860 6004/1266_      00004 12179  1                      WHILE ('LT R6,UPATLINK',NZ)
 001502 D203 9038 C124 00000 00124 12196  1                      MVC   NETRPCUR,NITPCUR
 001508 5060 C124            00124 12197  1                      ST    R6,NITPCUR          Set current path ptr
                                   12198  1
                                   12199  1                        Check path's packet filter to see if this path should
                                   12200  1                          get this packet.
                                   12201  1
 00150C D23F 903C 5002 00004 00002 12202  1                      MVC   NETRWORK,@R5+2      Copy header prefix
 001512 D43F 903C 6094 00004 00094 12203  1                      NC    NETRWORK,UPATXAND   AND out unwanted bits
 001518 D53F 903C 60D4_00004 000D4 12204  1                      IF    (NETRWORK,EQ,UPATXCMP),BEGIN  We want this packet...
                                   12222  2
 001522 41F0 C1EC/58E0_      001EC 12223  2                        SEGCLR NITPSG
                                   12236  2
                                   12237  2                          Ethernet mode (return entire packet).
                                   12238  2
 00152C 9140 600E/4710_0000E       12239  2                        IF    ~UPATFIP,BEGIN      Ethernet mode...
 001534 4110 B532            01950 12254  3                          LA    R1,=CL16'READ_PACKET:'
 001538 4100 0010/41F0_      00010 12255  3                          SEG   (R1),16
 001546 4110 5002/4800_      00002 12281  3                          SETMSG @R5+2,LH:@R5        Packet data
 00154E                            12294  2                        END
                                   12298  2
                                   12299  2                          IP mode (return data starting at IP header).
                                   12300  2
 00154E B134/47F0 B156 0154E 01532 12301  2                        ELSE  BEGIN               IP mode...
 001552 4110 B542            01960 12312  3                          LA    R1,=CL16'READ_IP:'
 001556 4100 0010/41F0_      00010 12313  3                          SEG   (R1),16
 001564 4110 5002/4800_      00002 12339  3                          SETMSG @R5+2,LH:@R5        Packet data
 00156C 4110 100E            0000E 12352  3                          LA    R1,@R1+L'ENETHDR    Skip past ethernet header
 001570 4B00 B61C            01A3A 12353  3                          SH    R0,=AL2(L'ENETHDR)
 001574                            12354  2                        END
                                   12358  2
 001574 41F0 C1EC/58E0_      001EC 12359  2                        SEGWR (R1),(R0)           Packet data
 00157E                            12383  1                      END
 00157E D203 C124 9038 00124 00000 12387  1                      MVC   NITPCUR,NETRPCUR    Reset NITPCUR
 001584 47F0 B0DA            014F8 12388                       END
 DROP   UPATH,R6
                                   12398
                                   12399                         Update packet counters
                                   12400
 001588 9101 5002/4780_00002       12401                       IF    (@R5+2.X'01',NZ),BEGIN
 001590 4100 0001/5E00_      00001 12419  1                      INCR  R0,NITRBROD
 00159C                            12425                       END
 00159C 4100 0001/5E00_      00001 12429                       INCR  R0,NITRPACK
1AMELIA   NETREAD - Process Ethernet read completion                                                                        Page   52
0Current Usings:  (NETRWA-(4+52),R9) (*,R11) (NIT,R12)
0Loc    Object Code    Addr1 Addr2  Stmt Lv Lineno    Source Statement           (Hibal 5, Asmedit 3.3)  HLASM R4.0  2004/03/15 13.11
+___    ______ ____    _____ _____  ____ __ ______    ______ _________
0                                  12435
                                   12436                         Call special protocol handling routines.
                                   12437
 0015A8 4110 5002/4800_      00002 12438                       SETMSG @R5+2,LH:@R5        Get packet addr and len
 USING  ENETHDR,R1                 12451                       WITH  (ENETHDR,R1)        Ethernet header
 0015B0 D501 B61E 100C_01A3C 0000C 12464                       IF    (ENETTYPE,EQ,ENETARP#),BEGIN   If ARP packet,
 0015BA 58E0 B5B2/0DEE       019D0 12482  1                      ACALL RCVARP                         Call ARP routine
 0015C0                            12486                       END
 0015C0 B1A6/47F0 B1B6_015C0 015B8 12490                       ELSEIF (ENETTYPE,EQ,ENETIP#),BEGIN    Else if IP packet,
 0015CE 58E0 B5B6/0DEE       019D4 12517  1                      ACALL RCVIP                           Call IP routine
 0015D4                            12521                       END
                                   12525
                                   12526                         Put up another read I/O.
                                   12527
 0015D4 9610 C101      00101       12528              NETREADN SET   NITFRDIO            Flag read active
 0015D8 9180 C103/4710_00103       12535                       IF    ~NITFNODEV,BEGIN    Do read I/O...
 0015E0 4110 C708            00708 12550  1                      LA    R1,NITIIOB          Input IOB
 0015E4 47F0 B1CC/F400_      015EA 12551  1                      EXCPVR (1)                Start new read I/O
 0015F0                            12557                       END
                                   12561
 0015F0 18D9/980C D004_            12562                       PEND
 DROP   ENETHDR,R1
 DROP   NETRWA-(4+52),R9
 DROP   *,R11
1AMELIA   NETWRITE - Initiate Ethernet write                                                                                Page   53
0Current Usings:  (NIT,R12)
0Loc    Object Code    Addr1 Addr2  Stmt Lv Lineno    Source Statement           (Hibal 5, Asmedit 3.3)  HLASM R4.0  2004/03/15 13.11
+___    ______ ____    _____ _____  ____ __ ______    ______ _________
0                                  12593
                                   12594
                                   12595                 NETWRITE -- Routine to handle the completion of ethernet
                                   12596                   write I/O.  This routine is responsible for starting the
                                   12597                   the next packet write I/O, if a packet is waiting.
                                   12598

00015FE 90EF C020/4DE0_      00020 12599              NETWRITE PROC
 USING  *,R11
                                   12641
                                   12642                         A write I/O error will occur when we try to write a packet
                                   12643                           when the ethernet is busy or unterminated (max collisions).
                                   12644
 001622 9140 C7AC/4780_007AC       12645                       IF    (NITOECB.X'40',NZ),BEGIN  If ECB posted,
 00162A 9108 C101/4710_00101       12663  1                      IF    ~NITFWRIO,'FAIL "NETWRITE error"'  Validity check
 00163C 94F7 C101      00101       12687  1                      CLEAR NITFWRIO            Write I/O is now complete
 001640 D500 B43E C7AC_01A60 007AC 12694  1                      IF    (NITOECB,NE,=X'7F'),BEGIN  Write I/O error...
 00164A B205 C168      00168       12711  2                        STCK  NITWERRT            Save time
 00164E 4100 0001/5E00_      00001 12712  2                        INCR  R0,NITWERRS         Incr write error count
 00165A 4110 B3B6/4100_      019D8 12718  2                        SEG   'Ethernet write error on try ',,NITPRSG  Log error
 00166C 5810 C160/1B00_      00160 12735  2                        SEGDC NITWTRYS                                Add try count
 00167C 4100 0002/41F0_      00002 12756  2                        SEGBLANK 2
 00168A 4110 C788            00788 12776  2                        LA    R1,NITOIOB          Output IOB address
 00168E 58E0 B382/0DEE       019A4 12777  2                        ACALL NETERROR            Format IOB info
 001694 91FF C167      00167       12781  2                        TM    NITWERRS+3,X'FF'    WTO after 256 errors
 001698 4770 B0BE            016E0 12782  2                        IF    Z,BEGIN
 00169C 4110 B096            016B8 12793  3                          LA    R1,NETWRWTO
 0016A0 D507 B2EE 1000_01910 00000 12794  3                          WHILE (@R1,NE,'*AMELIA*'),'INCR R1'
 0016B2 D207 1000 C04C 00000 0004C 12821  3                          MVC   @R1(8),NITJOBNM     Move job name into msg
 0016B8 4510 B0BC/0022_      016DE 12822  3           NETWRWTO       WTO   '*AMELIA* Ethernet write failed'
 0016E0                            12830  2                        END
 0016E0 D703 C7AC C7AC 007AC 007AC 12834  2                        CLEAR NITOECB             Reset ECB
 0016E6 47F0 B156            01778 12841  2                        B     NETWRTRY            Go retry write
 0016EA                            12842  1                      END
 0016EA D703 C7AC C7AC 007AC 007AC 12846  1                      CLEAR NITOECB             Reset ECB
 0016F0                            12853                       END
                                   12857
                                   12858                         Send the next packet on the pending write queue.
                                   12859
 0016F0 9108 C101/4710_00101       12860                       IF    NITFWRIO,EXIT       Return if write active
                                   12878
 0016F8 5860 C7E8/1266       007E8 12879              NETWRNXT LT    R6,NITOQH           Get next write queue entry
 0016FE 4780 B186            017A8 12883                       IF    NZ,BEGIN            We have something...
 001702 D203 C7E8 6000 007E8 00000 12894  1                      MVC   NITOQH,@R6          Copy next ptr
 001708 D603 C7E8 C7E8_007E8 007E8 12895  1                      IF    (NITOQH,Z),'CLEAR NITOQT'  Nothing in queue
 001718 D703 C160 C160 00160 00160 12923  1                      CLEAR NITWTRYS            Clear try count
 00171E 5800 C7F0/0600_      007F0 12930  1                      DECR  R0,NITOQCNT         Decr queue depth count
 001728 4100 0001/5E00_      00001 12935  1                      INCR  R0,NITSPACK         Incr send packet counter
 001734 4800 6004            00004 12941  1                      LH    R0,@R6+4            Packet length
 001738 4110 6006            00006 12942  1                      LA    R1,@R6+6            Packet address
 00173C 1BFF                       12943  1                      CLEAR R15                 Show write packet
 00173E 58E0 B3A6/0DEE       019C8 12947  1                      ACALL PATHMON             Check monitor paths
 001744 4120 6006            00006 12951  1                      LA    R2,@R6+6            Addr of write data
1AMELIA   NETWRITE - Initiate Ethernet write                                                                                Page   54
0Current Usings:  (*,R11) (NIT,R12)
0Loc    Object Code    Addr1 Addr2  Stmt Lv Lineno    Source Statement           (Hibal 5, Asmedit 3.3)  HLASM R4.0  2004/03/15 13.11
+___    ______ ____    _____ _____  ____ __ ______    ______ _________
0001748 4830 6004            00004 12952  1                      LH    R3,@R6+4            Get data length
 00174C 58E0 C7B8            007B8 12953  1                      L     R14,NITOBUFP        I/O buffer address
 001750 18F3                       12954  1                      LR    R15,R3              Copy length
 001752 59F0 B3DA/47B0_      019FC 12955  1                      IF    (R15,LT,60),BEGIN   If lt min Ethernet packet length,
 00175A 41F0 003C            0003C 12972  2                        LA    R15,60              Set to min (move will pad data)
 00175E                            12973  1                      END
 00175E 40F0 E000            00000 12977  1                      STH   R15,@R14            Set length in I/O buffer
 001762 41E0 E002            00002 12978  1                      LA    R14,@R14+2          Incr I/O buffer pointer
 001766 410F 0002            00002 12979  1                      LA    R0,2(R15)           Length including length halfword
 00176A 4000 C7B6            007B6 12980  1                      STH   R0,NITWRCCW+6       Set length in write CCW
 00176E 0EE2                       12981  1                      MVCL  R14,R2              Move data to buffer
                                   12982  1
 001770 1816                       12983  1                      LR    R1,R6
 001772 58E0 B3DE/0DEE       01A00 12984  1                      ACALL FREECORE            Free buffer
                                   12988  1
                                   12989  1                        Issue write (error retry branches here)
                                   12990  1
 001778 9140 C101/47E0_00101       12991  1           NETWRTRY   IF    ~NITFUP,NETWRNXT    If interface down, flush queue
 001780 9180 C103/4710_00103       13010  1                      IF    NITFNODEV,NETWRNXT  No I/O device, flush it
                                   13028  1
 001788 4110 C788            00788 13029  1                      LA    R1,NITOIOB          Write IOB
 00178C 47F0 B170/F400_      01792 13030  1                      EXCPVR (1)                Start new write I/O
 001798 9608 C101      00101       13036  1                      SET   NITFWRIO            Write I/O in progress
 00179C 4100 0001/5E00_      00001 13042  1                      INCR  R0,NITWTRYS         Incr try count for this packet
 0017A8                            13048                       END
                                   13052
 0017A8 18D9/980C D004_            13053                       PEND
 DROP   *,R11
1AMELIA   NETERROR - Format IOB info after error                                                                            Page   55
0Current Usings:  (NIT,R12)
0Loc    Object Code    Addr1 Addr2  Stmt Lv Lineno    Source Statement           (Hibal 5, Asmedit 3.3)  HLASM R4.0  2004/03/15 13.11
+___    ______ ____    _____ _____  ____ __ ______    ______ _________
0                                  13074
                                   13075                 NETERROR - Format IOB info after error.
                                   13076
                                   13077                   On entry:
                                   13078                     R1 - IOB address
                                   13079

00017B6 90EF C020/4DE0_      00020 13080              NETERROR PROC
 USING  *,R11
 0017DA 1861                       13122                       LR    R6,R1               IOB address
 USING  IOB,R6                     13123                       WITH  (IOB,R6)
 0017DC 1F22/BF27 6009             13136                       L3    R2,IOBCSWA          CSW address
 0017E2 4B20 B266            01A40 13144                       SH    R2,=Y(8)            Back up
 0017E6 1F00/BF07 6011             13145                       L3    R0,IOBCAW           First CCW addr
 0017EC 1920/47B0 B01A_            13151                       IF    (R2,LT,R0),'LR R2,R0'  Validity check CSW addr
 0017F4 4110 B22A/4100_      01A04 13172                       SEG   'CCW=',,NITPRSG
 001806 43F0 2000            00000 13189                       IC    R15,@R2             Get CCW op code
 00180A 181F/4100 0002_            13190                       SEGHX (R15),2             Format op code
 00181A 4110 B287/4100_      01A61 13214                       SEG   ' CSW='
 00182C 4810 600C/4100_      0000C 13231                       SEGHX LH:IOBCSWS1,4
 00183E 9500 6010/4780_00010       13254                       IF    (IOBSIO,NZ),BEGIN
 001846 4110 B28C/4100_      01A66 13270  1                      SEG   ' SIOCC='
 001858 1F11/4310 6010_            13287  1                      SEGHX IC:IOBSIO,2
 00186C                            13316                       END
 00186C 4110 B293/4100_      01A6D 13320                       SEG   ' ECBCC='
 00187E 1F11/4310 6004_            13337                       SEGHX IC:IOBPC,2
 001892 D601 6002 6002_00002 00002 13366                       IF    (IOBSNS,NZ),BEGIN
 00189C 4110 B29A/4100_      01A74 13382  1                      SEG   ' SENSE='
 0018AE 4810 6002/4100_      00002 13399  1                      SEGHX LH:IOBSNS,4
 0018C0                            13422                       END
 0018C0 1B00/41F0 C4B0_            13426                       SEGWR ,
 0018CC 18D9/980C D004_            13450                       PEND
 DROP   IOB,R6
 DROP   *,R11
                                   13475
                                   13476                       QLTORG
1AMELIA   NETSEG - Network SEG routine                                                                                      Page   56
0Current Usings:  (NIT,R12)
0Loc    Object Code    Addr1 Addr2  Stmt Lv Lineno    Source Statement           (Hibal 5, Asmedit 3.3)  HLASM R4.0  2004/03/15 13.11
+___    ______ ____    _____ _____  ____ __ ______    ______ _________
0                                  13538
                                   13539
                                   13540                 NETSEG -- Seg processing routine to handle writing
                                   13541                   data to the network interface.
                                   13542
                                   13543                   On entry:
                                   13544                     R15 - SEGCB ptr
                                   13545

0001A7C 90EF C020/4DE0_      00020 13546              NETSEG   PROC
 USING  *,R11
                                   13588
 001AA0 58C0 B198            01C38 13589                       L     NITR,=A(NIT)
                                   13590
 001AA4 185F                       13591                       LR    R5,R15
 USING  SEGCB,R5                   13592                       WITH  (SEGCB,R5)
 001AA6 9502 5000/4770_00000       13605                       IF    ~SEGCBWR,EXIT       Exit if not write
                                   13623
 001AAE 1220                       13624                       LTR   R2,R0               Current buffer length
 001AB0 47D0 B0C6            01B66 13625                       IF    NP,EXIT             Nothing to write, scram
 001AB4 5920 B19C/47D0_      01C3C 13639                       IF    (R2,GT,1514),'FAIL "Packet too long"'
 001AC6 1841                       13665                       LR    R4,R1
                                   13666
                                   13667                         Queue packet to be written.
                                   13668
 001AC8 4100 2006            00006 13669                       LA    R0,4+2+@R2          Total area length
 001ACC 58E0 B1A0/0DEE       01C40 13670                       ACALL GETBUF              Get buffer
 001AD2 1831                       13674                       LR    R3,R1
 001AD4 D703 3000 3000 00000 00000 13675                       CLEAR (@R3,4)             Link ptr
 001ADA 4020 3004            00004 13682                       STH   R2,@R3+4            Length halfword
 001ADE 41E0 3006/18F2_      00006 13683                       MOVEL @R3+6,@R4,(R2)      Data
                                   13705
                                   13706                         It's for us, add packet to software loopback queue.
                                   13707
 001AEA 4110 3006            00006 13708                       LA    R1,@R3+6            Start of ethernet header
 USING  ENETHDR,R1                 13709                       WITH  (ENETHDR,R1),BEGIN
 001AEE D505 1000 C693 00000 00693 13723  1                      CLC   ENETDST,NITETHER    Is it for us?
 DROP   ENETHDR,R1                 13724                       END
                                   13732
 001AF4 4770 B07A            01B1A 13733                       IF    EQ,BEGIN            Yep, add to loopback queue...
 001AF8 D603 C74C C74C_0074C 0074C 13744  1                      IF    (NITLPQH,Z),BEGIN   Nothing on queue...
 001B02 5030 C74C            0074C 13760  2                        ST    R3,NITLPQH          Queue head
 001B06 5030 C750            00750 13761  2                        ST    R3,NITLPQT          Queue tail
 001B0A                            13762  1                      END
                                   13766  1
 001B0A B06E/47F0 B07A 01B0A 01B00 13767  1                      ELSE  BEGIN               Add to end of queue...
 001B0E 58F0 C750            00750 13778  2                        L     R15,NITLPQT         Old last entry
 001B12 5030 F000            00000 13779  2                        ST    R3,@R15             Link us to that entry
 001B16 5030 C750            00750 13780  2                        ST    R3,NITLPQT          We are the new last entry
 001B1A                            13781  1                      END
 001B1A                            13785                       END
1AMELIA   NETSEG - Network SEG routine                                                                                      Page   57
0Current Usings:  (SEGCB,R5) (*,R11) (NIT,R12)
0Loc    Object Code    Addr1 Addr2  Stmt Lv Lineno    Source Statement           (Hibal 5, Asmedit 3.3)  HLASM R4.0  2004/03/15 13.11
+___    ______ ____    _____ _____  ____ __ ______    ______ _________
0                                  13789
                                   13790                         Add packet to ethernet write queue.
                                   13791
 001B1A B07E/47F0 B0C6 01B1A 01AF6 13792                       ELSE  BEGIN               Queue for ethernet...
 001B1E 4100 0001/5E00_      00001 13803  1                      INCR  R0,NITOQCNT         Incr write queue count
                                   13809  1         C            IF    (NITFWRIO,AND,      If write active,
 001B2A 9108 C101/47E0_00101              1                            (R0,GT,NITOQMAX)),BEGIN  and count gt prev max,
 001B3A 5000 C7F4            007F4 13840  2                        ST    R0,NITOQMAX              Update max count
 001B3E                            13841  1                      END
 001B3E D603 C7E8 C7E8_007E8 007E8 13845  1                      IF    (NITOQH,Z),BEGIN    Nothing on queue...
 001B48 5030 C7E8            007E8 13861  2                        ST    R3,NITOQH           Queue head
 001B4C 5030 C7EC            007EC 13862  2                        ST    R3,NITOQT           Queue tail
 001B50                            13863  1                      END
                                   13867  1
 001B50 B0B4/47F0 B0C0 01B50 01B46 13868  1                      ELSE  BEGIN               Add to end of queue...
 001B54 58F0 C7EC            007EC 13879  2                        L     R15,NITOQT          Old last entry
 001B58 5030 F000            00000 13880  2                        ST    R3,@R15             Link us to that entry
 001B5C 5030 C7EC            007EC 13881  2                        ST    R3,NITOQT           We are the new last entry
 001B60                            13882  1                      END
                                   13886  1
                                   13887  1                        Try to initiate packet write
                                   13888  1
 001B60 58E0 B1A4/0DEE       01C44 13889  1                      ACALL NETWRITE            Start new I/O
 001B66                            13893                       END
                                   13897
 001B66 18D9/980C D004_            13898                       PEND
 DROP   SEGCB,R5
 DROP   *,R11
1AMELIA   NETCLOSE - disable network interface                                                                              Page   58
0Current Usings:  (NIT,R12)
0Loc    Object Code    Addr1 Addr2  Stmt Lv Lineno    Source Statement           (Hibal 5, Asmedit 3.3)  HLASM R4.0  2004/03/15 13.11
+___    ______ ____    _____ _____  ____ __ ______    ______ _________
0                                  13924
                                   13925
                                   13926                 NETCLOSE -- Routine to disable network interface.  (Called
                                   13927                   at termination.)
                                   13928

0001B74 90EF C020/4DE0_      00020 13929              NETCLOSE PROC
 USING  *,R11
 001B98 9140 C101/47E0_00101       13971                       IF    NITFUP,BEGIN        It's up...
 001BA0 4110 B0C0/4100_      01C58 13986  1                      SEGWR 'Closing network interface',,NITPRSG
 001BB2 9180 C103/4710_00103       14004  1                      IF    NITFNODEV,EXIT
 001BBA 9120 C101/47E0_00101       14022  1                      IF    NITFCTIO,BEGIN      If control I/O active,
 001BC2 4100 0001/4110_      00001 14037  2                        WAIT  ECB=NITCECB         Wait for it
 001BCC                            14044  1                      END
                                   14048  1
 001BCC 4110 C6C8            006C8 14049  1                      LA    R1,NITDSCCW         Disable CCW
 001BD0 58E0 B0B4/0DEE       01C4C 14050  1                      ACALL NETCEXCP            Start I/O
 001BD6 4100 0001/4110_      00001 14054  1                      WAIT  ECB=NITCECB         Wait for completion
 001BE0 4110 B0D9/4100_      01C71 14061  1                      SEG   'Network interface disabled, post='
 001BF2 1F11/4310 C5CC_            14078  1                      SEGHX LC:NITCECB
 001C04 1B00/41F0 C4B0_            14104  1                      SEGWR
 001C10                            14128                       END
 001C10 18D9/980C D004_            14132                       PEND
 DROP   *,R11
                                   14152
                                   14153                       QLTORG
1AMELIA   NETTRAIL - Process trailer encapsulation packets                                                                  Page   59
0Current Usings:  (NIT,R12)
0Loc    Object Code    Addr1 Addr2  Stmt Lv Lineno    Source Statement           (Hibal 5, Asmedit 3.3)  HLASM R4.0  2004/03/15 13.11
+___    ______ ____    _____ _____  ____ __ ______    ______ _________
0                                  14177
                                   14178
                                   14179                 NETTRAIL -- Routine to handle packets where the IP and TCP
                                   14180                   headers have been placed in a trailer.  Original reason for
                                   14181                   this varient was memory management.  These packets will be
                                   14182                   reformatted to standard form.
                                   14183
                                   14184                 On exit:
                                   14185                   RC = 0  Valid packet
                                   14186                   RC = 4  Invalid trailer format packet
                                   14187

0000000                00000 005EA 14188              NETTRLWA RECORD BEGIN
 000000                            14196  1           NETTRLWK   DS    XL(ENETMAXL)        Room to save data portion of pkt
 0005EA                005EA 005EA 14197                       END
-001C92 90EF C020/4DE0_      00020 14207              NETTRAIL PROC  NETTRLWA
 USING  *,R11
 USING  NETTRLWA-(4+52),R9
 001CB6 5850 C740            00740 14260                       L     R5,NITIBUFP         Read buffer ptr
 001CBA 4140 5002            00002 14261                       LA    R4,@R5+2            Ethernet header addr
 USING  ENETHDR,R4                 14262                       WITH  (ENETHDR,R4)
                                   14275
                                   14276                         Trailer format packets are indicated by modified type:
                                   14277                           Type is X'1000' + (512 byte data block count).  Valid
                                   14278                           values are X'1001' to X'1010', ie., one to 16 data
                                   14279                           blocks in a packet (max for ethernet is 2 blocks).
                                   14280                           Original Ethernet packet type is saved in the trailer
                                   14281                           header.
                                   14282
                                   14283            C          IF    ((ENETTYPE,GE,=X'1001'),AND,    If valid ethernet
 001CBE D501 B276 400C_01F2C 0000C                                   (ENETTYPE,LE,=X'1002')),BEGIN    trailer format,
 001CD2 4820 400C            0000C 14316  1                      LH    R2,ENETTYPE         Get ethernet type
 001CD6 5420 B252            01F08 14317  1                      N     R2,=X'0000001F'     Isolate data block count
 001CDA 8920 0009            00009 14318  1                      SLL   R2,9                Mult by 512 to get length
 001CDE 4130 400E            0000E 14319  1                      LA    R3,ENETDATA
 001CE2 1A32                       14320  1                      AR    R3,R2               Address of trailer
                                   14321  1
 001CE4 1F11/BF13 3002             14322  1                      L2    R1,@R3+2            Get trailer length
 001CEA 1A12                       14330  1                      AR    R1,R2               Add data length
 001CEC 4111 000E            0000E 14331  1                      LA    R1,L'ENETHDR(R1)    Add ethernet header length
 001CF0 4800 5000            00000 14332  1                      LH    R0,@R5              Get actual packet length count
 001CF4 1910/47D0 B05E             14333  1                      IF    (R1,GT,R0),BEGIN    If invalid length,
 001CFA 4110 B282/4100_      01F38 14348  2                        SEGWR 'Invalid trailer format packet',,NITPRSG
 001D0C 41F0 0004            00004 14366  2                        LA    R15,4               Set error RC
 001D10 47F0 B0B6            01D6C 14367  2                        EXIT  NETTRAIL             and return
 001D14                            14370  1                      END
                                   14374  1
 001D14 41E0 9038/18F2_      00000 14375  1                      MOVEL NETTRLWK,ENETDATA,(R2)   Save data
                                   14397  1
 001D22 D201 400C 3000 0000C 00000 14398  1                      MVC   ENETTYPE,@R3        Restore original type
 001D28 1F66/BF63 3002             14399  1                      L2    R6,@R3+2            Length of trailer
1AMELIA   NETTRAIL - Process trailer encapsulation packets                                                                  Page   60
0Current Usings:  (ENETHDR,R4) (NETTRLWA-(4+52),R9) (*,R11) (NIT,R12)
0Loc    Object Code    Addr1 Addr2  Stmt Lv Lineno    Source Statement           (Hibal 5, Asmedit 3.3)  HLASM R4.0  2004/03/15 13.11
+___    ______ ____    _____ _____  ____ __ ______    ______ _________
0001D2E 4B60 B27A            01F30 14407  1                      SH    R6,=H'4'            Drop trailer header
 001D32 47B0 B088            01D3E 14408  1                      IF    M,BEGIN             Validity check length
 001D36 41F0 0004            00004 14419  2                        LA    R15,4               Set error RC
 001D3A 47F0 B0B6            01D6C 14420  2                        EXIT  NETTRAIL              and return
 001D3E                            14423  1                      END
 001D3E 41E0 400E/18F6_      0000E 14427  1                      MOVEL ENETDATA,@R3+4,(R6) Position packet headers
                                   14449  1
 001D4C 4130 400E            0000E 14450  1                      LA    R3,ENETDATA
 001D50 1A36                       14451  1                      AR    R3,R6               Calc new data position
 001D52 18E3/18F2/4100_            14452  1                      MOVEL @R3,NETTRLWK,(R2)   Move packet data after header
                                   14474  1
 001D5E 4820 5000            00000 14475  1                      LH    R2,@R5              Fix up K200 data block header
 001D62 4B20 B27A            01F30 14476  1                      SH    R2,=H'4'
 001D66 4020 5000            00000 14477  1                      STH   R2,@R5              Drop trailer header from length
 001D6A                            14478                       END
                                   14482
 001D6A 1BFF                       14483                       CLEAR R15
                                   14487
 001D6C 18D9/980C D004_            14488                       PEND
 DROP   ENETHDR,R4
 DROP   NETTRLWA-(4+52),R9
 DROP   *,R11
1AMELIA   LOOPREAD - Process loopback packet                                                                                Page   61
0Current Usings:  (NIT,R12)
0Loc    Object Code    Addr1 Addr2  Stmt Lv Lineno    Source Statement           (Hibal 5, Asmedit 3.3)  HLASM R4.0  2004/03/15 13.11
+___    ______ ____    _____ _____  ____ __ ______    ______ _________
0                                  14519
                                   14520
                                   14521                 LOOPREAD -- Routine to handle receiving a packet sent from
                                   14522                   us to us (a "loopback").  We handle the packet exactly
                                   14523                   the same as if it came from another host.  This code
                                   14524                   very closely resembles the NETREAD routine.
                                   14525

0000000                00000 00044 14526              LPRDWA   RECORD BEGIN
 000000                            14534  1           LPRDPCUR   DS    F                   NITPCUR save
 000004                            14535  1           LPRDWORK   DS    XL64                Working header area
 000044                00044 00044 14536                       END
                                   14545
 001D7A 90EF C020/4DE0_      00020 14546              LOOPREAD PROC  LPRDWA
 USING  *,R11
 USING  LPRDWA-(4+52),R9
                                   14599
                                   14600                         Process all loopback packets.
                                   14601
 001D9E 5850 C74C/1255_      0074C 14602              LPRDNEXT WHILE ('LT R5,NITLPQH',NZ),BEGIN  Process them all..
 001DA8 4150 5004            00004 14621  1                      LA    R5,@R5+4            Skip past link ptr
                                   14622  1
                                   14623  1                        Send packet just received to all paths that want it.
                                   14624  1
 001DAC 4110 5002/4800_      00002 14625  1                      SETMSG @R5+2,LH:@R5        Packet addr and length
                                   14638  1
 001DB4 41F0 0004            00004 14639  1                      LA    R15,4               Flag received packet
 001DB8 58E0 B172/0DEE       01F10 14640  1                      ACALL PATHMON             Check monitor paths
                                   14644  1
 001DBE 4160 C118            00118 14645  1                      LA    R6,NITPATQH-(UPATLINK-UPATH)  Dummy queue head
 001DC2                            14646  1                      LOOP  BEGIN
 USING  UPATH,R6                   14652  2                        WITH  (UPATH,R6)
 001DC2 5860 6004/1266_      00004 14665  2                        WHILE ('LT R6,UPATLINK',NZ)
 001DCC D203 9038 C124 00000 00124 14682  2                        MVC   LPRDPCUR,NITPCUR
 001DD2 5060 C124            00124 14683  2                        ST    R6,NITPCUR          Set current path ptr
                                   14684  2
                                   14685  2                          Check path's packet filter to see if this path should
                                   14686  2                            get this packet.
                                   14687  2
 001DD6 D73F 903C 903C 00004 00004 14688  2                        CLEAR LPRDWORK
 001DDC 48F0 5000            00000 14695  2                        LH    R15,@R5             Get length
 001DE0 59F0 B176/47D0_      01F14 14696  2                        CEIL  R15,L'LPRDWORK      Truncate if needed
 001DEC 06F0/12FF/4740_            14715  2                        DTEX  R15,'MVC LPRDWORK(0),@R5+2'  Copy packet header
 001DF8 D43F 903C 6094 00004 00094 14752  2                        NC    LPRDWORK,UPATXAND   AND out unwanted bits
 001DFE D53F 903C 60D4_00004 000D4 14753  2                        IF    (LPRDWORK,EQ,UPATXCMP),BEGIN  We want this packet...
                                   14771  3
 001E08 41F0 C1EC/58E0_      001EC 14772  3                          SEGCLR NITPSG
                                   14785  3
                                   14786  3                            Ethernet mode (return entire packet).
                                   14787  3
 001E12 9140 600E/4710_0000E       14788  3                          IF    ~UPATFIP,BEGIN      Ethernet mode...
 001E1A 4110 B14A            01EE8 14803  4                            LA    R1,=CL16'READ_PACKET:'
 001E1E 4100 0010/41F0_      00010 14804  4                            SEG   (R1),16
1AMELIA   LOOPREAD - Process loopback packet                                                                                Page   62
0Current Usings:  (UPATH,R6) (LPRDWA-(4+52),R9) (*,R11) (NIT,R12)
0Loc    Object Code    Addr1 Addr2  Stmt Lv Lineno    Source Statement           (Hibal 5, Asmedit 3.3)  HLASM R4.0  2004/03/15 13.11
+___    ______ ____    _____ _____  ____ __ ______    ______ _________
0001E2C 4110 5002/4800_      00002 14830  4                            SETMSG @R5+2,LH:@R5        Packet data
 001E34                            14843  3                          END
                                   14847  3
                                   14848  3                            IP mode (return data starting at IP header).
                                   14849  3
 001E34 B09A/47F0 B0BC 01E34 01E18 14850  3                          ELSE  BEGIN               IP mode...
 001E38 4110 B15A            01EF8 14861  4                            LA    R1,=CL16'READ_IP:'
 001E3C 4100 0010/41F0_      00010 14862  4                            SEG   (R1),16
 001E4A 4110 5002/4800_      00002 14888  4                            SETMSG @R5+2,LH:@R5        Packet data
 001E52 4110 100E            0000E 14901  4                            LA    R1,@R1+L'ENETHDR    Skip past ethernet header
 001E56 4B00 B194            01F32 14902  4                            SH    R0,=AL2(L'ENETHDR)
 001E5A                            14903  3                          END
                                   14907  3
 001E5A 41F0 C1EC/58E0_      001EC 14908  3                          SEGWR (R1),(R0)           Packet data
 001E64                            14932  2                        END
 001E64 D203 C124 9038 00124 00000 14936  2                        MVC   NITPCUR,LPRDPCUR    Reset NITPCUR
 001E6A 47F0 B024            01DC2 14937  1                      END
 DROP   UPATH,R6
                                   14947  1
                                   14948  1                        Count number of loopback packets.
                                   14949  1
 001E6E 4100 0001/5E00_      00001 14950  1                      INCR  R0,NITRPACK         Total no of packets received
 001E7A 4100 0001/5E00_      00001 14956  1                      INCR  R0,NITRLOOP         Count no of loopbacks
                                   14962  1
                                   14963  1                        Call special protocol handling routines.
                                   14964  1
 001E86 4110 5002/4800_      00002 14965  1                      SETMSG @R5+2,LH:@R5        Get packet addr and len
 USING  ENETHDR,R1                 14978  1                      WITH  (ENETHDR,R1),BEGIN  Ethernet header
 001E8E D501 B196 100C_01F34 0000C 14992  2                        IF    (ENETTYPE,EQ,ENETARP#),BEGIN   If ARP packet,
 001E98 58E0 B182/0DEE       01F20 15010  3                          ACALL RCVARP                         Call ARP routine
 001E9E                            15014  2                        END
 001E9E B104/47F0 B114_01E9E 01E96 15018  2                        ELSEIF (ENETTYPE,EQ,ENETIP#),BEGIN    Else if IP packet,
 001EAC 58E0 B186/0DEE       01F24 15045  3                          ACALL RCVIP                           Call IP routine
 001EB2                            15049  2                        END
 DROP   ENETHDR,R1                 15053  1                      END
                                   15061  1
                                   15062  1                        Remove this packet from the loopback queue.
                                   15063  1
 001EB2 5810 C74C            0074C 15064  1                      L     R1,NITLPQH          Current packet ptr
 001EB6 D203 C74C 1000 0074C 00000 15065  1                      MVC   NITLPQH,@R1         Set new queue head
 001EBC D603 C74C C74C_0074C 0074C 15066  1                      IF    (NITLPQH,Z),'CLEAR NITLPQT'  Nothing in queue
 001ECC 58E0 B18A/0DEE       01F28 15094  1                      ACALL FREECORE            Free packet we just processed
 001ED2 47F0 B000            01D9E 15098                       END
                                   15103
 001ED6 18D9/980C D004_            15104                       PEND
 DROP   LPRDWA-(4+52),R9
 DROP   *,R11
                                   15129
                                   15130                       QLTORG
1AMELIA   RCVARP - Process Received ARP Packet                                                                              Page   63
0Current Usings:  (NIT,R12)
0Loc    Object Code    Addr1 Addr2  Stmt Lv Lineno    Source Statement           (Hibal 5, Asmedit 3.3)  HLASM R4.0  2004/03/15 13.11
+___    ______ ____    _____ _____  ____ __ ______    ______ _________
0                                  15161
                                   15162
                                   15163                 RCVARP - Process received ARP packet.  Update host
                                   15164                          table, and send reply if ARP request.  The
                                   15165                          logic follows the description in RFC-826.
                                   15166
                                   15167                   On entry:
                                   15168                     R0,R1  - Ethernet packet length and address
                                   15169

0001F5C 90EF C020/4DE0_      00020 15170              RCVARP   PROC
 USING  *,R11
                                   15212
                                   15213                         Copy and validity check the packet.
                                   15214
 001F80 1870                       15215                       LR    R7,R0               Packet length
 001F82 186D/1AD7/41D0_            15216                       XPUSH ,,(R7),PTR=R6       Get stack space
 001F8E 18E6/18F7/1801_            15221                       MOVEL (R6),(R1),(R7)      Copy packet
 USING  ENETHDR,R6                 15239                       WITH  (ENETHDR,R6)        Ethernet header address
 001F98 4150 600E            0000E 15252                       LA    R5,ENETDATA         Point past header
 USING  ARP,R5                     15253                       WITH  (ARP,R5)            Start of ARP packet
 001F9C D501 BB14 5000_02A94 00000 15266                       IF    (ARPHRD,NE,ARPENET#),EXIT
 001FA6 D501 BB16 5002_02A96 00002 15287                       IF    (ARPPRO,NE,ENETIP#),EXIT
                                   15308            C          IF    ((ARPOP,NE,ARPREQ#),AND,
 001FB0 D501 BB18 5006_02A98 00006                                   (ARPOP,NE,ARPREP#)),EXIT
                                   15346
                                   15347                         If the IP address is in the host table, update the entry.
                                   15348
 001FC4 BF1F 500E            0000E 15349                       L4    R1,ARPSPA           Source IP address
 001FC8 58E0 BA8C/0DEE       02A0C 15351                       ACALL GETHOST             Look up address
 001FCE 1841                       15355                       LR    R4,R1               Copy host address (or zero)
 USING  HSTTABLE,R4                15356                       WITH  (HSTTABLE,R4)
 001FD0 1244/4780 B070_            15369                       IF    ((R4,NZ),AND,(ARPSHA,NZ)),BEGIN  If have entry
 001FE0 D205 4010 5008 00010 00008 15398  1                      MVC   HSTENET,ARPSHA      Update Ethernet address
 001FE6 B205 D000      00000       15399  1                      STCK  @R13                Update time stamp
 001FEA D203 400C D000 0000C 00000 15400  1                      MVC   HSTTIME,@R13
 001FF0                            15401                       END
                                   15405
                                   15406                         If our IP address is the target IP address,
                                   15407                           - add new entry to host table if none for source IP addr
                                   15408                           - send an ARP reply if packet is ARP request
                                   15409
 001FF0 D503 5018 C034_00018 00034 15410                       IF   (ARPTPA,EQ,NITIP),BEGIN  If target is our IP addr,
 001FFA 1244/4770 B09C             15428  1                      IF    (R4,Z),BEGIN        If no host table entry
 002000 BF1F 500E            0000E 15442  2                        L4    R1,ARPSPA           Source IP address
 002004 58E0 BA90/0DEE       02A10 15444  2                        ACALL ADDHOST             Add host table entry
 00200A 1841                       15448  2                        LR    R4,R1               Copy address
 00200C D205 4010 5008 00010 00008 15449  2                        MVC   HSTENET,ARPSHA      Set Ethernet address in entry
 002012 B205 D000      00000       15450  2                        STCK  @R13                Time stamp
 002016 D203 400C D000 0000C 00000 15451  2                        MVC   HSTTIME,@R13
 00201C                            15452  1                      END
                                   15456  1
 00201C D501 BB18 5006_02A98 00006 15457  1                      IF    (ARPOP,EQ,ARPREQ#),BEGIN  If ARP request,
1AMELIA   RCVARP - Process Received ARP Packet                                                                              Page   64
0Current Usings:  (HSTTABLE,R4) (ARP,R5) (ENETHDR,R6) (*,R11) (NIT,R12)
0Loc    Object Code    Addr1 Addr2  Stmt Lv Lineno    Source Statement           (Hibal 5, Asmedit 3.3)  HLASM R4.0  2004/03/15 13.11
+___    ______ ____    _____ _____  ____ __ ______    ______ _________
0002026 D201 5006 BB1C 00006 02A9C 15475  2                        MVC   ARPOP,=Y(ARPREP#)   Set opcode to reply
 00202C D205 6000 6006 00000 00006 15476  2                        MVC   ENETDST,ENETSRC     Set Enet dest from source addr
 002032 D205 6006 C693 00006 00693 15477  2                        MVC   ENETSRC,NITETHER    Set Enet src to our Enet addr
 002038 D205 5012 5008 00012 00008 15478  2                        MVC   ARPTHA,ARPSHA       Set target Enet from sender Enet
 00203E D203 5018 500E 00018 0000E 15479  2                        MVC   ARPTPA,ARPSPA       Set target IP from sender IP
 002044 D205 5008 C693 00008 00693 15480  2                        MVC   ARPSHA,NITETHER     Set sender Enet to our Enet addr
 00204A D203 500E C034 0000E 00034 15481  2                        MVC   ARPSPA,NITIP        Set sender IP to our IP addr
 002050 1816/1807/41F0_            15482  2                        SEGWR (R6),(R7),NITOSG    Write packet
 00205E                            15508  1                      END
 00205E                            15512                       END
 00205E 18D9/980C D004_            15516                       PEND
 DROP   HSTTABLE,R4
 DROP   ARP,R5
 DROP   ENETHDR,R6
 DROP   *,R11
1AMELIA   XMITIP - Transmit IP packet                                                                                       Page   65
0Current Usings:  (NIT,R12)
0Loc    Object Code    Addr1 Addr2  Stmt Lv Lineno    Source Statement           (Hibal 5, Asmedit 3.3)  HLASM R4.0  2004/03/15 13.11
+___    ______ ____    _____ _____  ____ __ ______    ______ _________
0                                  15552
                                   15553
                                   15554                 XMITIP -- Transmit IP packet.  Caller provides packet data
                                   15555                           plus a skeleton IP header which contains the dest
                                   15556                           IP address, the TOS field, and the protocol type.
                                   15557
                                   15558                   On entry:
                                   15559                     R0,R1  - packet data length and address
                                   15560                     R15    - address of skeleton IP header
                                   15561
                                   15562                   On exit:
                                   15563                     R15=0  - packet transmitted
                                   15564                     R15=4  - Ethernet address unknown
                                   15565

0000000                00000 00022 15566              XMITIPW  RECORD BEGIN
 000000                            15574  1           XIPENET    DS    CL(L'ENETHDR)       Ethernet header work area
 00000E                            15575  1           XIPHDR     DS    CL(L'IPHDR)         IP header work area
 000022                00022 00022 15576                       END
-00206C 90EF C020/4DE0_      00020 15586              XMITIP   PROC  XMITIPW
 USING  *,R11
 USING  XMITIPW-(4+52),R9
 002090 1871                       15639                       LR    R7,R1               Data address
 002092 1860                       15640                       LR    R6,R0               Data length
                                   15641
                                   15642                         Build new IP header from caller's header.
                                   15643
 002094 D213 9046 F000 0000E 00000 15644                       MVC   XIPHDR,@R15         Copy caller's header
 00209A 4150 9046            0000E 15645                       LA    R5,XIPHDR           IP header area
 USING  IPHDR,R5                   15646                       WITH  (IPHDR,R5)
 00209E 9245 5000      00000       15659                       MVI   IPIHL,X'45'         Version 4 + header length
 0020A2 4000 5004            00004 15660                       STH   R0,IPID             Use low bytes as id
 0020A6 D200 5008 C100 00008 00100 15661                       MVC   IPTTL,NITIPTTL      Set time to live
 0020AC D203 500C C034 0000C 00034 15662                       MVC   IPSRC,NITIP         Source IP address
                                   15663
                                   15664                         Build Ethernet header.
                                   15665
 0020B2 5810 5010            00010 15666                       L     R1,IPDST            Get dest IP address
 0020B6 58E0 B988/0DEE       02A18 15667                       ACALL GETENET             Get Ethernet address
 0020BC 4780 B038            020C8 15671                       IF    NZ,BEGIN            If unknown,
 0020C0 41F0 0004            00004 15682  1                      LA    R15,4               Set return code
 0020C4 47F0 B14E            021DE 15683  1                      EXIT  XMITIP              Return to caller
 0020C8                            15686                       END
 0020C8 4120 9038            00000 15690                       LA    R2,XIPENET
 USING  ENETHDR,R2                 15691                       USING ENETHDR,R2
 0020CC 9001 2000            00000 15700                       STM   R0,R1,ENETDST       Set in Ethernet header
 0020D0 D205 2006 C693 00006 00693 15701                       MVC   ENETSRC,NITETHER    Our Ethernet address
 0020D6 D201 200C BA0E 0000C 02A9E 15702                       MVC   ENETTYPE,=Y(ENETIP#)  Packet type
 DROP   ENETHDR,R2                 15703                       DROP  R2
1AMELIA   XMITIP - Transmit IP packet                                                                                       Page   66
0Current Usings:  (IPHDR,R5) (XMITIPW-(4+52),R9) (*,R11) (NIT,R12)
0Loc    Object Code    Addr1 Addr2  Stmt Lv Lineno    Source Statement           (Hibal 5, Asmedit 3.3)  HLASM R4.0  2004/03/15 13.11
+___    ______ ____    _____ _____  ____ __ ______    ______ _________
0                                  15710
                                   15711                         Transmit packet, generating IP fragment packets if needed.
                                   15712
 0020DC 1B44                       15713                       CLEAR R4                  Init data offset
 0020DE                            15717                       LOOP  BEGIN
 0020DE 1804                       15723  1                      LR    R0,R4               Copy fragment offset
 0020E0 8800 0003            00003 15724  1                      SRL   R0,3                Divide by 8
 0020E4 4000 5006            00006 15725  1                      STH   R0,IPFRAG           Set fragment offset in header
 0020E8 1826                       15726  1                      LR    R2,R6               Data length for this packet
 0020EA 5920 B98C/47D0_      02A1C 15727  1                      CEIL  R2,ENETMAXL-L'ENETHDR-L'IPHDR  Truncate to Enet max
 0020F6 1926/47B0 B070             15746  1                      IF    (R2,LT,R6),BEGIN    If not writing all data,
 0020FC 9620 5006      00006       15761  2                        OI    IPFRAG,X'20'        Indicate more fragments coming
 002100                            15762  1                      END
 002100 4102 0014            00014 15766  1                      LA    R0,L'IPHDR(R2)      Get length of this packet
 002104 4000 5002            00002 15767  1                      STH   R0,IPLEN            Set in header
 002108 D701 500A 500A 0000A 0000A 15768  1                      CLEAR IPHDRCHK            Clear checksum
 00210E 1815/4100 0014_            15775  1                      CHECKSUM IPHDR            Checksum header
 00211C 40F0 500A            0000A 15797  1                      STH   R15,IPHDRCHK        Set in header
 002120 4110 9038/4100_      00000 15798  1                      SEG   XIPENET,L'XIPENET+L'XIPHDR,NITOSG   Write headers
 002132 1817                       15827  1                      LR    R1,R7               Copy data address
 002134 1A72                       15828  1                      AR    R7,R2               Update data pointer
 002136 1B62                       15829  1                      SR    R6,R2               Reduce remaining length
 002138 1A42                       15830  1                      AR    R4,R2               Update data offset
 00213A 1802/41F0 C7BC_            15831  1                      SEGWR (R1),(R2)           Write data and send packet
 002146 1266/4780 B0C0             15856  1                      IF    (R6,Z),EXIT         Exit if no more data
 00214C 47F0 B04E            020DE 15873                       END
                                   15878
                                   15879                         Update packet statistics
                                   15880
 002150 5810 5010            00010 15881                       L     R1,IPDST
 002154 58E0 B980/0DEE       02A10 15882                       ACALL ADDHOST             Get host table entry
 USING  HSTTABLE,R1                15886                       WITH  (HSTTABLE,R1)
 00215A 9501 5009/4770_00009       15899                       IF    (IPTYPE,EQ,IPICMP#),BEGIN
 002162 4100 0001/5E00_      00001 15917  1                      INCR  R0,NITSICMP         ICMP send total
 00216E 4100 0001/5E00_      00001 15923  1                      INCR  R0,HSTSICMP         ICMP host total
 00217A                            15929                       END
 00217A B0EE/47F0 B10E_0217A 02160 15933                       ELSEIF (IPTYPE,EQ,IPTCP#),BEGIN
 002186 4100 0001/5E00_      00001 15960  1                      INCR  R0,NITSTCP          TCP send total
 002192 4100 0001/5E00_      00001 15966  1                      INCR  R0,HSTSTCP          TCP host total
 00219E                            15972                       END
 00219E B112/47F0 B132_0219E 02184 15976                       ELSEIF (IPTYPE,EQ,IPUDP#),BEGIN
 0021AA 4100 0001/5E00_      00001 16003  1                      INCR  R0,NITSUDP          UDP send total
 0021B6 4100 0001/5E00_      00001 16009  1                      INCR  R0,HSTSUDP          UDP host total
 0021C2                            16015                       END
 0021C2 B136/47F0 B14E 021C2 021A8 16019                       ELSE  BEGIN
 0021C6 4100 0001/5E00_      00001 16030  1                      INCR  R0,NITSIPMS         Misc send total
 0021D2 4100 0001/5E00_      00001 16036  1                      INCR  R0,HSTSIPMS         Host send total
 0021DE                            16042                       END
 0021DE 18D9/980C D004_            16046                       PEND
 DROP   HSTTABLE,R1
 DROP   IPHDR,R5
 DROP   XMITIPW-(4+52),R9
 DROP   *,R11
1AMELIA   XMITUDP - Transmit UDP packet                                                                                     Page   67
0Current Usings:  (NIT,R12)
0Loc    Object Code    Addr1 Addr2  Stmt Lv Lineno    Source Statement           (Hibal 5, Asmedit 3.3)  HLASM R4.0  2004/03/15 13.11
+___    ______ ____    _____ _____  ____ __ ______    ______ _________
0                                  16082
                                   16083
                                   16084                 XMITUDP -- Transmit UDP packet.
                                   16085
                                   16086                   Transmit UDP packet after computing the checksum.
                                   16087
                                   16088                   On entry:
                                   16089                     R1    - Packet address
                                   16090                     R15   - IP address of packet
                                   16091

0000000                00000 00020 16092              XMITUDPW RECORD BEGIN
 000000                            16100  1           XMUDPIPH   DS    CL(L'IPHDR)         IP header work area
 000014                            16101  1           XMUDPPHD   DS    CL12                UDP pseudo-header work area
 000020                00020 00020 16102                       END
-0021EC 90EF C020/4DE0_      00020 16112              XMITUDP  PROC  XMITUDPW
 USING  *,R11
 USING  XMITUDPW-(4+52),R9
 002210 D71F 9038 9038 00000 00000 16165                       CLEAR XMITUDPW            Clear work area
 002216 1821                       16172                       LR    R2,R1               Copy UDP header address
 USING  UDPHDR,R2                  16173                       WITH  (UDPHDR,R2)         Caller's UDP header
 002218 4830 2004            00004 16186                       LH    R3,UDPLEN           Get UDP packet length
 00221C 184F                       16187                       LR    R4,R15              Copy IP address
                                   16188
                                   16189                         Build pseudo-header and compute UDP checksum.
                                   16190
 00221E D701 2006 2006 00006 00006 16191                       CLEAR UDPCHK              Clear checksum
 002224 D203 904C C034 00014 00034 16198                       MVC   XMUDPPHD(4),NITIP   Build pseudo-header
 00222A 5040 9050            00018 16199                       ST    R4,XMUDPPHD+4
 00222E D201 9054 B890 0001C 02AA0 16200                       MVC   XMUDPPHD+8(2),=Y(IPUDP#)
 002234 4030 9056            0001E 16201                       STH   R3,XMUDPPHD+10
 002238 4110 904C/4100_      00014 16202                       CHECKSUM XMUDPPHD,FINAL=NO  Checksum pseudo-header
 00224A 1812/1803/58E0_            16225                       CHECKSUM (R2),(R3),(R15)    Checksum packet
 002254 40F0 2006            00006 16245                       STH   R15,UDPCHK            Set checksum in header
                                   16246
                                   16247                         Build skeleton IP header and send packet.
                                   16248
 002258 4150 9038            00000 16249                       LA    R5,XMUDPIPH         IP work area
 USING  IPHDR,R5                   16250                       WITH  (IPHDR,R5)
 00225C 9211 5009      00009       16263                       MVI   IPTYPE,IPUDP#       Protocol id
 002260 5040 5010            00010 16264                       ST    R4,IPDST            Dest IP address
 002264 41F0 5000            00000 16265                       LA    R15,IPHDR           IP header address
 002268 1803                       16266                       LR    R0,R3               UDP packet length
 00226A 1812                       16267                       LR    R1,R2               UDP packet address
 00226C 58E0 B818/0DEE       02A28 16268                       ACALL XMITIP              Call IP transmit routine
 002272 18D9/980C D004_            16272                       PEND
 DROP   IPHDR,R5
 DROP   UDPHDR,R2
 DROP   XMITUDPW-(4+52),R9
 DROP   *,R11
1AMELIA   RCVIP - Process received IP packet                                                                                Page   68
0Current Usings:  (NIT,R12)
0Loc    Object Code    Addr1 Addr2  Stmt Lv Lineno    Source Statement           (Hibal 5, Asmedit 3.3)  HLASM R4.0  2004/03/15 13.11
+___    ______ ____    _____ _____  ____ __ ______    ______ _________
0                                  16308
                                   16309
                                   16310                 RCVIP - Process received IP packet.  Call higher
                                   16311                           level protocol handling routines.  If the
                                   16312                           packet is a fragment, perform assembly.
                                   16313
                                   16314                 On entry:  R0,R1 = Ethernet packet length and address
                                   16315

0002280 90EF C020/4DE0_      00020 16316              RCVIP    PROC
 USING  *,R11
 0022A4 1871                       16358                       LR    R7,R1               Packet address
 0022A6 1860                       16359                       LR    R6,R0               Packet length
 USING  ENETHDR,R7                 16360                       WITH  (ENETHDR,R7)        Ethernet header
 0022A8 4150 700E            0000E 16373                       LA    R5,ENETDATA         Point to IP header
 USING  IPHDR,R5                   16374                       WITH  (IPHDR,R5)
                                   16387
 0022AC D603 500C 500C_0000C 0000C 16388                       IF    (IPSRC,Z),RCVIPXIT  Flakey IP addr, scram
                                   16407
                                   16408                         Check destination address to see if IP is really for us.
                                   16409
 0022B6 D503 5010 C034_00010 00034 16410                       IF    (IPDST,NE,NITIP),BEGIN  Not explicitly for us...
                                   16428  1
                                   16429  1                        If destination is not specifically for us, it could be an
                                   16430  1                          IP broadcast address.
                                   16431  1
 0022C0 9501 5009/4770_00009       16432  1                      IF    (IPTYPE,NE,IPICMP#),RCVIPXIT  Not ICMP, forget it
                                   16453  1
 0022C8 4100 0004            00004 16454  1                      LA    R0,4                Loop counter
 0022CC 4110 5010            00010 16455  1                      LA    R1,IPDST            Dest IP address
 0022D0 4120 C034            00034 16456  1                      LA    R2,NITIP            Our IP address
 0022D4 1200/47D0 B056             16457  1                      WHILE (R0,P),BEGIN
                                   16473  2         C              IF    (('CLC @R1(1),@R2',NE),AND,   If byte doesn't match
 0022DA D500 1000 2000_00000 00000        2                              (@R1,NE,X'FF')),RCVIPXIT  and not 'FF', return
 0022EC 5E10 B788            02A2C 16504  2                        INCR  R1
 0022F0 5E20 B788            02A2C 16507  2                        INCR  R2
 0022F4 0600                       16510  2                        DECR  R0
 0022F6 47F0 B030            022D4 16512  1                      END
 0022FA                            16517                       END
                                   16521
                                   16522                         Validity check length fields.
                                   16523
 0022FA 4B60 B7FE            02AA2 16524                       SH    R6,=Y(L'ENETHDR)    Get Ethernet data length
 0022FE 4320 5000            00000 16525                       IC    R2,IPIHL            Get IP header length
 002302 5420 B78C            02A30 16526                       N     R2,=A(15)           Isolate length
 002306 8920 0002            00002 16527                       SLL   R2,2                Get header length in bytes
                                   16528            C          IF    (('CLM R6,3,IPLEN',L),OR, If packet length invalid
                                                    C                ('CLM R2,3,IPLEN',H),OR, or hdr len gt packet len
 00230A BD63 5002/4740_      00002                                   (R2,LT,L'IPHDR)),BEGIN    or hdr len too small,
 002322 4110 B81E/4100_      02AC2 16567  1                      SEGWR 'Invalid IP packet received:',,NITPRSG   log error
 002334 1815/1806/9600_            16585  1                      HEXDUMP IPHDR,(R6)        Dump it
 002346 47F0 B226            024CA 16613  1                      EXIT  RCVIP               Return to caller
 00234A                            16616                       END
1AMELIA   RCVIP - Process received IP packet                                                                                Page   69
0Current Usings:  (IPHDR,R5) (ENETHDR,R7) (*,R11) (NIT,R12)
0Loc    Object Code    Addr1 Addr2  Stmt Lv Lineno    Source Statement           (Hibal 5, Asmedit 3.3)  HLASM R4.0  2004/03/15 13.11
+___    ______ ____    _____ _____  ____ __ ______    ______ _________
0                                  16620
                                   16621                         Validity check the IP header checksum
                                   16622
 00234A 1815/1802/1BFF_            16623                       CHECKSUM IPHDR,(R2)
 002356 59F0 B798/4780_      02A3C 16645                       IF    (R15,NE,=A(X'FFFF')),BEGIN
 00235E 183F                       16661  1                      LR    R3,R15
 002360 4110 B839/4100_      02ADD 16662  1                      SEG   'IP checksum error  IPSRC=',,NITPRSG
 002372 5810 500C/41F0_      0000C 16679  1                      SEGIP IPSRC
 002380 4110 B800/4100_      02AA4 16696  1                      SEG   '  '
 002392 1813/4100 0004_            16713  1                      SEGHX (R3),4
 0023A2 1B00/41F0 C4B0_            16737  1                      SEGWR ,
 0023AE 1815/1802/9600_            16761  1                      HEXDUMP IPHDR,(R2)        Log packet header
 0023C0 4100 0001/5E00_      00001 16789  1                      INCR  R0,NITIPCHK
 0023CC 47F0 B226            024CA 16795  1                      EXIT  RCVIP               Drop packet
 0023D0                            16798                       END
                                   16802
                                   16803                         Update host table entry.
                                   16804
 0023D0 5810 500C            0000C 16805                       L     R1,IPSRC            IP source address
 0023D4 58E0 B76C/0DEE       02A10 16806                       ACALL ADDHOST             Update host table
 0023DA 1831                       16810                       LR    R3,R1
 USING  HSTTABLE,R3                16811                       WITH  (HSTTABLE,R3)
 0023DC D205 3010 7006 00010 00006 16824                       MVC   HSTENET,ENETSRC     Update Ethernet address
 0023E2 B205 D000      00000       16825                       STCK  @R13                Time stamp entry
 0023E6 D203 300C D000 0000C 00000 16826                       MVC   HSTTIME,@R13        Time stamp entry
                                   16827
                                   16828                         Process packet fragment.
                                   16829
 0023EC 4840 5006            00006 16830                       LH    R4,IPFRAG           Get fragment indicator
 0023F0 5440 B7A4            02A48 16831                       N     R4,=A(X'3FFF')      Isolate flag/offset
 0023F4 4780 B182            02426 16832                       IF    NZ,BEGIN            If fragment,
 0023F8 41F0 0001/5EF0_      00001 16843  1                      INCR  R15,HSTRFRAG        Incr received fragment counters
 002404 41F0 0001/5EF0_      00001 16849  1                      INCR  R15,NITRFRAG
                                   16855  1           *
                                   16856  1           **       SEGB  'IP fragment from',,NITPRSG   Log packet
                                   16857  1           **       SEGIP IPSRC
                                   16858  1           **       SEG   '  IPLEN='
                                   16859  1           **       SEGDC L2:IPLEN
                                   16860  1           **       SEGWR ,
                                   16861  1           *
 002410 4110 5000            00000 16862  1                      LA    R1,IPHDR            Packet address
 002414 58E0 B7A8/0DEE       02A4C 16863  1                      ACALL RCVFRAG             Call fragment routine
 00241A 4780 B17E/47F0_      02422 16867  1                      IF    NZ,'EXIT RCVIP'     If incomplete packet, exit (RC=4)
 002422 1851                       16886  1                      LR    R5,R1               New IP packet address
 002424 1860                       16887  1                      LR    R6,R0               New IP packet length
 002426                            16888                       END
                                   16892
                                   16893                         Call higher level protocol handling routine.
                                   16894
 002426 1F00/BF03 5002             16895                       L2    R0,IPLEN            IP packet length
 00242C 4110 5000            00000 16901                       LA    R1,IPHDR            IP packet start
 002430 9501 5009/4770_00009       16902                       IF    (IPTYPE,EQ,IPICMP#),BEGIN   If ICMP packet,
 002438 41F0 0001/5EF0_      00001 16920  1                      INCR  R15,HSTRICMP
 002444 41F0 0001/5EF0_      00001 16926  1                      INCR  R15,NITRICMP
1AMELIA   RCVIP - Process received IP packet                                                                                Page   70
0Current Usings:  (HSTTABLE,R3) (IPHDR,R5) (ENETHDR,R7) (*,R11) (NIT,R12)
0Loc    Object Code    Addr1 Addr2  Stmt Lv Lineno    Source Statement           (Hibal 5, Asmedit 3.3)  HLASM R4.0  2004/03/15 13.11
+___    ______ ____    _____ _____  ____ __ ______    ______ _________
0002450 58E0 B7AC/0DEE       02A50 16932  1                      ACALL RCVICMP
 002456                            16936                       END
 002456 B1B6/47F0 B1D0_02456 02436 16940                       ELSEIF (IPTYPE,EQ,IPTCP#),BEGIN
 002462 41F0 0001/5EF0_      00001 16967  1                      INCR  R15,NITRTCP
 00246E 58E0 B7B0/0DEE       02A54 16973  1                      ACALL RCVTCP
 002474                            16977                       END
 002474 B1D4/47F0 B1FA_02474 02460 16981                       ELSEIF (IPTYPE,EQ,IPUDP#),BEGIN
 002480 41F0 0001/5EF0_      00001 17008  1                      INCR  R15,HSTRUDP
 00248C 41F0 0001/5EF0_      00001 17014  1                      INCR  R15,NITRUDP
 002498 58E0 B7B4/0DEE       02A58 17020  1                      ACALL RCVUDP
 00249E                            17024                       END
 00249E B1FE/47F0 B216 0249E 0247E 17028                       ELSE  BEGIN
 0024A2 41F0 0001/5EF0_      00001 17039  1                      INCR  R15,HSTRIPMS
 0024AE 41F0 0001/5EF0_      00001 17045  1                      INCR  R15,NITRIPMS
 0024BA                            17051                       END
                                   17055
                                   17056                         If packet built from fragments, free packet buffer now.
                                   17057
 0024BA 1244/4780 B226             17058                       IF    (R4,NZ),BEGIN       If packet was fragment,
 0024C0 4110 5000            00000 17072  1                      LA    R1,IPHDR            Packet buffer address
 0024C4 58E0 B7B8/0DEE       02A5C 17073  1                      ACALL FREECORE            Free packet buffer
 0024CA                            17077                       END
                                   17081
 0024CA 18D9/980C D004_            17082              RCVIPXIT PEND
 DROP   HSTTABLE,R3
 DROP   IPHDR,R5
 DROP   ENETHDR,R7
 DROP   *,R11
1AMELIA   RCVICMP - Process Received ICMP Packet                                                                            Page   71
0Current Usings:  (NIT,R12)
0Loc    Object Code    Addr1 Addr2  Stmt Lv Lineno    Source Statement           (Hibal 5, Asmedit 3.3)  HLASM R4.0  2004/03/15 13.11
+___    ______ ____    _____ _____  ____ __ ______    ______ _________
0                                  17119
                                   17120
                                   17121                      RCVICMP - Process received ICMP packet.  If the packet
                                   17122                               is an ICMP echo, send an echo reply.
                                   17123
                                   17124                      On entry:
                                   17125                        R0  - IP packet length
                                   17126                        R1  - IP packet address
                                   17127

00024D8 90EF C020/4DE0_      00020 17128              RCVICMP  PROC
 USING  *,R11
 0024FC 5900 B564/4720_      02A60 17170                       IF    (R0,GT,8000),EXIT   Check length
 002504 1850                       17190                       LR    R5,R0               Save length
 002506 186D/1AD5/41D0_            17191                       XPUSH ,,(R5),PTR=R6       Get packet work area
 002512 18E6/18F5/1801_            17196                       MOVEL (R6),(R1),(R5)      Copy packet data
 USING  IPHDR,R6                   17214                       WITH  (IPHDR,R6)
 00251C 4320 6000            00000 17227                       IC    R2,IPIHL            IP header length
 002520 5420 B534            02A30 17228                       N     R2,=A(15)           Isolate length
 002524 8920 0002            00002 17229                       SLL   R2,2                Get length in bytes
 002528 1B52                       17230                       SR    R5,R2               Get ICMP packet length
 00252A 5950 B568/4740_      02A64 17231                       IF    (R5,LT,4),EXIT      Check length
 002532 4142 6000            00000 17251                       LA    R4,IPHDR(R2)        Get ICMP packet start addr
 USING  ICMPHDR,R4                 17252                       WITH  (ICMPHDR,R4)
                                   17265
                                   17266                         Checksum packet
                                   17267
 002536 D601 4002 4002_00002 00002 17268                       IF    (ICMPCHK,NZ),BEGIN
 002540 1814/1805/1BFF_            17284  1                      CHECKSUM ICMPHDR,(R5)
 00254C 59F0 B540/4780_      02A3C 17306  1                      IF    (R15,NE,=A(X'FFFF')),BEGIN
 002554 4110 B5FA/4100_      02AF6 17322  2                        SEG   'ICMP checksum error  IPSRC=',,NITPRSG
 002566 5810 600C/41F0_      0000C 17339  2                        SEGIP IPSRC
 002574 1B00/41F0 C4B0_            17356  2                        SEGWR
 002580 47F0 B1B8            026B4 17380  2                        EXIT  RCVICMP             Exit, drop packet
 002584                            17383  1                      END
 002584                            17387                       END
                                   17391
                                   17392                         If echo message, Send echo reply
                                   17393
 002584 9508 4000/4770_00000       17394                       IF    (ICMPTYPE,EQ,ICMPECM#),BEGIN
 00258C D203 6010 600C 00010 0000C 17412  1                      MVC   IPDST,IPSRC         Swap IP source and dest
 002592 D203 600C C034 0000C 00034 17413  1                      MVC   IPSRC,NITIP         Set our IP addr as source
 002598 9200 4000      00000       17414  1                      MVI   ICMPTYPE,ICMPECR#   Set type code
 00259C D701 4002 4002 00002 00002 17415  1                      CLEAR ICMPCHK             Clear checksum
 0025A2 1814/1805/1BFF_            17422  1                      CHECKSUM ICMPHDR,(R5)     Checksum ICMP packet
 0025AE 40F0 4002            00002 17444  1                      STH   R15,ICMPCHK         Set in packet
                                   17445  1
 0025B2 41F0 6000            00000 17446  1                      LA    R15,IPHDR           Point to IP header
 0025B6 1805                       17447  1                      LR    R0,R5               ICMP length
 0025B8 4110 4000            00000 17448  1                      LA    R1,ICMPHDR          ICMP start address
 0025BC 58E0 B52C/0DEE       02A28 17449  1                      ACALL XMITIP              Call IP transmit routine
 0025C2 47F0 B1B8            026B4 17453  1                      EXIT  RCVICMP             Return
 0025C6                            17456                       END
1AMELIA   RCVICMP - Process Received ICMP Packet                                                                            Page   72
0Current Usings:  (ICMPHDR,R4) (IPHDR,R6) (*,R11) (NIT,R12)
0Loc    Object Code    Addr1 Addr2  Stmt Lv Lineno    Source Statement           (Hibal 5, Asmedit 3.3)  HLASM R4.0  2004/03/15 13.11
+___    ______ ____    _____ _____  ____ __ ______    ______ _________
0                                  17460
                                   17461                         Log other message types
                                   17462
                                   17463              **       SEGDEF NITPRSG
                                   17464              **       SEGB  'ICMP received from'
                                   17465              **       SEGIP IPSRC
                                   17466              **       IF    (ICMPTYPE,EQ,3),BEGIN   If dest unreachable,
                                   17467              **       IF    (ICMPCODE,EQ,0),'SEGB " Net unreachable"'
                                   17468              **       IF    (ICMPCODE,EQ,1),'SEGB " Host unreachable"'
                                   17469              **       IF    (ICMPCODE,EQ,2),'SEGB " Protocol unreachable"'
                                   17470              **       IF    (ICMPCODE,EQ,3),'SEGB " Port unreachable"'
                                   17471              **       IF    (ICMPCODE,GE,4),BEGIN
                                   17472              **       SEG   ' Dest unreachable  Code='
                                   17473              **       SEGDC LC:ICMPCODE
                                   17474              **       END
                                   17475              **       SEG   '  '
                                   17476              **       SEGIP L:ICMPDATA+4+IPDST-IPHDR
                                   17477              **       SEGWR ,
                                   17478              **       END
                                   17479              **       ELSEIF (ICMPTYPE,EQ,4),BEGIN
                                   17480              **       SEGB  ' Source quench'
                                   17481              **       SEGIP L:ICMPDATA+IPDST-IPHDR
                                   17482              **       SEGWR ,
                                   17483              **       END
                                   17484              **       ELSEIF (ICMPTYPE,EQ,5),BEGIN     Else if redirect,
                                   17485              **       SEGB  ' Redirect message  Code='
                                   17486              **       SEGDC LC:ICMPCODE
                                   17487              **       SEG   '  '
                                   17488              **       SEGIP L:ICMPDATA+IPDST-IPHDR
                                   17489              **       SEGWR ,
                                   17490              **       END
                                   17491              **       ELSEIF (ICMPTYPE,EQ,10),BEGIN    Else if time exceeded,
                                   17492              **       IF    (ICMPCODE,EQ,0),BEGIN
                                   17493              **       SEGB  ' TTL exceeded'
                                   17494              **       END
                                   17495              **       ELSEIF (ICMPCODE,EQ,1),BEGIN
                                   17496              **       SEGB  ' Reassembly time exceeded'
                                   17497              **       END
                                   17498              **       END
                                   17499              **       ELSE  BEGIN                      Else other msg type,
                                   17500              **       SEG   ' Type='
                                   17501              **       SEGDC LC:ICMPTYPE
                                   17502              **       SEG   ' Code='
                                   17503              **       SEGDC LC:ICMPCODE
                                   17504              **       SEGWR ,
                                   17505              **       SH    R5,=Y(ICMPDATA-ICMPHDR)
                                   17506              **       HEXDUMP ICMPDATA,(R5)
                                   17507              **       END
                                   17508
                                   17509                         Look for TCP connection matching this packet
                                   17510
 0025C6 4160 4008            00008 17511                       LA    R6,ICMPDATA+4       Point to IP header inside packet
                                   17512                       WITH  (IPHDR,R6)
 0025CA 9506 6009/4770_00009       17516                       IF    (IPTYPE,NE,IPTCP#),EXIT   Return if not TCP packet
1AMELIA   RCVICMP - Process Received ICMP Packet                                                                            Page   73
0Current Usings:  (ICMPHDR,R4) (IPHDR,R6) (*,R11) (NIT,R12)
0Loc    Object Code    Addr1 Addr2  Stmt Lv Lineno    Source Statement           (Hibal 5, Asmedit 3.3)  HLASM R4.0  2004/03/15 13.11
+___    ______ ____    _____ _____  ____ __ ______    ______ _________
00025D2 4330 6000            00000 17537                       IC    R3,IPIHL            IP header length
 0025D6 5430 B534            02A30 17538                       N     R3,=A(15)           Isolate length
 0025DA 8930 0002            00002 17539                       SLL   R3,2                Get length in bytes
 0025DE 4133 6000            00000 17540                       LA    R3,IPHDR(R3)        Point to TCP header
 USING  TCPHDR,R3                  17541                       WITH  (TCPHDR,R3)
 0025E2 4105 4004            00004 17554                       LA    R0,ICMPDATA(R5)     End of packet
 0025E6 4110 3004            00004 17555                       LA    R1,TCPDST+2         Point into TCP header
 0025EA 1910/47D0 B10A             17556                       IF    (R1,GT,R0),BEGIN    If don't have start of TCP hdr,
 0025F0 4110 B615/4100_      02B11 17571  1                      SEGWR 'ICMP packet error',,NITPRSG
 002602 47F0 B1B8            026B4 17589  1                      EXIT  RCVICMP
 002606                            17592                       END
 002606 5880 C0D0            000D0 17596                       L     TCBR,NITTCBQ        TCB queue head
 USING  TCB,R8                     17597                       WITH  (TCB,TCBR)
 00260A 1288/4780 B13A             17610                       WHILE (TCBR,NZ),BEGIN
                                   17626  1         C            IF    ((TCBIPADD,EQ,IPDST),AND,
                                          1         C                  (TCPSRC,EQ,TCBLPORT+2),AND,
 002610 D503 8028 6010_00028 00010        1                            (TCPDST,EQ,TCBRPORT+2)),EXIT
 00262E 5880 8004            00004 17679  1                      L     TCBR,TCBNEXT
 002632 47F0 B10E            0260A 17680                       END
                                   17685
 002636 1288/4780 B1B8             17686                       IF    (TCBR,Z),EXIT       Return if TCB not found
                                   17703
                                   17704                         If unreachable message for connection that is just
                                   17705                         opening, abort it.
                                   17706                         If source quench, set flag for TCP routines.
                                   17707
                                   17708            C          IF    ((ICMPTYPE,EQ,3),AND,
                                                    C                ((TCBSTATE,EQ,SYNSENT),OR,
 00263C 9503 4000/4770_00000                                         (TCBSTATE,EQ,SYNRECVD))),BEGIN
 002654 4110 B626/4100_      02B22 17760  1                      SETMSG 'Network error'
 00265C 9500 4001/4770_00001       17764  1                      IF    (ICMPCODE,EQ,0),'SETMSG "Net unreachable"'
 00266C 9501 4001/4770_00001       17791  1                      IF    (ICMPCODE,EQ,1),'SETMSG "Host unreachable"'
 00267C 9502 4001/4770_00001       17818  1                      IF    (ICMPCODE,EQ,2),'SETMSG "Protocol unreachable"'
 00268C 9503 4001/4770_00001       17845  1                      IF    (ICMPCODE,EQ,3),'SETMSG "Port unreachable"'
 00269C 58E0 B580/0DEE       02A7C 17872  1                      ACALL ABORTTCB
 0026A2                            17876                       END
 0026A2 B1AA/B1AA/47F0_026A2 02642 17880                       ELSE  BEGIN
 0026A6 9504 4000/4770_00000       17893  1                      IF    (ICMPTYPE,EQ,4),BEGIN  If source quench,
 0026AE D203 8074 8070 00074 00070 17911  2                        MVC   TCBCWIND,TCBSMSS       Reset congestion window to MSS
 0026B4                            17912  1                      END
                                   17916  1           *
                                   17917  1           **       SEGWR 'TCB matches ICMP message:',,NITPRSG
                                   17918  1           **       CLEAR R0                  Standard format requested
                                   17919  1           **       LR    R1,TCBR             TCB address
                                   17920  1           **       LA    R15,NITPRSG         SEGCB
                                   17921  1           **       ACALL FMTTCB              Log TCB info
 0026B4                            17922                       END
 0026B4 18D9/980C D004_            17926                       PEND
 DROP   TCB,R8
 DROP   TCPHDR,R3
 DROP   ICMPHDR,R4
 DROP   IPHDR,R6
 DROP   *,R11
1AMELIA   RCVUDP - Process received UDP packet                                                                              Page   74
0Current Usings:  (NIT,R12)
0Loc    Object Code    Addr1 Addr2  Stmt Lv Lineno    Source Statement           (Hibal 5, Asmedit 3.3)  HLASM R4.0  2004/03/15 13.11
+___    ______ ____    _____ _____  ____ __ ______    ______ _________
0                                  17967
                                   17968
                                   17969                 RCVUDP -- Process received UDP packet
                                   17970
                                   17971                      Validity check packet fields and call packet
                                   17972                      processing routine.
                                   17973
                                   17974                 On entry:
                                   17975                      R0  - IP Packet length
                                   17976                      R1  - IP packet address
                                   17977

00026C2 90EF C020/4DE0_      00020 17978              RCVUDP   PROC
 USING  *,R11
 0026E6 1861                       18020                       LR    R6,R1               IP header address
 USING  IPHDR,R6                   18021                       WITH  (IPHDR,R6)
 0026E8 1850                       18034                       LR    R5,R0               Save IP packet length
 0026EA 4320 6000            00000 18035                       IC    R2,IPIHL            IP header length
 0026EE 5420 B34A            02A30 18036                       N     R2,=A(15)           Isolate length
 0026F2 8920 0002            00002 18037                       SLL   R2,2                Get length in bytes
 0026F6 1B52                       18038                       SR    R5,R2               Get UDP packet length
 0026F8 4142 6000            00000 18039                       LA    R4,IPHDR(R2)        Get UDP packet start addr
 USING  UDPHDR,R4                  18040                       WITH  (UDPHDR,R4)
 0026FC 4950 4004/4740_      00004 18053                       IF    (R5,LT,UDPLEN),EXIT  Check length
 002704 4850 4004            00004 18073                       LH    R5,UDPLEN            Get UDP length
 002708 5950 B39A/47C0_      02A80 18074                       IF    (R5,LE,8),EXIT       Validity check
                                   18094
                                   18095                         Ignore packet if not name server message
                                   18096
 002710 D501 B3C0 4002_02AA6 00002 18097                       IF    (UDPDST,NE,UDPNS#),EXIT
                                   18118
                                   18119                         Checksum processing
                                   18120
 00271A D601 4006 4006_00006 00006 18121                       IF    (UDPCHK,NZ),BEGIN   If have checksum,
 002724 182D/41D0 D00C             18137  1                      XPUSH ,,12,PTR=R2         Space for pseudo-header
 00272A D203 2000 600C 00000 0000C 18140  1                      MVC   @R2(4),IPSRC        IP src address
 002730 D203 2004 6010 00004 00010 18141  1                      MVC   @R2+4(4),IPDST      IP dest address
 002736 D201 2008 B3BA 00008 02AA0 18142  1                      MVC   @R2+8(2),=Y(IPUDP#)  Protocol type
 00273C 4050 200A            0000A 18143  1                      STH   R5,@R2+10           Packet length
 002740 1812/4100 000C_            18144  1                      CHECKSUM (R2),12,FINAL=NO Checksum pseudo-header
 002750 1814/1805/58E0_            18167  1                      CHECKSUM (R4),(R5),(R15)  Checksum packet data
 00275A 18D2                       18187  1                      XPOP  PTR=R2
                                   18189  1
 00275C 59F0 B356/4780_      02A3C 18190  1                      IF    (R15,NE,=A(X'FFFF')),BEGIN  If checksum error,
 002764 182F                       18206  2                        LR    R2,R15
 002766 4110 B3C2/4100_      02AA8 18207  2                        SEG   'UDP checksum error  IPSRC=',,NITPRSG  Log message
 002778 5810 600C/41F0_      0000C 18224  2                        SEGIP IPSRC
 002786 4110 B3BE/4100_      02AA4 18241  2                        SEG   '  '
 002798 1812/4100 0004_            18258  2                        SEGHX (R2),4
 0027A8 1B00/41F0 C4B0_            18282  2                        SEGWR ,
 0027B4 4100 0001/5E00_      00001 18306  2                        INCR  R0,NITUDPCH         Incr counter
 0027C0 47F0 B0F6            027DC 18312  2                        EXIT  RCVUDP              Drop packet
 0027C4                            18315  1                      END
1AMELIA   RCVUDP - Process received UDP packet                                                                              Page   75
0Current Usings:  (UDPHDR,R4) (IPHDR,R6) (*,R11) (NIT,R12)
0Loc    Object Code    Addr1 Addr2  Stmt Lv Lineno    Source Statement           (Hibal 5, Asmedit 3.3)  HLASM R4.0  2004/03/15 13.11
+___    ______ ____    _____ _____  ____ __ ______    ______ _________
00027C4                            18319                       END
                                   18323
                                   18324                         Call packet processing routine
                                   18325
 0027C4 D501 B3C0 4002_02AA6 00002 18326                       IF    (UDPDST,EQ,UDPNS#),BEGIN  If name server mesage,
 0027CE 41F0 6000            00000 18344  1                      LA    R15,IPHDR                 IP header address
 0027D2 4110 4000            00000 18345  1                      LA    R1,UDPHDR                 UDP header start
 0027D6 58E0 B39E/0DEE       02A84 18346  1                      ACALL RCVNSM                    Call NS routine
 0027DC                            18350                       END
 0027DC 18D9/980C D004_            18354                       PEND
 DROP   UDPHDR,R4
 DROP   IPHDR,R6
 DROP   *,R11
1AMELIA   RCVFRAG - Process received IP packet fragment                                                                     Page   76
0Current Usings:  (NIT,R12)
0Loc    Object Code    Addr1 Addr2  Stmt Lv Lineno    Source Statement           (Hibal 5, Asmedit 3.3)  HLASM R4.0  2004/03/15 13.11
+___    ______ ____    _____ _____  ____ __ ______    ______ _________
0                                  18385
                                   18386
                                   18387                 RCVFRAG -- Process received IP packet fragment.
                                   18388
                                   18389                      If the fragment completes a packet, the packet is
                                   18390                      assembled and returned to the caller.  Otherwise
                                   18391                      the fragment is added to the fragment queue.
                                   18392
                                   18393                   On entry:
                                   18394                     R1  - IP packet address
                                   18395
                                   18396                   On exit
                                   18397                     R15=0   R0,R1 contain complete packet length and address
                                   18398                     R15=4   Complete packet not received yet
                                   18399

0                                  18401
                                   18402                         Format of IP fragment queue entries.  Entries are
                                   18403                          sorted by IP address, then by ID number, and then
                                   18404                          by fragment  offset.
                                   18405
0000000                00000 00010 18407              FRAG     RECORD BEGIN
 000000                            18415  1           FRAGNEXT   DS    A                   Next entry
 000004                            18416  1           FRAGHLEN   DS    F                   Fragment IP header length
 000008                            18417  1           FRAGOFF    DS    F                   Fragment offset
 00000C                            18418  1           FRAGLEN    DS    F                   Fragment data length
 000010                            18419  1           FRAGHDR    DS    0X                  Start of fragment IP header
                                   18420  1           FRAGSRC    EQU   FRAGHDR+(IPSRC-IPHDR),4,C'F'  IP source address
                                   18421  1           FRAGID     EQU   FRAGHDR+(IPID-IPHDR),2,C'H'   IP id
                                   18422  1           FRAGTTL    EQU   FRAGHDR+(IPTTL-IPHDR),1,C'C'  Time to live field
                                   18423  1           FRAGMORE   EQU   FRAGHDR+(IPFRAG-IPHDR),X'20',1  More fragments flag
 000010                00010 00010 18424                       END
-0027EA 90EF C020/4DE0_      00020 18434              RCVFRAG  PROC
 USING  *,R11
 00280E 1871                       18476                       LR    R7,R1               Save IP packet address
 USING  IPHDR,R7                   18477                       WITH  (IPHDR,R7)          ## IPHDR
 002810 1F66/BF63 7002             18490                       L2    R6,IPLEN            Get packet length
                                   18498
                                   18499                         Find point to insert new fragment in sorted fragment queue.
                                   18500
 002816 4820 7006            00006 18501                       LH    R2,IPFRAG           IP fragment field
 00281A 5420 B27A            02A88 18502                       N     R2,=A(X'1FFF')      Isolate fragment offset
 00281E 8920 0003            00003 18503                       SLL   R2,3                Mult by 8 to get byte offset
 002822 4140 C0CC            000CC 18504                       LA    R4,NITFRAGQ-(FRAGNEXT-FRAG)  Init frag queue ptr
 USING  FRAG,R4                    18505                       WITH  (FRAG,R4)           Frag queue entry base
 002826                            18518                       LOOP  BEGIN
 002826 1854                       18524  1                      LR    R5,R4               Save prev queue ptr
 002828 BF4F 4000            00000 18525  1                      L4    R4,FRAGNEXT         Get next queue entry
 00282C 4780 B04A            02858 18527  1                      IF    Z,EXIT              Exit if end of queue
 002830 D503 401C 700C 0001C 0000C 18541  1                      CLC   FRAGSRC,IPSRC       Find first fragment queue
1AMELIA   RCVFRAG - Process received IP packet fragment                                                                     Page   77
0Current Usings:  (FRAG,R4) (IPHDR,R7) (*,R11) (NIT,R12)
0Loc    Object Code    Addr1 Addr2  Stmt Lv Lineno    Source Statement           (Hibal 5, Asmedit 3.3)  HLASM R4.0  2004/03/15 13.11
+___    ______ ____    _____ _____  ____ __ ______    ______ _________
0002836 4720 B018            02826 18542  1                      IF    H,NEXT               entry which is past where
 00283A 4740 B04A            02858 18556  1                      IF    L,EXIT                the new fragment will be
 00283E D501 4014 7004 00014 00004 18570  1                      CLC   FRAGID,IPID            inserted
 002844 4720 B018            02826 18571  1                      IF    H,NEXT
 002848 4740 B04A            02858 18585  1                      IF    L,EXIT
 00284C 5920 4008            00008 18599  1                      C     R2,FRAGOFF
 002850 4740 B04A            02858 18600  1                      IF    L,EXIT
 002854 47F0 B018            02826 18614                       END
                                   18619
                                   18620                         Build new fragment queue entry.
                                   18621
 002858 4106 0010            00010 18622                       LA    R0,L'FRAG(R6)       Get length of new queue entry
 00285C 58E0 B27E/0DEE       02A8C 18623                       ACALL GETCORE             Get storage
 002862 5015 0000            00000 18627                       ST    R1,FRAGNEXT-FRAG(R5)  Chain new to previous entry
 002866 5041 0000            00000 18628                       ST    R4,FRAGNEXT-FRAG(R1)  Chain next entry to new
 00286A 1841                       18629                       LR    R4,R1               New entry base
 00286C 5020 4008            00008 18630                       ST    R2,FRAGOFF          Fragment offset
 002870 4300 7000            00000 18631                       IC    R0,IPIHL            Get IP header length
 002874 5400 B222            02A30 18632                       N     R0,=A(15)           Isolate length
 002878 8900 0002            00002 18633                       SLL   R0,2                *2 for index
 00287C 5000 4004            00004 18634                       ST    R0,FRAGHLEN         Save length
 002880 1816                       18635                       LR    R1,R6               Copy IP length
 002882 1B10                       18636                       SR    R1,R0               Get IP data length
 002884 5010 400C            0000C 18637                       ST    R1,FRAGLEN          Save data length
 002888 41E0 4010/18F6_      00010 18638                       MOVEL FRAGHDR,IPHDR,(R6)  Copy packet to frag entry
                                   18660
                                   18661                         Find first fragment for this packet.
                                   18662
 002894 4140 C0CC            000CC 18663                       LA    R4,NITFRAGQ-(FRAGNEXT-FRAG)  Init queue pointer
 002898                            18664                       LOOP  BEGIN
 002898 1854                       18670  1                      LR    R5,R4               Save previous entry address
 00289A 5840 4000            00000 18671  1                      L     R4,FRAGNEXT         Get next entry address
                                   18672  1         C            IF    ((FRAGSRC,EQ,IPSRC),AND,  If IP address match
 00289E D503 401C 700C_0001C 0000C        1                            (FRAGID,EQ,IPID)),EXIT     and IP id match, exit loop
 0028B2 47F0 B08A            02898 18710                       END
                                   18715
                                   18716                         Check if we now have the complete packet.
                                   18717
 0028B6 1B66                       18718                       CLEAR R6                  Init offset/length
 0028B8                            18722                       LOOP  BEGIN               Step through queue
                                   18728  1         C            IF    ((FRAGSRC,NE,IPSRC),OR,   If past current packet
                                          1         C                  (FRAGID,NE,IPID),OR,      or don't have final
                                          1         C                  (R6,NE,FRAGOFF),OR,        fragment yet,
 0028B8 D503 401C 700C_0001C 0000C        1                            (FRAGMORE,AND,(FRAGNEXT,Z))),BEGIN
 0028E6 41F0 0004            00004 18804  2                        LA    R15,4               Set RC=4
 0028EA 47F0 B162            02970 18805  2                        EXIT  RCVFRAG             Return
 0028EE                            18808  1                      END
 0028EE 5A60 400C            0000C 18812  1                      A     R6,FRAGLEN          Get offset of next packet
 0028F2 9120 4016/47E0_00016       18813  1                      IF    ~FRAGMORE,EXIT      Exit if last fragment
 0028FA 5840 4000            00000 18831  1                      L     R4,FRAGNEXT         Chain to next fragment
 0028FE 47F0 B0AA            028B8 18832                       END
1AMELIA   RCVFRAG - Process received IP packet fragment                                                                     Page   78
0Current Usings:  (FRAG,R4) (IPHDR,R7) (*,R11) (NIT,R12)
0Loc    Object Code    Addr1 Addr2  Stmt Lv Lineno    Source Statement           (Hibal 5, Asmedit 3.3)  HLASM R4.0  2004/03/15 13.11
+___    ______ ____    _____ _____  ____ __ ______    ______ _________
0                                  18837
                                   18838                         We have a complete packet.  Allocate buffer and move in
                                   18839                           the IP header from the first fragment queue entry.
                                   18840
 002902 5845 0000            00000 18841                       L     R4,FRAGNEXT-FRAG(R5)   Get first fragment entry addr
 002906 5A60 4004            00004 18842                       A     R6,FRAGHLEN         Add header length to data length
 00290A 1806                       18843                       LR    R0,R6               New buffer length
 00290C 58E0 B27E/0DEE       02A8C 18844                       ACALL GETCORE             Get storage for packet buffer
 002912 1871                       18848                       LR    R7,R1               Save buffer address
 002914 1821                       18849                       LR    R2,R1               Init buffer pointer for moves
 002916 5830 4004            00004 18850                       L     R3,FRAGHLEN         IP header length from 1st frag
 00291A 41E0 4010            00010 18851                       LA    R14,FRAGHDR         IP header address
 00291E 18F3                       18852                       LR    R15,R3              Copy length
 002920 0E2E                       18853                       MVCL  R2,R14              Move IP header to new buffer
 002922 4060 7002            00002 18854                       STH   R6,IPLEN            Put full packet length in IP hdr
 002926 D701 7006 7006 00006 00006 18855                       CLEAR IPFRAG              Clean up fragment field
                                   18862
                                   18863                         Step through fragment queue entries, moving the data to
                                   18864                           the new packet buffer and freeing the entries.
                                   18865
 00292C 1244/4780 B158             18866                       WHILE (R4,NZ),BEGIN
 002932 5830 400C            0000C 18882  1                      L     R3,FRAGLEN          Get data length
 002936 41E0 4010            00010 18883  1                      LA    R14,FRAGHDR         IP header address of fragment
 00293A 5AE0 4004            00004 18884  1                      A     R14,FRAGHLEN        Step past IP header
 00293E 18F3                       18885  1                      LR    R15,R3              Copy length
 002940 0E2E                       18886  1                      MVCL  R2,R14              Move data to new buffer
 002942 D203 5000 4000 00000 00000 18887  1                      MVC   FRAGNEXT-FRAG(,R5),FRAGNEXT  Dequeue frag entry
 002948 1814                       18888  1                      LR    R1,R4                        Copy frag entry addr
 00294A 9120 4016/47E0_00016       18889  1                      IF    FRAGMORE,'L R4,FRAGNEXT'  Next entry if more frags,
 002956 B14C/47F0 B14E_02956 02950 18910  1                      ELSE  'CLEAR R4'                 else stop loop
 00295C 58E0 B24E/0DEE       02A5C 18930  1                      ACALL FREECORE            Now free entry
 002962 47F0 B11E            0292C 18934                       END
                                   18939
                                   18940                         Return complete packet to caller.
                                   18941
 002966 1806                       18942                       LR    R0,R6               Packet length
 002968 1817                       18943                       LR    R1,R7               Packet address
 00296A 9001 9004            00004 18944                       PRETURN (R0,R1)           Return parms
 00296E 1BFF                       18946                       CLEAR R15                 Return code
 002970 18D9/980C D004_            18950                       PEND
 DROP   FRAG,R4
 DROP   IPHDR,R7
 DROP   *,R11
1AMELIA   IPFTIMER - IP packet fragment timer routine                                                                       Page   79
0Current Usings:  (NIT,R12)
0Loc    Object Code    Addr1 Addr2  Stmt Lv Lineno    Source Statement           (Hibal 5, Asmedit 3.3)  HLASM R4.0  2004/03/15 13.11
+___    ______ ____    _____ _____  ____ __ ______    ______ _________
0                                  18981
                                   18982
                                   18983                 IPFTIMER -- IP packet fragment timer routine.  Entered by
                                   18984                             timer routine to age fragment queue entries
                                   18985                             Delete queue entries if their time-to-live has
                                   18986                             now expired.
                                   18987

000297E 90EF C020/4DE0_      00020 18988              IPFTIMER PROC
 USING  *,R11
 0029A2 4120 C0CC            000CC 19030                       LA    R2,NITFRAGQ-(FRAGNEXT-FRAG)  Init queue pointer
 USING  FRAG,R2                    19031                       WITH  (FRAG,R2)
 0029A6                            19044                       LOOP  BEGIN               Loop through frag queue
 0029A6 1832                       19050  1                      LR    R3,R2               Save prev entry address
 0029A8 BF2F 2000            00000 19051  1                      L4    R2,FRAGNEXT         Chain to next entry
 0029AC 4780 B034            029D6 19053  1                      IF    Z,EXIT              Exit if no more
 0029B0 1F00/4300 2018             19067  1                      LC    R0,FRAGTTL          Get time-to-live
 0029B6 5B00 B0EE            02A90 19072  1                      S     R0,=A(TIMESEC)      Reduce by timer interval
 0029BA 4200 2018            00018 19073  1                      STC   R0,FRAGTTL          Set new value
 0029BE 4720 B004            029A6 19074  1                      IF    P,NEXT              Next entry if not expired
 0029C2 D203 3000 2000 00000 00000 19088  1                      MVC   FRAGNEXT-FRAG(,R3),FRAGNEXT  Dequeue entry
 0029C8 1812                       19089  1                      LR    R1,R2                        Copy address
 0029CA 58E0 B0BA/0DEE       02A5C 19090  1                      ACALL FREECORE                     Free memory
 0029D0 1823                       19094  1                      LR    R2,R3               Back up to previous entry
 0029D2 47F0 B004            029A6 19095                       END
 0029D6 18D9/980C D004_            19100                       PEND
 DROP   FRAG,R2
 DROP   *,R11
                                   19125                       QLTORG
1AMELIA   TCPPATH - process TCP path requests                                                                               Page   80
0Current Usings:  (NIT,R12)
0Loc    Object Code    Addr1 Addr2  Stmt Lv Lineno    Source Statement           (Hibal 5, Asmedit 3.3)  HLASM R4.0  2004/03/15 13.11
+___    ______ ____    _____ _____  ____ __ ______    ______ _________
0                                  19188
                                   19189
                                   19190                 TCPPATH -- process TCP path requests
                                   19191
                                   19192                   On entry:
                                   19193                     R0,R1  - path message length and address
                                   19194

0USING  TCB,R8                     19195                       USING TCB,TCBR            Global TCB base register (R7)
                                   19204
 002B3E 90EF C020/4DE0_      00020 19205              TCPPATH  PROC
 USING  *,R11
 002B62 1B88                       19247                       CLEAR TCBR                Show no current TCB
 002B64 1821                       19251                       LR    R2,R1               Copy message addr
 002B66 1830                       19252                       LR    R3,R0               Copy message length
 002B68 4140 B1BA            02D1C 19253                       LA    R4,TCPMSTAB         Message table start
 002B6C 4150 B2EE            02E50 19254                       LA    R5,TCPMSEND         Message table end
 002B70 1945/4730 B0C4             19255                       WHILE (R4,LE,R5),BEGIN
 002B76 D50F 4000 2000 00000 00000 19272  1                      CLC   @R4(16),@R2         Compare message type
 002B7C 4770 B0BC            02C1E 19273  1                      IF    EQ,BEGIN            If match,
                                   19284  2         C              IF    (('C R3,@R4+20',L),OR,  Check parm list length
 002B80 5930 4014/4740_      00014        2                              ('C R3,@R4+24',H)),BEGIN
 002B90 41F0 BBB6            03718 19309  3                          LA    R15,=CL16'BAD PARM LIST'
 002B94 47F0 B0C8            02C2A 19310  3                          B     TCPMDONE
 002B98                            19311  2                        END
 002B98 5940 BC66/4750_      037C8 19315  2                        IF    (R4,GE,=A(TCPMSTID)),BEGIN  If TCB id in message,
 002BA0 58F0 2010            00010 19331  3                          L     R15,@R2+16                  Get TCB id
 002BA4 58E0 BC6A/0DEE       037CC 19332  3                          ACALL GETTCB
 002BAA 128F                       19336  3                          LTR   TCBR,R15                    Copy address
 002BAC 4780 B058/D503_      02BBA 19337  3                          IF    (Z,OR,(TCBPATH,NE,NITPCUR)),BEGIN   Validity check
 002BBA 41F0 BBC6            03728 19365  4                            LA    R15,=CL16'UNKNOWN ID'         Send error reply
 002BBE 47F0 B0C8            02C2A 19366  4                            B     TCPMDONE
 002BC2                            19367  3                          END
                                   19371  3
 002BC2 9801 9004            00004 19372  3                          PRESTORE (R0,R1)          Get original msg length and addr
 002BC6 41F0 0FFD            00FFD 19374  3                          LA    R15,TCBTRRPM        Code for received msg
 002BCA 58E0 BC6E/0DEE       037D0 19375  3                          ACALL TCPTRACE            Call trace routine
                                   19379  3
                                   19380  3         C                IF    (TCBFRCLO,OR,        If CLOSE received from path,
                                          3         C                      (~TCBFUID,AND,        or message out of sequence
                                          3         C                      (@R2+4,NE,'ACCEPT'),AND,
 002BD0 9120 8232/4710_00232              3                                (@R2+4,NE,'REJECT'))),BEGIN
 002BF4 41F0 BBD6            03738 19437  4                            LA    R15,=CL16'SEQUENCE ERROR'   Error message
 002BF8 47F0 B0C8            02C2A 19438  4                            B     TCPMDONE
 002BFC                            19439  3                          END
 002BFC                            19443  2                        END
                                   19447  2
 002BFC 1803                       19448  2                        LR    R0,R3               Path message length
 002BFE 4B00 BD82            038E4 19449  2                        SH    R0,=Y(16)           Reduce by msg type length
 002C02 4112 0010            00010 19450  2                        LA    R1,16(R2)           Get parm list addr
 002C06 1288/4780 B0B2             19451  2                        IF    (TCBR,NZ),BEGIN     If TCP id in message,
 002C0C 4111 0004            00004 19465  3                          LA    R1,4(R1)            Point past id
 002C10 4B00 BD84            038E6 19466  3                          SH    R0,=Y(4)            Get remaining parm length
1AMELIA   TCPPATH - process TCP path requests                                                                               Page   81
0Current Usings:  (TCB,R8) (*,R11) (NIT,R12)
0Loc    Object Code    Addr1 Addr2  Stmt Lv Lineno    Source Statement           (Hibal 5, Asmedit 3.3)  HLASM R4.0  2004/03/15 13.11
+___    ______ ____    _____ _____  ____ __ ______    ______ _________
0002C14                            19467  2                        END
 002C14 58E0 4010            00010 19471  2                        L     R14,@R4+16          Get routine address
 002C18 05EE                       19472  2                        BALR  R14,R14             Enter routine
 002C1A 47F0 B0C8            02C2A 19473  2                        B     TCPMDONE            Exit
 002C1E                            19474  1                      END
 002C1E 4144 001C            0001C 19478  1                      LA    R4,TCPMSLEN(R4)     Step to next table entry
 002C22 47F0 B00E            02B70 19479                       END
 002C26 41F0 BBE6            03748 19484                       LA    R15,=CL16'UNKNOWN MESSAGE'
-                                  19486
                                   19487                         If invalid path call, return error message.
                                   19488
 002C2A 12FF/4780 B1AA             19489              TCPMDONE IF    (R15,NZ),BEGIN      If error message,
 002C30 184F                       19504  1                      LR    R4,R15              Save error msg pointer
 002C32 4110 BBF6/4100_      03758 19505  1                      SEG   'ERROR_PREV_REQ: ',,NITPSG   Start error message
 002C44 1814/4100 0010_            19522  1                      SEG   (R4),16                      Add error text
 002C54 9801 9004            00004 19549  1                      PRESTORE (R0,R1)          Get original msg len and addr
 002C58 5900 BC76/47D0_      037D8 19551  1                      CEIL  R0,80               Truncate length
 002C64 41F0 C1EC/58E0_      001EC 19570  1                      SEGWR (R1),(R0)           Write path message
 002C6E 5850 C124            00124 19594  1                      L     R5,NITPCUR          Get path block address
 USING  UPATH,R5                   19595  1                      WITH  (UPATH,R5)
 002C72 4110 BDA2/4100_      03904 19608  1                      SEGB  'Invalid path message from',,NITPRSG
 002C84 4110 502E/4100_      0002E 19626  1                      SEGTB UPATPJOB
 002C96 D607 5036 5036_00036 00036 19654  1                      IF    (UPATPACT,NZ),'SEGTB UPATPACT'
 002CB2 4110 BDBB/4100_      0391D 19703  1                      SEGB  ' Error:'
 002CC4 1814/4100 0010_            19721  1                      SEGWR (R4),16
 002CD4 9801 9004            00004 19749  1                      PRESTORE (R0,R1)          Get original msg len and addr
 002CD8 5900 BC86/47D0_      037E8 19751  1                      CEIL  R0,64
 002CE4 9680 C104/41F0_00104       19770  1                      HEXDUMP (R1),(R0),CHARS=EBCDIC
 002CF2 D50B BC8E 4000_037F0 00000 19794  1                      IF    (@R4,EQ,'SEQUENCE ERR'),BEGIN   If msg sequence err,
 002CFC 4100 0008            00008 19810  2                        LA    R0,8                Extended format option
 002D00 1818                       19811  2                        LR    R1,TCBR             TCB address
 002D02 41F0 C4B0            004B0 19812  2                        LA    R15,NITPRSG         SEGCB
 002D06 58E0 BC9A/0DEE       037FC 19813  2                        ACALL FMTTCB              Format TCB in log
 002D0C                            19817  1                      END
 DROP   UPATH,R5                   19821                       END
 002D0C 18D9/980C D004_            19830                       PEND
 DROP   *,R11
-                                  19851
                                   19852                    TCP message table
                                   19853
0002D1C                            19855              TCPMSTAB DS    0F
 002D1C E3C3D76DD3C9E2E3           19856                       DC    C'TCP_LISTEN:     ',A(TCPLISTN),A(21,132)
 002D38 E3C3D76DC5D5C46D           19857                       DC    C'TCP_END_LISTEN: ',A(TCPENDLS),A(20,20)
 002D54 E3C3D76DD6D7C5D5           19858                       DC    C'TCP_OPEN:       ',A(TCPOPEN),A(21,132)
 002D70 E3C3D76DC1C3C3C5           19859              TCPMSTID DC    C'TCP_ACCEPT:     ',A(TCPACCPT),A(24,24)
 002D8C E3C3D76DD9C5D1C5           19860                       DC    C'TCP_REJECT:     ',A(TCPREJCT),A(20,*)
 002DA8 E3C3D76DE6D9C9E3           19861                       DC    C'TCP_WRITE:      ',A(TCPWRITE),A(20,*)
 002DC4 E3C3D76DC1C2D6D9           19862                       DC    C'TCP_ABORT:      ',A(TCPABORT),A(20,120)
 002DE0 E3C3D76DC5D6C67A           19863                       DC    C'TCP_EOF:        ',A(TCPEOF),A(20,20)
1AMELIA   TCPPATH - process TCP path requests                                                                               Page   82
0Current Usings:  (TCB,R8) (NIT,R12)
0Loc    Object Code    Addr1 Addr2  Stmt Lv Lineno    Source Statement           (Hibal 5, Asmedit 3.3)  HLASM R4.0  2004/03/15 13.11
+___    ______ ____    _____ _____  ____ __ ______    ______ _________
0002DFC E3C3D76DC3D3D6E2           19864                       DC    C'TCP_CLOSE:      ',A(TCPCLOSE),A(20,20)
 002E18 E3C3D76DC9D5C6D6           19865                       DC    C'TCP_INFO:       ',A(TCPINFO),A(20,132)
 002E34 E3C3D76DE2E3D6D7           19866                       DC    C'TCP_STOP:       ',A(TCPSTOP),A(20,20)
 002E50 E3C3D76DE2E3C1D9           19867              TCPMSEND DC    C'TCP_START:      ',A(TCPSTART),A(20,20)
                                   19868              TCPMSLEN EQU   *-TCPMSEND
1AMELIA   TCPLISTN - process listen request                                                                                 Page   83
0Current Usings:  (TCB,R8) (NIT,R12)
0Loc    Object Code    Addr1 Addr2  Stmt Lv Lineno    Source Statement           (Hibal 5, Asmedit 3.3)  HLASM R4.0  2004/03/15 13.11
+___    ______ ____    _____ _____  ____ __ ______    ______ _________
0                                  19870
                                   19871
                                   19872                 TCPLISTN -- process server port listen (passive open).
                                   19873
                                   19874                    On entry:
                                   19875                       R0,R1 - parm list length and addr
                                   19876
                                   19877                    On exit:
                                   19878                       R15 - return code (0=OK, NZ=error)
                                   19879

0000000                00000 0008C 19880              TLSTWA   RECORD BEGIN
 000000                            19888  1           TLSTWLPO   DS    F                   Port number
 000004                            19889  1           TLSTWFLL   DS    F                   Flow low value
 000008                            19890  1           TLSTWFLH   DS    F                   Flow high value
 00000C                            19891  1           TLSTWMAX   DS    F                   Max simultaneous connections
 000010                            19892  1           TLSTWIDL   DS    F                   Idle timeout interval
 000014                            19893  1           TLSTWBUF   DS    CL120               Scan text buffer
 00008C                0008C 0008C 19894                       END
 002E6C 90EF C020/4DE0_      00020 19903              TCPLISTN PROC  TLSTWA
 USING  *,R11
 USING  TLSTWA-(4+52),R9
                                   19956
                                   19957                         Scan parm list
                                   19958
 002E90 D78B 9038 9038 00000 00000 19959                       CLEAR TLSTWA
 002E96 18F0                       19966                       LR    R15,R0              Copy parm before scan
 002E98 06F0/44F0 BAF4_            19967                       DEX   R15,'MVC TLSTWBUF(0),@R1'
 002E9E 4110 904C/41F0_      00014 19986                       SCINIT TLSTWBUF,(R0),NITSCNCB    Init scanner
 002EAC 4110 B0DE/41F0_      02F6E 20009                       SCAN  TLSTPRT,NITSCNCB
 002EBA 4770 B15A            02FEA 20028                       IF    NZ,TLSTERR
                                   20042
                                   20043                         Check port number
                                   20044
 002EBE D603 9038 9038_00000 00000 20045                       IF    (TLSTWLPO,Z),BEGIN
 002EC8 41F0 B8D8            03768 20061  1                      LA    R15,=CL16'INVALID PORT'
 002ECC 47F0 B15E            02FEE 20062  1                      EXIT  TCPLISTN
 002ED0                            20065                       END
                                   20069
 002ED0 5880 C0D0            000D0 20070                       L     TCBR,NITTCBQ        Get TCB queue head
 002ED4 1288/4780 B074             20071                       WHILE (TCBR,NZ),BEGIN
                                   20087  1         C            IF    (((TCBSTATE,EQ,LISTEN),OR,
                                          1         C                  (TCBSTATE,EQ,SYNSENT)),AND,
 002EDA 9501 8230/4780_00230              1                            (TCBLPORT,EQ,TLSTWLPO)),BEGIN  If duplicate,
 002EF4 41F0 B8E8            03778 20139  2                        LA    R15,=CL16'DUPLICATE LISTEN'      Error message
 002EF8 47F0 B15E            02FEE 20140  2                        EXIT  TCPLISTN                         Return
 002EFC                            20143  1                      END
 002EFC 5880 8004            00004 20147  1                      L     TCBR,TCBNEXT        Get next TCB
 002F00 47F0 B044            02ED4 20148                       END
1AMELIA   TCPLISTN - process listen request                                                                                 Page   84
0Current Usings:  (TCB,R8) (TLSTWA-(4+52),R9) (*,R11) (NIT,R12)
0Loc    Object Code    Addr1 Addr2  Stmt Lv Lineno    Source Statement           (Hibal 5, Asmedit 3.3)  HLASM R4.0  2004/03/15 13.11
+___    ______ ____    _____ _____  ____ __ ______    ______ _________
0                                  20153
                                   20154                         Build new TCB to represent request.
                                   20155
 002F04 58E0 B978/0DEE       03808 20156                       ACALL NEWTCB              Build TCB
 002F0A 1881                       20160                       LR    TCBR,R1             Set up base reg
 002F0C D203 8020 9038 00020 00000 20161                       MVC   TCBLPORT,TLSTWLPO   Set local port number
 002F12 D203 8078 9044 00078 0000C 20162                       MVC   TCBLMAX,TLSTWMAX    Max connection count
 002F18 D203 8088 9048 00088 00010 20163                       MVC   TCBIDLTM,TLSTWIDL   Idle timeout value
 002F1E D607 807C 903C 0007C 00004 20164                       OC    TCBFLOWL(8),TLSTWFLL Set flow values
 002F24 4770 B09E/D207_      02F2E 20165                       IF    Z,'MVC TCBFLOWL(8),=A(DEFFLOWL,DEFFLOWH)'
 002F2E D203 8010 C124 00010 00124 20182                       MVC   TCBPATH,NITPCUR     Set path block address
 002F34 9201 8230      00230       20183                       MVI   TCBSTATE,LISTEN     Set connection state
                                   20184
                                   20185                         SET IDLE TIMEOUT VALUE FOR PORT 25 (SMTP).  THIS
                                   20186                         SHOULD BE AN OPTION ON WYLBUR NET_OPEN
                                   20187
 002F38 D503 B97C 8020_0380C 00020 20188                       IF    ((TCBLPORT,EQ,25),AND,(TCBIDLTM,Z)),BEGIN
 002F4C D203 8088 B980 00088 03810 20221  1                      MVC   TCBIDLTM,=A(600)
 002F52                            20222                       END
                                   20226
                                   20227                         Trace path message
                                   20228
 002F52 9801 9004            00004 20229                       PRESTORE (R0,R1)          Restore msg len and addr
 002F56 4A00 BA54            038E4 20231                       AH    R0,=Y(16)           Add msg type length
 002F5A 4B10 BA54            038E4 20232                       SH    R1,=Y(16)           Point to msg type
 002F5E 41F0 0FFD            00FFD 20233                       LA    R15,TCBTRRPM        Show received msg
 002F62 58E0 B940/0DEE       037D0 20234                       ACALL TCPTRACE            Call trace routine
                                   20238
 002F68 1BFF                       20239                       CLEAR R15                 Set return code
 002F6A 47F0 B15E            02FEE 20243                       EXIT  TCPLISTN            Return
0                                  20247
                                   20248                         Scan table
                                   20249
 002F6E D4002FA4D3D7D6D9_          20250              TLSTPRT  SCKW  LPORT,TLSTLPO,(P,I),65535
 002F7B C4002FB2C6D3D6E6           20253                       SCKW  FLOWL,TLSTFLL,(P,I)
 002F84 C4002FC0C6D3D6E6           20255                       SCKW  FLOWH,TLSTFLH,(P,I)
 002F8D C2002FCED4C1E7             20257                       SCKW  MAX,TLSTMAX,(P,I)
 002F94 C7002FDCC9E3C9D4           20259                       SCKW  ITIMEOUT,TLSTIDLE,(P,I)
 002FA0 FF002FEA                   20261                       SCKW  ,TLSTERR
                                   20263
 002FA4 1200/47D0 B15A             20264              TLSTLPO  IF    (R0,NP),TLSTERR
 002FAA D203 9038 C7F8 00000 007F8 20282                       MVC   TLSTWLPO,SCNVAL
 002FB0 07FE                       20283                       BR    R14
                                   20284
 002FB2 1200/47D0 B15A             20285              TLSTFLL  IF    (R0,NP),TLSTERR
 002FB8 D203 903C C7F8 00004 007F8 20303                       MVC   TLSTWFLL,SCNVAL
 002FBE 07FE                       20304                       BR    R14
                                   20305
 002FC0 1200/47D0 B15A             20306              TLSTFLH  IF    (R0,NP),TLSTERR
 002FC6 D203 9040 C7F8 00008 007F8 20324                       MVC   TLSTWFLH,SCNVAL
 002FCC 07FE                       20325                       BR    R14
                                   20326
 002FCE 1200/47D0 B15A             20327              TLSTMAX  IF    (R0,NP),TLSTERR
1AMELIA   TCPLISTN - process listen request                                                                                 Page   85
0Current Usings:  (TCB,R8) (TLSTWA-(4+52),R9) (*,R11) (NIT,R12)
0Loc    Object Code    Addr1 Addr2  Stmt Lv Lineno    Source Statement           (Hibal 5, Asmedit 3.3)  HLASM R4.0  2004/03/15 13.11
+___    ______ ____    _____ _____  ____ __ ______    ______ _________
0002FD4 D203 9044 C7F8 0000C 007F8 20345                       MVC   TLSTWMAX,SCNVAL
 002FDA 07FE                       20346                       BR    R14
                                   20347
 002FDC 1200/47D0 B15A             20348              TLSTIDLE IF    (R0,NP),TLSTERR
 002FE2 D203 9048 C7F8 00010 007F8 20366                       MVC   TLSTWIDL,SCNVAL
 002FE8 07FE                       20367                       BR    R14
                                   20368
 002FEA 41F0 B900            03790 20369              TLSTERR  LA    R15,=CL16'PARM ERROR'   Set error return
 002FEE 18D9/980C D004_            20370                       PEND
 DROP   TLSTWA-(4+52),R9
 DROP   *,R11
1AMELIA   TCPENDLS - end server port TCP listen                                                                             Page   86
0Current Usings:  (TCB,R8) (NIT,R12)
0Loc    Object Code    Addr1 Addr2  Stmt Lv Lineno    Source Statement           (Hibal 5, Asmedit 3.3)  HLASM R4.0  2004/03/15 13.11
+___    ______ ____    _____ _____  ____ __ ______    ______ _________
0                                  20396
                                   20397
                                   20398                 TCPENDLS -- End server port TCP listen
                                   20399
                                   20400                   On entry:
                                   20401                       R0,R1  - Parm list len and addr
                                   20402
                                   20403                   On exit:
                                   20404                       R15 - return code (0=OK, NZ=error)
                                   20405

0002FFC 90EF C020/4DE0_      00020 20406              TCPENDLS PROC
 USING  *,R11
 003020 5880 C0D0            000D0 20448                       L     TCBR,NITTCBQ        TCB queue head
 003024 1288/4780 B03A             20449                       WHILE (TCBR,NZ),BEGIN     Step through TCB queue
                                   20465  1         C            IF    ((TCBSTATE,EQ,LISTEN),AND,   If LISTEN TCB
                                          1         C                  (TCBLPORT,EQ,@R1),AND,        and port matches
 00302A 9501 8230/4770_00230              1                            (TCBPATH,EQ,NITPCUR)),BEGIN    and path matches
 003046 58E0 B7F4/0DEE       03814 20514  2                        ACALL DELTCB                       Delete TCB
 00304C 1BFF                       20518  2                        CLEAR R15                          Set 0 return code
 00304E 47F0 B03E            0305E 20522  2                        EXIT  TCPENDLS                     Return
 003052                            20525  1                      END
 003052 5880 8004            00004 20529  1                      L     TCBR,TCBNEXT
 003056 47F0 B004            03024 20530                       END
 00305A 41F0 B780            037A0 20535                       LA    R15,=CL16'LISTEN NOT FOUND'  Err msg
 00305E 18D9/980C D004_            20536                       PEND
 DROP   *,R11
1AMELIA   TCPOPEN - open TCP connection                                                                                     Page   87
0Current Usings:  (TCB,R8) (NIT,R12)
0Loc    Object Code    Addr1 Addr2  Stmt Lv Lineno    Source Statement           (Hibal 5, Asmedit 3.3)  HLASM R4.0  2004/03/15 13.11
+___    ______ ____    _____ _____  ____ __ ______    ______ _________
0                                  20557
                                   20558
                                   20559                 TCPOPEN --  Open TCP connection
                                   20560
                                   20561                   On entry:
                                   20562                     R0,R1 = len and addr of parm list
                                   20563
                                   20564                   On exit:
                                   20565                     R15 = return code (0=OK, NZ=error)
                                   20566

0000000                00000 000BC 20567              TOPNWA   RECORD BEGIN
 000000                            20575  1           TOPNWUID   DS    F                   User connection id
 000004                            20576  1           TOPNWLPO   DS    F                   Local port number
 000008                            20577  1           TOPNWRPO   DS    F                   Remote port number
 00000C                            20578  1           TOPNWIP    DS    F                   Remote host IP address
 000010                            20579  1           TOPNWFLL   DS    F                   Flow low value
 000014                            20580  1           TOPNWFLH   DS    F                   Flow high value
 000018                            20581  1           TOPNWTMO   DS    F                   Connect timeout value
 00001C                            20582  1           TOPNWIDL   DS    F                   Idle timeout value
 000020                            20583  1           TOPNWHST   DS    2F                  Host id len and addr
 000028                            20584  1           TOPNWBUF   DS    CL120               Scan text buffer
 0000A0                            20585  1           TOPNWERP   DS    CL7                 ERROR: prefix for message
 0000A7                            20586  1           TOPNWERR   DS    CL20                Open error message
 0000BB 00                         20587  1           TOPNWFLG   FLAG
 TOPNWFLG.TOPNFPAS 80 ONES         20591  1                      FLAG  TOPNFPAS            Passive open
 TOPNWFLG.TOPNFPRV 40 ONES         20596  1                      FLAG  TOPNFPRV            Privileged port request
 0000BC                000BC 000BC 20601                       END
-00306C 90EF C020/4DE0_      00020 20611              TCPOPEN  PROC  TOPNWA
 USING  *,R11
 USING  TOPNWA-(4+52),R9
                                   20664
                                   20665                         Scan parm list
                                   20666
 003090 D7BB 9038 9038 00000 00000 20667                       CLEAR TOPNWA
 003096 D203 9038 1000 00000 00000 20674                       MVC   TOPNWUID,@R1        Save user connection id
 00309C 4B00 B856            038E6 20675                       SH    R0,=Y(4)            Adjust parm length
 0030A0 18F0                       20676                       LR    R15,R0
 0030A2 06F0/44F0 B8FA_            20677                       DEX   R15,'MVC TOPNWBUF(0),@R1+4'  Copy parm string
 0030A8 4110 9060/41F0_      00028 20696                       SCINIT TOPNWBUF,(R0),NITSCNCB    Init scanner
 0030B6 4110 B3B2/41F0_      03442 20719                       SCAN  TOPNPRT,NITSCNCB
 0030C4 4780 B07A            0310A 20738                       IF    NZ,BEGIN            Check for scan error
 0030C8 1000                       20749  1           TOPNERR    LPR   R0,R0
 0030CA 1200/47D0 B06C_            20750  1                      IF    ((R0,P),AND,(R1,P)),BEGIN
 0030D6 D213 90DF C23C 000A7 0023C 20777  2                        MVC   TOPNWERR,NITBLANK
 0030DC 18F0                       20778  2                        LR    R15,R0
 0030DE 59F0 B788/47D0_      03818 20779  2                        CEIL  R15,8
 0030EA 06F0/12FF/4740_            20798  2                        DTEX  R15,'MVC TOPNWERR(0),@R1'
 0030F6 D207 90E7 B720 000AF 037B0 20835  2                        MVC   TOPNWERR+8(8),=C' INVALID'
 0030FC                            20836  1                      END
 0030FC B070/B070/47F0_030FC 030CE 20840  1                      ELSE  BEGIN
1AMELIA   TCPOPEN - open TCP connection                                                                                     Page   88
0Current Usings:  (TCB,R8) (TOPNWA-(4+52),R9) (*,R11) (NIT,R12)
0Loc    Object Code    Addr1 Addr2  Stmt Lv Lineno    Source Statement           (Hibal 5, Asmedit 3.3)  HLASM R4.0  2004/03/15 13.11
+___    ______ ____    _____ _____  ____ __ ______    ______ _________
0003100 D213 90DF B78C 000A7 0381C 20853  2                        MVC   TOPNWERR,=CL20'MISSING OPTION'
 003106                            20854  1                      END
 003106 47F0 B178            03208 20858  1                      B     TOPNTCB
 00310A                            20859                       END
                                   20863
                                   20864                         Validity check parms
                                   20865
 00310A D603 9058 9058_00020 00020 20866                       IF    (TOPNWHST,Z),BEGIN
 003114 D213 90DF B7A0 000A7 03830 20882  1                      MVC   TOPNWERR,=CL20'MISSING HOST ID'
 00311A 47F0 B178            03208 20883  1                      B     TOPNTCB
 00311E                            20884                       END
                                   20888
                                   20889                         Check local port number
                                   20890                          - If not specfied, assign port number.
                                   20891                          - If specified, check for duplication.
                                   20892
 00311E D603 903C 903C_00004 00004 20893                       IF    (TOPNWLPO,Z),BEGIN  If no local port specified,
 003128 4120 C0D8            000D8 20909  1                      LA    R2,NITPORT          Point to port assignment area
 00312C 9140 90F3/47E0_000BB       20910  1                      IF    TOPNFPRV,'LA R2,NITPPORT'  Check if priv port needed
 003138 5800 2000            00000 20931  1                      L     R0,@R2              Get last port assigned
 00313C                            20932  1                      LOOP  BEGIN
 00313C 5E00 B7B4            03844 20938  2                        INCR  R0                  Try next port number
 003140 5900 2008/47D0_      00008 20941  2                        IF    (R0,GT,@R2+8),'L R0,@R2+4'  Check for wrap
 00314C 5900 2000/4770_      00000 20964  2                        IF    (R0,EQ,@R2),BEGIN   If back to original value,
 003154 D213 90DF B7B8 000A7 03848 20981  3                          MVC   TOPNWERR,=CL20'ALL TCP PORTS IN USE'   Err message
 00315A 47F0 B178            03208 20982  3                          B     TOPNTCB                            Go finish up
 00315E                            20983  2                        END
 00315E 5880 C0D0            000D0 20987  2                        L     TCBR,NITTCBQ        TCB queue head
 003162 1288/4780 B0FC             20988  2                        WHILE (TCBR,NZ),BEGIN     Check if this port in use
                                   21004  3         C                IF    ((R0,EQ,TCBLPORT),AND,  Exit loop if match
 003168 5900 8020/4770_      00020        3                                ((TOPNWIP,EQ,TCBIPADD),OR,(TCBIPADD,Z))),EXIT
 003184 5880 8004            00004 21056  3                          L     TCBR,TCBNEXT
 003188 47F0 B0D2            03162 21057  2                        END
 00318C 1288/4770 B0AC             21062  2                        IF    (TCBR,NZ),NEXT      If found match, try new port
 003192 5000 2000            00000 21079  2                        ST    R0,@R2              Update last port field in NIT
 003196 5000 903C            00004 21080  2                        ST    R0,TOPNWLPO         Save port number
 00319A 47F0 B112            031A2 21081  2                        EXIT
 00319E 47F0 B0AC            0313C 21084  1                      END
 0031A2                            21089                       END
                                   21093
 0031A2 B116/47F0 B178 031A2 03126 21094                       ELSE  BEGIN               Else local port specified,
 0031A6 5880 C0D0            000D0 21105  1                      L     TCBR,NITTCBQ        TCB queue head
 0031AA 1288/4780 B164             21106  1                      WHILE (TCBR,NZ),BEGIN     Look for duplication
                                   21122  2         C              IF    ((TCBLPORT,EQ,TOPNWLPO),
                                          2         C                    AND,
                                          2         C                    ((TCBIPADD,EQ,TOPNWIP),OR,(TCBIPADD,Z)),
                                          2         C                    AND,
                                          2         C                    ((TCBRPORT,EQ,TOPNWRPO),OR,
 0031B0 D503 8020 903C_00020 00004        2                              (TCBRPORT,Z),OR,(TOPNWRPO,Z))),EXIT
 0031EC 5880 8004            00004 21218  2                        L     TCBR,TCBNEXT
 0031F0 47F0 B11A            031AA 21219  1                      END
 0031F4 1288/4780 B174             21224  1                      IF    (TCBR,NZ),BEGIN     If found matching TCB,
 0031FA D213 90DF B7CC 000A7 0385C 21238  2                        MVC   TOPNWERR,=CL20'LPORT IN USE'   Error msg
 003200 47F0 B178            03208 21239  2                        B     TOPNTCB                        Finish up
1AMELIA   TCPOPEN - open TCP connection                                                                                     Page   89
0Current Usings:  (TCB,R8) (TOPNWA-(4+52),R9) (*,R11) (NIT,R12)
0Loc    Object Code    Addr1 Addr2  Stmt Lv Lineno    Source Statement           (Hibal 5, Asmedit 3.3)  HLASM R4.0  2004/03/15 13.11
+___    ______ ____    _____ _____  ____ __ ______    ______ _________
0003204                            21240  1                      END
 003204 5880 8004            00004 21244  1                      L     TCBR,TCBNEXT        Get next TCB address
 003208                            21245                       END
                                   21249
                                   21250                         Build TCB for connection and send SYN packet.
                                   21251
 003208 58E0 B778/0DEE       03808 21252              TOPNTCB  ACALL NEWTCB              Build TCB
 00320E 1881                       21256                       LR    TCBR,R1             TCB base
 003210 D203 800C 9038 0000C 00000 21257                       MVC   TCBUID,TOPNWUID     Set user connection id
 003216 9640 8231      00231       21258                       SET   TCBFUID             Flag have user id
 00321A D203 8020 903C 00020 00004 21264                       MVC   TCBLPORT,TOPNWLPO   Set local port number
 003220 D203 8024 9040 00024 00008 21265                       MVC   TCBRPORT,TOPNWRPO   Set remote port number
 003226 D203 8028 9044 00028 0000C 21266                       MVC   TCBIPADD,TOPNWIP    Set remote host address
 00322C D203 8088 9054 00088 0001C 21267                       MVC   TCBIDLTM,TOPNWIDL   Set idle timeout value
 003232 D603 8084 9050 00084 00018 21268                       OC    TCBTMOUT,TOPNWTMO   Set timeout value
 003238 4770 B1B2/D203_      03242 21269                       IF    Z,'MVC TCBTMOUT,=A(DEFTMOUT)'  If none, set default
 003242 D607 807C 9048 0007C 00010 21286                       OC    TCBFLOWL(8),TOPNWFLL  Set flow values
 003248 4770 B1C2/D207_      03252 21287                       IF    Z,'MVC TCBFLOWL(8),=A(DEFFLOWL,DEFFLOWH)'
 003252 9180 90F3/47E0_000BB       21304                       IF    TOPNFPAS,'SET TCBFPASS'
 00325E D203 8010 C124 00010 00124 21330                       MVC   TCBPATH,NITPCUR     Set path block address
                                   21331
                                   21332                         SET IDLE TIMEOUT VALUE FOR PORT 25 (SMTP).  THIS
                                   21333                         SHOULD BE AN OPTION ON WYLBUR NET_OPEN
                                   21334
 003264 D503 B77C 8024_0380C 00024 21335                       IF    ((TCBRPORT,EQ,25),AND,(TCBIDLTM,Z)),BEGIN
 003278 D203 8088 B780 00088 03810 21368  1                      MVC   TCBIDLTM,=A(600)
 00327E                            21369                       END
                                   21373
                                   21374                         Trace path message
                                   21375
 00327E 9801 9004            00004 21376                       PRESTORE (R0,R1)          Restore msg len and addr
 003282 4A00 B854            038E4 21378                       AH    R0,=Y(16)           Add msg type length
 003286 4B10 B854            038E4 21379                       SH    R1,=Y(16)           Point to msg type
 00328A 41F0 0FFD            00FFD 21380                       LA    R15,TCBTRRPM        Show received msg
 00328E 58E0 B740/0DEE       037D0 21381                       ACALL TCPTRACE            Call trace routine
                                   21385
                                   21386                         Get IP addresses for remote host.  If not found,
                                   21387                         initiate host name lookup
                                   21388
 003294 9801 9058            00020 21389                       LM    R0,R1,TOPNWHST      Host id len and addr
 003298 58E0 B7E4/0DEE       03874 21390                       ACALL CNVTIP              Check if just IP address
 00329E 12FF/4780 B224             21394                       IF    (R15,NZ),BEGIN      If IP address,
 0032A4 59F0 C048/4770_      00048 21408  1                      IF    (R15,EQ,NITIPLP),'L R15,NITIP'  Loopback
 0032B0 50F0 8028            00028 21431  1                      ST    R15,TCBIPADD        Set in TCB
 0032B4                            21432                       END
 0032B4 B228/47F0 B22E 032B4 032A2 21436                       ELSE  BEGIN               Else not IP address,
 0032B8 58E0 B7E8/0DEE       03878 21447  1                      ACALL TCPGETIP            Go lookup IP addresses
 0032BE                            21451                       END
                                   21455
 0032BE D603 8028 8028_00028 00028 21456                       IF    (TCBIPADD,Z),BEGIN  If IP address not found,
 0032C8 4100 0354            00354 21472  1                      LA    R0,L'NSL            Name lookup entry length
 0032CC 58E0 B7EC/0DEE       0387C 21473  1                      ACALL GETBUF              Get storage
 USING  NSL,R1                     21477  1                      WITH  (NSL,R1)
 0032D2 D747 1000 1000 00000 00000 21490  1                      CLEAR NSLHDR
1AMELIA   TCPOPEN - open TCP connection                                                                                     Page   90
0Current Usings:  (NSL,R1) (TCB,R8) (TOPNWA-(4+52),R9) (*,R11) (NIT,R12)
0Loc    Object Code    Addr1 Addr2  Stmt Lv Lineno    Source Statement           (Hibal 5, Asmedit 3.3)  HLASM R4.0  2004/03/15 13.11
+___    ______ ____    _____ _____  ____ __ ______    ______ _________
00032D8 9823 9058            00020 21497  1                      LM    R2,R3,TOPNWHST      Get host name pointers
 0032DC 5020 1048            00048 21498  1                      ST    R2,NSLNAMLN         Save name length
 0032E0 D2FF 104C C23C 0004C 0023C 21499  1                      MVC   NSLNAME,NITBLANK    Move name
 0032E6 0620/4420 B906_            21500  1                      DEX   R2,'MVC NSLNAME(0),@R3'  to NSL
 0032EC 9201 1016      00016       21519  1                      MVI   NSLQTYPE,RR#A       Set type to A
 0032F0 9604 1019      00019       21520  1                      SET   NSLTCP              Flag TCP lookup
 0032F4 D203 1010 8008 00010 00008 21526  1                      MVC   NSLTCPID,TCBID      TCP connection id
 0032FA 58E0 B7F0/0DEE       03880 21527  1                      ACALL NSLOOKUP            Queue name lookup
 003300 12FF/4780 B28E             21531  1                      IF    (R15,Z),EXIT        Exit if OK
 003306 59F0 B7F4/4770_      03884 21548  1                      IF    (R15,EQ,4),BEGIN
 00330E D213 90DF B7F8 000A7 03888 21565  2                        MVC   TOPNWERR,=CL20'INVALID HOST NAME'
 003314                            21566  1                      END
 003314 B288/47F0 B28E 03314 0330C 21570  1                      ELSE  BEGIN
 003318 D213 90DF B80C 000A7 0389C 21581  2                        MVC   TOPNWERR,=CL20'UNKNOWN HOST'
 00331E                            21582  1                      END
 DROP   NSL,R1                     21586                       END
                                   21595
 00331E D603 8028 8028_00028 00028 21596                       IF    (TCBIPADD,NZ),BEGIN  If have host IP address,
 003328 5810 8028            00028 21612  1                      L     R1,TCBIPADD         Get host table entry address
 00332C 58E0 B820/0DEE       038B0 21613  1                      ACALL ADDHOST
 003332 5010 8030            00030 21617  1                      ST    R1,TCBHSTTB         Save host table entry addr
 003336                            21618                       END
                                   21622
                                   21623                         Send TCP_OPEN_INFO message back over path
                                   21624
 003336 4110 B728/4100_      037B8 21625                       SEG   LA:=CL16'TCP_OPEN_INFO:',16,NITPSG
 003348 4110 800C/4100_      0000C 21652                       SEG   TCBUID              User connection id
 00335A 4110 8008/4100_      00008 21679                       SEG   TCBID               Our connection id
 00336C 4110 C034/4100_      00034 21706                       SEG   NITIP               Our IP address
 00337E 4110 8020/4100_      00020 21733                       SEG   TCBLPORT            Local port number
 003390 4110 C33C/4100_      0033C 21760                       SEG   NITZERO,4           Remote host IP address
 0033A2 4110 8024/4100_      00024 21789                       SEG   TCBRPORT            Remote port number
 0033B4 4110 C33C/4100_      0033C 21816                       SEG   NITZERO,8           Spare word + null name length
 0033C6 58E0 B824/0DEE       038B4 21845                       ACALL SENDPATH            Send message over path
 0033CC 9680 8232      00232       21849                       SET   TCBFCONN            Flag message sent
                                   21855
                                   21856                         Set TCB state and send SYN if needed
                                   21857
 0033D0 9201 8230      00230       21858                       MVI   TCBSTATE,LISTEN     Set state to LISTEN
                                   21859
 0033D4 D613 90DF 90DF_000A7 000A7 21860                       IF    (TOPNWERR,NZ),BEGIN   If open error,
 0033DE D206 90D8 B894 000A0 03924 21876  1                      MVC   TOPNWERP,=CL(L'TOPNWERP)'ERROR:'  Set prefix
 0033E4 4110 90D8/4100_      000A0 21877  1                      SETMSG TOPNWERP,L'TOPNWERP+L'TOPNWERR    Prefix+text
 0033EC 58E0 B828/0DEE       038B8 21893  1                      ACALL RTRIM
 0033F2 58E0 B82C/0DEE       038BC 21897  1                      ACALL ABORTTCB            Signal connection abort
 0033F8                            21901                       END
 0033F8 B36C/47F0 B382_033F8 033DC 21905                       ELSEIF ~NITFUP1,BEGIN     Else if interface initialized yet,
 003404 4110 B858/4100_      038E8 21929  1                      SETMSG 'Network connection is down'
 00340C 58E0 B82C/0DEE       038BC 21933  1                      ACALL ABORTTCB            Abort connection
 003412                            21937                       END
                                   21941            C          ELSEIF (~TCBFPASS,AND,    Else if not passive open,
                                                    C                (TCBIPADD,NZ),AND,   and have remote IP address
 003412 B386/47F0 B3AC_03412 03402                                   (TCBRPORT,NZ)),BEGIN   and remote port specified,
 003432 9202 8230      00230       21993  1                      MVI   TCBSTATE,SYNSENT    Set connection state
1AMELIA   TCPOPEN - open TCP connection                                                                                     Page   91
0Current Usings:  (TCB,R8) (TOPNWA-(4+52),R9) (*,R11) (NIT,R12)
0Loc    Object Code    Addr1 Addr2  Stmt Lv Lineno    Source Statement           (Hibal 5, Asmedit 3.3)  HLASM R4.0  2004/03/15 13.11
+___    ______ ____    _____ _____  ____ __ ______    ______ _________
0003436 58E0 B830/0DEE       038C0 21994  1                      ACALL SENDTCP             Go send SYN packet
 00343C                            21998                       END
 00343C 1BFF                       22002                       CLEAR R15                 Set return code
 00343E 47F0 B49A            0352A 22006                       EXIT  TCPOPEN             Return
-                                  22010
                                   22011                         Scan table
                                   22012
 003442 D40034A8D3D7D6D9_          22013              TOPNPRT  SCKW  LPORT,TOPNLPO,(P,I),65535
 00344F 0B003508C8D6E2E3           22016                       SCKW  HOST,TOPNHOST,A
 003457 D40034B6D9D7D6D9_          22018                       SCKW  RPORT,TOPNRPO,(P,I),65535
 003464 C40034C4C6D3D6E6           22021                       SCKW  FLOWL,TOPNFLL,(P,I)
 00346D C40034D2C6D3D6E6           22023                       SCKW  FLOWH,TOPNFLH,(P,I)
 003476 CE0034E0E3C9D4C5           22025                       SCKW  TIMEOUT,TOPNTMO,(P,I,A)
 003481 C70034EEC9E3C9D4           22027                       SCKW  ITIMEOUT,TOPNIDLE,(P,I)
 00348D 0E0034FCD7C1E2E2           22029                       SCKW  PASSIVE,TOPNPASS,A
 003498 0F003502D7D9C9E5           22031                       SCKW  PRIVILEGED,TOPNPRIV,A
 0034A4 FF0030C8                   22033                       SCKW  ,TOPNERR
                                   22035
 0034A8 1200/47D0 B038             22036              TOPNLPO  IF    (R0,NP),TOPNERR
 0034AE D203 903C C7F8 00004 007F8 22054                       MVC   TOPNWLPO,SCNVAL
 0034B4 07FE                       22055                       BR    R14
                                   22056
 0034B6 1200/47D0 B038             22057              TOPNRPO  IF    (R0,NP),TOPNERR
 0034BC D203 9040 C7F8 00008 007F8 22075                       MVC   TOPNWRPO,SCNVAL
 0034C2 07FE                       22076                       BR    R14
                                   22077
 0034C4 1200/47D0 B038             22078              TOPNFLL  IF    (R0,NP),TOPNERR
 0034CA D203 9048 C7F8 00010 007F8 22096                       MVC   TOPNWFLL,SCNVAL
 0034D0 07FE                       22097                       BR    R14
                                   22098
 0034D2 1200/47D0 B038             22099              TOPNFLH  IF    (R0,NP),TOPNERR
 0034D8 D203 904C C7F8 00014 007F8 22117                       MVC   TOPNWFLH,SCNVAL
 0034DE 07FE                       22118                       BR    R14
                                   22119
 0034E0 1200/47D0 B038             22120              TOPNTMO  IF    (R0,NP),TOPNERR
 0034E6 D203 9050 C7F8 00018 007F8 22138                       MVC   TOPNWTMO,SCNVAL
 0034EC 07FE                       22139                       BR    R14
                                   22140
 0034EE 1200/47D0 B038             22141              TOPNIDLE IF    (R0,NP),TOPNERR
 0034F4 D203 9054 C7F8 0001C 007F8 22159                       MVC   TOPNWIDL,SCNVAL
 0034FA 07FE                       22160                       BR    R14
                                   22161
 0034FC 9680 90F3      000BB       22162              TOPNPASS SET   TOPNFPAS
 003500 07FE                       22169                       BR    R14
                                   22170
 003502 9640 90F3      000BB       22171              TOPNPRIV SET   TOPNFPRV
 003506 07FE                       22178                       BR    R14
                                   22179
 003508 90E1 D000/41D0_      00000 22180              TOPNHOST XPUSH R14,R1
 003510 58E0 B834/0DEE       038C4 22183                       ACALL GETTOKEN            Bypass scanner to get host id
 003516 1200/47D0 B038             22187                       IF    (R0,NP),TOPNERR
 00351C 9001 9058            00020 22204                       STM   R0,R1,TOPNWHST      Save name len and pointer
1AMELIA   TCPOPEN - open TCP connection                                                                                     Page   92
0Current Usings:  (TCB,R8) (TOPNWA-(4+52),R9) (*,R11) (NIT,R12)
0Loc    Object Code    Addr1 Addr2  Stmt Lv Lineno    Source Statement           (Hibal 5, Asmedit 3.3)  HLASM R4.0  2004/03/15 13.11
+___    ______ ____    _____ _____  ____ __ ______    ______ _________
0003520 4BD0 B872/98E1_      03902 22205                       XPOP  R14,R1
 003528 07FE                       22208                       BR    R14
                                   22209
 00352A 18D9/980C D004_            22210                       PEND
 DROP   TOPNWA-(4+52),R9
 DROP   *,R11
1AMELIA   TCPNSL -- Process name server lookup completion                                                                   Page   93
0Current Usings:  (TCB,R8) (NIT,R12)
0Loc    Object Code    Addr1 Addr2  Stmt Lv Lineno    Source Statement           (Hibal 5, Asmedit 3.3)  HLASM R4.0  2004/03/15 13.11
+___    ______ ____    _____ _____  ____ __ ______    ______ _________
0                                  22236
                                   22237
                                   22238                 TCPNSL -- Process name server lookup completion
                                   22239
                                   22240                   On entry:
                                   22241                     R1  - NSL pointer
                                   22242

0003538 90EF C020/4DE0_      00020 22243              TCPNSL   PROC
 USING  *,R11
 00355C 1861                       22285                       LR    R6,R1               NSL pointer
 USING  NSL,R6                     22286                       WITH  (NSL,R6)
 00355E 58F0 6010            00010 22299                       L     R15,NSLTCPID        Get TCP id
 003562 58E0 B270/0DEE       037CC 22300                       ACALL GETTCB              Get TCB address
 003568 4780 B0D2            0362E 22304                       IF    Z,EXIT              Return if not found
 00356C 188F                       22318                       LR    TCBR,R15            TCB base reg
 00356E 9501 8230/4770_00230       22319                       IF    (TCBSTATE,NE,LISTEN),EXIT  Check connection state
                                   22340
                                   22341                         If name not in host table, abort TCP connection
                                   22342
 003576 4110 604C/5800_      0004C 22343                       SETMSG NSLNAME,L:NSLNAMLN  Host name
 00357E 58E0 B31C/0DEE       03878 22357                       ACALL TCPGETIP            Lookup name in host table
 003584 4780 B0A8            03604 22361                       IF    NZ,BEGIN            If not found,
 003588 9503 6018/4770_00018       22372  1                      IF    (NSLRCODE,EQ,NSM#UNKN),BEGIN   If unknown host RC,
 003590 4110 B3CF/4100_      0392B 22390  2                        SETMSG 'ERROR: UNKNOWN HOST'
 003598                            22394  1                      END
 003598 B040/47F0 B050_03598 0358E 22398  1                      ELSEIF (NSLRCODE,NZ),BEGIN  If lookup error RC,
 0035A4 4110 B3E2/4100_      0393E 22423  2                        SETMSG 'Name server error'
 0035AC                            22427  1                      END
 0035AC B054/47F0 B064_035AC 035A2 22431  1                      ELSEIF NSLFTMO,BEGIN       If lookup timeout,
 0035B8 4110 B3F3/4100_      0394F 22455  2                        SETMSG 'Timeout during host name lookup'
 0035C0                            22459  1                      END
 0035C0 B068/47F0 B078_035C0 035B6 22463  1                      ELSEIF (R15,EQ,8),BEGIN    Else found only MX record,
 0035CC 4110 B412/4100_      0396E 22489  2                        SETMSG 'ERROR: MAIL ONLY HOST'  Assume MX only host
 0035D4                            22493  1                      END
 0035D4 B07C/47F0 B09E 035D4 035CA 22497  1                      ELSE  BEGIN               Else incomplete lookup,
 0035D8 9501 6016/4770_00016       22508  2                        IF    (NSLQTYPE,EQ,RR#A),BEGIN  If did A lookup
 0035E0 920F 6016      00016       22526  3                          MVI   NSLQTYPE,RR#MX             Look for MX record
 0035E4 4110 6000            00000 22527  3                          LA    R1,NSL                     Requeue
 0035E8 58E0 B324/0DEE       03880 22528  3                          ACALL NSLOOKUP                     lookup
 0035EE 47F0 B0D2            0362E 22532  3                          EXIT  TCPNSL                     Return
 0035F2                            22535  2                        END
 0035F2 4110 B3CF/4100_      0392B 22539  2                        SETMSG 'ERROR: UNKNOWN HOST'
 0035FA                            22543  1                      END
                                   22547  1
 0035FA 58E0 B360/0DEE       038BC 22548  1                      ACALL ABORTTCB            Abort connection
 003600 47F0 B0D2            0362E 22552  1                      EXIT  TCPNSL              Return
 003604                            22555                       END
1AMELIA   TCPNSL -- Process name server lookup completion                                                                   Page   94
0Current Usings:  (NSL,R6) (TCB,R8) (*,R11) (NIT,R12)
0Loc    Object Code    Addr1 Addr2  Stmt Lv Lineno    Source Statement           (Hibal 5, Asmedit 3.3)  HLASM R4.0  2004/03/15 13.11
+___    ______ ____    _____ _____  ____ __ ______    ______ _________
0                                  22559
                                   22560                         Send initial SYN if active open
                                   22561
 003604 5810 8028            00028 22562                       L     R1,TCBIPADD         Get IP address
 003608 58E0 B354/0DEE       038B0 22563                       ACALL ADDHOST             Create host table entry
 00360E 5010 8030            00030 22567                       ST    R1,TCBHSTTB         Save host table address in TCB
                                   22568            C          IF    (~TCBFPASS,AND,     If not passive open,
 003612 9108 8232/4710_00232                                         (TCBRPORT,NZ)),BEGIN   and remote port specified,
 003624 9202 8230      00230       22598  1                      MVI   TCBSTATE,SYNSENT    Set connection state
 003628 58E0 B364/0DEE       038C0 22599  1                      ACALL SENDTCP             Go send SYN packet
 00362E                            22603                       END
 00362E 18D9/980C D004_            22607                       PEND
 DROP   NSL,R6
 DROP   *,R11
1AMELIA   TCPGETIP -- Get IP addresses for connection                                                                       Page   95
0Current Usings:  (TCB,R8) (NIT,R12)
0Loc    Object Code    Addr1 Addr2  Stmt Lv Lineno    Source Statement           (Hibal 5, Asmedit 3.3)  HLASM R4.0  2004/03/15 13.11
+___    ______ ____    _____ _____  ____ __ ______    ______ _________
0                                  22633
                                   22634
                                   22635                 TCPGETIP -- Get IP addresses for connection
                                   22636
                                   22637                   On entry:
                                   22638                      R0,R1 - Host name length and pointer
                                   22639
                                   22640                   On exit:
                                   22641                      R15   - RC (0=OK, 4=Unknown, 8=Mail only)
                                   22642

000363C 90EF C020/4DE0_      00020 22643              TCPGETIP PROC
 USING  *,R11
 003660 58E0 B268/0DEE       038C8 22685                       ACALL GETHNT              Get HNT entry
 003666 1211/4770 B014             22689                       IF    (R1,Z),BEGIN        If none,
 00366C 41F0 0004            00004 22703  1                      LA    R15,4               Set RC=4
 003670 47F0 B0AA            0370A 22704  1                      EXIT  TCPGETIP            Return
 003674                            22707                       END
                                   22711
 003674 1821                       22712                       LR    R2,R1               Copy HNT pointer
 USING  HNT,R2                     22713                       WITH  (HNT,R2)
 003676 950F 200D/4770_0000D       22726                       IF    (HNTTYPE,EQ,RR#MX),BEGIN  If MX entry only,
 00367E 41F0 0008            00008 22744  1                      LA    R15,8               Set RC=8
 003682 47F0 B0AA            0370A 22745  1                      EXIT  TCPGETIP            Return
 003686                            22748                       END
                                   22752
 003686 9501 200D/4780_0000D       22753                       IF    (HNTTYPE,NE,RR#A),BEGIN  If not A (could be PTR)
 00368E 41F0 0004            00004 22771  1                      LA    R15,4                    Set unknown host RC
 003692 47F0 B0AA            0370A 22772  1                      EXIT  TCPGETIP                 Return
 003696                            22775                       END
                                   22779
 003696 D203 8028 2008 00028 00008 22780                       MVC   TCBIPADD,HNTIPADD   Move IP address to TCB
 00369C D503 2008 C048_00008 00048 22781                       IF    (HNTIPADD,EQ,NITIPLP),'MVC TCBIPADD,NITIP'  Loopback
                                   22805
 0036AC                            22806                       LOOP  BEGIN               Check for more A records
 0036AC 1812                       22812  1                      LR    R1,R2               Copy HNT pointer
 0036AE 58E0 B26C/0DEE       038CC 22813  1                      ACALL GETHNTNX            Get next entry for host
 0036B4 1211/4780 B0A8             22817  1                      IF    (R1,Z),EXIT         Exit if no more
 0036BA 1821                       22834  1                      LR    R2,R1               Copy pointer
 0036BC 9501 200D/4770_0000D       22835  1                      IF    (HNTTYPE,NE,RR#A),EXIT   Exit if not A record
 0036C4 4100 0008            00008 22856  1                      LA    R0,8                Storage for IP queue entry
 0036C8 58E0 B270/0DEE       038D0 22857  1                      ACALL GETCORE
 0036CE D203 1000 C33C 00000 0033C 22861  1                      MVC   @R1(4),NITZERO      Clear chain pointer
 0036D4 D203 1004 2008 00004 00008 22862  1                      MVC   @R1+4(4),HNTIPADD   Move in IP address
 0036DA D503 2008 C048_00008 00048 22863  1                      IF    (HNTIPADD,EQ,NITIPLP),'MVC @R1+4(4),NITIP'  Loopback
 0036EA 41F0 802C            0002C 22887  1                      LA    R15,TCBIPCHN        Point to IP entry head
 0036EE D503 B274 F000_038D4 00000 22888  1                      WHILE (@R15,NE,=A(0)),'L R15,@R15'  Find end of chain
 003700 5010 F000            00000 22913  1                      ST    R1,@R15             Add new entry to end
 003704 47F0 B04C            036AC 22914                       END
 003708 1BFF                       22919                       CLEAR R15                 Set RC
 00370A 18D9/980C D004_            22923                       PEND
 DROP   HNT,R2
 DROP   *,R11
1AMELIA   TCPGETIP -- Get IP addresses for connection                                                                       Page   96
0Current Usings:  (TCB,R8) (NIT,R12)
0Loc    Object Code    Addr1 Addr2  Stmt Lv Lineno    Source Statement           (Hibal 5, Asmedit 3.3)  HLASM R4.0  2004/03/15 13.11
+___    ______ ____    _____ _____  ____ __ ______    ______ _________
0                                  22948
                                   22949                       QLTORG
1AMELIA   TCPREJCT - Reject passive TCP connection open                                                                     Page   97
0Current Usings:  (TCB,R8) (NIT,R12)
0Loc    Object Code    Addr1 Addr2  Stmt Lv Lineno    Source Statement           (Hibal 5, Asmedit 3.3)  HLASM R4.0  2004/03/15 13.11
+___    ______ ____    _____ _____  ____ __ ______    ______ _________
0                                  23029
                                   23030
                                   23031                 TCPREJCT -- reject passive TCP connection open
                                   23032

000399C 90EF C020/4DE0_      00020 23033              TCPREJCT PROC
 USING  *,R11
                                   23075            C          IF    (TCBFUID,OR,        If received user id,
                                                    C                ((TCBSTATE,NE,ESTABLSH),AND,  or inappropriate state
                                                    C                (TCBSTATE,NE,CLOSWAIT),AND,
 0039C0 9140 8231/4710_00231                                         (TCBSTATE,NE,CLOSED))),BEGIN
 0039E0 41F0 B4C8            03E88 23139  1                      LA    R15,=CL16'SEQUENCE ERROR'     Set error return
 0039E4                            23140                       END
 0039E4 B028/B028/B028_039E4 039CE 23144                       ELSE  BEGIN               Else reject message ok,
 0039E8 58E0 B4F8/0DEE       03EB8 23159  1                      ACALL SENDRST             Send RST to remote host
 0039EE 58E0 B4FC/0DEE       03EBC 23163  1                      ACALL DELTCB              Delete TCB
 0039F4 1BFF                       23167  1                      CLEAR R15                 Set return code
 0039F6                            23171                       END
 0039F6 18D9/980C D004_            23175                       PEND
 DROP   *,R11
1AMELIA   TCPACCPT - complete passive TCP connection open                                                                   Page   98
0Current Usings:  (TCB,R8) (NIT,R12)
0Loc    Object Code    Addr1 Addr2  Stmt Lv Lineno    Source Statement           (Hibal 5, Asmedit 3.3)  HLASM R4.0  2004/03/15 13.11
+___    ______ ____    _____ _____  ____ __ ______    ______ _________
0                                  23196
                                   23197
                                   23198                 TCPACCPT -- complete passive connection open
                                   23199
                                   23200                   Called when TCP_ACCEPT message received from path.  This
                                   23201                    message provides the user connection id for a connection
                                   23202                    created from a passive open (server port listen).
                                   23203
                                   23204                   On entry:
                                   23205                     R0,R1 - parm list
                                   23206
                                   23207                   On exit:
                                   23208                     R15 - return code (0=OK, 4=bad id  8=invalid request)
                                   23209

0003A04 90EF C020/4DE0_      00020 23210              TCPACCPT PROC
 USING  *,R11
 003A28 5820 1000            00000 23252                       L     R2,@R1              Get user connection id
                                   23253            C          IF    (((TCBSTATE,NE,ESTABLSH),AND,
                                                    C                (TCBSTATE,NE,CLOSWAIT),AND,
                                                    C                (TCBSTATE,NE,CLOSED)),
                                                    C                OR,
 003A2C 9504 8230/4780_00230                                         (TCBFUID,AND,(R2,NE,TCBUID))),BEGIN
 003A54 41F0 B460            03E88 23333  1                      LA    R15,=CL16'SEQUENCE ERROR'
 003A58 47F0 B066            03A8E 23334  1                      EXIT  TCPACCPT
 003A5C                            23337                       END
 003A5C 5020 800C            0000C 23341                       ST    R2,TCBUID           Set userid in TCB
 003A60 9640 8231      00231       23342                       SET   TCBFUID             Show userid valid
                                   23348
                                   23349                         If there are any path messages queued for the connection,
                                   23350                           we can send them now after filling in the userid.
                                   23351
 003A64 5820 80B4            000B4 23352                       L     R2,TCBPATHQ         Path message queue head
 003A68 1222/4780 B05E             23353                       WHILE (R2,NZ),BEGIN
 USING  TCBQHDR,R2                 23369  1                      WITH  (TCBQHDR,R2)
 003A6E D503 B498 200C_03EC0 0000C 23382  1                      IF    (TCBQDATA,EQ,'TCP_'),BEGIN   If TCP message,
 003A78 D203 201C 800C 0001C 0000C 23399  2                        MVC   TCBQDATA+16(4),TCBUID        Fill in user connect id
 003A7E                            23400  1                      END
 003A7E 5820 2000            00000 23404  1                      L     R2,TCBQNEXT         Chain to next entry
 003A82 47F0 B040            03A68 23405                       END
 DROP   TCBQHDR,R2
 003A86 58E0 B49C/0DEE       03EC4 23415                       ACALL SNDPATHQ            Go send any queued messages
                                   23419
 003A8C 1BFF                       23420                       CLEAR R15                 Return code
 003A8E 18D9/980C D004_            23424                       PEND
 DROP   *,R11
1AMELIA   TCPWRITE - process TCP write data                                                                                 Page   99
0Current Usings:  (TCB,R8) (NIT,R12)
0Loc    Object Code    Addr1 Addr2  Stmt Lv Lineno    Source Statement           (Hibal 5, Asmedit 3.3)  HLASM R4.0  2004/03/15 13.11
+___    ______ ____    _____ _____  ____ __ ______    ______ _________
0                                  23445
                                   23446
                                   23447                 TCPWRITE -- process write data
                                   23448
                                   23449                   On entry:
                                   23450                     R0  - data length
                                   23451                     R1  - data address
                                   23452                     R15 - TCB id
                                   23453
                                   23454                   On exit:
                                   23455                     R15 - return code (0=OK, NZ=error)
                                   23456

0003A9C 90EF C020/4DE0_      00020 23457              TCPWRITE PROC
 USING  *,R11
                                   23499
                                   23500                         Check connection state.
                                   23501
 003AC0 1200/4780 B00E_            23502                       IF    ((R0,Z),OR,(TCBSTATE,EQ,CLOSED)),BEGIN
 003ACE 1BFF                       23533  1                      CLEAR R15
 003AD0 47F0 B12A            03BEA 23537  1                      EXIT  TCPWRITE
 003AD4                            23540                       END
                                   23544
                                   23545            C          IF    ((TCBSTATE,NE,ESTABLSH),AND,   Check TCB state
 003AD4 9504 8230/4780_00230                                         (TCBSTATE,NE,CLOSWAIT)),BEGIN
 003AE4 41F0 B3C8            03E88 23580  1                      LA    R15,=CL16'SEQUENCE ERROR'
 003AE8 47F0 B12A            03BEA 23581  1                      EXIT  TCPWRITE            Return
 003AEC                            23584                       END
                                   23588
                                   23589                         Check for too much data in send queue
                                   23590
 003AEC 1821                       23591                       LR    R2,R1               Copy data address
 003AEE 1830                       23592                       LR    R3,R0               Copy data length
 003AF0 5800 8058            00058 23593                       L     R0,TCBSNDFN         Compute send
 003AF4 5F00 8050            00050 23594                       SL    R0,TCBSNDUN           queue size
 003AF8 5900 B408/47D0_      03EC8 23595                       IF    (R0,GT,MAXSENDQ),BEGIN  If over limit,
 003B00 4100 0001/5E00_      00001 23612  1                      INCR  R0,NITSNDQ#         Incr counter
 003B0C 58E0 B3F8/0DEE       03EB8 23618  1                      ACALL SENDRST             Send RST to remote host
 003B12 4110 B40C/4100_      03ECC 23622  1                      SETMSG 'ERROR: DATA OVERFLOW'     Abort message text
 003B1A 58E0 B420/0DEE       03EE0 23626  1                      ACALL ABORTTCB            Abort connection
 003B20 41F0 B3D8            03E98 23630  1                      LA    R15,=CL16'DATA OVERFLOW'  Error return
 003B24 47F0 B12A            03BEA 23631  1                      EXIT  TCPWRITE            Exit
 003B28                            23634                       END
                                   23638
                                   23639                         Add new entry to end of send queue.
                                   23640
 003B28 4140 80B0            000B0 23641                       LA    R4,TCBSENDQ-(TCBQNEXT-TCBQHDR)  Find end of queue
 USING  TCBQHDR,R4                 23642                       WITH  (TCBQHDR,R4)
 003B2C D603 4000 4000_00000 00000 23655                       WHILE (TCBQNEXT,NZ),'L R4,TCBQNEXT'
 003B3E 4103 000C            0000C 23680                       LA    R0,L'TCBQHDR(R3)    Get entry length
 003B42 58E0 B424/0DEE       03EE4 23681                       ACALL GETBUF              Get memory for queue entry
 003B48 5010 4000            00000 23685                       ST    R1,TCBQNEXT         Chain new entry to last
 003B4C 1841                       23686                       LR    R4,R1               Set new entry base
1AMELIA   TCPWRITE - process TCP write data                                                                                 Page  100
0Current Usings:  (TCBQHDR,R4) (TCB,R8) (*,R11) (NIT,R12)
0Loc    Object Code    Addr1 Addr2  Stmt Lv Lineno    Source Statement           (Hibal 5, Asmedit 3.3)  HLASM R4.0  2004/03/15 13.11
+___    ______ ____    _____ _____  ____ __ ______    ______ _________
0003B4E D703 4000 4000 00000 00000 23687                       CLEAR TCBQNEXT            Clear chain pointer
 003B54 D203 4008 8058 00008 00058 23694                       MVC   TCBQSEQ,TCBSNDFN    Set start sequence number
 003B5A 5030 4004            00004 23695                       ST    R3,TCBQLEN          Set data length
 003B5E 41E0 400C/18F3_      0000C 23696                       MOVEL TCBQDATA,(R2),(R3)  Move data to buffer
                                   23716
                                   23717                         Update statistics and TCP sequence number
                                   23718
 003B6A 1803                       23719                       LR    R0,R3               Update sent byte count
 003B6C 5A00 80E8            000E8 23720                       A     R0,TCBSBYTE
 003B70 5000 80E8            000E8 23721                       ST    R0,TCBSBYTE
 003B74 58F0 8030            00030 23722                       L     R15,TCBHSTTB
 USING  HSTTABLE,R15               23723                       WITH  (HSTTABLE,R15)
 003B78 1803                       23736                       LR    R0,R3
 003B7A 5A00 F040            00040 23737                       A     R0,HSTSTCPB
 003B7E 5000 F040            00040 23738                       ST    R0,HSTSTCPB
 DROP   HSTTABLE,R15               23739                       DROP  R15
 003B82 5E30 8058            00058 23746                       AL    R3,TCBSNDFN         Update final sequence number
 003B86 5030 8058            00058 23747                       ST    R3,TCBSNDFN
                                   23748
                                   23749                         If user flow control active, check if need to send
                                   23750                           TCP_STOP msg.
                                   23751
                                   23752            C          IF    ((TCBFLOWH,NZ),AND,  If have flow control upper lim
 003B8A D603 8080 8080_00080 00080                                   ~TCBFSTOP),BEGIN      and not already stopped,
 003B9C 5800 8058            00058 23782  1                      L     R0,TCBSNDFN         Compute count of
 003BA0 5F00 8050            00050 23783  1                      SL    R0,TCBSNDUN             unacked + unsent bytes
 003BA4 5900 8080/47D0_      00080 23784  1                      IF    (R0,GT,TCBFLOWH),BEGIN   If over upper limit,
 003BAC 9602 8231      00231       23801  2                        SET   TCBFSTOP                 Set stop flag
 003BB0 4110 B3E8/4100_      03EA8 23807  2                        SEG   LA:=CL16'TCP_STOP:',16,NITPSG   Send TCP_STOP message
 003BC2 4110 800C/4100_      0000C 23834  2                        SEG   TCBUID
 003BD4 58E0 B42C/0DEE       03EEC 23861  2                        ACALL SENDPATH
 003BDA                            23865  1                      END
 003BDA                            23869                       END
                                   23873
 003BDA 9104 8231/4710_00231       23874                       IF    ~TCBFRXMT,BEGIN     If not retransmitting,
 003BE2 58E0 B430/0DEE       03EF0 23889  1                      ACALL SENDTCP             Try to start packet write
 003BE8                            23893                       END
 003BE8 1BFF                       23897                       CLEAR R15                 Set return code
 003BEA 18D9/980C D004_            23901                       PEND
 DROP   TCBQHDR,R4
 DROP   *,R11
1AMELIA   TCPEOF - End of data from path                                                                                    Page  101
0Current Usings:  (TCB,R8) (NIT,R12)
0Loc    Object Code    Addr1 Addr2  Stmt Lv Lineno    Source Statement           (Hibal 5, Asmedit 3.3)  HLASM R4.0  2004/03/15 13.11
+___    ______ ____    _____ _____  ____ __ ______    ______ _________
0                                  23929
                                   23930
                                   23931                 TCPEOF -- End of data from path
                                   23932
                                   23933                   End of data from path, send FIN packet to remote host.
                                   23934
                                   23935                  On exit:
                                   23936                    R15 - return code (0=OK, NZ=error)
                                   23937

0003BF8 90EF C020/4DE0_      00020 23938              TCPEOF   PROC
 USING  *,R11
                                   23980
                                   23981                         Check connection state and set new state.
                                   23982
 003C1C 9500 8230/4770_00230       23983                       IF    (TCBSTATE,EQ,CLOSED),BEGIN
 003C24 1BFF                       24001  1                      CLEAR R15
 003C26 47F0 B042            03C5E 24005  1                      EXIT  TCPEOF
 003C2A                            24008                       END
                                   24012
 003C2A 9504 8230/4770_00230       24013                       IF    (TCBSTATE,EQ,ESTABLSH),BEGIN
 003C32 9205 8230      00230       24031  1                      MVI   TCBSTATE,FINWAIT1
 003C36                            24032                       END
 003C36 B01E/47F0 B02A_03C36 03C30 24036                       ELSEIF (TCBSTATE,EQ,CLOSWAIT),BEGIN
 003C42 9209 8230      00230       24063  1                      MVI   TCBSTATE,LASTACK
 003C46                            24064                       END
 003C46 B02E/47F0 B036 03C46 03C40 24068                       ELSE  BEGIN               Else invalid close
 003C4A 41F0 B26C            03E88 24079  1                      LA    R15,=CL16'SEQUENCE ERROR'
 003C4E 47F0 B042            03C5E 24080  1                      EXIT  TCPEOF              Return
 003C52                            24083                       END
                                   24087
                                   24088                         Flag EOF received and initiate FIN packet write.
                                   24089
 003C52 9640 8232      00232       24090                       SET   TCBFEOF             Flag EOF received
 003C56 58E0 B2D4/0DEE       03EF0 24096                       ACALL SENDTCP             Try to send FIN packet
 003C5C 1BFF                       24100                       CLEAR R15                 Set return code
 003C5E 18D9/980C D004_            24104                       PEND
 DROP   *,R11
1AMELIA   TCPABORT - Abort message received from path                                                                       Page  102
0Current Usings:  (TCB,R8) (NIT,R12)
0Loc    Object Code    Addr1 Addr2  Stmt Lv Lineno    Source Statement           (Hibal 5, Asmedit 3.3)  HLASM R4.0  2004/03/15 13.11
+___    ______ ____    _____ _____  ____ __ ______    ______ _________
0                                  24125
                                   24126
                                   24127                 TCPABORT -- Abort message received from path.
                                   24128

0003C6C 90EF C020/4DE0_      00020 24129              TCPABORT PROC
 USING  *,R11
                                   24171
                                   24172                         Log connection status
                                   24173
                                   24174            C          IF    ((TCBLPORT,NE,23),AND,  If not telnet in,
                                                    C                (TCBRPORT,NE,23),AND,    or telnet out,
                                                    C                (TCBRPORT,NE,25),AND,     or smtp out,
 003C90 D503 B264 8020_03EF4 00020                                   (TCBRPORT,NE,515)),BEGIN   or lpd out,
 003CB8 4110 B29C/4100_      03F2C 24239  1                      SEG   'TCP ID=',,NITPRSG
 003CCA 5810 8008/1B00_      00008 24256  1                      SEGDC TCBID
 003CDA 4110 B274/4100_      03F04 24277  1                      SEGWR ' TCP_ABORT received:'
 003CEC 4100 0004            00004 24295  1                      LA    R0,4                Short format
 003CF0 1818                       24296  1                      LR    R1,TCBR             TCB address
 003CF2 41F0 C4B0            004B0 24297  1                      LA    R15,NITPRSG         SEGCB
 003CF6 58E0 B28C/0DEE       03F1C 24298  1                      ACALL FMTTCB              Log TCB status
 003CFC                            24302                       END
                                   24306
 003CFC 58E0 B228/0DEE       03EB8 24307                       ACALL SENDRST             Send reset to remote host
 003D02 9200 8230      00230       24311                       MVI   TCBSTATE,CLOSED     Mark connection closed
 003D06 1BFF                       24312                       CLEAR R15                 Set return code
 003D08 18D9/980C D004_            24316                       PEND
 DROP   *,R11
1AMELIA   TCPCLOSE -- Close message received from path                                                                      Page  103
0Current Usings:  (TCB,R8) (NIT,R12)
0Loc    Object Code    Addr1 Addr2  Stmt Lv Lineno    Source Statement           (Hibal 5, Asmedit 3.3)  HLASM R4.0  2004/03/15 13.11
+___    ______ ____    _____ _____  ____ __ ______    ______ _________
0                                  24337
                                   24338
                                   24339                 TCPCLOSE -- Close TCP connection
                                   24340
                                   24341                    This is the final message from the path for a connection.
                                   24342

0003D16 90EF C020/4DE0_      00020 24343              TCPCLOSE PROC
 USING  *,R11
                                   24385            C          IF    ((TCBSTATE,EQ,ESTABLSH),OR,
 003D3A 9504 8230/4780_00230                                         (TCBSTATE,EQ,CLOSWAIT)),BEGIN
 003D4A 58E0 B1E6/0DEE       03F20 24420  1                      ACALL TCPEOF              Treat as data EOF
 003D50                            24424                       END
                                   24428
 003D50 9101 8231/47E0_00231       24429                       IF    TCBFXOFF,BEGIN      If STOP from path,
 003D58 58E0 B1EA/0DEE       03F24 24444  1                      ACALL TCPSTART            Treat as TCP_START
 003D5E                            24448                       END
                                   24452
 003D5E 9620 8232      00232       24453                       SET   TCBFRCLO            Flag CLOSE received
 003D62 B205 D000      00000       24459                       STCK  @R13
 003D66 D203 8104 D000 00104 00000 24460                       MVC   TCBCLTIM,@R13       Set time stamp
                                   24461
                                   24462            C          IF    ((TCBSTATE,EQ,TIMEWAIT),OR,   If TIMEWAIT or
 003D6C 950A 8230/4780_00230                                         (TCBSTATE,EQ,CLOSED)),BEGIN     CLOSED state,
 003D7C 58E0 B1EE/0DEE       03F28 24497  1                      ACALL CLOSETCB            Try to close TCB
 003D82 1BFF                       24501  1                      CLEAR R15                 Set rc
 003D84                            24505                       END
                                   24509            C          ELSEIF ((TCBSTATE,EQ,CLOSING),OR,
                                                    C                (TCBSTATE,EQ,FINWAIT1),OR,
                                                    C                (TCBSTATE,EQ,FINWAIT2),OR,
 003D84 B04E/47F0 B070_03D84 03D7A                                   (TCBSTATE,EQ,LASTACK)),BEGIN
 003DA8 1BFF                       24583  1                      CLEAR R15                 Set rc
 003DAA                            24587                       END
 003DAA B074/47F0 B078 03DAA 03DA6 24591                       ELSE  BEGIN
 003DAE 41F0 B14E            03E88 24602  1                      LA    R15,=CL16'SEQUENCE ERROR'
 003DB2                            24603                       END
                                   24607
 003DB2 18D9/980C D004_            24608                       PEND
 DROP   *,R11
1AMELIA   TCPINFO - process TCP user path info                                                                              Page  104
0Current Usings:  (TCB,R8) (NIT,R12)
0Loc    Object Code    Addr1 Addr2  Stmt Lv Lineno    Source Statement           (Hibal 5, Asmedit 3.3)  HLASM R4.0  2004/03/15 13.11
+___    ______ ____    _____ _____  ____ __ ______    ______ _________
0                                  24629
                                   24630
                                   24631                 TCPINFO -- Process user path info text
                                   24632
                                   24633                    On entry:
                                   24634                      R0  - info text length
                                   24635                      R1  - info text address
                                   24636

0003DC0 90EF C020/4DE0_      00020 24637              TCPINFO  PROC
 USING  *,R11
 003DE4 1821                       24679                       LR    R2,R1               Copy text address
 003DE6 1830                       24680                       LR    R3,R0               Copy text length
 003DE8 4100 80BC            000BC 24681                       LA    R0,TCBINFO          Get target area and length
 003DEC 4110 0020            00020 24682                       LA    R1,L'TCBINFO
 003DF0 BF38 C23C            0023C 24683                       ICM   R3,8,NITBLANK       Set blank fill
 003DF4 0E02                       24684                       MVCL  R0,R2               Move text to TCB
 003DF6 1BFF                       24685                       CLEAR R15                 Set return code
 003DF8 18D9/980C D004_            24689                       PEND
 DROP   *,R11
1AMELIA   TCPSTOP and TCPSTART - flow control from path                                                                     Page  105
0Current Usings:  (TCB,R8) (NIT,R12)
0Loc    Object Code    Addr1 Addr2  Stmt Lv Lineno    Source Statement           (Hibal 5, Asmedit 3.3)  HLASM R4.0  2004/03/15 13.11
+___    ______ ____    _____ _____  ____ __ ______    ______ _________
0                                  24710
                                   24711                  TCP_STOP: id       - Stop path data transmission
                                   24712
                                   24713

0003E06 90EF C020/4DE0_      00020 24714              TCPSTOP  PROC
 USING  *,R11
 003E2A 9500 8230/4780_00230       24756                       IF    (TCBSTATE,NE,CLOSED),BEGIN  If not closing,
 003E32 9601 8231      00231       24774  1                      SET   TCBFXOFF            Flag stop path sends
 003E36                            24780                       END
 003E36 1BFF                       24784                       CLEAR R15                 Set RC
 003E38 18D9/980C D004_            24788                       PEND
 DROP   *,R11
-                                  24809
                                   24810                  TCP_START: id      - Start path data transmission
                                   24811
                                   24812

0003E46 90EF C020/4DE0_      00020 24813              TCPSTART PROC
 USING  *,R11
 003E6A 94FE 8231      00231       24855                       CLEAR TCBFXOFF            Clear stop flag
 003E6E 58E0 B05A/0DEE       03EC4 24862                       ACALL SNDPATHQ            Send any queued path messages
 003E74 1BFF                       24866                       CLEAR R15                 Show good return code
 003E76 18D9/980C D004_            24870                       PEND
 DROP   *,R11
                                   24890                       QLTORG
1AMELIA   RCVTCP -- Process received TCP packet                                                                             Page  106
0Current Usings:  (TCB,R8) (NIT,R12)
0Loc    Object Code    Addr1 Addr2  Stmt Lv Lineno    Source Statement           (Hibal 5, Asmedit 3.3)  HLASM R4.0  2004/03/15 13.11
+___    ______ ____    _____ _____  ____ __ ______    ______ _________
0                                  24928
                                   24929
                                   24930                 RCVTCP - process received TCP packet
                                   24931
                                   24932                   On entry:
                                   24933                     R0  - IP packet length
                                   24934                     R1  - IP packet start address
                                   24935

0000000                00000 00061 24936              RTCPWORK RECORD BEGIN
 000000                            24944  1           RTCPHDR    DS    CL(L'TCPHDR)        Copy of TCP header
 000014                            24945  1           RTCPPLEN   DS    A                   Packet length
 000018                            24946  1           RTCPPADD   DS    A                   Packet start address
 00001C                            24947  1           RTCPDLEN   DS    A                   Packet data length
 000020                            24948  1           RTCPDATA   DS    A                   Packet data start address
 000024                            24949  1           RTCPTCPL   DS    A                   TCP packet length
 000028                            24950  1           RTCPTCPA   DS    A                   Original TCP header address
 00002C                            24951  1           RTCPENDS   DS    A                   Packet end (SEQ+LEN)
 000030                            24952  1           RTCPMSS    DS    F                   MSS value from TCP header
 000034                            24953  1           RTCPPHD    DS    XL12                Pseudo-header work area
 000040                            24954  1           RTCPTEMP   DS    XL32                Work area
 000060 00                         24955  1           RTCPFLAG   FLAG
 RTCPFLAG.RTCPFOUT 80 ONES         24959  1                      FLAG  RTCPFOUT            Processing out-of-seq packet
 000061                00061 00061 24964                       END
-003F34 90EF C020/4DE0_      00020 24974              RCVTCP   PROC  RTCPWORK
 USING  *,R11
 USING  RTCPWORK-(4+52),R9
 003F58 D760 9038 9038 00000 00000 25027                       CLEAR RTCPWORK
                                   25034
                                   25035                         Initial packet processing.  Routine will branch back to
                                   25036                           here to process packets taken off of the out-of-sequence
                                   25037                           queue.
                                   25038
 003F5E                            25039              RTCPNEXT LABEL
 003F5E 9001 904C            00014 25041                       STM   R0,R1,RTCPPLEN      Save packet length and address
 003F62 1851                       25042                       LR    R5,R1               IP header address
 USING  IPHDR,R5                   25043                       WITH  (IPHDR,R5)          ### IPHDR
 003F64 4320 5000            00000 25056                       IC    R2,IPIHL            IP header length
 003F68 5420 BAA0            049F8 25057                       N     R2,=A(15)           Isolate length
 003F6C 8920 0002            00002 25058                       SLL   R2,2                Get length in bytes
 003F70 1A12                       25059                       AR    R1,R2               Get TCP packet start address
 003F72 1B02                       25060                       SR    R0,R2               Get TCP packet length
 003F74 9001 905C            00024 25061                       STM   R0,R1,RTCPTCPL      Save length and address
 003F78 1861                       25062                       LR    R6,R1               TCP header address
 USING  TCPHDR,R6                  25063                       WITH  (TCPHDR,R6)         ### TCPHDR
                                   25076
 003F7A 9180 9098/4710_00060       25077                       IF    ~RTCPFOUT,BEGIN     If not from resequence queue,
 003F82 9002 9078            00040 25092  1                      STM   R0,R2,RTCPTEMP      Save regs
 003F86 D203 906C 500C 00034 0000C 25093  1                      MVC   RTCPPHD(4),IPSRC    Build TCP pseudo-hdr for checksum
 003F8C D203 9070 5010 00038 00010 25094  1                      MVC   RTCPPHD+4(4),IPDST
 003F92 D201 9074 BB40 0003C 04A98 25095  1                      MVC   RTCPPHD+8(2),=Y(IPTCP#)
1AMELIA   RCVTCP -- Process received TCP packet                                                                             Page  107
0Current Usings:  (IPHDR,R5) (TCPHDR,R6) (TCB,R8) (RTCPWORK-(4+52),R9) (*,R11) (NIT,R12)
0Loc    Object Code    Addr1 Addr2  Stmt Lv Lineno    Source Statement           (Hibal 5, Asmedit 3.3)  HLASM R4.0  2004/03/15 13.11
+___    ______ ____    _____ _____  ____ __ ______    ______ _________
0003F98 4000 9076            0003E 25096  1                      STH   R0,RTCPPHD+10
 003F9C 4110 906C/4100_      00034 25097  1                      CHECKSUM RTCPPHD,FINAL=NO
 003FAE 9801 9078            00040 25120  1                      LM    R0,R1,RTCPTEMP      Get TCP len and addr again
 003FB2 58E0 BAA4/0DEE       049FC 25121  1                      CHECKSUM (R1),(R0),(R15)  Compute final checksum
 003FB8 59F0 BAA8/4780_      04A00 25139  1                      IF    (R15,NE,=A(X'FFFF')),BEGIN   If checksum error,
 003FC0 182F                       25155  2                        LR    R2,R15
 003FC2 4110 BB42/4100_      04A9A 25156  2                        SEG   'TCP checksum error  IPSRC=',,NITPRSG  Log message
 003FD4 5810 500C/41F0_      0000C 25173  2                        SEGIP IPSRC
 003FE2 4110 BB5C/4100_      04AB4 25190  2                        SEG   '  '
 003FF4 1812/4100 0004_            25207  2                        SEGHX (R2),4
 004004 1B00/41F0 C4B0_            25231  2                        SEGWR ,
 004010 4100 0001/5E00_      00001 25255  2                        INCR  R0,NITTCPCH         Incr counter
 00401C 47F0 BA4A            049A2 25261  2                        EXIT  RCVTCP              Drop packet
 004020                            25264  1                      END
 004020 9802 9078            00040 25268  1                      LM    R0,R2,RTCPTEMP      Restore regs
 004024                            25269                       END
                                   25273
 004024 4320 600C            0000C 25274                       IC    R2,TCPOFFS          Get TCP header length
 004028 5420 BABC            04A14 25275                       N     R2,=A(X'F0')        Isolate length
 00402C 8820 0002            00002 25276                       SRL   R2,2                Convert to bytes
 004030 5920 BAC0/4740_      04A18 25277                       IF    (R2,LT,L'TCPHDR),RTCPEXIT   Drop packet if invalid
 004038 1B02                       25297                       SR    R0,R2               Get TCP data length
 00403A 4740 BA4A            049A2 25298                       IF    M,RTCPEXIT          Validity check length
 00403E 1A12                       25312                       AR    R1,R2               Get TCP data address
 004040 9001 9054            0001C 25313                       STM   R0,R1,RTCPDLEN      Save data length and address
 004044 5E00 6004            00004 25314                       AL    R0,TCPSEQ           Get end sequence (seq + len)
 004048 9102 600D/47E0_0000D       25315                       IF    TCPFLSYN,'INCR R0'  Account for SYN
 004054 9101 600D/47E0_0000D       25338                       IF    TCPFLFIN,'INCR R0'  Account for FIN
 004060 5000 9064            0002C 25361                       ST    R0,RTCPENDS         Save end sequence number
 004064 4B20 BB5E            04AB6 25362                       SH    R2,=Y(L'TCPHDR)     Get option byte count
 004068 4130 6014            00014 25363                       LA    R3,TCPHDR+L'TCPHDR  Address of option bytes
                                   25364            C          IF    ((R2,GE,4),AND,     If at least 4 option bytes,
 00406C 5920 BAC8/4750_      04A20                                   (@R3,EQ,2),AND,(@R3+1,EQ,4)),BEGIN  and MSS option,
 004084 D201 906A 3002 00032 00002 25411  1                      MVC   RTCPMSS+2(2),@R3+2  Save MSS value
 00408A                            25412                       END
                                   25416
                                   25417                         Make a copy of TCP header (so we can modify it).
                                   25418
 00408A D213 9038 6000 00000 00000 25419                       MVC   RTCPHDR,TCPHDR      Copy header
 004090 4160 9038            00000 25420                       LA    R6,RTCPHDR          Set new base pointer
                                   25421
                                   25422                         Try quick lookup using IP addr hash table
                                   25423
 004094 1B00/BF1C 6000_            25424                       IPHASH IP=IPSRC,LPORT=TCPDST,RPORT=TCPSRC
 0040B8 5880 1000            00000 25438                       L     TCBR,@R1            Get first TCB in hash queue
 0040BC 1288/4780 B198             25439                       WHILE (TCBR,NZ),BEGIN
                                   25455  1         C            IF    ((TCBSTATE,NE,CLOSED),AND,
                                          1         C                  (TCBIPADD,EQ,IPSRC),AND,
                                          1         C                  (TCPSRC,EQ,TCBRPORT+2),AND,
 0040C2 9500 8230/4780_00230              1                            (TCPDST,EQ,TCBLPORT+2)),EXIT
 0040E8 5880 8014            00014 25523  1                      L     TCBR,TCBIPAHQ
 0040EC 47F0 B164            040BC 25524                       END
1AMELIA   RCVTCP -- Process received TCP packet                                                                             Page  108
0Current Usings:  (IPHDR,R5) (TCPHDR,R6) (TCB,R8) (RTCPWORK-(4+52),R9) (*,R11) (NIT,R12)
0Loc    Object Code    Addr1 Addr2  Stmt Lv Lineno    Source Statement           (Hibal 5, Asmedit 3.3)  HLASM R4.0  2004/03/15 13.11
+___    ______ ____    _____ _____  ____ __ ______    ______ _________
0                                  25529
                                   25530                         Look for TCB which matches the remote host and port in
                                   25531                           the packet.  If no TCB is found, send a reset to the
                                   25532                           remote host.
                                   25533
 0040F0 1288/4770 B202             25534                       IF    (TCBR,Z),BEGIN      If quick lookup failed,
 0040F6 1B22                       25548  1                      CLEAR R2                  Clear listen TCB address
 0040F8 4180 C0CC            000CC 25552  1                      LA    TCBR,NITTCBQ-(TCBNEXT-TCB)  Init queue pointer
 0040FC 5880 8004/1288_      00004 25553  1                      WHILE ('LT TCBR,TCBNEXT',NZ),BEGIN
 004106 D503 BAD0 8000_04A28 00000 25571  2                        IF    (TCB,NE,'TCB '),'FAIL "Bad TCB chain"'
 00411A D501 6002 8022_00002 00022 25597  2                        IF    (TCPDST,NE,TCBLPORT+2),NEXT   Skip if no port match
 004124 9500 8230/4780_00230       25618  2                        IF    (TCBSTATE,EQ,CLOSED),NEXT    Skip if dead TCB
                                   25639  2         C              IF    ((TCBIPADD,EQ,IPSRC),AND,     If rmt host match and
                                          2         C                    ((TCBRPORT,Z),OR,               rmt port zero or
 00412C D503 8028 500C_00028 0000C        2                              (TCPSRC,EQ,TCBRPORT+2))),EXIT     rmt port match, exit
 00414A D603 8028 8028_00028 00028 25692  2                        IF    (TCBIPADD,Z),BEGIN   If listen for any host,
 004154 1828                       25708  3                          LR    R2,TCBR              Save TCB address
 004156                            25709  2                        END
 004156 47F0 B1A4            040FC 25713  1                      END
 00415A                            25718                       END
                                   25722
                                   25723                         If no TCB found, return a RESET packet.
                                   25724
 00415A 1288/4770 B20E_            25725                       IF    ((TCBR,Z),AND,(R2,Z)),RTCPRST
                                   25755
                                   25756                         Initialize TCB if opening new connection.
                                   25757
 004166 1288/4780 B21C_            25758                       IF    ((TCBR,Z),OR,(TCBSTATE,EQ,LISTEN)),BEGIN
 004174 9104 600D/4710_0000D       25789  1                      IF    TCPFLRST,RTCPEXIT   If RST set, drop packet
 00417C 9110 600D/4710_0000D       25807  1                      IF    TCPFLACK,RTCPRST    If ACK set, send RST and drop
 004184 9102 600D/47E0_0000D       25825  1                      IF    ~TCPFLSYN,RTCPEXIT  If SYN not set, drop packet
                                   25843  1
                                   25844  1                        If we don't have a TCB then we have a connection to a
                                   25845  1                          server port represented by a dummy TCB.
                                   25846  1
 00418C 1288/4770 B31A             25847  1                      IF    (TCBR,Z),BEGIN
                                   25861  2
                                   25862  2                          Check if host or port connection limits exceeded
                                   25863  2
 004192 1B00                       25864  2                        CLEAR R0                  Port connection counter
 004194 1B11                       25868  2                        CLEAR R1                  Host connection counter
 004196 5880 C0D0            000D0 25872  2                        L     TCBR,NITTCBQ
 00419A 1288/4780 B26C             25873  2                        WHILE (TCBR,NZ),BEGIN
 0041A0 D501 6002 8022_00002 00022 25889  3                          IF    (TCPDST,EQ,TCBLPORT+2),'INCR R0'
 0041AE D503 500C 8028_0000C 00028 25915  3                          IF    (IPSRC,EQ,TCBIPADD),'INCR R1'
 0041BC 5880 8004            00004 25941  3                          L     TCBR,TCBNEXT
 0041C0 47F0 B242            0419A 25942  2                        END
 0041C4 58F2 0078            00078 25947  2                        L     R15,TCBLMAX-TCB(R2)
 0041C8 12FF/4780 B2B0_            25948  2                        IF    ((R15,NZ),AND,(R0,GT,R15)),BEGIN
 0041D4 4110 BB6A/4100_      04AC2 25976  3                          SEGB  'Connect rejected, MAX exceeded for port',,NITPRSG
 0041E6 1F11/BF13 6002_            25994  3                          SEGDC L2:TCPDST
 0041F8 1B00/41F0 C4B0_            26021  3                          SEGWR
 004204 47F0 B9E6            0493E 26045  3                          B     RTCPRST
 004208                            26046  2                        END
1AMELIA   RCVTCP -- Process received TCP packet                                                                             Page  109
0Current Usings:  (IPHDR,R5) (TCPHDR,R6) (TCB,R8) (RTCPWORK-(4+52),R9) (*,R11) (NIT,R12)
0Loc    Object Code    Addr1 Addr2  Stmt Lv Lineno    Source Statement           (Hibal 5, Asmedit 3.3)  HLASM R4.0  2004/03/15 13.11
+___    ______ ____    _____ _____  ____ __ ______    ______ _________
0004208 5910 BADC/47D0_      04A34 26050  2                        IF    (R1,GT,MAXCONN),BEGIN
 004210 4110 BB91/4100_      04AE9 26067  3                          SEGB  'Connect rejected, MAXCONN exceeded for host',,NITPRSG
 004222 5810 500C/41F0_      0000C 26085  3                          SEGIP IPSRC
 004230 1B00/41F0 C4B0_            26102  3                          SEGWR
 00423C 47F0 B9E6            0493E 26126  3                          B     RTCPRST
 004240                            26127  2                        END
                                   26131  2
                                   26132  2                          Build a new TCB to represent the connection.
                                   26133  2
 004240 58E0 BAE0/0DEE       04A38 26134  2                        ACALL NEWTCB              Build new TCB
 004246 1881                       26138  2                        LR    TCBR,R1             Set TCB base
 004248 9680 8231      00231       26139  2                        SET   TCBFSERV            Flag connect to server port listen
 00424C D203 8010 2010 00010 00010 26145  2                        MVC   TCBPATH,TCBPATH-TCB(R2)  Copy path block pointer
 004252 D207 807C 207C 0007C 0007C 26146  2                        MVC   TCBFLOWL(8),TCBFLOWL-TCB(R2)  Copy flow values
 004258 D203 8088 2088 00088 00088 26147  2                        MVC   TCBIDLTM,TCBIDLTM-TCB(R2)     Copy idle timeout value
 00425E D203 8084 BAE4 00084 04A3C 26148  2                        MVC   TCBTMOUT,=A(DEFTMOUT)         Set timeout value
 004264 5810 500C            0000C 26149  2                        L     R1,IPSRC            Get host table entry
 004268 58E0 BAE8/0DEE       04A40 26150  2                        ACALL ADDHOST
 00426E 5010 8030            00030 26154  2                        ST    R1,TCBHSTTB         Save addr in TCB
 004272                            26155  1                      END
                                   26159  1
                                   26160  1                        Initialize TCB fields
                                   26161  1
 004272 D201 8022 6002 00022 00002 26162  1                      MVC   TCBLPORT+2(2),TCPDST  Local port number
 004278 D201 8026 6000 00026 00000 26163  1                      MVC   TCBRPORT+2(2),TCPSRC  Remote port number
 00427E D203 8028 500C 00028 0000C 26164  1                      MVC   TCBIPADD,IPSRC      Remote host address
 004284 D203 8070 9068 00070 00030 26165  1                      MVC   TCBSMSS,RTCPMSS     Set send MSS in TCB
 00428A D203 8038 6004 00038 00004 26166  1                      MVC   TCBIRS,TCPSEQ       Set initial receive sequence no
 004290 5800 6004            00004 26167  1                      L     R0,TCPSEQ           Init RCV.NXT to IRS+1
 004294 5E00 BAC4            04A1C 26168  1                      INCR  R0
 004298 5000 8048            00048 26171  1                      ST    R0,TCBRCVNX
 00429C D203 8060 6004 00060 00004 26172  1                      MVC   TCBSNDWS,TCPSEQ     Init SND.WL1
 0042A2 D201 805E 600E 0005E 0000E 26173  1                      MVC   TCBSNDWN+2(2),TCPWIND  Init send window
 0042A8 9630 8231      00231       26174  1                      SET   TCBFSYN+TCBFWRIT    Flag seq set and write needed
 0042AC 9203 8230      00230       26183  1                      MVI   TCBSTATE,SYNRECVD   Set state to SYN-RECEIVED
 0042B0 B205 819C      0019C       26184  1                      STCK  TCBRPTIM            Set last packet receive time
                                   26185  1
                                   26186  1                        Look up remote host name
                                   26187  1
 0042B4 5810 8028            00028 26188  1                      L     R1,TCBIPADD         IP address
 0042B8 58E0 BAEC/0DEE       04A44 26189  1                      ACALL GETHNAME            Get host name
 0042BE 4770 B386            042DE 26193  1                      IF    Z,BEGIN             If unknown,
 0042C2 4100 0354            00354 26204  2                        LA    R0,L'NSL            Get storage
 0042C6 58E0 BAF0/0DEE       04A48 26205  2                        ACALL GETBUF                for NSL
 USING  NSL,R1                     26209  2                        WITH  (NSL,R1)
 0042CC D747 1000 1000 00000 00000 26222  2                        CLEAR NSLHDR              Clear
 0042D2 D203 1044 8028 00044 00028 26229  2                        MVC   NSLIP,TCBIPADD      Move in IP address
 0042D8 58E0 BAF4/0DEE       04A4C 26230  2                        ACALL NSLOOKUP            Initiate lookup
 DROP   NSL,R1                     26234  1                      END
1AMELIA   RCVTCP -- Process received TCP packet                                                                             Page  110
0Current Usings:  (IPHDR,R5) (TCPHDR,R6) (TCB,R8) (RTCPWORK-(4+52),R9) (*,R11) (NIT,R12)
0Loc    Object Code    Addr1 Addr2  Stmt Lv Lineno    Source Statement           (Hibal 5, Asmedit 3.3)  HLASM R4.0  2004/03/15 13.11
+___    ______ ____    _____ _____  ____ __ ______    ______ _________
0                                  26243  1
                                   26244  1                        Trace packet
                                   26245  1
 0042DE 9180 9098/4710_00060       26246  1                      IF    ~RTCPFOUT,BEGIN     If not old out-of-seq packet,
 0042E6 5800 905C            00024 26261  2                        L     R0,RTCPTCPL         Get TCP length
 0042EA 4110 6000            00000 26262  2                        LA    R1,TCPHDR           Get TCP header address
 0042EE 41F0 0FFE            00FFE 26263  2                        LA    R15,TCBTRRCV        Trace code
 0042F2 58E0 BAF8/0DEE       04A50 26264  2                        ACALL TCPTRACE            Call trace routine
 0042F8                            26268  1                      END
                                   26272  1
                                   26273  1                        Go initiate packet write
                                   26274  1
 0042F8 47F0 B980            048D8 26275  1                      B     RTCPFIN             Go finish up
 0042FC                            26276                       END
-                                  26281
                                   26282                         Packet for existing connection.  Update statistics
                                   26283                          and process packet header and data
                                   26284
 0042FC 9180 9098/4710_00060       26285                       IF    ~RTCPFOUT,BEGIN     If not from out-of-seq queue,
 004304 B205 819C      0019C       26300  1                      STCK  TCBRPTIM            Time of last received packet
 004308 5820 8030            00030 26301  1                      L     R2,TCBHSTTB         Get host table entry
 USING  HSTTABLE,R2                26302  1                      WITH  (HSTTABLE,R2)
 00430C 5800 9064            0002C 26315  1                      L     R0,RTCPENDS         Packet end sequence
 004310 5F00 8048            00048 26316  1                      SL    R0,TCBRCVNX         Minus expected next rcv sequence
                                   26317  1         C            IF    (TCBFSYN,AND,       If receive seq established,
                                          1         C                  (RTCPDLEN,NZ),AND,   and data in packet,
 004314 9120 8231/47E0_00231              1                            (R0,NP)),BEGIN        and end seq before RCV.NXT,
 00432C 4100 0001/5E00_      00001 26358  2                        INCR  R0,TCBRRXMT         Incr retransmit count
 004338 4100 0001/5E00_      00001 26364  2                        INCR  R0,HSTRRXMT         Incr host retransmit count
 004344                            26370  1                      END
 004344 B3F0/B3F0/B3F0_04344 0431A 26374  1                      ELSE  BEGIN               Else not retransmit,
 004348 4100 0001/5E00_      00001 26389  2                        INCR  R0,TCBRPACK         Incr received packet count
 004354 41F0 0001/5EF0_      00001 26395  2                        INCR  R15,HSTRTCP
 004360                            26401  1                      END
 DROP   HSTTABLE,R2                26405  1                      DROP  R2
                                   26412  1
 004360 5800 905C            00024 26413  1                      L     R0,RTCPTCPL         Get TCP length
 004364 5810 9060            00028 26414  1                      L     R1,RTCPTCPA         Get TCP header address
 004368 41F0 0FFE            00FFE 26415  1                      LA    R15,TCBTRRCV        Trace code
 00436C 58E0 BAF8/0DEE       04A50 26416  1                      ACALL TCPTRACE            Call trace routine
 004372                            26420                       END
                                   26426
                                   26427                         Abort connection if a TCP_CLOSE message was received from
                                   26428                         the path over 5 minutes ago.  Cleans up connections when
                                   26429                         Wylbur has closed but the remote process is still sending.
                                   26430
 004372 9120 8232/47E0_00232       26431                       IF    TCBFRCLO,BEGIN      If TCP_CLOSE received from path,
 00437A B205 D000      00000       26446  1                      STCK  @R13                Get time
 00437E 5800 D000            00000 26447  1                      L     R0,@R13             Compute interval
 004382 5F00 8104            00104 26448  1                      SL    R0,TCBCLTIM           since TCP_CLOSE message
 004386 5900 BAFC/47D0_      04A54 26449  1                      IF    (R0,GT,300),BEGIN   If interval gt 5 minutes,
                                   26466  2           **       SEGWR 'Data received after TCP_CLOSE',,NITPRSG
1AMELIA   RCVTCP -- Process received TCP packet                                                                             Page  111
0Current Usings:  (IPHDR,R5) (TCPHDR,R6) (TCB,R8) (RTCPWORK-(4+52),R9) (*,R11) (NIT,R12)
0Loc    Object Code    Addr1 Addr2  Stmt Lv Lineno    Source Statement           (Hibal 5, Asmedit 3.3)  HLASM R4.0  2004/03/15 13.11
+___    ______ ____    _____ _____  ____ __ ______    ______ _________
0                                  26467  2           **       LA    R0,4                Short format requested
                                   26468  2           **       LR    R1,TCBR             TCB address
                                   26469  2           **       LA    R15,NITPRSG         SEGCB
                                   26470  2           **       ACALL FMTTCB              Log TCB info
 00438E 4110 BBBC/4100_      04B14 26471  2                        SETMSG 'DATA RECEIVED AFTER TCP_CLOSE'   Set message text
 004396 58E0 BB00/0DEE       04A58 26475  2                        ACALL ABORTTCB                Abort this connection
 00439C 47F0 BA4A            049A2 26479  2                        B     RTCPEXIT                Exit
 0043A0                            26480  1                      END
 0043A0                            26484                       END
1AMELIA   RCVTCP -- Process received TCP packet                                                                             Page  112
0Current Usings:  (IPHDR,R5) (TCPHDR,R6) (TCB,R8) (RTCPWORK-(4+52),R9) (*,R11) (NIT,R12)
0Loc    Object Code    Addr1 Addr2  Stmt Lv Lineno    Source Statement           (Hibal 5, Asmedit 3.3)  HLASM R4.0  2004/03/15 13.11
+___    ______ ____    _____ _____  ____ __ ______    ______ _________
0                                  26489
                                   26490
                                   26491                      SYN-SENT STATE PROCESSING
                                   26492
                                   26493

00043A0 9502 8230/4770_00230       26494                       IF    (TCBSTATE,EQ,SYNSENT),BEGIN
                                   26512  1
                                   26513  1                        Check the ACK bit.  If the packet contains an unacceptable
                                   26514  1                          ACK then send a RESET and drop the packet.
                                   26515  1
 0043A8 9110 600D/47E0_0000D       26516  1                      IF    TCPFLACK,BEGIN            If ACK set,
                                   26531  2         C              IF    ((TCPACK,LE,TCBISS),OR,   If ACK le ISS  or gt SND.NXT
 0043B0 D503 6008 8034_00008 00034        2                              (TCPACK,GT,TCBSNDNX)),RTCPRST  Send RST and exit
 0043C4                            26569  1                      END
                                   26573  1
                                   26574  1                  If the RST bit is set,
                                   26575  1                    If there is no ACK, drop the packet and return.
                                   26576  1                    If there is an ACK, send an abort message to the path
                                   26577  1                     and delete the TCB.
                                   26578  1
 0043C4 9104 600D/47E0_0000D       26579  1                      IF    TCPFLRST,BEGIN      If RST set,
 0043CC 9110 600D/47E0_0000D       26594  2                        IF    ~TCPFLACK,RTCPEXIT  Exit if no ACK
 0043D4 4110 BBD9/4100_      04B31 26612  2                        SETMSG 'RESET'             Abort reason code
 0043DC 58E0 BB00/0DEE       04A58 26616  2                        ACALL ABORTTCB            Start abort processing
 0043E2 47F0 BA4A            049A2 26620  2                        B     RTCPEXIT            Exit
 0043E6                            26621  1                      END
                                   26625  1
                                   26626  1                  Process the SYN bit.
                                   26627  1
                                   26628  1                    If SYN is not set, exit.
                                   26629  1
                                   26630  1                    Set IRS and RCV.NXT from the packet sequence number.
                                   26631  1
                                   26632  1                    Set the state to SYN-RECEIVED.  Final processing of the packet
                                   26633  1                      and any data in it will be done in the SYN-RECEIVED state
                                   26634  1                      processing.
                                   26635  1
 0043E6 9102 600D/47E0_0000D       26636  1                      IF    ~TCPFLSYN,RTCPEXIT  If SYN not set, exit
 0043EE D603 9068 9068_00030 00030 26654  1                      IF    (RTCPMSS,NZ),BEGIN  If have MSS value
 0043F8 D203 8070 9068 00070 00030 26670  2                        MVC   TCBSMSS,RTCPMSS     Set send MSS in TCB
 0043FE                            26671  1                      END
 0043FE 58E0 BB04/0DEE       04A5C 26675  1                      ACALL CHECKMSS            Check MSS value
 004404 D203 8038 6004 00038 00004 26679  1                      MVC   TCBIRS,TCPSEQ       Set IRS
 00440A 5800 6004            00004 26680  1                      L     R0,TCPSEQ           Init RCV.NXT to IRS+1
 00440E 5E00 BAC4            04A1C 26681  1                      INCR  R0
 004412 5000 8048            00048 26684  1                      ST    R0,TCBRCVNX
 004416 D203 8060 6004 00060 00004 26685  1                      MVC   TCBSNDWS,TCPSEQ     Init SND.WL1
 00441C 9630 8231      00231       26686  1                      SET   TCBFSYN+TCBFWRIT    Flag seq set and write needed
 004420 9203 8230      00230       26695  1                      MVI   TCBSTATE,SYNRECVD   Set state to SYN-RECEIVED
 004424                            26696                       END
1AMELIA   RCVTCP -- Process received TCP packet                                                                             Page  113
0Current Usings:  (IPHDR,R5) (TCPHDR,R6) (TCB,R8) (RTCPWORK-(4+52),R9) (*,R11) (NIT,R12)
0Loc    Object Code    Addr1 Addr2  Stmt Lv Lineno    Source Statement           (Hibal 5, Asmedit 3.3)  HLASM R4.0  2004/03/15 13.11
+___    ______ ____    _____ _____  ____ __ ______    ______ _________
0                                  26701
                                   26702
                                   26703                      SYNCHRONIZED STATE PROCESSING
                                   26704
                                   26705

0                                  26707
                                   26708                         Add TCB to IP hash queue
                                   26709
 004424 9101 8232/4710_00232       26710                       IF    ~TCBFIPHQ,BEGIN     If TCB not on hash queue,
 00442C 9601 8232      00232       26725  1                      SET   TCBFIPHQ            Se flag
 004430 1B00/BF1C 8026_            26731  1                      IPHASH IP=TCBIPADD,LPORT=TCBLPORT+2,RPORT=TCBRPORT+2
 004454 D203 8014 1000 00014 00000 26745  1                      MVC   TCBIPAHQ,@R1        Put TCB at
 00445A 5080 1000            00000 26746  1                      ST    TCBR,@R1              head of queue
 00445E                            26747                       END
                                   26751
                                   26752                         Check the sequence number
                                   26753
                                   26754                         If simple retransmit (RCV.NXT equals end-sequence),
                                   26755                         force ACK write if packet contains data but continue
                                   26756                         processing since packet may contain updated ACK
                                   26757                         field.
                                   26758
                                   26759                         If the packet is completely outside the receive
                                   26760                         window, drop the packet, sending an ACK if RST not
                                   26761                         set in packet.
                                   26762
 00445E 5800 8048            00048 26763                       L     R0,TCBRCVNX         Start of receive window
 004462 5F00 9064            0002C 26764                       SL    R0,RTCPENDS         RCV.NXT - end-sequence
 004466 5810 6004            00004 26765                       L     R1,TCPSEQ           Start sequence number
 00446A 5F10 8048            00048 26766                       SL    R1,TCBRCVNX         Get distance from rcv wnd start
                                   26767            C          IF    ((R0,Z),AND,        If RCV.NXT eq end-sequence and
 00446E 1200/4770 B532_                                              (TCPSEQ,NE,RTCPENDS)),BEGIN   data in packet,
 00447E 9104 600D/4710_0000D       26798  1                      IF    ~TCPFLRST,'SET TCBFWRIT'  Force ACK if no RST
 00448A                            26824                       END
                                   26828            C          ELSEIF ((R0,P),OR,        If RCV.NXT gt last seq,
 00448A B536/B536/47F0_0448A 04472                                   (R1,GT,TCBRCVWN)),BEGIN   or start beyond window,
 00449C 9104 600D/4710_0000D       26869  1                      IF    ~TCPFLRST,'SET TCBFWRIT'  Force ACK write if no RST
 0044A8 47F0 B980            048D8 26895  1                      B     RTCPFIN             Drop packet
 0044AC                            26896                       END
                                   26900
                                   26901                         Check the RST bit, abort connection if set.
                                   26902
 0044AC 9104 600D/47E0_0000D       26903                       IF    TCPFLRST,BEGIN
 0044B4 4110 BBD9/4100_      04B31 26918  1                      SETMSG 'RESET'             Abort reason code
 0044BC 58E0 BB00/0DEE       04A58 26922  1                      ACALL ABORTTCB            Start abort processing
 0044C2 47F0 BA4A            049A2 26926  1                      B     RTCPEXIT            Exit
 0044C6                            26927                       END
1AMELIA   RCVTCP -- Process received TCP packet                                                                             Page  114
0Current Usings:  (IPHDR,R5) (TCPHDR,R6) (TCB,R8) (RTCPWORK-(4+52),R9) (*,R11) (NIT,R12)
0Loc    Object Code    Addr1 Addr2  Stmt Lv Lineno    Source Statement           (Hibal 5, Asmedit 3.3)  HLASM R4.0  2004/03/15 13.11
+___    ______ ____    _____ _____  ____ __ ______    ______ _________
0                                  26931
                                   26932                         Check the SYN bit
                                   26933
                                   26934                         Since we haven't trimmed the packet yet, a packet
                                   26935                         with SYN set may be valid, but we must have TCPSEQ
                                   26936                         equal to IRS.  If we have an invalid SYN, send a
                                   26937                         reset and abort the connection.
                                   26938
 0044C6 9102 600D/47E0_0000D       26939                       IF    (TCPFLSYN,AND,(TCPSEQ,NE,TCBIRS)),BEGIN
 0044D8 58E0 BB08/0DEE       04A60 26971  1                      ACALL SENDRST             Send RST packet
 0044DE 4110 BB60/4100_      04AB8 26975  1                      SETMSG 'HOST ERROR'        Set abort code
 0044E6 58E0 BB00/0DEE       04A58 26979  1                      ACALL ABORTTCB            Start abort processing
 0044EC 47F0 BA4A            049A2 26983  1                      B     RTCPEXIT            Exit
 0044F0                            26984                       END
                                   26988
                                   26989                         Process the ACK field
                                   26990
                                   26991                          If no ACK, drop the packet
                                   26992
                                   26993                          If state is SYN-RECEIVED,
                                   26994                           If valid ACK (which will ACK our SYN), set state to
                                   26995                            ESTABLISHED and send TCP_CONNECT message over path.
                                   26996                           If invalid ACK, send RST and drop packet.
                                   26997
 0044F0 9110 600D/47E0_0000D       26998                       IF    ~TCPFLACK,RTCPFIN   Drop packet if no ACK
 0044F8 9503 8230/4770_00230       27016                       IF    (TCBSTATE,EQ,SYNRECVD),BEGIN
                                   27034  1         C            IF    ((TCPACK,GT,TCBSNDUN),AND,  If valid ACK
 004500 D503 6008 8050_00008 00050        1                            (TCPACK,LE,TCBSNDNX)),BEGIN
 004514 9204 8230      00230       27069  2                        MVI   TCBSTATE,ESTABLSH   Set state to ESTABLISHED
 004518 9604 8232      00232       27070  2                        SET   TCBFKEEP            Enable keepalive
 00451C 9680 8232      00232       27076  2                        SET   TCBFCONN            Flag path message sent
 004520 4110 BA70/4100_      049C8 27082  2                        SEG   LA:=CL16'TCP_CONNECT:',16,NITPSG  Send TCP_CONNECT msg
 004532 4110 800C/4100_      0000C 27109  2                        SEG   TCBUID              User connection id
 004544 4110 8008/4100_      00008 27136  2                        SEG   TCBID               Our connection id
 004556 4110 C034/4100_      00034 27163  2                        SEG   NITIP               Our IP address
 004568 4110 8020/4100_      00020 27190  2                        SEG   TCBLPORT            Local port number
 00457A 4110 8028/4100_      00028 27217  2                        SEG   TCBIPADD            Remote host IP address
 00458C 4110 8024/4100_      00024 27244  2                        SEG   TCBRPORT            Remote port number
 00459E 4110 C33C/4100_      0033C 27271  2                        SEG   NITZERO,4           Spare word
 0045B0 58F0 8030            00030 27300  2                        L     R15,TCBHSTTB        Get host table entry
 0045B4 5820 F058/4130_      00058 27301  2                        WITH  (HSTTABLE,R15),'L R2,HSTNMLEN; LA R3,HSTNAME'
 USING  HSTTABLE,R15
 DROP   HSTTABLE,R15
 0045BC 1222/4770 B67C             27326  2                        IF    (R2,Z),BEGIN        If no host name,
 0045C2 5810 8028            00028 27340  3                          L     R1,TCBIPADD         IP address
 0045C6 41F0 907C            00044 27341  3                          LA    R15,RTCPTEMP+4      Work area
 0045CA 58E0 BB0C/0DEE       04A64 27342  3                          ACALL FMTIP               Format IP address
 0045D0 1820                       27346  3                          LR    R2,R0               Save length
 0045D2 1831                       27347  3                          LR    R3,R1                and address
 0045D4                            27348  2                        END
 0045D4 5020 9078            00040 27352  2                        ST    R2,RTCPTEMP         Name length
 0045D8 4110 9078/4100_      00040 27353  2                        SEG   RTCPTEMP,4          Add length to path message
 0045EA 1813/1802/41F0_            27382  2                        SEG   (R3),(R2)           Add host id text to message
 0045F8 58E0 BB10/0DEE       04A68 27407  2                        ACALL SENDPATH            Send path message
1AMELIA   RCVTCP -- Process received TCP packet                                                                             Page  115
0Current Usings:  (IPHDR,R5) (TCPHDR,R6) (TCB,R8) (RTCPWORK-(4+52),R9) (*,R11) (NIT,R12)
0Loc    Object Code    Addr1 Addr2  Stmt Lv Lineno    Source Statement           (Hibal 5, Asmedit 3.3)  HLASM R4.0  2004/03/15 13.11
+___    ______ ____    _____ _____  ____ __ ______    ______ _________
0                                  27411  2
                                   27412  2                          Update port statistics
                                   27413  2
 0045FE 5820 8030            00030 27414  2                        L     R2,TCBHSTTB         Host table address
 USING  HSTTABLE,R2                27415  2                        WITH  (HSTTABLE,R2)
 004602 9180 8231/47E0_00231       27428  2                        IF    TCBFSERV,BEGIN      If server port connection,
 00460A 5800 8020            00020 27443  3                          L     R0,TCBLPORT         Local port number
 00460E 4110 2050            00050 27444  3                          LA    R1,HSTRTCNT         Host statistics queue head
 004612 58E0 BB14/0DEE       04A6C 27445  3                          ACALL COUNTTCP            Update host port statistics
 004618 5800 8020            00020 27449  3                          L     R0,TCBLPORT         Port number
 00461C 4110 C1D8            001D8 27450  3                          LA    R1,NITRTCNT         Global statistics queue head
 004620 58E0 BB14/0DEE       04A6C 27451  3                          ACALL COUNTTCP            Update global port statistics
 004626                            27455  2                        END
 004626 B6D2/47F0 B6FC 04626 04608 27459  2                        ELSE  BEGIN               Else not server port
 00462A 5810 8024            00024 27470  3                          L     R1,TCBRPORT         Get remote port number
 00462E 58E0 BB18/0DEE       04A70 27471  3                          ACALL GETTPORT            Check if have port name
 004634 4780 B6FC            04654 27475  3                          IF    Z,EXIT              Skip counting if not
 004638 5800 8024            00024 27489  3                          L     R0,TCBRPORT         Update
 00463C 4110 C1DC            001DC 27490  3                          LA    R1,NITSTCNT           global
 004640 58E0 BB14/0DEE       04A6C 27491  3                          ACALL COUNTTCP                connection counter
 004646 5800 8024            00024 27495  3                          L     R0,TCBRPORT         Update
 00464A 4110 2054            00054 27496  3                          LA    R1,HSTSTCNT           host
 00464E 58E0 BB14/0DEE       04A6C 27497  3                          ACALL COUNTTCP                 connection counter
 004654                            27501  2                        END
 DROP   HSTTABLE,R2                27505  2                        DROP  R2
                                   27512  2           **-
                                   27513  2           **-       Write message to log
                                   27514  2           **-
                                   27515  2           **       SEG   'TCP ID=',,NITPRSG  Put message in log
                                   27516  2           **       SEGDC TCBID
                                   27517  2           **       SEG   ' Connect  Port='
                                   27518  2           **       SEGDC TCBLPORT
                                   27519  2           **       L     R1,TCBLPORT         Add port info
                                   27520  2           **       ACALL GETTPORT
                                   27521  2           **       IF    NZ,BEGIN
                                   27522  2           **       LR    R2,R0
                                   27523  2           **       LR    R3,R1
                                   27524  2           **       SEG   ' ('
                                   27525  2           **       SEGT  (R3),(R2)
                                   27526  2           **       SEGB  ')'
                                   27527  2           **       END
                                   27528  2           **       SEG   ' Host='
                                   27529  2           **       L     R15,TCBHSTTB
                                   27530  2           **       WITH  (HSTTABLE,R15),'L R2,HSTNMLEN; LA R3,HSTNAME'
                                   27531  2           **       IF    (R2,NZ),BEGIN
                                   27532  2           **       SEGTB (R3),(R2)
                                   27533  2           **       END
                                   27534  2           **       SEGIP TCBIPADD
                                   27535  2           **       SEG   ' ('
                                   27536  2           **       SEGDC TCBRPORT
                                   27537  2           **       SEGWR ')'
                                   27538  2           **
 004654                            27539  1                      END
                                   27545  1
1AMELIA   RCVTCP -- Process received TCP packet                                                                             Page  116
0Current Usings:  (IPHDR,R5) (TCPHDR,R6) (TCB,R8) (RTCPWORK-(4+52),R9) (*,R11) (NIT,R12)
0Loc    Object Code    Addr1 Addr2  Stmt Lv Lineno    Source Statement           (Hibal 5, Asmedit 3.3)  HLASM R4.0  2004/03/15 13.11
+___    ______ ____    _____ _____  ____ __ ______    ______ _________
0004654 B9E6/B9E6      04654 04508 27546  1                      ELSE  RTCPRST             Else not valid ACK, send RST
 004654                            27553                       END
                                   27557
                                   27558                         If invalid ACK, drop packet and send ACK.
                                   27559
 004654 D503 6008 8054_00008 00054 27560                       IF    (TCPACK,GT,TCBSNDNX),BEGIN  If ACK for data not sent,
 00465E 9610 8231      00231       27578  1                      SET   TCBFWRIT            Force write of ACK packet
 004662 47F0 B980            048D8 27584  1                      B     RTCPFIN             Finish up
 004666                            27585                       END
                                   27589
                                   27590                         If good ACK, update SND.UNA and send window.
                                   27591
 004666 D503 6008 8050_00008 00050 27592                       IF    (TCPACK,GE,TCBSNDUN),BEGIN   If good ACK,
 004670 5800 8074            00074 27610  1                      L     R0,TCBCWIND                  Update congestion window
 004674 5A00 8070            00070 27611  1                      A     R0,TCBSMSS
 004678 5000 8074            00074 27612  1                      ST    R0,TCBCWIND
 00467C 9200 8074      00074       27613  1                      MVI   TCBCWIND,0                   Prevent overflow
 004680 D203 8050 6008 00050 00008 27614  1                      MVC   TCBSNDUN,TCPACK              Update SND.UNA
 004686 5800 6004            00004 27615  1                      L     R0,TCPSEQ           If TCPSEQ gt seq of last updt or
 00468A 5F00 8060            00060 27616  1                      SL    R0,TCBSNDWS            (TCPSEQ eq seq of last and
                                   27617  1         C            IF    ((R0,P),OR,             TCPACK ge ack of last,
 00468E 1200/4720 B74C_                   1                            ((R0,Z),AND,(TCPACK,GE,TCBSNDWA))),BEGIN
 0046A4 D201 805E 600E 0005E 0000E 27661  2                        MVC   TCBSNDWN+2(2),TCPWIND     Update send window
 0046AA D203 8060 6004 00060 00004 27662  2                        MVC   TCBSNDWS,TCPSEQ           Update seq of update packet
 0046B0 D203 8064 6008 00064 00008 27663  2                        MVC   TCBSNDWA,TCPACK           Update ack of update packet
 0046B6 D203 8068 C344 00068 00344 27664  2                        MVC   TCBSNDWT,NITCLOCK         Update time stamp
 0046BC                            27665  1                      END
 0046BC                            27669                       END
                                   27673
                                   27674                         If we have an out of sequence packet containing data, put
                                   27675                           it on the out-of-sequence queue and exit.
                                   27676
 0046BC 5800 6004            00004 27677                       L     R0,TCPSEQ           Get SEQ - RCV.NXT
 0046C0 5F00 8048            00048 27678                       SL    R0,TCBRCVNX
 0046C4 1200/47D0 B7E0             27679                       IF    (R0,P),BEGIN        If SEQ gt RCV.NXT,
 0046CA D503 9064 6004_0002C 00004 27693  1                      IF    (RTCPENDS,GT,TCPSEQ),BEGIN  If data in packet,
 0046D4 4120 80B8            000B8 27711  2                        LA    R2,TCBOUTSQ-(TCBQNEXT-TCBQHDR) Init queue pointer
 USING  TCBQHDR,R2                 27712  2                        WITH  (TCBQHDR,R2)
 0046D8                            27725  2                        LOOP  BEGIN               Out-of-seq queue search loop
 0046D8 1832                       27731  3                          LR    R3,R2               Save prev entry pointer
 0046DA BF2F 2000            00000 27732  3                          L4    R2,TCBQNEXT         Chain to next entry
 0046DE 4780 B79C            046F4 27734  3                          IF    Z,EXIT              Exit if end of queue
 0046E2 5800 6004            00004 27748  3                          L     R0,TCPSEQ           If new seq gt packet sequence
 0046E6 5F00 2008            00008 27749  3                          SL    R0,TCBQSEQ            exit, new packet will be
 0046EA 1200/4740 B79C             27750  3                          IF    (R0,M),EXIT             inserted before it in queue
 0046F0 47F0 B780            046D8 27767  2                        END
 0046F4 4100 000C            0000C 27772  2                        LA    R0,L'TCBQHDR        Queue header length
 0046F8 5A00 904C            00014 27773  2                        A     R0,RTCPPLEN         Add packet length
 0046FC 58E0 BB1C/0DEE       04A74 27774  2                        ACALL GETCORE             Get storage
 004702 5013 0000            00000 27778  2                        ST    R1,TCBQNEXT-TCBQHDR(R3)  Chain new to previous
 004706 5021 0000            00000 27779  2                        ST    R2,TCBQNEXT-TCBQHDR(R1)  Chain next to new
 00470A 1821                       27780  2                        LR    R2,R1               New TCBQHDR base
 00470C D203 2008 6004 00008 00004 27781  2                        MVC   TCBQSEQ,TCPSEQ      Packet start sequence number
 004712 D203 2004 904C 00004 00014 27782  2                        MVC   TCBQLEN,RTCPPLEN    Packet length
1AMELIA   RCVTCP -- Process received TCP packet                                                                             Page  117
0Current Usings:  (TCBQHDR,R2) (IPHDR,R5) (TCPHDR,R6) (TCB,R8) (RTCPWORK-(4+52),R9) (*,R11) (NIT,R12)
0Loc    Object Code    Addr1 Addr2  Stmt Lv Lineno    Source Statement           (Hibal 5, Asmedit 3.3)  HLASM R4.0  2004/03/15 13.11
+___    ______ ____    _____ _____  ____ __ ______    ______ _________
0004718 41E0 200C/58F0_      0000C 27783  2                        MOVEL TCBQDATA,L:RTCPPADD,L:RTCPPLEN  Copy packet
                                   27803  2
 004728 4100 0001/5E00_      00001 27804  2                        INCR  R0,NITTCPOS         Incr counter
                                   27810  2           **       SEG   'Out of sequence packet received  IPSRC=',,NITPRSG
                                   27811  2           **       SEGIP IPSRC
                                   27812  2           **       SEGWR ,
 DROP   TCBQHDR,R2                 27813  1                      END
 004734 47F0 B980            048D8 27822  1                      B     RTCPFIN                         Finish up
 004738                            27823                       END
                                   27827
                                   27828                         Check if our FIN has been acked.
                                   27829
                                   27830            C          IF    ((TCBSTATE,EQ,FINWAIT1),AND,  If state is FIN-WAIT-1,
 004738 9505 8230/4770_00230                                         (TCBSNDUN,EQ,TCBSNDNX)),BEGIN  and our FIN is acked,
 00474A 9206 8230      00230       27865  1                      MVI   TCBSTATE,FINWAIT2             Set state to FIN-WAIT-2
 00474E                            27866                       END
                                   27870
                                   27871            C          IF    ((TCBSTATE,EQ,CLOSING),AND,   If state is CLOSING,
 00474E 9508 8230/4770_00230                                         (TCBSNDUN,EQ,TCBSNDNX)),BEGIN  and our FIN is acked,
 004760 920A 8230      00230       27906  1                      MVI   TCBSTATE,TIMEWAIT             Set state to TIME-WAIT
 004764 58E0 BB20/0DEE       04A78 27907  1                      ACALL CLOSETCB                      Go send TCP_CLOSE
 00476A                            27911                       END
                                   27915
                                   27916            C          IF    ((TCBSTATE,EQ,LASTACK),AND,   If state is LAST-ACK,
 00476A 9509 8230/4770_00230                                         (TCBSNDUN,EQ,TCBSNDNX)),BEGIN  and our FIN is acked,
 00477C 9200 8230      00230       27951  1                      MVI   TCBSTATE,CLOSED               Mark TCB closed
 004780 58E0 BB20/0DEE       04A78 27952  1                      ACALL CLOSETCB                      Go send TCP_CLOSE
 004786 47F0 BA4A            049A2 27956  1                      B     RTCPEXIT                      Exit
 00478A                            27957                       END
                                   27961
                                   27962                         Ignore packet data if our window is closed
                                   27963
 00478A D603 804C 804C_0004C 0004C 27964                       IF    (TCBRCVWN,Z),BEGIN  If zero window,
 004794 9610 8231      00231       27980  1                      SET   TCBFWRIT            Force ACK packet
 004798 47F0 B980            048D8 27986  1                      B     RTCPFIN             Go finish up
 00479C                            27987                       END
                                   27991
                                   27992                         Trim duplicate data from packet.
                                   27993
 00479C 5820 9058            00020 27994                       L     R2,RTCPDATA         Data start address
 0047A0 5830 9054            0001C 27995                       L     R3,RTCPDLEN         Data byte count
 0047A4 58F0 8048            00048 27996                       L     R15,TCBRCVNX        Compute duplicate
 0047A8 5FF0 6004            00004 27997                       SL    R15,TCPSEQ            sequence count
 0047AC 9102 600D/47E0_0000D       27998                       IF    TCPFLSYN,'DECR  R15'  If SYN, decr dup data count
 0047B6 12FF/47D0 B868             28020                       IF    (R15,P),BEGIN       If have data already received,
 0047BC 1A2F                       28034  1                      AR    R2,R15              Update data start address
 0047BE 1B3F                       28035  1                      SR    R3,R15              Update data byte count
 0047C0                            28036                       END
                                   28040
                                   28041                         Process the segment text (data bytes or FIN).
                                   28042
                                   28043            C          IF    ((TCBSTATE,EQ,ESTABLSH),OR,
                                                    C                (TCBSTATE,EQ,FINWAIT1),OR,
 0047C0 9504 8230/4780_00230                                         (TCBSTATE,EQ,FINWAIT2)),BEGIN
1AMELIA   RCVTCP -- Process received TCP packet                                                                             Page  118
0Current Usings:  (IPHDR,R5) (TCPHDR,R6) (TCB,R8) (RTCPWORK-(4+52),R9) (*,R11) (NIT,R12)
0Loc    Object Code    Addr1 Addr2  Stmt Lv Lineno    Source Statement           (Hibal 5, Asmedit 3.3)  HLASM R4.0  2004/03/15 13.11
+___    ______ ____    _____ _____  ____ __ ______    ______ _________
00047D8 D503 9064 8048_0002C 00048 28093  1                      IF    (RTCPENDS,GT,TCBRCVNX),BEGIN  If new RCV.NXT,
 0047E2 D203 8048 9064 00048 0002C 28111  2                        MVC   TCBRCVNX,RTCPENDS             Set new value
 0047E8                            28112  1                      END
                                   28116  1
                                   28117  1                        If have data, update trace and send path message
                                   28118  1
 0047E8 5930 BB24/47D0_      04A7C 28119  1                      IF    (R3,GT,MAXTCPLN),BEGIN  If over max data length,
 0047F0 58E0 BB08/0DEE       04A60 28136  2                        ACALL SENDRST                 Send RST
 0047F6 4110 BBDE/4100_      04B36 28140  2                        SETMSG 'TCP DATA LENGTH ERROR'
 0047FE 58E0 BB00/0DEE       04A58 28144  2                        ACALL ABORTTCB
 004804 47F0 BA4A            049A2 28148  2                        B     RTCPEXIT
 004808                            28149  1                      END
                                   28153  1
 004808 1233/47D0 B924             28154  1                      IF    (R3,P),BEGIN        If have data bytes,
 00480E D207 81A4 819C 001A4 0019C 28168  2                        MVC   TCBRDATT,TCBRPTIM   Time stamp last received data
 004814 5030 81AC            001AC 28169  2                        ST    R3,TCBRDATL         Save received data length
 004818 1813                       28170  2                        LR    R1,R3               Copy length
 00481A 5910 BB28/47D0_      04A80 28171  2                        CEIL  R1,L'TCBRDATA       Truncate to trace area length
 004826 0610/4410 BBF4_            28190  2                        DEX   R1,'MVC TCBRDATA(0),@R2'  Move data to trace area
                                   28209  2
 00482C 58F0 8030            00030 28210  2                        L     R15,TCBHSTTB        Update host received byte count
 USING  HSTTABLE,R15               28211  2                        WITH  (HSTTABLE,R15)
 004830 1803                       28224  2                        LR    R0,R3
 004832 5A00 F03C            0003C 28225  2                        A     R0,HSTRTCPB
 004836 5000 F03C            0003C 28226  2                        ST    R0,HSTRTCPB
 DROP   HSTTABLE,R15               28227  2                        DROP  R15
                                   28234  2
 00483A 1803                       28235  2                        LR    R0,R3
 00483C 5A00 80DC            000DC 28236  2                        A     R0,TCBRBYTE         Update TCB received byte count
 004840 5000 80DC            000DC 28237  2                        ST    R0,TCBRBYTE
                                   28238  2
 004844 4110 BA80/4100_      049D8 28239  2                        SEG   LA:=CL16'TCP_DATA:',16,NITPSG   Send TCP_DATA msg
 004856 4110 800C/4100_      0000C 28266  2                        SEG   TCBUID              User connection id
 004868 1812/1803/41F0_            28293  2                        SEG   (R2),(R3)           Add data
 004876 58E0 BB10/0DEE       04A68 28318  2                        ACALL SENDPATH            Send to path
 00487C                            28322  1                      END
                                   28328  1
                                   28329  1                        Process FIN flag
                                   28330  1
 00487C 9101 600D/47E0_0000D       28331  1                      IF    TCPFLFIN,BEGIN      If FIN set,
 004884 4110 BA90/4100_      049E8 28346  2                        SEG   LA:=CL16'TCP_EOF:',16,NITPSG   Format TCP_EOF msg
 004896 4110 800C/4100_      0000C 28373  2                        SEG   TCBUID
 0048A8 58E0 BB10/0DEE       04A68 28400  2                        ACALL SENDPATH            Send message over path
                                   28404  2
 0048AE 9504 8230/4770_00230       28405  2                        IF    (TCBSTATE,EQ,ESTABLSH),BEGIN  If ESTABLISHED state,
 0048B6 9207 8230      00230       28423  3                          MVI   TCBSTATE,CLOSWAIT             Set state to CLOSE-WAIT
 0048BA                            28424  2                        END
 0048BA 9505 8230/4770_00230       28428  2                        IF    (TCBSTATE,EQ,FINWAIT1),BEGIN  If state is FIN-WAIT-1,
 0048C2 9208 8230      00230       28446  3                          MVI   TCBSTATE,CLOSING              Set state to closing
 0048C6                            28447  2                        END
 0048C6 9506 8230/4770_00230       28451  2                        IF    (TCBSTATE,EQ,FINWAIT2),BEGIN  If state is FIN-WAIT-2,
 0048CE 920A 8230      00230       28469  3                          MVI   TCBSTATE,TIMEWAIT             Set state to TIME-WAIT
 0048D2 58E0 BB20/0DEE       04A78 28470  3                          ACALL CLOSETCB                      Send TCP_CLOSE msg
 0048D8                            28474  2                        END
1AMELIA   RCVTCP -- Process received TCP packet                                                                             Page  119
0Current Usings:  (IPHDR,R5) (TCPHDR,R6) (TCB,R8) (RTCPWORK-(4+52),R9) (*,R11) (NIT,R12)
0Loc    Object Code    Addr1 Addr2  Stmt Lv Lineno    Source Statement           (Hibal 5, Asmedit 3.3)  HLASM R4.0  2004/03/15 13.11
+___    ______ ____    _____ _____  ____ __ ______    ______ _________
00048D8                            28478  1                      END
 0048D8                            28482                       END
-                                  28487
                                   28488                   RTCPFIN -- Finish up receive packet processing.
                                   28489
                                   28490                   If we were processing a packet from the out-of-sequence queue,
                                   28491                     remove it from the queue.
                                   28492
 0048D8 9180 9098/47E0_00060       28493              RTCPFIN  IF    RTCPFOUT,BEGIN      If out-of-seq packet,
 0048E0 5810 80B8            000B8 28509  1                      L     R1,TCBOUTSQ         Get first packet from queue
 0048E4 D203 80B8 1000 000B8 00000 28510  1                      MVC   TCBOUTSQ,TCBQNEXT-TCBQHDR(R1)  Dequeue it
 0048EA 58E0 BB2C/0DEE       04A84 28511  1                      ACALL FREECORE                       Free memory
 0048F0 9610 8231      00231       28515  1                      SET   TCBFWRIT            Force ACK write
 0048F4                            28521                       END
                                   28525
                                   28526                         Check for any out-of-sequence packets that can now be
                                   28527                           processed.
                                   28528
 0048F4 D603 80B8 80B8_000B8 000B8 28529                       IF    (TCBOUTSQ,NZ),BEGIN  If have out-of-sequence queue,
 0048FE 5820 80B8            000B8 28545  1                      L     R2,TCBOUTSQ
 USING  TCBQHDR,R2                 28546  1                      WITH  (TCBQHDR,R2)
 004902 5800 8048            00048 28559  1                      L     R0,TCBRCVNX         Next receive sequence
 004906 5F00 2008            00008 28560  1                      SL    R0,TCBQSEQ            minus first sequence of packet
 00490A 1200/4740 B9C8             28561  1                      IF    (R0,NM),BEGIN       If next ge packet start,
 004910 5800 2004            00004 28575  2                        L     R0,TCBQLEN          Get packet length
 004914 4110 200C            0000C 28576  2                        LA    R1,TCBQDATA         Packet address
 004918 9680 9098      00060       28577  2                        SET   RTCPFOUT            Flag processing out-of-seq
 00491C 47F0 B006            03F5E 28583  2                        B     RTCPNEXT            Go process packet
 004920                            28584  1                      END
 DROP   TCBQHDR,R2                 28588                       END
                                   28597
                                   28598                         This call will initiate any needed packet write.
                                   28599
 004920 58E0 BB30/0DEE       04A88 28600                       ACALL SENDTCP
                                   28604
                                   28605                         If in TIME-WAIT state now, set final timer for TCB delete.
                                   28606
 004926 950A 8230/4770_00230       28607                       IF    (TCBSTATE,EQ,TIMEWAIT),BEGIN  If state is TIME-WAIT
 00492E D203 80A8 BB34 000A8 04A8C 28625  1                      MVC   TCBTIMER,=A(30)               Set timer
 004934 D203 80AC BB38 000AC 04A90 28626  1                      MVC   TCBTMXIT,=A(ENDTCB)           Set timer routine
 00493A                            28627                       END
                                   28631
 00493A 47F0 BA4A            049A2 28632                       B     RTCPEXIT            Return
-                                  28634
                                   28635                   RCVTCRST -- Send reset packet using information in the current
                                   28636                                TCP packet and return to caller.
                                   28637
000493E 9104 600D/4710_0000D       28639              RTCPRST  IF    TCPFLRST,RTCPEXIT   Exit if RST in packet
 004946 4800 6000            00000 28658                       LH    R0,TCPSRC           Swap SRC and DEST ports
1AMELIA   RCVTCP -- Process received TCP packet                                                                             Page  120
0Current Usings:  (IPHDR,R5) (TCPHDR,R6) (TCB,R8) (RTCPWORK-(4+52),R9) (*,R11) (NIT,R12)
0Loc    Object Code    Addr1 Addr2  Stmt Lv Lineno    Source Statement           (Hibal 5, Asmedit 3.3)  HLASM R4.0  2004/03/15 13.11
+___    ______ ____    _____ _____  ____ __ ______    ______ _________
000494A D201 6000 6002 00000 00002 28659                       MVC   TCPSRC,TCPDST
 004950 4000 6002            00002 28660                       STH   R0,TCPDST
 004954 9110 600D/47E0_0000D       28661                       IF    TCPFLACK,BEGIN      If ACK set in packet,
 00495C D203 6004 6008 00004 00008 28676  1                      MVC   TCPSEQ,TCPACK       Set SEQ to ACK
 004962 D703 6008 6008 00008 00008 28677  1                      CLEAR TCPACK              Clear ACK
 004968 9200 600D      0000D       28684  1                      CLEAR TCPFLAGS            Clear flags
 00496C                            28691                       END
 00496C BA18/47F0 BA2C 0496C 0495A 28695                       ELSE  BEGIN               Else if ACK not set,
 004970 D703 6004 6004 00004 00004 28706  1                      CLEAR TCPSEQ              Clear sequence number
 004976 D203 6008 9064 00008 0002C 28713  1                      MVC   TCPACK,RTCPENDS     Set ACK to SEQ+LEN
 00497C 9200 600D      0000D       28714  1                      CLEAR TCPFLAGS            Clear flags
 004980 9610 600D      0000D       28721  1                      SET   TCPFLACK            Set ACK flag
 004984                            28727                       END
 004984 9604 600D      0000D       28731                       SET   TCPFLRST            Set RST in packet
 004988 9250 600C      0000C       28737                       MVI   TCPOFFS,X'50'       Set header length
 00498C D701 6012 6012 00012 00012 28738                       CLEAR TCPUP               Clear urgent pointer
 004992 1816/4100 0014             28745                       SETMSG TCPHDR              Set up header len and addr
 004998 58F0 500C            0000C 28759                       L     R15,IPSRC           Get IP address
 00499C 58E0 BB3C/0DEE       04A94 28760                       ACALL XMITTCP             Send packet
                                   28764
 0049A2 18D9/980C D004_            28765              RTCPEXIT PEND
 DROP   TCPHDR,R6
 DROP   IPHDR,R5
 DROP   RTCPWORK-(4+52),R9
 DROP   *,R11
                                   28801                       QLTORG
1AMELIA   SENDTCP - Send TCP packet                                                                                         Page  121
0Current Usings:  (TCB,R8) (NIT,R12)
0Loc    Object Code    Addr1 Addr2  Stmt Lv Lineno    Source Statement           (Hibal 5, Asmedit 3.3)  HLASM R4.0  2004/03/15 13.11
+___    ______ ____    _____ _____  ____ __ ______    ______ _________
0                                  28868
                                   28869
                                   28870                 SENDTCP -- Send TCP packet.
                                   28871
                                   28872                  Updates send queue and receive window.  Initiates any needed
                                   28873                    packet write.
                                   28874
                                   28875                  Called in the following situations:
                                   28876                    -  After a received packet has been processed
                                   28877                    -  After a transmit timeout
                                   28878                    -  After receiving data or control from user path
                                   28879                    -  After full path q cleared, to update receive window
                                   28880                    -  After keepalive time interval has expired
                                   28881
                                   28882                  Register use in routine:
                                   28883                      R7  - TCB pointer (TCBR)
                                   28884                      R6  - New TCP header pointer
                                   28885                      R5  - Send window
                                   28886                      R4  - Output buffer pointer
                                   28887

0000000                00000 005C8 28888              STCPWORK RECORD BEGIN
 000000                            28896  1           STCPHDR    DS    CL(L'TCPHDR)        TCP header work area
 000014                            28897  1           STCPDATA   DS    CL(MAXTCPLN)        TCP data work area
 0005C8                005C8 005C8 28898                       END
                                   28907
 004B52 90EF C020/4DE0_      00020 28908              SENDTCP  PROC  STCPWORK
 USING  *,R11
 USING  STCPWORK-(4+52),R9
 004B76 9500 8230/4780_00230       28961                       IF    (TCBSTATE,EQ,CLOSED),EXIT  Return if closed
                                   28982
                                   28983                         If we are retransmitting, exit now without sending any
                                   28984                         packet if this is not a timeout call and no data has
                                   28985                         been acked.
                                   28986
                                   28987            C          IF    (TCBFRXMT,AND,
                                                    C                ~TCBFTMO,AND,
 004B7E 9104 8231/47E0_00231                                         (TCBRXSEQ,EQ,TCBSNDUN)),SENDTCPX
                                   29034
                                   29035                         Update retransmit timeout information
                                   29036
                                   29037            C          IF    ((TCBXSEQ,NZ),AND,  If have timed xmit sequence,
 004B98 D603 808C 808C_0008C 0008C                                   (TCBXSEQ,LT,TCBSNDUN)),BEGIN  and sequence acked
 004BAC D703 808C 808C 0008C 0008C 29070  1                      CLEAR TCBXSEQ             Reset timed sequence field
 004BB2 D703 80A8 80A8 000A8 000A8 29077  1                      CLEAR TCBTIMER            Reset timer
 004BB8 9104 8231/4710_00231       29084  1                      IF    ~TCBFRXMT,BEGIN     If not retransmitting,
 004BC0 58E0 B592/0DEE       05108 29099  2                        ACALL GETSRTT             Update SRTT
 004BC6                            29103  1                      END
 004BC6                            29107                       END
                                   29111
 004BC6 9108 8231/4710_00231       29112                       IF    ~TCBFTMO,BEGIN      If not timeout call,
 004BCE 9801 809C            0009C 29127  1                      LM    R0,R1,TCBSRTT       Get SRTT
 004BD2 8D00 0001            00001 29128  1                      SLDL  R0,1                Re-xmit time = 2*SRTT
1AMELIA   SENDTCP - Send TCP packet                                                                                         Page  122
0Current Usings:  (TCB,R8) (STCPWORK-(4+52),R9) (*,R11) (NIT,R12)
0Loc    Object Code    Addr1 Addr2  Stmt Lv Lineno    Source Statement           (Hibal 5, Asmedit 3.3)  HLASM R4.0  2004/03/15 13.11
+___    ______ ____    _____ _____  ____ __ ______    ______ _________
0004BD6 1211/47B0 B06A_            29129  1                      IF    (R1,M),'INCR R0'    Round up
 004BE0 5900 B59A/47B0_      05110 29151  1                      IF    (R0,LT,MINRXTIM),'LA R0,MINRXTIM'  Raise to min value
 004BEC 5900 B59E/47D0_      05114 29174  1                      CEIL  R0,MAXRXTIM                        Reduce to max
 004BF8 5000 8098            00098 29193  1                      ST    R0,TCBRXTIM         Set new re-xmit interval
 004BFC                            29194                       END
 004BFC B08A/47F0 B0D2 04BFC 04BCC 29198                       ELSE BEGIN                Else timeout call,
 004C00 D203 80A4 8050 000A4 00050 29209  1                      MVC   TCBRXSEQ,TCBSNDUN   Save retransmit start sequence
 004C06 9604 8231      00231       29210  1                      SET   TCBFRXMT            Set retransmit flag
 004C0A 5800 8098            00098 29216  1                      L     R0,TCBRXTIM         Current retransmit interval
 004C0E 8800 0001            00001 29217  1                      SRL   R0,1                Increase retransmit interval by 50%
 004C12 1200/4770 B0A6_            29218  1                      IF    (R0,Z),'INCR R0'
 004C1C 5A00 8098            00098 29240  1                      A     R0,TCBRXTIM
 004C20 5900 B59E/47D0_      05114 29241  1                      CEIL  R0,MAXRXTIM         Reduce to max
 004C2C 5000 8098            00098 29260  1                      ST    R0,TCBRXTIM
 004C30 9801 809C            0009C 29261  1                      LM    R0,R1,TCBSRTT       Get SRTT interval
 004C34 5E00 B596            0510C 29262  1                      INCR  R0                  Increase by 1 second
 004C38 5900 B5A2/47D0_      05118 29265  1                      CEIL  R0,MAXSRTT          Truncate to max
 004C44 9001 809C            0009C 29284  1                      STM   R0,R1,TCBSRTT       Save new SRTT value
 004C48                            29285                       END
                                   29289
 004C48 D503 8050 8054_00050 00054 29290                       IF (TCBSNDUN,EQ,TCBSNDNX),BEGIN  If all send data acked,
 004C52 94FB 8231      00231       29308  1                      CLEAR TCBFRXMT                   Clear retransmit flag
 004C56                            29315                       END
                                   29319
                                   29320                         Remove any acknowledged data from the send queue.
                                   29321
 004C56 D603 80B0 80B0_000B0 000B0 29322                       WHILE (TCBSENDQ,NZ),BEGIN
 004C60 5820 80B0            000B0 29340  1                      L     R2,TCBSENDQ         Send buffer queue head
 USING  TCBQHDR,R2                 29341  1                      WITH  (TCBQHDR,R2)
 004C64 5830 8050            00050 29354  1                      L     R3,TCBSNDUN         Oldest unacked sequence
 004C68 5F30 2008            00008 29355  1                      SL    R3,TCBQSEQ          Get count of bytes acked
 004C6C 1233/47D0 B138             29356  1                      IF    (R3,NP),EXIT        Exit if nothing acked
 004C72 5930 2004/4750_      00004 29373  1                      IF    (R3,GE,TCBQLEN),BEGIN  If whole buffer acked,
 004C7A D203 80B0 2000 000B0 00000 29390  2                        MVC   TCBSENDQ,TCBQNEXT   Remove buffer from queue
 004C80 1812                       29391  2                        LR    R1,R2               Copy buffer address
 004C82 58E0 B5A6/0DEE       0511C 29392  2                        ACALL FREECORE            Free buffer
 004C88                            29396  1                      END
 004C88 B116/47F0 B134 04C88 04C78 29400  1                      ELSE  BEGIN               Else trim acked bytes
 004C8C D203 2008 8050 00008 00050 29411  2                        MVC   TCBQSEQ,TCBSNDUN    Reset start sequence
 004C92 5840 2004            00004 29412  2                        L     R4,TCBQLEN          Get data byte count
 004C96 1B43                       29413  2                        SR    R4,R3               Reduce by acked count
 004C98 5040 2004            00004 29414  2                        ST    R4,TCBQLEN          Save new byte count
 004C9C 41E0 200C/18F4_      0000C 29415  2                        MOVEL TCBQDATA,TCBQDATA(R3),(R4)  Shift data in buffer
 004CAA                            29437  1                      END
 004CAA 47F0 B0E0            04C56 29441                       END
 DROP   TCBQHDR,R2
                                   29451
                                   29452                         If TCP_STOP sent to user, check if we can now send a
                                   29453                           TCP_START.
                                   29454
 004CAE 9102 8231/47E0_00231       29455                       IF    TCBFSTOP,BEGIN      If stop message sent,
 004CB6 5800 8058            00058 29470  1                      L     R0,TCBSNDFN         Get unacked+unsent data count
 004CBA 5F00 8050            00050 29471  1                      SL    R0,TCBSNDUN
 004CBE 5900 807C/4730_      0007C 29472  1                      IF    (R0,LE,TCBFLOWL),BEGIN   If le lower flow ctrl limit,
1AMELIA   SENDTCP - Send TCP packet                                                                                         Page  123
0Current Usings:  (TCB,R8) (STCPWORK-(4+52),R9) (*,R11) (NIT,R12)
0Loc    Object Code    Addr1 Addr2  Stmt Lv Lineno    Source Statement           (Hibal 5, Asmedit 3.3)  HLASM R4.0  2004/03/15 13.11
+___    ______ ____    _____ _____  ____ __ ______    ______ _________
0004CC6 94FD 8231      00231       29489  2                        CLEAR TCBFSTOP                 Clear stop flag
 004CCA 4110 B582/4100_      050F8 29496  2                        SEG   LA:=CL16'TCP_START:',16,NITPSG   Send TCP_START msg
 004CDC 4110 800C/4100_      0000C 29523  2                        SEG   TCBUID
 004CEE 58E0 B5AE/0DEE       05124 29550  2                        ACALL SENDPATH
 004CF4                            29554  1                      END
 004CF4                            29558                       END
                                   29562
                                   29563                         Update receive window.  The receive window is set to the
                                   29564                           value specified by WINDOW minus the amount of data in
                                   29565                           the path queue.  Force a packet write if the window has
                                   29566                           increased.
                                   29567
 004CF4 5810 B5B2            05128 29568                       L     R1,=A(WINDOW)       Default window size
 004CF8 5820 80B4            000B4 29569                       L     R2,TCBPATHQ         Path data queue head
 004CFC 1222/4780 B1A2             29570                       WHILE (R2,NZ),BEGIN
 USING  TCBQHDR,R2                 29586  1                      WITH  (TCBQHDR,R2)
 004D02 D508 B5E0 200C_05156 0000C 29599  1                      IF    (TCBQDATA,EQ,'TCP_DATA:'),BEGIN  If data buffer,
 004D0C 5B10 2004            00004 29616  2                        S     R1,TCBQLEN               Reduce window by len
 004D10                            29617  1                      END
 004D10 5820 2000            00000 29621  1                      L     R2,TCBQNEXT
 004D14 47F0 B186            04CFC 29622                       END
 DROP   TCBQHDR,R2
 004D18 5910 806C/47B0_      0006C 29632                       IF    (R1,LT,TCBRMSS),'CLEAR R1'  Avoid small window
                                   29658            C          IF    ((R1,GT,TCBRCVWN),AND,  If window enlarged
                                                    C                (R1,GE,TCBRMSS),AND,       and now ge MSS
 004D22 5910 804C/47D0_      0004C                                   (TCBRCVWN,LT,TCBRMSS)),BEGIN   and was less than MSS
 004D3C 9610 8231      00231       29706  1                      SET   TCBFWRIT                 Force packet write
 004D40                            29712                       END
 004D40 5010 804C            0004C 29716                       ST    R1,TCBRCVWN              Update window
-                                  29718
                                   29719                   PACKET SEND LOOP
                                   29720
                                   29721                    Construct and send packet.  After sending a packet the routine
                                   29722                    will branch back here to try to send another one.
                                   29723
 004D44 4160 9038            00000 29724              SENDTCPN LA    R6,STCPHDR
 USING  TCPHDR,R6                  29725                       WITH  (TCPHDR,R6)         TCP header base
 004D48 D713 6000 6000 00000 00000 29738                       CLEAR TCPHDR              Clear header
                                   29745
 004D4E D203 6004 8054 00004 00054 29746                       MVC   TCPSEQ,TCBSNDNX     Set sequence to SND.NXT
 004D54 9104 8231/47E0_00231       29747                       IF    TCBFRXMT,BEGIN      If retransmitting call
 004D5C D203 6004 8050 00004 00050 29762  1                      MVC   TCPSEQ,TCBSNDUN     Set seq to oldest unacked seq
 004D62 D203 80A4 8050 000A4 00050 29763  1                      MVC   TCBRXSEQ,TCBSNDUN   Set retransmit start seq
 004D68                            29764                       END
1AMELIA   SENDTCP - Send TCP packet                                                                                         Page  124
0Current Usings:  (TCPHDR,R6) (TCB,R8) (STCPWORK-(4+52),R9) (*,R11) (NIT,R12)
0Loc    Object Code    Addr1 Addr2  Stmt Lv Lineno    Source Statement           (Hibal 5, Asmedit 3.3)  HLASM R4.0  2004/03/15 13.11
+___    ______ ____    _____ _____  ____ __ ______    ______ _________
0                                  29768
                                   29769                         Compute available send window.  Avoid sending tinygrams
                                   29770                         by setting the window to 0 if the remaining window count
                                   29771                         is less than the send MSS size and there is unacked send
                                   29772                         data outstanding.
                                   29773
 004D68 5850 805C            0005C 29774                       L     R5,TCBSNDWN         Get offered window
                                   29775            C          IF    (TCBFTMO,AND,       If timeout call,
 004D6C 9108 8231/47E0_00231                                         (R5,Z)),BEGIN         and window is 0,
 004D7A 5850 8070            00070 29803  1                      L     R5,TCBSMSS          Use send MSS value
 004D7E                            29804                       END
 004D7E 5950 8074/47D0_      00074 29808                       CEIL  R5,TCBCWIND         Truncate to congestion window
 004D8A 5800 6004            00004 29814                       L     R0,TCPSEQ           Start sequence
 004D8E 5F00 8050            00050 29815                       SL    R0,TCBSNDUN         Get unacked sequence count
 004D92 1B50                       29816                       SR    R5,R0               Subtract unacked from window
 004D94 47B0 B224/1B55       04D9A 29817                       IF    M,'CLEAR R5'        Validity check
 004D9A 5800 8058            00058 29837                       L     R0,TCBSNDFN         Compute queued
 004D9E 5F00 8054            00054 29838                       SL    R0,TCBSNDNX           data count
                                   29839            C          IF    (~TCBFTMO,AND,      If not timeout call,
                                                    C                (TCBSNDUN,LT,TCBSNDNX),AND,   and unacked send data,
                                                    C                (R0,GT,R5),AND,           and q'd data gt window size
 004DA2 9108 8231/4710_00231                                         (R5,LT,TCBSMSS)),BEGIN    and window lt MSS
 004DC2 1B00                       29897  1                      CLEAR R0                  Set window to 0
 004DC4                            29901                       END
 004DC4 5950 8070/47D0_      00070 29905                       CEIL  R5,TCBSMSS          Truncate window to MSS
                                   29911
                                   29912                         Pull data off of the send queue until queue or window
                                   29913                           exhausted.
                                   29914
 004DD0 4140 904C            00014 29915                       LA    R4,STCPDATA                     Init data buffer ptr
 004DD4 4130 80B0            000B0 29916                       LA    R3,TCBSENDQ-(TCBQNEXT-TCBQHDR)  Init queue ptr
 USING  TCBQHDR,R3                 29917                       USING TCBQHDR,R3
                                   29926            C          WHILE (('LT R3,TCBQNEXT',NZ),AND,  While have buffer
 004DD8 5830 3000/1233_      00000                                   (R5,NZ)),BEGIN                and available window
 004DE8 5820 6004            00004 29957  1                      L     R2,TCPSEQ           Packet start sequence
 004DEC 5F20 3008            00008 29958  1                      SL    R2,TCBQSEQ          Get offset in buffer
 004DF0 5920 3004/47A0_      00004 29959  1                      IF    (R2,GE,TCBQLEN),NEXT  Next buffer if past end
 004DF8 4100 300C            0000C 29979  1                      LA    R0,TCBQDATA         Buffer data start
 004DFC 5810 3004            00004 29980  1                      L     R1,TCBQLEN          Buffer data length
 004E00 1222/47D0 B294             29981  1                      IF    (R2,P),BEGIN        If have offset into buffer,
 004E06 1A02                       29995  2                        AR    R0,R2               Incr data pointer by offset
 004E08 1B12                       29996  2                        SR    R1,R2               Decr data count by offset
 004E0A                            29997  1                      END
 004E0A 1915/47D0 B29C             30001  1                      IF    (R1,GT,R5),BEGIN    If count gt window size,
 004E10 1815                       30016  2                        LR    R1,R5               Set count to window
 004E12                            30017  1                      END
 004E12 1B51                       30021  1                      SR    R5,R1               Reduce available window
 004E14 18E4                       30022  1                      LR    R14,R4              Copy output pointer
 004E16 18F1                       30023  1                      LR    R15,R1              Copy data length
 004E18 0EE0                       30024  1                      MVCL  R14,R0              Move data to buffer
 004E1A 184E                       30025  1                      LR    R4,R14              Update output pointer
 004E1C 47F0 B262            04DD8 30026                       END
 DROP   TCBQHDR,R3                 30031                       DROP  R3                  ## TCBHQDR
1AMELIA   SENDTCP - Send TCP packet                                                                                         Page  125
0Current Usings:  (TCPHDR,R6) (TCB,R8) (STCPWORK-(4+52),R9) (*,R11) (NIT,R12)
0Loc    Object Code    Addr1 Addr2  Stmt Lv Lineno    Source Statement           (Hibal 5, Asmedit 3.3)  HLASM R4.0  2004/03/15 13.11
+___    ______ ____    _____ _____  ____ __ ______    ______ _________
0                                  30038
                                   30039                         Get data length and packet end sequence.
                                   30040
 004E20 4100 904C            00014 30041                       LA    R0,STCPDATA         Start of data buffer
 004E24 1B40                       30042                       SR    R4,R0               Get data byte count
 004E26 5820 6004            00004 30043                       L     R2,TCPSEQ           Start sequence
 004E2A 1E24                       30044                       ALR   R2,R4               Get end sequence
                                   30045
                                   30046                         If initial sequence not acked yet, send SYN packet.  There
                                   30047                         won't be any other send data in this case.  This handles
                                   30048                         the normal startup sequence plus forces retransmit of our
                                   30049                         SYN if we are acking data from a remote host before our SYN
                                   30050                         has been acked.
                                   30051
 004E2C D503 8050 8034_00050 00034 30052                       IF    (TCBSNDUN,EQ,TCBISS),BEGIN  If initial seq unacked,
 004E36 9602 600D      0000D       30070  1                      SET   TCPFLSYN                  Set SYN in header
 004E3A D203 6004 8034 00004 00034 30076  1                      MVC   TCPSEQ,TCBISS             Insure SEQ is ISS
 004E40 5820 8034            00034 30077  1                      L     R2,TCBISS                 Compute
 004E44 5E20 B596            0510C 30078  1                      INCR  R2                          end sequence
 004E48 58E0 B5B6/0DEE       0512C 30081  1                      ACALL CHECKMSS                  Set MSS value
 004E4E D201 904C B5DE 00014 05154 30085  1                      MVC   STCPDATA(2),=AL1(2,4)     Build MSS option
 004E54 D201 904E 806E 00016 0006E 30086  1                      MVC   STCPDATA+2(2),TCBRMSS+2   Move in receive MSS value
 004E5A 4140 0004            00004 30087  1                      LA    R4,4                      Set data length
 004E5E                            30088                       END
                                   30092
                                   30093                         Set FIN if connection closed and no more data.
                                   30094
                                   30095            C          IF    (TCBFEOF,AND,                 If EOF received,
                                                    C                (R5,NZ),AND,                and window available
 004E5E 9140 8232/47E0_00232                                         (R2,EQ,TCBSNDFN)),BEGIN       and all data sent,
 004E74 9601 600D      0000D       30137  1                      SET   TCPFLFIN                   Flag FIN in header
 004E78 5E20 B596            0510C 30143  1                      INCR  R2                         Incr end sequence
 004E7C                            30146                       END
                                   30150
                                   30151                         If sending new data, update SND.NXT.
                                   30152
 004E7C 5520 8054/47D0_      00054 30153                       IF    ('CL R2,TCBSNDNX',H),BEGIN  If sending new data,
 004E84 5020 8054            00054 30166  1                      ST    R2,TCBSNDNX         Update send seq (SND.NXT)
 004E88                            30167                       END
                                   30171
                                   30172                         ACK delay logic
                                   30173
                                   30174                         If we have unACKed receive data, force sending of ACK
                                   30175                           if one of the following conditions is true:
                                   30176                             - amount greater than 200 bytes
                                   30177                             - have data unACKed for more than .25 second
                                   30178                             - we have unACKed send data outstanding
                                   30179
                                   30180
 004E88 D503 8048 803C_00048 0003C 30181                       IF    (TCBRCVNX,NE,TCBRCVAK),BEGIN   If unACKed data,
 004E92 5800 8048            00048 30199  1                      L     R0,TCBRCVNX         Compute count of
 004E96 5F00 803C            0003C 30200  1                      SL    R0,TCBRCVAK           unACKed receive data
 004E9A 5900 B5BA/47D0_      05130 30201  1                      IF    (R0,GT,200),'SET TCBFWRIT'
 004EA6 9504 8230/4780_00230       30229  1                      IF    (TCBSTATE,NE,ESTABLSH),'SET TCBFWRIT'
1AMELIA   SENDTCP - Send TCP packet                                                                                         Page  126
0Current Usings:  (TCPHDR,R6) (TCB,R8) (STCPWORK-(4+52),R9) (*,R11) (NIT,R12)
0Loc    Object Code    Addr1 Addr2  Stmt Lv Lineno    Source Statement           (Hibal 5, Asmedit 3.3)  HLASM R4.0  2004/03/15 13.11
+___    ______ ____    _____ _____  ____ __ ______    ______ _________
0004EB2 D607 8040 8040_00040 00040 30258  1                      IF    (TCBRCVTM,Z),BEGIN  If data just received,
 004EBC B205 8040      00040       30274  2                        STCK  TCBRCVTM            Time stamp data
 004EC0                            30275  1                      END
 004EC0 B205 D000      00000       30279  1                      STCK  @R13                Get current time
 004EC4 9801 D000            00000 30280  1                      LM    R0,R1,@R13          Compute interval since received
 004EC8 5F10 8044/47B0_      00044 30281  1                      SDL   R0,TCBRCVTM           oldest unACKed data
 004ED6 8D00 0002            00002 30286  1                      SLDL  R0,2                Force write if gt .25 second
 004EDA 1200/4780 B36E_            30287  1                      IF    (R0,NZ),'SET TCBFWRIT'
 004EE4 D503 8050 8054_00050 00054 30312  1                      IF    (TCBSNDUN,LT,TCBSNDNX),BEGIN  If unACKed send data,
 004EEE 9610 8231      00231       30330  2                        SET   TCBFWRIT                      ACK received data now
 004EF2                            30336  1                      END
 004EF2                            30340                       END
                                   30344
                                   30345                         Set ACK in header if sending data or force write flag set.
                                   30346
                                   30347            C          IF    (TCBFSYN,AND,       If receive sequence valid, and
                                                    C                (TCBFWRIT,OR,         either write forced
 004EF2 9120 8231/47E0_00231                                         (R2,NE,TCPSEQ))),BEGIN    or data in packet,
 004F0A 9610 600D      0000D       30392  1                      SET   TCPFLACK            Flag ACK valid
 004F0E D203 6008 8048 00008 00048 30398  1                      MVC   TCPACK,TCBRCVNX     Set ACK field
 004F14 D203 803C 6008 0003C 00008 30399  1                      MVC   TCBRCVAK,TCPACK     Update last ACKed sequence
 004F1A D707 8040 8040 00040 00040 30400  1                      CLEAR TCBRCVTM            Clear unACKed data time
 004F20                            30407                       END
                                   30411
                                   30412                         Update TCB counters and data trace
                                   30413
 004F20 9500 600D/4780_0000D       30414                       IF    (TCPFLAGS,NZ),BEGIN   If sending packet
 004F28 B205 8108      00108       30430  1                      STCK  TCBSPTIM              Record time
 004F2C 9104 8231/4710_00231       30431  1                      IF    ~TCBFRXMT,'INCR  R0,TCBSPACK'   Incr send counter
 004F40 B3CE/47F0 B3DA_04F40 04F32 30457  1                      ELSE  'INCR R0,TCBSRXMT'              or retransmit cntr
 004F50 1244/4780 B406             30479  1                      IF    (R4,NZ),BEGIN       If have data,
 004F56 D207 8110 8108 00110 00108 30493  2                        MVC   TCBSDATT,TCBSPTIM   Save time
 004F5C 9102 600D/4710_0000D       30494  2                        IF    TCPFLSYN,EXIT       Done if SYN packet
 004F64 5040 8118            00118 30512  2                        ST    R4,TCBSDATL         Save length
 004F68 18F4                       30513  2                        LR    R15,R4              Copy length
 004F6A 59F0 B5BE/47D0_      05134 30514  2                        CEIL  R15,L'TCBSDATA      Truncate to area length
 004F76 06F0/44F0 B5FC_            30533  2                        DEX   R15,'MVC TCBSDATA(0),STCPDATA'   Copy data
 004F7C                            30552  1                      END
 004F7C                            30556                       END
                                   30560
                                   30561                         If not writing packet but there is unACKed receive
                                   30562                         data, set a 1 second timer. An ACK will be sent out if
                                   30563                         no data packet is sent before the timer fires.
                                   30564
                                   30565            C          IF    ((TCPFLAGS,Z),AND,     If not writing packet,
 004F7C 9500 600D/4770_0000D                                         (TCBRCVAK,NE,TCBRCVNX)),BEGIN  and unACKed rcv data,
 004F8E D203 80A8 B596 000A8 0510C 30598  1                      MVC   TCBTIMER,=A(1)                Set 1 second interval
 004F94 D203 80AC B5C2 000AC 05138 30599  1                      MVC   TCBTMXIT,=A(SENDTCP)          Set timer exit routine
 004F9A 47F0 B56A            050E0 30600  1                      B     SENDTCPX                      Exit
 004F9E                            30601                       END
1AMELIA   SENDTCP - Send TCP packet                                                                                         Page  127
0Current Usings:  (TCPHDR,R6) (TCB,R8) (STCPWORK-(4+52),R9) (*,R11) (NIT,R12)
0Loc    Object Code    Addr1 Addr2  Stmt Lv Lineno    Source Statement           (Hibal 5, Asmedit 3.3)  HLASM R4.0  2004/03/15 13.11
+___    ______ ____    _____ _____  ____ __ ______    ______ _________
0                                  30605
                                   30606                         Send keepalive packet if needed.
                                   30607
                                   30608            C          IF    ((TCPFLAGS,Z),AND,  If not writing packet, and
 004F9E 9500 600D/4770_0000D                                         TCBFXKPA),BEGIN       and keepalive flag set,
 004FAE B205 8108      00108       30638  1                      STCK  TCBSPTIM            Record time
 004FB2 4100 0001/5E00_      00001 30639  1                      INCR  R0,TCBSPACK         Incr send counter
 004FBE 9610 600D      0000D       30645  1                      SET   TCPFLACK            Set ACK flag in TCP hdr
 004FC2 D203 6008 8048 00008 00048 30651  1                      MVC   TCPACK,TCBRCVNX     Set ACK field
 004FC8 5800 8050            00050 30652  1                      L     R0,TCBSNDUN         Set sequence to
 004FCC 0600                       30653  1                      DECR  R0                   SND.UNA-1
 004FCE 5000 6004            00004 30655  1                      ST    R0,TCPSEQ             (last byte ACKed)
 004FD2 9200 904C      00014       30656  1                      MVI   STCPDATA,0          Set 0 data byte
 004FD6 4140 0001            00001 30657  1                      LA    R4,1                Set data length of 1
 004FDA                            30658                       END
 004FDA 94FD 8232      00232       30662                       CLEAR TCBFXKPA            Clear keepalive transmit flag
                                   30669
                                   30670                         If data in packet, update time stamp for window probe logic
                                   30671
 004FDE 1244/4780 B474             30672                       IF    (R4,NZ),BEGIN       If sending data,
 004FE4 D203 8068 C344 00068 00344 30686  1                      MVC   TCBSNDWT,NITCLOCK   Update time
 004FEA                            30687                       END
                                   30691
                                   30692                         Set retransmit timer if have unacked send data
                                   30693
 004FEA D503 8050 8054_00050 00054 30694                       IF    (TCBSNDUN,LT,TCBSNDNX),BEGIN  If unacked send data,
 004FF4 D603 808C 808C_0008C 0008C 30712  1                      IF    (TCBXSEQ,Z),BEGIN             If no timed seq active,
 004FFE D203 808C 8050 0008C 00050 30728  2                        MVC   TCBXSEQ,TCBSNDUN              Time oldest sequence sent
 005004 D207 8090 C344 00090 00344 30729  2                        MVC   TCBXTIME,NITCLOCK             Set start time
 00500A                            30730  1                      END
 00500A D203 80A8 8098 000A8 00098 30734  1                      MVC   TCBTIMER,TCBRXTIM   Set retransmit timer
 005010 D203 80AC B5C6 000AC 0513C 30735  1                      MVC   TCBTMXIT,=A(XTIMEOUT) Set timer exit address
 005016                            30736                       END
                                   30740
                                   30741                         Exit now if not sending packet
                                   30742
 005016 9500 600D/4780_0000D       30743                       IF    (TCPFLAGS,Z),SENDTCPX
                                   30762
                                   30763                         Finish filling in TCP header and send packet.
                                   30764
 00501E D201 6000 8022 00000 00022 30765                       MVC   TCPSRC,TCBLPORT+2   Source port
 005024 D201 6002 8026 00002 00026 30766                       MVC   TCPDST,TCBRPORT+2   Remote port
 00502A 9250 600C      0000C       30767                       MVI   TCPOFFS,X'50'       Header length (words)
 00502E 9102 600D/47E0_0000D       30768                       IF    TCPFLSYN,'MVI TCPOFFS,X"60"' Allow for MSS option
 00503A D201 600E 804E 0000E 0004E 30789                       MVC   TCPWIND,TCBRCVWN+2  Receive window
                                   30790            C          IF    (~TCPFLSYN,AND,(R4,NZ),AND,  If data packet,
 005040 9102 600D/4710_0000D                                         (TCBSNDNX,GE,TCBSNDFN)),BEGIN  and no more send data,
 005058 9608 600D      0000D       30833  1                      SET   TCPFLPSH            Set PUSH flag
 00505C                            30839                       END
1AMELIA   SENDTCP - Send TCP packet                                                                                         Page  128
0Current Usings:  (TCPHDR,R6) (TCB,R8) (STCPWORK-(4+52),R9) (*,R11) (NIT,R12)
0Loc    Object Code    Addr1 Addr2  Stmt Lv Lineno    Source Statement           (Hibal 5, Asmedit 3.3)  HLASM R4.0  2004/03/15 13.11
+___    ______ ____    _____ _____  ____ __ ______    ______ _________
0                                  30843
                                   30844                         If sending initial SYN, check that Ethernet address
                                   30845                         is known.  If the address is unknown, we will exit
                                   30846                         now and retry when the timeout interval expires.
                                   30847
 00505C 9102 600D/47E0_0000D       30848                       IF    TCPFLSYN,BEGIN      If sending SYN,
 005064 5810 8028            00028 30863  1                      L     R1,TCBIPADD         Get IP address
 005068 58E0 B5CA/0DEE       05140 30864  1                      ACALL GETENET             Get address, send ARP if unknown
 00506E 4770 B56A            050E0 30868  1                      IF    NZ,SENDTCPX         Exit if unknown,
 005072                            30882                       END
                                   30886
 005072 4110 6000            00000 30887                       LA    R1,TCPHDR           Header start
 005076 4104 0014            00014 30888                       LA    R0,L'TCPHDR(R4)     Total TCP length
 00507A 41F0 0FFF            00FFF 30889                       LA    R15,TCBTRSND        Trace code
 00507E 58E0 B5CE/0DEE       05144 30890                       ACALL TCPTRACE            Call trace routine
 005084 58F0 8028            00028 30894                       L     R15,TCBIPADD        IP address
 005088 58E0 B5D2/0DEE       05148 30895                       ACALL XMITTCP             Go transmit packet
                                   30899
 00508E 94EF 8231      00231       30900                       CLEAR TCBFWRIT            Clear force write flag
                                   30907
                                   30908                         Log status of busy session
                                   30909
 005092 5810 80EC            000EC 30910                       L     R1,TCBSPACK         Sent packet count
 005096 1B00                       30911                       CLEAR R0
 005098 5D00 C1E4            001E4 30915                       D     R0,NITBSYTH         Multiple of busy threshold?
 00509C 1200/4770 B55A             30916                       IF    (R0,Z),BEGIN        If yes,
 0050A2 4100 0001/5E00_      00001 30930  1                      INCR  R0,NITBSYCT         Incr global counter
 0050AE 4110 B5E9/4100_      0515F 30936  1                      SEGWR 'BUSY TCP CONNECTION',,NITPRSG
 0050C0 4100 0008            00008 30954  1                      LA    R0,8                Code for full TCB status display
 0050C4 1818                       30955  1                      LR    R1,TCBR             TCB pointer
 0050C6 41F0 C4B0            004B0 30956  1                      LA    R15,NITPRSG         SEGCB
 0050CA 58E0 B5DA/0DEE       05150 30957  1                      ACALL FMTTCB              Write TCB status to log
 0050D0                            30961                       END
                                   30965
                                   30966                         If not retransmitting and not sending SYN,
                                   30967                         try to send another packet
                                   30968
 0050D0 9102 600D/4710_0000D       30969                       IF    (~TCPFLSYN,AND,~TCBFRXMT),SENDTCPN
                                   31001              *
                                   31002              *
 0050E0 94F7 8231      00231       31003              SENDTCPX CLEAR TCBFTMO             Clear timeout flag
 0050E4 18D9/980C D004_            31011                       PEND
 DROP   TCPHDR,R6
 DROP   STCPWORK-(4+52),R9
 DROP   *,R11
                                   31041                       QLTORG
1AMELIA   XTIMEOUT - TCP transmit timeout routine                                                                           Page  129
0Current Usings:  (TCB,R8) (NIT,R12)
0Loc    Object Code    Addr1 Addr2  Stmt Lv Lineno    Source Statement           (Hibal 5, Asmedit 3.3)  HLASM R4.0  2004/03/15 13.11
+___    ______ ____    _____ _____  ____ __ ______    ______ _________
0                                  31077
                                   31078
                                   31079                 XTIMEOUT -- TCP transmit timeout routine.
                                   31080
                                   31081                  Entered when packet not acknowledged within timer interval.
                                   31082                   The connection will be aborted if data has not been
                                   31083                   acknowledged within the interval specified by DEFTMOUT.
                                   31084                   The connection will also be aborted if there has not been
                                   31085                   a valid ACK within the TIMEOUT interval after we started
                                   31086                   probing a closed window.
                                   31087
                                   31088                  If we are opening a connection and the host has alternate
                                   31089                   IP addresses, try these before aborting.
                                   31090
                                   31091                  If not aborting the connection, call the write routine to
                                   31092                   initiate retransmitting.
                                   31093

0005178 90EF C020/4DE0_      00020 31094              XTIMEOUT PROC
 USING  *,R11
 00519C 9500 8230/4780_00230       31136                       IF    (TCBSTATE,EQ,CLOSED),EXIT  Exit if killing connection
 0051A4 B205 D000      00000       31157                       STCK  @R13
 0051A8 5820 D000            00000 31158                       L     R2,@R13             Get current time
 0051AC 5F20 8090            00090 31159                       SL    R2,TCBXTIME         Minus transmit time
 0051B0 5810 8084            00084 31160                       L     R1,TCBTMOUT         Timeout value
 0051B4 9502 8230/4770_00230       31161                       IF    (TCBSTATE,EQ,SYNSENT),BEGIN  If doing active open,
 0051BC 4110 012C            0012C 31179  1                      LA    R1,DEFOPTMO                  Use default interval
 0051C0                            31180                       END
 0051C0 1921/47D0 B046             31184                       IF    (R2,GT,R1),BEGIN    If over timeout interval,
 0051C6 58E0 BDEC/0DEE       05F88 31199  1                      ACALL XOPENRST            Check if restart possible
 0051CC 4780 B046            051E2 31203  1                      IF    NZ,BEGIN            If not,
 0051D0 4110 BE92/4100_      0602E 31214  2                        SETMSG 'TIMEOUT'           Abort reason text
 0051D8 58E0 BDF0/0DEE       05F8C 31218  2                        ACALL ABORTTCB            Call abort routine
 0051DE 47F0 B068            05204 31222  2                        EXIT  XTIMEOUT            Return
 0051E2                            31225  1                      END
 0051E2                            31229                       END
                                   31233
 0051E2 9608 8231      00231       31234                       SET   TCBFTMO             Flag timeout occurred
 0051E6 D203 8074 8070 00074 00070 31240                       MVC   TCBCWIND,TCBSMSS    Reset congestion window
 0051EC 58E0 BDF4/0DEE       05F90 31241                       ACALL SENDTCP             Call write routine
 0051F2 5920 BDF8/47D0_      05F94 31245                       IF    (R2,GT,10),BEGIN    If interval over 10 seconds,
 0051FA 5810 8028            00028 31262  1                      L     R1,TCBIPADD         Get IP address
 0051FE 58E0 BDFC/0DEE       05F98 31263  1                      ACALL SENDARP             Send ARP packet
 005204                            31267                       END
 005204 18D9/980C D004_            31271                       PEND
 DROP   *,R11
1AMELIA   XOPENRST - TCP open restart routine                                                                               Page  130
0Current Usings:  (TCB,R8) (NIT,R12)
0Loc    Object Code    Addr1 Addr2  Stmt Lv Lineno    Source Statement           (Hibal 5, Asmedit 3.3)  HLASM R4.0  2004/03/15 13.11
+___    ______ ____    _____ _____  ____ __ ______    ______ _________
0                                  31292
                                   31293                 XOPENRST - Restart TCP open after timeout if host has an
                                   31294                             alternate IP address
                                   31295
                                   31296                   On exit:  R15 - RC (0=OK, 4=fail
                                   31297

0005212 90EF C020/4DE0_      00020 31298              XOPENRST PROC
 USING  *,R11
 005236 41F0 0004            00004 31340                       LA    R15,4               Set fail RC
 00523A D603 802C 802C_0002C 0002C 31341                       IF    (TCBIPCHN,Z),EXIT   Return if no alternate IP addr
 005244 9502 8230/4770_00230       31360                       IF    (TCBSTATE,NE,SYNSENT),EXIT  Return if not opening
 00524C D603 80E0 80E0_000E0 000E0 31381                       IF    (TCBRPACK,NZ),EXIT          Return if packets received
                                   31400
 005256 5810 802C            0002C 31401                       L     R1,TCBIPCHN         Get next IP address entry
 00525A D203 8028 1004 00028 00004 31402                       MVC   TCBIPADD,@R1+4      Set next IP address in TCB
 005260 D203 802C 1000 0002C 00000 31403                       MVC   TCBIPCHN,@R1        Dequeue entry
 005266 58E0 BD66/0DEE       05F9C 31404                       ACALL FREECORE            Free entry
 00526C 5810 8028            00028 31408                       L     R1,TCBIPADD         IP address
 005270 58E0 BD6A/0DEE       05FA0 31409                       ACALL ADDHOST             Get host table entry
 005276 5010 8030            00030 31413                       ST    R1,TCBHSTTB         Set pointer in TCB
 00527A D203 8098 BD6E 00098 05FA4 31414                       MVC   TCBRXTIM,=A(MINRXTIM)  Init retransmit timeout value
 005280 D203 809C BD72 0009C 05FA8 31415                       MVC   TCBSRTT(4),=A(MINRXTIM/2) Init SRTT value
 005286 1BFF                       31416                       CLEAR R15                 Return code
 005288 18D9/980C D004_            31420                       PEND
 DROP   *,R11
1AMELIA   SENDRST - Send RST packet for current TCP connection                                                              Page  131
0Current Usings:  (TCB,R8) (NIT,R12)
0Loc    Object Code    Addr1 Addr2  Stmt Lv Lineno    Source Statement           (Hibal 5, Asmedit 3.3)  HLASM R4.0  2004/03/15 13.11
+___    ______ ____    _____ _____  ____ __ ______    ______ _________
0                                  31441
                                   31442
                                   31443                 SENDRST - Send RST packet for current connection.
                                   31444

0000000                00000 00014 31445              SENDRSTW RECORD BEGIN
 000000                            31453  1           SRSTWHDR   DS    CL(L'TCPHDR)        Area to build new header
 000014                00014 00014 31454                       END
                                   31463
 005296 90EF C020/4DE0_      00020 31464              SENDRST  PROC  SENDRSTW
 USING  *,R11
 USING  SENDRSTW-(4+52),R9
 0052BA 9120 8231/47E0_00231       31517                       IF    ~TCBFSYN,EXIT       Exit if don't have receive seq
 0052C2 9500 8230/4780_00230       31535                       IF    (TCBSTATE,EQ,CLOSED),EXIT
 0052CA 950A 8230/4780_00230       31556                       IF    (TCBSTATE,EQ,TIMEWAIT),EXIT
 0052D2 4120 9038            00000 31577                       LA    R2,SRSTWHDR         Header work area
 USING  TCPHDR,R2                  31578                       WITH  (TCPHDR,R2)
 0052D6 D713 2000 2000 00000 00000 31591                       CLEAR TCPHDR
 0052DC D201 2000 8022 00000 00022 31598                       MVC   TCPSRC,TCBLPORT+2   Source port
 0052E2 D201 2002 8026 00002 00026 31599                       MVC   TCPDST,TCBRPORT+2   Remote port
 0052E8 D203 2004 8054 00004 00054 31600                       MVC   TCPSEQ,TCBSNDNX     Sequence number
 0052EE D203 2008 8048 00008 00048 31601                       MVC   TCPACK,TCBRCVNX     Ack field
 0052F4 9614 200D      0000D       31602                       SET   TCPFLACK+TCPFLRST   Set flags
 0052F8 9250 200C      0000C       31611                       MVI   TCPOFFS,X'50'       Header length (words)
 0052FC 1812/4100 0014             31612                       SETMSG TCPHDR              Set up area length and address
 005302 41F0 0FFF            00FFF 31626                       LA    R15,TCBTRSND        Trace code
 005306 58E0 BCF2/0DEE       05FAC 31627                       ACALL TCPTRACE            Call trace routine
 00530C 58F0 8028            00028 31631                       L     R15,TCBIPADD        IP address
 005310 58E0 BCF6/0DEE       05FB0 31632                       ACALL XMITTCP             Go transmit packet
 005316 18D9/980C D004_            31636                       PEND
 DROP   TCPHDR,R2
 DROP   SENDRSTW-(4+52),R9
 DROP   *,R11
1AMELIA   XMITTCP - Transmit TCP packet                                                                                     Page  132
0Current Usings:  (TCB,R8) (NIT,R12)
0Loc    Object Code    Addr1 Addr2  Stmt Lv Lineno    Source Statement           (Hibal 5, Asmedit 3.3)  HLASM R4.0  2004/03/15 13.11
+___    ______ ____    _____ _____  ____ __ ______    ______ _________
0                                  31667
                                   31668
                                   31669                 XMITTCP -- Transmit TCP packet.
                                   31670
                                   31671                   Transmit TCP packet after computing the checksum.
                                   31672
                                   31673                   On entry:
                                   31674                     R0,R1 - Packet length and address
                                   31675                     R15   - IP address of packet
                                   31676

0000000                00000 00020 31677              XMITTCPW RECORD BEGIN
 000000                            31685  1           XMTCPIPH   DS    CL(L'IPHDR)         IP header work area
 000014                            31686  1           XMTCPPHD   DS    CL12                TCP pseudo-header work area
 000020                00020 00020 31687                       END
-005324 90EF C020/4DE0_      00020 31697              XMITTCP  PROC  XMITTCPW
 USING  *,R11
 USING  XMITTCPW-(4+52),R9
 005348 D71F 9038 9038 00000 00000 31750                       CLEAR XMITTCPW            Clear work area
 00534E 1821                       31757                       LR    R2,R1               Copy TCP header address
 005350 1830                       31758                       LR    R3,R0               Copy TCP packet length
 005352 184F                       31759                       LR    R4,R15              Copy IP address
                                   31760
                                   31761                         Build pseudo-header and compute TCP checksum.
                                   31762
 USING  TCPHDR,R2                  31763                       WITH  (TCPHDR,R2)         Caller's TCP header
 005354 D701 2010 2010 00010 00010 31776                       CLEAR TCPCHK              Clear checksum
 00535A D203 904C C034 00014 00034 31783                       MVC   XMTCPPHD(4),NITIP   Build pseudo-header
 005360 5040 9050            00018 31784                       ST    R4,XMTCPPHD+4
 005364 D201 9054 BCDC 0001C 06024 31785                       MVC   XMTCPPHD+8(2),=Y(IPTCP#)
 00536A 4030 9056            0001E 31786                       STH   R3,XMTCPPHD+10
 00536E 4110 904C/4100_      00014 31787                       CHECKSUM XMTCPPHD,FINAL=NO  Checksum pseudo-header
 005380 1812/1803/58E0_            31810                       CHECKSUM (R2),(R3),(R15)    Checksum packet
 00538A 40F0 2010            00010 31830                       STH   R15,TCPCHK            Set checksum in header
                                   31831
                                   31832                         Build skeleton IP header and send packet.
                                   31833
 00538E 4150 9038            00000 31834                       LA    R5,XMTCPIPH         IP work area
 USING  IPHDR,R5                   31835                       WITH  (IPHDR,R5)
 005392 9206 5009      00009       31848                       MVI   IPTYPE,IPTCP#       Protocol id
 005396 5040 5010            00010 31849                       ST    R4,IPDST            Dest IP address
 00539A 41F0 5000            00000 31850                       LA    R15,IPHDR           IP header address
 00539E 1803                       31851                       LR    R0,R3               TCP packet length
 0053A0 1812                       31852                       LR    R1,R2               TCP packet address
 0053A2 58E0 BC70/0DEE       05FB8 31853                       ACALL XMITIP              Call IP transmit routine
 0053A8 18D9/980C D004_            31857                       PEND
 DROP   IPHDR,R5
 DROP   TCPHDR,R2
 DROP   XMITTCPW-(4+52),R9
 DROP   *,R11
1AMELIA   NEWTCB - Build new TCB for TCP connection                                                                         Page  133
0Current Usings:  (TCB,R8) (NIT,R12)
0Loc    Object Code    Addr1 Addr2  Stmt Lv Lineno    Source Statement           (Hibal 5, Asmedit 3.3)  HLASM R4.0  2004/03/15 13.11
+___    ______ ____    _____ _____  ____ __ ______    ______ _________
0                                  31893
                                   31894
                                   31895                 NEWTCB -- Initialize new TCB and put on TCB chain.
                                   31896
                                   31897                   On exit:
                                   31898                     R1 - TCB address
                                   31899

00053B6 90EF C020/4DE0_      00020 31900              NEWTCB   PROC
 USING  *,R11
 0053DA 4100 0233            00233 31942                       LA    R0,L'TCB            Area length
 0053DE 58E0 BBE2/0DEE       05FBC 31943                       ACALL GETCORE             Get memory
 0053E4 1881                       31947                       LR    TCBR,R1             Set TCB base
 0053E6 D7FF 8000 8000_00000 00000 31948                       CLEAR TCB
 0053F8 D203 8004 C0D0 00004 000D0 31957                       MVC   TCBNEXT,NITTCBQ     Put at head
 0053FE 5080 C0D0            000D0 31958                       ST    TCBR,NITTCBQ         of TCB chain
 005402 D203 8000 BBE6 00000 05FC0 31959                       MVC   TCBDMPID,=C'TCB '   Identifier for dumps
 005408 4100 0001/5E00_      00001 31960                       INCR  R0,NITTCBID         Get TCB id number
 005414 D203 8008 C0D4 00008 000D4 31966                       MVC   TCBID,NITTCBID      Set in TCB
 00541A 9200 8230      00230       31967                       MVI   TCBSTATE,CLOSED     Set state to CLOSED
 00541E D207 807C BB26 0007C 05F00 31968                       MVC   TCBFLOWL(8),=A(DEFFLOWL,DEFFLOWH)  Init flow control
 005424 D203 804C BBEA 0004C 05FC4 31969                       MVC   TCBRCVWN,=A(WINDOW)  Init receive window
 00542A D203 8098 BBCA 00098 05FA4 31970                       MVC   TCBRXTIM,=A(MINRXTIM)  Init retransmit timeout value
 005430 D203 809C BBCE 0009C 05FA8 31971                       MVC   TCBSRTT(4),=A(MINRXTIM/2) Init SRTT value
 005436 B205 D000      00000       31972                       STCK  @R13                Get time
 00543A D203 801C D000 0001C 00000 31973                       MVC   TCBSTART,@R13       Set connect start time
                                   31974
                                   31975                         Set value of ISS from bits 18-48 of TOD clock.
                                   31976                         The high bit is is zero; the TCP code assumes
                                   31977                         that our sequence number won't wrap, which is valid
                                   31978                         unless we send over 2GB on a connection.
                                   31979
 005440 9801 D000            00000 31980                       LM    R0,R1,@R13          Get time
 005444 8D00 0012            00012 31981                       SLDL  R0,18               Set R0 = bits 18-49
 005448 8800 0001            00001 31982                       SRL   R0,1                Set R0 = bits 18-48 (hi bit 0)
 00544C 5000 8034            00034 31983                       ST    R0,TCBISS           Set ISS
 005450 5000 8050            00050 31984                       ST    R0,TCBSNDUN         Set SND.UNA to ISS
 005454 5000 8054            00054 31985                       ST    R0,TCBSNDNX         Set SND.NXT to ISS
 005458 5E00 BBEE            05FC8 31986                       INCR  R0
 00545C 5000 8058            00058 31989                       ST    R0,TCBSNDFN         Init final sequence number
                                   31990
                                   31991                         Initialize trace table
                                   31992
 005460 D603 C0F8 C0F8_000F8 000F8 31993                       IF    (NITTCPTC,NZ),BEGIN  If tracing set,
 00546A 5830 C0F4            000F4 32009  1                      L     R3,NITTCPTL         Get trace data length
 00546E 4133 000C            0000C 32010  1                      LA    R3,L'TCBTRHDR(R3)   Add header length
 005472 5030 80FC            000FC 32011  1                      ST    R3,TCBTRELN         Save entry length value
 005476 5C20 C0F8            000F8 32012  1                      M     R2,NITTCPTC         Times entry count
 00547A 5030 8100            00100 32013  1                      ST    R3,TCBTRTLN         Save table length
 00547E 1803                       32014  1                      LR    R0,R3               Copy count
 005480 5900 BBF2/47A0_      05FCC 32015  1                      IF    (R0,GE,GETCMAX),EXIT  ** EXIT IF TOO BIG **
 005488 58E0 BBE2/0DEE       05FBC 32035  1                      ACALL GETCORE             Get storage for trace table
 00548E 5010 80F4            000F4 32039  1                      ST    R1,TCBTRADD         Save trace table address
1AMELIA   NEWTCB - Build new TCB for TCP connection                                                                         Page  134
0Current Usings:  (TCB,R8) (*,R11) (NIT,R12)
0Loc    Object Code    Addr1 Addr2  Stmt Lv Lineno    Source Statement           (Hibal 5, Asmedit 3.3)  HLASM R4.0  2004/03/15 13.11
+___    ______ ____    _____ _____  ____ __ ______    ______ _________
0005492 1821                       32040  1                      LR    R2,R1               Copy address
 005494 1BFF                       32041  1                      CLEAR R15                 Set length for MVCL
 005496 0E2E                       32045  1                      MVCL  R2,R14              Clear trace table
 005498                            32046                       END
                                   32050
                                   32051                         Add TCB to TCBID hash table
                                   32052
 005498 5810 8008/1B00_      00008 32053                       TIDHASH TCBID=TCBID          Get hash queue head
 0054AC D203 8018 1000 00018 00000 32066                       MVC   TCBTIDHQ,@R1        Put new TCB at
 0054B2 5080 1000            00000 32067                       ST    TCBR,@R1             head of queue
                                   32068
 0054B6 1818                       32069                       LR    R1,TCBR             Return TCB address
 0054B8 5019 0008            00008 32070                       PRETURN (R1)
 0054BC 18D9/980C D004_            32072                       PEND
 DROP   *,R11
1AMELIA   CHECKMSS - Check MSS values for new connection                                                                    Page  135
0Current Usings:  (TCB,R8) (NIT,R12)
0Loc    Object Code    Addr1 Addr2  Stmt Lv Lineno    Source Statement           (Hibal 5, Asmedit 3.3)  HLASM R4.0  2004/03/15 13.11
+___    ______ ____    _____ _____  ____ __ ______    ______ _________
0                                  32093
                                   32094
                                   32095                 CHECKMSS -- Set MSS values for new connection
                                   32096

00054CA 90EF C020/4DE0_      00020 32097              CHECKMSS PROC
 USING  *,R11
 0054EE D203 806C BAE6 0006C 05FD4 32139                       MVC   TCBRMSS,=A(MAXTCPLN)  Init our MSS to max TCP size
 0054F4 D603 8070 8070_00070 00070 32140                       IF    (TCBSMSS,Z),BEGIN     If no send MSS from remote host,
 0054FE D203 8070 BAEA 00070 05FD8 32156  1                      MVC   TCBSMSS,=A(512)       Set default of 512
 005504                            32157                       END
 005504 D503 BAEE 8070_05FDC 00070 32161                       IF    (TCBSMSS,GT,MAXTCPLN),BEGIN  If MSS gt max TCP size,
 00550E D203 8070 BAE6 00070 05FD4 32179  1                      MVC   TCBSMSS,=A(MAXTCPLN)         Set to max TCP size
 005514                            32180                       END
                                   32184
                                   32185                         If connection is not to the local network (as defined by
                                   32186                         NITLMASK), truncate MSS values to 964 so packets don't
                                   32187                         exceed the IMP MTU of 1006, to avoid packet fragmentation
                                   32188                         by external gateways.
                                   32189
 005514 5800 C034            00034 32190                       L     R0,NITIP            Our IP address
 005518 5810 8028            00028 32191                       L     R1,TCBIPADD         Remote host IP address
 00551C 5400 C044            00044 32192                       N     R0,NITLMASK         Isolate local net
 005520 5410 C044            00044 32193                       N     R1,NITLMASK
 005524 1901/4780 B052             32194                       IF    (R0,NE,R1),BEGIN    If not local net,
 00552A D203 806C BAF2 0006C 05FE0 32209  1                      MVC   TCBRMSS,=A(964)     Reset our receive MSS
 005530 D503 BAF6 8070_05FE4 00070 32210  1                      IF    (TCBSMSS,GT,964),'MVC TCBSMSS,=A(964)'
 005540                            32234                       END
 005540 18D9/980C D004_            32238                       PEND
 DROP   *,R11
1AMELIA   ABORTTCB - Abort current TCP connection                                                                           Page  136
0Current Usings:  (TCB,R8) (NIT,R12)
0Loc    Object Code    Addr1 Addr2  Stmt Lv Lineno    Source Statement           (Hibal 5, Asmedit 3.3)  HLASM R4.0  2004/03/15 13.11
+___    ______ ____    _____ _____  ____ __ ______    ______ _________
0                                  32259
                                   32260
                                   32261                 ABORTTCB -- Abort TCP connection.
                                   32262
                                   32263                   On entry:
                                   32264                     R0,R1 - message text length and address
                                   32265

000554E 90EF C020/4DE0_      00020 32266              ABORTTCB PROC
 USING  *,R11
 005572 1820                       32308                       LR    R2,R0               Save msg len and addr
 005574 1831                       32309                       LR    R3,R1
                                   32310            C          IF    ((TCBSTATE,NE,CLOSED),AND,   If not CLOSED state
 005576 9500 8230/4780_00230                                         (TCBSTATE,NE,TIMEWAIT)),BEGIN  and not TIMEWAIT state
 005586 9180 8232/47E0_00232       32345  1                      IF    TCBFCONN,BEGIN      If connect sent to user,
 00558E 4110 B996/4100_      05F08 32360  2                        SEG   LA:=CL16'TCP_ABORT:',16,NITPSG   Send abort message
 0055A0 4110 800C/4100_      0000C 32387  2                        SEG   TCBUID                             to path
 0055B2 1813/1802/41F0_            32414  2                        SEG   (R3),(R2)
 0055C0 58E0 BA7A/0DEE       05FEC 32439  2                        ACALL SENDPATH
 0055C6                            32443  1                      END
                                   32447  1
                                   32448  1                        Log connection status
                                   32449  1
                                   32450  1         C            IF    ((@R3,NE,'ERROR: UNKNOWN HOST'),AND,
                                          1         C                  (TCBLPORT,NE,23),AND,
                                          1         C                  (TCBRPORT,NE,23),AND,
 0055C6 D512 BAC3 3000_06035 00000        1                            (TCBRPORT,NE,25)),BEGIN
                                   32513  2           **       SEG   'TCP ID=',,NITPRSG
                                   32514  2           **       SEGDC TCBID
                                   32515  2           **       SEGB  ' Aborted:'
                                   32516  2           **       SEGWR (R3),(R2)
                                   32517  2           **       LA    R0,4                Short format
                                   32518  2           **       LR    R1,TCBR             TCB address
                                   32519  2           **       LA    R15,NITPRSG         SEGCB
                                   32520  2           **       ACALL FMTTCB              Log TCB status
 0055EE                            32521  1                      END
                                   32525  1
 0055EE                            32526                       END
                                   32530
 0055EE 9200 8230      00230       32531                       MVI   TCBSTATE,CLOSED     Mark connection closed
 0055F2 D703 80A8 80A8 000A8 000A8 32532                       CLEAR TCBTIMER            Turn off any active timer
 0055F8 94FE 8231      00231       32539                       CLEAR TCBFXOFF            Turn off STOP flag
 0055FC 58E0 BA86/0DEE       05FF8 32546                       ACALL SNDPATHQ            Force send of any q'd path messages
 005602 58E0 BA8A/0DEE       05FFC 32550                       ACALL CLOSETCB            Try to delete connection
 005608 18D9/980C D004_            32554                       PEND
 DROP   *,R11
1AMELIA   ENDTCB - TIMEWAIT interval expiration routine                                                                     Page  137
0Current Usings:  (TCB,R8) (NIT,R12)
0Loc    Object Code    Addr1 Addr2  Stmt Lv Lineno    Source Statement           (Hibal 5, Asmedit 3.3)  HLASM R4.0  2004/03/15 13.11
+___    ______ ____    _____ _____  ____ __ ______    ______ _________
0                                  32575
                                   32576
                                   32577                 ENDTCB -- End of TIMEWAIT expiration interval
                                   32578

0005616 90EF C020/4DE0_      00020 32579              ENDTCB   PROC
 USING  *,R11
 00563A 9200 8230      00230       32621                       MVI   TCBSTATE,CLOSED     Mark TCB closed
 00563E 58E0 B9C2/0DEE       05FFC 32622                       ACALL CLOSETCB            Try to close now
 005644 18D9/980C D004_            32626                       PEND
 DROP   *,R11
1AMELIA   CLOSETCB - close current TCB                                                                                      Page  138
0Current Usings:  (TCB,R8) (NIT,R12)
0Loc    Object Code    Addr1 Addr2  Stmt Lv Lineno    Source Statement           (Hibal 5, Asmedit 3.3)  HLASM R4.0  2004/03/15 13.11
+___    ______ ____    _____ _____  ____ __ ______    ______ _________
0                                  32647
                                   32648
                                   32649                 CLOSETCB -- Close current TCB
                                   32650

0005652 90EF C020/4DE0_      00020 32651              CLOSETCB PROC
 USING  *,R11
                                   32693
                                   32694                         Delete TCB if we haven't sent any path messages yet.
                                   32695
 005676 9180 8232/4710_00232       32696                       IF    ~TCBFCONN,BEGIN     If no connect message sent,
 00567E 58E0 B98A/0DEE       06000 32711  1                      ACALL DELTCB
 005684 47F0 B068            056DE 32715  1                      EXIT  CLOSETCB
 005688                            32718                       END
                                   32722
                                   32723                         If CLOSE message received from path, send our CLOSE now
                                   32724                          and delete TCB if path message queue empty
                                   32725
 005688 9120 8232/47E0_00232       32726                       IF    TCBFRCLO,BEGIN      If TCP_CLOSE path msg received,
 005690 9110 8232/4710_00232       32741  1                      IF    ~TCBFSCLO,BEGIN     If TCP_CLOSE msg not sent yet,
 005698 9610 8232      00232       32756  2                        SET   TCBFSCLO                         Set flag
 00569C 4110 B8A2/4100_      05F18 32762  2                        SEG   LA:=CL16'TCP_CLOSE:',16,NITPSG   Send message now
 0056AE 4110 800C/4100_      0000C 32789  2                        SEG   TCBUID
 0056C0 58E0 B976/0DEE       05FEC 32816  2                        ACALL SENDPATH
 0056C6                            32820  1                      END
                                   32824  1         C            IF    ((TCBSTATE,EQ,CLOSED),AND,  If TCB closed,
 0056C6 9500 8230/4770_00230              1                            (TCBPATHQ,Z)),BEGIN            and path queue empty,
 0056D8 58E0 B98A/0DEE       06000 32857  2                        ACALL DELTCB                      Delete TCB
 0056DE                            32861  1                      END
 0056DE                            32865                       END
 0056DE 18D9/980C D004_            32869                       PEND
 DROP   *,R11
1AMELIA   KILLTCP - process KILL command                                                                                    Page  139
0Current Usings:  (TCB,R8) (NIT,R12)
0Loc    Object Code    Addr1 Addr2  Stmt Lv Lineno    Source Statement           (Hibal 5, Asmedit 3.3)  HLASM R4.0  2004/03/15 13.11
+___    ______ ____    _____ _____  ____ __ ______    ______ _________
0                                  32890
                                   32891
                                   32892                 KILLTCB - process KILL command.
                                   32893
                                   32894                   On entry:
                                   32895                     R1  - TCB id
                                   32896
                                   32897                   On exit:
                                   32898                     R15 - RC (0=OK, 4=Bad id)
                                   32899

00056EC 90EF C020/4DE0_      00020 32900              KILLTCB  PROC
 USING  *,R11
 005710 18F1                       32942                       LR    R15,R1              Copy TCB id
 005712 58E0 B8F4/0DEE       06004 32943                       ACALL GETTCB              Get TCB address
 005718 4770 B014/41F0_      05724 32947                       IF    Z,'LA R15,4; EXIT KILLTCB'  Check for bad id
 005724 188F                       32967                       LR    TCBR,R15            Copy TCB address
                                   32968
 005726 58E0 B8F8/0DEE       06008 32969                       ACALL SENDRST             Will send RST if have rmt host
                                   32973            C          IF    (~TCBFUID,OR,       If no user id,
 00572C 9140 8231/47E0_00231                                         (TCBSTATE,EQ,CLOSED)),BEGIN    or dead TCB
 00573C 58E0 B8F0/0DEE       06000 33005  1                      ACALL DELTCB                       Just delete it
 005742                            33009                       END
 005742 B036/47F0 B044 05742 0573A 33013                       ELSE  BEGIN               Else send abort to path first
 005746 4110 B916/4100_      06026 33024  1                      SETMSG 'KILLED'            Abort reason text
 00574E 58E0 B87C/0DEE       05F8C 33028  1                      ACALL ABORTTCB            Send path message
 005754                            33032                       END
 005754 1BFF                       33036                       CLEAR R15                 Set RC
 005756 18D9/980C D004_            33040                       PEND
 DROP   *,R11
1AMELIA   DELTCB - delete current TCB                                                                                       Page  140
0Current Usings:  (TCB,R8) (NIT,R12)
0Loc    Object Code    Addr1 Addr2  Stmt Lv Lineno    Source Statement           (Hibal 5, Asmedit 3.3)  HLASM R4.0  2004/03/15 13.11
+___    ______ ____    _____ _____  ____ __ ______    ______ _________
0                                  33061
                                   33062
                                   33063                 DELTCB -- Delete current TCB
                                   33064

0005764 90EF C020/4DE0_      00020 33065              DELTCB   PROC
 USING  *,R11
 005788 D503 B838 8000_05FC0 00000 33107                       IF    (TCB,NE,'TCB '),'FAIL "Bad TCB address"'
 00579C D603 802C 802C_0002C 0002C 33133                       WHILE (TCBIPCHN,NZ),BEGIN   Free IP address entry chain
 0057A6 5810 802C            0002C 33151  1                      L     R1,TCBIPCHN
 0057AA D203 802C 1000 0002C 00000 33152  1                      MVC   TCBIPCHN,@R1
 0057B0 58E0 B814/0DEE       05F9C 33153  1                      ACALL FREECORE
 0057B6 47F0 B014            0579C 33157                       END
                                   33162
 USING  TCBQHDR,R1                 33163                       WITH  (TCBQHDR,R1)        ## TCBQHDR
 0057BA D603 80B0 80B0_000B0 000B0 33176                       WHILE (TCBSENDQ,NZ),BEGIN   Free send queue entries
 0057C4 5810 80B0            000B0 33194  1                      L     R1,TCBSENDQ
 0057C8 D203 80B0 1000 000B0 00000 33195  1                      MVC   TCBSENDQ,TCBQNEXT
 0057CE 58E0 B814/0DEE       05F9C 33196  1                      ACALL FREECORE
 0057D4 47F0 B032            057BA 33200                       END
                                   33205
 0057D8 D603 80B4 80B4_000B4 000B4 33206                       WHILE (TCBPATHQ,NZ),BEGIN   Free path queue entries
 0057E2 5810 80B4            000B4 33224  1                      L     R1,TCBPATHQ
 0057E6 D203 80B4 1000 000B4 00000 33225  1                      MVC   TCBPATHQ,TCBQNEXT
 0057EC 58E0 B814/0DEE       05F9C 33226  1                      ACALL FREECORE
 0057F2 47F0 B050            057D8 33230                       END
                                   33235
 0057F6 D603 80B8 80B8_000B8 000B8 33236                       WHILE (TCBOUTSQ,NZ),BEGIN   Free out-of-seq queue entries
 005800 5810 80B8            000B8 33254  1                      L     R1,TCBOUTSQ
 005804 D203 80B8 1000 000B8 00000 33255  1                      MVC   TCBOUTSQ,TCBQNEXT
 00580A 58E0 B814/0DEE       05F9C 33256  1                      ACALL FREECORE
 005810 47F0 B06E            057F6 33260                       END
                                   33265
 005814 D603 80F4 80F4_000F4 000F4 33266                       IF    (TCBTRADD,NZ),BEGIN   Free trace table
 00581E 5810 80F4            000F4 33282  1                      L     R1,TCBTRADD
 005822 58E0 B814/0DEE       05F9C 33283  1                      ACALL FREECORE
 005828                            33287                       END
 DROP   TCBQHDR,R1                 33291                       DROP  R1                  ## TCBQHDR
                                   33298
                                   33299                         Delete TCB from TCBID hash queue
                                   33300
 005828 5810 8008/1B00_      00008 33301                       TIDHASH TCBID=TCBID       Get hash queue head
 00583C 58F0 1000            00000 33314                       L     R15,@R1             Get first TCB in queue (or 0)
 005840 19F8/4770 B0C4             33315                       IF    (R15,EQ,TCBR),BEGIN  If this TCB at head of q,
 005846 D203 1000 8018 00000 00018 33330  1                      MVC   @R1(4),TCBTIDHQ      Dequeue our TCB
 00584C                            33331                       END
 00584C B0C8/47F0 B0F6 0584C 05844 33335                       ELSE  BEGIN               Else search queue
 005850                            33346  1           DELTCBID   LOOP  BEGIN
 005850 D503 B838 F000_05FC0 00000 33353  2                        IF    (@R15,NE,'TCB '),'FAIL "TCBID HASH Q ERROR"'
 005864 598F 0018/4770_      00018 33378  2                        IF    (TCBR,EQ,TCBTIDHQ-TCB(R15)),BEGIN  If found match,
 00586C D203 F018 8018 00018 00018 33395  3                          MVC   TCBTIDHQ-TCB(,R15),TCBTIDHQ         Dequeue TCB
 005872 47F0 B0F6            0587E 33396  3                          EXIT  DELTCBID
 005876                            33399  2                        END
1AMELIA   DELTCB - delete current TCB                                                                                       Page  141
0Current Usings:  (TCB,R8) (*,R11) (NIT,R12)
0Loc    Object Code    Addr1 Addr2  Stmt Lv Lineno    Source Statement           (Hibal 5, Asmedit 3.3)  HLASM R4.0  2004/03/15 13.11
+___    ______ ____    _____ _____  ____ __ ______    ______ _________
0005876 58FF 0018            00018 33403  2                        L     R15,TCBTIDHQ-TCB(R15)   Chain to next hash queue entry
 00587A 47F0 B0C8            05850 33404  1                      END
 00587E                            33409                       END
                                   33413
                                   33414                         Delete TCB from IP address hash queue
                                   33415
 00587E 9101 8232/47E0_00232       33416                       IF    TCBFIPHQ,BEGIN      If on hash queue,
 005886 1B00/BF1C 8026_            33431  1                      IPHASH IP=TCBIPADD,LPORT=TCBLPORT+2,RPORT=TCBRPORT+2
 0058AA 58F0 1000            00000 33445  1                      L     R15,@R1             Get first TCB in queue (or 0)
 0058AE 19F8/4770 B132             33446  1                      IF    (R15,EQ,TCBR),BEGIN  If this TCB at head of q,
 0058B4 D203 1000 8014 00000 00014 33461  2                        MVC   @R1(4),TCBIPAHQ      Dequeue our TCB
 0058BA                            33462  1                      END
 0058BA B136/47F0 B164 058BA 058B2 33466  1                      ELSE  BEGIN               Else search queue
 0058BE                            33477  2           DELTCBIP     LOOP  BEGIN
 0058BE D503 B838 F000_05FC0 00000 33484  3                          IF    (@R15,NE,'TCB '),'FAIL "IP ADDR HASH Q ERROR"'
 0058D2 598F 0014/4770_      00014 33509  3                          IF    (TCBR,EQ,TCBIPAHQ-TCB(R15)),BEGIN  If found match,
 0058DA D203 F014 8014 00014 00014 33526  4                            MVC   TCBIPAHQ-TCB(,R15),TCBIPAHQ         Dequeue TCB
 0058E0 47F0 B164            058EC 33527  4                            EXIT  DELTCBIP
 0058E4                            33530  3                          END
 0058E4 58FF 0014            00014 33534  3                          L     R15,TCBIPAHQ-TCB(R15)   Chain to next hash queue entry
 0058E8 47F0 B136            058BE 33535  2                        END
 0058EC                            33540  1                      END
 0058EC                            33544                       END
                                   33548
 0058EC D703 8000 C23C 00000 0023C 33549                       XC    TCB(4),NITBLANK     Change ID field
                                   33550
 0058F2 1818                       33551                       LR    R1,TCBR             Addr of TCB to delete
 0058F4 4180 C0CC            000CC 33552                       LA    TCBR,NITTCBQ-(TCBNEXT-TCB)   Init TCB queue pointer
 0058F8 5910 8004/4780_      00004 33553                       WHILE (R1,NE,TCBNEXT),BEGIN        Search for prev TCB
 005900 5880 8004            00004 33572  1                      L     TCBR,TCBNEXT
 005904 47F0 B170            058F8 33573                       END
 005908 D203 8004 1004 00004 00004 33578                       MVC   TCBNEXT,TCBNEXT-TCB(R1)  Dequeue TCB
 00590E 58E0 B814/0DEE       05F9C 33579                       ACALL FREECORE                 Free storage
 005914 18D9/980C D004_            33583                       PEND
 DROP   *,R11
1AMELIA   TCPTIMER - TCP timer routine                                                                                      Page  142
0Current Usings:  (TCB,R8) (NIT,R12)
0Loc    Object Code    Addr1 Addr2  Stmt Lv Lineno    Source Statement           (Hibal 5, Asmedit 3.3)  HLASM R4.0  2004/03/15 13.11
+___    ______ ____    _____ _____  ____ __ ______    ______ _________
0                                  33606
                                   33607
                                   33608                 TCPTIMER -- TCP timer routine, entered at 1  second intervals.
                                   33609                             For each TCB, decrement  current timer value and
                                   33610                             enter the timer routine if the timer has expired.
                                   33611
                                   33612                             Also checks to see if keepalive packet should be
                                   33613                             sent to the remote host.
                                   33614

0005922 90EF C020/4DE0_      00020 33615              TCPTIMER PROC
 USING  *,R11
 005946 1B55                       33657                       CLEAR R5                  Clear debug reg
 005948 5860 C0D0            000D0 33661                       L     R6,NITTCBQ          TCB queue head
 00594C 1266/4780 B162             33662              TCPTMNXT WHILE (R6,NZ),BEGIN
 005952 1858                       33679  1                      LR    R5,TCBR             Save prev for debugging
 005954 1886                       33680  1                      LR    TCBR,R6             Set current TCB base
 005956 5860 8004            00004 33681  1                      L     R6,TCBNEXT          Get next TCB address
                                   33682  1
 00595A D503 B67A 8000_05FC0 00000 33683  1                      IF    (TCB,NE,'TCB '),BEGIN
 005964 0ADE/08FF00008_            33700  2                        QSNAP TCB,255
 00596C D217 C21C B62A_0021C 05F70 33704  2                        FAIL  'Bad TCB chain'
 005976                            33708  1                      END
                                   33712  1
 005976 5800 80A8            000A8 33713  1                      L     R0,TCBTIMER         Get timer value
 00597A 1200/47D0 B050             33714  1                      IF    (R0,P),BEGIN        If timer set,
 005980 0600                       33728  2                        DECR  R0                  Decrement
 005982 5000 80A8            000A8 33730  2                        ST    R0,TCBTIMER         Set new value
 005986 1200/4770 B04C             33731  2                        IF    (R0,Z),BEGIN        If timer expired,
 00598C 58F0 80AC            000AC 33745  3                          L     R15,TCBTMXIT        Get timer exit address
 005990 05EF                       33746  3                          BALR  R14,R15             Enter timer exit routine
 005992                            33747  2                        END
 005992 47F0 B006            0594C 33751  2                        B     TCPTMNXT            Go to next TCB
 005996                            33752  1                      END
                                   33756  1
                                   33757  1                        Check for idle timeout on connection
                                   33758  1
 005996 D603 8088 8088_00088 00088 33759  1                      IF    (TCBIDLTM,NZ),BEGIN   If idle timeout interval set,
 0059A0 9500 8230/4780_00230       33775  2                        IF    (TCBSTATE,EQ,CLOSED),EXIT  Skip if closed
 0059A8 9501 8230/4780_00230       33796  2                        IF    (TCBSTATE,EQ,LISTEN),EXIT  Skip if listen TCB
 0059B0 5800 C344            00344 33817  2                        L     R0,NITCLOCK         Compute interval since
 0059B4 5F00 8110            00110 33818  2                        SL    R0,TCBSDATT           last data transmit
 0059B8 5810 C344            00344 33819  2                        L     R1,NITCLOCK         Compute interval since
 0059BC 5F10 81A4            001A4 33820  2                        SL    R1,TCBRDATT           last data received
                                   33821  2         C              IF    (('CL R0,TCBIDLTM',H),AND,  If both are over
 0059C0 5500 8088/47D0_      00088        2                              ('CL R1,TCBIDLTM',H)),BEGIN    idle time limit,
 0059D0 4110 B702/4100_      06048 33846  3                          SEGWR 'Idle time exceeded for connection',,NITPRSG
 0059E2 1B00                       33864  3                          CLEAR R0                  Standard format requested
 0059E4 1818                       33868  3                          LR    R1,TCBR             TCB address
 0059E6 41F0 C4B0            004B0 33869  3                          LA    R15,NITPRSG         SEGCB
 0059EA 58E0 B6CA/0DEE       06010 33870  3                          ACALL FMTTCB              Log TCB info
 0059F0 4110 B6E8/4100_      0602E 33874  3                          SETMSG 'TIMEOUT'           Do timeout abort
 0059F8 58E0 B646/0DEE       05F8C 33878  3                          ACALL ABORTTCB
1AMELIA   TCPTIMER - TCP timer routine                                                                                      Page  143
0Current Usings:  (TCB,R8) (*,R11) (NIT,R12)
0Loc    Object Code    Addr1 Addr2  Stmt Lv Lineno    Source Statement           (Hibal 5, Asmedit 3.3)  HLASM R4.0  2004/03/15 13.11
+___    ______ ____    _____ _____  ____ __ ______    ______ _________
00059FE 47F0 B006            0594C 33882  3                          B     TCPTMNXT            Go to next TCB
 005A02                            33883  2                        END
 005A02                            33887  1                      END
                                   33891  1
                                   33892  1                        Check if need to probe closed send window
                                   33893  1
 005A02 D603 805C 805C_0005C 0005C 33894  1                      IF    (TCBSNDWN,Z),BEGIN  If send window is 0,
 005A0C 9500 8230/4780_00230       33910  2                        IF    (TCBSTATE,EQ,CLOSED),EXIT  Skip if closed
 005A14 D503 8050 8054_00050 00054 33931  2                        IF    (TCBSNDUN,LT,TCBSNDNX),EXIT  Skip if unacked data
 005A1E D503 8058 8054_00058 00054 33952  2                        IF    (TCBSNDFN,EQ,TCBSNDNX),EXIT  Skip if no unsent data
 005A28 5800 C344            00344 33973  2                        L     R0,NITCLOCK              Get time since
 005A2C 5F00 8068            00068 33974  2                        SL    R0,TCBSNDWT               last window update/probe
 005A30 5900 C0C8/47D0_      000C8 33975  2                        IF    (R0,GT,NITPROBE),BEGIN   If over window probe time,
 005A38 9602 8232      00232       33992  3                          SET   TCBFXKPA                 Flag transmit keepalive
 005A3C 58E0 B64A/0DEE       05F90 33998  3                          ACALL SENDTCP                  Send packet to check window
 005A42 47F0 B006            0594C 34002  3                          B     TCPTMNXT                 Go to next TCB
 005A46                            34003  2                        END
 005A46                            34007  1                      END
                                   34011  1
                                   34012  1                        Check if need to send keep-alive packet
                                   34013  1
 005A46 9104 8232/47E0_00232       34014  1                      IF    TCBFKEEP,BEGIN      If keepalive active,
 005A4E 9500 8230/4780_00230       34029  2                        IF    (TCBSTATE,EQ,CLOSED),EXIT  Skip if closed
 005A56 D503 8050 8054_00050 00054 34050  2                        IF    (TCBSNDUN,LT,TCBSNDNX),EXIT  Skip if unacked data
 005A60 5800 C344            00344 34071  2                        L     R0,NITCLOCK         Compute time since
 005A64 5F00 819C            0019C 34072  2                        SL    R0,TCBRPTIM           last received packet
 005A68 5900 C0C4/47D0_      000C4 34073  2                        IF    (R0,GT,NITKPTMO),BEGIN   If over timeout interval
 005A70 4110 B6E8/4100_      0602E 34090  3                          SETMSG 'TIMEOUT'           Do timeout abort
 005A78 58E0 B646/0DEE       05F8C 34094  3                          ACALL ABORTTCB             of connection
 005A7E                            34098  2                        END
 005A7E B13C/47F0 B15E_05A7E 05A6E 34102  2                        ELSEIF (R0,GT,NITKPBEG),BEGIN  If over begin interval,
 005A8A 5800 C344            00344 34128  3                          L     R0,NITCLOCK         Get time since
 005A8E 5F00 8108            00108 34129  3                          SL    R0,TCBSPTIM          last sent packet
 005A92 5900 C0C0/47D0_      000C0 34130  3                          IF    (R0,GT,NITKPRET),BEGIN    If over retry interval,
 005A9A 9602 8232      00232       34147  4                            SET   TCBFXKPA                  Flag transmit keepalive
 005A9E 58E0 B64A/0DEE       05F90 34153  4                            ACALL SENDTCP                   Go send packet
 005AA4                            34157  3                          END
 005AA4                            34161  2                        END
 005AA4                            34165  1                      END
 005AA4 47F0 B006            0594C 34169                       END
 005AA8 18D9/980C D004_            34174                       PEND
 DROP   *,R11
1AMELIA   GETSRTT - Get TCP retransmit time interval                                                                        Page  144
0Current Usings:  (TCB,R8) (NIT,R12)
0Loc    Object Code    Addr1 Addr2  Stmt Lv Lineno    Source Statement           (Hibal 5, Asmedit 3.3)  HLASM R4.0  2004/03/15 13.11
+___    ______ ____    _____ _____  ____ __ ______    ______ _________
0                                  34195
                                   34196
                                   34197                 GETSRTT - Compute smoothed retransmit time interval
                                   34198
                                   34199                  Implements the retransmit time algorithm from RFC-889
                                   34200
                                   34201                  Smoothed round-trip time computed from the formula
                                   34202
                                   34203                         SRTT = SRTT*(1-f) + f*RTT
                                   34204                     or  SRTT = f*(RTT-SRTT) + SRTT
                                   34205
                                   34206                       f = 1/16  RTT lt SRTT
                                   34207                       f = 1/4   RTT ge SRTT
                                   34208

0005AB6 90EF C020/4DE0_      00020 34209              GETSRTT  PROC
 USING  *,R11
 005ADA B205 D000      00000       34251                       STCK  @R13                Get current time
 005ADE 9801 D000            00000 34252                       LM    R0,R1,@R13
 005AE2 5F10 8094/47B0_      00094 34253                       SDL   R0,TCBXTIME         Get packet round-trip time
 005AF0 5F10 80A0/47B0_      000A0 34258                       SDL   R0,R1,TCBSRTT       Get RTT-SRTT
 005AFE 1200/47B0 B02E             34263                       IF    (R0,M),BEGIN        If RTT lt SRTT,
 005B04 8E00 0004            00004 34277  1                      SRDA  R0,4                Use f = 1/16
 005B08                            34278                       END
 005B08 B032/47F0 B036 05B08 05B02 34282                       ELSE  BEGIN               Else RTT ge SRTT,
 005B0C 8E00 0002            00002 34293  1                      SRDA  R0,2                Use f = 1/4
 005B10                            34294                       END
                                   34298
 005B10 5E10 80A0/47C0_      000A0 34299                       ADL   R0,TCBSRTT          Compute new SRTT
 005B20 5900 B53A/47D0_      06014 34320                       CEIL  R0,MAXSRTT          Keep from getting too large
 005B2C 9001 809C            0009C 34339                       STM   R0,R1,TCBSRTT       Save in TCB
 005B30 18D9/980C D004_            34340                       PEND
 DROP   *,R11
1AMELIA   GETTCB - Get TCB address from TCB id                                                                              Page  145
0Current Usings:  (TCB,R8) (NIT,R12)
0Loc    Object Code    Addr1 Addr2  Stmt Lv Lineno    Source Statement           (Hibal 5, Asmedit 3.3)  HLASM R4.0  2004/03/15 13.11
+___    ______ ____    _____ _____  ____ __ ______    ______ _________
0                                  34361
                                   34362
                                   34363                 GETTCB -- Get TCB address using TCBID
                                   34364
                                   34365                   On entry:
                                   34366                     R15 = TCB id
                                   34367
                                   34368                   On exit:
                                   34369                     R15 = TCB address (or zero)
                                   34370

0005B3E 90EF C020/4DE0_      00020 34371              GETTCB   PROC
 USING  *,R11
 005B62 182F                       34413                       LR    R2,R15              Copy TCB id
 005B64 1812/1B00/5D00_            34414                       TIDHASH TCBID=(R2)        Get hash queue head
 005B76 5880 1000            00000 34427                       L     TCBR,@R1            Get first TCB in queue
                                   34428            C          WHILE ((TCBR,NZ),AND,     Look for matching ID
 005B7A 1288/4780 B02E_                                              (R2,NE,TCBID)),'L TCBR,TCBTIDHQ'
 005B90 18F8                       34467                       LR    R15,TCBR            Return TCB addr (or zero)
 005B92 18D9/980C D004_            34468                       PEND
 DROP   *,R11
1AMELIA   SENDPATH - Send TCP message over path                                                                             Page  146
0Current Usings:  (TCB,R8) (NIT,R12)
0Loc    Object Code    Addr1 Addr2  Stmt Lv Lineno    Source Statement           (Hibal 5, Asmedit 3.3)  HLASM R4.0  2004/03/15 13.11
+___    ______ ____    _____ _____  ____ __ ______    ______ _________
0                                  34489
                                   34490
                                   34491                 SENDPATH -- Send message over path
                                   34492
                                   34493                   On entry, message contained in path SEG buffer.  If we
                                   34494                    can't send the message, add it to the TCB path queue.
                                   34495

0005BA0 90EF C020/4DE0_      00020 34496              SENDPATH PROC
 USING  *,R11
 005BC4 4150 C1EC            001EC 34538                       LA    R5,NITPSG           Path SEGCB address
 USING  SEGCB,R5                   34539                       WITH  (SEGCB,R5)
 005BC8 5820 5010            00010 34552                       L     R2,SEGCBLOC         Get data address
 005BCC 4830 5006            00006 34553                       LH    R3,SEGCBLEN         Get data length
 005BD0 D603 80B4 80B4_000B4 000B4 34554                       IF    (TCBPATHQ,Z),BEGIN  If path queue empty,
                                   34570  1         C            IF    (~TCBFUID,AND,      Don't send if no user path id
 005BDA 9140 8231/4710_00231              1                            (@R2,NE,'TCP_CONNECT')),EXIT  and not connect msg,
                                   34603  1         C            IF    (TCBFXOFF,AND,      Exit if received TCP_STOP
 005BEC 9101 8231/47E0_00231              1                            (@R2,NE,'TCP_START')),EXIT   and not TCP_START msg
 005BFE 5860 C124            00124 34636  1                      L     R6,NITPCUR          Save current path id
 005C02 D203 C124 8010 00124 00010 34637  1                      MVC   NITPCUR,TCBPATH     Set current path id
 005C08 1B00/18F5/58E0_            34638  1                      SEGWR ,,(R5)              Try to send data
 005C12 5060 C124            00124 34660  1                      ST    R6,NITPCUR          Restore current path id
                                   34661  1
 005C16 1803                       34662  1                      LR    R0,R3               Copy msg len
 005C18 1812                       34663  1                      LR    R1,R2               Copy msg pointer
 005C1A 58E0 B3E8/0DEE       05FAC 34664  1                      ACALL TCPTRACE            Call trace routine
                                   34668  1
 005C20 59F0 B454/4780_      06018 34669  1                      IF    (R15,NE,UPATRBAF),'EXIT SENDPATH'  Exit if not full q,
 005C2C                            34694                       END
                                   34698
                                   34699                         Add message to TCB path queue.
                                   34700
 005C2C 4140 80B4            000B4 34701                       LA    R4,TCBPATHQ-(TCBQNEXT-TCBQHDR)
 USING  TCBQHDR,R4                 34702                       WITH  (TCBQHDR,R4)
 005C30 D603 4000 4000_00000 00000 34715                       WHILE (TCBQNEXT,NZ),'L R4,TCBQNEXT'  Find end of queue
 005C42 4103 000C            0000C 34740                       LA    R0,L'TCBQHDR(R3)    Queue entry length
 005C46 58E0 B458/0DEE       0601C 34741                       ACALL GETBUF              Get memory
 005C4C 5010 4000            00000 34745                       ST    R1,TCBQNEXT         Chain area to end of queue
 005C50 1841                       34746                       LR    R4,R1               New TCBQ pointer
 005C52 D703 4000 4000 00000 00000 34747                       CLEAR TCBQNEXT            Clear chain pointer
 005C58 5030 4004            00004 34754                       ST    R3,TCBQLEN          Set data length
 005C5C 41E0 400C/18F3_      0000C 34755                       MOVEL TCBQDATA,(R2),(R3)  Move data to buffer
 005C68 18F5/58E0 B45C_            34775                       SEGCLR (R5)               Clear SEGCB
 005C70 18D9/980C D004_            34786                       PEND
 DROP   TCBQHDR,R4
 DROP   SEGCB,R5
 DROP   *,R11
1AMELIA   SNDPATHQ -- Send queued TCP path messages                                                                         Page  147
0Current Usings:  (TCB,R8) (NIT,R12)
0Loc    Object Code    Addr1 Addr2  Stmt Lv Lineno    Source Statement           (Hibal 5, Asmedit 3.3)  HLASM R4.0  2004/03/15 13.11
+___    ______ ____    _____ _____  ____ __ ______    ______ _________
0                                  34817
                                   34818
                                   34819                 SNDPATHQ -- Send queued path messages.
                                   34820

0005C7E 90EF C020/4DE0_      00020 34821              SNDPATHQ PROC
 USING  *,R11
 005CA2 9101 8231/4710_00231       34863                       IF    TCBFXOFF,EXIT       Return if received TCP_STOP
 005CAA D603 80B4 80B4_000B4 000B4 34881                       IF    (TCBPATHQ,Z),EXIT   Return if path queue empty
 005CB4 9140 8231/47E0_00231       34900                       IF    ~TCBFUID,EXIT       Return if no partner uid yet
                                   34918
 005CBC D603 80B4 80B4_000B4 000B4 34919                       WHILE (TCBPATHQ,NZ),BEGIN
 005CC6 5840 80B4            000B4 34937  1                      L     R4,TCBPATHQ         Get first path queue entry
 USING  TCBQHDR,R4                 34938  1                      WITH  (TCBQHDR,R4)
 005CCA 4110 400C            0000C 34951  1                      LA    R1,TCBQDATA         Data address
 005CCE 5800 4004            00004 34952  1                      L     R0,TCBQLEN          Data length
 005CD2 5860 C124            00124 34953  1                      L     R6,NITPCUR          Save current path
 005CD6 D203 C124 8010 00124 00010 34954  1                      MVC   NITPCUR,TCBPATH     Set current path id
 005CDC 41F0 C1EC/58E0_      001EC 34955  1                      SEGWR (R1),(R0),NITPSG    Try to send data
 005CE6 5060 C124            00124 34979  1                      ST    R6,NITPCUR          Restore current path id
                                   34980  1
 005CEA 4110 400C            0000C 34981  1                      LA    R1,TCBQDATA         Data address
 005CEE 5800 4004            00004 34982  1                      L     R0,TCBQLEN          Data length
 005CF2 58E0 B30A            05FAC 34983  1                      L     R14,=A(TCPTRACE)    Call path message
 005CF6 0DEE                       34984  1                      BASR  R14,R14               trace routine
                                   34985  1
 005CF8 59F0 B376/4780_      06018 34986  1                      IF    (R15,EQ,UPATRBAF),EXIT   Exit if SCOM buffer full
 005D00 D203 80B4 4000 000B4 00000 35006  1                      MVC   TCBPATHQ,TCBQNEXT        Dequeue path queue entry
 005D06 1814                       35007  1                      LR    R1,R4                    Free storage for entry
 005D08 58E0 B2FA/0DEE       05F9C 35008  1                      ACALL FREECORE
 005D0E 47F0 B01A            05CBC 35012                       END
 DROP   TCBQHDR,R4
                                   35022
                                   35023            C          IF    ((TCBPATHQ,Z),AND,    If path queue emptied,
 005D12 D603 80B4 80B4_000B4 000B4                                   (TCBRCVWN,LT,TCBRMSS)),BEGIN   and low receive window
 005D26 58E0 B2EE/0DEE       05F90 35056  1                      ACALL SENDTCP               Update rcv window and send packet
 005D2C                            35060                       END
                                   35064
 005D2C 18D9/980C D004_            35065                       PEND
 DROP   *,R11
1AMELIA   TCPFULLQ -- TCP path full queue cleared routine                                                                   Page  148
0Current Usings:  (TCB,R8) (NIT,R12)
0Loc    Object Code    Addr1 Addr2  Stmt Lv Lineno    Source Statement           (Hibal 5, Asmedit 3.3)  HLASM R4.0  2004/03/15 13.11
+___    ______ ____    _____ _____  ____ __ ______    ______ _________
0                                  35086
                                   35087
                                   35088                 TCPFULLQ -- Called when path full queue condition cleared.
                                   35089
                                   35090                   On entry:
                                   35091                     R1  - path address
                                   35092

0005D3A 90EF C020/4DE0_      00020 35093              TCPFULLQ PROC
 USING  *,R11
 005D5E 1821                       35135                       LR    R2,R1               Copy path address
 005D60 5880 C0D0            000D0 35136                       L     TCBR,NITTCBQ        TCB queue head
 005D64 1288/4780 B04E             35137                       WHILE (TCBR,NZ),BEGIN
 005D6A 5830 8004            00004 35153  1                      L     R3,TCBNEXT          Save next TCB address
                                   35154  1         C            IF    ((R2,EQ,TCBPATH),AND,  If path address match
 005D6E 5920 8010/4770_      00010        1                            (TCBPATHQ,NZ)),BEGIN    and data queued for path,
 005D80 58E0 B29A/0DEE       05FF8 35186  2                        ACALL SNDPATHQ              Try to send it now
                                   35190  2         C              IF    (TCBFSCLO,AND,          If CLOSE message sent,
                                          2         C                    (TCBSTATE,EQ,CLOSED),AND, and connection closed
 005D86 9110 8232/47E0_00232              2                              (TCBPATHQ,Z)),BEGIN         and path queue empty,
 005DA0 58E0 B2A2/0DEE       06000 35235  3                          ACALL DELTCB                        Delete TCB now
 005DA6                            35239  2                        END
 005DA6                            35243  1                      END
 005DA6 1883                       35247  1                      LR    TCBR,R3             Next TCB address
 005DA8 47F0 B006            05D64 35248                       END
 005DAC 18D9/980C D004_            35253                       PEND
 DROP   *,R11
1AMELIA   TCPPCLOS -- TCP path close routine                                                                                Page  149
0Current Usings:  (TCB,R8) (NIT,R12)
0Loc    Object Code    Addr1 Addr2  Stmt Lv Lineno    Source Statement           (Hibal 5, Asmedit 3.3)  HLASM R4.0  2004/03/15 13.11
+___    ______ ____    _____ _____  ____ __ ______    ______ _________
0                                  35274
                                   35275
                                   35276                 TCPPCLOS -- Path close routine.  Called when a path has been
                                   35277                              closed by the partner.  Abort any TCP connections
                                   35278                              associated with the path.
                                   35279
                                   35280                   On entry:
                                   35281                     R1  - path address
                                   35282

0005DBA 90EF C020/4DE0_      00020 35283              TCPPCLOS PROC
 USING  *,R11
 005DDE 1821                       35325                       LR    R2,R1               Copy path address
 005DE0 5880 C0D0            000D0 35326                       L     TCBR,NITTCBQ        TCB queue head
 005DE4 1288/4780 B02A             35327                       WHILE (TCBR,NZ),BEGIN
 005DEA 5830 8004            00004 35343  1                      L     R3,TCBNEXT          Get next TCB address
 005DEE 5920 8010/4770_      00010 35344  1                      IF    (TCBPATH,EQ,R2),BEGIN  If TCB using this path,
 005DF6 58E0 B22A/0DEE       06008 35361  2                        ACALL SENDRST                Send reset to remote host
 005DFC 58E0 B222/0DEE       06000 35365  2                        ACALL DELTCB                 Delete this TCB
 005E02                            35369  1                      END
 005E02 1883                       35373  1                      LR    TCBR,R3             Next TCB address
 005E04 47F0 B006            05DE4 35374                       END
 005E08 18D9/980C D004_            35379                       PEND
 DROP   *,R11
                                   35399
1AMELIA   TCPTRACE -- TCP connection trace routine                                                                          Page  150
0Current Usings:  (TCB,R8) (NIT,R12)
0Loc    Object Code    Addr1 Addr2  Stmt Lv Lineno    Source Statement           (Hibal 5, Asmedit 3.3)  HLASM R4.0  2004/03/15 13.11
+___    ______ ____    _____ _____  ____ __ ______    ______ _________
0                                  35401
                                   35402
                                   35403                 TCPTRACE -- TCP connection trace routine
                                   35404
                                   35405                   On entry:
                                   35406                     R0  - data length
                                   35407                     R1  - data pointer
                                   35408                     R15 - trace code
                                   35409
                                   35410                 The trace code on entry will either be a path send return
                                   35411                 code (low numbers) or one of the codes defined in the
                                   35412                 TCBTRHDR DSECT.
                                   35413

0005E16 90EF C020/4DE0_      00020 35414              TCPTRACE PROC
 USING  *,R11
 005E3A D603 80F4 80F4_000F4 000F4 35456                       IF    (TCBTRADD,Z),EXIT   Return if no tracing
 005E44 5820 80F8            000F8 35475                       L     R2,TCBTRPTR         Get path msg trace ptr
 005E48 5A20 80F4            000F4 35476                       A     R2,TCBTRADD         Point to trace table entry
 USING  TCBTRHDR,R2                35477                       WITH  (TCBTRHDR,R2)
 005E4C B205 2000      00000       35490                       STCK  TCBTRTIM            Time stamp
 005E50 40F0 2008            00008 35491                       STH   R15,TCBTRTYP        Type code
 005E54 4000 200A            0000A 35492                       STH   R0,TCBTRLEN         Message length
 005E58 1830                       35493                       LR    R3,R0               Copy length
 005E5A 5840 80FC            000FC 35494                       L     R4,TCBTRELN         Entry length
 005E5E 4B40 B1F2            0602C 35495                       SH    R4,=Y(L'TCBTRHDR)   Minus header length
 005E62 1934/47D0 B030_            35496                       IF    (R3,GT,R4),'LR R3,R4'  Truncate length
 005E6A 0630/1233/4740_            35517                       DTEX  R3,'MVC TCBTRDAT(0),@R1'  Move in trace data
                                   35554
 005E76 5820 80F8            000F8 35555                       L     R2,TCBTRPTR         Get path msg trace ptr
 005E7A 5A20 80FC            000FC 35556                       A     R2,TCBTRELN         Point to next entry
 005E7E 5920 8100/4750_      00100 35557                       IF    (R2,GE,TCBTRTLN),'CLEAR R2' Check for wrap
 005E88 5020 80F8            000F8 35583                       ST    R2,TCBTRPTR         Update trace pointer
 005E8C 18D9/980C D004_            35584                       PEND
 DROP   TCBTRHDR,R2
 DROP   *,R11
                                   35609
 DROP   TCB,R8                     35610                       DROP  TCBR                ### TCB
1AMELIA   GETTPORT - Get TCP port name                                                                                      Page  151
0Current Usings:  (NIT,R12)
0Loc    Object Code    Addr1 Addr2  Stmt Lv Lineno    Source Statement           (Hibal 5, Asmedit 3.3)  HLASM R4.0  2004/03/15 13.11
+___    ______ ____    _____ _____  ____ __ ______    ______ _________
0                                  35618
                                   35619
                                   35620                 GETTPORT -- Get TCP port name from port info table
                                   35621
                                   35622                   On entry:
                                   35623                     R1  - port number
                                   35624
                                   35625                   On exit:
                                   35626                     Found:      CC=NZ  R0,R1 = text length and addr
                                   35627                     Not found:  CC=Z   R0 = 0
                                   35628

0005E9A 90EF C020/4DE0_      00020 35629              GETTPORT PROC
 USING  *,R11
 005EBE 5820 C0F0            000F0 35671                       L     R2,NITTPORT
 USING  TPORT,R2                   35672                       WITH  (TPORT,R2)
 005EC2 1222/4780 B01A             35685                       WHILE (R2,NZ),BEGIN
 005EC8 5910 2004/4780_      00004 35701  1                      IF    (R1,EQ,TPORTNUM),EXIT
 005ED0 5820 2000            00000 35721  1                      L     R2,TPORTNXT
 005ED4 47F0 B004            05EC2 35722                       END
 005ED8 1B00/1B11                  35727                       CLEAR R0,R1
 005EDC 1222/4780 B02C             35733                       IF    (R2,NZ),BEGIN
 005EE2 4110 2008/4100_      00008 35747  1                      SETMSG TPORTID
 005EEA                            35761                       END
 005EEA 9001 9004            00004 35765                       PRETURN (R0,R1)
 005EEE 18F2                       35767                       LR    R15,R2
 005EF0 18D9/980C D004_            35768                       PEND
 DROP   TPORT,R2
 DROP   *,R11
                                   35793                       QLTORG ,
1AMELIA   COUNTTCP - TCP connection count routine                                                                           Page  152
0Current Usings:  (NIT,R12)
0Loc    Object Code    Addr1 Addr2  Stmt Lv Lineno    Source Statement           (Hibal 5, Asmedit 3.3)  HLASM R4.0  2004/03/15 13.11
+___    ______ ____    _____ _____  ____ __ ______    ______ _________
0                                  35860
                                   35861
                                   35862                 COUNTTCP -- Update TCP connection counter
                                   35863
                                   35864                   On entry:
                                   35865                     R0  - TCP port number
                                   35866                     R1  - addr of port statistics queue head
                                   35867

0006084 90EF C020/4DE0_      00020 35868              COUNTTCP PROC
 USING  *,R11
                                   35910
                                   35911                         Search port statistics table for matching entry.  Each
                                   35912                          chained table entry contains a port number plus counter
                                   35913
 0060A8 5820 1000            00000 35914                       L     R2,@R1              Get first entry
 0060AC 1831                       35915                       LR    R3,R1               Init prev entry pointer
 0060AE 1840                       35916                       LR    R4,R0               Save port number
 0060B0 1222/4780 B034             35917                       WHILE (R2,NZ),BEGIN       Search queue
 0060B6 5940 2004            00004 35933  1                      C     R4,@R2+4            Compare port number
 0060BA 4740 B034            060DC 35934  1                      IF    L,EXIT              Exit if past possible match
 0060BE 4770 B02A            060D2 35948  1                      IF    EQ,BEGIN            If found matching entry,
 0060C2 4100 0001            00001 35959  2                        LA    R0,1                Incr counter
 0060C6 5A00 2008            00008 35960  2                        A     R0,@R2+8
 0060CA 5000 2008            00008 35961  2                        ST    R0,@R2+8
 0060CE 47F0 B050            060F8 35962  2                        EXIT  COUNTTCP            Return
 0060D2                            35965  1                      END
 0060D2 1832                       35969  1                      LR    R3,R2               Update prev entry pointer
 0060D4 5820 2000            00000 35970  1                      L     R2,@R2              Chain to next entry
 0060D8 47F0 B008            060B0 35971                       END
                                   35976
                                   35977                         Matching entry not found, add new entry to queue
                                   35978
 0060DC 4100 000C/4510_      0000C 35979                       GETMAIN R,LV=12           Get storage
 0060E6 5010 3000            00000 35984                       ST    R1,@R3              Chain new to prev
 0060EA 5020 1000            00000 35985                       ST    R2,@R1              Chain next to new
 0060EE 5040 1004            00004 35986                       ST    R4,@R1+4            Set port number in new entry
 0060F2 D203 1008 B060 00008 06108 35987                       MVC   @R1+8(4),=A(1)      Init counter
 0060F8 18D9/980C D004_            35988                       PEND
 DROP   *,R11
                                   36008
                                   36009                       QLTORG
1AMELIA   GETHOST - Look up IP address in host table                                                                        Page  153
0Current Usings:  (NIT,R12)
0Loc    Object Code    Addr1 Addr2  Stmt Lv Lineno    Source Statement           (Hibal 5, Asmedit 3.3)  HLASM R4.0  2004/03/15 13.11
+___    ______ ____    _____ _____  ____ __ ______    ______ _________
0                                  36023
                                   36024
                                   36025                 GETHOST -- Look up IP address in host table.
                                   36026
                                   36027                   On entry:
                                   36028                     R1  - IP address
                                   36029
                                   36030                   On exit:
                                   36031                     CC=Z   R1 = host table entry address
                                   36032                     CC=NZ  R1 = 0  (No entry found)
                                   36033

000610C 90EF C020/4DE0_      00020 36034              GETHOST  PROC
 USING  *,R11
 006130 1861                       36076                       LR    R6,R1               Save IP address
 006132 1C06                       36077                       MR    R0,R6               Hash IP address
 006134 1710                       36078                       XR    R1,R0
 006136 1B00                       36079                       CLEAR R0
 006138 5D00 B270            063A0 36083                       D     R0,=A(HASHSIZE)
 00613C 1820                       36084                       LR    R2,R0               Get remainder
 00613E 8920 0002            00002 36085                       SLL   R2,2                *4 for hash table offset
 006142 5A20 C098            00098 36086                       A     R2,NITHSTHT         Point to hash queue head
 006146 5810 2000            00000 36087                       L     R1,@R2              Get first HST entry
                                   36088
 00614A 1211/4780 B030             36089                       WHILE (R1,NZ),BEGIN
 USING  HSTTABLE,R1                36105  1                      WITH  (HSTTABLE,R1)
 006150 5960 1008/4780_      00008 36118  1                      IF    (R6,EQ,HSTIPADD),EXIT  Exit if IP address match
 006158 5810 1004            00004 36138  1                      L     R1,HSTHASHP            Chain to next hash q entry
 00615C 47F0 B01A            0614A 36139                       END
 DROP   HSTTABLE,R1
                                   36149
 006160 1211/4770 B03A             36150                       IF    (R1,Z),BEGIN        If no entry,
 006166 41F0 0004            00004 36164  1                      LA    R15,4               Return code = 4
 00616A                            36165                       END
 00616A B03E/47F0 B040 0616A 06164 36169                       ELSE  BEGIN               Else have entry,
 00616E 1BFF                       36180  1                      CLEAR R15                 Return code = 0
 006170                            36184                       END
 006170 5019 0008            00008 36188                       PRETURN (R1)
 006174 18D9/980C D004_            36190                       PEND
 DROP   *,R11
1AMELIA   ADDHOST - Add entry to host table                                                                                 Page  154
0Current Usings:  (NIT,R12)
0Loc    Object Code    Addr1 Addr2  Stmt Lv Lineno    Source Statement           (Hibal 5, Asmedit 3.3)  HLASM R4.0  2004/03/15 13.11
+___    ______ ____    _____ _____  ____ __ ______    ______ _________
0                                  36211
                                   36212
                                   36213                 ADDHOST -- Add entry to host table
                                   36214
                                   36215                   On entry:
                                   36216                     R1  - IP address
                                   36217
                                   36218                   On exit:
                                   36219                     R1  - Host table entry
                                   36220

0006182 90EF C020/4DE0_      00020 36221              ADDHOST  PROC
 USING  *,R11
 0061A6 1861                       36263                       LR    R6,R1               Save IP address
 0061A8 1C06                       36264                       MR    R0,R6               Hash IP address
 0061AA 1710                       36265                       XR    R1,R0
 0061AC 1B00                       36266                       CLEAR R0
 0061AE 5D00 B1FA            063A0 36270                       D     R0,=A(HASHSIZE)
 0061B2 1820                       36271                       LR    R2,R0               Get remainder
 0061B4 8920 0002            00002 36272                       SLL   R2,2                *4 for hash table offset
 0061B8 5A20 C098            00098 36273                       A     R2,NITHSTHT         Point to hash queue head
 0061BC 5810 2000            00000 36274                       L     R1,@R2              Get first HST entry
                                   36275
 0061C0 1211/4780 B038             36276                       WHILE (R1,NZ),BEGIN       Search for HST entry
 USING  HSTTABLE,R1                36292  1                      WITH  (HSTTABLE,R1)
 0061C6 5960 1008/4770_      00008 36305  1                      IF    (R6,EQ,HSTIPADD),BEGIN  If IP address match,
 0061CE 5019 0008            00008 36322  2                        PRETURN (R1)              Set return reg
 0061D2 47F0 B09C            06242 36324  2                        B     ADDHOSTX            Exit
 0061D6                            36325  1                      END
 0061D6 5810 1004            00004 36329  1                      L     R1,HSTHASHP         Chain to next hash queue entry
 0061DA 47F0 B01A            061C0 36330                       END
 DROP   HSTTABLE,R1
                                   36340
                                   36341                         HST entry not found, create new entry
                                   36342
 0061DE 0700/4510 B042_            36343                       GETMAIN R,LV=L'HSTTABLE   Get storage for new entry
 0061EE 1831                       36350                       LR    R3,R1               Set base reg
 USING  HSTTABLE,R3                36351                       WITH  (HSTTABLE,R3)
 0061F0 D79B 3000 3000 00000 00000 36364                       CLEAR HSTTABLE            Clear entry
                                   36371
 0061F6 D203 3000 C080 00000 00080 36372                       MVC   HSTNEXT,NITHOSTQ    Add to global queue
 0061FC 5030 C080            00080 36373                       ST    R3,NITHOSTQ
 006200 D203 3004 2000 00004 00000 36374                       MVC   HSTHASHP,@R2        Add to hash queue
 006206 5030 2000            00000 36375                       ST    R3,@R2
                                   36376
 00620A 5060 3008            00008 36377                       ST    R6,HSTIPADD         Set IP address
 00620E 1816                       36378                       LR    R1,R6               Copy IP address
 006210 58E0 B1FE/0DEE       063A4 36379                       ACALL GETHNAME            Get host name
 006216 5900 B202/47D0_      063A8 36383                       CEIL  R0,L'HSTNAME        Truncate length if needed
 006222 5000 3058            00058 36402                       ST    R0,HSTNMLEN         Set host name length
 006226 D23F 305C C23C 0005C 0023C 36403                       MVC   HSTNAME,NITBLANK
 00622C 18F0                       36404                       LR    R15,R0
 00622E 06F0/12FF/4740_            36405                       DTEX  R15,'MVC HSTNAME(*-*),@R1'  Copy host name
1AMELIA   ADDHOST - Add entry to host table                                                                                 Page  155
0Current Usings:  (HSTTABLE,R3) (*,R11) (NIT,R12)
0Loc    Object Code    Addr1 Addr2  Stmt Lv Lineno    Source Statement           (Hibal 5, Asmedit 3.3)  HLASM R4.0  2004/03/15 13.11
+___    ______ ____    _____ _____  ____ __ ______    ______ _________
000623A 4110 3000            00000 36442                       LA    R1,HSTTABLE         Host table entry
 00623E 5019 0008            00008 36443                       PRETURN (R1)              Return address
                                   36445
 006242 18D9/980C D004_            36446              ADDHOSTX PEND
 DROP   HSTTABLE,R3
 DROP   *,R11
1AMELIA   GETENET - Get Ethernet address for host                                                                           Page  156
0Current Usings:  (NIT,R12)
0Loc    Object Code    Addr1 Addr2  Stmt Lv Lineno    Source Statement           (Hibal 5, Asmedit 3.3)  HLASM R4.0  2004/03/15 13.11
+___    ______ ____    _____ _____  ____ __ ______    ______ _________
0                                  36473
                                   36474
                                   36475                 GETENET -- Look up Ethernet address in host table.
                                   36476                           If the address is unknown, send an ARP request
                                   36477                           packet to get the address.
                                   36478
                                   36479                           If the IP address is not in our subnet then
                                   36480                           this routine returns the Ethernet address of
                                   36481                           the gateway defined in NITGATE.
                                   36482
                                   36483                   On entry:
                                   36484                     R1 = IP address
                                   36485
                                   36486                   On exit:
                                   36487                     CC=Z   R0,R1 = Ethernet address
                                   36488                     CC=NZ  Address not found.
                                   36489

0006250 90EF C020/4DE0_      00020 36490              GETENET  PROC
 USING  *,R11
                                   36532
                                   36533                         Handle immediately if our IP address (or "loopback" addr).
                                   36534
 006274 5910 C034/4770_      00034 36535                       IF    (R1,EQ,NITIP),BEGIN
 00627C BF0F C693            00693 36552  1                      L4    R0,NITETHER         Get
 006280 1F11/BF13 C697             36554  1                      L2    R1,NITETHER+4         our
 006286 8910 0010            00010 36562  1                      SLL   R1,16                   ethernet address
 00628A 9001 9004            00004 36563  1                      PRETURN (R0,R1)
 00628E 1BFF                       36565  1                      CLEAR R15                 Good rc
 006290 47F0 B08C            06300 36569  1                      EXIT  GETENET
 006294                            36572                       END
                                   36576
                                   36577                         If IP address is not in our subnet, use gateway address.
                                   36578
 006294 D603 C040 C040_00040 00040 36579                       IF    (NITGATE,NZ),BEGIN  If have gateway address,
 00629E 1801                       36595  1                      LR    R0,R1               Copy IP address
 0062A0 5400 C03C            0003C 36596  1                      N     R0,NITMASK          Isolate subnet
 0062A4 5900 C038/4780_      00038 36597  1                      IF    (R0,NE,NITSUBNT),BEGIN    If not our subnet,
 0062AC 5810 C040            00040 36614  2                        L     R1,NITGATE                Use gateway address
 0062B0                            36615  1                      END
 0062B0                            36619                       END
 0062B0 1821                       36623                       LR    R2,R1               Save address
 0062B2 58E0 B138/0DEE       063AC 36624                       ACALL GETHOST             Look up address in host table
 0062B8 1831                       36628                       LR    R3,R1
 USING  HSTTABLE,R3                36629                       WITH  (HSTTABLE,R3)
                                   36642            C          IF    ((R3,Z),OR,         If no host table entry, or
 0062BA 1233/4780 B056_                                              (HSTENET,Z)),BEGIN   or no ethernet address,
 0062CA 1812                       36671  1                      LR    R1,R2               IP address
 0062CC 58E0 B13C/0DEE       063B0 36672  1                      ACALL SENDARP             Send ARP request
 0062D2 41F0 0004            00004 36676  1                      LA    R15,4               Set RC
 0062D6 47F0 B08C            06300 36677  1                      EXIT  GETENET             Return
 0062DA                            36680                       END
                                   36684
1AMELIA   GETENET - Get Ethernet address for host                                                                           Page  157
0Current Usings:  (HSTTABLE,R3) (*,R11) (NIT,R12)
0Loc    Object Code    Addr1 Addr2  Stmt Lv Lineno    Source Statement           (Hibal 5, Asmedit 3.3)  HLASM R4.0  2004/03/15 13.11
+___    ______ ____    _____ _____  ____ __ ______    ______ _________
00062DA B205 D000      00000       36685                       STCK  @R13                Compute interval
 0062DE 5800 D000            00000 36686                       L     R0,@R13               since last Ethernet
 0062E2 5F00 300C            0000C 36687                       SL    R0,HSTTIME              address update
 0062E6 5900 B140/47D0_      063B4 36688                       IF    (R0,GT,ENETTIME),BEGIN   If over limit,
 0062EE 1812                       36705  1                      LR    R1,R2                      Send ARP request
 0062F0 58E0 B13C/0DEE       063B0 36706  1                      ACALL SENDARP
 0062F6                            36710                       END
 0062F6 9801 3010            00010 36714                       LM    R0,R1,HSTENET       Get Ethernet address
 0062FA 9001 9004            00004 36715                       PRETURN (R0,R1)
 0062FE 1BFF                       36717                       CLEAR R15                 Set return code
 006300 18D9/980C D004_            36721                       PEND
 DROP   HSTTABLE,R3
 DROP   *,R11
1AMELIA   SENDARP - Send ARP request packet                                                                                 Page  158
0Current Usings:  (NIT,R12)
0Loc    Object Code    Addr1 Addr2  Stmt Lv Lineno    Source Statement           (Hibal 5, Asmedit 3.3)  HLASM R4.0  2004/03/15 13.11
+___    ______ ____    _____ _____  ____ __ ______    ______ _________
0                                  36747
                                   36748
                                   36749                  SENDARP -- Send ARP request packet
                                   36750
                                   36751                    On entry:
                                   36752                      R1 = IP address
                                   36753

000630E 90EF C020/4DE0_      00020 36754              SENDARP  PROC
 USING  *,R11
 006332 186D/41D0 D02C             36796                       XPUSH ,,L'ENETHDR+L'ARP,PTR=R6  Packet work area
 USING  ENETHDR,R6                 36799                       WITH  (ENETHDR,R6)        Ethernet header
 006338 D205 6000 B08A 00000 063BC 36812                       MVC   ENETDST,=6X'FF'     Broadcast address
 00633E D205 6006 C693 00006 00693 36813                       MVC   ENETSRC,NITETHER    Our Ethernet address
 006344 D201 600C B090 0000C 063C2 36814                       MVC   ENETTYPE,=Y(ENETARP#)  Packet type
 00634A 4150 600E            0000E 36815                       LA    R5,ENETDATA         Start of ARP packet
 USING  ARP,R5                     36816                       WITH  (ARP,R5)
 00634E D201 5000 B092 00000 063C4 36829                       MVC   ARPHRD,=Y(ARPENET#) Hardware address type
 006354 D201 5002 B094 00002 063C6 36830                       MVC   ARPPRO,=Y(ENETIP#)  Protocal address type
 00635A 9206 5004      00004       36831                       MVI   ARPHLN,6            Hardware address length
 00635E 9204 5005      00005       36832                       MVI   ARPPLN,4            Protocol address length
 006362 D201 5006 B096 00006 063C8 36833                       MVC   ARPOP,=Y(ARPREQ#)   Operation code
 006368 D205 5008 C693 00008 00693 36834                       MVC   ARPSHA,NITETHER     Source hardware address
 00636E D203 500E C034 0000E 00034 36835                       MVC   ARPSPA,NITIP        Source protocol address
 006374 D705 5012 5012 00012 00012 36836                       CLEAR ARPTHA              Target hardware address
 00637A 5010 5018            00018 36843                       ST    R1,ARPTPA           Target protocol address
                                   36844
 00637E 1816/4100 002A_            36845                       SEGWR (R6),L'ENETHDR+L'ARP,NITOSG  Write packet
 00638E 18D9/980C D004_            36873                       PEND
 DROP   ARP,R5
 DROP   ENETHDR,R6
 DROP   *,R11
                                   36903
                                   36904                       QLTORG
1AMELIA   NSLOOKUP - Initiate name server lookup                                                                            Page  159
0Current Usings:  (NIT,R12)
0Loc    Object Code    Addr1 Addr2  Stmt Lv Lineno    Source Statement           (Hibal 5, Asmedit 3.3)  HLASM R4.0  2004/03/15 13.11
+___    ______ ____    _____ _____  ____ __ ______    ______ _________
0                                  36929
                                   36930
                                   36931                NSLOOKUP - Initiate name server lookup
                                   36932
                                   36933                  On entry:
                                   36934                      R1  - Addr of name server lookup queue entry.
                                   36935
                                   36936                      Caller has filled in NSLNAME or NSLIP, and
                                   36937                      and optionally other fields
                                   36938
                                   36939                  On exit:
                                   36940                      R15 - RC (0=OK, 4=Bad name, 8=No name servers)
                                   36941

00063D0 90EF C020/4DE0_      00020 36942              NSLOOKUP PROC
 USING  *,R11
 0063F4 1861                       36984                       LR    R6,R1               Copy lookup queue entry ptr
 USING  NSL,R6                     36985                       WITH  (NSL,R6)
                                   36998
                                   36999                         If not resend, initialize NSL
                                   37000
 0063F6 D603 6008 6008_00008 00008 37001                       IF    (NSLLCNTR,Z),BEGIN  If first call,
 006400 D203 6004 C344 00004 00344 37017  1                      MVC   NSLSTART,NITCLOCK   Time stamp
 006406 4100 0001/5E00_      00001 37018  1                      INCR  R0,NITNSLID         Incr id counter
 006412 4000 6014            00014 37024  1                      STH   R0,NSLID            Set lookup id in NSL
                                   37025  1
 006416 5800 603C            0003C 37026  1                      L     R0,NSLEXPTM         Expiration time interval
 00641A 1200/4770 B030             37027  1                      IF    (R0,Z),BEGIN        If not set by caller,
 006420 4100 003C            0003C 37041  2                        LA    R0,NSLEXPT#         Set default
 006424                            37042  1                      END
 006424 5E00 6004            00004 37046  1                      AL    R0,NSLSTART         Set lookup
 006428 5000 603C            0003C 37047  1                      ST    R0,NSLEXPTM           expiration time
                                   37048  1
                                   37049  1                        Initialize name server list
                                   37050  1
 00642C D703 6030 6030 00030 00030 37051  1                      CLEAR NSLSRVPT            Clear name server list ptr
 006432 D603 601C 601C_0001C 0001C 37058  1                      IF    (NSLNMSRV,Z),BEGIN  If server not set,
 00643C D20F 601C C09C 0001C 0009C 37074  2                        MVC   NSLNMSRV(4*MAXNSERV),NITNSERV  Set server list
 006442 D603 601C 601C_0001C 0001C 37075  2                        IF    (NSLNMSRV,Z),BEGIN  If no name servers defined,
 00644C 4110 6000            00000 37091  3                          LA    R1,NSL
 006450 58E0 B504/0DEE       068F8 37092  3                          ACALL FREECORE            Free NSL
 006456 41F0 0008            00008 37096  3                          LA    R15,8               Set error RC
 00645A 47F0 B212            06606 37097  3                          EXIT  NSLOOKUP
 00645E                            37100  2                        END
 00645E                            37104  1                      END
                                   37108  1
 00645E D203 6038 6034 00038 00034 37109  1                      MVC   NSLTRYCT,NSLTRY     Use caller's try count
 006464 D603 6038 6038_00038 00038 37110  1                      IF    (NSLTRYCT,Z),BEGIN  If try count not set,
 00646E D203 6038 B508 00038 068FC 37126  2                        MVC   NSLTRYCT,=A(NSLRCNT#)  Set default count
 006474                            37127  1                      END
1AMELIA   NSLOOKUP - Initiate name server lookup                                                                            Page  160
0Current Usings:  (NSL,R6) (*,R11) (NIT,R12)
0Loc    Object Code    Addr1 Addr2  Stmt Lv Lineno    Source Statement           (Hibal 5, Asmedit 3.3)  HLASM R4.0  2004/03/15 13.11
+___    ______ ____    _____ _____  ____ __ ______    ______ _________
0                                  37131  1
                                   37132  1                        If IP address, convert to IN-ADDR.ARPA name
                                   37133  1
 006474 D603 6044 6044_00044 00044 37134  1                      IF    (NSLIP,NZ),BEGIN
 00647E D2FF 604C C23C 0004C 0023C 37150  2                        MVC   NSLNAME,NITBLANK    Blank name field
 006484 4110 604C            0004C 37151  2                        LA    R1,NSLNAME          Output pointer for convert
 006488 4120 6047            00047 37152  2                        LA    R2,NSLIP+3          Last byte of IP address
 00648C 4130 6044            00044 37153  2                        LA    R3,NSLIP            Start of IP address
 006490 1923/4750 B0C0             37154  2                        WHILE (R2,GE,R3),BEGIN    Loop thru addr backwards
 006496 1FFF/43F0 2000_            37171  3                          BTD   (R1),0,LC:@R2       Convert byte
 0064A4 1A10                       37193  3                          AR    R1,R0               Update output pointer
 0064A6 924B 1000      00000       37194  3                          MVI   @R1,C'.'            Add delimiter
 0064AA 5E10 B510            06904 37195  3                          INCR  R1                  Update output pointer
 0064AE 0620                       37198  3                          DECR  R2                  Decr pointer
 0064B0 47F0 B09C            06490 37200  2                        END
 0064B4 D20B 1000 B514 00000 06908 37205  2                        MVC   @R1(12),=C'IN-ADDR.ARPA'  Complete name for lookup
 0064BA 4111 000C            0000C 37206  2                        LA    R1,12(R1)           Compute name length
 0064BE 4100 604C            0004C 37207  2                        LA    R0,NSLNAME
 0064C2 1B10                       37208  2                        SR    R1,R0
 0064C4 5010 6048            00048 37209  2                        ST    R1,NSLNAMLN         Save name length
 0064C8 920C 6016      00016       37210  2                        MVI   NSLQTYPE,RR#PTR     Force PTR query type
 0064CC                            37211  1                      END
                                   37215  1
                                   37216  1                        Add domain name if unqualified host name.  Host is
                                   37217  1                        'unqualified' if it does not contain a '.'
                                   37218  1
 0064CC 58F0 B520            06914 37219  1                      L     R15,=A(LOWCASE)
 0064D0 DCFF 604C F000 0004C 00000 37220  1                      TR    NSLNAME,@R15        Translate name to lower case
 0064D6 4110 604C            0004C 37221  1                      LA    R1,NSLNAME          Name start
 0064DA 5800 6048            00048 37222  1                      L     R0,NSLNAMLN         Name length
 0064DE 1B22                       37223  1                      CLEAR R2                  Clear '.' position save
 0064E0 1200/47D0 B108             37227  1                      WHILE (R0,P),BEGIN
 0064E6 954B 1000/4770_00000       37243  2                        IF    (@R1,EQ,'.'),BEGIN  If '.' in name,
 0064EE 1820                       37259  3                          LR    R2,R0               Save remaining length
 0064F0 1831                       37260  3                          LR    R3,R1               Save pointer
 0064F2                            37261  2                        END
 0064F2 5E10 B510            06904 37265  2                        INCR  R1                  Incr pointer
 0064F6 0600                       37268  2                        DECR  R0                  Decr remaining length
 0064F8 47F0 B0EC            064E0 37270  1                      END
                                   37275  1
                                   37276  1                        Hack to handle xxx.slac  and xxxx.best
                                   37277  1
                                   37278  1         C            IF    ((R2,EQ,5),AND,     If name ends in '.slac',
 0064FC 5920 B524/4770_      06918        1                            ((@R3,EQ,'.slac'),OR,(@R3,EQ,'.best'))),BEGIN
 006518 1B22                       37325  2                        CLEAR R2                       Treat as unqualified name
 00651A                            37329  1                      END
                                   37333  1
 00651A 1222/4770 B158             37334  1                      IF    (R2,Z),BEGIN        If no '.' in name,
 006520 4110 604C            0004C 37348  2                        LA    R1,NSLNAME          Pointer to name
 006524 5820 6048            00048 37349  2                        L     R2,NSLNAMLN         Name text length
 006528 5830 C05C            0005C 37350  2                        L     R3,NITDOMLN         Domain text length
 00652C 41F2 3000            00000 37351  2                        LA    R15,0(R2,R3)        New total length
 006530 59F0 B528/4720_      0691C 37352  2                        IF    (R15,GT,L'NSLNAME),EXIT  Validity check
 006538 1A12                       37372  2                        AR    R1,R2               Point past name text
1AMELIA   NSLOOKUP - Initiate name server lookup                                                                            Page  161
0Current Usings:  (NSL,R6) (*,R11) (NIT,R12)
0Loc    Object Code    Addr1 Addr2  Stmt Lv Lineno    Source Statement           (Hibal 5, Asmedit 3.3)  HLASM R4.0  2004/03/15 13.11
+___    ______ ____    _____ _____  ____ __ ______    ______ _________
000653A 1A23                       37373  2                        AR    R2,R3               New total length
 00653C 5020 6048            00048 37374  2                        ST    R2,NSLNAMLN         Save updated name length
 006540 0630/1233/4740_            37375  2                        DTEX  R3,'MVC @R1(0),NITDNAME'  Add domain name to host name
 00654C                            37412  1                      END
 00654C                            37416                       END
                                   37420
                                   37421                         Build name server query message
                                   37422
 00654C 4150 6154            00154 37423                       LA    R5,NSLPACK          Packet build work area
 USING  NSMHDR,R5                  37424                       WITH  (NSMHDR,R5)
 006550 D70B 5000 5000 00000 00000 37437                       CLEAR NSMHDR
 006556 D201 5000 6014 00000 00014 37444                       MVC   NSMID,NSLID         Set lookup id in NS msg header
 00655C 9180 6019/4710_00019       37445                       IF    ~NSLNOREC,'SET NSMRD'  Set recursion flag
 006568 D201 5004 B56C 00004 06960 37471                       MVC   NSMQDCNT,=Y(1)      One entry in query section
 00656E 4140 500C            0000C 37472                       LA    R4,NSMQUERY         Point to query area
 006572 5800 6048            00048 37473                       L     R0,NSLNAMLN         Name len
 006576 4110 604C            0004C 37474                       LA    R1,NSLNAME          Name ptr
 00657A 18F4                       37475                       LR    R15,R4              Output area for name convert
 00657C 58E0 B52C/0DEE       06920 37476                       ACALL NSPUTNAM            Convert name
 006582 12FF/4780 B1A6             37480                       IF    (R15,NZ),BEGIN      If invalid name,
 006588 4110 6000            00000 37494  1                      LA    R1,NSL
 00658C 58E0 B504/0DEE       068F8 37495  1                      ACALL FREECORE            Free NSL
 006592 41F0 0004            00004 37499  1                      LA    R15,4               Set RC
 006596 47F0 B212            06606 37500  1                      EXIT  NSLOOKUP            Return
 00659A                            37503                       END
 00659A 1A40                       37507                       AR    R4,R0               Point past converted name
 00659C D203 4000 B530 00000 06924 37508                       MVC   @R4(4),=Y(RR#ALL,NSM#IN)  Set query type and class
 0065A2 9500 6016/4780_00016       37509                       IF    (NSLQTYPE,NZ),'MVC @R4+1(1),NSLQTYPE'
 0065B0 4144 0004            00004 37531                       LA    R4,4(R4)            Point past completed query
                                   37532
                                   37533                         Fill in UDP header fields
                                   37534
 0065B4 4110 614C            0014C 37535                       LA    R1,NSLUDP           Point to UDP work area
 USING  UDPHDR,R1                  37536                       WITH  (UDPHDR,R1)
 0065B8 D201 1000 B56E 00000 06962 37549                       MVC   UDPSRC,=Y(UDPNS#)   Set source port
 0065BE D201 1002 B56E 00002 06962 37550                       MVC   UDPDST,=Y(UDPNS#)   Set dest port
 0065C4 1B41                       37551                       SR    R4,R1               Compute UDP length
 0065C6 4040 1004            00004 37552                       STH   R4,UDPLEN           Set length in UDP header
                                   37553
                                   37554                         If not resend, put on NSL queue
                                   37555
 0065CA D603 6008 6008_00008 00008 37556                       IF    (NSLLCNTR,Z),BEGIN  If first call,
 0065D4 41F0 C0B4            000B4 37572  1                      LA    R15,NITNSLQ-(NSLNEXT-NSL)   NIT NSL queue head
 USING  NSL,R15                    37573  1                      WITH  (NSL,R15),BEGIN
 0065D8 D603 F000 F000_00000 00000 37587  2                        WHILE (NSLNEXT,NZ),'L R15,NSLNEXT'  Find last NSL
 0065EA 5060 F000            00000 37612  2                        ST    R6,NSLNEXT                    Chain new to last
 DROP   NSL,R15                    37613  1                      END
 0065EE                            37621                       END
 0065EE 4100 0001/5E00_      00001 37625                       INCR  R0,NSLLCNTR         Incr lookup counter
1AMELIA   NSLOOKUP - Initiate name server lookup                                                                            Page  162
0Current Usings:  (UDPHDR,R1) (NSMHDR,R5) (NSL,R6) (*,R11) (NIT,R12)
0Loc    Object Code    Addr1 Addr2  Stmt Lv Lineno    Source Statement           (Hibal 5, Asmedit 3.3)  HLASM R4.0  2004/03/15 13.11
+___    ______ ____    _____ _____  ____ __ ______    ______ _________
0                                  37631
                                   37632                         Initiate packet write
                                   37633
 0065FA 4110 6000            00000 37634                       LA    R1,NSL              Point to lookup area
 0065FE 58E0 B534/0DEE       06928 37635                       ACALL NSLSEND             Go send packet
 006604 1BFF                       37639                       CLEAR R15                 Set RC
 006606 18D9/980C D004_            37643                       PEND
 DROP   UDPHDR,R1
 DROP   NSMHDR,R5
 DROP   NSL,R6
 DROP   *,R11
1AMELIA   NSLSEND - Name lookup send routine                                                                                Page  163
0Current Usings:  (NIT,R12)
0Loc    Object Code    Addr1 Addr2  Stmt Lv Lineno    Source Statement           (Hibal 5, Asmedit 3.3)  HLASM R4.0  2004/03/15 13.11
+___    ______ ____    _____ _____  ____ __ ______    ______ _________
0                                  37679
                                   37680
                                   37681                NSLSEND - Name lookup send routine
                                   37682
                                   37683                  On entry:
                                   37684
                                   37685                      R1  - NSL entry address
                                   37686

0006614 90EF C020/4DE0_      00020 37687              NSLSEND  PROC
 USING  *,R11
 006638 1861                       37729                       LR    R6,R1               Save NSL pointer
 USING  NSL,R6                     37730                       WITH  (NSL,R6)
                                   37743
                                   37744                         Get server to send message to.  Then update server
                                   37745                         list pointer.  Reset pointer and then decrement try
                                   37746                         counter if at last server in the list.
                                   37747
 00663A 5820 6030            00030 37748                       L     R2,NSLSRVPT         Get server list pointer
 00663E 4132 601C            0001C 37749                       LA    R3,NSLNMSRV(R2)     Point to server IP address
 006642 5840 3000            00000 37750                       L     R4,@R3              Get IP address
                                   37751
 006646 4122 0004            00004 37752                       LA    R2,4(R2)            Increment list pointer
 00664A 5020 6030            00030 37753                       ST    R2,NSLSRVPT         Save new list pointer
 00664E D503 B2F4 3004_0692C 00004 37754                       IF    (@R3+4,EQ,=A(0)),BEGIN  If list end,
 006658 D703 6030 6030 00030 00030 37770  1                      CLEAR NSLSRVPT            Reset list pointer
 00665E 5800 6038/0600_      00038 37777  1                      DECR  R0,NSLTRYCT         Decr try count
 006668                            37782                       END
                                   37786
                                   37787                         Set retry time if this is not the last try
                                   37788
 006668 D603 6038 6038_00038 00038 37789                       IF    (NSLTRYCT,NZ),BEGIN If not last try,
 006672 4100 0007            00007 37805  1                      LA    R0,NSLRTIM#         Retry interval
                                   37806  1         C            IF    ((NSLQTYPE,EQ,RR#MX),OR,  If mail connection,
 006676 950F 6016/4780_00016              1                            (NSLQTYPE,EQ,RR#PTR)),BEGIN   or reverse lookup,
 006686 1A00                       37841  2                        AR    R0,R0                      Double interval
 006688                            37842  1                      END
 006688 B205 D000      00000       37846  1                      STCK  @R13                Compute
 00668C 5E00 D000            00000 37847  1                      AL    R0,@R13               retry time
 006690 5000 6040            00040 37848  1                      ST    R0,NSLRETTM         Set retry time
 006694                            37849                       END
 006694 B060/47F0 B066 06694 06670 37853                       ELSE  BEGIN               Else no more retries,
 006698 D203 6040 B2F8 00040 06930 37864  1                      MVC   NSLRETTM,=F'-1'     Set dummy retry time
 00669E                            37865                       END
                                   37869
                                   37870                         Send packet
                                   37871
 00669E 9160 6019/47E0_00019       37872                       IF    (NSLCMDLK+NSLPCMD,O),BEGIN  If path lookup command,
 0066A6 4110 C23C/4100_      0023C 37892  1                      SEG   NITBLANK,1,NITPSG
 0066B8 58E0 B300/0DEE       06938 37921  1                      ACALL NSLPMSG
 0066BE 1B00/1B11                  37925  1                      CLEAR R0,R1
 0066C2 18FD/41D0 D010             37931  1                      XPUSH ,,16,PTR=R15
 0066C8 58E0 B304/0DEE       0693C 37934  1                      ACALL FMTTIME
1AMELIA   NSLSEND - Name lookup send routine                                                                                Page  164
0Current Usings:  (NSL,R6) (*,R11) (NIT,R12)
0Loc    Object Code    Addr1 Addr2  Stmt Lv Lineno    Source Statement           (Hibal 5, Asmedit 3.3)  HLASM R4.0  2004/03/15 13.11
+___    ______ ____    _____ _____  ____ __ ______    ______ _________
00066CE 41F0 C1EC/58E0_      001EC 37938  1                      SEGB  (R1),(R0),NITPSG
 0066D8 4BD0 B32C            06964 37962  1                      XPOP  ,,16
 0066DC 4110 B298/4100_      068D0 37964  1                      SEGB  'Sending query to',,NITPSG  Send message
 0066EE 1814/41F0 C1EC_            37982  1                      SEGIP (R4)
 0066FA 4110 C23C/4100_      0023C 37999  1                      SEG   NITBLANK,1
 00670C 1814                       38028  1                      LR    R1,R4
 00670E 58E0 B310/0DEE       06948 38029  1                      ACALL GETHNAME            Get server name
 006714 1200/47D0 B0EC_            38033  1                      IF    (R0,P),'SEG (R1),(R0)'
 006724 4110 6000            00000 38075  1                      LA    R1,NSL
 006728 58E0 B300/0DEE       06938 38076  1                      ACALL NSLPMSG
 00672E                            38080                       END
                                   38084
 00672E 4100 0001/5E00_      00001 38085                       INCR  R0,NITNSCNT         Incr lookup count
                                   38091
 00673A 18F4                       38092                       LR    R15,R4              Server IP address
 00673C 4110 614C            0014C 38093                       LA    R1,NSLUDP           Point to UDP packet
 006740 58E0 B314/0DEE       0694C 38094                       ACALL XMITUDP             Go send UDP packet
                                   38098
 006746 18D9/980C D004_            38099                       PEND
 DROP   NSL,R6
 DROP   *,R11
1AMELIA   NSLTIMER - Name lookup timer routine                                                                              Page  165
0Current Usings:  (NIT,R12)
0Loc    Object Code    Addr1 Addr2  Stmt Lv Lineno    Source Statement           (Hibal 5, Asmedit 3.3)  HLASM R4.0  2004/03/15 13.11
+___    ______ ____    _____ _____  ____ __ ______    ______ _________
0                                  38125
                                   38126
                                   38127                NSLTIMER -- Name lookup timer routine.  Called by
                                   38128                            main Amelia timer exit routine.
                                   38129

0006754 90EF C020/4DE0_      00020 38130              NSLTIMER PROC
 USING  *,R11
 006778 5810 C0B4            000B4 38172                       L     R1,NITNSLQ          NSL queue head
 00677C 1211/4780 B044             38173                       WHILE (R1,NZ),BEGIN       Loop thru NSL queue
 USING  NSL,R1                     38189  1                      WITH  (NSL,R1)
 006782 5820 1000            00000 38202  1                      L     R2,NSLNEXT          Next queue entry addr
 006786 D503 103C C344_0003C 00344 38203  1                      IF    (NSLEXPTM,LE,NITCLOCK),BEGIN  If past expire time,
 006790 58E0 B1D8/0DEE       06950 38221  2                        ACALL NSLTMOUT                     Call timeout routine
 006796                            38225  1                      END
 006796 B022/47F0 B03E_06796 0678E 38229  1                      ELSEIF (NSLRETTM,LE,NITCLOCK),BEGIN  Else if past retry time,
 0067A4 4100 0001/5E00_      00001 38256  2                        INCR  R0,NITNSRET                   Incr retry count
 0067B0 58E0 B1B0/0DEE       06928 38262  2                        ACALL NSLSEND                       Call send routine
 0067B6                            38266  1                      END
 0067B6 1812                       38270  1                      LR    R1,R2               Next entry address
 0067B8 47F0 B004            0677C 38271                       END
 DROP   NSL,R1
                                   38281
 0067BC 18D9/980C D004_            38282                       PEND
 DROP   *,R11
1AMELIA   NSLTMOUT -- Process name lookup timeout                                                                           Page  166
0Current Usings:  (NIT,R12)
0Loc    Object Code    Addr1 Addr2  Stmt Lv Lineno    Source Statement           (Hibal 5, Asmedit 3.3)  HLASM R4.0  2004/03/15 13.11
+___    ______ ____    _____ _____  ____ __ ______    ______ _________
0                                  38303
                                   38304
                                   38305                NSLTMOUT -- Process name lookup timeout, called by
                                   38306                            timer routine
                                   38307
                                   38308                  On entry:
                                   38309                      R1  - NSL address
                                   38310

00067CA 90EF C020/4DE0_      00020 38311              NSLTMOUT PROC
 USING  *,R11
 0067EE 1861                       38353                       LR    R6,R1
 USING  NSL,R6                     38354                       WITH  (NSL,R6)
 0067F0 9602 6019      00019       38367                       SET   NSLFTMO             Flag timeout occurred
                                   38373
                                   38374                         If path lookup, send message
                                   38375
 0067F4 9140 6019/47E0_00019       38376                       IF    NSLPCMD,BEGIN       If path lookup command,
 0067FC 4110 B182/4100_      06970 38391  1                      SEG   'Name lookup timeout',,NITPSG
 00680E 4110 6000            00000 38408  1                      LA    R1,NSL
 006812 58E0 B14A/0DEE       06938 38409  1                      ACALL NSLPMSG
 006818                            38413                       END
                                   38417
                                   38418                         TCP processing
                                   38419
 006818 9104 6019/47E0_00019       38420                       IF    NSLTCP,BEGIN        If initiated by TCP,
 006820 4110 6000            00000 38435  1                      LA    R1,NSL
 006824 58E0 B166/0DEE       06954 38436  1                      ACALL TCPNSL
 00682A                            38440                       END
                                   38444
                                   38445                         Free NSL entry
                                   38446
 00682A 4110 6000            00000 38447                       LA    R1,NSL
 00682E 58E0 B16A/0DEE       06958 38448                       ACALL NSLFREE
                                   38452
 006834 18D9/980C D004_            38453                       PEND
 DROP   NSL,R6
 DROP   *,R11
1AMELIA   NSLFREE - Free NSL entry                                                                                          Page  167
0Current Usings:  (NIT,R12)
0Loc    Object Code    Addr1 Addr2  Stmt Lv Lineno    Source Statement           (Hibal 5, Asmedit 3.3)  HLASM R4.0  2004/03/15 13.11
+___    ______ ____    _____ _____  ____ __ ______    ______ _________
0                                  38479
                                   38480
                                   38481                NSLFREE -- Free NSL entry
                                   38482
                                   38483                  On entry:
                                   38484                      R1  - NSL address
                                   38485

0006842 90EF C020/4DE0_      00020 38486              NSLFREE  PROC
 USING  *,R11
 006866 1821                       38528                       LR    R2,R1               Copy NSL pointer
 USING  NSL,R2                     38529                       WITH  (NSL,R2)
                                   38542
                                   38543                         Find NSL entry that points to current entry
                                   38544
 006868 4130 C0B4            000B4 38545                       LA    R3,NITNSLQ-(NSLNEXT-NSL)  NSL queue head
 00686C                            38546                       LOOP  BEGIN
 USING  NSL,R3                     38552  1                      WITH  (NSL,R3)
 00686C 5920 3000/4780_      00000 38565  1                      IF    (R2,EQ,NSLNEXT),EXIT      Exit if found
 006874 5830 3000            00000 38585  1                      L     R3,NSLNEXT
 006878 1233/4770 B022_            38586  1                      IF    (R3,Z),'FAIL "Bad NSLFREE parm"'
 006888 47F0 B006            0686C 38609                       END
 DROP   NSL,R3
                                   38619
                                   38620                         If path lookup command, send end message
                                   38621
 00688C 9140 2019/47E0_00019       38622                       IF    NSLPCMD,BEGIN
 006894 4110 B0F6/4100_      0695C 38637  1                      SEG   '$END',,NITPSG
 0068A6 1812                       38654  1                      LR    R1,R2
 0068A8 58E0 B0D2/0DEE       06938 38655  1                      ACALL NSLPMSG
 0068AE                            38659                       END
                                   38663
                                   38664                         Dequeue NSL and free it
                                   38665
 0068AE D203 3000 2000 00000 00000 38666                       MVC   NSLNEXT-NSL(,R3),NSLNEXT   Dequeue
 0068B4 1812                       38667                       LR    R1,R2
 0068B6 58E0 B092/0DEE       068F8 38668                       ACALL FREECORE
 0068BC 18D9/980C D004_            38672                       PEND
 DROP   NSL,R2
 DROP   *,R11
                                   38697
                                   38698                       QLTORG
1AMELIA   RCVNSM - Process received name server message                                                                     Page  168
0Current Usings:  (NIT,R12)
0Loc    Object Code    Addr1 Addr2  Stmt Lv Lineno    Source Statement           (Hibal 5, Asmedit 3.3)  HLASM R4.0  2004/03/15 13.11
+___    ______ ____    _____ _____  ____ __ ______    ______ _________
0                                  38743
                                   38744
                                   38745                RCVNSM - Process received name server message
                                   38746
                                   38747                  On entry:
                                   38748                      R1  - UDP packet address
                                   38749                      R15 - IP header address
                                   38750

0000000                00000 00320 38751              RCVNSMW  RECORD BEGIN
 000000                            38759  1           RCVNSRR    DS    CL(L'NSRR)          RR work area
 00021C                            38760  1           RCVNSTMP   DS    CL256
 00031C                            38761  1           RCVNSIP    DS    F                   Source IP address
 000320                00320 00320 38762                       END
-00698A 90EF C020/4DE0_      00020 38772              RCVNSM   PROC  RCVNSMW
 USING  *,R11
 USING  RCVNSMW-(4+52),R9
 0069AE D203 9354 F00C 0031C 0000C 38825                       WITH  (IPHDR,R15),'MVC RCVNSIP,IPSRC'  Save src IP address
 USING  IPHDR,R15
 DROP   IPHDR,R15
 0069B4 1871                       38849                       LR    R7,R1               UDP header
 USING  UDPHDR,R7                  38850                       WITH  (UDPHDR,R7)
 0069B6 4167 0008            00008 38863                       LA    R6,L'UDPHDR(R7)     Point to message start
 USING  NSMHDR,R6                  38864                       WITH  (NSMHDR,R6)
 0069BA 4850 7004            00004 38877                       LH    R5,UDPLEN           Message length
                                   38878
 0069BE 9180 6002/47E0_00002       38879                       IF    ~NSMRESP,EXIT       Ignore if not response
                                   38897
                                   38898                         Find NSL queue entry
                                   38899
 0069C6 5840 C0B4            000B4 38900                       L     R4,NITNSLQ          Queue head
 USING  NSL,R4                     38901                       WITH  (NSL,R4)
 0069CA 1244/4780 B034             38914                       WHILE (R4,NZ),BEGIN
 0069D0 D501 4014 6000_00014 00000 38930  1                      IF    (NSLID,EQ,NSMID),EXIT  Exit if match
 0069DA 5840 4000            00000 38951  1                      L     R4,NSLNEXT
 0069DE 47F0 B01C            069CA 38952                       END
 0069E2 1244/4780 B37E             38957                       IF    (R4,Z),EXIT         Ignore packet if no match
                                   38974
                                   38975                         Get lookup return code
                                   38976
 0069E8 D200 4018 6003 00018 00003 38977                       MVC   NSLRCODE,NSMRCODE   Return code
 0069EE 947F 4018      00018       38978                       NI    NSLRCODE,X'7F'      Isolate code
                                   38979
                                   38980                         If path LOOKUP command, format packet.
                                   38981                         End command if OK or 'Unknown host' return,
                                   38982                         or retry counter is zero.
                                   38983
 0069F2 9160 4019/47E0_00019       38984                       IF    (NSLPCMD+NSLCMDLK,O),BEGIN   If path lookup cmd,
 0069FA 4110 4000            00000 39004  1                      LA    R1,NSL              Point to NSL
 0069FE 58E0 B942/0DEE       072F0 39005  1                      ACALL NSLGETUP            Check that path still there
 006A04 1211/4780 B0D2             39009  1                      IF    (R1,Z),EXIT         Exit if path gone
1AMELIA   RCVNSM - Process received name server message                                                                     Page  169
0Current Usings:  (NSL,R4) (NSMHDR,R6) (UDPHDR,R7) (RCVNSMW-(4+52),R9) (*,R11) (NIT,R12)
0Loc    Object Code    Addr1 Addr2  Stmt Lv Lineno    Source Statement           (Hibal 5, Asmedit 3.3)  HLASM R4.0  2004/03/15 13.11
+___    ______ ____    _____ _____  ____ __ ______    ______ _________
0006A0A 5010 C124            00124 39026  1                      ST    R1,NITPCUR          Set current path
 006A0E 1B00/1B11                  39027  1                      CLEAR R0,R1
 006A12 18FD/41D0 D010             39033  1                      XPUSH ,,16,PTR=R15
 006A18 58E0 B946/0DEE       072F4 39036  1                      ACALL FMTTIME
 006A1E 41F0 C1EC/58E0_      001EC 39040  1                      SEGB  (R1),(R0),NITPSG
 006A28 4BD0 B9DA            07388 39064  1                      XPOP  ,,16
 006A2C 4110 B94E/4100_      072FC 39066  1                      SEGB  'Packet received from',,NITPSG
 006A3E 5810 9354/41F0_      0031C 39084  1                      SEGIP RCVNSIP
 006A4C 1B00/41F0 C1EC_            39101  1                      SEGWR ,
 006A58 4110 C23C/4100_      0023C 39125  1                      SEGWR NITBLANK,1
                                   39155  1
 006A6A 4110 6000            00000 39156  1                      LA    R1,NSMHDR           Message start
 006A6E 4800 7004            00004 39157  1                      LH    R0,UDPLEN           Compute
 006A72 4B00 B9DC            0738A 39158  1                      SH    R0,=Y(L'UDPHDR)       message length
 006A76 41F0 C1EC            001EC 39159  1                      LA    R15,NITPSG          SEGCB
 006A7A 58E0 B96A/0DEE       07318 39160  1                      ACALL FMTNSM              Format message
 006A80                            39164                       END
                                   39168
                                   39169                         If return code is 'Unknown host', if TCP open then
                                   39170                         call TCP abort routine.  Then free NSL and return.
                                   39171
 006A80 9503 4018/4770_00018       39172                       IF    (NSLRCODE,EQ,NSM#UNKN),BEGIN
 006A88 9150 4019/47E0_00019       39190  1                      IF    (NSLPCMD+NSLCMDMH,O),BEGIN  If path mailhost lookup,
 006A90 4110 BA06/4100_      073B4 39210  2                        SEG   'ERROR: UNKNOWN HOST'
 006AA2 4110 4000            00000 39227  2                        LA    R1,NSL
 006AA6 58E0 B972/0DEE       07320 39228  2                        ACALL NSLPMSG
 006AAC                            39232  1                      END
 006AAC B102/47F0 B11C_06AAC 06A8E 39236  1                      ELSEIF NSLTCP,BEGIN       Else if TCP open,
 006AB8 4110 4000            00000 39260  2                        LA    R1,NSL
 006ABC 9104 4019/47E0_00019       39261  2                        IF    NSLTCP,'ACALL TCPNSL'  Call TCP routine
 006ACA                            39285  1                      END
 006ACA 4110 4000            00000 39289  1                      LA    R1,NSL              NSL pointer
 006ACE 58E0 B97A/0DEE       07328 39290  1                      ACALL NSLFREE             Free NSL
 006AD4 47F0 B37E            06D2C 39294  1                      EXIT  RCVNSM              Return
 006AD8                            39297                       END
                                   39301
                                   39302                         Check for unusual name server error return.
                                   39303
 006AD8 9500 4018/4780_00018       39304                       IF    (NSLRCODE,NE,NSM#OK),BEGIN
 006AE0 4110 B9DE/4100_      0738C 39322  1                      SEG   'Name lookup error  RC=',,NITPRSG   Log error
 006AF2 1F11/4310 4018_            39339  1                      SEGDC LC:NSLRCODE
 006B04 4110 B9F4/4100_      073A2 39365  1                      SEGB  '  from'
 006B16 5810 9354/41F0_      0031C 39383  1                      SEGIP RCVNSIP
 006B24 1B00/41F0 C4B0_            39400  1                      SEGWR ,
 006B30 4110 6000            00000 39424  1                      LA    R1,NSMHDR           Message start
 006B34 4800 7004            00004 39425  1                      LH    R0,UDPLEN           Compute
 006B38 4B00 B9DC            0738A 39426  1                      SH    R0,=Y(L'UDPHDR)       message length
 006B3C 41F0 C4B0            004B0 39427  1                      LA    R15,NITPRSG         SEGCB
 006B40 58E0 B96A/0DEE       07318 39428  1                      ACALL FMTNSM              Format message
1AMELIA   RCVNSM - Process received name server message                                                                     Page  170
0Current Usings:  (NSL,R4) (NSMHDR,R6) (UDPHDR,R7) (RCVNSMW-(4+52),R9) (*,R11) (NIT,R12)
0Loc    Object Code    Addr1 Addr2  Stmt Lv Lineno    Source Statement           (Hibal 5, Asmedit 3.3)  HLASM R4.0  2004/03/15 13.11
+___    ______ ____    _____ _____  ____ __ ______    ______ _________
0                                  39432  1
                                   39433  1                        Just exit (let timeout logic handle failure)
                                   39434  1
 006B46 47F0 B37E            06D2C 39435  1                      EXIT  RCVNSM              Return to caller
 006B4A                            39438                       END
                                   39442
                                   39443                         Return code is OK.  Update host table using
                                   39444                         resource records in the packet.
                                   39445
 006B4A 4110 6000            00000 39446                       LA    R1,NSMHDR           Message pointer
 006B4E 4800 7004            00004 39447                       LH    R0,UDPLEN           Message length
 006B52 4B00 B9DC            0738A 39448                       SH    R0,=Y(L'UDPHDR)     Compute message length
 006B56 58E0 B982/0DEE       07330 39449                       ACALL NSLUPDAT            Call host table update
 006B5C 12FF/4780 B1FA             39453                       IF    (R15,NZ),BEGIN      If error,
 006B62 4110 BA19/4100_      073C7 39467  1                      SEGB  'Error processing name server message from',,NITPRSG
 006B74 5810 9354/41F0_      0031C 39485  1                      SEGIP RCVNSIP
 006B82 1B00/41F0 C4B0_            39502  1                      SEGWR ,
 006B8E 4110 6000            00000 39526  1                      LA    R1,NSMHDR           Message start
 006B92 4800 7004            00004 39527  1                      LH    R0,UDPLEN           Compute
 006B96 4B00 B9DC            0738A 39528  1                      SH    R0,=Y(L'UDPHDR)       message length
 006B9A 41F0 C4B0            004B0 39529  1                      LA    R15,NITPRSG         SEGCB
 006B9E 58E0 B96A/0DEE       07318 39530  1                      ACALL FMTNSM              Format message
 006BA4 47F0 B374            06D22 39534  1                      B     RCVNSMX             Free NSL and return
 006BA8                            39535                       END
                                   39539
                                   39540                         TCP processing
                                   39541
 006BA8 9104 4019/47E0_00019       39542                       IF    NSLTCP,BEGIN        If TCP open,
 006BB0 5820 4008            00008 39557  1                      L     R2,NSLLCNTR         Save lookup counter
 006BB4 4110 4000            00000 39558  1                      LA    R1,NSL              NSL pointer
 006BB8 58E0 B976/0DEE       07324 39559  1                      ACALL TCPNSL              Call TCP routine
 006BBE 5920 4008/4780_      00008 39563  1                      IF    (R2,NE,NSLLCNTR),'EXIT RCVNSM' Don't free NSL if requeue
 006BCA 47F0 B374            06D22 39588  1                      B     RCVNSMX             Return
 006BCE                            39589                       END
                                   39593
                                   39594                         Process path MAILHOST lookup completion.  Look for mail
                                   39595                         host entries in the HNT.
                                   39596
 006BCE 9150 4019/47E0_00019       39597                       IF    (NSLPCMD+NSLCMDMH,O),BEGIN   If path MAILHOST lookup,
 006BD6 4110 404C/5800_      0004C 39617  1                      SETMSG NSLNAME,L:NSLNAMLN  Host name
 006BDE 58E0 B986/0DEE       07334 39631  1                      ACALL GETHNT              Get HNT entry
 006BE4 1831                       39635  1                      LR    R3,R1               Save initial pointer
 006BE6 1211/4780 B2C4             39636  1                      WHILE (R1,NZ),BEGIN       While have HNT entry,
 006BEC 1821                       39652  2                        LR    R2,R1               Copy HNT base
 USING  HNT,R2                     39653  2                        WITH  (HNT,R2)
 006BEE 9180 200C/47E0_0000C       39666  2                        IF    HNTFMAIL,BEGIN      If mail entry,
 006BF6 5630 B98A            07338 39681  3                          O     R3,=X'80000000'     Flag entry found
 006BFA 9501 200D/4770_0000D       39682  3                          IF    (HNTTYPE,EQ,RR#A),BEGIN   If A entry with mail flag,
 006C02 4110 BA42/4100_      073F0 39700  4                            SEG   'mailhost=',,NITPSG         Return host name
 006C14 4110 2011/1F00_      00011 39717  4                            SEG   HNTNAME,LC:HNTNAMLN
 006C28                            39747  3                          END
 006C28 B27E/47F0 B2AE 06C28 06C00 39751  3                          ELSE  BEGIN               Else have MX entry,
 006C2C 4110 BA42/4100_      073F0 39762  4                            SEG   'mailhost='         Format response line
 006C3E 1F11/4310 2010             39779  4                            LC    R1,HNTNAMLN         Get name length
1AMELIA   RCVNSM - Process received name server message                                                                     Page  171
0Current Usings:  (HNT,R2) (NSL,R4) (NSMHDR,R6) (UDPHDR,R7) (RCVNSMW-(4+52),R9) (*,R11) (NIT,R12)
0Loc    Object Code    Addr1 Addr2  Stmt Lv Lineno    Source Statement           (Hibal 5, Asmedit 3.3)  HLASM R4.0  2004/03/15 13.11
+___    ______ ____    _____ _____  ____ __ ______    ______ _________
0006C44 4111 2011            00011 39786  4                            LA    R1,HNTNAME(R1)      Point to MX length
 006C48 1F00/4300 1000             39787  4                            LC    R0,@R1              Get MX name length
 006C4E 5E10 B98E            0733C 39792  4                            INCR  R1                  Get MX name address
 006C52 41F0 C1EC/58E0_      001EC 39795  4                            SEG   (R1),(R0)
 006C5C                            39818  3                          END
 006C5C 4110 4000            00000 39822  3                          LA    R1,NSL
 006C60 58E0 B972/0DEE       07320 39823  3                          ACALL NSLPMSG             Send path msg
 006C66                            39827  2                        END
 006C66 1812                       39831  2                        LR    R1,R2               Copy HNT address
 006C68 58E0 B992/0DEE       07340 39832  2                        ACALL GETHNTNX            Get next entry for this host
 006C6E 47F0 B238            06BE6 39836  1                      END
 DROP   HNT,R2
                                   39846  1
 006C72 1233/4740 B374             39847  1                      IF    (R3,M),RCVNSMX      Exit if mail host entries found
                                   39864  1
                                   39865  1                        No mail records found.  If initial MX query, and there
                                   39866  1                        are no A records in the HNT, requeue lookup with query
                                   39867  1                        for A records.  If an A record is found, flag it as a
                                   39868  1                        mail entry to avoid repeated MX queries for this host.
                                   39869  1
 USING  HNT,R3                     39870  1                      WITH  (HNT,R3)            Initial HNT entry address
                                   39883  1         C            IF    (((R3,Z),OR,         If no HNT entry
                                          1         C                  (HNTTYPE,NE,RR#A)),AND,  or not A type entry
 006C78 1233/4780 B2D8_                   1                            (NSLQTYPE,EQ,RR#MX)),BEGIN    after MX lookup
 006C8E 9201 4016      00016       39931  2                        MVI   NSLQTYPE,RR#A       Set query type to A
 006C92 4110 4000            00000 39932  2                        LA    R1,NSL
 006C96 58E0 B996/0DEE       07344 39933  2                        ACALL NSLOOKUP            Requeue lookup
 006C9C 47F0 B37E            06D2C 39937  2                        EXIT  RCVNSM              Return (don't free NSL now)
 006CA0                            39940  1                      END
                                   39944  1
                                   39945  1         C            IF    ((R3,NZ),AND,        If have HNT entry,
 006CA0 1233/4780 B32A_                   1                            (HNTTYPE,EQ,RR#A)),BEGIN   and type is A,
 006CAE 9680 300C      0000C       39976  2                        SET   HNTFMAIL            Flag as mailhost entry
 006CB2 4110 BA4B/4100_      073F9 39982  2                        SEG   'Mailhost=',,NITPSG  Send message to path
 006CC4 4110 3011/1F00_      00011 39999  2                        SEG   HNTNAME,LC:HNTNAMLN   Return name from HNT
 006CD8                            40029  1                      END
 006CD8 B32E/B32E/47F0_06CD8 06CA4 40033  1                      ELSE  BEGIN               Else if no HNT entry found,
 006CDC D601 6006 6006_00006 00006 40046  2                        IF    ((NSMANCNT,NZ),OR,(NSMNSCNT,NZ)),BEGIN  If non-empty msg
 006CF0 4110 BA06/4100_      073B4 40077  3                          SEG   'ERROR: UNKNOWN HOST',,NITPSG             unknown host
 006D02                            40094  2                        END
 006D02 B358/47F0 B36A 06D02 06CEE 40098  2                        ELSE   BEGIN                                  Else lookup err
 006D06 4110 BA54/4100_      07402 40109  3                          SEG   'ERROR: Network name lookup failed',,NITPSG
 006D18                            40126  2                        END
 006D18                            40130  1                      END
 006D18 4110 4000            00000 40134  1                      LA    R1,NSL
 006D1C 58E0 B972/0DEE       07320 40135  1                      ACALL NSLPMSG             Send msg to path
 DROP   HNT,R3                     40139                       END
                                   40148
                                   40149                         Free NSL and return to caller
                                   40150
 006D22 4110 4000            00000 40151              RCVNSMX  LA    R1,NSL
 006D26 58E0 B97A/0DEE       07328 40152                       ACALL NSLFREE             Free NSL
                                   40156
 006D2C 18D9/980C D004_            40157                       PEND
1AMELIA   RCVNSM - Process received name server message                                                                     Page  172
0Current Usings:  (NIT,R12)
0Loc    Object Code    Addr1 Addr2  Stmt Lv Lineno    Source Statement           (Hibal 5, Asmedit 3.3)  HLASM R4.0  2004/03/15 13.11
+___    ______ ____    _____ _____  ____ __ ______    ______ _________
0DROP   NSL,R4
 DROP   NSMHDR,R6
 DROP   UDPHDR,R7
 DROP   RCVNSMW-(4+52),R9
 DROP   *,R11
1AMELIA   NSLUPDAT - Update host name table                                                                                 Page  173
0Current Usings:  (NIT,R12)
0Loc    Object Code    Addr1 Addr2  Stmt Lv Lineno    Source Statement           (Hibal 5, Asmedit 3.3)  HLASM R4.0  2004/03/15 13.11
+___    ______ ____    _____ _____  ____ __ ______    ______ _________
0                                  40198
                                   40199
                                   40200                NSLUPDAT -- Update host name table from resource records
                                   40201                            in name server message.
                                   40202
                                   40203                  On entry:
                                   40204                      R0  - Name server message length
                                   40205                      R1  - Name server message pointer
                                   40206                  On exit:
                                   40207                      R15 - RC (0=OK, 4=Invalid NS message)
                                   40208

0000000                00000 00320 40210              NSLUPWA  RECORD BEGIN
 000000                            40218  1           NSLUPWRR   DS    CL(L'NSRR)          RR format work area
 00021C                            40219  1           NSLUPTMP   DS    CL256               Work area
 00031C                            40220  1           NSLUPCNM   DS    A                   CNAME pointer save
 000320                00320 00320 40221                       END
-006D3A 90EF C020/4DE0_      00020 40231              NSLUPDAT PROC  NSLUPWA
 USING  *,R11
 USING  NSLUPWA-(4+52),R9
 006D5E 50F0 9354            0031C 40284                       ST    R15,NSLUPCNM        Save CNAME pointer
 006D62 1861                       40285                       LR    R6,R1               NS message origin
 USING  NSMHDR,R6                  40286                       WITH  (NSMHDR,R6)
 006D64 1850                       40299                       LR    R5,R0               NS message length
 006D66 1A51                       40300                       AR    R5,R1               NS message end
                                   40301
                                   40302                         Step past query section
                                   40303
 006D68 4140 600C            0000C 40304                       LA    R4,NSMQUERY         Init message pointer
 006D6C 4830 6004            00004 40305                       LH    R3,NSMQDCNT         Query count
 006D70 1233/47D0 B03E             40306                       WHILE (R3,P),BEGIN
 006D76 1945/47A0 B0F8             40322  1                      IF    (R4,GE,R5),NSLUPERR  Validity check
 006D7C 4100 6000            00000 40340  1                      LA    R0,NSMHDR           NSM origin
 006D80 1814                       40341  1                      LR    R1,R4               Current NSM pointer
 006D82 41F0 9254            0021C 40342  1                      LA    R15,NSLUPTMP        Output area
 006D86 58E0 B5EA/0DEE       07348 40343  1                      ACALL NSGETNAM            Convert name
 006D8C 4770 B0F8            06E56 40347  1                      IF    NZ,NSLUPERR         Check for error
 006D90 1841                       40361  1                      LR    R4,R1               Update NSM pointer
 006D92 4144 0004            00004 40362  1                      LA    R4,4(R4)            Point past end of query
 006D96 0630                       40363  1                      DECR  R3                  Decr query counter
 006D98 47F0 B012            06D70 40365                       END
                                   40370
                                   40371                         Process answer section records
                                   40372
 006D9C 4830 6006            00006 40373                       LH    R3,NSMANCNT
 006DA0 1233/47D0 B07A             40374                       WHILE (R3,P),BEGIN
 006DA6 1945/47A0 B0F8             40390  1                      IF    (R4,GE,R5),NSLUPERR  Validity check
 006DAC 4100 6000            00000 40408  1                      LA    R0,NSMHDR           NS message header
 006DB0 1814                       40409  1                      LR    R1,R4               Current NS pointer
 006DB2 41F0 9038            00000 40410  1                      LA    R15,NSLUPWRR        Output area
 006DB6 58E0 B5EE/0DEE       0734C 40411  1                      ACALL NSGETRR             Get resource record
1AMELIA   NSLUPDAT - Update host name table                                                                                 Page  174
0Current Usings:  (NSMHDR,R6) (NSLUPWA-(4+52),R9) (*,R11) (NIT,R12)
0Loc    Object Code    Addr1 Addr2  Stmt Lv Lineno    Source Statement           (Hibal 5, Asmedit 3.3)  HLASM R4.0  2004/03/15 13.11
+___    ______ ____    _____ _____  ____ __ ______    ______ _________
0006DBC 4770 B0F8            06E56 40415  1                      IF    NZ,NSLUPERR         Check for error
 006DC0 1A40                       40429  1                      AR    R4,R0               Update NS pointer
 006DC2 1945/4720 B0F8             40430  1                      IF    (R4,GT,R5),NSLUPERR  Validity check
 006DC8 4110 9038            00000 40448  1                      LA    R1,NSLUPWRR         Point to RR
 006DCC 58E0 B5F2/0DEE       07350 40449  1                      ACALL NSLADHNT            Go process RR
 006DD2 0630                       40453  1                      DECR  R3                  Decr RR count
 006DD4 47F0 B042            06DA0 40455                       END
                                   40460
                                   40461                         Process name server section
                                   40462
 006DD8 4830 6008            00008 40463                       LH    R3,NSMNSCNT
 006DDC 1233/47D0 B0B6             40464                       WHILE (R3,P),BEGIN
 006DE2 1945/47A0 B0F8             40480  1                      IF    (R4,GE,R5),NSLUPERR  Validity check
 006DE8 4100 6000            00000 40498  1                      LA    R0,NSMHDR           NS message header
 006DEC 1814                       40499  1                      LR    R1,R4               Current NS pointer
 006DEE 41F0 9038            00000 40500  1                      LA    R15,NSLUPWRR        Output area
 006DF2 58E0 B5EE/0DEE       0734C 40501  1                      ACALL NSGETRR             Get resource record
 006DF8 4770 B0F8            06E56 40505  1                      IF    NZ,NSLUPERR         Check for error
 006DFC 1A40                       40519  1                      AR    R4,R0               Update NS pointer
 006DFE 1945/4720 B0F8             40520  1                      IF    (R4,GT,R5),NSLUPERR  Validity check
 006E04 4110 9038            00000 40538  1                      LA    R1,NSLUPWRR         Point to RR
 006E08 58E0 B5F2/0DEE       07350 40539  1                      ACALL NSLADHNT            Go process RR
 006E0E 0630                       40543  1                      DECR  R3                  Decr RR count
 006E10 47F0 B07E            06DDC 40545                       END
                                   40550
                                   40551                         Process additional record section
                                   40552
 006E14 4830 600A            0000A 40553                       LH    R3,NSMARCNT
 006E18 1233/47D0 B0F2             40554                       WHILE (R3,P),BEGIN
 006E1E 1945/47A0 B0F8             40570  1                      IF    (R4,GE,R5),NSLUPERR  Validity check
 006E24 4100 6000            00000 40588  1                      LA    R0,NSMHDR           NS message header
 006E28 1814                       40589  1                      LR    R1,R4               Current NS pointer
 006E2A 41F0 9038            00000 40590  1                      LA    R15,NSLUPWRR        Output area
 006E2E 58E0 B5EE/0DEE       0734C 40591  1                      ACALL NSGETRR             Get resource record
 006E34 4770 B0F8            06E56 40595  1                      IF    NZ,NSLUPERR         Check for error
 006E38 1A40                       40609  1                      AR    R4,R0               Update NS pointer
 006E3A 1945/4720 B0F8             40610  1                      IF    (R4,GT,R5),NSLUPERR  Validity check
 006E40 4110 9038            00000 40628  1                      LA    R1,NSLUPWRR         Point to RR
 006E44 58E0 B5F2/0DEE       07350 40629  1                      ACALL NSLADHNT            Go process RR
 006E4A 0630                       40633  1                      DECR  R3                  Decr RR count
 006E4C 47F0 B0BA            06E18 40635                       END
                                   40640
 006E50 1BFF                       40641                       CLEAR R15                 Set RC
 006E52 47F0 B0FC            06E5A 40645                       EXIT  NSLUPDAT            Return
0                                  40649
                                   40650                    Invalid name server message.  Log error and return
                                   40651
 006E56 41F0 0004            00004 40652              NSLUPERR LA    R15,4               Set RC
 006E5A 18D9/980C D004_            40653                       PEND
 DROP   NSMHDR,R6
 DROP   NSLUPWA-(4+52),R9
 DROP   *,R11
1AMELIA   NSLADHNT - Update host name table                                                                                 Page  175
0Current Usings:  (NIT,R12)
0Loc    Object Code    Addr1 Addr2  Stmt Lv Lineno    Source Statement           (Hibal 5, Asmedit 3.3)  HLASM R4.0  2004/03/15 13.11
+___    ______ ____    _____ _____  ____ __ ______    ______ _________
0                                  40684
                                   40685                NSLADHNT -- Add entry to host name table.
                                   40686
                                   40687                  On entry:
                                   40688                    R1 - RR pointer
                                   40689

0000000                00000 00100 40690              NSLADHWA RECORD BEGIN
 000000                            40698  1           NSLADTMP   DS    CL256               Work area
 000100                00100 00100 40699                       END
-006E68 90EF C020/4DE0_      00020 40709              NSLADHNT PROC  NSLADHWA
 USING  *,R11
 USING  NSLADHWA-(4+52),R9
 006E8C 1841                       40762                       LR    R4,R1               Resource record
 USING  NSRR,R4                    40763                       WITH  (NSRR,R4)
                                   40776
                                   40777            C          IF    ((NSRRTYPE,EQ,RR#A),OR,  If A record
                                                    C                (NSRRTYPE,EQ,RR#CNAME),OR,  or CNAME record
 006E8E D501 B51C 4104_073A8 00104                                   (NSRRTYPE,EQ,RR#MX)),BEGIN   or MX record,
 006EAC 4800 4104            00104 40827  1                      LH    R0,NSRRTYPE         Record type
 006EB0 5000 9038            00000 40828  1                      ST    R0,NSLADTMP         Set in parm list
 006EB4 D203 903C 4108 00004 00108 40829  1                      MVC   NSLADTMP+4(4),NSRRTTL  TTL value
 006EBA 4100 4000            00000 40830  1                      LA    R0,NSRRNAME         Name pointer
 006EBE 5000 9044            0000C 40831  1                      ST    R0,NSLADTMP+12      Set in parm list
 006EC2 D203 9048 4100 00010 00100 40832  1                      MVC   NSLADTMP+16(4),NSRRNMLN  Name length
 006EC8 D501 B51C 4104_073A8 00104 40833  1                      IF    (NSRRTYPE,EQ,RR#A),BEGIN  If A record,
 006ED2 D203 9040 4114 00008 00114 40851  2                        MVC   NSLADTMP+8(4),NSRRIP      Move IP address
 006ED8                            40852  1                      END
 006ED8 B050/47F0 B06E 06ED8 06ED0 40856  1                      ELSE  BEGIN               Else MX or CNAME record
 006EDC 4110 4118            00118 40867  2                        LA    R1,NSRRDATA         Second name pointer
 006EE0 5010 904C            00014 40868  2                        ST    R1,NSLADTMP+20      Set in parm list
 006EE4 D203 9050 4114 00018 00114 40869  2                        MVC   NSLADTMP+24(4),NSRRDLEN    Second name length
 006EEA D501 B520 4104_073AC 00104 40870  2                        IF    (NSRRTYPE,EQ,RR#MX),BEGIN  If MX record,
 006EF4 D203 9054 4218 0001C 00218 40888  3                          MVC   NSLADTMP+28(4),NSRRMXPR    Copy pref value to parm
 006EFA                            40889  2                        END
 006EFA                            40893  1                      END
 006EFA 4110 9038            00000 40897  1                      LA    R1,NSLADTMP         Point to parm list
 006EFE 58E0 B4C8/0DEE       07354 40898  1                      ACALL ADDHNT              Add entry to host name table
 006F04                            40902                       END
                                   40906
 006F04 B07C/47F0 B0E2_06F04 06EAA 40907                       ELSEIF (NSRRTYPE,EQ,RR#PTR),BEGIN  If PTR record,
 006F12 4110 4000/5800_      00000 40934  1                      SETMSG NSRRNAME,L:NSRRNMLN          Get name
 006F1A 4B00 B524            073B0 40948  1                      SH    R0,=Y(13)           Check for '.IN-ADDR.ARPA'
 006F1E 47D0 B0E2            06F6E 40949  1                      IF    NP,EXIT
 006F22 1A10                       40963  1                      AR    R1,R0
 006F24 D50C B597 1000_07423 00000 40964  1                      IF    (@R1,NE,'.in-addr.arpa'),EXIT
 006F2E 1B10                       40983  1                      SR    R1,R0
 006F30 58E0 B4CC/0DEE       07358 40984  1                      ACALL CNVTIP              Convert to binary IP addr
 006F36 4780 B0E2            06F6E 40988  1                      IF    Z,EXIT              Exit if not valid
 006F3A D203 9038 B4D0 00000 0735C 41002  1                      MVC   NSLADTMP(4),=A(RR#PTR)  Build ADDHNT parm list
 006F40 D203 903C 4108 00004 00108 41003  1                      MVC   NSLADTMP+4(4),NSRRTTL  TTL
1AMELIA   NSLADHNT - Update host name table                                                                                 Page  176
0Current Usings:  (NSRR,R4) (NSLADHWA-(4+52),R9) (*,R11) (NIT,R12)
0Loc    Object Code    Addr1 Addr2  Stmt Lv Lineno    Source Statement           (Hibal 5, Asmedit 3.3)  HLASM R4.0  2004/03/15 13.11
+___    ______ ____    _____ _____  ____ __ ______    ______ _________
0006F46 BEF1 9040            00008 41004  1                      STCM  R15,1,NSLADTMP+8       IP address (reverse bytes)
 006F4A BEF2 9041            00009 41005  1                      STCM  R15,2,NSLADTMP+9
 006F4E BEF4 9042            0000A 41006  1                      STCM  R15,4,NSLADTMP+10
 006F52 BEF8 9043            0000B 41007  1                      STCM  R15,8,NSLADTMP+11
 006F56 4110 4118            00118 41008  1                      LA    R1,NSRRDATA            Name pointer
 006F5A 5010 9044            0000C 41009  1                      ST    R1,NSLADTMP+12         Set in parm
 006F5E D203 9048 4114 00010 00114 41010  1                      MVC   NSLADTMP+16(4),NSRRDLEN    Name length
 006F64 4110 9038            00000 41011  1                      LA    R1,NSLADTMP         Point to parm list
 006F68 58E0 B4C8/0DEE       07354 41012  1                      ACALL ADDHNT              Add entry to host name table
 006F6E                            41016                       END
                                   41020
 006F6E 18D9/980C D004_            41021                       PEND
 DROP   NSRR,R4
 DROP   NSLADHWA-(4+52),R9
 DROP   *,R11
1AMELIA   NSL path routines                                                                                                 Page  177
0Current Usings:  (NIT,R12)
0Loc    Object Code    Addr1 Addr2  Stmt Lv Lineno    Source Statement           (Hibal 5, Asmedit 3.3)  HLASM R4.0  2004/03/15 13.11
+___    ______ ____    _____ _____  ____ __ ______    ______ _________
0                                  41052
                                   41053
                                   41054                NSLPMSG -- Send path message which has been SEG'd using NITPSG
                                   41055
                                   41056                  On entry:
                                   41057                      R1  - NSL address
                                   41058

0006F7C 90EF C020/4DE0_      00020 41059              NSLPMSG PROC
 USING  *,R11
                                   41101                       SEGDEF NITPSG
 006FA0 58E0 B350/0DEE       072F0 41102                       ACALL NSLGETUP            Get UPATH address
 006FA6 1211/4770 B016             41106                       IF    (R1,Z),BEGIN        If not found,
 006FAC 41F0 C1EC/58E0_      001EC 41120  1                      SEGCLR ,                  Reset SEGCB
 006FB6                            41133                       END
 006FB6 B01A/47F0 B032 06FB6 06FAA 41137                       ELSE  BEGIN               Else found path,
 006FBA 5820 C124            00124 41148  1                      L     R2,NITPCUR
 006FBE 5010 C124            00124 41149  1                      ST    R1,NITPCUR          Set current path
 006FC2 1B00/41F0 C1EC_            41150  1                      SEGWR ,                   Write message
 006FCE 5020 C124            00124 41174  1                      ST    R2,NITPCUR          Reset current path
 006FD2                            41175                       END
 006FD2 18D9/980C D004_            41179                       PEND
 DROP   *,R11
0                                  41200
                                   41201
                                   41202                NSLGETUP -- Get UPATH address from id in NSL
                                   41203
                                   41204                  On entry:
                                   41205                      R1  - NSL address
                                   41206
                                   41207                  On exit:
                                   41208                      R1  - UPATH address (or zero)
                                   41209

0006FE0 90EF C020/4DE0_      00020 41210              NSLGETUP PROC
 USING  *,R11
 007004 1821                       41252                       LR    R2,R1               Copy NSL address
 USING  NSL,R2                     41253                       WITH  (NSL,R2)
 007006 5810 C11C            0011C 41266                       L     R1,NITPATQH         UPATH queue head
 USING  UPATH,R1                   41267                       WITH  (UPATH,R1)
 00700A 1211/4780 B01E             41280                       WHILE (R1,NZ),BEGIN       Search UPATH queue
 007010 D503 1008 200C_00008 0000C 41296  1                      IF    (UPATIDNO,EQ,NSLUPATH),EXIT   If matches NSL, exit
 00701A 5810 1004            00004 41317  1                      L     R1,UPATLINK                   Next UPATH entry
 00701E 47F0 B006            0700A 41318                       END
 007022 5019 0008            00008 41323                       PRETURN (R1)
 007026 18D9/980C D004_            41325                       PEND
 DROP   UPATH,R1
 DROP   NSL,R2
 DROP   *,R11
1AMELIA   NSGETRR - Get resource record info                                                                                Page  178
0Current Usings:  (NIT,R12)
0Loc    Object Code    Addr1 Addr2  Stmt Lv Lineno    Source Statement           (Hibal 5, Asmedit 3.3)  HLASM R4.0  2004/03/15 13.11
+___    ______ ____    _____ _____  ____ __ ______    ______ _________
0                                  41356
                                   41357
                                   41358                NSGETRR - Get resource record info from name server msg
                                   41359
                                   41360                  On entry:
                                   41361                      R0  - Name server message origin address
                                   41362                      R1  - Resource record address
                                   41363                      R15 - Output area address
                                   41364
                                   41365                  On exit:
                                   41366                      R0  - Resource record length
                                   41367                      R1  - Resource record address
                                   41368                      R15 - Return code (0=OK, 4=Invalid RR format)
                                   41369

0007034 90EF C020/4DE0_      00020 41370              NSGETRR  PROC
 USING  *,R11
 007058 186F                       41412                       LR    R6,R15              Output area pointer
 USING  NSRR,R6                    41413                       WITH  (NSRR,R6)
 00705A 1850                       41426                       LR    R5,R0               NSM origin
 00705C 1841                       41427                       LR    R4,R1               Input RR pointer
 00705E D2FF 6000 C23C 00000 0023C 41428                       MVC   NSRRNAME,NITBLANK
 007064 41F0 6000            00000 41429                       LA    R15,NSRRNAME        Output area
 007068 58E0 B2F0/0DEE       07348 41430                       ACALL NSGETNAM            Uncompress resource name
 00706E 4780 B01E/47F0_      07076 41434                       IF    NZ,'EXIT NSGETRR'   Exit if error
 007076 5000 6100            00100 41453                       ST    R0,NSRRNMLN         Save name length
 00707A 58F0 B30C            07364 41454                       L     R15,=A(LOWCASE)
 00707E DCFF 6000 F000 00000 00000 41455                       TR    NSRRNAME,@R15       Lower case name
 007084 D207 6104 1000 00104 00000 41456                       MVC   NSRRTYPE(NSRRRDLN-NSRRTYPE),@R1  Copy type, etc
 00708A 4111 0008            00008 41457                       LA    R1,NSRRRDLN-NSRRTYPE(R1)  Update input RR ptr
 00708E 1F00/BF03 1000             41458                       L2    R0,@R1                     Get RDATA length
 007094 5000 610C            0010C 41464                       ST    R0,NSRRRDLN                Save in output area
 007098 4111 0002            00002 41465                       LA    R1,2(R1)                   Step past length
 00709C 5010 6110            00110 41466                       ST    R1,NSRRRDAD                Save RDATA ptr
                                   41467
                                   41468                         Convert RDATA field
                                   41469
 0070A0 D2FF 6118 C23C 00118 0023C 41470                       MVC   NSRRDATA,NITBLANK   Blank output area
 0070A6 D501 B350 6104_073A8 00104 41471                       IF    (NSRRTYPE,EQ,RR#A),BEGIN
 0070B0 D203 6114 1000 00114 00000 41489  1                      MVC   NSRRIP,@R1          Move IP address to output area
 0070B6                            41490                       END
 0070B6 B062/47F0 B094_070B6 070AE 41494                       ELSEIF (NSRRTYPE,EQ,RR#MX),BEGIN
 0070C4 D703 6218 6218 00218 00218 41521  1                      CLEAR NSRRMXPR            Copy preference value
 0070CA D201 621A 1000 0021A 00000 41528  1                      MVC   NSRRMXPR+2(2),@R1
 0070D0 4111 0002            00002 41529  1                      LA    R1,2(R1)            Point to MX name
 0070D4 41F0 6118            00118 41530  1                      LA    R15,NSRRDATA        Output area
 0070D8 1805                       41531  1                      LR    R0,R5               NSM origin
 0070DA 58E0 B2F0/0DEE       07348 41532  1                      ACALL NSGETNAM            Convert name
 0070E0 4780 B090/47F0_      070E8 41536  1                      IF    NZ,'EXIT NSGETRR'   Exit if error
 0070E8 5000 6114            00114 41555  1                      ST    R0,NSRRDLEN         Save length
 0070EC                            41556                       END
                                   41560            C          ELSEIF ((NSRRTYPE,EQ,RR#NS),OR,
                                                    C                (NSRRTYPE,EQ,RR#CNAME),OR,
1AMELIA   NSGETRR - Get resource record info                                                                                Page  179
0Current Usings:  (NSRR,R6) (*,R11) (NIT,R12)
0Loc    Object Code    Addr1 Addr2  Stmt Lv Lineno    Source Statement           (Hibal 5, Asmedit 3.3)  HLASM R4.0  2004/03/15 13.11
+___    ______ ____    _____ _____  ____ __ ______    ______ _________
00070EC B098/47F0 B0CE_070EC 070C2                                   (NSRRTYPE,EQ,RR#PTR)),BEGIN
 00710E 41F0 6118            00118 41619  1                      LA    R15,NSRRDATA        Output area
 007112 1805                       41620  1                      LR    R0,R5               NSM origin
 007114 58E0 B2F0/0DEE       07348 41621  1                      ACALL NSGETNAM            Convert name
 00711A 4780 B0CA/47F0_      07122 41625  1                      IF    NZ,'EXIT NSGETRR'   Exit if error
 007122 5000 6114            00114 41644  1                      ST    R0,NSRRDLEN         Save length
 007126                            41645                       END
                                   41649
                                   41650                         Return length of input RR to caller
                                   41651
 007126 5800 6110            00110 41652                       L     R0,NSRRRDAD         RDATA address
 00712A 5A00 610C            0010C 41653                       A     R0,NSRRRDLN         Add RDATA length
 00712E 1B04                       41654                       SR    R0,R4               Compute total RR length
 007130 5009 0004            00004 41655                       PRETURN (R0)              Return length to caller
 007134 1BFF                       41657                       CLEAR R15                 Set RC
 007136 18D9/980C D004_            41661                       PEND
 DROP   NSRR,R6
 DROP   *,R11
1AMELIA   NSGETNAM - Convert name from NS format                                                                            Page  180
0Current Usings:  (NIT,R12)
0Loc    Object Code    Addr1 Addr2  Stmt Lv Lineno    Source Statement           (Hibal 5, Asmedit 3.3)  HLASM R4.0  2004/03/15 13.11
+___    ______ ____    _____ _____  ____ __ ______    ______ _________
0                                  41687
                                   41688
                                   41689                NSGETNAM - Convert name from NS format and translate to EBCDIC
                                   41690
                                   41691                  On entry:
                                   41692                      R0  - Name server message origin address
                                   41693                      R1  - Input string pointer
                                   41694                      R15 - Output area address
                                   41695
                                   41696                  On exit:
                                   41697                      R0  - Output string length
                                   41698                      R1  - Updated input pointer
                                   41699                      R15 - Return code (0=OK, 4=Invalid format)
                                   41700

0007144 90EF C020/4DE0_      00020 41701              NSGETNAM PROC
 USING  *,R11
 007168 1821                       41743                       LR    R2,R1               Copy input pointer
 00716A 1830                       41744                       LR    R3,R0               Copy message origin addr
 00716C 184F                       41745                       LR    R4,R15              Copy output pointer
 00716E 1B55                       41746                       CLEAR R5                  Init output length
 007170 1B66                       41750                       CLEAR R6                  Init updated pointer reg
                                   41754
 007172 9500 2000/4780_00000       41755                       WHILE (@R2,NZ),BEGIN      Loop until null byte
 00717A 91C0 2000      00000       41773  1                      TM    @R2,X'C0'           Test flag bits
 00717E 47B0 B022            0718A 41774  1                      IF    M,BEGIN             If not both on or off,
 007182 41F0 0004            00004 41785  2                        LA    R15,4                 Error return
 007186 47F0 B0AE            07216 41786  2                        EXIT  NSGETNAM              Return to caller
 00718A                            41789  1                      END
 00718A 4770 B066            071CE 41793  1                      IF    Z,BEGIN             If not pointer,
 00718E 1255/4780 B038             41804  2                        IF    (R5,NZ),BEGIN       If not first label,
 007194 924B 4000      00000       41818  3                          MVI   @R4,C'.'            Add '.'
 007198 5E40 B1D4            0733C 41819  3                          INCR  R4                  Incr output pointer
 00719C 5E50 B1D4            0733C 41822  3                          INCR  R5                  Incr output length
 0071A0                            41825  2                        END
 0071A0 1F11/4310 2000             41829  2                        LC    R1,@R2              Get label length
 0071A6 1A51                       41836  2                        AR    R5,R1               Update total length
 0071A8 5950 B200/47D0_      07368 41837  2                        IF    (R5,GT,255),BEGIN   Check length
 0071B0 41F0 0004            00004 41854  3                          LA    R15,4
 0071B4 47F0 B0AE            07216 41855  3                          EXIT  NSGETNAM
 0071B8                            41858  2                        END
 0071B8 0610/4410 B2C8_            41862  2                        DEX   R1,'MVC @R4(0),@R2+1'  Move label to output area
 0071BE 58F0 B204            0736C 41881  2                        L     R15,=A(ASCI2EBC)    Translate table
 0071C2 4410 B2CE/DC00_      07436 41882  2                        EX    R1,'TR @R4(0),@R15' Translate name to EBCDIC
 0071C6 4141 4001            00001 41898  2                        LA    R4,1(R1,R4)         Update output pointer
 0071CA 4121 2002            00002 41899  2                        LA    R2,2(R1,R2)         Update input pointer
 0071CE                            41900  1                      END
 0071CE B06A/47F0 B096 071CE 0718C 41904  1                      ELSE  BEGIN               Else have pointer
 0071D2 1266/4770 B074             41915  2                        IF    (R6,Z),BEGIN        If first pointer,
 0071D8 4162 0002            00002 41929  3                          LA    R6,2(R2)            Set final updated input pointer
 0071DC                            41930  2                        END
 0071DC 4820 2000            00000 41934  2                        LH    R2,@R2              Get pointer offset
 0071E0 5420 B208            07370 41935  2                        N     R2,=A(X'3FFF')      Isolate offset
1AMELIA   NSGETNAM - Convert name from NS format                                                                            Page  181
0Current Usings:  (*,R11) (NIT,R12)
0Loc    Object Code    Addr1 Addr2  Stmt Lv Lineno    Source Statement           (Hibal 5, Asmedit 3.3)  HLASM R4.0  2004/03/15 13.11
+___    ______ ____    _____ _____  ____ __ ______    ______ _________
00071E4 5920 B20C/4740_      07374 41936  2                        IF    ((R2,LT,L'NSMHDR),OR,(R2,GE,512)),BEGIN  Validity
 0071F4 41F0 0004            00004 41969  3                          LA    R15,4                                      check
 0071F8 47F0 B0AE            07216 41970  3                          EXIT  NSGETNAM
 0071FC                            41973  2                        END
 0071FC 1A23                       41977  2                        AR    R2,R3               Get new name pointer
 0071FE                            41978  1                      END
 0071FE 47F0 B00A            07172 41982                       END
                                   41987
 007202 1266/4770 B0A4             41988                       IF    (R6,Z),BEGIN        If input end pointer not set,
 007208 4162 0001            00001 42002  1                      LA    R6,1(R2)            Point past terminating null byte
 00720C                            42003                       END
                                   42007
 00720C 1805                       42008                       LR    R0,R5               Output string length
 00720E 1816                       42009                       LR    R1,R6               Updated input pointer
 007210 9001 9004            00004 42010                       PRETURN (R0,R1)           Return to caller
 007214 1BFF                       42012                       CLEAR R15                 Set RC
 007216 18D9/980C D004_            42016                       PEND
 DROP   *,R11
1AMELIA   NSPUTNAM - Convert name to NS format                                                                              Page  182
0Current Usings:  (NIT,R12)
0Loc    Object Code    Addr1 Addr2  Stmt Lv Lineno    Source Statement           (Hibal 5, Asmedit 3.3)  HLASM R4.0  2004/03/15 13.11
+___    ______ ____    _____ _____  ____ __ ______    ______ _________
0                                  42037
                                   42038
                                   42039                NSPUTNAM - Convert name to NS format and translate to ASCII
                                   42040
                                   42041                  On entry:
                                   42042                      R0  - Name length
                                   42043                      R1  - Name address
                                   42044                      R15 - Output area pointer
                                   42045
                                   42046                  On exit:
                                   42047                      R0  - Output string length
                                   42048                      R1  - Output string pointer
                                   42049                      R15 - Return code (0=OK, 4=Invalid format)
                                   42050

0007224 90EF C020/4DE0_      00020 42051              NSPUTNAM PROC
 USING  *,R11
 007248 185F                       42093                       LR    R5,R15              Init output area pointer
 00724A 186F                       42094                       LR    R6,R15              Save original output ptr
 00724C 58E0 B134/0DEE       0737C 42095                       ACALL RTRIM               Trim blanks
 007252 1200/4770 B018_            42099                       IF    (R0,Z),'LA R15,4; EXIT NSPUTNAM'  Check name
 007260 1200/47D0 B082             42122                       WHILE (R0,P),BEGIN
 007266 1821                       42138  1                      LR    R2,R1               Save input current pointer
 007268 1200/47D0 B038_            42139  1                      WHILE ((R0,P),AND,(@R1,NE,'.')),BEGIN  Find
 007276 5E10 B0F4            0733C 42170  2                        INCR  R1                                next
 00727A 0600                       42173  2                        DECR  R0                                 '.'
 00727C 47F0 B020            07268 42175  1                      END
 007280 5900 B0F4/4770_      0733C 42180  1                      IF    (R0,EQ,1),BEGIN     Check for single trailing '.'
 007288 41F0 0004            00004 42197  2                        LA    R15,4               Error RC
 00728C 47F0 B094            072DC 42198  2                        EXIT  NSPUTNAM            Return
 007290                            42201  1                      END
 007290 1831                       42205  1                      LR    R3,R1               Compute name
 007292 1B32                       42206  1                      SR    R3,R2                segment length
 007294 1233/4780 B05A_            42207  1                      IF    ((R3,Z),OR,(R3,GT,63)),BEGIN   If invalid name,
 0072A2 41F0 0004            00004 42237  2                        LA    R15,4                          Set error RC
 0072A6 47F0 B094            072DC 42238  2                        EXIT  NSPUTNAM                       Return
 0072AA                            42241  1                      END
 0072AA 4230 5000            00000 42245  1                      STC   R3,@R5              Name segment length
 0072AE 0630/4430 B1F4_            42246  1                      DEX   R3,'MVC @R5+1(0),@R2'  Move text to output area
 0072B4 58F0 B13C            07384 42265  1                      L     R15,=A(EBC2ASCI)    Get translate table addr
 0072B8 4430 B1FA/DC00_      07442 42266  1                      EX    R3,'TR @R5+1(0),@R15'  Convert name to ASCII
 0072BC 4153 5002            00002 42282  1                      LA    R5,2(R3,R5)         Update output pointer
 0072C0 5E10 B0F4            0733C 42283  1                      INCR  R1                  Step past delimiter
 0072C4 0600                       42286  1                      DECR  R0                  Decrement remaining length
 0072C6 47F0 B018            07260 42288                       END
                                   42293
 0072CA 9200 5000      00000       42294                       MVI   @R5,0               Add final zero byte
 0072CE 1816                       42295                       LR    R1,R6               Output area start
 0072D0 4105 0001            00001 42296                       LA    R0,1(R5)            Compute output
 0072D4 1B06                       42297                       SR    R0,R6                 string length
 0072D6 9001 9004            00004 42298                       PRETURN (R0,R1)           Return len and ptr to caller
 0072DA 1BFF                       42300                       CLEAR R15                 Set RC
 0072DC 18D9/980C D004_            42304                       PEND
1AMELIA   NSPUTNAM - Convert name to NS format                                                                              Page  183
0Current Usings:  (NIT,R12)
0Loc    Object Code    Addr1 Addr2  Stmt Lv Lineno    Source Statement           (Hibal 5, Asmedit 3.3)  HLASM R4.0  2004/03/15 13.11
+___    ______ ____    _____ _____  ____ __ ______    ______ _________
0DROP   *,R11
                                   42324
                                   42325                       QLTORG
1AMELIA   ADDHNT - Add entry to host name table                                                                             Page  184
0Current Usings:  (NIT,R12)
0Loc    Object Code    Addr1 Addr2  Stmt Lv Lineno    Source Statement           (Hibal 5, Asmedit 3.3)  HLASM R4.0  2004/03/15 13.11
+___    ______ ____    _____ _____  ____ __ ______    ______ _________
0                                  42388
                                   42389
                                   42390                ADDHNT -- Add entry to host name table
                                   42391
                                   42392                  On entry:
                                   42393                      R1  - Parm list pointer (fullwords):
                                   42394                             +00 Entry type (resource record type)
                                   42395                             +04 Time to live value (seconds)
                                   42396                             +08 IP address (A entry)
                                   42397                             +12 Name pointer
                                   42398                             +16 Name length
                                   42399                             +20 Second name pointer (MX or CNAME only)
                                   42400                             +24 Second name length (MX or CNAME only)
                                   42401                             +28 MX record preference
                                   42402
                                   42403                  On exit:
                                   42404                      R15 - RC (0=OK, 4=Invalid call, 8=Duplicate entry)
                                   42405

0000000                00000 0020B 42406              ADDHNTW  RECORD BEGIN
 000000                            42414  1           ADDHNAME   DS    CL256               Host name
 000100                            42415  1           ADDHNLN2   DS    F                   Second name length
 000104                            42416  1           ADDHNAM2   DS    CL256               Second name
 000204                            42417  1           ADDHEXPT   DS    F                   Expiration time
 000208                            42418  1           ADDHTYPE   DS    X                   Entry type
 000209                            42419  1           ADDHMXPR   DS    XL2                 MX preference
 00020B                0020B 0020B 42420                       END
                                   42429
 007448 90EF C020/4DE0_      00020 42430              ADDHNT   PROC  ADDHNTW
 USING  *,R11
 USING  ADDHNTW-(4+52),R9
 00746C 1871                       42483                       LR    R7,R1               Save parm list pointer
 00746E D200 9240 7003 00208 00003 42484                       MVC   ADDHTYPE,@R7+3      Copy entry type code
                                   42485
 007474 950F 9240/4770_00208       42486                       IF    (ADDHTYPE,EQ,RR#MX),BEGIN  If MX entry
 00747C D201 9241 701E 00209 0001E 42504  1                      MVC   ADDHMXPR,@R7+28+2          Copy preference value
 007482                            42505                       END
                                   42509
 007482 5800 1004            00004 42510                       L     R0,@R1+4            TTL value
 007486 1200/4770 B022             42511                       IF    (R0,Z),BEGIN        If none,
 00748C 0600                       42525  1                      DECR  R0                  Set to no expiration
 00748E                            42527                       END
 00748E B026/47F0 B02A 0748E 0748A 42531                       ELSE  BEGIN               Else have TTL
                                   42542  1           **       CL    R0,NITHNTTL         Compare against max TTL
                                   42543  1           **       IF    H,'L R0,NITHNTTL'     Shorten if over max
 007492 5E00 C344            00344 42544  1                      AL    R0,NITCLOCK         Get expiration time
 007496                            42545                       END
 007496 5000 923C            00204 42549                       ST    R0,ADDHEXPT         Save expiration time
1AMELIA   ADDHNT - Add entry to host name table                                                                             Page  185
0Current Usings:  (ADDHNTW-(4+52),R9) (*,R11) (NIT,R12)
0Loc    Object Code    Addr1 Addr2  Stmt Lv Lineno    Source Statement           (Hibal 5, Asmedit 3.3)  HLASM R4.0  2004/03/15 13.11
+___    ______ ____    _____ _____  ____ __ ______    ______ _________
0                                  42550
                                   42551                         Edit entry name...convert to lower case and add domain
                                   42552                         if name is unqualified (no '.')
                                   42553
 00749A 5810 700C            0000C 42554                       L     R1,@R7+12           Name pointer
 00749E 5800 7010            00010 42555                       L     R0,@R7+16           Name length
 0074A2 58E0 B81C/0DEE       07C88 42556                       ACALL RTRIM               Trim blanks
 0074A8 1200/47D0 B04A_            42560                       IF    ((R0,NP),OR,(R0,GT,255)),'LA R15,4; EXIT ADDHNT'
 0074BE D2FF 9038 C23C 00000 0023C 42599                       MVC   ADDHNAME,NITBLANK   Blank field
 0074C4 1860                       42600                       LR    R6,R0               Save length
 0074C6 1820                       42601                       LR    R2,R0               Copy length
 0074C8 0620/4420 B8A2_            42602                       DEX   R2,'MVC ADDHNAME(0),@R1'  Copy name
 0074CE 58F0 B824            07C90 42621                       L     R15,=A(LOWCASE)
 0074D2 4420 B8A8/DC00_      07D14 42622                       EX    R2,'TR ADDHNAME(0),@R15'  Lower case
 0074D6 4110 9038            00000 42638                       LA    R1,ADDHNAME         Point to name copy
 0074DA 1200/47D0 B086_            42639                       WHILE ((R0,P),AND,(@R1,NE,'.')),'INCR R1; DECR R0'
 0074F2 1200/4770 B0B4             42681                       IF    (R0,Z),BEGIN        If no '.' in name,
 0074F8 4116 9038            00000 42695  1                      LA    R1,ADDHNAME(R6)     Point to end of name
 0074FC 5A60 C05C            0005C 42696  1                      A     R6,NITDOMLN         Add domain length to name len
 007500 5960 B820/47D0_      07C8C 42697  1                      IF    (R6,GT,255),'LA R15,4; EXIT ADDHNT'
 007510 58F0 C05C            0005C 42723  1                      L     R15,NITDOMLN
 007514 06F0/12FF/4740_            42724  1                      DTEX  R15,'MVC @R1(0),NITDNAME'  Add domain to host name
 007520                            42761                       END
                                   42765
                                   42766                         Edit second name if MX or CNAME entry.  Name is assumed to
                                   42767                         be fully qualified (since it came from a name server)
                                   42768
                                   42769            C          IF    ((ADDHTYPE,EQ,RR#MX),OR,   If MX or CNAME entry,
 007520 950F 9240/4780_00208                                         (ADDHTYPE,EQ,RR#CNAME)),BEGIN
 007530 5800 7018            00018 42804  1                      L     R0,@R7+24                   Second name length
 007534 5810 7014            00014 42805  1                      L     R1,@R7+20                   Second name pointer
 007538 58E0 B81C/0DEE       07C88 42806  1                      ACALL RTRIM                       Trim blanks
 00753E 1200/47D0 B0E0_            42810  1                      IF    ((R0,NP),OR,(R0,GT,255)),'LA R15,4; EXIT ADDHNT'
 007554 5000 9138            00100 42849  1                      ST    R0,ADDHNLN2         Save name length
 007558 1820                       42850  1                      LR    R2,R0               Copy length
 00755A 0620/4420 B8B4_            42851  1                      DEX   R2,'MVC ADDHNAM2(0),@R1'   Copy second name
 007560 58F0 B824            07C90 42870  1                      L     R15,=A(LOWCASE)            Convert
 007564 4420 B8BA/DC00_      07D26 42871  1                      EX    R2,'TR ADDHNAM2(0),@R15'     to lower case
 007568                            42887                       END
                                   42891
                                   42892                         Search for host name table for point to insert new entry.
                                   42893                         Table is sorted by name, and then by record type.  MX entries
                                   42894                         are sorted by preference value.
                                   42895
 007568 4140 C084            00084 42896                       LA    R4,NITHNTQ-(HNTNEXT-HNT)  Init entry pointer
 USING  HNT,R4                     42897                       WITH  (HNT,R4)
 00756C                            42910              ADDHNEXT LOOP  BEGIN
 00756C 1854                       42917  1                      LR    R5,R4               Save previous entry ptr
 00756E 5840 4000            00000 42918  1                      L     R4,HNTNEXT          Get next entry address
 007572 1244/4780 B1E6             42919  1                      IF    (R4,Z),EXIT         Exit if end of queue
 007578 1F22/4320 4010             42936  1                      LC    R2,HNTNAMLN         Get name length
 00757E 0620/4420 B8C0_            42943  1                      DEX   R2,'CLC ADDHNAME(0),HNTNAME'  Compare names
 007584 4740 B1E6            07652 42962  1                      IF    L,ADDHNEW
 007588 4720 B100            0756C 42976  1                      IF    H,ADDHNEXT
1AMELIA   ADDHNT - Add entry to host name table                                                                             Page  186
0Current Usings:  (HNT,R4) (ADDHNTW-(4+52),R9) (*,R11) (NIT,R12)
0Loc    Object Code    Addr1 Addr2  Stmt Lv Lineno    Source Statement           (Hibal 5, Asmedit 3.3)  HLASM R4.0  2004/03/15 13.11
+___    ______ ____    _____ _____  ____ __ ______    ______ _________
000758C BD61 4010/4720_      00010 42990  1                      IF    (R6,GT,HNTNAMLN),NEXT  Next if new name longer
                                   43010  1
                                   43011  1                        If adding PTR entry and found A entry, ignore the
                                   43012  1                        PTR entry.
                                   43013  1
                                   43014  1         C            IF    ((ADDHTYPE,EQ,RR#PTR),AND,
 007594 950C 9240/4770_00208              1                            (HNTTYPE,EQ,RR#A)),ADDHDUP
                                   43052  1
                                   43053  1                        If adding A entry and found PTR entry, delete the
                                   43054  1                        PTR entry and then go add new entry.
                                   43055  1
                                   43056  1         C            IF    ((ADDHTYPE,EQ,RR#A),AND,
 0075A4 9501 9240/4770_00208              1                            (HNTTYPE,EQ,RR#PTR)),BEGIN
 0075B4 D203 5000 4000 00000 00000 43091  2                        MVC   HNTNEXT-HNT(,R5),HNTNEXT   Chain next to prev
 0075BA 1814                       43092  2                        LR    R1,R4                     HNT address
 0075BC 58E0 B82C/0DEE       07C98 43093  2                        ACALL FREECORE                  Free old entry
 0075C2 47F0 B1E6            07652 43097  2                        B     ADDHNEW                   Go add HNT entry
 0075C6                            43098  1                      END
                                   43102  1
 0075C6 D500 9240 400D 00208 0000D 43103  1                      CLC   ADDHTYPE,HNTTYPE    Compare entry type codes
 0075CC 4740 B1E6            07652 43104  1                      IF    L,ADDHNEW
 0075D0 4720 B100            0756C 43118  1                      IF    H,ADDHNEXT
                                   43132  1
                                   43133  1                        If adding A entry and found A entry for same host,
                                   43134  1                        check for duplicate IP address.  If found duplicate,
                                   43135  1                        just update the expiration time.  If not duplicate,
                                   43136  1                        continue search loop, which will exit when past A entries
                                   43137  1                        for this host.
                                   43138  1
 0075D4 9501 400D/4770_0000D       43139  1                      IF    (HNTTYPE,EQ,RR#A),BEGIN   If found A entry,
 0075DC D503 4008 7008_00008 00008 43157  2                        IF    (HNTIPADD,NE,@R7+8),ADDHNEXT  Next entry if not dup
 0075E6 D503 4004 923C_00004 00204 43177  2                        IF    (HNTEXPTM,LT,ADDHEXPT),BEGIN  If later expiration,
 0075F0 D203 4004 923C 00004 00204 43195  3                          MVC   HNTEXPTM,ADDHEXPT             Update HNT expiration
 0075F6                            43196  2                        END
 0075F6 47F0 B332            0779E 43200  2                        B     ADDHDUP                       Return to caller
 0075FA                            43201  1                      END
                                   43205  1
                                   43206  1                        If have MX entries, compare preference value.  If preference
                                   43207  1                        values match, compare secondary names.  If they match, just
                                   43208  1                        update the expiration time and return.
                                   43209  1
 0075FA 950F 400D/4770_0000D       43210  1                      IF    (HNTTYPE,EQ,RR#MX),BEGIN   If found MX entry,
 007602 D501 9241 400E 00209 0000E 43228  2                        CLC   ADDHMXPR,HNTMXPRF          Compare preference values
 007608 4740 B1E6            07652 43229  2                        IF    L,ADDHNEW
 00760C 4720 B100            0756C 43243  2                        IF    H,ADDHNEXT
 007610 1F22/4320 4010             43257  2                        LC    R2,HNTNAMLN         Get name length
 007616 4122 4011            00011 43264  2                        LA    R2,HNTNAME(R2)      Step past first name
 00761A 1F11/4310 2000             43265  2                        LC    R1,@R2              Get second name length
 007620 5910 9138            00100 43272  2                        C     R1,ADDHNLN2         Compare lengths
 007624 4770 B100            0756C 43273  2                        IF    NE,ADDHNEXT         Continue if no match
 007628 0610/4410 B8C6_            43287  2                        DEX   R1,'CLC ADDHNAM2(0),@R2+1'  Compare second name fields
 00762E 4770 B100            0756C 43306  2                        IF    NE,ADDHNEXT                 Continue if no match
 007632 D203 4004 923C 00004 00204 43320  2                        MVC   HNTEXPTM,ADDHEXPT           Update HNT expiration
 007638 47F0 B332            0779E 43321  2                        B     ADDHDUP             Return to caller
1AMELIA   ADDHNT - Add entry to host name table                                                                             Page  187
0Current Usings:  (HNT,R4) (ADDHNTW-(4+52),R9) (*,R11) (NIT,R12)
0Loc    Object Code    Addr1 Addr2  Stmt Lv Lineno    Source Statement           (Hibal 5, Asmedit 3.3)  HLASM R4.0  2004/03/15 13.11
+___    ______ ____    _____ _____  ____ __ ______    ______ _________
000763C                            43322  1                      END
                                   43326  1
                                   43327  1                        If we get here, we are adding a CNAME or PTR entry for a
                                   43328  1                        host that has an existing entry of the same type.  Delete
                                   43329  1                        the old entry and add the new one.
                                   43330  1
 00763C D203 5000 4000 00000 00000 43331  1                      MVC   HNTNEXT-HNT(,R5),HNTNEXT   Chain next to prev
 007642 1814                       43332  1                      LR    R1,R4                     HNT address
 007644 58E0 B82C/0DEE       07C98 43333  1                      ACALL FREECORE                  Free old entry
 00764A 47F0 B1E6            07652 43337  1                      B     ADDHNEW                   Go add new entry
 00764E 47F0 B100            0756C 43338                       END
                                   43343
                                   43344                         Add new HNT entry.  At this point R5 points to the HNT entry
                                   43345                         that the new entry will be chained to.
                                   43346
 007652 4100 0011            00011 43347              ADDHNEW  LA    R0,L'HNT            Entry header length
 007656 1A06                       43348                       AR    R0,R6               Add name length
                                   43349            C          IF    ((ADDHTYPE,EQ,RR#MX),OR,  If MX or CNAME,
 007658 950F 9240/4780_00208                                         (ADDHTYPE,EQ,RR#CNAME)),BEGIN
 007668 5A00 9138            00100 43384  1                      A     R0,ADDHNLN2         Add second name length
 00766C 5E00 B828            07C94 43385  1                      INCR  R0                  Account for second length byte
 007670                            43388                       END
 007670 58E0 B830/0DEE       07C9C 43392                       ACALL GETCORE             Get area for new HNT
 007676 1841                       43396                       LR    R4,R1               New HNT base
 007678 D710 4000 4000 00000 00000 43397                       CLEAR HNT                 Init HNT header
 00767E D203 4000 5000 00000 00000 43404                       MVC   HNTNEXT,HNTNEXT-HNT(R5)  Chain next to new entry
 007684 5045 0000            00000 43405                       ST    R4,HNTNEXT-HNT(R5)  Chain new entry to prev
 007688 D203 4004 923C 00004 00204 43406                       MVC   HNTEXPTM,ADDHEXPT   Set expiration time
 00768E D200 400D 9240 0000D 00208 43407                       MVC   HNTTYPE,ADDHTYPE    Set entry type
 007694 4260 4010            00010 43408                       STC   R6,HNTNAMLN         Set name length
 007698 18F6                       43409                       LR    R15,R6              Copy length
 00769A 06F0/44F0 B8CC_            43410                       DEX   R15,'MVC HNTNAME(0),ADDHNAME'  Move name to entry
                                   43429            C          IF    ((HNTTYPE,EQ,RR#A),OR,  If A entry
 0076A0 9501 400D/4780_0000D                                         (HNTTYPE,EQ,RR#PTR)),BEGIN  or PTR entry
 0076B0 D203 4008 7008 00008 00008 43464  1                      MVC   HNTIPADD,@R7+8           Set IP address
 0076B6                            43465                       END
 0076B6 B24E/47F0 B272 076B6 076AE 43469                       ELSE  BEGIN               Else have MX or CNAME entry,
 0076BA 4126 4011            00011 43480  1                      LA    R2,HNTNAME(R6)      Point past first name in HNT
 0076BE 58F0 9138            00100 43481  1                      L     R15,ADDHNLN2        Second name length
 0076C2 42F0 2000            00000 43482  1                      STC   R15,@R2             Set in HNT
 0076C6 06F0/44F0 B8D2_            43483  1                      DEX   R15,'MVC @R2+1(0),ADDHNAM2'  Move name text to HNT
 0076CC 950F 400D/4770_0000D       43502  1                      IF    (HNTTYPE,EQ,RR#MX),BEGIN  If MX entry,
 0076D4 9680 400C      0000C       43520  2                        SET   HNTFMAIL                  Flag as mail host entry
 0076D8 D201 400E 9241 0000E 00209 43526  2                        MVC   HNTMXPRF,ADDHMXPR         Move MX preference to HNT
 0076DE                            43527  1                      END
 0076DE                            43531                       END
                                   43535
                                   43536                         Add name to host table entry if not already set
                                   43537
                                   43538            C          IF    ((HNTTYPE,EQ,RR#A),OR,  If adding A record,
 0076DE 9501 400D/4780_0000D                                         (HNTTYPE,EQ,RR#PTR)),BEGIN   or PTR record,
 0076EE 5810 4008            00008 43573  1                      L     R1,HNTIPADD         Get IP address
 0076F2 58E0 B834/0DEE       07CA0 43574  1                      ACALL GETHOST             Get host table entry
 0076F8 1211/4780 B2D2             43578  1                      IF    (R1,NZ),BEGIN       If have entry
1AMELIA   ADDHNT - Add entry to host name table                                                                             Page  188
0Current Usings:  (HNT,R4) (ADDHNTW-(4+52),R9) (*,R11) (NIT,R12)
0Loc    Object Code    Addr1 Addr2  Stmt Lv Lineno    Source Statement           (Hibal 5, Asmedit 3.3)  HLASM R4.0  2004/03/15 13.11
+___    ______ ____    _____ _____  ____ __ ______    ______ _________
00076FE 1821                       43592  2                        LR    R2,R1               Copy host table addr
 USING  HSTTABLE,R2                43593  2                        WITH  (HSTTABLE,R2)
 007700 D603 2058 2058_00058 00058 43606  2                        IF    (HSTNMLEN,Z),BEGIN  If no host name,
 00770A 1F00/4300 4010             43622  3                          LC    R0,HNTNAMLN         Get host name length
 007710 4110 4011            00011 43627  3                          LA    R1,HNTNAME          Host name address
 007714 58E0 B838/0DEE       07CA4 43628  3                          ACALL SHORTNAM            Strip domain if present
 00771A 5900 B83C/47D0_      07CA8 43632  3                          CEIL  R0,L'HSTNAME        Truncate length if needed
 007726 5000 2058            00058 43651  3                          ST    R0,HSTNMLEN         Set length
 00772A D23F 205C C23C 0005C 0023C 43652  3                          MVC   HSTNAME,NITBLANK
 007730 18F0                       43653  3                          LR    R15,R0
 007732 06F0/12FF/4740_            43654  3                          DTEX  R15,'MVC HSTNAME(*-*),HNTNAME'  Copy name
 00773E                            43691  2                        END
 DROP   HSTTABLE,R2                43695  1                      END
 00773E                            43704                       END
                                   43708
                                   43709                         If added A entry, check if next entry is self-referencing
                                   43710                         MX entry.  If it is, delete the MX entry and set the
                                   43711                         mail host flag in the A entry.
                                   43712
 00773E 9501 400D/4770_0000D       43713                       IF    (HNTTYPE,EQ,RR#A),BEGIN   If adding A entry,
 007746 1814                       43731  1                      LR    R1,R4               Copy HNT pointer
 007748 58E0 B840/0DEE       07CAC 43732  1                      ACALL GETHNTNX            Get next HNT for this host
 00774E 1211/4780 B32C             43736  1                      IF    (R1,NZ),BEGIN       If found,
 007754 1851                       43750  2                        LR    R5,R1               Copy new HNT base
 USING  HNT,R5                     43751  2                        WITH  (HNT,R5)
 007756 950F 500D/4770_0000D       43764  2                        IF    (HNTTYPE,NE,RR#MX),EXIT  Exit if not MX record
 00775E D503 5004 4004 00004 00004 43785  2                        CLC   HNTEXPTM,HNTEXPTM-HNT(R4)  Compare expiration
 007764 4770 B32C            07798 43786  2                        IF    NE,EXIT                    Exit if not same
 007768 1FEE/43E0 5010             43800  2                        LC    R14,HNTNAMLN        Host name length
 00776E 41FE 5011            00011 43807  2                        LA    R15,HNTNAME(R14)    Point to MX name length
 007772 D500 5010 F000_00010 00000 43808  2                        IF    (HNTNAMLN,NE,@R15),EXIT  Exit if not same
 00777C 06E0/44E0 B8DE_            43828  2                        DEX   R14,'CLC HNTNAME(0),@R15+1'  Compare names
 007782 4770 B32C            07798 43847  2                        IF    NE,EXIT                  Exit if not same
 007786 D203 4000 5000 00000 00000 43861  2                        MVC   HNTNEXT-HNT(,R4),HNTNEXT   Dequeue MX entry
 00778C 1815                       43862  2                        LR    R1,R5
 00778E 58E0 B82C/0DEE       07C98 43863  2                        ACALL FREECORE                   Free memory
 DROP   HNT,R5                     43867  2                        DROP  R5                  Drop new HNT base
 007794 9680 400C      0000C       43874  2                        SET   HNTFMAIL            Flag A entry as mail host
 007798                            43880  1                      END
 007798                            43886                       END
                                   43890
 007798 1BFF                       43891                       CLEAR R15                 Set RC
 00779A 47F0 B336            077A2 43895                       EXIT  ADDHNT              Return
                                   43898
                                   43899                         New entry not added, duplicates existing entry
                                   43900
 00779E 41F0 0008            00008 43901              ADDHDUP  LA    R15,8               Set RC
                                   43902
 0077A2 18D9/980C D004_            43903                       PEND
 DROP   HNT,R4
 DROP   ADDHNTW-(4+52),R9
 DROP   *,R11
1AMELIA   HNTTIMER - Host name table timer routine                                                                          Page  189
0Current Usings:  (NIT,R12)
0Loc    Object Code    Addr1 Addr2  Stmt Lv Lineno    Source Statement           (Hibal 5, Asmedit 3.3)  HLASM R4.0  2004/03/15 13.11
+___    ______ ____    _____ _____  ____ __ ______    ______ _________
0                                  43934
                                   43935                HNTTIMER -- Host name table timer routine.
                                   43936
                                   43937                  Called at interval defined by NITHNTT# to check TTL
                                   43938                  values of host name table entries.  If an entry has
                                   43939                  expired, remove it from the table.
                                   43940

00077B0 90EF C020/4DE0_      00020 43941              HNTTIMER PROC
 USING  *,R11
 0077D4 4110 C084            00084 43983                       LA    R1,NITHNTQ-(HNTNEXT-HNT)  Init queue pointer
 USING  HNT,R1                     43984                       WITH  (HNT,R1)
 0077D8                            43997                       LOOP  BEGIN
 0077D8 1821                       44003  1                      LR    R2,R1               Save previous entry pointer
 0077DA 5810 1000            00000 44004  1                      L     R1,HNTNEXT          Get next entry
 0077DE 1211/4780 B02C             44005  1                      IF    (R1,Z),EXIT         Exit if no more entries
 0077E4 D503 1004 C344_00004 00344 44022  1                      IF    (HNTEXPTM,LT,NITCLOCK),BEGIN  If entry expired,
 0077EE D203 2000 1000 00000 00000 44040  2                        MVC   HNTNEXT-HNT(,R2),HNTNEXT  Chain next to prev
 0077F4 58E0 B4C4/0DEE       07C98 44041  2                        ACALL FREECORE            Free HNT
 0077FA 1812                       44045  2                        LR    R1,R2               Set current ptr to prev
 0077FC                            44046  1                      END
 0077FC 47F0 B004            077D8 44050                       END
 007800 18D9/980C D004_            44055                       PEND
 DROP   HNT,R1
 DROP   *,R11
1AMELIA   HOSTLOAD - Load host table                                                                                        Page  190
0Current Usings:  (NIT,R12)
0Loc    Object Code    Addr1 Addr2  Stmt Lv Lineno    Source Statement           (Hibal 5, Asmedit 3.3)  HLASM R4.0  2004/03/15 13.11
+___    ______ ____    _____ _____  ____ __ ______    ______ _________
0                                  44081
                                   44082
                                   44083                   HOSTLOAD -- Load host table from file
                                   44084
                                   44085                     On entry:  R15 = SEGCB for messages
                                   44086

000780E 90EF C020/4DE0_      00020 44087              HOSTLOAD PROC
 USING  *,R11
 007832 187F                       44129                       LR    R7,R15              Save SEGCB address
                                   44130                       SEGDEF (R7)
 007834 4110 B4C4/4100_      07CF6 44131                       SEGWR 'Host table load started'
 007844 5820 C084            00084 44147                       L     R2,NITHNTQ          Save old host name ptr
 007848 D703 C084 C084 00084 00084 44148                       CLEAR NITHNTQ             Clear queue head
                                   44155
                                   44156                         Read in new host table
                                   44157
 00784E 4100 B072            078A4 44158                       LA    R0,HOSTSCAN         Processing routine addr
 007852 4110 C3AC            003AC 44159                       LA    R1,NITHTDCB         DCB address
 007856 18F7                       44160                       LR    R15,R7              SEGCB address
 007858 58E0 B482/0DEE       07CB4 44161                       ACALL SCNSYSIN            Process host file
                                   44165
                                   44166                         Free old host name table if new one loaded
                                   44167
 00785E D603 C084 C084_00084 00084 44168                       IF    (NITHNTQ,Z),BEGIN   If new table not loaded,
 007868 5020 C084            00084 44184  1                      ST    R2,NITHNTQ          Restore old pointer
 00786C                            44185                       END
 00786C B03E/47F0 B054 0786C 07866 44189                       ELSE  BEGIN               Else free old table
 007870 1222/4780 B054             44200  1                      WHILE (R2,NZ),BEGIN
 USING  HNT,R2                     44216  2                        WITH  (HNT,R2)
 007876 1812                       44229  2                        LR    R1,R2               Copy address
 007878 5820 2000            00000 44230  2                        L     R2,HNTNEXT          Get next pointer
 00787C 58E0 B466/0DEE       07C98 44231  2                        ACALL FREECORE            Free entry
 007882 47F0 B03E            07870 44235  1                      END
 DROP   HNT,R2
 007886                            44245                       END
                                   44249
 007886 4110 B43E/4100_      07C70 44250                       SEGWR 'Host table load complete'
                                   44266
 007896 18D9/980C D004_            44267                       PEND
 DROP   *,R11
1AMELIA   HOSTSCAN - Scan host table record                                                                                 Page  191
0Current Usings:  (NIT,R12)
0Loc    Object Code    Addr1 Addr2  Stmt Lv Lineno    Source Statement           (Hibal 5, Asmedit 3.3)  HLASM R4.0  2004/03/15 13.11
+___    ______ ____    _____ _____  ____ __ ______    ______ _________
0                                  44288
                                   44289
                                   44290                  HOSTSCAN -- Called by SCNSYSIN to scan each record
                                   44291                               read from host table
                                   44292
                                   44293                    On entry: R0,R1 = len and addr of record
                                   44294                              R15   = SEGCB address for messages
                                   44295

00078A4 90EF C020/4DE0_      00020 44296              HOSTSCAN PROC
 USING  *,R11
 0078C8 1200/4780 B092             44338                       IF    (R0,Z),EXIT         Ignore null record
 0078CE 957B 1000/4780_00000       44355                       IF    (@R1,EQ,'#'),EXIT   Ignore comment line
 0078D6 955E 1000/4780_00000       44374                       IF    (@R1,EQ,';'),EXIT
                                   44393
 0078DE 187F                       44394                       LR    R7,R15              Copy SEGCB address
                                   44395                       SEGDEF (R7)
                                   44396
 0078E0 41F0 C7F8/58E0_      007F8 44397                       SCINIT  (R1),(R0),NITSCNCB   Init SCANCB
 0078EA 58E0 B3F4/0DEE       07CBC 44417                       ACALL GETTOKEN            Scan IP address
 0078F0 58E0 B3F8/0DEE       07CC0 44421                       ACALL CNVTIP              Convert
 0078F6 4770 B052            0791A 44425                       IF    Z,BEGIN             If invalid IP address,
 0078FA 4110 B414/4100_      07CDC 44436  1                      SEGWR 'Invalid host table record:'
 00790A 9801 9004            00004 44452  1                      PRESTORE (R0,R1)
 00790E 18F7/58E0 B3E8_            44454  1                      SEGWR (R1),(R0)
 007916 47F0 B092            0795A 44476  1                      EXIT  HOSTSCAN
 00791A                            44479                       END
 00791A 186F                       44483                       LR    R6,R15              Save IP address
 00791C                            44484                       LOOP  BEGIN
 00791C 58E0 B3F4/0DEE       07CBC 44490  1                      ACALL GETTOKEN            Get next host name
 007922 1200/4780 B092             44494  1                      IF    (R0,Z),EXIT         Exit if more
 007928 955E 1000/4780_00000       44511  1                      IF    (@R1,EQ,';'),EXIT   Exit if delimiter
 007930 182D/41D0 D014             44530  1                      XPUSH ,,20,PTR=R2         Space for ADDHNT parm list
 007936 D203 2000 B3FC 00000 07CC4 44533  1                      MVC   @R2(4),=A(RR#A)     'A' entry type
 00793C D203 2004 C33C 00004 0033C 44534  1                      MVC   @R2+4(4),NITZERO    No TTL
 007942 5060 2008            00008 44535  1                      ST    R6,@R2+8            IP address
 007946 5010 200C            0000C 44536  1                      ST    R1,@R2+12           Name pointer
 00794A 5000 2010            00010 44537  1                      ST    R0,@R2+16           Name length
 00794E 1812                       44538  1                      LR    R1,R2               Parm pointer
 007950 58E0 B400/0DEE       07CC8 44539  1                      ACALL ADDHNT              Add host name entry
 007956 47F0 B054            0791C 44543                       END
 00795A 18D9/980C D004_            44548                       PEND
 DROP   *,R11
1AMELIA   GETIPADD - Get host IP address                                                                                    Page  192
0Current Usings:  (NIT,R12)
0Loc    Object Code    Addr1 Addr2  Stmt Lv Lineno    Source Statement           (Hibal 5, Asmedit 3.3)  HLASM R4.0  2004/03/15 13.11
+___    ______ ____    _____ _____  ____ __ ______    ______ _________
0                                  44569
                                   44570
                                   44571                GETIPADD -- Routine to lookup a host id and return its
                                   44572                  primary IP address.
                                   44573
                                   44574                  On entry:
                                   44575                    R0,R1   - len & loc of host id (name or ip address)
                                   44576
                                   44577                  On exit:
                                   44578                    R15     - IP address of host (or zero)
                                   44579

0007968 90EF C020/4DE0_      00020 44580              GETIPADD PROC
 USING  *,R11
 00798C 58E0 B340/0DEE       07CCC 44622                       ACALL LRTRIM              Strip leading/trailing blanks
 007992 58E0 B334/0DEE       07CC0 44626                       ACALL CNVTIP              Check if IP address
 007998 12FF/4770 B038             44630                       IF    (R15,NZ),EXIT       Return if IP address
                                   44647
 00799E 58E0 B344/0DEE       07CD0 44648                       ACALL GETHNT              Look up name in host name table
 0079A4 1BFF                       44652                       CLEAR R15                 Clear return reg
 0079A6 1211/4780 B038             44656                       IF    (R1,NZ),BEGIN       If entry found,
 USING  HNT,R1                     44670  1                      WITH  (HNT,R1)
 0079AC 9501 100D/4770_0000D       44683  1                      IF    (HNTTYPE,EQ,RR#A),BEGIN   If A entry,
 0079B4 58F0 1008            00008 44701  2                        L     R15,HNTIPADD              Get IP address
 0079B8 59F0 C048/4770_      00048 44702  2                        IF    (R15,EQ,NITIPLP),'L R15,NITIP'  Loopback
 0079C4                            44725  1                      END
 DROP   HNT,R1                     44729                       END
 0079C4 18D9/980C D004_            44738                       PEND
 DROP   *,R11
1AMELIA   GETHNAME - Get host name by IP address                                                                            Page  193
0Current Usings:  (NIT,R12)
0Loc    Object Code    Addr1 Addr2  Stmt Lv Lineno    Source Statement           (Hibal 5, Asmedit 3.3)  HLASM R4.0  2004/03/15 13.11
+___    ______ ____    _____ _____  ____ __ ______    ______ _________
0                                  44759
                                   44760
                                   44761                 GETHNAME -- Get host name by IP address
                                   44762
                                   44763                   On entry:  R1 = IP address
                                   44764
                                   44765                   On exit:   If found,  R0,R1 = name addr & len, R15=HNT addr
                                   44766                              Not found, R0,R1,R15 zero
                                   44767

00079D2 90EF C020/4DE0_      00020 44768              GETHNAME PROC
 USING  *,R11
 0079F6 5820 C084            00084 44810                       L     R2,NITHNTQ          Host table queue head
 USING  HNT,R2                     44811                       WITH  (HNT,R2)
 0079FA 1222/4780 B01A             44824                       WHILE (R2,NZ),BEGIN
 007A00 5910 2008/4780_      00008 44840  1                      IF    (R1,EQ,HNTIPADD),EXIT
 007A08 5820 2000            00000 44860  1                      L     R2,HNTNEXT
 007A0C 47F0 B004            079FA 44861                       END
                                   44866
 007A10 1B00/1B11                  44867                       CLEAR R0,R1               Clear return regs
 007A14 1222/4780 B034             44873                       IF    (R2,NZ),BEGIN
 007A1A 1F00/4300 2010             44887  1                      LC    R0,HNTNAMLN         Get name length
 007A20 4110 2011            00011 44892  1                      LA    R1,HNTNAME          Point to name
 007A24 58E0 B2AE/0DEE       07CA4 44893  1                      ACALL SHORTNAM            Strip local domain
 007A2A                            44897                       END
                                   44901
 007A2A 9001 9004            00004 44902                       PRETURN (R0,R1)           Return regs to caller
 007A2E 18F2                       44904                       LR    R15,R2              HNT address (or zero)
 007A30 18D9/980C D004_            44905                       PEND
 DROP   HNT,R2
 DROP   *,R11
1AMELIA   GETHNT - Get host name table entry                                                                                Page  194
0Current Usings:  (NIT,R12)
0Loc    Object Code    Addr1 Addr2  Stmt Lv Lineno    Source Statement           (Hibal 5, Asmedit 3.3)  HLASM R4.0  2004/03/15 13.11
+___    ______ ____    _____ _____  ____ __ ______    ______ _________
0                                  44931
                                   44932
                                   44933                 GETHNT -- Get host name table entry
                                   44934
                                   44935                   On entry:  R0,R1 - host name len and addr
                                   44936
                                   44937                   On exit:   If found, R0 = CNAME entry (or zero)
                                   44938                                        R1 = HNT address
                                   44939
                                   44940                 If name matches a CNAME entry, the address of that entry
                                   44941                  is returned in R0, and the lookup is restarted using the
                                   44942                  CNAME name.
                                   44943

0000000                00000 00100 44944              GETHNTWA RECORD BEGIN
 000000                            44952  1           GETHNTNM   DS    CL256               Name to look up
 000100                00100 00100 44953                       END
                                   44962
 007A3E 90EF C020/4DE0_      00020 44963              GETHNT   PROC  GETHNTWA
 USING  *,R11
 USING  GETHNTWA-(4+52),R9
 007A62 1B44/1B55                  45016                       CLEAR R4,R5               Clear HNT pointers
 007A66 1B66                       45022                       CLEAR R6                  Clear loop counter
                                   45026
 007A68 1200/47D0 B014_            45027              GETHNT2  IF    ((R0,NP),OR,(R0,GT,255)),'CLEAR R15; B GETHNTX'
 007A7C 18F0                       45068                       LR    R15,R0
 007A7E 06F0/44F0 B2EE_            45069                       DEX   R15,'MVC GETHNTNM(0),@R1'   Copy name
 007A84 4110 9038            00000 45088                       LA    R1,GETHNTNM
 007A88 58E0 B272/0DEE       07CD4 45089                       ACALL EDITHOST                    Edit host name
 007A8E 1820                       45093                       LR    R2,R0               Save name length
                                   45094
                                   45095                         Look through HNT entries for match with either
                                   45096                         form of the host name
                                   45097
 007A90 18F2                       45098                       LR    R15,R2              Copy first length
 007A92 06F0                       45099                       DECR  R15                 Decr for EX
 007A94 5840 C084            00084 45101                       L     R4,NITHNTQ          HNT queue head
 USING  HNT,R4                     45102                       WITH  (HNT,R4)
 007A98 1244/4780 B054             45115                       WHILE (R4,NZ),BEGIN
                                   45131  1         C            IF    ((R2,EQ,HNTNAMLN),AND,
 007A9E BD21 4010/4770_      00010        1                            ('EX R15,"CLC HNTNAME(0),GETHNTNM"',EQ)),EXIT
 007AAE 5840 4000            00000 45178  1                      L     R4,HNTNEXT
 007AB2 47F0 B036            07A98 45179                       END
                                   45184
 007AB6 1244/4780 B084             45185                       IF    (R4,Z),GETHNTX      Return if no entry
                                   45202
                                   45203                         Restart lookup if found CNAME entry
                                   45204
 007ABC 9505 400D/4770_0000D       45205                       IF    (HNTTYPE,EQ,RR#CNAME),BEGIN
 007AC4 1854                       45223  1                      LR    R5,R4               Save CNAME entry pointer
 007AC6 5E60 B232            07C94 45224  1                      INCR  R6                  Incr loop count
 007ACA 5960 B276/4720_      07CD8 45227  1                      IF    (R6,GT,5),GETHNTX   Exit if looping
 007AD2 1F22/4320 4010             45247  1                      LC    R2,HNTNAMLN         Get first name length
1AMELIA   GETHNT - Get host name table entry                                                                                Page  195
0Current Usings:  (HNT,R4) (GETHNTWA-(4+52),R9) (*,R11) (NIT,R12)
0Loc    Object Code    Addr1 Addr2  Stmt Lv Lineno    Source Statement           (Hibal 5, Asmedit 3.3)  HLASM R4.0  2004/03/15 13.11
+___    ______ ____    _____ _____  ____ __ ______    ______ _________
0007AD8 1F00/4302 4011             45254  1                      LC    R0,HNTNAME(R2)      Get second name length
 007ADE 4112 4012            00012 45259  1                      LA    R1,HNTNAME+1(R2)    Point to second name
 007AE2 47F0 B006            07A68 45260  1                      B     GETHNT2             Restart search
 007AE6                            45261                       END
                                   45265
 007AE6 1805                       45266              GETHNTX  LR    R0,R5               CNAME entry ptr (or zero)
 007AE8 1814                       45267                       LR    R1,R4               HNT pointer (or zero)
 007AEA 9001 9004            00004 45268                       PRETURN (R0,R1)
                                   45270
 007AEE 18D9/980C D004_            45271                       PEND
 DROP   HNT,R4
 DROP   GETHNTWA-(4+52),R9
 DROP   *,R11
1AMELIA   GETHNTNX - Get next HNT entry for host                                                                            Page  196
0Current Usings:  (NIT,R12)
0Loc    Object Code    Addr1 Addr2  Stmt Lv Lineno    Source Statement           (Hibal 5, Asmedit 3.3)  HLASM R4.0  2004/03/15 13.11
+___    ______ ____    _____ _____  ____ __ ______    ______ _________
0                                  45302
                                   45303
                                   45304                GETHNTNX - Get next HNT entry for host
                                   45305
                                   45306                  On entry:
                                   45307                    R1  - HNT entry
                                   45308
                                   45309                  On exit:
                                   45310                    R1  - Next HNT entry for same host (or zero)
                                   45311

0007AFC 90EF C020/4DE0_      00020 45312              GETHNTNX PROC
 USING  *,R11
 USING  HNT,R1                     45354                       WITH  (HNT,R1)
 007B20 4120 1011            00011 45367                       LA    R2,HNTNAME          Get name pointer
 007B24 1F33/4330 1010             45368                       LC    R3,HNTNAMLN         Get name length
 007B2A 1843                       45375                       LR    R4,R3               Get length-1
 007B2C 0640                       45376                       DECR  R4
 007B2E 5810 1000            00000 45378                       L     R1,HNTNEXT          Get next HNT entry
                                   45379            C          IF    ((R1,NZ),AND,       If have entry,
                                                    C                ((R3,NE,HNTNAMLN),OR,   If name not match,
 007B32 1211/4780 B02A_                                              ('EX R4,"CLC HNTNAME(0),@R2"',NE))),BEGIN
 007B48 1B11                       45436  1                      CLEAR R1                  Show no HNT
 007B4A                            45440                       END
 007B4A 5019 0008            00008 45444                       PRETURN (R1)
 007B4E 18D9/980C D004_            45446                       PEND
 DROP   HNT,R1
 DROP   *,R11
1AMELIA   SHORTNAM - Edit host name                                                                                         Page  197
0Current Usings:  (NIT,R12)
0Loc    Object Code    Addr1 Addr2  Stmt Lv Lineno    Source Statement           (Hibal 5, Asmedit 3.3)  HLASM R4.0  2004/03/15 13.11
+___    ______ ____    _____ _____  ____ __ ______    ______ _________
0                                  45472
                                   45473
                                   45474                 SHORTNAM -- Edit host name
                                   45475
                                   45476                   Strip the local domain from host name.
                                   45477
                                   45478                   On entry:  R0,R1 - name length and address
                                   45479

0007B5C 90EF C020/4DE0_      00020 45480              SHORTNAM PROC
 USING  *,R11
 007B80 1200/47D0 B03E_            45522                       IF    ((R0,NP),OR,(R0,GT,255)),EXIT  Check length
 007B8E 5900 C05C/47C0_      0005C 45555                       IF    (R0,LE,NITDOMLN),EXIT  Exit if name too short
 007B96 D603 C05C C05C_0005C 0005C 45575                       IF    (NITDOMLN,Z),EXIT   Return if no domain
 007BA0 1821                       45594                       LR    R2,R1               Point past name
 007BA2 1A20                       45595                       AR    R2,R0
 007BA4 5B20 C05C            0005C 45596                       S     R2,NITDOMLN         Back up by length of domain
 007BA8 58F0 C05C            0005C 45597                       L     R15,NITDOMLN        Get domain length
 007BAC 06F0/44F0 B1E2_            45598                       DEX   R15,'CLC @R2(0),NITDNAME'  Match domain name?
 007BB2 4770 B03E            07BBE 45617                       IF    NE,EXIT                 Return if not
 007BB6 5B00 C05C            0005C 45631                       S     R0,NITDOMLN         Shorten length by dom name len
 007BBA 5009 0004            00004 45632                       PRETURN (R0)              Return shortened name length
 007BBE 18D9/980C D004_            45634                       PEND
 DROP   *,R11
1AMELIA   EDITHOST - Get full host name                                                                                     Page  198
0Current Usings:  (NIT,R12)
0Loc    Object Code    Addr1 Addr2  Stmt Lv Lineno    Source Statement           (Hibal 5, Asmedit 3.3)  HLASM R4.0  2004/03/15 13.11
+___    ______ ____    _____ _____  ____ __ ______    ______ _________
0                                  45655
                                   45656
                                   45657                 EDITHOST -- Edit host name
                                   45658
                                   45659                   Convert name to lower case, and add the local domain
                                   45660                    suffix to an unqualified host name.
                                   45661
                                   45662                   On entry:  R0,R1 - name length and address
                                   45663

0007BCC 90EF C020/4DE0_      00020 45664              EDITHOST PROC
 USING  *,R11
 007BF0 58E0 B098/0DEE       07C88 45706                       ACALL RTRIM               Trim blanks
 007BF6 1200/47D0 B014_            45710                       IF    ((R0,NP),OR,(R0,GT,255)),'LA R15,4; EXIT EDITHOST'
 007C0C 1820                       45749                       LR    R2,R0               Copy length
 007C0E 58F0 B0A0            07C90 45750                       L     R15,=A(LOWCASE)
 007C12 0620/4420 B178_            45751                       DEX   R2,'TR @R1(0),@R15' Lower case name
 007C18 1820                       45770                       LR    R2,R0               Copy length
 007C1A 1222/47D0 B042_            45771                       WHILE ((R2,P),AND,(@R1,NE,'.')),'INCR R1; DECR R2'
 007C32 1222/4770 B06C             45813                       IF    (R2,Z),BEGIN        If no '.' in name,
 007C38 5A00 C05C            0005C 45827  1                      A     R0,NITDOMLN         Add domain length to name len
 007C3C 5900 B09C/47D0_      07C8C 45828  1                      IF    (R0,GT,255),'LA R15,4; EXIT EDITHOST'
 007C4C 58F0 C05C            0005C 45854  1                      L     R15,NITDOMLN
 007C50 06F0/12FF/4740_            45855  1                      DTEX  R15,'MVC @R1(0),NITDNAME'  Add domain to host name
 007C5C                            45892                       END
 007C5C 5009 0004            00004 45896                       PRETURN (R0)              Return new length
 007C60 18D9/980C D004_            45898                       PEND
 DROP   *,R11
                                   45918
                                   45919                       QLTORG
1AMELIA   COMMAND - Command processor                                                                                       Page  199
0Current Usings:  (NIT,R12)
0Loc    Object Code    Addr1 Addr2  Stmt Lv Lineno    Source Statement           (Hibal 5, Asmedit 3.3)  HLASM R4.0  2004/03/15 13.11
+___    ______ ____    _____ _____  ____ __ ______    ______ _________
0                                  45956
                                   45957
                                   45958                 COMMAND -- Process command received from path
                                   45959
                                   45960                   On entry:
                                   45961                     R0  - command length
                                   45962                     R1  - command address
                                   45963                     R15 - SEGCB address
                                   45964

0000000                00000 000F4 45965              CMDWA    RECORD BEGIN
 000000                            45973  1           CMDSEGCB   DS    A                   SEGCB address
 000004                            45974  1           CMDTEXT    DS    CL120               Copy of command text
 00007C                            45975  1           CMDTEMP    DS    CL120               Work area
 0000F4                000F4 000F4 45976                       END
-007D74 90EF C020/4DE0_      00020 45986              COMMAND  PROC  CMDWA
 USING  *,R11
 USING  CMDWA-(4+52),R9
 007D98 4180 BFDB            08D73 46039                       LA    R8,COMMAND+4095     Set up
 007D9C 4188 0001            00001 46040                       LA    R8,1(R8)             second
 USING  COMMAND+4096,R8            46041                       USING COMMAND+4096,R8       base register
 007DA0 50F0 9038            00000 46050                       ST    R15,CMDSEGCB        Save SEGCB address
                                   46051                       SEGDEF L:CMDSEGCB
 007DA4 5900 8304/47D0_      09078 46052                       CEIL  R0,L'CMDTEXT        Check command length
 007DB0 1821                       46071                       LR    R2,R1               Copy command to work area
 007DB2 1830                       46072                       LR    R3,R0
 007DB4 BF38 C23C            0023C 46073                       ICM   R3,8,NITBLANK
 007DB8 41E0 903C            00004 46074                       LA    R14,CMDTEXT
 007DBC 41F0 0078            00078 46075                       LA    R15,L'CMDTEXT
 007DC0 0EE2                       46076                       MVCL  R14,R2
 007DC2 4110 903C/41F0_      00004 46077                       SCINIT CMDTEXT,(R0),NITSCNCB   Init scanner
 007DD0                            46100              CMDNEXT  LABEL
 007DD0 4110 B0AC/41F0_      07E44 46102                       SCAN  CMDPRT,NITSCNCB
 007DDE 4780 B08A            07E22 46121                       IF    NZ,BEGIN
 007DE2                            46132  1           CMDERROR   LABEL
 007DE2 1000                       46134  1                      LPR   R0,R0
 007DE4 1200/47D0 B074_            46135  1                      IF    ((R0,P),AND,(R1,P)),BEGIN
 007DF0 58F0 9038/58E0_      00000 46162  2                        SEGB  (R1),(R0)
 007DFA 4110 84B4/4100_      09228 46184  2                        SEGWR '- Invalid'
 007E0C                            46200  1                      END
 007E0C B078/B078/47F0_07E0C 07DE8 46204  1                      ELSE  BEGIN
 007E10 4110 8424/4100_      09198 46217  2                        SEGWR 'Missing option'
 007E22                            46233  1                      END
 007E22                            46237                       END
                                   46241
 007E22 4100 C1EC            001EC 46242              CMDEXIT  LA    R0,NITPSG           Path SEGCB address
 007E26 5900 9038/4770_      00000 46243                       IF    (R0,EQ,CMDSEGCB),BEGIN  If writing to path,
 007E2E 4110 8318/4100_      0908C 46260  1                      SEGWR '$END'              Add end of response indicator
 007E40                            46276                       END
 007E40 47F0 8282            08FF6 46280                       EXIT  COMMAND             Return
1AMELIA   COMMAND - Command processor                                                                                       Page  200
0Current Usings:  (COMMAND+4096,R8) (CMDWA-(4+52),R9) (*,R11) (NIT,R12)
0Loc    Object Code    Addr1 Addr2  Stmt Lv Lineno    Source Statement           (Hibal 5, Asmedit 3.3)  HLASM R4.0  2004/03/15 13.11
+___    ______ ____    _____ _____  ____ __ ______    ______ _________
0                                  46284
                                   46285                         Command verb table.
                                   46286
 007E44 86007F84C1C4C4C8           46287              CMDPRT   SCKW  ADDHOST,CADDHOST,P
 007E4F 07007FECC8D6E2E3           46289                       SCKW  HOSTLOAD,CHSTLOAD
 007E5B AB007FFAD2C9D3D3           46291                       SCKW  KILL,CMDKILL,(P,PI,A)
 007E63 0D008034D3D6D6D2           46293                       SCKW  LOOKUP,CLOOKUP,A
 007E6D 0E0082D8D4D6D5C9           46295                       SCKW  MONITOR,CMDMON,A
 007E78 02007EB0E2C5E3             46297                       SCKW  SET,CSET
 007E7F 0B007F06E2C8D6E6           46299                       SCKW  SHOW,CSHOW,A
 007E87 0B007F06C4E4D4D7           46301                       SCKW  DUMP,CSHOW,A
 007E8F 010086DAE2C3               46303                       SCKW  SC,SHOWCORE
 007E95 01008466D7C3               46305                       SCKW  PC,PATCORE
 007E9B 0F008FB0E6D9C9E3           46307                       SCKW  WRITELOG,WRITELOG,A
 007EA7 00008FB0E6                 46309                       SCKW  W,WRITELOG
 007EAC FF007DE2                   46311                       SCKW  ,CMDERROR
0                                  46314
                                   46315                         SET Command
                                   46316
 007EB0                            46317              CSET     LABEL
 007EB0 D603 C124 C124_00124 00124 46319                       IF    (NITPCUR,NZ),BEGIN
 007EBA 5860 C124            00124 46335  1                      L     R6,NITPCUR
 USING  UPATH,R6                   46336  1                      WITH  (UPATH,R6)
 007EBE 9118 600E/4780_0000E       46349  1                      IF    (UPATFSPR+UPATFOPR,Z),CMDERROR  Check for privs
 DROP   UPATH,R6                   46372                       END
                                   46381
 007EC6 4110 B140/41F0_      07ED8 46382                       SCAN  CSETPRT,NITSCNCB
 007ED4 47F0 B04A            07DE2 46401                       B     CMDERROR
                                   46402
 007ED8 010085C2D5E2               46403              CSETPRT  SCKW  NS,CSETNS
 007EDE 07008648E3C3D7E3           46405                       SCKW  TCPTRACE,CSETTRC
 007EEA 060085B2D4D6D5D7           46407                       SCKW  MONPRIV,CSETMONP
 007EF5 070085BAD5D6D4D6           46409                       SCKW  NOMONPRI,CSETNOMP
 007F01 FF007DE2                   46411                       SCKW  ,CMDERROR
-                                  46414
                                   46415                         SHOW Command
                                   46416
 007F05 00/4110 B180/41F_          46417              CSHOW    SCAN  CSHOWPRT,NITSCNCB
 007F14 47F0 B04A            07DE2 46436                       B     CMDERROR
                                   46437
 007F18 0B0086DAC3D6D9C5           46438              CSHOWPRT SCKW  CORE,SHOWCORE,A
 007F20 0B008804C8C1E2C8           46440                       SCKW  HASH,SHOWHASH,A
 007F28 0C008952C8D6E2E3           46442                       SCKW  HOSTS,SHOWHOST,A
 007F31 02008930C8D5E3             46444                       SCKW  HNT,SHOWHNT
 007F38 0B008A78C9D5C6D6           46446                       SCKW  INFO,SHOWINFO,A
 007F40 02008AAED3D6C7             46448                       SCKW  LOG,SHOWLOG
 007F47 06008B44D4D6D5D7           46450                       SCKW  MONPRIV,CSHOMONP
 007F52 01008B78D5E2               46452                       SCKW  NS,CSHOWNS
 007F58 0C008C08D7C1E3C8           46454                       SCKW  PATHS,SHOWPATH,A
 007F61 02008D8AE3C3D7             46456                       SCKW  TCP,SHOWTCP
 007F68 07008EEAE3C3D7E3           46458                       SCKW  TCPTRACE,SHOWTTRC
1AMELIA   COMMAND - Command processor                                                                                       Page  201
0Current Usings:  (COMMAND+4096,R8) (CMDWA-(4+52),R9) (*,R11) (NIT,R12)
0Loc    Object Code    Addr1 Addr2  Stmt Lv Lineno    Source Statement           (Hibal 5, Asmedit 3.3)  HLASM R4.0  2004/03/15 13.11
+___    ______ ____    _____ _____  ____ __ ______    ______ _________
0007F74 0E008F60E5C5D9E2           46460                       SCKW  VERSION,SHOWVER,A
 007F7F FF007DE2                   46462                       SCKW  ,CMDERROR
1AMELIA   Command processes -- ADDHOST and HOSTLOAD commands                                                                Page  202
0Current Usings:  (COMMAND+4096,R8) (CMDWA-(4+52),R9) (*,R11) (NIT,R12)
0Loc    Object Code    Addr1 Addr2  Stmt Lv Lineno    Source Statement           (Hibal 5, Asmedit 3.3)  HLASM R4.0  2004/03/15 13.11
+___    ______ ____    _____ _____  ____ __ ______    ______ _________
0                                  46465
                                   46466
                                   46467                 ADDHOST nn.nn.nn.nn  name ...   - Add host name entry
                                   46468
                                   46469

0007F84 1200/47D0 B04A             46470              CADDHOST IF    (R0,NP),CMDERROR
 007F8A 58E0 831C/0DEE       09090 46488                       ACALL CNVTIP              Convert IP address
 007F90 4780 B04A            07DE2 46492                       IF    Z,CMDERROR          Exit if not valid address
 007F94 183F                       46506                       LR    R3,R15              Save IP address
 007F96 182D/41D0 D014             46507                       XPUSH ,,20,PTR=R2         Space for ADDHNT parm list
 007F9C                            46510                       LOOP  BEGIN
 007F9C 58E0 8320/0DEE       09094 46516  1                      ACALL GETTOKEN            Scan host name
 007FA2 1200/4780 B08A             46520  1                      IF    (R0,Z),CMDEXIT      Exit if no more names
 007FA8 D203 2000 8324 00000 09098 46537  1                      MVC   @R2(4),=A(RR#A)     'A' entry type
 007FAE D203 2004 C33C 00004 0033C 46538  1                      MVC   @R2+4(4),NITZERO    No TTL
 007FB4 5030 2008            00008 46539  1                      ST    R3,@R2+8            IP address
 007FB8 5010 200C            0000C 46540  1                      ST    R1,@R2+12           Name pointer
 007FBC 5000 2010            00010 46541  1                      ST    R0,@R2+16           Name length
 007FC0 1812                       46542  1                      LR    R1,R2               Parm pointer
 007FC2 58E0 8328/0DEE       0909C 46543  1                      ACALL ADDHNT              Add host name entry
 007FC8 59F0 832C/4770_      090A0 46547  1                      IF    (R15,EQ,4),'SEGWR "Invalid name"'
 007FE2 47F0 B204            07F9C 46585                       END
 007FE6 18D2                       46590                       XPOP  PTR=R2
 007FE8 47F0 B08A            07E22 46592                       B     CMDEXIT
-
                                   46594
                                   46595
                                   46596                 HOSTLOAD - load host table
                                   46597

0007FEC 58F0 9038            00000 46598              CHSTLOAD L     R15,CMDSEGCB        SEGCB address
 007FF0 58E0 833C/0DEE       090B0 46599                       ACALL HOSTLOAD            Go process file
 007FF6 47F0 B08A            07E22 46603                       B     CMDEXIT
1AMELIA   Command processor -- KILL command                                                                                 Page  203
0Current Usings:  (COMMAND+4096,R8) (CMDWA-(4+52),R9) (*,R11) (NIT,R12)
0Loc    Object Code    Addr1 Addr2  Stmt Lv Lineno    Source Statement           (Hibal 5, Asmedit 3.3)  HLASM R4.0  2004/03/15 13.11
+___    ______ ____    _____ _____  ____ __ ______    ______ _________
0                                  46605
                                   46606
                                   46607                 KILL [tcbid]  - kill TCP connection
                                   46608

0                                  46609                       PUSH  USING
                                   46610
 007FFA 5810 C7F8            007F8 46611              CMDKILL  L     R1,SCNVAL           Get TCB id
 007FFE 58E0 8340/0DEE       090B4 46612                       ACALL KILLTCB             Call kill routine
 008004 4780 B282            0801A 46616                       IF    NZ,BEGIN            If error return,
 008008 4110 84BD/4100_      09231 46627  1                      SEGWR 'Unknown TCP connection id'   Send err msg
 00801A                            46643                       END
 00801A B286/47F0 B298 0801A 08006 46647                       ELSE  BEGIN               Else OK return,
 00801E 4110 84D6/4100_      0924A 46658  1                      SEGWR 'TCP connection killed'  Send back message
 008030                            46674                       END
 008030 47F0 B08A            07E22 46678                       B     CMDEXIT
                                   46679
                                   46680                       POP   USING
1AMELIA   Command processor - LOOKUP command                                                                                Page  204
0Current Usings:  (COMMAND+4096,R8) (CMDWA-(4+52),R9) (*,R11) (NIT,R12)
0Loc    Object Code    Addr1 Addr2  Stmt Lv Lineno    Source Statement           (Hibal 5, Asmedit 3.3)  HLASM R4.0  2004/03/15 13.11
+___    ______ ____    _____ _____  ____ __ ______    ______ _________
0                                  46714
                                   46715
                                   46716                LOOKUP <ipaddr|name> [TYPE=A|MX] [NR] [SERVER=ipaddr|name] [WAIT=n]
                                   46717                                     [MAILHOST]
                                   46718
                                   46719                 Query name server for host information.  The MAILHOST option is
                                   46720                  used by the NETMAIL exec to get a list of hosts that accept
                                   46721                  mail for the specified host name.
                                   46722

0000000                00000 0000A 46723              CLOOKUPW RECORD BEGIN
 000000                            46731  1           CLOOKSRV   DS    F                   Server IP address
 000004                            46732  1           CLOOKWT    DS    F                   Wait time
 000008                            46733  1           CLOOKQT    DS    X                   Query type
 000009 00                         46734  1           CLOOKFLG   FLAG
 CLOOKFLG.CLOOKNR  80 ONES         46738  1                      FLAG  CLOOKNR             No recursion
 CLOOKFLG.CLOOKMHS 40 ONES         46743  1                      FLAG  CLOOKMHS            Mailhost option
 00000A                0000A 0000A 46748                       END
-008034                            46758              CLOOKUP  LABEL
 008034 187D/41D0 D00C             46760                       XPUSH ,,L'CLOOKUPW,PTR=R7
 USING  CLOOKUPW,R7                46763                       USING CLOOKUPW,R7
 00803A D709 7000 7000 00000 00000 46772                       CLEAR CLOOKUPW
 008040 D203 7004 8344 00004 090B8 46779                       MVC   CLOOKWT,=A(30)      Default wait time
 008046 92FF 7008      00008       46780                       MVI   CLOOKQT,RR#ALL      Default query type
                                   46781
 00804A 58E0 8320/0DEE       09094 46782                       ACALL GETTOKEN            Get host name/IP address
 008050 1200/47D0 B04A             46786                       IF    (R0,NP),CMDERROR
 008056 1821                       46803                       LR    R2,R1               Save parm ptr
 008058 1830                       46804                       LR    R3,R0               Save parm len
                                   46805
 00805A 4110 B484/41F0_      0821C 46806              CLOOKSCN SCAN  CLOOKPRT,NITSCNCB   Scan parms
 008068 4770 B04A            07DE2 46825                       IF    NZ,CMDERROR
                                   46839
                                   46840                         If MAILHOST call, check if HNT contains mail entries
                                   46841                         for the specified host.  If so, no lookup is needed.
                                   46842
 00806C 9140 7009/47E0_00009       46843                       IF    CLOOKMHS,BEGIN      If MAILHOST call,
 008074 1812                       46858  1                      LR    R1,R2               Name pointer
 008076 1803                       46859  1                      LR    R0,R3               Name length
 008078 58E0 831C/0DEE       09090 46860  1                      ACALL CNVTIP              Check if IP address
 00807E 4780 B30E            080A6 46864  1                      IF    NZ,BEGIN            If IP address,
 008082 4110 84EB/4100_      0925F 46875  2                        SEG   'MAILHOST='         Response is IP address
 008094 1812/1803/58F0_            46890  2                        SEGWR (R2),(R3)
 0080A2 47F0 B08A            07E22 46914  2                        B     CMDEXIT             Return
 0080A6                            46915  1                      END
 0080A6 1B55                       46919  1                      CLEAR R5                  Clear flag register
 0080A8 58E0 834C/0DEE       090C0 46923  1                      ACALL GETHNT              Get HNT entry for host
 0080AE 1211/4780 B396             46927  1                      WHILE (R1,NZ),BEGIN       While have HNT entry,
 0080B4 1841                       46943  2                        LR    R4,R1               Copy HNT base
 USING  HNT,R4                     46944  2                        WITH  (HNT,R4)
 0080B6 9180 400C/47E0_0000C       46957  2                        IF    HNTFMAIL,BEGIN      If mail entry,
1AMELIA   Command processor - LOOKUP command                                                                                Page  205
0Current Usings:  (HNT,R4) (CLOOKUPW,R7) (COMMAND+4096,R8) (CMDWA-(4+52),R9) (*,R11) (NIT,R12)
0Loc    Object Code    Addr1 Addr2  Stmt Lv Lineno    Source Statement           (Hibal 5, Asmedit 3.3)  HLASM R4.0  2004/03/15 13.11
+___    ______ ____    _____ _____  ____ __ ______    ______ _________
00080BE 1854                       46972  3                          LR    R5,R4               Save entry pointer
 0080C0 9501 400D/4770_0000D       46973  3                          IF    (HNTTYPE,EQ,RR#A),BEGIN   If A entry with mail flag,
 0080C8 4110 84EB/4100_      0925F 46991  4                            SEG   'MAILHOST='         Return host name
 0080DA 4110 4011/1F00_      00011 47006  4                            SEGWR HNTNAME,LC:HNTNAMLN
 0080EE                            47035  3                          END
 0080EE B35A/47F0 B38A 080EE 080C6 47039  3                          ELSE  BEGIN               Else have MX entry,
 0080F2 4110 84EB/4100_      0925F 47050  4                            SEG   'MAILHOST='         Format response line
 008104 1F11/4310 4010             47065  4                            LC    R1,HNTNAMLN         Get name length
 00810A 4111 4011            00011 47072  4                            LA    R1,HNTNAME(R1)      Point to MX length
 00810E 1F00/4300 1000             47073  4                            LC    R0,@R1              Get MX name length
 008114 5E10 8350            090C4 47078  4                            INCR  R1                  Get MX name address
 008118 58F0 9038/58E0_      00000 47081  4                            SEGWR (R1),(R0)
 008122                            47103  3                          END
 008122                            47107  2                        END
 008122 1814                       47111  2                        LR    R1,R4               Copy HNT address
 008124 58E0 8354/0DEE       090C8 47112  2                        ACALL GETHNTNX            Get next entry for this host
 00812A 47F0 B316            080AE 47116  1                      END
 DROP   HNT,R4
 00812E 1255/4770 B08A             47126  1                      IF    (R5,NZ),CMDEXIT     Return if found mail host entries
 008134                            47143                       END
                                   47147
                                   47148                         Build and queue name server lookup entry
                                   47149
 008134 4100 0354            00354 47150                       LA    R0,L'NSL            Lookup queue entry length
 008138 58E0 8358/0DEE       090CC 47151                       ACALL GETBUF              Get storage
 00813E 1841                       47155                       LR    R4,R1               Save pointer
 USING  NSL,R4                     47156                       USING NSL,R4
 008140 D747 4000 4000 00000 00000 47165                       CLEAR NSLHDR              Clear hdr area
 008146 D2FF 404C C23C 0004C 0023C 47172                       MVC   NSLNAME,NITBLANK    Blank name area
 00814C 1803                       47173                       LR    R0,R3               Copy parm len
 00814E 1812                       47174                       LR    R1,R2               Copy parm addr
 008150 58E0 831C/0DEE       09090 47175                       ACALL CNVTIP              Try to convert as IP address
 008156 12FF/4780 B3C8             47179                       IF    (R15,NZ),BEGIN      If have IP address,
 00815C 50F0 4044            00044 47193  1                      ST    R15,NSLIP           Set IP address for lookup
 008160                            47194                       END
 008160 B3CC/47F0 B3D6 08160 0815A 47198                       ELSE  BEGIN               Else have host name,
 008164 5030 4048            00048 47209  1                      ST    R3,NSLNAMLN              Set name length
 008168 0630/4430 862E_            47210  1                      DEX   R3,'MVC NSLNAME(0),@R2'  Set name for lookup
 00816E                            47229                       END
                                   47233
 00816E 4100 C1EC            001EC 47234                       LA    R0,NITPSG
 008172 5900 9038/4770_      00000 47235                       IF    (R0,EQ,CMDSEGCB),BEGIN   If command from path,
 00817A 58F0 C124            00124 47252  1                      L     R15,NITPCUR              Get current UPATH
 USING  UPATH,R15                  47253  1                      WITH  (UPATH,R15)
 00817E D203 400C F008 0000C 00008 47266  1                      MVC   NSLUPATH,UPATIDNO   Set path ID for messages
 008184 9640 4019      00019       47267  1                      SET   NSLPCMD             Flag path command
 DROP   UPATH,R15                  47273                       END
                                   47282
 008188 9140 7009/47E0_00009       47283                       IF    CLOOKMHS,'SET NSLCMDMH'  Flag as MAILHOST
 008194 B400/47F0 B404_08194 0818E 47309                       ELSE  'SET NSLCMDLK'            or LOOKUP command
                                   47331
 00819C D200 4016 7008 00016 00008 47332                       MVC   NSLQTYPE,CLOOKQT    Set query type
 0081A2 D203 401C 7000 0001C 00000 47333                       MVC   NSLNMSRV,CLOOKSRV   Set server address
 0081A8 D203 403C 7004 0003C 00004 47334                       MVC   NSLEXPTM,CLOOKWT    Set expiration time
1AMELIA   Command processor - LOOKUP command                                                                                Page  206
0Current Usings:  (NSL,R4) (CLOOKUPW,R7) (COMMAND+4096,R8) (CMDWA-(4+52),R9) (*,R11) (NIT,R12)
0Loc    Object Code    Addr1 Addr2  Stmt Lv Lineno    Source Statement           (Hibal 5, Asmedit 3.3)  HLASM R4.0  2004/03/15 13.11
+___    ______ ____    _____ _____  ____ __ ______    ______ _________
00081AE 9180 7009/47E0_00009       47335                       IF    CLOOKNR,'SET NSLNOREC'  Recursion option
 0081BA D203 4034 8350 00034 090C4 47361                       MVC   NSLTRY,=A(1)        Just one try
                                   47362
 0081C0 4110 84F4/4100_      09268 47363                       SEGWR 'Queueing lookup'
                                   47379
 0081D2 4110 4000            00000 47380                       LA    R1,NSL              Point to NSL start
 0081D6 58E0 835C/0DEE       090D0 47381                       ACALL NSLOOKUP            Begin lookup
 0081DC 59F0 832C/4770_      090A0 47385                       IF    (R15,EQ,4),BEGIN    Check for invalid name
 0081E4 4110 8294/4100_      09008 47402  1                      SEGWR 'ERROR: INVALID HOST NAME'
 0081F6 47F0 B08A            07E22 47418  1                      B     CMDEXIT
 0081FA                            47419                       END
 0081FA 59F0 8360/4770_      090D4 47423                       IF    (R15,EQ,8),BEGIN    Check for no name servers
 008202 4110 8503/4100_      09277 47440  1                      SEGWR 'No name servers defined'
 008214 47F0 B08A            07E22 47456  1                      B     CMDEXIT
 008218                            47457                       END
                                   47461
                                   47462                         Exit command processing without sending $END line,
                                   47463                         which will be done by NS routines after the lookup
                                   47464                         is complete.
                                   47465
 008218 47F0 8282            08FF6 47466                       EXIT  COMMAND
-00821C 8B00824CE3E8D7C5           47470              CLOOKPRT SCKW  TYPE,CLKPRTQT,(P,A)
 008224 0D00827EE2C5D9E5           47472                       SCKW  SERVER,CLKPRTSV,A
 00822E AB0082B4E6C1C9E3           47474                       SCKW  WAIT,CLKPRTWT,(P,A,PI)
 008236 010082D0D5D9               47476                       SCKW  NR,CLKPRTNR
 00823C 070082C4D4C1C9D3           47478                       SCKW  MAILHOST,CLKPRTMH
 008248 FF007DE2                   47480                       SCKW  ,CMDERROR
                                   47482
 00824C 5900 8350/4770_      090C4 47483              CLKPRTQT IF    ((R0,EQ,1),AND,(@R1,EQ,'A')),'MVI CLOOKQT,RR#A'
 008260 B4CC/B4CC/47F0_08260 08252 47522                       ELSEIF ((R0,EQ,2),AND,(@R1,EQ,'MX')),'MVI CLOOKQT,RR#MX'
 00827A B04A/B04A      0827A 0826A 47571                       ELSE  CMDERROR
 00827A 47F0 B2C2            0805A 47578                       B     CLOOKSCN
                                   47579
 00827E 58E0 8320/0DEE       09094 47580              CLKPRTSV ACALL GETTOKEN            Get server name/IP addr
 008284 1200/47D0 B04A             47584                       IF    (R0,NP),CMDERROR
 00828A 58E0 8368/0DEE       090DC 47601                       ACALL GETIPADD            Lookup host
 008290 12FF/4770 B514             47605                       IF    (R15,Z),BEGIN
 008296 4110 8434/4100_      091A8 47619  1                      SEGWR 'Do not have IP address for name server'
 0082A8 47F0 B08A            07E22 47635  1                      B     CMDEXIT
 0082AC                            47636                       END
 0082AC 50F0 7000            00000 47640                       ST    R15,CLOOKSRV        Save server IP address
 0082B0 47F0 B2C2            0805A 47641                       B     CLOOKSCN
                                   47642
 0082B4 1200/47D0 B04A             47643              CLKPRTWT IF    (R0,NP),CMDERROR    Wait time
 0082BA D203 7004 C7F8 00004 007F8 47661                       MVC   CLOOKWT,SCNVAL
 0082C0 47F0 B2C2            0805A 47662                       B     CLOOKSCN
                                   47663
 0082C4 9640 7009      00009       47664              CLKPRTMH SET   CLOOKMHS            MAILHOST option
 0082C8 920F 7008      00008       47671                       MVI   CLOOKQT,RR#MX       Set MX query type
 0082CC 47F0 B2C2            0805A 47672                       B     CLOOKSCN
                                   47673
 0082D0 9680 7009      00009       47674              CLKPRTNR SET   CLOOKNR             No recursion on lookup
1AMELIA   Command processor - LOOKUP command                                                                                Page  207
0Current Usings:  (NSL,R4) (CLOOKUPW,R7) (COMMAND+4096,R8) (CMDWA-(4+52),R9) (*,R11) (NIT,R12)
0Loc    Object Code    Addr1 Addr2  Stmt Lv Lineno    Source Statement           (Hibal 5, Asmedit 3.3)  HLASM R4.0  2004/03/15 13.11
+___    ______ ____    _____ _____  ____ __ ______    ______ _________
00082D4 47F0 B2C2            0805A 47681                       B     CLOOKSCN
                                   47682
 DROP   NSL,R4                     47683                       DROP  R4                  ## NSL
 DROP   CLOOKUPW,R7                47690                       DROP  R7                  ## CLOOKUPW
1AMELIA   Command processor -- MONITOR command                                                                              Page  208
0Current Usings:  (COMMAND+4096,R8) (CMDWA-(4+52),R9) (*,R11) (NIT,R12)
0Loc    Object Code    Addr1 Addr2  Stmt Lv Lineno    Source Statement           (Hibal 5, Asmedit 3.3)  HLASM R4.0  2004/03/15 13.11
+___    ______ ____    _____ _____  ____ __ ______    ______ _________
0                                  47698
                                   47699
                                   47700                 MONITOR [protocol] [HOST name|ip] [options]
                                   47701
                                   47702                    protocol = IP|TCP|UDP|ICMP|ARP|PROT 0xxxx|PROT n
                                   47703
                                   47704                    options  = [DATA|NODATA] [BROAD|NOBROAD] [EXTERNAL]
                                   47705
                                   47706                 Activate packet monitoring on current path
                                   47707

00082D8 5870 C124            00124 47708              CMDMON   L     R7,NITPCUR          Get UPATH address
 0082DC 1277/4780 B04A             47709                       IF    (R7,Z),CMDERROR
 USING  UPATH,R7                   47726                       USING (UPATH,R7)          ## UPATH
                                   47736            C          IF    (NITFMONP,AND,
 0082E2 9180 C102/47E0_00102                                         (UPATFSPR+UPATFOPR,Z)),CMDERROR  Check for privs
 0082F2 D707 7052 7052 00052 00052 47773                       CLEAR UPATMON             Clear work area
 0082F8 4110 B5A4/41F0_      0833C 47780              CMONSCAN SCAN  CMONPRT,NITSCNCB
 008306 4770 B04A            07DE2 47799                       IF    NZ,CMDERROR
 00830A 9680 7059      00059       47813                       SET   UPATMACT            Flag monitoring active
 00830E 4110 851A/4100_      0928E 47819                       SEGB  'Monitoring started '
 008320 9801 C33C            0033C 47835                       LM    R0,R1,NITZERO
 008324 41F0 90B4            0007C 47836                       LA    R15,CMDTEMP
 008328 58E0 836C/0DEE       090E0 47837                       ACALL FMTXDATE
 00832E 58F0 9038/58E0_      00000 47841                       SEGWR (R1),(R0)
 008338 47F0 8282            08FF6 47863                       EXIT  COMMAND             Exit without sending EOF
-00833C 02008432C1D9D7             47867              CMONPRT  SCKW  ARP,CMONARP
 008343 01008428C9D7               47869                       SCKW  IP,CMONIP
 008349 02008420E4C4D7             47871                       SCKW  UDP,CMONUDP
 008350 02008418E3C3D7             47873                       SCKW  TCP,CMONTCP
 008357 0B008410C9C3D4D7           47875                       SCKW  ICMP,CMONICMP,A
 00835F 8F00843CD7D9D6E3           47877                       SCKW  PROTOCOL,CMONPROT,(P,A)
 00836B 0F0083F0C2D9D6C1           47879                       SCKW  BROADCAST,CMONBRO,A
 008377 0F0083FCD5D6C2D9           47881                       SCKW  NOBROADCAST,CMONNBRO,A
 008383 0F0083E8C5E7E3C5           47883                       SCKW  EXTERNAL,CMONEXT,A
 00838F 0F008408E3D9E4D5           47885                       SCKW  TRUNCATE,CMONTRU,A
 00839B 05008408D5D6C4C1           47887                       SCKW  NODATA,CMONTRU
 0083A5 0B0083B2C8D6E2E3           47889                       SCKW  HOST,CMONHOST,A
 0083AD FF007DE2                   47891                       SCKW  ,CMDERROR
                                   47893
 0083B1 00/58E0 8320/0DE_          47894              CMONHOST ACALL GETTOKEN            Scan name/IP address
 0083B8 1200/47D0 B04A             47898                       IF    (R0,NP),CMDERROR
 0083BE 58E0 8368/0DEE       090DC 47915                       ACALL GETIPADD
 0083C4 12FF/4770 B648             47919                       IF    (R15,Z),BEGIN
 0083CA 4110 82AC/4100_      09020 47933  1                      SEGWR 'Don''t have IP address for host...do LOOKUP first'
 0083DC 47F0 B08A            07E22 47949  1                      B     CMDEXIT
 0083E0                            47950                       END
 0083E0 BEFF 7055            00055 47954                       ST4   R15,UPATMIPA
 0083E4 47F0 B690            08428 47956                       B     CMONIP
                                   47957
 0083E8 9608 7059      00059       47958              CMONEXT  SET   UPATMEXT
1AMELIA   Command processor -- MONITOR command                                                                              Page  209
0Current Usings:  (UPATH,R7) (COMMAND+4096,R8) (CMDWA-(4+52),R9) (*,R11) (NIT,R12)
0Loc    Object Code    Addr1 Addr2  Stmt Lv Lineno    Source Statement           (Hibal 5, Asmedit 3.3)  HLASM R4.0  2004/03/15 13.11
+___    ______ ____    _____ _____  ____ __ ______    ______ _________
00083EC 47F0 B690            08428 47965                       B     CMONIP
                                   47966
 0083F0 9610 7059      00059       47967              CMONBRO  SET   UPATMBRO
 0083F4 94DF 7059      00059       47974                       CLEAR UPATMNBR
 0083F8 47F0 B560            082F8 47981                       B     CMONSCAN
                                   47982
 0083FC 9620 7059      00059       47983              CMONNBRO SET   UPATMNBR
 008400 94EF 7059      00059       47990                       CLEAR UPATMBRO
 008404 47F0 B560            082F8 47997                       B     CMONSCAN
                                   47998
 008408 9640 7059      00059       47999              CMONTRU  SET   UPATMTRU
 00840C 47F0 B560            082F8 48006                       B     CMONSCAN
                                   48007
 008410 41F0 0001            00001 48008              CMONICMP LA    R15,IPICMP#
 008414 47F0 B68C            08424 48009                       B     CMONIPTP
 008418 41F0 0006            00006 48010              CMONTCP  LA    R15,IPTCP#
 00841C 47F0 B68C            08424 48011                       B     CMONIPTP
 008420 41F0 0011            00011 48012              CMONUDP  LA    R15,IPUDP#
 008424 42F0 7054            00054 48013              CMONIPTP STC   R15,UPATMIPP
 008428 D201 7052 845A 00052 091CE 48014              CMONIP   MVC   UPATMENP,=Y(ENETIP#)
 00842E 47F0 B560            082F8 48015                       B     CMONSCAN
                                   48016
 008432 D201 7052 845C 00052 091D0 48017              CMONARP  MVC   UPATMENP,=Y(ENETARP#)
 008438 47F0 B560            082F8 48018                       B     CMONSCAN
                                   48019
 00843C 1200/47D0 B04A             48020              CMONPROT IF    (R0,NP),CMDERROR
 008442 95F0 1000/4770_00000       48038                       IF    (@R1,EQ,'0'),BEGIN
 00844A 58E0 8370/0DEE       090E4 48054  1                      XTB   (R1),(R0)
 008450                            48069                       END
 008450 B6BC/47F0 B6C2 08450 08448 48073                       ELSE  BEGIN
 008454 58E0 8374/0DEE       090E8 48084  1                      DTB   (R1),(R0)
 00845A                            48099                       END
 00845A 4770 B04A            07DE2 48103                       IF    NZ,CMDERROR
 00845E 40F0 7052            00052 48117                       STH   R15,UPATMENP
 008462 47F0 B560            082F8 48118                       B     CMONSCAN
                                   48119
 DROP   UPATH,R7                   48120                       DROP  R7
1AMELIA   Command processor -- PC command                                                                                   Page  210
0Current Usings:  (COMMAND+4096,R8) (CMDWA-(4+52),R9) (*,R11) (NIT,R12)
0Loc    Object Code    Addr1 Addr2  Stmt Lv Lineno    Source Statement           (Hibal 5, Asmedit 3.3)  HLASM R4.0  2004/03/15 13.11
+___    ______ ____    _____ _____  ____ __ ______    ______ _________
0                                  48128
                                   48129
                                   48130                PC -- Patch core command.
                                   48131
                                   48132                The syntax for the command is:
                                   48133                  PC hexaddr|symbol [+ nnn] [replacement data]
                                   48134

0000000                00000 00108 48135              PCWA     RECORD BEGIN
 000000                            48143  1           PCLOC      DS    F                   Patch address
 000004                            48144  1           PCTLEN     DS    H                   Replacement text length
 000006                            48145  1                      DS    H                   Reserved
 000008                            48146  1           PCTEXT     DS    CL128               Replacement text
 000088                            48147  1           PCXTEXT    DS    CL128               Old text
 000108                00108 00108 48148                       END
                                   48157
 008466                            48158              PATCORE  LABEL
 008466 187D/41D0 D108             48160                       XPUSH ,,L'PCWA,PTR=R7
 USING  PCWA,R7                    48163                       USING PCWA,R7
 00846C D7FF 7000 7000_00000 00000 48172                       CLEAR PCWA                Clear work area
                                   48180
                                   48181                         Check for system privileged user.
                                   48182
 008478 5860 C124            00124 48183                       L     R6,NITPCUR
 USING  UPATH,R6                   48184                       WITH  (UPATH,R6),BEGIN
 00847C 9110 600E/4710_0000E       48198  1                      IF    ~UPATFSPR,BEGIN     Not priv'd...
 008484 4110 852D/4100_      092A1 48213  2                        SEGWR 'Privileged command.'
 008496 47F0 B08A            07E22 48229  2                        B     CMDEXIT
 00849A                            48230  1                      END
 DROP   UPATH,R6                   48234                       END
                                   48242
                                   48243                         Scan "hexaddr|symbol [+ nnn]".
                                   48244
 00849A 1B11/41F0 C7F8_            48245                       SCAN  ,NITSCNCB           Scan next token
 0084A6 1200/47D0 B04A             48261                       IF    (R0,NP),CMDERROR
 0084AC D505 845E C7FC_091D2 007FC 48278                       IF    (SCNKW,EQ,'AMELIA'),BEGIN
 0084B6 41F0 C000            00000 48295  1                      LA    R15,AMELIA          Set start address
 0084BA                            48296                       END
 0084BA B726/47F0 B732 084BA 084B4 48300                       ELSE  BEGIN
 0084BE 58E0 8370/0DEE       090E4 48311  1                      XTB   (R1),(R0)
 0084C4 1200/4770 B04A             48326  1                      IF    (R0,NZ),CMDERROR
 0084CA                            48343                       END
 0084CA 50F0 7000            00000 48347                       ST    R15,PCLOC           Save patch core location
                                   48348
 0084CE 1B11/41F0 C7F8_            48349                       SCAN  ,NITSCNCB
 0084DA 1200/47D0 B794_            48365                       IF    ((R0,P),AND,(@R1,EQ,'+')),BEGIN
 0084E8 1B11/41F0 C7F8_            48394  1                      SCAN  ,NITSCNCB
 0084F4 1200/47D0 B04A             48410  1                      IF    (R0,NP),CMDERROR
 0084FA 95F0 1000/4770_00000       48427  1                      IF    (@R1,EQ,'0'),BEGIN
 008502 58E0 8370/0DEE       090E4 48443  2                        XTB   (R1),(R0)
 008508                            48458  1                      END
 008508 B774/47F0 B77A 08508 08500 48462  1                      ELSE  BEGIN
 00850C 58E0 8374/0DEE       090E8 48473  2                        DTB   (R1),(R0)
1AMELIA   Command processor -- PC command                                                                                   Page  211
0Current Usings:  (PCWA,R7) (COMMAND+4096,R8) (CMDWA-(4+52),R9) (*,R11) (NIT,R12)
0Loc    Object Code    Addr1 Addr2  Stmt Lv Lineno    Source Statement           (Hibal 5, Asmedit 3.3)  HLASM R4.0  2004/03/15 13.11
+___    ______ ____    _____ _____  ____ __ ______    ______ _________
0008512                            48488  1                      END
 008512 1200/4770 B04A             48492  1                      IF    (R0,NZ),CMDERROR
 008518 5AF0 7000            00000 48509  1                      A     R15,PCLOC           Add offset to address
 00851C 50F0 7000            00000 48510  1                      ST    R15,PCLOC           Save patch core location
 008520 1B11/41F0 C7F8_            48511  1                      SCAN  ,NITSCNCB           Scan next token
 00852C                            48527                       END
                                   48531
                                   48532                         Scan "replacement data".
                                   48533
 00852C 1200/47D0 B04A             48534                       IF    (R0,NP),CMDERROR    Missing data
 008532 41F0 7008            00008 48551                       LA    R15,PCTEXT          Put text here
 008536 58E0 8378/0DEE       090EC 48552                       ACALL DEQSTR              Dequote text
 00853C 47B0 B7B2            0854A 48556                       IF    NEG,BEGIN           Not a string...
 008540 58E0 837C/0DEE       090F0 48567  1                      ACALL HEXSTR              Check for hex
 008546 4740 B04A            07DE2 48571  1                      BM    CMDERROR            Invalid hex digits
 00854A                            48572                       END
 00854A 5900 8380/47D0_      090F4 48576                       CEIL  R0,L'PCTEXT
 008556 4000 7004            00004 48595                       STH   R0,PCTLEN           Save data length
                                   48596
                                   48597                         Patch core.
                                   48598
 00855A 4820 7004            00004 48599                       LH    R2,PCTLEN           Length of replacement text
 00855E 5830 7000            00000 48600                       L     R3,PCLOC            Put text here
 008562 18F2                       48601                       LR    R15,R2
 008564 06F0/12FF/4740_            48602                       MOVE  R15,PCXTEXT,@R3     Save the old data
                                   48640
 008570 18F2                       48641                       LR    R15,R2
 008572 06F0/12FF/4740_            48642                       MOVE  R15,@R3,PCTEXT      Patch core
                                   48680
                                   48681                         Report the old data.
                                   48682
 00857E 4110 8540/4100_      092B4 48683                       SEG   'Old data was '
 008590 4110 7088/1802       00088 48698                       SETMSG PCXTEXT,(R2)
 008596 58F0 9038            00000 48712                       SEGLD ,                   R15 = current SEGCB ptr
 00859A 58E0 8384/0DEE       090F8 48718                       VCALL HEXSEG
 0085A0 1B00/58F0 9038_            48722                       SEGWR
                                   48744
 0085AC 1BFF                       48745                       CLEAR R15                 A-ok
 0085AE 47F0 B08A            07E22 48749                       B     CMDEXIT
                                   48750
 DROP   PCWA,R7                    48751                       DROP  PCWA
1AMELIA   Command processor - SET MONPRIV and NOMONPRIV                                                                     Page  212
0Current Usings:  (COMMAND+4096,R8) (CMDWA-(4+52),R9) (*,R11) (NIT,R12)
0Loc    Object Code    Addr1 Addr2  Stmt Lv Lineno    Source Statement           (Hibal 5, Asmedit 3.3)  HLASM R4.0  2004/03/15 13.11
+___    ______ ____    _____ _____  ____ __ ______    ______ _________
0                                  48760
                                   48761
                                   48762                SET MONPRIV and SET NOMONPR
                                   48763
                                   48764                Flag whether MONITOR command is privileged
                                   48765

00085B2 9680 C102      00102       48766              CSETMONP SET   NITFMONP
 0085B6 47F0 B08A            07E22 48773                       B     CMDEXIT
-0085BA 947F C102      00102       48775              CSETNOMP CLEAR NITFMONP
 0085BE 47F0 B08A            07E22 48783                       B     CMDEXIT
1AMELIA   Command processor - SET NS command                                                                                Page  213
0Current Usings:  (COMMAND+4096,R8) (CMDWA-(4+52),R9) (*,R11) (NIT,R12)
0Loc    Object Code    Addr1 Addr2  Stmt Lv Lineno    Source Statement           (Hibal 5, Asmedit 3.3)  HLASM R4.0  2004/03/15 13.11
+___    ______ ____    _____ _____  ____ __ ______    ______ _________
0                                  48785
                                   48786
                                   48787                SET NS  name|ipaddr ...
                                   48788
                                   48789                Specify name servers for host name lookup
                                   48790

0000000                00000 00010 48792              CSETNSWA RECORD BEGIN
 000000                            48800  1           CSETNSIP   DS    (MAXNSERV)F         IP address list
 000010                00010 00010 48801                       END
-0085C2 187D/41D0 D010             48811              CSETNS   XPUSH ,,L'CSETNSWA,PTR=R7
 USING  CSETNSWA,R7                48815                       USING CSETNSWA,R7
 0085C8 D70F 7000 7000 00000 00000 48824                       CLEAR CSETNSWA
 0085CE 4120 7000            00000 48831                       LA    R2,CSETNSIP         IP addr list pointer
 0085D2 1B33                       48832                       CLEAR R3                  Entry counter
                                   48836
 0085D4 58E0 8320/0DEE       09094 48837              CSETNSNX ACALL GETTOKEN            Get next host id
 0085DA 1200/4740 B04A             48841                       IF    (R0,M),CMDERROR     Check for error
 0085E0 1200/4780 B856_            48858                       IF    ((R0,Z),OR,(@R1,EQ,';')),BEGIN   If end of list,
 0085EE D20F C09C 7000 0009C 00000 48887  1                      MVC   NITNSERV(4*MAXNSERV),CSETNSIP  Update server list
 0085F4 47F0 BDE0            08B78 48888  1                      B     CSHOWNS                Go display new list
 0085F8                            48889                       END
                                   48893
 0085F8 5930 8388/4770_      090FC 48894                       IF    (R3,EQ,MAXNSERV),BEGIN  If already have max number,
 008600 4110 82DC/4100_      09050 48911  1                      SEGWR 'Too many entries'
 008612 47F0 B08A            07E22 48927  1                      B     CMDEXIT
 008616                            48928                       END
                                   48932
 008616 58E0 8368/0DEE       090DC 48933                       ACALL GETIPADD            Get IP address
 00861C 12FF/4770 B8A0             48937                       IF    (R15,Z),BEGIN       If no IP address,
 008622 4110 8464/4100_      091D8 48951  1                      SEGWR 'Host not in table, need IP address'
 008634 47F0 B08A            07E22 48967  1                      B     CMDEXIT
 008638                            48968                       END
                                   48972
 008638 50F0 2000            00000 48973                       ST    R15,@R2             Set IP address in list
 00863C 4122 0004            00004 48974                       LA    R2,4(R2)            Incr list pointer
 008640 5E30 8350            090C4 48975                       INCR  R3                  Incr list counter
 008644 47F0 B83C            085D4 48978                       B     CSETNSNX            Go scan next entry
                                   48979
 DROP   CSETNSWA,R7                48980                       DROP  R7
1AMELIA   Command processor - SET TCPTRACE command                                                                          Page  214
0Current Usings:  (COMMAND+4096,R8) (CMDWA-(4+52),R9) (*,R11) (NIT,R12)
0Loc    Object Code    Addr1 Addr2  Stmt Lv Lineno    Source Statement           (Hibal 5, Asmedit 3.3)  HLASM R4.0  2004/03/15 13.11
+___    ______ ____    _____ _____  ____ __ ______    ______ _________
0                                  48988
                                   48989
                                   48990                SET TCPTRACE  LENGTH=n  COUNT=n TRUNCATE=n
                                   48991
                                   48992                Specify TCP trace table data trace length and
                                   48993                 number of trace table entries.
                                   48994                The TRUNCATE option sets the truncate length for
                                   48995                 a MONITOR TRUNCATE command.
                                   48996

0000000                00000 0000C 48997              CSETTRCW RECORD BEGIN
 000000                            49005  1           CSETTRCL   DS    F                   Length value
 000004                            49006  1           CSETTRCC   DS    F                   Count value
 000008                            49007  1           CSETTRCT   DS    F                   MON TRUNCATE size
 00000C                0000C 0000C 49008                       END
-008648 187D/41D0 D00C             49018              CSETTRC  XPUSH ,,L'CSETTRCW,PTR=R7
 USING  CSETTRCW,R7                49022                       WITH  (CSETTRCW,R7)
 00864E D203 7000 C0F4 00000 000F4 49035                       MVC   CSETTRCL,NITTCPTL   Init length value
 008654 D203 7004 C0F8 00004 000F8 49036                       MVC   CSETTRCC,NITTCPTC   Init count value
 00865A D203 7008 C0FC 00008 000FC 49037                       MVC   CSETTRCT,NITTCPTR   Init truncate value
                                   49038
 008660 4110 B8F0/41F0_      08688 49039              CSETTRCS SCAN  CSETTRCP,NITSCNCB   Scan options
 00866E 4770 B04A            07DE2 49058                       IF    NZ,CMDERROR
                                   49072
 008672 D203 C0F4 7000 000F4 00000 49073                       MVC   NITTCPTL,CSETTRCL   Set trace data length
 008678 D203 C0F8 7004 000F8 00004 49074                       MVC   NITTCPTC,CSETTRCC   Set entry count
 00867E D203 C0FC 7008 000FC 00008 49075                       MVC   NITTCPTR,CSETTRCT   Set truncate value
                                   49076
 008684 47F0 8176            08EEA 49077                       B     SHOWTTRC            Go display values
-008688 AD0086ACD3C5D5C7           49079              CSETTRCP SCKW  LENGTH,CSETTRPL,(P,PI,A)
 008692 CC0086C6C3D6E4D5           49081                       SCKW  COUNT,CSETTRPC,(P,I,A)
 00869B CF0086D0E3D9E4D5           49083                       SCKW  TRUNCATE,CSETTRPT,(P,I,A)
 0086A7 FF007DE2                   49085                       SCKW  ,CMDERROR
                                   49087
 0086AB 00
 0086AC D203 7000 C7F8 00000 007F8 49088              CSETTRPL MVC   CSETTRCL,SCNVAL
 0086B2 D503 838C C7F8_09100 007F8 49089                       IF    (SCNVAL,LT,32),'MVC CSETTRCL,=A(32)'
 0086C2 47F0 B8C8            08660 49113                       B     CSETTRCS
                                   49114
 0086C6 D203 7004 C7F8 00004 007F8 49115              CSETTRPC MVC   CSETTRCC,SCNVAL
 0086CC 47F0 B8C8            08660 49116                       B     CSETTRCS
                                   49117
 0086D0 D203 7008 C7F8 00008 007F8 49118              CSETTRPT MVC   CSETTRCT,SCNVAL
 0086D6 47F0 B8C8            08660 49119                       B     CSETTRCS
                                   49120
 DROP   CSETTRCW,R7                49121                       DROP  R7                  ## Work area
1AMELIA   Command processor -- SHOW CORE command                                                                            Page  215
0Current Usings:  (COMMAND+4096,R8) (CMDWA-(4+52),R9) (*,R11) (NIT,R12)
0Loc    Object Code    Addr1 Addr2  Stmt Lv Lineno    Source Statement           (Hibal 5, Asmedit 3.3)  HLASM R4.0  2004/03/15 13.11
+___    ______ ____    _____ _____  ____ __ ______    ______ _________
0                                  49129
                                   49130
                                   49131                  SHOW CORE [hexaddr|AMELIA] [+ nnn] [length] [OFFSET] [ASCII]
                                   49132

0000000                00000 00001 49133              SHOWCORW RECORD BEGIN
 000000 00                         49141  1           SHOCORFL   FLAG
 000001                00001 00001 49145                       END
                                   49154
 0086DA                            49155              SHOWCORE LABEL
 0086DA 187D/41D0 D004             49157                       XPUSH ,,L'SHOWCORW,PTR=R7   Work area
 USING  SHOWCORW,R7                49160                       USING SHOWCORW,R7
 0086E0 9200 7000      00000       49169                       CLEAR SHOWCORW            Clear work area
 0086E4 1B55                       49176                       CLEAR R5                  Clear start address
 0086E6 1B66                       49180                       CLEAR R6                  Clear length
 0086E8 96C0 7000      00000       49184                       SET   SHOCORFL.HXDFLADD+HXDFLEBC   Set default options
                                   49193
 0086EC 1B11/41F0 C7F8_            49194                       SCAN  ,NITSCNCB           Scan next token
 0086F8 1200/47D0 B04A             49210                       IF    (R0,NP),CMDERROR
 0086FE D505 845E C7FC_091D2 007FC 49227                       IF    (SCNKW,EQ,'AMELIA'),BEGIN
 008708 4150 C000            00000 49244  1                      LA    R5,AMELIA           Set start address
 00870C                            49245                       END
 00870C B978/47F0 B988 0870C 08706 49249                       ELSE  BEGIN
 008710 1B55                       49260  1                      CLEAR R5
 008712 58E0 8370/0DEE       090E4 49264  1                      XTB   (R1),(R0)
 008718 1200/4770 B04A             49279  1                      IF    (R0,NZ),CMDERROR
 00871E 185F                       49296  1                      LR    R5,R15              Set start address
 008720                            49297                       END
                                   49301
 008720 1B11/41F0 C7F8_            49302                       SCAN  ,NITSCNCB
 00872C 1200/47D0 B9E0_            49318                       IF    ((R0,P),AND,(@R1,EQ,'+')),BEGIN
 00873A 1B11/41F0 C7F8_            49347  1                      SCAN  ,NITSCNCB
 008746 1200/47D0 B04A             49363  1                      IF    (R0,NP),CMDERROR
 00874C 95F0 1000/4770_00000       49380  1                      IF    (@R1,EQ,'0'),BEGIN
 008754 58E0 8370/0DEE       090E4 49396  2                        XTB   (R1),(R0)
 00875A                            49411  1                      END
 00875A B9C6/47F0 B9CC 0875A 08752 49415  1                      ELSE  BEGIN
 00875E 58E0 8374/0DEE       090E8 49426  2                        DTB   (R1),(R0)
 008764                            49441  1                      END
 008764 1200/4770 B04A             49445  1                      IF    (R0,NZ),CMDERROR
 00876A 1A5F                       49462  1                      AR    R5,R15
 00876C 1B11/41F0 C7F8_            49463  1                      SCAN  ,NITSCNCB           Scan next token
 008778                            49479                       END
                                   49483
 008778 1200/47D0 BA3A             49484                       WHILE (R0,P),BEGIN        Scan any more options
 00877E D502 854D C7FC_092C1 007FC 49500  1                      IF    (SCNKW,EQ,'OFF'),'CLEAR SHOCORFL.HXDFLADD'
 00878C B9F8/47F0 BA06_0878C 08786 49529  1                      ELSEIF (SCNKW,EQ,'ASC'),'CLEAR SHOCORFL.HXDFLEBC'
 00879E BA0A/47F0 BA2A 0879E 08798 49567  1                      ELSE  BEGIN
 0087A2 95F0 1000/4770_00000       49578  2                        IF    (@R1,EQ,'0'),BEGIN
 0087AA 58E0 8370/0DEE       090E4 49594  3                          XTB   (R1),(R0)
 0087B0                            49609  2                        END
 0087B0 BA1C/47F0 BA22 087B0 087A8 49613  2                        ELSE  BEGIN
 0087B4 58E0 8374/0DEE       090E8 49624  3                          DTB   (R1),(R0)
1AMELIA   Command processor -- SHOW CORE command                                                                            Page  216
0Current Usings:  (SHOWCORW,R7) (COMMAND+4096,R8) (CMDWA-(4+52),R9) (*,R11) (NIT,R12)
0Loc    Object Code    Addr1 Addr2  Stmt Lv Lineno    Source Statement           (Hibal 5, Asmedit 3.3)  HLASM R4.0  2004/03/15 13.11
+___    ______ ____    _____ _____  ____ __ ______    ______ _________
00087BA                            49639  2                        END
 0087BA 1200/4770 B04A             49643  2                        IF    (R0,NZ),CMDERROR
 0087C0 186F                       49660  2                        LR    R6,R15
 0087C2                            49661  1                      END
 0087C2 1B11/41F0 C7F8_            49665  1                      SCAN  ,NITSCNCB
 0087CE 47F0 B9E0            08778 49681                       END
                                   49686
 0087D2 1200/4770 B04A             49687                       IF    (R0,NZ),CMDERROR
                                   49704
 0087D8 195C/4740 B04A             49705                       IF    (R5,LT,NITR),CMDERROR
                                   49723
 0087DE D200 C104 7000 00104 00000 49724                       MVC   NITHXDFL,SHOCORFL   Set flags for HEXDUMP
 0087E4 1266/4770 BA56_            49725                       IF    (R6,Z),'LA R6,16*23'
 0087EE 1815/1806/9600_            49745                       HEXDUMP (R5),(R6)
 008800 47F0 B08A            07E22 49769                       B     CMDEXIT
                                   49770
 DROP   SHOWCORW,R7                49771                       DROP  R7                  ## Work area
1AMELIA   Command processor -- SHOW HASH command                                                                            Page  217
0Current Usings:  (COMMAND+4096,R8) (CMDWA-(4+52),R9) (*,R11) (NIT,R12)
0Loc    Object Code    Addr1 Addr2  Stmt Lv Lineno    Source Statement           (Hibal 5, Asmedit 3.3)  HLASM R4.0  2004/03/15 13.11
+___    ______ ____    _____ _____  ____ __ ______    ______ _________
0                                  49779
                                   49780
                                   49781                 SHOW HASH -- Show hash table info
                                   49782

0008804                            49783              SHOWHASH LABEL
                                   49785              **       SEGB  'TCBID hash table at'
                                   49786              **       SEGHX L:NITTIDHT,8
                                   49787              **       SEGWR ,
                                   49788              **       L     R2,NITTIDHT         TCBID hash table addr
                                   49789              **       CLEAR R3                  Counter
                                   49790              **       WHILE (R3,LT,HASHSIZE),BEGIN
                                   49791              **       CLEAR R4                  Counter
                                   49792              **       L     R15,@R2             Get 1st TCB addr
                                   49793              **       WHILE (R15,NZ),BEGIN      Count TCBs
                                   49794              **       INCR  R4
                                   49795              **       L     R15,TCBTIDHQ-TCB(R15)
                                   49796              **       END
                                   49797              **       IF    (R4,NZ),BEGIN       If found TCBs,
                                   49798              **       SEGDC (R3),4              Hash table index
                                   49799              **       SEGDC (R4),3              Entry count
                                   49800              **       SEGWR ,
                                   49801              **       END
                                   49802              **       LA    R2,4(R2)            Incr hash table ptr
                                   49803              **       INCR  R3                  Incr hash table counter
                                   49804              **       END
                                   49805              *
 008804 4110 8553/4100_      092C7 49806                       SEGB  'IP addr hash table at'
 008816 5810 C094/4100_      00094 49822                       SEGHX L:NITIPAHT,8
 008828 1B00/58F0 9038_            49844                       SEGWR ,
 008834 5820 C094            00094 49866                       L     R2,NITIPAHT         IP addr hash table addr
 008838 1B33                       49867                       CLEAR R3                  Counter
 00883A 5930 839C/47B0_      09110 49871                       WHILE (R3,LT,HASHSIZE),BEGIN
 008842 1B44                       49890  1                      CLEAR R4                  Counter
 008844 58F0 2000            00000 49894  1                      L     R15,@R2             Get 1st TCB addr
 008848 12FF/4780 BAC2             49895  1                      WHILE (R15,NZ),BEGIN      Count TCBs
 00884E 5E40 8350            090C4 49911  2                        INCR  R4
 008852 58FF 0014            00014 49914  2                        L     R15,TCBIPAHQ-TCB(R15)
 008856 47F0 BAB0            08848 49915  1                      END
 00885A 1244/4780 BAF4             49920  1                      IF    (R4,NZ),BEGIN       If found TCBs,
 008860 1813/4100 0004_            49934  2                        SEGDC (R3),4              Hash table index
 008870 1814/4100 0003_            49956  2                        SEGDC (R4),3              Entry count
 008880 1B00/58F0 9038_            49978  2                        SEGWR ,
 00888C                            50000  1                      END
 00888C 4122 0004            00004 50004  1                      LA    R2,4(R2)            Incr hash table ptr
 008890 5E30 8350            090C4 50005  1                      INCR  R3                  Incr hash table counter
 008894 47F0 BAA2            0883A 50008                       END
                                   50013              *
                                   50014              *
 008898 4110 8568/4100_      092DC 50015                       SEGB  'HST hash table at'
 0088AA 5810 C098/4100_      00098 50031                       SEGHX L:NITHSTHT,8
 0088BC 1B00/58F0 9038_            50053                       SEGWR ,
 0088C8 5820 C098            00098 50075                       L     R2,NITHSTHT         Hash table addr
1AMELIA   Command processor -- SHOW HASH command                                                                            Page  218
0Current Usings:  (COMMAND+4096,R8) (CMDWA-(4+52),R9) (*,R11) (NIT,R12)
0Loc    Object Code    Addr1 Addr2  Stmt Lv Lineno    Source Statement           (Hibal 5, Asmedit 3.3)  HLASM R4.0  2004/03/15 13.11
+___    ______ ____    _____ _____  ____ __ ______    ______ _________
00088CC 1B33                       50076                       CLEAR R3                  Counter
 0088CE 5930 839C/47B0_      09110 50080                       WHILE (R3,LT,HASHSIZE),BEGIN
 0088D6 1B44                       50099  1                      CLEAR R4                  Counter
 0088D8 58F0 2000            00000 50103  1                      L     R15,@R2             Get 1st ENTRY
 0088DC 12FF/4780 BB56             50104  1                      WHILE (R15,NZ),BEGIN      Count entries
 0088E2 5E40 8350            090C4 50120  2                        INCR  R4
 0088E6 58FF 0004            00004 50123  2                        L     R15,HSTHASHP-HSTTABLE(R15)
 0088EA 47F0 BB44            088DC 50124  1                      END
 0088EE 1244/4780 BB88             50129  1                      IF    (R4,NZ),BEGIN       If found TCBs,
 0088F4 1813/4100 0004_            50143  2                        SEGDC (R3),4              Hash table index
 008904 1814/4100 0003_            50165  2                        SEGDC (R4),3              Entry count
 008914 1B00/58F0 9038_            50187  2                        SEGWR ,
 008920                            50209  1                      END
 008920 4122 0004            00004 50213  1                      LA    R2,4(R2)            Incr hash table ptr
 008924 5E30 8350            090C4 50214  1                      INCR  R3                  Incr hash table counter
 008928 47F0 BB36            088CE 50217                       END
 00892C 47F0 B08A            07E22 50222                       B     CMDEXIT
1AMELIA   Command processor -- SHOW HNT command                                                                             Page  219
0Current Usings:  (COMMAND+4096,R8) (CMDWA-(4+52),R9) (*,R11) (NIT,R12)
0Loc    Object Code    Addr1 Addr2  Stmt Lv Lineno    Source Statement           (Hibal 5, Asmedit 3.3)  HLASM R4.0  2004/03/15 13.11
+___    ______ ____    _____ _____  ____ __ ______    ______ _________
0                                  50224
                                   50225
                                   50226                 SHOW HNT -- Show host name table entries
                                   50227

0008930                            50228              SHOWHNT  LABEL
 008930 5820 C084            00084 50230                       L     R2,NITHNTQ          HNT queue head
 008934 1222/4780 BBB6             50231                       WHILE (R2,NZ),BEGIN
 USING  HNT,R2                     50247  1                      WITH  (HNT,R2)
 00893A 58F0 9038            00000 50260  1                      SEGLD ,
 00893E 1812                       50266  1                      LR    R1,R2
 008940 58E0 83A4/0DEE       09118 50267  1                      ACALL FMTHNT
 008946 5820 2000            00000 50271  1                      L     R2,HNTNEXT
 00894A 47F0 BB9C            08934 50272                       END
 DROP   HNT,R2
 00894E 47F0 B08A            07E22 50282                       B     CMDEXIT
1AMELIA   Command processor -- SHOW HOSTS command                                                                           Page  220
0Current Usings:  (COMMAND+4096,R8) (CMDWA-(4+52),R9) (*,R11) (NIT,R12)
0Loc    Object Code    Addr1 Addr2  Stmt Lv Lineno    Source Statement           (Hibal 5, Asmedit 3.3)  HLASM R4.0  2004/03/15 13.11
+___    ______ ____    _____ _____  ____ __ ______    ______ _________
0                                  50284
                                   50285
                                   50286                 SHOW HOST [ip-addr|hostname]  - display info for host
                                   50287                 SHOW HOSTS                    - display all hosts
                                   50288

0008952 58E0 8320/0DEE       09094 50289              SHOWHOST ACALL GETTOKEN            Get next token
                                   50293
                                   50294                         If no token, display all host table entries
                                   50295
 008958 1200/4720 BBF8             50296                       IF    (R0,NP),BEGIN
 00895E 4110 8579/4100_      092ED 50310  1                      SEGWR 'Host table entries:'
 008970 5810 C080            00080 50326  1                      L     R1,NITHOSTQ         Host table head
 008974 1211/4780 BBF4             50327  1                      WHILE (R1,NZ),BEGIN
 USING  HSTTABLE,R1                50343  2                        WITH  (HSTTABLE,R1)
 00897A 58F0 9038            00000 50356  2                        SEGLD ,
 00897E 58E0 83A8/0DEE       0911C 50362  2                        ACALL FMTHOST
 008984 5810 1000            00000 50366  2                        L     R1,HSTNEXT
 008988 47F0 BBDC            08974 50367  1                      END
 DROP   HSTTABLE,R1
 00898C 47F0 B08A            07E22 50377  1                      B     CMDEXIT
 008990                            50378                       END
                                   50382
                                   50383                         If IP address, look for host table entry
                                   50384
 008990 58E0 831C/0DEE       09090 50385                       ACALL CNVTIP              Check for IP address
 008996 4780 BC34            089CC 50389                       IF    NZ,BEGIN            If IP address,
 00899A 181F                       50400  1                      LR    R1,R15              Copy IP address
 00899C 58E0 83AC/0DEE       09120 50401  1                      ACALL GETHOST             Get host table entry
 0089A2 1211/4770 BC26             50405  1                      IF    (R1,Z),BEGIN        If none,
 0089A8 4110 83B0/4100_      09124 50419  2                        SEGWR 'Unknown host'
 0089BA 47F0 B08A            07E22 50435  2                        B     CMDEXIT
 0089BE                            50436  1                      END
 0089BE 58F0 9038            00000 50440  1                      SEGLD ,
 0089C2 58E0 83A8/0DEE       0911C 50446  1                      ACALL FMTHOST             Format host table entry
 0089C8 47F0 B08A            07E22 50450  1                      B     CMDEXIT             Return
 0089CC                            50451                       END
                                   50455
                                   50456                         Look for host name table entry
                                   50457
 0089CC 58E0 834C/0DEE       090C0 50458                       ACALL GETHNT              Get HNT address
 0089D2 1821                       50462                       LR    R2,R1               Save HNT address
 0089D4 1200/4780 BC4E             50463                       IF    (R0,NZ),BEGIN       If have CNAME entry,
 0089DA 1810                       50477  1                      LR    R1,R0               Copy pointer
 0089DC 58F0 9038            00000 50478  1                      SEGLD ,
 0089E0 58E0 83A4/0DEE       09118 50484  1                      ACALL FMTHNT              Format it
 0089E6                            50488                       END
                                   50492
 0089E6 1222/4770 BC6A             50493                       IF    (R2,Z),BEGIN        If no HNT,
 0089EC 4110 83B0/4100_      09124 50507  1                      SEGWR 'Unknown host'      Write err msg
 0089FE 47F0 B08A            07E22 50523  1                      B     CMDEXIT             Return
 008A02                            50524                       END
                                   50528
1AMELIA   Command processor -- SHOW HOSTS command                                                                           Page  221
0Current Usings:  (COMMAND+4096,R8) (CMDWA-(4+52),R9) (*,R11) (NIT,R12)
0Loc    Object Code    Addr1 Addr2  Stmt Lv Lineno    Source Statement           (Hibal 5, Asmedit 3.3)  HLASM R4.0  2004/03/15 13.11
+___    ______ ____    _____ _____  ____ __ ______    ______ _________
0008A02 1222/4780 BCDC             50529                       WHILE (R2,NZ),BEGIN       Loop through HNT entries
 USING  HNT,R2                     50545  1                      WITH  (HNT,R2)
 008A08 58F0 9038            00000 50558  1                      SEGLD ,
 008A0C 1812                       50564  1                      LR    R1,R2               HNT pointer
 008A0E 58E0 83A4/0DEE       09118 50565  1                      ACALL FMTHNT              Format HNT entry
                                   50569  1
                                   50570  1         C            IF    ((HNTTYPE,EQ,RR#A),OR,  If A entry
 008A14 9501 200D/4780_0000D              1                            (HNTTYPE,EQ,RR#PTR)),BEGIN  or PTR entry
 008A24 5810 2008            00008 50605  2                        L     R1,HNTIPADD         Get IP address
 008A28 58E0 83AC/0DEE       09120 50606  2                        ACALL GETHOST             Get host table entry
 008A2E 1211/4780 BCCE             50610  2                        IF    (R1,NZ),BEGIN       If found,
 008A34 1831                       50624  3                          LR    R3,R1               Save reg
 008A36 4110 858C/4100_      09300 50625  3                          SEGWR ' '                 Space
 008A48 1813                       50641  3                          LR    R1,R3
 008A4A 58F0 9038            00000 50642  3                          SEGLD ,
 008A4E 58E0 83A8/0DEE       0911C 50648  3                          ACALL FMTHOST             Format host table entry
 008A54 4110 858C/4100_      09300 50652  3                          SEGWR ' '
 008A66                            50668  2                        END
 008A66                            50672  1                      END
                                   50676  1
 008A66 1812                       50677  1                      LR    R1,R2               Copy HNT address
 008A68 58E0 8354/0DEE       090C8 50678  1                      ACALL GETHNTNX            Get next HNT entry for host
 008A6E 1821                       50682  1                      LR    R2,R1               Copy new pointer (or zero)
 008A70 47F0 BC6A            08A02 50683                       END
 DROP   HNT,R2
                                   50693
 008A74 47F0 B08A            07E22 50694                       B     CMDEXIT
1AMELIA   Command processor -- SHOW INFO command                                                                            Page  222
0Current Usings:  (COMMAND+4096,R8) (CMDWA-(4+52),R9) (*,R11) (NIT,R12)
0Loc    Object Code    Addr1 Addr2  Stmt Lv Lineno    Source Statement           (Hibal 5, Asmedit 3.3)  HLASM R4.0  2004/03/15 13.11
+___    ______ ____    _____ _____  ____ __ ______    ______ _________
0                                  50696
                                   50697
                                   50698                 SHOW INFO [ALL] -- Show Amelia statistics
                                   50699

0008A78 1B11/41F0 C7F8_            50700              SHOWINFO SCAN ,NITSCNCB
 008A84 5900 83BC/4770_      09130 50716                       IF    ((R0,EQ,3),AND,(@R1,EQ,'ALL')),BEGIN
 008A96 4100 0004            00004 50748  1                      LA    R0,4                Flag 'ALL' option
 008A9A                            50749                       END
 008A9A BD06/BD06/47F0_08A9A 08A8A 50753                       ELSE  BEGIN
 008A9E 1B00                       50766  1                      CLEAR R0                  Flag normal option
 008AA0                            50770                       END
 008AA0 58F0 9038            00000 50774                       L     R15,CMDSEGCB        SEGCB address
 008AA4 58E0 83C0/0DEE       09134 50775                       ACALL FMTINFO             Call format routine
 008AAA 47F0 B08A            07E22 50779                       B     CMDEXIT
1AMELIA   Command processor -- SHOW LOG command                                                                             Page  223
0Current Usings:  (COMMAND+4096,R8) (CMDWA-(4+52),R9) (*,R11) (NIT,R12)
0Loc    Object Code    Addr1 Addr2  Stmt Lv Lineno    Source Statement           (Hibal 5, Asmedit 3.3)  HLASM R4.0  2004/03/15 13.11
+___    ______ ____    _____ _____  ____ __ ______    ______ _________
0                                  50781
                                   50782
                                   50783                 SHOW LOG [LAST n]  -- Show log buffer entries
                                   50784

0000000                00000 00004 50785              SHOWLOGW RECORD BEGIN
 000000                            50793  1           SHOWLOGL   DS    F                   LAST option
 000004                00004 00004 50794                       END
-008AAE 187D/41D0 D004             50804              SHOWLOG  XPUSH ,,L'SHOWLOGW,PTR=R7  Get work area
 USING  SHOWLOGW,R7                50808                       WITH  (SHOWLOGW,R7)
 008AB4 D703 7000 7000 00000 00000 50821                       CLEAR SHOWLOGW
 008ABA 4110 BD96/41F0_      08B2E 50828              SHLOGSCN SCAN  SHLOGPRT,NITSCNCB   Scan options
 008AC8 4770 B04A            07DE2 50847                       IF    NZ,CMDERROR
 008ACC 5820 C02C            0002C 50861                       L     R2,NITLGCUR         Log buffer pointer
 008AD0 4130 003C            0003C 50862                       LA    R3,LOGCNT           Get entry count
 008AD4 5B30 7000            00000 50863                       S     R3,SHOWLOGL         Get skip count
 008AD8 5930 83C4/4750_      09138 50864                       IF    (R3,GE,LOGCNT),'CLEAR R3'  Check value
 008AE2                            50890                       LOOP  BEGIN
 008AE2 4122 0064            00064 50896  1                      LA    R2,LOGLEN(R2)       Step to next entry
 008AE6 5920 C030/4770_      00030 50897  1                      IF    (R2,EQ,NITLGEND),'L R2,NITLGBEG'  Check for wrap
 008AF2 0630                       50920  1                      DECR  R3                  Check for skip
 008AF4 1233/47B0 BD4A             50922  1                      IF    (R3,NM),NEXT
 008AFA 9540 2000/4740_00000       50939  1                      IF    (@R2,LT,' '),NEXT   Check for null entry
 008B02 1812/4100 0064_            50958  1                      SEGT  (R2),LOGLEN         Write log line
 008B12 1B00/58F0 9038_            50984  1                      SEGWR ,
 008B1E 5920 C02C/4780_      0002C 51006  1                      IF    (R2,EQ,NITLGCUR),EXIT   Done if last entry
 008B26 47F0 BD4A            08AE2 51026                       END
 008B2A 47F0 B08A            07E22 51031                       B     CMDEXIT             Return
-008B2E AB008B3AD3C1E2E3           51033              SHLOGPRT SCKW  LAST,SHLOGPLS,(P,PI,A)
 008B36 FF007DE2                   51035                       SCKW  ,CMDERROR
                                   51037
 008B3A D203 7000 C7F8 00000 007F8 51038              SHLOGPLS MVC   SHOWLOGL,SCNVAL
 008B40 47F0 BD22            08ABA 51039                       B     SHLOGSCN
                                   51040
 DROP   SHOWLOGW,R7                51041                       DROP  R7                  ## Work area
1AMELIA   Command processor - SHOW MONPRIV command                                                                          Page  224
0Current Usings:  (COMMAND+4096,R8) (CMDWA-(4+52),R9) (*,R11) (NIT,R12)
0Loc    Object Code    Addr1 Addr2  Stmt Lv Lineno    Source Statement           (Hibal 5, Asmedit 3.3)  HLASM R4.0  2004/03/15 13.11
+___    ______ ____    _____ _____  ____ __ ______    ______ _________
0                                  51049
                                   51050
                                   51051                SHOW MONPRIV - Show MONPRIV flag status
                                   51052

0008B44 9180 C102/47E0_00102       51053              CSHOMONP IF    NITFMONP,BEGIN
 008B4C 4110 8590/4100_      09304 51069  1                      SEGWR 'MONPRIV set'
 008B5E                            51085                       END
 008B5E BDCA/47F0 BDDC 08B5E 08B4A 51089                       ELSE  BEGIN
 008B62 4110 859B/4100_      0930F 51100  1                      SEGWR 'NOMONPRIV set'
 008B74                            51116                       END
 008B74 47F0 B08A            07E22 51120                       B     CMDEXIT
                                   51121
1AMELIA   Command processor - SHOW NS command                                                                               Page  225
0Current Usings:  (COMMAND+4096,R8) (CMDWA-(4+52),R9) (*,R11) (NIT,R12)
0Loc    Object Code    Addr1 Addr2  Stmt Lv Lineno    Source Statement           (Hibal 5, Asmedit 3.3)  HLASM R4.0  2004/03/15 13.11
+___    ______ ____    _____ _____  ____ __ ______    ______ _________
0                                  51123
                                   51124
                                   51125                SHOW NS -- Show name servers
                                   51126

0008B78                            51127              CSHOWNS  LABEL
 008B78 4110 85A8/4100_      0931C 51129                       SEGWR 'Name servers:'
 008B8A 4120 C09C            0009C 51145                       LA    R2,NITNSERV         Name server address list
 008B8E 1B33                       51146                       CLEAR R3                  Loop counter
 008B90 5930 8388/47B0_      090FC 51150                       WHILE ((R3,LT,MAXNSERV),AND,(@R2,NE,=A(0))),BEGIN
 008BA2 4110 C23C/4100_      0023C 51184  1                      SEG   NITBLANK,2
 008BB4 5810 2000/58F0_      00000 51211  1                      SEGIP L:@R2
 008BC2 4110 C23C/4100_      0023C 51226  1                      SEG   NITBLANK,1
 008BD4 5810 2000            00000 51253  1                      L     R1,@R2
 008BD8 58E0 83D4/0DEE       09148 51254  1                      ACALL GETHNAME
 008BDE 4780 BE54/58F0_      08BEC 51258  1                      IF    NZ,'SEG (R1),(R0)'
 008BEC 1B00/58F0 9038_            51295  1                      SEGWR ,
 008BF8 4122 0004            00004 51317  1                      LA    R2,4(R2)            Incr list pointer
 008BFC 5E30 8350            090C4 51318  1                      INCR  R3                  Incr loop counter
 008C00 47F0 BDF8            08B90 51321                       END
 008C04 47F0 B08A            07E22 51326                       B     CMDEXIT
1AMELIA   Command processor -- SHOW PATHS command                                                                           Page  226
0Current Usings:  (COMMAND+4096,R8) (CMDWA-(4+52),R9) (*,R11) (NIT,R12)
0Loc    Object Code    Addr1 Addr2  Stmt Lv Lineno    Source Statement           (Hibal 5, Asmedit 3.3)  HLASM R4.0  2004/03/15 13.11
+___    ______ ____    _____ _____  ____ __ ______    ______ _________
0                                  51328
                                   51329
                                   51330                 SHOW PATHS -- display path information
                                   51331

0008C08                            51332              SHOWPATH LABEL
 008C08 5860 C11C            0011C 51334                       L     R6,NITPATQH         Path queue head
 008C0C 1266/4780 8012             51335                       WHILE (R6,NZ),BEGIN
 USING  UPATH,R6                   51351  1                      WITH  (UPATH,R6)
 008C12 4110 8486/4100_      091FA 51364  1                      SEGB  'UPATH block at'
 008C24 1816/4100 0008_            51380  1                      SEGHX (R6),8
 008C34 1B00/58F0 9038_            51402  1                      SEGWR
 008C40 4110 858C/4100_      09300 51424  1                      SEGWR ' '
 008C52 D503 83D8 6000_0914C 00000 51440  1                      IF    (UPATH,NE,'PATH'),BEGIN
 008C5C 4110 85B5/4100_      09329 51457  2                        SEGWR 'Invalid UPATH pointer'
 008C6E 47F0 B08A            07E22 51473  2                        B     CMDEXIT
 008C72                            51474  1                      END
                                   51478  1
 008C72 5810 6010/1B00_      00010 51479  1                      SEGDC L:UPATSND#
 008C82 4110 83DC/4100_      09150 51498  1                      SEGB  ' send calls,'
 008C94 5810 6014/1B00_      00014 51514  1                      SEGDC L:UPATFUL#
 008CA4 4110 83E8/4100_      0915C 51533  1                      SEGWR ' buffer full'
                                   51549  1
 008CB6 D607 6114 6114_00114 00114 51550  1                      IF    (UPATRTIM,NZ),BEGIN  If have received data trace,
 008CC0 4110 8494/4100_      09208 51566  2                        SEGB  'Last message: '
 008CD2 5810 611C/1B00_      0011C 51582  2                        SEGDC L:UPATRLEN
 008CE2 4110 85CA/4100_      0933E 51601  2                        SEGB  ' bytes, received at'
 008CF4 9801 6114            00114 51617  2                        LM    R0,R1,UPATRTIM
 008CF8 41F0 90B4            0007C 51618  2                        LA    R15,CMDTEMP
 008CFC 58E0 83F4/0DEE       09168 51619  2                        ACALL FMTTIME
 008D02 58F0 9038/58E0_      00000 51623  2                        SEGWR (R1),(R0)
 008D0C 4110 858C/4100_      09300 51645  2                        SEGWR ' '
 008D1E 5800 611C            0011C 51661  2                        L     R0,UPATRLEN
 008D22 5900 83F8/47D0_      0916C 51662  2                        CEIL  R0,L'UPATRDAT
 008D2E 4110 6120/9680_      00120 51681  2                        HEXDUMP UPATRDAT,(R0),CHARS=EBCDIC
 008D40                            51706  1                      END
                                   51710  1
 008D40 4110 858C/4100_      09300 51711  1                      SEGWR ' '
 008D52 1816/4100 0114_            51727  1                      HEXDUMP UPATH,UPATRTIM-UPATH,CHARS=EBCDIC,FORMAT=ADDRESS
                                   51755  1
 008D66 5860 6004            00004 51756  1                      L     R6,UPATLINK
 008D6A 1266/4780 800E_            51757  1                      IF    (R6,NZ),'SEGWR " "'  Spacer
 008D82 47F0 BE74            08C0C 51792                       END
 DROP   UPATH,R6
 008D86 47F0 B08A            07E22 51802                       B     CMDEXIT
1AMELIA   Command processor -- SHOW TCP command                                                                             Page  227
0Current Usings:  (COMMAND+4096,R8) (CMDWA-(4+52),R9) (*,R11) (NIT,R12)
0Loc    Object Code    Addr1 Addr2  Stmt Lv Lineno    Source Statement           (Hibal 5, Asmedit 3.3)  HLASM R4.0  2004/03/15 13.11
+___    ______ ____    _____ _____  ____ __ ______    ______ _________
0                                  51804
                                   51805
                                   51806                 SHOW TCP [id] [ALL]
                                   51807
                                   51808                   SHOW TCP -- display status of TCP connection(s)
                                   51809

0000000                00000 0000A 51810              SHOWTCPW RECORD BEGIN
 000000                            51818  1           SHTCPID    DS    F                   Id number
 000004                            51819  1           SHTCPPNO   DS    F                   Port number
 000008                            51820  1           SHTCPFMT   DS    X                   Format option
 000009                            51821  1           SHTCPFND   DS    X                   TCB found flag
 00000A                0000A 0000A 51822                       END
-008D8A                            51832              SHOWTCP  LABEL
 008D8A 187D/41D0 D00C             51834                       XPUSH ,,L'SHOWTCPW,PTR=R7  Get work area
 USING  SHOWTCPW,R7                51837                       WITH  (SHOWTCPW,R7)
 008D90 D709 7000 7000 00000 00000 51850                       CLEAR SHOWTCPW
 008D96 92FF 7008      00008       51857                       MVI   SHTCPFMT,255        Dummy format option
                                   51858
 008D9A 4110 8130/41F0_      08EA4 51859              SHTCPSCN SCAN  SHTCPPRT,NITSCNCB   Scan options
 008DA8 4770 B04A            07DE2 51878                       IF    NZ,CMDERROR
                                   51892
 008DAC D603 C0D0 C0D0_000D0 000D0 51893                       IF    (NITTCBQ,Z),BEGIN   If no connections,
 008DB6 4110 84A2/4100_      09216 51909  1                      SEGWR 'No TCP connections'   Send msg
 008DC8 47F0 B08A            07E22 51925  1                      B     CMDEXIT
 008DCC                            51926                       END
                                   51930
 008DCC 95FF 7008/4770_00008       51931                       IF    (SHTCPFMT,EQ,255),BEGIN   Set no format option,
 008DD4 9200 7008      00008       51949  1                      CLEAR SHTCPFMT                  Set standard option
 008DD8 D603 7000 7000_00000 00000 51956  1                      IF    (SHTCPID,Z),'MVI SHTCPFMT,4'  If no id, short form
 008DE6                            51978                       END
                                   51982
 008DE6 5820 C0D0            000D0 51983                       L     R2,NITTCBQ          TCB queue head
 008DEA 1222/4780 8112             51984                       WHILE (R2,NZ),BEGIN
 USING  TCB,R2                     52000  1                      WITH  (TCB,R2)
 008DF0 D503 83FC 2000_09170 00000 52013  1                      IF    (TCB,NE,'TCB '),BEGIN
 008DFA 4110 85DD/4100_      09351 52030  2                        SEGWR '*** TCB queue error ***'
 008E0C 47F0 B08A            07E22 52046  2                        B     CMDEXIT
 008E10                            52047  1                      END
                                   52051  1         C            IF    (((SHTCPID,Z),OR,    If no id specified
                                          1         C                  (SHTCPID,EQ,TCBID)),AND,  or id match,
                                          1         C                  ((SHTCPPNO,Z),OR,     and no port specified,
                                          1         C                  (SHTCPPNO,EQ,TCBLPORT),OR, or port match
 008E10 D603 7000 7000_00000 00000        1                            (SHTCPPNO,EQ,TCBRPORT))),BEGIN
 008E42 92FF 7009      00009       52131  2                        MVI   SHTCPFND,255        Show TCB found
 008E46 1812                       52132  2                        LR    R1,R2               TCB address
 008E48 58F0 9038            00000 52133  2                        L     R15,CMDSEGCB        SEGCB address
 008E4C 1F00/4300 7008             52134  2                        LC    R0,SHTCPFMT         Format option
 008E52 58E0 8400/0DEE       09174 52139  2                        ACALL FMTTCB              Call formatting routine
 008E58 D603 7000 7000_00000 00000 52143  2                        IF    (SHTCPID,NZ),EXIT   Done if id specified
 008E62 D603 2004 2004_00004 00004 52162  2                        IF    (TCBNEXT,NZ),'SEGWR " "'  Spacer
1AMELIA   Command processor -- SHOW TCP command                                                                             Page  228
0Current Usings:  (TCB,R2) (SHOWTCPW,R7) (COMMAND+4096,R8) (CMDWA-(4+52),R9) (*,R11) (NIT,R12)
0Loc    Object Code    Addr1 Addr2  Stmt Lv Lineno    Source Statement           (Hibal 5, Asmedit 3.3)  HLASM R4.0  2004/03/15 13.11
+___    ______ ____    _____ _____  ____ __ ______    ______ _________
0008E7E                            52199  1                      END
 008E7E 5820 2004            00004 52203  1                      L     R2,TCBNEXT          Chain to next TCB
 008E82 47F0 8076            08DEA 52204                       END
 DROP   TCB,R2
                                   52214
 008E86 9500 7009/4770_00009       52215                       IF    (SHTCPFND,Z),BEGIN
 008E8E 4110 8404/4100_      09178 52231  1                      SEGWR 'Connection not found'
 008EA0                            52247                       END
                                   52251
 008EA0 47F0 B08A            07E22 52252                       B     CMDEXIT             Return
-008EA4 02008ECEC1D3D3             52254              SHTCPPRT SCKW  ALL,SHTCPPAL
 008EAB 0B008EC4C6E4D3D3           52256                       SCKW  FULL,SHTCPFUL,A
 008EB3 CB008ED6D7D6D9E3           52258                       SCKW  PORT,SHTCPPOR,(P,I,A)
 008EBB 20008EE040                 52260                       SCKW  ,SHTCPPID,PI
 008EC0 FF007DE2                   52262                       SCKW  ,CMDERROR
                                   52264
 008EC4 D200 7008 0004 00008 00004 52265              SHTCPFUL MVC   SHTCPFMT,4
 008ECA 47F0 8026            08D9A 52266                       B     SHTCPSCN
                                   52267
 008ECE 9208 7008      00008       52268              SHTCPPAL MVI   SHTCPFMT,8
 008ED2 47F0 8026            08D9A 52269                       B     SHTCPSCN
                                   52270
 008ED6 D203 7004 C7F8 00004 007F8 52271              SHTCPPOR MVC   SHTCPPNO,SCNVAL
 008EDC 47F0 8026            08D9A 52272                       B     SHTCPSCN
                                   52273
 008EE0 D203 7000 C7F8 00000 007F8 52274              SHTCPPID MVC   SHTCPID,SCNVAL
 008EE6 47F0 8026            08D9A 52275                       B     SHTCPSCN
                                   52276
 DROP   SHOWTCPW,R7                52277                       DROP  R7                  ## Work area
1AMELIA   Command processor -- SHOW TCPTRACE command                                                                        Page  229
0Current Usings:  (COMMAND+4096,R8) (CMDWA-(4+52),R9) (*,R11) (NIT,R12)
0Loc    Object Code    Addr1 Addr2  Stmt Lv Lineno    Source Statement           (Hibal 5, Asmedit 3.3)  HLASM R4.0  2004/03/15 13.11
+___    ______ ____    _____ _____  ____ __ ______    ______ _________
0                                  52285
                                   52286
                                   52287                 SHOW TCPTRACE command -- Show TCP trace parms
                                   52288

0008EEA 4110 85F4/4100_      09368 52289              SHOWTTRC SEG   'SET TCPTRACE options are  LENGTH='
 008EFC 5810 C0F4/1B00_      000F4 52304                       SEGDC  NITTCPTL
 008F0C 4110 82EC/4100_      09060 52323                       SEG   '  COUNT='
 008F1E 5810 C0F8/1B00_      000F8 52338                       SEGDC NITTCPTC
 008F2E 4110 8615/4100_      09389 52357                       SEG   '  TRUNCATE='
 008F40 5810 C0FC/1B00_      000FC 52372                       SEGDC NITTCPTR
 008F50 1B00/58F0 9038_            52391                       SEGWR ,
 008F5C 47F0 B08A            07E22 52413                       B     CMDEXIT
1AMELIA   Command processor -- SHOW VERSION command                                                                         Page  230
0Current Usings:  (COMMAND+4096,R8) (CMDWA-(4+52),R9) (*,R11) (NIT,R12)
0Loc    Object Code    Addr1 Addr2  Stmt Lv Lineno    Source Statement           (Hibal 5, Asmedit 3.3)  HLASM R4.0  2004/03/15 13.11
+___    ______ ____    _____ _____  ____ __ ______    ______ _________
0                                  52415
                                   52416
                                   52417                 SHOW VERSION command
                                   52418

0008F60 4110 82F4/4100_      09068 52419              SHOWVER  SEGB  'AMELIA assembled'
 008F72 4110 C004/4100_      00004 52435                       SEGB  NITASMDT
 008F84 927A C00E      0000E       52461                       MVI   NITASMTM+2,C':'
 008F88 4110 C00C/4100_      0000C 52462                       SEGWR NITASMTM
 008F9A 5810 8418/4100_      0918C 52488                       SEGWR L:=A(VERSION),L'VERINFO
 008FAC 47F0 B08A            07E22 52514                       B     CMDEXIT
1AMELIA   Command processor -- WRITELOG command                                                                             Page  231
0Current Usings:  (COMMAND+4096,R8) (CMDWA-(4+52),R9) (*,R11) (NIT,R12)
0Loc    Object Code    Addr1 Addr2  Stmt Lv Lineno    Source Statement           (Hibal 5, Asmedit 3.3)  HLASM R4.0  2004/03/15 13.11
+___    ______ ____    _____ _____  ____ __ ______    ______ _________
0                                  52516
                                   52517
                                   52518                  WRITELOG -- Close and reopen log so WYLBUR can FETCH it
                                   52519

0008FB0                            52520              WRITELOG LABEL
 008FB0 4120 C444            00444 52522                       LA    R2,NITPRDCB
 USING  DCB,R2                     52523                       WITH  (DCB,R2),BEGIN
 008FB4 9110 2030/47E0_00030       52537  1                      IF    DCBOFLGS.DCBOFOPN,BEGIN  SYSPRINT open...
 008FBC 58E0 841C/0DEE       09190 52553  2                        ACALL AMODE24             ********
 008FC2 0700/4510 8258_            52557  2                        CLOSE (NITPRDCB)
 008FCE 0700/4510 8264_            52563  2                        OPEN  (NITPRDCB,(OUTPUT))
 008FDA 58E0 8420/0DEE       09194 52569  2                        ACALL AMODE31             ********
 008FE0 4110 8620/4100_      09394 52573  2                        SEGWR 'WRITELOG done'
 008FF2                            52589  1                      END
 DROP   DCB,R2                     52593                       END
 008FF2 47F0 B08A            07E22 52601                       B     CMDEXIT
                                   52602
 008FF6 18D9/980C D004_            52603                       PEND  ,                   End of COMMAND proc
 DROP   CMDWA-(4+52),R9
 DROP   *,R11
-                                  52635                       QLTORG
1AMELIA   GETTOKEN - Scan token                                                                                             Page  232
0Current Usings:  (COMMAND+4096,R8) (NIT,R12)
0Loc    Object Code    Addr1 Addr2  Stmt Lv Lineno    Source Statement           (Hibal 5, Asmedit 3.3)  HLASM R4.0  2004/03/15 13.11
+___    ______ ____    _____ _____  ____ __ ______    ______ _________
0                                  52748
                                   52749
                                   52750                 GETTOKEN - scan next token (bypass scanner)
                                   52751
                                   52752

00093B4 90EF C020/4DE0_      00020 52753              GETTOKEN PROC
 USING  *,R11
 0093D8 4140 C7F8            007F8 52795                       LA    R4,SCNCB
 USING  SCNCB,R4                   52796                       WITH  (SCNCB,R4)
 0093DC 9823 400C            00804 52809                       LM    R2,R3,SCNLEN        Get remaining len and addr
                                   52810            C          WHILE ((R2,P),AND,
 0093E0 1222/47D0 B030_                                              ((@R3,EQ,' '),OR,(@R3,EQ,','),OR,(@R3,EQ,'='))),BEGIN
 0093FE 5E30 B880            09C58 52869  1                      INCR R3
 009402 0620                       52872  1                      DECR R2
 009404 47F0 B008            093E0 52874                       END
 009408 1813                       52879                       LR    R1,R3
                                   52880            C          WHILE ((R2,P),AND,
                                                    C                (@R3,NE,' '),AND,
 00940A 1222/47D0 B052_                                              (@R3,NE,',')),BEGIN
 009420 5E30 B880            09C58 52924  1                      INCR R3
 009424 0620                       52927  1                      DECR R2
 009426 47F0 B032            0940A 52929                       END
 00942A 1803                       52934                       LR    R0,R3               Compute
 00942C 1B01                       52935                       SR    R0,R1                 token length
 00942E 9023 400C            00804 52936                       STM   R2,R3,SCNLEN        Update SCANCB
 009432 9001 9004            00004 52937                       PRETURN (R0,R1)           Return token len and addr
 009436 18D9/980C D004_            52939                       PEND
 DROP   SCNCB,R4
 DROP   *,R11
1AMELIA   FMTINFO - SHOW INFO format routine                                                                                Page  233
0Current Usings:  (COMMAND+4096,R8) (NIT,R12)
0Loc    Object Code    Addr1 Addr2  Stmt Lv Lineno    Source Statement           (Hibal 5, Asmedit 3.3)  HLASM R4.0  2004/03/15 13.11
+___    ______ ____    _____ _____  ____ __ ______    ______ _________
0                                  52965
                                   52966
                                   52967                 FMTINFO - Format statistics for SHOW INFO command
                                   52968
                                   52969                   On entry:
                                   52970                      R0  = format option (0=normal 4=all)
                                   52971                      R15 = SEGCB address
                                   52972

0000000                00000 00044 52973              FMTINFWK RECORD BEGIN
 000000                            52981  1           FMTINOPT   DS    F
 000004                            52982  1           FMTITEMP   DS    CL64
 000044                00044 00044 52983                       END
                                   52992
 009444 90EF C020/4DE0_      00020 52993              FMTINFO  PROC  FMTINFWK
 USING  *,R11
 USING  FMTINFWK-(4+52),R9
 009468 5000 9038            00000 53046                       ST    R0,FMTINOPT         Save format option
 00946C 186F                       53047                       LR    R6,R15
                                   53048                       SEGDEF (R6)
 00946E 4110 C04C/4100_      0004C 53049                       SEGTB NITJOBNM
 00947E 4110 B8C0/4100_      09D28 53075                       SEGB  'started at'
 00948E 5800 C190            00190 53091                       L     R0,NITTIME
 009492 9823 C33C            0033C 53092                       LM    R2,R3,NITZERO
 009496 41F0 903C            00004 53093                       LA    R15,FMTITEMP
 00949A 58E0 B7FC/0DEE       09C64 53094                       ACALL FMTRCLCK
 0094A0 18F6/58E0 B800_            53098                       SEGWR (R1),(R0)
 0094A8 4110 B956/4100_      09DBE 53120                       SEGWR ' '
                                   53136
 0094B8 4110 B7C8/4100_      09C30 53137                       SEGB  'IP addr '
 0094C8 5810 C034/18F6_      00034 53153                       SEGIP NITIP
 0094D4 1B00/18F6/58E0_            53168                       SEGWR ,
 0094DE 4110 B7D0/4100_      09C38 53190                       SEGB  'Ethernet'
 0094EE 18F6                       53206                       SEGLD ,
 0094F0 BF0F C693            00693 53212                       ICM   R0,15,NITETHER
 0094F4 BF1C C697            00697 53213                       ICM   R1,12,NITETHER+4
 0094F8 58E0 B808/0DEE       09C70 53214                       ACALL SEGENET
 0094FE 1B00/18F6/58E0_            53218                       SEGWR ,
                                   53240
 009508 9140 C101/4710_00101       53241                       IF    ~NITFUP,BEGIN
 009510 4110 B956/4100_      09DBE 53256  1                      SEGWR ' '
 009520 4110 B8CA/4100_      09D32 53272  1                      SEGWR '*** Ethernet interface is DOWN ***'
 009530                            53288                       END
                                   53292
 009530 9108 C101/47E0_00101       53293                       IF    NITFWRIO,BEGIN
 009538 4110 B957/4100_      09DBF 53308  1                      SEGWR 'Ethernet write active'
 009548                            53324                       END
                                   53328
 009548 D603 C154 C154_00154 00154 53329                       IF    (NITCERRS,NZ),BEGIN
 009552 5810 C154/4100_      00154 53345  1                      SEGDC NITCERRS,8
 009562 4110 B810/4100_      09C78 53367  1                      SEGB  ' Control I/O errors, last at'
 009572 9801 C158            00158 53383  1                      LM    R0,R1,NITCERRT
 009576 9823 C33C            0033C 53384  1                      LM    R2,R3,NITZERO
1AMELIA   FMTINFO - SHOW INFO format routine                                                                                Page  234
0Current Usings:  (COMMAND+4096,R8) (FMTINFWK-(4+52),R9) (*,R11) (NIT,R12)
0Loc    Object Code    Addr1 Addr2  Stmt Lv Lineno    Source Statement           (Hibal 5, Asmedit 3.3)  HLASM R4.0  2004/03/15 13.11
+___    ______ ____    _____ _____  ____ __ ______    ______ _________
000957A 41F0 903C            00004 53385  1                      LA    R15,FMTITEMP
 00957E 58E0 B7FC/0DEE       09C64 53386  1                      ACALL FMTRCLCK
 009584 18F6/58E0 B800_            53390  1                      SEGWR (R1),(R0)
 00958C D617 C5D8 C5D8_005D8 005D8 53412  1                      IF    (NITSENSE,NZ),BEGIN
 009596 4110 B82C/4100_      09C94 53428  2                        SEGB  '    Last sense info:'
 0095A6 4120 C5D8            005D8 53444  2                        LA    R2,NITSENSE
 0095AA 4130 0006            00006 53445  2                        LA    R3,L'NITSENSE/4
 0095AE 1233/47D0 B176             53446  2                        WHILE (R3,P),BEGIN
 0095B4 5810 2000/4100_      00000 53462  3                          SEGHX L:@R2,8
 0095C4 4110 B956/4100_      09DBE 53484  3                          SEG   ' '
 0095D4 4122 0004            00004 53499  3                          LA    R2,4(R2)
 0095D8 0630                       53500  3                          DECR  R3
 0095DA 47F0 B146            095AE 53502  2                        END
 0095DE 1B00/18F6/58E0_            53507  2                        SEGWR ,
 0095E8                            53529  1                      END
 0095E8                            53533                       END
                                   53537
 0095E8 D603 C170 C170_00170 00170 53538                       IF    (NITRERRS,NZ),BEGIN
 0095F2 5810 C170/4100_      00170 53554  1                      SEGDC NITRERRS,8
 009602 4110 B96C/4100_      09DD4 53576  1                      SEGB  ' Read errors, last at'
 009612 9801 C174            00174 53592  1                      LM    R0,R1,NITRERRT
 009616 9823 C33C            0033C 53593  1                      LM    R2,R3,NITZERO
 00961A 41F0 903C            00004 53594  1                      LA    R15,FMTITEMP
 00961E 58E0 B7FC/0DEE       09C64 53595  1                      ACALL FMTRCLCK
 009624 18F6/58E0 B800_            53599  1                      SEGWR (R1),(R0)
 00962C                            53621                       END
                                   53625
 00962C D603 C164 C164_00164 00164 53626                       IF    (NITWERRS,NZ),BEGIN
 009636 5810 C164/4100_      00164 53642  1                      SEGDC NITWERRS,8
 009646 4110 B8EC/4100_      09D54 53664  1                      SEGB  ' Write errors, last at'
 009656 9801 C168            00168 53680  1                      LM    R0,R1,NITWERRT
 00965A 9823 C33C            0033C 53681  1                      LM    R2,R3,NITZERO
 00965E 41F0 903C            00004 53682  1                      LA    R15,FMTITEMP
 009662 58E0 B7FC/0DEE       09C64 53683  1                      ACALL FMTRCLCK
 009668 18F6/58E0 B800_            53687  1                      SEGWR (R1),(R0)
 009670                            53709                       END
                                   53713
 009670 D603 C180 C180_00180 00180 53714                       IF    (NITKFCS,NZ),BEGIN
 00967A 5810 C180/4100_      00180 53730  1                      SEGDC NITKFCS,8
 00968A 4110 B981/4100_      09DE9 53752  1                      SEGWR ' FCS errors'
 00969A                            53768                       END
 00969A D603 C184 C184_00184 00184 53772                       IF    (NITKLOST,NZ),BEGIN
 0096A4 5810 C184/4100_      00184 53788  1                      SEGDC NITKLOST,8
 0096B4 4110 B98C/4100_      09DF4 53810  1                      SEGWR ' Packets lost'
 0096C4                            53826                       END
 0096C4 D603 C188 C188_00188 00188 53830                       IF    (NITKAERR,NZ),BEGIN
 0096CE 5810 C188/4100_      00188 53846  1                      SEGDC NITKAERR,8
 0096DE 4110 B999/4100_      09E01 53868  1                      SEGWR ' Frame alignment errors'
 0096EE                            53884                       END
 0096EE D603 C18C C18C_0018C 0018C 53888                       IF    (NITKOVFL,NZ),BEGIN
 0096F8 5810 C18C/4100_      0018C 53904  1                      SEGDC NITKOVFL,8
 009708 4110 B9B0/4100_      09E18 53926  1                      SEGWR ' Buffer overflows'
 009718                            53942                       END
                                   53946
1AMELIA   FMTINFO - SHOW INFO format routine                                                                                Page  235
0Current Usings:  (COMMAND+4096,R8) (FMTINFWK-(4+52),R9) (*,R11) (NIT,R12)
0Loc    Object Code    Addr1 Addr2  Stmt Lv Lineno    Source Statement           (Hibal 5, Asmedit 3.3)  HLASM R4.0  2004/03/15 13.11
+___    ______ ____    _____ _____  ____ __ ______    ______ _________
0009718 D603 C1E0 C1E0_001E0 001E0 53947                       IF    (NITBSYCT,NZ),BEGIN
 009722 4110 B956/4100_      09DBE 53963  1                      SEGWR ' '
 009732 5810 C1E0/4100_      001E0 53979  1                      SEGDC NITBSYCT,8
 009742 4110 B902/4100_      09D6A 54001  1                      SEGWR ' High packet count connections'
 009752                            54017                       END
                                   54021
 009752 D603 C134 C134_00134 00134 54022                       IF    (NITSNDQ#,NZ),BEGIN        Send queue overflows
 00975C 4110 B956/4100_      09DBE 54038  1                      SEGWR ' '
 00976C 5810 C134/4100_      00134 54054  1                      SEGDC NITSNDQ#,8
 00977C 4110 B9C1/4100_      09E29 54076  1                      SEGWR ' SEND QUEUE OVERFLOWS'
 00978C                            54092                       END
                                   54096
 00978C 4110 B956/4100_      09DBE 54097                       SEGWR ' '
                                   54113
 00979C 4110 B9D6/4100_      09E3E 54114                       SEGWR 'Packets received:'
 0097AC 5810 C198/4100_      00198 54130                       SEGDC NITRPACK,8
 0097BC 4110 B7D8/4100_      09C40 54152                       SEG   ' Total ('
 0097CC 5810 C19C/1B00_      0019C 54167                       SEGDC NITRLOOP
 0097DA 4110 B9E7/4100_      09E4F 54186                       SEG   ' loopback, '
 0097EA 5810 C194/1B00_      00194 54201                       SEGDC NITRBROD
 0097F8 4110 B9F2/4100_      09E5A 54220                       SEGWR ' broadcast)'
 009808 5810 C1C0/4100_      001C0 54236                       SEGDC NITRTCP,8
 009818 4110 B848/4100_      09CB0 54258                       SEGWR ' TCP'
 009828 5810 C1C8/4100_      001C8 54274                       SEGDC NITRUDP,8
 009838 4110 B84C/4100_      09CB4 54296                       SEGWR ' UDP'
 009848 5810 C1B8/4100_      001B8 54312                       SEGDC NITRICMP,8
 009858 4110 B9FD/4100_      09E65 54334                       SEGWR ' ICMP'
 009868 D603 C1D0 C1D0_001D0 001D0 54350                       IF    (NITRIPMS,NZ),BEGIN
 009872 5810 C1D0/4100_      001D0 54366  1                      SEGDC NITRIPMS,8
 009882 4110 BA02/4100_      09E6A 54388  1                      SEGWR ' Other IP'
 009892                            54404                       END
 009892 D603 C1B4 C1B4_001B4 001B4 54408                       IF    (NITRFRAG,NZ),BEGIN
 00989C 5810 C1B4/4100_      001B4 54424  1                      SEGDC NITRFRAG,8
 0098AC 4110 BA0B/4100_      09E73 54446  1                      SEGWR ' IP fragments'
 0098BC                            54462                       END
 0098BC D603 C1A4 C1A4_001A4 001A4 54466                       IF    (NITIPCHK,NZ),BEGIN
 0098C6 5810 C1A4/4100_      001A4 54482  1                      SEGDC NITIPCHK,8
 0098D6 4110 BA18/4100_      09E80 54504  1                      SEGWR ' IP checksum errors'
 0098E6                            54520                       END
 0098E6 D603 C1A8 C1A8_001A8 001A8 54524                       IF    (NITTCPCH,NZ),BEGIN
 0098F0 5810 C1A8/4100_      001A8 54540  1                      SEGDC NITTCPCH,8
 009900 4110 B850/4100_      09CB8 54562  1                      SEGWR ' TCP checksum errors'
 009910                            54578                       END
 009910 D603 C1AC C1AC_001AC 001AC 54582                       IF    (NITUDPCH,NZ),BEGIN
 00991A 5810 C1AC/4100_      001AC 54598  1                      SEGDC NITUDPCH,8
 00992A 4110 B864/4100_      09CCC 54620  1                      SEGWR ' UDP checksum errors'
 00993A                            54636                       END
 00993A D603 C1B0 C1B0_001B0 001B0 54640                       IF    (NITTCPOS,NZ),BEGIN
 009944 5810 C1B0/4100_      001B0 54656  1                      SEGDC NITTCPOS,8
 009954 4110 B878/4100_      09CE0 54678  1                      SEGWR ' TCP packets out of sequence'
 009964                            54694                       END
                                   54698
 009964 4110 BA2B/4100_      09E93 54699                       SEGWR 'Packets sent:'
 009974 5810 C1A0/4100_      001A0 54715                       SEGDC NITSPACK,8
1AMELIA   FMTINFO - SHOW INFO format routine                                                                                Page  236
0Current Usings:  (COMMAND+4096,R8) (FMTINFWK-(4+52),R9) (*,R11) (NIT,R12)
0Loc    Object Code    Addr1 Addr2  Stmt Lv Lineno    Source Statement           (Hibal 5, Asmedit 3.3)  HLASM R4.0  2004/03/15 13.11
+___    ______ ____    _____ _____  ____ __ ______    ______ _________
0009984 4110 B920/4100_      09D88 54737                       SEGWR ' Total'
 009994 5810 C1C4/4100_      001C4 54753                       SEGDC NITSTCP,8
 0099A4 4110 B848/4100_      09CB0 54775                       SEGWR ' TCP'
 0099B4 5810 C1CC/4100_      001CC 54791                       SEGDC NITSUDP,8
 0099C4 4110 B84C/4100_      09CB4 54813                       SEGWR ' UDP'
 0099D4 5810 C1BC/4100_      001BC 54829                       SEGDC NITSICMP,8
 0099E4 4110 B9FD/4100_      09E65 54851                       SEGWR ' ICMP'
 0099F4 D603 C1D4 C1D4_001D4 001D4 54867                       IF    (NITSIPMS,NZ),BEGIN
 0099FE 5810 C1D4/4100_      001D4 54883  1                      SEGDC NITSIPMS,8
 009A0E 4110 BA02/4100_      09E6A 54905  1                      SEGWR ' Other IP'
 009A1E                            54921                       END
 009A1E 5810 C0AC/4100_      000AC 54925                       SEGDC NITNSCNT,8
 009A2E 4110 BA38/4100_      09EA0 54947                       SEG   ' Name lookups'
 009A3E D603 C0B0 C0B0_000B0 000B0 54962                       IF    (NITNSRET,NZ),BEGIN
 009A48 4110 B894/4100_      09CFC 54978  1                      SEG   ' (including '
 009A58 5810 C0B0/1B00_      000B0 54993  1                      SEGDC NITNSRET
 009A66 4110 BA45/4100_      09EAD 55012  1                      SEG   ' retries)'
 009A76                            55027                       END
 009A76 1B00/18F6/58E0_            55031                       SEGWR ,
                                   55053
 009A80 5810 C7F0/4100_      007F0 55054                       SEGDC NITOQCNT,8
 009A90 4110 B8A0/4100_      09D08 55076                       SEG   ' Write queue depth, max was '
 009AA0 5810 C7F4/1B00_      007F4 55091                       SEGDC NITOQMAX
 009AAE 1B00/18F6/58E0_            55110                       SEGWR ,
                                   55132
 009AB8 4110 B926/4100_      09D8E 55133                       SEGB  'Path sends'
 009AC8 5810 C12C/1B00_      0012C 55149                       SEGDC NITPSND#
 009AD6 4110 BA4E/4100_      09EB6 55168                       SEGB  ', buffer full'
 009AE6 5810 C130/1B00_      00130 55184                       SEGDC NITPFUL#
 009AF4 1B00/18F6/58E0_            55203                       SEGWR ,
                                   55225
 009AFE 4110 B7E0/4100_      09C48 55226                       SEGB  'Buffer pool size'
 009B0E 5810 C13C/1B00_      0013C 55242                       SEGDC NITBUFCT
 009B1C 4110 BA5B/4100_      09EC3 55261                       SEGB  ', allocated'
 009B2C 5810 C140/1B00_      00140 55277                       SEGDC NITBUFAL
 009B3A 1B00/18F6/58E0_            55296                       SEGWR ,
                                   55318
 009B44 4110 B930/4100_      09D98 55319                       SEGWR 'Incoming connects:'
 009B54 5820 C1D8            001D8 55335                       L     R2,NITRTCNT         TCP connection counter queue
 009B58 1222/4780 B744             55336                       WHILE (R2,NZ),BEGIN
 009B5E 5810 2004            00004 55352  1                      L     R1,@R2+4            Get port number
 009B62 58E0 B8BC/0DEE       09D24 55353  1                      ACALL GETTPORT            Get TCP port info
 009B68 4780 B73C            09BA4 55357  1                      IF    NZ,BEGIN            If have port name,
 009B6C 9001 D000/41D0_      00000 55368  2                        XPUSH R0,R1
 009B74 5810 2008/4100_      00008 55371  2                        SEGDC L:@R2+8,8           Counter
 009B84 4110 B956/4100_      09DBE 55393  2                        SEG   ' '
 009B94 4BD0 B942/9801_      09DAA 55408  2                        XPOP  R0,R1
 009B9C 18F6/58E0 B800_            55411  2                        SEGWR (R1),(R0)
 009BA4                            55433  1                      END
 009BA4 5820 2000            00000 55437  1                      L     R2,@R2
 009BA8 47F0 B6F0            09B58 55438                       END
                                   55443
 009BAC D603 C1DC C1DC_001DC 001DC 55444                       IF    (NITSTCNT,NZ),BEGIN
 009BB6 4110 B944/4100_      09DAC 55460  1                      SEGWR 'Outgoing connects:'
1AMELIA   FMTINFO - SHOW INFO format routine                                                                                Page  237
0Current Usings:  (COMMAND+4096,R8) (FMTINFWK-(4+52),R9) (*,R11) (NIT,R12)
0Loc    Object Code    Addr1 Addr2  Stmt Lv Lineno    Source Statement           (Hibal 5, Asmedit 3.3)  HLASM R4.0  2004/03/15 13.11
+___    ______ ____    _____ _____  ____ __ ______    ______ _________
0009BC6 5820 C1DC            001DC 55476  1                      L     R2,NITSTCNT         TCP connection counter queue
 009BCA 1222/4780 B7B6             55477  1                      WHILE (R2,NZ),BEGIN
 009BD0 5810 2004            00004 55493  2                        L     R1,@R2+4            Get port number
 009BD4 58E0 B8BC/0DEE       09D24 55494  2                        ACALL GETTPORT            Get TCP port info
 009BDA 4780 B7AE            09C16 55498  2                        IF    NZ,BEGIN            If have port name,
 009BDE 9001 D000/41D0_      00000 55509  3                          XPUSH R0,R1
 009BE6 5810 2008/4100_      00008 55512  3                          SEGDC L:@R2+8,8           Counter
 009BF6 4110 B956/4100_      09DBE 55534  3                          SEG   ' '
 009C06 4BD0 B942/9801_      09DAA 55549  3                          XPOP  R0,R1
 009C0E 18F6/58E0 B800_            55552  3                          SEGWR (R1),(R0)
 009C16                            55574  2                        END
 009C16 5820 2000            00000 55578  2                        L     R2,@R2
 009C1A 47F0 B762            09BCA 55579  1                      END
 009C1E                            55584                       END
 009C1E 18D9/980C D004_            55588                       PEND
 DROP   FMTINFWK-(4+52),R9
 DROP   *,R11
                                   55613
                                   55614                       QLTORG
1AMELIA   FMTHOST - Host table format routine                                                                               Page  238
0Current Usings:  (COMMAND+4096,R8) (NIT,R12)
0Loc    Object Code    Addr1 Addr2  Stmt Lv Lineno    Source Statement           (Hibal 5, Asmedit 3.3)  HLASM R4.0  2004/03/15 13.11
+___    ______ ____    _____ _____  ____ __ ______    ______ _________
0                                  55680
                                   55681
                                   55682                 FMTHOST -- Host table format routine
                                   55683
                                   55684                    On entry:  R1 - host table entry
                                   55685                               R15 - SEGCB address
                                   55686

0000000                00000 00084 55687              FMTHSTW  RECORD BEGIN
 000000                            55695  1           FMTHTEMP   DS    CL132
 000084                00084 00084 55696                       END
                                   55705
 009ECE 90EF C020/4DE0_      00020 55706              FMTHOST  PROC  FMTHSTW
 USING  *,R11
 USING  FMTHSTW-(4+52),R9
 009EF2 1851                       55759                       LR    R5,R1
 USING  HSTTABLE,R5                55760                       WITH  (HSTTABLE,R5)
 009EF4 186F                       55773                       LR    R6,R15
                                   55774                       SEGDEF (R6)
                                   55775
 009EF6 5810 5008/18F6_      00008 55776                       SEGIP HSTIPADD
 009F02 4100 000D/18F6_      0000D 55791                       SEGCOL 13
 009F0E 4110 B43E/4100_      0A330 55809                       SEG   ' '
 009F1E 4110 505C/5800_      0005C 55824                       SEGWR HSTNAME,L:HSTNMLEN
                                   55850
 009F2E D605 5010 5010_00010 00010 55851                       IF    (HSTENET,NZ),BEGIN
 009F38 5800 5008            00008 55867  1                      L     R0,HSTIPADD         Isolate subnet
 009F3C 5400 C03C            0003C 55868  1                      N     R0,NITMASK
 009F40 D503 5008 C040_00008 00040 55869  1                      IF    ((HSTIPADD,EQ,NITGATE),OR,(R0,EQ,NITSUBNT)),BEGIN
 009F52 4110 B3FE/4100_      0A2F0 55903  2                        SEGB  '  Ethernet'
 009F62 18F6                       55919  2                        SEGLD ,
 009F64 9801 5010            00010 55925  2                        LM    R0,R1,HSTENET
 009F68 58E0 B3CA/0DEE       0A2BC 55926  2                        ACALL SEGENET
 009F6E 1B00/18F6/58E0_            55930  2                        SEGWR ,
 009F78                            55952  1                      END
 009F78                            55956                       END
                                   55960
 009F78 D603 500C 500C_0000C 0000C 55961                       IF    (HSTTIME,NZ),BEGIN
 009F82 4110 B43F/4100_      0A331 55977  1                      SEGB  '  Last packet received at'
 009F92 5800 500C            0000C 55993  1                      L     R0,HSTTIME
 009F96 9823 C33C            0033C 55994  1                      LM    R2,R3,NITZERO
 009F9A 41F0 9038            00000 55995  1                      LA    R15,FMTHTEMP
 009F9E 58E0 B3CE/0DEE       0A2C0 55996  1                      ACALL FMTRCLCK
 009FA4 18F6/58E0 B3C2_            56000  1                      SEGWR (R1),(R0)
 009FAC                            56022                       END
                                   56026
 009FAC D603 5018 5018_00018 00018 56027                       IF    (HSTRFRAG,NZ),BEGIN
 009FB6 4110 B386/4100_      0A278 56043  1                      SEGB  '  IP fragments received:'
 009FC6 5810 5018/1B00_      00018 56059  1                      SEGDC HSTRFRAG
 009FD4 1B00/18F6/58E0_            56078  1                      SEGWR ,
 009FDE                            56100                       END
                                   56104
 009FDE D603 501C 501C_0001C 0001C 56105                       IF    (HSTRICMP,NZ),BEGIN
1AMELIA   FMTHOST - Host table format routine                                                                               Page  239
0Current Usings:  (HSTTABLE,R5) (COMMAND+4096,R8) (FMTHSTW-(4+52),R9) (*,R11) (NIT,R12)
0Loc    Object Code    Addr1 Addr2  Stmt Lv Lineno    Source Statement           (Hibal 5, Asmedit 3.3)  HLASM R4.0  2004/03/15 13.11
+___    ______ ____    _____ _____  ____ __ ______    ______ _________
0009FE8 4110 B39E/4100_      0A290 56121  1                      SEGB  '  ICMP packets received:'
 009FF8 5810 501C/1B00_      0001C 56137  1                      SEGDC HSTRICMP
 00A006 1B00/18F6/58E0_            56156  1                      SEGWR ,
 00A010                            56178                       END
                                   56182
 00A010 D603 5020 5020_00020 00020 56183                       IF    (HSTSICMP,NZ),BEGIN
 00A01A 4110 B3D6/4100_      0A2C8 56199  1                      SEGB  '  ICMP packets sent:'
 00A02A 5810 5020/1B00_      00020 56215  1                      SEGDC HSTSICMP
 00A038 1B00/18F6/58E0_            56234  1                      SEGWR ,
 00A042                            56256                       END
                                   56260
 00A042 D603 5024 5024_00024 00024 56261                       IF    (HSTRTCP,NZ),BEGIN
 00A04C 4110 B458/4100_      0A34A 56277  1                      SEGB  '  TCP packets received:'
 00A05C 5810 5024/1B00_      00024 56293  1                      SEGDC HSTRTCP
 00A06A 4110 B408/4100_      0A2FA 56312  1                      SEG   ' ('
 00A07A 5810 503C/1B00_      0003C 56327  1                      SEGDC HSTRTCPB
 00A088 4110 B46F/4100_      0A361 56346  1                      SEGB  ' bytes)'
 00A098 D603 5044 5044_00044 00044 56362  1                      IF    (HSTRRXMT,NZ),BEGIN
 00A0A2 4110 B40A/4100_      0A2FC 56378  2                        SEGB  ' (plus'
 00A0B2 5810 5044/1B00_      00044 56394  2                        SEGDC HSTRRXMT
 00A0C0 4110 B3EA/4100_      0A2DC 56413  2                        SEG   ' retransmit)'
 00A0D0                            56428  1                      END
 00A0D0 1B00/18F6/58E0_            56432  1                      SEGWR ,
 00A0DA                            56454                       END
                                   56458
 00A0DA D603 5028 5028_00028 00028 56459                       IF    (HSTSTCP,NZ),BEGIN
 00A0E4 4110 B476/4100_      0A368 56475  1                      SEGB  '  TCP packets sent:'
 00A0F4 5810 5028/1B00_      00028 56491  1                      SEGDC HSTSTCP
 00A102 4110 B408/4100_      0A2FA 56510  1                      SEG   ' ('
 00A112 5810 5040/1B00_      00040 56525  1                      SEGDC HSTSTCPB
 00A120 4110 B46F/4100_      0A361 56544  1                      SEGB  ' bytes)'
 00A130 D603 5048 5048_00048 00048 56560  1                      IF    (HSTSRXMT,NZ),BEGIN
 00A13A 4110 B40A/4100_      0A2FC 56576  2                        SEGB  ' (plus'
 00A14A 5810 5048/1B00_      00048 56592  2                        SEGDC HSTSRXMT
 00A158 4110 B3EA/4100_      0A2DC 56611  2                        SEG   ' retransmit)'
 00A168                            56626  1                      END
 00A168 1B00/18F6/58E0_            56630  1                      SEGWR ,
 00A172                            56652                       END
                                   56656
 00A172 D603 5050 5050_00050 00050 56657                       IF    (HSTRTCNT,NZ),BEGIN
 00A17C 4110 B410/4100_      0A302 56673  1                      SEG   '  Incoming connects:  '
 00A18C 5820 5050            00050 56688  1                      L     R2,HSTRTCNT         TCP connection counter queue
 00A190 1222/4780 B2F0             56689  1                      WHILE (R2,NZ),BEGIN
 00A196 5810 2004            00004 56705  2                        L     R1,@R2+4            Get port number
 00A19A 58E0 B3F6/0DEE       0A2E8 56706  2                        ACALL GETTPORT            Get TCP port info
 00A1A0 4780 B2E8            0A1DA 56710  2                        IF    NZ,BEGIN            If have port name,
 00A1A4 18F6/58E0 B3FA_            56721  3                          SEGT  (R1),(R0)
 00A1AC 4110 B489/4100_      0A37B 56743  3                          SEG   '='
 00A1BC 5810 2008/1B00_      00008 56758  3                          SEGDC L:@R2+8
 00A1CA 4110 B426/4100_      0A318 56777  3                          SEG   '  '
 00A1DA                            56792  2                        END
 00A1DA 5820 2000            00000 56796  2                        L     R2,@R2
 00A1DE 47F0 B29E            0A190 56797  1                      END
 00A1E2 1B00/18F6/58E0_            56802  1                      SEGWR ,
1AMELIA   FMTHOST - Host table format routine                                                                               Page  240
0Current Usings:  (HSTTABLE,R5) (COMMAND+4096,R8) (FMTHSTW-(4+52),R9) (*,R11) (NIT,R12)
0Loc    Object Code    Addr1 Addr2  Stmt Lv Lineno    Source Statement           (Hibal 5, Asmedit 3.3)  HLASM R4.0  2004/03/15 13.11
+___    ______ ____    _____ _____  ____ __ ______    ______ _________
000A1EC                            56824                       END
                                   56828
 00A1EC D603 5054 5054_00054 00054 56829                       IF    (HSTSTCNT,NZ),BEGIN
 00A1F6 4110 B428/4100_      0A31A 56845  1                      SEG   '  Outgoing connects:  '
 00A206 5820 5054            00054 56860  1                      L     R2,HSTSTCNT         TCP connection counter queue
 00A20A 1222/4780 B36A             56861  1                      WHILE (R2,NZ),BEGIN
 00A210 5810 2004            00004 56877  2                        L     R1,@R2+4            Get port number
 00A214 58E0 B3F6/0DEE       0A2E8 56878  2                        ACALL GETTPORT            Get TCP port info
 00A21A 4780 B362            0A254 56882  2                        IF    NZ,BEGIN            If have port name,
 00A21E 18F6/58E0 B3FA_            56893  3                          SEGT  (R1),(R0)
 00A226 4110 B489/4100_      0A37B 56915  3                          SEG   '='
 00A236 5810 2008/1B00_      00008 56930  3                          SEGDC L:@R2+8
 00A244 4110 B426/4100_      0A318 56949  3                          SEG   '  '
 00A254                            56964  2                        END
 00A254 5820 2000            00000 56968  2                        L     R2,@R2
 00A258 47F0 B318            0A20A 56969  1                      END
 00A25C 1B00/18F6/58E0_            56974  1                      SEGWR ,
 00A266                            56996                       END
 00A266 18D9/980C D004_            57000                       PEND
 DROP   HSTTABLE,R5
 DROP   FMTHSTW-(4+52),R9
 DROP   *,R11
                                   57030                       QLTORG
1AMELIA   FMTTCB - TCB format routine                                                                                       Page  241
0Current Usings:  (COMMAND+4096,R8) (NIT,R12)
0Loc    Object Code    Addr1 Addr2  Stmt Lv Lineno    Source Statement           (Hibal 5, Asmedit 3.3)  HLASM R4.0  2004/03/15 13.11
+___    ______ ____    _____ _____  ____ __ ______    ______ _________
0                                  57069
                                   57070
                                   57071                 FMTTCB -- TCB format routine
                                   57072
                                   57073                   On entry:
                                   57074                     R0  - format option (0=standard, 4=short, 8=long)
                                   57075                     R1  - TCB address
                                   57076                     R15 - SEGCB address
                                   57077

0000000                00000 00020 57078              FMTTCBW  RECORD BEGIN
 000000                            57086  1           FMTTCSEG   DS    A                   SEGCB address
 000004                            57087  1           FMTTCOPT   DS    A                   Format option
 000008                            57088  1           FMTTCWRK   DS    CL24                Work area
 000020                00020 00020 57089                       END
-00A37C 90EF C020/4DE0_      00020 57099              FMTTCB   PROC  FMTTCBW
 USING  *,R11
 USING  FMTTCBW-(4+52),R9
 00A3A0 5000 903C            00004 57152                       ST    R0,FMTTCOPT         Save formatting option
 00A3A4 1871                       57153                       LR    R7,R1               Save TCB address
 USING  TCB,R7                     57154                       WITH  (TCB,R7)
 00A3A6 186F                       57167                       LR    R6,R15              SEGCB address
                                   57168                       SEGDEF (R6)
                                   57169
 00A3A8 4110 BC34/4100_      0AFD4 57170                       SEG   'TCP ID='
 00A3B8 5810 7008/1B00_      00008 57185                       SEGDC TCBID
 00A3C6 4110 BAA0/4100_      0AE40 57204                       SEG   '  State='
 00A3D6 1F11/4310 7230             57219                       LC    R1,TCBSTATE         State code
 00A3DC 8910 0003            00003 57226                       SLL   R1,3                *8 for index
 00A3E0 4111 BA42/4100_      0ADE2 57227                       SEGT  FMTTCSTA(R1),8      Add state code text
                                   57255
 00A3F0 D603 7078 7078_00078 00078 57256                       IF    (TCBLMAX,NZ),BEGIN
 00A3FA 4110 BB60/4100_      0AF00 57272  1                      SEG   '  Max='
 00A40A 5810 7078/1B00_      00078 57287  1                      SEGDC TCBLMAX
 00A418                            57306                       END
 00A418 4110 BC3B/4100_      0AFDB 57310                       SEG   '  Port='
 00A428 5810 7020/1B00_      00020 57325                       SEGDC TCBLPORT
 00A436 5810 7020            00020 57344                       L     R1,TCBLPORT         Add port info
 00A43A 58E0 BAE4/0DEE       0AE84 57345                       ACALL GETTPORT
 00A440 4780 B0D4            0A474 57349                       IF    NZ,BEGIN
 00A444 1820                       57360  1                      LR    R2,R0
 00A446 1831                       57361  1                      LR    R3,R1
 00A448 4110 BB66/4100_      0AF06 57362  1                      SEG   ' ('
 00A458 1813/1802/18F6_            57377  1                      SEGT  (R3),(R2)
 00A464 4110 BC42/4100_      0AFE2 57401  1                      SEGB  ')'
 00A474                            57417                       END
 00A474 1B00/18F6/58E0_            57421                       SEGWR
                                   57443
 00A47E 4110 BAF0/4100_      0AE90 57444                       SEGB  ' Job'
 00A48E 5820 7010            00010 57460                       L     R2,TCBPATH
 00A492 4110 202E/4100_      0002E 57461                       WITH  (UPATH,R2),'SEGT UPATPJOB'   Partner job name
1AMELIA   FMTTCB - TCB format routine                                                                                       Page  242
0Current Usings:  (TCB,R7) (COMMAND+4096,R8) (FMTTCBW-(4+52),R9) (*,R11) (NIT,R12)
0Loc    Object Code    Addr1 Addr2  Stmt Lv Lineno    Source Statement           (Hibal 5, Asmedit 3.3)  HLASM R4.0  2004/03/15 13.11
+___    ______ ____    _____ _____  ____ __ ______    ______ _________
0USING  UPATH,R2
 DROP   UPATH,R2
 00A4A2 D61F 70BC 70BC_000BC 000BC 57510                       IF    (TCBINFO,NZ),BEGIN
 00A4AC 4110 BB68/4100_      0AF08 57526  1                      SEG   '  '
 00A4BC 4110 70BC/4100_      000BC 57541  1                      SEGT  TCBINFO
 00A4CC                            57567                       END
 00A4CC B130/47F0 B170_0A4CC 0A4AA 57571                       ELSEIF (TCBUID,NZ),BEGIN
 00A4DA 4110 BAA8/4100_      0AE48 57596  1                      SEGB  '  Userid'          User connection id
 00A4EA 5810 700C            0000C 57612  1                      L     R1,TCBUID
 00A4EE 5510 BAF4/47B0_      0AE94 57613  1                      IF    ('CL R1,=A(65535)',L),BEGIN
 00A4F6 1B00/18F6/58E0_            57626  2                        SEGDC (R1)
 00A500                            57644  1                      END
 00A500 B164/47F0 B170 0A500 0A4F4 57648  1                      ELSE  BEGIN
 00A504 4100 0008/18F6_      00008 57659  2                        SEGHX (R1),8
 00A510                            57680  1                      END
 00A510                            57684                       END
 00A510 4110 BB6A/4100_      0AF0A 57688                       SEGB  '   Started'
 00A520 5800 701C            0001C 57704                       L     R0,TCBSTART         Start time
 00A524 1B22                       57705                       CLEAR R2                  Zero reference time
 00A526 1B33                       57709                       CLEAR R3
 00A528 41F0 9040            00008 57713                       LA    R15,FMTTCWRK        Work area
 00A52C 58E0 BAFC/0DEE       0AE9C 57714                       ACALL FMTRCLCK            Format time/date
 00A532 18F6/58E0 BAEC_            57718                       SEGWR (R1),(R0)
                                   57740
 00A53A D603 7028 7028_00028 00028 57741                       IF    (TCBIPADD,NZ),BEGIN  If have remote host,
 00A544 4110 BC43/4100_      0AFE3 57757  1                      SEGB  ' Host'
 00A554 58F0 7030            00030 57773  1                      L     R15,TCBHSTTB        Host table address
 00A558 5800 F058/4110_      00058 57774  1                      WITH  (HSTTABLE,R15),'L R0,HSTNMLEN; LA R1,HSTNAME'
 USING  HSTTABLE,R15
 DROP   HSTTABLE,R15
 00A560 18F6/58E0 BAE8_            57799  1                      SEGB  (R1),(R0)
 00A568 5810 7028/18F6_      00028 57821  1                      SEGIP TCBIPADD
 00A574 D603 7024 7024_00024 00024 57836  1                      IF    (TCBRPORT,NZ),BEGIN
 00A57E 4110 BC3B/4100_      0AFDB 57852  2                        SEG   '  Port='
 00A58E 5810 7024/1B00_      00024 57867  2                        SEGDC TCBRPORT
 00A59C                            57886  1                      END
 00A59C 5810 7024            00024 57890  1                      L     R1,TCBRPORT         Add port info
 00A5A0 58E0 BAE4/0DEE       0AE84 57891  1                      ACALL GETTPORT
 00A5A6 4780 B23A            0A5DA 57895  1                      IF    NZ,BEGIN
 00A5AA 1820                       57906  2                        LR    R2,R0
 00A5AC 1831                       57907  2                        LR    R3,R1
 00A5AE 4110 BB66/4100_      0AF06 57908  2                        SEG   ' ('
 00A5BE 1813/1802/18F6_            57923  2                        SEGT  (R3),(R2)
 00A5CA 4110 BC42/4100_      0AFE2 57947  2                        SEGB  ')'
 00A5DA                            57963  1                      END
 00A5DA 1B00/18F6/58E0_            57967  1                      SEGWR ,
 00A5E4                            57989                       END
                                   57993
                                   57994                         Done if summary format request
                                   57995
 00A5E4 D503 BB04 903C_0AEA4 00004 57996                       IF    (FMTTCOPT,EQ,4),EXIT
1AMELIA   FMTTCB - TCB format routine                                                                                       Page  243
0Current Usings:  (TCB,R7) (COMMAND+4096,R8) (FMTTCBW-(4+52),R9) (*,R11) (NIT,R12)
0Loc    Object Code    Addr1 Addr2  Stmt Lv Lineno    Source Statement           (Hibal 5, Asmedit 3.3)  HLASM R4.0  2004/03/15 13.11
+___    ______ ____    _____ _____  ____ __ ______    ______ _________
0                                  58017
                                   58018                         If LISTEN state, skip packet formatting
                                   58019
 00A5EE 9501 7230/4780_00230       58020                       IF    (TCBSTATE,EQ,LISTEN),FMTTCPMS
                                   58041
 00A5F6 4110 BAB0/4100_      0AE50 58042                       SEG   ' Window='
 00A606 5810 705C/1B00_      0005C 58057                       SEGDC TCBSNDWN
 00A614 4110 BB74/4100_      0AF14 58076                       SEG   '  MSS='
 00A624 5810 7070/1B00_      00070 58091                       SEGDC TCBSMSS
 00A632 4110 BC48/4100_      0AFE8 58110                       SEG   '  RXTIME='
 00A642 5810 7098/1B00_      00098 58125                       SEGDC TCBRXTIM
 00A650 4110 BC51/4100_      0AFF1 58144                       SEG   '  SRTT='
 00A660 4810 709E/4100_      0009E 58159                       SEGHX LH:TCBSRTT+2,4
 00A670 4110 BC58/4100_      0AFF8 58180                       SEG   '.'
 00A680 4810 70A0/4100_      000A0 58195                       SEGHX LH:TCBSRTT+4,4
 00A690 1B00/18F6/58E0_            58216                       SEGWR ,
 00A69A 4110 BC59/4100_      0AFF9 58238                       SEGB  ' Packets received'
 00A6AA 5810 70E0/1B00_      000E0 58254                       SEGDC TCBRPACK
 00A6B8 4110 BB66/4100_      0AF06 58273                       SEG   ' ('
 00A6C8 5810 70DC/1B00_      000DC 58288                       SEGDC TCBRBYTE
 00A6D6 4110 BC6A/4100_      0B00A 58307                       SEG   ' bytes)'
 00A6E6 D603 70E4 70E4_000E4 000E4 58322                       IF    (TCBRRXMT,NZ),BEGIN
 00A6F0 4110 BC71/4100_      0B011 58338  1                      SEGB  '  (plus'
 00A700 5810 70E4/1B00_      000E4 58354  1                      SEGDC TCBRRXMT
 00A70E 4110 BB08/4100_      0AEA8 58373  1                      SEG   ' retransmit)'
 00A71E                            58388                       END
 00A71E 1B00/18F6/58E0_            58392                       SEGWR ,
                                   58414
 00A728 4110 BC78/4100_      0B018 58415                       SEGB  ' Packets sent'
 00A738 5810 70EC/1B00_      000EC 58431                       SEGDC TCBSPACK
 00A746 4110 BB66/4100_      0AF06 58450                       SEG   ' ('
 00A756 5810 70E8/1B00_      000E8 58465                       SEGDC TCBSBYTE
 00A764 4110 BC6A/4100_      0B00A 58484                       SEG   ' bytes)'
 00A774 D603 70F0 70F0_000F0 000F0 58499                       IF    (TCBSRXMT,NZ),BEGIN
 00A77E 4110 BC71/4100_      0B011 58515  1                      SEGB  '  (plus'
 00A78E 5810 70F0/1B00_      000F0 58531  1                      SEGDC TCBSRXMT
 00A79C 4110 BB08/4100_      0AEA8 58550  1                      SEG   ' retransmit)'
 00A7AC                            58565                       END
 00A7AC 1B00/18F6/58E0_            58569                       SEGWR ,
                                   58591
 00A7B6 D603 70B0 70B0_000B0 000B0 58592                       IF    (TCBSENDQ,NZ),BEGIN
 00A7C0 4110 BC85/4100_      0B025 58608  1                      SEGB  ' Send queue: '
 00A7D0 5810 7054            00054 58624  1                      L     R1,TCBSNDNX
 00A7D4 5F10 7050            00050 58625  1                      SL    R1,TCBSNDUN
 00A7D8 1B00/18F6/58E0_            58626  1                      SEGDC (R1)
 00A7E2 4110 BC92/4100_      0B032 58644  1                      SEGB  ' bytes unacked '
 00A7F2 5810 7058            00058 58660  1                      L     R1,TCBSNDFN
 00A7F6 5F10 7054            00054 58661  1                      SL    R1,TCBSNDNX
 00A7FA 1211/47D0 B47A             58662  1                      IF    (R1,P),BEGIN
 00A800 1B00/18F6/58E0_            58676  2                        SEGDC (R1)
 00A80A 4110 BCA1/4100_      0B041 58694  2                        SEG   ' bytes unsent'
 00A81A                            58709  1                      END
 00A81A 1B00/18F6/58E0_            58713  1                      SEGWR ,
 00A824                            58735                       END
1AMELIA   FMTTCB - TCB format routine                                                                                       Page  244
0Current Usings:  (TCB,R7) (COMMAND+4096,R8) (FMTTCBW-(4+52),R9) (*,R11) (NIT,R12)
0Loc    Object Code    Addr1 Addr2  Stmt Lv Lineno    Source Statement           (Hibal 5, Asmedit 3.3)  HLASM R4.0  2004/03/15 13.11
+___    ______ ____    _____ _____  ____ __ ______    ______ _________
0                                  58739
 00A824 D507 719C 71A4_0019C 001A4 58740                       IF    (TCBRPTIM,NE,TCBRDATT),BEGIN
 00A82E 4110 BB7A/4100_      0AF1A 58758  1                      SEGB  ' Last packet received '
 00A83E 9801 719C            0019C 58774  1                      LM    R0,R1,TCBRPTIM
 00A842 41F0 9040            00008 58775  1                      LA    R15,FMTTCWRK
 00A846 58E0 BB14/0DEE       0AEB4 58776  1                      ACALL FMTTIME
 00A84C 18F6/58E0 BAE8_            58780  1                      SEGB  (R1),(R0)
 00A854 1B00/18F6/58E0_            58802  1                      SEGWR ,
 00A85E                            58824                       END
                                   58828
 00A85E D607 71A4 71A4_001A4 001A4 58829                       IF    (TCBRDATT,NZ),BEGIN
 00A868 4110 BB90/4100_      0AF30 58845  1                      SEGB  ' Last data received at'
 00A878 9801 71A4            001A4 58861  1                      LM    R0,R1,TCBRDATT
 00A87C 41F0 9040            00008 58862  1                      LA    R15,FMTTCWRK
 00A880 58E0 BB14/0DEE       0AEB4 58863  1                      ACALL FMTTIME
 00A886 18F6/58E0 BAE8_            58867  1                      SEGB  (R1),(R0)
 00A88E 4110 C23C/4100_      0023C 58889  1                      SEG   NITBLANK,2
 00A89E 5810 71AC/1B00_      001AC 58916  1                      SEGDC TCBRDATL
 00A8AC 4110 BBA6/4100_      0AF46 58935  1                      SEGWR ' bytes'
 00A8BC 4110 71B0/4100_      001B0 58951  1                      SETMSG TCBRDATA
 00A8C4 5900 71AC/47D0_      001AC 58965  1                      CEIL  R0,TCBRDATL
 00A8D0 9600 C104/18F6_00104       58971  1                      HEXDUMP (R1),(R0)
 00A8DC                            58993                       END
                                   58997
 00A8DC D507 7108 7110_00108 00110 58998                       IF    (TCBSPTIM,NE,TCBSDATT),BEGIN
 00A8E6 4110 BBAC/4100_      0AF4C 59016  1                      SEGB  ' Last packet sent '
 00A8F6 9801 7108            00108 59032  1                      LM    R0,R1,TCBSPTIM
 00A8FA 41F0 9040            00008 59033  1                      LA    R15,FMTTCWRK
 00A8FE 58E0 BB14/0DEE       0AEB4 59034  1                      ACALL FMTTIME
 00A904 18F6/58E0 BAE8_            59038  1                      SEGB  (R1),(R0)
 00A90C 1B00/18F6/58E0_            59060  1                      SEGWR ,
 00A916                            59082                       END
                                   59086              *
                                   59087              *
 00A916 D607 7110 7110_00110 00110 59088                       IF    (TCBSDATT,NZ),BEGIN
 00A920 4110 BBBE/4100_      0AF5E 59104  1                      SEGB  ' Last data sent at'
 00A930 9801 7110            00110 59120  1                      LM    R0,R1,TCBSDATT
 00A934 41F0 9040            00008 59121  1                      LA    R15,FMTTCWRK
 00A938 58E0 BB14/0DEE       0AEB4 59122  1                      ACALL FMTTIME
 00A93E 18F6/58E0 BAE8_            59126  1                      SEGB  (R1),(R0)
 00A946 4110 C23C/4100_      0023C 59148  1                      SEG   NITBLANK,2
 00A956 5810 7118/1B00_      00118 59175  1                      SEGDC TCBSDATL
 00A964 4110 BBA6/4100_      0AF46 59194  1                      SEG   ' bytes'
 00A974 9104 7231/47E0_00231       59209  1                      IF    TCBFRXMT,'SEG "  (retransmit)"'
 00A98C 1B00/18F6/58E0_            59244  1                      SEGWR ,
 00A996 4110 711C/4100_      0011C 59266  1                      SETMSG TCBSDATA
 00A99E 5900 7118/47D0_      00118 59280  1                      CEIL  R0,TCBSDATL
 00A9AA 9600 C104/18F6_00104       59286  1                      HEXDUMP (R1),(R0)
 00A9B6                            59308                       END
                                   59312
 00A9B6 9120 7232/47E0_00232       59313                       IF    TCBFRCLO,' SEGWR " TCP_CLOSE received from path"'
 00A9CE 9101 7231/47E0_00231       59349                       IF    TCBFXOFF,' SEGWR " TCP_STOP received from path"'
 00A9E6 9102 7231/47E0_00231       59385                       IF    TCBFSTOP,' SEGWR " TCP_STOP sent to path"'
1AMELIA   FMTTCB - TCB format routine                                                                                       Page  245
0Current Usings:  (TCB,R7) (COMMAND+4096,R8) (FMTTCBW-(4+52),R9) (*,R11) (NIT,R12)
0Loc    Object Code    Addr1 Addr2  Stmt Lv Lineno    Source Statement           (Hibal 5, Asmedit 3.3)  HLASM R4.0  2004/03/15 13.11
+___    ______ ____    _____ _____  ____ __ ______    ______ _________
0                                  59421
                                   59422                         Format trace table
                                   59423
 00A9FE 4110 BCCB/4100_      0B06B 59424              FMTTCPMS SEGWR ' Trace table:'
 00AA0E 5850 70F8            000F8 59440                       L     R5,TCBTRPTR         Trace table entry offset
 00AA12                            59441                       LOOP  BEGIN
 00AA12 D603 70F4 70F4_000F4 000F4 59447  1                      IF    (TCBTRADD,Z),EXIT   Check for no table
 00AA1C 1845                       59466  1                      LR    R4,R5               Copy trace table offset
 00AA1E 5A40 70F4            000F4 59467  1                      A     R4,TCBTRADD         Point to trace table entry
 USING  TCBTRHDR,R4                59468  1                      WITH  (TCBTRHDR,R4)
 00AA22 D607 4000 4000_00000 00000 59481  1                      IF    (TCBTRTIM,NZ),BEGIN   If have entry,
 00AA2C 4110 C23C/4100_      0023C 59497  2                        SEG   NITBLANK,2            Space over
 00AA3C 9801 4000            00000 59524  2                        LM    R0,R1,TCBTRTIM        Get time stamp
 00AA40 1B22/1B33                  59525  2                        CLEAR R2,R3                 Clear reference time
 00AA44 41F0 9040            00008 59531  2                        LA    R15,FMTTCWRK          Work area
 00AA48 58E0 BB14/0DEE       0AEB4 59532  2                        ACALL FMTTIME               Format time/date
 00AA4E 18F6/58E0 BAE8_            59536  2                        SEGB  (R1),(R0)
                                   59558  2
 00AA56 4820 400A            0000A 59559  2                        LH    R2,TCBTRLEN         Get message length
 00AA5A 4110 BCD8/4100_      0B078 59560  2                        SEG   ' Len='
 00AA6A 1812/1B00/18F6_            59575  2                        SEGDC (R2)                Format entry length
 00AA76 4100 0018/18F6_      00018 59594  2                        SEGCOL 24                 Space over
 00AA82 58F0 70FC            000FC 59612  2                        L     R15,TCBTRELN        Get entry length
 00AA86 4BF0 BBF4            0AF94 59613  2                        SH    R15,=Y(L'TCBTRHDR)  Minus header length
 00AA8A 192F/47D0 B6F2_            59614  2                        IF    (R2,GT,R15),'LR R2,R15'  Truncate data length
                                   59635  2
                                   59636  2         C              IF    ((TCBTRTYP,EQ,TCBTRRCV),OR,  If received packet
 00AA92 D501 BBF6 4008_0AF96 00008        2                              (TCBTRTYP,EQ,TCBTRSND)),BEGIN  or sent packet
 00AAA6 D501 BBF6 4008_0AF96 00008 59671  3                          IF    (TCBTRTYP,EQ,TCBTRRCV),BEGIN
 00AAB0 4110 BB3C/4100_      0AEDC 59689  4                            SEGWR 'TCP packet received:'
 00AAC0                            59705  3                          END
 00AAC0 B724/47F0 B734 0AAC0 0AAAE 59709  3                          ELSE  BEGIN
 00AAC4 4110 BAB8/4100_      0AE58 59720  4                            SEGWR 'TCP packet sent:'
 00AAD4                            59736  3                          END
 00AAD4 4130 400C            0000C 59740  3                          LA    R3,TCBTRDAT
 USING  TCPHDR,R3                  59741  3                          WITH  (TCPHDR,R3)
 00AAD8 4110 BCDD/4100_      0B07D 59754  3                          SEG   '   SEQ='
 00AAE8 5810 3004/4100_      00004 59769  3                          SEGHX TCPSEQ,8
 00AAF8 9110 300D/47E0_0000D       59791  3                          IF    TCPFLACK,BEGIN
 00AB00 4110 BBFA/4100_      0AF9A 59806  4                            SEG   '  ACK='
 00AB10 5810 3008/4100_      00008 59821  4                            SEGHX TCPACK,8
 00AB20                            59843  3                          END
 00AB20 9104 300D/47E0_0000D       59847  3                          IF    TCPFLRST,'SEG " RST"'
 00AB38 9102 300D/47E0_0000D       59882  3                          IF    TCPFLSYN,'SEG " SYN"'
 00AB50 9101 300D/47E0_0000D       59917  3                          IF    TCPFLFIN,'SEG " FIN"'
 00AB68 1B00/18F6/58E0_            59952  3                          SEGWR ,
 00AB72 1813/1802/9600_            59974  3                          HEXDUMP (R3),(R2)
 DROP   TCPHDR,R3                  59998  2                        END
                                   60007  2
 00AB82 B7E6/47F0 B91A 0AB82 0AAA4 60008  2                        ELSE  BEGIN               Else path message
 00AB86 D501 BC00 4008_0AFA0 00008 60019  3                          IF    (TCBTRTYP,EQ,TCBTRRPM),BEGIN  If received path msg,
 00AB90 4110 BC02/4100_      0AFA2 60037  4                            SEGWR 'Path message received:'
 00ABA0                            60053  3                          END
 00ABA0 B804/47F0 B856 0ABA0 0AB8E 60057  3                          ELSE  BEGIN
1AMELIA   FMTTCB - TCB format routine                                                                                       Page  246
0Current Usings:  (TCBTRHDR,R4) (TCB,R7) (COMMAND+4096,R8) (FMTTCBW-(4+52),R9) (*,R11) (NIT,R12)
0Loc    Object Code    Addr1 Addr2  Stmt Lv Lineno    Source Statement           (Hibal 5, Asmedit 3.3)  HLASM R4.0  2004/03/15 13.11
+___    ______ ____    _____ _____  ____ __ ______    ______ _________
000ABA4 4110 BC18/4100_      0AFB8 60068  4                            SEG   'Path message sent:'
 00ABB4 D601 4008 4008_00008 00008 60083  4                            IF    (TCBTRTYP,NZ),BEGIN     If error on send,
 00ABBE 4110 BCE4/4100_      0B084 60099  5                              SEG   ' ** RC='               Format return code
 00ABCE 4810 4008/1B00_      00008 60114  5                              SEGDC LH:TCBTRTYP
 00ABDC 4110 BCEB/4100_      0B08B 60132  5                              SEG   ' **'
 00ABEC                            60147  4                            END
 00ABEC 1B00/18F6/58E0_            60151  4                            SEGWR ,
 00ABF6                            60173  3                          END
 00ABF6 4110 C23C/4100_      0023C 60177  3                          SEG   NITBLANK,3
 00AC06 4110 400C/4100_      0000C 60204  3                          SEGWR TCBTRDAT,16          Write message type
                                   60232  3         C                IF    ((TCBTRDAT,EQ,'TCP_OPEN:'),OR,
 00AC16 D508 BCEE 400C_0B08E 0000C        3                                (TCBTRDAT,EQ,'TCP_INFO:')),BEGIN
 00AC2A 4110 C23C/4100_      0023C 60265  4                            SEG   NITBLANK,3
 00AC3A 5810 401C/4100_      0001C 60292  4                            SEGHX L:TCBTRDAT+16,8          Partner connection id
 00AC4A 4110 C23C/4100_      0023C 60314  4                            SEG   NITBLANK,2
 00AC5A 4B20 BC2A            0AFCA 60341  4                            SH    R2,=Y(20)               Remaining length
 00AC5E 4110 4020/1802_      00020 60342  4                            SEGWR TCBTRDAT+20,(R2)         Write option string
 00AC6C                            60368  3                          END
 00AC6C B8D0/47F0 B8FC_0AC6C 0AC28 60372  3                          ELSEIF (TCBTRDAT,EQ,'TCP_LISTEN:'),BEGIN
 00AC7A 4110 C23C/4100_      0023C 60398  4                            SEG   NITBLANK,3
 00AC8A 4B20 BC2C            0AFCC 60425  4                            SH    R2,=Y(16)               Remaining length
 00AC8E 4110 401C/1802_      0001C 60426  4                            SEGWR TCBTRDAT+16,(R2)         Write option string
 00AC9C                            60452  3                          END
 00AC9C B900/47F0 B91A 0AC9C 0AC78 60456  3                          ELSE  BEGIN
 00ACA0 4B20 BC2C            0AFCC 60467  4                            SH    R2,=Y(16)               Get data length
 00ACA4 47D0 B91A            0ACBA 60468  4                            IF    NP,EXIT                 Exit if no data
 00ACA8 4110 401C/1802_      0001C 60482  4                            HEXDUMP TCBTRDAT+16,(R2)       Format parm data
 00ACBA                            60508  3                          END
 00ACBA                            60512  2                        END
 00ACBA                            60516  1                      END
                                   60520  1
 00ACBA 5A50 70FC            000FC 60521  1                      A     R5,TCBTRELN         Step to next entry
 00ACBE 5950 7100/4770_      00100 60522  1                      IF    (R5,EQ,TCBTRTLN),'CLEAR R5'  Check for wrap
 00ACC8 5950 70F8/4780_      000F8 60548  1                      IF    (R5,EQ,TCBTRPTR),EXIT  Check if end of table
 00ACD0 47F0 B672            0AA12 60568                       END
 DROP   TCBTRHDR,R4
                                   60578
                                   60579                         Format path message queue
                                   60580
 00ACD4 D603 70B4 70B4_000B4 000B4 60581                       IF    (TCBPATHQ,NZ),BEGIN
 00ACDE 4110 BD0B/4100_      0B0AB 60597  1                      SEGWR ' Path messages queued'
 00ACEE 5820 70B4            000B4 60613  1                      L     R2,TCBPATHQ
 00ACF2 1222/4780 B9D0             60614  1                      WHILE (R2,NZ),BEGIN
 USING  TCBQHDR,R2                 60630  2                        WITH  (TCBQHDR,R2)
 00ACF8 4110 BD20/4100_      0B0C0 60643  2                        SEG   '   '
 00AD08 1812/4100 0008_            60658  2                        SEGHX (R2),8
 00AD16 4110 BD23/4100_      0B0C3 60680  2                        SEG   ' '
 00AD26 4110 200C/4100_      0000C 60695  2                        SEGT  TCBQDATA,16
 00AD36 D507 BAC8 200C_0AE68 0000C 60723  2                        IF    (TCBQDATA,EQ,'TCP_DATA'),BEGIN
 00AD40 4110 BAD0/4100_      0AE70 60740  3                          SEG   '  Count='
 00AD50 5810 2004/1B00_      00004 60755  3                          SEGDC TCBQLEN
 00AD5E                            60774  2                        END
 00AD5E 1B00/18F6/58E0_            60778  2                        SEGWR
 00AD68 5820 2000            00000 60800  2                        L     R2,TCBQNEXT
1AMELIA   FMTTCB - TCB format routine                                                                                       Page  247
0Current Usings:  (TCB,R7) (COMMAND+4096,R8) (FMTTCBW-(4+52),R9) (*,R11) (NIT,R12)
0Loc    Object Code    Addr1 Addr2  Stmt Lv Lineno    Source Statement           (Hibal 5, Asmedit 3.3)  HLASM R4.0  2004/03/15 13.11
+___    ______ ____    _____ _____  ____ __ ______    ______ _________
000AD6C 47F0 B952            0ACF2 60801  1                      END
 DROP   TCBQHDR,R2
 00AD70                            60811                       END
                                   60815
 00AD70 D503 BB5C 903C_0AEFC 00004 60816                       IF    (FMTTCOPT,EQ,8),BEGIN  If long format,
 00AD7A 4110 BD23/4100_      0B0C3 60834  1                      SEGWR ' '
 00AD8A 4110 BC2E/4100_      0AFCE 60850  1                      SEGB  'TCB at'
 00AD9A 1817/4100 0008_            60866  1                      SEGHX (R7),8
 00ADA8 1B00/18F6/58E0_            60888  1                      SEGWR ,
 00ADB2 4110 BD23/4100_      0B0C3 60910  1                      SEGWR ' '
 00ADC2 1817/4100 0233_            60926  1                      HEXDUMP (R7),L'TCB,CHARS=EBCDIC
 00ADD4                            60952                       END
 00ADD4 18D9/980C D004_            60956                       PEND
 DROP   TCB,R7
 DROP   FMTTCBW-(4+52),R9
 DROP   *,R11
                                   60986              *
                                   60987              * Text for TCP state codes
                                   60988              *
 00ADE2 C3D3D6E2C5C44040           60989              FMTTCSTA DC    C'CLOSED  '           0
 00ADEA D3C9E2E3C5D54040           60990                       DC    C'LISTEN  '           1
 00ADF2 E2E8D5E2C5D5E340           60991                       DC    C'SYNSENT '           2
 00ADFA E2E8D5D9C5C3E5C4           60992                       DC    C'SYNRECVD'           3
 00AE02 C5E2E3C1C2D3E2C8           60993                       DC    C'ESTABLSH'           4
 00AE0A C6C9D5E6C1C9E3F1           60994                       DC    C'FINWAIT1'           5
 00AE12 C6C9D5E6C1C9E3F2           60995                       DC    C'FINWAIT2'           6
 00AE1A C3D3D6E2E6C1C9E3           60996                       DC    C'CLOSWAIT'           7
 00AE22 C3D3D6E2C9D5C740           60997                       DC    C'CLOSING '           8
 00AE2A D3C1E2E3C1C3D240           60998                       DC    C'LASTACK '           9
 00AE32 E3C9D4C5E6C1C9E3           60999                       DC    C'TIMEWAIT'          10
                                   61000
                                   61001                       QLTORG
1AMELIA   FMTPACK - Packet formatting routine                                                                               Page  248
0Current Usings:  (COMMAND+4096,R8) (NIT,R12)
0Loc    Object Code    Addr1 Addr2  Stmt Lv Lineno    Source Statement           (Hibal 5, Asmedit 3.3)  HLASM R4.0  2004/03/15 13.11
+___    ______ ____    _____ _____  ____ __ ______    ______ _________
0                                  61090
                                   61091
                                   61092                 FMTPACK -- Routine to generate formatted listing of packet
                                   61093
                                   61094                   On entry:
                                   61095                     R0  - packet length
                                   61096                     R1  - packet address
                                   61097                     R15 - SEGCB to use for output lines
                                   61098
                                   61099                   If R0 is negative on entry, just format packet headers
                                   61100                   and first 32 bytes of data.
                                   61101

0000000                00000 00015 61102              FMTPWA   RECORD BEGIN
 000000                            61110  1           FMTPWSEG   DS    A                   SEGCB address
 000004                            61111  1           FMTPWORK   DS    CL16                Work area
 000014 00                         61112  1           FMTPWFLG   FLAG  ,                   Flags
 FMTPWFLG.FMTFTRUN 80 ONES         61116  1                      FLAG  FMTFTRUN             - truncate data display
                                   61121  1
 000015                00015 00015 61122                       END
                                   61131
 00B0C4 90EF C020/4DE0_      00020 61132              FMTPACK  PROC  FMTPWA
 USING  *,R11
 USING  FMTPWA-(4+52),R9
 00B0E8 9200 904C      00014       61185                       CLEAR FMTPWFLG            Init flag byte
 00B0EC 1200/47B0 B00E             61192                       IF    (R0,M),BEGIN        If length parm negative,
 00B0F2 9680 904C      00014       61206  1                      SET   FMTFTRUN            Flag truncated data display
 00B0F6                            61212                       END
 00B0F6 1050                       61216                       LPR   R5,R0               Packet length
 00B0F8 1871                       61217                       LR    R7,R1               Packet address
 00B0FA 50F0 9038            00000 61218                       ST    R15,FMTPWSEG        SEGCB address
                                   61219                       SEGDEF L:FMTPWSEG
                                   61220
                                   61221                         Format Ethernet header.
                                   61222
 USING  ENETHDR,R7                 61223                       WITH  (ENETHDR,R7)
 00B0FE 4110 B9A2/4100_      0BA8A 61236                       SEG   'ENET: Dest='       Write out Ethernet dest addr
 00B110 5810 7000/4100_      00000 61251                       SEGHX L:ENETDST,8
 00B122 4810 7004/4100_      00004 61273                       SEGHX LH:ENETDST+4,4
 00B134 4110 B970/4100_      0BA58 61294                       SEG   '  Src='            Write out Ethernet source addr
 00B146 BF1F 7006/4100_      00006 61309                       SEGHX L4:ENETSRC,8
 00B158 4810 700A/4100_      0000A 61331                       SEGHX LH:ENETSRC+4,4
 00B16A 4110 B9AD/4100_      0BA95 61352                       SEG   '  Type='           Write out packet type
 00B17C D501 B976 700C_0BA5E 0000C 61367                       IF    (ENETTYPE,EQ,ENETIP#),'SETMSG "IP"'
 00B18E B0AA/47F0 B0BC_0B18E 0B184 61394                       ELSEIF (ENETTYPE,EQ,ENETARP#),'SETMSG "ARP"'
 00B1A4 B0C0/47F0 B0D2_0B1A4 0B19A 61430                       ELSEIF (ENETTYPE,EQ,=X'0200'),'SETMSG "PUP"'
 00B1BA B0D6/47F0 B0E8_0B1BA 0B1B0 61465                       ELSE  'BTX FMTPWORK,4,LH:ENETTYPE'
 00B1D0 58F0 9038/58E0_      00000 61503                       SEGB  (R1),(R0)
 00B1DA 4110 B9BA/4100_      0BAA2 61525                       SEG   ' Len='            Write out length
 00B1EC 1815/1B00/58F0_            61540                       SEGDC (R5)
 00B1FA 1B00/58F0 9038_            61559                       SEGWR ,                   Write line
 00B206 4820 700C            0000C 61581                       LH    R2,ENETTYPE         Get packet type
 00B20A 4B50 B97E            0BA66 61582                       SH    R5,=Y(L'ENETHDR)    Packet data length
1AMELIA   FMTPACK - Packet formatting routine                                                                               Page  249
0Current Usings:  (ENETHDR,R7) (COMMAND+4096,R8) (FMTPWA-(4+52),R9) (*,R11) (NIT,R12)
0Loc    Object Code    Addr1 Addr2  Stmt Lv Lineno    Source Statement           (Hibal 5, Asmedit 3.3)  HLASM R4.0  2004/03/15 13.11
+___    ______ ____    _____ _____  ____ __ ______    ______ _________
000B20E 4170 700E            0000E 61583                       LA    R7,ENETDATA         Point to packet data
                                   61584
                                   61585                         Format ARP packet.
                                   61586
 00B212 5920 B928/4770_      0BA10 61587                       IF    (R2,EQ,ENETARP#),BEGIN
 DROP   ENETHDR,R7                 61604  1                      WITH  (ARP,R7)
 USING  ARP,R7
 00B21A D501 B980 7006_0BA68 00006 61620  1                      IF    (ARPOP,EQ,ARPREQ#),'SETMSG "ARP:  Req"'
 00B22C B148/47F0 B15A_0B22C 0B222 61647  1                      ELSEIF (ARPOP,EQ,ARPREP#),'SETMSG "ARP:  Reply"'
 00B242 B15E/47F0 B170_0B242 0B238 61683  1                      ELSEIF (ARPOP,EQ,ARPRREQ#),'SETMSG "RARP: Req"'
 00B258 B174/47F0 B186_0B258 0B24E 61719  1                      ELSEIF (ARPOP,EQ,ARPRREP#),'SETMSG "RARP: Reply"'
 00B26E B18A/47F0 B192_0B26E 0B264 61755  1                      ELSE  'SETMSG "ARP: ??"'
 00B27A 58F0 9038/58E0_      00000 61775  1                      SEG   (R1),(R0)
 00B284 D501 B976 7002_0BA5E 00002 61796  1                      IF    (ARPPRO,NE,ENETIP#),BEGIN  If not IP ARP,
 00B28E 4110 B9EE/4100_      0BAD6 61814  2                        SEG   '  Prot='
 00B2A0 4810 7002/4100_      00002 61829  2                        SEGHX LH:ARPPRO,4
 00B2B2                            61850  1                      END
 00B2B2 4110 B900/4100_      0B9E8 61854  1                      SEGB  '  Source'
 00B2C4 4120 7008            00008 61870  1                      LA    R2,ARPSHA           Source hardware address
 00B2C8 1F33/4330 7004             61871  1                      LC    R3,ARPHLN           Length
 00B2CE 1A32                       61878  1                      AR    R3,R2               End address
 00B2D0 1923/47B0 B20A             61879  1                      WHILE (R2,LT,R3),BEGIN    Format hardware address
 00B2D6 1F11/4310 2000_            61896  2                        SEGHX IC:@R2,2
 00B2EA 5E20 B92C            0BA14 61923  2                        INCR  R2
 00B2EE 47F0 B1E8            0B2D0 61926  1                      END
 00B2F2 4110 C23C/4100_      0023C 61931  1                      SEG   NITBLANK,1
 00B304 1F33/4330 7005             61958  1                      LC    R3,ARPPLN           Protocol field length
 00B30A 18F3                       61965  1                      LR    R15,R3              Copy length
 00B30C 1A32                       61966  1                      AR    R3,R2               Get end address
 00B30E 06F0/44F0 BAAA_            61967  1                      DEX   R15,'OC @R2(0),@R2' Check if field present
 00B314 4780 B26E            0B356 61986  1                      IF    NZ,BEGIN            IF non-zero,
 00B318 D501 B976 7002_0BA5E 00002 61997  2                        IF    (ARPPRO,EQ,ENETIP#),BEGIN   If IP address,
 00B322 5810 2000/58F0_      00000 62015  3                          SEGIP @R2                         format
 00B330                            62030  2                        END
 00B330 B24C/47F0 B26E 0B330 0B320 62034  2                        ELSE  BEGIN                       Else not IP,
 00B334 1923/47B0 B26E             62045  3                          WHILE (R2,LT,R3),BEGIN             format in hex
 00B33A 1F11/4310 2000_            62062  4                            SEGHX IC:@R2,2
 00B34E 5E20 B92C            0BA14 62089  4                            INCR  R2
 00B352 47F0 B24C            0B334 62092  3                          END
 00B356                            62097  2                        END
 00B356                            62101  1                      END
 00B356 1823                       62105  1                      LR    R2,R3               Update pointer
 00B358 4110 B908/4100_      0B9F0 62106  1                      SEGB  '  Target'
 00B36A 4120 7012            00012 62122  1                      LA    R2,ARPTHA           Target hardware address
 00B36E 1F33/4330 7004             62123  1                      LC    R3,ARPHLN           Length
 00B374 18F3                       62130  1                      LR    R15,R3              Copy length
 00B376 1A32                       62131  1                      AR    R3,R2               End address
 00B378 06F0/44F0 BAB0_            62132  1                      DEX   R15,'OC @R2(0),@R2' Check address
 00B37E 4780 B2CE            0B3B6 62151  1                      IF    NZ,BEGIN            If non-zero,
 00B382 1923/47B0 B2BC             62162  2                        WHILE (R2,LT,R3),BEGIN    Format in hex
 00B388 1F11/4310 2000_            62179  3                          SEGHX IC:@R2,2
 00B39C 5E20 B92C            0BA14 62206  3                          INCR  R2
 00B3A0 47F0 B29A            0B382 62209  2                        END
 00B3A4 4110 C23C/4100_      0023C 62214  2                        SEG   NITBLANK,1
1AMELIA   FMTPACK - Packet formatting routine                                                                               Page  250
0Current Usings:  (ARP,R7) (COMMAND+4096,R8) (FMTPWA-(4+52),R9) (*,R11) (NIT,R12)
0Loc    Object Code    Addr1 Addr2  Stmt Lv Lineno    Source Statement           (Hibal 5, Asmedit 3.3)  HLASM R4.0  2004/03/15 13.11
+___    ______ ____    _____ _____  ____ __ ______    ______ _________
000B3B6                            62241  1                      END
 00B3B6 1823                       62245  1                      LR    R2,R3               Update pointer
 00B3B8 1F33/4330 7005             62246  1                      LC    R3,ARPPLN           Protocol field length
 00B3BE 18F3                       62253  1                      LR    R15,R3              Copy length
 00B3C0 1A32                       62254  1                      AR    R3,R2               Get end address
 00B3C2 06F0/44F0 BAB6_            62255  1                      DEX   R15,'OC @R2(0),@R2' Check if field present
 00B3C8 4780 B322            0B40A 62274  1                      IF    NZ,BEGIN            IF non-zero,
 00B3CC D501 B976 7002_0BA5E 00002 62285  2                        IF    (ARPPRO,EQ,ENETIP#),BEGIN   If IP address,
 00B3D6 5810 2000/58F0_      00000 62303  3                          SEGIP @R2                         format
 00B3E4                            62318  2                        END
 00B3E4 B300/47F0 B322 0B3E4 0B3D4 62322  2                        ELSE  BEGIN                       Else not IP,
 00B3E8 1923/47B0 B322             62333  3                          WHILE (R2,LT,R3),BEGIN             format in hex
 00B3EE 1F11/4310 2000_            62350  4                            SEGHX IC:@R2,2
 00B402 5E20 B92C            0BA14 62377  4                            INCR  R2
 00B406 47F0 B300            0B3E8 62380  3                          END
 00B40A                            62385  2                        END
 00B40A                            62389  1                      END
 00B40A 1B00/58F0 9038_            62393  1                      SEGWR ,
 DROP   ARP,R7                     62415                       END
 USING  ENETHDR,R7
                                   62431
                                   62432                         Format IP packet.
                                   62433
 00B416 B332/47F0 B8C4_0B416 0B218 62434                       ELSEIF (R2,EQ,ENETIP#),BEGIN
 DROP   ENETHDR,R7                 62460  1                      WITH  (IPHDR,R7)
 USING  IPHDR,R7
 00B422 4340 7000            00000 62476  1                      IC    R4,IPIHL            Get IP header length
 00B426 5440 B938            0BA20 62477  1                      N     R4,=A(15)           Isolate length
 00B42A 8940 0002            00002 62478  1                      SLL   R4,2                Header length in bytes
                                   62479  1
                                   62480  1         C            IF    (('CLM R5,3,IPLEN',L),OR, If IP length invalid,
                                          1         C                  ('CLM R4,3,IPLEN',H),OR, or hdr len gt IP len,
 00B42E BD53 7002/4740_      00002        1                            (R4,LT,L'IPHDR)),BEGIN    or hdr len invalid,
 00B446 4110 B9F5/4100_      0BADD 62519  2                        SEGWR 'Error, invalid IP header, whole packet follows:'
 00B458 9801 9004            00004 62535  2                        PRESTORE (R0,R1)                  Get calling parms
 00B45C 9600 C104/58F0_00104       62537  2                        HEXDUMP (R1),(R0)                 Hex dump whole packet
 00B46A 47F0 B8EE            0B9D6 62559  2                        B     FMTPACKX                    Return
 00B46E                            62560  1                      END
                                   62564  1
 00B46E 1F55/BF53 7002             62565  1                      L2    R5,IPLEN            Get IP length
 00B474 1B54                       62573  1                      SR    R5,R4               Get IP data length
 00B476 4110 BA24/4100_      0BB0C 62574  1                      SEG   'IP:   Dest='       Start line
 00B488 5810 7010/58F0_      00010 62589  1                      SEGIP IPDST               Write out dest IP address
 00B496 4110 B970/4100_      0BA58 62604  1                      SEG   '  Src='            Write out source IP address
 00B4A8 5810 700C/58F0_      0000C 62619  1                      SEGIP IPSRC               IP address
 00B4B6 4110 BA2F/4100_      0BB17 62634  1                      SEG   '  ID='             Write out ID
 00B4C8 1F11/BF13 7004_            62649  1                      SEGDC L2:IPID
 00B4DA 4820 7006            00006 62674  1                      LH    R2,IPFRAG           Fragment field
 00B4DE 5420 B944            0BA2C 62675  1                      N     R2,=A(X'3FFF')      Get flag+offset
 00B4E2 4780 B420            0B508 62676  1                      IF    NZ,BEGIN            If packet fragment,
 00B4E6 4110 BA34/4100_      0BB1C 62687  2                        SEG   '  Frag='           Write out fragment info
 00B4F8 1812/4100 0004_            62702  2                        SEGHX (R2),4
 00B508                            62724  1                      END
 00B508 4110 B9EE/4100_      0BAD6 62728  1                      SEG   '  Prot='           Write out protocol type
1AMELIA   FMTPACK - Packet formatting routine                                                                               Page  251
0Current Usings:  (IPHDR,R7) (COMMAND+4096,R8) (FMTPWA-(4+52),R9) (*,R11) (NIT,R12)
0Loc    Object Code    Addr1 Addr2  Stmt Lv Lineno    Source Statement           (Hibal 5, Asmedit 3.3)  HLASM R4.0  2004/03/15 13.11
+___    ______ ____    _____ _____  ____ __ ______    ______ _________
000B51A 9501 7009/4770_00009       62743  1                      IF    (IPTYPE,EQ,IPICMP#),'SEG "ICMP"'
 00B534 B450/47F0 B46A_0B534 0B520 62781  1                      ELSEIF (IPTYPE,EQ,IPTCP#),'SEG "TCP"'
 00B552 B46E/47F0 B488_0B552 0B53E 62828  1                      ELSEIF (IPTYPE,EQ,IPUDP#),'SEG "UDP"'
 00B570 B48C/47F0 B49E_0B570 0B55C 62875  1                      ELSE  'SEGDC LC:IPTYPE'
 00B586 4110 BA41/4100_      0BB29 62915  1                      SEG   '  Data='           Write out packet data length
 00B598 1815/1B00/58F0_            62930  1                      SEGDC (R5)
 00B5A6 1B00/58F0 9038_            62949  1                      SEGWR ,                   Write line
                                   62971  1
 00B5B2 4164 7000            00000 62972  1                      LA    R6,IPHDR(R4)        Point to IP packet data
 00B5B6 5420 B94C            0BA34 62973  1                      N     R2,=A(X'1FFF')      Get fragment offset
 00B5BA 4780 B500            0B5E8 62974  1                      IF    NZ,BEGIN            If not first fragment,
 00B5BE 9180 904C/47E0_00014       62985  2                        IF    FMTFTRUN,'CEIL R5,NITTCPTR'  Check truncation
 00B5D2 1816/1805/9600_            63011  2                        HEXDUMP (R6),(R5)         Just format data in hex
 00B5E4 47F0 B8EE            0B9D6 63035  2                        B     FMTPACKX            Return
 00B5E8                            63036  1                      END
                                   63040  1
 00B5E8 9501 7009/4770_00009       63041  1                      IF    (IPTYPE,EQ,IPICMP#),BEGIN  If ICMP packet,
 USING  ICMPHDR,R6                 63059  2                        WITH  (ICMPHDR,R6)
 00B5F0 4110 BA48/4100_      0BB30 63072  2                        SEG   'ICMP: Type='
 00B602 1F11/4310 6000_            63087  2                        SEGDC LC:ICMPTYPE
 00B614 4110 B988/4100_      0BA70 63111  2                        SEG   ' Code='
 00B626 1F11/4310 6001_            63126  2                        SEGDC LC:ICMPCODE
 00B638 9500 6000/4770_00000       63150  2                        IF    (ICMPTYPE,EQ,ICMPECR#),'SEGB " (Echo reply)"'
 00B652 9508 6000/4770_00000       63189  2                        IF    (ICMPTYPE,EQ,ICMPECM#),'SEGB " (Echo msg)"'
 00B66C 1B00/58F0 9038_            63228  2                        SEGWR ,
 00B678 4B50 B98E            0BA76 63250  2                        SH    R5,=Y(L'ICMPHDR)    Get ICMP data length
 00B67C 9180 904C/47E0_00014       63251  2                        IF    FMTFTRUN,'CEIL R5,NITTCPTR'  Check truncation
 00B690 4110 6004/1805_      00004 63277  2                        HEXDUMP ICMPHDR+L'ICMPHDR,(R5)  Format data
 DROP   ICMPHDR,R6                 63303  1                      END
                                   63312  1
 00B6A4 B5C0/47F0 B688_0B6A4 0B5EE 63313  1                      ELSEIF (IPTYPE,EQ,IPUDP#),BEGIN  If UDP packet,
 USING  UDPHDR,R6                  63340  2                        WITH  (UDPHDR,R6)
 00B6B0 4110 BA6B/4100_      0BB53 63353  2                        SEG   'UDP:  Dest='
 00B6C2 1F11/BF13 6002_            63368  2                        SEGDC L2:UDPDST
 00B6D4 4110 B970/4100_      0BA58 63393  2                        SEG   '  Src='
 00B6E6 1F11/BF13 6000_            63408  2                        SEGDC L2:UDPSRC
 00B6F8 4110 BA41/4100_      0BB29 63433  2                        SEG   '  Data='
 00B70A 4820 6004            00004 63448  2                        LH    R2,UDPLEN           Get UDP length
 00B70E 4B20 B990            0BA78 63449  2                        SH    R2,=Y(L'UDPHDR)     Get UDP data length
 00B712 1812/1B00/58F0_            63450  2                        SEGDC (R2)
 00B720 D601 6006 6006_00006 00006 63469  2                        IF    (UDPCHK,Z),'SEG "  (no checksum)"'
 00B73C 1B00/58F0 9038_            63505  2                        SEGWR ,
 00B748 9180 904C/47E0_00014       63527  2                        IF    FMTFTRUN,'CEIL R2,NITTCPTR'  Check truncation
 00B75C 4110 6008/1802_      00008 63553  2                        HEXDUMP UDPHDR+L'UDPHDR,(R2)   Format data
 DROP   UDPHDR,R6                  63579  1                      END
                                   63588  1
 00B770 B68C/47F0 B89A_0B770 0B6AE 63589  1                      ELSEIF (IPTYPE,EQ,IPTCP#),BEGIN  If TCP packet,
 USING  TCPHDR,R6                  63616  2                        WITH  (TCPHDR,R6)
 00B77C 4110 BA85/4100_      0BB6D 63629  2                        SEG   'TCP:  Dest='
 00B78E 1F11/BF13 6002_            63644  2                        SEGDC L2:TCPDST
 00B7A0 4110 B970/4100_      0BA58 63669  2                        SEG   '  Src='
 00B7B2 1F11/BF13 6000_            63684  2                        SEGDC L2:TCPSRC
 00B7C4 4110 B992/4100_      0BA7A 63709  2                        SEG   '  '
 00B7D6 9120 600D/47E0_0000D       63724  2                        IF    TCPFLURG,'SEGB "URG "'
1AMELIA   FMTPACK - Packet formatting routine                                                                               Page  252
0Current Usings:  (TCPHDR,R6) (IPHDR,R7) (COMMAND+4096,R8) (FMTPWA-(4+52),R9) (*,R11) (NIT,R12)
0Loc    Object Code    Addr1 Addr2  Stmt Lv Lineno    Source Statement           (Hibal 5, Asmedit 3.3)  HLASM R4.0  2004/03/15 13.11
+___    ______ ____    _____ _____  ____ __ ______    ______ _________
000B7F0 9108 600D/47E0_0000D       63760  2                        IF    TCPFLPSH,'SEGB "PSH "'
 00B80A 9104 600D/47E0_0000D       63796  2                        IF    TCPFLRST,'SEGB "RST "'
 00B824 9102 600D/47E0_0000D       63832  2                        IF    TCPFLSYN,'SEGB "SYN "'
 00B83E 9101 600D/47E0_0000D       63868  2                        IF    TCPFLFIN,'SEGB "FIN "'
 00B858 4110 B964/4100_      0BA4C 63904  2                        SEG   'Seq='
 00B86A 5810 6004/4100_      00004 63919  2                        SEGHX L:TCPSEQ,8
 00B87C 9110 600D/47E0_0000D       63941  2                        IF    TCPFLACK,BEGIN
 00B884 4110 B994/4100_      0BA7C 63956  3                          SEG   '  Ack='
 00B896 5810 6008/4100_      00008 63971  3                          SEGHX L:TCPACK,8
 00B8A8                            63993  2                        END
 00B8A8 4110 B99A/4100_      0BA82 63997  2                        SEG   '  Win='
 00B8BA 1F11/BF13 600E_            64012  2                        SEGDC L2:TCPWIND
 00B8CC 4110 BA41/4100_      0BB29 64037  2                        SEG   '  Data='
 00B8DE 4320 600C            0000C 64052  2                        IC    R2,TCPOFFS          Get data offset
 00B8E2 5420 B968            0BA50 64053  2                        N     R2,=A(X'F0')        Isolate offset word count
 00B8E6 8820 0002            00002 64054  2                        SRL   R2,2                Get data offset in bytes
 00B8EA 1B52                       64055  2                        SR    R5,R2               Compute TCP data length
 00B8EC 1815/1B00/58F0_            64056  2                        SEGDC (R5)
 00B8FA 1B00/58F0 9038_            64075  2                        SEGWR ,
 00B906 4B20 B9A0            0BA88 64097  2                        SH    R2,=Y(L'TCPHDR)     Get option byte count
 00B90A 5920 B96C/4750_      0BA54 64098  2                        IF    (R2,GE,4),BEGIN     If possible MSS option,
 00B912 4140 6014            00014 64115  3                          LA    R4,TCPHDR+L'TCPHDR  Point to option bytes
 00B916 9502 4000/4770_00000       64116  3                          IF    ((@R4,EQ,2),AND,(@R4+1,EQ,4)),BEGIN  If MSS option,
 00B926 4110 BA90/4100_      0BB78 64149  4                            SEG   'TCP:  Max Segment Size = '
 00B938 1F11/BF13 4002_            64164  4                            SEGDC L2:@R4+2
 00B94A 1B00/58F0 9038_            64189  4                            SEGWR ,
 00B956                            64211  3                          END
 00B956                            64215  2                        END
                                   64219  2
 00B956 4166 0014            00014 64220  2                        LA    R6,L'TCPHDR(R6)     Point past fixed TCP header
 00B95A 1A62                       64221  2                        AR    R6,R2               Move pointer past option bytes
                                   64222  2
 00B95C 9180 904C/47E0_00014       64223  2                        IF    FMTFTRUN,'CEIL R5,NITTCPTR'  Check truncation
 00B970 1816/1805/9600_            64249  2                        HEXDUMP (R6),(R5)         Format data
 DROP   TCPHDR,R6                  64273  1                      END
                                   64282  1
 00B982 B89E/47F0 B8C4 0B982 0B77A 64283  1                      ELSE  BEGIN               Else other IP packet type,
 00B986 9180 904C/47E0_00014       64294  2                        IF    FMTFTRUN,'CEIL R5,NITTCPTR'  Check truncation
 00B99A 1816/1805/9600_            64320  2                        HEXDUMP (R6),(R5)
 00B9AC                            64344  1                      END
 DROP   IPHDR,R7                   64348                       END
 USING  ENETHDR,R7
                                   64364              *
                                   64365              * Format other packet type
                                   64366              *
 00B9AC B8C8/47F0 B8EE 0B9AC 0B420 64367                       ELSE  BEGIN               If formatting data,
 00B9B0 9180 904C/47E0_00014       64378  1                      IF    FMTFTRUN,'CEIL R5,NITTCPTR'  Check truncation
 00B9C4 1817/1805/9600_            64404  1                      HEXDUMP (R7),(R5)         Show hex
 00B9D6                            64428                       END
                                   64432
 00B9D6 18D9/980C D004_            64433              FMTPACKX PEND
 DROP   ENETHDR,R7
 DROP   FMTPWA-(4+52),R9
 DROP   *,R11
1AMELIA   FMTPACK - Packet formatting routine                                                                               Page  253
0Current Usings:  (COMMAND+4096,R8) (NIT,R12)
0Loc    Object Code    Addr1 Addr2  Stmt Lv Lineno    Source Statement           (Hibal 5, Asmedit 3.3)  HLASM R4.0  2004/03/15 13.11
+___    ______ ____    _____ _____  ____ __ ______    ______ _________
0                                  64464                       QLTORG ,
1AMELIA   FMTNSM - Format name server message                                                                               Page  254
0Current Usings:  (COMMAND+4096,R8) (NIT,R12)
0Loc    Object Code    Addr1 Addr2  Stmt Lv Lineno    Source Statement           (Hibal 5, Asmedit 3.3)  HLASM R4.0  2004/03/15 13.11
+___    ______ ____    _____ _____  ____ __ ______    ______ _________
0                                  64545
                                   64546                 FMTNSM - Format name server message
                                   64547
                                   64548                  On entry:
                                   64549                      R0  - Message length
                                   64550                      R1  - Message pointer
                                   64551                      R15 - SEGCB address
                                   64552

0000000                00000 0031C 64553              FMTNSMWA RECORD BEGIN
 000000                            64561  1           FMTNSWRR   DS    CL(L'NSRR)          RR format work area
 00021C                            64562  1           FMTNSTMP   DS    CL256
 00031C                0031C 0031C 64563                       END
-00BBA4 90EF C020/4DE0_      00020 64573              FMTNSM   PROC  FMTNSMWA
 USING  *,R11
 USING  FMTNSMWA-(4+52),R9
 00BBC8 187F                       64626                       LR    R7,R15              Save SEGCB address
                                   64627                       SEGDEF (R7)
 00BBCA 1861                       64628                       LR    R6,R1               NS message origin
 USING  NSMHDR,R6                  64629                       WITH  (NSMHDR,R6)
 00BBCC 1850                       64642                       LR    R5,R0               NS message length
 00BBCE 1A51                       64643                       AR    R5,R1               NS message end
                                   64644
                                   64645                         Header fields
                                   64646
 00BBD0 4110 BB1C/4100_      0C6E4 64647                       SEGWR 'Header fields:'
 00BBE0 4110 BBC4/4100_      0C78C 64663                       SEG   '  ID='
 00BBF0 1F11/BF13 6000_            64678                       SEGDC L2:NSMID
 00BC00 4110 BBC9/4100_      0C791 64703                       SEGB  '  Flags'
 00BC10 9104 6002/47E0_00002       64719                       IF    NSMAA,'SEGB "AA"'
 00BC28 9102 6002/47E0_00002       64755                       IF    NSMTC,'SEGB "TC"'
 00BC40 9101 6002/47E0_00002       64791                       IF    NSMRD,'SEGB "RD"'
 00BC58 9180 6003/47E0_00003       64827                       IF    NSMRA,'SEGB "RA"'
 00BC70 4110 BBD0/4100_      0C798 64863                       SEG   '  RC='
 00BC80 1F22/4320 6003             64878                       LC    R2,NSMRCODE
 00BC86 5420 BA88            0C650 64885                       N     R2,=A(15)
 00BC8A 1812/1B00/18F7_            64886                       SEGDC (R2)
 00BC96 5920 BA8C/4770_      0C654 64905                       IF    (R2,EQ,1),'SEG " (Invalid request)"'
 00BCAE 5920 BA90/4770_      0C658 64942                       IF    (R2,EQ,2),'SEG " (Server failure)"'
 00BCC6 5920 BA94/4770_      0C65C 64979                       IF    (R2,EQ,3),'SEG " (Unknown name)"'
 00BCDE 5920 BA98/4770_      0C660 65016                       IF    (R2,EQ,4),'SEG " (Unsupported request)"'
 00BCF6 5920 BA9C/4770_      0C664 65053                       IF    (R2,EQ,5),'SEG " (Request refused by server)"'
 00BD0E 1B00/18F7/58E0_            65090                       SEGWR ,
                                   65112
                                   65113                         Query section
                                   65114
 00BD18 4110 BB5A/4100_      0C722 65115                       SEGWR 'Query section:'
 00BD28 4140 600C            0000C 65131                       LA    R4,NSMQUERY         Init message pointer
 00BD2C 4830 6004            00004 65132                       LH    R3,NSMQDCNT         Query count
 00BD30 1233/47D0 B27E             65133                       WHILE (R3,P),BEGIN
 00BD36 1945/47A0 B372             65149  1                      IF    (R4,GE,R5),FMTNSERR  Validity check
1AMELIA   FMTNSM - Format name server message                                                                               Page  255
0Current Usings:  (NSMHDR,R6) (COMMAND+4096,R8) (FMTNSMWA-(4+52),R9) (*,R11) (NIT,R12)
0Loc    Object Code    Addr1 Addr2  Stmt Lv Lineno    Source Statement           (Hibal 5, Asmedit 3.3)  HLASM R4.0  2004/03/15 13.11
+___    ______ ____    _____ _____  ____ __ ______    ______ _________
000BD3C 4100 0003/18F7_      00003 65167  1                      SEGCOL 3
 00BD48 4110 BBF5/4100_      0C7BD 65185  1                      SEG   'Name='
 00BD58 4100 6000            00000 65200  1                      LA    R0,NSMHDR           NSM origin
 00BD5C 1814                       65201  1                      LR    R1,R4               Current NSM pointer
 00BD5E 41F0 9254            0021C 65202  1                      LA    R15,FMTNSTMP        Output area
 00BD62 58E0 BAC0/0DEE       0C688 65203  1                      ACALL NSGETNAM            Convert name
 00BD68 4770 B372            0BF3A 65207  1                      IF    NZ,FMTNSERR         Check for error
 00BD6C 1841                       65221  1                      LR    R4,R1               Update NSM pointer
 00BD6E 4110 9254/18F7_      0021C 65222  1                      SEGB  FMTNSTMP,(R0)       Output converted name
 00BD7A 4110 BB68/4100_      0C730 65247  1                      SEG   ' Type='
 00BD8A 48F0 4000            00000 65262  1                      LH    R15,@R4             Get query type
 00BD8E 59F0 BAC4/4770_      0C68C 65263  1                      IF    (R15,EQ,RR#A),'SEG "A"'
 00BDA6 B1E2/47F0 B1FA_0BDA6 0BD94 65300  1                      ELSEIF (R15,EQ,RR#MX),'SEG "MX"'
 00BDC2 B1FE/47F0 B216_0BDC2 0BDB0 65346  1                      ELSEIF (R15,EQ,RR#PTR),'SEG "PTR"'
 00BDDE B21A/47F0 B232_0BDDE 0BDCC 65392  1                      ELSEIF (R15,EQ,RR#ALL),'SEG "ANY"'
 00BDFA B236/47F0 B242_0BDFA 0BDE8 65438  1                      ELSE  'SEGDC (R15)'
 00BE0A 4820 4002            00002 65473  1                      LH    R2,@R4+2            Get query class
 00BE0E 5920 BAD4/4780_      0C69C 65474  1                      IF    (R2,NE,NSM#IN),BEGIN
 00BE16 4110 BA60/4100_      0C628 65491  2                        SEG   '  Class='
 00BE26 1812/1B00/18F7_            65506  2                        SEGDC (R2)
 00BE32                            65525  1                      END
 00BE32 1B00/18F7/58E0_            65529  1                      SEGWR ,
 00BE3C 4144 0004            00004 65551  1                      LA    R4,4(R4)            Point past end of query
 00BE40 0630                       65552  1                      DECR  R3                  Decr query counter
 00BE42 47F0 B168            0BD30 65554                       END
                                   65559
                                   65560                         Resource record sections
                                   65561
 00BE46 D601 6006 6006_00006 00006 65562                       IF    (NSMANCNT,NZ),BEGIN
 00BE50 4110 BC01/4100_      0C7C9 65578  1                      SEGWR 'Answer section:'
 00BE60 4830 6006            00006 65594  1                      LH    R3,NSMANCNT
 00BE64 1233/47D0 B2CE             65595  1                      WHILE (R3,P),BEGIN
 00BE6A 1945/47A0 B372             65611  2                        IF    (R4,GE,R5),FMTNSERR  Validity check
 00BE70 4100 6000            00000 65629  2                        LA    R0,NSMHDR           NS message header
 00BE74 1814                       65630  2                        LR    R1,R4               Current NS pointer
 00BE76 41F0 9038            00000 65631  2                        LA    R15,FMTNSWRR        Output area
 00BE7A 58E0 BAD8/0DEE       0C6A0 65632  2                        ACALL NSGETRR             Get resource record
 00BE80 4770 B372            0BF3A 65636  2                        IF    NZ,FMTNSERR         Check for error
 00BE84 1A40                       65650  2                        AR    R4,R0               Update NS pointer
 00BE86 1945/4720 B372             65651  2                        IF    (R4,GT,R5),FMTNSERR  Validity check
 00BE8C 45E0 B398            0BF60 65669  2                        BAL   R14,FMTNSRR         Go format RR
 00BE90 0630                       65670  2                        DECR  R3                  Decr RR count
 00BE92 47F0 B29C            0BE64 65672  1                      END
 00BE96                            65677                       END
                                   65681
 00BE96 D601 6008 6008_00008 00008 65682                       IF    (NSMNSCNT,NZ),BEGIN
 00BEA0 4110 BADC/4100_      0C6A4 65698  1                      SEGWR 'Name server section:'
 00BEB0 4830 6008            00008 65714  1                      LH    R3,NSMNSCNT
 00BEB4 1233/47D0 B31E             65715  1                      WHILE (R3,P),BEGIN
 00BEBA 1945/47A0 B372             65731  2                        IF    (R4,GE,R5),FMTNSERR  Validity check
 00BEC0 4100 6000            00000 65749  2                        LA    R0,NSMHDR           NS message header
 00BEC4 1814                       65750  2                        LR    R1,R4               Current NS pointer
 00BEC6 41F0 9038            00000 65751  2                        LA    R15,FMTNSWRR        Output area
 00BECA 58E0 BAD8/0DEE       0C6A0 65752  2                        ACALL NSGETRR             Get resource record
1AMELIA   FMTNSM - Format name server message                                                                               Page  256
0Current Usings:  (NSMHDR,R6) (COMMAND+4096,R8) (FMTNSMWA-(4+52),R9) (*,R11) (NIT,R12)
0Loc    Object Code    Addr1 Addr2  Stmt Lv Lineno    Source Statement           (Hibal 5, Asmedit 3.3)  HLASM R4.0  2004/03/15 13.11
+___    ______ ____    _____ _____  ____ __ ______    ______ _________
000BED0 4770 B372            0BF3A 65756  2                        IF    NZ,FMTNSERR         Check for error
 00BED4 1A40                       65770  2                        AR    R4,R0               Update NS pointer
 00BED6 1945/4720 B372             65771  2                        IF    (R4,GT,R5),FMTNSERR  Validity check
 00BEDC 45E0 B398            0BF60 65789  2                        BAL   R14,FMTNSRR         Go format RR
 00BEE0 0630                       65790  2                        DECR  R3                  Decr RR count
 00BEE2 47F0 B2EC            0BEB4 65792  1                      END
 00BEE6                            65797                       END
                                   65801
 00BEE6 D601 600A 600A_0000A 0000A 65802                       IF    (NSMARCNT,NZ),BEGIN
 00BEF0 4110 BC10/4100_      0C7D8 65818  1                      SEGWR 'Additional records:'
 00BF00 4830 600A            0000A 65834  1                      LH    R3,NSMARCNT
 00BF04 1233/47D0 B36E             65835  1                      WHILE (R3,P),BEGIN
 00BF0A 1945/47A0 B372             65851  2                        IF    (R4,GE,R5),FMTNSERR  Validity check
 00BF10 4100 6000            00000 65869  2                        LA    R0,NSMHDR           NS message header
 00BF14 1814                       65870  2                        LR    R1,R4               Current NS pointer
 00BF16 41F0 9038            00000 65871  2                        LA    R15,FMTNSWRR        Output area
 00BF1A 58E0 BAD8/0DEE       0C6A0 65872  2                        ACALL NSGETRR             Get resource record
 00BF20 4770 B372            0BF3A 65876  2                        IF    NZ,FMTNSERR         Check for error
 00BF24 1A40                       65890  2                        AR    R4,R0               Update NS pointer
 00BF26 1945/4720 B372             65891  2                        IF    (R4,GT,R5),FMTNSERR  Validity check
 00BF2C 45E0 B398            0BF60 65909  2                        BAL   R14,FMTNSRR         Go format RR
 00BF30 0630                       65910  2                        DECR  R3                  Decr RR count
 00BF32 47F0 B33C            0BF04 65912  1                      END
 00BF36                            65917                       END
                                   65921
 00BF36 47F0 B8BE            0C486 65922                       EXIT  FMTNSM              Return
-                                  65926
                                   65927                    Invalid NS record
                                   65928
 00BF3A 4110 BB70/4100_      0C738 65929              FMTNSERR SEGWR 'Invalid name server record'
 00BF4A 5809 0004            00004 65945                       PRESTORE (R0)
 00BF4E 1816/9600 C104_            65947                       HEXDUMP NSMHDR,(R0)
 00BF5C 47F0 B8BE            0C486 65972                       EXIT  FMTNSM              Return
-                                  65976
                                   65977                    Format resource record
                                   65978
 00BF60 90E5 D000/41D0_      00000 65979              FMTNSRR  XPUSH R14,R5
 00BF68 4150 9038            00000 65982                       LA    R5,FMTNSWRR         Ptr to reformatted RR
 USING  NSRR,R5                    65983                       WITH  (NSRR,R5)
 00BF6C 4100 0003/18F7_      00003 65996                       SEGCOL 3
 00BF78 9540 5000/4780_00000       66014                       IF    (NSRRNAME,NE,' '),'SEGWR NSRRNAME'
 00BF90 B3CC/47F0 B3DC_0BF90 0BF7E 66062                       ELSE  'SEGWR "[root domain]"'
 00BFA4 4100 0005/18F7_      00005 66094                       SEGCOL 5
 00BFB0 4110 BC30/4100_      0C7F8 66112                       SEG   'Type='
 00BFC0 D501 BB8A 5104_0C752 00104 66127                       IF    (NSRRTYPE,EQ,RR#A),'SEG "A  "'
 00BFDA B416/47F0 B430_0BFDA 0BFC8 66165                       ELSEIF (NSRRTYPE,EQ,RR#NS),'SEG "NS "'
 00BFF8 B434/47F0 B44E_0BFF8 0BFE6 66212                       ELSEIF (NSRRTYPE,EQ,RR#CNAME),'SEG "CNAME"'
 00C016 B452/47F0 B46C_0C016 0C004 66259                       ELSEIF (NSRRTYPE,EQ,RR#SOA),'SEG "SOA"'
 00C034 B470/47F0 B48A_0C034 0C022 66306                       ELSEIF (NSRRTYPE,EQ,RR#WKS),'SEG "WKS"'
 00C052 B48E/47F0 B4A8_0C052 0C040 66353                       ELSEIF (NSRRTYPE,EQ,RR#PTR),'SEG "PTR"'
1AMELIA   FMTNSM - Format name server message                                                                               Page  257
0Current Usings:  (NSRR,R5) (NSMHDR,R6) (COMMAND+4096,R8) (FMTNSMWA-(4+52),R9) (*,R11) (NIT,R12)
0Loc    Object Code    Addr1 Addr2  Stmt Lv Lineno    Source Statement           (Hibal 5, Asmedit 3.3)  HLASM R4.0  2004/03/15 13.11
+___    ______ ____    _____ _____  ____ __ ______    ______ _________
000C070 B4AC/47F0 B4C6_0C070 0C05E 66400                       ELSEIF (NSRRTYPE,EQ,RR#HINFO),'SEG "HINFO"'
 00C08E B4CA/47F0 B4E4_0C08E 0C07C 66447                       ELSEIF (NSRRTYPE,EQ,RR#MX),'SEG "MX "'
 00C0AC B4E8/47F0 B502_0C0AC 0C09A 66494                       ELSEIF (NSRRTYPE,EQ,RR#TXT),'SEG "TXT"'
 00C0CA B506/47F0 B514_0C0CA 0C0B8 66541                       ELSE   'SEGDC LH:NSRRTYPE'
                                   66575
 00C0DC D501 BB9C 5106_0C764 00106 66576                       IF    (NSRRCLAS,NE,NSM#IN),BEGIN
 00C0E6 4110 BC51/4100_      0C819 66594  1                      SEG   ' Class='
 00C0F6 4810 5106/1B00_      00106 66609  1                      SEGDC LH:NSRRCLAS
 00C104                            66627                       END
                                   66631
 00C104 4110 BC58/4100_      0C820 66632                       SEG   ' TTL='
 00C114 5810 5108/1B00_      00108 66647                       SEGDC L:NSRRTTL
                                   66666
 00C122 D501 BB98 5104_0C760 00104 66667                       IF    (NSRRTYPE,EQ,RR#MX),BEGIN   If MX record,
 00C12C 4110 BC5D/4100_      0C825 66685  1                      SEG   '  Pref='             Format
 00C13C 5810 5218/1B00_      00218 66700  1                      SEGDC L:NSRRMXPR                    preference value
 00C14A 4110 BC64/4100_      0C82C 66719  1                      SEG   '  Host='
 00C15A 4110 5118/5800_      00118 66734  1                      SEGWR NSRRDATA,L:NSRRDLEN
 00C16A                            66760                       END
                                   66764
 00C16A B5A6/47F0 B5D6_0C16A 0C12A 66765                       ELSEIF (NSRRTYPE,EQ,RR#A),BEGIN    If A record,
 00C178 4110 BC6B/4100_      0C833 66792  1                      SEG   '  Addr='
 00C188 5810 5114/18F7_      00114 66807  1                      SEGIP NSRRIP                      Format IP address
 00C194 1B00/18F7/58E0_            66822  1                      SEGWR ,
 00C19E                            66844                       END
                                   66848
                                   66849            C          ELSEIF ((NSRRTYPE,EQ,RR#NS),OR,
                                                    C                (NSRRTYPE,EQ,RR#CNAME),OR,
 00C19E B5DA/47F0 B618_0C19E 0C176                                   (NSRRTYPE,EQ,RR#PTR)),BEGIN
 00C1C0 4110 BC64/4100_      0C82C 66908  1                      SEG   '  Host='
 00C1D0 4110 5118/5800_      00118 66923  1                      SEGWR NSRRDATA,L:NSRRDLEN
 00C1E0                            66949                       END
                                   66953
 00C1E0 B61C/47F0 B746_0C1E0 0C1BE 66954                       ELSEIF (NSRRTYPE,EQ,RR#SOA),BEGIN
 00C1EE 4110 BC64/4100_      0C82C 66981  1                      SEG   '  Host='
 00C1FE 5820 5110            00110 66996  1                      L     R2,NSRRRDAD         Data pointer
 00C202 4100 6000            00000 66997  1                      LA    R0,NSMHDR           NS message origin
 00C206 1812                       66998  1                      LR    R1,R2               Data origin
 00C208 41F0 9254            0021C 66999  1                      LA    R15,FMTNSTMP        Output area
 00C20C 58E0 BAC0/0DEE       0C688 67000  1                      ACALL NSGETNAM            Get host name
 00C212 4770 B372            0BF3A 67004  1                      IF    NZ,FMTNSERR
 00C216 1821                       67018  1                      LR    R2,R1               Updated data pointer
 00C218 4110 9254/18F7_      0021C 67019  1                      SEGWR FMTNSTMP,(R0)       Write converted host name
 00C224 4100 000E/18F7_      0000E 67044  1                      SEGCOL 14
 00C230 4110 BA68/4100_      0C630 67062  1                      SEG   'Mailbox='
 00C240 4100 6000            00000 67077  1                      LA    R0,NSMHDR           NS message origin
 00C244 1812                       67078  1                      LR    R1,R2               Data pointer
 00C246 41F0 9254            0021C 67079  1                      LA    R15,FMTNSTMP        Output area
 00C24A 58E0 BAC0/0DEE       0C688 67080  1                      ACALL NSGETNAM            Get mailbox name
 00C250 4770 B372            0BF3A 67084  1                      IF    NZ,FMTNSERR
 00C254 1821                       67098  1                      LR    R2,R1               Update output pointer
 00C256 4110 9254/18F7_      0021C 67099  1                      SEGWR FMTNSTMP,(R0)
 00C262 4100 000E/18F7_      0000E 67124  1                      SEGCOL 14
 00C26E 4110 BC72/4100_      0C83A 67142  1                      SEG   'Serial='
1AMELIA   FMTNSM - Format name server message                                                                               Page  258
0Current Usings:  (NSRR,R5) (NSMHDR,R6) (COMMAND+4096,R8) (FMTNSMWA-(4+52),R9) (*,R11) (NIT,R12)
0Loc    Object Code    Addr1 Addr2  Stmt Lv Lineno    Source Statement           (Hibal 5, Asmedit 3.3)  HLASM R4.0  2004/03/15 13.11
+___    ______ ____    _____ _____  ____ __ ______    ______ _________
000C27E 5810 2000/1B00_      00000 67157  1                      SEGDC L:@R2
 00C28C 4110 BB9E/4100_      0C766 67176  1                      SEG   '  Refresh='
 00C29C 5810 2004/1B00_      00004 67191  1                      SEGDC L:@R2+4
 00C2AA 4110 BA70/4100_      0C638 67210  1                      SEG   '  Retry='
 00C2BA 5810 2008/1B00_      00008 67225  1                      SEGDC L:@R2+8
 00C2C8 4110 BC79/4100_      0C841 67244  1                      SEG   '  Expire='
 00C2D8 5810 200C/1B00_      0000C 67259  1                      SEGDC L:@R2+12
 00C2E6 4110 BBA8/4100_      0C770 67278  1                      SEG   '  Min='
 00C2F6 5810 2010/1B00_      00010 67293  1                      SEGDC L:@R2+16
 00C304 1B00/18F7/58E0_            67312  1                      SEGWR ,
 00C30E                            67334                       END
                                   67338
 00C30E B74A/47F0 B7BC_0C30E 0C1EC 67339                       ELSEIF (NSRRTYPE,EQ,RR#HINFO),BEGIN
 00C31C 5820 5110            00110 67366  1                      L     R2,NSRRRDAD         Data start
 00C320 1F33/4330 2000             67367  1                      LC    R3,@R2              CPU string length
 00C326 4430 BCA8/00/D_      0C870 67374  1                      EX    R3,'MVC FMTNSTMP(0),@R2+1'
 00C32A 58F0 BAF8            0C6C0 67390  1                      L     R15,=A(ASCI2EBC)
 00C32E 4430 BCAE/DC00_      0C876 67391  1                      EX    R3,'TR FMTNSTMP(0),@R15'
 00C332 4110 BBAE/4100_      0C776 67407  1                      SEG   '  CPU='
 00C342 4110 9254/1803_      0021C 67422  1                      SEG   FMTNSTMP,(R3)
 00C350 4122 3001            00001 67447  1                      LA    R2,1(R2,R3)         Step past CPU string
 00C354 1F33/4330 2000             67448  1                      LC    R3,@R2              OS string length
 00C35A 4430 BCB4/D200_      0C87C 67455  1                      EX    R3,'MVC FMTNSTMP(0),@R2+1'
 00C35E 58F0 BAF8            0C6C0 67471  1                      L     R15,=A(ASCI2EBC)
 00C362 4430 BCBA/DC00_      0C882 67472  1                      EX    R3,'TR FMTNSTMP(0),@R15'
 00C366 4110 BC82/4100_      0C84A 67488  1                      SEG   '  OS='
 00C376 4110 9254/1803_      0021C 67503  1                      SEGWR FMTNSTMP,(R3)
 00C384                            67529                       END
                                   67533
 00C384 B7C0/47F0 B88C_0C384 0C31A 67534                       ELSEIF (NSRRTYPE,EQ,RR#WKS),BEGIN
 00C392 5820 5110            00110 67561  1                      L     R2,NSRRRDAD         Data pointer
 00C396 5830 510C            0010C 67562  1                      L     R3,NSRRRDLN         Data length
 00C39A 4110 BC6B/4100_      0C833 67563  1                      SEG   '  Addr='
 00C3AA 5810 2000/18F7_      00000 67578  1                      SEGIP L:@R2
 00C3B6 4110 BC87/4100_      0C84F 67593  1                      SEG   '  Prot='
 00C3C6 1FFF/43F0 2004             67608  1                      LC    R15,@R2+4
 00C3CC 59F0 BAFC/4770_      0C6C4 67615  1                      IF    (R15,EQ,IPUDP#),'SEG "UDP"'
 00C3E4 B820/47F0 B838_0C3E4 0C3D2 67652  1                      ELSEIF (R15,EQ,IPTCP#),'SEG "TCP"'
 00C400 B83C/47F0 B848_0C400 0C3EE 67698  1                      ELSE  'SEGDC (R15)'
 00C410 4110 BC94/4100_      0C85C 67733  1                      SEG   '  Bitmap='
 00C420 4122 0005            00005 67748  1                      LA    R2,5(R2)
 00C424 4B30 BBB4            0C77C 67749  1                      SH    R3,=Y(5)
 00C428 1233/47D0 B882             67750  1                      WHILE (R3,P),BEGIN
 00C42E 1F11/4310 2000_            67766  2                        SEGHX IC:@R2,2
 00C440 5E20 BA8C            0C654 67793  2                        INCR  R2
 00C444 0630                       67796  2                        DECR  R3
 00C446 47F0 B860            0C428 67798  1                      END
 00C44A 1B00/18F7/58E0_            67803  1                      SEGWR ,
 00C454                            67825                       END
                                   67829
 00C454 B890/47F0 B8B4 0C454 0C390 67830                       ELSE  BEGIN
 00C458 4110 BC9D/4100_      0C865 67841  1                      SEGWR '  Data='
 00C468 5810 5110/5800_      00110 67857  1                      HEXDUMP L:NSRRRDAD,L:NSRRRDLN
 00C47C                            67881                       END
1AMELIA   FMTNSM - Format name server message                                                                               Page  259
0Current Usings:  (NSRR,R5) (NSMHDR,R6) (COMMAND+4096,R8) (FMTNSMWA-(4+52),R9) (*,R11) (NIT,R12)
0Loc    Object Code    Addr1 Addr2  Stmt Lv Lineno    Source Statement           (Hibal 5, Asmedit 3.3)  HLASM R4.0  2004/03/15 13.11
+___    ______ ____    _____ _____  ____ __ ______    ______ _________
0                                  67885
 00C47C 4BD0 BBB6/98E5_      0C77E 67886                       XPOP  R14,R5              Return
 00C484 07FE                       67889                       BR    R14
                                   67890
 00C486 18D9/980C D004_            67891                       PEND
 DROP   NSRR,R5
 DROP   NSMHDR,R6
 DROP   FMTNSMWA-(4+52),R9
 DROP   *,R11
1AMELIA   FMTHNT - Format host name table entry                                                                             Page  260
0Current Usings:  (COMMAND+4096,R8) (NIT,R12)
0Loc    Object Code    Addr1 Addr2  Stmt Lv Lineno    Source Statement           (Hibal 5, Asmedit 3.3)  HLASM R4.0  2004/03/15 13.11
+___    ______ ____    _____ _____  ____ __ ______    ______ _________
0                                  67927
                                   67928
                                   67929                 FMTHNT -- Format host name table entry
                                   67930
                                   67931                   On entry:
                                   67932                      R1  - HNT entry address
                                   67933                      R15 - SEGCB address
                                   67934

000C494 90EF C020/4DE0_      00020 67935              FMTHNT   PROC
 USING  *,R11
 00C4B8 187F                       67977                       LR    R7,R15              Copy SEGCB address
                                   67978                       SEGDEF (R7)
 00C4BA 1861                       67979                       LR    R6,R1               Copy HNT address
 USING  HNT,R6                     67980                       WITH  (HNT,R6)
 00C4BC 4110 6011/1F00_      00011 67993                       SEGB  HNTNAME,LC:HNTNAMLN  Write host name
 00C4CE 4100 0020/18F7_      00020 68022                       SEGCOL 32
 00C4DA 9501 600D/4780_0000D       68040                       IF    ((HNTTYPE,EQ,RR#A),OR,(HNTTYPE,EQ,RR#PTR)),BEGIN
 00C4EA 5810 6008/18F7_      00008 68075  1                      SEGIP L:HNTIPADD
 00C4F6 950C 600D/4770_0000D       68090  1                      IF    (HNTTYPE,EQ,RR#PTR),'SEG " (PTR)"'
 00C50E                            68128                       END
 00C50E B05A/47F0 B08E_0C50E 0C4E8 68132                       ELSEIF (HNTTYPE,EQ,RR#CNAME),BEGIN
 00C51A 4110 B2CE/4100_      0C786 68159  1                      SEG   'CNAME='
 00C52A 1F22/4320 6010             68174  1                      LC    R2,HNTNAMLN         Name length
 00C530 4132 6011            00011 68181  1                      LA    R3,HNTNAME(R2)      Point past name
 00C534 4110 3001/1F00_      00001 68182  1                      SEG   @R3+1,LC:@R3        Write CNAME
 00C546                            68210                       END
 00C546 B092/47F0 B0E6_0C546 0C518 68214                       ELSEIF (HNTTYPE,EQ,RR#MX),BEGIN
 00C552 4110 B3B4/4100_      0C86C 68241  1                      SEG   'MX='
 00C562 1F22/4320 6010             68256  1                      LC    R2,HNTNAMLN         Name length
 00C568 4132 6011            00011 68263  1                      LA    R3,HNTNAME(R2)      Point past name
 00C56C 4110 3001/1F00_      00001 68264  1                      SEG   @R3+1,LC:@R3        Write MX name
 00C57E 4110 B36D/4100_      0C825 68292  1                      SEG   '  Pref='           Write MX preference value
 00C58E 1F11/BF13 600E_            68307  1                      SEGDC L2:HNTMXPRF
 00C59E                            68332                       END
 00C59E D503 B218 6004_0C6D0 00004 68336                       IF    (HNTEXPTM,NE,=F'-1'),BEGIN
 00C5A8 4100 002E/18F7_      0002E 68353  1                      SEGCOL 46
 00C5B4 4110 B368/4100_      0C820 68371  1                      SEG   ' TTL='
 00C5C4 58F0 6004            00004 68386  1                      L     R15,HNTEXPTM
 00C5C8 5FF0 C344            00344 68387  1                      SL    R15,NITCLOCK
 00C5CC 12FF/47B0 B11C_            68388  1                      IF    (R15,M),'CLEAR R15'
 00C5D4 181D/41D0 D020             68411  1                      XPUSH ,,32,PTR=R1
 00C5DA 1B00/58E0 B21C_            68414  1                      BTD   (R1),0,(R15)
 00C5E2 18F7/58E0 B18C_            68430  1                      SEG   (R1),(R0)
 00C5EA                            68451                       END
                                   68455
                                   68456            C          IF    (HNTFMAIL,AND,      If mail host
 00C5EA 9180 600C/47E0_0000C                                         (HNTTYPE,NE,RR#MX)),BEGIN  and not A entry,
 00C5FA 4110 B220/4100_      0C6D8 68488  1                      SEG   ' (mail host)'      Add text
 00C60A                            68503                       END
                                   68507
 00C60A 1B00/18F7/58E0_            68508                       SEGWR ,
 00C614 18D9/980C D004_            68530                       PEND
1AMELIA   FMTHNT - Format host name table entry                                                                             Page  261
0Current Usings:  (COMMAND+4096,R8) (NIT,R12)
0Loc    Object Code    Addr1 Addr2  Stmt Lv Lineno    Source Statement           (Hibal 5, Asmedit 3.3)  HLASM R4.0  2004/03/15 13.11
+___    ______ ____    _____ _____  ____ __ ______    ______ _________
0DROP   HNT,R6
 DROP   *,R11
                                   68555
                                   68556                       QLTORG ,
1AMELIA   HEXSEG - Seg data in hex format                                                                                   Page  262
0Current Usings:  (COMMAND+4096,R8) (NIT,R12)
0Loc    Object Code    Addr1 Addr2  Stmt Lv Lineno    Source Statement           (Hibal 5, Asmedit 3.3)  HLASM R4.0  2004/03/15 13.11
+___    ______ ____    _____ _____  ____ __ ______    ______ _________
0                                  68664
                                   68665
                                   68666                HEXSEG -- Routine to seg data in hex format.
                                   68667
                                   68668                  On entry:
                                   68669                    R1,R0 - data loc, len
                                   68670                    R15 - SEGCB ptr
                                   68671

0000000                00000 00008 68672              HXSWA    RECORD BEGIN
 000000                            68680  1           HXSWORK    DS    D                   Work area
 000008                00008 00008 68681                       END
-00C888 90EF C020/4DE0_      00020 68691              HEXSEG   XPROC HXSWA
 USING  *,R11
 USING  HXSWA-(4+52),R9
 00C8AC 1830                       68746                       LR    R3,R0
 00C8AE 1841                       68747                       LR    R4,R1
 00C8B0 185F                       68748                       LR    R5,R15              Save SEGCB ptr
                                   68749                       SEGDEF (R5)
                                   68750
 00C8B2 1233/47D0 B046             68751                       WHILE (R3,POS),BEGIN      Keep stepping through the data...
 00C8B8 58F0 4000/4100_      00000 68767  1                      BTX   HXSWORK,8,L:@R4     Convert a word to hex
                                   68790  1
 00C8CA 1803                       68791  1                      LR    R0,R3
 00C8CC 5900 B350/47D0_      0CBFC 68792  1                      CEIL  R0,4
 00C8D8 1A00                       68811  1                      AR    R0,R0               Get correct length for digits
                                   68812  1
 00C8DA 4110 9038/18F5_      00000 68813  1                      SEG   HXSWORK,(R0)        Seg what we have
 00C8E6 4140 4004            00004 68837  1                      LA    R4,@R4+4            Next word
 00C8EA 4B30 B37C            0CC28 68838  1                      SH    R3,=H'4'
 00C8EE 47F0 B006            0C8B2 68839                       END
                                   68844
 00C8F2 18D9/980C D004_            68845              HEXFEXIT PEND
 DROP   HXSWA-(4+52),R9
 DROP   *,R11
