1AMELIA   HEXDUMP - Write formatted data display                                                                            Page  263
0Current Usings:  (COMMAND+4096,R8) (NIT,R12)
0Loc    Object Code    Addr1 Addr2  Stmt Lv Lineno    Source Statement           (Hibal 5, Asmedit 3.3)  HLASM R4.0  2004/03/15 13.11
+___    ______ ____    _____ _____  ____ __ ______    ______ _________
0                                  68872
                                   68873
                                   68874                 HEXDUMP -- Write formatted hex dump
                                   68875
                                   68876                   On entry:
                                   68877                     R0  - length of area
                                   68878                     R1  - address of area
                                   68879                     R15 - SEGCB address
                                   68880
                                   68881                     NITHXDFL flags specify formatting options
                                   68882

0000000                00000 0005A 68883              HXDWA    RECORD BEGIN
 000000                            68891  1           HXDSEGCB   DS    A                   SEGCB address
 000004                            68892  1           HXDTRT     DS    A                   Translate table address
                                   68893  1
 000008                            68894  1           HXDFLAGS   DS    X                   Copy of NITHXDFL
                                   68895  1
 000009                            68896  1           HXDUNPK    DS    XL2                 Working UNPK area
                                   68897  1
 00000B                            68898  1           HXDADDR    DS    CL8                 Address
 000013                            68899  1                      DS    CL2
 000015                            68900  1           HXDHEXDM   DS    0CL(8*4+3)          Hex bytes (EBCDIC dump format)
 000015                            68901  1           HXDHEX     DS    CL(16*3+1)          Hex bytes (ASCII char  format)
 000046                            68902  1                      DS    CL2
 000048                            68903  1                      DS    C                   '|'
 000049                            68904  1                      DS    CL16                Char display
 000059                            68905  1                      DS    C                   '|'
                                   68906  1           HXDLINE    EQU   HXDADDR,*-HXDADDR,C'C'
 00005A                0005A 0005A 68907                       END
-00C900 90EF C020/4DE0_      00020 68917              HEXDUMP  PROC HXDWA
 USING  *,R11
 USING  HXDWA-(4+52),R9
 00C924 1851                       68970                       LR    R5,R1               Save start address
 00C926 1861                       68971                       LR    R6,R1               Init data pointer
 00C928 1870                       68972                       LR    R7,R0               Init data counter
 00C92A 50F0 9038            00000 68973                       ST    R15,HXDSEGCB        Save SEGCB address
                                   68974                       SEGDEF L:HXDSEGCB
                                   68975
 00C92E D200 9040 C104 00008 00104 68976                       MVC   HXDFLAGS,NITHXDFL   Save copy of flags
 00C934 9200 C104      00104       68977                       CLEAR NITHXDFL            Reset flags
                                   68984
 00C938 D203 903C B2E0 00004 0CC04 68985                       MVC   HXDTRT,=A(ASCIIFMT)
 00C93E 9180 9040/47E0_00008       68986                       IF    HXDFLAGS.HXDFLEBC,'MVC HXDTRT,=A(SEGTRTBL)'
 00C94C 1277/47D0 B142             69007                       WHILE (R7,P),BEGIN        Loop on data count
 00C952 9240 9043      0000B       69023  1                      MVI   HXDLINE,C' '        Init print line buffer
 00C956 D24D 9044 9043 0000C 0000B 69024  1                      MVC   HXDLINE+1(L'HXDLINE-1),HXDLINE
 00C95C 18F6                       69025  1                      LR    R15,R6              Data address
 00C95E 9140 9040/47E0_00008       69026  1                      IF    HXDFLAGS.HXDFLADD,BEGIN   If address format,
 00C966 4100 0008/4110_      00008 69041  2                        BTX   HXDADDR,8,(R15)     Format address
 00C974                            69063  1                      END
1AMELIA   HEXDUMP - Write formatted data display                                                                            Page  264
0Current Usings:  (COMMAND+4096,R8) (HXDWA-(4+52),R9) (*,R11) (NIT,R12)
0Loc    Object Code    Addr1 Addr2  Stmt Lv Lineno    Source Statement           (Hibal 5, Asmedit 3.3)  HLASM R4.0  2004/03/15 13.11
+___    ______ ____    _____ _____  ____ __ ______    ______ _________
000C974 B054/47F0 B068 0C974 0C964 69067  1                      ELSE  BEGIN               Else display offset
 00C978 1BF5                       69078  2                        SR    R15,R5              Get data offset
 00C97A 924E 9046      0000E       69079  2                        MVI   HXDADDR+3,C'+'      Offset form
 00C97E 4100 0004/4110_      00004 69080  2                        BTX   HXDADDR+4,4,(R15)   Format offset
 00C98C                            69102  1                      END
 00C98C 4120 904D            00015 69106  1                      LA    R2,HXDHEX           Init hex display pointer
 00C990 9180 C104/47E0_00104       69107  1                      IF    HXDFLEBC,BEGIN      If EBCDIC dump format,
 00C998 4132 0025            00025 69122  2                        LA    R3,L'HXDHEXDM+2(R2)  Init char display pointer
 00C99C                            69123  1                      END
 00C99C B07C/47F0 B080 0C99C 0C996 69127  1                      ELSE  BEGIN               Else ASCII data format,
 00C9A0 4132 0033            00033 69138  2                        LA    R3,L'HXDHEX+2(R2)
 00C9A4                            69139  1                      END
 00C9A4 924F 3000      00000       69143  1                      MVI   @R3,C'|'
 00C9A8 924F 3011      00011       69144  1                      MVI   @R3+17,C'|'
 00C9AC 5E30 B2E8            0CC0C 69145  1                      INCR  R3
 00C9B0 4140 0001            00001 69148  1                      LA    R4,1                Loop counter for this line
 00C9B4 5940 B2EC/4730_      0CC10 69149  1                      WHILE ((R4,LE,16),AND,(R7,P)),BEGIN
 00C9C2 B100 6000            00000 69181  2                        LRA   R0,@R6              Check address
 00C9C6 4740 B0AA/47E0_      0C9CE 69182  2                        IF    (M,OR,O),BEGIN
 00C9CE 4110 B308/4100_      0CC2C 69203  3                          SEGWR 'Invalid address'
 00C9E0 47F0 B142            0CA66 69219  3                          EXIT  HEXDUMP
 00C9E4                            69222  2                        END
 00C9E4 D200 9041 6000 00009 00000 69226  2                        MVC   HXDUNPK(1),@R6      Copy data byte
 00C9EA F321 2000 9041 00000 00009 69227  2                        UNPK  @R2(3),HXDUNPK(2)   Format data byte (and junk byte)
 00C9F0 D401 2000 B306 00000 0CC2A 69228  2                        NC    @R2(2),=X'0F0F'
 00C9F6 DC01 2000 B2C4 00000 0CBE8 69229  2                        TR    @R2(2),=C'0123456789ABCDEF'
 00C9FC 9240 2002      00002       69230  2                        MVI   @R2+2,C' '
 00CA00 D200 3000 6000 00000 00000 69231  2                        MVC   @R3(1),@R6          Move to char display
 00CA06 58F0 903C            00004 69232  2                        L     R15,HXDTRT          Translate table address
 00CA0A DC00 3000 F000 00000 00000 69233  2                        TR    @R3(1),@R15         Translate to text char
 00CA10 4122 0002            00002 69234  2                        LA    R2,2(R2)            Incr hex pointer
 00CA14 9180 9040/4710_00008       69235  2                        IF    ~HXDFLAGS.HXDFLEBC,BEGIN  If ASCII format,
 00CA1C 5E20 B2E8            0CC0C 69250  3                          INCR  R2                  Extra space
 00CA20 5940 B2F4/4770_      0CC18 69253  3                          IF    (R4,EQ,8),'INCR R2'  Extra space after 8th byte
 00CA2C                            69278  2                        END
 00CA2C B10C/47F0 B11A 0CA2C 0CA1A 69282  2                        ELSE  BEGIN
 00CA30 1804                       69293  3                          LR    R0,R4
 00CA32 5400 B2F8            0CC1C 69294  3                          N     R0,=A(3)
 00CA36 4770 B11A/5E20_      0CA3E 69295  3                          IF    Z,'INCR R2'         Space after every 4th byte
 00CA3E                            69314  2                        END
 00CA3E 5E30 B2E8            0CC0C 69318  2                        INCR  R3                  Incr char pointer
 00CA42 5E60 B2E8            0CC0C 69321  2                        INCR  R6                  Incr data pointer
 00CA46 0670                       69324  2                        DECR  R7                  Decr data counter
 00CA48 5E40 B2E8            0CC0C 69326  2                        INCR  R4                  Incr line loop counter
 00CA4C 47F0 B090            0C9B4 69329  1                      END
 00CA50 4110 9043/4100_      0000B 69334  1                      SEGWR HXDLINE             Write line
 00CA62 47F0 B028            0C94C 69360                       END
 00CA66 18D9/980C D004_            69365                       PEND
 DROP   HXDWA-(4+52),R9
 DROP   *,R11
1AMELIA   HEXDUMP - Write formatted data display                                                                            Page  265
0Current Usings:  (COMMAND+4096,R8) (NIT,R12)
0Loc    Object Code    Addr1 Addr2  Stmt Lv Lineno    Source Statement           (Hibal 5, Asmedit 3.3)  HLASM R4.0  2004/03/15 13.11
+___    ______ ____    _____ _____  ____ __ ______    ______ _________
0                                  69391
                                   69392                         ASCII translate table.
                                   69393
 00CA74 4B4B4B4B4B4B4B4B           69394              ASCIIFMT DC    32C'.'                 00-1F
 00CA94 405A7F7B5B6C507D           69395                       DC    C' !"#$%&&''()*+,-./'  20-2F
 00CAA4 F0F1F2F3F4F5F6F7           69396                       DC    C'0123456789:;<=>?'    30-3F
 00CAB4 7CC1C2C3C4C5C6C7           69397                       DC    C'@ABCDEFGHIJKLMNO'    40-4F
 00CAC4 D7D8D9E2E3E4E5E6           69398                       DC    C'PQRSTUVWXYZ[\]^_'    50-5F
 00CAD4 4B81828384858687           69399                       DC    C'.abcdefghijklmno'    60-6F
 00CAE4 979899A2A3A4A5A6           69400                       DC    C'pqrstuvwxyz{|}~.'    70-7F
 00CAF4 4B4B4B4B4B4B4B4B           69401                       DC    127C'.',C'#'           80-FF
1AMELIA   FMTIP -- Format IP address                                                                                        Page  266
0Current Usings:  (COMMAND+4096,R8) (NIT,R12)
0Loc    Object Code    Addr1 Addr2  Stmt Lv Lineno    Source Statement           (Hibal 5, Asmedit 3.3)  HLASM R4.0  2004/03/15 13.11
+___    ______ ____    _____ _____  ____ __ ______    ______ _________
0                                  69403
                                   69404
                                   69405                 FMTIP -- Format IP address
                                   69406
                                   69407                   On entry:
                                   69408                     R1  - IP address
                                   69409                     R15 - Work area
                                   69410

000CB74 90EF C020/4DE0_      00020 69411              FMTIP    PROC
 USING  *,R11
 00CB98 1831                       69453                       LR    R3,R1               Copy IP address
 00CB9A 187F                       69454                       LR    R7,R15              Save work area address
 00CB9C 181F                       69455                       LR    R1,R15              Output area pointer
 00CB9E 4140 0004            00004 69456                       LA    R4,4                Loop counter
 00CBA2 1244/47D0 B038             69457                       WHILE (R4,P),BEGIN
 00CBA8 8D20 0008            00008 69473  1                      SLDL  R2,8                Move left byte of address to R2
 00CBAC 5420 B088            0CC20 69474  1                      N     R2,=A(X'FF')        Isolate byte
 00CBB0 18F2/1B00/58E0_            69475  1                      BTD   (R1),0,(R2)         Convert to decimal
 00CBBA 1A10                       69492  1                      AR    R1,R0               Update output area pointer
 00CBBC 0640                       69493  1                      DECR  R4
 00CBBE 1244/4780 B034             69495  1                      IF    (R4,NZ),BEGIN       If not end of address,
 00CBC4 924B 1000      00000       69509  2                        MVI   @R1,C'.'            Add '.'
 00CBC8 5E10 B074            0CC0C 69510  2                        INCR  R1                  Incr pointer
 00CBCC                            69513  1                      END
 00CBCC 47F0 B00A            0CBA2 69517                       END
 00CBD0 1801                       69522                       LR    R0,R1               Get end address
 00CBD2 1B07                       69523                       SR    R0,R7               Text length
 00CBD4 1817                       69524                       LR    R1,R7               Text address
 00CBD6 9001 9004            00004 69525                       PRETURN (R0,R1)
 00CBDA 18D9/980C D004_            69527                       PEND
 DROP   *,R11
                                   69547
                                   69548                       QLTORG
1AMELIA   CHECKSUM - compute checksum                                                                                       Page  267
0Current Usings:  (COMMAND+4096,R8) (NIT,R12)
0Loc    Object Code    Addr1 Addr2  Stmt Lv Lineno    Source Statement           (Hibal 5, Asmedit 3.3)  HLASM R4.0  2004/03/15 13.11
+___    ______ ____    _____ _____  ____ __ ______    ______ _________
0                                  69577
                                   69578
                                   69579                      CHECKSUM - compute checksum for area of memory
                                   69580
                                   69581                      On entry:  R0  = length of area
                                   69582                                 R1  = address of area
                                   69583                                 R15 = base value for new checksum
                                   69584
                                   69585                                 (If R0 is negative on entry, this is a
                                   69586                                 partial checksum (FINAL=NO in the call),
                                   69587                                 and the final complementing is not done.
                                   69588
                                   69589                      On exit:   R15 = checksum
                                   69590

000CC3C 90EF C020/4DE0_      00020 69591              CHECKSUM PROC
 USING  *,R11
 00CC60 1870                       69633                       LR    R7,R0               Save initial length parm
 00CC62 1000                       69634                       LPR   R0,R0               Insure positive length
                                   69635
                                   69636                         Main loop - use 32-bit addition
                                   69637
 00CC64 4120 0004            00004 69638                       LA    R2,4                Constant of 4
 00CC68 1902/4750 B022             69639                       WHILE (R0,GE,R2),BEGIN    While 4 or more bytes left,
 00CC6E 5EF0 1000            00000 69656  1                      AL    R15,@R1             Add next 4 bytes to sum
 00CC72 47C0 B01A/5EF0_      0CC7A 69657  1                      IF    CARRY,'INCR R15'    Check for carry
 00CC7A 1A12                       69676  1                      AR    R1,R2               Incr pointer by 4
 00CC7C 1B02                       69677  1                      SR    R0,R2               Decr remaining length by 4
 00CC7E 47F0 B008            0CC68 69678                       END
                                   69683
                                   69684                         Process residual bytes.
                                   69685
 00CC82 1B22                       69686                       CLEAR R2
 00CC84 5900 BCB4/4770_      0D914 69690                       IF    (R0,EQ,3),'ICM R2,8+4+2,@R1'
 00CC90 B034/47F0 B040_0CC90 0CC8A 69713                       ELSEIF (R0,EQ,2),'ICM R2,8+4,@R1'
 00CCA0 B044/47F0 B050_0CCA0 0CC9A 69745                       ELSEIF (R0,EQ,1),'ICM R2,8,@R1'
 00CCB0 1EF2                       69777                       ALR   R15,R2
 00CCB2 47C0 B05A/5EF0_      0CCBA 69778                       IF    CARRY,'INCR R15'
                                   69797
                                   69798                         Compute final 16-bit sum.
                                   69799
 00CCBA 18EF                       69800                       LR    R14,R15             Copy sum
 00CCBC 88E0 0010            00010 69801                       SRL   R14,16              Get high order 16 bit sum
 00CCC0 54F0 BCBC            0D91C 69802                       N     R15,=A(X'FFFF')     Isolate low order 16 bit sum
 00CCC4 1EFE                       69803                       ALR   R15,R14             Add high and low order sums
 00CCC6 59F0 BCBC/47D0_      0D91C 69804                       IF    (R15,GT,=A(X'FFFF')),BEGIN  If carry out of 16 bits,
 00CCCE 54F0 BCBC            0D91C 69820  1                      N     R15,=A(X'FFFF')             Clear carry
 00CCD2 5EF0 BCB0            0D910 69821  1                      INCR  R15                         Adjust sum
 00CCD6                            69824                       END
                                   69828
                                   69829            C          IF    ((R7,P),AND,         If final checksum,
 00CCD6 1277/47D0 B088_                                              (R15,NE,=A(X'FFFF'))),BEGIN  and result not 'FFFF'
 00CCE4 57F0 BCBC            0D91C 69858  1                      X     R15,=A(X'FFFF')     Get 1's complement
1AMELIA   CHECKSUM - compute checksum                                                                                       Page  268
0Current Usings:  (COMMAND+4096,R8) (*,R11) (NIT,R12)
0Loc    Object Code    Addr1 Addr2  Stmt Lv Lineno    Source Statement           (Hibal 5, Asmedit 3.3)  HLASM R4.0  2004/03/15 13.11
+___    ______ ____    _____ _____  ____ __ ______    ______ _________
000CCE8                            69859                       END
 00CCE8 18D9/980C D004_            69863                       PEND
 DROP   *,R11
1AMELIA   CHKUDP - Compute UDP packet checksum                                                                              Page  269
0Current Usings:  (COMMAND+4096,R8) (NIT,R12)
0Loc    Object Code    Addr1 Addr2  Stmt Lv Lineno    Source Statement           (Hibal 5, Asmedit 3.3)  HLASM R4.0  2004/03/15 13.11
+___    ______ ____    _____ _____  ____ __ ______    ______ _________
0                                  69884
                                   69885
                                   69886                 CHKUDP -- Compute UDP packet checksum
                                   69887
                                   69888                   On entry:
                                   69889                     R0,R1 - UDP packet address and length
                                   69890                     R15   - IP header address
                                   69891

000CCF6 90EF C020/4DE0_      00020 69892              CHKUDP   PROC
 USING  *,R11
 00CD1A 1860                       69934                       LR    R6,R0               Save packet length
 00CD1C 1871                       69935                       LR    R7,R1               Save packet address
 USING  UDPHDR,R7                  69936                       WITH  (UDPHDR,R7)         ## UDPHDR
 USING  IPHDR,R15                  69949                       WITH  (IPHDR,R15)         ## IPHDR
 00CD1E D701 7006 7006 00006 00006 69962                       CLEAR UDPCHK              Clear checksum
 00CD24 181D/41D0 D00C             69969                       XPUSH ,,12,PTR=R1         Space for pseudo-header
 00CD2A D203 1000 C034 00000 00034 69972                       MVC   @R1(4),NITIP        Our IP address
 00CD30 D203 1004 F010 00004 00010 69973                       MVC   @R1+4(4),IPDST      IP dest address
 00CD36 D201 1008 BCD6 00008 0D9F0 69974                       MVC   @R1+8(2),=Y(IPUDP#)  Protocol type
 00CD3C 4060 100A            0000A 69975                       STH   R6,@R1+10           Packet length
 00CD40 4100 000C/1100_      0000C 69976                       CHECKSUM (R1),12,FINAL=NO Checksum pseudo-header
 00CD4E 1817/1806/58E0_            69998                       CHECKSUM (R7),(R6),(R15)  Checksum packet data
 00CD58 40F0 7006            00006 70018                       STH   R15,UDPCHK          Set checksum in UDP header
 00CD5C 18D9/980C D004_            70019                       PEND
 DROP   IPHDR,R15
 DROP   UDPHDR,R7
 DROP   *,R11
1AMELIA   PATHALLO - allocate new user path                                                                                 Page  270
0Current Usings:  (COMMAND+4096,R8) (NIT,R12)
0Loc    Object Code    Addr1 Addr2  Stmt Lv Lineno    Source Statement           (Hibal 5, Asmedit 3.3)  HLASM R4.0  2004/03/15 13.11
+___    ______ ____    _____ _____  ____ __ ______    ______ _________
0                                  70050
                                   70051
                                   70052                 PATHALLO -- Routine to allocate a new user path.
                                   70053

000CD6A 90EF C020/4DE0_      00020 70054              PATHALLO PROC
 USING  *,R11
                                   70096
                                   70097                         Get core for PATH control block and initialize with model
                                   70098                           path.
                                   70099
 00CD8E 4100 01A0            001A0 70100                       LA    R0,L'UPATH
 00CD92 58E0 BB96/0DEE       0D924 70101                       ACALL GETCORE             Get memory for PATH
                                   70105
 00CD98 1851                       70106                       LR    R5,R1
 USING  UPATH,R5                   70107                       WITH  (UPATH,R5),BEGIN
 00CD9A 18E5/41F0 01A0_            70121  1                      MOVEL UPATH,L:=A(MPATH),L'UPATH  Move in model path block
 00CDA8 4100 0001/5E00_      00001 70143  1                      INCR  R0,NITPCNTR                Incr path ID counter
 00CDB4 5000 5008            00008 70149  1                      ST    R0,UPATIDNO                Set path ID number
                                   70150  1
 00CDB8 D207 5064 C054 00064 00054 70151  1                      MVC   UPATMY,NITPATH      MYTAG
                                   70152  1
 00CDBE 41F0 C1E8            001E8 70153  1                      LA    R15,NITPECB
 00CDC2 50F0 5084            00084 70154  1                      ST    R15,UPATECB         Save ECB ptr
 00CDC6 41F0 500C            0000C 70155  1                      LA    R15,UPATSPST
 00CDCA 50F0 507C            0007C 70156  1                      ST    R15,UPATECBF        Save Suzan path flag ptr
 DROP   UPATH,R5                   70157                       END
                                   70165
 00CDCE D603 C11C C11C_0011C 0011C 70166                       IF    (NITPATQH,Z),BEGIN  First entry...
 00CDD8 5050 C11C            0011C 70182  1                      ST    R5,NITPATQH         Set queue head...
 00CDDC 5050 C120            00120 70183  1                      ST    R5,NITPATQT         ... and queue tail
 00CDE0                            70184                       END
 00CDE0 B056/47F0 B062 0CDE0 0CDD6 70188                       ELSE  BEGIN               Add to end of queue...
 00CDE4 58F0 C120            00120 70199  1                      L     R15,NITPATQT        Previous last UPATH
 00CDE8 5050 F004            00004 70200  1                      WITH  (UPATH,R15),'ST R5,UPATLINK'  Link last to us
 USING  UPATH,R15
 DROP   UPATH,R15
 00CDEC 5050 C120            00120 70224  1                      ST    R5,NITPATQT         We are the last now
 00CDF0                            70225                       END
                                   70229
 00CDF0 1815                       70230                       LR    R1,R5               Path ptr
 00CDF2 5019 0008            00008 70231                       PRETURN (R1)
 00CDF6 1BFF                       70233                       CLEAR R15                 A-ok
 00CDF8 18D9/980C D004_            70237                       PEND
 DROP   *,R11
1AMELIA   PATHOPEN - open path                                                                                              Page  271
0Current Usings:  (COMMAND+4096,R8) (NIT,R12)
0Loc    Object Code    Addr1 Addr2  Stmt Lv Lineno    Source Statement           (Hibal 5, Asmedit 3.3)  HLASM R4.0  2004/03/15 13.11
+___    ______ ____    _____ _____  ____ __ ______    ______ _________
0                                  70258
                                   70259
                                   70260                 PATHOPEN -- Routine to open a path.
                                   70261
                                   70262                   On entry:
                                   70263                     R1 - UPATH ptr
                                   70264
                                   70265                   On exit, R15 (and cc):
                                   70266                     0 - opened
                                   70267                     nz- error of some sort
                                   70268
                                   70269

0000000                00000 00004 70270              POPNWA   RECORD BEGIN
 000000                            70278  1           POPNWORD   DS    F                   Work word
 000004                00004 00004 70279                       END
                                   70288
 00CE06 90EF C020/4DE0_      00020 70289              PATHOPEN PROC  POPNWA
 USING  *,R11
 USING  POPNWA-(4+52),R9
 00CE2A 1851                       70342                       LR    R5,R1
 USING  UPATH,R5                   70343                       WITH  (UPATH,R5)
 00CE2C D503 BB02 5000_0D92C 00000 70356                       IF    (UPATH,NE,'PATH'),'FAIL "Bad UPATH address"'
                                   70382
                                   70383                         Open the path.
                                   70384
 00CE40 4110 505C            0005C 70385                       LA    R1,UPAT             Suzan path control block
 00CE44 5010 9038            00000 70386                       ST    R1,POPNWORD         Build parm (path addr)
 00CE48 9680 9038      00000       70387                       SET   POPNWORD.X'80'      Flag end of parm list
 00CE4C 1B00/1BFF/4110_            70394                       SCOM  OPEN,LA:POPNWORD    Open the path
                                   70409              *  (Returns with R15 return code set by the Suzan SVC.)
 00CE56 18D9/980C D004_            70410                       PEND
 DROP   UPATH,R5
 DROP   POPNWA-(4+52),R9
 DROP   *,R11
1AMELIA   PATHDO - process path request                                                                                     Page  272
0Current Usings:  (COMMAND+4096,R8) (NIT,R12)
0Loc    Object Code    Addr1 Addr2  Stmt Lv Lineno    Source Statement           (Hibal 5, Asmedit 3.3)  HLASM R4.0  2004/03/15 13.11
+___    ______ ____    _____ _____  ____ __ ______    ______ _________
0                                  70441
                                   70442
                                   70443                 PATHDO -- Routine to process path requests.
                                   70444
                                   70445                   On entry:
                                   70446                     R1 - UPATH ptr
                                   70447

-00CE64 90EF C020/4DE0_      00020 70449              PATHDO   PROC
 USING  *,R11
 00CE88 1851                       70491                       LR    R5,R1
 USING  UPATH,R5                   70492                       WITH  (UPATH,R5)
 00CE8A D503 BAA4 5000_0D92C 00000 70505                       IF    (UPATH,NE,'PATH'),'FAIL "Bad UPATH address"'
 00CE9E 5050 C124            00124 70531                       ST    R5,NITPCUR          Set current path
                                   70532
                                   70533                         Copy and clear path post flag byte
                                   70534
 00CEA2                            70535                       LOOP  BEGIN
 00CEA2 5800 500C            0000C 70541  1                      L     R0,UPATSPST         Post flags
 00CEA6 1810                       70542  1                      LR    R1,R0
 00CEA8 BF18 C33C            0033C 70543  1                      ICM   R1,8,NITZERO
 00CEAC BA01 500C            0000C 70544  1                      CS    R0,R1,UPATSPST
 00CEB0 4780 B030            0CEB8 70545  1                      IF    EQ,EXIT
 00CEB4 47F0 B01A            0CEA2 70559                       END
 00CEB8 BE08 500D            0000D 70564                       STCM  R0,8,UPATSFLG       Save copy of flags
                                   70565
                                   70566                         If partner has just opened other side of the path,
                                   70567                           then open a new "spare" path and get partner info.
                                   70568
 00CEBC 9108 500D/47E0_0000D       70569                       IF    UPATSFLG.UPATFOPN,BEGIN  If path is opened...
 00CEC4 9180 500E/47E0_0000E       70585  1                      IF    UPATFO,'FAIL "Path logic error"'
 00CED6 4110 5000            00000 70609  1                      LA    R1,UPATH
 00CEDA 58E0 BAA8/0DEE       0D930 70610  1                      ACALL PATHINFO            Get information about partner
 00CEE0 9680 500E      0000E       70614  1                      SET   UPATFO              Our path is open now
 00CEE4 58E0 BAAC/0DEE       0D934 70620  1                      ACALL PATHALLO            Allocate a new path
 00CEEA 58E0 BAB0/0DEE       0D938 70624  1                      ACALL PATHOPEN            Open our half
 00CEF0                            70628                       END
 00CEF0 9180 500E/4710_0000E       70632                       IF    ~UPATFO,'FAIL "Path logic error"'
                                   70656
                                   70657                         Process any new data from the path.
                                   70658
 00CF02                            70659                       LOOP  BEGIN
 00CF02 4110 5000            00000 70665  1                      LA    R1,UPATH
 00CF06 58E0 BAB4/0DEE       0D93C 70666  1                      ACALL PATHREAD            Get any new info
 00CF0C 4770 B092            0CF1A 70670  1                      IF    NZ,EXIT             No new info, scram
 00CF10 58E0 BAB8/0DEE       0D940 70684  1                      ACALL PATHMSG             Go process message
 00CF16 47F0 B07A            0CF02 70688                       END
1AMELIA   PATHDO - process path request                                                                                     Page  273
0Current Usings:  (UPATH,R5) (COMMAND+4096,R8) (*,R11) (NIT,R12)
0Loc    Object Code    Addr1 Addr2  Stmt Lv Lineno    Source Statement           (Hibal 5, Asmedit 3.3)  HLASM R4.0  2004/03/15 13.11
+___    ______ ____    _____ _____  ____ __ ______    ______ _________
0                                  70693
                                   70694                         Check for full-queue-emptied post
                                   70695
 00CF1A 9140 500D/47E0_0000D       70696                       IF    UPATSFLG.UPATFFQE,BEGIN
 00CF22 4110 5000            00000 70712  1                      LA    R1,UPATH
 00CF26 58E0 BABC/0DEE       0D944 70713  1                      ACALL TCPFULLQ            Send any queued TCP messages
 00CF2C                            70717                       END
                                   70721
                                   70722                         Process path partner closed
                                   70723
 00CF2C 9180 500D/47E0_0000D       70724                       IF    UPATSFLG.UPATFCLS,BEGIN
 00CF34 4110 5000            00000 70740  1                      LA    R1,UPATH
 00CF38 58E0 BAC0/0DEE       0D948 70741  1                      ACALL TCPPCLOS            Close any TCP connections
 00CF3E 58E0 BAC4/0DEE       0D94C 70745  1                      ACALL PATHCLS             Close our side of path
 00CF44                            70749                       END
                                   70753
 00CF44 D703 C124 C124 00124 00124 70754                       CLEAR NITPCUR
 00CF4A 18D9/980C D004_            70761                       PEND
 DROP   UPATH,R5
 DROP   *,R11
1AMELIA   PATHMSG - process message from path                                                                               Page  274
0Current Usings:  (COMMAND+4096,R8) (NIT,R12)
0Loc    Object Code    Addr1 Addr2  Stmt Lv Lineno    Source Statement           (Hibal 5, Asmedit 3.3)  HLASM R4.0  2004/03/15 13.11
+___    ______ ____    _____ _____  ____ __ ______    ______ _________
0                                  70787
                                   70788
                                   70789                 PATHMSG -- Process message from path
                                   70790
                                   70791                   On entry:
                                   70792                     R0,R1 - Message length and addr
                                   70793

0000000                00000 00014 70794              PMSGWA   RECORD BEGIN
 000000                            70802  1           PMSGIPA    DS    F                   Working IP address
 000004                            70803  1           PMSGHDR    DS    CL16                Path message header
 000014                00014 00014 70804                       END
                                   70813
 00CF58 90EF C020/4DE0_      00020 70814              PATHMSG  PROC  PMSGWA
 USING  *,R11
 USING  PMSGWA-(4+52),R9
 00CF7C D713 9038 9038 00000 00000 70867                       CLEAR PMSGWA
 00CF82 5850 C124            00124 70874                       L     R5,NITPCUR          Current path block
 USING  UPATH,R5                   70875                       WITH  (UPATH,R5)
 00CF86 D503 B9B0 5000_0D92C 00000 70888                       IF    (UPATH,NE,'PATH'),'FAIL "Bad UPATH address"'
 00CF9A 1841                       70914                       LR    R4,R1
 00CF9C 1830                       70915                       LR    R3,R0
 00CF9E 18F0                       70916                       LR    R15,R0
 00CFA0 59F0 B9D4/47D0_      0D950 70917                       CEIL  R15,L'PMSGHDR
 00CFAC 06F0/12FF/4740_            70936                       DTEX  R15,'MVC PMSGHDR(0),@R1'  Copy path message header
                                   70973
                                   70974                         Process TCP request.
                                   70975
 00CFB8 D503 B9D8 903C_0D954 00004 70976                       IF    (PMSGHDR,EQ,'TCP_'),BEGIN
 00CFC2 58E0 B9DC/0DEE       0D958 70993  1                      ACALL TCPPATH
 00CFC8                            70997                       END
                                   71001
                                   71002                         Process command.
                                   71003
 00CFC8 B050/47F0 B06C_0CFC8 0CFC0 71004                       ELSEIF (PMSGHDR,EQ,'COMMAND:'),BEGIN
 00CFD6 4111 0008            00008 71030  1                      LA    R1,8(R1)            Set up address
 00CFDA 4B00 BA76            0D9F2 71031  1                      SH    R0,=Y(8)              and length
 00CFDE 41F0 C1EC            001EC 71032  1                      LA    R15,NITPSG          SEGCB address
 00CFE2 58E0 B9E0/0DEE       0D95C 71033  1                      ACALL COMMAND             Process command
 00CFE8                            71037                       END
                                   71041
                                   71042                         Write a packet.
                                   71043
 00CFE8 B070/47F0 B08C_0CFE8 0CFD4 71044                       ELSEIF (PMSGHDR,EQ,'WRITE_PACKET:'),BEGIN
 00CFF6 4110 1010            00010 71070  1                      LA    R1,@R1+16           Skip over verb code
 00CFFA 4B00 BA78            0D9F4 71071  1                      SH    R0,=H'16'
 00CFFE 41F0 C7BC/58E0_      007BC 71072  1                      SEGWR (R1),(R0),NITOSG    Ethernet packet
 00D008                            71096                       END
1AMELIA   PATHMSG - process message from path                                                                               Page  275
0Current Usings:  (UPATH,R5) (COMMAND+4096,R8) (PMSGWA-(4+52),R9) (*,R11) (NIT,R12)
0Loc    Object Code    Addr1 Addr2  Stmt Lv Lineno    Source Statement           (Hibal 5, Asmedit 3.3)  HLASM R4.0  2004/03/15 13.11
+___    ______ ____    _____ _____  ____ __ ______    ______ _________
0                                  71100
                                   71101                         Set read packet filter.
                                   71102
 00D008 B090/47F0 B0AA_0D008 0CFF4 71103                       ELSEIF (PMSGHDR,EQ,'SET_READ_FILTER:'),BEGIN
 00D016 D23F 5094 4010 00094 00010 71129  1                      MVC   UPATXAND,@R4+16     Save AND mask
 00D01C D23F 50D4 4050 000D4 00050 71130  1                      MVC   UPATXCMP,@R4+16+L'UPATXAND  Save compare mask
 00D022 94BF 500E      0000E       71131  1                      CLEAR UPATFIP             Reset IP mode
 00D026                            71138                       END
                                   71142
                                   71143                         Write an internet packet.
                                   71144
 00D026 B0AE/47F0 B0C6_0D026 0D014 71145                       ELSEIF (PMSGHDR,EQ,'WRITE_IP:'),BEGIN
 00D034 4110 1010            00010 71171  1                      LA    R1,@R1+16           Skip over verb code
 00D038 4B00 BA78            0D9F4 71172  1                      SH    R0,=H'16'
 00D03C 58E0 B9E8/0DEE       0D964 71173  1                      ACALL PATHIP              Send IP packet
 00D042                            71177                       END
                                   71181
                                   71182                         Set IP read packet filter.
                                   71183
 00D042 B0CA/47F0 B0FC_0D042 0D032 71184                       ELSEIF (PMSGHDR,EQ,'SET_IP_FILTER:'),BEGIN
                                   71210  1
                                   71211  1                        Set AND/COMPARE masks by filtering on IP packets (only).
                                   71212  1
 00D050 D20B 5094 B9EC 00094 0D968 71213  1                      MVC   UPATXAND(12),=XL12'00'
 00D056 D201 50A0 BA88 000A0 0DA04 71214  1                      MVC   UPATXAND+12(2),=X'FFFF'
 00D05C D231 50A2 4010 000A2 00010 71215  1                      MVC   UPATXAND+14(L'UPATXAND-14),@R4+16  User's AND mask
                                   71216  1
 00D062 D20B 50D4 B9EC 000D4 0D968 71217  1                      MVC   UPATXCMP(12),=XL12'00'  Any ether dest/source
 00D068 D201 50E0 BA8A 000E0 0DA06 71218  1                      MVC   UPATXCMP+12(2),=AL2(ENETIP#)  Only IP packets
 00D06E D231 50E2 4050 000E2 00050 71219  1                      MVC   UPATXCMP+14(L'UPATXCMP-14),@R4+16+L'UPATXAND
                                   71220  1
                                   71221  1                        Also set "IP mode" so we return packets starting with the
                                   71222  1                          IP header and not the ethernet header.
                                   71223  1
 00D074 9640 500E      0000E       71224  1                      SET   UPATFIP             IP mode
 00D078                            71230                       END
                                   71234
                                   71235                         Get IP/UDP port number.
                                   71236
 00D078 B100/47F0 B14C_0D078 0D04E 71237                       ELSEIF (PMSGHDR,EQ,'GET_PORT:'),BEGIN
 00D086 4110 5000            00000 71263  1                      LA    R1,UPATH
 00D08A 58E0 B9F8/0DEE       0D974 71264  1                      ACALL GETPORT             Get unused port number
 00D090 182F                       71268  1                      LR    R2,R15
 00D092 41F0 C1EC/58E0_      001EC 71269  1                      SEGCLR NITPSG
 00D09C 4110 B944/4100_      0D8C0 71282  1                      SEG   LA:=CL16'GET_PORT:',16
 00D0AE 1812/1B00/41F0_            71309  1                      SEGDC (R2)                Port number to use
 00D0BC 1B00/41F0 C1EC_            71330  1                      SEGWR
 00D0C8                            71354                       END
                                   71358
                                   71359                         Unrecognized command; send it back across path.
                                   71360
 00D0C8 B150/47F0 B198 0D0C8 0D084 71361                       ELSE  BEGIN
 00D0CC 41F0 C1EC/58E0_      001EC 71372  1                      SEGCLR NITPSG
 00D0D6 4110 B954/4100_      0D8D0 71385  1                      SEG   LA:=CL16'ERROR_PREV_REQ:',16
1AMELIA   PATHMSG - process message from path                                                                               Page  276
0Current Usings:  (UPATH,R5) (COMMAND+4096,R8) (PMSGWA-(4+52),R9) (*,R11) (NIT,R12)
0Loc    Object Code    Addr1 Addr2  Stmt Lv Lineno    Source Statement           (Hibal 5, Asmedit 3.3)  HLASM R4.0  2004/03/15 13.11
+___    ______ ____    _____ _____  ____ __ ______    ______ _________
000D0E8 4110 B964/4100_      0D8E0 71412  1                      SEG   LA:=CL16'UNKNOWN MESSAGE',16
 00D0FA 1814/1803/41F0_            71439  1                      SEG   (R4),(R3)
 00D108 1B00/41F0 C1EC_            71464  1                      SEGWR
 00D114                            71488                       END
 00D114 18D9/980C D004_            71492                       PEND
 DROP   UPATH,R5
 DROP   PMSGWA-(4+52),R9
 DROP   *,R11
1AMELIA   PATHIP  - Send IP packet from path                                                                                Page  277
0Current Usings:  (COMMAND+4096,R8) (NIT,R12)
0Loc    Object Code    Addr1 Addr2  Stmt Lv Lineno    Source Statement           (Hibal 5, Asmedit 3.3)  HLASM R4.0  2004/03/15 13.11
+___    ______ ____    _____ _____  ____ __ ______    ______ _________
0                                  71523
                                   71524
                                   71525                 PATHIP -- Write IP packet received over path
                                   71526
                                   71527                   On entry:
                                   71528                     R0,R1  - IP Packet length and address
                                   71529

000D122 90EF C020/4DE0_      00020 71530              PATHIP   PROC
 USING  *,R11
 00D146 5900 B83E/4740_      0D984 71572                       IF    ((R0,LT,L'IPHDR),OR,(R0,GT,8000)),EXIT  Check length
 00D156 1860                       71608                       LR    R6,R0               Save packet length
 00D158 187D/1AD6/41D0_            71609                       XPUSH ,,(R6),PTR=R7       Space to copy packet
 00D164 18E7/18F6/1801_            71614                       MOVEL (R7),(R1),(R6)      Copy packet
 USING  IPHDR,R7                   71632                       WITH  (IPHDR,R7)
 00D16E 4320 7000            00000 71645                       IC    R2,IPIHL            Get header length
 00D172 5420 B84A            0D990 71646                       N     R2,=A(15)
 00D176 8920 0002            00002 71647                       SLL   R2,2
 00D17A 1806                       71648                       LR    R0,R6               Compute packet
 00D17C 1B02                       71649                       SR    R0,R2                data length
 00D17E 4112 7000            00000 71650                       LA    R1,IPHDR(R2)        Start of packet data
 00D182 9511 7009/4770_00009       71651                       IF    (IPTYPE,EQ,IPUDP#),BEGIN  If UDP packet,
 00D18A 41F0 7000            00000 71669  1                      LA    R15,IPHDR           IP header address
 00D18E 58E0 B84E/0DEE       0D994 71670  1                      ACALL CHKUDP              Compute UDP checksum
 00D194                            71674                       END
 00D194 41F0 7000            00000 71678                       LA    R15,IPHDR           IP header address
 00D198 58E0 B852/0DEE       0D998 71679                       ACALL XMITIP              Send packet
 00D19E 18D9/980C D004_            71683                       PEND
 DROP   IPHDR,R7
 DROP   *,R11
1AMELIA   GETPORT - get UDP port number                                                                                     Page  278
0Current Usings:  (COMMAND+4096,R8) (NIT,R12)
0Loc    Object Code    Addr1 Addr2  Stmt Lv Lineno    Source Statement           (Hibal 5, Asmedit 3.3)  HLASM R4.0  2004/03/15 13.11
+___    ______ ____    _____ _____  ____ __ ______    ______ _________
0                                  71709
                                   71710
                                   71711                 GETPORT -- Routine to get an available UDP port number for
                                   71712                   the caller.
                                   71713
                                   71714                   On entry:
                                   71715                     R1 - UPATH ptr
                                   71716
                                   71717                   On exit:
                                   71718                     R15 - port number to use (or zero if none left)
                                   71719

000D1AC 90EF C020/4DE0_      00020 71720              GETPORT  PROC
 USING  *,R11
 00D1D0 1851                       71762                       LR    R5,R1
 USING  UPATH,R5                   71763                       WITH  (UPATH,R5)
 00D1D2 D503 B75C 5000_0D92C 00000 71776                       IF    (UPATH,NE,'PATH'),'FAIL "Bad UPATH address"'
                                   71802
                                   71803                   Take the next available port number and link it to the
                                   71804                     path so the port number can be released when the path
                                   71805                     is closed.
                                   71806
 00D1E6 5830 C148/1233       00148 71807                       LT    R3,NITPNQH          Next available PNUM
 00D1EC 4780 B05C            0D22C 71811                       IF    NZ,BEGIN            We've got one...
 USING  PNUM,R3                    71822  1                      WITH  (PNUM,R3)
 00D1F0 58F0 3000            00000 71835  1                      L     R15,PNUMLINK        Next free entry
 00D1F4 50F0 C148            00148 71836  1                      ST    R15,NITPNQH         Make it the new queue head
 00D1F8 12FF/4770 B034_            71837  1                      IF    (R15,Z),'CLEAR NITPNQT'  No entries remain
 00D204 D703 3000 3000 00000 00000 71863  1                      CLEAR PNUMLINK            We will be the new queue tail
 00D20A 58F0 501C/12FF       0001C 71870  1                      LT    R15,UPATPNQT        Our owned port queue tail
 00D210 4770 B04C            0D21C 71874  1                      IF    Z,BEGIN             Nothing on our queue...
 00D214 5030 5018            00018 71885  2                        ST    R3,UPATPNQH         Set queue head
 00D218 5030 501C            0001C 71886  2                        ST    R3,UPATPNQT         ...and tail
 00D21C                            71887  1                      END
 00D21C B050/47F0 B058 0D21C 0D212 71891  1                      ELSE  BEGIN               Add to end of queue...
 00D220 5030 F000            00000 71902  2                        WITH  (PNUM,R15),'ST R3,PNUMLINK'  Link us to end
 USING  PNUM,R15
 DROP   PNUM,R15
 00D224 5030 501C            0001C 71926  2                        ST    R3,UPATPNQT         We are the new queue tail
 00D228                            71927  1                      END
 00D228 58F0 3004            00004 71931  1                      L     R15,PNUMVAL         Get port number
 DROP   PNUM,R3                    71932                       END
                                   71941
 00D22C B060/47F0 B062_0D22C 0D1EE 71942                       ELSE  'CLEAR R15'         No port numbers available
                                   71962
 00D232 18D9/980C D004_            71963                       PEND
 DROP   UPATH,R5
 DROP   *,R11
1AMELIA   PATHREAD - read record from path buffer                                                                           Page  279
0Current Usings:  (COMMAND+4096,R8) (NIT,R12)
0Loc    Object Code    Addr1 Addr2  Stmt Lv Lineno    Source Statement           (Hibal 5, Asmedit 3.3)  HLASM R4.0  2004/03/15 13.11
+___    ______ ____    _____ _____  ____ __ ______    ______ _________
0                                  71989
                                   71990
                                   71991                 PATHREAD -- Routine to read a new line from the path buffer.
                                   71992
                                   71993                   On entry:
                                   71994                     R1 - UPATH ptr
                                   71995
                                   71996                   On exit, R15 (and cc):
                                   71997                     0 - ok; R1,R0 - line loc, len
                                   71998                     nz- no data; R1,R0 - error msg loc, len
                                   71999

000D240 90EF C020/4DE0_      00020 72000              PATHREAD PROC  (R2,LSR)
 USING  *,R11
 00D264 1851                       72042                       LR    R5,R1
 USING  UPATH,R5                   72043                       WITH  (UPATH,R5)
 00D266 D503 B6C8 5000_0D92C 00000 72056                       IF    (UPATH,NE,'PATH'),'FAIL "Bad UPATH address"'
                                   72082
                                   72083                         First check to see if there is still data in the current
                                   72084                           xact.
                                   72085
 00D27A D603 5024 5024_00024 00024 72086                       IF    (UPATDLEN,NZ),PRDOK  Fine, scram
                                   72105
                                   72106                         Get the next transaction and process it's header.
                                   72107
 00D284 41F0 0014/5800_      00014 72108                       SCOM  FREELOC,0,L:UPATMGC  Get next transaction
 00D290 12FF/4780 B03C             72126                       IF    (R15,NZ),BEGIN
 00D296 58E0 B738/0DEE       0D99C 72140  1                      ACALL PATHRC              Get error msg text
 00D29C 47F0 B0CC            0D330 72144  1                      B     PRDEXIT
 00D2A0                            72145                       END
                                   72149
 00D2A0 1200/4780 B084             72150                       IF    (R0,Z),PRDOK        Nothing to read, scram
                                   72167
                                   72168                         Update trace.
                                   72169
 00D2A6 B205 5114      00114       72170                       STCK  UPATRTIM            Time stamp
 00D2AA 5000 511C            0011C 72171                       ST    R0,UPATRLEN         Save length
 00D2AE 18F0                       72172                       LR    R15,R0              Copy length
 00D2B0 59F0 B73C/47D0_      0D9A0 72173                       CEIL  R15,L'UPATRDAT      Truncate to trace area length
 00D2BC 06F0/44F0 B84A_            72192                       DEX   R15,'MVC UPATRDAT(0),@R1'  Move data to trace area
                                   72211
                                   72212                         Return data to caller if not in "multiple line" format.
                                   72213
 00D2C2 5900 B740/4740_      0D9A4 72214                       IF    ((R0,LT,4),OR,(@R1,NE,X'00')),BEGIN
 00D2D2 94DF 500E      0000E       72246  1                      CLEAR UPATFHDR            Flag not multiple line format
 00D2D6 1BFF                       72253  1                      CLEAR R15                 RC=0
 00D2D8 47F0 B0CC            0D330 72257  1                      EXIT  PATHREAD            Exit
 00D2DC                            72260                       END
                                   72264
 00D2DC 9620 500E      0000E       72265                       SET   UPATFHDR            Data is in multiple line format
 00D2E0 5010 5020            00020 72271                       ST    R1,UPATDLOC         Save data location
 00D2E4 5000 5024            00024 72272                       ST    R0,UPATDLEN         ...and remaining length
1AMELIA   PATHREAD - read record from path buffer                                                                           Page  280
0Current Usings:  (UPATH,R5) (COMMAND+4096,R8) (*,R11) (NIT,R12)
0Loc    Object Code    Addr1 Addr2  Stmt Lv Lineno    Source Statement           (Hibal 5, Asmedit 3.3)  HLASM R4.0  2004/03/15 13.11
+___    ______ ____    _____ _____  ____ __ ______    ______ _________
0                                  72273
                                   72274                         Return pointer to next line of data (R1,R0 = line loc,len).
                                   72275
 00D2E8 5820 5024/1222       00024 72276              PRDOK    LT    R2,UPATDLEN
 00D2EE 4770 B09E/4110_      0D302 72280                       IF    Z,'SETMSG "NO DATA"; LH R15,=H"-4"; B PRDEXIT'
 00D302 5830 5020            00020 72302                       L     R3,UPATDLOC
 00D306 5800 3000            00000 72303                       L     R0,@R3              Get length
 00D30A 4130 3004            00004 72304                       LA    R3,@R3+4            Adjust for length
 00D30E 4B20 B7A6            0DA0A 72305                       SH    R2,=H'4'
 00D312 47B0 B0B4/1B22       0D318 72306                       IF    NEG,'CLEAR R2'
 00D318 1902/47D0 B0BC_            72326                       CEIL  R0,R2               Not too much now
 00D320 1813                       72332                       LR    R1,R3               Start of data
 00D322 1A30                       72333                       AR    R3,R0               Adjust for data bytes
 00D324 1B20                       72334                       SR    R2,R0
 00D326 5030 5020            00020 72335                       ST    R3,UPATDLOC
 00D32A 5020 5024            00024 72336                       ST    R2,UPATDLEN
                                   72337
 00D32E 1BFF                       72338                       CLEAR R15                 A-ok
 00D330 18D9/982C D004_            72342              PRDEXIT  PEND
 DROP   UPATH,R5
 DROP   *,R11
1AMELIA   PATHSEG - path SEG routine                                                                                        Page  281
0Current Usings:  (COMMAND+4096,R8) (NIT,R12)
0Loc    Object Code    Addr1 Addr2  Stmt Lv Lineno    Source Statement           (Hibal 5, Asmedit 3.3)  HLASM R4.0  2004/03/15 13.11
+___    ______ ____    _____ _____  ____ __ ______    ______ _________
0                                  72369
                                   72370
                                   72371                 PATHSEG -- Seg processing routine to handle writing
                                   72372                   data across the Suzan path.
                                   72373
                                   72374                   On entry:
                                   72375                     R15 - SEGCB ptr
                                   72376

0000000                00000 00010 72377              PSGWA    RECORD BEGIN
 000000                            72385  1           PSGHDRA    DS    A                   SCOM parm: header address
 000004                            72386  1           PSGHDRL    DS    F                   SCOM parm: header length
 000008                            72387  1           PSGDATAA   DS    A                   SCOM parm: address
 00000C                            72388  1           PSGDATAL   DS    F                   SCOM parm: length
 000010                00010 00010 72389                       END
                                   72398
 00D33E 90EF C020/4DE0_      00020 72399              PATHSEG  PROC  PSGWA
 USING  *,R11
 USING  PSGWA-(4+52),R9
 00D362 D70F 9038 9038 00000 00000 72452                       CLEAR PSGWA
                                   72459
 00D368 58C0 B646            0D9A8 72460                       L     NITR,=A(NIT)
                                   72461
 00D36C 185F                       72462                       LR    R5,R15
 USING  SEGCB,R5                   72463                       WITH  (SEGCB,R5)
                                   72476
                                   72477                         SEGWR/SEGCR (or overflow).
                                   72478
 00D36E 9502 5000/4780_00000       72479                       IF    (SEGCBWR,OR,SEGCBCR,OR,SEGCBOVF),BEGIN  SEGWR...
 00D386 1220                       72520  1                      LTR   R2,R0               Current buffer length
 00D388 47D0 B0D4            0D436 72521  1                      IF    NP,EXIT             Nothing to write, scram
                                   72535  1
 00D38C 5010 9040            00008 72536  1                      ST    R1,PSGDATAA         Seg data ptrs
 00D390 5000 9044            0000C 72537  1                      ST    R0,PSGDATAL
                                   72538  1
 00D394 4110 9044/4100_      0000C 72539  1                      SETMSG PSGDATAL
 00D39C 5010 9038            00000 72553  1                      ST    R1,PSGHDRA          Length
 00D3A0 5000 903C            00004 72554  1                      ST    R0,PSGHDRL
                                   72555  1
 00D3A4 9680 9040      00008       72556  1                      SET   PSGDATAA.X'80'      Set VL bit
                                   72563  1
 00D3A8 5830 C124            00124 72564  1                      L     R3,NITPCUR          Current path
 USING  UPATH,R3                   72565  1                      WITH  (UPATH,R3),BEGIN
 00D3AC D503 B5CA 3000_0D92C 00000 72579  2                        IF    (UPATH,NE,'PATH'),'FAIL "Bad UPATH address"'
 00D3C0 4100 0001/5E00_      00001 72605  2                        INCR  R0,NITPSND#         Incr global send count
 00D3CC 4100 0001/5E00_      00001 72611  2                        INCR  R0,UPATSND#         Incr path send count
                                   72617  2
 00D3D8 4110 9040            00008 72618  2                        LA    R1,PSGDATAA         Assume sending data only
 00D3DC 9120 300E/47E0_0000E       72619  2                        IF    UPATFHDR,'LA R1,PSGHDRA'  Send length + data
 00D3E8 41F0 0008/5800_      00008 72640  2                        SCOM  SEND,(R1),L:UPATMGC  Send transaction
 00D3F2 42F0 300F            0000F 72658  2                        STC   R15,UPATWRC         Save return code
 00D3F6 12FF/4780 B0CE             72659  2                        IF    (R15,NZ),BEGIN      Couldn't send...
 00D3FC 59F0 B64A/4770_      0D9AC 72673  3                          IF    (R15,EQ,UPATRBAF),BEGIN  If buffer full,
1AMELIA   PATHSEG - path SEG routine                                                                                        Page  282
0Current Usings:  (UPATH,R3) (SEGCB,R5) (COMMAND+4096,R8) (PSGWA-(4+52),R9) (*,R11) (NIT,R12)
0Loc    Object Code    Addr1 Addr2  Stmt Lv Lineno    Source Statement           (Hibal 5, Asmedit 3.3)  HLASM R4.0  2004/03/15 13.11
+___    ______ ____    _____ _____  ____ __ ______    ______ _________
000D404 4100 0001/5E00_      00001 72690  4                            INCR  R0,UPATFUL#              Incr counters
 00D410 4100 0001/5E00_      00001 72696  4                            INCR  R0,NITPFUL#
 00D41C                            72702  3                          END
 00D41C 58E0 B63A/0DEE       0D99C 72706  3                          ACALL PATHRC              Get return code string
                                   72710  3
 00D422 D603 C234 C234_00234 00234 72711  3                          IF    (NITRCP,Z),BEGIN    Only set it the first time...
 00D42C 9001 C234            00234 72727  4                            STM   R0,R1,NITRCP        Save return code string ptrs
 00D430                            72728  3                          END
 00D430                            72732  2                        END
 DROP   UPATH,R3                   72736  1                      END
                                   72744  1
 00D430 1302                       72745  1                      LCR   R0,R2               For overflow: nbytes processed
 00D432 5009 0004            00004 72746  1                      PRETURN (R0)
 00D436                            72748                       END
                                   72752
                                   72753                         Post processing (set return code only).
                                   72754
 00D436 9504 5000/4770_00000       72755                       IF    SEGCBSPP,BEGIN      Post processing...
 00D43E 1B00                       72770  1                      CLEAR R0                  Assume A-ok
 00D440 D603 C234 C234_00234 00234 72774  1                      IF    (NITRCP,NZ),'LA R0,4'  Trouble
 00D44E                            72796                       END
                                   72800
 00D44E 18D9/980C D004_            72801                       PEND
 DROP   SEGCB,R5
 DROP   PSGWA-(4+52),R9
 DROP   *,R11
1AMELIA   PATHCLS - close user path                                                                                         Page  283
0Current Usings:  (COMMAND+4096,R8) (NIT,R12)
0Loc    Object Code    Addr1 Addr2  Stmt Lv Lineno    Source Statement           (Hibal 5, Asmedit 3.3)  HLASM R4.0  2004/03/15 13.11
+___    ______ ____    _____ _____  ____ __ ______    ______ _________
0                                  72832
                                   72833
                                   72834                 PATHCLS -- Routine to close a user path.
                                   72835
                                   72836                   On entry:
                                   72837                     R1 - path number
                                   72838
                                   72839                   On exit, R15 (and cc):
                                   72840                     0 = closed
                                   72841                     4 = not closed; R1,R0 = error msg loc, len
                                   72842

000D45C 90EF C020/4DE0_      00020 72843              PATHCLS  PROC
 USING  *,R11
 00D480 1851                       72885                       LR    R5,R1
 USING  UPATH,R5                   72886                       WITH  (UPATH,R5)
 00D482 D503 B4AC 5000_0D92C 00000 72899                       IF    (UPATH,NE,'PATH'),'FAIL "Bad UPATH address"'
                                   72925
                                   72926                         Close path (we don't care if it's not open).
                                   72927
 00D496 41F0 0004/5800_      00004 72928                       SCOM  CLOSE,0,L:UPATMGC   Close path
 00D4A2 D203 5000 B530 00000 0D9B0 72946                       MVC   UPATHID,=C'FPTH'    Zap id
                                   72947
                                   72948                   Release any owned port numbers.  Add the port numbers to be
                                   72949                     freed at the end of the free queue, so they won't get re-used
                                   72950                     for a while.  This minimizes the possibility of a new user
                                   72951                     getting straggling packets on a previously active port.
                                   72952
 00D4A8 D603 5018 5018_00018 00018 72953                       IF    (UPATPNQH,NZ),BEGIN  We have owned port numbers...
 00D4B2 5840 C14C/1244       0014C 72969  1                      LT    R4,NITPNQT          Previous end of PNUM queue
 00D4B8 4770 B048            0D4C8 72973  1                      IF    Z,BEGIN             Nothing on free queue...
 00D4BC D203 C148 5018 00148 00018 72984  2                        MVC   NITPNQH,UPATPNQH
 00D4C2 D203 C14C 501C 0014C 0001C 72985  2                        MVC   NITPNQT,UPATPNQT
 00D4C8                            72986  1                      END
                                   72990  1
 00D4C8 B04C/47F0 B058 0D4C8 0D4BA 72991  1                      ELSE  BEGIN               Add our ports to end of freeq...
 00D4CC D203 4000 5018 00000 00018 73002  2                        WITH  (PNUM,R4),'MVC PNUMLINK,UPATPNQH'  Link prev to us
 USING  PNUM,R4
 DROP   PNUM,R4
 00D4D2 D203 C14C 501C 0014C 0001C 73026  2                        MVC   NITPNQT,UPATPNQT    New free queue tail
 00D4D8                            73027  1                      END
                                   73031  1
 00D4D8 D703 5018 5018_00018 00018 73032  1                      CLEAR UPATPNQH,UPATPNQT   (Neatness)
 00D4E4                            73044                       END
                                   73048
                                   73049                         Remove UPATH from queue.
                                   73050
 00D4E4 4140 C118            00118 73051                       LA    R4,NITPATQH-(UPATLINK-UPATH)
 00D4E8                            73052                       LOOP  BEGIN
 DROP   UPATH,R5                   73058  1                      WITH  (UPATH,R4)
 USING  UPATH,R4
 00D4E8 1834                       73079  1                      LR    R3,R4               Previous entry
 00D4EA 5840 4004            00004 73080  1                      L     R4,UPATLINK
1AMELIA   PATHCLS - close user path                                                                                         Page  284
0Current Usings:  (UPATH,R4) (COMMAND+4096,R8) (*,R11) (NIT,R12)
0Loc    Object Code    Addr1 Addr2  Stmt Lv Lineno    Source Statement           (Hibal 5, Asmedit 3.3)  HLASM R4.0  2004/03/15 13.11
+___    ______ ____    _____ _____  ____ __ ______    ______ _________
000D4EE 1244/4780 B09A             73081  1                      WHILE (R4,NZ)
 00D4F4 1945/4770 B096             73096  1                      IF    (R4,EQ,R5),BEGIN    Our entry...
 00D4FA D203 3004 4004 00004 00004 73111  2                        MVC   UPATLINK-UPATH(4,R3),UPATLINK  Remove us from q
 00D500 D603 C11C C11C_0011C 0011C 73112  2                        IF    (NITPATQH,Z),'CLEAR NITPATQT'  (Neatness)
 00D510 D703 4004 4004 00004 00004 73140  2                        CLEAR UPATLINK            Zap our link ptr (exits loop)
 00D516                            73147  1                      END
 00D516 47F0 B068            0D4E8 73151                       END
 USING  UPATH,R5
 DROP   UPATH,R4
                                   73170
                                   73171                         Free UPATH memory.
                                   73172
 00D51A 4110 5000            00000 73173                       LA    R1,UPATH
 00D51E 58E0 B534/0DEE       0D9B4 73174                       ACALL FREECORE            Release memory
 00D524 1BFF                       73178                       CLEAR R15                 A-ok
 00D526 18D9/980C D004_            73182                       PEND
 DROP   UPATH,R5
 DROP   *,R11
1AMELIA   PATHINFO - Get path partner information                                                                           Page  285
0Current Usings:  (COMMAND+4096,R8) (NIT,R12)
0Loc    Object Code    Addr1 Addr2  Stmt Lv Lineno    Source Statement           (Hibal 5, Asmedit 3.3)  HLASM R4.0  2004/03/15 13.11
+___    ______ ____    _____ _____  ____ __ ______    ______ _________
0                                  73208
                                   73209
                                   73210                PATHINFO -- Routine to get path partner information.
                                   73211
                                   73212                  On entry:
                                   73213                    R1 - UPATH ptr
                                   73214
                                   73215                  On exit:
                                   73216                    UPATH information fields are filled in
                                   73217

0000000                00000 000EC 73218              PIWA     RECORD BEGIN
 000000                            73226  1           PIPARMS    DS    2A                  Suzan INFO parm: loc, len
                                   73227  1
 000008                            73228  1           PIASCBP    DS    A                   Info:  Partner's ASCB ptr
 00000C                            73229  1           PIBUFSIZ   DS    F                   Info:  Partner's buffer size
 000010                            73230  1           PIPATHNM   DS    CL8                 Info:  Partner's path name
 000018                            73231  1           PIXACTP    DS    A                   Info:  Input XACT chain ptr
 00001C                            73232  1                      DS    XL16                Info:  Zeros (reserved)
 00002C                            73233  1           PIPINFO    DS    XL(L'PINFO)         Info:  Partner's "PINFO"
                                   73234  1           PIINFO     EQU   PIASCBP,*-PIASCBP,C'X'
                                   73235  1
 0000AC                            73236  1           PIWORK     DS    XL64                Local work area
 0000EC                000EC 000EC 73237                       END
                                   73246
 00D534 90EF C020/4DE0_      00020 73247              PATHINFO XPROC PIWA
 USING  *,R11
 USING  PIWA-(4+52),R9
 00D558 1851                       73302                       LR    R5,R1
 USING  UPATH,R5                   73303                       WITH  (UPATH,R5)
 00D55A D503 B3D4 5000_0D92C 00000 73316                       IF    (UPATH,NE,'PATH'),'FAIL "Bad UPATH address"'
                                   73342
                                   73343                         Get path information from Suzan.
                                   73344
 00D56E 4100 9040            00008 73345                       LA    R0,PIINFO           Addr of area
 00D572 4110 00A4            000A4 73346                       LA    R1,L'PIINFO         Length
 00D576 9001 9038            00000 73347                       STM   R0,R1,PIPARMS
 00D57A 9680 9038      00000       73348                       SET   PIPARMS.X'80'       Mark as end of list
                                   73355
 00D57E 41F0 0020/5800_      00020 73356                       SCOM  INFO,PIPARMS,L:UPATMGC  Get Suzan info
 00D58C 12FF/4770 B0E8             73377                       IF    (R15,NZ),EXIT       Couldn't get info, forget it
                                   73394
 00D592 D603 9040 9040_00008 00008 73395                       IF    (PIASCBP,Z),EXIT    No partner's ASCB, forget it
                                   73414
 00D59C D203 5028 9040 00028 00008 73415                       MVC   UPATPASC,PIASCBP    Save partner's ASCB ptr
                                   73416
                                   73417                         Save partner information when PINFO is present.
                                   73418
 00D5A2 4140 9064            0002C 73419                       LA    R4,PIPINFO
 USING  PINFO,R4                   73420                       WITH  (PINFO,R4)
 00D5A6 D503 B460 4000_0D9B8 00000 73433                       IF    (PINFO,EQ,'PINF'),BEGIN  We have info...
 00D5B0 D207 502E 4008 0002E 00008 73450  1                      MVC   UPATPJOB,PINFOSYS   Save partner's "jobname"
 00D5B6 D207 5036 4010 00036 00010 73451  1                      MVC   UPATPACT,PINFOACC   Save partner's account
1AMELIA   PATHINFO - Get path partner information                                                                           Page  286
0Current Usings:  (PINFO,R4) (UPATH,R5) (COMMAND+4096,R8) (PIWA-(4+52),R9) (*,R11) (NIT,R12)
0Loc    Object Code    Addr1 Addr2  Stmt Lv Lineno    Source Statement           (Hibal 5, Asmedit 3.3)  HLASM R4.0  2004/03/15 13.11
+___    ______ ____    _____ _____  ____ __ ______    ______ _________
000D5BC D201 502C 4032 0002C 00032 73452  1                      MVC   UPATPLNO,PINFOLNO   Save partner's line number
 00D5C2 D213 503E 4038 0003E 00038 73453  1                      MVC   UPATPNAM,PINFONAM   Save partner's user name
 00D5C8 9120 4030/47E0_00030       73454  1                      IF    PINFOIFL.KWRIFSPR,'SET UPATFSPR'  Sys privs
 00D5D4 9110 4030/47E0_00030       73481  1                      IF    PINFOIFL.KWRIFOPR,'SET UPATFOPR'  Opr privs
 00D5E0                            73508                       END
                                   73512
                                   73513                         Save partner information for batch jobs (no PINFO).
                                   73514
 00D5E0 B08C/47F0 B0E6 0D5E0 0D5AE 73515                       ELSE  BEGIN               No PINFO, get jobname...
 00D5E4 4100 0004/4110_      00004 73526  1                      HASPSERV JOBNAME,PIWORK,ASCB=UPATPASC  Get jobname
 00D5F2 D207 502E 90E4 0002E 000AC 73547  1                      MVC   UPATPJOB,PIWORK     Save jobname
                                   73548  1
 00D5F8 1B00/4110 90E4_            73549  1                      HASPSERV JOBACCT,PIWORK,ASCB=UPATPASC  Get account
 00D604 D207 5036 C23C 00036 0023C 73567  1                      MVC   UPATPACT,NITBLANK   Form "gg.uuu"...
 00D60A D201 5036 90E7 00036 000AF 73568  1                      MVC   UPATPACT(2),PIWORK+3
 00D610 924B 5038      00038       73569  1                      MVI   UPATPACT+2,C'.'
 00D614 D202 5039 90E4 00039 000AC 73570  1                      MVC   UPATPACT+3(3),PIWORK
 00D61A 9120 90EB/47E0_000B3       73571  1                      IF    PIWORK+7.KWRIFSPR,'SET UPATFSPR'  Sys privs
 00D626 9110 90EB/47E0_000B3       73598  1                      IF    PIWORK+7.KWRIFOPR,'SET UPATFOPR'  Opr privs
                                   73625  1
 00D632 D201 502C B4B4 0002C 0DA0C 73626  1                      MVC   UPATPLNO,=H'-1'     No line number
 00D638 D713 503E 503E 0003E 0003E 73627  1                      CLEAR UPATPNAM            No user name
 00D63E                            73634                       END
                                   73638
 00D63E 1BFF                       73639                       CLEAR R15                 (Neatness)
 00D640 18D9/980C D004_            73643                       PEND
 DROP   PINFO,R4
 DROP   UPATH,R5
 DROP   PIWA-(4+52),R9
 DROP   *,R11
1AMELIA   PATHRC - format path return code                                                                                  Page  287
0Current Usings:  (COMMAND+4096,R8) (NIT,R12)
0Loc    Object Code    Addr1 Addr2  Stmt Lv Lineno    Source Statement           (Hibal 5, Asmedit 3.3)  HLASM R4.0  2004/03/15 13.11
+___    ______ ____    _____ _____  ____ __ ______    ______ _________
0                                  73679
                                   73680
                                   73681                 PATHRC -- Routine to form string from return code.
                                   73682
                                   73683                   On entry:
                                   73684                     R15 - return code from Suzan
                                   73685
                                   73686                   On exit:
                                   73687                     R1,R0 - message loc, len
                                   73688

000D64E 90EF C020/4DE0_      00020 73689              PATHRC   PROC  (R2,LSR)
 USING  *,R11
 00D672 4110 B39C/4100_      0DA0E 73731                       SETMSG 'OK'
 00D67A 12FF/4780 B016_            73735                       IF    (R15,NZ),'SETMSG "ERROR"'
 00D688 59F0 B34A/4770_      0D9BC 73758                       IF    (R15,EQ,=A(UPATRIFC)),'SETMSG "BAD SUZAN FUNCTION CODE"'
 00D698 59F0 B34E/4770_      0D9C0 73783                       IF    (R15,EQ,=A(UPATRPMW)),'SETMSG "BAD SUZAN CONTROL BLOCK"'
 00D6A8 59F0 B33A/4770_      0D9AC 73808                       IF    (R15,EQ,=A(UPATRBAF)),'SETMSG "BUFFER FULL"'
 00D6B8 59F0 B352/4770_      0D9C4 73833                       IF    (R15,EQ,=A(UPATRNOP)),'SETMSG "NO PARTNER"'
 00D6C8 59F0 B356/4770_      0D9C8 73858                       IF    (R15,EQ,=A(UPATRBOM)),'SETMSG "TOO BIG"'
 00D6D8 59F0 B35A/4770_      0D9CC 73883                       IF    (R15,EQ,=A(UPATRIBS)),'SETMSG "BUFFER TOO SMALL"'
 00D6E8 59F0 B35E/4770_      0D9D0 73908                       IF    (R15,EQ,=A(UPATRBPI)),'SETMSG "BAD SUZAN BUFFER ADDR"'
 00D6F8 59F0 B362/4770_      0D9D4 73933                       IF    (R15,EQ,=A(UPATRIAD)),'SETMSG "BAD SUZAN ADDR"'
 00D708 18D9/982C D004_            73958                       PEND
 DROP   *,R11
1AMELIA   PATHMON -- Check for packet monitoring paths                                                                      Page  288
0Current Usings:  (COMMAND+4096,R8) (NIT,R12)
0Loc    Object Code    Addr1 Addr2  Stmt Lv Lineno    Source Statement           (Hibal 5, Asmedit 3.3)  HLASM R4.0  2004/03/15 13.11
+___    ______ ____    _____ _____  ____ __ ______    ______ _________
0                                  73979
                                   73980
                                   73981                 PATHMON--  Check for paths with packet monitoring active
                                   73982
                                   73983                   On entry:
                                   73984                     R0  - packet length
                                   73985                     R1  - packet address
                                   73986                     R15 - 0 = transmitted packet
                                   73987                           4 = received packet
                                   73988

0000000                00000 00024 73989              PTHMWA   RECORD BEGIN
 000000                            73997  1           PTHMPCUR   DS   F
 000004                            73998  1           PTHMTEMP   DS   XL32
 000024                00024 00024 73999                       END
-00D716 90EF C020/4DE0_      00020 74009              PATHMON  PROC  PTHMWA
 USING  *,R11
 USING  PTHMWA-(4+52),R9
 00D73A 1820                       74062                       LR    R2,R0               Save length
 00D73C 1831                       74063                       LR    R3,R1               Save address
 USING  ENETHDR,R3                 74064                       WITH  (ENETHDR,R3)
 00D73E 184F                       74077                       LR    R4,R15              Save type code
 00D740 D203 9038 C124 00000 00124 74078                       MVC   PTHMPCUR,NITPCUR    Save NITPCUR
                                   74079                       SEGDEF NITPSG
                                   74080
 00D746 4170 C118            00118 74081                       LA    R7,NITPATQH-(UPATLINK-UPATH)  Init path queue ptr
 USING  UPATH,R7                   74082                       WITH  (UPATH,R7)
 00D74A 5870 7004/1277_      00004 74095              PATHMNXT WHILE ('LT R7,UPATLINK',NZ),BEGIN
 00D754 9180 7059/47E0_00059       74114  1                      IF    ~UPATMACT,NEXT      Next if monitoring not active
 00D75C D601 7052 7052_00052 00052 74132  1                      IF    ((UPATMENP,NZ),AND,(UPATMENP,NE,ENETTYPE)),NEXT
 00D770 9120 7059/47E0_00059       74168  1                      IF    (UPATMNBR,AND,(ENETDST.X'01',NZ)),NEXT
 00D780 9110 7059/47E0_00059       74203  1                      IF    (UPATMBRO,AND,(ENETDST.X'01',Z)),NEXT
 00D790 D501 B2CC 7052_0DA06 00052 74238  1                      IF    (UPATMENP,EQ,ENETIP#),BEGIN   If IP monitoring,
 00D79A 41F0 300E            0000E 74256  2                        LA    R15,ENETDATA        Packet data start
 USING  IPHDR,R15                  74257  2                        WITH  (IPHDR,R15)
 00D79E 9500 7054/4780_00054       74270  2                        IF    ((UPATMIPP,NZ),AND,(UPATMIPP,NE,IPTYPE)),PATHMNXT
                                   74306  2         C              IF    ((UPATMIPA,NZ),AND,
                                          2         C                    (UPATMIPA,NE,IPSRC),AND,
 00D7B0 D603 7055 7055_00055 00055        2                              (UPATMIPA,NE,IPDST)),PATHMNXT
                                   74357  2         C              IF    (UPATMEXT,AND,     External option
                                          2         C                    ('CLC IPSRC(1),NITIP',EQ),AND,
 00D7CE 9108 7059/47E0_00059              2                              ('CLC IPDST(1),NITIP',EQ)),PATHMNXT
 DROP   IPHDR,R15                  74397  1                      END
 00D7EA 5070 C124            00124 74406  1                      ST    R7,NITPCUR          Set current path id
 00D7EE 4110 C23C/4100_      0023C 74407  1                      SEGWR NITBLANK,1          Spacer
 00D800 9801 C33C            0033C 74437  1                      LM    R0,R1,NITZERO
 00D804 41F0 903C            00004 74438  1                      LA    R15,PTHMTEMP        Work area
 00D808 58E0 B29E/0DEE       0D9D8 74439  1                      ACALL FMTTIME             Format
 00D80E 41F0 C1EC/58E0_      001EC 74443  1                      SEGB  (R1),(R0)
 00D818 1244/4770 B0F6             74467  1                      IF    (R4,Z),BEGIN
 00D81E 4110 B2A6/4100_      0D9E0 74481  2                        SEGWR 'Sent packet:'
1AMELIA   PATHMON -- Check for packet monitoring paths                                                                      Page  289
0Current Usings:  (ENETHDR,R3) (UPATH,R7) (COMMAND+4096,R8) (PTHMWA-(4+52),R9) (*,R11) (NIT,R12)
0Loc    Object Code    Addr1 Addr2  Stmt Lv Lineno    Source Statement           (Hibal 5, Asmedit 3.3)  HLASM R4.0  2004/03/15 13.11
+___    ______ ____    _____ _____  ____ __ ______    ______ _________
000D830                            74499  1                      END
 00D830 B0FA/47F0 B10C 0D830 0D81C 74503  1                      ELSE  BEGIN
 00D834 4110 B1C6/4100_      0D900 74514  2                        SEGWR 'Received packet:'
 00D846                            74532  1                      END
 00D846 1802                       74536  1                      LR    R0,R2               Packet length
 00D848 1813                       74537  1                      LR    R1,R3               Packet address
 00D84A 41F0 C1EC            001EC 74538  1                      LA    R15,NITPSG          SEGCB
 00D84E 9140 7059/47E0_00059       74539  1                      IF    UPATMTRU,'LNR R0,R0'  Indicate TRUNCATE
 00D858 58E0 B2B2/0DEE       0D9EC 74560  1                      ACALL FMTPACK             Format packet
 00D85E 47F0 B010            0D74A 74564                       END
 00D862 D203 C124 9038 00124 00000 74569                       MVC   NITPCUR,PTHMPCUR    Restore NITPCUR
 00D868 18D9/980C D004_            74570                       PEND
 DROP   UPATH,R7
 DROP   ENETHDR,R3
 DROP   PTHMWA-(4+52),R9
 DROP   *,R11
                                   74605                       QLTORG
1AMELIA   PRTSEG - SYSPRINT SEG routine                                                                                     Page  290
0Current Usings:  (COMMAND+4096,R8) (NIT,R12)
0Loc    Object Code    Addr1 Addr2  Stmt Lv Lineno    Source Statement           (Hibal 5, Asmedit 3.3)  HLASM R4.0  2004/03/15 13.11
+___    ______ ____    _____ _____  ____ __ ______    ______ _________
0                                  74701
                                   74702
                                   74703                 PRTSEG -- Seg routine to write line to SYSPRINT.
                                   74704
                                   74705                   On entry:
                                   74706
                                   74707                     R15 - SEGCB ptr
                                   74708

0000000                00000 0000C 74709              PRTWA    RECORD BEGIN
 000000                            74717  1           PRTSTAMP   DS    CL12                Timestamp ("hh:mm:ss.hh ")
 00000C                0000C 0000C 74718                       END
-00DAB4 90EF C020/4DE0_      00020 74728              PRTSEG   PROC  (R2,LSR),PRTWA
 USING  *,R11
 USING  PRTWA-(4+44),R9
 00DAD8 186F                       74780                       LR    R6,R15
 USING  SEGCB,R6                   74781                       WITH  (SEGCB,R6)
                                   74794
 00DADA 9506 6000/4780_00000       74795                       IF    (SEGCBCR,OR,SEGCBWR,OR,SEGCBOVF),BEGIN  Segwr...
 00DAF2 5900 BB28/47D0_      0E600 74836  1                      CEIL  R0,132              Not too long
 00DAFE 1851                       74855  1                      LR    R5,R1
 00DB00 1840                       74856  1                      LR    R4,R0
                                   74857  1
 00DB02 1B00/1B11                  74858  1                      CLEAR R0,R1
 00DB06 41F0 9030            00000 74864  1                      LA    R15,PRTSTAMP
 00DB0A 58E0 BB2C/0DEE       0E604 74865  1                      ACALL FMTTIME             Get current time
 00DB10 9240 903B      0000B       74869  1                      MVI   PRTSTAMP+11,C' '
                                   74870  1
 00DB14 58E0 C02C            0002C 74871  1                      L     R14,NITLGCUR        Get log buffer pointer
 00DB18 41EE 0064            00064 74872  1                      LA    R14,LOGLEN(R14)     Step to next slot
 00DB1C 59E0 C030/4750_      00030 74873  1                      IF    (R14,GE,NITLGEND),'L R14,NITLGBEG'  Check for wrap
 00DB28 50E0 C02C            0002C 74896  1                      ST    R14,NITLGCUR        Save new pointer
 00DB2C D20B E000 9030 00000 00000 74897  1                      MVC   @R14(L'PRTSTAMP),PRTSTAMP   Move in time stamp
 00DB32 41EE 000C            0000C 74898  1                      LA    R14,L'PRTSTAMP(R14) Target area address
 00DB36 41F0 0058            00058 74899  1                      LA    R15,LOGLEN-L'PRTSTAMP  Target area length
 00DB3A 1805                       74900  1                      LR    R0,R5               Message start
 00DB3C 1814                       74901  1                      LR    R1,R4               Message length
 00DB3E BF18 C23C            0023C 74902  1                      ICM   R1,8,NITBLANK       Blank fill
 00DB42 0EE0                       74903  1                      MVCL  R14,R0              Move text to log buffer
 00DB44 58E0 C02C            0002C 74904  1                      L     R14,NITLGCUR        Get pointer again
 00DB48 DC63 E000 B131 00000 0DC09 74905  1                      TR    @R14(LOGLEN),SEGTRTBL   Translate unprintable chars
                                   74906  1
 00DB4E 5830 BB30            0E608 74907  1                      L     R3,=A(NITPRDCB)     SYSPRINT DCB
 00DB52 9110 3030/47E0_00030       74908  1                      IF    @R3+(DCBOFLGS-DCB).DCBOFOPN,BEGIN  It's open...
 00DB5A 1824                       74924  2                        LR    R2,R4
 00DB5C 4120 2005            00005 74925  2                        LA    R2,4+1+@R2          l'rdw + cc char + text
 00DB60 9102 C101/4710_00101       74926  2                        IF    ~NITFPNTS,'LA R2,L"PRTSTAMP(R2)'
 00DB6C 4020 3052            00052 74947  2                        STH   R2,@R3+(DCBLRECL-DCB)
 00DB70 58E0 BB34/0DEE       0E60C 74948  2                        ACALL AMODE24             ********
 00DB76 1813/1FFF/BFF7_            74952  2                        PUT   (R3)                Get buffer space
 00DB80 58E0 BB38/0DEE       0E610 74958  2                        ACALL AMODE31             ********
1AMELIA   PRTSEG - SYSPRINT SEG routine                                                                                     Page  291
0Current Usings:  (SEGCB,R6) (COMMAND+4096,R8) (PRTWA-(4+44),R9) (*,R11) (NIT,R12)
0Loc    Object Code    Addr1 Addr2  Stmt Lv Lineno    Source Statement           (Hibal 5, Asmedit 3.3)  HLASM R4.0  2004/03/15 13.11
+___    ______ ____    _____ _____  ____ __ ______    ______ _________
000DB86 9110 3030/47E0_00030       74962  2                        IF    ~@R3+(DCBOFLGS-DCB).DCBOFOPN,EXIT  DCB abend, scram
 00DB8E 4020 1000            00000 74981  2                        STH   R2,@R1              Rdw len
 00DB92 D701 1002 1002 00002 00002 74982  2                        CLEAR (@R1+2,2)           Rdw flags
 00DB98 9240 1004      00004       74989  2                        MVI   @R1+4,C' '          Cc char
 00DB9C 9500 C4DC/4780_004DC       74990  2                        IF    (NITPRCC,NZ),'MVC @R1+4(1),NITPRCC'
 00DBAA 4120 1005            00005 75012  2                        LA    R2,4+1+@R1
 00DBAE 9102 C101/4710_00101       75013  2                        IF    ~NITFPNTS,BEGIN
 00DBB6 D20B 2000 9030 00000 00000 75028  3                          MVC   @R2(L'PRTSTAMP),PRTSTAMP  Timestamp
 00DBBC 4122 000C            0000C 75029  3                          LA    R2,L'PRTSTAMP(R2)
 00DBC0                            75030  2                        END
 00DBC0 1244/47D0 B100             75034  2                        IF    (R4,POS),BEGIN
 00DBC6 18F4                       75048  3                          LR    R15,R4
 00DBC8 06F0/12FF/4740_            75049  3                          MOVE  R15,@R2,@R5
 00DBD4 44F0 BC76/DC00_      0E74E 75087  3                          EX    R15,'TR @R2(0),SEGTRTBL'
 00DBD8                            75103  2                        END
 00DBD8                            75107  1                      END
                                   75111  1
 00DBD8 9200 C4DC      004DC       75112  1                      CLEAR NITPRCC             Reset
 00DBDC 1304                       75119  1                      LCR   R0,R4               Amnt we reduced bfr--for segcbovf
 00DBDE 9506 6000/4770_00000       75120  1                      IF    SEGCBCR,'CLEAR R0,SEGCBMRK,SEGCBLEN'  no cr char
 00DBF0                            75154                       END
                                   75158
 00DBF0 9504 6000/4770_00000       75159                       IF    SEGCBSPP,'CLEAR R0'  always set good return code
 00DBFA 18D9/982C D004_            75183                       PEND
 DROP   SEGCB,R6
 DROP   PRTWA-(4+44),R9
 DROP   *,R11
                                   75213
 00DC08 40                         75214              PRTCC    DC    C' '                Next CC char to use
                                   75215
                                   75216                         Translate table to convert funny chars to dots.
                                   75217
 00DC09 4B4B4B4B4B4B4B4B           75218              SEGTRTBL DC    X'4B4B4B4B4B4B4B4B4B4B4B4B4B4B4B4B'
 00DC19 4B4B4B4B4B4B4B4B           75219                       DC    X'4B4B4B4B4B4B4B4B4B4B4B4B4B4B4B4B'
 00DC29 4B4B4B4B4B4B4B4B           75220                       DC    X'4B4B4B4B4B4B4B4B4B4B4B4B4B4B4B4B'
 00DC39 4B4B4B4B4B4B4B4B           75221                       DC    X'4B4B4B4B4B4B4B4B4B4B4B4B4B4B4B4B'
 00DC49 404B4B4B4B4B4B4B           75222                       DC    X'404B4B4B4B4B4B4B4B4B4A4B4C4D4E4F'
 00DC59 504B4B4B4B4B4B4B           75223                       DC    X'504B4B4B4B4B4B4B4B4B5A5B5C5D5E4B'
 00DC69 60614B4B4B4B4B4B           75224                       DC    X'60614B4B4B4B4B4B4B4B4B6B6C6D6E6F'
 00DC79 4B4B4B4B4B4B4B4B           75225                       DC    X'4B4B4B4B4B4B4B4B4B4B7A7B7C7D7E7F'
 00DC89 4B81828384858687           75226                       DC    X'4B8182838485868788894B4B4B4B4B4B'
 00DC99 4B91929394959697           75227                       DC    X'4B9192939495969798994B4B4B4B4B4B'
 00DCA9 4B4BA2A3A4A5A6A7           75228                       DC    X'4B4BA2A3A4A5A6A7A8A94B4B4B4B4B4B'
 00DCB9 4B4B4B4B4B4B4B4B           75229                       DC    X'4B4B4B4B4B4B4B4B4B4B4B4B4B4B4B4B'
 00DCC9 4BC1C2C3C4C5C6C7           75230                       DC    X'4BC1C2C3C4C5C6C7C8C94B4B4B4B4B4B'
 00DCD9 4BD1D2D3D4D5D6D7           75231                       DC    X'4BD1D2D3D4D5D6D7D8D94B4B4B4B4B4B'
 00DCE9 4B4BE2E3E4E5E6E7           75232                       DC    X'4B4BE2E3E4E5E6E7E8E94B4B4B4B4B4B'
 00DCF9 F0F1F2F3F4F5F6F7           75233                       DC    X'F0F1F2F3F4F5F6F7F8F94B4B4B4B4B4B'
1AMELIA   FIX - page fix memory                                                                                             Page  292
0Current Usings:  (COMMAND+4096,R8) (NIT,R12)
0Loc    Object Code    Addr1 Addr2  Stmt Lv Lineno    Source Statement           (Hibal 5, Asmedit 3.3)  HLASM R4.0  2004/03/15 13.11
+___    ______ ____    _____ _____  ____ __ ______    ______ _________
0                                  75235
                                   75236
                                   75237                 FIX -- Routine to page-fix memory.
                                   75238
                                   75239                   On entry:
                                   75240                     R1,R0 - starting addr, len
                                   75241

0000000                00000 00004 75242              FIXWA    RECORD BEGIN
 000000                            75250  1           FIXECB     DS    A
 000004                00004 00004 75251                       END
-00DD0A 90EF C020/4DE0_      00020 75261              FIX      PROC  FIXWA
 USING  *,R11
 USING  FIXWA-(4+52),R9
 00DD2E 18F1                       75314                       LR    R15,R1
 00DD30 1AF0                       75315                       AR    R15,R0              Ending address+1
 00DD32 06F0                       75316                       DECR  R15                 Actual ending address
                                   75318
 00DD34 D703 9038 9038 00000 00000 75319                       CLEAR FIXECB
 00DD3A 4100 9038            00000 75326                       LA    R0,FIXECB
 00DD3E 47F0 B01A/0000_      0DD48 75327                       PGSER R,FIX,A=(1),EA=(15),ECB=(0),LONG=Y  Fix pages (XA)
                                   75334
 00DD52 12FF/4780 B060             75335                       IF    (R15,NZ),BEGIN      Something unusual...
 00DD58 59F0 B8E6/4780_      0E614 75349  1                      IF    (R15,NE,8),'FAIL "PGFIX error"'
 00DD6A 0700/4510 B054_            75375  1                      WTO   'Page fix wait.'
 00DD84 4100 0001/4110_      00001 75383  1                      WAIT  ECB=FIXECB
 00DD8E                            75390                       END
                                   75394
 00DD8E 1BFF                       75395                       CLEAR R15                 Return code
 00DD90 18D9/980C D004_            75399                       PEND
 DROP   FIXWA-(4+52),R9
 DROP   *,R11
1AMELIA   AMODE switching routines                                                                                          Page  293
0Current Usings:  (COMMAND+4096,R8) (NIT,R12)
0Loc    Object Code    Addr1 Addr2  Stmt Lv Lineno    Source Statement           (Hibal 5, Asmedit 3.3)  HLASM R4.0  2004/03/15 13.11
+___    ______ ____    _____ _____  ____ __ ______    ______ _________
0                                  75425
                                   75426
                                   75427                AMODE31 -- Routine to switch to 31-bit addressing mode if
                                   75428                  we are running MVS/XA.
                                   75429
                                   75430                  (If you are not running MVS/XA then this routine can be
                                   75431                  commented out.)
                                   75432

000DD9E 90EF C020/4DE0_      00020 75433              AMODE31  PROC
 USING  *,R11
 00DDC2 4120 B00A            0DDCC 75475                       LA    R2,A31GO
 00DDC6 5620 B856            0E618 75476                       O     R2,=A(X'80000000')  31 bit mode wanted
 00DDCA 0B02                       75477                       BSM   0,R2
                                   75478
 00DDCC                            75479              A31GO    LABEL
                                   75481
 00DDCC 18D9/980C D004_            75482                       PEND
 DROP   *,R11
-                                  75503
                                   75504
                                   75505                AMODE24 -- Routine to switch back to 24-bit addressing mode.
                                   75506

000DDDA 90EF C020/4DE0_      00020 75507              AMODE24  PROC
 USING  *,R11
 00DDFE 4120 B006            0DE04 75549                       LA    R2,A24GO
 00DE02 0B02                       75550                       BSM   0,R2                24 bit mode wanted
                                   75551
 00DE04                            75552              A24GO    LABEL
                                   75554
 00DE04 18D9/980C D004_            75555                       PEND
 DROP   *,R11
1AMELIA   ESTAE exit routine                                                                                                Page  294
0Current Usings:  (COMMAND+4096,R8) (NIT,R12)
0Loc    Object Code    Addr1 Addr2  Stmt Lv Lineno    Source Statement           (Hibal 5, Asmedit 3.3)  HLASM R4.0  2004/03/15 13.11
+___    ______ ____    _____ _____  ____ __ ______    ______ _________
0                                  75576
                                   75577
                                   75578                 ESTAE exit routine.
                                   75579

000DE12                            75580                       DS    0H
 USING  ESTAE,R15                  75581              ESTAE    WITH  (ESTAE,R15),BEGIN
 00DE12 5900 F80A/4770_      0E61C 75596  1                      IF    (R0,EQ,12),BEGIN    No SDWA...
 00DE1A 1BFF                       75613  2                        CLEAR R15                 Abend, no retries
 00DE1C 07FE                       75617  2                        BR    R14
 00DE1E                            75618  1                      END
 00DE1E 900F F6C6            0E4D8 75622  1                      STM   R0,R15,ESTAERGS     Save regs
 DROP   ESTAE,R15                  75623                       END
                                   75631
 00DE22 0DB0                       75632                       BASE
 USING  *,R11
 00DE24 1861                       75646                       LR    R6,R1               SDWA ptr
 USING  SDWA,R6                    75647                       USING SDWA,R6
                                   75656
 00DE26 58C0 B7FC            0E620 75657                       L     NITR,=A(NIT)
 00DE2A 94FB C101      00101       75658                       CLEAR NITFTRC             Turn off tracing
                                   75665
 00DE2E 0700/4510 B014_            75666                       GETMAIN R,LV=32*1024      Get a separate STAE stack
 00DE3E 18D1                       75673                       LR    SPR,R1              Set stack
 00DE40 1891                       75674                       LR    WAR,R1              Ditto
                                   75675
 00DE42 58E0 B7EC/0DEE       0E610 75676                       ACALL AMODE31             Switch to 31-bit mode
                                   75680
 00DE48 41F0 C4B0/58E0_      004B0 75681                       SEGCLR NITPRSG
 00DE52 1B00/41F0 C4B0_            75694                       SEGWR
                                   75718
 00DE5E D617 C21C C21C_0021C 0021C 75719                       IF    (NITFAIL,NZ),BEGIN
 00DE68 4110 B894/4100_      0E6B8 75735  1                      SEGB  'FAIL:'
 00DE7A 4110 C21C/4100_      0021C 75753  1                      SEGWR NITFAIL
 00DE8C                            75781                       END
 00DE8C B06C/47F0 B0E2 0DE8C 0DE66 75785                       ELSE  BEGIN
 00DE90 4110 B899/4100_      0E6BD 75796  1                      SEGB  'ABEND, code ='
 00DEA2 1F22/BF27 6005             75814  1                      L3    R2,SDWAABCC+1
 00DEA8 5920 B80C/47D0_      0E630 75822  1                      IF    (R2,GT,4095),BEGIN
 00DEB0 4110 B8A6/4100_      0E6CA 75839  2                        SEG   'S'
 00DEC2 1812                       75856  2                        LR    R1,R2
 00DEC4 8810 000C            0000C 75857  2                        SRL   R1,12
 00DEC8 4100 0003/41F0_      00003 75858  2                        SEGHX (R1),3
 00DED6                            75881  1                      END
 00DED6 B0B6/47F0 B0D6 0DED6 0DEAE 75885  1                      ELSE  BEGIN
 00DEDA 4110 B8A7/4100_      0E6CB 75896  2                        SEG   'U'
 00DEEC 1812/1B00/41F0_            75913  2                        SEGDC (R2)
 00DEFA                            75934  1                      END
 00DEFA 1B00/41F0 C4B0_            75938  1                      SEGWR
 00DF06                            75962                       END
                                   75966
 00DF06 4110 B8A8/4100_      0E6CC 75967                       SEGWR ' '
 00DF18 58E0 B81C/0DEE       0E640 75985                       ACALL NETCLOSE            Disable ethernet interface
1AMELIA   ESTAE exit routine                                                                                                Page  295
0Current Usings:  (SDWA,R6) (COMMAND+4096,R8) (*,R11) (NIT,R12)
0Loc    Object Code    Addr1 Addr2  Stmt Lv Lineno    Source Statement           (Hibal 5, Asmedit 3.3)  HLASM R4.0  2004/03/15 13.11
+___    ______ ____    _____ _____  ____ __ ______    ______ _________
0                                  75989
 00DF1E D501 B854 6005_0E678 00005 75990                       IF    (SDWAABCC+1,EQ,=X'2220'),ESTAEXIT  Exit if cancel
                                   76010
 00DF28 9602 C101      00101       76011                       SET   NITFPNTS            Turn off time stamp
                                   76017
 00DF2C 4110 B8A8/4100_      0E6CC 76018                       SEGWR ' '
 00DF3E 4110 B8A9/4100_      0E6CD 76036                       SEG   'PSW addr = '
 00DF50 5820 606C            0006C 76053                       L     R2,SDWANXT1
 00DF54 1812/4100 0008_            76054                       SEGHX (R2),8
 00DF64 5420 B820            0E644 76078                       N     R2,=A(X'FFFFFF')
 00DF68 5F20 B824            0E648 76079                       SL    R2,=A(AMELIA)       Calc offset
 00DF6C 1222/47D0 B188_            76080                       IF    ((R2,POS),AND,(R2,LT,=A(100000))),BEGIN
 00DF7A 4110 B856/4100_      0E67A 76109  1                      SEG   ' (AMELIA+0'
 00DF8C 1812/1B00/41F0_            76126  1                      SEGHX (R2)
 00DF9A 4110 B8B4/4100_      0E6D8 76147  1                      SEG   ')'
 00DFAC                            76164                       END
 00DFAC 1B00/41F0 C4B0_            76168                       SEGWR
                                   76192
 00DFB8 4110 B8B5/4100_      0E6D9 76193                       SEG   'SVC PSW addr = '
 00DFCA 5820 607C            0007C 76210                       L     R2,SDWANXT2
 00DFCE 1812/4100 0008_            76211                       SEGHX (R2),8
 00DFDE 5420 B820            0E644 76235                       N     R2,=A(X'FFFFFF')
 00DFE2 5F20 B824            0E648 76236                       SL    R2,=A(AMELIA)       Calc offset
 00DFE6 1222/47D0 B202_            76237                       IF    ((R2,POS),AND,(R2,LT,=A(100000))),BEGIN
 00DFF4 4110 B856/4100_      0E67A 76266  1                      SEG   ' (AMELIA+0'
 00E006 1812/1B00/41F0_            76283  1                      SEGHX (R2)
 00E014 4110 B8B4/4100_      0E6D8 76304  1                      SEG   ')'
 00E026                            76321                       END
 00E026 1B00/41F0 C4B0_            76325                       SEGWR
                                   76349
 00E032 4110 B8A8/4100_      0E6CC 76350                       SEGWR ' '
 00E044 4110 B860/4100_      0E684 76368                       SEGWR 'Registers:'
 00E056 1B00/41F0 C4B0_            76386                       SEGWR
 00E062 4120 6018            00018 76410                       LA    R2,SDWAGRSV         Register area
 00E066 1B33                       76411                       CLEAR R3                  Counter
 00E068 5930 B82C/4730_      0E650 76415                       WHILE (R3,LE,15),BEGIN
 00E070 4110 B8A8/4100_      0E6CC 76434  1                      SEG   ' '
 00E082 5810 2000/4100_      00000 76451  1                      SEGHX L:@R2,8
 00E094 4122 0004            00004 76475  1                      LA    R2,4(R2)
 00E098 5E30 B830            0E654 76476  1                      INCR  R3
 00E09C 1803                       76479  1                      LR    R0,R3
 00E09E 5400 B834            0E658 76480  1                      N     R0,=A(7)
 00E0A2 4770 B2A0/1B00_      0E0C4 76481  1                      IF    Z,'SEGWR;SEGWR " "'
 00E0C4 47F0 B244            0E068 76539                       END
                                   76544
 00E0C8 4110 B8A8/4100_      0E6CC 76545                       SEGWR ' '
 00E0DA 4110 B8C4/4100_      0E6E8 76563                       SEGWR 'Trace table entries'
 00E0EC 4110 B8A8/4100_      0E6CC 76581                       SEGWR ' '
 00E0FE 4110 B794/4100_      0E5B8 76599                       SEG   '  Addr    Time        ID        '
 00E110 4110 B7B4/4100_      0E5D8 76616                       SEGWR 'R0        R1        R14              R15'
 00E122 5840 C018            00018 76634                       L     R4,NITTRCUR         Most recent entry address
 00E126                            76635                       LOOP  BEGIN
 00E126 4144 0050            00050 76641  1                      LA    R4,L'TRCENTRY(R4)   Step to next entry
 00E12A 5940 C01C/4750_      0001C 76642  1                      IF    (R4,GE,NITTREND),'L R4,NITTRBEG'  Check for wrap
1AMELIA   ESTAE exit routine                                                                                                Page  296
0Current Usings:  (TRCENTRY,R4) (SDWA,R6) (COMMAND+4096,R8) (*,R11) (NIT,R12)
0Loc    Object Code    Addr1 Addr2  Stmt Lv Lineno    Source Statement           (Hibal 5, Asmedit 3.3)  HLASM R4.0  2004/03/15 13.11
+___    ______ ____    _____ _____  ____ __ ______    ______ _________
0USING  TRCENTRY,R4                76665  1                      WITH  (TRCENTRY,R4)
 00E136 D607 4000 4000_00000 00000 76678  1                      IF    (TRCCLOCK,Z),NEXT   Skip if empty entry
 00E140 1814/4100 0008_            76697  1                      SEGHX (R4),8              Format entry address
 00E150 4110 B86A/4100_      0E68E 76721  1                      SEG   '  '
 00E162 9801 4000            00000 76738  1                      LM    R0,R1,TRCCLOCK
 00E166 41F0 B6F4            0E518 76739  1                      LA    R15,ESTAEWRK        Work area
 00E16A 58E0 B7E0/0DEE       0E604 76740  1                      ACALL FMTTIME             Format time
 00E170 41F0 C4B0/58E0_      004B0 76744  1                      SEGB  (R1),(R0)
 00E17A 4110 4008/4100_      00008 76768  1                      SEG   TRCNAME             Trace id
 00E18C 4110 B86A/4100_      0E68E 76795  1                      SEG   '  '
 00E19E 5810 4010/4100_      00010 76812  1                      SEGHX L:TRCREGS,8         R0
 00E1B0 4110 B86A/4100_      0E68E 76836  1                      SEG   '  '
 00E1C2 5810 4014/4100_      00014 76853  1                      SEGHX L:TRCREGS+4,8       R1
 00E1D4 4110 B86A/4100_      0E68E 76877  1                      SEG   '  '
 00E1E6 5810 4048/4100_      00048 76894  1                      SEGHX L:TRCREGS+14*4,8    R14
 00E1F8 5820 4048            00048 76918  1                      L     R2,TRCREGS+14*4
 00E1FC 4122 0000            00000 76919  1                      LA    R2,0(R2)
 00E200 1B2C                       76920  1                      SR    R2,NITR
 00E202 5920 B828/47D0_      0E64C 76921  1                      IF    (R2,GT,100000),BEGIN
 00E20A 4110 C23C/4100_      0023C 76938  2                        SEG   NITBLANK,9
 00E21C                            76967  1                      END
 00E21C B3FC/47F0 B430 0E21C 0E208 76971  1                      ELSE  BEGIN
 00E220 4110 B86C/4100_      0E690 76982  2                        SEG   ' ('
 00E232 1812/4100 0004_            76999  2                        SEGHX (R2),4
 00E242 4110 B8D7/4100_      0E6FB 77023  2                        SEG   ')  '
 00E254                            77040  1                      END
 00E254 5810 404C/4100_      0004C 77044  1                      SEGHX L:TRCREGS+15*4,8    R15
 00E266 1B00/41F0 C4B0_            77068  1                      SEGWR ,
 00E272 5940 C018/4780_      00018 77092  1                      IF    (R4,EQ,NITTRCUR),EXIT             Check if done
 00E27A 47F0 B302            0E126 77112                       END
 DROP   TRCENTRY,R4
                                   77122
 00E27E 4110 B8A8/4100_      0E6CC 77123                       SEGWR ' '
 00E290 4110 B8A8/4100_      0E6CC 77141                       SEGWR ' '
 00E2A2 4110 B8DA/4100_      0E6FE 77159                       SEGB  'Last packet received at'
 00E2B4 9801 C744            00744 77177                       LM    R0,R1,NITRDTIM
 00E2B8 41F0 B6F4            0E518 77178                       LA    R15,ESTAEWRK        Work area
 00E2BC 58E0 B7E0/0DEE       0E604 77179                       ACALL FMTTIME             Format time
 00E2C2 41F0 C4B0/58E0_      004B0 77183                       SEGWR (R1),(R0)
 00E2CC 1B00/41F0 C4B0_            77207                       SEGWR
 00E2D8 5820 C740            00740 77231                       L     R2,NITIBUFP         Read buffer address
 00E2DC 4110 2002/4800_      00002 77232                       SETMSG @R2+2,LH:@R2
 00E2E4 41F0 C4B0            004B0 77245                       LA    R15,NITPRSG         SEGCB
 00E2E8 58E0 B838/0DEE       0E65C 77246                       ACALL FMTPACK             Format packet
                                   77250
 00E2EE D603 C11C C11C_0011C 0011C 77251                       IF    (NITPATQH,NZ),BEGIN
 00E2F8 4110 B8A8/4100_      0E6CC 77267  1                      SEGWR ' '
 00E30A D603 C124 C124_00124 00124 77285  1                      IF    (NITPCUR,NZ),BEGIN
 00E314 4110 B8A8/4100_      0E6CC 77301  2                        SEGWR ' '
 00E326 4110 B8F1/4100_      0E715 77319  2                        SEGB  'Current path block address:'
 00E338 5810 C124/4100_      00124 77337  2                        SEGHX L:NITPCUR,8
 00E34A 1B00/41F0 C4B0_            77361  2                        SEGWR
 00E356                            77385  1                      END
 00E356 4110 B8A8/4100_      0E6CC 77389  1                      SEGWR ' '
1AMELIA   ESTAE exit routine                                                                                                Page  297
0Current Usings:  (SDWA,R6) (COMMAND+4096,R8) (*,R11) (NIT,R12)
0Loc    Object Code    Addr1 Addr2  Stmt Lv Lineno    Source Statement           (Hibal 5, Asmedit 3.3)  HLASM R4.0  2004/03/15 13.11
+___    ______ ____    _____ _____  ____ __ ______    ______ _________
000E368 4110 B86E/4100_      0E692 77407  1                      SETMSG 'SHOW PATHS'
 00E370 41F0 C4B0            004B0 77411  1                      LA    R15,NITPRSG
 00E374 58E0 B83C/0DEE       0E660 77412  1                      ACALL COMMAND
 00E37A                            77416                       END
                                   77420
 00E37A D603 C0D0 C0D0_000D0 000D0 77421                       IF    (NITTCBQ,NZ),BEGIN
 00E384 4110 B8A8/4100_      0E6CC 77437  1                      SEGWR ' '
 00E396 4110 B8A8/4100_      0E6CC 77455  1                      SEGWR ' '
 00E3A8 4110 B90C/4100_      0E730 77473  1                      SEGWR 'TCP Connections'
 00E3BA 1B00/41F0 C4B0_            77491  1                      SEGWR
 00E3C6 4110 B840/4100_      0E664 77515  1                      SETMSG 'SHOW TCP ALL'      Format TCP control blocks
 00E3CE 41F0 C4B0            004B0 77519  1                      LA    R15,NITPRSG
 00E3D2 58E0 B83C/0DEE       0E660 77520  1                      ACALL COMMAND
 00E3D8                            77524                       END
                                   77528              *
                                   77529              *
 00E3D8 4110 B8A8/4100_      0E6CC 77530                       SEGWR ' '
 00E3EA 4110 B8A8/4100_      0E6CC 77548                       SEGWR ' '
 00E3FC 4110 B878/4100_      0E69C 77566                       SEGWR 'First part of NIT:'
 00E40E 4110 B8A8/4100_      0E6CC 77584                       SEGWR ' '
 00E420 181C/4100 0100_            77602                       HEXDUMP (NITR),256,CHARS=EBCDIC,FORMAT=ADDRESS
 00E434 1B00/41F0 C4B0_            77630                       SEGWR
                                   77654
 00E440 94FD C101      00101       77655              ESTAEXIT CLEAR NITFPNTS            Turn on time stamp
                                   77663
 00E444 4110 B8A8/4100_      0E6CC 77664                       SEGWR ' '
 00E456 4110 B8A8/4100_      0E6CC 77682                       SEGWR ' '
 00E468 4110 B88A/4100_      0E6AE 77700                       SETMSG 'SHOW HOSTS'
 00E470 41F0 C4B0            004B0 77704                       LA    R15,NITPRSG
 00E474 58E0 B83C/0DEE       0E660 77705                       ACALL COMMAND
 00E47A 4110 B8A8/4100_      0E6CC 77709                       SEGWR ' '
 00E48C 4110 B8A8/4100_      0E6CC 77727                       SEGWR ' '
 00E49E 4110 B91B/4100_      0E73F 77745                       SETMSG 'SHOW INFO'
 00E4A6 41F0 C4B0            004B0 77749                       LA    R15,NITPRSG
 00E4AA 58E0 B83C/0DEE       0E660 77750                       ACALL COMMAND
 00E4B0 4110 B8A8/4100_      0E6CC 77754                       SEGWR ' '
                                   77772
 00E4C2 58E0 B850/0DEE       0E674 77773                       ACALL CLEANUP             Tidy up
                                   77777
 00E4C8 4110 6000            00000 77778                       LA    R1,SDWA             Needed for SETRP
 00E4CC 0700/9200 10FC             77779                       SETRP RC=0                Continue abending
 00E4D0 980F B6B4            0E4D8 77786                       LM    R0,R15,ESTAERGS     Restore regs
 00E4D4 1BFF                       77787                       CLEAR R15                 No retries
 00E4D6 07FE                       77791                       BR    R14
                                   77792
 DROP   SDWA,R6                    77793                       DROP  SDWA,BR
 DROP   *,R11
                                   77807
 00E4D8                            77808              ESTAERGS DS    16A                 Save area for all regs
 00E518                            77809              ESTAEWRK DS    CL16
1AMELIA   CLEANUP - final cleanup                                                                                           Page  298
0Current Usings:  (COMMAND+4096,R8) (NIT,R12)
0Loc    Object Code    Addr1 Addr2  Stmt Lv Lineno    Source Statement           (Hibal 5, Asmedit 3.3)  HLASM R4.0  2004/03/15 13.11
+___    ______ ____    _____ _____  ____ __ ______    ______ _________
0                                  77811
                                   77812
                                   77813                 CLEANUP -- Routine to do final cleanup before shutdown.
                                   77814

000E528 90EF C020/4DE0_      00020 77815              CLEANUP  PROC
 USING  *,R11
 00E54C 58C0 B0D4            0E620 77857                       L     NITR,=A(NIT)
                                   77858
                                   77859                         Delete console action message
                                   77860
 00E550 D603 C150 C150_00150 00150 77861                       IF    (NITCWTO,NZ),BEGIN  If error msg on console,
 00E55A 5810 C150            00150 77877  1                      L     R1,NITCWTO          Msg id
 00E55E 4100 0000/0A57       00000 77878  1                      DOM   MSG=(1)             Delete msg
 00E564 D703 C150 C150 00150 00150 77881  1                      CLEAR NITCWTO             Show no msg up now
 00E56A                            77888                       END
                                   77892
                                   77893                         Close SYSPRINT (if it's open).
                                   77894
 00E56A 58E0 B0C0/0DEE       0E60C 77895                       ACALL AMODE24             ********
 00E570 4120 C444            00444 77899                       LA    R2,NITPRDCB
 USING  DCB,R2                     77900                       WITH  (DCB,R2),BEGIN
 00E574 9110 2030/47E0_00030       77914  1                      IF    DCBOFLGS.DCBOFOPN,BEGIN  SYSPRINT open...
 00E57C 4510 B038/80/0_      0E584 77930  2                        CLOSE (NITPRDCB)
 00E586                            77936  1                      END
 DROP   DCB,R2                     77940                       END
 00E586 58E0 B0C4/0DEE       0E610 77948                       ACALL AMODE31             ********
                                   77952
 00E58C 18D9/980C D004_            77953                       PEND
 DROP   *,R11
                                   77973                       QLTORG
1AMELIA   SCNSYSIN - Read parameter file                                                                                    Page  299
0Current Usings:  (COMMAND+4096,R8) (NIT,R12)
0Loc    Object Code    Addr1 Addr2  Stmt Lv Lineno    Source Statement           (Hibal 5, Asmedit 3.3)  HLASM R4.0  2004/03/15 13.11
+___    ______ ____    _____ _____  ____ __ ______    ______ _________
0                                  78039
                                   78040
                                   78041                 SCNSYSIN -- Called to process parm and host files
                                   78042
                                   78043                   On entry:  R0  = Record processing routine addr
                                   78044                              R1  = DCB address
                                   78045                              R15 = SEGCB address for messages
                                   78046

0000000                00000 000FF 78047              INITWA   RECORD BEGIN
 000000                            78055  1           INITPTR    DS    2F                  SYSIN buffer ptrs
 000008                            78056  1           INITPRTN   DS    A                   Processing routine addr
 00000C                            78057  1           INITSEGB   DS    A                   SEGCB address
                                   78058  1
 000010                            78059  1           LINENO     DS    F                   Line-number
 000014                            78060  1           LINE       DS    CL235               Unpressed line area
 0000FF                000FF 000FF 78061                       END
-00E754 90EF C020/4DE0_      00020 78071              SCNSYSIN PROC  INITWA
 USING  *,R11
 USING  INITWA-(4+52),R9
                                   78124
                                   78125                         Process SYSIN file.
                                   78126
 00E778 5000 9040            00008 78127                       ST    R0,INITPRTN         Save routine address
 00E77C 50F0 9044            0000C 78128                       ST    R15,INITSEGB        Save SEGCB address
                                   78129                       SEGDEF L:INITSEGB
 00E780 1861                       78130                       LR    R6,R1               DCB address
 USING  DCB,R6                     78131                       WITH  (DCB,R6)
 00E782 58E0 B4A8/0DEE       0EC20 78144                       ACALL AMODE24             ********
 00E788 4510 B018/0000_      0E790 78148                       OPEN  ((6),(INPUT))
 00E79A 182F                       78155                       LR    R2,R15              Save RC
 00E79C 58E0 B4AC/0DEE       0EC24 78156                       ACALL AMODE31             ********
                                   78160
 00E7A2 9110 6030/4710_00030       78161                       IF    ~DCBOFLGS.DCBOFOPN,BEGIN
 00E7AA 4110 B50C/4100_      0EC84 78177  1                      SEGB  'Open failed for'
 00E7BC 4110 6028/4100_      00028 78193  1                      SEGB  DCBDDNAM
 00E7CE 4110 B4B4/4100_      0EC2C 78219  1                      SEG   ' RC='
 00E7E0 1812/1B00/58F0_            78234  1                      SEGDC (R2)
 00E7EE 1B00/58F0 9044_            78253  1                      SEGWR ,
 00E7FA 47F0 B1B0            0E928 78275  1                      EXIT  SCNSYSIN
 00E7FE                            78278                       END
                                   78282
 00E7FE 1B44/1B55                  78283                       CLEAR R4,R5               Preset (not in a buffer yet)
 00E802 9045 9038            00000 78289                       STM   R4,R5,INITPTR       Save buffer ptrs
                                   78290
 00E806 9845 9038            00000 78291              PARMFILE LM    R4,R5,INITPTR       Get buffer ptrs
 00E80A 1244/4720 B0D4             78292                       IF    (R4,NP),BEGIN       Get next buffer...
 00E810 58E0 B4A8/0DEE       0EC20 78306  1                      ACALL AMODE24             ********
 00E816 1816/1FFF/BFF7_            78310  1                      GET   (6)                 Get next buffer/record
 00E820 58E0 B4AC/0DEE       0EC24 78316  1                      ACALL AMODE31             ********
 00E826 1851                       78320  1                      LR    R5,R1
1AMELIA   SCNSYSIN - Read parameter file                                                                                    Page  300
0Current Usings:  (DCB,R6) (COMMAND+4096,R8) (INITWA-(4+52),R9) (*,R11) (NIT,R12)
0Loc    Object Code    Addr1 Addr2  Stmt Lv Lineno    Source Statement           (Hibal 5, Asmedit 3.3)  HLASM R4.0  2004/03/15 13.11
+___    ______ ____    _____ _____  ____ __ ______    ______ _________
000E828 91C0 6024/47E0_00024       78321  1                      IF    DCBRECFM.DCBRECU,BEGIN  WYLBUR edit format...
 00E830 4840 1000            00000 78337  2                        LH    R4,@R1              Record length
 00E834 4940 6052/47D0_      00052 78338  2                        CEIL  R4,DCBLRECL         Keep us honest
 00E840 4B40 B508            0EC80 78344  2                        SH    R4,=H'2'            Don't include record len hw
 00E844 47D0 B08E            0E806 78345  2                        BNP   PARMFILE
 00E848 4150 5002            00002 78346  2                        LA    R5,@R5+2
 00E84C                            78347  1                      END
 00E84C                            78351                       END
                                   78355
 00E84C 91C0 6024/47E0_00024       78356                       IF    DCBRECFM.DCBRECU,BEGIN  Unpress WYLBUR format line...
 00E854 18F5                       78372  1                      LR    R15,R5              Pressed line ptr
 00E856 4110 904C            00014 78373  1                      LA    R1,LINE
 00E85A 58E0 B4C4/0DEE       0EC3C 78374  1                      ACALL UNPRESS             Unpress line
 00E860 50F0 9048            00010 78378  1                      ST    R15,LINENO          Save WYLBUR lineno
 00E864 1FFF/43F0 5004             78379  1                      LC    R15,@R5+4           Len byte
 00E86A 41F0 F005            00005 78386  1                      LA    R15,@R15+5          Total pressed line len
 00E86E 1A5F                       78387  1                      AR    R5,R15
 00E870 1B4F                       78388  1                      SR    R4,R15
 00E872                            78389                       END
                                   78393
 00E872 B0FE/47F0 B134 0E872 0E852 78394                       ELSE  BEGIN               Fixed or variable...
 00E876 4800 6052            00052 78405  1                      LH    R0,DCBLRECL
 00E87A 5900 B4C8/4770_      0EC40 78406  1                      IF    ((R0,EQ,80),AND,(@R5+76,EQ,'.')),'LA R0,72' No lineno
 00E88E 5900 B4CC/47D0_      0EC44 78444  1                      CEIL  R0,L'LINE
 00E89A 18F0                       78463  1                      LR    R15,R0
 00E89C 06F0/12FF/4740_            78464  1                      MOVE  R15,LINE,@R5
 00E8A8 4110 904C            00014 78502  1                      SETMSG LINE,(R0)
 00E8AC                            78515                       END
                                   78519
 00E8AC 9045 9038            00000 78520                       STM   R4,R5,INITPTR       Save buffer ptrs
                                   78521
                                   78522                         Input line is now pointed to by R1 with length in R0.
                                   78523
 00E8B0 58F0 9044            0000C 78524                       L     R15,INITSEGB        SEGCB address
 00E8B4 58E0 9040            00008 78525                       L     R14,INITPRTN
 00E8B8 05EE                       78526                       BALR  R14,R14
 00E8BA 47F0 B08E            0E806 78527                       B     PARMFILE
                                   78528
                                   78529                         End of SYSIN file (from EODAD= in DCB).
                                   78530
 00E8BE 58E0 B4A8/0DEE       0EC20 78531              INEOF    ACALL AMODE24             ********
 00E8C4 4510 B154/0000_      0E8CC 78535                       CLOSE ((6))
 00E8D6 1816/9101 1017_            78542                       FREEPOOL (6)
 00E922 58E0 B4AC/0DEE       0EC24 78568                       ACALL AMODE31             ********
 00E928 18D9/980C D004_            78572                       PEND
 DROP   DCB,R6
 DROP   INITWA-(4+52),R9
 DROP   *,R11
1AMELIA   SCANPARM- Scan initialization parameters                                                                          Page  301
0Current Usings:  (COMMAND+4096,R8) (NIT,R12)
0Loc    Object Code    Addr1 Addr2  Stmt Lv Lineno    Source Statement           (Hibal 5, Asmedit 3.3)  HLASM R4.0  2004/03/15 13.11
+___    ______ ____    _____ _____  ____ __ ______    ______ _________
0                                  78603
                                   78604
                                   78605                 SCANPARM-- Routine to process parameters.
                                   78606
                                   78607                   On entry:
                                   78608                     R1,R0 - parm loc, len
                                   78609
                                   78610

0000000                00000 00008 78611              SCANPWA  RECORD BEGIN
 000000                            78619  1           SCANPLEN   DS    F                   Saved parm length
 000004                            78620  1           SCANPADD   DS    A                   Saved parm address
 000008                00008 00008 78621                       END
                                   78630
 00E936 90EF C020/4DE0_      00020 78631              SCANPARM PROC  SCANPWA
 USING  *,R11
 USING  SCANPWA-(4+52),R9
 00E95A 9001 9038            00000 78684                       STM   R0,R1,SCANPLEN      Save calling parms
 00E95E 41F0 C7F8/58E0_      007F8 78685                       SCINIT (R1),(R0),NITSCNCB   Init scanner
 00E968 4110 B044/41F0_      0E99E 78705              SCANNEXT SCAN  PARMPRT,NITSCNCB      Call scanner
 00E976 4780 B040            0E99A 78724                       IF    NZ,BEGIN              If error, write log msg
 00E97A 4110 B339/4100_      0EC93 78735  1           SCANERR    SEGWR 'Parm error scanning the following line:',,NITPRSG
 00E98C 9801 9004            00004 78753  1                      PRESTORE (R0,R1)            Get original regs
 00E990 41F0 C4B0/58E0_      004B0 78755  1                      SEGWR (R1),(R0)             Log original line
 00E99A                            78779                       END
 00E99A 47F0 B1F4            0EB4E 78783                       EXIT  SCANPARM
-                                  78787
                                   78788                         Parm file scan table.
                                   78789
 00E99E 0600EA22C1C4C4C8           78790              PARMPRT  SCKW  ADDHOST,PARMCMD
 00E9A9 8500EA34C4D6D4C1           78792                       SCKW  DOMAIN,PARMDOMN,P
 00E9B3 8700EA7EC7C1E3C5           78794                       SCKW  GATEADDR,PARMGATE,P
 00E9BF 0700EA22C8D6E2E3           78796                       SCKW  HOSTLOAD,PARMCMD
 00E9CB 8500EA6CC9D7C1C4           78798                       SCKW  IPADDR,PARMIP,P
 00E9D5 8700EAA2D3D6C3C1           78800                       SCKW  LOCALNET,PARMLNET,P
 00E9E1 8600EA90D5C5E3D4           78802                       SCKW  NETMASK,PARMMASK,P
 00E9EC 8700EABCD7C1E3C8           78804                       SCKW  PATHNAME,PARMPATH,P
 00E9F8 0200EA22E2C5E3             78806                       SCKW  SET,PARMCMD
 00E9FF 0300EA22E2C8D6E6           78808                       SCKW  SHOW,PARMCMD
 00EA07 A600EADCE3C3D7D7           78810                       SCKW  TCPPORT,PARMTCPP,(P,PI)
 00EA12 0F00EAB4D5D6C4C5           78812                       SCKW  NODEVICE,PARMNDEV,A
 00EA1E FF00E97A                   78814                       SCKW  ,SCANERR
                                   78816
 00EA22 9801 9038            00000 78817              PARMCMD  LM    R0,R1,SCANPLEN      Get original len and addr
 00EA26 41F0 C4B0            004B0 78818                       LA    R15,NITPRSG         Print SEGCB
 00EA2A 58E0 B2F6/0DEE       0EC50 78819                       ACALL COMMAND             Process as command
 00EA30 47F0 B1F4            0EB4E 78823                       EXIT  SCANPARM            Return
                                   78826
 00EA34 1200/47D0 B020_            78827              PARMDOMN IF    ((R0,NP),OR,(R0,GT,L'NITDNAME-1)),SCANERR  Check len
 00EA42 D201 C060 B328 00060 0EC82 78861                       MVC   NITDNAME(2),=C'. '  Init output area
 00EA48 D21D C062 C061 00062 00061 78862                       MVC   NITDNAME+2(L'NITDNAME-2),NITDNAME+1
1AMELIA   SCANPARM- Scan initialization parameters                                                                          Page  302
0Current Usings:  (COMMAND+4096,R8) (SCANPWA-(4+52),R9) (*,R11) (NIT,R12)
0Loc    Object Code    Addr1 Addr2  Stmt Lv Lineno    Source Statement           (Hibal 5, Asmedit 3.3)  HLASM R4.0  2004/03/15 13.11
+___    ______ ____    _____ _____  ____ __ ______    ______ _________
000EA4E 18F0                       78863                       LR    R15,R0
 00EA50 06F0/44F0 B366_            78864                       DEX   R15,'MVC NITDNAME+1(0),@R1'  Save domain name
 00EA56 58F0 B2FE            0EC58 78883                       L     R15,=A(LOWCASE)
 00EA5A DC1F C060 F000 00060 00000 78884                       TR    NITDNAME,@R15       Translate to lower case
 00EA60 5E00 B302            0EC5C 78885                       INCR  R0                  Incr length for leading '.'
 00EA64 5000 C05C            0005C 78888                       ST    R0,NITDOMLN         Save domain text length
 00EA68 47F0 B00E            0E968 78889                       B     SCANNEXT
                                   78890
 00EA6C 58E0 B306/0DEE       0EC60 78891              PARMIP   ACALL CNVTIP              Convert our IP address
 00EA72 4780 B020            0E97A 78895                       IF    Z,SCANERR           Br if not valid
 00EA76 50F0 C034            00034 78909                       ST    R15,NITIP           Save IP address
 00EA7A 47F0 B00E            0E968 78910                       B     SCANNEXT
                                   78911
 00EA7E 58E0 B306/0DEE       0EC60 78912              PARMGATE ACALL CNVTIP              Convert gateway IP address
 00EA84 4780 B020            0E97A 78916                       IF    Z,SCANERR           Br if not valid
 00EA88 50F0 C040            00040 78930                       ST    R15,NITGATE         Save address
 00EA8C 47F0 B00E            0E968 78931                       B     SCANNEXT
                                   78932
 00EA90 58E0 B306/0DEE       0EC60 78933              PARMMASK ACALL CNVTIP              Convert subnet mask
 00EA96 4780 B020            0E97A 78937                       IF    Z,SCANERR           Br if not valid
 00EA9A 50F0 C03C            0003C 78951                       ST    R15,NITMASK         Save address
 00EA9E 47F0 B00E            0E968 78952                       B     SCANNEXT
                                   78953
 00EAA2 58E0 B306/0DEE       0EC60 78954              PARMLNET ACALL CNVTIP              Convert local net mask
 00EAA8 4780 B020            0E97A 78958                       IF    Z,SCANERR           Br if not valid
 00EAAC 50F0 C044            00044 78972                       ST    R15,NITLMASK        Save address
 00EAB0 47F0 B00E            0E968 78973                       B     SCANNEXT
                                   78974
 00EAB4 9680 C103      00103       78975              PARMNDEV SET   NITFNODEV           No I/O device
 00EAB8 47F0 B00E            0E968 78982                       B     SCANNEXT
                                   78983
 00EABC 1200/47D0 B020_            78984              PARMPATH IF    ((R0,NP),OR,(R0,GT,8)),SCANERR
 00EACA D207 C054 C23C 00054 0023C 79018                       MVC   NITPATH,NITBLANK
 00EAD0 18F0                       79019                       LR    R15,R0
 00EAD2 06F0/44F0 B36C_            79020                       DEX   R15,'MVC NITPATH(*-*),@R1'
 00EAD8 47F0 B00E            0E968 79039                       B     SCANNEXT
                                   79040
 00EADC 1200/47D0 B020             79041              PARMTCPP IF    (R0,NP),SCANERR
 00EAE2 5820 C7F8            007F8 79059                       L     R2,SCNVAL           Save port number
 00EAE6 58E0 B30E/0DEE       0EC68 79060                       ACALL GETTOKEN            Get id text
 00EAEC 58E0 B312/0DEE       0EC6C 79064                       ACALL LRTRIM
 00EAF2 1200/47D0 B020             79068                       IF    (R0,NP),SCANERR
 00EAF8 1830                       79085                       LR    R3,R0               Save text len and addr
 00EAFA 1841                       79086                       LR    R4,R1
 00EAFC 4150 C0F0            000F0 79087                       LA    R5,NITTPORT-(TPORTNXT-TPORT)
 USING  TPORT,R5                   79088                       USING TPORT,R5
 00EB00 D603 5000 5000_00000 00000 79097                       WHILE (TPORTNXT,NZ),'L R5,TPORTNXT'
 00EB12 0700/4510 B1C2_            79122                       GETMAIN R,LV=L'TPORT
 00EB22 5010 5000            00000 79129                       ST    R1,TPORTNXT
 00EB26 1851                       79130                       LR    R5,R1
 00EB28 D70F 5000 5000 00000 00000 79131                       CLEAR TPORT
 00EB2E 5020 5004            00004 79138                       ST    R2,TPORTNUM
 00EB32 D207 5008 C23C 00008 0023C 79139                       MVC   TPORTID,NITBLANK
 00EB38 5930 B316/47D0_      0EC70 79140                       CEIL  R3,L'TPORTID
1AMELIA   SCANPARM- Scan initialization parameters                                                                          Page  303
0Current Usings:  (TPORT,R5) (COMMAND+4096,R8) (SCANPWA-(4+52),R9) (*,R11) (NIT,R12)
0Loc    Object Code    Addr1 Addr2  Stmt Lv Lineno    Source Statement           (Hibal 5, Asmedit 3.3)  HLASM R4.0  2004/03/15 13.11
+___    ______ ____    _____ _____  ____ __ ______    ______ _________
000EB44 0630/4430 B372_            79159                       DEX   R3,'MVC TPORTID(0),@R4'
 00EB4A 47F0 B00E            0E968 79178                       B     SCANNEXT
 DROP   TPORT,R5                   79179                       DROP  R5
                                   79186
 00EB4E 18D9/980C D004_            79187                       PEND
 DROP   SCANPWA-(4+52),R9
 DROP   *,R11
1AMELIA   CNVTIP - Scan and convert IP address                                                                              Page  304
0Current Usings:  (COMMAND+4096,R8) (NIT,R12)
0Loc    Object Code    Addr1 Addr2  Stmt Lv Lineno    Source Statement           (Hibal 5, Asmedit 3.3)  HLASM R4.0  2004/03/15 13.11
+___    ______ ____    _____ _____  ____ __ ______    ______ _________
0                                  79213
                                   79214
                                   79215                CNVTIP - Convert IP address
                                   79216
                                   79217                      On entry:  R0,R1 = length and pointer to IP address
                                   79218
                                   79219                      On exit:   CC=Z   Not valid IP address
                                   79220                                 CC=NZ  IP address returned in R15
                                   79221

000EB5C 90EF C020/4DE0_      00020 79222              CNVTIP   PROC
 USING  *,R11
 00EB80 95AD 1000/4770_00000       79264                       IF    (@R1,EQ,'['),BEGIN  Check for [addr]
 00EB88 18F1                       79280  1                      LR    R15,R1
 00EB8A 1AF0                       79281  1                      AR    R15,R0
 00EB8C 06F0                       79282  1                      DECR  R15
 00EB8E 95BD F000/4770_00000       79284  1                      IF    (@R15,EQ,']'),BEGIN
 00EB96 5E10 B0DC            0EC5C 79300  2                        INCR  R1
 00EB9A 0600                       79303  2                        DECR  R0
 00EB9C 0600                       79305  2                        DECR  R0
 00EB9E                            79307  1                      END
 00EB9E                            79311                       END
                                   79315
 00EB9E 1821                       79316                       LR    R2,R1               Copy parm address
 00EBA0 1830                       79317                       LR    R3,R0               Copy parm length
 00EBA2 1A31                       79318                       AR    R3,R1               Get parm end address
 00EBA4 1B44                       79319                       CLEAR R4                  Clear loop counter
 00EBA6 1B55                       79323                       CLEAR R5                  Init result register
 00EBA8 1923/47B0 B07E             79327                       WHILE (R2,LT,R3),BEGIN
 00EBAE 1812                       79344  1                      LR    R1,R2               Copy parm pointer
 00EBB0 1923/47B0 B046_            79345  1                      WHILE ((R2,LT,R3),AND,(@R2,NE,'.')),'INCR R2' Find delimiter
 00EBC6 1802                       79386  1                      LR    R0,R2               Compute
 00EBC8 1B01                       79387  1                      SR    R0,R1                 subparm length
 00EBCA 4770 B054/1BFF_      0EBD4 79388  1                      IF    Z,'CLEAR R15; EXIT CNVTIP'
 00EBD4 58E0 B0F4/0DEE       0EC74 79411  1                      DTB   (R1),(R0)           Convert
 00EBDA 4740 B066/59F0_      0EBE6 79426  1                      IF    (M,OR,(R15,GT,255)),'CLEAR R15; EXIT CNVTIP'
 00EBEC 8950 0008            00008 79465  1                      SLL   R5,8                Shift address over
 00EBF0 165F                       79466  1                      OR    R5,R15              Move next byte into result
 00EBF2 5E20 B0DC            0EC5C 79467  1                      INCR  R2                  Step pointer past delimiter
 00EBF6 5E40 B0DC            0EC5C 79470  1                      INCR  R4                  Incr loop counter
 00EBFA 47F0 B028            0EBA8 79473                       END
 00EBFE 1923/4740 B08C_            79478                       IF    ((R2,LT,R3),OR,(R4,NE,4)),BEGIN  If invalid parm,
 00EC0C 1B55                       79509  1                      CLEAR R5                             Return null result
 00EC0E                            79513                       END
 00EC0E 18F5                       79517                       LR    R15,R5                 Copy result
 00EC10 18D9/980C D004_            79518                       PEND
 DROP   *,R11
                                   79538                       QLTORG ,
1AMELIA   Utility Routines                                                                                                  Page  305
0Current Usings:  (COMMAND+4096,R8) (NIT,R12)
0Loc    Object Code    Addr1 Addr2  Stmt Lv Lineno    Source Statement           (Hibal 5, Asmedit 3.3)  HLASM R4.0  2004/03/15 13.11
+___    ______ ____    _____ _____  ____ __ ______    ______ _________
0                                  79579
                                   79580
                                   79581                 GETBUF -- Routine to get temp buffer
                                   79582
                                   79583                   Returns pointer to GETBUFSZ-16 byte buffer
                                   79584
                                   79585                   On entry:
                                   79586                     R0 - no. of bytes needed
                                   79587
                                   79588                   On exit:
                                   79589                     R1 - addr of memory
                                   79590                     R0 - unchanged
                                   79591

0                                  79592              GETBUFSZ EQU   4096                Buffer size
                                   79593
 00ECD2 90EF C020/4DE0_      00020 79594              GETBUF   PROC
 USING  *,R11
                                   79636
                                   79637            C          IF    ((R0,NP),OR,
                                                    C                (R0,GT,GETBUFSZ-12-4),OR,
 00ECF6 1200/47D0 B022_                                              ((NITBUFQ,Z),AND,(NITBUFCT,GE,NITBUFMX))),BEGIN
 00ED18 58E0 BCCE/0DEE       0F9C4 79697  1                      ACALL GETCORE
 00ED1E 9001 9004            00004 79701  1                      PRETURN (R0,R1)
 00ED22 47F0 B092            0ED88 79703  1                      B     GETBUFX
 00ED26                            79704                       END
                                   79708
 00ED26 D603 C138 C138_00138 00138 79709                       IF    (NITBUFQ,Z),BEGIN   If free queue empty,
 00ED30 47F0 B046/0000_      0ED3C 79725  1                      GETMAIN RU,LV=GETBUFSZ,BNDRY=PAGE,LOC=ANY  Get new buffer
 00ED48 58E0 BCD2/0DEE       0F9C8 79739  1                      ACALL FIX                          Page fix
 00ED4E 41F0 0001/5EF0_      00001 79743  1                      INCR  R15,NITBUFCT
 00ED5A                            79749                       END
 00ED5A B068/47F0 B072 0ED5A 0ED2E 79753                       ELSE  BEGIN
 00ED5E 5810 C138            00138 79764  1                      L     R1,NITBUFQ          Dequeue buffer
 00ED62 D203 C138 1000 00138 00000 79765  1                      MVC   NITBUFQ,@R1
 00ED68                            79766                       END
                                   79770
 00ED68 41F0 0001/5EF0_      00001 79771                       INCR  R15,NITBUFAL        Incr allocated count
                                   79777
 00ED74 D203 1000 BCD6 00000 0F9CC 79778                       MVC   @R1(4),=C'BUFS'     Set ID
 00ED7A D203 1FFC BCDA 00FFC 0F9D0 79779                       MVC   @R1+GETBUFSZ-4(4),=C'BUFE'
                                   79780
 00ED80 4110 100C            0000C 79781                       LA    R1,@R1+12           Skip past overhead prefix
 00ED84 5019 0008            00008 79782                       PRETURN (R1)              Return pointer to caller
                                   79784
 00ED88 1BFF                       79785              GETBUFX  CLEAR R15                 Always good rc
 00ED8A 18D9/980C D004_            79790                       PEND
 DROP   *,R11
1AMELIA   Utility Routines                                                                                                  Page  306
0Current Usings:  (COMMAND+4096,R8) (NIT,R12)
0Loc    Object Code    Addr1 Addr2  Stmt Lv Lineno    Source Statement           (Hibal 5, Asmedit 3.3)  HLASM R4.0  2004/03/15 13.11
+___    ______ ____    _____ _____  ____ __ ______    ______ _________
0                                  79811
                                   79812
                                   79813                 GETCORE -- Routine to get memory.
                                   79814
                                   79815                   On entry:
                                   79816                     R0 - no. of bytes needed
                                   79817
                                   79818                   On exit:
                                   79819                     R1 - addr of memory
                                   79820                     R0 - no. of bytes obtained (ge needed)
                                   79821

000ED98 90EF C020/4DE0_      00020 79822              GETCORE  PROC
 USING  *,R11
                                   79864
 00EDBC 1200/47D0 B00E_            79865                       IF    ((R0,NP),OR,(R0,GT,GETCMAX)),'FAIL "Bad length parm"'
 00EDD4 4A00 BC9C            0FA58 79904                       AH    R0,=H'7'
 00EDD8 5400 BC1C            0F9D8 79905                       N     R0,=F'-8'           Doubleword
 00EDDC 4A00 BC9E            0FA5A 79906                       AH    R0,=H'16'           Overhead
 00EDE0 1840                       79907                       LR    R4,R0               Save length for later
                                   79908
 00EDE2 0700/47F0 B030_            79909                       GETMAIN RU,LV=(0),LOC=ANY  Get memory (above 16M is OK)
 00EDF4 D203 1000 BC20 00000 0F9DC 79921                       MVC   @R1(4),=C'MEMS'     Identifier
                                   79922
 00EDFA 5040 1004            00004 79923                       ST    R4,@R1+4            Len
 00EDFE 5060 1008            00008 79924                       ST    R6,@R1+8            Caller's addr (for debugging)
 00EE02 41F4 1000            00000 79925                       LA    R15,@R1(R4)
 00EE06 4BF0 BCA0            0FA5C 79926                       SH    R15,=H'4'
 00EE0A D203 F000 BC24 00000 0F9E0 79927                       MVC   @R15(4),=C'MEND'    Ending identifier
                                   79928              *
                                   79929              *DONT    L     R2,NITMEMT          Keep count of bytes...
                                   79930              *DONT    AR    R2,R4               ...allocated
                                   79931              *DONT    ST    R2,NITMEMT          ...by GETCORE
                                   79932              *
 00EE10 4110 100C            0000C 79933                       LA    R1,@R1+12           Skip past overhead prefix
 00EE14 1804                       79934                       LR    R0,R4
 00EE16 4B00 BC9E            0FA5A 79935                       SH    R0,=H'16'           Deduct overhead
 00EE1A 9001 9004            00004 79936                       PRETURN (R0,R1)           Return len, loc
                                   79938
 00EE1E 1BFF                       79939                       CLEAR R15                 Always good rc
 00EE20 18D9/980C D004_            79943                       PEND
 DROP   *,R11
1AMELIA   Utility Routines                                                                                                  Page  307
0Current Usings:  (COMMAND+4096,R8) (NIT,R12)
0Loc    Object Code    Addr1 Addr2  Stmt Lv Lineno    Source Statement           (Hibal 5, Asmedit 3.3)  HLASM R4.0  2004/03/15 13.11
+___    ______ ____    _____ _____  ____ __ ______    ______ _________
0                                  79964
                                   79965
                                   79966                 FREECORE -- Routine to release memory.
                                   79967
                                   79968                   On entry:
                                   79969                     R1 - address of memory being released
                                   79970

000EE2E 90EF C020/4DE0_      00020 79971              FREECORE PROC
 USING  *,R11
                                   80013
 00EE52 1851                       80014                       LR    R5,R1
 00EE54 4B50 BC0C            0FA5E 80015                       SH    R5,=H'12'            Backup pointer
                                   80016
 00EE58 D503 BB7A 5000_0F9CC 00000 80017                       IF    (@R5,EQ,'BUFS'),BEGIN  If freeing buffer,
 00EE62 D503 BB7E 5FFC_0F9D0 00FFC 80033  1                      IF    (@R5+GETBUFSZ-4,NE,'BUFE'),'FAIL "Buffer error"'
 00EE76 D203 5000 C138 00000 00138 80058  1                      MVC   @R5(4),NITBUFQ
 00EE7C 5050 C138            00138 80059  1                      ST    R5,NITBUFQ
 00EE80 58F0 C140/06F0_      00140 80060  1                      DECR  R15,NITBUFAL        Decr allocated count
 00EE8A 47F0 B094            0EEE6 80065  1                      B     FREECORX
 00EE8E                            80066                       END
                                   80070
 00EE8E D503 BB8A 5000_0F9DC 00000 80071                       IF    (@R5,NE,'MEMS'),'FAIL "Bad address"'
 00EEA2 5840 5004            00004 80096                       L     R4,@R5+4            Len
                                   80097
 00EEA6 41F4 5000            00000 80098                       LA    R15,@R5(R4)
 00EEAA 4BF0 BC0A            0FA5C 80099                       SH    R15,=H'4'
 00EEAE D503 BB8E F000_0F9E0 00000 80100                       IF    (@R15,NE,'MEND'),'FAIL "Bad length"'
 00EEC2 D203 5000 BB92 00000 0F9E4 80125                       MVC   @R5(4),=C'FRMX'     Tag as free
 00EEC8 5060 5008            00008 80126                       ST    R6,@R5+8
 00EECC D203 F000 BB96 00000 0F9E8 80127                       MVC   @R15(4),=C'FEND'    Ending tag
 00EED2 0700/47F0 B08A_            80128                       FREEMAIN RU,A=(R5),LV=(R4)  Release memory
                                   80140              *
                                   80141              *DONT    L     R2,NITMEMT          Keep count of bytes...
                                   80142              *DONT    SR    R2,R4               ...allocated
                                   80143              *DONT    ST    R2,NITMEMT          ...by GETCORE
                                   80144              *
 00EEE6 1B11                       80145              FREECORX CLEAR R1
 00EEE8 5019 0008            00008 80150                       PRETURN (R1)              Return loc of zero (tidy)
                                   80152
 00EEEC 1BFF                       80153                       CLEAR R15                 Always good rc
 00EEEE 18D9/980C D004_            80157                       PEND
 DROP   *,R11
1AMELIA   Utility Routines                                                                                                  Page  308
0Current Usings:  (COMMAND+4096,R8) (NIT,R12)
0Loc    Object Code    Addr1 Addr2  Stmt Lv Lineno    Source Statement           (Hibal 5, Asmedit 3.3)  HLASM R4.0  2004/03/15 13.11
+___    ______ ____    _____ _____  ____ __ ______    ______ _________
0                                  80178
                                   80179                         work area
                                   80180
 000000                00000 00031 80181              WA       RECORD BEGIN
 000000                            80189  1                      DS    F                   Double word insurance
 000004                            80190  1           DW         DS    2F                  Double word
 00000C                            80191  1           HEXW       DS    F
 000010                            80192  1           HEXS       DS    CL16
                                   80193  1
 000020                00020 0000C 80194  1                      ORG   HEXW                Work area for FMTXDATE
 00000C                            80195  1           SAVEDAY    DS    F                   Save area for day-of-week
 000010                            80196  1           SAVEDATE   DS    F                   Save area for day-of-month
 000014                00014 00020 80197  1                      ORG   ,
                                   80198  1
 000020                            80199  1           REDITWA    DS    CL17
 000031                00031 00031 80200                       END
-000000                00000 00008 80210              DEC      RECORD 'DS D'
 000000                00008 00008 80219    02-GEN   +         DS    D
1AMELIA   Utility Routines                                                                                                  Page  309
0Current Usings:  (COMMAND+4096,R8) (NIT,R12)
0Loc    Object Code    Addr1 Addr2  Stmt Lv Lineno    Source Statement           (Hibal 5, Asmedit 3.3)  HLASM R4.0  2004/03/15 13.11
+___    ______ ____    _____ _____  ____ __ ______    ______ _________
0                                  80230
                                   80231
                                   80232                RTRIM -- Trim right-side (trailing) blanks.
                                   80233
                                   80234                  On entry:
                                   80235                    R1,R0 - string loc, len
                                   80236

000EEFC 50E0 D000/902C_      00000 80237              RTRIM    XPROC (R2,LSR),TRACE=NO
 USING  *,R11
 00EF0C 1861                       80276                       LR    R6,R1
 00EF0E 1A60                       80277                       AR    R6,R0
 00EF10 0660                       80278                       DECR  R6
 00EF12 1200/47D0 B01C_            80280                       WHILE ((R0,POS),AND,(@R6,EQ,' ')),'DECR R6; DECR R0'
 00EF28 18D9/982C D004_            80321                       PEND
 DROP   *,R11
-                                  80342
                                   80343
                                   80344                LRTRIM -- Trim left and right-side (leading/trailing) blanks.
                                   80345
                                   80346                  On entry:
                                   80347                    R1,R0 - string loc, len
                                   80348

000EF36 50E0 D000/902C_      00000 80349              LRTRIM   XPROC (R2,LSR),TRACE=NO
 USING  *,R11
 00EF46 1200/47D0 B018_            80388                       WHILE ((R0,POS),AND,(@R1,EQ,' ')),'LA R1,@R1+1; DECR R0'
                                   80428
 00EF5E 1861                       80429                       LR    R6,R1
 00EF60 1A60                       80430                       AR    R6,R0
 00EF62 0660                       80431                       DECR  R6
 00EF64 1200/47D0 B034_            80433                       WHILE ((R0,POS),AND,(@R6,EQ,' ')),'DECR R6; DECR R0'
 00EF7A 18D9/982C D004_            80474                       PEND
 DROP   *,R11
1AMELIA   Utility Routines                                                                                                  Page  310
0Current Usings:  (COMMAND+4096,R8) (NIT,R12)
0Loc    Object Code    Addr1 Addr2  Stmt Lv Lineno    Source Statement           (Hibal 5, Asmedit 3.3)  HLASM R4.0  2004/03/15 13.11
+___    ______ ____    _____ _____  ____ __ ______    ______ _________
0                                  80495
                                   80496
                                   80497                decimal to binary conversion
                                   80498

000EF88 50E0 D000/902C_      00000 80499              DTB      XPROC (R2,LSR),TRACE=NO
 USING  *,R11
 00EF98 1BFF                       80538                       CLEAR R15                 Clear result
 00EF9A 1200                       80542              DTBL     LTR   R0,R0               Done?
 00EF9C 47D0 B032            0EFCA 80543                       BNP   DTBX
 00EFA0 95F0 1000      00000       80544                       CLI   @R1,C'0'            Digit?
 00EFA4 4740 B032            0EFCA 80545                       BL    DTBX                Br if too low
 00EFA8 95F9 1000      00000       80546                       CLI   @R1,C'9'
 00EFAC 4720 B032            0EFCA 80547                       BH    DTBX                Br if too high
 00EFB0 1F22/4320 1000             80548                       LC    R2,@R1
 00EFB6 5F20 BA54            0F9EC 80555                       SL    R2,=A(C'0')
 00EFBA 4CF0 BAC8            0FA60 80556                       MH    R15,=H'10'          Build result
 00EFBE 1EF2                       80557                       ALR   R15,R2
 00EFC0 4110 1001            00001 80558                       LA    R1,@R1+1
 00EFC4 0600                       80559                       DECR  R0
 00EFC6 47F0 B002            0EF9A 80561                       B     DTBL
 00EFCA 18D9/982C D004_            80562              DTBX     PEND  *
 DROP   *,R11
1AMELIA   Utility Routines                                                                                                  Page  311
0Current Usings:  (COMMAND+4096,R8) (NIT,R12)
0Loc    Object Code    Addr1 Addr2  Stmt Lv Lineno    Source Statement           (Hibal 5, Asmedit 3.3)  HLASM R4.0  2004/03/15 13.11
+___    ______ ____    _____ _____  ____ __ ______    ______ _________
0                                  80583
                                   80584
                                   80585                hexadecimal to binary conversion
                                   80586

000EFD6 50E0 D000/902C_      00000 80587              XTB      XPROC (R2,LSR),TRACE=NO
 USING  *,R11
 00EFE6 1BFF                       80626                       CLEAR R15
 00EFE8 1200                       80630              XTBL     LTR   R0,R0               Done?
 00EFEA 47D0 B04A            0F030 80631                       BNP   XTBX                Br if so
 00EFEE 1F22/4320 1000             80632                       LC    R2,@R1              Pick up digit
 00EFF4 95C1 1000      00000       80639                       CLI   @R1,C'A'
 00EFF8 4740 B026            0F00C 80640                       BL    XTBN
 00EFFC 95C6 1000      00000       80641                       CLI   @R1,C'F'
 00F000 4720 B026            0F00C 80642                       BH    XTBN
 00F004 5F20 BA0A            0F9F0 80643                       SL    R2,=A(C'A'-10)
 00F008 47F0 B03A            0F020 80644                       B     XTBB
                                   80645
 00F00C 95F0 1000      00000       80646              XTBN     CLI   @R1,C'0'
 00F010 4740 B04A            0F030 80647                       BL    XTBX
 00F014 95F9 1000      00000       80648                       CLI   @R1,C'9'
 00F018 4720 B04A            0F030 80649                       BH    XTBX
 00F01C 5F20 BA06            0F9EC 80650                       SL    R2,=A(C'0')
 00F020 89F0 0004            00004 80651              XTBB     SLL   R15,4               Add new digit in
 00F024 16F2                       80652                       OR    R15,R2
 00F026 4110 1001            00001 80653                       LA    R1,@R1+1            Next digit
 00F02A 0600                       80654                       DECR  R0
 00F02C 47F0 B002            0EFE8 80656                       B     XTBL
                                   80657
 00F030 18D9/982C D004_            80658              XTBX     PEND  *
 DROP   *,R11
1AMELIA   Utility Routines                                                                                                  Page  312
0Current Usings:  (COMMAND+4096,R8) (NIT,R12)
0Loc    Object Code    Addr1 Addr2  Stmt Lv Lineno    Source Statement           (Hibal 5, Asmedit 3.3)  HLASM R4.0  2004/03/15 13.11
+___    ______ ____    _____ _____  ____ __ ______    ______ _________
0                                  80679
                                   80680
                                   80681                binary to decimal conversion
                                   80682

000F03C 50E0 D000/902C_      00000 80683              BTD      XPROC (R2,LSR),WA,TRACE=NO
 USING  *,R11
 USING  WA-(4+44),R9
 00F04C 4160 9034            00004 80732                       LA    R6,DW               Get a double word
 00F050 5460 B9A8            0F9F4 80733                       N     R6,=XL4'FFFFF8'
 USING  DEC,R6                     80734                       WITH  (DEC,R6)
 00F054 4EF0 6000            00000 80747                       CVD   R15,DEC             Convert number to packed
 00F058 D20F 9040 B05C 00010 0F0A8 80748                       MVC   HEXS(16),ED15       Edit mask
 00F05E 1841                       80749                       LR    R4,1                Save result loc.
 00F060 4110 904F            0001F 80750                       LA    R1,HEXS+15
 00F064 DF0F 9040 6000 00010 00000 80751                       EDMK  HEXS(16),DEC
 00F06A 12FF                       80752                       LTR   R15,R15             Negative?
 00F06C 47B0 B02A            0F076 80753                       BNM   *+10                Br if not
 00F070 0610                       80754                       DECR  R1                  Put in a sign
 00F072 9260 1000      00000       80756                       MVI   @R1,C'-'
 00F076 4130 9050            00020 80757                       LA    R3,HEXS+16          Compute actual length
 00F07A 1B31                       80758                       SR    R3,R1
 00F07C 1814                       80759                       LR    R1,R4               Restore result pointer
 00F07E 1200                       80760                       LTR   R0,R0               Field size given?
 00F080 4720 B03C            0F088 80761                       BP    *+8                 Br if so
 00F084 1300                       80762                       LCR   R0,R0
 00F086 1A03                       80763                       AR    R0,R3               Compute field size
 00F088 1830                       80764                       LR    R3,R0               Field length
 00F08A 4120 9050            00020 80765                       LA    R2,HEXS+16          Compute starting addr
 00F08E 1B23                       80766                       SR    R2,R3
 00F090 0630/4430 B056             80767                       DEX   R3,BTDMV            Move to result loc.
 00F096 18D9/982C D004_            80772                       PEND  *
 DROP   DEC,R6
 DROP   WA-(4+44),R9
 DROP   *,R11
                                   80801
 00F0A2 D200 1000 2000 00000 00000 80802              BTDMV    MVC   @R1(0),@R2
                                   80803
 00F0A8 4020202020202020           80804              ED15     DC    C' ',13X'20',X'2120'
1AMELIA   Utility Routines                                                                                                  Page  313
0Current Usings:  (COMMAND+4096,R8) (NIT,R12)
0Loc    Object Code    Addr1 Addr2  Stmt Lv Lineno    Source Statement           (Hibal 5, Asmedit 3.3)  HLASM R4.0  2004/03/15 13.11
+___    ______ ____    _____ _____  ____ __ ______    ______ _________
0                                  80806
                                   80807
                                   80808                binary to hexadecimal conversion
                                   80809

000F0B8 50E0 D000/902C_      00000 80810              BTX      XPROC (R2,LSR),WA,TRACE=NO
 USING  *,R11
 USING  WA-(4+44),R9
 00F0C8 50F0 903C            0000C 80859                       ST    R15,HEXW            Word to be converted
 00F0CC F384 9040 903C 00010 0000C 80860                       UNPK  HEXS(9),HEXW(5)     To zoned format
 00F0D2 DC07 9040 B75C 00010 0F824 80861                       TR    HEXS(8),HEXTBL-C'0' To hex format
 00F0D8 1230                       80862                       LTR   R3,R0               Length
 00F0DA 4780 B026            0F0EE 80863                       BZ    BTX0                Zero means calculate it
 00F0DE 4120 9048            00018 80864                       LA    R2,HEXS+8           Compute addr to move from
 00F0E2 1B23                       80865                       SR    R2,R3
 00F0E4 0630                       80866                       DECR  R3
 00F0E6 4430 B056            0F11E 80868              BTXC     EX    R3,HEXMV            Move to users area
 00F0EA 47F0 B04A            0F112 80870                       EXIT
                                   80873
 00F0EE 4120 903F            0000F 80874              BTX0     LA    R2,HEXS-1
 00F0F2 4130 0007            00007 80875                       LA    R3,7
 00F0F6 4120 2001            00001 80876              BTXCHK0  LA    R2,@R2+1            Bump
 00F0FA 95F0 2000      00000       80877                       CLI   @R2,C'0'            Start of non-zero stuff?
 00F0FE 4770 B042            0F10A 80878                       BNE   BTXX                No, branch
 00F102 4630 B02E            0F0F6 80879                       BCT   R3,BTXCHK0          Loop if not last dig
 00F106 4120 2001            00001 80880                       LA    R2,@R2+1            Point to last digit
 00F10A 4100 3001            00001 80881              BTXX     LA    R0,@R3+1            Get real length in r0
                                   80882              *              now return with r3 having the length in ex form
 00F10E 47F0 B01E            0F0E6 80883                       B     BTXC
                                   80884
 00F112 18D9/982C D004_            80885                       PEND  *
 DROP   WA-(4+44),R9
 DROP   *,R11
                                   80909
 00F11E D200 1000 2000 00000 00000 80910              HEXMV    MVC   @R1(0),@R2
1AMELIA   Utility Routines                                                                                                  Page  314
0Current Usings:  (COMMAND+4096,R8) (NIT,R12)
0Loc    Object Code    Addr1 Addr2  Stmt Lv Lineno    Source Statement           (Hibal 5, Asmedit 3.3)  HLASM R4.0  2004/03/15 13.11
+___    ______ ____    _____ _____  ____ __ ______    ______ _________
0                                  80912
                                   80913
                                   80914                binary to real conversion
                                   80915

000F124 50E0 D000/902C_      00000 80916              BTR      XPROC (R2,LSR),WA,TRACE=NO
 USING  *,R11
 USING  WA-(4+44),R9
                                   80965              *** r15 has value, r1 has output addr, r0 = length*256+no of digits
 00F134 4160 9034            00004 80966                       LA    R6,DW               Set up
 00F138 5460 B8A4            0F9D8 80967                       N     R6,=F'-8'           Double word
 USING  DEC,R6                     80968                       WITH  (DEC,R6)
 00F13C 1851                       80981                       LR    R5,R1               Save output pointer
 00F13E 4EF0 6000            00000 80982                       CVD   R15,DEC
 00F142 4120 0007            00007 80983                       LA    R2,X'07'            Get number
 00F146 1420                       80984                       NR    R2,R0               ...of digits
 00F148 4132 B7C8            0F8FC 80985                       LA    R3,BTREDMSK(R2)     Get start of mask to use
 00F14C 4110 905F            0002F 80986                       LA    R1,REDITWA+15       Default starting point
 00F150 1B12                       80987                       SR    R1,R2               Minus offset
 00F152 D210 9050 3000 00020 00000 80988                       MVC   REDITWA,@R3         Get mask
 00F158 9240 9050      00020       80989                       MVI   REDITWA,C' '        First byte is pad char
 00F15C DF10 9050 6000 00020 00000 80990                       EDMK  REDITWA,DEC         Edit number
 00F162 12FF/47B0 B03A_            80991                       IF    (R15,NEG),'DECR R1; MVI @R1,C"-"'
 00F16E 8A00 0008            00008 81013                       SRA   R0,8                Get number of digits to produce
 00F172 4770 B048            0F17C 81014                       IF    Z,BEGIN             If 0, use as much as necessary
 00F176 4100 9061            00031 81025  1                      LA    R0,REDITWA+L'REDITWA  r1 points to start,
 00F17A 1B01                       81026  1                      SR    R0,R1               Get length in r0
 00F17C                            81027                       END
 00F17C B04C/47F0 B052 0F17C 0F174 81031                       ELSE  BEGIN
 00F180 4110 9061            00031 81042  1                      LA    R1,REDITWA+L'REDITWA  r0 has length,
 00F184 1B10                       81043  1                      SR    R1,R0               Get start in r1
 00F186                            81044                       END
 00F186 1820                       81048                       LR    R2,R0               Length in r2 for execute
 00F188 0620/4420 B956_            81049                       DEX   R2,'MVC @R5(0),@R1' Move to output area
 00F18E 1815                       81068                       LR    R1,R5               Set r1 to point to output
 00F190 18D9/982C D004_            81069                       PEND
 DROP   DEC,R6
 DROP   WA-(4+44),R9
 DROP   *,R11
1AMELIA   Utility Routines                                                                                                  Page  315
0Current Usings:  (COMMAND+4096,R8) (NIT,R12)
0Loc    Object Code    Addr1 Addr2  Stmt Lv Lineno    Source Statement           (Hibal 5, Asmedit 3.3)  HLASM R4.0  2004/03/15 13.11
+___    ______ ____    _____ _____  ____ __ ______    ______ _________
0                                  81100
                                   81101
                                   81102                HEXCONV/HEXSTR -- Routine to convert hex digits to binary.
                                   81103
                                   81104                  On entry:
                                   81105                    R1,R0 - string loc,len
                                   81106                    R15   - output string loc (only for "HEXSTR" entry)
                                   81107
                                   81108                  On exit, CC:
                                   81109                    neg   - bad hex string (R1,R0 - as on entry)
                                   81110                    z,pos - hex string converted. CC set by string len.
                                   81111                              (R1,R0 - string loc, len)
                                   81112

0000000                00000 00008 81113              HXWA     RECORD BEGIN
 000000                            81121  1           HXDOUB     DS    D                   Working double word
 000008                00008 00008 81122                       END
                                   81131
 00F19E 18F1                       81132              HEXCONV  LR    R15,R1              Convert to hex in place
                                   81133
 00F1A0 90EF C020/4DE0_      00020 81134              HEXSTR   PROC  (R2,LSR),HXWA
 USING  *,R11
 USING  HXWA-(4+44),R9
 00F1C4 957D 1000/4780_00000       81186                       IF    ((@R1,EQ,''''),OR,(@R1,EQ,'"')),BEGIN  string quotes...
 00F1D4 4110 1001            00001 81217  1                      LA    R1,@R1+1
 00F1D8 4B00 B89E            0FA62 81218  1                      SH    R0,=H'2'
 00F1DC                            81219                       END
                                   81223
 00F1DC 9001 D000/41D0_      00000 81224                       XPUSH R0,R1               Ptrs restored if bad hex
                                   81227
 00F1E4 186F                       81228                       LR    R6,R15              Output string ptr
 00F1E6 1B55                       81229                       CLEAR R5                  Output string len
 00F1E8 1B44/1B33                  81233                       CLEAR R4,R3               Ic regs
                                   81239
 00F1EC 1200/47D0 B0D0             81240                       WHILE (R0,POS),BEGIN
 00F1F2 5000 9030            00000 81256  1                      ST    R0,HXDOUB
 00F1F6 9101 9033/47E0_00003       81257  1                      IF    HXDOUB+3.1,BEGIN    Odd no. of digits...
 00F1FE 92F0 9030      00000       81273  2                        MVI   HXDOUB,C'0'
 00F202 D200 9031 1000 00001 00000 81274  2                        MVC   HXDOUB+1(1),@R1
 00F208 4110 1001            00001 81275  2                        LA    R1,@R1+1
 00F20C 0600                       81276  2                        DECR  R0
 00F20E                            81278  1                      END
 00F20E B04E/47F0 B05C 0F20E 0F1FC 81282  1                      ELSE  BEGIN               Even no. of digits...
 00F212 D201 9030 1000 00000 00000 81293  2                        MVC   HXDOUB(2),@R1
 00F218 4110 1002            00002 81294  2                        LA    R1,@R1+2            Kick ptr
 00F21C 4B00 B8A0            0FA64 81295  2                        SH    R0,=Y(2)            & remaining len
 00F220                            81296  1                      END
 00F220 D601 9030 C23C 00000 0023C 81300  1                      OC    HXDOUB(2),NITBLANK  Upper case
                                   81301  1           *  first digit...
 00F226 95C1 9030/4740_00000       81302  1                      IF    (HXDOUB,LT,'A'),HEXBAD
 00F22E 4330 9030            00000 81322  1                      IC    R3,HXDOUB           Get char
 00F232 4120 00B7            000B7 81323  1                      LA    R2,C'A'-10          Assume alpha adjustment
 00F236 95C6 9030/47D0_00000       81324  1                      IF    (HXDOUB,GT,'F'),BEGIN
1AMELIA   Utility Routines                                                                                                  Page  316
0Current Usings:  (COMMAND+4096,R8) (HXWA-(4+44),R9) (*,R11) (NIT,R12)
0Loc    Object Code    Addr1 Addr2  Stmt Lv Lineno    Source Statement           (Hibal 5, Asmedit 3.3)  HLASM R4.0  2004/03/15 13.11
+___    ______ ____    _____ _____  ____ __ ______    ______ _________
000F23E 95F0 9030/4740_00000       81341  2                        IF    ((HXDOUB,LT,'0'),OR,(HXDOUB,GT,'9')),HEXBAD
 00F24E 4120 00F0            000F0 81377  2                        LA    R2,C'0'             Numeric adjustment
 00F252                            81378  1                      END
 00F252 1B32                       81382  1                      SR    R3,R2               Binary
                                   81383  1           *  second digit...
 00F254 95C1 9031/4740_00001       81384  1                      IF    (HXDOUB+1,LT,'A'),HEXBAD
 00F25C 4340 9031            00001 81404  1                      IC    R4,HXDOUB+1         Get char
 00F260 4120 00B7            000B7 81405  1                      LA    R2,C'A'-10          Assume alpha adjustment
 00F264 95C6 9031/47D0_00001       81406  1                      IF    (HXDOUB+1,GT,'F'),BEGIN
 00F26C 95F0 9031/4740_00001       81423  2                        IF    ((HXDOUB+1,LT,'0'),OR,(HXDOUB+1,GT,'9')),HEXBAD
 00F27C 4120 00F0            000F0 81459  2                        LA    R2,C'0'             Numeric adjustment
 00F280                            81460  1                      END
 00F280 1B42                       81464  1                      SR    R4,R2               Binary
                                   81465  1
 00F282 8930 0004            00004 81466  1                      SLL   R3,4                Move high byte over
 00F286 1A34                       81467  1                      AR    R3,R4               Form byte
 00F288 4235 6000            00000 81468  1                      STC   R3,@R6(R5)
 00F28C 4150 5001            00001 81469  1                      LA    R5,@R5+1
 00F290 47F0 B028            0F1EC 81470                       END
 00F294 1816                       81475                       LR    R1,R6               Loc
 00F296 1205                       81476                       LTR   R0,R5               Len
 00F298 47F0 B0E2            0F2A6 81477                       B     HEXEXIT
                                   81478
 00F29C 4BD0 B8A2/9801_      0FA66 81479              HEXBAD   XPOP  R0,R1               Restore orig ptrs
 00F2A4 11FB                       81482                       LNR   R15,BR              Set cc=neg
 00F2A6 18D9/982C D004_            81483              HEXEXIT  PEND
 DROP   HXWA-(4+44),R9
 DROP   *,R11
1AMELIA   Utility Routines                                                                                                  Page  317
0Current Usings:  (COMMAND+4096,R8) (NIT,R12)
0Loc    Object Code    Addr1 Addr2  Stmt Lv Lineno    Source Statement           (Hibal 5, Asmedit 3.3)  HLASM R4.0  2004/03/15 13.11
+___    ______ ____    _____ _____  ____ __ ______    ______ _________
0                                  81510
                                   81511
                                   81512                 FMTXDATE -- Routine to format Arpa-style time/date from TOD
                                   81513                   clock.
                                   81514
                                   81515                   On entry:
                                   81516                     R0-R1 - 64 bit clock (zero = current time/date)
                                   81517                     R15   - return area (32 bytes)
                                   81518
                                   81519                   On exit:
                                   81520                     R1,R0 - text loc, len
                                   81521                             returns: DAY, dd MON yy hh:mm:ss ZON
                                   81522

000F2B4 50E0 D000/902C_      00000 81523              FMTXDATE XPROC (R2,LSR),WA,TRACE=NO
 USING  *,R11
 USING  WA-(4+44),R9
 00F2C4 186F                       81572                       LR    R6,R15
 00F2C6 D21F 6000 C23C 00000 0023C 81573                       MVC   @R6(32),NITBLANK
                                   81574
 00F2CC 1200/4770 B01C_            81575                       IF    ((R0,Z),AND,(R1,Z)),'STCK DW; LM R0,R1,DW'
 00F2E0 1840                       81609                       LR    R4,R0
 00F2E2 1851                       81610                       LR    R5,R1
                                   81611
                                   81612                         Format day of the week.
                                   81613
 00F2E4 4DE0 B35E            0F622 81614                       LCALL FMTDAY              Get day of the week
 00F2E8 50F0 903C            0000C 81616                       ST    R15,SAVEDAY         Save day number
 00F2EC D202 6000 1000 00000 00000 81617                       MVC   @R6(3),@R1          Move in first three chars
 00F2F2 94BF 6001      00001       81618                       NI    @R6+1,255-C' '      (Lower case)
 00F2F6 94BF 6002      00002       81619                       NI    @R6+2,255-C' '      (Lower case)
                                   81620
 00F2FA 926B 6003      00003       81621                       MVI   @R6+3,C','
                                   81622
                                   81623                         Format date.
                                   81624
 00F2FE 1804                       81625                       LR    R0,R4
 00F300 1815                       81626                       LR    R1,R5
 00F302 41F0 9034            00004 81627                       LA    R15,DW              Point to 8 byte area
 00F306 4DE0 B298            0F55C 81628                       LCALL FMTDATE             mm/dd/yy
 00F30A D201 6005 1003 00005 00003 81630                       MVC   @R6+5(2),@R1+3      "dd"
 00F310 95F0 6005/4770_00005       81631                       IF    (@R6+5,EQ,'0'),'MVI @R6+5,C" "'  Blank leading zero
                                   81653
 00F31C D201 600C 1006 0000C 00006 81654                       MVC   @R6+12(2),@R1+6     "yy"
                                   81655
 00F322 1821                       81656                       LR    R2,R1
 00F324 4110 2003/4100_      00003 81657                       DTB   @R2+3,2             Day-of-month
 00F332 50F0 9040            00010 81678                       ST    R15,SAVEDATE
 00F336 1812/4100 0002_            81679                       DTB   @R2,2               Month
 00F342 59F0 B738/4740_      0F9FC 81700                       IF    ((R15,LT,0),OR,(R15,GT,12)),'CLEAR R15'  Bad month
 00F354 183F                       81742                       LR    R3,R15              Save for later
 00F356 4CF0 B7A4            0FA68 81743                       MH    R15,=H'3'
 00F35A 411F B12E            0F3F2 81744                       LA    R1,FMTXMON(R15)     Month string
1AMELIA   Utility Routines                                                                                                  Page  318
0Current Usings:  (COMMAND+4096,R8) (WA-(4+44),R9) (*,R11) (NIT,R12)
0Loc    Object Code    Addr1 Addr2  Stmt Lv Lineno    Source Statement           (Hibal 5, Asmedit 3.3)  HLASM R4.0  2004/03/15 13.11
+___    ______ ____    _____ _____  ____ __ ______    ______ _________
000F35E D202 6008 1000 00008 00000 81745                       MVC   @R6+8(3),@R1
                                   81746
                                   81747                         Format time of day.
                                   81748
 00F364 1804                       81749                       LR    R0,R4
 00F366 1815                       81750                       LR    R1,R5
 00F368 41F0 600F            0000F 81751                       LA    R15,@R6+15
 00F36C 4DE0 B226            0F4EA 81752                       LCALL FMTTIME             hh:mm:ss
                                   81754
                                   81755                         Format time zone.
                                   81756
 00F370 D203 6017 B740 00017 0FA04 81757                       MVC   @R6+23(4),=C' &ZONE'  Set time zone, assume std
 00F376 5930 B744/4750_      0FA08 81758                       IF    ((R3,GE,4),AND,(R3,LE,10)),BEGIN
 00F386 D203 6017 B74C 00017 0FA10 81791  1                      MVC   @R6+23(4),=C' &ALTZONE'  Assume daylight time
                                   81792  1
                                   81793  1                        Now handle special cases for April and October.
                                   81794  1
 00F38C 5930 B744/4780_      0FA08 81795  1                      IF    ((R3,EQ,4),OR,(R3,EQ,10)),BEGIN
 00F39C 5810 9040            00010 81828  2                        L     R1,SAVEDATE         Get binary day-of-month
 00F3A0 5820 903C            0000C 81829  2                        L     R2,SAVEDAY          Get binary day-of-week
 00F3A4 4100 001E            0001E 81830  2                        LA    R0,30               Assume April
 00F3A8 5930 B748/4770_      0FA0C 81831  2                        IF    (R3,EQ,10),'LA R0,31'
 00F3B4 1B01                       81854  2                        SR    R0,R1               Days in month - day of month
 00F3B6 1A02                       81855  2                        AR    R0,R2               ... + day of week
                                   81856  2         C              IF    (((R0,GT,7),AND,(R3,EQ,4)),OR,
 00F3B8 5900 B750/47D0_      0FA14        2                              ((R0,LE,7),AND,(R3,EQ,10))),BEGIN
 00F3D8 D203 6017 B740 00017 0FA04 81921  3                          MVC   @R6+23(4),=C' &ZONE'  Re-do assumption
 00F3DE                            81922  2                        END
 00F3DE                            81926  1                      END
 00F3DE                            81930                       END
                                   81934
 00F3DE 1816/4100 001B             81935                       SETMSG @R6,27              Formatted date
 00F3E4 18D9/982C D004_            81951                       PEND
 DROP   WA-(4+44),R9
 DROP   *,R11
                                   81976
 00F3F2 6F6F6FD18195C685           81977              FMTXMON  DC    C'???JanFebMarAprMayJunJulAugSepOctNovDec'
1AMELIA   Utility Routines                                                                                                  Page  319
0Current Usings:  (COMMAND+4096,R8) (NIT,R12)
0Loc    Object Code    Addr1 Addr2  Stmt Lv Lineno    Source Statement           (Hibal 5, Asmedit 3.3)  HLASM R4.0  2004/03/15 13.11
+___    ______ ____    _____ _____  ____ __ ______    ______ _________
0                                  81979
                                   81980
                                   81981                 FMTCLCK -- Routine to format time/date from TOD clock.
                                   81982
                                   81983                   On entry:
                                   81984                     R0-R1 - 64 bit clock (zero = current time/date)
                                   81985                     R15   - return area (26 bytes)
                                   81986
                                   81987                   On exit:
                                   81988                     R1,R0 - text loc, len  returns: hh:mm:ss mm/dd/yy (yy.ddd)
                                   81989

000F41A 50E0 D000/902C_      00000 81990              FMTCLCK  XPROC (R2,LSR),TRACE=NO
 USING  *,R11
 00F42A 186F                       82029                       LR    R6,R15
 00F42C D219 6000 C23C 00000 0023C 82030                       MVC   @R6(26),NITBLANK
                                   82031
 00F432 1840                       82032                       LR    R4,R0
 00F434 1851                       82033                       LR    R5,R1
 00F436 4DE0 B0C0            0F4EA 82034                       LCALL FMTTIME             Hh:mm:ss
 00F43A 9240 6008      00008       82036                       MVI   @R6+8,C' '
                                   82037
 00F43E 1804                       82038                       LR    R0,R4
 00F440 1815                       82039                       LR    R1,R5
 00F442 41F0 6009            00009 82040                       LA    R15,@R6+9
 00F446 4DE0 B132            0F55C 82041                       LCALL FMTDATE             Mm/dd/yy
                                   82043
 00F44A 924D 6012      00012       82044                       MVI   @R6+18,C'('
 00F44E 1804                       82045                       LR    R0,R4
 00F450 1815                       82046                       LR    R1,R5
 00F452 41F0 6013            00013 82047                       LA    R15,@R6+19
 00F456 4DE0 B2C0            0F6EA 82048                       LCALL FMTJUL              Yy.ddd
 00F45A 925D 6019      00019       82050                       MVI   @R6+25,C')'
                                   82051
 00F45E 1816/4100 001A             82052                       SETMSG @R6,26
 00F464 18D9/982C D004_            82068                       PEND
 DROP   *,R11
1AMELIA   Utility Routines                                                                                                  Page  320
0Current Usings:  (COMMAND+4096,R8) (NIT,R12)
0Loc    Object Code    Addr1 Addr2  Stmt Lv Lineno    Source Statement           (Hibal 5, Asmedit 3.3)  HLASM R4.0  2004/03/15 13.11
+___    ______ ____    _____ _____  ____ __ ______    ______ _________
0                                  82089
                                   82090
                                   82091                 FMTRCLCK -- Routine to format time/conditional-date from TOD
                                   82092                   clock.
                                   82093
                                   82094                   On entry:
                                   82095                     R0-R1 - 64 bit clock
                                   82096                     R2-R3 - 64 bit comparison clock (zero = current)
                                   82097                     R15   - return area (17 bytes)
                                   82098
                                   82099                   On exit:
                                   82100                     R1,R0 - text loc,len    hh:mm:ss -or- hh:mm:ss mm/dd/yy
                                   82101

000F472 50E0 D000/902C_      00000 82102              FMTRCLCK XPROC (R2,LSR),TRACE=NO
 USING  *,R11
 00F482 186F                       82141                       LR    R6,R15
 00F484 D210 6000 C23C 00000 0023C 82142                       MVC   @R6(17),NITBLANK
                                   82143
 00F48A 1840                       82144                       LR    R4,R0
 00F48C 1851                       82145                       LR    R5,R1
 00F48E 18FD/41D0 D00C             82146                       PUSH  11,PTR=R15
 00F494 4DE0 B068            0F4EA 82150                       LCALL FMTTIME
 00F498 D207 6000 1000 00000 00000 82152                       MVC   @R6(8),@R1          "hh:mm"
                                   82153
 00F49E 18F1                       82154                       LR    R15,R1
 00F4A0 1804                       82155                       LR    R0,R4
 00F4A2 1815                       82156                       LR    R1,R5
 00F4A4 4DE0 B0DA            0F55C 82157                       LCALL FMTDATE
 00F4A8 D207 6009 1000 00009 00000 82159                       MVC   @R6+9(8),@R1        "mm/dd/yy"
 00F4AE 4BD0 B5E8            0FA6A 82160                       POP   11
                                   82164
 00F4B2 1804                       82165                       LR    R0,R4
 00F4B4 4110 0005            00005 82166                       LA    R1,R5
 00F4B8 4DE0 B2B2            0F734 82167                       LCALL TIMEDATE            Get date in R1
 00F4BC 1851                       82169                       LR    R5,R1
                                   82170
 00F4BE 1802                       82171                       LR    R0,R2
 00F4C0 1813                       82172                       LR    R1,R3
 00F4C2 4DE0 B2B2            0F734 82173                       LCALL TIMEDATE            Get "comparison" date in R1
                                   82175
 00F4C6 1915/4770 B050_            82176                       IF    (R1,EQ,R5),'SETMSG @R6,8'  same day
 00F4D2 B054/47F0 B05A_0F4D2 0F4CA 82212                       ELSE  'SETMSG @R6,17'
 00F4DC 18D9/982C D004_            82244                       PEND
 DROP   *,R11
1AMELIA   Utility Routines                                                                                                  Page  321
0Current Usings:  (COMMAND+4096,R8) (NIT,R12)
0Loc    Object Code    Addr1 Addr2  Stmt Lv Lineno    Source Statement           (Hibal 5, Asmedit 3.3)  HLASM R4.0  2004/03/15 13.11
+___    ______ ____    _____ _____  ____ __ ______    ______ _________
0                                  82265
                                   82266
                                   82267                 FMTTIME -- Routine to format time from TOD clock.
                                   82268
                                   82269                   On entry:
                                   82270                     R0-R1 - 64 bit clock (zero = current time)
                                   82271                     R15   - return area (11 bytes)
                                   82272
                                   82273                   On exit:
                                   82274                     R1,R0 - text loc, len    returns: hh:mm:ss.hh
                                   82275

000F4EA 50E0 D000/902C_      00000 82276              FMTTIME  XPROC (R2,LSR),TRACE=NO
 USING  *,R11
 00F4FA 186F                       82315                       LR    R6,R15
 00F4FC D20A 6000 B57A 00000 0FA74 82316                       MVC   @R6(11),=C'??:??:??.??'
                                   82317
 00F502 4DE0 B23A            0F734 82318                       LCALL TIMEDATE            Get time in r0
 00F506 1850                       82320                       LR    R5,R0
 00F508 1B44                       82321                       CLEAR R4
 00F50A 5D40 B51E            0FA18 82325                       D     R4,=A(60*100)
 00F50E 18F4/4100 0502_            82326                       BTR   @R6+6,(5,2),(R4)    Sec.hsec
 00F51E 1B44                       82349                       CLEAR R4
 00F520 5D40 B526            0FA20 82353                       D     R4,=A(60)           R4=min, r5=hours
 00F524 18F4/4100 0002_            82354                       BTD   @R6+3,2,(R4)        Min
 00F534 18F5/4100 0002_            82377                       BTD   @R6,2,(R5)          Hours
 00F542 D60A 6000 B585 00000 0FA7F 82400                       OC    @R6(11),=C'00 00 00 00'  leading zeros
                                   82401
 00F548 1816/4100 000B             82402                       SETMSG @R6,11
 00F54E 18D9/982C D004_            82418                       PEND
 DROP   *,R11
1AMELIA   Utility Routines                                                                                                  Page  322
0Current Usings:  (COMMAND+4096,R8) (NIT,R12)
0Loc    Object Code    Addr1 Addr2  Stmt Lv Lineno    Source Statement           (Hibal 5, Asmedit 3.3)  HLASM R4.0  2004/03/15 13.11
+___    ______ ____    _____ _____  ____ __ ______    ______ _________
0                                  82439
                                   82440
                                   82441                 FMTDATE -- Routine to format date from TOD clock.
                                   82442
                                   82443                   On entry:
                                   82444                     R0-R1 - 64 bit clock (zero = current date)
                                   82445                     R15   - return area (8 bytes)
                                   82446
                                   82447                   On exit:
                                   82448                     R1,R0 - text loc,len    returns: mm/dd/yy
                                   82449

000F55C 50E0 D000/902C_      00000 82450              FMTDATE  XPROC (R2,LSR),TRACE=NO
 USING  *,R11
 00F56C 186F                       82489                       LR    R6,R15
 00F56E D207 6000 B42C 00000 0F998 82490                       MVC   @R6(8),=C'??/??/??'
                                   82491
 00F574 4DE0 B1C8            0F734 82492                       LCALL TIMEDATE            Get julian date in r1
 00F578 D703 D000 D000 00000 00000 82494                       CLEAR (@R13,4)
 00F57E 5010 D004            00004 82501                       ST    R1,@R13+4
 00F582 4F50 D000            00000 82502                       CVB   R5,@R13             Get "yyddd" in binary
 00F586 1B44                       82503                       CLEAR R4
 00F588 5D40 B4BC            0FA28 82507                       D     R4,=A(1000)         R4=days, r5=year
 00F58C 18F5/4100 0002_            82508                       BTD   @R6+6,2,(R5)
 00F59C 5450 B4C0/4780_      0FA2C 82531                       IF    ('N R5,=F"3"',NZ),BEGIN  non-leap year...
 00F5A4 5940 B4C4/4750_      0FA30 82544  1                      IF    (R4,GE,31+29),'LA R4,@R4+1'  skip feb29th
 00F5B0                            82567                       END
                                   82571
 00F5B0 4150 0001            00001 82572                       LA    R5,1                Month
 00F5B4 4130 B09C            0F608 82573                       LA    R3,MTBL
 00F5B8 4940 3000/47D0_      00000 82574                       WHILE ('CH R4,@R3',GT),BEGIN  not this month...
 00F5C0 4150 5001            00001 82589  1                      LA    R5,@R5+1
 00F5C4 4B40 3000            00000 82590  1                      SH    R4,@R3
 00F5C8 4130 3002            00002 82591  1                      LA    R3,@R3+2
 00F5CC 47F0 B04C            0F5B8 82592                       END
 00F5D0 18F5/4100 0002_            82597                       BTD   @R6,2,(R5)          Month
 00F5DE 18F4/4100 0002_            82620                       BTD   @R6+3,2,(R4)        Day
 00F5EE D607 6000 B434 00000 0F9A0 82643                       OC    @R6(8),=C'00 00 00'
                                   82644
 00F5F4 1816/4100 0008             82645                       SETMSG @R6,8
 00F5FA 18D9/982C D004_            82661                       PEND
 DROP   *,R11
                                   82681
 00F608 001F001D001F001E           82682              MTBL     DC    H'31,29,31,30,31,30,31,31,30,31,30,31,999'
1AMELIA   Utility Routines                                                                                                  Page  323
0Current Usings:  (COMMAND+4096,R8) (NIT,R12)
0Loc    Object Code    Addr1 Addr2  Stmt Lv Lineno    Source Statement           (Hibal 5, Asmedit 3.3)  HLASM R4.0  2004/03/15 13.11
+___    ______ ____    _____ _____  ____ __ ______    ______ _________
0                                  82684
                                   82685
                                   82686                 FMTDAY -- Routine to format the day of the week from TOD clock
                                   82687
                                   82688                   On entry:
                                   82689                     R0-R1 - 64 bit clock (zero=current date)
                                   82690
                                   82691                   On exit:
                                   82692                     R15 - day number (1=Sunday, 2=Monday, etc.)
                                   82693                     R1,R0 - day text loc, len ("SUNDAY", "MONDAY", etc.)
                                   82694

000F622 50E0 D000/902C_      00000 82695              FMTDAY   XPROC (R2,LSR),TRACE=NO
 USING  *,R11
 00F632 1200/4770 B014_            82734                       IF    ((R0,Z),AND,(R1,Z)),'STCK @R13; LM R0,R1,@R13'
                                   82768
 00F646 5820 0010            00010 82769                       L     R2,CVTPTR
 00F64A 5E00 2130            00130 82770                       WITH  (CVT,R2),'AL R0,CVTTZ'  Time zone adjustment
 USING  CVT,R2
 DROP   CVT,R2
                                   82794
 00F64E 8C00 0012            00012 82795                       SRDL  R0,12+6             .000001*64 of a sec
 00F652 5D00 B402            0FA34 82796                       D     R0,=A(1000000/64*60*60*24)  One day
 00F656 4130 1001            00001 82797                       LA    R3,@R1+1            No. of days since 1900
                                   82798
 00F65A 1B22                       82799                       CLEAR R2
 00F65C 5D20 B406            0FA38 82803                       D     R2,=F'7'            Get day of the week in R15
                                   82804
 00F660 1812                       82805                       LR    R1,R2               Day number 0 to 6
 00F662 8910 0002            00002 82806                       SLL   R1,2                Times four for word offset
 00F666 5811 B056            0F688 82807                       L     R1,DAYTBL(R1)
                                   82808
 00F66A 1F00/4300 1000             82809                       LC    R0,@R1              Get string length
 00F670 4110 1001            00001 82814                       LA    R1,@R1+1
 00F674 41F0 2001            00001 82815                       LA    R15,@R2+1           Return day number (1..7)
 00F678 18D9/982C D004_            82816                       PEND
 DROP   *,R11
                                   82836
 00F686 0000
 00F688 0000F6A40000F6AE           82837              DAYTBL   DC    A(DAYSUN,DAYMON,DAYTUE,DAYWED,DAYTHU,DAYFRI,DAYSAT)
 00F6A4 06E2A4958481A840           82838              DAYSUN   DC    AL1(6),CL9'Sunday'
 00F6AE 06D496958481A840           82839              DAYMON   DC    AL1(6),CL9'Monday'
 00F6B8 07E3A485A28481A8           82840              DAYTUE   DC    AL1(7),CL9'Tuesday'
 00F6C2 09E685849585A284           82841              DAYWED   DC    AL1(9),CL9'Wednesday'
 00F6CC 08E388A499A28481           82842              DAYTHU   DC    AL1(8),CL9'Thursday'
 00F6D6 06C699898481A840           82843              DAYFRI   DC    AL1(6),CL9'Friday'
 00F6E0 08E281A3A4998481           82844              DAYSAT   DC    AL1(8),CL9'Saturday'
1AMELIA   Utility Routines                                                                                                  Page  324
0Current Usings:  (COMMAND+4096,R8) (NIT,R12)
0Loc    Object Code    Addr1 Addr2  Stmt Lv Lineno    Source Statement           (Hibal 5, Asmedit 3.3)  HLASM R4.0  2004/03/15 13.11
+___    ______ ____    _____ _____  ____ __ ______    ______ _________
0                                  82846
                                   82847
                                   82848                 FMTJUL -- routine to format julian date from TOD clock.
                                   82849
                                   82850                   On entry:
                                   82851                     R0-R1 - 64 bit clock (zero = current date)
                                   82852                     R15   - return area (6 bytes)
                                   82853
                                   82854                   On exit:
                                   82855                     R1,R0 - text loc,len    returns: yy.ddd
                                   82856

000F6EA 50E0 D000/902C_      00000 82857              FMTJUL   XPROC (R2,LSR),TRACE=NO
 USING  *,R11
 00F6FA 186F                       82896                       LR    R6,R15
                                   82897
 00F6FC 4DE0 B03A            0F734 82898                       LCALL TIMEDATE            Get julian date in R1
 00F700 D703 D000 D000 00000 00000 82900                       CLEAR (@R13,4)
 00F706 5010 D004            00004 82907                       ST    R1,@R13+4
 00F70A 4FF0 D000            00000 82908                       CVB   R15,@R13            Get "yyddd" in binary
 00F70E 4100 0603/1816_      00603 82909                       BTR   @R6,(6,3),(R15)
 00F71A D605 6000 B372 00000 0FA6C 82931                       OC    @R6(6),=C'00 000'
                                   82932
 00F720 1816/4100 0006             82933                       SETMSG @R6,6
 00F726 18D9/982C D004_            82949                       PEND
 DROP   *,R11
1AMELIA   Utility Routines                                                                                                  Page  325
0Current Usings:  (COMMAND+4096,R8) (NIT,R12)
0Loc    Object Code    Addr1 Addr2  Stmt Lv Lineno    Source Statement           (Hibal 5, Asmedit 3.3)  HLASM R4.0  2004/03/15 13.11
+___    ______ ____    _____ _____  ____ __ ______    ______ _________
0                                  82970
                                   82971
                                   82972                 TIMEDATE -- Routine to calculate time/date from TOD clock.
                                   82973                   (Note format returned is the same as the "TIME BIN" svc.)
                                   82974
                                   82975                   On entry:
                                   82976                     R0-R1 - 64 bit clock (zero = current time/date)
                                   82977
                                   82978                   On exit:
                                   82979                     R0 - time (in .01 sec's past midnight)
                                   82980                     R1 - date (in "yydddf" packed decimal format)
                                   82981

000F734 50E0 D000/902C_      00000 82982              TIMEDATE XPROC (R2,LSR),TRACE=NO
 USING  *,R11
 00F744 1200/4770 B014_            83021                       IF    ((R0,Z),AND,(R1,Z)),'STCK @R13; LM R0,R1,@R13'
                                   83055
 00F758 5820 0010            00010 83056                       L     R2,CVTPTR
 00F75C 5820 2130            00130 83057                       WITH  (CVT,R2),'L R2,CVTTZ'  Time zone adjustment
 USING  CVT,R2
 DROP   CVT,R2
                                   83081
 00F760 8C00 0012            00012 83082                       SRDL  R0,12+6             .000001*64 of a sec
 00F764 5D00 B2F0            0FA34 83083                       D     R0,=A(1000000/64*60*60*24)  one day
 00F768 4130 1001            00001 83084                       LA    R3,@R1+1            No. of days since 1900
 00F76C 1810                       83085                       LR    R1,R0               .000001*64 sec since midnight
 00F76E 1B00                       83086                       CLEAR R0
 00F770 8D00 0006            00006 83090                       SLDL  R0,6                .000001 sec since midnight
 00F774 5D00 B2F8            0FA3C 83091                       D     R0,=A(10000)        .01 sec since midnight
 00F778 1801                       83092                       LR    R0,R1
                                   83093
 00F77A 1B22                       83094                       CLEAR R2
 00F77C 5C20 B2FC            0FA40 83098                       M     R2,=A(100)
 00F780 5D20 B300            0FA44 83099                       D     R2,=A(36525)        Days/365.25 = years
 00F784 1813                       83100                       LR    R1,R3               Year
 00F786 4C10 B32E            0FA72 83101                       MH    R1,=H'1000'         Yy*1000
 00F78A 1832                       83102                       LR    R3,R2
 00F78C 1B22                       83103                       CLEAR R2
 00F78E 5D20 B2FC            0FA40 83107                       D     R2,=A(100)          R3 = days in this year (rel zero)
 00F792 4111 3001            00001 83108                       LA    R1,@R3+1(R1)        Form "yyddd"
 00F796 4E10 D000            00000 83109                       CVD   R1,@R13
 00F79A 960F D007      00007       83110                       OI    @R13+7,X'0F'        Make sign correct
 00F79E 5810 D004            00004 83111                       L     R1,@R13+4           Date in packed decimal
 00F7A2 18D9/982C D004_            83112                       PEND
 DROP   *,R11
1AMELIA   Utility Routines                                                                                                  Page  326
0Current Usings:  (COMMAND+4096,R8) (NIT,R12)
0Loc    Object Code    Addr1 Addr2  Stmt Lv Lineno    Source Statement           (Hibal 5, Asmedit 3.3)  HLASM R4.0  2004/03/15 13.11
+___    ______ ____    _____ _____  ____ __ ______    ______ _________
0                                  83133
                                   83134
                                   83135                 DATE -- Routine to convert packed decimal julian date (as
                                   83136                   returned by 'TIME BIN') to 'mm/dd/yy' format.
                                   83137
                                   83138                     On entry:
                                   83139                       R0 - packed julian date (yydddf)
                                   83140                       R1 - 8 byte return area (for 'mm/dd/yy')
                                   83141
                                   83142                     On exit:
                                   83143                       R1,R0 - return area loc,len
                                   83144

000F7B0 50E0 D000/902C_      00000 83145              DATE     XPROC (R2,LSR),WA,TRACE=NO
 USING  *,R11
 USING  WA-(4+44),R9
 00F7C0 4160 9034            00004 83194                       LA    R6,DW
 00F7C4 5460 B288            0FA48 83195                       N     R6,=A(X'FFFFF8')    Doubleword
 USING  DEC,R6                     83196                       WITH  (DEC,R6)
 00F7C8 5000 6004            00004 83209                       ST    R0,DEC+4            Plant date
 00F7CC F342 1000 6005 00000 00005 83210                       UNPK  @R1(5),DEC+5(3)     Convert year (and day to make dec)
 00F7D2 96F0 1000      00000       83211                       OI    @R1,X'F0'           Ensure valid plus sign
 00F7D6 D303 1001 1000 00001 00000 83212                       MVZ   @R1+1(4),@R1        all have x'f0' zone
 00F7DC DD04 1000 B074 00000 0F834 83213                       TRT   @R1(5),DATEVAL-C'0'
 00F7E2 4770 B06A            0F82A 83214                       BNZ   DATERR
 00F7E6 D201 1006 1000 00006 00000 83215                       MVC   @R1+6(2),@R1        Put year into area
 00F7EC F271 6000 1006 00000 00006 83216                       PACK  DEC(8),@R1+6(2)     Repack it
 00F7F2 4F30 6000            00000 83217                       CVB   R3,DEC              Convert to binary
 00F7F6 F272 6000 1002 00000 00002 83218                       PACK  DEC(8),@R1+2(3)     Repack date (should be valid now)
 00F7FC 4F20 6000            00000 83219                       CVB   R2,DEC              Day of year
 00F800 5430 B26C/4770_      0FA2C 83220                       IF    ('N R3,=F"3"',Z),BEGIN  leap year
 00F808 5920 B270/4770_      0FA30 83233  1                      IF    (R2,EQ,=A(31+29)),'LA R2,29; LA R4,20; B DATE1'
 00F81C 47D0 B062/0620       0F822 83257  1                      IF    GT,'DECR R2'
 00F822                            83275                       END
 00F822 5920 B28C/47D0_      0FA4C 83279                       IF    (R2,GT,365),BEGIN
 00F82A D207 1000 B1D8 00000 0F998 83296  1           DATERR     MVC   @R1(8),=C'??/??/??'
 00F830 47F0 B0B4            0F874 83297  1                      B     DATEX
 00F834                            83298                       END
 00F834 4140 000A            0000A 83302                       LA    R4,10               Set month to jan
 00F838 4130 B1E8            0F9A8 83303                       LA    R3,=H'31,28,31,30,31,30,31,31,30,31,30,31'
 00F83C 4920 3000/47D0_      00000 83304                       WHILE ('CH R2,@R3',GT),BEGIN
 00F844 4B20 3000            00000 83319  1                      SH    R2,@R3              Try next month
 00F848 4140 400A            0000A 83320  1                      LA    R4,@R4+10
 00F84C 4130 3002            00002 83321  1                      LA    R3,@R3+2
 00F850 47F0 B07C            0F83C 83322                       END
 00F854 4E40 6000            00000 83327              DATE1    CVD   R4,DEC              Convert month
 00F858 F321 1000 6006 00000 00006 83328                       UNPK  @R1(3),DEC+6(2)
 00F85E 4C20 B2A0            0FA60 83329                       MH    R2,=H'10'
 00F862 4E20 6000            00000 83330                       CVD   R2,DEC              Convert day
 00F866 F321 1003 6006 00003 00006 83331                       UNPK  @R1+3(3),DEC+6(2)
 00F86C 9261 1002      00002       83332                       MVI   @R1+2,C'/'
 00F870 9261 1005      00005       83333                       MVI   @R1+5,C'/'
 00F874 4100 0008            00008 83334              DATEX    LA    R0,8                Return length
1AMELIA   Utility Routines                                                                                                  Page  327
0Current Usings:  (COMMAND+4096,R8) (NIT,R12)
0Loc    Object Code    Addr1 Addr2  Stmt Lv Lineno    Source Statement           (Hibal 5, Asmedit 3.3)  HLASM R4.0  2004/03/15 13.11
+___    ______ ____    _____ _____  ____ __ ______    ______ _________
000F878 18D9/982C D004_            83335                       PEND
 DROP   DEC,R6
 DROP   WA-(4+44),R9
 DROP   *,R11
1AMELIA   Utility Routines                                                                                                  Page  328
0Current Usings:  (COMMAND+4096,R8) (NIT,R12)
0Loc    Object Code    Addr1 Addr2  Stmt Lv Lineno    Source Statement           (Hibal 5, Asmedit 3.3)  HLASM R4.0  2004/03/15 13.11
+___    ______ ____    _____ _____  ____ __ ______    ______ _________
0                                  83366
                                   83367
                                   83368                convert time to printable format
                                   83369

000F886 50E0 D000/902C_      00000 83370              TIME     XPROC (R2,LSR),WA,TRACE=NO
 USING  *,R11
 USING  WA-(4+44),R9
 00F896 4160 9034            00004 83419                       LA    R6,DW               Find double word
 00F89A 5460 B15E            0F9F4 83420                       N     R6,=XL4'FFFFF8'
 USING  DEC,R6                     83421                       WITH  (DEC,R6)
 00F89E 1830                       83434                       LR    R3,0
 00F8A0 1B22                       83435                       SR    R2,R2
 00F8A2 5D20 B1BA            0FA50 83436                       D     R2,=F'100'          Dispose of 100ths
 00F8A6 1B22                       83437                       SR    R2,R2
 00F8A8 5D20 B1BE            0FA54 83438                       D     R2,=F'60'           Get seconds
 00F8AC 4C20 B1CA            0FA60 83439                       MH    R2,=H'10'
 00F8B0 4E20 6000            00000 83440                       CVD   R2,DEC
 00F8B4 F321 6000 6006 00000 00006 83441                       UNPK  DEC(3),DEC+6(2)
 00F8BA D201 1006 6000 00006 00000 83442                       MVC   6(2,1),DEC
 00F8C0 1B22                       83443                       SR    R2,R2
 00F8C2 5D20 B1BE            0FA54 83444                       D     R2,=F'60'           Get minutes
 00F8C6 4C20 B1CA            0FA60 83445                       MH    R2,=H'10'
 00F8CA 4E20 6000            00000 83446                       CVD   R2,DEC
 00F8CE F321 1003 6006 00003 00006 83447                       UNPK  3(3,1),DEC+6(2)
 00F8D4 4C30 B1CA            0FA60 83448                       MH    R3,=H'10'
 00F8D8 4E30 6000            00000 83449                       CVD   R3,DEC              Hours
 00F8DC F321 1000 6006 00000 00006 83450                       UNPK  0(3,1),DEC+6(2)
 00F8E2 927A 1002      00002       83451                       MVI   2(1),C':'
 00F8E6 927A 1005      00005       83452                       MVI   5(1),C':'
 00F8EA 4100 0008            00008 83453                       LA    R0,8                Set len
 00F8EE 18D9/982C D004_            83454                       PEND
 DROP   DEC,R6
 DROP   WA-(4+44),R9
 DROP   *,R11
                                   83484
 00F8FC 2020202020202020           83485              BTREDMSK DC    0CL24' ',14X'20',X'2120',C'.',7X'20'
 00F914 F0F1F2F3F4F5F6F7           83486              HEXTBL   DC    C'0123456789ABCDEF'
 00F924 0000000000000000           83487              DATEVAL  DC    X'00000000000000000000010101010101'
                                   83488
                                   83489                       QLTORG
1AMELIA   UNPRESS - unpress WYLBUR edit format line                                                                         Page  329
0Current Usings:  (COMMAND+4096,R8) (NIT,R12)
0Loc    Object Code    Addr1 Addr2  Stmt Lv Lineno    Source Statement           (Hibal 5, Asmedit 3.3)  HLASM R4.0  2004/03/15 13.11
+___    ______ ____    _____ _____  ____ __ ______    ______ _________
0                                  83561
                                   83562
                                   83563                 UNPRESS -- Unpresses a line in WYLBUR edit format.
                                   83564
                                   83565                   On entry:
                                   83566                     R15- pressed line ptr (before lineno)
                                   83567                     R1 - unpress area (at least &LINESZ bytes)
                                   83568
                                   83569                   On exit:
                                   83570                     R1,R0 - unpress loc, len
                                   83571                     R15   - WYLBUR line-number
                                   83572

0000000                00000 00004 83573              UNPRWA   RECORD BEGIN
 000000                            83581  1           UNPRLNO    DS    F                   Lineno
 000004                00004 00004 83582                       END
000FA90 50E0 D000/901C_      00000 83592              UNPRESS  PROC  (R1,LSR),UNPRWA,TRACE=NO
 USING  *,R11
 USING  UNPRWA-(4+48),R9
 00FAA0 D203 9034 F000 00000 00000 83639                       MVC   UNPRLNO,@R15        Make aligned line-no available
 00FAA6 9240 1000      00000       83640                       MVI   @R1,C' '            Blank return area
 00FAAA D2E9 1001 1000 00001 00000 83641                       MVC   @R1+1(235-1),@R1
 00FAB0 4110 1000            00000 83642                       LA    R1,@R1              Make sure 1st byte clear
 00FAB4 1301                       83643                       LCR   R0,R1               Set r0 for length calc at end
 00FAB6 1F55/4350 F004             83644                       LC    R5,@R15+4           Get total line length
 00FABC 1255                       83651                       LTR   R5,R5               Is it a null line
 00FABE 4780 B052            0FAF2 83652                       BZ    FINUNP              Br yes
 00FAC2 4160 000F            0000F 83653                       LA    R6,X'0F'            Put mask in r2
 00FAC6 4120 0001            00001 83654                       LA    R2,1                Set r2 for bxle step
 00FACA 0650                       83655                       DECR  R5                  Set r5 so that end of line
 00FACC 4135 F000            00000 83657                       LA    R3,@R15(R5)         Point r3 to end for bxle
 00FAD0 4350 F005            00005 83658              MORECH   IC    R5,@R15+5           Get blank-char control byte
 00FAD4 1845                       83659                       LR    R4,R5               Put in r4 also
 00FAD6 8850 0004            00004 83660                       SRL   R5,4                Shift to get blank count
 00FADA 1A15                       83661                       AR    R1,R5               Move output ptr over blanks
 00FADC 1446                       83662                       NR    R4,R6               Mask to get non-blank count
 00FADE 4780 B04E            0FAEE 83663                       BZ    ALLBLS              No move if zero count
 00FAE2 1854                       83664                       LR    R5,R4               Put count in r5
 00FAE4 0650/4450 B674_            83665                       DEX   R5,'MVC @R1(0),@R15+6' Move text to output
 00FAEA 1AF4                       83684                       AR    R15,R4              Bump input ptr past text
 00FAEC 1A14                       83685                       AR    R1,R4               Bump output ptr past text
 00FAEE 87F2 B030            0FAD0 83686              ALLBLS   BXLE  R15,R2,MORECH       Add 1 (in r2) to input ptr
                                   83687              *                       (in r15) and branch if <= end (in r3)
                                   83688              * note that this now falls through even for an invalid pressed
                                   83689              *      line.  for a valid line (r3+1) must equal r15 but there
                                   83690              *      is no reason to check because there is no good recovery
                                   83691              *      if the line happens to be invalid.
 00FAF2 58F0 9034            00000 83692              FINUNP   L     R15,UNPRLNO         Line-no to R15
 00FAF6 1A01                       83693                       AR    R0,R1               Calc total length of line
 00FAF8 18D9/981C D004_            83694                       PEND
 DROP   UNPRWA-(4+48),R9
 DROP   *,R11
1AMELIA   UNPRESS - unpress WYLBUR edit format line                                                                         Page  330
0Current Usings:  (COMMAND+4096,R8) (NIT,R12)
0Loc    Object Code    Addr1 Addr2  Stmt Lv Lineno    Source Statement           (Hibal 5, Asmedit 3.3)  HLASM R4.0  2004/03/15 13.11
+___    ______ ____    _____ _____  ____ __ ______    ______ _________
0                                  83720
                                   83721
                                   83722                 DEQUOTE/DEQSTR -- Routine to dequote string.
                                   83723
                                   83724                  On entry:
                                   83725                    R1,R0 - string loc,len
                                   83726                    R15   - output string loc (only for "DEQSTR" entry)
                                   83727
                                   83728                  On exit, CC:
                                   83729                    NEG   - not a string (r1,r0 - same as on entry)
                                   83730                    Z,POS - string dequoted (r1,r0 -loc,len of dequoted string)
                                   83731

0                                  83732                       ENTRY DEQUOTE
 00FB06 41F0 1001            00001 83733              DEQUOTE  LA    R15,@R1+1           De-quote string in place
                                   83734
 00FB0A 50E0 D000/902C_      00000 83735              DEQSTR   XPROC (R2,LSR),TRACE=NO
 USING  *,R11
 00FB1A 5900 B5BE/4740_      100D8 83774                       IF    (R0,LT,2),DQBAD     Bad string
 00FB22 957D 1000/4780_00000       83794                       IF    ((@R1,NE,''''),AND,(@R1,NE,'"')),DQBAD
                                   83828
 00FB32 0600                       83829                       DECR  R0                  Strip off outer quotes
 00FB34 0600                       83831                       DECR  R0
 00FB36 1841                       83833                       LR    R4,R1               Remember kind of quote
 00FB38 4160 1001            00001 83834                       LA    R6,@R1+1            Inp ptr
 00FB3C 181F                       83835                       LR    R1,R15
 00FB3E 1850                       83836                       LR    R5,R0
 00FB40 1255/47D0 B052             83837                       WHILE (R5,POS),BEGIN
 00FB46 D200 F000 6000 00000 00000 83853  1                      MVC   @R15(1),@R6
 00FB4C D500 F000 4000_00000 00000 83854  1                      IF    ('CLC @R15(1),@R4',EQ),'LA R6,@R6+1; DECR R5; DECR R0'
 00FB5E 41F0 F001            00001 83877  1                      LA    R15,@R15+1
 00FB62 4160 6001            00001 83878  1                      LA    R6,@R6+1
 00FB66 0650                       83879  1                      DECR  R5
 00FB68 47F0 B026            0FB40 83881                       END
 00FB6C 1200                       83886                       LTR   R0,R0               Set cc
 00FB6E 47F0 B05A            0FB74 83887                       EXIT
                                   83890
 00FB72 114B                       83891              DQBAD    LNR   R4,BR               Set cc=neg
 00FB74 18D9/982C D004_            83892                       PEND  *
 DROP   *,R11
1AMELIA   SEG Routines                                                                                                      Page  331
0Current Usings:  (COMMAND+4096,R8) (NIT,R12)
0Loc    Object Code    Addr1 Addr2  Stmt Lv Lineno    Source Statement           (Hibal 5, Asmedit 3.3)  HLASM R4.0  2004/03/15 13.11
+___    ______ ____    _____ _____  ____ __ ______    ______ _________
0                                  83912
                                   83913
                                   83914                 SEGINIT -- Routine to initialize "SEGCB" control block.
                                   83915
                                   83916                   On entry:
                                   83917                     R1,R0 - location & length of seg buffer
                                   83918                     R15   - SEGCB ptr
                                   83919                     @RAR  - adcon of processing routine
                                   83920

0                                  83921                       ENTRY SEGINIT
                                   83922
 00FB80 41E0 E004            00004 83923              SEGINIT  LA    RAR,@RAR+4          Skip past constant
 00FB84 50E0 D000/902C_      00000 83924                       PROC  (R2,LSR),TRACE=NO
 USING  *,R11
 USING  SEGCB,R15                  83960                       WITH  (SEGCB,R15),BEGIN
 00FB94 D72B F000 F000 00000 00000 83974  1                      CLEAR SEGCB               Init
 00FB9A 4000 F002            00002 83981  1                      STH   R0,SEGCBMAX         Save max seg buffer length
 00FB9E 5010 F010            00010 83982  1                      ST    R1,SEGCBLOC         ... and location
 00FBA2 4BE0 B570            10104 83983  1                      SH    RAR,=Y(4)
 00FBA6 D203 F014 E000 00014 00000 83984  1                      MVC   SEGCBRTN,@RAR       Move in processing routine addr
 DROP   SEGCB,R15                  83985                       END
 00FBAC 18D9/982C D004_            83993                       PEND
 DROP   *,R11
1AMELIA   SEG Routines                                                                                                      Page  332
0Current Usings:  (COMMAND+4096,R8) (NIT,R12)
0Loc    Object Code    Addr1 Addr2  Stmt Lv Lineno    Source Statement           (Hibal 5, Asmedit 3.3)  HLASM R4.0  2004/03/15 13.11
+___    ______ ____    _____ _____  ____ __ ______    ______ _________
0                                  84014
                                   84015
                                   84016                 SEGB -- Routine to add segment to buffer followed by a blank.
                                   84017                   (Same entry conventions as "SEG" routine below.)
                                   84018

000FBBA 90EF C020/4DE0_      00020 84019              SEGB     XPROC (R2,LSR)
 USING  *,R11
 00FBDE 186F                       84063                       LR    R6,R15              Save segcb ptr
 00FBE0 4DE0 B182            0FD60 84064                       LCALL SEG
 00FBE4 4110 B532/4100_      10110 84066                       SEG   ' ',,(R6)
 00FBF4 18D9/982C D004_            84081                       PEND
 DROP   *,R11
-                                  84102
                                   84103
                                   84104                SEGTB -- Routine to add "trimmed" segment to buffer followed by
                                   84105                  a blank.  (Same entry conventions as "SEG" routine below.)
                                   84106

000FC02 90EF C020/4DE0_      00020 84107              SEGTB    XPROC (R2,LSR)
 USING  *,R11
 00FC26 186F                       84151                       LR    R6,R15              Save segcb ptr
 00FC28 4DE0 B0D8            0FCFE 84152                       LCALL SEGT
 00FC2C 4110 B4EA/4100_      10110 84154                       SEG   ' ',,(R6)
 00FC3C 18D9/982C D004_            84169                       PEND
 DROP   *,R11
1AMELIA   SEG Routines                                                                                                      Page  333
0Current Usings:  (COMMAND+4096,R8) (NIT,R12)
0Loc    Object Code    Addr1 Addr2  Stmt Lv Lineno    Source Statement           (Hibal 5, Asmedit 3.3)  HLASM R4.0  2004/03/15 13.11
+___    ______ ____    _____ _____  ____ __ ______    ______ _________
0                                  84190
                                   84191
                                   84192                 SEGCR -- Add segment to buffer followed by a carriage
                                   84193                   return.  (Same entry conventions as "SEG" routine below.)
                                   84194

000FC4A 90EF C020/4DE0_      00020 84195              SEGCR    XPROC (R2,LSR)
 USING  *,R11
 00FC6E 186F                       84239                       LR    R6,R15              Save segcb ptr
 00FC70 4DE0 B0F2            0FD60 84240                       LCALL SEG
 00FC74 4110 B4A3/4100_      10111 84242                       SEG   X'15',,(R6)         Followed by a cr
 00FC84 18F6/58E0 B472_            84257                       SEGMARK (R6)
 00FC8C 18D9/982C D004_            84268                       PEND
 DROP   *,R11
1AMELIA   SEG Routines                                                                                                      Page  334
0Current Usings:  (COMMAND+4096,R8) (NIT,R12)
0Loc    Object Code    Addr1 Addr2  Stmt Lv Lineno    Source Statement           (Hibal 5, Asmedit 3.3)  HLASM R4.0  2004/03/15 13.11
+___    ______ ____    _____ _____  ____ __ ______    ______ _________
0                                  84289
                                   84290
                                   84291                 SEGWR -- Routine to add (final) segment to buffer and write
                                   84292                   contents.  (Same entry conventions as "SEG" routine below.)
                                   84293

000FC9A 90EF C020/4DE0_      00020 84294              SEGWR    XPROC (R2,LSR)
 USING  *,R11
 00FCBE 186F                       84338                       LR    R6,R15              Save segcb ptr
 00FCC0 4DE0 B0A2            0FD60 84339                       LCALL SEG
 USING  SEGCB,R6                   84341                       WITH  (SEGCB,R6)
 00FCC4 9202 6000      00000       84354                       SET   SEGCBWR             Set function code for exit routine
 00FCC8 5810 6010            00010 84360                       L     R1,SEGCBLOC         Start of buffer
 00FCCC 4800 6006            00006 84361                       LH    R0,SEGCBLEN         Length
 00FCD0 18F6                       84362                       LR    R15,R6              Segcb ptr
 00FCD2 58E0 6014/12EE_      00014 84363                       IF    ('LT RAR,SEGCBRTN',NZ),BEGIN
 00FCDC 05EE                       84379  1                      BALR  RAR,RAR             Go off to exit routine
 00FCDE D201 6006 B448 00006 10106 84380  1                      MVC   SEGCBLEN,=H'0'      RESET BUFFER (DON'T change cc)
 00FCE4 D201 6004 B448 00004 10106 84381  1                      MVC   SEGCBMRK,=H'0'      Reset mark too
 00FCEA                            84382                       END
 00FCEA B030/47F0 B032_0FCEA 0FCDA 84386                       ELSE  'CLEAR R15'         Set dummy rc
 00FCF0 18D9/982C D004_            84406                       PEND
 DROP   SEGCB,R6
 DROP   *,R11
1AMELIA   SEG Routines                                                                                                      Page  335
0Current Usings:  (COMMAND+4096,R8) (NIT,R12)
0Loc    Object Code    Addr1 Addr2  Stmt Lv Lineno    Source Statement           (Hibal 5, Asmedit 3.3)  HLASM R4.0  2004/03/15 13.11
+___    ______ ____    _____ _____  ____ __ ______    ______ _________
0                                  84432
                                   84433
                                   84434                 SEG/SEGT -- Add segment to buffer.  "SEGT" entry will
                                   84435                   trim trailing blanks.
                                   84436
                                   84437                    On entry:
                                   84438                      R1,R0 - location & length of segment
                                   84439                      R15 - SEGCB ptr
                                   84440
                                   84441                    On exit, R15 (and CC):
                                   84442                       -4 - overflow occured
                                   84443                        0 - normal
                                   84444

000FCFE 90EF C020/4DE0_      00020 84445              SEGT     XPROC (R0,LSR)
 USING  *,R11
 00FD22 186F                       84489                       LR    R6,R15
 USING  SEGCB,R6                   84490                       WITH  (SEGCB,R6)
 00FD24 1200/47D0 B02C             84503                       IF    (R0,POS),BEGIN      Something to seg...
 00FD2A 4110 1000            00000 84517  1                      LA    R1,@R1              Clear high byte
 00FD2E 1821                       84518  1                      LR    R2,R1
 00FD30 1A20                       84519  1                      AR    R2,R0
 00FD32 0620                       84520  1                      DECR  R2                  Addr of last char
 00FD34 1921/4750 B026_            84522  1                      WHILE ((R2,GE,R1),AND,(@R2,EQ,' ')),'DECR R2'
 00FD48 1B21                       84562  1                      SR    R2,R1
 00FD4A 4100 2001            00001 84563  1                      LA    R0,@R2+1            Trimmed string len
 00FD4E                            84564                       END
 00FD4E 47F0 B064            0FD86 84568                       B     SEGCOM
 00FD52 18D9/980C D004_            84569                       PEND  ,                   (Dummy)
 DROP   SEGCB,R6
 DROP   *,R11
-00FD60 90EF C020/4DE0_      00020 84595              SEG      XPROC (R0,LSR)
 USING  *,R11
 00FD84 186F                       84639                       LR    R6,R15
 USING  SEGCB,R6                   84640                       WITH  (SEGCB,R6)
                                   84653
 00FD86 0DB0                       84654              SEGCOM   BASE
 DROP   *,R11
 USING  *,R11
 00FD88 9201 6000      00000       84671                       SET   SEGCBSEG            Set function code for exit routine
 00FD8C 58E0 6014/12EE_      00014 84677                       IF    ('LT RAR,SEGCBRTN',NZ),'BALR RAR,RAR'
                                   84699
 00FD98 1B55                       84700                       CLEAR R5                  Set ok rc
 00FD9A 1200/47D0 B0E2             84704                       IF    (R0,~POS),SEGEXIT   Skip if nothing to seg
 00FDA0 4900 6002/47D0_      00002 84721                       CEIL  R0,SEGCBMAX         Max allowed
 00FDAC 1821                       84727                       LR    R2,R1
 00FDAE 1830                       84728                       LR    R3,R0
                                   84729
 00FDB0 1B55                       84730              SEGRETRY CLEAR R5                  Init return code
 00FDB2 4A00 6006            00006 84735                       AH    R0,SEGCBLEN         Calc new total length
 00FDB6 4900 6002/47D0_      00002 84736                       IF    (R0,GT,SEGCBMAX),BEGIN  overflow...
1AMELIA   SEG Routines                                                                                                      Page  336
0Current Usings:  (SEGCB,R6) (COMMAND+4096,R8) (*,R11) (NIT,R12)
0Loc    Object Code    Addr1 Addr2  Stmt Lv Lineno    Source Statement           (Hibal 5, Asmedit 3.3)  HLASM R4.0  2004/03/15 13.11
+___    ______ ____    _____ _____  ____ __ ______    ______ _________
000FDBE 9205 6000      00000       84753  1                      SET   SEGCBOVF            Set function code for exit routine
 00FDC2 5810 6010            00010 84759  1                      L     R1,SEGCBLOC         Start of buffer
 00FDC6 4800 6004/1200       00004 84760  1                      LTH   R0,SEGCBMRK         Last marked position
 00FDCC 4720 B04C/4800_      0FDD4 84764  1                      IF    NP,'LH R0,SEGCBLEN'  use cur len if no mark
 00FDD4 18F6                       84781  1                      LR    R15,R6              Segcb ptr
 00FDD6 58E0 6014/12EE_      00014 84782  1                      IF    ('LT RAR,SEGCBRTN',NZ),'BALR RAR,RAR'  user exit
 00FDE2 1200/47B0 B0B4             84804  1                      IF    (R0,NEG),BEGIN      Exit processed something...
 00FDE8 D701 6004 6004 00004 00004 84818  2                        CLEAR SEGCBMRK            Clear mark
 00FDEE 1300                       84825  2                        LCR   R0,R0               Amount processed
 00FDF0 4810 6006            00006 84826  2                        LH    R1,SEGCBLEN
 00FDF4 58E0 6010            00010 84827  2                        L     R14,SEGCBLOC
 00FDF8 48F0 6008/12FF_      00008 84828  2                        IF    ('LTH R15,SEGCBIND',NZ),BEGIN  indent...
 00FE02 BDF3 6002/47A0_      00002 84844  3                          IF    (R15,LGE,SEGCBMAX),EXIT
 00FE0A 5810 B35C            100E4 84864  3                          L     R1,=A(X'40000000')
 00FE0E 0EE0                       84865  3                          MVCL  R14,R0              Pad with blanks
 00FE10 4810 6006            00006 84866  3                          LH    R1,SEGCBLEN
 00FE14 48F0 6008            00008 84867  3                          LH    R15,SEGCBIND
 00FE18                            84868  2                        END
 00FE18 1B10                       84872  2                        SR    R1,R0               New buffer len
 00FE1A 1AF1                       84873  2                        AR    R15,R1              Including indentation
 00FE1C 40F0 6006            00006 84874  2                        STH   R15,SEGCBLEN
 00FE20 1211/4720 B0A6_            84875  2                        IF    (R1,~POS),'LA R0,@R3(R15); B SEGDO'  add new segment
 00FE2E 18F1                       84896  2                        LR    R15,R1
 00FE30 5A00 6010            00010 84897  2                        A     R0,SEGCBLOC
 00FE34 0EE0                       84898  2                        MVCL  R14,R0              Move remaining text over
 00FE36 1803                       84899  2                        LR    R0,R3               New segment len
 00FE38 47F0 B028            0FDB0 84900  2                        B     SEGRETRY            Try again
 00FE3C                            84901  1                      END
 00FE3C 1803                       84905  1                      LR    R0,R3
 00FE3E 4A00 6006            00006 84906  1                      AH    R0,SEGCBLEN         Re-calc total len
 00FE42 4B00 6002/47D0_      00002 84907  1                      IF    ('SH R0,SEGCBMAX',NP),SEGDO  IT'S ok now
 00FE4A 4850 B380            10108 84923  1                      LH    R5,=H'-4'           Set return code
 00FE4E 1B30                       84924  1                      SR    R3,R0               Only seg as much as will fit
 00FE50 47D0 B0E2            0FE6A 84925  1                      BNP   SEGEXIT             Nothing will fit
 00FE54 4800 6002            00002 84926  1                      LH    R0,SEGCBMAX         New buffer len
 00FE58                            84927                       END
 00FE58 48F0 6006            00006 84931              SEGDO    LH    R15,SEGCBLEN
 00FE5C 4000 6006            00006 84932                       STH   R0,SEGCBLEN         Update length
 00FE60 5800 6010            00010 84933                       L     R0,SEGCBLOC
 00FE64 1A0F                       84934                       AR    R0,R15              Insertion point
 00FE66 1813                       84935                       LR    R1,R3               Len
 00FE68 0E02                       84936                       MVCL  R0,R2               Move in segment
 00FE6A 9204 6000      00000       84937              SEGEXIT  SET   SEGCBSPP            Set function code for exit routine
 00FE6E 18F6                       84944                       LR    R15,R6              Segcb ptr
 00FE70 1205                       84945                       LTR   R0,R5               Put rc in r0 for exit routine
 00FE72 58E0 6014/12EE_      00014 84946                       IF    ('LT RAR,SEGCBRTN',NZ),'BALR RAR,RAR'  user exit
 DROP   SEGCB,R6                   84968                       DROP  SEGCB
 00FE7E 18D9/980C D004_            84976                       PEND  'LTR R15,R0'
 DROP   *,R11
1AMELIA   SEG Routines                                                                                                      Page  337
0Current Usings:  (COMMAND+4096,R8) (NIT,R12)
0Loc    Object Code    Addr1 Addr2  Stmt Lv Lineno    Source Statement           (Hibal 5, Asmedit 3.3)  HLASM R4.0  2004/03/15 13.11
+___    ______ ____    _____ _____  ____ __ ______    ______ _________
0                                  85000
                                   85001
                                   85002                 SEGCOL -- Routine to extend seg buffer to absolute column.
                                   85003
                                   85004                   On entry:
                                   85005                     R0  - column number
                                   85006                     R15 - SEGCB ptr
                                   85007

000FE8C 90EF C020/4DE0_      00020 85008              SEGCOL   XPROC (R2,LSR)
 USING  *,R11
 00FEB0 186F                       85052                       LR    R6,R15
 USING  SEGCB,R6                   85053                       WITH  (SEGCB,R6)
 00FEB2 0600                       85066                       DECR  R0                  Make rel to zero
 00FEB4 4900 6002/47D0_      00002 85068                       IF    (R0,GT,SEGCBMAX),'LH R0,SEGCBMAX'
 00FEC0 4B00 6006            00006 85091                       SH    R0,SEGCBLEN         No. of blanks
 00FEC4 4720 B01C/4100_      0FECC 85092                       IF    ~POS,'LA R0,1'      At least one blank
 00FECC 18F6/58E0 B238_            85109                       SEGBLANK (R0)             Add the blanks
 00FED4 18D9/982C D004_            85124                       PEND
 DROP   SEGCB,R6
 DROP   *,R11
1AMELIA   SEG Routines                                                                                                      Page  338
0Current Usings:  (COMMAND+4096,R8) (NIT,R12)
0Loc    Object Code    Addr1 Addr2  Stmt Lv Lineno    Source Statement           (Hibal 5, Asmedit 3.3)  HLASM R4.0  2004/03/15 13.11
+___    ______ ____    _____ _____  ____ __ ______    ______ _________
0                                  85150
                                   85151
                                   85152                 SEGBLANK -- Routine to add blanks to the seg buffer.
                                   85153
                                   85154                   On entry:
                                   85155                     R0  - no. of blanks to add
                                   85156                     R15 - SEGCB ptr
                                   85157

000FEE2 90EF C020/4DE0_      00020 85158              SEGBLANK XPROC (R2,LSR)
 USING  *,R11
 00FF06 186F                       85202                       LR    R6,R15
 USING  SEGCB,R6                   85203                       WITH  (SEGCB,R6)
 00FF08 1850                       85216                       LR    R5,R0
 00FF0A 5950 B1E6/47D0_      100EC 85217                       WHILE (R5,GT,L'NITBLANK),BEGIN
 00FF12 4110 C23C/4100_      0023C 85236  1                      SEG   NITBLANK,,(R6)
 00FF22 4B50 B204            1010A 85261  1                      SH    R5,=AL2(L'NITBLANK)
 00FF26 47F0 B004            0FF0A 85262                       END
 00FF2A 4110 C23C/1805_      0023C 85267                       SEG   NITBLANK,(R5),(R6)
 00FF38 18D9/982C D004_            85292                       PEND
 DROP   SEGCB,R6
 DROP   *,R11
                                   85317
1AMELIA   SEG Routines                                                                                                      Page  339
0Current Usings:  (COMMAND+4096,R8) (NIT,R12)
0Loc    Object Code    Addr1 Addr2  Stmt Lv Lineno    Source Statement           (Hibal 5, Asmedit 3.3)  HLASM R4.0  2004/03/15 13.11
+___    ______ ____    _____ _____  ____ __ ______    ______ _________
0                                  85319
                                   85320
                                   85321                 SEGCLR -- Routine to reset seg buffer.
                                   85322
                                   85323                   On entry:
                                   85324                     R15 - SEGCB ptr
                                   85325

000FF46 90EF C020/4DE0_      00020 85326              SEGCLR   XPROC (R2,LSR)
 USING  *,R11
 00FF6A 186F                       85370                       LR    R6,R15
 USING  SEGCB,R6                   85371                       WITH  (SEGCB,R6)
 00FF6C 9203 6000      00000       85384                       SET   SEGCBCLR            Set function code for exit routine
 00FF70 58E0 6014/12EE_      00014 85390                       IF    ('LT RAR,SEGCBRTN',NZ),'BALR RAR,RAR'  user exit
 00FF7C D701 6006 6006_00006 00006 85412                       CLEAR SEGCBLEN,SEGCBMRK
 00FF88 18D9/982C D004_            85424                       PEND
 DROP   SEGCB,R6
 DROP   *,R11
-                                  85450
                                   85451
                                   85452                SEGMARK -- Routine to mark current location in seg buffer.
                                   85453
                                   85454                  On entry:
                                   85455                    r15 - segcb ptr
                                   85456

0                                  85457                       ENTRY SEGMARK
 00FF96 D201 F004 F006 00004 00006 85458              SEGMARK  WITH  (SEGCB,R15),'MVC SEGCBMRK,SEGCBLEN'
 USING  SEGCB,R15
 DROP   SEGCB,R15
 00FF9C 07FE                       85483                       BR    RAR
1AMELIA   SEG Routines                                                                                                      Page  340
0Current Usings:  (COMMAND+4096,R8) (NIT,R12)
0Loc    Object Code    Addr1 Addr2  Stmt Lv Lineno    Source Statement           (Hibal 5, Asmedit 3.3)  HLASM R4.0  2004/03/15 13.11
+___    ______ ____    _____ _____  ____ __ ______    ______ _________
0                                  85485
                                   85486
                                   85487                 SEGDC -- Routine to add number in decimal to seg buffer.
                                   85488
                                   85489                   On entry:
                                   85490                   R1 - number; R0 - length
                                   85491                   R15 - SEGCB ptr
                                   85492

000FF9E 90EF C020/4DE0_      00020 85493              SEGDC    XPROC (R2,LSR)
 USING  *,R11
 00FFC2 186F                       85537                       LR    R6,R15              Save segcb ptr
 00FFC4 182D/41D0 D014             85538                       PUSH  20,PTR=R2
 00FFCA 18F1                       85542                       LR    R15,R1
 00FFCC 1812/58E0 B12E_            85543                       BTD   (R2),(R0),(R15)     Convert to printable format
 00FFD4 18F6/58E0 B11A_            85560                       SEG   (R1),(R0),(R6)
 00FFDC 4BD0 B14A            1010C 85581                       POP   20
 00FFE0 18D9/982C D004_            85585                       PEND
 DROP   *,R11
1AMELIA   SEG Routines                                                                                                      Page  341
0Current Usings:  (COMMAND+4096,R8) (NIT,R12)
0Loc    Object Code    Addr1 Addr2  Stmt Lv Lineno    Source Statement           (Hibal 5, Asmedit 3.3)  HLASM R4.0  2004/03/15 13.11
+___    ______ ____    _____ _____  ____ __ ______    ______ _________
0                                  85606
                                   85607
                                   85608                 SEGHX -- Routine to add number in hex to seg buffer.
                                   85609
                                   85610                   On entry:
                                   85611                   R1 - number; R0 - length
                                   85612                   R15 - SEGCB ptr
                                   85613

000FFEE 90EF C020/4DE0_      00020 85614              SEGHX    XPROC (R2,LSR)
 USING  *,R11
 010012 186F                       85658                       LR    R6,R15              Save segcb ptr
 010014 182D/41D0 D014             85659                       PUSH  20,PTR=R2
 01001A 18F1                       85663                       LR    R15,R1
 01001C 1812/58E0 B0E2_            85664                       BTX   (R2),(R0),(R15)     Convert to printable format
 010024 18F6/58E0 B0CA_            85681                       SEG   (R1),(R0),(R6)
 01002C 4BD0 B0FC            1010E 85702                       POP   20
 010030 18D9/982C D004_            85706                       PEND
 DROP   *,R11
1AMELIA   SEG Routines                                                                                                      Page  342
0Current Usings:  (COMMAND+4096,R8) (NIT,R12)
0Loc    Object Code    Addr1 Addr2  Stmt Lv Lineno    Source Statement           (Hibal 5, Asmedit 3.3)  HLASM R4.0  2004/03/15 13.11
+___    ______ ____    _____ _____  ____ __ ______    ______ _________
0                                  85727
                                   85728
                                   85729                 SEGIP -- Routine to add IP address to seg buffer.
                                   85730
                                   85731                   On entry:
                                   85732                   R1 - IP address
                                   85733                   R15 - SEGCB ptr
                                   85734

001003E 50E0 D000/900C_      00000 85735              SEGIP    PROC  TRACE=NO
 USING  *,R11
 01004E 186F                       85772                       LR    R6,R15              Save segcb ptr
 010050 18FD/41D0 D010             85773                       XPUSH ,,16,PTR=R15          Get work area
 010056 58E0 B0AA/0DEE       100F8 85776                       ACALL FMTIP               Call format routine
 01005C 18F6/58E0 B08E_            85780                       SEG   (R1),(R0),(R6)
 010064 18D9/980C D004_            85801                       PEND
 DROP   *,R11
1AMELIA   SEG Routines                                                                                                      Page  343
0Current Usings:  (COMMAND+4096,R8) (NIT,R12)
0Loc    Object Code    Addr1 Addr2  Stmt Lv Lineno    Source Statement           (Hibal 5, Asmedit 3.3)  HLASM R4.0  2004/03/15 13.11
+___    ______ ____    _____ _____  ____ __ ______    ______ _________
0                                  85822
                                   85823
                                   85824                 SEGENET -- Routine to add Ethernet  address to seg buffer.
                                   85825
                                   85826                   On entry:
                                   85827                     R0,R1 - Ethernet address
                                   85828                     R15   - SEGCB ptr
                                   85829

0010072 50E0 D000/900C_      00000 85830              SEGENET  PROC  TRACE=NO
 USING  *,R11
 010082 186F                       85867                       LR    R6,R15              Save segcb ptr
 010084 184D/41D0 D010             85868                       XPUSH ,,16,PTR=R4         Get work area
 01008A 9001 4000            00000 85871                       STM   R0,R1,@R4
 01008E 4154 0005            00005 85872                       LA    R5,5(R4)            End of address
 010092 1945/4730 B046             85873                       WHILE (R4,LE,R5),BEGIN
 010098 1F11/4310 4000_            85890  1                      SEGHX IC:@R4,2,(R6)
 0100AA 5E40 B07E            10100 85917  1                      INCR  R4
 0100AE 1945/4730 B042_            85920  1                      IF    (R4,LE,R5),'SEG ":"'
 0100C4 47F0 B010            10092 85955                       END
 0100C8 18D9/980C D004_            85960                       PEND
 DROP   *,R11
                                   85980                       QLTORG
1AMELIA   Translate tables                                                                                                  Page  344
0Current Usings:  (COMMAND+4096,R8) (NIT,R12)
0Loc    Object Code    Addr1 Addr2  Stmt Lv Lineno    Source Statement           (Hibal 5, Asmedit 3.3)  HLASM R4.0  2004/03/15 13.11
+___    ______ ____    _____ _____  ____ __ ______    ______ _________
0                                  86013
                                   86014                   Translate table for EBCDIC to ASCII conversion.
                                   86015
                                   86016              *                 0 1 2 3 4 5 6 7 8 9 A B C D E F
                                   86017              *
 01011A 000102032309237F           86018              EBC2ASCI DC    X'000102032309237F2323230B0C0D0E0F'   0
 01012A 1011121323230823           86019                       DC    X'1011121323230823181923231C1D1E1F'   1
 01013A 23232323230A171B           86020                       DC    X'23232323230A171B2323232323050607'   2
 01014A 2323162323232304           86021                       DC    X'2323162323232304232323231415231A'   3
 01015A 2023232323232323           86022                       DC    X'202323232323232323235E2E3C282B7C'   4
 01016A 2623232323232323           86023                       DC    X'2623232323232323232321242A293B7E'   5
 01017A 2D2F232323232323           86024                       DC    X'2D2F2323232323232323232C255F3E3F'   6
 01018A 2323232323232323           86025                       DC    X'232323232323232323603A2340273D22'   7
 01019A 2361626364656667           86026                       DC    X'23616263646566676869232323232323'   8
 0101AA 236A6B6C6D6E6F70           86027                       DC    X'236A6B6C6D6E6F707172232323232323'   9
 0101BA 2323737475767778           86028                       DC    X'2323737475767778797A2323235B2323'   A
 0101CA 2323232323232323           86029                       DC    X'232323232323232323232323235D2323'   B
 0101DA 7B41424344454647           86030                       DC    X'7B414243444546474849232323232323'   C
 0101EA 7D4A4B4C4D4E4F50           86031                       DC    X'7D4A4B4C4D4E4F505152232323232323'   D
 0101FA 5C23535455565758           86032                       DC    X'5C23535455565758595A232323232323'   E
 01020A 3031323334353637           86033                       DC    X'30313233343536373839232323232323'   F
-                                  86035
                                   86036                   Translate table for ASCII to EBCDIC conversion.
                                   86037
                                   86038              *                 0 1 2 3 4 5 6 7 8 9 A B C D E F
                                   86039              *
 01021A 00010203372D2E2F           86040              ASCI2EBC DC    X'00010203372D2E2F1605250B0C0D0E0F'   0
 01022A 101112133C3D3226           86041                       DC    X'101112133C3D322618193F271C1D1E1F'   1
 01023A 405A7F7B5B6C507D           86042                       DC    X'405A7F7B5B6C507D4D5D5C4E6B604B61'   2
 01024A F0F1F2F3F4F5F6F7           86043                       DC    X'F0F1F2F3F4F5F6F7F8F97A5E4C7E6E6F'   3
 01025A 7CC1C2C3C4C5C6C7           86044                       DC    X'7CC1C2C3C4C5C6C7C8C9D1D2D3D4D5D6'   4
 01026A D7D8D9E2E3E4E5E6           86045                       DC    X'D7D8D9E2E3E4E5E6E7E8E9ADE0BD4A6D'   5
 01027A 7981828384858687           86046                       DC    X'79818283848586878889919293949596'   6
 01028A 979899A2A3A4A5A6           86047                       DC    X'979899A2A3A4A5A6A7A8A9C04FD05F07'   7
 01029A 00010203372D2E2F           86048                       DC    X'00010203372D2E2F1605250B0C0D0E0F'   8
 0102AA 101112133C3D3226           86049                       DC    X'101112133C3D322618193F271C1D1E1F'   9
 0102BA 405A7F7B5B6C507D           86050                       DC    X'405A7F7B5B6C507D4D5D5C4E6B604B61'   A
 0102CA F0F1F2F3F4F5F6F7           86051                       DC    X'F0F1F2F3F4F5F6F7F8F97A5E4C7E6E6F'   B
 0102DA 7CC1C2C3C4C5C6C7           86052                       DC    X'7CC1C2C3C4C5C6C7C8C9D1D2D3D4D5D6'   C
 0102EA D7D8D9E2E3E4E5E6           86053                       DC    X'D7D8D9E2E3E4E5E6E7E8E9ADE0BD4A6D'   D
 0102FA 7981828384858687           86054                       DC    X'79818283848586878889919293949596'   E
 01030A 979899A2A3A4A5A6           86055                       DC    X'979899A2A3A4A5A6A7A8A9C04FD05F07'   F
-                                  86057
                                   86058                    Lower case translate table
                                   86059
 01031A 0001020304050607           86060              LOWCASE  DC    256AL1(*-LOWCASE)
 01041A                1041A 103DB 86061                       ORG   LOWCASE+C'A'
 0103DB 8182838485868788           86062                       DC    C'abcdefghi'
 0103E4                103E4 103EB 86063                       ORG   LOWCASE+C'J'
 0103EB 9192939495969798           86064                       DC    C'jklmnopqr'
1AMELIA   Translate tables                                                                                                  Page  345
0Current Usings:  (COMMAND+4096,R8) (NIT,R12)
0Loc    Object Code    Addr1 Addr2  Stmt Lv Lineno    Source Statement           (Hibal 5, Asmedit 3.3)  HLASM R4.0  2004/03/15 13.11
+___    ______ ____    _____ _____  ____ __ ______    ______ _________
00103F4                103F4 103FC 86065                       ORG   LOWCASE+C'S'
 0103FC A2A3A4A5A6A7A8A9           86066                       DC    C'stuvwxyz'
 010404                10404 1041A 86067                       ORG   LOWCASE+256
0                                  86069
                                   86070                    Version info is zapped into the following area
                                   86071
 010420                10420 00050 86072              VERSION  CSECT
 010420 D59640A58599A289           86076              VERINFO  DC    CL80'No version info'
 010470                10470 00050 86077                       END   .

1AMELIA   Relocation Dictionary                                                                                             Page  346
-   Pos.Id   Rel.Id   Flags    Address                                                       HLASM R4.0  2004/03/15 13.11
0  00000001 00000001    0C    00000108
   00000001 00000001    0C    0000010C
   00000001 00000001    0C    00000110
   00000001 00000001    0C    00000114
   00000001 00000001    0C    00000118
   00000001 00000001    08    0000036D
   00000001 00000001    08    00000371
   00000001 00000001    08    000003CD
   00000001 00000001    08    000003D1
   00000001 00000001    08    0000040D
   00000001 00000001    08    00000469
   00000001 00000001    08    000004A5
   00000001 00000001    0C    000004C0
   00000001 00000001    0C    000004C4
   00000001 00000001    08    000005AD
   00000001 00000001    08    000005BD
   00000001 00000001    08    000005D1
   00000001 00000001    08    000005F1
   00000001 00000001    08    00000681
   00000001 00000001    08    000006A1
   00000001 00000001    08    0000070D
   00000001 00000001    08    00000719
   00000001 00000001    08    0000071D
   00000001 00000001    08    0000078D
   00000001 00000001    08    00000799
   00000001 00000001    08    0000079D
   00000001 00000001    0C    00000AE0
   00000001 00000001    08    00000B8D
   00000001 00000001    0C    00000C64
   00000001 00000001    0C    00000C84
   00000001 00000001    0C    00000EA8
   00000001 00000001    0C    00000EC0
   00000001 00000001    0C    00000ECC
   00000001 00000001    0C    00000ED0
   00000001 00000001    0C    00000EE0
   00000001 00000001    0C    00000EE4
   00000001 00000001    0C    00000EEC
   00000001 00000001    0C    00000EF0
   00000001 00000001    0C    00000EF4
   00000001 00000001    0C    00000EF8
   00000001 00000001    0C    00000F00
   00000001 00000001    0C    00000F04
   00000001 00000001    0C    00000F08
   00000001 00000001    0C    00000F0C
   00000001 00000001    0C    00000F14
   00000001 00000001    0C    00000F18
   00000001 00000001    0C    00000F1C
   00000001 00000001    0C    00000F20
   00000001 00000001    0C    00000F24
   00000001 00000001    0C    00000F28
   00000001 00000001    0C    00000F2C
   00000001 00000001    0C    00000F30
   00000001 00000001    0C    00000F38
   00000001 00000001    0C    00001988
   00000001 00000001    0C    0000198C
1AMELIA   Relocation Dictionary                                                                                             Page  347
   00000001 00000001    0C    00001990
   00000001 00000001    0C    00001994
   00000001 00000001    0C    000019A0
   00000001 00000001    0C    000019A4
   00000001 00000001    0C    000019A8
   00000001 00000001    0C    000019AC
   00000001 00000001    0C    000019B0
   00000001 00000001    0C    000019B4
   00000001 00000001    0C    000019BC
   00000001 00000001    0C    000019C4
   00000001 00000001    0C    000019C8
   00000001 00000001    0C    000019CC
   00000001 00000001    0C    000019D0
   00000001 00000001    0C    000019D4
   00000001 00000001    0C    000019F4
   00000001 00000001    0C    000019F8
   00000001 00000001    0C    00001A00
   00000001 00000001    0C    00001A08
   00000001 00000001    0C    00001C38
   00000001 00000001    0C    00001C40
   00000001 00000001    0C    00001C44
   00000001 00000001    0C    00001C48
   00000001 00000001    0C    00001C4C
   00000001 00000001    0C    00001C50
   00000001 00000001    0C    00001C54
   00000001 00000001    0C    00001F0C
   00000001 00000001    0C    00001F10
   00000001 00000001    0C    00001F18
   00000001 00000001    0C    00001F1C
   00000001 00000001    0C    00001F20
   00000001 00000001    0C    00001F24
   00000001 00000001    0C    00001F28
   00000001 00000001    0C    00002A0C
   00000001 00000001    0C    00002A10
   00000001 00000001    0C    00002A14
   00000001 00000001    0C    00002A18
   00000001 00000001    0C    00002A20
   00000001 00000001    0C    00002A24
   00000001 00000001    0C    00002A28
   00000001 00000001    0C    00002A38
   00000001 00000001    0C    00002A40
   00000001 00000001    0C    00002A44
   00000001 00000001    0C    00002A4C
   00000001 00000001    0C    00002A50
   00000001 00000001    0C    00002A54
   00000001 00000001    0C    00002A58
   00000001 00000001    0C    00002A5C
   00000001 00000001    0C    00002A7C
   00000001 00000001    0C    00002A84
   00000001 00000001    0C    00002A8C
   00000001 00000001    0C    00002D2C
   00000001 00000001    0C    00002D48
   00000001 00000001    0C    00002D64
   00000001 00000001    0C    00002D80
   00000001 00000001    0C    00002D9C
   00000001 00000001    0C    00002DA4
   00000001 00000001    0C    00002DB8
   00000001 00000001    0C    00002DC0
   00000001 00000001    0C    00002DD4
1AMELIA   Relocation Dictionary                                                                                             Page  348
   00000001 00000001    0C    00002DF0
   00000001 00000001    0C    00002E0C
   00000001 00000001    0C    00002E28
   00000001 00000001    0C    00002E44
   00000001 00000001    0C    00002E60
   00000001 00000001    08    00002F6F
   00000001 00000001    08    00002F7C
   00000001 00000001    08    00002F85
   00000001 00000001    08    00002F8E
   00000001 00000001    08    00002F95
   00000001 00000001    08    00002FA1
   00000001 00000001    08    00003443
   00000001 00000001    08    00003450
   00000001 00000001    08    00003458
   00000001 00000001    08    00003465
   00000001 00000001    08    0000346E
   00000001 00000001    08    00003477
   00000001 00000001    08    00003482
   00000001 00000001    08    0000348E
   00000001 00000001    08    00003499
   00000001 00000001    08    000034A5
   00000001 00000001    0C    000037C8
   00000001 00000001    0C    000037CC
   00000001 00000001    0C    000037D0
   00000001 00000001    0C    000037D4
   00000001 00000001    0C    000037DC
   00000001 00000001    0C    000037E0
   00000001 00000001    0C    000037E4
   00000001 00000001    0C    000037EC
   00000001 00000001    0C    000037FC
   00000001 00000001    0C    00003808
   00000001 00000001    0C    00003814
   00000001 00000001    0C    00003874
   00000001 00000001    0C    00003878
   00000001 00000001    0C    0000387C
   00000001 00000001    0C    00003880
   00000001 00000001    0C    000038B0
   00000001 00000001    0C    000038B4
   00000001 00000001    0C    000038B8
   00000001 00000001    0C    000038BC
   00000001 00000001    0C    000038C0
   00000001 00000001    0C    000038C4
   00000001 00000001    0C    000038C8
   00000001 00000001    0C    000038CC
   00000001 00000001    0C    000038D0
   00000001 00000001    0C    00003EB8
   00000001 00000001    0C    00003EBC
   00000001 00000001    0C    00003EC4
   00000001 00000001    0C    00003EE0
   00000001 00000001    0C    00003EE4
   00000001 00000001    0C    00003EE8
   00000001 00000001    0C    00003EEC
   00000001 00000001    0C    00003EF0
   00000001 00000001    0C    00003F00
   00000001 00000001    0C    00003F18
   00000001 00000001    0C    00003F1C
   00000001 00000001    0C    00003F20
   00000001 00000001    0C    00003F24
   00000001 00000001    0C    00003F28
1AMELIA   Relocation Dictionary                                                                                             Page  349
   00000001 00000001    0C    000049FC
   00000001 00000001    0C    00004A04
   00000001 00000001    0C    00004A08
   00000001 00000001    0C    00004A0C
   00000001 00000001    0C    00004A10
   00000001 00000001    0C    00004A2C
   00000001 00000001    0C    00004A30
   00000001 00000001    0C    00004A38
   00000001 00000001    0C    00004A40
   00000001 00000001    0C    00004A44
   00000001 00000001    0C    00004A48
   00000001 00000001    0C    00004A4C
   00000001 00000001    0C    00004A50
   00000001 00000001    0C    00004A58
   00000001 00000001    0C    00004A5C
   00000001 00000001    0C    00004A60
   00000001 00000001    0C    00004A64
   00000001 00000001    0C    00004A68
   00000001 00000001    0C    00004A6C
   00000001 00000001    0C    00004A70
   00000001 00000001    0C    00004A74
   00000001 00000001    0C    00004A78
   00000001 00000001    0C    00004A84
   00000001 00000001    0C    00004A88
   00000001 00000001    0C    00004A90
   00000001 00000001    0C    00004A94
   00000001 00000001    0C    00005108
   00000001 00000001    0C    0000511C
   00000001 00000001    0C    00005120
   00000001 00000001    0C    00005124
   00000001 00000001    0C    0000512C
   00000001 00000001    0C    00005138
   00000001 00000001    0C    0000513C
   00000001 00000001    0C    00005140
   00000001 00000001    0C    00005144
   00000001 00000001    0C    00005148
   00000001 00000001    0C    0000514C
   00000001 00000001    0C    00005150
   00000001 00000001    0C    00005F88
   00000001 00000001    0C    00005F8C
   00000001 00000001    0C    00005F90
   00000001 00000001    0C    00005F98
   00000001 00000001    0C    00005F9C
   00000001 00000001    0C    00005FA0
   00000001 00000001    0C    00005FAC
   00000001 00000001    0C    00005FB0
   00000001 00000001    0C    00005FB4
   00000001 00000001    0C    00005FB8
   00000001 00000001    0C    00005FBC
   00000001 00000001    0C    00005FE8
   00000001 00000001    0C    00005FEC
   00000001 00000001    0C    00005FF8
   00000001 00000001    0C    00005FFC
   00000001 00000001    0C    00006000
   00000001 00000001    0C    00006004
   00000001 00000001    0C    00006008
   00000001 00000001    0C    0000600C
   00000001 00000001    0C    00006010
   00000001 00000001    0C    0000601C
1AMELIA   Relocation Dictionary                                                                                             Page  350
   00000001 00000001    0C    00006020
   00000001 00000001    0C    000063A4
   00000001 00000001    0C    000063AC
   00000001 00000001    0C    000063B0
   00000001 00000001    0C    000063B8
   00000001 00000001    0C    000068F8
   00000001 00000001    0C    00006914
   00000001 00000001    0C    00006920
   00000001 00000001    0C    00006928
   00000001 00000001    0C    00006934
   00000001 00000001    0C    00006938
   00000001 00000001    0C    0000693C
   00000001 00000001    0C    00006940
   00000001 00000001    0C    00006944
   00000001 00000001    0C    00006948
   00000001 00000001    0C    0000694C
   00000001 00000001    0C    00006950
   00000001 00000001    0C    00006954
   00000001 00000001    0C    00006958
   00000001 00000001    0C    000072F0
   00000001 00000001    0C    000072F4
   00000001 00000001    0C    000072F8
   00000001 00000001    0C    00007310
   00000001 00000001    0C    00007314
   00000001 00000001    0C    00007318
   00000001 00000001    0C    0000731C
   00000001 00000001    0C    00007320
   00000001 00000001    0C    00007324
   00000001 00000001    0C    00007328
   00000001 00000001    0C    0000732C
   00000001 00000001    0C    00007330
   00000001 00000001    0C    00007334
   00000001 00000001    0C    00007340
   00000001 00000001    0C    00007344
   00000001 00000001    0C    00007348
   00000001 00000001    0C    0000734C
   00000001 00000001    0C    00007350
   00000001 00000001    0C    00007354
   00000001 00000001    0C    00007358
   00000001 00000001    0C    00007360
   00000001 00000001    0C    00007364
   00000001 00000001    0C    0000736C
   00000001 00000001    0C    0000737C
   00000001 00000001    0C    00007384
   00000001 00000001    0C    00007C88
   00000001 00000001    0C    00007C90
   00000001 00000001    0C    00007C98
   00000001 00000001    0C    00007C9C
   00000001 00000001    0C    00007CA0
   00000001 00000001    0C    00007CA4
   00000001 00000001    0C    00007CAC
   00000001 00000001    0C    00007CB0
   00000001 00000001    0C    00007CB4
   00000001 00000001    0C    00007CBC
   00000001 00000001    0C    00007CC0
   00000001 00000001    0C    00007CC8
   00000001 00000001    0C    00007CCC
   00000001 00000001    0C    00007CD0
   00000001 00000001    0C    00007CD4
1AMELIA   Relocation Dictionary                                                                                             Page  351
   00000001 00000001    08    00007E45
   00000001 00000001    08    00007E50
   00000001 00000001    08    00007E5C
   00000001 00000001    08    00007E64
   00000001 00000001    08    00007E6E
   00000001 00000001    08    00007E79
   00000001 00000001    08    00007E80
   00000001 00000001    08    00007E88
   00000001 00000001    08    00007E90
   00000001 00000001    08    00007E96
   00000001 00000001    08    00007E9C
   00000001 00000001    08    00007EA8
   00000001 00000001    08    00007EAD
   00000001 00000001    08    00007ED9
   00000001 00000001    08    00007EDF
   00000001 00000001    08    00007EEB
   00000001 00000001    08    00007EF6
   00000001 00000001    08    00007F02
   00000001 00000001    08    00007F19
   00000001 00000001    08    00007F21
   00000001 00000001    08    00007F29
   00000001 00000001    08    00007F32
   00000001 00000001    08    00007F39
   00000001 00000001    08    00007F41
   00000001 00000001    08    00007F48
   00000001 00000001    08    00007F53
   00000001 00000001    08    00007F59
   00000001 00000001    08    00007F62
   00000001 00000001    08    00007F69
   00000001 00000001    08    00007F75
   00000001 00000001    08    00007F80
   00000001 00000001    08    0000821D
   00000001 00000001    08    00008225
   00000001 00000001    08    0000822F
   00000001 00000001    08    00008237
   00000001 00000001    08    0000823D
   00000001 00000001    08    00008249
   00000001 00000001    08    0000833D
   00000001 00000001    08    00008344
   00000001 00000001    08    0000834A
   00000001 00000001    08    00008351
   00000001 00000001    08    00008358
   00000001 00000001    08    00008360
   00000001 00000001    08    0000836C
   00000001 00000001    08    00008378
   00000001 00000001    08    00008384
   00000001 00000001    08    00008390
   00000001 00000001    08    0000839C
   00000001 00000001    08    000083A6
   00000001 00000001    08    000083AE
   00000001 00000001    08    00008689
   00000001 00000001    08    00008693
   00000001 00000001    08    0000869C
   00000001 00000001    08    000086A8
   00000001 00000001    08    00008B2F
   00000001 00000001    08    00008B37
   00000001 00000001    08    00008EA5
   00000001 00000001    08    00008EAC
   00000001 00000001    08    00008EB4
1AMELIA   Relocation Dictionary                                                                                             Page  352
   00000001 00000001    08    00008EBC
   00000001 00000001    08    00008EC1
   00000001 00000001    08    00008FC9
   00000001 00000001    08    00008FD5
   00000001 00000001    0C    00009084
   00000001 00000001    0C    00009088
   00000001 00000001    0C    00009090
   00000001 00000001    0C    00009094
   00000001 00000001    0C    0000909C
   00000001 00000001    0C    000090B0
   00000001 00000001    0C    000090B4
   00000001 00000001    0C    000090BC
   00000001 00000001    0C    000090C0
   00000001 00000001    0C    000090C8
   00000001 00000001    0C    000090CC
   00000001 00000001    0C    000090D0
   00000001 00000001    0C    000090DC
   00000001 00000001    0C    000090E0
   00000001 00000001    0C    000090EC
   00000001 00000001    0C    000090F0
   00000001 00000001    0C    00009108
   00000001 00000001    0C    0000910C
   00000001 00000001    0C    00009114
   00000001 00000001    0C    00009118
   00000001 00000001    0C    0000911C
   00000001 00000001    0C    00009120
   00000001 00000001    0C    00009134
   00000001 00000001    0C    0000913C
   00000001 00000001    0C    00009144
   00000001 00000001    0C    00009148
   00000001 00000001    0C    00009168
   00000001 00000001    0C    00009174
   00000001 00000001    0C    00009190
   00000001 00000001    0C    00009194
   00000001 00000001    0C    00009C5C
   00000001 00000001    0C    00009C60
   00000001 00000001    0C    00009C64
   00000001 00000001    0C    00009C68
   00000001 00000001    0C    00009C6C
   00000001 00000001    0C    00009C70
   00000001 00000001    0C    00009C74
   00000001 00000001    0C    00009CA8
   00000001 00000001    0C    00009CAC
   00000001 00000001    0C    00009D24
   00000001 00000001    0C    0000A2A8
   00000001 00000001    0C    0000A2AC
   00000001 00000001    0C    0000A2B0
   00000001 00000001    0C    0000A2B4
   00000001 00000001    0C    0000A2B8
   00000001 00000001    0C    0000A2BC
   00000001 00000001    0C    0000A2C0
   00000001 00000001    0C    0000A2C4
   00000001 00000001    0C    0000A2E8
   00000001 00000001    0C    0000A2EC
   00000001 00000001    0C    0000AE78
   00000001 00000001    0C    0000AE7C
   00000001 00000001    0C    0000AE80
   00000001 00000001    0C    0000AE84
   00000001 00000001    0C    0000AE88
1AMELIA   Relocation Dictionary                                                                                             Page  353
   00000001 00000001    0C    0000AE8C
   00000001 00000001    0C    0000AE98
   00000001 00000001    0C    0000AE9C
   00000001 00000001    0C    0000AEA0
   00000001 00000001    0C    0000AEB4
   00000001 00000001    0C    0000AEB8
   00000001 00000001    0C    0000AED8
   00000001 00000001    0C    0000B9F8
   00000001 00000001    0C    0000B9FC
   00000001 00000001    0C    0000BA04
   00000001 00000001    0C    0000BA08
   00000001 00000001    0C    0000BA0C
   00000001 00000001    0C    0000BA18
   00000001 00000001    0C    0000BA28
   00000001 00000001    0C    0000C640
   00000001 00000001    0C    0000C644
   00000001 00000001    0C    0000C648
   00000001 00000001    0C    0000C64C
   00000001 00000001    0C    0000C684
   00000001 00000001    0C    0000C688
   00000001 00000001    0C    0000C6A0
   00000001 00000001    0C    0000C6B8
   00000001 00000001    0C    0000C6BC
   00000001 00000001    0C    0000C6C0
   00000001 00000001    0C    0000C6CC
   00000001 00000001    0C    0000CC00
   00000001 00000001    0C    0000CC04
   00000001 00000001    0C    0000CC08
   00000001 00000001    0C    0000CC14
   00000001 00000001    0C    0000D920
   00000001 00000001    0C    0000D924
   00000001 00000001    0C    0000D928
   00000001 00000001    0C    0000D930
   00000001 00000001    0C    0000D934
   00000001 00000001    0C    0000D938
   00000001 00000001    0C    0000D93C
   00000001 00000001    0C    0000D940
   00000001 00000001    0C    0000D944
   00000001 00000001    0C    0000D948
   00000001 00000001    0C    0000D94C
   00000001 00000001    0C    0000D958
   00000001 00000001    0C    0000D95C
   00000001 00000001    0C    0000D960
   00000001 00000001    0C    0000D964
   00000001 00000001    0C    0000D974
   00000001 00000001    0C    0000D978
   00000001 00000001    0C    0000D97C
   00000001 00000001    0C    0000D980
   00000001 00000001    0C    0000D994
   00000001 00000001    0C    0000D998
   00000001 00000001    0C    0000D99C
   00000001 00000001    0C    0000D9A8
   00000001 00000001    0C    0000D9B4
   00000001 00000001    0C    0000D9D8
   00000001 00000001    0C    0000D9DC
   00000001 00000001    0C    0000D9EC
   00000001 00000001    08    0000E581
   00000001 00000001    0C    0000E604
   00000001 00000001    0C    0000E608
1AMELIA   Relocation Dictionary                                                                                             Page  354
   00000001 00000001    0C    0000E60C
   00000001 00000001    0C    0000E610
   00000001 00000001    0C    0000E620
   00000001 00000001    0C    0000E624
   00000001 00000001    0C    0000E628
   00000001 00000001    0C    0000E62C
   00000001 00000001    0C    0000E634
   00000001 00000001    0C    0000E638
   00000001 00000001    0C    0000E63C
   00000001 00000001    0C    0000E640
   00000001 00000001    0C    0000E648
   00000001 00000001    0C    0000E65C
   00000001 00000001    0C    0000E660
   00000001 00000001    0C    0000E670
   00000001 00000001    0C    0000E674
   00000001 00000001    08    0000E99F
   00000001 00000001    08    0000E9AA
   00000001 00000001    08    0000E9B4
   00000001 00000001    08    0000E9C0
   00000001 00000001    08    0000E9CC
   00000001 00000001    08    0000E9D6
   00000001 00000001    08    0000E9E2
   00000001 00000001    08    0000E9ED
   00000001 00000001    08    0000E9F9
   00000001 00000001    08    0000EA00
   00000001 00000001    08    0000EA08
   00000001 00000001    08    0000EA13
   00000001 00000001    08    0000EA1F
   00000001 00000001    0C    0000EC20
   00000001 00000001    0C    0000EC24
   00000001 00000001    0C    0000EC28
   00000001 00000001    0C    0000EC30
   00000001 00000001    0C    0000EC34
   00000001 00000001    0C    0000EC38
   00000001 00000001    0C    0000EC3C
   00000001 00000001    0C    0000EC50
   00000001 00000001    0C    0000EC58
   00000001 00000001    0C    0000EC60
   00000001 00000001    0C    0000EC68
   00000001 00000001    0C    0000EC6C
   00000001 00000001    0C    0000F688
   00000001 00000001    0C    0000F68C
   00000001 00000001    0C    0000F690
   00000001 00000001    0C    0000F694
   00000001 00000001    0C    0000F698
   00000001 00000001    0C    0000F69C
   00000001 00000001    0C    0000F6A0
   00000001 00000001    0C    0000F9C4
   00000001 00000001    0C    0000F9C8
   00000001 00000001    0C    000100DC
   00000001 00000001    0C    000100E0
   00000001 00000001    0C    000100E8
   00000001 00000001    0C    000100F8
   00000001 00000001    0C    000100FC
   00000001 00000002    1C    00000EE8
   00000001 00000003    1C    00003800
   00000001 00000003    1C    00007CB8
   00000001 00000003    1C    0000907C
   00000001 00000003    1C    0000EC48
1AMELIA   Relocation Dictionary                                                                                             Page  355
   00000001 00000004    1C    00003804
   00000001 00000004    1C    00009080
   00000001 00000004    1C    0000EC4C
   00000001 00000005    1C    00006900
   00000001 00000005    1C    0000C6D4
   00000001 00000005    1C    0000CC24
   00000001 00000005    1C    0000FA24
   00000001 00000005    1C    000100F0
   00000001 00000006    1C    000090E4
   00000001 00000007    1C    000090E8
   00000001 00000007    1C    0000EC74
   00000001 00000007    1C    0000F9F8
   00000001 00000008    1C    000090F8
   00000001 00000009    1C    0000BA00
   00000001 00000009    1C    0000CBF8
   00000001 00000009    1C    000100F4
   00000001 0000000A    1C    0000FA1C
   00000001 0000000B    0C    0000918C

1AMELIA   Ordinary Symbol and Literal Cross Reference                                                                       Page  356
-Symbol   Length   Value     Id    R Type   Defn References                                  HLASM R4.0  2004/03/15 13.11
0$$$@R0        1 00000000 FFFFFFFF     J     775  1071
 $$$@R11       1 00000000 FFFFFFF4     J     918  1110
 $$$@R12       1 00000000 FFFFFFF3     J     931  1123   1135
 $$$@R13       1 00000000 FFFFFFF2     J     944  1148
 $$$@R14       1 00000000 FFFFFFF1     J     957  1161
 $$$@R8        1 00000000 FFFFFFF7     J     879  1084
 $$$@R9        1 00000000 FFFFFFF6     J     892  1097
 $$$C1AMELIA
               1 0000081A 00000001     J    8624  8626   8657
 $$$C10AMELIA
               1 00004B52 00000001     J   28862 28864  28905  30550
 $$$C11AMELIA
               1 00005178 00000001     J   31071 31073  31461  31694  35548
 $$$C12AMELIA
               1 00006084 00000001     J   35854 35856
 $$$C13AMELIA
               1 0000610C 00000001     J   36017 36019  36436
 $$$C14AMELIA
               1 000063D0 00000001     J   36923 36925  37406
 $$$C15AMELIA
               1 0000698A 00000001     J   38737 38739  38769  40228  40706  41879  41896  42263  42280
 $$$C16AMELIA
               1 00007448 00000001     J   42382 42384  42427  42619  42636  42755  42868  42885  42960  43304  43427
                                                 43500  43685  43845  44960  45086  45168  45429  45615  45768  45886
 $$$C17AMELIA
               1 00007D74 00000001     J   45950 45952  45983  46755  47227  48155  48634  48674  48808  49015  49152
                                                 50801  51829
 $$$C18AMELIA
               1 000093B4 00000001     J   52742 52744  52990
 $$$C19AMELIA
               1 00009ECE 00000001     J   55674 55676  55703
 $$$C2AMELIA
               1 00000858 00000001     J    8757  8759   8941   8997
 $$$C20AMELIA
               1 0000A37C 00000001     J   57063 57065  57096
 $$$C21AMELIA
               1 0000B0C4 00000001     J   61084 61086  61129  61984  62149  62272
 $$$C22AMELIA
               1 0000BBA4 00000001     J   64539 64541  64570  67388  67405  67469  67486
 $$$C23AMELIA
               1 0000C888 00000001     J   68658 68660  68688  68914
 $$$C24AMELIA
               1 0000CC3B 00000001     J   69571 69573  70286  70811  70967  72209  72396  73244  74006
 $$$C25AMELIA
               1 0000DAB4 00000001     J   74695 74697  74725  75081  75101  75258
 $$$C26AMELIA
               1 0000E754 00000001     J   78033 78035  78068  78496  78628  78881  79037  79176
 $$$C27AMELIA
               1 0000ECD2 00000001     J   79573 79575  80207  80227  81066  81129
 $$$C28AMELIA
               1 0000FA90 00000001     J   83555 83557  83589  83682
 $$$C29AMELIA
               1 0001011A 00000001     J   86007 86009
 $$$C3AMELIA
               1 00000F4F 00000001     J   10378 10380  11837
1AMELIA   Ordinary Symbol and Literal Cross Reference                                                                       Page  357
 $$$C30VERSION
               1 00010470 0000000B     J   86080 86082
 $$$C4AMELIA
               1 00001A7B 00000001     J   13532 13534
 $$$C5AMELIA
               1 00001C92 00000001     J   14171 14173  14204  14543  14746
 $$$C6AMELIA
               1 00001F5C 00000001     J   15155 15157  15583  16109  18431
 $$$C7AMELIA
               1 00002B3E 00000001     J   19182 19184  19901  19984  20608  20694  20829  21517
 $$$C8AMELIA
               1 0000399C 00000001     J   23023 23025
 $$$C9AMELIA
               1 00003F33 00000001     J   24922 24924  24971  28207
 $$$D10AMELIA
               1 00005172 00000001     J   28863 30539
 $$$D11AMELIA
               1 0000607D 00000001     J   31072 35537
 $$$D13AMELIA
               1 000063CA 00000001     J   36018 36425
 $$$D14AMELIA
               1 00006983 00000001     J   36924 37395
 $$$D15AMELIA
               1 00007430 00000001     J   38738 41868  41885  42252  42269
 $$$D16AMELIA
               1 00007D0D 00000001     J   42383 42608  42625  42744  42857  42874  42949  43293  43416  43489  43674
                                                 43834  45075  45157  45418  45604  45757  45875
 $$$D17AMELIA
               1 000093A1 00000001     J   45951 47216  48623  48663
 $$$D21AMELIA
               1 0000BB91 00000001     J   61085 61973  62138  62261
 $$$D22AMELIA
               1 0000C86F 00000001     J   64540 67377  67394  67458  67475
 $$$D24AMELIA
               1 0000DAA8 00000001     J   69572 70956  72198
 $$$D25AMELIA
               1 0000E748 00000001     J   74696 75070  75090
 $$$D26AMELIA
               1 0000ECBA 00000001     J   78034 78485  78870  79026  79165
 $$$D27AMELIA
               1 0000FA8A 00000001     J   79574 81055
 $$$D28AMELIA
               1 00010113 00000001     J   83556 83671
 $$$D5AMELIA
               1 00001F55 00000001     J   14172 14735
 $$$D7AMELIA
               1 00003983 00000001     J   19183 19973  20683  20818  21506
 $$$D9AMELIA
               1 00004B4B 00000001     J   24923 28196
 $$$PRIV0842
               2 00000AC0 00000001     H    9260  9251B  9253B
 $$$RADDHNTW
               1 00000000 FFFFFFB5     J   42408 42426  42426
 $$$RARP       1 00000000 FFFFFFD6     J    6851  6877   6877
 $$$RCLOOKUPW
               1 00000000 FFFFFFB2     J   46725 46754  46754
 $$$RCMDWA
               1 00000000 FFFFFFB3     J   45967 45982  45982
 $$$RCSETNSWA
1AMELIA   Ordinary Symbol and Literal Cross Reference                                                                       Page  358
               1 00000000 FFFFFFB0     J   48794 48807  48807
 $$$RCSETTRCW
               1 00000000 FFFFFFAF     J   48999 49014  49014
 $$$RDEC       1 00000000 FFFFFF9A     J   80212 80226  80226
 $$$RDVTAREA
               1 00000000 FFFFFFD8     J    6742  6809   6809
 $$$RENETHDR
               1 00000000 FFFFFFD7     J    6820  6837   6837
 $$$RFIXWA
               1 00000000 FFFFFF9E     J   75244 75257  75257
 $$$RFMTHSTW
               1 00000000 FFFFFFAA     J   55689 55702  55702
 $$$RFMTINFWK
               1 00000000 FFFFFFAB     J   52975 52989  52989
 $$$RFMTNSMWA
               1 00000000 FFFFFFA7     J   64555 64569  64569
 $$$RFMTPWA
               1 00000000 FFFFFFA8     J   61104 61128  61128
 $$$RFMTTCBW
               1 00000000 FFFFFFA9     J   57080 57095  57095
 $$$RFRAG      1 00000000 FFFFFFBF     J   18409 18430  18430
 $$$RGETHNTWA
               1 00000000 FFFFFFB4     J   44946 44959  44959
 $$$RHNT       1 00000000 FFFFFFC8     J    7630  7660   7660
 $$$RHSTTABLE
               1 00000000 FFFFFFC9     J    7585  7621   7621
 $$$RHXDWA
               1 00000000 FFFFFFA5     J   68885 68913  68913
 $$$RHXSWA
               1 00000000 FFFFFFA6     J   68674 68687  68687
 $$$RHXWA      1 00000000 FFFFFF99     J   81115 81128  81128
 $$$RICMPHDR
               1 00000000 FFFFFFD2     J    7047  7065   7065
 $$$RINITWA
               1 00000000 FFFFFF9D     J   78049 78067  78067
 $$$RIOB       1 00000000 FFFFFFEF     J    1525  1645   1645
 $$$RIPHDR
               1 00000000 FFFFFFD5     J    6891  6918   6918
 $$$RLPRDWA
               1 00000000 FFFFFFC2     J   14528 14542  14542
 $$$RNETRWA
               1 00000000 FFFFFFC4     J   11822 11836  11836
 $$$RNETTRLWA
               1 00000000 FFFFFFC3     J   14190 14203  14203
 $$$RNSL       1 00000000 FFFFFFCC     J    7444  7523   7523
 $$$RNSLADHWA
               1 00000000 FFFFFFB6     J   40692 40705  40705
 $$$RNSLUPWA
               1 00000000 FFFFFFB7     J   40212 40227  40227
 $$$RNSMHDR
               1 00000000 FFFFFFCE     J    7343  7402   7402
 $$$RNSRR      1 00000000 FFFFFFCD     J    7411  7434   7434
 $$$RPCWA      1 00000000 FFFFFFB1     J   48137 48154  48154
 $$$RPINFO
               1 00000000 FFFFFFC5     J    8962  8996   8996
 $$$RPIWA      1 00000000 FFFFFFA1     J   73220 73243  73243
 $$$RPMSGWA
               1 00000000 FFFFFFA3     J   70796 70810  70810
 $$$RPNUM      1 00000000 FFFFFFCB     J    7538  7552   7552
1AMELIA   Ordinary Symbol and Literal Cross Reference                                                                       Page  359
 $$$RPOPNWA
               1 00000000 FFFFFFA4     J   70272 70285  70285
 $$$RPRTWA
               1 00000000 FFFFFF9F     J   74711 74724  74724
 $$$RPSGWA
               1 00000000 FFFFFFA2     J   72379 72395  72395
 $$$RPTHMWA
               1 00000000 FFFFFFA0     J   73991 74005  74005
 $$$RRCVNSMW
               1 00000000 FFFFFFB8     J   38753 38768  38768
 $$$RRTCPWORK
               1 00000000 FFFFFFBC     J   24938 24970  24970
 $$$RSCANPWA
               1 00000000 FFFFFF9C     J   78613 78627  78627
 $$$RSEGCB
               1 00000000 FFFFFFEE     J    1676  1775   1775
 $$$RSENDRSTW
               1 00000000 FFFFFFBA     J   31447 31460  31460
 $$$RSHOWCORW
               1 00000000 FFFFFFAE     J   49135 49151  49151
 $$$RSHOWLOGW
               1 00000000 FFFFFFAD     J   50787 50800  50800
 $$$RSHOWTCPW
               1 00000000 FFFFFFAC     J   51812 51828  51828
 $$$RSTCPWORK
               1 00000000 FFFFFFBB     J   28890 28904  28904
 $$$RTCB       1 00000000 FFFFFFD1     J    7077  7261   7261
 $$$RTCBQHDR
               1 00000000 FFFFFFCF     J    7298  7314   7314
 $$$RTCBTRHDR
               1 00000000 FFFFFFD0     J    7270  7289   7289
 $$$RTCPHDR
               1 00000000 FFFFFFD3     J    6960  7038   7038
 $$$RTLSTWA
               1 00000000 FFFFFFBE     J   19882 19900  19900
 $$$RTOPNWA
               1 00000000 FFFFFFBD     J   20569 20607  20607
 $$$RTPORT
               1 00000000 FFFFFFCA     J    7561  7576   7576
 $$$RTRCENTRY
               1 00000000 FFFFFFC7     J    8641  8656   8656
 $$$RUDPHDR
               1 00000000 FFFFFFD4     J    6933  6951   6951
 $$$RUNPRWA
               1 00000000 FFFFFF98     J   83575 83588  83588
 $$$RUPATH
               1 00000000 FFFFFFC6     J    8771  8940   8940
 $$$RWA        1 00000000 FFFFFF9B     J   80183 80206  80206
 $$$RXMITIPW
               1 00000000 FFFFFFC1     J   15568 15582  15582
 $$$RXMITTCPW
               1 00000000 FFFFFFB9     J   31679 31693  31693
 $$$RXMITUDPW
               1 00000000 FFFFFFC0     J   16094 16108  16108
 $$$SEGCB0455
               4 000001EC 00000001     F    7884  7969   7969
 $$$SEGCB0591
               4 000004B0 00000001     F    8259  8344   8344
 $$$SEGCB0637
1AMELIA   Ordinary Symbol and Literal Cross Reference                                                                       Page  360
               4 000007BC 00000001     F    8510  8595   8595
 $$$100F       2 0000114E 00000001     H   11027 11014B
 $$$1000F      2 0000654C 00000001     H   37411 37387B
 $$$1001       6 00006984 00000001     I   37401 37393X
 $$$1002       6 00006984 00000001     I   37400 37401  37401
 $$$1003F      2 00006568 00000001     H   37470 37455B
 $$$1004F      2 0000659A 00000001     H   37506 37489B
 $$$1005F      2 000065B0 00000001     H   37530 37520B
 $$$1006F      2 000065EE 00000001     H   37624 37567B
 $$$1007F      2 000065EA 00000001     H   37611 37600B
 $$$1007S      2 000065D8 00000001     H   37592 37610B
 $$$1009       1 00000070 00000001 A   U   37675 37672  37674
 $$$1011B      1 00006638 00000001     X   37713 37720U
 $$$1012F      2 00006668 00000001     H   37785 37765B
 $$$1013B      4 0000666E 00000001     I   37800 37855
 $$$1013F      2 00006694 00000001     H   37852 37800B 37854
 $$$1014F      2 00006688 00000001     H   37845 37836B
 $$$1014T      2 00006686 00000001     H   37839 37823B
 $$$1016E      2 00006698 00000001     H   37862 37856
 $$$1016F      2 0000669E 00000001     H   37868 37858B
 $$$1017F      2 0000672E 00000001     H   38083 37887B
 $$$1018F      2 00006724 00000001     H   38074 38042B
 $$$1019       1 00000070 00000001 A   U   38121 38118  38120
 $$$102F       2 000011F6 00000001     H   11171 11060B
 $$$1021B      1 00006778 00000001     X   38156 38163U
 $$$1022F      2 000067BC 00000001     H   38280 38184B
 $$$1022S      2 0000677C 00000001     H   38178 38279B
 $$$1024B      4 0000678C 00000001     I   38216 38232
 $$$1024F      2 00006796 00000001     H   38228 38216B 38231
 $$$1025E      2 0000679A 00000001     H   38239 38233
 $$$1025F      2 000067B6 00000001     H   38269 38235B 38251B
 $$$1027       1 00000070 00000001 A   U   38299 38296  38298
 $$$1029B      1 000067EE 00000001     X   38337 38344U
 $$$103F       2 000011D2 00000001     H   11131 11083B
 $$$1030F      2 00006818 00000001     H   38416 38386B
 $$$1031F      2 0000682A 00000001     H   38443 38430B
 $$$1032       1 00000070 00000001 A   U   38475 38472  38474
 $$$1034B      1 00006866 00000001     X   38512 38519U
 $$$1035F      2 0000688C 00000001     H   38618 38579B
 $$$1035S      2 0000686C 00000001     H   38550 38617B
 $$$1037F      2 00006888 00000001     H   38608 38595B
 $$$1039F      2 000068AE 00000001     H   38662 38632B
 $$$104F       2 00001196 00000001     H   11115 11102B
 $$$104S       2 00001184 00000001     H   11094 11114B
 $$$1040       1 00000070 00000001 A   U   38694 38691  38693
 $$$1041F      2 00006D2C 00000001     H   40185 38891B 38968B 39296B 39437B 39583B 39939B
 $$$1042B      1 000069AE 00000001     X   38800 38807U
 $$$1044F      2 000069E2 00000001     H   38956 38925B 38945B
 $$$1044S      2 000069CA 00000001     H   38919 38955B
 $$$1048F      2 00006A80 00000001     H   39167 38999B 39020B
 $$$1050F      2 00006AD8 00000001     H   39300 39185B
 $$$1051B      4 00006A8C 00000001     I   39205 39239
 $$$1051F      2 00006AAC 00000001     H   39235 39205B 39238
 $$$1052E      2 00006AB0 00000001     H   39246 39240
 $$$1052F      2 00006ACA 00000001     H   39288 39242B 39255B
 $$$1054F      2 00006ACA 00000001     H   39284 39271B
 $$$1055F      2 00006B4A 00000001     H   39441 39317B
 $$$1056F      2 00006BA8 00000001     H   39538 39462B
 $$$1057F      2 00006BCE 00000001     H   39592 39552B
1AMELIA   Ordinary Symbol and Literal Cross Reference                                                                       Page  361
 $$$1058F      2 00006BCA 00000001     H   39587 39575B
 $$$1059F      2 00006D22 00000001     H   40147 39612B
 $$$106B       4 00001202 00000001     I   11195 11273
 $$$106F       2 00001240 00000001     H   11266 11195B 11272
 $$$1060F      2 00006C72 00000001     H   39845 39647B
 $$$1060S      2 00006BE6 00000001     H   39641 39844B
 $$$1062F      2 00006C66 00000001     H   39830 39676B
 $$$1063B      4 00006BFE 00000001     I   39695 39753
 $$$1063F      2 00006C28 00000001     H   39750 39695B 39752
 $$$1064E      2 00006C2C 00000001     H   39760 39754
 $$$1064F      2 00006C5C 00000001     H   39821 39756B
 $$$1066F      2 00006CA0 00000001     H   39943 39911B 39926B
 $$$1067T      2 00006C86 00000001     H   39916 39898B
 $$$1069B      4 00006CAA 00000001     I   39971 40037
 $$$1069F      2 00006CD8 00000001     H   40032 39956B 39971B 40034
 $$$107B       4 0000124A 00000001     I   11291 11474
 $$$107E       2 00001244 00000001     H   11280 11274
 $$$107F       2 000012D4 00000001     H   11467 11276B 11291B 11473
 $$$1070B      4 00006CA2 00000001     I   39956 40035
 $$$1071E      2 00006CDC 00000001     H   40044 40036  40038
 $$$1071F      2 00006D18 00000001     H   40133 40040B
 $$$1072B      4 00006CEC 00000001     I   40072 40100
 $$$1072F      2 00006D02 00000001     H   40097 40072B 40099
 $$$1072T      2 00006CF0 00000001     H   40075 40061B
 $$$1074E      2 00006D06 00000001     H   40107 40101
 $$$1074F      2 00006D18 00000001     H   40129 40103B
 $$$1075       1 00000390 00000001 A   U   40194 40191  40193
 $$$1076F      2 00006E5A 00000001     H   40671 40647B
 $$$1077B      1 00006D5E 00000001     X   40259 40266U
 $$$1078F      2 00006D9C 00000001     H   40369 40317B
 $$$1078S      2 00006D70 00000001     H   40311 40368B
 $$$1082F      2 00006DD8 00000001     H   40459 40385B
 $$$1082S      2 00006DA0 00000001     H   40379 40458B
 $$$1087F      2 00006E14 00000001     H   40549 40475B
 $$$1087S      2 00006DDC 00000001     H   40469 40548B
 $$$109F       2 0000127E 00000001     H   11353 11334B
 $$$1092F      2 00006E50 00000001     H   40639 40565B
 $$$1092S      2 00006E18 00000001     H   40559 40638B
 $$$1097       1 00000390 00000001 A   U   40680 40677  40679
 $$$1099B      1 00006E8C 00000001     X   40737 40744U
 $$$110F       2 00001292 00000001     H   11381 11368B
 $$$1100B      4 00006EA8 00000001     I   40822 40910
 $$$1100F      2 00006F04 00000001     H   40905 40822B 40909
 $$$1100T      2 00006EAC 00000001     H   40825 40794B 40809B
 $$$1103B      4 00006ECE 00000001     I   40846 40858
 $$$1103F      2 00006ED8 00000001     H   40855 40846B 40857
 $$$1104E      2 00006EDC 00000001     H   40865 40859
 $$$1104F      2 00006EFA 00000001     H   40896 40861B
 $$$1105F      2 00006EFA 00000001     H   40892 40883B
 $$$1106E      2 00006F08 00000001     H   40917 40911
 $$$1106F      2 00006F6E 00000001     H   41019 40913B 40929B 40957B 40977B 40996B
 $$$111F       2 000012B8 00000001     H   11428 11398B 11412B
 $$$111S       2 0000129A 00000001     H   11390 11427B
 $$$1111       1 00000170 00000001 A   U   41048 41045  41047
 $$$1113B      1 00006FA0 00000001     X   41085 41092U
 $$$1114B      4 00006FA8 00000001     I   41115 41139
 $$$1114F      2 00006FB6 00000001     H   41136 41115B 41138
 $$$1115E      2 00006FBA 00000001     H   41146 41140
 $$$1115F      2 00006FD2 00000001     H   41178 41142B
1AMELIA   Ordinary Symbol and Literal Cross Reference                                                                       Page  362
 $$$1116       1 00000070 00000001 A   U   41196 41193  41195
 $$$1118B      1 00007004 00000001     X   41236 41243U
 $$$1119F      2 00007022 00000001     H   41322 41291B 41311B
 $$$1119S      2 0000700A 00000001     H   41285 41321B
 $$$1122       1 00000070 00000001 A   U   41352 41349  41351
 $$$1123F      2 00007136 00000001     H   41674 41448B 41550B 41639B
 $$$1124B      1 00007058 00000001     X   41396 41403U
 $$$1125F      2 00007076 00000001     H   41452 41440B
 $$$1126B      4 000070AC 00000001     I   41484 41497
 $$$1126F      2 000070B6 00000001     H   41493 41484B 41496
 $$$1127B      4 000070C0 00000001     I   41516 41563
 $$$1127E      2 000070BA 00000001     H   41504 41498
 $$$1127F      2 000070EC 00000001     H   41559 41500B 41516B 41562
 $$$1129F      2 000070E8 00000001     H   41554 41542B
 $$$1130E      2 000070F0 00000001     H   41570 41564
 $$$1130F      2 00007126 00000001     H   41648 41566B 41614B
 $$$1130T      2 0000710E 00000001     H   41617 41586B 41601B
 $$$1134F      2 00007122 00000001     H   41643 41631B
 $$$1135       1 00000070 00000001 A   U   41683 41680  41682
 $$$1136F      2 00007216 00000001     H   42024 41788B 41857B 41972B
 $$$1137B      1 00007168 00000001     X   41727 41734U
 $$$1138F      2 00007202 00000001     H   41986 41768B
 $$$1138S      2 00007172 00000001     H   41760 41985B
 $$$114F       2 000012D4 00000001     H   11463 11442B
 $$$1140F      2 0000718A 00000001     H   41792 41780B
 $$$1141B      4 0000718A 00000001     I   41799 41906
 $$$1141F      2 000071CE 00000001     H   41903 41799B 41905
 $$$1142F      2 000071A0 00000001     H   41828 41813B
 $$$1143F      2 000071B8 00000001     H   41861 41849B
 $$$1144       6 00007430 00000001     I   41874 41866X
 $$$1145       6 00007430 00000001     I   41873 41874  41874
 $$$1146       6 00007436 00000001     I   41891 41883X
 $$$1147       6 00007436 00000001     I   41890 41891  41891
 $$$1148E      2 000071D2 00000001     H   41913 41907
 $$$1148F      2 000071FE 00000001     H   41981 41909B
 $$$1149F      2 000071DC 00000001     H   41933 41924B
 $$$115E       2 000012D8 00000001     H   11481 11475
 $$$115F       2 0000132A 00000001     H   11536 11477B 11492B
 $$$1150F      2 000071FC 00000001     H   41976 41964B
 $$$1150T      2 000071F4 00000001     H   41967 41952B
 $$$1152F      2 0000720C 00000001     H   42006 41997B
 $$$1153       1 00000070 00000001 A   U   42033 42030  42032
 $$$1154F      2 000072DC 00000001     H   42312 42117B 42200B 42240B
 $$$1155B      1 00007248 00000001     X   42077 42084U
 $$$1156F      2 00007260 00000001     H   42121 42108B
 $$$1157F      2 000072CA 00000001     H   42292 42133B
 $$$1157S      2 00007260 00000001     H   42127 42291B
 $$$1159F      2 00007280 00000001     H   42179 42152B 42165B
 $$$1159S      2 00007268 00000001     H   42144 42178B
 $$$1162F      2 00007290 00000001     H   42204 42192B
 $$$1163F      2 000072AA 00000001     H   42244 42232B
 $$$1163T      2 000072A2 00000001     H   42235 42220B
 $$$1165       6 0000743C 00000001     I   42258 42250X
 $$$1166       6 0000743C 00000001     I   42257 42258  42258
 $$$1167       6 00007442 00000001     I   42275 42267X
 $$$1168       6 00007442 00000001     I   42274 42275  42275
 $$$1169       1 00000070 00000001 A   U   42321 42318  42320
 $$$1170F      2 000077A2 00000001     H   43921 42594B 42718B 42844B 43897B
 $$$1171B      1 0000746C 00000001     X   42458 42465U
1AMELIA   Ordinary Symbol and Literal Cross Reference                                                                       Page  363
 $$$1172F      2 00007482 00000001     H   42508 42499B
 $$$1173B      4 00007488 00000001     I   42520 42533
 $$$1173F      2 0000748E 00000001     H   42530 42520B 42532
 $$$1174E      2 00007492 00000001     H   42540 42534
 $$$1174F      2 00007496 00000001     H   42548 42536B
 $$$1175F      2 000074BE 00000001     H   42598 42585B
 $$$1175T      2 000074B6 00000001     H   42588 42573B
 $$$1177       6 00007D0E 00000001     I   42614 42606X
 $$$1178       6 00007D0E 00000001     I   42613 42614  42614
 $$$1179       6 00007D14 00000001     I   42631 42623X
 $$$118F       2 0000134E 00000001     H   11610 11580B
 $$$1180       6 00007D14 00000001     I   42630 42631  42631
 $$$1181F      2 000074F2 00000001     H   42680 42652B 42665B
 $$$1181S      2 000074DA 00000001     H   42644 42679B
 $$$1184F      2 00007520 00000001     H   42764 42690B
 $$$1185F      2 00007510 00000001     H   42722 42709B
 $$$1186F      2 00007520 00000001     H   42760 42736B
 $$$1187       6 00007D1A 00000001     I   42750 42742X
 $$$1188       6 00007D1A 00000001     I   42749 42750  42750
 $$$1189F      2 00007568 00000001     H   42890 42799B
 $$$1189T      2 00007530 00000001     H   42802 42786B
 $$$119F       2 0000134E 00000001     H   11606 11594B
 $$$1191F      2 00007554 00000001     H   42848 42835B
 $$$1191T      2 0000754C 00000001     H   42838 42823B
 $$$1193       6 00007D20 00000001     I   42863 42855X
 $$$1194       6 00007D20 00000001     I   42862 42863  42863
 $$$1195       6 00007D26 00000001     I   42880 42872X
 $$$1196       6 00007D26 00000001     I   42879 42880  42880
 $$$1197F      2 00007652 00000001     H   43342 42930B
 $$$1197S      2 0000756C 00000001     H   42915 43004B 43341B
 $$$1199       6 00007D2C 00000001     I   42955 42947X
 $$$120F       2 00001364 00000001     H   11640 11624B
 $$$1200       6 00007D2C 00000001     I   42954 42955  42955
 $$$1204F      2 000075A4 00000001     H   43049 43029B
 $$$1206F      2 000075C6 00000001     H   43101 43071B 43086B
 $$$121F       2 0000137A 00000001     H   11670 11654B
 $$$1210F      2 000075FA 00000001     H   43204 43152B
 $$$1212F      2 000075F6 00000001     H   43199 43190B
 $$$1213F      2 0000763C 00000001     H   43325 43223B
 $$$1217       6 00007D32 00000001     I   43299 43291X
 $$$1218       6 00007D32 00000001     I   43298 43299  43299
 $$$122F       2 0000139C 00000001     H   11701 11684B
 $$$1220F      2 00007670 00000001     H   43391 43379B
 $$$1220T      2 00007668 00000001     H   43382 43366B
 $$$1222       6 00007D38 00000001     I   43422 43414X
 $$$1223       6 00007D38 00000001     I   43421 43422  43422
 $$$1224B      4 000076AC 00000001     I   43459 43471
 $$$1224F      2 000076B6 00000001     H   43468 43459B 43470
 $$$1224T      2 000076B0 00000001     H   43462 43446B
 $$$1226E      2 000076BA 00000001     H   43478 43472
 $$$1226F      2 000076DE 00000001     H   43534 43474B
 $$$1227       6 00007D3E 00000001     I   43495 43487X
 $$$1228       6 00007D3E 00000001     I   43494 43495  43495
 $$$1229F      2 000076DE 00000001     H   43530 43515B
 $$$123        1 00000070 00000001 A   U   11720 11717  11719
 $$$1230F      2 0000773E 00000001     H   43707 43568B
 $$$1230T      2 000076EE 00000001     H   43571 43555B
 $$$1232F      2 0000773E 00000001     H   43703 43587B
 $$$1233F      2 0000773E 00000001     H   43694 43617B
1AMELIA   Ordinary Symbol and Literal Cross Reference                                                                       Page  364
 $$$1234F      2 00007726 00000001     H   43650 43641B
 $$$1235F      2 0000773E 00000001     H   43690 43666B
 $$$1236       6 00007D44 00000001     I   43680 43672X
 $$$1237       6 00007D44 00000001     I   43679 43680  43680
 $$$1238F      2 00007798 00000001     H   43889 43726B
 $$$1239F      2 00007798 00000001     H   43885 43745B 43779B 43794B 43822B 43855B
 $$$1243       6 00007D4A 00000001     I   43840 43832X
 $$$1244       6 00007D4A 00000001     I   43839 43840  43840
 $$$1246       1 0000027C 00000001 A   U   43930 43927  43929
 $$$1248B      1 000077D4 00000001     X   43967 43974U
 $$$1249F      2 00007800 00000001     H   44054 44016B
 $$$1249S      2 000077D8 00000001     H   44001 44053B
 $$$125B       1 000013CE 00000001     X   11755 11762U
 $$$1251F      2 000077FC 00000001     H   44049 44035B
 $$$1252       1 00000070 00000001 A   U   44077 44074  44076
 $$$1254B      1 00007832 00000001     X   44113 44120U
 $$$1255B      4 00007864 00000001     I   44179 44191
 $$$1255F      2 0000786C 00000001     H   44188 44179B 44190
 $$$1256E      2 00007870 00000001     H   44198 44192
 $$$1256F      2 00007886 00000001     H   44248 44194B
 $$$1257F      2 00007886 00000001     H   44244 44211B
 $$$1257S      2 00007870 00000001     H   44205 44243B
 $$$1259       1 00000070 00000001 A   U   44284 44281  44283
 $$$126        1 00000070 00000001 A   U   11810 11807  11809
 $$$1260F      2 0000795A 00000001     H   44556 44349B 44368B 44387B 44478B
 $$$1261B      1 000078C8 00000001     X   44322 44329U
 $$$1265F      2 0000791A 00000001     H   44482 44431B
 $$$1266F      2 0000795A 00000001     H   44547 44505B 44524B
 $$$1266S      2 0000791C 00000001     H   44488 44546B
 $$$1269       1 00000070 00000001 A   U   44565 44562  44564
 $$$127F       2 000015F0 00000001     H   12580 12046B
 $$$1270F      2 000079C4 00000001     H   44746 44641B
 $$$1271B      1 0000798C 00000001     X   44606 44613U
 $$$1273F      2 000079C4 00000001     H   44737 44665B
 $$$1274F      2 000079C4 00000001     H   44728 44696B
 $$$1275F      2 000079C4 00000001     H   44724 44714B
 $$$1276       1 00000070 00000001 A   U   44755 44752  44754
 $$$1278B      1 000079F6 00000001     X   44794 44801U
 $$$1279F      2 00007A10 00000001     H   44865 44835B 44854B
 $$$1279S      2 000079FA 00000001     H   44829 44864B
 $$$128B       1 0000141E 00000001     X   11868 11875U
 $$$1282F      2 00007A2A 00000001     H   44900 44882B
 $$$1283       1 00000070 00000001 A   U   44927 44924  44926
 $$$1285B      1 00007A62 00000001     X   44991 44998U
 $$$1286F      2 00007A7C 00000001     H   45067 45053B
 $$$1286T      2 00007A76 00000001     H   45056 45041B
 $$$1288       6 00007D50 00000001     I   45081 45073X
 $$$1289       6 00007D50 00000001     I   45080 45081  45081
 $$$129F       2 00001434 00000001     H   11917 11904B
 $$$1290F      2 00007AB6 00000001     H   45183 45126B 45172B
 $$$1290S      2 00007A98 00000001     H   45120 45182B
 $$$1292F      2 00007AAE 00000001     H   45175 45145B
 $$$1294       6 00007D56 00000001     I   45163 45155X
 $$$1295       6 00007D56 00000001     I   45162 45163  45163
 $$$1297F      2 00007AE6 00000001     H   45264 45218B
 $$$1299       1 00000170 00000001 A   U   45298 45295  45297
 $$$1301B      1 00007B20 00000001     X   45338 45345U
 $$$1302F      2 00007B4A 00000001     H   45443 45390B 45431B
 $$$1302T      2 00007B48 00000001     H   45434 45408B
1AMELIA   Ordinary Symbol and Literal Cross Reference                                                                       Page  365
 $$$1305       6 00007D5C 00000001     I   45424 45416X
 $$$1306       6 00007D5C 00000001     I   45423 45424  45424
 $$$1307       1 00000070 00000001 A   U   45468 45465  45467
 $$$1308F      2 00007BBE 00000001     H   45642 45535B 45549B 45569B 45588B 45625B
 $$$1309B      1 00007B80 00000001     X   45506 45513U
 $$$131F       2 000014AE 00000001     H   12018 11933B
 $$$1314       6 00007D62 00000001     I   45610 45602X
 $$$1315       6 00007D62 00000001     I   45609 45610  45610
 $$$1317       1 00000070 00000001 A   U   45651 45648  45650
 $$$1318F      2 00007C60 00000001     H   45906 45744B 45849B
 $$$1319B      1 00007BF0 00000001     X   45690 45697U
 $$$132F       2 0000147E 00000001     H   11995 11982B
 $$$132S       2 0000146C 00000001     H   11974 11994B
 $$$1320F      2 00007C0C 00000001     H   45748 45735B
 $$$1320T      2 00007C04 00000001     H   45738 45723B
 $$$1322       6 00007D68 00000001     I   45763 45755X
 $$$1323       6 00007D68 00000001     I   45762 45763  45763
 $$$1324F      2 00007C32 00000001     H   45812 45784B 45797B
 $$$1324S      2 00007C1A 00000001     H   45776 45811B
 $$$1327F      2 00007C5C 00000001     H   45895 45822B
 $$$1328F      2 00007C4C 00000001     H   45853 45840B
 $$$1329F      2 00007C5C 00000001     H   45891 45867B
 $$$1330       6 00007D6E 00000001     I   45881 45873X
 $$$1331       6 00007D6E 00000001     I   45880 45881  45881
 $$$1332       1 00000070 00000001 A   U   45915 45912  45914
 $$$1333F      2 00008FF6 00000001     H   52622 46282B 47468B 47865B
 $$$1334B      1 00007D98 00000001     X   46014 46021U
 $$$1335F      2 00007DB0 00000001     H   46070 46061B
 $$$1336F      2 00007E22 00000001     H   46240 46127B
 $$$1337B      4 00007DEC 00000001     I   46157 46208
 $$$1337F      2 00007E0C 00000001     H   46203 46146B 46157B 46205
 $$$1338B      4 00007DE6 00000001     I   46146 46206
 $$$1339E      2 00007E10 00000001     H   46215 46207  46209
 $$$1339F      2 00007E22 00000001     H   46236 46211B
 $$$1340F      2 00007E40 00000001     H   46279 46255B
 $$$1341F      2 00007EC6 00000001     H   46380 46330B
 $$$1345S      2 00007F9C 00000001     H   46514 46588B
 $$$1347F      2 00007FE2 00000001     H   46584 46559B
 $$$1348B      4 00008004 00000001     I   46622 46649
 $$$1348F      2 0000801A 00000001     H   46646 46622B 46648
 $$$1349E      2 0000801E 00000001     H   46656 46650
 $$$1349F      2 00008030 00000001     H   46677 46652B
 $$$1352F      2 00008134 00000001     H   47146 46853B
 $$$1353F      2 000080A6 00000001     H   46918 46870B
 $$$1354F      2 0000812E 00000001     H   47125 46938B
 $$$1354S      2 000080AE 00000001     H   46932 47124B
 $$$1356F      2 00008122 00000001     H   47110 46967B
 $$$1357B      4 000080C4 00000001     I   46986 47041
 $$$1357F      2 000080EE 00000001     H   47038 46986B 47040
 $$$1358E      2 000080F2 00000001     H   47048 47042
 $$$1358F      2 00008122 00000001     H   47106 47044B
 $$$136F       2 000014EA 00000001     H   12141 12121B
 $$$1360B      4 00008158 00000001     I   47188 47200
 $$$1360F      2 00008160 00000001     H   47197 47188B 47199
 $$$1361E      2 00008164 00000001     H   47207 47201
 $$$1361F      2 0000816E 00000001     H   47232 47203B
 $$$1362       6 000093A2 00000001     I   47222 47214X
 $$$1363       6 000093A2 00000001     I   47221 47222  47222
 $$$1364F      2 00008188 00000001     H   47281 47247B
1AMELIA   Ordinary Symbol and Literal Cross Reference                                                                       Page  366
 $$$1365B      4 0000818C 00000001     I   47293 47311
 $$$1365F      2 00008194 00000001     H   47308 47293B 47310
 $$$1366E      2 00008198 00000001     H   47318 47312
 $$$1366F      2 0000819C 00000001     H   47330 47314B
 $$$1367F      2 000081BA 00000001     H   47360 47345B
 $$$1368F      2 000081FA 00000001     H   47422 47397B
 $$$1369F      2 00008218 00000001     H   47460 47435B
 $$$1370B      4 00008258 00000001     I   47511 47527
 $$$1370F      2 00008260 00000001     H   47521 47498B 47511B 47524
 $$$1371B      4 00008250 00000001     I   47498 47525
 $$$1372B      4 00008272 00000001     I   47560 47575
 $$$1372E      2 00008264 00000001     H   47534 47526  47528
 $$$1372F      2 0000827A 00000001     H   47570 47530B 47547B 47560B 47572
 $$$1374B      4 00008268 00000001     I   47547 47573
 $$$1377F      2 000082AC 00000001     H   47639 47614B
 $$$1380F      2 000082F2 00000001     H   47770 47748B
 $$$1384F      2 000083E0 00000001     H   47953 47928B
 $$$1386B      4 00008446 00000001     I   48049 48075
 $$$1386F      2 00008450 00000001     H   48072 48049B 48074
 $$$1387E      2 00008454 00000001     H   48082 48076
 $$$1387F      2 0000845A 00000001     H   48102 48078B
 $$$1389F      2 0000849A 00000001     H   48233 48208B
 $$$139F       2 00001588 00000001     H   12397 12191B
 $$$139S       2 000014F8 00000001     H   12164 12396B
 $$$1391B      4 000084B2 00000001     I   48290 48302
 $$$1391F      2 000084BA 00000001     H   48299 48290B 48301
 $$$1392E      2 000084BE 00000001     H   48309 48303
 $$$1392F      2 000084CA 00000001     H   48346 48305B
 $$$1394F      2 0000852C 00000001     H   48530 48376B 48389B
 $$$1397B      4 000084FE 00000001     I   48438 48464
 $$$1397F      2 00008508 00000001     H   48461 48438B 48463
 $$$1398E      2 0000850C 00000001     H   48471 48465
 $$$1398F      2 00008512 00000001     H   48491 48467B
 $$$1401F      2 0000854A 00000001     H   48575 48562B
 $$$1402F      2 00008556 00000001     H   48594 48585B
 $$$1403F      2 00008570 00000001     H   48639 48615B
 $$$1404       6 000093A8 00000001     I   48629 48621X
 $$$1405       6 000093A8 00000001     I   48628 48629  48629
 $$$1406F      2 0000857E 00000001     H   48679 48655B
 $$$1407       6 000093AE 00000001     I   48669 48661X
 $$$1408       6 000093AE 00000001     I   48668 48669  48669
 $$$1410F      2 000085F8 00000001     H   48892 48882B
 $$$1410T      2 000085EE 00000001     H   48885 48871B
 $$$1412F      2 00008616 00000001     H   48931 48906B
 $$$1413F      2 00008638 00000001     H   48971 48946B
 $$$1415F      2 000086C2 00000001     H   49112 49102B
 $$$1417B      4 00008704 00000001     I   49239 49251
 $$$1417F      2 0000870C 00000001     H   49248 49239B 49250
 $$$1418E      2 00008710 00000001     H   49258 49252
 $$$1418F      2 00008720 00000001     H   49300 49254B
 $$$142F       2 0000157E 00000001     H   12386 12217B
 $$$1420F      2 00008778 00000001     H   49482 49329B 49342B
 $$$1423B      4 00008750 00000001     I   49391 49417
 $$$1423F      2 0000875A 00000001     H   49414 49391B 49416
 $$$1424E      2 0000875E 00000001     H   49424 49418
 $$$1424F      2 00008764 00000001     H   49444 49420B
 $$$1426F      2 000087D2 00000001     H   49685 49495B
 $$$1426S      2 00008778 00000001     H   49489 49684B
 $$$1428B      4 00008784 00000001     I   49512 49532
1AMELIA   Ordinary Symbol and Literal Cross Reference                                                                       Page  367
 $$$1428F      2 0000878C 00000001     H   49528 49512B 49531
 $$$1429B      4 00008796 00000001     I   49550 49569
 $$$1429E      2 00008790 00000001     H   49539 49533
 $$$1429F      2 0000879E 00000001     H   49566 49535B 49550B 49568
 $$$143B       4 00001530 00000001     I   12249 12303
 $$$143F       2 0000154E 00000001     H   12297 12249B 12302
 $$$1431E      2 000087A2 00000001     H   49576 49570
 $$$1431F      2 000087C2 00000001     H   49664 49572B
 $$$1432B      4 000087A6 00000001     I   49589 49615
 $$$1432F      2 000087B0 00000001     H   49612 49589B 49614
 $$$1433E      2 000087B4 00000001     H   49622 49616
 $$$1433F      2 000087BA 00000001     H   49642 49618B
 $$$1437F      2 000087EE 00000001     H   49744 49734B
 $$$1438F      2 00008898 00000001     H   50012 49885B
 $$$1438S      2 0000883A 00000001     H   49876 50011B
 $$$144E       2 00001552 00000001     H   12310 12304
 $$$144F       2 00001574 00000001     H   12357 12306B
 $$$1440F      2 0000885A 00000001     H   49919 49906B
 $$$1440S      2 00008848 00000001     H   49900 49918B
 $$$1442F      2 0000888C 00000001     H   50003 49929B
 $$$1443F      2 0000892C 00000001     H   50221 50094B
 $$$1443S      2 000088CE 00000001     H   50085 50220B
 $$$1445F      2 000088EE 00000001     H   50128 50115B
 $$$1445S      2 000088DC 00000001     H   50109 50127B
 $$$1447F      2 00008920 00000001     H   50212 50138B
 $$$1448F      2 0000894E 00000001     H   50281 50242B
 $$$1448S      2 00008934 00000001     H   50236 50280B
 $$$145F       2 0000159C 00000001     H   12428 12414B
 $$$1450F      2 00008990 00000001     H   50381 50305B
 $$$1451F      2 0000898C 00000001     H   50376 50338B
 $$$1451S      2 00008974 00000001     H   50332 50375B
 $$$1453F      2 000089CC 00000001     H   50454 50395B
 $$$1454F      2 000089BE 00000001     H   50439 50414B
 $$$1455F      2 000089E6 00000001     H   50491 50472B
 $$$1456F      2 00008A02 00000001     H   50527 50502B
 $$$1457F      2 00008A74 00000001     H   50692 50540B
 $$$1457S      2 00008A02 00000001     H   50534 50691B
 $$$1459F      2 00008A66 00000001     H   50675 50600B
 $$$1459T      2 00008A24 00000001     H   50603 50587B
 $$$1461F      2 00008A66 00000001     H   50671 50619B
 $$$1462B      4 00008A92 00000001     I   50743 50757
 $$$1462F      2 00008A9A 00000001     H   50752 50730B 50743B 50754
 $$$1463B      4 00008A88 00000001     I   50730 50755
 $$$1464E      2 00008A9E 00000001     H   50764 50756  50758
 $$$1464F      2 00008AA0 00000001     H   50773 50760B
 $$$1466F      2 00008AE2 00000001     H   50889 50876B
 $$$1467F      2 00008B2A 00000001     H   51030 51020B
 $$$1467S      2 00008AE2 00000001     H   50894 50933B 50952B 51029B
 $$$1468F      2 00008AF2 00000001     H   50919 50909B
 $$$147B       4 000015B6 00000001     I   12477 12493
 $$$147F       2 000015C0 00000001     H   12489 12477B 12492
 $$$1472B      4 00008B48 00000001     I   51064 51091
 $$$1472F      2 00008B5E 00000001     H   51088 51064B 51090
 $$$1473E      2 00008B62 00000001     H   51098 51092
 $$$1473F      2 00008B74 00000001     H   51119 51094B
 $$$1474F      2 00008C04 00000001     H   51325 51166B 51179B
 $$$1474S      2 00008B90 00000001     H   51155 51324B
 $$$1477F      2 00008BEC 00000001     H   51294 51264B
 $$$1478F      2 00008D86 00000001     H   51801 51346B
1AMELIA   Ordinary Symbol and Literal Cross Reference                                                                       Page  368
 $$$1478S      2 00008C0C 00000001     H   51340 51800B
 $$$148E       2 000015C4 00000001     H   12500 12494
 $$$148F       2 000015D4 00000001     H   12524 12496B 12512B
 $$$1480F      2 00008C72 00000001     H   51477 51452B
 $$$1481F      2 00008D40 00000001     H   51709 51561B
 $$$1482F      2 00008D2E 00000001     H   51680 51671B
 $$$1483F      2 00008D82 00000001     H   51791 51766B
 $$$1485F      2 00008DCC 00000001     H   51929 51904B
 $$$1486F      2 00008DE6 00000001     H   51981 51944B
 $$$1487F      2 00008DE6 00000001     H   51977 51967B
 $$$1488F      2 00008E86 00000001     H   52213 51995B
 $$$1488S      2 00008DEA 00000001     H   51989 52212B
 $$$1490F      2 00008E10 00000001     H   52050 52025B
 $$$1491F      2 00008E7E 00000001     H   52202 52081B 52126B 52156B
 $$$1491T      2 00008E42 00000001     H   52129 52098B 52113B
 $$$1492T      2 00008E24 00000001     H   52086 52068B
 $$$1497F      2 00008E7E 00000001     H   52198 52173B
 $$$1498F      2 00008EA0 00000001     H   52250 52226B
 $$$1499F      2 00008FF2 00000001     H   52592 52548B
 $$$150F       2 000015F0 00000001     H   12560 12545B
 $$$1501       1 00000164 00000001 A   U   52631 52628  52630
 $$$1503B      1 000093D8 00000001     X   52779 52786U
 $$$1504F      2 00009408 00000001     H   52878 52823B 52864B
 $$$1504S      2 000093E0 00000001     H   52815 52877B
 $$$1504T      2 000093FE 00000001     H   52867 52840B 52853B
 $$$1509F      2 0000942A 00000001     H   52933 52893B 52906B 52919B
 $$$1509S      2 0000940A 00000001     H   52885 52932B
 $$$151        1 000000B4 00000001 A   U   12589 12586  12588
 $$$1513       1 00000070 00000001 A   U   52961 52958  52960
 $$$1515B      1 00009468 00000001     X   53021 53028U
 $$$1516F      2 00009530 00000001     H   53291 53251B
 $$$1517F      2 00009548 00000001     H   53327 53303B
 $$$1518F      2 000095E8 00000001     H   53536 53340B
 $$$1519F      2 000095E8 00000001     H   53532 53423B
 $$$152F       2 000017A8 00000001     H   13061 12872B
 $$$1520F      2 000095DE 00000001     H   53506 53457B
 $$$1520S      2 000095AE 00000001     H   53451 53505B
 $$$1522F      2 0000962C 00000001     H   53624 53549B
 $$$1523F      2 00009670 00000001     H   53712 53637B
 $$$1524F      2 0000969A 00000001     H   53771 53725B
 $$$1525F      2 000096C4 00000001     H   53829 53783B
 $$$1526F      2 000096EE 00000001     H   53887 53841B
 $$$1527F      2 00009718 00000001     H   53945 53899B
 $$$1528F      2 00009752 00000001     H   54020 53958B
 $$$1529F      2 0000978C 00000001     H   54095 54033B
 $$$153B       1 00001622 00000001     X   12625 12632U
 $$$1530F      2 00009892 00000001     H   54407 54361B
 $$$1531F      2 000098BC 00000001     H   54465 54419B
 $$$1532F      2 000098E6 00000001     H   54523 54477B
 $$$1533F      2 00009910 00000001     H   54581 54535B
 $$$1534F      2 0000993A 00000001     H   54639 54593B
 $$$1535F      2 00009964 00000001     H   54697 54651B
 $$$1536F      2 00009A1E 00000001     H   54924 54878B
 $$$1537F      2 00009A76 00000001     H   55030 54973B
 $$$1538F      2 00009BAC 00000001     H   55442 55347B
 $$$1538S      2 00009B58 00000001     H   55341 55441B
 $$$154F       2 000016F0 00000001     H   12856 12658B
 $$$1540F      2 00009BA4 00000001     H   55436 55363B
 $$$1541F      2 00009C1E 00000001     H   55587 55455B
1AMELIA   Ordinary Symbol and Literal Cross Reference                                                                       Page  369
 $$$1542F      2 00009C1E 00000001     H   55583 55488B
 $$$1542S      2 00009BCA 00000001     H   55482 55582B
 $$$1544F      2 00009C16 00000001     H   55577 55504B
 $$$1545       1 000000B4 00000001 A   U   55610 55607  55609
 $$$1547B      1 00009EF2 00000001     X   55734 55741U
 $$$1548F      2 00009F78 00000001     H   55959 55862B
 $$$1549F      2 00009F78 00000001     H   55955 55898B
 $$$1549T      2 00009F52 00000001     H   55901 55886B
 $$$1551F      2 00009FAC 00000001     H   56025 55972B
 $$$1552F      2 00009FDE 00000001     H   56103 56038B
 $$$1553F      2 0000A010 00000001     H   56181 56116B
 $$$1554F      2 0000A042 00000001     H   56259 56194B
 $$$1555F      2 0000A0DA 00000001     H   56457 56272B
 $$$1556F      2 0000A0D0 00000001     H   56431 56373B
 $$$1557F      2 0000A172 00000001     H   56655 56470B
 $$$1558F      2 0000A168 00000001     H   56629 56571B
 $$$1559F      2 0000A1EC 00000001     H   56827 56668B
 $$$156F       2 0000163C 00000001     H   12686 12673B
 $$$1560F      2 0000A1E2 00000001     H   56801 56700B
 $$$1560S      2 0000A190 00000001     H   56694 56800B
 $$$1562F      2 0000A1DA 00000001     H   56795 56716B
 $$$1563F      2 0000A266 00000001     H   56999 56840B
 $$$1564F      2 0000A25C 00000001     H   56973 56872B
 $$$1564S      2 0000A20A 00000001     H   56866 56972B
 $$$1566F      2 0000A254 00000001     H   56967 56888B
 $$$1567       1 000000F4 00000001 A   U   57027 57024  57026
 $$$1568F      2 0000ADD4 00000001     H   60974 58011B
 $$$1569B      1 0000A3A0 00000001     X   57127 57134U
 $$$1570F      2 0000A418 00000001     H   57309 57267B
 $$$1571F      2 0000A474 00000001     H   57420 57355B
 $$$1572B      4 0000A4A8 00000001     I   57521 57574
 $$$1572F      2 0000A4CC 00000001     H   57570 57521B 57573
 $$$1573E      2 0000A4D0 00000001     H   57581 57575
 $$$1573F      2 0000A510 00000001     H   57687 57577B 57591B
 $$$1575B      4 0000A4F2 00000001     I   57621 57650
 $$$1575F      2 0000A500 00000001     H   57647 57621B 57649
 $$$1576E      2 0000A504 00000001     H   57657 57651
 $$$1576F      2 0000A510 00000001     H   57683 57653B
 $$$1577F      2 0000A5E4 00000001     H   57992 57752B
 $$$1578F      2 0000A59C 00000001     H   57889 57847B
 $$$1579F      2 0000A5DA 00000001     H   57966 57901B
 $$$158F       2 000016EA 00000001     H   12845 12706B
 $$$1582F      2 0000A71E 00000001     H   58391 58333B
 $$$1583F      2 0000A7AC 00000001     H   58568 58510B
 $$$1584F      2 0000A824 00000001     H   58738 58603B
 $$$1585F      2 0000A81A 00000001     H   58712 58671B
 $$$1586F      2 0000A85E 00000001     H   58827 58753B
 $$$1587F      2 0000A8DC 00000001     H   58996 58840B
 $$$1588F      2 0000A916 00000001     H   59085 59011B
 $$$1589F      2 0000A9B6 00000001     H   59311 59099B
 $$$159F       2 000016E0 00000001     H   12833 12788B
 $$$1590F      2 0000A98C 00000001     H   59243 59219B
 $$$1591F      2 0000A9CE 00000001     H   59348 59323B
 $$$1592F      2 0000A9E6 00000001     H   59384 59359B
 $$$1593F      2 0000A9FE 00000001     H   59420 59395B
 $$$1594F      2 0000ACD4 00000001     H   60577 59460B 60562B
 $$$1594S      2 0000AA12 00000001     H   59445 60576B
 $$$1596F      2 0000ACBA 00000001     H   60519 59492B
 $$$1597F      2 0000AA92 00000001     H   59634 59624B
1AMELIA   Ordinary Symbol and Literal Cross Reference                                                                       Page  370
 $$$1598B      4 0000AAA2 00000001     I   59666 60010
 $$$1598F      2 0000AB82 00000001     H   60006 59666B 60009
 $$$1598T      2 0000AAA6 00000001     H   59669 59653B
 $$$160F       2 000016B2 00000001     H   12820 12807B
 $$$160S       2 000016A0 00000001     H   12799 12819B
 $$$1600B      4 0000AAAC 00000001     I   59684 59711
 $$$1600F      2 0000AAC0 00000001     H   59708 59684B 59710
 $$$1601E      2 0000AAC4 00000001     H   59718 59712
 $$$1601F      2 0000AAD4 00000001     H   59739 59714B
 $$$1602F      2 0000AB20 00000001     H   59846 59801B
 $$$1603F      2 0000AB38 00000001     H   59881 59857B
 $$$1604F      2 0000AB50 00000001     H   59916 59892B
 $$$1605F      2 0000AB68 00000001     H   59951 59927B
 $$$1606E      2 0000AB86 00000001     H   60017 60011
 $$$1606F      2 0000ACBA 00000001     H   60515 60013B
 $$$1607B      4 0000AB8C 00000001     I   60032 60059
 $$$1607F      2 0000ABA0 00000001     H   60056 60032B 60058
 $$$1608E      2 0000ABA4 00000001     H   60066 60060
 $$$1608F      2 0000ABF6 00000001     H   60176 60062B
 $$$1609F      2 0000ABEC 00000001     H   60150 60094B
 $$$1610B      4 0000AC26 00000001     I   60260 60375
 $$$1610F      2 0000AC6C 00000001     H   60371 60260B 60374
 $$$1610T      2 0000AC2A 00000001     H   60263 60248B
 $$$1612B      4 0000AC76 00000001     I   60393 60458
 $$$1612E      2 0000AC70 00000001     H   60382 60376
 $$$1612F      2 0000AC9C 00000001     H   60455 60378B 60393B 60457
 $$$1614E      2 0000ACA0 00000001     H   60465 60459
 $$$1614F      2 0000ACBA 00000001     H   60511 60461B 60476B
 $$$1616F      2 0000ACC8 00000001     H   60547 60534B
 $$$1618F      2 0000AD70 00000001     H   60814 60592B
 $$$1619F      2 0000AD70 00000001     H   60810 60625B
 $$$1619S      2 0000ACF2 00000001     H   60619 60809B
 $$$1621F      2 0000AD5E 00000001     H   60777 60735B
 $$$1622F      2 0000ADD4 00000001     H   60955 60829B
 $$$1623       1 00000090 00000001 A   U   60983 60980  60982
 $$$1625B      1 0000B0E8 00000001     X   61160 61167U
 $$$1626F      2 0000B0F6 00000001     H   61215 61201B
 $$$1627B      4 0000B182 00000001     I   61380 61397
 $$$1627F      2 0000B18E 00000001     H   61393 61380B 61396
 $$$1628B      4 0000B198 00000001     I   61416 61433
 $$$1628E      2 0000B192 00000001     H   61404 61398
 $$$1628F      2 0000B1A4 00000001     H   61429 61400B 61416B 61432
 $$$163F       2 000017A8 00000001     H   13051 12889B
 $$$1630B      4 0000B1AE 00000001     I   61451 61467
 $$$1630E      2 0000B1A8 00000001     H   61440 61434
 $$$1630F      2 0000B1BA 00000001     H   61464 61436B 61451B 61466
 $$$1632E      2 0000B1BE 00000001     H   61474 61468
 $$$1632F      2 0000B1D0 00000001     H   61502 61470B
 $$$1633B      4 0000B216 00000001     I   61599 62437
 $$$1633F      2 0000B416 00000001     H   62430 61599B 62436
 $$$1634B      4 0000B220 00000001     I   61633 61650
 $$$1634F      2 0000B22C 00000001     H   61646 61633B 61649
 $$$1635B      4 0000B236 00000001     I   61669 61686
 $$$1635E      2 0000B230 00000001     H   61657 61651
 $$$1635F      2 0000B242 00000001     H   61682 61653B 61669B 61685
 $$$1637B      4 0000B24C 00000001     I   61705 61722
 $$$1637E      2 0000B246 00000001     H   61693 61687
 $$$1637F      2 0000B258 00000001     H   61718 61689B 61705B 61721
 $$$1639B      4 0000B262 00000001     I   61741 61757
1AMELIA   Ordinary Symbol and Literal Cross Reference                                                                       Page  371
 $$$1639E      2 0000B25C 00000001     H   61729 61723
 $$$1639F      2 0000B26E 00000001     H   61754 61725B 61741B 61756
 $$$164F       2 00001718 00000001     H   12922 12906B
 $$$1641E      2 0000B272 00000001     H   61764 61758
 $$$1641F      2 0000B27A 00000001     H   61774 61760B
 $$$1642F      2 0000B2B2 00000001     H   61853 61809B
 $$$1643F      2 0000B2F2 00000001     H   61930 61891B
 $$$1643S      2 0000B2D0 00000001     H   61884 61929B
 $$$1645       6 0000BB92 00000001     I   61979 61971X
 $$$1646       6 0000BB92 00000001     I   61978 61979  61979
 $$$1647F      2 0000B356 00000001     H   62104 61992B
 $$$1648B      4 0000B31E 00000001     I   62010 62036
 $$$1648F      2 0000B330 00000001     H   62033 62010B 62035
 $$$1649E      2 0000B334 00000001     H   62043 62037
 $$$1649F      2 0000B356 00000001     H   62100 62039B
 $$$165F       2 0000175E 00000001     H   12976 12967B
 $$$1650F      2 0000B356 00000001     H   62096 62057B
 $$$1650S      2 0000B334 00000001     H   62050 62095B
 $$$1652       6 0000BB98 00000001     I   62144 62136X
 $$$1653       6 0000BB98 00000001     I   62143 62144  62144
 $$$1654F      2 0000B3B6 00000001     H   62244 62157B
 $$$1655F      2 0000B3A4 00000001     H   62213 62174B
 $$$1655S      2 0000B382 00000001     H   62167 62212B
 $$$1657       6 0000BB9E 00000001     I   62267 62259X
 $$$1658       6 0000BB9E 00000001     I   62266 62267  62267
 $$$1659F      2 0000B40A 00000001     H   62392 62280B
 $$$1660B      4 0000B3D2 00000001     I   62298 62324
 $$$1660F      2 0000B3E4 00000001     H   62321 62298B 62323
 $$$1661E      2 0000B3E8 00000001     H   62331 62325
 $$$1661F      2 0000B40A 00000001     H   62388 62327B
 $$$1662F      2 0000B40A 00000001     H   62384 62345B
 $$$1662S      2 0000B3E8 00000001     H   62338 62383B
 $$$1664B      4 0000B41E 00000001     I   62455 64369
 $$$1664E      2 0000B41A 00000001     H   62444 62438
 $$$1664F      2 0000B9AC 00000001     H   64363 62440B 62455B 64368
 $$$1666F      2 0000B46E 00000001     H   62563 62514B
 $$$1666T      2 0000B446 00000001     H   62517 62492B 62502B
 $$$1669F      2 0000B508 00000001     H   62727 62682B
 $$$1670B      4 0000B51E 00000001     I   62756 62784
 $$$1670F      2 0000B534 00000001     H   62780 62756B 62783
 $$$1671B      4 0000B53C 00000001     I   62803 62831
 $$$1671E      2 0000B538 00000001     H   62791 62785
 $$$1671F      2 0000B552 00000001     H   62827 62787B 62803B 62830
 $$$1673B      4 0000B55A 00000001     I   62850 62877
 $$$1673E      2 0000B556 00000001     H   62838 62832
 $$$1673F      2 0000B570 00000001     H   62874 62834B 62850B 62876
 $$$1675E      2 0000B574 00000001     H   62884 62878
 $$$1675F      2 0000B586 00000001     H   62914 62880B
 $$$1676F      2 0000B5E8 00000001     H   63039 62980B
 $$$1677F      2 0000B5D2 00000001     H   63010 62995B
 $$$1678B      4 0000B5EC 00000001     I   63054 63316
 $$$1678F      2 0000B6A4 00000001     H   63311 63054B 63315
 $$$1679F      2 0000B652 00000001     H   63188 63163B
 $$$168        1 00000070 00000001 A   U   13070 13067  13069
 $$$1680F      2 0000B66C 00000001     H   63227 63202B
 $$$1681F      2 0000B690 00000001     H   63276 63261B
 $$$1682B      4 0000B6AC 00000001     I   63335 63592
 $$$1682E      2 0000B6A8 00000001     H   63323 63317
 $$$1682F      2 0000B770 00000001     H   63587 63319B 63335B 63591
1AMELIA   Ordinary Symbol and Literal Cross Reference                                                                       Page  372
 $$$1684F      2 0000B73C 00000001     H   63504 63480B
 $$$1685F      2 0000B75C 00000001     H   63552 63537B
 $$$1686B      4 0000B778 00000001     I   63611 64285
 $$$1686E      2 0000B774 00000001     H   63599 63593
 $$$1686F      2 0000B982 00000001     H   64281 63595B 63611B 64284
 $$$1688F      2 0000B7F0 00000001     H   63759 63734B
 $$$1689F      2 0000B80A 00000001     H   63795 63770B
 $$$1690F      2 0000B824 00000001     H   63831 63806B
 $$$1691F      2 0000B83E 00000001     H   63867 63842B
 $$$1692F      2 0000B858 00000001     H   63903 63878B
 $$$1693F      2 0000B8A8 00000001     H   63996 63951B
 $$$1694F      2 0000B956 00000001     H   64218 64110B
 $$$1695F      2 0000B956 00000001     H   64214 64130B 64144B
 $$$1697F      2 0000B970 00000001     H   64248 64233B
 $$$1698E      2 0000B986 00000001     H   64292 64286
 $$$1698F      2 0000B9AC 00000001     H   64347 64288B
 $$$1699F      2 0000B99A 00000001     H   64319 64304B
 $$$170B       1 000017DA 00000001     X   13106 13113U
 $$$1700E      2 0000B9B0 00000001     H   64376 64370
 $$$1700F      2 0000B9D6 00000001     H   64431 64372B
 $$$1701F      2 0000B9C4 00000001     H   64403 64388B
 $$$1702       1 00000088 00000001 A   U   64461 64458  64460
 $$$1703F      2 0000C486 00000001     H   67914 65924B 65974B
 $$$1704B      1 0000BBC8 00000001     X   64601 64608U
 $$$1705F      2 0000BC28 00000001     H   64754 64729B
 $$$1706F      2 0000BC40 00000001     H   64790 64765B
 $$$1707F      2 0000BC58 00000001     H   64826 64801B
 $$$1708F      2 0000BC70 00000001     H   64862 64837B
 $$$1709F      2 0000BCAE 00000001     H   64941 64917B
 $$$171F       2 000017F4 00000001     H   13171 13161B
 $$$1710F      2 0000BCC6 00000001     H   64978 64954B
 $$$1711F      2 0000BCDE 00000001     H   65015 64991B
 $$$1712F      2 0000BCF6 00000001     H   65052 65028B
 $$$1713F      2 0000BD0E 00000001     H   65089 65065B
 $$$1714F      2 0000BE46 00000001     H   65558 65144B
 $$$1714S      2 0000BD30 00000001     H   65138 65557B
 $$$1718B      4 0000BD92 00000001     I   65275 65303
 $$$1718F      2 0000BDA6 00000001     H   65299 65275B 65302
 $$$1719B      4 0000BDAE 00000001     I   65321 65349
 $$$1719E      2 0000BDAA 00000001     H   65310 65304
 $$$1719F      2 0000BDC2 00000001     H   65345 65306B 65321B 65348
 $$$172F       2 0000186C 00000001     H   13319 13265B
 $$$1721B      4 0000BDCA 00000001     I   65367 65395
 $$$1721E      2 0000BDC6 00000001     H   65356 65350
 $$$1721F      2 0000BDDE 00000001     H   65391 65352B 65367B 65394
 $$$1723B      4 0000BDE6 00000001     I   65413 65440
 $$$1723E      2 0000BDE2 00000001     H   65402 65396
 $$$1723F      2 0000BDFA 00000001     H   65437 65398B 65413B 65439
 $$$1725E      2 0000BDFE 00000001     H   65447 65441
 $$$1725F      2 0000BE0A 00000001     H   65472 65443B
 $$$1726F      2 0000BE32 00000001     H   65528 65486B
 $$$1727F      2 0000BE96 00000001     H   65680 65573B
 $$$1728F      2 0000BE96 00000001     H   65676 65606B
 $$$1728S      2 0000BE64 00000001     H   65600 65675B
 $$$173F       2 000018C0 00000001     H   13425 13377B
 $$$1733F      2 0000BEE6 00000001     H   65800 65693B
 $$$1734F      2 0000BEE6 00000001     H   65796 65726B
 $$$1734S      2 0000BEB4 00000001     H   65720 65795B
 $$$1739F      2 0000BF36 00000001     H   65920 65813B
1AMELIA   Ordinary Symbol and Literal Cross Reference                                                                       Page  373
 $$$174        1 00000070 00000001 A   U   13472 13469  13471
 $$$1740F      2 0000BF36 00000001     H   65916 65846B
 $$$1740S      2 0000BF04 00000001     H   65840 65915B
 $$$1745B      4 0000BF7C 00000001     I   66026 66064
 $$$1745F      2 0000BF90 00000001     H   66061 66026B 66063
 $$$1746E      2 0000BF94 00000001     H   66071 66065
 $$$1746F      2 0000BFA4 00000001     H   66093 66067B
 $$$1747B      4 0000BFC6 00000001     I   66140 66168
 $$$1747F      2 0000BFDA 00000001     H   66164 66140B 66167
 $$$1748B      4 0000BFE4 00000001     I   66187 66215
 $$$1748E      2 0000BFDE 00000001     H   66175 66169
 $$$1748F      2 0000BFF8 00000001     H   66211 66171B 66187B 66214
 $$$175F       2 00001B66 00000001     H   13911 13617B 13633B
 $$$1750B      4 0000C002 00000001     I   66234 66262
 $$$1750E      2 0000BFFC 00000001     H   66222 66216
 $$$1750F      2 0000C016 00000001     H   66258 66218B 66234B 66261
 $$$1752B      4 0000C020 00000001     I   66281 66309
 $$$1752E      2 0000C01A 00000001     H   66269 66263
 $$$1752F      2 0000C034 00000001     H   66305 66265B 66281B 66308
 $$$1754B      4 0000C03E 00000001     I   66328 66356
 $$$1754E      2 0000C038 00000001     H   66316 66310
 $$$1754F      2 0000C052 00000001     H   66352 66312B 66328B 66355
 $$$1756B      4 0000C05C 00000001     I   66375 66403
 $$$1756E      2 0000C056 00000001     H   66363 66357
 $$$1756F      2 0000C070 00000001     H   66399 66359B 66375B 66402
 $$$1758B      4 0000C07A 00000001     I   66422 66450
 $$$1758E      2 0000C074 00000001     H   66410 66404
 $$$1758F      2 0000C08E 00000001     H   66446 66406B 66422B 66449
 $$$176B       1 00001AA0 00000001     X   13572 13579U
 $$$1760B      4 0000C098 00000001     I   66469 66497
 $$$1760E      2 0000C092 00000001     H   66457 66451
 $$$1760F      2 0000C0AC 00000001     H   66493 66453B 66469B 66496
 $$$1762B      4 0000C0B6 00000001     I   66516 66543
 $$$1762E      2 0000C0B0 00000001     H   66504 66498
 $$$1762F      2 0000C0CA 00000001     H   66540 66500B 66516B 66542
 $$$1764E      2 0000C0CE 00000001     H   66550 66544
 $$$1764F      2 0000C0DC 00000001     H   66574 66546B
 $$$1765F      2 0000C104 00000001     H   66630 66589B
 $$$1766B      4 0000C128 00000001     I   66680 66768
 $$$1766F      2 0000C16A 00000001     H   66763 66680B 66767
 $$$1767B      4 0000C174 00000001     I   66787 66852
 $$$1767E      2 0000C16E 00000001     H   66775 66769
 $$$1767F      2 0000C19E 00000001     H   66847 66771B 66787B 66851
 $$$1769B      4 0000C1BC 00000001     I   66903 66957
 $$$1769E      2 0000C1A2 00000001     H   66859 66853
 $$$1769F      2 0000C1E0 00000001     H   66952 66855B 66903B 66956
 $$$1769T      2 0000C1C0 00000001     H   66906 66875B 66890B
 $$$1773B      4 0000C1EA 00000001     I   66976 67342
 $$$1773E      2 0000C1E4 00000001     H   66964 66958
 $$$1773F      2 0000C30E 00000001     H   67337 66960B 66976B 67341
 $$$1777B      4 0000C318 00000001     I   67361 67537
 $$$1777E      2 0000C312 00000001     H   67349 67343
 $$$1777F      2 0000C384 00000001     H   67532 67345B 67361B 67536
 $$$1779       6 0000C870 00000001     I   67383 67375X
 $$$1780       6 0000C870 00000001     I   67382 67383  67383
 $$$1781       6 0000C876 00000001     I   67400 67392X
 $$$1782       6 0000C876 00000001     I   67399 67400  67400
 $$$1783       6 0000C87C 00000001     I   67464 67456X
 $$$1784       6 0000C87C 00000001     I   67463 67464  67464
1AMELIA   Ordinary Symbol and Literal Cross Reference                                                                       Page  374
 $$$1785       6 0000C882 00000001     I   67481 67473X
 $$$1786       6 0000C882 00000001     I   67480 67481  67481
 $$$1787B      4 0000C38E 00000001     I   67556 67832
 $$$1787E      2 0000C388 00000001     H   67544 67538
 $$$1787F      2 0000C454 00000001     H   67828 67540B 67556B 67831
 $$$1789B      4 0000C3D0 00000001     I   67627 67655
 $$$1789F      2 0000C3E4 00000001     H   67651 67627B 67654
 $$$179F       2 00001AC6 00000001     H   13664 13651B
 $$$1790B      4 0000C3EC 00000001     I   67673 67700
 $$$1790E      2 0000C3E8 00000001     H   67662 67656
 $$$1790F      2 0000C400 00000001     H   67697 67658B 67673B 67699
 $$$1792E      2 0000C404 00000001     H   67707 67701
 $$$1792F      2 0000C410 00000001     H   67732 67703B
 $$$1793F      2 0000C44A 00000001     H   67802 67761B
 $$$1793S      2 0000C428 00000001     H   67755 67801B
 $$$1795E      2 0000C458 00000001     H   67839 67833
 $$$1795F      2 0000C47C 00000001     H   67884 67835B
 $$$1796       1 0000038C 00000001 A   U   67923 67920  67922
 $$$1798B      1 0000C4B8 00000001     X   67961 67968U
 $$$1799B      4 0000C4E6 00000001     I   68070 68135
 $$$1799F      2 0000C50E 00000001     H   68131 68070B 68134
 $$$1799T      2 0000C4EA 00000001     H   68073 68057B
 $$$1801F      2 0000C50E 00000001     H   68127 68103B
 $$$1802B      4 0000C516 00000001     I   68154 68217
 $$$1802E      2 0000C512 00000001     H   68142 68136
 $$$1802F      2 0000C546 00000001     H   68213 68138B 68154B 68216
 $$$1804E      2 0000C54A 00000001     H   68224 68218
 $$$1804F      2 0000C59E 00000001     H   68335 68220B 68236B
 $$$1806F      2 0000C5EA 00000001     H   68454 68348B
 $$$1807F      2 0000C5D4 00000001     H   68410 68397B
 $$$1808F      2 0000C60A 00000001     H   68506 68468B 68483B
 $$$1810       1 00000070 00000001 A   U   68552 68549  68551
 $$$1812B      1 0000C8AC 00000001     X   68721 68728U
 $$$1813F      2 0000C8F2 00000001     H   68843 68762B
 $$$1813S      2 0000C8B2 00000001     H   68756 68842B
 $$$1815F      2 0000C8D8 00000001     H   68810 68801B
 $$$1816       1 00000078 00000001 A   U   68868 68865  68867
 $$$1817F      2 0000CA66 00000001     H   69378 69221B
 $$$1818B      1 0000C924 00000001     X   68945 68952U
 $$$1819F      2 0000C94C 00000001     H   69006 68996B
 $$$182B       4 00001AF4 00000001     I   13739 13794
 $$$182F       2 00001B1A 00000001     H   13788 13739B 13793
 $$$1820F      2 0000CA66 00000001     H   69364 69018B
 $$$1820S      2 0000C94C 00000001     H   69012 69363B
 $$$1822B      4 0000C962 00000001     I   69036 69069
 $$$1822F      2 0000C974 00000001     H   69066 69036B 69068
 $$$1823E      2 0000C978 00000001     H   69076 69070
 $$$1823F      2 0000C98C 00000001     H   69105 69072B
 $$$1824B      4 0000C994 00000001     I   69117 69129
 $$$1824F      2 0000C99C 00000001     H   69126 69117B 69128
 $$$1825E      2 0000C9A0 00000001     H   69136 69130
 $$$1825F      2 0000C9A4 00000001     H   69142 69132B
 $$$1826F      2 0000CA50 00000001     H   69333 69165B 69176B
 $$$1826S      2 0000C9B4 00000001     H   69154 69332B
 $$$1829F      2 0000C9E4 00000001     H   69225 69198B
 $$$1829T      2 0000C9CE 00000001     H   69201 69192B
 $$$183B       4 00001AFE 00000001     I   13755 13769
 $$$183F       2 00001B0A 00000001     H   13765 13755B 13768
 $$$1831B      4 0000CA18 00000001     I   69245 69284
1AMELIA   Ordinary Symbol and Literal Cross Reference                                                                       Page  375
 $$$1831F      2 0000CA2C 00000001     H   69281 69245B 69283
 $$$1832F      2 0000CA2C 00000001     H   69277 69265B
 $$$1833E      2 0000CA30 00000001     H   69291 69285
 $$$1833F      2 0000CA3E 00000001     H   69317 69287B
 $$$1834F      2 0000CA3E 00000001     H   69313 69301B
 $$$1835       1 000000CC 00000001 A   U   69387 69384  69386
 $$$1837B      1 0000CB98 00000001     X   69437 69444U
 $$$1838F      2 0000CBD0 00000001     H   69521 69468B
 $$$1838S      2 0000CBA2 00000001     H   69462 69520B
 $$$184E       2 00001B0E 00000001     H   13776 13770
 $$$184F       2 00001B1A 00000001     H   13784 13772B
 $$$1840F      2 0000CBCC 00000001     H   69516 69504B
 $$$1841       1 00000070 00000001 A   U   69544 69541  69543
 $$$1843B      1 0000CC60 00000001     X   69617 69624U
 $$$1844F      2 0000CC82 00000001     H   69682 69651B
 $$$1844S      2 0000CC68 00000001     H   69644 69681B
 $$$1846F      2 0000CC7A 00000001     H   69675 69663B
 $$$1847B      4 0000CC88 00000001     I   69702 69716
 $$$1847F      2 0000CC90 00000001     H   69712 69702B 69715
 $$$1848B      4 0000CC98 00000001     I   69734 69748
 $$$1848E      2 0000CC94 00000001     H   69723 69717
 $$$1848F      2 0000CCA0 00000001     H   69744 69719B 69734B 69747
 $$$185E       2 00001B1E 00000001     H   13801 13795
 $$$185F       2 00001B66 00000001     H   13896 13797B
 $$$1850E      2 0000CCA4 00000001     H   69755 69749
 $$$1850F      2 0000CCB0 00000001     H   69776 69751B 69766B
 $$$1852F      2 0000CCBA 00000001     H   69796 69784B
 $$$1853F      2 0000CCD6 00000001     H   69827 69815B
 $$$1854F      2 0000CCE8 00000001     H   69862 69840B 69853B
 $$$1856       1 00000070 00000001 A   U   69880 69877  69879
 $$$1858B      1 0000CD1A 00000001     X   69918 69925U
 $$$1859       1 00000070 00000001 A   U   70046 70043  70045
 $$$186F       2 00001B3E 00000001     H   13844 13821B 13835B
 $$$1861B      1 0000CD8E 00000001     X   70080 70087U
 $$$1862B      4 0000CDD4 00000001     I   70177 70190
 $$$1862F      2 0000CDE0 00000001     H   70187 70177B 70189
 $$$1863E      2 0000CDE4 00000001     H   70197 70191
 $$$1863F      2 0000CDF0 00000001     H   70228 70193B
 $$$1864       1 00000070 00000001 A   U   70254 70251  70253
 $$$1866B      1 0000CE2A 00000001     X   70317 70324U
 $$$1867F      2 0000CE40 00000001     H   70381 70368B
 $$$1870       1 00000074 00000001 A   U   70437 70434  70436
 $$$1872B      1 0000CE88 00000001     X   70475 70482U
 $$$1873F      2 0000CE9E 00000001     H   70530 70517B
 $$$1875F      2 0000CEB8 00000001     H   70563 70553B
 $$$1875S      2 0000CEA2 00000001     H   70539 70562B
 $$$1877F      2 0000CEF0 00000001     H   70631 70580B
 $$$1879F      2 0000CED6 00000001     H   70608 70595B
 $$$188B       4 00001B44 00000001     I   13856 13870
 $$$188F       2 00001B50 00000001     H   13866 13856B 13869
 $$$1881F      2 0000CF02 00000001     H   70655 70642B
 $$$1883F      2 0000CF1A 00000001     H   70692 70678B
 $$$1883S      2 0000CF02 00000001     H   70663 70691B
 $$$1885F      2 0000CF2C 00000001     H   70720 70707B
 $$$1887F      2 0000CF44 00000001     H   70752 70735B
 $$$1889       1 00000070 00000001 A   U   70783 70780  70782
 $$$189E       2 00001B54 00000001     H   13877 13871
 $$$189F       2 00001B60 00000001     H   13885 13873B
 $$$1891B      1 0000CF7C 00000001     X   70842 70849U
1AMELIA   Ordinary Symbol and Literal Cross Reference                                                                       Page  376
 $$$1892F      2 0000CF9A 00000001     H   70913 70900B
 $$$1894F      2 0000CFAC 00000001     H   70935 70926B
 $$$1895F      2 0000CFB8 00000001     H   70972 70948B
 $$$1896       6 0000DAA8 00000001     I   70962 70954X
 $$$1897       6 0000DAA8 00000001     I   70961 70962  70962
 $$$1898B      4 0000CFBE 00000001     I   70988 71007
 $$$1898F      2 0000CFC8 00000001     H   71000 70988B 71006
 $$$1899B      4 0000CFD2 00000001     I   71025 71047
 $$$1899E      2 0000CFCC 00000001     H   71014 71008
 $$$1899F      2 0000CFE8 00000001     H   71040 71010B 71025B 71046
 $$$190        1 00000070 00000001 A   U   13920 13917  13919
 $$$1901B      4 0000CFF2 00000001     I   71065 71106
 $$$1901E      2 0000CFEC 00000001     H   71054 71048
 $$$1901F      2 0000D008 00000001     H   71099 71050B 71065B 71105
 $$$1903B      4 0000D012 00000001     I   71124 71148
 $$$1903E      2 0000D00C 00000001     H   71113 71107
 $$$1903F      2 0000D026 00000001     H   71141 71109B 71124B 71147
 $$$1905B      4 0000D030 00000001     I   71166 71187
 $$$1905E      2 0000D02A 00000001     H   71155 71149
 $$$1905F      2 0000D042 00000001     H   71180 71151B 71166B 71186
 $$$1907B      4 0000D04C 00000001     I   71205 71240
 $$$1907E      2 0000D046 00000001     H   71194 71188
 $$$1907F      2 0000D078 00000001     H   71233 71190B 71205B 71239
 $$$1909B      4 0000D082 00000001     I   71258 71363
 $$$1909E      2 0000D07C 00000001     H   71247 71241
 $$$1909F      2 0000D0C8 00000001     H   71357 71243B 71258B 71362
 $$$1911E      2 0000D0CC 00000001     H   71370 71364
 $$$1911F      2 0000D114 00000001     H   71491 71366B
 $$$1912       1 00000084 00000001 A   U   71519 71516  71518
 $$$1913F      2 0000D19E 00000001     H   71696 71588B 71602B
 $$$1914B      1 0000D146 00000001     X   71556 71563U
 $$$1917F      2 0000D194 00000001     H   71677 71664B
 $$$1918       1 00000070 00000001 A   U   71705 71702  71704
 $$$192B       1 00001B98 00000001     X   13955 13962U
 $$$1920B      1 0000D1D0 00000001     X   71746 71753U
 $$$1921F      2 0000D1E6 00000001     H   71801 71788B
 $$$1923B      4 0000D1EC 00000001     I   71817 71944
 $$$1923F      2 0000D22C 00000001     H   71940 71817B 71943
 $$$1924F      2 0000D204 00000001     H   71862 71846B
 $$$1925B      4 0000D210 00000001     I   71880 71893
 $$$1925F      2 0000D21C 00000001     H   71890 71880B 71892
 $$$1926E      2 0000D220 00000001     H   71900 71894
 $$$1926F      2 0000D228 00000001     H   71930 71896B
 $$$1927E      2 0000D230 00000001     H   71951 71945
 $$$1927F      2 0000D232 00000001     H   71961 71947B
 $$$1928       1 00000070 00000001 A   U   71985 71982  71984
 $$$1929F      2 0000D330 00000001     H   72356 72259B
 $$$193F       2 00001C10 00000001     H   14131 13981B 14016B
 $$$1930B      1 0000D264 00000001     X   72026 72033U
 $$$1931F      2 0000D27A 00000001     H   72081 72068B
 $$$1934F      2 0000D2A0 00000001     H   72148 72135B
 $$$1936F      2 0000D2BC 00000001     H   72191 72182B
 $$$1937       6 0000DAAE 00000001     I   72204 72196X
 $$$1938       6 0000DAAE 00000001     I   72203 72204  72204
 $$$1939F      2 0000D2DC 00000001     H   72263 72241B
 $$$1939T      2 0000D2D2 00000001     H   72244 72230B
 $$$1941F      2 0000D302 00000001     H   72301 72286B
 $$$1942F      2 0000D318 00000001     H   72325 72312B
 $$$1943       1 00000060 00000001 A   U   72365 72362  72364
1AMELIA   Ordinary Symbol and Literal Cross Reference                                                                       Page  377
 $$$1945B      1 0000D362 00000001     X   72427 72434U
 $$$1946F      2 0000D436 00000001     H   72751 72515B 72529B
 $$$1946T      2 0000D386 00000001     H   72518 72493B 72505B
 $$$195F       2 00001BCC 00000001     H   14047 14032B
 $$$1951F      2 0000D3C0 00000001     H   72604 72591B
 $$$1953F      2 0000D3E8 00000001     H   72639 72629B
 $$$1954F      2 0000D430 00000001     H   72735 72668B
 $$$1955F      2 0000D41C 00000001     H   72705 72685B
 $$$1956F      2 0000D430 00000001     H   72731 72722B
 $$$1957F      2 0000D44E 00000001     H   72799 72765B
 $$$1958F      2 0000D44E 00000001     H   72795 72785B
 $$$1959       1 00000080 00000001 A   U   72828 72825  72827
 $$$196        1 00000070 00000001 A   U   14149 14146  14148
 $$$1961B      1 0000D480 00000001     X   72869 72876U
 $$$1962F      2 0000D496 00000001     H   72924 72911B
 $$$1964F      2 0000D4E4 00000001     H   73047 72964B
 $$$1965B      4 0000D4B8 00000001     I   72979 72993
 $$$1965F      2 0000D4C8 00000001     H   72989 72979B 72992
 $$$1966E      2 0000D4CC 00000001     H   73000 72994
 $$$1966F      2 0000D4D8 00000001     H   73030 72996B
 $$$1967F      2 0000D51A 00000001     H   73169 73091B
 $$$1967S      2 0000D4E8 00000001     H   73056 73168B
 $$$197F       2 00001D6C 00000001     H   14506 14369B 14422B
 $$$1970F      2 0000D516 00000001     H   73150 73106B
 $$$1971F      2 0000D510 00000001     H   73139 73123B
 $$$1972       1 00000070 00000001 A   U   73204 73201  73203
 $$$1973F      2 0000D640 00000001     H   73666 73388B 73408B
 $$$1974B      1 0000D558 00000001     X   73277 73284U
 $$$1975F      2 0000D56E 00000001     H   73341 73328B
 $$$198B       1 00001CB6 00000001     X   14235 14242U
 $$$1980B      4 0000D5AC 00000001     I   73445 73517
 $$$1980F      2 0000D5E0 00000001     H   73511 73445B 73516
 $$$1981F      2 0000D5D4 00000001     H   73480 73465B
 $$$1983F      2 0000D5E0 00000001     H   73507 73492B
 $$$1985E      2 0000D5E4 00000001     H   73524 73518
 $$$1985F      2 0000D63E 00000001     H   73637 73520B
 $$$1986F      2 0000D626 00000001     H   73597 73582B
 $$$1988F      2 0000D632 00000001     H   73624 73609B
 $$$199F       2 00001D6A 00000001     H   14481 14297B 14311B
 $$$1990       1 0000015C 00000001 A   U   73675 73672  73674
 $$$1992B      1 0000D672 00000001     X   73715 73722U
 $$$1993F      2 0000D688 00000001     H   73757 73744B
 $$$1994F      2 0000D698 00000001     H   73782 73769B
 $$$1995F      2 0000D6A8 00000001     H   73807 73794B
 $$$1996F      2 0000D6B8 00000001     H   73832 73819B
 $$$1997F      2 0000D6C8 00000001     H   73857 73844B
 $$$1998F      2 0000D6D8 00000001     H   73882 73869B
 $$$1999F      2 0000D6E8 00000001     H   73907 73894B
 $$$20B        1 00000410 00000001     X    8085  8092U
 $$$2000F      2 0000D6F8 00000001     H   73932 73919B
 $$$2001F      2 0000D708 00000001     H   73957 73944B
 $$$2002       1 00000060 00000001 A   U   73975 73972  73974
 $$$2004B      1 0000D73A 00000001     X   74037 74044U
 $$$2005F      2 0000D862 00000001     H   74568 74109B
 $$$2005S      2 0000D74A 00000001     H   74101 74126B 74162B 74197B 74232B 74567B
 $$$2008F      2 0000D770 00000001     H   74165 74145B
 $$$201F       2 00001D14 00000001     H   14373 14343B
 $$$2010F      2 0000D780 00000001     H   74200 74180B
 $$$2013F      2 0000D790 00000001     H   74235 74215B
1AMELIA   Ordinary Symbol and Literal Cross Reference                                                                       Page  378
 $$$2016F      2 0000D7EA 00000001     H   74405 74251B
 $$$2017F      2 0000D7B0 00000001     H   74303 74283B
 $$$2019F      2 0000D7CE 00000001     H   74354 74319B 74334B
 $$$202F       2 00001D3E 00000001     H   14426 14414B
 $$$2022F      2 0000D7EA 00000001     H   74394 74369B 74379B
 $$$2025B      4 0000D81A 00000001     I   74476 74505
 $$$2025F      2 0000D830 00000001     H   74502 74476B 74504
 $$$2026E      2 0000D834 00000001     H   74512 74506
 $$$2026F      2 0000D846 00000001     H   74535 74508B
 $$$2027F      2 0000D858 00000001     H   74559 74549B
 $$$2028       1 00000094 00000001 A   U   74602 74599  74601
 $$$203        1 0000065C 00000001 A   U   14515 14512  14514
 $$$2030B      1 0000DAD8 00000001     X   74755 74762U
 $$$2031F      2 0000DBF0 00000001     H   75157 74831B
 $$$2031T      2 0000DAF2 00000001     H   74834 74809B 74821B
 $$$2034F      2 0000DAFE 00000001     H   74854 74845B
 $$$2035F      2 0000DB28 00000001     H   74895 74885B
 $$$2036F      2 0000DBD8 00000001     H   75110 74919B 74975B
 $$$2038F      2 0000DB6C 00000001     H   74946 74936B
 $$$2042F      2 0000DBAA 00000001     H   75011 75001B
 $$$2043F      2 0000DBC0 00000001     H   75033 75023B
 $$$2044F      2 0000DBD8 00000001     H   75106 75043B
 $$$2045F      2 0000DBD4 00000001     H   75086 75062B
 $$$2046       6 0000E748 00000001     I   75076 75068X
 $$$2047       6 0000E748 00000001     I   75075 75076  75076
 $$$2048       6 0000E74E 00000001     I   75096 75088X
 $$$2049       6 0000E74E 00000001     I   75095 75096  75096
 $$$205B       1 00001D9E 00000001     X   14574 14581U
 $$$2050F      2 0000DBF0 00000001     H   75153 75130B
 $$$2051F      2 0000DBFA 00000001     H   75182 75169B
 $$$2052       1 0000006C 00000001 A   U   75210 75207  75209
 $$$2054B      1 0000DD2E 00000001     X   75289 75296U
 $$$2055F      2 0000DD8E 00000001     H   75393 75344B
 $$$2056F      2 0000DD6A 00000001     H   75374 75361B
 $$$2058       1 00000074 00000001 A   U   75421 75418  75420
 $$$206F       2 00001ED6 00000001     H   15102 14616B
 $$$206S       2 00001D9E 00000001     H   14608 15101B
 $$$2060B      1 0000DDC2 00000001     X   75459 75466U
 $$$2061       1 00000070 00000001 A   U   75499 75496  75498
 $$$2063B      1 0000DDFE 00000001     X   75533 75540U
 $$$2064       1 00000070 00000001 A   U   75572 75569  75571
 $$$2065F      2 0000DE1E 00000001     H   75621 75608B
 $$$2066B      1 0000DE24 00000001     X   75637 75644U
 $$$2067B      4 0000DE64 00000001     I   75730 75787
 $$$2067F      2 0000DE8C 00000001     H   75784 75730B 75786
 $$$2068E      2 0000DE90 00000001     H   75794 75788
 $$$2068F      2 0000DF06 00000001     H   75965 75790B
 $$$2069B      4 0000DEAC 00000001     I   75834 75887
 $$$2069F      2 0000DED6 00000001     H   75884 75834B 75886
 $$$2070E      2 0000DEDA 00000001     H   75894 75888
 $$$2070F      2 0000DEFA 00000001     H   75937 75890B
 $$$2072F      2 0000DFAC 00000001     H   76167 76091B 76104B
 $$$2074F      2 0000E026 00000001     H   76324 76248B 76261B
 $$$2076F      2 0000E0C8 00000001     H   76543 76429B
 $$$2076S      2 0000E068 00000001     H   76420 76542B
 $$$2078F      2 0000E0C4 00000001     H   76538 76487B
 $$$2079F      2 0000E27E 00000001     H   77121 77106B
 $$$2079S      2 0000E126 00000001     H   76639 76691B 77120B
 $$$208F       2 00001E6E 00000001     H   14946 14677B
1AMELIA   Ordinary Symbol and Literal Cross Reference                                                                       Page  379
 $$$208S       2 00001DC2 00000001     H   14650 14945B
 $$$2080F      2 0000E136 00000001     H   76664 76654B
 $$$2082B      4 0000E206 00000001     I   76933 76973
 $$$2082F      2 0000E21C 00000001     H   76970 76933B 76972
 $$$2083E      2 0000E220 00000001     H   76980 76974
 $$$2083F      2 0000E254 00000001     H   77043 76976B
 $$$2085F      2 0000E37A 00000001     H   77419 77262B
 $$$2086F      2 0000E356 00000001     H   77388 77296B
 $$$2087F      2 0000E3D8 00000001     H   77527 77432B
 $$$2089B      1 0000E54C 00000001     X   77841 77848U
 $$$2090F      2 0000E56A 00000001     H   77891 77872B
 $$$2091F      2 0000E586 00000001     H   77939 77925B
 $$$2093       1 00000070 00000001 A   U   77970 77967  77969
 $$$2094F      2 0000E928 00000001     H   78590 78277B
 $$$2095B      1 0000E778 00000001     X   78099 78106U
 $$$2096F      2 0000E7FE 00000001     H   78281 78172B
 $$$2098F      2 0000E84C 00000001     H   78354 78301B
 $$$2099F      2 0000E84C 00000001     H   78350 78332B
 $$$2101B      4 0000E850 00000001     I   78367 78396
 $$$2101F      2 0000E872 00000001     H   78392 78367B 78395
 $$$2103E      2 0000E876 00000001     H   78403 78397
 $$$2103F      2 0000E8AC 00000001     H   78518 78399B
 $$$2104F      2 0000E88E 00000001     H   78443 78420B 78433B
 $$$2106F      2 0000E89A 00000001     H   78462 78453B
 $$$2107F      2 0000E8A8 00000001     H   78501 78477B
 $$$2108       6 0000ECBA 00000001     I   78491 78483X
 $$$2109       6 0000ECBA 00000001     I   78490 78491  78491
 $$$211F       2 00001DEC 00000001     H   14714 14705B
 $$$2110       1 00000170 00000001 A   U   78599 78596  78598
 $$$2111F      2 0000EB4E 00000001     H   79200 78785B 78825B
 $$$2112B      1 0000E95A 00000001     X   78659 78666U
 $$$2113F      2 0000E99A 00000001     H   78782 78730B
 $$$2116       6 0000ECC0 00000001     I   78876 78868X
 $$$2117       6 0000ECC0 00000001     I   78875 78876  78876
 $$$212F       2 00001DF8 00000001     H   14751 14727B
 $$$2124       6 0000ECC6 00000001     I   79032 79024X
 $$$2125       6 0000ECC6 00000001     I   79031 79032  79032
 $$$2128F      2 0000EB12 00000001     H   79121 79110B
 $$$2128S      2 0000EB00 00000001     H   79102 79120B
 $$$213        6 00001F56 00000001     I   14741 14733X
 $$$2130F      2 0000EB44 00000001     H   79158 79149B
 $$$2131       6 0000ECCC 00000001     I   79171 79163X
 $$$2132       6 0000ECCC 00000001     I   79170 79171  79171
 $$$2133       1 00000078 00000001 A   U   79209 79206  79208
 $$$2134F      2 0000EC10 00000001     H   79526 79406B 79460B
 $$$2135B      1 0000EB80 00000001     X   79248 79255U
 $$$2136F      2 0000EB9E 00000001     H   79314 79275B
 $$$2137F      2 0000EB9E 00000001     H   79310 79295B
 $$$2138F      2 0000EBFE 00000001     H   79477 79339B
 $$$2138S      2 0000EBA8 00000001     H   79332 79476B
 $$$214        6 00001F56 00000001     I   14740 14741  14741
 $$$2140F      2 0000EBC6 00000001     H   79385 79359B 79372B
 $$$2140S      2 0000EBB0 00000001     H   79350 79384B
 $$$2143F      2 0000EBD4 00000001     H   79410 79394B
 $$$2144F      2 0000EBEC 00000001     H   79464 79448B
 $$$2144T      2 0000EBE6 00000001     H   79451 79436B
 $$$2146F      2 0000EC0E 00000001     H   79516 79504B
 $$$2146T      2 0000EC0C 00000001     H   79507 79492B
 $$$2148       1 00000070 00000001 A   U   79535 79532  79534
1AMELIA   Ordinary Symbol and Literal Cross Reference                                                                       Page  380
 $$$215F       2 00001E64 00000001     H   14935 14766B
 $$$2150B      1 0000ECF6 00000001     X   79620 79627U
 $$$2151F      2 0000ED26 00000001     H   79707 79677B 79692B
 $$$2151T      2 0000ED18 00000001     H   79695 79650B 79664B
 $$$2155B      4 0000ED2C 00000001     I   79720 79755
 $$$2155F      2 0000ED5A 00000001     H   79752 79720B 79754
 $$$2156E      2 0000ED5E 00000001     H   79762 79756
 $$$2156F      2 0000ED68 00000001     H   79769 79758B
 $$$2157       1 00000070 00000001 A   U   79807 79804  79806
 $$$2159B      1 0000EDBC 00000001     X   79848 79855U
 $$$216B       4 00001E16 00000001     I   14798 14852
 $$$216F       2 00001E34 00000001     H   14846 14798B 14851
 $$$2160F      2 0000EDD4 00000001     H   79903 79890B
 $$$2160T      2 0000EDCA 00000001     H   79893 79878B
 $$$2163       1 00000070 00000001 A   U   79960 79957  79959
 $$$2165B      1 0000EE52 00000001     X   79997 80004U
 $$$2166F      2 0000EE8E 00000001     H   80069 80028B
 $$$2167F      2 0000EE76 00000001     H   80057 80044B
 $$$2169F      2 0000EEA2 00000001     H   80095 80082B
 $$$217E       2 00001E38 00000001     H   14859 14853
 $$$217F       2 00001E5A 00000001     H   14906 14855B
 $$$2171F      2 0000EEC2 00000001     H   80124 80111B
 $$$2173       1 00000070 00000001 A   U   80174 80171  80173
 $$$2175B      1 0000EF0C 00000001     X   80260 80267U
 $$$2176F      2 0000EF28 00000001     H   80320 80293B 80306B
 $$$2176S      2 0000EF12 00000001     H   80285 80319B
 $$$2179       1 00000060 00000001 A   U   80338 80335  80337
 $$$218B       4 00001E94 00000001     I   15005 15021
 $$$218F       2 00001E9E 00000001     H   15017 15005B 15020
 $$$2181B      1 0000EF46 00000001     X   80372 80379U
 $$$2182F      2 0000EF5E 00000001     H   80427 80401B 80414B
 $$$2182S      2 0000EF46 00000001     H   80393 80426B
 $$$2185F      2 0000EF7A 00000001     H   80473 80446B 80459B
 $$$2185S      2 0000EF64 00000001     H   80438 80472B
 $$$2188       1 00000060 00000001 A   U   80491 80488  80490
 $$$219E       2 00001EA2 00000001     H   15028 15022
 $$$219F       2 00001EB2 00000001     H   15052 15024B 15040B
 $$$2190B      1 0000EF98 00000001     X   80522 80529U
 $$$2191       1 00000060 00000001 A   U   80580 80577  80579
 $$$2193B      1 0000EFE6 00000001     X   80610 80617U
 $$$2194       1 00000060 00000001 A   U   80676 80673  80675
 $$$2196B      1 0000F04C 00000001     X   80707 80714U
 $$$2198       1 00000094 00000001 A   U   80799 80796  80798
 $$$2199F      2 0000F112 00000001     H   80898 80872B
 $$$22F        2 00000420 00000001     H    8125  8115B
 $$$2200B      1 0000F0C8 00000001     X   80834 80841U
 $$$2202       1 00000094 00000001 A   U   80907 80904  80906
 $$$2204B      1 0000F134 00000001     X   80940 80947U
 $$$2205F      2 0000F16E 00000001     H   81012 81000B
 $$$2206B      4 0000F172 00000001     I   81020 81033
 $$$2206F      2 0000F17C 00000001     H   81030 81020B 81032
 $$$2207E      2 0000F180 00000001     H   81040 81034
 $$$2207F      2 0000F186 00000001     H   81047 81036B
 $$$2208       6 0000FA8A 00000001     I   81061 81053X
 $$$2209       6 0000FA8A 00000001     I   81060 81061  81061
 $$$221F       2 00001ECC 00000001     H   15093 15077B
 $$$2210       1 00000094 00000001 A   U   81096 81093  81095
 $$$2212B      1 0000F1C4 00000001     X   81161 81168U
 $$$2213F      2 0000F1DC 00000001     H   81222 81212B
1AMELIA   Ordinary Symbol and Literal Cross Reference                                                                       Page  381
 $$$2213T      2 0000F1D4 00000001     H   81215 81201B
 $$$2215F      2 0000F294 00000001     H   81474 81251B
 $$$2215S      2 0000F1EC 00000001     H   81245 81473B
 $$$2217B      4 0000F1FA 00000001     I   81268 81284
 $$$2217F      2 0000F20E 00000001     H   81281 81268B 81283
 $$$2219E      2 0000F212 00000001     H   81291 81285
 $$$2219F      2 0000F220 00000001     H   81299 81287B
 $$$222        1 000000B4 00000001 A   U   15126 15123  15125
 $$$2221F      2 0000F252 00000001     H   81381 81336B
 $$$2225F      2 0000F280 00000001     H   81463 81418B
 $$$2228       1 00000068 00000001 A   U   81506 81503  81505
 $$$223F       2 0000205E 00000001     H   15539 15281B 15302B 15340B
 $$$2230B      1 0000F2C4 00000001     X   81547 81554U
 $$$2231F      2 0000F2E0 00000001     H   81608 81586B 81597B
 $$$2233F      2 0000F31C 00000001     H   81652 81642B
 $$$2234F      2 0000F354 00000001     H   81741 81728B
 $$$2234T      2 0000F352 00000001     H   81731 81716B
 $$$2236F      2 0000F3DE 00000001     H   81933 81772B 81786B
 $$$2238F      2 0000F3DE 00000001     H   81929 81823B
 $$$2238T      2 0000F39C 00000001     H   81826 81811B
 $$$224B       1 00001F80 00000001     X   15196 15203U
 $$$2240F      2 0000F3B4 00000001     H   81853 81843B
 $$$2241F      2 0000F3DE 00000001     H   81925 81902B 81916B
 $$$2241T      2 0000F3D8 00000001     H   81919 81888B
 $$$2242F      2 0000F3C8 00000001     H   81891 81872B
 $$$2245       1 00000094 00000001 A   U   81973 81970  81972
 $$$2247B      1 0000F42A 00000001     X   82013 82020U
 $$$2248       1 00000060 00000001 A   U   82085 82082  82084
 $$$2250B      1 0000F482 00000001     X   82125 82132U
 $$$2251       1 0000000C 00000001 A   U   82163 83550
 $$$2252B      4 0000F4C8 00000001     I   82186 82214
 $$$2252F      2 0000F4D2 00000001     H   82211 82186B 82213
 $$$2253E      2 0000F4D6 00000001     H   82221 82215
 $$$2253F      2 0000F4DC 00000001     H   82243 82217B
 $$$2254       1 00000060 00000001 A   U   82261 82258  82260
 $$$2256B      1 0000F4FA 00000001     X   82299 82306U
 $$$2257       1 00000060 00000001 A   U   82435 82432  82434
 $$$2259B      1 0000F56C 00000001     X   82473 82480U
 $$$2261F      2 0000F5B0 00000001     H   82570 82539B
 $$$2262F      2 0000F5B0 00000001     H   82566 82556B
 $$$2263F      2 0000F5D0 00000001     H   82596 82584B
 $$$2263S      2 0000F5B8 00000001     H   82579 82595B
 $$$2265       1 00000060 00000001 A   U   82678 82675  82677
 $$$2267B      1 0000F632 00000001     X   82718 82725U
 $$$2268F      2 0000F646 00000001     H   82767 82745B 82756B
 $$$227F       2 00001FC4 00000001     H   15343 15323B
 $$$2270       1 00000060 00000001 A   U   82833 82830  82832
 $$$2272B      1 0000F6FA 00000001     X   82880 82887U
 $$$2274       1 00000060 00000001 A   U   82966 82963  82965
 $$$2276B      1 0000F744 00000001     X   83005 83012U
 $$$2277F      2 0000F758 00000001     H   83054 83032B 83043B
 $$$2279       1 00000060 00000001 A   U   83129 83126  83128
 $$$2281B      1 0000F7C0 00000001     X   83169 83176U
 $$$2282F      2 0000F822 00000001     H   83278 83228B
 $$$2283F      2 0000F81C 00000001     H   83256 83244B
 $$$2284F      2 0000F822 00000001     H   83274 83263B
 $$$2285F      2 0000F834 00000001     H   83301 83291B
 $$$2286F      2 0000F854 00000001     H   83326 83314B
 $$$2286S      2 0000F83C 00000001     H   83309 83325B
1AMELIA   Ordinary Symbol and Literal Cross Reference                                                                       Page  382
 $$$2288       1 00000094 00000001 A   U   83362 83359  83361
 $$$229F       2 00001FF0 00000001     H   15404 15380B 15393B
 $$$2290B      1 0000F896 00000001     X   83394 83401U
 $$$2291       1 00000094 00000001 A   U   83481 83478  83480
 $$$2293B      1 0000FAA0 00000001     X   83614 83621U
 $$$2294       6 00010114 00000001     I   83677 83669X
 $$$2295       6 00010114 00000001     I   83676 83677  83677
 $$$2296       1 0000006C 00000001 A   U   83716 83713  83715
 $$$2297F      2 0000FB74 00000001     H   83900 83889B
 $$$2298B      1 0000FB1A 00000001     X   83758 83765U
 $$$23F        2 00000440 00000001     H    8168  8137B
 $$$2300F      2 0000FB32 00000001     H   83825 83807B
 $$$2302F      2 0000FB6C 00000001     H   83885 83848B
 $$$2302S      2 0000FB40 00000001     H   83842 83884B
 $$$2304F      2 0000FB5E 00000001     H   83876 83862B
 $$$2305       1 00000060 00000001 A   U   83909 83906  83908
 $$$2307B      1 0000FB94 00000001     X   83944 83951U
 $$$2308       1 00000060 00000001 A   U   84010 84007  84009
 $$$231F       2 0000205E 00000001     H   15515 15423B
 $$$2310B      1 0000FBDE 00000001     X   84047 84054U
 $$$2311       1 00000060 00000001 A   U   84098 84095  84097
 $$$2313B      1 0000FC26 00000001     X   84135 84142U
 $$$2314       1 00000060 00000001 A   U   84186 84183  84185
 $$$2316B      1 0000FC6E 00000001     X   84223 84230U
 $$$2317       1 00000060 00000001 A   U   84285 84282  84284
 $$$2319B      1 0000FCBE 00000001     X   84322 84329U
 $$$232F       2 0000201C 00000001     H   15455 15437B
 $$$2320B      4 0000FCD8 00000001     I   84374 84388
 $$$2320F      2 0000FCEA 00000001     H   84385 84374B 84387
 $$$2321E      2 0000FCEE 00000001     H   84395 84389
 $$$2321F      2 0000FCF0 00000001     H   84405 84391B
 $$$2322       1 00000060 00000001 A   U   84428 84425  84427
 $$$2324B      1 0000FD22 00000001     X   84473 84480U
 $$$2325F      2 0000FD4E 00000001     H   84567 84512B
 $$$2326F      2 0000FD48 00000001     H   84561 84536B 84549B
 $$$2326S      2 0000FD34 00000001     H   84527 84560B
 $$$2329       1 00000070 00000001 A   U   84591 84588  84590
 $$$233F       2 0000205E 00000001     H   15511 15470B
 $$$2331B      1 0000FD84 00000001     X   84623 84630U
 $$$2332B      1 0000FD88 00000001     X   84659 84669U
 $$$2333F      2 0000FD98 00000001     H   84698 84688B
 $$$2335F      2 0000FE58 00000001     H   84930 84748B
 $$$2336F      2 0000FDD4 00000001     H   84780 84770B
 $$$2337F      2 0000FDE2 00000001     H   84803 84793B
 $$$2338F      2 0000FE3C 00000001     H   84904 84813B
 $$$2339F      2 0000FE18 00000001     H   84871 84839B 84858B
 $$$234        1 00000070 00000001 A   U   15548 15545  15547
 $$$2341F      2 0000FE2E 00000001     H   84895 84884B
 $$$2343F      2 0000FE7E 00000001     H   84967 84957B
 $$$2344       1 00000070 00000001 A   U   84995 84992  84994
 $$$2346B      1 0000FEB0 00000001     X   85036 85043U
 $$$2347F      2 0000FEC0 00000001     H   85090 85080B
 $$$2348F      2 0000FECC 00000001     H   85108 85098B
 $$$2349       1 00000060 00000001 A   U   85146 85143  85145
 $$$235F       2 000021DE 00000001     H   16069 15685B
 $$$2351B      1 0000FF06 00000001     X   85186 85193U
 $$$2352F      2 0000FF2A 00000001     H   85266 85231B
 $$$2352S      2 0000FF0A 00000001     H   85222 85265B
 $$$2354       1 00000060 00000001 A   U   85314 85311  85313
1AMELIA   Ordinary Symbol and Literal Cross Reference                                                                       Page  383
 $$$2356B      1 0000FF6A 00000001     X   85354 85361U
 $$$2357F      2 0000FF7C 00000001     H   85411 85401B
 $$$2358       1 00000060 00000001 A   U   85446 85443  85445
 $$$236B       1 00002090 00000001     X   15614 15621U
 $$$2360B      1 0000FFC2 00000001     X   85521 85528U
 $$$2361       1 00000014 00000001 A   U   85584 86002
 $$$2362       1 00000060 00000001 A   U   85602 85599  85601
 $$$2364B      1 00010012 00000001     X   85642 85649U
 $$$2365       1 00000014 00000001 A   U   85705 86003
 $$$2366       1 00000060 00000001 A   U   85723 85720  85722
 $$$2368B      1 0001004E 00000001     X   85756 85763U
 $$$2369       1 00000070 00000001 A   U   85818 85815  85817
 $$$237F       2 000020C8 00000001     H   15689 15677B
 $$$2371B      1 00010082 00000001     X   85851 85858U
 $$$2372F      2 000100C8 00000001     H   85959 85885B
 $$$2372S      2 00010092 00000001     H   85878 85958B
 $$$2374F      2 000100C4 00000001     H   85954 85930B
 $$$2375       1 00000070 00000001 A   U   85977 85974  85976
 $$$238F       2 00002150 00000001     H   15877 15867B
 $$$238S       2 000020DE 00000001     H   15721 15876B
 $$$239F       2 000020F6 00000001     H   15745 15736B
 $$$24F        2 00000440 00000001     H    8164  8154B
 $$$240F       2 00002100 00000001     H   15765 15756B
 $$$242B       4 0000215E 00000001     I   15912 15936
 $$$242F       2 0000217A 00000001     H   15932 15912B 15935
 $$$243B       4 00002182 00000001     I   15955 15979
 $$$243E       2 0000217E 00000001     H   15943 15937
 $$$243F       2 0000219E 00000001     H   15975 15939B 15955B 15978
 $$$245B       4 000021A6 00000001     I   15998 16021
 $$$245E       2 000021A2 00000001     H   15986 15980
 $$$245F       2 000021C2 00000001     H   16018 15982B 15998B 16020
 $$$247E       2 000021C6 00000001     H   16028 16022
 $$$247F       2 000021DE 00000001     H   16045 16024B
 $$$248        1 00000094 00000001 A   U   16078 16075  16077
 $$$25B        1 000004A8 00000001     X    8234  8241U
 $$$250B       1 00002210 00000001     X   16140 16147U
 $$$251        1 00000090 00000001 A   U   16304 16301  16303
 $$$252F       2 000024CA 00000001     H   17106 16615B 16797B 16881B
 $$$253B       1 000022A4 00000001     X   16342 16349U
 $$$255F       2 000022FA 00000001     H   16520 16423B
 $$$257F       2 000022FA 00000001     H   16516 16468B
 $$$257S       2 000022D4 00000001     H   16462 16515B
 $$$259F       2 000022EC 00000001     H   16501 16483B
 $$$261F       2 0000234A 00000001     H   16619 16562B
 $$$261T       2 00002322 00000001     H   16565 16540B 16550B
 $$$264F       2 000023D0 00000001     H   16801 16656B
 $$$265F       2 00002426 00000001     H   16891 16838B
 $$$266F       2 00002422 00000001     H   16885 16873B
 $$$267B       4 00002434 00000001     I   16915 16943
 $$$267F       2 00002456 00000001     H   16939 16915B 16942
 $$$268B       4 0000245E 00000001     I   16962 16984
 $$$268E       2 0000245A 00000001     H   16950 16944
 $$$268F       2 00002474 00000001     H   16980 16946B 16962B 16983
 $$$270B       4 0000247C 00000001     I   17003 17030
 $$$270E       2 00002478 00000001     H   16991 16985
 $$$270F       2 0000249E 00000001     H   17027 16987B 17003B 17029
 $$$272E       2 000024A2 00000001     H   17037 17031
 $$$272F       2 000024BA 00000001     H   17054 17033B
 $$$273F       2 000024CA 00000001     H   17080 17067B
1AMELIA   Ordinary Symbol and Literal Cross Reference                                                                       Page  384
 $$$274        1 00000070 00000001 A   U   17115 17112  17114
 $$$275F       2 000026B4 00000001     H   17954 17184B 17245B 17382B 17455B 17531B 17591B 17697B
 $$$276B       1 000024FC 00000001     X   17154 17161U
 $$$279F       2 00002584 00000001     H   17390 17279B
 $$$280F       2 00002584 00000001     H   17386 17317B
 $$$281F       2 000025C6 00000001     H   17459 17407B
 $$$283F       2 00002606 00000001     H   17595 17566B
 $$$284F       2 00002636 00000001     H   17684 17621B 17673B
 $$$284S       2 0000260A 00000001     H   17615 17683B
 $$$286F       2 0000262E 00000001     H   17676 17641B 17656B
 $$$290B       4 00002650 00000001     I   17755 17884
 $$$290F       2 000026A2 00000001     H   17879 17723B 17755B 17881
 $$$290T       2 00002654 00000001     H   17758 17742B
 $$$291B       4 00002640 00000001     I   17723 17882
 $$$293F       2 0000266C 00000001     H   17790 17777B
 $$$294F       2 0000267C 00000001     H   17817 17804B
 $$$295F       2 0000268C 00000001     H   17844 17831B
 $$$296F       2 0000269C 00000001     H   17871 17858B
 $$$297E       2 000026A6 00000001     H   17891 17883  17885
 $$$297F       2 000026B4 00000001     H   17925 17887B
 $$$298F       2 000026B4 00000001     H   17915 17906B
 $$$299        1 00000070 00000001 A   U   17963 17960  17962
 $$$300F       2 000027DC 00000001     H   18372 18067B 18088B 18112B 18314B
 $$$301B       1 000026E6 00000001     X   18004 18011U
 $$$305F       2 000027C4 00000001     H   18322 18132B
 $$$306F       2 000027C4 00000001     H   18318 18201B
 $$$307F       2 000027DC 00000001     H   18353 18339B
 $$$308        1 00000070 00000001 A   U   18381 18378  18380
 $$$309F       2 00002970 00000001     H   18968 18807B
 $$$310B       1 0000280E 00000001     X   18460 18467U
 $$$311F       2 00002858 00000001     H   18618 18535B 18564B 18593B 18608B
 $$$311S       2 00002826 00000001     H   18522 18550B 18579B 18617B
 $$$318F       2 000028B6 00000001     H   18714 18704B
 $$$318S       2 00002898 00000001     H   18668 18713B
 $$$319F       2 000028B2 00000001     H   18707 18687B
 $$$321F       2 00002902 00000001     H   18836 18825B
 $$$321S       2 000028B8 00000001     H   18726 18835B
 $$$322F       2 000028EE 00000001     H   18811 18786B 18799B
 $$$322T       2 000028E6 00000001     H   18802 18745B 18760B 18774B
 $$$328F       2 00002966 00000001     H   18938 18877B
 $$$328S       2 0000292C 00000001     H   18871 18937B
 $$$330B       4 0000294E 00000001     I   18899 18912
 $$$330F       2 00002956 00000001     H   18909 18899B 18911
 $$$331E       2 0000295A 00000001     H   18919 18913
 $$$331F       2 0000295C 00000001     H   18929 18915B
 $$$332        1 00000070 00000001 A   U   18977 18974  18976
 $$$334B       1 000029A2 00000001     X   19014 19021U
 $$$335F       2 000029D6 00000001     H   19099 19061B
 $$$335S       2 000029A6 00000001     H   19048 19082B 19098B
 $$$338        1 00000070 00000001 A   U   19122 19119  19121
 $$$340B       1 00002B62 00000001     X   19231 19238U
 $$$341F       2 00002C26 00000001     H   19483 19267B
 $$$341S       2 00002B70 00000001     H   19260 19482B
 $$$343F       2 00002C1E 00000001     H   19477 19279B
 $$$344F       2 00002B98 00000001     H   19314 19304B
 $$$344T       2 00002B90 00000001     H   19307 19296B
 $$$346F       2 00002BFC 00000001     H   19446 19326B
 $$$347F       2 00002BC2 00000001     H   19370 19360B
 $$$347T       2 00002BBA 00000001     H   19363 19347B
1AMELIA   Ordinary Symbol and Literal Cross Reference                                                                       Page  385
 $$$349F       2 00002BFC 00000001     H   19442 19406B 19419B 19432B
 $$$349T       2 00002BF4 00000001     H   19435 19394B
 $$$353F       2 00002C14 00000001     H   19470 19460B
 $$$354F       2 00002D0C 00000001     H   19829 19499B
 $$$355F       2 00002C64 00000001     H   19569 19560B
 $$$356F       2 00002CB2 00000001     H   19702 19665B
 $$$357F       2 00002CE4 00000001     H   19769 19760B
 $$$358F       2 00002D0C 00000001     H   19820 19805B
 $$$359        1 00000070 00000001 A   U   19847 19844  19846
 $$$360F       2 00002FEE 00000001     H   20383 20064B 20142B 20245B
 $$$361B       1 00002E90 00000001     X   19931 19938U
 $$$362        6 00003984 00000001     I   19979 19971X
 $$$363        6 00003984 00000001     I   19978 19979  19979
 $$$365F       2 00002ED0 00000001     H   20068 20056B
 $$$366F       2 00002F04 00000001     H   20152 20082B
 $$$366S       2 00002ED4 00000001     H   20076 20151B
 $$$368F       2 00002EFC 00000001     H   20146 20119B 20134B
 $$$369T       2 00002EEA 00000001     H   20124 20106B
 $$$371F       2 00002F2E 00000001     H   20181 20171B
 $$$372F       2 00002F52 00000001     H   20225 20203B 20216B
 $$$379        1 000000FC 00000001 A   U   20392 20389  20391
 $$$380F       2 0000305E 00000001     H   20544 20524B
 $$$381B       1 00003020 00000001     X   20432 20439U
 $$$382F       2 0000305A 00000001     H   20534 20460B
 $$$382S       2 00003024 00000001     H   20454 20533B
 $$$384F       2 00003052 00000001     H   20528 20480B 20494B 20509B
 $$$387        1 00000070 00000001 A   U   20553 20550  20552
 $$$388F       2 0000352A 00000001     H   22223 22008B
 $$$389B       1 00003090 00000001     X   20639 20646U
 $$$390        6 0000398A 00000001     I   20689 20681X
 $$$391        6 0000398A 00000001     I   20688 20689  20689
 $$$392F       2 0000310A 00000001     H   20862 20744B
 $$$393B       4 000030D2 00000001     I   20772 20844
 $$$393F       2 000030FC 00000001     H   20839 20761B 20772B 20841
 $$$394B       4 000030CC 00000001     I   20761 20842
 $$$395F       2 000030EA 00000001     H   20797 20788B
 $$$396F       2 000030F6 00000001     H   20834 20810B
 $$$397        6 00003990 00000001     I   20824 20816X
 $$$398        6 00003990 00000001     I   20823 20824  20824
 $$$399E       2 00003100 00000001     H   20851 20843  20845
 $$$399F       2 00003106 00000001     H   20857 20847B
 $$$40F        2 0000084E 00000001     H    8740  8684B
 $$$400F       2 0000311E 00000001     H   20887 20877B
 $$$401B       4 00003124 00000001     I   20904 21096
 $$$401F       2 000031A2 00000001     H   21092 20904B 21095
 $$$402F       2 00003138 00000001     H   20930 20920B
 $$$403F       2 000031A2 00000001     H   21088 21083B
 $$$403S       2 0000313C 00000001     H   20936 21073B 21087B
 $$$404F       2 0000314C 00000001     H   20963 20953B
 $$$405F       2 0000315E 00000001     H   20986 20976B
 $$$406F       2 0000318C 00000001     H   21061 20999B 21037B 21050B
 $$$406S       2 00003162 00000001     H   20993 21060B
 $$$408F       2 00003184 00000001     H   21053 21018B
 $$$41F        2 00000836 00000001     H    8713  8703B
 $$$412E       2 000031A6 00000001     H   21103 21097
 $$$412F       2 00003208 00000001     H   21248 21099B
 $$$413F       2 000031F4 00000001     H   21223 21117B 21186B 21199B 21212B
 $$$413S       2 000031AA 00000001     H   21111 21222B
 $$$415F       2 000031EC 00000001     H   21215 21137B 21167B
1AMELIA   Ordinary Symbol and Literal Cross Reference                                                                       Page  386
 $$$417T       2 000031CE 00000001     H   21172 21156B
 $$$42B        1 000009FA 00000001     X    9131  9138U
 $$$421F       2 00003204 00000001     H   21243 21233B
 $$$422F       2 00003242 00000001     H   21285 21275B
 $$$423F       2 00003252 00000001     H   21303 21293B
 $$$424F       2 0000325E 00000001     H   21329 21314B
 $$$425F       2 0000327E 00000001     H   21372 21350B 21363B
 $$$427B       4 000032A0 00000001     I   21403 21438
 $$$427F       2 000032B4 00000001     H   21435 21403B 21437
 $$$428F       2 000032B0 00000001     H   21430 21420B
 $$$429E       2 000032B8 00000001     H   21445 21439
 $$$429F       2 000032BE 00000001     H   21454 21441B
 $$$43F        2 00000B1E 00000001     H    9311  9295B
 $$$430F       2 0000331E 00000001     H   21594 21467B 21542B
 $$$431        6 00003996 00000001     I   21512 21504X
 $$$432        6 00003996 00000001     I   21511 21512  21512
 $$$434B       4 0000330A 00000001     I   21560 21572
 $$$434F       2 00003314 00000001     H   21569 21560B 21571
 $$$435E       2 00003318 00000001     H   21579 21573
 $$$435F       2 0000331E 00000001     H   21585 21575B
 $$$436F       2 00003336 00000001     H   21621 21607B
 $$$437B       4 000033DA 00000001     I   21871 21908
 $$$437F       2 000033F8 00000001     H   21904 21871B 21907
 $$$438B       4 00003400 00000001     I   21924 21944
 $$$438E       2 000033FC 00000001     H   21915 21909
 $$$438F       2 00003412 00000001     H   21940 21911B 21924B 21943
 $$$44F        2 00000B46 00000001     H    9348  9335B
 $$$440E       2 00003416 00000001     H   21951 21945
 $$$440F       2 0000343C 00000001     H   22001 21947B 21962B 21975B 21988B
 $$$451        1 0000012C 00000001 A   U   22232 22229  22231
 $$$452F       2 0000362E 00000001     H   22620 22312B 22334B 22534B 22554B
 $$$453B       1 0000355C 00000001     X   22269 22276U
 $$$456F       2 00003604 00000001     H   22558 22367B
 $$$457B       4 0000358C 00000001     I   22385 22401
 $$$457F       2 00003598 00000001     H   22397 22385B 22400
 $$$458B       4 000035A0 00000001     I   22418 22434
 $$$458E       2 0000359C 00000001     H   22408 22402
 $$$458F       2 000035AC 00000001     H   22430 22404B 22418B 22433
 $$$46F        2 00000B5E 00000001     H    9388  9375B
 $$$460B       4 000035B4 00000001     I   22450 22466
 $$$460E       2 000035B0 00000001     H   22441 22435
 $$$460F       2 000035C0 00000001     H   22462 22437B 22450B 22465
 $$$462B       4 000035C8 00000001     I   22484 22499
 $$$462E       2 000035C4 00000001     H   22473 22467
 $$$462F       2 000035D4 00000001     H   22496 22469B 22484B 22498
 $$$464E       2 000035D8 00000001     H   22506 22500
 $$$464F       2 000035FA 00000001     H   22546 22502B
 $$$465F       2 000035F2 00000001     H   22538 22521B
 $$$466F       2 0000362E 00000001     H   22606 22580B 22593B
 $$$468        1 00000070 00000001 A   U   22629 22626  22628
 $$$469F       2 0000370A 00000001     H   22936 22706B 22747B 22774B
 $$$470B       1 00003660 00000001     X   22669 22676U
 $$$471F       2 00003674 00000001     H   22710 22698B
 $$$472F       2 00003686 00000001     H   22751 22739B
 $$$473F       2 00003696 00000001     H   22778 22766B
 $$$474F       2 000036AC 00000001     H   22804 22794B
 $$$475F       2 00003708 00000001     H   22918 22828B 22850B
 $$$475S       2 000036AC 00000001     H   22810 22917B
 $$$478F       2 000036EA 00000001     H   22886 22876B
1AMELIA   Ordinary Symbol and Literal Cross Reference                                                                       Page  387
 $$$479F       2 00003700 00000001     H   22912 22901B
 $$$479S       2 000036EE 00000001     H   22893 22911B
 $$$48F        2 00000C1E 00000001     H    9612  9599B
 $$$481        1 00000070 00000001 A   U   22945 22942  22944
 $$$483B       1 000039C0 00000001     X   23059 23066U
 $$$484B       4 000039DC 00000001     I   23134 23150
 $$$484F       2 000039E4 00000001     H   23143 23104B 23119B 23134B 23145
 $$$484T       2 000039E0 00000001     H   23137 23089B
 $$$486B       4 000039CC 00000001     I   23104 23146
 $$$487B       4 000039D4 00000001     I   23119 23148
 $$$488E       2 000039E8 00000001     H   23157 23147  23149  23151
 $$$488F       2 000039F6 00000001     H   23174 23153B
 $$$489        1 00000070 00000001 A   U   23192 23189  23191
 $$$490F       2 00003A8E 00000001     H   23432 23336B
 $$$491B       1 00003A28 00000001     X   23236 23243U
 $$$492F       2 00003A5C 00000001     H   23340 23314B 23328B
 $$$492T       2 00003A54 00000001     H   23331 23302B
 $$$493F       2 00003A44 00000001     H   23305 23270B 23285B
 $$$497F       2 00003A86 00000001     H   23414 23364B
 $$$497S       2 00003A68 00000001     H   23358 23413B
 $$$499F       2 00003A7E 00000001     H   23403 23394B
 $$$50F        2 00000C3C 00000001     H    9652  9626B  9639B
 $$$500        1 00000070 00000001 A   U   23441 23438  23440
 $$$501F       2 00003BEA 00000001     H   23916 23539B 23583B 23633B
 $$$502B       1 00003AC0 00000001     X   23483 23490U
 $$$503F       2 00003AD4 00000001     H   23543 23528B
 $$$503T       2 00003ACE 00000001     H   23531 23515B
 $$$505F       2 00003AEC 00000001     H   23587 23560B 23575B
 $$$507F       2 00003B28 00000001     H   23637 23607B
 $$$508F       2 00003B3E 00000001     H   23679 23668B
 $$$508S       2 00003B2C 00000001     H   23660 23678B
 $$$510F       2 00003BDA 00000001     H   23872 23765B 23777B
 $$$512F       2 00003BDA 00000001     H   23868 23796B
 $$$513F       2 00003BE8 00000001     H   23896 23884B
 $$$514        1 00000070 00000001 A   U   23925 23922  23924
 $$$515F       2 00003C5E 00000001     H   24112 24007B 24082B
 $$$516B       1 00003C1C 00000001     X   23964 23971U
 $$$517F       2 00003C2A 00000001     H   24011 23996B
 $$$518B       4 00003C2E 00000001     I   24026 24039
 $$$518F       2 00003C36 00000001     H   24035 24026B 24038
 $$$519B       4 00003C3E 00000001     I   24058 24070
 $$$519E       2 00003C3A 00000001     H   24046 24040
 $$$519F       2 00003C46 00000001     H   24067 24042B 24058B 24069
 $$$521E       2 00003C4A 00000001     H   24077 24071
 $$$521F       2 00003C52 00000001     H   24086 24073B
 $$$522        1 00000070 00000001 A   U   24121 24118  24120
 $$$524B       1 00003C90 00000001     X   24155 24162U
 $$$525F       2 00003CFC 00000001     H   24305 24189B 24204B 24219B 24234B
 $$$529        1 00000070 00000001 A   U   24333 24330  24332
 $$$53F        2 00000CCA 00000001     H    9790  9748B
 $$$53S        2 00000CA4 00000001     H    9742  9789B
 $$$531B       1 00003D3A 00000001     X   24369 24376U
 $$$532F       2 00003D50 00000001     H   24427 24415B
 $$$532T       2 00003D4A 00000001     H   24418 24402B
 $$$534F       2 00003D5E 00000001     H   24451 24439B
 $$$535B       4 00003D78 00000001     I   24492 24512
 $$$535F       2 00003D84 00000001     H   24508 24492B 24511
 $$$535T       2 00003D7C 00000001     H   24495 24479B
 $$$537B       4 00003DA4 00000001     I   24578 24593
1AMELIA   Ordinary Symbol and Literal Cross Reference                                                                       Page  388
 $$$537E       2 00003D88 00000001     H   24519 24513
 $$$537F       2 00003DAA 00000001     H   24590 24515B 24578B 24592
 $$$537T       2 00003DA8 00000001     H   24581 24535B 24550B 24565B
 $$$542E       2 00003DAE 00000001     H   24600 24594
 $$$542F       2 00003DB2 00000001     H   24606 24596B
 $$$543        1 00000070 00000001 A   U   24625 24622  24624
 $$$545B       1 00003DE4 00000001     X   24663 24670U
 $$$546        1 00000070 00000001 A   U   24706 24703  24705
 $$$548B       1 00003E2A 00000001     X   24740 24747U
 $$$549F       2 00003E36 00000001     H   24783 24769B
 $$$55S        2 00000CFE 00000001     H    9863 10123B
 $$$550        1 00000070 00000001 A   U   24805 24802  24804
 $$$552B       1 00003E6A 00000001     X   24839 24846U
 $$$553        1 00000070 00000001 A   U   24887 24884  24886
 $$$554F       2 000049A2 00000001     H   28789 25263B
 $$$555B       1 00003F58 00000001     X   25002 25009U
 $$$556F       2 00004024 00000001     H   25272 25087B
 $$$557F       2 00004020 00000001     H   25267 25150B
 $$$56F        2 00000D30 00000001     H    9908  9896B
 $$$560F       2 00004054 00000001     H   25337 25325B
 $$$561F       2 00004060 00000001     H   25360 25348B
 $$$562F       2 0000408A 00000001     H   25415 25378B 25392B 25406B
 $$$565F       2 000040F0 00000001     H   25528 25450B 25517B
 $$$565S       2 000040BC 00000001     H   25444 25527B
 $$$567F       2 000040E8 00000001     H   25520 25470B 25485B 25500B
 $$$571F       2 0000415A 00000001     H   25721 25543B
 $$$572F       2 0000415A 00000001     H   25717 25566B 25671B 25686B
 $$$572S       2 000040FC 00000001     H   25558 25612B 25633B 25716B
 $$$574F       2 0000411A 00000001     H   25596 25583B
 $$$578F       2 0000414A 00000001     H   25689 25654B
 $$$58F        2 00000D3C 00000001     H    9931  9921B
 $$$581F       2 00004156 00000001     H   25712 25703B
 $$$582F       2 00004166 00000001     H   25752 25736B
 $$$584F       2 000042FC 00000001     H   26279 25784B
 $$$584T       2 00004174 00000001     H   25787 25771B
 $$$589F       2 00004272 00000001     H   26158 25856B
 $$$590F       2 000041C4 00000001     H   25946 25884B
 $$$590S       2 0000419A 00000001     H   25878 25945B
 $$$592F       2 000041AE 00000001     H   25914 25902B
 $$$593F       2 000041BC 00000001     H   25940 25928B
 $$$594F       2 00004208 00000001     H   26049 25959B 25971B
 $$$596F       2 00004240 00000001     H   26130 26062B
 $$$597F       2 000042DE 00000001     H   26242 26199B
 $$$598F       2 000042F8 00000001     H   26271 26256B
 $$$599F       2 00004372 00000001     H   26425 26295B
 $$$60F        2 00000D4A 00000001     H    9956  9944B
 $$$600B       4 00004328 00000001     I   26353 26380
 $$$600F       2 00004344 00000001     H   26373 26329B 26342B 26353B 26375
 $$$601B       4 00004318 00000001     I   26329 26376
 $$$602B       4 00004322 00000001     I   26342 26378
 $$$603E       2 00004348 00000001     H   26387 26377  26379  26381
 $$$603F       2 00004360 00000001     H   26404 26383B
 $$$604F       2 000043A0 00000001     H   26487 26441B
 $$$605F       2 000043A0 00000001     H   26483 26461B
 $$$606F       2 00004424 00000001     H   26699 26507B
 $$$607F       2 000043C4 00000001     H   26572 26526B
 $$$610F       2 000043E6 00000001     H   26624 26589B
 $$$613F       2 000043FE 00000001     H   26674 26665B
 $$$614F       2 0000445E 00000001     H   26750 26720B
1AMELIA   Ordinary Symbol and Literal Cross Reference                                                                       Page  389
 $$$615B       4 0000447A 00000001     I   26793 26833
 $$$615F       2 0000448A 00000001     H   26827 26778B 26793B 26830
 $$$616B       4 00004470 00000001     I   26778 26831
 $$$617F       2 0000448A 00000001     H   26823 26808B
 $$$618E       2 0000448E 00000001     H   26840 26832  26834
 $$$618F       2 000044AC 00000001     H   26899 26836B 26864B
 $$$618T       2 0000449C 00000001     H   26867 26852B
 $$$62F        2 00000D5A 00000001     H    9981  9969B
 $$$621F       2 000044A8 00000001     H   26894 26879B
 $$$622F       2 000044C6 00000001     H   26930 26913B
 $$$623F       2 000044F0 00000001     H   26987 26951B 26966B
 $$$626F       2 00004654 00000001     H   27556 27029B
 $$$627B       4 00004510 00000001     I   27064 27550
 $$$627F       2 00004654 00000001     H   27544 27049B 27064B 27547
 $$$628B       4 00004506 00000001     I   27049 27548
 $$$629F       2 000045D4 00000001     H   27351 27335B
 $$$63F        2 00000D8A 00000001     H   10077  9996B
 $$$630B       4 00004606 00000001     I   27438 27461
 $$$630F       2 00004626 00000001     H   27458 27438B 27460
 $$$631E       2 0000462A 00000001     H   27468 27462
 $$$631F       2 00004654 00000001     H   27504 27464B 27483B
 $$$634F       2 00004666 00000001     H   27588 27573B
 $$$635F       2 000046BC 00000001     H   27672 27605B
 $$$636F       2 000046BC 00000001     H   27668 27641B 27656B
 $$$636T       2 000046A4 00000001     H   27659 27630B
 $$$639F       2 00004738 00000001     H   27826 27688B
 $$$640F       2 00004734 00000001     H   27821 27706B
 $$$641F       2 000046F4 00000001     H   27771 27742B 27761B
 $$$641S       2 000046D8 00000001     H   27729 27770B
 $$$644F       2 0000474E 00000001     H   27869 27845B 27860B
 $$$646F       2 0000476A 00000001     H   27914 27886B 27901B
 $$$648F       2 0000478A 00000001     H   27960 27931B 27946B
 $$$65F        2 00000D8A 00000001     H   10073 10020B
 $$$65S        2 00000D6C 00000001     H   10014 10072B
 $$$650F       2 0000479C 00000001     H   27990 27975B
 $$$651F       2 000047B6 00000001     H   28019 28008B
 $$$652F       2 000047C0 00000001     H   28039 28029B
 $$$653F       2 000048D8 00000001     H   28485 28088B
 $$$653T       2 000047D8 00000001     H   28091 28060B 28075B
 $$$656F       2 000047E8 00000001     H   28115 28106B
 $$$657F       2 00004808 00000001     H   28152 28131B
 $$$658F       2 0000487C 00000001     H   28327 28163B
 $$$659F       2 00004826 00000001     H   28189 28180B
 $$$660        6 00004B4C 00000001     I   28202 28194X
 $$$661        6 00004B4C 00000001     I   28201 28202  28202
 $$$662F       2 000048D8 00000001     H   28481 28341B
 $$$663F       2 000048BA 00000001     H   28427 28418B
 $$$664F       2 000048C6 00000001     H   28450 28441B
 $$$665F       2 000048D8 00000001     H   28477 28464B
 $$$666F       2 000048F4 00000001     H   28524 28504B
 $$$667F       2 00004920 00000001     H   28596 28540B
 $$$668F       2 00004920 00000001     H   28587 28570B
 $$$669F       2 0000493A 00000001     H   28630 28620B
 $$$67F        2 00000D86 00000001     H   10063 10051B
 $$$671B       4 00004958 00000001     I   28671 28697
 $$$671F       2 0000496C 00000001     H   28694 28671B 28696
 $$$672E       2 00004970 00000001     H   28704 28698
 $$$672F       2 00004984 00000001     H   28730 28700B
 $$$673        1 000000D4 00000001 A   U   28798 28795  28797
1AMELIA   Ordinary Symbol and Literal Cross Reference                                                                       Page  390
 $$$674F       2 000050E4 00000001     H   31029 28976B
 $$$675B       1 00004B76 00000001     X   28936 28943U
 $$$677F       2 00004B98 00000001     H   29031 28999B 29011B
 $$$68F        2 00000DB0 00000001     H   10119 10092B
 $$$680F       2 00004BC6 00000001     H   29110 29050B 29065B
 $$$682F       2 00004BC6 00000001     H   29106 29094B
 $$$683B       4 00004BCA 00000001     I   29122 29200
 $$$683F       2 00004BFC 00000001     H   29197 29122B 29199
 $$$684F       2 00004BE0 00000001     H   29150 29138B
 $$$685F       2 00004BEC 00000001     H   29173 29163B
 $$$686F       2 00004BF8 00000001     H   29192 29183B
 $$$687E       2 00004C00 00000001     H   29207 29201
 $$$687F       2 00004C48 00000001     H   29288 29203B
 $$$688F       2 00004C1C 00000001     H   29239 29227B
 $$$689F       2 00004C2C 00000001     H   29259 29250B
 $$$690F       2 00004C44 00000001     H   29283 29274B
 $$$691F       2 00004C56 00000001     H   29318 29303B
 $$$692F       2 00004CAE 00000001     H   29450 29335B 29367B
 $$$692S       2 00004C56 00000001     H   29327 29449B
 $$$695B       4 00004C76 00000001     I   29385 29402
 $$$695F       2 00004C88 00000001     H   29399 29385B 29401
 $$$696E       2 00004C8C 00000001     H   29409 29403
 $$$696F       2 00004CAA 00000001     H   29440 29405B
 $$$697F       2 00004CF4 00000001     H   29561 29465B
 $$$698F       2 00004CF4 00000001     H   29557 29484B
 $$$699F       2 00004D18 00000001     H   29631 29581B
 $$$699S       2 00004CFC 00000001     H   29575 29630B
 $$$701F       2 00004D10 00000001     H   29620 29611B
 $$$702F       2 00004D22 00000001     H   29657 29644B
 $$$703F       2 00004D40 00000001     H   29715 29672B 29686B 29701B
 $$$706F       2 00004D68 00000001     H   29767 29757B
 $$$707F       2 00004D7E 00000001     H   29807 29787B 29798B
 $$$709F       2 00004D9A 00000001     H   29836 29823B
 $$$71B        1 00000DDA 00000001     X   10166 10173U
 $$$710F       2 00004DC4 00000001     H   29904 29851B 29866B 29878B 29892B
 $$$714F       2 00004E20 00000001     H   30030 29941B 29952B
 $$$714S       2 00004DD8 00000001     H   29931 29973B 30029B
 $$$718F       2 00004E0A 00000001     H   30000 29990B
 $$$719F       2 00004E12 00000001     H   30020 30011B
 $$$72F        2 00000DF0 00000001     H   10211 10199B
 $$$720F       2 00004E5E 00000001     H   30091 30065B
 $$$721F       2 00004E7C 00000001     H   30149 30107B 30118B 30132B
 $$$724F       2 00004E88 00000001     H   30170 30161B
 $$$725F       2 00004EF2 00000001     H   30343 30194B
 $$$726F       2 00004EA6 00000001     H   30228 30213B
 $$$727F       2 00004EB2 00000001     H   30257 30242B
 $$$728F       2 00004EC0 00000001     H   30278 30269B
 $$$729F       2 00004EE4 00000001     H   30311 30296B
 $$$73F        2 00000E00 00000001     H   10236 10224B
 $$$730F       2 00004EF2 00000001     H   30339 30325B
 $$$731F       2 00004F20 00000001     H   30410 30359B 30387B
 $$$731T       2 00004F0A 00000001     H   30390 30375B
 $$$734F       2 00004F7C 00000001     H   30559 30425B
 $$$735B       4 00004F30 00000001     I   30441 30459
 $$$735F       2 00004F40 00000001     H   30456 30441B 30458
 $$$736E       2 00004F44 00000001     H   30466 30460
 $$$736F       2 00004F50 00000001     H   30478 30462B
 $$$737F       2 00004F7C 00000001     H   30555 30488B 30506B
 $$$739F       2 00004F76 00000001     H   30532 30523B
1AMELIA   Ordinary Symbol and Literal Cross Reference                                                                       Page  391
 $$$74F        2 00000E22 00000001     H   10265 10252B
 $$$740        6 00005172 00000001     I   30545 30537X
 $$$741        6 00005172 00000001     I   30544 30545  30545
 $$$742F       2 00004F9E 00000001     H   30604 30578B 30593B
 $$$744F       2 00004FDA 00000001     H   30661 30621B 30633B
 $$$746F       2 00004FEA 00000001     H   30690 30681B
 $$$747F       2 00005016 00000001     H   30739 30707B
 $$$748F       2 0000500A 00000001     H   30733 30723B
 $$$75         1 00000070 00000001 A   U   10284 10281  10283
 $$$750F       2 0000503A 00000001     H   30788 30778B
 $$$751F       2 0000505C 00000001     H   30842 30802B 30813B 30828B
 $$$754F       2 00005072 00000001     H   30885 30858B
 $$$756F       2 000050D0 00000001     H   30964 30925B
 $$$757F       2 000050E0 00000001     H   30998 30981B
 $$$759        1 00000638 00000001 A   U   31038 31035  31037
 $$$760F       2 00005204 00000001     H   31279 31151B 31224B
 $$$761B       1 0000519C 00000001     X   31120 31127U
 $$$763F       2 000051C0 00000001     H   31183 31174B
 $$$764F       2 000051E2 00000001     H   31232 31194B
 $$$765F       2 000051E2 00000001     H   31228 31209B
 $$$766F       2 00005204 00000001     H   31270 31257B
 $$$767        1 00000070 00000001 A   U   31288 31285  31287
 $$$768F       2 00005288 00000001     H   31428 31354B 31375B 31394B
 $$$769B       1 00005236 00000001     X   31324 31331U
 $$$77B        1 00000F74 00000001     X   10415 10422U
 $$$773        1 00000070 00000001 A   U   31437 31434  31436
 $$$774F       2 00005316 00000001     H   31654 31529B 31550B 31571B
 $$$775B       1 000052BA 00000001     X   31492 31499U
 $$$779        1 00000084 00000001 A   U   31663 31660  31662
 $$$78B        4 00001004 00000001     I   10549 10577
 $$$78F        2 00001012 00000001     H   10571 10549B 10576
 $$$781B       1 00005348 00000001     X   31725 31732U
 $$$782        1 00000090 00000001 A   U   31889 31886  31888
 $$$784B       1 000053DA 00000001     X   31926 31933U
 $$$785F       2 00005498 00000001     H   32049 32004B 32029B
 $$$787        1 00000070 00000001 A   U   32089 32086  32088
 $$$789B       1 000054EE 00000001     X   32123 32130U
 $$$79E        2 00001016 00000001     H   10584 10578
 $$$79F        2 0000105E 00000001     H   10667 10580B
 $$$790F       2 00005504 00000001     H   32160 32151B
 $$$791F       2 00005514 00000001     H   32183 32174B
 $$$792F       2 00005540 00000001     H   32237 32204B
 $$$793F       2 00005540 00000001     H   32233 32223B
 $$$794        1 00000070 00000001 A   U   32255 32252  32254
 $$$796B       1 00005572 00000001     X   32292 32299U
 $$$797F       2 000055EE 00000001     H   32529 32325B 32340B
 $$$799F       2 000055C6 00000001     H   32446 32355B
 $$$80F        2 0000102C 00000001     H   10608 10595B
 $$$800F       2 000055EE 00000001     H   32524 32463B 32478B 32493B 32508B
 $$$804        1 00000070 00000001 A   U   32571 32568  32570
 $$$806B       1 0000563A 00000001     X   32605 32612U
 $$$807        1 00000070 00000001 A   U   32643 32640  32642
 $$$808F       2 000056DE 00000001     H   32877 32717B
 $$$809B       1 00005676 00000001     X   32677 32684U
 $$$810F       2 00005688 00000001     H   32721 32706B
 $$$811F       2 000056DE 00000001     H   32868 32736B
 $$$812F       2 000056C6 00000001     H   32823 32751B
 $$$813F       2 000056DE 00000001     H   32864 32839B 32852B
 $$$815        1 00000070 00000001 A   U   32886 32883  32885
1AMELIA   Ordinary Symbol and Literal Cross Reference                                                                       Page  392
 $$$816F       2 00005756 00000001     H   33048 32962B
 $$$817B       1 00005710 00000001     X   32926 32933U
 $$$818F       2 00005724 00000001     H   32966 32953B
 $$$819B       4 00005738 00000001     I   33000 33015
 $$$819F       2 00005742 00000001     H   33012 33000B 33014
 $$$819T       2 0000573C 00000001     H   33003 32987B
 $$$82F        2 00001042 00000001     H   10632 10619B
 $$$821E       2 00005746 00000001     H   33022 33016
 $$$821F       2 00005754 00000001     H   33035 33018B
 $$$822        1 00000070 00000001 A   U   33057 33054  33056
 $$$824B       1 00005788 00000001     X   33091 33098U
 $$$825F       2 0000579C 00000001     H   33132 33119B
 $$$827F       2 000057BA 00000001     H   33161 33146B
 $$$827S       2 0000579C 00000001     H   33138 33160B
 $$$829F       2 000057D8 00000001     H   33204 33189B
 $$$829S       2 000057BA 00000001     H   33181 33203B
 $$$831F       2 000057F6 00000001     H   33234 33219B
 $$$831S       2 000057D8 00000001     H   33211 33233B
 $$$833F       2 00005814 00000001     H   33264 33249B
 $$$833S       2 000057F6 00000001     H   33241 33263B
 $$$835F       2 00005828 00000001     H   33290 33277B
 $$$836B       4 00005842 00000001     I   33325 33337
 $$$836F       2 0000584C 00000001     H   33334 33325B 33336
 $$$837E       2 00005850 00000001     H   33344 33338
 $$$837F       2 0000587E 00000001     H   33412 33340B
 $$$838F       2 0000587E 00000001     H   33408 33398B
 $$$838S       2 00005850 00000001     H   33351 33407B
 $$$839F       2 00005864 00000001     H   33377 33364B
 $$$84F        2 00001058 00000001     H   10656 10643B
 $$$841F       2 00005876 00000001     H   33402 33390B
 $$$842F       2 000058EC 00000001     H   33547 33426B
 $$$843B       4 000058B0 00000001     I   33456 33468
 $$$843F       2 000058BA 00000001     H   33465 33456B 33467
 $$$844E       2 000058BE 00000001     H   33475 33469
 $$$844F       2 000058EC 00000001     H   33543 33471B
 $$$845F       2 000058EC 00000001     H   33539 33529B
 $$$845S       2 000058BE 00000001     H   33482 33538B
 $$$846F       2 000058D2 00000001     H   33508 33495B
 $$$848F       2 000058E4 00000001     H   33533 33521B
 $$$849F       2 00005908 00000001     H   33577 33567B
 $$$849S       2 000058F8 00000001     H   33558 33576B
 $$$851        1 00000070 00000001 A   U   33602 33599  33601
 $$$853B       1 00005946 00000001     X   33641 33648U
 $$$854F       2 00005AA8 00000001     H   34173 33674B
 $$$854S       2 0000594C 00000001     H   33668 34172B
 $$$856F       2 00005976 00000001     H   33711 33695B
 $$$858F       2 00005996 00000001     H   33755 33723B
 $$$859F       2 00005992 00000001     H   33750 33740B
 $$$86         1 00000070 00000001 A   U   10686 10683  10685
 $$$860F       2 00005A02 00000001     H   33890 33770B 33790B 33811B
 $$$863F       2 00005A02 00000001     H   33886 33831B 33841B
 $$$865F       2 00005A46 00000001     H   34010 33905B 33925B 33946B 33967B
 $$$869F       2 00005A46 00000001     H   34006 33987B
 $$$87F        2 000010FA 00000001     H   10902 10780B 10827B 10870B
 $$$870F       2 00005AA4 00000001     H   34168 34024B 34044B 34065B
 $$$873B       4 00005A6C 00000001     I   34085 34105
 $$$873F       2 00005A7E 00000001     H   34101 34085B 34104
 $$$874E       2 00005A82 00000001     H   34112 34106
 $$$874F       2 00005AA4 00000001     H   34164 34108B 34123B
1AMELIA   Ordinary Symbol and Literal Cross Reference                                                                       Page  393
 $$$876F       2 00005AA4 00000001     H   34160 34142B
 $$$877        1 00000070 00000001 A   U   34191 34188  34190
 $$$879B       1 00005ADA 00000001     X   34235 34242U
 $$$88B        1 00001090 00000001     X   10727 10734U
 $$$880B       4 00005B00 00000001     I   34272 34284
 $$$880F       2 00005B08 00000001     H   34281 34272B 34283
 $$$881E       2 00005B0C 00000001     H   34291 34285
 $$$881F       2 00005B10 00000001     H   34297 34287B
 $$$882F       2 00005B1C 00000001     H   34318 34308B
 $$$883F       2 00005B2C 00000001     H   34338 34329B
 $$$884        1 00000070 00000001 A   U   34357 34354  34356
 $$$886B       1 00005B62 00000001     X   34397 34404U
 $$$887F       2 00005B90 00000001     H   34466 34441B 34455B
 $$$887S       2 00005B7A 00000001     H   34433 34465B
 $$$89F        2 000010A0 00000001     H   10784 10768B
 $$$890        1 00000070 00000001 A   U   34485 34482  34484
 $$$891F       2 00005C70 00000001     H   34804 34689B
 $$$892B       1 00005BC4 00000001     X   34522 34529U
 $$$893F       2 00005C2C 00000001     H   34697 34565B 34597B 34630B
 $$$894F       2 00005BEC 00000001     H   34600 34582B
 $$$896F       2 00005BFE 00000001     H   34633 34615B
 $$$898F       2 00005C2C 00000001     H   34693 34681B
 $$$899F       2 00005C42 00000001     H   34739 34728B
 $$$899S       2 00005C30 00000001     H   34720 34738B
 $$$901        1 00000070 00000001 A   U   34813 34810  34812
 $$$902F       2 00005D2C 00000001     H   35073 34875B 34894B 34912B
 $$$903B       1 00005CA2 00000001     X   34847 34854U
 $$$907F       2 00005D12 00000001     H   35021 34932B 35000B
 $$$907S       2 00005CBC 00000001     H   34924 35020B
 $$$910F       2 00005D2C 00000001     H   35063 35036B 35051B
 $$$912        1 00000070 00000001 A   U   35082 35079  35081
 $$$914B       1 00005D5E 00000001     X   35119 35126U
 $$$915F       2 00005DAC 00000001     H   35252 35148B
 $$$915S       2 00005D64 00000001     H   35142 35251B
 $$$917F       2 00005DA6 00000001     H   35246 35168B 35181B
 $$$919F       2 00005DA6 00000001     H   35242 35202B 35217B 35230B
 $$$92F        2 000010F4 00000001     H   10874 10861B
 $$$922        1 00000070 00000001 A   U   35270 35267  35269
 $$$924B       1 00005DDE 00000001     X   35309 35316U
 $$$925F       2 00005E08 00000001     H   35378 35338B
 $$$925S       2 00005DE4 00000001     H   35332 35377B
 $$$927F       2 00005E02 00000001     H   35372 35356B
 $$$928        1 00000070 00000001 A   U   35396 35393  35395
 $$$929F       2 00005E8C 00000001     H   35597 35469B
 $$$930B       1 00005E3A 00000001     X   35440 35447U
 $$$932F       2 00005E6A 00000001     H   35516 35506B
 $$$933F       2 00005E76 00000001     H   35553 35529B
 $$$934        6 0000607E 00000001     I   35543 35535X
 $$$935        6 0000607E 00000001     I   35542 35543  35543
 $$$936F       2 00005E88 00000001     H   35582 35569B
 $$$937        1 00000070 00000001 A   U   35606 35603  35605
 $$$939B       1 00005EBE 00000001     X   35655 35662U
 $$$94         1 00000070 00000001 A   U   10911 10908  10910
 $$$940F       2 00005ED8 00000001     H   35726 35696B 35715B
 $$$940S       2 00005EC2 00000001     H   35690 35725B
 $$$943F       2 00005EEA 00000001     H   35764 35742B
 $$$944        1 00000070 00000001 A   U   35790 35787  35789
 $$$945F       2 000060F8 00000001     H   35996 35964B
 $$$946B       1 000060A8 00000001     X   35894 35901U
1AMELIA   Ordinary Symbol and Literal Cross Reference                                                                       Page  394
 $$$947F       2 000060DC 00000001     H   35975 35928B 35942B
 $$$947S       2 000060B0 00000001     H   35922 35974B
 $$$95F        2 0000139C 00000001     H   11711 10975B 11167B 11554B 11602B 11636B 11666B 11697B
 $$$950F       2 000060D2 00000001     H   35968 35954B
 $$$951        1 00000070 00000001 A   U   36005 36002  36004
 $$$953B       1 00006130 00000001     X   36060 36067U
 $$$954F       2 00006160 00000001     H   36148 36100B 36132B
 $$$954S       2 0000614A 00000001     H   36094 36147B
 $$$957B       4 00006162 00000001     I   36159 36171
 $$$957F       2 0000616A 00000001     H   36168 36159B 36170
 $$$958E       2 0000616E 00000001     H   36178 36172
 $$$958F       2 00006170 00000001     H   36187 36174B
 $$$959        1 00000070 00000001 A   U   36207 36204  36206
 $$$96B        1 0000112C 00000001     X   10947 10954U
 $$$961B       1 000061A6 00000001     X   36247 36254U
 $$$962F       2 000061DE 00000001     H   36339 36287B
 $$$962S       2 000061C0 00000001     H   36281 36338B
 $$$964F       2 000061D6 00000001     H   36328 36317B
 $$$965F       2 00006222 00000001     H   36401 36392B
 $$$966F       2 0000623A 00000001     H   36441 36417B
 $$$967        6 000063CA 00000001     I   36431 36423X
 $$$968        6 000063CA 00000001     I   36430 36431  36431
 $$$969        1 00000070 00000001 A   U   36469 36466  36468
 $$$970F       2 00006300 00000001     H   36734 36571B 36679B
 $$$971B       1 00006274 00000001     X   36516 36523U
 $$$972F       2 00006294 00000001     H   36575 36547B
 $$$973F       2 000062B0 00000001     H   36622 36590B
 $$$974F       2 000062B0 00000001     H   36618 36609B
 $$$975F       2 000062DA 00000001     H   36683 36666B
 $$$975T       2 000062CA 00000001     H   36669 36655B
 $$$977F       2 000062F6 00000001     H   36713 36700B
 $$$978        1 00000070 00000001 A   U   36743 36740  36742
 $$$98F        2 0000132A 00000001     H   11540 10999B
 $$$980B       1 00006332 00000001     X   36780 36787U
 $$$981        1 00000070 00000001 A   U   36900 36897  36899
 $$$982F       2 00006606 00000001     H   37666 37099B 37502B
 $$$983B       1 000063F4 00000001     X   36968 36975U
 $$$984F       2 0000654C 00000001     H   37419 37012B
 $$$985F       2 00006424 00000001     H   37045 37036B
 $$$986F       2 0000645E 00000001     H   37107 37069B
 $$$987F       2 0000645E 00000001     H   37103 37086B
 $$$988F       2 00006474 00000001     H   37130 37121B
 $$$989F       2 000064CC 00000001     H   37214 37145B
 $$$990F       2 000064B4 00000001     H   37204 37166B
 $$$990S       2 00006490 00000001     H   37159 37203B
 $$$992F       2 000064FC 00000001     H   37274 37238B
 $$$992S       2 000064E0 00000001     H   37232 37273B
 $$$994F       2 000064F2 00000001     H   37264 37254B
 $$$995F       2 0000651A 00000001     H   37332 37292B 37320B
 $$$995T       2 00006518 00000001     H   37323 37309B
 $$$998F       2 0000654C 00000001     H   37415 37343B 37366B
 @RAR          0 00000000 FFFFFFF1     @    1162 83923  83984
 @R0           0 00000000 FFFFFFFF     @     776  1052U
 @R1           0 00000000 FFFFFFFE     @     789  1048U  8181U  8247M 10069U 10455  10481U 10493U 10505U 10517U 11101
                                                 11116M 11981  11996M 12150U 12352  12568U 12806  12821M 13296U 13346U
                                                 13730U 14087U 14329U 14901  15059U 15065  16052U 16482  16495  19978
                                                 20493  20674  20688  20823  21591U 22861M 22862M 22882M 23252  25438
                                                 26004U 26239U 26745  26746M 31402  31403  32066  32067M 33152  33296U
                                                 33314  33330M 33445  33461M 34427  35542  35914  35985M 35986M 35987M
1AMELIA   Ordinary Symbol and Literal Cross Reference                                                                       Page  395
                                                 36144U 36335U 36430  36561U 37194M 37205M 37253  37400M 37649U 38276U
                                                 39348U 39785U 39791  40974  41331U 41456  41463  41489  41528  41835U
                                                 42164  42510  42613  42664  42749M 42862  43271U 44061U 44365  44384
                                                 44521  44734U 45080  45452U 45762M 45796  45880M 47071U 47077  47510
                                                 47559  48048  48388  48437  48881  49341  49390  49588  50372U 50742
                                                 57225U 61905U 62071U 62188U 62359U 62659U 62896U 63096U 63135U 63378U
                                                 63418U 63654U 63694U 64022U 64174U 64688U 67775U 68317U 69509M 69656
                                                 69708  69740  69772  69972M 69973M 69974M 69975M 70961  71070  71171
                                                 72203  72240  74981M 74988M 74988  74989M 75007M 75012  78337  78875
                                                 79031  79274  79765  79778M 79779M 79781  79921M 79923M 79924M 79925
                                                 79933  80413  80420  80544  80546  80553  80558  80637  80639  80641
                                                 80646  80648  80653  80756M 80802M 80910M 81008M 81060  81198  81211
                                                 81217  81274  81275  81293  81294  81617  81630  81654  81745  82152
                                                 82159  82797  82813  82814  83084  83210M 83211M 83212M 83212  83213
                                                 83215M 83215  83216  83218  83296M 83328M 83331M 83332M 83333M 83640M
                                                 83641M 83641  83642  83676M 83733  83806  83819  83834  84517  85899U
 @R10          0 00000000 FFFFFFF5     @     906  1012U
 @R11          0 00000000 FFFFFFF4     @     919  1008U 10133U 10273U 10675U 10900U 11709U 11799U 12578U 13059U 13461U
                                                 13909U 14138U 14504U 15115U 15537U 16067U 16293U 17104U 17952U 18370U
                                                 18966U 19111U 19836U 20381U 20542U 22221U 22618U 22934U 23181U 23430U
                                                 23914U 24110U 24322U 24614U 24695U 24794U 24876U 28787U 31027U 31277U
                                                 31426U 31652U 31878U 32078U 32244U 32560U 32632U 32875U 33046U 33591U
                                                 34180U 34346U 34474U 34802U 35071U 35259U 35385U 35595U 35779U 35994U
                                                 36196U 36458U 36732U 36889U 37664U 38110U 38288U 38464U 38683U 40183U
                                                 40669U 41037U 41185U 41341U 41672U 42022U 42310U 43919U 44066U 44273U
                                                 44554U 44744U 44916U 45287U 45457U 45640U 45904U 52620U 52950U 55599U
                                                 57016U 60972U 64450U 67912U 68541U 68857U 69376U 69533U 69869U 70035U
                                                 70243U 70426U 70772U 71508U 71694U 71974U 72354U 72817U 73193U 73664U
                                                 73964U 74591U 75199U 75410U 75488U 75561U 77805U 77959U 78588U 79198U
                                                 79524U 79796U 79949U 80163U 80327U 80480U 80569U 80665U 80788U 80896U
                                                 81085U 81495U 81962U 82074U 82250U 82424U 82667U 82822U 82955U 83118U
                                                 83351U 83470U 83705U 83898U 83999U 84087U 84175U 84274U 84417U 84580U
                                                 84666U 84984U 85135U 85303U 85435U 85591U 85712U 85807U 85966U
 @R12          0 00000000 FFFFFFF3     @     932  1004U  8748U
 @R13          0 00000000 FFFFFFF2     @     945  1000U  9393M  9394   9416  10308M 10316  15399M 15400  15450M 15451
                                                 16825M 16826  24459M 24460  26446M 26447  30279M 30280  31157M 31158
                                                 31972M 31973  31980  34251M 34252  36685M 36686  37846M 37847  82500M
                                                 82500  82501M 82502  82762M 82763  82906M 82906  82907M 82908  83049M
                                                 83050  83109M 83110M 83111
 @R14          0 00000000 FFFFFFF1     @     958   996U  8729  12977M 12978  43806U 74897M 74905M
 @R15          0 00000000 FFFFFFF0     @     971   992U  8176U  8255U  8737U 10324U 10523  10528  13779M 13880M 15644
                                                 22900  22907  22913M 23744U 27324U 28232U 33363  33494  37180U 37220
                                                 37619U 38847U 41455  41890  42274  42630  42879  43819  43839  45762
                                                 47278U 57797U 67399  67480  67614U 69233  70025U 70222U 71924U 74402U
                                                 75629U 78385U 78386  78884  79294  79927M 80110  80127M 83639  83649
                                                 83657  83658  83676  83853M 83861  83877  83991U 85481U
 @R2           0 00000000 FFFFFFFD     @     802  1044U  9455U  9576   9580  11041U 11182U 11194  11290  11411  11417
                                                 11491  13143U 13189  13669  15708U 16283U 16482  18140M 18141M 18142M
                                                 18143M 19106U 19272  19331  19418  19431  20931  20952  20959  20975
                                                 21079M 22929U 23410U 26410U 27510U 27818U 28201  28593U 29446U 29627U
                                                 31642U 31868U 34594  34627  35590U 35774U 35933  35960  35961M 35970
                                                 36087  36274  36374  36375M 37179  38678U 39841U 41336U 41767  41773
                                                 41834  41873  41934  42257  42942U 43263U 43270  43298  43482M 43494M
                                                 43700U 44240U 44533M 44534M 44535M 44536M 44537M 44911U 45253U 45423
                                                 45609  46537M 46538M 46539M 46540M 46541M 47221  48973M 49894  50103
                                                 50277U 50688U 50949  51178  51215  51253  52209U 52599U 53466  55352
                                                 55375  55437  55493  55516  55578  56705  56762  56796  56877  56934
                                                 56968  57508U 60806U 61904  61978M 61978  62019  62070  62143M 62143
                                                 62187  62266M 62266  62307  62358  64884U 67161  67195  67229  67263
1AMELIA   Ordinary Symbol and Literal Cross Reference                                                                       Page  396
                                                 67297  67372  67382  67453  67463  67582  67613  67774  68180U 68262U
                                                 69227M 69228M 69229M 69230M 74925  75028M 75075M 75095M 75821U 76455
                                                 77240  77244  77946U 79371  80554U 80638U 80802  80876  80877  80880
                                                 80910  81666  82792U 82815  83079U 84548  84563
 @R3           0 00000000 FFFFFFFC     @     815  1040U  9786U  9821U 13681M 13681  13682M 13690  13708  14328  14398
                                                 14405  14446  17089U 17937U 21511  25391  25405  25411  30036U 32462
                                                 35984M 36453U 36727U 37306  37319  37750  37764  38614U 40144U 45374U
                                                 48628  48668M 52837  52850  52863  52905  52918  60003U 61877U 61964U
                                                 62129U 62252U 67373U 67454U 68191  68199  68273  68281  69143M 69144M
                                                 69231M 69233M 71937U 72303  72304  72742U 74581U 74918  74947M 74972
                                                 80881  80988  82583  82590  82591  83108  83313  83319  83321  84890
 @R4           0 00000000 FFFFFFFB     @     828  1036U  9777  10890U 14494U 15522U 17942U 18360U 18956U 19272  19293
                                                 19303  19471  19804  23909U 34792U 35017U 37508M 37526M 40163U 41027U
                                                 41818M 41873M 41890M 43909U 45277U 47121U 47688U 52945U 60573U 64129
                                                 64143  64173  65262  65473  68771  68837  71129  71130  71215  71219
                                                 73024U 73165U 73649U 77117U 79170  82562  83320  83861  85871M 85898
 @R5           0 00000000 FFFFFFFA     @     841  1032U 10895U 12088  12092  12202  12289  12293  12347  12351  12413
                                                 12446  12450  13904U 14261  14332  14475  14477M 14621  14633  14637
                                                 14695  14740  14838  14842  14896  14900  14973  14977  15527U 16057U
                                                 16278U 17094U 19826U 28777U 31863U 34797U 36879U 37654U 42245M 42257M
                                                 42274M 42294M 43872U 57006U 62572U 67897U 70163U 70416U 70767U 71498U
                                                 71969U 72349U 72807U 73072U 73188U 73654U 75075  78346  78384  78432
                                                 78490  79184U 80027  80043  80058M 80081  80096  80098  80125M 80126M
                                                 81060M 81469  82589  83650U
 @R6           0 00000000 FFFFFFF9     @     854  1028U  9567  12393U 12894  12941  12942  12951  12952  13456U 14406U
                                                 14942U 15532U 17947U 18365U 18497U 22613U 28772U 31017U 36884U 37659U
                                                 38105U 38459U 40168U 40659U 41667U 46377U 48240U 51797U 63308U 63584U
                                                 64278U 67902U 68536U 69181  69226  69231  75189U 77799U 78578U 80305
                                                 80458  80778U 81075U 81468M 81573M 81617M 81618M 81619M 81621M 81630M
                                                 81641  81648M 81654M 81745M 81751  81757M 81791M 81921M 82030M 82036M
                                                 82040  82044M 82047  82050M 82142M 82152M 82159M 82316M 82344  82372
                                                 82400M 82490M 82526  82638  82643M 82931M 83341U 83460U 83853  83868
                                                 83878  84412U 84575U 84974U 85130U 85298U 85430U
 @R7           0 00000000 FFFFFFF8     @     867  1024U 17099U 18961U 40173U 42484  42504  42554  42555  42804  42805
                                                 43168  43464  47695U 48125U 48757U 48985U 49126U 49776U 51046U 52282U
                                                 60962U 61613U 62424U 62469U 64357U 64440U 70030U 71689U 74576U
 @R8           0 00000000 FFFFFFF7     @     880  1020U 17932U 35615U
 @R9           0 00000000 FFFFFFF6     @     893  1016U 12573U 14499U 15110U 16062U 16288U 20376U 22216U 28782U 31022U
                                                 31647U 31873U 40178U 40664U 41032U 43914U 45282U 52615U 55594U 57011U
                                                 60967U 64445U 67907U 68852U 69371U 70421U 71503U 72812U 73659U 74586U
                                                 75194U 75405U 78583U 79193U 80783U 80891U 81080U 81490U 81957U 83346U
                                                 83465U 83700U
 ABORTTCB      2 0000554E 00000001     H   32269 19159  23003  24906  28836  35808
 ADDHDUP       4 0000779E 00000001     I   43901 43046B 43200B 43321B
 ADDHEXPT      4 00000204 FFFFFFB5     F   42417 42549M 43189  43195  43320  43406
 ADDHMXPR      2 00000209 FFFFFFB5     X   42419 42504M 43228  43526
 ADDHNAME    256 00000000 FFFFFFB5     C   42414 42599M 42613M 42630M 42638  42695  42954  43421
 ADDHNAM2    256 00000104 FFFFFFB5     C   42416 42862M 42879M 43298  43494
 ADDHNEW       4 00007652 00000001     I   43347 42970B 43097B 43112B 43237B 43337B
 ADDHNEXT      2 0000756C 00000001     H   42912 42984B 43126B 43171B 43251B 43281B 43314B
 ADDHNLN2      4 00000100 FFFFFFB5     F   42415 42849M 43272  43384  43481
 ADDHNT        2 00007448 00000001     H   42433 42353  45943  52656
 ADDHNTW     523 00000000 FFFFFFB5     J   42426 42451  42479U 43927  43929  43930
 ADDHOST       2 00006182 00000001     H   36224 19136  23000  28830  35813
 ADDHOSTX      2 00006242 00000001     H   36449 36324B
 ADDHTYPE      1 00000208 FFFFFFB5     X   42418 42484M 42498  42783  42798  43028  43070  43103  43363  43378  43407
 AHLHEAD       1 00000000 00000000 A   T    2199  2199
 AHLVCCR8      1 00000000 00000000 A   T    2690  2690
 ALLBLS        4 0000FAEE 00000001     I   83686 83663B
1AMELIA   Ordinary Symbol and Literal Cross Reference                                                                       Page  397
 AMELIA        1 00000000 00000001     J     759   761    777    790    803    816    829    842    855    868    881
                                                   894    907    920    933    946    959    972   1073   1086   1099
                                                  1112   1125   1137   1150   1163   1646   1776   7671  48295  49244
                                                 78001
 AMODE24       2 0000DDDA 00000001     H   75510 10348  13491  52705  77986  79545
 AMODE31       2 0000DD9E 00000001     H   75436 10344  13493  52706  77987  79546
 ARP          28 00000000 FFFFFFD6     J    6877 15262U 36798  36825U 36860  61616U
 ARPENET#      1 00000001 FFFFFFD6 A   U    6858 19165  36920
 ARPHLN        1 00000004 FFFFFFD6     X    6860 36831M 61876  62128
 ARPHRD        2 00000000 FFFFFFD6     X    6857 15278  36829M
 ARPOP         2 00000006 FFFFFFD6     X    6862 15322  15337  15469  15475M 36833M 61632  61668  61704  61740
 ARPPLN        1 00000005 FFFFFFD6     X    6861 36832M 61963  62251
 ARPPRO        2 00000002 FFFFFFD6     X    6859 15299  36830M 61808  61832  62009  62297
 ARPREP#       1 00000002 FFFFFFD6 A   U    6864 19168  19169  64504
 ARPREQ#       1 00000001 FFFFFFD6 A   U    6863 19167  36922  64503
 ARPRREP#      1 00000004 FFFFFFD6 A   U    6866 64506
 ARPRREQ#      1 00000003 FFFFFFD6 A   U    6865 64505
 ARPSHA        6 00000008 FFFFFFD6     X    6867 15392M 15392  15398  15449  15478  15480M 36834M 61870
 ARPSPA        4 0000000E FFFFFFD6     X    6868 15350  15443  15479  15481M 36835M
 ARPTHA        6 00000012 FFFFFFD6     X    6869 15478M 36842M 36842  62122
 ARPTPA        4 00000018 FFFFFFD6     X    6870 15422  15479M 36843M
 ASCIIFMT      1 0000CA74 00000001     C   69394 69559
 ASCI2EBC     16 0001021A 00000001     X   86040 42359  68588
 ASMVT         1 00000000 00000000 A   T    2579  2579
 A24GO         2 0000DE04 00000001     H   75553 75549
 A31GO         2 0000DDCC 00000001     H   75480 75475
 BR           11 0000000B 00000001 A   #    1104 81482  83891
 BTD           2 0000F03C 00000001     H   80688 80684
 BTD           1 00000000 00000005     T   38709 38709  68593  69567  83528  85993
 BTDMV         6 0000F0A2 00000001     I   80802 80771X
 BTR           2 0000F124 00000001     H   80921 80917
 BTR           1 00000000 0000000A     T   83526 83526
 BTREDMSK     24 0000F8FC 00000001     C   83485 80985
 BTX           2 0000F0B8 00000001     H   80815 80811
 BTX           1 00000000 00000009     T   64475 64475  69556  85994
 BTXC          4 0000F0E6 00000001     I   80869 80883B
 BTXCHK0       4 0000F0F6 00000001     I   80876 80879B
 BTXX          4 0000F10A 00000001     I   80881 80878B
 BTX0          4 0000F0EE 00000001     I   80874 80863B
 CADDHOST      2 00007F84 00000001     H   46472 46288
 CBBRANCH      1 00000000 00000000 A   T    2735  2735
 CHECKMSS      2 000054CA 00000001     H   32100 28837  31058
 CHECKSUM      2 0000CC3C 00000001     H   69594 19140  28813  35818  74625
 CHKUDP        2 0000CCF6 00000001     H   69895 74652
 CHSTLOAD      4 00007FEC 00000001     I   46598 46290
 CLEANUP       2 0000E528 00000001     H   77818 78010
 CLKPRTMH      2 000082C4 00000001     H   47666 47479
 CLKPRTNR      2 000082D0 00000001     H   47676 47477
 CLKPRTQT      2 0000824C 00000001     H   47485 47471
 CLKPRTSV      4 0000827E 00000001     I   47582 47473
 CLKPRTWT      2 000082B4 00000001     H   47645 47475
 CLOOKFLG      1 00000009 FFFFFFB2     R   46736 46740  46745
 CLOOKMHS     64 00000009 FFFFFFB2        46745 46852  47292  47670M
 CLOOKNR     128 00000009 FFFFFFB2        46740 47344  47680M
 CLOOKPRT      1 0000821C 00000001     R   47471 46813
 CLOOKQT       1 00000008 FFFFFFB2     X   46733 46780M 47332  47517M 47566M 47671M
 CLOOKSCN      4 0000805A 00000001     I   46813 47578B 47641B 47662B 47672B 47681B
 CLOOKSRV      4 00000000 FFFFFFB2     F   46731 47333  47640M
 CLOOKUP       2 00008034 00000001     H   46759 46294
1AMELIA   Ordinary Symbol and Literal Cross Reference                                                                       Page  398
 CLOOKUPW     10 00000000 FFFFFFB2     J   46754 46762  46770U 46778M 46778
 CLOOKWT       4 00000004 FFFFFFB2     F   46732 46779M 47334  47661M
 CLOSED        1 00000000 FFFFFFD1 A   U    7153 23133  23299  23527  23995  24311  24491  24768  25469  25630  27951
                                                 28973  31148  31547  31967  32324  32531  32621  32838  32999  33787
                                                 33922  34041  35216
 CLOSETCB      2 00005652 00000001     H   32654 24920  28844  35836
 CLOSING       1 00000008 FFFFFFD1 A   U    7161 24532  27885  28446
 CLOSWAIT      1 00000007 FFFFFFD1 A   U    7160 23118  23284  23574  24057  24414  28423
 CMDERROR      2 00007DE2 00000001     H   46133 46312  46366B 46401B 46412  46436B 46463  46482B 46500B 46797B 46833B
                                                 47481  47574  47576  47595B 47655B 47720B 47767B 47807B 47892  47909B
                                                 48032B 48111B 48272B 48337B 48421B 48503B 48545B 48571B 48852B 49066B
                                                 49086  49221B 49290B 49374B 49456B 49654B 49698B 49717B 50855B 51036
                                                 51886B 52263
 CMDEXIT       4 00007E22 00000001     I   46242 46531B 46592B 46603B 46678B 46914B 47137B 47418B 47456B 47635B 47949B
                                                 48229B 48749B 48773B 48783B 48927B 48967B 49769B 50222B 50282B 50377B
                                                 50435B 50450B 50523B 50694B 50779B 51031B 51120B 51326B 51473B 51802B
                                                 51925B 52046B 52252B 52413B 52514B 52601B
 CMDKILL       4 00007FFA 00000001     I   46611 46292
 CMDMON        4 000082D8 00000001     I   47708 46296
 CMDPRT        1 00007E44 00000001     R   46288 46109
 CMDSEGCB      4 00000000 FFFFFFB3     A   45973 46050M 46179  46195  46228  46254  46271  46576  46598  46638  46669
                                                 46885  46909  47001  47030  47060  47098  47246  47374  47413  47451
                                                 47630  47830  47858  47944  48224  48693  48717  48739  48922  48962
                                                 49764  49817  49839  49861  49951  49973  49995  50026  50048  50070
                                                 50160  50182  50204  50265  50321  50361  50430  50445  50483  50518
                                                 50563  50636  50647  50663  50774  50979  51001  51080  51111  51140
                                                 51206  51221  51248  51286  51312  51375  51397  51419  51435  51468
                                                 51493  51509  51528  51544  51577  51596  51612  51640  51656  51701
                                                 51722  51750  51783  51920  52041  52133  52190  52242  52299  52318
                                                 52333  52352  52367  52386  52408  52430  52456  52483  52509  52584
 CMDTEMP     120 0000007C FFFFFFB3     C   45975 47836  51618
 CMDTEXT     120 00000004 FFFFFFB3     C   45974 46074  46075  46084  52647
 CMDWA       244 00000000 FFFFFFB3     J   45982 46007  46035U 52628  52630  52631
 CMONARP       6 00008432 00000001     I   48017 47868
 CMONBRO       2 000083F0 00000001     H   47969 47880
 CMONEXT       2 000083E8 00000001     H   47960 47884
 CMONHOST      4 000083B2 00000001     I   47896 47890
 CMONICMP      4 00008410 00000001     I   48008 47876
 CMONIP        6 00008428 00000001     I   48014 47870  47956B 47965B
 CMONIPTP      4 00008424 00000001     I   48013 48009B 48011B
 CMONNBRO      2 000083FC 00000001     H   47985 47882
 CMONPROT      2 0000843C 00000001     H   48022 47878
 CMONPRT       1 0000833C 00000001     R   47868 47787
 CMONSCAN      4 000082F8 00000001     I   47787 47981B 47997B 48006B 48015B 48018B 48118B
 CMONTCP       4 00008418 00000001     I   48010 47874
 CMONTRU       2 00008408 00000001     H   48001 47886  47888
 CMONUDP       4 00008420 00000001     I   48012 47872
 CNVTIP        2 0000EB5C 00000001     H   79225 22993  42354  45941  52653  79561
 COMMAND       2 00007D74 00000001     H   45989 10350  46039  46048U 74640  78007  79557
 COUNTTCP      2 00006084 00000001     H   35871 28841
 CRBRANCH      1 00000000 00000000 A   T    2476  2476
 CSET          2 00007EB0 00000001     H   46318 46298
 CSETMONP      2 000085B2 00000001     H   48768 46408
 CSETNOMP      2 000085BA 00000001     H   48777 46410
 CSETNS        2 000085C2 00000001     H   48812 46404
 CSETNSIP      4 00000000 FFFFFFB0     F   48800 48831  48887
 CSETNSNX      4 000085D4 00000001     I   48839 48978B
 CSETNSWA     16 00000000 FFFFFFB0     J   48807 48814  48822U 48830M 48830
 CSETPRT       1 00007ED8 00000001     R   46404 46389
1AMELIA   Ordinary Symbol and Literal Cross Reference                                                                       Page  399
 CSETTRC       2 00008648 00000001     H   49019 46406
 CSETTRCC      4 00000004 FFFFFFAF     F   49006 49036M 49074  49115M
 CSETTRCL      4 00000000 FFFFFFAF     F   49005 49035M 49073  49088M 49108M
 CSETTRCP      1 00008688 00000001     R   49080 49046
 CSETTRCS      4 00008660 00000001     I   49046 49113B 49116B 49119B
 CSETTRCT      4 00000008 FFFFFFAF     F   49007 49037M 49075  49118M
 CSETTRCW     12 00000000 FFFFFFAF     J   49014 49021  49031U
 CSETTRPC      6 000086C6 00000001     I   49115 49082
 CSETTRPL      6 000086AC 00000001     I   49088 49080
 CSETTRPT      6 000086D0 00000001     I   49118 49084
 CSHOMONP      2 00008B44 00000001     H   51055 46451
 CSHOW         4 00007F06 00000001     I   46424 46300  46302
 CSHOWNS       2 00008B78 00000001     H   51128 46453  48888B
 CSHOWPRT      1 00007F18 00000001     R   46439 46424
 CSRTABLE      1 00000000 00000000 A   T    2496  2496
 CSVARMGR      1 00000000 00000000 A   T    2544  2544
 CSVEXIT       1 00000000 00000000 A   T    2417  2417
 CSVLLCB       1 00000000 00000000 A   T    2017  2017
 CSVLLTRM      1 00000000 00000000 A   T    2018  2018
 CSVMEM        1 00000000 00000000 A   T    2245  2245
 CSVVFGET      1 00000000 00000000 A   T    2809  2809
 CSVVFIND      1 00000000 00000000 A   T    2807  2807
 CVT           1 00000000 FFFFFFED     J    1987 82779U 83066U
 CVTBRET       2 00000052 FFFFFFED     H    2042  2555   2634
 CVTPTR        1 00000010 00000001 A   U    1983 82769  83056
 CVTTZ         4 00000130 FFFFFFED     F    2262 82785  83072
 CVTVSTGX      1 00000000 FFFFFFEC     J    3007  2871
 CVTXTNT1      1 00000000 FFFFFFEB     J    3046  2214
 CVTXTNT2      1 00000000 FFFFFFEA     J    3054  2284
 CVT4MS1       1 00000010 FFFFFFED A   U    2067  2075
 CVT6DAT       1 00000002 FFFFFFED A   U    2071  2075
 DATE          2 0000F7B0 00000001     H   83150 83146
 DATERR        6 0000F82A 00000001     I   83296 83214B
 DATEVAL      16 0000F924 00000001     X   83487 83213
 DATEX         4 0000F874 00000001     I   83334 83297B
 DATE1         4 0000F854 00000001     I   83327 83252B
 DAYFRI        1 0000F6D6 00000001     R   82843 82837
 DAYMON        1 0000F6AE 00000001     R   82839 82837
 DAYSAT        1 0000F6E0 00000001     R   82844 82837
 DAYSUN        1 0000F6A4 00000001     R   82838 82837
 DAYTBL        4 0000F688 00000001     A   82837 82807
 DAYTHU        1 0000F6CC 00000001     R   82842 82837
 DAYTUE        1 0000F6B8 00000001     R   82840 82837
 DAYWED        1 0000F6C2 00000001     R   82841 82837
 DCB           1 00000000 FFFFFFD9     X    6738  8081U  9430U 10753U 10834  52532U 74918  74947M 74972  77909U 78140U
 DCBBIT0       1 00000080 FFFFFFD9 A   U    6187  6275   6283   6297   6319   6361   6363   6364   6366   6386   6389
                                                  6411   6415   6430   6467   6523   6549   6587   6591   6610   6716
 DCBBIT1       1 00000040 FFFFFFD9 A   U    6188  6276   6284   6299   6328   6329   6338   6344   6361   6363   6365
                                                  6366   6391   6411   6413   6415   6433   6434   6435   6470   6471
                                                  6523   6551   6593   6595   6613   6658   6717
 DCBBIT2       1 00000020 FFFFFFD9 A   U    6189  6277   6285   6300   6301   6302   6328   6329   6333   6339   6344
                                                  6361   6362   6367   6393   6416   6417   6438   6439   6440   6474
                                                  6475   6524   6556   6596   6618   6661   6664   6718
 DCBBIT3       1 00000010 FFFFFFD9 A   U    6190  6278   6300   6302   6303   6328   6341   6368   6396   6416   6419
                                                  6442   6443   6444   6478   6479   6524   6558   6560   6562   6598
                                                  6619   6661   6665
 DCBBIT4       1 00000008 FFFFFFD9 A   U    6191  6286   6342   6343   6344   6369   6397   6421   6426   6427   6447
                                                  6448   6482   6483   6485   6486   6525   6565   6600   6620   6661
                                                  6666
1AMELIA   Ordinary Symbol and Literal Cross Reference                                                                       Page  400
 DCBBIT5       1 00000004 FFFFFFD9 A   U    6192  6287   6349   6372   6373   6399   6421   6423   6424   6427   6451
                                                  6453   6454   6455   6489   6490   6491   6492   6525   6567   6570
                                                  6603   6622   6656
 DCBBIT6       1 00000002 FFFFFFD9 A   U    6193  6279   6351   6352   6355   6372   6374   6400   6458   6459   6460
                                                  6461   6495   6496   6497   6498   6526   6573   6605   6624   6667
 DCBBIT7       1 00000001 FFFFFFD9 A   U    6194  6280   6351   6353   6355   6376   6405   6463   6464   6501   6502
                                                  6504   6505   6576   6606   6607   6625   6669   6719
 DCBBLKSI      2 0000003E FFFFFFD9     H    6627  8136M  8136   8142M  8153M  8153   8160M
 DCBBUFNO      1 00000014 FFFFFFD9     G    6265  8114   8121M
 DCBDCBE       4 00000000 FFFFFFD9     A    6202  6206
 DCBDDNAM      8 00000028 FFFFFFD9     C    6383 10809  78203  78208
 DCBFDAD       8 00000005 FFFFFFD9     C    6218  6220
 DCBIFLGS      1 0000002C FFFFFFD9     B    6522 10878M
 DCBLRECL      2 00000052 FFFFFFD9     H    6691  8142  74947M 78341  78343  78405
 DCBOFIOF      1 00000001 FFFFFFD9 A   U    6405  6407
 DCBOFLGS      1 00000030 FFFFFFD9     B    6385  8103M 10767  10860  52547  74918  74972  77924  78171
 DCBOFOPN      1 00000010 FFFFFFD9 A   U    6396 10765  10858  52545  74916  74970  77922  78169
 DCBOFPPC      1 00000008 FFFFFFD9 A   U    6397  8101
 DCBOFUEX      1 00000002 FFFFFFD9 A   U    6400  6404
 DCBRECFM      1 00000024 FFFFFFD9     B    6360 78331  78366
 DCBRECU       1 000000C0 FFFFFFD9 A   U    6366 78329  78364
 DEBACSMD      1 00000000 FFFFFFDD     J    5709  5747   5764   5777   5801   5820   5834   5844   5884
 DEBBASND      1 00000044 FFFFFFDF     U    5515  5640
 DEBDEVED      4 00000048 FFFFFFDF     A    5562  5594
 DEBEOEA       4 00000000 FFFFFFDF     A    5268  5271
 DEBMCOMP      1 00000008 FFFFFFDF A   U    5547  5548
 DEBMTRF0      1 00000080 FFFFFFDF A   U    5543  5553   5556   5557
 DEBMTRF1      1 00000040 FFFFFFDF A   U    5544  5553   5554   5556   5558
 DEBM3424      1 00000002 FFFFFFDF A   U    5549  5553   5554
 DEBM9348      1 00000002 FFFFFFDF A   U    5550  5556   5557   5558
 DEBXEND       1 00000054 FFFFFFDB     U    6114  6115
 DEBXTN        1 00000000 FFFFFFDB     J    5924  6115
 DEB2XEND      1 000000B8 FFFFFFDA     U    6170  6171
 DEB2XTN       1 00000000 FFFFFFDA     J    6122  6171
 DEC           8 00000000 FFFFFF9A     J   80226 80743U 80747M 80751  80977U 80982M 80990  83205U 83209M 83210  83216M
                                                 83217  83218M 83219  83327M 83328  83330M 83331  83430U 83440M 83441M
                                                 83441  83442  83446M 83447  83449M 83450
 DEFFLOWH      1 00001F40 FFFFFFD9 A   U    7329 22963  35800
 DEFFLOWL      1 00000FA0 FFFFFFD9 A   U    7328 22963  35800
 DEFOPTMO      1 0000012C FFFFFFD9 A   U    7323 31179
 DEFTMOUT      1 0000012C FFFFFFD9 A   U    7324 22992  28829
 DELTCB        2 00005764 00000001     H   33068 22985  24901  35837
 DEQSTR        2 0000FB0A 00000001     H   83740 52674  83736
 DEQUOTE       4 0000FB06 00000001     I   83733 83732
 DFAIDTAB      1 00000000 00000000 A   T    2884  2884
 DQBAD         2 0000FB72 00000001     I   83891 83788B 83822B
 DTB           2 0000EF88 00000001     H   80504 80500
 DTB           1 00000000 00000007     T   52673 52673  79566  83517
 DTBL          2 0000EF9A 00000001     I   80542 80561B
 DTBX          2 0000EFCA 00000001     H   80565 80543B 80545B 80547B
 DVTAREA      24 00000000 FFFFFFD8     J    6809 10789  10799U 10810
 DVTDEVCD      4 00000000 FFFFFFD8     F    6751  6753   6757   6766
 DW            4 00000004 FFFFFF9B     F   80190 80732  80966  81603M 81604  81627  83194  83419
 EBC2ASCI     16 0001011A 00000001     X   86018 42365
 EDITHOST      2 00007BCC 00000001     H   45667 45946
 ED15          1 0000F0A8 00000001     C   80804 80748
 ENDTCB        2 00005616 00000001     H   32582 28850
 ENETARP#      1 00000806 FFFFFFD9 A   U    6844 13522  15152  36919  52711  64479  64500
 ENETDATA      1 0000000E FFFFFFD7     X    6829 14319  14394  14434  14450  15252  16373  36815  61583  74256
1AMELIA   Ordinary Symbol and Literal Cross Reference                                                                       Page  401
 ENETDST       6 00000000 FFFFFFD7     X    6826 12120  13723  15476M 15700M 36812M 61255  61276  74194  74229
 ENETHDR      14 00000000 FFFFFFD7     J    6837 12103U 12352  12460U 13521  13718U 14271U 14331  14901  14987U 15151
                                                 15248U 15574  15698U 16369U 19139  19172  36798  36808U 36860  61232U
                                                 62427U 64360U 64502  74073U
 ENETIP#       1 00000800 FFFFFFD9 A   U    6843 13523  15153  19166  19170  36921  52710  64482  64498  74678
 ENETMAXL      1 000005EA FFFFFFD7 A   U    6830  8460  10455  14196  19139
 ENETSRC       6 00000006 FFFFFFD7     X    6827 12135  15476  15477M 15701M 16824  36813M 61313  61334
 ENETTIME      1 0000012C FFFFFFD9 A   U    7334 36916
 ENETTYPE      2 0000000C FFFFFFD7     H    6828 12476  12511  14296  14310  14316  14398M 15004  15039  15702M 36814M
                                                 61379  61415  61450  61480  61581  74159
 ESTABLSH      1 00000004 FFFFFFD1 A   U    7157 23103  23269  23559  24025  24399  27069  28057  28417  30241
 ESTAE         2 0000DE12 00000001     H   75594  9282  75590U
 ESTAERGS      4 0000E4D8 00000001     A   77808 75622M 77786
 ESTAEWRK     16 0000E518 00000001     C   77809 76739  77178
 ESTAEXIT      2 0000E440 00000001     H   77657 76004B
 FINUNP        4 0000FAF2 00000001     I   83692 83652B
 FINWAIT1      1 00000005 FFFFFFD1 A   U    7158 24031  24547  27844  28072  28440
 FINWAIT2      1 00000006 FFFFFFD1 A   U    7159 24562  27865  28087  28463
 FIX           2 0000DD0A 00000001     H   75264 10347  13492  83505
 FIXECB        4 00000000 FFFFFF9E     A   75250 75325M 75325  75326  75388
 FIXWA         4 00000000 FFFFFF9E     J   75257 75282  75310U 75418  75420  75421
 FMBRANCH      1 00000000 00000000 A   T    2660  2660
 FMTCLCK       2 0000F41A 00000001     H   81995 81991
 FMTDATE       2 0000F55C 00000001     H   82455 81629B 82042B 82158B 82451
 FMTDAY        2 0000F622 00000001     H   82700 81615B 82696
 FMTFTRUN    128 00000014 FFFFFFA8        61118 61211M 62994  63260  63536  64232  64303  64387
 FMTHNT        2 0000C494 00000001     H   67938 52685
 FMTHOST       2 00009ECE 00000001     H   55709 52686
 FMTHSTW     132 00000000 FFFFFFAA     J   55702 55727  55755U 57024  57026  57027
 FMTHTEMP    132 00000000 FFFFFFAA     C   55695 55995
 FMTINFO       2 00009444 00000001     H   52996 52690
 FMTINFWK     68 00000000 FFFFFFAB     J   52989 53014  53042U 55607  55609  55610
 FMTINOPT      4 00000000 FFFFFFAB     F   52981 53046M
 FMTIP         2 0000CB74 00000001     H   69414 28839  85995
 FMTITEMP     64 00000004 FFFFFFAB     C   52982 53093  53385  53594  53682
 FMTJUL        2 0000F6EA 00000001     H   82862 82049B 82858
 FMTNSERR      4 0000BF3A 00000001     I   65933 65161B 65215B 65623B 65644B 65663B 65743B 65764B 65783B 65863B 65884B
                                                 65903B 67012B 67092B
 FMTNSM        2 0000BBA4 00000001     H   64576 42338
 FMTNSMWA    796 00000000 FFFFFFA7     J   64569 64594  64622U 67920  67922  67923
 FMTNSRR       4 0000BF60 00000001     I   65980 65669B 65789B 65909B
 FMTNSTMP    256 0000021C FFFFFFA7     C   64562 65202  65232  66999  67029  67079  67109  67382M 67399M 67431  67463M
                                                 67480M 67513
 FMTNSWRR    540 00000000 FFFFFFA7     C   64561 65631  65751  65871  65982
 FMTPACK       2 0000B0C4 00000001     H   61135 74672  78006
 FMTPACKX      2 0000B9D6 00000001     H   64436 62559B 63035B
 FMTPWA       21 00000000 FFFFFFA8     J   61128 61153  61181U 64458  64460  64461
 FMTPWFLG      1 00000014 FFFFFFA8     R   61114 61118  61191M
 FMTPWORK     16 00000004 FFFFFFA8     C   61111 61494
 FMTPWSEG      4 00000000 FFFFFFA8     A   61110 61218M 61246  61268  61289  61304  61326  61347  61362  61520  61535
                                                 61554  61576  61791  61824  61845  61865  61918  61953  62025  62084
                                                 62117  62201  62236  62313  62372  62410  62530  62554  62584  62599
                                                 62614  62629  62644  62669  62697  62719  62738  62772  62819  62866
                                                 62906  62925  62944  62966  63030  63082  63106  63121  63145  63180
                                                 63219  63245  63298  63363  63388  63403  63428  63443  63464  63496
                                                 63522  63574  63639  63664  63679  63704  63719  63751  63787  63823
                                                 63859  63895  63914  63936  63966  63988  64007  64032  64047  64070
                                                 64092  64159  64184  64206  64268  64339  64423
 FMTRCLCK      2 0000F472 00000001     H   82107 55628  57045  61023  82103
1AMELIA   Ordinary Symbol and Literal Cross Reference                                                                       Page  402
 FMTTCB        2 0000A37C 00000001     H   57102 22979  24917  31067  35841  52702
 FMTTCBW      32 00000000 FFFFFFA9     J   57095 57120  57148U 60980  60982  60983
 FMTTCOPT      4 00000004 FFFFFFA9     A   57087 57152M 58008  60828
 FMTTCPMS      4 0000A9FE 00000001     I   59428 58035B
 FMTTCSTA      8 0000ADE2 00000001     C   60989 57237
 FMTTCWRK     24 00000008 FFFFFFA9     C   57088 57713  58775  58862  59033  59121  59531
 FMTTIME       2 0000F4EA 00000001     H   82281 38722  42333  52699  61027  74669  77984  81753B 82035B 82151B 82277
 FMTXDATE      2 0000F2B4 00000001     H   81528 52671  81524
 FMTXDATE      1 00000000 00000002     T   10352 10352
 FMTXMON      39 0000F3F2 00000001     C   81977 81744
 FRAG         16 00000000 FFFFFFBF     J   18430 18504  18514U 18622  18627M 18628M 18663  18841  18887M 19030  19040U
                                                 19088M
 FRAGHDR       1 00000010 FFFFFFBF     X   18419 18420  18421  18422  18423  18645  18851  18883
 FRAGHLEN      4 00000004 FFFFFFBF     F   18416 18634M 18842  18850  18884
 FRAGID        2 00000014 FFFFFFBF     H   18421 18570  18701  18757
 FRAGLEN       4 0000000C FFFFFFBF     F   18418 18637M 18812  18882
 FRAGMORE     32 00000016 FFFFFFBF        18423 18785  18822  18898
 FRAGNEXT      4 00000000 FFFFFFBF     A   18415 18504  18526  18627M 18628M 18663  18671  18798M 18798  18831  18841
                                                 18887M 18887  18905  19030  19052  19088M 19088
 FRAGOFF       4 00000008 FFFFFFBF     F   18417 18599  18630M 18771
 FRAGSRC       4 0000001C FFFFFFBF     F   18420 18541  18686  18742
 FRAGTTL       1 00000018 FFFFFFBF     C   18422 19071  19073M
 FREECORE      2 0000EE2E 00000001     H   79974 13515  15147  19155  28847  31054  35812  38707  45931  74660
 FREECORX      2 0000EEE6 00000001     H   80147 80065B
 FSR           0 00000000 00000001 A   #    1065 10157  10281M 10406  10683M 10718  10908M 10938  11717M 11746  11807M
                                                 11858  12586M 12616  13067M 13097  13469M 13563  13917M 13946  14146M
                                                 14225  14512M 14564  15123M 15187  15545M 15604  16075M 16130  16301M
                                                 16333  17112M 17145  17960M 17995  18378M 18451  18945M 18974M 19005
                                                 19119M 19222  19373  19550  19750  19844M 19921  20230  20389M 20423
                                                 20550M 20629  21377  22229M 22260  22626M 22660  22942M 23050  23189M
                                                 23227  23438M 23474  23922M 23955  24118M 24146  24330M 24360  24622M
                                                 24654  24703M 24731  24802M 24830  24884M 24992  28795M 28926  31035M
                                                 31111  31285M 31315  31434M 31482  31660M 31715  31886M 31917  32071M
                                                 32086M 32114  32252M 32283  32568M 32596  32640M 32668  32883M 32917
                                                 33054M 33082  33599M 33632  34188M 34226  34354M 34388  34482M 34513
                                                 34810M 34838  35079M 35110  35267M 35300  35393M 35431  35603M 35646
                                                 35766M 35787M 35885  36002M 36051  36189M 36204M 36238  36323M 36444M
                                                 36466M 36507  36564M 36716M 36740M 36771  36897M 36959  37672M 37704
                                                 38118M 38147  38296M 38328  38472M 38503  38691M 38790  40191M 40249
                                                 40677M 40727  41045M 41076  41193M 41227  41324M 41349M 41387  41656M
                                                 41680M 41718  42011M 42030M 42068  42299M 42318M 42448  43927M 43958
                                                 44074M 44104  44281M 44313  44453  44562M 44597  44752M 44785  44903M
                                                 44924M 44981  45269M 45295M 45329  45445M 45465M 45497  45633M 45648M
                                                 45681  45897M 45912M 46004  52628M 52770  52938M 52958M 53011  55607M
                                                 55724  57024M 57117  60980M 61150  62536  64458M 64591  65946  67920M
                                                 67952  68549M 68711  68865M 68935  69384M 69428  69526M 69541M 69608
                                                 69877M 69909  70043M 70071  70232M 70251M 70307  70434M 70466  70780M
                                                 70832  71516M 71547  71702M 71737  71982M 72417  72747M 72825M 72860
                                                 73201M 73267  73672M 74027  74599M 75279  75418M 75450  75496M 75524
                                                 75569M 77832  77967M 78089  78596M 78649  78754  79206M 79239  79532M
                                                 79611  79702M 79783M 79804M 79839  79937M 79957M 79988  80151M 80171M
                                                 85747  85815M 85842  85974M
 GETBUF        2 0000ECD2 00000001     H   79597 14163  22995  24907  28832  35844  52666
 GETBUFSZ      1 00001000 00000001 A   U   79592 79729  79779M 80043  83503
 GETBUFX       2 0000ED88 00000001     H   79787 79703B
 GETCMAX       1 000F4240 FFFFFFD9 A   U    7335 35824  83508
 GETCORE       2 0000ED98 00000001     H   79825 19163  23008  28843  35820  45932  74626  83504
 GETENET       2 00006250 00000001     H   36493 13502  19138  31063
 GETHNAME      2 000079D2 00000001     H   44771 28831  36912  38725  52695
1AMELIA   Ordinary Symbol and Literal Cross Reference                                                                       Page  403
 GETHNT        2 00007A3E 00000001     H   44966 23006  42345  45945  52663
 GETHNTNM    256 00000000 FFFFFFB4     C   44952 45080M 45088  45162
 GETHNTNX      2 00007AFC 00000001     H   45315 23007  42348  45936  52665
 GETHNTWA    256 00000000 FFFFFFB4     J   44959 44984  45012U 45295  45297  45298
 GETHNTX       2 00007AE6 00000001     I   45266 45063B 45196B 45241B
 GETHNT2       2 00007A68 00000001     H   45029 45260B
 GETHOST       2 0000610C 00000001     H   36037 19135  36914  45933  52687
 GETIPADD      2 00007968 00000001     H   44583 52670
 GETPORT       2 0000D1AC 00000001     H   71723 74644
 GETSRTT       2 00005AB6 00000001     H   34212 31049
 GETTCB        2 00005B3E 00000001     H   34374 22969  35838
 GETTOKEN      2 000093B4 00000001     H   52756 23005  45940  52654  79563
 GETTPORT      2 00005E9A 00000001     H   35632 28842  55644  57049  61017
 GLBRANCH      1 00000000 00000000 A   T    2566  2566
 GMBRANCH      1 00000000 00000000 A   T    2662  2662
 GVT           1 00000000 00000000 A   T    2428  2428
 HASHSIZE      1 00000BB9 FFFFFFD9 A   U    7336 10341  10342  28823  35825  36911  52683
 HEXBAD        4 0000F29C 00000001     I   81480 81316B 81357B 81371B 81398B 81439B 81453B
 HEXDUMP       2 0000C900 00000001     H   68920 19146  22977  52681  61028  64485  68586  78009
 HEXEXIT       2 0000F2A6 00000001     H   81486 81477B
 HEXMV         6 0000F11E 00000001     I   80910 80869X
 HEXS         16 00000010 FFFFFF9B     C   80192 80748M 80750  80751M 80757  80765  80860M 80861M 80864  80874
 HEXSEG        2 0000C888 00000001     H   68696 68692
 HEXSEG        1 00000000 00000008     T   52677 52677
 HEXSTR        2 0000F1A0 00000001     H   81137 52675
 HEXTBL       16 0000F914 00000001     C   83486 80861
 HEXW          4 0000000C FFFFFF9B     F   80191 80194  80859M 80860
 HNT          17 00000000 FFFFFFC8     J    7660 22722U 39662U 39879U 42896  42906U 43091M 43331M 43347  43403M 43403
                                                 43404  43405M 43760U 43785  43861M 43983  43993U 44040M 44225U 44679U
                                                 44820U 45111U 45363U 46953U 50256U 50554U 67989U
 HNTEXPTM      4 00000004 FFFFFFC8     F    7637 43189  43195M 43320M 43406M 43785  43785  44034  68347  68386
 HNTFLAGS      1 0000000C FFFFFFC8     R    7641  7645
 HNTFMAIL    128 0000000C FFFFFFC8         7645 39675  39981M 43525M 43879M 46966  68467
 HNTIPADD      4 00000008 FFFFFFC8     F    7638 22780  22793  22862  22875  43168  43464M 43573  44701  44851  50605
                                                 68079
 HNTMXPRF      2 0000000E FFFFFFC8     X    7649 43228  43526M 68316
 HNTNAME       1 00000011 FFFFFFC8     C    7651 39726  39786  40008  42954  43264  43421M 43480  43627  43679  43807
                                                 43839  44892  45162  45258  45259  45367  45423  47016  47072  68003
                                                 68181  68263
 HNTNAMLN      1 00000010 FFFFFFC8     X    7650 39734  39784  40016  42941  43001  43262  43408M 43626  43805  43819
                                                 44891  45144  45252  45373  45405  47024  47070  68011  68179  68261
 HNTNEXT       4 00000000 FFFFFFC8     A    7636 42896  42918  43091M 43091  43331M 43331  43404M 43404  43405M 43861M
                                                 43861  43983  44004  44040M 44040  44230  44860  45178  45378  50271
 HNTTIMER      2 000077B0 00000001     H   43944 10372
 HNTTYPE       1 0000000D FFFFFFC8     X    7648 22738  22765  22847  39694  39910  39970  43043  43085  43103  43151
                                                 43222  43407M 43443  43458  43514  43552  43567  43725  43776  44695
                                                 45217  46985  50584  50599  68054  68069  68102  68153  68235  68482
 HOSTLOAD      2 0000780E 00000001     H   44090 52659
 HOSTSCAN      2 000078A4 00000001     H   44299 44158
 HSTENET       6 00000010 FFFFFFC9     X    7595 15398M 15449M 16824M 36665M 36665  36714  55861M 55861  55925
 HSTHASHP      4 00000004 FFFFFFC9     A    7592 36138  36329  36374M 50123
 HSTIPADD      4 00000008 FFFFFFC9     F    7593 36129  36316  36377M 55780  55867  55883
 HSTNAME      64 0000005C FFFFFFC9     C    7614 27317  36403M 36430M 36913  43652M 43679M 45935  55834  57790
 HSTNEXT       4 00000000 FFFFFFC9     A    7591 36372M 50366
 HSTNMLEN      4 00000058 FFFFFFC9     A    7613 27316  36402M 43616M 43616  43651M 55839  57789
 HSTRFRAG      4 00000018 FFFFFFC9     F    7597 16847  16848M 56037M 56037  56063
 HSTRICMP      4 0000001C FFFFFFC9     F    7598 16924  16925M 56115M 56115  56141
 HSTRIPMS      4 00000034 FFFFFFC9     F    7604 17043  17044M
 HSTRRXMT      4 00000044 FFFFFFC9     F    7608 26368  26369M 56372M 56372  56398
1AMELIA   Ordinary Symbol and Literal Cross Reference                                                                       Page  404
 HSTRTCNT      4 00000050 FFFFFFC9     A    7611 27444  56667M 56667  56688
 HSTRTCP       4 00000024 FFFFFFC9     F    7600 26399  26400M 56271M 56271  56297
 HSTRTCPB      4 0000003C FFFFFFC9     F    7606 28225  28226M 56331
 HSTRUDP       4 0000002C FFFFFFC9     F    7602 17012  17013M
 HSTSICMP      4 00000020 FFFFFFC9     F    7599 15927  15928M 56193M 56193  56219
 HSTSIPMS      4 00000038 FFFFFFC9     F    7605 16040  16041M
 HSTSRXMT      4 00000048 FFFFFFC9     F    7609 56570M 56570  56596
 HSTSTCNT      4 00000054 FFFFFFC9     A    7612 27496  56839M 56839  56860
 HSTSTCP       4 00000028 FFFFFFC9     F    7601 15970  15971M 56469M 56469  56495
 HSTSTCPB      4 00000040 FFFFFFC9     F    7607 23737  23738M 56529
 HSTSUDP       4 00000030 FFFFFFC9     F    7603 16013  16014M
 HSTTABLE    156 00000000 FFFFFFC9     J    7621 15365U 15895U 16820U 23732U 26311U 27310U 27424U 28220U 36114U 36301U
                                                 36347  36360U 36370M 36370  36442  36638U 43602U 50123  50352U 55769U
                                                 57783U
 HSTTIME       4 0000000C FFFFFFC9     F    7594 15400M 15451M 16826M 36687  55971M 55971  55993
 HXDADDR       8 0000000B FFFFFFA5     C   68898 68906  68906  69058  69079M 69097
 HXDFLADD     64 00000104 00000001         7815 16600  16776  19781  49191  49191  49758  51695  51744  58982  59297
                                                 59987  60497  60941  62548  63024  63292  63568  64262  64333  64417
                                                 65961  67870  77617
 HXDFLAGS      1 00000008 FFFFFFA5     X   68894 68976M 68995  69035  69244
 HXDFLEBC    128 00000104 00000001         7810 16600  16776  19781  49191  49191  49758  51695  51744  58982  59297
                                                 59987  60497  60941  62548  63024  63292  63568  64262  64333  64417
                                                 65961  67870  69116  77617
 HXDHEX       49 00000015 FFFFFFA5     C   68901 69106  69138
 HXDHEXDM     35 00000015 FFFFFFA5     C   68900 69122
 HXDLINE      79 0000000B FFFFFFA5     C   68906 69023M 69024  69024M 69024  69344  69349
 HXDOUB        8 00000000 FFFFFF99     D   81121 81256M 81267  81273M 81274M 81293M 81300M 81313  81322  81335  81354
                                                 81368  81395  81404  81417  81436  81450
 HXDSEGCB      4 00000000 FFFFFFA5     A   68891 68973M 69214  69355
 HXDTRT        4 00000004 FFFFFFA5     A   68892 68985M 69002M 69232
 HXDUNPK       2 00000009 FFFFFFA5     X   68896 69226M 69227
 HXDWA        90 00000000 FFFFFFA5     J   68913 68938  68966U 69384  69386  69387
 HXSWA         8 00000000 FFFFFFA6     J   68687 68714  68742U 68865  68867  68868
 HXSWORK       8 00000000 FFFFFFA6     D   68680 68785  68822
 HXWA          8 00000000 FFFFFF99     J   81128 81154  81182U 81503  81505  81506
 IARMPVT       1 00000000 00000000 A   T    2303  2303
 IARMRRCE      1 00000000 00000000 A   T    2848  2848
 IARPIBR       1 00000000 00000000 A   T    2818  2818
 IARPSIV       1 00000000 00000000 A   T    2642  2642
 IARPSXM       1 00000000 00000000 A   T    2791  2791
 IARXKEY       1 00000000 00000000 A   T    2749  2749
 IARXVIO       1 00000000 00000000 A   T    2643  2643
 ICMPCHK       2 00000002 FFFFFFD2     X    7057 17278M 17278  17421M 17421  17444M
 ICMPCODE      1 00000001 FFFFFFD2     X    7056 17776  17803  17830  17857  63134
 ICMPDATA      1 00000004 FFFFFFD2     X    7058 17511  17554
 ICMPECM#      1 00000008 FFFFFFD2 A   U    7055 17406  63201
 ICMPECR#      1 00000000 FFFFFFD2 A   U    7054 17414  63162
 ICMPHDR       4 00000000 FFFFFFD2     J    7065 17261U 17448  63068U 63286  63286  64508
 ICMPTYPE      1 00000000 FFFFFFD2     X    7053 17406  17414M 17722  17905  63095  63162  63201
 ICYMMVTC      1 00000000 00000000 A   T    3074  3074
 IDA121CV      1 00000000 00000000 A   T    2581  2581
 IEABEND       1 00000000 00000000 A   T    2165  2165
 IEADQIQE      1 00000000 00000000 A   T    2561  2561
 IEAECVT       1 00000000 00000000 A   T    2090  2090
 IEAGSMQ       1 00000000 00000000 A   T    2538  2538
 IEAIHASU      1 00000000 00000000 A   T    2778  2778
 IEALSMQ       1 00000000 00000000 A   T    2540  2540
 IEAMASCB      1 00000000 00000000 A   T    2508  2508   2512
 IEAPATCH      1 00000000 00000000 A   T    2173  2173
1AMELIA   Ordinary Symbol and Literal Cross Reference                                                                       Page  405
 IEAPDSRT      1 00000000 00000000 A   T    2436  2436
 IEAPTRV       1 00000000 00000000 A   T    2252  2252
 IEAQCDSR      1 00000000 00000000 A   T    2156  2156
 IEAQCS01      1 00000000 00000000 A   T    2548  2548
 IEAQLPAQ      1 00000000 00000000 A   T    2157  2157
 IEAQTD00      1 00000000 00000000 A   T    2053  2053
 IEAQTE00      1 00000000 00000000 A   T    2051  2051
 IEARPOST      1 00000000 00000000 A   T    2563  2563
 IEASMFEX      1 00000000 00000000 A   T    2440  2440
 IEASMFSP      1 00000000 00000000 A   T    2786  2786
 IEASPOST      1 00000000 00000000 A   T    2583  2583
 IEASVDCB      1 00000000 00000000 A   T    2044  2044
 IEATCBP       1 00000000 00000000 A   T    1994  1994
 IEATPC        1 00000000 00000000 A   T    2046  2046
 IEATRSCN      1 00000000 00000000 A   T    2404  2404
 IEAVAR02      1 00000000 00000000 A   T    2488  2488
 IEAVBLDP      1 00000000 00000000 A   T    2472  2472
 IEAVDELP      1 00000000 00000000 A   T    2475  2475
 IEAVEAC0      1 00000000 00000000 A   T    2565  2565
 IEAVEADV      1 00000000 00000000 A   T    2723  2723
 IEAVEDR1      1 00000000 00000000 A   T    2608  2608
 IEAVELRM      1 00000000 00000000 A   T    2557  2557
 IEAVENLU      1 00000000 00000000 A   T    2904  2904
 IEAVENQ2      1 00000000 00000000 A   T    2554  2554
 IEAVEQV1      1 00000000 00000000 A   T    2711  2711
 IEAVEQV2      1 00000000 00000000 A   T    2714  2714
 IEAVEQV3      1 00000000 00000000 A   T    2717  2717
 IEAVERI1      1 00000000 00000000 A   T    2610  2610
 IEAVERP1      1 00000000 00000000 A   T    2612  2612
 IEAVERX1      1 00000000 00000000 A   T    2800  2800
 IEAVESC1      1 00000000 00000000 A   T    2739  2739
 IEAVESPR      1 00000000 00000000 A   T    2668  2668
 IEAVESTU      1 00000000 00000000 A   T    2902  2902
 IEAVESVT      1 00000000 00000000 A   T    2674  2674
 IEAVET6E      1 00000000 00000000 A   T    2774  2774
 IEAVEVT2      1 00000000 00000000 A   T    2728  2728
 IEAVEXPR      1 00000000 00000000 A   T    2536  2536
 IEAVEXP1      1 00000000 00000000 A   T    2705  2705
 IEAVFRCL      1 00000000 00000000 A   T    2474  2474
 IEAVGSDA      1 00000000 00000000 A   T    2719  2719
 IEAVGTCL      1 00000000 00000000 A   T    2473  2473
 IEAVGWSA      1 00000000 00000000 A   T    2568  2568
 IEAVLKRM      1 00000000 00000000 A   T    2275  2275
 IEAVMFRM      1 00000000 00000000 A   T    2653  2653
 IEAVMSGS      1 00000000 00000000 A   T    2222  2222
 IEAVNVT0      1 00000000 00000000 A   T    2887  2887
 IEAVRSUH      1 00000000 00000000 A   T    2766  2766
 IEAVRT03      1 00000000 00000000 A   T    2380  2380
 IEAVSPND      1 00000000 00000000 A   T    2776  2776
 IEAVSTAG      1 00000000 00000000 A   T    2516  2516
 IEAVTCTL      1 00000000 00000000 A   T    2768  2768
 IEAVTEST      1 00000000 00000000 A   T    2279  2279
 IEAVTRGR      1 00000000 00000000 A   T    2576  2576
 IEAVTRG1      1 00000000 00000000 A   T    2025  2025
 IEAVTRV3      1 00000000 00000000 A   T    2272  2272
 IEAVTSBP      1 00000000 00000000 A   T    2522  2522
 IEAVTSFR      1 00000000 00000000 A   T    2243  2243
 IEAVTSGL      1 00000000 00000000 A   T    2520  2520
 IEAVVMSR      1 00000000 00000000 A   T    2301  2301
1AMELIA   Ordinary Symbol and Literal Cross Reference                                                                       Page  406
 IEAVWAIT      1 00000000 00000000 A   T    2543  2543
 IEAVWSAC      1 00000000 00000000 A   T    2574  2574
 IEAVWSAG      1 00000000 00000000 A   T    2572  2572
 IEAVWSAL      1 00000000 00000000 A   T    2570  2570
 IEAVXEXT      1 00000000 00000000 A   T    2651  2651
 IEAVXSFT      1 00000000 00000000 A   T    2618  2618
 IEAVXSTN      1 00000000 00000000 A   T    2624  2624
 IEAVXSTS      1 00000000 00000000 A   T    2622  2622
 IEAVXUNN      1 00000000 00000000 A   T    2647  2647
 IEAVXUNS      1 00000000 00000000 A   T    2626  2626
 IEAWTCB       1 00000000 00000000 A   T    2683  2683
 IEA0DS        1 00000000 00000000 A   T    2089  2089
 IEA0EF00      1 00000000 00000000 A   T    1995  1995
 IEA0EF01      1 00000000 00000000 A   T    2035  2035
 IEA0PT0E      1 00000000 00000000 A   T    2755  2755
 IEA0PT01      1 00000000 00000000 A   T    2096  2096
 IEA0PT02      1 00000000 00000000 A   T    2680  2680
 IEA0PT03      1 00000000 00000000 A   T    2757  2757
 IEA0VL00      1 00000000 00000000 A   T    2006  2006
 IEA0VL01      1 00000000 00000000 A   T    2413  2413
 IECIXAVL      1 00000000 00000000 A   T    2081  2081
 IECPCNVT      1 00000000 00000000 A   T    2009  2009
 IECPRLTV      1 00000000 00000000 A   T    2013  2013
 IECVEXCL      1 00000000 00000000 A   T    2645  2645
 IECXAPG       1 00000000 00000000 A   T    2004  2004
 IECXITP       1 00000000 00000000 A   T    2034  2034
 IECXTLER      1 00000000 00000000 A   T    2020  2020
 IEC0SCR1      1 00000000 00000000 A   T    2179  2179
 IEECUCB       1 00000000 00000000 A   T    2050  2050
 IEEMSER       1 00000000 00000000 A   T    2028  2028   2094
 IEEVEXSN      1 00000000 00000000 A   T    2383  2383
 IEEVSTOP      1 00000000 00000000 A   T    2693  2693
 IEFAQTOP      1 00000000 00000000 A   T    2500  2500
 IEFAUSDM      1 00000000 00000000 A   T    2000  2000
 IEFENFDM      1 00000000 00000000 A   T    2159  2159
 IEFJESCT      1 00000000 00000000 A   T    2259  2259
 IEFLINK       1 00000000 00000000 A   T    1997  1997
 IEFQMWR       1 00000000 00000000 A   T    2110  2110
 IEWFBOSV      1 00000000 00000000 A   T    2087  2087
 IEWMSEPT      1 00000000 00000000 A   T    2592  2592
 IFBDCB        1 00000000 00000000 A   T    2076  2076
 IFDOLT0A      1 00000000 00000000 A   T    2438  2438
 IFGDEBVR      1 00000000 00000000 A   T    3069  3069
 IGC043BR      1 00000000 00000000 A   T    2484  2484
 IGC044R2      1 00000000 00000000 A   T    2594  2594
 IGC062R1      1 00000000 00000000 A   T    2564  2564
 IGC07903      1 00000000 00000000 A   T    2709  2709
 IGC124        1 00000000 00000000 A   T    2725  2725
 IGFRVT        1 00000000 00000000 A   T    2174  2174
 IGVCPBDB      1 00000000 00000000 A   T    2840  2840
 IGVCPDLB      1 00000000 00000000 A   T    2842  2842
 IGVCPFRE      1 00000000 00000000 A   T    2832  2832
 IGVCPGTC      1 00000000 00000000 A   T    2830  2830
 IGVCPGUB      1 00000000 00000000 A   T    2824  2824
 IGVCPGUP      1 00000000 00000000 A   T    2827  2827
 IGVCPGUS      1 00000000 00000000 A   T    2850  2850
 IGVGCAS       1 00000000 00000000 A   T    2478  2478
 IGVGFAS       1 00000000 00000000 A   T    2482  2482
 IGVGRRGN      1 00000000 00000000 A   T    2854  2854
1AMELIA   Ordinary Symbol and Literal Cross Reference                                                                       Page  407
 IGVGVRGN      1 00000000 00000000 A   T    2856  2856
 IGVQSPET      1 00000000 00000000 A   T    2480  2480
 IGVSLIST      1 00000000 00000000 A   T    2834  2834
 IGVSLOC       1 00000000 00000000 A   T    2838  2838
 IGVSREGN      1 00000000 00000000 A   T    2836  2836
 IGVSTSKI      1 00000000 00000000 A   T    2821  2821
 IHADCB        1 00000000 FFFFFFD9     J    6177  6257   6307   6382   6509   6514   6529   6535   6544   6644   6647
                                                  6652   6677   6695   6696   6700   6736   6737   6738   6810   6838
                                                  6878   6919   6952   7039   7066   7262   7290   7315   7403   7435
                                                  7524   7553   7577   7622   7661
 IHB0870A      2 00000B1C 00000001     H    9306  9302B
 IHB1473C      2 00000F88 00000001     H   10449 10443B
 IHB1473F      1 00000F84 00000001     B   10445 10451
 IHB1473L      4 00000F80 00000001     A   10444 10450
 IHB1844A      2 000011CC 00000001     H   11125 11119B
 IHB2344A      2 000014A8 00000001     H   12003 11999B
 IHB2876A      2 000016DE 00000001     H   12828 12824B
 IHB40822A
               2 0000DD48 00000001     H   75330 75328B
 IHB40822Z
               4 0000DD44 00000001     A   75329 75331
 IHB40850A
               2 0000DD82 00000001     H   75381 75377B
 IHB42832      2 0000E922 00000001     H   78567 78546B 78553B
 IHB43513C
               2 0000ED3C 00000001     H   79734 79728B
 IHB43513F
               1 0000ED38 00000001     B   79730 79736
 IHB43513L
               4 0000ED34 00000001     A   79729 79735
 IHB43600C
               2 0000EDEC 00000001     H   79917 79912B
 IHB43600F
               1 0000EDE8 00000001     B   79913 79918
 IHB43712F
               1 0000EED8 00000001     B   80132 80138
 ILRJTERM      1 00000000 00000000 A   T    2763  2763
 INEOF         4 0000E8BE 00000001     I   78533  7999   8042
 INITPRTN      4 00000008 FFFFFF9D     A   78056 78127M 78525
 INITPTR       4 00000000 FFFFFF9D     F   78055 78289M 78291  78520M
 INITSEGB      4 0000000C FFFFFF9D     A   78057 78128M 78188  78214  78229  78248  78270  78524
 INITWA      255 00000000 FFFFFF9D     J   78067 78092  78120U 78596  78598  78599
 IOB          33 00000000 FFFFFFEF     J    1645 11181  11779M 13132U
 IOBCAW        3 00000011 FFFFFFEF     R    1631 11181  11779M 13150
 IOBCSWA       3 00000009 FFFFFFEF     R    1540 13142
 IOBCSWS1      1 0000000C FFFFFFEF     R    1543  1547   1552   1557   1562   1567   1572   1577   1582  13234
 IOBCSWS2      1 0000000D FFFFFFEF     R    1587  1591   1596   1601   1606   1611   1616   1621   1626
 IOBPC         1 00000004 FFFFFFEF     X    1537 13345
 IOBSIO        1 00000010 FFFFFFEF     X    1630 13264  13295
 IOBSNS        2 00000002 FFFFFFEF     X    1536 13376M 13376  13402
 IOSVDEVN      1 00000000 00000000 A   T    2780  2780
 IOSVHID       1 00000000 00000000 A   T    2790  2790
 IOSVSUCB      1 00000000 00000000 A   T    2793  2793
 IPDST         4 00000010 FFFFFFD5     F    6911 15666  15881  16264M 16422  16455  17412M 17640  18141  25094  31849M
                                                 62593  69973  74348  74388
 IPFRAG        2 00000006 FFFFFFD5     H    6904 15725M 15761M 16830  18423  18501  18861M 18861  62674
 IPFTIMER      2 0000297E 00000001     H   18991 10368
 IPHDR        20 00000000 FFFFFFD5     J    6918 15575  15655U 15766  15789  16100  16259U 16265  16383U 16862  16901
                                                 17072  17223U 17251  17446  17540  18030U 18039  18344  18420  18421
1AMELIA   Ordinary Symbol and Literal Cross Reference                                                                       Page  408
                                                 18422  18423  18486U 19139  19145  25052U 31685  31844U 31850  38834U
                                                 62472U 62972  64484  69958U 71641U 71650  71669  71678  74266U 74648
 IPHDRCHK      2 0000000A FFFFFFD5     H    6908 15774M 15774  15797M
 IPICMP#       1 00000001 FFFFFFD9 A   U    6924 15911  16444  16914  48008  62755  63053
 IPID          2 00000004 FFFFFFD5     H    6903 15660M 18421  18570  18701  18757  62658
 IPIHL         1 00000000 FFFFFFD5     X    6897 15659M 16525  17227  17537  18035  18631  25056  62476  71645
 IPLEN         2 00000002 FFFFFFD5     H    6901 15767M 16537  16547  16900  18496  18854M 62489  62499  62571
 IPSRC         4 0000000C FFFFFFD5     F    6910 15662M 16398M 16398  16683  16805  17343  17412  17413M 18140  18228
                                                 18420  18541  18686  18742  25093  25177  25431  25433  25484  25653
                                                 25927  26089  26149  26164  28759  38840  62623  74333  74378
 IPTCP#        1 00000006 FFFFFFD9 A   U    6925 15954  16961  17528  28852  31848  35846  48010  62802  63610  68590
 IPTTL         1 00000008 FFFFFFD5     X    6906 15661M 18422
 IPTYPE        1 00000009 FFFFFFD5     X    6907 15911  15954  15997  16263M 16444  16914  16961  17002  17528  31848M
                                                 62755  62802  62849  62895  63053  63334  63610  71663  74297
 IPUDP#        1 00000011 FFFFFFD9 A   U    6926 15997  16263  17002  19171  48012  62849  63334  68589  71663  74673
 IRARMCNS      1 00000000 00000000 A   T    2534  2534
 IRARMEPS      1 00000000 00000000 A   T    2752  2752
 IRARMI00      1 00000000 00000000 A   T    2491  2491
 ISNBRNCH      1 00000000 00000000 A   T    2649  2649
 KILLTCB       2 000056EC 00000001     H   32903 52660
 KWRIFOPR      1 00000010 00000001 A   U    1783 73489  73606
 KWRIFSPR      1 00000020 00000001 A   U    1782 73462  73579
 LASTACK       1 00000009 FFFFFFD1 A   U    7162 24063  24577  27930
 LINE        235 00000014 FFFFFF9D     C   78060 78373  78490M 78510  79554
 LINENO        4 00000010 FFFFFF9D     F   78059 78378M
 LISTEN        1 00000001 FFFFFFD1 A   U    7154 20103  20183  20479  21858  22331  25783  33808  58032
 LOGCNT        1 0000003C 00000001 A   U    7686 10340  50862  52691
 LOGLEN        1 00000064 00000001 A   U    7687 10340  50896  50973  74872  74899  74905
 LOOPREAD      2 00001D7A 00000001     H   14549 10365
 LOWCASE       1 0001031A 00000001     R   86060 38712  42357  45929  79559  86060  86061  86063  86065  86067
 LPRDPCUR      4 00000000 FFFFFFC2     F   14534 14682M 14936
 LPRDWA       68 00000000 FFFFFFC2     J   14542 14567  14595U 15123  15125  15126
 LPRDWORK     64 00000004 FFFFFFC2     X   14535 14694M 14694  14740M 14752M 14765  15142
 LRTRIM        2 0000EF36 00000001     H   80354 45944  79564  80350
 LSR          12 0000000C 00000001 A   #    1129 10157  10281M 10406  10683M 10718  10908M 10938  11717M 11746  11807M
                                                 11858  12586M 12616  13067M 13097  13469M 13563  13917M 13946  14146M
                                                 14225  14512M 14564  15123M 15187  15545M 15604  16075M 16130  16301M
                                                 16333  17112M 17145  17960M 17995  18378M 18451  18974M 19005  19119M
                                                 19222  19844M 19921  20389M 20423  20550M 20629  22229M 22260  22626M
                                                 22660  22942M 23050  23189M 23227  23438M 23474  23922M 23955  24118M
                                                 24146  24330M 24360  24622M 24654  24703M 24731  24802M 24830  24884M
                                                 24992  28795M 28926  31035M 31111  31285M 31315  31434M 31482  31660M
                                                 31715  31886M 31917  32086M 32114  32252M 32283  32568M 32596  32640M
                                                 32668  32883M 32917  33054M 33082  33599M 33632  34188M 34226  34354M
                                                 34388  34482M 34513  34810M 34838  35079M 35110  35267M 35300  35393M
                                                 35431  35603M 35646  35787M 35885  36002M 36051  36204M 36238  36466M
                                                 36507  36740M 36771  36897M 36959  37672M 37704  38118M 38147  38296M
                                                 38328  38472M 38503  38691M 38790  40191M 40249  40677M 40727  41045M
                                                 41076  41193M 41227  41349M 41387  41680M 41718  42030M 42068  42318M
                                                 42448  43927M 43958  44074M 44104  44281M 44313  44562M 44597  44752M
                                                 44785  44924M 44981  45295M 45329  45465M 45497  45648M 45681  45912M
                                                 46004  52628M 52770  52958M 53011  55607M 55724  57024M 57117  60980M
                                                 61150  64458M 64591  67920M 67952  68549M 68711  68865M 68935  69384M
                                                 69428  69541M 69608  69877M 69909  70043M 70071  70251M 70307  70434M
                                                 70466  70780M 70832  71516M 71547  71702M 71737  71982M 72017  72362M
                                                 72417  72825M 72860  73201M 73267  73672M 73706  73972M 74027  74599M
                                                 74745  75207M 75279  75418M 75450  75496M 75524  75569M 77832  77967M
                                                 78089  78596M 78649  79206M 79239  79532M 79611  79804M 79839  79957M
                                                 79988  80171M 80251  80335M 80363  80488M 80513  80577M 80601  80673M
1AMELIA   Ordinary Symbol and Literal Cross Reference                                                                       Page  409
                                                 80697  80796M 80824  80904M 80930  81093M 81151  81503M 81537  81970M
                                                 82004  82082M 82116  82258M 82290  82432M 82464  82675M 82709  82830M
                                                 82871  82963M 82996  83126M 83159  83359M 83384  83478M 83604  83713M
                                                 83749  83906M 83935  84007M 84038  84095M 84126  84183M 84214  84282M
                                                 84313  84425M 84464  84588M 84614  84992M 85027  85143M 85177  85311M
                                                 85345  85443M 85512  85599M 85633  85720M 85747  85815M 85842  85974M
 MAXCONN       1 00000BB8 FFFFFFD9 A   U    7326 28827
 MAXNSERV      1 00000004 FFFFFFCC A   U    7498  7499   7712  11384  37074  48800  48887  52678
 MAXRXTIM      1 00000014 FFFFFFD9 A   U    7332 31052
 MAXSENDQ      1 00030D40 FFFFFFD9 A   U    7330 24904
 MAXSRTT       1 00000005 FFFFFFD9 A   U    7333 31053  35842
 MAXTCPLN      1 000005B4 FFFFFFD9 A   U    7325  7327  28845  28897  35826  35828
 MINRXTIM      1 00000002 FFFFFFD9 A   U    7331 29169  31051  35814  35815
 MORECH        4 0000FAD0 00000001     I   83658 83686B
 MPAT          4 000008B4 00000001     F    9049  9108
 MPATFLAG      1 00000866 00000001     R    9016  9020   9025
 MPATH       416 00000858 00000001     X    9116  9118   9118  74627
 MPATHST       8 00000858 00000001     D    9006  9116   9116
 MTBL          2 0000F608 00000001     H   82682 82573
 NETCEXCP      2 000013AA 00000001     H   11732 13504  14166
 NETCLOSE      2 00001B74 00000001     H   13932 77999
 NETCTRL       2 00001108 00000001     H   10924 10364  13494
 NETCTWTO      4 0000119C 00000001     I   11119 11088
 NETERROR      2 000017B6 00000001     H   13083 13498
 NETINIT       2 00000F50 00000001     H   10392 10358
 NETRDWTO      4 00001484 00000001     I   11999 11968
 NETREAD       2 000013FA 00000001     H   11843  9927B
 NETREADN      2 000015D4 00000001     H   12530 12070B 12138B
 NETRPCUR      4 00000000 FFFFFFC4     F   11828 12196M 12387
 NETRWA       68 00000000 FFFFFFC4     J   11836 11861  11889U 12586  12588  12589
 NETRWORK     64 00000004 FFFFFFC4     X   11829 12202M 12203M 12216
 NETSEG        2 00001A7C 00000001     H   13549  9720
 NETTRAIL      2 00001C92 00000001     H   14210 13506
 NETTRLWA   1514 00000000 FFFFFFC3     J   14203 14228  14256U 14512  14514  14515
 NETTRLWK   1514 00000000 FFFFFFC3     X   14196 14382  14471
 NETWRITE      2 000015FE 00000001     H   12602 10363  14164
 NETWRNXT      4 000016F8 00000001     I   12881 13004B 13022B
 NETWRTRY      2 00001778 00000001     H   12993 12841B
 NETWRWTO      4 000016B8 00000001     I   12824 12793
 NEWTCB        2 000053B6 00000001     H   31903 22982  28828
 NIT           8 00000000 00000001     D    7673  8670U  9150U  9321  10338  10373  14161  74657  77991
 NITASMDT      8 00000004 00000001     C    7675 52445  52450
 NITASMTM      8 0000000C 00000001     C    7676 52461M 52472  52477
 NITBLANK    256 0000023C 00000001     C    7976 20777  21499  24683  33549  36403  37150  37901  38008  39135  41428
                                                 41470  42599  43652  46073  47172  51193  51235  58898  59157  59506
                                                 60186  60274  60323  60407  61940  62223  73567  74417  74902  76947
                                                 79018  79139  81300  81573  82030  82142  85245  85250  85276  85992
                                                 86001
 NITBSYCT      4 000001E0 00000001     A    7879 30934  30935M 53957M 53957  53983
 NITBSYTH      4 000001E4 00000001     F    7880 30915
 NITBUFAL      4 00000140 00000001     F    7834 55281  79775  79776M 80062  80064M
 NITBUFCT      4 0000013C 00000001     F    7833 55246  79691  79747  79748M
 NITBUFMX      4 00000144 00000001     F    7835 79691
 NITBUFQ       4 00000138 00000001     A    7832 79676M 79676  79719M 79719  79764  79765M 80058  80059M
 NITCDCB       4 00000574 00000001     F    8355  8377  10586
 NITCECB       4 000005CC 00000001     F    8383  7819   8369   9943  10998  11040  11048M 11048  11777M 11777  14042
                                                 14059  14086
 NITCERRS      4 00000154 00000001     F    7841 11069  11070M 53339M 53339  53349
 NITCERRT      8 00000158 00000001     X    7842 11071M 11586  53383
1AMELIA   Ordinary Symbol and Literal Cross Reference                                                                       Page  410
 NITCIOB       8 000005A8 00000001     D    8364 11149  11181  11779M 11780
 NITCLOCK      4 00000344 00000001     X    7978  9881M 10243  10261  11585  11674  27664  30686  30729  33817  33819
                                                 33973  34071  34128  37017  38215  38250  42544  44034  68387
 NITCWTO       4 00000150 00000001     F    7840 11082M 11082  11127M 11333M 11333  11339  11349M 11349  77871M 77871
                                                 77877  77887M 77887
 NITDNAME     32 00000060 00000001     C    7700 37400  42749  45609  45880  78861M 78862  78862M 78862  78875M 78884M
                                                 79558
 NITDOMLN      4 0000005C 00000001     F    7699 37350  42696  42723  45566  45585M 45585  45596  45597  45631  45827
                                                 45854  78888M
 NITDSCCW      8 000006C8 00000001     W    8419 14049
 NITECBLS      4 00000108 00000001     A    7819  9878
 NITEND        1 0000081A 00000001     U    8629  9323
 NITETHER      6 00000693 00000001     X    8407 10567M 11206M 11225  11226  12135  13723  15477  15480  15701  36553
                                                 36560  36813  36834  53212  53213
 NITFAIL      24 0000021C 00000001     X    7973  9342M  9382M  9606M  9646M 10602M 10626M 10650M 11021M 11911M 12680M
                                                 13658M 25590M 33126M 33371M 33502M 33705M 38602M 70375M 70524M 70602M
                                                 70649M 70907M 71795M 72075M 72598M 72918M 73335M 75368M 75729M 75729
                                                 75763  75768  79897M 80051M 80089M 80118M
 NITFCTIO     32 00000101 00000001         7756 11013  11034M 11551  11792M 14031
 NITFLAG       1 00000101 00000001     R    7742  7746   7751   7756   7761   7766   7771   7776   7781
 NITFLAG2      1 00000102 00000001     R    7787  7791
 NITFMONP    128 00000102 00000001         7791 47747  48772M 48782M 51063
 NITFNODEV
             128 00000103 00000001         7800 10548  10972  12544  13019  14013  78981M
 NITFPNTS      2 00000101 00000001         7776 74935  75022  76016M 77662M
 NITFRAGQ      4 000000CC 00000001     A    7724 10198M 10198  18504  18663  19030
 NITFRDIO     16 00000101 00000001         7761 11441  11452M 11903  12026M 12534M
 NITFSNSI    128 00000101 00000001         7746 10564  10564  10565  10565  11163  11163  11205M 11578  11578  11579
                                                 11623  12013  12013
 NITFTRC       4 00000101 00000001         7771  8683   9192M 75664M
 NITFUP       64 00000101 00000001         7751 10563  10563  10564  10564  10566M 11163  11163  11164M 11303  11303
                                                 11304M 11578  11578  11653  12013  12013  12014M 12043  13001  13980
                                                 53250
 NITFUP1       1 00000101 00000001         7781 10563  10563  10565  10565  11303  11303  21923
 NITFWRIO      8 00000101 00000001         7766 12672  12693M 12869  13041M 13820  53302
 NITGATE       4 00000040 00000001     A    7692  9625M  9625  11367M 11367  11373  36589M 36589  36614  55883  78930M
 NITHNTQ       4 00000084 00000001     A    7703 42896  43983  44147  44154M 44154  44178M 44178  44184M 44810  45101
                                                 50230
 NITHNTT#      1 000004B0 00000001 A   U    7705 10371
 NITHNTTM      4 00000088 00000001     F    7704 10244  10261M
 NITHOSTQ      4 00000080 00000001     A    7702 36372  36373M 50326
 NITHSTHT      4 00000098 00000001     A    7710  9232M 36086  36273  50035  50075
 NITHTDCB      4 000003AC 00000001     F    8030 44159
 NITHXDFL      1 00000104 00000001     R    7806  7810   7815  16600M 16776M 19781M 49724M 49758M 51695M 51744M 58982M
                                                 59297M 59987M 60497M 60941M 62548M 63024M 63292M 63568M 64262M 64333M
                                                 64417M 65961M 67870M 68976  68983M 77617M
 NITIBUFP      4 00000740 00000001     A    8462 10454M 10522  12079  14260  77231
 NITIDCB       4 000006D0 00000001     F    8429  8451  10610
 NITIDCCW      8 000005F0 00000001     W    8393 10492  10496M 11194  11629
 NITIECB       4 0000072C 00000001     F    8457  7820   8443   9920  11932  12033M 12033
 NITIFLAG      1 00000103 00000001     R    7796  7800
 NITIIOB       8 00000708 00000001     D    8438 11453  11962  12550
 NITINDCB      4 0000034C 00000001     F    7987  9558
 NITINOEX      2 00000410 00000001     H    8071  8068
 NITINX        4 0000040C 00000001     A    8068  8001   8044
 NITIP         4 00000034 00000001     A    7689  9598M  9598   9653  15422  15481  15662  16198  16422  16456  17413
                                                 21426  21715  21720  22800  22882  27172  27177  31783  32190  36546
                                                 36835  44720  53157  69972  74378  74388  78909M
 NITIPAHT      4 00000094 00000001     A    7709  9230M 25437  26744  33444  49826  49866
1AMELIA   Ordinary Symbol and Literal Cross Reference                                                                       Page  411
 NITIPCHK      4 000001A4 00000001     F    7864 16793  16794M 54476M 54476  54486
 NITIPLP       4 00000048 00000001     A    7694 21419  22793  22875  44713
 NITIPTTL      1 00000100 00000001     R    7738 15661
 NITJOBNM      8 0000004C 00000001     C    7696  9416M 11116  11996  12821  53059  53064
 NITKAERR      4 00000188 00000001     F    7856 11523  11524M 53840M 53840  53850
 NITKFCS       4 00000180 00000001     F    7854 11507  11508M 53724M 53724  53734
 NITKLOST      4 00000184 00000001     F    7855 11515  11516M 53782M 53782  53792
 NITKOVFL      4 0000018C 00000001     F    7857 11531  11532M 53898M 53898  53908
 NITKPBEG      4 000000BC 00000001     F    7718 34122
 NITKPRET      4 000000C0 00000001     F    7719 34141
 NITKPTMO      4 000000C4 00000001     F    7720 34084
 NITKTOTL      4 0000017C 00000001     F    7853 11499  11500M
 NITLGBEG      4 00000028 00000001     A    7683  9205M 50915  74891
 NITLGCUR      4 0000002C 00000001     A    7684  9206M 50861  51017  74871  74896M 74904
 NITLGEND      4 00000030 00000001     A    7685  9208M 50908  74884
 NITLMASK      4 00000044 00000001     F    7693 32192  32193  78972M
 NITLMCCW      8 00000680 00000001     W    8400 10504  10508M
 NITLPQH       4 0000074C 00000001     A    8465  9968M  9968  13754M 13754  13760M 14614  15064  15065M 15076M 15076
 NITLPQT       4 00000750 00000001     A    8466 13761M 13778  13780M 15089M 15089
 NITMASK       4 0000003C 00000001     A    7691  9638M  9638   9654  36596  55868  78951M
 NITNSCNT      4 000000AC 00000001     F    7713 38089  38090M 54929
 NITNSERV      4 0000009C 00000001     F    7712 11383  37074  48887M 51145
 NITNSLID      4 000000B8 00000001     A    7716 37022  37023M
 NITNSLQ       4 000000B4 00000001     A    7715 10223M 10223  37572  38172  38545  38900
 NITNSRET      4 000000B0 00000001     F    7714 38260  38261M 54972M 54972  54997
 NITOBUFP      4 000007B8 00000001     A    8507 10456M 10527  12953
 NITODCB       4 00000754 00000001     F    8475  8497  10634
 NITOECB       4 000007AC 00000001     F    8503  7821   8489   9895  12657  12705  12840M 12840  12852M 12852
 NITOIOB       8 00000788 00000001     D    8484 12776  13029
 NITOQCNT      4 000007F0 00000001     A    8598 12932  12934M 13807  13808M 55058
 NITOQH        4 000007E8 00000001     A    8596 12881  12894M 12905M 12905  13855M 13855  13861M
 NITOQMAX      4 000007F4 00000001     A    8599 13834  13840M 55095
 NITOQT        4 000007EC 00000001     A    8597 12918M 12918  13862M 13879  13881M
 NITOSG       44 000007BC 00000001     X    8595  9715  15503  15822  15851  36868  71091
 NITOSGCOD
               1 000007BC 00000001     R    8513  8522   8532   8542   8552   8562   8572   8582
 NITPATH       8 00000054 00000001     C    7697 70151  79018M 79031M
 NITPATQH      4 0000011C 00000001     A    7825 10008  12159  14645  41266  51334  70176M 70176  70182M 73051  73122M
                                                 73122  74081  77261M 77261
 NITPATQT      4 00000120 00000001     A    7826 70183M 70199  70224M 73135M 73135
 NITPCNTR      4 00000128 00000001     A    7828 70147  70148M
 NITPCUR       4 00000124 00000001     A    7827 12196  12197M 12387M 14682  14683M 14936M 19359  19594  20182  20508
                                                 21330  34636  34637M 34660M 34953  34954M 34979M 39026M 41148  41149M
                                                 41174M 46329M 46329  46335  47252  47708  48183  70531M 70760M 70760
                                                 70874  72564  74078  74406M 74569M 77295M 77295  77341
 NITPECB       4 000001E8 00000001     F    7882  7822   9995  10007M 10007  70153
 NITPFUL#      4 00000130 00000001     F    7830 55188  72700  72701M
 NITPNQH       4 00000148 00000001     A    7837  9731M 71809  71836M 72984M
 NITPNQT       4 0000014C 00000001     A    7838  9823M 71858M 71858  72971  72985M 73026M
 NITPORT       4 000000D8 00000001     A    7729 20909
 NITPPORT      4 000000E4 00000001     A    7730 20926
 NITPRAEX      2 000004A8 00000001     H    8245  8229
 NITPRBUF    150 000004DD 00000001     C    8346  8335   8340
 NITPRCC       1 000004DC 00000001     X    8345 75000  75007  75118M
 NITPRCCW      8 00000730 00000001     W    8459  8449
 NITPRDCB      4 00000444 00000001     F    8191  9420   9443  52522  52561  52567  77899  77934  77985
 NITPREXL      4 000004A4 00000001     A    8229  8205
 NITPROBE      4 000000C8 00000001     F    7722 33986
 NITPRSG      44 000004B0 00000001     X    8344  9469   9487   9523   9549   9559  11144  11220  11234  11258  11318
1AMELIA   Ordinary Symbol and Literal Cross Reference                                                                       Page  412
                                                 11957  12730  12751  12771  13184  13209  13226  13249  13282  13311
                                                 13332  13361  13394  13417  13445  13999  14073  14099  14123  14361
                                                 16580  16608  16674  16691  16708  16732  16756  16784  17334  17351
                                                 17375  17584  18219  18236  18253  18277  18301  19621  19649  19694
                                                 19716  19744  19789  19812  24251  24272  24290  24297  25168  25185
                                                 25202  25226  25250  25989  26016  26040  26080  26097  26121  30949
                                                 30956  33859  33869  39334  39360  39378  39395  39419  39427  39480
                                                 39497  39521  39529  75689  75713  75748  75776  75809  75851  75876
                                                 75908  75929  75957  75980  76031  76048  76073  76121  76142  76159
                                                 76187  76205  76230  76278  76299  76316  76344  76363  76381  76405
                                                 76446  76470  76512  76530  76558  76576  76594  76611  76629  76716
                                                 76733  76763  76790  76807  76831  76848  76872  76889  76913  76962
                                                 76994  77018  77035  77063  77087  77136  77154  77172  77202  77226
                                                 77245  77280  77314  77332  77356  77380  77402  77411  77450  77468
                                                 77486  77510  77519  77543  77561  77579  77597  77625  77649  77677
                                                 77695  77704  77722  77740  77749  77767  78748  78774  78818
 NITPRSGCOD
               1 000004B0 00000001     R    8262  8271   8281   8291   8301   8311   8321   8331
 NITPSG       44 000001EC 00000001     X    7969  9683  12231  12276  12334  12378  14780  14825  14883  14927  19517
                                                 19544  19589  21647  21674  21701  21728  21755  21784  21811  21840
                                                 23829  23856  27104  27131  27158  27185  27212  27239  27266  27295
                                                 27377  27402  28261  28288  28313  28368  28395  29518  29545  32382
                                                 32409  32434  32784  32811  34538  34974  37916  37957  37977  37994
                                                 38023  38066  38403  38649  39059  39079  39096  39120  39150  39159
                                                 39222  39712  39742  39774  39813  39994  40024  40089  40121  41128
                                                 41169  46242  47234  71032  71277  71304  71325  71349  71380  71407
                                                 71434  71459  71483  74432  74462  74494  74527  74538
 NITPSGCOD
               1 000001EC 00000001     R    7887  7896   7906   7916   7926   7936   7946   7956
 NITPSND#      4 0000012C 00000001     F    7829 55153  72609  72610M
 NITR         12 0000000C 00000001 A   #    1117  8670U  9142M  9150U 10309M 13589M 49714  72460M 75657M 76920  77609
                                                 77857M
 NITRBCCW      8 000006A0 00000001     W    8412 10516  10520M 11491  11690
 NITRBROD      4 00000194 00000001     F    7860 12423  12424M 54205
 NITRCP        4 00000234 00000001     A    7975 72721M 72721  72727M 72784M 72784
 NITRDCCW      8 00000738 00000001     W    8460 10525M
 NITRDTIM      8 00000744 00000001     X    8463 11893M 77177
 NITRERRS      4 00000170 00000001     F    7848 11942  11943M 53548M 53548  53558
 NITRERRT      8 00000174 00000001     X    7849 11944M 53592
 NITRFRAG      4 000001B4 00000001     F    7868 16853  16854M 54418M 54418  54428
 NITRICMP      4 000001B8 00000001     F    7869 16930  16931M 54316
 NITRIPMS      4 000001D0 00000001     F    7875 17049  17050M 54360M 54360  54370
 NITRLOOP      4 0000019C 00000001     F    7862 14960  14961M 54171
 NITRPACK      4 00000198 00000001     F    7861 12433  12434M 14954  14955M 54134
 NITRRB       24 000006B0 00000001     X    8415  8412  11497M 11498  11506  11514  11522  11530
 NITRRBTM      8 000006A8 00000001     X    8414 11675  11689M
 NITRTCNT      4 000001D8 00000001     A    7877 27450  55335
 NITRTCP       4 000001C0 00000001     F    7871 16971  16972M 54240
 NITRUDP       4 000001C8 00000001     F    7873 17018  17019M 54278
 NITSCNCB      4 000007F8 00000001     F    8602 20004  20023  20714  20733  44412  46095  46116  46396  46431  46820
                                                 47794  48256  48360  48405  48522  49053  49205  49313  49358  49474
                                                 49676  50711  50842  51873  78700  78719
 NITSENSE     24 000005D8 00000001     X    8389  8387  53422M 53422  53444  53445
 NITSICMP      4 000001BC 00000001     F    7870 15921  15922M 54833
 NITSINFO    128 000005F8 00000001     X    8395  8393   8393  11206
 NITSIPMS      4 000001D4 00000001     F    7876 16034  16035M 54877M 54877  54887
 NITSL         8 00000690 00000001     D    8403  8408   8408
 NITSLCCW      8 00000678 00000001     W    8399 11290  11659
 NITSLINF      9 00000690 00000001     X    8408  8400   8400
1AMELIA   Ordinary Symbol and Literal Cross Reference                                                                       Page  413
 NITSNCCW      8 000005D0 00000001     W    8387 10480  10484M
 NITSNDQ#      4 00000134 00000001     F    7831 23616  23617M 54032M 54032  54058
 NITSPACK      4 000001A0 00000001     F    7863 12939  12940M 54719
 NITSTCNT      4 000001DC 00000001     A    7878 27490  55454M 55454  55476
 NITSTCP       4 000001C4 00000001     F    7872 15964  15965M 54757
 NITSUBNT      4 00000038 00000001     A    7690  9653M  9654M 36608  55897
 NITSUDP       4 000001CC 00000001     F    7874 16007  16008M 54795
 NITTCBID      4 000000D4 00000001     A    7727 31964  31965M 31966
 NITTCBQ       4 000000D0 00000001     A    7726 17596  20070  20448  20987  21105  25552  25872  31957  31958M 33552
                                                 33661  35136  35326  51903M 51903  51983  77431M 77431
 NITTCPCH      4 000001A8 00000001     F    7865 25259  25260M 54534M 54534  54544
 NITTCPOS      4 000001B0 00000001     F    7867 27808  27809M 54650M 54650  54660
 NITTCPTC      4 000000F8 00000001     A    7734 32003M 32003  32012  49036  49074M 52342
 NITTCPTL      4 000000F4 00000001     A    7733 32009  49035  49073M 52308
 NITTCPTR      4 000000FC 00000001     A    7736 49037  49075M 52376  63004  63006  63270  63272  63546  63548  64242
                                                 64244  64313  64315  64397  64399
 NITTECB       4 00000218 00000001     F    7971  7823  10091  10103M 10103  10314
 NITTIDHT      4 00000090 00000001     A    7708  9228M 32065  33313  34426
 NITTIME       4 00000190 00000001     F    7859  9394M 53091
 NITTPORT      4 000000F0 00000001     A    7731 35671  79087
 NITTRACE      2 0000081A 00000001     H    8675  9195B  9870B 10149B 10398B 10710B 10930B 11738B 11850B 12608B 13089B
                                                 13555B 13938B 14217B 14556B 15179B 15596B 16122B 16325B 17137B 17987B
                                                 18443B 18997B 19214B 19913B 20415B 20621B 22252B 22652B 23042B 23219B
                                                 23466B 23947B 24138B 24352B 24646B 24723B 24822B 24984B 28918B 31103B
                                                 31307B 31474B 31707B 31909B 32106B 32275B 32588B 32660B 32909B 33074B
                                                 33624B 34218B 34380B 34505B 34830B 35102B 35292B 35423B 35638B 35877B
                                                 36043B 36230B 36499B 36763B 36951B 37696B 38139B 38320B 38495B 38782B
                                                 40241B 40719B 41068B 41219B 41379B 41710B 42060B 42440B 43950B 44096B
                                                 44305B 44589B 44777B 44973B 45321B 45489B 45673B 45996B 52762B 53003B
                                                 55716B 57109B 61142B 64583B 67944B 68703B 68927B 69420B 69600B 69901B
                                                 70063B 70299B 70458B 70824B 71539B 71729B 72009B 72409B 72852B 73259B
                                                 73698B 74019B 74737B 75271B 75442B 75516B 77824B 78081B 78641B 79231B
                                                 79603B 79831B 79980B 81143B 84030B 84118B 84206B 84305B 84456B 84606B
                                                 85019B 85169B 85337B 85504B 85625B
 NITTRBEG      4 00000014 00000001     A    7678  8709   9177M 76660
 NITTRCUR      4 00000018 00000001     A    7679  8689   8714M  9178M 76634  77103
 NITTREND      4 0000001C 00000001     A    7680  8702   9180M 76653
 NITTRSAV      4 00000020 00000001     A    7681  8731   9194M  9197   9869M  9872  10148M 10151  10397M 10400  10709M
                                                 10712  10929M 10932  11737M 11740  11849M 11852  12607M 12610  13088M
                                                 13091  13554M 13557  13937M 13940  14216M 14219  14555M 14558  15178M
                                                 15181  15595M 15598  16121M 16124  16324M 16327  17136M 17139  17986M
                                                 17989  18442M 18445  18996M 18999  19213M 19216  19912M 19915  20414M
                                                 20417  20620M 20623  22251M 22254  22651M 22654  23041M 23044  23218M
                                                 23221  23465M 23468  23946M 23949  24137M 24140  24351M 24354  24645M
                                                 24648  24722M 24725  24821M 24824  24983M 24986  28917M 28920  31102M
                                                 31105  31306M 31309  31473M 31476  31706M 31709  31908M 31911  32105M
                                                 32108  32274M 32277  32587M 32590  32659M 32662  32908M 32911  33073M
                                                 33076  33623M 33626  34217M 34220  34379M 34382  34504M 34507  34829M
                                                 34832  35101M 35104  35291M 35294  35422M 35425  35637M 35640  35876M
                                                 35879  36042M 36045  36229M 36232  36498M 36501  36762M 36765  36950M
                                                 36953  37695M 37698  38138M 38141  38319M 38322  38494M 38497  38781M
                                                 38784  40240M 40243  40718M 40721  41067M 41070  41218M 41221  41378M
                                                 41381  41709M 41712  42059M 42062  42439M 42442  43949M 43952  44095M
                                                 44098  44304M 44307  44588M 44591  44776M 44779  44972M 44975  45320M
                                                 45323  45488M 45491  45672M 45675  45995M 45998  52761M 52764  53002M
                                                 53005  55715M 55718  57108M 57111  61141M 61144  64582M 64585  67943M
                                                 67946  68702M 68705  68926M 68929  69419M 69422  69599M 69602  69900M
                                                 69903  70062M 70065  70298M 70301  70457M 70460  70823M 70826  71538M
                                                 71541  71728M 71731  72008M 72011  72408M 72411  72851M 72854  73258M
1AMELIA   Ordinary Symbol and Literal Cross Reference                                                                       Page  414
                                                 73261  73697M 73700  74018M 74021  74736M 74739  75270M 75273  75441M
                                                 75444  75515M 75518  77823M 77826  78080M 78083  78640M 78643  79230M
                                                 79233  79602M 79605  79830M 79833  79979M 79982  81142M 81145  84029M
                                                 84032  84117M 84120  84205M 84208  84304M 84307  84455M 84458  84605M
                                                 84608  85018M 85021  85168M 85171  85336M 85339  85503M 85506  85624M
                                                 85627
 NITUDPCH      4 000001AC 00000001     F    7866 18310  18311M 54592M 54592  54602
 NITWERRS      4 00000164 00000001     F    7845 12716  12717M 12781  53636M 53636  53646
 NITWERRT      8 00000168 00000001     X    7846 12711M 53680
 NITWRCCW      8 000007B0 00000001     W    8505  8495  10530M 12980M
 NITWTRYS      4 00000160 00000001     F    7844 12739  12929M 12929  13046  13047M
 NITZERO       8 0000033C 00000001     X    7977 21769  21825  22861  27280  44534  46538  47835  53092  53384  53593
                                                 53681  55994  70543  74437
 NSGETNAM      2 00007144 00000001     H   41704 42350  68578
 NSGETRR       2 00007034 00000001     H   41373 42351  68584
 NSL         852 00000000 FFFFFFCC     J    7523 21472  21486U 22295U 22527  26204  26218U 36994U 37091  37494  37572
                                                 37582U 37634  37739U 38075  38198U 38363U 38408  38435  38447  38538U
                                                 38545  38561U 38666M 38910U 39004  39227  39260  39289  39558  39822
                                                 39932  40134  40151  41262U 47150  47163U 47380
 NSLADHNT      2 00006E68 00000001     H   40712 42352
 NSLADHWA    256 00000000 FFFFFFB6     J   40705 40730  40758U 41045  41047  41048
 NSLADTMP    256 00000000 FFFFFFB6     C   40698 40828M 40829M 40831M 40832M 40851M 40868M 40869M 40888M 40897  41002M
                                                 41003M 41004M 41005M 41006M 41007M 41009M 41010M 41011
 NSLCMDLK     32 00000019 FFFFFFCC         7475 37885  37885  37886  38997  38997  47326M
 NSLCMDMH     16 00000019 FFFFFFCC         7480 39203  39203  39610  39610  47304M
 NSLEXPT#      1 0000003C FFFFFFCC A   U    7516 37041
 NSLEXPTM      4 0000003C FFFFFFCC     F    7504 37026  37047M 38215  47334M
 NSLFLAGS      1 00000019 FFFFFFCC     R    7461  7465   7470   7475   7480   7485   7490   7495
 NSLFREE       2 00006842 00000001     H   38489 38729  42342
 NSLFTMO       2 00000019 FFFFFFCC         7495 22449  38372M
 NSLGETUP      2 00006FE0 00000001     H   41213 42332
 NSLHDR       72 00000000 FFFFFFCC     C    7507 21496M 21496  26228M 26228  47171M 47171
 NSLID         2 00000014 FFFFFFCC     H    7455 37024M 37444  38942
 NSLIP         4 00000044 FFFFFFCC     F    7506 26229M 37144M 37144  37152  37153  47193M
 NSLLCNTR      4 00000008 FFFFFFCC     F    7452 37011M 37011  37566M 37566  37629  37630M 39557  39574
 NSLNAME     256 0000004C FFFFFFCC     C    7509 21499M 21511M 22351  37150M 37151  37207  37220M 37221  37348  37474
                                                 38714  39625  47172M 47221M
 NSLNAMLN      4 00000048 FFFFFFCC     F    7508 21498M 22356  37209M 37222  37349  37374M 37473  39630  47209M
 NSLNEXT       4 00000000 FFFFFFCC     A    7450  7507   7507  37572  37599M 37599  37606  37612M 38202  38545  38576
                                                 38585  38666M 38666  38951
 NSLNMSRV      4 0000001C FFFFFFCC     F    7499 37068M 37068  37074M 37085M 37085  37749  47333M
 NSLNOREC    128 00000019 FFFFFFCC         7465 37454  47356M
 NSLOOKUP      2 000063D0 00000001     H   36945 22996  28833  42349  52667
 NSLPACK     512 00000154 FFFFFFCC     C    7512 37423
 NSLPCMD      64 00000019 FFFFFFCC         7470 37885  37885  38385  38631  38997  38997  38998  39203  39203  39204
                                                 39610  39610  39611  47272M
 NSLPMSG       2 00006F7C 00000001     H   41062 38721  42340
 NSLQTYPE      1 00000016 FFFFFFCC     X    7456 21519M 22520  22526M 37210M 37519  37526  37820  37835  39925  39931M
                                                 47332M
 NSLRCNT#      1 00000001 FFFFFFCC A   U    7515 38708
 NSLRCODE      1 00000018 FFFFFFCC     X    7458 22384  22417  38977M 38978M 39184  39316  39347
 NSLRETTM      4 00000040 FFFFFFCC     F    7505 37848M 37864M 38250
 NSLRTIM#      1 00000007 FFFFFFCC A   U    7514 37805
 NSLSEND       2 00006614 00000001     H   37690 38717
 NSLSRVPT      4 00000030 FFFFFFCC     F    7501 37057M 37057  37748  37753M 37776M 37776
 NSLSTART      4 00000004 FFFFFFCC     F    7451 37017M 37046
 NSLTCP        4 00000019 FFFFFFCC         7490 21525M 38429  39254  39270  39551
 NSLTCPID      4 00000010 FFFFFFCC     F    7454 21526M 22299
 NSLTIMER      2 00006754 00000001     H   38133 10369
1AMELIA   Ordinary Symbol and Literal Cross Reference                                                                       Page  415
 NSLTMOUT      2 000067CA 00000001     H   38314 38727
 NSLTRY        4 00000034 FFFFFFCC     F    7502 37109  47361M
 NSLTRYCT      4 00000038 FFFFFFCC     F    7503 37109M 37120M 37120  37126M 37779  37781M 37799M 37799
 NSLUDP        8 0000014C FFFFFFCC     C    7511 37535  38093
 NSLUPATH      4 0000000C FFFFFFCC     F    7453 41308  47266M
 NSLUPCNM      4 0000031C FFFFFFB7     A   40220 40284M
 NSLUPDAT      2 00006D3A 00000001     H   40234 42344
 NSLUPERR      4 00006E56 00000001     I   40652 40334B 40355B 40402B 40423B 40442B 40492B 40513B 40532B 40582B 40603B
                                                 40622B
 NSLUPTMP    256 0000021C FFFFFFB7     C   40219 40342
 NSLUPWA     800 00000000 FFFFFFB7     J   40227 40252  40280U 40677  40679  40680
 NSLUPWRR    540 00000000 FFFFFFB7     C   40218 40410  40448  40500  40538  40590  40628
 NSM#IN        1 00000001 FFFFFFCE A   U    7381 38716  68583  68615
 NSM#OK        1 00000000 FFFFFFCE A   U    7372 39316
 NSM#UNKN      1 00000003 FFFFFFCE A   U    7375 22384  39184
 NSMAA         4 00000002 FFFFFFCE         7352 64728
 NSMANCNT      2 00000006 FFFFFFCE     H    7358 40058M 40058  40373  65572M 65572  65594
 NSMARCNT      2 0000000A FFFFFFCE     H    7360 40553  65812M 65812  65834
 NSMHDR       12 00000000 FFFFFFCE     J    7402 37433U 37443M 37443  38873U 39156  39424  39446  39526  40295U 40340
                                                 40408  40498  40588  42361  64638U 65200  65629  65749  65869  66997
                                                 67077
 NSMID         2 00000000 FFFFFFCE     H    7349 37444M 38942  64687
 NSMNSCNT      2 00000008 FFFFFFCE     H    7359 40071M 40071  40463  65692M 65692  65714
 NSMOP         1 00000002 FFFFFFCE     X    7350  7351   7352   7353   7354
 NSMQDCNT      2 00000004 FFFFFFCE     H    7357 37471M 40305  65132
 NSMQUERY      1 0000000C FFFFFFCE     C    7361 37472  40304  65131
 NSMRA       128 00000003 FFFFFFCE         7356 64836
 NSMRCODE      1 00000003 FFFFFFCE     X    7355  7356  38977  64883
 NSMRD         1 00000002 FFFFFFCE         7354 37466M 64800
 NSMRESP     128 00000002 FFFFFFCE         7351 38888
 NSMTC         2 00000002 FFFFFFCE         7353 64764
 NSPUTNAM      2 00007224 00000001     H   42054 38715
 NSRR        540 00000000 FFFFFFCD     J    7434 38759  40218  40772U 41422U 64561  65992U
 NSRRCLAS      2 00000106 FFFFFFCD     H    7420 66588  66612
 NSRRDATA    256 00000118 FFFFFFCD     C    7426 40867  41008  41470M 41530  41619  66744  66933
 NSRRDLEN      4 00000114 FFFFFFCD     F    7425 40869  41010  41555M 41644M 66749  66938
 NSRRIP        4 00000114 FFFFFFCD     F    7424 40851  41489M 66811
 NSRRMXPR      4 00000218 FFFFFFCD     F    7427 40888  41527M 41527  41528M 66704
 NSRRNAME    256 00000000 FFFFFFCD     C    7417 40830  40942  41428M 41429  41455M 66025  66042  66047
 NSRRNMLN      4 00000100 FFFFFFCD     F    7418 40832  40947  41453M
 NSRRRDAD      4 00000110 FFFFFFCD     F    7423 41466M 41652  66996  67366  67561  67864
 NSRRRDLN      4 0000010C FFFFFFCD     F    7422 41456  41457  41464M 41653  67562  67869
 NSRRTTL       4 00000108 FFFFFFCD     F    7421 40829  41003  66651
 NSRRTYPE      2 00000104 FFFFFFCD     H    7419 40791  40806  40821  40827  40845  40882  40928  41456  41456M 41457
                                                 41483  41515  41583  41598  41613  66139  66186  66233  66280  66327
                                                 66374  66421  66468  66515  66556  66679  66786  66872  66887  66902
                                                 66975  67360  67555
 OPENDCB       2 0000106C 00000001     H   10704 10588B 10612B 10636B
 PARMCMD       4 0000EA22 00000001     I   78817 78791  78797  78807  78809
 PARMDOMN      2 0000EA34 00000001     H   78829 78793
 PARMFILE      4 0000E806 00000001     I   78291 78345B 78527B
 PARMGATE      4 0000EA7E 00000001     I   78914 78795
 PARMIP        4 0000EA6C 00000001     I   78893 78799
 PARMLNET      4 0000EAA2 00000001     I   78956 78801
 PARMMASK      4 0000EA90 00000001     I   78935 78803
 PARMNDEV      2 0000EAB4 00000001     H   78977 78813
 PARMPATH      2 0000EABC 00000001     H   78986 78805
 PARMPRT       1 0000E99E 00000001     R   78791 78712
 PARMTCPP      2 0000EADC 00000001     H   79043 78811
1AMELIA   Ordinary Symbol and Literal Cross Reference                                                                       Page  416
 PATCORE       2 00008466 00000001     H   48159 46306
 PATHALLO      2 0000CD6A 00000001     H   70057 10359  74630
 PATHCLS       2 0000D45C 00000001     H   72846 74636
 PATHDO        2 0000CE64 00000001     H   70452 10366
 PATHINFO      2 0000D534 00000001     H   73252 73248  74629
 PATHIP        2 0000D122 00000001     H   71533 74642
 PATHMNXT      2 0000D74A 00000001     H   74098 74300B 74351B 74391B
 PATHMON       2 0000D716 00000001     H   74012 13507  15141
 PATHMSG       2 0000CF58 00000001     H   70817 74633
 PATHOPEN      2 0000CE06 00000001     H   70292 10360  74631
 PATHRC        2 0000D64E 00000001     H   73692 74654
 PATHREAD      2 0000D240 00000001     H   72003 74632
 PATHSEG       2 0000D33E 00000001     H   72402  9688
 PCLOC         4 00000000 FFFFFFB1     F   48143 48347M 48509  48510M 48600
 PCTEXT      128 00000008 FFFFFFB1     C   48146 48551  48668  52676
 PCTLEN        2 00000004 FFFFFFB1     H   48144 48595M 48599
 PCWA        264 00000000 FFFFFFB1     J   48154 48162  48170U 48178M 48178  48179M 48179
 PCXTEXT     128 00000088 FFFFFFB1     C   48147 48628M 48706
 PIASCBP       4 00000008 FFFFFFA1     A   73228 73234  73234  73405M 73405  73415
 PIINFO      164 00000008 FFFFFFA1     X   73234 73345  73346
 PINFO       128 00000000 FFFFFFC5     J    8996 73233  73429U 73444
 PINFOACC      8 00000010 FFFFFFC5     C    8971 73451
 PINFOIFL      1 00000030 FFFFFFC5     R    8978 73464  73491
 PINFOLNO      2 00000032 FFFFFFC5     H    8984 73452
 PINFONAM     20 00000038 FFFFFFC5     C    8986 73453
 PINFOSYS      8 00000008 FFFFFFC5     C    8970 73450
 PIPARMS       4 00000000 FFFFFFA1     A   73226 73347M 73354M 73375
 PIPINFO     128 0000002C FFFFFFA1     X   73233 73419
 PIWA        236 00000000 FFFFFFA1     J   73243 73270  73298U 73672  73674  73675
 PIWORK       64 000000AC FFFFFFA1     X   73236 73540  73547  73560  73568  73570  73581  73608
 PMSGHDR      16 00000004 FFFFFFA3     C   70803 70961M 70987  71024  71064  71123  71165  71204  71257  74637
 PMSGWA       20 00000000 FFFFFFA3     J   70810 70835  70863U 70873M 70873  71516  71518  71519
 PNUM          8 00000000 FFFFFFCB     J    7552  9728   9762U  9772M  9772   9773   9773   9778   9778   9802U 10376
                                                 71831U 71911U 73011U
 PNUM#         1 00001388 FFFFFFD9 A   N    7530 10357
 PNUMCNT#      1 000003E8 FFFFFFD9 A   N    7531  9728   9735
 PNUMLINK      4 00000000 FFFFFFCB     A    7544  9774M  9814M  9814  71835  71869M 71869  71917M 73017M
 PNUMVAL       4 00000004 FFFFFFCB     F    7545  9775M 71931
 POPNWA        4 00000000 FFFFFFA4     J   70285 70310  70338U 70434  70436  70437
 POPNWORD      4 00000000 FFFFFFA4     F   70278 70386M 70393M 70407
 PRDEXIT       2 0000D330 00000001     H   72345 72144B 72297B
 PRDOK         4 0000D2E8 00000001     I   72278 72099B 72161B
 PRTSEG        2 0000DAB4 00000001     H   74731  8341
 PRTSTAMP     12 00000000 FFFFFF9F     C   74717 74864  74869M 74897  74897  74898  74899  74942  75028  75028  75029
 PRTWA        12 00000000 FFFFFF9F     J   74724 74748  74776U 75207  75209  75210
 PSGDATAA      4 00000008 FFFFFFA2     A   72387 72536M 72562M 72618
 PSGDATAL      4 0000000C FFFFFFA2     F   72388 72537M 72547  72552
 PSGHDRA       4 00000000 FFFFFFA2     A   72385 72553M 72635
 PSGHDRL       4 00000004 FFFFFFA2     F   72386 72554M
 PSGWA        16 00000000 FFFFFFA2     J   72395 72420  72448U 72458M 72458  72825  72827  72828
 PTHMPCUR      4 00000000 FFFFFFA0     F   73997 74078M 74569
 PTHMTEMP     32 00000004 FFFFFFA0     X   73998 74438
 PTHMWA       36 00000000 FFFFFFA0     J   74005 74030  74058U 74599  74601  74602
 RAR          14 0000000E 00000001 A   #    1155  8169B  9264M  9265M  9265B  9391M  9392M  9392B  9437M  9438M  9438B
                                                  9447M  9448M  9448B  9472M  9473M  9473B  9490M  9491M  9491B  9503M
                                                  9504M  9504B  9526M  9527M  9527B  9552M  9553M  9553B  9562M  9563M
                                                  9563B  9583M  9584M  9584B  9686M  9687M  9687B  9718M  9719M  9719B
                                                  9829M  9830M  9830B  9836M  9837M  9837B  9840M  9841M  9841B  9903M
                                                  9904M  9904B  9927M  9951M  9952M  9952B  9976M  9977M  9977B 10058M
1AMELIA   Ordinary Symbol and Literal Cross Reference                                                                       Page  417
                                                 10059M 10059B 10114M 10115M 10115B 10154  10185M 10186M 10186B 10206M
                                                 10207M 10207B 10231M 10232M 10232B 10240M 10241M 10241B 10259M 10260M
                                                 10260B 10283M 10286B 10403  10433M 10434M 10434B 10469M 10470M 10470B
                                                 10534M 10535M 10535B 10588M 10612M 10636M 10662M 10663M 10663B 10685M
                                                 10688B 10715  10805M 10806M 10806B 10814M 10815M 10815B 10837M 10838M
                                                 10838B 10848M 10849M 10849B 10910M 10913B 10935  11147M 11148M 11148B
                                                 11152M 11153M 11153B 11223M 11224M 11224B 11237M 11238M 11238B 11261M
                                                 11262M 11262B 11321M 11322M 11322B 11376M 11377M 11377B 11420M 11421M
                                                 11421B 11632M 11633M 11633B 11662M 11663M 11663B 11693M 11694M 11694B
                                                 11719M 11722B 11743  11809M 11812B 11855  11960M 11961M 11961B 11965M
                                                 11966M 11966B 12057M 12058M 12058B 12156M 12157M 12157B 12234M 12235M
                                                 12235B 12279M 12280M 12280B 12337M 12338M 12338B 12381M 12382M 12382B
                                                 12484M 12485M 12485B 12519M 12520M 12520B 12588M 12591B 12613  12733M
                                                 12734M 12734B 12754M 12755M 12755B 12774M 12775M 12775B 12779M 12780M
                                                 12780B 12949M 12950M 12950B 12986M 12987M 12987B 13069M 13072B 13094
                                                 13187M 13188M 13188B 13212M 13213M 13213B 13229M 13230M 13230B 13252M
                                                 13253M 13253B 13285M 13286M 13286B 13314M 13315M 13315B 13335M 13336M
                                                 13336B 13364M 13365M 13365B 13397M 13398M 13398B 13420M 13421M 13421B
                                                 13448M 13449M 13449B 13471M 13474B 13560  13672M 13673M 13673B 13891M
                                                 13892M 13892B 13919M 13922B 13943  14002M 14003M 14003B 14052M 14053M
                                                 14053B 14076M 14077M 14077B 14102M 14103M 14103B 14126M 14127M 14127B
                                                 14148M 14151B 14222  14364M 14365M 14365B 14514M 14517B 14561  14642M
                                                 14643M 14643B 14783M 14784M 14784B 14828M 14829M 14829B 14886M 14887M
                                                 14887B 14930M 14931M 14931B 15012M 15013M 15013B 15047M 15048M 15048B
                                                 15096M 15097M 15097B 15125M 15128B 15184  15353M 15354M 15354B 15446M
                                                 15447M 15447B 15506M 15507M 15507B 15547M 15550B 15601  15669M 15670M
                                                 15670B 15795M 15796M 15796B 15825M 15826M 15826B 15854M 15855M 15855B
                                                 15884M 15885M 15885B 16077M 16080B 16127  16223M 16224M 16224B 16243M
                                                 16244M 16244B 16270M 16271M 16271B 16303M 16306B 16330  16583M 16584M
                                                 16584B 16611M 16612M 16612B 16643M 16644M 16644B 16677M 16678M 16678B
                                                 16694M 16695M 16695B 16711M 16712M 16712B 16735M 16736M 16736B 16759M
                                                 16760M 16760B 16787M 16788M 16788B 16808M 16809M 16809B 16865M 16866M
                                                 16866B 16934M 16935M 16935B 16975M 16976M 16976B 17022M 17023M 17023B
                                                 17075M 17076M 17076B 17114M 17117B 17142  17304M 17305M 17305B 17337M
                                                 17338M 17338B 17354M 17355M 17355B 17378M 17379M 17379B 17442M 17443M
                                                 17443B 17451M 17452M 17452B 17587M 17588M 17588B 17874M 17875M 17875B
                                                 17962M 17965B 17992  18165M 18166M 18166B 18185M 18186M 18186B 18222M
                                                 18223M 18223B 18239M 18240M 18240B 18256M 18257M 18257B 18280M 18281M
                                                 18281B 18304M 18305M 18305B 18348M 18349M 18349B 18380M 18383B 18448
                                                 18625M 18626M 18626B 18846M 18847M 18847B 18932M 18933M 18933B 18976M
                                                 18979B 19002  19092M 19093M 19093B 19121M 19124B 19219  19334M 19335M
                                                 19335B 19377M 19378M 19378B 19520M 19521M 19521B 19547M 19548M 19548B
                                                 19592M 19593M 19593B 19624M 19625M 19625B 19652M 19653M 19653B 19697M
                                                 19698M 19698B 19719M 19720M 19720B 19747M 19748M 19748B 19792M 19793M
                                                 19793B 19815M 19816M 19816B 19846M 19849B 19918  20158M 20159M 20159B
                                                 20236M 20237M 20237B 20391M 20394B 20420  20516M 20517M 20517B 20552M
                                                 20555B 20626  21254M 21255M 21255B 21383M 21384M 21384B 21392M 21393M
                                                 21393B 21449M 21450M 21450B 21475M 21476M 21476B 21529M 21530M 21530B
                                                 21615M 21616M 21616B 21650M 21651M 21651B 21677M 21678M 21678B 21704M
                                                 21705M 21705B 21731M 21732M 21732B 21758M 21759M 21759B 21787M 21788M
                                                 21788B 21814M 21815M 21815B 21843M 21844M 21844B 21847M 21848M 21848B
                                                 21895M 21896M 21896B 21899M 21900M 21900B 21935M 21936M 21936B 21996M
                                                 21997M 21997B 22185M 22186M 22186B 22231M 22234B 22257  22302M 22303M
                                                 22303B 22359M 22360M 22360B 22530M 22531M 22531B 22550M 22551M 22551B
                                                 22565M 22566M 22566B 22601M 22602M 22602B 22628M 22631B 22657  22687M
                                                 22688M 22688B 22815M 22816M 22816B 22859M 22860M 22860B 22944M 22947B
                                                 23047  23161M 23162M 23162B 23165M 23166M 23166B 23191M 23194B 23224
                                                 23417M 23418M 23418B 23440M 23443B 23471  23620M 23621M 23621B 23628M
                                                 23629M 23629B 23683M 23684M 23684B 23832M 23833M 23833B 23859M 23860M
1AMELIA   Ordinary Symbol and Literal Cross Reference                                                                       Page  418
                                                 23860B 23863M 23864M 23864B 23891M 23892M 23892B 23924M 23927B 23952
                                                 24098M 24099M 24099B 24120M 24123B 24143  24254M 24255M 24255B 24275M
                                                 24276M 24276B 24293M 24294M 24294B 24300M 24301M 24301B 24309M 24310M
                                                 24310B 24332M 24335B 24357  24422M 24423M 24423B 24446M 24447M 24447B
                                                 24499M 24500M 24500B 24624M 24627B 24651  24705M 24708B 24728  24804M
                                                 24807B 24827  24864M 24865M 24865B 24886M 24889B 24989  25118M 25119M
                                                 25119B 25137M 25138M 25138B 25171M 25172M 25172B 25188M 25189M 25189B
                                                 25205M 25206M 25206B 25229M 25230M 25230B 25253M 25254M 25254B 25992M
                                                 25993M 25993B 26019M 26020M 26020B 26043M 26044M 26044B 26083M 26084M
                                                 26084B 26100M 26101M 26101B 26124M 26125M 26125B 26136M 26137M 26137B
                                                 26152M 26153M 26153B 26191M 26192M 26192B 26207M 26208M 26208B 26232M
                                                 26233M 26233B 26266M 26267M 26267B 26418M 26419M 26419B 26477M 26478M
                                                 26478B 26618M 26619M 26619B 26677M 26678M 26678B 26924M 26925M 26925B
                                                 26973M 26974M 26974B 26981M 26982M 26982B 27107M 27108M 27108B 27134M
                                                 27135M 27135B 27161M 27162M 27162B 27188M 27189M 27189B 27215M 27216M
                                                 27216B 27242M 27243M 27243B 27269M 27270M 27270B 27298M 27299M 27299B
                                                 27344M 27345M 27345B 27380M 27381M 27381B 27405M 27406M 27406B 27409M
                                                 27410M 27410B 27447M 27448M 27448B 27453M 27454M 27454B 27473M 27474M
                                                 27474B 27493M 27494M 27494B 27499M 27500M 27500B 27776M 27777M 27777B
                                                 27909M 27910M 27910B 27954M 27955M 27955B 28138M 28139M 28139B 28146M
                                                 28147M 28147B 28264M 28265M 28265B 28291M 28292M 28292B 28316M 28317M
                                                 28317B 28320M 28321M 28321B 28371M 28372M 28372B 28398M 28399M 28399B
                                                 28402M 28403M 28403B 28472M 28473M 28473B 28513M 28514M 28514B 28602M
                                                 28603M 28603B 28762M 28763M 28763B 28797M 28800B 28923  29101M 29102M
                                                 29102B 29394M 29395M 29395B 29521M 29522M 29522B 29548M 29549M 29549B
                                                 29552M 29553M 29553B 30083M 30084M 30084B 30866M 30867M 30867B 30892M
                                                 30893M 30893B 30897M 30898M 30898B 30952M 30953M 30953B 30959M 30960M
                                                 30960B 31037M 31040B 31108  31201M 31202M 31202B 31220M 31221M 31221B
                                                 31243M 31244M 31244B 31265M 31266M 31266B 31287M 31290B 31312  31406M
                                                 31407M 31407B 31411M 31412M 31412B 31436M 31439B 31479  31629M 31630M
                                                 31630B 31634M 31635M 31635B 31662M 31665B 31712  31808M 31809M 31809B
                                                 31828M 31829M 31829B 31855M 31856M 31856B 31888M 31891B 31914  31945M
                                                 31946M 31946B 32037M 32038M 32038B 32088M 32091B 32111  32254M 32257B
                                                 32280  32385M 32386M 32386B 32412M 32413M 32413B 32437M 32438M 32438B
                                                 32441M 32442M 32442B 32548M 32549M 32549B 32552M 32553M 32553B 32570M
                                                 32573B 32593  32624M 32625M 32625B 32642M 32645B 32665  32713M 32714M
                                                 32714B 32787M 32788M 32788B 32814M 32815M 32815B 32818M 32819M 32819B
                                                 32859M 32860M 32860B 32885M 32888B 32914  32945M 32946M 32946B 32971M
                                                 32972M 32972B 33007M 33008M 33008B 33030M 33031M 33031B 33056M 33059B
                                                 33079  33155M 33156M 33156B 33198M 33199M 33199B 33228M 33229M 33229B
                                                 33258M 33259M 33259B 33285M 33286M 33286B 33581M 33582M 33582B 33601M
                                                 33604B 33629  33862M 33863M 33863B 33872M 33873M 33873B 33880M 33881M
                                                 33881B 34000M 34001M 34001B 34096M 34097M 34097B 34155M 34156M 34156B
                                                 34190M 34193B 34223  34356M 34359B 34385  34484M 34487B 34510  34658M
                                                 34659M 34659B 34666M 34667M 34667B 34743M 34744M 34744B 34784M 34785M
                                                 34785B 34812M 34815B 34835  34977M 34978M 34978B 35010M 35011M 35011B
                                                 35058M 35059M 35059B 35081M 35084B 35107  35188M 35189M 35189B 35237M
                                                 35238M 35238B 35269M 35272B 35297  35363M 35364M 35364B 35367M 35368M
                                                 35368B 35395M 35398B 35428  35605M 35608B 35643  35789M 35792B 35882
                                                 36004M 36007B 36048  36206M 36209B 36235  36381M 36382M 36382B 36468M
                                                 36471B 36504  36626M 36627M 36627B 36674M 36675M 36675B 36708M 36709M
                                                 36709B 36742M 36745B 36768  36871M 36872M 36872B 36899M 36902B 36956
                                                 37094M 37095M 37095B 37191M 37192M 37192B 37478M 37479M 37479B 37497M
                                                 37498M 37498B 37637M 37638M 37638B 37674M 37677B 37701  37919M 37920M
                                                 37920B 37923M 37924M 37924B 37936M 37937M 37937B 37960M 37961M 37961B
                                                 37980M 37981M 37981B 37997M 37998M 37998B 38026M 38027M 38027B 38031M
                                                 38032M 38032B 38069M 38070M 38070B 38078M 38079M 38079B 38096M 38097M
                                                 38097B 38120M 38123B 38144  38223M 38224M 38224B 38264M 38265M 38265B
                                                 38298M 38301B 38325  38406M 38407M 38407B 38411M 38412M 38412B 38438M
1AMELIA   Ordinary Symbol and Literal Cross Reference                                                                       Page  419
                                                 38439M 38439B 38450M 38451M 38451B 38474M 38477B 38500  38652M 38653M
                                                 38653B 38657M 38658M 38658B 38670M 38671M 38671B 38693M 38696B 38787
                                                 39007M 39008M 39008B 39038M 39039M 39039B 39062M 39063M 39063B 39082M
                                                 39083M 39083B 39099M 39100M 39100B 39123M 39124M 39124B 39153M 39154M
                                                 39154B 39162M 39163M 39163B 39225M 39226M 39226B 39230M 39231M 39231B
                                                 39279M 39280M 39280B 39292M 39293M 39293B 39337M 39338M 39338B 39363M
                                                 39364M 39364B 39381M 39382M 39382B 39398M 39399M 39399B 39422M 39423M
                                                 39423B 39430M 39431M 39431B 39451M 39452M 39452B 39483M 39484M 39484B
                                                 39500M 39501M 39501B 39524M 39525M 39525B 39532M 39533M 39533B 39561M
                                                 39562M 39562B 39633M 39634M 39634B 39715M 39716M 39716B 39745M 39746M
                                                 39746B 39777M 39778M 39778B 39816M 39817M 39817B 39825M 39826M 39826B
                                                 39834M 39835M 39835B 39935M 39936M 39936B 39997M 39998M 39998B 40027M
                                                 40028M 40028B 40092M 40093M 40093B 40124M 40125M 40125B 40137M 40138M
                                                 40138B 40154M 40155M 40155B 40193M 40196B 40246  40345M 40346M 40346B
                                                 40413M 40414M 40414B 40451M 40452M 40452B 40503M 40504M 40504B 40541M
                                                 40542M 40542B 40593M 40594M 40594B 40631M 40632M 40632B 40679M 40682B
                                                 40724  40900M 40901M 40901B 40986M 40987M 40987B 41014M 41015M 41015B
                                                 41047M 41050B 41073  41104M 41105M 41105B 41131M 41132M 41132B 41172M
                                                 41173M 41173B 41195M 41198B 41224  41351M 41354B 41384  41432M 41433M
                                                 41433B 41534M 41535M 41535B 41623M 41624M 41624B 41682M 41685B 41715
                                                 42032M 42035B 42065  42097M 42098M 42098B 42320M 42323B 42445  42558M
                                                 42559M 42559B 42808M 42809M 42809B 43095M 43096M 43096B 43335M 43336M
                                                 43336B 43394M 43395M 43395B 43576M 43577M 43577B 43630M 43631M 43631B
                                                 43734M 43735M 43735B 43865M 43866M 43866B 43929M 43932B 43955  44043M
                                                 44044M 44044B 44076M 44079B 44101  44145M 44146M 44146B 44163M 44164M
                                                 44164B 44233M 44234M 44234B 44264M 44265M 44265B 44283M 44286B 44310
                                                 44419M 44420M 44420B 44423M 44424M 44424B 44450M 44451M 44451B 44474M
                                                 44475M 44475B 44492M 44493M 44493B 44541M 44542M 44542B 44564M 44567B
                                                 44594  44624M 44625M 44625B 44628M 44629M 44629B 44650M 44651M 44651B
                                                 44754M 44757B 44782  44895M 44896M 44896B 44926M 44929B 44978  45091M
                                                 45092M 45092B 45297M 45300B 45326  45467M 45470B 45494  45650M 45653B
                                                 45678  45708M 45709M 45709B 45914M 45917B 46001  46182M 46183M 46183B
                                                 46198M 46199M 46199B 46231M 46232M 46232B 46274M 46275M 46275B 46490M
                                                 46491M 46491B 46518M 46519M 46519B 46545M 46546M 46546B 46579M 46580M
                                                 46580B 46601M 46602M 46602B 46614M 46615M 46615B 46641M 46642M 46642B
                                                 46672M 46673M 46673B 46784M 46785M 46785B 46862M 46863M 46863B 46888M
                                                 46889M 46889B 46912M 46913M 46913B 46925M 46926M 46926B 47004M 47005M
                                                 47005B 47033M 47034M 47034B 47063M 47064M 47064B 47101M 47102M 47102B
                                                 47114M 47115M 47115B 47153M 47154M 47154B 47177M 47178M 47178B 47377M
                                                 47378M 47378B 47383M 47384M 47384B 47416M 47417M 47417B 47454M 47455M
                                                 47455B 47582M 47583M 47583B 47603M 47604M 47604B 47633M 47634M 47634B
                                                 47833M 47834M 47834B 47839M 47840M 47840B 47861M 47862M 47862B 47896M
                                                 47897M 47897B 47917M 47918M 47918B 47947M 47948M 47948B 48067M 48068M
                                                 48068B 48097M 48098M 48098B 48227M 48228M 48228B 48324M 48325M 48325B
                                                 48456M 48457M 48457B 48486M 48487M 48487B 48554M 48555M 48555B 48569M
                                                 48570M 48570B 48696M 48697M 48697B 48720M 48721M 48721B 48742M 48743M
                                                 48743B 48839M 48840M 48840B 48925M 48926M 48926B 48935M 48936M 48936B
                                                 48965M 48966M 48966B 49277M 49278M 49278B 49409M 49410M 49410B 49439M
                                                 49440M 49440B 49607M 49608M 49608B 49637M 49638M 49638B 49767M 49768M
                                                 49768B 49820M 49821M 49821B 49842M 49843M 49843B 49864M 49865M 49865B
                                                 49954M 49955M 49955B 49976M 49977M 49977B 49998M 49999M 49999B 50029M
                                                 50030M 50030B 50051M 50052M 50052B 50073M 50074M 50074B 50163M 50164M
                                                 50164B 50185M 50186M 50186B 50207M 50208M 50208B 50269M 50270M 50270B
                                                 50291M 50292M 50292B 50324M 50325M 50325B 50364M 50365M 50365B 50387M
                                                 50388M 50388B 50403M 50404M 50404B 50433M 50434M 50434B 50448M 50449M
                                                 50449B 50460M 50461M 50461B 50486M 50487M 50487B 50521M 50522M 50522B
                                                 50567M 50568M 50568B 50608M 50609M 50609B 50639M 50640M 50640B 50650M
                                                 50651M 50651B 50666M 50667M 50667B 50680M 50681M 50681B 50777M 50778M
                                                 50778B 50982M 50983M 50983B 51004M 51005M 51005B 51083M 51084M 51084B
1AMELIA   Ordinary Symbol and Literal Cross Reference                                                                       Page  420
                                                 51114M 51115M 51115B 51143M 51144M 51144B 51209M 51210M 51210B 51224M
                                                 51225M 51225B 51251M 51252M 51252B 51256M 51257M 51257B 51289M 51290M
                                                 51290B 51315M 51316M 51316B 51378M 51379M 51379B 51400M 51401M 51401B
                                                 51422M 51423M 51423B 51438M 51439M 51439B 51471M 51472M 51472B 51496M
                                                 51497M 51497B 51512M 51513M 51513B 51531M 51532M 51532B 51547M 51548M
                                                 51548B 51580M 51581M 51581B 51599M 51600M 51600B 51615M 51616M 51616B
                                                 51621M 51622M 51622B 51643M 51644M 51644B 51659M 51660M 51660B 51704M
                                                 51705M 51705B 51725M 51726M 51726B 51753M 51754M 51754B 51786M 51787M
                                                 51787B 51923M 51924M 51924B 52044M 52045M 52045B 52141M 52142M 52142B
                                                 52193M 52194M 52194B 52245M 52246M 52246B 52302M 52303M 52303B 52321M
                                                 52322M 52322B 52336M 52337M 52337B 52355M 52356M 52356B 52370M 52371M
                                                 52371B 52389M 52390M 52390B 52411M 52412M 52412B 52433M 52434M 52434B
                                                 52459M 52460M 52460B 52486M 52487M 52487B 52512M 52513M 52513B 52555M
                                                 52556M 52556B 52571M 52572M 52572B 52587M 52588M 52588B 52630M 52633B
                                                 52767  52960M 52963B 53008  53073M 53074M 53074B 53089M 53090M 53090B
                                                 53096M 53097M 53097B 53118M 53119M 53119B 53134M 53135M 53135B 53151M
                                                 53152M 53152B 53166M 53167M 53167B 53188M 53189M 53189B 53204M 53205M
                                                 53205B 53216M 53217M 53217B 53238M 53239M 53239B 53270M 53271M 53271B
                                                 53286M 53287M 53287B 53322M 53323M 53323B 53365M 53366M 53366B 53381M
                                                 53382M 53382B 53388M 53389M 53389B 53410M 53411M 53411B 53442M 53443M
                                                 53443B 53482M 53483M 53483B 53497M 53498M 53498B 53527M 53528M 53528B
                                                 53574M 53575M 53575B 53590M 53591M 53591B 53597M 53598M 53598B 53619M
                                                 53620M 53620B 53662M 53663M 53663B 53678M 53679M 53679B 53685M 53686M
                                                 53686B 53707M 53708M 53708B 53750M 53751M 53751B 53766M 53767M 53767B
                                                 53808M 53809M 53809B 53824M 53825M 53825B 53866M 53867M 53867B 53882M
                                                 53883M 53883B 53924M 53925M 53925B 53940M 53941M 53941B 53977M 53978M
                                                 53978B 53999M 54000M 54000B 54015M 54016M 54016B 54052M 54053M 54053B
                                                 54074M 54075M 54075B 54090M 54091M 54091B 54111M 54112M 54112B 54128M
                                                 54129M 54129B 54150M 54151M 54151B 54165M 54166M 54166B 54184M 54185M
                                                 54185B 54199M 54200M 54200B 54218M 54219M 54219B 54234M 54235M 54235B
                                                 54256M 54257M 54257B 54272M 54273M 54273B 54294M 54295M 54295B 54310M
                                                 54311M 54311B 54332M 54333M 54333B 54348M 54349M 54349B 54386M 54387M
                                                 54387B 54402M 54403M 54403B 54444M 54445M 54445B 54460M 54461M 54461B
                                                 54502M 54503M 54503B 54518M 54519M 54519B 54560M 54561M 54561B 54576M
                                                 54577M 54577B 54618M 54619M 54619B 54634M 54635M 54635B 54676M 54677M
                                                 54677B 54692M 54693M 54693B 54713M 54714M 54714B 54735M 54736M 54736B
                                                 54751M 54752M 54752B 54773M 54774M 54774B 54789M 54790M 54790B 54811M
                                                 54812M 54812B 54827M 54828M 54828B 54849M 54850M 54850B 54865M 54866M
                                                 54866B 54903M 54904M 54904B 54919M 54920M 54920B 54945M 54946M 54946B
                                                 54960M 54961M 54961B 54991M 54992M 54992B 55010M 55011M 55011B 55025M
                                                 55026M 55026B 55051M 55052M 55052B 55074M 55075M 55075B 55089M 55090M
                                                 55090B 55108M 55109M 55109B 55130M 55131M 55131B 55147M 55148M 55148B
                                                 55166M 55167M 55167B 55182M 55183M 55183B 55201M 55202M 55202B 55223M
                                                 55224M 55224B 55240M 55241M 55241B 55259M 55260M 55260B 55275M 55276M
                                                 55276B 55294M 55295M 55295B 55316M 55317M 55317B 55333M 55334M 55334B
                                                 55355M 55356M 55356B 55391M 55392M 55392B 55406M 55407M 55407B 55431M
                                                 55432M 55432B 55474M 55475M 55475B 55496M 55497M 55497B 55532M 55533M
                                                 55533B 55547M 55548M 55548B 55572M 55573M 55573B 55609M 55612B 55721
                                                 55789M 55790M 55790B 55807M 55808M 55808B 55822M 55823M 55823B 55848M
                                                 55849M 55849B 55917M 55918M 55918B 55928M 55929M 55929B 55950M 55951M
                                                 55951B 55991M 55992M 55992B 55998M 55999M 55999B 56020M 56021M 56021B
                                                 56057M 56058M 56058B 56076M 56077M 56077B 56098M 56099M 56099B 56135M
                                                 56136M 56136B 56154M 56155M 56155B 56176M 56177M 56177B 56213M 56214M
                                                 56214B 56232M 56233M 56233B 56254M 56255M 56255B 56291M 56292M 56292B
                                                 56310M 56311M 56311B 56325M 56326M 56326B 56344M 56345M 56345B 56360M
                                                 56361M 56361B 56392M 56393M 56393B 56411M 56412M 56412B 56426M 56427M
                                                 56427B 56452M 56453M 56453B 56489M 56490M 56490B 56508M 56509M 56509B
                                                 56523M 56524M 56524B 56542M 56543M 56543B 56558M 56559M 56559B 56590M
                                                 56591M 56591B 56609M 56610M 56610B 56624M 56625M 56625B 56650M 56651M
1AMELIA   Ordinary Symbol and Literal Cross Reference                                                                       Page  421
                                                 56651B 56686M 56687M 56687B 56708M 56709M 56709B 56741M 56742M 56742B
                                                 56756M 56757M 56757B 56775M 56776M 56776B 56790M 56791M 56791B 56822M
                                                 56823M 56823B 56858M 56859M 56859B 56880M 56881M 56881B 56913M 56914M
                                                 56914B 56928M 56929M 56929B 56947M 56948M 56948B 56962M 56963M 56963B
                                                 56994M 56995M 56995B 57026M 57029B 57114  57183M 57184M 57184B 57202M
                                                 57203M 57203B 57217M 57218M 57218B 57253M 57254M 57254B 57285M 57286M
                                                 57286B 57304M 57305M 57305B 57323M 57324M 57324B 57342M 57343M 57343B
                                                 57347M 57348M 57348B 57375M 57376M 57376B 57399M 57400M 57400B 57415M
                                                 57416M 57416B 57441M 57442M 57442B 57458M 57459M 57459B 57500M 57501M
                                                 57501B 57539M 57540M 57540B 57565M 57566M 57566B 57610M 57611M 57611B
                                                 57642M 57643M 57643B 57678M 57679M 57679B 57702M 57703M 57703B 57716M
                                                 57717M 57717B 57738M 57739M 57739B 57771M 57772M 57772B 57819M 57820M
                                                 57820B 57834M 57835M 57835B 57865M 57866M 57866B 57884M 57885M 57885B
                                                 57893M 57894M 57894B 57921M 57922M 57922B 57945M 57946M 57946B 57961M
                                                 57962M 57962B 57987M 57988M 57988B 58055M 58056M 58056B 58074M 58075M
                                                 58075B 58089M 58090M 58090B 58108M 58109M 58109B 58123M 58124M 58124B
                                                 58142M 58143M 58143B 58157M 58158M 58158B 58178M 58179M 58179B 58193M
                                                 58194M 58194B 58214M 58215M 58215B 58236M 58237M 58237B 58252M 58253M
                                                 58253B 58271M 58272M 58272B 58286M 58287M 58287B 58305M 58306M 58306B
                                                 58320M 58321M 58321B 58352M 58353M 58353B 58371M 58372M 58372B 58386M
                                                 58387M 58387B 58412M 58413M 58413B 58429M 58430M 58430B 58448M 58449M
                                                 58449B 58463M 58464M 58464B 58482M 58483M 58483B 58497M 58498M 58498B
                                                 58529M 58530M 58530B 58548M 58549M 58549B 58563M 58564M 58564B 58589M
                                                 58590M 58590B 58622M 58623M 58623B 58642M 58643M 58643B 58658M 58659M
                                                 58659B 58692M 58693M 58693B 58707M 58708M 58708B 58733M 58734M 58734B
                                                 58772M 58773M 58773B 58778M 58779M 58779B 58800M 58801M 58801B 58822M
                                                 58823M 58823B 58859M 58860M 58860B 58865M 58866M 58866B 58887M 58888M
                                                 58888B 58914M 58915M 58915B 58933M 58934M 58934B 58949M 58950M 58950B
                                                 58991M 58992M 58992B 59030M 59031M 59031B 59036M 59037M 59037B 59058M
                                                 59059M 59059B 59080M 59081M 59081B 59118M 59119M 59119B 59124M 59125M
                                                 59125B 59146M 59147M 59147B 59173M 59174M 59174B 59192M 59193M 59193B
                                                 59207M 59208M 59208B 59238M 59239M 59239B 59264M 59265M 59265B 59306M
                                                 59307M 59307B 59343M 59344M 59344B 59379M 59380M 59380B 59415M 59416M
                                                 59416B 59438M 59439M 59439B 59522M 59523M 59523B 59534M 59535M 59535B
                                                 59556M 59557M 59557B 59573M 59574M 59574B 59592M 59593M 59593B 59610M
                                                 59611M 59611B 59703M 59704M 59704B 59734M 59735M 59735B 59767M 59768M
                                                 59768B 59789M 59790M 59790B 59819M 59820M 59820B 59841M 59842M 59842B
                                                 59876M 59877M 59877B 59911M 59912M 59912B 59946M 59947M 59947B 59972M
                                                 59973M 59973B 59996M 59997M 59997B 60051M 60052M 60052B 60081M 60082M
                                                 60082B 60112M 60113M 60113B 60130M 60131M 60131B 60145M 60146M 60146B
                                                 60171M 60172M 60172B 60202M 60203M 60203B 60230M 60231M 60231B 60290M
                                                 60291M 60291B 60312M 60313M 60313B 60339M 60340M 60340B 60366M 60367M
                                                 60367B 60423M 60424M 60424B 60450M 60451M 60451B 60506M 60507M 60507B
                                                 60611M 60612M 60612B 60656M 60657M 60657B 60678M 60679M 60679B 60693M
                                                 60694M 60694B 60721M 60722M 60722B 60753M 60754M 60754B 60772M 60773M
                                                 60773B 60798M 60799M 60799B 60848M 60849M 60849B 60864M 60865M 60865B
                                                 60886M 60887M 60887B 60908M 60909M 60909B 60924M 60925M 60925B 60950M
                                                 60951M 60951B 60982M 60985B 61147  61249M 61250M 61250B 61271M 61272M
                                                 61272B 61292M 61293M 61293B 61307M 61308M 61308B 61329M 61330M 61330B
                                                 61350M 61351M 61351B 61365M 61366M 61366B 61497M 61498M 61498B 61523M
                                                 61524M 61524B 61538M 61539M 61539B 61557M 61558M 61558B 61579M 61580M
                                                 61580B 61794M 61795M 61795B 61827M 61828M 61828B 61848M 61849M 61849B
                                                 61868M 61869M 61869B 61921M 61922M 61922B 61956M 61957M 61957B 62028M
                                                 62029M 62029B 62087M 62088M 62088B 62120M 62121M 62121B 62204M 62205M
                                                 62205B 62239M 62240M 62240B 62316M 62317M 62317B 62375M 62376M 62376B
                                                 62413M 62414M 62414B 62533M 62534M 62534B 62557M 62558M 62558B 62587M
                                                 62588M 62588B 62602M 62603M 62603B 62617M 62618M 62618B 62632M 62633M
                                                 62633B 62647M 62648M 62648B 62672M 62673M 62673B 62700M 62701M 62701B
                                                 62722M 62723M 62723B 62741M 62742M 62742B 62775M 62776M 62776B 62822M
1AMELIA   Ordinary Symbol and Literal Cross Reference                                                                       Page  422
                                                 62823M 62823B 62869M 62870M 62870B 62909M 62910M 62910B 62928M 62929M
                                                 62929B 62947M 62948M 62948B 62969M 62970M 62970B 63033M 63034M 63034B
                                                 63085M 63086M 63086B 63109M 63110M 63110B 63124M 63125M 63125B 63148M
                                                 63149M 63149B 63183M 63184M 63184B 63222M 63223M 63223B 63248M 63249M
                                                 63249B 63301M 63302M 63302B 63366M 63367M 63367B 63391M 63392M 63392B
                                                 63406M 63407M 63407B 63431M 63432M 63432B 63446M 63447M 63447B 63467M
                                                 63468M 63468B 63499M 63500M 63500B 63525M 63526M 63526B 63577M 63578M
                                                 63578B 63642M 63643M 63643B 63667M 63668M 63668B 63682M 63683M 63683B
                                                 63707M 63708M 63708B 63722M 63723M 63723B 63754M 63755M 63755B 63790M
                                                 63791M 63791B 63826M 63827M 63827B 63862M 63863M 63863B 63898M 63899M
                                                 63899B 63917M 63918M 63918B 63939M 63940M 63940B 63969M 63970M 63970B
                                                 63991M 63992M 63992B 64010M 64011M 64011B 64035M 64036M 64036B 64050M
                                                 64051M 64051B 64073M 64074M 64074B 64095M 64096M 64096B 64162M 64163M
                                                 64163B 64187M 64188M 64188B 64209M 64210M 64210B 64271M 64272M 64272B
                                                 64342M 64343M 64343B 64426M 64427M 64427B 64460M 64463B 64588  64661M
                                                 64662M 64662B 64676M 64677M 64677B 64701M 64702M 64702B 64717M 64718M
                                                 64718B 64749M 64750M 64750B 64785M 64786M 64786B 64821M 64822M 64822B
                                                 64857M 64858M 64858B 64876M 64877M 64877B 64903M 64904M 64904B 64936M
                                                 64937M 64937B 64973M 64974M 64974B 65010M 65011M 65011B 65047M 65048M
                                                 65048B 65084M 65085M 65085B 65110M 65111M 65111B 65129M 65130M 65130B
                                                 65183M 65184M 65184B 65198M 65199M 65199B 65205M 65206M 65206B 65245M
                                                 65246M 65246B 65260M 65261M 65261B 65294M 65295M 65295B 65340M 65341M
                                                 65341B 65386M 65387M 65387B 65432M 65433M 65433B 65467M 65468M 65468B
                                                 65504M 65505M 65505B 65523M 65524M 65524B 65549M 65550M 65550B 65592M
                                                 65593M 65593B 65634M 65635M 65635B 65712M 65713M 65713B 65754M 65755M
                                                 65755B 65832M 65833M 65833B 65874M 65875M 65875B 65943M 65944M 65944B
                                                 65970M 65971M 65971B 66012M 66013M 66013B 66056M 66057M 66057B 66088M
                                                 66089M 66089B 66110M 66111M 66111B 66125M 66126M 66126B 66159M 66160M
                                                 66160B 66206M 66207M 66207B 66253M 66254M 66254B 66300M 66301M 66301B
                                                 66347M 66348M 66348B 66394M 66395M 66395B 66441M 66442M 66442B 66488M
                                                 66489M 66489B 66535M 66536M 66536B 66569M 66570M 66570B 66607M 66608M
                                                 66608B 66625M 66626M 66626B 66645M 66646M 66646B 66664M 66665M 66665B
                                                 66698M 66699M 66699B 66717M 66718M 66718B 66732M 66733M 66733B 66758M
                                                 66759M 66759B 66805M 66806M 66806B 66820M 66821M 66821B 66842M 66843M
                                                 66843B 66921M 66922M 66922B 66947M 66948M 66948B 66994M 66995M 66995B
                                                 67002M 67003M 67003B 67042M 67043M 67043B 67060M 67061M 67061B 67075M
                                                 67076M 67076B 67082M 67083M 67083B 67122M 67123M 67123B 67140M 67141M
                                                 67141B 67155M 67156M 67156B 67174M 67175M 67175B 67189M 67190M 67190B
                                                 67208M 67209M 67209B 67223M 67224M 67224B 67242M 67243M 67243B 67257M
                                                 67258M 67258B 67276M 67277M 67277B 67291M 67292M 67292B 67310M 67311M
                                                 67311B 67332M 67333M 67333B 67420M 67421M 67421B 67445M 67446M 67446B
                                                 67501M 67502M 67502B 67527M 67528M 67528B 67576M 67577M 67577B 67591M
                                                 67592M 67592B 67606M 67607M 67607B 67646M 67647M 67647B 67692M 67693M
                                                 67693B 67727M 67728M 67728B 67746M 67747M 67747B 67791M 67792M 67792B
                                                 67823M 67824M 67824B 67855M 67856M 67856B 67879M 67880M 67880B 67922M
                                                 67925B 67949  68020M 68021M 68021B 68038M 68039M 68039B 68088M 68089M
                                                 68089B 68122M 68123M 68123B 68172M 68173M 68173B 68208M 68209M 68209B
                                                 68254M 68255M 68255B 68290M 68291M 68291B 68305M 68306M 68306B 68330M
                                                 68331M 68331B 68369M 68370M 68370B 68384M 68385M 68385B 68428M 68429M
                                                 68429B 68449M 68450M 68450B 68501M 68502M 68502B 68528M 68529M 68529B
                                                 68551M 68554B 68708  68788M 68789M 68789B 68835M 68836M 68836B 68867M
                                                 68870B 68932  69061M 69062M 69062B 69100M 69101M 69101B 69217M 69218M
                                                 69218B 69358M 69359M 69359B 69386M 69389B 69425  69490M 69491M 69491B
                                                 69543M 69546B 69605  69879M 69882B 69906  69996M 69997M 69997B 70016M
                                                 70017M 70017B 70045M 70048B 70068  70103M 70104M 70104B 70253M 70256B
                                                 70304  70436M 70439B 70463  70612M 70613M 70613B 70622M 70623M 70623B
                                                 70626M 70627M 70627B 70668M 70669M 70669B 70686M 70687M 70687B 70715M
                                                 70716M 70716B 70743M 70744M 70744B 70747M 70748M 70748B 70782M 70785B
                                                 70829  70995M 70996M 70996B 71035M 71036M 71036B 71094M 71095M 71095B
1AMELIA   Ordinary Symbol and Literal Cross Reference                                                                       Page  423
                                                 71175M 71176M 71176B 71266M 71267M 71267B 71280M 71281M 71281B 71307M
                                                 71308M 71308B 71328M 71329M 71329B 71352M 71353M 71353B 71383M 71384M
                                                 71384B 71410M 71411M 71411B 71437M 71438M 71438B 71462M 71463M 71463B
                                                 71486M 71487M 71487B 71518M 71521B 71544  71672M 71673M 71673B 71681M
                                                 71682M 71682B 71704M 71707B 71734  71984M 71987B 72014  72142M 72143M
                                                 72143B 72364M 72367B 72414  72708M 72709M 72709B 72827M 72830B 72857
                                                 73176M 73177M 73177B 73203M 73206B 73264  73674M 73677B 73703  73974M
                                                 73977B 74024  74435M 74436M 74436B 74441M 74442M 74442B 74465M 74466M
                                                 74466B 74497M 74498M 74498B 74530M 74531M 74531B 74562M 74563M 74563B
                                                 74601M 74604B 74742  74867M 74868M 74868B 74950M 74951M 74951B 74960M
                                                 74961M 74961B 75209M 75212B 75276  75420M 75423B 75447  75498M 75501B
                                                 75521  75571M 75574B 75678M 75679M 75679B 75692M 75693M 75693B 75716M
                                                 75717M 75717B 75751M 75752M 75752B 75779M 75780M 75780B 75812M 75813M
                                                 75813B 75854M 75855M 75855B 75879M 75880M 75880B 75911M 75912M 75912B
                                                 75932M 75933M 75933B 75960M 75961M 75961B 75983M 75984M 75984B 75987M
                                                 75988M 75988B 76034M 76035M 76035B 76051M 76052M 76052B 76076M 76077M
                                                 76077B 76124M 76125M 76125B 76145M 76146M 76146B 76162M 76163M 76163B
                                                 76190M 76191M 76191B 76208M 76209M 76209B 76233M 76234M 76234B 76281M
                                                 76282M 76282B 76302M 76303M 76303B 76319M 76320M 76320B 76347M 76348M
                                                 76348B 76366M 76367M 76367B 76384M 76385M 76385B 76408M 76409M 76409B
                                                 76449M 76450M 76450B 76473M 76474M 76474B 76515M 76516M 76516B 76533M
                                                 76534M 76534B 76561M 76562M 76562B 76579M 76580M 76580B 76597M 76598M
                                                 76598B 76614M 76615M 76615B 76632M 76633M 76633B 76719M 76720M 76720B
                                                 76736M 76737M 76737B 76742M 76743M 76743B 76766M 76767M 76767B 76793M
                                                 76794M 76794B 76810M 76811M 76811B 76834M 76835M 76835B 76851M 76852M
                                                 76852B 76875M 76876M 76876B 76892M 76893M 76893B 76916M 76917M 76917B
                                                 76965M 76966M 76966B 76997M 76998M 76998B 77021M 77022M 77022B 77038M
                                                 77039M 77039B 77066M 77067M 77067B 77090M 77091M 77091B 77139M 77140M
                                                 77140B 77157M 77158M 77158B 77175M 77176M 77176B 77181M 77182M 77182B
                                                 77205M 77206M 77206B 77229M 77230M 77230B 77248M 77249M 77249B 77283M
                                                 77284M 77284B 77317M 77318M 77318B 77335M 77336M 77336B 77359M 77360M
                                                 77360B 77383M 77384M 77384B 77405M 77406M 77406B 77414M 77415M 77415B
                                                 77453M 77454M 77454B 77471M 77472M 77472B 77489M 77490M 77490B 77513M
                                                 77514M 77514B 77522M 77523M 77523B 77546M 77547M 77547B 77564M 77565M
                                                 77565B 77582M 77583M 77583B 77600M 77601M 77601B 77628M 77629M 77629B
                                                 77652M 77653M 77653B 77680M 77681M 77681B 77698M 77699M 77699B 77707M
                                                 77708M 77708B 77725M 77726M 77726B 77743M 77744M 77744B 77752M 77753M
                                                 77753B 77770M 77771M 77771B 77775M 77776M 77776B 77829  77897M 77898M
                                                 77898B 77950M 77951M 77951B 77969M 77972B 78086  78146M 78147M 78147B
                                                 78158M 78159M 78159B 78191M 78192M 78192B 78217M 78218M 78218B 78232M
                                                 78233M 78233B 78251M 78252M 78252B 78273M 78274M 78274B 78308M 78309M
                                                 78309B 78318M 78319M 78319B 78376M 78377M 78377B 78533M 78534M 78534B
                                                 78570M 78571M 78571B 78598M 78601B 78646  78751M 78752M 78752B 78777M
                                                 78778M 78778B 78821M 78822M 78822B 78893M 78894M 78894B 78914M 78915M
                                                 78915B 78935M 78936M 78936B 78956M 78957M 78957B 79062M 79063M 79063B
                                                 79066M 79067M 79067B 79208M 79211B 79236  79424M 79425M 79425B 79534M
                                                 79537B 79608  79699M 79700M 79700B 79741M 79742M 79742B 79806M 79809B
                                                 79836  79959M 79962B 79985  80173M 80176B 80248  80337M 80340B 80360
                                                 80490M 80493B 80510  80579M 80581B 80598  80675M 80677B 80694  80798M
                                                 80800B 80821  80906M 80908B 80927  81095M 81098B 81148  81505M 81508B
                                                 81534  81615M 81629M 81676M 81677M 81677B 81698M 81699M 81699B 81753M
                                                 81972M 81975B 82001  82035M 82042M 82049M 82084M 82087B 82113  82151M
                                                 82158M 82168M 82174M 82260M 82263B 82287  82319M 82347M 82348M 82348B
                                                 82375M 82376M 82376B 82398M 82399M 82399B 82434M 82437B 82461  82493M
                                                 82529M 82530M 82530B 82618M 82619M 82619B 82641M 82642M 82642B 82677M
                                                 82680B 82706  82832M 82835B 82868  82899M 82929M 82930M 82930B 82965M
                                                 82968B 82993  83128M 83131B 83156  83361M 83364B 83381  83480M 83483B
                                                 83601  83715M 83718B 83746  83908M 83910B 83923M 83932  83983M 84009M
                                                 84012B 84035  84065M 84079M 84080M 84080B 84097M 84100B 84123  84153M
1AMELIA   Ordinary Symbol and Literal Cross Reference                                                                       Page  424
                                                 84167M 84168M 84168B 84185M 84188B 84211  84241M 84255M 84256M 84256B
                                                 84266M 84267M 84267B 84284M 84287B 84310  84340M 84372M 84373M 84373
                                                 84379M 84379B 84427M 84430B 84461  84590M 84593B 84611  84686M 84687M
                                                 84687  84694M 84694B 84791M 84792M 84792  84799M 84799B 84955M 84956M
                                                 84956  84963M 84963B 84994M 84998B 85024  85122M 85123M 85123B 85145M
                                                 85148B 85174  85259M 85260M 85260B 85290M 85291M 85291B 85313M 85316B
                                                 85342  85399M 85400M 85400  85407M 85407B 85445M 85448B 85483B 85509
                                                 85558M 85559M 85559B 85579M 85580M 85580B 85601M 85604B 85630  85679M
                                                 85680M 85680B 85700M 85701M 85701B 85722M 85725B 85744  85778M 85779M
                                                 85779B 85799M 85800M 85800B 85817M 85820B 85839  85915M 85916M 85916B
                                                 85949M 85950M 85950B 85976M 85979B
 RCVARP        2 00001F5C 00000001     H   15173 13509  15145
 RCVFRAG       2 000027EA 00000001     H   18437 19151
 RCVICMP       2 000024D8 00000001     H   17131 19152
 RCVIP         2 00002280 00000001     H   16319 13510  15146
 RCVIPXIT      2 000024CA 00000001     H   17085 16401B 16447B 16498B
 RCVNSIP       4 0000031C FFFFFFB8     F   38761 38840M 39088  39387  39489
 RCVNSM        2 0000698A 00000001     H   38775 19161
 RCVNSMW     800 00000000 FFFFFFB8     J   38768 38793  38821U 40191  40193  40194
 RCVNSMX       4 00006D22 00000001     I   40151 39534B 39588B 39858B
 RCVTCP        2 00003F34 00000001     H   24977 19153
 RCVUDP        2 000026C2 00000001     H   17981 19154
 REDITWA      17 00000020 FFFFFF9B     C   80199 80986  80988M 80989M 80990M 81025  81025  81042  81042
 RMBRANCH      1 00000000 00000000 A   T    2659  2659
 RR#A          1 00000001 FFFFFFCE A   U    7385 21519  22520  22765  22847  39694  39910  39931  39970  42370  43043
                                                 43070  43151  43443  43552  43725  44695  45942  46985  47517  50584
                                                 52655  68054  68579  68606
 RR#ALL        1 000000FF FFFFFFCE A   U    7394 38716  46780  68582
 RR#CNAME      1 00000005 FFFFFFCE A   U    7387 42371  42798  43378  45217  68153  68608
 RR#HINFO      1 0000000D FFFFFFCE A   U    7391 68612
 RR#MX         1 0000000F FFFFFFCE A   U    7392 22526  22738  37820  39925  42372  42498  42783  43222  43363  43514
                                                 43776  47566  47671  68235  68482  68580  68613
 RR#NS         1 00000002 FFFFFFCE A   U    7386 42375  68607
 RR#PTR        1 0000000C FFFFFFCE A   U    7390 37210  37835  42355  42373  43028  43085  43458  43567  50599  68069
                                                 68102  68581  68611
 RR#SOA        1 00000006 FFFFFFCE A   U    7388 68609
 RR#TXT        1 00000010 FFFFFFCE A   U    7393 68614
 RR#WKS        1 0000000B FFFFFFCE A   U    7389 68610
 RTCPDATA      4 00000020 FFFFFFBC     A   24948 27994
 RTCPDLEN      4 0000001C FFFFFFBC     A   24947 25313M 26341M 26341  27995
 RTCPENDS      4 0000002C FFFFFFBC     A   24951 25361M 26315  26764  26792  27705  28105  28111  28713
 RTCPEXIT      2 000049A2 00000001     H   28768 25291B 25306B 25801B 25837B 26479B 26606B 26620B 26648B 26926B 26983B
                                                 27956B 28148B 28632B 28652B
 RTCPFIN       2 000048D8 00000001     H   28495 26275B 26895B 27010B 27584B 27822B 27986B
 RTCPFLAG      1 00000060 FFFFFFBC     R   24957 24961
 RTCPFOUT    128 00000060 FFFFFFBC        24961 25086  26255  26294  28503  28582M
 RTCPHDR      20 00000000 FFFFFFBC     C   24944 25419M 25420
 RTCPMSS       4 00000030 FFFFFFBC     F   24952 25411M 26165  26664M 26664  26670
 RTCPNEXT      2 00003F5E 00000001     H   25040 28583B
 RTCPPADD      4 00000018 FFFFFFBC     A   24946 27800
 RTCPPHD      12 00000034 FFFFFFBC     X   24953 25093M 25094M 25095M 25096M 25106  25111
 RTCPPLEN      4 00000014 FFFFFFBC     A   24945 25041M 27773  27782  27795
 RTCPRST       2 0000493E 00000001     H   28641 25749B 25819B 26045B 26126B 26548B 26563B 27549  27551
 RTCPTCPA      4 00000028 FFFFFFBC     A   24950 26414
 RTCPTCPL      4 00000024 FFFFFFBC     A   24949 25061M 26261  26413
 RTCPTEMP     32 00000040 FFFFFFBC     X   24954 25092M 25120  25268  27341  27352M 27362
 RTCPWORK     97 00000000 FFFFFFBC     J   24970 24995  25023U 25033M 25033  28795  28797  28798
 RTRIM         2 0000EEFC 00000001     H   80242 23002  42363  45927  80238
 R0            0 00000000 00000001 A   #     769  8730   9179M  9180   9207M  9208   9362M  9374   9461M  9479M  9498M
1AMELIA   Ordinary Symbol and Literal Cross Reference                                                                       Page  425
                                                  9498   9541M  9541   9557M  9580M  9675M  9707M 10243M 10244M 10245
                                                 10308  10316M 10466M 11068M 11069M 11070  11136M 11212M 11225M 11250M
                                                 11250  11310M 11498M 11499M 11500  11506M 11507M 11508  11514M 11515M
                                                 11516  11522M 11523M 11524  11530M 11531M 11532  11585M 11586M 11587
                                                 11674M 11675M 11683  11941M 11942M 11943  11949M 12092M 12268M 12293M
                                                 12326M 12351M 12353M 12422M 12423M 12424  12432M 12433M 12434  12450M
                                                 12715M 12716M 12717  12722M 12743M 12743  12763M 12932M 12933M 12934
                                                 12938M 12939M 12940  12941M 12979M 12980  13045M 13046M 13047  13150M
                                                 13160  13167  13176M 13201M 13218M 13241M 13274M 13303M 13324M 13353M
                                                 13386M 13409M 13437M 13437  13624  13669M 13702M 13703M 13704M 13806M
                                                 13807M 13808  13834  13840  13991M 14065M 14091M 14091  14115M 14115
                                                 14332M 14342  14353M 14394M 14395M 14396M 14446M 14447M 14448M 14471M
                                                 14472M 14473M 14637M 14817M 14842M 14875M 14900M 14902M 14953M 14954M
                                                 14955  14959M 14960M 14961  14977M 15215  15236M 15237M 15238M 15495M
                                                 15640  15660  15700  15723M 15724M 15725  15766M 15767  15789M 15814M
                                                 15843M 15920M 15921M 15922  15926M 15927M 15928  15963M 15964M 15965
                                                 15969M 15970M 15971  16006M 16007M 16008  16012M 16013M 16014  16033M
                                                 16034M 16035  16039M 16040M 16041  16216M 16217M 16217  16237M 16266M
                                                 16359  16454M 16467M 16467  16511M 16572M 16599M 16637M 16666M 16700M
                                                 16724M 16748M 16748  16775M 16792M 16793M 16794  16887  16900M 17181
                                                 17190  17211M 17212M 17213M 17298M 17326M 17367M 17367  17436M 17447M
                                                 17554M 17565  17576M 17763M 17786M 17813M 17840M 17867M 18034  18158M
                                                 18159M 18159  18179M 18211M 18245M 18269M 18293M 18293  18309M 18310M
                                                 18311  18622M 18631M 18632M 18633M 18634  18636  18657M 18658M 18659M
                                                 18843M 18942M 18945  18945M 19071M 19072M 19073  19252  19373M 19373
                                                 19448M 19449M 19466M 19509M 19536M 19550M 19550  19553  19565M 19613M
                                                 19641M 19686M 19708M 19736M 19750M 19750  19753  19765M 19810M 19966
                                                 20230M 20230  20231M 20273M 20273  20294M 20294  20315M 20315  20336M
                                                 20336  20357M 20357  20675M 20676  20749M 20749  20760M 20760  20778
                                                 20931M 20940M 20952  20959M 20975  21017  21079  21080  21377M 21377
                                                 21378M 21389M 21472M 21639M 21666M 21693M 21720M 21747M 21776M 21803M
                                                 21832M 21892M 21932M 22045M 22045  22066M 22066  22087M 22087  22108M
                                                 22108  22129M 22129  22150M 22150  22195M 22195  22204  22356M 22393M
                                                 22426M 22458M 22492M 22542M 22856M 23512M 23512  23592  23593M 23594M
                                                 23606  23615M 23616M 23617  23625M 23680M 23713M 23714M 23715M 23719M
                                                 23720M 23721  23736M 23737M 23738  23782M 23783M 23795  23821M 23848M
                                                 24243M 24264M 24264  24282M 24295M 24680  24681M 24684M 25041  25060M
                                                 25061  25092  25096  25111M 25112M 25112  25120M 25160M 25194M 25218M
                                                 25242M 25242  25258M 25259M 25260  25268M 25297M 25313  25314M 25333M
                                                 25356M 25361  25428M 25428  25434M 25435  25867M 25867  25910M 25970
                                                 25981M 26008M 26008  26032M 26032  26072M 26113M 26113  26167M 26170M
                                                 26171  26204M 26261M 26315M 26316M 26352M 26352  26361M 26362M 26363
                                                 26367M 26368M 26369  26392M 26393M 26394  26413M 26447M 26448M 26460
                                                 26474M 26615M 26680M 26683M 26684  26735M 26735  26741M 26742  26763M
                                                 26764M 26777M 26777  26849M 26849  26921M 26978M 27096M 27123M 27150M
                                                 27177M 27204M 27231M 27258M 27287M 27346  27369M 27394M 27443M 27449M
                                                 27489M 27495M 27610M 27611M 27612  27615M 27616M 27627M 27627  27640M
                                                 27640  27677M 27678M 27687M 27687  27748M 27749M 27758M 27758  27772M
                                                 27773M 27800M 27801M 27802M 27807M 27808M 27809  28143M 28224M 28225M
                                                 28226  28235M 28236M 28237  28253M 28280M 28305M 28360M 28387M 28559M
                                                 28560M 28569M 28569  28575M 28658M 28660  28758M 29127M 29128M 29146M
                                                 29162  29169M 29176  29188M 29193  29216M 29217M 29226M 29226  29235M
                                                 29240M 29243  29255M 29260  29261M 29264M 29267  29279M 29284  29434M
                                                 29435M 29436M 29470M 29471M 29483  29510M 29537M 29814M 29815M 29816
                                                 29837M 29838M 29877  29900M 29900  29979M 29995M 30024M 30041M 30042
                                                 30199M 30200M 30212  30280M 30282M 30284M 30285M 30286M 30295M 30295
                                                 30450M 30451M 30452  30472M 30473M 30474  30642M 30643M 30644  30652M
                                                 30654M 30655  30888M 30914M 30914  30915M 30924M 30924  30933M 30934M
                                                 30935  30941M 30954M 31217M 31625M 31758  31801M 31802M 31802  31822M
1AMELIA   Ordinary Symbol and Literal Cross Reference                                                                       Page  426
                                                 31851M 31942M 31963M 31964M 31965  31980M 31981M 31982M 31983  31984
                                                 31985  31988M 31989  32014M 32026  32061M 32061  32062M 32063  32190M
                                                 32192M 32203  32308  32374M 32401M 32426M 32776M 32803M 33027M 33309M
                                                 33309  33310M 33311  33435M 33435  33441M 33442  33713M 33722M 33722
                                                 33729M 33730  33739M 33739  33817M 33818M 33830  33851M 33867M 33867
                                                 33877M 33973M 33974M 33986  34071M 34072M 34084  34093M 34122  34128M
                                                 34129M 34141  34252M 34254M 34256M 34257M 34261M 34262M 34271M 34271
                                                 34277M 34293M 34307M 34314M 34319M 34322  34334M 34339  34422M 34422
                                                 34423M 34424  34649M 34649  34662M 34740M 34772M 34773M 34774M 34952M
                                                 34982M 35492  35493  35730M 35730  35760M 35766  35766M 35916  35959M
                                                 35960M 35961  36077M 36078  36082M 36082  36083M 36084  36264M 36265
                                                 36269M 36269  36270M 36271  36385  36397M 36402  36404  36553M 36564
                                                 36564M 36595M 36596M 36608  36686M 36687M 36699  36714M 36716  36716M
                                                 36860M 37021M 37022M 37023  37024  37026M 37035M 37035  37041M 37046M
                                                 37047  37184M 37184  37193  37207M 37208  37222M 37237M 37237  37259
                                                 37269M 37473M 37507  37628M 37629M 37630  37779M 37780M 37781  37805M
                                                 37841M 37841  37847M 37848  37908M 37928M 37928  37969M 38015M 38041M
                                                 38041  38088M 38089M 38090  38259M 38260M 38261  38395M 38641M 39030M
                                                 39030  39071M 39112M 39112  39142M 39157M 39158M 39214M 39326M 39352M
                                                 39352  39370M 39411M 39411  39425M 39426M 39447M 39448M 39472M 39513M
                                                 39513  39527M 39528M 39630M 39704M 39734M 39766M 39791M 39986M 40016M
                                                 40081M 40113M 40299  40340M 40408M 40429  40498M 40519  40588M 40609
                                                 40827M 40828  40830M 40831  40947M 40948M 40963  40983  41161M 41161
                                                 41426  41453  41463M 41464  41531M 41555  41620M 41644  41652M 41653M
                                                 41654M 41656  41656M 41744  42008M 42011  42011M 42107M 42107  42132M
                                                 42132  42151M 42151  42174M 42191  42287M 42296M 42297M 42299  42299M
                                                 42510M 42519M 42519  42526M 42544M 42549  42555M 42570M 42570  42584
                                                 42600  42601  42651M 42651  42675M 42689M 42689  42804M 42820M 42820
                                                 42834  42849  42850  43347M 43348M 43384M 43387M 43626M 43634  43646M
                                                 43651  43653  44136M 44158M 44255M 44346M 44346  44441M 44453M 44453
                                                 44502M 44502  44537  44870M 44870  44891M 44903  44903M 45038M 45038
                                                 45052  45068  45093  45258M 45266M 45269  45269M 45532M 45532  45546
                                                 45566  45595  45631M 45633  45633M 45720M 45720  45734  45749  45770
                                                 45827M 45839  45897  45897M 46054  46066M 46072  46134M 46134  46145M
                                                 46145  46189M 46222M 46242M 46254  46265M 46479M 46479  46528M 46528
                                                 46541  46570M 46632M 46663M 46794M 46794  46804  46859M 46879M 46903M
                                                 46995M 47024M 47054M 47077M 47150M 47173M 47234M 47246  47368M 47407M
                                                 47445M 47497  47546  47592M 47592  47624M 47652M 47652  47824M 47835M
                                                 47906M 47906  47938M 48029M 48029  48218M 48269M 48269  48334M 48334
                                                 48375M 48375  48418M 48418  48500M 48500  48542M 48542  48578  48590M
                                                 48595  48687M 48711M 48733M 48733  48849M 48849  48868M 48868  48916M
                                                 48956M 49218M 49218  49287M 49287  49328M 49328  49371M 49371  49453M
                                                 49453  49494M 49494  49651M 49651  49695M 49695  49757M 49811M 49833M
                                                 49855M 49855  49945M 49967M 49989M 49989  50020M 50042M 50064M 50064
                                                 50154M 50176M 50198M 50198  50304M 50304  50315M 50424M 50471M 50471
                                                 50477  50512M 50630M 50657M 50729  50748M 50769M 50769  50973M 50995M
                                                 50995  51074M 51105M 51134M 51200M 51242M 51306M 51306  51369M 51391M
                                                 51413M 51413  51429M 51462M 51487M 51487  51503M 51522M 51522  51538M
                                                 51571M 51590M 51590  51606M 51617M 51650M 51661M 51664  51676M 51716M
                                                 51743M 51777M 51914M 52035M 52138M 52184M 52236M 52293M 52312M 52312
                                                 52327M 52346M 52346  52361M 52380M 52380  52402M 52402  52424M 52450M
                                                 52477M 52503M 52578M 52934M 52935M 52938  52938M 53046  53064M 53080M
                                                 53091M 53125M 53142M 53179M 53179  53195M 53212M 53229M 53229  53261M
                                                 53277M 53313M 53356M 53372M 53383M 53433M 53473M 53488M 53518M 53518
                                                 53565M 53581M 53592M 53653M 53669M 53680M 53741M 53757M 53799M 53815M
                                                 53857M 53873M 53915M 53931M 53968M 53990M 54006M 54043M 54065M 54081M
                                                 54102M 54119M 54141M 54156M 54175M 54175  54190M 54209M 54209  54225M
                                                 54247M 54263M 54285M 54301M 54323M 54339M 54377M 54393M 54435M 54451M
                                                 54493M 54509M 54551M 54567M 54609M 54625M 54667M 54683M 54704M 54726M
1AMELIA   Ordinary Symbol and Literal Cross Reference                                                                       Page  427
                                                 54742M 54764M 54780M 54802M 54818M 54840M 54856M 54894M 54910M 54936M
                                                 54951M 54982M 55001M 55001  55016M 55042M 55042  55065M 55080M 55099M
                                                 55099  55121M 55121  55138M 55157M 55157  55173M 55192M 55192  55214M
                                                 55214  55231M 55250M 55250  55266M 55285M 55285  55307M 55307  55324M
                                                 55369  55370  55370  55370  55382M 55397M 55410M 55465M 55510  55511
                                                 55511  55511  55523M 55538M 55551M 55652  55652  55652  55798M 55813M
                                                 55839M 55867M 55868M 55897  55908M 55925M 55941M 55941  55982M 55993M
                                                 56048M 56067M 56067  56089M 56089  56126M 56145M 56145  56167M 56167
                                                 56204M 56223M 56223  56245M 56245  56282M 56301M 56301  56316M 56335M
                                                 56335  56351M 56383M 56402M 56402  56417M 56443M 56443  56480M 56499M
                                                 56499  56514M 56533M 56533  56549M 56581M 56600M 56600  56615M 56641M
                                                 56641  56677M 56747M 56766M 56766  56781M 56813M 56813  56849M 56919M
                                                 56938M 56938  56953M 56985M 56985  57152  57174M 57193M 57193  57208M
                                                 57244M 57276M 57295M 57295  57314M 57333M 57333  57360  57366M 57390M
                                                 57406M 57432M 57432  57449M 57491M 57530M 57556M 57601M 57633M 57633
                                                 57669M 57693M 57704M 57762M 57789M 57856M 57875M 57875  57906  57912M
                                                 57936M 57952M 57978M 57978  58046M 58065M 58065  58080M 58099M 58099
                                                 58114M 58133M 58133  58148M 58169M 58184M 58205M 58227M 58227  58243M
                                                 58262M 58262  58277M 58296M 58296  58311M 58343M 58362M 58362  58377M
                                                 58403M 58403  58420M 58439M 58439  58454M 58473M 58473  58488M 58520M
                                                 58539M 58539  58554M 58580M 58580  58613M 58633M 58633  58649M 58683M
                                                 58683  58698M 58724M 58724  58763M 58774M 58813M 58813  58850M 58861M
                                                 58905M 58924M 58924  58940M 58964M 58968  58970M 59021M 59032M 59071M
                                                 59071  59109M 59120M 59164M 59183M 59183  59198M 59229M 59255M 59255
                                                 59279M 59283  59285M 59334M 59370M 59406M 59429M 59513M 59524M 59564M
                                                 59583M 59583  59601M 59694M 59725M 59758M 59780M 59810M 59832M 59867M
                                                 59902M 59937M 59963M 59963  59986M 60042M 60072M 60103M 60121M 60121
                                                 60136M 60162M 60162  60193M 60221M 60281M 60303M 60330M 60357M 60414M
                                                 60441M 60496M 60602M 60647M 60669M 60684M 60712M 60744M 60763M 60763
                                                 60789M 60789  60839M 60855M 60877M 60899M 60899  60915M 60940M 61200M
                                                 61200  61216  61240M 61262M 61283M 61298M 61320M 61341M 61356M 61389M
                                                 61425M 61460M 61487M 61529M 61548M 61548  61570M 61570  61642M 61678M
                                                 61714M 61750M 61770M 61818M 61839M 61859M 61912M 61947M 62078M 62111M
                                                 62195M 62230M 62366M 62404M 62404  62524M 62536M 62536  62578M 62608M
                                                 62638M 62663M 62663  62691M 62713M 62732M 62766M 62813M 62860M 62900M
                                                 62900  62919M 62938M 62938  62960M 62960  63023M 63076M 63100M 63100
                                                 63115M 63139M 63139  63174M 63213M 63239M 63239  63291M 63357M 63382M
                                                 63382  63397M 63422M 63422  63437M 63458M 63458  63490M 63516M 63516
                                                 63567M 63633M 63658M 63658  63673M 63698M 63698  63713M 63745M 63781M
                                                 63817M 63853M 63889M 63908M 63930M 63960M 63982M 64001M 64026M 64026
                                                 64041M 64064M 64064  64086M 64086  64153M 64178M 64178  64200M 64200
                                                 64261M 64332M 64416M 64642  64652M 64667M 64692M 64692  64708M 64740M
                                                 64776M 64812M 64848M 64867M 64894M 64894  64927M 64964M 65001M 65038M
                                                 65075M 65101M 65101  65120M 65174M 65189M 65200M 65251M 65285M 65331M
                                                 65377M 65423M 65458M 65458  65495M 65514M 65514  65540M 65540  65583M
                                                 65629M 65650  65703M 65749M 65770  65823M 65869M 65890  65934M 65946M
                                                 65946  66003M 66047M 66079M 66101M 66116M 66150M 66197M 66244M 66291M
                                                 66338M 66385M 66432M 66479M 66526M 66560M 66560  66598M 66616M 66616
                                                 66636M 66655M 66655  66689M 66708M 66708  66723M 66749M 66796M 66833M
                                                 66833  66912M 66938M 66985M 66997M 67051M 67066M 67077M 67131M 67146M
                                                 67165M 67165  67180M 67199M 67199  67214M 67233M 67233  67248M 67267M
                                                 67267  67282M 67301M 67301  67323M 67323  67411M 67436M 67492M 67518M
                                                 67567M 67597M 67637M 67683M 67718M 67718  67737M 67782M 67814M 67814
                                                 67846M 67869M 68011M 68029M 68113M 68163M 68199M 68245M 68281M 68296M
                                                 68321M 68321  68360M 68375M 68421M 68421  68492M 68519M 68519  68746
                                                 68778M 68791M 68794  68806M 68811M 68811  68972  69051M 69090M 69181M
                                                 69208M 69293M 69294M 69349M 69483M 69483  69492  69522M 69523M 69526
                                                 69526M 69633  69634M 69634  69650  69677M 69701  69733  69765  69934
                                                 69989M 69990M 69990  70010M 70100M 70140M 70141M 70142M 70146M 70147M
1AMELIA   Ordinary Symbol and Literal Cross Reference                                                                       Page  428
                                                 70148  70149  70541M 70542  70544M 70564  70915  70916  71031M 71071M
                                                 71172M 71296M 71317M 71317  71341M 71341  71399M 71426M 71451M 71475M
                                                 71475  71585  71599  71608  71629M 71630M 71631M 71648M 71649M 72158M
                                                 72158  72171  72172  72227  72272  72295M 72303M 72329  72331M 72333
                                                 72334  72520  72537  72552M 72554  72608M 72609M 72610  72614M 72615M
                                                 72616  72693M 72694M 72695  72699M 72700M 72701  72727  72745M 72747
                                                 72747M 72773M 72773  72791M 73345M 73347  73734M 73753M 73778M 73803M
                                                 73828M 73853M 73878M 73903M 73928M 73953M 74062  74424M 74437M 74486M
                                                 74519M 74536M 74555M 74555  74838  74850M 74856  74861M 74861  74900M
                                                 74903M 75119M 75139M 75139  75178M 75178  75315  75326M 75607  75622
                                                 75705M 75705  75740M 75768M 75801M 75843M 75868M 75900M 75921M 75921
                                                 75949M 75949  75972M 76023M 76040M 76065M 76113M 76134M 76134  76151M
                                                 76179M 76179  76197M 76222M 76270M 76291M 76291  76308M 76336M 76336
                                                 76355M 76373M 76397M 76397  76438M 76462M 76479M 76480M 76504M 76504
                                                 76522M 76550M 76568M 76586M 76603M 76621M 76708M 76725M 76738M 76782M
                                                 76799M 76823M 76840M 76864M 76881M 76905M 76954M 76986M 77010M 77027M
                                                 77055M 77079M 77079  77128M 77146M 77164M 77177M 77218M 77218  77244M
                                                 77272M 77306M 77324M 77348M 77372M 77372  77394M 77410M 77442M 77460M
                                                 77478M 77502M 77502  77518M 77535M 77553M 77571M 77589M 77616M 77641M
                                                 77641  77669M 77687M 77703M 77714M 77732M 77748M 77759M 77786M 78127
                                                 78182M 78208M 78223M 78242M 78242  78264M 78264  78405M 78419  78439M
                                                 78446  78458M 78463  78684  78740M 78754M 78754  78817M 78838M 78838
                                                 78852  78863  78887M 78888  78995M 78995  79009  79019  79050M 79050
                                                 79076M 79076  79085  79281  79304M 79306M 79317  79386M 79387M 79647M
                                                 79647  79661  79702  79702M 79875M 79875  79889  79904M 79905M 79906M
                                                 79907  79934M 79935M 79937  79937M 80277  80292M 80292  80315M 80400M
                                                 80400  80422M 80430  80445M 80445  80468M 80542M 80542  80560M 80630M
                                                 80630  80655M 80760M 80760  80762M 80762  80763M 80764  80862  80881M
                                                 80984  81013M 81025M 81026M 81043  81048  81218M 81225  81226  81226
                                                 81226  81250M 81250  81256  81277M 81295M 81476M 81481M 81585M 81585
                                                 81604M 81609  81625M 81673M 81695M 81749M 81830M 81849M 81854M 81855M
                                                 81871  81901  81950M 82032  82038M 82045M 82067M 82144  82155M 82165M
                                                 82171M 82207M 82239M 82320  82337M 82365M 82388M 82417M 82519M 82608M
                                                 82631M 82660M 82744M 82744  82763M 82785M 82795M 82796M 82813M 82919M
                                                 82948M 83031M 83031  83050M 83082M 83083M 83085  83089M 83089  83090M
                                                 83091M 83092M 83209  83334M 83453M 83548  83548  83548  83643M 83693M
                                                 83785  83830M 83832M 83836  83872M 83886M 83886  83981  84070M 84158M
                                                 84246M 84361M 84464  84511M 84511  84519  84563M 84588M 84614  84712M
                                                 84712  84724  84726M 84728  84735M 84747  84762M 84763M 84763  84776M
                                                 84812M 84812  84825M 84825  84865M 84872  84890M 84897M 84898M 84899M
                                                 84905M 84906M 84914M 84924  84926M 84932  84933M 84934M 84936M 84945M
                                                 84992M 84997  85067M 85079  85086M 85091M 85104M 85216  85250M 85281M
                                                 85871  85906M 85940M
 R1            1 00000001 00000001 A   #     782  8081U  9140   9168   9169   9177   9178   9179   9181   9205   9206
                                                  9207   9209   9222   9228   9229M  9230   9231M  9232   9254M  9316M
                                                  9316   9358M  9460M  9478M  9500M  9500   9558M  9576M  9731   9734
                                                 10034U 10038M 10454  10480M 10482M 10482  10484  10492M 10494M 10494
                                                 10496  10504M 10506M 10506  10508  10516M 10518M 10518  10520  10586M
                                                 10610M 10634M 10743  11088M 11110M 11127  11135M 11149M 11211M 11226M
                                                 11309M 11339M 11373M 11417M 11453M 11629M 11659M 11690M 11779  11780M
                                                 11948M 11962M 11968M 11990M 12088M 12103U 12254M 12289M 12312M 12347M
                                                 12352M 12446M 12460U 12550M 12721M 12739M 12776M 12793M 12815M 12942M
                                                 12983M 13029M 13122  13175M 13194M 13217M 13234M 13273M 13295M 13323M
                                                 13345M 13385M 13402M 13665  13674  13708M 13718U 13990M 14049M 14064M
                                                 14086M 14328M 14330M 14331M 14331  14342  14352M 14633M 14803M 14838M
                                                 14861M 14896M 14901M 14973M 14987U 15064M 15236  15350M 15355  15443M
                                                 15448  15490M 15639  15666M 15700  15784M 15807M 15827M 15881M 15895U
                                                 16172  16211M 16232M 16267M 16358  16455M 16506M 16571M 16594M 16632M
                                                 16665M 16683M 16699M 16717M 16770M 16805M 16810  16862M 16886  16901M
1AMELIA   Ordinary Symbol and Literal Cross Reference                                                                       Page  429
                                                 17072M 17211  17293M 17325M 17343M 17431M 17448M 17555M 17565  17575M
                                                 17762M 17785M 17812M 17839M 17866M 18020  18151M 18174M 18210M 18228M
                                                 18244M 18262M 18345M 18476  18627  18628  18629  18635M 18636M 18637
                                                 18848  18849  18888M 18943M 18945  19089M 19251  19373M 19450M 19465M
                                                 19465  19508M 19529M 19550M 19612M 19636M 19681M 19707M 19729M 19750M
                                                 19811M 20160  20230M 20232M 20771M 20771  21256  21377M 21379M 21389M
                                                 21486U 21612M 21617  21632M 21661M 21688M 21715M 21742M 21769M 21798M
                                                 21825M 21885M 21931M 22181  22182  22182  22182  22204  22207M 22285
                                                 22351M 22392M 22425M 22457M 22491M 22527M 22541M 22562M 22567  22697M
                                                 22697  22712  22812M 22825M 22825  22834  22913  23015  23015  23015
                                                 23591  23624M 23685  23686  23814M 23843M 24242M 24260M 24281M 24296M
                                                 24679  24682M 25041  25042  25059M 25061  25062  25106M 25120M 25159M
                                                 25177M 25193M 25211M 25312M 25313  25429M 25430M 25431M 25432M 25433M
                                                 25435M 25436M 25437M 25871M 25871  25936M 25980M 26003M 26061  26071M
                                                 26089M 26138  26149M 26154  26188M 26218U 26262M 26414M 26473M 26614M
                                                 26736M 26737M 26738M 26739M 26740M 26742M 26743M 26744M 26765M 26766M
                                                 26863  26920M 26977M 27089M 27118M 27145M 27172M 27199M 27226M 27253M
                                                 27280M 27340M 27347  27362M 27389M 27444M 27450M 27470M 27490M 27496M
                                                 27778  27779  27780  28142M 28170M 28173  28185M 28192M 28194  28246M
                                                 28275M 28300M 28353M 28382M 28509M 28510  28576M 28753M 29127M 29137M
                                                 29137  29261M 29284  29391M 29503M 29532M 29568M 29616M 29643  29653M
                                                 29653  29671  29685  29716  29980M 29996M 30010  30016M 30021  30023
                                                 30280M 30863M 30887M 30910M 30940M 30955M 31160M 31179M 31193  31216M
                                                 31262M 31401M 31408M 31413  31620M 31757  31796M 31817M 31852M 31947
                                                 31980M 32039  32040  32057M 32063M 32064M 32065M 32069M 32071  32071M
                                                 32191M 32193M 32203  32309  32367M 32396M 32421M 32769M 32798M 32942
                                                 33026M 33151M 33172U 33194M 33224M 33254M 33282M 33305M 33311M 33312M
                                                 33313M 33436M 33437M 33438M 33439M 33440M 33442M 33443M 33444M 33551M
                                                 33566  33578  33819M 33820M 33840  33850M 33868M 33876M 34092M 34252M
                                                 34259M 34339  34418M 34424M 34425M 34426M 34663M 34745  34746  34951M
                                                 34981M 35007M 35135  35325  35712  35732M 35732  35755M 35766  35915
                                                 35984  36076  36078M 36087M 36099M 36099  36114U 36138M 36158M 36158
                                                 36189  36189M 36263  36265M 36274M 36286M 36286  36301U 36323  36323M
                                                 36329M 36350  36378M 36442M 36444  36444M 36546  36560M 36562M 36564
                                                 36595  36614M 36623  36628  36671M 36705M 36714M 36716  36843  36853M
                                                 36984  37091M 37151M 37193M 37197M 37206M 37206  37208M 37209  37221M
                                                 37260  37267M 37348M 37372M 37474M 37494M 37535M 37545U 37551  37634M
                                                 37729  37901M 37930M 37930  37968M 37986M 38008M 38028M 38075M 38093M
                                                 38172M 38183M 38183  38198U 38270M 38353  38394M 38408M 38435M 38447M
                                                 38528  38640M 38654M 38667M 38849  39004M 39017M 39017  39026  39032M
                                                 39032  39070M 39088M 39135M 39156M 39213M 39227M 39260M 39289M 39325M
                                                 39347M 39369M 39387M 39424M 39446M 39471M 39489M 39526M 39558M 39625M
                                                 39635  39646M 39646  39652  39703M 39726M 39765M 39784M 39786M 39786
                                                 39794M 39822M 39831M 39932M 39985M 40008M 40080M 40112M 40134M 40151M
                                                 40285  40300  40341M 40361  40409M 40448M 40499M 40538M 40589M 40628M
                                                 40762  40867M 40868  40897M 40942M 40963M 40983M 41008M 41009  41011M
                                                 41114M 41114  41149  41252  41266M 41276U 41290M 41290  41317M 41324
                                                 41324M 41427  41457M 41457  41465M 41465  41466  41529M 41529  41743
                                                 41834M 41836  41864M 41866  41883  41898  41899  42009M 42011  42138
                                                 42172M 42205  42285M 42295M 42299  42483  42554M 42638M 42673M 42695M
                                                 42805M 43092M 43270M 43272  43289M 43291  43332M 43396  43573M 43586M
                                                 43586  43592  43627M 43731M 43744M 43744  43750  43862M 43983M 43993U
                                                 44003  44004M 44013M 44013  44045M 44135M 44159M 44229M 44254M 44440M
                                                 44453M 44536  44538M 44664M 44664  44679U 44851  44872M 44872  44892M
                                                 44903  45088M 45259M 45267M 45269  45363U 45378M 45389M 45389  45439M
                                                 45439  45445  45445M 45594  45805M 46071  46156M 46156  46188M 46221M
                                                 46264M 46540  46542M 46569M 46611M 46631M 46662M 46803  46858M 46878M
                                                 46898M 46937M 46937  46943  46994M 47016M 47053M 47070M 47072M 47072
                                                 47080M 47111M 47155  47174M 47367M 47380M 47406M 47444M 47623M 47823M
1AMELIA   Ordinary Symbol and Literal Cross Reference                                                                       Page  430
                                                 47835M 47937M 48217M 48686M 48706M 48915M 48955M 49752M 49810M 49826M
                                                 49938M 49960M 50019M 50035M 50147M 50169M 50266M 50314M 50326M 50337M
                                                 50337  50352U 50366M 50400M 50413M 50413  50423M 50462  50477M 50511M
                                                 50564M 50605M 50618M 50618  50624  50629M 50641M 50656M 50677M 50682
                                                 50966M 51073M 51104M 51133M 51193M 51215M 51235M 51253M 51368M 51384M
                                                 51428M 51461M 51483M 51502M 51518M 51537M 51570M 51586M 51605M 51617M
                                                 51649M 51690M 51715M 51736M 51776M 51913M 52034M 52132M 52183M 52235M
                                                 52292M 52308M 52326M 52342M 52360M 52376M 52423M 52445M 52472M 52496M
                                                 52577M 52879M 52935  52938  53059M 53079M 53124M 53141M 53157M 53194M
                                                 53213M 53260M 53276M 53312M 53349M 53371M 53383M 53432M 53466M 53487M
                                                 53558M 53580M 53592M 53646M 53668M 53680M 53734M 53756M 53792M 53814M
                                                 53850M 53872M 53908M 53930M 53967M 53983M 54005M 54042M 54058M 54080M
                                                 54101M 54118M 54134M 54155M 54171M 54189M 54205M 54224M 54240M 54262M
                                                 54278M 54300M 54316M 54338M 54370M 54392M 54428M 54450M 54486M 54508M
                                                 54544M 54566M 54602M 54624M 54660M 54682M 54703M 54719M 54741M 54757M
                                                 54779M 54795M 54817M 54833M 54855M 54887M 54909M 54929M 54950M 54981M
                                                 54997M 55015M 55058M 55079M 55095M 55137M 55153M 55172M 55188M 55230M
                                                 55246M 55265M 55281M 55323M 55352M 55369  55370  55370  55370  55375M
                                                 55396M 55410M 55464M 55493M 55510  55511  55511  55511  55516M 55537M
                                                 55551M 55652  55652  55652  55759  55780M 55812M 55834M 55907M 55925M
                                                 55981M 56047M 56063M 56125M 56141M 56203M 56219M 56281M 56297M 56315M
                                                 56331M 56350M 56382M 56398M 56416M 56479M 56495M 56513M 56529M 56548M
                                                 56580M 56596M 56614M 56676M 56705M 56746M 56762M 56780M 56848M 56877M
                                                 56918M 56934M 56952M 57153  57173M 57189M 57207M 57224M 57226M 57237M
                                                 57237  57275M 57291M 57313M 57329M 57344M 57361  57365M 57385M 57405M
                                                 57448M 57486M 57529M 57551M 57600M 57612M 57620  57692M 57761M 57790M
                                                 57825M 57855M 57871M 57890M 57907  57911M 57931M 57951M 58045M 58061M
                                                 58079M 58095M 58113M 58129M 58147M 58162M 58183M 58198M 58242M 58258M
                                                 58276M 58292M 58310M 58342M 58358M 58376M 58419M 58435M 58453M 58469M
                                                 58487M 58519M 58535M 58553M 58612M 58624M 58625M 58648M 58660M 58661M
                                                 58670M 58670  58697M 58762M 58774M 58849M 58861M 58898M 58920M 58939M
                                                 58959M 59020M 59032M 59108M 59120M 59157M 59179M 59197M 59228M 59274M
                                                 59333M 59369M 59405M 59428M 59506M 59524M 59563M 59579M 59693M 59724M
                                                 59757M 59773M 59809M 59825M 59866M 59901M 59936M 59981M 60041M 60071M
                                                 60102M 60117M 60135M 60186M 60214M 60274M 60296M 60323M 60352M 60407M
                                                 60436M 60491M 60601M 60646M 60662M 60683M 60705M 60743M 60759M 60838M
                                                 60854M 60870M 60914M 60933M 61217  61239M 61255M 61276M 61297M 61313M
                                                 61334M 61355M 61388M 61424M 61459M 61494M 61528M 61544M 61641M 61677M
                                                 61713M 61749M 61769M 61817M 61832M 61858M 61904M 61940M 62019M 62070M
                                                 62110M 62187M 62223M 62307M 62358M 62523M 62536M 62577M 62593M 62607M
                                                 62623M 62637M 62658M 62690M 62706M 62731M 62765M 62812M 62859M 62895M
                                                 62918M 62934M 63018M 63075M 63095M 63114M 63134M 63173M 63212M 63286M
                                                 63356M 63377M 63396M 63417M 63436M 63454M 63489M 63562M 63632M 63653M
                                                 63672M 63693M 63712M 63744M 63780M 63816M 63852M 63888M 63907M 63923M
                                                 63959M 63975M 64000M 64021M 64040M 64060M 64152M 64173M 64256M 64327M
                                                 64411M 64628  64643  64651M 64666M 64687M 64707M 64739M 64775M 64811M
                                                 64847M 64866M 64890M 64926M 64963M 65000M 65037M 65074M 65119M 65188M
                                                 65201M 65221  65232M 65250M 65284M 65330M 65376M 65422M 65454M 65494M
                                                 65510M 65582M 65630M 65702M 65750M 65822M 65870M 65933M 65956M 66042M
                                                 66078M 66115M 66149M 66196M 66243M 66290M 66337M 66384M 66431M 66478M
                                                 66525M 66556M 66597M 66612M 66635M 66651M 66688M 66704M 66722M 66744M
                                                 66795M 66811M 66911M 66933M 66984M 66998M 67018  67029M 67065M 67078M
                                                 67098  67109M 67145M 67161M 67179M 67195M 67213M 67229M 67247M 67263M
                                                 67281M 67297M 67410M 67431M 67491M 67513M 67566M 67582M 67596M 67636M
                                                 67682M 67714M 67736M 67774M 67845M 67864M 67979  68003M 68079M 68112M
                                                 68162M 68191M 68244M 68273M 68295M 68316M 68374M 68412M 68491M 68747
                                                 68785M 68822M 68970  68971  69058M 69097M 69207M 69344M 69453  69455M
                                                 69492M 69512M 69522  69524M 69526  69676M 69935  69970M 70005M 70106
                                                 70230M 70232  70232M 70342  70385M 70386  70491  70542M 70543M 70544
1AMELIA   Ordinary Symbol and Literal Cross Reference                                                                       Page  431
                                                 70609M 70665M 70712M 70740M 70914  71030M 71030  71070M 71171M 71263M
                                                 71289M 71313M 71392M 71419M 71446M 71629  71650M 71762  72042  72271
                                                 72294M 72332M 72536  72547M 72553  72618M 72635M 72727  72885  73173M
                                                 73302  73346M 73347  73733M 73752M 73777M 73802M 73827M 73852M 73877M
                                                 73902M 73927M 73952M 74063  74417M 74437M 74485M 74518M 74537M 74855
                                                 74863M 74863  74901M 74902M 75314  75646  75673  75674  75739M 75763M
                                                 75800M 75842M 75856M 75857M 75899M 75917M 75971M 76022M 76039M 76058M
                                                 76112M 76130M 76150M 76196M 76215M 76269M 76287M 76307M 76354M 76372M
                                                 76437M 76455M 76521M 76549M 76567M 76585M 76602M 76620M 76701M 76724M
                                                 76738M 76777M 76798M 76816M 76839M 76857M 76880M 76898M 76947M 76985M
                                                 77003M 77026M 77048M 77127M 77145M 77163M 77177M 77240M 77271M 77305M
                                                 77323M 77341M 77393M 77409M 77441M 77459M 77477M 77517M 77534M 77552M
                                                 77570M 77588M 77609M 77668M 77686M 77702M 77713M 77731M 77747M 77758M
                                                 77778M 77877M 78130  78181M 78203M 78222M 78238M 78320  78373M 78510M
                                                 78684  78739M 78754M 78817M 79086  79129  79130  79280  79302M 79316
                                                 79318  79344M 79387  79702  79764M 79781M 79783  79783M 79933M 79937
                                                 80014  80149M 80149  80151  80151M 80276  80420M 80429  80558M 80653M
                                                 80750M 80755M 80758  80759M 80981  80986M 80987M 81007M 81026  81042M
                                                 81043M 81068M 81132  81217M 81225  81226  81226  81226  81275M 81294M
                                                 81475M 81481M 81596M 81596  81604M 81610  81626M 81656  81666M 81688M
                                                 81744M 81750M 81828M 81854  81943M 82033  82039M 82046M 82060M 82145
                                                 82154  82156M 82166M 82169  82172M 82185  82200M 82232M 82344M 82372M
                                                 82395M 82410M 82501  82526M 82615M 82638M 82653M 82755M 82755  82763M
                                                 82805M 82806M 82807M 82807  82814M 82907  82926M 82941M 83042M 83042
                                                 83050M 83085M 83092  83100M 83101M 83108M 83108  83109  83111M 83548
                                                 83548  83548  83604  83642M 83643  83661M 83685M 83693  83713M 83833
                                                 83835M 83982  84069M 84157M 84245M 84360M 84517M 84518  84535  84562
                                                 84727  84759M 84826M 84864M 84866M 84872M 84873  84883M 84883  84896
                                                 84935M 85245M 85276M 85542  85555M 85663  85676M 85871  85898M 85939M
 R13          13 0000000D 00000001 A   #     938  8730   9244   9252
 R14          14 0000000E 00000001 A   #     951  8248B  8741B  9186M  9194   9195M  9197M  9214M  9227M  9869   9870M
                                                  9872M 10148  10149M 10151M 10317B 10397  10398M 10400M 10709  10710M
                                                 10712M 10929  10930M 10932M 11737  11738M 11740M 11849  11850M 11852M
                                                 12607  12608M 12610M 12953M 12978M 12981M 13088  13089M 13091M 13554
                                                 13555M 13557M 13690M 13695M 13703  13704M 13937  13938M 13940M 14216
                                                 14217M 14219M 14382M 14387M 14395  14396M 14434M 14439M 14447  14448M
                                                 14459M 14464M 14472  14473M 14555  14556M 14558M 15178  15179M 15181M
                                                 15226M 15231M 15237  15238M 15595  15596M 15598M 16121  16122M 16124M
                                                 16324  16325M 16327M 17136  17137M 17139M 17201M 17206M 17212  17213M
                                                 17986  17987M 17989M 18442  18443M 18445M 18645M 18650M 18658  18659M
                                                 18851M 18853M 18883M 18884M 18886M 18996  18997M 18999M 19213  19214M
                                                 19216M 19471M 19472M 19472B 19912  19913M 19915M 20283B 20304B 20325B
                                                 20346B 20367B 20414  20415M 20417M 20620  20621M 20623M 22055B 22076B
                                                 22097B 22118B 22139B 22160B 22169B 22178B 22181  22182  22182  22182
                                                 22207M 22208B 22251  22252M 22254M 22651  22652M 22654M 23015  23015
                                                 23015  23041  23042M 23044M 23218  23219M 23221M 23465  23466M 23468M
                                                 23703M 23708M 23714  23715M 23946  23947M 23949M 24137  24138M 24140M
                                                 24351  24352M 24354M 24645  24646M 24648M 24722  24723M 24725M 24821
                                                 24822M 24824M 24983  24984M 24986M 27790M 27795M 27801  27802M 28917
                                                 28918M 28920M 29422M 29427M 29435  29436M 30022M 30024M 30025  31102
                                                 31103M 31105M 31306  31307M 31309M 31473  31474M 31476M 31706  31707M
                                                 31709M 31908  31909M 31911M 32045M 32105  32106M 32108M 32274  32275M
                                                 32277M 32587  32588M 32590M 32659  32660M 32662M 32908  32909M 32911M
                                                 33073  33074M 33076M 33623  33624M 33626M 33746M 34217  34218M 34220M
                                                 34379  34380M 34382M 34504  34505M 34507M 34762M 34767M 34773  34774M
                                                 34829  34830M 34832M 34983M 34984M 34984B 35101  35102M 35104M 35291
                                                 35292M 35294M 35422  35423M 35425M 35637  35638M 35640M 35876  35877M
                                                 35879M 36042  36043M 36045M 36229  36230M 36232M 36498  36499M 36501M
                                                 36762  36763M 36765M 36950  36951M 36953M 37695  37696M 37698M 38138
1AMELIA   Ordinary Symbol and Literal Cross Reference                                                                       Page  432
                                                 38139M 38141M 38319  38320M 38322M 38494  38495M 38497M 38781  38782M
                                                 38784M 40240  40241M 40243M 40718  40719M 40721M 41067  41068M 41070M
                                                 41218  41219M 41221M 41378  41379M 41381M 41709  41710M 41712M 42059
                                                 42060M 42062M 42439  42440M 42442M 43805M 43807  43830M 43832  43949
                                                 43950M 43952M 44095  44096M 44098M 44304  44305M 44307M 44588  44589M
                                                 44591M 44776  44777M 44779M 44972  44973M 44975M 45320  45321M 45323M
                                                 45488  45489M 45491M 45672  45673M 45675M 45995  45996M 45998M 46074M
                                                 46076M 52761  52762M 52764M 53002  53003M 53005M 55715  55716M 55718M
                                                 57108  57109M 57111M 61141  61142M 61144M 64582  64583M 64585M 65669M
                                                 65789M 65909M 65980  65981  65981  65981  67888M 67889B 67943  67944M
                                                 67946M 68620  68620  68620  68702  68703M 68705M 68926  68927M 68929M
                                                 69419  69420M 69422M 69599  69600M 69602M 69800M 69801M 69803  69900
                                                 69901M 69903M 70062  70063M 70065M 70128M 70135M 70141  70142M 70298
                                                 70299M 70301M 70457  70458M 70460M 70823  70824M 70826M 71538  71539M
                                                 71541M 71619M 71624M 71630  71631M 71728  71729M 71731M 72008  72009M
                                                 72011M 72408  72409M 72411M 72851  72852M 72854M 73258  73259M 73261M
                                                 73697  73698M 73700M 74018  74019M 74021M 74736  74737M 74739M 74871M
                                                 74872M 74872  74884  74891M 74896  74898M 74898  74903M 74904M 75270
                                                 75271M 75273M 75441  75442M 75444M 75515  75516M 75518M 75617B 77791B
                                                 77823  77824M 77826M 78080  78081M 78083M 78525M 78526M 78526B 78640
                                                 78641M 78643M 79230  79231M 79233M 79602  79603M 79605M 79830  79831M
                                                 79833M 79979  79980M 79982M 81142  81143M 81145M 84029  84030M 84032M
                                                 84117  84118M 84120M 84205  84206M 84208M 84304  84305M 84307M 84455
                                                 84456M 84458M 84605  84606M 84608M 84827M 84865M 84898M 85018  85019M
                                                 85021M 85168  85169M 85171M 85336  85337M 85339M 85503  85504M 85506M
                                                 85624  85625M 85627M
 R15          15 0000000F 00000001 A   #     964  8092U  8241U  8689M  8690M  8690   8702   8709M  8714   8724U  9185M
                                                  9185   9194   9197M  9213M  9213   9226M  9226   9250M  9250   9294M
                                                  9294   9469M  9487M  9493M  9523M  9549M  9559M  9683M  9715M  9773M
                                                  9774   9845M  9850   9869   9872M 10104M 10148  10151M 10285M 10285
                                                 10302U 10308  10316M 10397  10400M 10522M 10523M 10525  10527M 10528M
                                                 10530  10687M 10687  10709  10712M 10777M 10777  10824M 10824  10867M
                                                 10883M 10883  10912M 10912  10929  10932M 11144M 11220M 11234M 11258M
                                                 11318M 11721M 11721  11737  11740M 11811M 11811  11849  11852M 11957M
                                                 12067M 12067  12153M 12231M 12276M 12334M 12378M 12590M 12590  12607
                                                 12610M 12730M 12751M 12771M 12946M 12946  12954M 12966  12972M 12977
                                                 12979  13071M 13071  13088  13091M 13184M 13189M 13194  13209M 13226M
                                                 13249M 13282M 13311M 13332M 13361M 13394M 13417M 13445M 13473M 13473
                                                 13554  13557M 13591  13778M 13879M 13921M 13921  13937  13940M 13999M
                                                 14073M 14099M 14123M 14150M 14150  14216  14219M 14361M 14366M 14419M
                                                 14486M 14486  14516M 14516  14555  14558M 14639M 14695M 14698  14710M
                                                 14717M 14726M 14726  14733  14780M 14825M 14883M 14927M 15127M 15127
                                                 15178  15181M 15503M 15549M 15549  15595  15598M 15682M 15792M 15792
                                                 15797  15822M 15851M 16079M 16079  16121  16124M 16187  16220M 16220
                                                 16245  16265M 16305M 16305  16324  16327M 16580M 16608M 16640M 16640
                                                 16655  16661  16674M 16691M 16708M 16732M 16756M 16784M 16846M 16847M
                                                 16848  16852M 16853M 16854  16923M 16924M 16925  16929M 16930M 16931
                                                 16970M 16971M 16972  17011M 17012M 17013  17017M 17018M 17019  17042M
                                                 17043M 17044  17048M 17049M 17050  17116M 17116  17136  17139M 17301M
                                                 17301  17316  17334M 17351M 17375M 17439M 17439  17444  17446M 17584M
                                                 17964M 17964  17986  17989M 18162M 18162  18200  18206  18219M 18236M
                                                 18253M 18277M 18301M 18344M 18382M 18382  18442  18445M 18804M 18852M
                                                 18885M 18949M 18949  18978M 18978  18996  18999M 19123M 19123  19213
                                                 19216M 19309M 19331M 19336  19365M 19374M 19437M 19484M 19498M 19498
                                                 19504  19517M 19544M 19589M 19621M 19649M 19694M 19716M 19744M 19789M
                                                 19812M 19848M 19848  19912  19915M 19966M 19969M 19971  20061M 20139M
                                                 20233M 20242M 20242  20369M 20393M 20393  20414  20417M 20521M 20521
                                                 20535M 20554M 20554  20620  20623M 20676M 20679M 20681  20778M 20781
                                                 20793M 20800M 20809M 20809  20816  21380M 21402M 21402  21419  21426M
1AMELIA   Ordinary Symbol and Literal Cross Reference                                                                       Page  433
                                                 21431  21539M 21539  21559  21647M 21674M 21701M 21728M 21755M 21784M
                                                 21811M 21840M 22005M 22005  22233M 22233  22251  22254M 22299M 22318
                                                 22483  22630M 22630  22651  22654M 22703M 22744M 22771M 22887M 22907M
                                                 22922M 22922  22946M 22946  23041  23044M 23139M 23170M 23170  23193M
                                                 23193  23218  23221M 23333M 23423M 23423  23442M 23442  23465  23468M
                                                 23536M 23536  23580M 23630M 23722M 23732U 23829M 23856M 23900M 23900
                                                 23926M 23926  23946  23949M 24004M 24004  24079M 24103M 24103  24122M
                                                 24122  24137  24140M 24251M 24272M 24290M 24297M 24315M 24315  24334M
                                                 24334  24351  24354M 24504M 24504  24586M 24586  24602M 24626M 24626
                                                 24645  24648M 24688M 24688  24707M 24707  24722  24725M 24787M 24787
                                                 24806M 24806  24821  24824M 24869M 24869  24888M 24888  24983  24986M
                                                 25115M 25115  25149  25155  25168M 25185M 25202M 25226M 25250M 25947M
                                                 25958M 25958  25970  25989M 26016M 26040M 26080M 26097M 26121M 26263M
                                                 26398M 26399M 26400  26415M 27104M 27131M 27158M 27185M 27212M 27239M
                                                 27266M 27295M 27300M 27310U 27341M 27377M 27402M 27996M 27997M 28015M
                                                 28028M 28028  28034  28035  28210M 28220U 28261M 28288M 28313M 28368M
                                                 28395M 28759M 28799M 28799  28917  28920M 29518M 29545M 30023M 30513M
                                                 30516  30528M 30535M 30537  30889M 30894M 30949M 30956M 31039M 31039
                                                 31102  31105M 31289M 31289  31306  31309M 31340M 31419M 31419  31438M
                                                 31438  31473  31476M 31626M 31631M 31664M 31664  31706  31709M 31759
                                                 31805M 31805  31830  31850M 31890M 31890  31908  31911M 32044M 32044
                                                 32090M 32090  32105  32108M 32256M 32256  32274  32277M 32382M 32409M
                                                 32434M 32572M 32572  32587  32590M 32644M 32644  32659  32662M 32784M
                                                 32811M 32887M 32887  32908  32911M 32942M 32959M 32967  33039M 33039
                                                 33058M 33058  33073  33076M 33314M 33324  33389  33395  33403M 33403
                                                 33445M 33455  33520  33526  33534M 33534  33603M 33603  33623  33626M
                                                 33745M 33746B 33859M 33869M 34192M 34192  34217  34220M 34358M 34358
                                                 34379  34382M 34413  34467M 34486M 34486  34504  34507M 34655M 34680
                                                 34781M 34814M 34814  34829  34832M 34974M 34997  35083M 35083  35101
                                                 35104M 35271M 35271  35291  35294M 35397M 35397  35422  35425M 35491
                                                 35607M 35607  35637  35640M 35767M 35791M 35791  35876  35879M 36006M
                                                 36006  36042  36045M 36164M 36183M 36183  36208M 36208  36229  36232M
                                                 36404M 36407M 36416M 36416  36423  36470M 36470  36498  36501M 36568M
                                                 36568  36676M 36720M 36720  36744M 36744  36762  36765M 36868M 36901M
                                                 36901  36950  36953M 37096M 37179M 37219M 37351M 37363  37475M 37488M
                                                 37488  37499M 37572M 37582U 37606M 37642M 37642  37676M 37676  37695
                                                 37698M 37916M 37932M 37957M 37977M 37994M 38023M 38066M 38092M 38122M
                                                 38122  38138  38141M 38300M 38300  38319  38322M 38403M 38476M 38476
                                                 38494  38497M 38649M 38695M 38695  38781  38784M 38834U 39034M 39059M
                                                 39079M 39096M 39120M 39150M 39159M 39222M 39334M 39360M 39378M 39395M
                                                 39419M 39427M 39461M 39461  39480M 39497M 39521M 39529M 39712M 39742M
                                                 39774M 39813M 39994M 40024M 40089M 40121M 40195M 40195  40240  40243M
                                                 40284  40342M 40410M 40500M 40590M 40644M 40644  40652M 40681M 40681
                                                 40718  40721M 41004  41005  41006  41007  41049M 41049  41067  41070M
                                                 41128M 41169M 41197M 41197  41218  41221M 41353M 41353  41378  41381M
                                                 41412  41429M 41454M 41530M 41619M 41660M 41660  41684M 41684  41709
                                                 41712M 41745  41785M 41854M 41881M 41969M 42015M 42015  42034M 42034
                                                 42059  42062M 42093  42094  42114M 42197M 42237M 42265M 42303M 42303
                                                 42322M 42322  42439  42442M 42591M 42621M 42715M 42723M 42726M 42735M
                                                 42735  42742  42841M 42870M 43409M 43412M 43414  43481M 43482  43485M
                                                 43487  43653M 43656M 43665M 43665  43672  43807M 43894M 43894  43901M
                                                 43931M 43931  43949  43952M 44078M 44078  44095  44098M 44129  44142M
                                                 44160M 44261M 44285M 44285  44304  44307M 44394  44447M 44471M 44483
                                                 44566M 44566  44588  44591M 44638M 44638  44655M 44655  44701M 44713
                                                 44720M 44756M 44756  44776  44779M 44904M 44928M 44928  44972  44975M
                                                 45062M 45062  45068M 45071M 45073  45098M 45100M 45155  45299M 45299
                                                 45320  45323M 45469M 45469  45488  45491M 45597M 45600M 45602  45652M
                                                 45652  45672  45675M 45741M 45750M 45846M 45854M 45857M 45866M 45866
                                                 45873  45916M 45916  45995  45998M 46050  46075M 46179M 46195M 46228M
1AMELIA   Ordinary Symbol and Literal Cross Reference                                                                       Page  434
                                                 46271M 46506  46558  46576M 46598M 46638M 46669M 46885M 46909M 47001M
                                                 47030M 47060M 47098M 47187M 47187  47193  47252M 47262U 47374M 47396
                                                 47413M 47434  47451M 47613M 47613  47630M 47640  47830M 47836M 47858M
                                                 47927M 47927  47944M 47955  48008M 48010M 48012M 48013  48117  48224M
                                                 48295M 48347  48509M 48510  48551M 48601M 48605M 48614M 48614  48621
                                                 48641M 48645M 48654M 48654  48661  48693M 48717M 48739M 48748M 48748
                                                 48922M 48945M 48945  48962M 48973  49296  49462  49660  49764M 49817M
                                                 49839M 49861M 49894M 49905M 49905  49914M 49914  49951M 49973M 49995M
                                                 50026M 50048M 50070M 50103M 50114M 50114  50123M 50123  50160M 50182M
                                                 50204M 50265M 50321M 50361M 50400  50430M 50445M 50483M 50518M 50563M
                                                 50636M 50647M 50663M 50774M 50979M 51001M 51080M 51111M 51140M 51206M
                                                 51221M 51248M 51286M 51312M 51375M 51397M 51419M 51435M 51468M 51493M
                                                 51509M 51528M 51544M 51577M 51596M 51612M 51618M 51640M 51656M 51701M
                                                 51722M 51750M 51783M 51920M 52041M 52133M 52190M 52242M 52299M 52318M
                                                 52333M 52352M 52367M 52386M 52408M 52430M 52456M 52483M 52509M 52584M
                                                 52632M 52632  52761  52764M 52962M 52962  53002  53005M 53047  53070M
                                                 53086M 53093M 53115M 53131M 53148M 53163M 53185M 53201M 53211M 53235M
                                                 53267M 53283M 53319M 53362M 53378M 53385M 53407M 53439M 53479M 53494M
                                                 53524M 53571M 53587M 53594M 53616M 53659M 53675M 53682M 53704M 53747M
                                                 53763M 53805M 53821M 53863M 53879M 53921M 53937M 53974M 53996M 54012M
                                                 54049M 54071M 54087M 54108M 54125M 54147M 54162M 54181M 54196M 54215M
                                                 54231M 54253M 54269M 54291M 54307M 54329M 54345M 54383M 54399M 54441M
                                                 54457M 54499M 54515M 54557M 54573M 54615M 54631M 54673M 54689M 54710M
                                                 54732M 54748M 54770M 54786M 54808M 54824M 54846M 54862M 54900M 54916M
                                                 54942M 54957M 54988M 55007M 55022M 55048M 55071M 55086M 55105M 55127M
                                                 55144M 55163M 55179M 55198M 55220M 55237M 55256M 55272M 55291M 55313M
                                                 55330M 55388M 55403M 55428M 55471M 55529M 55544M 55569M 55611M 55611
                                                 55715  55718M 55773  55786M 55804M 55819M 55845M 55914M 55924M 55947M
                                                 55988M 55995M 56017M 56054M 56073M 56095M 56132M 56151M 56173M 56210M
                                                 56229M 56251M 56288M 56307M 56322M 56341M 56357M 56389M 56408M 56423M
                                                 56449M 56486M 56505M 56520M 56539M 56555M 56587M 56606M 56621M 56647M
                                                 56683M 56738M 56753M 56772M 56787M 56819M 56855M 56910M 56925M 56944M
                                                 56959M 56991M 57028M 57028  57108  57111M 57167  57180M 57199M 57214M
                                                 57250M 57282M 57301M 57320M 57339M 57372M 57396M 57412M 57438M 57455M
                                                 57497M 57536M 57562M 57607M 57639M 57675M 57699M 57713M 57735M 57768M
                                                 57773M 57783U 57816M 57831M 57862M 57881M 57918M 57942M 57958M 57984M
                                                 58052M 58071M 58086M 58105M 58120M 58139M 58154M 58175M 58190M 58211M
                                                 58233M 58249M 58268M 58283M 58302M 58317M 58349M 58368M 58383M 58409M
                                                 58426M 58445M 58460M 58479M 58494M 58526M 58545M 58560M 58586M 58619M
                                                 58639M 58655M 58689M 58704M 58730M 58769M 58775M 58797M 58819M 58856M
                                                 58862M 58884M 58911M 58930M 58946M 58988M 59027M 59033M 59055M 59077M
                                                 59115M 59121M 59143M 59170M 59189M 59204M 59235M 59261M 59303M 59340M
                                                 59376M 59412M 59435M 59519M 59531M 59553M 59570M 59589M 59607M 59612M
                                                 59613M 59623  59630  59700M 59731M 59764M 59786M 59816M 59838M 59873M
                                                 59908M 59943M 59969M 59993M 60048M 60078M 60109M 60127M 60142M 60168M
                                                 60199M 60227M 60287M 60309M 60336M 60363M 60420M 60447M 60503M 60608M
                                                 60653M 60675M 60690M 60718M 60750M 60769M 60795M 60845M 60861M 60883M
                                                 60905M 60921M 60947M 60984M 60984  61141  61144M 61218  61246M 61268M
                                                 61289M 61304M 61326M 61347M 61362M 61480M 61520M 61535M 61554M 61576M
                                                 61791M 61824M 61845M 61865M 61918M 61953M 61965M 61969M 61971  62025M
                                                 62084M 62117M 62130M 62134M 62136  62201M 62236M 62253M 62257M 62259
                                                 62313M 62372M 62410M 62530M 62554M 62584M 62599M 62614M 62629M 62644M
                                                 62669M 62697M 62719M 62738M 62772M 62819M 62866M 62906M 62925M 62944M
                                                 62966M 63030M 63082M 63106M 63121M 63145M 63180M 63219M 63245M 63298M
                                                 63363M 63388M 63403M 63428M 63443M 63464M 63496M 63522M 63574M 63639M
                                                 63664M 63679M 63704M 63719M 63751M 63787M 63823M 63859M 63895M 63914M
                                                 63936M 63966M 63988M 64007M 64032M 64047M 64070M 64092M 64159M 64184M
                                                 64206M 64268M 64339M 64423M 64462M 64462  64582  64585M 64626  64658M
                                                 64673M 64698M 64714M 64746M 64782M 64818M 64854M 64873M 64900M 64933M
1AMELIA   Ordinary Symbol and Literal Cross Reference                                                                       Page  435
                                                 64970M 65007M 65044M 65081M 65107M 65126M 65180M 65195M 65202M 65242M
                                                 65257M 65262M 65274  65291M 65320  65337M 65366  65383M 65412  65429M
                                                 65454  65464M 65501M 65520M 65546M 65589M 65631M 65709M 65751M 65829M
                                                 65871M 65940M 65967M 66009M 66053M 66085M 66107M 66122M 66156M 66203M
                                                 66250M 66297M 66344M 66391M 66438M 66485M 66532M 66566M 66604M 66622M
                                                 66642M 66661M 66695M 66714M 66729M 66755M 66802M 66817M 66839M 66918M
                                                 66944M 66991M 66999M 67039M 67057M 67072M 67079M 67119M 67137M 67152M
                                                 67171M 67186M 67205M 67220M 67239M 67254M 67273M 67288M 67307M 67329M
                                                 67390M 67417M 67442M 67471M 67498M 67524M 67573M 67588M 67603M 67613M
                                                 67626  67643M 67672  67689M 67714  67724M 67743M 67788M 67820M 67852M
                                                 67876M 67924M 67924  67943  67946M 67977  68017M 68035M 68085M 68119M
                                                 68169M 68205M 68251M 68287M 68302M 68327M 68366M 68381M 68386M 68387M
                                                 68396M 68396  68406M 68406  68446M 68498M 68525M 68553M 68553  68702
                                                 68705M 68748  68771M 68832M 68869M 68869  68926  68929M 68973  69025M
                                                 69078M 69214M 69232M 69355M 69388M 69388  69419  69422M 69454  69455
                                                 69479M 69545M 69545  69599  69602M 69656M 69671M 69777M 69792M 69800
                                                 69802M 69803M 69814  69820M 69823M 69852  69858M 69881M 69881  69900
                                                 69903M 69958U 69993M 69993  70018  70047M 70047  70062  70065M 70153M
                                                 70154  70155M 70156  70199M 70209U 70236M 70236  70255M 70255  70298
                                                 70301M 70438M 70438  70457  70460M 70784M 70784  70823  70826M 70916M
                                                 70919  70931M 70938M 70947M 70947  70954  71032M 71091M 71268  71277M
                                                 71304M 71325M 71349M 71380M 71407M 71434M 71459M 71483M 71520M 71520
                                                 71538  71541M 71669M 71678M 71706M 71706  71728  71731M 71835M 71836
                                                 71845M 71845  71872M 71873M 71873  71911U 71931M 71957M 71957  71986M
                                                 71986  72008  72011M 72134M 72134  72172M 72175  72187M 72194M 72196
                                                 72256M 72256  72296M 72341M 72341  72366M 72366  72408  72411M 72462
                                                 72658  72667M 72667  72684  72829M 72829  72851  72854M 73181M 73181
                                                 73205M 73205  73258  73261M 73385M 73385  73642M 73642  73676M 73676
                                                 73697  73700M 73743M 73743  73768  73793  73818  73843  73868  73893
                                                 73918  73943  73976M 73976  74018  74021M 74077  74256M 74266U 74432M
                                                 74438M 74462M 74494M 74527M 74538M 74603M 74603  74736  74739M 74780
                                                 74864M 74899M 75048M 75052M 75061M 75061  75068  75088  75211M 75211
                                                 75270  75273M 75314M 75315M 75317M 75343M 75343  75360  75398M 75398
                                                 75422M 75422  75441  75444M 75500M 75500  75515  75518M 75573M 75573
                                                 75590U 75616M 75616  75622  75689M 75713M 75748M 75776M 75809M 75851M
                                                 75876M 75908M 75929M 75957M 75980M 76031M 76048M 76073M 76121M 76142M
                                                 76159M 76187M 76205M 76230M 76278M 76299M 76316M 76344M 76363M 76381M
                                                 76405M 76446M 76470M 76512M 76530M 76558M 76576M 76594M 76611M 76629M
                                                 76716M 76733M 76739M 76763M 76790M 76807M 76831M 76848M 76872M 76889M
                                                 76913M 76962M 76994M 77018M 77035M 77063M 77087M 77136M 77154M 77172M
                                                 77178M 77202M 77226M 77245M 77280M 77314M 77332M 77356M 77380M 77402M
                                                 77411M 77450M 77468M 77486M 77510M 77519M 77543M 77561M 77579M 77597M
                                                 77625M 77649M 77677M 77695M 77704M 77722M 77740M 77749M 77767M 77786M
                                                 77790M 77790  77823  77826M 77971M 77971  78080  78083M 78128  78155
                                                 78188M 78214M 78229M 78248M 78270M 78372M 78378  78384M 78386M 78387
                                                 78388  78463M 78467M 78476M 78476  78483  78524M 78600M 78600  78640
                                                 78643M 78748M 78774M 78818M 78863M 78866M 78868  78883M 78909  78930
                                                 78951  78972  79019M 79022M 79024  79210M 79210  79230  79233M 79280M
                                                 79281M 79283M 79403M 79403  79447  79457M 79457  79466  79517M 79536M
                                                 79536  79602  79605M 79746M 79747M 79748  79774M 79775M 79776  79789M
                                                 79789  79808M 79808  79830  79833M 79925M 79926M 79942M 79942  79961M
                                                 79961  79979  79982M 80062M 80063M 80064  80098M 80099M 80156M 80156
                                                 80175M 80175  80339M 80339  80492M 80492  80541M 80541  80556M 80557M
                                                 80629M 80629  80651M 80652M 80747  80752M 80752  80859  80982  80999M
                                                 80999  81097M 81097  81132M 81142  81145M 81228  81482M 81507M 81507
                                                 81572  81616  81627M 81678  81713  81727  81737M 81737  81742  81743M
                                                 81744  81751M 81974M 81974  82029  82040M 82047M 82086M 82086  82141
                                                 82148M 82154M 82262M 82262  82315  82330M 82358M 82381M 82436M 82436
                                                 82489  82512M 82601M 82624M 82679M 82679  82815M 82834M 82834  82896
1AMELIA   Ordinary Symbol and Literal Cross Reference                                                                       Page  436
                                                 82908M 82967M 82967  83130M 83130  83363M 83363  83482M 83482  83684M
                                                 83686M 83692M 83717M 83717  83733M 83835  83877M 83969U 84011M 84011
                                                 84029  84032M 84063  84076M 84099M 84099  84117  84120M 84151  84164M
                                                 84187M 84187  84205  84208M 84239  84252M 84263M 84286M 84286  84304
                                                 84307M 84338  84362M 84401M 84401  84429M 84429  84455  84458M 84489
                                                 84592M 84592  84605  84608M 84639  84781M 84837M 84838M 84838  84855
                                                 84867M 84873M 84874  84890  84896M 84931M 84934  84944M 84997M 85018
                                                 85021M 85052  85119M 85147M 85147  85168  85171M 85202  85256M 85287M
                                                 85315M 85315  85336  85339M 85370  85447M 85447  85467U 85503  85506M
                                                 85537  85542M 85576M 85603M 85603  85624  85627M 85658  85663M 85697M
                                                 85724M 85724  85772  85774M 85796M 85819M 85819  85867  85912M 85946M
                                                 85978M 85978
 R2            2 00000002 00000001 A   #     795  9181M  9186M  9209M  9214M  9222M  9227M  9321M  9322M  9334   9420M
                                                  9430U  9567M  9735M  9747M  9747   9780M 10008M 10019M 10019  10038
                                                 10039M 10455M 10456  10834M 11040M 11059  11181M 11383M 12951M 12981M
                                                 13142M 13144M 13160  13167M 13624M 13650  13682  13695  14316M 14317M
                                                 14318M 14320  14330  14387  14464  14475M 14476M 14477  15690M 15698U
                                                 15726M 15729  15741M 15755  15766  15828  15829  15830  15843  16172M
                                                 16182U 16232  16267  16456M 16509M 16525M 16526M 16527M 16547  16561
                                                 16637  16775  17227M 17228M 17229M 17230  17251  18035M 18036M 18037M
                                                 18038  18039  18138M 18151  18188  18206M 18262  18501M 18502M 18503M
                                                 18599  18630  18849M 18853M 18886M 19030M 19040U 19050  19052M 19089
                                                 19094M 19251M 19450  20909M 20926M 21497M 21498  21502M 21504  22712M
                                                 22722U 22812  22834M 23252M 23327  23341  23352M 23363M 23363  23378U
                                                 23404M 23591M 23713  24679M 24684M 25056M 25057M 25058M 25059  25060
                                                 25092  25155M 25211  25268M 25274M 25275M 25276M 25288  25297  25312
                                                 25362M 25377  25551M 25551  25708M 25746M 25746  25947  26145  26146
                                                 26147  26301M 26311U 27316M 27334M 27334  27346M 27352  27394  27414M
                                                 27424U 27711M 27721U 27731  27733M 27779  27780M 27994M 28034M 28300
                                                 28545M 28555U 29340M 29350U 29391  29569M 29580M 29580  29595U 29621M
                                                 29957M 29958M 29970  29989M 29989  29995  29996  30043M 30044M 30077M
                                                 30080M 30131  30145M 30160  30166  30386  31158M 31159M 31193  31256
                                                 31577M 31587U 31757M 31772U 31817  31852  32012M 32040M 32045M 32308M
                                                 32426  34413M 34418  34454  34552M 34663  34772  35135M 35167  35325M
                                                 35355  35475M 35476M 35486U 35555M 35556M 35568  35578M 35578  35583
                                                 35671M 35681U 35695M 35695  35721M 35741M 35741  35767  35914M 35927M
                                                 35927  35969  35970M 35985  36084M 36085M 36086M 36271M 36272M 36273M
                                                 36623M 36671  36705  37152M 37165  37199M 37226M 37226  37259M 37291
                                                 37328M 37328  37342M 37342  37349M 37351  37372  37373M 37374  37748M
                                                 37749  37752M 37752  37753  38202M 38270  38528M 38538U 38576  38654
                                                 38667  39557M 39574  39652M 39662U 39831  41148M 41174  41252M 41262U
                                                 41743M 41899M 41899  41929  41934M 41935M 41949  41963  41977M 42002
                                                 42138M 42206  42601M 42604M 42606  42623  42850M 42853M 42855  42872
                                                 42941M 42945M 42947  43262M 43264M 43264  43480M 43592M 43602U 44003M
                                                 44040  44045  44147M 44184  44210M 44210  44225U 44229  44230M 44531M
                                                 44538  44810M 44820U 44834M 44834  44860M 44881M 44881  44904  45093M
                                                 45098  45144  45252M 45258  45259  45367M 45594M 45595M 45596M 45749M
                                                 45753M 45755  45770M 45783M 45783  45807M 45821M 45821  46071M 46076M
                                                 46508M 46542  46591  46803M 46858  46898  47174  48599M 48601  48641
                                                 48711  48831M 48974M 48974  49866M 50004M 50004  50075M 50213M 50213
                                                 50230M 50241M 50241  50256U 50266  50271M 50462M 50501M 50501  50539M
                                                 50539  50554U 50564  50677  50682M 50861M 50896M 50896  50908  50915M
                                                 50966  51017  51145M 51317M 51317  51983M 51994M 51994  52009U 52132
                                                 52203M 52522M 52532U 52809M 52822M 52822  52873M 52892M 52892  52928M
                                                 52936  53092M 53384M 53444M 53499M 53499  53593M 53681M 55335M 55346M
                                                 55346  55437M 55476M 55487M 55487  55578M 55994M 56688M 56699M 56699
                                                 56796M 56860M 56871M 56871  56968M 57360M 57390  57460M 57470U 57708M
                                                 57708  57906M 57936  59528M 59528  59559M 59579  59623  59630M 59986
                                                 60341M 60357  60425M 60441  60467M 60496  60613M 60624M 60624  60639U
1AMELIA   Ordinary Symbol and Literal Cross Reference                                                                       Page  437
                                                 60662  60800M 61581M 61598  61870M 61878  61890  61925M 61966  62056
                                                 62091M 62105M 62122M 62131  62173  62208M 62245M 62254  62344  62379M
                                                 62454  62674M 62675M 62706  62973M 63448M 63449M 63454  63546  63548M
                                                 63567  64052M 64053M 64054M 64055  64097M 64109  64221  64883M 64885M
                                                 64890  64916  64953  64990  65027  65064  65473M 65485  65510  66996M
                                                 66998  67018M 67078  67098M 67366M 67447M 67447  67561M 67748M 67748
                                                 67795M 68179M 68181  68261M 68263  69106M 69122  69138  69234M 69234
                                                 69252M 69273M 69309M 69473M 69474M 69479  69638M 69650  69676  69677
                                                 69689M 69689  69708M 69740M 69772M 69777  71268M 71313  71645M 71646M
                                                 71647M 71649  71650  72017  72278M 72279M 72279  72305M 72321M 72321
                                                 72329  72331  72334M 72336  72362M 72520M 72745  73706  73972M 74062M
                                                 74536  74745  74924M 74925M 74942M 74942  74947  74981  75012M 75029M
                                                 75029  75207M 75475M 75476M 75477B 75549M 75550B 75820M 75833  75856
                                                 75917  76053M 76058  76078M 76079M 76090M 76090  76103  76130  76210M
                                                 76215  76235M 76236M 76247M 76247  76260  76287  76410M 76475M 76475
                                                 76918M 76919M 76919  76920M 76932  77003  77231M 77899M 77909U 78155M
                                                 78238  79059M 79138  79316M 79338  79344  79358  79380M 79386  79469M
                                                 79489  80251  80335M 80363  80488M 80513  80553M 80555M 80557  80577M
                                                 80601  80637M 80643M 80650M 80652  80673M 80697  80765M 80766M 80796M
                                                 80824  80864M 80865M 80874M 80876M 80880M 80904M 80930  80983M 80984M
                                                 80985  80987  81048M 81051M 81053  81093M 81151  81323M 81377M 81382
                                                 81405M 81459M 81464  81503M 81537  81656M 81829M 81855  81970M 82004
                                                 82082M 82116  82171  82258M 82290  82432M 82464  82675M 82709  82769M
                                                 82779U 82802M 82802  82803M 82805  82830M 82871  82963M 82996  83056M
                                                 83066U 83072M 83097M 83097  83098M 83099M 83102  83106M 83106  83107M
                                                 83126M 83159  83219M 83243  83250M 83270M 83290  83313  83319M 83329M
                                                 83330  83359M 83384  83435M 83435  83436M 83437M 83437  83438M 83439M
                                                 83440  83443M 83443  83444M 83445M 83446  83478M 83654M 83686  83749
                                                 83906M 83935  84007M 84038  84095M 84126  84183M 84214  84282M 84313
                                                 84425M 84518M 84519M 84521M 84535  84556M 84562M 84727M 84936M 85027
                                                 85143M 85177  85311M 85345  85443M 85512  85540M 85555  85599M 85633
                                                 85661M 85676  85720M
 R3            3 00000003 00000001 A   #     808  9171M  9179   9199M  9207   9216M  9323M  9324M  9334   9734M  9762U
                                                  9778M  9792M  9802U  9823  11384M 11397M 11397  11423M 12952M 12954
                                                 13674M 13760  13761  13779  13780  13861  13862  13880  13881  14319M
                                                 14320M 14450M 14451M 16186M 16201  16237  16266  16661M 16717  16810M
                                                 16820U 17537M 17538M 17539M 17540M 17540  17550U 18850M 18852  18882M
                                                 18885  19050M 19088  19094  19252M 19293  19303  19448  21497M 23592M
                                                 23680  23695  23708  23719  23736  23746M 23747  24680M 24683M 25363M
                                                 27317M 27347M 27389  27731M 27778  27995M 28035M 28130  28162M 28162
                                                 28169  28170  28224  28235  28305  29354M 29355M 29364M 29364  29384
                                                 29413  29434  29916M 29924U 29939M 29940M 29940  31758M 31786  31822
                                                 31851  32009M 32010M 32010  32011  32013  32014  32309M 32421  34553M
                                                 34662  34740  34754  34767  35153M 35247  35343M 35373  35493M 35505
                                                 35512M 35519M 35528M 35528  35535  35915M 35969M 36350M 36360U 36373
                                                 36375  36628M 36638U 36652M 36652  37153M 37165  37260M 37350M 37351
                                                 37373  37377M 37386M 37386  37393  37749M 38545M 38561U 38585M 38594M
                                                 38594  38666  39635M 39681M 39855M 39855  39879U 39895M 39895  39955M
                                                 39955  40305M 40316M 40316  40364M 40373M 40384M 40384  40454M 40463M
                                                 40474M 40474  40544M 40553M 40564M 40564  40634M 41744M 41977  42205M
                                                 42206M 42217M 42217  42231  42245  42248M 42250  42267  42282  45373M
                                                 45375  45405  46072M 46073M 46506M 46539  46804M 46859  46903  47173
                                                 47209  47212M 47214  48600M 48835M 48835  48905  48977M 49870M 49870
                                                 49884  49938  50007M 50079M 50079  50093  50147  50216M 50624M 50641
                                                 50862M 50863M 50875  50885M 50885  50921M 50930M 50930  51149M 51149
                                                 51165  51320M 52809M 52871M 52879  52926M 52934  52936  53092M 53384M
                                                 53445M 53456M 53456  53501M 53593M 53681M 55994M 57361M 57385  57712M
                                                 57712  57907M 57931  59530M 59530  59740M 59750U 59981  61876M 61878M
                                                 61890  61963M 61965  61966M 62056  62105  62128M 62130  62131M 62173
1AMELIA   Ordinary Symbol and Literal Cross Reference                                                                       Page  438
                                                 62245  62251M 62253  62254M 62344  65132M 65143M 65143  65553M 65594M
                                                 65605M 65605  65671M 65714M 65725M 65725  65791M 65834M 65845M 65845
                                                 65911M 67372M 67375  67392  67436  67447  67453M 67456  67473  67518
                                                 67562M 67749M 67760M 67760  67797M 68181M 68263M 68746M 68761M 68761
                                                 68791  68838M 69122M 69138M 69147M 69320M 69453M 70915M 71451  71809M
                                                 71810M 71810  71831U 71885  71886  71917  71926  72302M 72304M 72332
                                                 72333M 72335  72564M 72574U 73079M 73111  74063M 74073U 74537  74907M
                                                 74954  76414M 76414  76428  76478M 76479  79085M 79142  79154M 79161M
                                                 79163  79317M 79318M 79338  79358  79489  80757M 80758M 80763  80764M
                                                 80766  80769M 80771  80862M 80865  80867M 80869  80875M 80879M 80985M
                                                 81238M 81238  81322M 81382M 81466M 81467M 81468  81742M 81771  81785
                                                 81808  81822  81842  81885  81915  82172  82573M 82591M 82797M 83084M
                                                 83100  83102M 83217M 83227M 83303M 83321M 83434M 83448M 83449  83657M
                                                 84728M 84899  84905  84924M 84935
 R4            4 00000004 00000001 A   #     821  9733M  9775   9777M 10788M 10799U 13665M 14261M 14271U 15355M 15365U
                                                 15379M 15379  15436M 15436  15448M 15716M 15716  15723  15830M 16187M
                                                 16199  16264  16830M 16831M 17066M 17066  17251M 17261U 18039M 18049U
                                                 18174  18504M 18514U 18524  18526M 18628  18629M 18663M 18670  18671M
                                                 18831M 18841M 18876M 18876  18888  18905M 18925M 18925  19253M 19266
                                                 19325  19478M 19478  19504M 19529  19729  23641M 23651U 23674M 23686M
                                                 29412M 29413M 29414  29427  29915M 30022  30025M 30042M 30044  30087M
                                                 30487M 30487  30512  30513  30657M 30680M 30680  30812M 30812  30888
                                                 31759M 31784  31849  34701M 34711U 34734M 34746M 34937M 34947U 35007
                                                 35494M 35495M 35505  35512  35916M 35933  35986  37472M 37475  37507M
                                                 37531M 37531  37551M 37552  37750M 37986  38028  38092  38900M 38910U
                                                 38924M 38924  38951M 38965M 38965  40304M 40331  40341  40361M 40362M
                                                 40362  40399  40409  40429M 40439  40489  40499  40519M 40529  40579
                                                 40589  40609M 40619  40762M 40772U 41427M 41654  41745M 41821M 41898M
                                                 41898  42896M 42906U 42917  42918M 42927M 42927  43092  43332  43396M
                                                 43405  43731  43785  43861  45019M 45019  45101M 45111U 45125M 45125
                                                 45178M 45193M 45193  45223  45267  45375M 45377M 45416  46943M 46953U
                                                 46972  47111  47155M 47163U 49893M 49893  49913M 49928M 49928  49960
                                                 50102M 50102  50122M 50137M 50137  50169  52795M 52805U 59466M 59467M
                                                 59477U 62476M 62477M 62478M 62499  62513  62573  62972  64115M 65131M
                                                 65158  65201  65221M 65551M 65551  65620  65630  65650M 65660  65740
                                                 65750  65770M 65780  65860  65870  65890M 65900  68747M 68837M 69148M
                                                 69164  69264  69293  69328M 69456M 69467M 69467  69494M 69503M 69503
                                                 70914M 71446  72971M 72972M 72972  73011U 73051M 73075U 73079  73080M
                                                 73090M 73090  73105  73419M 73429U 74077M 74475M 74475  74856M 74901
                                                 74924  75042M 75042  75048  75119  76634M 76641M 76641  76653  76660M
                                                 76674U 76701  77103  78286M 78286  78289  78291M 78300M 78300  78337M
                                                 78341  78343M 78344M 78388M 78520  79086M 79322M 79322  79472M 79503
                                                 79907M 79923  79925  79934  80096M 80098  80136  80749M 80759  81236M
                                                 81236  81404M 81464M 81467  81609M 81625  81749  82032M 82038  82045
                                                 82144M 82155  82165  82324M 82324  82325M 82330  82352M 82352  82353M
                                                 82358  82506M 82506  82507M 82555  82562M 82583  82590M 82624  83251M
                                                 83302M 83320M 83327  83659M 83662M 83664  83684  83685  83833M 83891M
                                                 85869M 85872  85884  85919M 85929
 R5            5 00000005 00000001 A   #     834 10743M 10753U 12079M 13591M 13601U 14260M 14614M 14615M 14615  14621M
                                                 15252M 15262U 15645M 15655U 16249M 16259U 16373M 16383U 16886M 17190M
                                                 17193  17206  17230M 17242  17298  17436  17447  17554  18034M 18038M
                                                 18064  18073M 18085  18143  18179  18524M 18627  18670M 18841  18887
                                                 19254M 19266  19594M 19604U 25042M 25052U 29774M 29797M 29797  29803M
                                                 29811  29813M 29816M 29832M 29832  29877  29891  29908  29910M 29951M
                                                 29951  30010  30016  30021M 30117M 30117  31834M 31844U 33660M 33660
                                                 33679M 34538M 34548U 34655  34781  36815M 36825U 37423M 37433U 38877M
                                                 40299M 40300M 40331  40399  40439  40489  40529  40579  40619  41426M
                                                 41531  41620  41749M 41749  41812M 41812  41824M 41836M 41848  42008
                                                 42093M 42282M 42282  42296  42917M 43091  43331  43404  43405  43750M
1AMELIA   Ordinary Symbol and Literal Cross Reference                                                                       Page  439
                                                 43760U 43862  45021M 45021  45223M 45266  46922M 46922  46972M 47134M
                                                 47134  49179M 49179  49244M 49263M 49263  49296M 49462M 49714  49752
                                                 55759M 55769U 59440M 59466  60521M 60533  60543M 60543  60559  61216M
                                                 61544  61582M 62489  62571M 62573M 62934  63004  63006M 63023  63250M
                                                 63270  63272M 63291  64055M 64060  64242  64244M 64261  64313  64315M
                                                 64332  64397  64399M 64416  64642M 64643M 65158  65620  65660  65740
                                                 65780  65860  65900  65980  65981  65981  65981  65982M 65992U 67888M
                                                 68620  68620  68620  68748M 68832  68970M 69078  70106M 70116U 70182
                                                 70183  70215  70224  70230  70342M 70352U 70491M 70501U 70531X 70874M
                                                 70884U 71762M 71772U 72042M 72052U 72462M 72472U 72885M 72895U 73105
                                                 73302M 73312U 74855M 74900  78288M 78288  78289  78291M 78320M 78346M
                                                 78372  78387M 78520  79087M 79095U 79116M 79130M 79326M 79326  79465M
                                                 79466M 79512M 79512  79517  80014M 80015M 80059  80137  80981M 81068
                                                 81232M 81232  81468  81469M 81476  81610M 81626  81750  82033M 82039
                                                 82046  82145M 82156  82166  82169M 82185  82320M 82381  82502M 82512
                                                 82538M 82572M 82589M 82601  83649M 83651M 83651  83656M 83657  83658M
                                                 83659  83660M 83661  83664M 83667M 83669  83836M 83847M 83847  83870M
                                                 83880M 84703M 84703  84734M 84734  84923M 84945  85216M 85230  85261M
                                                 85281  85872M 85884  85929
 R6            6 00000006 00000001 A   #     847  9140M 12159M 12175U 12189M 12190M 12190  12197  12881M 12882M 12882
                                                 12983  13122M 13132U 14405M 14407M 14439  14451  14645M 14661U 14675M
                                                 14676M 14676  14683  15217M 15226  15248U 15490  15640M 15726  15755
                                                 15829M 15864M 15864  16359M 16524M 16537  16599  16887M 17192M 17201
                                                 17223U 17511M 18020M 18030U 18496M 18622  18635  18650  18721M 18721
                                                 18771  18812M 18842M 18843  18854  18942  22285M 22295U 25062M 25072U
                                                 25420M 29724M 29734U 33661M 33673M 33673  33680  33681M 34636M 34660
                                                 34953M 34979  36076M 36077  36129  36263M 36264  36316  36377  36378
                                                 36797M 36808U 36853  36984M 36994U 37612  37729M 37739U 38353M 38363U
                                                 38863M 38873U 40285M 40295U 41412M 41422U 41753M 41753  41923M 41923
                                                 41929M 41996M 41996  42002M 42009  42094M 42295  42297  42600M 42695
                                                 42696M 42708  43001  43348  43408  43409  43480  44483M 44535  45025M
                                                 45025  45226M 45238  46335M 46345U 48183M 48193U 49183M 49183  49660M
                                                 49733M 49733  49740M 49757  51334M 51345M 51345  51360U 51384  51756M
                                                 51765M 51765  53047M 53070  53086  53115  53131  53148  53163  53185
                                                 53201  53211  53235  53267  53283  53319  53362  53378  53407  53439
                                                 53479  53494  53524  53571  53587  53616  53659  53675  53704  53747
                                                 53763  53805  53821  53863  53879  53921  53937  53974  53996  54012
                                                 54049  54071  54087  54108  54125  54147  54162  54181  54196  54215
                                                 54231  54253  54269  54291  54307  54329  54345  54383  54399  54441
                                                 54457  54499  54515  54557  54573  54615  54631  54673  54689  54710
                                                 54732  54748  54770  54786  54808  54824  54846  54862  54900  54916
                                                 54942  54957  54988  55007  55022  55048  55071  55086  55105  55127
                                                 55144  55163  55179  55198  55220  55237  55256  55272  55291  55313
                                                 55330  55388  55403  55428  55471  55529  55544  55569  55773M 55786
                                                 55804  55819  55845  55914  55924  55947  55988  56017  56054  56073
                                                 56095  56132  56151  56173  56210  56229  56251  56288  56307  56322
                                                 56341  56357  56389  56408  56423  56449  56486  56505  56520  56539
                                                 56555  56587  56606  56621  56647  56683  56738  56753  56772  56787
                                                 56819  56855  56910  56925  56944  56959  56991  57167M 57180  57199
                                                 57214  57250  57282  57301  57320  57339  57372  57396  57412  57438
                                                 57455  57497  57536  57562  57607  57639  57675  57699  57735  57768
                                                 57816  57831  57862  57881  57918  57942  57958  57984  58052  58071
                                                 58086  58105  58120  58139  58154  58175  58190  58211  58233  58249
                                                 58268  58283  58302  58317  58349  58368  58383  58409  58426  58445
                                                 58460  58479  58494  58526  58545  58560  58586  58619  58639  58655
                                                 58689  58704  58730  58769  58797  58819  58856  58884  58911  58930
                                                 58946  58988  59027  59055  59077  59115  59143  59170  59189  59204
                                                 59235  59261  59303  59340  59376  59412  59435  59519  59553  59570
                                                 59589  59607  59700  59731  59764  59786  59816  59838  59873  59908
1AMELIA   Ordinary Symbol and Literal Cross Reference                                                                       Page  440
                                                 59943  59969  59993  60048  60078  60109  60127  60142  60168  60199
                                                 60227  60287  60309  60336  60363  60420  60447  60503  60608  60653
                                                 60675  60690  60718  60750  60769  60795  60845  60861  60883  60905
                                                 60921  60947  62972M 63018  63068U 63349U 63625U 64220M 64220  64221M
                                                 64256  64327  64628M 64638U 67979M 67989U 68971M 69025  69323M 69934M
                                                 69975  70010  71608M 71611  71624  71648  74780M 74790U 75646M 75654U
                                                 78130M 78140U 79924  80126  80276M 80277M 80279M 80313M 80429M 80430M
                                                 80432M 80466M 80732M 80733M 80743U 80966M 80967M 80977U 81228M 81475
                                                 81572M 82029M 82141M 82315M 82489M 82896M 83194M 83195M 83205U 83419M
                                                 83420M 83430U 83653M 83662  83834M 83868M 83878M 84063M 84076  84151M
                                                 84164  84239M 84252  84263  84338M 84350U 84362  84489M 84499U 84639M
                                                 84649U 84781  84944  85052M 85062U 85119  85202M 85212U 85256  85287
                                                 85370M 85380U 85537M 85576  85658M 85697  85772M 85796  85867M 85912
                                                 85946
 R7            7 00000007 00000001 A   #     860 15215M 15218  15231  15495  15639M 15827  15828M 16358M 16369U 18476M
                                                 18486U 18848M 18943  38849M 38859U 38863  42483M 44129M 44142  44160
                                                 44261  44394M 44447  44471  46761M 46770U 47708M 47717M 47717  47734U
                                                 48161M 48170U 48813M 48822U 49020M 49031U 49158M 49167U 50806M 50817U
                                                 51835M 51846U 57153M 57163U 60870  60933  61217M 61232U 61583M 61616U
                                                 62472U 64411  64626M 64658  64673  64698  64714  64746  64782  64818
                                                 64854  64873  64900  64933  64970  65007  65044  65081  65107  65126
                                                 65180  65195  65242  65257  65291  65337  65383  65429  65464  65501
                                                 65520  65546  65589  65709  65829  65940  65967  66009  66053  66085
                                                 66107  66122  66156  66203  66250  66297  66344  66391  66438  66485
                                                 66532  66566  66604  66622  66642  66661  66695  66714  66729  66755
                                                 66802  66817  66839  66918  66944  66991  67039  67057  67072  67119
                                                 67137  67152  67171  67186  67205  67220  67239  67254  67273  67288
                                                 67307  67329  67417  67442  67498  67524  67573  67588  67603  67643
                                                 67689  67724  67743  67788  67820  67852  67876  67977M 68017  68035
                                                 68085  68119  68169  68205  68251  68287  68302  68327  68366  68381
                                                 68446  68498  68525  68972M 69017M 69017  69175M 69175  69325M 69454M
                                                 69523  69524  69633M 69839M 69839  69935M 69945U 70005  71610M 71619
                                                 71641U 74081M 74091U 74107M 74108M 74108  74406
 R8            8 00000008 00000001 A   #     873 46039M 46040M 46040  46048U
 R9            9 00000009 00000001 A   #     886 11889U 14256U 14595U 15635U 16161U 19952U 20660U 25023U 28957U 31513U
                                                 31746U 38821U 40280U 40758U 42479U 45012U 46035U 53042U 55755U 57148U
                                                 61181U 64622U 68742U 68966U 70338U 70863U 72448U 73298U 74058U 74776U
                                                 75310U 78120U 78680U 80728U 80855U 80961U 81182U 81568U 83190U 83415U
                                                 83635U
 SAVEDATE      4 00000010 FFFFFF9B     F   80196 81678M 81828
 SAVEDAY       4 0000000C FFFFFF9B     F   80195 81616M 81829
 SCAN          1 00000000 00000004     T   22981 22981  52649  79556
 SCANERR       4 0000E97A 00000001     I   78739 78815  78841B 78855B 78903B 78924B 78945B 78966B 78998B 79012B 79053B
                                                 79079B
 SCANNEXT      4 0000E968 00000001     I   78712 78889B 78910B 78931B 78952B 78973B 78982B 79039B 79178B
 SCANPARM      2 0000E936 00000001     H   78634 10354
 SCANPLEN      4 00000000 FFFFFF9C     F   78619 78684M 78817
 SCANPWA       8 00000000 FFFFFF9C     J   78627 78652  78680U 79206  79208  79209
 SCINIT        1 00000000 00000003     T   22980 22980  45939  52648  79555
 SCNCB         4 000007F8 00000001     F    8603  8614  52795  52805U
 SCNKW         8 000007FC 00000001     C    8605 48289  49238  49511  49549
 SCNLEN        4 00000804 00000001     A    8606 52809  52936M
 SCNSYSIN      2 0000E754 00000001     H   78074 10355  45938
 SCNVAL        4 000007F8 00000001     A    8604 20282  20303  20324  20345  20366  22054  22075  22096  22117  22138
                                                 22159  46611  47661  49088  49101  49115  49118  51038  52271  52274
                                                 79059
 SDWA          1 00000000 FFFFFFE9     J    3372  4368   5111  75654U 77778  77785M
 SDWAABCC      4 00000004 FFFFFFE9     B    3387 75820  76001
 SDWACLEN      8 000001C8 FFFFFFE1 A   U    4371  4378   4379
1AMELIA   Ordinary Symbol and Literal Cross Reference                                                                       Page  441
 SDWADEND      8 000000F0 FFFFFFE1     D    4365  4375
 SDWADLEN      8 000000F0 FFFFFFE1 A   U    4375  4376
 SDWAEEND      8 00000150 FFFFFFE5     D    4316  4377
 SDWAELEN      8 00000150 FFFFFFE1 A   U    4377  4378   4379   4386
 SDWAEND       8 00000298 FFFFFFE9     D    4011  4368
 SDWAGRSV     64 00000018 FFFFFFE9     C    3444 76410
 SDWAIEND      8 00000010 FFFFFFE7     D    4238  4372
 SDWAILEN      8 00000010 FFFFFFE1 A   U    4372  4378   4379
 SDWALEN       8 00000298 FFFFFFE1 A   U    4368  4379
 SDWALEND      8 00000020 FFFFFFE6     D    4286  4373
 SDWALLEN      8 00000020 FFFFFFE1 A   U    4373  4378   4379
 SDWAMLEN      8 00000600 FFFFFFE1 A   U    4380  4383   4389
 SDWAMLNP      8 000005E0 FFFFFFE1 A   U    4379  4380
 SDWANLNS      8 000001F0 FFFFFFE1 A   U    4376  4383   4391
 SDWANOPR      1 00000000 FFFFFFE1 A   U    4394 77781B
 SDWANRC1      1 00000000 FFFFFFE3     J    4340  4370
 SDWANRC2      1 00000000 FFFFFFE2     J    4349  4374
 SDWANRC3      1 00000000 FFFFFFE1     J    4362  4375
 SDWANXT1      4 0000006C FFFFFFE9     F    3514 76053
 SDWANXT2      4 0000007C FFFFFFE9     F    3575 76210
 SDWAPEND      8 00000020 FFFFFFE4     D    4334  4369
 SDWAPLEN      8 00000020 FFFFFFE1 A   U    4369  4380
 SDWAPTRS      1 00000000 FFFFFFE4     J    4325  4369
 SDWARCDE      1 000000FC FFFFFFE9     B    3805 77785M
 SDWARC1       1 00000000 FFFFFFE8     J    4013  4371
 SDWARC2       1 00000000 FFFFFFE7     J    4232  4372
 SDWARC3       1 00000000 FFFFFFE6     J    4244  4373
 SDWARC4       1 00000000 FFFFFFE5     J    4294  4377
 SDWAREND      8 000000F0 FFFFFFE3     D    4342  4370
 SDWARLEN      8 000000F0 FFFFFFE1 A   U    4370  4376
 SDWASEN       8 00000010 FFFFFFE2     D    4355  4374
 SDWASEND      8 000001C8 FFFFFFE8     D    4226  4371
 SDWASLEN      8 00000710 FFFFFFE1 A   U    4389  4391
 SDWASPL       8 00000010 FFFFFFE1 A   U    4374  4376
 SDWATLEN      8 000007F0 FFFFFFE1 A   U    4383  4386
 SDWATRAN      4 00000074 FFFFFFE9     A    3534  3536
 SEG           2 0000FD60 00000001     H   84600 10351  13497  14167  15144  19141  22971  24908  28815  31055  35831
                                                 38720  42339  52662  55636  57041  61014  64473  68567  69558  74646
                                                 77996  79549  84065B 84241B 84340B 84596  85988
 SEGB          2 0000FBBA 00000001     H   84024 13499  22974  28825  38723  42334  52650  55627  57043  61018  64476
                                                 68569  74670  77994  79547  84020
 SEGBLANK      2 0000FEE2 00000001     H   85163 13513  85159  85991
 SEGCB        44 00000000 FFFFFFEE     J    1775 13601U 34548U 72472U 74790U 83969U 83980M 83980  84350U 84499U 84649U
                                                 85062U 85212U 85380U 85467U
 SEGCBCLR      3 00000000 FFFFFFEE         1716 85389M
 SEGCBCOD      1 00000000 FFFFFFEE     R    1687  1696   1706   1716   1726   1736   1746   1756
 SEGCBCR       6 00000000 FFFFFFEE         1746 72502  74806  75129
 SEGCBIND      2 00000008 FFFFFFEE     Y    1763 84837  84867
 SEGCBLEN      2 00000006 FFFFFFEE     Y    1762 34553  75149M 84361  84380M 84735  84776  84826  84866  84874M 84906
                                                 84931  84932M 85091  85418M 85418  85474
 SEGCBLOC      4 00000010 FFFFFFEE     A    1765 34552  83982M 84360  84759  84827  84897  84933
 SEGCBMAX      2 00000002 FFFFFFEE     Y    1760 83981M 84724  84726  84747  84855  84914  84926  85079  85086
 SEGCBMRK      2 00000004 FFFFFFEE     Y    1761 75144M 84381M 84762  84824M 84824  85423M 85423  85474M
 SEGCBOVF      5 00000000 FFFFFFEE         1736 72514  74830  84758M
 SEGCBRTN      4 00000014 FFFFFFEE     A    1766 83984M 84372  84686  84791  84955  85399
 SEGCBSEG      1 00000000 FFFFFFEE         1696 84676M
 SEGCBSPP      4 00000000 FFFFFFEE         1726 72764  75168  84943M
 SEGCBWR       2 00000000 FFFFFFEE         1706 13614  72490  74818  84359M
 SEGCLR        2 0000FF46 00000001     H   85331 13508  15143  35845  42356  74645  77992  85327
1AMELIA   Ordinary Symbol and Literal Cross Reference                                                                       Page  442
 SEGCOL        2 0000FE8C 00000001     H   85013 57040  61030  68577  85009
 SEGCOM        2 0000FD86 00000001     I   84656 84568B
 SEGCR         2 0000FC4A 00000001     H   84200 84196
 SEGDC         2 0000FF9E 00000001     H   85498 13512  24914  28826  42343  52684  55632  57046  61015  64477  68568
                                                 74647  77998  79550  85494
 SEGDO         4 0000FE58 00000001     I   84931 84891B 84917B
 SEGENET       2 00010072 00000001     H   85833 13500  55631  57044
 SEGEXIT       2 0000FE6A 00000001     H   84939 84715B 84925B
 SEGHX         2 0000FFEE 00000001     H   85619 13517  14168  19149  28817  52682  55635  61022  64474  68591  77997
                                                 85615  85996
 SEGINIT       4 0000FB80 00000001     I   83923 10356  83921
 SEGIP         2 0001003E 00000001     H   85738 19148  28816  38724  42336  52694  55630  57039  61024  64481  68587
 SEGMARK       2 0000FF96 00000001     H   85471 85457  85989
 SEGRETRY      2 0000FDB0 00000001     H   84732 84900B
 SEGT          2 0000FCFE 00000001     H   84450 52692  57050  61016  84153B 84446
 SEGTB         2 0000FC02 00000001     H   84112 22975  55626  84108
 SEGTRTBL     16 0000DC09 00000001     X   75218 69560  74905  75095
 SEGWR         2 0000FC9A 00000001     H   84299 10353  13501  14165  15140  19137  22973  24916  28818  31066  35840
                                                 36917  42337  45937  52651  55629  57042  61019  64478  68566  69563
                                                 74641  77993  79551  84295
 SENDARP       2 0000630E 00000001     H   36757 35811  36915
 SENDPATH      2 00005BA0 00000001     H   34499 23001  24909  28840  31056  35832
 SENDRST       2 00005296 00000001     H   31467 24900  28838  35839
 SENDRSTW     20 00000000 FFFFFFBA     J   31460 31485  31513U 31660  31662  31663
 SENDTCP       2 00004B52 00000001     H   28911 23004  24910  28848  31061  35809
 SENDTCPN      4 00004D44 00000001     I   29724 30995B
 SENDTCPX      2 000050E0 00000001     H   31005 29028B 30600B 30756B 30876B
 SHLOGPLS      6 00008B3A 00000001     I   51038 51034
 SHLOGPRT      1 00008B2E 00000001     R   51034 50835
 SHLOGSCN      4 00008ABA 00000001     I   50835 51039B
 SHOCORFL      1 00000000 FFFFFFAE     R   49143 49192M 49524M 49562M 49724
 SHORTNAM      2 00007B5C 00000001     H   45483 45934
 SHOWCORE      2 000086DA 00000001     H   49156 46304  46439
 SHOWCORW      1 00000000 FFFFFFAE     J   49151 49159  49167U 49175M
 SHOWHASH      2 00008804 00000001     H   49784 46441
 SHOWHNT       2 00008930 00000001     H   50229 46445
 SHOWHOST      4 00008952 00000001     I   50291 46443
 SHOWINFO      2 00008A78 00000001     I   50704 46447
 SHOWLOG       2 00008AAE 00000001     H   50805 46449
 SHOWLOGL      4 00000000 FFFFFFAD     F   50793 50863  51038M
 SHOWLOGW      4 00000000 FFFFFFAD     J   50800 50807  50817U 50827M 50827
 SHOWPATH      2 00008C08 00000001     H   51333 46455
 SHOWTCP       2 00008D8A 00000001     H   51833 46457
 SHOWTCPW     10 00000000 FFFFFFAC     J   51828 51836  51846U 51856M 51856
 SHOWTTRC      4 00008EEA 00000001     I   52292 46459  49077B
 SHOWVER       4 00008F60 00000001     I   52423 46461
 SHTCPFMT      1 00000008 FFFFFFAC     X   51820 51857M 51943  51955M 51973M 52138  52265M 52268M
 SHTCPFND      1 00000009 FFFFFFAC     X   51821 52131M 52225
 SHTCPFUL      6 00008EC4 00000001     I   52265 52257
 SHTCPID       4 00000000 FFFFFFAC     F   51818 51966M 51966  52065M 52065  52080  52153M 52153  52274M
 SHTCPPAL      4 00008ECE 00000001     I   52268 52255
 SHTCPPID      6 00008EE0 00000001     I   52274 52261
 SHTCPPNO      4 00000004 FFFFFFAC     F   51819 52095M 52095  52110  52125  52271M
 SHTCPPOR      6 00008ED6 00000001     I   52271 52259
 SHTCPPRT      1 00008EA4 00000001     R   52255 51866
 SHTCPSCN      4 00008D9A 00000001     I   51866 52266B 52269B 52272B 52275B
 SNDPATHQ      2 00005C7E 00000001     H   34824 24903  35835
 SPR          13 0000000D 00000001 A   #    1142  9168M 10154  10157  10158  10159M 10159  10277M 10281  10283  10403
                                                 10406  10407  10408M 10408  10679M 10683  10685  10715  10718  10719
1AMELIA   Ordinary Symbol and Literal Cross Reference                                                                       Page  443
                                                 10720M 10720  10788  10789M 10789  10904M 10908  10910  10935  10938
                                                 10939  10940M 10940  11713M 11717  11719  11743  11746  11747  11748M
                                                 11748  11803M 11807  11809  11855  11858  11860  11861M 11861  12582M
                                                 12586  12588  12613  12616  12617  12618M 12618  13063M 13067  13069
                                                 13094  13097  13098  13099M 13099  13465M 13469  13471  13560  13563
                                                 13564  13565M 13565  13913M 13917  13919  13943  13946  13947  13948M
                                                 13948  14142M 14146  14148  14222  14225  14227  14228M 14228  14508M
                                                 14512  14514  14561  14564  14566  14567M 14567  15119M 15123  15125
                                                 15184  15187  15188  15189M 15189  15541M 15545  15547  15601  15604
                                                 15606  15607M 15607  16071M 16075  16077  16127  16130  16132  16133M
                                                 16133  16297M 16301  16303  16330  16333  16334  16335M 16335  17108M
                                                 17112  17114  17142  17145  17146  17147M 17147  17956M 17960  17962
                                                 17992  17995  17996  17997M 17997  18374M 18378  18380  18448  18451
                                                 18452  18453M 18453  18970M 18974  18976  19002  19005  19006  19007M
                                                 19007  19115M 19119  19121  19219  19222  19223  19224M 19224  19840M
                                                 19844  19846  19918  19921  19923  19924M 19924  20385M 20389  20391
                                                 20420  20423  20424  20425M 20425  20546M 20550  20552  20626  20629
                                                 20631  20632M 20632  22225M 22229  22231  22257  22260  22261  22262M
                                                 22262  22622M 22626  22628  22657  22660  22661  22662M 22662  22938M
                                                 22942  22944  23047  23050  23051  23052M 23052  23185M 23189  23191
                                                 23224  23227  23228  23229M 23229  23434M 23438  23440  23471  23474
                                                 23475  23476M 23476  23918M 23922  23924  23952  23955  23956  23957M
                                                 23957  24114M 24118  24120  24143  24146  24147  24148M 24148  24326M
                                                 24330  24332  24357  24360  24361  24362M 24362  24618M 24622  24624
                                                 24651  24654  24655  24656M 24656  24699M 24703  24705  24728  24731
                                                 24732  24733M 24733  24798M 24802  24804  24827  24830  24831  24832M
                                                 24832  24880M 24884  24886  24989  24992  24994  24995M 24995  28791M
                                                 28795  28797  28923  28926  28928  28929M 28929  31031M 31035  31037
                                                 31108  31111  31112  31113M 31113  31281M 31285  31287  31312  31315
                                                 31316  31317M 31317  31430M 31434  31436  31479  31482  31484  31485M
                                                 31485  31656M 31660  31662  31712  31715  31717  31718M 31718  31882M
                                                 31886  31888  31914  31917  31918  31919M 31919  32082M 32086  32088
                                                 32111  32114  32115  32116M 32116  32248M 32252  32254  32280  32283
                                                 32284  32285M 32285  32564M 32568  32570  32593  32596  32597  32598M
                                                 32598  32636M 32640  32642  32665  32668  32669  32670M 32670  32879M
                                                 32883  32885  32914  32917  32918  32919M 32919  33050M 33054  33056
                                                 33079  33082  33083  33084M 33084  33595M 33599  33601  33629  33632
                                                 33633  33634M 33634  34184M 34188  34190  34223  34226  34227  34228M
                                                 34228  34350M 34354  34356  34385  34388  34389  34390M 34390  34478M
                                                 34482  34484  34510  34513  34514  34515M 34515  34806M 34810  34812
                                                 34835  34838  34839  34840M 34840  35075M 35079  35081  35107  35110
                                                 35111  35112M 35112  35263M 35267  35269  35297  35300  35301  35302M
                                                 35302  35389M 35393  35395  35428  35431  35432  35433M 35433  35599M
                                                 35603  35605  35643  35646  35647  35648M 35648  35783M 35787  35789
                                                 35882  35885  35886  35887M 35887  35998M 36002  36004  36048  36051
                                                 36052  36053M 36053  36200M 36204  36206  36235  36238  36239  36240M
                                                 36240  36462M 36466  36468  36504  36507  36508  36509M 36509  36736M
                                                 36740  36742  36768  36771  36772  36773M 36773  36893M 36897  36899
                                                 36956  36959  36960  36961M 36961  37668M 37672  37674  37701  37704
                                                 37705  37706M 37706  38114M 38118  38120  38144  38147  38148  38149M
                                                 38149  38292M 38296  38298  38325  38328  38329  38330M 38330  38468M
                                                 38472  38474  38500  38503  38504  38505M 38505  38687M 38691  38693
                                                 38787  38790  38792  38793M 38793  40187M 40191  40193  40246  40249
                                                 40251  40252M 40252  40673M 40677  40679  40724  40727  40729  40730M
                                                 40730  41041M 41045  41047  41073  41076  41077  41078M 41078  41189M
                                                 41193  41195  41224  41227  41228  41229M 41229  41345M 41349  41351
                                                 41384  41387  41388  41389M 41389  41676M 41680  41682  41715  41718
                                                 41719  41720M 41720  42026M 42030  42032  42065  42068  42069  42070M
                                                 42070  42314M 42318  42320  42445  42448  42450  42451M 42451  43923M
1AMELIA   Ordinary Symbol and Literal Cross Reference                                                                       Page  444
                                                 43927  43929  43955  43958  43959  43960M 43960  44070M 44074  44076
                                                 44101  44104  44105  44106M 44106  44277M 44281  44283  44310  44313
                                                 44314  44315M 44315  44558M 44562  44564  44594  44597  44598  44599M
                                                 44599  44748M 44752  44754  44782  44785  44786  44787M 44787  44920M
                                                 44924  44926  44978  44981  44983  44984M 44984  45291M 45295  45297
                                                 45326  45329  45330  45331M 45331  45461M 45465  45467  45494  45497
                                                 45498  45499M 45499  45644M 45648  45650  45678  45681  45682  45683M
                                                 45683  45908M 45912  45914  46001  46004  46006  46007M 46007  52624M
                                                 52628  52630  52767  52770  52771  52772M 52772  52954M 52958  52960
                                                 53008  53011  53013  53014M 53014  55603M 55607  55609  55721  55724
                                                 55726  55727M 55727  57020M 57024  57026  57114  57117  57119  57120M
                                                 57120  60976M 60980  60982  61147  61150  61152  61153M 61153  64454M
                                                 64458  64460  64588  64591  64593  64594M 64594  67916M 67920  67922
                                                 67949  67952  67953  67954M 67954  68545M 68549  68551  68708  68711
                                                 68713  68714M 68714  68861M 68865  68867  68932  68935  68937  68938M
                                                 68938  69380M 69384  69386  69425  69428  69429  69430M 69430  69537M
                                                 69541  69543  69605  69608  69609  69610M 69610  69873M 69877  69879
                                                 69906  69909  69910  69911M 69911  70039M 70043  70045  70068  70071
                                                 70072  70073M 70073  70247M 70251  70253  70304  70307  70309  70310M
                                                 70310  70430M 70434  70436  70463  70466  70467  70468M 70468  70776M
                                                 70780  70782  70829  70832  70834  70835M 70835  71512M 71516  71518
                                                 71544  71547  71548  71549M 71549  71698M 71702  71704  71734  71737
                                                 71738  71739M 71739  71978M 71982  71984  72014  72017  72018  72019M
                                                 72019  72358M 72362  72364  72414  72417  72419  72420M 72420  72821M
                                                 72825  72827  72857  72860  72861  72862M 72862  73197M 73201  73203
                                                 73264  73267  73269  73270M 73270  73668M 73672  73674  73703  73706
                                                 73707  73708M 73708  73968M 73972  73974  74024  74027  74029  74030M
                                                 74030  74595M 74599  74601  74742  74745  74747  74748M 74748  75203M
                                                 75207  75209  75276  75279  75281  75282M 75282  75414M 75418  75420
                                                 75447  75450  75451  75452M 75452  75492M 75496  75498  75521  75524
                                                 75525  75526M 75526  75565M 75569  75571  75673M 77829  77832  77833
                                                 77834M 77834  77963M 77967  77969  78086  78089  78091  78092M 78092
                                                 78592M 78596  78598  78646  78649  78651  78652M 78652  79202M 79206
                                                 79208  79236  79239  79240  79241M 79241  79528M 79532  79534  79608
                                                 79611  79612  79613M 79613  79800M 79804  79806  79836  79839  79840
                                                 79841M 79841  79953M 79957  79959  79985  79988  79989  79990M 79990
                                                 80167M 80171  80173  80248  80251  80252  80253M 80253  80331M 80335
                                                 80337  80360  80363  80364  80365M 80365  80484M 80488  80490  80510
                                                 80513  80514  80515M 80515  80573M 80577  80579  80598  80601  80602
                                                 80603M 80603  80669M 80673  80675  80694  80697  80699  80700M 80700
                                                 80792M 80796  80798  80821  80824  80826  80827M 80827  80900M 80904
                                                 80906  80927  80930  80932  80933M 80933  81089M 81093  81095  81148
                                                 81151  81153  81154M 81154  81499M 81503  81505  81534  81537  81539
                                                 81540M 81540  81966M 81970  81972  82001  82004  82005  82006M 82006
                                                 82078M 82082  82084  82113  82116  82117  82118M 82118  82148  82149M
                                                 82149  82161M 82254M 82258  82260  82287  82290  82291  82292M 82292
                                                 82428M 82432  82434  82461  82464  82465  82466M 82466  82671M 82675
                                                 82677  82706  82709  82710  82711M 82711  82826M 82830  82832  82868
                                                 82871  82872  82873M 82873  82959M 82963  82965  82993  82996  82997
                                                 82998M 82998  83122M 83126  83128  83156  83159  83161  83162M 83162
                                                 83355M 83359  83361  83381  83384  83386  83387M 83387  83474M 83478
                                                 83480  83601  83604  83606  83607M 83607  83709M 83713  83715  83746
                                                 83749  83750  83751M 83751  83902M 83906  83908  83932  83935  83936
                                                 83937M 83937  84003M 84007  84009  84035  84038  84039  84040M 84040
                                                 84091M 84095  84097  84123  84126  84127  84128M 84128  84179M 84183
                                                 84185  84211  84214  84215  84216M 84216  84278M 84282  84284  84310
                                                 84313  84314  84315M 84315  84421M 84425  84427  84461  84464  84465
                                                 84466M 84466  84584M 84588  84590  84611  84614  84615  84616M 84616
                                                 84988M 84992  84994  85024  85027  85028  85029M 85029  85139M 85143
1AMELIA   Ordinary Symbol and Literal Cross Reference                                                                       Page  445
                                                 85145  85174  85177  85178  85179M 85179  85307M 85311  85313  85342
                                                 85345  85346  85347M 85347  85439M 85443  85445  85509  85512  85513
                                                 85514M 85514  85540  85541M 85541  85582M 85595M 85599  85601  85630
                                                 85633  85634  85635M 85635  85661  85662M 85662  85703M 85716M 85720
                                                 85722  85744  85747  85748  85749M 85749  85811M 85815  85817  85839
                                                 85842  85843  85844M 85844  85970M 85974  85976
 SRSTWHDR     20 00000000 FFFFFFBA     C   31453 31577
 STARTUP       2 000009F8 00000001     I    9128  9124
 STCPDATA   1460 00000014 FFFFFFBB     C   28897 29915  30041  30085M 30086M 30544  30656M
 STCPHDR      20 00000000 FFFFFFBB     C   28896 29724
 STCPWORK   1480 00000000 FFFFFFBB     J   28904 28929  28957U 31035  31037  31038
 SYNRECVD      1 00000003 FFFFFFD1 A   U    7156 17754  26183  26695  27028
 SYNSENT       1 00000002 FFFFFFD1 A   U    7155 17739  20118  21993  22598  26506  31173  31372
 TCB         563 00000000 FFFFFFD1     J    7261 17606U 19202U 25552  25582  25947  26145  26146  26147  31942  31954M
                                                 31954  31955M 31955  31956M 31956  33118  33389  33395M 33403  33520
                                                 33526M 33534  33549M 33552  33578  33694  33703  49914  52009U 52024
                                                 57163U 60940
 TCBCLTIM      4 00000104 FFFFFFD1     F    7142 24460M 26448
 TCBCWIND      4 00000074 FFFFFFD1     F    7111 17911M 27610  27612M 27613M 29811  29813  31240M
 TCBDMPID      4 00000000 FFFFFFD1     C    7083 31959M
 TCBFCONN    128 00000232 FFFFFFD1         7216 21854M 27081M 32354  32705
 TCBFEOF      64 00000232 FFFFFFD1         7221 24095M 30106
 TCBFIPHQ      1 00000232 FFFFFFD1         7251 26719  26730M 33425
 TCBFKEEP      4 00000232 FFFFFFD1         7241 27075M 34023
 TCBFLAGS      1 00000231 FFFFFFD1     R    7167  7171   7176   7181   7186   7191   7196   7201   7206
 TCBFLAG2      1 00000232 FFFFFFD1     R    7212  7216   7221   7226   7231   7236   7241   7246   7251
 TCBFLOWH      4 00000080 FFFFFFD1     F    7114 23764M 23764  23795
 TCBFLOWL      4 0000007C FFFFFFD1     F    7113 20164M 20177M 21286M 21299M 26146M 26146  29483  31968M
 TCBFPASS      8 00000232 FFFFFFD1         7236 21325M 21961  22579
 TCBFRCLO     32 00000232 FFFFFFD1         7226 19391  24458M 26440  32735  59322
 TCBFRXMT      4 00000231 FFFFFFD1         7196 23883  28998  29093  29215M 29314M 29756  30440  30992  59218
 TCBFSCLO     16 00000232 FFFFFFD1         7231 32750  32761M 35201
 TCBFSERV    128 00000231 FFFFFFD1         7171 26144M 27437
 TCBFSTOP      2 00000231 FFFFFFD1         7201 23776  23806M 29464  29495M 59394
 TCBFSYN      32 00000231 FFFFFFD1         7181 26181  26181  26182M 26328  26693  26693  26694M 30358  31526
 TCBFTMO       8 00000231 FFFFFFD1         7191 29010  29121  29786  29850  31010M 31239M
 TCBFUID      64 00000231 FFFFFFD1         7176 19405  21263M 23086  23313  23347M 32984  34581  34909
 TCBFWRIT     16 00000231 FFFFFFD1         7186 26181  26181  26693  26693  26819M 26890M 27583M 27985M 28520M 29711M
                                                 30224M 30253M 30307M 30335M 30372  30906M
 TCBFXKPA      2 00000232 FFFFFFD1         7246 30632  30668M 33997M 34152M
 TCBFXOFF      1 00000231 FFFFFFD1         7206 24438  24779M 24861M 32545M 34614  34872  59358
 TCBHSTTB      4 00000030 FFFFFFD1     F    7095 21617M 22567M 23722  26154M 26301  27300  27414  28210  31413M 57773
 TCBID         4 00000008 FFFFFFD1     F    7085 21526  21688  21693  24260  27145  27150  31966M 32057  33305  34454
                                                 52080  57189
 TCBIDLTM      4 00000088 FFFFFFD1     A    7116 20163M 20215M 20215  20221M 21267M 21362M 21362  21368M 26147M 26147
                                                 33769M 33769  33830  33840
 TCBINFO      32 000000BC FFFFFFD1     C    7128 24681  24682  57520M 57520  57551  57556
 TCBIPADD      4 00000028 FFFFFFD1     F    7093 17640  21034  21047M 21047  21153  21166M 21166  21266M 21431M 21466M
                                                 21466  21606M 21606  21612  21974M 21974  22562  22780M 22800M 25484
                                                 25653  25702M 25702  25927  26164M 26188  26229  26738  26740  27226
                                                 27231  27340  30863  30894  31262  31402M 31408  31631  32191  33438
                                                 33440  57751M 57751  57825
 TCBIPAHQ      4 00000014 FFFFFFD1     A    7088 25523  26745M 33461  33520  33526M 33526  33534  49914
 TCBIPCHN      4 0000002C FFFFFFD1     A    7094 22887  31351M 31351  31401  31403M 33145M 33145  33151  33152M
 TCBIRS        4 00000038 FFFFFFD1     F    7097 26166M 26679M 26965
 TCBISS        4 00000034 FFFFFFD1     F    7096 26545  30064  30076  30077  31983M
 TCBLMAX       4 00000078 FFFFFFD1     F    7112 20162M 25947  57266M 57266  57291
 TCBLPORT      4 00000020 FFFFFFD1     F    7091 17655  20133  20161M 20202  20493  21017  21136  21264M 21742  21747
                                                 24188  25514  25609  25901  26162M 26737  27199  27204  27443  27449
1AMELIA   Ordinary Symbol and Literal Cross Reference                                                                       Page  446
                                                 30765  31598  32477  33437  52110  57329  57344
 TCBNEXT       4 00000004 FFFFFFD1     A    7084 17679  20147  20529  21056  21218  21244  25552  25564  25941  31957M
                                                 33552  33566  33572  33578M 33578  33681  35153  35343  52172M 52172
                                                 52203
 TCBOUTSQ      4 000000B8 FFFFFFD1     A    7126 27711  28509  28510M 28539M 28539  28545  33248M 33248  33254  33255M
 TCBPATH       4 00000010 FFFFFFD1     A    7087 19359  20182M 20508  21330M 26145M 26145  34637  34954  35167  35355
                                                 57460
 TCBPATHQ      4 000000B4 FFFFFFD1     A    7125 23352  29569  32851M 32851  33218M 33218  33224  33225M 34564M 34564
                                                 34701  34891M 34891  34931M 34931  34937  35006M 35035M 35035  35180M
                                                 35180  35229M 35229  60591M 60591  60613
 TCBQDATA      1 0000000C FFFFFFCF     X    7307 23393  23399M 23703  27790  28576  29422  29434  29610  29979  34762
                                                 34951  34981  60705  60734
 TCBQHDR      12 00000000 FFFFFFCF     J    7314 23378U 23641  23651U 23680  27711  27721U 27772  27778M 27779M 28510
                                                 28555U 29350U 29595U 29916  29924U 33172U 34701  34711U 34740  34947U
                                                 60639U
 TCBQLEN       4 00000004 FFFFFFCF     A    7305 23695M 27782M 28575  29384  29412  29414M 29616  29970  29980  34754M
                                                 34952  34982  60759
 TCBQNEXT      4 00000000 FFFFFFCF     A    7304 23404  23641  23667M 23667  23674  23685M 23693M 23693  27711  27733
                                                 27778M 27779M 28510  29390  29621  29916  29939  33195  33225  33255
                                                 34701  34727M 34727  34734  34745M 34753M 34753  35006  60800
 TCBQSEQ       4 00000008 FFFFFFCF     A    7306 23694M 27749  27781M 28560  29355  29411M 29958
 TCBR          8 00000008 00000001 A   #    1078 17596M 17606U 17620M 17620  17679M 17694M 17694  19202U 19250M 19250
                                                 19336M 19459M 19459  19811  20070M 20081M 20081  20147M 20160M 20448M
                                                 20459M 20459  20529M 20987M 20998M 20998  21056M 21070M 21070  21105M
                                                 21116M 21116  21218M 21232M 21232  21244M 21256M 22318M 24296  25438M
                                                 25449M 25449  25523M 25542M 25542  25552M 25564M 25565M 25565  25708
                                                 25735M 25735  25768M 25768  25855M 25855  25872M 25883M 25883  25941M
                                                 26138M 26746  30955  31947M 31958  32067  32069  32967M 33324  33389X
                                                 33455  33520X 33551  33552M 33572M 33679  33680M 33868  34427M 34440M
                                                 34440  34461M 34467  35136M 35147M 35147  35247M 35326M 35337M 35337
                                                 35373M
 TCBRBYTE      4 000000DC FFFFFFD1     F    7130 28236  28237M 58292
 TCBRCVAK      4 0000003C FFFFFFD1     F    7098 30193  30200  30399M 30592
 TCBRCVNX      4 00000048 FFFFFFD1     F    7100 26171M 26316  26684M 26763  26766  27678  27996  28105  28111M 28559
                                                 30193  30199  30398  30592  30651  31601
 TCBRCVTM      8 00000040 FFFFFFD1     X    7099 30268M 30268  30274M 30282  30285  30406M 30406
 TCBRCVWN      4 0000004C FFFFFFD1     F    7101 26863  27974M 27974  29671  29700  29716M 30789  31969M 35050
 TCBRDATA    128 000001B0 FFFFFFD1     C    7150 28201M 28846  58959  58964
 TCBRDATL      4 000001AC FFFFFFD1     F    7149 28169M 58920  58968  58970
 TCBRDATT      8 000001A4 FFFFFFD1     X    7148 28168M 33820  58752  58839M 58839  58861
 TCBRMSS       4 0000006C FFFFFFD1     F    7109 29643  29685  29700  30086  32139M 32209M 35050
 TCBRPACK      4 000000E0 FFFFFFD1     F    7131 26393  26394M 31391M 31391  58258
 TCBRPORT      4 00000024 FFFFFFD1     F    7092 17670  21183  21196M 21196  21265M 21349  21798  21803  21987M 21987
                                                 22592M 22592  24203  24218  24233  25499  25668M 25668  25683  26163M
                                                 26736  27253  27258  27470  27489  27495  30766  31599  32492  32507
                                                 33436  52125  57846M 57846  57871  57890
 TCBRPTIM      8 0000019C FFFFFFD1     X    7147 26184M 26300M 28168  34072  58752  58774
 TCBRRXMT      4 000000E4 FFFFFFD1     F    7132 26362  26363M 58332M 58332  58358
 TCBRXSEQ      4 000000A4 FFFFFFD1     F    7121 29025  29209M 29763M
 TCBRXTIM      4 00000098 FFFFFFD1     F    7119 29193M 29216  29240  29260M 30734  31414M 31970M 58129
 TCBSBYTE      4 000000E8 FFFFFFD1     F    7133 23720  23721M 58469
 TCBSDATA    128 0000011C FFFFFFD1     C    7146 30544M 31060  59274  59279
 TCBSDATL      4 00000118 FFFFFFD1     F    7145 30512M 59179  59283  59285
 TCBSDATT      8 00000110 FFFFFFD1     X    7144 30493M 33818  59010  59098M 59098  59120
 TCBSENDQ      4 000000B0 FFFFFFD1     A    7124 23641  29334M 29334  29340  29390M 29916  33188M 33188  33194  33195M
                                                 58602M 58602
 TCBSMSS       4 00000070 FFFFFFD1     F    7110 17911  26165M 26670M 27611  29803  29891  29908  29910  31240  32150M
                                                 32150  32156M 32173  32179M 32222  32229M 58095
 TCBSNDFN      4 00000058 FFFFFFD1     F    7104 23593  23694  23746  23747M 23782  29470  29837  30131  30827  31989M
1AMELIA   Ordinary Symbol and Literal Cross Reference                                                                       Page  447
                                                 33964  58660
 TCBSNDNX      4 00000054 FFFFFFD1     F    7103 26560  27063  27572  27859  27900  27945  29302  29746  29838  29865
                                                 30160  30166M 30324  30706  30827  31600  31985M 33943  33964  34062
                                                 58624  58661
 TCBSNDUN      4 00000050 FFFFFFD1     F    7102 23594  23783  27048  27604  27614M 27859  27900  27945  29025  29064
                                                 29209  29302  29354  29411  29471  29762  29763  29815  29865  30064
                                                 30324  30652  30706  30728  31984M 33943  34062  58625
 TCBSNDWA      4 00000064 FFFFFFD1     F    7107 27655  27663M
 TCBSNDWN      4 0000005C FFFFFFD1     F    7105 26173M 27661M 29774  33904M 33904  58061
 TCBSNDWS      4 00000060 FFFFFFD1     F    7106 26172M 26685M 27616  27662M
 TCBSNDWT      4 00000068 FFFFFFD1     F    7108 27664M 30686M 33974
 TCBSPACK      4 000000EC FFFFFFD1     F    7134 30451  30452M 30643  30644M 30910  58435
 TCBSPTIM      8 00000108 FFFFFFD1     X    7143 30430M 30493  30638M 34129  59010  59032
 TCBSRTT       8 0000009C FFFFFFD1     X    7120 29127  29261  29284M 31415M 31971M 34259  34262  34307  34319  34339M
                                                 58162  58198
 TCBSRXMT      4 000000F0 FFFFFFD1     F    7135 30473  30474M 58509M 58509  58535
 TCBSTART      4 0000001C FFFFFFD1     F    7090 31973M 57704
 TCBSTATE      1 00000230 FFFFFFD1     X    7152 17739  17754  20103  20118  20183M 20479  21858M 21993M 22331  22598M
                                                 23103  23118  23133  23269  23284  23299  23527  23559  23574  23995
                                                 24025  24031M 24057  24063M 24311M 24399  24414  24476  24491  24532
                                                 24547  24562  24577  24768  25469  25630  25783  26183M 26506  26695M
                                                 27028  27069M 27844  27865M 27885  27906M 27930  27951M 28057  28072
                                                 28087  28417  28423M 28440  28446M 28463  28469M 28619  28973  30241
                                                 31148  31173  31372  31547  31568  31967M 32324  32339  32531M 32621M
                                                 32838  32999  33787  33808  33922  34041  35216  57224  58032
 TCBTIDHQ      4 00000018 FFFFFFD1     A    7089 32066M 33330  33389  33395M 33395  33403  34461
 TCBTIMER      4 000000A8 FFFFFFD1     A    7122 28625M 29083M 29083  30598M 30734M 32538M 32538  33713  33730M
 TCBTMOUT      4 00000084 FFFFFFD1     A    7115 21268M 21281M 26148M 31160
 TCBTMXIT      4 000000AC FFFFFFD1     A    7123 28626M 30599M 30735M 33745
 TCBTRADD      4 000000F4 FFFFFFD1     A    7137 32039M 33276M 33276  33282  35466M 35466  35476  59457M 59457  59467
 TCBTRDAT      1 0000000C FFFFFFD0     X    7282 35542M 59740  60214  60245  60259  60296  60352  60392  60436  60491
 TCBTRELN      4 000000FC FFFFFFD1     F    7139 32011M 35494  35556  59612  60521
 TCBTRHDR     12 00000000 FFFFFFD0     J    7289 32010  35486U 35848  59477U 61048
 TCBTRLEN      2 0000000A FFFFFFD0     H    7281 35492M 59559
 TCBTRPTR      4 000000F8 FFFFFFD1     F    7138 35475  35555  35583M 59440  60559
 TCBTRRCV      1 00000FFE FFFFFFD0 A   U    7279 26263  26415  61049
 TCBTRRPM      1 00000FFD FFFFFFD0 A   U    7278 19374  20233  21380  61052
 TCBTRSND      1 00000FFF FFFFFFD0 A   U    7280 30889  31626  61050
 TCBTRTIM      8 00000000 FFFFFFD0     X    7276 35490M 59491M 59491  59524
 TCBTRTLN      4 00000100 FFFFFFD1     F    7140 32013M 35568  60533
 TCBTRTYP      2 00000008 FFFFFFD0     H    7277 35491M 59650  59665  59683  60031  60093M 60093  60117
 TCBUID        4 0000000C FFFFFFD1     F    7086 21257M 21661  21666  23327  23341M 23399  23843  23848  27118  27123
                                                 28275  28280  28382  28387  29532  29537  32396  32401  32798  32803
                                                 57590M 57590  57612
 TCBXSEQ       4 0000008C FFFFFFD1     F    7117 29049M 29049  29064  29076M 29076  30722M 30722  30728M
 TCBXTIME      8 00000090 FFFFFFD1     X    7118 30729M 31159  34254  34257
 TCPABORT      2 00003C6C 00000001     H   24132 19862
 TCPACCPT      2 00003A04 00000001     H   23213 19859
 TCPACK        4 00000008 FFFFFFD3     F    6969 26545  26560  27048  27063  27572  27604  27614  27655  27663  28676
                                                 28683M 28683  28713M 30398M 30399  30651M 31601M 59825  63975
 TCPCHK        2 00000010 FFFFFFD3     H    7030 31782M 31782  31830M
 TCPCLOSE      2 00003D16 00000001     H   24346 19864
 TCPDST        2 00000002 FFFFFFD3     H    6967 17555  17670  25430  25514  25609  25901  26003  26162  28659  28660M
                                                 30766M 31599M 63653
 TCPENDLS      2 00002FFC 00000001     H   20409 19857
 TCPEOF        2 00003BF8 00000001     H   23941 19863  24918
 TCPFLACK     16 0000000D FFFFFFD3         6990 25816  26525  26603  27007  28670  28726M 30397M 30650M 31609  31609
                                                 31610M 59800  63950
 TCPFLAGS      1 0000000D FFFFFFD3     R    6973  6981   6990   6999   7008   7017   7026  28690M 28720M 30424  30577
1AMELIA   Ordinary Symbol and Literal Cross Reference                                                                       Page  448
                                                 30620  30753
 TCPFLFIN      1 0000000D FFFFFFD3         7026 25347  28340  30142M 59926  63877
 TCPFLPSH      8 0000000D FFFFFFD3         6999 30838M 63769
 TCPFLRST      4 0000000D FFFFFFD3         7008 25798  26588  26807  26878  26912  28649  28736M 31609  31609  59856
                                                 63805
 TCPFLSYN      2 0000000D FFFFFFD3         7017 25324  25834  26645  26950  28007  30075M 30503  30777  30801  30857
                                                 30980  59891  63841
 TCPFLURG     32 0000000D FFFFFFD3         6981 63733
 TCPFULLQ      2 00005D3A 00000001     H   35096 74634
 TCPGETIP      2 0000363C 00000001     H   22646 22994
 TCPHDR       20 00000000 FFFFFFD3     J    7038 17550U 24944  25072U 25363  25363  25419  26262  28758  28820  28855
                                                 28896  29734U 29744M 29744  30887  30888  31453  31587U 31597M 31597
                                                 31625  31772U 59750U 63625U 64115  64115  64220  64513
 TCPINFO       2 00003DC0 00000001     H   24640 19865
 TCPLISTN      2 00002E6C 00000001     H   19906 19856
 TCPMDONE      2 00002C2A 00000001     H   19491 19310B 19366B 19438B 19473B
 TCPMSEND     16 00002E50 00000001     C   19867 19254  19868
 TCPMSLEN      1 0000001C 00000001 A   U   19868 19478
 TCPMSTAB      4 00002D1C 00000001     F   19855 19253
 TCPMSTID     16 00002D70 00000001     C   19859 22968
 TCPNSL        2 00003538 00000001     H   22246 38728  42341
 TCPOFFS       1 0000000C FFFFFFD3     X    6970 25274  28737M 30767M 30784M 31611M 64052
 TCPOPEN       2 0000306C 00000001     H   20614 19858
 TCPPATH       2 00002B3E 00000001     H   19208 74639
 TCPPCLOS      2 00005DBA 00000001     H   35286 74635
 TCPREJCT      2 0000399C 00000001     H   23036 19860
 TCPSEQ        4 00000004 FFFFFFD3     F    6968 25314  26166  26167  26172  26679  26680  26685  26765  26792  26965
                                                 27615  27662  27677  27705  27748  27781  27997  28676M 28712M 28712
                                                 29746M 29762M 29814  29957  30043  30076M 30386  30655M 31600M 59773
                                                 63923
 TCPSRC        2 00000000 FFFFFFD3     H    6966 17655  25429  25499  25683  26163  28658  28659M 30765M 31598M 63693
 TCPSTART      2 00003E46 00000001     H   24816 19867  24919
 TCPSTOP       2 00003E06 00000001     H   24717 19866
 TCPTIMER      2 00005922 00000001     H   33618 10370
 TCPTMNXT      2 0000594C 00000001     H   33665 33751B 33882B 34002B
 TCPTRACE      2 00005E16 00000001     H   35417 22970  28834  31064  35816
 TCPUP         2 00000012 FFFFFFD3     H    7031 28744M 28744
 TCPWIND       2 0000000E FFFFFFD3     H    7029 26173  27661  30789M 64021
 TCPWRITE      2 00003A9C 00000001     H   23460 19861
 TIME          2 0000F886 00000001     H   83375 83371
 TIMEDATE      2 0000F734 00000001     H   82987 82168B 82174B 82319B 82493B 82899B 82983
 TIMER         2 00000DB6 00000001     H   10143 10367
 TIMESEC       1 00000001 FFFFFFD9 A   U    7321 10362  19164
 TIMEWAIT      1 0000000A FFFFFFD1 A   U    7163 24476  27906  28469  28619  31568  32339
 TIMREXIT      2 00000E30 00000001     H   10306 10302U 10361
 TLSTERR       4 00002FEA 00000001     I   20369 20036B 20262  20276B 20297B 20318B 20339B 20360B
 TLSTFLH       2 00002FC0 00000001     H   20308 20256
 TLSTFLL       2 00002FB2 00000001     H   20287 20254
 TLSTIDLE      2 00002FDC 00000001     H   20350 20260
 TLSTLPO       2 00002FA4 00000001     H   20266 20251
 TLSTMAX       2 00002FCE 00000001     H   20329 20258
 TLSTPRT       1 00002F6E 00000001     R   20251 20016
 TLSTWA      140 00000000 FFFFFFBE     J   19900 19924  19952U 19965M 19965  20389  20391  20392
 TLSTWBUF    120 00000014 FFFFFFBE     C   19893 19978M 19993
 TLSTWFLH      4 00000008 FFFFFFBE     F   19890 20324M
 TLSTWFLL      4 00000004 FFFFFFBE     F   19889 20164  20303M
 TLSTWIDL      4 00000010 FFFFFFBE     F   19892 20163  20366M
 TLSTWLPO      4 00000000 FFFFFFBE     F   19888 20055M 20055  20133  20161  20282M
 TLSTWMAX      4 0000000C FFFFFFBE     F   19891 20162  20345M
1AMELIA   Ordinary Symbol and Literal Cross Reference                                                                       Page  449
 TOPNERR       2 000030C8 00000001     I   20749 22034  22048B 22069B 22090B 22111B 22132B 22153B 22198B
 TOPNFLH       2 000034D2 00000001     H   22101 22024
 TOPNFLL       2 000034C4 00000001     H   22080 22022
 TOPNFPAS    128 000000BB FFFFFFBD        20593 21313  22168M
 TOPNFPRV     64 000000BB FFFFFFBD        20598 20919  22177M
 TOPNHOST      4 00003508 00000001     I   22181 22017
 TOPNIDLE      2 000034EE 00000001     H   22143 22028
 TOPNLPO       2 000034A8 00000001     H   22038 22014
 TOPNPASS      2 000034FC 00000001     H   22164 22030
 TOPNPRIV      2 00003502 00000001     H   22173 22032
 TOPNPRT       1 00003442 00000001     R   22014 20726
 TOPNRPO       2 000034B6 00000001     H   22059 22019
 TOPNTCB       4 00003208 00000001     I   21254 20858B 20883B 20982B 21239B
 TOPNTMO       2 000034E0 00000001     H   22122 22026
 TOPNWA      188 00000000 FFFFFFBD     J   20607 20632  20660U 20673M 20673  22229  22231  22232
 TOPNWBUF    120 00000028 FFFFFFBD     C   20584 20688M 20703
 TOPNWERP      7 000000A0 FFFFFFBD     C   20585 21876M 21885  21892  23018
 TOPNWERR     20 000000A7 FFFFFFBD     C   20586 20777M 20823M 20835M 20853M 20882M 20981M 21238M 21565M 21581M 21870M
                                                 21870  21892
 TOPNWFLG      1 000000BB FFFFFFBD     R   20589 20593  20598
 TOPNWFLH      4 00000014 FFFFFFBD     F   20580 22117M
 TOPNWFLL      4 00000010 FFFFFFBD     F   20579 21286  22096M
 TOPNWHST      4 00000020 FFFFFFBD     F   20583 20876M 20876  21389  21497  22204M
 TOPNWIDL      4 0000001C FFFFFFBD     F   20582 21267  22159M
 TOPNWIP       4 0000000C FFFFFFBD     F   20578 21034  21153  21266
 TOPNWLPO      4 00000004 FFFFFFBD     F   20576 20903M 20903  21080M 21136  21264  22054M
 TOPNWRPO      4 00000008 FFFFFFBD     F   20577 21183  21209M 21209  21265  22075M
 TOPNWTMO      4 00000018 FFFFFFBD     F   20581 21268  22138M
 TOPNWUID      4 00000000 FFFFFFBD     F   20575 20674M 21257
 TPORT        16 00000000 FFFFFFCA     J    7576 35681U 79087  79095U 79126  79137M 79137
 TPORTID       8 00000008 FFFFFFCA     C    7569 35755  35760  79139M 79170M 79565
 TPORTNUM      4 00000004 FFFFFFCA     A    7568 35712  79138M
 TPORTNXT      4 00000000 FFFFFFCA     A    7567 35721  79087  79109M 79109  79116  79129M
 TRCCLOCK      8 00000000 FFFFFFC7     D    8647  8728M 76688M 76688  76738
 TRCENTRY     80 00000000 FFFFFFC7     J    8656  8690   8724U 10339  76641  76674U
 TRCNAME       8 00000008 FFFFFFC7     C    8648  8729M 76777  76782
 TRCREGS       4 00000010 FFFFFFC7     F    8649  8730M  8731M 76816  76857  76898  76918  77048
 UDPCHK        2 00000006 FFFFFFD4     H    6944 16197M 16197  16245M 18131M 18131  63479M 63479  69968M 69968  70018M
 UDPDST        2 00000002 FFFFFFD4     H    6940 18109  18338  37550M 63377
 UDPHDR        8 00000000 FFFFFFD4     J    6951  7511  16182U 18049U 18345  37545U 38859U 38863  42367  63349U 63562
                                                 63562  64509  69945U
 UDPLEN        2 00000004 FFFFFFD4     H    6943 16186  18064  18073  37552M 38877  39157  39425  39447  39527  63448
 UDPNS#        1 00000035 FFFFFFD4 A   U    6941 19174  38732
 UDPSRC        2 00000000 FFFFFFD4     H    6939 37549M 63417
 UNPRESS       2 0000FA90 00000001     H   83595 79552
 UNPRLNO       4 00000000 FFFFFF98     F   83581 83639M 83692
 UNPRWA        4 00000000 FFFFFF98     J   83588 83607  83635U 83713  83715  83716
 UPAT          4 0000005C FFFFFFC6     F    8868  8927  70385
 UPATDLEN      4 00000024 FFFFFFC6     A    8823 72096M 72096  72272M 72278  72336M
 UPATDLOC      4 00000020 FFFFFFC6     A    8822 72271M 72302  72335M
 UPATECB       4 00000084 FFFFFFC6     R    8903 70154M
 UPATECBF      4 0000007C FFFFFFC6     R    8891 70156M
 UPATFCLS      1 00000080 FFFFFFC6 A   U    8893 70732
 UPATFFQE      1 00000040 FFFFFFC6 A   U    8894 70704
 UPATFHDR     32 0000000E FFFFFFC6         8800 72252M 72270M 72628
 UPATFIP      64 0000000E FFFFFFC6         8795 12248  14797  71137M 71229M
 UPATFLAG      1 0000000E FFFFFFC6     R    8786  8790   8795   8800   8805   8810
 UPATFO      128 0000000E FFFFFFC6         8790 70594  70619M 70641
 UPATFOPN      1 00000008 FFFFFFC6 A   U    8897 70577
1AMELIA   Ordinary Symbol and Literal Cross Reference                                                                       Page  450
 UPATFOPR      8 0000000E FFFFFFC6         8810 46362  46362  47763  47763  73503M 73620M
 UPATFSPR     16 0000000E FFFFFFC6         8805 46362  46362  46363  47763  47763  47764  48207  73476M 73593M
 UPATFUL#      4 00000014 FFFFFFC6     F    8817 51518  72694  72695M
 UPATH       416 00000000 FFFFFFC6     J    8940  9118   9118  10034U 12159  12175U 14645  14661U 19604U 41276U 46345U
                                                 47262U 47734U 48193U 51360U 51451  51743  57470U 70100  70116U 70135
                                                 70209U 70352U 70367  70501U 70516  70609  70665  70712  70740  70884U
                                                 70899  71263  71772U 71787  72052U 72067  72574U 72590  72895U 72910
                                                 73051  73075U 73111M 73160U 73173  73312U 73327  74081  74091U
 UPATHID       4 00000000 FFFFFFC6     C    8777 72946M
 UPATIDNO      4 00000008 FFFFFFC6     F    8779 41308  47266  70149M
 UPATLINK      4 00000004 FFFFFFC6     A    8778 10039  12159  12189  14645  14675  41317  51756  70215M 73051  73080
                                                 73111M 73111  73146M 73146  74081  74107
 UPATMACT    128 00000059 FFFFFFC6         8842 47818M 74123
 UPATMBRO     16 00000059 FFFFFFC6         8857 47973M 47996M 74214
 UPATMENP      2 00000052 FFFFFFC6     H    8833  8865   8865  48014M 48017M 48117M 74144M 74144  74159  74250
 UPATMEXT      8 00000059 FFFFFFC6         8862 47964M 74368
 UPATMFLG      1 00000059 FFFFFFC6     R    8838  8842   8847   8852   8857   8862
 UPATMGC       4 0000005C FFFFFFC6     R    8870 72120  72652  72940  73368
 UPATMIPA      4 00000055 FFFFFFC6     X    8835 47955M 74318M 74318  74333  74348
 UPATMIPP      1 00000054 FFFFFFC6     X    8834 48013M 74282  74297
 UPATMNBR     32 00000059 FFFFFFC6         8852 47980M 47989M 74179
 UPATMON       8 00000052 FFFFFFC6     C    8865  9046  47779M 47779
 UPATMTRU     64 00000059 FFFFFFC6         8847 48005M 74548
 UPATMY        8 00000064 FFFFFFC6     C    8874 70151M
 UPATPACT      8 00000036 FFFFFFC6     X    8828 19664M 19664  19681  19686  73451M 73567M 73568M 73569M 73570M
 UPATPASC      4 00000028 FFFFFFC6     F    8825 73415M 73545  73565
 UPATPJOB      8 0000002E FFFFFFC6     X    8827 19636  19641  57486  57491  73450M 73547M
 UPATPLNO      2 0000002C FFFFFFC6     H    8826 73452M 73626M
 UPATPNAM     20 0000003E FFFFFFC6     X    8829 73453M 73633M 73633
 UPATPNQH      4 00000018 FFFFFFC6     A    8819 71885M 72963M 72963  72984  73017  73038M 73038
 UPATPNQT      4 0000001C FFFFFFC6     A    8820 71872  71886M 71926M 72985  73026  73043M 73043
 UPATRBAF      1 0000000C FFFFFFC6 A   U    8916 35843  74658
 UPATRBOM      1 00000014 FFFFFFC6 A   U    8918 74665
 UPATRBPI      1 0000001C FFFFFFC6 A   U    8920 74667
 UPATRDAT    128 00000120 FFFFFFC6     X    8933 51690  52700  72203M 74655
 UPATRIAD      1 00000020 FFFFFFC6 A   U    8921 74668
 UPATRIBS      1 00000018 FFFFFFC6 A   U    8919 74666
 UPATRIFC      1 00000004 FFFFFFC6 A   U    8914 74662
 UPATRLEN      4 0000011C FFFFFFC6     F    8932 51586  51661  72171M
 UPATRNOP      1 00000010 FFFFFFC6 A   U    8917 74664
 UPATRPMW      1 00000008 FFFFFFC6 A   U    8915 74663
 UPATRTIM      8 00000114 FFFFFFC6     X    8931 51560M 51560  51617  51743  72170M
 UPATSFLG      1 0000000D FFFFFFC6     X    8782 70564M 70579  70706  70734
 UPATSND#      4 00000010 FFFFFFC6     F    8816 51483  72615  72616M
 UPATSPST      1 0000000C FFFFFFC6     X    8781  8891  10050  70155  70541  70544M
 UPATWRC       1 0000000F FFFFFFC6     X    8814 72658M
 UPATXAND     64 00000094 FFFFFFC6     X    8929 12203  14752  71129M 71130  71213M 71214M 71215  71215M 71219
 UPATXCMP     64 000000D4 FFFFFFC6     X    8930 12216  14765  71130M 71217M 71218M 71219  71219M
 VERINFO      80 00010420 0000000B     C   86076 52503
 VERSION       1 00010420 0000000B     J   86073 52704  86075
 VRADAT        1 00000002 FFFFFFE0     G    4524  4528
 VRAKL         2 00000000 FFFFFFE0     G    4516  4528
 WA           49 00000000 FFFFFF9B     J   80206 80700  80728U 80796  80798  80799  80827  80855U 80904  80906  80907
                                                 80933  80961U 81093  81095  81096  81540  81568U 81970  81972  81973
                                                 83162  83190U 83359  83361  83362  83387  83415U 83478  83480  83481
 WAR           9 00000009 00000001 A   #    1091  9169M 10158M 10277  10407M 10679  10719M 10904  10939M 11713  11747M
                                                 11803  11860M 12582  12617M 13063  13098M 13465  13564M 13913  13947M
                                                 14142  14227M 14508  14566M 15119  15188M 15541  15606M 16071  16132M
                                                 16297  16334M 17108  17146M 17956  17996M 18374  18452M 18945  18970
1AMELIA   Ordinary Symbol and Literal Cross Reference                                                                       Page  451
                                                 19006M 19115  19223M 19373  19550  19750  19840  19923M 20230  20385
                                                 20424M 20546  20631M 21377  22225  22261M 22622  22661M 22938  23051M
                                                 23185  23228M 23434  23475M 23918  23956M 24114  24147M 24326  24361M
                                                 24618  24655M 24699  24732M 24798  24831M 24880  24994M 28791  28928M
                                                 31031  31112M 31281  31316M 31430  31484M 31656  31717M 31882  31918M
                                                 32071  32082  32115M 32248  32284M 32564  32597M 32636  32669M 32879
                                                 32918M 33050  33083M 33595  33633M 34184  34227M 34350  34389M 34478
                                                 34514M 34806  34839M 35075  35111M 35263  35301M 35389  35432M 35599
                                                 35647M 35766  35783  35886M 35998  36052M 36189  36200  36239M 36323
                                                 36444  36462  36508M 36564  36716  36736  36772M 36893  36960M 37668
                                                 37705M 38114  38148M 38292  38329M 38468  38504M 38687  38792M 40187
                                                 40251M 40673  40729M 41041  41077M 41189  41228M 41324  41345  41388M
                                                 41656  41676  41719M 42011  42026  42069M 42299  42314  42450M 43923
                                                 43959M 44070  44105M 44277  44314M 44453  44558  44598M 44748  44786M
                                                 44903  44920  44983M 45269  45291  45330M 45445  45461  45498M 45633
                                                 45644  45682M 45897  45908  46006M 52624  52771M 52938  52954  53013M
                                                 55603  55726M 57020  57119M 60976  61152M 62536  64454  64593M 65946
                                                 67916  67953M 68545  68713M 68861  68937M 69380  69429M 69526  69537
                                                 69609M 69873  69910M 70039  70072M 70232  70247  70309M 70430  70467M
                                                 70776  70834M 71512  71548M 71698  71738M 71978  72018M 72358  72419M
                                                 72747  72821  72861M 73197  73269M 73668  73707M 73968  74029M 74595
                                                 74747M 75203  75281M 75414  75451M 75492  75525M 75565  75674M 77833M
                                                 77963  78091M 78592  78651M 78754  79202  79240M 79528  79612M 79702
                                                 79783  79800  79840M 79937  79953  79989M 80151  80167  80252M 80331
                                                 80364M 80484  80514M 80573  80602M 80669  80699M 80792  80826M 80900
                                                 80932M 81089  81153M 81499  81539M 81966  82005M 82078  82117M 82254
                                                 82291M 82428  82465M 82671  82710M 82826  82872M 82959  82997M 83122
                                                 83161M 83355  83386M 83474  83606M 83709  83750M 83902  83936M 84003
                                                 84039M 84091  84127M 84179  84215M 84278  84314M 84421  84465M 84584
                                                 84615M 84988  85028M 85139  85178M 85307  85346M 85439  85513M 85595
                                                 85634M 85716  85748M 85811  85843M 85970
 WINDOW        1 00002238 FFFFFFD9 A   U    7327 31057  35822
 WRITELOG      2 00008FB0 00000001     H   52521 46308  46310
 XIPENET      14 00000000 FFFFFFC1     C   15574 15690  15807  15814
 XIPHDR       20 0000000E FFFFFFC1     C   15575 15644M 15645  15814
 XMITIP        2 0000206C 00000001     H   15589 19142  35819  74653
 XMITIPW      34 00000000 FFFFFFC1     J   15582 15607  15635U 16075  16077  16078
 XMITTCP       2 00005324 00000001     H   31700 28851  31065  35817
 XMITTCPW     32 00000000 FFFFFFB9     J   31693 31718  31746U 31756M 31756  31886  31888  31889
 XMITUDP       2 000021EC 00000001     H   16115 38726
 XMITUDPW     32 00000000 FFFFFFC0     J   16108 16133  16161U 16171M 16171  16301  16303  16304
 XMTCPIPH     20 00000000 FFFFFFB9     C   31685 31834
 XMTCPPHD     12 00000014 FFFFFFB9     C   31686 31783M 31784M 31785M 31786M 31796  31801
 XMUDPIPH     20 00000000 FFFFFFC0     C   16100 16249
 XMUDPPHD     12 00000014 FFFFFFC0     C   16101 16198M 16199M 16200M 16201M 16211  16216
 XOPENRST      2 00005212 00000001     H   31301 35807
 XTB           2 0000EFD6 00000001     H   80592 80588
 XTB           1 00000000 00000006     T   52672 52672
 XTBB          4 0000F020 00000001     I   80651 80644B
 XTBL          2 0000EFE8 00000001     I   80630 80656B
 XTBN          4 0000F00C 00000001     I   80646 80640B 80642B
 XTBX          2 0000F030 00000001     H   80661 80631B 80647B 80649B
 XTIMEOUT      2 00005178 00000001     H   31097 31062
 =A(ABORTTCB)
               4 00002A7C 00000001     A   19159 17874
 =A(ABORTTCB)
               4 000038BC 00000001     A   23003 21899  21935  22550
 =A(ABORTTCB)
               4 00003EE0 00000001     A   24906 23628
1AMELIA   Ordinary Symbol and Literal Cross Reference                                                                       Page  452
 =A(ABORTTCB)
               4 00004A58 00000001     A   28836 26477  26618  26924  26981  28146
 =A(ABORTTCB)
               4 00005F8C 00000001     A   35808 31220  33030  33880  34096
 =A(ADDHNT)
               4 00007354 00000001     A   42353 40900  41014
 =A(ADDHNT)
               4 00007CC8 00000001     A   45943 44541
 =A(ADDHNT)
               4 0000909C 00000001     A   52656 46545
 =A(ADDHOST)
               4 00002A10 00000001     A   19136 15446  15884  16808
 =A(ADDHOST)
               4 000038B0 00000001     A   23000 21615  22565
 =A(ADDHOST)
               4 00004A40 00000001     A   28830 26152
 =A(ADDHOST)
               4 00005FA0 00000001     A   35813 31411
 =A(AMELIA)
               4 0000E648 00000001     A   78001 76079  76236
 =A(AMODE24)
               4 00000ED0 00000001     A   10348  9437
 =A(AMODE24)
               4 00001988 00000001     A   13491 10433  10805  10837
 =A(AMODE24)
               4 00009190 00000001     A   52705 52555
 =A(AMODE24)
               4 0000E60C 00000001     A   77986 74950  77897
 =A(AMODE24)
               4 0000EC20 00000001     A   79545 78146  78308  78533
 =A(AMODE31)
               4 00000EC0 00000001     A   10344  9264   9447
 =A(AMODE31)
               4 00001990 00000001     A   13493 10534  10814  10848
 =A(AMODE31)
               4 00009194 00000001     A   52706 52571
 =A(AMODE31)
               4 0000E610 00000001     A   77987 74960  75678  77950
 =A(AMODE31)
               4 0000EC24 00000001     A   79546 78158  78318  78570
 =A(ASCIIFMT)
               4 0000CC04 00000001     A   69559 68985
 =A(ASCI2EBC)
               4 0000736C 00000001     A   42359 41881
 =A(ASCI2EBC)
               4 0000C6C0 00000001     A   68588 67390  67471
 =A(C'A'-10)
               4 0000F9F0 00000001     A   83515 80643
 =A(C'0')      4 0000F9EC 00000001     A   83514 80555  80650
 =A(CHECKMSS)
               4 00004A5C 00000001     A   28837 26677
 =A(CHECKMSS)
               4 0000512C 00000001     A   31058 30083
 =A(CHECKSUM)
               4 00002A20 00000001     A   19140 15795  16223  16243  16643  17304  17442  18165  18185
 =A(CHECKSUM)
               4 000049FC 00000001     A   28813 25118  25137
 =A(CHECKSUM)
               4 00005FB4 00000001     A   35818 31808  31828
1AMELIA   Ordinary Symbol and Literal Cross Reference                                                                       Page  453
 =A(CHECKSUM)
               4 0000D920 00000001     A   74625 69996  70016
 =A(CHKUDP)
               4 0000D994 00000001     A   74652 71672
 =A(CLEANUP)
               4 0000E674 00000001     A   78010 77775
 =A(CLOSETCB)
               4 00003F28 00000001     A   24920 24499
 =A(CLOSETCB)
               4 00004A78 00000001     A   28844 27909  27954  28472
 =A(CLOSETCB)
               4 00005FFC 00000001     A   35836 32552  32624
 =A(CNVTIP)
               4 00003874 00000001     A   22993 21392
 =A(CNVTIP)
               4 00007358 00000001     A   42354 40986
 =A(CNVTIP)
               4 00007CC0 00000001     A   45941 44423  44628
 =A(CNVTIP)
               4 00009090 00000001     A   52653 46490  46862  47177  50387
 =A(CNVTIP)
               4 0000EC60 00000001     A   79561 78893  78914  78935  78956
 =A(COMMAND)
               4 00000EE0 00000001     A   10350  9472
 =A(COMMAND)
               4 0000D95C 00000001     A   74640 71035
 =A(COMMAND)
               4 0000E660 00000001     A   78007 77414  77522  77707  77752
 =A(COMMAND)
               4 0000EC50 00000001     A   79557 78821
 =A(COUNTTCP)
               4 00004A6C 00000001     A   28841 27447  27453  27493  27499
 =A(DEFFLOWL,DEFFLOWH)
               4 00003788 00000001     A   22963 20177  21299
 =A(DEFFLOWL,DEFFLOWH)
               4 00005F00 00000001     A   35800 31968
 =A(DEFTMOUT)
               4 00003870 00000001     A   22992 21281
 =A(DEFTMOUT)
               4 00004A3C 00000001     A   28829 26148
 =A(DELTCB)
               4 00003814 00000001     A   22985 20516
 =A(DELTCB)
               4 00003EBC 00000001     A   24901 23165
 =A(DELTCB)
               4 00006000 00000001     A   35837 32713  32859  33007  35237  35367
 =A(DEQSTR)
               4 000090EC 00000001     A   52674 48554
 =A(EBC2ASCI)
               4 00007384 00000001     A   42365 42265
 =A(EDITHOST)
               4 00007CD4 00000001     A   45946 45091
 =A(ENDTCB)
               4 00004A90 00000001     A   28850 28626
 =A(ENETARP#)
               4 0000BA10 00000001     A   64479 61598
 =A(ENETIP#)
               4 0000BA1C 00000001     A   64482 62454
 =A(ENETMAXL-L'ENETHDR-L'IPHDR)
1AMELIA   Ordinary Symbol and Literal Cross Reference                                                                       Page  454
               4 00002A1C 00000001     A   19139 15729  15741
 =A(ENETTIME)
               4 000063B4 00000001     A   36916 36699
 =A(FIX)       4 00000ECC 00000001     A   10347  9391
 =A(FIX)       4 0000198C 00000001     A   13492 10469
 =A(FIX)       4 0000F9C8 00000001     A   83505 79741
 =A(FMTHNT)
               4 00009118 00000001     A   52685 50269  50486  50567
 =A(FMTHOST)
               4 0000911C 00000001     A   52686 50364  50448  50650
 =A(FMTINFO)
               4 00009134 00000001     A   52690 50777
 =A(FMTIP)
               4 00004A64 00000001     A   28839 27344
 =A(FMTIP)
               4 000100F8 00000001     A   85995 85778
 =A(FMTNSM)
               4 00007318 00000001     A   42338 39162  39430  39532
 =A(FMTPACK)
               4 0000D9EC 00000001     A   74672 74562
 =A(FMTPACK)
               4 0000E65C 00000001     A   78006 77248
 =A(FMTRCLCK)
               4 00009C64 00000001     A   55628 53096  53388  53597  53685
 =A(FMTRCLCK)
               4 0000A2C0 00000001     A   57045 55998
 =A(FMTRCLCK)
               4 0000AE9C 00000001     A   61023 57716
 =A(FMTTCB)
               4 000037FC 00000001     A   22979 19815
 =A(FMTTCB)
               4 00003F1C 00000001     A   24917 24300
 =A(FMTTCB)
               4 00005150 00000001     A   31067 30959
 =A(FMTTCB)
               4 00006010 00000001     A   35841 33872
 =A(FMTTCB)
               4 00009174 00000001     A   52702 52141
 =A(FMTTIME)
               4 0000693C 00000001     A   38722 37936
 =A(FMTTIME)
               4 000072F4 00000001     A   42333 39038
 =A(FMTTIME)
               4 00009168 00000001     A   52699 51621
 =A(FMTTIME)
               4 0000AEB4 00000001     A   61027 58778  58865  59036  59124  59534
 =A(FMTTIME)
               4 0000D9D8 00000001     A   74669 74441
 =A(FMTTIME)
               4 0000E604 00000001     A   77984 74867  76742  77181
 =A(FMTXDATE)
               4 000090E0 00000001     A   52671 47839
 =A(FREECORE)
               4 00001A00 00000001     A   13515 12986
 =A(FREECORE)
               4 00001F28 00000001     A   15147 15096
 =A(FREECORE)
               4 00002A5C 00000001     A   19155 17075  18932  19092
 =A(FREECORE)
1AMELIA   Ordinary Symbol and Literal Cross Reference                                                                       Page  455
               4 00004A84 00000001     A   28847 28513
 =A(FREECORE)
               4 0000511C 00000001     A   31054 29394
 =A(FREECORE)
               4 00005F9C 00000001     A   35812 31406  33155  33198  33228  33258  33285  33581  35010
 =A(FREECORE)
               4 000068F8 00000001     A   38707 37094  37497  38670
 =A(FREECORE)
               4 00007C98 00000001     A   45931 43095  43335  43865  44043  44233
 =A(FREECORE)
               4 0000D9B4 00000001     A   74660 73176
 =A(GETBUF)
               4 00001C40 00000001     A   14163 13672
 =A(GETBUF)
               4 0000387C 00000001     A   22995 21475
 =A(GETBUF)
               4 00003EE4 00000001     A   24907 23683
 =A(GETBUF)
               4 00004A48 00000001     A   28832 26207
 =A(GETBUF)
               4 0000601C 00000001     A   35844 34743
 =A(GETBUF)
               4 000090CC 00000001     A   52666 47153
 =A(GETBUFSZ-12-4)
               4 0000F9C0 00000001     A   83503 79661
 =A(GETCMAX)
               4 00005FCC 00000001     A   35824 32026
 =A(GETCMAX)
               4 0000F9D4 00000001     A   83508 79889
 =A(GETCORE)
               4 00002A8C 00000001     A   19163 18625  18846
 =A(GETCORE)
               4 000038D0 00000001     A   23008 22859
 =A(GETCORE)
               4 00004A74 00000001     A   28843 27776
 =A(GETCORE)
               4 00005FBC 00000001     A   35820 31945  32037
 =A(GETCORE)
               4 00007C9C 00000001     A   45932 43394
 =A(GETCORE)
               4 0000D924 00000001     A   74626 70103
 =A(GETCORE)
               4 0000F9C4 00000001     A   83504 79699
 =A(GETENET)
               4 000019B4 00000001     A   13502 11376  11420
 =A(GETENET)
               4 00002A18 00000001     A   19138 15669
 =A(GETENET)
               4 00005140 00000001     A   31063 30866
 =A(GETHNAME)
               4 00004A44 00000001     A   28831 26191
 =A(GETHNAME)
               4 000063A4 00000001     A   36912 36381
 =A(GETHNAME)
               4 00006948 00000001     A   38725 38031
 =A(GETHNAME)
               4 00009148 00000001     A   52695 51256
 =A(GETHNT)
               4 000038C8 00000001     A   23006 22687
1AMELIA   Ordinary Symbol and Literal Cross Reference                                                                       Page  456
 =A(GETHNT)
               4 00007334 00000001     A   42345 39633
 =A(GETHNT)
               4 00007CD0 00000001     A   45945 44650
 =A(GETHNT)
               4 000090C0 00000001     A   52663 46925  50460
 =A(GETHNTNX)
               4 000038CC 00000001     A   23007 22815
 =A(GETHNTNX)
               4 00007340 00000001     A   42348 39834
 =A(GETHNTNX)
               4 00007CAC 00000001     A   45936 43734
 =A(GETHNTNX)
               4 000090C8 00000001     A   52665 47114  50680
 =A(GETHOST)
               4 00002A0C 00000001     A   19135 15353
 =A(GETHOST)
               4 000063AC 00000001     A   36914 36626
 =A(GETHOST)
               4 00007CA0 00000001     A   45933 43576
 =A(GETHOST)
               4 00009120 00000001     A   52687 50403  50608
 =A(GETIPADD)
               4 000090DC 00000001     A   52670 47603  47917  48935
 =A(GETPORT)
               4 0000D974 00000001     A   74644 71266
 =A(GETSRTT)
               4 00005108 00000001     A   31049 29101
 =A(GETTCB)
               4 000037CC 00000001     A   22969 19334  22302
 =A(GETTCB)
               4 00006004 00000001     A   35838 32945
 =A(GETTOKEN)
               4 000038C4 00000001     A   23005 22185
 =A(GETTOKEN)
               4 00007CBC 00000001     A   45940 44419  44492
 =A(GETTOKEN)
               4 00009094 00000001     A   52654 46518  46784  47582  47896  48839  50291
 =A(GETTOKEN)
               4 0000EC68 00000001     A   79563 79062
 =A(GETTPORT)
               4 00004A70 00000001     A   28842 27473
 =A(GETTPORT)
               4 00009D24 00000001     A   55644 55355  55496
 =A(GETTPORT)
               4 0000A2E8 00000001     A   57049 56708  56880
 =A(GETTPORT)
               4 0000AE84 00000001     A   61017 57347  57893
 =A(HASHSIZE*4*3)
               4 00000EB4 00000001     A   10341  9216
 =A(HASHSIZE*4)
               4 00000EB8 00000001     A   10342  9229   9231
 =A(HASHSIZE)
               4 00004A24 00000001     A   28823 25434  26741
 =A(HASHSIZE)
               4 00005FD0 00000001     A   35825 32062  33310  33441  34423
 =A(HASHSIZE)
               4 000063A0 00000001     A   36911 36083  36270
 =A(HASHSIZE)
1AMELIA   Ordinary Symbol and Literal Cross Reference                                                                       Page  457
               4 00009110 00000001     A   52683 49884  50093
 =A(HEXDUMP)
               4 00002A38 00000001     A   19146 16611  16787
 =A(HEXDUMP)
               4 000037EC 00000001     A   22977 19792
 =A(HEXDUMP)
               4 00009108 00000001     A   52681 49767  51704  51753
 =A(HEXDUMP)
               4 0000AEB8 00000001     A   61028 58991  59306  59996  60506  60950
 =A(HEXDUMP)
               4 0000BA28 00000001     A   64485 62557  63033  63301  63577  64271  64342  64426
 =A(HEXDUMP)
               4 0000C6B8 00000001     A   68586 65970  67879
 =A(HEXDUMP)
               4 0000E670 00000001     A   78009 77628
 =A(HEXSTR)
               4 000090F0 00000001     A   52675 48569
 =A(HNTTIMER)
               4 00000F38 00000001     A   10372 10259
 =A(HOSTLOAD)
               4 000090B0 00000001     A   52659 46601
 =A(IPFTIMER)
               4 00000F28 00000001     A   10368 10206
 =A(IPTCP#)
               4 0000C6C8 00000001     A   68590 67672
 =A(IPUDP#)
               4 0000C6C4 00000001     A   68589 67626
 =A(KILLTCB)
               4 000090B4 00000001     A   52660 46614
 =A(L'CMDTEXT)
               4 00009078 00000001     A   52647 46054  46066
 =A(L'HSTNAME)
               4 000063A8 00000001     A   36913 36385  36397
 =A(L'HSTNAME)
               4 00007CA8 00000001     A   45935 43634  43646
 =A(L'IPHDR)
               4 00002A34 00000001     A   19145 16561
 =A(L'IPHDR)
               4 0000BA24 00000001     A   64484 62513
 =A(L'IPHDR)
               4 0000D984 00000001     A   74648 71585
 =A(L'LINE)
               4 0000EC44 00000001     A   79554 78446  78458
 =A(L'LPRDWORK)
               4 00001F14 00000001     A   15142 14698  14710
 =A(L'NITBLANK)
               4 000100EC 00000001     A   85992 85230
 =A(L'NITDNAME-1)
               4 0000EC54 00000001     A   79558 78852
 =A(L'NSLNAME)
               4 0000691C 00000001     A   38714 37363
 =A(L'NSMHDR)
               4 00007374 00000001     A   42361 41949
 =A(L'PCTEXT)
               4 000090F4 00000001     A   52676 48578  48590
 =A(L'PMSGHDR)
               4 0000D950 00000001     A   74637 70919  70931
 =A(L'TCBRDATA)
               4 00004A80 00000001     A   28846 28173  28185
1AMELIA   Ordinary Symbol and Literal Cross Reference                                                                       Page  458
 =A(L'TCBSDATA)
               4 00005134 00000001     A   31060 30516  30528
 =A(L'TCPHDR)
               4 00004A18 00000001     A   28820 25288
 =A(L'TPORTID)
               4 0000EC70 00000001     A   79565 79142  79154
 =A(L'UPATRDAT)
               4 0000916C 00000001     A   52700 51664  51676
 =A(L'UPATRDAT)
               4 0000D9A0 00000001     A   74655 72175  72187
 =A(LOGCNT*LOGLEN)
               4 00000EB0 00000001     A   10340  9199
 =A(LOGCNT)
               4 00009138 00000001     A   52691 50875
 =A(LOOPREAD)
               4 00000F1C 00000001     A   10365  9976
 =A(LOWCASE)
               4 00006914 00000001     A   38712 37219
 =A(LOWCASE)
               4 00007364 00000001     A   42357 41454
 =A(LOWCASE)
               4 00007C90 00000001     A   45929 42621  42870  45750
 =A(LOWCASE)
               4 0000EC58 00000001     A   79559 78883
 =A(LRTRIM)
               4 00007CCC 00000001     A   45944 44624
 =A(LRTRIM)
               4 0000EC6C 00000001     A   79564 79066
 =A(MAXCONN)
               4 00004A34 00000001     A   28827 26061
 =A(MAXNSERV)
               4 000090FC 00000001     A   52678 48905  51165
 =A(MAXRXTIM)
               4 00005114 00000001     A   31052 29176  29188  29243  29255
 =A(MAXSENDQ)
               4 00003EC8 00000001     A   24904 23606
 =A(MAXSRTT)
               4 00005118 00000001     A   31053 29267  29279
 =A(MAXSRTT)
               4 00006014 00000001     A   35842 34322  34334
 =A(MAXTCPLN)
               4 00004A7C 00000001     A   28845 28130
 =A(MAXTCPLN)
               4 00005FD4 00000001     A   35826 32139  32179
 =A(MINRXTIM)
               4 00005110 00000001     A   31051 29162
 =A(MINRXTIM)
               4 00005FA4 00000001     A   35814 31414  31970
 =A(MINRXTIM/2)
               4 00005FA8 00000001     A   35815 31415  31971
 =A(MPATH)
               4 0000D928 00000001     A   74627 70140
 =A(NETCEXCP)
               4 000019BC 00000001     A   13504 11632  11662  11693
 =A(NETCEXCP)
               4 00001C4C 00000001     A   14166 14052
 =A(NETCLOSE)
               4 0000E640 00000001     A   77999 75987
 =A(NETCTRL)
1AMELIA   Ordinary Symbol and Literal Cross Reference                                                                       Page  459
               4 00000F18 00000001     A   10364  9951  10185
 =A(NETCTRL)
               4 00001994 00000001     A   13494 10662
 =A(NETERROR)
               4 000019A4 00000001     A   13498 11152  11965  12779
 =A(NETINIT)
               4 00000F00 00000001     A   10358  9829
 =A(NETTRAIL)
               4 000019C4 00000001     A   13506 12057
 =A(NETWRITE)
               4 00000F14 00000001     A   10363  9903
 =A(NETWRITE)
               4 00001C44 00000001     A   14164 13891
 =A(NEWTCB)
               4 00003808 00000001     A   22982 20158  21254
 =A(NEWTCB)
               4 00004A38 00000001     A   28828 26136
 =A(NIT)       4 00000EA8 00000001     A   10338  9142  10309
 =A(NIT)       4 00001C38 00000001     A   14161 13589
 =A(NIT)       4 0000D9A8 00000001     A   74657 72460
 =A(NIT)       4 0000E620 00000001     A   77991 75657  77857
 =A(NITHNTT#)
               4 00000F34 00000001     A   10371 10245
 =A(NITPRDCB)
               4 0000E608 00000001     A   77985 74907
 =A(NSGETNAM)
               4 00007348 00000001     A   42350 40345  41432  41534  41623
 =A(NSGETNAM)
               4 0000C688 00000001     A   68578 65205  67002  67082
 =A(NSGETRR)
               4 0000734C 00000001     A   42351 40413  40503  40593
 =A(NSGETRR)
               4 0000C6A0 00000001     A   68584 65634  65754  65874
 =A(NSLADHNT)
               4 00007350 00000001     A   42352 40451  40541  40631
 =A(NSLFREE)
               4 00006958 00000001     A   38729 38450
 =A(NSLFREE)
               4 00007328 00000001     A   42342 39292  40154
 =A(NSLGETUP)
               4 000072F0 00000001     A   42332 39007  41104
 =A(NSLOOKUP)
               4 00003880 00000001     A   22996 21529  22530
 =A(NSLOOKUP)
               4 00004A4C 00000001     A   28833 26232
 =A(NSLOOKUP)
               4 00007344 00000001     A   42349 39935
 =A(NSLOOKUP)
               4 000090D0 00000001     A   52667 47383
 =A(NSLPMSG)
               4 00006938 00000001     A   38721 37923  38078  38411  38657
 =A(NSLPMSG)
               4 00007320 00000001     A   42340 39230  39825  40137
 =A(NSLRCNT#)
               4 000068FC 00000001     A   38708 37126
 =A(NSLSEND)
               4 00006928 00000001     A   38717 37637  38264
 =A(NSLTIMER)
               4 00000F2C 00000001     A   10369 10231
1AMELIA   Ordinary Symbol and Literal Cross Reference                                                                       Page  460
 =A(NSLTMOUT)
               4 00006950 00000001     A   38727 38223
 =A(NSLUPDAT)
               4 00007330 00000001     A   42344 39451
 =A(NSM#IN)
               4 0000C69C 00000001     A   68583 65485
 =A(NSPUTNAM)
               4 00006920 00000001     A   38715 37478
 =A(PATHALLO)
               4 00000F04 00000001     A   10359  9836
 =A(PATHALLO)
               4 0000D934 00000001     A   74630 70622
 =A(PATHCLS)
               4 0000D94C 00000001     A   74636 70747
 =A(PATHDO)
               4 00000F20 00000001     A   10366 10058
 =A(PATHINFO)
               4 0000D930 00000001     A   74629 70612
 =A(PATHIP)
               4 0000D964 00000001     A   74642 71175
 =A(PATHMON)
               4 000019C8 00000001     A   13507 12156  12949
 =A(PATHMON)
               4 00001F10 00000001     A   15141 14642
 =A(PATHMSG)
               4 0000D940 00000001     A   74633 70686
 =A(PATHOPEN)
               4 00000F08 00000001     A   10360  9840
 =A(PATHOPEN)
               4 0000D938 00000001     A   74631 70626
 =A(PATHRC)
               4 0000D99C 00000001     A   74654 72142  72708
 =A(PATHREAD)
               4 0000D93C 00000001     A   74632 70668
 =A(PNUM#)
               4 00000EFC 00000001     A   10357  9733
 =A(RCVARP)
               4 000019D0 00000001     A   13509 12484
 =A(RCVARP)
               4 00001F20 00000001     A   15145 15012
 =A(RCVFRAG)
               4 00002A4C 00000001     A   19151 16865
 =A(RCVICMP)
               4 00002A50 00000001     A   19152 16934
 =A(RCVIP)
               4 000019D4 00000001     A   13510 12519
 =A(RCVIP)
               4 00001F24 00000001     A   15146 15047
 =A(RCVNSM)
               4 00002A84 00000001     A   19161 18348
 =A(RCVTCP)
               4 00002A54 00000001     A   19153 16975
 =A(RCVUDP)
               4 00002A58 00000001     A   19154 17022
 =A(RR#A)      4 00007CC4 00000001     A   45942 44533
 =A(RR#A)      4 00009098 00000001     A   52655 46537
 =A(RR#A)      4 0000C68C 00000001     A   68579 65274
 =A(RR#ALL)
               4 0000C698 00000001     A   68582 65412
1AMELIA   Ordinary Symbol and Literal Cross Reference                                                                       Page  461
 =A(RR#MX)
               4 0000C690 00000001     A   68580 65320
 =A(RR#PTR)
               4 0000735C 00000001     A   42355 41002
 =A(RR#PTR)
               4 0000C694 00000001     A   68581 65366
 =A(RTRIM)
               4 000038B8 00000001     A   23002 21895
 =A(RTRIM)
               4 0000737C 00000001     A   42363 42097
 =A(RTRIM)
               4 00007C88 00000001     A   45927 42558  42808  45708
 =A(SCANPARM)
               4 00000EF0 00000001     A   10354  9557   9583
 =A(SCNSYSIN)
               4 00000EF4 00000001     A   10355  9562
 =A(SCNSYSIN)
               4 00007CB4 00000001     A   45938 44163
 =A(SEG)       4 00000EE4 00000001     A   10351  9490   9526
 =A(SEG)       4 000019A0 00000001     A   13497 11147  11960  12279  12337  12733  13187  13229  13285  13335  13397
 =A(SEG)       4 00001C50 00000001     A   14167 14076
 =A(SEG)       4 00001F1C 00000001     A   15144 14828  14886
 =A(SEG)       4 00002A24 00000001     A   19141 15825  16677  16711  17337  18222  18256
 =A(SEG)       4 000037D4 00000001     A   22971 19520  19547  21650  21677  21704  21731  21758  21787  21814  21843
 =A(SEG)       4 00003EE8 00000001     A   24908 23832  23859  24254
 =A(SEG)       4 00004A04 00000001     A   28815 25171  25205  27107  27134  27161  27188  27215  27242  27269  27298
                                                 27380  27405  28264  28291  28316  28371  28398
 =A(SEG)       4 00005120 00000001     A   31055 29521  29548
 =A(SEG)       4 00005FE8 00000001     A   35831 32385  32412  32437  32787  32814
 =A(SEG)       4 00006934 00000001     A   38720 37919  38026  38069  38406  38652
 =A(SEG)       4 0000731C 00000001     A   42339 39225  39337  39715  39745  39777  39816  39997  40027  40092  40124
 =A(SEG)       4 000090BC 00000001     A   52662 46888  47004  47063  48696  51209  51251  51289  52302  52336  52370
 =A(SEG)       4 00009CAC 00000001     A   55636 53497  54165  54199  54960  54991  55025  55089  55406  55547
 =A(SEG)       4 0000A2B0 00000001     A   57041 55822  56325  56426  56523  56624  56686  56756  56790  56858  56928
                                                 56962
 =A(SEG)       4 0000AE78 00000001     A   61014 57183  57217  57285  57323  57375  57539  57865  57921  58055  58089
                                                 58123  58157  58193  58286  58320  58386  58463  58497  58563  58707
                                                 58914  59173  59207  59238  59522  59573  59767  59819  59876  59911
                                                 59946  60081  60112  60145  60202  60290  60339  60423  60656  60693
                                                 60753
 =A(SEG)       4 0000B9F8 00000001     A   64473 61249  61307  61365  61538  61794  61827  61956  62239  62587  62617
                                                 62647  62700  62741  62775  62822  62869  62928  63085  63124  63366
                                                 63406  63446  63499  63642  63682  63722  63917  63969  64010  64050
                                                 64162
 =A(SEG)       4 0000C644 00000001     A   68567 64676  64876  64936  64973  65010  65047  65084  65198  65260  65294
                                                 65340  65386  65432  65504  66125  66159  66206  66253  66300  66347
                                                 66394  66441  66488  66535  66607  66645  66698  66732  66805  66921
                                                 66994  67075  67155  67189  67223  67257  67291  67420  67445  67501
                                                 67576  67606  67646  67692  67746  68122  68172  68208  68254  68290
                                                 68305  68384  68449  68501
 =A(SEG)       4 0000CC00 00000001     A   69558 68835
 =A(SEG)       4 0000D97C 00000001     A   74646 71307  71410  71437  71462
 =A(SEG)       4 0000E634 00000001     A   77996 75854  75911  76051  76124  76162  76208  76281  76319  76449  76614
                                                 76736  76793  76810  76851  76892  76965  76997  77038
 =A(SEG)       4 0000EC30 00000001     A   79549 78232
 =A(SEG)       4 000100DC 00000001     A   85988 84079  84167  84255  85259  85290  85579  85700  85799  85949
 =A(SEGB)      4 000019A8 00000001     A   13499 11223
 =A(SEGB)      4 000037E0 00000001     A   22974 19624  19719
 =A(SEGB)      4 00004A2C 00000001     A   28825 25992  26083
1AMELIA   Ordinary Symbol and Literal Cross Reference                                                                       Page  462
 =A(SEGB)      4 00006940 00000001     A   38723 37960  37980
 =A(SEGB)      4 000072F8 00000001     A   42334 39062  39082  39381  39483
 =A(SEGB)      4 00009084 00000001     A   52650 46182  47833  49820  50029  51378  51512  51580  51615  52433  52459
 =A(SEGB)      4 00009C60 00000001     A   55627 53089  53151  53204  53381  53442  53590  53678  55147  55182  55240
                                                 55275
 =A(SEGB)      4 0000A2B8 00000001     A   57043 55917  55991  56057  56135  56213  56291  56360  56392  56489  56558
                                                 56590
 =A(SEGB)      4 0000AE88 00000001     A   61018 57415  57458  57610  57702  57771  57819  57961  58252  58352  58429
                                                 58529  58622  58658  58772  58800  58859  58887  59030  59058  59118
                                                 59146  59556  60864
 =A(SEGB)      4 0000BA04 00000001     A   64476 61523  61868  62120  63183  63222  63754  63790  63826  63862  63898
 =A(SEGB)      4 0000C64C 00000001     A   68569 64717  64749  64785  64821  64857  65245  68020
 =A(SEGB)      4 0000D9DC 00000001     A   74670 74465
 =A(SEGB)      4 0000E62C 00000001     A   77994 75751  75812  76766  77175  77335
 =A(SEGB)      4 0000EC28 00000001     A   79547 78191  78217
 =A(SEGBLANK)
               4 000019F8 00000001     A   13513 12774
 =A(SEGBLANK)
               4 000100E8 00000001     A   85991 85122
 =A(SEGCLR)
               4 000019CC 00000001     A   13508 12234
 =A(SEGCLR)
               4 00001F18 00000001     A   15143 14783
 =A(SEGCLR)
               4 00006020 00000001     A   35845 34784
 =A(SEGCLR)
               4 00007360 00000001     A   42356 41131
 =A(SEGCLR)
               4 0000D978 00000001     A   74645 71280  71383
 =A(SEGCLR)
               4 0000E624 00000001     A   77992 75692
 =A(SEGCOL)
               4 0000A2AC 00000001     A   57040 55807
 =A(SEGCOL)
               4 0000AED8 00000001     A   61030 59610
 =A(SEGCOL)
               4 0000C684 00000001     A   68577 65183  66012  66110  67060  67140  68038  68369
 =A(SEGDC)
               4 000019F4 00000001     A   13512 12754
 =A(SEGDC)
               4 00003F00 00000001     A   24914 24275
 =A(SEGDC)
               4 00004A30 00000001     A   28826 26019
 =A(SEGDC)
               4 0000732C 00000001     A   42343 39363
 =A(SEGDC)
               4 00009114 00000001     A   52684 49954  49976  50163  50185  51496  51531  51599  52321  52355  52389
 =A(SEGDC)
               4 00009C74 00000001     A   55632 53365  53574  53662  53750  53808  53866  53924  53999  54074  54150
                                                 54184  54218  54256  54294  54332  54386  54444  54502  54560  54618
                                                 54676  54735  54773  54811  54849  54903  54945  55010  55074  55108
                                                 55166  55201  55259  55294  55391  55532
 =A(SEGDC)
               4 0000A2C4 00000001     A   57046 56076  56154  56232  56310  56344  56411  56508  56542  56609  56775
                                                 56947
 =A(SEGDC)
               4 0000AE7C 00000001     A   61015 57202  57304  57342  57642  57884  58074  58108  58142  58271  58305
                                                 58371  58448  58482  58548  58642  58692  58933  59192  59592  60130
                                                 60772
1AMELIA   Ordinary Symbol and Literal Cross Reference                                                                       Page  463
 =A(SEGDC)
               4 0000BA08 00000001     A   64477 61557  62672  62909  62947  63109  63148  63391  63431  63467  63667
                                                 63707  64035  64073  64187
 =A(SEGDC)
               4 0000C648 00000001     A   68568 64701  64903  65467  65523  66569  66625  66664  66717  67174  67208
                                                 67242  67276  67310  67727  68330
 =A(SEGDC)
               4 0000D980 00000001     A   74647 71328
 =A(SEGDC)
               4 0000E63C 00000001     A   77998 75932
 =A(SEGDC)
               4 0000EC34 00000001     A   79550 78251
 =A(SEGENET)
               4 000019AC 00000001     A   13500 11237
 =A(SEGENET)
               4 00009C70 00000001     A   55631 53216
 =A(SEGENET)
               4 0000A2BC 00000001     A   57044 55928
 =A(SEGHX)
               4 00001A08 00000001     A   13517 13212  13252  13314  13364  13420
 =A(SEGHX)
               4 00001C54 00000001     A   14168 14102
 =A(SEGHX)
               4 00002A44 00000001     A   19149 16735  18280
 =A(SEGHX)
               4 00004A0C 00000001     A   28817 25229
 =A(SEGHX)
               4 0000910C 00000001     A   52682 49842  50051  51400
 =A(SEGHX)
               4 00009CA8 00000001     A   55635 53482
 =A(SEGHX)
               4 0000AE98 00000001     A   61022 57678  58178  58214  59789  59841  60312  60678  60886
 =A(SEGHX)
               4 0000B9FC 00000001     A   64474 61271  61292  61329  61350  61848  61921  62087  62204  62375  62722
                                                 63939  63991
 =A(SEGHX)
               4 0000C6CC 00000001     A   68591 67791
 =A(SEGHX)
               4 0000E638 00000001     A   77997 75879  76076  76145  76233  76302  76473  76719  76834  76875  76916
                                                 77021  77066  77359
 =A(SEGHX)
               4 000100FC 00000001     A   85996 85915
 =A(SEGINIT)
               4 00000EF8 00000001     A   10356  9686   9718
 =A(SEGIP)
               4 00002A40 00000001     A   19148 16694  17354  18239
 =A(SEGIP)
               4 00004A08 00000001     A   28816 25188  26100
 =A(SEGIP)
               4 00006944 00000001     A   38724 37997
 =A(SEGIP)
               4 00007310 00000001     A   42336 39099  39398  39500
 =A(SEGIP)
               4 00009144 00000001     A   52694 51224
 =A(SEGIP)
               4 00009C6C 00000001     A   55630 53166
 =A(SEGIP)
               4 0000A2A8 00000001     A   57039 55789
 =A(SEGIP)
1AMELIA   Ordinary Symbol and Literal Cross Reference                                                                       Page  464
               4 0000AEA0 00000001     A   61024 57834
 =A(SEGIP)
               4 0000BA18 00000001     A   64481 62028  62316  62602  62632
 =A(SEGIP)
               4 0000C6BC 00000001     A   68587 66820  67591  68088
 =A(SEGMARK)
               4 000100E0 00000001     A   85989 84266
 =A(SEGT)      4 0000913C 00000001     A   52692 50982
 =A(SEGT)      4 0000A2EC 00000001     A   57050 56741  56913
 =A(SEGT)      4 0000AE80 00000001     A   61016 57253  57399  57500  57565  57945  60721
 =A(SEGTB)
               4 000037E4 00000001     A   22975 19652  19697
 =A(SEGTB)
               4 00009C5C 00000001     A   55626 53073
 =A(SEGTRTBL)
               4 0000CC08 00000001     A   69560 69002
 =A(SEGWR)
               4 00000EEC 00000001     A   10353  9552
 =A(SEGWR)
               4 000019B0 00000001     A   13501 11261  11321  12381  13448
 =A(SEGWR)
               4 00001C48 00000001     A   14165 14002  14126
 =A(SEGWR)
               4 00001F0C 00000001     A   15140 14364  14930
 =A(SEGWR)
               4 00002A14 00000001     A   19137 15506  15854  16583  16759  17378  17587  18304
 =A(SEGWR)
               4 000037DC 00000001     A   22973 19592  19747
 =A(SEGWR)
               4 00003F18 00000001     A   24916 24293
 =A(SEGWR)
               4 00004A10 00000001     A   28818 25253  26043  26124
 =A(SEGWR)
               4 0000514C 00000001     A   31066 30952
 =A(SEGWR)
               4 0000600C 00000001     A   35840 33862  34658  34977
 =A(SEGWR)
               4 000063B8 00000001     A   36917 36871
 =A(SEGWR)
               4 00007314 00000001     A   42337 39123  39153  39422  39524  41172
 =A(SEGWR)
               4 00007CB0 00000001     A   45937 44145  44264  44450  44474
 =A(SEGWR)
               4 00009088 00000001     A   52651 46198  46231  46274  46579  46641  46672  46912  47033  47101  47377
                                                 47416  47454  47633  47861  47947  48227  48742  48925  48965  49864
                                                 49998  50073  50207  50324  50433  50521  50639  50666  51004  51083
                                                 51114  51143  51315  51422  51438  51471  51547  51643  51659  51725
                                                 51786  51923  52044  52193  52245  52411  52486  52512  52587
 =A(SEGWR)
               4 00009C68 00000001     A   55629 53118  53134  53188  53238  53270  53286  53322  53410  53527  53619
                                                 53707  53766  53824  53882  53940  53977  54015  54052  54090  54111
                                                 54128  54234  54272  54310  54348  54402  54460  54518  54576  54634
                                                 54692  54713  54751  54789  54827  54865  54919  55051  55130  55223
                                                 55316  55333  55431  55474  55572
 =A(SEGWR)
               4 0000A2B4 00000001     A   57042 55848  55950  56020  56098  56176  56254  56452  56650  56822  56994
 =A(SEGWR)
               4 0000AE8C 00000001     A   61019 57441  57738  57987  58236  58412  58589  58733  58822  58949  59080
                                                 59264  59343  59379  59415  59438  59703  59734  59972  60051  60171
1AMELIA   Ordinary Symbol and Literal Cross Reference                                                                       Page  465
                                                 60230  60366  60450  60611  60798  60848  60908  60924
 =A(SEGWR)
               4 0000BA0C 00000001     A   64478 61579  62413  62533  62969  63248  63525  64095  64209
 =A(SEGWR)
               4 0000C640 00000001     A   68566 64661  65110  65129  65549  65592  65712  65832  65943  66056  66088
                                                 66758  66842  66947  67042  67122  67332  67527  67823  67855  68528
 =A(SEGWR)
               4 0000CC14 00000001     A   69563 69217  69358
 =A(SEGWR)
               4 0000D960 00000001     A   74641 71094  71352  71486  74435  74497  74530
 =A(SEGWR)
               4 0000E628 00000001     A   77993 75716  75779  75960  75983  76034  76190  76347  76366  76384  76408
                                                 76515  76533  76561  76579  76597  76632  77090  77139  77157  77205
                                                 77229  77283  77317  77383  77405  77453  77471  77489  77513  77546
                                                 77564  77582  77600  77652  77680  77698  77725  77743  77770
 =A(SEGWR)
               4 0000EC38 00000001     A   79551 78273  78751  78777
 =A(SENDARP)
               4 00005F98 00000001     A   35811 31265
 =A(SENDARP)
               4 000063B0 00000001     A   36915 36674  36708
 =A(SENDPATH)
               4 000038B4 00000001     A   23001 21847
 =A(SENDPATH)
               4 00003EEC 00000001     A   24909 23863
 =A(SENDPATH)
               4 00004A68 00000001     A   28840 27409  28320  28402
 =A(SENDPATH)
               4 00005124 00000001     A   31056 29552
 =A(SENDPATH)
               4 00005FEC 00000001     A   35832 32441  32818
 =A(SENDRST)
               4 00003EB8 00000001     A   24900 23161  23620  24309
 =A(SENDRST)
               4 00004A60 00000001     A   28838 26973  28138
 =A(SENDRST)
               4 00006008 00000001     A   35839 32971  35363
 =A(SENDTCP)
               4 000038C0 00000001     A   23004 21996  22601
 =A(SENDTCP)
               4 00003EF0 00000001     A   24910 23891  24098
 =A(SENDTCP)
               4 00004A88 00000001     A   28848 28602
 =A(SENDTCP)
               4 00005138 00000001     A   31061 30599
 =A(SENDTCP)
               4 00005F90 00000001     A   35809 31243  34000  34155  35058
 =A(SHORTNAM)
               4 00007CA4 00000001     A   45934 43630  44895
 =A(SNDPATHQ)
               4 00003EC4 00000001     A   24903 23417  24864
 =A(SNDPATHQ)
               4 00005FF8 00000001     A   35835 32548  35188
 =A(TCPEOF)
               4 00003F20 00000001     A   24918 24422
 =A(TCPFULLQ)
               4 0000D944 00000001     A   74634 70715
 =A(TCPGETIP)
               4 00003878 00000001     A   22994 21449  22359
1AMELIA   Ordinary Symbol and Literal Cross Reference                                                                       Page  466
 =A(TCPMSTID)
               4 000037C8 00000001     A   22968 19325
 =A(TCPNSL)
               4 00006954 00000001     A   38728 38438
 =A(TCPNSL)
               4 00007324 00000001     A   42341 39279  39561
 =A(TCPPATH)
               4 0000D958 00000001     A   74639 70995
 =A(TCPPCLOS)
               4 0000D948 00000001     A   74635 70743
 =A(TCPSTART)
               4 00003F24 00000001     A   24919 24446
 =A(TCPTIMER)
               4 00000F30 00000001     A   10370 10240
 =A(TCPTRACE)
               4 000037D0 00000001     A   22970 19377  20236  21383
 =A(TCPTRACE)
               4 00004A50 00000001     A   28834 26266  26418
 =A(TCPTRACE)
               4 00005144 00000001     A   31064 30892
 =A(TCPTRACE)
               4 00005FAC 00000001     A   35816 31629  34666  34983
 =A(TIMER)
               4 00000F24 00000001     A   10367 10114
 =A(TIMESEC*100)
               4 00000F10 00000001     A   10362  9849  10108
 =A(TIMESEC)
               4 00002A90 00000001     A   19164 19072
 =A(TIMREXIT)
               4 00000F0C 00000001     A   10361  9845  10104
 =A(UNPRESS)
               4 0000EC3C 00000001     A   79552 78376
 =A(UPATRBAF)
               4 00006018 00000001     A   35843 34680  34997
 =A(UPATRBAF)
               4 0000D9AC 00000001     A   74658 72684  73818
 =A(UPATRBOM)
               4 0000D9C8 00000001     A   74665 73868
 =A(UPATRBPI)
               4 0000D9D0 00000001     A   74667 73918
 =A(UPATRIAD)
               4 0000D9D4 00000001     A   74668 73943
 =A(UPATRIBS)
               4 0000D9CC 00000001     A   74666 73893
 =A(UPATRIFC)
               4 0000D9BC 00000001     A   74662 73768
 =A(UPATRNOP)
               4 0000D9C4 00000001     A   74664 73843
 =A(UPATRPMW)
               4 0000D9C0 00000001     A   74663 73793
 =A(VERSION)
               4 0000918C 00000001     A   52704 52496
 =A(WINDOW)
               4 00005128 00000001     A   31057 29568
 =A(WINDOW)
               4 00005FC4 00000001     A   35822 31969
 =A(X'FF')
               4 0000CC20 00000001     A   69566 69474
 =A(X'FFFF')
1AMELIA   Ordinary Symbol and Literal Cross Reference                                                                       Page  467
               4 00002A3C 00000001     A   19147 16655  17316  18200
 =A(X'FFFF')
               4 00004A00 00000001     A   28814 25149
 =A(X'FFFF')
               4 0000D91C 00000001     A   74624 69802  69814  69820  69852  69858
 =A(X'FFFFFF')
               4 0000E644 00000001     A   78000 76078  76235
 =A(X'FFFFF000')
               4 00000EC4 00000001     A   10345  9322   9324
 =A(X'FFFFF8')
               4 0000FA48 00000001     A   83537 83195
 =A(X'F0')
               4 00004A14 00000001     A   28819 25275
 =A(X'F0')
               4 0000BA50 00000001     A   64495 64053
 =A(X'047000')
               4 00000EBC 00000001     A   10343  9254
 =A(X'1FFF')
               4 00002A88 00000001     A   19162 18502
 =A(X'1FFF')
               4 0000BA34 00000001     A   64488 62973
 =A(X'3FFF')
               4 00002A48 00000001     A   19150 16831
 =A(X'3FFF')
               4 00007370 00000001     A   42360 41935
 =A(X'3FFF')
               4 0000BA2C 00000001     A   64486 62675
 =A(X'40000000')
               4 000100E4 00000001     A   85990 84864
 =A(X'7F')
               4 00001998 00000001     A   13495 11059
 =A(X'80000000')
               4 0000E618 00000001     A   77989 75476
 =A(XMITIP)
               4 00002A28 00000001     A   19142 16270  17451
 =A(XMITIP)
               4 00005FB8 00000001     A   35819 31855
 =A(XMITIP)
               4 0000D998 00000001     A   74653 71681
 =A(XMITTCP)
               4 00004A94 00000001     A   28851 28762
 =A(XMITTCP)
               4 00005148 00000001     A   31065 30897
 =A(XMITTCP)
               4 00005FB0 00000001     A   35817 31634
 =A(XMITUDP)
               4 0000694C 00000001     A   38726 38096
 =A(XOPENRST)
               4 00005F88 00000001     A   35807 31201
 =A(XTIMEOUT)
               4 0000513C 00000001     A   31062 30735
 =A(0)         4 000038D4 00000001     A   23009 22900
 =A(0)         4 0000692C 00000001     A   38718 37764
 =A(0)         4 00009140 00000001     A   52693 51178
 =A(0)         4 0000F9FC 00000001     A   83518 81713
 =A(1)         4 0000199C 00000001     A   13496 11110  11990  12815
 =A(1)         4 00002A2C 00000001     A   19143 16506  16509
 =A(1)         4 00003844 00000001     A   22989 20940
 =A(1)         4 00004A1C 00000001     A   28821 25333  25356  25910  25936  26170  26683
1AMELIA   Ordinary Symbol and Literal Cross Reference                                                                       Page  468
 =A(1)         4 0000510C 00000001     A   31050 29146  29235  29264  30080  30145  30598
 =A(1)         4 00005FC8 00000001     A   35823 31988  34314
 =A(1)         4 00006108 00000001     A   36016 35987
 =A(1)         4 00006904 00000001     A   38710 37197  37267
 =A(1)         4 0000733C 00000001     A   42347 39794  41821  41824  42172  42191  42285
 =A(1)         4 00007C94 00000001     A   45930 42673  43387  45226  45805
 =A(1)         4 000090C4 00000001     A   52664 47080  47361  47497  48977  49913  50007  50122  50216  51320
 =A(1)         4 00009C58 00000001     A   55625 52871  52926
 =A(1)         4 0000BA14 00000001     A   64480 61925  62091  62208  62379
 =A(1)         4 0000C654 00000001     A   68571 64916  67795
 =A(1)         4 0000CC0C 00000001     A   69561 69147  69252  69273  69309  69320  69323  69328  69512
 =A(1)         4 0000D910 00000001     A   74621 69671  69765  69792  69823
 =A(1)         4 0000E654 00000001     A   78004 76478
 =A(1)         4 0000EC5C 00000001     A   79560 78887  79302  79380  79469  79472
 =A(1)         4 00010100 00000001     A   85997 85919
 =A(10)        4 00005F94 00000001     A   35810 31256
 =A(10)        4 0000FA0C 00000001     A   83522 81785  81822  81842  81915
 =A(100*L'TRCENTRY)
               4 00000EAC 00000001     A   10339  9171
 =A(100)       4 0000FA40 00000001     A   83535 83098  83107
 =A(1000)      4 0000FA28 00000001     A   83529 82507
 =A(10000)
               4 0000FA3C 00000001     A   83534 83091
 =A(100000)
               4 0000E64C 00000001     A   78002 76103  76260  76932
 =A(1000000/64*60*60*24)
               4 0000FA34 00000001     A   83532 82796  83083
 =A(12)        4 0000E61C 00000001     A   77990 75607
 =A(12)        4 0000FA00 00000001     A   83519 81727
 =A(132)       4 0000E600 00000001     A   77983 74838  74850
 =A(15)        4 00002A30 00000001     A   19144 16526  17228  17538  18036  18632
 =A(15)        4 000049F8 00000001     A   28812 25057
 =A(15)        4 0000BA20 00000001     A   64483 62477
 =A(15)        4 0000C650 00000001     A   68570 64885
 =A(15)        4 0000D990 00000001     A   74651 71646
 =A(15)        4 0000E650 00000001     A   78003 76428
 =A(1514)      4 00001C3C 00000001     A   14162 13650
 =A(16)        4 0000CC10 00000001     A   69562 69164
 =A(2)         4 000090D8 00000001     A   52669 47546
 =A(2)         4 0000C658 00000001     A   68572 64953
 =A(2)         4 0000D918 00000001     A   74623 69733
 =A(2)         4 000100D8 00000001     A   85987 83785
 =A(200)       4 00005130 00000001     A   31059 30212
 =A(255)       4 00007368 00000001     A   42358 41848
 =A(255)       4 00007C8C 00000001     A   45928 42584  42708  42834  45052  45546  45734  45839
 =A(255)       4 0000EC78 00000001     A   79567 79447
 =A(3)         4 00009130 00000001     A   52689 50729
 =A(3)         4 0000C65C 00000001     A   68573 64990
 =A(3)         4 0000CC1C 00000001     A   69565 69294
 =A(3)         4 0000D914 00000001     A   74622 69701
 =A(30)        4 00004A8C 00000001     A   28849 28625
 =A(30)        4 000090B8 00000001     A   52661 46779
 =A(300)       4 00004A54 00000001     A   28835 26460
 =A(31+29)
               4 0000FA30 00000001     A   83531 82555  83243
 =A(32)        4 00009104 00000001     A   52680 49108
 =A(365)       4 0000FA4C 00000001     A   83538 83290
 =A(36525)
               4 0000FA44 00000001     A   83536 83099
1AMELIA   Ordinary Symbol and Literal Cross Reference                                                                       Page  469
 =A(4)         4 00002A64 00000001     A   19157 17242
 =A(4)         4 00003884 00000001     A   22997 21559
 =A(4)         4 00004A20 00000001     A   28822 25377
 =A(4)         4 000090A0 00000001     A   52657 46558  47396
 =A(4)         4 0000BA54 00000001     A   64496 64109
 =A(4)         4 0000C660 00000001     A   68574 65027
 =A(4)         4 0000CBFC 00000001     A   69557 68794  68806
 =A(4)         4 0000D9A4 00000001     A   74656 72227
 =A(4)         4 0000EC7C 00000001     A   79568 79503
 =A(4)         4 0000FA08 00000001     A   83521 81771  81808  81885
 =A(4095)      4 0000E630 00000001     A   77995 75833
 =A(4096)      4 00000EC8 00000001     A   10346  9374
 =A(5)         4 000019B8 00000001     A   13503 11587
 =A(5)         4 00006918 00000001     A   38713 37291
 =A(5)         4 00007CD8 00000001     A   45947 45238
 =A(5)         4 0000C664 00000001     A   68575 65064
 =A(512)       4 00005FD8 00000001     A   35827 32156
 =A(512)       4 00007378 00000001     A   42362 41963
 =A(58)        4 000019C0 00000001     A   13505 11683
 =A(60*100)
               4 0000FA18 00000001     A   83525 82325
 =A(60)        4 000019FC 00000001     A   13514 12966
 =A(60)        4 0000FA20 00000001     A   83527 82353
 =A(600)       4 00003810 00000001     A   22984 20221  21368
 =A(63)        4 00007380 00000001     A   42364 42231
 =A(64)        4 000037E8 00000001     A   22976 19753  19765
 =A(65535)
               4 0000AE94 00000001     A   61021 57620
 =A(7)         4 0000E658 00000001     A   78005 76480
 =A(7)         4 0000FA14 00000001     A   83524 81871  81901
 =A(8)         4 00002A80 00000001     A   19160 18085
 =A(8)         4 00003818 00000001     A   22986 20781  20793  22483
 =A(8)         4 000090D4 00000001     A   52668 47434
 =A(8)         4 0000CC18 00000001     A   69564 69264
 =A(8)         4 0000E614 00000001     A   77988 75360
 =A(8)         4 0000EC64 00000001     A   79562 79009
 =A(80)        4 000037D8 00000001     A   22972 19553  19565
 =A(80)        4 0000EC40 00000001     A   79553 78419
 =A(8000)      4 00002A60 00000001     A   19156 17181
 =A(8000)      4 0000D988 00000001     A   74649 71599
 =A(964)       4 00005FE0 00000001     A   35829 32209  32229
 =AL1(2,4)
               1 00005154 00000001     R   31068 30085
 =AL2($$$2251)
               2 0000FA6A 00000001     R   83550 82161
 =AL2($$$2361)
               2 0001010C 00000001     R   86002 85582
 =AL2($$$2365)
               2 0001010E 00000001     R   86003 85703
 =AL2(ARPENET#)
               2 00002A94 00000001     R   19165 15278
 =AL2(ARPREP#)
               2 00002A9A 00000001     R   19168 15337
 =AL2(ARPREP#)
               2 0000BA6A 00000001     R   64504 61668
 =AL2(ARPREQ#)
               2 00002A98 00000001     R   19167 15322  15469
 =AL2(ARPREQ#)
               2 0000BA68 00000001     R   64503 61632
1AMELIA   Ordinary Symbol and Literal Cross Reference                                                                       Page  470
 =AL2(ARPRREP#)
               2 0000BA6E 00000001     R   64506 61740
 =AL2(ARPRREQ#)
               2 0000BA6C 00000001     R   64505 61704
 =AL2(ENETARP#)
               2 00001A3C 00000001     R   13522 12476
 =AL2(ENETARP#)
               2 00001F34 00000001     R   15152 15004
 =AL2(ENETARP#)
               2 0000BA62 00000001     R   64500 61415
 =AL2(ENETIP#)
               2 00001A3E 00000001     R   13523 12511
 =AL2(ENETIP#)
               2 00001F36 00000001     R   15153 15039
 =AL2(ENETIP#)
               2 00002A96 00000001     R   19166 15299
 =AL2(ENETIP#)
               2 0000BA5E 00000001     R   64498 61379  61808  62009  62297
 =AL2(ENETIP#)
               2 0000DA06 00000001     R   74678 71218  74250
 =AL2(L'ENETHDR)
               2 00001A3A 00000001     R   13521 12353
 =AL2(L'ENETHDR)
               2 00001F32 00000001     R   15151 14902
 =AL2(L'NIT)
               2 00000F3C 00000001     R   10373  9362
 =AL2(L'NITBLANK)
               2 0001010A 00000001     R   86001 85261
 =AL2(L'PNUM)
               2 00000F42 00000001     R   10376  9792
 =AL2(NSM#IN)
               2 0000C764 00000001     R   68615 66588
 =AL2(RR#A)
               2 000073A8 00000001     R   42370 40791  40845  41483
 =AL2(RR#A)
               2 0000C752 00000001     R   68606 66139  66786
 =AL2(RR#CNAME)
               2 000073AA 00000001     R   42371 40806  41598
 =AL2(RR#CNAME)
               2 0000C756 00000001     R   68608 66233  66887
 =AL2(RR#HINFO)
               2 0000C75E 00000001     R   68612 66421  67360
 =AL2(RR#MX)
               2 000073AC 00000001     R   42372 40821  40882  41515
 =AL2(RR#MX)
               2 0000C760 00000001     R   68613 66468  66679
 =AL2(RR#NS)
               2 000073B2 00000001     R   42375 41583
 =AL2(RR#NS)
               2 0000C754 00000001     R   68607 66186  66872
 =AL2(RR#PTR)
               2 000073AE 00000001     R   42373 40928  41613
 =AL2(RR#PTR)
               2 0000C75C 00000001     R   68611 66374  66902
 =AL2(RR#SOA)
               2 0000C758 00000001     R   68609 66280  66975
 =AL2(RR#TXT)
               2 0000C762 00000001     R   68614 66515
 =AL2(RR#WKS)
1AMELIA   Ordinary Symbol and Literal Cross Reference                                                                       Page  471
               2 0000C75A 00000001     R   68610 66327  67555
 =AL2(TCBTRRCV)
               2 0000AF96 00000001     R   61049 59650  59683
 =AL2(TCBTRRPM)
               2 0000AFA0 00000001     R   61052 60031
 =AL2(TCBTRSND)
               2 0000AF98 00000001     R   61050 59665
 =AL2(UDPNS#)
               2 00002AA6 00000001     R   19174 18109  18338
 =AL2(4096)
               2 00000F40 00000001     R   10375  9675   9707
 =AL2(4096)
               2 00001A0C 00000001     R   13518 10466
 =AL2(6223)
               2 00000818 00000001     R    8623  8160
 =AL4(MAXTCPLN)
               4 00005FDC 00000001     R   35828 32173
 =AL4(23)      4 00003EF4 00000001     R   24911 24188  24203
 =AL4(23)      4 00005FF0 00000001     R   35833 32477  32492
 =AL4(25)      4 0000380C 00000001     R   22983 20202  21349
 =AL4(25)      4 00003EF8 00000001     R   24912 24218
 =AL4(25)      4 00005FF4 00000001     R   35834 32507
 =AL4(32)      4 00009100 00000001     R   52679 49101
 =AL4(4)       4 0000AEA4 00000001     R   61025 58008
 =AL4(515)
               4 00003EFC 00000001     R   24913 24233
 =AL4(8)       4 0000AEFC 00000001     R   61035 60828
 =AL4(964)
               4 00005FE4 00000001     R   35830 32222
 =C'    Last sense info:'
              20 00009C94 00000001     C   55634 53432
 =C'   '       3 0000B0C0 00000001     C   61082 60646
 =C'   Started'
              10 0000AF0A 00000001     C   61039 57692
 =C'   SEQ='
               7 0000B07D 00000001     C   61075 59757
 =C'  (no checksum)'
              15 0000BB5E 00000001     C   64536 63489
 =C'  (plus'
               7 0000B011 00000001     C   61067 58342  58519
 =C'  (retransmit)'
              14 0000AF70 00000001     C   61046 59228
 =C'  '        2 00002AA4 00000001     C   19173 16699  18244
 =C'  '        2 00004AB4 00000001     C   28854 25193
 =C'  '        2 0000A318 00000001     C   57055 56780  56952
 =C'  '        2 0000AF08 00000001     C   61038 57529
 =C'  '        2 0000BA7A 00000001     C   64510 63712
 =C'  '        2 0000E68E 00000001     C   78014 76724  76798  76839  76880
 =C'  from'
               6 000073A2 00000001     C   42369 39369
 =C'  Ack='
               6 0000BA7C 00000001     C   64511 63959
 =C'  Addr    Time        ID        '
              32 0000E5B8 00000001     C   77981 76602
 =C'  Addr='
               7 0000C833 00000001     C   68648 66795  67566
 =C'  ACK='
               6 0000AF9A 00000001     C   61051 59809
 =C'  Bitmap='
1AMELIA   Ordinary Symbol and Literal Cross Reference                                                                       Page  472
               9 0000C85C 00000001     C   68655 67736
 =C'  Class='
               8 0000C628 00000001     C   68563 65494
 =C'  Count='
               8 0000AE70 00000001     C   61013 60743
 =C'  COUNT='
               8 00009060 00000001     C   52645 52326
 =C'  CPU='
               6 0000C776 00000001     C   68618 67410
 =C'  Data='
               7 0000BB29 00000001     C   64531 62918  63436  64040
 =C'  Data='
               7 0000C865 00000001     C   68656 67845
 =C'  Ethernet'
              10 0000A2F0 00000001     C   57051 55907
 =C'  Expire='
               9 0000C841 00000001     C   68650 67247
 =C'  Flags'
               7 0000C791 00000001     C   68624 64707
 =C'  Frag='
               7 0000BB1C 00000001     C   64528 62690
 =C'  Host='
               7 0000C82C 00000001     C   68647 66722  66911  66984
 =C'  Incoming connects:  '
              22 0000A302 00000001     C   57054 56676
 =C'  ICMP packets received:'
              24 0000A290 00000001     C   57038 56125
 =C'  ICMP packets sent:'
              20 0000A2C8 00000001     C   57047 56203
 =C'  ID='
               5 0000BB17 00000001     C   64527 62637
 =C'  ID='
               5 0000C78C 00000001     C   68623 64666
 =C'  IP fragments received:'
              24 0000A278 00000001     C   57037 56047
 =C'  Last packet received at'
              25 0000A331 00000001     C   57058 55981
 =C'  Max='
               6 0000AF00 00000001     C   61036 57275
 =C'  Min='
               6 0000C770 00000001     C   68617 67281
 =C'  MSS='
               6 0000AF14 00000001     C   61040 58079
 =C'  Outgoing connects:  '
              22 0000A31A 00000001     C   57056 56848
 =C'  OS='
               5 0000C84A 00000001     C   68651 67491
 =C'  Port='
               7 0000AFDB 00000001     C   61059 57313  57855
 =C'  Pref='
               7 0000C825 00000001     C   68646 66688  68295
 =C'  Prot='
               7 0000BAD6 00000001     C   64524 61817  62731
 =C'  Prot='
               7 0000C84F 00000001     C   68652 67596
 =C'  Refresh='
              10 0000C766 00000001     C   68616 67179
 =C'  Retry='
               8 0000C638 00000001     C   68565 67213
1AMELIA   Ordinary Symbol and Literal Cross Reference                                                                       Page  473
 =C'  RC='
               5 0000C798 00000001     C   68625 64866
 =C'  RXTIME='
               9 0000AFE8 00000001     C   61062 58113
 =C'  Source'
               8 0000B9E8 00000001     C   64471 61858
 =C'  Src='
               6 0000BA58 00000001     C   64497 61297  62607  63396  63672
 =C'  State='
               8 0000AE40 00000001     C   61008 57207
 =C'  SRTT='
               7 0000AFF1 00000001     C   61063 58147
 =C'  Target'
               8 0000B9F0 00000001     C   64472 62110
 =C'  Type='
               7 0000BA95 00000001     C   64515 61355
 =C'  TCP packets received:'
              23 0000A34A 00000001     C   57059 56281
 =C'  TCP packets sent:'
              19 0000A368 00000001     C   57061 56479
 =C'  TRUNCATE='
              11 00009389 00000001     C   52740 52360
 =C'  Userid'
               8 0000AE48 00000001     C   61009 57600
 =C'  Win='
               6 0000BA82 00000001     C   64512 64000
 =C' ('        2 0000A2FA 00000001     C   57052 56315  56513
 =C' ('        2 0000AF06 00000001     C   61037 57365  57911  58276  58453
 =C' ('        2 0000E690 00000001     C   78015 76985
 =C' (including '
              12 00009CFC 00000001     C   55642 54981
 =C' (mail host)'
              12 0000C6D8 00000001     C   68594 68491
 =C' (plus'
               6 0000A2FC 00000001     C   57053 56382  56580
 =C' (AMELIA+0'
              10 0000E67A 00000001     C   78012 76112  76269
 =C' (Echo msg)'
              11 0000BB48 00000001     C   64534 63212
 =C' (Echo reply)'
              13 0000BB3B 00000001     C   64533 63173
 =C' (Invalid request)'
              18 0000C6FA 00000001     C   68600 64926
 =C' (PTR)'
               6 0000C780 00000001     C   68621 68112
 =C' (Request refused by server)'
              28 0000C668 00000001     C   68576 65074
 =C' (Server failure)'
              17 0000C79D 00000001     C   68626 64963
 =C' (Unknown name)'
              15 0000C7AE 00000001     C   68627 65000
 =C' (Unsupported request)'
              22 0000C70C 00000001     C   68601 65037
 =C' ** RC='
               7 0000B084 00000001     C   61076 60102
 =C' **'       3 0000B08B 00000001     C   61077 60135
 =C' '         1 00009300 00000001     C   52731 50629  50656  51428  51649  51715  51776  52183
 =C' '         1 00009DBE 00000001     C   55654 53124  53260  53487  53967  54042  54101  55396  55537
 =C' '         1 0000A330 00000001     C   57057 55812
1AMELIA   Ordinary Symbol and Literal Cross Reference                                                                       Page  474
 =C' '         1 0000B0C3 00000001     C   61083 60683  60838  60914
 =C' '         1 0000E6CC 00000001     C   78023 75971  76022  76354  76437  76521  76549  76585  77127  77145  77271
                                                 77305  77393  77441  77459  77534  77552  77588  77668  77686  77713
                                                 77731  77758
 =C' '         1 00010110 00000001     C   86004 84069  84157
 =C' broadcast)'
              11 00009E5A 00000001     C   55664 54224
 =C' buffer full'
              12 0000915C 00000001     C   52698 51537
 =C' bytes unacked '
              15 0000B032 00000001     C   61070 58648
 =C' bytes unsent'
              13 0000B041 00000001     C   61071 58697
 =C' bytes)'
               7 0000A361 00000001     C   57060 56350  56548
 =C' bytes)'
               7 0000B00A 00000001     C   61066 58310  58487
 =C' bytes, received at'
              19 0000933E 00000001     C   52737 51605
 =C' bytes'
               6 0000AF46 00000001     C   61043 58939  59197
 =C' loopback, '
              11 00009E4F 00000001     C   55663 54189
 =C' retransmit)'
              12 0000A2DC 00000001     C   57048 56416  56614
 =C' retransmit)'
              12 0000AEA8 00000001     C   61026 58376  58553
 =C' retries)'
               9 00009EAD 00000001     C   55671 55015
 =C' send calls,'
              12 00009150 00000001     C   52697 51502
 =C' Buffer overflows'
              17 00009E18 00000001     C   55660 53930
 =C' Class='
               7 0000C819 00000001     C   68644 66597
 =C' Code='
               6 0000BA70 00000001     C   64507 63114
 =C' Control I/O errors, last at'
              28 00009C78 00000001     C   55633 53371
 =C' CSW='
               5 00001A61 00000001     C   13528 13217
 =C' Error:'
               7 0000391D 00000001     C   23017 19707
 =C' ECBCC='
               7 00001A6D 00000001     C   13530 13323
 =C' Frame alignment errors'
              23 00009E01 00000001     C   55659 53872
 =C' FCS errors'
              11 00009DE9 00000001     C   55657 53756
 =C' FIN'      4 0000AEF8 00000001     C   61034 59936
 =C' High packet count connections'
              30 00009D6A 00000001     C   55648 54005
 =C' Host'
               5 0000AFE3 00000001     C   61061 57761
 =C' ICMP'
               5 00009E65 00000001     C   55665 54338  54855
 =C' INVALID'
               8 000037B0 00000001     C   22966 20835
 =C' IP checksum errors'
1AMELIA   Ordinary Symbol and Literal Cross Reference                                                                       Page  475
              19 00009E80 00000001     C   55668 54508
 =C' IP fragments'
              13 00009E73 00000001     C   55667 54450
 =C' Job'      4 0000AE90 00000001     C   61020 57448
 =C' Last data received at'
              22 0000AF30 00000001     C   61042 58849
 =C' Last data sent at'
              18 0000AF5E 00000001     C   61045 59108
 =C' Last packet received '
              22 0000AF1A 00000001     C   61041 58762
 =C' Last packet sent '
              18 0000AF4C 00000001     C   61044 59020
 =C' Len='
               5 0000B078 00000001     C   61074 59563
 =C' Len='
               5 0000BAA2 00000001     C   64518 61528
 =C' Name lookups'
              13 00009EA0 00000001     C   55670 54950
 =C' Other IP'
               9 00009E6A 00000001     C   55666 54392  54909
 =C' Packets lost'
              13 00009DF4 00000001     C   55658 53814
 =C' Packets received'
              17 0000AFF9 00000001     C   61065 58242
 =C' Packets sent'
              13 0000B018 00000001     C   61068 58419
 =C' Path messages queued'
              21 0000B0AB 00000001     C   61081 60601
 =C' PDT'      4 0000FA10 00000001     C   83523 81791
 =C' PST'      4 0000FA04 00000001     C   83520 81757  81921
 =C' Read errors, last at'
              21 00009DD4 00000001     C   55656 53580
 =C' RC='      4 0000EC2C 00000001     C   79548 78222
 =C' RST'      4 0000AEF0 00000001     C   61032 59866
 =C' Send queue: '
              13 0000B025 00000001     C   61069 58612
 =C' SEND QUEUE OVERFLOWS'
              21 00009E29 00000001     C   55661 54080
 =C' SENSE='
               7 00001A74 00000001     C   13531 13385
 =C' SIOCC='
               7 00001A66 00000001     C   13529 13273
 =C' SYN'      4 0000AEF4 00000001     C   61033 59901
 =C' Total ('
               8 00009C40 00000001     C   55623 54155
 =C' Total'
               6 00009D88 00000001     C   55649 54741
 =C' Trace table:'
              13 0000B06B 00000001     C   61073 59428
 =C' Type='
               6 0000C730 00000001     C   68603 65250
 =C' TCP checksum errors'
              20 00009CB8 00000001     C   55639 54566
 =C' TCP packets out of sequence'
              28 00009CE0 00000001     C   55641 54682
 =C' TCP_ABORT received:'
              20 00003F04 00000001     C   24915 24281
 =C' TCP_CLOSE received from path'
              29 0000B04E 00000001     C   61072 59333
1AMELIA   Ordinary Symbol and Literal Cross Reference                                                                       Page  476
 =C' TCP_STOP received from path'
              28 0000AEBC 00000001     C   61029 59369
 =C' TCP_STOP sent to path'
              22 0000AF7E 00000001     C   61047 59405
 =C' TCP'      4 00009CB0 00000001     C   55637 54262  54779
 =C' TTL='
               5 0000C820 00000001     C   68645 66635  68374
 =C' UDP checksum errors'
              20 00009CCC 00000001     C   55640 54624
 =C' UDP'      4 00009CB4 00000001     C   55638 54300  54817
 =C' Window='
               8 0000AE50 00000001     C   61010 58045
 =C' Write errors, last at'
              22 00009D54 00000001     C   55647 53668
 =C' Write queue depth, max was '
              28 00009D08 00000001     C   55643 55079
 =C'. '        2 0000EC82 00000001     C   79570 78861
 =C'.'         1 0000AFF8 00000001     C   61064 58183
 =C'.best'
               5 0000696B 00000001     C   38735 37319
 =C'.in-addr.arpa'
              13 00007423 00000001     C   42381 40974
 =C'.slac'
               5 00006966 00000001     C   38734 37306
 =C'$END'      4 0000695C 00000001     C   38730 38640
 =C'$END'      4 0000908C 00000001     C   52652 46264
 =C'*** Ethernet interface is DOWN ***'
              34 00009D32 00000001     C   55646 53276
 =C'*** TCB queue error ***'
              23 00009351 00000001     C   52738 52034
 =C'*AMELIA*'
               8 00001910 00000001     C   13485 11101  11981  12806
 =C')  '       3 0000E6FB 00000001     C   78028 77026
 =C')'         1 0000AFE2 00000001     C   61060 57405  57951
 =C')'         1 0000E6D8 00000001     C   78025 76150  76307
 =C'- Invalid'
               9 00009228 00000001     C   52717 46188
 =C', allocated'
              11 00009EC3 00000001     C   55673 55265
 =C', buffer full'
              13 00009EB6 00000001     C   55672 55172
 =C'??/??/??'
               8 0000F998 00000001     C   83500 82490  83296
 =C'??:??:??.??'
              11 0000FA74 00000001     C   83553 82316
 =C':'         1 00010112 00000001     C   86006 85939
 =C'='         1 0000A37B 00000001     C   57062 56746  56918
 =C'mailhost='
               9 000073F0 00000001     C   42378 39703  39765
 =C'started at'
              10 00009D28 00000001     C   55645 53079
 =C'[root domain]'
              13 0000C7EB 00000001     C   68634 66078
 =C'A  '       3 0000C7FD 00000001     C   68636 66149
 =C'A'         1 0000C7C2 00000001     C   68629 65284
 =C'Additional records:'
              19 0000C7D8 00000001     C   68633 65822
 =C'Answer section:'
              15 0000C7C9 00000001     C   68632 65582
1AMELIA   Ordinary Symbol and Literal Cross Reference                                                                       Page  477
 =C'AA'        2 0000C6F2 00000001     C   68596 64739
 =C'ABEND, code ='
              13 0000E6BD 00000001     C   78020 75800
 =C'ACCEPT'
               6 000038D8 00000001     C   23010 19418
 =C'ALL'       3 00009301 00000001     C   52732 50742
 =C'AMELIA assembled'
              16 00009068 00000001     C   52646 52423
 =C'AMELIA'
               6 000091D2 00000001     C   52712 48289  49238
 =C'ANY'       3 0000C7C6 00000001     C   68631 65422
 =C'ARP:  Reply'
              11 0000BAB0 00000001     C   64520 61677
 =C'ARP:  Req'
               9 0000BAA7 00000001     C   64519 61641
 =C'ARP: ??'
               7 0000BACF 00000001     C   64523 61769
 =C'ARP'       3 0000BA9C 00000001     C   64516 61424
 =C'ASC'       3 000092C4 00000001     C   52727 49549
 =C'Buffer pool size'
              16 00009C48 00000001     C   55624 55230
 =C'BAD SUZAN ADDR'
              14 0000DA1A 00000001     C   74684 73952
 =C'BAD SUZAN BUFFER ADDR'
              21 0000DA93 00000001     C   74694 73927
 =C'BAD SUZAN CONTROL BLOCK'
              23 0000DA6A 00000001     C   74691 73802
 =C'BAD SUZAN FUNCTION CODE'
              23 0000DA53 00000001     C   74690 73777
 =C'BUFE'      4 0000F9D0 00000001     C   83507 79779  80043
 =C'BUFFER FULL'
              11 0000DA81 00000001     C   74692 73827
 =C'BUFFER TOO SMALL'
              16 0000D8F0 00000001     C   74619 73902
 =C'BUFS'      4 0000F9CC 00000001     C   83506 79778  80027
 =C'BUSY TCP CONNECTION'
              19 0000515F 00000001     C   31070 30940
 =C'Closing network interface'
              25 00001C58 00000001     C   14169 13990
 =C'Connect rejected, MAX exceeded for port'
              39 00004AC2 00000001     C   28857 25980
 =C'Connect rejected, MAXCONN exceeded for host'
              43 00004AE9 00000001     C   28858 26071
 =C'Connection not found'
              20 00009178 00000001     C   52703 52235
 =C'Control I/O error     '
              22 00001A0E 00000001     C   13519 11135
 =C'Current path block address:'
              27 0000E715 00000001     C   78030 77323
 =C'CCW='      4 00001A04 00000001     C   13516 13175
 =C'CNAME'
               5 0000C803 00000001     C   68638 66243
 =C'CNAME='
               6 0000C786 00000001     C   68622 68162
 =C'COMMAND:'
               8 0000D8A8 00000001     C   74614 71024
 =C'Do not have IP address for name server'
              38 000091A8 00000001     C   52709 47623
 =C'Don''t have IP address for host...do LOOKUP first'
1AMELIA   Ordinary Symbol and Literal Cross Reference                                                                       Page  478
              48 00009020 00000001     C   52643 47937
 =C'DATA RECEIVED AFTER TCP_CLOSE'
              29 00004B14 00000001     C   28859 26473
 =C'Error processing name server message from'
              41 000073C7 00000001     C   42377 39471
 =C'Error, invalid IP header, whole packet follows:'
              47 0000BADD 00000001     C   64525 62523
 =C'Ethernet read error   '
              22 00001A24 00000001     C   13520 11948
 =C'Ethernet write active'
              21 00009DBF 00000001     C   55655 53312
 =C'Ethernet write error on try '
              28 000019D8 00000001     C   13511 12721
 =C'Ethernet'
               8 00009C38 00000001     C   55622 53194
 =C'ENET: Dest='
              11 0000BA8A 00000001     C   64514 61239
 =C'ERROR_PREV_REQ: '
              16 00003758 00000001     C   22960 19508
 =C'ERROR: DATA OVERFLOW'
              20 00003ECC 00000001     C   24905 23624
 =C'ERROR: INVALID HOST NAME'
              24 00009008 00000001     C   52642 47406
 =C'ERROR: MAIL ONLY HOST'
              21 0000396E 00000001     C   23022 22491
 =C'ERROR: Network name lookup failed'
              33 00007402 00000001     C   42380 40112
 =C'ERROR: UNKNOWN HOST'
              19 0000392B 00000001     C   23019 22392  22541
 =C'ERROR: UNKNOWN HOST'
              19 00006035 00000001     C   35850 32462
 =C'ERROR: UNKNOWN HOST'
              19 000073B4 00000001     C   42376 39213  40080
 =C'ERROR'
               5 0000DA4E 00000001     C   74689 73752
 =C'First part of NIT:'
              18 0000E69C 00000001     C   78017 77570
 =C'FAIL:'
               5 0000E6B8 00000001     C   78019 75739
 =C'FEND'      4 0000F9E8 00000001     C   83513 80127
 =C'FIN '      4 0000BA48 00000001     C   64493 63888
 =C'FPTH'      4 0000D9B0 00000001     C   74659 72946
 =C'FRMX'      4 0000F9E4 00000001     C   83512 80125
 =C'GET_PORT:'
               9 0000DA3E 00000001     C   74687 71257
 =C'Header fields:'
              14 0000C6E4 00000001     C   68595 64651
 =C'Host not in table, need IP address'
              34 000091D8 00000001     C   52713 48955
 =C'Host table entries:'
              19 000092ED 00000001     C   52730 50314
 =C'Host table load complete'
              24 00007C70 00000001     C   45926 44254
 =C'Host table load started'
              23 00007CF6 00000001     C   45949 44135
 =C'Host unreachable'
              16 000029E8 00000001     C   19132 17812
 =C'HINFO'
               5 0000C80E 00000001     C   68641 66431
1AMELIA   Ordinary Symbol and Literal Cross Reference                                                                       Page  479
 =C'HOST ERROR'
              10 00004AB8 00000001     C   28856 26977
 =C'HST hash table at'
              17 000092DC 00000001     C   52729 50019
 =C'Idle time exceeded for connection'
              33 00006048 00000001     C   35851 33850
 =C'Incoming connects:'
              18 00009D98 00000001     C   55651 55323
 =C'Invalid address'
              15 0000CC2C 00000001     C   69570 69207
 =C'Invalid host table record:'
              26 00007CDC 00000001     C   45948 44440
 =C'Invalid name server record'
              26 0000C738 00000001     C   68605 65933
 =C'Invalid name'
              12 000090A4 00000001     C   52658 46569
 =C'Invalid path message from'
              25 00003904 00000001     C   23016 19612
 =C'Invalid trailer format packet'
              29 00001F38 00000001     C   15154 14352
 =C'Invalid IP packet received:'
              27 00002AC2 00000001     C   19176 16571
 =C'Invalid UPATH pointer'
              21 00009329 00000001     C   52736 51461
 =C'ICMP checksum error  IPSRC='
              27 00002AF6 00000001     C   19178 17325
 =C'ICMP packet error'
              17 00002B11 00000001     C   19179 17575
 =C'ICMP: Type='
              11 0000BB30 00000001     C   64532 63075
 =C'ICMP'      4 0000BA30 00000001     C   64487 62765
 =C'IN-ADDR.ARPA'
              12 00006908 00000001     C   38711 37205
 =C'IP addr '
               8 00009C30 00000001     C   55621 53141
 =C'IP addr hash table at'
              21 000092C7 00000001     C   52728 49810
 =C'IP checksum error  IPSRC='
              25 00002ADD 00000001     C   19177 16665
 =C'IP:   Dest='
              11 0000BB0C 00000001     C   64526 62577
 =C'IP'        2 0000BA60 00000001     C   64499 61388
 =C'KILLED'
               6 00006026 00000001     C   35847 33026
 =C'Last message: '
              14 00009208 00000001     C   52715 51570
 =C'Last packet received at'
              23 0000E6FE 00000001     C   78029 77163
 =C'Mailbox='
               8 0000C630 00000001     C   68564 67065
 =C'Mailhost='
               9 000073F9 00000001     C   42379 39985
 =C'Missing option'
              14 00009198 00000001     C   52707 46221
 =C'Monitoring started '
              19 0000928E 00000001     C   52723 47823
 =C'MAILHOST='
               9 0000925F 00000001     C   52720 46878  46994  47053
 =C'MEMS'      4 0000F9DC 00000001     C   83510 79921  80081
1AMELIA   Ordinary Symbol and Literal Cross Reference                                                                       Page  480
 =C'MEND'      4 0000F9E0 00000001     C   83511 79927  80110
 =C'MONPRIV set'
              11 00009304 00000001     C   52733 51073
 =C'MX '       3 0000C813 00000001     C   68642 66478
 =C'MX'        2 000091A6 00000001     C   52708 47559
 =C'MX'        2 0000C736 00000001     C   68604 65330
 =C'MX='       3 0000C86C 00000001     C   68657 68244
 =C'Name lookup error  RC='
              22 0000738C 00000001     C   42368 39325
 =C'Name lookup timeout'
              19 00006970 00000001     C   38736 38394
 =C'Name server error'
              17 0000393E 00000001     C   23020 22425
 =C'Name server section:'
              20 0000C6A4 00000001     C   68585 65702
 =C'Name servers:'
              13 0000931C 00000001     C   52735 51133
 =C'Name='
               5 0000C7BD 00000001     C   68628 65188
 =C'Net unreachable'
              15 00002B2F 00000001     C   19181 17785
 =C'Network connection is down'
              26 000038E8 00000001     C   23014 21931
 =C'Network error'
              13 00002B22 00000001     C   19180 17762
 =C'Network interface disabled, post='
              33 00001C71 00000001     C   14170 14064
 =C'No name servers defined'
              23 00009277 00000001     C   52722 47444
 =C'No TCP connections'
              18 00009216 00000001     C   52716 51913
 =C'NO DATA'
               7 0000DA47 00000001     C   74688 72294
 =C'NO PARTNER'
              10 0000DA10 00000001     C   74683 73852
 =C'NOMONPRIV set'
              13 0000930F 00000001     C   52734 51104
 =C'NS '       3 0000C800 00000001     C   68637 66196
 =C'Old data was '
              13 000092B4 00000001     C   52725 48686
 =C'Open failed for'
              15 0000EC84 00000001     C   79571 78181
 =C'Outgoing connects:'
              18 00009DAC 00000001     C   55653 55464
 =C'OFF'       3 000092C1 00000001     C   52726 49511
 =C'OK'        2 0000DA0E 00000001     C   74682 73733
 =C'Packet received from'
              20 000072FC 00000001     C   42335 39070
 =C'Packets received:'
              17 00009E3E 00000001     C   55662 54118
 =C'Packets sent:'
              13 00009E93 00000001     C   55669 54703
 =C'Parm error scanning the following line:'
              39 0000EC93 00000001     C   79572 78739
 =C'Path message received:'
              22 0000AFA2 00000001     C   61053 60041
 =C'Path message sent:'
              18 0000AFB8 00000001     C   61054 60071
 =C'Path sends'
1AMELIA   Ordinary Symbol and Literal Cross Reference                                                                       Page  481
              10 00009D8E 00000001     C   55650 55137
 =C'Port unreachable'
              16 000029F8 00000001     C   19133 17866
 =C'Privileged command.'
              19 000092A1 00000001     C   52724 48217
 =C'Protocol unreachable'
              20 00002A68 00000001     C   19158 17839
 =C'PATH'      4 0000914C 00000001     C   52696 51451
 =C'PATH'      4 0000D92C 00000001     C   74628 70367  70516  70899  71787  72067  72590  72910  73327
 =C'PINF'      4 0000D9B8 00000001     C   74661 73444
 =C'PSH '      4 0000BA3C 00000001     C   64490 63780
 =C'PSW addr = '
              11 0000E6CD 00000001     C   78024 76039
 =C'PTR'       3 0000C7C3 00000001     C   68630 65376  66384
 =C'PUP'       3 0000BA9F 00000001     C   64517 61459
 =C'Query section:'
              14 0000C722 00000001     C   68602 65119
 =C'Queueing lookup'
              15 00009268 00000001     C   52721 47367
 =C'Received packet:'
              16 0000D900 00000001     C   74620 74518
 =C'Registers:'
              10 0000E684 00000001     C   78013 76372
 =C'RA'        2 0000C6F8 00000001     C   68599 64847
 =C'RARP: Reply'
              11 0000BAC4 00000001     C   64522 61749
 =C'RARP: Req'
               9 0000BABB 00000001     C   64521 61713
 =C'RD'        2 0000C6F6 00000001     C   68598 64811
 =C'REJECT'
               6 000038DE 00000001     C   23011 19431
 =C'RESET'
               5 00004B31 00000001     C   28860 26614  26920
 =C'RST '      4 0000BA40 00000001     C   64491 63816
 =C'R0        R1        R14              R15'
              40 0000E5D8 00000001     C   77982 76620
 =C'S'         1 0000E6CA 00000001     C   78021 75842
 =C'Sending query to'
              16 000068D0 00000001     C   38705 37968
 =C'Sense info completed, address is'
              32 00001918 00000001     C   13486 11211
 =C'Sent packet:'
              12 0000D9E0 00000001     C   74671 74485
 =C'Seq='      4 0000BA4C 00000001     C   64494 63907
 =C'Serial='
               7 0000C83A 00000001     C   68649 67145
 =C'Set link mode completed'
              23 00001A49 00000001     C   13526 11309
 =C'Started at '
              11 00000F44 00000001     C   10377  9478
 =C'SEQUENCE ERR'
              12 000037F0 00000001     C   22978 19804
 =C'SET TCPTRACE options are  LENGTH='
              33 00009368 00000001     C   52739 52292
 =C'SET_IP_FILTER:'
              14 0000D9F6 00000001     C   74676 71204
 =C'SET_READ_FILTER:'
              16 0000D8B0 00000001     C   74615 71123
 =C'SHOW HOSTS'
1AMELIA   Ordinary Symbol and Literal Cross Reference                                                                       Page  482
              10 0000E6AE 00000001     C   78018 77702
 =C'SHOW INFO'
               9 0000E73F 00000001     C   78032 77747
 =C'SHOW PATHS'
              10 0000E692 00000001     C   78016 77409
 =C'SHOW TCP ALL'
              12 0000E664 00000001     C   78008 77517
 =C'SHOW VERSION'
              12 00000ED4 00000001     C   10349  9460
 =C'SOA'       3 0000C808 00000001     C   68639 66290
 =C'SVC PSW addr = '
              15 0000E6D9 00000001     C   78026 76196
 =C'SYN '      4 0000BA44 00000001     C   64492 63852
 =C'Timeout during host name lookup'
              31 0000394F 00000001     C   23021 22457
 =C'Too many entries'
              16 00009050 00000001     C   52644 48915
 =C'Trace table entries'
              19 0000E6E8 00000001     C   78027 76567
 =C'Type='
               5 0000C7F8 00000001     C   68635 66115
 =C'TC'        2 0000C6F4 00000001     C   68597 64775
 =C'TCB '      4 00004A28 00000001     C   28824 25582
 =C'TCB '      4 00005FC0 00000001     C   35821 31959  33118  33363  33494  33694
 =C'TCB '      4 00009170 00000001     C   52701 52024
 =C'TCB at'
               6 0000AFCE 00000001     C   61057 60854
 =C'TCP checksum error  IPSRC='
              26 00004A9A 00000001     C   28853 25159
 =C'TCP connection killed'
              21 0000924A 00000001     C   52719 46662
 =C'TCP packet received:'
              20 0000AEDC 00000001     C   61031 59693
 =C'TCP packet sent:'
              16 0000AE58 00000001     C   61011 59724
 =C'TCP Connections'
              15 0000E730 00000001     C   78031 77477
 =C'TCP DATA LENGTH ERROR'
              21 00004B36 00000001     C   28861 28142
 =C'TCP ID='
               7 00003F2C 00000001     C   24921 24242
 =C'TCP ID='
               7 0000AFD4 00000001     C   61058 57173
 =C'TCP_'      4 00003EC0 00000001     C   24902 23393
 =C'TCP_'      4 0000D954 00000001     C   74638 70987
 =C'TCP_CONNECT'
              11 00006069 00000001     C   35852 34594
 =C'TCP_DATA:'
               9 00005156 00000001     C   31069 29610
 =C'TCP_DATA'
               8 0000AE68 00000001     C   61012 60734
 =C'TCP_INFO:'
               9 0000B097 00000001     C   61079 60259
 =C'TCP_LISTEN:'
              11 0000B0A0 00000001     C   61080 60392
 =C'TCP_OPEN:'
               9 0000B08E 00000001     C   61078 60245
 =C'TCP_START'
               9 00006074 00000001     C   35853 34627
1AMELIA   Ordinary Symbol and Literal Cross Reference                                                                       Page  483
 =C'TCP:  Dest='
              11 0000BB6D 00000001     C   64537 63632
 =C'TCP:  Max Segment Size = '
              25 0000BB78 00000001     C   64538 64152
 =C'TCP'       3 0000BB23 00000001     C   64529 62812
 =C'TCP'       3 0000C859 00000001     C   68654 67682
 =C'TIMEOUT'
               7 0000602E 00000001     C   35849 31216  33876  34092
 =C'TOO BIG'
               7 0000DA8C 00000001     C   74693 73877
 =C'TXT'       3 0000C816 00000001     C   68643 66525
 =C'U'         1 0000E6CB 00000001     C   78022 75899
 =C'Unknown host'
              12 00009124 00000001     C   52688 50423  50511
 =C'Unknown TCP connection id'
              25 00009231 00000001     C   52718 46631
 =C'UDP checksum error  IPSRC='
              26 00002AA8 00000001     C   19175 18210
 =C'UDP:  Dest='
              11 0000BB53 00000001     C   64535 63356
 =C'UDP'       3 0000BB26 00000001     C   64530 62859
 =C'UDP'       3 0000C856 00000001     C   68653 67636
 =C'UPATH block at'
              14 000091FA 00000001     C   52714 51368
 =C'URG '      4 0000BA38 00000001     C   64489 63744
 =C'WKS'       3 0000C80B 00000001     C   68640 66337
 =C'WRITE_IP:'
               9 0000DA35 00000001     C   74686 71165
 =C'WRITE_PACKET:'
              13 0000DA28 00000001     C   74685 71064
 =C'WRITELOG done'
              13 00009394 00000001     C   52741 52577
 =C'00 00 00 00'
              11 0000FA7F 00000001     C   83554 82400
 =C'00 00 00'
               8 0000F9A0 00000001     C   83501 82643
 =C'00 000'
               6 0000FA6C 00000001     C   83551 82931
 =C'0123456789ABCDEF'
              16 0000CBE8 00000001     C   69555 69229
 =CL(L'TOPNWERP)'ERROR:'
               7 00003924 00000001     C   23018 21876
 =CL16'BAD PARM LIST'
              16 00003718 00000001     C   22956 19309
 =CL16'DATA OVERFLOW'
              16 00003E98 00000001     C   24898 23630
 =CL16'DUPLICATE LISTEN'
              16 00003778 00000001     C   22962 20139
 =CL16'ERROR_PREV_REQ:'
              16 0000D8D0 00000001     C   74617 71392
 =CL16'GET_PORT:'
              16 0000D8C0 00000001     C   74616 71289
 =CL16'INVALID PORT'
              16 00003768 00000001     C   22961 20061
 =CL16'LISTEN NOT FOUND'
              16 000037A0 00000001     C   22965 20535
 =CL16'PARM ERROR'
              16 00003790 00000001     C   22964 20369
 =CL16'READ_IP:'
1AMELIA   Ordinary Symbol and Literal Cross Reference                                                                       Page  484
              16 00001960 00000001     C   13489 12312
 =CL16'READ_IP:'
              16 00001EF8 00000001     C   15138 14861
 =CL16'READ_PACKET:'
              16 00001950 00000001     C   13488 12254
 =CL16'READ_PACKET:'
              16 00001EE8 00000001     C   15137 14803
 =CL16'SEQUENCE ERROR'
              16 00003738 00000001     C   22958 19437
 =CL16'SEQUENCE ERROR'
              16 00003E88 00000001     C   24897 23139  23333  23580  24079  24602
 =CL16'TCP_ABORT:'
              16 00005F08 00000001     C   35801 32367
 =CL16'TCP_CLOSE:'
              16 00005F18 00000001     C   35802 32769
 =CL16'TCP_CONNECT:'
              16 000049C8 00000001     C   28809 27089
 =CL16'TCP_DATA:'
              16 000049D8 00000001     C   28810 28246
 =CL16'TCP_EOF:'
              16 000049E8 00000001     C   28811 28353
 =CL16'TCP_OPEN_INFO:'
              16 000037B8 00000001     C   22967 21632
 =CL16'TCP_START:'
              16 000050F8 00000001     C   31048 29503
 =CL16'TCP_STOP:'
              16 00003EA8 00000001     C   24899 23814
 =CL16'UNKNOWN ID'
              16 00003728 00000001     C   22957 19365
 =CL16'UNKNOWN MESSAGE'
              16 00003748 00000001     C   22959 19484
 =CL16'UNKNOWN MESSAGE'
              16 0000D8E0 00000001     C   74618 71419
 =CL20'ALL TCP PORTS IN USE'
              20 00003848 00000001     C   22990 20981
 =CL20'INVALID HOST NAME'
              20 00003888 00000001     C   22998 21565
 =CL20'LPORT IN USE'
              20 0000385C 00000001     C   22991 21238
 =CL20'MISSING HOST ID'
              20 00003830 00000001     C   22988 20882
 =CL20'MISSING OPTION'
              20 0000381C 00000001     C   22987 20853
 =CL20'UNKNOWN HOST'
              20 0000389C 00000001     C   22999 21581
 =CL24'Bad address'
              24 0000F968 00000001     C   83498 80089
 =CL24'Bad length parm'
              24 0000F938 00000001     C   83496 79897
 =CL24'Bad length'
              24 0000F980 00000001     C   83499 80118
 =CL24'Bad NSLFREE parm'
              24 000068E0 00000001     C   38706 38602
 =CL24'Bad TCB address'
              24 00005F28 00000001     C   35803 33126
 =CL24'Bad TCB chain'
              24 000049B0 00000001     C   28808 25590
 =CL24'Bad TCB chain'
              24 00005F70 00000001     C   35806 33705
1AMELIA   Ordinary Symbol and Literal Cross Reference                                                                       Page  485
 =CL24'Bad UPATH address'
              24 0000D878 00000001     C   74612 70375  70524  70907  71795  72075  72598  72918  73335
 =CL24'Buffer error'
              24 0000F950 00000001     C   83497 80051
 =CL24'Ethernet OPEN failed'
              24 000018E0 00000001     C   13483 10602  10626  10650
 =CL24'IP ADDR HASH Q ERROR'
              24 00005F58 00000001     C   35805 33502
 =CL24'Missing IP address'
              24 00000E78 00000001     C   10336  9606
 =CL24'NETCTRL error'
              24 000018F8 00000001     C   13484 11021
 =CL24'NETMASK not specified'
              24 00000E90 00000001     C   10337  9646
 =CL24'NETREAD error'
              24 00001938 00000001     C   13487 11911
 =CL24'NETWRITE error'
              24 00001970 00000001     C   13490 12680
 =CL24'NIT crosses page boundary'
              24 00000E48 00000001     C   10334  9342
 =CL24'NIT too big'
              24 00000E60 00000001     C   10335  9382
 =CL24'Packet too long'
              24 00001C20 00000001     C   14160 13658
 =CL24'Path logic error'
              24 0000D890 00000001     C   74613 70602  70649
 =CL24'PGFIX error'
              24 0000E5A0 00000001     C   77980 75368
 =CL24'TCBID HASH Q ERROR'
              24 00005F40 00000001     C   35804 33371
 =F'-1'        4 00006930 00000001     F   38719 37864
 =F'-1'        4 0000C6D0 00000001     F   68592 68347
 =F'-4'        4 00002A08 00000001     F   19134 15220  17195
 =F'-4'        4 0000D98C 00000001     F   74650 71613
 =F'-8'        4 0000F9D8 00000001     F   83509 79905  80967
 =F'100'       4 0000FA50 00000001     F   83539 83436
 =F'3'         4 0000FA2C 00000001     F   83530 82538  83227
 =F'60'        4 0000FA54 00000001     F   83540 83438  83444
 =F'7'         4 0000FA38 00000001     F   83533 82803
 =H'-1'        2 0000DA0C 00000001     H   74681 73626
 =H'-4'        2 0000DA08 00000001     H   74679 72296
 =H'-4'        2 00010108 00000001     H   86000 84923
 =H'0'         2 00010106 00000001     H   85999 84380  84381
 =H'10'        2 0000FA60 00000001     H   83545 80556  83329  83439  83445  83448
 =H'1000'      2 0000FA72 00000001     H   83552 83101
 =H'12'        2 0000FA5E 00000001     H   83544 80015
 =H'16'        2 0000D9F4 00000001     H   74675 71071  71172
 =H'16'        2 0000FA5A 00000001     H   83542 79906  79935
 =H'2'         2 0000EC80 00000001     H   79569 78344
 =H'2'         2 0000FA62 00000001     H   83546 81218
 =H'3'         2 0000FA68 00000001     H   83549 81743
 =H'31,28,31,30,31,30,31,31,30,31,30,31'
               2 0000F9A8 00000001     H   83502 83303
 =H'4'         2 00001F30 00000001     H   15150 14407  14476
 =H'4'         2 0000CC28 00000001     H   69568 68838
 =H'4'         2 0000DA0A 00000001     H   74680 72305
 =H'4'         2 0000FA5C 00000001     H   83543 79926  80099
 =H'7'         2 0000FA58 00000001     H   83541 79904
 =V(BTD)       4 00006900 00000001     V   38709 37191
1AMELIA   Ordinary Symbol and Literal Cross Reference                                                                       Page  486
 =V(BTD)       4 0000C6D4 00000001     V   68593 68428
 =V(BTD)       4 0000CC24 00000001     V   69567 69490
 =V(BTD)       4 0000FA24 00000001     V   83528 82375  82398  82529  82618  82641
 =V(BTD)       4 000100F0 00000001     V   85993 85558
 =V(BTR)       4 0000FA1C 00000001     V   83526 82347  82929
 =V(BTX)       4 0000BA00 00000001     V   64475 61497
 =V(BTX)       4 0000CBF8 00000001     V   69556 68788  69061  69100
 =V(BTX)       4 000100F4 00000001     V   85994 85679
 =V(DTB)       4 000090E8 00000001     V   52673 48097  48486  49439  49637
 =V(DTB)       4 0000EC74 00000001     V   79566 79424
 =V(DTB)       4 0000F9F8 00000001     V   83517 81676  81698
 =V(FMTXDATE)
               4 00000EE8 00000001     V   10352  9503
 =V(HEXSEG)
               4 000090F8 00000001     V   52677 48720
 =V(SCAN)      4 00003804 00000001     V   22981 20026  20736
 =V(SCAN)      4 00009080 00000001     V   52649 46119  46399  46434  46823  47797  48259  48363  48408  48525  49056
                                                 49208  49316  49361  49477  49679  50714  50845  51876
 =V(SCAN)      4 0000EC4C 00000001     V   79556 78722
 =V(SCINIT)
               4 00003800 00000001     V   22980 20007  20717
 =V(SCINIT)
               4 00007CB8 00000001     V   45939 44415
 =V(SCINIT)
               4 0000907C 00000001     V   52648 46098
 =V(SCINIT)
               4 0000EC48 00000001     V   79555 78703
 =V(XTB)       4 000090E4 00000001     V   52672 48067  48324  48456  49277  49409  49607
 =X'FFFF'      2 0000DA04 00000001     X   74677 71214
 =X'0F0F'      2 0000CC2A 00000001     X   69569 69228
 =X'0000001F'
               4 00001F08 00000001     X   15139 14317
 =X'00010203040506'
               7 00001A42 00000001     X   13525 10567
 =X'0200'      2 0000BA64 00000001     X   64501 61450
 =X'1001'      2 00001F2C 00000001     X   15148 14296
 =X'1002'      2 00001F2E 00000001     X   15149 14310
 =X'15'        1 00010111 00000001     X   86005 84245
 =X'2220'      2 0000E678 00000001     X   78011 76001
 =X'7F'        1 00001A60 00000001     X   13527 12705
 =X'80000000'
               4 00007338 00000001     X   42346 39681
 =XL12'00'
              12 0000D968 00000001     X   74643 71213  71217
 =XL4'FFFFF8'
               4 0000F9F4 00000001     X   83516 80733  83420
 =Y((R1+1-(R0)+16*((R0)/(R1+1))/((R0)/(R1+1)))*4)
               2 00009DAA 00000001     Y   55652 55409  55550
 =Y((R1+1-(R0)+16*((R0)/(R1+1))/((R0)/(R1+1)))*4)
               2 0000FA66 00000001     Y   83548 81480
 =Y((R1+1-(R14)+16*((R14)/(R1+1))/((R14)/(R1+1)))*4)
               2 00003902 00000001     Y   23015 22206
 =Y((R5+1-(R14)+16*((R14)/(R5+1))/((R14)/(R5+1)))*4)
               2 0000C77E 00000001     Y   68620 67887
 =Y((16+3)/4*4)
               2 00006964 00000001     Y   38733 37963
 =Y((16+3)/4*4)
               2 00007388 00000001     Y   42366 39065
 =Y((32+3)/4*4)
1AMELIA   Ordinary Symbol and Literal Cross Reference                                                                       Page  487
               2 00000F3E 00000001     Y   10374  9529
 =Y(ARPENET#)
               2 000063C4 00000001     Y   36920 36829
 =Y(ARPREP#)
               2 00002A9C 00000001     Y   19169 15475
 =Y(ARPREQ#)
               2 000063C8 00000001     Y   36922 36833
 =Y(ENETARP#)
               2 000063C2 00000001     Y   36919 36814
 =Y(ENETARP#)
               2 000091D0 00000001     Y   52711 48017
 =Y(ENETIP#)
               2 00002A9E 00000001     Y   19170 15702
 =Y(ENETIP#)
               2 000063C6 00000001     Y   36921 36830
 =Y(ENETIP#)
               2 000091CE 00000001     Y   52710 48014
 =Y(IPTCP#)
               2 00004A98 00000001     Y   28852 25095
 =Y(IPTCP#)
               2 00006024 00000001     Y   35846 31785
 =Y(IPUDP#)
               2 00002AA0 00000001     Y   19171 16200  18142
 =Y(IPUDP#)
               2 0000D9F0 00000001     Y   74673 69974
 =Y(L'ENETHDR)
               2 00002AA2 00000001     Y   19172 16524
 =Y(L'ENETHDR)
               2 0000BA66 00000001     Y   64502 61582
 =Y(L'ICMPHDR)
               2 0000BA76 00000001     Y   64508 63250
 =Y(L'TCBTRHDR)
               2 0000602C 00000001     Y   35848 35495
 =Y(L'TCBTRHDR)
               2 0000AF94 00000001     Y   61048 59613
 =Y(L'TCPHDR)
               2 00004AB6 00000001     Y   28855 25362
 =Y(L'TCPHDR)
               2 0000BA88 00000001     Y   64513 64097
 =Y(L'UDPHDR)
               2 0000738A 00000001     Y   42367 39158  39426  39448  39528
 =Y(L'UDPHDR)
               2 0000BA78 00000001     Y   64509 63449
 =Y(RR#ALL,NSM#IN)
               2 00006924 00000001     Y   38716 37508
 =Y(UDPNS#)
               2 00006962 00000001     Y   38732 37549  37550
 =Y(1)         2 00006960 00000001     Y   38731 37471
 =Y(13)        2 000073B0 00000001     Y   42374 40948
 =Y(16)        2 000038E4 00000001     Y   23012 19449  20231  20232  21378  21379
 =Y(16)        2 0000AFCC 00000001     Y   61056 60425  60467
 =Y(2)         2 0000FA64 00000001     Y   83547 81295
 =Y(20)        2 0000AFCA 00000001     Y   61055 60341
 =Y(4)         2 000038E6 00000001     Y   23013 19466  20675
 =Y(4)         2 00010104 00000001     Y   85998 83983
 =Y(5)         2 0000C77C 00000001     Y   68619 67749
 =Y(8)         2 00001A40 00000001     Y   13524 13144
 =Y(8)         2 0000D9F2 00000001     Y   74674 71031
 =6X'FF'       1 000063BC 00000001     X   36918 36812
1AMELIA   Ordinary Symbol and Literal Cross Reference                                                                       Page  488

1AMELIA   Macro and Copy Code Source Summary                                                                                Page  489
- Con Source                                        Volume    Members                        HLASM R4.0  2004/03/15 13.11
0     PRIMARY INPUT                                           BTD      BTR      BTX      CHECKSUM CSECT    DROP     DTB
                                                              END      EX       FAIL     HEXDUMP  IOB      IPHASH
                                                              LTORG    POP      PRINT    PROC     PTRACE   PUSH     SEG
                                                              SEGB     SEGBLANK SEGCB    SEGCLR   SEGCOL   SEGCR
                                                              SEGDC    SEGDEF   SEGHX    SEGINIT  SEGIP    SEGLD
                                                              SEGMARK  SEGT     SEGTB    SEGWR    START    TIDHASH
                                                              USING    XPROC    XTB
   L1 SYS3.IS.MACLIB                                SYSB05    DEFINE   DVTAREA  IPTCP    SYSDEFN  XPOP     XPUSH
   L2 WYL.GG.SYS.VSCN.MACLIB                        SYSB05    SCAN     SCANCB   SCINIT   SCKW     XCALL
   L3 WYL.GG.SYS.MACLIB                             SYSB05    $BC      $BFLKUP  $BV      $CCLKUP  $CRS     $CSS     $L
                                                              $LA      $LBLAD   $LEXP    $LOR     $REL     $RGLKUP
                                                              $USLKUP  ACALL    ADL      BASE     BEGIN    CEIL
                                                              CLEAR    CSECT    DATA     DECR     DEFCC    DEX      DROP
                                                              DTEX     ELSE     ELSEIF   END      EX       EXIT     FLAG
                                                              GEN      HIBAL    IDENT    IF       INCR     LABEL    LC
                                                              LCALL    LCM      LOOP     LS       LT       LTH
                                                              LTORG    L2       L3       L4       MOVE     MOVEL    PEND
                                                              POP      PRESTORE PRETURN  PRINT    PUSH     QLTORG
                                                              RECORD   REG      REGS     SDL      SET      SETMSG
                                                              START    ST3      ST4      SYSLR    USING    VCALL
                                                              WHILE    WITH
   L4 SYS3.MACLIB                                   SYSB02    HASPSERV PATH     PINFO    PRIVCHK  QSNAP    SCOM
   L5 SYS1.MACLIB                                   MVSBR9    ABEND    CLOSE    CVT      DCB      DCBD     DEVTYPE  DOM
                                                              ESTAE    EXCPVR   FREEMAIN FREEPOOL GET      GETMAIN
                                                              IEZDEB   IHASDWA  IHAVRA   IHBINNRA IHBINNRR IHB01
                                                              MODESET  OPEN     PGSER    POST     PUT      SETRP
                                                              SPLEVEL  STIMER   SYSEVENT SYSSTATE WAIT     WTO

1AMELIA   Dsect Cross Reference                                                                                             Page  490
-Dsect     Length      Id       Defn                                                         HLASM R4.0  2004/03/15 13.11
0$$$@R0   00000000  FFFFFFFF     775
 $$$@R1   00000000  FFFFFFFE     788
 $$$@R10  00000000  FFFFFFF5     905
 $$$@R11  00000000  FFFFFFF4     918
 $$$@R12  00000000  FFFFFFF3     931
 $$$@R13  00000000  FFFFFFF2     944
 $$$@R14  00000000  FFFFFFF1     957
 $$$@R15  00000000  FFFFFFF0     970
 $$$@R2   00000000  FFFFFFFD     801
 $$$@R3   00000000  FFFFFFFC     814
 $$$@R4   00000000  FFFFFFFB     827
 $$$@R5   00000000  FFFFFFFA     840
 $$$@R6   00000000  FFFFFFF9     853
 $$$@R7   00000000  FFFFFFF8     866
 $$$@R8   00000000  FFFFFFF7     879
 $$$@R9   00000000  FFFFFFF6     892
 $$$RADDHNTW
          0000020B  FFFFFFB5   42408
 $$$RARP  0000001C  FFFFFFD6    6851
 $$$RCLOOKUPW
          0000000A  FFFFFFB2   46725
 $$$RCMDWA
          000000F4  FFFFFFB3   45967
 $$$RCSETNSWA
          00000010  FFFFFFB0   48794
 $$$RCSETTRCW
          0000000C  FFFFFFAF   48999
 $$$RDEC  00000008  FFFFFF9A   80212
 $$$RDVTAREA
          00000018  FFFFFFD8    6742
 $$$RENETHDR
          0000000E  FFFFFFD7    6820
 $$$RFIXWA
          00000004  FFFFFF9E   75244
 $$$RFMTHSTW
          00000084  FFFFFFAA   55689
 $$$RFMTINFWK
          00000044  FFFFFFAB   52975
 $$$RFMTNSMWA
          0000031C  FFFFFFA7   64555
 $$$RFMTPWA
          00000015  FFFFFFA8   61104
 $$$RFMTTCBW
          00000020  FFFFFFA9   57080
 $$$RFRAG 00000010  FFFFFFBF   18409
 $$$RGETHNTWA
          00000100  FFFFFFB4   44946
 $$$RHNT  00000011  FFFFFFC8    7630
 $$$RHSTTABLE
          0000009C  FFFFFFC9    7585
 $$$RHXDWA
          0000005A  FFFFFFA5   68885
 $$$RHXSWA
          00000008  FFFFFFA6   68674
 $$$RHXWA 00000008  FFFFFF99   81115
1AMELIA   Dsect Cross Reference                                                                                             Page  491
 $$$RICMPHDR
          00000004  FFFFFFD2    7047
 $$$RINITWA
          000000FF  FFFFFF9D   78049
 $$$RIOB  00000021  FFFFFFEF    1525
 $$$RIPHDR
          00000014  FFFFFFD5    6891
 $$$RLPRDWA
          00000044  FFFFFFC2   14528
 $$$RNETRWA
          00000044  FFFFFFC4   11822
 $$$RNETTRLWA
          000005EA  FFFFFFC3   14190
 $$$RNSL  00000354  FFFFFFCC    7444
 $$$RNSLADHWA
          00000100  FFFFFFB6   40692
 $$$RNSLUPWA
          00000320  FFFFFFB7   40212
 $$$RNSMHDR
          0000000C  FFFFFFCE    7343
 $$$RNSRR 0000021C  FFFFFFCD    7411
 $$$RPCWA 00000108  FFFFFFB1   48137
 $$$RPINFO
          00000080  FFFFFFC5    8962
 $$$RPIWA 000000EC  FFFFFFA1   73220
 $$$RPMSGWA
          00000014  FFFFFFA3   70796
 $$$RPNUM 00000008  FFFFFFCB    7538
 $$$RPOPNWA
          00000004  FFFFFFA4   70272
 $$$RPRTWA
          0000000C  FFFFFF9F   74711
 $$$RPSGWA
          00000010  FFFFFFA2   72379
 $$$RPTHMWA
          00000024  FFFFFFA0   73991
 $$$RRCVNSMW
          00000320  FFFFFFB8   38753
 $$$RRTCPWORK
          00000061  FFFFFFBC   24938
 $$$RSCANPWA
          00000008  FFFFFF9C   78613
 $$$RSEGCB
          0000002C  FFFFFFEE    1676
 $$$RSENDRSTW
          00000014  FFFFFFBA   31447
 $$$RSHOWCORW
          00000001  FFFFFFAE   49135
 $$$RSHOWLOGW
          00000004  FFFFFFAD   50787
 $$$RSHOWTCPW
          0000000A  FFFFFFAC   51812
 $$$RSTCPWORK
          000005C8  FFFFFFBB   28890
 $$$RTCB  00000233  FFFFFFD1    7077
 $$$RTCBQHDR
          0000000C  FFFFFFCF    7298
 $$$RTCBTRHDR
          0000000C  FFFFFFD0    7270
1AMELIA   Dsect Cross Reference                                                                                             Page  492
 $$$RTCPHDR
          00000014  FFFFFFD3    6960
 $$$RTLSTWA
          0000008C  FFFFFFBE   19882
 $$$RTOPNWA
          000000BC  FFFFFFBD   20569
 $$$RTPORT
          00000010  FFFFFFCA    7561
 $$$RTRCENTRY
          00000050  FFFFFFC7    8641
 $$$RUDPHDR
          00000008  FFFFFFD4    6933
 $$$RUNPRWA
          00000004  FFFFFF98   83575
 $$$RUPATH
          000001A0  FFFFFFC6    8771
 $$$RWA   00000031  FFFFFF9B   80183
 $$$RXMITIPW
          00000022  FFFFFFC1   15568
 $$$RXMITTCPW
          00000020  FFFFFFB9   31679
 $$$RXMITUDPW
          00000020  FFFFFFC0   16094
 CVT      00000500  FFFFFFED    1987
 CVTVSTGX 00000050  FFFFFFEC    3007
 CVTXTNT1 0000000C  FFFFFFEB    3046
 CVTXTNT2 00000084  FFFFFFEA    3054
 DEB      00000058  FFFFFFDF    5113
 DEBACSMD 00000044  FFFFFFDD    5709
 DEBDASD  00000010  FFFFFFDE    5677
 DEBSUBNM 00000002  FFFFFFDC    5911
 DEBXTN   00000054  FFFFFFDB    5924
 DEB2XTN  000000B8  FFFFFFDA    6122
 IHADCB   00000060  FFFFFFD9    6177
 SDWA     00000298  FFFFFFE9    3372
 SDWANRC1 000000F0  FFFFFFE3    4340
 SDWANRC2 00000010  FFFFFFE2    4349
 SDWANRC3 000000F0  FFFFFFE1    4362
 SDWAPTRS 00000020  FFFFFFE4    4325
 SDWARC1  000001C8  FFFFFFE8    4013
 SDWARC2  00000010  FFFFFFE7    4232
 SDWARC3  00000020  FFFFFFE6    4244
 SDWARC4  00000150  FFFFFFE5    4294
 VRAMAP   00000002  FFFFFFE0    4515

1AMELIA   Using Map                                                                                                         Page  493
-                                                                                            HLASM R4.0  2004/03/15 13.11
   Stmt  -----Location----- Action ----------------Using----------------- Reg Max    Last  Label and Using Text
           Count      Id           Type          Value    Range     Id        Disp   Stmt
0   992  00000000  00000001 USING  ORDINARY    00000000 00001000 FFFFFFF0  15 000          @R15,15
    996  00000000  00000001 USING  ORDINARY    00000000 00001000 FFFFFFF1  14 002   12978  @R14,14
   1000  00000000  00000001 USING  ORDINARY    00000000 00001000 FFFFFFF2  13 007   83111  @R13,13
   1004  00000000  00000001 USING  ORDINARY    00000000 00001000 FFFFFFF3  12 000          @R12,12
   1008  00000000  00000001 USING  ORDINARY    00000000 00001000 FFFFFFF4  11 000          @R11,11
   1012  00000000  00000001 USING  ORDINARY    00000000 00001000 FFFFFFF5  10 000          @R10,10
   1016  00000000  00000001 USING  ORDINARY    00000000 00001000 FFFFFFF6   9 000          @R9,9
   1020  00000000  00000001 USING  ORDINARY    00000000 00001000 FFFFFFF7   8 000          @R8,8
   1024  00000000  00000001 USING  ORDINARY    00000000 00001000 FFFFFFF8   7 000          @R7,7
   1028  00000000  00000001 USING  ORDINARY    00000000 00001000 FFFFFFF9   6 000    9567  @R6,6
   1032  00000000  00000001 USING  ORDINARY    00000000 00001000 FFFFFFFA   5 000          @R5,5
   1036  00000000  00000001 USING  ORDINARY    00000000 00001000 FFFFFFFB   4 001    9777  @R4,4
   1040  00000000  00000001 USING  ORDINARY    00000000 00001000 FFFFFFFC   3 000          @R3,3
   1044  00000000  00000001 USING  ORDINARY    00000000 00001000 FFFFFFFD   2 000          @R2,2
   1048  00000000  00000001 USING  ORDINARY    00000000 00001000 FFFFFFFE   1 000          @R1,1
   1052  00000000  00000001 USING  ORDINARY    00000000 00001000 FFFFFFFF   0 000          @R0,0
   1053  00000000  00000001 DROP                                            0              0
   8081  00000410  00000001 USING  ORDINARY    00000000 00001000 FFFFFFD9   1 052    8160  DCB,R1
   8092  00000410  00000001 USING  ORDINARY    00000410 00001000 00000001  15 408    8160  $$$20B,R15
   8176  00000442  00000001 USING  ORDINARY    00000000 00001000 FFFFFFF0  15 000          @R15,15
   8181  00000442  00000001 USING  ORDINARY    00000000 00001000 FFFFFFFE   1 003    8247  @R1,1
   8241  000004A8  00000001 USING  ORDINARY    000004A8 00001000 00000001  15 000          $$$25B,R15
   8255  000004AE  00000001 USING  ORDINARY    00000000 00001000 FFFFFFF0  15 000          @R15,15
   8670  0000081A  00000001 USING  ORDINARY    00000000 00001000 00000001  12 84E    8731  NIT,NITR
   8724  0000083A  00000001 USING  ORDINARY    00000000 00001000 FFFFFFC7  15 048    8731  TRCENTRY,R15
   8737  0000084E  00000001 USING  ORDINARY    00000000 00001000 FFFFFFF0  15 000          @R15,15
   8748  00000852  00000001 USING  ORDINARY    00000000 00001000 FFFFFFF3  12 000          @R12,12
   9138  000009FA  00000001 USING  ORDINARY    000009FA 00001000 00000001  11 A00   10123  $$$42B,11
   9150  00000A00  00000001 USING  ORDINARY    00000000 00001000 00000001  12 81A   85627  NIT,NITR
   9430  00000B82  00000001 USING  ORDINARY    00000000 00001000 FFFFFFD9   2 000          DCB,R2
   9455  00000B98  00000001 USING  ORDINARY    00000000 00001000 FFFFFFFD   2 002    9580  @R2,2
   9762  00000CAA  00000001 USING  ORDINARY    00000000 00001000 FFFFFFCB   3 008    9778  PNUM,R3
   9786  00000CC6  00000001 USING  ORDINARY    00000000 00001000 FFFFFFFC   3 000          @R3,3
   9802  00000CCE  00000001 USING  ORDINARY    00000000 00001000 FFFFFFCB   3 000    9814  PNUM,R3
   9821  00000CD4  00000001 USING  ORDINARY    00000000 00001000 FFFFFFFC   3 006   14446  @R3,3
  10034  00000D72  00000001 USING  ORDINARY    00000000 00001000 FFFFFFC6   1 00C   10050  UPATH,R1
  10069  00000D86  00000001 USING  ORDINARY    00000000 00001000 FFFFFFFE   1 5EC   10455  @R1,1
  10133  00000DB6  00000001 USING  ORDINARY    00000000 00001000 FFFFFFF4  11 000          @R11,11
  10173  00000DDA  00000001 USING  ORDINARY    00000DDA 00001000 00000001  11 15E   10259  $$$71B,11
  10273  00000E22  00000001 USING  ORDINARY    00000000 00001000 FFFFFFF4  11 000          @R11,11
  10302  00000E30  00000001 USING  ORDINARY    00000E30 00001000 00000001  15 078   10309  TIMREXIT,R15
  10324  00000E46  00000001 USING  ORDINARY    00000000 00001000 FFFFFFF0  15 000   22913  @R15,15
  10422  00000F74  00000001 USING  ORDINARY    00000F74 00001000 00000001  11 ACE   10662  $$$77B,11
  10477  00000FAA  00000001 DROP                                            1              1
  10481  00000FB0  00000001 USING  ORDINARY    00000000 00001000 FFFFFFFE   1 000          @R1,1
  10489  00000FB8  00000001 DROP                                            1              1
  10493  00000FBE  00000001 USING  ORDINARY    00000000 00001000 FFFFFFFE   1 000          @R1,1
  10501  00000FC6  00000001 DROP                                            1              1
  10505  00000FCC  00000001 USING  ORDINARY    00000000 00001000 FFFFFFFE   1 000          @R1,1
  10513  00000FD4  00000001 DROP                                            1              1
  10517  00000FDA  00000001 USING  ORDINARY    00000000 00001000 FFFFFFFE   1 000   11996  @R1,1
  10675  0000105E  00000001 USING  ORDINARY    00000000 00001000 FFFFFFF4  11 000          @R11,11
  10734  00001090  00000001 USING  ORDINARY    00001090 00001000 00000001  11 900   10870  $$$88B,11
1AMELIA   Using Map                                                                                                         Page  494
  10753  00001092  00000001 USING  ORDINARY    00000000 00001000 FFFFFFD9   5 030   10878  DCB,R5
  10799  000010A6  00000001 USING  ORDINARY    00000000 00001000 FFFFFFD8   4 000   10810  DVTAREA,R4
  10890  000010FA  00000001 USING  ORDINARY    00000000 00001000 FFFFFFFB   4 000          @R4,4
  10895  000010FA  00000001 USING  ORDINARY    00000000 00001000 FFFFFFFA   5 002   12450  @R5,5
  10900  000010FA  00000001 USING  ORDINARY    00000000 00001000 FFFFFFF4  11 000          @R11,11
  10954  0000112C  00000001 USING  ORDINARY    0000112C 00001000 00000001  11 91D   11697  $$$96B,11
  11037  00001152  00000001 DROP                                            2              2
  11041  00001158  00000001 USING  ORDINARY    00000000 00001000 FFFFFFFD   2 000          @R2,2
  11178  000011F6  00000001 DROP                                            2              2
  11182  000011FC  00000001 USING  ORDINARY    00000000 00001000 FFFFFFFD   2 000   11491  @R2,2
  11709  0000139C  00000001 USING  ORDINARY    00000000 00001000 FFFFFFF4  11 000          @R11,11
  11762  000013CE  00000001 USING  ORDINARY    000013CE 00001000 00000001  11 014   11785  $$$125B,11
  11799  000013EC  00000001 USING  ORDINARY    00000000 00001000 FFFFFFF4  11 000          @R11,11
  11875  0000141E  00000001 USING  ORDINARY    0000141E 00001000 00000001  11 620   12555  $$$128B,11
  11889  0000141E  00000001 USING  ORDINARY    FFFFFFC8 00001000 FFFFFFC4   9 03C   12387  NETRWA-(4+52),R9
  12103  000014D8  00000001 USING  ORDINARY    00000000 00001000 FFFFFFD7   1 006   12135  ENETHDR,R1
  12150  000014EA  00000001 USING  ORDINARY    00000000 00001000 FFFFFFFE   1 00E   12352  @R1,1
  12175  000014F8  00000001 USING  ORDINARY    00000000 00001000 FFFFFFC6   6 0D4   12248  UPATH,R6
  12393  00001584  00000001 USING  ORDINARY    00000000 00001000 FFFFFFF9   6 006   12952  @R6,6
  12460  000015B0  00000001 USING  ORDINARY    00000000 00001000 FFFFFFD7   1 00C   12511  ENETHDR,R1
  12568  000015F0  00000001 USING  ORDINARY    00000000 00001000 FFFFFFFE   1 000   12821  @R1,1
  12573  000015F0  00000001 USING  ORDINARY    00000000 00001000 FFFFFFF6   9 000          @R9,9
  12578  000015F0  00000001 USING  ORDINARY    00000000 00001000 FFFFFFF4  11 000          @R11,11
  12632  00001622  00000001 USING  ORDINARY    00001622 00001000 00000001  11 43E   13034  $$$153B,11
  13059  000017A8  00000001 USING  ORDINARY    00000000 00001000 FFFFFFF4  11 000          @R11,11
  13113  000017DA  00000001 USING  ORDINARY    000017DA 00001000 00000001  11 29A   13448  $$$170B,11
  13132  000017DC  00000001 USING  ORDINARY    00000000 00001000 FFFFFFEF   6 011   13402  IOB,R6
  13139  000017DC  00000001 DROP                                            2              2
  13143  000017E2  00000001 USING  ORDINARY    00000000 00001000 FFFFFFFD   2 006   13669  @R2,2
  13292  00001858  00000001 DROP                                            1              1
  13296  0000185E  00000001 USING  ORDINARY    00000000 00001000 FFFFFFFE   1 000          @R1,1
  13342  0000187E  00000001 DROP                                            1              1
  13346  00001884  00000001 USING  ORDINARY    00000000 00001000 FFFFFFFE   1 000          @R1,1
  13456  000018CC  00000001 USING  ORDINARY    00000000 00001000 FFFFFFF9   6 000          @R6,6
  13461  000018CC  00000001 USING  ORDINARY    00000000 00001000 FFFFFFF4  11 000          @R11,11
  13579  00001AA0  00000001 USING  ORDINARY    00001AA0 00001000 00000001  11 1A4   13891  $$$176B,11
  13601  00001AA6  00000001 USING  ORDINARY    00000000 00001000 FFFFFFEE   5 000   13614  SEGCB,R5
  13718  00001AEE  00000001 USING  ORDINARY    00000000 00001000 FFFFFFD7   1 000   13723  ENETHDR,R1
  13730  00001AF4  00000001 USING  ORDINARY    00000000 00001000 FFFFFFFE   1 000          @R1,1
  13904  00001B66  00000001 USING  ORDINARY    00000000 00001000 FFFFFFFA   5 004   14977  @R5,5
  13909  00001B66  00000001 USING  ORDINARY    00000000 00001000 FFFFFFF4  11 000          @R11,11
  13962  00001B98  00000001 USING  ORDINARY    00001B98 00001000 00000001  11 0D9   14126  $$$192B,11
  14083  00001BF2  00000001 DROP                                            1              1
  14087  00001BF8  00000001 USING  ORDINARY    00000000 00001000 FFFFFFFE   1 000          @R1,1
  14138  00001C10  00000001 USING  ORDINARY    00000000 00001000 FFFFFFF4  11 000          @R11,11
  14242  00001CB6  00000001 USING  ORDINARY    00001CB6 00001000 00000001  11 282   14476  $$$198B,11
  14256  00001CB6  00000001 USING  ORDINARY    FFFFFFC8 00001000 FFFFFFC3   9 038   14471  NETTRLWA-(4+52),R9
  14271  00001CBE  00000001 USING  ORDINARY    00000000 00001000 FFFFFFD7   4 00E   14450  ENETHDR,R4
  14325  00001CE4  00000001 DROP                                            1              1
  14329  00001CEA  00000001 USING  ORDINARY    00000000 00001000 FFFFFFFE   1 00E   14901  @R1,1
  14402  00001D28  00000001 DROP                                            6              6
  14406  00001D2E  00000001 USING  ORDINARY    00000000 00001000 FFFFFFF9   6 000          @R6,6
  14494  00001D6C  00000001 USING  ORDINARY    00000000 00001000 FFFFFFFB   4 000          @R4,4
  14499  00001D6C  00000001 USING  ORDINARY    00000000 00001000 FFFFFFF6   9 000          @R9,9
  14504  00001D6C  00000001 USING  ORDINARY    00000000 00001000 FFFFFFF4  11 000          @R11,11
  14581  00001D9E  00000001 USING  ORDINARY    00001D9E 00001000 00000001  11 1B8   15101  $$$205B,11
  14595  00001D9E  00000001 USING  ORDINARY    FFFFFFC8 00001000 FFFFFFC2   9 03C   14936  LPRDWA-(4+52),R9
  14661  00001DC2  00000001 USING  ORDINARY    00000000 00001000 FFFFFFC6   6 0D4   14797  UPATH,R6
  14942  00001E6A  00000001 USING  ORDINARY    00000000 00001000 FFFFFFF9   6 000          @R6,6
1AMELIA   Using Map                                                                                                         Page  495
  14987  00001E8E  00000001 USING  ORDINARY    00000000 00001000 FFFFFFD7   1 00C   15039  ENETHDR,R1
  15059  00001EB2  00000001 USING  ORDINARY    00000000 00001000 FFFFFFFE   1 000   15065  @R1,1
  15110  00001ED6  00000001 USING  ORDINARY    00000000 00001000 FFFFFFF6   9 000          @R9,9
  15115  00001ED6  00000001 USING  ORDINARY    00000000 00001000 FFFFFFF4  11 000          @R11,11
  15203  00001F80  00000001 USING  ORDINARY    00001F80 00001000 00000001  11 B1C   15506  $$$224B,11
  15248  00001F98  00000001 USING  ORDINARY    00000000 00001000 FFFFFFD7   6 00E   15477  ENETHDR,R6
  15262  00001F9C  00000001 USING  ORDINARY    00000000 00001000 FFFFFFD6   5 018   15481  ARP,R5
  15365  00001FD0  00000001 USING  ORDINARY    00000000 00001000 FFFFFFC9   4 010   15451  HSTTABLE,R4
  15522  0000205E  00000001 USING  ORDINARY    00000000 00001000 FFFFFFFB   4 000          @R4,4
  15527  0000205E  00000001 USING  ORDINARY    00000000 00001000 FFFFFFFA   5 000          @R5,5
  15532  0000205E  00000001 USING  ORDINARY    00000000 00001000 FFFFFFF9   6 000          @R6,6
  15537  0000205E  00000001 USING  ORDINARY    00000000 00001000 FFFFFFF4  11 000          @R11,11
  15621  00002090  00000001 USING  ORDINARY    00002090 00001000 00000001  11 A0E   16024  $$$236B,11
  15635  00002090  00000001 USING  ORDINARY    FFFFFFC8 00001000 FFFFFFC1   9 046   15807  XMITIPW-(4+52),R9
  15655  0000209E  00000001 USING  ORDINARY    00000000 00001000 FFFFFFD5   5 010   15997  IPHDR,R5
  15698  000020CC  00000001 USING  ORDINARY    00000000 00001000 FFFFFFD7   2 00C   15702  ENETHDR,R2
  15708  000020DC  00000001 USING  ORDINARY    00000000 00001000 FFFFFFFD   2 000          @R2,2
  15895  0000215A  00000001 USING  ORDINARY    00000000 00001000 FFFFFFC9   1 038   16041  HSTTABLE,R1
  16052  000021DE  00000001 USING  ORDINARY    00000000 00001000 FFFFFFFE   1 004   20823  @R1,1
  16057  000021DE  00000001 USING  ORDINARY    00000000 00001000 FFFFFFFA   5 000          @R5,5
  16062  000021DE  00000001 USING  ORDINARY    00000000 00001000 FFFFFFF6   9 000          @R9,9
  16067  000021DE  00000001 USING  ORDINARY    00000000 00001000 FFFFFFF4  11 000          @R11,11
  16147  00002210  00000001 USING  ORDINARY    00002210 00001000 00000001  11 890   16270  $$$250B,11
  16161  00002210  00000001 USING  ORDINARY    FFFFFFC8 00001000 FFFFFFC0   9 056   16249  XMITUDPW-(4+52),R9
  16182  00002218  00000001 USING  ORDINARY    00000000 00001000 FFFFFFD4   2 006   16245  UDPHDR,R2
  16259  0000225C  00000001 USING  ORDINARY    00000000 00001000 FFFFFFD5   5 010   16265  IPHDR,R5
  16278  00002272  00000001 USING  ORDINARY    00000000 00001000 FFFFFFFA   5 000          @R5,5
  16283  00002272  00000001 USING  ORDINARY    00000000 00001000 FFFFFFFD   2 00A   18143  @R2,2
  16288  00002272  00000001 USING  ORDINARY    00000000 00001000 FFFFFFF6   9 000          @R9,9
  16293  00002272  00000001 USING  ORDINARY    00000000 00001000 FFFFFFF4  11 000          @R11,11
  16349  000022A4  00000001 USING  ORDINARY    000022A4 00001000 00000001  11 839   17075  $$$253B,11
  16369  000022A8  00000001 USING  ORDINARY    00000000 00001000 FFFFFFD7   7 00E   16824  ENETHDR,R7
  16383  000022AC  00000001 USING  ORDINARY    00000000 00001000 FFFFFFD5   5 010   17072  IPHDR,R5
  16820  000023DC  00000001 USING  ORDINARY    00000000 00001000 FFFFFFC9   3 034   17044  HSTTABLE,R3
  17089  000024CA  00000001 USING  ORDINARY    00000000 00001000 FFFFFFFC   3 000          @R3,3
  17094  000024CA  00000001 USING  ORDINARY    00000000 00001000 FFFFFFFA   5 000          @R5,5
  17099  000024CA  00000001 USING  ORDINARY    00000000 00001000 FFFFFFF8   7 000          @R7,7
  17104  000024CA  00000001 USING  ORDINARY    00000000 00001000 FFFFFFF4  11 000          @R11,11
  17161  000024FC  00000001 USING  ORDINARY    000024FC 00001000 00000001  11 633   17906  $$$276B,11
  17223  0000251C  00000001 USING  ORDINARY    00000000 00001000 FFFFFFD5   6 010   17640  IPHDR,R6
  17261  00002536  00000001 USING  ORDINARY    00000000 00001000 FFFFFFD2   4 008   17905  ICMPHDR,R4
  17550  000025E2  00000001 USING  ORDINARY    00000000 00001000 FFFFFFD3   3 004   17670  TCPHDR,R3
  17606  0000260A  00000001 USING  ORDINARY    00000000 00001000 FFFFFFD1   8 230   17911  TCB,TCBR
  17932  000026B4  00000001 USING  ORDINARY    00000000 00001000 FFFFFFF7   8 000          @R8,8
  17937  000026B4  00000001 USING  ORDINARY    00000000 00001000 FFFFFFFC   3 002   25411  @R3,3
  17942  000026B4  00000001 USING  ORDINARY    00000000 00001000 FFFFFFFB   4 000          @R4,4
  17947  000026B4  00000001 USING  ORDINARY    00000000 00001000 FFFFFFF9   6 000          @R6,6
  17952  000026B4  00000001 USING  ORDINARY    00000000 00001000 FFFFFFF4  11 000          @R11,11
  18011  000026E6  00000001 USING  ORDINARY    000026E6 00001000 00000001  11 3C2   18348  $$$301B,11
  18030  000026E8  00000001 USING  ORDINARY    00000000 00001000 FFFFFFD5   6 010   18344  IPHDR,R6
  18049  000026FC  00000001 USING  ORDINARY    00000000 00001000 FFFFFFD4   4 006   18345  UDPHDR,R4
  18360  000027DC  00000001 USING  ORDINARY    00000000 00001000 FFFFFFFB   4 000          @R4,4
  18365  000027DC  00000001 USING  ORDINARY    00000000 00001000 FFFFFFF9   6 000          @R6,6
  18370  000027DC  00000001 USING  ORDINARY    00000000 00001000 FFFFFFF4  11 000          @R11,11
  18467  0000280E  00000001 USING  ORDINARY    0000280E 00001000 00000001  11 27E   18937  $$$310B,11
  18486  00002810  00000001 USING  ORDINARY    00000000 00001000 FFFFFFD5   7 00C   18861  IPHDR,R7
  18493  00002810  00000001 DROP                                            6              6
  18497  00002816  00000001 USING  ORDINARY    00000000 00001000 FFFFFFF9   6 000          @R6,6
  18514  00002826  00000001 USING  ORDINARY    00000000 00001000 FFFFFFBF   4 01C   18905  FRAG,R4
1AMELIA   Using Map                                                                                                         Page  496
  18956  00002970  00000001 USING  ORDINARY    00000000 00001000 FFFFFFFB   4 018   19804  @R4,4
  18961  00002970  00000001 USING  ORDINARY    00000000 00001000 FFFFFFF8   7 000          @R7,7
  18966  00002970  00000001 USING  ORDINARY    00000000 00001000 FFFFFFF4  11 000          @R11,11
  19021  000029A2  00000001 USING  ORDINARY    000029A2 00001000 00000001  11 0EE   19098  $$$334B,11
  19040  000029A6  00000001 USING  ORDINARY    00000000 00001000 FFFFFFBF   2 018   19088  FRAG,R2
  19106  000029D6  00000001 USING  ORDINARY    00000000 00001000 FFFFFFFD   2 010   21079  @R2,2
  19111  000029D6  00000001 USING  ORDINARY    00000000 00001000 FFFFFFF4  11 000          @R11,11
  19202  00002B3E  00000001 USING  ORDINARY    00000000 00001000 FFFFFFD1   8 232   35583  TCB,TCBR
  19238  00002B62  00000001 USING  ORDINARY    00002B62 00001000 00000001  11 DBB   19815  $$$340B,11
  19604  00002C72  00000001 USING  ORDINARY    00000000 00001000 FFFFFFC6   5 036   19681  UPATH,R5
  19826  00002D0C  00000001 USING  ORDINARY    00000000 00001000 FFFFFFFA   5 000          @R5,5
  19836  00002D0C  00000001 USING  ORDINARY    00000000 00001000 FFFFFFF4  11 000          @R11,11
  19938  00002E90  00000001 USING  ORDINARY    00002E90 00001000 00000001  11 AF4   20369  $$$361B,11
  19952  00002E90  00000001 USING  ORDINARY    FFFFFFC8 00001000 FFFFFFBE   9 04C   20366  TLSTWA-(4+52),R9
  20376  00002FEE  00000001 USING  ORDINARY    00000000 00001000 FFFFFFF6   9 000          @R9,9
  20381  00002FEE  00000001 USING  ORDINARY    00000000 00001000 FFFFFFF4  11 000          @R11,11
  20439  00003020  00000001 USING  ORDINARY    00003020 00001000 00000001  11 7F4   20535  $$$381B,11
  20542  0000305E  00000001 USING  ORDINARY    00000000 00001000 FFFFFFF4  11 000          @R11,11
  20646  00003090  00000001 USING  ORDINARY    00003090 00001000 00000001  11 906   22206  $$$389B,11
  20660  00003090  00000001 USING  ORDINARY    FFFFFFC8 00001000 FFFFFFBD   9 0F3   22204  TOPNWA-(4+52),R9
  21486  000032D2  00000001 USING  ORDINARY    00000000 00001000 FFFFFFCC   1 04C   21526  NSL,R1
  21591  0000331E  00000001 USING  ORDINARY    00000000 00001000 FFFFFFFE   1 004   25438  @R1,1
  22216  0000352A  00000001 USING  ORDINARY    00000000 00001000 FFFFFFF6   9 000          @R9,9
  22221  0000352A  00000001 USING  ORDINARY    00000000 00001000 FFFFFFF4  11 000          @R11,11
  22276  0000355C  00000001 USING  ORDINARY    0000355C 00001000 00000001  11 412   22601  $$$453B,11
  22295  0000355E  00000001 USING  ORDINARY    00000000 00001000 FFFFFFCC   6 04C   22527  NSL,R6
  22613  0000362E  00000001 USING  ORDINARY    00000000 00001000 FFFFFFF9   6 000          @R6,6
  22618  0000362E  00000001 USING  ORDINARY    00000000 00001000 FFFFFFF4  11 000          @R11,11
  22676  00003660  00000001 USING  ORDINARY    00003660 00001000 00000001  11 274   22917  $$$470B,11
  22722  00003676  00000001 USING  ORDINARY    00000000 00001000 FFFFFFC8   2 00D   22875  HNT,R2
  22929  0000370A  00000001 USING  ORDINARY    00000000 00001000 FFFFFFFD   2 000          @R2,2
  22934  0000370A  00000001 USING  ORDINARY    00000000 00001000 FFFFFFF4  11 000          @R11,11
  23066  000039C0  00000001 USING  ORDINARY    000039C0 00001000 00000001  11 4FC   23165  $$$483B,11
  23181  000039F6  00000001 USING  ORDINARY    00000000 00001000 FFFFFFF4  11 000          @R11,11
  23243  00003A28  00000001 USING  ORDINARY    00003A28 00001000 00000001  11 49C   23417  $$$491B,11
  23378  00003A6E  00000001 USING  ORDINARY    00000000 00001000 FFFFFFCF   2 01C   23404  TCBQHDR,R2
  23410  00003A82  00000001 USING  ORDINARY    00000000 00001000 FFFFFFFD   2 000          @R2,2
  23430  00003A8E  00000001 USING  ORDINARY    00000000 00001000 FFFFFFF4  11 000          @R11,11
  23490  00003AC0  00000001 USING  ORDINARY    00003AC0 00001000 00000001  11 430   23891  $$$502B,11
  23651  00003B2C  00000001 USING  ORDINARY    00000000 00001000 FFFFFFCF   4 00C   23703  TCBQHDR,R4
  23732  00003B78  00000001 USING  ORDINARY    00000000 00001000 FFFFFFC9  15 040   23738  HSTTABLE,R15
  23744  00003B82  00000001 USING  ORDINARY    00000000 00001000 FFFFFFF0  15 000          @R15,15
  23909  00003BEA  00000001 USING  ORDINARY    00000000 00001000 FFFFFFFB   4 000          @R4,4
  23914  00003BEA  00000001 USING  ORDINARY    00000000 00001000 FFFFFFF4  11 000          @R11,11
  23971  00003C1C  00000001 USING  ORDINARY    00003C1C 00001000 00000001  11 2D4   24098  $$$516B,11
  24110  00003C5E  00000001 USING  ORDINARY    00000000 00001000 FFFFFFF4  11 000          @R11,11
  24162  00003C90  00000001 USING  ORDINARY    00003C90 00001000 00000001  11 29C   24309  $$$524B,11
  24322  00003D08  00000001 USING  ORDINARY    00000000 00001000 FFFFFFF4  11 000          @R11,11
  24376  00003D3A  00000001 USING  ORDINARY    00003D3A 00001000 00000001  11 1EE   24602  $$$531B,11
  24614  00003DB2  00000001 USING  ORDINARY    00000000 00001000 FFFFFFF4  11 000          @R11,11
  24670  00003DE4  00000001 USING  ORDINARY    00003DE4 00001000 00000001  11 000          $$$545B,11
  24695  00003DF8  00000001 USING  ORDINARY    00000000 00001000 FFFFFFF4  11 000          @R11,11
  24747  00003E2A  00000001 USING  ORDINARY    00003E2A 00001000 00000001  11 00C   24769  $$$548B,11
  24794  00003E38  00000001 USING  ORDINARY    00000000 00001000 FFFFFFF4  11 000          @R11,11
  24846  00003E6A  00000001 USING  ORDINARY    00003E6A 00001000 00000001  11 05A   24864  $$$552B,11
  24876  00003E76  00000001 USING  ORDINARY    00000000 00001000 FFFFFFF4  11 000          @R11,11
  25009  00003F58  00000001 USING  ORDINARY    00003F58 00001000 00000001  11 BF4   28762  $$$555B,11
  25023  00003F58  00000001 USING  ORDINARY    FFFFFFC8 00001000 FFFFFFBC   9 098   28713  RTCPWORK-(4+52),R9
  25052  00003F64  00000001 USING  ORDINARY    00000000 00001000 FFFFFFD5   5 010   28759  IPHDR,R5
1AMELIA   Using Map                                                                                                         Page  497
  25072  00003F7A  00000001 USING  ORDINARY    00000000 00001000 FFFFFFD3   6 014   28744  TCPHDR,R6
  26000  000041E6  00000001 DROP                                            1              1
  26004  000041EC  00000001 USING  ORDINARY    00000000 00001000 FFFFFFFE   1 000          @R1,1
  26218  000042CC  00000001 USING  ORDINARY    00000000 00001000 FFFFFFCC   1 044   26229  NSL,R1
  26239  000042DE  00000001 USING  ORDINARY    00000000 00001000 FFFFFFFE   1 004   33152  @R1,1
  26311  0000430C  00000001 USING  ORDINARY    00000000 00001000 FFFFFFC9   2 044   26400  HSTTABLE,R2
  26410  00004360  00000001 USING  ORDINARY    00000000 00001000 FFFFFFFD   2 000          @R2,2
  27310  000045B4  00000001 USING  ORDINARY    00000000 00001000 FFFFFFC9  15 05C   27317  HSTTABLE,R15
  27324  000045BC  00000001 USING  ORDINARY    00000000 00001000 FFFFFFF0  15 000          @R15,15
  27424  00004602  00000001 USING  ORDINARY    00000000 00001000 FFFFFFC9   2 054   27496  HSTTABLE,R2
  27510  00004654  00000001 USING  ORDINARY    00000000 00001000 FFFFFFFD   2 000          @R2,2
  27721  000046D8  00000001 USING  ORDINARY    00000000 00001000 FFFFFFCF   2 00C   27790  TCBQHDR,R2
  27818  00004734  00000001 USING  ORDINARY    00000000 00001000 FFFFFFFD   2 000   28201  @R2,2
  28220  00004830  00000001 USING  ORDINARY    00000000 00001000 FFFFFFC9  15 03C   28226  HSTTABLE,R15
  28232  0000483A  00000001 USING  ORDINARY    00000000 00001000 FFFFFFF0  15 000   33494  @R15,15
  28555  00004902  00000001 USING  ORDINARY    00000000 00001000 FFFFFFCF   2 00C   28576  TCBQHDR,R2
  28593  00004920  00000001 USING  ORDINARY    00000000 00001000 FFFFFFFD   2 000          @R2,2
  28772  000049A2  00000001 USING  ORDINARY    00000000 00001000 FFFFFFF9   6 000          @R6,6
  28777  000049A2  00000001 USING  ORDINARY    00000000 00001000 FFFFFFFA   5 000          @R5,5
  28782  000049A2  00000001 USING  ORDINARY    00000000 00001000 FFFFFFF6   9 000          @R9,9
  28787  000049A2  00000001 USING  ORDINARY    00000000 00001000 FFFFFFF4  11 000          @R11,11
  28943  00004B76  00000001 USING  ORDINARY    00004B76 00001000 00000001  11 5FC   30995  $$$675B,11
  28957  00004B76  00000001 USING  ORDINARY    FFFFFFC8 00001000 FFFFFFBB   9 04E   30656  STCPWORK-(4+52),R9
  29350  00004C64  00000001 USING  ORDINARY    00000000 00001000 FFFFFFCF   2 00C   29434  TCBQHDR,R2
  29446  00004CAA  00000001 USING  ORDINARY    00000000 00001000 FFFFFFFD   2 000          @R2,2
  29595  00004D02  00000001 USING  ORDINARY    00000000 00001000 FFFFFFCF   2 00C   29621  TCBQHDR,R2
  29627  00004D14  00000001 USING  ORDINARY    00000000 00001000 FFFFFFFD   2 000          @R2,2
  29734  00004D48  00000001 USING  ORDINARY    00000000 00001000 FFFFFFD3   6 00E   30980  TCPHDR,R6
  29924  00004DD8  00000001 USING  ORDINARY    00000000 00001000 FFFFFFCF   3 00C   29980  TCBQHDR,R3
  30036  00004E20  00000001 USING  ORDINARY    00000000 00001000 FFFFFFFC   3 000   35984  @R3,3
  31017  000050E4  00000001 USING  ORDINARY    00000000 00001000 FFFFFFF9   6 000          @R6,6
  31022  000050E4  00000001 USING  ORDINARY    00000000 00001000 FFFFFFF6   9 000          @R9,9
  31027  000050E4  00000001 USING  ORDINARY    00000000 00001000 FFFFFFF4  11 000          @R11,11
  31127  0000519C  00000001 USING  ORDINARY    0000519C 00001000 00000001  11 E92   31265  $$$761B,11
  31277  00005204  00000001 USING  ORDINARY    00000000 00001000 FFFFFFF4  11 000          @R11,11
  31331  00005236  00000001 USING  ORDINARY    00005236 00001000 00000001  11 D72   31415  $$$769B,11
  31426  00005288  00000001 USING  ORDINARY    00000000 00001000 FFFFFFF4  11 000          @R11,11
  31499  000052BA  00000001 USING  ORDINARY    000052BA 00001000 00000001  11 CF6   31634  $$$775B,11
  31513  000052BA  00000001 USING  ORDINARY    FFFFFFC8 00001000 FFFFFFBA   9 038   31577  SENDRSTW-(4+52),R9
  31587  000052D6  00000001 USING  ORDINARY    00000000 00001000 FFFFFFD3   2 00D   31611  TCPHDR,R2
  31642  00005316  00000001 USING  ORDINARY    00000000 00001000 FFFFFFFD   2 000          @R2,2
  31647  00005316  00000001 USING  ORDINARY    00000000 00001000 FFFFFFF6   9 000          @R9,9
  31652  00005316  00000001 USING  ORDINARY    00000000 00001000 FFFFFFF4  11 000          @R11,11
  31732  00005348  00000001 USING  ORDINARY    00005348 00001000 00000001  11 CDC   31855  $$$781B,11
  31746  00005348  00000001 USING  ORDINARY    FFFFFFC8 00001000 FFFFFFB9   9 056   31834  XMITTCPW-(4+52),R9
  31772  00005354  00000001 USING  ORDINARY    00000000 00001000 FFFFFFD3   2 010   31830  TCPHDR,R2
  31844  00005392  00000001 USING  ORDINARY    00000000 00001000 FFFFFFD5   5 010   31850  IPHDR,R5
  31863  000053A8  00000001 USING  ORDINARY    00000000 00001000 FFFFFFFA   5 000          @R5,5
  31868  000053A8  00000001 USING  ORDINARY    00000000 00001000 FFFFFFFD   2 000   34627  @R2,2
  31873  000053A8  00000001 USING  ORDINARY    00000000 00001000 FFFFFFF6   9 000          @R9,9
  31878  000053A8  00000001 USING  ORDINARY    00000000 00001000 FFFFFFF4  11 000          @R11,11
  31933  000053DA  00000001 USING  ORDINARY    000053DA 00001000 00000001  11 BF6   32062  $$$784B,11
  32078  000054BC  00000001 USING  ORDINARY    00000000 00001000 FFFFFFF4  11 000          @R11,11
  32130  000054EE  00000001 USING  ORDINARY    000054EE 00001000 00000001  11 AF6   32229  $$$789B,11
  32244  00005540  00000001 USING  ORDINARY    00000000 00001000 FFFFFFF4  11 000          @R11,11
  32299  00005572  00000001 USING  ORDINARY    00005572 00001000 00000001  11 AC3   32552  $$$796B,11
  32560  00005608  00000001 USING  ORDINARY    00000000 00001000 FFFFFFF4  11 000          @R11,11
  32612  0000563A  00000001 USING  ORDINARY    0000563A 00001000 00000001  11 9C2   32624  $$$806B,11
  32632  00005644  00000001 USING  ORDINARY    00000000 00001000 FFFFFFF4  11 000          @R11,11
1AMELIA   Using Map                                                                                                         Page  498
  32684  00005676  00000001 USING  ORDINARY    00005676 00001000 00000001  11 98A   32859  $$$809B,11
  32875  000056DE  00000001 USING  ORDINARY    00000000 00001000 FFFFFFF4  11 000          @R11,11
  32933  00005710  00000001 USING  ORDINARY    00005710 00001000 00000001  11 916   33030  $$$817B,11
  33046  00005756  00000001 USING  ORDINARY    00000000 00001000 FFFFFFF4  11 000          @R11,11
  33098  00005788  00000001 USING  ORDINARY    00005788 00001000 00000001  11 848   33581  $$$824B,11
  33172  000057BA  00000001 USING  ORDINARY    00000000 00001000 FFFFFFCF   1 000   33255  TCBQHDR,R1
  33296  00005828  00000001 USING  ORDINARY    00000000 00001000 FFFFFFFE   1 008   35987  @R1,1
  33591  00005914  00000001 USING  ORDINARY    00000000 00001000 FFFFFFF4  11 000          @R11,11
  33648  00005946  00000001 USING  ORDINARY    00005946 00001000 00000001  11 702   34172  $$$853B,11
  34180  00005AA8  00000001 USING  ORDINARY    00000000 00001000 FFFFFFF4  11 000          @R11,11
  34242  00005ADA  00000001 USING  ORDINARY    00005ADA 00001000 00000001  11 53A   34334  $$$879B,11
  34346  00005B30  00000001 USING  ORDINARY    00000000 00001000 FFFFFFF4  11 000          @R11,11
  34404  00005B62  00000001 USING  ORDINARY    00005B62 00001000 00000001  11 46E   34465  $$$886B,11
  34474  00005B92  00000001 USING  ORDINARY    00000000 00001000 FFFFFFF4  11 000          @R11,11
  34529  00005BC4  00000001 USING  ORDINARY    00005BC4 00001000 00000001  11 4B0   34784  $$$892B,11
  34548  00005BC8  00000001 USING  ORDINARY    00000000 00001000 FFFFFFEE   5 010   34553  SEGCB,R5
  34711  00005C30  00000001 USING  ORDINARY    00000000 00001000 FFFFFFCF   4 00C   34762  TCBQHDR,R4
  34792  00005C70  00000001 USING  ORDINARY    00000000 00001000 FFFFFFFB   4 000          @R4,4
  34797  00005C70  00000001 USING  ORDINARY    00000000 00001000 FFFFFFFA   5 000          @R5,5
  34802  00005C70  00000001 USING  ORDINARY    00000000 00001000 FFFFFFF4  11 000          @R11,11
  34854  00005CA2  00000001 USING  ORDINARY    00005CA2 00001000 00000001  11 376   35058  $$$903B,11
  34947  00005CCA  00000001 USING  ORDINARY    00000000 00001000 FFFFFFCF   4 00C   35006  TCBQHDR,R4
  35017  00005D0E  00000001 USING  ORDINARY    00000000 00001000 FFFFFFFB   4 001   37526  @R4,4
  35071  00005D2C  00000001 USING  ORDINARY    00000000 00001000 FFFFFFF4  11 000          @R11,11
  35126  00005D5E  00000001 USING  ORDINARY    00005D5E 00001000 00000001  11 2A2   35251  $$$914B,11
  35259  00005DAC  00000001 USING  ORDINARY    00000000 00001000 FFFFFFF4  11 000          @R11,11
  35316  00005DDE  00000001 USING  ORDINARY    00005DDE 00001000 00000001  11 22A   35377  $$$924B,11
  35385  00005E08  00000001 USING  ORDINARY    00000000 00001000 FFFFFFF4  11 000          @R11,11
  35447  00005E3A  00000001 USING  ORDINARY    00005E3A 00001000 00000001  11 244   35569  $$$930B,11
  35486  00005E4C  00000001 USING  ORDINARY    00000000 00001000 FFFFFFD0   2 00C   35542  TCBTRHDR,R2
  35590  00005E8C  00000001 USING  ORDINARY    00000000 00001000 FFFFFFFD   2 000          @R2,2
  35595  00005E8C  00000001 USING  ORDINARY    00000000 00001000 FFFFFFF4  11 000          @R11,11
  35615  00005E9A  00000001 USING  ORDINARY    00000000 00001000 FFFFFFF7   8 000          @R8,8
  35662  00005EBE  00000001 USING  ORDINARY    00005EBE 00001000 00000001  11 02C   35742  $$$939B,11
  35681  00005EC2  00000001 USING  ORDINARY    00000000 00001000 FFFFFFCA   2 008   35755  TPORT,R2
  35774  00005EF0  00000001 USING  ORDINARY    00000000 00001000 FFFFFFFD   2 008   37179  @R2,2
  35779  00005EF0  00000001 USING  ORDINARY    00000000 00001000 FFFFFFF4  11 000          @R11,11
  35901  000060A8  00000001 USING  ORDINARY    000060A8 00001000 00000001  11 060   35987  $$$946B,11
  35994  000060F8  00000001 USING  ORDINARY    00000000 00001000 FFFFFFF4  11 000          @R11,11
  36067  00006130  00000001 USING  ORDINARY    00006130 00001000 00000001  11 270   36174  $$$953B,11
  36114  00006150  00000001 USING  ORDINARY    00000000 00001000 FFFFFFC9   1 008   36138  HSTTABLE,R1
  36144  0000615C  00000001 USING  ORDINARY    00000000 00001000 FFFFFFFE   1 000          @R1,1
  36196  00006174  00000001 USING  ORDINARY    00000000 00001000 FFFFFFF4  11 000          @R11,11
  36254  000061A6  00000001 USING  ORDINARY    000061A6 00001000 00000001  11 224   36423  $$$961B,11
  36301  000061C6  00000001 USING  ORDINARY    00000000 00001000 FFFFFFC9   1 008   36329  HSTTABLE,R1
  36335  000061DA  00000001 USING  ORDINARY    00000000 00001000 FFFFFFFE   1 000   36430  @R1,1
  36360  000061F0  00000001 USING  ORDINARY    00000000 00001000 FFFFFFC9   3 05C   36442  HSTTABLE,R3
  36453  00006242  00000001 USING  ORDINARY    00000000 00001000 FFFFFFFC   3 000          @R3,3
  36458  00006242  00000001 USING  ORDINARY    00000000 00001000 FFFFFFF4  11 000          @R11,11
  36523  00006274  00000001 USING  ORDINARY    00006274 00001000 00000001  11 140   36708  $$$971B,11
  36557  00006280  00000001 DROP                                            1              1
  36561  00006286  00000001 USING  ORDINARY    00000000 00001000 FFFFFFFE   1 000   37400  @R1,1
  36638  000062BA  00000001 USING  ORDINARY    00000000 00001000 FFFFFFC9   3 010   36714  HSTTABLE,R3
  36727  00006300  00000001 USING  ORDINARY    00000000 00001000 FFFFFFFC   3 004   37764  @R3,3
  36732  00006300  00000001 USING  ORDINARY    00000000 00001000 FFFFFFF4  11 000          @R11,11
  36787  00006332  00000001 USING  ORDINARY    00006332 00001000 00000001  11 096   36871  $$$980B,11
  36808  00006338  00000001 USING  ORDINARY    00000000 00001000 FFFFFFD7   6 00E   36815  ENETHDR,R6
  36825  0000634E  00000001 USING  ORDINARY    00000000 00001000 FFFFFFD6   5 018   36843  ARP,R5
  36879  0000638E  00000001 USING  ORDINARY    00000000 00001000 FFFFFFFA   5 000          @R5,5
1AMELIA   Using Map                                                                                                         Page  499
  36884  0000638E  00000001 USING  ORDINARY    00000000 00001000 FFFFFFF9   6 000          @R6,6
  36889  0000638E  00000001 USING  ORDINARY    00000000 00001000 FFFFFFF4  11 000          @R11,11
  36975  000063F4  00000001 USING  ORDINARY    000063F4 00001000 00000001  11 590   37637  $$$983B,11
  36994  000063F6  00000001 USING  ORDINARY    00000000 00001000 FFFFFFCC   6 154   37634  NSL,R6
  37176  00006496  00000001 DROP                                           15              15
  37180  0000649C  00000001 USING  ORDINARY    00000000 00001000 FFFFFFF0  15 000   37220  @R15,15
  37433  00006550  00000001 USING  ORDINARY    00000000 00001000 FFFFFFCE   5 00C   37472  NSMHDR,R5
  37545  000065B8  00000001 USING  ORDINARY    00000000 00001000 FFFFFFD4   1 004   37552  UDPHDR,R1
  37582  000065D8  00000001 USING  ORDINARY    00000000 00001000 FFFFFFCC  15 000   37612  NSL,R15
  37619  000065EE  00000001 USING  ORDINARY    00000000 00001000 FFFFFFF0  15 000          @R15,15
  37649  00006606  00000001 USING  ORDINARY    00000000 00001000 FFFFFFFE   1 000          @R1,1
  37654  00006606  00000001 USING  ORDINARY    00000000 00001000 FFFFFFFA   5 001   42294  @R5,5
  37659  00006606  00000001 USING  ORDINARY    00000000 00001000 FFFFFFF9   6 000          @R6,6
  37664  00006606  00000001 USING  ORDINARY    00000000 00001000 FFFFFFF4  11 000          @R11,11
  37720  00006638  00000001 USING  ORDINARY    00006638 00001000 00000001  11 32C   38096  $$$1011B,11
  37739  0000663A  00000001 USING  ORDINARY    00000000 00001000 FFFFFFCC   6 14C   38093  NSL,R6
  38105  00006746  00000001 USING  ORDINARY    00000000 00001000 FFFFFFF9   6 000          @R6,6
  38110  00006746  00000001 USING  ORDINARY    00000000 00001000 FFFFFFF4  11 000          @R11,11
  38163  00006778  00000001 USING  ORDINARY    00006778 00001000 00000001  11 1D8   38279  $$$1021B,11
  38198  00006782  00000001 USING  ORDINARY    00000000 00001000 FFFFFFCC   1 040   38250  NSL,R1
  38276  000067B8  00000001 USING  ORDINARY    00000000 00001000 FFFFFFFE   1 000          @R1,1
  38288  000067BC  00000001 USING  ORDINARY    00000000 00001000 FFFFFFF4  11 000          @R11,11
  38344  000067EE  00000001 USING  ORDINARY    000067EE 00001000 00000001  11 182   38450  $$$1029B,11
  38363  000067F0  00000001 USING  ORDINARY    00000000 00001000 FFFFFFCC   6 019   38447  NSL,R6
  38459  00006834  00000001 USING  ORDINARY    00000000 00001000 FFFFFFF9   6 000          @R6,6
  38464  00006834  00000001 USING  ORDINARY    00000000 00001000 FFFFFFF4  11 000          @R11,11
  38519  00006866  00000001 USING  ORDINARY    00006866 00001000 00000001  11 0F6   38670  $$$1034B,11
  38538  00006868  00000001 USING  ORDINARY    00000000 00001000 FFFFFFCC   2 019   38666  NSL,R2
  38561  0000686C  00000001 USING  ORDINARY    00000000 00001000 FFFFFFCC   3 000   38585  NSL,R3
  38614  00006888  00000001 USING  ORDINARY    00000000 00001000 FFFFFFFC   3 000          @R3,3
  38678  000068BC  00000001 USING  ORDINARY    00000000 00001000 FFFFFFFD   2 000          @R2,2
  38683  000068BC  00000001 USING  ORDINARY    00000000 00001000 FFFFFFF4  11 000          @R11,11
  38807  000069AE  00000001 USING  ORDINARY    000069AE 00001000 00000001  11 A54   40154  $$$1042B,11
  38821  000069AE  00000001 USING  ORDINARY    FFFFFFC8 00001000 FFFFFFB8   9 354   39489  RCVNSMW-(4+52),R9
  38834  000069AE  00000001 USING  ORDINARY    00000000 00001000 FFFFFFD5  15 00C   38840  IPHDR,R15
  38847  000069B4  00000001 USING  ORDINARY    00000000 00001000 FFFFFFF0  15 001   45762  @R15,15
  38859  000069B6  00000001 USING  ORDINARY    00000000 00001000 FFFFFFD4   7 004   39527  UDPHDR,R7
  38873  000069BA  00000001 USING  ORDINARY    00000000 00001000 FFFFFFCE   6 008   40071  NSMHDR,R6
  38910  000069CA  00000001 USING  ORDINARY    00000000 00001000 FFFFFFCC   4 04C   40151  NSL,R4
  39344  00006AF2  00000001 DROP                                            1              1
  39348  00006AF8  00000001 USING  ORDINARY    00000000 00001000 FFFFFFFE   1 000          @R1,1
  39662  00006BEE  00000001 USING  ORDINARY    00000000 00001000 FFFFFFC8   2 011   39786  HNT,R2
  39781  00006C3E  00000001 DROP                                            1              1
  39785  00006C44  00000001 USING  ORDINARY    00000000 00001000 FFFFFFFE   1 000   40974  @R1,1
  39841  00006C6E  00000001 USING  ORDINARY    00000000 00001000 FFFFFFFD   2 000          @R2,2
  39879  00006C78  00000001 USING  ORDINARY    00000000 00001000 FFFFFFC8   3 011   40016  HNT,R3
  40144  00006D22  00000001 USING  ORDINARY    00000000 00001000 FFFFFFFC   3 000          @R3,3
  40163  00006D2C  00000001 USING  ORDINARY    00000000 00001000 FFFFFFFB   4 000          @R4,4
  40168  00006D2C  00000001 USING  ORDINARY    00000000 00001000 FFFFFFF9   6 000          @R6,6
  40173  00006D2C  00000001 USING  ORDINARY    00000000 00001000 FFFFFFF8   7 01E   43464  @R7,7
  40178  00006D2C  00000001 USING  ORDINARY    00000000 00001000 FFFFFFF6   9 000          @R9,9
  40183  00006D2C  00000001 USING  ORDINARY    00000000 00001000 FFFFFFF4  11 000          @R11,11
  40266  00006D5E  00000001 USING  ORDINARY    00006D5E 00001000 00000001  11 5F2   40647  $$$1077B,11
  40280  00006D5E  00000001 USING  ORDINARY    FFFFFFC8 00001000 FFFFFFB7   9 354   40628  NSLUPWA-(4+52),R9
  40295  00006D64  00000001 USING  ORDINARY    00000000 00001000 FFFFFFCE   6 00C   40588  NSMHDR,R6
  40659  00006E5A  00000001 USING  ORDINARY    00000000 00001000 FFFFFFF9   6 000          @R6,6
  40664  00006E5A  00000001 USING  ORDINARY    00000000 00001000 FFFFFFF6   9 000          @R9,9
  40669  00006E5A  00000001 USING  ORDINARY    00000000 00001000 FFFFFFF4  11 000          @R11,11
  40744  00006E8C  00000001 USING  ORDINARY    00006E8C 00001000 00000001  11 597   41014  $$$1099B,11
1AMELIA   Using Map                                                                                                         Page  500
  40758  00006E8C  00000001 USING  ORDINARY    FFFFFFC8 00001000 FFFFFFB6   9 054   41011  NSLADHWA-(4+52),R9
  40772  00006E8E  00000001 USING  ORDINARY    00000000 00001000 FFFFFFCD   4 218   41010  NSRR,R4
  41027  00006F6E  00000001 USING  ORDINARY    00000000 00001000 FFFFFFFB   4 000   41890  @R4,4
  41032  00006F6E  00000001 USING  ORDINARY    00000000 00001000 FFFFFFF6   9 000          @R9,9
  41037  00006F6E  00000001 USING  ORDINARY    00000000 00001000 FFFFFFF4  11 000          @R11,11
  41092  00006FA0  00000001 USING  ORDINARY    00006FA0 00001000 00000001  11 3C0   41172  $$$1113B,11
  41185  00006FD2  00000001 USING  ORDINARY    00000000 00001000 FFFFFFF4  11 000          @R11,11
  41243  00007004  00000001 USING  ORDINARY    00007004 00001000 00000001  11 01E   41321  $$$1118B,11
  41262  00007006  00000001 USING  ORDINARY    00000000 00001000 FFFFFFCC   2 00C   41308  NSL,R2
  41276  0000700A  00000001 USING  ORDINARY    00000000 00001000 FFFFFFC6   1 008   41317  UPATH,R1
  41331  00007026  00000001 USING  ORDINARY    00000000 00001000 FFFFFFFE   1 000   41528  @R1,1
  41336  00007026  00000001 USING  ORDINARY    00000000 00001000 FFFFFFFD   2 001   42257  @R2,2
  41341  00007026  00000001 USING  ORDINARY    00000000 00001000 FFFFFFF4  11 000          @R11,11
  41403  00007058  00000001 USING  ORDINARY    00007058 00001000 00000001  11 35A   41639  $$$1124B,11
  41422  0000705A  00000001 USING  ORDINARY    00000000 00001000 FFFFFFCD   6 21A   41653  NSRR,R6
  41667  00007136  00000001 USING  ORDINARY    00000000 00001000 FFFFFFF9   6 000          @R6,6
  41672  00007136  00000001 USING  ORDINARY    00000000 00001000 FFFFFFF4  11 000          @R11,11
  41734  00007168  00000001 USING  ORDINARY    00007168 00001000 00000001  11 2CE   41997  $$$1137B,11
  41831  000071A0  00000001 DROP                                            1              1
  41835  000071A6  00000001 USING  ORDINARY    00000000 00001000 FFFFFFFE   1 004   42862  @R1,1
  42022  00007216  00000001 USING  ORDINARY    00000000 00001000 FFFFFFF4  11 000          @R11,11
  42084  00007248  00000001 USING  ORDINARY    00007248 00001000 00000001  11 1FA   42291  $$$1155B,11
  42310  000072DC  00000001 USING  ORDINARY    00000000 00001000 FFFFFFF4  11 000          @R11,11
  42465  0000746C  00000001 USING  ORDINARY    0000746C 00001000 00000001  11 8DE   43897  $$$1171B,11
  42479  0000746C  00000001 USING  ORDINARY    FFFFFFC8 00001000 FFFFFFB5   9 241   43526  ADDHNTW-(4+52),R9
  42906  0000756C  00000001 USING  ORDINARY    00000000 00001000 FFFFFFC8   4 011   43879  HNT,R4
  42938  00007578  00000001 DROP                                            2              2
  42942  0000757E  00000001 USING  ORDINARY    00000000 00001000 FFFFFFFD   2 000          @R2,2
  43259  00007610  00000001 DROP                                            2              2
  43263  00007616  00000001 USING  ORDINARY    00000000 00001000 FFFFFFFD   2 001   43494  @R2,2
  43267  0000761A  00000001 DROP                                            1              1
  43271  00007620  00000001 USING  ORDINARY    00000000 00001000 FFFFFFFE   1 000          @R1,1
  43602  00007700  00000001 USING  ORDINARY    00000000 00001000 FFFFFFC9   2 05C   43679  HSTTABLE,R2
  43700  0000773E  00000001 USING  ORDINARY    00000000 00001000 FFFFFFFD   2 000          @R2,2
  43760  00007756  00000001 USING  ORDINARY    00000000 00001000 FFFFFFC8   5 011   43861  HNT,R5
  43802  00007768  00000001 DROP                                           14              14
  43806  0000776E  00000001 USING  ORDINARY    00000000 00001000 FFFFFFF1  14 004   83984  @R14,14
  43872  00007794  00000001 USING  ORDINARY    00000000 00001000 FFFFFFFA   5 000          @R5,5
  43909  000077A2  00000001 USING  ORDINARY    00000000 00001000 FFFFFFFB   4 000          @R4,4
  43914  000077A2  00000001 USING  ORDINARY    00000000 00001000 FFFFFFF6   9 000          @R9,9
  43919  000077A2  00000001 USING  ORDINARY    00000000 00001000 FFFFFFF4  11 000          @R11,11
  43974  000077D4  00000001 USING  ORDINARY    000077D4 00001000 00000001  11 4C4   44053  $$$1248B,11
  43993  000077D8  00000001 USING  ORDINARY    00000000 00001000 FFFFFFC8   1 004   44040  HNT,R1
  44061  00007800  00000001 USING  ORDINARY    00000000 00001000 FFFFFFFE   1 000   44521  @R1,1
  44066  00007800  00000001 USING  ORDINARY    00000000 00001000 FFFFFFF4  11 000          @R11,11
  44120  00007832  00000001 USING  ORDINARY    00007832 00001000 00000001  11 4C4   44264  $$$1254B,11
  44225  00007876  00000001 USING  ORDINARY    00000000 00001000 FFFFFFC8   2 000   44230  HNT,R2
  44240  00007882  00000001 USING  ORDINARY    00000000 00001000 FFFFFFFD   2 010   44537  @R2,2
  44273  00007896  00000001 USING  ORDINARY    00000000 00001000 FFFFFFF4  11 000          @R11,11
  44329  000078C8  00000001 USING  ORDINARY    000078C8 00001000 00000001  11 414   44546  $$$1261B,11
  44554  0000795A  00000001 USING  ORDINARY    00000000 00001000 FFFFFFF4  11 000          @R11,11
  44613  0000798C  00000001 USING  ORDINARY    0000798C 00001000 00000001  11 344   44714  $$$1271B,11
  44679  000079AC  00000001 USING  ORDINARY    00000000 00001000 FFFFFFC8   1 00D   44701  HNT,R1
  44734  000079C4  00000001 USING  ORDINARY    00000000 00001000 FFFFFFFE   1 000   45080  @R1,1
  44744  000079C4  00000001 USING  ORDINARY    00000000 00001000 FFFFFFF4  11 000          @R11,11
  44801  000079F6  00000001 USING  ORDINARY    000079F6 00001000 00000001  11 2AE   44895  $$$1278B,11
  44820  000079FA  00000001 USING  ORDINARY    00000000 00001000 FFFFFFC8   2 011   44892  HNT,R2
  44911  00007A30  00000001 USING  ORDINARY    00000000 00001000 FFFFFFFD   2 000          @R2,2
  44916  00007A30  00000001 USING  ORDINARY    00000000 00001000 FFFFFFF4  11 000          @R11,11
1AMELIA   Using Map                                                                                                         Page  501
  44998  00007A62  00000001 USING  ORDINARY    00007A62 00001000 00000001  11 2F4   45260  $$$1285B,11
  45012  00007A62  00000001 USING  ORDINARY    FFFFFFC8 00001000 FFFFFFB4   9 038   45162  GETHNTWA-(4+52),R9
  45111  00007A98  00000001 USING  ORDINARY    00000000 00001000 FFFFFFC8   4 012   45259  HNT,R4
  45249  00007AD2  00000001 DROP                                            2              2
  45253  00007AD8  00000001 USING  ORDINARY    00000000 00001000 FFFFFFFD   2 010   50103  @R2,2
  45277  00007AEE  00000001 USING  ORDINARY    00000000 00001000 FFFFFFFB   4 000          @R4,4
  45282  00007AEE  00000001 USING  ORDINARY    00000000 00001000 FFFFFFF6   9 000          @R9,9
  45287  00007AEE  00000001 USING  ORDINARY    00000000 00001000 FFFFFFF4  11 000          @R11,11
  45345  00007B20  00000001 USING  ORDINARY    00007B20 00001000 00000001  11 23C   45431  $$$1301B,11
  45363  00007B20  00000001 USING  ORDINARY    00000000 00001000 FFFFFFC8   1 011   45423  HNT,R1
  45370  00007B24  00000001 DROP                                            3              3
  45374  00007B2A  00000001 USING  ORDINARY    00000000 00001000 FFFFFFFC   3 000   52918  @R3,3
  45452  00007B4E  00000001 USING  ORDINARY    00000000 00001000 FFFFFFFE   1 000   45880  @R1,1
  45457  00007B4E  00000001 USING  ORDINARY    00000000 00001000 FFFFFFF4  11 000          @R11,11
  45513  00007B80  00000001 USING  ORDINARY    00007B80 00001000 00000001  11 1E2   45625  $$$1309B,11
  45640  00007BBE  00000001 USING  ORDINARY    00000000 00001000 FFFFFFF4  11 000          @R11,11
  45697  00007BF0  00000001 USING  ORDINARY    00007BF0 00001000 00000001  11 17E   45873  $$$1319B,11
  45904  00007C60  00000001 USING  ORDINARY    00000000 00001000 FFFFFFF4  11 000          @R11,11
  46021  00007D98  00000001 USING  ORDINARY    00007D98 00001000 00000001  11 FDB   52601  $$$1334B,11
  46035  00007D98  00000001 USING  ORDINARY    FFFFFFC8 00001000 FFFFFFB3   9 0B4   52584  CMDWA-(4+52),R9
  46048  00007DA0  00000001 USING  ORDINARY    00008D74 00001000 00000001   8 63A   52587  COMMAND+4096,R8
  46345  00007EBE  00000001 USING  ORDINARY    00000000 00001000 FFFFFFC6   6 00E   46363  UPATH,R6
  46377  00007EC6  00000001 USING  ORDINARY    00000000 00001000 FFFFFFF9   6 000          @R6,6
  46770  0000803A  00000001 USING  ORDINARY    00000000 00001000 FFFFFFB2   7 009   47680  CLOOKUPW,R7
  46953  000080B6  00000001 USING  ORDINARY    00000000 00001000 FFFFFFC8   4 011   47072  HNT,R4
  47067  00008104  00000001 DROP                                            1              1
  47071  0000810A  00000001 USING  ORDINARY    00000000 00001000 FFFFFFFE   1 000   49588  @R1,1
  47121  0000812A  00000001 USING  ORDINARY    00000000 00001000 FFFFFFFB   4 000          @R4,4
  47163  00008140  00000001 USING  ORDINARY    00000000 00001000 FFFFFFCC   4 04C   47380  NSL,R4
  47262  0000817E  00000001 USING  ORDINARY    00000000 00001000 FFFFFFC6  15 008   47266  UPATH,R15
  47278  00008188  00000001 USING  ORDINARY    00000000 00001000 FFFFFFF0  15 000          @R15,15
  47688  000082D8  00000001 USING  ORDINARY    00000000 00001000 FFFFFFFB   4 000          @R4,4
  47695  000082D8  00000001 USING  ORDINARY    00000000 00001000 FFFFFFF8   7 000          @R7,7
  47734  000082E2  00000001 USING  ORDINARY    00000000 00001000 FFFFFFC6   7 059   48117  UPATH,R7
  48125  00008466  00000001 USING  ORDINARY    00000000 00001000 FFFFFFF8   7 000          @R7,7
  48170  0000846C  00000001 USING  ORDINARY    00000000 00001000 FFFFFFB1   7 100   48706  PCWA,R7
  48193  0000847C  00000001 USING  ORDINARY    00000000 00001000 FFFFFFC6   6 00E   48207  UPATH,R6
  48240  0000849A  00000001 USING  ORDINARY    00000000 00001000 FFFFFFF9   6 000          @R6,6
  48757  000085B2  00000001 USING  ORDINARY    00000000 00001000 FFFFFFF8   7 000          @R7,7
  48822  000085C8  00000001 USING  ORDINARY    00000000 00001000 FFFFFFB0   7 000   48887  CSETNSWA,R7
  48985  00008648  00000001 USING  ORDINARY    00000000 00001000 FFFFFFF8   7 000          @R7,7
  49031  0000864E  00000001 USING  ORDINARY    00000000 00001000 FFFFFFAF   7 008   49118  CSETTRCW,R7
  49126  000086DA  00000001 USING  ORDINARY    00000000 00001000 FFFFFFF8   7 000          @R7,7
  49167  000086E0  00000001 USING  ORDINARY    00000000 00001000 FFFFFFAE   7 000   49724  SHOWCORW,R7
  49776  00008804  00000001 USING  ORDINARY    00000000 00001000 FFFFFFF8   7 000          @R7,7
  50256  0000893A  00000001 USING  ORDINARY    00000000 00001000 FFFFFFC8   2 000   50271  HNT,R2
  50277  0000894A  00000001 USING  ORDINARY    00000000 00001000 FFFFFFFD   2 000          @R2,2
  50352  0000897A  00000001 USING  ORDINARY    00000000 00001000 FFFFFFC9   1 000   50366  HSTTABLE,R1
  50372  00008988  00000001 USING  ORDINARY    00000000 00001000 FFFFFFFE   1 000   50742  @R1,1
  50554  00008A08  00000001 USING  ORDINARY    00000000 00001000 FFFFFFC8   2 00D   50605  HNT,R2
  50688  00008A70  00000001 USING  ORDINARY    00000000 00001000 FFFFFFFD   2 000   51253  @R2,2
  50817  00008AB4  00000001 USING  ORDINARY    00000000 00001000 FFFFFFAD   7 000   51038  SHOWLOGW,R7
  51046  00008B44  00000001 USING  ORDINARY    00000000 00001000 FFFFFFF8   7 000          @R7,7
  51360  00008C12  00000001 USING  ORDINARY    00000000 00001000 FFFFFFC6   6 120   51756  UPATH,R6
  51797  00008D82  00000001 USING  ORDINARY    00000000 00001000 FFFFFFF9   6 000          @R6,6
  51846  00008D90  00000001 USING  ORDINARY    00000000 00001000 FFFFFFAC   7 009   52274  SHOWTCPW,R7
  52009  00008DF0  00000001 USING  ORDINARY    00000000 00001000 FFFFFFD1   2 024   52203  TCB,R2
  52209  00008E82  00000001 USING  ORDINARY    00000000 00001000 FFFFFFFD   2 000          @R2,2
  52282  00008EEA  00000001 USING  ORDINARY    00000000 00001000 FFFFFFF8   7 000          @R7,7
1AMELIA   Using Map                                                                                                         Page  502
  52532  00008FB4  00000001 USING  ORDINARY    00000000 00001000 FFFFFFD9   2 030   52547  DCB,R2
  52599  00008FF2  00000001 USING  ORDINARY    00000000 00001000 FFFFFFFD   2 008   56968  @R2,2
  52615  00008FF6  00000001 USING  ORDINARY    00000000 00001000 FFFFFFF6   9 000          @R9,9
  52620  00008FF6  00000001 USING  ORDINARY    00000000 00001000 FFFFFFF4  11 000          @R11,11
  52786  000093D8  00000001 USING  ORDINARY    000093D8 00001000 00000001  11 880   52932  $$$1503B,11
  52805  000093DC  00000001 USING  ORDINARY    000007F8 00001000 00000001   4 00C   52936  SCNCB,R4
  52945  00009436  00000001 USING  ORDINARY    00000000 00001000 FFFFFFFB   4 000          @R4,4
  52950  00009436  00000001 USING  ORDINARY    00000000 00001000 FFFFFFF4  11 000          @R11,11
  53028  00009468  00000001 USING  ORDINARY    00009468 00001000 00000001  11 A5B   55582  $$$1515B,11
  53042  00009468  00000001 USING  ORDINARY    FFFFFFC8 00001000 FFFFFFAB   9 03C   53682  FMTINFWK-(4+52),R9
  55594  00009C1E  00000001 USING  ORDINARY    00000000 00001000 FFFFFFF6   9 000          @R9,9
  55599  00009C1E  00000001 USING  ORDINARY    00000000 00001000 FFFFFFF4  11 000          @R11,11
  55741  00009EF2  00000001 USING  ORDINARY    00009EF2 00001000 00000001  11 489   56994  $$$1547B,11
  55755  00009EF2  00000001 USING  ORDINARY    FFFFFFC8 00001000 FFFFFFAA   9 038   55995  FMTHSTW-(4+52),R9
  55769  00009EF4  00000001 USING  ORDINARY    00000000 00001000 FFFFFFC9   5 05C   56860  HSTTABLE,R5
  57006  0000A266  00000001 USING  ORDINARY    00000000 00001000 FFFFFFFA   5 000          @R5,5
  57011  0000A266  00000001 USING  ORDINARY    00000000 00001000 FFFFFFF6   9 000          @R9,9
  57016  0000A266  00000001 USING  ORDINARY    00000000 00001000 FFFFFFF4  11 000          @R11,11
  57134  0000A3A0  00000001 USING  ORDINARY    0000A3A0 00001000 00000001  11 D23   60950  $$$1569B,11
  57148  0000A3A0  00000001 USING  ORDINARY    FFFFFFC8 00001000 FFFFFFA9   9 040   60828  FMTTCBW-(4+52),R9
  57163  0000A3A6  00000001 USING  ORDINARY    00000000 00001000 FFFFFFD1   7 232   60613  TCB,R7
  57221  0000A3D6  00000001 DROP                                            1              1
  57225  0000A3DC  00000001 USING  ORDINARY    00000000 00001000 FFFFFFFE   1 000          @R1,1
  57470  0000A492  00000001 USING  ORDINARY    00000000 00001000 FFFFFFC6   2 02E   57486  UPATH,R2
  57508  0000A4A2  00000001 USING  ORDINARY    00000000 00001000 FFFFFFFD   2 000          @R2,2
  57783  0000A558  00000001 USING  ORDINARY    00000000 00001000 FFFFFFC9  15 05C   57790  HSTTABLE,R15
  57797  0000A560  00000001 USING  ORDINARY    00000000 00001000 FFFFFFF0  15 000   67480  @R15,15
  59477  0000AA22  00000001 USING  ORDINARY    00000000 00001000 FFFFFFD0   4 020   60491  TCBTRHDR,R4
  59750  0000AAD8  00000001 USING  ORDINARY    00000000 00001000 FFFFFFD3   3 00D   59926  TCPHDR,R3
  60003  0000AB82  00000001 USING  ORDINARY    00000000 00001000 FFFFFFFC   3 000          @R3,3
  60573  0000ACD0  00000001 USING  ORDINARY    00000000 00001000 FFFFFFFB   4 050   71219  @R4,4
  60639  0000ACF8  00000001 USING  ORDINARY    00000000 00001000 FFFFFFCF   2 00C   60800  TCBQHDR,R2
  60806  0000AD6C  00000001 USING  ORDINARY    00000000 00001000 FFFFFFFD   2 000   62358  @R2,2
  60962  0000ADD4  00000001 USING  ORDINARY    00000000 00001000 FFFFFFF8   7 000          @R7,7
  60967  0000ADD4  00000001 USING  ORDINARY    00000000 00001000 FFFFFFF6   9 000          @R9,9
  60972  0000ADD4  00000001 USING  ORDINARY    00000000 00001000 FFFFFFF4  11 000          @R11,11
  61167  0000B0E8  00000001 USING  ORDINARY    0000B0E8 00001000 00000001  11 AB6   64426  $$$1625B,11
  61181  0000B0E8  00000001 USING  ORDINARY    FFFFFFC8 00001000 FFFFFFA8   9 04C   64423  FMTPWA-(4+52),R9
  61232  0000B0FE  00000001 USING  ORDINARY    00000000 00001000 FFFFFFD7   7 00E   61583  ENETHDR,R7
  61613  0000B21A  00000001 USING  ORDINARY    00000000 00001000 FFFFFFF8   7 000          @R7,7
  61616  0000B21A  00000001 USING  ORDINARY    00000000 00001000 FFFFFFD6   7 012   62297  ARP,R7
  61873  0000B2C8  00000001 DROP                                            3              3
  61877  0000B2CE  00000001 USING  ORDINARY    00000000 00001000 FFFFFFFC   3 000          @R3,3
  61901  0000B2D6  00000001 DROP                                            1              1
  61905  0000B2DC  00000001 USING  ORDINARY    00000000 00001000 FFFFFFFE   1 000          @R1,1
  61960  0000B304  00000001 DROP                                            3              3
  61964  0000B30A  00000001 USING  ORDINARY    00000000 00001000 FFFFFFFC   3 000          @R3,3
  62067  0000B33A  00000001 DROP                                            1              1
  62071  0000B340  00000001 USING  ORDINARY    00000000 00001000 FFFFFFFE   1 000          @R1,1
  62125  0000B36E  00000001 DROP                                            3              3
  62129  0000B374  00000001 USING  ORDINARY    00000000 00001000 FFFFFFFC   3 000          @R3,3
  62184  0000B388  00000001 DROP                                            1              1
  62188  0000B38E  00000001 USING  ORDINARY    00000000 00001000 FFFFFFFE   1 000          @R1,1
  62248  0000B3B8  00000001 DROP                                            3              3
  62252  0000B3BE  00000001 USING  ORDINARY    00000000 00001000 FFFFFFFC   3 000          @R3,3
  62355  0000B3EE  00000001 DROP                                            1              1
  62359  0000B3F4  00000001 USING  ORDINARY    00000000 00001000 FFFFFFFE   1 000          @R1,1
  62424  0000B416  00000001 USING  ORDINARY    00000000 00001000 FFFFFFF8   7 000          @R7,7
  62427  0000B416  00000001 USING  ORDINARY    00000000 00001000 FFFFFFD7   7 000          ENETHDR,7
1AMELIA   Using Map                                                                                                         Page  503
  62469  0000B422  00000001 USING  ORDINARY    00000000 00001000 FFFFFFF8   7 000          @R7,7
  62472  0000B422  00000001 USING  ORDINARY    00000000 00001000 FFFFFFD5   7 010   63610  IPHDR,R7
  62568  0000B46E  00000001 DROP                                            5              5
  62572  0000B474  00000001 USING  ORDINARY    00000000 00001000 FFFFFFFA   5 000          @R5,5
  62655  0000B4C8  00000001 DROP                                            1              1
  62659  0000B4CE  00000001 USING  ORDINARY    00000000 00001000 FFFFFFFE   1 000          @R1,1
  62892  0000B574  00000001 DROP                                            1              1
  62896  0000B57A  00000001 USING  ORDINARY    00000000 00001000 FFFFFFFE   1 000          @R1,1
  63068  0000B5F0  00000001 USING  ORDINARY    00000000 00001000 FFFFFFD2   6 004   63286  ICMPHDR,R6
  63092  0000B602  00000001 DROP                                            1              1
  63096  0000B608  00000001 USING  ORDINARY    00000000 00001000 FFFFFFFE   1 000          @R1,1
  63131  0000B626  00000001 DROP                                            1              1
  63135  0000B62C  00000001 USING  ORDINARY    00000000 00001000 FFFFFFFE   1 000          @R1,1
  63308  0000B6A4  00000001 USING  ORDINARY    00000000 00001000 FFFFFFF9   6 000          @R6,6
  63349  0000B6B0  00000001 USING  ORDINARY    00000000 00001000 FFFFFFD4   6 008   63562  UDPHDR,R6
  63374  0000B6C2  00000001 DROP                                            1              1
  63378  0000B6C8  00000001 USING  ORDINARY    00000000 00001000 FFFFFFFE   1 000          @R1,1
  63414  0000B6E6  00000001 DROP                                            1              1
  63418  0000B6EC  00000001 USING  ORDINARY    00000000 00001000 FFFFFFFE   1 000          @R1,1
  63584  0000B770  00000001 USING  ORDINARY    00000000 00001000 FFFFFFF9   6 000          @R6,6
  63625  0000B77C  00000001 USING  ORDINARY    00000000 00001000 FFFFFFD3   6 014   64115  TCPHDR,R6
  63650  0000B78E  00000001 DROP                                            1              1
  63654  0000B794  00000001 USING  ORDINARY    00000000 00001000 FFFFFFFE   1 000          @R1,1
  63690  0000B7B2  00000001 DROP                                            1              1
  63694  0000B7B8  00000001 USING  ORDINARY    00000000 00001000 FFFFFFFE   1 000          @R1,1
  64018  0000B8BA  00000001 DROP                                            1              1
  64022  0000B8C0  00000001 USING  ORDINARY    00000000 00001000 FFFFFFFE   1 000          @R1,1
  64170  0000B938  00000001 DROP                                            1              1
  64174  0000B93E  00000001 USING  ORDINARY    00000000 00001000 FFFFFFFE   1 000          @R1,1
  64278  0000B982  00000001 USING  ORDINARY    00000000 00001000 FFFFFFF9   6 000          @R6,6
  64357  0000B9AC  00000001 USING  ORDINARY    00000000 00001000 FFFFFFF8   7 000          @R7,7
  64360  0000B9AC  00000001 USING  ORDINARY    00000000 00001000 FFFFFFD7   7 000          ENETHDR,7
  64440  0000B9D6  00000001 USING  ORDINARY    00000000 00001000 FFFFFFF8   7 000          @R7,7
  64445  0000B9D6  00000001 USING  ORDINARY    00000000 00001000 FFFFFFF6   9 000          @R9,9
  64450  0000B9D6  00000001 USING  ORDINARY    00000000 00001000 FFFFFFF4  11 000          @R11,11
  64608  0000BBC8  00000001 USING  ORDINARY    0000BBC8 00001000 00000001  11 CBA   67887  $$$1704B,11
  64622  0000BBC8  00000001 USING  ORDINARY    FFFFFFC8 00001000 FFFFFFA7   9 254   67513  FMTNSMWA-(4+52),R9
  64638  0000BBCC  00000001 USING  ORDINARY    00000000 00001000 FFFFFFCE   6 00C   67077  NSMHDR,R6
  64684  0000BBF0  00000001 DROP                                            1              1
  64688  0000BBF6  00000001 USING  ORDINARY    00000000 00001000 FFFFFFFE   1 000          @R1,1
  64880  0000BC80  00000001 DROP                                            2              2
  64884  0000BC86  00000001 USING  ORDINARY    00000000 00001000 FFFFFFFD   2 010   67774  @R2,2
  65992  0000BF6C  00000001 USING  ORDINARY    00000000 00001000 FFFFFFCD   5 218   67869  NSRR,R5
  67369  0000C320  00000001 DROP                                            3              3
  67373  0000C326  00000001 USING  ORDINARY    00000000 00001000 FFFFFFFC   3 000          @R3,3
  67450  0000C354  00000001 DROP                                            3              3
  67454  0000C35A  00000001 USING  ORDINARY    00000000 00001000 FFFFFFFC   3 011   69233  @R3,3
  67610  0000C3C6  00000001 DROP                                           15              15
  67614  0000C3CC  00000001 USING  ORDINARY    00000000 00001000 FFFFFFF0  15 000   69233  @R15,15
  67771  0000C42E  00000001 DROP                                            1              1
  67775  0000C434  00000001 USING  ORDINARY    00000000 00001000 FFFFFFFE   1 000          @R1,1
  67897  0000C486  00000001 USING  ORDINARY    00000000 00001000 FFFFFFFA   5 000          @R5,5
  67902  0000C486  00000001 USING  ORDINARY    00000000 00001000 FFFFFFF9   6 000          @R6,6
  67907  0000C486  00000001 USING  ORDINARY    00000000 00001000 FFFFFFF6   9 000          @R9,9
  67912  0000C486  00000001 USING  ORDINARY    00000000 00001000 FFFFFFF4  11 000          @R11,11
  67968  0000C4B8  00000001 USING  ORDINARY    0000C4B8 00001000 00000001  11 3B4   68528  $$$1798B,11
  67989  0000C4BC  00000001 USING  ORDINARY    00000000 00001000 FFFFFFC8   6 011   68482  HNT,R6
  68176  0000C52A  00000001 DROP                                            2              2
  68180  0000C530  00000001 USING  ORDINARY    00000000 00001000 FFFFFFFD   2 000          @R2,2
1AMELIA   Using Map                                                                                                         Page  504
  68258  0000C562  00000001 DROP                                            2              2
  68262  0000C568  00000001 USING  ORDINARY    00000000 00001000 FFFFFFFD   2 005   75095  @R2,2
  68313  0000C58E  00000001 DROP                                            1              1
  68317  0000C594  00000001 USING  ORDINARY    00000000 00001000 FFFFFFFE   1 FFC   84517  @R1,1
  68536  0000C614  00000001 USING  ORDINARY    00000000 00001000 FFFFFFF9   6 000   69231  @R6,6
  68541  0000C614  00000001 USING  ORDINARY    00000000 00001000 FFFFFFF4  11 000          @R11,11
  68728  0000C8AC  00000001 USING  ORDINARY    0000C8AC 00001000 00000001  11 37C   68842  $$$1812B,11
  68742  0000C8AC  00000001 USING  ORDINARY    FFFFFFC8 00001000 FFFFFFA6   9 038   68822  HXSWA-(4+52),R9
  68852  0000C8F2  00000001 USING  ORDINARY    00000000 00001000 FFFFFFF6   9 000          @R9,9
  68857  0000C8F2  00000001 USING  ORDINARY    00000000 00001000 FFFFFFF4  11 000          @R11,11
  68952  0000C924  00000001 USING  ORDINARY    0000C924 00001000 00000001  11 308   69363  $$$1818B,11
  68966  0000C924  00000001 USING  ORDINARY    FFFFFFC8 00001000 FFFFFFA5   9 04D   69355  HXDWA-(4+52),R9
  69371  0000CA66  00000001 USING  ORDINARY    00000000 00001000 FFFFFFF6   9 000          @R9,9
  69376  0000CA66  00000001 USING  ORDINARY    00000000 00001000 FFFFFFF4  11 000          @R11,11
  69444  0000CB98  00000001 USING  ORDINARY    0000CB98 00001000 00000001  11 08C   69520  $$$1837B,11
  69533  0000CBDA  00000001 USING  ORDINARY    00000000 00001000 FFFFFFF4  11 000          @R11,11
  69624  0000CC60  00000001 USING  ORDINARY    0000CC60 00001000 00000001  11 CBC   69858  $$$1843B,11
  69869  0000CCE8  00000001 USING  ORDINARY    00000000 00001000 FFFFFFF4  11 000          @R11,11
  69925  0000CD1A  00000001 USING  ORDINARY    0000CD1A 00001000 00000001  11 CD6   70016  $$$1858B,11
  69945  0000CD1E  00000001 USING  ORDINARY    00000000 00001000 FFFFFFD4   7 006   70018  UDPHDR,R7
  69958  0000CD1E  00000001 USING  ORDINARY    00000000 00001000 FFFFFFD5  15 010   69973  IPHDR,R15
  70025  0000CD5C  00000001 USING  ORDINARY    00000000 00001000 FFFFFFF0  15 000          @R15,15
  70030  0000CD5C  00000001 USING  ORDINARY    00000000 00001000 FFFFFFF8   7 000          @R7,7
  70035  0000CD5C  00000001 USING  ORDINARY    00000000 00001000 FFFFFFF4  11 000          @R11,11
  70087  0000CD8E  00000001 USING  ORDINARY    0000CD8E 00001000 00000001  11 B9A   70193  $$$1861B,11
  70116  0000CD9A  00000001 USING  ORDINARY    00000000 00001000 FFFFFFC6   5 084   70156  UPATH,R5
  70163  0000CDCE  00000001 USING  ORDINARY    00000000 00001000 FFFFFFFA   5 000          @R5,5
  70209  0000CDE8  00000001 USING  ORDINARY    00000000 00001000 FFFFFFC6  15 004   70215  UPATH,R15
  70222  0000CDEC  00000001 USING  ORDINARY    00000000 00001000 FFFFFFF0  15 000          @R15,15
  70243  0000CDF8  00000001 USING  ORDINARY    00000000 00001000 FFFFFFF4  11 000          @R11,11
  70324  0000CE2A  00000001 USING  ORDINARY    0000CE2A 00001000 00000001  11 B02   70377  $$$1866B,11
  70338  0000CE2A  00000001 USING  ORDINARY    FFFFFFC8 00001000 FFFFFFA4   9 038   70407  POPNWA-(4+52),R9
  70352  0000CE2C  00000001 USING  ORDINARY    00000000 00001000 FFFFFFC6   5 05C   70385  UPATH,R5
  70416  0000CE56  00000001 USING  ORDINARY    00000000 00001000 FFFFFFFA   5 000          @R5,5
  70421  0000CE56  00000001 USING  ORDINARY    00000000 00001000 FFFFFFF6   9 000          @R9,9
  70426  0000CE56  00000001 USING  ORDINARY    00000000 00001000 FFFFFFF4  11 000          @R11,11
  70482  0000CE88  00000001 USING  ORDINARY    0000CE88 00001000 00000001  11 AC4   70747  $$$1872B,11
  70501  0000CE8A  00000001 USING  ORDINARY    00000000 00001000 FFFFFFC6   5 00E   70740  UPATH,R5
  70767  0000CF4A  00000001 USING  ORDINARY    00000000 00001000 FFFFFFFA   5 000          @R5,5
  70772  0000CF4A  00000001 USING  ORDINARY    00000000 00001000 FFFFFFF4  11 000          @R11,11
  70849  0000CF7C  00000001 USING  ORDINARY    0000CF7C 00001000 00000001  11 B2C   71486  $$$1891B,11
  70863  0000CF7C  00000001 USING  ORDINARY    FFFFFFC8 00001000 FFFFFFA3   9 03C   71257  PMSGWA-(4+52),R9
  70884  0000CF86  00000001 USING  ORDINARY    00000000 00001000 FFFFFFC6   5 0E2   71263  UPATH,R5
  71498  0000D114  00000001 USING  ORDINARY    00000000 00001000 FFFFFFFA   5 000          @R5,5
  71503  0000D114  00000001 USING  ORDINARY    00000000 00001000 FFFFFFF6   9 000          @R9,9
  71508  0000D114  00000001 USING  ORDINARY    00000000 00001000 FFFFFFF4  11 000          @R11,11
  71563  0000D146  00000001 USING  ORDINARY    0000D146 00001000 00000001  11 852   71681  $$$1914B,11
  71641  0000D16E  00000001 USING  ORDINARY    00000000 00001000 FFFFFFD5   7 009   71678  IPHDR,R7
  71689  0000D19E  00000001 USING  ORDINARY    00000000 00001000 FFFFFFF8   7 000          @R7,7
  71694  0000D19E  00000001 USING  ORDINARY    00000000 00001000 FFFFFFF4  11 000          @R11,11
  71753  0000D1D0  00000001 USING  ORDINARY    0000D1D0 00001000 00000001  11 75C   71947  $$$1920B,11
  71772  0000D1D2  00000001 USING  ORDINARY    00000000 00001000 FFFFFFC6   5 01C   71926  UPATH,R5
  71831  0000D1F0  00000001 USING  ORDINARY    00000000 00001000 FFFFFFCB   3 004   71931  PNUM,R3
  71911  0000D220  00000001 USING  ORDINARY    00000000 00001000 FFFFFFCB  15 000   71917  PNUM,R15
  71924  0000D224  00000001 USING  ORDINARY    00000000 00001000 FFFFFFF0  15 000          @R15,15
  71937  0000D22C  00000001 USING  ORDINARY    00000000 00001000 FFFFFFFC   3 004   72304  @R3,3
  71969  0000D232  00000001 USING  ORDINARY    00000000 00001000 FFFFFFFA   5 000          @R5,5
  71974  0000D232  00000001 USING  ORDINARY    00000000 00001000 FFFFFFF4  11 000          @R11,11
  72033  0000D264  00000001 USING  ORDINARY    0000D264 00001000 00000001  11 84A   72330  $$$1930B,11
1AMELIA   Using Map                                                                                                         Page  505
  72052  0000D266  00000001 USING  ORDINARY    00000000 00001000 FFFFFFC6   5 120   72336  UPATH,R5
  72349  0000D330  00000001 USING  ORDINARY    00000000 00001000 FFFFFFFA   5 000          @R5,5
  72354  0000D330  00000001 USING  ORDINARY    00000000 00001000 FFFFFFF4  11 000          @R11,11
  72434  0000D362  00000001 USING  ORDINARY    0000D362 00001000 00000001  11 64A   72785  $$$1945B,11
  72448  0000D362  00000001 USING  ORDINARY    FFFFFFC8 00001000 FFFFFFA2   9 044   72635  PSGWA-(4+52),R9
  72472  0000D36E  00000001 USING  ORDINARY    00000000 00001000 FFFFFFEE   5 000   72764  SEGCB,R5
  72574  0000D3AC  00000001 USING  ORDINARY    00000000 00001000 FFFFFFC6   3 05C   72695  UPATH,R3
  72742  0000D430  00000001 USING  ORDINARY    00000000 00001000 FFFFFFFC   3 000          @R3,3
  72807  0000D44E  00000001 USING  ORDINARY    00000000 00001000 FFFFFFFA   5 000          @R5,5
  72812  0000D44E  00000001 USING  ORDINARY    00000000 00001000 FFFFFFF6   9 000          @R9,9
  72817  0000D44E  00000001 USING  ORDINARY    00000000 00001000 FFFFFFF4  11 000          @R11,11
  72876  0000D480  00000001 USING  ORDINARY    0000D480 00001000 00000001  11 534   73176  $$$1961B,11
  72895  0000D482  00000001 USING  ORDINARY    00000000 00001000 FFFFFFC6   5 05C   73043  UPATH,R5
  73011  0000D4CC  00000001 USING  ORDINARY    00000000 00001000 FFFFFFCB   4 000   73017  PNUM,R4
  73024  0000D4D2  00000001 USING  ORDINARY    00000000 00001000 FFFFFFFB   4 000          @R4,4
  73072  0000D4E8  00000001 USING  ORDINARY    00000000 00001000 FFFFFFFA   5 000          @R5,5
  73075  0000D4E8  00000001 USING  ORDINARY    00000000 00001000 FFFFFFC6   4 004   73146  UPATH,R4
  73160  0000D516  00000001 USING  ORDINARY    00000000 00001000 FFFFFFC6   5 000   73173  UPATH,5
  73165  0000D516  00000001 USING  ORDINARY    00000000 00001000 FFFFFFFB   4 000          @R4,4
  73188  0000D526  00000001 USING  ORDINARY    00000000 00001000 FFFFFFFA   5 000          @R5,5
  73193  0000D526  00000001 USING  ORDINARY    00000000 00001000 FFFFFFF4  11 000          @R11,11
  73284  0000D558  00000001 USING  ORDINARY    0000D558 00001000 00000001  11 4B4   73626  $$$1974B,11
  73298  0000D558  00000001 USING  ORDINARY    FFFFFFC8 00001000 FFFFFFA1   9 0EB   73608  PIWA-(4+52),R9
  73312  0000D55A  00000001 USING  ORDINARY    00000000 00001000 FFFFFFC6   5 05C   73633  UPATH,R5
  73429  0000D5A6  00000001 USING  ORDINARY    00000000 00001000 FFFFFFC5   4 038   73491  PINFO,R4
  73649  0000D640  00000001 USING  ORDINARY    00000000 00001000 FFFFFFFB   4 000          @R4,4
  73654  0000D640  00000001 USING  ORDINARY    00000000 00001000 FFFFFFFA   5 04C   78490  @R5,5
  73659  0000D640  00000001 USING  ORDINARY    00000000 00001000 FFFFFFF6   9 000          @R9,9
  73664  0000D640  00000001 USING  ORDINARY    00000000 00001000 FFFFFFF4  11 000          @R11,11
  73722  0000D672  00000001 USING  ORDINARY    0000D672 00001000 00000001  11 421   73952  $$$1992B,11
  73964  0000D708  00000001 USING  ORDINARY    00000000 00001000 FFFFFFF4  11 000          @R11,11
  74044  0000D73A  00000001 USING  ORDINARY    0000D73A 00001000 00000001  11 2CC   74567  $$$2004B,11
  74058  0000D73A  00000001 USING  ORDINARY    FFFFFFC8 00001000 FFFFFFA0   9 03C   74569  PTHMWA-(4+52),R9
  74073  0000D73E  00000001 USING  ORDINARY    00000000 00001000 FFFFFFD7   3 00E   74256  ENETHDR,R3
  74091  0000D74A  00000001 USING  ORDINARY    00000000 00001000 FFFFFFC6   7 059   74548  UPATH,R7
  74266  0000D79E  00000001 USING  ORDINARY    00000000 00001000 FFFFFFD5  15 010   74388  IPHDR,R15
  74402  0000D7EA  00000001 USING  ORDINARY    00000000 00001000 FFFFFFF0  15 000          @R15,15
  74576  0000D868  00000001 USING  ORDINARY    00000000 00001000 FFFFFFF8   7 000          @R7,7
  74581  0000D868  00000001 USING  ORDINARY    00000000 00001000 FFFFFFFC   3 052   84890  @R3,3
  74586  0000D868  00000001 USING  ORDINARY    00000000 00001000 FFFFFFF6   9 000          @R9,9
  74591  0000D868  00000001 USING  ORDINARY    00000000 00001000 FFFFFFF4  11 000          @R11,11
  74762  0000DAD8  00000001 USING  ORDINARY    0000DAD8 00001000 00000001  11 C76   75169  $$$2030B,11
  74776  0000DAD8  00000001 USING  ORDINARY    FFFFFFD0 00001000 FFFFFF9F   9 03B   75028  PRTWA-(4+44),R9
  74790  0000DADA  00000001 USING  ORDINARY    00000000 00001000 FFFFFFEE   6 006   75168  SEGCB,R6
  75189  0000DBFA  00000001 USING  ORDINARY    00000000 00001000 FFFFFFF9   6 000          @R6,6
  75194  0000DBFA  00000001 USING  ORDINARY    00000000 00001000 FFFFFFF6   9 000          @R9,9
  75199  0000DBFA  00000001 USING  ORDINARY    00000000 00001000 FFFFFFF4  11 000          @R11,11
  75296  0000DD2E  00000001 USING  ORDINARY    0000DD2E 00001000 00000001  11 8E6   75377  $$$2054B,11
  75310  0000DD2E  00000001 USING  ORDINARY    FFFFFFC8 00001000 FFFFFF9E   9 038   75388  FIXWA-(4+52),R9
  75405  0000DD90  00000001 USING  ORDINARY    00000000 00001000 FFFFFFF6   9 000          @R9,9
  75410  0000DD90  00000001 USING  ORDINARY    00000000 00001000 FFFFFFF4  11 000          @R11,11
  75466  0000DDC2  00000001 USING  ORDINARY    0000DDC2 00001000 00000001  11 856   75476  $$$2060B,11
  75488  0000DDCC  00000001 USING  ORDINARY    00000000 00001000 FFFFFFF4  11 000          @R11,11
  75540  0000DDFE  00000001 USING  ORDINARY    0000DDFE 00001000 00000001  11 006   75549  $$$2063B,11
  75561  0000DE04  00000001 USING  ORDINARY    00000000 00001000 FFFFFFF4  11 000          @R11,11
  75590  0000DE12  00000001 USING  ORDINARY    0000DE12 00001000 00000001  15 80A   75622  ESTAE,R15
  75629  0000DE22  00000001 USING  ORDINARY    00000000 00001000 FFFFFFF0  15 000          @R15,15
  75644  0000DE24  00000001 USING  ORDINARY    0000DE24 00001000 00000001  11 91B   77786  $$$2066B,11
  75654  0000DE26  00000001 USING  ORDINARY    00000000 00001000 FFFFFFE9   6 07C   77778  SDWA,R6
1AMELIA   Using Map                                                                                                         Page  506
  75817  0000DEA2  00000001 DROP                                            2              2
  75821  0000DEA8  00000001 USING  ORDINARY    00000000 00001000 FFFFFFFD   2 002   77244  @R2,2
  76674  0000E136  00000001 USING  ORDINARY    00000000 00001000 FFFFFFC7   4 04C   77048  TRCENTRY,R4
  77117  0000E27A  00000001 USING  ORDINARY    00000000 00001000 FFFFFFFB   4 00A   85898  @R4,4
  77799  0000E4D8  00000001 USING  ORDINARY    00000000 00001000 FFFFFFF9   6 000          @R6,6
  77805  0000E4D8  00000001 USING  ORDINARY    00000000 00001000 FFFFFFF4  11 000          @R11,11
  77848  0000E54C  00000001 USING  ORDINARY    0000E54C 00001000 00000001  11 0D4   77950  $$$2089B,11
  77909  0000E574  00000001 USING  ORDINARY    00000000 00001000 FFFFFFD9   2 030   77924  DCB,R2
  77946  0000E586  00000001 USING  ORDINARY    00000000 00001000 FFFFFFFD   2 000   79371  @R2,2
  77959  0000E58C  00000001 USING  ORDINARY    00000000 00001000 FFFFFFF4  11 000          @R11,11
  78106  0000E778  00000001 USING  ORDINARY    0000E778 00001000 00000001  11 542   78570  $$$2095B,11
  78120  0000E778  00000001 USING  ORDINARY    FFFFFFC8 00001000 FFFFFF9D   9 04C   78525  INITWA-(4+52),R9
  78140  0000E782  00000001 USING  ORDINARY    00000000 00001000 FFFFFFD9   6 052   78405  DCB,R6
  78381  0000E864  00000001 DROP                                           15              15
  78385  0000E86A  00000001 USING  ORDINARY    00000000 00001000 FFFFFFF0  15 006   83877  @R15,15
  78578  0000E928  00000001 USING  ORDINARY    00000000 00001000 FFFFFFF9   6 000   80458  @R6,6
  78583  0000E928  00000001 USING  ORDINARY    00000000 00001000 FFFFFFF6   9 000          @R9,9
  78588  0000E928  00000001 USING  ORDINARY    00000000 00001000 FFFFFFF4  11 000          @R11,11
  78666  0000E95A  00000001 USING  ORDINARY    0000E95A 00001000 00000001  11 372   79178  $$$2112B,11
  78680  0000E95A  00000001 USING  ORDINARY    FFFFFFC8 00001000 FFFFFF9C   9 038   78817  SCANPWA-(4+52),R9
  79095  0000EB00  00000001 USING  ORDINARY    00000000 00001000 FFFFFFCA   5 008   79170  TPORT,R5
  79184  0000EB4E  00000001 USING  ORDINARY    00000000 00001000 FFFFFFFA   5 FFC   82589  @R5,5
  79193  0000EB4E  00000001 USING  ORDINARY    00000000 00001000 FFFFFFF6   9 000          @R9,9
  79198  0000EB4E  00000001 USING  ORDINARY    00000000 00001000 FFFFFFF4  11 000          @R11,11
  79255  0000EB80  00000001 USING  ORDINARY    0000EB80 00001000 00000001  11 0FC   79504  $$$2135B,11
  79524  0000EC10  00000001 USING  ORDINARY    00000000 00001000 FFFFFFF4  11 000          @R11,11
  79627  0000ECF6  00000001 USING  ORDINARY    0000ECF6 00001000 00000001  11 CDA   79779  $$$2150B,11
  79796  0000ED8A  00000001 USING  ORDINARY    00000000 00001000 FFFFFFF4  11 000          @R11,11
  79855  0000EDBC  00000001 USING  ORDINARY    0000EDBC 00001000 00000001  11 CA0   79935  $$$2159B,11
  79949  0000EE20  00000001 USING  ORDINARY    00000000 00001000 FFFFFFF4  11 000          @R11,11
  80004  0000EE52  00000001 USING  ORDINARY    0000EE52 00001000 00000001  11 C0C   80138  $$$2165B,11
  80163  0000EEEE  00000001 USING  ORDINARY    00000000 00001000 FFFFFFF4  11 000          @R11,11
  80267  0000EF0C  00000001 USING  ORDINARY    0000EF0C 00001000 00000001  11 01C   80319  $$$2175B,11
  80327  0000EF28  00000001 USING  ORDINARY    00000000 00001000 FFFFFFF4  11 000          @R11,11
  80379  0000EF46  00000001 USING  ORDINARY    0000EF46 00001000 00000001  11 034   80472  $$$2181B,11
  80480  0000EF7A  00000001 USING  ORDINARY    00000000 00001000 FFFFFFF4  11 000          @R11,11
  80529  0000EF98  00000001 USING  ORDINARY    0000EF98 00001000 00000001  11 AC8   80561  $$$2190B,11
  80550  0000EFB0  00000001 DROP                                            2              2
  80554  0000EFB6  00000001 USING  ORDINARY    00000000 00001000 FFFFFFFD   2 000          @R2,2
  80569  0000EFCA  00000001 USING  ORDINARY    00000000 00001000 FFFFFFF4  11 000          @R11,11
  80617  0000EFE6  00000001 USING  ORDINARY    0000EFE6 00001000 00000001  11 A0A   80656  $$$2193B,11
  80634  0000EFEE  00000001 DROP                                            2              2
  80638  0000EFF4  00000001 USING  ORDINARY    00000000 00001000 FFFFFFFD   2 003   81666  @R2,2
  80665  0000F030  00000001 USING  ORDINARY    00000000 00001000 FFFFFFF4  11 000          @R11,11
  80714  0000F04C  00000001 USING  ORDINARY    0000F04C 00001000 00000001  11 9A8   80771  $$$2196B,11
  80728  0000F04C  00000001 USING  ORDINARY    FFFFFFD0 00001000 FFFFFF9B   9 050   80765  WA-(4+44),R9
  80743  0000F054  00000001 USING  ORDINARY    00000000 00001000 FFFFFF9A   6 000   80751  DEC,R6
  80778  0000F096  00000001 USING  ORDINARY    00000000 00001000 FFFFFFF9   6 000          @R6,6
  80783  0000F096  00000001 USING  ORDINARY    00000000 00001000 FFFFFFF6   9 000          @R9,9
  80788  0000F096  00000001 USING  ORDINARY    00000000 00001000 FFFFFFF4  11 000          @R11,11
  80841  0000F0C8  00000001 USING  ORDINARY    0000F0C8 00001000 00000001  11 75C   80883  $$$2200B,11
  80855  0000F0C8  00000001 USING  ORDINARY    FFFFFFD0 00001000 FFFFFF9B   9 048   80874  WA-(4+44),R9
  80891  0000F112  00000001 USING  ORDINARY    00000000 00001000 FFFFFFF6   9 000          @R9,9
  80896  0000F112  00000001 USING  ORDINARY    00000000 00001000 FFFFFFF4  11 000          @R11,11
  80947  0000F134  00000001 USING  ORDINARY    0000F134 00001000 00000001  11 956   81053  $$$2204B,11
  80961  0000F134  00000001 USING  ORDINARY    FFFFFFD0 00001000 FFFFFF9B   9 061   81042  WA-(4+44),R9
  80977  0000F13C  00000001 USING  ORDINARY    00000000 00001000 FFFFFF9A   6 000   80990  DEC,R6
  81075  0000F190  00000001 USING  ORDINARY    00000000 00001000 FFFFFFF9   6 019   82931  @R6,6
  81080  0000F190  00000001 USING  ORDINARY    00000000 00001000 FFFFFFF6   9 000          @R9,9
1AMELIA   Using Map                                                                                                         Page  507
  81085  0000F190  00000001 USING  ORDINARY    00000000 00001000 FFFFFFF4  11 000          @R11,11
  81168  0000F1C4  00000001 USING  ORDINARY    0000F1C4 00001000 00000001  11 8A2   81480  $$$2212B,11
  81182  0000F1C4  00000001 USING  ORDINARY    FFFFFFD0 00001000 FFFFFF99   9 033   81450  HXWA-(4+44),R9
  81490  0000F2A6  00000001 USING  ORDINARY    00000000 00001000 FFFFFFF6   9 000          @R9,9
  81495  0000F2A6  00000001 USING  ORDINARY    00000000 00001000 FFFFFFF4  11 000          @R11,11
  81554  0000F2C4  00000001 USING  ORDINARY    0000F2C4 00001000 00000001  11 7A4   81921  $$$2230B,11
  81568  0000F2C4  00000001 USING  ORDINARY    FFFFFFD0 00001000 FFFFFF9B   9 040   81829  WA-(4+44),R9
  81957  0000F3E4  00000001 USING  ORDINARY    00000000 00001000 FFFFFFF6   9 000          @R9,9
  81962  0000F3E4  00000001 USING  ORDINARY    00000000 00001000 FFFFFFF4  11 000          @R11,11
  82020  0000F42A  00000001 USING  ORDINARY    0000F42A 00001000 00000001  11 2C0   82049  $$$2247B,11
  82074  0000F464  00000001 USING  ORDINARY    00000000 00001000 FFFFFFF4  11 000          @R11,11
  82132  0000F482  00000001 USING  ORDINARY    0000F482 00001000 00000001  11 5E8   82217  $$$2250B,11
  82250  0000F4DC  00000001 USING  ORDINARY    00000000 00001000 FFFFFFF4  11 000          @R11,11
  82306  0000F4FA  00000001 USING  ORDINARY    0000F4FA 00001000 00000001  11 585   82400  $$$2256B,11
  82424  0000F54E  00000001 USING  ORDINARY    00000000 00001000 FFFFFFF4  11 000          @R11,11
  82480  0000F56C  00000001 USING  ORDINARY    0000F56C 00001000 00000001  11 4C4   82643  $$$2259B,11
  82667  0000F5FA  00000001 USING  ORDINARY    00000000 00001000 FFFFFFF4  11 000          @R11,11
  82725  0000F632  00000001 USING  ORDINARY    0000F632 00001000 00000001  11 406   82807  $$$2267B,11
  82779  0000F64A  00000001 USING  ORDINARY    00000000 00001000 FFFFFFED   2 130   82785  CVT,R2
  82792  0000F64E  00000001 USING  ORDINARY    00000000 00001000 FFFFFFFD   2 001   82815  @R2,2
  82822  0000F678  00000001 USING  ORDINARY    00000000 00001000 FFFFFFF4  11 000          @R11,11
  82887  0000F6FA  00000001 USING  ORDINARY    0000F6FA 00001000 00000001  11 372   82931  $$$2272B,11
  82955  0000F726  00000001 USING  ORDINARY    00000000 00001000 FFFFFFF4  11 000          @R11,11
  83012  0000F744  00000001 USING  ORDINARY    0000F744 00001000 00000001  11 32E   83107  $$$2276B,11
  83066  0000F75C  00000001 USING  ORDINARY    00000000 00001000 FFFFFFED   2 130   83072  CVT,R2
  83079  0000F760  00000001 USING  ORDINARY    00000000 00001000 FFFFFFFD   2 001   84563  @R2,2
  83118  0000F7A2  00000001 USING  ORDINARY    00000000 00001000 FFFFFFF4  11 000          @R11,11
  83176  0000F7C0  00000001 USING  ORDINARY    0000F7C0 00001000 00000001  11 2A0   83329  $$$2281B,11
  83190  0000F7C0  00000001 USING  ORDINARY    FFFFFFD0 00001000 FFFFFF9B   9 034   83194  WA-(4+44),R9
  83205  0000F7C8  00000001 USING  ORDINARY    00000000 00001000 FFFFFF9A   6 006   83331  DEC,R6
  83341  0000F878  00000001 USING  ORDINARY    00000000 00001000 FFFFFFF9   6 000          @R6,6
  83346  0000F878  00000001 USING  ORDINARY    00000000 00001000 FFFFFFF6   9 000          @R9,9
  83351  0000F878  00000001 USING  ORDINARY    00000000 00001000 FFFFFFF4  11 000          @R11,11
  83401  0000F896  00000001 USING  ORDINARY    0000F896 00001000 00000001  11 1CA   83448  $$$2290B,11
  83415  0000F896  00000001 USING  ORDINARY    FFFFFFD0 00001000 FFFFFF9B   9 034   83419  WA-(4+44),R9
  83430  0000F89E  00000001 USING  ORDINARY    00000000 00001000 FFFFFF9A   6 006   83450  DEC,R6
  83460  0000F8EE  00000001 USING  ORDINARY    00000000 00001000 FFFFFFF9   6 001   83878  @R6,6
  83465  0000F8EE  00000001 USING  ORDINARY    00000000 00001000 FFFFFFF6   9 000          @R9,9
  83470  0000F8EE  00000001 USING  ORDINARY    00000000 00001000 FFFFFFF4  11 000          @R11,11
  83621  0000FAA0  00000001 USING  ORDINARY    0000FAA0 00001000 00000001  11 674   83686  $$$2293B,11
  83635  0000FAA0  00000001 USING  ORDINARY    FFFFFFCC 00001000 FFFFFF98   9 034   83692  UNPRWA-(4+48),R9
  83646  0000FAB6  00000001 DROP                                            5              5
  83650  0000FABC  00000001 USING  ORDINARY    00000000 00001000 FFFFFFFA   5 000          @R5,5
  83700  0000FAF8  00000001 USING  ORDINARY    00000000 00001000 FFFFFFF6   9 000          @R9,9
  83705  0000FAF8  00000001 USING  ORDINARY    00000000 00001000 FFFFFFF4  11 000          @R11,11
  83765  0000FB1A  00000001 USING  ORDINARY    0000FB1A 00001000 00000001  11 5BE   83889  $$$2298B,11
  83898  0000FB74  00000001 USING  ORDINARY    00000000 00001000 FFFFFFF4  11 000          @R11,11
  83951  0000FB94  00000001 USING  ORDINARY    0000FB94 00001000 00000001  11 570   83983  $$$2307B,11
  83969  0000FB94  00000001 USING  ORDINARY    00000000 00001000 FFFFFFEE  15 014   83984  SEGCB,R15
  83991  0000FBAC  00000001 USING  ORDINARY    00000000 00001000 FFFFFFF0  15 000          @R15,15
  83999  0000FBAC  00000001 USING  ORDINARY    00000000 00001000 FFFFFFF4  11 000          @R11,11
  84054  0000FBDE  00000001 USING  ORDINARY    0000FBDE 00001000 00000001  11 532   84079  $$$2310B,11
  84087  0000FBF4  00000001 USING  ORDINARY    00000000 00001000 FFFFFFF4  11 000          @R11,11
  84142  0000FC26  00000001 USING  ORDINARY    0000FC26 00001000 00000001  11 4EA   84167  $$$2313B,11
  84175  0000FC3C  00000001 USING  ORDINARY    00000000 00001000 FFFFFFF4  11 000          @R11,11
  84230  0000FC6E  00000001 USING  ORDINARY    0000FC6E 00001000 00000001  11 4A3   84266  $$$2316B,11
  84274  0000FC8C  00000001 USING  ORDINARY    00000000 00001000 FFFFFFF4  11 000          @R11,11
  84329  0000FCBE  00000001 USING  ORDINARY    0000FCBE 00001000 00000001  11 448   84391  $$$2319B,11
  84350  0000FCC4  00000001 USING  ORDINARY    00000000 00001000 FFFFFFEE   6 014   84381  SEGCB,R6
1AMELIA   Using Map                                                                                                         Page  508
  84412  0000FCF0  00000001 USING  ORDINARY    00000000 00001000 FFFFFFF9   6 000          @R6,6
  84417  0000FCF0  00000001 USING  ORDINARY    00000000 00001000 FFFFFFF4  11 000          @R11,11
  84480  0000FD22  00000001 USING  ORDINARY    0000FD22 00001000 00000001  11 064   84568  $$$2324B,11
  84499  0000FD24  00000001 USING  ORDINARY    00000000 00001000 FFFFFFEE   6 000          SEGCB,R6
  84575  0000FD52  00000001 USING  ORDINARY    00000000 00001000 FFFFFFF9   6 000          @R6,6
  84580  0000FD52  00000001 USING  ORDINARY    00000000 00001000 FFFFFFF4  11 000          @R11,11
  84630  0000FD84  00000001 USING  ORDINARY    0000FD84 00001000 00000001  11 000          $$$2331B,11
  84649  0000FD86  00000001 USING  ORDINARY    00000000 00001000 FFFFFFEE   6 014   84955  SEGCB,R6
  84666  0000FD88  00000001 USING  ORDINARY    00000000 00001000 FFFFFFF4  11 000          @R11,11
  84669  0000FD88  00000001 USING  ORDINARY    0000FD88 00001000 00000001  11 380   84957  $$$2332B,11
  84974  0000FE7E  00000001 USING  ORDINARY    00000000 00001000 FFFFFFF9   6 000          @R6,6
  84984  0000FE7E  00000001 USING  ORDINARY    00000000 00001000 FFFFFFF4  11 000          @R11,11
  85043  0000FEB0  00000001 USING  ORDINARY    0000FEB0 00001000 00000001  11 238   85122  $$$2346B,11
  85062  0000FEB2  00000001 USING  ORDINARY    00000000 00001000 FFFFFFEE   6 006   85091  SEGCB,R6
  85130  0000FED4  00000001 USING  ORDINARY    00000000 00001000 FFFFFFF9   6 000          @R6,6
  85135  0000FED4  00000001 USING  ORDINARY    00000000 00001000 FFFFFFF4  11 000          @R11,11
  85193  0000FF06  00000001 USING  ORDINARY    0000FF06 00001000 00000001  11 204   85290  $$$2351B,11
  85212  0000FF08  00000001 USING  ORDINARY    00000000 00001000 FFFFFFEE   6 000          SEGCB,R6
  85298  0000FF38  00000001 USING  ORDINARY    00000000 00001000 FFFFFFF9   6 000          @R6,6
  85303  0000FF38  00000001 USING  ORDINARY    00000000 00001000 FFFFFFF4  11 000          @R11,11
  85361  0000FF6A  00000001 USING  ORDINARY    0000FF6A 00001000 00000001  11 012   85401  $$$2356B,11
  85380  0000FF6C  00000001 USING  ORDINARY    00000000 00001000 FFFFFFEE   6 014   85423  SEGCB,R6
  85430  0000FF88  00000001 USING  ORDINARY    00000000 00001000 FFFFFFF9   6 000          @R6,6
  85435  0000FF88  00000001 USING  ORDINARY    00000000 00001000 FFFFFFF4  11 000          @R11,11
  85467  0000FF96  00000001 USING  ORDINARY    00000000 00001000 FFFFFFEE  15 006   85474  SEGCB,R15
  85481  0000FF9C  00000001 USING  ORDINARY    00000000 00001000 FFFFFFF0  15 000          @R15,15
  85528  0000FFC2  00000001 USING  ORDINARY    0000FFC2 00001000 00000001  11 14A   85582  $$$2360B,11
  85591  0000FFE0  00000001 USING  ORDINARY    00000000 00001000 FFFFFFF4  11 000          @R11,11
  85649  00010012  00000001 USING  ORDINARY    00010012 00001000 00000001  11 0FC   85703  $$$2364B,11
  85712  00010030  00000001 USING  ORDINARY    00000000 00001000 FFFFFFF4  11 000          @R11,11
  85763  0001004E  00000001 USING  ORDINARY    0001004E 00001000 00000001  11 0AA   85799  $$$2368B,11
  85807  00010064  00000001 USING  ORDINARY    00000000 00001000 FFFFFFF4  11 000          @R11,11
  85858  00010082  00000001 USING  ORDINARY    00010082 00001000 00000001  11 090   85958  $$$2371B,11
  85895  00010098  00000001 DROP                                            1              1
  85899  0001009E  00000001 USING  ORDINARY    00000000 00001000 FFFFFFFE   1 000          @R1,1
  85966  000100C8  00000001 USING  ORDINARY    00000000 00001000 FFFFFFF4  11 000          @R11,11

1         General Purpose Register Cross Reference                                                                          Page  509
- Register  References (M=modified, B=branch, U=USING, D=DROP, N=index)                      HLASM R4.0  2004/03/15 13.11
0    0(0)     1052U  1053D  8730   9166M  9174M  9179M  9180   9202M  9207M  9208   9219M  9239M  9239   9283M  9318M
              9362M  9374   9403M  9461M  9479M  9498M  9498   9541M  9541   9557M  9580M  9663M  9675M  9695M  9707M
              9729M  9851M  9852M  9876M 10109M 10110M 10157  10243M 10244M 10245  10281M 10308  10313M 10313  10316M
             10406  10450M 10466M 10683M 10718  10810M 10908M 10938  11068M 11069M 11070  11136M 11212M 11225M 11250M
             11250  11310M 11341M 11498M 11499M 11500  11505M 11505  11506M 11507M 11508  11513M 11513  11514M 11515M
             11516  11521M 11521  11522M 11523M 11524  11529M 11529  11530M 11531M 11532  11585M 11586M 11587  11674M
             11675M 11683  11717M 11746  11807M 11858  11941M 11942M 11943  11949M 12092M 12268M 12293M 12326M 12351M
             12353M 12422M 12423M 12424  12432M 12433M 12434  12450M 12586M 12616  12715M 12716M 12717  12722M 12743M
             12743  12763M 12932M 12933M 12934  12938M 12939M 12940  12941M 12979M 12980  13045M 13046M 13047  13067M
             13097  13149M 13149  13150M 13160  13167  13176M 13201M 13218M 13241M 13274M 13303M 13324M 13353M 13386M
             13409M 13437M 13437  13469M 13563  13624  13669M 13702M 13704M 13806M 13807M 13808  13834  13840  13917M
             13946  13991M 14040M 14057M 14065M 14091M 14091  14115M 14115  14146M 14225  14332M 14342  14353M 14394M
             14396M 14446M 14448M 14471M 14473M 14512M 14564  14637M 14817M 14842M 14875M 14900M 14902M 14953M 14954M
             14955  14959M 14960M 14961  14977M 15123M 15187  15215  15236M 15238M 15495M 15545M 15604  15640  15660
             15700  15723M 15724M 15725  15766M 15767  15789M 15814M 15843M 15920M 15921M 15922  15926M 15927M 15928
             15963M 15964M 15965  15969M 15970M 15971  16006M 16007M 16008  16012M 16013M 16014  16033M 16034M 16035
             16039M 16040M 16041  16075M 16130  16216M 16217M 16217  16237M 16266M 16301M 16333  16359  16454M 16467M
             16467  16511M 16572M 16599M 16637M 16666M 16700M 16724M 16748M 16748  16775M 16792M 16793M 16794  16887
             16899M 16899  16900M 17112M 17145  17181  17190  17211M 17213M 17298M 17326M 17367M 17367  17436M 17447M
             17554M 17565  17576M 17763M 17786M 17813M 17840M 17867M 17960M 17995  18034  18158M 18159M 18159  18179M
             18211M 18245M 18269M 18293M 18293  18309M 18310M 18311  18378M 18451  18622M 18631M 18632M 18633M 18634
             18636  18657M 18659M 18843M 18942M 18945  18974M 19005  19070M 19070  19071M 19072M 19073  19119M 19222
             19252  19373M 19448M 19449M 19466M 19509M 19536M 19550M 19553  19565M 19613M 19641M 19686M 19708M 19736M
             19750M 19753  19765M 19810M 19844M 19921  19966  20230M 20231M 20273M 20273  20294M 20294  20315M 20315
             20336M 20336  20357M 20357  20389M 20423  20550M 20629  20675M 20676  20749M 20749  20760M 20760  20778
             20931M 20940M 20952  20959M 20975  21017  21079  21080  21377M 21378M 21389M 21472M 21639M 21666M 21693M
             21720M 21747M 21776M 21803M 21832M 21892M 21932M 22045M 22045  22066M 22066  22087M 22087  22108M 22108
             22129M 22129  22150M 22150  22181  22195M 22195  22204  22207M 22229M 22260  22356M 22393M 22426M 22458M
             22492M 22542M 22626M 22660  22856M 22942M 23050  23189M 23227  23438M 23474  23512M 23512  23592  23593M
             23594M 23606  23615M 23616M 23617  23625M 23680M 23713M 23715M 23719M 23720M 23721  23736M 23737M 23738
             23782M 23783M 23795  23821M 23848M 23922M 23955  24118M 24146  24243M 24264M 24264  24282M 24295M 24330M
             24360  24622M 24654  24680  24681M 24684M 24703M 24731  24802M 24830  24884M 24992  25041  25060M 25061
             25092  25096  25111M 25112M 25112  25120M 25160M 25194M 25218M 25242M 25242  25258M 25259M 25260  25268M
             25297M 25313  25314M 25333M 25356M 25361  25428M 25428  25434M 25435  25867M 25867  25910M 25970  25981M
             26008M 26008  26032M 26032  26072M 26113M 26113  26167M 26170M 26171  26204M 26261M 26315M 26316M 26352M
             26352  26361M 26362M 26363  26367M 26368M 26369  26392M 26393M 26394  26413M 26447M 26448M 26460  26474M
             26615M 26680M 26683M 26684  26735M 26735  26741M 26742  26763M 26764M 26777M 26777  26849M 26849  26921M
             26978M 27096M 27123M 27150M 27177M 27204M 27231M 27258M 27287M 27346  27369M 27394M 27443M 27449M 27489M
             27495M 27610M 27611M 27612  27615M 27616M 27627M 27627  27640M 27640  27677M 27678M 27687M 27687  27748M
             27749M 27758M 27758  27772M 27773M 27800M 27802M 27807M 27808M 27809  28143M 28224M 28225M 28226  28235M
             28236M 28237  28253M 28280M 28305M 28360M 28387M 28559M 28560M 28569M 28569  28575M 28658M 28660  28758M
             28795M 28926  29127M 29128M 29146M 29162  29169M 29176  29188M 29193  29216M 29217M 29226M 29226  29235M
             29240M 29243  29255M 29260  29261M 29264M 29267  29279M 29284  29434M 29436M 29470M 29471M 29483  29510M
             29537M 29814M 29815M 29816  29837M 29838M 29877  29900M 29900  29979M 29995M 30024M 30041M 30042  30199M
             30200M 30212  30280M 30284M 30285M 30286M 30295M 30295  30450M 30451M 30452  30472M 30473M 30474  30642M
             30643M 30644  30652M 30654M 30655  30888M 30914M 30914  30915M 30924M 30924  30933M 30934M 30935  30941M
             30954M 31035M 31111  31217M 31285M 31315  31434M 31482  31625M 31660M 31715  31758  31801M 31802M 31802
             31822M 31851M 31886M 31917  31942M 31963M 31964M 31965  31980M 31981M 31982M 31983  31984  31985  31988M
             31989  32014M 32026  32061M 32061  32062M 32063  32086M 32114  32190M 32192M 32203  32252M 32283  32308
             32374M 32401M 32426M 32568M 32596  32640M 32668  32776M 32803M 32883M 32917  33027M 33054M 33082  33309M
             33309  33310M 33311  33435M 33435  33441M 33442  33599M 33632  33713M 33722M 33722  33729M 33730  33739M
             33739  33817M 33818M 33830  33851M 33867M 33867  33877M 33973M 33974M 33986  34071M 34072M 34084  34093M
             34122  34128M 34129M 34141  34188M 34226  34252M 34256M 34257M 34261M 34262M 34271M 34271  34277M 34293M
             34314M 34319M 34322  34334M 34339  34354M 34388  34422M 34422  34423M 34424  34482M 34513  34649M 34649
             34662M 34740M 34772M 34774M 34810M 34838  34952M 34982M 35079M 35110  35267M 35300  35393M 35431  35492
1         General Purpose Register Cross Reference                                                                          Page  510
             35493  35603M 35646  35730M 35730  35760M 35766  35787M 35885  35916  35959M 35960M 35961  35981M 36002M
             36051  36077M 36078  36082M 36082  36083M 36084  36204M 36238  36264M 36265  36269M 36269  36270M 36271
             36348M 36385  36397M 36402  36404  36466M 36507  36553M 36564  36595M 36596M 36608  36686M 36687M 36699
             36714M 36716  36740M 36771  36860M 36897M 36959  37021M 37022M 37023  37024  37026M 37035M 37035  37041M
             37046M 37047  37184M 37184  37193  37207M 37208  37222M 37237M 37237  37259  37269M 37473M 37507  37628M
             37629M 37630  37672M 37704  37779M 37780M 37781  37805M 37841M 37841  37847M 37848  37908M 37928M 37928
             37969M 38015M 38041M 38041  38088M 38089M 38090  38118M 38147  38259M 38260M 38261  38296M 38328  38395M
             38472M 38503  38641M 38691M 38790  39030M 39030  39071M 39112M 39112  39142M 39157M 39158M 39214M 39326M
             39352M 39352  39370M 39411M 39411  39425M 39426M 39447M 39448M 39472M 39513M 39513  39527M 39528M 39630M
             39704M 39733M 39733  39734M 39766M 39790M 39790  39791M 39986M 40015M 40015  40016M 40081M 40113M 40191M
             40249  40299  40340M 40408M 40429  40498M 40519  40588M 40609  40677M 40727  40827M 40828  40830M 40831
             40947M 40948M 40963  40983  41045M 41076  41161M 41161  41193M 41227  41349M 41387  41426  41453  41462M
             41462  41463M 41464  41531M 41555  41620M 41644  41652M 41653M 41654M 41656  41680M 41718  41744  42008M
             42011  42030M 42068  42107M 42107  42132M 42132  42151M 42151  42174M 42191  42287M 42296M 42297M 42299
             42318M 42448  42510M 42519M 42519  42526M 42544M 42549  42555M 42570M 42570  42584  42600  42601  42651M
             42651  42675M 42689M 42689  42804M 42820M 42820  42834  42849  42850  43347M 43348M 43384M 43387M 43625M
             43625  43626M 43634  43646M 43651  43653  43927M 43958  44074M 44104  44136M 44158M 44255M 44281M 44313
             44346M 44346  44441M 44453M 44502M 44502  44537  44562M 44597  44752M 44785  44870M 44870  44890M 44890
             44891M 44903  44924M 44981  45038M 45038  45052  45068  45093  45257M 45257  45258M 45266M 45269  45295M
             45329  45465M 45497  45532M 45532  45546  45566  45595  45631M 45633  45648M 45681  45720M 45720  45734
             45749  45770  45827M 45839  45897  45912M 46004  46054  46066M 46072  46134M 46134  46145M 46145  46189M
             46222M 46242M 46254  46265M 46479M 46479  46528M 46528  46541  46570M 46632M 46663M 46794M 46794  46804
             46859M 46879M 46903M 46995M 47023M 47023  47024M 47054M 47076M 47076  47077M 47150M 47173M 47234M 47246
             47368M 47407M 47445M 47497  47546  47592M 47592  47624M 47652M 47652  47824M 47835M 47906M 47906  47938M
             48029M 48029  48218M 48269M 48269  48334M 48334  48375M 48375  48418M 48418  48500M 48500  48542M 48542
             48578  48590M 48595  48687M 48711M 48733M 48733  48849M 48849  48868M 48868  48916M 48956M 49218M 49218
             49287M 49287  49328M 49328  49371M 49371  49453M 49453  49494M 49494  49651M 49651  49695M 49695  49757M
             49811M 49833M 49855M 49855  49945M 49967M 49989M 49989  50020M 50042M 50064M 50064  50154M 50176M 50198M
             50198  50304M 50304  50315M 50424M 50471M 50471  50477  50512M 50630M 50657M 50729  50748M 50769M 50769
             50973M 50995M 50995  51074M 51105M 51134M 51200M 51242M 51306M 51306  51369M 51391M 51413M 51413  51429M
             51462M 51487M 51487  51503M 51522M 51522  51538M 51571M 51590M 51590  51606M 51617M 51650M 51661M 51664
             51676M 51716M 51743M 51777M 51914M 52035M 52137M 52137  52138M 52184M 52236M 52293M 52312M 52312  52327M
             52346M 52346  52361M 52380M 52380  52402M 52402  52424M 52450M 52477M 52503M 52578M 52628M 52770  52934M
             52935M 52938  52958M 53011  53046  53064M 53080M 53091M 53125M 53142M 53179M 53179  53195M 53212M 53229M
             53229  53261M 53277M 53313M 53356M 53372M 53383M 53433M 53473M 53488M 53518M 53518  53565M 53581M 53592M
             53653M 53669M 53680M 53741M 53757M 53799M 53815M 53857M 53873M 53915M 53931M 53968M 53990M 54006M 54043M
             54065M 54081M 54102M 54119M 54141M 54156M 54175M 54175  54190M 54209M 54209  54225M 54247M 54263M 54285M
             54301M 54323M 54339M 54377M 54393M 54435M 54451M 54493M 54509M 54551M 54567M 54609M 54625M 54667M 54683M
             54704M 54726M 54742M 54764M 54780M 54802M 54818M 54840M 54856M 54894M 54910M 54936M 54951M 54982M 55001M
             55001  55016M 55042M 55042  55065M 55080M 55099M 55099  55121M 55121  55138M 55157M 55157  55173M 55192M
             55192  55214M 55214  55231M 55250M 55250  55266M 55285M 55285  55307M 55307  55324M 55369  55382M 55397M
             55410M 55465M 55510  55523M 55538M 55551M 55607M 55724  55798M 55813M 55839M 55867M 55868M 55897  55908M
             55925M 55941M 55941  55982M 55993M 56048M 56067M 56067  56089M 56089  56126M 56145M 56145  56167M 56167
             56204M 56223M 56223  56245M 56245  56282M 56301M 56301  56316M 56335M 56335  56351M 56383M 56402M 56402
             56417M 56443M 56443  56480M 56499M 56499  56514M 56533M 56533  56549M 56581M 56600M 56600  56615M 56641M
             56641  56677M 56747M 56766M 56766  56781M 56813M 56813  56849M 56919M 56938M 56938  56953M 56985M 56985
             57024M 57117  57152  57174M 57193M 57193  57208M 57244M 57276M 57295M 57295  57314M 57333M 57333  57360
             57366M 57390M 57406M 57432M 57432  57449M 57491M 57530M 57556M 57601M 57633M 57633  57669M 57693M 57704M
             57762M 57789M 57856M 57875M 57875  57906  57912M 57936M 57952M 57978M 57978  58046M 58065M 58065  58080M
             58099M 58099  58114M 58133M 58133  58148M 58169M 58184M 58205M 58227M 58227  58243M 58262M 58262  58277M
             58296M 58296  58311M 58343M 58362M 58362  58377M 58403M 58403  58420M 58439M 58439  58454M 58473M 58473
             58488M 58520M 58539M 58539  58554M 58580M 58580  58613M 58633M 58633  58649M 58683M 58683  58698M 58724M
             58724  58763M 58774M 58813M 58813  58850M 58861M 58905M 58924M 58924  58940M 58964M 58968  58970M 59021M
             59032M 59071M 59071  59109M 59120M 59164M 59183M 59183  59198M 59229M 59255M 59255  59279M 59283  59285M
             59334M 59370M 59406M 59429M 59513M 59524M 59564M 59583M 59583  59601M 59694M 59725M 59758M 59780M 59810M
             59832M 59867M 59902M 59937M 59963M 59963  59986M 60042M 60072M 60103M 60121M 60121  60136M 60162M 60162
             60193M 60221M 60281M 60303M 60330M 60357M 60414M 60441M 60496M 60602M 60647M 60669M 60684M 60712M 60744M
             60763M 60763  60789M 60789  60839M 60855M 60877M 60899M 60899  60915M 60940M 60980M 61150  61200M 61200
             61216  61240M 61262M 61283M 61298M 61320M 61341M 61356M 61389M 61425M 61460M 61487M 61529M 61548M 61548
1         General Purpose Register Cross Reference                                                                          Page  511
             61570M 61570  61642M 61678M 61714M 61750M 61770M 61818M 61839M 61859M 61912M 61947M 62078M 62111M 62195M
             62230M 62366M 62404M 62404  62524M 62536M 62578M 62608M 62638M 62663M 62663  62691M 62713M 62732M 62766M
             62813M 62860M 62900M 62900  62919M 62938M 62938  62960M 62960  63023M 63076M 63100M 63100  63115M 63139M
             63139  63174M 63213M 63239M 63239  63291M 63357M 63382M 63382  63397M 63422M 63422  63437M 63458M 63458
             63490M 63516M 63516  63567M 63633M 63658M 63658  63673M 63698M 63698  63713M 63745M 63781M 63817M 63853M
             63889M 63908M 63930M 63960M 63982M 64001M 64026M 64026  64041M 64064M 64064  64086M 64086  64153M 64178M
             64178  64200M 64200  64261M 64332M 64416M 64458M 64591  64642  64652M 64667M 64692M 64692  64708M 64740M
             64776M 64812M 64848M 64867M 64894M 64894  64927M 64964M 65001M 65038M 65075M 65101M 65101  65120M 65174M
             65189M 65200M 65251M 65285M 65331M 65377M 65423M 65458M 65458  65495M 65514M 65514  65540M 65540  65583M
             65629M 65650  65703M 65749M 65770  65823M 65869M 65890  65934M 65946M 65980  66003M 66047M 66079M 66101M
             66116M 66150M 66197M 66244M 66291M 66338M 66385M 66432M 66479M 66526M 66560M 66560  66598M 66616M 66616
             66636M 66655M 66655  66689M 66708M 66708  66723M 66749M 66796M 66833M 66833  66912M 66938M 66985M 66997M
             67051M 67066M 67077M 67131M 67146M 67165M 67165  67180M 67199M 67199  67214M 67233M 67233  67248M 67267M
             67267  67282M 67301M 67301  67323M 67323  67411M 67436M 67492M 67518M 67567M 67597M 67637M 67683M 67718M
             67718  67737M 67782M 67814M 67814  67846M 67869M 67888M 67920M 67952  68010M 68010  68011M 68029M 68113M
             68163M 68198M 68198  68199M 68245M 68280M 68280  68281M 68296M 68321M 68321  68360M 68375M 68421M 68421
             68492M 68519M 68519  68549M 68711  68746  68778M 68791M 68794  68806M 68811M 68811  68865M 68935  68972
             69051M 69090M 69181M 69208M 69293M 69294M 69349M 69384M 69428  69483M 69483  69492  69522M 69523M 69526
             69541M 69608  69633  69634M 69634  69650  69677M 69701  69733  69765  69877M 69909  69934  69989M 69990M
             69990  70010M 70043M 70071  70100M 70140M 70142M 70146M 70147M 70148  70149  70251M 70307  70398M 70398
             70434M 70466  70541M 70542  70544M 70564  70780M 70832  70915  70916  71031M 71071M 71172M 71296M 71317M
             71317  71341M 71341  71399M 71426M 71451M 71475M 71475  71516M 71547  71585  71599  71608  71629M 71631M
             71648M 71649M 71702M 71737  71982M 72120M 72158M 72158  72171  72172  72227  72272  72295M 72303M 72329
             72331M 72333  72334  72417  72520  72537  72552M 72554  72608M 72609M 72610  72614M 72615M 72616  72652M
             72693M 72694M 72695  72699M 72700M 72701  72727  72745M 72747  72773M 72773  72791M 72825M 72860  72940M
             73201M 73267  73345M 73347  73368M 73533M 73553M 73553  73672M 73734M 73753M 73778M 73803M 73828M 73853M
             73878M 73903M 73928M 73953M 74027  74062  74424M 74437M 74486M 74519M 74536M 74555M 74555  74599M 74838
             74850M 74856  74861M 74861  74900M 74903M 75119M 75139M 75139  75144  75149  75178M 75178  75279  75315
             75326M 75386M 75418M 75450  75496M 75524  75569M 75607  75622  75671M 75705M 75705  75740M 75768M 75801M
             75843M 75868M 75900M 75921M 75921  75949M 75949  75972M 76023M 76040M 76065M 76113M 76134M 76134  76151M
             76179M 76179  76197M 76222M 76270M 76291M 76291  76308M 76336M 76336  76355M 76373M 76397M 76397  76438M
             76462M 76479M 76480M 76504M 76504  76522M 76550M 76568M 76586M 76603M 76621M 76708M 76725M 76738M 76782M
             76799M 76823M 76840M 76864M 76881M 76905M 76954M 76986M 77010M 77027M 77055M 77079M 77079  77128M 77146M
             77164M 77177M 77218M 77218  77244M 77272M 77306M 77324M 77348M 77372M 77372  77394M 77410M 77442M 77460M
             77478M 77502M 77502  77518M 77535M 77553M 77571M 77589M 77616M 77641M 77641  77669M 77687M 77703M 77714M
             77732M 77748M 77759M 77786M 77832  77879M 77967M 78089  78127  78182M 78208M 78223M 78242M 78242  78264M
             78264  78405M 78419  78439M 78446  78458M 78463  78559M 78564M 78596M 78649  78684  78740M 78754M 78817M
             78838M 78838  78852  78863  78887M 78888  78995M 78995  79009  79019  79050M 79050  79076M 79076  79085
             79127M 79206M 79239  79281  79304M 79306M 79317  79386M 79387M 79532M 79611  79647M 79647  79661  79702
             79735M 79804M 79839  79875M 79875  79889  79904M 79905M 79906M 79907  79934M 79935M 79937  79957M 79988
             80136M 80171M 80277  80292M 80292  80315M 80400M 80400  80422M 80430  80445M 80445  80468M 80542M 80542
             80560M 80630M 80630  80655M 80760M 80760  80762M 80762  80763M 80764  80862  80881M 80984  81013M 81025M
             81026M 81043  81048  81218M 81225  81250M 81250  81256  81277M 81295M 81476M 81481M 81585M 81585  81604M
             81609  81625M 81673M 81695M 81749M 81830M 81849M 81854M 81855M 81871  81901  81950M 82032  82038M 82045M
             82067M 82144  82155M 82165M 82171M 82207M 82239M 82320  82337M 82365M 82388M 82417M 82519M 82608M 82631M
             82660M 82744M 82744  82763M 82785M 82795M 82796M 82812M 82812  82813M 82919M 82948M 83031M 83031  83050M
             83082M 83083M 83085  83089M 83089  83090M 83091M 83092M 83209  83334M 83434  83453M 83643M 83693M 83785
             83830M 83832M 83836  83872M 83886M 83886  83981  84070M 84158M 84246M 84361M 84464  84511M 84511  84519
             84563M 84588M 84614  84712M 84712  84724  84726M 84728  84735M 84747  84762M 84763M 84763  84776M 84812M
             84812  84825M 84825  84865M 84872  84890M 84897M 84898M 84899M 84905M 84906M 84914M 84924  84926M 84932
             84933M 84934M 84936M 84945M 84992M 84997  85067M 85079  85086M 85091M 85104M 85216  85250M 85281M 85747
             85815M 85842  85871  85906M 85940M 85974M
     1(1)     1048U  8081U  8181U  8730   9140   9156M  9158M  9158   9164M  9166   9168   9169   9175M  9177   9178
              9179N  9181   9203M  9205   9206   9207N  9209   9220M  9222   9228   9229M  9230   9231M  9232   9244M
              9254M  9272M  9284M  9284   9302M  9316M  9316   9358M  9410M  9441M  9460M  9478M  9500M  9500   9558M
              9576M  9661M  9663   9693M  9695   9727M  9729   9731   9734   9849M  9878M  9879M  9879  10034U 10038M
             10069U 10108M 10157  10281M 10308  10314M 10316M 10406  10452M 10452  10454  10477D 10479M 10479  10480M
             10481U 10482M 10482N 10484  10489D 10491M 10491  10492M 10493U 10494M 10494N 10496  10501D 10503M 10503
             10504M 10505U 10506M 10506N 10508  10513D 10515M 10515  10516M 10517U 10518M 10518N 10520  10586M 10610M
1         General Purpose Register Cross Reference                                                                          Page  512
             10634M 10683M 10718  10743  10809M 10841M 10843N 10844  10908M 10938  11088M 11110M 11119M 11127  11135M
             11149M 11211M 11226M 11309M 11339M 11373M 11417M 11453M 11458M 11629M 11659M 11690M 11717M 11746  11779
             11780M 11785M 11807M 11858  11948M 11962M 11968M 11990M 11999M 12088M 12103U 12150U 12254M 12289M 12312M
             12347M 12352M 12446M 12460U 12550M 12555M 12568U 12586M 12616  12721M 12739M 12776M 12793M 12815M 12824M
             12942M 12983M 13029M 13034M 13067M 13097  13122  13175M 13194M 13217M 13234M 13273M 13292D 13294M 13294
             13295M 13296U 13323M 13342D 13344M 13344  13345M 13346U 13385M 13402M 13469M 13563  13665  13674  13703M
             13704M 13708M 13718U 13730U 13917M 13946  13990M 14042M 14049M 14059M 14064M 14083D 14085M 14085  14086M
             14087U 14146M 14225  14325D 14327M 14327  14328M 14329U 14330M 14331M 14331N 14342  14352M 14395M 14396M
             14447M 14448M 14472M 14473M 14512M 14564  14633M 14803M 14838M 14861M 14896M 14901M 14973M 14987U 15059U
             15064M 15123M 15187  15236  15237M 15238M 15350M 15355  15443M 15448  15490M 15545M 15604  15639  15666M
             15700  15784M 15807M 15827M 15881M 15895U 16052U 16075M 16130  16172  16211M 16232M 16267M 16301M 16333
             16358  16455M 16506M 16571M 16594M 16632M 16665M 16683M 16699M 16717M 16770M 16805M 16810  16862M 16886
             16901M 17072M 17112M 17145  17211  17212M 17213M 17293M 17325M 17343M 17431M 17448M 17555M 17565  17575M
             17762M 17785M 17812M 17839M 17866M 17960M 17995  18020  18151M 18174M 18210M 18228M 18244M 18262M 18345M
             18378M 18451  18476  18627  18628N 18629  18635M 18636M 18637  18658M 18659M 18848  18849  18888M 18943M
             18945  18974M 19005  19089M 19119M 19222  19251  19373M 19450M 19465M 19465N 19508M 19529M 19550M 19612M
             19636M 19681M 19707M 19729M 19750M 19811M 19844M 19921  19993M 20016M 20160  20230M 20232M 20389M 20423
             20550M 20629  20703M 20726M 20771M 20771  21256  21377M 21379M 21389M 21486U 21591U 21612M 21617  21632M
             21661M 21688M 21715M 21742M 21769M 21798M 21825M 21885M 21931M 22181  22204  22207M 22229M 22260  22285
             22351M 22392M 22425M 22457M 22491M 22527M 22541M 22562M 22567  22626M 22660  22697M 22697  22712  22812M
             22825M 22825  22834  22913  22942M 23050  23189M 23227  23438M 23474  23591  23624M 23685  23686  23714M
             23715M 23814M 23843M 23922M 23955  24118M 24146  24242M 24260M 24281M 24296M 24330M 24360  24622M 24654
             24679  24682M 24684M 24703M 24731  24802M 24830  24884M 24992  25041  25042  25059M 25061  25062  25092
             25106M 25120M 25159M 25177M 25193M 25211M 25268M 25312M 25313  25429M 25430M 25431M 25432M 25433M 25434M
             25435M 25436M 25437M 25871M 25871  25936M 25980M 26000D 26002M 26002  26003M 26004U 26061  26071M 26089M
             26138  26149M 26154  26188M 26218U 26239U 26262M 26414M 26473M 26614M 26736M 26737M 26738M 26739M 26740M
             26741M 26742M 26743M 26744M 26765M 26766M 26863  26920M 26977M 27089M 27118M 27145M 27172M 27199M 27226M
             27253M 27280M 27340M 27347  27362M 27389M 27444M 27450M 27470M 27490M 27496M 27778  27779N 27780  27801M
             27802M 28142M 28170M 28173  28185M 28192M 28194  28246M 28275M 28300M 28353M 28382M 28509M 28510  28576M
             28753M 28795M 28926  29127M 29128M 29137M 29137  29261M 29284  29391M 29435M 29436M 29503M 29532M 29568M
             29616M 29643  29653M 29653  29671  29685  29716  29980M 29996M 30010  30016M 30021  30023  30024M 30280M
             30282M 30286M 30863M 30887M 30910M 30915M 30940M 30955M 31035M 31111  31160M 31179M 31193  31216M 31262M
             31285M 31315  31401M 31408M 31413  31434M 31482  31620M 31660M 31715  31757  31796M 31817M 31852M 31886M
             31917  31947  31980M 31981M 32039  32040  32057M 32062M 32063M 32064M 32065M 32069M 32071  32086M 32114
             32191M 32193M 32203  32252M 32283  32309  32367M 32396M 32421M 32568M 32596  32640M 32668  32769M 32798M
             32883M 32917  32942  33026M 33054M 33082  33151M 33172U 33194M 33224M 33254M 33282M 33296U 33305M 33310M
             33311M 33312M 33313M 33436M 33437M 33438M 33439M 33440M 33441M 33442M 33443M 33444M 33551M 33566  33578
             33599M 33632  33819M 33820M 33840  33850M 33868M 33876M 34092M 34188M 34226  34252M 34254M 34259M 34277M
             34293M 34307M 34339  34354M 34388  34418M 34423M 34424M 34425M 34426M 34482M 34513  34663M 34745  34746
             34773M 34774M 34810M 34838  34951M 34981M 35007M 35079M 35110  35135  35267M 35300  35325  35393M 35431
             35603M 35646  35712  35732M 35732  35755M 35766  35787M 35885  35915  35982M 35984  36002M 36051  36076
             36077M 36078M 36083M 36087M 36099M 36099  36114U 36138M 36144U 36158M 36158  36189  36204M 36238  36263
             36264M 36265M 36270M 36274M 36286M 36286  36301U 36323  36329M 36335U 36346M 36348  36350  36378M 36442M
             36444  36466M 36507  36546  36557D 36559M 36559  36560M 36561U 36562M 36564  36595  36614M 36623  36628
             36671M 36705M 36714M 36716  36740M 36771  36843  36853M 36897M 36959  36984  37091M 37151M 37193M 37197M
             37206M 37206N 37208M 37209  37221M 37260  37267M 37348M 37372M 37474M 37494M 37535M 37545U 37551  37634M
             37649U 37672M 37704  37729  37901M 37930M 37930  37968M 37986M 38008M 38028M 38075M 38093M 38118M 38147
             38172M 38183M 38183  38198U 38270M 38276U 38296M 38328  38353  38394M 38408M 38435M 38447M 38472M 38503
             38528  38640M 38654M 38667M 38691M 38790  38849  39004M 39017M 39017  39026  39032M 39032  39070M 39088M
             39135M 39156M 39213M 39227M 39260M 39289M 39325M 39344D 39346M 39346  39347M 39348U 39369M 39387M 39424M
             39446M 39471M 39489M 39526M 39558M 39625M 39635  39646M 39646  39652  39703M 39726M 39765M 39781D 39783M
             39783  39784M 39785U 39786M 39786N 39794M 39822M 39831M 39932M 39985M 40008M 40080M 40112M 40134M 40151M
             40191M 40249  40285  40300  40341M 40361  40409M 40448M 40499M 40538M 40589M 40628M 40677M 40727  40762
             40867M 40868  40897M 40942M 40963M 40983M 41008M 41009  41011M 41045M 41076  41114M 41114  41149  41193M
             41227  41252  41266M 41276U 41290M 41290  41317M 41324  41331U 41349M 41387  41427  41457M 41457N 41465M
             41465N 41466  41529M 41529N 41680M 41718  41743  41831D 41833M 41833  41834M 41835U 41836  41864M 41866
             41883  41898N 41899N 42009M 42011  42030M 42068  42138  42172M 42205  42285M 42295M 42299  42318M 42448
             42483  42554M 42638M 42673M 42695M 42805M 43092M 43267D 43269M 43269  43270M 43271U 43272  43289M 43291
             43332M 43396  43573M 43586M 43586  43592  43627M 43731M 43744M 43744  43750  43862M 43927M 43958  43983M
1         General Purpose Register Cross Reference                                                                          Page  513
             43993U 44003  44004M 44013M 44013  44045M 44061U 44074M 44104  44135M 44159M 44229M 44254M 44281M 44313
             44440M 44453M 44536  44538M 44562M 44597  44664M 44664  44679U 44734U 44752M 44785  44851  44872M 44872
             44892M 44903  44924M 44981  45088M 45259M 45267M 45269  45295M 45329  45363U 45378M 45389M 45389  45439M
             45439  45445  45452U 45465M 45497  45594  45648M 45681  45805M 45912M 46004  46071  46084M 46109M 46156M
             46156  46188M 46221M 46264M 46389M 46424M 46540  46542M 46569M 46611M 46631M 46662M 46803  46813M 46858M
             46878M 46898M 46937M 46937  46943  46994M 47016M 47053M 47067D 47069M 47069  47070M 47071U 47072M 47072N
             47080M 47111M 47155  47174M 47367M 47380M 47406M 47444M 47623M 47787M 47823M 47835M 47937M 48217M 48249M
             48249  48353M 48353  48398M 48398  48515M 48515  48686M 48706M 48915M 48955M 49046M 49198M 49198  49306M
             49306  49351M 49351  49467M 49467  49669M 49669  49752M 49810M 49826M 49938M 49960M 50019M 50035M 50147M
             50169M 50266M 50314M 50326M 50337M 50337  50352U 50366M 50372U 50400M 50413M 50413  50423M 50462  50477M
             50511M 50564M 50605M 50618M 50618  50624  50629M 50641M 50656M 50677M 50682  50704M 50704  50835M 50966M
             51073M 51104M 51133M 51193M 51215M 51235M 51253M 51368M 51384M 51428M 51461M 51483M 51502M 51518M 51537M
             51570M 51586M 51605M 51617M 51649M 51690M 51715M 51736M 51776M 51866M 51913M 52034M 52132M 52183M 52235M
             52292M 52308M 52326M 52342M 52360M 52376M 52423M 52445M 52472M 52496M 52559M 52565M 52577M 52628M 52770
             52879M 52935  52938  52958M 53011  53059M 53079M 53124M 53141M 53157M 53194M 53213M 53260M 53276M 53312M
             53349M 53371M 53383M 53432M 53466M 53487M 53558M 53580M 53592M 53646M 53668M 53680M 53734M 53756M 53792M
             53814M 53850M 53872M 53908M 53930M 53967M 53983M 54005M 54042M 54058M 54080M 54101M 54118M 54134M 54155M
             54171M 54189M 54205M 54224M 54240M 54262M 54278M 54300M 54316M 54338M 54370M 54392M 54428M 54450M 54486M
             54508M 54544M 54566M 54602M 54624M 54660M 54682M 54703M 54719M 54741M 54757M 54779M 54795M 54817M 54833M
             54855M 54887M 54909M 54929M 54950M 54981M 54997M 55015M 55058M 55079M 55095M 55137M 55153M 55172M 55188M
             55230M 55246M 55265M 55281M 55323M 55352M 55369  55375M 55396M 55410M 55464M 55493M 55510  55516M 55537M
             55551M 55607M 55724  55759  55780M 55812M 55834M 55907M 55925M 55981M 56047M 56063M 56125M 56141M 56203M
             56219M 56281M 56297M 56315M 56331M 56350M 56382M 56398M 56416M 56479M 56495M 56513M 56529M 56548M 56580M
             56596M 56614M 56676M 56705M 56746M 56762M 56780M 56848M 56877M 56918M 56934M 56952M 57024M 57117  57153
             57173M 57189M 57207M 57221D 57223M 57223  57224M 57225U 57226M 57237M 57237N 57275M 57291M 57313M 57329M
             57344M 57361  57365M 57385M 57405M 57448M 57486M 57529M 57551M 57600M 57612M 57620  57692M 57761M 57790M
             57825M 57855M 57871M 57890M 57907  57911M 57931M 57951M 58045M 58061M 58079M 58095M 58113M 58129M 58147M
             58162M 58183M 58198M 58242M 58258M 58276M 58292M 58310M 58342M 58358M 58376M 58419M 58435M 58453M 58469M
             58487M 58519M 58535M 58553M 58612M 58624M 58625M 58648M 58660M 58661M 58670M 58670  58697M 58762M 58774M
             58849M 58861M 58898M 58920M 58939M 58959M 59020M 59032M 59108M 59120M 59157M 59179M 59197M 59228M 59274M
             59333M 59369M 59405M 59428M 59506M 59524M 59563M 59579M 59693M 59724M 59757M 59773M 59809M 59825M 59866M
             59901M 59936M 59981M 60041M 60071M 60102M 60117M 60135M 60186M 60214M 60274M 60296M 60323M 60352M 60407M
             60436M 60491M 60601M 60646M 60662M 60683M 60705M 60743M 60759M 60838M 60854M 60870M 60914M 60933M 60980M
             61150  61217  61239M 61255M 61276M 61297M 61313M 61334M 61355M 61388M 61424M 61459M 61494M 61528M 61544M
             61641M 61677M 61713M 61749M 61769M 61817M 61832M 61858M 61901D 61903M 61903  61904M 61905U 61940M 62019M
             62067D 62069M 62069  62070M 62071U 62110M 62184D 62186M 62186  62187M 62188U 62223M 62307M 62355D 62357M
             62357  62358M 62359U 62523M 62536M 62577M 62593M 62607M 62623M 62637M 62655D 62657M 62657  62658M 62659U
             62690M 62706M 62731M 62765M 62812M 62859M 62892D 62894M 62894  62895M 62896U 62918M 62934M 63018M 63075M
             63092D 63094M 63094  63095M 63096U 63114M 63131D 63133M 63133  63134M 63135U 63173M 63212M 63286M 63356M
             63374D 63376M 63376  63377M 63378U 63396M 63414D 63416M 63416  63417M 63418U 63436M 63454M 63489M 63562M
             63632M 63650D 63652M 63652  63653M 63654U 63672M 63690D 63692M 63692  63693M 63694U 63712M 63744M 63780M
             63816M 63852M 63888M 63907M 63923M 63959M 63975M 64000M 64018D 64020M 64020  64021M 64022U 64040M 64060M
             64152M 64170D 64172M 64172  64173M 64174U 64256M 64327M 64411M 64458M 64591  64628  64643  64651M 64666M
             64684D 64686M 64686  64687M 64688U 64707M 64739M 64775M 64811M 64847M 64866M 64890M 64926M 64963M 65000M
             65037M 65074M 65119M 65188M 65201M 65221  65232M 65250M 65284M 65330M 65376M 65422M 65454M 65494M 65510M
             65582M 65630M 65702M 65750M 65822M 65870M 65933M 65956M 65980  66042M 66078M 66115M 66149M 66196M 66243M
             66290M 66337M 66384M 66431M 66478M 66525M 66556M 66597M 66612M 66635M 66651M 66688M 66704M 66722M 66744M
             66795M 66811M 66911M 66933M 66984M 66998M 67018  67029M 67065M 67078M 67098  67109M 67145M 67161M 67179M
             67195M 67213M 67229M 67247M 67263M 67281M 67297M 67410M 67431M 67491M 67513M 67566M 67582M 67596M 67636M
             67682M 67714M 67736M 67771D 67773M 67773  67774M 67775U 67845M 67864M 67888M 67920M 67952  67979  68003M
             68079M 68112M 68162M 68191M 68244M 68273M 68295M 68313D 68315M 68315  68316M 68317U 68374M 68412M 68491M
             68549M 68711  68747  68785M 68822M 68865M 68935  68970  68971  69058M 69097M 69207M 69344M 69384M 69428
             69453  69455M 69492M 69512M 69522  69524M 69526  69541M 69608  69676M 69877M 69909  69935  69970M 70005M
             70043M 70071  70106  70141M 70142M 70230M 70232  70251M 70307  70342  70385M 70386  70407M 70434M 70466
             70491  70542M 70543M 70544  70609M 70665M 70712M 70740M 70780M 70832  70914  71030M 71030N 71070M 71171M
             71263M 71289M 71313M 71392M 71419M 71446M 71516M 71547  71629  71630M 71631M 71650M 71702M 71737  71762
             71982M 72042  72124M 72124  72271  72294M 72332M 72417  72536  72547M 72553  72618M 72635M 72727  72825M
             72860  72885  72944M 72944  73173M 73201M 73267  73302  73346M 73347  73375M 73540M 73560M 73672M 73733M
             73752M 73777M 73802M 73827M 73852M 73877M 73902M 73927M 73952M 74027  74063  74417M 74437M 74485M 74518M
1         General Purpose Register Cross Reference                                                                          Page  514
             74537M 74599M 74855  74863M 74863  74901M 74902M 74903M 74954M 74956  75279  75314  75331M 75377M 75388M
             75418M 75450  75496M 75524  75569M 75622  75646  75669M 75671  75673  75674  75739M 75763M 75800M 75842M
             75856M 75857M 75899M 75917M 75971M 76022M 76039M 76058M 76112M 76130M 76150M 76196M 76215M 76269M 76287M
             76307M 76354M 76372M 76437M 76455M 76521M 76549M 76567M 76585M 76602M 76620M 76701M 76724M 76738M 76777M
             76798M 76816M 76839M 76857M 76880M 76898M 76947M 76985M 77003M 77026M 77048M 77127M 77145M 77163M 77177M
             77240M 77271M 77305M 77323M 77341M 77393M 77409M 77441M 77459M 77477M 77517M 77534M 77552M 77570M 77588M
             77609M 77668M 77686M 77702M 77713M 77731M 77747M 77758M 77778M 77785  77786M 77832  77877M 77932M 77967M
             78089  78130  78150M 78152N 78153  78181M 78203M 78222M 78238M 78312M 78314  78320  78373M 78510M 78537M
             78539N 78540  78544M 78545  78548  78554  78556M 78556  78557M 78559M 78560M 78560  78563M 78563  78564
             78565M 78596M 78649  78684  78712M 78739M 78754M 78817M 79086  79125M 79127  79129  79130  79206M 79239
             79280  79302M 79316  79318  79344M 79387  79532M 79611  79702  79737M 79737  79764M 79781M 79783  79804M
             79839  79919M 79919  79933M 79937  79957M 79988  80014  80137M 80149M 80149  80151  80171M 80276  80420M
             80429  80558M 80653M 80749  80750M 80751M 80755M 80758  80759M 80981  80986M 80987M 80990M 81007M 81026
             81042M 81043M 81068M 81132  81217M 81225  81275M 81294M 81475M 81481M 81596M 81596  81604M 81610  81626M
             81656  81666M 81688M 81744M 81750M 81828M 81854  81943M 82033  82039M 82046M 82060M 82145  82154  82156M
             82166M 82169  82172M 82185  82200M 82232M 82344M 82372M 82395M 82410M 82501  82526M 82615M 82638M 82653M
             82755M 82755  82763M 82795M 82796M 82805M 82806M 82807M 82807N 82814M 82907  82926M 82941M 83042M 83042
             83050M 83082M 83083M 83085M 83090M 83091M 83092  83100M 83101M 83108M 83108N 83109  83111M 83213M 83442
             83447  83450  83451  83452  83604  83642M 83643  83661M 83685M 83693  83713M 83833  83835M 83982  84069M
             84157M 84245M 84360M 84464  84517M 84518  84535  84562  84588M 84614  84727  84759M 84826M 84864M 84865M
             84866M 84872M 84873  84883M 84883  84896  84898M 84935M 84936M 84992M 85245M 85276M 85542  85555M 85663
             85676M 85747  85815M 85842  85871  85895D 85897M 85897  85898M 85899U 85939M 85974M
     2(2)     1044U  8730   9181M  9186M  9209M  9214M  9222M  9227M  9321M  9322M  9334   9420M  9430U  9455U  9567M
              9735M  9747M  9747   9780M 10008M 10019M 10019  10038  10039M 10157  10281M 10308  10316M 10406  10455M
             10456  10683M 10718  10834M 10843  10908M 10938  11037D 11039M 11039  11040M 11041U 11059  11178D 11180M
             11180  11181M 11182U 11383M 11717M 11746  11807M 11858  12586M 12616  12951M 12981M 13067M 13097  13139D
             13141M 13141  13142M 13143U 13144M 13160  13167M 13469M 13563  13624M 13650  13682  13695  13917M 13946
             14146M 14225  14316M 14317M 14318M 14320  14330  14387  14464  14475M 14476M 14477  14512M 14564  15123M
             15187  15545M 15604  15690M 15698U 15708U 15726M 15729  15741M 15755  15766N 15828  15829  15830  15843
             16075M 16130  16172M 16182U 16232  16267  16283U 16301M 16333  16456M 16509M 16525M 16526M 16527M 16547
             16561  16637  16775  17112M 17145  17227M 17228M 17229M 17230  17251N 17960M 17995  18035M 18036M 18037M
             18038  18039N 18138M 18151  18188  18206M 18262  18378M 18451  18501M 18502M 18503M 18599  18630  18849M
             18853M 18886M 18974M 19005  19030M 19040U 19050  19052M 19089  19094M 19106U 19119M 19222  19251M 19450N
             19844M 19921  20389M 20423  20550M 20629  20909M 20926M 21497M 21498  21502M 21504  22229M 22260  22626M
             22660  22712M 22722U 22812  22834M 22929U 22942M 23050  23189M 23227  23252M 23327  23341  23352M 23363M
             23363  23378U 23404M 23410U 23438M 23474  23591M 23713  23922M 23955  24118M 24146  24330M 24360  24622M
             24654  24679M 24684M 24703M 24731  24802M 24830  24884M 24992  25056M 25057M 25058M 25059  25060  25092
             25155M 25211  25268M 25274M 25275M 25276M 25288  25297  25312  25362M 25377  25551M 25551  25708M 25746M
             25746  25947N 26145  26146  26147  26301M 26311U 26410U 27316M 27334M 27334  27346M 27352  27394  27414M
             27424U 27510U 27711M 27721U 27731  27733M 27779  27780M 27818U 27994M 28034M 28300  28545M 28555U 28593U
             28795M 28926  29340M 29350U 29391  29446U 29569M 29580M 29580  29595U 29621M 29627U 29957M 29958M 29970
             29989M 29989  29995  29996  30043M 30044M 30077M 30080M 30131  30145M 30160  30166  30386  31035M 31111
             31158M 31159M 31193  31256  31285M 31315  31434M 31482  31577M 31587U 31620  31642U 31660M 31715  31757M
             31772U 31817  31852  31868U 31886M 31917  32012M 32040M 32045M 32086M 32114  32252M 32283  32308M 32426
             32568M 32596  32640M 32668  32883M 32917  33054M 33082  33599M 33632  34188M 34226  34354M 34388  34413M
             34418  34454  34482M 34513  34552M 34663  34772  34810M 34838  35079M 35110  35135M 35167  35267M 35300
             35325M 35355  35393M 35431  35475M 35476M 35486U 35555M 35556M 35568  35578M 35578  35583  35590U 35603M
             35646  35671M 35681U 35695M 35695  35721M 35741M 35741  35767  35774U 35787M 35885  35914M 35927M 35927
             35969  35970M 35985  36002M 36051  36084M 36085M 36086M 36204M 36238  36271M 36272M 36273M 36466M 36507
             36623M 36671  36705  36740M 36771  36897M 36959  37152M 37165  37199M 37226M 37226  37259M 37291  37328M
             37328  37342M 37342  37349M 37351N 37372  37373M 37374  37672M 37704  37748M 37749N 37752M 37752N 37753
             38118M 38147  38202M 38270  38296M 38328  38472M 38503  38528M 38538U 38576  38654  38667  38678U 38691M
             38790  39557M 39574  39652M 39662U 39831  39841U 40191M 40249  40677M 40727  41045M 41076  41148M 41174
             41193M 41227  41252M 41262U 41336U 41349M 41387  41680M 41718  41743M 41899M 41899  41929N 41934M 41935M
             41949  41963  41977M 42002N 42030M 42068  42138M 42206  42318M 42448  42601M 42604M 42606  42623  42850M
             42853M 42855  42872  42938D 42940M 42940  42941M 42942U 42945M 42947  43259D 43261M 43261  43262M 43263U
             43264M 43264N 43480M 43592M 43602U 43700U 43927M 43958  44003M 44040  44045  44074M 44104  44147M 44184
             44210M 44210  44225U 44229  44230M 44240U 44281M 44313  44531M 44538  44562M 44597  44752M 44785  44810M
             44820U 44834M 44834  44860M 44881M 44881  44904  44911U 44924M 44981  45093M 45098  45144  45249D 45251M
