1         General Purpose Register Cross Reference                                                                          Page  515
             45251  45252M 45253U 45258N 45259N 45295M 45329  45367M 45465M 45497  45594M 45595M 45596M 45648M 45681
             45749M 45753M 45755  45770M 45783M 45783  45807M 45821M 45821  45912M 46004  46071M 46076M 46508M 46542
             46591  46803M 46858  46898  47174  48599M 48601  48641  48711  48831M 48974M 48974N 49866M 50004M 50004N
             50075M 50213M 50213N 50230M 50241M 50241  50256U 50266  50271M 50277U 50462M 50501M 50501  50539M 50539
             50554U 50564  50677  50682M 50688U 50861M 50896M 50896N 50908  50915M 50966  51017  51145M 51317M 51317N
             51983M 51994M 51994  52009U 52132  52203M 52209U 52522M 52532U 52599U 52628M 52770  52809M 52822M 52822
             52873M 52892M 52892  52928M 52936  52958M 53011  53092M 53384M 53444M 53499M 53499N 53593M 53681M 55335M
             55346M 55346  55437M 55476M 55487M 55487  55578M 55607M 55724  55994M 56688M 56699M 56699  56796M 56860M
             56871M 56871  56968M 57024M 57117  57360M 57390  57460M 57470U 57508U 57708M 57708  57906M 57936  59528M
             59528  59559M 59579  59623  59630M 59986  60341M 60357  60425M 60441  60467M 60496  60613M 60624M 60624
             60639U 60662  60800M 60806U 60980M 61150  61581M 61598  61870M 61878  61890  61925M 61966  62056  62091M
             62105M 62122M 62131  62173  62208M 62245M 62254  62344  62379M 62454  62674M 62675M 62706  62973M 63448M
             63449M 63454  63546  63548M 63567  64052M 64053M 64054M 64055  64097M 64109  64221  64458M 64591  64880D
             64882M 64882  64883M 64884U 64885M 64890  64916  64953  64990  65027  65064  65473M 65485  65510  65980
             66996M 66998  67018M 67078  67098M 67366M 67447M 67447N 67561M 67748M 67748N 67795M 67888M 67920M 67952
             68176D 68178M 68178  68179M 68180U 68181N 68258D 68260M 68260  68261M 68262U 68263N 68549M 68711  68865M
             68935  69106M 69122N 69138N 69234M 69234N 69252M 69273M 69309M 69384M 69428  69473M 69474M 69479  69541M
             69608  69638M 69650  69676  69677  69689M 69689  69708M 69740M 69772M 69777  69877M 69909  70043M 70071
             70251M 70307  70434M 70466  70780M 70832  71268M 71313  71516M 71547  71645M 71646M 71647M 71649  71650N
             71702M 71737  71982M 72017  72278M 72279M 72279  72305M 72321M 72321  72329  72331  72334M 72336  72362M
             72417  72520M 72745  72825M 72860  73201M 73267  73672M 73706  73972M 74027  74062M 74536  74599M 74745
             74924M 74925M 74942M 74942N 74947  74981  75012M 75029M 75029N 75207M 75279  75418M 75450  75475M 75476M
             75477B 75496M 75524  75549M 75550B 75569M 75622  75817D 75819M 75819  75820M 75821U 75833  75856  75917
             76053M 76058  76078M 76079M 76090M 76090  76103  76130  76210M 76215  76235M 76236M 76247M 76247  76260
             76287  76410M 76475M 76475N 76918M 76919M 76919N 76920M 76932  77003  77231M 77786M 77832  77899M 77909U
             77946U 77967M 78089  78155M 78238  78596M 78649  79059M 79138  79206M 79239  79316M 79338  79344  79358
             79380M 79386  79469M 79489  79532M 79611  79804M 79839  79957M 79988  80171M 80251  80335M 80363  80488M
             80513  80550D 80552M 80552  80553M 80555M 80557  80577M 80601  80634D 80636M 80636  80637M 80643M 80650M
             80652  80673M 80697  80765M 80766M 80796M 80824  80864M 80865M 80874M 80876M 80880M 80904M 80930  80983M
             80984M 80985N 80987  81048M 81051M 81053  81093M 81151  81323M 81377M 81382  81405M 81459M 81464  81503M
             81537  81656M 81688  81829M 81855  81970M 82004  82082M 82116  82171  82258M 82290  82432M 82464  82675M
             82709  82769M 82779U 82792U 82802M 82802  82803M 82805  82830M 82871  82963M 82996  83056M 83066U 83072M
             83079U 83097M 83097  83098M 83099M 83102  83106M 83106  83107M 83126M 83159  83213M 83219M 83243  83250M
             83270M 83290  83313  83319M 83329M 83330  83359M 83384  83435M 83435  83436M 83437M 83437  83438M 83439M
             83440  83443M 83443  83444M 83445M 83446  83478M 83604  83654M 83686  83713M 83749  83906M 83935  84007M
             84038  84095M 84126  84183M 84214  84282M 84313  84425M 84464  84518M 84519M 84521M 84535  84556M 84562M
             84588M 84614  84727M 84936M 84992M 85027  85143M 85177  85311M 85345  85443M 85512  85540M 85555  85599M
             85633  85661M 85676  85720M 85747  85815M 85842  85974M
     3(3)     1040U  8730   9171M  9174   9179   9186M  9199M  9202   9207   9214M  9216M  9219   9227M  9323M  9324M
              9334   9734M  9762U  9778M  9786U  9792M  9802U  9821U  9823  10157  10281M 10308  10316M 10406  10683M
             10718  10908M 10938  11384M 11397M 11397  11423M 11717M 11746  11807M 11858  12586M 12616  12952M 12954
             12981M 13067M 13097  13469M 13563  13674M 13760  13761  13779  13780  13861  13862  13880  13881  13917M
             13946  14146M 14225  14319M 14320M 14450M 14451M 14459  14512M 14564  15123M 15187  15545M 15604  16075M
             16130  16186M 16201  16237  16266  16301M 16333  16661M 16717  16810M 16820U 17089U 17112M 17145  17537M
             17538M 17539M 17540M 17540N 17550U 17937U 17960M 17995  18378M 18451  18850M 18852  18853M 18882M 18885
             18886M 18974M 19005  19050M 19088  19094  19119M 19222  19252M 19293  19303  19448  19844M 19921  20389M
             20423  20550M 20629  21497M 22229M 22260  22626M 22660  22942M 23050  23189M 23227  23438M 23474  23592M
             23680N 23695  23708  23719  23736  23746M 23747  23922M 23955  24118M 24146  24330M 24360  24622M 24654
             24680M 24683M 24684M 24703M 24731  24802M 24830  24884M 24992  25363M 27317M 27347M 27389  27731M 27778N
             27995M 28035M 28130  28162M 28162  28169  28170  28224  28235  28305  28795M 28926  29354M 29355M 29364M
             29364  29384  29413  29434N 29916M 29924U 29939M 29940M 29940  30036U 31035M 31111  31285M 31315  31434M
             31482  31660M 31715  31758M 31786  31822  31851  31886M 31917  32009M 32010M 32010N 32011  32012M 32013
             32014  32045M 32086M 32114  32252M 32283  32309M 32421  32568M 32596  32640M 32668  32883M 32917  33054M
             33082  33599M 33632  34188M 34226  34354M 34388  34482M 34513  34553M 34662  34740N 34754  34767  34810M
             34838  35079M 35110  35153M 35247  35267M 35300  35343M 35373  35393M 35431  35493M 35505  35512M 35519M
             35528M 35528  35535  35603M 35646  35787M 35885  35915M 35969M 36002M 36051  36204M 36238  36350M 36360U
             36373  36375  36453U 36466M 36507  36628M 36638U 36652M 36652  36727U 36740M 36771  36897M 36959  37153M
             37165  37260M 37350M 37351  37373  37377M 37386M 37386  37393  37672M 37704  37749M 38118M 38147  38296M
             38328  38472M 38503  38545M 38561U 38585M 38594M 38594  38614U 38666  38691M 38790  39635M 39681M 39855M
1         General Purpose Register Cross Reference                                                                          Page  516
             39855  39879U 39895M 39895  39955M 39955  40144U 40191M 40249  40305M 40316M 40316  40364M 40373M 40384M
             40384  40454M 40463M 40474M 40474  40544M 40553M 40564M 40564  40634M 40677M 40727  41045M 41076  41193M
             41227  41349M 41387  41680M 41718  41744M 41977  42030M 42068  42205M 42206M 42217M 42217  42231  42245
             42248M 42250  42267  42282N 42318M 42448  43927M 43958  44074M 44104  44281M 44313  44562M 44597  44752M
             44785  44924M 44981  45295M 45329  45370D 45372M 45372  45373M 45374U 45375  45405  45465M 45497  45648M
             45681  45912M 46004  46072M 46073M 46076M 46506M 46539  46804M 46859  46903  47173  47209  47212M 47214
             48600M 48835M 48835  48905  48977M 49870M 49870  49884  49938  50007M 50079M 50079  50093  50147  50216M
             50624M 50641  50862M 50863M 50875  50885M 50885  50921M 50930M 50930  51149M 51149  51165  51320M 52628M
             52770  52809M 52871M 52879  52926M 52934  52936  52958M 53011  53092M 53384M 53445M 53456M 53456  53501M
             53593M 53681M 55607M 55724  55994M 57024M 57117  57361M 57385  57712M 57712  57907M 57931  59530M 59530
             59740M 59750U 59981  60003U 60980M 61150  61873D 61875M 61875  61876M 61877U 61878M 61890  61960D 61962M
             61962  61963M 61964U 61965  61966M 62056  62105  62125D 62127M 62127  62128M 62129U 62130  62131M 62173
             62245  62248D 62250M 62250  62251M 62252U 62253  62254M 62344  64458M 64591  65132M 65143M 65143  65553M
             65594M 65605M 65605  65671M 65714M 65725M 65725  65791M 65834M 65845M 65845  65911M 65980  67369D 67371M
             67371  67372M 67373U 67375  67392  67436  67447  67450D 67452M 67452  67453M 67454U 67456  67473  67518
             67562M 67749M 67760M 67760  67797M 67888M 67920M 67952  68181M 68263M 68549M 68711  68746M 68761M 68761
             68791  68838M 68865M 68935  69122M 69138M 69147M 69320M 69384M 69428  69453M 69473M 69541M 69608  69877M
             69909  70043M 70071  70251M 70307  70434M 70466  70780M 70832  70915M 71451  71516M 71547  71702M 71737
             71809M 71810M 71810  71831U 71885  71886  71917  71926  71937U 71982M 72017  72302M 72304M 72332  72333M
             72335  72362M 72417  72564M 72574U 72742U 72825M 72860  73079M 73111  73201M 73267  73672M 73706  73972M
             74027  74063M 74073U 74537  74581U 74599M 74745  74907M 74954  75207M 75279  75418M 75450  75496M 75524
             75569M 75622  76414M 76414  76428  76478M 76479  77786M 77832  77967M 78089  78596M 78649  79085M 79142
             79154M 79161M 79163  79206M 79239  79317M 79318M 79338  79358  79489  79532M 79611  79804M 79839  79957M
             79988  80171M 80251  80335M 80363  80488M 80513  80577M 80601  80673M 80697  80757M 80758M 80763  80764M
             80766  80769M 80771  80796M 80824  80862M 80865  80867M 80869  80875M 80879M 80904M 80930  80985M 81093M
             81151  81238M 81238  81322M 81382M 81466M 81467M 81468  81503M 81537  81742M 81771  81785  81808  81822
             81842  81885  81915  81970M 82004  82082M 82116  82172  82258M 82290  82432M 82464  82573M 82591M 82675M
             82709  82797M 82803M 82830M 82871  82963M 82996  83084M 83098M 83099M 83100  83102M 83107M 83126M 83159
             83217M 83227M 83303M 83321M 83359M 83384  83434M 83436M 83438M 83444M 83448M 83449  83478M 83604  83657M
             83686  83713M 83749  83906M 83935  84007M 84038  84095M 84126  84183M 84214  84282M 84313  84425M 84464
             84588M 84614  84728M 84899  84905  84924M 84935  84936M 84992M 85027  85143M 85177  85311M 85345  85443M
             85512  85599M 85633  85720M 85747  85815M 85842  85974M
     4(4)     1036U  8730   9733M  9775   9777M 10157  10281M 10308  10316M 10406  10683M 10718  10788M 10799U 10890U
             10908M 10938  11717M 11746  11807M 11858  12586M 12616  13067M 13097  13469M 13563  13665M 13702  13917M
             13946  14146M 14225  14261M 14271U 14494U 14512M 14564  15123M 15187  15355M 15365U 15379M 15379  15436M
             15436  15448M 15522U 15545M 15604  15716M 15716  15723  15830M 16075M 16130  16187M 16199  16264  16301M
             16333  16830M 16831M 17066M 17066  17112M 17145  17251M 17261U 17293  17431  17942U 17960M 17995  18039M
             18049U 18174  18360U 18378M 18451  18504M 18514U 18524  18526M 18628  18629M 18663M 18670  18671M 18831M
             18841M 18876M 18876  18888  18905M 18925M 18925  18956U 18974M 19005  19119M 19222  19253M 19266  19325
             19478M 19478N 19504M 19529  19729  19844M 19921  20389M 20423  20550M 20629  22229M 22260  22626M 22660
             22942M 23050  23189M 23227  23438M 23474  23641M 23651U 23674M 23686M 23909U 23922M 23955  24118M 24146
             24330M 24360  24622M 24654  24703M 24731  24802M 24830  24884M 24992  28795M 28926  29412M 29413M 29414
             29427  29915M 30022  30025M 30042M 30044  30087M 30487M 30487  30512  30513  30657M 30680M 30680  30812M
             30812  30888N 31035M 31111  31285M 31315  31434M 31482  31660M 31715  31759M 31784  31849  31886M 31917
             32086M 32114  32252M 32283  32568M 32596  32640M 32668  32883M 32917  33054M 33082  33599M 33632  34188M
             34226  34354M 34388  34482M 34513  34701M 34711U 34734M 34746M 34792U 34810M 34838  34937M 34947U 35007
             35017U 35079M 35110  35267M 35300  35393M 35431  35494M 35495M 35505  35512  35603M 35646  35787M 35885
             35916M 35933  35986  36002M 36051  36204M 36238  36466M 36507  36740M 36771  36897M 36959  37472M 37475
             37507M 37531M 37531N 37551M 37552  37672M 37704  37750M 37986  38028  38092  38118M 38147  38296M 38328
             38472M 38503  38691M 38790  38900M 38910U 38924M 38924  38951M 38965M 38965  40163U 40191M 40249  40304M
             40331  40341  40361M 40362M 40362N 40399  40409  40429M 40439  40489  40499  40519M 40529  40579  40589
             40609M 40619  40677M 40727  40762M 40772U 41027U 41045M 41076  41193M 41227  41349M 41387  41427M 41654
             41680M 41718  41745M 41821M 41898M 41898  42030M 42068  42318M 42448  42896M 42906U 42917  42918M 42927M
             42927  43092  43332  43396M 43405  43731  43785  43861  43909U 43927M 43958  44074M 44104  44281M 44313
             44562M 44597  44752M 44785  44924M 44981  45019M 45019  45101M 45111U 45125M 45125  45178M 45193M 45193
             45223  45267  45277U 45295M 45329  45375M 45377M 45416  45465M 45497  45648M 45681  45912M 46004  46943M
             46953U 46972  47111  47121U 47155M 47163U 47688U 49893M 49893  49913M 49928M 49928  49960  50102M 50102
             50122M 50137M 50137  50169  52628M 52770  52795M 52805U 52945U 52958M 53011  55607M 55724  57024M 57117
             59466M 59467M 59477U 60573U 60980M 61150  62476M 62477M 62478M 62499  62513  62573  62972N 64115M 64458M
1         General Purpose Register Cross Reference                                                                          Page  517
             64591  65131M 65158  65201  65221M 65551M 65551N 65620  65630  65650M 65660  65740  65750  65770M 65780
             65860  65870  65890M 65900  65980  67888M 67920M 67952  68549M 68711  68747M 68837M 68865M 68935  69148M
             69164  69264  69293  69328M 69384M 69428  69456M 69467M 69467  69494M 69503M 69503  69541M 69608  69877M
             69909  70043M 70071  70251M 70307  70434M 70466  70780M 70832  70914M 71446  71516M 71547  71702M 71737
             71982M 72017  72362M 72417  72825M 72860  72971M 72972M 72972  73011U 73024U 73051M 73075U 73079  73080M
             73090M 73090  73105  73165U 73201M 73267  73419M 73429U 73649U 73672M 73706  73972M 74027  74077M 74475M
             74475  74599M 74745  74856M 74901  74924  75042M 75042  75048  75119  75207M 75279  75418M 75450  75496M
             75524  75569M 75622  76634M 76641M 76641N 76653  76660M 76674U 76701  77103  77117U 77786M 77832  77967M
             78089  78286M 78286  78289  78291M 78300M 78300  78337M 78341  78343M 78344M 78388M 78520  78596M 78649
             79086M 79206M 79239  79322M 79322  79472M 79503  79532M 79611  79804M 79839  79907M 79923  79925N 79934
             79957M 79988  80096M 80098N 80136  80171M 80251  80335M 80363  80488M 80513  80577M 80601  80673M 80697
             80749M 80759  80796M 80824  80904M 80930  81093M 81151  81236M 81236  81404M 81464M 81467  81503M 81537
             81609M 81625  81749  81970M 82004  82032M 82038  82045  82082M 82116  82144M 82155  82165  82258M 82290
             82324M 82324  82325M 82330  82352M 82352  82353M 82358  82432M 82464  82506M 82506  82507M 82555  82562M
             82583  82590M 82624  82675M 82709  82830M 82871  82963M 82996  83126M 83159  83251M 83302M 83320M 83327
             83359M 83384  83478M 83604  83659M 83662M 83664  83684  83685  83713M 83749  83833M 83891M 83906M 83935
             84007M 84038  84095M 84126  84183M 84214  84282M 84313  84425M 84464  84588M 84614  84992M 85027  85143M
             85177  85311M 85345  85443M 85512  85599M 85633  85720M 85747  85815M 85842  85869M 85872N 85884  85919M
             85929  85974M
     5(5)     1032U  8730  10157  10281M 10308  10316M 10406  10683M 10718  10743M 10753U 10895U 10908M 10938  11717M
             11746  11807M 11858  12079M 12586M 12616  13067M 13097  13469M 13563  13591M 13601U 13904U 13917M 13946
             14146M 14225  14260M 14512M 14564  14614M 14615M 14615  14621M 15123M 15187  15252M 15262U 15527U 15545M
             15604  15645M 15655U 15784  16057U 16075M 16130  16249M 16259U 16278U 16301M 16333  16373M 16383U 16594
             16632  16770  16886M 17094U 17112M 17145  17190M 17193  17206  17230M 17242  17298  17436  17447  17554N
             17960M 17995  18034M 18038M 18064  18073M 18085  18143  18179  18378M 18451  18524M 18627N 18670M 18841N
             18887  18974M 19005  19119M 19222  19254M 19266  19594M 19604U 19826U 19844M 19921  20389M 20423  20550M
             20629  22229M 22260  22626M 22660  22942M 23050  23189M 23227  23438M 23474  23922M 23955  24118M 24146
             24330M 24360  24622M 24654  24703M 24731  24802M 24830  24884M 24992  25042M 25052U 28777U 28795M 28926
             29774M 29797M 29797  29803M 29811  29813M 29816M 29832M 29832  29877  29891  29908  29910M 29951M 29951
             30010  30016  30021M 30117M 30117  31035M 31111  31285M 31315  31434M 31482  31660M 31715  31834M 31844U
             31863U 31886M 31917  32086M 32114  32252M 32283  32568M 32596  32640M 32668  32883M 32917  33054M 33082
             33599M 33632  33660M 33660  33679M 34188M 34226  34354M 34388  34482M 34513  34538M 34548U 34655  34781
             34797U 34810M 34838  35079M 35110  35267M 35300  35393M 35431  35603M 35646  35787M 35885  36002M 36051
             36204M 36238  36466M 36507  36740M 36771  36815M 36825U 36879U 36897M 36959  37423M 37433U 37654U 37672M
             37704  38118M 38147  38296M 38328  38472M 38503  38691M 38790  38877M 40191M 40249  40299M 40300M 40331
             40399  40439  40489  40529  40579  40619  40677M 40727  41045M 41076  41193M 41227  41349M 41387  41426M
             41531  41620  41680M 41718  41749M 41749  41812M 41812  41824M 41836M 41848  42008  42030M 42068  42093M
             42282M 42282  42296N 42318M 42448  42917M 43091  43331  43404  43405N 43750M 43760U 43862  43872U 43927M
             43958  44074M 44104  44281M 44313  44562M 44597  44752M 44785  44924M 44981  45021M 45021  45223M 45266
             45295M 45329  45465M 45497  45648M 45681  45912M 46004  46922M 46922  46972M 47134M 47134  49179M 49179
             49244M 49263M 49263  49296M 49462M 49714  49752  52628M 52770  52958M 53011  55607M 55724  55759M 55769U
             57006U 57024M 57117  59440M 59466  60521M 60533  60543M 60543  60559  60980M 61150  61216M 61544  61582M
             62489  62568D 62570M 62570  62571M 62572U 62573M 62934  63004  63006M 63023  63250M 63270  63272M 63291
             64055M 64060  64242  64244M 64261  64313  64315M 64332  64397  64399M 64416  64458M 64591  64642M 64643M
             65158  65620  65660  65740  65780  65860  65900  65980  65982M 65992U 67888M 67897U 67920M 67952  68549M
             68711  68748M 68832  68865M 68935  68970M 69078  69384M 69428  69541M 69608  69877M 69909  70043M 70071
             70106M 70116U 70128  70163U 70182  70183  70215  70224  70230  70251M 70307  70342M 70352U 70416U 70434M
             70466  70491M 70501U 70531  70767U 70780M 70832  70874M 70884U 71498U 71516M 71547  71702M 71737  71762M
             71772U 71969U 71982M 72017  72042M 72052U 72349U 72362M 72417  72462M 72472U 72807U 72825M 72860  72885M
             72895U 73072U 73105  73160U 73188U 73201M 73267  73302M 73312U 73654U 73672M 73706  73972M 74027  74599M
             74745  74855M 74900  75207M 75279  75418M 75450  75496M 75524  75569M 75622  77786M 77832  77967M 78089
             78288M 78288  78289  78291M 78320M 78346M 78372  78387M 78520  78596M 78649  79087M 79095U 79116M 79130M
             79184U 79206M 79239  79326M 79326  79465M 79466M 79512M 79512  79517  79532M 79611  79804M 79839  79957M
             79988  80014M 80015M 80059  80137  80171M 80251  80335M 80363  80488M 80513  80577M 80601  80673M 80697
             80796M 80824  80904M 80930  80981M 81068  81093M 81151  81232M 81232  81468N 81469M 81476  81503M 81537
             81610M 81626  81750  81970M 82004  82033M 82039  82046  82082M 82116  82145M 82156  82169M 82185  82258M
             82290  82320M 82325M 82353M 82381  82432M 82464  82502M 82507M 82512  82538M 82572M 82589M 82601  82675M
             82709  82830M 82871  82963M 82996  83126M 83159  83359M 83384  83478M 83604  83646D 83648M 83648  83649M
             83650U 83651M 83651  83656M 83657N 83658M 83659  83660M 83661  83664M 83667M 83669  83713M 83749  83836M
1         General Purpose Register Cross Reference                                                                          Page  518
             83847M 83847  83870M 83880M 83906M 83935  84007M 84038  84095M 84126  84183M 84214  84282M 84313  84425M
             84464  84588M 84614  84703M 84703  84734M 84734  84923M 84945  84992M 85027  85143M 85177  85216M 85230
             85261M 85281  85311M 85345  85443M 85512  85599M 85633  85720M 85747  85815M 85842  85872M 85884  85929
             85974M
     6(6)     1028U  8730   9140M 10157  10281M 10308  10316M 10406  10683M 10718  10908M 10938  11717M 11746  11807M
             11858  12159M 12175U 12189M 12190M 12190  12197  12393U 12586M 12616  12881M 12882M 12882  12983  13067M
             13097  13122M 13132U 13456U 13469M 13563  13917M 13946  14146M 14225  14402D 14404M 14404  14405M 14406U
             14407M 14439  14451  14512M 14564  14645M 14661U 14675M 14676M 14676  14683  14942U 15123M 15187  15217M
             15226  15248U 15490  15532U 15545M 15604  15640M 15726  15755  15829M 15864M 15864  16075M 16130  16301M
             16333  16359M 16524M 16537  16599  16887M 17112M 17145  17192M 17201  17223U 17511M 17947U 17960M 17995
             18020M 18030U 18365U 18378M 18451  18493D 18495M 18495  18496M 18497U 18622N 18635  18650  18721M 18721
             18771  18812M 18842M 18843  18854  18942  18974M 19005  19119M 19222  19844M 19921  20389M 20423  20550M
             20629  22229M 22260  22285M 22295U 22613U 22626M 22660  22942M 23050  23189M 23227  23438M 23474  23922M
             23955  24118M 24146  24330M 24360  24622M 24654  24703M 24731  24802M 24830  24884M 24992  25062M 25072U
             25420M 28753  28772U 28795M 28926  29724M 29734U 31017U 31035M 31111  31285M 31315  31434M 31482  31660M
             31715  31886M 31917  32086M 32114  32252M 32283  32568M 32596  32640M 32668  32883M 32917  33054M 33082
             33599M 33632  33661M 33673M 33673  33680  33681M 34188M 34226  34354M 34388  34482M 34513  34636M 34660
             34810M 34838  34953M 34979  35079M 35110  35267M 35300  35393M 35431  35603M 35646  35787M 35885  36002M
             36051  36076M 36077  36129  36204M 36238  36263M 36264  36316  36377  36378  36466M 36507  36740M 36771
             36797M 36808U 36853  36884U 36897M 36959  36984M 36994U 37612  37659U 37672M 37704  37729M 37739U 38105U
             38118M 38147  38296M 38328  38353M 38363U 38459U 38472M 38503  38691M 38790  38863M 38873U 40168U 40191M
             40249  40285M 40295U 40659U 40677M 40727  41045M 41076  41193M 41227  41349M 41387  41412M 41422U 41667U
             41680M 41718  41753M 41753  41923M 41923  41929M 41996M 41996  42002M 42009  42030M 42068  42094M 42295
             42297  42318M 42448  42600M 42695N 42696M 42708  43001  43348  43408  43409  43480N 43927M 43958  44074M
             44104  44281M 44313  44483M 44535  44562M 44597  44752M 44785  44924M 44981  45025M 45025  45226M 45238
             45295M 45329  45465M 45497  45648M 45681  45912M 46004  46335M 46345U 46377U 48183M 48193U 48240U 49183M
             49183  49660M 49733M 49733  49740M 49757  51334M 51345M 51345  51360U 51384  51736  51756M 51765M 51765
             51797U 52628M 52770  52958M 53011  53047M 53070  53086  53115  53131  53148  53163  53185  53201  53211
             53235  53267  53283  53319  53362  53378  53407  53439  53479  53494  53524  53571  53587  53616  53659
             53675  53704  53747  53763  53805  53821  53863  53879  53921  53937  53974  53996  54012  54049  54071
             54087  54108  54125  54147  54162  54181  54196  54215  54231  54253  54269  54291  54307  54329  54345
             54383  54399  54441  54457  54499  54515  54557  54573  54615  54631  54673  54689  54710  54732  54748
             54770  54786  54808  54824  54846  54862  54900  54916  54942  54957  54988  55007  55022  55048  55071
             55086  55105  55127  55144  55163  55179  55198  55220  55237  55256  55272  55291  55313  55330  55388
             55403  55428  55471  55529  55544  55569  55607M 55724  55773M 55786  55804  55819  55845  55914  55924
             55947  55988  56017  56054  56073  56095  56132  56151  56173  56210  56229  56251  56288  56307  56322
             56341  56357  56389  56408  56423  56449  56486  56505  56520  56539  56555  56587  56606  56621  56647
             56683  56738  56753  56772  56787  56819  56855  56910  56925  56944  56959  56991  57024M 57117  57167M
             57180  57199  57214  57250  57282  57301  57320  57339  57372  57396  57412  57438  57455  57497  57536
             57562  57607  57639  57675  57699  57735  57768  57816  57831  57862  57881  57918  57942  57958  57984
             58052  58071  58086  58105  58120  58139  58154  58175  58190  58211  58233  58249  58268  58283  58302
             58317  58349  58368  58383  58409  58426  58445  58460  58479  58494  58526  58545  58560  58586  58619
             58639  58655  58689  58704  58730  58769  58797  58819  58856  58884  58911  58930  58946  58988  59027
             59055  59077  59115  59143  59170  59189  59204  59235  59261  59303  59340  59376  59412  59435  59519
             59553  59570  59589  59607  59700  59731  59764  59786  59816  59838  59873  59908  59943  59969  59993
             60048  60078  60109  60127  60142  60168  60199  60227  60287  60309  60336  60363  60420  60447  60503
             60608  60653  60675  60690  60718  60750  60769  60795  60845  60861  60883  60905  60921  60947  60980M
             61150  62972M 63018  63068U 63308U 63349U 63584U 63625U 64220M 64220N 64221M 64256  64278U 64327  64458M
             64591  64628M 64638U 65956  67902U 67920M 67952  67979M 67989U 68536U 68549M 68711  68865M 68935  68971M
             69025  69323M 69384M 69428  69541M 69608  69877M 69909  69934M 69975  70010  70043M 70071  70251M 70307
             70434M 70466  70780M 70832  71516M 71547  71608M 71611  71624  71648  71702M 71737  71982M 72017  72362M
             72417  72825M 72860  73201M 73267  73672M 73706  73972M 74027  74599M 74745  74780M 74790U 75189U 75207M
             75279  75418M 75450  75496M 75524  75569M 75622  75646M 75654U 77786M 77799U 77832  77967M 78089  78130M
             78140U 78152  78312  78539  78544  78578U 78596M 78649  79206M 79239  79532M 79611  79804M 79839  79924
             79957M 79988  80126  80171M 80251  80276M 80277M 80279M 80313M 80335M 80363  80429M 80430M 80432M 80466M
             80488M 80513  80577M 80601  80673M 80697  80732M 80733M 80743U 80778U 80796M 80824  80904M 80930  80966M
             80967M 80977U 81075U 81093M 81151  81228M 81475  81503M 81537  81572M 81943  81970M 82004  82029M 82060
             82082M 82116  82141M 82200  82232  82258M 82290  82315M 82395  82410  82432M 82464  82489M 82615  82653
             82675M 82709  82830M 82871  82896M 82926  82941  82963M 82996  83126M 83159  83194M 83195M 83205U 83341U
1         General Purpose Register Cross Reference                                                                          Page  519
             83359M 83384  83419M 83420M 83430U 83460U 83478M 83604  83653M 83662  83713M 83749  83834M 83868M 83878M
             83906M 83935  84007M 84038  84063M 84076  84095M 84126  84151M 84164  84183M 84214  84239M 84252  84263
             84282M 84313  84338M 84350U 84362  84412U 84425M 84464  84489M 84499U 84575U 84588M 84614  84639M 84649U
             84781  84944  84974U 84992M 85027  85052M 85062U 85119  85130U 85143M 85177  85202M 85212U 85256  85287
             85298U 85311M 85345  85370M 85380U 85430U 85443M 85512  85537M 85576  85599M 85633  85658M 85697  85720M
             85747  85772M 85796  85815M 85842  85867M 85912  85946  85974M
     7(7)     1024U  8730  10157  10281M 10308  10316M 10406  10683M 10718  10908M 10938  11717M 11746  11807M 11858
             12586M 12616  13067M 13097  13469M 13563  13917M 13946  14146M 14225  14512M 14564  15123M 15187  15215M
             15218  15231  15495  15545M 15604  15639M 15827  15828M 16075M 16130  16301M 16333  16358M 16369U 17099U
             17112M 17145  17960M 17995  18378M 18451  18476M 18486U 18657  18848M 18943  18961U 18974M 19005  19119M
             19222  19844M 19921  20389M 20423  20550M 20629  22229M 22260  22626M 22660  22942M 23050  23189M 23227
             23438M 23474  23922M 23955  24118M 24146  24330M 24360  24622M 24654  24703M 24731  24802M 24830  24884M
             24992  28795M 28926  31035M 31111  31285M 31315  31434M 31482  31660M 31715  31886M 31917  32086M 32114
             32252M 32283  32568M 32596  32640M 32668  32883M 32917  33054M 33082  33599M 33632  34188M 34226  34354M
             34388  34482M 34513  34810M 34838  35079M 35110  35267M 35300  35393M 35431  35603M 35646  35787M 35885
             36002M 36051  36204M 36238  36466M 36507  36740M 36771  36897M 36959  37672M 37704  38118M 38147  38296M
             38328  38472M 38503  38691M 38790  38849M 38859U 38863N 40173U 40191M 40249  40677M 40727  41045M 41076
             41193M 41227  41349M 41387  41680M 41718  42030M 42068  42318M 42448  42483M 43927M 43958  44074M 44104
             44129M 44142  44160  44261  44281M 44313  44394M 44447  44471  44562M 44597  44752M 44785  44924M 44981
             45295M 45329  45465M 45497  45648M 45681  45912M 46004  46761M 46770U 47695U 47708M 47717M 47717  47734U
             48125U 48161M 48170U 48757U 48813M 48822U 48985U 49020M 49031U 49126U 49158M 49167U 49776U 50806M 50817U
             51046U 51835M 51846U 52282U 52628M 52770  52958M 53011  55607M 55724  57024M 57117  57153M 57163U 60870
             60933  60962U 60980M 61150  61217M 61232U 61583M 61613U 61616U 62424U 62427U 62469U 62472U 64357U 64360U
             64411  64440U 64458M 64591  64626M 64658  64673  64698  64714  64746  64782  64818  64854  64873  64900
             64933  64970  65007  65044  65081  65107  65126  65180  65195  65242  65257  65291  65337  65383  65429
             65464  65501  65520  65546  65589  65709  65829  65940  65967  66009  66053  66085  66107  66122  66156
             66203  66250  66297  66344  66391  66438  66485  66532  66566  66604  66622  66642  66661  66695  66714
             66729  66755  66802  66817  66839  66918  66944  66991  67039  67057  67072  67119  67137  67152  67171
             67186  67205  67220  67239  67254  67273  67288  67307  67329  67417  67442  67498  67524  67573  67588
             67603  67643  67689  67724  67743  67788  67820  67852  67876  67920M 67952  67977M 68017  68035  68085
             68119  68169  68205  68251  68287  68302  68327  68366  68381  68446  68498  68525  68549M 68711  68865M
             68935  68972M 69017M 69017  69175M 69175  69325M 69384M 69428  69454M 69523  69524  69541M 69608  69633M
             69839M 69839  69877M 69909  69935M 69945U 70005  70030U 70043M 70071  70251M 70307  70434M 70466  70780M
             70832  71516M 71547  71610M 71619  71641U 71689U 71702M 71737  71982M 72017  72362M 72417  72825M 72860
             73201M 73267  73672M 73706  73972M 74027  74081M 74091U 74107M 74108M 74108  74406  74576U 74599M 74745
             75207M 75279  75418M 75450  75496M 75524  75569M 75622  77786M 77832  77967M 78089  78596M 78649  79206M
             79239  79532M 79611  79804M 79839  79957M 79988  80171M 80251  80335M 80363  80488M 80513  80577M 80601
             80673M 80697  80796M 80824  80904M 80930  81093M 81151  81503M 81537  81970M 82004  82082M 82116  82258M
             82290  82432M 82464  82675M 82709  82830M 82871  82963M 82996  83126M 83159  83359M 83384  83478M 83604
             83713M 83749  83906M 83935  84007M 84038  84095M 84126  84183M 84214  84282M 84313  84425M 84464  84588M
             84614  84992M 85027  85143M 85177  85311M 85345  85443M 85512  85599M 85633  85720M 85747  85815M 85842
             85974M
     8(8)     1020U  8730  10157  10281M 10308  10316M 10406  10683M 10718  10908M 10938  11717M 11746  11807M 11858
             12586M 12616  13067M 13097  13469M 13563  13917M 13946  14146M 14225  14512M 14564  15123M 15187  15545M
             15604  16075M 16130  16301M 16333  17112M 17145  17596M 17606U 17620M 17620  17679M 17694M 17694  17932U
             17960M 17995  18378M 18451  18974M 19005  19119M 19202U 19222  19250M 19250  19336M 19459M 19459  19811
             19844M 19921  20070M 20081M 20081  20147M 20160M 20389M 20423  20448M 20459M 20459  20529M 20550M 20629
             20987M 20998M 20998  21056M 21070M 21070  21105M 21116M 21116  21218M 21232M 21232  21244M 21256M 22229M
             22260  22318M 22626M 22660  22942M 23050  23189M 23227  23438M 23474  23922M 23955  24118M 24146  24296
             24330M 24360  24622M 24654  24703M 24731  24802M 24830  24884M 24992  25438M 25449M 25449  25523M 25542M
             25542  25552M 25564M 25565M 25565  25708  25735M 25735  25768M 25768  25855M 25855  25872M 25883M 25883
             25941M 26138M 26746  28795M 28926  30955  31035M 31111  31285M 31315  31434M 31482  31660M 31715  31886M
             31917  31947M 31958  32067  32069  32086M 32114  32252M 32283  32568M 32596  32640M 32668  32883M 32917
             32967M 33054M 33082  33324  33389  33455  33520  33551  33552M 33572M 33599M 33632  33679  33680M 33868
             34188M 34226  34354M 34388  34427M 34440M 34440  34461M 34467  34482M 34513  34810M 34838  35079M 35110
             35136M 35147M 35147  35247M 35267M 35300  35326M 35337M 35337  35373M 35393M 35431  35603M 35615U 35646
             35787M 35885  36002M 36051  36204M 36238  36466M 36507  36740M 36771  36897M 36959  37672M 37704  38118M
             38147  38296M 38328  38472M 38503  38691M 38790  40191M 40249  40677M 40727  41045M 41076  41193M 41227
             41349M 41387  41680M 41718  42030M 42068  42318M 42448  43927M 43958  44074M 44104  44281M 44313  44562M
1         General Purpose Register Cross Reference                                                                          Page  520
             44597  44752M 44785  44924M 44981  45295M 45329  45465M 45497  45648M 45681  45912M 46004  46039M 46040M
             46040N 46048U 52628M 52770  52958M 53011  55607M 55724  57024M 57117  60980M 61150  64458M 64591  67920M
             67952  68549M 68711  68865M 68935  69384M 69428  69541M 69608  69877M 69909  70043M 70071  70251M 70307
             70434M 70466  70780M 70832  71516M 71547  71702M 71737  71982M 72017  72362M 72417  72825M 72860  73201M
             73267  73672M 73706  73972M 74027  74599M 74745  75207M 75279  75418M 75450  75496M 75524  75569M 75622
             77786M 77832  77967M 78089  78596M 78649  79206M 79239  79532M 79611  79804M 79839  79957M 79988  80171M
             80251  80335M 80363  80488M 80513  80577M 80601  80673M 80697  80796M 80824  80904M 80930  81093M 81151
             81503M 81537  81970M 82004  82082M 82116  82258M 82290  82432M 82464  82675M 82709  82830M 82871  82963M
             82996  83126M 83159  83359M 83384  83478M 83604  83713M 83749  83906M 83935  84007M 84038  84095M 84126
             84183M 84214  84282M 84313  84425M 84464  84588M 84614  84992M 85027  85143M 85177  85311M 85345  85443M
             85512  85599M 85633  85720M 85747  85815M 85842  85974M
     9(9)     1016U  8730   9169M 10157  10158M 10277  10281M 10308  10316M 10406  10407M 10679  10683M 10718  10719M
             10904  10908M 10938  10939M 11713  11717M 11746  11747M 11803  11807M 11858  11860M 11889U 12573U 12582
             12586M 12616  12617M 13063  13067M 13097  13098M 13465  13469M 13563  13564M 13913  13917M 13946  13947M
             14142  14146M 14225  14227M 14256U 14499U 14508  14512M 14564  14566M 14595U 15110U 15119  15123M 15187
             15188M 15541  15545M 15604  15606M 15635U 16062U 16071  16075M 16130  16132M 16161U 16288U 16297  16301M
             16333  16334M 17108  17112M 17145  17146M 17956  17960M 17995  17996M 18374  18378M 18451  18452M 18945
             18970  18974M 19005  19006M 19115  19119M 19222  19223M 19373  19550  19750  19840  19844M 19921  19923M
             19952U 20230  20376U 20385  20389M 20423  20424M 20546  20550M 20629  20631M 20660U 21377  22216U 22225
             22229M 22260  22261M 22622  22626M 22660  22661M 22938  22942M 23050  23051M 23185  23189M 23227  23228M
             23434  23438M 23474  23475M 23918  23922M 23955  23956M 24114  24118M 24146  24147M 24326  24330M 24360
             24361M 24618  24622M 24654  24655M 24699  24703M 24731  24732M 24798  24802M 24830  24831M 24880  24884M
             24992  24994M 25023U 28782U 28791  28795M 28926  28928M 28957U 31022U 31031  31035M 31111  31112M 31281
             31285M 31315  31316M 31430  31434M 31482  31484M 31513U 31647U 31656  31660M 31715  31717M 31746U 31873U
             31882  31886M 31917  31918M 32071N 32082  32086M 32114  32115M 32248  32252M 32283  32284M 32564  32568M
             32596  32597M 32636  32640M 32668  32669M 32879  32883M 32917  32918M 33050  33054M 33082  33083M 33595
             33599M 33632  33633M 34184  34188M 34226  34227M 34350  34354M 34388  34389M 34478  34482M 34513  34514M
             34806  34810M 34838  34839M 35075  35079M 35110  35111M 35263  35267M 35300  35301M 35389  35393M 35431
             35432M 35599  35603M 35646  35647M 35766  35783  35787M 35885  35886M 35998  36002M 36051  36052M 36189N
             36200  36204M 36238  36239M 36323N 36444N 36462  36466M 36507  36508M 36564  36716  36736  36740M 36771
             36772M 36893  36897M 36959  36960M 37668  37672M 37704  37705M 38114  38118M 38147  38148M 38292  38296M
             38328  38329M 38468  38472M 38503  38504M 38687  38691M 38790  38792M 38821U 40178U 40187  40191M 40249
             40251M 40280U 40664U 40673  40677M 40727  40729M 40758U 41032U 41041  41045M 41076  41077M 41189  41193M
             41227  41228M 41324N 41345  41349M 41387  41388M 41656N 41676  41680M 41718  41719M 42011  42026  42030M
             42068  42069M 42299  42314  42318M 42448  42450M 42479U 43914U 43923  43927M 43958  43959M 44070  44074M
             44104  44105M 44277  44281M 44313  44314M 44453  44558  44562M 44597  44598M 44748  44752M 44785  44786M
             44903  44920  44924M 44981  44983M 45012U 45269  45282U 45291  45295M 45329  45330M 45445N 45461  45465M
             45497  45498M 45633N 45644  45648M 45681  45682M 45897N 45908  45912M 46004  46006M 46035U 52615U 52624
             52628M 52770  52771M 52938  52954  52958M 53011  53013M 53042U 55594U 55603  55607M 55724  55726M 55755U
             57011U 57020  57024M 57117  57119M 57148U 60967U 60976  60980M 61150  61152M 61181U 62536  64445U 64454
             64458M 64591  64593M 64622U 65946N 67907U 67916  67920M 67952  67953M 68545  68549M 68711  68713M 68742U
             68852U 68861  68865M 68935  68937M 68966U 69371U 69380  69384M 69428  69429M 69526  69537  69541M 69608
             69609M 69873  69877M 69909  69910M 70039  70043M 70071  70072M 70232N 70247  70251M 70307  70309M 70338U
             70421U 70430  70434M 70466  70467M 70776  70780M 70832  70834M 70863U 71503U 71512  71516M 71547  71548M
             71698  71702M 71737  71738M 71978  71982M 72017  72018M 72358  72362M 72417  72419M 72448U 72747N 72812U
             72821  72825M 72860  72861M 73197  73201M 73267  73269M 73298U 73659U 73668  73672M 73706  73707M 73968
             73972M 74027  74029M 74058U 74586U 74595  74599M 74745  74747M 74776U 75194U 75203  75207M 75279  75281M
             75310U 75405U 75414  75418M 75450  75451M 75492  75496M 75524  75525M 75565  75569M 75622  75674M 77786M
             77832  77833M 77963  77967M 78089  78091M 78120U 78583U 78592  78596M 78649  78651M 78680U 78754  79193U
             79202  79206M 79239  79240M 79528  79532M 79611  79612M 79702  79783N 79800  79804M 79839  79840M 79937
             79953  79957M 79988  79989M 80151N 80167  80171M 80251  80252M 80331  80335M 80363  80364M 80484  80488M
             80513  80514M 80573  80577M 80601  80602M 80669  80673M 80697  80699M 80728U 80783U 80792  80796M 80824
             80826M 80855U 80891U 80900  80904M 80930  80932M 80961U 81080U 81089  81093M 81151  81153M 81182U 81490U
             81499  81503M 81537  81539M 81568U 81957U 81966  81970M 82004  82005M 82078  82082M 82116  82117M 82254
             82258M 82290  82291M 82428  82432M 82464  82465M 82671  82675M 82709  82710M 82826  82830M 82871  82872M
             82959  82963M 82996  82997M 83122  83126M 83159  83161M 83190U 83346U 83355  83359M 83384  83386M 83415U
             83465U 83474  83478M 83604  83606M 83635U 83700U 83709  83713M 83749  83750M 83902  83906M 83935  83936M
             84003  84007M 84038  84039M 84091  84095M 84126  84127M 84179  84183M 84214  84215M 84278  84282M 84313
             84314M 84421  84425M 84464  84465M 84584  84588M 84614  84615M 84988  84992M 85027  85028M 85139  85143M
1         General Purpose Register Cross Reference                                                                          Page  521
             85177  85178M 85307  85311M 85345  85346M 85439  85443M 85512  85513M 85595  85599M 85633  85634M 85716
             85720M 85747  85748M 85811  85815M 85842  85843M 85970  85974M
    10(A)     1012U  8730  10157  10281M 10308  10316M 10406  10683M 10718  10908M 10938  11717M 11746  11807M 11858
             12586M 12616  13067M 13097  13469M 13563  13917M 13946  14146M 14225  14512M 14564  15123M 15187  15545M
             15604  16075M 16130  16301M 16333  17112M 17145  17960M 17995  18378M 18451  18974M 19005  19119M 19222
             19844M 19921  20389M 20423  20550M 20629  22229M 22260  22626M 22660  22942M 23050  23189M 23227  23438M
             23474  23922M 23955  24118M 24146  24330M 24360  24622M 24654  24703M 24731  24802M 24830  24884M 24992
             28795M 28926  31035M 31111  31285M 31315  31434M 31482  31660M 31715  31886M 31917  32086M 32114  32252M
             32283  32568M 32596  32640M 32668  32883M 32917  33054M 33082  33599M 33632  34188M 34226  34354M 34388
             34482M 34513  34810M 34838  35079M 35110  35267M 35300  35393M 35431  35603M 35646  35787M 35885  36002M
             36051  36204M 36238  36466M 36507  36740M 36771  36897M 36959  37672M 37704  38118M 38147  38296M 38328
             38472M 38503  38691M 38790  40191M 40249  40677M 40727  41045M 41076  41193M 41227  41349M 41387  41680M
             41718  42030M 42068  42318M 42448  43927M 43958  44074M 44104  44281M 44313  44562M 44597  44752M 44785
             44924M 44981  45295M 45329  45465M 45497  45648M 45681  45912M 46004  52628M 52770  52958M 53011  55607M
             55724  57024M 57117  60980M 61150  64458M 64591  67920M 67952  68549M 68711  68865M 68935  69384M 69428
             69541M 69608  69877M 69909  70043M 70071  70251M 70307  70434M 70466  70780M 70832  71516M 71547  71702M
             71737  71982M 72017  72362M 72417  72825M 72860  73201M 73267  73672M 73706  73972M 74027  74599M 74745
             75207M 75279  75418M 75450  75496M 75524  75569M 75622  77786M 77832  77967M 78089  78596M 78649  79206M
             79239  79532M 79611  79804M 79839  79957M 79988  80171M 80251  80335M 80363  80488M 80513  80577M 80601
             80673M 80697  80796M 80824  80904M 80930  81093M 81151  81503M 81537  81970M 82004  82082M 82116  82258M
             82290  82432M 82464  82675M 82709  82830M 82871  82963M 82996  83126M 83159  83359M 83384  83478M 83604
             83713M 83749  83906M 83935  84007M 84038  84095M 84126  84183M 84214  84282M 84313  84425M 84464  84588M
             84614  84992M 85027  85143M 85177  85311M 85345  85443M 85512  85599M 85633  85720M 85747  85815M 85842
             85974M
    11(B)     1008U  2402B  2403B  8730   9128M  9138U 10133U 10157  10162M 10173U 10273U 10281M 10308  10316M 10406
             10411M 10422U 10675U 10683M 10718  10723M 10734U 10900U 10908M 10938  10943M 10954U 11709U 11717M 11746
             11751M 11762U 11799U 11807M 11858  11864M 11875U 12578U 12586M 12616  12621M 12632U 13059U 13067M 13097
             13102M 13113U 13461U 13469M 13563  13568M 13579U 13909U 13917M 13946  13951M 13962U 14138U 14146M 14225
             14231M 14242U 14504U 14512M 14564  14570M 14581U 15115U 15123M 15187  15192M 15203U 15537U 15545M 15604
             15610M 15621U 16067U 16075M 16130  16136M 16147U 16293U 16301M 16333  16338M 16349U 17104U 17112M 17145
             17150M 17161U 17952U 17960M 17995  18000M 18011U 18370U 18378M 18451  18456M 18467U 18966U 18974M 19005
             19010M 19021U 19111U 19119M 19222  19227M 19238U 19836U 19844M 19921  19927M 19938U 20381U 20389M 20423
             20428M 20439U 20542U 20550M 20629  20635M 20646U 22221U 22229M 22260  22265M 22276U 22618U 22626M 22660
             22665M 22676U 22934U 22942M 23050  23055M 23066U 23181U 23189M 23227  23232M 23243U 23430U 23438M 23474
             23479M 23490U 23914U 23922M 23955  23960M 23971U 24110U 24118M 24146  24151M 24162U 24322U 24330M 24360
             24365M 24376U 24614U 24622M 24654  24659M 24670U 24695U 24703M 24731  24736M 24747U 24794U 24802M 24830
             24835M 24846U 24876U 24884M 24992  24998M 25009U 28787U 28795M 28926  28932M 28943U 31027U 31035M 31111
             31116M 31127U 31277U 31285M 31315  31320M 31331U 31426U 31434M 31482  31488M 31499U 31652U 31660M 31715
             31721M 31732U 31878U 31886M 31917  31922M 31933U 32078U 32086M 32114  32119M 32130U 32244U 32252M 32283
             32288M 32299U 32560U 32568M 32596  32601M 32612U 32632U 32640M 32668  32673M 32684U 32875U 32883M 32917
             32922M 32933U 33046U 33054M 33082  33087M 33098U 33591U 33599M 33632  33637M 33648U 34180U 34188M 34226
             34231M 34242U 34346U 34354M 34388  34393M 34404U 34474U 34482M 34513  34518M 34529U 34802U 34810M 34838
             34843M 34854U 35071U 35079M 35110  35115M 35126U 35259U 35267M 35300  35305M 35316U 35385U 35393M 35431
             35436M 35447U 35595U 35603M 35646  35651M 35662U 35779U 35787M 35885  35890M 35901U 35994U 36002M 36051
             36056M 36067U 36196U 36204M 36238  36243M 36254U 36458U 36466M 36507  36512M 36523U 36732U 36740M 36771
             36776M 36787U 36889U 36897M 36959  36964M 36975U 37664U 37672M 37704  37709M 37720U 38110U 38118M 38147
             38152M 38163U 38288U 38296M 38328  38333M 38344U 38464U 38472M 38503  38508M 38519U 38683U 38691M 38790
             38796M 38807U 40183U 40191M 40249  40255M 40266U 40669U 40677M 40727  40733M 40744U 41037U 41045M 41076
             41081M 41092U 41185U 41193M 41227  41232M 41243U 41341U 41349M 41387  41392M 41403U 41672U 41680M 41718
             41723M 41734U 42022U 42030M 42068  42073M 42084U 42310U 42318M 42448  42454M 42465U 43919U 43927M 43958
             43963M 43974U 44066U 44074M 44104  44109M 44120U 44273U 44281M 44313  44318M 44329U 44554U 44562M 44597
             44602M 44613U 44744U 44752M 44785  44790M 44801U 44916U 44924M 44981  44987M 44998U 45287U 45295M 45329
             45334M 45345U 45457U 45465M 45497  45502M 45513U 45640U 45648M 45681  45686M 45697U 45904U 45912M 46004
             46010M 46021U 52620U 52628M 52770  52775M 52786U 52950U 52958M 53011  53017M 53028U 55599U 55607M 55724
             55730M 55741U 57016U 57024M 57117  57123M 57134U 60972U 60980M 61150  61156M 61167U 64450U 64458M 64591
             64597M 64608U 67912U 67920M 67952  67957M 67968U 68541U 68549M 68711  68717M 68728U 68857U 68865M 68935
             68941M 68952U 69376U 69384M 69428  69433M 69444U 69533U 69541M 69608  69613M 69624U 69869U 69877M 69909
             69914M 69925U 70035U 70043M 70071  70076M 70087U 70243U 70251M 70307  70313M 70324U 70426U 70434M 70466
             70471M 70482U 70772U 70780M 70832  70838M 70849U 71508U 71516M 71547  71552M 71563U 71694U 71702M 71737
1         General Purpose Register Cross Reference                                                                          Page  522
             71742M 71753U 71974U 71982M 72017  72022M 72033U 72354U 72362M 72417  72423M 72434U 72817U 72825M 72860
             72865M 72876U 73193U 73201M 73267  73273M 73284U 73664U 73672M 73706  73711M 73722U 73964U 73972M 74027
             74033M 74044U 74591U 74599M 74745  74751M 74762U 75199U 75207M 75279  75285M 75296U 75410U 75418M 75450
             75455M 75466U 75488U 75496M 75524  75529M 75540U 75561U 75569M 75622  75634M 75644U 77786M 77805U 77832
             77837M 77848U 77959U 77967M 78089  78095M 78106U 78588U 78596M 78649  78655M 78666U 79198U 79206M 79239
             79244M 79255U 79524U 79532M 79611  79616M 79627U 79796U 79804M 79839  79844M 79855U 79949U 79957M 79988
             79993M 80004U 80163U 80171M 80251  80256M 80267U 80327U 80335M 80363  80368M 80379U 80480U 80488M 80513
             80518M 80529U 80569U 80577M 80601  80606M 80617U 80665U 80673M 80697  80703M 80714U 80788U 80796M 80824
             80830M 80841U 80896U 80904M 80930  80936M 80947U 81085U 81093M 81151  81157M 81168U 81482  81495U 81503M
             81537  81543M 81554U 81962U 81970M 82004  82009M 82020U 82074U 82082M 82116  82121M 82132U 82250U 82258M
             82290  82295M 82306U 82424U 82432M 82464  82469M 82480U 82667U 82675M 82709  82714M 82725U 82822U 82830M
             82871  82876M 82887U 82955U 82963M 82996  83001M 83012U 83118U 83126M 83159  83165M 83176U 83351U 83359M
             83384  83390M 83401U 83470U 83478M 83604  83610M 83621U 83705U 83713M 83749  83754M 83765U 83891  83898U
             83906M 83935  83940M 83951U 83999U 84007M 84038  84043M 84054U 84087U 84095M 84126  84131M 84142U 84175U
             84183M 84214  84219M 84230U 84274U 84282M 84313  84318M 84329U 84417U 84425M 84464  84469M 84480U 84580U
             84588M 84614  84619M 84630U 84656M 84666U 84669U 84984U 84992M 85027  85032M 85043U 85135U 85143M 85177
             85182M 85193U 85303U 85311M 85345  85350M 85361U 85435U 85443M 85512  85517M 85528U 85591U 85599M 85633
             85638M 85649U 85712U 85720M 85747  85752M 85763U 85807U 85815M 85842  85847M 85858U 85966U 85974M
    12(C)     1004U  8670U  8730   8748U  9142M  9150U  9358  10157  10281M 10308  10309M 10316M 10406  10683M 10718
             10908M 10938  11717M 11746  11807M 11858  12586M 12616  13067M 13097  13469M 13563  13589M 13917M 13946
             14146M 14225  14512M 14564  15123M 15187  15545M 15604  16075M 16130  16301M 16333  17112M 17145  17960M
             17995  18378M 18451  18974M 19005  19119M 19222  19844M 19921  20389M 20423  20550M 20629  22229M 22260
             22626M 22660  22942M 23050  23189M 23227  23438M 23474  23922M 23955  24118M 24146  24330M 24360  24622M
             24654  24703M 24731  24802M 24830  24884M 24992  28795M 28926  31035M 31111  31285M 31315  31434M 31482
             31660M 31715  31886M 31917  32086M 32114  32252M 32283  32568M 32596  32640M 32668  32883M 32917  33054M
             33082  33599M 33632  34188M 34226  34354M 34388  34482M 34513  34810M 34838  35079M 35110  35267M 35300
             35393M 35431  35603M 35646  35787M 35885  36002M 36051  36204M 36238  36466M 36507  36740M 36771  36897M
             36959  37672M 37704  38118M 38147  38296M 38328  38472M 38503  38691M 38790  40191M 40249  40677M 40727
             41045M 41076  41193M 41227  41349M 41387  41680M 41718  42030M 42068  42318M 42448  43927M 43958  44074M
             44104  44281M 44313  44562M 44597  44752M 44785  44924M 44981  45295M 45329  45465M 45497  45648M 45681
             45912M 46004  49714  52628M 52770  52958M 53011  55607M 55724  57024M 57117  60980M 61150  64458M 64591
             67920M 67952  68549M 68711  68865M 68935  69384M 69428  69541M 69608  69877M 69909  70043M 70071  70251M
             70307  70434M 70466  70780M 70832  71516M 71547  71702M 71737  71982M 72017  72362M 72417  72460M 72825M
             72860  73201M 73267  73672M 73706  73972M 74027  74599M 74745  75207M 75279  75418M 75450  75496M 75524
             75569M 75622  75657M 76920  77609  77786M 77832  77857M 77967M 78089  78596M 78649  79206M 79239  79532M
             79611  79804M 79839  79957M 79988  80171M 80251  80335M 80363  80488M 80513  80577M 80601  80673M 80697
             80796M 80824  80904M 80930  81093M 81151  81503M 81537  81970M 82004  82082M 82116  82258M 82290  82432M
             82464  82675M 82709  82830M 82871  82963M 82996  83126M 83159  83359M 83384  83478M 83604  83713M 83749
             83906M 83935  84007M 84038  84095M 84126  84183M 84214  84282M 84313  84425M 84464  84588M 84614  84992M
             85027  85143M 85177  85311M 85345  85443M 85512  85599M 85633  85720M 85747  85815M 85842  85974M
    13(D)     1000U  8730   9168M  9244   9252   9410   9493   9494M  9494   9529M 10154  10157  10158  10159M 10159
             10277M 10281  10283  10308  10316M 10403  10406  10407  10408M 10408  10679M 10683  10685  10715  10718
             10719  10720M 10720  10788  10789M 10789  10904M 10908  10910  10935  10938  10939  10940M 10940  11713M
             11717  11719  11743  11746  11747  11748M 11748  11803M 11807  11809  11855  11858  11860  11861M 11861
             12582M 12586  12588  12613  12616  12617  12618M 12618  13063M 13067  13069  13094  13097  13098  13099M
             13099  13465M 13469  13471  13560  13563  13564  13565M 13565  13913M 13917  13919  13943  13946  13947
             13948M 13948  14142M 14146  14148  14222  14225  14227  14228M 14228  14508M 14512  14514  14561  14564
             14566  14567M 14567  15119M 15123  15125  15184  15187  15188  15189M 15189  15217  15218M 15219M 15219
             15220M 15541M 15545  15547  15601  15604  15606  15607M 15607  16071M 16075  16077  16127  16130  16132
             16133M 16133  16297M 16301  16303  16330  16333  16334  16335M 16335  17108M 17112  17114  17142  17145
             17146  17147M 17147  17192  17193M 17194M 17194  17195M 17956M 17960  17962  17992  17995  17996  17997M
             17997  18138  18139M 18139  18188M 18374M 18378  18380  18448  18451  18452  18453M 18453  18970M 18974
             18976  19002  19005  19006  19007M 19007  19115M 19119  19121  19219  19222  19223  19224M 19224  19840M
             19844  19846  19918  19921  19923  19924M 19924  20385M 20389  20391  20420  20423  20424  20425M 20425
             20546M 20550  20552  20626  20629  20631  20632M 20632  22181  22182M 22182  22206M 22207  22225M 22229
             22231  22257  22260  22261  22262M 22262  22622M 22626  22628  22657  22660  22661  22662M 22662  22938M
             22942  22944  23047  23050  23051  23052M 23052  23185M 23189  23191  23224  23227  23228  23229M 23229
             23434M 23438  23440  23471  23474  23475  23476M 23476  23918M 23922  23924  23952  23955  23956  23957M
             23957  24114M 24118  24120  24143  24146  24147  24148M 24148  24326M 24330  24332  24357  24360  24361
1         General Purpose Register Cross Reference                                                                          Page  523
             24362M 24362  24618M 24622  24624  24651  24654  24655  24656M 24656  24699M 24703  24705  24728  24731
             24732  24733M 24733  24798M 24802  24804  24827  24830  24831  24832M 24832  24880M 24884  24886  24989
             24992  24994  24995M 24995  28791M 28795  28797  28923  28926  28928  28929M 28929  31031M 31035  31037
             31108  31111  31112  31113M 31113  31281M 31285  31287  31312  31315  31316  31317M 31317  31430M 31434
             31436  31479  31482  31484  31485M 31485  31656M 31660  31662  31712  31715  31717  31718M 31718  31882M
             31886  31888  31914  31917  31918  31919M 31919  32082M 32086  32088  32111  32114  32115  32116M 32116
             32248M 32252  32254  32280  32283  32284  32285M 32285  32564M 32568  32570  32593  32596  32597  32598M
             32598  32636M 32640  32642  32665  32668  32669  32670M 32670  32879M 32883  32885  32914  32917  32918
             32919M 32919  33050M 33054  33056  33079  33082  33083  33084M 33084  33595M 33599  33601  33629  33632
             33633  33634M 33634  34184M 34188  34190  34223  34226  34227  34228M 34228  34350M 34354  34356  34385
             34388  34389  34390M 34390  34478M 34482  34484  34510  34513  34514  34515M 34515  34806M 34810  34812
             34835  34838  34839  34840M 34840  35075M 35079  35081  35107  35110  35111  35112M 35112  35263M 35267
             35269  35297  35300  35301  35302M 35302  35389M 35393  35395  35428  35431  35432  35433M 35433  35599M
             35603  35605  35643  35646  35647  35648M 35648  35783M 35787  35789  35882  35885  35886  35887M 35887
             35998M 36002  36004  36048  36051  36052  36053M 36053  36200M 36204  36206  36235  36238  36239  36240M
             36240  36462M 36466  36468  36504  36507  36508  36509M 36509  36736M 36740  36742  36768  36771  36772
             36773M 36773  36797  36798M 36798  36893M 36897  36899  36956  36959  36960  36961M 36961  37668M 37672
             37674  37701  37704  37705  37706M 37706  37932  37933M 37933  37963M 38114M 38118  38120  38144  38147
             38148  38149M 38149  38292M 38296  38298  38325  38328  38329  38330M 38330  38468M 38472  38474  38500
             38503  38504  38505M 38505  38687M 38691  38693  38787  38790  38792  38793M 38793  39034  39035M 39035
             39065M 40187M 40191  40193  40246  40249  40251  40252M 40252  40673M 40677  40679  40724  40727  40729
             40730M 40730  41041M 41045  41047  41073  41076  41077  41078M 41078  41189M 41193  41195  41224  41227
             41228  41229M 41229  41345M 41349  41351  41384  41387  41388  41389M 41389  41676M 41680  41682  41715
             41718  41719  41720M 41720  42026M 42030  42032  42065  42068  42069  42070M 42070  42314M 42318  42320
             42445  42448  42450  42451M 42451  43923M 43927  43929  43955  43958  43959  43960M 43960  44070M 44074
             44076  44101  44104  44105  44106M 44106  44277M 44281  44283  44310  44313  44314  44315M 44315  44531
             44532M 44532  44558M 44562  44564  44594  44597  44598  44599M 44599  44748M 44752  44754  44782  44785
             44786  44787M 44787  44920M 44924  44926  44978  44981  44983  44984M 44984  45291M 45295  45297  45326
             45329  45330  45331M 45331  45461M 45465  45467  45494  45497  45498  45499M 45499  45644M 45648  45650
             45678  45681  45682  45683M 45683  45908M 45912  45914  46001  46004  46006  46007M 46007  46508  46509M
             46509  46591M 46761  46762M 46762  48161  48162M 48162  48813  48814M 48814  49020  49021M 49021  49158
             49159M 49159  50806  50807M 50807  51835  51836M 51836  52624M 52628  52630  52767  52770  52771  52772M
             52772  52954M 52958  52960  53008  53011  53013  53014M 53014  55369  55370M 55370  55409M 55410  55510
             55511M 55511  55550M 55551  55603M 55607  55609  55721  55724  55726  55727M 55727  57020M 57024  57026
             57114  57117  57119  57120M 57120  60976M 60980  60982  61147  61150  61152  61153M 61153  64454M 64458
             64460  64588  64591  64593  64594M 64594  65980  65981M 65981  67887M 67888  67916M 67920  67922  67949
             67952  67953  67954M 67954  68412  68413M 68413  68545M 68549  68551  68708  68711  68713  68714M 68714
             68861M 68865  68867  68932  68935  68937  68938M 68938  69380M 69384  69386  69425  69428  69429  69430M
             69430  69537M 69541  69543  69605  69608  69609  69610M 69610  69873M 69877  69879  69906  69909  69910
             69911M 69911  69970  69971M 69971  70039M 70043  70045  70068  70071  70072  70073M 70073  70247M 70251
             70253  70304  70307  70309  70310M 70310  70430M 70434  70436  70463  70466  70467  70468M 70468  70776M
             70780  70782  70829  70832  70834  70835M 70835  71512M 71516  71518  71544  71547  71548  71549M 71549
             71610  71611M 71612M 71612  71613M 71698M 71702  71704  71734  71737  71738  71739M 71739  71978M 71982
             71984  72014  72017  72018  72019M 72019  72358M 72362  72364  72414  72417  72419  72420M 72420  72821M
             72825  72827  72857  72860  72861  72862M 72862  73197M 73201  73203  73264  73267  73269  73270M 73270
             73668M 73672  73674  73703  73706  73707  73708M 73708  73968M 73972  73974  74024  74027  74029  74030M
             74030  74595M 74599  74601  74742  74745  74747  74748M 74748  75203M 75207  75209  75276  75279  75281
             75282M 75282  75414M 75418  75420  75447  75450  75451  75452M 75452  75492M 75496  75498  75521  75524
             75525  75526M 75526  75565M 75569  75571  75622  75673M 77786M 77829  77832  77833  77834M 77834  77963M
             77967  77969  78086  78089  78091  78092M 78092  78592M 78596  78598  78646  78649  78651  78652M 78652
             79202M 79206  79208  79236  79239  79240  79241M 79241  79528M 79532  79534  79608  79611  79612  79613M
             79613  79800M 79804  79806  79836  79839  79840  79841M 79841  79953M 79957  79959  79985  79988  79989
             79990M 79990  80167M 80171  80173  80248  80251  80252  80253M 80253  80331M 80335  80337  80360  80363
             80364  80365M 80365  80484M 80488  80490  80510  80513  80514  80515M 80515  80573M 80577  80579  80598
             80601  80602  80603M 80603  80669M 80673  80675  80694  80697  80699  80700M 80700  80792M 80796  80798
             80821  80824  80826  80827M 80827  80900M 80904  80906  80927  80930  80932  80933M 80933  81089M 81093
             81095  81148  81151  81153  81154M 81154  81225  81226M 81226  81480M 81481  81499M 81503  81505  81534
             81537  81539  81540M 81540  81966M 81970  81972  82001  82004  82005  82006M 82006  82078M 82082  82084
             82113  82116  82117  82118M 82118  82148  82149M 82149  82161M 82254M 82258  82260  82287  82290  82291
1         General Purpose Register Cross Reference                                                                          Page  524
             82292M 82292  82428M 82432  82434  82461  82464  82465  82466M 82466  82671M 82675  82677  82706  82709
             82710  82711M 82711  82826M 82830  82832  82868  82871  82872  82873M 82873  82959M 82963  82965  82993
             82996  82997  82998M 82998  83122M 83126  83128  83156  83159  83161  83162M 83162  83355M 83359  83361
             83381  83384  83386  83387M 83387  83474M 83478  83480  83601  83604  83606  83607M 83607  83709M 83713
             83715  83746  83749  83750  83751M 83751  83902M 83906  83908  83932  83935  83936  83937M 83937  84003M
             84007  84009  84035  84038  84039  84040M 84040  84091M 84095  84097  84123  84126  84127  84128M 84128
             84179M 84183  84185  84211  84214  84215  84216M 84216  84278M 84282  84284  84310  84313  84314  84315M
             84315  84421M 84425  84427  84461  84464  84465  84466M 84466  84584M 84588  84590  84611  84614  84615
             84616M 84616  84988M 84992  84994  85024  85027  85028  85029M 85029  85139M 85143  85145  85174  85177
             85178  85179M 85179  85307M 85311  85313  85342  85345  85346  85347M 85347  85439M 85443  85445  85509
             85512  85513  85514M 85514  85540  85541M 85541  85582M 85595M 85599  85601  85630  85633  85634  85635M
             85635  85661  85662M 85662  85703M 85716M 85720  85722  85744  85747  85748  85749M 85749  85774  85775M
             85775  85811M 85815  85817  85839  85842  85843  85844M 85844  85869  85870M 85870  85970M 85974  85976
    14(E)      996U  8169B  8248B  8741N  9186M  9194   9195M  9197M  9214M  9227M  9264M  9265M  9265B  9391M  9392M
              9392B  9437M  9438M  9438B  9447M  9448M  9448B  9472M  9473M  9473B  9490M  9491M  9491B  9503M  9504M
              9504B  9526M  9527M  9527B  9552M  9553M  9553B  9562M  9563M  9563B  9583M  9584M  9584B  9686M  9687M
              9687B  9718M  9719M  9719B  9829M  9830M  9830B  9836M  9837M  9837B  9840M  9841M  9841B  9869   9870M
              9872M  9903M  9904M  9904B  9927M  9951M  9952M  9952B  9976M  9977M  9977B 10058M 10059M 10059B 10114M
             10115M 10115B 10148  10149M 10151M 10154  10185M 10186M 10186B 10206M 10207M 10207B 10231M 10232M 10232B
             10240M 10241M 10241B 10259M 10260M 10260B 10283M 10286B 10308  10316M 10317B 10397  10398M 10400M 10403
             10433M 10434M 10434B 10469M 10470M 10470B 10534M 10535M 10535B 10588M 10612M 10636M 10662M 10663M 10663B
             10685M 10688B 10709  10710M 10712M 10715  10805M 10806M 10806B 10814M 10815M 10815B 10837M 10838M 10838B
             10848M 10849M 10849B 10910M 10913B 10929  10930M 10932M 10935  11147M 11148M 11148B 11152M 11153M 11153B
             11223M 11224M 11224B 11237M 11238M 11238B 11261M 11262M 11262B 11321M 11322M 11322B 11376M 11377M 11377B
             11420M 11421M 11421B 11632M 11633M 11633B 11662M 11663M 11663B 11693M 11694M 11694B 11719M 11722B 11737
             11738M 11740M 11743  11809M 11812B 11849  11850M 11852M 11855  11960M 11961M 11961B 11965M 11966M 11966B
             12057M 12058M 12058B 12156M 12157M 12157B 12234M 12235M 12235B 12279M 12280M 12280B 12337M 12338M 12338B
             12381M 12382M 12382B 12484M 12485M 12485B 12519M 12520M 12520B 12588M 12591B 12607  12608M 12610M 12613
             12733M 12734M 12734B 12754M 12755M 12755B 12774M 12775M 12775B 12779M 12780M 12780B 12949M 12950M 12950B
             12953M 12978M 12981M 12986M 12987M 12987B 13069M 13072B 13088  13089M 13091M 13094  13187M 13188M 13188B
             13212M 13213M 13213B 13229M 13230M 13230B 13252M 13253M 13253B 13285M 13286M 13286B 13314M 13315M 13315B
             13335M 13336M 13336B 13364M 13365M 13365B 13397M 13398M 13398B 13420M 13421M 13421B 13448M 13449M 13449B
             13471M 13474B 13554  13555M 13557M 13560  13672M 13673M 13673B 13690M 13704M 13891M 13892M 13892B 13919M
             13922B 13937  13938M 13940M 13943  14002M 14003M 14003B 14052M 14053M 14053B 14076M 14077M 14077B 14102M
             14103M 14103B 14126M 14127M 14127B 14148M 14151B 14216  14217M 14219M 14222  14364M 14365M 14365B 14382M
             14396M 14434M 14448M 14459M 14473M 14514M 14517B 14555  14556M 14558M 14561  14642M 14643M 14643B 14783M
             14784M 14784B 14828M 14829M 14829B 14886M 14887M 14887B 14930M 14931M 14931B 15012M 15013M 15013B 15047M
             15048M 15048B 15096M 15097M 15097B 15125M 15128B 15178  15179M 15181M 15184  15226M 15238M 15353M 15354M
             15354B 15446M 15447M 15447B 15506M 15507M 15507B 15547M 15550B 15595  15596M 15598M 15601  15669M 15670M
             15670B 15795M 15796M 15796B 15825M 15826M 15826B 15854M 15855M 15855B 15884M 15885M 15885B 16077M 16080B
             16121  16122M 16124M 16127  16223M 16224M 16224B 16243M 16244M 16244B 16270M 16271M 16271B 16303M 16306B
             16324  16325M 16327M 16330  16583M 16584M 16584B 16611M 16612M 16612B 16643M 16644M 16644B 16677M 16678M
             16678B 16694M 16695M 16695B 16711M 16712M 16712B 16735M 16736M 16736B 16759M 16760M 16760B 16787M 16788M
             16788B 16808M 16809M 16809B 16865M 16866M 16866B 16934M 16935M 16935B 16975M 16976M 16976B 17022M 17023M
             17023B 17075M 17076M 17076B 17114M 17117B 17136  17137M 17139M 17142  17201M 17213M 17304M 17305M 17305B
             17337M 17338M 17338B 17354M 17355M 17355B 17378M 17379M 17379B 17442M 17443M 17443B 17451M 17452M 17452B
             17587M 17588M 17588B 17874M 17875M 17875B 17962M 17965B 17986  17987M 17989M 17992  18165M 18166M 18166B
             18185M 18186M 18186B 18222M 18223M 18223B 18239M 18240M 18240B 18256M 18257M 18257B 18280M 18281M 18281B
             18304M 18305M 18305B 18348M 18349M 18349B 18380M 18383B 18442  18443M 18445M 18448  18625M 18626M 18626B
             18645M 18659M 18846M 18847M 18847B 18851M 18853M 18883M 18884M 18886M 18932M 18933M 18933B 18976M 18979B
             18996  18997M 18999M 19002  19092M 19093M 19093B 19121M 19124B 19213  19214M 19216M 19219  19334M 19335M
             19335B 19377M 19378M 19378B 19471M 19472M 19472B 19520M 19521M 19521B 19547M 19548M 19548B 19592M 19593M
             19593B 19624M 19625M 19625B 19652M 19653M 19653B 19697M 19698M 19698B 19719M 19720M 19720B 19747M 19748M
             19748B 19792M 19793M 19793B 19815M 19816M 19816B 19846M 19849B 19912  19913M 19915M 19918  20007M 20008M
             20008B 20026M 20027M 20027B 20158M 20159M 20159B 20236M 20237M 20237B 20283B 20304B 20325B 20346B 20367B
             20391M 20394B 20414  20415M 20417M 20420  20516M 20517M 20517B 20552M 20555B 20620  20621M 20623M 20626
             20717M 20718M 20718B 20736M 20737M 20737B 21254M 21255M 21255B 21383M 21384M 21384B 21392M 21393M 21393B
             21449M 21450M 21450B 21475M 21476M 21476B 21529M 21530M 21530B 21615M 21616M 21616B 21650M 21651M 21651B
             21677M 21678M 21678B 21704M 21705M 21705B 21731M 21732M 21732B 21758M 21759M 21759B 21787M 21788M 21788B
1         General Purpose Register Cross Reference                                                                          Page  525
             21814M 21815M 21815B 21843M 21844M 21844B 21847M 21848M 21848B 21895M 21896M 21896B 21899M 21900M 21900B
             21935M 21936M 21936B 21996M 21997M 21997B 22055B 22076B 22097B 22118B 22139B 22160B 22169B 22178B 22181
             22185M 22186M 22186B 22207M 22208B 22231M 22234B 22251  22252M 22254M 22257  22302M 22303M 22303B 22359M
             22360M 22360B 22530M 22531M 22531B 22550M 22551M 22551B 22565M 22566M 22566B 22601M 22602M 22602B 22628M
             22631B 22651  22652M 22654M 22657  22687M 22688M 22688B 22815M 22816M 22816B 22859M 22860M 22860B 22944M
             22947B 23041  23042M 23044M 23047  23161M 23162M 23162B 23165M 23166M 23166B 23191M 23194B 23218  23219M
             23221M 23224  23417M 23418M 23418B 23440M 23443B 23465  23466M 23468M 23471  23620M 23621M 23621B 23628M
             23629M 23629B 23683M 23684M 23684B 23703M 23715M 23832M 23833M 23833B 23859M 23860M 23860B 23863M 23864M
             23864B 23891M 23892M 23892B 23924M 23927B 23946  23947M 23949M 23952  24098M 24099M 24099B 24120M 24123B
             24137  24138M 24140M 24143  24254M 24255M 24255B 24275M 24276M 24276B 24293M 24294M 24294B 24300M 24301M
             24301B 24309M 24310M 24310B 24332M 24335B 24351  24352M 24354M 24357  24422M 24423M 24423B 24446M 24447M
             24447B 24499M 24500M 24500B 24624M 24627B 24645  24646M 24648M 24651  24705M 24708B 24722  24723M 24725M
             24728  24804M 24807B 24821  24822M 24824M 24827  24864M 24865M 24865B 24886M 24889B 24983  24984M 24986M
             24989  25118M 25119M 25119B 25137M 25138M 25138B 25171M 25172M 25172B 25188M 25189M 25189B 25205M 25206M
             25206B 25229M 25230M 25230B 25253M 25254M 25254B 25992M 25993M 25993B 26019M 26020M 26020B 26043M 26044M
             26044B 26083M 26084M 26084B 26100M 26101M 26101B 26124M 26125M 26125B 26136M 26137M 26137B 26152M 26153M
             26153B 26191M 26192M 26192B 26207M 26208M 26208B 26232M 26233M 26233B 26266M 26267M 26267B 26418M 26419M
             26419B 26477M 26478M 26478B 26618M 26619M 26619B 26677M 26678M 26678B 26924M 26925M 26925B 26973M 26974M
             26974B 26981M 26982M 26982B 27107M 27108M 27108B 27134M 27135M 27135B 27161M 27162M 27162B 27188M 27189M
             27189B 27215M 27216M 27216B 27242M 27243M 27243B 27269M 27270M 27270B 27298M 27299M 27299B 27344M 27345M
             27345B 27380M 27381M 27381B 27405M 27406M 27406B 27409M 27410M 27410B 27447M 27448M 27448B 27453M 27454M
             27454B 27473M 27474M 27474B 27493M 27494M 27494B 27499M 27500M 27500B 27776M 27777M 27777B 27790M 27802M
             27909M 27910M 27910B 27954M 27955M 27955B 28138M 28139M 28139B 28146M 28147M 28147B 28264M 28265M 28265B
             28291M 28292M 28292B 28316M 28317M 28317B 28320M 28321M 28321B 28371M 28372M 28372B 28398M 28399M 28399B
             28402M 28403M 28403B 28472M 28473M 28473B 28513M 28514M 28514B 28602M 28603M 28603B 28762M 28763M 28763B
             28797M 28800B 28917  28918M 28920M 28923  29101M 29102M 29102B 29394M 29395M 29395B 29422M 29436M 29521M
             29522M 29522B 29548M 29549M 29549B 29552M 29553M 29553B 30022M 30024M 30025  30083M 30084M 30084B 30866M
             30867M 30867B 30892M 30893M 30893B 30897M 30898M 30898B 30952M 30953M 30953B 30959M 30960M 30960B 31037M
             31040B 31102  31103M 31105M 31108  31201M 31202M 31202B 31220M 31221M 31221B 31243M 31244M 31244B 31265M
             31266M 31266B 31287M 31290B 31306  31307M 31309M 31312  31406M 31407M 31407B 31411M 31412M 31412B 31436M
             31439B 31473  31474M 31476M 31479  31629M 31630M 31630B 31634M 31635M 31635B 31662M 31665B 31706  31707M
             31709M 31712  31808M 31809M 31809B 31828M 31829M 31829B 31855M 31856M 31856B 31888M 31891B 31908  31909M
             31911M 31914  31945M 31946M 31946B 32037M 32038M 32038B 32045M 32088M 32091B 32105  32106M 32108M 32111
             32254M 32257B 32274  32275M 32277M 32280  32385M 32386M 32386B 32412M 32413M 32413B 32437M 32438M 32438B
             32441M 32442M 32442B 32548M 32549M 32549B 32552M 32553M 32553B 32570M 32573B 32587  32588M 32590M 32593
             32624M 32625M 32625B 32642M 32645B 32659  32660M 32662M 32665  32713M 32714M 32714B 32787M 32788M 32788B
             32814M 32815M 32815B 32818M 32819M 32819B 32859M 32860M 32860B 32885M 32888B 32908  32909M 32911M 32914
             32945M 32946M 32946B 32971M 32972M 32972B 33007M 33008M 33008B 33030M 33031M 33031B 33056M 33059B 33073
             33074M 33076M 33079  33155M 33156M 33156B 33198M 33199M 33199B 33228M 33229M 33229B 33258M 33259M 33259B
             33285M 33286M 33286B 33581M 33582M 33582B 33601M 33604B 33623  33624M 33626M 33629  33746M 33862M 33863M
             33863B 33872M 33873M 33873B 33880M 33881M 33881B 34000M 34001M 34001B 34096M 34097M 34097B 34155M 34156M
             34156B 34190M 34193B 34217  34218M 34220M 34223  34356M 34359B 34379  34380M 34382M 34385  34484M 34487B
             34504  34505M 34507M 34510  34658M 34659M 34659B 34666M 34667M 34667B 34743M 34744M 34744B 34762M 34774M
             34784M 34785M 34785B 34812M 34815B 34829  34830M 34832M 34835  34977M 34978M 34978B 34983M 34984M 34984B
             35010M 35011M 35011B 35058M 35059M 35059B 35081M 35084B 35101  35102M 35104M 35107  35188M 35189M 35189B
             35237M 35238M 35238B 35269M 35272B 35291  35292M 35294M 35297  35363M 35364M 35364B 35367M 35368M 35368B
             35395M 35398B 35422  35423M 35425M 35428  35605M 35608B 35637  35638M 35640M 35643  35789M 35792B 35876
             35877M 35879M 35882  36004M 36007B 36042  36043M 36045M 36048  36206M 36209B 36229  36230M 36232M 36235
             36381M 36382M 36382B 36468M 36471B 36498  36499M 36501M 36504  36626M 36627M 36627B 36674M 36675M 36675B
             36708M 36709M 36709B 36742M 36745B 36762  36763M 36765M 36768  36871M 36872M 36872B 36899M 36902B 36950
             36951M 36953M 36956  37094M 37095M 37095B 37191M 37192M 37192B 37478M 37479M 37479B 37497M 37498M 37498B
             37637M 37638M 37638B 37674M 37677B 37695  37696M 37698M 37701  37919M 37920M 37920B 37923M 37924M 37924B
             37936M 37937M 37937B 37960M 37961M 37961B 37980M 37981M 37981B 37997M 37998M 37998B 38026M 38027M 38027B
             38031M 38032M 38032B 38069M 38070M 38070B 38078M 38079M 38079B 38096M 38097M 38097B 38120M 38123B 38138
             38139M 38141M 38144  38223M 38224M 38224B 38264M 38265M 38265B 38298M 38301B 38319  38320M 38322M 38325
             38406M 38407M 38407B 38411M 38412M 38412B 38438M 38439M 38439B 38450M 38451M 38451B 38474M 38477B 38494
             38495M 38497M 38500  38652M 38653M 38653B 38657M 38658M 38658B 38670M 38671M 38671B 38693M 38696B 38781
             38782M 38784M 38787  39007M 39008M 39008B 39038M 39039M 39039B 39062M 39063M 39063B 39082M 39083M 39083B
             39099M 39100M 39100B 39123M 39124M 39124B 39153M 39154M 39154B 39162M 39163M 39163B 39225M 39226M 39226B
1         General Purpose Register Cross Reference                                                                          Page  526
             39230M 39231M 39231B 39279M 39280M 39280B 39292M 39293M 39293B 39337M 39338M 39338B 39363M 39364M 39364B
             39381M 39382M 39382B 39398M 39399M 39399B 39422M 39423M 39423B 39430M 39431M 39431B 39451M 39452M 39452B
             39483M 39484M 39484B 39500M 39501M 39501B 39524M 39525M 39525B 39532M 39533M 39533B 39561M 39562M 39562B
             39633M 39634M 39634B 39715M 39716M 39716B 39745M 39746M 39746B 39777M 39778M 39778B 39816M 39817M 39817B
             39825M 39826M 39826B 39834M 39835M 39835B 39935M 39936M 39936B 39997M 39998M 39998B 40027M 40028M 40028B
             40092M 40093M 40093B 40124M 40125M 40125B 40137M 40138M 40138B 40154M 40155M 40155B 40193M 40196B 40240
             40241M 40243M 40246  40345M 40346M 40346B 40413M 40414M 40414B 40451M 40452M 40452B 40503M 40504M 40504B
             40541M 40542M 40542B 40593M 40594M 40594B 40631M 40632M 40632B 40679M 40682B 40718  40719M 40721M 40724
             40900M 40901M 40901B 40986M 40987M 40987B 41014M 41015M 41015B 41047M 41050B 41067  41068M 41070M 41073
             41104M 41105M 41105B 41131M 41132M 41132B 41172M 41173M 41173B 41195M 41198B 41218  41219M 41221M 41224
             41351M 41354B 41378  41379M 41381M 41384  41432M 41433M 41433B 41534M 41535M 41535B 41623M 41624M 41624B
             41682M 41685B 41709  41710M 41712M 41715  42032M 42035B 42059  42060M 42062M 42065  42097M 42098M 42098B
             42320M 42323B 42439  42440M 42442M 42445  42558M 42559M 42559B 42808M 42809M 42809B 43095M 43096M 43096B
             43335M 43336M 43336B 43394M 43395M 43395B 43576M 43577M 43577B 43630M 43631M 43631B 43734M 43735M 43735B
             43802D 43804M 43804  43805M 43806U 43807N 43830M 43832  43865M 43866M 43866B 43929M 43932B 43949  43950M
             43952M 43955  44043M 44044M 44044B 44076M 44079B 44095  44096M 44098M 44101  44145M 44146M 44146B 44163M
             44164M 44164B 44233M 44234M 44234B 44264M 44265M 44265B 44283M 44286B 44304  44305M 44307M 44310  44415M
             44416M 44416B 44419M 44420M 44420B 44423M 44424M 44424B 44450M 44451M 44451B 44474M 44475M 44475B 44492M
             44493M 44493B 44541M 44542M 44542B 44564M 44567B 44588  44589M 44591M 44594  44624M 44625M 44625B 44628M
             44629M 44629B 44650M 44651M 44651B 44754M 44757B 44776  44777M 44779M 44782  44895M 44896M 44896B 44926M
             44929B 44972  44973M 44975M 44978  45091M 45092M 45092B 45297M 45300B 45320  45321M 45323M 45326  45467M
             45470B 45488  45489M 45491M 45494  45650M 45653B 45672  45673M 45675M 45678  45708M 45709M 45709B 45914M
             45917B 45995  45996M 45998M 46001  46074M 46076M 46098M 46099M 46099B 46119M 46120M 46120B 46182M 46183M
             46183B 46198M 46199M 46199B 46231M 46232M 46232B 46274M 46275M 46275B 46399M 46400M 46400B 46434M 46435M
             46435B 46490M 46491M 46491B 46518M 46519M 46519B 46545M 46546M 46546B 46579M 46580M 46580B 46601M 46602M
             46602B 46614M 46615M 46615B 46641M 46642M 46642B 46672M 46673M 46673B 46784M 46785M 46785B 46823M 46824M
             46824B 46862M 46863M 46863B 46888M 46889M 46889B 46912M 46913M 46913B 46925M 46926M 46926B 47004M 47005M
             47005B 47033M 47034M 47034B 47063M 47064M 47064B 47101M 47102M 47102B 47114M 47115M 47115B 47153M 47154M
             47154B 47177M 47178M 47178B 47377M 47378M 47378B 47383M 47384M 47384B 47416M 47417M 47417B 47454M 47455M
             47455B 47582M 47583M 47583B 47603M 47604M 47604B 47633M 47634M 47634B 47797M 47798M 47798B 47833M 47834M
             47834B 47839M 47840M 47840B 47861M 47862M 47862B 47896M 47897M 47897B 47917M 47918M 47918B 47947M 47948M
             47948B 48067M 48068M 48068B 48097M 48098M 48098B 48227M 48228M 48228B 48259M 48260M 48260B 48324M 48325M
             48325B 48363M 48364M 48364B 48408M 48409M 48409B 48456M 48457M 48457B 48486M 48487M 48487B 48525M 48526M
             48526B 48554M 48555M 48555B 48569M 48570M 48570B 48696M 48697M 48697B 48720M 48721M 48721B 48742M 48743M
             48743B 48839M 48840M 48840B 48925M 48926M 48926B 48935M 48936M 48936B 48965M 48966M 48966B 49056M 49057M
             49057B 49208M 49209M 49209B 49277M 49278M 49278B 49316M 49317M 49317B 49361M 49362M 49362B 49409M 49410M
             49410B 49439M 49440M 49440B 49477M 49478M 49478B 49607M 49608M 49608B 49637M 49638M 49638B 49679M 49680M
             49680B 49767M 49768M 49768B 49820M 49821M 49821B 49842M 49843M 49843B 49864M 49865M 49865B 49954M 49955M
             49955B 49976M 49977M 49977B 49998M 49999M 49999B 50029M 50030M 50030B 50051M 50052M 50052B 50073M 50074M
             50074B 50163M 50164M 50164B 50185M 50186M 50186B 50207M 50208M 50208B 50269M 50270M 50270B 50291M 50292M
             50292B 50324M 50325M 50325B 50364M 50365M 50365B 50387M 50388M 50388B 50403M 50404M 50404B 50433M 50434M
             50434B 50448M 50449M 50449B 50460M 50461M 50461B 50486M 50487M 50487B 50521M 50522M 50522B 50567M 50568M
             50568B 50608M 50609M 50609B 50639M 50640M 50640B 50650M 50651M 50651B 50666M 50667M 50667B 50680M 50681M
             50681B 50714M 50715M 50715B 50777M 50778M 50778B 50845M 50846M 50846B 50982M 50983M 50983B 51004M 51005M
             51005B 51083M 51084M 51084B 51114M 51115M 51115B 51143M 51144M 51144B 51209M 51210M 51210B 51224M 51225M
             51225B 51251M 51252M 51252B 51256M 51257M 51257B 51289M 51290M 51290B 51315M 51316M 51316B 51378M 51379M
             51379B 51400M 51401M 51401B 51422M 51423M 51423B 51438M 51439M 51439B 51471M 51472M 51472B 51496M 51497M
             51497B 51512M 51513M 51513B 51531M 51532M 51532B 51547M 51548M 51548B 51580M 51581M 51581B 51599M 51600M
             51600B 51615M 51616M 51616B 51621M 51622M 51622B 51643M 51644M 51644B 51659M 51660M 51660B 51704M 51705M
             51705B 51725M 51726M 51726B 51753M 51754M 51754B 51786M 51787M 51787B 51876M 51877M 51877B 51923M 51924M
             51924B 52044M 52045M 52045B 52141M 52142M 52142B 52193M 52194M 52194B 52245M 52246M 52246B 52302M 52303M
             52303B 52321M 52322M 52322B 52336M 52337M 52337B 52355M 52356M 52356B 52370M 52371M 52371B 52389M 52390M
             52390B 52411M 52412M 52412B 52433M 52434M 52434B 52459M 52460M 52460B 52486M 52487M 52487B 52512M 52513M
             52513B 52555M 52556M 52556B 52571M 52572M 52572B 52587M 52588M 52588B 52630M 52633B 52761  52762M 52764M
             52767  52960M 52963B 53002  53003M 53005M 53008  53073M 53074M 53074B 53089M 53090M 53090B 53096M 53097M
             53097B 53118M 53119M 53119B 53134M 53135M 53135B 53151M 53152M 53152B 53166M 53167M 53167B 53188M 53189M
             53189B 53204M 53205M 53205B 53216M 53217M 53217B 53238M 53239M 53239B 53270M 53271M 53271B 53286M 53287M
             53287B 53322M 53323M 53323B 53365M 53366M 53366B 53381M 53382M 53382B 53388M 53389M 53389B 53410M 53411M
             53411B 53442M 53443M 53443B 53482M 53483M 53483B 53497M 53498M 53498B 53527M 53528M 53528B 53574M 53575M
1         General Purpose Register Cross Reference                                                                          Page  527
             53575B 53590M 53591M 53591B 53597M 53598M 53598B 53619M 53620M 53620B 53662M 53663M 53663B 53678M 53679M
             53679B 53685M 53686M 53686B 53707M 53708M 53708B 53750M 53751M 53751B 53766M 53767M 53767B 53808M 53809M
             53809B 53824M 53825M 53825B 53866M 53867M 53867B 53882M 53883M 53883B 53924M 53925M 53925B 53940M 53941M
             53941B 53977M 53978M 53978B 53999M 54000M 54000B 54015M 54016M 54016B 54052M 54053M 54053B 54074M 54075M
             54075B 54090M 54091M 54091B 54111M 54112M 54112B 54128M 54129M 54129B 54150M 54151M 54151B 54165M 54166M
             54166B 54184M 54185M 54185B 54199M 54200M 54200B 54218M 54219M 54219B 54234M 54235M 54235B 54256M 54257M
             54257B 54272M 54273M 54273B 54294M 54295M 54295B 54310M 54311M 54311B 54332M 54333M 54333B 54348M 54349M
             54349B 54386M 54387M 54387B 54402M 54403M 54403B 54444M 54445M 54445B 54460M 54461M 54461B 54502M 54503M
             54503B 54518M 54519M 54519B 54560M 54561M 54561B 54576M 54577M 54577B 54618M 54619M 54619B 54634M 54635M
             54635B 54676M 54677M 54677B 54692M 54693M 54693B 54713M 54714M 54714B 54735M 54736M 54736B 54751M 54752M
             54752B 54773M 54774M 54774B 54789M 54790M 54790B 54811M 54812M 54812B 54827M 54828M 54828B 54849M 54850M
             54850B 54865M 54866M 54866B 54903M 54904M 54904B 54919M 54920M 54920B 54945M 54946M 54946B 54960M 54961M
             54961B 54991M 54992M 54992B 55010M 55011M 55011B 55025M 55026M 55026B 55051M 55052M 55052B 55074M 55075M
             55075B 55089M 55090M 55090B 55108M 55109M 55109B 55130M 55131M 55131B 55147M 55148M 55148B 55166M 55167M
             55167B 55182M 55183M 55183B 55201M 55202M 55202B 55223M 55224M 55224B 55240M 55241M 55241B 55259M 55260M
             55260B 55275M 55276M 55276B 55294M 55295M 55295B 55316M 55317M 55317B 55333M 55334M 55334B 55355M 55356M
             55356B 55391M 55392M 55392B 55406M 55407M 55407B 55431M 55432M 55432B 55474M 55475M 55475B 55496M 55497M
             55497B 55532M 55533M 55533B 55547M 55548M 55548B 55572M 55573M 55573B 55609M 55612B 55715  55716M 55718M
             55721  55789M 55790M 55790B 55807M 55808M 55808B 55822M 55823M 55823B 55848M 55849M 55849B 55917M 55918M
             55918B 55928M 55929M 55929B 55950M 55951M 55951B 55991M 55992M 55992B 55998M 55999M 55999B 56020M 56021M
             56021B 56057M 56058M 56058B 56076M 56077M 56077B 56098M 56099M 56099B 56135M 56136M 56136B 56154M 56155M
             56155B 56176M 56177M 56177B 56213M 56214M 56214B 56232M 56233M 56233B 56254M 56255M 56255B 56291M 56292M
             56292B 56310M 56311M 56311B 56325M 56326M 56326B 56344M 56345M 56345B 56360M 56361M 56361B 56392M 56393M
             56393B 56411M 56412M 56412B 56426M 56427M 56427B 56452M 56453M 56453B 56489M 56490M 56490B 56508M 56509M
             56509B 56523M 56524M 56524B 56542M 56543M 56543B 56558M 56559M 56559B 56590M 56591M 56591B 56609M 56610M
             56610B 56624M 56625M 56625B 56650M 56651M 56651B 56686M 56687M 56687B 56708M 56709M 56709B 56741M 56742M
             56742B 56756M 56757M 56757B 56775M 56776M 56776B 56790M 56791M 56791B 56822M 56823M 56823B 56858M 56859M
             56859B 56880M 56881M 56881B 56913M 56914M 56914B 56928M 56929M 56929B 56947M 56948M 56948B 56962M 56963M
             56963B 56994M 56995M 56995B 57026M 57029B 57108  57109M 57111M 57114  57183M 57184M 57184B 57202M 57203M
             57203B 57217M 57218M 57218B 57253M 57254M 57254B 57285M 57286M 57286B 57304M 57305M 57305B 57323M 57324M
             57324B 57342M 57343M 57343B 57347M 57348M 57348B 57375M 57376M 57376B 57399M 57400M 57400B 57415M 57416M
             57416B 57441M 57442M 57442B 57458M 57459M 57459B 57500M 57501M 57501B 57539M 57540M 57540B 57565M 57566M
             57566B 57610M 57611M 57611B 57642M 57643M 57643B 57678M 57679M 57679B 57702M 57703M 57703B 57716M 57717M
             57717B 57738M 57739M 57739B 57771M 57772M 57772B 57819M 57820M 57820B 57834M 57835M 57835B 57865M 57866M
             57866B 57884M 57885M 57885B 57893M 57894M 57894B 57921M 57922M 57922B 57945M 57946M 57946B 57961M 57962M
             57962B 57987M 57988M 57988B 58055M 58056M 58056B 58074M 58075M 58075B 58089M 58090M 58090B 58108M 58109M
             58109B 58123M 58124M 58124B 58142M 58143M 58143B 58157M 58158M 58158B 58178M 58179M 58179B 58193M 58194M
             58194B 58214M 58215M 58215B 58236M 58237M 58237B 58252M 58253M 58253B 58271M 58272M 58272B 58286M 58287M
             58287B 58305M 58306M 58306B 58320M 58321M 58321B 58352M 58353M 58353B 58371M 58372M 58372B 58386M 58387M
             58387B 58412M 58413M 58413B 58429M 58430M 58430B 58448M 58449M 58449B 58463M 58464M 58464B 58482M 58483M
             58483B 58497M 58498M 58498B 58529M 58530M 58530B 58548M 58549M 58549B 58563M 58564M 58564B 58589M 58590M
             58590B 58622M 58623M 58623B 58642M 58643M 58643B 58658M 58659M 58659B 58692M 58693M 58693B 58707M 58708M
             58708B 58733M 58734M 58734B 58772M 58773M 58773B 58778M 58779M 58779B 58800M 58801M 58801B 58822M 58823M
             58823B 58859M 58860M 58860B 58865M 58866M 58866B 58887M 58888M 58888B 58914M 58915M 58915B 58933M 58934M
             58934B 58949M 58950M 58950B 58991M 58992M 58992B 59030M 59031M 59031B 59036M 59037M 59037B 59058M 59059M
             59059B 59080M 59081M 59081B 59118M 59119M 59119B 59124M 59125M 59125B 59146M 59147M 59147B 59173M 59174M
             59174B 59192M 59193M 59193B 59207M 59208M 59208B 59238M 59239M 59239B 59264M 59265M 59265B 59306M 59307M
             59307B 59343M 59344M 59344B 59379M 59380M 59380B 59415M 59416M 59416B 59438M 59439M 59439B 59522M 59523M
             59523B 59534M 59535M 59535B 59556M 59557M 59557B 59573M 59574M 59574B 59592M 59593M 59593B 59610M 59611M
             59611B 59703M 59704M 59704B 59734M 59735M 59735B 59767M 59768M 59768B 59789M 59790M 59790B 59819M 59820M
             59820B 59841M 59842M 59842B 59876M 59877M 59877B 59911M 59912M 59912B 59946M 59947M 59947B 59972M 59973M
             59973B 59996M 59997M 59997B 60051M 60052M 60052B 60081M 60082M 60082B 60112M 60113M 60113B 60130M 60131M
             60131B 60145M 60146M 60146B 60171M 60172M 60172B 60202M 60203M 60203B 60230M 60231M 60231B 60290M 60291M
             60291B 60312M 60313M 60313B 60339M 60340M 60340B 60366M 60367M 60367B 60423M 60424M 60424B 60450M 60451M
             60451B 60506M 60507M 60507B 60611M 60612M 60612B 60656M 60657M 60657B 60678M 60679M 60679B 60693M 60694M
             60694B 60721M 60722M 60722B 60753M 60754M 60754B 60772M 60773M 60773B 60798M 60799M 60799B 60848M 60849M
             60849B 60864M 60865M 60865B 60886M 60887M 60887B 60908M 60909M 60909B 60924M 60925M 60925B 60950M 60951M
             60951B 60982M 60985B 61141  61142M 61144M 61147  61249M 61250M 61250B 61271M 61272M 61272B 61292M 61293M
             61293B 61307M 61308M 61308B 61329M 61330M 61330B 61350M 61351M 61351B 61365M 61366M 61366B 61497M 61498M
1         General Purpose Register Cross Reference                                                                          Page  528
             61498B 61523M 61524M 61524B 61538M 61539M 61539B 61557M 61558M 61558B 61579M 61580M 61580B 61794M 61795M
             61795B 61827M 61828M 61828B 61848M 61849M 61849B 61868M 61869M 61869B 61921M 61922M 61922B 61956M 61957M
             61957B 62028M 62029M 62029B 62087M 62088M 62088B 62120M 62121M 62121B 62204M 62205M 62205B 62239M 62240M
             62240B 62316M 62317M 62317B 62375M 62376M 62376B 62413M 62414M 62414B 62533M 62534M 62534B 62557M 62558M
             62558B 62587M 62588M 62588B 62602M 62603M 62603B 62617M 62618M 62618B 62632M 62633M 62633B 62647M 62648M
             62648B 62672M 62673M 62673B 62700M 62701M 62701B 62722M 62723M 62723B 62741M 62742M 62742B 62775M 62776M
             62776B 62822M 62823M 62823B 62869M 62870M 62870B 62909M 62910M 62910B 62928M 62929M 62929B 62947M 62948M
             62948B 62969M 62970M 62970B 63033M 63034M 63034B 63085M 63086M 63086B 63109M 63110M 63110B 63124M 63125M
             63125B 63148M 63149M 63149B 63183M 63184M 63184B 63222M 63223M 63223B 63248M 63249M 63249B 63301M 63302M
             63302B 63366M 63367M 63367B 63391M 63392M 63392B 63406M 63407M 63407B 63431M 63432M 63432B 63446M 63447M
             63447B 63467M 63468M 63468B 63499M 63500M 63500B 63525M 63526M 63526B 63577M 63578M 63578B 63642M 63643M
             63643B 63667M 63668M 63668B 63682M 63683M 63683B 63707M 63708M 63708B 63722M 63723M 63723B 63754M 63755M
             63755B 63790M 63791M 63791B 63826M 63827M 63827B 63862M 63863M 63863B 63898M 63899M 63899B 63917M 63918M
             63918B 63939M 63940M 63940B 63969M 63970M 63970B 63991M 63992M 63992B 64010M 64011M 64011B 64035M 64036M
             64036B 64050M 64051M 64051B 64073M 64074M 64074B 64095M 64096M 64096B 64162M 64163M 64163B 64187M 64188M
             64188B 64209M 64210M 64210B 64271M 64272M 64272B 64342M 64343M 64343B 64426M 64427M 64427B 64460M 64463B
             64582  64583M 64585M 64588  64661M 64662M 64662B 64676M 64677M 64677B 64701M 64702M 64702B 64717M 64718M
             64718B 64749M 64750M 64750B 64785M 64786M 64786B 64821M 64822M 64822B 64857M 64858M 64858B 64876M 64877M
             64877B 64903M 64904M 64904B 64936M 64937M 64937B 64973M 64974M 64974B 65010M 65011M 65011B 65047M 65048M
             65048B 65084M 65085M 65085B 65110M 65111M 65111B 65129M 65130M 65130B 65183M 65184M 65184B 65198M 65199M
             65199B 65205M 65206M 65206B 65245M 65246M 65246B 65260M 65261M 65261B 65294M 65295M 65295B 65340M 65341M
             65341B 65386M 65387M 65387B 65432M 65433M 65433B 65467M 65468M 65468B 65504M 65505M 65505B 65523M 65524M
             65524B 65549M 65550M 65550B 65592M 65593M 65593B 65634M 65635M 65635B 65669M 65712M 65713M 65713B 65754M
             65755M 65755B 65789M 65832M 65833M 65833B 65874M 65875M 65875B 65909M 65943M 65944M 65944B 65970M 65971M
             65971B 65980  66012M 66013M 66013B 66056M 66057M 66057B 66088M 66089M 66089B 66110M 66111M 66111B 66125M
             66126M 66126B 66159M 66160M 66160B 66206M 66207M 66207B 66253M 66254M 66254B 66300M 66301M 66301B 66347M
             66348M 66348B 66394M 66395M 66395B 66441M 66442M 66442B 66488M 66489M 66489B 66535M 66536M 66536B 66569M
             66570M 66570B 66607M 66608M 66608B 66625M 66626M 66626B 66645M 66646M 66646B 66664M 66665M 66665B 66698M
             66699M 66699B 66717M 66718M 66718B 66732M 66733M 66733B 66758M 66759M 66759B 66805M 66806M 66806B 66820M
             66821M 66821B 66842M 66843M 66843B 66921M 66922M 66922B 66947M 66948M 66948B 66994M 66995M 66995B 67002M
             67003M 67003B 67042M 67043M 67043B 67060M 67061M 67061B 67075M 67076M 67076B 67082M 67083M 67083B 67122M
             67123M 67123B 67140M 67141M 67141B 67155M 67156M 67156B 67174M 67175M 67175B 67189M 67190M 67190B 67208M
             67209M 67209B 67223M 67224M 67224B 67242M 67243M 67243B 67257M 67258M 67258B 67276M 67277M 67277B 67291M
             67292M 67292B 67310M 67311M 67311B 67332M 67333M 67333B 67420M 67421M 67421B 67445M 67446M 67446B 67501M
             67502M 67502B 67527M 67528M 67528B 67576M 67577M 67577B 67591M 67592M 67592B 67606M 67607M 67607B 67646M
             67647M 67647B 67692M 67693M 67693B 67727M 67728M 67728B 67746M 67747M 67747B 67791M 67792M 67792B 67823M
             67824M 67824B 67855M 67856M 67856B 67879M 67880M 67880B 67888M 67889B 67922M 67925B 67943  67944M 67946M
             67949  68020M 68021M 68021B 68038M 68039M 68039B 68088M 68089M 68089B 68122M 68123M 68123B 68172M 68173M
             68173B 68208M 68209M 68209B 68254M 68255M 68255B 68290M 68291M 68291B 68305M 68306M 68306B 68330M 68331M
             68331B 68369M 68370M 68370B 68384M 68385M 68385B 68428M 68429M 68429B 68449M 68450M 68450B 68501M 68502M
             68502B 68528M 68529M 68529B 68551M 68554B 68702  68703M 68705M 68708  68788M 68789M 68789B 68835M 68836M
             68836B 68867M 68870B 68926  68927M 68929M 68932  69061M 69062M 69062B 69100M 69101M 69101B 69217M 69218M
             69218B 69358M 69359M 69359B 69386M 69389B 69419  69420M 69422M 69425  69490M 69491M 69491B 69543M 69546B
             69599  69600M 69602M 69605  69800M 69801M 69803  69879M 69882B 69900  69901M 69903M 69906  69996M 69997M
             69997B 70016M 70017M 70017B 70045M 70048B 70062  70063M 70065M 70068  70103M 70104M 70104B 70128M 70142M
             70253M 70256B 70298  70299M 70301M 70304  70436M 70439B 70457  70458M 70460M 70463  70612M 70613M 70613B
             70622M 70623M 70623B 70626M 70627M 70627B 70668M 70669M 70669B 70686M 70687M 70687B 70715M 70716M 70716B
             70743M 70744M 70744B 70747M 70748M 70748B 70782M 70785B 70823  70824M 70826M 70829  70995M 70996M 70996B
             71035M 71036M 71036B 71094M 71095M 71095B 71175M 71176M 71176B 71266M 71267M 71267B 71280M 71281M 71281B
             71307M 71308M 71308B 71328M 71329M 71329B 71352M 71353M 71353B 71383M 71384M 71384B 71410M 71411M 71411B
             71437M 71438M 71438B 71462M 71463M 71463B 71486M 71487M 71487B 71518M 71521B 71538  71539M 71541M 71544
             71619M 71631M 71672M 71673M 71673B 71681M 71682M 71682B 71704M 71707B 71728  71729M 71731M 71734  71984M
             71987B 72008  72009M 72011M 72014  72142M 72143M 72143B 72364M 72367B 72408  72409M 72411M 72414  72708M
             72709M 72709B 72827M 72830B 72851  72852M 72854M 72857  73176M 73177M 73177B 73203M 73206B 73258  73259M
             73261M 73264  73674M 73677B 73697  73698M 73700M 73703  73974M 73977B 74018  74019M 74021M 74024  74435M
             74436M 74436B 74441M 74442M 74442B 74465M 74466M 74466B 74497M 74498M 74498B 74530M 74531M 74531B 74562M
             74563M 74563B 74601M 74604B 74736  74737M 74739M 74742  74867M 74868M 74868B 74871M 74872M 74872N 74884
             74891M 74896  74898M 74898N 74903M 74904M 74950M 74951M 74951B 74957M 74960M 74961M 74961B 75209M 75212B
             75270  75271M 75273M 75276  75332M 75420M 75423B 75441  75442M 75444M 75447  75498M 75501B 75515  75516M
1         General Purpose Register Cross Reference                                                                          Page  529
             75518M 75521  75571M 75574B 75617B 75622  75678M 75679M 75679B 75692M 75693M 75693B 75716M 75717M 75717B
             75751M 75752M 75752B 75779M 75780M 75780B 75812M 75813M 75813B 75854M 75855M 75855B 75879M 75880M 75880B
             75911M 75912M 75912B 75932M 75933M 75933B 75960M 75961M 75961B 75983M 75984M 75984B 75987M 75988M 75988B
             76034M 76035M 76035B 76051M 76052M 76052B 76076M 76077M 76077B 76124M 76125M 76125B 76145M 76146M 76146B
             76162M 76163M 76163B 76190M 76191M 76191B 76208M 76209M 76209B 76233M 76234M 76234B 76281M 76282M 76282B
             76302M 76303M 76303B 76319M 76320M 76320B 76347M 76348M 76348B 76366M 76367M 76367B 76384M 76385M 76385B
             76408M 76409M 76409B 76449M 76450M 76450B 76473M 76474M 76474B 76515M 76516M 76516B 76533M 76534M 76534B
             76561M 76562M 76562B 76579M 76580M 76580B 76597M 76598M 76598B 76614M 76615M 76615B 76632M 76633M 76633B
             76719M 76720M 76720B 76736M 76737M 76737B 76742M 76743M 76743B 76766M 76767M 76767B 76793M 76794M 76794B
             76810M 76811M 76811B 76834M 76835M 76835B 76851M 76852M 76852B 76875M 76876M 76876B 76892M 76893M 76893B
             76916M 76917M 76917B 76965M 76966M 76966B 76997M 76998M 76998B 77021M 77022M 77022B 77038M 77039M 77039B
             77066M 77067M 77067B 77090M 77091M 77091B 77139M 77140M 77140B 77157M 77158M 77158B 77175M 77176M 77176B
             77181M 77182M 77182B 77205M 77206M 77206B 77229M 77230M 77230B 77248M 77249M 77249B 77283M 77284M 77284B
             77317M 77318M 77318B 77335M 77336M 77336B 77359M 77360M 77360B 77383M 77384M 77384B 77405M 77406M 77406B
             77414M 77415M 77415B 77453M 77454M 77454B 77471M 77472M 77472B 77489M 77490M 77490B 77513M 77514M 77514B
             77522M 77523M 77523B 77546M 77547M 77547B 77564M 77565M 77565B 77582M 77583M 77583B 77600M 77601M 77601B
             77628M 77629M 77629B 77652M 77653M 77653B 77680M 77681M 77681B 77698M 77699M 77699B 77707M 77708M 77708B
             77725M 77726M 77726B 77743M 77744M 77744B 77752M 77753M 77753B 77770M 77771M 77771B 77775M 77776M 77776B
             77786M 77791B 77823  77824M 77826M 77829  77897M 77898M 77898B 77950M 77951M 77951B 77969M 77972B 78080
             78081M 78083M 78086  78146M 78147M 78147B 78158M 78159M 78159B 78191M 78192M 78192B 78217M 78218M 78218B
             78232M 78233M 78233B 78251M 78252M 78252B 78273M 78274M 78274B 78308M 78309M 78309B 78315M 78318M 78319M
             78319B 78376M 78377M 78377B 78525M 78526M 78526B 78533M 78534M 78534B 78549M 78550M 78550  78555M 78555
             78558M 78559  78570M 78571M 78571B 78598M 78601B 78640  78641M 78643M 78646  78703M 78704M 78704B 78722M
             78723M 78723B 78751M 78752M 78752B 78777M 78778M 78778B 78821M 78822M 78822B 78893M 78894M 78894B 78914M
             78915M 78915B 78935M 78936M 78936B 78956M 78957M 78957B 79062M 79063M 79063B 79066M 79067M 79067B 79208M
             79211B 79230  79231M 79233M 79236  79424M 79425M 79425B 79534M 79537B 79602  79603M 79605M 79608  79699M
             79700M 79700B 79741M 79742M 79742B 79806M 79809B 79830  79831M 79833M 79836  79959M 79962B 79979  79980M
             79982M 79985  80173M 80176B 80248  80337M 80340B 80360  80490M 80493B 80510  80579M 80581B 80598  80675M
             80677B 80694  80798M 80800B 80821  80906M 80908B 80927  81095M 81098B 81142  81143M 81145M 81148  81505M
             81508B 81534  81615M 81629M 81676M 81677M 81677B 81698M 81699M 81699B 81753M 81972M 81975B 82001  82035M
             82042M 82049M 82084M 82087B 82113  82151M 82158M 82168M 82174M 82260M 82263B 82287  82319M 82347M 82348M
             82348B 82375M 82376M 82376B 82398M 82399M 82399B 82434M 82437B 82461  82493M 82529M 82530M 82530B 82618M
             82619M 82619B 82641M 82642M 82642B 82677M 82680B 82706  82832M 82835B 82868  82899M 82929M 82930M 82930B
             82965M 82968B 82993  83128M 83131B 83156  83361M 83364B 83381  83480M 83483B 83601  83715M 83718B 83746
             83908M 83910B 83923M 83932  83983M 84009M 84012B 84029  84030M 84032M 84035  84065M 84079M 84080M 84080B
             84097M 84100B 84117  84118M 84120M 84123  84153M 84167M 84168M 84168B 84185M 84188B 84205  84206M 84208M
             84211  84241M 84255M 84256M 84256B 84266M 84267M 84267B 84284M 84287B 84304  84305M 84307M 84310  84340M
             84372M 84373M 84373  84379M 84379B 84427M 84430B 84455  84456M 84458M 84461  84590M 84593B 84605  84606M
             84608M 84611  84686M 84687M 84687  84694M 84694B 84791M 84792M 84792  84799M 84799B 84827M 84865M 84898M
             84955M 84956M 84956  84963M 84963B 84994M 84998B 85018  85019M 85021M 85024  85122M 85123M 85123B 85145M
             85148B 85168  85169M 85171M 85174  85259M 85260M 85260B 85290M 85291M 85291B 85313M 85316B 85336  85337M
             85339M 85342  85399M 85400M 85400  85407M 85407B 85445M 85448B 85483B 85503  85504M 85506M 85509  85558M
             85559M 85559B 85579M 85580M 85580B 85601M 85604B 85624  85625M 85627M 85630  85679M 85680M 85680B 85700M
             85701M 85701B 85722M 85725B 85744  85778M 85779M 85779B 85799M 85800M 85800B 85817M 85820B 85839  85915M
             85916M 85916B 85949M 85950M 85950B 85976M 85979B
    15(F)      992U  2864M  2864   8092U  8176U  8241U  8255U  8689M  8690M  8690N  8702   8709M  8714   8724U  8737U
              9185M  9185   9186M  9194   9197M  9213M  9213   9214M  9226M  9226   9227M  9248M  9248   9250M  9250
              9294M  9294   9414M  9414   9469M  9487M  9493M  9523M  9549M  9559M  9683M  9715M  9773M  9774   9845M
              9850M  9850   9869   9872M 10104M 10148  10151M 10285M 10285  10302U 10308  10316M 10324U 10397  10400M
             10451M 10522M 10523M 10525  10527M 10528M 10530  10687M 10687  10709  10712M 10777M 10777  10824M 10824
             10867M 10883M 10883  10912M 10912  10929  10932M 11144M 11220M 11234M 11258M 11318M 11721M 11721  11737
             11740M 11811M 11811  11849  11852M 11957M 12067M 12067  12153M 12231M 12276M 12334M 12378M 12590M 12590
             12607  12610M 12730M 12751M 12771M 12946M 12946  12954M 12966  12972M 12977  12979N 12981M 13071M 13071
             13088  13091M 13184M 13189M 13194  13209M 13226M 13249M 13282M 13311M 13332M 13361M 13394M 13417M 13445M
             13473M 13473  13554  13557M 13591  13695M 13703  13704M 13778M 13879M 13921M 13921  13937  13940M 13999M
             14073M 14099M 14123M 14150M 14150  14216  14219M 14361M 14366M 14387M 14395  14396M 14419M 14439M 14447
             14448M 14464M 14472  14473M 14486M 14486  14516M 14516  14555  14558M 14639M 14695M 14698  14710M 14717M
             14726M 14726  14733  14780M 14825M 14883M 14927M 15127M 15127  15178  15181M 15231M 15237  15238M 15503M
             15549M 15549  15595  15598M 15682M 15792M 15792  15797  15822M 15851M 16079M 16079  16121  16124M 16187
1         General Purpose Register Cross Reference                                                                          Page  530
             16220M 16220  16245  16265M 16305M 16305  16324  16327M 16580M 16608M 16640M 16640  16655  16661  16674M
             16691M 16708M 16732M 16756M 16784M 16846M 16847M 16848  16852M 16853M 16854  16923M 16924M 16925  16929M
             16930M 16931  16970M 16971M 16972  17011M 17012M 17013  17017M 17018M 17019  17042M 17043M 17044  17048M
             17049M 17050  17116M 17116  17136  17139M 17206M 17212  17213M 17301M 17301  17316  17334M 17351M 17375M
             17439M 17439  17444  17446M 17584M 17964M 17964  17986  17989M 18162M 18162  18200  18206  18219M 18236M
             18253M 18277M 18301M 18344M 18382M 18382  18442  18445M 18650M 18658  18659M 18804M 18852M 18853M 18885M
             18886M 18949M 18949  18978M 18978  18996  18999M 19123M 19123  19213  19216M 19309M 19331M 19336  19365M
             19374M 19437M 19484M 19498M 19498  19504  19517M 19544M 19589M 19621M 19649M 19694M 19716M 19744M 19789M
             19812M 19848M 19848  19912  19915M 19966M 19969M 19971  20004M 20023M 20061M 20139M 20233M 20242M 20242
             20369M 20393M 20393  20414  20417M 20521M 20521  20535M 20554M 20554  20620  20623M 20676M 20679M 20681
             20714M 20733M 20778M 20781  20793M 20800M 20809M 20809  20816  21380M 21402M 21402  21419  21426M 21431
             21539M 21539  21559  21647M 21674M 21701M 21728M 21755M 21784M 21811M 21840M 22005M 22005  22181  22207M
             22233M 22233  22251  22254M 22299M 22318  22483  22630M 22630  22651  22654M 22703M 22744M 22771M 22887M
             22907M 22922M 22922  22946M 22946  23041  23044M 23139M 23170M 23170  23193M 23193  23218  23221M 23333M
             23423M 23423  23442M 23442  23465  23468M 23536M 23536  23580M 23630M 23708M 23714  23715M 23722M 23732U
             23744U 23829M 23856M 23900M 23900  23926M 23926  23946  23949M 24004M 24004  24079M 24103M 24103  24122M
             24122  24137  24140M 24251M 24272M 24290M 24297M 24315M 24315  24334M 24334  24351  24354M 24504M 24504
             24586M 24586  24602M 24626M 24626  24645  24648M 24688M 24688  24707M 24707  24722  24725M 24787M 24787
             24806M 24806  24821  24824M 24869M 24869  24888M 24888  24983  24986M 25115M 25115  25149  25155  25168M
             25185M 25202M 25226M 25250M 25947M 25958M 25958  25970  25989M 26016M 26040M 26080M 26097M 26121M 26263M
             26398M 26399M 26400  26415M 27104M 27131M 27158M 27185M 27212M 27239M 27266M 27295M 27300M 27310U 27324U
             27341M 27377M 27402M 27795M 27801  27802M 27996M 27997M 28015M 28028M 28028  28034  28035  28210M 28220U
             28232U 28261M 28288M 28313M 28368M 28395M 28759M 28799M 28799  28917  28920M 29427M 29435  29436M 29518M
             29545M 30023M 30024M 30513M 30516  30528M 30535M 30537  30889M 30894M 30949M 30956M 31039M 31039  31102
             31105M 31289M 31289  31306  31309M 31340M 31419M 31419  31438M 31438  31473  31476M 31626M 31631M 31664M
             31664  31706  31709M 31759  31805M 31805  31830  31850M 31890M 31890  31908  31911M 32044M 32044  32045M
             32090M 32090  32105  32108M 32256M 32256  32274  32277M 32382M 32409M 32434M 32572M 32572  32587  32590M
             32644M 32644  32659  32662M 32784M 32811M 32887M 32887  32908  32911M 32942M 32959M 32967  33039M 33039
             33058M 33058  33073  33076M 33314M 33324  33389N 33395  33403M 33403N 33445M 33455  33520N 33526  33534M
             33534N 33603M 33603  33623  33626M 33745M 33746B 33859M 33869M 34192M 34192  34217  34220M 34358M 34358
             34379  34382M 34413  34467M 34486M 34486  34504  34507M 34655M 34680  34767M 34773  34774M 34781M 34814M
             34814  34829  34832M 34974M 34997  35083M 35083  35101  35104M 35271M 35271  35291  35294M 35397M 35397
             35422  35425M 35491  35607M 35607  35637  35640M 35767M 35791M 35791  35876  35879M 36006M 36006  36042
             36045M 36164M 36183M 36183  36208M 36208  36229  36232M 36404M 36407M 36416M 36416  36423  36470M 36470
             36498  36501M 36568M 36568  36676M 36720M 36720  36744M 36744  36762  36765M 36868M 36901M 36901  36950
             36953M 37096M 37176D 37178M 37178  37179M 37180U 37219M 37351M 37363  37475M 37488M 37488  37499M 37572M
             37582U 37606M 37619U 37642M 37642  37676M 37676  37695  37698M 37916M 37932M 37957M 37977M 37994M 38023M
             38066M 38092M 38122M 38122  38138  38141M 38300M 38300  38319  38322M 38403M 38476M 38476  38494  38497M
             38649M 38695M 38695  38781  38784M 38834U 38847U 39034M 39059M 39079M 39096M 39120M 39150M 39159M 39222M
             39334M 39360M 39378M 39395M 39419M 39427M 39461M 39461  39480M 39497M 39521M 39529M 39712M 39742M 39774M
             39813M 39994M 40024M 40089M 40121M 40195M 40195  40240  40243M 40284  40342M 40410M 40500M 40590M 40644M
             40644  40652M 40681M 40681  40718  40721M 41004  41005  41006  41007  41049M 41049  41067  41070M 41128M
             41169M 41197M 41197  41218  41221M 41353M 41353  41378  41381M 41412  41429M 41454M 41530M 41619M 41660M
             41660  41684M 41684  41709  41712M 41745  41785M 41854M 41881M 41969M 42015M 42015  42034M 42034  42059
             42062M 42093  42094  42114M 42197M 42237M 42265M 42303M 42303  42322M 42322  42439  42442M 42591M 42621M
             42715M 42723M 42726M 42735M 42735  42742  42841M 42870M 43409M 43412M 43414  43481M 43482  43485M 43487
             43653M 43656M 43665M 43665  43672  43807M 43894M 43894  43901M 43931M 43931  43949  43952M 44078M 44078
             44095  44098M 44129  44142M 44160M 44261M 44285M 44285  44304  44307M 44394  44412M 44447M 44471M 44483
             44566M 44566  44588  44591M 44638M 44638  44655M 44655  44701M 44713  44720M 44756M 44756  44776  44779M
             44904M 44928M 44928  44972  44975M 45062M 45062  45068M 45071M 45073  45098M 45100M 45155  45299M 45299
             45320  45323M 45469M 45469  45488  45491M 45597M 45600M 45602  45652M 45652  45672  45675M 45741M 45750M
             45846M 45854M 45857M 45866M 45866  45873  45916M 45916  45995  45998M 46050  46075M 46076M 46095M 46116M
             46179M 46195M 46228M 46271M 46396M 46431M 46506  46558  46576M 46598M 46638M 46669M 46820M 46885M 46909M
             47001M 47030M 47060M 47098M 47187M 47187  47193  47252M 47262U 47278U 47374M 47396  47413M 47434  47451M
             47613M 47613  47630M 47640  47794M 47830M 47836M 47858M 47927M 47927  47944M 47955  48008M 48010M 48012M
             48013  48117  48224M 48256M 48295M 48347  48360M 48405M 48509M 48510  48522M 48551M 48601M 48605M 48614M
             48614  48621  48641M 48645M 48654M 48654  48661  48693M 48717M 48739M 48748M 48748  48922M 48945M 48945
             48962M 48973  49053M 49205M 49296  49313M 49358M 49462  49474M 49660  49676M 49764M 49817M 49839M 49861M
             49894M 49905M 49905  49914M 49914N 49951M 49973M 49995M 50026M 50048M 50070M 50103M 50114M 50114  50123M
1         General Purpose Register Cross Reference                                                                          Page  531
             50123N 50160M 50182M 50204M 50265M 50321M 50361M 50400  50430M 50445M 50483M 50518M 50563M 50636M 50647M
             50663M 50711M 50774M 50842M 50979M 51001M 51080M 51111M 51140M 51206M 51221M 51248M 51286M 51312M 51375M
             51397M 51419M 51435M 51468M 51493M 51509M 51528M 51544M 51577M 51596M 51612M 51618M 51640M 51656M 51701M
             51722M 51750M 51783M 51873M 51920M 52041M 52133M 52190M 52242M 52299M 52318M 52333M 52352M 52367M 52386M
             52408M 52430M 52456M 52483M 52509M 52584M 52632M 52632  52761  52764M 52962M 52962  53002  53005M 53047
             53070M 53086M 53093M 53115M 53131M 53148M 53163M 53185M 53201M 53211M 53235M 53267M 53283M 53319M 53362M
             53378M 53385M 53407M 53439M 53479M 53494M 53524M 53571M 53587M 53594M 53616M 53659M 53675M 53682M 53704M
             53747M 53763M 53805M 53821M 53863M 53879M 53921M 53937M 53974M 53996M 54012M 54049M 54071M 54087M 54108M
             54125M 54147M 54162M 54181M 54196M 54215M 54231M 54253M 54269M 54291M 54307M 54329M 54345M 54383M 54399M
             54441M 54457M 54499M 54515M 54557M 54573M 54615M 54631M 54673M 54689M 54710M 54732M 54748M 54770M 54786M
             54808M 54824M 54846M 54862M 54900M 54916M 54942M 54957M 54988M 55007M 55022M 55048M 55071M 55086M 55105M
             55127M 55144M 55163M 55179M 55198M 55220M 55237M 55256M 55272M 55291M 55313M 55330M 55388M 55403M 55428M
             55471M 55529M 55544M 55569M 55611M 55611  55715  55718M 55773  55786M 55804M 55819M 55845M 55914M 55924M
             55947M 55988M 55995M 56017M 56054M 56073M 56095M 56132M 56151M 56173M 56210M 56229M 56251M 56288M 56307M
             56322M 56341M 56357M 56389M 56408M 56423M 56449M 56486M 56505M 56520M 56539M 56555M 56587M 56606M 56621M
             56647M 56683M 56738M 56753M 56772M 56787M 56819M 56855M 56910M 56925M 56944M 56959M 56991M 57028M 57028
             57108  57111M 57167  57180M 57199M 57214M 57250M 57282M 57301M 57320M 57339M 57372M 57396M 57412M 57438M
             57455M 57497M 57536M 57562M 57607M 57639M 57675M 57699M 57713M 57735M 57768M 57773M 57783U 57797U 57816M
             57831M 57862M 57881M 57918M 57942M 57958M 57984M 58052M 58071M 58086M 58105M 58120M 58139M 58154M 58175M
             58190M 58211M 58233M 58249M 58268M 58283M 58302M 58317M 58349M 58368M 58383M 58409M 58426M 58445M 58460M
             58479M 58494M 58526M 58545M 58560M 58586M 58619M 58639M 58655M 58689M 58704M 58730M 58769M 58775M 58797M
             58819M 58856M 58862M 58884M 58911M 58930M 58946M 58988M 59027M 59033M 59055M 59077M 59115M 59121M 59143M
             59170M 59189M 59204M 59235M 59261M 59303M 59340M 59376M 59412M 59435M 59519M 59531M 59553M 59570M 59589M
             59607M 59612M 59613M 59623  59630  59700M 59731M 59764M 59786M 59816M 59838M 59873M 59908M 59943M 59969M
             59993M 60048M 60078M 60109M 60127M 60142M 60168M 60199M 60227M 60287M 60309M 60336M 60363M 60420M 60447M
             60503M 60608M 60653M 60675M 60690M 60718M 60750M 60769M 60795M 60845M 60861M 60883M 60905M 60921M 60947M
             60984M 60984  61141  61144M 61218  61246M 61268M 61289M 61304M 61326M 61347M 61362M 61480M 61520M 61535M
             61554M 61576M 61791M 61824M 61845M 61865M 61918M 61953M 61965M 61969M 61971  62025M 62084M 62117M 62130M
             62134M 62136  62201M 62236M 62253M 62257M 62259  62313M 62372M 62410M 62530M 62554M 62584M 62599M 62614M
             62629M 62644M 62669M 62697M 62719M 62738M 62772M 62819M 62866M 62906M 62925M 62944M 62966M 63030M 63082M
             63106M 63121M 63145M 63180M 63219M 63245M 63298M 63363M 63388M 63403M 63428M 63443M 63464M 63496M 63522M
             63574M 63639M 63664M 63679M 63704M 63719M 63751M 63787M 63823M 63859M 63895M 63914M 63936M 63966M 63988M
             64007M 64032M 64047M 64070M 64092M 64159M 64184M 64206M 64268M 64339M 64423M 64462M 64462  64582  64585M
             64626  64658M 64673M 64698M 64714M 64746M 64782M 64818M 64854M 64873M 64900M 64933M 64970M 65007M 65044M
             65081M 65107M 65126M 65180M 65195M 65202M 65242M 65257M 65262M 65274  65291M 65320  65337M 65366  65383M
             65412  65429M 65454  65464M 65501M 65520M 65546M 65589M 65631M 65709M 65751M 65829M 65871M 65940M 65967M
             65980  66009M 66053M 66085M 66107M 66122M 66156M 66203M 66250M 66297M 66344M 66391M 66438M 66485M 66532M
             66566M 66604M 66622M 66642M 66661M 66695M 66714M 66729M 66755M 66802M 66817M 66839M 66918M 66944M 66991M
             66999M 67039M 67057M 67072M 67079M 67119M 67137M 67152M 67171M 67186M 67205M 67220M 67239M 67254M 67273M
             67288M 67307M 67329M 67390M 67417M 67442M 67471M 67498M 67524M 67573M 67588M 67603M 67610D 67612M 67612
             67613M 67614U 67626  67643M 67672  67689M 67714  67724M 67743M 67788M 67820M 67852M 67876M 67888M 67924M
             67924  67943  67946M 67977  68017M 68035M 68085M 68119M 68169M 68205M 68251M 68287M 68302M 68327M 68366M
             68381M 68386M 68387M 68396M 68396  68406M 68406  68446M 68498M 68525M 68553M 68553  68702  68705M 68748
             68771M 68832M 68869M 68869  68926  68929M 68973  69025M 69078M 69214M 69232M 69355M 69388M 69388  69419
             69422M 69454  69455  69479M 69545M 69545  69599  69602M 69656M 69671M 69777M 69792M 69800  69802M 69803M
             69814  69820M 69823M 69852  69858M 69881M 69881  69900  69903M 69958U 69993M 69993  70018  70025U 70047M
             70047  70062  70065M 70135M 70141  70142M 70153M 70154  70155M 70156  70199M 70209U 70222U 70236M 70236
             70255M 70255  70298  70301M 70402M 70402  70438M 70438  70457  70460M 70784M 70784  70823  70826M 70916M
             70919  70931M 70938M 70947M 70947  70954  71032M 71091M 71268  71277M 71304M 71325M 71349M 71380M 71407M
             71434M 71459M 71483M 71520M 71520  71538  71541M 71624M 71630  71631M 71669M 71678M 71706M 71706  71728
             71731M 71835M 71836  71845M 71845  71872M 71873M 71873  71911U 71924U 71931M 71957M 71957  71986M 71986
             72008  72011M 72115M 72134M 72134  72172M 72175  72187M 72194M 72196  72256M 72256  72296M 72341M 72341
             72366M 72366  72408  72411M 72462  72647M 72658  72667M 72667  72684  72829M 72829  72851  72854M 72935M
             73181M 73181  73205M 73205  73258  73261M 73363M 73385M 73385  73545M 73565M 73642M 73642  73676M 73676
             73697  73700M 73743M 73743  73768  73793  73818  73843  73868  73893  73918  73943  73976M 73976  74018
             74021M 74077  74256M 74266U 74402U 74432M 74438M 74462M 74494M 74527M 74538M 74603M 74603  74736  74739M
             74780  74864M 74899M 74903M 74955M 74955  74956M 74957B 75048M 75052M 75061M 75061  75068  75088  75211M
             75211  75270  75273M 75314M 75315M 75317M 75343M 75343  75360  75398M 75398  75422M 75422  75441  75444M
             75500M 75500  75515  75518M 75573M 75573  75590U 75616M 75616  75622  75629U 75689M 75713M 75748M 75776M
1         General Purpose Register Cross Reference                                                                          Page  532
             75809M 75851M 75876M 75908M 75929M 75957M 75980M 76031M 76048M 76073M 76121M 76142M 76159M 76187M 76205M
             76230M 76278M 76299M 76316M 76344M 76363M 76381M 76405M 76446M 76470M 76512M 76530M 76558M 76576M 76594M
             76611M 76629M 76716M 76733M 76739M 76763M 76790M 76807M 76831M 76848M 76872M 76889M 76913M 76962M 76994M
             77018M 77035M 77063M 77087M 77136M 77154M 77172M 77178M 77202M 77226M 77245M 77280M 77314M 77332M 77356M
             77380M 77402M 77411M 77450M 77468M 77486M 77510M 77519M 77543M 77561M 77579M 77597M 77625M 77649M 77677M
             77695M 77704M 77722M 77740M 77749M 77767M 77786M 77790M 77790  77823  77826M 77971M 77971  78080  78083M
             78128  78155  78188M 78214M 78229M 78248M 78270M 78313M 78313  78314M 78315B 78372M 78378  78381D 78383M
             78383  78384M 78385U 78386M 78387  78388  78463M 78467M 78476M 78476  78483  78524M 78547M 78547  78548M
             78549  78552  78557  78558  78561  78565  78600M 78600  78640  78643M 78700M 78719M 78748M 78774M 78818M
             78863M 78866M 78868  78883M 78909  78930  78951  78972  79019M 79022M 79024  79210M 79210  79230  79233M
             79280M 79281M 79283M 79403M 79403  79447  79457M 79457  79466  79517M 79536M 79536  79602  79605M 79736M
             79746M 79747M 79748  79774M 79775M 79776  79789M 79789  79808M 79808  79830  79833M 79918M 79925M 79926M
             79942M 79942  79961M 79961  79979  79982M 80062M 80063M 80064  80098M 80099M 80138M 80156M 80156  80175M
             80175  80339M 80339  80492M 80492  80541M 80541  80556M 80557M 80629M 80629  80651M 80652M 80747  80752M
             80752  80859  80982  80999M 80999  81097M 81097  81132M 81142  81145M 81228  81482M 81507M 81507  81572
             81616  81627M 81678  81713  81727  81737M 81737  81742  81743M 81744N 81751M 81974M 81974  82029  82040M
             82047M 82086M 82086  82141  82148M 82154M 82262M 82262  82315  82330M 82358M 82381M 82436M 82436  82489
             82512M 82601M 82624M 82679M 82679  82815M 82834M 82834  82896  82908M 82967M 82967  83130M 83130  83363M
             83363  83482M 83482  83684M 83686M 83692M 83717M 83717  83733M 83835  83877M 83969U 83991U 84011M 84011
             84029  84032M 84063  84076M 84099M 84099  84117  84120M 84151  84164M 84187M 84187  84205  84208M 84239
             84252M 84263M 84286M 84286  84304  84307M 84338  84362M 84401M 84401  84429M 84429  84455  84458M 84489
             84592M 84592  84605  84608M 84639  84781M 84837M 84838M 84838  84855  84865M 84867M 84873M 84874  84890N
             84896M 84898M 84931M 84934  84944M 84997M 85018  85021M 85052  85119M 85147M 85147  85168  85171M 85202
             85256M 85287M 85315M 85315  85336  85339M 85370  85447M 85447  85467U 85481U 85503  85506M 85537  85542M
             85576M 85603M 85603  85624  85627M 85658  85663M 85697M 85724M 85724  85772  85774M 85796M 85819M 85819
             85867  85912M 85946M 85978M 85978

1AMELIA   Diagnostic Cross Reference and Assembler Summary                                                                  Page  533
-                                                                                            HLASM R4.0  2004/03/15 13.11
0     No Statements Flagged in this Assembly
 HIGH LEVEL ASSEMBLER, 5696-234, RELEASE 4.0, PTF P72483
0SYSTEM: OS/390 02.10.00            JOBNAME: AMY#ASM     STEPNAME: ASM        PROCSTEP: (NOPROC)
0Datasets Allocated for this Assembly
  Con DDname   Dataset Name                                 Volume  Member
   P1 SYSIN    GG$SLP.AMY#ASM.JOB04051.D0000101.?
   L1 SYSLIB   SYS3.IS.MACLIB                               SYSB05
   L2          WYL.GG.SYS.VSCN.MACLIB                       SYSB05
   L3          WYL.GG.SYS.MACLIB                            SYSB05
   L4          SYS3.MACLIB                                  SYSB02
   L5          SYS1.MACLIB                                  MVSBR9
      SYSLIN   WYL.GS.MIL.TESTAMY.OBJECT                    SYSB05
      SYSPRINT SYS04075.T131107.RA000.AMY#ASM.PRINT.H01     SCR101
      SYSTERM  GG$SLP.AMY#ASM.JOB04051.D0000105.?

    7760K allocated to Buffer Pool,        12281K would be required for this to be an In-Storage Assembly
   12839 Primary Input Records Read        27800 Library Records Read               1067 Work File Reads
       0 ASMAOPT Records Read              48800 Primary Print Records Written      1135 Work File Writes
    1592 Punch Records Written                 0 ADATA Records Written
0Assembly Start Time: 13.11.08 Stop Time: 13.11.30 Processor Time: 00.00.17.6736
 Return Code 000
1OS/390 V2 R10 BINDER     13:11:34 MONDAY MARCH 15, 2004
 BATCH EMULATOR  JOB(AMY#ASM ) STEP(LINK    ) PGM= HEWL
 IEW2278I B352 INVOCATION PARAMETERS - DCBS,NCAL,LET,MAP

 IEW2322I 1220  1    INCLUDE OBJECT
 IEW2322I 1220  2    INCLUDE SCANOBJ(VSCN)
 IEW2322I 1220  3    ORDER AMELIA(P)
 IEW2322I 1220  4    ENTRY STARTUP
 IEW2322I 1220  5    SETCODE AC(1)
 IEW2322I 1220  6    NAME  AMELIA(R)


1                         *** M O D U L E  M A P ***

 ---------------
 CLASS  B_TEXT            LENGTH =    10E90  ATTRIBUTES = CAT,   LOAD, RMODE= 24
                          OFFSET =        0 IN SEGMENT 001       ALIGN = PAGE
 ---------------

  SECTION    CLASS                                      ------- SOURCE --------
   OFFSET   OFFSET  NAME                TYPE    LENGTH  DDNAME   SEQ  MEMBER

                 0  AMELIA             CSECT     1041A  OBJECT    01  **NULL**
      9F8      9F8     STARTUP            LABEL
     C888     C888     HEXSEG             LABEL
     D534     D534     PATHINFO           LABEL
     EEFC     EEFC     RTRIM              LABEL
     EF36     EF36     LRTRIM             LABEL
     EF88     EF88     DTB                LABEL
     EFD6     EFD6     XTB                LABEL
     F03C     F03C     BTD                LABEL
     F0B8     F0B8     BTX                LABEL
     F124     F124     BTR                LABEL
     F2B4     F2B4     FMTXDATE           LABEL
     F41A     F41A     FMTCLCK            LABEL
     F472     F472     FMTRCLCK           LABEL
     F4EA     F4EA     FMTTIME            LABEL
     F55C     F55C     FMTDATE            LABEL
     F622     F622     FMTDAY             LABEL
     F6EA     F6EA     FMTJUL             LABEL
     F734     F734     TIMEDATE           LABEL
     F7B0     F7B0     DATE               LABEL
     F886     F886     TIME               LABEL
     FB06     FB06     DEQUOTE            LABEL
     FB0A     FB0A     DEQSTR             LABEL
     FB80     FB80     SEGINIT            LABEL
     FBBA     FBBA     SEGB               LABEL
     FC02     FC02     SEGTB              LABEL
     FC4A     FC4A     SEGCR              LABEL
     FC9A     FC9A     SEGWR              LABEL
     FCFE     FCFE     SEGT               LABEL
     FD60     FD60     SEG                LABEL
     FE8C     FE8C     SEGCOL             LABEL
     FEE2     FEE2     SEGBLANK           LABEL
     FF46     FF46     SEGCLR             LABEL
     FF96     FF96     SEGMARK            LABEL
     FF9E     FF9E     SEGDC              LABEL
     FFEE     FFEE     SEGHX              LABEL

             10420  VERSION            CSECT        50  OBJECT    01  **NULL**

             10470  VSCN               CSECT       A20  SCANOBJ   01  VSCN
        0    10470     VSCN01             LABEL
       16    10486     SCINIT             LABEL
       26    10496     SCTELL             LABEL
       38    104A8     SCTYPE             LABEL
       50    104C0     SCAN               LABEL
      58A    109FA     DQSCAN             LABEL


1          ***  DATA SET SUMMARY  ***

 DDNAME    CONCAT   FILE IDENTIFICATION
 OBJECT      01     WYL.GS.MIL.TESTAMY.OBJECT
 SCANOBJ     01     WYL.GG.SYS.VSCN.OBJECT

           *** E N D  O F  M O D U L E  M A P ***


1PROCESSING OPTIONS:

    ALIASES             NO
    ALIGN2              NO
    AMODE               UNSPECIFIED
    CALL                NO
    CASE                UPPER
    COMPAT              UNSPECIFIED
    DCBS                YES
    DYNAM               NO
    EXTATTR             UNSPECIFIED
    EXITS:              NONE
    FILL                NONE
    GID                 UNSPECIFIED
    HOBSET              NO
    LET                 08
    LINECT              060
    LIST                SUMMARY
    LISTPRIV            NO
    MAP                 YES
    MAXBLK              032760
    MSGLEVEL            00
    OVLY                NO
    PRINT               YES
    RES                 NO
    REUSABILITY         UNSPECIFIED
    RMODE               UNSPECIFIED
    STORENX             NO
    TERM                NO
    UID                 UNSPECIFIED
    UPCASE:             NO
    WKSPACE             000000K,000000K
    XCAL                NO
    XREF                NO
    ***END OF OPTIONS***


1SAVE OPERATION SUMMARY:

    MEMBER NAME         AMELIA
    LOAD LIBRARY        SYS04075.T131107.RA000.AMY#ASM.R0122570
    PROGRAM TYPE        LOAD MODULE
    VOLUME SERIAL       SCR101
    MAX BLOCK           19069
    DISPOSITION         ADDED NEW
    TIME OF SAVE        13.11.35  MAR 15, 2004


1SAVE MODULE ATTRIBUTES:

    AC                  001
    AMODE                24
    DC                  NO
    EDITABLE            YES
    EXCEEDS 16MB        NO
    EXECUTABLE          YES
    MIGRATABLE          YES
    OL                  NO
    OVLY                NO
    PACK,PRIME          NO,NO
    PAGE ALIGN          YES
    REFR                NO
    RENT                NO
    REUS                NO
    RMODE                24
    SCTR                NO
    SSI
    SYM GENERATED       NO
    TEST                NO
    XPLINK              NO
    MODULE SIZE (HEX)   00010E90


1 ENTRY POINT AND ALIAS SUMMARY:

  NAME:            ENTRY TYPE AMODE C_OFFSET CLASS NAME        STATUS

  STARTUP           MAIN_EP      24 000009F8 B_TEXT

                          ***** E N D  O F  R E P O R T *****


1OS/390 V2 R10 BINDER     13:11:34 MONDAY MARCH 15, 2004
 BATCH EMULATOR  JOB(AMY#ASM ) STEP(LINK    ) PGM= HEWL
 IEW2008I 0F03 PROCESSING COMPLETED.  RETURN CODE =  0.


1----------------------
 MESSAGE SUMMARY REPORT
 ----------------------
  SEVERE MESSAGES        (SEVERITY = 12)
  NONE

  ERROR MESSAGES         (SEVERITY = 08)
  NONE

  WARNING MESSAGES       (SEVERITY = 04)
  NONE

  INFORMATIONAL MESSAGES (SEVERITY = 00)
  2008  2278  2322


  **** END OF MESSAGE SUMMARY REPORT ****

1                                         IEBCOPY MESSAGES AND CONTROL STATEMENTS                              PAGE     1
-IEB1135I IEBCOPY  FMID HDZ11F0  SERVICE LEVEL UW81747  DATED 20010911 DFSMS 02.10.00 OS/390  02.10.00 HBB7703  CPU 9672
 IEB1035I AMY#ASM   COPY     13:11:35 MON 15 MAR 2004 PARM=''
- C I=((IN,R)),O=OUT
0IEB1013I COPYING FROM PDS   INDD=IN       VOL=SCR101 DSN=SYS04075.T131107.RA000.AMY#ASM.R0122570
 IEB1014I           TO PDS  OUTDD=OUT      VOL=SYSB05 DSN=WYL.GS.MIL.TESTAMY.LINKLIB
 IEB167I FOLLOWING MEMBER(S) COPIED FROM INPUT DATA SET REFERENCED BY IN
 IEB154I AMELIA   HAS BEEN SUCCESSFULLY COPIED
 IEB1098I 1 OF 1 MEMBERS COPIED FROM INPUT DATA SET REFERENCED BY IN
 IEB144I THERE ARE 4 UNUSED TRACKS IN OUTPUT DATA SET REFERENCED BY OUT
 IEB149I THERE ARE 10 UNUSED DIRECTORY BLOCKS IN OUTPUT DIRECTORY
- C I=OUT,O=OUT
0IEB1018I COMPRESSING  PDS  OUTDD=OUT      VOL=SYSB05 DSN=WYL.GS.MIL.TESTAMY.LINKLIB
 IEB152I TEMPNAM0 COMPRESSED - WAS ALREADY IN PLACE AND NOT MOVED
 IEB1097I FOLLOWING MEMBER(S) MOVED IN DATA SET REFERENCED BY OUT
 IEB154I AMELIA   HAS BEEN SUCCESSFULLY MOVED
 IEB1098I 1 OF 2 MEMBERS MOVED IN DATA SET REFERENCED BY OUT
 IEB144I THERE ARE 6 UNUSED TRACKS IN OUTPUT DATA SET REFERENCED BY OUT
 IEB149I THERE ARE 10 UNUSED DIRECTORY BLOCKS IN OUTPUT DIRECTORY
 IEB147I END OF JOB - 0 WAS HIGHEST SEVERITY CODE
